{
  "address": "0x47bB0A7AeaC2ffd48EC6Aa3190Bfa84748F800d5",
  "abi": [
    {
      "inputs": [
        {
          "internalType": "address",
          "name": "_poolAddressesProvider",
          "type": "address"
        },
        {
          "internalType": "address",
          "name": "_uiPoolDataProvider",
          "type": "address"
        }
      ],
      "stateMutability": "nonpayable",
      "type": "constructor"
    },
    {
      "inputs": [
        {
          "internalType": "address",
          "name": "user",
          "type": "address"
        }
      ],
      "name": "borrowedTokens",
      "outputs": [
        {
          "internalType": "address[]",
          "name": "",
          "type": "address[]"
        }
      ],
      "stateMutability": "view",
      "type": "function"
    },
    {
      "inputs": [
        {
          "internalType": "address",
          "name": "underlyingToken",
          "type": "address"
        }
      ],
      "name": "getAToken",
      "outputs": [
        {
          "internalType": "address",
          "name": "",
          "type": "address"
        }
      ],
      "stateMutability": "view",
      "type": "function"
    },
    {
      "inputs": [
        {
          "internalType": "address",
          "name": "user",
          "type": "address"
        }
      ],
      "name": "getAllTokensInfo",
      "outputs": [
        {
          "components": [
            {
              "internalType": "address",
              "name": "token",
              "type": "address"
            },
            {
              "internalType": "uint256",
              "name": "supplyRate",
              "type": "uint256"
            },
            {
              "internalType": "uint256",
              "name": "borrowRate",
              "type": "uint256"
            },
            {
              "internalType": "string",
              "name": "name",
              "type": "string"
            },
            {
              "internalType": "string",
              "name": "symbol",
              "type": "string"
            },
            {
              "internalType": "uint256",
              "name": "price",
              "type": "uint256"
            },
            {
              "internalType": "uint256",
              "name": "borrowBalance",
              "type": "uint256"
            },
            {
              "internalType": "uint256",
              "name": "balance",
              "type": "uint256"
            },
            {
              "internalType": "address",
              "name": "aToken",
              "type": "address"
            }
          ],
          "internalType": "struct AaveGatewayView.TokenInfo[]",
          "name": "",
          "type": "tuple[]"
        }
      ],
      "stateMutability": "view",
      "type": "function"
    },
    {
      "inputs": [
        {
          "internalType": "address",
          "name": "token",
          "type": "address"
        },
        {
          "internalType": "address",
          "name": "user",
          "type": "address"
        }
      ],
      "name": "getBalance",
      "outputs": [
        {
          "internalType": "uint256",
          "name": "",
          "type": "uint256"
        }
      ],
      "stateMutability": "view",
      "type": "function"
    },
    {
      "inputs": [
        {
          "internalType": "address",
          "name": "token",
          "type": "address"
        },
        {
          "internalType": "address",
          "name": "user",
          "type": "address"
        }
      ],
      "name": "getBorrowBalance",
      "outputs": [
        {
          "internalType": "uint256",
          "name": "",
          "type": "uint256"
        }
      ],
      "stateMutability": "view",
      "type": "function"
    },
    {
      "inputs": [
        {
          "internalType": "address",
          "name": "token",
          "type": "address"
        },
        {
          "internalType": "address",
          "name": "user",
          "type": "address"
        }
      ],
      "name": "getBorrowBalanceCurrent",
      "outputs": [
        {
          "internalType": "uint256",
          "name": "",
          "type": "uint256"
        }
      ],
      "stateMutability": "nonpayable",
      "type": "function"
    },
    {
      "inputs": [
        {
          "internalType": "address",
          "name": "token",
          "type": "address"
        }
      ],
      "name": "getBorrowRate",
      "outputs": [
        {
          "internalType": "uint256",
          "name": "",
          "type": "uint256"
        },
        {
          "internalType": "bool",
          "name": "",
          "type": "bool"
        }
      ],
      "stateMutability": "view",
      "type": "function"
    },
    {
      "inputs": [
        {
          "internalType": "address",
          "name": "token",
          "type": "address"
        },
        {
          "internalType": "address",
          "name": "user",
          "type": "address"
        }
      ],
      "name": "getPossibleCollaterals",
      "outputs": [
        {
          "internalType": "address[]",
          "name": "collateralAddresses",
          "type": "address[]"
        },
        {
          "internalType": "uint256[]",
          "name": "balances",
          "type": "uint256[]"
        },
        {
          "internalType": "string[]",
          "name": "symbols",
          "type": "string[]"
        },
        {
          "internalType": "uint8[]",
          "name": "decimals",
          "type": "uint8[]"
        }
      ],
      "stateMutability": "view",
      "type": "function"
    },
    {
      "inputs": [
        {
          "internalType": "address",
          "name": "token",
          "type": "address"
        }
      ],
      "name": "getSupplyRate",
      "outputs": [
        {
          "internalType": "uint256",
          "name": "",
          "type": "uint256"
        },
        {
          "internalType": "bool",
          "name": "",
          "type": "bool"
        }
      ],
      "stateMutability": "view",
      "type": "function"
    },
    {
      "inputs": [
        {
          "internalType": "address",
          "name": "market",
          "type": "address"
        }
      ],
      "name": "getSupportedCollaterals",
      "outputs": [
        {
          "internalType": "address[]",
          "name": "collateralAddresses",
          "type": "address[]"
        }
      ],
      "stateMutability": "view",
      "type": "function"
    },
    {
      "inputs": [
        {
          "internalType": "address",
          "name": "aToken",
          "type": "address"
        }
      ],
      "name": "getUnderlyingToken",
      "outputs": [
        {
          "internalType": "address",
          "name": "",
          "type": "address"
        }
      ],
      "stateMutability": "view",
      "type": "function"
    },
    {
      "inputs": [
        {
          "internalType": "address",
          "name": "market",
          "type": "address"
        },
        {
          "internalType": "address",
          "name": "collateral",
          "type": "address"
        }
      ],
      "name": "isCollateralSupported",
      "outputs": [
        {
          "internalType": "bool",
          "name": "isSupported",
          "type": "bool"
        }
      ],
      "stateMutability": "view",
      "type": "function"
    },
    {
      "inputs": [],
      "name": "poolAddressesProvider",
      "outputs": [
        {
          "internalType": "contract IPoolAddressesProvider",
          "name": "",
          "type": "address"
        }
      ],
      "stateMutability": "view",
      "type": "function"
    },
    {
      "inputs": [],
      "name": "uiPoolDataProvider",
      "outputs": [
        {
          "internalType": "contract IUiPoolDataProviderV3",
          "name": "",
          "type": "address"
        }
      ],
      "stateMutability": "view",
      "type": "function"
    }
  ],
  "args": [
    "0xe20fcbdbffc4dd138ce8b2e6fbb6cb49777ad64d",
    "0x174446a6741300cD2E7C1b1A636Fee99c8F83502"
  ],
  "numDeployments": 1,
  "solcInputHash": "82bd55032c9f338f8bcdd798842a911e",
  "bytecode": "0x60c060405234801561000f575f5ffd5b506040516129ad3803806129ad83398101604081905261002e91610060565b6001600160a01b039182166080521660a052610091565b80516001600160a01b038116811461005b575f5ffd5b919050565b5f5f60408385031215610071575f5ffd5b61007a83610045565b915061008860208401610045565b90509250929050565b60805160a05161285a6101535f395f8181610218015281816102da01528181610a7901528181610bac01528181610c6401528181610f790152818161124701528181611386015281816114ba0152818161172f01528181611855015261199c01525f81816101f1015281816102b001528181610a4701528181610b7f01528181610c2f01528181610f4c0152818161110c015281816112190152818161135a01528181611485015281816116fd01528181611827015261196e015261285a5ff3fe608060405234801561000f575f5ffd5b50600436106100e5575f3560e01c80637846611311610088578063ceac55df11610063578063ceac55df1461023a578063d4fac45d1461024d578063d71275f614610260578063e94201c714610273575f5ffd5b806378466113146101c957806380e17d87146101ec578063c3a3a9a714610213575f5ffd5b806366e2d09b116100c357806366e2d09b14610156578063691bcc88146101765780636b5441a9146101a1578063732a52ee14610176575f5ffd5b8063104e999d146100e9578063118e31b714610115578063401d45d014610136575b5f5ffd5b6100fc6100f7366004611cc2565b610286565b60405161010c9493929190611d9d565b60405180910390f35b610128610123366004611cc2565b610994565b60405190815260200161010c565b610149610144366004611e61565b610b68565b60405161010c9190611e7c565b610169610164366004611e61565b610f35565b60405161010c9190611f6b565b610189610184366004611e61565b611108565b6040516001600160a01b03909116815260200161010c565b6101b46101af366004611e61565b611202565b6040805192835290151560208301520161010c565b6101dc6101d7366004611cc2565b611343565b604051901515815260200161010c565b6101897f000000000000000000000000000000000000000000000000000000000000000081565b6101897f000000000000000000000000000000000000000000000000000000000000000081565b610169610248366004611e61565b61146e565b61012861025b366004611cc2565b61164a565b6101b461026e366004611e61565b611810565b610128610281366004611cc2565b611945565b60608080806001600160a01b0385166105db5760405163ec489c2160e01b81526001600160a01b037f0000000000000000000000000000000000000000000000000000000000000000811660048301525f917f00000000000000000000000000000000000000000000000000000000000000009091169063ec489c21906024015f60405180830381865afa158015610320573d5f5f3e3d5ffd5b505050506040513d5f823e601f3d908101601f19168201604052610347919081019061215e565b508051909150806001600160401b0381111561036557610365611f7d565b60405190808252806020026020018201604052801561038e578160200160208202803683370190505b509550806001600160401b038111156103a9576103a9611f7d565b6040519080825280602002602001820160405280156103d2578160200160208202803683370190505b509450806001600160401b038111156103ed576103ed611f7d565b60405190808252806020026020018201604052801561042057816020015b606081526020019060019003908161040b5790505b509350806001600160401b0381111561043b5761043b611f7d565b604051908082528060200260200182016040528015610464578160200160208202803683370190505b5092505f5b818110156105d35782818151811061048357610483612506565b60200260200101515f01518782815181106104a0576104a0612506565b60200260200101906001600160a01b031690816001600160a01b0316815250508281815181106104d2576104d2612506565b6020026020010151604001518582815181106104f0576104f0612506565b602002602001018190525082818151811061050d5761050d612506565b60200260200101515f01516001600160a01b031663313ce5676040518163ffffffff1660e01b8152600401602060405180830381865afa925050508015610571575060408051601f3d908101601f1916820190925261056e9181019061251a565b60015b6105a257601284828151811061058957610589612506565b602002602001019060ff16908160ff16815250506105cb565b808583815181106105b5576105b5612506565b602002602001019060ff16908160ff1681525050505b600101610469565b50505061098b565b604051630401d45d60e41b81526001600160a01b03861660048201525f90309063401d45d0906024015f60405180830381865afa15801561061e573d5f5f3e3d5ffd5b505050506040513d5f823e601f3d908101601f191682016040526106459190810190612533565b90505f805b825181101561068e575f83828151811061066657610666612506565b602002602001015160e0015111156106865781610682816126a2565b9250505b60010161064a565b50806001600160401b038111156106a7576106a7611f7d565b6040519080825280602002602001820160405280156106d0578160200160208202803683370190505b509550806001600160401b038111156106eb576106eb611f7d565b604051908082528060200260200182016040528015610714578160200160208202803683370190505b509450806001600160401b0381111561072f5761072f611f7d565b60405190808252806020026020018201604052801561076257816020015b606081526020019060019003908161074d5790505b509350806001600160401b0381111561077d5761077d611f7d565b6040519080825280602002602001820160405280156107a6578160200160208202803683370190505b5092505f805b8351811015610986575f8482815181106107c8576107c8612506565b602002602001015160e00151111561097e578381815181106107ec576107ec612506565b60200260200101515f015188838151811061080957610809612506565b60200260200101906001600160a01b031690816001600160a01b03168152505083818151811061083b5761083b612506565b602002602001015160e0015187838151811061085957610859612506565b60200260200101818152505083818151811061087757610877612506565b60200260200101516080015186838151811061089557610895612506565b60200260200101819052508381815181106108b2576108b2612506565b60200260200101515f01516001600160a01b031663313ce5676040518163ffffffff1660e01b8152600401602060405180830381865afa925050508015610916575060408051601f3d908101601f191682019092526109139181019061251a565b60015b61094757601285838151811061092e5761092e612506565b602002602001019060ff16908160ff1681525050610970565b8086848151811061095a5761095a612506565b602002602001019060ff16908160ff1681525050505b8161097a816126a2565b9250505b6001016107ac565b505050505b92959194509250565b5f5f5f6109a085611957565b92509250508080156109ba57506001600160a01b03821615155b15610a30576040516370a0823160e01b81526001600160a01b0385811660048301528316906370a0823190602401602060405180830381865afa925050508015610a21575060408051601f3d908101601f19168201909252610a1e918101906126c6565b60015b15610a30579250610b62915050565b6040516301465d3360e61b81526001600160a01b037f00000000000000000000000000000000000000000000000000000000000000008116600483015285811660248301525f917f0000000000000000000000000000000000000000000000000000000000000000909116906351974cc0906044015f60405180830381865afa158015610abf573d5f5f3e3d5ffd5b505050506040513d5f823e601f3d908101601f19168201604052610ae691908101906126dd565b5090505f5b8151811015610b5a57866001600160a01b0316828281518110610b1057610b10612506565b60200260200101515f01516001600160a01b031603610b5257818181518110610b3b57610b3b612506565b602002602001015160600151945050505050610b62565b600101610aeb565b505f93505050505b92915050565b60405163ec489c2160e01b81526001600160a01b037f0000000000000000000000000000000000000000000000000000000000000000811660048301526060915f917f0000000000000000000000000000000000000000000000000000000000000000169063ec489c21906024015f60405180830381865afa158015610bf0573d5f5f3e3d5ffd5b505050506040513d5f823e601f3d908101601f19168201604052610c17919081019061215e565b506040516301465d3360e61b81526001600160a01b037f00000000000000000000000000000000000000000000000000000000000000008116600483015285811660248301529192505f917f000000000000000000000000000000000000000000000000000000000000000016906351974cc0906044015f60405180830381865afa158015610ca8573d5f5f3e3d5ffd5b505050506040513d5f823e601f3d908101601f19168201604052610ccf91908101906126dd565b5090505f82516001600160401b03811115610cec57610cec611f7d565b604051908082528060200260200182016040528015610d7757816020015b610d646040518061012001604052805f6001600160a01b031681526020015f81526020015f815260200160608152602001606081526020015f81526020015f81526020015f81526020015f6001600160a01b031681525090565b815260200190600190039081610d0a5790505b5090505f5b8351811015610f2c575f610daa858381518110610d9b57610d9b612506565b60200260200101518886611ab3565b90505f610dd1868481518110610dc257610dc2612506565b60200260200101518987611baf565b9050604051806101200160405280878581518110610df157610df1612506565b60200260200101515f01516001600160a01b03168152602001878581518110610e1c57610e1c612506565b60200260200101516101c001516001600160801b03168152602001878581518110610e4957610e49612506565b60200260200101516101e001516001600160801b03168152602001878581518110610e7657610e76612506565b6020026020010151602001518152602001878581518110610e9957610e99612506565b6020026020010151604001518152602001878581518110610ebc57610ebc612506565b60200260200101516102c001518152602001828152602001838152602001878581518110610eec57610eec612506565b602002602001015161022001516001600160a01b0316815250848481518110610f1757610f17612506565b60209081029190910101525050600101610d7c565b50949350505050565b60405163ec489c2160e01b81526001600160a01b037f0000000000000000000000000000000000000000000000000000000000000000811660048301526060915f917f0000000000000000000000000000000000000000000000000000000000000000169063ec489c21906024015f60405180830381865afa158015610fbd573d5f5f3e3d5ffd5b505050506040513d5f823e601f3d908101601f19168201604052610fe4919081019061215e565b5090505f805b825181101561102d5782818151811061100557611005612506565b60200260200101516101000151156110255781611021816126a2565b9250505b600101610fea565b50806001600160401b0381111561104657611046611f7d565b60405190808252806020026020018201604052801561106f578160200160208202803683370190505b5092505f805b83518110156110ff5783818151811061109057611090612506565b60200260200101516101000151156110f7578381815181106110b4576110b4612506565b60200260200101515f01518583815181106110d1576110d1612506565b6001600160a01b0390921660209283029190910190910152816110f3816126a2565b9250505b600101611075565b50505050919050565b5f5f7f00000000000000000000000000000000000000000000000000000000000000006001600160a01b031663e860accb6040518163ffffffff1660e01b8152600401602060405180830381865afa158015611166573d5f5f3e3d5ffd5b505050506040513d601f19601f8201168201806040525081019061118a91906127bf565b6040516334924edb60e21b81526001600160a01b0385811660048301529192505f9183169063d2493b6c90602401606060405180830381865afa1580156111d3573d5f5f3e3d5ffd5b505050506040513d601f19601f820116820180604052508101906111f791906127da565b509095945050505050565b60405163ec489c2160e01b81526001600160a01b037f0000000000000000000000000000000000000000000000000000000000000000811660048301525f91829182917f00000000000000000000000000000000000000000000000000000000000000009091169063ec489c21906024015f60405180830381865afa15801561128d573d5f5f3e3d5ffd5b505050506040513d5f823e601f3d908101601f191682016040526112b4919081019061215e565b5090505f5b815181101561133757846001600160a01b03168282815181106112de576112de612506565b60200260200101515f01516001600160a01b03160361132f5781818151811061130957611309612506565b60200260200101516101c001516001816001600160801b03169150935093505050915091565b6001016112b9565b505f9485945092505050565b60405163ec489c2160e01b81526001600160a01b037f0000000000000000000000000000000000000000000000000000000000000000811660048301525f9182917f0000000000000000000000000000000000000000000000000000000000000000169063ec489c21906024015f60405180830381865afa1580156113ca573d5f5f3e3d5ffd5b505050506040513d5f823e601f3d908101601f191682016040526113f1919081019061215e565b5090505f5b815181101561146457836001600160a01b031682828151811061141b5761141b612506565b60200260200101515f01516001600160a01b03160361145c5781818151811061144657611446612506565b6020026020010151610100015192505050610b62565b6001016113f6565b505f949350505050565b6040516301465d3360e61b81526001600160a01b037f00000000000000000000000000000000000000000000000000000000000000008116600483015282811660248301526060915f917f000000000000000000000000000000000000000000000000000000000000000016906351974cc0906044015f60405180830381865afa1580156114fe573d5f5f3e3d5ffd5b505050506040513d5f823e601f3d908101601f1916820160405261152591908101906126dd565b5090505f805b825181101561156f575f83828151811061154757611547612506565b60200260200101516060015111156115675781611563816126a2565b9250505b60010161152b565b505f816001600160401b0381111561158957611589611f7d565b6040519080825280602002602001820160405280156115b2578160200160208202803683370190505b5090505f805b84518110156111f7575f8582815181106115d4576115d4612506565b6020026020010151606001511115611642578481815181106115f8576115f8612506565b60200260200101515f015183838061160f906126a2565b94508151811061162157611621612506565b60200260200101906001600160a01b031690816001600160a01b0316815250505b6001016115b8565b5f5f5f61165685611957565b925050915080801561167057506001600160a01b03821615155b156116e6576040516370a0823160e01b81526001600160a01b0385811660048301528316906370a0823190602401602060405180830381865afa9250505080156116d7575060408051601f3d908101601f191682019092526116d4918101906126c6565b60015b156116e6579250610b62915050565b6040516301465d3360e61b81526001600160a01b037f00000000000000000000000000000000000000000000000000000000000000008116600483015285811660248301525f917f0000000000000000000000000000000000000000000000000000000000000000909116906351974cc0906044015f60405180830381865afa158015611775573d5f5f3e3d5ffd5b505050506040513d5f823e601f3d908101601f1916820160405261179c91908101906126dd565b5090505f5b8151811015610b5a57866001600160a01b03168282815181106117c6576117c6612506565b60200260200101515f01516001600160a01b031603611808578181815181106117f1576117f1612506565b602002602001015160200151945050505050610b62565b6001016117a1565b60405163ec489c2160e01b81526001600160a01b037f0000000000000000000000000000000000000000000000000000000000000000811660048301525f91829182917f00000000000000000000000000000000000000000000000000000000000000009091169063ec489c21906024015f60405180830381865afa15801561189b573d5f5f3e3d5ffd5b505050506040513d5f823e601f3d908101601f191682016040526118c2919081019061215e565b5090505f5b815181101561133757846001600160a01b03168282815181106118ec576118ec612506565b60200260200101515f01516001600160a01b03160361193d5781818151811061191757611917612506565b60200260200101516101e001516001816001600160801b03169150935093505050915091565b6001016118c7565b5f6119508383610994565b9392505050565b60405163ec489c2160e01b81526001600160a01b037f0000000000000000000000000000000000000000000000000000000000000000811660048301525f91829182917f00000000000000000000000000000000000000000000000000000000000000009091169063ec489c21906024015f60405180830381865afa925050508015611a0457506040513d5f823e601f3d908101601f19168201604052611a01919081019061215e565b60015b15611aa3575f5b8251811015611a9f57866001600160a01b0316838281518110611a3057611a30612506565b60200260200101515f01516001600160a01b031603611a9757828181518110611a5b57611a5b612506565b60200260200101516102200151838281518110611a7a57611a7a612506565b602002602001015161024001516001955095509550505050611aac565b600101611a0b565b5050505b505f9150819050805b9193909250565b6102208301515f906001600160a01b031615611b3e576102208401516040516370a0823160e01b81526001600160a01b038581166004830152909116906370a0823190602401602060405180830381865afa925050508015611b32575060408051601f3d908101601f19168201909252611b2f918101906126c6565b60015b15611b3e579050611950565b5f5b825181101561146457845f01516001600160a01b0316838281518110611b6857611b68612506565b60200260200101515f01516001600160a01b031603611ba757828181518110611b9357611b93612506565b602002602001015160200151915050611950565b600101611b40565b6102408301515f906001600160a01b031615611c3a576102408401516040516370a0823160e01b81526001600160a01b038581166004830152909116906370a0823190602401602060405180830381865afa925050508015611c2e575060408051601f3d908101601f19168201909252611c2b918101906126c6565b60015b15611c3a579050611950565b5f5b825181101561146457845f01516001600160a01b0316838281518110611c6457611c64612506565b60200260200101515f01516001600160a01b031603611ca357828181518110611c8f57611c8f612506565b602002602001015160600151915050611950565b600101611c3c565b6001600160a01b0381168114611cbf575f5ffd5b50565b5f5f60408385031215611cd3575f5ffd5b8235611cde81611cab565b91506020830135611cee81611cab565b809150509250929050565b5f8151808452602084019350602083015f5b82811015611d325781516001600160a01b0316865260209586019590910190600101611d0b565b5093949350505050565b5f81518084528060208401602086015e5f602082860101526020601f19601f83011685010191505092915050565b5f8151808452602084019350602083015f5b82811015611d3257815160ff16865260209586019590910190600101611d7c565b608081525f611daf6080830187611cf9565b82810360208401528086518083526020830191506020880192505f5b81811015611de9578351835260209384019390920191600101611dcb565b50508381036040850152855180825260208083019350600582901b830181019088015f5b83811015611e3f57601f19858403018652611e29838351611d3c565b6020968701969093509190910190600101611e0d565b50508581036060870152611e538188611d6a565b9a9950505050505050505050565b5f60208284031215611e71575f5ffd5b813561195081611cab565b5f602082016020835280845180835260408501915060408160051b8601019250602086015f5b82811015611f5f57868503603f19018452815180516001600160a01b03168652602081015160208701526040810151604087015260608101516101206060880152611ef1610120880182611d3c565b905060808201518782036080890152611f0a8282611d3c565b91505060a082015160a088015260c082015160c088015260e082015160e08801526101008201519150611f496101008801836001600160a01b03169052565b9550506020938401939190910190600101611ea2565b50929695505050505050565b602081525f6119506020830184611cf9565b634e487b7160e01b5f52604160045260245ffd5b604051608081016001600160401b0381118282101715611fb357611fb3611f7d565b60405290565b60405161052081016001600160401b0381118282101715611fb357611fb3611f7d565b60405161012081016001600160401b0381118282101715611fb357611fb3611f7d565b604051601f8201601f191681016001600160401b038111828210171561202757612027611f7d565b604052919050565b5f6001600160401b0382111561204757612047611f7d565b5060051b60200190565b805161205c81611cab565b919050565b5f82601f830112612070575f5ffd5b81516001600160401b0381111561208957612089611f7d565b61209c601f8201601f1916602001611fff565b8181528460208386010111156120b0575f5ffd5b8160208501602083015e5f918101602001919091529392505050565b8051801515811461205c575f5ffd5b80516001600160801b038116811461205c575f5ffd5b805164ffffffffff8116811461205c575f5ffd5b805160ff8116811461205c575f5ffd5b5f60808284031215612125575f5ffd5b61212d611f91565b825181526020808401519082015260408084015190820152905061215360608301612105565b606082015292915050565b5f5f60a0838503121561216f575f5ffd5b82516001600160401b03811115612184575f5ffd5b8301601f81018513612194575f5ffd5b80516121a76121a28261202f565b611fff565b8082825260208201915060208360051b8501019250878311156121c8575f5ffd5b602084015b838110156124e85780516001600160401b038111156121ea575f5ffd5b8501610520818b03601f19011215612200575f5ffd5b612208611fb9565b61221460208301612051565b815260408201516001600160401b0381111561222e575f5ffd5b61223d8c602083860101612061565b60208301525060608201516001600160401b0381111561225b575f5ffd5b61226a8c602083860101612061565b604083015250608082810151606083015260a0808401519183019190915260c0808401519183019190915260e08084015191830191909152610100830151908201526122b961012083016120cc565b6101008201526122cc61014083016120cc565b6101208201526122df61016083016120cc565b6101408201526122f261018083016120cc565b6101608201526123056101a083016120db565b6101808201526123186101c083016120db565b6101a082015261232b6101e083016120db565b6101c082015261233e61020083016120db565b6101e082015261235161022083016120f1565b6102008201526123646102408301612051565b6102208201526123776102608301612051565b61024082015261238a6102808301612051565b6102608201526102a0828101516102808301526102c080840151918301919091526102e0830151908201526123c26103008301612051565b6102e08201526103208281015161030083015261034080840151918301919091526103608084015191830191909152610380830151908201526124086103a083016120cc565b61038082015261241b6103c083016120cc565b6103a082015261242e6103e083016120db565b6103c082015261244161040083016120db565b6103e082015261245461042083016120db565b61040082015261246761044083016120cc565b6104208201526104608281015161044083015261048080840151918301919091526104a080840151918301919091526104c0830151908201526124ad6104e083016120cc565b6104c08201526124c061050083016120cc565b6104e08201526124d361052083016120db565b610500820152845250602092830192016121cd565b50809550505050506124fd8460208501612115565b90509250929050565b634e487b7160e01b5f52603260045260245ffd5b5f6020828403121561252a575f5ffd5b61195082612105565b5f60208284031215612543575f5ffd5b81516001600160401b03811115612558575f5ffd5b8201601f81018413612568575f5ffd5b80516125766121a28261202f565b8082825260208201915060208360051b850101925086831115612597575f5ffd5b602084015b838110156126975780516001600160401b038111156125b9575f5ffd5b8501610120818a03601f190112156125cf575f5ffd5b6125d7611fdc565b6125e360208301612051565b8152604082810151602083015260608301519082015260808201516001600160401b03811115612611575f5ffd5b6126208b602083860101612061565b60608301525060a08201516001600160401b0381111561263e575f5ffd5b61264d8b602083860101612061565b60808301525060c08281015160a083015260e08084015191830191909152610100830151908201526126826101208301612051565b6101008201528452506020928301920161259c565b509695505050505050565b5f600182016126bf57634e487b7160e01b5f52601160045260245ffd5b5060010190565b5f602082840312156126d6575f5ffd5b5051919050565b5f5f604083850312156126ee575f5ffd5b82516001600160401b03811115612703575f5ffd5b8301601f81018513612713575f5ffd5b80516127216121a28261202f565b8082825260208201915060208360071b850101925087831115612742575f5ffd5b6020840193505b828410156127ad5760808489031215612760575f5ffd5b612768611f91565b845161277381611cab565b81526020858101519082015261278b604086016120cc565b6040820152606085810151908201528252608090930192602090910190612749565b94506124fd9250505060208401612105565b5f602082840312156127cf575f5ffd5b815161195081611cab565b5f5f5f606084860312156127ec575f5ffd5b83516127f781611cab565b602085015190935061280881611cab565b604085015190925061281981611cab565b80915050925092509256fea26469706673582212200d11f596c9997dea408231a7bbe6c557cf0c3adece2ccbd8f6fdb067d7c773f064736f6c634300081e0033",
  "devdoc": {
    "details": "Contains all read/view functions from v1, separate from write operations",
    "kind": "dev",
    "methods": {
      "getAllTokensInfo(address)": {
        "details": "This function caches the reserves and user reserves data to avoid multiple heavy calls."
      },
      "getBalance(address,address)": {
        "details": "First attempts to call balanceOf on the associated aToken; if that fails, falls back to user reserves data."
      },
      "getBorrowBalance(address,address)": {
        "details": "First attempts to call balanceOf on the associated variable debt token; if that fails, falls back to user reserves data."
      }
    },
    "title": "AaveGatewayView",
    "version": 1
  },
  "userdoc": {
    "kind": "user",
    "methods": {
      "borrowedTokens(address)": {
        "notice": "Returns the list of tokens that the user has borrowed."
      },
      "getAllTokensInfo(address)": {
        "notice": "Returns all token info for a given user."
      },
      "getBalance(address,address)": {
        "notice": "Gets the balance for a given token and user."
      },
      "getBorrowBalance(address,address)": {
        "notice": "Gets the borrow balance for a given token and user."
      }
    },
    "notice": "View-only gateway for Aave v3 protocol",
    "version": 1
  },
  "storageLayout": {
    "storage": [],
    "types": null
  }
}