{
  "address": "0x83DeDae6aD36686cCa758923B8D341fA551fE2a0",
  "abi": [
    {
      "inputs": [
        {
          "internalType": "address",
          "name": "_poolAddressesProvider",
          "type": "address"
        },
        {
          "internalType": "address",
          "name": "",
          "type": "address"
        }
      ],
      "stateMutability": "nonpayable",
      "type": "constructor"
    },
    {
      "inputs": [
        {
          "internalType": "address",
          "name": "user",
          "type": "address"
        }
      ],
      "name": "borrowedTokens",
      "outputs": [
        {
          "internalType": "address[]",
          "name": "",
          "type": "address[]"
        }
      ],
      "stateMutability": "view",
      "type": "function"
    },
    {
      "inputs": [
        {
          "internalType": "address",
          "name": "underlyingToken",
          "type": "address"
        }
      ],
      "name": "getAToken",
      "outputs": [
        {
          "internalType": "address",
          "name": "",
          "type": "address"
        }
      ],
      "stateMutability": "view",
      "type": "function"
    },
    {
      "inputs": [
        {
          "internalType": "address",
          "name": "user",
          "type": "address"
        }
      ],
      "name": "getAllTokensInfo",
      "outputs": [
        {
          "components": [
            {
              "internalType": "address",
              "name": "token",
              "type": "address"
            },
            {
              "internalType": "uint256",
              "name": "supplyRate",
              "type": "uint256"
            },
            {
              "internalType": "uint256",
              "name": "borrowRate",
              "type": "uint256"
            },
            {
              "internalType": "string",
              "name": "name",
              "type": "string"
            },
            {
              "internalType": "string",
              "name": "symbol",
              "type": "string"
            },
            {
              "internalType": "uint256",
              "name": "price",
              "type": "uint256"
            },
            {
              "internalType": "uint256",
              "name": "borrowBalance",
              "type": "uint256"
            },
            {
              "internalType": "uint256",
              "name": "balance",
              "type": "uint256"
            },
            {
              "internalType": "address",
              "name": "aToken",
              "type": "address"
            },
            {
              "internalType": "uint8",
              "name": "decimals",
              "type": "uint8"
            }
          ],
          "internalType": "struct AaveGatewayViewBase.TokenInfo[]",
          "name": "",
          "type": "tuple[]"
        }
      ],
      "stateMutability": "view",
      "type": "function"
    },
    {
      "inputs": [
        {
          "internalType": "address",
          "name": "user",
          "type": "address"
        }
      ],
      "name": "getAllTokensInfoWithEMode",
      "outputs": [
        {
          "components": [
            {
              "internalType": "address",
              "name": "token",
              "type": "address"
            },
            {
              "internalType": "uint256",
              "name": "supplyRate",
              "type": "uint256"
            },
            {
              "internalType": "uint256",
              "name": "borrowRate",
              "type": "uint256"
            },
            {
              "internalType": "string",
              "name": "name",
              "type": "string"
            },
            {
              "internalType": "string",
              "name": "symbol",
              "type": "string"
            },
            {
              "internalType": "uint256",
              "name": "price",
              "type": "uint256"
            },
            {
              "internalType": "uint256",
              "name": "borrowBalance",
              "type": "uint256"
            },
            {
              "internalType": "uint256",
              "name": "balance",
              "type": "uint256"
            },
            {
              "internalType": "address",
              "name": "aToken",
              "type": "address"
            },
            {
              "internalType": "uint8",
              "name": "decimals",
              "type": "uint8"
            }
          ],
          "internalType": "struct AaveGatewayViewBase.TokenInfo[]",
          "name": "tokens",
          "type": "tuple[]"
        },
        {
          "internalType": "uint8",
          "name": "userEModeCategory",
          "type": "uint8"
        }
      ],
      "stateMutability": "view",
      "type": "function"
    },
    {
      "inputs": [
        {
          "internalType": "address",
          "name": "token",
          "type": "address"
        }
      ],
      "name": "getAssetPrice",
      "outputs": [
        {
          "internalType": "uint256",
          "name": "price",
          "type": "uint256"
        }
      ],
      "stateMutability": "view",
      "type": "function"
    },
    {
      "inputs": [
        {
          "internalType": "address[]",
          "name": "tokens",
          "type": "address[]"
        }
      ],
      "name": "getAssetPrices",
      "outputs": [
        {
          "internalType": "uint256[]",
          "name": "prices",
          "type": "uint256[]"
        }
      ],
      "stateMutability": "view",
      "type": "function"
    },
    {
      "inputs": [
        {
          "internalType": "address",
          "name": "token",
          "type": "address"
        },
        {
          "internalType": "address",
          "name": "user",
          "type": "address"
        }
      ],
      "name": "getBalance",
      "outputs": [
        {
          "internalType": "uint256",
          "name": "",
          "type": "uint256"
        }
      ],
      "stateMutability": "view",
      "type": "function"
    },
    {
      "inputs": [
        {
          "internalType": "address",
          "name": "token",
          "type": "address"
        },
        {
          "internalType": "address",
          "name": "user",
          "type": "address"
        }
      ],
      "name": "getBorrowBalance",
      "outputs": [
        {
          "internalType": "uint256",
          "name": "",
          "type": "uint256"
        }
      ],
      "stateMutability": "view",
      "type": "function"
    },
    {
      "inputs": [
        {
          "internalType": "address",
          "name": "token",
          "type": "address"
        },
        {
          "internalType": "address",
          "name": "user",
          "type": "address"
        }
      ],
      "name": "getBorrowBalanceCurrent",
      "outputs": [
        {
          "internalType": "uint256",
          "name": "",
          "type": "uint256"
        }
      ],
      "stateMutability": "nonpayable",
      "type": "function"
    },
    {
      "inputs": [
        {
          "internalType": "address",
          "name": "token",
          "type": "address"
        }
      ],
      "name": "getBorrowRate",
      "outputs": [
        {
          "internalType": "uint256",
          "name": "",
          "type": "uint256"
        },
        {
          "internalType": "bool",
          "name": "",
          "type": "bool"
        }
      ],
      "stateMutability": "view",
      "type": "function"
    },
    {
      "inputs": [
        {
          "internalType": "address",
          "name": "",
          "type": "address"
        },
        {
          "internalType": "address",
          "name": "user",
          "type": "address"
        }
      ],
      "name": "getCurrentLtvBps",
      "outputs": [
        {
          "internalType": "uint256",
          "name": "",
          "type": "uint256"
        }
      ],
      "stateMutability": "view",
      "type": "function"
    },
    {
      "inputs": [],
      "name": "getEModes",
      "outputs": [
        {
          "components": [
            {
              "internalType": "uint8",
              "name": "id",
              "type": "uint8"
            },
            {
              "internalType": "uint16",
              "name": "ltv",
              "type": "uint16"
            },
            {
              "internalType": "uint16",
              "name": "liquidationThreshold",
              "type": "uint16"
            },
            {
              "internalType": "uint16",
              "name": "liquidationBonus",
              "type": "uint16"
            },
            {
              "internalType": "string",
              "name": "label",
              "type": "string"
            },
            {
              "internalType": "uint128",
              "name": "collateralBitmap",
              "type": "uint128"
            },
            {
              "internalType": "uint128",
              "name": "borrowableBitmap",
              "type": "uint128"
            }
          ],
          "internalType": "struct AaveGatewayViewBase.EModeInfo[]",
          "name": "emodes",
          "type": "tuple[]"
        }
      ],
      "stateMutability": "view",
      "type": "function"
    },
    {
      "inputs": [
        {
          "internalType": "address",
          "name": "",
          "type": "address"
        },
        {
          "internalType": "address",
          "name": "user",
          "type": "address"
        }
      ],
      "name": "getLiquidationLtvBps",
      "outputs": [
        {
          "internalType": "uint256",
          "name": "",
          "type": "uint256"
        }
      ],
      "stateMutability": "view",
      "type": "function"
    },
    {
      "inputs": [
        {
          "internalType": "address",
          "name": "",
          "type": "address"
        },
        {
          "internalType": "address",
          "name": "user",
          "type": "address"
        }
      ],
      "name": "getLtv",
      "outputs": [
        {
          "internalType": "uint256",
          "name": "",
          "type": "uint256"
        }
      ],
      "stateMutability": "view",
      "type": "function"
    },
    {
      "inputs": [
        {
          "internalType": "address",
          "name": "",
          "type": "address"
        },
        {
          "internalType": "address",
          "name": "user",
          "type": "address"
        }
      ],
      "name": "getMaxLtv",
      "outputs": [
        {
          "internalType": "uint256",
          "name": "",
          "type": "uint256"
        }
      ],
      "stateMutability": "view",
      "type": "function"
    },
    {
      "inputs": [
        {
          "internalType": "address",
          "name": "",
          "type": "address"
        },
        {
          "internalType": "address",
          "name": "user",
          "type": "address"
        }
      ],
      "name": "getPossibleCollaterals",
      "outputs": [
        {
          "internalType": "address[]",
          "name": "collateralAddresses",
          "type": "address[]"
        },
        {
          "internalType": "uint256[]",
          "name": "balances",
          "type": "uint256[]"
        },
        {
          "internalType": "string[]",
          "name": "symbols",
          "type": "string[]"
        },
        {
          "internalType": "uint8[]",
          "name": "decimals",
          "type": "uint8[]"
        }
      ],
      "stateMutability": "view",
      "type": "function"
    },
    {
      "inputs": [
        {
          "internalType": "address",
          "name": "token",
          "type": "address"
        }
      ],
      "name": "getReserveConfig",
      "outputs": [
        {
          "components": [
            {
              "internalType": "address",
              "name": "token",
              "type": "address"
            },
            {
              "internalType": "uint256",
              "name": "price",
              "type": "uint256"
            },
            {
              "internalType": "uint256",
              "name": "ltv",
              "type": "uint256"
            },
            {
              "internalType": "uint256",
              "name": "liquidationThreshold",
              "type": "uint256"
            },
            {
              "internalType": "uint256",
              "name": "liquidationBonus",
              "type": "uint256"
            },
            {
              "internalType": "uint8",
              "name": "decimals",
              "type": "uint8"
            },
            {
              "internalType": "bool",
              "name": "usageAsCollateralEnabled",
              "type": "bool"
            },
            {
              "internalType": "bool",
              "name": "borrowingEnabled",
              "type": "bool"
            }
          ],
          "internalType": "struct AaveGatewayViewBase.ReserveConfigData",
          "name": "config",
          "type": "tuple"
        }
      ],
      "stateMutability": "view",
      "type": "function"
    },
    {
      "inputs": [
        {
          "internalType": "address[]",
          "name": "tokens",
          "type": "address[]"
        }
      ],
      "name": "getReserveConfigs",
      "outputs": [
        {
          "components": [
            {
              "internalType": "address",
              "name": "token",
              "type": "address"
            },
            {
              "internalType": "uint256",
              "name": "price",
              "type": "uint256"
            },
            {
              "internalType": "uint256",
              "name": "ltv",
              "type": "uint256"
            },
            {
              "internalType": "uint256",
              "name": "liquidationThreshold",
              "type": "uint256"
            },
            {
              "internalType": "uint256",
              "name": "liquidationBonus",
              "type": "uint256"
            },
            {
              "internalType": "uint8",
              "name": "decimals",
              "type": "uint8"
            },
            {
              "internalType": "bool",
              "name": "usageAsCollateralEnabled",
              "type": "bool"
            },
            {
              "internalType": "bool",
              "name": "borrowingEnabled",
              "type": "bool"
            }
          ],
          "internalType": "struct AaveGatewayViewBase.ReserveConfigData[]",
          "name": "configs",
          "type": "tuple[]"
        }
      ],
      "stateMutability": "view",
      "type": "function"
    },
    {
      "inputs": [
        {
          "internalType": "address",
          "name": "token",
          "type": "address"
        }
      ],
      "name": "getSupplyRate",
      "outputs": [
        {
          "internalType": "uint256",
          "name": "",
          "type": "uint256"
        },
        {
          "internalType": "bool",
          "name": "",
          "type": "bool"
        }
      ],
      "stateMutability": "view",
      "type": "function"
    },
    {
      "inputs": [
        {
          "internalType": "address",
          "name": "",
          "type": "address"
        }
      ],
      "name": "getSupportedCollaterals",
      "outputs": [
        {
          "internalType": "address[]",
          "name": "collateralAddresses",
          "type": "address[]"
        }
      ],
      "stateMutability": "view",
      "type": "function"
    },
    {
      "inputs": [
        {
          "internalType": "address",
          "name": "aToken",
          "type": "address"
        }
      ],
      "name": "getUnderlyingToken",
      "outputs": [
        {
          "internalType": "address",
          "name": "",
          "type": "address"
        }
      ],
      "stateMutability": "view",
      "type": "function"
    },
    {
      "inputs": [
        {
          "internalType": "address",
          "name": "user",
          "type": "address"
        }
      ],
      "name": "getUserAccountData",
      "outputs": [
        {
          "internalType": "uint256",
          "name": "totalCollateralBase",
          "type": "uint256"
        },
        {
          "internalType": "uint256",
          "name": "totalDebtBase",
          "type": "uint256"
        },
        {
          "internalType": "uint256",
          "name": "availableBorrowsBase",
          "type": "uint256"
        },
        {
          "internalType": "uint256",
          "name": "currentLiquidationThreshold",
          "type": "uint256"
        },
        {
          "internalType": "uint256",
          "name": "ltv",
          "type": "uint256"
        },
        {
          "internalType": "uint256",
          "name": "healthFactor",
          "type": "uint256"
        }
      ],
      "stateMutability": "view",
      "type": "function"
    },
    {
      "inputs": [
        {
          "internalType": "address",
          "name": "user",
          "type": "address"
        }
      ],
      "name": "getUserEMode",
      "outputs": [
        {
          "internalType": "uint8",
          "name": "categoryId",
          "type": "uint8"
        }
      ],
      "stateMutability": "view",
      "type": "function"
    },
    {
      "inputs": [
        {
          "internalType": "address",
          "name": "",
          "type": "address"
        },
        {
          "internalType": "address",
          "name": "collateral",
          "type": "address"
        }
      ],
      "name": "isCollateralSupported",
      "outputs": [
        {
          "internalType": "bool",
          "name": "isSupported",
          "type": "bool"
        }
      ],
      "stateMutability": "view",
      "type": "function"
    },
    {
      "inputs": [],
      "name": "poolAddressesProvider",
      "outputs": [
        {
          "internalType": "contract IPoolAddressesProvider",
          "name": "",
          "type": "address"
        }
      ],
      "stateMutability": "view",
      "type": "function"
    }
  ],
  "transactionHash": "0x46a9f8ccf4fad783d81400f9adaddd872174937512c176e63028f229ef635ae3",
  "args": [
    "0xe20fcbdbffc4dd138ce8b2e6fbb6cb49777ad64d",
    "0x174446a6741300cD2E7C1b1A636Fee99c8F83502"
  ],
  "numDeployments": 28,
  "solcInputHash": "0fea5cc4d237037126c3fb60329d2945",
  "bytecode": "0x60a0346100ee57601f6137f838819003918201601f19168301916001600160401b038311848410176100f25780849260409485528339810103126100ee57610052602061004b83610106565b9201610106565b506001600160a01b03166080526040516136dd908161011b823960805181818161016701528181610295015281816103a7015281816107c101528181610b9f01528181610f8601528181610fed015281816111390152818161141801528181611ea301528181612236015281816123440152818161275c01528181612eb8015281816131ae015281816132c40152818161341d015261352c0152f35b5f80fd5b634e487b7160e01b5f52604160045260245ffd5b51906001600160a01b03821682036100ee5756fe60c0806040526004361015610012575f80fd5b5f3560e01c908163053c81b514611e8257508063104e999d14611d8a578063118e31b7146103855780633b9025c514611d5e5780633e69c6af14611b0c578063401d45d0146113f057806362fd6add14610f6c57806366e2d09b14611110578063691bcc88146110ea5780636b5441a9146110ef578063732a52ee146110ea5780637846611314610fb557806380e17d8714610f71578063951afe9014610f6c578063a92c3f7e14610e89578063b3596f0714610e66578063bd05bdb414610ca3578063bf92857c14610b70578063ceac55df14610799578063d4fac45d14610765578063d71275f61461072c578063d7728c1c1461038a578063e94201c714610385578063eddf1b79146102665763f5125d3f1461012f575f80fd5b3461025a57604036600319011261025a5761014861206a565b50610151612080565b60405163026b1d5f60e01b8152906020826004817f00000000000000000000000000000000000000000000000000000000000000006001600160a01b03165afa918215610219575f92610224575b50604051632fe4a15f60e21b81526001600160a01b0391821660048201529160c09183916024918391165afa8015610219576020915f916101e4575b50604051908152f35b610206915060c03d60c011610212575b6101fe81836124d0565b810190612e74565b5093505050505f6101db565b503d6101f4565b6040513d5f823e3d90fd5b9091506020813d60201161025e575b81610240602093836124d0565b8101031261025a5761025360c0916124f3565b919061019f565b5f80fd5b3d9150610233565b3461025a57602036600319011261025a5761027f61206a565b60405163026b1d5f60e01b8152906020826004817f00000000000000000000000000000000000000000000000000000000000000006001600160a01b03165afa918215610219575f92610347575b5060405163eddf1b7960e01b81526001600160a01b0391821660048201529160209183916024918391165afa8015610219575f90610314575b60209060ff60405191168152f35b506020813d60201161033f575b8161032e602093836124d0565b8101031261025a5760209051610306565b3d9150610321565b9091506020813d60201161037d575b81610363602093836124d0565b8101031261025a576103766020916124f3565b91906102cd565b3d9150610356565b6120f6565b3461025a5761039836611fe5565b604051631f94a27560e31b81527f00000000000000000000000000000000000000000000000000000000000000006001600160a01b031690602081600481855afa908115610219575f916106ed575b5060405163e860accb60e01b81526001600160a01b0390911691602090829060049082905afa908115610219575f916106b3575b506001600160a01b031661042e83612507565b9361043c60405195866124d0565b838552601f1961044b85612507565b015f5b81811061069c5750505f5b8481106104b157856040518091602082016020835281518091526020604084019201905f5b81811061048c575050500390f35b919350916020610100826104a3600194885161242a565b01940191019184939261047e565b6104c46104bf828785612550565b612574565b60405163b3596f0760e01b81526001600160a01b03909116600482018190525f92916020816024818a5afa5f9181610669575b50610661575b5060405163313ce56760e01b8152926012602085600481865afa805f91610626575b6001965061061e575b505f905f905f5f925f9460246101408d60405192838092633e15014160e01b82528d60048301525afa905f5f5f91845f945f966105da575b506105c3575b505050505060ff9495966040519861057d8a6124b4565b895260208901526040880152606087015260808601521660a0840152151560c0830152151560e08201526105b18289612595565b526105bc8188612595565b5001610459565b93995091975094509250905060ff5f808080610566565b93509450505061060291506101403d8111610617575b6105fa81836124d0565b810190613130565b509198929750939593509091505f9050610560565b503d6105f0565b90508a610528565b90506020863d8211610659575b81610640602093836124d0565b8101031261025a576106536001966126f0565b9061051f565b3d9150610633565b9250886104fd565b9091506020813d8211610694575b81610684602093836124d0565b8101031261025a5751908a6104f7565b3d9150610677565b6020906106a76133ac565b82828a0101520161044e565b90506020813d6020116106e5575b816106ce602093836124d0565b8101031261025a576106df906124f3565b8461041b565b3d91506106c1565b90506020813d602011610724575b81610708602093836124d0565b8101031261025a57602061071d6004926124f3565b91506103e7565b3d91506106fb565b3461025a57602036600319011261025a5761074d61074861206a565b613408565b604080519283529015156020830152819081015b0390f35b3461025a57604036600319011261025a57602061079161078361206a565b61078b612080565b906133e8565b604051908152f35b3461025a57602036600319011261025a576107b261206a565b60405163026b1d5f60e01b81527f00000000000000000000000000000000000000000000000000000000000000006001600160a01b0316602082600481845afa918215610219575f92610b31575b509060206004926040519384809263e860accb60e01b82525afa918215610219575f92610af3575b506040516334651b6f60e21b8152916001600160a01b03908116915f9184916004918391165afa918215610219575f92610acf575b505f905f5b835181101561097c576001600160a01b0361087d8286612595565b516040516334924edb60e21b815291166004820152606081602481865afa908115610219575f9161094b575b506001600160a01b0316806108c2575b50600101610862565b6040516370a0823160e01b81526001600160a01b038716600482015290602090829060249082905afa5f9181610918575b50156108b957610904575b856108b9565b9161091060019161272b565b9290506108fe565b9091506020813d8211610943575b81610933602093836124d0565b8101031261025a575190876108f3565b3d9150610926565b61096c915060603d8111610975575b61096481836124d0565b8101906126fe565b915050866108a9565b503d61095a565b5091906109889061251e565b905f5f5b8251811015610ab9576001600160a01b036109a78285612595565b516040516334924edb60e21b815291166004820152606081602481895afa908115610219575f91610a98575b506001600160a01b031690816109ee575b600191500161098c565b6040516370a0823160e01b81526001600160a01b038816600482015291602090839060249082905afa805f91610a64575b60019350610a2e575b506109e4565b610a39575b87610a28565b818060a01b03610a498286612595565b5116610a5e610a578561272b565b9487612595565b52610a33565b90506020833d8211610a90575b81610a7e602093836124d0565b8101031261025a576001925190610a1f565b3d9150610a71565b610ab0915060603d81116109755761096481836124d0565b915050876109d3565b6040516020808252819061076190820187612096565b610aec9192503d805f833e610ae481836124d0565b8101906125a9565b908361085d565b91506020823d602011610b29575b81610b0e602093836124d0565b8101031261025a575f610b226004936124f3565b9250610828565b3d9150610b01565b91506020823d602011610b68575b81610b4c602093836124d0565b8101031261025a576020610b616004936124f3565b9250610800565b3d9150610b3f565b3461025a57602036600319011261025a57610b8961206a565b60405163026b1d5f60e01b8152906020826004817f00000000000000000000000000000000000000000000000000000000000000006001600160a01b03165afa918215610219575f92610c65575b50604051632fe4a15f60e21b81526001600160a01b0391821660048201529160c09183916024918391165afa9081156102195760c0915f915f5f5f915f935f95610c3e575b50604051958652602086015260408501526060840152608083015260a0820152f35b945050505050610c5b9150823d8411610212576101fe81836124d0565b9390929087610c1c565b9091506020813d602011610c9b575b81610c81602093836124d0565b8101031261025a57610c9460c0916124f3565b9190610bd7565b3d9150610c74565b3461025a57602036600319011261025a57610d21610cbf61206a565b610cc76133ac565b505f604091825190610cd984836124d0565b60018252601f198401366020840137610cf182612588565b6001600160a01b03909116905282516335dca30760e21b8152602060048201529384918291906024830190612096565b0381305afa918215610e5c575f92610d50575b50610d4e610d4461010093612588565b519151809261242a565bf35b91503d805f843e610d6181846124d0565b82019160208184031261025a578051906001600160401b03821161025a570182601f8201121561025a57805190610d9782612507565b93610da4845195866124d0565b82855260208086019360081b8301019181831161025a57602001925b828410610dd35750505050610d4e610d34565b6101008483031261025a576020610100918651610def816124b4565b610df8876124f3565b8152828701518382015287870151888201526060870151606082015260808701516080820152610e2a60a088016126f0565b60a0820152610e3b60c08801613123565b60c0820152610e4c60e08801613123565b60e0820152815201930192610dc0565b50513d5f823e3d90fd5b3461025a57602036600319011261025a576020610791610e8461206a565b6132ae565b3461025a575f36600319011261025a576020604051610ea882826124d0565b5f81526040519082820192808352815180945260408301938160408260051b8601019301915f955b828710610edd5785850386f35b909192938280600192603f1989820301855287519060ff825116815261ffff83830151168382015261ffff604083015116604082015261ffff606083015116606082015260c0610f3c608084015160e0608085015260e08401906120d2565b92868060801b0360a08201511660a084015281878060801b03910151169101529601920196019592919092610ed0565b6121fe565b3461025a575f36600319011261025a576040517f00000000000000000000000000000000000000000000000000000000000000006001600160a01b03168152602090f35b3461025a57604036600319011261025a57610fce61206a565b50610fd7612080565b60405163e860accb60e01b8152906020826004817f00000000000000000000000000000000000000000000000000000000000000006001600160a01b03165afa918215610219575f926110ab575b50604051633e15014160e01b81526001600160a01b039182166004820152916101409183916024918391165afa8015610219576020915f905f92611081575b508115611077575b506040519015158152f35b905015158261106c565b905061109c91506101403d8111610617576105fa81836124d0565b50505050945050505083611064565b9091506020813d6020116110e2575b816110c7602093836124d0565b8101031261025a576110db610140916124f3565b9190611025565b3d91506110ba565b612315565b3461025a57602036600319011261025a5761074d61110b61206a565b613199565b3461025a57602036600319011261025a5761112961206a565b5060405163026b1d5f60e01b81527f00000000000000000000000000000000000000000000000000000000000000006001600160a01b0316602082600481845afa918215610219575f926113af575b5060206004916040519283809263e860accb60e01b82525afa908115610219575f91611371575b506040516334651b6f60e21b81526001600160a01b039182169290915f9183916004918391165afa908115610219575f91611357575b505f5f5b8251811015611281576001600160a01b036111f48285612595565b51604051633e15014160e01b81529116600482015261014081602481885afa908115610219575f905f92611257575b50811561124d575b50611239575b6001016111d9565b9061124560019161272b565b919050611231565b905015158561122b565b905061127291506101403d8111610617576105fa81836124d0565b50505050945050505086611223565b5061128b9061251e565b905f5f5b8251811015610ab9576001600160a01b036112aa8285612595565b51604051633e15014160e01b81529116600482015261014081602481895afa908115610219575f905f9261132d575b508115611323575b506112ef575b60010161128f565b9060019061131b906001600160a01b036113098587612595565b51166113158288612595565b5261272b565b9190506112e7565b90501515866112e1565b905061134891506101403d8111610617576105fa81836124d0565b505050509450505050876112d9565b61136b91503d805f833e610ae481836124d0565b826111d5565b90506020813d6020116113a7575b8161138c602093836124d0565b8101031261025a575f6113a06004926124f3565b915061119f565b3d915061137f565b9091506020813d6020116113e8575b816113cb602093836124d0565b8101031261025a5760206113e06004926124f3565b929150611178565b3d91506113be565b3461025a57602036600319011261025a5761140961206a565b60405163026b1d5f60e01b81527f00000000000000000000000000000000000000000000000000000000000000006001600160a01b03169190602081600481865afa908115610219575f91611ad2575b50604051631f94a27560e31b8152602081600481875afa908115610219575f91611a91575b506001600160a01b031660805260405163e860accb60e01b815292602090849060049082905afa928315610219575f93611a55575b506040516334651b6f60e21b8152905f826004816001600160a01b0385165afa918215610219575f92611a39575b508151916114ee83612507565b926114fc60405194856124d0565b80845261150b601f1991612507565b015f5b8181106119e3575050602060a0525f5b81518110156119cb576001600160a01b036115398284612595565b516040516335ea6a7560e01b815291166004820152906101e0826024816001600160a01b0388165afa918215610219575f9261199a575b506001600160a01b036115838285612595565b516040516334924edb60e21b815291166004820152916060836024816001600160a01b038c165afa928315610219575f905f94611975575b505f9384906001600160a01b0383166118f7575b6001600160a01b031680611881575b506040516115ee60a051826124d0565b5f81529460405161160160a051826124d0565b5f8082529096906004906001600160a01b0361161d898c612595565b5116604051928380926306fdde0360e01b82525afa5f9181611865575b5061185d575b5060045f6001600160a01b03611656898c612595565b5116604051928380926395d89b4160e01b82525afa5f9181611839575b50611831575b506012966001600160a01b0361168f888b612595565b51166040519063313ce56760e01b82528160048160a051935afa5f91816117f3575b506117eb575b505f916001600160a01b036116cc898c612595565b51166040519063b3596f0760e01b8252600482015260a051816024816080515afa5f91816117a1575b509160ff9795939160019b979593611799575b508b61171a8b8d8060a01b0392612595565b5116988b8060801b036040820151169060808d80821b0391015116906040519a6117438c612484565b8b5260a0518b015260408a01526060890152608088015260a087015260c086015260e0850152858060a01b0316610100840152166101208201526117878287612595565b526117928186612595565b500161151e565b92505f611708565b97959391509995939160a0513d60a051116117e4575b6117c1818a6124d0565b8860a051918101031261025a5760019a60ff98519294969850909294969a6116f5565b503d6117b7565b97508d6116b7565b90915060a0513d60a0511161182a575b61180d81836124d0565b8160a051918101031261025a57611823906126f0565b908f6116b1565b503d611803565b96508c611679565b6118569192503d805f833e61184e81836124d0565b8101906126c8565b908e611673565b90508c611640565b61187a9192503d805f833e61184e81836124d0565b908e61163a565b6040516370a0823160e01b81526001600160a01b038b16600482015260a0519091829060249082905afa5f91816118c1575b50156115de5794508a6115de565b90915060a0513d60a051116118f0575b6118db81836124d0565b8160a051918101031261025a5751908c6118b3565b503d6118d1565b6040516370a0823160e01b81526001600160a01b038b8116600483015260a051908290602490829088165afa5f918161193f575b50611937575b506115cf565b91508b611931565b90915060a0513d60a0511161196e575b61195981836124d0565b8160a051918101031261025a5751908d61192b565b503d61194f565b905061199091935060603d81116109755761096481836124d0565b93919050896115bb565b6119bd9192506101e03d81116119c4575b6119b581836124d0565b810190612fc2565b9087611570565b503d6119ab565b60405160a08051825251819061076190820187612122565b6020906040516119f281612484565b5f81525f838201525f6040820152606080820152606060808201525f60a08201525f60c08201525f60e08201525f6101008201525f6101208201528282880101520161150e565b611a4e9192503d805f833e610ae481836124d0565b90846114e1565b9092506020813d602011611a89575b81611a71602093836124d0565b8101031261025a57611a82906124f3565b91836114b3565b3d9150611a64565b90506020813d602011611aca575b81611aac602093836124d0565b8101031261025a57600493611ac26020926124f3565b91509361147e565b3d9150611a9f565b90506020813d602011611b04575b81611aed602093836124d0565b8101031261025a57611afe906124f3565b83611459565b3d9150611ae0565b3461025a57602036600319011261025a57611b2561206a565b604051630401d45d60e41b81526001600160a01b0390911660048201819052905f81602481305afa908115610219575f91611be6575b506040519163eddf1b7960e01b83526004830152602082602481305afa8015610219575f90611bab575b611ba0925060ff604051938493604085526040850190612122565b911660208301520390f35b506020823d602011611bde575b81611bc5602093836124d0565b8101031261025a57611bd9611ba0926126f0565b611b85565b3d9150611bb8565b90503d805f833e611bf781836124d0565b81019060208183031261025a578051906001600160401b03821161025a57019080601f8301121561025a57815191611c2e83612507565b92611c3c60405194856124d0565b80845260208085019160051b8301019183831161025a5760208101915b838310611c6b57505050505082611b5b565b82516001600160401b03811161025a57820190610140828703601f19011261025a5760405190611c9a82612484565b611ca6602084016124f3565b8252604083810151602084015260608401519083015260808301516001600160401b03811161025a57876020611cde92860101612673565b606083015260a0830151916001600160401b03831161025a57611d4d61014085611d108b602080999881990101612673565b608085015260c081015160a085015260e081015160c085015261010081015160e0850152611d4161012082016124f3565b610100850152016126f0565b610120820152815201920191611c59565b3461025a57604036600319011261025a57611d7761206a565b506020610791611d85612080565b612ea2565b3461025a57604036600319011261025a57611da361206a565b50611dd2611de0611dba611db5612080565b61274d565b92939091604051958695608087526080870190612096565b908582036020870152612037565b8381036040850152815180825260208201916020808360051b8301019401925f915b838310611e4f5750505050508281036060840152602080835192838152019201905f5b818110611e33575050500390f35b825160ff16845285945060209384019390920191600101611e25565b91939596509193602080611e6f600193601f1986820301875289516120d2565b9701930193019092879695949293611e02565b3461025a57611e9036611fe5565b631f94a27560e31b8352916020816004817f00000000000000000000000000000000000000000000000000000000000000006001600160a01b03165afa908115610219575f91611fab575b506001600160a01b0316611eee8361251e565b925f5b818110611f0e576040516020808252819061076190820188612037565b611f1c6104bf828487612550565b60405163b3596f0760e01b81526001600160a01b03909116600482015290602082602481875afa805f91611f77575b60019350611f6757505f611f5f8288612595565b525b01611ef1565b611f718288612595565b52611f61565b90506020833d8211611fa3575b81611f91602093836124d0565b8101031261025a576001925190611f4b565b3d9150611f84565b90506020813d602011611fdd575b81611fc6602093836124d0565b8101031261025a57611fd7906124f3565b83611edb565b3d9150611fb9565b90602060031983011261025a576004356001600160401b03811161025a578260238201121561025a576004810135926001600160401b03841161025a5760248460051b8301011161025a576024019190565b90602080835192838152019201905f5b8181106120545750505090565b8251845260209384019390920191600101612047565b600435906001600160a01b038216820361025a57565b602435906001600160a01b038216820361025a57565b90602080835192838152019201905f5b8181106120b35750505090565b82516001600160a01b03168452602093840193909201916001016120a6565b805180835260209291819084018484015e5f828201840152601f01601f1916010190565b3461025a57604036600319011261025a57602061079161211461206a565b61211c612080565b90612de1565b9080602083519182815201916020808360051b8301019401925f915b83831061214d57505050505090565b9091929394602080600192601f19858203018652885190848060a01b03825116815282820151838201526040820151604082015261012060ff816121b76121a5606087015161014060608801526101408701906120d2565b608087015186820360808801526120d2565b9460a081015160a086015260c081015160c086015260e081015160e0860152888060a01b03610100820151166101008601520151169101529701930193019193929061213e565b3461025a57604036600319011261025a5761221761206a565b50612220612080565b60405163026b1d5f60e01b8152906020826004817f00000000000000000000000000000000000000000000000000000000000000006001600160a01b03165afa918215610219575f926122d7575b50604051632fe4a15f60e21b81526001600160a01b0391821660048201529160c09183916024918391165afa8015610219576020915f916122b25750604051908152f35b6122cb915060c03d60c011610212576101fe81836124d0565b5050925050505f6101db565b9091506020813d60201161230d575b816122f3602093836124d0565b8101031261025a5761230660c0916124f3565b919061226e565b3d91506122e6565b3461025a57602036600319011261025a5761232e61206a565b60405163e860accb60e01b8152906020826004817f00000000000000000000000000000000000000000000000000000000000000006001600160a01b03165afa918215610219575f926123ec575b506040516334924edb60e21b81526001600160a01b0391821660048201529160609183916024918391165afa8015610219576020915f916123cb575b506040516001600160a01b039091168152f35b6123e4915060603d6060116109755761096481836124d0565b50505f6123b8565b9091506020813d602011612422575b81612408602093836124d0565b8101031261025a5761241b6060916124f3565b919061237c565b3d91506123fb565b60e0809160018060a01b0381511684526020810151602085015260408101516040850152606081015160608501526080810151608085015260ff60a08201511660a085015260c0810151151560c085015201511515910152565b61014081019081106001600160401b038211176124a057604052565b634e487b7160e01b5f52604160045260245ffd5b61010081019081106001600160401b038211176124a057604052565b601f909101601f19168101906001600160401b038211908210176124a057604052565b51906001600160a01b038216820361025a57565b6001600160401b0381116124a05760051b60200190565b9061252882612507565b61253560405191826124d0565b8281528092612546601f1991612507565b0190602036910137565b91908110156125605760051b0190565b634e487b7160e01b5f52603260045260245ffd5b356001600160a01b038116810361025a5790565b8051156125605760200190565b80518210156125605760209160051b010190565b60208183031261025a578051906001600160401b03821161025a57019080601f8301121561025a5781516125dc81612507565b926125ea60405194856124d0565b81845260208085019260051b82010192831161025a57602001905b8282106126125750505090565b6020809161261f846124f3565b815201910190612605565b9061263482612507565b61264160405191826124d0565b8281528092612652601f1991612507565b01905f5b82811061266257505050565b806060602080938501015201612656565b81601f8201121561025a578051906001600160401b0382116124a057604051926126a7601f8401601f1916602001856124d0565b8284526020838301011161025a57815f9260208093018386015e8301015290565b9060208282031261025a5781516001600160401b03811161025a576126ed9201612673565b90565b519060ff8216820361025a57565b9081606091031261025a57612712816124f3565b916126ed6040612724602085016124f3565b93016124f3565b5f1981146127395760010190565b634e487b7160e01b5f52601160045260245ffd5b60405163026b1d5f60e01b81527f00000000000000000000000000000000000000000000000000000000000000006001600160a01b03169291602082600481875afa918215610219575f92612da3575b506040516334651b6f60e21b8152915f90839060049082906001600160a01b03165afa918215610219575f92612d87575b506001600160a01b0316928315612bf15760206004916040519283809263e860accb60e01b82525afa908115610219575f91612bb7575b5060018060a01b03165f915f5b8151811015612910576001600160a01b0361282d8284612595565b516040516334924edb60e21b815291166004820152606081602481875afa908115610219575f916128f0575b506001600160a01b031680612872575b50600101612812565b6020602491604051928380926370a0823160e01b82528b60048301525afa5f91816128bd575b5015612869576128a9575b5f612869565b926128b560019161272b565b9390506128a3565b9091506020813d82116128e8575b816128d8602093836124d0565b8101031261025a5751905f612898565b3d91506128cb565b612908915060603d81116109755761096481836124d0565b50505f612859565b50909161291c8161251e565b946129268261251e565b6129386129328461262a565b9361251e565b965f955f5b8651811015612ba8576001600160a01b036129588289612595565b516040516334924edb60e21b815291166004820152606081602481865afa908115610219575f91612b88575b506001600160a01b03168061299d575b5060010161293d565b602460205f92604051928380926370a0823160e01b82528b60048301525afa5f9181612b55575b50612b4d575b5080156129945790976004916001600160a01b036129e88b8b612595565b51166129f48387612595565b526129ff8287612595565b52815f6001600160a01b03612a148c8c612595565b5116604051928380926395d89b4160e01b82525afa5f9181612b31575b50612b165750604051612a456020826124d0565b5f8152612a528289612595565b52612a5d8188612595565b505b8a60206001600160a01b03612a748c8c612595565b51166040519485809263313ce56760e01b82525afa80935f91612ace575b50918091612ab193600195155f14612ab8575060129161131591612595565b9790612994565b91612ac59060ff92612595565b9116905261272b565b929150506020823d8211612b0e575b81612aea602093836124d0565b8101031261025a57808c600194612b03612ab1956126f0565b925094509192612a92565b3d9150612add565b612b208289612595565b52612b2b8188612595565b50612a5f565b612b469192503d805f833e61184e81836124d0565b905f612a31565b90505f6129ca565b9091506020813d8211612b80575b81612b70602093836124d0565b8101031261025a5751905f6129c4565b3d9150612b63565b612ba0915060603d81116109755761096481836124d0565b50505f612984565b50909791969395509093505050565b90506020813d602011612be9575b81612bd2602093836124d0565b8101031261025a57612be3906124f3565b5f612805565b3d9150612bc5565b508051919250612c008261251e565b92612c0a8361251e565b93612c148461262a565b93612c1e8161251e565b935f5b828110612c315750505093929190565b6004906001600160a01b03612c468285612595565b5116612c528287612595565b52815f6001600160a01b03612c678487612595565b5116604051928380926395d89b4160e01b82525afa5f9181612d6b575b50612d505750604051612c986020826124d0565b5f8152612ca5828a612595565b52612cb08189612595565b505b60206001600160a01b03612cc68386612595565b51166040519384809263313ce56760e01b82525afa805f91612d15575b60019350612d0057506012612cf88289612595565b525b01612c21565b60ff612d0c838a612595565b91169052612cfa565b90506020833d8211612d48575b81612d2f602093836124d0565b8101031261025a57612d426001936126f0565b90612ce3565b3d9150612d22565b612d5a828a612595565b52612d658189612595565b50612cb2565b612d809192503d805f833e61184e81836124d0565b905f612c84565b612d9c9192503d805f833e610ae481836124d0565b905f6127ce565b91506020823d602011612dd9575b81612dbe602093836124d0565b8101031261025a575f612dd26004936124f3565b925061279d565b3d9150612db1565b612dea90613515565b506001600160a01b031691905081612e03575b50505f90565b6040516370a0823160e01b81526001600160a01b03909116600482015290602090829060249082905afa5f9181612e40575b506126ed5780612dfd565b9091506020813d602011612e6c575b81612e5c602093836124d0565b8101031261025a5751905f612e35565b3d9150612e4f565b91908260c091031261025a5781519160208101519160408201519160608101519160a0608083015192015190565b60405163026b1d5f60e01b8152906020826004817f00000000000000000000000000000000000000000000000000000000000000006001600160a01b03165afa918215610219575f92612f70575b50604051632fe4a15f60e21b81526001600160a01b0391821660048201529160c09183916024918391165afa8015610219575f915f91612f4b575b508115612dfd576127108102908082046127101490151715612739570490565b9050612f66915060c03d60c011610212576101fe81836124d0565b505050505f612f2b565b9091506020813d602011612fa6575b81612f8c602093836124d0565b8101031261025a57612f9f60c0916124f3565b9190612ef0565b3d9150612f7f565b51906001600160801b038216820361025a57565b809103906101e0821261025a57604051916101e08301906001600160401b038211848310176124a0576020916040521261025a57604051602081016001600160401b038111828210176124a05760405281518152825261302460208201612fae565b602083015261303560408201612fae565b604083015261304660608201612fae565b606083015261305760808201612fae565b608083015261306860a08201612fae565b60a083015260c081015164ffffffffff8116810361025a5760c083015260e081015161ffff8116810361025a5761311a916101c09160e08501526130af61010082016124f3565b6101008501526130c261012082016124f3565b6101208501526130d561014082016124f3565b6101408501526130e861016082016124f3565b6101608501526130fb6101808201612fae565b61018085015261310e6101a08201612fae565b6101a085015201612fae565b6101c082015290565b5190811515820361025a57565b91908261014091031261025a5781519160208101519160408201519160608101519160808201519161316460a08201613123565b9161317160c08301613123565b9161317e60e08201613123565b916126ed6101206131926101008501613123565b9301613123565b60405163026b1d5f60e01b81526020816004817f00000000000000000000000000000000000000000000000000000000000000006001600160a01b03165afa908115610219575f91613274575b506001600160a01b0316906131fb8183613614565b1561326c576040516335ea6a7560e01b81526001600160a01b039091166004820152906101e090829060249082905afa908115610219575f9161324d575b50604001516001600160801b031690600190565b61326691506101e03d81116119c4576119b581836124d0565b5f613239565b50505f905f90565b90506020813d6020116132a6575b8161328f602093836124d0565b8101031261025a576132a0906124f3565b5f6131e6565b3d9150613282565b604051631f94a27560e31b8152906020826004817f00000000000000000000000000000000000000000000000000000000000000006001600160a01b03165afa918215610219575f9261336e575b5060405163b3596f0760e01b81526001600160a01b0391821660048201529160209183916024918391165afa5f918161333a575b506126ed57505f90565b9091506020813d602011613366575b81613356602093836124d0565b8101031261025a5751905f613330565b3d9150613349565b9091506020813d6020116133a4575b8161338a602093836124d0565b8101031261025a5761339d6020916124f3565b91906132fc565b3d915061337d565b604051906133b9826124b4565b5f60e0838281528260208201528260408201528260608201528260808201528260a08201528260c08201520152565b6133f190613515565b50506001600160a01b03169081612e035750505f90565b60405163026b1d5f60e01b81526020816004817f00000000000000000000000000000000000000000000000000000000000000006001600160a01b03165afa908115610219575f916134db575b506001600160a01b03169061346a8183613614565b1561326c576040516335ea6a7560e01b81526001600160a01b039091166004820152906101e090829060249082905afa908115610219575f916134bc575b50608001516001600160801b031690600190565b6134d591506101e03d81116119c4576119b581836124d0565b5f6134a8565b90506020813d60201161350d575b816134f6602093836124d0565b8101031261025a57613507906124f3565b5f613455565b3d91506134e9565b60405163e860accb60e01b815291906020836004817f00000000000000000000000000000000000000000000000000000000000000006001600160a01b03165afa928315610219575f936135d6575b506040516334924edb60e21b81526001600160a01b0391821660048201529260609184916024918391165afa91825f915f946135b1575b506135aa57505f915081908190565b9190600190565b9093506135cd915060603d6060116109755761096481836124d0565b9390505f61359b565b9092506020813d60201161360c575b816135f2602093836124d0565b8101031261025a576136056060916124f3565b9290613564565b3d91506135e5565b6040516334651b6f60e21b815291905f90839060049082906001600160a01b03165afa918215610219575f9261368b575b505f5b8251811015613684576001600160a01b036136638285612595565b51166001600160a01b0383161461367c57600101613648565b505050600190565b5050505f90565b6136a09192503d805f833e610ae481836124d0565b905f61364556fea26469706673582212204877a1cc964c3f09f17fcb02ac4d1fa4c0e14252beec05531dd24f33c2498a3f64736f6c634300081e0033",
  "devdoc": {
    "kind": "dev",
    "methods": {
      "getAllTokensInfoWithEMode(address)": {
        "params": {
          "user": "The address of the user"
        },
        "returns": {
          "tokens": "Array of TokenInfo structs",
          "userEModeCategory": "The user's current E-Mode category ID (0 = no E-Mode)"
        }
      },
      "getAssetPrice(address)": {
        "params": {
          "token": "The asset address"
        },
        "returns": {
          "price": "Price in 8 decimals (e.g., 300000000000 for $3000)"
        }
      },
      "getAssetPrices(address[])": {
        "params": {
          "tokens": "Array of asset addresses"
        },
        "returns": {
          "prices": "Array of prices in 8 decimals"
        }
      },
      "getCurrentLtvBps(address,address)": {
        "details": "This is the actual current LTV = totalDebt / totalCollateral * 10000",
        "params": {
          "user": "The user address"
        },
        "returns": {
          "_0": "Current LTV in basis points (e.g., 6500 = 65%)"
        }
      },
      "getEModes()": {
        "details": "Note: Base doesn't support the UiPoolDataProvider's getEModes, so we return empty for now",
        "returns": {
          "emodes": "Array of E-Mode categories with their configurations"
        }
      },
      "getLiquidationLtvBps(address,address)": {
        "details": "Position is liquidatable when currentLTV >= liquidationLtvBps",
        "params": {
          "user": "The user address"
        },
        "returns": {
          "_0": "Liquidation threshold in basis points"
        }
      },
      "getLtv(address,address)": {
        "details": "This is the max borrow power, NOT the current debt/collateral ratio"
      },
      "getReserveConfig(address)": {
        "params": {
          "token": "The token address"
        },
        "returns": {
          "config": "The reserve configuration data"
        }
      },
      "getReserveConfigs(address[])": {
        "details": "Returns price, LTV, liquidation threshold, and other config for each token",
        "params": {
          "tokens": "Array of token addresses to get config for"
        },
        "returns": {
          "configs": "Array of reserve configuration data"
        }
      },
      "getUserAccountData(address)": {
        "params": {
          "user": "The user address"
        },
        "returns": {
          "availableBorrowsBase": "Available borrows in base currency",
          "currentLiquidationThreshold": "Current liquidation threshold (bps)",
          "healthFactor": "Health factor (1e18 scale)",
          "ltv": "Current LTV (bps)",
          "totalCollateralBase": "Total collateral in base currency",
          "totalDebtBase": "Total debt in base currency"
        }
      },
      "getUserEMode(address)": {
        "params": {
          "user": "The address of the user"
        },
        "returns": {
          "categoryId": "The E-Mode category ID (0 = no E-Mode)"
        }
      }
    },
    "title": "AaveGatewayViewBase",
    "version": 1
  },
  "userdoc": {
    "kind": "user",
    "methods": {
      "getAllTokensInfo(address)": {
        "notice": "Returns all token info for a given user."
      },
      "getAllTokensInfoWithEMode(address)": {
        "notice": "Returns all token info for a user along with their E-Mode category"
      },
      "getAssetPrice(address)": {
        "notice": "Get the price of an asset in USD (8 decimals)"
      },
      "getAssetPrices(address[])": {
        "notice": "Get prices for multiple assets"
      },
      "getCurrentLtvBps(address,address)": {
        "notice": "Returns the current LTV (debt/collateral) in basis points"
      },
      "getEModes()": {
        "notice": "Returns all available E-Mode categories"
      },
      "getLiquidationLtvBps(address,address)": {
        "notice": "Returns the liquidation LTV threshold in basis points"
      },
      "getLtv(address,address)": {
        "notice": "Returns the configured maximum LTV for the user in basis points."
      },
      "getMaxLtv(address,address)": {
        "notice": "Returns the liquidation threshold (LLTV) for a given user in basis points."
      },
      "getReserveConfig(address)": {
        "notice": "Get reserve config for a single token"
      },
      "getReserveConfigs(address[])": {
        "notice": "Get reserve configuration data for multiple tokens (for frontend LTV calculations)"
      },
      "getUserAccountData(address)": {
        "notice": "Returns full user account data from Aave"
      },
      "getUserEMode(address)": {
        "notice": "Returns the user's current E-Mode category ID"
      }
    },
    "notice": "View-only gateway for Aave v3 protocol on Base. Avoids UiPoolDataProvider struct differences         by reading directly from Pool, DataProvider and Oracle. Constructor signature matches the         generic view so deploy scripts can deploy this under the same name.",
    "version": 1
  },
  "storageLayout": {
    "storage": [],
    "types": null
  }
}