{
  "address": "0x73a43bF9c9702FabA7a540FAebc75248Ec04F936",
  "abi": [
    {
      "inputs": [
        {
          "internalType": "address",
          "name": "_poolAddressesProvider",
          "type": "address"
        },
        {
          "internalType": "address",
          "name": "",
          "type": "address"
        }
      ],
      "stateMutability": "nonpayable",
      "type": "constructor"
    },
    {
      "inputs": [
        {
          "internalType": "address",
          "name": "user",
          "type": "address"
        }
      ],
      "name": "borrowedTokens",
      "outputs": [
        {
          "internalType": "address[]",
          "name": "",
          "type": "address[]"
        }
      ],
      "stateMutability": "view",
      "type": "function"
    },
    {
      "inputs": [
        {
          "internalType": "address",
          "name": "underlyingToken",
          "type": "address"
        }
      ],
      "name": "getAToken",
      "outputs": [
        {
          "internalType": "address",
          "name": "",
          "type": "address"
        }
      ],
      "stateMutability": "view",
      "type": "function"
    },
    {
      "inputs": [
        {
          "internalType": "address",
          "name": "user",
          "type": "address"
        }
      ],
      "name": "getAllTokensInfo",
      "outputs": [
        {
          "components": [
            {
              "internalType": "address",
              "name": "token",
              "type": "address"
            },
            {
              "internalType": "uint256",
              "name": "supplyRate",
              "type": "uint256"
            },
            {
              "internalType": "uint256",
              "name": "borrowRate",
              "type": "uint256"
            },
            {
              "internalType": "string",
              "name": "name",
              "type": "string"
            },
            {
              "internalType": "string",
              "name": "symbol",
              "type": "string"
            },
            {
              "internalType": "uint256",
              "name": "price",
              "type": "uint256"
            },
            {
              "internalType": "uint256",
              "name": "borrowBalance",
              "type": "uint256"
            },
            {
              "internalType": "uint256",
              "name": "balance",
              "type": "uint256"
            },
            {
              "internalType": "address",
              "name": "aToken",
              "type": "address"
            },
            {
              "internalType": "uint8",
              "name": "decimals",
              "type": "uint8"
            }
          ],
          "internalType": "struct AaveGatewayViewBase.TokenInfo[]",
          "name": "",
          "type": "tuple[]"
        }
      ],
      "stateMutability": "view",
      "type": "function"
    },
    {
      "inputs": [
        {
          "internalType": "address",
          "name": "user",
          "type": "address"
        }
      ],
      "name": "getAllTokensInfoWithEMode",
      "outputs": [
        {
          "components": [
            {
              "internalType": "address",
              "name": "token",
              "type": "address"
            },
            {
              "internalType": "uint256",
              "name": "supplyRate",
              "type": "uint256"
            },
            {
              "internalType": "uint256",
              "name": "borrowRate",
              "type": "uint256"
            },
            {
              "internalType": "string",
              "name": "name",
              "type": "string"
            },
            {
              "internalType": "string",
              "name": "symbol",
              "type": "string"
            },
            {
              "internalType": "uint256",
              "name": "price",
              "type": "uint256"
            },
            {
              "internalType": "uint256",
              "name": "borrowBalance",
              "type": "uint256"
            },
            {
              "internalType": "uint256",
              "name": "balance",
              "type": "uint256"
            },
            {
              "internalType": "address",
              "name": "aToken",
              "type": "address"
            },
            {
              "internalType": "uint8",
              "name": "decimals",
              "type": "uint8"
            }
          ],
          "internalType": "struct AaveGatewayViewBase.TokenInfo[]",
          "name": "tokens",
          "type": "tuple[]"
        },
        {
          "internalType": "uint8",
          "name": "userEModeCategory",
          "type": "uint8"
        }
      ],
      "stateMutability": "view",
      "type": "function"
    },
    {
      "inputs": [
        {
          "internalType": "address",
          "name": "token",
          "type": "address"
        },
        {
          "internalType": "address",
          "name": "user",
          "type": "address"
        }
      ],
      "name": "getBalance",
      "outputs": [
        {
          "internalType": "uint256",
          "name": "",
          "type": "uint256"
        }
      ],
      "stateMutability": "view",
      "type": "function"
    },
    {
      "inputs": [
        {
          "internalType": "address",
          "name": "token",
          "type": "address"
        },
        {
          "internalType": "address",
          "name": "user",
          "type": "address"
        }
      ],
      "name": "getBorrowBalance",
      "outputs": [
        {
          "internalType": "uint256",
          "name": "",
          "type": "uint256"
        }
      ],
      "stateMutability": "view",
      "type": "function"
    },
    {
      "inputs": [
        {
          "internalType": "address",
          "name": "token",
          "type": "address"
        },
        {
          "internalType": "address",
          "name": "user",
          "type": "address"
        }
      ],
      "name": "getBorrowBalanceCurrent",
      "outputs": [
        {
          "internalType": "uint256",
          "name": "",
          "type": "uint256"
        }
      ],
      "stateMutability": "nonpayable",
      "type": "function"
    },
    {
      "inputs": [
        {
          "internalType": "address",
          "name": "token",
          "type": "address"
        }
      ],
      "name": "getBorrowRate",
      "outputs": [
        {
          "internalType": "uint256",
          "name": "",
          "type": "uint256"
        },
        {
          "internalType": "bool",
          "name": "",
          "type": "bool"
        }
      ],
      "stateMutability": "view",
      "type": "function"
    },
    {
      "inputs": [],
      "name": "getEModes",
      "outputs": [
        {
          "components": [
            {
              "internalType": "uint8",
              "name": "id",
              "type": "uint8"
            },
            {
              "internalType": "uint16",
              "name": "ltv",
              "type": "uint16"
            },
            {
              "internalType": "uint16",
              "name": "liquidationThreshold",
              "type": "uint16"
            },
            {
              "internalType": "uint16",
              "name": "liquidationBonus",
              "type": "uint16"
            },
            {
              "internalType": "string",
              "name": "label",
              "type": "string"
            },
            {
              "internalType": "uint128",
              "name": "collateralBitmap",
              "type": "uint128"
            },
            {
              "internalType": "uint128",
              "name": "borrowableBitmap",
              "type": "uint128"
            }
          ],
          "internalType": "struct AaveGatewayViewBase.EModeInfo[]",
          "name": "emodes",
          "type": "tuple[]"
        }
      ],
      "stateMutability": "view",
      "type": "function"
    },
    {
      "inputs": [
        {
          "internalType": "address",
          "name": "",
          "type": "address"
        },
        {
          "internalType": "address",
          "name": "user",
          "type": "address"
        }
      ],
      "name": "getLtv",
      "outputs": [
        {
          "internalType": "uint256",
          "name": "",
          "type": "uint256"
        }
      ],
      "stateMutability": "view",
      "type": "function"
    },
    {
      "inputs": [
        {
          "internalType": "address",
          "name": "",
          "type": "address"
        },
        {
          "internalType": "address",
          "name": "user",
          "type": "address"
        }
      ],
      "name": "getMaxLtv",
      "outputs": [
        {
          "internalType": "uint256",
          "name": "",
          "type": "uint256"
        }
      ],
      "stateMutability": "view",
      "type": "function"
    },
    {
      "inputs": [
        {
          "internalType": "address",
          "name": "",
          "type": "address"
        },
        {
          "internalType": "address",
          "name": "user",
          "type": "address"
        }
      ],
      "name": "getPossibleCollaterals",
      "outputs": [
        {
          "internalType": "address[]",
          "name": "collateralAddresses",
          "type": "address[]"
        },
        {
          "internalType": "uint256[]",
          "name": "balances",
          "type": "uint256[]"
        },
        {
          "internalType": "string[]",
          "name": "symbols",
          "type": "string[]"
        },
        {
          "internalType": "uint8[]",
          "name": "decimals",
          "type": "uint8[]"
        }
      ],
      "stateMutability": "view",
      "type": "function"
    },
    {
      "inputs": [
        {
          "internalType": "address",
          "name": "token",
          "type": "address"
        }
      ],
      "name": "getReserveConfig",
      "outputs": [
        {
          "components": [
            {
              "internalType": "address",
              "name": "token",
              "type": "address"
            },
            {
              "internalType": "uint256",
              "name": "price",
              "type": "uint256"
            },
            {
              "internalType": "uint256",
              "name": "ltv",
              "type": "uint256"
            },
            {
              "internalType": "uint256",
              "name": "liquidationThreshold",
              "type": "uint256"
            },
            {
              "internalType": "uint256",
              "name": "liquidationBonus",
              "type": "uint256"
            },
            {
              "internalType": "uint8",
              "name": "decimals",
              "type": "uint8"
            },
            {
              "internalType": "bool",
              "name": "usageAsCollateralEnabled",
              "type": "bool"
            },
            {
              "internalType": "bool",
              "name": "borrowingEnabled",
              "type": "bool"
            }
          ],
          "internalType": "struct AaveGatewayViewBase.ReserveConfigData",
          "name": "config",
          "type": "tuple"
        }
      ],
      "stateMutability": "view",
      "type": "function"
    },
    {
      "inputs": [
        {
          "internalType": "address[]",
          "name": "tokens",
          "type": "address[]"
        }
      ],
      "name": "getReserveConfigs",
      "outputs": [
        {
          "components": [
            {
              "internalType": "address",
              "name": "token",
              "type": "address"
            },
            {
              "internalType": "uint256",
              "name": "price",
              "type": "uint256"
            },
            {
              "internalType": "uint256",
              "name": "ltv",
              "type": "uint256"
            },
            {
              "internalType": "uint256",
              "name": "liquidationThreshold",
              "type": "uint256"
            },
            {
              "internalType": "uint256",
              "name": "liquidationBonus",
              "type": "uint256"
            },
            {
              "internalType": "uint8",
              "name": "decimals",
              "type": "uint8"
            },
            {
              "internalType": "bool",
              "name": "usageAsCollateralEnabled",
              "type": "bool"
            },
            {
              "internalType": "bool",
              "name": "borrowingEnabled",
              "type": "bool"
            }
          ],
          "internalType": "struct AaveGatewayViewBase.ReserveConfigData[]",
          "name": "configs",
          "type": "tuple[]"
        }
      ],
      "stateMutability": "view",
      "type": "function"
    },
    {
      "inputs": [
        {
          "internalType": "address",
          "name": "token",
          "type": "address"
        }
      ],
      "name": "getSupplyRate",
      "outputs": [
        {
          "internalType": "uint256",
          "name": "",
          "type": "uint256"
        },
        {
          "internalType": "bool",
          "name": "",
          "type": "bool"
        }
      ],
      "stateMutability": "view",
      "type": "function"
    },
    {
      "inputs": [
        {
          "internalType": "address",
          "name": "",
          "type": "address"
        }
      ],
      "name": "getSupportedCollaterals",
      "outputs": [
        {
          "internalType": "address[]",
          "name": "collateralAddresses",
          "type": "address[]"
        }
      ],
      "stateMutability": "view",
      "type": "function"
    },
    {
      "inputs": [
        {
          "internalType": "address",
          "name": "aToken",
          "type": "address"
        }
      ],
      "name": "getUnderlyingToken",
      "outputs": [
        {
          "internalType": "address",
          "name": "",
          "type": "address"
        }
      ],
      "stateMutability": "view",
      "type": "function"
    },
    {
      "inputs": [
        {
          "internalType": "address",
          "name": "user",
          "type": "address"
        }
      ],
      "name": "getUserAccountData",
      "outputs": [
        {
          "internalType": "uint256",
          "name": "totalCollateralBase",
          "type": "uint256"
        },
        {
          "internalType": "uint256",
          "name": "totalDebtBase",
          "type": "uint256"
        },
        {
          "internalType": "uint256",
          "name": "availableBorrowsBase",
          "type": "uint256"
        },
        {
          "internalType": "uint256",
          "name": "currentLiquidationThreshold",
          "type": "uint256"
        },
        {
          "internalType": "uint256",
          "name": "ltv",
          "type": "uint256"
        },
        {
          "internalType": "uint256",
          "name": "healthFactor",
          "type": "uint256"
        }
      ],
      "stateMutability": "view",
      "type": "function"
    },
    {
      "inputs": [
        {
          "internalType": "address",
          "name": "user",
          "type": "address"
        }
      ],
      "name": "getUserEMode",
      "outputs": [
        {
          "internalType": "uint8",
          "name": "categoryId",
          "type": "uint8"
        }
      ],
      "stateMutability": "view",
      "type": "function"
    },
    {
      "inputs": [
        {
          "internalType": "address",
          "name": "",
          "type": "address"
        },
        {
          "internalType": "address",
          "name": "collateral",
          "type": "address"
        }
      ],
      "name": "isCollateralSupported",
      "outputs": [
        {
          "internalType": "bool",
          "name": "isSupported",
          "type": "bool"
        }
      ],
      "stateMutability": "view",
      "type": "function"
    },
    {
      "inputs": [],
      "name": "poolAddressesProvider",
      "outputs": [
        {
          "internalType": "contract IPoolAddressesProvider",
          "name": "",
          "type": "address"
        }
      ],
      "stateMutability": "view",
      "type": "function"
    }
  ],
  "transactionHash": "0x9fc9d7e6bc40080a4ca49c92a11808617825b34ded5d209f2bccb0f370f14cd3",
  "args": [
    "0xe20fcbdbffc4dd138ce8b2e6fbb6cb49777ad64d",
    "0x174446a6741300cD2E7C1b1A636Fee99c8F83502"
  ],
  "numDeployments": 16,
  "solcInputHash": "8ea05fae211b01fd2cadb8e01b71fb98",
  "bytecode": "0x60a0346100d957601f61335938819003918201601f19168301916001600160401b038311848410176100dd5780849260409485528339810103126100d957610052602061004b836100f1565b92016100f1565b506001600160a01b03166080526040516132539081610106823960805181818161013801528181610266015281816103b9015281816107d801528181610bb601528181610f7101528181610fd801528181611124015281816114130152818161151a01528181612106015281816124f801528181612e3e01528181612fb101526130a20152f35b5f80fd5b634e487b7160e01b5f52604160045260245ffd5b51906001600160a01b03821682036100d95756fe60806040526004361015610011575f80fd5b5f3560e01c8063104e999d14611e25578063118e31b7146103565780633e69c6af14611bd3578063401d45d0146114f257806362fd6add146113db57806366e2d09b146110fb578063691bcc88146110d55780636b5441a9146110da578063732a52ee146110d55780637846611314610fa057806380e17d8714610f5c578063a92c3f7e14610e7d578063bd05bdb414610cba578063bf92857c14610b87578063ceac55df146107b0578063d4fac45d1461077c578063d71275f614610743578063d7728c1c1461035b578063e94201c714610356578063eddf1b79146102375763f5125d3f14610100575f80fd5b3461022b57604036600319011261022b57610119611f43565b50610122611f59565b60405163026b1d5f60e01b8152906020826004817f00000000000000000000000000000000000000000000000000000000000000006001600160a01b03165afa9182156101ea575f926101f5575b50604051632fe4a15f60e21b81526001600160a01b0391821660048201529160c09183916024918391165afa80156101ea576020915f916101b5575b50604051908152f35b6101d7915060c03d60c0116101e3575b6101cf8183612292565b810190612d85565b5093505050505f6101ac565b503d6101c5565b6040513d5f823e3d90fd5b9091506020813d60201161022f575b8161021160209383612292565b8101031261022b5761022460c0916122b3565b9190610170565b5f80fd5b3d9150610204565b3461022b57602036600319011261022b57610250611f43565b60405163026b1d5f60e01b8152906020826004817f00000000000000000000000000000000000000000000000000000000000000006001600160a01b03165afa9182156101ea575f92610318575b5060405163eddf1b7960e01b81526001600160a01b0391821660048201529160209183916024918391165afa80156101ea575f906102e5575b60209060ff60405191168152f35b506020813d602011610310575b816102ff60209383612292565b8101031261022b57602090516102d7565b3d91506102f2565b9091506020813d60201161034e575b8161033460209383612292565b8101031261022b576103476020916122b3565b919061029e565b3d9150610327565b611fcf565b3461022b57602036600319011261022b576004356001600160401b03811161022b573660238201121561022b5780600401356001600160401b03811161022b573660248260051b8401011161022b57604051631f94a27560e31b81527f00000000000000000000000000000000000000000000000000000000000000006001600160a01b031690602081600481855afa9081156101ea575f91610704575b5060405163e860accb60e01b81526001600160a01b0390911691602090829060049082905afa9081156101ea575f916106ca575b506001600160a01b031690610441836122c7565b9361044f6040519586612292565b838552601f1961045e856122c7565b015f5b8181106106b35750505f5b84811015610662576024600582901b830101356001600160a01b038116919082900361022b575f9160405163b3596f0760e01b8152816004820152602081602481895afa5f918161062f575b50610627575b5060405163313ce56760e01b815292866012602086600481875afa80965f916105e8575b506001966105e0575b505f905f5f905f9360246101405f9760405192838092633e15014160e01b82528d60048301525afa905f5f5f91845f945f9661059c575b50610585575b505050505060ff9495966040519861053f8a612276565b895260208901526040880152606087015260808601521660a0840152151560c0830152151560e082015261057382896123fb565b5261057e81886123fb565b500161046c565b93995091975094509250905060ff5f808080610528565b9350945050506105c491506101403d81116105d9575b6105bc8183612292565b810190612dc0565b509198929750939593509091505f9050610522565b503d6105b2565b90508b6104eb565b9250506020823d821161061f575b8161060360209383612292565b8101031261022b576001956106188a9361248c565b90966104e2565b3d91506105f6565b9250886104be565b9091506020813d821161065a575b8161064a60209383612292565b8101031261022b5751908a6104b8565b3d915061063d565b856040518091602082016020835281518091526020604084019201905f5b81811061068e575050500390f35b919350916020610100826106a560019488516121ec565b019401910191849392610680565b6020906106be612f40565b82828a01015201610461565b90506020813d6020116106fc575b816106e560209383612292565b8101031261022b576106f6906122b3565b8461042d565b3d91506106d8565b90506020813d60201161073b575b8161071f60209383612292565b8101031261022b5760206107346004926122b3565b91506103f9565b3d9150610712565b3461022b57602036600319011261022b5761076461075f611f43565b612f9c565b604080519283529015156020830152819081015b0390f35b3461022b57604036600319011261022b5760206107a861079a611f43565b6107a2611f59565b90612f7c565b604051908152f35b3461022b57602036600319011261022b576107c9611f43565b60405163026b1d5f60e01b81527f00000000000000000000000000000000000000000000000000000000000000006001600160a01b0316602082600481845afa9182156101ea575f92610b48575b509060206004926040519384809263e860accb60e01b82525afa9182156101ea575f92610b0a575b506040516334651b6f60e21b8152916001600160a01b03908116915f9184916004918391165afa9182156101ea575f92610ae6575b505f905f5b8351811015610993576001600160a01b0361089482866123fb565b516040516334924edb60e21b815291166004820152606081602481865afa9081156101ea575f91610962575b506001600160a01b0316806108d9575b50600101610879565b6040516370a0823160e01b81526001600160a01b038716600482015290602090829060249082905afa5f918161092f575b50156108d05761091b575b856108d0565b916109276001916124c7565b929050610915565b9091506020813d821161095a575b8161094a60209383612292565b8101031261022b5751908761090a565b3d915061093d565b610983915060603d811161098c575b61097b8183612292565b81019061249a565b915050866108c0565b503d610971565b50919061099f9061235f565b905f5f5b8251811015610ad0576001600160a01b036109be82856123fb565b516040516334924edb60e21b815291166004820152606081602481895afa9081156101ea575f91610aaf575b506001600160a01b03169081610a05575b60019150016109a3565b6040516370a0823160e01b81526001600160a01b038816600482015291602090839060249082905afa805f91610a7b575b60019350610a45575b506109fb565b610a50575b87610a3f565b818060a01b03610a6082866123fb565b5116610a75610a6e856124c7565b94876123fb565b52610a4a565b90506020833d8211610aa7575b81610a9560209383612292565b8101031261022b576001925190610a36565b3d9150610a88565b610ac7915060603d811161098c5761097b8183612292565b915050876109ea565b6040516020808252819061077890820187611f6f565b610b039192503d805f833e610afb8183612292565b8101906122de565b9083610874565b91506020823d602011610b40575b81610b2560209383612292565b8101031261022b575f610b396004936122b3565b925061083f565b3d9150610b18565b91506020823d602011610b7f575b81610b6360209383612292565b8101031261022b576020610b786004936122b3565b9250610817565b3d9150610b56565b3461022b57602036600319011261022b57610ba0611f43565b60405163026b1d5f60e01b8152906020826004817f00000000000000000000000000000000000000000000000000000000000000006001600160a01b03165afa9182156101ea575f92610c7c575b50604051632fe4a15f60e21b81526001600160a01b0391821660048201529160c09183916024918391165afa9081156101ea5760c0915f915f5f5f915f935f95610c55575b50604051958652602086015260408501526060840152608083015260a0820152f35b945050505050610c729150823d84116101e3576101cf8183612292565b9390929087610c33565b9091506020813d602011610cb2575b81610c9860209383612292565b8101031261022b57610cab60c0916122b3565b9190610bee565b3d9150610c8b565b3461022b57602036600319011261022b57610d38610cd6611f43565b610cde612f40565b505f604091825190610cf08483612292565b60018252601f198401366020840137610d08826123da565b6001600160a01b03909116905282516335dca30760e21b8152602060048201529384918291906024830190611f6f565b0381305afa918215610e73575f92610d67575b50610d65610d5b610100936123da565b51915180926121ec565bf35b91503d805f843e610d788184612292565b82019160208184031261022b578051906001600160401b03821161022b570182601f8201121561022b57805190610dae826122c7565b93610dbb84519586612292565b82855260208086019360081b8301019181831161022b57602001925b828410610dea5750505050610d65610d4b565b6101008483031261022b576020610100918651610e0681612276565b610e0f876122b3565b8152828701518382015287870151888201526060870151606082015260808701516080820152610e4160a0880161248c565b60a0820152610e5260c08801612db3565b60c0820152610e6360e08801612db3565b60e0820152815201930192610dd7565b50513d5f823e3d90fd5b3461022b575f36600319011261022b576020604051610e9c8282612292565b5f81526040519082820192808352815180945260408301938160408260051b8601019301915f955b828710610ed15785850386f35b909192938280600192603f1989820301855287519060ff825116815261ffff83830151168382015261ffff604083015116604082015261ffff606083015116606082015260c06001600160801b0381610f39608086015160e0608087015260e0860190611fab565b948260a08201511660a08601520151169101529601920196019592919092610ec4565b3461022b575f36600319011261022b576040517f00000000000000000000000000000000000000000000000000000000000000006001600160a01b03168152602090f35b3461022b57604036600319011261022b57610fb9611f43565b50610fc2611f59565b60405163e860accb60e01b8152906020826004817f00000000000000000000000000000000000000000000000000000000000000006001600160a01b03165afa9182156101ea575f92611096575b50604051633e15014160e01b81526001600160a01b039182166004820152916101409183916024918391165afa80156101ea576020915f905f9261106c575b508115611062575b506040519015158152f35b9050151582611057565b905061108791506101403d81116105d9576105bc8183612292565b5050505094505050508361104f565b9091506020813d6020116110cd575b816110b260209383612292565b8101031261022b576110c6610140916122b3565b9190611010565b3d91506110a5565b6120d7565b3461022b57602036600319011261022b576107646110f6611f43565b612e29565b3461022b57602036600319011261022b57611114611f43565b5060405163026b1d5f60e01b81527f00000000000000000000000000000000000000000000000000000000000000006001600160a01b0316602082600481845afa9182156101ea575f9261139a575b5060206004916040519283809263e860accb60e01b82525afa9081156101ea575f9161135c575b506040516334651b6f60e21b81526001600160a01b039182169290915f9183916004918391165afa9081156101ea575f91611342575b505f5f5b825181101561126c576001600160a01b036111df82856123fb565b51604051633e15014160e01b81529116600482015261014081602481885afa9081156101ea575f905f92611242575b508115611238575b50611224575b6001016111c4565b906112306001916124c7565b91905061121c565b9050151585611216565b905061125d91506101403d81116105d9576105bc8183612292565b5050505094505050508661120e565b506112769061235f565b905f5f5b8251811015610ad0576001600160a01b0361129582856123fb565b51604051633e15014160e01b81529116600482015261014081602481895afa9081156101ea575f905f92611318575b50811561130e575b506112da575b60010161127a565b90600190611306906001600160a01b036112f485876123fb565b511661130082886123fb565b526124c7565b9190506112d2565b90501515866112cc565b905061133391506101403d81116105d9576105bc8183612292565b505050509450505050876112c4565b61135691503d805f833e610afb8183612292565b826111c0565b90506020813d602011611392575b8161137760209383612292565b8101031261022b575f61138b6004926122b3565b915061118a565b3d915061136a565b9091506020813d6020116113d3575b816113b660209383612292565b8101031261022b5760206113cb6004926122b3565b929150611163565b3d91506113a9565b3461022b57604036600319011261022b576113f4611f43565b506113fd611f59565b60405163026b1d5f60e01b8152906020826004817f00000000000000000000000000000000000000000000000000000000000000006001600160a01b03165afa9182156101ea575f926114b4575b50604051632fe4a15f60e21b81526001600160a01b0391821660048201529160c09183916024918391165afa80156101ea576020915f9161148f5750604051908152f35b6114a8915060c03d60c0116101e3576101cf8183612292565b505092505050826101ac565b9091506020813d6020116114ea575b816114d060209383612292565b8101031261022b576114e360c0916122b3565b919061144b565b3d91506114c3565b3461022b57602036600319011261022b5761150b611f43565b60405163026b1d5f60e01b81527f00000000000000000000000000000000000000000000000000000000000000006001600160a01b031690602081600481855afa9081156101ea575f91611b99575b50604051631f94a27560e31b81526001600160a01b03919091169290602081600481865afa9081156101ea575f91611b5a575b5060405163e860accb60e01b81526001600160a01b0390911692602090829060049082905afa9081156101ea575f91611b20575b506040516334651b6f60e21b81526001600160a01b0391909116925f82600481885afa9182156101ea575f92611b04575b5092815192611600846122c7565b9361160e6040519586612292565b80855261161d601f19916122c7565b015f5b818110611aa85750505f916020925b8451811015611a95576001600160a01b0361164a82876123fb565b516040516335ea6a7560e01b815291166004820152906101e0826024818c5afa9182156101ea575f92611a64575b506001600160a01b0361168b82886123fb565b516040516334924edb60e21b81529116600482015291606083602481875afa9283156101ea5787935f915f91611a42575b505f916001600160a01b0316908290826119d0575b6001600160a01b0316898161195c575b50506040516116f08a82612292565b5f8152928c6040516117028c82612292565b5f8082526004906001600160a01b0361171b8b8d6123fb565b5116604051928380926306fdde0360e01b82525afa5f9181611940575b50611938575b5060045f6001600160a01b036117548b8d6123fb565b5116604051928380926395d89b4160e01b82525afa5f9181611914575b5061190c575b5060129560048d6001600160a01b036117908c8e6123fb565b51166040519283809263313ce56760e01b82525afa5f91816118cf575b506118c7575b506001600160a01b036117c68a8c6123fb565b5116978d6001600160801b03608081604085015116930151169b6117f18c60018060a01b03926123fb565b511660246040518097819363b3596f0760e01b835260048301525afa9384156101ea578e905f95611885575b509a60ff989796959493929160019c6040519b6118398d612246565b8c528b015260408a01526060890152608088015260a087015260c086015260e08501526101008401521661012082015261187382896123fb565b5261187e81886123fb565b500161162f565b80949392999897969550813d83116118c0575b6118a28183612292565b8101031261022b5791519596949593949293929091908d600161181d565b503d611898565b96505f6117b3565b94509a50508c83813d8311611905575b6118e98183612292565b8101031261022b578f92996118fe8f9b61248c565b905f6117ad565b503d6118df565b90505f611777565b6119319192503d805f833e6119298183612292565b810190612464565b905f611771565b95505f61173e565b6119559192503d805f833e6119298183612292565b905f611738565b6040516370a0823160e01b81526001600160a01b038b16600482015291829060249082905afa5f918161199e575b50611996575b896116e1565b92508d611990565b975090508987813d81116119c9575b6119b78183612292565b8101031261022b578a9651908f61198a565b503d6119ad565b6040516370a0823160e01b81526001600160a01b038a1660048201528a81602481875afa5f9181611a10575b50611a08575b506116d1565b91508e611a02565b985090508a88813d8111611a3b575b611a298183612292565b8101031261022b578b9751905f6119fc565b503d611a1f565b9050611a5c915060603d811161098c5761097b8183612292565b90508c6116bc565b611a879192506101e03d8111611a8e575b611a7f8183612292565b810190612c24565b9089611678565b503d611a75565b6040518481528061077881870189611ffb565b602090604097949751611aba81612246565b5f81525f838201525f6040820152606080820152606060808201525f60a08201525f60c08201525f60e08201525f6101008201525f61012082015282828901015201959295611620565b611b199192503d805f833e610afb8183612292565b90856115f2565b90506020813d602011611b52575b81611b3b60209383612292565b8101031261022b57611b4c906122b3565b846115c1565b3d9150611b2e565b90506020813d602011611b91575b81611b7560209383612292565b8101031261022b576020611b8a6004926122b3565b915061158d565b3d9150611b68565b90506020813d602011611bcb575b81611bb460209383612292565b8101031261022b57611bc5906122b3565b8361155a565b3d9150611ba7565b3461022b57602036600319011261022b57611bec611f43565b604051630401d45d60e41b81526001600160a01b0390911660048201819052905f81602481305afa9081156101ea575f91611cad575b506040519163eddf1b7960e01b83526004830152602082602481305afa80156101ea575f90611c72575b611c67925060ff604051938493604085526040850190611ffb565b911660208301520390f35b506020823d602011611ca5575b81611c8c60209383612292565b8101031261022b57611ca0611c679261248c565b611c4c565b3d9150611c7f565b90503d805f833e611cbe8183612292565b81019060208183031261022b578051906001600160401b03821161022b57019080601f8301121561022b57815191611cf5836122c7565b92611d036040519485612292565b80845260208085019160051b8301019183831161022b5760208101915b838310611d3257505050505082611c22565b82516001600160401b03811161022b57820190610140828703601f19011261022b5760405190611d6182612246565b611d6d602084016122b3565b8252604083015160208301526060830151604083015260808301516001600160401b03811161022b57876020611da59286010161240f565b606083015260a0830151916001600160401b03831161022b57611e1461014085611dd78b60208099988199010161240f565b608085015260c081015160a085015260e081015160c085015261010081015160e0850152611e0861012082016122b3565b6101008501520161248c565b610120820152815201920191611d20565b3461022b57604036600319011261022b57611e3e611f43565b50611e67611e52611e4d611f59565b6124e9565b91604051948594608086526080860190611f6f565b8481036020860152602080835192838152019201905f5b818110611f2a575050508381036040850152815180825260208201916020808360051b8301019401925f915b838310611ef75750505050508281036060840152602080835192838152019201905f5b818110611edb575050500390f35b825160ff16845285945060209384019390920191600101611ecd565b91939596509193602080611f17600193601f198682030187528951611fab565b9701930193019092879695949293611eaa565b8251845287965060209384019390920191600101611e7e565b600435906001600160a01b038216820361022b57565b602435906001600160a01b038216820361022b57565b90602080835192838152019201905f5b818110611f8c5750505090565b82516001600160a01b0316845260209384019390920191600101611f7f565b805180835260209291819084018484015e5f828201840152601f01601f1916010190565b3461022b57604036600319011261022b5760206107a8611fed611f43565b611ff5611f59565b90612b7d565b9080602083519182815201916020808360051b8301019401925f915b83831061202657505050505090565b9091929394602080600192601f19858203018652885190848060a01b03825116815282820151838201526040820151604082015261012060ff8161209061207e60608701516101406060880152610140870190611fab565b60808701518682036080880152611fab565b9460a081015160a086015260c081015160c086015260e081015160e0860152888060a01b036101008201511661010086015201511691015297019301930191939290612017565b3461022b57602036600319011261022b576120f0611f43565b60405163e860accb60e01b8152906020826004817f00000000000000000000000000000000000000000000000000000000000000006001600160a01b03165afa9182156101ea575f926121ae575b506040516334924edb60e21b81526001600160a01b0391821660048201529160609183916024918391165afa80156101ea576020915f9161218d575b506040516001600160a01b039091168152f35b6121a6915060603d60601161098c5761097b8183612292565b50505f61217a565b9091506020813d6020116121e4575b816121ca60209383612292565b8101031261022b576121dd6060916122b3565b919061213e565b3d91506121bd565b60e0809160018060a01b0381511684526020810151602085015260408101516040850152606081015160608501526080810151608085015260ff60a08201511660a085015260c0810151151560c085015201511515910152565b61014081019081106001600160401b0382111761226257604052565b634e487b7160e01b5f52604160045260245ffd5b61010081019081106001600160401b0382111761226257604052565b90601f801991011681019081106001600160401b0382111761226257604052565b51906001600160a01b038216820361022b57565b6001600160401b0381116122625760051b60200190565b60208183031261022b578051906001600160401b03821161022b57019080601f8301121561022b578151612311816122c7565b9261231f6040519485612292565b81845260208085019260051b82010192831161022b57602001905b8282106123475750505090565b60208091612354846122b3565b81520191019061233a565b90612369826122c7565b6123766040519182612292565b8281528092612387601f19916122c7565b0190602036910137565b9061239b826122c7565b6123a86040519182612292565b82815280926123b9601f19916122c7565b01905f5b8281106123c957505050565b8060606020809385010152016123bd565b8051156123e75760200190565b634e487b7160e01b5f52603260045260245ffd5b80518210156123e75760209160051b010190565b81601f8201121561022b578051906001600160401b0382116122625760405192612443601f8401601f191660200185612292565b8284526020838301011161022b57815f9260208093018386015e8301015290565b9060208282031261022b5781516001600160401b03811161022b57612489920161240f565b90565b519060ff8216820361022b57565b9081606091031261022b576124ae816122b3565b9161248960406124c0602085016122b3565b93016122b3565b5f1981146124d55760010190565b634e487b7160e01b5f52601160045260245ffd5b60405163026b1d5f60e01b81527f00000000000000000000000000000000000000000000000000000000000000006001600160a01b03169291602082600481875afa9182156101ea575f92612b3f575b506040516334651b6f60e21b8152915f90839060049082906001600160a01b03165afa9182156101ea575f92612b23575b506001600160a01b031692831561298d5760206004916040519283809263e860accb60e01b82525afa9081156101ea575f91612953575b5060018060a01b03165f915f5b81518110156126ac576001600160a01b036125c982846123fb565b516040516334924edb60e21b815291166004820152606081602481875afa9081156101ea575f9161268c575b506001600160a01b03168061260e575b506001016125ae565b6020602491604051928380926370a0823160e01b82528b60048301525afa5f9181612659575b501561260557612645575b5f612605565b926126516001916124c7565b93905061263f565b9091506020813d8211612684575b8161267460209383612292565b8101031261022b5751905f612634565b3d9150612667565b6126a4915060603d811161098c5761097b8183612292565b50505f6125f5565b5090916126b88161235f565b946126c28261235f565b6126d46126ce84612391565b9361235f565b965f955f5b8651811015612944576001600160a01b036126f482896123fb565b516040516334924edb60e21b815291166004820152606081602481865afa9081156101ea575f91612924575b506001600160a01b031680612739575b506001016126d9565b602460205f92604051928380926370a0823160e01b82528b60048301525afa5f91816128f1575b506128e9575b5080156127305790976004916001600160a01b036127848b8b6123fb565b511661279083876123fb565b5261279b82876123fb565b52815f6001600160a01b036127b08c8c6123fb565b5116604051928380926395d89b4160e01b82525afa5f91816128cd575b506128b257506040516127e1602082612292565b5f81526127ee82896123fb565b526127f981886123fb565b505b8a60206001600160a01b036128108c8c6123fb565b51166040519485809263313ce56760e01b82525afa80935f9161286a575b5091809161284d93600195155f146128545750601291611300916123fb565b9790612730565b916128619060ff926123fb565b911690526124c7565b929150506020823d82116128aa575b8161288660209383612292565b8101031261022b57808c60019461289f61284d9561248c565b92509450919261282e565b3d9150612879565b6128bc82896123fb565b526128c781886123fb565b506127fb565b6128e29192503d805f833e6119298183612292565b905f6127cd565b90505f612766565b9091506020813d821161291c575b8161290c60209383612292565b8101031261022b5751905f612760565b3d91506128ff565b61293c915060603d811161098c5761097b8183612292565b50505f612720565b50909791969395509093505050565b90506020813d602011612985575b8161296e60209383612292565b8101031261022b5761297f906122b3565b5f6125a1565b3d9150612961565b50805191925061299c8261235f565b926129a68361235f565b936129b084612391565b936129ba8161235f565b935f5b8281106129cd5750505093929190565b6004906001600160a01b036129e282856123fb565b51166129ee82876123fb565b52815f6001600160a01b03612a0384876123fb565b5116604051928380926395d89b4160e01b82525afa5f9181612b07575b50612aec5750604051612a34602082612292565b5f8152612a41828a6123fb565b52612a4c81896123fb565b505b60206001600160a01b03612a6283866123fb565b51166040519384809263313ce56760e01b82525afa805f91612ab1575b60019350612a9c57506012612a9482896123fb565b525b016129bd565b60ff612aa8838a6123fb565b91169052612a96565b90506020833d8211612ae4575b81612acb60209383612292565b8101031261022b57612ade60019361248c565b90612a7f565b3d9150612abe565b612af6828a6123fb565b52612b0181896123fb565b50612a4e565b612b1c9192503d805f833e6119298183612292565b905f612a20565b612b389192503d805f833e610afb8183612292565b905f61256a565b91506020823d602011612b75575b81612b5a60209383612292565b8101031261022b575f612b6e6004936122b3565b9250612539565b3d9150612b4d565b612b869061308b565b506001600160a01b031691905081612b9f575b50505f90565b6040516370a0823160e01b81526001600160a01b03909116600482015290602090829060249082905afa5f9181612bdc575b506124895780612b99565b9091506020813d602011612c08575b81612bf860209383612292565b8101031261022b5751905f612bd1565b3d9150612beb565b51906001600160801b038216820361022b57565b809103906101e0821261022b57604051916101e08301908382106001600160401b03831117612262576020916040521261022b57604051602081018181106001600160401b0382111761226257604052815181528252612c8660208201612c10565b6020830152612c9760408201612c10565b6040830152612ca860608201612c10565b6060830152612cb960808201612c10565b6080830152612cca60a08201612c10565b60a083015260c081015164ffffffffff8116810361022b5760c083015260e081015161ffff8116810361022b57612d7c916101c09160e0850152612d1161010082016122b3565b610100850152612d2461012082016122b3565b610120850152612d3761014082016122b3565b610140850152612d4a61016082016122b3565b610160850152612d5d6101808201612c10565b610180850152612d706101a08201612c10565b6101a085015201612c10565b6101c082015290565b91908260c091031261022b5781519160208101519160408201519160608101519160a0608083015192015190565b5190811515820361022b57565b91908261014091031261022b57815191602081015191604082015191606081015191608082015191612df460a08201612db3565b91612e0160c08301612db3565b91612e0e60e08201612db3565b91612489610120612e226101008501612db3565b9301612db3565b60405163026b1d5f60e01b81526020816004817f00000000000000000000000000000000000000000000000000000000000000006001600160a01b03165afa9081156101ea575f91612f06575b506001600160a01b031690612e8b818361318a565b15612efe576040516335ea6a7560e01b81526001600160a01b039091166004820152906101e090829060249082905afa9081156101ea576001600160801b03916040915f91612edf575b5001511690600190565b612ef891506101e03d8111611a8e57611a7f8183612292565b5f612ed5565b50505f905f90565b90506020813d602011612f38575b81612f2160209383612292565b8101031261022b57612f32906122b3565b5f612e76565b3d9150612f14565b60405190612f4d82612276565b5f60e0838281528260208201528260408201528260608201528260808201528260a08201528260c08201520152565b612f859061308b565b50506001600160a01b03169081612b9f5750505f90565b60405163026b1d5f60e01b81526020816004817f00000000000000000000000000000000000000000000000000000000000000006001600160a01b03165afa9081156101ea575f91613051575b506001600160a01b031690612ffe818361318a565b15612efe576040516335ea6a7560e01b81526001600160a01b039091166004820152906101e090829060249082905afa9081156101ea576001600160801b03916080915f91612edf575001511690600190565b90506020813d602011613083575b8161306c60209383612292565b8101031261022b5761307d906122b3565b5f612fe9565b3d915061305f565b60405163e860accb60e01b815291906020836004817f00000000000000000000000000000000000000000000000000000000000000006001600160a01b03165afa9283156101ea575f9361314c575b506040516334924edb60e21b81526001600160a01b0391821660048201529260609184916024918391165afa91825f915f94613127575b5061312057505f915081908190565b9190600190565b909350613143915060603d60601161098c5761097b8183612292565b9390505f613111565b9092506020813d602011613182575b8161316860209383612292565b8101031261022b5761317b6060916122b3565b92906130da565b3d915061315b565b6040516334651b6f60e21b815291905f90839060049082906001600160a01b03165afa9182156101ea575f92613201575b505f5b82518110156131fa576001600160a01b036131d982856123fb565b51166001600160a01b038316146131f2576001016131be565b505050600190565b5050505f90565b6132169192503d805f833e610afb8183612292565b905f6131bb56fea264697066735822122037122bdf7080299dcdbd8c4c54a8139eafe9d4c4b57387a8ca9ec5636aa8f12d64736f6c634300081e0033",
  "devdoc": {
    "kind": "dev",
    "methods": {
      "getAllTokensInfoWithEMode(address)": {
        "params": {
          "user": "The address of the user"
        },
        "returns": {
          "tokens": "Array of TokenInfo structs",
          "userEModeCategory": "The user's current E-Mode category ID (0 = no E-Mode)"
        }
      },
      "getEModes()": {
        "details": "Note: Base doesn't support the UiPoolDataProvider's getEModes, so we return empty for now",
        "returns": {
          "emodes": "Array of E-Mode categories with their configurations"
        }
      },
      "getReserveConfig(address)": {
        "params": {
          "token": "The token address"
        },
        "returns": {
          "config": "The reserve configuration data"
        }
      },
      "getReserveConfigs(address[])": {
        "details": "Returns price, LTV, liquidation threshold, and other config for each token",
        "params": {
          "tokens": "Array of token addresses to get config for"
        },
        "returns": {
          "configs": "Array of reserve configuration data"
        }
      },
      "getUserAccountData(address)": {
        "params": {
          "user": "The user address"
        },
        "returns": {
          "availableBorrowsBase": "Available borrows in base currency",
          "currentLiquidationThreshold": "Current liquidation threshold (bps)",
          "healthFactor": "Health factor (1e18 scale)",
          "ltv": "Current LTV (bps)",
          "totalCollateralBase": "Total collateral in base currency",
          "totalDebtBase": "Total debt in base currency"
        }
      },
      "getUserEMode(address)": {
        "params": {
          "user": "The address of the user"
        },
        "returns": {
          "categoryId": "The E-Mode category ID (0 = no E-Mode)"
        }
      }
    },
    "title": "AaveGatewayViewBase",
    "version": 1
  },
  "userdoc": {
    "kind": "user",
    "methods": {
      "getAllTokensInfo(address)": {
        "notice": "Returns all token info for a given user."
      },
      "getAllTokensInfoWithEMode(address)": {
        "notice": "Returns all token info for a user along with their E-Mode category"
      },
      "getEModes()": {
        "notice": "Returns all available E-Mode categories"
      },
      "getLtv(address,address)": {
        "notice": "Returns the configured maximum LTV for the user in basis points."
      },
      "getMaxLtv(address,address)": {
        "notice": "Returns the liquidation threshold (LLTV) for a given user in basis points."
      },
      "getReserveConfig(address)": {
        "notice": "Get reserve config for a single token"
      },
      "getReserveConfigs(address[])": {
        "notice": "Get reserve configuration data for multiple tokens (for frontend LTV calculations)"
      },
      "getUserAccountData(address)": {
        "notice": "Returns full user account data from Aave"
      },
      "getUserEMode(address)": {
        "notice": "Returns the user's current E-Mode category ID"
      }
    },
    "notice": "View-only gateway for Aave v3 protocol on Base. Avoids UiPoolDataProvider struct differences         by reading directly from Pool, DataProvider and Oracle. Constructor signature matches the         generic view so deploy scripts can deploy this under the same name.",
    "version": 1
  },
  "storageLayout": {
    "storage": [],
    "types": null
  }
}