{
  "address": "0x8cd08b0E3953B32C15a12A4aE6eF95a8D0914013",
  "abi": [
    {
      "inputs": [
        {
          "internalType": "address",
          "name": "owner_",
          "type": "address"
        }
      ],
      "stateMutability": "nonpayable",
      "type": "constructor"
    },
    {
      "inputs": [
        {
          "internalType": "address",
          "name": "owner",
          "type": "address"
        }
      ],
      "name": "OwnableInvalidOwner",
      "type": "error"
    },
    {
      "inputs": [
        {
          "internalType": "address",
          "name": "account",
          "type": "address"
        }
      ],
      "name": "OwnableUnauthorizedAccount",
      "type": "error"
    },
    {
      "anonymous": false,
      "inputs": [
        {
          "indexed": true,
          "internalType": "address",
          "name": "baseToken",
          "type": "address"
        },
        {
          "indexed": true,
          "internalType": "address",
          "name": "comet",
          "type": "address"
        }
      ],
      "name": "CometRegistered",
      "type": "event"
    },
    {
      "anonymous": false,
      "inputs": [
        {
          "indexed": true,
          "internalType": "address",
          "name": "baseToken",
          "type": "address"
        },
        {
          "indexed": true,
          "internalType": "address",
          "name": "oldComet",
          "type": "address"
        },
        {
          "indexed": true,
          "internalType": "address",
          "name": "newComet",
          "type": "address"
        }
      ],
      "name": "CometReplaced",
      "type": "event"
    },
    {
      "anonymous": false,
      "inputs": [
        {
          "indexed": true,
          "internalType": "address",
          "name": "previousOwner",
          "type": "address"
        },
        {
          "indexed": true,
          "internalType": "address",
          "name": "newOwner",
          "type": "address"
        }
      ],
      "name": "OwnershipTransferred",
      "type": "event"
    },
    {
      "anonymous": false,
      "inputs": [
        {
          "indexed": true,
          "internalType": "address",
          "name": "oldGateway",
          "type": "address"
        },
        {
          "indexed": true,
          "internalType": "address",
          "name": "newGateway",
          "type": "address"
        }
      ],
      "name": "WriteGatewayUpdated",
      "type": "event"
    },
    {
      "inputs": [
        {
          "internalType": "contract ICompoundComet",
          "name": "comet",
          "type": "address"
        }
      ],
      "name": "addComet",
      "outputs": [],
      "stateMutability": "nonpayable",
      "type": "function"
    },
    {
      "inputs": [],
      "name": "allActiveBaseTokens",
      "outputs": [
        {
          "internalType": "address[]",
          "name": "bases",
          "type": "address[]"
        }
      ],
      "stateMutability": "view",
      "type": "function"
    },
    {
      "inputs": [],
      "name": "allActiveComets",
      "outputs": [
        {
          "internalType": "address[]",
          "name": "comets",
          "type": "address[]"
        }
      ],
      "stateMutability": "view",
      "type": "function"
    },
    {
      "inputs": [],
      "name": "allBaseTokens",
      "outputs": [
        {
          "internalType": "address[]",
          "name": "",
          "type": "address[]"
        }
      ],
      "stateMutability": "view",
      "type": "function"
    },
    {
      "inputs": [],
      "name": "allComets",
      "outputs": [
        {
          "internalType": "address[]",
          "name": "",
          "type": "address[]"
        }
      ],
      "stateMutability": "view",
      "type": "function"
    },
    {
      "inputs": [
        {
          "internalType": "address",
          "name": "token",
          "type": "address"
        },
        {
          "internalType": "address",
          "name": "user",
          "type": "address"
        }
      ],
      "name": "getBalance",
      "outputs": [
        {
          "internalType": "uint256",
          "name": "",
          "type": "uint256"
        }
      ],
      "stateMutability": "view",
      "type": "function"
    },
    {
      "inputs": [
        {
          "internalType": "contract ICompoundComet",
          "name": "comet",
          "type": "address"
        }
      ],
      "name": "getBaseToken",
      "outputs": [
        {
          "internalType": "address",
          "name": "",
          "type": "address"
        }
      ],
      "stateMutability": "view",
      "type": "function"
    },
    {
      "inputs": [
        {
          "internalType": "address",
          "name": "market",
          "type": "address"
        }
      ],
      "name": "getBaseTokenInfo",
      "outputs": [
        {
          "internalType": "address",
          "name": "baseToken",
          "type": "address"
        },
        {
          "internalType": "uint256",
          "name": "price",
          "type": "uint256"
        },
        {
          "internalType": "uint8",
          "name": "decimals",
          "type": "uint8"
        },
        {
          "internalType": "uint256",
          "name": "priceScale",
          "type": "uint256"
        }
      ],
      "stateMutability": "view",
      "type": "function"
    },
    {
      "inputs": [
        {
          "internalType": "address",
          "name": "token",
          "type": "address"
        },
        {
          "internalType": "address",
          "name": "user",
          "type": "address"
        }
      ],
      "name": "getBorrowBalance",
      "outputs": [
        {
          "internalType": "uint256",
          "name": "",
          "type": "uint256"
        }
      ],
      "stateMutability": "view",
      "type": "function"
    },
    {
      "inputs": [
        {
          "internalType": "address",
          "name": "token",
          "type": "address"
        },
        {
          "internalType": "address",
          "name": "user",
          "type": "address"
        }
      ],
      "name": "getBorrowBalanceCurrent",
      "outputs": [
        {
          "internalType": "uint256",
          "name": "",
          "type": "uint256"
        }
      ],
      "stateMutability": "view",
      "type": "function"
    },
    {
      "inputs": [
        {
          "internalType": "address",
          "name": "token",
          "type": "address"
        }
      ],
      "name": "getBorrowRate",
      "outputs": [
        {
          "internalType": "uint256",
          "name": "borrowRate",
          "type": "uint256"
        },
        {
          "internalType": "bool",
          "name": "success",
          "type": "bool"
        }
      ],
      "stateMutability": "view",
      "type": "function"
    },
    {
      "inputs": [
        {
          "internalType": "address",
          "name": "market",
          "type": "address"
        }
      ],
      "name": "getCollateralFactors",
      "outputs": [
        {
          "internalType": "address[]",
          "name": "assets",
          "type": "address[]"
        },
        {
          "internalType": "uint256[]",
          "name": "ltvBps",
          "type": "uint256[]"
        },
        {
          "internalType": "uint256[]",
          "name": "lltvBps",
          "type": "uint256[]"
        }
      ],
      "stateMutability": "view",
      "type": "function"
    },
    {
      "inputs": [
        {
          "internalType": "address",
          "name": "market",
          "type": "address"
        },
        {
          "internalType": "address",
          "name": "asset",
          "type": "address"
        }
      ],
      "name": "getCollateralPrice",
      "outputs": [
        {
          "internalType": "uint256",
          "name": "",
          "type": "uint256"
        }
      ],
      "stateMutability": "view",
      "type": "function"
    },
    {
      "inputs": [
        {
          "internalType": "address",
          "name": "baseToken",
          "type": "address"
        }
      ],
      "name": "getComet",
      "outputs": [
        {
          "internalType": "contract ICompoundComet",
          "name": "",
          "type": "address"
        }
      ],
      "stateMutability": "view",
      "type": "function"
    },
    {
      "inputs": [
        {
          "internalType": "address",
          "name": "token",
          "type": "address"
        },
        {
          "internalType": "address",
          "name": "account",
          "type": "address"
        }
      ],
      "name": "getCompoundData",
      "outputs": [
        {
          "internalType": "uint256",
          "name": "supplyRate",
          "type": "uint256"
        },
        {
          "internalType": "uint256",
          "name": "borrowRate",
          "type": "uint256"
        },
        {
          "internalType": "uint256",
          "name": "balance",
          "type": "uint256"
        },
        {
          "internalType": "uint256",
          "name": "borrowBalance",
          "type": "uint256"
        },
        {
          "internalType": "uint256",
          "name": "price",
          "type": "uint256"
        },
        {
          "internalType": "uint256",
          "name": "priceScale",
          "type": "uint256"
        }
      ],
      "stateMutability": "view",
      "type": "function"
    },
    {
      "inputs": [
        {
          "internalType": "address",
          "name": "token",
          "type": "address"
        },
        {
          "internalType": "address",
          "name": "user",
          "type": "address"
        }
      ],
      "name": "getCurrentLtvBps",
      "outputs": [
        {
          "internalType": "uint256",
          "name": "",
          "type": "uint256"
        }
      ],
      "stateMutability": "view",
      "type": "function"
    },
    {
      "inputs": [
        {
          "internalType": "address",
          "name": "token",
          "type": "address"
        },
        {
          "internalType": "address",
          "name": "account",
          "type": "address"
        }
      ],
      "name": "getDepositedCollaterals",
      "outputs": [
        {
          "internalType": "address[]",
          "name": "collaterals",
          "type": "address[]"
        },
        {
          "internalType": "uint128[]",
          "name": "balances",
          "type": "uint128[]"
        },
        {
          "internalType": "string[]",
          "name": "displayNames",
          "type": "string[]"
        }
      ],
      "stateMutability": "view",
      "type": "function"
    },
    {
      "inputs": [
        {
          "internalType": "address",
          "name": "token",
          "type": "address"
        },
        {
          "internalType": "address",
          "name": "user",
          "type": "address"
        }
      ],
      "name": "getLiquidationLtvBps",
      "outputs": [
        {
          "internalType": "uint256",
          "name": "",
          "type": "uint256"
        }
      ],
      "stateMutability": "view",
      "type": "function"
    },
    {
      "inputs": [
        {
          "internalType": "address",
          "name": "token",
          "type": "address"
        },
        {
          "internalType": "address",
          "name": "user",
          "type": "address"
        }
      ],
      "name": "getLtv",
      "outputs": [
        {
          "internalType": "uint256",
          "name": "",
          "type": "uint256"
        }
      ],
      "stateMutability": "view",
      "type": "function"
    },
    {
      "inputs": [
        {
          "internalType": "address",
          "name": "token",
          "type": "address"
        },
        {
          "internalType": "address",
          "name": "user",
          "type": "address"
        }
      ],
      "name": "getMaxLtv",
      "outputs": [
        {
          "internalType": "uint256",
          "name": "",
          "type": "uint256"
        }
      ],
      "stateMutability": "view",
      "type": "function"
    },
    {
      "inputs": [
        {
          "internalType": "address",
          "name": "market",
          "type": "address"
        },
        {
          "internalType": "address",
          "name": "user",
          "type": "address"
        }
      ],
      "name": "getPositionValue",
      "outputs": [
        {
          "internalType": "uint256",
          "name": "collateralValueUsd",
          "type": "uint256"
        },
        {
          "internalType": "uint256",
          "name": "debtValueUsd",
          "type": "uint256"
        }
      ],
      "stateMutability": "view",
      "type": "function"
    },
    {
      "inputs": [
        {
          "internalType": "address",
          "name": "token",
          "type": "address"
        },
        {
          "internalType": "address",
          "name": "user",
          "type": "address"
        }
      ],
      "name": "getPossibleCollaterals",
      "outputs": [
        {
          "internalType": "address[]",
          "name": "collateralAddresses",
          "type": "address[]"
        },
        {
          "internalType": "uint256[]",
          "name": "balances",
          "type": "uint256[]"
        },
        {
          "internalType": "string[]",
          "name": "symbols",
          "type": "string[]"
        },
        {
          "internalType": "uint8[]",
          "name": "decimals",
          "type": "uint8[]"
        }
      ],
      "stateMutability": "view",
      "type": "function"
    },
    {
      "inputs": [
        {
          "internalType": "address",
          "name": "token",
          "type": "address"
        }
      ],
      "name": "getPrice",
      "outputs": [
        {
          "internalType": "uint256",
          "name": "",
          "type": "uint256"
        }
      ],
      "stateMutability": "view",
      "type": "function"
    },
    {
      "inputs": [
        {
          "internalType": "address",
          "name": "market",
          "type": "address"
        },
        {
          "internalType": "address[]",
          "name": "tokens",
          "type": "address[]"
        }
      ],
      "name": "getPrices",
      "outputs": [
        {
          "internalType": "uint256[]",
          "name": "",
          "type": "uint256[]"
        }
      ],
      "stateMutability": "view",
      "type": "function"
    },
    {
      "inputs": [
        {
          "internalType": "address",
          "name": "market",
          "type": "address"
        }
      ],
      "name": "getReserveConfigs",
      "outputs": [
        {
          "components": [
            {
              "internalType": "address",
              "name": "token",
              "type": "address"
            },
            {
              "internalType": "uint256",
              "name": "price",
              "type": "uint256"
            },
            {
              "internalType": "uint256",
              "name": "ltv",
              "type": "uint256"
            },
            {
              "internalType": "uint256",
              "name": "liquidationThreshold",
              "type": "uint256"
            },
            {
              "internalType": "uint8",
              "name": "decimals",
              "type": "uint8"
            },
            {
              "internalType": "uint64",
              "name": "scale",
              "type": "uint64"
            }
          ],
          "internalType": "struct CompoundGatewayView.ReserveConfigData[]",
          "name": "configs",
          "type": "tuple[]"
        }
      ],
      "stateMutability": "view",
      "type": "function"
    },
    {
      "inputs": [
        {
          "internalType": "address",
          "name": "token",
          "type": "address"
        }
      ],
      "name": "getSupplyRate",
      "outputs": [
        {
          "internalType": "uint256",
          "name": "supplyRate",
          "type": "uint256"
        },
        {
          "internalType": "bool",
          "name": "success",
          "type": "bool"
        }
      ],
      "stateMutability": "view",
      "type": "function"
    },
    {
      "inputs": [
        {
          "internalType": "address",
          "name": "market",
          "type": "address"
        }
      ],
      "name": "getSupportedCollaterals",
      "outputs": [
        {
          "internalType": "address[]",
          "name": "collateralAddresses",
          "type": "address[]"
        }
      ],
      "stateMutability": "view",
      "type": "function"
    },
    {
      "inputs": [
        {
          "internalType": "address",
          "name": "market",
          "type": "address"
        },
        {
          "internalType": "address",
          "name": "collateral",
          "type": "address"
        }
      ],
      "name": "isCollateralSupported",
      "outputs": [
        {
          "internalType": "bool",
          "name": "isSupported",
          "type": "bool"
        }
      ],
      "stateMutability": "view",
      "type": "function"
    },
    {
      "inputs": [
        {
          "internalType": "address",
          "name": "token",
          "type": "address"
        },
        {
          "internalType": "contract AggregatorV3Interface",
          "name": "feed",
          "type": "address"
        }
      ],
      "name": "overrideFeed",
      "outputs": [],
      "stateMutability": "nonpayable",
      "type": "function"
    },
    {
      "inputs": [
        {
          "internalType": "address",
          "name": "",
          "type": "address"
        }
      ],
      "name": "overrideFeeds",
      "outputs": [
        {
          "internalType": "contract AggregatorV3Interface",
          "name": "",
          "type": "address"
        }
      ],
      "stateMutability": "view",
      "type": "function"
    },
    {
      "inputs": [],
      "name": "owner",
      "outputs": [
        {
          "internalType": "address",
          "name": "",
          "type": "address"
        }
      ],
      "stateMutability": "view",
      "type": "function"
    },
    {
      "inputs": [],
      "name": "renounceOwnership",
      "outputs": [],
      "stateMutability": "nonpayable",
      "type": "function"
    },
    {
      "inputs": [
        {
          "internalType": "address",
          "name": "baseToken",
          "type": "address"
        },
        {
          "internalType": "address",
          "name": "comet_",
          "type": "address"
        }
      ],
      "name": "setCometForBase",
      "outputs": [],
      "stateMutability": "nonpayable",
      "type": "function"
    },
    {
      "inputs": [
        {
          "internalType": "address",
          "name": "writeGateway_",
          "type": "address"
        }
      ],
      "name": "setWriteGateway",
      "outputs": [],
      "stateMutability": "nonpayable",
      "type": "function"
    },
    {
      "inputs": [],
      "name": "syncAllCometsFromWriteGateway",
      "outputs": [],
      "stateMutability": "nonpayable",
      "type": "function"
    },
    {
      "inputs": [
        {
          "internalType": "address",
          "name": "baseToken",
          "type": "address"
        }
      ],
      "name": "syncCometFromWriteGateway",
      "outputs": [],
      "stateMutability": "nonpayable",
      "type": "function"
    },
    {
      "inputs": [
        {
          "internalType": "address",
          "name": "",
          "type": "address"
        }
      ],
      "name": "tokenToComet",
      "outputs": [
        {
          "internalType": "contract ICompoundComet",
          "name": "",
          "type": "address"
        }
      ],
      "stateMutability": "view",
      "type": "function"
    },
    {
      "inputs": [
        {
          "internalType": "address",
          "name": "newOwner",
          "type": "address"
        }
      ],
      "name": "transferOwnership",
      "outputs": [],
      "stateMutability": "nonpayable",
      "type": "function"
    },
    {
      "inputs": [],
      "name": "writeGateway",
      "outputs": [
        {
          "internalType": "address",
          "name": "",
          "type": "address"
        }
      ],
      "stateMutability": "view",
      "type": "function"
    }
  ],
  "transactionHash": "0xe58eaccf8bded886ef453364d2d2870976adaa8a781c6e31ece4fc7cd85427fd",
  "args": [
    "0x0BE61223F99E57b8b8B7033a77B54Adc7f7cF027"
  ],
  "numDeployments": 27,
  "solcInputHash": "3e70f18718569e1be5bad5e142daec94",
  "bytecode": "0x60803460b857601f61374138819003918201601f19168301916001600160401b0383118484101760bc5780849260209460405283398101031260b857516001600160a01b0381169081900360b857801560a5575f80546001600160a01b031981168317825560405192916001600160a01b03909116907f8be0079c531659141344cd1fd0a4f28419497f9722a3daafe3b4186f6b6457e09080a361367090816100d18239f35b631e4fbdf760e01b5f525f60045260245ffd5b5f80fd5b634e487b7160e01b5f52604160045260245ffdfe60806040526004361015610011575f80fd5b5f3560e01c80630c10fd0f1461027a5780630d1fe08814610275578063104e999d14610270578063118e31b7146101e457806324bddcfd1461026b57806326e46ed3146102665780632a8e3a49146102615780633613d5271461025c5780633b9025c51461025757806341976e09146102525780636072aa071461024d57806362fd6add1461021657806366e2d09b1461024857806369e65e49146102435780636b5441a91461023e578063715018a614610239578063755f62ce1461023457806377b57b071461022f578063784661131461022a5780638ca28635146102255780638da5cb5b1461022057806391aa9c6f1461021b578063951afe90146102165780639f2204e814610211578063b4bae5e11461020c578063b65b4e1814610207578063be305bf814610202578063c9475cd7146101fd578063cc2255aa146101f8578063d4fac45d146101f3578063d5316477146101ee578063d71275f6146101e9578063e94201c7146101e4578063e9db3c9f146101df578063ef36fa93146101da578063f2dbd070146101d5578063f2f1be1e146101d0578063f2fde38b146101cb5763f5125d3f146101c6575f80fd5b611f6b565b611ef5565b611eb2565b611e99565b611d36565b611a9d565b6106c2565b6119d1565b611944565b6118c0565b6117ad565b6116f5565b6116da565b61147e565b611269565b611167565b610a87565b610fb1565b610f8a565b610f1d565b610efa565b610ce7565b610ccc565b610c88565b610b67565b610aed565b610ab1565b610a4d565b610a26565b610a05565b61098d565b610834565b6107f0565b610753565b6104ea565b610346565b6102b3565b6001600160a01b031690565b6001600160a01b0381160361029c57565b5f80fd5b6001600160a01b03909116815260200190565b3461029c57602036600319011261029c576004602081356102d38161028b565b60405163c55dae6360e01b815292839182906001600160a01b03165afa80156103415761030e915f91610312575b50604051918291826102a0565b0390f35b610334915060203d60201161033a575b61032c8183611fb9565b810190611fe9565b5f610301565b503d610322565b611ffe565b3461029c575f36600319011261029c576005546040516001600160a01b039091168152602090f35b604090600319011261029c576004356103868161028b565b906024356103938161028b565b90565b90602080835192838152019201905f5b8181106103b35750505090565b82516001600160a01b03168452602093840193909201916001016103a6565b90602080835192838152019201905f5b8181106103ef5750505090565b82518452602093840193909201916001016103e2565b9080602083519182815201916020808360051b8301019401925f915b83831061043057505050505090565b909192939460208080600193601f19868203018752818a518051918291828552018484015e5f828201840152601f01601f191601019701959491909101920190610421565b92906104ac9261049061049e92608087526080870190610396565b9085820360208701526103d2565b908382036040850152610405565b906060818303910152602080835192838152019201905f5b8181106104d15750505090565b825160ff168452602093840193909201916001016104c4565b3461029c576105016104fb3661036e565b90612c15565b905f915f5b82518110156105595761053861052c61051f838661201d565b516001600160801b031690565b6001600160801b031690565b610545575b600101610506565b9261055160019161204a565b93905061053d565b50926105648361209e565b9261056e8161209e565b9461058161057b836120d0565b9261209e565b955f945f5b81518110156106b15761059f61052c61051f838561201d565b6105ac575b600101610586565b956105d96105ca6105bd898961201d565b516001600160a01b031690565b6105d4838b61201d565b612119565b6105e961052c61051f898561201d565b6105f3828561201d565b526105fe878561201d565b51610609828761201d565b52610614818661201d565b506004602061063161062c61062c6105bd8c8c61201d565b61027f565b60405163313ce56760e01b815292839182905afa918215610341576106728b60019483610677955f9261067f575b5061066a919261201d565b9060ff169052565b61204a565b9690506105a4565b61066a92506106a49060203d81116106aa575b61069c8183611fb9565b810190612136565b9161065f565b503d610692565b6040518061030e8b88878d85610475565b3461029c5760206106d23661036e565b91906001600160a01b03906106e69061264d565b604051630dd3126d60e21b81526001600160a01b03909416600485015283916024918391165afa8015610341576020915f91610726575b50604051908152f35b6107469150823d841161074c575b61073e8183611fb9565b81019061214a565b5f61071d565b503d610734565b3461029c57604036600319011261029c576107a36004356107738161028b565b602435906107808261028b565b6107886133a2565b6001600160a01b03165f908152600260205260409020612159565b005b6001600160a01b03165f90815260016020526040902090565b6001600160a01b03165f90815260046020526040902090565b6001600160a01b03165f90815260026020526040902090565b3461029c57602036600319011261029c5760043561080d8161028b565b6001600160a01b039081165f90815260016020908152604091829020549151919092168152f35b3461029c57602036600319011261029c576004356108518161028b565b6108596133a2565b60405163c55dae6360e01b81526001600160a01b0382169190602081600481865afa908115610341575f9161095d575b506001600160a01b038116916108ce906108a4841515612178565b6108c96108c361062c6108b6866107a5565b546001600160a01b031690565b936107a5565b612159565b6108e86108e46108dd856107be565b5460ff1690565b1590565b610936575b82825f5160206135db5f395f51905f525f80a36001600160a01b0316908115158061092c575b61091957005b5f5160206135fb5f395f51905f525f80a4005b5082821415610913565b61094f610942846107be565b805460ff19166001179055565b610958836121cf565b6108ed565b610976915060203d60201161033a5761032c8183611fb9565b5f610889565b9060206103939281815201906103d2565b3461029c57604036600319011261029c576004356109aa8161028b565b6024356001600160401b03811161029c573660238201121561029c5760048101356001600160401b03811161029c573660248260051b8401011161029c5761030e9260246109f9930190612234565b6040519182918261097c565b3461029c576020610a1e610a183661036e565b90612302565b604051908152f35b3461029c57602036600319011261029c576020610a1e600435610a488161028b565b612501565b3461029c57602036600319011261029c57610a72600435610a6d8161028b565b61264d565b6040516001600160a01b039091168152602090f35b3461029c576020610a1e610a9a3661036e565b90612737565b906020610393928181520190610396565b3461029c57602036600319011261029c5761030e610ad9600435610ad48161028b565b612a28565b604051918291602083526020830190610396565b3461029c57610afe6104fb3661036e565b610b1660409392935192606084526060840190610396565b8281036020840152602080855192838152019401905f5b818110610b4857848061030e88878382036040850152610405565b82516001600160801b0316865260209586019590920191600101610b2d565b3461029c57602036600319011261029c57600435610b848161028b565b6001600160a01b038082165f9081526001602052604081205490928392909116610bbb575b50604080519182529115156020820152f35b610bca925061062c915061264d565b604051637eb7113160e01b8152602081600481855afa801561034157610c15926020925f92610c69575b50604051808095819463d955759d60e01b8352600483019190602083019252565b03915afa908115610341575f91610c3a575b506001906001600160401b03165f610ba9565b610c5c915060203d602011610c62575b610c548183611fb9565b810190612e1a565b5f610c27565b503d610c4a565b610c81919250833d851161074c5761073e8183611fb9565b905f610bf4565b3461029c575f36600319011261029c57610ca06133a2565b5f80546001600160a01b0319811682556001600160a01b03165f51602061361b5f395f51905f528280a3005b3461029c575f36600319011261029c5761030e610ad9612e2e565b3461029c57610cf53661036e565b610cff5f9261264d565b90610d396020610d0f83856133c8565b50604051630dd3126d60e21b815290946001600160a01b03169390928391829190600483016102a0565b0381855afa908115610341575f91610edb575b5080610d66575b5050604080519182526020820192909252f35b60405163c55dae6360e01b8152929350909190602082600481865afa918215610341575f92610eba575b5060405163e7dad6bd60e01b8152602081600481875afa801561034157610dd7946020925f92610e9b575b5060405180809781946341976e0960e01b8352600483016102a0565b03915afa918215610341576004935f93610e69575b5060405163313ce56760e01b81529360209185919082906001600160a01b03165afa90811561034157610e2d610e3d92610e42955f91610e4a575b506122a8565b926001600160801b0316906122d1565b6122e4565b905f80610d53565b610e63915060203d6020116106aa5761069c8183611fb9565b5f610e27565b6020919350610e8d90823d8411610e94575b610e858183611fb9565b810190612294565b9290610dec565b503d610e7b565b610eb3919250833d851161033a5761032c8183611fb9565b905f610dbb565b610ed491925060203d60201161033a5761032c8183611fb9565b905f610d90565b610ef4915060203d60201161074c5761073e8183611fb9565b5f610d4c565b3461029c576020610f13610f0d3661036e565b90612e7f565b6040519015158152f35b3461029c57602036600319011261029c57600435610f3a8161028b565b610f426133a2565b600580546001600160a01b039283166001600160a01b0319821681179092559091167f864aa5b65d00254be4a57e93185f66797e0b72b1d648eb9a569ea297fbd259375f80a3005b3461029c575f36600319011261029c575f546040516001600160a01b039091168152602090f35b3461029c575f36600319011261029c57610fc96133a2565b60045f610ff161062c610fdd60055461027f565b61062c6001600160a01b0382161515612fa5565b604051633aafb16760e11b815292839182905afa908115610341575f91611145575b505f5b81518110156107a35761102f61062c6105bd838561201d565b60405163c55dae6360e01b815291906001600160a01b03811690602084600481855afa8015610341576001945f91611127575b5082858060a01b0361107961062c6108b6856107a5565b1603611089575b50505001611016565b6110a561109b61062c6108b6846107a5565b926108c9836107a5565b6110b46108e46108dd856107be565b61110d575b848060a01b03169082825f5160206135db5f395f51905f525f80a3848060a01b03169081151580611103575b15611080575f5160206135fb5f395f51905f525f80a45f8080611080565b50828214156110e5565b611119610942846107be565b611122836121cf565b6110b9565b61113f915060203d811161033a5761032c8183611fb9565b5f611062565b61116191503d805f833e6111598183611fb9565b810190612ff1565b5f611013565b3461029c576108c96111783661036e565b906111816133a2565b6001600160a01b0381169182151580611220575b61119e90613074565b6111c56111b061062c6108b6856107a5565b6001600160a01b0383169590938691906107a5565b6111d46108e46108dd836107be565b611205575b5082825f5160206135db5f395f51905f525f80a36001600160a01b0316908115158061092c5761091957005b8061121561094261121a936107be565b6121cf565b5f6111d9565b506001600160a01b0381161515611195565b9161125b9061124d6103939593606086526060860190610396565b9084820360208601526103d2565b9160408184039101526103d2565b3461029c57602036600319011261029c5761128c61062c600435610a6d8161028b565b60405163a46fe83b60e01b8152602081600481855afa80156103415760ff915f916113ce575b50166112bd8161209e565b906112c78161209e565b916112d18261209e565b905f5b60ff811690848210156113be5760405163c8c7fe6b60e01b815260ff8216600482015290610100826024818b5afa9283156103415761138561137e61136861136361135e60a060ff998e60019a5f9261138d575b506113448d6105d48b61133e602087015161027f565b9261201d565b6113768961133e61136861136361135e60808801516113ed565b6113ed565b6122b9565b670de0b6b3a7640000900490565b5201516113ed565b918761201d565b5201166112d4565b6113b09192506101003d81116113b7575b6113a88183611fb9565b81019061298b565b905f611328565b503d61139e565b6040518061030e86898784611232565b6113e7915060203d6020116106aa5761069c8183611fb9565b5f6112b2565b6001600160401b031690565b60206040818301928281528451809452019201905f5b81811061141c5750505090565b825180516001600160a01b0316855260208181015181870152604080830151908701526060808301519087015260808083015160ff169087015260a0918201516001600160401b03169186019190915260c0909401939092019160010161140f565b3461029c57602036600319011261029c576114a161062c600435610a6d8161028b565b60405163a46fe83b60e01b8152602081600481855afa80156103415760ff915f916116bb575b50166114d2816130b1565b5f5b60ff811690838210156116ad5760405163c8c7fe6b60e01b815260ff821660048201529061010082602481895afa918215610341575f9261168a575b5081926020611525604061153f95015161027f565b604051809581926341976e0960e01b8352600483016102a0565b03818a5afa9081156103415760ff9461162961163a936001965f9161166c575b506116196012602085016004602061157d61062c61062c855161027f565b60405163313ce56760e01b815292839182905afa5f918161164c575b50611642575b506115aa905161027f565b946115c161136861136361135e60808501516113ed565b6115e460606115dc61136861136361135e60a08801516113ed565b9301516113ed565b946115f76115f061205d565b9889612119565b8b8060801b0316602088015260408701526060860152608085019060ff169052565b6001600160401b031660a0830152565b611633828861201d565b528561201d565b5001166114d4565b91506115aa61159f565b61166591925060203d81116106aa5761069c8183611fb9565b905f611599565b611684915060203d8111610e9457610e858183611fb9565b5f61155f565b61153f92506116a7906101003d81116113b7576113a88183611fb9565b91611510565b6040518061030e85826113f9565b6116d4915060203d6020116106aa5761069c8183611fb9565b5f6114c7565b3461029c575f36600319011261029c5761030e610ad9613142565b3461029c575f36600319011261029c576003546117118161209e565b905f5b818110611729576040518061030e8582610aa0565b80602061175561062c61062c6117406004966121b7565b905460039190911b1c6001600160a01b031690565b60405163c55dae6360e01b815293849182905afa91821561034157600192611789915f9161178f575b506105d4838761201d565b01611714565b6117a7915060203d811161033a5761032c8183611fb9565b5f61177e565b3461029c57602036600319011261029c576004356117ca8161028b565b6117d26133a2565b6117e361062c610fdd60055461027f565b602060405180926326e46ed360e01b8252818061180387600483016102a0565b03915afa908115610341575f916118a1575b506001600160a01b0381169161182c8315156132a4565b61183e61109b61062c6108b6846107a5565b61184d6108e46108dd856107be565b611887575b6001600160a01b03169082825f5160206135db5f395f51905f525f80a36001600160a01b0316908115158061092c5761091957005b611893610942846107be565b61189c836121cf565b611852565b6118ba915060203d60201161033a5761032c8183611fb9565b5f611815565b3461029c5760206118d03661036e565b91906001600160a01b03906118e49061264d565b6040516370a0823160e01b81526001600160a01b03909416600485015283916024918391165afa908115610341575f91611925575b50604051908152602090f35b61193e915060203d60201161074c5761073e8183611fb9565b5f611919565b3461029c575f36600319011261029c5761195c613142565b611966815161209e565b905f5b81518110156119c35780602061198a61062c61062c6105bd6004968861201d565b60405163c55dae6360e01b815293849182905afa918215610341576001926119bd915f9161178f57506105d4838761201d565b01611969565b6040518061030e8582610aa0565b3461029c57602036600319011261029c576004356119ee8161028b565b6001600160a01b038082165f9081526001602052604081205490928392909116611a245750604080519182529115156020820152f35b611a33925061062c915061264d565b604051637eb7113160e01b8152602081600481855afa801561034157610c15926020925f92611a7e575b506040518080958194634fd41dad60e11b8352600483019190602083019252565b611a96919250833d851161074c5761073e8183611fb9565b905f611a5d565b3461029c57611aab3661036e565b611ab761062c8361264d565b604051637eb7113160e01b81529290602084600481845afa93841561034157611b04946020915f91611d19575b506040518096819263d955759d60e01b8352600483019190602083019252565b0381845afa938415610341575f94611cf8575b50604051637eb7113160e01b815290602082600481845afa91821561034157611b64926020915f91611cdb575b5060405180948192634fd41dad60e11b8352600483019190602083019252565b0381845afa918215610341575f92611cba575b506040516370a0823160e01b81529260208480611b9788600483016102a0565b0381855afa938415610341575f94611c96575b506020611bcc949560405180968192630dd3126d60e21b8352600483016102a0565b0381855afa908115610341576004945f92611c70575b50611bee602091612501565b926040519586809263a0fbddaf60e01b82525afa938415610341575f94611c4d575b50604080516001600160401b03978816815293871660208501528301949094526060820193909352608081019290925290911660a082015260c090f35b61030e9450611c6a9060203d602011610c6257610c548183611fb9565b93611c10565b6020919250611c8e611bee91833d851161074c5761073e8183611fb9565b929150611be2565b611bcc9450611cb3602091823d841161074c5761073e8183611fb9565b9450611baa565b611cd491925060203d602011610c6257610c548183611fb9565b905f611b77565b611cf29150823d841161074c5761073e8183611fb9565b5f611b44565b611d1291945060203d602011610c6257610c548183611fb9565b925f611b17565b611d309150823d841161074c5761073e8183611fb9565b5f611ae4565b3461029c57602036600319011261029c57600435611d538161028b565b611d5f61062c8261264d565b60405163c55dae6360e01b81529091602082600481865afa908115610341576004925f92611e73575b50611d94602091612501565b936040519384809263a0fbddaf60e01b82525afa918215610341575f92611e4e575b5060405163313ce56760e01b815261030e91906020816004816001600160a01b0386165afa5f9181611e2d575b50611e28575060125b604080516001600160a01b039093168352602083019590955260ff16938101939093526001600160401b03909116606083015281906080820190565b611dec565b611e4791925060203d6020116106aa5761069c8183611fb9565b905f611de3565b61030e919250611e6c9060203d602011610c6257610c548183611fb9565b9190611db6565b6020919250611e91611d9491833d851161033a5761032c8183611fb9565b929150611d88565b3461029c576020610a1e611eac3661036e565b906132fc565b3461029c57602036600319011261029c57600435611ecf8161028b565b60018060a01b03165f526002602052602060018060a01b0360405f205416604051908152f35b3461029c57602036600319011261029c57600435611f128161028b565b611f1a6133a2565b6001600160a01b03168015611f58575f80546001600160a01b03198116831782556001600160a01b0316905f51602061361b5f395f51905f529080a3005b631e4fbdf760e01b5f525f60045260245ffd5b3461029c576020610a1e611f7e3661036e565b9061336b565b634e487b7160e01b5f52604160045260245ffd5b61010081019081106001600160401b03821117611fb457604052565b611f84565b601f909101601f19168101906001600160401b03821190821017611fb457604052565b5190611fe78261028b565b565b9081602091031261029c57516103938161028b565b6040513d5f823e3d90fd5b634e487b7160e01b5f52603260045260245ffd5b80518210156120315760209160051b010190565b612009565b634e487b7160e01b5f52601160045260245ffd5b5f1981146120585760010190565b612036565b60405190611fe760c083611fb9565b6001600160401b038111611fb45760051b60200190565b60405190612092602083611fb9565b5f808352366020840137565b906120a88261206c565b6120b56040519182611fb9565b82815280926120c6601f199161206c565b0190602036910137565b906120da8261206c565b6120e76040519182611fb9565b82815280926120f8601f199161206c565b01905f5b82811061210857505050565b8060606020809385010152016120fc565b6001600160a01b039091169052565b519060ff8216820361029c57565b9081602091031261029c5761039390612128565b9081602091031261029c575190565b80546001600160a01b0319166001600160a01b03909216919091179055565b1561217f57565b60405162461bcd60e51b815260206004820152601060248201526f0436f6d706f756e643a20626173653d360841b6044820152606490fd5b6003548110156120315760035f5260205f2001905f90565b600354600160401b811015611fb457600181016003556003548110156120315760035f527fc2575a0e9e593c00f959f8c92f12db2869c3395a3b0502d05e2516446f71f85b0180546001600160a01b0319166001600160a01b03909216919091179055565b929061223f8361209e565b915f5b84811015612277576001906122668160051b8501356122608161028b565b886132fc565b612270828761201d565b5201612242565b50935050905090565b51906001600160801b038216820361029c57565b9081602091031261029c5761039390612280565b60ff16604d811161205857600a0a90565b90612710820291808304612710149015171561205857565b8181029291811591840414171561205857565b81156122ee570490565b634e487b7160e01b5f52601260045260245ffd5b61230b9061264d565b604051630dd3126d60e21b81526001600160a01b038216929091906020838061233784600483016102a0565b0381875afa928315610341575f9361249a575b5082156124925761235a916133c8565b5090811561248b5760405163c55dae6360e01b8152602081600481875afa908115610341575f9161246c575b5060405163e7dad6bd60e01b8152602081600481885afa8015610341576123cd956020925f9261244d575b5060405180809881946341976e0960e01b8352600483016102a0565b03915afa938415610341575f94612428575b5060405163313ce56760e01b815290602090829060049082906001600160a01b03165afa93841561034157610e3d610e3d93610e2d61039397611363955f91610e4a57506122a8565b6004919450612445602091823d8411610e9457610e858183611fb9565b9491506123df565b612465919250833d851161033a5761032c8183611fb9565b905f6123b1565b612485915060203d60201161033a5761032c8183611fb9565b5f612386565b5050505f90565b505050505f90565b6124b491935060203d60201161074c5761073e8183611fb9565b915f61234a565b51906001600160501b038216820361029c57565b908160a091031261029c576124e3816124bb565b916020820151916040810151916103936080606084015193016124bb565b6001600160a01b0361251861062c6108b6846107d7565b166125e45761062c6125299161264d565b60405163e7dad6bd60e01b815290602082600481845afa918215610341575f926125c3575b506001600160a01b0382166125635750505f90565b6125859160209160405180809581946341976e0960e01b8352600483016102a0565b03915afa908115610341575f916125a4575b506001600160801b031690565b6125bd915060203d602011610e9457610e858183611fb9565b5f612597565b6125dd91925060203d60201161033a5761032c8183611fb9565b905f61254e565b60a06125f761062c6108b66004946107d7565b604051633fabe5a360e21b815292839182905afa908115610341575f9161261c575090565b61263e915060a03d60a011612646575b6126368183611fb9565b8101906124cf565b505050905090565b503d61262c565b6126596108b6826107a5565b6001600160a01b038116612732575061267661062c60055461027f565b806126bd575b60405162461bcd60e51b815260206004820152601960248201527810dbdb5c1bdd5b990e8818dbdb595d081b9bdd08199bdd5b99603a1b6044820152606490fd5b6126e7916126cc60209261027f565b60405180809581946326e46ed360e01b8352600483016102a0565b03915afa5f9181612711575b506126ff575b8061267c565b6001600160a01b038116156126f95790565b61272b91925060203d60201161033a5761032c8183611fb9565b905f6126f3565b905090565b6127409061264d565b60405163a46fe83b60e01b81525f9283926001600160a01b03169190602082600481865afa918215610341575f92612956575b5091905f925b60ff821660ff8516106127b4575050505080156127ae57612710820291808304612710149015171561205857610393916122e4565b50505f90565b909192946040519463c8c7fe6b60e01b865261010086806127e08a6004830160ff909116815260200190565b0381885afa958615610341575f96612935575b506128206040612806602089015161027f565b815180938192632b92a07d60e01b83528860048401612b8a565b0381895afa908115610341575f91612906575b506001600160801b031680156128f7579061285791602061152560408a015161027f565b03818a5afa938415610341576128c56113686001946128bf61135e60a06128b78f6128b0906128aa61135e60ff9f60ff9f6128cb9e6060926115dc925f916128d9575b506001600160801b0316906122d1565b906122e4565b8095613135565b9e01516113ed565b906122d1565b90613135565b975b01169392919050612779565b6128f1915060203d8111610e9457610e858183611fb9565b5f61289a565b5094509460ff600181926128cd565b612927915060403d811161292e575b61291f8183611fb9565b810190612b69565b505f612833565b503d612915565b61294f9196506101003d81116113b7576113a88183611fb9565b945f6127f3565b61297091925060203d6020116106aa5761069c8183611fb9565b905f612773565b51906001600160401b038216820361029c57565b908161010091031261029c57612a2060e0604051926129a984611f98565b6129b281612128565b84526129c060208201611fdc565b60208501526129d160408201611fdc565b60408501526129e260608201612977565b60608501526129f360808201612977565b6080850152612a0460a08201612977565b60a0850152612a1560c08201612977565b60c085015201612280565b60e082015290565b6020612a489160405180938192636072aa0760e01b8352600483016102a0565b0381305afa5f9181612b48575b50612a635750610393612083565b60405163a46fe83b60e01b81526001600160a01b03919091169190602081600481865afa80156103415760ff915f91612b29575b501690612aa38261209e565b5f5b60ff81169084821015612b205760405163c8c7fe6b60e01b815260ff8216600482015290610100826024818a5afa80156103415760ff936105d461137e6020612afa946001975f91612b01575b50015161027f565b0116612aa5565b612b1a91506101003d81116113b7576113a88183611fb9565b5f612af2565b50509150915090565b612b42915060203d6020116106aa5761069c8183611fb9565b5f612a97565b612b6291925060203d60201161033a5761032c8183611fb9565b905f612a55565b919082604091031261029c576103936020612b8384612280565b9301612280565b6001600160a01b0391821681529116602082015260400190565b60208183031261029c578051906001600160401b03821161029c570181601f8201121561029c578051906001600160401b038211611fb45760405192612bf4601f8401601f191660200185611fb9565b8284526020838301011161029c57815f9260208093018386015e8301015290565b61062c612c249193929361264d565b9060405163a46fe83b60e01b8152602081600481865afa80156103415760ff915f91612dfb575b501690612c578261209e565b93612c61836120d0565b92612c6b8161209e565b945f90815b8360ff841610612c81575050505050565b60405163c8c7fe6b60e01b815260ff8416600482015261010081602481865afa90811561034157612cde916020915f91612ddc575b50016040612cc4825161027f565b815180948192632b92a07d60e01b83528b60048401612b8a565b0381875afa918215610341578b905f93612da4575b50612d1961062c61062c84612d135f956105d48a61133e60049a5161027f565b5161027f565b6040516395d89b4160e01b815292839182905afa92831561034157610672600193612d6a838e612d648f839060ff9b612d799a5f91612d82575b50612d5e838361201d565b5261201d565b5061201d565b6001600160801b039091169052565b93011691612c70565b612d9e91503d805f833e612d968183611fb9565b810190612ba4565b5f612d53565b5f91935061062c61062c600494612d13612dce612d199560403d811161292e5761291f8183611fb9565b509795505094505050612cf3565b612df591506101003d81116113b7576113a88183611fb9565b5f612cb6565b612e14915060203d6020116106aa5761069c8183611fb9565b5f612c4b565b9081602091031261029c5761039390612977565b60405190600354808352826020810160035f5260205f20925f5b818110612e5d575050611fe792500383611fb9565b84546001600160a01b0316835260019485019487945060209093019201612e48565b6020612ea29193929360405180938192636072aa0760e01b8352600483016102a0565b0381305afa5f9181612f84575b50612eba57505f9150565b60405163a46fe83b60e01b815292906001600160a01b0316602084600481845afa938415610341575f94612f63575b505f5b60ff851660ff821610612f0157505f93505050565b60405163c8c7fe6b60e01b815260ff8216600482015261010081602481865afa90811561034157612f3d916020915f91612b015750015161027f565b6001600160a01b03848116911614612f5a5760010160ff16612eec565b50600193505050565b612f7d91945060203d6020116106aa5761069c8183611fb9565b925f612ee9565b612f9e91925060203d60201161033a5761032c8183611fb9565b905f612eaf565b15612fac57565b60405162461bcd60e51b815260206004820152601f60248201527f436f6d706f756e643a2077726974652067617465776179206e6f7420736574006044820152606490fd5b60208183031261029c578051906001600160401b03821161029c57019080601f8301121561029c5781516130248161206c565b926130326040519485611fb9565b81845260208085019260051b82010192831161029c57602001905b82821061305a5750505090565b6020809183516130698161028b565b81520191019061304d565b1561307b57565b60405162461bcd60e51b815260206004820152600e60248201526d436f6d706f756e643a207a65726f60901b6044820152606490fd5b906130bb8261206c565b6130c86040519182611fb9565b82815280926130d9601f199161206c565b015f5b8181106130e857505050565b60405160c0810191906001600160401b03831181841017611fb4576020926040525f81525f838201525f60408201525f60608201525f60808201525f60a0820152828286010152016130dc565b9190820180921161205857565b61314a612e2e565b9061315660055461027f565b6001600160a01b038116613252575061316d612083565b905b61318461317f8451845190613135565b61209e565b925f915f5b82518110156131be57806131b86131a56105bd6001948761201d565b6105d46131b18861204a565b978a61201d565b01613189565b509290505f5b815181101561324c576131da6105bd828461201d565b5f6001600160a01b038216815b868110613220575b5050906001929115613203575b50016131c4565b61321a906105d46132138761204a565b968961201d565b5f6131fc565b8161323161062c6105bd848d61201d565b1461323e576001016131e7565b50600191508190505f6131ef565b50508252565b5f61326161062c60049361027f565b604051633aafb16760e11b815292839182905afa908115610341575f9161328a575b509061316f565b61329e91503d805f833e6111598183611fb9565b5f613283565b156132ab57565b60405162461bcd60e51b8152602060048201526024808201527f436f6d706f756e643a20636f6d6574206e6f7420696e207772697465206761746044820152636577617960e01b6064820152608490fd5b61010061330e61062c6133299361264d565b9260405180938192631d9df61760e11b8352600483016102a0565b0381855afa9182156103415761334f6040612585946020945f91612b015750015161027f565b9060405180809581946341976e0960e01b8352600483016102a0565b9061337861337d9261264d565b6133c8565b9080156127ae57612710820291808304612710149015171561205857610393916122e4565b5f546001600160a01b031633036133b557565b63118cdaa760e01b5f523360045260245ffd5b60405163a46fe83b60e01b81525f93849390926001600160a01b03169190602082600481865afa918215610341575f926135b9575b5091905f925b60ff821660ff8516106134165750505050565b60405163c8c7fe6b60e01b815260ff8516600482015296939592939192909161010088602481885afa978815610341575f98613598575b50613460604061280660208b015161027f565b0381895afa908115610341575f91613579575b506001600160801b0316801561356a576134af602061349560408c015161027f565b604051809381926341976e0960e01b8352600483016102a0565b03818a5afa908115610341575f9161354c575b506134d9916001600160801b0391909116906122d1565b60608901516134e7906113ed565b6134f0906113ed565b6134f9916122e4565b908161350491613135565b9760800151613512906113ed565b61351b906113ed565b613524916122d1565b670de0b6b3a7640000900461353891613135565b9460ff600181925b01169392919050613403565b613564915060203d8111610e9457610e858183611fb9565b5f6134c2565b5096509460ff60018192613540565b613591915060403d811161292e5761291f8183611fb9565b505f613473565b6135b29198506101003d81116113b7576113a88183611fb9565b965f61344d565b6135d391925060203d6020116106aa5761069c8183611fb9565b905f6133fd56febd7bf039bc2e612983f7f581f4b5d456d978092d546243d55a7b3f8594fb9796526edd5dd90f5bf0182679e6bfd9599001c52b92e97523563c3302d3a030e2968be0079c531659141344cd1fd0a4f28419497f9722a3daafe3b4186f6b6457e0a2646970667358221220ab2090553d77c10ac5224bc2cb5a4cdd94c8f2e1b032d4769f3d885edd76718b64736f6c634300081e0033",
  "devdoc": {
    "details": "Contains all read/view functions from v1, separate from write operations",
    "errors": {
      "OwnableInvalidOwner(address)": [
        {
          "details": "The owner is not a valid owner account. (eg. `address(0)`)"
        }
      ],
      "OwnableUnauthorizedAccount(address)": [
        {
          "details": "The caller account is not authorized to perform an operation."
        }
      ]
    },
    "kind": "dev",
    "methods": {
      "getBaseTokenInfo(address)": {
        "params": {
          "market": "The base token address"
        },
        "returns": {
          "baseToken": "The base token address",
          "decimals": "The base token decimals",
          "price": "The base token price",
          "priceScale": "The Comet's price scale"
        }
      },
      "getCurrentLtvBps(address,address)": {
        "details": "This is the actual current LTV = totalDebt / totalCollateral * 10000",
        "params": {
          "token": "The base token (market identifier)",
          "user": "The user address"
        },
        "returns": {
          "_0": "Current LTV in basis points (e.g., 6500 = 65%)"
        }
      },
      "getLiquidationLtvBps(address,address)": {
        "details": "Position is liquidatable when currentLTV >= liquidationLtvBps",
        "params": {
          "token": "The base token (market identifier)",
          "user": "The user address"
        },
        "returns": {
          "_0": "Weighted liquidation threshold in basis points"
        }
      },
      "getPositionValue(address,address)": {
        "details": "Returns collateral and debt values in 8-decimal USD (Comet's priceScale)",
        "params": {
          "market": "The base token (market identifier)",
          "user": "The user address"
        },
        "returns": {
          "collateralValueUsd": "Total collateral value in 8-decimal USD",
          "debtValueUsd": "Total debt value in 8-decimal USD"
        }
      },
      "getReserveConfigs(address)": {
        "details": "Returns price, LTV (borrow collateral factor), liquidation threshold for each collateral",
        "params": {
          "market": "The base token address (e.g., USDC) to identify the Comet"
        },
        "returns": {
          "configs": "Array of reserve configuration data for all collaterals in this market"
        }
      },
      "owner()": {
        "details": "Returns the address of the current owner."
      },
      "renounceOwnership()": {
        "details": "Leaves the contract without owner. It will not be possible to call `onlyOwner` functions. Can only be called by the current owner. NOTE: Renouncing ownership will leave the contract without an owner, thereby disabling any functionality that is only available to the owner."
      },
      "transferOwnership(address)": {
        "details": "Transfers ownership of the contract to a new account (`newOwner`). Can only be called by the current owner."
      }
    },
    "title": "CompoundGatewayView",
    "version": 1
  },
  "userdoc": {
    "kind": "user",
    "methods": {
      "allActiveBaseTokens()": {
        "notice": "Get all active base tokens (from allActiveComets)"
      },
      "allActiveComets()": {
        "notice": "Get all active Comets (union of local + write gateway registries)"
      },
      "allBaseTokens()": {
        "notice": "Get all base tokens for registered Comets"
      },
      "getBaseTokenInfo(address)": {
        "notice": "Get base token info for a market (debt token)"
      },
      "getComet(address)": {
        "notice": "Get Comet for base token, falling back to write gateway if not found locally"
      },
      "getCurrentLtvBps(address,address)": {
        "notice": "Returns the current LTV (debt/collateral) in basis points"
      },
      "getLiquidationLtvBps(address,address)": {
        "notice": "Returns the liquidation LTV threshold in basis points"
      },
      "getPositionValue(address,address)": {
        "notice": "Get position value for ADL trigger calculation"
      },
      "getReserveConfigs(address)": {
        "notice": "Get reserve configuration data for a Compound market (for frontend LTV calculations)"
      },
      "setWriteGateway(address)": {
        "notice": "Set the write gateway address for syncing Comet registry"
      },
      "syncAllCometsFromWriteGateway()": {
        "notice": "Sync all Comets from write gateway"
      },
      "syncCometFromWriteGateway(address)": {
        "notice": "Sync a Comet from the write gateway to this view gateway"
      }
    },
    "notice": "View-only gateway for Compound Comet protocol",
    "version": 1
  },
  "storageLayout": {
    "storage": [
      {
        "astId": 54,
        "contract": "contracts/v2/gateways/compound/CompoundGatewayView.sol:CompoundGatewayView",
        "label": "_owner",
        "offset": 0,
        "slot": "0",
        "type": "t_address"
      },
      {
        "astId": 1520,
        "contract": "contracts/v2/gateways/compound/CompoundGatewayView.sol:CompoundGatewayView",
        "label": "tokenToComet",
        "offset": 0,
        "slot": "1",
        "type": "t_mapping(t_address,t_contract(ICompoundComet)6638)"
      },
      {
        "astId": 1525,
        "contract": "contracts/v2/gateways/compound/CompoundGatewayView.sol:CompoundGatewayView",
        "label": "overrideFeeds",
        "offset": 0,
        "slot": "2",
        "type": "t_mapping(t_address,t_contract(AggregatorV3Interface)45)"
      },
      {
        "astId": 1528,
        "contract": "contracts/v2/gateways/compound/CompoundGatewayView.sol:CompoundGatewayView",
        "label": "_comets",
        "offset": 0,
        "slot": "3",
        "type": "t_array(t_address)dyn_storage"
      },
      {
        "astId": 1532,
        "contract": "contracts/v2/gateways/compound/CompoundGatewayView.sol:CompoundGatewayView",
        "label": "_isRegistered",
        "offset": 0,
        "slot": "4",
        "type": "t_mapping(t_address,t_bool)"
      },
      {
        "astId": 1534,
        "contract": "contracts/v2/gateways/compound/CompoundGatewayView.sol:CompoundGatewayView",
        "label": "writeGateway",
        "offset": 0,
        "slot": "5",
        "type": "t_address"
      }
    ],
    "types": {
      "t_address": {
        "encoding": "inplace",
        "label": "address",
        "numberOfBytes": "20"
      },
      "t_array(t_address)dyn_storage": {
        "base": "t_address",
        "encoding": "dynamic_array",
        "label": "address[]",
        "numberOfBytes": "32"
      },
      "t_bool": {
        "encoding": "inplace",
        "label": "bool",
        "numberOfBytes": "1"
      },
      "t_contract(AggregatorV3Interface)45": {
        "encoding": "inplace",
        "label": "contract AggregatorV3Interface",
        "numberOfBytes": "20"
      },
      "t_contract(ICompoundComet)6638": {
        "encoding": "inplace",
        "label": "contract ICompoundComet",
        "numberOfBytes": "20"
      },
      "t_mapping(t_address,t_bool)": {
        "encoding": "mapping",
        "key": "t_address",
        "label": "mapping(address => bool)",
        "numberOfBytes": "32",
        "value": "t_bool"
      },
      "t_mapping(t_address,t_contract(AggregatorV3Interface)45)": {
        "encoding": "mapping",
        "key": "t_address",
        "label": "mapping(address => contract AggregatorV3Interface)",
        "numberOfBytes": "32",
        "value": "t_contract(AggregatorV3Interface)45"
      },
      "t_mapping(t_address,t_contract(ICompoundComet)6638)": {
        "encoding": "mapping",
        "key": "t_address",
        "label": "mapping(address => contract ICompoundComet)",
        "numberOfBytes": "32",
        "value": "t_contract(ICompoundComet)6638"
      }
    }
  }
}