{
  "address": "0xdEA158a3C54dd4fA91412f9dB416d01EA9477F9b",
  "abi": [
    {
      "inputs": [
        {
          "internalType": "address",
          "name": "router",
          "type": "address"
        },
        {
          "internalType": "address",
          "name": "owner_",
          "type": "address"
        }
      ],
      "stateMutability": "nonpayable",
      "type": "constructor"
    },
    {
      "inputs": [
        {
          "internalType": "address",
          "name": "target",
          "type": "address"
        }
      ],
      "name": "AddressEmptyCode",
      "type": "error"
    },
    {
      "inputs": [
        {
          "internalType": "address",
          "name": "account",
          "type": "address"
        }
      ],
      "name": "AddressInsufficientBalance",
      "type": "error"
    },
    {
      "inputs": [],
      "name": "FailedInnerCall",
      "type": "error"
    },
    {
      "inputs": [
        {
          "internalType": "address",
          "name": "owner",
          "type": "address"
        }
      ],
      "name": "OwnableInvalidOwner",
      "type": "error"
    },
    {
      "inputs": [
        {
          "internalType": "address",
          "name": "account",
          "type": "address"
        }
      ],
      "name": "OwnableUnauthorizedAccount",
      "type": "error"
    },
    {
      "inputs": [],
      "name": "ReentrancyGuardReentrantCall",
      "type": "error"
    },
    {
      "inputs": [
        {
          "internalType": "address",
          "name": "token",
          "type": "address"
        }
      ],
      "name": "SafeERC20FailedOperation",
      "type": "error"
    },
    {
      "anonymous": false,
      "inputs": [
        {
          "indexed": true,
          "internalType": "address",
          "name": "baseToken",
          "type": "address"
        },
        {
          "indexed": true,
          "internalType": "address",
          "name": "comet",
          "type": "address"
        }
      ],
      "name": "CometRegistered",
      "type": "event"
    },
    {
      "anonymous": false,
      "inputs": [
        {
          "indexed": true,
          "internalType": "address",
          "name": "baseToken",
          "type": "address"
        },
        {
          "indexed": true,
          "internalType": "address",
          "name": "oldComet",
          "type": "address"
        },
        {
          "indexed": true,
          "internalType": "address",
          "name": "newComet",
          "type": "address"
        }
      ],
      "name": "CometReplaced",
      "type": "event"
    },
    {
      "anonymous": false,
      "inputs": [
        {
          "indexed": true,
          "internalType": "address",
          "name": "previousOwner",
          "type": "address"
        },
        {
          "indexed": true,
          "internalType": "address",
          "name": "newOwner",
          "type": "address"
        }
      ],
      "name": "OwnershipTransferred",
      "type": "event"
    },
    {
      "inputs": [],
      "name": "ROUTER",
      "outputs": [
        {
          "internalType": "address",
          "name": "",
          "type": "address"
        }
      ],
      "stateMutability": "view",
      "type": "function"
    },
    {
      "inputs": [
        {
          "internalType": "contract ICompoundComet",
          "name": "comet",
          "type": "address"
        }
      ],
      "name": "addComet",
      "outputs": [],
      "stateMutability": "nonpayable",
      "type": "function"
    },
    {
      "inputs": [],
      "name": "allComets",
      "outputs": [
        {
          "internalType": "address[]",
          "name": "",
          "type": "address[]"
        }
      ],
      "stateMutability": "view",
      "type": "function"
    },
    {
      "inputs": [
        {
          "components": [
            {
              "internalType": "enum ProtocolTypes.LendingOp",
              "name": "op",
              "type": "uint8"
            },
            {
              "internalType": "address",
              "name": "token",
              "type": "address"
            },
            {
              "internalType": "address",
              "name": "user",
              "type": "address"
            },
            {
              "internalType": "uint256",
              "name": "amount",
              "type": "uint256"
            },
            {
              "internalType": "bytes",
              "name": "context",
              "type": "bytes"
            },
            {
              "components": [
                {
                  "internalType": "uint256",
                  "name": "index",
                  "type": "uint256"
                }
              ],
              "internalType": "struct ProtocolTypes.InputPtr",
              "name": "input",
              "type": "tuple"
            }
          ],
          "internalType": "struct ProtocolTypes.LendingInstruction[]",
          "name": "instrs",
          "type": "tuple[]"
        },
        {
          "internalType": "address",
          "name": "caller",
          "type": "address"
        },
        {
          "components": [
            {
              "internalType": "address",
              "name": "token",
              "type": "address"
            },
            {
              "internalType": "uint256",
              "name": "amount",
              "type": "uint256"
            }
          ],
          "internalType": "struct ProtocolTypes.Output[]",
          "name": "inputs",
          "type": "tuple[]"
        }
      ],
      "name": "authorize",
      "outputs": [
        {
          "internalType": "address[]",
          "name": "targets",
          "type": "address[]"
        },
        {
          "internalType": "bytes[]",
          "name": "data",
          "type": "bytes[]"
        },
        {
          "components": [
            {
              "internalType": "address",
              "name": "token",
              "type": "address"
            },
            {
              "internalType": "uint256",
              "name": "amount",
              "type": "uint256"
            }
          ],
          "internalType": "struct ProtocolTypes.Output[]",
          "name": "produced",
          "type": "tuple[]"
        }
      ],
      "stateMutability": "view",
      "type": "function"
    },
    {
      "inputs": [
        {
          "internalType": "address",
          "name": "token",
          "type": "address"
        },
        {
          "internalType": "address",
          "name": "user",
          "type": "address"
        },
        {
          "internalType": "uint256",
          "name": "amount",
          "type": "uint256"
        }
      ],
      "name": "borrow",
      "outputs": [],
      "stateMutability": "nonpayable",
      "type": "function"
    },
    {
      "inputs": [
        {
          "components": [
            {
              "internalType": "enum ProtocolTypes.LendingOp",
              "name": "op",
              "type": "uint8"
            },
            {
              "internalType": "address",
              "name": "token",
              "type": "address"
            },
            {
              "internalType": "address",
              "name": "user",
              "type": "address"
            },
            {
              "internalType": "uint256",
              "name": "amount",
              "type": "uint256"
            },
            {
              "internalType": "bytes",
              "name": "context",
              "type": "bytes"
            },
            {
              "components": [
                {
                  "internalType": "uint256",
                  "name": "index",
                  "type": "uint256"
                }
              ],
              "internalType": "struct ProtocolTypes.InputPtr",
              "name": "input",
              "type": "tuple"
            }
          ],
          "internalType": "struct ProtocolTypes.LendingInstruction[]",
          "name": "instrs",
          "type": "tuple[]"
        },
        {
          "internalType": "address",
          "name": "",
          "type": "address"
        },
        {
          "components": [
            {
              "internalType": "address",
              "name": "token",
              "type": "address"
            },
            {
              "internalType": "uint256",
              "name": "amount",
              "type": "uint256"
            }
          ],
          "internalType": "struct ProtocolTypes.Output[]",
          "name": "inputs",
          "type": "tuple[]"
        }
      ],
      "name": "deauthorize",
      "outputs": [
        {
          "internalType": "address[]",
          "name": "targets",
          "type": "address[]"
        },
        {
          "internalType": "bytes[]",
          "name": "data",
          "type": "bytes[]"
        }
      ],
      "stateMutability": "view",
      "type": "function"
    },
    {
      "inputs": [
        {
          "internalType": "address",
          "name": "token",
          "type": "address"
        },
        {
          "internalType": "address",
          "name": "onBehalfOf",
          "type": "address"
        },
        {
          "internalType": "uint256",
          "name": "amount",
          "type": "uint256"
        }
      ],
      "name": "deposit",
      "outputs": [],
      "stateMutability": "nonpayable",
      "type": "function"
    },
    {
      "inputs": [
        {
          "internalType": "address",
          "name": "market",
          "type": "address"
        },
        {
          "internalType": "address",
          "name": "collateral",
          "type": "address"
        },
        {
          "internalType": "uint256",
          "name": "amount",
          "type": "uint256"
        },
        {
          "internalType": "address",
          "name": "receiver",
          "type": "address"
        }
      ],
      "name": "depositCollateral",
      "outputs": [],
      "stateMutability": "nonpayable",
      "type": "function"
    },
    {
      "inputs": [],
      "name": "owner",
      "outputs": [
        {
          "internalType": "address",
          "name": "",
          "type": "address"
        }
      ],
      "stateMutability": "view",
      "type": "function"
    },
    {
      "inputs": [
        {
          "components": [
            {
              "internalType": "address",
              "name": "token",
              "type": "address"
            },
            {
              "internalType": "uint256",
              "name": "amount",
              "type": "uint256"
            }
          ],
          "internalType": "struct ProtocolTypes.Output[]",
          "name": "inputs",
          "type": "tuple[]"
        },
        {
          "internalType": "bytes",
          "name": "data",
          "type": "bytes"
        }
      ],
      "name": "processLendingInstruction",
      "outputs": [
        {
          "components": [
            {
              "internalType": "address",
              "name": "token",
              "type": "address"
            },
            {
              "internalType": "uint256",
              "name": "amount",
              "type": "uint256"
            }
          ],
          "internalType": "struct ProtocolTypes.Output[]",
          "name": "outputs",
          "type": "tuple[]"
        }
      ],
      "stateMutability": "nonpayable",
      "type": "function"
    },
    {
      "inputs": [],
      "name": "renounceOwnership",
      "outputs": [],
      "stateMutability": "nonpayable",
      "type": "function"
    },
    {
      "inputs": [
        {
          "internalType": "address",
          "name": "token",
          "type": "address"
        },
        {
          "internalType": "address",
          "name": "user",
          "type": "address"
        },
        {
          "internalType": "uint256",
          "name": "amount",
          "type": "uint256"
        }
      ],
      "name": "repay",
      "outputs": [],
      "stateMutability": "nonpayable",
      "type": "function"
    },
    {
      "inputs": [
        {
          "internalType": "address",
          "name": "baseToken",
          "type": "address"
        },
        {
          "internalType": "address",
          "name": "comet_",
          "type": "address"
        }
      ],
      "name": "setCometForBase",
      "outputs": [],
      "stateMutability": "nonpayable",
      "type": "function"
    },
    {
      "inputs": [
        {
          "internalType": "address",
          "name": "",
          "type": "address"
        }
      ],
      "name": "tokenToComet",
      "outputs": [
        {
          "internalType": "contract ICompoundComet",
          "name": "",
          "type": "address"
        }
      ],
      "stateMutability": "view",
      "type": "function"
    },
    {
      "inputs": [
        {
          "internalType": "address",
          "name": "newOwner",
          "type": "address"
        }
      ],
      "name": "transferOwnership",
      "outputs": [],
      "stateMutability": "nonpayable",
      "type": "function"
    },
    {
      "inputs": [
        {
          "internalType": "address",
          "name": "market",
          "type": "address"
        },
        {
          "internalType": "address",
          "name": "collateral",
          "type": "address"
        },
        {
          "internalType": "address",
          "name": "user",
          "type": "address"
        },
        {
          "internalType": "uint256",
          "name": "amount",
          "type": "uint256"
        }
      ],
      "name": "withdrawCollateral",
      "outputs": [
        {
          "internalType": "address",
          "name": "",
          "type": "address"
        },
        {
          "internalType": "uint256",
          "name": "",
          "type": "uint256"
        }
      ],
      "stateMutability": "nonpayable",
      "type": "function"
    }
  ],
  "transactionHash": "0xbad72c76b81ba4d5a1113c7d5a22a76ef32a4597b6c8411c22b5b7d25cd4127c",
  "args": [
    "0x17f49d662d790B5dD1D6Ec8AC04e34ac506D3C08",
    "0x0BE61223F99E57b8b8B7033a77B54Adc7f7cF027"
  ],
  "numDeployments": 15,
  "solcInputHash": "92c04077963b585915986b6fc13c5a9c",
  "bytecode": "0x60a03461014f57601f612e2e38819003918201601f19168301916001600160401b0383118484101761015357808492604094855283398101031261014f57610052602061004b83610167565b9201610167565b906001600160a01b0381161561011f576080526001600160a01b0316801561010c575f80546001600160a01b031981168317825560405192916001600160a01b03909116907f8be0079c531659141344cd1fd0a4f28419497f9722a3daafe3b4186f6b6457e09080a360018055612cb2908161017c823960805181818161017a0152818161038d01528181610405015281816105c4015281816112240152818161191801528181611cbb01528181611ecc01526123070152f35b631e4fbdf760e01b5f525f60045260245ffd5b60405162461bcd60e51b81526020600482015260086024820152670726f757465723d360c41b6044820152606490fd5b5f80fd5b634e487b7160e01b5f52604160045260245ffd5b51906001600160a01b038216820361014f5756fe60806040526004361015610011575f80fd5b5f3560e01c80631da649cf146100e257806326e46ed31461010f5780632a8e3a491461010a57806332fe7b26146101055780634108d0af146101005780635224372c146100fb57806352ed5875146100f65780635820ba63146100f1578063715018a6146100ec578063755f62ce146100e75780638340f549146100e25780638da5cb5b146100dd5780639f2204e8146100d8578063aad11a3f146100d3578063ae4be46d146100ce5763f2fde38b146100c9575f80fd5b611840565b6117b5565b611571565b61143e565b611417565b610162565b61138e565b611326565b6111e8565b610894565b6105b1565b6103bc565b610378565b610217565b6101d4565b6001600160a01b0381160361012557565b5f80fd5b359061013482610114565b565b60609060031901126101255760043561014e81610114565b9060243561015b81610114565b9060443590565b34610125576101b561017336610136565b916101a8337f00000000000000000000000000000000000000000000000000000000000000006001600160a01b0316146118c9565b6101b0612a9a565b611a2b565b60018055005b6001600160a01b03165f90815260026020526040902090565b34610125576020366003190112610125576004356101f181610114565b60018060a01b03165f526002602052602060018060a01b0360405f205416604051908152f35b346101255760203660031901126101255760043561023481610114565b61023c612b0b565b60405163c55dae6360e01b81526001600160a01b03821691602082600481865afa918215610369575f92610334575b506001600160a01b038216916102dd91906102be9061028b851515611b99565b6101bb6102b96102b56102ae8960018060a01b03165f52600460205260405f2090565b5460ff1690565b1590565b611bd8565b80546001600160a01b0319166001600160a01b03909216919091179055565b6001600160a01b0382165f90815260046020526040902061030590805460ff19166001179055565b61030e82611c38565b7fbd7bf039bc2e612983f7f581f4b5d456d978092d546243d55a7b3f8594fb97965f80a3005b6102dd91925061035b9060203d602011610362575b61035381836119e7565b810190611b84565b919061026b565b503d610349565b611a20565b5f91031261012557565b34610125575f366003190112610125576040517f00000000000000000000000000000000000000000000000000000000000000006001600160a01b03168152602090f35b34610125576080366003190112610125576004356103d981610114565b602435906103e682610114565b60443561045461044861043b606435946103ff86610114565b610433337f00000000000000000000000000000000000000000000000000000000000000006001600160a01b0316146118c9565b6101bb612a9a565b546001600160a01b031690565b6001600160a01b031690565b6104686001600160a01b0382161515611e2f565b6001600160a01b03841661047e83303384612aba565b60405163095ea7b360e01b81526001600160a01b03831660048201525f6024820152602081806044810103815f865af1801561036957610594575b5060405163095ea7b360e01b81526001600160a01b03831660048201526024810184905290602090829060449082905f905af1801561036957610567575b50803b1561012557604051634232cd6360e01b81526001600160a01b03938416600482015293909216602484015260448301525f908290606490829084905af180156103695761054d575b61054b60018055565b005b8061055b5f610561936119e7565b8061036e565b5f610542565b6105889060203d60201161058d575b61058081836119e7565b810190611a08565b6104f7565b503d610576565b6105ac9060203d60201161058d5761058081836119e7565b6104b9565b34610125576105bf36610136565b9091337f00000000000000000000000000000000000000000000000000000000000000006001600160a01b03161480156106a5575b6105fd90611e7a565b610605612a9a565b6001600160a01b0381165f908152600260205260409020610629906104489061043b565b61063d6001600160a01b038216151561194c565b803b1561012557825f91838361066c97604051988995869485936304c8826360e31b8552309060048601611fb3565b03925af19283156103695761054293610691575b5033906001600160a01b0316612b31565b8061055b5f61069f936119e7565b5f610680565b50336001600160a01b038416146105f4565b9181601f84011215610125578235916001600160401b038311610125576020808501948460061b01011161012557565b90606060031983011261012557600435916001600160401b0383116101255780602384011215610125578260040135926001600160401b038411610125578160248560051b830101116101255760240192916107436024610129565b91604435906001600160401b03821161012557610762916004016106b7565b9091565b90602080835192838152019201905f5b8181106107835750505090565b82516001600160a01b0316845260209384019390920191600101610776565b9080602083519182815201916020808360051b8301019401925f915b8383106107cd57505050505090565b909192939460208080600193601f19868203018752818a518051918291828552018484015e5f828201840152601f01601f1916010197019594919091019201906107be565b90602080835192838152019201905f5b81811061082f5750505090565b825180516001600160a01b031685526020908101518186015260409094019390920191600101610822565b91610883906108756108919593606086526060860190610766565b9084820360208601526107a2565b916040818403910152610812565b90565b34610125576108a2366106e7565b93906108ad84612004565b936108b781612036565b955f5f5b83811061113657506108cc9061218b565b945f925f5b8181106108ec57604051806108e88a8d8d8461085a565b0390f35b6108f781838961207f565b61091661091161090a60808401846121e6565b3691612233565b612b6a565b9061092360208201612269565b9160608201359060a0830135888b818310611105575b505050610945836120c9565b61094e816120ab565b1580156110ea575b15610aec5750604051636eb1769f60e11b81526001600160a01b038716600482015230602482015291602083806044810103816001600160a01b0388165afa92831561036957858f8f9294876004976109f2975f91610abe575b50828015159182610ab3575b505015610a565750505f6109d3836109ec956122d6565b526109dc6122ea565b6109e683836122d6565b526122d6565b506120c9565b6109fb816120ab565b14610a0c575b506001905b016108d1565b60019195610a4f91610a2e610a1f611fde565b6001600160a01b039092168252565b5f6020820152610a3e828c6122d6565b52610a49818b6122d6565b506120e7565b9490610a01565b610aa591610a7d6109dc92610a6e876109ec996122d6565b6001600160a01b039091169052565b60405163095ea7b360e01b602082015230602482015260448101919091529182906064820190565b03601f1981018352826119e7565b10159050825f6109bc565b610adf915060203d8111610ae5575b610ad781836119e7565b810190612283565b5f6109b0565b503d610acd565b909392916001610afb826120c9565b610b04816120ab565b1480156110a2575b15610be2575050604051636eb1769f60e11b81526001600160a01b038616600482015230602482015292602084806044810103816001600160a01b0386165afa90811561036957838d926001965f91610bc4575b50828015159182610bb9575b505015610ba55790505f9250610b81916122d6565b52610b8a6122ea565b610b94828d6122d6565b52610b9f818c6122d6565b50610a06565b610aa593610a6e610a7d92610b8a956122d6565b10159050825f610b6c565b610bdc915060203d8111610ae557610ad781836119e7565b5f610b60565b6002610bf1829a94959a6120c9565b610bfa816120ab565b03610d4357506001600160a01b03811615610d1f576001600160a01b03165f908152600260205260409020610c32906104489061043b565b60405163a165437960e01b81526001600160a01b038716600482015230602482015293909290602085604481875afa801561036957898f8f9296610cba976001995f91610d01575b5015610cc057505f6109d383610c8f956122d6565b505b610cab610c9c611fde565b6001600160a01b039093168352565b6020820152610a3e828c6122d6565b94610a06565b610cd190610a6e84610cfb966122d6565b60405163110496e560e01b6020820152306024820152600160448201526109dc8160648101610aa5565b50610c91565b610d19915060203d811161058d5761058081836119e7565b5f610c7a565b50610c3261044861043b846001600160a01b03165f90815260026020526040902090565b906003610d4f836120c9565b610d58816120ab565b03610d835750506001600160a01b0382165f908152600260205260409020610c32906104489061043b565b90919293506005610d93836120c9565b610d9c816120ab565b03610e8057506001600160a01b0383165f908152600260205260409020610dc6906104489061043b565b906001600160a01b038216610dfe575050610df290600192610c91610dea5f6122b1565b6103e8900490565b945f610b81828c6122d6565b610e3d9291610e11604060209301612269565b604051630dd3126d60e21b81526001600160a01b03909116600482015293849190829081906024820190565b03915afa92831561036957610c91610dea600195610df2955f91610e62575b506122b1565b610e7a915060203d8111610ae557610ad781836119e7565b5f610e5c565b6006610e8f83999594996120c9565b610e98816120ab565b14610ea9575b505050600190610a06565b9296926001600160a01b038116801515908161108e575b5015610fe4576001600160a01b03165f908152600260205260409020610ee9906104489061043b565b906001600160a01b038216610f40575050600191610f0d91610c91610dea5f6122b1565b945f610f19828c6122d6565b52610f226122ea565b610f2c828d6122d6565b52610f37818c6122d6565b50905f80610e9e565b82610f889492610f54604060209401612269565b604051632e12a4f760e11b81526001600160a01b039182166004820152921660248301529094859190829081906044820190565b03915afa91821561036957610c91610dea6001600160801b03610f0d956001975f91610fb6575b50166122b1565b610fd7915060203d8111610fdd575b610fcf81836119e7565b810190612292565b5f610faf565b503d610fc5565b5061100761044861043b84959460018060a01b03165f52600260205260405f2090565b906001600160a01b03821661102b575050610f0d90600192610c91610dea5f6122b1565b61106a929161103e604060209301612269565b6040516370a0823160e01b81526001600160a01b03909116600482015293849190829081906024820190565b03915afa92831561036957610c91610dea600195610f0d955f91610e6257506122b1565b6001600160a01b038516141590505f610ec0565b506110ac816120c9565b6110b5816120ab565b15806110d8575b8015610b0c57506001600160a01b038281169084161415610b0c565b506001600160a01b03821615156110bc565b5060046110f6846120c9565b6110ff816120ab565b14610956565b8261112b93975060209495506111239261111e92612273565b612269565b94898c612273565b0135905f888b610939565b61114961114482868961207f565b6120c9565b611152816120ab565b600281149081156111d3575b81156111be575b81156111a9575b8115611195575b50611181575b6001016108bb565b9061118d6001916120e7565b919050611179565b600691506111a2816120ab565b145f611173565b90506111b4816120ab565b600581149061116c565b90506111c9816120ab565b6004811490611165565b90506111de816120ab565b600381149061115e565b346101255760803660031901126101255760043561120581610114565b60243561121181610114565b60443561121d81610114565b60643592337f00000000000000000000000000000000000000000000000000000000000000006001600160a01b0316148015611314575b61125d90611e7a565b611265612a9a565b6001600160a01b039081165f908152600260205260409020546112889116610448565b61129c6001600160a01b0382161515611e2f565b803b1561012557835f9184836112cb95604051968795869485936304c8826360e31b8552339060048601611fb3565b03925af1801561036957611300575b506112e460018055565b604080516001600160a01b039290921682526020820192909252f35b8061055b5f61130e936119e7565b5f6112da565b50336001600160a01b03831614611254565b34610125575f3660031901126101255761133e612b0b565b5f80546001600160a01b0319811682556001600160a01b03167f8be0079c531659141344cd1fd0a4f28419497f9722a3daafe3b4186f6b6457e08280a3005b906020610891928181520190610766565b34610125575f3660031901126101255760405180602060035491828152019060035f527fc2575a0e9e593c00f959f8c92f12db2869c3395a3b0502d05e2516446f71f85b905f5b8181106113f8576108e8856113ec818703826119e7565b6040519182918261137d565b82546001600160a01b03168452602090930192600192830192016113d5565b34610125575f366003190112610125575f546040516001600160a01b039091168152602090f35b346101255760403660031901126101255760043561145b81610114565b60243561146781610114565b61146f612b0b565b6001600160a01b038216908115158061153a575b15611504578261030e916114bc6114b661044861044861043b6102be9960018060a01b03165f52600260205260405f2090565b156123f1565b6114e46114df6102b56102ae8460018060a01b03165f52600460205260405f2090565b61243d565b6001600160a01b039182165f908152600260205260409020911693849190565b60405162461bcd60e51b815260206004820152600e60248201526d436f6d706f756e643a207a65726f60901b6044820152606490fd5b506001600160a01b0381161515611483565b909161156361089193604084526040840190610766565b9160208184039101526107a2565b346101255761157f366106e7565b909293915061158d84612004565b9261159785612036565b945f5b8181106115b057604051806108e889898361154c565b806115be600192848861207f565b6115d161091161090a60808401846121e6565b6115dd60208301612269565b9160a081013588811061178c575b5060026115f7826120c9565b611600816120ab565b036116be575061043b6104489161163b93868060a01b03821615155f146116a357506001600160a01b03165f90815260026020526040902090565b828060a01b038116611650575b505b0161159a565b61165e90610a6e838a6122d6565b60405163110496e560e01b60208201523060248201525f60448201526116878160648101610aa5565b611691828a6122d6565b5261169c81896122d6565b505f611648565b90506001600160a01b03165f90815260026020526040902090565b600391506116cb906120c9565b6116d4816120ab565b03611762576001600160a01b03165f9081526002602052604090206116fc906104489061043b565b828060a01b03811661170f575b5061164a565b61171d90610a6e838a6122d6565b60405163110496e560e01b60208201523060248201525f60448201526117468160648101610aa5565b611750828a6122d6565b5261175b81896122d6565b505f611709565b505f61176e82896122d6565b526117776122ea565b611781828a6122d6565b5261170981896122d6565b61179d91935061111e908989612273565b915f6115eb565b906020610891928181520190610812565b34610125576040366003190112610125576004356001600160401b038111610125576117e59036906004016106b7565b90602435906001600160401b0382116101255736602383011215610125578160040135906001600160401b038211610125573660248385010111610125576108e8936024611834940191612581565b604051918291826117a4565b346101255760203660031901126101255760043561185d81610114565b611865612b0b565b6001600160a01b031680156118b6575f80546001600160a01b03198116831782556001600160a01b0316907f8be0079c531659141344cd1fd0a4f28419497f9722a3daafe3b4186f6b6457e09080a3005b631e4fbdf760e01b5f525f60045260245ffd5b156118d057565b60405162461bcd60e51b815260206004820152601460248201527313db9b1e481c9bdd5d195c8818d85b8818d85b1b60621b6044820152606490fd5b6119469291906101a8337f00000000000000000000000000000000000000000000000000000000000000006001600160a01b0316146118c9565b60018055565b1561195357565b60405162461bcd60e51b815260206004820152601e60248201527f436f6d706f756e643a206261736520636f6d6574206e6f7420666f756e6400006044820152606490fd5b634e487b7160e01b5f52604160045260245ffd5b604081019081106001600160401b038211176119c757604052565b611998565b60c081019081106001600160401b038211176119c757604052565b90601f801991011681019081106001600160401b038211176119c757604052565b90816020910312610125575180151581036101255790565b6040513d5f823e3d90fd5b91611a4c61044861043b8560018060a01b03165f52600260205260405f2090565b611a606001600160a01b038216151561194c565b6001600160a01b038416611a7683303384612aba565b60405163095ea7b360e01b81526001600160a01b03831660048201525f6024820152602081806044810103815f865af1801561036957611b67575b5060405163095ea7b360e01b81526001600160a01b03831660048201526024810184905290602090829060449082905f905af1801561036957611b4a575b50803b1561012557604051634232cd6360e01b81526001600160a01b03938416600482015293909216602484015260448301525f908290606490829084905af1801561036957611b3c5750565b8061055b5f610134936119e7565b611b629060203d60201161058d5761058081836119e7565b611aef565b611b7f9060203d60201161058d5761058081836119e7565b611ab1565b90816020910312610125575161089181610114565b15611ba057565b60405162461bcd60e51b815260206004820152601060248201526f0436f6d706f756e643a20626173653d360841b6044820152606490fd5b15611bdf57565b60405162461bcd60e51b815260206004820152601c60248201527f436f6d706f756e643a20616c72656164792072656769737465726564000000006044820152606490fd5b634e487b7160e01b5f52603260045260245ffd5b600354680100000000000000008110156119c7576001810180600355811015611ca05760035f527fc2575a0e9e593c00f959f8c92f12db2869c3395a3b0502d05e2516446f71f85b0180546001600160a01b0319166001600160a01b03909216919091179055565b611c24565b90929190611ce9906104489061043b90610433337f00000000000000000000000000000000000000000000000000000000000000006001600160a01b0316146118c9565b611cfd6001600160a01b0382161515611e2f565b6001600160a01b038416611d1383303384612aba565b60405163095ea7b360e01b81526001600160a01b03831660048201525f6024820152602081806044810103815f865af1801561036957611e12575b5060405163095ea7b360e01b81526001600160a01b03831660048201526024810184905290602090829060449082905f905af1801561036957611df5575b50803b1561012557604051634232cd6360e01b81526001600160a01b03938416600482015293909216602484015260448301525f908290606490829084905af1801561036957611de1575b5061013460018055565b8061055b5f611def936119e7565b5f611dd7565b611e0d9060203d60201161058d5761058081836119e7565b611d8c565b611e2a9060203d60201161058d5761058081836119e7565b611d4e565b15611e3657565b606460405162461bcd60e51b815260206004820152602060248201527f436f6d706f756e643a206d61726b657420636f6d6574206e6f7420666f756e646044820152fd5b15611e8157565b60405162461bcd60e51b815260206004820152601c60248201527f4f6e6c7920726f75746572206f722073656c662063616e2063616c6c000000006044820152606490fd5b909190337f00000000000000000000000000000000000000000000000000000000000000006001600160a01b0316148015611fa1575b611f0590611e7a565b611f0d612a9a565b6001600160a01b0381165f908152600260205260409020611f31906104489061043b565b611f456001600160a01b038216151561194c565b803b1561012557825f918383611f7497604051988995869485936304c8826360e31b8552309060048601611fb3565b03925af192831561036957611f9893610691575033906001600160a01b0316612b31565b61013460018055565b50336001600160a01b03841614611efc565b6001600160a01b03918216815291811660208301529091166040820152606081019190915260800190565b604051906101346040836119e7565b6001600160401b0381116119c75760051b60200190565b9061200e82611fed565b61201b60405191826119e7565b828152809261202c601f1991611fed565b0190602036910137565b9061204082611fed565b61204d60405191826119e7565b828152809261205e601f1991611fed565b01905f5b82811061206e57505050565b806060602080938501015201612062565b9190811015611ca05760051b8101359060be1981360301821215610125570190565b6008111561012557565b600811156120b557565b634e487b7160e01b5f52602160045260245ffd5b35610891816120a1565b634e487b7160e01b5f52601160045260245ffd5b5f1981146120f55760010190565b6120d3565b6040805190919061210b83826119e7565b6001815291601f1901825f5b82811061212357505050565b602090604051612132816119ac565b5f81525f8382015282828501015201612117565b604051906121556020836119e7565b5f80835282815b82811061216857505050565b602090604051612177816119ac565b5f81525f838201528282850101520161215c565b9061219582611fed565b6121a260405191826119e7565b82815280926121b3601f1991611fed565b01905f5b8281106121c357505050565b6020906040516121d2816119ac565b5f81525f83820152828285010152016121b7565b903590601e198136030182121561012557018035906001600160401b0382116101255760200191813603831361012557565b6001600160401b0381116119c757601f01601f191660200190565b92919261223f82612218565b9161224d60405193846119e7565b829481845281830111610125578281602093845f960137010152565b3561089181610114565b9190811015611ca05760061b0190565b90816020910312610125575190565b9081602091031261012557516001600160801b03811681036101255790565b906103e98202918083046103e914901517156120f557565b805115611ca05760200190565b8051821015611ca05760209160051b010190565b604051906122f96020836119e7565b5f8252565b929392909190337f00000000000000000000000000000000000000000000000000000000000000006001600160a01b03161480156123df575b61234090611e7a565b612348612a9a565b6001600160a01b039081165f9081526002602052604090205461236b9116610448565b61237f6001600160a01b0382161515611e2f565b803b1561012557845f9184836123ae95604051968795869485936304c8826360e31b8552339060048601611fb3565b03925af18015610369576123cb575b506123c760018055565b9190565b8061055b5f6123d9936119e7565b5f6123bd565b50336001600160a01b03831614612337565b156123f857565b60405162461bcd60e51b815260206004820152601b60248201527f436f6d706f756e643a20636f6d657420616c72656164792073657400000000006044820152606490fd5b1561244457565b60405162461bcd60e51b815260206004820152602260248201527f436f6d706f756e643a20636f6d657420616c7265616479207265676973746572604482015261195960f21b6064820152608490fd5b9080601f830112156101255781602061089193359101612233565b919082602091031261012557604051602081018181106001600160401b038211176119c75760405291358252565b602081830312610125578035906001600160401b038211610125570160c0818303126101255760405191612510836119cc565b813561251b816120a1565b835261252960208301610129565b602084015261253a60408301610129565b60408401526060820135606084015260808201356001600160401b038111610125578261256e8360a0936125799601612494565b6080860152016124af565b60a082015290565b9091612592906060948101906124dd565b926125a06080850151612b6a565b60208501519093906001600160a01b0316918501519260a0860191825151818110612a6d575b5050505083516125d5816120ab565b6125de816120ab565b612656576001600160a01b0383168015159081612642575b5015612620576040939093015161261893906001600160a01b03165b92611ca5565b610891612146565b6040939093015161263d939192506001600160a01b03169061190c565b612618565b6001600160a01b038316141590505f6125f6565b60018493959451612666816120ab565b61266f816120ab565b036126ad57929361261893906001600160a01b038116156126a057604061261291945b01516001600160a01b031690565b5061261260408294612692565b6002839293516126bc816120ab565b6126c5816120ab565b036127395792936126fb93906001600160a01b0381161561272c5760406126f5919301516001600160a01b031690565b916122fe565b91906127056120fa565b92612711610c9c611fde565b602082015261271f836122c9565b52612729826122c9565b50565b506126f560408293612692565b919360038251612748816120ab565b612751816120ab565b036127785750604001516127709084906001600160a01b031683611ec6565b6127056120fa565b60048293959251612788816120ab565b612791816120ab565b036127d55750604091909101516127b291906001600160a01b03168461190c565b6127ba6120fa565b916127c6610a1f611fde565b5f602082015261271f836122c9565b9050600582516127e4816120ab565b6127ed816120ab565b0361289557506001600160a01b0383165f908152600260205260409020612817906104489061043b565b906001600160a01b0382166128325750505f916127056120fa565b6040908101519051630dd3126d60e21b81526001600160a01b03909116600482015290602090829060249082905afa908115610369575f91612876575b5091612770565b61288f915060203d602011610ae557610ad781836119e7565b5f61286f565b600682516128a2816120ab565b6128ab816120ab565b03612a31576001600160a01b0381168015159081612a1d575b501561297d576001600160a01b03165f9081526002602052604090206128ed906104489061043b565b90836001600160a01b03831661290b575050505f5b916127056120fa565b6040918201519151632e12a4f760e11b81526001600160a01b0392831660048201529116602482015290602090829060449082905afa8015610369576001600160801b03915f9161295e575b5016612902565b612977915060203d602011610fdd57610fcf81836119e7565b5f612957565b506001600160a01b0383165f9081526002602052604090206129a2906104489061043b565b906001600160a01b0382166129bb5750505f5b91612770565b60409081015190516370a0823160e01b81526001600160a01b03909116600482015290602090829060249082905afa908115610369575f916129fe575b506129b5565b612a17915060203d602011610ae557610ad781836119e7565b5f6129f8565b6001600160a01b038616141590505f6128c4565b60405162461bcd60e51b81526020600482015260146024820152730436f6d706f756e643a20756e6b6e6f776e206f760641b6044820152606490fd5b612a8e9395506020945061111e612a85918385612273565b94515191612273565b0135905f8080806125c6565b600260015414612aab576002600155565b633ee5aeb560e01b5f5260045ffd5b6040516323b872dd60e01b60208201526001600160a01b039283166024820152929091166044830152606482019290925261013491612b0682608481015b03601f1981018452836119e7565b612b82565b5f546001600160a01b03163303612b1e57565b63118cdaa760e01b5f523360045260245ffd5b60405163a9059cbb60e01b60208201526001600160a01b039092166024830152604482019290925261013491612b068260648101612af8565b905f91602081511015612b7a5750565b602001519150565b5f80612bca9260018060a01b03169360208151910182865af13d15612c16573d90612bac82612218565b91612bba60405193846119e7565b82523d5f602084013e5b83612c1e565b8051908115159182612bfb575b5050612be05750565b635274afe760e01b5f526001600160a01b031660045260245ffd5b612c0e9250602080918301019101611a08565b155f80612bd7565b606090612bc4565b90612c425750805115612c3357805190602001fd5b630a12f52160e11b5f5260045ffd5b81511580612c73575b612c53575090565b639996b31560e01b5f9081526001600160a01b0391909116600452602490fd5b50803b15612c4b56fea2646970667358221220eed0efd0602fbc72610d74918b980da25c69972352b23f0be3a6e2a7e116fa1164736f6c634300081e0033",
  "devdoc": {
    "errors": {
      "AddressEmptyCode(address)": [
        {
          "details": "There's no code at `target` (it is not a contract)."
        }
      ],
      "AddressInsufficientBalance(address)": [
        {
          "details": "The ETH balance of the account is not enough to perform the operation."
        }
      ],
      "FailedInnerCall()": [
        {
          "details": "A call to an address target failed. The target may have reverted."
        }
      ],
      "OwnableInvalidOwner(address)": [
        {
          "details": "The owner is not a valid owner account. (eg. `address(0)`)"
        }
      ],
      "OwnableUnauthorizedAccount(address)": [
        {
          "details": "The caller account is not authorized to perform an operation."
        }
      ],
      "ReentrancyGuardReentrantCall()": [
        {
          "details": "Unauthorized reentrant call."
        }
      ],
      "SafeERC20FailedOperation(address)": [
        {
          "details": "An operation with an ERC20 token failed."
        }
      ]
    },
    "kind": "dev",
    "methods": {
      "owner()": {
        "details": "Returns the address of the current owner."
      },
      "renounceOwnership()": {
        "details": "Leaves the contract without owner. It will not be possible to call `onlyOwner` functions. Can only be called by the current owner. NOTE: Renouncing ownership will leave the contract without an owner, thereby disabling any functionality that is only available to the owner."
      },
      "transferOwnership(address)": {
        "details": "Transfers ownership of the contract to a new account (`newOwner`). Can only be called by the current owner."
      }
    },
    "version": 1
  },
  "userdoc": {
    "kind": "user",
    "methods": {
      "ROUTER()": {
        "notice": "Immutable router address that can call protected functions"
      },
      "authorize((uint8,address,address,uint256,bytes,(uint256))[],address,(address,uint256)[])": {
        "notice": "Return user-side authorization calls for the given lending instructions.         One element per input (or (address(0), bytes(\"\")) if none needed).         Also returns the produced outputs from the simulation of these instructions."
      }
    },
    "version": 1
  },
  "storageLayout": {
    "storage": [
      {
        "astId": 1578,
        "contract": "contracts/v2/gateways/compound/CompoundGatewayWrite.sol:CompoundGatewayWrite",
        "label": "_owner",
        "offset": 0,
        "slot": "0",
        "type": "t_address"
      },
      {
        "astId": 3093,
        "contract": "contracts/v2/gateways/compound/CompoundGatewayWrite.sol:CompoundGatewayWrite",
        "label": "_status",
        "offset": 0,
        "slot": "1",
        "type": "t_uint256"
      },
      {
        "astId": 14531,
        "contract": "contracts/v2/gateways/compound/CompoundGatewayWrite.sol:CompoundGatewayWrite",
        "label": "tokenToComet",
        "offset": 0,
        "slot": "2",
        "type": "t_mapping(t_address,t_contract(ICompoundComet)20864)"
      },
      {
        "astId": 14534,
        "contract": "contracts/v2/gateways/compound/CompoundGatewayWrite.sol:CompoundGatewayWrite",
        "label": "_comets",
        "offset": 0,
        "slot": "3",
        "type": "t_array(t_address)dyn_storage"
      },
      {
        "astId": 14538,
        "contract": "contracts/v2/gateways/compound/CompoundGatewayWrite.sol:CompoundGatewayWrite",
        "label": "_isRegistered",
        "offset": 0,
        "slot": "4",
        "type": "t_mapping(t_address,t_bool)"
      }
    ],
    "types": {
      "t_address": {
        "encoding": "inplace",
        "label": "address",
        "numberOfBytes": "20"
      },
      "t_array(t_address)dyn_storage": {
        "base": "t_address",
        "encoding": "dynamic_array",
        "label": "address[]",
        "numberOfBytes": "32"
      },
      "t_bool": {
        "encoding": "inplace",
        "label": "bool",
        "numberOfBytes": "1"
      },
      "t_contract(ICompoundComet)20864": {
        "encoding": "inplace",
        "label": "contract ICompoundComet",
        "numberOfBytes": "20"
      },
      "t_mapping(t_address,t_bool)": {
        "encoding": "mapping",
        "key": "t_address",
        "label": "mapping(address => bool)",
        "numberOfBytes": "32",
        "value": "t_bool"
      },
      "t_mapping(t_address,t_contract(ICompoundComet)20864)": {
        "encoding": "mapping",
        "key": "t_address",
        "label": "mapping(address => contract ICompoundComet)",
        "numberOfBytes": "32",
        "value": "t_contract(ICompoundComet)20864"
      },
      "t_uint256": {
        "encoding": "inplace",
        "label": "uint256",
        "numberOfBytes": "32"
      }
    }
  }
}