{
  "address": "0x6041B69BE09b0AB1D827d9CAeeB56F51e917Ff5f",
  "abi": [
    {
      "inputs": [
        {
          "internalType": "address",
          "name": "router",
          "type": "address"
        },
        {
          "internalType": "address",
          "name": "owner_",
          "type": "address"
        }
      ],
      "stateMutability": "nonpayable",
      "type": "constructor"
    },
    {
      "inputs": [
        {
          "internalType": "address",
          "name": "target",
          "type": "address"
        }
      ],
      "name": "AddressEmptyCode",
      "type": "error"
    },
    {
      "inputs": [
        {
          "internalType": "address",
          "name": "account",
          "type": "address"
        }
      ],
      "name": "AddressInsufficientBalance",
      "type": "error"
    },
    {
      "inputs": [],
      "name": "FailedInnerCall",
      "type": "error"
    },
    {
      "inputs": [
        {
          "internalType": "address",
          "name": "owner",
          "type": "address"
        }
      ],
      "name": "OwnableInvalidOwner",
      "type": "error"
    },
    {
      "inputs": [
        {
          "internalType": "address",
          "name": "account",
          "type": "address"
        }
      ],
      "name": "OwnableUnauthorizedAccount",
      "type": "error"
    },
    {
      "inputs": [],
      "name": "ReentrancyGuardReentrantCall",
      "type": "error"
    },
    {
      "inputs": [
        {
          "internalType": "address",
          "name": "token",
          "type": "address"
        }
      ],
      "name": "SafeERC20FailedOperation",
      "type": "error"
    },
    {
      "anonymous": false,
      "inputs": [
        {
          "indexed": true,
          "internalType": "address",
          "name": "baseToken",
          "type": "address"
        },
        {
          "indexed": true,
          "internalType": "address",
          "name": "comet",
          "type": "address"
        }
      ],
      "name": "CometRegistered",
      "type": "event"
    },
    {
      "anonymous": false,
      "inputs": [
        {
          "indexed": true,
          "internalType": "address",
          "name": "baseToken",
          "type": "address"
        },
        {
          "indexed": true,
          "internalType": "address",
          "name": "oldComet",
          "type": "address"
        },
        {
          "indexed": true,
          "internalType": "address",
          "name": "newComet",
          "type": "address"
        }
      ],
      "name": "CometReplaced",
      "type": "event"
    },
    {
      "anonymous": false,
      "inputs": [
        {
          "indexed": true,
          "internalType": "address",
          "name": "previousOwner",
          "type": "address"
        },
        {
          "indexed": true,
          "internalType": "address",
          "name": "newOwner",
          "type": "address"
        }
      ],
      "name": "OwnershipTransferred",
      "type": "event"
    },
    {
      "inputs": [],
      "name": "ROUTER",
      "outputs": [
        {
          "internalType": "address",
          "name": "",
          "type": "address"
        }
      ],
      "stateMutability": "view",
      "type": "function"
    },
    {
      "inputs": [
        {
          "internalType": "contract ICompoundComet",
          "name": "comet",
          "type": "address"
        }
      ],
      "name": "addComet",
      "outputs": [],
      "stateMutability": "nonpayable",
      "type": "function"
    },
    {
      "inputs": [],
      "name": "allComets",
      "outputs": [
        {
          "internalType": "address[]",
          "name": "",
          "type": "address[]"
        }
      ],
      "stateMutability": "view",
      "type": "function"
    },
    {
      "inputs": [
        {
          "components": [
            {
              "internalType": "enum ProtocolTypes.LendingOp",
              "name": "op",
              "type": "uint8"
            },
            {
              "internalType": "address",
              "name": "token",
              "type": "address"
            },
            {
              "internalType": "address",
              "name": "user",
              "type": "address"
            },
            {
              "internalType": "uint256",
              "name": "amount",
              "type": "uint256"
            },
            {
              "internalType": "bytes",
              "name": "context",
              "type": "bytes"
            },
            {
              "components": [
                {
                  "internalType": "uint256",
                  "name": "index",
                  "type": "uint256"
                }
              ],
              "internalType": "struct ProtocolTypes.InputPtr",
              "name": "input",
              "type": "tuple"
            }
          ],
          "internalType": "struct ProtocolTypes.LendingInstruction[]",
          "name": "instrs",
          "type": "tuple[]"
        },
        {
          "internalType": "address",
          "name": "caller",
          "type": "address"
        },
        {
          "components": [
            {
              "internalType": "address",
              "name": "token",
              "type": "address"
            },
            {
              "internalType": "uint256",
              "name": "amount",
              "type": "uint256"
            }
          ],
          "internalType": "struct ProtocolTypes.Output[]",
          "name": "inputs",
          "type": "tuple[]"
        }
      ],
      "name": "authorize",
      "outputs": [
        {
          "internalType": "address[]",
          "name": "targets",
          "type": "address[]"
        },
        {
          "internalType": "bytes[]",
          "name": "data",
          "type": "bytes[]"
        },
        {
          "components": [
            {
              "internalType": "address",
              "name": "token",
              "type": "address"
            },
            {
              "internalType": "uint256",
              "name": "amount",
              "type": "uint256"
            }
          ],
          "internalType": "struct ProtocolTypes.Output[]",
          "name": "produced",
          "type": "tuple[]"
        }
      ],
      "stateMutability": "view",
      "type": "function"
    },
    {
      "inputs": [
        {
          "internalType": "address",
          "name": "token",
          "type": "address"
        },
        {
          "internalType": "address",
          "name": "user",
          "type": "address"
        },
        {
          "internalType": "uint256",
          "name": "amount",
          "type": "uint256"
        }
      ],
      "name": "borrow",
      "outputs": [],
      "stateMutability": "nonpayable",
      "type": "function"
    },
    {
      "inputs": [
        {
          "components": [
            {
              "internalType": "enum ProtocolTypes.LendingOp",
              "name": "op",
              "type": "uint8"
            },
            {
              "internalType": "address",
              "name": "token",
              "type": "address"
            },
            {
              "internalType": "address",
              "name": "user",
              "type": "address"
            },
            {
              "internalType": "uint256",
              "name": "amount",
              "type": "uint256"
            },
            {
              "internalType": "bytes",
              "name": "context",
              "type": "bytes"
            },
            {
              "components": [
                {
                  "internalType": "uint256",
                  "name": "index",
                  "type": "uint256"
                }
              ],
              "internalType": "struct ProtocolTypes.InputPtr",
              "name": "input",
              "type": "tuple"
            }
          ],
          "internalType": "struct ProtocolTypes.LendingInstruction[]",
          "name": "instrs",
          "type": "tuple[]"
        },
        {
          "internalType": "address",
          "name": "",
          "type": "address"
        }
      ],
      "name": "deauthorize",
      "outputs": [
        {
          "internalType": "address[]",
          "name": "targets",
          "type": "address[]"
        },
        {
          "internalType": "bytes[]",
          "name": "data",
          "type": "bytes[]"
        }
      ],
      "stateMutability": "view",
      "type": "function"
    },
    {
      "inputs": [
        {
          "internalType": "address",
          "name": "token",
          "type": "address"
        },
        {
          "internalType": "address",
          "name": "onBehalfOf",
          "type": "address"
        },
        {
          "internalType": "uint256",
          "name": "amount",
          "type": "uint256"
        }
      ],
      "name": "deposit",
      "outputs": [],
      "stateMutability": "nonpayable",
      "type": "function"
    },
    {
      "inputs": [
        {
          "internalType": "address",
          "name": "market",
          "type": "address"
        },
        {
          "internalType": "address",
          "name": "collateral",
          "type": "address"
        },
        {
          "internalType": "uint256",
          "name": "amount",
          "type": "uint256"
        },
        {
          "internalType": "address",
          "name": "receiver",
          "type": "address"
        }
      ],
      "name": "depositCollateral",
      "outputs": [],
      "stateMutability": "nonpayable",
      "type": "function"
    },
    {
      "inputs": [],
      "name": "owner",
      "outputs": [
        {
          "internalType": "address",
          "name": "",
          "type": "address"
        }
      ],
      "stateMutability": "view",
      "type": "function"
    },
    {
      "inputs": [
        {
          "components": [
            {
              "internalType": "address",
              "name": "token",
              "type": "address"
            },
            {
              "internalType": "uint256",
              "name": "amount",
              "type": "uint256"
            }
          ],
          "internalType": "struct ProtocolTypes.Output[]",
          "name": "inputs",
          "type": "tuple[]"
        },
        {
          "internalType": "bytes",
          "name": "data",
          "type": "bytes"
        }
      ],
      "name": "processLendingInstruction",
      "outputs": [
        {
          "components": [
            {
              "internalType": "address",
              "name": "token",
              "type": "address"
            },
            {
              "internalType": "uint256",
              "name": "amount",
              "type": "uint256"
            }
          ],
          "internalType": "struct ProtocolTypes.Output[]",
          "name": "outputs",
          "type": "tuple[]"
        }
      ],
      "stateMutability": "nonpayable",
      "type": "function"
    },
    {
      "inputs": [],
      "name": "renounceOwnership",
      "outputs": [],
      "stateMutability": "nonpayable",
      "type": "function"
    },
    {
      "inputs": [
        {
          "internalType": "address",
          "name": "token",
          "type": "address"
        },
        {
          "internalType": "address",
          "name": "user",
          "type": "address"
        },
        {
          "internalType": "uint256",
          "name": "amount",
          "type": "uint256"
        }
      ],
      "name": "repay",
      "outputs": [],
      "stateMutability": "nonpayable",
      "type": "function"
    },
    {
      "inputs": [
        {
          "internalType": "address",
          "name": "baseToken",
          "type": "address"
        },
        {
          "internalType": "address",
          "name": "comet_",
          "type": "address"
        }
      ],
      "name": "setCometForBase",
      "outputs": [],
      "stateMutability": "nonpayable",
      "type": "function"
    },
    {
      "inputs": [
        {
          "internalType": "address",
          "name": "",
          "type": "address"
        }
      ],
      "name": "tokenToComet",
      "outputs": [
        {
          "internalType": "contract ICompoundComet",
          "name": "",
          "type": "address"
        }
      ],
      "stateMutability": "view",
      "type": "function"
    },
    {
      "inputs": [
        {
          "internalType": "address",
          "name": "newOwner",
          "type": "address"
        }
      ],
      "name": "transferOwnership",
      "outputs": [],
      "stateMutability": "nonpayable",
      "type": "function"
    },
    {
      "inputs": [
        {
          "internalType": "address",
          "name": "market",
          "type": "address"
        },
        {
          "internalType": "address",
          "name": "collateral",
          "type": "address"
        },
        {
          "internalType": "address",
          "name": "user",
          "type": "address"
        },
        {
          "internalType": "uint256",
          "name": "amount",
          "type": "uint256"
        }
      ],
      "name": "withdrawCollateral",
      "outputs": [
        {
          "internalType": "address",
          "name": "",
          "type": "address"
        },
        {
          "internalType": "uint256",
          "name": "",
          "type": "uint256"
        }
      ],
      "stateMutability": "nonpayable",
      "type": "function"
    }
  ],
  "transactionHash": "0x5a7a1a354c3226ac59fd48d50db31f7b552c4a66f04206668134719a5e8fd43d",
  "args": [
    "0x50A72e9767bc929A111dcd74a41A0eB3D0EE747c",
    "0x0BE61223F99E57b8b8B7033a77B54Adc7f7cF027"
  ],
  "numDeployments": 13,
  "solcInputHash": "614bbeefe71c126329b3ded4d30f7c0f",
  "bytecode": "0x60a03461014f57601f612c4b38819003918201601f19168301916001600160401b0383118484101761015357808492604094855283398101031261014f57610052602061004b83610167565b9201610167565b906001600160a01b0381161561011f576080526001600160a01b0316801561010c575f80546001600160a01b031981168317825560405192916001600160a01b03909116907f8be0079c531659141344cd1fd0a4f28419497f9722a3daafe3b4186f6b6457e09080a360018055612acf908161017c823960805181818161017a0152818161038d01528181610405015281816105c4015281816112220152818161173501528181611ad801528181611ce901526121240152f35b631e4fbdf760e01b5f525f60045260245ffd5b60405162461bcd60e51b81526020600482015260086024820152670726f757465723d360c41b6044820152606490fd5b5f80fd5b634e487b7160e01b5f52604160045260245ffd5b51906001600160a01b038216820361014f5756fe60806040526004361015610011575f80fd5b5f3560e01c80631da649cf146100e257806326e46ed31461010f5780632a8e3a491461010a57806332fe7b26146101055780634108d0af146101005780635224372c146100fb57806352ed5875146100f65780635820ba63146100f1578063715018a6146100ec578063755f62ce146100e75780638340f549146100e25780638da5cb5b146100dd5780639f2204e8146100d8578063ae4be46d146100d3578063eaa83525146100ce5763f2fde38b146100c9575f80fd5b61165d565b6115e6565b61155b565b61143c565b611415565b610162565b61138c565b611324565b6111e6565b610845565b6105b1565b6103bc565b610378565b610217565b6101d4565b6001600160a01b0381160361012557565b5f80fd5b359061013482610114565b565b60609060031901126101255760043561014e81610114565b9060243561015b81610114565b9060443590565b34610125576101b561017336610136565b916101a8337f00000000000000000000000000000000000000000000000000000000000000006001600160a01b0316146116e6565b6101b06128b7565b611848565b60018055005b6001600160a01b03165f90815260026020526040902090565b34610125576020366003190112610125576004356101f181610114565b60018060a01b03165f526002602052602060018060a01b0360405f205416604051908152f35b346101255760203660031901126101255760043561023481610114565b61023c612928565b60405163c55dae6360e01b81526001600160a01b03821691602082600481865afa918215610369575f92610334575b506001600160a01b038216916102dd91906102be9061028b8515156119b6565b6101bb6102b96102b56102ae8960018060a01b03165f52600460205260405f2090565b5460ff1690565b1590565b6119f5565b80546001600160a01b0319166001600160a01b03909216919091179055565b6001600160a01b0382165f90815260046020526040902061030590805460ff19166001179055565b61030e82611a55565b7fbd7bf039bc2e612983f7f581f4b5d456d978092d546243d55a7b3f8594fb97965f80a3005b6102dd91925061035b9060203d602011610362575b6103538183611804565b8101906119a1565b919061026b565b503d610349565b61183d565b5f91031261012557565b34610125575f366003190112610125576040517f00000000000000000000000000000000000000000000000000000000000000006001600160a01b03168152602090f35b34610125576080366003190112610125576004356103d981610114565b602435906103e682610114565b60443561045461044861043b606435946103ff86610114565b610433337f00000000000000000000000000000000000000000000000000000000000000006001600160a01b0316146116e6565b6101bb6128b7565b546001600160a01b031690565b6001600160a01b031690565b6104686001600160a01b0382161515611c4c565b6001600160a01b03841661047e833033846128d7565b60405163095ea7b360e01b81526001600160a01b03831660048201525f6024820152602081806044810103815f865af1801561036957610594575b5060405163095ea7b360e01b81526001600160a01b03831660048201526024810184905290602090829060449082905f905af1801561036957610567575b50803b1561012557604051634232cd6360e01b81526001600160a01b03938416600482015293909216602484015260448301525f908290606490829084905af180156103695761054d575b61054b60018055565b005b8061055b5f61056193611804565b8061036e565b5f610542565b6105889060203d60201161058d575b6105808183611804565b810190611825565b6104f7565b503d610576565b6105ac9060203d60201161058d576105808183611804565b6104b9565b34610125576105bf36610136565b9091337f00000000000000000000000000000000000000000000000000000000000000006001600160a01b03161480156106a5575b6105fd90611c97565b6106056128b7565b6001600160a01b0381165f908152600260205260409020610629906104489061043b565b61063d6001600160a01b0382161515611769565b803b1561012557825f91838361066c97604051988995869485936304c8826360e31b8552309060048601611dd0565b03925af19283156103695761054293610691575b5033906001600160a01b031661294e565b8061055b5f61069f93611804565b5f610680565b50336001600160a01b038416146105f4565b9181601f84011215610125578235916001600160401b038311610125576020808501948460051b01011161012557565b9181601f84011215610125578235916001600160401b038311610125576020808501948460061b01011161012557565b90602080835192838152019201905f5b8181106107345750505090565b82516001600160a01b0316845260209384019390920191600101610727565b9080602083519182815201916020808360051b8301019401925f915b83831061077e57505050505090565b909192939460208080600193601f19868203018752818a518051918291828552018484015e5f828201840152601f01601f19160101970195949190910192019061076f565b90602080835192838152019201905f5b8181106107e05750505090565b825180516001600160a01b0316855260209081015181860152604090940193909201916001016107d3565b91610834906108266108429593606086526060860190610717565b908482036020860152610753565b9160408184039101526107c3565b90565b34610125576060366003190112610125576004356001600160401b038111610125576108759036906004016106b7565b60243561088181610114565b6044356001600160401b038111610125576108a09036906004016106e7565b93906108ab84611e21565b936108b581611e53565b955f5f5b83811061113457506108ca90611fa8565b945f925f5b8181106108ea57604051806108e68a8d8d8461080b565b0390f35b6108f5818389611e9c565b61091461090f6109086080840184612003565b3691612050565b612987565b9061092160208201612086565b9160608201359060a0830135888b818310611103575b50505061094383611ee6565b61094c81611ec8565b1580156110e8575b15610aea5750604051636eb1769f60e11b81526001600160a01b038716600482015230602482015291602083806044810103816001600160a01b0388165afa92831561036957858f8f9294876004976109f0975f91610abc575b50828015159182610ab1575b505015610a545750505f6109d1836109ea956120f3565b526109da612107565b6109e483836120f3565b526120f3565b50611ee6565b6109f981611ec8565b14610a0a575b506001905b016108cf565b60019195610a4d91610a2c610a1d611dfb565b6001600160a01b039092168252565b5f6020820152610a3c828c6120f3565b52610a47818b6120f3565b50611f04565b94906109ff565b610aa391610a7b6109da92610a6c876109ea996120f3565b6001600160a01b039091169052565b60405163095ea7b360e01b602082015230602482015260448101919091529182906064820190565b03601f198101835282611804565b10159050825f6109ba565b610add915060203d8111610ae3575b610ad58183611804565b8101906120a0565b5f6109ae565b503d610acb565b909392916001610af982611ee6565b610b0281611ec8565b1480156110a0575b15610be0575050604051636eb1769f60e11b81526001600160a01b038616600482015230602482015292602084806044810103816001600160a01b0386165afa90811561036957838d926001965f91610bc2575b50828015159182610bb7575b505015610ba35790505f9250610b7f916120f3565b52610b88612107565b610b92828d6120f3565b52610b9d818c6120f3565b50610a04565b610aa393610a6c610a7b92610b88956120f3565b10159050825f610b6a565b610bda915060203d8111610ae357610ad58183611804565b5f610b5e565b6002610bef829a94959a611ee6565b610bf881611ec8565b03610d4157506001600160a01b03811615610d1d576001600160a01b03165f908152600260205260409020610c30906104489061043b565b60405163a165437960e01b81526001600160a01b038716600482015230602482015293909290602085604481875afa801561036957898f8f9296610cb8976001995f91610cff575b5015610cbe57505f6109d183610c8d956120f3565b505b610ca9610c9a611dfb565b6001600160a01b039093168352565b6020820152610a3c828c6120f3565b94610a04565b610ccf90610a6c84610cf9966120f3565b60405163110496e560e01b6020820152306024820152600160448201526109da8160648101610aa3565b50610c8f565b610d17915060203d811161058d576105808183611804565b5f610c78565b50610c3061044861043b846001600160a01b03165f90815260026020526040902090565b906003610d4d83611ee6565b610d5681611ec8565b03610d815750506001600160a01b0382165f908152600260205260409020610c30906104489061043b565b90919293506005610d9183611ee6565b610d9a81611ec8565b03610e7e57506001600160a01b0383165f908152600260205260409020610dc4906104489061043b565b906001600160a01b038216610dfc575050610df090600192610c8f610de85f6120ce565b6103e8900490565b945f610b7f828c6120f3565b610e3b9291610e0f604060209301612086565b604051630dd3126d60e21b81526001600160a01b03909116600482015293849190829081906024820190565b03915afa92831561036957610c8f610de8600195610df0955f91610e60575b506120ce565b610e78915060203d8111610ae357610ad58183611804565b5f610e5a565b6006610e8d8399959499611ee6565b610e9681611ec8565b14610ea7575b505050600190610a04565b9296926001600160a01b038116801515908161108c575b5015610fe2576001600160a01b03165f908152600260205260409020610ee7906104489061043b565b906001600160a01b038216610f3e575050600191610f0b91610c8f610de85f6120ce565b945f610f17828c6120f3565b52610f20612107565b610f2a828d6120f3565b52610f35818c6120f3565b50905f80610e9c565b82610f869492610f52604060209401612086565b604051632e12a4f760e11b81526001600160a01b039182166004820152921660248301529094859190829081906044820190565b03915afa91821561036957610c8f610de86001600160801b03610f0b956001975f91610fb4575b50166120ce565b610fd5915060203d8111610fdb575b610fcd8183611804565b8101906120af565b5f610fad565b503d610fc3565b5061100561044861043b84959460018060a01b03165f52600260205260405f2090565b906001600160a01b038216611029575050610f0b90600192610c8f610de85f6120ce565b611068929161103c604060209301612086565b6040516370a0823160e01b81526001600160a01b03909116600482015293849190829081906024820190565b03915afa92831561036957610c8f610de8600195610f0b955f91610e6057506120ce565b6001600160a01b038516141590505f610ebe565b506110aa81611ee6565b6110b381611ec8565b15806110d6575b8015610b0a57506001600160a01b038281169084161415610b0a565b506001600160a01b03821615156110ba565b5060046110f484611ee6565b6110fd81611ec8565b14610954565b8261112993975060209495506111219261111c92612090565b612086565b94898c612090565b0135905f888b610937565b611147611142828689611e9c565b611ee6565b61115081611ec8565b600281149081156111d1575b81156111bc575b81156111a7575b8115611193575b5061117f575b6001016108b9565b9061118b600191611f04565b919050611177565b600691506111a081611ec8565b145f611171565b90506111b281611ec8565b600581149061116a565b90506111c781611ec8565b6004811490611163565b90506111dc81611ec8565b600381149061115c565b346101255760803660031901126101255760043561120381610114565b60243561120f81610114565b60443561121b81610114565b60643592337f00000000000000000000000000000000000000000000000000000000000000006001600160a01b0316148015611312575b61125b90611c97565b6112636128b7565b6001600160a01b039081165f908152600260205260409020546112869116610448565b61129a6001600160a01b0382161515611c4c565b803b1561012557835f9184836112c995604051968795869485936304c8826360e31b8552339060048601611dd0565b03925af18015610369576112fe575b506112e260018055565b604080516001600160a01b039290921682526020820192909252f35b8061055b5f61130c93611804565b5f6112d8565b50336001600160a01b03831614611252565b34610125575f3660031901126101255761133c612928565b5f80546001600160a01b0319811682556001600160a01b03167f8be0079c531659141344cd1fd0a4f28419497f9722a3daafe3b4186f6b6457e08280a3005b906020610842928181520190610717565b34610125575f3660031901126101255760405180602060035491828152019060035f527fc2575a0e9e593c00f959f8c92f12db2869c3395a3b0502d05e2516446f71f85b905f5b8181106113f6576108e6856113ea81870382611804565b6040519182918261137b565b82546001600160a01b03168452602090930192600192830192016113d3565b34610125575f366003190112610125575f546040516001600160a01b039091168152602090f35b346101255760403660031901126101255760043561145981610114565b60243561146581610114565b61146d612928565b6001600160a01b0382169081151580611538575b15611502578261030e916114ba6114b461044861044861043b6102be9960018060a01b03165f52600260205260405f2090565b1561220e565b6114e26114dd6102b56102ae8460018060a01b03165f52600460205260405f2090565b61225a565b6001600160a01b039182165f908152600260205260409020911693849190565b60405162461bcd60e51b815260206004820152600e60248201526d436f6d706f756e643a207a65726f60901b6044820152606490fd5b506001600160a01b0381161515611481565b9060206108429281815201906107c3565b34610125576040366003190112610125576004356001600160401b0381116101255761158b9036906004016106e7565b90602435906001600160401b0382116101255736602383011215610125578160040135906001600160401b038211610125573660248385010111610125576108e69360246115da94019161239e565b6040519182918261154a565b34610125576040366003190112610125576004356001600160401b0381116101255761161961164f9136906004016106b7565b9050611626602435610114565b6108e661163b61163583611e21565b92611e53565b604051938493604085526040850190610717565b908382036020850152610753565b346101255760203660031901126101255760043561167a81610114565b611682612928565b6001600160a01b031680156116d3575f80546001600160a01b03198116831782556001600160a01b0316907f8be0079c531659141344cd1fd0a4f28419497f9722a3daafe3b4186f6b6457e09080a3005b631e4fbdf760e01b5f525f60045260245ffd5b156116ed57565b60405162461bcd60e51b815260206004820152601460248201527313db9b1e481c9bdd5d195c8818d85b8818d85b1b60621b6044820152606490fd5b6117639291906101a8337f00000000000000000000000000000000000000000000000000000000000000006001600160a01b0316146116e6565b60018055565b1561177057565b60405162461bcd60e51b815260206004820152601e60248201527f436f6d706f756e643a206261736520636f6d6574206e6f7420666f756e6400006044820152606490fd5b634e487b7160e01b5f52604160045260245ffd5b604081019081106001600160401b038211176117e457604052565b6117b5565b60c081019081106001600160401b038211176117e457604052565b90601f801991011681019081106001600160401b038211176117e457604052565b90816020910312610125575180151581036101255790565b6040513d5f823e3d90fd5b9161186961044861043b8560018060a01b03165f52600260205260405f2090565b61187d6001600160a01b0382161515611769565b6001600160a01b038416611893833033846128d7565b60405163095ea7b360e01b81526001600160a01b03831660048201525f6024820152602081806044810103815f865af1801561036957611984575b5060405163095ea7b360e01b81526001600160a01b03831660048201526024810184905290602090829060449082905f905af1801561036957611967575b50803b1561012557604051634232cd6360e01b81526001600160a01b03938416600482015293909216602484015260448301525f908290606490829084905af18015610369576119595750565b8061055b5f61013493611804565b61197f9060203d60201161058d576105808183611804565b61190c565b61199c9060203d60201161058d576105808183611804565b6118ce565b90816020910312610125575161084281610114565b156119bd57565b60405162461bcd60e51b815260206004820152601060248201526f0436f6d706f756e643a20626173653d360841b6044820152606490fd5b156119fc57565b60405162461bcd60e51b815260206004820152601c60248201527f436f6d706f756e643a20616c72656164792072656769737465726564000000006044820152606490fd5b634e487b7160e01b5f52603260045260245ffd5b600354680100000000000000008110156117e4576001810180600355811015611abd5760035f527fc2575a0e9e593c00f959f8c92f12db2869c3395a3b0502d05e2516446f71f85b0180546001600160a01b0319166001600160a01b03909216919091179055565b611a41565b90929190611b06906104489061043b90610433337f00000000000000000000000000000000000000000000000000000000000000006001600160a01b0316146116e6565b611b1a6001600160a01b0382161515611c4c565b6001600160a01b038416611b30833033846128d7565b60405163095ea7b360e01b81526001600160a01b03831660048201525f6024820152602081806044810103815f865af1801561036957611c2f575b5060405163095ea7b360e01b81526001600160a01b03831660048201526024810184905290602090829060449082905f905af1801561036957611c12575b50803b1561012557604051634232cd6360e01b81526001600160a01b03938416600482015293909216602484015260448301525f908290606490829084905af1801561036957611bfe575b5061013460018055565b8061055b5f611c0c93611804565b5f611bf4565b611c2a9060203d60201161058d576105808183611804565b611ba9565b611c479060203d60201161058d576105808183611804565b611b6b565b15611c5357565b606460405162461bcd60e51b815260206004820152602060248201527f436f6d706f756e643a206d61726b657420636f6d6574206e6f7420666f756e646044820152fd5b15611c9e57565b60405162461bcd60e51b815260206004820152601c60248201527f4f6e6c7920726f75746572206f722073656c662063616e2063616c6c000000006044820152606490fd5b909190337f00000000000000000000000000000000000000000000000000000000000000006001600160a01b0316148015611dbe575b611d2290611c97565b611d2a6128b7565b6001600160a01b0381165f908152600260205260409020611d4e906104489061043b565b611d626001600160a01b0382161515611769565b803b1561012557825f918383611d9197604051988995869485936304c8826360e31b8552309060048601611dd0565b03925af192831561036957611db593610691575033906001600160a01b031661294e565b61013460018055565b50336001600160a01b03841614611d19565b6001600160a01b03918216815291811660208301529091166040820152606081019190915260800190565b60405190610134604083611804565b6001600160401b0381116117e45760051b60200190565b90611e2b82611e0a565b611e386040519182611804565b8281528092611e49601f1991611e0a565b0190602036910137565b90611e5d82611e0a565b611e6a6040519182611804565b8281528092611e7b601f1991611e0a565b01905f5b828110611e8b57505050565b806060602080938501015201611e7f565b9190811015611abd5760051b8101359060be1981360301821215610125570190565b6007111561012557565b60071115611ed257565b634e487b7160e01b5f52602160045260245ffd5b3561084281611ebe565b634e487b7160e01b5f52601160045260245ffd5b5f198114611f125760010190565b611ef0565b60408051909190611f288382611804565b6001815291601f1901825f5b828110611f4057505050565b602090604051611f4f816117c9565b5f81525f8382015282828501015201611f34565b60405190611f72602083611804565b5f80835282815b828110611f8557505050565b602090604051611f94816117c9565b5f81525f8382015282828501015201611f79565b90611fb282611e0a565b611fbf6040519182611804565b8281528092611fd0601f1991611e0a565b01905f5b828110611fe057505050565b602090604051611fef816117c9565b5f81525f8382015282828501015201611fd4565b903590601e198136030182121561012557018035906001600160401b0382116101255760200191813603831361012557565b6001600160401b0381116117e457601f01601f191660200190565b92919261205c82612035565b9161206a6040519384611804565b829481845281830111610125578281602093845f960137010152565b3561084281610114565b9190811015611abd5760061b0190565b90816020910312610125575190565b9081602091031261012557516001600160801b03811681036101255790565b906103e98202918083046103e91490151715611f1257565b805115611abd5760200190565b8051821015611abd5760209160051b010190565b60405190612116602083611804565b5f8252565b929392909190337f00000000000000000000000000000000000000000000000000000000000000006001600160a01b03161480156121fc575b61215d90611c97565b6121656128b7565b6001600160a01b039081165f908152600260205260409020546121889116610448565b61219c6001600160a01b0382161515611c4c565b803b1561012557845f9184836121cb95604051968795869485936304c8826360e31b8552339060048601611dd0565b03925af18015610369576121e8575b506121e460018055565b9190565b8061055b5f6121f693611804565b5f6121da565b50336001600160a01b03831614612154565b1561221557565b60405162461bcd60e51b815260206004820152601b60248201527f436f6d706f756e643a20636f6d657420616c72656164792073657400000000006044820152606490fd5b1561226157565b60405162461bcd60e51b815260206004820152602260248201527f436f6d706f756e643a20636f6d657420616c7265616479207265676973746572604482015261195960f21b6064820152608490fd5b9080601f830112156101255781602061084293359101612050565b919082602091031261012557604051602081018181106001600160401b038211176117e45760405291358252565b602081830312610125578035906001600160401b038211610125570160c081830312610125576040519161232d836117e9565b813561233881611ebe565b835261234660208301610129565b602084015261235760408301610129565b60408401526060820135606084015260808201356001600160401b038111610125578261238b8360a09361239696016122b1565b6080860152016122cc565b60a082015290565b90916123af906060948101906122fa565b926123bd6080850151612987565b60208501519093906001600160a01b0316918501519260a086019182515181811061288a575b5050505083516123f281611ec8565b6123fb81611ec8565b612473576001600160a01b038316801515908161245f575b501561243d576040939093015161243593906001600160a01b03165b92611ac2565b610842611f63565b6040939093015161245a939192506001600160a01b031690611729565b612435565b6001600160a01b038316141590505f612413565b6001849395945161248381611ec8565b61248c81611ec8565b036124ca57929361243593906001600160a01b038116156124bd57604061242f91945b01516001600160a01b031690565b5061242f604082946124af565b6002839293516124d981611ec8565b6124e281611ec8565b0361255657929361251893906001600160a01b03811615612549576040612512919301516001600160a01b031690565b9161211b565b9190612522611f17565b9261252e610c9a611dfb565b602082015261253c836120e6565b52612546826120e6565b50565b50612512604082936124af565b91936003825161256581611ec8565b61256e81611ec8565b0361259557506040015161258d9084906001600160a01b031683611ce3565b612522611f17565b600482939592516125a581611ec8565b6125ae81611ec8565b036125f25750604091909101516125cf91906001600160a01b031684611729565b6125d7611f17565b916125e3610a1d611dfb565b5f602082015261253c836120e6565b90506005825161260181611ec8565b61260a81611ec8565b036126b257506001600160a01b0383165f908152600260205260409020612634906104489061043b565b906001600160a01b03821661264f5750505f91612522611f17565b6040908101519051630dd3126d60e21b81526001600160a01b03909116600482015290602090829060249082905afa908115610369575f91612693575b509161258d565b6126ac915060203d602011610ae357610ad58183611804565b5f61268c565b600682516126bf81611ec8565b6126c881611ec8565b0361284e576001600160a01b038116801515908161283a575b501561279a576001600160a01b03165f90815260026020526040902061270a906104489061043b565b90836001600160a01b038316612728575050505f5b91612522611f17565b6040918201519151632e12a4f760e11b81526001600160a01b0392831660048201529116602482015290602090829060449082905afa8015610369576001600160801b03915f9161277b575b501661271f565b612794915060203d602011610fdb57610fcd8183611804565b5f612774565b506001600160a01b0383165f9081526002602052604090206127bf906104489061043b565b906001600160a01b0382166127d85750505f5b9161258d565b60409081015190516370a0823160e01b81526001600160a01b03909116600482015290602090829060249082905afa908115610369575f9161281b575b506127d2565b612834915060203d602011610ae357610ad58183611804565b5f612815565b6001600160a01b038616141590505f6126e1565b60405162461bcd60e51b81526020600482015260146024820152730436f6d706f756e643a20756e6b6e6f776e206f760641b6044820152606490fd5b6128ab9395506020945061111c6128a2918385612090565b94515191612090565b0135905f8080806123e3565b6002600154146128c8576002600155565b633ee5aeb560e01b5f5260045ffd5b6040516323b872dd60e01b60208201526001600160a01b03928316602482015292909116604483015260648201929092526101349161292382608481015b03601f198101845283611804565b61299f565b5f546001600160a01b0316330361293b57565b63118cdaa760e01b5f523360045260245ffd5b60405163a9059cbb60e01b60208201526001600160a01b0390921660248301526044820192909252610134916129238260648101612915565b905f916020815110156129975750565b602001519150565b5f806129e79260018060a01b03169360208151910182865af13d15612a33573d906129c982612035565b916129d76040519384611804565b82523d5f602084013e5b83612a3b565b8051908115159182612a18575b50506129fd5750565b635274afe760e01b5f526001600160a01b031660045260245ffd5b612a2b9250602080918301019101611825565b155f806129f4565b6060906129e1565b90612a5f5750805115612a5057805190602001fd5b630a12f52160e11b5f5260045ffd5b81511580612a90575b612a70575090565b639996b31560e01b5f9081526001600160a01b0391909116600452602490fd5b50803b15612a6856fea264697066735822122050f7095dab53bcd91d471d260a9cca1cd6a4b802fe723169e95b8e5d86f0efa664736f6c634300081e0033",
  "devdoc": {
    "errors": {
      "AddressEmptyCode(address)": [
        {
          "details": "There's no code at `target` (it is not a contract)."
        }
      ],
      "AddressInsufficientBalance(address)": [
        {
          "details": "The ETH balance of the account is not enough to perform the operation."
        }
      ],
      "FailedInnerCall()": [
        {
          "details": "A call to an address target failed. The target may have reverted."
        }
      ],
      "OwnableInvalidOwner(address)": [
        {
          "details": "The owner is not a valid owner account. (eg. `address(0)`)"
        }
      ],
      "OwnableUnauthorizedAccount(address)": [
        {
          "details": "The caller account is not authorized to perform an operation."
        }
      ],
      "ReentrancyGuardReentrantCall()": [
        {
          "details": "Unauthorized reentrant call."
        }
      ],
      "SafeERC20FailedOperation(address)": [
        {
          "details": "An operation with an ERC20 token failed."
        }
      ]
    },
    "kind": "dev",
    "methods": {
      "owner()": {
        "details": "Returns the address of the current owner."
      },
      "renounceOwnership()": {
        "details": "Leaves the contract without owner. It will not be possible to call `onlyOwner` functions. Can only be called by the current owner. NOTE: Renouncing ownership will leave the contract without an owner, thereby disabling any functionality that is only available to the owner."
      },
      "transferOwnership(address)": {
        "details": "Transfers ownership of the contract to a new account (`newOwner`). Can only be called by the current owner."
      }
    },
    "version": 1
  },
  "userdoc": {
    "kind": "user",
    "methods": {
      "ROUTER()": {
        "notice": "Immutable router address that can call protected functions"
      },
      "authorize((uint8,address,address,uint256,bytes,(uint256))[],address,(address,uint256)[])": {
        "notice": "Return user-side authorization calls for the given lending instructions.         One element per input (or (address(0), bytes(\"\")) if none needed).         Also returns the produced outputs from the simulation of these instructions."
      }
    },
    "version": 1
  },
  "storageLayout": {
    "storage": [
      {
        "astId": 8,
        "contract": "contracts/v2/gateways/compound/CompoundGatewayWrite.sol:CompoundGatewayWrite",
        "label": "_owner",
        "offset": 0,
        "slot": "0",
        "type": "t_address"
      },
      {
        "astId": 845,
        "contract": "contracts/v2/gateways/compound/CompoundGatewayWrite.sol:CompoundGatewayWrite",
        "label": "_status",
        "offset": 0,
        "slot": "1",
        "type": "t_uint256"
      },
      {
        "astId": 999,
        "contract": "contracts/v2/gateways/compound/CompoundGatewayWrite.sol:CompoundGatewayWrite",
        "label": "tokenToComet",
        "offset": 0,
        "slot": "2",
        "type": "t_mapping(t_address,t_contract(ICompoundComet)3005)"
      },
      {
        "astId": 1002,
        "contract": "contracts/v2/gateways/compound/CompoundGatewayWrite.sol:CompoundGatewayWrite",
        "label": "_comets",
        "offset": 0,
        "slot": "3",
        "type": "t_array(t_address)dyn_storage"
      },
      {
        "astId": 1006,
        "contract": "contracts/v2/gateways/compound/CompoundGatewayWrite.sol:CompoundGatewayWrite",
        "label": "_isRegistered",
        "offset": 0,
        "slot": "4",
        "type": "t_mapping(t_address,t_bool)"
      }
    ],
    "types": {
      "t_address": {
        "encoding": "inplace",
        "label": "address",
        "numberOfBytes": "20"
      },
      "t_array(t_address)dyn_storage": {
        "base": "t_address",
        "encoding": "dynamic_array",
        "label": "address[]",
        "numberOfBytes": "32"
      },
      "t_bool": {
        "encoding": "inplace",
        "label": "bool",
        "numberOfBytes": "1"
      },
      "t_contract(ICompoundComet)3005": {
        "encoding": "inplace",
        "label": "contract ICompoundComet",
        "numberOfBytes": "20"
      },
      "t_mapping(t_address,t_bool)": {
        "encoding": "mapping",
        "key": "t_address",
        "label": "mapping(address => bool)",
        "numberOfBytes": "32",
        "value": "t_bool"
      },
      "t_mapping(t_address,t_contract(ICompoundComet)3005)": {
        "encoding": "mapping",
        "key": "t_address",
        "label": "mapping(address => contract ICompoundComet)",
        "numberOfBytes": "32",
        "value": "t_contract(ICompoundComet)3005"
      },
      "t_uint256": {
        "encoding": "inplace",
        "label": "uint256",
        "numberOfBytes": "32"
      }
    }
  }
}