{
  "address": "0x3D4bAb9dd3D56aeac8DE6cb4e9cEF9eC35c7675f",
  "abi": [
    {
      "inputs": [
        {
          "internalType": "address",
          "name": "router",
          "type": "address"
        },
        {
          "internalType": "address",
          "name": "owner_",
          "type": "address"
        }
      ],
      "stateMutability": "nonpayable",
      "type": "constructor"
    },
    {
      "inputs": [
        {
          "internalType": "address",
          "name": "target",
          "type": "address"
        }
      ],
      "name": "AddressEmptyCode",
      "type": "error"
    },
    {
      "inputs": [
        {
          "internalType": "address",
          "name": "account",
          "type": "address"
        }
      ],
      "name": "AddressInsufficientBalance",
      "type": "error"
    },
    {
      "inputs": [],
      "name": "FailedInnerCall",
      "type": "error"
    },
    {
      "inputs": [
        {
          "internalType": "address",
          "name": "owner",
          "type": "address"
        }
      ],
      "name": "OwnableInvalidOwner",
      "type": "error"
    },
    {
      "inputs": [
        {
          "internalType": "address",
          "name": "account",
          "type": "address"
        }
      ],
      "name": "OwnableUnauthorizedAccount",
      "type": "error"
    },
    {
      "inputs": [],
      "name": "ReentrancyGuardReentrantCall",
      "type": "error"
    },
    {
      "inputs": [
        {
          "internalType": "address",
          "name": "token",
          "type": "address"
        }
      ],
      "name": "SafeERC20FailedOperation",
      "type": "error"
    },
    {
      "anonymous": false,
      "inputs": [
        {
          "indexed": true,
          "internalType": "address",
          "name": "baseToken",
          "type": "address"
        },
        {
          "indexed": true,
          "internalType": "address",
          "name": "comet",
          "type": "address"
        }
      ],
      "name": "CometRegistered",
      "type": "event"
    },
    {
      "anonymous": false,
      "inputs": [
        {
          "indexed": true,
          "internalType": "address",
          "name": "baseToken",
          "type": "address"
        },
        {
          "indexed": true,
          "internalType": "address",
          "name": "oldComet",
          "type": "address"
        },
        {
          "indexed": true,
          "internalType": "address",
          "name": "newComet",
          "type": "address"
        }
      ],
      "name": "CometReplaced",
      "type": "event"
    },
    {
      "anonymous": false,
      "inputs": [
        {
          "indexed": true,
          "internalType": "address",
          "name": "previousOwner",
          "type": "address"
        },
        {
          "indexed": true,
          "internalType": "address",
          "name": "newOwner",
          "type": "address"
        }
      ],
      "name": "OwnershipTransferred",
      "type": "event"
    },
    {
      "inputs": [],
      "name": "ROUTER",
      "outputs": [
        {
          "internalType": "address",
          "name": "",
          "type": "address"
        }
      ],
      "stateMutability": "view",
      "type": "function"
    },
    {
      "inputs": [
        {
          "internalType": "contract ICompoundComet",
          "name": "comet",
          "type": "address"
        }
      ],
      "name": "addComet",
      "outputs": [],
      "stateMutability": "nonpayable",
      "type": "function"
    },
    {
      "inputs": [],
      "name": "allComets",
      "outputs": [
        {
          "internalType": "address[]",
          "name": "",
          "type": "address[]"
        }
      ],
      "stateMutability": "view",
      "type": "function"
    },
    {
      "inputs": [
        {
          "components": [
            {
              "internalType": "enum ProtocolTypes.LendingOp",
              "name": "op",
              "type": "uint8"
            },
            {
              "internalType": "address",
              "name": "token",
              "type": "address"
            },
            {
              "internalType": "address",
              "name": "user",
              "type": "address"
            },
            {
              "internalType": "uint256",
              "name": "amount",
              "type": "uint256"
            },
            {
              "internalType": "bytes",
              "name": "context",
              "type": "bytes"
            },
            {
              "components": [
                {
                  "internalType": "uint256",
                  "name": "index",
                  "type": "uint256"
                }
              ],
              "internalType": "struct ProtocolTypes.InputPtr",
              "name": "input",
              "type": "tuple"
            }
          ],
          "internalType": "struct ProtocolTypes.LendingInstruction[]",
          "name": "instrs",
          "type": "tuple[]"
        },
        {
          "internalType": "address",
          "name": "caller",
          "type": "address"
        },
        {
          "components": [
            {
              "internalType": "address",
              "name": "token",
              "type": "address"
            },
            {
              "internalType": "uint256",
              "name": "amount",
              "type": "uint256"
            }
          ],
          "internalType": "struct ProtocolTypes.Output[]",
          "name": "inputs",
          "type": "tuple[]"
        }
      ],
      "name": "authorize",
      "outputs": [
        {
          "internalType": "address[]",
          "name": "targets",
          "type": "address[]"
        },
        {
          "internalType": "bytes[]",
          "name": "data",
          "type": "bytes[]"
        },
        {
          "components": [
            {
              "internalType": "address",
              "name": "token",
              "type": "address"
            },
            {
              "internalType": "uint256",
              "name": "amount",
              "type": "uint256"
            }
          ],
          "internalType": "struct ProtocolTypes.Output[]",
          "name": "produced",
          "type": "tuple[]"
        }
      ],
      "stateMutability": "view",
      "type": "function"
    },
    {
      "inputs": [
        {
          "components": [
            {
              "internalType": "enum ProtocolTypes.LendingOp",
              "name": "op",
              "type": "uint8"
            },
            {
              "internalType": "address",
              "name": "token",
              "type": "address"
            },
            {
              "internalType": "address",
              "name": "user",
              "type": "address"
            },
            {
              "internalType": "uint256",
              "name": "amount",
              "type": "uint256"
            },
            {
              "internalType": "bytes",
              "name": "context",
              "type": "bytes"
            },
            {
              "components": [
                {
                  "internalType": "uint256",
                  "name": "index",
                  "type": "uint256"
                }
              ],
              "internalType": "struct ProtocolTypes.InputPtr",
              "name": "input",
              "type": "tuple"
            }
          ],
          "internalType": "struct ProtocolTypes.LendingInstruction[]",
          "name": "instrs",
          "type": "tuple[]"
        },
        {
          "internalType": "address",
          "name": "",
          "type": "address"
        },
        {
          "components": [
            {
              "internalType": "address",
              "name": "token",
              "type": "address"
            },
            {
              "internalType": "uint256",
              "name": "amount",
              "type": "uint256"
            }
          ],
          "internalType": "struct ProtocolTypes.Output[]",
          "name": "inputs",
          "type": "tuple[]"
        }
      ],
      "name": "deauthorize",
      "outputs": [
        {
          "internalType": "address[]",
          "name": "targets",
          "type": "address[]"
        },
        {
          "internalType": "bytes[]",
          "name": "data",
          "type": "bytes[]"
        }
      ],
      "stateMutability": "view",
      "type": "function"
    },
    {
      "inputs": [],
      "name": "owner",
      "outputs": [
        {
          "internalType": "address",
          "name": "",
          "type": "address"
        }
      ],
      "stateMutability": "view",
      "type": "function"
    },
    {
      "inputs": [
        {
          "components": [
            {
              "internalType": "address",
              "name": "token",
              "type": "address"
            },
            {
              "internalType": "uint256",
              "name": "amount",
              "type": "uint256"
            }
          ],
          "internalType": "struct ProtocolTypes.Output[]",
          "name": "inputs",
          "type": "tuple[]"
        },
        {
          "internalType": "bytes",
          "name": "data",
          "type": "bytes"
        }
      ],
      "name": "processLendingInstruction",
      "outputs": [
        {
          "components": [
            {
              "internalType": "address",
              "name": "token",
              "type": "address"
            },
            {
              "internalType": "uint256",
              "name": "amount",
              "type": "uint256"
            }
          ],
          "internalType": "struct ProtocolTypes.Output[]",
          "name": "outputs",
          "type": "tuple[]"
        }
      ],
      "stateMutability": "nonpayable",
      "type": "function"
    },
    {
      "inputs": [],
      "name": "renounceOwnership",
      "outputs": [],
      "stateMutability": "nonpayable",
      "type": "function"
    },
    {
      "inputs": [
        {
          "internalType": "address",
          "name": "baseToken",
          "type": "address"
        },
        {
          "internalType": "address",
          "name": "comet_",
          "type": "address"
        }
      ],
      "name": "setCometForBase",
      "outputs": [],
      "stateMutability": "nonpayable",
      "type": "function"
    },
    {
      "inputs": [
        {
          "internalType": "address",
          "name": "",
          "type": "address"
        }
      ],
      "name": "tokenToComet",
      "outputs": [
        {
          "internalType": "contract ICompoundComet",
          "name": "",
          "type": "address"
        }
      ],
      "stateMutability": "view",
      "type": "function"
    },
    {
      "inputs": [
        {
          "internalType": "address",
          "name": "newOwner",
          "type": "address"
        }
      ],
      "name": "transferOwnership",
      "outputs": [],
      "stateMutability": "nonpayable",
      "type": "function"
    }
  ],
  "transactionHash": "0x76be2cad912d006372d886b9c2da9861f235f89d57fb9285605c2eb4f2ca275a",
  "args": [
    "0xf00dF09401AfBA1eF9f24b0ACe0720BcB3E5A1dc",
    "0x0BE61223F99E57b8b8B7033a77B54Adc7f7cF027"
  ],
  "numDeployments": 23,
  "solcInputHash": "709d9f7a48fd5d5bc745844086471562",
  "bytecode": "0x60a03461011e57601f61269e38819003918201601f19168301916001600160401b0383118484101761012257808492604094855283398101031261011e57610052602061004b83610136565b9201610136565b906001600160a01b038116156100ee576080526001600160a01b031680156100db575f80546001600160a01b031981168317825560405192916001600160a01b03909116907f8be0079c531659141344cd1fd0a4f28419497f9722a3daafe3b4186f6b6457e09080a360018055612553908161014b82396080518181816102bd015261180b0152f35b631e4fbdf760e01b5f525f60045260245ffd5b60405162461bcd60e51b81526020600482015260086024820152670726f757465723d360c41b6044820152606490fd5b5f80fd5b634e487b7160e01b5f52604160045260245ffd5b51906001600160a01b038216820361011e5756fe60806040526004361015610011575f80fd5b5f3560e01c806326e46ed3146100c45780632a8e3a49146100bf57806332fe7b26146100ba57806352ed5875146100b5578063715018a6146100b0578063755f62ce146100ab5780638da5cb5b146100a65780639f2204e8146100a1578063aad11a3f1461009c578063ae4be46d146100975763f2fde38b14610092575f80fd5b611206565b61117b565b610f37565b610e04565b610ddd565b610d54565b610cec565b6104c9565b6102a8565b610147565b610104565b6001600160a01b038116036100da57565b5f80fd5b35906100e9826100c9565b565b6001600160a01b03165f90815260026020526040902090565b346100da5760203660031901126100da57600435610121816100c9565b60018060a01b03165f526002602052602060018060a01b0360405f205416604051908152f35b346100da5760203660031901126100da57600435610164816100c9565b61016c611e70565b60405163c55dae6360e01b81526001600160a01b03821691602082600481865afa918215610299575f92610264575b506001600160a01b0382169161020d91906101ee906101bb85151561131f565b6100eb6101e96101e56101de8960018060a01b03165f52600460205260405f2090565b5460ff1690565b1590565b61135e565b80546001600160a01b0319166001600160a01b03909216919091179055565b6001600160a01b0382165f90815260046020526040902061023590805460ff19166001179055565b61023e826113be565b7fbd7bf039bc2e612983f7f581f4b5d456d978092d546243d55a7b3f8594fb97965f80a3005b61020d91925061028b9060203d602011610292575b61028381836112de565b8101906112ff565b919061019b565b503d610279565b611314565b5f9103126100da57565b346100da575f3660031901126100da576040517f00000000000000000000000000000000000000000000000000000000000000006001600160a01b03168152602090f35b9181601f840112156100da578235916001600160401b0383116100da576020808501948460061b0101116100da57565b9060606003198301126100da57600435916001600160401b0383116100da57806023840112156100da578260040135926001600160401b0384116100da578160248560051b830101116100da57602401929161037860246100de565b91604435906001600160401b0382116100da57610397916004016102ec565b9091565b90602080835192838152019201905f5b8181106103b85750505090565b82516001600160a01b03168452602093840193909201916001016103ab565b9080602083519182815201916020808360051b8301019401925f915b83831061040257505050505090565b909192939460208080600193601f19868203018752818a518051918291828552018484015e5f828201840152601f01601f1916010197019594919091019201906103f3565b90602080835192838152019201905f5b8181106104645750505090565b825180516001600160a01b031685526020908101518186015260409094019390920191600101610457565b916104b8906104aa6104c6959360608652606086019061039b565b9084820360208601526103d7565b916040818403910152610447565b90565b346100da576104d73661031c565b919092936104e485611451565b936104ee86611483565b955f5f5b828110610c3a5750610503906115d8565b945f915f5b818110610523576040518061051f8a8d8d8461048f565b0390f35b61052e8183886114cc565b61054d6105486105416080840184611633565b3691611680565b611e96565b90828c8c61055d602085016116b6565b946060850135908b60a08701358b8110610c0b575b505061057d86611516565b610586816114f8565b158015610bf0575b1561062e57505082600494925f6105ab6105ca966105c495611723565b526105b4611737565b6105be8383611723565b52611723565b50611516565b6105d3816114f8565b146105e4575b506001905b01610508565b60019194610627916106066105f761142b565b6001600160a01b039092168252565b5f6020820152610616828c611723565b52610621818b611723565b50611534565b93906105d9565b935093915050600161063f82611516565b610648816114f8565b148015610ba8575b1561068b5750505050805f6106676001938c611723565b52610670611737565b61067a828d611723565b52610685818c611723565b506105de565b600261069b829994959699611516565b6106a4816114f8565b0361083a575061072a93906001600160a01b03811615610816576001600160a01b03165f9081526002602052604090206106f6906106ea905b546001600160a01b031690565b6001600160a01b031690565b60405163a165437960e01b81526001600160a01b038c16600482015230602482015294909390602090869081906044820190565b0381875afa801561029957888f8f9296610788976001995f916107e8575b501561078e57505f6105ab8361075d95611723565b505b61077961076a61142b565b6001600160a01b039093168352565b6020820152610616828c611723565b936105de565b6107ae9061079f846107e296611723565b6001600160a01b039091169052565b60405163110496e560e01b6020820152306024820152600160448201526105b481606481015b03601f1981018352826112de565b5061075f565b610809915060203d811161080f575b61080181836112de565b81019061174b565b5f610748565b503d6107f7565b506106f66106ea6106dd836001600160a01b03165f90815260026020526040902090565b90600361084683611516565b61084f816114f8565b0361087a575050826106f66106ea6106dd61072a9660018060a01b03165f52600260205260405f2090565b90919250600561088983611516565b610892816114f8565b0361098657506001600160a01b0383165f9081526002602052604090206108bc906106ea906106dd565b906001600160a01b0382166108f45750506108e89060019261075f6108e05f6116fe565b6103e8900490565b935f610667828c611723565b61093392916109076040602093016116b6565b604051630dd3126d60e21b81526001600160a01b03909116600482015293849190829081906024820190565b03915afa9283156102995761075f6108e06001956108e8955f91610958575b506116fe565b610979915060203d811161097f575b61097181836112de565b8101906116d0565b5f610952565b503d610967565b60066109958398959498611516565b61099e816114f8565b146109af575b5050506001906105de565b9295926001600160a01b0381168015159081610b94575b5015610aea576001600160a01b03165f9081526002602052604090206109ef906106ea906106dd565b906001600160a01b038216610a46575050600191610a139161075f6108e05f6116fe565b935f610a1f828c611723565b52610a28611737565b610a32828d611723565b52610a3d818c611723565b50905f806109a4565b82610a8e9492610a5a6040602094016116b6565b604051632e12a4f760e11b81526001600160a01b039182166004820152921660248301529094859190829081906044820190565b03915afa9182156102995761075f6108e06001600160801b03610a13956001975f91610abc575b50166116fe565b610add915060203d8111610ae3575b610ad581836112de565b8101906116df565b5f610ab5565b503d610acb565b50610b0d6106ea6106dd84959460018060a01b03165f52600260205260405f2090565b906001600160a01b038216610b31575050610a139060019261075f6108e05f6116fe565b610b709291610b446040602093016116b6565b6040516370a0823160e01b81526001600160a01b03909116600482015293849190829081906024820190565b03915afa9283156102995761075f6108e0600195610a13955f9161095857506116fe565b6001600160a01b038516141590505f6109c6565b50610bb281611516565b610bbb816114f8565b1580610bde575b801561065057506001600160a01b038281169085161415610650565b506001600160a01b0382161515610bc2565b506004610bfc87611516565b610c05816114f8565b1461058e565b81985060209293508b610c2a610c258383610c30966116c0565b6116b6565b996116c0565b0135908b5f610572565b610c4d610c488285886114cc565b611516565b610c56816114f8565b60028114908115610cd7575b8115610cc2575b8115610cad575b8115610c99575b50610c85575b6001016104f2565b90610c91600191611534565b919050610c7d565b60069150610ca6816114f8565b145f610c77565b9050610cb8816114f8565b6005811490610c70565b9050610ccd816114f8565b6004811490610c69565b9050610ce2816114f8565b6003811490610c62565b346100da575f3660031901126100da57610d04611e70565b5f80546001600160a01b0319811682556001600160a01b03167f8be0079c531659141344cd1fd0a4f28419497f9722a3daafe3b4186f6b6457e08280a3005b9060206104c692818152019061039b565b346100da575f3660031901126100da5760405180602060035491828152019060035f527fc2575a0e9e593c00f959f8c92f12db2869c3395a3b0502d05e2516446f71f85b905f5b818110610dbe5761051f85610db2818703826112de565b60405191829182610d43565b82546001600160a01b0316845260209093019260019283019201610d9b565b346100da575f3660031901126100da575f546040516001600160a01b039091168152602090f35b346100da5760403660031901126100da57600435610e21816100c9565b602435610e2d816100c9565b610e35611e70565b6001600160a01b0382169081151580610f00575b15610eca578261023e91610e82610e7c6106ea6106ea6106dd6101ee9960018060a01b03165f52600260205260405f2090565b15611763565b610eaa610ea56101e56101de8460018060a01b03165f52600460205260405f2090565b6117af565b6001600160a01b039182165f908152600260205260409020911693849190565b60405162461bcd60e51b815260206004820152600e60248201526d436f6d706f756e643a207a65726f60901b6044820152606490fd5b506001600160a01b0381161515610e49565b9091610f296104c69360408452604084019061039b565b9160208184039101526103d7565b346100da57610f453661031c565b9092939150610f5384611451565b92610f5d85611483565b945f5b818110610f76576040518061051f898983610f12565b80610f8460019284886114cc565b610f976105486105416080840184611633565b610fa3602083016116b6565b9160a0810135888110611152575b506002610fbd82611516565b610fc6816114f8565b0361108457506106dd6106ea9161100193868060a01b03821615155f1461106957506001600160a01b03165f90815260026020526040902090565b828060a01b038116611016575b505b01610f60565b6110249061079f838a611723565b60405163110496e560e01b60208201523060248201525f604482015261104d81606481016107d4565b611057828a611723565b526110628189611723565b505f61100e565b90506001600160a01b03165f90815260026020526040902090565b6003915061109190611516565b61109a816114f8565b03611128576001600160a01b03165f9081526002602052604090206110c2906106ea906106dd565b828060a01b0381166110d5575b50611010565b6110e39061079f838a611723565b60405163110496e560e01b60208201523060248201525f604482015261110c81606481016107d4565b611116828a611723565b526111218189611723565b505f6110cf565b505f6111348289611723565b5261113d611737565b611147828a611723565b526110cf8189611723565b611163919350610c259089896116c0565b915f610fb1565b9060206104c6928181520190610447565b346100da5760403660031901126100da576004356001600160401b0381116100da576111ab9036906004016102ec565b90602435906001600160401b0382116100da57366023830112156100da578160040135906001600160401b0382116100da5736602483850101116100da5761051f9360246111fa940191611806565b6040519182918261116a565b346100da5760203660031901126100da57600435611223816100c9565b61122b611e70565b6001600160a01b0316801561127c575f80546001600160a01b03198116831782556001600160a01b0316907f8be0079c531659141344cd1fd0a4f28419497f9722a3daafe3b4186f6b6457e09080a3005b631e4fbdf760e01b5f525f60045260245ffd5b634e487b7160e01b5f52604160045260245ffd5b604081019081106001600160401b038211176112be57604052565b61128f565b60c081019081106001600160401b038211176112be57604052565b90601f801991011681019081106001600160401b038211176112be57604052565b908160209103126100da57516104c6816100c9565b6040513d5f823e3d90fd5b1561132657565b60405162461bcd60e51b815260206004820152601060248201526f0436f6d706f756e643a20626173653d360841b6044820152606490fd5b1561136557565b60405162461bcd60e51b815260206004820152601c60248201527f436f6d706f756e643a20616c72656164792072656769737465726564000000006044820152606490fd5b634e487b7160e01b5f52603260045260245ffd5b600354680100000000000000008110156112be5760018101806003558110156114265760035f527fc2575a0e9e593c00f959f8c92f12db2869c3395a3b0502d05e2516446f71f85b0180546001600160a01b0319166001600160a01b03909216919091179055565b6113aa565b604051906100e96040836112de565b6001600160401b0381116112be5760051b60200190565b9061145b8261143a565b61146860405191826112de565b8281528092611479601f199161143a565b0190602036910137565b9061148d8261143a565b61149a60405191826112de565b82815280926114ab601f199161143a565b01905f5b8281106114bb57505050565b8060606020809385010152016114af565b91908110156114265760051b8101359060be19813603018212156100da570190565b600a11156100da57565b600a111561150257565b634e487b7160e01b5f52602160045260245ffd5b356104c6816114ee565b634e487b7160e01b5f52601160045260245ffd5b5f1981146115425760010190565b611520565b6040805190919061155883826112de565b6001815291601f1901825f5b82811061157057505050565b60209060405161157f816112a3565b5f81525f8382015282828501015201611564565b604051906115a26020836112de565b5f80835282815b8281106115b557505050565b6020906040516115c4816112a3565b5f81525f83820152828285010152016115a9565b906115e28261143a565b6115ef60405191826112de565b8281528092611600601f199161143a565b01905f5b82811061161057505050565b60209060405161161f816112a3565b5f81525f8382015282828501015201611604565b903590601e19813603018212156100da57018035906001600160401b0382116100da576020019181360383136100da57565b6001600160401b0381116112be57601f01601f191660200190565b92919261168c82611665565b9161169a60405193846112de565b8294818452818301116100da578281602093845f960137010152565b356104c6816100c9565b91908110156114265760061b0190565b908160209103126100da575190565b908160209103126100da57516001600160801b03811681036100da5790565b906103e98202918083046103e9149015171561154257565b8051156114265760200190565b80518210156114265760209160051b010190565b604051906117466020836112de565b5f8252565b908160209103126100da575180151581036100da5790565b1561176a57565b60405162461bcd60e51b815260206004820152601b60248201527f436f6d706f756e643a20636f6d657420616c72656164792073657400000000006044820152606490fd5b156117b657565b60405162461bcd60e51b815260206004820152602260248201527f436f6d706f756e643a20636f6d657420616c7265616479207265676973746572604482015261195960f21b6064820152608490fd5b9290917f00000000000000000000000000000000000000000000000000000000000000006001600160a01b03163303611d475761184591810190611dcc565b916118536080840151611e96565b60208401519092906001600160a01b03169060608501519260a0860191825151818110611d1a575b50505050835161188a816114f8565b611893816114f8565b61190b576001600160a01b03831680151590816118f7575b50156118d557604093909301516118cd93906001600160a01b03165b9261221d565b6104c6611593565b604093909301516118f2939192506001600160a01b031690611eae565b6118cd565b6001600160a01b038316141590505f6118ab565b60018493945161191a816114f8565b611923816114f8565b0361195e576118cd936001600160a01b038116156119515760406118c791945b01516001600160a01b031690565b506118c760408294611943565b60028392935161196d816114f8565b611976816114f8565b036119e7576119a9936001600160a01b038116156119da5760406119a3919301516001600160a01b031690565b9161212e565b906119b2611547565b916119be61076a61142b565b60208201526119cc82611716565b526119d681611716565b5090565b506119a360408293611943565b9192600382516119f6816114f8565b6119ff816114f8565b03611a26575060400151611a1e9083906001600160a01b031683612070565b6119b2611547565b60048293949251611a36816114f8565b611a3f816114f8565b03611a83575060409190910151611a6091906001600160a01b031683611eae565b611a68611547565b90611a746105f761142b565b5f60208201526119cc82611716565b905060058251611a92816114f8565b611a9b816114f8565b03611b4357506001600160a01b0382165f908152600260205260409020611ac5906106ea906106dd565b906001600160a01b038216611ae05750505f906119b2611547565b6040908101519051630dd3126d60e21b81526001600160a01b03909116600482015290602090829060249082905afa908115610299575f91611b24575b5090611a1e565b611b3d915060203d60201161097f5761097181836112de565b5f611b1d565b60068251611b50816114f8565b611b59816114f8565b03611cde576001600160a01b0381168015159081611cca575b5015611c2a576001600160a01b03165f908152600260205260409020611b9b906106ea906106dd565b90826001600160a01b038316611bb8575050505f906119b2611547565b6040918201519151632e12a4f760e11b81526001600160a01b0392831660048201529116602482015290602090829060449082905afa8015610299576001600160801b03915f91611c0b575b50166119a9565b611c24915060203d602011610ae357610ad581836112de565b5f611c04565b506001600160a01b0382165f908152600260205260409020611c4f906106ea906106dd565b906001600160a01b038216611c685750505f5b90611a1e565b60409081015190516370a0823160e01b81526001600160a01b03909116600482015290602090829060249082905afa908115610299575f91611cab575b50611c62565b611cc4915060203d60201161097f5761097181836112de565b5f611ca5565b6001600160a01b038516141590505f611b72565b60405162461bcd60e51b81526020600482015260146024820152730436f6d706f756e643a20756e6b6e6f776e206f760641b6044820152606490fd5b611d3b93955060209450610c25611d329183856116c0565b945151916116c0565b0135905f80808061187b565b60405162461bcd60e51b815260206004820152601460248201527313db9b1e481c9bdd5d195c8818d85b8818d85b1b60621b6044820152606490fd5b9080601f830112156100da578160206104c693359101611680565b91908260209103126100da57604051602081018181106001600160401b038211176112be5760405291358252565b6020818303126100da578035906001600160401b0382116100da570160c0818303126100da5760405191611dff836112c3565b8135611e0a816114ee565b8352611e18602083016100de565b6020840152611e29604083016100de565b60408401526060820135606084015260808201356001600160401b0381116100da5782611e5d8360a093611e689601611d83565b608086015201611d9e565b60a082015290565b5f546001600160a01b03163303611e8357565b63118cdaa760e01b5f523360045260245ffd5b905f91602081511015611ea65750565b602001519150565b91611eb7612379565b6001600160a01b0383165f908152600260205260409020611edb906106ea906106dd565b611eef6001600160a01b0382161515612024565b6001600160a01b038416611f0583303384612399565b60405163095ea7b360e01b81526001600160a01b03831660048201525f6024820152602081806044810103815f865af1801561029957612007575b5060405163095ea7b360e01b81526001600160a01b03831660048201526024810184905290602090829060449082905f905af1801561029957611fea575b50803b156100da57604051634232cd6360e01b81526001600160a01b03938416600482015293909216602484015260448301525f908290606490829084905af1801561029957611fd0575b5060018055565b80611fde5f611fe4936112de565b8061029e565b5f611fc9565b6120029060203d60201161080f5761080181836112de565b611f7e565b61201f9060203d60201161080f5761080181836112de565b611f40565b1561202b57565b60405162461bcd60e51b815260206004820152601e60248201527f436f6d706f756e643a206261736520636f6d6574206e6f7420666f756e6400006044820152606490fd5b919061207a612379565b6001600160a01b0383165f908152600260205260409020546001600160a01b03166120a6811515612024565b803b156100da576040516304c8826360e31b81526001600160a01b0392831660048201523060248201529184166044830152606482018390525f908290608490829084905af1801561029957612115575b5061210c9133906001600160a01b03166123ea565b6100e960018055565b806121215f80936112de565b8003126100da575f6120f7565b93929391909161213c612379565b6001600160a01b039081165f90815260026020526040902054166121618115156121d2565b803b156100da576040516304c8826360e31b81526001600160a01b0392831660048201523360248201529183166044830152606482018590525f908290608490829084905af18015610299576121be575b5091906100e960018055565b80611fde5f6121cc936112de565b5f6121b2565b156121d957565b606460405162461bcd60e51b815260206004820152602060248201527f436f6d706f756e643a206d61726b657420636f6d6574206e6f7420666f756e646044820152fd5b6106ea6106dd61223392959493956100eb612379565b6122476001600160a01b03821615156121d2565b6001600160a01b03841661225d83303384612399565b60405163095ea7b360e01b81526001600160a01b03831660048201525f6024820152602081806044810103815f865af180156102995761235c575b5060405163095ea7b360e01b81526001600160a01b03831660048201526024810184905290602090829060449082905f905af180156102995761233f575b50803b156100da57604051634232cd6360e01b81526001600160a01b03938416600482015293909216602484015260448301525f908290606490829084905af180156102995761232b575b506100e960018055565b80611fde5f612339936112de565b5f612321565b6123579060203d60201161080f5761080181836112de565b6122d6565b6123749060203d60201161080f5761080181836112de565b612298565b60026001541461238a576002600155565b633ee5aeb560e01b5f5260045ffd5b6040516323b872dd60e01b60208201526001600160a01b03928316602482015292909116604483015260648201929092526100e9916123e582608481015b03601f1981018452836112de565b612423565b60405163a9059cbb60e01b60208201526001600160a01b03909216602483015260448201929092526100e9916123e582606481016123d7565b5f8061246b9260018060a01b03169360208151910182865af13d156124b7573d9061244d82611665565b9161245b60405193846112de565b82523d5f602084013e5b836124bf565b805190811515918261249c575b50506124815750565b635274afe760e01b5f526001600160a01b031660045260245ffd5b6124af925060208091830101910161174b565b155f80612478565b606090612465565b906124e357508051156124d457805190602001fd5b630a12f52160e11b5f5260045ffd5b81511580612514575b6124f4575090565b639996b31560e01b5f9081526001600160a01b0391909116600452602490fd5b50803b156124ec56fea2646970667358221220fbf658966d6d29b8507b394a83c66d90b132a64690dc22ee85035ac8ccf255df64736f6c634300081e0033",
  "devdoc": {
    "errors": {
      "AddressEmptyCode(address)": [
        {
          "details": "There's no code at `target` (it is not a contract)."
        }
      ],
      "AddressInsufficientBalance(address)": [
        {
          "details": "The ETH balance of the account is not enough to perform the operation."
        }
      ],
      "FailedInnerCall()": [
        {
          "details": "A call to an address target failed. The target may have reverted."
        }
      ],
      "OwnableInvalidOwner(address)": [
        {
          "details": "The owner is not a valid owner account. (eg. `address(0)`)"
        }
      ],
      "OwnableUnauthorizedAccount(address)": [
        {
          "details": "The caller account is not authorized to perform an operation."
        }
      ],
      "ReentrancyGuardReentrantCall()": [
        {
          "details": "Unauthorized reentrant call."
        }
      ],
      "SafeERC20FailedOperation(address)": [
        {
          "details": "An operation with an ERC20 token failed."
        }
      ]
    },
    "kind": "dev",
    "methods": {
      "owner()": {
        "details": "Returns the address of the current owner."
      },
      "renounceOwnership()": {
        "details": "Leaves the contract without owner. It will not be possible to call `onlyOwner` functions. Can only be called by the current owner. NOTE: Renouncing ownership will leave the contract without an owner, thereby disabling any functionality that is only available to the owner."
      },
      "transferOwnership(address)": {
        "details": "Transfers ownership of the contract to a new account (`newOwner`). Can only be called by the current owner."
      }
    },
    "version": 1
  },
  "userdoc": {
    "kind": "user",
    "methods": {
      "ROUTER()": {
        "notice": "Immutable router address that can call protected functions"
      },
      "authorize((uint8,address,address,uint256,bytes,(uint256))[],address,(address,uint256)[])": {
        "notice": "Return user-side authorization calls for the given lending instructions.         One element per input (or (address(0), bytes(\"\")) if none needed).         Also returns the produced outputs from the simulation of these instructions."
      }
    },
    "version": 1
  },
  "storageLayout": {
    "storage": [
      {
        "astId": 1432,
        "contract": "contracts/v2/gateways/compound/CompoundGatewayWrite.sol:CompoundGatewayWrite",
        "label": "_owner",
        "offset": 0,
        "slot": "0",
        "type": "t_address"
      },
      {
        "astId": 2269,
        "contract": "contracts/v2/gateways/compound/CompoundGatewayWrite.sol:CompoundGatewayWrite",
        "label": "_status",
        "offset": 0,
        "slot": "1",
        "type": "t_uint256"
      },
      {
        "astId": 4761,
        "contract": "contracts/v2/gateways/compound/CompoundGatewayWrite.sol:CompoundGatewayWrite",
        "label": "tokenToComet",
        "offset": 0,
        "slot": "2",
        "type": "t_mapping(t_address,t_contract(ICompoundComet)8675)"
      },
      {
        "astId": 4764,
        "contract": "contracts/v2/gateways/compound/CompoundGatewayWrite.sol:CompoundGatewayWrite",
        "label": "_comets",
        "offset": 0,
        "slot": "3",
        "type": "t_array(t_address)dyn_storage"
      },
      {
        "astId": 4768,
        "contract": "contracts/v2/gateways/compound/CompoundGatewayWrite.sol:CompoundGatewayWrite",
        "label": "_isRegistered",
        "offset": 0,
        "slot": "4",
        "type": "t_mapping(t_address,t_bool)"
      }
    ],
    "types": {
      "t_address": {
        "encoding": "inplace",
        "label": "address",
        "numberOfBytes": "20"
      },
      "t_array(t_address)dyn_storage": {
        "base": "t_address",
        "encoding": "dynamic_array",
        "label": "address[]",
        "numberOfBytes": "32"
      },
      "t_bool": {
        "encoding": "inplace",
        "label": "bool",
        "numberOfBytes": "1"
      },
      "t_contract(ICompoundComet)8675": {
        "encoding": "inplace",
        "label": "contract ICompoundComet",
        "numberOfBytes": "20"
      },
      "t_mapping(t_address,t_bool)": {
        "encoding": "mapping",
        "key": "t_address",
        "label": "mapping(address => bool)",
        "numberOfBytes": "32",
        "value": "t_bool"
      },
      "t_mapping(t_address,t_contract(ICompoundComet)8675)": {
        "encoding": "mapping",
        "key": "t_address",
        "label": "mapping(address => contract ICompoundComet)",
        "numberOfBytes": "32",
        "value": "t_contract(ICompoundComet)8675"
      },
      "t_uint256": {
        "encoding": "inplace",
        "label": "uint256",
        "numberOfBytes": "32"
      }
    }
  }
}