{
  "address": "0xE3Ba22037131592446c6E35f78827b72f4d74D75",
  "abi": [
    {
      "inputs": [
        {
          "internalType": "address",
          "name": "router",
          "type": "address"
        },
        {
          "internalType": "address",
          "name": "owner_",
          "type": "address"
        }
      ],
      "stateMutability": "nonpayable",
      "type": "constructor"
    },
    {
      "inputs": [
        {
          "internalType": "address",
          "name": "target",
          "type": "address"
        }
      ],
      "name": "AddressEmptyCode",
      "type": "error"
    },
    {
      "inputs": [
        {
          "internalType": "address",
          "name": "account",
          "type": "address"
        }
      ],
      "name": "AddressInsufficientBalance",
      "type": "error"
    },
    {
      "inputs": [],
      "name": "FailedInnerCall",
      "type": "error"
    },
    {
      "inputs": [
        {
          "internalType": "address",
          "name": "owner",
          "type": "address"
        }
      ],
      "name": "OwnableInvalidOwner",
      "type": "error"
    },
    {
      "inputs": [
        {
          "internalType": "address",
          "name": "account",
          "type": "address"
        }
      ],
      "name": "OwnableUnauthorizedAccount",
      "type": "error"
    },
    {
      "inputs": [],
      "name": "ReentrancyGuardReentrantCall",
      "type": "error"
    },
    {
      "inputs": [
        {
          "internalType": "address",
          "name": "token",
          "type": "address"
        }
      ],
      "name": "SafeERC20FailedOperation",
      "type": "error"
    },
    {
      "anonymous": false,
      "inputs": [
        {
          "indexed": true,
          "internalType": "address",
          "name": "baseToken",
          "type": "address"
        },
        {
          "indexed": true,
          "internalType": "address",
          "name": "comet",
          "type": "address"
        }
      ],
      "name": "CometRegistered",
      "type": "event"
    },
    {
      "anonymous": false,
      "inputs": [
        {
          "indexed": true,
          "internalType": "address",
          "name": "baseToken",
          "type": "address"
        },
        {
          "indexed": true,
          "internalType": "address",
          "name": "oldComet",
          "type": "address"
        },
        {
          "indexed": true,
          "internalType": "address",
          "name": "newComet",
          "type": "address"
        }
      ],
      "name": "CometReplaced",
      "type": "event"
    },
    {
      "anonymous": false,
      "inputs": [
        {
          "indexed": true,
          "internalType": "address",
          "name": "previousOwner",
          "type": "address"
        },
        {
          "indexed": true,
          "internalType": "address",
          "name": "newOwner",
          "type": "address"
        }
      ],
      "name": "OwnershipTransferred",
      "type": "event"
    },
    {
      "inputs": [],
      "name": "ROUTER",
      "outputs": [
        {
          "internalType": "address",
          "name": "",
          "type": "address"
        }
      ],
      "stateMutability": "view",
      "type": "function"
    },
    {
      "inputs": [
        {
          "internalType": "contract ICompoundComet",
          "name": "comet",
          "type": "address"
        }
      ],
      "name": "addComet",
      "outputs": [],
      "stateMutability": "nonpayable",
      "type": "function"
    },
    {
      "inputs": [],
      "name": "allComets",
      "outputs": [
        {
          "internalType": "address[]",
          "name": "",
          "type": "address[]"
        }
      ],
      "stateMutability": "view",
      "type": "function"
    },
    {
      "inputs": [
        {
          "components": [
            {
              "internalType": "enum ProtocolTypes.LendingOp",
              "name": "op",
              "type": "uint8"
            },
            {
              "internalType": "address",
              "name": "token",
              "type": "address"
            },
            {
              "internalType": "address",
              "name": "user",
              "type": "address"
            },
            {
              "internalType": "uint256",
              "name": "amount",
              "type": "uint256"
            },
            {
              "internalType": "bytes",
              "name": "context",
              "type": "bytes"
            },
            {
              "components": [
                {
                  "internalType": "uint256",
                  "name": "index",
                  "type": "uint256"
                }
              ],
              "internalType": "struct ProtocolTypes.InputPtr",
              "name": "input",
              "type": "tuple"
            }
          ],
          "internalType": "struct ProtocolTypes.LendingInstruction[]",
          "name": "instrs",
          "type": "tuple[]"
        },
        {
          "internalType": "address",
          "name": "",
          "type": "address"
        }
      ],
      "name": "authorize",
      "outputs": [
        {
          "internalType": "address[]",
          "name": "targets",
          "type": "address[]"
        },
        {
          "internalType": "bytes[]",
          "name": "data",
          "type": "bytes[]"
        }
      ],
      "stateMutability": "view",
      "type": "function"
    },
    {
      "inputs": [
        {
          "internalType": "address",
          "name": "token",
          "type": "address"
        },
        {
          "internalType": "address",
          "name": "user",
          "type": "address"
        },
        {
          "internalType": "uint256",
          "name": "amount",
          "type": "uint256"
        }
      ],
      "name": "borrow",
      "outputs": [],
      "stateMutability": "nonpayable",
      "type": "function"
    },
    {
      "inputs": [
        {
          "internalType": "address",
          "name": "token",
          "type": "address"
        },
        {
          "internalType": "address",
          "name": "onBehalfOf",
          "type": "address"
        },
        {
          "internalType": "uint256",
          "name": "amount",
          "type": "uint256"
        }
      ],
      "name": "deposit",
      "outputs": [],
      "stateMutability": "nonpayable",
      "type": "function"
    },
    {
      "inputs": [
        {
          "internalType": "address",
          "name": "market",
          "type": "address"
        },
        {
          "internalType": "address",
          "name": "collateral",
          "type": "address"
        },
        {
          "internalType": "uint256",
          "name": "amount",
          "type": "uint256"
        },
        {
          "internalType": "address",
          "name": "receiver",
          "type": "address"
        }
      ],
      "name": "depositCollateral",
      "outputs": [],
      "stateMutability": "nonpayable",
      "type": "function"
    },
    {
      "inputs": [],
      "name": "owner",
      "outputs": [
        {
          "internalType": "address",
          "name": "",
          "type": "address"
        }
      ],
      "stateMutability": "view",
      "type": "function"
    },
    {
      "inputs": [
        {
          "components": [
            {
              "internalType": "address",
              "name": "token",
              "type": "address"
            },
            {
              "internalType": "uint256",
              "name": "amount",
              "type": "uint256"
            }
          ],
          "internalType": "struct ProtocolTypes.Output[]",
          "name": "inputs",
          "type": "tuple[]"
        },
        {
          "internalType": "bytes",
          "name": "data",
          "type": "bytes"
        }
      ],
      "name": "processLendingInstruction",
      "outputs": [
        {
          "components": [
            {
              "internalType": "address",
              "name": "token",
              "type": "address"
            },
            {
              "internalType": "uint256",
              "name": "amount",
              "type": "uint256"
            }
          ],
          "internalType": "struct ProtocolTypes.Output[]",
          "name": "outputs",
          "type": "tuple[]"
        }
      ],
      "stateMutability": "nonpayable",
      "type": "function"
    },
    {
      "inputs": [],
      "name": "renounceOwnership",
      "outputs": [],
      "stateMutability": "nonpayable",
      "type": "function"
    },
    {
      "inputs": [
        {
          "internalType": "address",
          "name": "token",
          "type": "address"
        },
        {
          "internalType": "address",
          "name": "user",
          "type": "address"
        },
        {
          "internalType": "uint256",
          "name": "amount",
          "type": "uint256"
        }
      ],
      "name": "repay",
      "outputs": [],
      "stateMutability": "nonpayable",
      "type": "function"
    },
    {
      "inputs": [
        {
          "internalType": "address",
          "name": "baseToken",
          "type": "address"
        },
        {
          "internalType": "address",
          "name": "comet_",
          "type": "address"
        }
      ],
      "name": "setCometForBase",
      "outputs": [],
      "stateMutability": "nonpayable",
      "type": "function"
    },
    {
      "inputs": [
        {
          "internalType": "address",
          "name": "",
          "type": "address"
        }
      ],
      "name": "tokenToComet",
      "outputs": [
        {
          "internalType": "contract ICompoundComet",
          "name": "",
          "type": "address"
        }
      ],
      "stateMutability": "view",
      "type": "function"
    },
    {
      "inputs": [
        {
          "internalType": "address",
          "name": "newOwner",
          "type": "address"
        }
      ],
      "name": "transferOwnership",
      "outputs": [],
      "stateMutability": "nonpayable",
      "type": "function"
    },
    {
      "inputs": [
        {
          "internalType": "address",
          "name": "market",
          "type": "address"
        },
        {
          "internalType": "address",
          "name": "collateral",
          "type": "address"
        },
        {
          "internalType": "address",
          "name": "user",
          "type": "address"
        },
        {
          "internalType": "uint256",
          "name": "amount",
          "type": "uint256"
        }
      ],
      "name": "withdrawCollateral",
      "outputs": [
        {
          "internalType": "address",
          "name": "",
          "type": "address"
        },
        {
          "internalType": "uint256",
          "name": "",
          "type": "uint256"
        }
      ],
      "stateMutability": "nonpayable",
      "type": "function"
    }
  ],
  "transactionHash": "0xc5c4f5e27cfd47b1a9870d40906f009cbcc8c4a35c4404c9f34e7098b26cd555",
  "args": [
    "0xCfd1DE00a7B2e74BaF966396F43b7348F92c6Ff2",
    "0x0BE61223F99E57b8b8B7033a77B54Adc7f7cF027"
  ],
  "numDeployments": 2,
  "solcInputHash": "8fb4d5de4b82f19bc5e7aa1b9fd6a567",
  "bytecode": "0x60a060405234801561000f575f5ffd5b5060405161342938038061342983398101604081905261002e91610139565b80826001600160a01b03811661008b5760405162461bcd60e51b815260206004820152601d60248201527f526f7574657220616464726573732063616e6e6f74206265207a65726f00000060448201526064015b60405180910390fd5b6001600160a01b0390811660805281166100ba57604051631e4fbdf760e01b81525f6004820152602401610082565b6100c3816100cf565b5050600180555061016a565b5f80546001600160a01b038381166001600160a01b0319831681178455604051919092169283917f8be0079c531659141344cd1fd0a4f28419497f9722a3daafe3b4186f6b6457e09190a35050565b80516001600160a01b0381168114610134575f5ffd5b919050565b5f5f6040838503121561014a575f5ffd5b6101538361011e565b91506101616020840161011e565b90509250929050565b60805161328b61019e5f395f818161018b0152818161098a01528181610df40152818161103e01526111c5015261328b5ff3fe608060405234801561000f575f5ffd5b50600436106100f0575f3560e01c80635820ba63116100935780638da5cb5b116100635780638da5cb5b146102225780639f2204e814610232578063ae4be46d14610245578063f2fde38b14610265575f5ffd5b80635820ba63146101d3578063715018a614610205578063755f62ce1461020d5780638340f5491461011e575f5ffd5b80632a8e3a49116100ce5780632a8e3a491461017357806332fe7b26146101865780634108d0af146101ad5780635224372c146101c0575f5ffd5b806317c2a46b146100f45780631da649cf1461011e57806326e46ed314610133575b5f5ffd5b610107610102366004612701565b610278565b6040516101159291906127f2565b60405180910390f35b61013161012c366004612867565b61097f565b005b61015b6101413660046128a5565b60026020525f90815260409020546001600160a01b031681565b6040516001600160a01b039091168152602001610115565b6101316101813660046128a5565b610bcc565b61015b7f000000000000000000000000000000000000000000000000000000000000000081565b6101316101bb3660046128c0565b610de9565b6101316101ce366004612867565b611032565b6101e66101e1366004612910565b6111b7565b604080516001600160a01b039093168352602083019190915201610115565b61013161134e565b610215611361565b604051610115919061295e565b5f546001600160a01b031661015b565b610131610240366004612970565b6113c1565b6102586102533660046129eb565b61158f565b6040516101159190612a83565b6101316102733660046128a5565b6122cd565b6060805f5f5b85811015610455573687878381811061029957610299612ada565b90506020028101906102ab9190612aee565b90505f6102f76102be6080840184612b0c565b8080601f0160208091040260200160405190810160405280939291908181526020018383808284375f9201919091525061230a92505050565b90505f6103076020840184612b70565b600681111561031857610318612b4e565b14806103415750600461032e6020840184612b70565b600681111561033f5761033f612b4e565b145b15610358578361035081612b89565b94505061044b565b60016103676020840184612b70565b600681111561037857610378612b4e565b14806103e057505f61038d6020840184612b70565b600681111561039e5761039e612b4e565b1480156103b357506001600160a01b03811615155b80156103e057506103ca60408301602084016128a5565b6001600160a01b0316816001600160a01b031614155b156103ef578361035081612b89565b60026103fe6020840184612b70565b600681111561040f5761040f612b4e565b1480610438575060036104256020840184612b70565b600681111561043657610436612b4e565b145b1561044b578361044781612b89565b9450505b505060010161027e565b50806001600160401b0381111561046e5761046e612bad565b604051908082528060200260200182016040528015610497578160200160208202803683370190505b509250806001600160401b038111156104b2576104b2612bad565b6040519080825280602002602001820160405280156104e557816020015b60608152602001906001900390816104d05790505b5091505f5f5b86811015610974573688888381811061050657610506612ada565b90506020028101906105189190612aee565b90505f61052b6102be6080840184612b0c565b90505f61053b6020840184612b70565b600681111561054c5761054c612b4e565b1480610575575060046105626020840184612b70565b600681111561057357610573612b4e565b145b156106295761058a60408301602084016128a5565b87858151811061059c5761059c612ada565b6001600160a01b039290921660209283029190910182015260408051306024820152606085013560448083019190915282518083039091018152606490910190915290810180516001600160e01b031663095ea7b360e01b179052865187908690811061060b5761060b612ada565b6020026020010181905250838061062190612b89565b94505061096a565b60016106386020840184612b70565b600681111561064957610649612b4e565b14806106b157505f61065e6020840184612b70565b600681111561066f5761066f612b4e565b14801561068457506001600160a01b03811615155b80156106b1575061069b60408301602084016128a5565b6001600160a01b0316816001600160a01b031614155b1561076a575f6106c760408401602085016128a5565b9050808886815181106106dc576106dc612ada565b6001600160a01b039290921660209283029190910182015260408051306024820152606086013560448083019190915282518083039091018152606490910190915290810180516001600160e01b031663095ea7b360e01b179052875188908790811061074b5761074b612ada565b6020026020010181905250848061076190612b89565b9550505061096a565b60026107796020840184612b70565b600681111561078a5761078a612b4e565b03610875575f6001600160a01b0382166107b3576107ae60408401602085016128a5565b6107b5565b815b6001600160a01b038082165f908152600260205260409020548a51929350169081908a90889081106107e9576107e9612ada565b6001600160a01b039290921660209283029190910182015260408051306024820152600160448083019190915282518083039091018152606490910190915290810180516001600160e01b031663110496e560e01b179052885189908890811061085557610855612ada565b6020026020010181905250858061086b90612b89565b965050505061096a565b60036108846020840184612b70565b600681111561089557610895612b4e565b0361096a575f6002816108ae60408601602087016128a5565b6001600160a01b03908116825260208201929092526040015f205489519116915081908990879081106108e3576108e3612ada565b6001600160a01b039290921660209283029190910182015260408051306024820152600160448083019190915282518083039091018152606490910190915290810180516001600160e01b031663110496e560e01b179052875188908790811061094f5761094f612ada565b6020026020010181905250848061096590612b89565b955050505b50506001016104eb565b505050935093915050565b336001600160a01b037f000000000000000000000000000000000000000000000000000000000000000016146109f35760405162461bcd60e51b815260206004820152601460248201527313db9b1e481c9bdd5d195c8818d85b8818d85b1b60621b60448201526064015b60405180910390fd5b6109fb612320565b6001600160a01b038084165f908152600260205260409020541680610a625760405162461bcd60e51b815260206004820152601e60248201527f436f6d706f756e643a206261736520636f6d6574206e6f7420666f756e64000060448201526064016109ea565b610a776001600160a01b03851633308561234a565b60405163095ea7b360e01b81526001600160a01b0382811660048301525f602483015285169063095ea7b3906044016020604051808303815f875af1158015610ac2573d5f5f3e3d5ffd5b505050506040513d601f19601f82011682018060405250810190610ae69190612bc1565b5060405163095ea7b360e01b81526001600160a01b0382811660048301526024820184905285169063095ea7b3906044016020604051808303815f875af1158015610b33573d5f5f3e3d5ffd5b505050506040513d601f19601f82011682018060405250810190610b579190612bc1565b50604051634232cd6360e01b81526001600160a01b038481166004830152858116602483015260448201849052821690634232cd63906064015f604051808303815f87803b158015610ba7575f5ffd5b505af1158015610bb9573d5f5f3e3d5ffd5b5050505050610bc760018055565b505050565b610bd46123b1565b5f816001600160a01b031663c55dae636040518163ffffffff1660e01b8152600401602060405180830381865afa158015610c11573d5f5f3e3d5ffd5b505050506040513d601f19601f82011682018060405250810190610c359190612be0565b90506001600160a01b038116610c805760405162461bcd60e51b815260206004820152601060248201526f0436f6d706f756e643a20626173653d360841b60448201526064016109ea565b6001600160a01b038082165f90815260026020908152604080832080548786166001600160a01b03198216811790925590845260049092529091205491169060ff16610d2b576001600160a01b0383165f818152600460205260408120805460ff191660019081179091556003805491820181559091527fc2575a0e9e593c00f959f8c92f12db2869c3395a3b0502d05e2516446f71f85b0180546001600160a01b03191690911790555b826001600160a01b0316826001600160a01b03167fbd7bf039bc2e612983f7f581f4b5d456d978092d546243d55a7b3f8594fb979660405160405180910390a36001600160a01b03811615801590610d955750826001600160a01b0316816001600160a01b031614155b15610bc757826001600160a01b0316816001600160a01b0316836001600160a01b03167f526edd5dd90f5bf0182679e6bfd9599001c52b92e97523563c3302d3a030e29660405160405180910390a4505050565b336001600160a01b037f00000000000000000000000000000000000000000000000000000000000000001614610e585760405162461bcd60e51b815260206004820152601460248201527313db9b1e481c9bdd5d195c8818d85b8818d85b1b60621b60448201526064016109ea565b610e60612320565b6001600160a01b038085165f908152600260205260409020541680610ec75760405162461bcd60e51b815260206004820181905260248201527f436f6d706f756e643a206d61726b657420636f6d6574206e6f7420666f756e6460448201526064016109ea565b610edc6001600160a01b03851633308661234a565b60405163095ea7b360e01b81526001600160a01b0382811660048301525f602483015285169063095ea7b3906044016020604051808303815f875af1158015610f27573d5f5f3e3d5ffd5b505050506040513d601f19601f82011682018060405250810190610f4b9190612bc1565b5060405163095ea7b360e01b81526001600160a01b0382811660048301526024820185905285169063095ea7b3906044016020604051808303815f875af1158015610f98573d5f5f3e3d5ffd5b505050506040513d601f19601f82011682018060405250810190610fbc9190612bc1565b50604051634232cd6360e01b81526001600160a01b038381166004830152858116602483015260448201859052821690634232cd63906064015f604051808303815f87803b15801561100c575f5ffd5b505af115801561101e573d5f5f3e3d5ffd5b505050505061102c60018055565b50505050565b81336001600160a01b037f00000000000000000000000000000000000000000000000000000000000000001614806110725750336001600160a01b038216145b6110be5760405162461bcd60e51b815260206004820152601c60248201527f4f6e6c7920726f75746572206f722073656c662063616e2063616c6c0000000060448201526064016109ea565b6110c6612320565b6001600160a01b038085165f90815260026020526040902054168061112d5760405162461bcd60e51b815260206004820152601e60248201527f436f6d706f756e643a206261736520636f6d6574206e6f7420666f756e64000060448201526064016109ea565b6040516304c8826360e31b81526001600160a01b0385811660048301523060248301528681166044830152606482018590528216906326441318906084015f604051808303815f87803b158015611182575f5ffd5b505af1158015611194573d5f5f3e3d5ffd5b506111ad925050506001600160a01b03861633856123dd565b5061102c60018055565b5f8083336001600160a01b037f00000000000000000000000000000000000000000000000000000000000000001614806111f95750336001600160a01b038216145b6112455760405162461bcd60e51b815260206004820152601c60248201527f4f6e6c7920726f75746572206f722073656c662063616e2063616c6c0000000060448201526064016109ea565b61124d612320565b6001600160a01b038088165f9081526002602052604090205416806112b45760405162461bcd60e51b815260206004820181905260248201527f436f6d706f756e643a206d61726b657420636f6d6574206e6f7420666f756e6460448201526064016109ea565b6040516304c8826360e31b81526001600160a01b0387811660048301523060248301528881166044830152606482018790528216906326441318906084015f604051808303815f87803b158015611309575f5ffd5b505af115801561131b573d5f5f3e3d5ffd5b50611334925050506001600160a01b03881633876123dd565b8685935093505061134460018055565b5094509492505050565b6113566123b1565b61135f5f61240e565b565b606060038054806020026020016040519081016040528092919081815260200182805480156113b757602002820191905f5260205f20905b81546001600160a01b03168152600190910190602001808311611399575b5050505050905090565b6113c96123b1565b6001600160a01b038216158015906113e957506001600160a01b03811615155b6114265760405162461bcd60e51b815260206004820152600e60248201526d436f6d706f756e643a207a65726f60901b60448201526064016109ea565b6001600160a01b038083165f90815260026020908152604080832080548686166001600160a01b03198216811790925590845260049092529091205491169060ff166114d1576001600160a01b0382165f818152600460205260408120805460ff191660019081179091556003805491820181559091527fc2575a0e9e593c00f959f8c92f12db2869c3395a3b0502d05e2516446f71f85b0180546001600160a01b03191690911790555b816001600160a01b0316836001600160a01b03167fbd7bf039bc2e612983f7f581f4b5d456d978092d546243d55a7b3f8594fb979660405160405180910390a36001600160a01b0381161580159061153b5750816001600160a01b0316816001600160a01b031614155b15610bc757816001600160a01b0316816001600160a01b0316846001600160a01b03167f526edd5dd90f5bf0182679e6bfd9599001c52b92e97523563c3302d3a030e29660405160405180910390a4505050565b60606115b26040518060600160405280603681526020016130a66036913961245d565b6115d46040518060600160405280602281526020016131e860229139856124a0565b5f5b848110156116f25761166e6040518060400160405280601c81526020017f436f6d706f756e644761746577617957726974653a20696e7075745b0000000081525082604051806040016040528060078152602001662e903a37b5b2b760c91b81525089898681811061164a5761164a612ada565b61166092602060409092020190810191506128a5565b6001600160a01b03166124e9565b6116ea6040518060400160405280601c81526020017f436f6d706f756e644761746577617957726974653a20696e7075745b0000000081525082604051806040016040528060088152602001671748185b5bdd5b9d60c21b8152508989868181106116db576116db612ada565b905060400201602001356124e9565b6001016115d6565b50611715604051806060016040528060218152602001612e6b60219139836124a0565b5f61172283850185612c92565b90506117776040518060400160405280601881526020017f436f6d706f756e644761746577617957726974653a206f700000000000000000815250825f0151600681111561177257611772612b4e565b6124a0565b6117c36040518060400160405280601b81526020017f436f6d706f756e644761746577617957726974653a20746f6b656e000000000081525082602001516001600160a01b03166124a0565b61180f6040518060400160405280601a81526020017f436f6d706f756e644761746577617957726974653a207573657200000000000081525082604001516001600160a01b03166124a0565b6118526040518060400160405280601c81526020017f436f6d706f756e644761746577617957726974653a20616d6f756e740000000081525082606001516124a0565b6118796040518060600160405280602181526020016130dc6021913960a0830151516124a0565b5f611887826080015161230a565b90506118d16040518060400160405280601c81526020017f436f6d706f756e644761746577617957726974653a206d61726b657400000000815250826001600160a01b03166124a0565b6020820151606083015160a0840151518811156119905788888560a001515f015181811061190157611901612ada565b61191792602060409092020190810191506128a5565b915088888560a001515f015181811061193257611932612ada565b90506040020160200135905061196960405180606001604052806028815260200161316860289139836001600160a01b03166124a0565b61198b604051806060016040528060298152602001612ec560299139826124a0565b6119b1565b6119b16040518060600160405280602e8152602001612eee602e913961245d565b5f845160068111156119c5576119c5612b4e565b03611aa2576119eb60405180606001604052806027815260200161320a6027913961245d565b6001600160a01b03831615801590611a155750816001600160a01b0316836001600160a01b031614155b15611a2f57611a2a8383838760400151610de9565b611a3e565b611a3e8285604001518361097f565b604080515f8082526020820190925290611a79565b604080518082019091525f8082526020820152815260200190600190039081611a535790505b509450611a9d6040518060600160405280603281526020016131906032913961245d565b6122c1565b600184516006811115611ab757611ab7612b4e565b03611b6b57611add604051806060016040528060318152602001612f1c6031913961245d565b5f6001600160a01b038416611af25782611af4565b835b9050611b068184848860400151610de9565b604080515f8082526020820190925290611b41565b604080518082019091525f8082526020820152815260200190600190039081611b1b5790505b509550611b656040518060600160405280603c8152602001612fa5603c913961245d565b506122c1565b600284516006811115611b8057611b80612b4e565b03611ca157611ba66040518060600160405280603281526020016130fd6032913961245d565b5f6001600160a01b038416611bbb5782611bbd565b835b90505f5f611bd183868960400151876111b7565b604080516001808252818301909252929450909250816020015b604080518082019091525f8082526020820152815260200190600190039081611beb5790505097506040518060400160405280836001600160a01b0316815260200182815250885f81518110611c4357611c43612ada565b6020026020010181905250611c9960405180606001604052806039815260200161312f60399139836001600160a01b031660405180604001604052806006815260200165185b5bdd5b9d60d21b815250846124e9565b5050506122c1565b600384516006811115611cb657611cb6612b4e565b03611dae57611cdc6040518060600160405280602681526020016131c26026913961245d565b611ceb82856040015183611032565b60408051600180825281830190925290816020015b604080518082019091525f8082526020820152815260200190600190039081611d005790505094506040518060400160405280836001600160a01b0316815260200182815250855f81518110611d5857611d58612ada565b6020026020010181905250611a9d6040518060600160405280602d8152602001613040602d9139836001600160a01b031660405180604001604052806006815260200165185b5bdd5b9d60d21b815250846124e9565b600484516006811115611dc357611dc3612b4e565b03611e9157611de96040518060600160405280602581526020016132316025913961245d565b611df88285604001518361097f565b60408051600180825281830190925290816020015b604080518082019091525f8082526020820152815260200190600190039081611e0d5790505094506040518060400160405280836001600160a01b031681526020015f815250855f81518110611e6557611e65612ada565b6020026020010181905250611a9d6040518060600160405280602f8152602001612fe1602f913961245d565b600584516006811115611ea657611ea6612b4e565b0361200757611ecc6040518060600160405280603081526020016130106030913961245d565b6001600160a01b038083165f90815260026020526040812054909116908115611f62576040868101519051630dd3126d60e21b81526001600160a01b0391821660048201529083169063374c49b490602401602060405180830381865afa158015611f39573d5f5f3e3d5ffd5b505050506040513d601f19601f82011682018060405250810190611f5d9190612da8565b611f64565b5f5b604080516001808252818301909252919250816020015b604080518082019091525f8082526020820152815260200190600190039081611f7b5790505096506040518060400160405280856001600160a01b0316815260200182815250875f81518110611fd357611fd3612ada565b602002602001018190525061200060405180606001604052806039815260200161306d60399139826124a0565b50506122c1565b60068451600681111561201c5761201c612b4e565b0361225357612042604051806060016040528060308152602001612f4d6030913961245d565b5f6001600160a01b0384161580159061206d5750826001600160a01b0316846001600160a01b031614155b15612120576001600160a01b038085165f90815260026020526040902054168015612116576040868101519051632e12a4f760e11b81526001600160a01b039182166004820152858216602482015290821690635c2549ee90604401602060405180830381865afa1580156120e4573d5f5f3e3d5ffd5b505050506040513d601f19601f820116820180604052508101906121089190612dbf565b6001600160801b0316612118565b5f5b9150506121b9565b6001600160a01b038084165f908152600260205260409020541680156121b35760408681015190516370a0823160e01b81526001600160a01b039182166004820152908216906370a0823190602401602060405180830381865afa15801561218a573d5f5f3e3d5ffd5b505050506040513d601f19601f820116820180604052508101906121ae9190612da8565b6121b5565b5f5b9150505b60408051600180825281830190925290816020015b604080518082019091525f80825260208201528152602001906001900390816121ce5790505095506040518060400160405280846001600160a01b0316815260200182815250865f8151811061222657612226612ada565b6020026020010181905250611b65604051806060016040528060398152602001612e8c60399139826124a0565b612282604051806060016040528060288152602001612f7d602891398551600681111561177257611772612b4e565b60405162461bcd60e51b81526020600482015260146024820152730436f6d706f756e643a20756e6b6e6f776e206f760641b60448201526064016109ea565b50505050949350505050565b6122d56123b1565b6001600160a01b0381166122fe57604051631e4fbdf760e01b81525f60048201526024016109ea565b6123078161240e565b50565b5f602082511061231b575060208101515b919050565b60026001540361234357604051633ee5aeb560e01b815260040160405180910390fd5b6002600155565b6040516001600160a01b03848116602483015283811660448301526064820183905261102c9186918216906323b872dd906084015b604051602081830303815290604052915060e01b6020820180516001600160e01b038381831617835250505050612532565b5f546001600160a01b0316331461135f5760405163118cdaa760e01b81523360048201526024016109ea565b6040516001600160a01b03838116602483015260448201839052610bc791859182169063a9059cbb9060640161237f565b5f80546001600160a01b038381166001600160a01b0319831681178455604051919092169283917f8be0079c531659141344cd1fd0a4f28419497f9722a3daafe3b4186f6b6457e09190a35050565b612307816040516024016124719190612de5565b60408051601f198184030181529190526020810180516001600160e01b031663104c13eb60e21b179052612593565b6124e582826040516024016124b6929190612df7565b60408051601f198184030181529190526020810180516001600160e01b0316632d839cb360e21b179052612593565b5050565b61102c848484846040516024016125039493929190612e18565b60408051601f198184030181529190526020810180516001600160e01b031663c67ea9d160e01b179052612593565b5f6125466001600160a01b0384168361259c565b905080515f1415801561256a5750808060200190518101906125689190612bc1565b155b15610bc757604051635274afe760e01b81526001600160a01b03841660048201526024016109ea565b612307816125b0565b60606125a983835f6125cf565b9392505050565b5f6a636f6e736f6c652e6c6f6790505f5f835160208501845afa505050565b6060814710156125f45760405163cd78605960e01b81523060048201526024016109ea565b5f5f856001600160a01b0316848660405161260f9190612e54565b5f6040518083038185875af1925050503d805f8114612649576040519150601f19603f3d011682016040523d82523d5f602084013e61264e565b606091505b509150915061265e868383612668565b9695505050505050565b60608261267d57612678826126c4565b6125a9565b815115801561269457506001600160a01b0384163b155b156126bd57604051639996b31560e01b81526001600160a01b03851660048201526024016109ea565b50806125a9565b8051156126d45780518082602001fd5b604051630a12f52160e11b815260040160405180910390fd5b6001600160a01b0381168114612307575f5ffd5b5f5f5f60408486031215612713575f5ffd5b83356001600160401b03811115612728575f5ffd5b8401601f81018613612738575f5ffd5b80356001600160401b0381111561274d575f5ffd5b8660208260051b8401011115612761575f5ffd5b602091820194509250840135612776816126ed565b809150509250925092565b5f8151808452602084019350602083015f5b828110156127ba5781516001600160a01b0316865260209586019590910190600101612793565b5093949350505050565b5f81518084528060208401602086015e5f602082860101526020601f19601f83011685010191505092915050565b604081525f6128046040830185612781565b828103602084015280845180835260208301915060208160051b840101602087015f5b8381101561285957601f198684030185526128438383516127c4565b6020958601959093509190910190600101612827565b509098975050505050505050565b5f5f5f60608486031215612879575f5ffd5b8335612884816126ed565b92506020840135612894816126ed565b929592945050506040919091013590565b5f602082840312156128b5575f5ffd5b81356125a9816126ed565b5f5f5f5f608085870312156128d3575f5ffd5b84356128de816126ed565b935060208501356128ee816126ed565b9250604085013591506060850135612905816126ed565b939692955090935050565b5f5f5f5f60808587031215612923575f5ffd5b843561292e816126ed565b9350602085013561293e816126ed565b9250604085013561294e816126ed565b9396929550929360600135925050565b602081525f6125a96020830184612781565b5f5f60408385031215612981575f5ffd5b823561298c816126ed565b9150602083013561299c816126ed565b809150509250929050565b5f5f83601f8401126129b7575f5ffd5b5081356001600160401b038111156129cd575f5ffd5b6020830191508360208285010111156129e4575f5ffd5b9250929050565b5f5f5f5f604085870312156129fe575f5ffd5b84356001600160401b03811115612a13575f5ffd5b8501601f81018713612a23575f5ffd5b80356001600160401b03811115612a38575f5ffd5b8760208260061b8401011115612a4c575f5ffd5b6020918201955093508501356001600160401b03811115612a6b575f5ffd5b612a77878288016129a7565b95989497509550505050565b602080825282518282018190525f918401906040840190835b81811015612acf57835180516001600160a01b031684526020908101518185015290930192604090920191600101612a9c565b509095945050505050565b634e487b7160e01b5f52603260045260245ffd5b5f823560be19833603018112612b02575f5ffd5b9190910192915050565b5f5f8335601e19843603018112612b21575f5ffd5b8301803591506001600160401b03821115612b3a575f5ffd5b6020019150368190038213156129e4575f5ffd5b634e487b7160e01b5f52602160045260245ffd5b80356007811061231b575f5ffd5b5f60208284031215612b80575f5ffd5b6125a982612b62565b5f60018201612ba657634e487b7160e01b5f52601160045260245ffd5b5060010190565b634e487b7160e01b5f52604160045260245ffd5b5f60208284031215612bd1575f5ffd5b815180151581146125a9575f5ffd5b5f60208284031215612bf0575f5ffd5b81516125a9816126ed565b60405160c081016001600160401b0381118282101715612c1d57612c1d612bad565b60405290565b604051601f8201601f191681016001600160401b0381118282101715612c4b57612c4b612bad565b604052919050565b5f60208284031215612c63575f5ffd5b604051602081016001600160401b0381118282101715612c8557612c85612bad565b6040529135825250919050565b5f60208284031215612ca2575f5ffd5b81356001600160401b03811115612cb7575f5ffd5b820160c08185031215612cc8575f5ffd5b612cd0612bfb565b612cd982612b62565b81526020820135612ce9816126ed565b60208201526040820135612cfc816126ed565b60408201526060828101359082015260808201356001600160401b03811115612d23575f5ffd5b8201601f81018613612d33575f5ffd5b80356001600160401b03811115612d4c57612d4c612bad565b612d5f601f8201601f1916602001612c23565b818152876020838501011115612d73575f5ffd5b816020840160208301375f60208383010152806080850152505050612d9b8560a08401612c53565b60a0820152949350505050565b5f60208284031215612db8575f5ffd5b5051919050565b5f60208284031215612dcf575f5ffd5b81516001600160801b03811681146125a9575f5ffd5b602081525f6125a960208301846127c4565b604081525f612e0960408301856127c4565b90508260208301529392505050565b608081525f612e2a60808301876127c4565b8560208401528281036040840152612e4281866127c4565b91505082606083015295945050505050565b5f82518060208501845e5f92019182525091905056fe436f6d706f756e644761746577617957726974653a2064617461206c656e677468436f6d706f756e644761746577617957726974653a20476574537570706c7942616c616e636520636f6d706c657465642c2062616c616e6365436f6d706f756e644761746577617957726974653a207573696e67205554584f202d20616d6f756e74436f6d706f756e644761746577617957726974653a207573696e6720696e737472756374696f6e20706172616d73436f6d706f756e644761746577617957726974653a20657865637574696e67204465706f736974436f6c6c61746572616c436f6d706f756e644761746577617957726974653a20657865637574696e6720476574537570706c7942616c616e6365436f6d706f756e644761746577617957726974653a204552524f52202d20756e6b6e6f776e206f70436f6d706f756e644761746577617957726974653a204465706f736974436f6c6c61746572616c20636f6d706c657465642c2030206f757470757473436f6d706f756e644761746577617957726974653a20526570617920636f6d706c657465642c203020726566756e64436f6d706f756e644761746577617957726974653a20657865637574696e6720476574426f72726f7742616c616e6365436f6d706f756e644761746577617957726974653a20426f72726f7720636f6d706c657465642c20746f6b656e436f6d706f756e644761746577617957726974653a20476574426f72726f7742616c616e636520636f6d706c657465642c2062616c616e6365436f6d706f756e644761746577617957726974653a2070726f636573734c656e64696e67496e737472756374696f6e2063616c6c6564436f6d706f756e644761746577617957726974653a20696e7075742e696e646578436f6d706f756e644761746577617957726974653a20657865637574696e67205769746864726177436f6c6c61746572616c436f6d706f756e644761746577617957726974653a205769746864726177436f6c6c61746572616c20636f6d706c657465642c20746f6b656e436f6d706f756e644761746577617957726974653a207573696e67205554584f202d20746f6b656e436f6d706f756e644761746577617957726974653a204465706f73697420636f6d706c657465642c2030206f757470757473436f6d706f756e644761746577617957726974653a20657865637574696e6720426f72726f77436f6d706f756e644761746577617957726974653a20696e7075747320636f756e74436f6d706f756e644761746577617957726974653a20657865637574696e67204465706f736974436f6d706f756e644761746577617957726974653a20657865637574696e67205265706179a264697066735822122031baf7470c5ee003eb9222c41522d1df8bbb116c622de9d61381c585984092c664736f6c634300081e0033",
  "devdoc": {
    "errors": {
      "AddressEmptyCode(address)": [
        {
          "details": "There's no code at `target` (it is not a contract)."
        }
      ],
      "AddressInsufficientBalance(address)": [
        {
          "details": "The ETH balance of the account is not enough to perform the operation."
        }
      ],
      "FailedInnerCall()": [
        {
          "details": "A call to an address target failed. The target may have reverted."
        }
      ],
      "OwnableInvalidOwner(address)": [
        {
          "details": "The owner is not a valid owner account. (eg. `address(0)`)"
        }
      ],
      "OwnableUnauthorizedAccount(address)": [
        {
          "details": "The caller account is not authorized to perform an operation."
        }
      ],
      "ReentrancyGuardReentrantCall()": [
        {
          "details": "Unauthorized reentrant call."
        }
      ],
      "SafeERC20FailedOperation(address)": [
        {
          "details": "An operation with an ERC20 token failed."
        }
      ]
    },
    "kind": "dev",
    "methods": {
      "owner()": {
        "details": "Returns the address of the current owner."
      },
      "renounceOwnership()": {
        "details": "Leaves the contract without owner. It will not be possible to call `onlyOwner` functions. Can only be called by the current owner. NOTE: Renouncing ownership will leave the contract without an owner, thereby disabling any functionality that is only available to the owner."
      },
      "transferOwnership(address)": {
        "details": "Transfers ownership of the contract to a new account (`newOwner`). Can only be called by the current owner."
      }
    },
    "version": 1
  },
  "userdoc": {
    "kind": "user",
    "methods": {},
    "version": 1
  },
  "storageLayout": {
    "storage": [
      {
        "astId": 1432,
        "contract": "contracts/v2/gateways/compound/CompoundGatewayWrite.sol:CompoundGatewayWrite",
        "label": "_owner",
        "offset": 0,
        "slot": "0",
        "type": "t_address"
      },
      {
        "astId": 2269,
        "contract": "contracts/v2/gateways/compound/CompoundGatewayWrite.sol:CompoundGatewayWrite",
        "label": "_status",
        "offset": 0,
        "slot": "1",
        "type": "t_uint256"
      },
      {
        "astId": 6376,
        "contract": "contracts/v2/gateways/compound/CompoundGatewayWrite.sol:CompoundGatewayWrite",
        "label": "tokenToComet",
        "offset": 0,
        "slot": "2",
        "type": "t_mapping(t_address,t_contract(ICompoundComet)8296)"
      },
      {
        "astId": 6379,
        "contract": "contracts/v2/gateways/compound/CompoundGatewayWrite.sol:CompoundGatewayWrite",
        "label": "_comets",
        "offset": 0,
        "slot": "3",
        "type": "t_array(t_address)dyn_storage"
      },
      {
        "astId": 6383,
        "contract": "contracts/v2/gateways/compound/CompoundGatewayWrite.sol:CompoundGatewayWrite",
        "label": "_isRegistered",
        "offset": 0,
        "slot": "4",
        "type": "t_mapping(t_address,t_bool)"
      }
    ],
    "types": {
      "t_address": {
        "encoding": "inplace",
        "label": "address",
        "numberOfBytes": "20"
      },
      "t_array(t_address)dyn_storage": {
        "base": "t_address",
        "encoding": "dynamic_array",
        "label": "address[]",
        "numberOfBytes": "32"
      },
      "t_bool": {
        "encoding": "inplace",
        "label": "bool",
        "numberOfBytes": "1"
      },
      "t_contract(ICompoundComet)8296": {
        "encoding": "inplace",
        "label": "contract ICompoundComet",
        "numberOfBytes": "20"
      },
      "t_mapping(t_address,t_bool)": {
        "encoding": "mapping",
        "key": "t_address",
        "label": "mapping(address => bool)",
        "numberOfBytes": "32",
        "value": "t_bool"
      },
      "t_mapping(t_address,t_contract(ICompoundComet)8296)": {
        "encoding": "mapping",
        "key": "t_address",
        "label": "mapping(address => contract ICompoundComet)",
        "numberOfBytes": "32",
        "value": "t_contract(ICompoundComet)8296"
      },
      "t_uint256": {
        "encoding": "inplace",
        "label": "uint256",
        "numberOfBytes": "32"
      }
    }
  }
}