{
  "address": "0x2197f7f6369FeFDE4B461bF6CdE898fD730a3255",
  "abi": [
    {
      "inputs": [
        {
          "internalType": "address",
          "name": "_router",
          "type": "address"
        },
        {
          "internalType": "address",
          "name": "_owner",
          "type": "address"
        }
      ],
      "stateMutability": "nonpayable",
      "type": "constructor"
    },
    {
      "inputs": [
        {
          "internalType": "address",
          "name": "target",
          "type": "address"
        }
      ],
      "name": "AddressEmptyCode",
      "type": "error"
    },
    {
      "inputs": [
        {
          "internalType": "address",
          "name": "account",
          "type": "address"
        }
      ],
      "name": "AddressInsufficientBalance",
      "type": "error"
    },
    {
      "inputs": [],
      "name": "FailedInnerCall",
      "type": "error"
    },
    {
      "inputs": [],
      "name": "FlashLoanInProgress",
      "type": "error"
    },
    {
      "inputs": [],
      "name": "InvalidLender",
      "type": "error"
    },
    {
      "inputs": [],
      "name": "OnlyRouter",
      "type": "error"
    },
    {
      "inputs": [],
      "name": "OnlySettlement",
      "type": "error"
    },
    {
      "inputs": [
        {
          "internalType": "address",
          "name": "owner",
          "type": "address"
        }
      ],
      "name": "OwnableInvalidOwner",
      "type": "error"
    },
    {
      "inputs": [
        {
          "internalType": "address",
          "name": "account",
          "type": "address"
        }
      ],
      "name": "OwnableUnauthorizedAccount",
      "type": "error"
    },
    {
      "inputs": [
        {
          "internalType": "address",
          "name": "token",
          "type": "address"
        }
      ],
      "name": "SafeERC20FailedOperation",
      "type": "error"
    },
    {
      "inputs": [],
      "name": "UnauthorizedCaller",
      "type": "error"
    },
    {
      "anonymous": false,
      "inputs": [
        {
          "indexed": true,
          "internalType": "address",
          "name": "lender",
          "type": "address"
        },
        {
          "indexed": true,
          "internalType": "address",
          "name": "token",
          "type": "address"
        },
        {
          "indexed": false,
          "internalType": "uint256",
          "name": "amount",
          "type": "uint256"
        },
        {
          "indexed": false,
          "internalType": "enum LenderType",
          "name": "lenderType",
          "type": "uint8"
        }
      ],
      "name": "FlashLoanRequested",
      "type": "event"
    },
    {
      "anonymous": false,
      "inputs": [
        {
          "indexed": true,
          "internalType": "address",
          "name": "lender",
          "type": "address"
        },
        {
          "indexed": false,
          "internalType": "bool",
          "name": "allowed",
          "type": "bool"
        },
        {
          "indexed": false,
          "internalType": "enum LenderType",
          "name": "lenderType",
          "type": "uint8"
        }
      ],
      "name": "LenderUpdated",
      "type": "event"
    },
    {
      "anonymous": false,
      "inputs": [
        {
          "indexed": true,
          "internalType": "address",
          "name": "token",
          "type": "address"
        },
        {
          "indexed": true,
          "internalType": "address",
          "name": "recipient",
          "type": "address"
        },
        {
          "indexed": false,
          "internalType": "uint256",
          "name": "amount",
          "type": "uint256"
        }
      ],
      "name": "OrderFunded",
      "type": "event"
    },
    {
      "anonymous": false,
      "inputs": [
        {
          "indexed": true,
          "internalType": "address",
          "name": "previousOwner",
          "type": "address"
        },
        {
          "indexed": true,
          "internalType": "address",
          "name": "newOwner",
          "type": "address"
        }
      ],
      "name": "OwnershipTransferred",
      "type": "event"
    },
    {
      "inputs": [
        {
          "internalType": "address",
          "name": "",
          "type": "address"
        }
      ],
      "name": "allowedLenders",
      "outputs": [
        {
          "internalType": "bool",
          "name": "",
          "type": "bool"
        }
      ],
      "stateMutability": "view",
      "type": "function"
    },
    {
      "inputs": [
        {
          "internalType": "contract IERC20",
          "name": "token",
          "type": "address"
        },
        {
          "internalType": "address",
          "name": "target",
          "type": "address"
        },
        {
          "internalType": "uint256",
          "name": "amount",
          "type": "uint256"
        }
      ],
      "name": "approve",
      "outputs": [],
      "stateMutability": "nonpayable",
      "type": "function"
    },
    {
      "inputs": [
        {
          "internalType": "address",
          "name": "asset",
          "type": "address"
        },
        {
          "internalType": "uint256",
          "name": "amount",
          "type": "uint256"
        },
        {
          "internalType": "uint256",
          "name": "premium",
          "type": "uint256"
        },
        {
          "internalType": "address",
          "name": "initiator",
          "type": "address"
        },
        {
          "internalType": "bytes",
          "name": "params",
          "type": "bytes"
        }
      ],
      "name": "executeOperation",
      "outputs": [
        {
          "internalType": "bool",
          "name": "",
          "type": "bool"
        }
      ],
      "stateMutability": "nonpayable",
      "type": "function"
    },
    {
      "inputs": [
        {
          "internalType": "address",
          "name": "lender",
          "type": "address"
        },
        {
          "internalType": "contract IERC20",
          "name": "token",
          "type": "address"
        },
        {
          "internalType": "uint256",
          "name": "amount",
          "type": "uint256"
        },
        {
          "internalType": "bytes",
          "name": "callbackData",
          "type": "bytes"
        }
      ],
      "name": "flashLoanAndCallBack",
      "outputs": [],
      "stateMutability": "nonpayable",
      "type": "function"
    },
    {
      "inputs": [
        {
          "internalType": "address",
          "name": "token",
          "type": "address"
        },
        {
          "internalType": "address",
          "name": "recipient",
          "type": "address"
        },
        {
          "internalType": "uint256",
          "name": "amount",
          "type": "uint256"
        }
      ],
      "name": "fundOrder",
      "outputs": [],
      "stateMutability": "nonpayable",
      "type": "function"
    },
    {
      "inputs": [
        {
          "internalType": "address",
          "name": "lender",
          "type": "address"
        }
      ],
      "name": "getLenderType",
      "outputs": [
        {
          "internalType": "enum LenderType",
          "name": "",
          "type": "uint8"
        }
      ],
      "stateMutability": "view",
      "type": "function"
    },
    {
      "inputs": [],
      "name": "getRouter",
      "outputs": [
        {
          "internalType": "address",
          "name": "",
          "type": "address"
        }
      ],
      "stateMutability": "view",
      "type": "function"
    },
    {
      "inputs": [],
      "name": "getSettlementContract",
      "outputs": [
        {
          "internalType": "address",
          "name": "",
          "type": "address"
        }
      ],
      "stateMutability": "view",
      "type": "function"
    },
    {
      "inputs": [],
      "name": "isInFlashLoan",
      "outputs": [
        {
          "internalType": "bool",
          "name": "",
          "type": "bool"
        }
      ],
      "stateMutability": "view",
      "type": "function"
    },
    {
      "inputs": [
        {
          "internalType": "address",
          "name": "",
          "type": "address"
        }
      ],
      "name": "lenderTypes",
      "outputs": [
        {
          "internalType": "enum LenderType",
          "name": "",
          "type": "uint8"
        }
      ],
      "stateMutability": "view",
      "type": "function"
    },
    {
      "inputs": [
        {
          "internalType": "uint256",
          "name": "assets",
          "type": "uint256"
        },
        {
          "internalType": "bytes",
          "name": "data",
          "type": "bytes"
        }
      ],
      "name": "onMorphoFlashLoan",
      "outputs": [],
      "stateMutability": "nonpayable",
      "type": "function"
    },
    {
      "inputs": [],
      "name": "owner",
      "outputs": [
        {
          "internalType": "address",
          "name": "",
          "type": "address"
        }
      ],
      "stateMutability": "view",
      "type": "function"
    },
    {
      "inputs": [],
      "name": "renounceOwnership",
      "outputs": [],
      "stateMutability": "nonpayable",
      "type": "function"
    },
    {
      "inputs": [
        {
          "internalType": "address",
          "name": "token",
          "type": "address"
        },
        {
          "internalType": "address",
          "name": "to",
          "type": "address"
        },
        {
          "internalType": "uint256",
          "name": "amount",
          "type": "uint256"
        }
      ],
      "name": "rescueTokens",
      "outputs": [],
      "stateMutability": "nonpayable",
      "type": "function"
    },
    {
      "inputs": [],
      "name": "router",
      "outputs": [
        {
          "internalType": "contract IFlashLoanRouter",
          "name": "",
          "type": "address"
        }
      ],
      "stateMutability": "view",
      "type": "function"
    },
    {
      "inputs": [
        {
          "internalType": "address",
          "name": "lender",
          "type": "address"
        },
        {
          "internalType": "bool",
          "name": "allowed",
          "type": "bool"
        }
      ],
      "name": "setAaveLender",
      "outputs": [],
      "stateMutability": "nonpayable",
      "type": "function"
    },
    {
      "inputs": [
        {
          "internalType": "address",
          "name": "lender",
          "type": "address"
        },
        {
          "internalType": "bool",
          "name": "allowed",
          "type": "bool"
        }
      ],
      "name": "setLender",
      "outputs": [],
      "stateMutability": "nonpayable",
      "type": "function"
    },
    {
      "inputs": [
        {
          "internalType": "address",
          "name": "lender",
          "type": "address"
        },
        {
          "internalType": "bool",
          "name": "allowed",
          "type": "bool"
        }
      ],
      "name": "setMorphoLender",
      "outputs": [],
      "stateMutability": "nonpayable",
      "type": "function"
    },
    {
      "inputs": [],
      "name": "settlementContract",
      "outputs": [
        {
          "internalType": "address",
          "name": "",
          "type": "address"
        }
      ],
      "stateMutability": "view",
      "type": "function"
    },
    {
      "inputs": [
        {
          "internalType": "address",
          "name": "newOwner",
          "type": "address"
        }
      ],
      "name": "transferOwnership",
      "outputs": [],
      "stateMutability": "nonpayable",
      "type": "function"
    }
  ],
  "transactionHash": "0x49981b83e03110e96ff9bf7117ae1d3b3cfb9128b3795f5c963cfe0e3f15b732",
  "args": [
    "0x9da8B48441583a2b93e2eF8213aAD0EC0b392C69",
    "0x0BE61223F99E57b8b8B7033a77B54Adc7f7cF027"
  ],
  "numDeployments": 1,
  "solcInputHash": "ed074f71f735c71eb3dd1e5f8ee31e8e",
  "bytecode": "0x60c08060405234610143576040816111af803803809161001f828561016d565b83398101031261014357610032816101a4565b906001600160a01b0390610048906020016101a4565b16801561015a575f80546001600160a01b0319811683178255604051936020938593600493859392916001600160a01b03909116907f8be0079c531659141344cd1fd0a4f28419497f9722a3daafe3b4186f6b6457e09080a36001600160a01b0316608081905263ea42418b60e01b82525afa90811561014f575f91610111575b5060a052604051610ff690816101b9823960805181818161010b0152818161036a015281816104d90152818161083401526109e0015260a0518181816101d90152610bc70152f35b90506020813d602011610147575b8161012c6020938361016d565b810103126101435761013d906101a4565b5f6100c9565b5f80fd5b3d915061011f565b6040513d5f823e3d90fd5b631e4fbdf760e01b5f525f60045260245ffd5b601f909101601f19168101906001600160401b0382119082101761019057604052565b634e487b7160e01b5f52604160045260245ffd5b51906001600160a01b03821682036101435756fe60806040526004361015610011575f80fd5b5f5f3560e01c80631b11d0ff1461091d57806331f570721461073b578063366d8f3d146106fc5780633ff5af8f146104045780635678d2161461049057806360db1bc21461046b578063665bf3d0146103c0578063715018a6146104245780637cd223c9146104045780638382075a146103c05780638da5cb5b14610399578063b0f479a114610354578063ba4d4392146102f6578063cea9d26f146102ab578063dc127d09146101b0578063e1a3503b14610227578063e1f21c67146101b5578063ea42418b146101b0578063f2fde38b1461013d5763f887ea40146100f6575f80fd5b3461013a578060031936011261013a576040517f00000000000000000000000000000000000000000000000000000000000000006001600160a01b03168152602090f35b80fd5b503461013a57602036600319011261013a57610157610ae3565b61015f610e23565b6001600160a01b0316801561019c5781546001600160a01b03198116821783556001600160a01b03165f516020610fa15f395f51905f528380a380f35b631e4fbdf760e01b82526004829052602482fd5b610bb2565b503461013a57606036600319011261013a576101cf610ae3565b6101d7610af9565b7f00000000000000000000000000000000000000000000000000000000000000006001600160a01b0316330361021857906102159160443591610d2f565b80f35b630ad98cbb60e11b8352600483fd5b503461013a5760405f516020610f815f395f51905f5261024636610b3c565b9290610250610e23565b6001600160a01b03168085526004602052818520805460ff191660ff861515161790559280156102a25761029060025b8587526003602052838720610c8c565b8151901515815260026020820152a280f35b61029085610280565b503461013a576102ba36610b78565b906102c6939293610e23565b60ff835460a01c166102e757919261021592906001600160a01b0316610e49565b636d9b07e760e11b8352600483fd5b503461013a577e2359f304b8464c859c155522e44f8652d8e890288a45e8de86c3cab7961654602061032736610b78565b936001600160a01b039092169290610340858286610e49565b6040519485526001600160a01b031693a380f35b503461013a578060031936011261013a576040517f00000000000000000000000000000000000000000000000000000000000000006001600160a01b03168152602090f35b503461013a578060031936011261013a57546040516001600160a01b039091168152602090f35b503461013a57602036600319011261013a5760209060ff906040906001600160a01b036103eb610ae3565b168152600384522054166104026040518092610b6b565bf35b503461013a5761021561041636610b3c565b9061041f610e23565b610ca4565b503461013a578060031936011261013a5761043d610e23565b80546001600160a01b03198116825581906001600160a01b03165f516020610fa15f395f51905f528280a380f35b503461013a578060031936011261013a5760ff6020915460a01c166040519015158152f35b503461013a57608036600319011261013a576104aa610ae3565b906104b3610af9565b604435906064356001600160401b0381116106f8576104d6903690600401610b0f565b947f00000000000000000000000000000000000000000000000000000000000000006001600160a01b031633036106e9576001600160a01b03168085526004602052604085205490929060ff16156106db5760ff855460a01c166106cc5760018060a01b0316918260018060a01b031960015416176001558060018060a01b03196002541617600255808552600360205260ff6040862054169583827fae1167dd988b206ad4318c5abda297dffa2222fafb9f16468d03d866a3431dd6604080518981526105a7602082018d610b6b565ba360038710156106b85760028697145f14610657576105e7906105d96040519485926020808501526040840191610c2d565b03601f198101845283610bf6565b803b1561065357610624938580946040519687958694859363701195a160e11b855260048501526024840152606060448401526064830190610c68565b03925af180156106485761063757505080f35b8161064191610bf6565b61013a5780f35b6040513d84823e3d90fd5b8480fd5b9193813b156106b45785809461069b604051978896879586946310ac2ddf60e21b86523060048701526024860152604485015260a0606485015260a4840191610c2d565b82608483015203925af180156106485761063757505080f35b8580fd5b634e487b7160e01b86526021600452602486fd5b636d9b07e760e11b8552600485fd5b6221eeab60e81b8552600485fd5b639e41bdd760e01b8552600485fd5b8380fd5b503461013a57602036600319011261013a5760209060ff906040906001600160a01b03610727610ae3565b168152600484522054166040519015158152f35b503461013a57604036600319011261013a576024356001600160401b0381116109195761076c903690600401610b0f565b600254909291906001600160a01b0316330361090a57338252600360205260ff60408320541660038110156108f6576002036108e85781928101906020818303126108df578035906001600160401b0382116108e3570181601f820112156108df578035906107da82610c4d565b926107e86040519485610bf6565b828452602083830101116108e35781849260208093018386013783010152815460ff60a01b1916600160a01b178255600154610832906004359033906001600160a01b0316610d2f565b7f00000000000000000000000000000000000000000000000000000000000000006001600160a01b0316803b156108df576040516306d7234360e11b8152602060048201529183918391829084908290610890906024830190610c68565b03925af18015610648576108ca575b50805460ff60a01b19168155600180546001600160a01b031990811690915560028054909116905580f35b816108d491610bf6565b61013a57805f61089f565b5050fd5b505050fd5b6221eeab60e81b8252600482fd5b634e487b7160e01b83526021600452602483fd5b635c427cd960e01b8252600482fd5b5080fd5b5034610a9a5760a0366003190112610a9a57610937610ae3565b6064356001600160a01b0381169160243591839003610a9a576084356001600160401b038111610a9a5761096f903690600401610b0f565b60025491949093916001600160a01b03163303610ab257335f52600360205260ff60405f2054166003811015610acf57600103610ac1573003610ab2575f805460ff60a01b1916600160a01b1790556044358101908110610a9e576109de9133906001600160a01b0316610d2f565b7f00000000000000000000000000000000000000000000000000000000000000006001600160a01b031691823b15610a9a57610a3b925f92836040518096819582946306d7234360e11b8452602060048501526024840191610c2d565b03925af18015610a8f57610a7c575b50805460ff60a01b19169055600180546001600160a01b03199081168255600280549091169055604051908152602090f35b610a8891505f90610bf6565b5f5f610a4a565b6040513d5f823e3d90fd5b5f80fd5b634e487b7160e01b5f52601160045260245ffd5b635c427cd960e01b5f5260045ffd5b6221eeab60e81b5f5260045ffd5b634e487b7160e01b5f52602160045260245ffd5b600435906001600160a01b0382168203610a9a57565b602435906001600160a01b0382168203610a9a57565b9181601f84011215610a9a578235916001600160401b038311610a9a5760208381860195010111610a9a57565b6040906003190112610a9a576004356001600160a01b0381168103610a9a57906024358015158103610a9a5790565b906003821015610acf5752565b6060906003190112610a9a576004356001600160a01b0381168103610a9a57906024356001600160a01b0381168103610a9a579060443590565b34610a9a575f366003190112610a9a576040517f00000000000000000000000000000000000000000000000000000000000000006001600160a01b03168152602090f35b601f909101601f19168101906001600160401b03821190821017610c1957604052565b634e487b7160e01b5f52604160045260245ffd5b908060209392818452848401375f828201840152601f01601f1916010190565b6001600160401b038111610c1957601f01601f191660200190565b805180835260209291819084018484015e5f828201840152601f01601f1916010190565b906003811015610acf5760ff80198354169116179055565b60405f516020610f815f395f51905f529160018060a01b031692835f526004602052610cde81835f209060ff801983541691151516179055565b8015610d0b57610cfa60015b855f526003602052835f20610c8c565b8151901515815260016020820152a2565b610cfa5f610cea565b6001600160a01b039091168152602081019190915260400190565b91909160405191610d6483610d56602082019363095ea7b360e01b85528760248401610d14565b03601f198101855284610bf6565b82516001600160a01b038316915f91829182855af190610d82610e70565b82610df1575b5081610de6575b5015610d9a57505050565b60405163095ea7b360e01b60208201526001600160a01b0390931660248401525f6044808501919091528352610de492610ddf90610dd9606482610bf6565b82610eb7565b610eb7565b565b90503b15155f610d8f565b80519192508115918215610e09575b5050905f610d88565b610e1c9250602080918301019101610e9f565b5f80610e00565b5f546001600160a01b03163303610e3657565b63118cdaa760e01b5f523360045260245ffd5b610ddf610de493926105d960405194859263a9059cbb60e01b602085015260248401610d14565b3d15610e9a573d90610e8182610c4d565b91610e8f6040519384610bf6565b82523d5f602084013e565b606090565b90816020910312610a9a57518015158103610a9a5790565b5f80610edf9260018060a01b03169360208151910182865af1610ed8610e70565b9083610f22565b8051908115159182610f07575b5050610ef55750565b635274afe760e01b5f5260045260245ffd5b610f1a9250602080918301019101610e9f565b155f80610eec565b90610f465750805115610f3757805190602001fd5b630a12f52160e11b5f5260045ffd5b81511580610f77575b610f57575090565b639996b31560e01b5f9081526001600160a01b0391909116600452602490fd5b50803b15610f4f56fed4592927869c83c7edf7f0a74cd19a3839b0888757840d5ea3663c4542ca1d758be0079c531659141344cd1fd0a4f28419497f9722a3daafe3b4186f6b6457e0a26469706673582212202e6fd7d5779441a2547d9ee1154502961da389cae766dd20dccb65e3ccab276164736f6c634300081e0033",
  "devdoc": {
    "details": "Supports both Morpho Blue (0% fee) and Aave V3 (0.05% fee)",
    "errors": {
      "AddressEmptyCode(address)": [
        {
          "details": "There's no code at `target` (it is not a contract)."
        }
      ],
      "AddressInsufficientBalance(address)": [
        {
          "details": "The ETH balance of the account is not enough to perform the operation."
        }
      ],
      "FailedInnerCall()": [
        {
          "details": "A call to an address target failed. The target may have reverted."
        }
      ],
      "OwnableInvalidOwner(address)": [
        {
          "details": "The owner is not a valid owner account. (eg. `address(0)`)"
        }
      ],
      "OwnableUnauthorizedAccount(address)": [
        {
          "details": "The caller account is not authorized to perform an operation."
        }
      ],
      "SafeERC20FailedOperation(address)": [
        {
          "details": "An operation with an ERC20 token failed."
        }
      ]
    },
    "kind": "dev",
    "methods": {
      "approve(address,address,uint256)": {
        "details": "Only callable by Settlement contract"
      },
      "flashLoanAndCallBack(address,address,uint256,bytes)": {
        "params": {
          "amount": "The amount to borrow",
          "callbackData": "Data to pass back to router after receiving loan",
          "lender": "The flash loan provider (Morpho or Aave pool)",
          "token": "The token to borrow"
        }
      },
      "fundOrder(address,address,uint256)": {
        "details": "Called in pre-hook to fund the order. No access control to allow      balance simulation during order validation (adapter should be empty outside flash loans)"
      },
      "onMorphoFlashLoan(uint256,bytes)": {
        "params": {
          "assets": "The borrowed amount",
          "data": "Encoded callbackData for router"
        }
      },
      "owner()": {
        "details": "Returns the address of the current owner."
      },
      "renounceOwnership()": {
        "details": "Leaves the contract without owner. It will not be possible to call `onlyOwner` functions. Can only be called by the current owner. NOTE: Renouncing ownership will leave the contract without an owner, thereby disabling any functionality that is only available to the owner."
      },
      "transferOwnership(address)": {
        "details": "Transfers ownership of the contract to a new account (`newOwner`). Can only be called by the current owner."
      }
    },
    "title": "KapanCowAdapter",
    "version": 1
  },
  "userdoc": {
    "kind": "user",
    "methods": {
      "allowedLenders(address)": {
        "notice": "Mapping of allowed lenders"
      },
      "approve(address,address,uint256)": {
        "notice": "Approve a target to spend tokens (standard IBorrower function)"
      },
      "executeOperation(address,uint256,uint256,address,bytes)": {
        "notice": "Called by Aave after flash loan tokens are sent"
      },
      "flashLoanAndCallBack(address,address,uint256,bytes)": {
        "notice": "Called by FlashLoanRouter to initiate flash loan"
      },
      "fundOrder(address,address,uint256)": {
        "notice": "Transfer flash-loaned tokens to the order recipient (OrderManager)"
      },
      "lenderTypes(address)": {
        "notice": "Mapping of lender address => LenderType"
      },
      "onMorphoFlashLoan(uint256,bytes)": {
        "notice": "Called by Morpho Blue after flash loan tokens are sent"
      },
      "rescueTokens(address,address,uint256)": {
        "notice": "Rescue tokens accidentally sent to this contract"
      },
      "router()": {
        "notice": "CoW Protocol's FlashLoanRouter"
      },
      "setAaveLender(address,bool)": {
        "notice": "Add or remove an allowed Aave lender"
      },
      "setLender(address,bool)": {
        "notice": "Legacy function for backwards compatibility (defaults to Aave)"
      },
      "setMorphoLender(address,bool)": {
        "notice": "Add or remove an allowed Morpho lender"
      },
      "settlementContract()": {
        "notice": "CoW Protocol's Settlement contract"
      }
    },
    "notice": "Bridges Kapan's OrderManager with CoW Protocol's flash loan system",
    "version": 1
  },
  "storageLayout": {
    "storage": [
      {
        "astId": 8,
        "contract": "contracts/v2/cow/KapanCowAdapter.sol:KapanCowAdapter",
        "label": "_owner",
        "offset": 0,
        "slot": "0",
        "type": "t_address"
      },
      {
        "astId": 907,
        "contract": "contracts/v2/cow/KapanCowAdapter.sol:KapanCowAdapter",
        "label": "_inFlashLoan",
        "offset": 20,
        "slot": "0",
        "type": "t_bool"
      },
      {
        "astId": 910,
        "contract": "contracts/v2/cow/KapanCowAdapter.sol:KapanCowAdapter",
        "label": "_flashLoanToken",
        "offset": 0,
        "slot": "1",
        "type": "t_address"
      },
      {
        "astId": 913,
        "contract": "contracts/v2/cow/KapanCowAdapter.sol:KapanCowAdapter",
        "label": "_currentLender",
        "offset": 0,
        "slot": "2",
        "type": "t_address"
      },
      {
        "astId": 919,
        "contract": "contracts/v2/cow/KapanCowAdapter.sol:KapanCowAdapter",
        "label": "lenderTypes",
        "offset": 0,
        "slot": "3",
        "type": "t_mapping(t_address,t_enum(LenderType)888)"
      },
      {
        "astId": 924,
        "contract": "contracts/v2/cow/KapanCowAdapter.sol:KapanCowAdapter",
        "label": "allowedLenders",
        "offset": 0,
        "slot": "4",
        "type": "t_mapping(t_address,t_bool)"
      }
    ],
    "types": {
      "t_address": {
        "encoding": "inplace",
        "label": "address",
        "numberOfBytes": "20"
      },
      "t_bool": {
        "encoding": "inplace",
        "label": "bool",
        "numberOfBytes": "1"
      },
      "t_enum(LenderType)888": {
        "encoding": "inplace",
        "label": "enum LenderType",
        "numberOfBytes": "1"
      },
      "t_mapping(t_address,t_bool)": {
        "encoding": "mapping",
        "key": "t_address",
        "label": "mapping(address => bool)",
        "numberOfBytes": "32",
        "value": "t_bool"
      },
      "t_mapping(t_address,t_enum(LenderType)888)": {
        "encoding": "mapping",
        "key": "t_address",
        "label": "mapping(address => enum LenderType)",
        "numberOfBytes": "32",
        "value": "t_enum(LenderType)888"
      }
    }
  }
}