{
  "address": "0x9F0E89B9BF2eAa5390fF06970573f9bed5F01865",
  "abi": [
    {
      "inputs": [
        {
          "internalType": "address",
          "name": "_owner",
          "type": "address"
        },
        {
          "internalType": "address",
          "name": "_router",
          "type": "address"
        },
        {
          "internalType": "address",
          "name": "_composableCoW",
          "type": "address"
        },
        {
          "internalType": "address",
          "name": "_settlement",
          "type": "address"
        },
        {
          "internalType": "address",
          "name": "_hooksTrampoline",
          "type": "address"
        }
      ],
      "stateMutability": "nonpayable",
      "type": "constructor"
    },
    {
      "inputs": [
        {
          "internalType": "address",
          "name": "target",
          "type": "address"
        }
      ],
      "name": "AddressEmptyCode",
      "type": "error"
    },
    {
      "inputs": [
        {
          "internalType": "address",
          "name": "account",
          "type": "address"
        }
      ],
      "name": "AddressInsufficientBalance",
      "type": "error"
    },
    {
      "inputs": [],
      "name": "FailedInnerCall",
      "type": "error"
    },
    {
      "inputs": [],
      "name": "HookExecutionFailed",
      "type": "error"
    },
    {
      "inputs": [],
      "name": "InvalidHandler",
      "type": "error"
    },
    {
      "inputs": [],
      "name": "InvalidOrderState",
      "type": "error"
    },
    {
      "inputs": [],
      "name": "NotHooksTrampoline",
      "type": "error"
    },
    {
      "inputs": [],
      "name": "OrderAlreadyExists",
      "type": "error"
    },
    {
      "inputs": [],
      "name": "OrderNotFound",
      "type": "error"
    },
    {
      "inputs": [
        {
          "internalType": "address",
          "name": "owner",
          "type": "address"
        }
      ],
      "name": "OwnableInvalidOwner",
      "type": "error"
    },
    {
      "inputs": [
        {
          "internalType": "address",
          "name": "account",
          "type": "address"
        }
      ],
      "name": "OwnableUnauthorizedAccount",
      "type": "error"
    },
    {
      "inputs": [],
      "name": "ReentrancyGuardReentrantCall",
      "type": "error"
    },
    {
      "inputs": [
        {
          "internalType": "address",
          "name": "token",
          "type": "address"
        }
      ],
      "name": "SafeERC20FailedOperation",
      "type": "error"
    },
    {
      "inputs": [],
      "name": "Unauthorized",
      "type": "error"
    },
    {
      "inputs": [],
      "name": "ZeroAddress",
      "type": "error"
    },
    {
      "anonymous": false,
      "inputs": [
        {
          "indexed": true,
          "internalType": "bytes32",
          "name": "orderHash",
          "type": "bytes32"
        },
        {
          "indexed": false,
          "internalType": "uint256",
          "name": "chunkIndex",
          "type": "uint256"
        },
        {
          "indexed": false,
          "internalType": "uint256",
          "name": "sellAmount",
          "type": "uint256"
        },
        {
          "indexed": false,
          "internalType": "uint256",
          "name": "buyAmount",
          "type": "uint256"
        }
      ],
      "name": "ChunkExecuted",
      "type": "event"
    },
    {
      "anonymous": false,
      "inputs": [
        {
          "indexed": true,
          "internalType": "address",
          "name": "oldComposableCoW",
          "type": "address"
        },
        {
          "indexed": true,
          "internalType": "address",
          "name": "newComposableCoW",
          "type": "address"
        }
      ],
      "name": "ComposableCoWUpdated",
      "type": "event"
    },
    {
      "anonymous": false,
      "inputs": [
        {
          "indexed": true,
          "internalType": "address",
          "name": "oldTrampoline",
          "type": "address"
        },
        {
          "indexed": true,
          "internalType": "address",
          "name": "newTrampoline",
          "type": "address"
        }
      ],
      "name": "HooksTrampolineUpdated",
      "type": "event"
    },
    {
      "anonymous": false,
      "inputs": [
        {
          "indexed": true,
          "internalType": "bytes32",
          "name": "orderHash",
          "type": "bytes32"
        },
        {
          "indexed": true,
          "internalType": "address",
          "name": "user",
          "type": "address"
        }
      ],
      "name": "OrderCancelled",
      "type": "event"
    },
    {
      "anonymous": false,
      "inputs": [
        {
          "indexed": true,
          "internalType": "bytes32",
          "name": "orderHash",
          "type": "bytes32"
        },
        {
          "indexed": true,
          "internalType": "address",
          "name": "user",
          "type": "address"
        },
        {
          "indexed": false,
          "internalType": "uint256",
          "name": "totalExecuted",
          "type": "uint256"
        }
      ],
      "name": "OrderCompleted",
      "type": "event"
    },
    {
      "anonymous": false,
      "inputs": [
        {
          "indexed": true,
          "internalType": "bytes32",
          "name": "orderHash",
          "type": "bytes32"
        },
        {
          "indexed": true,
          "internalType": "address",
          "name": "user",
          "type": "address"
        },
        {
          "indexed": false,
          "internalType": "address",
          "name": "sellToken",
          "type": "address"
        },
        {
          "indexed": false,
          "internalType": "address",
          "name": "buyToken",
          "type": "address"
        },
        {
          "indexed": false,
          "internalType": "uint256",
          "name": "totalAmount",
          "type": "uint256"
        },
        {
          "indexed": false,
          "internalType": "uint256",
          "name": "chunkSize",
          "type": "uint256"
        }
      ],
      "name": "OrderCreated",
      "type": "event"
    },
    {
      "anonymous": false,
      "inputs": [
        {
          "indexed": true,
          "internalType": "address",
          "name": "oldHandler",
          "type": "address"
        },
        {
          "indexed": true,
          "internalType": "address",
          "name": "newHandler",
          "type": "address"
        }
      ],
      "name": "OrderHandlerUpdated",
      "type": "event"
    },
    {
      "anonymous": false,
      "inputs": [
        {
          "indexed": true,
          "internalType": "address",
          "name": "previousOwner",
          "type": "address"
        },
        {
          "indexed": true,
          "internalType": "address",
          "name": "newOwner",
          "type": "address"
        }
      ],
      "name": "OwnershipTransferred",
      "type": "event"
    },
    {
      "anonymous": false,
      "inputs": [
        {
          "indexed": true,
          "internalType": "bytes32",
          "name": "orderHash",
          "type": "bytes32"
        },
        {
          "indexed": false,
          "internalType": "uint256",
          "name": "chunkIndex",
          "type": "uint256"
        },
        {
          "indexed": false,
          "internalType": "uint256",
          "name": "receivedAmount",
          "type": "uint256"
        }
      ],
      "name": "PostHookExecuted",
      "type": "event"
    },
    {
      "anonymous": false,
      "inputs": [
        {
          "indexed": true,
          "internalType": "bytes32",
          "name": "orderHash",
          "type": "bytes32"
        },
        {
          "indexed": false,
          "internalType": "uint256",
          "name": "chunkIndex",
          "type": "uint256"
        }
      ],
      "name": "PreHookExecuted",
      "type": "event"
    },
    {
      "anonymous": false,
      "inputs": [
        {
          "indexed": true,
          "internalType": "address",
          "name": "oldRouter",
          "type": "address"
        },
        {
          "indexed": true,
          "internalType": "address",
          "name": "newRouter",
          "type": "address"
        }
      ],
      "name": "RouterUpdated",
      "type": "event"
    },
    {
      "inputs": [
        {
          "internalType": "address",
          "name": "token",
          "type": "address"
        }
      ],
      "name": "approveVaultRelayer",
      "outputs": [],
      "stateMutability": "nonpayable",
      "type": "function"
    },
    {
      "inputs": [
        {
          "internalType": "bytes32",
          "name": "orderHash",
          "type": "bytes32"
        }
      ],
      "name": "cancelOrder",
      "outputs": [],
      "stateMutability": "nonpayable",
      "type": "function"
    },
    {
      "inputs": [],
      "name": "composableCoW",
      "outputs": [
        {
          "internalType": "contract IComposableCoW",
          "name": "",
          "type": "address"
        }
      ],
      "stateMutability": "view",
      "type": "function"
    },
    {
      "inputs": [
        {
          "components": [
            {
              "internalType": "address",
              "name": "user",
              "type": "address"
            },
            {
              "internalType": "bytes[]",
              "name": "preInstructionsPerIteration",
              "type": "bytes[]"
            },
            {
              "internalType": "uint256",
              "name": "preTotalAmount",
              "type": "uint256"
            },
            {
              "internalType": "address",
              "name": "sellToken",
              "type": "address"
            },
            {
              "internalType": "address",
              "name": "buyToken",
              "type": "address"
            },
            {
              "internalType": "uint256",
              "name": "chunkSize",
              "type": "uint256"
            },
            {
              "internalType": "uint256",
              "name": "minBuyPerChunk",
              "type": "uint256"
            },
            {
              "internalType": "bytes[]",
              "name": "postInstructionsPerIteration",
              "type": "bytes[]"
            },
            {
              "internalType": "enum KapanOrderManager.CompletionType",
              "name": "completion",
              "type": "uint8"
            },
            {
              "internalType": "uint256",
              "name": "targetValue",
              "type": "uint256"
            },
            {
              "internalType": "uint256",
              "name": "minHealthFactor",
              "type": "uint256"
            },
            {
              "internalType": "bytes32",
              "name": "appDataHash",
              "type": "bytes32"
            }
          ],
          "internalType": "struct KapanOrderManager.KapanOrderParams",
          "name": "params",
          "type": "tuple"
        },
        {
          "internalType": "bytes32",
          "name": "salt",
          "type": "bytes32"
        },
        {
          "internalType": "uint256",
          "name": "seedAmount",
          "type": "uint256"
        }
      ],
      "name": "createOrder",
      "outputs": [
        {
          "internalType": "bytes32",
          "name": "orderHash",
          "type": "bytes32"
        }
      ],
      "stateMutability": "nonpayable",
      "type": "function"
    },
    {
      "inputs": [
        {
          "internalType": "bytes32",
          "name": "orderHash",
          "type": "bytes32"
        }
      ],
      "name": "executePostHook",
      "outputs": [],
      "stateMutability": "nonpayable",
      "type": "function"
    },
    {
      "inputs": [
        {
          "internalType": "address",
          "name": "user",
          "type": "address"
        },
        {
          "internalType": "bytes32",
          "name": "salt",
          "type": "bytes32"
        }
      ],
      "name": "executePostHookBySalt",
      "outputs": [],
      "stateMutability": "nonpayable",
      "type": "function"
    },
    {
      "inputs": [
        {
          "internalType": "bytes32",
          "name": "orderHash",
          "type": "bytes32"
        }
      ],
      "name": "executePreHook",
      "outputs": [],
      "stateMutability": "nonpayable",
      "type": "function"
    },
    {
      "inputs": [
        {
          "internalType": "address",
          "name": "user",
          "type": "address"
        },
        {
          "internalType": "bytes32",
          "name": "salt",
          "type": "bytes32"
        }
      ],
      "name": "executePreHookBySalt",
      "outputs": [],
      "stateMutability": "nonpayable",
      "type": "function"
    },
    {
      "inputs": [
        {
          "internalType": "bytes32",
          "name": "orderHash",
          "type": "bytes32"
        }
      ],
      "name": "getOrder",
      "outputs": [
        {
          "components": [
            {
              "components": [
                {
                  "internalType": "address",
                  "name": "user",
                  "type": "address"
                },
                {
                  "internalType": "bytes[]",
                  "name": "preInstructionsPerIteration",
                  "type": "bytes[]"
                },
                {
                  "internalType": "uint256",
                  "name": "preTotalAmount",
                  "type": "uint256"
                },
                {
                  "internalType": "address",
                  "name": "sellToken",
                  "type": "address"
                },
                {
                  "internalType": "address",
                  "name": "buyToken",
                  "type": "address"
                },
                {
                  "internalType": "uint256",
                  "name": "chunkSize",
                  "type": "uint256"
                },
                {
                  "internalType": "uint256",
                  "name": "minBuyPerChunk",
                  "type": "uint256"
                },
                {
                  "internalType": "bytes[]",
                  "name": "postInstructionsPerIteration",
                  "type": "bytes[]"
                },
                {
                  "internalType": "enum KapanOrderManager.CompletionType",
                  "name": "completion",
                  "type": "uint8"
                },
                {
                  "internalType": "uint256",
                  "name": "targetValue",
                  "type": "uint256"
                },
                {
                  "internalType": "uint256",
                  "name": "minHealthFactor",
                  "type": "uint256"
                },
                {
                  "internalType": "bytes32",
                  "name": "appDataHash",
                  "type": "bytes32"
                }
              ],
              "internalType": "struct KapanOrderManager.KapanOrderParams",
              "name": "params",
              "type": "tuple"
            },
            {
              "internalType": "enum KapanOrderManager.OrderStatus",
              "name": "status",
              "type": "uint8"
            },
            {
              "internalType": "uint256",
              "name": "executedAmount",
              "type": "uint256"
            },
            {
              "internalType": "uint256",
              "name": "iterationCount",
              "type": "uint256"
            },
            {
              "internalType": "uint256",
              "name": "createdAt",
              "type": "uint256"
            }
          ],
          "internalType": "struct KapanOrderManager.OrderContext",
          "name": "",
          "type": "tuple"
        }
      ],
      "stateMutability": "view",
      "type": "function"
    },
    {
      "inputs": [
        {
          "internalType": "address",
          "name": "user",
          "type": "address"
        }
      ],
      "name": "getUserOrders",
      "outputs": [
        {
          "internalType": "bytes32[]",
          "name": "",
          "type": "bytes32[]"
        }
      ],
      "stateMutability": "view",
      "type": "function"
    },
    {
      "inputs": [],
      "name": "hooksTrampoline",
      "outputs": [
        {
          "internalType": "address",
          "name": "",
          "type": "address"
        }
      ],
      "stateMutability": "view",
      "type": "function"
    },
    {
      "inputs": [
        {
          "internalType": "bytes32",
          "name": "orderHash",
          "type": "bytes32"
        }
      ],
      "name": "isOrderComplete",
      "outputs": [
        {
          "internalType": "bool",
          "name": "",
          "type": "bool"
        }
      ],
      "stateMutability": "view",
      "type": "function"
    },
    {
      "inputs": [
        {
          "internalType": "bytes32",
          "name": "_hash",
          "type": "bytes32"
        },
        {
          "internalType": "bytes",
          "name": "_signature",
          "type": "bytes"
        }
      ],
      "name": "isValidSignature",
      "outputs": [
        {
          "internalType": "bytes4",
          "name": "",
          "type": "bytes4"
        }
      ],
      "stateMutability": "view",
      "type": "function"
    },
    {
      "inputs": [],
      "name": "orderHandler",
      "outputs": [
        {
          "internalType": "address",
          "name": "",
          "type": "address"
        }
      ],
      "stateMutability": "view",
      "type": "function"
    },
    {
      "inputs": [
        {
          "internalType": "bytes32",
          "name": "",
          "type": "bytes32"
        }
      ],
      "name": "orderSalts",
      "outputs": [
        {
          "internalType": "bytes32",
          "name": "",
          "type": "bytes32"
        }
      ],
      "stateMutability": "view",
      "type": "function"
    },
    {
      "inputs": [
        {
          "internalType": "bytes32",
          "name": "",
          "type": "bytes32"
        }
      ],
      "name": "orders",
      "outputs": [
        {
          "components": [
            {
              "internalType": "address",
              "name": "user",
              "type": "address"
            },
            {
              "internalType": "bytes[]",
              "name": "preInstructionsPerIteration",
              "type": "bytes[]"
            },
            {
              "internalType": "uint256",
              "name": "preTotalAmount",
              "type": "uint256"
            },
            {
              "internalType": "address",
              "name": "sellToken",
              "type": "address"
            },
            {
              "internalType": "address",
              "name": "buyToken",
              "type": "address"
            },
            {
              "internalType": "uint256",
              "name": "chunkSize",
              "type": "uint256"
            },
            {
              "internalType": "uint256",
              "name": "minBuyPerChunk",
              "type": "uint256"
            },
            {
              "internalType": "bytes[]",
              "name": "postInstructionsPerIteration",
              "type": "bytes[]"
            },
            {
              "internalType": "enum KapanOrderManager.CompletionType",
              "name": "completion",
              "type": "uint8"
            },
            {
              "internalType": "uint256",
              "name": "targetValue",
              "type": "uint256"
            },
            {
              "internalType": "uint256",
              "name": "minHealthFactor",
              "type": "uint256"
            },
            {
              "internalType": "bytes32",
              "name": "appDataHash",
              "type": "bytes32"
            }
          ],
          "internalType": "struct KapanOrderManager.KapanOrderParams",
          "name": "params",
          "type": "tuple"
        },
        {
          "internalType": "enum KapanOrderManager.OrderStatus",
          "name": "status",
          "type": "uint8"
        },
        {
          "internalType": "uint256",
          "name": "executedAmount",
          "type": "uint256"
        },
        {
          "internalType": "uint256",
          "name": "iterationCount",
          "type": "uint256"
        },
        {
          "internalType": "uint256",
          "name": "createdAt",
          "type": "uint256"
        }
      ],
      "stateMutability": "view",
      "type": "function"
    },
    {
      "inputs": [],
      "name": "owner",
      "outputs": [
        {
          "internalType": "address",
          "name": "",
          "type": "address"
        }
      ],
      "stateMutability": "view",
      "type": "function"
    },
    {
      "inputs": [
        {
          "internalType": "address",
          "name": "token",
          "type": "address"
        },
        {
          "internalType": "address",
          "name": "to",
          "type": "address"
        },
        {
          "internalType": "uint256",
          "name": "amount",
          "type": "uint256"
        }
      ],
      "name": "recoverTokens",
      "outputs": [],
      "stateMutability": "nonpayable",
      "type": "function"
    },
    {
      "inputs": [],
      "name": "renounceOwnership",
      "outputs": [],
      "stateMutability": "nonpayable",
      "type": "function"
    },
    {
      "inputs": [],
      "name": "router",
      "outputs": [
        {
          "internalType": "contract IKapanRouter",
          "name": "",
          "type": "address"
        }
      ],
      "stateMutability": "view",
      "type": "function"
    },
    {
      "inputs": [
        {
          "internalType": "address",
          "name": "_composableCoW",
          "type": "address"
        }
      ],
      "name": "setComposableCoW",
      "outputs": [],
      "stateMutability": "nonpayable",
      "type": "function"
    },
    {
      "inputs": [
        {
          "internalType": "address",
          "name": "_hooksTrampoline",
          "type": "address"
        }
      ],
      "name": "setHooksTrampoline",
      "outputs": [],
      "stateMutability": "nonpayable",
      "type": "function"
    },
    {
      "inputs": [
        {
          "internalType": "address",
          "name": "_handler",
          "type": "address"
        }
      ],
      "name": "setOrderHandler",
      "outputs": [],
      "stateMutability": "nonpayable",
      "type": "function"
    },
    {
      "inputs": [
        {
          "internalType": "address",
          "name": "_router",
          "type": "address"
        }
      ],
      "name": "setRouter",
      "outputs": [],
      "stateMutability": "nonpayable",
      "type": "function"
    },
    {
      "inputs": [],
      "name": "settlement",
      "outputs": [
        {
          "internalType": "contract IGPv2Settlement",
          "name": "",
          "type": "address"
        }
      ],
      "stateMutability": "view",
      "type": "function"
    },
    {
      "inputs": [
        {
          "internalType": "address",
          "name": "newOwner",
          "type": "address"
        }
      ],
      "name": "transferOwnership",
      "outputs": [],
      "stateMutability": "nonpayable",
      "type": "function"
    },
    {
      "inputs": [
        {
          "internalType": "address",
          "name": "",
          "type": "address"
        },
        {
          "internalType": "uint256",
          "name": "",
          "type": "uint256"
        }
      ],
      "name": "userOrders",
      "outputs": [
        {
          "internalType": "bytes32",
          "name": "",
          "type": "bytes32"
        }
      ],
      "stateMutability": "view",
      "type": "function"
    },
    {
      "inputs": [
        {
          "internalType": "address",
          "name": "",
          "type": "address"
        },
        {
          "internalType": "bytes32",
          "name": "",
          "type": "bytes32"
        }
      ],
      "name": "userSaltToOrderHash",
      "outputs": [
        {
          "internalType": "bytes32",
          "name": "",
          "type": "bytes32"
        }
      ],
      "stateMutability": "view",
      "type": "function"
    }
  ],
  "transactionHash": "0xe10ceb68f798821de14340135b918b01a9eb9a1c9397fec35a6c719343e5beb2",
  "args": [
    "0x0BE61223F99E57b8b8B7033a77B54Adc7f7cF027",
    "0x2302643bf7ceea3F7180547F90d5eA5a917e2b99",
    "0xfdaFc9d1902f4e0b84f65F49f244b32b31013b74",
    "0x9008D19f58AAbD9eD0D60971565AA8510560ab41",
    "0x60Bf78233f48eC42eE3F101b9a05eC7878728006"
  ],
  "numDeployments": 8,
  "solcInputHash": "a8bc71c974d381117e235955b87323fc",
  "bytecode": "0x60803461018557601f61316f38819003918201601f19168301916001600160401b038311848410176101895780849260a094604052833981010312610185576100478161019d565b906100546020820161019d565b916100616040830161019d565b9161007a60806100736060840161019d565b920161019d565b6001600160a01b03909216938415610172575f80546001600160a01b031981168717825560405196916001600160a01b03909116907f8be0079c531659141344cd1fd0a4f28419497f9722a3daafe3b4186f6b6457e09080a3600180556001600160a01b0316928315610163576001600160a01b0316908115610163576001600160a01b0316918215610163576001600160a01b03169283156101635760018060a01b0319600254161760025560018060a01b0319600354161760035560018060a01b0319600454161760045560018060a01b03196005541617600555612fbd90816101b28239f35b63d92e233d60e01b5f5260045ffd5b631e4fbdf760e01b5f525f60045260245ffd5b5f80fd5b634e487b7160e01b5f52604160045260245ffd5b51906001600160a01b03821682036101855756fe60806040526004361015610011575f80fd5b5f5f3560e01c80631626ba7e146119835780632fbff5a41461192d578063304d313e146118ab578063507f0e741461188157806351160630146118595780635778472a146117235780635f3e849f146116d657806363c69f081461164c5780636edd27ff14611619578063715018a6146115d55780637489ec23146112d35780638009fb6a1461127157806381e6d3ce14611248578063856652e9146111f15780638b0f4834146111c85780638da5cb5b146111a1578063988ccc161461112c5780639c3f1e90146110af578063b584830514611086578063c0d7865514611011578063c73bb4bd14610ee3578063caf2185614610ebe578063cea4b43614610e7b578063d44e19f01461029c578063d7a3aca714610218578063e0b787e4146101ec578063f2fde38b146101795763f887ea401461014e575f80fd5b346101765780600319360112610176576002546040516001600160a01b039091168152602090f35b80fd5b5034610176576020366003190112610176576101936119f2565b61019b612b1b565b6001600160a01b031680156101d85781546001600160a01b03198116821783556001600160a01b03165f516020612f685f395f51905f528380a380f35b631e4fbdf760e01b82526004829052602482fd5b5034610176576020366003190112610176576102066125b9565b610211600435612c05565b6001805580f35b5034610176576020366003190112610176576102326119f2565b61023a612b1b565b6001600160a01b0316801561028d57600680546001600160a01b0319811683179091556001600160a01b03167f7bf6e789688cd776b5170517f39970fea2870a79d649c8443dd2b0ec62823eb78380a380f35b63d92e233d60e01b8252600482fd5b5034610176576060366003190112610176576001600160401b03600435116101765761018060043536036003190112610176576102d76125b9565b6102e5600435600401612446565b336001600160a01b0390911603610e6d576006546001600160a01b031615610e5e576040516060602082019081526001600160a01b036103286004803501611a08565b166080830152602460043501916103de61035d61034a8560043560040161245a565b61018060a086015261020085019161248f565b600435604481013560c08501526001600160a01b039061037f90606401611a08565b1660e08401526001600160a01b0361039b600435608401611a08565b166101008401526004803560a481013561012086015260c48101356101408601526103cb9160e48201910161245a565b848303607f19016101608601529061248f565b6004610104813501351015610df35781610450916104026101046004350135611a98565b6004356101048101356101808401526101248101356101a08401526101448101356101c084015261016401356101e0830152602435604083015242606083015203601f198101835282611c4c565b519020808352600760205260ff600c6040852001541661046f81611a98565b610e4f57604435610df7575b6040519161048883611bcb565b6040519061049582611bfa565b6104a3600435600401611a08565b82526001600160401b03813511610df3576104c690600436913581350101612525565b60208201526044600435013560408201526104e5606460043501611a08565b60608201526104f8608460043501611a08565b608082015260043560a481013560a083015260c481013560c083015260e401356001600160401b038111610df357610537906004369181350101612525565b60e082015260043561010481013561010083015261012481013561012083015261014481013561014083015261016401356101608201528252600160208084018281526040808601878152606087018881524260808901908152878a52600786529289209751805189546001600160a01b0319166001600160a01b0391909116178955948501518051959896939591949293870190600160401b8311610c5b578154838355808410610d75575b50602001908a5260208a208a915b838310610c6f57505050506040870151600286015560608701516003860180546001600160a01b039283166001600160a01b031991821617909155608089015160048801805491909316911617905560a0870151600586015560c0870151600686015560e08701518051906007870190600160401b8311610c5b578154838355808410610bdd575b50602001908a5260208a208a915b838310610aac57505050506101608596976008600f97016101008201516106ae81611a98565b6106b781611a98565b60ff801983541691161790556101208101516009890155610140810151600a8901550151600b870155600c860190516106ef81611a98565b6106f881611a98565b60ff8019835416911617905551600d85015551600e840155519101558082526008602052602435604083205560018060a01b03610739600435600401612446565b168252600960205260408220805490600160401b821015610a98579061076491600182018155611ba2565b81545f1960039290921b91821b19169083901b1790556001600160a01b0361078f6004803501612446565b168252600a6020526040822060243583526020528060408320558160018060a01b0360065416604051836020820152602081526107cd604082611c4c565b604051916107da83611c16565b8252602435602083015260408201526003546001600160a01b0316803b15610a945761082883929183926040519485809481936335fd70e560e11b8352604060048401526044830190611f40565b6001602483015203925af18015610a8957610a70575b5050600461084f6064823501612446565b8154604051634daa966160e11b81529260209184919082906001600160a01b03165afa918215610a65578492610a25575b50604051636eb1769f60e11b81523060048201526001600160a01b03928316602482018190529190921691602081604481865afa908115610a1a5785916109e4575b506001600160ff1b0311610963575b6020836108e2600435600401612446565b817f961e6438a987eab19d9850691e56ca64f442dbb689801b0f3cfc1381c98ed15e6080610914606460043501612446565b93610923608460043501612446565b604080516001600160a01b0397881681529187168983015260043560448101359183019190915260a401356060820152941693a360018055604051908152f35b83916044602092604051968793849263095ea7b360e01b845260048401525f1960248401525af180156109d75761099b575b806108d1565b6020833d6020116109cf575b816109b460209383611c4c565b8101031261017657506109c8602092611ee0565b505f610995565b3d91506109a7565b50604051903d90823e3d90fd5b90506020813d602011610a12575b816109ff60209383611c4c565b81010312610a0e57515f6108c2565b5f80fd5b3d91506109f2565b6040513d87823e3d90fd5b9091506020813d602011610a5d575b81610a4160209383611c4c565b81010312610a5957610a5290611ecc565b905f610880565b8380fd5b3d9150610a34565b6040513d86823e3d90fd5b81610a7a91611c4c565b610a8557815f61083e565b5080fd5b6040513d84823e3d90fd5b8280fd5b634e487b7160e01b84526041600452602484fd5b80518051906001600160401b038211610bc9578d90610acb8554611c86565b601f8111610b8e575b50602091601f8411600114610b26578360019592946020948796610b0c9492610b1b575b50508160011b915f199060031b1c19161790565b85555b01920192019190610688565b015190505f80610af8565b9190601f198416868452828420935b818110610b765750936020936001969387969383889510610b5e575b505050811b018555610b0f565b01515f1960f88460031b161c191690555f8080610b51565b92936020600181928786015181550195019301610b35565b610bb99086845260208420601f860160051c81019160208710610bbf575b601f0160051c01906125a3565b5f610ad4565b9091508190610bac565b634e487b7160e01b8e52604160045260248efd5b828c528360208d2091820191015b8c828210610bfa57505061067a565b9080600192610c098254611c86565b80610c18575b50505001610beb565b601f81118514610c31575050508d81555b808e5f610c0f565b82825260208220610c4c91601f0160051c81019086016125a3565b528d6020812081835555610c29565b634e487b7160e01b8b52604160045260248bfd5b80518051906001600160401b038211610bc9578d90610c8e8554611c86565b601f8111610d45575b50602091601f8411600114610cdd578360019592946020948796610cce9492610b1b5750508160011b915f199060031b1c19161790565b85555b019201920191906105f2565b9190601f198416868452828420935b818110610d2d5750936020936001969387969383889510610d15575b505050811b018555610cd1565b01515f1960f88460031b161c191690555f8080610d08565b92936020600181928786015181550195019301610cec565b610d6f9086845260208420601f860160051c81019160208710610bbf57601f0160051c01906125a3565b5f610c97565b828c528360208d2091820191015b8c828210610d925750506105e4565b9080600192610da18254611c86565b80610db0575b50505001610d83565b601f81118514610dc9575050508d81555b808e5f610da7565b82825260208220610de491601f0160051c81019086016125a3565b528d6020812081835555610dc1565b8480fd5b610e4a6001600160a01b03610e10600435606401612446565b16604051906323b872dd60e01b6020830152336024830152306044830152604435606483015260648252610e45608483611c4c565b612e6e565b61047b565b63966753c560e01b8352600483fd5b63d8f59fa560e01b8152600490fd5b6282b42960e81b8152600490fd5b5034610176576040366003190112610176576020906040906001600160a01b03610ea36119f2565b168152600a8352818120602435825283522054604051908152f35b503461017657602036600319011261017657610ed86125b9565b610211600435612801565b503461017657602036600319011261017657610efd6119f2565b610f05612b1b565b6001600160a01b0316801561028d5760048054604051634daa966160e11b8152849390929091602091849182906001600160a01b03165afa918215611006578392610fc3575b5060405163095ea7b360e01b81526001600160a01b0390921660048301525f196024830152909160209183916044918391905af18015610a8957610f8d575080f35b6020813d602011610fbb575b81610fa660209383611c4c565b81010312610a8557610fb790611ee0565b5080f35b3d9150610f99565b91506020823d602011610ffe575b81610fde60209383611c4c565b81010312610ffa576044610ff3602093611ecc565b9250610f4b565b5050fd5b3d9150610fd1565b6040513d85823e3d90fd5b50346101765760203660031901126101765761102b6119f2565b611033612b1b565b6001600160a01b0316801561028d57600280546001600160a01b0319811683179091556001600160a01b03167f02dc5c233404867c793b749c6d644beb2277536d18a7e7974d3f238e4c6f16848380a380f35b50346101765780600319360112610176576006546040516001600160a01b039091168152602090f35b503461017657602036600319011261017657604061110a9160043581526007602052206110db81611db3565b9060ff600c8201541690600d81015490600f600e8201549101549160405195869560a0875260a0870190611ab6565b9361111481611a98565b60208601526040850152606084015260808301520390f35b5034610176576020366003190112610176576111466119f2565b61114e612b1b565b6001600160a01b0316801561028d57600380546001600160a01b0319811683179091556001600160a01b03167f5ee1511014357e81e6a0e8a9bf9d80be6c56a0922d067518ddc6f7a2f6eb7bd68380a380f35b5034610176578060031936011261017657546040516001600160a01b039091168152602090f35b50346101765780600319360112610176576003546040516001600160a01b039091168152602090f35b50346101765760403660031901126101765761120b6119f2565b6001600160a01b03168152600960205260408120805460243592908310156101765760206112398484611ba2565b90549060031b1c604051908152f35b50346101765780600319360112610176576005546040516001600160a01b039091168152602090f35b50346101765760403660031901126101765761128b6119f2565b6112936125b9565b6001600160a01b03168152600a60209081526040808320602435845290915281205480156112c45761021190612c05565b63d36d896560e01b8252600482fd5b5034610a0e576020366003190112610a0e576004356112f06125b9565b805f52600760205260405f20600c8101805460ff811661130f81611a98565b80156115c65783546001600160a01b031633036115b85760019061133281611a98565b036115a95760039060ff191617905560018060a01b03600354166113b8602060018060a01b0360065416855f526008825260405f205460405190878483015283825261137f604083611c4c565b6040519261138c84611c16565b835283830152604082015260405180938192635500079d60e01b83528460048401526024830190611f40565b0381855afa90811561156c575f91611577575b50813b15610a0e575f916024839260405194859384926395bc267360e01b845260048401525af1801561156c57611557575b5060038101546040516370a0823160e01b81523060048201526001600160a01b0390911690602081602481855afa908115610a1a578591611525575b5080611507575b50506004818101546040516370a0823160e01b815230928101929092526001600160a01b0316602082602481845afa918215610a1a5785926114d3575b50816114b4575b50505033907fa6eb7cdc219e1518ced964e9a34e61d68a94e4f1569db3e84256ba981ba527538380a36001805580f35b91546114cb926001600160a01b0390911690612b41565b5f8080611484565b9091506020813d6020116114ff575b816114ef60209383611c4c565b81010312610a0e5751905f61147d565b3d91506114e2565b825461151e926001600160a01b0390911690612b41565b5f80611440565b90506020813d60201161154f575b8161154060209383611c4c565b81010312610a0e57515f611439565b3d9150611533565b6115649193505f90611c4c565b5f915f6113fd565b6040513d5f823e3d90fd5b90506020813d6020116115a1575b8161159260209383611c4c565b81010312610a0e57515f6113cb565b3d9150611585565b632b12537f60e21b5f5260045ffd5b6282b42960e81b5f5260045ffd5b63d36d896560e01b5f5260045ffd5b34610a0e575f366003190112610a0e576115ed612b1b565b5f80546001600160a01b0319811682556001600160a01b03165f516020612f685f395f51905f528280a3005b34610a0e576020366003190112610a0e576004355f526007602052602061164260405f20612b7c565b6040519015158152f35b34610a0e576020366003190112610a0e576001600160a01b0361166d6119f2565b165f52600960205260405f206040519081602082549182815201915f5260205f20905f5b8181106116c0576116bc856116a881870382611c4c565b604051918291602083526020830190611b6f565b0390f35b8254845260209093019260019283019201611691565b34610a0e576060366003190112610a0e576116ef6119f2565b602435906001600160a01b0382168203610a0e576117219161170f612b1b565b604435916001600160a01b0316612b41565b005b34610a0e576020366003190112610a0e575f608060405161174381611bcb565b60405161174f81611bfa565b8381526060602082015283604082015283606082015283838201528360a08201528360c0820152606060e082015283610100820152836101208201528361014082015283610160820152815282602082015282604082015282606082015201526004355f52600760205261183360405f20604051906117cd82611bcb565b6117d681611db3565b825260ff600c820154169060208301916117ef81611a98565b8252600d8101549060408401918252600f600e820154916060860192835201549160808501928352604051958695602087525160a0602088015260c0870190611ab6565b935161183e81611a98565b60408601525160608501525160808401525160a08301520390f35b34610a0e575f366003190112610a0e576004546040516001600160a01b039091168152602090f35b34610a0e576020366003190112610a0e576004355f526008602052602060405f2054604051908152f35b34610a0e576020366003190112610a0e576118c46119f2565b6118cc612b1b565b6001600160a01b0316801561191e57600580546001600160a01b0319811683179091556001600160a01b03167fbdce5776902fb6aa0ba780ce23fc8392c2014d41efaeaa287d6b06ef28fe5cb05f80a3005b63d92e233d60e01b5f5260045ffd5b34610a0e576040366003190112610a0e576119466119f2565b61194e6125b9565b60018060a01b03165f52600a60205260405f206024355f5260205260405f205480156115c65761197d90612801565b60018055005b34610a0e576040366003190112610a0e576024356001600160401b038111610a0e5736602382011215610a0e576004810135906001600160401b038211610a0e573660248383010111610a0e5760209160246119df9201611f6f565b6040516001600160e01b03199091168152f35b600435906001600160a01b0382168203610a0e57565b35906001600160a01b0382168203610a0e57565b805180835260209291819084018484015e5f828201840152601f01601f1916010190565b9080602083519182815201916020808360051b8301019401925f915b838310611a6b57505050505090565b9091929394602080611a89600193601f198682030187528951611a1c565b97019301930191939290611a5c565b60041115611aa257565b634e487b7160e01b5f52602160045260245ffd5b9060018060a01b03825116815261016080611b39611ae560208601516101806020870152610180860190611a40565b6040860151604086015260018060a01b03606087015116606086015260018060a01b03608087015116608086015260a086015160a086015260c086015160c086015260e086015185820360e0870152611a40565b93610100810151611b4981611a98565b610100850152610120810151610120850152610140810151610140850152015191015290565b90602080835192838152019201905f5b818110611b8c5750505090565b8251845260209384019390920191600101611b7f565b8054821015611bb7575f5260205f2001905f90565b634e487b7160e01b5f52603260045260245ffd5b60a081019081106001600160401b03821117611be657604052565b634e487b7160e01b5f52604160045260245ffd5b61018081019081106001600160401b03821117611be657604052565b606081019081106001600160401b03821117611be657604052565b604081019081106001600160401b03821117611be657604052565b601f909101601f19168101906001600160401b03821190821017611be657604052565b6001600160401b038111611be65760051b60200190565b90600182811c92168015611cb4575b6020831014611ca057565b634e487b7160e01b5f52602260045260245ffd5b91607f1691611c95565b9060405191825f825492611cd184611c86565b8084529360018116908115611d3c5750600114611cf8575b50611cf692500383611c4c565b565b90505f9291925260205f20905f915b818310611d20575050906020611cf6928201015f611ce9565b6020919350806001915483858901015201910190918492611d07565b905060209250611cf694915060ff191682840152151560051b8201015f611ce9565b908154611d6a81611c6f565b92611d786040519485611c4c565b81845260208401905f5260205f205f915b838310611d965750505050565b600160208192611da585611cbe565b815201920192019190611d89565b90604051611dc081611bfa565b82546001600160a01b0316815291829061016090600b90611de360018201611d5e565b60208501526002810154604085015260038101546001600160a01b0390811660608601526004820154166080850152600581015460a0850152600681015460c0850152611e3260078201611d5e565b60e085015260ff600882015416611e4881611a98565b6101008501526009810154610120850152600a8101546101408501520154910152565b6001600160401b038111611be657601f01601f191660200190565b81601f82011215610a0e57803590611e9d82611e6b565b92611eab6040519485611c4c565b82845260208383010111610a0e57815f926020809301838601378301015290565b51906001600160a01b0382168203610a0e57565b51908115158203610a0e57565b929192611ef982611e6b565b91611f076040519384611c4c565b829481845281830111610a0e578281602093845f96015e010152565b9080601f83011215610a0e578151611f3d92602001611eed565b90565b9060606040611f3d9360018060a01b038151168452602081015160208501520151918160408201520190611a1c565b9081018181036101a08112610a0e5761018013610a0e5760405191611f9383611bfa565b611f9c81611a08565b8352611faa60208201611a08565b9260208101938452611fbe60408301611a08565b604082019081526060820160608401358152608083016080850135815260a085013563ffffffff81168103610a0e5760a085015260c0840160c0860135815260e085019160e087013583526101008601936101008801358552610120880135958615158703610a0e5761012088019687526101408801976101408a013589526101608101996101608101358b526101808101359060018060401b038211610a0e57019a60608c820312610a0e576040519b6120788d611c16565b80356001600160401b038111610a0e57810182601f82011215610a0e578035906120a182611c6f565b916120af6040519384611c4c565b80835260208084019160051b83010191858311610a0e57602001905b828210612436575050508d5260208101356001600160401b038111610a0e57810191606083820312610a0e576040519261210484611c16565b80356001600160a01b0381168103610a0e578452602081810135908501526040810135906001600160401b038211610a0e578f90836020936121469201611e86565b604086015201928352604082013560018060401b038111610a0e578e92019061216e91611e86565b604081920152600160a01b600190036003541691519c519c6040519d8e92839263137050cb60e11b84523060048501526024840160809052608484016121b391611f40565b8381036003190160448501526121c891611a1c565b8281036003190160648401526121dd91611b6f565b03815a935f94fa5f9b81612339575b5061220a57506001600160e01b03199b9a5050505050505050505050565b518a516001600160a01b039081169116149a8b61231d575b508a612301575b50896122f2575b50886122e3575b50876122d4575b50866122c5575b50856122b5575b50846122a0575b5083612290575b508261227e575b5050612273576001600160e01b031990565b630b135d3f60e11b90565b61016091925051910151145f80612261565b516101408301511492505f61225a565b5161012084015115159015151493505f612253565b516101008501511494505f61224c565b5160e08601511495505f612245565b5160c08701511496505f61223e565b5160808801511497505f612237565b5160608901511498505f612230565b5160408a01516001600160a01b0390811691161499505f612229565b5160208b01516001600160a01b039081169116149a505f612222565b909b503d805f833e61234b8183611c4c565b8101908082036101a08112610a0e5761018013610a0e576040519161236f83611bfa565b61237882611ecc565b835261238660208301611ecc565b602084015261239760408301611ecc565b6040840152606082015160608401526080820151608084015260a082015163ffffffff81168103610a0e5760a084015260c082015160c084015260e082015160e08401526101008201516101008401526123f46101208301611ee0565b610120840152610140828101519084015261016080830151908401526101808201516001600160401b038111610a0e5761242e9201611f23565b509a5f6121ec565b81358152602091820191016120cb565b356001600160a01b0381168103610a0e5790565b9035601e1982360301811215610a0e570160208101919035906001600160401b038211610a0e578160051b36038313610a0e57565b90602083828152019060208160051b85010193835f915b8383106124b65750505050505090565b909192939495601f198282030186528635601e1984360301811215610a0e578301602081019190356001600160401b038111610a0e578036038313610a0e576020828280600196849695859652848401375f828201840152601f01601f191601019801960194930191906124a6565b9080601f83011215610a0e57813561253c81611c6f565b9261254a6040519485611c4c565b81845260208085019260051b82010191838311610a0e5760208201905b83821061257657505050505090565b81356001600160401b038111610a0e5760209161259887848094880101611e86565b815201910190612567565b8181106125ae575050565b5f81556001016125a3565b6002600154146125ca576002600155565b633ee5aeb560e01b5f5260045ffd5b602081830312610a0e578051906001600160401b038211610a0e57019080601f83011215610a0e5781519161260d83611c6f565b9261261b6040519485611c4c565b80845260208085019160051b83010191838311610a0e5760208101915b83831061264757505050505090565b82516001600160401b038111610a0e578201906040828703601f190112610a0e576040519061267582611c31565b60208301516001600160401b038111610a0e5760209084010187601f82011215610a0e57878160206126a993519101611eed565b82526040830151916001600160401b038311610a0e576126d188602080969581960101611f23565b83820152815201920191612638565b906126ea82611c6f565b6126f76040519182611c4c565b8281528092612708601f1991611c6f565b01905f5b82811061271857505050565b60209060405161272781611c31565b606081526060838201528282850101520161270c565b6040519061274c604083611c4c565b60068252653937baba32b960d11b6020830152565b805115611bb75760200190565b8051821015611bb75760209160051b010190565b602081016020825282518091526040820191602060408360051b8301019401925f915b8383106127b457505050505090565b90919293946020806127f2600193603f19868203018752895190836127e28351604084526040840190611a1c565b9201519084818403910152611a1c565b970193019301919392906127a5565b6005545f91906001600160a01b03163303612b0c57805f52600760205260405f2092600c840191600160ff84541661283881611a98565b036115a957600485019460018060a01b03865416604051906370a0823160e01b8252306004830152602082602481845afa91821561156c575f92612ad6575b506002546128909183916001600160a01b031690612b41565b600e8201916128b56128a6845460078401612d8c565b602080825183010191016125d9565b95865160018101809111612952576128cf6128e0916126e0565b99546001600160a01b031684612e3b565b604051906128ed82611c31565b6128f561273d565b825260208201526129058a612761565b5261290f89612761565b505f5b875181101561296657612925818961276e565b51906001810191828211612952578261294b916129446001958f61276e565b528c61276e565b5001612912565b634e487b7160e01b5f52601160045260245ffd5b50929550929590939660018060a01b0360025416803b15610a0e5760405163f0dbeea560e01b8152915f9183918290849082906129a69060048301612782565b03925af1801561156c57612ac3575b50600583015492600d810193845494818601809611612aaf5785905586545f198114612aaf57928892837f2fe16d47ffa3738e1c53765ec8dcbe2adbce46d0899a775de9b539572cfd864f606060409a989560017f5b19a0b08bbd8e7537d63d9f1db0947c5eba6d93e02a7e0a1520ea5f29bd644c9d9b9901809b558b51908b82526020820152898c820152a2612a4b81612b7c565b612a62575b505050505082519182526020820152a2565b825460ff1916600217909255505485519283526001600160a01b0316917fc05078bb1894dee4a12f4b4f2822aa8625022f271aee8bffc64c6621f84c4d9490602090a35f85818080612a50565b634e487b7160e01b84526011600452602484fd5b612acf91505f90611c4c565b5f5f6129b5565b9091506020813d602011612b04575b81612af260209383611c4c565b81010312610a0e575190612890612877565b3d9150612ae5565b631cb3967f60e21b5f5260045ffd5b5f546001600160a01b03163303612b2e57565b63118cdaa760e01b5f523360045260245ffd5b60405163a9059cbb60e01b60208201526001600160a01b039092166024830152604480830193909352918152611cf691610e45606483611c4c565b60ff600882015416612b8d81611a98565b60028114612bf557612b9e81611a98565b60018114612bc857612baf81611a98565b15612bb957505f90565b6002600d820154910154111590565b506002810154600d820154808203918083116129525714918215612beb57505090565b6005015411919050565b506009600e820154910154111590565b6005549091906001600160a01b03163303612b0c57815f52600760205260405f2091600160ff600c85015416612c3a81611a98565b036115a957600e830191612c556128a6845460018701612d8c565b9182516001810180911161295257612c6f612c89916126e0565b95600581015490600360018060a01b039101541690612e3b565b60405190612c9682611c31565b612c9e61273d565b82526020820152612cae86612761565b52612cb885612761565b505f5b8351811015612cfb57612cce818561276e565b519060018101918282116129525782612cf491612ced6001958b61276e565b528861276e565b5001612cbb565b5060025491949093909250906001600160a01b0316803b15610a0e5760405163f0dbeea560e01b8152925f918491829084908290612d3c9060048301612782565b03925af190811561156c577fed6ad11a587c194b3ad43896e949cb9a05975419926eda9b6b571d1847c9a7aa92602092612d7c575b5054604051908152a2565b5f612d8691611c4c565b5f612d71565b9060608254908115612dd0575080821015612db65750611f3d91612db09190611ba2565b50611cbe565b5f1981019150811161295257611f3d91612db09190611ba2565b9250505060405190612de3602083611c4c565b5f82525f90815b828110612e1857505050611f3d612e0a9160405192839160208301612782565b03601f198101835282611c4c565b602090604051612e2781611c31565b838152838382015282828701015201612dea565b9060405191602083015260018060a01b031660408201525f60608201526003608082015260808152611f3d60a082611c4c565b5f80612eb69260018060a01b03169360208151910182865af13d15612f01573d90612e9882611e6b565b91612ea66040519384611c4c565b82523d5f602084013e5b83612f09565b8051908115159182612ede575b5050612ecc5750565b635274afe760e01b5f5260045260245ffd5b8192509060209181010312610a0e576020612ef99101611ee0565b155f80612ec3565b606090612eb0565b90612f2d5750805115612f1e57805190602001fd5b630a12f52160e11b5f5260045ffd5b81511580612f5e575b612f3e575090565b639996b31560e01b5f9081526001600160a01b0391909116600452602490fd5b50803b15612f3656fe8be0079c531659141344cd1fd0a4f28419497f9722a3daafe3b4186f6b6457e0a2646970667358221220779e3cb9fb8c6a0fc003644aba94b0b8db5c735426ce5edb73ff4c255467dca164736f6c634300081e0033",
  "devdoc": {
    "details": "Singleton contract that holds order context and executes hooks",
    "errors": {
      "AddressEmptyCode(address)": [
        {
          "details": "There's no code at `target` (it is not a contract)."
        }
      ],
      "AddressInsufficientBalance(address)": [
        {
          "details": "The ETH balance of the account is not enough to perform the operation."
        }
      ],
      "FailedInnerCall()": [
        {
          "details": "A call to an address target failed. The target may have reverted."
        }
      ],
      "OwnableInvalidOwner(address)": [
        {
          "details": "The owner is not a valid owner account. (eg. `address(0)`)"
        }
      ],
      "OwnableUnauthorizedAccount(address)": [
        {
          "details": "The caller account is not authorized to perform an operation."
        }
      ],
      "ReentrancyGuardReentrantCall()": [
        {
          "details": "Unauthorized reentrant call."
        }
      ],
      "SafeERC20FailedOperation(address)": [
        {
          "details": "An operation with an ERC20 token failed."
        }
      ]
    },
    "kind": "dev",
    "methods": {
      "cancelOrder(bytes32)": {
        "params": {
          "orderHash": "The order to cancel"
        }
      },
      "createOrder((address,bytes[],uint256,address,address,uint256,uint256,bytes[],uint8,uint256,uint256,bytes32),bytes32,uint256)": {
        "details": "User must approve this contract to pull seedAmount of sellToken before calling",
        "params": {
          "params": "The order parameters",
          "salt": "Unique salt for the order",
          "seedAmount": "Amount of sell tokens to pull from user for first chunk (0 to skip)"
        },
        "returns": {
          "orderHash": "The hash identifying this order"
        }
      },
      "executePostHook(bytes32)": {
        "details": "Prepends a ToOutput instruction with the actual received amount, so all      stored instructions can reference index 0 for the swap output",
        "params": {
          "orderHash": "The order being settled"
        }
      },
      "executePostHookBySalt(address,bytes32)": {
        "details": "Allows pre-computing appData before order creation",
        "params": {
          "salt": "The order salt (known before tx)",
          "user": "The order owner"
        }
      },
      "executePreHook(bytes32)": {
        "details": "Prepends a ToOutput instruction with chunkSize, so all stored instructions      can reference index 0 for the chunk amount. Chunk index is read from iterationCount.",
        "params": {
          "orderHash": "The order being settled"
        }
      },
      "executePreHookBySalt(address,bytes32)": {
        "details": "Allows pre-computing appData before order creation. Chunk index is determined      from the order's iterationCount, so the same appData works for all chunks.",
        "params": {
          "salt": "The order salt (known before tx)",
          "user": "The order owner"
        }
      },
      "isValidSignature(bytes32,bytes)": {
        "details": "For non-Safe ERC-1271 contracts, ComposableCoW returns signature as:      abi.encode(GPv2Order.Data, PayloadStruct)      We decode this and verify the order matches what the handler generates."
      },
      "owner()": {
        "details": "Returns the address of the current owner."
      },
      "renounceOwnership()": {
        "details": "Leaves the contract without owner. It will not be possible to call `onlyOwner` functions. Can only be called by the current owner. NOTE: Renouncing ownership will leave the contract without an owner, thereby disabling any functionality that is only available to the owner."
      },
      "transferOwnership(address)": {
        "details": "Transfers ownership of the contract to a new account (`newOwner`). Can only be called by the current owner."
      }
    },
    "title": "KapanOrderManager",
    "version": 1
  },
  "userdoc": {
    "kind": "user",
    "methods": {
      "approveVaultRelayer(address)": {
        "notice": "Approve vault relayer to spend a token"
      },
      "cancelOrder(bytes32)": {
        "notice": "Cancel an active order and refund any remaining seed tokens"
      },
      "composableCoW()": {
        "notice": "The ComposableCoW contract for order registration"
      },
      "createOrder((address,bytes[],uint256,address,address,uint256,uint256,bytes[],uint8,uint256,uint256,bytes32),bytes32,uint256)": {
        "notice": "Create a new CoW order with seed tokens for first chunk"
      },
      "executePostHook(bytes32)": {
        "notice": "Execute post-hook (called by HooksTrampoline during CoW settlement)"
      },
      "executePostHookBySalt(address,bytes32)": {
        "notice": "Execute post-hook using (user, salt) lookup"
      },
      "executePreHook(bytes32)": {
        "notice": "Execute pre-hook (called by HooksTrampoline during CoW settlement)"
      },
      "executePreHookBySalt(address,bytes32)": {
        "notice": "Execute pre-hook using (user, salt) lookup"
      },
      "getOrder(bytes32)": {
        "notice": "Get order context"
      },
      "getUserOrders(address)": {
        "notice": "Get user's orders"
      },
      "hooksTrampoline()": {
        "notice": "The HooksTrampoline contract (caller for hooks)"
      },
      "isOrderComplete(bytes32)": {
        "notice": "Check if an order is complete based on completion criteria"
      },
      "isValidSignature(bytes32,bytes)": {
        "notice": "Verify signature for CoW Protocol orders"
      },
      "orderHandler()": {
        "notice": "The KapanOrderHandler for generating orders"
      },
      "orderSalts(bytes32)": {
        "notice": "Salt used for each order (for ComposableCoW cancellation)"
      },
      "orders(bytes32)": {
        "notice": "Order contexts by order hash"
      },
      "recoverTokens(address,address,uint256)": {
        "notice": "Recover stuck tokens (owner only)"
      },
      "router()": {
        "notice": "The KapanRouter for executing lending operations"
      },
      "settlement()": {
        "notice": "The GPv2Settlement contract"
      },
      "userOrders(address,uint256)": {
        "notice": "User's active orders"
      },
      "userSaltToOrderHash(address,bytes32)": {
        "notice": "Lookup order hash by (user, salt) - enables pre-computing appData"
      }
    },
    "notice": "Manages CoW Protocol orders for Kapan, acting as ERC-1271 signer",
    "version": 1
  },
  "storageLayout": {
    "storage": [
      {
        "astId": 8,
        "contract": "contracts/v2/cow/KapanOrderManager.sol:KapanOrderManager",
        "label": "_owner",
        "offset": 0,
        "slot": "0",
        "type": "t_address"
      },
      {
        "astId": 845,
        "contract": "contracts/v2/cow/KapanOrderManager.sol:KapanOrderManager",
        "label": "_status",
        "offset": 0,
        "slot": "1",
        "type": "t_uint256"
      },
      {
        "astId": 1586,
        "contract": "contracts/v2/cow/KapanOrderManager.sol:KapanOrderManager",
        "label": "router",
        "offset": 0,
        "slot": "2",
        "type": "t_contract(IKapanRouter)1502"
      },
      {
        "astId": 1590,
        "contract": "contracts/v2/cow/KapanOrderManager.sol:KapanOrderManager",
        "label": "composableCoW",
        "offset": 0,
        "slot": "3",
        "type": "t_contract(IComposableCoW)3401"
      },
      {
        "astId": 1594,
        "contract": "contracts/v2/cow/KapanOrderManager.sol:KapanOrderManager",
        "label": "settlement",
        "offset": 0,
        "slot": "4",
        "type": "t_contract(IGPv2Settlement)3535"
      },
      {
        "astId": 1597,
        "contract": "contracts/v2/cow/KapanOrderManager.sol:KapanOrderManager",
        "label": "hooksTrampoline",
        "offset": 0,
        "slot": "5",
        "type": "t_address"
      },
      {
        "astId": 1600,
        "contract": "contracts/v2/cow/KapanOrderManager.sol:KapanOrderManager",
        "label": "orderHandler",
        "offset": 0,
        "slot": "6",
        "type": "t_address"
      },
      {
        "astId": 1606,
        "contract": "contracts/v2/cow/KapanOrderManager.sol:KapanOrderManager",
        "label": "orders",
        "offset": 0,
        "slot": "7",
        "type": "t_mapping(t_bytes32,t_struct(OrderContext)1582_storage)"
      },
      {
        "astId": 1611,
        "contract": "contracts/v2/cow/KapanOrderManager.sol:KapanOrderManager",
        "label": "orderSalts",
        "offset": 0,
        "slot": "8",
        "type": "t_mapping(t_bytes32,t_bytes32)"
      },
      {
        "astId": 1617,
        "contract": "contracts/v2/cow/KapanOrderManager.sol:KapanOrderManager",
        "label": "userOrders",
        "offset": 0,
        "slot": "9",
        "type": "t_mapping(t_address,t_array(t_bytes32)dyn_storage)"
      },
      {
        "astId": 1624,
        "contract": "contracts/v2/cow/KapanOrderManager.sol:KapanOrderManager",
        "label": "userSaltToOrderHash",
        "offset": 0,
        "slot": "10",
        "type": "t_mapping(t_address,t_mapping(t_bytes32,t_bytes32))"
      }
    ],
    "types": {
      "t_address": {
        "encoding": "inplace",
        "label": "address",
        "numberOfBytes": "20"
      },
      "t_array(t_bytes32)dyn_storage": {
        "base": "t_bytes32",
        "encoding": "dynamic_array",
        "label": "bytes32[]",
        "numberOfBytes": "32"
      },
      "t_array(t_bytes_storage)dyn_storage": {
        "base": "t_bytes_storage",
        "encoding": "dynamic_array",
        "label": "bytes[]",
        "numberOfBytes": "32"
      },
      "t_bytes32": {
        "encoding": "inplace",
        "label": "bytes32",
        "numberOfBytes": "32"
      },
      "t_bytes_storage": {
        "encoding": "bytes",
        "label": "bytes",
        "numberOfBytes": "32"
      },
      "t_contract(IComposableCoW)3401": {
        "encoding": "inplace",
        "label": "contract IComposableCoW",
        "numberOfBytes": "20"
      },
      "t_contract(IGPv2Settlement)3535": {
        "encoding": "inplace",
        "label": "contract IGPv2Settlement",
        "numberOfBytes": "20"
      },
      "t_contract(IKapanRouter)1502": {
        "encoding": "inplace",
        "label": "contract IKapanRouter",
        "numberOfBytes": "20"
      },
      "t_enum(CompletionType)1534": {
        "encoding": "inplace",
        "label": "enum KapanOrderManager.CompletionType",
        "numberOfBytes": "1"
      },
      "t_enum(OrderStatus)1539": {
        "encoding": "inplace",
        "label": "enum KapanOrderManager.OrderStatus",
        "numberOfBytes": "1"
      },
      "t_mapping(t_address,t_array(t_bytes32)dyn_storage)": {
        "encoding": "mapping",
        "key": "t_address",
        "label": "mapping(address => bytes32[])",
        "numberOfBytes": "32",
        "value": "t_array(t_bytes32)dyn_storage"
      },
      "t_mapping(t_address,t_mapping(t_bytes32,t_bytes32))": {
        "encoding": "mapping",
        "key": "t_address",
        "label": "mapping(address => mapping(bytes32 => bytes32))",
        "numberOfBytes": "32",
        "value": "t_mapping(t_bytes32,t_bytes32)"
      },
      "t_mapping(t_bytes32,t_bytes32)": {
        "encoding": "mapping",
        "key": "t_bytes32",
        "label": "mapping(bytes32 => bytes32)",
        "numberOfBytes": "32",
        "value": "t_bytes32"
      },
      "t_mapping(t_bytes32,t_struct(OrderContext)1582_storage)": {
        "encoding": "mapping",
        "key": "t_bytes32",
        "label": "mapping(bytes32 => struct KapanOrderManager.OrderContext)",
        "numberOfBytes": "32",
        "value": "t_struct(OrderContext)1582_storage"
      },
      "t_struct(KapanOrderParams)1568_storage": {
        "encoding": "inplace",
        "label": "struct KapanOrderManager.KapanOrderParams",
        "members": [
          {
            "astId": 1542,
            "contract": "contracts/v2/cow/KapanOrderManager.sol:KapanOrderManager",
            "label": "user",
            "offset": 0,
            "slot": "0",
            "type": "t_address"
          },
          {
            "astId": 1545,
            "contract": "contracts/v2/cow/KapanOrderManager.sol:KapanOrderManager",
            "label": "preInstructionsPerIteration",
            "offset": 0,
            "slot": "1",
            "type": "t_array(t_bytes_storage)dyn_storage"
          },
          {
            "astId": 1547,
            "contract": "contracts/v2/cow/KapanOrderManager.sol:KapanOrderManager",
            "label": "preTotalAmount",
            "offset": 0,
            "slot": "2",
            "type": "t_uint256"
          },
          {
            "astId": 1549,
            "contract": "contracts/v2/cow/KapanOrderManager.sol:KapanOrderManager",
            "label": "sellToken",
            "offset": 0,
            "slot": "3",
            "type": "t_address"
          },
          {
            "astId": 1551,
            "contract": "contracts/v2/cow/KapanOrderManager.sol:KapanOrderManager",
            "label": "buyToken",
            "offset": 0,
            "slot": "4",
            "type": "t_address"
          },
          {
            "astId": 1553,
            "contract": "contracts/v2/cow/KapanOrderManager.sol:KapanOrderManager",
            "label": "chunkSize",
            "offset": 0,
            "slot": "5",
            "type": "t_uint256"
          },
          {
            "astId": 1555,
            "contract": "contracts/v2/cow/KapanOrderManager.sol:KapanOrderManager",
            "label": "minBuyPerChunk",
            "offset": 0,
            "slot": "6",
            "type": "t_uint256"
          },
          {
            "astId": 1558,
            "contract": "contracts/v2/cow/KapanOrderManager.sol:KapanOrderManager",
            "label": "postInstructionsPerIteration",
            "offset": 0,
            "slot": "7",
            "type": "t_array(t_bytes_storage)dyn_storage"
          },
          {
            "astId": 1561,
            "contract": "contracts/v2/cow/KapanOrderManager.sol:KapanOrderManager",
            "label": "completion",
            "offset": 0,
            "slot": "8",
            "type": "t_enum(CompletionType)1534"
          },
          {
            "astId": 1563,
            "contract": "contracts/v2/cow/KapanOrderManager.sol:KapanOrderManager",
            "label": "targetValue",
            "offset": 0,
            "slot": "9",
            "type": "t_uint256"
          },
          {
            "astId": 1565,
            "contract": "contracts/v2/cow/KapanOrderManager.sol:KapanOrderManager",
            "label": "minHealthFactor",
            "offset": 0,
            "slot": "10",
            "type": "t_uint256"
          },
          {
            "astId": 1567,
            "contract": "contracts/v2/cow/KapanOrderManager.sol:KapanOrderManager",
            "label": "appDataHash",
            "offset": 0,
            "slot": "11",
            "type": "t_bytes32"
          }
        ],
        "numberOfBytes": "384"
      },
      "t_struct(OrderContext)1582_storage": {
        "encoding": "inplace",
        "label": "struct KapanOrderManager.OrderContext",
        "members": [
          {
            "astId": 1572,
            "contract": "contracts/v2/cow/KapanOrderManager.sol:KapanOrderManager",
            "label": "params",
            "offset": 0,
            "slot": "0",
            "type": "t_struct(KapanOrderParams)1568_storage"
          },
          {
            "astId": 1575,
            "contract": "contracts/v2/cow/KapanOrderManager.sol:KapanOrderManager",
            "label": "status",
            "offset": 0,
            "slot": "12",
            "type": "t_enum(OrderStatus)1539"
          },
          {
            "astId": 1577,
            "contract": "contracts/v2/cow/KapanOrderManager.sol:KapanOrderManager",
            "label": "executedAmount",
            "offset": 0,
            "slot": "13",
            "type": "t_uint256"
          },
          {
            "astId": 1579,
            "contract": "contracts/v2/cow/KapanOrderManager.sol:KapanOrderManager",
            "label": "iterationCount",
            "offset": 0,
            "slot": "14",
            "type": "t_uint256"
          },
          {
            "astId": 1581,
            "contract": "contracts/v2/cow/KapanOrderManager.sol:KapanOrderManager",
            "label": "createdAt",
            "offset": 0,
            "slot": "15",
            "type": "t_uint256"
          }
        ],
        "numberOfBytes": "512"
      },
      "t_uint256": {
        "encoding": "inplace",
        "label": "uint256",
        "numberOfBytes": "32"
      }
    }
  }
}