{
  "address": "0x27Dd6baEA6db73be2ABdf3Ddb631d5aEeb184870",
  "abi": [
    {
      "inputs": [
        {
          "internalType": "address",
          "name": "owner",
          "type": "address"
        }
      ],
      "stateMutability": "nonpayable",
      "type": "constructor"
    },
    {
      "inputs": [
        {
          "internalType": "address",
          "name": "target",
          "type": "address"
        }
      ],
      "name": "AddressEmptyCode",
      "type": "error"
    },
    {
      "inputs": [
        {
          "internalType": "address",
          "name": "account",
          "type": "address"
        }
      ],
      "name": "AddressInsufficientBalance",
      "type": "error"
    },
    {
      "inputs": [],
      "name": "FailedInnerCall",
      "type": "error"
    },
    {
      "inputs": [
        {
          "internalType": "address",
          "name": "owner",
          "type": "address"
        }
      ],
      "name": "OwnableInvalidOwner",
      "type": "error"
    },
    {
      "inputs": [
        {
          "internalType": "address",
          "name": "account",
          "type": "address"
        }
      ],
      "name": "OwnableUnauthorizedAccount",
      "type": "error"
    },
    {
      "inputs": [],
      "name": "ReentrancyGuardReentrantCall",
      "type": "error"
    },
    {
      "inputs": [
        {
          "internalType": "address",
          "name": "token",
          "type": "address"
        }
      ],
      "name": "SafeERC20FailedOperation",
      "type": "error"
    },
    {
      "anonymous": false,
      "inputs": [
        {
          "indexed": false,
          "internalType": "bytes32",
          "name": "provider",
          "type": "bytes32"
        },
        {
          "indexed": true,
          "internalType": "address",
          "name": "token",
          "type": "address"
        },
        {
          "indexed": false,
          "internalType": "uint256",
          "name": "amountWithFee",
          "type": "uint256"
        }
      ],
      "name": "FlashRepaid",
      "type": "event"
    },
    {
      "anonymous": false,
      "inputs": [
        {
          "indexed": false,
          "internalType": "bytes32",
          "name": "provider",
          "type": "bytes32"
        },
        {
          "indexed": true,
          "internalType": "address",
          "name": "token",
          "type": "address"
        },
        {
          "indexed": false,
          "internalType": "uint256",
          "name": "amount",
          "type": "uint256"
        }
      ],
      "name": "FlashRequested",
      "type": "event"
    },
    {
      "anonymous": false,
      "inputs": [
        {
          "indexed": true,
          "internalType": "address",
          "name": "previousOwner",
          "type": "address"
        },
        {
          "indexed": true,
          "internalType": "address",
          "name": "newOwner",
          "type": "address"
        }
      ],
      "name": "OwnershipTransferred",
      "type": "event"
    },
    {
      "inputs": [],
      "name": "aaveEnabled",
      "outputs": [
        {
          "internalType": "bool",
          "name": "",
          "type": "bool"
        }
      ],
      "stateMutability": "view",
      "type": "function"
    },
    {
      "inputs": [],
      "name": "aaveV3Pool",
      "outputs": [
        {
          "internalType": "contract IAaveV3Pool",
          "name": "",
          "type": "address"
        }
      ],
      "stateMutability": "view",
      "type": "function"
    },
    {
      "inputs": [
        {
          "internalType": "string",
          "name": "protocolName",
          "type": "string"
        },
        {
          "internalType": "address",
          "name": "gateway",
          "type": "address"
        }
      ],
      "name": "addGateway",
      "outputs": [],
      "stateMutability": "nonpayable",
      "type": "function"
    },
    {
      "inputs": [
        {
          "components": [
            {
              "internalType": "string",
              "name": "protocolName",
              "type": "string"
            },
            {
              "internalType": "bytes",
              "name": "data",
              "type": "bytes"
            }
          ],
          "internalType": "struct ProtocolTypes.ProtocolInstruction[]",
          "name": "instructions",
          "type": "tuple[]"
        },
        {
          "internalType": "address",
          "name": "caller",
          "type": "address"
        }
      ],
      "name": "authorizeInstructions",
      "outputs": [
        {
          "internalType": "address[]",
          "name": "targets",
          "type": "address[]"
        },
        {
          "internalType": "bytes[]",
          "name": "data",
          "type": "bytes[]"
        }
      ],
      "stateMutability": "view",
      "type": "function"
    },
    {
      "inputs": [
        {
          "components": [
            {
              "internalType": "uint256",
              "name": "amount",
              "type": "uint256"
            },
            {
              "internalType": "address",
              "name": "token",
              "type": "address"
            },
            {
              "internalType": "address",
              "name": "user",
              "type": "address"
            },
            {
              "internalType": "enum KapanRouter.RouterInstructionType",
              "name": "instructionType",
              "type": "uint8"
            }
          ],
          "internalType": "struct KapanRouter.RouterInstruction[]",
          "name": "instrs",
          "type": "tuple[]"
        }
      ],
      "name": "authorizeRouter",
      "outputs": [
        {
          "internalType": "address[]",
          "name": "targets",
          "type": "address[]"
        },
        {
          "internalType": "bytes[]",
          "name": "data",
          "type": "bytes[]"
        }
      ],
      "stateMutability": "view",
      "type": "function"
    },
    {
      "inputs": [],
      "name": "balancerV2Enabled",
      "outputs": [
        {
          "internalType": "bool",
          "name": "",
          "type": "bool"
        }
      ],
      "stateMutability": "view",
      "type": "function"
    },
    {
      "inputs": [],
      "name": "balancerV2Vault",
      "outputs": [
        {
          "internalType": "contract IFlashLoanProvider",
          "name": "",
          "type": "address"
        }
      ],
      "stateMutability": "view",
      "type": "function"
    },
    {
      "inputs": [],
      "name": "balancerV3Enabled",
      "outputs": [
        {
          "internalType": "bool",
          "name": "",
          "type": "bool"
        }
      ],
      "stateMutability": "view",
      "type": "function"
    },
    {
      "inputs": [],
      "name": "balancerV3Vault",
      "outputs": [
        {
          "internalType": "contract IVaultV3",
          "name": "",
          "type": "address"
        }
      ],
      "stateMutability": "view",
      "type": "function"
    },
    {
      "inputs": [
        {
          "components": [
            {
              "internalType": "string",
              "name": "protocolName",
              "type": "string"
            },
            {
              "internalType": "bytes",
              "name": "data",
              "type": "bytes"
            }
          ],
          "internalType": "struct ProtocolTypes.ProtocolInstruction[]",
          "name": "instructions",
          "type": "tuple[]"
        },
        {
          "internalType": "address",
          "name": "caller",
          "type": "address"
        }
      ],
      "name": "deauthorizeInstructions",
      "outputs": [
        {
          "internalType": "address[]",
          "name": "targets",
          "type": "address[]"
        },
        {
          "internalType": "bytes[]",
          "name": "data",
          "type": "bytes[]"
        }
      ],
      "stateMutability": "view",
      "type": "function"
    },
    {
      "inputs": [
        {
          "internalType": "address",
          "name": "asset",
          "type": "address"
        },
        {
          "internalType": "uint256",
          "name": "amount",
          "type": "uint256"
        },
        {
          "internalType": "uint256",
          "name": "premium",
          "type": "uint256"
        },
        {
          "internalType": "address",
          "name": "initiator",
          "type": "address"
        },
        {
          "internalType": "bytes",
          "name": "params",
          "type": "bytes"
        }
      ],
      "name": "executeOperation",
      "outputs": [
        {
          "internalType": "bool",
          "name": "",
          "type": "bool"
        }
      ],
      "stateMutability": "nonpayable",
      "type": "function"
    },
    {
      "inputs": [
        {
          "internalType": "string",
          "name": "",
          "type": "string"
        }
      ],
      "name": "gateways",
      "outputs": [
        {
          "internalType": "contract IGateway",
          "name": "",
          "type": "address"
        }
      ],
      "stateMutability": "view",
      "type": "function"
    },
    {
      "inputs": [],
      "name": "owner",
      "outputs": [
        {
          "internalType": "address",
          "name": "",
          "type": "address"
        }
      ],
      "stateMutability": "view",
      "type": "function"
    },
    {
      "inputs": [
        {
          "components": [
            {
              "internalType": "string",
              "name": "protocolName",
              "type": "string"
            },
            {
              "internalType": "bytes",
              "name": "data",
              "type": "bytes"
            }
          ],
          "internalType": "struct ProtocolTypes.ProtocolInstruction[]",
          "name": "instructions",
          "type": "tuple[]"
        }
      ],
      "name": "processProtocolInstructions",
      "outputs": [],
      "stateMutability": "nonpayable",
      "type": "function"
    },
    {
      "inputs": [
        {
          "internalType": "contract IERC20[]",
          "name": "tokens",
          "type": "address[]"
        },
        {
          "internalType": "uint256[]",
          "name": "amounts",
          "type": "uint256[]"
        },
        {
          "internalType": "uint256[]",
          "name": "feeAmounts",
          "type": "uint256[]"
        },
        {
          "internalType": "bytes",
          "name": "userData",
          "type": "bytes"
        }
      ],
      "name": "receiveFlashLoan",
      "outputs": [],
      "stateMutability": "nonpayable",
      "type": "function"
    },
    {
      "inputs": [
        {
          "internalType": "bytes",
          "name": "userData",
          "type": "bytes"
        }
      ],
      "name": "receiveFlashLoanV3",
      "outputs": [],
      "stateMutability": "nonpayable",
      "type": "function"
    },
    {
      "inputs": [],
      "name": "renounceOwnership",
      "outputs": [],
      "stateMutability": "nonpayable",
      "type": "function"
    },
    {
      "inputs": [
        {
          "internalType": "address",
          "name": "pool",
          "type": "address"
        }
      ],
      "name": "setAaveV3",
      "outputs": [],
      "stateMutability": "nonpayable",
      "type": "function"
    },
    {
      "inputs": [
        {
          "internalType": "address",
          "name": "provider",
          "type": "address"
        }
      ],
      "name": "setBalancerV2",
      "outputs": [],
      "stateMutability": "nonpayable",
      "type": "function"
    },
    {
      "inputs": [
        {
          "internalType": "address",
          "name": "vault",
          "type": "address"
        }
      ],
      "name": "setBalancerV3",
      "outputs": [],
      "stateMutability": "nonpayable",
      "type": "function"
    },
    {
      "inputs": [
        {
          "internalType": "address",
          "name": "factoryOrSentinel",
          "type": "address"
        }
      ],
      "name": "setUniswapV3Enabled",
      "outputs": [],
      "stateMutability": "nonpayable",
      "type": "function"
    },
    {
      "inputs": [
        {
          "internalType": "address",
          "name": "newOwner",
          "type": "address"
        }
      ],
      "name": "transferOwnership",
      "outputs": [],
      "stateMutability": "nonpayable",
      "type": "function"
    },
    {
      "inputs": [],
      "name": "uniswapEnabled",
      "outputs": [
        {
          "internalType": "bool",
          "name": "",
          "type": "bool"
        }
      ],
      "stateMutability": "view",
      "type": "function"
    },
    {
      "inputs": [],
      "name": "uniswapV3FactoryOrSentinel",
      "outputs": [
        {
          "internalType": "address",
          "name": "",
          "type": "address"
        }
      ],
      "stateMutability": "view",
      "type": "function"
    },
    {
      "inputs": [
        {
          "internalType": "uint256",
          "name": "fee0",
          "type": "uint256"
        },
        {
          "internalType": "uint256",
          "name": "fee1",
          "type": "uint256"
        },
        {
          "internalType": "bytes",
          "name": "data",
          "type": "bytes"
        }
      ],
      "name": "uniswapV3FlashCallback",
      "outputs": [],
      "stateMutability": "nonpayable",
      "type": "function"
    }
  ],
  "transactionHash": "0xb6a4377c17eef8f628d744ec69c30a296a026f8f0f68dc769a4fc0954afe5bed",
  "args": [
    "0x0BE61223F99E57b8b8B7033a77B54Adc7f7cF027"
  ],
  "numDeployments": 13,
  "solcInputHash": "6d0830994bdf3e61bb52171d5fd47ece",
  "bytecode": "0x60803460bc57601f61464c38819003918201601f19168301916001600160401b0383118484101760c05780849260209460405283398101031260bc57516001600160a01b0381169081900360bc57801560a9575f80546001600160a01b031981168317825560405192916001600160a01b03909116907f8be0079c531659141344cd1fd0a4f28419497f9722a3daafe3b4186f6b6457e09080a36001805561457790816100d58239f35b631e4fbdf760e01b5f525f60045260245ffd5b5f80fd5b634e487b7160e01b5f52604160045260245ffdfe60806040526004361015610011575f80fd5b5f3560e01c80630acefd35146101a457806310c0a1571461019f5780631b11d0ff1461019a57806328c18416146101955780634c7f3eba146101905780635eaa9da31461018b578063715018a61461018657806386a06ff0146101815780638da5cb5b1461017c5780639dceeca114610177578063a6ed7be314610172578063a86a18161461016d578063bd3fd0ec14610168578063bf11f4af14610163578063bf1e4cf61461015e578063c3865d5714610159578063d7ff41bf14610154578063db236a1f1461014f578063e30b155e1461014a578063e851130314610145578063e9cbafb014610140578063f04f27071461013b578063f0dbeea514610136578063f2fde38b146101315763faea56e21461012c575f80fd5b611665565b6115dc565b6114d4565b611437565b611305565b6112be565b61126f565b611220565b610a5d565b6109cc565b610985565b61078a565b610764565b61073c565b6106d1565b6105c7565b6105a0565b610578565b610521565b6104fb565b6104cf565b610488565b610252565b6101df565b6101b7565b5f9103126101b357565b5f80fd5b346101b3575f3660031901126101b3576003546040516001600160a01b039091168152602090f35b346101b3575f3660031901126101b3576002546040516001600160a01b039091168152602090f35b6001600160a01b038116036101b357565b359061022382610207565b565b9181601f840112156101b3578235916001600160401b0383116101b357602083818601950101116101b357565b346101b35760a03660031901126101b35760043561026f81610207565b606435906044359060243561028384610207565b608435936001600160401b0385116101b35761031d61037c94610325936102b1610318983690600401610225565b9890946102c560ff60055460a01c1661191d565b6102da60018060a01b03600654163314611962565b60045461030890610301906102f5906001600160a01b031681565b6001600160a01b031690565b33146119ae565b6001600160a01b031630146119f3565b611a43565b9436916111b0565b50610330838261277a565b6004546001600160a01b03918216939160209161034d91166102f5565b60405163095ea7b360e01b81526001600160a01b0390911660048201525f602482015292839081906044820190565b03815f875af1918215610466576103de9261046b575b5060045460209082906103ad906001600160a01b03166102f5565b60405163095ea7b360e01b81526001600160a01b039091166004820152602481019190915292839081906044820190565b03815f875af1908115610466575f5160206144c25f395f51905f529261042592610439575b506040519182918291906020604084019366414156455f563360c81b81520152565b0390a26040516001815280602081015b0390f35b61045a9060203d60201161045f575b6104528183611165565b810190611a5f565b610403565b503d610448565b611a74565b6104839060203d60201161045f576104528183611165565b610392565b346101b35760203660031901126101b3576004356104a581610207565b6104ad6127c4565b600280546001600160a01b0319166001600160a01b0392909216919091179055005b346101b3575f3660031901126101b3576004546020906001600160a01b031615155b6040519015158152f35b346101b3575f3660031901126101b3576002546020906001600160a01b031615156104f1565b346101b3575f3660031901126101b3576105396127c4565b5f80546001600160a01b0319811682556001600160a01b03167f8be0079c531659141344cd1fd0a4f28419497f9722a3daafe3b4186f6b6457e08280a3005b346101b3575f3660031901126101b3576004546040516001600160a01b039091168152602090f35b346101b3575f3660031901126101b3575f546040516001600160a01b039091168152602090f35b346101b35760203660031901126101b3576004356105e481610207565b6105ec6127c4565b600480546001600160a01b0319166001600160a01b0392909216919091179055005b805180835260209291819084018484015e5f828201840152601f01601f1916010190565b604081016040825282518091526020606083019301905f5b8181106106b2575050506020818303910152815180825260208201916020808360051b8301019401925f915b83831061068557505050505090565b90919293946020806106a3600193601f19868203018752895161060e565b97019301930191939290610676565b82516001600160a01b031685526020948501949092019160010161064a565b346101b35760203660031901126101b3576004356001600160401b0381116101b357366023820112156101b35780600401356001600160401b0381116101b3573660248260071b840101116101b357602461072c9201611baa565b9061043560405192839283610632565b346101b3575f3660031901126101b3576005546040516001600160a01b039091168152602090f35b346101b3575f3660031901126101b3576005546020906001600160a01b031615156104f1565b346101b35760203660031901126101b3576004356001600160401b0381116101b3576107ba903690600401610225565b906107cc60ff60055460a01c1661191d565b6107e160018060a01b03600654163314611962565b6003546107f6906001600160a01b03166102f5565b61080a6001600160a01b0382163314611c9f565b61081683830183611ceb565b6001600160a01b03909116939092908415158061097c575b61083457005b823b156101b35760405163ae63932960e01b81526001600160a01b038616600482015230602482015260448101859052925f908490606490829084905af19283156104665761088a93610968575b5036916111b0565b50610895818361277a565b6003546108b69082906108b0906001600160a01b03166102f5565b846127ea565b6003546108cb906001600160a01b03166102f5565b90813b156101b3576040516315afd40960e01b81526001600160a01b038416600482015260248101829052915f908390604490829084905af1908115610466575f5160206144c25f395f51905f52926109499261094e575b50604051918291829190602060408401936a42414c414e4345525f563360a81b81520152565b0390a2005b8061095c5f61096293611165565b806101a9565b5f610923565b8061095c5f61097693611165565b5f610882565b5083151561082e565b346101b35760203660031901126101b3576004356109a281610207565b6109aa6127c4565b600580546001600160a01b0319166001600160a01b0392909216919091179055005b346101b3575f3660031901126101b3576003546020906001600160a01b031615156104f1565b9181601f840112156101b3578235916001600160401b0383116101b3576020808501948460051b0101116101b357565b60406003198201126101b357600435906001600160401b0382116101b357610a4c916004016109f2565b9091602435610a5a81610207565b90565b346101b357610a6b36610a22565b610a76929192611d0a565b91610a8084611b04565b93610a8a81611b36565b935f935f925b808410610b2657878787610aa381611b04565b91610aad82611b36565b935f5b838110610ac65760405180610435888883610632565b80610aff610ae6610ad960019486611b96565b516001600160a01b031690565b610af08389611b96565b6001600160a01b039091169052565b610b098185611b96565b51610b148289611b96565b52610b1f8188611b96565b5001610ab0565b909192939594610b37858389611df6565b610b69610b5b610b478380611e18565b604093919351928391602083019586611e4a565b03601f198101835282611165565b5190206040516020810190610b8181610b5b84611e71565b51902014610d7e578084610bb26102f5610ba5610b9f858b97611e18565b90611fa9565b546001600160a01b031690565b916001600160a01b03831615610d3f5791610c1c9391610be2610bda8560205f970190611e18565b810190611fc2565b610bea612066565b90610bf482611b89565b52610bfe81611b89565b506040516352ed587560e01b815295869485938493600485016123ff565b03915afa908115610466575f905f905f93610d18575b50838b8351151580610d01575b80610cee575b15610cbd57610af0610c6692610c60610ad9610c6b97611b89565b92611b96565b611b89565b51610c768389611b96565b52610c818288611b96565b505b8051610ca5575b50610c96600191611adf565b945b0192919095939495610a90565b610cb5610c96916001939661289e565b949150610c8a565b5f9350610cca9250611b96565b52610cd3611efd565b610cdd8389611b96565b52610ce88288611b96565b50610c83565b50610cf883611b89565b51511515610c45565b50610d116102f5610ad986611b89565b1515610c3f565b915050610d3791503d805f833e610d2f8183611165565b81019061229c565b91905f610c32565b50505050610d78815f610d546001948c611b96565b52610d5d611efd565b610d67828a611b96565b52610d728189611b96565b50611adf565b94610c98565b60208195929501610d9a610d928284611e18565b810190611ee9565b915f610da6888d611b96565b52610daf611efd565b610db9888b611b96565b52610dc4878a611b96565b506060830160018151610dd681611ac6565b610ddf81611ac6565b03610f535750505060408101516001600160a01b03858116911614610e48575b6020810151600192610d7892610e42929091906001600160a01b03165b9151610e38610e29611186565b6001600160a01b039094168452565b6020830152612832565b94611adf565b602081018051610e62906102f5906001600160a01b031681565b604051636eb1769f60e11b81526001600160a01b03871660048201523060248201529290602090849060449082905afa93841561046657878c610e4294600197610d78975f91610f25575b50855111610ec3575b5050509350915050610dff565b51610eda92610af0916001600160a01b0316610c60565b815160405163095ea7b360e01b60208201523060248201526044810191909152610f078160648101610b5b565b610f11898c611b96565b52610f1c888b611b96565b50878c5f610eb6565b610f46915060203d8111610f4c575b610f3e8183611165565b810190611f9a565b5f610ead565b503d610f34565b6002819895989492939451610f6781611ac6565b610f7081611ac6565b03610fd357505091610f92610f8a610d7893600195611e18565b810190611f77565b80915051875111610fa35750611adf565b610fcc90610faf611186565b905f82525f60208301525190610fc5828a611b96565b5287611b96565b505f610d72565b6003819895989493929451610fe781611ac6565b610ff081611ac6565b03611019575050506020810151600192610d7892610e42929091906001600160a01b0316610e1c565b909192506004815161102a81611ac6565b61103381611ac6565b0361105b57505050610d78610e4260019261104c611186565b905f82525f6020830152612832565b9592955161106881611ac6565b61107181611ac6565b15611084575b5050610d78600191611adf565b946110a0611098610d789360019598611e18565b810190611f39565b509291505081518151115f146110cd576110be6110c5925182611b96565b5190612832565b945b91611077565b6110da915061104c611186565b946110c7565b634e487b7160e01b5f52604160045260245ffd5b604081019081106001600160401b0382111761110f57604052565b6110e0565b608081019081106001600160401b0382111761110f57604052565b602081019081106001600160401b0382111761110f57604052565b60c081019081106001600160401b0382111761110f57604052565b90601f801991011681019081106001600160401b0382111761110f57604052565b60405190610223604083611165565b6001600160401b03811161110f57601f01601f191660200190565b9291926111bc82611195565b916111ca6040519384611165565b8294818452818301116101b3578281602093845f960137010152565b9080601f830112156101b357816020610a5a933591016111b0565b60208091604051928184925191829101835e8101600781520301902090565b346101b35760203660031901126101b3576004356001600160401b0381116101b3576020906001600160a01b0390611265906112609036906004016111e6565b611201565b5416604051908152f35b346101b35760403660031901126101b3576004356001600160401b0381116101b3576112a26112bc913690600401610225565b602435916112af83610207565b6112b76127c4565b612433565b005b346101b35760203660031901126101b3576004356112db81610207565b6112e36127c4565b600380546001600160a01b0319166001600160a01b0392909216919091179055005b346101b35760603660031901126101b3576024356004356044356001600160401b0381116101b35761133b903690600401610225565b61134c60ff60055460a01c1661191d565b61136160018060a01b03600654163314611962565b81019060a0818303126101b35780359361137a85610207565b60208201359361138985610207565b6040830135916060840135956001600160401b0387116101b3576113ea6080866113c9610949995f5160206144c25f395f51905f529b6113f69a016111e6565b500135916113d683611a55565b6001600160a01b03908116991633146124f5565b1561142f575090611a43565b611400818561277a565b61140b8133866127ea565b6040519182918291906020604084019369554e49535741505f563360b01b81520152565b905090611a43565b346101b35760803660031901126101b3576004356001600160401b0381116101b3576114679036906004016109f2565b6024356001600160401b0381116101b3576114869036906004016109f2565b6044939193356001600160401b0381116101b3576114a89036906004016109f2565b91606435956001600160401b0387116101b3576114cc6112bc973690600401610225565b969095612541565b346101b35760203660031901126101b3576004356001600160401b0381116101b3576115049036906004016109f2565b5f5b81811061151f575061151791612aa0565b6112bc612bb2565b8061152d6001928486611df6565b61153d610b5b610b478380611e18565b519020604051602081019061155581610b5b84611e71565b51902003611565575b5001611506565b610bda816020611576930190611e18565b6003815161158381612301565b61158c81612301565b1480156115bf575b1561155e57604001516115b9906001600160a01b03163390848060a01b031614612934565b5f61155e565b50600281516115cd81612301565b6115d681612301565b14611594565b346101b35760203660031901126101b3576004356115f981610207565b6116016127c4565b6001600160a01b03168015611652575f80546001600160a01b03198116831782556001600160a01b0316907f8be0079c531659141344cd1fd0a4f28419497f9722a3daafe3b4186f6b6457e09080a3005b631e4fbdf760e01b5f525f60045260245ffd5b346101b35761167336610a22565b61167e829392611b04565b9261168881611b36565b925f925f925b8084106116ff57505050506116a281611b04565b916116ac82611b36565b935f5b8381106116c55760405180610435888883610632565b806116d8610ae6610ad960019486611b96565b6116e28185611b96565b516116ed8289611b96565b526116f88188611b96565b50016116af565b909192938261170f868487611df6565b61171f610b5b610b478380611e18565b519020604051602081019061173781610b5b84611e71565b51902014611868576117526102f5610ba5610b9f8480611e18565b906001600160a01b0382161561185457915f9161177a610bda8560206117b398970190611e18565b611782612066565b9061178c82611b89565b5261179681611b89565b5060405180968194829363eaa8352560e01b845260048401612752565b03915afa90811561046657600192611801925f915f91611830575b50828b8351151580611819575b1561180c57610af0610c6692610c60610ad96117f697611b89565b51610d67828a611b96565b945b0192919061168e565b5f9350610d549250611b96565b506118296102f5610ad986611b89565b15156117db565b905061184e91503d805f833e6118468183611165565b81019061270b565b5f6117ce565b505050611801815f610d546001948b611b96565b6118e9915091611881610d928460206001960190611e18565b83606082015161189081611ac6565b61189981611ac6565b14806118fb575b156118ef57602001516118c0906001600160a01b0316610af0838c611b96565b60405163095ea7b360e01b60208201523060248201525f6044820152610d5d8160648101610b5b565b94611803565b505f610d54828b611b96565b5060408101516001600160a01b031660a085901b8590038781169116146118a0565b1561192457565b60405162461bcd60e51b8152602060048201526016602482015275119b185cda081b1bd85b881b9bdd08195b98589b195960521b6044820152606490fd5b1561196957565b60405162461bcd60e51b815260206004820152601960248201527f556e617574686f72697a656420666c6173682063616c6c6572000000000000006044820152606490fd5b156119b557565b60405162461bcd60e51b8152602060048201526016602482015275155b985d5d1a1bdc9a5e99590810585d99481c1bdbdb60521b6044820152606490fd5b156119fa57565b60405162461bcd60e51b815260206004820152600d60248201526c2130b21034b734ba34b0ba37b960991b6044820152606490fd5b634e487b7160e01b5f52601160045260245ffd5b91908201809211611a5057565b611a2f565b801515036101b357565b908160209103126101b35751610a5a81611a55565b6040513d5f823e3d90fd5b634e487b7160e01b5f52603260045260245ffd5b9190811015611aa35760071b0190565b611a7f565b600511156101b357565b634e487b7160e01b5f52602160045260245ffd5b60051115611ad057565b611ab2565b35610a5a81611aa8565b5f198114611a505760010190565b6001600160401b03811161110f5760051b60200190565b90611b0e82611aed565b611b1b6040519182611165565b8281528092611b2c601f1991611aed565b0190602036910137565b90611b4082611aed565b611b4d6040519182611165565b8281528092611b5e601f1991611aed565b01905f5b828110611b6e57505050565b806060602080938501015201611b62565b35610a5a81610207565b805115611aa35760200190565b8051821015611aa35760209160051b010190565b915f925f5b838110611c5c5750611bc9611bc385611b04565b94611b36565b925f905f5b818110611bdb5750505050565b611be6818386611a93565b6001611bf460608301611ad5565b611bfd81611ac6565b14611c0c575b50600101611bce565b83610b5b610d5d83611c2e8c610af06001989a610c606020611c559a01611b7f565b60405163095ea7b360e01b6020820152306024820152903560448201529182906064820190565b9290611c03565b6001611c746060611c6e848887611a93565b01611ad5565b611c7d81611ac6565b14611c8b575b600101611baf565b93611c97600191611adf565b949050611c83565b15611ca657565b60405162461bcd60e51b815260206004820152601860248201527f556e617574686f72697a65642042616c616e63657220763300000000000000006044820152606490fd5b91908260409103126101b35760208235611d0481610207565b92013590565b60405190611d19602083611165565b5f80835282815b828110611d2c57505050565b602090604051611d3b816110f4565b5f81525f8382015282828501015201611d20565b60408051909190611d608382611165565b6001815291601f1901825f5b828110611d7857505050565b602090604051611d87816110f4565b5f81525f8382015282828501015201611d6c565b90611da582611aed565b611db26040519182611165565b8281528092611dc3601f1991611aed565b01905f5b828110611dd357505050565b602090604051611de2816110f4565b5f81525f8382015282828501015201611dc7565b9190811015611aa35760051b81013590603e19813603018212156101b3570190565b903590601e19813603018212156101b357018035906001600160401b0382116101b3576020019181360383136101b357565b90918060409360208452816020850152848401375f828201840152601f01601f1916010190565b6060906020815260066020820152653937baba32b960d11b60408201520190565b91908260809103126101b357604051611eaa81611114565b6060808294803584526020810135611ec181610207565b60208501526040810135611ed481610207565b6040850152013591611ee583611aa8565b0152565b906080828203126101b357610a5a91611e92565b60405190611f0c602083611165565b5f8252565b600411156101b357565b91908260209103126101b357604051611f338161112f565b91358252565b60e0818303126101b357611f4d8282611e92565b9260c0611f6b6080840135611f6181611f11565b9460a08501611f1b565b920135610a5a81610207565b919060a0838203126101b357806080611f93610a5a9386611e92565b9401611f1b565b908160209103126101b3575190565b6020908260405193849283378101600781520301902090565b6020818303126101b3578035906001600160401b0382116101b3570160c0818303126101b35760405191611ff58361114a565b813560078110156101b357835261200e60208301610218565b602084015261201f60408301610218565b60408401526060820135606084015260808201356001600160401b0381116101b357826120538360a09361205e96016111e6565b608086015201611f1b565b60a082015290565b6120706001611aed565b9061207e6040519283611165565b6001825281601f196120906001611aed565b01905f5b8281106120a057505050565b6020906040516120af8161114a565b5f81525f838201525f60408201525f6060820152606060808201526040516120d68161112f565b5f815260a082015282828501015201612094565b9080601f830112156101b357815161210181611aed565b9261210f6040519485611165565b81845260208085019260051b8201019283116101b357602001905b8282106121375750505090565b60208091835161214681610207565b81520191019061212a565b81601f820112156101b35760208151910161216b82611195565b926121796040519485611165565b828452828201116101b357815f926020928386015e8301015290565b9080601f830112156101b35781516121ac81611aed565b926121ba6040519485611165565b81845260208085019260051b820101918383116101b35760208201905b8382106121e657505050505090565b81516001600160401b0381116101b35760209161220887848094880101612151565b8152019101906121d7565b81601f820112156101b35780519061222a82611aed565b926122386040519485611165565b82845260208085019360061b830101918183116101b357602001925b828410612262575050505090565b6040848303126101b3576020604091825161227c816110f4565b865161228781610207565b81528287015183820152815201930192612254565b916060838303126101b35782516001600160401b0381116101b357826122c39185016120ea565b9260208101516001600160401b0381116101b357836122e3918301612195565b9260408201516001600160401b0381116101b357610a5a9201612213565b60071115611ad057565b9080602083519182815201906020808260051b8501019401925f905b82821061233657505050505090565b9091929394601f1982820301855285519081516007811015611ad0576001928260209392849352848060a01b03838301511683820152848060a01b0360408301511660408201526060820151606082015260a0806123a3608085015160c0608086015260c085019061060e565b930151519101529701950193920190612327565b90602080835192838152019201905f5b8181106123d45750505090565b825180516001600160a01b0316855260209081015181860152604090940193909201916001016123c7565b612415610a5a949260608352606083019061230b565b6001600160a01b0390931660208201528083036040909101526123b7565b9190916040518382823760078185019081528190036020019020546001600160a01b03928316921682146124f0576040518382823760078482019081528190036020019020546001600160a01b03166124b2576102239261249391611fa9565b80546001600160a01b0319166001600160a01b03909216919091179055565b60405162461bcd60e51b81526020600482015260166024820152754761746577617920616c72656164792065786973747360501b6044820152606490fd5b505050565b156124fc57565b60405162461bcd60e51b815260206004820152601960248201527f556e617574686f72697a656420556e697377617020706f6f6c000000000000006044820152606490fd5b93906125f45f5160206144c25f395f51905f52976125ee996125ce6125e1956125c76126559b6125c061262e9b6102f59b61258360ff60055460a01c1661191d565b61259860018060a01b03600654163314611962565b6002546125af906001600160a01b0316331461265a565b6125bb60018c146126a6565b612702565b3592612702565b3590611a43565b9a8b926125e66102f56125e1888d612702565b611b7f565b9236916111b0565b5061277a565b612620886126056125e18489612702565b60025461261a906001600160a01b03166102f5565b906127ea565b6001600160a01b0394612702565b1692604051918291829190602060408401936a2120a620a721a2a92fab1960a91b81520152565b0390a2565b1561266157565b60405162461bcd60e51b815260206004820152601860248201527f556e617574686f72697a65642042616c616e63657220763200000000000000006044820152606490fd5b156126ad57565b60405162461bcd60e51b815260206004820152602760248201527f4f6e6c792073696e676c652d617373657420666c617368206c6f616e732073756044820152661c1c1bdc9d195960ca1b6064820152608490fd5b9015611aa35790565b9190916040818403126101b35780516001600160401b0381116101b357836127349183016120ea565b9260208201516001600160401b0381116101b357610a5a9201612195565b9061276a60209194939460408452604084019061230b565b6001600160a01b03909416910152565b612782611d4f565b9160405191612790836110f4565b6001600160a01b031682526020820152815115611aa3576020820152805115611aa3576127bc90612d29565b610223612bb2565b5f546001600160a01b031633036127d757565b63118cdaa760e01b5f523360045260245ffd5b60405163a9059cbb60e01b60208201526001600160a01b03909216602483015260448201929092526102239161282d82606481015b03601f198101845283611165565b612dc4565b919091805160018101809111611a505761284b90611d9b565b915f5b8251811015612881578061286460019285611b96565b5161286f8287611b96565b5261287a8186611b96565b500161284e565b509261289a9151906128938285611b96565b5282611b96565b5090565b91825182518101809111611a50576128b590611d9b565b905f5b84518110156128eb57806128ce60019287611b96565b516128d98286611b96565b526128e48185611b96565b50016128b8565b50915f5b815181101561292d578061292661290860019385611b96565b51612914838951611a43565b9061291f8288611b96565b5285611b96565b50016128ef565b5090925050565b1561293b57565b60405162461bcd60e51b815260206004820152602660248201527f4e6f7420617574686f72697a65643a2073656e646572206d757374206d61746360448201526534103ab9b2b960d11b6064820152608490fd5b6040519061299c826110f4565b60606020838281520152565b5f19810191908211611a5057565b91908203918211611a5057565b6040813603126101b357604051906129da826110f4565b80356001600160401b0381116101b3576129f790369083016111e6565b82526020810135906001600160401b0382116101b357612a19913691016111e6565b602082015290565b602081016020825282518091526040820191602060408360051b8301019401925f915b838310612a5357505050505090565b9091929394602080612a91600193603f1986820301875289519083612a81835160408452604084019061060e565b920151908481840391015261060e565b97019301930191939290612a44565b90612aaa81611aed565b91612ab86040519384611165565b818352601f19612ac783611aed565b015f5b818110612b405750505f5b828110612afd57505050610b5b612af86102239260405192839160208301612a21565b612e60565b80612b24612b1f612b18600194612b13886129a8565b6129b6565b8686611df6565b6129c3565b612b2e8287611b96565b52612b398186611b96565b5001612ad5565b602090612b4b61298f565b82828801015201612aca565b906020610a5a92818152019061060e565b906020828203126101b35781516001600160401b0381116101b357610a5a9201612213565b9091612ba4610a5a936040845260408401906123b7565b91602081840391015261060e565b612bba612f9f565b81515115612c3a575f915b612bcd61311a565b508051604051612be581610b5b602082019485612b57565b5190206040516020810190612bfd81610b5b84611e71565b51902003612c3e57612c0e90613366565b612c3a575b612c1b61311a565b50612c3757612c2990611adf565b612c31612f9f565b90612bc5565b50565b5050565b612c4e6102f5610ba58351611201565b6001600160a01b03811615612cdf57612c8e915f916020612c6d61311a565b920151918360405180968195829463ae4be46d60e01b845260048401612b8d565b03925af1908115610466575f91612cbd575b508051612cae575b50612c13565b612cb790612d29565b5f612ca8565b612cd991503d805f833e612cd18183611165565b810190612b68565b5f612ca0565b60405162461bcd60e51b815260206004820152601160248201527011d85d195dd85e481b9bdd08199bdd5b99607a1b6044820152606490fd5b906020610a5a9281815201906123b7565b612d3161311a565b91612d47612d428451845190611a43565b611d9b565b905f5b8451811015612d7d5780612d6060019287611b96565b51612d6b8286611b96565b52612d768185611b96565b5001612d4a565b50915f5b8151811015612da15780612d9a61290860019385611b96565b5001612d81565b5050610223919250612dbf610b5b9160405192839160208301612d18565b612f00565b5f80612e0c9260018060a01b03169360208151910182865af13d15612e58573d90612dee82611195565b91612dfc6040519384611165565b82523d5f602084013e5b83614463565b8051908115159182612e3d575b5050612e225750565b635274afe760e01b5f526001600160a01b031660045260245ffd5b612e509250602080918301019101611a5f565b155f80612e19565b606090612e06565b805190817f33a7f7e91c7e5e97e4035e86e424aaeb97691c852dc81d823520f664cc2ca71c5d8160051c91601f811690815f5b858110612ed95750612ea6575b50505050565b601f19169091016020908101519190036101000a5f19011916905f5160206144e25f395f51905f52015d5f808080612ea0565b6001915060208160051b860101515f5160206144e25f395f51905f5282015d018290612e93565b805190817f5f92431fdc2b6bf66f91a326fa06b3fad6b4ab24047c9be12b7f412fbfbaa1ec5d8160051c91601f811690815f5b858110612f785750612f455750505050565b601f19169091016020908101519190036101000a5f19011916905f5160206145225f395f51905f52015d5f808080612ea0565b6001915060208160051b860101515f5160206145225f395f51905f5282015d018290612f33565b612fa761298f565b90612fb0613675565b91825180156131125783019260208401906020818603126101b3576020810151906001600160401b0382116101b3570181603f820112156101b357602081015194612ffa86611aed565b956130086040519788611165565b8087526020808089019260051b85010101928484116101b35760408101915b84831061308657505050505050825190811561307d575080613074610b5b612af861305d613057613079966129a8565b88611b96565b51965f198501815260405192839160208301612a21565b6129a8565b1590565b92506001919050565b82516001600160401b0381116101b35782016020810191906040908603601f1901126101b357604051906130b9826110f4565b60208301516001600160401b0381116101b3578860206130db92860101612151565b82526040830151916001600160401b0383116101b35761310389602080969581960101612151565b83820152815201920191613027565b509150600190565b7f5f92431fdc2b6bf66f91a326fa06b3fad6b4ab24047c9be12b7f412fbfbaa1ec5c604051908082528060051c5f5b8181106131af575090602091601f821661318f575b50601f01601f19168201016040528051156131865780602080610a5a93518301019101612b68565b50610a5a611d0a565b5f5160206145225f395f51905f52015c601f19821684018301525f61315e565b805f5160206145225f395f51905f52600192015c60208260051b8701015201613149565b91908260809103126101b3576040516131eb81611114565b606080829480518452602081015161320281610207565b6020850152604081015161321581610207565b6040850152015191611ee583611aa8565b906080828203126101b357610a5a916131d3565b91908260209103126101b3576040516132528161112f565b91518252565b909160c0828403126101b35761326e83836131d3565b926080830151906001600160401b0382116101b35760a061329482610a5a948701612151565b940161323a565b156132a257565b60405162461bcd60e51b8152602060048201526012602482015271082e0e0e4deecca7440c4c2c840d2dcc8caf60731b6044820152606490fd5b156132e357565b60405162461bcd60e51b815260206004820152601960248201527f417070726f76653a20746172676574206e6f7420666f756e64000000000000006044820152606490fd5b60e0818303126101b35761333c82826131d3565b9260c061335a608084015161335081611f11565b9460a0850161323a565b920151610a5a81610207565b602081019061337f825160208082518301019101613226565b9060608201805161338f81611ac6565b61339881611ac6565b6133cc575050506133b66133c7915160208082518301019101613328565b6001600160a01b0316925090613aac565b600190565b600181516133d981611ac6565b6133e281611ac6565b036133f75750506133f391506138c8565b5f90565b6002819392935161340781611ac6565b61341081611ac6565b036134215750506133f391506137d5565b9091506003815161343181611ac6565b61343a81611ac6565b0361349957506133f3915061344d611d4f565b60208201519091906001600160a01b03165b905161347b61346c611186565b6001600160a01b039093168352565b602082015261348982611b89565b5261349381611b89565b50612d29565b60049150516134a781611ac6565b6134b081611ac6565b146134ba57505f90565b6134ce905160208082518301019101613258565b91506134d861311a565b906134e6835183511161329b565b60405160208101906134fc81610b5b8585612b57565b519020604051602081019061351481610b5b84611e71565b519020036136615750305b6135336001600160a01b03821615156132dc565b6135556102f56102f5613547865186611b96565b51516001600160a01b031690565b60405163095ea7b360e01b81526001600160a01b03831660048201525f60248201819052909491602091869160449183915af1938415610466576135bd60209485926135f497613646575b506135b56102f56102f5613547875185611b96565b935190611b96565b51015160405163095ea7b360e01b81526001600160a01b0390931660048401526024830152909283919082905f9082906044820190565b03925af1801561046657613629575b506133f361360f611d4f565b613617611186565b5f81525f602082015261348982611b89565b6136419060203d60201161045f576104528183611165565b613603565b61365c90843d861161045f576104528183611165565b6135a0565b6102f5610ba561367092611201565b61351f565b7f33a7f7e91c7e5e97e4035e86e424aaeb97691c852dc81d823520f664cc2ca71c5c90604051918083528060051c5f5b8181106136ea575090602091601f82166136ca575b50601f01601f1916830101604052565b5f5160206144e25f395f51905f52015c601f19821685018301525f6136ba565b805f5160206144e25f395f51905f52600192015c60208260051b88010152016136a5565b919060a0838203126101b357806080613294610a5a93866131d3565b1561373157565b60405162461bcd60e51b81526020600482015260146024820152730a0eae6d0a8ded6cadc7440c4c2c840d2dcc8caf60631b6044820152606490fd5b1561377457565b60405162461bcd60e51b8152602060048201526015602482015274283ab9b42a37b5b2b71d103d32b937903a37b5b2b760591b6044820152606490fd5b604051906137be82611114565b5f6060838281528260208201528260408201520152565b610b5b612dbf6020610223930161385f6137f982516020808251830101910161370e565b905061380361311a565b92613811825185511161372a565b61381c825185611b96565b518051613833906001600160a01b0316151561376d565b60208101805161386f575b505050613849611186565b905f82525f602083015251906128938285611b96565b5060405192839160208301612d18565b6138b860406138a96102f561389a6138c0976138896137b1565b50516020808251830101910161370e565b5095516001600160a01b031690565b9301516001600160a01b031690565b9051916127ea565b5f808061383e565b60408101516001600160a01b03163303613941576020808201805183516040516323b872dd60e01b948101949094523360248501523060448501526064840152610223939192613928916001600160a01b031661282d826084810161281f565b61345f613933611d4f565b92516001600160a01b031690565b60405162461bcd60e51b815260206004820152600e60248201526d139bdd08185d5d1a1bdc9a5e995960921b6044820152606490fd5b1561397e57565b60405162461bcd60e51b815260206004820152601460248201527308cd8c2e6d098dec2dc7440c4c2c840d2dcc8caf60631b6044820152606490fd5b156139c157565b60405162461bcd60e51b8152602060048201526015602482015274233630b9b42637b0b71d103d32b937903a37b5b2b760591b6044820152606490fd5b15613a0557565b60405162461bcd60e51b8152602060048201526016602482015275119b185cda131bd85b8e881e995c9bc8185b5bdd5b9d60521b6044820152606490fd5b60041115611ad057565b15613a5457565b60405162461bcd60e51b815260206004820152602a60248201527f466c6173684c6f616e3a20556e6973776170563320726571756972657320706f6044820152696f6c206164647265737360b01b6064820152608490fd5b90613ace90613ab961311a565b90613ac78151835111613977565b5190611b96565b518051909290613ae8906001600160a01b031615156139ba565b6020830191613af9835115156139fe565b613b0281613a43565b80613b29575050905161022391906001600160a01b03169051613b23611efd565b91614280565b613b3281613a43565b60018103613b5257505090519051610223916001600160a01b03166140c8565b613b5b81613a43565b60028103613b85575050905161022391906001600160a01b03169051613b7f611efd565b91613f98565b80613b94600392949394613a43565b03613bc65761022392613bb590610ad96001600160a01b0385161515613a4d565b905190613bc0611efd565b92613c0b565b60405162461bcd60e51b815260206004820152601f60248201527f466c6173684c6f616e3a20756e737570706f727465642070726f7669646572006044820152606490fd5b6005805460ff60a01b198116600160a01b17909155600680546001600160a01b0319166001600160a01b0380851691821790925595949291613c4f91161515613e21565b613c5a851515613e63565b613c65821515613e9f565b604051630dfe168160e01b8152602081600481895afa908115610466575f91613e02575b5060405163d21220a760e01b8152916020836004818a5afa928315610466575f93613dcd575b506001600160a01b03858116938116841496921683149291613d019190613cf3908590818015613dc6575b613ce390613eeb565b87604051998a9560208701613f2b565b03601f198101865285611165565b5f5160206145025f395f51905f5260405180613d35868291906020604084019369554e49535741505f563360b01b81520152565b0390a215613dbf5780925b15613db757925b803b156101b357613d73935f8094604051968795869485936312439b2f60e21b85523060048601613f6d565b03925af1801561046657613da3575b50600680546001600160a01b03191690555b6005805460ff60a01b19169055565b8061095c5f613db193611165565b5f613d82565b505f92613d47565b5f92613d40565b5089613cda565b613d01919350613df49060203d602011613dfb575b613dec8183611165565b810190613ed6565b9290613caf565b503d613de2565b613e1b915060203d602011613dfb57613dec8183611165565b5f613c89565b15613e2857565b60405162461bcd60e51b8152602060048201526013602482015272155b9a5cddd85c081d8cc8191a5cd8589b1959606a1b6044820152606490fd5b15613e6a57565b60405162461bcd60e51b815260206004820152600d60248201526c141bdbdb081c995c5d5a5c9959609a1b6044820152606490fd5b15613ea657565b60405162461bcd60e51b81526020600482015260086024820152670416d6f756e743d360c41b6044820152606490fd5b908160209103126101b35751610a5a81610207565b15613ef257565b60405162461bcd60e51b8152602060048201526011602482015270151bdad95b881b9bdd081a5b881c1bdbdb607a1b6044820152606490fd5b6001600160a01b03918216815291166020820152604081019190915260a0606082018190529293929091608091613f65919084019061060e565b931515910152565b9092608092610a5a959460018060a01b0316835260208301526040820152816060820152019061060e565b6004546005805460ff60a01b1916600160a01b179055600680546001600160a01b0319166001600160a01b0383169081179091559293919215614052576102f5614026916040515f5160206145025f395f51905f5260018060a01b03871691806140178a8291906020604084019366414156455f563360c81b81520152565b0390a26001600160a01b031690565b803b156101b357613d73935f8094604051968795869485936310ac2ddf60e21b8552306004860161408a565b60405162461bcd60e51b815260206004820152601060248201526f10585d99481d8cc8191a5cd8589b195960821b6044820152606490fd5b6001600160a01b03918216815291166020820152604081019190915260a0606082018190529092915f916080916140c39186019061060e565b930152565b6003546005805460ff60a01b1916600160a01b179055600680546001600160a01b0319166001600160a01b0383169081179091555f9384936141d293614176936141b5936102f59390915f5160206145025f395f51905f529161401791614130901515614218565b604080516001600160a01b03831660208201529081018590526141849061415a8160608101610b5b565b60405163bf11f4af60e01b6020820152998a9160248301612b57565b03601f1981018a5289611165565b604080516a42414c414e4345525f563360a81b815260208101959095526001600160a01b0390911693918291820190565b906040519485809481936348c8949160e01b835260048301612b57565b03925af18015610466576141f65750600680546001600160a01b0319169055613d94565b614211903d805f833e6142098183611165565b81019061425b565b505f613d82565b1561421f57565b60405162461bcd60e51b815260206004820152601460248201527310985b185b98d95c881d8cc8191a5cd8589b195960621b6044820152606490fd5b906020828203126101b35781516001600160401b0381116101b357610a5a9201612151565b6002546005805460ff60a01b1916600160a01b179055600680546001600160a01b0319166001600160a01b03831690811790915592939192614334916102f5916142cb901515614360565b6142d36143a3565b946001600160a01b03166142ea81610af088611b89565b5f5160206145025f395f51905f526140176143036143a3565b988061430e8b611b89565b52604051918291829190602060408401936a2120a620a721a2a92fab1960a91b81520152565b803b156101b357613d73935f809460405196879586948593632e1c224f60e11b855230600486016143c5565b1561436757565b60405162461bcd60e51b815260206004820152601460248201527310985b185b98d95c881d8c88191a5cd8589b195960621b6044820152606490fd5b604080519091906143b48382611165565b6001815291601f1901366020840137565b6001600160a01b03909116815260806020808301829052835191830182905260a0830196959301905f5b8181106144445750505080850360408201526020808451968781520193015f955b80871061442c575050610a5a939450606081840391015261060e565b90936020806001928751815201950196019590614410565b82516001600160a01b03168852602097880197909201916001016143ef565b90614487575080511561447857805190602001fd5b630a12f52160e11b5f5260045ffd5b815115806144b8575b614498575090565b639996b31560e01b5f9081526001600160a01b0391909116600452602490fd5b50803b1561449056feb21eee5e191a9cc1ec41621c9a0fea677a897b20b22a856449974d61f8061ac433a7f7e91c7e5e97e4035e86e424aaeb97691c852dc81d823520f664cc2ca71d1fd78546830bb8c24aefbbf22320d9d28d30decfca91ec0a9caf26e93c576d125f92431fdc2b6bf66f91a326fa06b3fad6b4ab24047c9be12b7f412fbfbaa1eda26469706673582212209d844a07218aaeaae06eda1134954e32e3749867971ffc41828c022f54c251a964736f6c634300081e0033",
  "devdoc": {
    "errors": {
      "AddressEmptyCode(address)": [
        {
          "details": "There's no code at `target` (it is not a contract)."
        }
      ],
      "AddressInsufficientBalance(address)": [
        {
          "details": "The ETH balance of the account is not enough to perform the operation."
        }
      ],
      "FailedInnerCall()": [
        {
          "details": "A call to an address target failed. The target may have reverted."
        }
      ],
      "OwnableInvalidOwner(address)": [
        {
          "details": "The owner is not a valid owner account. (eg. `address(0)`)"
        }
      ],
      "OwnableUnauthorizedAccount(address)": [
        {
          "details": "The caller account is not authorized to perform an operation."
        }
      ],
      "ReentrancyGuardReentrantCall()": [
        {
          "details": "Unauthorized reentrant call."
        }
      ],
      "SafeERC20FailedOperation(address)": [
        {
          "details": "An operation with an ERC20 token failed."
        }
      ]
    },
    "kind": "dev",
    "methods": {
      "owner()": {
        "details": "Returns the address of the current owner."
      },
      "renounceOwnership()": {
        "details": "Leaves the contract without owner. It will not be possible to call `onlyOwner` functions. Can only be called by the current owner. NOTE: Renouncing ownership will leave the contract without an owner, thereby disabling any functionality that is only available to the owner."
      },
      "transferOwnership(address)": {
        "details": "Transfers ownership of the contract to a new account (`newOwner`). Can only be called by the current owner."
      }
    },
    "version": 1
  },
  "userdoc": {
    "kind": "user",
    "methods": {
      "executeOperation(address,uint256,uint256,address,bytes)": {
        "notice": "Aave v3 callback. Approve Pool for principal+premium; return true to finalize."
      },
      "receiveFlashLoan(address[],uint256[],uint256[],bytes)": {
        "notice": "Balancer v2 callback."
      },
      "receiveFlashLoanV3(bytes)": {
        "notice": "Balancer v3 callback, runs in unlocked context."
      },
      "uniswapV3FlashCallback(uint256,uint256,bytes)": {
        "notice": "Uniswap v3 flash callback. Must repay (amount + fee) to the *pool* (msg.sender)."
      }
    },
    "version": 1
  },
  "storageLayout": {
    "storage": [
      {
        "astId": 1432,
        "contract": "contracts/v2/KapanRouter.sol:KapanRouter",
        "label": "_owner",
        "offset": 0,
        "slot": "0",
        "type": "t_address"
      },
      {
        "astId": 2269,
        "contract": "contracts/v2/KapanRouter.sol:KapanRouter",
        "label": "_status",
        "offset": 0,
        "slot": "1",
        "type": "t_uint256"
      },
      {
        "astId": 4903,
        "contract": "contracts/v2/KapanRouter.sol:KapanRouter",
        "label": "balancerV2Vault",
        "offset": 0,
        "slot": "2",
        "type": "t_contract(IFlashLoanProvider)7323"
      },
      {
        "astId": 4906,
        "contract": "contracts/v2/KapanRouter.sol:KapanRouter",
        "label": "balancerV3Vault",
        "offset": 0,
        "slot": "3",
        "type": "t_contract(IVaultV3)7349"
      },
      {
        "astId": 4909,
        "contract": "contracts/v2/KapanRouter.sol:KapanRouter",
        "label": "aaveV3Pool",
        "offset": 0,
        "slot": "4",
        "type": "t_contract(IAaveV3Pool)4855"
      },
      {
        "astId": 4911,
        "contract": "contracts/v2/KapanRouter.sol:KapanRouter",
        "label": "uniswapV3FactoryOrSentinel",
        "offset": 0,
        "slot": "5",
        "type": "t_address"
      },
      {
        "astId": 4913,
        "contract": "contracts/v2/KapanRouter.sol:KapanRouter",
        "label": "flashLoanEnabled",
        "offset": 20,
        "slot": "5",
        "type": "t_bool"
      },
      {
        "astId": 4915,
        "contract": "contracts/v2/KapanRouter.sol:KapanRouter",
        "label": "authorizedFlashSender",
        "offset": 0,
        "slot": "6",
        "type": "t_address"
      },
      {
        "astId": 2431,
        "contract": "contracts/v2/KapanRouter.sol:KapanRouter",
        "label": "gateways",
        "offset": 0,
        "slot": "7",
        "type": "t_mapping(t_string_memory_ptr,t_contract(IGateway)7264)"
      }
    ],
    "types": {
      "t_address": {
        "encoding": "inplace",
        "label": "address",
        "numberOfBytes": "20"
      },
      "t_bool": {
        "encoding": "inplace",
        "label": "bool",
        "numberOfBytes": "1"
      },
      "t_contract(IAaveV3Pool)4855": {
        "encoding": "inplace",
        "label": "contract IAaveV3Pool",
        "numberOfBytes": "20"
      },
      "t_contract(IFlashLoanProvider)7323": {
        "encoding": "inplace",
        "label": "contract IFlashLoanProvider",
        "numberOfBytes": "20"
      },
      "t_contract(IGateway)7264": {
        "encoding": "inplace",
        "label": "contract IGateway",
        "numberOfBytes": "20"
      },
      "t_contract(IVaultV3)7349": {
        "encoding": "inplace",
        "label": "contract IVaultV3",
        "numberOfBytes": "20"
      },
      "t_mapping(t_string_memory_ptr,t_contract(IGateway)7264)": {
        "encoding": "mapping",
        "key": "t_string_memory_ptr",
        "label": "mapping(string => contract IGateway)",
        "numberOfBytes": "32",
        "value": "t_contract(IGateway)7264"
      },
      "t_string_memory_ptr": {
        "encoding": "bytes",
        "label": "string",
        "numberOfBytes": "32"
      },
      "t_uint256": {
        "encoding": "inplace",
        "label": "uint256",
        "numberOfBytes": "32"
      }
    }
  }
}