{
  "address": "0xDb9c345b561e0C45c9611C00C7719E8815749Fd1",
  "abi": [
    {
      "inputs": [
        {
          "internalType": "address",
          "name": "owner",
          "type": "address"
        }
      ],
      "stateMutability": "nonpayable",
      "type": "constructor"
    },
    {
      "inputs": [
        {
          "internalType": "address",
          "name": "target",
          "type": "address"
        }
      ],
      "name": "AddressEmptyCode",
      "type": "error"
    },
    {
      "inputs": [
        {
          "internalType": "address",
          "name": "account",
          "type": "address"
        }
      ],
      "name": "AddressInsufficientBalance",
      "type": "error"
    },
    {
      "inputs": [],
      "name": "FailedInnerCall",
      "type": "error"
    },
    {
      "inputs": [
        {
          "internalType": "address",
          "name": "owner",
          "type": "address"
        }
      ],
      "name": "OwnableInvalidOwner",
      "type": "error"
    },
    {
      "inputs": [
        {
          "internalType": "address",
          "name": "account",
          "type": "address"
        }
      ],
      "name": "OwnableUnauthorizedAccount",
      "type": "error"
    },
    {
      "inputs": [],
      "name": "ReentrancyGuardReentrantCall",
      "type": "error"
    },
    {
      "inputs": [
        {
          "internalType": "address",
          "name": "token",
          "type": "address"
        }
      ],
      "name": "SafeERC20FailedOperation",
      "type": "error"
    },
    {
      "anonymous": false,
      "inputs": [
        {
          "indexed": false,
          "internalType": "bytes32",
          "name": "provider",
          "type": "bytes32"
        },
        {
          "indexed": true,
          "internalType": "address",
          "name": "token",
          "type": "address"
        },
        {
          "indexed": false,
          "internalType": "uint256",
          "name": "amountWithFee",
          "type": "uint256"
        }
      ],
      "name": "FlashRepaid",
      "type": "event"
    },
    {
      "anonymous": false,
      "inputs": [
        {
          "indexed": false,
          "internalType": "bytes32",
          "name": "provider",
          "type": "bytes32"
        },
        {
          "indexed": true,
          "internalType": "address",
          "name": "token",
          "type": "address"
        },
        {
          "indexed": false,
          "internalType": "uint256",
          "name": "amount",
          "type": "uint256"
        }
      ],
      "name": "FlashRequested",
      "type": "event"
    },
    {
      "anonymous": false,
      "inputs": [
        {
          "indexed": true,
          "internalType": "address",
          "name": "previousOwner",
          "type": "address"
        },
        {
          "indexed": true,
          "internalType": "address",
          "name": "newOwner",
          "type": "address"
        }
      ],
      "name": "OwnershipTransferred",
      "type": "event"
    },
    {
      "inputs": [],
      "name": "aaveEnabled",
      "outputs": [
        {
          "internalType": "bool",
          "name": "",
          "type": "bool"
        }
      ],
      "stateMutability": "view",
      "type": "function"
    },
    {
      "inputs": [],
      "name": "aaveV3Pool",
      "outputs": [
        {
          "internalType": "contract IAaveV3Pool",
          "name": "",
          "type": "address"
        }
      ],
      "stateMutability": "view",
      "type": "function"
    },
    {
      "inputs": [
        {
          "internalType": "string",
          "name": "protocolName",
          "type": "string"
        },
        {
          "internalType": "address",
          "name": "gateway",
          "type": "address"
        }
      ],
      "name": "addGateway",
      "outputs": [],
      "stateMutability": "nonpayable",
      "type": "function"
    },
    {
      "inputs": [
        {
          "components": [
            {
              "internalType": "string",
              "name": "protocolName",
              "type": "string"
            },
            {
              "internalType": "bytes",
              "name": "data",
              "type": "bytes"
            }
          ],
          "internalType": "struct ProtocolTypes.ProtocolInstruction[]",
          "name": "instructions",
          "type": "tuple[]"
        },
        {
          "internalType": "address",
          "name": "caller",
          "type": "address"
        }
      ],
      "name": "authorizeInstructions",
      "outputs": [
        {
          "internalType": "address[]",
          "name": "targets",
          "type": "address[]"
        },
        {
          "internalType": "bytes[]",
          "name": "data",
          "type": "bytes[]"
        }
      ],
      "stateMutability": "view",
      "type": "function"
    },
    {
      "inputs": [
        {
          "components": [
            {
              "internalType": "uint256",
              "name": "amount",
              "type": "uint256"
            },
            {
              "internalType": "address",
              "name": "token",
              "type": "address"
            },
            {
              "internalType": "address",
              "name": "user",
              "type": "address"
            },
            {
              "internalType": "enum KapanRouter.RouterInstructionType",
              "name": "instructionType",
              "type": "uint8"
            }
          ],
          "internalType": "struct KapanRouter.RouterInstruction[]",
          "name": "instrs",
          "type": "tuple[]"
        }
      ],
      "name": "authorizeRouter",
      "outputs": [
        {
          "internalType": "address[]",
          "name": "targets",
          "type": "address[]"
        },
        {
          "internalType": "bytes[]",
          "name": "data",
          "type": "bytes[]"
        }
      ],
      "stateMutability": "view",
      "type": "function"
    },
    {
      "inputs": [],
      "name": "balancerV2Enabled",
      "outputs": [
        {
          "internalType": "bool",
          "name": "",
          "type": "bool"
        }
      ],
      "stateMutability": "view",
      "type": "function"
    },
    {
      "inputs": [],
      "name": "balancerV2Vault",
      "outputs": [
        {
          "internalType": "contract IFlashLoanProvider",
          "name": "",
          "type": "address"
        }
      ],
      "stateMutability": "view",
      "type": "function"
    },
    {
      "inputs": [],
      "name": "balancerV3Enabled",
      "outputs": [
        {
          "internalType": "bool",
          "name": "",
          "type": "bool"
        }
      ],
      "stateMutability": "view",
      "type": "function"
    },
    {
      "inputs": [],
      "name": "balancerV3Vault",
      "outputs": [
        {
          "internalType": "contract IVaultV3",
          "name": "",
          "type": "address"
        }
      ],
      "stateMutability": "view",
      "type": "function"
    },
    {
      "inputs": [
        {
          "internalType": "address",
          "name": "asset",
          "type": "address"
        },
        {
          "internalType": "uint256",
          "name": "amount",
          "type": "uint256"
        },
        {
          "internalType": "uint256",
          "name": "premium",
          "type": "uint256"
        },
        {
          "internalType": "address",
          "name": "initiator",
          "type": "address"
        },
        {
          "internalType": "bytes",
          "name": "params",
          "type": "bytes"
        }
      ],
      "name": "executeOperation",
      "outputs": [
        {
          "internalType": "bool",
          "name": "",
          "type": "bool"
        }
      ],
      "stateMutability": "nonpayable",
      "type": "function"
    },
    {
      "inputs": [
        {
          "internalType": "string",
          "name": "",
          "type": "string"
        }
      ],
      "name": "gateways",
      "outputs": [
        {
          "internalType": "contract IGateway",
          "name": "",
          "type": "address"
        }
      ],
      "stateMutability": "view",
      "type": "function"
    },
    {
      "inputs": [],
      "name": "owner",
      "outputs": [
        {
          "internalType": "address",
          "name": "",
          "type": "address"
        }
      ],
      "stateMutability": "view",
      "type": "function"
    },
    {
      "inputs": [
        {
          "components": [
            {
              "internalType": "string",
              "name": "protocolName",
              "type": "string"
            },
            {
              "internalType": "bytes",
              "name": "data",
              "type": "bytes"
            }
          ],
          "internalType": "struct ProtocolTypes.ProtocolInstruction[]",
          "name": "instructions",
          "type": "tuple[]"
        }
      ],
      "name": "processProtocolInstructions",
      "outputs": [],
      "stateMutability": "nonpayable",
      "type": "function"
    },
    {
      "inputs": [
        {
          "internalType": "contract IERC20[]",
          "name": "tokens",
          "type": "address[]"
        },
        {
          "internalType": "uint256[]",
          "name": "amounts",
          "type": "uint256[]"
        },
        {
          "internalType": "uint256[]",
          "name": "feeAmounts",
          "type": "uint256[]"
        },
        {
          "internalType": "bytes",
          "name": "userData",
          "type": "bytes"
        }
      ],
      "name": "receiveFlashLoan",
      "outputs": [],
      "stateMutability": "nonpayable",
      "type": "function"
    },
    {
      "inputs": [
        {
          "internalType": "bytes",
          "name": "userData",
          "type": "bytes"
        }
      ],
      "name": "receiveFlashLoanV3",
      "outputs": [],
      "stateMutability": "nonpayable",
      "type": "function"
    },
    {
      "inputs": [],
      "name": "renounceOwnership",
      "outputs": [],
      "stateMutability": "nonpayable",
      "type": "function"
    },
    {
      "inputs": [
        {
          "internalType": "address",
          "name": "pool",
          "type": "address"
        }
      ],
      "name": "setAaveV3",
      "outputs": [],
      "stateMutability": "nonpayable",
      "type": "function"
    },
    {
      "inputs": [
        {
          "internalType": "address",
          "name": "provider",
          "type": "address"
        }
      ],
      "name": "setBalancerV2",
      "outputs": [],
      "stateMutability": "nonpayable",
      "type": "function"
    },
    {
      "inputs": [
        {
          "internalType": "address",
          "name": "vault",
          "type": "address"
        }
      ],
      "name": "setBalancerV3",
      "outputs": [],
      "stateMutability": "nonpayable",
      "type": "function"
    },
    {
      "inputs": [
        {
          "internalType": "address",
          "name": "factoryOrSentinel",
          "type": "address"
        }
      ],
      "name": "setUniswapV3Enabled",
      "outputs": [],
      "stateMutability": "nonpayable",
      "type": "function"
    },
    {
      "inputs": [
        {
          "internalType": "address",
          "name": "newOwner",
          "type": "address"
        }
      ],
      "name": "transferOwnership",
      "outputs": [],
      "stateMutability": "nonpayable",
      "type": "function"
    },
    {
      "inputs": [],
      "name": "uniswapEnabled",
      "outputs": [
        {
          "internalType": "bool",
          "name": "",
          "type": "bool"
        }
      ],
      "stateMutability": "view",
      "type": "function"
    },
    {
      "inputs": [],
      "name": "uniswapV3FactoryOrSentinel",
      "outputs": [
        {
          "internalType": "address",
          "name": "",
          "type": "address"
        }
      ],
      "stateMutability": "view",
      "type": "function"
    },
    {
      "inputs": [
        {
          "internalType": "uint256",
          "name": "fee0",
          "type": "uint256"
        },
        {
          "internalType": "uint256",
          "name": "fee1",
          "type": "uint256"
        },
        {
          "internalType": "bytes",
          "name": "data",
          "type": "bytes"
        }
      ],
      "name": "uniswapV3FlashCallback",
      "outputs": [],
      "stateMutability": "nonpayable",
      "type": "function"
    }
  ],
  "transactionHash": "0xc5b2ba8018593dca347f34f07b3f7caccd330b541b859f22d740416627b58738",
  "args": [
    "0x0BE61223F99E57b8b8B7033a77B54Adc7f7cF027"
  ],
  "numDeployments": 11,
  "solcInputHash": "a716fa63da2ea8b0542e948e87f46970",
  "bytecode": "0x6080604052348015600e575f5ffd5b50604051614806380380614806833981016040819052602b9160b8565b806001600160a01b038116605857604051631e4fbdf760e01b81525f600482015260240160405180910390fd5b605f816069565b50506001805560e3565b5f80546001600160a01b038381166001600160a01b0319831681178455604051919092169283917f8be0079c531659141344cd1fd0a4f28419497f9722a3daafe3b4186f6b6457e09190a35050565b5f6020828403121560c7575f5ffd5b81516001600160a01b038116811460dc575f5ffd5b9392505050565b614716806100f05f395ff3fe608060405234801561000f575f5ffd5b5060043610610153575f3560e01c8063bd3fd0ec116100bf578063e30b155e11610079578063e30b155e146102fd578063e851130314610310578063e9cbafb014610323578063f04f270714610336578063f0dbeea514610349578063f2fde38b1461035c575f5ffd5b8063bd3fd0ec1461026a578063bf11f4af1461027d578063bf1e4cf614610290578063c3865d57146102a3578063d7ff41bf146102b6578063db236a1f146102c9575f5ffd5b8063715018a611610110578063715018a6146101f857806386a06ff0146102005780638da5cb5b146102135780639dceeca114610223578063a6ed7be314610236578063a86a181614610257575f5ffd5b80630acefd351461015757806310c0a157146101875780631b11d0ff1461019a57806328c18416146101bd5780634c7f3eba146101d25780635eaa9da3146101e5575b5f5ffd5b60035461016a906001600160a01b031681565b6040516001600160a01b0390911681526020015b60405180910390f35b60025461016a906001600160a01b031681565b6101ad6101a83660046133d0565b61036f565b604051901515815260200161017e565b6101d06101cb366004613446565b6105c1565b005b6004546001600160a01b031615156101ad565b6002546001600160a01b031615156101ad565b6101d06105ea565b60045461016a906001600160a01b031681565b5f546001600160a01b031661016a565b6101d0610231366004613446565b6105fd565b610249610244366004613461565b610623565b60405161017e9291906134fe565b60055461016a906001600160a01b031681565b6005546001600160a01b031615156101ad565b6101d061028b3660046135a7565b610828565b6101d061029e366004613446565b610a42565b6003546001600160a01b031615156101ad565b6102496102c4366004613625565b610a68565b61016a6102d73660046137c3565b80516020818301810180516006825292820191909301209152546001600160a01b031681565b6101d061030b3660046137fc565b6111db565b6101d061031e366004613446565b6112e0565b6101d061033136600461382f565b611306565b6101d061034436600461387d565b611432565b6101d0610357366004613947565b611679565b6101d061036a366004613446565b611699565b6005545f90600160a01b900460ff166103a35760405162461bcd60e51b815260040161039a90613979565b60405180910390fd5b6004546001600160a01b031633146103f65760405162461bcd60e51b8152602060048201526016602482015275155b985d5d1a1bdc9a5e99590810585d99481c1bdbdb60521b604482015260640161039a565b6001600160a01b038416301461043e5760405162461bcd60e51b815260206004820152600d60248201526c2130b21034b734ba34b0ba37b960991b604482015260640161039a565b5f61044986886139bd565b905061048b888286868080601f0160208091040260200160405190810160405280939291908181526020018383808284375f920191909152506116d392505050565b6004805460405163095ea7b360e01b81526001600160a01b03918216928101929092525f602483015289169063095ea7b3906044016020604051808303815f875af11580156104dc573d5f5f3e3d5ffd5b505050506040513d601f19601f8201168201806040525081019061050091906139dd565b506004805460405163095ea7b360e01b81526001600160a01b03918216928101929092526024820183905289169063095ea7b3906044016020604051808303815f875af1158015610553573d5f5f3e3d5ffd5b505050506040513d601f19601f8201168201806040525081019061057791906139dd565b506040805166414156455f563360c81b8152602081018390526001600160a01b038a16915f5160206146a15f395f51905f52910160405180910390a2506001979650505050505050565b6105c961175d565b600280546001600160a01b0319166001600160a01b03831617905550565b50565b6105f261175d565b6105fb5f611789565b565b61060561175d565b600480546001600160a01b0319166001600160a01b03831617905550565b6060805f805b8481101561068957600186868381811061064557610645613a0c565b905060800201606001602081019061065d9190613a2c565b600481111561066e5761066e6139f8565b03610681578161067d81613a47565b9250505b600101610629565b50806001600160401b038111156106a2576106a2613677565b6040519080825280602002602001820160405280156106cb578160200160208202803683370190505b509250806001600160401b038111156106e6576106e6613677565b60405190808252806020026020018201604052801561071957816020015b60608152602001906001900390816107045790505b5091505f805b8581101561081e573687878381811061073a5761073a613a0c565b608002919091019150600190506107576080830160608401613a2c565b6004811115610768576107686139f8565b036108155761077d6040820160208301613446565b86848151811061078f5761078f613a0c565b6001600160a01b039290921660209283029190910182015260408051306024820152833560448083019190915282518083039091018152606490910190915290810180516001600160e01b031663095ea7b360e01b17905285518690859081106107fb576107fb613a0c565b6020026020010181905250828061081190613a47565b9350505b5060010161071f565b5050509250929050565b600554600160a01b900460ff166108515760405162461bcd60e51b815260040161039a90613979565b6003546001600160a01b031633146108ab5760405162461bcd60e51b815260206004820152601860248201527f556e617574686f72697a65642042616c616e6365722076330000000000000000604482015260640161039a565b5f806108b983850185613a5f565b90925090506001600160a01b038216158015906108d557505f81115b15610a3c5760035460405163ae63932960e01b81526001600160a01b038481166004830152306024830152604482018490529091169063ae639329906064015f604051808303815f87803b15801561092b575f5ffd5b505af115801561093d573d5f5f3e3d5ffd5b50505050610981828286868080601f0160208091040260200160405190810160405280939291908181526020018383808284375f920191909152506116d392505050565b60035461099b906001600160a01b038481169116836117d8565b6003546040516315afd40960e01b81526001600160a01b03848116600483015260248201849052909116906315afd409906044015f604051808303815f87803b1580156109e6575f5ffd5b505af11580156109f8573d5f5f3e3d5ffd5b5050604080516a42414c414e4345525f563360a81b8152602081018590526001600160a01b03861693505f5160206146a15f395f51905f5292500160405180910390a25b50505050565b610a4a61175d565b600580546001600160a01b0319166001600160a01b03831617905550565b6060805f846001600160401b03811115610a8457610a84613677565b604051908082528060200260200182016040528015610aad578160200160208202803683370190505b5090505f856001600160401b03811115610ac957610ac9613677565b604051908082528060200260200182016040528015610afc57816020015b6060815260200190600190039081610ae75790505b5090505f805b878110156110a75736898983818110610b1d57610b1d613a0c565b9050602002810190610b2f9190613a89565b9050604051602001610b4090613aa7565b60408051601f198184030181529190528051602090910120610b628280613ac7565b604051602001610b73929190613b09565b6040516020818303038152906040528051906020012003610dd4575f610b9c6020830183613ac7565b810190610ba99190613b37565b9050600181606001516004811115610bc357610bc36139f8565b148015610be55750886001600160a01b031681604001516001600160a01b0316145b15610d60576020810151604051636eb1769f60e11b81526001600160a01b038b811660048301523060248301525f92169063dd62ed3e90604401602060405180830381865afa158015610c3a573d5f5f3e3d5ffd5b505050506040513d601f19601f82011682018060405250810190610c5e9190613b95565b8251909150811015610cfa578160200151878681518110610c8157610c81613a0c565b6001600160a01b039290921660209283029190910182015282516040805130602482015260448082019390935281518082039093018352606401905290810180516001600160e01b031663095ea7b360e01b1790528651879087908110610cea57610cea613a0c565b6020026020010181905250610d5a565b5f878681518110610d0d57610d0d613a0c565b60200260200101906001600160a01b031690816001600160a01b03168152505060405180602001604052805f815250868681518110610d4e57610d4e613a0c565b60200260200101819052505b50610dc0565b5f868581518110610d7357610d73613a0c565b60200260200101906001600160a01b031690816001600160a01b03168152505060405180602001604052805f815250858581518110610db457610db4613a0c565b60200260200101819052505b83610dca81613a47565b945050505061109f565b5f6006610de18380613ac7565b604051610def929190613bac565b908152604051908190036020019020546001600160a01b0316905080610e22575f868581518110610d7357610d73613a0c565b5f610e306020840184613ac7565b810190610e3d9190613bdd565b6040805160018082528183019092529192505f9190816020015b610e966040805160c0810182525f808252602080830182905282840182905260608084018390526080840152835190810190935282529060a082015290565b815260200190600190039081610e5757905050905081815f81518110610ebe57610ebe613a0c565b60200260200101819052505f5f846001600160a01b03166317c2a46b848f6040518363ffffffff1660e01b8152600401610ef9929190613c9b565b5f60405180830381865afa158015610f13573d5f5f3e3d5ffd5b505050506040513d5f823e601f3d908101601f19168201604052610f3a9190810190613e85565b915091505f8251118015610f7957505f6001600160a01b0316825f81518110610f6557610f65613a0c565b60200260200101516001600160a01b031614155b8015610f9e57505f815f81518110610f9357610f93613a0c565b602002602001015151115b1561102b57815f81518110610fb557610fb5613a0c565b60200260200101518a8981518110610fcf57610fcf613a0c565b60200260200101906001600160a01b031690816001600160a01b031681525050805f8151811061100157611001613a0c565b602002602001015189898151811061101b5761101b613a0c565b602002602001018190525061108b565b5f8a898151811061103e5761103e613a0c565b60200260200101906001600160a01b031690816001600160a01b03168152505060405180602001604052805f81525089898151811061107f5761107f613a0c565b60200260200101819052505b8761109581613a47565b9850505050505050505b600101610b02565b50806001600160401b038111156110c0576110c0613677565b6040519080825280602002602001820160405280156110e9578160200160208202803683370190505b509450806001600160401b0381111561110457611104613677565b60405190808252806020026020018201604052801561113757816020015b60608152602001906001900390816111225790505b5093505f5b818110156111cf5783818151811061115657611156613a0c565b602002602001015186828151811061117057611170613a0c565b60200260200101906001600160a01b031690816001600160a01b0316815250508281815181106111a2576111a2613a0c565b60200260200101518582815181106111bc576111bc613a0c565b602090810291909101015260010161113c565b50505050935093915050565b6111e361175d565b806001600160a01b0316600684846040516111ff929190613bac565b908152604051908190036020019020546001600160a01b0316146112db575f6001600160a01b031660068484604051611239929190613bac565b908152604051908190036020019020546001600160a01b0316146112985760405162461bcd60e51b81526020600482015260166024820152754761746577617920616c72656164792065786973747360501b604482015260640161039a565b80600684846040516112ab929190613bac565b90815260405190819003602001902080546001600160a01b03929092166001600160a01b03199092169190911790555b505050565b6112e861175d565b600380546001600160a01b0319166001600160a01b03831617905550565b600554600160a01b900460ff1661132f5760405162461bcd60e51b815260040161039a90613979565b5f8080808061134086880188613f4a565b94509450945094509450846001600160a01b0316336001600160a01b0316146113ab5760405162461bcd60e51b815260206004820152601960248201527f556e617574686f72697a656420556e697377617020706f6f6c00000000000000604482015260640161039a565b5f816113b757886113b9565b895b90505f6113c682866139bd565b90506113d38682866116d3565b6113e76001600160a01b03871633836117d8565b6040805169554e49535741505f563360b01b8152602081018390526001600160a01b038816915f5160206146a15f395f51905f52910160405180910390a25050505050505050505050565b600554600160a01b900460ff1661145b5760405162461bcd60e51b815260040161039a90613979565b6002546001600160a01b031633146114b55760405162461bcd60e51b815260206004820152601860248201527f556e617574686f72697a65642042616c616e6365722076320000000000000000604482015260640161039a565b600187146115155760405162461bcd60e51b815260206004820152602760248201527f4f6e6c792073696e676c652d617373657420666c617368206c6f616e732073756044820152661c1c1bdc9d195960ca1b606482015260840161039a565b5f84845f81811061152857611528613a0c565b9050602002013587875f81811061154157611541613a0c565b9050602002013561155291906139bd565b90506115ba89895f81811061156957611569613a0c565b905060200201602081019061157e9190613446565b8285858080601f0160208091040260200160405190810160405280939291908181526020018383808284375f920191909152506116d392505050565b600254611600906001600160a01b0316828b8b5f816115db576115db613a0c565b90506020020160208101906115f09190613446565b6001600160a01b031691906117d8565b88885f81811061161257611612613a0c565b90506020020160208101906116279190613446565b6001600160a01b03165f5160206146a15f395f51905f528260405161166691906a2120a620a721a2a92fab1960a91b8152602081019190915260400190565b60405180910390a2505050505050505050565b6116838282611837565b61168d8282611990565b611695611aac565b5050565b6116a161175d565b6001600160a01b0381166116ca57604051631e4fbdf760e01b81525f600482015260240161039a565b6105e781611789565b6040805160018082528183019092525f91816020015b604080518082019091525f80825260208201528152602001906001900390816116e95790505090506040518060400160405280856001600160a01b0316815260200184815250815f8151811061174157611741613a0c565b602002602001018190525061175581611c87565b610a3c611aac565b5f546001600160a01b031633146105fb5760405163118cdaa760e01b815233600482015260240161039a565b5f80546001600160a01b038381166001600160a01b0319831681178455604051919092169283917f8be0079c531659141344cd1fd0a4f28419497f9722a3daafe3b4186f6b6457e09190a35050565b6040516001600160a01b038381166024830152604482018390526112db91859182169063a9059cbb906064015b604051602081830303815290604052915060e01b6020820180516001600160e01b038381831617835250505050611dd6565b5f5b818110156112db573683838381811061185457611854613a0c565b90506020028101906118669190613a89565b905060405160200161187790613aa7565b60408051601f1981840301815291905280516020909101206118998280613ac7565b6040516020016118aa929190613b09565b6040516020818303038152906040528051906020012014611987575f6118d36020830183613ac7565b8101906118e09190613bdd565b90506003815160068111156118f7576118f76139f8565b14806119155750600281516006811115611913576119136139f8565b145b156119855760408101516001600160a01b031633146119855760405162461bcd60e51b815260206004820152602660248201527f4e6f7420617574686f72697a65643a2073656e646572206d757374206d61746360448201526534103ab9b2b960d11b606482015260840161039a565b505b50600101611839565b5f816001600160401b038111156119a9576119a9613677565b6040519080825280602002602001820160405280156119ee57816020015b60408051808201909152606080825260208201528152602001906001900390816119c75790505b5090505f5b82811015611a6257838382611a09600183613fc5565b611a139190613fc5565b818110611a2257611a22613a0c565b9050602002810190611a349190613a89565b611a3d90613fd8565b828281518110611a4f57611a4f613a0c565b60209081029190910101526001016119f3565b506112db7f33a7f7e91c7e5e97e4035e86e424aaeb97691c852dc81d823520f664cc2ca71c82604051602001611a989190614044565b604051602081830303815290604052611e37565b5f5f611ab6611e99565b81515191935091505f03611ac8575050565b5f5b5f611ad3611f90565b9050604051602001611ae490613aa7565b60408051601f1981840301815290829052805160209182012086519092611b0b92016140ce565b6040516020818303038152906040528051906020012003611b45575f611b3085612022565b90508015611b3f575050505050565b50611c4d565b5f6006855f0151604051611b5991906140f7565b908152604051908190036020019020546001600160a01b0316905080611bb55760405162461bcd60e51b815260206004820152601160248201527011d85d195dd85e481b9bdd08199bdd5b99607a1b604482015260640161039a565b5f611bbe611f90565b602087015160405163ae4be46d60e01b81529192505f916001600160a01b0385169163ae4be46d91611bf4918691600401614151565b5f604051808303815f875af1158015611c0f573d5f5f3e3d5ffd5b505050506040513d5f823e601f3d908101601f19168201604052611c36919081019061417e565b805190915015611c4957611c4981611c87565b5050505b5f611c56611f90565b90508315611c65575050505050565b82611c6f81613a47565b935050611c7a611e99565b9095509350611aca915050565b5f611c90611f90565b90505f82518251611ca191906139bd565b6001600160401b03811115611cb857611cb8613677565b604051908082528060200260200182016040528015611cfc57816020015b604080518082019091525f8082526020820152815260200190600190039081611cd65790505b5090505f5b8251811015611d4957828181518110611d1c57611d1c613a0c565b6020026020010151828281518110611d3657611d36613a0c565b6020908102919091010152600101611d01565b505f5b8351811015611da057838181518110611d6757611d67613a0c565b602002602001015182828551611d7d91906139bd565b81518110611d8d57611d8d613a0c565b6020908102919091010152600101611d4c565b506112db7f5f92431fdc2b6bf66f91a326fa06b3fad6b4ab24047c9be12b7f412fbfbaa1ec82604051602001611a98919061423c565b5f611dea6001600160a01b038416836124de565b905080515f14158015611e0e575080806020019051810190611e0c91906139dd565b155b156112db57604051635274afe760e01b81526001600160a01b038416600482015260240161039a565b805180835d601f811690602083810191045f5b81811015611e6857602081028301518160010187015d600101611e4a565b508215611e9257602081028201516001846020036101000a0319808216915050808260010187015d505b5050505050565b60408051808201909152606080825260208201525f5f611ed87f33a7f7e91c7e5e97e4035e86e424aaeb97691c852dc81d823520f664cc2ca71c6124f4565b905080515f03611eeb5750909160019150565b5f81806020019051810190611f00919061424e565b80519091505f819003611f195750929360019350915050565b81611f25600183613fc5565b81518110611f3557611f35613a0c565b60200260200101519450600181038252611f7a7f33a7f7e91c7e5e97e4035e86e424aaeb97691c852dc81d823520f664cc2ca71c83604051602001611a989190614044565b611f85600182613fc5565b5f1493505050509091565b60605f611fbc7f5f92431fdc2b6bf66f91a326fa06b3fad6b4ab24047c9be12b7f412fbfbaa1ec6124f4565b905080515f0361200857604080515f8082526020820190925290612001565b604080518082019091525f8082526020820152815260200190600190039081611fdb5790505b5091505090565b8080602001905181019061201c919061417e565b91505090565b5f5f826020015180602001905181019061203c91906143c7565b90505f81606001516004811115612055576120556139f8565b03612093575f5f5f85602001518060200190518101906120759190614403565b93509350935050612087838383612552565b50600195945050505050565b6001816060015160048111156120ab576120ab6139f8565b036120be576120b9816127f1565b6124d6565b6002816060015160048111156120d6576120d66139f8565b036120e4576120b9836128e9565b6003816060015160048111156120fc576120fc6139f8565b03612190576040805160018082528183019092525f91816020015b604080518082019091525f8082526020820152815260200190600190039081612117579050509050604051806040016040528083602001516001600160a01b03168152602001835f0151815250815f8151811061217657612176613a0c565b602002602001018190525061218a81611c87565b506124d6565b6004816060015160048111156121a8576121a86139f8565b036124d6575f5f84602001518060200190518101906121c7919061445d565b92509250505f6121d5611f90565b90508051825f01511061221f5760405162461bcd60e51b8152602060048201526012602482015271082e0e0e4deecca7440c4c2c840d2dcc8caf60731b604482015260640161039a565b5f60405160200161222f90613aa7565b604051602081830303815290604052805190602001208460405160200161225691906140ce565b60405160208183030381529060405280519060200120036122785750306122a4565b60068460405161228891906140f7565b908152604051908190036020019020546001600160a01b031690505b6001600160a01b0381166122fa5760405162461bcd60e51b815260206004820152601960248201527f417070726f76653a20746172676574206e6f7420666f756e6400000000000000604482015260640161039a565b81835f01518151811061230f5761230f613a0c565b60209081029190910101515160405163095ea7b360e01b81526001600160a01b0383811660048301525f60248301529091169063095ea7b3906044016020604051808303815f875af1158015612367573d5f5f3e3d5ffd5b505050506040513d601f19601f8201168201806040525081019061238b91906139dd565b5081835f0151815181106123a1576123a1613a0c565b60200260200101515f01516001600160a01b031663095ea7b38284865f0151815181106123d0576123d0613a0c565b6020026020010151602001516040518363ffffffff1660e01b815260040161240d9291906001600160a01b03929092168252602082015260400190565b6020604051808303815f875af1158015612429573d5f5f3e3d5ffd5b505050506040513d601f19601f8201168201806040525081019061244d91906139dd565b506040805160018082528183019092525f91816020015b604080518082019091525f808252602082015281526020019060019003908161246457905050905060405180604001604052805f6001600160a01b031681526020015f815250815f815181106124bc576124bc613a0c565b60200260200101819052506124d081611c87565b50505050505b505f92915050565b60606124eb83835f612aa4565b90505b92915050565b604051815c8082526020808301908204601f83165f5b8281101561252757600181880181015c602083028601520161250a565b50801561253d578160010186015c602083028401525b5050601f91909101601f191601604052919050565b5f61255b611f90565b90508051835f0151106125a75760405162461bcd60e51b815260206004820152601460248201527308cd8c2e6d098dec2dc7440c4c2c840d2dcc8caf60631b604482015260640161039a565b5f81845f0151815181106125bd576125bd613a0c565b602090810291909101015180519091506001600160a01b031661261a5760405162461bcd60e51b8152602060048201526015602482015274233630b9b42637b0b71d103d32b937903a37b5b2b760591b604482015260640161039a565b5f8160200151116126665760405162461bcd60e51b8152602060048201526016602482015275119b185cda131bd85b8e881e995c9bc8185b5bdd5b9d60521b604482015260640161039a565b5f856003811115612679576126796139f8565b036126a35761269e815f0151826020015160405180602001604052805f815250612b3f565b611e92565b60018560038111156126b7576126b76139f8565b036126cd5761269e815f01518260200151612cf7565b60028560038111156126e1576126e16139f8565b036127065761269e815f0151826020015160405180602001604052805f815250612e9b565b600385600381111561271a5761271a6139f8565b036127a9576001600160a01b0383166127885760405162461bcd60e51b815260206004820152602a60248201527f466c6173684c6f616e3a20556e6973776170563320726571756972657320706f6044820152696f6c206164647265737360b01b606482015260840161039a565b61269e83825f0151836020015160405180602001604052805f815250612fb2565b60405162461bcd60e51b815260206004820152601f60248201527f466c6173684c6f616e3a20756e737570706f727465642070726f766964657200604482015260640161039a565b604081015181906001600160a01b031633146128405760405162461bcd60e51b815260206004820152600e60248201526d139bdd08185d5d1a1bdc9a5e995960921b604482015260640161039a565b81516020830151612860916001600160a01b0390911690339030906132aa565b6040805160018082528183019092525f91816020015b604080518082019091525f8082526020820152815260200190600190039081612876579050509050604051806040016040528084602001516001600160a01b03168152602001845f0151815250815f815181106128d5576128d5613a0c565b60200260200101819052506112db81611c87565b5f816020015180602001905181019061290291906144b8565b9150505f61290e611f90565b90508051825f01511061295a5760405162461bcd60e51b81526020600482015260146024820152730a0eae6d0a8ded6cadc7440c4c2c840d2dcc8caf60631b604482015260640161039a565b5f81835f01518151811061297057612970613a0c565b602090810291909101015180519091506001600160a01b03166129cd5760405162461bcd60e51b8152602060048201526015602482015274283ab9b42a37b5b2b71d103d32b937903a37b5b2b760591b604482015260640161039a565b602081015115612a3c576129fe604080516080810182525f8082526020820181905291810182905290606082015290565b8460200151806020019051810190612a1691906144b8565b50604081015160208401518451929350612a3a926001600160a01b031691906117d8565b505b604080518082019091525f8082526020820152835183518491908110612a6457612a64613a0c565b6020026020010181905250610a3c7f5f92431fdc2b6bf66f91a326fa06b3fad6b4ab24047c9be12b7f412fbfbaa1ec83604051602001611a98919061423c565b606081471015612ac95760405163cd78605960e01b815230600482015260240161039a565b5f5f856001600160a01b03168486604051612ae491906140f7565b5f6040518083038185875af1925050503d805f8114612b1e576040519150601f19603f3d011682016040523d82523d5f602084013e612b23565b606091505b5091509150612b338683836132e3565b925050505b9392505050565b6005805460ff60a01b1916600160a01b179055612b666002546001600160a01b0316151590565b612ba95760405162461bcd60e51b815260206004820152601460248201527310985b185b98d95c881d8c88191a5cd8589b195960621b604482015260640161039a565b6040805160018082528183019092525f916020808301908036833701905050905083815f81518110612bdd57612bdd613a0c565b6001600160a01b0392909216602092830291909101909101526040805160018082528183019092525f9181602001602082028036833701905050905083815f81518110612c2c57612c2c613a0c565b602002602001018181525050846001600160a01b03165f5160206146c15f395f51905f5285604051612c7891906a2120a620a721a2a92fab1960a91b8152602081019190915260400190565b60405180910390a2600254604051632e1c224f60e11b81526001600160a01b0390911690635c38449e90612cb69030908690869089906004016144eb565b5f604051808303815f87803b158015612ccd575f5ffd5b505af1158015612cdf573d5f5f3e3d5ffd5b50506005805460ff60a01b1916905550505050505050565b6005805460ff60a01b1916600160a01b179055612d1e6003546001600160a01b0316151590565b612d615760405162461bcd60e51b815260206004820152601460248201527310985b185b98d95c881d8cc8191a5cd8589b195960621b604482015260640161039a565b604080516001600160a01b0384166020820152808201839052815180820383018152606082019092525f9063bf11f4af60e01b90612da39084906084016140ce565b60408051601f19818403018152918152602080830180516001600160e01b03166001600160e01b03199095169490941790935280516a42414c414e4345525f563360a81b81529283018690529092506001600160a01b038616915f5160206146c15f395f51905f52910160405180910390a26003546040516348c8949160e01b81526001600160a01b03909116906348c8949190612e459084906004016140ce565b5f604051808303815f875af1158015612e60573d5f5f3e3d5ffd5b505050506040513d5f823e601f3d908101601f19168201604052612e87919081019061459a565b50506005805460ff60a01b19169055505050565b6005805460ff60a01b1916600160a01b179055612ec26004546001600160a01b0316151590565b612f015760405162461bcd60e51b815260206004820152601060248201526f10585d99481d8cc8191a5cd8589b195960821b604482015260640161039a565b6040805166414156455f563360c81b8152602081018490526001600160a01b038516915f5160206146c15f395f51905f52910160405180910390a2600480546040516310ac2ddf60e21b81526001600160a01b03909116916342b0b77c91612f739130918891889188915f91016145cb565b5f604051808303815f87803b158015612f8a575f5ffd5b505af1158015612f9c573d5f5f3e3d5ffd5b50506005805460ff60a01b191690555050505050565b60058054600160a01b60ff60a01b198216179091556001600160a01b03166130125760405162461bcd60e51b8152602060048201526013602482015272155b9a5cddd85c081d8cc8191a5cd8589b1959606a1b604482015260640161039a565b6001600160a01b0384166130585760405162461bcd60e51b815260206004820152600d60248201526c141bdbdb081c995c5d5a5c9959609a1b604482015260640161039a565b5f82116130925760405162461bcd60e51b81526020600482015260086024820152670416d6f756e743d360c41b604482015260640161039a565b5f846001600160a01b0316630dfe16816040518163ffffffff1660e01b8152600401602060405180830381865afa1580156130cf573d5f5f3e3d5ffd5b505050506040513d601f19601f820116820180604052508101906130f39190614613565b90505f856001600160a01b031663d21220a76040518163ffffffff1660e01b8152600401602060405180830381865afa158015613132573d5f5f3e3d5ffd5b505050506040513d601f19601f820116820180604052508101906131569190614613565b90506001600160a01b0385811681841681149183161481806131755750805b6131b55760405162461bcd60e51b8152602060048201526011602482015270151bdad95b881b9bdd081a5b881c1bdbdb607a1b604482015260640161039a565b5f88888888866040516020016131cf95949392919061462e565b60408051601f1981840301815282825269554e49535741505f563360b01b8352602083018a905292506001600160a01b038a16915f5160206146c15f395f51905f52910160405180910390a2886001600160a01b031663490e6cbc3085613236575f613238565b895b85613243575f613245565b8a5b856040518563ffffffff1660e01b81526004016132659493929190614674565b5f604051808303815f87803b15801561327c575f5ffd5b505af115801561328e573d5f5f3e3d5ffd5b50506005805460ff60a01b191690555050505050505050505050565b6040516001600160a01b038481166024830152838116604483015260648201839052610a3c9186918216906323b872dd90608401611805565b6060826132f8576132f38261333f565b612b38565b815115801561330f57506001600160a01b0384163b155b1561333857604051639996b31560e01b81526001600160a01b038516600482015260240161039a565b5080612b38565b80511561334f5780518082602001fd5b604051630a12f52160e11b815260040160405180910390fd5b6001600160a01b03811681146105e7575f5ffd5b803561338781613368565b919050565b5f5f83601f84011261339c575f5ffd5b5081356001600160401b038111156133b2575f5ffd5b6020830191508360208285010111156133c9575f5ffd5b9250929050565b5f5f5f5f5f5f60a087890312156133e5575f5ffd5b86356133f081613368565b95506020870135945060408701359350606087013561340e81613368565b925060808701356001600160401b03811115613428575f5ffd5b61343489828a0161338c565b979a9699509497509295939492505050565b5f60208284031215613456575f5ffd5b8135612b3881613368565b5f5f60208385031215613472575f5ffd5b82356001600160401b03811115613487575f5ffd5b8301601f81018513613497575f5ffd5b80356001600160401b038111156134ac575f5ffd5b8560208260071b84010111156134c0575f5ffd5b6020919091019590945092505050565b5f81518084528060208401602086015e5f602082860101526020601f19601f83011685010191505092915050565b604080825283519082018190525f9060208501906060840190835b818110156135405783516001600160a01b0316835260209384019390920191600101613519565b50508381036020850152809150845180825260208201925060208160051b830101602087015f5b8381101561359957601f198584030186526135838383516134d0565b6020968701969093509190910190600101613567565b509098975050505050505050565b5f5f602083850312156135b8575f5ffd5b82356001600160401b038111156135cd575f5ffd5b6135d98582860161338c565b90969095509350505050565b5f5f83601f8401126135f5575f5ffd5b5081356001600160401b0381111561360b575f5ffd5b6020830191508360208260051b85010111156133c9575f5ffd5b5f5f5f60408486031215613637575f5ffd5b83356001600160401b0381111561364c575f5ffd5b613658868287016135e5565b909450925050602084013561366c81613368565b809150509250925092565b634e487b7160e01b5f52604160045260245ffd5b604051608081016001600160401b03811182821017156136ad576136ad613677565b60405290565b604051602081016001600160401b03811182821017156136ad576136ad613677565b60405160c081016001600160401b03811182821017156136ad576136ad613677565b604080519081016001600160401b03811182821017156136ad576136ad613677565b604051601f8201601f191681016001600160401b038111828210171561374157613741613677565b604052919050565b5f6001600160401b0382111561376157613761613677565b50601f01601f191660200190565b5f82601f83011261377e575f5ffd5b8135602083015f61379661379184613749565b613719565b90508281528583830111156137a9575f5ffd5b828260208301375f92810160200192909252509392505050565b5f602082840312156137d3575f5ffd5b81356001600160401b038111156137e8575f5ffd5b6137f48482850161376f565b949350505050565b5f5f5f6040848603121561380e575f5ffd5b83356001600160401b03811115613823575f5ffd5b6136588682870161338c565b5f5f5f5f60608587031215613842575f5ffd5b843593506020850135925060408501356001600160401b03811115613865575f5ffd5b6138718782880161338c565b95989497509550505050565b5f5f5f5f5f5f5f5f6080898b031215613894575f5ffd5b88356001600160401b038111156138a9575f5ffd5b6138b58b828c016135e5565b90995097505060208901356001600160401b038111156138d3575f5ffd5b6138df8b828c016135e5565b90975095505060408901356001600160401b038111156138fd575f5ffd5b6139098b828c016135e5565b90955093505060608901356001600160401b03811115613927575f5ffd5b6139338b828c0161338c565b999c989b5096995094979396929594505050565b5f5f60208385031215613958575f5ffd5b82356001600160401b0381111561396d575f5ffd5b6135d9858286016135e5565b602080825260169082015275119b185cda081b1bd85b881b9bdd08195b98589b195960521b604082015260600190565b634e487b7160e01b5f52601160045260245ffd5b808201808211156124ee576124ee6139a9565b80151581146105e7575f5ffd5b5f602082840312156139ed575f5ffd5b8151612b38816139d0565b634e487b7160e01b5f52602160045260245ffd5b634e487b7160e01b5f52603260045260245ffd5b600581106105e7575f5ffd5b5f60208284031215613a3c575f5ffd5b8135612b3881613a20565b5f60018201613a5857613a586139a9565b5060010190565b5f5f60408385031215613a70575f5ffd5b8235613a7b81613368565b946020939093013593505050565b5f8235603e19833603018112613a9d575f5ffd5b9190910192915050565b6020808252600690820152653937baba32b960d11b604082015260600190565b5f5f8335601e19843603018112613adc575f5ffd5b8301803591506001600160401b03821115613af5575f5ffd5b6020019150368190038213156133c9575f5ffd5b60208152816020820152818360408301375f818301604090810191909152601f909201601f19160101919050565b5f6080828403128015613b48575f5ffd5b50613b5161368b565b823581526020830135613b6381613368565b60208201526040830135613b7681613368565b60408201526060830135613b8981613a20565b60608201529392505050565b5f60208284031215613ba5575f5ffd5b5051919050565b818382375f9101908152919050565b5f60208284031215613bcb575f5ffd5b613bd36136b3565b9135825250919050565b5f60208284031215613bed575f5ffd5b81356001600160401b03811115613c02575f5ffd5b820160c08185031215613c13575f5ffd5b613c1b6136d5565b813560078110613c29575f5ffd5b8152613c376020830161337c565b6020820152613c486040830161337c565b60408201526060828101359082015260808201356001600160401b03811115613c6f575f5ffd5b613c7b8682850161376f565b608083015250613c8e8560a08401613bbb565b60a0820152949350505050565b5f604082016040835280855180835260608501915060608160051b8601019250602087015f5b82811015613d7257868503605f190184528151805160078110613cf257634e487b7160e01b5f52602160045260245ffd5b86526020818101516001600160a01b03169087015260408082015190613d22908801826001600160a01b03169052565b5060608101516060870152608081015160c06080880152613d4660c08801826134d0565b905060a08201519150613d5c60a0880183519052565b9550506020938401939190910190600101613cc1565b5050506001600160a01b0385166020850152509050612b38565b5f6001600160401b03821115613da457613da4613677565b5060051b60200190565b5f82601f830112613dbd575f5ffd5b8151602083015f613dd061379184613749565b9050828152858383011115613de3575f5ffd5b8282602083015e5f92810160200192909252509392505050565b5f82601f830112613e0c575f5ffd5b8151613e1a61379182613d8c565b8082825260208201915060208360051b860101925085831115613e3b575f5ffd5b602085015b83811015613e7b5780516001600160401b03811115613e5d575f5ffd5b613e6c886020838a0101613dae565b84525060209283019201613e40565b5095945050505050565b5f5f60408385031215613e96575f5ffd5b82516001600160401b03811115613eab575f5ffd5b8301601f81018513613ebb575f5ffd5b8051613ec961379182613d8c565b8082825260208201915060208360051b850101925087831115613eea575f5ffd5b6020840193505b82841015613f15578351613f0481613368565b825260209384019390910190613ef1565b8095505050505060208301516001600160401b03811115613f34575f5ffd5b613f4085828601613dfd565b9150509250929050565b5f5f5f5f5f60a08688031215613f5e575f5ffd5b8535613f6981613368565b94506020860135613f7981613368565b93506040860135925060608601356001600160401b03811115613f9a575f5ffd5b613fa68882890161376f565b9250506080860135613fb7816139d0565b809150509295509295909350565b818103818111156124ee576124ee6139a9565b5f60408236031215613fe8575f5ffd5b613ff06136f7565b82356001600160401b03811115614005575f5ffd5b6140113682860161376f565b82525060208301356001600160401b0381111561402c575f5ffd5b6140383682860161376f565b60208301525092915050565b5f602082016020835280845180835260408501915060408160051b8601019250602086015f5b828110156140c257603f19878603018452815180516040875261409060408801826134d0565b90506020820151915086810360208801526140ab81836134d0565b96505050602093840193919091019060010161406a565b50929695505050505050565b602081525f6124eb60208301846134d0565b5f81518060208401855e5f93019283525090919050565b5f6124eb82846140e0565b5f8151808452602084019350602083015f5b8281101561414757815180516001600160a01b031687526020908101518188015260409096019590910190600101614114565b5093949350505050565b604081525f6141636040830185614102565b828103602084015261417581856134d0565b95945050505050565b5f6020828403121561418e575f5ffd5b81516001600160401b038111156141a3575f5ffd5b8201601f810184136141b3575f5ffd5b80516141c161379182613d8c565b8082825260208201915060208360061b8501019250868311156141e2575f5ffd5b6020840193505b828410156142325760408488031215614200575f5ffd5b6142086136f7565b845161421381613368565b81526020858101518183015290835260409094019391909101906141e9565b9695505050505050565b602081525f6124eb6020830184614102565b5f6020828403121561425e575f5ffd5b81516001600160401b03811115614273575f5ffd5b8201601f81018413614283575f5ffd5b805161429161379182613d8c565b8082825260208201915060208360051b8501019250868311156142b2575f5ffd5b602084015b8381101561435e5780516001600160401b038111156142d4575f5ffd5b85016040818a03601f190112156142e9575f5ffd5b6142f16136f7565b60208201516001600160401b03811115614309575f5ffd5b6143188b602083860101613dae565b82525060408201516001600160401b03811115614333575f5ffd5b6143428b602083860101613dae565b60208301525080855250506020830192506020810190506142b7565b509695505050505050565b5f60808284031215614379575f5ffd5b61438161368b565b82518152602083015190915061439681613368565b602082015260408201516143a981613368565b604082015260608201516143bc81613a20565b606082015292915050565b5f608082840312156143d7575f5ffd5b6124eb8383614369565b5f602082840312156143f1575f5ffd5b6143f96136b3565b9151825250919050565b5f5f5f5f60e08587031215614416575f5ffd5b6144208686614369565b9350608085015160048110614433575f5ffd5b92506144428660a087016143e1565b915060c085015161445281613368565b939692955090935050565b5f5f5f60c0848603121561446f575f5ffd5b6144798585614369565b925060808401516001600160401b03811115614493575f5ffd5b61449f86828701613dae565b9250506144af8560a086016143e1565b90509250925092565b5f5f60a083850312156144c9575f5ffd5b6144d38484614369565b91506144e284608085016143e1565b90509250929050565b6001600160a01b03851681526080602080830182905285519183018290525f919086019060a0840190835b8181101561453d5783516001600160a01b0316835260209384019390920191600101614516565b50508381036040850152855180825260209182019250908601905f90815b8181101561457957835185526020948501949093019260010161455b565b50505050828103606084015261458f81856134d0565b979650505050505050565b5f602082840312156145aa575f5ffd5b81516001600160401b038111156145bf575f5ffd5b6137f484828501613dae565b6001600160a01b038681168252851660208201526040810184905260a0606082018190525f906145fd908301856134d0565b905061ffff831660808301529695505050505050565b5f60208284031215614623575f5ffd5b8151612b3881613368565b6001600160a01b038681168252851660208201526040810184905260a0606082018190525f90614660908301856134d0565b905082151560808301529695505050505050565b60018060a01b0385168152836020820152826040820152608060608201525f61423260808301846134d056feb21eee5e191a9cc1ec41621c9a0fea677a897b20b22a856449974d61f8061ac41fd78546830bb8c24aefbbf22320d9d28d30decfca91ec0a9caf26e93c576d12a2646970667358221220533946b51e54a6833f0c96bbcbc5dcf9845e2087c8ce6640c67c5deb29c92fae64736f6c634300081e0033",
  "devdoc": {
    "errors": {
      "AddressEmptyCode(address)": [
        {
          "details": "There's no code at `target` (it is not a contract)."
        }
      ],
      "AddressInsufficientBalance(address)": [
        {
          "details": "The ETH balance of the account is not enough to perform the operation."
        }
      ],
      "FailedInnerCall()": [
        {
          "details": "A call to an address target failed. The target may have reverted."
        }
      ],
      "OwnableInvalidOwner(address)": [
        {
          "details": "The owner is not a valid owner account. (eg. `address(0)`)"
        }
      ],
      "OwnableUnauthorizedAccount(address)": [
        {
          "details": "The caller account is not authorized to perform an operation."
        }
      ],
      "ReentrancyGuardReentrantCall()": [
        {
          "details": "Unauthorized reentrant call."
        }
      ],
      "SafeERC20FailedOperation(address)": [
        {
          "details": "An operation with an ERC20 token failed."
        }
      ]
    },
    "kind": "dev",
    "methods": {
      "owner()": {
        "details": "Returns the address of the current owner."
      },
      "renounceOwnership()": {
        "details": "Leaves the contract without owner. It will not be possible to call `onlyOwner` functions. Can only be called by the current owner. NOTE: Renouncing ownership will leave the contract without an owner, thereby disabling any functionality that is only available to the owner."
      },
      "transferOwnership(address)": {
        "details": "Transfers ownership of the contract to a new account (`newOwner`). Can only be called by the current owner."
      }
    },
    "version": 1
  },
  "userdoc": {
    "kind": "user",
    "methods": {
      "executeOperation(address,uint256,uint256,address,bytes)": {
        "notice": "Aave v3 callback. Approve Pool for principal+premium; return true to finalize."
      },
      "receiveFlashLoan(address[],uint256[],uint256[],bytes)": {
        "notice": "Balancer v2 callback."
      },
      "receiveFlashLoanV3(bytes)": {
        "notice": "Balancer v3 callback, runs in unlocked context."
      },
      "uniswapV3FlashCallback(uint256,uint256,bytes)": {
        "notice": "Uniswap v3 flash callback. Must repay (amount + fee) to the *pool* (msg.sender)."
      }
    },
    "version": 1
  },
  "storageLayout": {
    "storage": [
      {
        "astId": 8,
        "contract": "contracts/v2/KapanRouter.sol:KapanRouter",
        "label": "_owner",
        "offset": 0,
        "slot": "0",
        "type": "t_address"
      },
      {
        "astId": 845,
        "contract": "contracts/v2/KapanRouter.sol:KapanRouter",
        "label": "_status",
        "offset": 0,
        "slot": "1",
        "type": "t_uint256"
      },
      {
        "astId": 2782,
        "contract": "contracts/v2/KapanRouter.sol:KapanRouter",
        "label": "balancerV2Vault",
        "offset": 0,
        "slot": "2",
        "type": "t_contract(IFlashLoanProvider)3641"
      },
      {
        "astId": 2785,
        "contract": "contracts/v2/KapanRouter.sol:KapanRouter",
        "label": "balancerV3Vault",
        "offset": 0,
        "slot": "3",
        "type": "t_contract(IVaultV3)3667"
      },
      {
        "astId": 2788,
        "contract": "contracts/v2/KapanRouter.sol:KapanRouter",
        "label": "aaveV3Pool",
        "offset": 0,
        "slot": "4",
        "type": "t_contract(IAaveV3Pool)2734"
      },
      {
        "astId": 2790,
        "contract": "contracts/v2/KapanRouter.sol:KapanRouter",
        "label": "uniswapV3FactoryOrSentinel",
        "offset": 0,
        "slot": "5",
        "type": "t_address"
      },
      {
        "astId": 2792,
        "contract": "contracts/v2/KapanRouter.sol:KapanRouter",
        "label": "flashLoanEnabled",
        "offset": 20,
        "slot": "5",
        "type": "t_bool"
      },
      {
        "astId": 946,
        "contract": "contracts/v2/KapanRouter.sol:KapanRouter",
        "label": "gateways",
        "offset": 0,
        "slot": "6",
        "type": "t_mapping(t_string_memory_ptr,t_contract(IGateway)3582)"
      }
    ],
    "types": {
      "t_address": {
        "encoding": "inplace",
        "label": "address",
        "numberOfBytes": "20"
      },
      "t_bool": {
        "encoding": "inplace",
        "label": "bool",
        "numberOfBytes": "1"
      },
      "t_contract(IAaveV3Pool)2734": {
        "encoding": "inplace",
        "label": "contract IAaveV3Pool",
        "numberOfBytes": "20"
      },
      "t_contract(IFlashLoanProvider)3641": {
        "encoding": "inplace",
        "label": "contract IFlashLoanProvider",
        "numberOfBytes": "20"
      },
      "t_contract(IGateway)3582": {
        "encoding": "inplace",
        "label": "contract IGateway",
        "numberOfBytes": "20"
      },
      "t_contract(IVaultV3)3667": {
        "encoding": "inplace",
        "label": "contract IVaultV3",
        "numberOfBytes": "20"
      },
      "t_mapping(t_string_memory_ptr,t_contract(IGateway)3582)": {
        "encoding": "mapping",
        "key": "t_string_memory_ptr",
        "label": "mapping(string => contract IGateway)",
        "numberOfBytes": "32",
        "value": "t_contract(IGateway)3582"
      },
      "t_string_memory_ptr": {
        "encoding": "bytes",
        "label": "string",
        "numberOfBytes": "32"
      },
      "t_uint256": {
        "encoding": "inplace",
        "label": "uint256",
        "numberOfBytes": "32"
      }
    }
  }
}