{
  "address": "0xCfd1DE00a7B2e74BaF966396F43b7348F92c6Ff2",
  "abi": [
    {
      "inputs": [
        {
          "internalType": "address",
          "name": "owner",
          "type": "address"
        }
      ],
      "stateMutability": "nonpayable",
      "type": "constructor"
    },
    {
      "inputs": [
        {
          "internalType": "address",
          "name": "target",
          "type": "address"
        }
      ],
      "name": "AddressEmptyCode",
      "type": "error"
    },
    {
      "inputs": [
        {
          "internalType": "address",
          "name": "account",
          "type": "address"
        }
      ],
      "name": "AddressInsufficientBalance",
      "type": "error"
    },
    {
      "inputs": [],
      "name": "FailedInnerCall",
      "type": "error"
    },
    {
      "inputs": [
        {
          "internalType": "address",
          "name": "owner",
          "type": "address"
        }
      ],
      "name": "OwnableInvalidOwner",
      "type": "error"
    },
    {
      "inputs": [
        {
          "internalType": "address",
          "name": "account",
          "type": "address"
        }
      ],
      "name": "OwnableUnauthorizedAccount",
      "type": "error"
    },
    {
      "inputs": [],
      "name": "ReentrancyGuardReentrantCall",
      "type": "error"
    },
    {
      "inputs": [
        {
          "internalType": "address",
          "name": "token",
          "type": "address"
        }
      ],
      "name": "SafeERC20FailedOperation",
      "type": "error"
    },
    {
      "anonymous": false,
      "inputs": [
        {
          "indexed": true,
          "internalType": "address",
          "name": "previousOwner",
          "type": "address"
        },
        {
          "indexed": true,
          "internalType": "address",
          "name": "newOwner",
          "type": "address"
        }
      ],
      "name": "OwnershipTransferred",
      "type": "event"
    },
    {
      "inputs": [
        {
          "internalType": "string",
          "name": "protocolName",
          "type": "string"
        },
        {
          "internalType": "address",
          "name": "gateway",
          "type": "address"
        }
      ],
      "name": "addGateway",
      "outputs": [],
      "stateMutability": "nonpayable",
      "type": "function"
    },
    {
      "inputs": [
        {
          "components": [
            {
              "internalType": "string",
              "name": "protocolName",
              "type": "string"
            },
            {
              "internalType": "bytes",
              "name": "data",
              "type": "bytes"
            }
          ],
          "internalType": "struct ProtocolTypes.ProtocolInstruction[]",
          "name": "instructions",
          "type": "tuple[]"
        },
        {
          "internalType": "address",
          "name": "caller",
          "type": "address"
        }
      ],
      "name": "authorizeInstructions",
      "outputs": [
        {
          "internalType": "address[]",
          "name": "targets",
          "type": "address[]"
        },
        {
          "internalType": "bytes[]",
          "name": "data",
          "type": "bytes[]"
        }
      ],
      "stateMutability": "view",
      "type": "function"
    },
    {
      "inputs": [
        {
          "components": [
            {
              "internalType": "uint256",
              "name": "amount",
              "type": "uint256"
            },
            {
              "internalType": "address",
              "name": "token",
              "type": "address"
            },
            {
              "internalType": "address",
              "name": "user",
              "type": "address"
            },
            {
              "internalType": "enum KapanRouter.RouterInstructionType",
              "name": "instructionType",
              "type": "uint8"
            }
          ],
          "internalType": "struct KapanRouter.RouterInstruction[]",
          "name": "instrs",
          "type": "tuple[]"
        }
      ],
      "name": "authorizeRouter",
      "outputs": [
        {
          "internalType": "address[]",
          "name": "targets",
          "type": "address[]"
        },
        {
          "internalType": "bytes[]",
          "name": "data",
          "type": "bytes[]"
        }
      ],
      "stateMutability": "view",
      "type": "function"
    },
    {
      "inputs": [],
      "name": "balancerV2Vault",
      "outputs": [
        {
          "internalType": "contract IFlashLoanProvider",
          "name": "",
          "type": "address"
        }
      ],
      "stateMutability": "view",
      "type": "function"
    },
    {
      "inputs": [],
      "name": "balancerV3Vault",
      "outputs": [
        {
          "internalType": "contract IVaultV3",
          "name": "",
          "type": "address"
        }
      ],
      "stateMutability": "view",
      "type": "function"
    },
    {
      "inputs": [
        {
          "internalType": "string",
          "name": "",
          "type": "string"
        }
      ],
      "name": "gateways",
      "outputs": [
        {
          "internalType": "contract IGateway",
          "name": "",
          "type": "address"
        }
      ],
      "stateMutability": "view",
      "type": "function"
    },
    {
      "inputs": [],
      "name": "owner",
      "outputs": [
        {
          "internalType": "address",
          "name": "",
          "type": "address"
        }
      ],
      "stateMutability": "view",
      "type": "function"
    },
    {
      "inputs": [
        {
          "components": [
            {
              "internalType": "string",
              "name": "protocolName",
              "type": "string"
            },
            {
              "internalType": "bytes",
              "name": "data",
              "type": "bytes"
            }
          ],
          "internalType": "struct ProtocolTypes.ProtocolInstruction[]",
          "name": "instructions",
          "type": "tuple[]"
        }
      ],
      "name": "processProtocolInstructions",
      "outputs": [],
      "stateMutability": "nonpayable",
      "type": "function"
    },
    {
      "inputs": [
        {
          "internalType": "contract IERC20[]",
          "name": "tokens",
          "type": "address[]"
        },
        {
          "internalType": "uint256[]",
          "name": "amounts",
          "type": "uint256[]"
        },
        {
          "internalType": "uint256[]",
          "name": "feeAmounts",
          "type": "uint256[]"
        },
        {
          "internalType": "bytes",
          "name": "userData",
          "type": "bytes"
        }
      ],
      "name": "receiveFlashLoan",
      "outputs": [],
      "stateMutability": "nonpayable",
      "type": "function"
    },
    {
      "inputs": [
        {
          "internalType": "bytes",
          "name": "userData",
          "type": "bytes"
        }
      ],
      "name": "receiveFlashLoanV3",
      "outputs": [],
      "stateMutability": "nonpayable",
      "type": "function"
    },
    {
      "inputs": [],
      "name": "renounceOwnership",
      "outputs": [],
      "stateMutability": "nonpayable",
      "type": "function"
    },
    {
      "inputs": [
        {
          "internalType": "address",
          "name": "provider",
          "type": "address"
        }
      ],
      "name": "setBalancerV2",
      "outputs": [],
      "stateMutability": "nonpayable",
      "type": "function"
    },
    {
      "inputs": [
        {
          "internalType": "address",
          "name": "vault",
          "type": "address"
        }
      ],
      "name": "setBalancerV3",
      "outputs": [],
      "stateMutability": "nonpayable",
      "type": "function"
    },
    {
      "inputs": [
        {
          "internalType": "address",
          "name": "newOwner",
          "type": "address"
        }
      ],
      "name": "transferOwnership",
      "outputs": [],
      "stateMutability": "nonpayable",
      "type": "function"
    }
  ],
  "transactionHash": "0x9f39d5f9371d3f9733b8a74b0ab808f58ea9426ed9b5429df58e2ee42263e0c3",
  "args": [
    "0x0BE61223F99E57b8b8B7033a77B54Adc7f7cF027"
  ],
  "numDeployments": 2,
  "solcInputHash": "8da3e2aeda2dc6faa9009e01f763deb6",
  "bytecode": "0x6080604052348015600e575f5ffd5b50604051614850380380614850833981016040819052602b9160b8565b806001600160a01b038116605857604051631e4fbdf760e01b81525f600482015260240160405180910390fd5b605f816069565b50506001805560e3565b5f80546001600160a01b038381166001600160a01b0319831681178455604051919092169283917f8be0079c531659141344cd1fd0a4f28419497f9722a3daafe3b4186f6b6457e09190a35050565b5f6020828403121560c7575f5ffd5b81516001600160a01b038116811460dc575f5ffd5b9392505050565b614760806100f05f395ff3fe608060405234801561000f575f5ffd5b50600436106100e5575f3560e01c8063d7ff41bf11610088578063e851130311610063578063e8511303146101e7578063f04f2707146101fa578063f0dbeea51461020d578063f2fde38b14610220575f5ffd5b8063d7ff41bf1461018d578063db236a1f146101a0578063e30b155e146101d4575f5ffd5b8063715018a6116100c3578063715018a6146101415780638da5cb5b14610149578063a6ed7be314610159578063bf11f4af1461017a575f5ffd5b80630acefd35146100e957806310c0a1571461011957806328c184161461012c575b5f5ffd5b6003546100fc906001600160a01b031681565b6040516001600160a01b0390911681526020015b60405180910390f35b6002546100fc906001600160a01b031681565b61013f61013a3660046130ef565b610233565b005b61013f61025c565b5f546001600160a01b03166100fc565b61016c61016736600461310a565b61026f565b6040516101109291906131a7565b61013f610188366004613294565b610474565b61016c61019b366004613312565b610664565b6100fc6101ae3660046134b0565b80516020818301810180516004825292820191909301209152546001600160a01b031681565b61013f6101e23660046134e9565b610cf1565b61013f6101f53660046130ef565b610df6565b61013f61020836600461351c565b610e1c565b61013f61021b3660046135e6565b610f78565b61013f61022e3660046130ef565b610fd6565b61023b611010565b600280546001600160a01b0319166001600160a01b03831617905550565b50565b610264611010565b61026d5f61103c565b565b6060805f805b848110156102d55760028686838181106102915761029161362c565b90506080020160600160208101906102a9919061364c565b60058111156102ba576102ba613618565b036102cd57816102c98161367b565b9250505b600101610275565b50806001600160401b038111156102ee576102ee613364565b604051908082528060200260200182016040528015610317578160200160208202803683370190505b509250806001600160401b0381111561033257610332613364565b60405190808252806020026020018201604052801561036557816020015b60608152602001906001900390816103505790505b5091505f805b8581101561046a57368787838181106103865761038661362c565b608002919091019150600290506103a3608083016060840161364c565b60058111156103b4576103b4613618565b03610461576103c960408201602083016130ef565b8684815181106103db576103db61362c565b6001600160a01b039290921660209283029190910182015260408051306024820152833560448083019190915282518083039091018152606490910190915290810180516001600160e01b031663095ea7b360e01b17905285518690859081106104475761044761362c565b6020026020010181905250828061045d9061367b565b9350505b5060010161036b565b5050509250929050565b600354600160a01b900460ff166104cb5760405162461bcd60e51b8152602060048201526016602482015275119b185cda081b1bd85b881b9bdd08195b98589b195960521b60448201526064015b60405180910390fd5b6003546001600160a01b031633146105255760405162461bcd60e51b815260206004820181905260248201527f556e617574686f72697a656420666c617368206c6f616e2070726f766964657260448201526064016104c2565b5f8061053383850185613693565b90925090506001600160a01b0382161580159061054f57505f81115b156105bc5760035460405163ae63932960e01b81526001600160a01b038481166004830152306024830152604482018490529091169063ae639329906064015f604051808303815f87803b1580156105a5575f5ffd5b505af11580156105b7573d5f5f3e3d5ffd5b505050505b6105c6848461108b565b6001600160a01b038216158015906105dd57505f81115b1561065e576003546105fc906001600160a01b03848116911683611208565b6003546040516315afd40960e01b81526001600160a01b03848116600483015260248201849052909116906315afd409906044015f604051808303815f87803b158015610647575f5ffd5b505af1158015610659573d5f5f3e3d5ffd5b505050505b50505050565b6060805f846001600160401b0381111561068057610680613364565b6040519080825280602002602001820160405280156106a9578160200160208202803683370190505b5090505f856001600160401b038111156106c5576106c5613364565b6040519080825280602002602001820160405280156106f857816020015b60608152602001906001900390816106e35790505b5090505f805b87811015610bbd57368989838181106107195761071961362c565b905060200281019061072b91906136bd565b905060405160200161073c906136db565b60408051601f19818403018152919052805160209091012061075e82806136fb565b60405160200161076f92919061373d565b60405160208183030381529060405280519060200120036108ea575f61079860208301836136fb565b8101906107a5919061376b565b90506002816060015160058111156107bf576107bf613618565b1480156107e15750886001600160a01b031681604001516001600160a01b0316145b156108765780602001518685815181106107fd576107fd61362c565b6001600160a01b039290921660209283029190910182015281516040805130602482015260448082019390935281518082039093018352606401905290810180516001600160e01b031663095ea7b360e01b17905285518690869081106108665761086661362c565b60200260200101819052506108d6565b5f8685815181106108895761088961362c565b60200260200101906001600160a01b031690816001600160a01b03168152505060405180602001604052805f8152508585815181106108ca576108ca61362c565b60200260200101819052505b836108e08161367b565b9450505050610bb5565b5f60046108f783806136fb565b6040516109059291906137c9565b908152604051908190036020019020546001600160a01b0316905080610938575f8685815181106108895761088961362c565b5f61094660208401846136fb565b81019061095391906137fa565b6040805160018082528183019092529192505f9190816020015b6109ac6040805160c0810182525f808252602080830182905282840182905260608084018390526080840152835190810190935282529060a082015290565b81526020019060019003908161096d57905050905081815f815181106109d4576109d461362c565b60200260200101819052505f5f846001600160a01b03166317c2a46b848f6040518363ffffffff1660e01b8152600401610a0f9291906138b8565b5f60405180830381865afa158015610a29573d5f5f3e3d5ffd5b505050506040513d5f823e601f3d908101601f19168201604052610a509190810190613aa2565b915091505f8251118015610a8f57505f6001600160a01b0316825f81518110610a7b57610a7b61362c565b60200260200101516001600160a01b031614155b8015610ab457505f815f81518110610aa957610aa961362c565b602002602001015151115b15610b4157815f81518110610acb57610acb61362c565b60200260200101518a8981518110610ae557610ae561362c565b60200260200101906001600160a01b031690816001600160a01b031681525050805f81518110610b1757610b1761362c565b6020026020010151898981518110610b3157610b3161362c565b6020026020010181905250610ba1565b5f8a8981518110610b5457610b5461362c565b60200260200101906001600160a01b031690816001600160a01b03168152505060405180602001604052805f815250898981518110610b9557610b9561362c565b60200260200101819052505b87610bab8161367b565b9850505050505050505b6001016106fe565b50806001600160401b03811115610bd657610bd6613364565b604051908082528060200260200182016040528015610bff578160200160208202803683370190505b509450806001600160401b03811115610c1a57610c1a613364565b604051908082528060200260200182016040528015610c4d57816020015b6060815260200190600190039081610c385790505b5093505f5b81811015610ce557838181518110610c6c57610c6c61362c565b6020026020010151868281518110610c8657610c8661362c565b60200260200101906001600160a01b031690816001600160a01b031681525050828181518110610cb857610cb861362c565b6020026020010151858281518110610cd257610cd261362c565b6020908102919091010152600101610c52565b50505050935093915050565b610cf9611010565b806001600160a01b031660048484604051610d159291906137c9565b908152604051908190036020019020546001600160a01b031614610df1575f6001600160a01b031660048484604051610d4f9291906137c9565b908152604051908190036020019020546001600160a01b031614610dae5760405162461bcd60e51b81526020600482015260166024820152754761746577617920616c72656164792065786973747360501b60448201526064016104c2565b8060048484604051610dc19291906137c9565b90815260405190819003602001902080546001600160a01b03929092166001600160a01b03199092169190911790555b505050565b610dfe611010565b600380546001600160a01b0319166001600160a01b03831617905550565b600354600160a01b900460ff16610e6e5760405162461bcd60e51b8152602060048201526016602482015275119b185cda081b1bd85b881b9bdd08195b98589b195960521b60448201526064016104c2565b6002546001600160a01b03163314610ec85760405162461bcd60e51b815260206004820181905260248201527f556e617574686f72697a656420666c617368206c6f616e2070726f766964657260448201526064016104c2565b610ed2828261108b565b5f5b87811015610f6d575f858583818110610eef57610eef61362c565b90506020020135888884818110610f0857610f0861362c565b90506020020135610f199190613b67565b600254909150610f64906001600160a01b0316828c8c86818110610f3f57610f3f61362c565b9050602002016020810190610f5491906130ef565b6001600160a01b03169190611208565b50600101610ed4565b505050505050505050565b610fc06040518060600160405280603481526020016146cb6034913960408051808201909152600e81526d696e737472756374696f6e28732960901b60208201528390611267565b610fca82826112ae565b610fd26113ca565b5050565b610fde611010565b6001600160a01b03811661100757604051631e4fbdf760e01b81525f60048201526024016104c2565b6102598161103c565b5f546001600160a01b0316331461026d5760405163118cdaa760e01b81523360048201526024016104c2565b5f80546001600160a01b038381166001600160a01b0319831681178455604051919092169283917f8be0079c531659141344cd1fd0a4f28419497f9722a3daafe3b4186f6b6457e09190a35050565b6110ac6040518060600160405280602e8152602001614560602e9139611a83565b5f6110c35f5160206142815f395f51905f52611ac6565b805190915015611200575f5f828060200190518101906110e39190613b7a565b9150915061111260405180606001604052806024815260200161420b60249139836001600160a01b0316611b24565b6111346040518060600160405280602581526020016144506025913982611b24565b6040805160018082528183019092525f91816020015b604080518082019091525f808252602082015281526020019060019003908161114a5790505090506040518060400160405280846001600160a01b0316815260200183815250815f815181106111a2576111a261362c565b60200260200101819052506111b681611b69565b6111d76040518060600160405280603d81526020016142a1603d9139611a83565b6111fc5f5160206142815f395f51905f5260405180602001604052805f815250611cb8565b5050505b610df16113ca565b6040516001600160a01b03838116602483015260448201839052610df191859182169063a9059cbb906064015b604051602081830303815290604052915060e01b6020820180516001600160e01b038381831617835250505050611d19565b610df183838360405160240161127f93929190613ba6565b60408051601f198184030181529190526020810180516001600160e01b0316635970e08960e01b179052611d7a565b5f816001600160401b038111156112c7576112c7613364565b60405190808252806020026020018201604052801561130c57816020015b60408051808201909152606080825260208201528152602001906001900390816112e55790505b5090505f5b8281101561138057838382611327600183613bda565b6113319190613bda565b8181106113405761134061362c565b905060200281019061135291906136bd565b61135b90613bed565b82828151811061136d5761136d61362c565b6020908102919091010152600101611311565b50610df17f33a7f7e91c7e5e97e4035e86e424aaeb97691c852dc81d823520f664cc2ca71c826040516020016113b69190613c59565b604051602081830303815290604052611cb8565b5f5f6113d4611d83565b81515191935091505f0361140357610fd26040518060600160405280603481526020016145b660349139611a83565b5f5b6114276040518060600160405280602e8152602001614475602e913982611b24565b6114696040518060400160405280601981526020017f4b6170616e526f757465723a2070726f746f636f6c4e616d6500000000000000815250845f0151611e7a565b6114ad6040518060400160405280601881526020017f4b6170616e526f757465723a2064617461206c656e6774680000000000000000815250846020015151611b24565b5f6114b6611ebf565b90506114db60405180606001604052806032815260200161464a603291398251611b24565b5f5b81518110156115db57611560604051806040016040528060128152602001714b6170616e526f757465723a205554584f5b60701b81525082604051806040016040528060078152602001662e903a37b5b2b760c91b8152508585815181106115475761154761362c565b60200260200101515f01516001600160a01b0316611f51565b6115d3604051806040016040528060128152602001714b6170616e526f757465723a205554584f5b60701b81525082604051806040016040528060088152602001671748185b5bdd5b9d60c21b8152508585815181106115c2576115c261362c565b602002602001015160200151611f51565b6001016114dd565b506040516020016115eb906136db565b60408051601f19818403018152908290528051602091820120865190926116129201613ce3565b604051602081830303815290604052805190602001200361168e5761164e6040518060600160405280602a81526020016143f9602a9139611a83565b5f61165885611f9a565b90508015611688576116816040518060600160405280603c815260200161432a603c9139611a83565b5050505050565b506118f4565b6116b16040518060600160405280603881526020016144c5603891398551611e7a565b5f6004855f01516040516116c59190613d0c565b90815260408051918290036020908101832054838301909252601c83527f4b6170616e526f757465723a2067617465776179206164647265737300000000908301526001600160a01b0316915061171c9082611b24565b6001600160a01b0381166117895761174d6040518060600160405280603381526020016145ea603391398651611e7a565b60405162461bcd60e51b815260206004820152601160248201527011d85d195dd85e481b9bdd08199bdd5b99607a1b60448201526064016104c2565b5f611792611ebf565b9050611801604051806040016040528060148152602001734b6170616e526f757465723a2070617373696e6760601b81525082516040518060400160405280601881526020017f696e707574205554584f28732920746f20676174657761790000000000000000815250611267565b602086015160405163ae4be46d60e01b81525f916001600160a01b0385169163ae4be46d9161183591869190600401613d66565b5f604051808303815f875af1158015611850573d5f5f3e3d5ffd5b505050506040513d5f823e601f3d908101601f191682016040526118779190810190613d93565b90506118e06040518060400160405280601d81526020017f4b6170616e526f757465723a20676174657761792072657475726e656400000081525082516040518060400160405280600e81526020016d6f7574707574205554584f28732960901b815250611267565b8051156118f0576118f081611b69565b5050505b5f6118fd611ebf565b9050611922604051806060016040528060298152602001614301602991398251611b24565b5f5b81518110156119f85761198e604051806040016040528060128152602001714b6170616e526f757465723a205554584f5b60701b81525082604051806040016040528060078152602001662e903a37b5b2b760c91b8152508585815181106115475761154761362c565b6119f0604051806040016040528060128152602001714b6170616e526f757465723a205554584f5b60701b81525082604051806040016040528060088152602001671748185b5bdd5b9d60c21b8152508585815181106115c2576115c261362c565b600101611924565b508315611a2757611a206040518060600160405280602281526020016143d760229139611a83565b5050611a49565b82611a318161367b565b935050611a3c611d83565b9095509350611405915050565b610df16040518060400160405280601f81526020017f4b6170616e526f757465723a2072756e537461636b20636f6d706c65746564008152505b61025981604051602401611a979190613ce3565b60408051601f198184030181529190526020810180516001600160e01b031663104c13eb60e21b179052611d7a565b604051815c8082526020808301908204601f83165f5b82811015611af957600181880181015c6020830286015201611adc565b508015611b0f578160010186015c602083028401525b5050601f91909101601f191601604052919050565b610fd28282604051602401611b3a929190613e47565b60408051601f198184030181529190526020810180516001600160e01b0316632d839cb360e21b179052611d7a565b5f611b72611ebf565b90505f82518251611b839190613b67565b6001600160401b03811115611b9a57611b9a613364565b604051908082528060200260200182016040528015611bde57816020015b604080518082019091525f8082526020820152815260200190600190039081611bb85790505b5090505f5b8251811015611c2b57828181518110611bfe57611bfe61362c565b6020026020010151828281518110611c1857611c1861362c565b6020908102919091010152600101611be3565b505f5b8351811015611c8257838181518110611c4957611c4961362c565b602002602001015182828551611c5f9190613b67565b81518110611c6f57611c6f61362c565b6020908102919091010152600101611c2e565b50610df17f5f92431fdc2b6bf66f91a326fa06b3fad6b4ab24047c9be12b7f412fbfbaa1ec826040516020016113b69190613e68565b805180835d601f811690602083810191045f5b81811015611ce957602081028301518160010187015d600101611ccb565b50821561168157602081028201516001846020036101000a0319808216915050808260010187015d505050505050565b5f611d2d6001600160a01b038416836127a6565b905080515f14158015611d51575080806020019051810190611d4f9190613e7a565b155b15610df157604051635274afe760e01b81526001600160a01b03841660048201526024016104c2565b610259816127bc565b60408051808201909152606080825260208201525f5f611dc27f33a7f7e91c7e5e97e4035e86e424aaeb97691c852dc81d823520f664cc2ca71c611ac6565b905080515f03611dd55750909160019150565b5f81806020019051810190611dea9190613e99565b80519091505f819003611e035750929360019350915050565b81611e0f600183613bda565b81518110611e1f57611e1f61362c565b60200260200101519450600181038252611e647f33a7f7e91c7e5e97e4035e86e424aaeb97691c852dc81d823520f664cc2ca71c836040516020016113b69190613c59565b611e6f600182613bda565b5f1493505050509091565b610fd28282604051602401611e90929190613fb4565b60408051601f198184030181529190526020810180516001600160e01b0316634b5c427760e01b179052611d7a565b60605f611eeb7f5f92431fdc2b6bf66f91a326fa06b3fad6b4ab24047c9be12b7f412fbfbaa1ec611ac6565b905080515f03611f3757604080515f8082526020820190925290611f30565b604080518082019091525f8082526020820152815260200190600190039081611f0a5790505b5091505090565b80806020019051810190611f4b9190613d93565b91505090565b61065e84848484604051602401611f6b9493929190613fc6565b60408051601f198184030181529190526020810180516001600160e01b031663c67ea9d160e01b179052611d7a565b5f5f8260200151806020019051810190611fb49190614060565b9050611fed6040518060600160405280602c81526020016144fd602c913982606001516005811115611fe857611fe8613618565b611b24565b61201c6040518060600160405280602d8152602001614423602d913982602001516001600160a01b0316611b24565b61203f6040518060600160405280602e815260200161469d602e91398251611b24565b61206e6040518060600160405280602c81526020016146ff602c913982604001516001600160a01b0316611b24565b5f8160600151600581111561208557612085613618565b036120bd576120ab60405180606001604052806022815260200161425f60229139611a83565b6120b4816127db565b50600192915050565b6001816060015160058111156120d5576120d5613618565b03612104576120fb6040518060600160405280602281526020016144a360229139611a83565b6120b481612837565b60028160600151600581111561211c5761211c613618565b0361216d5761215f6040518060400160405280602081526020017f4b6170616e526f757465723a20657865637574696e672050756c6c546f6b656e815250611a83565b61216881612887565b61279e565b60038160600151600581111561218557612185613618565b036121d1576121c86040518060400160405280602081526020017f4b6170616e526f757465723a20657865637574696e672050757368546f6b656e815250611a83565b61216883612a8d565b6004816060015160058111156121e9576121e9613618565b036122bb5761222c6040518060400160405280601f81526020017f4b6170616e526f757465723a20657865637574696e6720546f4f757470757400815250611a83565b6040805160018082528183019092525f91816020015b604080518082019091525f8082526020820152815260200190600190039081612242579050509050604051806040016040528083602001516001600160a01b03168152602001835f0151815250815f815181106122a1576122a161362c565b60200260200101819052506122b581611b69565b5061279e565b6005816060015160058111156122d3576122d3613618565b0361279e576123166040518060400160405280601e81526020017f4b6170616e526f757465723a20657865637574696e6720417070726f76650000815250611a83565b5f5f8460200151806020019051810190612330919061409c565b92509250506123576040518060600160405280602581526020016143b26025913983611e7a565b61237a60405180606001604052806021815260200161467c602191398251611b24565b5f612383611ebf565b90508051825f0151106123cd5760405162461bcd60e51b8152602060048201526012602482015271082e0e0e4deecca7440c4c2c840d2dcc8caf60731b60448201526064016104c2565b5f6040516020016123dd906136db565b60405160208183030381529060405280519060200120846040516020016124049190613ce3565b60405160208183030381529060405280519060200120036124485730905061244360405180606001604052806027815260200161438b60279139611a83565b6124a6565b6004846040516124589190613d0c565b90815260200160405180910390205f9054906101000a90046001600160a01b031690506124a660405180606001604052806028815260200161458e60289139826001600160a01b0316611b24565b6001600160a01b0381166124fc5760405162461bcd60e51b815260206004820152601960248201527f417070726f76653a20746172676574206e6f7420666f756e640000000000000060448201526064016104c2565b6125636040518060400160405280601c81526020017f4b6170616e526f757465723a20417070726f7665202d20746f6b656e0000000081525083855f01518151811061254a5761254a61362c565b60200260200101515f01516001600160a01b0316611b24565b6125c26040518060400160405280601d81526020017f4b6170616e526f757465723a20417070726f7665202d20616d6f756e7400000081525083855f0151815181106125b1576125b161362c565b602002602001015160200151611b24565b81835f0151815181106125d7576125d761362c565b60209081029190910101515160405163095ea7b360e01b81526001600160a01b0383811660048301525f60248301529091169063095ea7b3906044016020604051808303815f875af115801561262f573d5f5f3e3d5ffd5b505050506040513d601f19601f820116820180604052508101906126539190613e7a565b5081835f0151815181106126695761266961362c565b60200260200101515f01516001600160a01b031663095ea7b38284865f0151815181106126985761269861362c565b6020026020010151602001516040518363ffffffff1660e01b81526004016126d59291906001600160a01b03929092168252602082015260400190565b6020604051808303815f875af11580156126f1573d5f5f3e3d5ffd5b505050506040513d601f19601f820116820180604052508101906127159190613e7a565b506040805160018082528183019092525f91816020015b604080518082019091525f808252602082015281526020019060019003908161272c57905050905060405180604001604052805f6001600160a01b031681526020015f815250815f815181106127845761278461362c565b602002602001018190525061279881611b69565b50505050505b505f92915050565b60606127b383835f612d4b565b90505b92915050565b5f6a636f6e736f6c652e6c6f6790505f5f835160208501845afa505050565b61281a5f5160206142815f395f51905f528260200151835f01516040516020016113b69291906001600160a01b03929092168252602082015260400190565b60208082015182516040805193840190525f835261025992612de6565b6128765f5160206142815f395f51905f528260200151835f01516040516020016113b69291906001600160a01b03929092168252602082015260400190565b6102598160200151825f0151612efe565b604081015181906001600160a01b031633146128d65760405162461bcd60e51b815260206004820152600e60248201526d139bdd08185d5d1a1bdc9a5e995960921b60448201526064016104c2565b6129256040518060600160405280602581526020016143666025913983516040805180820182526009815268333937b6903ab9b2b960b91b6020820152908601516001600160a01b0316611f51565b6129716040518060400160405280601e81526020017f4b6170616e526f757465723a2050756c6c546f6b656e202d20746f6b656e000081525083602001516001600160a01b0316611b24565b81516020830151612991916001600160a01b03909116903390309061300d565b6040805160018082528183019092525f91816020015b604080518082019091525f80825260208201528152602001906001900390816129a7579050509050604051806040016040528084602001516001600160a01b03168152602001845f0151815250815f81518110612a0657612a0661362c565b6020026020010181905250612a1a81611b69565b610df160405180606001604052806030815260200161422f60309139825f81518110612a4857612a4861362c565b60200260200101515f01516001600160a01b031660405180604001604052806006815260200165185b5bdd5b9d60d21b815250845f815181106115c2576115c261362c565b5f8160200151806020019051810190612aa691906140f7565b915050612acc6040518060600160405280602381526020016142de602391398251611b24565b5f612ad5611ebf565b90508051825f015110612b215760405162461bcd60e51b81526020600482015260146024820152730a0eae6d0a8ded6cadc7440c4c2c840d2dcc8caf60631b60448201526064016104c2565b5f81835f015181518110612b3757612b3761362c565b60200260200101519050612b8c6040518060400160405280601e81526020017f4b6170616e526f757465723a2050757368546f6b656e202d20746f6b656e0000815250825f01516001600160a01b0316611b24565b612bcf6040518060400160405280601f81526020017f4b6170616e526f757465723a2050757368546f6b656e202d20616d6f756e74008152508260200151611b24565b80516001600160a01b0316612c1e5760405162461bcd60e51b8152602060048201526015602482015274283ab9b42a37b5b2b71d103d32b937903a37b5b2b760591b60448201526064016104c2565b602081015115612cc257612c4f604080516080810182525f8082526020820181905291810182905290606082015290565b8460200151806020019051810190612c6791906140f7565b5080915050612c9b6040518060600160405280602d815260200161461d602d913982604001516001600160a01b0316611b24565b604081015160208301518351612cbc926001600160a01b0390911691611208565b50612ce3565b612ce360405180606001604052806037815260200161452960379139611a83565b604080518082019091525f8082526020820152835183518491908110612d0b57612d0b61362c565b602002602001018190525061065e7f5f92431fdc2b6bf66f91a326fa06b3fad6b4ab24047c9be12b7f412fbfbaa1ec836040516020016113b69190613e68565b606081471015612d705760405163cd78605960e01b81523060048201526024016104c2565b5f5f856001600160a01b03168486604051612d8b9190613d0c565b5f6040518083038185875af1925050503d805f8114612dc5576040519150601f19603f3d011682016040523d82523d5f602084013e612dca565b606091505b5091509150612dda868383613046565b925050505b9392505050565b6003805460ff60a01b1916600160a01b1790556040805160018082528183019092525f916020808301908036833701905050905083815f81518110612e2d57612e2d61362c565b6001600160a01b0392909216602092830291909101909101526040805160018082528183019092525f9181602001602082028036833701905050905083815f81518110612e7c57612e7c61362c565b6020908102919091010152600254604051632e1c224f60e11b81526001600160a01b0390911690635c38449e90612ebd90309086908690899060040161412a565b5f604051808303815f87803b158015612ed4575f5ffd5b505af1158015612ee6573d5f5f3e3d5ffd5b50506003805460ff60a01b1916905550505050505050565b6003805460ff60a01b1916600160a01b179055604080516001600160a01b0384166020820152808201839052815180820383018152606082019092525f9063bf11f4af60e01b90612f53908490608401613ce3565b60408051601f198184030181529181526020820180516001600160e01b03166001600160e01b03199094169390931790925260035491516348c8949160e01b81529092506001600160a01b03909116906348c8949190612fb7908490600401613ce3565b5f604051808303815f875af1158015612fd2573d5f5f3e3d5ffd5b505050506040513d5f823e601f3d908101601f19168201604052612ff991908101906141d9565b50506003805460ff60a01b19169055505050565b6040516001600160a01b03848116602483015283811660448301526064820183905261065e9186918216906323b872dd90608401611235565b60608261305b57613056826130a2565b612ddf565b815115801561307257506001600160a01b0384163b155b1561309b57604051639996b31560e01b81526001600160a01b03851660048201526024016104c2565b5080612ddf565b8051156130b25780518082602001fd5b604051630a12f52160e11b815260040160405180910390fd5b6001600160a01b0381168114610259575f5ffd5b80356130ea816130cb565b919050565b5f602082840312156130ff575f5ffd5b8135612ddf816130cb565b5f5f6020838503121561311b575f5ffd5b82356001600160401b03811115613130575f5ffd5b8301601f81018513613140575f5ffd5b80356001600160401b03811115613155575f5ffd5b8560208260071b8401011115613169575f5ffd5b6020919091019590945092505050565b5f81518084528060208401602086015e5f602082860101526020601f19601f83011685010191505092915050565b604080825283519082018190525f9060208501906060840190835b818110156131e95783516001600160a01b03168352602093840193909201916001016131c2565b50508381036020850152809150845180825260208201925060208160051b830101602087015f5b8381101561324257601f1985840301865261322c838351613179565b6020968701969093509190910190600101613210565b509098975050505050505050565b5f5f83601f840112613260575f5ffd5b5081356001600160401b03811115613276575f5ffd5b60208301915083602082850101111561328d575f5ffd5b9250929050565b5f5f602083850312156132a5575f5ffd5b82356001600160401b038111156132ba575f5ffd5b6132c685828601613250565b90969095509350505050565b5f5f83601f8401126132e2575f5ffd5b5081356001600160401b038111156132f8575f5ffd5b6020830191508360208260051b850101111561328d575f5ffd5b5f5f5f60408486031215613324575f5ffd5b83356001600160401b03811115613339575f5ffd5b613345868287016132d2565b9094509250506020840135613359816130cb565b809150509250925092565b634e487b7160e01b5f52604160045260245ffd5b604051608081016001600160401b038111828210171561339a5761339a613364565b60405290565b604051602081016001600160401b038111828210171561339a5761339a613364565b60405160c081016001600160401b038111828210171561339a5761339a613364565b604080519081016001600160401b038111828210171561339a5761339a613364565b604051601f8201601f191681016001600160401b038111828210171561342e5761342e613364565b604052919050565b5f6001600160401b0382111561344e5761344e613364565b50601f01601f191660200190565b5f82601f83011261346b575f5ffd5b8135602083015f61348361347e84613436565b613406565b9050828152858383011115613496575f5ffd5b828260208301375f92810160200192909252509392505050565b5f602082840312156134c0575f5ffd5b81356001600160401b038111156134d5575f5ffd5b6134e18482850161345c565b949350505050565b5f5f5f604084860312156134fb575f5ffd5b83356001600160401b03811115613510575f5ffd5b61334586828701613250565b5f5f5f5f5f5f5f5f6080898b031215613533575f5ffd5b88356001600160401b03811115613548575f5ffd5b6135548b828c016132d2565b90995097505060208901356001600160401b03811115613572575f5ffd5b61357e8b828c016132d2565b90975095505060408901356001600160401b0381111561359c575f5ffd5b6135a88b828c016132d2565b90955093505060608901356001600160401b038111156135c6575f5ffd5b6135d28b828c01613250565b999c989b5096995094979396929594505050565b5f5f602083850312156135f7575f5ffd5b82356001600160401b0381111561360c575f5ffd5b6132c6858286016132d2565b634e487b7160e01b5f52602160045260245ffd5b634e487b7160e01b5f52603260045260245ffd5b60068110610259575f5ffd5b5f6020828403121561365c575f5ffd5b8135612ddf81613640565b634e487b7160e01b5f52601160045260245ffd5b5f6001820161368c5761368c613667565b5060010190565b5f5f604083850312156136a4575f5ffd5b82356136af816130cb565b946020939093013593505050565b5f8235603e198336030181126136d1575f5ffd5b9190910192915050565b6020808252600690820152653937baba32b960d11b604082015260600190565b5f5f8335601e19843603018112613710575f5ffd5b8301803591506001600160401b03821115613729575f5ffd5b60200191503681900382131561328d575f5ffd5b60208152816020820152818360408301375f818301604090810191909152601f909201601f19160101919050565b5f608082840312801561377c575f5ffd5b50613785613378565b823581526020830135613797816130cb565b602082015260408301356137aa816130cb565b604082015260608301356137bd81613640565b60608201529392505050565b818382375f9101908152919050565b5f602082840312156137e8575f5ffd5b6137f06133a0565b9135825250919050565b5f6020828403121561380a575f5ffd5b81356001600160401b0381111561381f575f5ffd5b820160c08185031215613830575f5ffd5b6138386133c2565b813560078110613846575f5ffd5b8152613854602083016130df565b6020820152613865604083016130df565b60408201526060828101359082015260808201356001600160401b0381111561388c575f5ffd5b6138988682850161345c565b6080830152506138ab8560a084016137d8565b60a0820152949350505050565b5f604082016040835280855180835260608501915060608160051b8601019250602087015f5b8281101561398f57868503605f19018452815180516007811061390f57634e487b7160e01b5f52602160045260245ffd5b86526020818101516001600160a01b0316908701526040808201519061393f908801826001600160a01b03169052565b5060608101516060870152608081015160c0608088015261396360c0880182613179565b905060a0820151915061397960a0880183519052565b95505060209384019391909101906001016138de565b5050506001600160a01b0385166020850152509050612ddf565b5f6001600160401b038211156139c1576139c1613364565b5060051b60200190565b5f82601f8301126139da575f5ffd5b8151602083015f6139ed61347e84613436565b9050828152858383011115613a00575f5ffd5b8282602083015e5f92810160200192909252509392505050565b5f82601f830112613a29575f5ffd5b8151613a3761347e826139a9565b8082825260208201915060208360051b860101925085831115613a58575f5ffd5b602085015b83811015613a985780516001600160401b03811115613a7a575f5ffd5b613a89886020838a01016139cb565b84525060209283019201613a5d565b5095945050505050565b5f5f60408385031215613ab3575f5ffd5b82516001600160401b03811115613ac8575f5ffd5b8301601f81018513613ad8575f5ffd5b8051613ae661347e826139a9565b8082825260208201915060208360051b850101925087831115613b07575f5ffd5b6020840193505b82841015613b32578351613b21816130cb565b825260209384019390910190613b0e565b8095505050505060208301516001600160401b03811115613b51575f5ffd5b613b5d85828601613a1a565b9150509250929050565b808201808211156127b6576127b6613667565b5f5f60408385031215613b8b575f5ffd5b8251613b96816130cb565b6020939093015192949293505050565b606081525f613bb86060830186613179565b8460208401528281036040840152613bd08185613179565b9695505050505050565b818103818111156127b6576127b6613667565b5f60408236031215613bfd575f5ffd5b613c056133e4565b82356001600160401b03811115613c1a575f5ffd5b613c263682860161345c565b82525060208301356001600160401b03811115613c41575f5ffd5b613c4d3682860161345c565b60208301525092915050565b5f602082016020835280845180835260408501915060408160051b8601019250602086015f5b82811015613cd757603f198786030184528151805160408752613ca56040880182613179565b9050602082015191508681036020880152613cc08183613179565b965050506020938401939190910190600101613c7f565b50929695505050505050565b602081525f6127b36020830184613179565b5f81518060208401855e5f93019283525090919050565b5f6127b38284613cf5565b5f8151808452602084019350602083015f5b82811015613d5c57815180516001600160a01b031687526020908101518188015260409096019590910190600101613d29565b5093949350505050565b604081525f613d786040830185613d17565b8281036020840152613d8a8185613179565b95945050505050565b5f60208284031215613da3575f5ffd5b81516001600160401b03811115613db8575f5ffd5b8201601f81018413613dc8575f5ffd5b8051613dd661347e826139a9565b8082825260208201915060208360061b850101925086831115613df7575f5ffd5b6020840193505b82841015613bd05760408488031215613e15575f5ffd5b613e1d6133e4565b8451613e28816130cb565b8152602085810151818301529083526040909401939190910190613dfe565b604081525f613e596040830185613179565b90508260208301529392505050565b602081525f6127b36020830184613d17565b5f60208284031215613e8a575f5ffd5b81518015158114612ddf575f5ffd5b5f60208284031215613ea9575f5ffd5b81516001600160401b03811115613ebe575f5ffd5b8201601f81018413613ece575f5ffd5b8051613edc61347e826139a9565b8082825260208201915060208360051b850101925086831115613efd575f5ffd5b602084015b83811015613fa95780516001600160401b03811115613f1f575f5ffd5b85016040818a03601f19011215613f34575f5ffd5b613f3c6133e4565b60208201516001600160401b03811115613f54575f5ffd5b613f638b6020838601016139cb565b82525060408201516001600160401b03811115613f7e575f5ffd5b613f8d8b6020838601016139cb565b6020830152508085525050602083019250602081019050613f02565b509695505050505050565b604081525f613d786040830185613179565b608081525f613fd86080830187613179565b8560208401528281036040840152613ff08186613179565b91505082606083015295945050505050565b5f60808284031215614012575f5ffd5b61401a613378565b82518152602083015190915061402f816130cb565b60208201526040820151614042816130cb565b6040820152606082015161405581613640565b606082015292915050565b5f60808284031215614070575f5ffd5b6127b38383614002565b5f6020828403121561408a575f5ffd5b6140926133a0565b9151825250919050565b5f5f5f60c084860312156140ae575f5ffd5b6140b88585614002565b925060808401516001600160401b038111156140d2575f5ffd5b6140de868287016139cb565b9250506140ee8560a0860161407a565b90509250925092565b5f5f60a08385031215614108575f5ffd5b6141128484614002565b9150614121846080850161407a565b90509250929050565b6001600160a01b03851681526080602080830182905285519183018290525f919086019060a0840190835b8181101561417c5783516001600160a01b0316835260209384019390920191600101614155565b50508381036040850152855180825260209182019250908601905f90815b818110156141b857835185526020948501949093019260010161419a565b5050505082810360608401526141ce8185613179565b979650505050505050565b5f602082840312156141e9575f5ffd5b81516001600160401b038111156141fe575f5ffd5b6134e1848285016139cb56fe4b6170616e526f757465723a205f6166746572466c6173684c6f616e202d20746f6b656e4b6170616e526f757465723a2050756c6c546f6b656e202d2063726561746564205554584f207769746820746f6b656e4b6170616e526f757465723a20657865637574696e6720466c6173684c6f616e5632fbcc350e8c7cb255d342ae5da51083bb8f263490869b1ee83b058578105a16024b6170616e526f757465723a205f6166746572466c6173684c6f616e202d2063726561746564205554584f2c20636f6e74696e75696e6720737461636b4b6170616e526f757465723a2050757368546f6b656e202d20696e707574496e6465784b6170616e526f757465723a205554584f20636f756e7420616674657220696e737472756374696f6e4b6170616e526f757465723a20726f7574657220696e737472756374696f6e2068616c7465642028666c617368206c6f616e2063616c6c6261636b294b6170616e526f757465723a2050756c6c546f6b656e202d207472616e7366657272696e674b6170616e526f757465723a20417070726f7665202d2074617267657420697320726f757465724b6170616e526f757465723a20417070726f7665202d2074617267657450726f746f636f6c4b6170616e526f757465723a20737461636b20656d7074792c20627265616b696e674b6170616e526f757465723a2070726f63657373696e6720726f7574657220696e737472756374696f6e4b6170616e526f757465723a2070726f63657373526f75746572496e737472756374696f6e202d20746f6b656e4b6170616e526f757465723a205f6166746572466c6173684c6f616e202d20616d6f756e744b6170616e526f757465723a2072756e537461636b202d2070726f63657373696e6720696e737472756374696f6e4b6170616e526f757465723a20657865637574696e6720466c6173684c6f616e56334b6170616e526f757465723a2070726f63657373696e672070726f746f636f6c20696e737472756374696f6e20666f7220676174657761794b6170616e526f757465723a2070726f63657373526f75746572496e737472756374696f6e202d20747970654b6170616e526f757465723a2050757368546f6b656e202d207a65726f20616d6f756e742c20736b697070696e67207472616e736665724b6170616e526f757465723a205f6166746572466c6173684c6f616e2063616c6c6261636b2072656365697665644b6170616e526f757465723a20417070726f7665202d2074617267657420697320676174657761794b6170616e526f757465723a2072756e537461636b202d20656d70747920696e737472756374696f6e2c2072657475726e696e674b6170616e526f757465723a204552524f52202d2067617465776179206e6f7420666f756e6420666f722070726f746f636f6c4b6170616e526f757465723a2050757368546f6b656e202d207472616e7366657272696e6720746f20757365724b6170616e526f757465723a2063757272656e74205554584f20636f756e74206265666f726520696e737472756374696f6e4b6170616e526f757465723a20417070726f7665202d20696e707574496e6465784b6170616e526f757465723a2070726f63657373526f75746572496e737472756374696f6e202d20616d6f756e744b6170616e526f757465723a2070726f6365737350726f746f636f6c496e737472756374696f6e732063616c6c656420776974684b6170616e526f757465723a2070726f63657373526f75746572496e737472756374696f6e202d2075736572a2646970667358221220b17069548c37ae22e7dfdf568c46eecbc75a47c934b87fa940fff84c4b020bbe64736f6c634300081e0033",
  "devdoc": {
    "errors": {
      "AddressEmptyCode(address)": [
        {
          "details": "There's no code at `target` (it is not a contract)."
        }
      ],
      "AddressInsufficientBalance(address)": [
        {
          "details": "The ETH balance of the account is not enough to perform the operation."
        }
      ],
      "FailedInnerCall()": [
        {
          "details": "A call to an address target failed. The target may have reverted."
        }
      ],
      "OwnableInvalidOwner(address)": [
        {
          "details": "The owner is not a valid owner account. (eg. `address(0)`)"
        }
      ],
      "OwnableUnauthorizedAccount(address)": [
        {
          "details": "The caller account is not authorized to perform an operation."
        }
      ],
      "ReentrancyGuardReentrantCall()": [
        {
          "details": "Unauthorized reentrant call."
        }
      ],
      "SafeERC20FailedOperation(address)": [
        {
          "details": "An operation with an ERC20 token failed."
        }
      ]
    },
    "kind": "dev",
    "methods": {
      "owner()": {
        "details": "Returns the address of the current owner."
      },
      "renounceOwnership()": {
        "details": "Leaves the contract without owner. It will not be possible to call `onlyOwner` functions. Can only be called by the current owner. NOTE: Renouncing ownership will leave the contract without an owner, thereby disabling any functionality that is only available to the owner."
      },
      "transferOwnership(address)": {
        "details": "Transfers ownership of the contract to a new account (`newOwner`). Can only be called by the current owner."
      }
    },
    "version": 1
  },
  "userdoc": {
    "kind": "user",
    "methods": {},
    "version": 1
  },
  "storageLayout": {
    "storage": [
      {
        "astId": 8,
        "contract": "contracts/v2/KapanRouter.sol:KapanRouter",
        "label": "_owner",
        "offset": 0,
        "slot": "0",
        "type": "t_address"
      },
      {
        "astId": 845,
        "contract": "contracts/v2/KapanRouter.sol:KapanRouter",
        "label": "_status",
        "offset": 0,
        "slot": "1",
        "type": "t_uint256"
      },
      {
        "astId": 3015,
        "contract": "contracts/v2/KapanRouter.sol:KapanRouter",
        "label": "balancerV2Vault",
        "offset": 0,
        "slot": "2",
        "type": "t_contract(IFlashLoanProvider)3416"
      },
      {
        "astId": 3018,
        "contract": "contracts/v2/KapanRouter.sol:KapanRouter",
        "label": "balancerV3Vault",
        "offset": 0,
        "slot": "3",
        "type": "t_contract(IVaultV3)3442"
      },
      {
        "astId": 3020,
        "contract": "contracts/v2/KapanRouter.sol:KapanRouter",
        "label": "flashLoanEnabled",
        "offset": 20,
        "slot": "3",
        "type": "t_bool"
      },
      {
        "astId": 952,
        "contract": "contracts/v2/KapanRouter.sol:KapanRouter",
        "label": "gateways",
        "offset": 0,
        "slot": "4",
        "type": "t_mapping(t_string_memory_ptr,t_contract(IGateway)3357)"
      }
    ],
    "types": {
      "t_address": {
        "encoding": "inplace",
        "label": "address",
        "numberOfBytes": "20"
      },
      "t_bool": {
        "encoding": "inplace",
        "label": "bool",
        "numberOfBytes": "1"
      },
      "t_contract(IFlashLoanProvider)3416": {
        "encoding": "inplace",
        "label": "contract IFlashLoanProvider",
        "numberOfBytes": "20"
      },
      "t_contract(IGateway)3357": {
        "encoding": "inplace",
        "label": "contract IGateway",
        "numberOfBytes": "20"
      },
      "t_contract(IVaultV3)3442": {
        "encoding": "inplace",
        "label": "contract IVaultV3",
        "numberOfBytes": "20"
      },
      "t_mapping(t_string_memory_ptr,t_contract(IGateway)3357)": {
        "encoding": "mapping",
        "key": "t_string_memory_ptr",
        "label": "mapping(string => contract IGateway)",
        "numberOfBytes": "32",
        "value": "t_contract(IGateway)3357"
      },
      "t_string_memory_ptr": {
        "encoding": "bytes",
        "label": "string",
        "numberOfBytes": "32"
      },
      "t_uint256": {
        "encoding": "inplace",
        "label": "uint256",
        "numberOfBytes": "32"
      }
    }
  }
}