{
  "address": "0x33F680b6310Ab45af28Ef69d6d1CF7D9BE8322E9",
  "abi": [
    {
      "inputs": [
        {
          "internalType": "address",
          "name": "_router",
          "type": "address"
        },
        {
          "internalType": "address",
          "name": "_owner",
          "type": "address"
        }
      ],
      "stateMutability": "nonpayable",
      "type": "constructor"
    },
    {
      "inputs": [
        {
          "internalType": "address",
          "name": "owner",
          "type": "address"
        }
      ],
      "name": "OwnableInvalidOwner",
      "type": "error"
    },
    {
      "inputs": [
        {
          "internalType": "address",
          "name": "account",
          "type": "address"
        }
      ],
      "name": "OwnableUnauthorizedAccount",
      "type": "error"
    },
    {
      "inputs": [],
      "name": "Unauthorized",
      "type": "error"
    },
    {
      "anonymous": false,
      "inputs": [
        {
          "indexed": true,
          "internalType": "address",
          "name": "previousOwner",
          "type": "address"
        },
        {
          "indexed": true,
          "internalType": "address",
          "name": "newOwner",
          "type": "address"
        }
      ],
      "name": "OwnershipTransferred",
      "type": "event"
    },
    {
      "inputs": [
        {
          "components": [
            {
              "internalType": "string",
              "name": "protocolName",
              "type": "string"
            },
            {
              "internalType": "bytes",
              "name": "data",
              "type": "bytes"
            }
          ],
          "internalType": "struct ProtocolTypes.ProtocolInstruction[]",
          "name": "instructions",
          "type": "tuple[]"
        },
        {
          "internalType": "address",
          "name": "caller",
          "type": "address"
        }
      ],
      "name": "authorizeInstructions",
      "outputs": [
        {
          "internalType": "address[]",
          "name": "targets",
          "type": "address[]"
        },
        {
          "internalType": "bytes[]",
          "name": "data",
          "type": "bytes[]"
        }
      ],
      "stateMutability": "view",
      "type": "function"
    },
    {
      "inputs": [
        {
          "components": [
            {
              "internalType": "string",
              "name": "protocolName",
              "type": "string"
            },
            {
              "internalType": "bytes",
              "name": "data",
              "type": "bytes"
            }
          ],
          "internalType": "struct ProtocolTypes.ProtocolInstruction[]",
          "name": "instructions",
          "type": "tuple[]"
        },
        {
          "internalType": "address",
          "name": "caller",
          "type": "address"
        }
      ],
      "name": "deauthorizeInstructions",
      "outputs": [
        {
          "internalType": "address[]",
          "name": "targets",
          "type": "address[]"
        },
        {
          "internalType": "bytes[]",
          "name": "data",
          "type": "bytes[]"
        }
      ],
      "stateMutability": "view",
      "type": "function"
    },
    {
      "inputs": [
        {
          "internalType": "string",
          "name": "",
          "type": "string"
        }
      ],
      "name": "gateways",
      "outputs": [
        {
          "internalType": "contract IGateway",
          "name": "",
          "type": "address"
        }
      ],
      "stateMutability": "view",
      "type": "function"
    },
    {
      "inputs": [],
      "name": "owner",
      "outputs": [
        {
          "internalType": "address",
          "name": "",
          "type": "address"
        }
      ],
      "stateMutability": "view",
      "type": "function"
    },
    {
      "inputs": [],
      "name": "renounceOwnership",
      "outputs": [],
      "stateMutability": "nonpayable",
      "type": "function"
    },
    {
      "inputs": [],
      "name": "router",
      "outputs": [
        {
          "internalType": "address",
          "name": "",
          "type": "address"
        }
      ],
      "stateMutability": "view",
      "type": "function"
    },
    {
      "inputs": [
        {
          "internalType": "string",
          "name": "protocolName",
          "type": "string"
        },
        {
          "internalType": "address",
          "name": "gateway",
          "type": "address"
        }
      ],
      "name": "syncGateway",
      "outputs": [],
      "stateMutability": "nonpayable",
      "type": "function"
    },
    {
      "inputs": [
        {
          "internalType": "address",
          "name": "newOwner",
          "type": "address"
        }
      ],
      "name": "transferOwnership",
      "outputs": [],
      "stateMutability": "nonpayable",
      "type": "function"
    }
  ],
  "transactionHash": "0x209e7f8df03014c149835ef48cf98461edb83155de69372d1ceb1004d9bd1e7e",
  "args": [
    "0x934Da3c71A866337dECb76bF216aB6615aE8382D",
    "0x0BE61223F99E57b8b8B7033a77B54Adc7f7cF027"
  ],
  "numDeployments": 6,
  "solcInputHash": "267cdce003ab789696b7dcea1a919979",
  "bytecode": "0x60a0346100eb57601f611d7c38819003918201601f19168301916001600160401b038311848410176100ef5780849260409485528339810103126100eb5761004681610103565b906001600160a01b039061005c90602001610103565b169081156100d8575f80546001600160a01b031981168417825560405193916001600160a01b03909116907f8be0079c531659141344cd1fd0a4f28419497f9722a3daafe3b4186f6b6457e09080a3608052611c6490816101188239608051818181610142015281816104010152818161146901526115190152f35b631e4fbdf760e01b5f525f60045260245ffd5b5f80fd5b634e487b7160e01b5f52604160045260245ffd5b51906001600160a01b03821682036100eb5756fe6080806040526004361015610012575f80fd5b5f3560e01c9081636a4c05a61461034a57508063715018a6146103065780638da5cb5b146102df578063d7ff41bf14610259578063db236a1f146101e7578063f2fde38b14610171578063f887ea401461012d5763faea56e214610074575f80fd5b346101295761008236610444565b90919061008d610662565b9260038102818104600314821517156101155783836100b7836100b0899561069d565b85526106cf565b60208401526100c4610718565b60408401525f935b8085106100f0576100dc84610af8565b906100ec604051928392836104cf565b0390f35b90919261010a600191846101058886896107b8565b6109e5565b9401939291906100cc565b634e487b7160e01b5f52601160045260245ffd5b5f80fd5b34610129575f366003190112610129576040517f00000000000000000000000000000000000000000000000000000000000000006001600160a01b03168152602090f35b34610129576020366003190112610129576004356001600160a01b038116908190036101295761019f6107ee565b80156101d4575f80546001600160a01b03198116831782556001600160a01b0316905f516020611c0f5f395f51905f529080a3005b631e4fbdf760e01b5f525f60045260245ffd5b34610129576020366003190112610129576004356001600160401b03811161012957366023820112156101295761022a602091369060248160040135910161062c565b8160405191805191829101835e600190820190815281900382019020546040516001600160a01b039091168152f35b346101295761026736610444565b909190610272610662565b926003810281810460031482151715610115578383610295836100b0899561069d565b60208401526102a2610718565b60408401525f935b8085106102ba576100dc84610af8565b9091926102d4600191846102cf8886896107b8565b610846565b9401939291906102aa565b34610129575f366003190112610129575f546040516001600160a01b039091168152602090f35b34610129575f3660031901126101295761031e6107ee565b5f80546001600160a01b0319811682556001600160a01b03165f516020611c0f5f395f51905f528280a3005b3461012957604036600319011261012957600435906001600160401b03821161012957366023830112156101295760048201356001600160401b038111610129573660248285010111610129576024356001600160a01b0381169390849003610129575f546001600160a01b0316331415806103fd575b6103ef57816020926024859301833760019082019081520301902080546001600160a01b0319169091179055005b6282b42960e81b5f5260045ffd5b50337f00000000000000000000000000000000000000000000000000000000000000006001600160a01b031614156103c1565b35906001600160a01b038216820361012957565b906040600319830112610129576004356001600160401b0381116101295782602382011215610129576004810135926001600160401b0384116101295760248460051b83010111610129576024908101929190356001600160a01b03811681036101295790565b805180835260209291819084018484015e5f828201840152601f01601f1916010190565b604081016040825282518091526020606083019301905f5b81811061054f575050506020818303910152815180825260208201916020808360051b8301019401925f915b83831061052257505050505090565b9091929394602080610540600193601f1986820301875289516104ab565b97019301930191939290610513565b82516001600160a01b03168552602094850194909201916001016104e7565b608081019081106001600160401b0382111761058957604052565b634e487b7160e01b5f52604160045260245ffd5b604081019081106001600160401b0382111761058957604052565b602081019081106001600160401b0382111761058957604052565b60c081019081106001600160401b0382111761058957604052565b601f909101601f19168101906001600160401b0382119082101761058957604052565b6001600160401b03811161058957601f01601f191660200190565b92919261063882610611565b9161064660405193846105ee565b829481845281830111610129578281602093845f960137010152565b6040519061066f8261056e565b5f6060838181528160208201528160408201520152565b6001600160401b0381116105895760051b60200190565b906106a782610686565b6106b460405191826105ee565b82815280926106c5601f1991610686565b0190602036910137565b906106d982610686565b6106e660405191826105ee565b82815280926106f7601f1991610686565b01905f5b82811061070757505050565b8060606020809385010152016106fb565b604051906107276020836105ee565b5f80835282815b82811061073a57505050565b6020906040516107498161059d565b5f81525f838201528282850101520161072e565b9061076782610686565b61077460405191826105ee565b8281528092610785601f1991610686565b01905f5b82811061079557505050565b6020906040516107a48161059d565b5f81525f8382015282828501015201610789565b91908110156107da5760051b81013590603e1981360301821215610129570190565b634e487b7160e01b5f52603260045260245ffd5b5f546001600160a01b0316330361080157565b63118cdaa760e01b5f523360045260245ffd5b903590601e198136030182121561012957018035906001600160401b0382116101295760200191813603831361012957565b9061084f610662565b5061085a8280610814565b6108976060604051838194602083019660208852816040850152848401375f838284010152601f801991011681010301601f1981018352826105ee565b51902060405160208101906020825260066040820152653937baba32b960d11b6060820152606081526108cb6080826105ee565b519020036109d5576108db610662565b50602082016108ea8184610814565b810190608081830312610129576060916109039161108b565b015160088110156109c15760010361097e5761094b9161092661092c9285610814565b906114ae565b8492919251606086015191610945836020890151610ae4565b52610ae4565b6001600160a01b0390911690525b606082016109678151610b72565b905261097960408301918251906115e4565b905290565b50506109bb82515f6109966060860192835190610ae4565b52604051906109a66020836105ee565b5f825260208501519051916109458383610ae4565b50610959565b634e487b7160e01b5f52602160045260245ffd5b916109e292600192610b9e565b90565b906109ee610662565b506109f98280610814565b610a366060604051838194602083019660208852816040850152848401375f838284010152601f801991011681010301601f1981018352826105ee565b51902060405160208101906020825260066040820152653937baba32b960d11b606082015260608152610a6a6080826105ee565b51902003610acb57610a7a610662565b5060208201610a898184610814565b81019060808183031261012957606091610aa29161108b565b015160088110156109c15760010361097e5761094b91610ac561092c9285610814565b90611400565b916109e2925f92610b9e565b8051156107da5760200190565b80518210156107da5760209160051b010190565b906060820190610b08825161069d565b92610b1383516106cf565b915f5b8451811015610b6b57600190818060a01b03610b33828651610ae4565b5116610b3f8289610ae4565b52610b4e816020860151610ae4565b51610b598287610ae4565b52610b648186610ae4565b5001610b16565b5091925050565b5f1981146101155760010190565b919082602091031261012957604051610b98816105b8565b91358252565b919091610ba9610662565b50610bb48180610814565b8060405192833760019082019081528190036020019020546001600160a01b0316801561104157604094855192610beb87856105ee565b60018452601f1987015f5b818110610ffa575050806020610c0d920190610814565b810190602081830312610129578035906001600160401b038211610129570160c08183031261012957875191610c42836105d3565b8135600a811015610129578352610c5b60208301610430565b6020840152610c6b898301610430565b838a01526060828101359084015260808201356001600160401b03811161012957820181601f8201121561012957610cba92610caf8383602060a09535910161062c565b608086015201610b80565b60a0820152610cc884610ad7565b52610cd283610ad7565b5015610e1557610d0c9392915f91610ce8610662565b50868401948551928851978894859384936352ed587560e01b855260048501611210565b03915afa938415610e0c57505f915f935f95610de1575b505f5b8351811015610dc5576001906001600160a01b03610d448287610ae4565b5116151580610db1575b610d59575b01610d26565b818060a01b03610d698287610ae4565b5116845190610d7e6060870192835190610ae4565b52610d9f610d8c8389610ae4565b5160208701518351916109458383610ae4565b50610daa8151610b72565b9052610d53565b50610dbc8187610ae4565b51511515610d4e565b5092509290508051610dd657505090565b6109799082516117e2565b9193509350610e0291503d805f833e610dfa81836105ee565b810190611319565b929092935f610d23565b513d5f823e3d90fd5b9294909391610e4990610e26610662565b50838101925f845186518095819263aad11a3f60e01b83528c8c60048501611210565b0381895afa938415610ff0575f935f95610f8e575b5060208301989760608401975f5b8651811015610f22576001906001600160a01b03610e8a828a610ae4565b511615610f1c57818060a01b03610ea1828a610ae4565b51165b610eb188518d5190610ae4565b60a084901b8490039182169052610ec8828a610ae4565b511615610f0157610eee8d610edd838c610ae4565b51905b518d51916109458383610ae4565b50610ef98b51610b72565b8b5201610e6c565b610eee8d6020610f138d5191826105ee565b5f815290610ee0565b5f610ea4565b509299509297909650610f5294505f93508651928651958694859384936352ed587560e01b855260048501611210565b03915afa918215610e0c57505f91610f71575b508051610dd657505090565b610f8591503d805f833e610dfa81836105ee565b9150505f610f65565b935093503d805f853e610fa181856105ee565b83019285818503126101295780516001600160401b0381116101295784610fc99183016110f3565b60208201519094906001600160401b03811161012957610fe99201611158565b935f610e5e565b85513d5f823e3d90fd5b6020908951611008816105d3565b5f81525f838201525f8b8201525f6060820152606060808201528a5161102d816105b8565b5f815260a082015282828901015201610bf6565b505091505080515f6110596060840192835190610ae4565b5261108060405161106b6020826105ee565b5f815260208401518351916109458383610ae4565b506109798151610b72565b9190826080910312610129576040516110a38161056e565b60608193803583526110b760208201610430565b60208401526110c860408201610430565b604084015201359060088210156101295760600152565b51906001600160a01b038216820361012957565b9080601f8301121561012957815161110a81610686565b9261111860405194856105ee565b81845260208085019260051b82010192831161012957602001905b8282106111405750505090565b6020809161114d846110df565b815201910190611133565b9080601f830112156101295781519161117083610686565b9261117e60405194856105ee565b80845260208085019160051b830101918383116101295760208101915b8383106111aa57505050505090565b82516001600160401b03811161012957820185603f82011215610129576020810151916111d683610611565b6111e360405191826105ee565b8381526040838501018810610129575f602085819660408397018386015e8301015281520192019161119b565b90916060820160608352835180915260808301602060808360051b8601019501915f5b81811061129a575050505060018060a01b031660208201526040818303910152602080835192838152019201905f5b81811061126f5750505090565b825180516001600160a01b031685526020908101518186015260409094019390920191600101611262565b90919295607f198682030184528651908151600a8110156109c1576001928260209392849352848060a01b03838301511683820152848060a01b0360408301511660408201526060820151606082015260a080611306608085015160c0608086015260c08501906104ab565b9301515191015298019401929101611233565b90916060828403126101295781516001600160401b03811161012957836113419184016110f3565b60208301519093906001600160401b0381116101295781611363918501611158565b604084015190936001600160401b038211610129570181601f820112156101295780519061139082610686565b9261139e60405194856105ee565b82845260208085019360061b8301019181831161012957602001925b8284106113c8575050505090565b60408483031261012957602060409182516113e28161059d565b6113eb876110df565b815282870151838201528152019301926113ba565b908101608082820312610129576114169161108b565b604081015190916001600160a01b0390811691161461144757506040519061143f6020836105ee565b5f82525f9190565b60209081015160405163095ea7b360e01b928101929092526001600160a01b037f0000000000000000000000000000000000000000000000000000000000000000811660248401525f6044808501919091528352919291166114aa6064846105ee565b9190565b909291928101608082820312610129576114c79161108b565b604081015190926001600160a01b03908116911681146114f3575b50604051915061143f6020836105ee565b60208381018051604051636eb1769f60e11b815260048101949094526001600160a01b037f00000000000000000000000000000000000000000000000000000000000000008116602486018190529692939185916044918391165afa9283156115d9575f936115a5575b505180921061156c57506114e2565b5160405163095ea7b360e01b602082015260248101949094526044808501929092529083526001600160a01b03166114aa6064846105ee565b9092506020813d6020116115d1575b816115c1602093836105ee565b810103126101295751915f61155d565b3d91506115b4565b6040513d5f823e3d90fd5b60609060208101906115f68282610814565b81016080828203126101295761160b9161108b565b928301805160088110156109c15760010361164f575050506109e29160018060a01b036020830151169151604051926116438461059d565b83526020830152611bad565b805160088110156109c1576002036116cc575061166c9250610814565b810160a082820312610129576080826116888361168f9561108b565b5001610b80565b805182511161169c575090565b6040516116c8916116ac8261059d565b5f82525f602083015251906116c18285610ae4565b5282610ae4565b5090565b805160088110156109c157600303611701575050506109e29160018060a01b036020830151169151604051926116438461059d565b80919293505160088110156109c157600403611739575050506109e2906040519061172b8261059d565b5f82525f6020830152611bad565b805160088110156109c15761175d57506109e2929161175791610814565b90611b1a565b805160088110156109c15760050361178457506109e2929161177e91610814565b90611a1c565b805160088110156109c1576006036117ab57506109e292916117a591610814565b906119a6565b5160088110156109c1576007146117c157505090565b6109e292916117cf91610814565b906118b4565b9190820180921161011557565b916117f86117f384518451906117d5565b61075d565b905f5b845181101561182e578061181160019287610ae4565b5161181c8286610ae4565b526118278185610ae4565b50016117fb565b50915f5b8151811015611870578061186961184b60019385610ae4565b516118578389516117d5565b906118628288610ae4565b5285610ae4565b5001611832565b5090925050565b909160c082840312610129576109e2611890848461108b565b9360a06118a08260808701610b80565b9401610b80565b9190820391821161011557565b6118c091810190611877565b90809250518351808210908161199b575b506118ea575050506109e2906040519061172b8261059d565b906119766118fc85936109e296610ae4565b5191611909815185610ae4565b516020848101519101519081811061198f5761194c91611928916118a7565b955b604051906119378261059d565b5f82525f602083015251906118628288610ae4565b506040519061195a8261059d565b5f82525f6020830152519061196f8286610ae4565b5283610ae4565b505160405192906001600160a01b03166116438461059d565b505061194c5f9561192a565b90508251105f6118d1565b6119b291810190611877565b908092505183518082109081611a11575b506119dc575050506109e2906040519061172b8261059d565b906119766119ee85936109e296610ae4565b519161194c611928611a01835187610ae4565b51602080870151910151906117d5565b90508251105f6119c3565b90810160c08282031261012957611a4381611a3960a0938561108b565b5060808401610b80565b910135815183518110611a7457505050611a676109e2916040519061172b8261059d565b6040519061172b8261059d565b611a7e9084610ae4565b5190602082018051828102928184041490151715610115576127108201918281116101155761270f01918211610115576109e294612710611af993049151808311611b12575b611ad183611adf926118a7565b95604051906116ac8261059d565b50835160405192906001600160a01b03166116438461059d565b905160405192906001600160a01b03166116438461059d565b915081611ac4565b90810160e08282031261012957611b31818361108b565b5060066080830135101561012957611b4e60c09160a08401610b80565b9101356001600160a01b03811603610129575181518110611b7a57506040516109e29161172b8261059d565b611b849082610ae4565b5160208101918251926103e98402938085046103e91490151715610115576103e86109e2940490525b91909180516001810180911161011557611bc69061075d565b915f5b8251811015611bfc5780611bdf60019285610ae4565b51611bea8287610ae4565b52611bf58186610ae4565b5001611bc9565b50926116c89151906116c18285610ae456fe8be0079c531659141344cd1fd0a4f28419497f9722a3daafe3b4186f6b6457e0a264697066735822122067997c7cbcb4c604164e90ff6ce8885a017120103860c48bda04113f8106c00764736f6c634300081e0033",
  "devdoc": {
    "details": "Separated from KapanRouter to stay under contract size limits",
    "errors": {
      "OwnableInvalidOwner(address)": [
        {
          "details": "The owner is not a valid owner account. (eg. `address(0)`)"
        }
      ],
      "OwnableUnauthorizedAccount(address)": [
        {
          "details": "The caller account is not authorized to perform an operation."
        }
      ]
    },
    "kind": "dev",
    "methods": {
      "owner()": {
        "details": "Returns the address of the current owner."
      },
      "renounceOwnership()": {
        "details": "Leaves the contract without owner. It will not be possible to call `onlyOwner` functions. Can only be called by the current owner. NOTE: Renouncing ownership will leave the contract without an owner, thereby disabling any functionality that is only available to the owner."
      },
      "syncGateway(string,address)": {
        "details": "Only callable by owner or router"
      },
      "transferOwnership(address)": {
        "details": "Transfers ownership of the contract to a new account (`newOwner`). Can only be called by the current owner."
      }
    },
    "title": "KapanAuthorizationHelper",
    "version": 1
  },
  "userdoc": {
    "kind": "user",
    "methods": {
      "authorizeInstructions((string,bytes)[],address)": {
        "notice": "Generate authorization calls for a sequence of instructions"
      },
      "deauthorizeInstructions((string,bytes)[],address)": {
        "notice": "Generate deauthorization calls for a sequence of instructions"
      },
      "syncGateway(string,address)": {
        "notice": "Sync a gateway registration from the router"
      }
    },
    "notice": "Standalone contract to generate authorization/deauthorization calls for KapanRouter",
    "version": 1
  },
  "storageLayout": {
    "storage": [
      {
        "astId": 1578,
        "contract": "contracts/v2/KapanAuthorizationHelper.sol:KapanAuthorizationHelper",
        "label": "_owner",
        "offset": 0,
        "slot": "0",
        "type": "t_address"
      },
      {
        "astId": 4783,
        "contract": "contracts/v2/KapanAuthorizationHelper.sol:KapanAuthorizationHelper",
        "label": "gateways",
        "offset": 0,
        "slot": "1",
        "type": "t_mapping(t_string_memory_ptr,t_contract(IGateway)32477)"
      }
    ],
    "types": {
      "t_address": {
        "encoding": "inplace",
        "label": "address",
        "numberOfBytes": "20"
      },
      "t_contract(IGateway)32477": {
        "encoding": "inplace",
        "label": "contract IGateway",
        "numberOfBytes": "20"
      },
      "t_mapping(t_string_memory_ptr,t_contract(IGateway)32477)": {
        "encoding": "mapping",
        "key": "t_string_memory_ptr",
        "label": "mapping(string => contract IGateway)",
        "numberOfBytes": "32",
        "value": "t_contract(IGateway)32477"
      },
      "t_string_memory_ptr": {
        "encoding": "bytes",
        "label": "string",
        "numberOfBytes": "32"
      }
    }
  }
}