{
  "address": "0x1afB2579d820bE93fd70994f2bD5c6183579AABd",
  "abi": [
    {
      "inputs": [
        {
          "internalType": "address",
          "name": "_owner",
          "type": "address"
        },
        {
          "internalType": "address",
          "name": "_router",
          "type": "address"
        },
        {
          "internalType": "address",
          "name": "_composableCoW",
          "type": "address"
        },
        {
          "internalType": "address",
          "name": "_settlement",
          "type": "address"
        },
        {
          "internalType": "address",
          "name": "_hooksTrampoline",
          "type": "address"
        }
      ],
      "stateMutability": "nonpayable",
      "type": "constructor"
    },
    {
      "inputs": [
        {
          "internalType": "address",
          "name": "target",
          "type": "address"
        }
      ],
      "name": "AddressEmptyCode",
      "type": "error"
    },
    {
      "inputs": [
        {
          "internalType": "address",
          "name": "account",
          "type": "address"
        }
      ],
      "name": "AddressInsufficientBalance",
      "type": "error"
    },
    {
      "inputs": [],
      "name": "FailedInnerCall",
      "type": "error"
    },
    {
      "inputs": [],
      "name": "HookExecutionFailed",
      "type": "error"
    },
    {
      "inputs": [],
      "name": "InvalidHandler",
      "type": "error"
    },
    {
      "inputs": [],
      "name": "InvalidOrderState",
      "type": "error"
    },
    {
      "inputs": [],
      "name": "NotHooksTrampoline",
      "type": "error"
    },
    {
      "inputs": [],
      "name": "OrderAlreadyExists",
      "type": "error"
    },
    {
      "inputs": [],
      "name": "OrderNotFound",
      "type": "error"
    },
    {
      "inputs": [
        {
          "internalType": "address",
          "name": "owner",
          "type": "address"
        }
      ],
      "name": "OwnableInvalidOwner",
      "type": "error"
    },
    {
      "inputs": [
        {
          "internalType": "address",
          "name": "account",
          "type": "address"
        }
      ],
      "name": "OwnableUnauthorizedAccount",
      "type": "error"
    },
    {
      "inputs": [],
      "name": "ReentrancyGuardReentrantCall",
      "type": "error"
    },
    {
      "inputs": [
        {
          "internalType": "address",
          "name": "token",
          "type": "address"
        }
      ],
      "name": "SafeERC20FailedOperation",
      "type": "error"
    },
    {
      "inputs": [],
      "name": "Unauthorized",
      "type": "error"
    },
    {
      "inputs": [],
      "name": "ZeroAddress",
      "type": "error"
    },
    {
      "anonymous": false,
      "inputs": [
        {
          "indexed": true,
          "internalType": "bytes32",
          "name": "orderHash",
          "type": "bytes32"
        },
        {
          "indexed": false,
          "internalType": "uint256",
          "name": "chunkIndex",
          "type": "uint256"
        },
        {
          "indexed": false,
          "internalType": "uint256",
          "name": "sellAmount",
          "type": "uint256"
        },
        {
          "indexed": false,
          "internalType": "uint256",
          "name": "buyAmount",
          "type": "uint256"
        }
      ],
      "name": "ChunkExecuted",
      "type": "event"
    },
    {
      "anonymous": false,
      "inputs": [
        {
          "indexed": true,
          "internalType": "address",
          "name": "oldComposableCoW",
          "type": "address"
        },
        {
          "indexed": true,
          "internalType": "address",
          "name": "newComposableCoW",
          "type": "address"
        }
      ],
      "name": "ComposableCoWUpdated",
      "type": "event"
    },
    {
      "anonymous": false,
      "inputs": [
        {
          "indexed": true,
          "internalType": "address",
          "name": "oldTrampoline",
          "type": "address"
        },
        {
          "indexed": true,
          "internalType": "address",
          "name": "newTrampoline",
          "type": "address"
        }
      ],
      "name": "HooksTrampolineUpdated",
      "type": "event"
    },
    {
      "anonymous": false,
      "inputs": [
        {
          "indexed": true,
          "internalType": "bytes32",
          "name": "orderHash",
          "type": "bytes32"
        },
        {
          "indexed": true,
          "internalType": "address",
          "name": "user",
          "type": "address"
        }
      ],
      "name": "OrderCancelled",
      "type": "event"
    },
    {
      "anonymous": false,
      "inputs": [
        {
          "indexed": true,
          "internalType": "bytes32",
          "name": "orderHash",
          "type": "bytes32"
        },
        {
          "indexed": true,
          "internalType": "address",
          "name": "user",
          "type": "address"
        },
        {
          "indexed": false,
          "internalType": "uint256",
          "name": "totalExecuted",
          "type": "uint256"
        }
      ],
      "name": "OrderCompleted",
      "type": "event"
    },
    {
      "anonymous": false,
      "inputs": [
        {
          "indexed": true,
          "internalType": "bytes32",
          "name": "orderHash",
          "type": "bytes32"
        },
        {
          "indexed": true,
          "internalType": "address",
          "name": "user",
          "type": "address"
        },
        {
          "indexed": false,
          "internalType": "address",
          "name": "sellToken",
          "type": "address"
        },
        {
          "indexed": false,
          "internalType": "address",
          "name": "buyToken",
          "type": "address"
        },
        {
          "indexed": false,
          "internalType": "uint256",
          "name": "totalAmount",
          "type": "uint256"
        },
        {
          "indexed": false,
          "internalType": "uint256",
          "name": "chunkSize",
          "type": "uint256"
        }
      ],
      "name": "OrderCreated",
      "type": "event"
    },
    {
      "anonymous": false,
      "inputs": [
        {
          "indexed": true,
          "internalType": "address",
          "name": "oldHandler",
          "type": "address"
        },
        {
          "indexed": true,
          "internalType": "address",
          "name": "newHandler",
          "type": "address"
        }
      ],
      "name": "OrderHandlerUpdated",
      "type": "event"
    },
    {
      "anonymous": false,
      "inputs": [
        {
          "indexed": true,
          "internalType": "address",
          "name": "previousOwner",
          "type": "address"
        },
        {
          "indexed": true,
          "internalType": "address",
          "name": "newOwner",
          "type": "address"
        }
      ],
      "name": "OwnershipTransferred",
      "type": "event"
    },
    {
      "anonymous": false,
      "inputs": [
        {
          "indexed": true,
          "internalType": "bytes32",
          "name": "orderHash",
          "type": "bytes32"
        },
        {
          "indexed": false,
          "internalType": "uint256",
          "name": "chunkIndex",
          "type": "uint256"
        },
        {
          "indexed": false,
          "internalType": "uint256",
          "name": "receivedAmount",
          "type": "uint256"
        }
      ],
      "name": "PostHookExecuted",
      "type": "event"
    },
    {
      "anonymous": false,
      "inputs": [
        {
          "indexed": true,
          "internalType": "bytes32",
          "name": "orderHash",
          "type": "bytes32"
        },
        {
          "indexed": false,
          "internalType": "uint256",
          "name": "chunkIndex",
          "type": "uint256"
        }
      ],
      "name": "PreHookExecuted",
      "type": "event"
    },
    {
      "anonymous": false,
      "inputs": [
        {
          "indexed": true,
          "internalType": "address",
          "name": "oldRouter",
          "type": "address"
        },
        {
          "indexed": true,
          "internalType": "address",
          "name": "newRouter",
          "type": "address"
        }
      ],
      "name": "RouterUpdated",
      "type": "event"
    },
    {
      "inputs": [
        {
          "internalType": "address",
          "name": "token",
          "type": "address"
        }
      ],
      "name": "approveVaultRelayer",
      "outputs": [],
      "stateMutability": "nonpayable",
      "type": "function"
    },
    {
      "inputs": [
        {
          "internalType": "bytes32",
          "name": "orderHash",
          "type": "bytes32"
        }
      ],
      "name": "cancelOrder",
      "outputs": [],
      "stateMutability": "nonpayable",
      "type": "function"
    },
    {
      "inputs": [],
      "name": "composableCoW",
      "outputs": [
        {
          "internalType": "contract IComposableCoW",
          "name": "",
          "type": "address"
        }
      ],
      "stateMutability": "view",
      "type": "function"
    },
    {
      "inputs": [
        {
          "components": [
            {
              "internalType": "address",
              "name": "user",
              "type": "address"
            },
            {
              "internalType": "bytes",
              "name": "preInstructionsData",
              "type": "bytes"
            },
            {
              "internalType": "uint256",
              "name": "preTotalAmount",
              "type": "uint256"
            },
            {
              "internalType": "address",
              "name": "sellToken",
              "type": "address"
            },
            {
              "internalType": "address",
              "name": "buyToken",
              "type": "address"
            },
            {
              "internalType": "uint256",
              "name": "chunkSize",
              "type": "uint256"
            },
            {
              "internalType": "uint256",
              "name": "minBuyPerChunk",
              "type": "uint256"
            },
            {
              "internalType": "bytes",
              "name": "postInstructionsData",
              "type": "bytes"
            },
            {
              "internalType": "enum KapanOrderManager.CompletionType",
              "name": "completion",
              "type": "uint8"
            },
            {
              "internalType": "uint256",
              "name": "targetValue",
              "type": "uint256"
            },
            {
              "internalType": "uint256",
              "name": "minHealthFactor",
              "type": "uint256"
            },
            {
              "internalType": "bytes32",
              "name": "appDataHash",
              "type": "bytes32"
            }
          ],
          "internalType": "struct KapanOrderManager.KapanOrderParams",
          "name": "params",
          "type": "tuple"
        },
        {
          "internalType": "bytes32",
          "name": "salt",
          "type": "bytes32"
        },
        {
          "internalType": "uint256",
          "name": "seedAmount",
          "type": "uint256"
        }
      ],
      "name": "createOrder",
      "outputs": [
        {
          "internalType": "bytes32",
          "name": "orderHash",
          "type": "bytes32"
        }
      ],
      "stateMutability": "nonpayable",
      "type": "function"
    },
    {
      "inputs": [
        {
          "internalType": "bytes32",
          "name": "orderHash",
          "type": "bytes32"
        }
      ],
      "name": "executePostHook",
      "outputs": [],
      "stateMutability": "nonpayable",
      "type": "function"
    },
    {
      "inputs": [
        {
          "internalType": "address",
          "name": "user",
          "type": "address"
        },
        {
          "internalType": "bytes32",
          "name": "salt",
          "type": "bytes32"
        }
      ],
      "name": "executePostHookBySalt",
      "outputs": [],
      "stateMutability": "nonpayable",
      "type": "function"
    },
    {
      "inputs": [
        {
          "internalType": "bytes32",
          "name": "orderHash",
          "type": "bytes32"
        },
        {
          "internalType": "uint256",
          "name": "chunkIndex",
          "type": "uint256"
        }
      ],
      "name": "executePreHook",
      "outputs": [],
      "stateMutability": "nonpayable",
      "type": "function"
    },
    {
      "inputs": [
        {
          "internalType": "address",
          "name": "user",
          "type": "address"
        },
        {
          "internalType": "bytes32",
          "name": "salt",
          "type": "bytes32"
        },
        {
          "internalType": "uint256",
          "name": "chunkIndex",
          "type": "uint256"
        }
      ],
      "name": "executePreHookBySalt",
      "outputs": [],
      "stateMutability": "nonpayable",
      "type": "function"
    },
    {
      "inputs": [
        {
          "internalType": "bytes32",
          "name": "orderHash",
          "type": "bytes32"
        }
      ],
      "name": "getOrder",
      "outputs": [
        {
          "components": [
            {
              "components": [
                {
                  "internalType": "address",
                  "name": "user",
                  "type": "address"
                },
                {
                  "internalType": "bytes",
                  "name": "preInstructionsData",
                  "type": "bytes"
                },
                {
                  "internalType": "uint256",
                  "name": "preTotalAmount",
                  "type": "uint256"
                },
                {
                  "internalType": "address",
                  "name": "sellToken",
                  "type": "address"
                },
                {
                  "internalType": "address",
                  "name": "buyToken",
                  "type": "address"
                },
                {
                  "internalType": "uint256",
                  "name": "chunkSize",
                  "type": "uint256"
                },
                {
                  "internalType": "uint256",
                  "name": "minBuyPerChunk",
                  "type": "uint256"
                },
                {
                  "internalType": "bytes",
                  "name": "postInstructionsData",
                  "type": "bytes"
                },
                {
                  "internalType": "enum KapanOrderManager.CompletionType",
                  "name": "completion",
                  "type": "uint8"
                },
                {
                  "internalType": "uint256",
                  "name": "targetValue",
                  "type": "uint256"
                },
                {
                  "internalType": "uint256",
                  "name": "minHealthFactor",
                  "type": "uint256"
                },
                {
                  "internalType": "bytes32",
                  "name": "appDataHash",
                  "type": "bytes32"
                }
              ],
              "internalType": "struct KapanOrderManager.KapanOrderParams",
              "name": "params",
              "type": "tuple"
            },
            {
              "internalType": "enum KapanOrderManager.OrderStatus",
              "name": "status",
              "type": "uint8"
            },
            {
              "internalType": "uint256",
              "name": "executedAmount",
              "type": "uint256"
            },
            {
              "internalType": "uint256",
              "name": "iterationCount",
              "type": "uint256"
            },
            {
              "internalType": "uint256",
              "name": "createdAt",
              "type": "uint256"
            }
          ],
          "internalType": "struct KapanOrderManager.OrderContext",
          "name": "",
          "type": "tuple"
        }
      ],
      "stateMutability": "view",
      "type": "function"
    },
    {
      "inputs": [
        {
          "internalType": "address",
          "name": "user",
          "type": "address"
        }
      ],
      "name": "getUserOrders",
      "outputs": [
        {
          "internalType": "bytes32[]",
          "name": "",
          "type": "bytes32[]"
        }
      ],
      "stateMutability": "view",
      "type": "function"
    },
    {
      "inputs": [],
      "name": "hooksTrampoline",
      "outputs": [
        {
          "internalType": "address",
          "name": "",
          "type": "address"
        }
      ],
      "stateMutability": "view",
      "type": "function"
    },
    {
      "inputs": [
        {
          "internalType": "bytes32",
          "name": "orderHash",
          "type": "bytes32"
        }
      ],
      "name": "isOrderComplete",
      "outputs": [
        {
          "internalType": "bool",
          "name": "",
          "type": "bool"
        }
      ],
      "stateMutability": "view",
      "type": "function"
    },
    {
      "inputs": [
        {
          "internalType": "bytes32",
          "name": "_hash",
          "type": "bytes32"
        },
        {
          "internalType": "bytes",
          "name": "_signature",
          "type": "bytes"
        }
      ],
      "name": "isValidSignature",
      "outputs": [
        {
          "internalType": "bytes4",
          "name": "",
          "type": "bytes4"
        }
      ],
      "stateMutability": "view",
      "type": "function"
    },
    {
      "inputs": [],
      "name": "orderHandler",
      "outputs": [
        {
          "internalType": "address",
          "name": "",
          "type": "address"
        }
      ],
      "stateMutability": "view",
      "type": "function"
    },
    {
      "inputs": [
        {
          "internalType": "bytes32",
          "name": "",
          "type": "bytes32"
        }
      ],
      "name": "orderSalts",
      "outputs": [
        {
          "internalType": "bytes32",
          "name": "",
          "type": "bytes32"
        }
      ],
      "stateMutability": "view",
      "type": "function"
    },
    {
      "inputs": [
        {
          "internalType": "bytes32",
          "name": "",
          "type": "bytes32"
        }
      ],
      "name": "orders",
      "outputs": [
        {
          "components": [
            {
              "internalType": "address",
              "name": "user",
              "type": "address"
            },
            {
              "internalType": "bytes",
              "name": "preInstructionsData",
              "type": "bytes"
            },
            {
              "internalType": "uint256",
              "name": "preTotalAmount",
              "type": "uint256"
            },
            {
              "internalType": "address",
              "name": "sellToken",
              "type": "address"
            },
            {
              "internalType": "address",
              "name": "buyToken",
              "type": "address"
            },
            {
              "internalType": "uint256",
              "name": "chunkSize",
              "type": "uint256"
            },
            {
              "internalType": "uint256",
              "name": "minBuyPerChunk",
              "type": "uint256"
            },
            {
              "internalType": "bytes",
              "name": "postInstructionsData",
              "type": "bytes"
            },
            {
              "internalType": "enum KapanOrderManager.CompletionType",
              "name": "completion",
              "type": "uint8"
            },
            {
              "internalType": "uint256",
              "name": "targetValue",
              "type": "uint256"
            },
            {
              "internalType": "uint256",
              "name": "minHealthFactor",
              "type": "uint256"
            },
            {
              "internalType": "bytes32",
              "name": "appDataHash",
              "type": "bytes32"
            }
          ],
          "internalType": "struct KapanOrderManager.KapanOrderParams",
          "name": "params",
          "type": "tuple"
        },
        {
          "internalType": "enum KapanOrderManager.OrderStatus",
          "name": "status",
          "type": "uint8"
        },
        {
          "internalType": "uint256",
          "name": "executedAmount",
          "type": "uint256"
        },
        {
          "internalType": "uint256",
          "name": "iterationCount",
          "type": "uint256"
        },
        {
          "internalType": "uint256",
          "name": "createdAt",
          "type": "uint256"
        }
      ],
      "stateMutability": "view",
      "type": "function"
    },
    {
      "inputs": [],
      "name": "owner",
      "outputs": [
        {
          "internalType": "address",
          "name": "",
          "type": "address"
        }
      ],
      "stateMutability": "view",
      "type": "function"
    },
    {
      "inputs": [
        {
          "internalType": "address",
          "name": "token",
          "type": "address"
        },
        {
          "internalType": "address",
          "name": "to",
          "type": "address"
        },
        {
          "internalType": "uint256",
          "name": "amount",
          "type": "uint256"
        }
      ],
      "name": "recoverTokens",
      "outputs": [],
      "stateMutability": "nonpayable",
      "type": "function"
    },
    {
      "inputs": [],
      "name": "renounceOwnership",
      "outputs": [],
      "stateMutability": "nonpayable",
      "type": "function"
    },
    {
      "inputs": [],
      "name": "router",
      "outputs": [
        {
          "internalType": "contract IKapanRouter",
          "name": "",
          "type": "address"
        }
      ],
      "stateMutability": "view",
      "type": "function"
    },
    {
      "inputs": [
        {
          "internalType": "address",
          "name": "_composableCoW",
          "type": "address"
        }
      ],
      "name": "setComposableCoW",
      "outputs": [],
      "stateMutability": "nonpayable",
      "type": "function"
    },
    {
      "inputs": [
        {
          "internalType": "address",
          "name": "_hooksTrampoline",
          "type": "address"
        }
      ],
      "name": "setHooksTrampoline",
      "outputs": [],
      "stateMutability": "nonpayable",
      "type": "function"
    },
    {
      "inputs": [
        {
          "internalType": "address",
          "name": "_handler",
          "type": "address"
        }
      ],
      "name": "setOrderHandler",
      "outputs": [],
      "stateMutability": "nonpayable",
      "type": "function"
    },
    {
      "inputs": [
        {
          "internalType": "address",
          "name": "_router",
          "type": "address"
        }
      ],
      "name": "setRouter",
      "outputs": [],
      "stateMutability": "nonpayable",
      "type": "function"
    },
    {
      "inputs": [],
      "name": "settlement",
      "outputs": [
        {
          "internalType": "contract IGPv2Settlement",
          "name": "",
          "type": "address"
        }
      ],
      "stateMutability": "view",
      "type": "function"
    },
    {
      "inputs": [
        {
          "internalType": "address",
          "name": "newOwner",
          "type": "address"
        }
      ],
      "name": "transferOwnership",
      "outputs": [],
      "stateMutability": "nonpayable",
      "type": "function"
    },
    {
      "inputs": [
        {
          "internalType": "address",
          "name": "",
          "type": "address"
        },
        {
          "internalType": "uint256",
          "name": "",
          "type": "uint256"
        }
      ],
      "name": "userOrders",
      "outputs": [
        {
          "internalType": "bytes32",
          "name": "",
          "type": "bytes32"
        }
      ],
      "stateMutability": "view",
      "type": "function"
    },
    {
      "inputs": [
        {
          "internalType": "address",
          "name": "",
          "type": "address"
        },
        {
          "internalType": "bytes32",
          "name": "",
          "type": "bytes32"
        }
      ],
      "name": "userSaltToOrderHash",
      "outputs": [
        {
          "internalType": "bytes32",
          "name": "",
          "type": "bytes32"
        }
      ],
      "stateMutability": "view",
      "type": "function"
    }
  ],
  "transactionHash": "0x5475f750a82988806a3dfec49819b00954bce1e265e18d557b828d8a51d767ea",
  "args": [
    "0x0BE61223F99E57b8b8B7033a77B54Adc7f7cF027",
    "0xC444698c4a6f18B4e86FDE6b4e27d08B0192C85a",
    "0xfdaFc9d1902f4e0b84f65F49f244b32b31013b74",
    "0x9008D19f58AAbD9eD0D60971565AA8510560ab41",
    "0x60Bf78233f48eC42eE3F101b9a05eC7878728006"
  ],
  "numDeployments": 5,
  "solcInputHash": "2933a35560c3e4c853a30bf6fab4b8a6",
  "bytecode": "0x608060405234801561000f575f5ffd5b5060405161356038038061356083398101604081905261002e916101c4565b846001600160a01b03811661005c57604051631e4fbdf760e01b81525f600482015260240160405180910390fd5b6100658161015a565b50600180556001600160a01b0384166100915760405163d92e233d60e01b815260040160405180910390fd5b6001600160a01b0383166100b85760405163d92e233d60e01b815260040160405180910390fd5b6001600160a01b0382166100df5760405163d92e233d60e01b815260040160405180910390fd5b6001600160a01b0381166101065760405163d92e233d60e01b815260040160405180910390fd5b600280546001600160a01b039586166001600160a01b031991821617909155600380549486169482169490941790935560048054928516928416929092179091556005805491909316911617905550610225565b5f80546001600160a01b038381166001600160a01b0319831681178455604051919092169283917f8be0079c531659141344cd1fd0a4f28419497f9722a3daafe3b4186f6b6457e09190a35050565b80516001600160a01b03811681146101bf575f5ffd5b919050565b5f5f5f5f5f60a086880312156101d8575f5ffd5b6101e1866101a9565b94506101ef602087016101a9565b93506101fd604087016101a9565b925061020b606087016101a9565b9150610219608087016101a9565b90509295509295909350565b61332e806102325f395ff3fe608060405234801561000f575f5ffd5b5060043610610152575f3560e01c80631626ba7e146101565780632fbff5a414610187578063304d313e1461019c578063507f0e74146101af57806351160630146101dc5780635778472a146101fc5780635f3e849f1461021c57806363c69f081461022f5780636edd27ff1461024f578063715018a6146102725780637489ec231461027a57806381e6d3ce1461028d57806382c8027f146102a0578063849dd218146102b3578063856652e9146102c65780638b0f4834146102d95780638da5cb5b146102ec578063988ccc16146102f45780639c3f1e9014610307578063b58483051461032b578063c0d786551461033e578063c73bb4bd14610351578063caf2185614610364578063cdd6504514610377578063cea4b4361461038a578063d7a3aca7146103b4578063f2fde38b146103c7578063f887ea40146103da575b5f5ffd5b6101696101643660046122b7565b6103ed565b6040516001600160e01b031990911681526020015b60405180910390f35b61019a610195366004612350565b6104d1565b005b61019a6101aa36600461237a565b610531565b6101ce6101bd366004612395565b60086020525f908152604090205481565b60405190815260200161017e565b6004546101ef906001600160a01b031681565b60405161017e91906123ac565b61020f61020a366004612395565b6105b1565b60405161017e9190612502565b61019a61022a36600461255c565b6107fd565b61024261023d36600461237a565b61081e565b60405161017e91906125d4565b61026261025d366004612395565b610887565b604051901515815260200161017e565b61019a6108a3565b61019a610288366004612395565b6108b6565b6005546101ef906001600160a01b031681565b61019a6102ae3660046125e6565b610b4c565b61019a6102c1366004612606565b610b67565b6101ce6102d4366004612350565b610bc4565b6003546101ef906001600160a01b031681565b6101ef610bef565b61019a61030236600461237a565b610bfd565b61031a610315366004612395565b610c7d565b60405161017e959493929190612638565b6006546101ef906001600160a01b031681565b61019a61034c36600461237a565b610e84565b61019a61035f36600461237a565b610f04565b61019a610372366004612395565b61101a565b6101ce610385366004612677565b611034565b6101ce610398366004612350565b600a60209081525f928352604080842090915290825290205481565b61019a6103c236600461237a565b61147c565b61019a6103d536600461237a565b6114fc565b6002546101ef906001600160a01b031681565b5f80806103fc84860186612967565b60035460208201516040808401518451915163137050cb60e11b81529597509395506001600160a01b03909216936326e0a1969361043f93309392600401612a94565b5f60405180830381865afa92505050801561047b57506040513d5f823e601f3d908101601f191682016040526104789190810190612b5d565b60015b61049257506001600160e01b031991506104ca9050565b61049c848361153f565b156104b55750630b135d3f60e11b93506104ca92505050565b506001600160e01b031993506104ca92505050565b9392505050565b6104d9611642565b6001600160a01b0382165f908152600a602090815260408083208484529091529020548061051a5760405163d36d896560e01b815260040160405180910390fd5b6105238161166c565b5061052d60018055565b5050565b610539611a70565b6001600160a01b0381166105605760405163d92e233d60e01b815260040160405180910390fd5b600580546001600160a01b038381166001600160a01b0319831681179093556040519116919082907fbdce5776902fb6aa0ba780ce23fc8392c2014d41efaeaa287d6b06ef28fe5cb0905f90a35050565b6105b9612200565b5f82815260076020526040908190208151610220810190925280546001600160a01b031660a08301908152600182018054849291849160c0850191906105fe90612c49565b80601f016020809104026020016040519081016040528092919081815260200182805461062a90612c49565b80156106755780601f1061064c57610100808354040283529160200191610675565b820191905f5260205f20905b81548152906001019060200180831161065857829003601f168201915b50505091835250506002820154602082015260038201546001600160a01b039081166040830152600483015416606082015260058201546080820152600682015460a082015260078201805460c0909201916106d090612c49565b80601f01602080910402602001604051908101604052809291908181526020018280546106fc90612c49565b80156107475780601f1061071e57610100808354040283529160200191610747565b820191905f5260205f20905b81548152906001019060200180831161072a57829003601f168201915b5050509183525050600882015460209091019060ff16600381111561076e5761076e6123fb565b600381111561077f5761077f6123fb565b81526009820154602080830191909152600a8301546040830152600b90920154606090910152908252600c83015491019060ff1660038111156107c4576107c46123fb565b60038111156107d5576107d56123fb565b8152600d8201546020820152600e8201546040820152600f9091015460609091015292915050565b610805611a70565b6108196001600160a01b0384168383611aa2565b505050565b6001600160a01b0381165f9081526009602090815260409182902080548351818402810184019094528084526060939283018282801561087b57602002820191905f5260205f20905b815481526020019060010190808311610867575b50505050509050919050565b5f81815260076020526040812061089d90611afa565b92915050565b6108ab611a70565b6108b45f611bb0565b565b6108be611642565b5f81815260076020526040812090600c82015460ff1660038111156108e5576108e56123fb565b036109035760405163d36d896560e01b815260040160405180910390fd5b80546001600160a01b0316331461092c576040516282b42960e81b815260040160405180910390fd5b6001600c82015460ff166003811115610947576109476123fb565b1461096557604051632b12537f60e21b815260040160405180910390fd5b600c8101805460ff1916600390811790915554604080516060810182526006546001600160a01b0390811682525f86815260086020908152848220548185015284518082018990528551808203909201825285018552838501529251635500079d60e01b815292931691635500079d916109e191600401612c81565b602060405180830381865afa1580156109fc573d5f5f3e3d5ffd5b505050506040513d601f19601f82011682018060405250810190610a209190612c93565b6003546040516395bc267360e01b8152600481018390529192506001600160a01b0316906395bc2673906024015f604051808303815f87803b158015610a64575f5ffd5b505af1158015610a76573d5f5f3e3d5ffd5b5050505060038201546040516370a0823160e01b81525f916001600160a01b0316906370a0823190610aac9030906004016123ac565b602060405180830381865afa158015610ac7573d5f5f3e3d5ffd5b505050506040513d601f19601f82011682018060405250810190610aeb9190612c93565b90508015610b115782546003840154610b11916001600160a01b03918216911683611aa2565b604051339085907fa6eb7cdc219e1518ced964e9a34e61d68a94e4f1569db3e84256ba981ba52753905f90a3505050610b4960018055565b50565b610b54611642565b610b5e8282611bff565b61052d60018055565b610b6f611642565b6001600160a01b0383165f908152600a6020908152604080832085845290915290205480610bb05760405163d36d896560e01b815260040160405180910390fd5b610bba8183611bff565b5061081960018055565b6009602052815f5260405f208181548110610bdd575f80fd5b905f5260205f20015f91509150505481565b5f546001600160a01b031690565b610c05611a70565b6001600160a01b038116610c2c5760405163d92e233d60e01b815260040160405180910390fd5b600380546001600160a01b038381166001600160a01b0319831681179093556040519116919082907f5ee1511014357e81e6a0e8a9bf9d80be6c56a0922d067518ddc6f7a2f6eb7bd6905f90a35050565b600760209081525f9182526040918290208251610180810190935280546001600160a01b0316835260018101805491939284929084019190610cbe90612c49565b80601f0160208091040260200160405190810160405280929190818152602001828054610cea90612c49565b8015610d355780601f10610d0c57610100808354040283529160200191610d35565b820191905f5260205f20905b815481529060010190602001808311610d1857829003601f168201915b50505091835250506002820154602082015260038201546001600160a01b039081166040830152600483015416606082015260058201546080820152600682015460a082015260078201805460c090920191610d9090612c49565b80601f0160208091040260200160405190810160405280929190818152602001828054610dbc90612c49565b8015610e075780601f10610dde57610100808354040283529160200191610e07565b820191905f5260205f20905b815481529060010190602001808311610dea57829003601f168201915b5050509183525050600882015460209091019060ff166003811115610e2e57610e2e6123fb565b6003811115610e3f57610e3f6123fb565b815260098201546020820152600a8201546040820152600b90910154606090910152600c820154600d830154600e840154600f90940154929360ff9092169290919085565b610e8c611a70565b6001600160a01b038116610eb35760405163d92e233d60e01b815260040160405180910390fd5b600280546001600160a01b038381166001600160a01b0319831681179093556040519116919082907f02dc5c233404867c793b749c6d644beb2277536d18a7e7974d3f238e4c6f1684905f90a35050565b610f0c611a70565b6001600160a01b038116610f335760405163d92e233d60e01b815260040160405180910390fd5b5f60045f9054906101000a90046001600160a01b03166001600160a01b0316639b552cc26040518163ffffffff1660e01b8152600401602060405180830381865afa158015610f84573d5f5f3e3d5ffd5b505050506040513d601f19601f82011682018060405250810190610fa89190612caa565b60405163095ea7b360e01b81529091506001600160a01b0383169063095ea7b390610fda9084905f1990600401612cc5565b6020604051808303815f875af1158015610ff6573d5f5f3e3d5ffd5b505050506040513d601f19601f820116820180604052508101906108199190612cde565b611022611642565b61102b8161166c565b610b4960018055565b5f61103d611642565b3361104b602086018661237a565b6001600160a01b031614611071576040516282b42960e81b815260040160405180910390fd5b6006546001600160a01b031661109a5760405163d8f59fa560e01b815260040160405180910390fd5b8383426040516020016110af93929190612d77565b60408051601f19818403018152919052805160209091012090505f5f828152600760205260409020600c015460ff1660038111156110ef576110ef6123fb565b1461110d5760405163966753c560e01b815260040160405180910390fd5b811561113a5761113a3330846111296080890160608a0161237a565b6001600160a01b0316929190611ec3565b6040518060a001604052808561114f90612e89565b8152602001600181525f6020808301829052604080840183905242606090940193909352848252600781529190208251805182546001600160a01b0319166001600160a01b0390911617825591820151909190829060018201906111b39082612fc7565b506040820151600282015560608201516003820180546001600160a01b039283166001600160a01b031991821617909155608084015160048401805491909316911617905560a0820151600582015560c0820151600682015560e082015160078201906112209082612fc7565b5061010082015160088201805460ff19166001836003811115611245576112456123fb565b02179055506101208201516009820155610140820151600a82015561016090910151600b909101556020820151600c8201805460ff19166001836003811115611290576112906123fb565b0217905550604082810151600d8301556060830151600e830155608090920151600f909101555f828152600860209081529181208590556009916112d69087018761237a565b6001600160a01b031681526020808201929092526040015f9081208054600181018255908252828220018390558291600a91906113159088018861237a565b6001600160a01b03908116825260208083019390935260409182015f908120888252845282902093909355805160608101825260065484168152808301879052815180840186905282518082039094018452820182528082019290925260035490516335fd70e560e11b815291921690636bfae1ca9061139c908490600190600401613081565b5f604051808303815f87803b1580156113b3575f5ffd5b505af11580156113c5573d5f5f3e3d5ffd5b506113e392506113de915050608087016060880161237a565b611f02565b6113f0602086018661237a565b6001600160a01b0316827f961e6438a987eab19d9850691e56ca64f442dbb689801b0f3cfc1381c98ed15e61142b6080890160608a0161237a565b61143b60a08a0160808b0161237a565b604080516001600160a01b039384168152929091166020830152808a01359082015260a0890135606082015260800160405180910390a3506104ca60018055565b611484611a70565b6001600160a01b0381166114ab5760405163d92e233d60e01b815260040160405180910390fd5b600680546001600160a01b038381166001600160a01b0319831681179093556040519116919082907f7bf6e789688cd776b5170517f39970fea2870a79d649c8443dd2b0ec62823eb7905f90a35050565b611504611a70565b6001600160a01b038116611536575f604051631e4fbdf760e01b815260040161152d91906123ac565b60405180910390fd5b610b4981611bb0565b805182515f916001600160a01b039182169116148015611578575081602001516001600160a01b031683602001516001600160a01b0316145b801561159d575081604001516001600160a01b031683604001516001600160a01b0316145b80156115b0575081606001518360600151145b80156115c3575081608001518360800151145b80156115d657508160c001518360c00151145b80156115e957508160e001518360e00151145b80156115fe5750816101000151836101000151145b8015611617575081610120015115158361012001511515145b801561162c5750816101400151836101400151145b80156104ca575050610160908101519101511490565b60026001540361166557604051633ee5aeb560e01b815260040160405180910390fd5b6002600155565b6005546001600160a01b0316331461169757604051631cb3967f60e21b815260040160405180910390fd5b5f8181526007602052604090206001600c82015460ff1660038111156116bf576116bf6123fb565b146116dd57604051632b12537f60e21b815260040160405180910390fd5b6004808201546040516370a0823160e01b81525f926001600160a01b03909216916370a0823191611710913091016123ac565b602060405180830381865afa15801561172b573d5f5f3e3d5ffd5b505050506040513d601f19601f8201168201806040525081019061174f9190612c93565b6002546004840154919250611771916001600160a01b03908116911683611aa2565b5f825f01600701805461178390612c49565b80601f01602080910402602001604051908101604052809291908181526020018280546117af90612c49565b80156117fa5780601f106117d1576101008083540402835291602001916117fa565b820191905f5260205f20905b8154815290600101906020018083116117dd57829003601f168201915b505050505080602001905181019061181291906130a4565b90505f8151600161182391906131e7565b6001600160401b0381111561183a5761183a6126b0565b60405190808252806020026020018201604052801561187357816020015b611860612232565b8152602001906001900390816118585790505b50604080516080810182526006918101918252653937baba32b960d11b606082015290815260048601549192509060208201906118ba9086906001600160a01b031661206e565b815250815f815181106118cf576118cf6131fa565b60209081029190910101525f5b8251811015611930578281815181106118f7576118f76131fa565b60200260200101518282600161190d91906131e7565b8151811061191d5761191d6131fa565b60209081029190910101526001016118dc565b5060025460405163f0dbeea560e01b81526001600160a01b039091169063f0dbeea59061196190849060040161320e565b5f604051808303815f87803b158015611978575f5ffd5b505af115801561198a573d5f5f3e3d5ffd5b50505050835f016005015484600d015f8282546119a791906131e7565b9091555050600e84018054905f6119bd83613298565b91905055506119cb84611afa565b15611a2857600c8401805460ff191660021790558354600d8501546040519081526001600160a01b039091169086907fc05078bb1894dee4a12f4b4f2822aa8625022f271aee8bffc64c6621f84c4d949060200160405180910390a35b600e840154604080519182526020820185905286917f5b19a0b08bbd8e7537d63d9f1db0947c5eba6d93e02a7e0a1520ea5f29bd644c91015b60405180910390a25050505050565b33611a79610bef565b6001600160a01b0316146108b4573360405163118cdaa760e01b815260040161152d91906123ac565b61081983846001600160a01b031663a9059cbb8585604051602401611ac8929190612cc5565b604051602081830303815290604052915060e01b6020820180516001600160e01b0383818316178352505050506120af565b5f6002600883015460ff166003811115611b1657611b166123fb565b03611b2c57506009810154600e90910154101590565b6001600883015460ff166003811115611b4757611b476123fb565b03611b7957600d82015460028301545f91611b61916132b0565b90508015806104ca5750600583015481109392505050565b5f600883015460ff166003811115611b9357611b936123fb565b03611ba957506002810154600d90910154101590565b505f919050565b5f80546001600160a01b038381166001600160a01b0319831681178455604051919092169283917f8be0079c531659141344cd1fd0a4f28419497f9722a3daafe3b4186f6b6457e09190a35050565b6005546001600160a01b03163314611c2a57604051631cb3967f60e21b815260040160405180910390fd5b5f8281526007602052604090206001600c82015460ff166003811115611c5257611c526123fb565b14611c7057604051632b12537f60e21b815260040160405180910390fd5b5f815f016001018054611c8290612c49565b80601f0160208091040260200160405190810160405280929190818152602001828054611cae90612c49565b8015611cf95780601f10611cd057610100808354040283529160200191611cf9565b820191905f5260205f20905b815481529060010190602001808311611cdc57829003601f168201915b5050505050806020019051810190611d1191906130a4565b90505f81516001611d2291906131e7565b6001600160401b03811115611d3957611d396126b0565b604051908082528060200260200182016040528015611d7257816020015b611d5f612232565b815260200190600190039081611d575790505b50604080516080810182526006918101918252653937baba32b960d11b60608201529081526005850154600386015492935090916020830191611dbd916001600160a01b031661206e565b815250815f81518110611dd257611dd26131fa565b60209081029190910101525f5b8251811015611e3357828181518110611dfa57611dfa6131fa565b602002602001015182826001611e1091906131e7565b81518110611e2057611e206131fa565b6020908102919091010152600101611ddf565b5060025460405163f0dbeea560e01b81526001600160a01b039091169063f0dbeea590611e6490849060040161320e565b5f604051808303815f87803b158015611e7b575f5ffd5b505af1158015611e8d573d5f5f3e3d5ffd5b50505050847fed6ad11a587c194b3ad43896e949cb9a05975419926eda9b6b571d1847c9a7aa85604051611a6191815260200190565b6040516001600160a01b038481166024830152838116604483015260648201839052611efc9186918216906323b872dd90608401611ac8565b50505050565b5f60045f9054906101000a90046001600160a01b03166001600160a01b0316639b552cc26040518163ffffffff1660e01b8152600401602060405180830381865afa158015611f53573d5f5f3e3d5ffd5b505050506040513d601f19601f82011682018060405250810190611f779190612caa565b604051636eb1769f60e11b81523060048201526001600160a01b0380831660248301529192505f9184169063dd62ed3e90604401602060405180830381865afa158015611fc6573d5f5f3e3d5ffd5b505050506040513d601f19601f82011682018060405250810190611fea9190612c93565b9050611ff860025f196132c3565b8110156108195760405163095ea7b360e01b81526001600160a01b0384169063095ea7b39061202e9085905f1990600401612cc5565b6020604051808303815f875af115801561204a573d5f5f3e3d5ffd5b505050506040513d601f19601f82011682018060405250810190611efc9190612cde565b6040805160208101939093526001600160a01b0391909116828201525f606083015260036080808401919091528151808403909101815260a0909201905290565b5f6120c36001600160a01b03841683612107565b905080515f141580156120e75750808060200190518101906120e59190612cde565b155b156108195782604051635274afe760e01b815260040161152d91906123ac565b60606104ca83835f845f5f856001600160a01b0316848660405161212b91906132e2565b5f6040518083038185875af1925050503d805f8114612165576040519150601f19603f3d011682016040523d82523d5f602084013e61216a565b606091505b509150915061217a868383612184565b9695505050505050565b60608261219957612194826121d7565b6104ca565b81511580156121b057506001600160a01b0384163b155b156121d05783604051639996b31560e01b815260040161152d91906123ac565b50806104ca565b8051156121e75780518082602001fd5b604051630a12f52160e11b815260040160405180910390fd5b6040518060a0016040528061221361224c565b81526020015f5b81526020015f81526020015f81526020015f81525090565b604051806040016040528060608152602001606081525090565b6040518061018001604052805f6001600160a01b03168152602001606081526020015f81526020015f6001600160a01b031681526020015f6001600160a01b031681526020015f81526020015f8152602001606081526020015f600381111561221a5761221a6123fb565b5f5f5f604084860312156122c9575f5ffd5b8335925060208401356001600160401b038111156122e5575f5ffd5b8401601f810186136122f5575f5ffd5b80356001600160401b0381111561230a575f5ffd5b86602082840101111561231b575f5ffd5b939660209190910195509293505050565b6001600160a01b0381168114610b49575f5ffd5b803561234b8161232c565b919050565b5f5f60408385031215612361575f5ffd5b823561236c8161232c565b946020939093013593505050565b5f6020828403121561238a575f5ffd5b81356104ca8161232c565b5f602082840312156123a5575f5ffd5b5035919050565b6001600160a01b0391909116815260200190565b6001600160a01b03169052565b5f81518084528060208401602086015e5f602082860101526020601f19601f83011685010191505092915050565b634e487b7160e01b5f52602160045260245ffd5b60048110610b4957634e487b7160e01b5f52602160045260245ffd5b6124348161240f565b9052565b6124438282516123c0565b5f6020820151610180602085015261245f6101808501826123cd565b905060408301516040850152606083015161247d60608601826123c0565b50608083015161249060808601826123c0565b5060a083015160a085015260c083015160c085015260e083015184820360e08601526124bc82826123cd565b9150506101008301516124d361010086018261242b565b506101208301516101208501526101408301516101408501526101608301516101608501528091505092915050565b602081525f825160a0602084015261251d60c0840182612438565b9050602084015161252d8161240f565b806040850152506040840151606084015260608401516080840152608084015160a08401528091505092915050565b5f5f5f6060848603121561256e575f5ffd5b83356125798161232c565b925060208401356125898161232c565b929592945050506040919091013590565b5f8151808452602084019350602083015f5b828110156125ca5781518652602095860195909101906001016125ac565b5093949350505050565b602081525f6104ca602083018461259a565b5f5f604083850312156125f7575f5ffd5b50508035926020909101359150565b5f5f5f60608486031215612618575f5ffd5b83356126238161232c565b95602085013595506040909401359392505050565b60a081525f61264a60a0830188612438565b90506126558661240f565b8560208301528460408301528360608301528260808301529695505050505050565b5f5f5f60608486031215612689575f5ffd5b83356001600160401b0381111561269e575f5ffd5b84016101808187031215612623575f5ffd5b634e487b7160e01b5f52604160045260245ffd5b604051606081016001600160401b03811182821017156126e6576126e66126b0565b60405290565b60405161018081016001600160401b03811182821017156126e6576126e66126b0565b604080519081016001600160401b03811182821017156126e6576126e66126b0565b604051601f8201601f191681016001600160401b0381118282101715612759576127596126b0565b604052919050565b63ffffffff81168114610b49575f5ffd5b803561234b81612761565b8015158114610b49575f5ffd5b803561234b8161277d565b5f6001600160401b038211156127ad576127ad6126b0565b5060051b60200190565b5f6001600160401b038211156127cf576127cf6126b0565b50601f01601f191660200190565b5f82601f8301126127ec575f5ffd5b81356127ff6127fa826127b7565b612731565b818152846020838601011115612813575f5ffd5b816020850160208301375f918101602001919091529392505050565b5f6060828403121561283f575f5ffd5b6128476126c4565b905081356128548161232c565b81526020828101359082015260408201356001600160401b03811115612878575f5ffd5b612884848285016127dd565b60408301525092915050565b5f606082840312156128a0575f5ffd5b6128a86126c4565b905081356001600160401b038111156128bf575f5ffd5b8201601f810184136128cf575f5ffd5b80356128dd6127fa82612795565b8082825260208201915060208360051b8501019250868311156128fe575f5ffd5b6020840193505b82841015612920578335825260209384019390910190612905565b845250505060208201356001600160401b0381111561293d575f5ffd5b6129498482850161282f565b60208301525060408201356001600160401b03811115612878575f5ffd5b5f5f8284036101a081121561297a575f5ffd5b610180811215612988575f5ffd5b506129916126ec565b61299a84612340565b81526129a860208501612340565b60208201526129b960408501612340565b604082015260608481013590820152608080850135908201526129de60a08501612772565b60a082015260c0848101359082015260e080850135908201526101008085013590820152612a0f610120850161278a565b6101208201526101408481013590820152610160808501359082015291506101808301356001600160401b03811115612a46575f5ffd5b612a5285828601612890565b9150509250929050565b60018060a01b038151168252602081015160208301525f604082015160606040850152612a8c60608501826123cd565b949350505050565b6001600160a01b03851681526080602082018190525f90612ab790830186612a5c565b8281036040840152612ac981866123cd565b90508281036060840152612add818561259a565b979650505050505050565b805161234b8161232c565b805161234b81612761565b805161234b8161277d565b5f612b166127fa846127b7565b9050828152838383011115612b29575f5ffd5b8282602083015e5f602084830101529392505050565b5f82601f830112612b4e575f5ffd5b6104ca83835160208501612b09565b5f5f8284036101a0811215612b70575f5ffd5b610180811215612b7e575f5ffd5b50612b876126ec565b612b9084612ae8565b8152612b9e60208501612ae8565b6020820152612baf60408501612ae8565b60408201526060848101519082015260808085015190820152612bd460a08501612af3565b60a082015260c0848101519082015260e080850151908201526101008085015190820152612c056101208501612afe565b610120820152610140848101519082015261016080850151908201526101808401519092506001600160401b03811115612c3d575f5ffd5b612a5285828601612b3f565b600181811c90821680612c5d57607f821691505b602082108103612c7b57634e487b7160e01b5f52602260045260245ffd5b50919050565b602081525f6104ca6020830184612a5c565b5f60208284031215612ca3575f5ffd5b5051919050565b5f60208284031215612cba575f5ffd5b81516104ca8161232c565b6001600160a01b03929092168252602082015260400190565b5f60208284031215612cee575f5ffd5b81516104ca8161277d565b5f5f8335601e19843603018112612d0e575f5ffd5b83016020810192503590506001600160401b03811115612d2c575f5ffd5b803603821315612d3a575f5ffd5b9250929050565b81835281816020850137505f828201602090810191909152601f909101601f19169091010190565b80356004811061234b575f5ffd5b60608152612d9060608201612d8b86612340565b6123c0565b5f612d9e6020860186612cf9565b6101806080850152612db56101e085018284612d41565b604088013560a08601529150612dcf905060608701612340565b612ddc60c08501826123c0565b50612de960808701612340565b612df660e08501826123c0565b5060a086013561010084015260c0860135610120840152612e1a60e0870187612cf9565b848303605f1901610140860152612e32838284612d41565b92505050612e436101008701612d69565b612e5161016085018261242b565b506101208601356101808401526101408601356101a0840152610160909501356101c083015250602081019290925260409091015290565b5f6101808236031215612e9a575f5ffd5b612ea26126ec565b612eab83612340565b815260208301356001600160401b03811115612ec5575f5ffd5b612ed1368286016127dd565b60208301525060408381013590820152612eed60608401612340565b6060820152612efe60808401612340565b608082015260a0838101359082015260c0808401359082015260e08301356001600160401b03811115612f2f575f5ffd5b612f3b368286016127dd565b60e083015250612f4e6101008401612d69565b6101008201526101208381013590820152610140808401359082015261016092830135928101929092525090565b601f82111561081957805f5260205f20601f840160051c81016020851015612fa15750805b601f840160051c820191505b81811015612fc0575f8155600101612fad565b5050505050565b81516001600160401b03811115612fe057612fe06126b0565b612ff481612fee8454612c49565b84612f7c565b6020601f821160018114613026575f831561300f5750848201515b5f19600385901b1c1916600184901b178455612fc0565b5f84815260208120601f198516915b828110156130555787850151825560209485019460019092019101613035565b508482101561307257868401515f19600387901b60f8161c191681555b50505050600190811b01905550565b604081525f6130936040830185612a5c565b905082151560208301529392505050565b5f602082840312156130b4575f5ffd5b81516001600160401b038111156130c9575f5ffd5b8201601f810184136130d9575f5ffd5b80516130e76127fa82612795565b8082825260208201915060208360051b850101925086831115613108575f5ffd5b602084015b838110156131c85780516001600160401b0381111561312a575f5ffd5b85016040818a03601f1901121561313f575f5ffd5b61314761270f565b60208201516001600160401b0381111561315f575f5ffd5b82016020810190603f018b13613173575f5ffd5b6131828b825160208401612b09565b82525060408201516001600160401b0381111561319d575f5ffd5b6131ac8b602083860101612b3f565b602083015250808552505060208301925060208101905061310d565b509695505050505050565b634e487b7160e01b5f52601160045260245ffd5b8082018082111561089d5761089d6131d3565b634e487b7160e01b5f52603260045260245ffd5b5f602082016020835280845180835260408501915060408160051b8601019250602086015f5b8281101561328c57603f19878603018452815180516040875261325a60408801826123cd565b905060208201519150868103602088015261327581836123cd565b965050506020938401939190910190600101613234565b50929695505050505050565b5f600182016132a9576132a96131d3565b5060010190565b8181038181111561089d5761089d6131d3565b5f826132dd57634e487b7160e01b5f52601260045260245ffd5b500490565b5f82518060208501845e5f92019182525091905056fea2646970667358221220aac38ba68b6a9a1fb493639c4298ad8f187dbcf764552d6a38e278defa3f552564736f6c634300081e0033",
  "devdoc": {
    "details": "Singleton contract that holds order context and executes hooks",
    "errors": {
      "AddressEmptyCode(address)": [
        {
          "details": "There's no code at `target` (it is not a contract)."
        }
      ],
      "AddressInsufficientBalance(address)": [
        {
          "details": "The ETH balance of the account is not enough to perform the operation."
        }
      ],
      "FailedInnerCall()": [
        {
          "details": "A call to an address target failed. The target may have reverted."
        }
      ],
      "OwnableInvalidOwner(address)": [
        {
          "details": "The owner is not a valid owner account. (eg. `address(0)`)"
        }
      ],
      "OwnableUnauthorizedAccount(address)": [
        {
          "details": "The caller account is not authorized to perform an operation."
        }
      ],
      "ReentrancyGuardReentrantCall()": [
        {
          "details": "Unauthorized reentrant call."
        }
      ],
      "SafeERC20FailedOperation(address)": [
        {
          "details": "An operation with an ERC20 token failed."
        }
      ]
    },
    "kind": "dev",
    "methods": {
      "cancelOrder(bytes32)": {
        "params": {
          "orderHash": "The order to cancel"
        }
      },
      "createOrder((address,bytes,uint256,address,address,uint256,uint256,bytes,uint8,uint256,uint256,bytes32),bytes32,uint256)": {
        "details": "User must approve this contract to pull seedAmount of sellToken before calling",
        "params": {
          "params": "The order parameters",
          "salt": "Unique salt for the order",
          "seedAmount": "Amount of sell tokens to pull from user for first chunk (0 to skip)"
        },
        "returns": {
          "orderHash": "The hash identifying this order"
        }
      },
      "executePostHook(bytes32)": {
        "details": "Prepends a ToOutput instruction with the actual received amount, so all      stored instructions can reference index 0 for the swap output",
        "params": {
          "orderHash": "The order being settled"
        }
      },
      "executePostHookBySalt(address,bytes32)": {
        "details": "Allows pre-computing appData before order creation",
        "params": {
          "salt": "The order salt (known before tx)",
          "user": "The order owner"
        }
      },
      "executePreHook(bytes32,uint256)": {
        "details": "Prepends a ToOutput instruction with chunkSize, so all stored instructions      can reference index 0 for the chunk amount",
        "params": {
          "chunkIndex": "The current chunk index",
          "orderHash": "The order being settled"
        }
      },
      "executePreHookBySalt(address,bytes32,uint256)": {
        "details": "Allows pre-computing appData before order creation",
        "params": {
          "chunkIndex": "The current chunk index",
          "salt": "The order salt (known before tx)",
          "user": "The order owner"
        }
      },
      "isValidSignature(bytes32,bytes)": {
        "details": "For non-Safe ERC-1271 contracts, ComposableCoW returns signature as:      abi.encode(GPv2Order.Data, PayloadStruct)      We decode this and verify the order matches what the handler generates."
      },
      "owner()": {
        "details": "Returns the address of the current owner."
      },
      "renounceOwnership()": {
        "details": "Leaves the contract without owner. It will not be possible to call `onlyOwner` functions. Can only be called by the current owner. NOTE: Renouncing ownership will leave the contract without an owner, thereby disabling any functionality that is only available to the owner."
      },
      "transferOwnership(address)": {
        "details": "Transfers ownership of the contract to a new account (`newOwner`). Can only be called by the current owner."
      }
    },
    "title": "KapanOrderManager",
    "version": 1
  },
  "userdoc": {
    "kind": "user",
    "methods": {
      "approveVaultRelayer(address)": {
        "notice": "Approve vault relayer to spend a token"
      },
      "cancelOrder(bytes32)": {
        "notice": "Cancel an active order and refund any remaining seed tokens"
      },
      "composableCoW()": {
        "notice": "The ComposableCoW contract for order registration"
      },
      "createOrder((address,bytes,uint256,address,address,uint256,uint256,bytes,uint8,uint256,uint256,bytes32),bytes32,uint256)": {
        "notice": "Create a new CoW order with seed tokens for first chunk"
      },
      "executePostHook(bytes32)": {
        "notice": "Execute post-hook (called by HooksTrampoline during CoW settlement)"
      },
      "executePostHookBySalt(address,bytes32)": {
        "notice": "Execute post-hook using (user, salt) lookup"
      },
      "executePreHook(bytes32,uint256)": {
        "notice": "Execute pre-hook (called by HooksTrampoline during CoW settlement)"
      },
      "executePreHookBySalt(address,bytes32,uint256)": {
        "notice": "Execute pre-hook using (user, salt) lookup"
      },
      "getOrder(bytes32)": {
        "notice": "Get order context"
      },
      "getUserOrders(address)": {
        "notice": "Get user's orders"
      },
      "hooksTrampoline()": {
        "notice": "The HooksTrampoline contract (caller for hooks)"
      },
      "isOrderComplete(bytes32)": {
        "notice": "Check if an order is complete based on completion criteria"
      },
      "isValidSignature(bytes32,bytes)": {
        "notice": "Verify signature for CoW Protocol orders"
      },
      "orderHandler()": {
        "notice": "The KapanOrderHandler for generating orders"
      },
      "orderSalts(bytes32)": {
        "notice": "Salt used for each order (for ComposableCoW cancellation)"
      },
      "orders(bytes32)": {
        "notice": "Order contexts by order hash"
      },
      "recoverTokens(address,address,uint256)": {
        "notice": "Recover stuck tokens (owner only)"
      },
      "router()": {
        "notice": "The KapanRouter for executing lending operations"
      },
      "settlement()": {
        "notice": "The GPv2Settlement contract"
      },
      "userOrders(address,uint256)": {
        "notice": "User's active orders"
      },
      "userSaltToOrderHash(address,bytes32)": {
        "notice": "Lookup order hash by (user, salt) - enables pre-computing appData"
      }
    },
    "notice": "Manages CoW Protocol orders for Kapan, acting as ERC-1271 signer",
    "version": 1
  },
  "storageLayout": {
    "storage": [
      {
        "astId": 8,
        "contract": "contracts/v2/cow/KapanOrderManager.sol:KapanOrderManager",
        "label": "_owner",
        "offset": 0,
        "slot": "0",
        "type": "t_address"
      },
      {
        "astId": 845,
        "contract": "contracts/v2/cow/KapanOrderManager.sol:KapanOrderManager",
        "label": "_status",
        "offset": 0,
        "slot": "1",
        "type": "t_uint256"
      },
      {
        "astId": 1517,
        "contract": "contracts/v2/cow/KapanOrderManager.sol:KapanOrderManager",
        "label": "router",
        "offset": 0,
        "slot": "2",
        "type": "t_contract(IKapanRouter)1435"
      },
      {
        "astId": 1521,
        "contract": "contracts/v2/cow/KapanOrderManager.sol:KapanOrderManager",
        "label": "composableCoW",
        "offset": 0,
        "slot": "3",
        "type": "t_contract(IComposableCoW)3235"
      },
      {
        "astId": 1525,
        "contract": "contracts/v2/cow/KapanOrderManager.sol:KapanOrderManager",
        "label": "settlement",
        "offset": 0,
        "slot": "4",
        "type": "t_contract(IGPv2Settlement)3369"
      },
      {
        "astId": 1528,
        "contract": "contracts/v2/cow/KapanOrderManager.sol:KapanOrderManager",
        "label": "hooksTrampoline",
        "offset": 0,
        "slot": "5",
        "type": "t_address"
      },
      {
        "astId": 1531,
        "contract": "contracts/v2/cow/KapanOrderManager.sol:KapanOrderManager",
        "label": "orderHandler",
        "offset": 0,
        "slot": "6",
        "type": "t_address"
      },
      {
        "astId": 1537,
        "contract": "contracts/v2/cow/KapanOrderManager.sol:KapanOrderManager",
        "label": "orders",
        "offset": 0,
        "slot": "7",
        "type": "t_mapping(t_bytes32,t_struct(OrderContext)1513_storage)"
      },
      {
        "astId": 1542,
        "contract": "contracts/v2/cow/KapanOrderManager.sol:KapanOrderManager",
        "label": "orderSalts",
        "offset": 0,
        "slot": "8",
        "type": "t_mapping(t_bytes32,t_bytes32)"
      },
      {
        "astId": 1548,
        "contract": "contracts/v2/cow/KapanOrderManager.sol:KapanOrderManager",
        "label": "userOrders",
        "offset": 0,
        "slot": "9",
        "type": "t_mapping(t_address,t_array(t_bytes32)dyn_storage)"
      },
      {
        "astId": 1555,
        "contract": "contracts/v2/cow/KapanOrderManager.sol:KapanOrderManager",
        "label": "userSaltToOrderHash",
        "offset": 0,
        "slot": "10",
        "type": "t_mapping(t_address,t_mapping(t_bytes32,t_bytes32))"
      }
    ],
    "types": {
      "t_address": {
        "encoding": "inplace",
        "label": "address",
        "numberOfBytes": "20"
      },
      "t_array(t_bytes32)dyn_storage": {
        "base": "t_bytes32",
        "encoding": "dynamic_array",
        "label": "bytes32[]",
        "numberOfBytes": "32"
      },
      "t_bytes32": {
        "encoding": "inplace",
        "label": "bytes32",
        "numberOfBytes": "32"
      },
      "t_bytes_storage": {
        "encoding": "bytes",
        "label": "bytes",
        "numberOfBytes": "32"
      },
      "t_contract(IComposableCoW)3235": {
        "encoding": "inplace",
        "label": "contract IComposableCoW",
        "numberOfBytes": "20"
      },
      "t_contract(IGPv2Settlement)3369": {
        "encoding": "inplace",
        "label": "contract IGPv2Settlement",
        "numberOfBytes": "20"
      },
      "t_contract(IKapanRouter)1435": {
        "encoding": "inplace",
        "label": "contract IKapanRouter",
        "numberOfBytes": "20"
      },
      "t_enum(CompletionType)1467": {
        "encoding": "inplace",
        "label": "enum KapanOrderManager.CompletionType",
        "numberOfBytes": "1"
      },
      "t_enum(OrderStatus)1472": {
        "encoding": "inplace",
        "label": "enum KapanOrderManager.OrderStatus",
        "numberOfBytes": "1"
      },
      "t_mapping(t_address,t_array(t_bytes32)dyn_storage)": {
        "encoding": "mapping",
        "key": "t_address",
        "label": "mapping(address => bytes32[])",
        "numberOfBytes": "32",
        "value": "t_array(t_bytes32)dyn_storage"
      },
      "t_mapping(t_address,t_mapping(t_bytes32,t_bytes32))": {
        "encoding": "mapping",
        "key": "t_address",
        "label": "mapping(address => mapping(bytes32 => bytes32))",
        "numberOfBytes": "32",
        "value": "t_mapping(t_bytes32,t_bytes32)"
      },
      "t_mapping(t_bytes32,t_bytes32)": {
        "encoding": "mapping",
        "key": "t_bytes32",
        "label": "mapping(bytes32 => bytes32)",
        "numberOfBytes": "32",
        "value": "t_bytes32"
      },
      "t_mapping(t_bytes32,t_struct(OrderContext)1513_storage)": {
        "encoding": "mapping",
        "key": "t_bytes32",
        "label": "mapping(bytes32 => struct KapanOrderManager.OrderContext)",
        "numberOfBytes": "32",
        "value": "t_struct(OrderContext)1513_storage"
      },
      "t_struct(KapanOrderParams)1499_storage": {
        "encoding": "inplace",
        "label": "struct KapanOrderManager.KapanOrderParams",
        "members": [
          {
            "astId": 1475,
            "contract": "contracts/v2/cow/KapanOrderManager.sol:KapanOrderManager",
            "label": "user",
            "offset": 0,
            "slot": "0",
            "type": "t_address"
          },
          {
            "astId": 1477,
            "contract": "contracts/v2/cow/KapanOrderManager.sol:KapanOrderManager",
            "label": "preInstructionsData",
            "offset": 0,
            "slot": "1",
            "type": "t_bytes_storage"
          },
          {
            "astId": 1479,
            "contract": "contracts/v2/cow/KapanOrderManager.sol:KapanOrderManager",
            "label": "preTotalAmount",
            "offset": 0,
            "slot": "2",
            "type": "t_uint256"
          },
          {
            "astId": 1481,
            "contract": "contracts/v2/cow/KapanOrderManager.sol:KapanOrderManager",
            "label": "sellToken",
            "offset": 0,
            "slot": "3",
            "type": "t_address"
          },
          {
            "astId": 1483,
            "contract": "contracts/v2/cow/KapanOrderManager.sol:KapanOrderManager",
            "label": "buyToken",
            "offset": 0,
            "slot": "4",
            "type": "t_address"
          },
          {
            "astId": 1485,
            "contract": "contracts/v2/cow/KapanOrderManager.sol:KapanOrderManager",
            "label": "chunkSize",
            "offset": 0,
            "slot": "5",
            "type": "t_uint256"
          },
          {
            "astId": 1487,
            "contract": "contracts/v2/cow/KapanOrderManager.sol:KapanOrderManager",
            "label": "minBuyPerChunk",
            "offset": 0,
            "slot": "6",
            "type": "t_uint256"
          },
          {
            "astId": 1489,
            "contract": "contracts/v2/cow/KapanOrderManager.sol:KapanOrderManager",
            "label": "postInstructionsData",
            "offset": 0,
            "slot": "7",
            "type": "t_bytes_storage"
          },
          {
            "astId": 1492,
            "contract": "contracts/v2/cow/KapanOrderManager.sol:KapanOrderManager",
            "label": "completion",
            "offset": 0,
            "slot": "8",
            "type": "t_enum(CompletionType)1467"
          },
          {
            "astId": 1494,
            "contract": "contracts/v2/cow/KapanOrderManager.sol:KapanOrderManager",
            "label": "targetValue",
            "offset": 0,
            "slot": "9",
            "type": "t_uint256"
          },
          {
            "astId": 1496,
            "contract": "contracts/v2/cow/KapanOrderManager.sol:KapanOrderManager",
            "label": "minHealthFactor",
            "offset": 0,
            "slot": "10",
            "type": "t_uint256"
          },
          {
            "astId": 1498,
            "contract": "contracts/v2/cow/KapanOrderManager.sol:KapanOrderManager",
            "label": "appDataHash",
            "offset": 0,
            "slot": "11",
            "type": "t_bytes32"
          }
        ],
        "numberOfBytes": "384"
      },
      "t_struct(OrderContext)1513_storage": {
        "encoding": "inplace",
        "label": "struct KapanOrderManager.OrderContext",
        "members": [
          {
            "astId": 1503,
            "contract": "contracts/v2/cow/KapanOrderManager.sol:KapanOrderManager",
            "label": "params",
            "offset": 0,
            "slot": "0",
            "type": "t_struct(KapanOrderParams)1499_storage"
          },
          {
            "astId": 1506,
            "contract": "contracts/v2/cow/KapanOrderManager.sol:KapanOrderManager",
            "label": "status",
            "offset": 0,
            "slot": "12",
            "type": "t_enum(OrderStatus)1472"
          },
          {
            "astId": 1508,
            "contract": "contracts/v2/cow/KapanOrderManager.sol:KapanOrderManager",
            "label": "executedAmount",
            "offset": 0,
            "slot": "13",
            "type": "t_uint256"
          },
          {
            "astId": 1510,
            "contract": "contracts/v2/cow/KapanOrderManager.sol:KapanOrderManager",
            "label": "iterationCount",
            "offset": 0,
            "slot": "14",
            "type": "t_uint256"
          },
          {
            "astId": 1512,
            "contract": "contracts/v2/cow/KapanOrderManager.sol:KapanOrderManager",
            "label": "createdAt",
            "offset": 0,
            "slot": "15",
            "type": "t_uint256"
          }
        ],
        "numberOfBytes": "512"
      },
      "t_uint256": {
        "encoding": "inplace",
        "label": "uint256",
        "numberOfBytes": "32"
      }
    }
  }
}