{
  "address": "0x4be975D2fba6489A081bDbbe88Fea30F5A3Dc6F7",
  "abi": [
    {
      "inputs": [
        {
          "internalType": "address",
          "name": "_router",
          "type": "address"
        },
        {
          "internalType": "address",
          "name": "_owner",
          "type": "address"
        }
      ],
      "stateMutability": "nonpayable",
      "type": "constructor"
    },
    {
      "inputs": [
        {
          "internalType": "address",
          "name": "owner",
          "type": "address"
        }
      ],
      "name": "OwnableInvalidOwner",
      "type": "error"
    },
    {
      "inputs": [
        {
          "internalType": "address",
          "name": "account",
          "type": "address"
        }
      ],
      "name": "OwnableUnauthorizedAccount",
      "type": "error"
    },
    {
      "inputs": [],
      "name": "Unauthorized",
      "type": "error"
    },
    {
      "anonymous": false,
      "inputs": [
        {
          "indexed": true,
          "internalType": "address",
          "name": "previousOwner",
          "type": "address"
        },
        {
          "indexed": true,
          "internalType": "address",
          "name": "newOwner",
          "type": "address"
        }
      ],
      "name": "OwnershipTransferred",
      "type": "event"
    },
    {
      "inputs": [
        {
          "components": [
            {
              "internalType": "string",
              "name": "protocolName",
              "type": "string"
            },
            {
              "internalType": "bytes",
              "name": "data",
              "type": "bytes"
            }
          ],
          "internalType": "struct ProtocolTypes.ProtocolInstruction[]",
          "name": "instructions",
          "type": "tuple[]"
        },
        {
          "internalType": "address",
          "name": "caller",
          "type": "address"
        }
      ],
      "name": "authorizeInstructions",
      "outputs": [
        {
          "internalType": "address[]",
          "name": "targets",
          "type": "address[]"
        },
        {
          "internalType": "bytes[]",
          "name": "data",
          "type": "bytes[]"
        }
      ],
      "stateMutability": "view",
      "type": "function"
    },
    {
      "inputs": [
        {
          "components": [
            {
              "internalType": "string",
              "name": "protocolName",
              "type": "string"
            },
            {
              "internalType": "bytes",
              "name": "data",
              "type": "bytes"
            }
          ],
          "internalType": "struct ProtocolTypes.ProtocolInstruction[]",
          "name": "instructions",
          "type": "tuple[]"
        },
        {
          "internalType": "address",
          "name": "caller",
          "type": "address"
        }
      ],
      "name": "deauthorizeInstructions",
      "outputs": [
        {
          "internalType": "address[]",
          "name": "targets",
          "type": "address[]"
        },
        {
          "internalType": "bytes[]",
          "name": "data",
          "type": "bytes[]"
        }
      ],
      "stateMutability": "view",
      "type": "function"
    },
    {
      "inputs": [
        {
          "internalType": "string",
          "name": "",
          "type": "string"
        }
      ],
      "name": "gateways",
      "outputs": [
        {
          "internalType": "contract IGateway",
          "name": "",
          "type": "address"
        }
      ],
      "stateMutability": "view",
      "type": "function"
    },
    {
      "inputs": [],
      "name": "owner",
      "outputs": [
        {
          "internalType": "address",
          "name": "",
          "type": "address"
        }
      ],
      "stateMutability": "view",
      "type": "function"
    },
    {
      "inputs": [],
      "name": "renounceOwnership",
      "outputs": [],
      "stateMutability": "nonpayable",
      "type": "function"
    },
    {
      "inputs": [],
      "name": "router",
      "outputs": [
        {
          "internalType": "address",
          "name": "",
          "type": "address"
        }
      ],
      "stateMutability": "view",
      "type": "function"
    },
    {
      "inputs": [
        {
          "internalType": "string",
          "name": "protocolName",
          "type": "string"
        },
        {
          "internalType": "address",
          "name": "gateway",
          "type": "address"
        }
      ],
      "name": "syncGateway",
      "outputs": [],
      "stateMutability": "nonpayable",
      "type": "function"
    },
    {
      "inputs": [
        {
          "internalType": "address",
          "name": "newOwner",
          "type": "address"
        }
      ],
      "name": "transferOwnership",
      "outputs": [],
      "stateMutability": "nonpayable",
      "type": "function"
    }
  ],
  "transactionHash": "0x9e292a4349de4afb4e2c3ce6f2a7c074fa4bcda3e311dd7a2c0ca43346af22ff",
  "args": [
    "0xC444698c4a6f18B4e86FDE6b4e27d08B0192C85a",
    "0x0BE61223F99E57b8b8B7033a77B54Adc7f7cF027"
  ],
  "numDeployments": 3,
  "solcInputHash": "370e21a62532253d03aa8f08ef20e345",
  "bytecode": "0x60a060405234801561000f575f5ffd5b5060405161261c38038061261c83398101604081905261002e916100e2565b806001600160a01b03811661005c57604051631e4fbdf760e01b81525f600482015260240160405180910390fd5b61006581610078565b50506001600160a01b0316608052610113565b5f80546001600160a01b038381166001600160a01b0319831681178455604051919092169283917f8be0079c531659141344cd1fd0a4f28419497f9722a3daafe3b4186f6b6457e09190a35050565b80516001600160a01b03811681146100dd575f5ffd5b919050565b5f5f604083850312156100f3575f5ffd5b6100fc836100c7565b915061010a602084016100c7565b90509250929050565b6080516124d56101475f395f81816101220152818161018601528181610aab01528181610b380152610bf801526124d55ff3fe608060405234801561000f575f5ffd5b5060043610610076575f3560e01c80636a4c05a61461007a578063715018a61461008f5780638da5cb5b14610097578063d7ff41bf146100b5578063db236a1f146100d6578063f2fde38b1461010a578063f887ea401461011d578063faea56e214610144575b5f5ffd5b61008d610088366004611946565b610157565b005b61008d61020d565b61009f610220565b6040516100ac91906119d0565b60405180910390f35b6100c86100c33660046119e4565b61022e565b6040516100ac929190611a72565b61009f6100e4366004611c0a565b80516020818301810180516001825292820191909301209152546001600160a01b031681565b61008d610118366004611c4e565b61037e565b61009f7f000000000000000000000000000000000000000000000000000000000000000081565b6100c86101523660046119e4565b6103c4565b61015f610220565b6001600160a01b0316336001600160a01b0316141580156101a95750336001600160a01b037f00000000000000000000000000000000000000000000000000000000000000001614155b156101c6576040516282b42960e81b815260040160405180910390fd5b80600184846040516101d9929190611c69565b90815260405190819003602001902080546001600160a01b03929092166001600160a01b0319909216919091179055505050565b6102156104fb565b61021e5f61052d565b565b5f546001600160a01b031690565b6060806102396118e5565b610244856003611c8c565b6001600160401b0381111561025b5761025b611b1b565b604051908082528060200260200182016040528015610284578160200160208202803683370190505b508152610292856003611c8c565b6001600160401b038111156102a9576102a9611b1b565b6040519080825280602002602001820160405280156102dc57816020015b60608152602001906001900390816102c75790505b5060208201525f60405190808252806020026020018201604052801561031c57816020015b61030961190c565b8152602001906001900390816103015790505b5060408201525f5b858110156103665761035c87878381811061034157610341611ca3565b90506020028101906103539190611cb7565b8684600161057c565b9150600101610324565b5061037081610623565b92509250505b935093915050565b6103866104fb565b6001600160a01b0381166103b8575f604051631e4fbdf760e01b81526004016103af91906119d0565b60405180910390fd5b6103c18161052d565b50565b6060806103cf6118e5565b6103da856003611c8c565b6001600160401b038111156103f1576103f1611b1b565b60405190808252806020026020018201604052801561041a578160200160208202803683370190505b508152610428856003611c8c565b6001600160401b0381111561043f5761043f611b1b565b60405190808252806020026020018201604052801561047257816020015b606081526020019060019003908161045d5790505b5060208201525f6040519080825280602002602001820160405280156104b257816020015b61049f61190c565b8152602001906001900390816104975790505b5060408201525f5b85811015610366576104f18787838181106104d7576104d7611ca3565b90506020028101906104e99190611cb7565b86845f61057c565b91506001016104ba565b33610504610220565b6001600160a01b03161461021e573360405163118cdaa760e01b81526004016103af91906119d0565b5f80546001600160a01b038381166001600160a01b0319831681178455604051919092169283917f8be0079c531659141344cd1fd0a4f28419497f9722a3daafe3b4186f6b6457e09190a35050565b6105846118e5565b6040516020016105ae906020808252600690820152653937baba32b960d11b604082015260600190565b60408051601f1981840301815291905280516020909101206105d08680611cd5565b6040516020016105e1929190611d1e565b604051602081830303815290604052805190602001200361060f576106088585858561075b565b905061061b565b610608858585856108c2565b949350505050565b60608082606001516001600160401b0381111561064257610642611b1b565b60405190808252806020026020018201604052801561066b578160200160208202803683370190505b50915082606001516001600160401b0381111561068a5761068a611b1b565b6040519080825280602002602001820160405280156106bd57816020015b60608152602001906001900390816106a85790505b5090505f5b83606001518110156107555783518051829081106106e2576106e2611ca3565b60200260200101518382815181106106fc576106fc611ca3565b6001600160a01b0390921660209283029190910182015284015180518290811061072857610728611ca3565b602002602001015182828151811061074257610742611ca3565b60209081029190910101526001016106c2565b50915091565b6107636118e5565b5f6107716020870187611cd5565b81019061077e9190611dcc565b905060018160600151600781111561079857610798611de6565b0361082e578215610818576107b96107b36020880188611cd5565b87610a58565b85516060870151815181106107d0576107d0611ca3565b6020026020010186602001518760600151815181106107f1576107f1611ca3565b60200260200101829052826001600160a01b03166001600160a01b03168152505050610891565b6107b96108286020880188611cd5565b87610bbd565b5f845f015185606001518151811061084857610848611ca3565b6001600160a01b03909216602092830291909101820152604080518083019091525f81529085015160608601518151811061088557610885611ca3565b60200260200101819052505b606084018051906108a182611dfa565b815250506108b3868560400151610c63565b60408501525091949350505050565b6108ca6118e5565b5f60016108d78780611cd5565b6040516108e5929190611c69565b908152604051908190036020019020546001600160a01b0316905080610984575f845f015185606001518151811061091f5761091f611ca3565b6001600160a01b03909216602092830291909101820152604080518083019091525f81529085015160608601518151811061095c5761095c611ca3565b60209081029190910101526060840180519061097782611dfa565b815250508391505061061b565b6040805160018082528183019092525f91816020015b6109d96040805160c0810182525f808252602080830182905282840182905260608084018390526080840152835190810190935282529060a082015290565b81526020019060019003908161099a5790505090506109fb6020880188611cd5565b810190610a089190611e6f565b815f81518110610a1a57610a1a611ca3565b60200260200101819052508315610a3e57610a3782828888610e6d565b9450610a4d565b610a4a8282888861102e565b94505b509295945050505050565b5f606081610a6885870187611dcc565b9050836001600160a01b031681604001516001600160a01b031603610ba2576020810151604051636eb1769f60e11b81526001600160a01b0386811660048301527f0000000000000000000000000000000000000000000000000000000000000000811660248301525f92169063dd62ed3e90604401602060405180830381865afa158015610af9573d5f5f3e3d5ffd5b505050506040513d601f19601f82011682018060405250810190610b1d9190611f2d565b8251909150811015610ba057506020818101519151604080517f00000000000000000000000000000000000000000000000000000000000000006001600160a01b0316602482015260448082019390935281518082039093018352606401905290810180516001600160e01b031663095ea7b360e01b1790529092509050610376565b505b505060408051602081019091525f8082529150935093915050565b5f606081610bcd85870187611dcc565b9050836001600160a01b031681604001516001600160a01b031603610ba257602090810151604080517f00000000000000000000000000000000000000000000000000000000000000006001600160a01b031660248201525f60448083019190915282518083039091018152606490910190915291820180516001600160e01b031663095ea7b360e01b17905292509050610376565b60605f610c736020850185611cd5565b810190610c809190611dcc565b9050600181606001516007811115610c9a57610c9a611de6565b03610cd557610ccd83604051806040016040528084602001516001600160a01b03168152602001845f015181525061127a565b915050610e67565b600281606001516007811115610ced57610ced611de6565b03610d0857610ccd610d026020860186611cd5565b8561134f565b600381606001516007811115610d2057610d20611de6565b03610d5357610ccd83604051806040016040528084602001516001600160a01b03168152602001845f015181525061127a565b600481606001516007811115610d6b57610d6b611de6565b03610d9757610ccd8360405180604001604052805f6001600160a01b031681526020015f81525061127a565b5f81606001516007811115610dae57610dae611de6565b03610dc957610ccd610dc36020860186611cd5565b856113ad565b600581606001516007811115610de157610de1611de6565b03610dfc57610ccd610df66020860186611cd5565b85611454565b600681606001516007811115610e1457610e14611de6565b03610e2f57610ccd610e296020860186611cd5565b856115ed565b600781606001516007811115610e4757610e47611de6565b03610e6257610ccd610e5c6020860186611cd5565b8561173f565b829150505b92915050565b610e756118e5565b5f5f5f876001600160a01b03166352ed5875888888604001516040518463ffffffff1660e01b8152600401610eac93929190611f93565b5f60405180830381865afa158015610ec6573d5f5f3e3d5ffd5b505050506040513d5f823e601f3d908101601f19168201604052610eed91908101906121d3565b919450925090505f5b8351811015611006575f6001600160a01b0316848281518110610f1b57610f1b611ca3565b60200260200101516001600160a01b031614158015610f5357505f838281518110610f4857610f48611ca3565b602002602001015151115b15610ffe57838181518110610f6a57610f6a611ca3565b6020026020010151865f0151876060015181518110610f8b57610f8b611ca3565b60200260200101906001600160a01b031690816001600160a01b031681525050828181518110610fbd57610fbd611ca3565b60200260200101518660200151876060015181518110610fdf57610fdf611ca3565b602090810291909101015260608601805190610ffa82611dfa565b9052505b600101610ef6565b508051156110225761101c8560400151826117d8565b60408601525b50929695505050505050565b6110366118e5565b5f5f866001600160a01b031663aad11a3f878787604001516040518463ffffffff1660e01b815260040161106c93929190611f93565b5f60405180830381865afa158015611086573d5f5f3e3d5ffd5b505050506040513d5f823e601f3d908101601f191682016040526110ad91908101906122e9565b90925090505f5b82518110156111e8575f6001600160a01b03168382815181106110d9576110d9611ca3565b60200260200101516001600160a01b0316036110f5575f611110565b82818151811061110757611107611ca3565b60200260200101515b855160608701518151811061112757611127611ca3565b60200260200101906001600160a01b031690816001600160a01b0316815250505f6001600160a01b031683828151811061116357611163611ca3565b60200260200101516001600160a01b03160361118d5760405180602001604052805f8152506111a8565b81818151811061119f5761119f611ca3565b60200260200101515b85602001518660600151815181106111c2576111c2611ca3565b6020908102919091010152606085018051906111dd82611dfa565b9052506001016110b4565b5060408085015190516352ed587560e01b81525f916001600160a01b038a16916352ed58759161121e918b918b91600401611f93565b5f60405180830381865afa158015611238573d5f5f3e3d5ffd5b505050506040513d5f823e601f3d908101601f1916820160405261125f91908101906121d3565b925050505f815111156110225761101c8560400151826117d8565b60605f8351600161128b919061234e565b6001600160401b038111156112a2576112a2611b1b565b6040519080825280602002602001820160405280156112db57816020015b6112c861190c565b8152602001906001900390816112c05790505b5090505f5b8451811015611328578481815181106112fb576112fb611ca3565b602002602001015182828151811061131557611315611ca3565b60209081029190910101526001016112e0565b50828185518151811061133d5761133d611ca3565b60209081029190910101529392505050565b60605f61135e84860186612361565b9150508251815f015110156113a157604080518082019091525f808252602082015281518451859190811061139557611395611ca3565b60200260200101819052505b829150505b9392505050565b60605f6113bc84860186612394565b50925050508251815f01511015611424575f83825f0151815181106113e3576113e3611ca3565b602002602001015190506103e881602001516103e96114029190611c8c565b61140c91906123ee565b602082015261141b848261127a565b925050506113a6565b61144b8360405180604001604052805f6001600160a01b031681526020015f81525061127a565b95945050505050565b60605f806114648587018761240d565b92509250508351825f01511015611593575f84835f01518151811061148b5761148b611ca3565b602002602001015190505f61271060018484602001516114ab9190611c8c565b6114b79061271061234e565b6114c19190612449565b6114cb91906123ee565b905081602001518111156114e0575060208101515b5f8183602001516114f19190612449565b905060405180604001604052805f6001600160a01b031681526020015f81525087865f01518151811061152657611526611ca3565b602002602001018190525061155b876040518060400160405280865f01516001600160a01b031681526020018581525061127a565b9650611587876040518060400160405280865f01516001600160a01b031681526020018481525061127a565b955050505050506113a6565b6115ba8460405180604001604052805f6001600160a01b031681526020015f81525061127a565b93506115e38460405180604001604052805f6001600160a01b031681526020015f81525061127a565b9695505050505050565b60605f806115fd8587018761245c565b92509250508351825f0151108015611616575083518151105b15611718575f84835f01518151811061163157611631611ca3565b602002602001015190505f85835f01518151811061165157611651611ca3565b602002602001015190505f81602001518360200151611670919061234e565b905060405180604001604052805f6001600160a01b031681526020015f81525087865f0151815181106116a5576116a5611ca3565b602002602001018190525060405180604001604052805f6001600160a01b031681526020015f81525087855f0151815181106116e3576116e3611ca3565b6020026020010181905250611587876040518060400160405280865f01516001600160a01b031681526020018481525061127a565b6115e38460405180604001604052805f6001600160a01b031681526020015f81525061127a565b60605f8061174f8587018761245c565b92509250508351825f0151108015611768575083518151105b15611718575f84835f01518151811061178357611783611ca3565b602002602001015190505f85835f0151815181106117a3576117a3611ca3565b602002602001015190505f8160200151836020015110156117c4575f611670565b816020015183602001516116709190612449565b60605f825184516117e9919061234e565b6001600160401b0381111561180057611800611b1b565b60405190808252806020026020018201604052801561183957816020015b61182661190c565b81526020019060019003908161181e5790505b5090505f5b84518110156118865784818151811061185957611859611ca3565b602002602001015182828151811061187357611873611ca3565b602090810291909101015260010161183e565b505f5b83518110156118dd578381815181106118a4576118a4611ca3565b6020026020010151828287516118ba919061234e565b815181106118ca576118ca611ca3565b6020908102919091010152600101611889565b509392505050565b60405180608001604052806060815260200160608152602001606081526020015f81525090565b604080518082019091525f808252602082015290565b6001600160a01b03811681146103c1575f5ffd5b803561194181611922565b919050565b5f5f5f60408486031215611958575f5ffd5b83356001600160401b0381111561196d575f5ffd5b8401601f8101861361197d575f5ffd5b80356001600160401b03811115611992575f5ffd5b8660208284010111156119a3575f5ffd5b6020918201945092508401356119b881611922565b809150509250925092565b6001600160a01b03169052565b6001600160a01b0391909116815260200190565b5f5f5f604084860312156119f6575f5ffd5b83356001600160401b03811115611a0b575f5ffd5b8401601f81018613611a1b575f5ffd5b80356001600160401b03811115611a30575f5ffd5b8660208260051b84010111156119a3575f5ffd5b5f81518084528060208401602086015e5f602082860101526020601f19601f83011685010191505092915050565b604080825283519082018190525f9060208501906060840190835b81811015611ab45783516001600160a01b0316835260209384019390920191600101611a8d565b50508381036020850152809150845180825260208201925060208160051b830101602087015f5b83811015611b0d57601f19858403018652611af7838351611a44565b6020968701969093509190910190600101611adb565b509098975050505050505050565b634e487b7160e01b5f52604160045260245ffd5b60405160c081016001600160401b0381118282101715611b5157611b51611b1b565b60405290565b604080519081016001600160401b0381118282101715611b5157611b51611b1b565b604051601f8201601f191681016001600160401b0381118282101715611ba157611ba1611b1b565b604052919050565b5f6001600160401b03821115611bc157611bc1611b1b565b50601f01601f191660200190565b5f611be1611bdc84611ba9565b611b79565b9050828152838383011115611bf4575f5ffd5b828260208301375f602084830101529392505050565b5f60208284031215611c1a575f5ffd5b81356001600160401b03811115611c2f575f5ffd5b8201601f81018413611c3f575f5ffd5b61061b84823560208401611bcf565b5f60208284031215611c5e575f5ffd5b81356113a681611922565b818382375f9101908152919050565b634e487b7160e01b5f52601160045260245ffd5b8082028115828204841417610e6757610e67611c78565b634e487b7160e01b5f52603260045260245ffd5b5f8235603e19833603018112611ccb575f5ffd5b9190910192915050565b5f5f8335601e19843603018112611cea575f5ffd5b8301803591506001600160401b03821115611d03575f5ffd5b602001915036819003821315611d17575f5ffd5b9250929050565b60208152816020820152818360408301375f818301604090810191909152601f909201601f19160101919050565b5f60808284031215611d5c575f5ffd5b604051608081016001600160401b0381118282101715611d7e57611d7e611b1b565b604052823581529050806020830135611d9681611922565b60208201526040830135611da981611922565b6040820152606083013560088110611dbf575f5ffd5b6060919091015292915050565b5f60808284031215611ddc575f5ffd5b6113a68383611d4c565b634e487b7160e01b5f52602160045260245ffd5b5f60018201611e0b57611e0b611c78565b5060010190565b5f82601f830112611e21575f5ffd5b6113a683833560208501611bcf565b5f60208284031215611e40575f5ffd5b604051602081016001600160401b0381118282101715611e6257611e62611b1b565b6040529135825250919050565b5f60208284031215611e7f575f5ffd5b81356001600160401b03811115611e94575f5ffd5b820160c08185031215611ea5575f5ffd5b611ead611b2f565b8135600a8110611ebb575f5ffd5b8152611ec960208301611936565b6020820152611eda60408301611936565b60408201526060828101359082015260808201356001600160401b03811115611f01575f5ffd5b611f0d86828501611e12565b608083015250611f208560a08401611e30565b60a0820152949350505050565b5f60208284031215611f3d575f5ffd5b5051919050565b5f8151808452602084019350602083015f5b82811015611f8957815180516001600160a01b031687526020908101518188015260409096019590910190600101611f56565b5093949350505050565b5f606082016060835280865180835260808501915060808160051b8601019250602088015f5b8281101561206257868503607f1901845281518051600a8110611fea57634e487b7160e01b5f52602160045260245ffd5b86526020818101516001600160a01b03169087015260408082015190612012908801826119c3565b5060608101516060870152608081015160c0608088015261203660c0880182611a44565b905060a0820151915061204c60a0880183519052565b9550506020938401939190910190600101611fb9565b5050505061207360208401866119c3565b82810360408401526115e38185611f44565b5f6001600160401b0382111561209d5761209d611b1b565b5060051b60200190565b5f82601f8301126120b6575f5ffd5b81516120c4611bdc82612085565b8082825260208201915060208360051b8601019250858311156120e5575f5ffd5b602085015b8381101561210b5780516120fd81611922565b8352602092830192016120ea565b5095945050505050565b5f82601f830112612124575f5ffd5b8151612132611bdc82612085565b8082825260208201915060208360051b860101925085831115612153575f5ffd5b602085015b8381101561210b5780516001600160401b03811115612175575f5ffd5b8601603f81018813612185575f5ffd5b6020810151612196611bdc82611ba9565b8181526040838301018a10156121aa575f5ffd5b8160408401602083015e5f60208383010152808652505050602083019250602081019050612158565b5f5f5f606084860312156121e5575f5ffd5b83516001600160401b038111156121fa575f5ffd5b612206868287016120a7565b602086015190945090506001600160401b03811115612223575f5ffd5b61222f86828701612115565b604086015190935090506001600160401b0381111561224c575f5ffd5b8401601f8101861361225c575f5ffd5b805161226a611bdc82612085565b8082825260208201915060208360061b85010192508883111561228b575f5ffd5b6020840193505b828410156122db576040848a0312156122a9575f5ffd5b6122b1611b57565b84516122bc81611922565b8152602085810151818301529083526040909401939190910190612292565b809450505050509250925092565b5f5f604083850312156122fa575f5ffd5b82516001600160401b0381111561230f575f5ffd5b61231b858286016120a7565b602085015190935090506001600160401b03811115612338575f5ffd5b61234485828601612115565b9150509250929050565b80820180821115610e6757610e67611c78565b5f5f60a08385031215612372575f5ffd5b61237c8484611d4c565b915061238b8460808501611e30565b90509250929050565b5f5f5f5f60e085870312156123a7575f5ffd5b6123b18686611d4c565b93506080850135600681106123c4575f5ffd5b92506123d38660a08701611e30565b915060c08501356123e381611922565b939692955090935050565b5f8261240857634e487b7160e01b5f52601260045260245ffd5b500490565b5f5f5f60c0848603121561241f575f5ffd5b6124298585611d4c565b92506124388560808601611e30565b9295929450505060a0919091013590565b81810381811115610e6757610e67611c78565b5f5f5f60c0848603121561246e575f5ffd5b6124788585611d4c565b92506124878560808601611e30565b91506124968560a08601611e30565b9050925092509256fea2646970667358221220d6cdd9f75697cb7f41a3ec2fd80320a5f9721b79efb50890915a059037e43eda64736f6c634300081e0033",
  "devdoc": {
    "details": "Separated from KapanRouter to stay under contract size limits",
    "errors": {
      "OwnableInvalidOwner(address)": [
        {
          "details": "The owner is not a valid owner account. (eg. `address(0)`)"
        }
      ],
      "OwnableUnauthorizedAccount(address)": [
        {
          "details": "The caller account is not authorized to perform an operation."
        }
      ]
    },
    "kind": "dev",
    "methods": {
      "owner()": {
        "details": "Returns the address of the current owner."
      },
      "renounceOwnership()": {
        "details": "Leaves the contract without owner. It will not be possible to call `onlyOwner` functions. Can only be called by the current owner. NOTE: Renouncing ownership will leave the contract without an owner, thereby disabling any functionality that is only available to the owner."
      },
      "syncGateway(string,address)": {
        "details": "Only callable by owner or router"
      },
      "transferOwnership(address)": {
        "details": "Transfers ownership of the contract to a new account (`newOwner`). Can only be called by the current owner."
      }
    },
    "title": "KapanAuthorizationHelper",
    "version": 1
  },
  "userdoc": {
    "kind": "user",
    "methods": {
      "authorizeInstructions((string,bytes)[],address)": {
        "notice": "Generate authorization calls for a sequence of instructions"
      },
      "deauthorizeInstructions((string,bytes)[],address)": {
        "notice": "Generate deauthorization calls for a sequence of instructions"
      },
      "syncGateway(string,address)": {
        "notice": "Sync a gateway registration from the router"
      }
    },
    "notice": "Standalone contract to generate authorization/deauthorization calls for KapanRouter",
    "version": 1
  },
  "storageLayout": {
    "storage": [
      {
        "astId": 8,
        "contract": "contracts/v2/KapanAuthorizationHelper.sol:KapanAuthorizationHelper",
        "label": "_owner",
        "offset": 0,
        "slot": "0",
        "type": "t_address"
      },
      {
        "astId": 325,
        "contract": "contracts/v2/KapanAuthorizationHelper.sol:KapanAuthorizationHelper",
        "label": "gateways",
        "offset": 0,
        "slot": "1",
        "type": "t_mapping(t_string_memory_ptr,t_contract(IGateway)2123)"
      }
    ],
    "types": {
      "t_address": {
        "encoding": "inplace",
        "label": "address",
        "numberOfBytes": "20"
      },
      "t_contract(IGateway)2123": {
        "encoding": "inplace",
        "label": "contract IGateway",
        "numberOfBytes": "20"
      },
      "t_mapping(t_string_memory_ptr,t_contract(IGateway)2123)": {
        "encoding": "mapping",
        "key": "t_string_memory_ptr",
        "label": "mapping(string => contract IGateway)",
        "numberOfBytes": "32",
        "value": "t_contract(IGateway)2123"
      },
      "t_string_memory_ptr": {
        "encoding": "bytes",
        "label": "string",
        "numberOfBytes": "32"
      }
    }
  }
}