{
  "address": "0xC444698c4a6f18B4e86FDE6b4e27d08B0192C85a",
  "abi": [
    {
      "inputs": [
        {
          "internalType": "address",
          "name": "owner",
          "type": "address"
        }
      ],
      "stateMutability": "nonpayable",
      "type": "constructor"
    },
    {
      "inputs": [
        {
          "internalType": "address",
          "name": "target",
          "type": "address"
        }
      ],
      "name": "AddressEmptyCode",
      "type": "error"
    },
    {
      "inputs": [
        {
          "internalType": "address",
          "name": "account",
          "type": "address"
        }
      ],
      "name": "AddressInsufficientBalance",
      "type": "error"
    },
    {
      "inputs": [],
      "name": "BadIndex",
      "type": "error"
    },
    {
      "inputs": [],
      "name": "BadInitiator",
      "type": "error"
    },
    {
      "inputs": [],
      "name": "FailedInnerCall",
      "type": "error"
    },
    {
      "inputs": [],
      "name": "FlashLoanNotEnabled",
      "type": "error"
    },
    {
      "inputs": [],
      "name": "FlashLoanRequiresTransientStack",
      "type": "error"
    },
    {
      "inputs": [],
      "name": "FractionTooLarge",
      "type": "error"
    },
    {
      "inputs": [],
      "name": "GatewayAlreadyExists",
      "type": "error"
    },
    {
      "inputs": [],
      "name": "GatewayNotFound",
      "type": "error"
    },
    {
      "inputs": [],
      "name": "InvalidFlashParams",
      "type": "error"
    },
    {
      "inputs": [],
      "name": "InvalidPool",
      "type": "error"
    },
    {
      "inputs": [],
      "name": "NestedFlashNotAllowed",
      "type": "error"
    },
    {
      "inputs": [],
      "name": "NoValue",
      "type": "error"
    },
    {
      "inputs": [],
      "name": "NotAuthorized",
      "type": "error"
    },
    {
      "inputs": [
        {
          "internalType": "address",
          "name": "owner",
          "type": "address"
        }
      ],
      "name": "OwnableInvalidOwner",
      "type": "error"
    },
    {
      "inputs": [
        {
          "internalType": "address",
          "name": "account",
          "type": "address"
        }
      ],
      "name": "OwnableUnauthorizedAccount",
      "type": "error"
    },
    {
      "inputs": [],
      "name": "ProviderNotConfigured",
      "type": "error"
    },
    {
      "inputs": [],
      "name": "ReentrancyGuardReentrantCall",
      "type": "error"
    },
    {
      "inputs": [
        {
          "internalType": "address",
          "name": "token",
          "type": "address"
        }
      ],
      "name": "SafeERC20FailedOperation",
      "type": "error"
    },
    {
      "inputs": [],
      "name": "TokenMismatch",
      "type": "error"
    },
    {
      "inputs": [],
      "name": "TokenNotInPool",
      "type": "error"
    },
    {
      "inputs": [],
      "name": "UnauthorizedFlashCaller",
      "type": "error"
    },
    {
      "inputs": [],
      "name": "Underflow",
      "type": "error"
    },
    {
      "inputs": [],
      "name": "UniswapV3RequiresPoolAddress",
      "type": "error"
    },
    {
      "inputs": [],
      "name": "UnsupportedFlashLoanProvider",
      "type": "error"
    },
    {
      "inputs": [],
      "name": "ZeroAmount",
      "type": "error"
    },
    {
      "inputs": [],
      "name": "ZeroToken",
      "type": "error"
    },
    {
      "anonymous": false,
      "inputs": [
        {
          "indexed": true,
          "internalType": "address",
          "name": "user",
          "type": "address"
        },
        {
          "indexed": true,
          "internalType": "address",
          "name": "delegate",
          "type": "address"
        },
        {
          "indexed": false,
          "internalType": "bool",
          "name": "approved",
          "type": "bool"
        }
      ],
      "name": "DelegateApprovalChanged",
      "type": "event"
    },
    {
      "anonymous": false,
      "inputs": [
        {
          "indexed": true,
          "internalType": "address",
          "name": "manager",
          "type": "address"
        },
        {
          "indexed": false,
          "internalType": "bool",
          "name": "approved",
          "type": "bool"
        }
      ],
      "name": "ManagerApprovalChanged",
      "type": "event"
    },
    {
      "anonymous": false,
      "inputs": [
        {
          "indexed": true,
          "internalType": "address",
          "name": "previousOwner",
          "type": "address"
        },
        {
          "indexed": true,
          "internalType": "address",
          "name": "newOwner",
          "type": "address"
        }
      ],
      "name": "OwnershipTransferred",
      "type": "event"
    },
    {
      "inputs": [
        {
          "internalType": "bytes32",
          "name": "",
          "type": "bytes32"
        }
      ],
      "name": "aaveCompatiblePools",
      "outputs": [
        {
          "internalType": "address",
          "name": "",
          "type": "address"
        }
      ],
      "stateMutability": "view",
      "type": "function"
    },
    {
      "inputs": [
        {
          "internalType": "string",
          "name": "protocolName",
          "type": "string"
        },
        {
          "internalType": "address",
          "name": "gateway",
          "type": "address"
        }
      ],
      "name": "addGateway",
      "outputs": [],
      "stateMutability": "nonpayable",
      "type": "function"
    },
    {
      "inputs": [
        {
          "internalType": "address",
          "name": "",
          "type": "address"
        }
      ],
      "name": "approvedManagers",
      "outputs": [
        {
          "internalType": "bool",
          "name": "",
          "type": "bool"
        }
      ],
      "stateMutability": "view",
      "type": "function"
    },
    {
      "inputs": [],
      "name": "authorizationHelper",
      "outputs": [
        {
          "internalType": "address",
          "name": "",
          "type": "address"
        }
      ],
      "stateMutability": "view",
      "type": "function"
    },
    {
      "inputs": [
        {
          "components": [
            {
              "internalType": "string",
              "name": "protocolName",
              "type": "string"
            },
            {
              "internalType": "bytes",
              "name": "data",
              "type": "bytes"
            }
          ],
          "internalType": "struct ProtocolTypes.ProtocolInstruction[]",
          "name": "instructions",
          "type": "tuple[]"
        },
        {
          "internalType": "address",
          "name": "caller",
          "type": "address"
        }
      ],
      "name": "authorizeInstructions",
      "outputs": [
        {
          "internalType": "address[]",
          "name": "",
          "type": "address[]"
        },
        {
          "internalType": "bytes[]",
          "name": "",
          "type": "bytes[]"
        }
      ],
      "stateMutability": "view",
      "type": "function"
    },
    {
      "inputs": [
        {
          "components": [
            {
              "internalType": "uint256",
              "name": "amount",
              "type": "uint256"
            },
            {
              "internalType": "address",
              "name": "token",
              "type": "address"
            },
            {
              "internalType": "address",
              "name": "user",
              "type": "address"
            },
            {
              "internalType": "enum KapanRouter.RouterInstructionType",
              "name": "instructionType",
              "type": "uint8"
            }
          ],
          "internalType": "struct KapanRouter.RouterInstruction[]",
          "name": "instrs",
          "type": "tuple[]"
        }
      ],
      "name": "authorizeRouter",
      "outputs": [
        {
          "internalType": "address[]",
          "name": "targets",
          "type": "address[]"
        },
        {
          "internalType": "bytes[]",
          "name": "data",
          "type": "bytes[]"
        }
      ],
      "stateMutability": "view",
      "type": "function"
    },
    {
      "inputs": [],
      "name": "balancerV2Vault",
      "outputs": [
        {
          "internalType": "contract IFlashLoanProvider",
          "name": "",
          "type": "address"
        }
      ],
      "stateMutability": "view",
      "type": "function"
    },
    {
      "inputs": [],
      "name": "balancerV3Vault",
      "outputs": [
        {
          "internalType": "contract IVaultV3",
          "name": "",
          "type": "address"
        }
      ],
      "stateMutability": "view",
      "type": "function"
    },
    {
      "inputs": [
        {
          "components": [
            {
              "internalType": "string",
              "name": "protocolName",
              "type": "string"
            },
            {
              "internalType": "bytes",
              "name": "data",
              "type": "bytes"
            }
          ],
          "internalType": "struct ProtocolTypes.ProtocolInstruction[]",
          "name": "instructions",
          "type": "tuple[]"
        },
        {
          "internalType": "address",
          "name": "caller",
          "type": "address"
        }
      ],
      "name": "deauthorizeInstructions",
      "outputs": [
        {
          "internalType": "address[]",
          "name": "",
          "type": "address[]"
        },
        {
          "internalType": "bytes[]",
          "name": "",
          "type": "bytes[]"
        }
      ],
      "stateMutability": "view",
      "type": "function"
    },
    {
      "inputs": [
        {
          "internalType": "address",
          "name": "asset",
          "type": "address"
        },
        {
          "internalType": "uint256",
          "name": "amount",
          "type": "uint256"
        },
        {
          "internalType": "uint256",
          "name": "premium",
          "type": "uint256"
        },
        {
          "internalType": "address",
          "name": "initiator",
          "type": "address"
        },
        {
          "internalType": "bytes",
          "name": "params",
          "type": "bytes"
        }
      ],
      "name": "executeOperation",
      "outputs": [
        {
          "internalType": "bool",
          "name": "",
          "type": "bool"
        }
      ],
      "stateMutability": "nonpayable",
      "type": "function"
    },
    {
      "inputs": [
        {
          "internalType": "string",
          "name": "",
          "type": "string"
        }
      ],
      "name": "gateways",
      "outputs": [
        {
          "internalType": "contract IGateway",
          "name": "",
          "type": "address"
        }
      ],
      "stateMutability": "view",
      "type": "function"
    },
    {
      "inputs": [
        {
          "internalType": "address",
          "name": "",
          "type": "address"
        }
      ],
      "name": "isAaveCompatiblePool",
      "outputs": [
        {
          "internalType": "bool",
          "name": "",
          "type": "bool"
        }
      ],
      "stateMutability": "view",
      "type": "function"
    },
    {
      "inputs": [
        {
          "internalType": "address",
          "name": "user",
          "type": "address"
        }
      ],
      "name": "isAuthorizedFor",
      "outputs": [
        {
          "internalType": "bool",
          "name": "",
          "type": "bool"
        }
      ],
      "stateMutability": "view",
      "type": "function"
    },
    {
      "inputs": [],
      "name": "morphoBlue",
      "outputs": [
        {
          "internalType": "address",
          "name": "",
          "type": "address"
        }
      ],
      "stateMutability": "view",
      "type": "function"
    },
    {
      "inputs": [
        {
          "internalType": "uint256",
          "name": "assets",
          "type": "uint256"
        },
        {
          "internalType": "bytes",
          "name": "data",
          "type": "bytes"
        }
      ],
      "name": "onMorphoFlashLoan",
      "outputs": [],
      "stateMutability": "nonpayable",
      "type": "function"
    },
    {
      "inputs": [],
      "name": "owner",
      "outputs": [
        {
          "internalType": "address",
          "name": "",
          "type": "address"
        }
      ],
      "stateMutability": "view",
      "type": "function"
    },
    {
      "inputs": [
        {
          "components": [
            {
              "internalType": "string",
              "name": "protocolName",
              "type": "string"
            },
            {
              "internalType": "bytes",
              "name": "data",
              "type": "bytes"
            }
          ],
          "internalType": "struct ProtocolTypes.ProtocolInstruction[]",
          "name": "instructions",
          "type": "tuple[]"
        }
      ],
      "name": "processProtocolInstructions",
      "outputs": [],
      "stateMutability": "nonpayable",
      "type": "function"
    },
    {
      "inputs": [
        {
          "internalType": "contract IERC20[]",
          "name": "tokens",
          "type": "address[]"
        },
        {
          "internalType": "uint256[]",
          "name": "amounts",
          "type": "uint256[]"
        },
        {
          "internalType": "uint256[]",
          "name": "feeAmounts",
          "type": "uint256[]"
        },
        {
          "internalType": "bytes",
          "name": "userData",
          "type": "bytes"
        }
      ],
      "name": "receiveFlashLoan",
      "outputs": [],
      "stateMutability": "nonpayable",
      "type": "function"
    },
    {
      "inputs": [
        {
          "internalType": "bytes",
          "name": "userData",
          "type": "bytes"
        }
      ],
      "name": "receiveFlashLoanV3",
      "outputs": [],
      "stateMutability": "nonpayable",
      "type": "function"
    },
    {
      "inputs": [],
      "name": "renounceOwnership",
      "outputs": [],
      "stateMutability": "nonpayable",
      "type": "function"
    },
    {
      "inputs": [
        {
          "internalType": "address",
          "name": "pool",
          "type": "address"
        }
      ],
      "name": "setAavePool",
      "outputs": [],
      "stateMutability": "nonpayable",
      "type": "function"
    },
    {
      "inputs": [
        {
          "internalType": "address",
          "name": "manager",
          "type": "address"
        },
        {
          "internalType": "bool",
          "name": "approved",
          "type": "bool"
        }
      ],
      "name": "setApprovedManager",
      "outputs": [],
      "stateMutability": "nonpayable",
      "type": "function"
    },
    {
      "inputs": [
        {
          "internalType": "address",
          "name": "helper",
          "type": "address"
        }
      ],
      "name": "setAuthorizationHelper",
      "outputs": [],
      "stateMutability": "nonpayable",
      "type": "function"
    },
    {
      "inputs": [
        {
          "internalType": "address",
          "name": "provider",
          "type": "address"
        }
      ],
      "name": "setBalancerV2",
      "outputs": [],
      "stateMutability": "nonpayable",
      "type": "function"
    },
    {
      "inputs": [
        {
          "internalType": "address",
          "name": "vault",
          "type": "address"
        }
      ],
      "name": "setBalancerV3",
      "outputs": [],
      "stateMutability": "nonpayable",
      "type": "function"
    },
    {
      "inputs": [
        {
          "internalType": "address",
          "name": "delegate",
          "type": "address"
        },
        {
          "internalType": "bool",
          "name": "approved",
          "type": "bool"
        }
      ],
      "name": "setDelegate",
      "outputs": [],
      "stateMutability": "nonpayable",
      "type": "function"
    },
    {
      "inputs": [
        {
          "internalType": "address",
          "name": "morpho",
          "type": "address"
        }
      ],
      "name": "setMorphoBluePool",
      "outputs": [],
      "stateMutability": "nonpayable",
      "type": "function"
    },
    {
      "inputs": [
        {
          "internalType": "address",
          "name": "factoryOrSentinel",
          "type": "address"
        }
      ],
      "name": "setUniswapV3Enabled",
      "outputs": [],
      "stateMutability": "nonpayable",
      "type": "function"
    },
    {
      "inputs": [
        {
          "internalType": "address",
          "name": "pool",
          "type": "address"
        }
      ],
      "name": "setZeroLendPool",
      "outputs": [],
      "stateMutability": "nonpayable",
      "type": "function"
    },
    {
      "inputs": [
        {
          "internalType": "address",
          "name": "newOwner",
          "type": "address"
        }
      ],
      "name": "transferOwnership",
      "outputs": [],
      "stateMutability": "nonpayable",
      "type": "function"
    },
    {
      "inputs": [],
      "name": "uniswapV3Factory",
      "outputs": [
        {
          "internalType": "address",
          "name": "",
          "type": "address"
        }
      ],
      "stateMutability": "view",
      "type": "function"
    },
    {
      "inputs": [
        {
          "internalType": "uint256",
          "name": "fee0",
          "type": "uint256"
        },
        {
          "internalType": "uint256",
          "name": "fee1",
          "type": "uint256"
        },
        {
          "internalType": "bytes",
          "name": "data",
          "type": "bytes"
        }
      ],
      "name": "uniswapV3FlashCallback",
      "outputs": [],
      "stateMutability": "nonpayable",
      "type": "function"
    },
    {
      "inputs": [
        {
          "internalType": "address",
          "name": "",
          "type": "address"
        },
        {
          "internalType": "address",
          "name": "",
          "type": "address"
        }
      ],
      "name": "userDelegates",
      "outputs": [
        {
          "internalType": "bool",
          "name": "",
          "type": "bool"
        }
      ],
      "stateMutability": "view",
      "type": "function"
    }
  ],
  "transactionHash": "0x66f477f7d6a75af23b0fbcd6ef5e210a8a38e2ea746b4c65920ebb5608f93d56",
  "args": [
    "0x0BE61223F99E57b8b8B7033a77B54Adc7f7cF027"
  ],
  "numDeployments": 28,
  "solcInputHash": "cf5ff5c132e6b3e2cf29e3be8b528fd9",
  "bytecode": "0x6080604052348015600e575f5ffd5b50604051616032380380616032833981016040819052602b9160b8565b806001600160a01b038116605857604051631e4fbdf760e01b81525f600482015260240160405180910390fd5b605f816069565b50506001805560e3565b5f80546001600160a01b038381166001600160a01b0319831681178455604051919092169283917f8be0079c531659141344cd1fd0a4f28419497f9722a3daafe3b4186f6b6457e09190a35050565b5f6020828403121560c7575f5ffd5b81516001600160a01b038116811460dc575f5ffd5b9392505050565b615f42806100f05f395ff3fe608060405234801561000f575f5ffd5b5060043610610189575f3560e01c80630acefd351461018d578063109745e2146101b657806310c0a157146101c95780631b11d0ff146101dc5780631caebf74146101ff57806328c184161461022c57806331f570721461024157806333d6c36a146102545780633405920714610267578063349f937c1461027a578063463721af1461028d5780634a994eef146102a05780634bef5d69146102b35780635b549182146102c657806363c0f133146102d9578063715018a6146102fb5780638da5cb5b14610303578063a6ed7be31461030b578063ba3dba8a1461032c578063bba8a3dc1461033f578063bf11f4af14610361578063bf1e4cf614610374578063d7ff41bf14610387578063db236a1f1461039a578063e30b155e146103ce578063e8511303146103e1578063e8ce1bfa146103f4578063e9cbafb014610407578063f04f27071461041a578063f07b6e641461042d578063f0dbeea514610455578063f2fde38b14610468578063faea56e21461047b575b5f5ffd5b6003546101a0906001600160a01b031681565b6040516101ad91906147f5565b60405180910390f35b600a546101a0906001600160a01b031681565b6002546101a0906001600160a01b031681565b6101ef6101ea36600461486a565b61048e565b60405190151581526020016101ad565b6101ef61020d3660046148e0565b600c60209081525f928352604080842090915290825290205460ff1681565b61023f61023a366004614917565b61057d565b005b61023f61024f366004614932565b6105a6565b61023f610262366004614917565b610639565b61023f610275366004614917565b610663565b61023f610288366004614917565b610689565b6101ef61029b366004614917565b6106b7565b61023f6102ae366004614986565b610716565b61023f6102c1366004614986565b610781565b6006546101a0906001600160a01b031681565b6101ef6102e7366004614917565b600b6020525f908152604090205460ff1681565b61023f6107e7565b6101a06107fa565b61031e6103193660046149b2565b610808565b6040516101ad929190614a4f565b61023f61033a366004614917565b610a1b565b6101ef61034d366004614917565b60056020525f908152604090205460ff1681565b61023f61036f366004614af8565b610a4d565b61023f610382366004614917565b610bd4565b61031e610395366004614b76565b610bfa565b6101a06103a8366004614d14565b80516020818301810180516009825292820191909301209152546001600160a01b031681565b61023f6103dc366004614d4d565b610c80565b61023f6103ef366004614917565b610d5d565b6007546101a0906001600160a01b031681565b61023f610415366004614d80565b610d83565b61023f610428366004614dce565b610e38565b6101a061043b366004614e98565b60046020525f90815260409020546001600160a01b031681565b61023f610463366004614eaf565b610f83565b61023f610476366004614917565b610fdc565b61031e610489366004614b76565b61101f565b6007545f90600160a01b900460ff166104ba57604051630a3fad8360e01b815260040160405180910390fd5b6008546001600160a01b031633146104e5576040516364427b5760e11b815260040160405180910390fd5b6001600160a01b038416301461050e57604051630377b97960e11b815260040160405180910390fd5b5f6105198688614ef5565b905061055b888286868080601f0160208091040260200160405190810160405280939291908181526020018383808284375f9201919091525061105892505050565b61056f6001600160a01b03891633836110dd565b506001979650505050505050565b61058561119f565b600280546001600160a01b0319166001600160a01b03831617905550565b50565b600754600160a01b900460ff166105d057604051630a3fad8360e01b815260040160405180910390fd5b6008546001600160a01b031633146105fb576040516364427b5760e11b815260040160405180910390fd5b5f8061060983850185614f08565b91509150610618828683611058565b600754610632906001600160a01b038481169116876110dd565b5050505050565b61064161119f565b600a80546001600160a01b0319166001600160a01b0392909216919091179055565b61066b61119f565b600780546001600160a01b0319166001600160a01b03831617905550565b61069161119f565b6105a3604051806040016040528060048152602001636161766560e01b815250826111d1565b5f6001600160a01b03821633036106d057506001919050565b335f908152600b602052604090205460ff16801561071057506001600160a01b0382165f908152600c6020908152604080832033845290915290205460ff165b92915050565b335f818152600c602090815260408083206001600160a01b03871680855290835292819020805460ff191686151590811790915590519081529192917f2d471f64b7fea7d6fd2f0566b1ee57f49e337f84b90d68995686069542d11e60910160405180910390a35050565b61078961119f565b6001600160a01b0382165f818152600b6020908152604091829020805460ff191685151590811790915591519182527fe75c73780beec8a53a900ed52c74c8954d8890f2c9047ddb1e5c6546fd637d89910160405180910390a25050565b6107ef61119f565b6107f85f61128f565b565b5f546001600160a01b031690565b6060805f805b8481101561086e57600186868381811061082a5761082a614f68565b90506080020160600160208101906108429190614f88565b600781111561085357610853614f54565b03610866578161086281614fa3565b9250505b60010161080e565b50806001600160401b0381111561088757610887614bc8565b6040519080825280602002602001820160405280156108b0578160200160208202803683370190505b509250806001600160401b038111156108cb576108cb614bc8565b6040519080825280602002602001820160405280156108fe57816020015b60608152602001906001900390816108e95790505b5091505f805b85811015610a11573687878381811061091f5761091f614f68565b6080029190910191506001905061093c6080830160608401614f88565b600781111561094d5761094d614f54565b03610a08576109626040820160208301614917565b86848151811061097457610974614f68565b6001600160a01b039092166020928302919091019091015260405163095ea7b360e01b906109a9903090843590602401614fbb565b604051602081830303815290604052906001600160e01b0319166020820180516001600160e01b0383818316178352505050508584815181106109ee576109ee614f68565b60200260200101819052508280610a0490614fa3565b9350505b50600101610904565b5050509250929050565b610a2361119f565b6105a3604051806040016040528060088152602001671e995c9bdb195b9960c21b815250826111d1565b600754600160a01b900460ff16610a7757604051630a3fad8360e01b815260040160405180910390fd5b6008546001600160a01b03163314610aa2576040516364427b5760e11b815260040160405180910390fd5b5f80610ab083850185614fd4565b60035460405163ae63932960e01b81529294509092506001600160a01b03169063ae63932990610ae890859030908690600401614ffe565b5f604051808303815f87803b158015610aff575f5ffd5b505af1158015610b11573d5f5f3e3d5ffd5b50505050610b55828286868080601f0160208091040260200160405190810160405280939291908181526020018383808284375f9201919091525061105892505050565b600354610b6f906001600160a01b038481169116836112de565b6003546040516315afd40960e01b81526001600160a01b03909116906315afd40990610ba19085908590600401614fbb565b5f604051808303815f87803b158015610bb8575f5ffd5b505af1158015610bca573d5f5f3e3d5ffd5b5050505050505050565b610bdc61119f565b600680546001600160a01b0319166001600160a01b03831617905550565b600a5460405163d7ff41bf60e01b815260609182916001600160a01b039091169063d7ff41bf90610c339088908890889060040161508b565b5f60405180830381865afa158015610c4d573d5f5f3e3d5ffd5b505050506040513d5f823e601f3d908101601f19168201604052610c74919081019061523f565b91509150935093915050565b610c8861119f565b806001600160a01b031660098484604051610ca49291906152fa565b908152604051908190036020019020546001600160a01b031614610d58575f6001600160a01b031660098484604051610cde9291906152fa565b908152604051908190036020019020546001600160a01b031614610d1557604051630a20941760e31b815260040160405180910390fd5b8060098484604051610d289291906152fa565b90815260405190819003602001902080546001600160a01b03929092166001600160a01b03199092169190911790555b505050565b610d6561119f565b600380546001600160a01b0319166001600160a01b03831617905550565b600754600160a01b900460ff16610dad57604051630a3fad8360e01b815260040160405180910390fd5b6008546001600160a01b03163314610dd8576040516364427b5760e11b815260040160405180910390fd5b5f80808080610de986880188615309565b945094509450945094505f81610dff5788610e01565b895b610e0b9085614ef5565b9050610e18858285611058565b610e2c6001600160a01b03861687836112de565b50505050505050505050565b600754600160a01b900460ff16610e6257604051630a3fad8360e01b815260040160405180910390fd5b6008546001600160a01b03163314610e8d576040516364427b5760e11b815260040160405180910390fd5b5f84845f818110610ea057610ea0614f68565b9050602002013587875f818110610eb957610eb9614f68565b90506020020135610eca9190614ef5565b9050610f3289895f818110610ee157610ee1614f68565b9050602002016020810190610ef69190614917565b8285858080601f0160208091040260200160405190810160405280939291908181526020018383808284375f9201919091525061105892505050565b600254610f78906001600160a01b0316828b8b5f81610f5357610f53614f68565b9050602002016020810190610f689190614917565b6001600160a01b031691906112de565b505050505050505050565b610f8b611304565b610f95828261132e565b5f5f610fa1848461140e565b915091508115610fbb57610fb684848361151b565b610fc5565b610fc58484611790565b610fcd611878565b5050610fd860018055565b5050565b610fe461119f565b6001600160a01b038116611016575f604051631e4fbdf760e01b815260040161100d91906147f5565b60405180910390fd5b6105a38161128f565b600a54604051637d752b7160e11b815260609182916001600160a01b039091169063faea56e290610c339088908890889060040161508b565b6040805160018082528183019092525f91816020015b6110766147c5565b81526020019060019003908161106e5790505090506040518060400160405280856001600160a01b0316815260200184815250815f815181106110bb576110bb614f68565b60200260200101819052506110cf8161189d565b6110d76119ce565b50505050565b5f836001600160a01b031663095ea7b38484604051602401611100929190614fbb565b604051602081830303815290604052915060e01b6020820180516001600160e01b03838183161783525050505090506111398482611b54565b6110d75761119584856001600160a01b031663095ea7b3865f604051602401611163929190614fbb565b604051602081830303815290604052915060e01b6020820180516001600160e01b038381831617835250505050611bf5565b6110d78482611bf5565b336111a86107fa565b6001600160a01b0316146107f8573360405163118cdaa760e01b815260040161100d91906147f5565b5f826040516020016111e3919061539b565b60408051601f1981840301815291815281516020928301205f81815260049093529120549091506001600160a01b03168015611239576001600160a01b0381165f908152600560205260409020805460ff191690555b5f82815260046020526040902080546001600160a01b0319166001600160a01b038516908117909155156110d7576001600160a01b0383165f908152600560205260409020805460ff1916600117905550505050565b5f80546001600160a01b038381166001600160a01b0319831681178455604051919092169283917f8be0079c531659141344cd1fd0a4f28419497f9722a3daafe3b4186f6b6457e09190a35050565b610d5883846001600160a01b031663a9059cbb8585604051602401611163929190614fbb565b60026001540361132757604051633ee5aeb560e01b815260040160405180910390fd5b6002600155565b5f5b81811015610d58573683838381811061134b5761134b614f68565b905060200281019061135d91906153a6565b905060405160200161136e906153c4565b60408051601f19818403018152919052805160209091012061139082806153e4565b6040516020016113a1929190615426565b6040516020818303038152906040528051906020012014611405575f6113ca60208301836153e4565b8101906113d7919061545b565b90506113e681604001516106b7565b6114035760405163ea8e4eb560e01b815260040160405180910390fd5b505b50600101611330565b5f80805b83811015611512573685858381811061142d5761142d614f68565b905060200281019061143f91906153a6565b9050604051602001611450906153c4565b60408051601f19818403018152919052805160209091012061147282806153e4565b604051602001611483929190615426565b60405160208183030381529060405280519060200120146114a4575061150a565b6114b160208201826153e4565b90505f036114bf575061150a565b5f6114cd60208301836153e4565b8101906114da9190615576565b90505f816060015160078111156114f3576114f3614f54565b036115075760018394509450505050611514565b50505b600101611412565b505b9250929050565b604080515f808252602082019092528161154b565b6115386147c5565b8152602001906001900390816115305790505b5090505f5b82811015611603573685858381811061156b5761156b614f68565b905060200281019061157d91906153a6565b905060405160200161158e906153c4565b60408051601f1981840301815291905280516020909101206115b082806153e4565b6040516020016115c1929190615426565b60405160208183030381529060405280519060200120036115ed576115e68184611c4d565b92506115fa565b6115f781846126e0565b92505b50600101611550565b505f60016116118486615590565b61161b9190615590565b90505f816001600160401b0381111561163657611636614bc8565b60405190808252806020026020018201604052801561166f57816020015b61165c6147db565b8152602001906001900390816116545790505b5090505f5b828110156116e35786868261168a600183615590565b6116949190615590565b8181106116a3576116a3614f68565b90506020028101906116b591906153a6565b6116be906155a3565b8282815181106116d0576116d0614f68565b6020908102919091010152600101611674565b5061171a5f516020615ecd5f395f51905f5282604051602001611706919061560f565b6040516020818303038152906040526127d4565b61173c5f516020615eed5f395f51905f528460405160200161170691906156e8565b5f5f5f88888881811061175157611751614f68565b905060200281019061176391906153a6565b6117719060208101906153e4565b81019061177e9190615706565b93509350935050610f78838383612835565b604080515f80825260208201909252816117c0565b6117ad6147c5565b8152602001906001900390816117a55790505b5090505f5b828110156110d757368484838181106117e0576117e0614f68565b90506020028101906117f291906153a6565b9050604051602001611803906153c4565b60408051601f19818403018152919052805160209091012061182582806153e4565b604051602001611836929190615426565b60405160208183030381529060405280519060200120036118625761185b8184611c4d565b925061186f565b61186c81846126e0565b92505b506001016117c5565b6107f85f516020615eed5f395f51905f5260405180602001604052805f8152506127d4565b5f6118a6612a9e565b90505f825182516118b79190614ef5565b6001600160401b038111156118ce576118ce614bc8565b60405190808252806020026020018201604052801561190757816020015b6118f46147c5565b8152602001906001900390816118ec5790505b5090505f5b82518110156119545782818151811061192757611927614f68565b602002602001015182828151811061194157611941614f68565b602090810291909101015260010161190c565b505f5b83518110156119ab5783818151811061197257611972614f68565b6020026020010151828285516119889190614ef5565b8151811061199857611998614f68565b6020908102919091010152600101611957565b50610d585f516020615eed5f395f51905f528260405160200161170691906156e8565b5f5f6119d8612b12565b81515191935091505f036119ea575050565b6040516020016119f9906153c4565b60408051601f1981840301815290829052805160209182012084519092611a20920161575d565b6040516020818303038152906040528051906020012003611a58575f611a4583612bd7565b90508015611a5257505050565b50611b3d565b5f6009835f0151604051611a6c919061539b565b908152604051908190036020019020546001600160a01b0316905080611aa557604051635d958a8b60e11b815260040160405180910390fd5b5f611aae612a9e565b602085015160405163ae4be46d60e01b81529192505f916001600160a01b0385169163ae4be46d91611ae491869160040161576f565b5f604051808303815f875af1158015611aff573d5f5f3e3d5ffd5b505050506040513d5f823e601f3d908101601f19168201604052611b269190810190615793565b805190915015611b3957611b398161189d565b5050505b80610fd857611b4a612b12565b90925090506119ea565b5f5f5f846001600160a01b031684604051611b6f919061539b565b5f604051808303815f865af19150503d805f8114611ba8576040519150601f19603f3d011682016040523d82523d5f602084013e611bad565b606091505b5091509150818015611bd7575080511580611bd7575080806020019051810190611bd79190615847565b8015611bec57505f856001600160a01b03163b115b95945050505050565b5f611c096001600160a01b0384168361372d565b905080515f14158015611c2d575080806020019051810190611c2b9190615847565b155b15610d585782604051635274afe760e01b815260040161100d91906147f5565b60605f611c5d60208501856153e4565b810190611c6a9190615576565b90505f81606001516007811115611c8357611c83614f54565b03611ca157604051635049b04960e01b815260040160405180910390fd5b600181606001516007811115611cb957611cb9614f54565b03611d4057611ccb81604001516106b7565b611ce85760405163ea8e4eb560e01b815260040160405180910390fd5b604081015181516020830151611d0b926001600160a01b03909116913090613741565b611d3983604051806040016040528084602001516001600160a01b03168152602001845f0151815250613769565b92506126d8565b600281606001516007811115611d5857611d58614f54565b03611e50575f611d6b60208601866153e4565b810190611d789190615862565b9150508351815f015110611d9f5760405163779ffa5760e11b815260040160405180910390fd5b5f84825f015181518110611db557611db5614f68565b602090810291909101015180519091506001600160a01b0316611deb5760405163ad1991f560e01b815260040160405180910390fd5b602081015115611e1657604083015160208201518251611e16926001600160a01b03909116916112de565b604080518082019091525f8082526020820152825186518791908110611e3e57611e3e614f68565b602002602001018190525050506126d8565b600381606001516007811115611e6857611e68614f54565b03611e9b57611d3983604051806040016040528084602001516001600160a01b03168152602001845f0151815250613769565b600481606001516007811115611eb357611eb3614f54565b03612101575f80611ec760208701876153e4565b810190611ed49190615895565b92509250508451815f015110611efd5760405163779ffa5760e11b815260040160405180910390fd5b5f604051602001611f0d906153c4565b6040516020818303038152906040528051906020012083604051602001611f34919061575d565b6040516020818303038152906040528051906020012003611f56575030611f82565b600983604051611f66919061539b565b908152604051908190036020019020546001600160a01b031690505b6001600160a01b038116611fa957604051635d958a8b60e11b815260040160405180910390fd5b5f86835f015181518110611fbf57611fbf614f68565b60200260200101515f015190505f87845f015181518110611fe257611fe2614f68565b6020026020010151602001519050816001600160a01b031663095ea7b3845f6040518363ffffffff1660e01b815260040161201e929190614fbb565b6020604051808303815f875af115801561203a573d5f5f3e3d5ffd5b505050506040513d601f19601f8201168201806040525081019061205e9190615847565b5060405163095ea7b360e01b81526001600160a01b0383169063095ea7b39061208d9086908590600401614fbb565b6020604051808303815f875af11580156120a9573d5f5f3e3d5ffd5b505050506040513d601f19601f820116820180604052508101906120cd9190615847565b506120f58860405180604001604052805f6001600160a01b031681526020015f815250613769565b975050505050506126d8565b60058160600151600781111561211957612119614f54565b036122db575f8061212d60208701876153e4565b81019061213a91906158f0565b92509250508451825f0151106121635760405163779ffa5760e11b815260040160405180910390fd5b5f85835f01518151811061217957612179614f68565b602002602001015190505f6001600160a01b0316815f01516001600160a01b031614806121a857506020810151155b156121c65760405163f2365b5b60e01b815260040160405180910390fd5b6127108211156121e957604051631222751960e01b815260040160405180910390fd5b5f61271060018484602001516121ff919061592c565b61220b90612710614ef5565b6122159190615590565b61221f9190615943565b90508160200151811115612234575060208101515b5f8183602001516122459190615590565b905060405180604001604052805f6001600160a01b031681526020015f81525088865f01518151811061227a5761227a614f68565b60200260200101819052506122af886040518060400160405280865f01516001600160a01b0316815260200185815250613769565b97506120f5886040518060400160405280865f01516001600160a01b0316815260200184815250613769565b6006816060015160078111156122f3576122f3614f54565b036124c1575f8061230760208701876153e4565b8101906123149190615962565b92509250508451825f015110158061232e57508451815110155b1561234c5760405163779ffa5760e11b815260040160405180910390fd5b5f85835f01518151811061236257612362614f68565b602002602001015190505f86835f01518151811061238257612382614f68565b602002602001015190505f6001600160a01b0316825f01516001600160a01b031614806123b7575080516001600160a01b0316155b156123d55760405163ad1991f560e01b815260040160405180910390fd5b805182516001600160a01b039081169116146124045760405163936bb5ad60e01b815260040160405180910390fd5b5f816020015183602001516124199190614ef5565b905060405180604001604052805f6001600160a01b031681526020015f81525088865f01518151811061244e5761244e614f68565b602002602001018190525060405180604001604052805f6001600160a01b031681526020015f81525088855f01518151811061248c5761248c614f68565b60200260200101819052506120f5886040518060400160405280865f01516001600160a01b0316815260200184815250613769565b6007816060015160078111156124d9576124d9614f54565b036126d8575f806124ed60208701876153e4565b8101906124fa9190615962565b92509250508451825f015110158061251457508451815110155b156125325760405163779ffa5760e11b815260040160405180910390fd5b5f85835f01518151811061254857612548614f68565b602002602001015190505f86835f01518151811061256857612568614f68565b602002602001015190505f6001600160a01b0316825f01516001600160a01b0316148061259d575080516001600160a01b0316155b156125bb5760405163ad1991f560e01b815260040160405180910390fd5b805182516001600160a01b039081169116146125ea5760405163936bb5ad60e01b815260040160405180910390fd5b8060200151826020015110156126135760405163caccb6d960e01b815260040160405180910390fd5b5f816020015183602001516126289190615590565b905060405180604001604052805f6001600160a01b031681526020015f81525088865f01518151811061265d5761265d614f68565b602002602001018190525060405180604001604052805f6001600160a01b031681526020015f81525088855f01518151811061269b5761269b614f68565b60200260200101819052506126d0886040518060400160405280865f01516001600160a01b0316815260200184815250613769565b975050505050505b509092915050565b60605f60096126ef85806153e4565b6040516126fd9291906152fa565b908152604051908190036020019020546001600160a01b031690508061273657604051635d958a8b60e11b815260040160405180910390fd5b5f6001600160a01b03821663ae4be46d8561275460208901896153e4565b6040518463ffffffff1660e01b81526004016127729392919061599c565b5f604051808303815f875af115801561278d573d5f5f3e3d5ffd5b505050506040513d5f823e601f3d908101601f191682016040526127b49190810190615793565b8051909150156127cb576127c8848261383e565b93505b50919392505050565b805180835d601f811690602083810191045f5b8181101561280557602081028301518160010187015d6001016127e7565b50821561063257602081028201516001846020036101000a0319808216915050808260010187015d505050505050565b5f61283e612a9e565b90508051835f0151106128645760405163779ffa5760e11b815260040160405180910390fd5b5f81845f01518151811061287a5761287a614f68565b602090810291909101015180519091506001600160a01b03166128b05760405163ad1991f560e01b815260040160405180910390fd5b80602001515f036128d457604051631f2a200560e01b815260040160405180910390fd5b5f8560058111156128e7576128e7614f54565b036129115761290c815f0151826020015160405180602001604052805f81525061394b565b610632565b600185600581111561292557612925614f54565b0361293b5761290c815f01518260200151613b23565b600285600581111561294f5761294f614f54565b036129915761290c604051806040016040528060048152602001636161766560e01b815250825f0151836020015160405180602001604052805f815250613ce2565b60038560058111156129a5576129a5614f54565b036129eb5761290c604051806040016040528060088152602001671e995c9bdb195b9960c21b815250825f0151836020015160405180602001604052805f815250613ce2565b60048560058111156129ff576129ff614f54565b03612a4c576001600160a01b038316612a2b57604051631f356b8560e11b815260040160405180910390fd5b61290c83825f0151836020015160405180602001604052805f815250613d51565b6005856005811115612a6057612a60614f54565b03612a855761290c815f0151826020015160405180602001604052805f8152506141b6565b60405163882f810360e01b815260040160405180910390fd5b60605f612ab75f516020615eed5f395f51905f5261431a565b905080515f03612af857604080515f8082526020820190925290612af1565b612ade6147c5565b815260200190600190039081612ad65790505b5091505090565b80806020019051810190612b0c9190615793565b91505090565b612b1a6147db565b5f5f612b325f516020615ecd5f395f51905f5261431a565b905080515f03612b455750909160019150565b5f81806020019051810190612b5a91906159c1565b80519091505f819003612b735750929360019350915050565b81612b7f600183615590565b81518110612b8f57612b8f614f68565b60200260200101519450600181038252612bc15f516020615ecd5f395f51905f5283604051602001611706919061560f565b612bcc600182615590565b5f1493505050509091565b5f5f8260200151806020019051810190612bf19190615b2f565b90505f81606001516007811115612c0a57612c0a614f54565b03612c48575f5f5f8560200151806020019051810190612c2a9190615b6b565b93509350935050612c3c838383612835565b50600195945050505050565b600181606001516007811115612c6057612c60614f54565b03612c7357612c6e81614378565b613725565b600281606001516007811115612c8b57612c8b614f54565b03612c9957612c6e83614444565b600381606001516007811115612cb157612cb1614f54565b03612d3a576040805160018082528183019092525f91816020015b612cd46147c5565b815260200190600190039081612ccc579050509050604051806040016040528083602001516001600160a01b03168152602001835f0151815250815f81518110612d2057612d20614f68565b6020026020010181905250612d348161189d565b50613725565b600481606001516007811115612d5257612d52614f54565b03612ff9575f5f8460200151806020019051810190612d719190615bb7565b92509250505f612d7f612a9e565b90508051825f015110612da55760405163779ffa5760e11b815260040160405180910390fd5b5f604051602001612db5906153c4565b6040516020818303038152906040528051906020012084604051602001612ddc919061575d565b6040516020818303038152906040528051906020012003612dfe575030612e2a565b600984604051612e0e919061539b565b908152604051908190036020019020546001600160a01b031690505b6001600160a01b038116612e5157604051635d958a8b60e11b815260040160405180910390fd5b5f82845f015181518110612e6757612e67614f68565b60200260200101515f015190505f83855f015181518110612e8a57612e8a614f68565b6020026020010151602001519050816001600160a01b031663095ea7b3845f6040518363ffffffff1660e01b8152600401612ec6929190614fbb565b6020604051808303815f875af1158015612ee2573d5f5f3e3d5ffd5b505050506040513d601f19601f82011682018060405250810190612f069190615847565b5060405163095ea7b360e01b81526001600160a01b0383169063095ea7b390612f359086908590600401614fbb565b6020604051808303815f875af1158015612f51573d5f5f3e3d5ffd5b505050506040513d601f19601f82011682018060405250810190612f759190615847565b506040805160018082528183019092525f91816020015b612f946147c5565b815260200190600190039081612f8c57905050905060405180604001604052805f6001600160a01b031681526020015f815250815f81518110612fd957612fd9614f68565b6020026020010181905250612fed8161189d565b50505050505050613725565b60058160600151600781111561301157613011614f54565b03613264575f5f84602001518060200190518101906130309190615c0a565b92509250505f61303e612a9e565b90508051835f0151106130645760405163779ffa5760e11b815260040160405180910390fd5b5f81845f01518151811061307a5761307a614f68565b602002602001015190505f6001600160a01b0316815f01516001600160a01b031614806130a957506020810151155b156130c75760405163f2365b5b60e01b815260040160405180910390fd5b6127108311156130ea57604051631222751960e01b815260040160405180910390fd5b5f6127106001858460200151613100919061592c565b61310c90612710614ef5565b6131169190615590565b6131209190615943565b90508160200151811115613135575060208101515b5f8183602001516131469190615590565b604080516002808252606082019092529192505f9190816020015b6131696147c5565b8152602001906001900390816131615790505090506040518060400160405280855f01516001600160a01b0316815260200184815250815f815181106131b1576131b1614f68565b60200260200101819052506040518060400160405280855f01516001600160a01b0316815260200183815250816001815181106131f0576131f0614f68565b602002602001018190525060405180604001604052805f6001600160a01b031681526020015f81525085885f01518151811061322e5761322e614f68565b602002602001018190525061325b5f516020615eed5f395f51905f528660405160200161170691906156e8565b612fed8161189d565b60068160600151600781111561327c5761327c614f54565b03613491575f5f846020015180602001905181019061329b9190615c48565b92509250505f6132a9612a9e565b90508051835f01511015806132c057508051825110155b156132de5760405163779ffa5760e11b815260040160405180910390fd5b5f81845f0151815181106132f4576132f4614f68565b602002602001015190505f82845f01518151811061331457613314614f68565b602002602001015190505f6001600160a01b0316825f01516001600160a01b03161480613349575080516001600160a01b0316155b156133675760405163ad1991f560e01b815260040160405180910390fd5b805182516001600160a01b039081169116146133965760405163936bb5ad60e01b815260040160405180910390fd5b5f816020015183602001516133ab9190614ef5565b6040805160018082528183019092529192505f9190816020015b6133cd6147c5565b8152602001906001900390816133c55790505090506040518060400160405280855f01516001600160a01b0316815260200183815250815f8151811061341557613415614f68565b602002602001018190525060405180604001604052805f6001600160a01b031681526020015f81525085885f01518151811061345357613453614f68565b602002602001018190525060405180604001604052805f6001600160a01b031681526020015f81525085875f01518151811061322e5761322e614f68565b6007816060015160078111156134a9576134a9614f54565b03613725575f5f84602001518060200190518101906134c89190615c48565b92509250505f6134d6612a9e565b90508051835f01511015806134ed57508051825110155b1561350b5760405163779ffa5760e11b815260040160405180910390fd5b5f81845f01518151811061352157613521614f68565b602002602001015190505f82845f01518151811061354157613541614f68565b602002602001015190505f6001600160a01b0316825f01516001600160a01b03161480613576575080516001600160a01b0316155b156135945760405163ad1991f560e01b815260040160405180910390fd5b805182516001600160a01b039081169116146135c35760405163936bb5ad60e01b815260040160405180910390fd5b8060200151826020015110156135ec5760405163caccb6d960e01b815260040160405180910390fd5b5f816020015183602001516136019190615590565b6040805160018082528183019092529192505f9190816020015b6136236147c5565b81526020019060019003908161361b5790505090506040518060400160405280855f01516001600160a01b0316815260200183815250815f8151811061366b5761366b614f68565b602002602001018190525060405180604001604052805f6001600160a01b031681526020015f81525085885f0151815181106136a9576136a9614f68565b602002602001018190525060405180604001604052805f6001600160a01b031681526020015f81525085875f0151815181106136e7576136e7614f68565b60200260200101819052506137145f516020615eed5f395f51905f528660405160200161170691906156e8565b61371d8161189d565b505050505050505b505f92915050565b606061373a83835f61459f565b9392505050565b6110d784856001600160a01b03166323b872dd86868660405160240161116393929190614ffe565b60605f8351600161377a9190614ef5565b6001600160401b0381111561379157613791614bc8565b6040519080825280602002602001820160405280156137ca57816020015b6137b76147c5565b8152602001906001900390816137af5790505b5090505f5b8451811015613817578481815181106137ea576137ea614f68565b602002602001015182828151811061380457613804614f68565b60209081029190910101526001016137cf565b50828185518151811061382c5761382c614f68565b60209081029190910101529392505050565b60605f8251845161384f9190614ef5565b6001600160401b0381111561386657613866614bc8565b60405190808252806020026020018201604052801561389f57816020015b61388c6147c5565b8152602001906001900390816138845790505b5090505f5b84518110156138ec578481815181106138bf576138bf614f68565b60200260200101518282815181106138d9576138d9614f68565b60209081029190910101526001016138a4565b505f5b83518110156139435783818151811061390a5761390a614f68565b6020026020010151828287516139209190614ef5565b8151811061393057613930614f68565b60209081029190910101526001016138ef565b509392505050565b6002546007546001600160a01b0390911690600160a01b900460ff1615613985576040516388aac56f60e01b815260040160405180910390fd5b6007805460ff60a01b1916600160a01b179055600880546001600160a01b038084166001600160a01b031990921691909117909155600254166139db57604051637d908e5b60e11b815260040160405180910390fd5b6001600160a01b03841615806139ef575082155b15613a0d57604051630331eb0f60e41b815260040160405180910390fd5b6040805160018082528183019092525f916020808301908036833701905050905084815f81518110613a4157613a41614f68565b6001600160a01b0392909216602092830291909101909101526040805160018082528183019092525f9181602001602082028036833701905050905084815f81518110613a9057613a90614f68565b6020908102919091010152600254604051632e1c224f60e11b81526001600160a01b0390911690635c38449e90613ad1903090869086908a90600401615c82565b5f604051808303815f87803b158015613ae8575f5ffd5b505af1158015613afa573d5f5f3e3d5ffd5b5050600880546001600160a01b031916905550506007805460ff60a01b19169055505050505050565b6003546007546001600160a01b0390911690600160a01b900460ff1615613b5d576040516388aac56f60e01b815260040160405180910390fd5b6007805460ff60a01b1916600160a01b179055600880546001600160a01b038084166001600160a01b03199092169190911790915560035416613bb357604051637d908e5b60e11b815260040160405180910390fd5b6001600160a01b0383161580613bc7575081155b15613be557604051630331eb0f60e41b815260040160405180910390fd5b5f8383604051602001613bf9929190614fbb565b60408051601f19818403018152908290526003549092506001600160a01b0316906348c894919063bf11f4af60e01b90613c3790859060240161575d565b60408051601f198184030181529181526020820180516001600160e01b03166001600160e01b03199485161790525160e084901b9092168252613c7c9160040161575d565b5f604051808303815f875af1158015613c97573d5f5f3e3d5ffd5b505050506040513d5f823e601f3d908101601f19168201604052613cbe9190810190615d31565b5050600880546001600160a01b031916905550506007805460ff60a01b1916905550565b5f60045f86604051602001613cf7919061539b565b60408051601f198184030181529181528151602092830120835290820192909252015f20546001600160a01b0316905080613d4557604051637d908e5b60e11b815260040160405180910390fd5b61063281858585614638565b6007548490600160a01b900460ff1615613d7e576040516388aac56f60e01b815260040160405180910390fd5b6007805460ff60a01b1916600160a01b179055600880546001600160a01b038084166001600160a01b03199092169190911790915560065416613dd457604051637d908e5b60e11b815260040160405180910390fd5b6001600160a01b0385161580613df157506001600160a01b038416155b80613dfa575082155b15613e1857604051630331eb0f60e41b815260040160405180910390fd5b6006546040805163c45a015560e01b8152905187926001600160a01b03908116929084169163c45a0155916004808201926020929091908290030181865afa158015613e66573d5f5f3e3d5ffd5b505050506040513d601f19601f82011682018060405250810190613e8a9190615d62565b6001600160a01b031614613eb05760405162820f3560e61b815260040160405180910390fd5b5f816001600160a01b0316630dfe16816040518163ffffffff1660e01b8152600401602060405180830381865afa158015613eed573d5f5f3e3d5ffd5b505050506040513d601f19601f82011682018060405250810190613f119190615d62565b90505f826001600160a01b031663d21220a76040518163ffffffff1660e01b8152600401602060405180830381865afa158015613f50573d5f5f3e3d5ffd5b505050506040513d601f19601f82011682018060405250810190613f749190615d62565b9050876001600160a01b031660065f9054906101000a90046001600160a01b03166001600160a01b0316631698ee828484876001600160a01b031663ddca3f436040518163ffffffff1660e01b8152600401602060405180830381865afa158015613fe1573d5f5f3e3d5ffd5b505050506040513d601f19601f820116820180604052508101906140059190615d7d565b6040516001600160e01b031960e086901b1681526001600160a01b03938416600482015292909116602483015262ffffff166044820152606401602060405180830381865afa15801561405a573d5f5f3e3d5ffd5b505050506040513d601f19601f8201168201806040525081019061407e9190615d62565b6001600160a01b0316146140a45760405162820f3560e61b815260040160405180910390fd5b6001600160a01b03878116908316148015816140d25750816001600160a01b0316886001600160a01b031614155b156140f057604051630732619560e01b815260040160405180910390fd5b836001600160a01b031663490e6cbc308361410b575f61410d565b895b84614118578a61411a565b5f5b8d8d8d8d89604051602001614133959493929190615d9f565b6040516020818303038152906040526040518563ffffffff1660e01b81526004016141619493929190615de5565b5f604051808303815f87803b158015614178575f5ffd5b505af115801561418a573d5f5f3e3d5ffd5b5050600880546001600160a01b031916905550506007805460ff60a01b19169055505050505050505050565b6007546001600160a01b03811690600160a01b900460ff16156141ec576040516388aac56f60e01b815260040160405180910390fd5b60078054600160a01b60ff60a01b19821617909155600880546001600160a01b0319166001600160a01b03848116919091179091551661423f57604051637d908e5b60e11b815260040160405180910390fd5b6001600160a01b0384161580614253575082155b1561427157604051630331eb0f60e41b815260040160405180910390fd5b6007546040516001600160a01b039091169063e0232b42908690869061429d9083908890602001615e11565b6040516020818303038152906040526040518463ffffffff1660e01b81526004016142ca93929190615e34565b5f604051808303815f87803b1580156142e1575f5ffd5b505af11580156142f3573d5f5f3e3d5ffd5b5050600880546001600160a01b031916905550506007805460ff60a01b1916905550505050565b604051815c8082526020808301908204601f83165f5b8281101561434d57600181880181015c6020830286015201614330565b508015614363578160010186015c602083028401525b5050601f91909101601f191601604052919050565b8061438681604001516106b7565b6143a35760405163ea8e4eb560e01b815260040160405180910390fd5b6040820151825160208401516143c6926001600160a01b03909116913090613741565b6040805160018082528183019092525f91816020015b6143e46147c5565b8152602001906001900390816143dc579050509050604051806040016040528084602001516001600160a01b03168152602001845f0151815250815f8151811061443057614430614f68565b6020026020010181905250610d588161189d565b5f816020015180602001905181019061445d9190615e5a565b9150505f614469612a9e565b90508051825f01511061448f5760405163779ffa5760e11b815260040160405180910390fd5b5f81835f0151815181106144a5576144a5614f68565b602090810291909101015180519091506001600160a01b03166144db5760405163ad1991f560e01b815260040160405180910390fd5b60208101511561454a5761450c604080516080810182525f8082526020820181905291810182905290606082015290565b84602001518060200190518101906145249190615e5a565b50604081015160208401518451929350614548926001600160a01b031691906112de565b505b604080518082019091525f808252602082015283518351849190811061457257614572614f68565b60200260200101819052506110d75f516020615eed5f395f51905f528360405160200161170691906156e8565b6060814710156145c4573060405163cd78605960e01b815260040161100d91906147f5565b5f5f856001600160a01b031684866040516145df919061539b565b5f6040518083038185875af1925050503d805f8114614619576040519150601f19603f3d011682016040523d82523d5f602084013e61461e565b606091505b509150915061462e868383614749565b9695505050505050565b6007548490600160a01b900460ff1615614665576040516388aac56f60e01b815260040160405180910390fd5b6007805460ff60a01b1916600160a01b179055600880546001600160a01b038084166001600160a01b031990921691909117909155841615806146a6575082155b156146c457604051630331eb0f60e41b815260040160405180910390fd5b6040516310ac2ddf60e21b81526001600160a01b038616906342b0b77c906146f89030908890889088905f90600401615e84565b5f604051808303815f87803b15801561470f575f5ffd5b505af1158015614721573d5f5f3e3d5ffd5b5050600880546001600160a01b031916905550506007805460ff60a01b191690555050505050565b60608261475e576147598261479c565b61373a565b815115801561477557506001600160a01b0384163b155b156147955783604051639996b31560e01b815260040161100d91906147f5565b508061373a565b8051156147ac5780518082602001fd5b604051630a12f52160e11b815260040160405180910390fd5b604080518082019091525f808252602082015290565b604051806040016040528060608152602001606081525090565b6001600160a01b0391909116815260200190565b6001600160a01b03811681146105a3575f5ffd5b803561482881614809565b919050565b5f5f83601f84011261483d575f5ffd5b5081356001600160401b03811115614853575f5ffd5b602083019150836020828501011115611514575f5ffd5b5f5f5f5f5f5f60a0878903121561487f575f5ffd5b863561488a81614809565b9550602087013594506040870135935060608701356148a881614809565b925060808701356001600160401b038111156148c2575f5ffd5b6148ce89828a0161482d565b979a9699509497509295939492505050565b5f5f604083850312156148f1575f5ffd5b82356148fc81614809565b9150602083013561490c81614809565b809150509250929050565b5f60208284031215614927575f5ffd5b813561373a81614809565b5f5f5f60408486031215614944575f5ffd5b8335925060208401356001600160401b03811115614960575f5ffd5b61496c8682870161482d565b9497909650939450505050565b80151581146105a3575f5ffd5b5f5f60408385031215614997575f5ffd5b82356149a281614809565b9150602083013561490c81614979565b5f5f602083850312156149c3575f5ffd5b82356001600160401b038111156149d8575f5ffd5b8301601f810185136149e8575f5ffd5b80356001600160401b038111156149fd575f5ffd5b8560208260071b8401011115614a11575f5ffd5b6020919091019590945092505050565b5f81518084528060208401602086015e5f602082860101526020601f19601f83011685010191505092915050565b604080825283519082018190525f9060208501906060840190835b81811015614a915783516001600160a01b0316835260209384019390920191600101614a6a565b50508381036020850152809150845180825260208201925060208160051b830101602087015f5b83811015614aea57601f19858403018652614ad4838351614a21565b6020968701969093509190910190600101614ab8565b509098975050505050505050565b5f5f60208385031215614b09575f5ffd5b82356001600160401b03811115614b1e575f5ffd5b614b2a8582860161482d565b90969095509350505050565b5f5f83601f840112614b46575f5ffd5b5081356001600160401b03811115614b5c575f5ffd5b6020830191508360208260051b8501011115611514575f5ffd5b5f5f5f60408486031215614b88575f5ffd5b83356001600160401b03811115614b9d575f5ffd5b614ba986828701614b36565b9094509250506020840135614bbd81614809565b809150509250925092565b634e487b7160e01b5f52604160045260245ffd5b604051602081016001600160401b0381118282101715614bfe57614bfe614bc8565b60405290565b60405160c081016001600160401b0381118282101715614bfe57614bfe614bc8565b604051608081016001600160401b0381118282101715614bfe57614bfe614bc8565b604080519081016001600160401b0381118282101715614bfe57614bfe614bc8565b604051601f8201601f191681016001600160401b0381118282101715614c9257614c92614bc8565b604052919050565b5f6001600160401b03821115614cb257614cb2614bc8565b50601f01601f191660200190565b5f82601f830112614ccf575f5ffd5b8135602083015f614ce7614ce284614c9a565b614c6a565b9050828152858383011115614cfa575f5ffd5b828260208301375f92810160200192909252509392505050565b5f60208284031215614d24575f5ffd5b81356001600160401b03811115614d39575f5ffd5b614d4584828501614cc0565b949350505050565b5f5f5f60408486031215614d5f575f5ffd5b83356001600160401b03811115614d74575f5ffd5b614ba98682870161482d565b5f5f5f5f60608587031215614d93575f5ffd5b843593506020850135925060408501356001600160401b03811115614db6575f5ffd5b614dc28782880161482d565b95989497509550505050565b5f5f5f5f5f5f5f5f6080898b031215614de5575f5ffd5b88356001600160401b03811115614dfa575f5ffd5b614e068b828c01614b36565b90995097505060208901356001600160401b03811115614e24575f5ffd5b614e308b828c01614b36565b90975095505060408901356001600160401b03811115614e4e575f5ffd5b614e5a8b828c01614b36565b90955093505060608901356001600160401b03811115614e78575f5ffd5b614e848b828c0161482d565b999c989b5096995094979396929594505050565b5f60208284031215614ea8575f5ffd5b5035919050565b5f5f60208385031215614ec0575f5ffd5b82356001600160401b03811115614ed5575f5ffd5b614b2a85828601614b36565b634e487b7160e01b5f52601160045260245ffd5b8082018082111561071057610710614ee1565b5f5f60408385031215614f19575f5ffd5b8235614f2481614809565b915060208301356001600160401b03811115614f3e575f5ffd5b614f4a85828601614cc0565b9150509250929050565b634e487b7160e01b5f52602160045260245ffd5b634e487b7160e01b5f52603260045260245ffd5b600881106105a3575f5ffd5b5f60208284031215614f98575f5ffd5b813561373a81614f7c565b5f60018201614fb457614fb4614ee1565b5060010190565b6001600160a01b03929092168252602082015260400190565b5f5f60408385031215614fe5575f5ffd5b8235614ff081614809565b946020939093013593505050565b6001600160a01b039384168152919092166020820152604081019190915260600190565b5f5f8335601e19843603018112615037575f5ffd5b83016020810192503590506001600160401b03811115615055575f5ffd5b803603821315611514575f5ffd5b81835281816020850137505f828201602090810191909152601f909101601f19169091010190565b604080825281018390525f6060600585901b830181019083018683603e1936839003015b8882101561512c57868503605f1901845282358181126150cd575f5ffd5b8a016150d98180615022565b604088526150eb604089018284615063565b9150506150fb6020830183615022565b92508782036020890152615110828483615063565b97505050506020830192506020840193506001820191506150af565b5050506001600160a01b0385166020850152509050614d45565b5f6001600160401b0382111561515e5761515e614bc8565b5060051b60200190565b5f82601f830112615177575f5ffd5b8151602083015f61518a614ce284614c9a565b905082815285838301111561519d575f5ffd5b8282602083015e5f92810160200192909252509392505050565b5f82601f8301126151c6575f5ffd5b81516151d4614ce282615146565b8082825260208201915060208360051b8601019250858311156151f5575f5ffd5b602085015b838110156152355780516001600160401b03811115615217575f5ffd5b615226886020838a0101615168565b845250602092830192016151fa565b5095945050505050565b5f5f60408385031215615250575f5ffd5b82516001600160401b03811115615265575f5ffd5b8301601f81018513615275575f5ffd5b8051615283614ce282615146565b8082825260208201915060208360051b8501019250878311156152a4575f5ffd5b6020840193505b828410156152cf5783516152be81614809565b8252602093840193909101906152ab565b6020870151909550925050506001600160401b038111156152ee575f5ffd5b614f4a858286016151b7565b818382375f9101908152919050565b5f5f5f5f5f60a0868803121561531d575f5ffd5b853561532881614809565b9450602086013561533881614809565b93506040860135925060608601356001600160401b03811115615359575f5ffd5b61536588828901614cc0565b925050608086013561537681614979565b809150509295509295909350565b5f81518060208401855e5f93019283525090919050565b5f61373a8284615384565b5f8235603e198336030181126153ba575f5ffd5b9190910192915050565b6020808252600690820152653937baba32b960d11b604082015260600190565b5f5f8335601e198436030181126153f9575f5ffd5b8301803591506001600160401b03821115615412575f5ffd5b602001915036819003821315611514575f5ffd5b602081525f614d45602083018486615063565b5f60208284031215615449575f5ffd5b615451614bdc565b9135825250919050565b5f6020828403121561546b575f5ffd5b81356001600160401b03811115615480575f5ffd5b820160c08185031215615491575f5ffd5b615499614c04565b8135600a81106154a7575f5ffd5b81526154b56020830161481d565b60208201526154c66040830161481d565b60408201526060828101359082015260808201356001600160401b038111156154ed575f5ffd5b6154f986828501614cc0565b60808301525061550c8560a08401615439565b60a0820152949350505050565b5f60808284031215615529575f5ffd5b615531614c26565b823581529050602082013561554581614809565b6020820152604082013561555881614809565b6040820152606082013561556b81614f7c565b606082015292915050565b5f60808284031215615586575f5ffd5b61373a8383615519565b8181038181111561071057610710614ee1565b5f604082360312156155b3575f5ffd5b6155bb614c48565b82356001600160401b038111156155d0575f5ffd5b6155dc36828601614cc0565b82525060208301356001600160401b038111156155f7575f5ffd5b61560336828601614cc0565b60208301525092915050565b5f602082016020835280845180835260408501915060408160051b8601019250602086015f5b8281101561568d57603f19878603018452815180516040875261565b6040880182614a21565b90506020820151915086810360208801526156768183614a21565b965050506020938401939190910190600101615635565b50929695505050505050565b5f8151808452602084019350602083015f5b828110156156de57815180516001600160a01b0316875260209081015181880152604090960195909101906001016156ab565b5093949350505050565b602081525f61373a6020830184615699565b600681106105a3575f5ffd5b5f5f5f5f60e08587031215615719575f5ffd5b6157238686615519565b93506080850135615733816156fa565b92506157428660a08701615439565b915060c085013561575281614809565b939692955090935050565b602081525f61373a6020830184614a21565b604081525f6157816040830185615699565b8281036020840152611bec8185614a21565b5f602082840312156157a3575f5ffd5b81516001600160401b038111156157b8575f5ffd5b8201601f810184136157c8575f5ffd5b80516157d6614ce282615146565b8082825260208201915060208360061b8501019250868311156157f7575f5ffd5b6020840193505b8284101561462e5760408488031215615815575f5ffd5b61581d614c48565b845161582881614809565b81526020858101518183015290835260409094019391909101906157fe565b5f60208284031215615857575f5ffd5b815161373a81614979565b5f5f60a08385031215615873575f5ffd5b61587d8484615519565b915061588c8460808501615439565b90509250929050565b5f5f5f60c084860312156158a7575f5ffd5b6158b18585615519565b925060808401356001600160401b038111156158cb575f5ffd5b6158d786828701614cc0565b9250506158e78560a08601615439565b90509250925092565b5f5f5f60c08486031215615902575f5ffd5b61590c8585615519565b925061591b8560808601615439565b9295929450505060a0919091013590565b808202811582820484141761071057610710614ee1565b5f8261595d57634e487b7160e01b5f52601260045260245ffd5b500490565b5f5f5f60c08486031215615974575f5ffd5b61597e8585615519565b925061598d8560808601615439565b91506158e78560a08601615439565b604081525f6159ae6040830186615699565b828103602084015261462e818587615063565b5f602082840312156159d1575f5ffd5b81516001600160401b038111156159e6575f5ffd5b8201601f810184136159f6575f5ffd5b8051615a04614ce282615146565b8082825260208201915060208360051b850101925086831115615a25575f5ffd5b602084015b83811015615ad15780516001600160401b03811115615a47575f5ffd5b85016040818a03601f19011215615a5c575f5ffd5b615a64614c48565b60208201516001600160401b03811115615a7c575f5ffd5b615a8b8b602083860101615168565b82525060408201516001600160401b03811115615aa6575f5ffd5b615ab58b602083860101615168565b6020830152508085525050602083019250602081019050615a2a565b509695505050505050565b5f60808284031215615aec575f5ffd5b615af4614c26565b825181526020830151909150615b0981614809565b60208201526040820151615b1c81614809565b6040820152606082015161556b81614f7c565b5f60808284031215615b3f575f5ffd5b61373a8383615adc565b5f60208284031215615b59575f5ffd5b615b61614bdc565b9151825250919050565b5f5f5f5f60e08587031215615b7e575f5ffd5b615b888686615adc565b93506080850151615b98816156fa565b9250615ba78660a08701615b49565b915060c085015161575281614809565b5f5f5f60c08486031215615bc9575f5ffd5b615bd38585615adc565b60808501519093506001600160401b03811115615bee575f5ffd5b615bfa86828701615168565b9250506158e78560a08601615b49565b5f5f5f60c08486031215615c1c575f5ffd5b615c268585615adc565b9250615c358560808601615b49565b60a0949094015192959394509192915050565b5f5f5f60c08486031215615c5a575f5ffd5b615c648585615adc565b9250615c738560808601615b49565b91506158e78560a08601615b49565b6001600160a01b03851681526080602080830182905285519183018290525f919086019060a0840190835b81811015615cd45783516001600160a01b0316835260209384019390920191600101615cad565b50508381036040850152855180825260209182019250908601905f90815b81811015615d10578351855260209485019490930192600101615cf2565b505050508281036060840152615d268185614a21565b979650505050505050565b5f60208284031215615d41575f5ffd5b81516001600160401b03811115615d56575f5ffd5b614d4584828501615168565b5f60208284031215615d72575f5ffd5b815161373a81614809565b5f60208284031215615d8d575f5ffd5b815162ffffff8116811461373a575f5ffd5b6001600160a01b038681168252851660208201526040810184905260a0606082018190525f90615dd190830185614a21565b905082151560808301529695505050505050565b60018060a01b0385168152836020820152826040820152608060608201525f61462e6080830184614a21565b6001600160a01b03831681526040602082018190525f90614d4590830184614a21565b60018060a01b0384168152826020820152606060408201525f611bec6060830184614a21565b5f5f60a08385031215615e6b575f5ffd5b615e758484615adc565b915061588c8460808501615b49565b6001600160a01b038681168252851660208201526040810184905260a0606082018190525f90615eb690830185614a21565b905061ffff83166080830152969550505050505056fe33a7f7e91c7e5e97e4035e86e424aaeb97691c852dc81d823520f664cc2ca71c5f92431fdc2b6bf66f91a326fa06b3fad6b4ab24047c9be12b7f412fbfbaa1eca264697066735822122021f124c21331ab22d8ad31a8b8f3ecbcf7c2ad226cc499ecc0def408fd3c64af64736f6c634300081e0033",
  "devdoc": {
    "errors": {
      "AddressEmptyCode(address)": [
        {
          "details": "There's no code at `target` (it is not a contract)."
        }
      ],
      "AddressInsufficientBalance(address)": [
        {
          "details": "The ETH balance of the account is not enough to perform the operation."
        }
      ],
      "FailedInnerCall()": [
        {
          "details": "A call to an address target failed. The target may have reverted."
        }
      ],
      "OwnableInvalidOwner(address)": [
        {
          "details": "The owner is not a valid owner account. (eg. `address(0)`)"
        }
      ],
      "OwnableUnauthorizedAccount(address)": [
        {
          "details": "The caller account is not authorized to perform an operation."
        }
      ],
      "ReentrancyGuardReentrantCall()": [
        {
          "details": "Unauthorized reentrant call."
        }
      ],
      "SafeERC20FailedOperation(address)": [
        {
          "details": "An operation with an ERC20 token failed."
        }
      ]
    },
    "kind": "dev",
    "methods": {
      "isAuthorizedFor(address)": {
        "params": {
          "user": "The user to check authorization for"
        },
        "returns": {
          "_0": "True if msg.sender can act on behalf of user"
        }
      },
      "onMorphoFlashLoan(uint256,bytes)": {
        "params": {
          "assets": "The amount of assets that was flash loaned.",
          "data": "Arbitrary data passed to the `flashLoan` function."
        }
      },
      "owner()": {
        "details": "Returns the address of the current owner."
      },
      "renounceOwnership()": {
        "details": "Leaves the contract without owner. It will not be possible to call `onlyOwner` functions. Can only be called by the current owner. NOTE: Renouncing ownership will leave the contract without an owner, thereby disabling any functionality that is only available to the owner."
      },
      "setDelegate(address,bool)": {
        "details": "Manager must be approved by owner first"
      },
      "transferOwnership(address)": {
        "details": "Transfers ownership of the contract to a new account (`newOwner`). Can only be called by the current owner."
      }
    },
    "version": 1
  },
  "userdoc": {
    "kind": "user",
    "methods": {
      "approvedManagers(address)": {
        "notice": "Approved managers that can act on behalf of users who delegate to them"
      },
      "authorizationHelper()": {
        "notice": "Address of the KapanAuthorizationHelper contract for auth encoding"
      },
      "authorizeInstructions((string,bytes)[],address)": {
        "notice": "Generate authorization calls for instructions (delegates to helper)"
      },
      "deauthorizeInstructions((string,bytes)[],address)": {
        "notice": "Generate deauthorization calls for instructions (delegates to helper)"
      },
      "isAuthorizedFor(address)": {
        "notice": "Check if caller is authorized to act for a user"
      },
      "onMorphoFlashLoan(uint256,bytes)": {
        "notice": "Callback called when a flash loan occurs."
      },
      "setAavePool(address)": {
        "notice": "Set the Aave V3 pool address."
      },
      "setApprovedManager(address,bool)": {
        "notice": "Owner approves/revokes a manager address that users can delegate to"
      },
      "setAuthorizationHelper(address)": {
        "notice": "Set the authorization helper contract address"
      },
      "setDelegate(address,bool)": {
        "notice": "User grants/revokes delegation to a manager"
      },
      "setMorphoBluePool(address)": {
        "notice": "Set the Morpho Blue address for flash loans."
      },
      "setZeroLendPool(address)": {
        "notice": "Set the ZeroLend pool address."
      },
      "userDelegates(address,address)": {
        "notice": "User => delegate => canActOnBehalf"
      }
    },
    "version": 1
  },
  "storageLayout": {
    "storage": [
      {
        "astId": 1578,
        "contract": "contracts/v2/KapanRouter.sol:KapanRouter",
        "label": "_owner",
        "offset": 0,
        "slot": "0",
        "type": "t_address"
      },
      {
        "astId": 3093,
        "contract": "contracts/v2/KapanRouter.sol:KapanRouter",
        "label": "_status",
        "offset": 0,
        "slot": "1",
        "type": "t_uint256"
      },
      {
        "astId": 11605,
        "contract": "contracts/v2/KapanRouter.sol:KapanRouter",
        "label": "balancerV2Vault",
        "offset": 0,
        "slot": "2",
        "type": "t_contract(IFlashLoanProvider)31373"
      },
      {
        "astId": 11608,
        "contract": "contracts/v2/KapanRouter.sol:KapanRouter",
        "label": "balancerV3Vault",
        "offset": 0,
        "slot": "3",
        "type": "t_contract(IVaultV3)31399"
      },
      {
        "astId": 11612,
        "contract": "contracts/v2/KapanRouter.sol:KapanRouter",
        "label": "aaveCompatiblePools",
        "offset": 0,
        "slot": "4",
        "type": "t_mapping(t_bytes32,t_address)"
      },
      {
        "astId": 11616,
        "contract": "contracts/v2/KapanRouter.sol:KapanRouter",
        "label": "isAaveCompatiblePool",
        "offset": 0,
        "slot": "5",
        "type": "t_mapping(t_address,t_bool)"
      },
      {
        "astId": 11618,
        "contract": "contracts/v2/KapanRouter.sol:KapanRouter",
        "label": "uniswapV3Factory",
        "offset": 0,
        "slot": "6",
        "type": "t_address"
      },
      {
        "astId": 11620,
        "contract": "contracts/v2/KapanRouter.sol:KapanRouter",
        "label": "morphoBlue",
        "offset": 0,
        "slot": "7",
        "type": "t_address"
      },
      {
        "astId": 11622,
        "contract": "contracts/v2/KapanRouter.sol:KapanRouter",
        "label": "flashLoanEnabled",
        "offset": 20,
        "slot": "7",
        "type": "t_bool"
      },
      {
        "astId": 11624,
        "contract": "contracts/v2/KapanRouter.sol:KapanRouter",
        "label": "authorizedFlashSender",
        "offset": 0,
        "slot": "8",
        "type": "t_address"
      },
      {
        "astId": 6594,
        "contract": "contracts/v2/KapanRouter.sol:KapanRouter",
        "label": "gateways",
        "offset": 0,
        "slot": "9",
        "type": "t_mapping(t_string_memory_ptr,t_contract(IGateway)31311)"
      },
      {
        "astId": 6597,
        "contract": "contracts/v2/KapanRouter.sol:KapanRouter",
        "label": "authorizationHelper",
        "offset": 0,
        "slot": "10",
        "type": "t_address"
      },
      {
        "astId": 6602,
        "contract": "contracts/v2/KapanRouter.sol:KapanRouter",
        "label": "approvedManagers",
        "offset": 0,
        "slot": "11",
        "type": "t_mapping(t_address,t_bool)"
      },
      {
        "astId": 6609,
        "contract": "contracts/v2/KapanRouter.sol:KapanRouter",
        "label": "userDelegates",
        "offset": 0,
        "slot": "12",
        "type": "t_mapping(t_address,t_mapping(t_address,t_bool))"
      }
    ],
    "types": {
      "t_address": {
        "encoding": "inplace",
        "label": "address",
        "numberOfBytes": "20"
      },
      "t_bool": {
        "encoding": "inplace",
        "label": "bool",
        "numberOfBytes": "1"
      },
      "t_bytes32": {
        "encoding": "inplace",
        "label": "bytes32",
        "numberOfBytes": "32"
      },
      "t_contract(IFlashLoanProvider)31373": {
        "encoding": "inplace",
        "label": "contract IFlashLoanProvider",
        "numberOfBytes": "20"
      },
      "t_contract(IGateway)31311": {
        "encoding": "inplace",
        "label": "contract IGateway",
        "numberOfBytes": "20"
      },
      "t_contract(IVaultV3)31399": {
        "encoding": "inplace",
        "label": "contract IVaultV3",
        "numberOfBytes": "20"
      },
      "t_mapping(t_address,t_bool)": {
        "encoding": "mapping",
        "key": "t_address",
        "label": "mapping(address => bool)",
        "numberOfBytes": "32",
        "value": "t_bool"
      },
      "t_mapping(t_address,t_mapping(t_address,t_bool))": {
        "encoding": "mapping",
        "key": "t_address",
        "label": "mapping(address => mapping(address => bool))",
        "numberOfBytes": "32",
        "value": "t_mapping(t_address,t_bool)"
      },
      "t_mapping(t_bytes32,t_address)": {
        "encoding": "mapping",
        "key": "t_bytes32",
        "label": "mapping(bytes32 => address)",
        "numberOfBytes": "32",
        "value": "t_address"
      },
      "t_mapping(t_string_memory_ptr,t_contract(IGateway)31311)": {
        "encoding": "mapping",
        "key": "t_string_memory_ptr",
        "label": "mapping(string => contract IGateway)",
        "numberOfBytes": "32",
        "value": "t_contract(IGateway)31311"
      },
      "t_string_memory_ptr": {
        "encoding": "bytes",
        "label": "string",
        "numberOfBytes": "32"
      },
      "t_uint256": {
        "encoding": "inplace",
        "label": "uint256",
        "numberOfBytes": "32"
      }
    }
  }
}