{
  "address": "0x0ade77E3BC1fa45F5D19853e2a49E0f773030266",
  "abi": [
    {
      "inputs": [
        {
          "internalType": "address",
          "name": "_router",
          "type": "address"
        },
        {
          "internalType": "address",
          "name": "_owner",
          "type": "address"
        }
      ],
      "stateMutability": "nonpayable",
      "type": "constructor"
    },
    {
      "inputs": [
        {
          "internalType": "address",
          "name": "target",
          "type": "address"
        }
      ],
      "name": "AddressEmptyCode",
      "type": "error"
    },
    {
      "inputs": [
        {
          "internalType": "address",
          "name": "account",
          "type": "address"
        }
      ],
      "name": "AddressInsufficientBalance",
      "type": "error"
    },
    {
      "inputs": [],
      "name": "FailedInnerCall",
      "type": "error"
    },
    {
      "inputs": [],
      "name": "FlashLoanInProgress",
      "type": "error"
    },
    {
      "inputs": [],
      "name": "InvalidLender",
      "type": "error"
    },
    {
      "inputs": [],
      "name": "OnlyRouter",
      "type": "error"
    },
    {
      "inputs": [],
      "name": "OnlySettlement",
      "type": "error"
    },
    {
      "inputs": [
        {
          "internalType": "address",
          "name": "owner",
          "type": "address"
        }
      ],
      "name": "OwnableInvalidOwner",
      "type": "error"
    },
    {
      "inputs": [
        {
          "internalType": "address",
          "name": "account",
          "type": "address"
        }
      ],
      "name": "OwnableUnauthorizedAccount",
      "type": "error"
    },
    {
      "inputs": [
        {
          "internalType": "address",
          "name": "token",
          "type": "address"
        }
      ],
      "name": "SafeERC20FailedOperation",
      "type": "error"
    },
    {
      "inputs": [],
      "name": "UnauthorizedCaller",
      "type": "error"
    },
    {
      "anonymous": false,
      "inputs": [
        {
          "indexed": true,
          "internalType": "address",
          "name": "lender",
          "type": "address"
        },
        {
          "indexed": true,
          "internalType": "address",
          "name": "token",
          "type": "address"
        },
        {
          "indexed": false,
          "internalType": "uint256",
          "name": "amount",
          "type": "uint256"
        },
        {
          "indexed": false,
          "internalType": "enum LenderType",
          "name": "lenderType",
          "type": "uint8"
        }
      ],
      "name": "FlashLoanRequested",
      "type": "event"
    },
    {
      "anonymous": false,
      "inputs": [
        {
          "indexed": true,
          "internalType": "address",
          "name": "lender",
          "type": "address"
        },
        {
          "indexed": false,
          "internalType": "bool",
          "name": "allowed",
          "type": "bool"
        },
        {
          "indexed": false,
          "internalType": "enum LenderType",
          "name": "lenderType",
          "type": "uint8"
        }
      ],
      "name": "LenderUpdated",
      "type": "event"
    },
    {
      "anonymous": false,
      "inputs": [
        {
          "indexed": true,
          "internalType": "address",
          "name": "token",
          "type": "address"
        },
        {
          "indexed": true,
          "internalType": "address",
          "name": "recipient",
          "type": "address"
        },
        {
          "indexed": false,
          "internalType": "uint256",
          "name": "amount",
          "type": "uint256"
        }
      ],
      "name": "OrderFunded",
      "type": "event"
    },
    {
      "anonymous": false,
      "inputs": [
        {
          "indexed": true,
          "internalType": "address",
          "name": "previousOwner",
          "type": "address"
        },
        {
          "indexed": true,
          "internalType": "address",
          "name": "newOwner",
          "type": "address"
        }
      ],
      "name": "OwnershipTransferred",
      "type": "event"
    },
    {
      "inputs": [
        {
          "internalType": "address",
          "name": "",
          "type": "address"
        }
      ],
      "name": "allowedLenders",
      "outputs": [
        {
          "internalType": "bool",
          "name": "",
          "type": "bool"
        }
      ],
      "stateMutability": "view",
      "type": "function"
    },
    {
      "inputs": [
        {
          "internalType": "contract IERC20",
          "name": "token",
          "type": "address"
        },
        {
          "internalType": "address",
          "name": "target",
          "type": "address"
        },
        {
          "internalType": "uint256",
          "name": "amount",
          "type": "uint256"
        }
      ],
      "name": "approve",
      "outputs": [],
      "stateMutability": "nonpayable",
      "type": "function"
    },
    {
      "inputs": [
        {
          "internalType": "address",
          "name": "asset",
          "type": "address"
        },
        {
          "internalType": "uint256",
          "name": "amount",
          "type": "uint256"
        },
        {
          "internalType": "uint256",
          "name": "premium",
          "type": "uint256"
        },
        {
          "internalType": "address",
          "name": "initiator",
          "type": "address"
        },
        {
          "internalType": "bytes",
          "name": "params",
          "type": "bytes"
        }
      ],
      "name": "executeOperation",
      "outputs": [
        {
          "internalType": "bool",
          "name": "",
          "type": "bool"
        }
      ],
      "stateMutability": "nonpayable",
      "type": "function"
    },
    {
      "inputs": [
        {
          "internalType": "address",
          "name": "lender",
          "type": "address"
        },
        {
          "internalType": "contract IERC20",
          "name": "token",
          "type": "address"
        },
        {
          "internalType": "uint256",
          "name": "amount",
          "type": "uint256"
        },
        {
          "internalType": "bytes",
          "name": "callbackData",
          "type": "bytes"
        }
      ],
      "name": "flashLoanAndCallBack",
      "outputs": [],
      "stateMutability": "nonpayable",
      "type": "function"
    },
    {
      "inputs": [
        {
          "internalType": "address",
          "name": "token",
          "type": "address"
        },
        {
          "internalType": "address",
          "name": "recipient",
          "type": "address"
        },
        {
          "internalType": "uint256",
          "name": "amount",
          "type": "uint256"
        }
      ],
      "name": "fundOrder",
      "outputs": [],
      "stateMutability": "nonpayable",
      "type": "function"
    },
    {
      "inputs": [
        {
          "internalType": "address",
          "name": "lender",
          "type": "address"
        }
      ],
      "name": "getLenderType",
      "outputs": [
        {
          "internalType": "enum LenderType",
          "name": "",
          "type": "uint8"
        }
      ],
      "stateMutability": "view",
      "type": "function"
    },
    {
      "inputs": [],
      "name": "getRouter",
      "outputs": [
        {
          "internalType": "address",
          "name": "",
          "type": "address"
        }
      ],
      "stateMutability": "view",
      "type": "function"
    },
    {
      "inputs": [],
      "name": "getSettlementContract",
      "outputs": [
        {
          "internalType": "address",
          "name": "",
          "type": "address"
        }
      ],
      "stateMutability": "view",
      "type": "function"
    },
    {
      "inputs": [],
      "name": "isInFlashLoan",
      "outputs": [
        {
          "internalType": "bool",
          "name": "",
          "type": "bool"
        }
      ],
      "stateMutability": "view",
      "type": "function"
    },
    {
      "inputs": [
        {
          "internalType": "address",
          "name": "",
          "type": "address"
        }
      ],
      "name": "lenderTypes",
      "outputs": [
        {
          "internalType": "enum LenderType",
          "name": "",
          "type": "uint8"
        }
      ],
      "stateMutability": "view",
      "type": "function"
    },
    {
      "inputs": [
        {
          "internalType": "uint256",
          "name": "assets",
          "type": "uint256"
        },
        {
          "internalType": "bytes",
          "name": "data",
          "type": "bytes"
        }
      ],
      "name": "onMorphoFlashLoan",
      "outputs": [],
      "stateMutability": "nonpayable",
      "type": "function"
    },
    {
      "inputs": [],
      "name": "owner",
      "outputs": [
        {
          "internalType": "address",
          "name": "",
          "type": "address"
        }
      ],
      "stateMutability": "view",
      "type": "function"
    },
    {
      "inputs": [
        {
          "internalType": "contract IERC20[]",
          "name": "tokens",
          "type": "address[]"
        },
        {
          "internalType": "uint256[]",
          "name": "amounts",
          "type": "uint256[]"
        },
        {
          "internalType": "uint256[]",
          "name": "feeAmounts",
          "type": "uint256[]"
        },
        {
          "internalType": "bytes",
          "name": "userData",
          "type": "bytes"
        }
      ],
      "name": "receiveFlashLoan",
      "outputs": [],
      "stateMutability": "nonpayable",
      "type": "function"
    },
    {
      "inputs": [
        {
          "internalType": "bytes",
          "name": "userData",
          "type": "bytes"
        }
      ],
      "name": "receiveFlashLoanV3",
      "outputs": [],
      "stateMutability": "nonpayable",
      "type": "function"
    },
    {
      "inputs": [],
      "name": "renounceOwnership",
      "outputs": [],
      "stateMutability": "nonpayable",
      "type": "function"
    },
    {
      "inputs": [
        {
          "internalType": "address",
          "name": "token",
          "type": "address"
        },
        {
          "internalType": "address",
          "name": "to",
          "type": "address"
        },
        {
          "internalType": "uint256",
          "name": "amount",
          "type": "uint256"
        }
      ],
      "name": "rescueTokens",
      "outputs": [],
      "stateMutability": "nonpayable",
      "type": "function"
    },
    {
      "inputs": [],
      "name": "router",
      "outputs": [
        {
          "internalType": "contract IFlashLoanRouter",
          "name": "",
          "type": "address"
        }
      ],
      "stateMutability": "view",
      "type": "function"
    },
    {
      "inputs": [
        {
          "internalType": "address",
          "name": "lender",
          "type": "address"
        },
        {
          "internalType": "bool",
          "name": "allowed",
          "type": "bool"
        }
      ],
      "name": "setAaveLender",
      "outputs": [],
      "stateMutability": "nonpayable",
      "type": "function"
    },
    {
      "inputs": [
        {
          "internalType": "address",
          "name": "lender",
          "type": "address"
        },
        {
          "internalType": "bool",
          "name": "allowed",
          "type": "bool"
        }
      ],
      "name": "setBalancerV2Lender",
      "outputs": [],
      "stateMutability": "nonpayable",
      "type": "function"
    },
    {
      "inputs": [
        {
          "internalType": "address",
          "name": "lender",
          "type": "address"
        },
        {
          "internalType": "bool",
          "name": "allowed",
          "type": "bool"
        }
      ],
      "name": "setBalancerV3Lender",
      "outputs": [],
      "stateMutability": "nonpayable",
      "type": "function"
    },
    {
      "inputs": [
        {
          "internalType": "address",
          "name": "lender",
          "type": "address"
        },
        {
          "internalType": "bool",
          "name": "allowed",
          "type": "bool"
        }
      ],
      "name": "setLender",
      "outputs": [],
      "stateMutability": "nonpayable",
      "type": "function"
    },
    {
      "inputs": [
        {
          "internalType": "address",
          "name": "lender",
          "type": "address"
        },
        {
          "internalType": "bool",
          "name": "allowed",
          "type": "bool"
        }
      ],
      "name": "setMorphoLender",
      "outputs": [],
      "stateMutability": "nonpayable",
      "type": "function"
    },
    {
      "inputs": [],
      "name": "settlementContract",
      "outputs": [
        {
          "internalType": "address",
          "name": "",
          "type": "address"
        }
      ],
      "stateMutability": "view",
      "type": "function"
    },
    {
      "inputs": [
        {
          "internalType": "address",
          "name": "newOwner",
          "type": "address"
        }
      ],
      "name": "transferOwnership",
      "outputs": [],
      "stateMutability": "nonpayable",
      "type": "function"
    }
  ],
  "transactionHash": "0x13914564a051a3a3fc9f4dba6d66e85610d2f53f0d8e6d0a0c6359d90ff26af4",
  "args": [
    "0x9da8B48441583a2b93e2eF8213aAD0EC0b392C69",
    "0x0BE61223F99E57b8b8B7033a77B54Adc7f7cF027"
  ],
  "numDeployments": 5,
  "solcInputHash": "4d93626108ac8c23c645dc92e7568a60",
  "bytecode": "0x60c0806040523461015157604081611a32803803809161001f828561017b565b83398101031261015157610032816101b2565b906001600160a01b0390610048906020016101b2565b168015610168575f80546001600160a01b0319811683178255604051936020938593600493859392916001600160a01b03909116907f8be0079c531659141344cd1fd0a4f28419497f9722a3daafe3b4186f6b6457e09080a36001600160a01b0316608081905263ea42418b60e01b82525afa90811561015d575f9161011f575b5060a05260405161186b90816101c78239608051818181610137015281816102b4015281816106660152818161084501528181610aaf0152818161100e01526111ac015260a051818181610455015261137f0152f35b90506020813d602011610155575b8161013a6020938361017b565b810103126101515761014b906101b2565b5f6100c9565b5f80fd5b3d915061012d565b6040513d5f823e3d90fd5b631e4fbdf760e01b5f525f60045260245ffd5b601f909101601f19168101906001600160401b0382119082101761019e57604052565b634e487b7160e01b5f52604160045260245ffd5b51906001600160a01b03821682036101515756fe60806040526004361015610011575f80fd5b5f5f3560e01c80631b11d0ff146110e957806331f5707214610f51578063366d8f3d14610f125780633ff5af8f146109d75780635678d21614610a6357806360db1bc214610a3e578063665bf3d014610917578063715018a6146109f75780637cd223c9146109d75780637d867ede1461095b5780638382075a146109175780638da5cb5b146108f057806393d4bf8914610874578063b0f479a11461082f578063ba4d4392146107d1578063bf11f4af1461056b578063cea9d26f14610520578063dc127d091461042c578063e1a3503b146104a3578063e1f21c6714610431578063ea42418b1461042c578063f04f2707146101dc578063f2fde38b146101695763f887ea4014610122575f80fd5b346101665780600319360112610166576040517f00000000000000000000000000000000000000000000000000000000000000006001600160a01b03168152602090f35b80fd5b50346101665760203660031901126101665761018361129b565b61018b611698565b6001600160a01b031680156101c85781546001600160a01b03198116821783556001600160a01b03165f5160206118165f395f51905f528380a380f35b631e4fbdf760e01b82526004829052602482fd5b5034610166576080366003190112610166576004356001600160401b0381116104285761020d9036906004016113ae565b906024356001600160401b0381116103eb5761022d9036906004016113ae565b6044356001600160401b0381116104245761024c9036906004016113ae565b90916064356001600160401b0381116104205761026d9036906004016112c7565b6002546001600160a01b0316330361041157338952600360205260ff60408a20541660058110156103fd576003036103ef57885460ff60a01b1916600160a01b17895588917f00000000000000000000000000000000000000000000000000000000000000006001600160a01b03169190823b156103eb57610310928492836040518096819582946306d7234360e11b8452602060048501526024840191611436565b03925af180156103e0576103c7575b5050156103b3571561039f5790610338913590356113de565b911561038b57356001600160a01b03811691908290036103875761035d9133906116be565b805460ff60a01b19168155600180546001600160a01b031990811690915560028054909116905580f35b8280fd5b634e487b7160e01b83526032600452602483fd5b634e487b7160e01b85526032600452602485fd5b634e487b7160e01b86526032600452602486fd5b816103d1916113ff565b6103dc57865f61031f565b8680fd5b6040513d84823e3d90fd5b8380fd5b6221eeab60e81b8952600489fd5b634e487b7160e01b8a52602160045260248afd5b635c427cd960e01b8952600489fd5b8780fd5b8580fd5b5080fd5b61136a565b50346101665760603660031901126101665761044b61129b565b6104536112b1565b7f00000000000000000000000000000000000000000000000000000000000000006001600160a01b03163303610494579061049191604435916115a4565b80f35b630ad98cbb60e11b8352600483fd5b50346101665760405f5160206117f65f395f51905f526104c2366112f4565b92906104cc611698565b60018060a01b03169283855260046020526104e9818387206114db565b80156105175761050560025b85875260036020528387206114ec565b8151901515815260026020820152a280f35b610505856104f5565b50346101665761052f36611330565b9061053b939293611698565b60ff835460a01c1661055c57919261049192906001600160a01b03166116be565b636d9b07e760e11b8352600483fd5b5034610166576020366003190112610166576004356001600160401b0381116104285761059c9036906004016112c7565b6002546001600160a01b031633036107c257338352600360205260ff60408420541660058110156107ae576004036107a0578101906060818303126103875780356001600160a01b0381169184918390036104285760208101359360408201356001600160401b0381116103eb576106149201611471565b333b156104285760405163ae63932960e01b8152836004820152306024820152846044820152828160648183335af1908115610795578391610780575b5050815460ff60a01b1916600160a01b1782557f00000000000000000000000000000000000000000000000000000000000000006001600160a01b0316803b15610387576040516306d7234360e11b81526020600482015291839183918290849082906106c29060248301906114b7565b03925af180156103e05761076b575b5050816020916106e56107009433836116be565b6040516315afd40960e01b8152938492839260048401611589565b038185335af180156103e05761073c575b50805460ff60a01b19168155600180546001600160a01b031990811690915560028054909116905580f35b6020813d602011610763575b81610755602093836113ff565b810103126104285751610711565b3d9150610748565b81610775916113ff565b61038757825f6106d1565b8161078a916113ff565b61042857815f610651565b6040513d85823e3d90fd5b6221eeab60e81b8352600483fd5b634e487b7160e01b84526021600452602484fd5b635c427cd960e01b8352600483fd5b5034610166577e2359f304b8464c859c155522e44f8652d8e890288a45e8de86c3cab7961654602061080236611330565b936001600160a01b03909216929061081b8582866116be565b6040519485526001600160a01b031693a380f35b50346101665780600319360112610166576040517f00000000000000000000000000000000000000000000000000000000000000006001600160a01b03168152602090f35b50346101665760405f5160206117f65f395f51905f52610893366112f4565b929061089d611698565b60018060a01b03169283855260046020526108ba818387206114db565b80156108e7576108d5600385875260036020528387206114ec565b8151901515815260036020820152a280f35b6108d5856104f5565b5034610166578060031936011261016657546040516001600160a01b039091168152602090f35b50346101665760203660031901126101665760209060ff906040906001600160a01b0361094261129b565b168152600384522054166109596040518092611323565bf35b50346101665760405f5160206117f65f395f51905f5261097a366112f4565b9290610984611698565b60018060a01b03169283855260046020526109a1818387206114db565b80156109ce576109bc600485875260036020528387206114ec565b8151901515815260046020820152a280f35b6109bc856104f5565b5034610166576104916109e9366112f4565b906109f2611698565b611504565b5034610166578060031936011261016657610a10611698565b80546001600160a01b03198116825581906001600160a01b03165f5160206118165f395f51905f528280a380f35b503461016657806003193601126101665760ff6020915460a01c166040519015158152f35b503461016657608036600319011261016657610a7d61129b565b90610a866112b1565b91604435906064356001600160401b0381116103eb57610aaa9036906004016112c7565b9490917f00000000000000000000000000000000000000000000000000000000000000006001600160a01b03163303610f03576001600160a01b03168085526004602052604085205490919060ff1615610ef55760ff855460a01c16610ee65760018060a01b0316948560018060a01b031960015416176001558160018060a01b03196002541617600255818552600360205260ff60408620541686837fae1167dd988b206ad4318c5abda297dffa2222fafb9f16468d03d866a3431dd660408051898152610b7c6020820187611323565ba36005811015610ed25760028103610c23575090610bbe85969392610bb06040519485926020808501526040840191611436565b03601f1981018452836113ff565b803b15610c1f57610bfb938580946040519687958694859363701195a160e11b8552600485015260248401526060604484015260648301906114b7565b03925af180156103e057610c0e57505080f35b81610c18916113ff565b6101665780f35b8480fd5b60038103610d4b5750604092835194610c3c85876113ff565b600186526020860190601f1986019889368437610c5888611568565b52855190610c6687836113ff565b600182526020820199368b37610c7b82611568565b52843b15610420578551632e1c224f60e11b81523060048201526080602482015296516084880181905260a488019290895b818110610d2c575050506020906003198884030160448901525191828152019790875b818110610d165750505091848681610cf8829a82968498600319858403016064860152611436565b03925af1908115610d0d5750610c0e57505080f35b513d84823e3d90fd5b82518a526020998a019990920191600101610cd0565b82516001600160a01b0316855260209485019490920191600101610cad565b9285969160048795145f14610e70578495610d9d610de59594610d8f610d8f95610dc195604051958694602086015260408501526060808501526080840191611436565b03601f1981018352826113ff565b60405192839163bf11f4af60e01b60208401526020602484015260448301906114b7565b6040519485809481936348c8949160e01b83526020600484015260248301906114b7565b03925af180156103e057610df857505080f35b3d8083833e610e0781836113ff565b810190602081830312610e6c578051906001600160401b038211610e6a57019080601f83011215610e6c57815190610e3e82611456565b90610e4c60405192836113ff565b82825260208385010111610e6a578160208094018483015e01015280f35b505b5050fd5b92809294509490943b1561042457858094610eb9604051978896879586946310ac2ddf60e21b86523060048701526024860152604485015260a0606485015260a4840191611436565b82608483015203925af180156103e057610c0e57505080f35b634e487b7160e01b86526021600452602486fd5b636d9b07e760e11b8552600485fd5b6221eeab60e81b8552600485fd5b639e41bdd760e01b8552600485fd5b50346101665760203660031901126101665760209060ff906040906001600160a01b03610f3d61129b565b168152600484522054166040519015158152f35b5034610166576040366003190112610166576024356001600160401b03811161042857610f829036906004016112c7565b600254909291906001600160a01b031633036110da57338252600360205260ff60408320541660058110156110c6576002036110b85781928101602082820312610e6c5781356001600160401b038111610e6a57610fe09201611471565b815460ff60a01b1916600160a01b17825560015461100c906004359033906001600160a01b03166115a4565b7f00000000000000000000000000000000000000000000000000000000000000006001600160a01b0316803b15610e6c576040516306d7234360e11b815260206004820152918391839182908490829061106a9060248301906114b7565b03925af180156103e0576110a35750805460ff60a01b19168155600180546001600160a01b031990811690915560028054909116905580f35b816110ad916113ff565b61016657805f610711565b6221eeab60e81b8252600482fd5b634e487b7160e01b83526021600452602483fd5b635c427cd960e01b8252600482fd5b50346112665760a03660031901126112665761110361129b565b6064356001600160a01b0381169190829003611266576084356001600160401b038111611266576111389036906004016112c7565b60025491939092916001600160a01b0316330361126a57335f52600360205260ff60405f20541660058110156112875760010361127957300361126a575f805460ff60a01b1916600160a01b1790556111aa906111996044356024356113de565b9033906001600160a01b03166115a4565b7f00000000000000000000000000000000000000000000000000000000000000006001600160a01b031691823b1561126657611207925f92836040518096819582946306d7234360e11b8452602060048501526024840191611436565b03925af1801561125b57611248575b50805460ff60a01b19169055600180546001600160a01b03199081168255600280549091169055604051908152602090f35b61125491505f906113ff565b5f5f611216565b6040513d5f823e3d90fd5b5f80fd5b635c427cd960e01b5f5260045ffd5b6221eeab60e81b5f5260045ffd5b634e487b7160e01b5f52602160045260245ffd5b600435906001600160a01b038216820361126657565b602435906001600160a01b038216820361126657565b9181601f84011215611266578235916001600160401b038311611266576020838186019501011161126657565b6040906003190112611266576004356001600160a01b0381168103611266579060243580151581036112665790565b9060058210156112875752565b6060906003190112611266576004356001600160a01b038116810361126657906024356001600160a01b0381168103611266579060443590565b34611266575f366003190112611266576040517f00000000000000000000000000000000000000000000000000000000000000006001600160a01b03168152602090f35b9181601f84011215611266578235916001600160401b038311611266576020808501948460051b01011161126657565b919082018092116113eb57565b634e487b7160e01b5f52601160045260245ffd5b601f909101601f19168101906001600160401b0382119082101761142257604052565b634e487b7160e01b5f52604160045260245ffd5b908060209392818452848401375f828201840152601f01601f1916010190565b6001600160401b03811161142257601f01601f191660200190565b81601f820112156112665780359061148882611456565b9261149660405194856113ff565b8284526020838301011161126657815f926020809301838601378301015290565b805180835260209291819084018484015e5f828201840152601f01601f1916010190565b9060ff801983541691151516179055565b9060058110156112875760ff80198354169116179055565b60405f5160206117f65f395f51905f529160018060a01b031692835f52600460205261153281835f206114db565b801561155f5761154e60015b855f526003602052835f206114ec565b8151901515815260016020820152a2565b61154e5f61153e565b8051156115755760200190565b634e487b7160e01b5f52603260045260245ffd5b6001600160a01b039091168152602081019190915260400190565b919091604051916115d9836115cb602082019363095ea7b360e01b85528760248401611589565b03601f1981018552846113ff565b82516001600160a01b038316915f91829182855af1906115f76116e5565b82611666575b508161165b575b501561160f57505050565b60405163095ea7b360e01b60208201526001600160a01b0390931660248401525f6044808501919091528352611659926116549061164e6064826113ff565b8261172c565b61172c565b565b90503b15155f611604565b8051919250811591821561167e575b5050905f6115fd565b6116919250602080918301019101611714565b5f80611675565b5f546001600160a01b031633036116ab57565b63118cdaa760e01b5f523360045260245ffd5b6116546116599392610bb060405194859263a9059cbb60e01b602085015260248401611589565b3d1561170f573d906116f682611456565b9161170460405193846113ff565b82523d5f602084013e565b606090565b90816020910312611266575180151581036112665790565b5f806117549260018060a01b03169360208151910182865af161174d6116e5565b9083611797565b805190811515918261177c575b505061176a5750565b635274afe760e01b5f5260045260245ffd5b61178f9250602080918301019101611714565b155f80611761565b906117bb57508051156117ac57805190602001fd5b630a12f52160e11b5f5260045ffd5b815115806117ec575b6117cc575090565b639996b31560e01b5f9081526001600160a01b0391909116600452602490fd5b50803b156117c456fed4592927869c83c7edf7f0a74cd19a3839b0888757840d5ea3663c4542ca1d758be0079c531659141344cd1fd0a4f28419497f9722a3daafe3b4186f6b6457e0a2646970667358221220190103bfd46256686524d722f54c300e1842bd85ca67165cbfaf4e03176aee6464736f6c634300081e0033",
  "devdoc": {
    "details": "Supports Morpho Blue (0% fee), Balancer V2 (0% fee), and Aave V3 (0.05% fee)",
    "errors": {
      "AddressEmptyCode(address)": [
        {
          "details": "There's no code at `target` (it is not a contract)."
        }
      ],
      "AddressInsufficientBalance(address)": [
        {
          "details": "The ETH balance of the account is not enough to perform the operation."
        }
      ],
      "FailedInnerCall()": [
        {
          "details": "A call to an address target failed. The target may have reverted."
        }
      ],
      "OwnableInvalidOwner(address)": [
        {
          "details": "The owner is not a valid owner account. (eg. `address(0)`)"
        }
      ],
      "OwnableUnauthorizedAccount(address)": [
        {
          "details": "The caller account is not authorized to perform an operation."
        }
      ],
      "SafeERC20FailedOperation(address)": [
        {
          "details": "An operation with an ERC20 token failed."
        }
      ]
    },
    "kind": "dev",
    "methods": {
      "approve(address,address,uint256)": {
        "details": "Only callable by Settlement contract"
      },
      "flashLoanAndCallBack(address,address,uint256,bytes)": {
        "params": {
          "amount": "The amount to borrow",
          "callbackData": "Data to pass back to router after receiving loan",
          "lender": "The flash loan provider (Morpho or Aave pool)",
          "token": "The token to borrow"
        }
      },
      "fundOrder(address,address,uint256)": {
        "details": "Called in pre-hook to fund the order. Only callable during active flash loan settlement."
      },
      "onMorphoFlashLoan(uint256,bytes)": {
        "params": {
          "assets": "The borrowed amount",
          "data": "Encoded callbackData for router"
        }
      },
      "owner()": {
        "details": "Returns the address of the current owner."
      },
      "receiveFlashLoan(address[],uint256[],uint256[],bytes)": {
        "params": {
          "amounts": "Array of amounts borrowed",
          "feeAmounts": "Array of fee amounts (0 for Balancer)",
          "tokens": "Array of tokens borrowed (we only use single token)",
          "userData": "Encoded callbackData for router"
        }
      },
      "receiveFlashLoanV3(bytes)": {
        "details": "V3 uses a different flow: unlock() -> sendTo() to receive -> settle() to repay",
        "params": {
          "userData": "Encoded (token, amount, callbackData)"
        }
      },
      "renounceOwnership()": {
        "details": "Leaves the contract without owner. It will not be possible to call `onlyOwner` functions. Can only be called by the current owner. NOTE: Renouncing ownership will leave the contract without an owner, thereby disabling any functionality that is only available to the owner."
      },
      "transferOwnership(address)": {
        "details": "Transfers ownership of the contract to a new account (`newOwner`). Can only be called by the current owner."
      }
    },
    "title": "KapanCowAdapter",
    "version": 1
  },
  "userdoc": {
    "kind": "user",
    "methods": {
      "allowedLenders(address)": {
        "notice": "Mapping of allowed lenders"
      },
      "approve(address,address,uint256)": {
        "notice": "Approve a target to spend tokens (standard IBorrower function)"
      },
      "executeOperation(address,uint256,uint256,address,bytes)": {
        "notice": "Called by Aave after flash loan tokens are sent"
      },
      "flashLoanAndCallBack(address,address,uint256,bytes)": {
        "notice": "Called by FlashLoanRouter to initiate flash loan"
      },
      "fundOrder(address,address,uint256)": {
        "notice": "Transfer flash-loaned tokens to the order recipient (OrderManager)"
      },
      "lenderTypes(address)": {
        "notice": "Mapping of lender address => LenderType"
      },
      "onMorphoFlashLoan(uint256,bytes)": {
        "notice": "Called by Morpho Blue after flash loan tokens are sent"
      },
      "receiveFlashLoan(address[],uint256[],uint256[],bytes)": {
        "notice": "Called by Balancer V2 Vault after flash loan tokens are sent"
      },
      "receiveFlashLoanV3(bytes)": {
        "notice": "Called by Balancer V3 Vault via unlock() pattern"
      },
      "rescueTokens(address,address,uint256)": {
        "notice": "Rescue tokens accidentally sent to this contract"
      },
      "router()": {
        "notice": "CoW Protocol's FlashLoanRouter"
      },
      "setAaveLender(address,bool)": {
        "notice": "Add or remove an allowed Aave lender"
      },
      "setBalancerV2Lender(address,bool)": {
        "notice": "Add or remove an allowed Balancer V2 lender"
      },
      "setBalancerV3Lender(address,bool)": {
        "notice": "Add or remove an allowed Balancer V3 lender"
      },
      "setLender(address,bool)": {
        "notice": "Legacy function for backwards compatibility (defaults to Aave)"
      },
      "setMorphoLender(address,bool)": {
        "notice": "Add or remove an allowed Morpho lender"
      },
      "settlementContract()": {
        "notice": "CoW Protocol's Settlement contract"
      }
    },
    "notice": "Bridges Kapan's OrderManager with CoW Protocol's flash loan system",
    "version": 1
  },
  "storageLayout": {
    "storage": [
      {
        "astId": 8,
        "contract": "contracts/v2/cow/KapanCowAdapter.sol:KapanCowAdapter",
        "label": "_owner",
        "offset": 0,
        "slot": "0",
        "type": "t_address"
      },
      {
        "astId": 950,
        "contract": "contracts/v2/cow/KapanCowAdapter.sol:KapanCowAdapter",
        "label": "_inFlashLoan",
        "offset": 20,
        "slot": "0",
        "type": "t_bool"
      },
      {
        "astId": 953,
        "contract": "contracts/v2/cow/KapanCowAdapter.sol:KapanCowAdapter",
        "label": "_flashLoanToken",
        "offset": 0,
        "slot": "1",
        "type": "t_address"
      },
      {
        "astId": 956,
        "contract": "contracts/v2/cow/KapanCowAdapter.sol:KapanCowAdapter",
        "label": "_currentLender",
        "offset": 0,
        "slot": "2",
        "type": "t_address"
      },
      {
        "astId": 962,
        "contract": "contracts/v2/cow/KapanCowAdapter.sol:KapanCowAdapter",
        "label": "lenderTypes",
        "offset": 0,
        "slot": "3",
        "type": "t_mapping(t_address,t_enum(LenderType)931)"
      },
      {
        "astId": 967,
        "contract": "contracts/v2/cow/KapanCowAdapter.sol:KapanCowAdapter",
        "label": "allowedLenders",
        "offset": 0,
        "slot": "4",
        "type": "t_mapping(t_address,t_bool)"
      }
    ],
    "types": {
      "t_address": {
        "encoding": "inplace",
        "label": "address",
        "numberOfBytes": "20"
      },
      "t_bool": {
        "encoding": "inplace",
        "label": "bool",
        "numberOfBytes": "1"
      },
      "t_enum(LenderType)931": {
        "encoding": "inplace",
        "label": "enum LenderType",
        "numberOfBytes": "1"
      },
      "t_mapping(t_address,t_bool)": {
        "encoding": "mapping",
        "key": "t_address",
        "label": "mapping(address => bool)",
        "numberOfBytes": "32",
        "value": "t_bool"
      },
      "t_mapping(t_address,t_enum(LenderType)931)": {
        "encoding": "mapping",
        "key": "t_address",
        "label": "mapping(address => enum LenderType)",
        "numberOfBytes": "32",
        "value": "t_enum(LenderType)931"
      }
    }
  }
}