{
  "address": "0x9A5cA8E27d17eC708Dba13da2cB077DC9352e761",
  "abi": [
    {
      "inputs": [
        {
          "internalType": "address",
          "name": "_owner",
          "type": "address"
        },
        {
          "internalType": "address",
          "name": "_router",
          "type": "address"
        },
        {
          "internalType": "address",
          "name": "_composableCoW",
          "type": "address"
        },
        {
          "internalType": "address",
          "name": "_settlement",
          "type": "address"
        },
        {
          "internalType": "address",
          "name": "_hooksTrampoline",
          "type": "address"
        }
      ],
      "stateMutability": "nonpayable",
      "type": "constructor"
    },
    {
      "inputs": [
        {
          "internalType": "address",
          "name": "target",
          "type": "address"
        }
      ],
      "name": "AddressEmptyCode",
      "type": "error"
    },
    {
      "inputs": [
        {
          "internalType": "address",
          "name": "account",
          "type": "address"
        }
      ],
      "name": "AddressInsufficientBalance",
      "type": "error"
    },
    {
      "inputs": [],
      "name": "FailedInnerCall",
      "type": "error"
    },
    {
      "inputs": [],
      "name": "HookExecutionFailed",
      "type": "error"
    },
    {
      "inputs": [
        {
          "internalType": "address",
          "name": "expected",
          "type": "address"
        },
        {
          "internalType": "address",
          "name": "actual",
          "type": "address"
        }
      ],
      "name": "InstructionUserMismatch",
      "type": "error"
    },
    {
      "inputs": [],
      "name": "InvalidHandler",
      "type": "error"
    },
    {
      "inputs": [],
      "name": "InvalidOrderState",
      "type": "error"
    },
    {
      "inputs": [],
      "name": "NotHooksTrampoline",
      "type": "error"
    },
    {
      "inputs": [],
      "name": "OrderAlreadyExists",
      "type": "error"
    },
    {
      "inputs": [],
      "name": "OrderNotFound",
      "type": "error"
    },
    {
      "inputs": [
        {
          "internalType": "address",
          "name": "owner",
          "type": "address"
        }
      ],
      "name": "OwnableInvalidOwner",
      "type": "error"
    },
    {
      "inputs": [
        {
          "internalType": "address",
          "name": "account",
          "type": "address"
        }
      ],
      "name": "OwnableUnauthorizedAccount",
      "type": "error"
    },
    {
      "inputs": [],
      "name": "ReentrancyGuardReentrantCall",
      "type": "error"
    },
    {
      "inputs": [
        {
          "internalType": "address",
          "name": "token",
          "type": "address"
        }
      ],
      "name": "SafeERC20FailedOperation",
      "type": "error"
    },
    {
      "inputs": [],
      "name": "Unauthorized",
      "type": "error"
    },
    {
      "inputs": [],
      "name": "ZeroAddress",
      "type": "error"
    },
    {
      "anonymous": false,
      "inputs": [
        {
          "indexed": true,
          "internalType": "bytes32",
          "name": "orderHash",
          "type": "bytes32"
        },
        {
          "indexed": false,
          "internalType": "uint256",
          "name": "chunkIndex",
          "type": "uint256"
        },
        {
          "indexed": false,
          "internalType": "uint256",
          "name": "sellAmount",
          "type": "uint256"
        },
        {
          "indexed": false,
          "internalType": "uint256",
          "name": "buyAmount",
          "type": "uint256"
        }
      ],
      "name": "ChunkExecuted",
      "type": "event"
    },
    {
      "anonymous": false,
      "inputs": [
        {
          "indexed": true,
          "internalType": "address",
          "name": "oldComposableCoW",
          "type": "address"
        },
        {
          "indexed": true,
          "internalType": "address",
          "name": "newComposableCoW",
          "type": "address"
        }
      ],
      "name": "ComposableCoWUpdated",
      "type": "event"
    },
    {
      "anonymous": false,
      "inputs": [
        {
          "indexed": true,
          "internalType": "address",
          "name": "oldTrampoline",
          "type": "address"
        },
        {
          "indexed": true,
          "internalType": "address",
          "name": "newTrampoline",
          "type": "address"
        }
      ],
      "name": "HooksTrampolineUpdated",
      "type": "event"
    },
    {
      "anonymous": false,
      "inputs": [
        {
          "indexed": true,
          "internalType": "bytes32",
          "name": "orderHash",
          "type": "bytes32"
        },
        {
          "indexed": true,
          "internalType": "address",
          "name": "user",
          "type": "address"
        }
      ],
      "name": "OrderCancelled",
      "type": "event"
    },
    {
      "anonymous": false,
      "inputs": [
        {
          "indexed": true,
          "internalType": "bytes32",
          "name": "orderHash",
          "type": "bytes32"
        },
        {
          "indexed": true,
          "internalType": "address",
          "name": "user",
          "type": "address"
        },
        {
          "indexed": false,
          "internalType": "uint256",
          "name": "totalExecuted",
          "type": "uint256"
        }
      ],
      "name": "OrderCompleted",
      "type": "event"
    },
    {
      "anonymous": false,
      "inputs": [
        {
          "indexed": true,
          "internalType": "bytes32",
          "name": "orderHash",
          "type": "bytes32"
        },
        {
          "indexed": true,
          "internalType": "address",
          "name": "user",
          "type": "address"
        },
        {
          "indexed": false,
          "internalType": "address",
          "name": "sellToken",
          "type": "address"
        },
        {
          "indexed": false,
          "internalType": "address",
          "name": "buyToken",
          "type": "address"
        },
        {
          "indexed": false,
          "internalType": "uint256",
          "name": "totalAmount",
          "type": "uint256"
        },
        {
          "indexed": false,
          "internalType": "uint256",
          "name": "chunkSize",
          "type": "uint256"
        }
      ],
      "name": "OrderCreated",
      "type": "event"
    },
    {
      "anonymous": false,
      "inputs": [
        {
          "indexed": true,
          "internalType": "address",
          "name": "oldHandler",
          "type": "address"
        },
        {
          "indexed": true,
          "internalType": "address",
          "name": "newHandler",
          "type": "address"
        }
      ],
      "name": "OrderHandlerUpdated",
      "type": "event"
    },
    {
      "anonymous": false,
      "inputs": [
        {
          "indexed": true,
          "internalType": "address",
          "name": "previousOwner",
          "type": "address"
        },
        {
          "indexed": true,
          "internalType": "address",
          "name": "newOwner",
          "type": "address"
        }
      ],
      "name": "OwnershipTransferred",
      "type": "event"
    },
    {
      "anonymous": false,
      "inputs": [
        {
          "indexed": true,
          "internalType": "bytes32",
          "name": "orderHash",
          "type": "bytes32"
        },
        {
          "indexed": false,
          "internalType": "uint256",
          "name": "chunkIndex",
          "type": "uint256"
        },
        {
          "indexed": false,
          "internalType": "uint256",
          "name": "receivedAmount",
          "type": "uint256"
        }
      ],
      "name": "PostHookExecuted",
      "type": "event"
    },
    {
      "anonymous": false,
      "inputs": [
        {
          "indexed": true,
          "internalType": "bytes32",
          "name": "orderHash",
          "type": "bytes32"
        },
        {
          "indexed": false,
          "internalType": "uint256",
          "name": "chunkIndex",
          "type": "uint256"
        }
      ],
      "name": "PreHookExecuted",
      "type": "event"
    },
    {
      "anonymous": false,
      "inputs": [
        {
          "indexed": true,
          "internalType": "address",
          "name": "oldRouter",
          "type": "address"
        },
        {
          "indexed": true,
          "internalType": "address",
          "name": "newRouter",
          "type": "address"
        }
      ],
      "name": "RouterUpdated",
      "type": "event"
    },
    {
      "inputs": [
        {
          "internalType": "address",
          "name": "token",
          "type": "address"
        }
      ],
      "name": "approveVaultRelayer",
      "outputs": [],
      "stateMutability": "nonpayable",
      "type": "function"
    },
    {
      "inputs": [
        {
          "internalType": "bytes32",
          "name": "orderHash",
          "type": "bytes32"
        }
      ],
      "name": "cancelOrder",
      "outputs": [],
      "stateMutability": "nonpayable",
      "type": "function"
    },
    {
      "inputs": [],
      "name": "composableCoW",
      "outputs": [
        {
          "internalType": "contract IComposableCoW",
          "name": "",
          "type": "address"
        }
      ],
      "stateMutability": "view",
      "type": "function"
    },
    {
      "inputs": [
        {
          "components": [
            {
              "internalType": "address",
              "name": "user",
              "type": "address"
            },
            {
              "internalType": "bytes[]",
              "name": "preInstructionsPerIteration",
              "type": "bytes[]"
            },
            {
              "internalType": "uint256",
              "name": "preTotalAmount",
              "type": "uint256"
            },
            {
              "internalType": "address",
              "name": "sellToken",
              "type": "address"
            },
            {
              "internalType": "address",
              "name": "buyToken",
              "type": "address"
            },
            {
              "internalType": "uint256",
              "name": "chunkSize",
              "type": "uint256"
            },
            {
              "internalType": "uint256",
              "name": "minBuyPerChunk",
              "type": "uint256"
            },
            {
              "internalType": "bytes[]",
              "name": "postInstructionsPerIteration",
              "type": "bytes[]"
            },
            {
              "internalType": "enum KapanOrderManager.CompletionType",
              "name": "completion",
              "type": "uint8"
            },
            {
              "internalType": "uint256",
              "name": "targetValue",
              "type": "uint256"
            },
            {
              "internalType": "uint256",
              "name": "minHealthFactor",
              "type": "uint256"
            },
            {
              "internalType": "bytes32",
              "name": "appDataHash",
              "type": "bytes32"
            },
            {
              "internalType": "bool",
              "name": "isFlashLoanOrder",
              "type": "bool"
            },
            {
              "internalType": "bool",
              "name": "isKindBuy",
              "type": "bool"
            }
          ],
          "internalType": "struct KapanOrderManager.KapanOrderParams",
          "name": "params",
          "type": "tuple"
        },
        {
          "internalType": "bytes32",
          "name": "salt",
          "type": "bytes32"
        },
        {
          "internalType": "uint256",
          "name": "seedAmount",
          "type": "uint256"
        }
      ],
      "name": "createOrder",
      "outputs": [
        {
          "internalType": "bytes32",
          "name": "orderHash",
          "type": "bytes32"
        }
      ],
      "stateMutability": "nonpayable",
      "type": "function"
    },
    {
      "inputs": [
        {
          "internalType": "bytes32",
          "name": "orderHash",
          "type": "bytes32"
        }
      ],
      "name": "executePostHook",
      "outputs": [],
      "stateMutability": "nonpayable",
      "type": "function"
    },
    {
      "inputs": [
        {
          "internalType": "address",
          "name": "user",
          "type": "address"
        },
        {
          "internalType": "bytes32",
          "name": "salt",
          "type": "bytes32"
        }
      ],
      "name": "executePostHookBySalt",
      "outputs": [],
      "stateMutability": "nonpayable",
      "type": "function"
    },
    {
      "inputs": [
        {
          "internalType": "bytes32",
          "name": "orderHash",
          "type": "bytes32"
        }
      ],
      "name": "executePreHook",
      "outputs": [],
      "stateMutability": "nonpayable",
      "type": "function"
    },
    {
      "inputs": [
        {
          "internalType": "address",
          "name": "user",
          "type": "address"
        },
        {
          "internalType": "bytes32",
          "name": "salt",
          "type": "bytes32"
        }
      ],
      "name": "executePreHookBySalt",
      "outputs": [],
      "stateMutability": "nonpayable",
      "type": "function"
    },
    {
      "inputs": [
        {
          "internalType": "bytes32",
          "name": "orderHash",
          "type": "bytes32"
        }
      ],
      "name": "getOrder",
      "outputs": [
        {
          "components": [
            {
              "components": [
                {
                  "internalType": "address",
                  "name": "user",
                  "type": "address"
                },
                {
                  "internalType": "bytes[]",
                  "name": "preInstructionsPerIteration",
                  "type": "bytes[]"
                },
                {
                  "internalType": "uint256",
                  "name": "preTotalAmount",
                  "type": "uint256"
                },
                {
                  "internalType": "address",
                  "name": "sellToken",
                  "type": "address"
                },
                {
                  "internalType": "address",
                  "name": "buyToken",
                  "type": "address"
                },
                {
                  "internalType": "uint256",
                  "name": "chunkSize",
                  "type": "uint256"
                },
                {
                  "internalType": "uint256",
                  "name": "minBuyPerChunk",
                  "type": "uint256"
                },
                {
                  "internalType": "bytes[]",
                  "name": "postInstructionsPerIteration",
                  "type": "bytes[]"
                },
                {
                  "internalType": "enum KapanOrderManager.CompletionType",
                  "name": "completion",
                  "type": "uint8"
                },
                {
                  "internalType": "uint256",
                  "name": "targetValue",
                  "type": "uint256"
                },
                {
                  "internalType": "uint256",
                  "name": "minHealthFactor",
                  "type": "uint256"
                },
                {
                  "internalType": "bytes32",
                  "name": "appDataHash",
                  "type": "bytes32"
                },
                {
                  "internalType": "bool",
                  "name": "isFlashLoanOrder",
                  "type": "bool"
                },
                {
                  "internalType": "bool",
                  "name": "isKindBuy",
                  "type": "bool"
                }
              ],
              "internalType": "struct KapanOrderManager.KapanOrderParams",
              "name": "params",
              "type": "tuple"
            },
            {
              "internalType": "enum KapanOrderManager.OrderStatus",
              "name": "status",
              "type": "uint8"
            },
            {
              "internalType": "uint256",
              "name": "executedAmount",
              "type": "uint256"
            },
            {
              "internalType": "uint256",
              "name": "iterationCount",
              "type": "uint256"
            },
            {
              "internalType": "uint256",
              "name": "createdAt",
              "type": "uint256"
            }
          ],
          "internalType": "struct KapanOrderManager.OrderContext",
          "name": "",
          "type": "tuple"
        }
      ],
      "stateMutability": "view",
      "type": "function"
    },
    {
      "inputs": [
        {
          "internalType": "address",
          "name": "user",
          "type": "address"
        }
      ],
      "name": "getUserOrders",
      "outputs": [
        {
          "internalType": "bytes32[]",
          "name": "",
          "type": "bytes32[]"
        }
      ],
      "stateMutability": "view",
      "type": "function"
    },
    {
      "inputs": [],
      "name": "hooksTrampoline",
      "outputs": [
        {
          "internalType": "address",
          "name": "",
          "type": "address"
        }
      ],
      "stateMutability": "view",
      "type": "function"
    },
    {
      "inputs": [
        {
          "internalType": "bytes32",
          "name": "orderHash",
          "type": "bytes32"
        }
      ],
      "name": "isOrderComplete",
      "outputs": [
        {
          "internalType": "bool",
          "name": "",
          "type": "bool"
        }
      ],
      "stateMutability": "view",
      "type": "function"
    },
    {
      "inputs": [
        {
          "internalType": "bytes32",
          "name": "_hash",
          "type": "bytes32"
        },
        {
          "internalType": "bytes",
          "name": "_signature",
          "type": "bytes"
        }
      ],
      "name": "isValidSignature",
      "outputs": [
        {
          "internalType": "bytes4",
          "name": "",
          "type": "bytes4"
        }
      ],
      "stateMutability": "view",
      "type": "function"
    },
    {
      "inputs": [],
      "name": "orderHandler",
      "outputs": [
        {
          "internalType": "address",
          "name": "",
          "type": "address"
        }
      ],
      "stateMutability": "view",
      "type": "function"
    },
    {
      "inputs": [
        {
          "internalType": "bytes32",
          "name": "",
          "type": "bytes32"
        }
      ],
      "name": "orderSalts",
      "outputs": [
        {
          "internalType": "bytes32",
          "name": "",
          "type": "bytes32"
        }
      ],
      "stateMutability": "view",
      "type": "function"
    },
    {
      "inputs": [
        {
          "internalType": "bytes32",
          "name": "",
          "type": "bytes32"
        }
      ],
      "name": "orders",
      "outputs": [
        {
          "components": [
            {
              "internalType": "address",
              "name": "user",
              "type": "address"
            },
            {
              "internalType": "bytes[]",
              "name": "preInstructionsPerIteration",
              "type": "bytes[]"
            },
            {
              "internalType": "uint256",
              "name": "preTotalAmount",
              "type": "uint256"
            },
            {
              "internalType": "address",
              "name": "sellToken",
              "type": "address"
            },
            {
              "internalType": "address",
              "name": "buyToken",
              "type": "address"
            },
            {
              "internalType": "uint256",
              "name": "chunkSize",
              "type": "uint256"
            },
            {
              "internalType": "uint256",
              "name": "minBuyPerChunk",
              "type": "uint256"
            },
            {
              "internalType": "bytes[]",
              "name": "postInstructionsPerIteration",
              "type": "bytes[]"
            },
            {
              "internalType": "enum KapanOrderManager.CompletionType",
              "name": "completion",
              "type": "uint8"
            },
            {
              "internalType": "uint256",
              "name": "targetValue",
              "type": "uint256"
            },
            {
              "internalType": "uint256",
              "name": "minHealthFactor",
              "type": "uint256"
            },
            {
              "internalType": "bytes32",
              "name": "appDataHash",
              "type": "bytes32"
            },
            {
              "internalType": "bool",
              "name": "isFlashLoanOrder",
              "type": "bool"
            },
            {
              "internalType": "bool",
              "name": "isKindBuy",
              "type": "bool"
            }
          ],
          "internalType": "struct KapanOrderManager.KapanOrderParams",
          "name": "params",
          "type": "tuple"
        },
        {
          "internalType": "enum KapanOrderManager.OrderStatus",
          "name": "status",
          "type": "uint8"
        },
        {
          "internalType": "uint256",
          "name": "executedAmount",
          "type": "uint256"
        },
        {
          "internalType": "uint256",
          "name": "iterationCount",
          "type": "uint256"
        },
        {
          "internalType": "uint256",
          "name": "createdAt",
          "type": "uint256"
        }
      ],
      "stateMutability": "view",
      "type": "function"
    },
    {
      "inputs": [],
      "name": "owner",
      "outputs": [
        {
          "internalType": "address",
          "name": "",
          "type": "address"
        }
      ],
      "stateMutability": "view",
      "type": "function"
    },
    {
      "inputs": [
        {
          "internalType": "address",
          "name": "token",
          "type": "address"
        },
        {
          "internalType": "address",
          "name": "to",
          "type": "address"
        },
        {
          "internalType": "uint256",
          "name": "amount",
          "type": "uint256"
        }
      ],
      "name": "recoverTokens",
      "outputs": [],
      "stateMutability": "nonpayable",
      "type": "function"
    },
    {
      "inputs": [],
      "name": "renounceOwnership",
      "outputs": [],
      "stateMutability": "nonpayable",
      "type": "function"
    },
    {
      "inputs": [],
      "name": "router",
      "outputs": [
        {
          "internalType": "contract IKapanRouter",
          "name": "",
          "type": "address"
        }
      ],
      "stateMutability": "view",
      "type": "function"
    },
    {
      "inputs": [
        {
          "internalType": "address",
          "name": "_composableCoW",
          "type": "address"
        }
      ],
      "name": "setComposableCoW",
      "outputs": [],
      "stateMutability": "nonpayable",
      "type": "function"
    },
    {
      "inputs": [
        {
          "internalType": "address",
          "name": "_hooksTrampoline",
          "type": "address"
        }
      ],
      "name": "setHooksTrampoline",
      "outputs": [],
      "stateMutability": "nonpayable",
      "type": "function"
    },
    {
      "inputs": [
        {
          "internalType": "address",
          "name": "_handler",
          "type": "address"
        }
      ],
      "name": "setOrderHandler",
      "outputs": [],
      "stateMutability": "nonpayable",
      "type": "function"
    },
    {
      "inputs": [
        {
          "internalType": "address",
          "name": "_router",
          "type": "address"
        }
      ],
      "name": "setRouter",
      "outputs": [],
      "stateMutability": "nonpayable",
      "type": "function"
    },
    {
      "inputs": [],
      "name": "settlement",
      "outputs": [
        {
          "internalType": "contract IGPv2Settlement",
          "name": "",
          "type": "address"
        }
      ],
      "stateMutability": "view",
      "type": "function"
    },
    {
      "inputs": [
        {
          "internalType": "address",
          "name": "newOwner",
          "type": "address"
        }
      ],
      "name": "transferOwnership",
      "outputs": [],
      "stateMutability": "nonpayable",
      "type": "function"
    },
    {
      "inputs": [
        {
          "internalType": "address",
          "name": "",
          "type": "address"
        },
        {
          "internalType": "uint256",
          "name": "",
          "type": "uint256"
        }
      ],
      "name": "userOrders",
      "outputs": [
        {
          "internalType": "bytes32",
          "name": "",
          "type": "bytes32"
        }
      ],
      "stateMutability": "view",
      "type": "function"
    },
    {
      "inputs": [
        {
          "internalType": "address",
          "name": "",
          "type": "address"
        },
        {
          "internalType": "bytes32",
          "name": "",
          "type": "bytes32"
        }
      ],
      "name": "userSaltToOrderHash",
      "outputs": [
        {
          "internalType": "bytes32",
          "name": "",
          "type": "bytes32"
        }
      ],
      "stateMutability": "view",
      "type": "function"
    }
  ],
  "transactionHash": "0xc80f6f144539a76bdad1f6d3a91a4ff88830d31dd1947e6b586d39b87d3ebab8",
  "args": [
    "0x0BE61223F99E57b8b8B7033a77B54Adc7f7cF027",
    "0xDe2d996f5C8b37d82d66871F0a8FD12365fA5cEF",
    "0xfdaFc9d1902f4e0b84f65F49f244b32b31013b74",
    "0x9008D19f58AAbD9eD0D60971565AA8510560ab41",
    "0x60Bf78233f48eC42eE3F101b9a05eC7878728006"
  ],
  "numDeployments": 22,
  "solcInputHash": "4c6fff2c071e47929de265af60920696",
  "bytecode": "0x60803461018557601f6135bc38819003918201601f19168301916001600160401b038311848410176101895780849260a094604052833981010312610185576100478161019d565b906100546020820161019d565b916100616040830161019d565b9161007a60806100736060840161019d565b920161019d565b6001600160a01b03909216938415610172575f80546001600160a01b031981168717825560405196916001600160a01b03909116907f8be0079c531659141344cd1fd0a4f28419497f9722a3daafe3b4186f6b6457e09080a3600180556001600160a01b0316928315610163576001600160a01b0316908115610163576001600160a01b0316918215610163576001600160a01b03169283156101635760018060a01b0319600254161760025560018060a01b0319600354161760035560018060a01b0319600454161760045560018060a01b0319600554161760055561340a90816101b28239f35b63d92e233d60e01b5f5260045ffd5b631e4fbdf760e01b5f525f60045260245ffd5b5f80fd5b634e487b7160e01b5f52604160045260245ffd5b51906001600160a01b03821682036101855756fe60806040526004361015610011575f80fd5b5f5f3560e01c80631626ba7e146119435780632fbff5a4146118ed578063304d313e1461186b578063507f0e741461184157806351160630146118195780635778472a146116d55780635f3e849f1461168857806363c69f08146115fe5780636edd27ff146115cb578063715018a6146115875780637489ec231461127a5780638009fb6a1461121857806381e6d3ce146111ef578063856652e9146111985780638b0f48341461116f5780638da5cb5b14611148578063988ccc16146110d35780639c3f1e9014611056578063b58483051461102d578063c0d7865514610fb8578063c73bb4bd14610efe578063caf2185614610ed9578063cea4b43614610e96578063d08bdbf31461029c578063d7a3aca714610218578063e0b787e4146101ec578063f2fde38b146101795763f887ea401461014e575f80fd5b346101765780600319360112610176576002546040516001600160a01b039091168152602090f35b80fd5b5034610176576020366003190112610176576101936119b2565b61019b612e60565b6001600160a01b031680156101d85781546001600160a01b03198116821783556001600160a01b03165f5160206133b55f395f51905f528380a380f35b631e4fbdf760e01b82526004829052602482fd5b5034610176576020366003190112610176576102066125d5565b610211600435612f5e565b6001805580f35b5034610176576020366003190112610176576102326119b2565b61023a612e60565b6001600160a01b0316801561028d57600680546001600160a01b0319811683179091556001600160a01b03167f7bf6e789688cd776b5170517f39970fea2870a79d649c8443dd2b0ec62823eb78380a380f35b63d92e233d60e01b8252600482fd5b5034610176576060366003190112610176576001600160401b0360043511610176576101c060043536036003190112610176576102d76125d5565b6102e5600435600401612462565b336001600160a01b0390911603610e88576006546001600160a01b031615610e7957604051606060208201908152906001600160a01b0361032960048035016119c8565b1660808201526103dd61035c610349602460043501600435600401612476565b6101c060a08601526102408501916124ab565b600435604481013560c08501526001600160a01b039061037e906064016119c8565b1660e08401526001600160a01b0361039a6004356084016119c8565b166101008401526004803560a481013561012086015260c48101356101408601526103ca9160e482019101612476565b848303607f1901610160860152906124ab565b6004610104813501351015610a74578161047c916104016101046004350135611a58565b6004356101048101356101808401526101248101356101a08401526101448101356101c08401526101648101356101e08401526104419061018401611e7c565b15156102008301526104586101a460043501611e7c565b1515610220830152602435604083015242606083015203601f198101835282611c44565b519020808252600760205260ff600d6040842001541661049b81611a58565b610e6a57604435610e12575b604051906104b482611ba7565b6040516104c081611bd6565b6104ce6004356004016119c8565b81526001600160401b036004356024013511610a74576104f8366004803560248101350101612541565b60208201526044600435013560408201526105176064600435016119c8565b606082015261052a6084600435016119c8565b608082015260043560a481013560a083015260c481013560c083015260e401356001600160401b038111610e0e57610569906004369181350101612541565b60e08201526004356101048101356101008301526101248101356101208301526101448101356101408301526101648101356101608301526105ae9061018401611e7c565b6101808201526105c36101a460043501611e7c565b6101a08201528252600160208084018281526040808601878152606087018881524260808901908152878a52600786529289209751805189546001600160a01b0319166001600160a01b0391909116178955948501518051959896939591949293870190600160401b8311610c76578154838355808410610d90575b50602001908a5260208a208a915b838310610c8a57505050506040870151600286015560608701516003860180546001600160a01b039283166001600160a01b031991821617909155608089015160048801805491909316911617905560a0870151600586015560c0870151600686015560e0870151805197906007870190600160401b8a11610c765781548a8355808b10610bf8575b50602001908a5260208a208a915b8a8310610ac7575050508596975060086010960161010082015161070781611a58565b61071081611a58565b60ff801983541691161790556101208101516009880155610140810151600a880155610160810151600b880155600c87019061018081015115159060ff61ff006101a08554930151151560081b1692169061ffff191617179055600d8601905161077981611a58565b61078281611a58565b60ff8019835416911617905551600e85015551600f840155519101558082526008602052602435604083205560018060a01b036107c3600435600401612462565b168252600960205260408220805490600160401b821015610ab357906107ee91600182018155611b7e565b81545f1960039290921b91821b19169083901b1790556001600160a01b036108196004803501612462565b168252600a6020526040822060243583526020528060408320558160018060a01b036006541660405183602082015260208152610857604082611c44565b6040519161086483611bf2565b8252602435602083015260408201526003546001600160a01b0316803b15610aaf576108b283929183926040519485809481936335fd70e560e11b8352604060048401526044830190611f5e565b6001602483015203925af18015610aa457610a8b575b505060046108d96064823501612462565b8154604051634daa966160e11b81529260209184919082906001600160a01b03165afa918215610a80578492610a40575b50604051636eb1769f60e11b81523060048201526001600160a01b038381166024830152909491169190602085604481865afa908115610a3457906109fd575b602094506001600160ff1b03116109ed575b505061096c600435600401612462565b817f961e6438a987eab19d9850691e56ca64f442dbb689801b0f3cfc1381c98ed15e608061099e606460043501612462565b936109ad608460043501612462565b604080516001600160a01b0397881681529187168983015260043560448101359183019190915260a401356060820152941693a360018055604051908152f35b6109f6916130e5565b5f8061095c565b506020843d602011610a2c575b81610a1760209383611c44565b81010312610a28576020935161094a565b5f80fd5b3d9150610a0a565b604051903d90823e3d90fd5b9091506020813d602011610a78575b81610a5c60209383611c44565b81010312610a7457610a6d90611eea565b905f61090a565b8380fd5b3d9150610a4f565b6040513d86823e3d90fd5b81610a9591611c44565b610aa057815f6108c8565b5080fd5b6040513d84823e3d90fd5b8280fd5b634e487b7160e01b84526041600452602484fd5b80518051906001600160401b038211610be4578d90610ae68554611c7e565b601f8111610ba9575b50602091601f8411600114610b41578360019592946020948796610b279492610b36575b50508160011b915f199060031b1c19161790565b85555b019201920191906106e4565b015190505f80610b13565b9190601f198416868452828420935b818110610b915750936020936001969387969383889510610b79575b505050811b018555610b2a565b01515f1960f88460031b161c191690555f8080610b6c565b92936020600181928786015181550195019301610b50565b610bd49086845260208420601f860160051c81019160208710610bda575b601f0160051c01906125bf565b5f610aef565b9091508190610bc7565b634e487b7160e01b8e52604160045260248efd5b828c528a60208d2091820191015b8c828210610c155750506106d6565b9080600192610c248254611c7e565b80610c33575b50505001610c06565b601f81118514610c4c575050508d81555b808e5f610c2a565b82825260208220610c6791601f0160051c81019086016125bf565b528d6020812081835555610c44565b634e487b7160e01b8b52604160045260248bfd5b80518051906001600160401b038211610be4578d90610ca98554611c7e565b601f8111610d60575b50602091601f8411600114610cf8578360019592946020948796610ce99492610b365750508160011b915f199060031b1c19161790565b85555b0192019201919061064d565b9190601f198416868452828420935b818110610d485750936020936001969387969383889510610d30575b505050811b018555610cec565b01515f1960f88460031b161c191690555f8080610d23565b92936020600181928786015181550195019301610d07565b610d8a9086845260208420601f860160051c81019160208710610bda57601f0160051c01906125bf565b5f610cb2565b828c528360208d2091820191015b8c828210610dad57505061063f565b9080600192610dbc8254611c7e565b80610dcb575b50505001610d9e565b601f81118514610de4575050508d81555b808e5f610dc2565b82825260208220610dff91601f0160051c81019086016125bf565b528d6020812081835555610ddc565b8480fd5b610e656001600160a01b03610e2b600435606401612462565b16604051906323b872dd60e01b6020830152336024830152306044830152604435606483015260648252610e60608483611c44565b6132b4565b6104a7565b63966753c560e01b8252600482fd5b63d8f59fa560e01b8152600490fd5b6282b42960e81b8152600490fd5b5034610176576040366003190112610176576020906040906001600160a01b03610ebe6119b2565b168152600a8352818120602435825283522054604051908152f35b503461017657602036600319011261017657610ef36125d5565b61021160043561284e565b503461017657602036600319011261017657610f186119b2565b610f20612e60565b6001600160a01b0316801561028d5760048054604051634daa966160e11b8152929160209184919082906001600160a01b03165afa908115610fad578391610f70575b610f6d92506130e5565b80f35b90506020823d602011610fa5575b81610f8b60209383611c44565b81010312610aaf57610f9f610f6d92611eea565b90610f63565b3d9150610f7e565b6040513d85823e3d90fd5b503461017657602036600319011261017657610fd26119b2565b610fda612e60565b6001600160a01b0316801561028d57600280546001600160a01b0319811683179091556001600160a01b03167f02dc5c233404867c793b749c6d644beb2277536d18a7e7974d3f238e4c6f16848380a380f35b50346101765780600319360112610176576006546040516001600160a01b039091168152602090f35b50346101765760203660031901126101765760406110b191600435815260076020522061108281611dab565b9060ff600d8201541690600e810154906010600f8201549101549160405195869560a0875260a0870190611a76565b936110bb81611a58565b60208601526040850152606084015260808301520390f35b5034610176576020366003190112610176576110ed6119b2565b6110f5612e60565b6001600160a01b0316801561028d57600380546001600160a01b0319811683179091556001600160a01b03167f5ee1511014357e81e6a0e8a9bf9d80be6c56a0922d067518ddc6f7a2f6eb7bd68380a380f35b5034610176578060031936011261017657546040516001600160a01b039091168152602090f35b50346101765780600319360112610176576003546040516001600160a01b039091168152602090f35b5034610176576040366003190112610176576111b26119b2565b6001600160a01b03168152600960205260408120805460243592908310156101765760206111e08484611b7e565b90549060031b1c604051908152f35b50346101765780600319360112610176576005546040516001600160a01b039091168152602090f35b5034610176576040366003190112610176576112326119b2565b61123a6125d5565b6001600160a01b03168152600a602090815260408083206024358452909152812054801561126b5761021190612f5e565b63d36d896560e01b8252600482fd5b5034610a28576020366003190112610a28576004356112976125d5565b805f52600760205260405f20600d8101805460ff81166112b681611a58565b80156115785783546001600160a01b0316330361156a576001906112d981611a58565b0361155b5760039060ff191617905560018060a01b036003541661135f602060018060a01b0360065416855f526008825260405f2054604051908784830152838252611326604083611c44565b6040519261133384611bf2565b835283830152604082015260405180938192635500079d60e01b83528460048401526024830190611f5e565b0381855afa90811561151e575f91611529575b50813b15610a28575f916024839260405194859384926395bc267360e01b845260048401525af1801561151e57611509575b5060038101546040516370a0823160e01b81523060048201526001600160a01b0390911690602081602481855afa9081156114ae5785916114d7575b50806114b9575b50506004818101546040516370a0823160e01b815230928101929092526001600160a01b0316602082602481845afa9182156114ae57859261147a575b508161145b575b50505033907fa6eb7cdc219e1518ced964e9a34e61d68a94e4f1569db3e84256ba981ba527538380a36001805580f35b9154611472926001600160a01b0390911690612ea1565b5f808061142b565b9091506020813d6020116114a6575b8161149660209383611c44565b81010312610a285751905f611424565b3d9150611489565b6040513d87823e3d90fd5b82546114d0926001600160a01b0390911690612ea1565b5f806113e7565b90506020813d602011611501575b816114f260209383611c44565b81010312610a2857515f6113e0565b3d91506114e5565b6115169193505f90611c44565b5f915f6113a4565b6040513d5f823e3d90fd5b90506020813d602011611553575b8161154460209383611c44565b81010312610a2857515f611372565b3d9150611537565b632b12537f60e21b5f5260045ffd5b6282b42960e81b5f5260045ffd5b63d36d896560e01b5f5260045ffd5b34610a28575f366003190112610a285761159f612e60565b5f80546001600160a01b0319811682556001600160a01b03165f5160206133b55f395f51905f528280a3005b34610a28576020366003190112610a28576004355f52600760205260206115f460405f20612ed6565b6040519015158152f35b34610a28576020366003190112610a28576001600160a01b0361161f6119b2565b165f52600960205260405f206040519081602082549182815201915f5260205f20905f5b8181106116725761166e8561165a81870382611c44565b604051918291602083526020830190611b4b565b0390f35b8254845260209093019260019283019201611643565b34610a28576060366003190112610a28576116a16119b2565b602435906001600160a01b0382168203610a28576116d3916116c1612e60565b604435916001600160a01b0316612ea1565b005b34610a28576020366003190112610a28575f60806040516116f581611ba7565b60405161170181611bd6565b8381526060602082015283604082015283606082015283838201528360a08201528360c0820152606060e08201528361010082015283610120820152836101408201528361016082015283610180820152836101a0820152815282602082015282604082015282606082015201526004355f5260076020526117f360405f206040519061178d82611ba7565b61179681611dab565b825260ff600d820154169060208301916117af81611a58565b8252600e81015490604084019182526010600f820154916060860192835201549160808501928352604051958695602087525160a0602088015260c0870190611a76565b93516117fe81611a58565b60408601525160608501525160808401525160a08301520390f35b34610a28575f366003190112610a28576004546040516001600160a01b039091168152602090f35b34610a28576020366003190112610a28576004355f526008602052602060405f2054604051908152f35b34610a28576020366003190112610a28576118846119b2565b61188c612e60565b6001600160a01b031680156118de57600580546001600160a01b0319811683179091556001600160a01b03167fbdce5776902fb6aa0ba780ce23fc8392c2014d41efaeaa287d6b06ef28fe5cb05f80a3005b63d92e233d60e01b5f5260045ffd5b34610a28576040366003190112610a28576119066119b2565b61190e6125d5565b60018060a01b03165f52600a60205260405f206024355f5260205260405f205480156115785761193d9061284e565b60018055005b34610a28576040366003190112610a28576024356001600160401b038111610a285736602382011215610a28576004810135906001600160401b038211610a28573660248383010111610a2857602091602461199f9201611f8d565b6040516001600160e01b03199091168152f35b600435906001600160a01b0382168203610a2857565b35906001600160a01b0382168203610a2857565b805180835260209291819084018484015e5f828201840152601f01601f1916010190565b9080602083519182815201916020808360051b8301019401925f915b838310611a2b57505050505090565b9091929394602080611a49600193601f1986820301875289516119dc565b97019301930191939290611a1c565b60041115611a6257565b634e487b7160e01b5f52602160045260245ffd5b9060018060a01b0382511681526101a080611af9611aa560208601516101c060208701526101c0860190611a00565b6040860151604086015260018060a01b03606087015116606086015260018060a01b03608087015116608086015260a086015160a086015260c086015160c086015260e086015185820360e0870152611a00565b93610100810151611b0981611a58565b61010085015261012081015161012085015261014081015161014085015261016081015161016085015261018081015115156101808501520151151591015290565b90602080835192838152019201905f5b818110611b685750505090565b8251845260209384019390920191600101611b5b565b8054821015611b93575f5260205f2001905f90565b634e487b7160e01b5f52603260045260245ffd5b60a081019081106001600160401b03821117611bc257604052565b634e487b7160e01b5f52604160045260245ffd5b6101c081019081106001600160401b03821117611bc257604052565b606081019081106001600160401b03821117611bc257604052565b61018081019081106001600160401b03821117611bc257604052565b604081019081106001600160401b03821117611bc257604052565b601f909101601f19168101906001600160401b03821190821017611bc257604052565b6001600160401b038111611bc25760051b60200190565b90600182811c92168015611cac575b6020831014611c9857565b634e487b7160e01b5f52602260045260245ffd5b91607f1691611c8d565b9060405191825f825492611cc984611c7e565b8084529360018116908115611d345750600114611cf0575b50611cee92500383611c44565b565b90505f9291925260205f20905f915b818310611d18575050906020611cee928201015f611ce1565b6020919350806001915483858901015201910190918492611cff565b905060209250611cee94915060ff191682840152151560051b8201015f611ce1565b908154611d6281611c67565b92611d706040519485611c44565b81845260208401905f5260205f205f915b838310611d8e5750505050565b600160208192611d9d85611cb6565b815201920192019190611d81565b90604051611db881611bd6565b6101a060ff600c839560018060a01b038154168552611dd960018201611d56565b60208601526002810154604086015260038101546001600160a01b0390811660608701526004820154166080860152600581015460a0860152600681015460c0860152611e2860078201611d56565b60e086015282600882015416611e3d81611a58565b6101008601526009810154610120860152600a810154610140860152600b8101546101608601520154818116151561018085015260081c161515910152565b35908115158203610a2857565b6001600160401b038111611bc257601f01601f191660200190565b81601f82011215610a2857803590611ebb82611e89565b92611ec96040519485611c44565b82845260208383010111610a2857815f926020809301838601378301015290565b51906001600160a01b0382168203610a2857565b51908115158203610a2857565b929192611f1782611e89565b91611f256040519384611c44565b829481845281830111610a28578281602093845f96015e010152565b9080601f83011215610a28578151611f5b92602001611f0b565b90565b9060606040611f5b9360018060a01b0381511684526020810151602085015201519181604082015201906119dc565b9081018181036101a08112610a285761018013610a285760405191611fb183611c0d565b611fba816119c8565b8352611fc8602082016119c8565b9260208101938452611fdc604083016119c8565b604082019081526060820160608401358152608083016080850135815260a085013563ffffffff81168103610a285760a085015260c0840160c0860135815260e085019160e0870135835261010086019361010088013585526120426101208901611e7c565b9561012088019687526101408801976101408a013589526101608101996101608101358b526101808101359060018060401b038211610a2857019a60608c820312610a28576040519b6120948d611bf2565b80356001600160401b038111610a2857810182601f82011215610a28578035906120bd82611c67565b916120cb6040519384611c44565b80835260208084019160051b83010191858311610a2857602001905b828210612452575050508d5260208101356001600160401b038111610a2857810191606083820312610a28576040519261212084611bf2565b80356001600160a01b0381168103610a28578452602081810135908501526040810135906001600160401b038211610a28578f90836020936121629201611ea4565b604086015201928352604082013560018060401b038111610a28578e92019061218a91611ea4565b604081920152600160a01b600190036003541691519c519c6040519d8e92839263137050cb60e11b84523060048501526024840160809052608484016121cf91611f5e565b8381036003190160448501526121e4916119dc565b8281036003190160648401526121f991611b4b565b03815a935f94fa5f9b81612355575b5061222657506001600160e01b03199b9a5050505050505050505050565b518a516001600160a01b039081169116149a8b612339575b508a61231d575b508961230e575b50886122ff575b50876122f0575b50866122e1575b50856122d1575b50846122bc575b50836122ac575b508261229a575b505061228f576001600160e01b031990565b630b135d3f60e11b90565b61016091925051910151145f8061227d565b516101408301511492505f612276565b5161012084015115159015151493505f61226f565b516101008501511494505f612268565b5160e08601511495505f612261565b5160c08701511496505f61225a565b5160808801511497505f612253565b5160608901511498505f61224c565b5160408a01516001600160a01b0390811691161499505f612245565b5160208b01516001600160a01b039081169116149a505f61223e565b909b503d805f833e6123678183611c44565b8101908082036101a08112610a285761018013610a28576040519161238b83611c0d565b61239482611eea565b83526123a260208301611eea565b60208401526123b360408301611eea565b6040840152606082015160608401526080820151608084015260a082015163ffffffff81168103610a285760a084015260c082015160c084015260e082015160e08401526101008201516101008401526124106101208301611efe565b610120840152610140828101519084015261016080830151908401526101808201516001600160401b038111610a285761244a9201611f41565b509a5f612208565b81358152602091820191016120e7565b356001600160a01b0381168103610a285790565b9035601e1982360301811215610a28570160208101919035906001600160401b038211610a28578160051b36038313610a2857565b90602083828152019060208160051b85010193835f915b8383106124d25750505050505090565b909192939495601f198282030186528635601e1984360301811215610a28578301602081019190356001600160401b038111610a28578036038313610a28576020828280600196849695859652848401375f828201840152601f01601f191601019801960194930191906124c2565b9080601f83011215610a2857813561255881611c67565b926125666040519485611c44565b81845260208085019260051b82010191838311610a285760208201905b83821061259257505050505090565b81356001600160401b038111610a28576020916125b487848094880101611ea4565b815201910190612583565b8181106125ca575050565b5f81556001016125bf565b6002600154146125e6576002600155565b633ee5aeb560e01b5f5260045ffd5b602081830312610a28578051906001600160401b038211610a2857019080601f83011215610a285781519161262983611c67565b926126376040519485611c44565b80845260208085019160051b83010191838311610a285760208101915b83831061266357505050505090565b82516001600160401b038111610a28578201906040828703601f190112610a28576040519061269182611c29565b60208301516001600160401b038111610a285760209084010187601f82011215610a2857878160206126c593519101611f0b565b82526040830151916001600160401b038311610a28576126ed88602080969581960101611f41565b83820152815201920191612654565b9061270682611c67565b6127136040519182611c44565b8281528092612724601f1991611c67565b01905f5b82811061273457505050565b60209060405161274381611c29565b6060815260608382015282828501015201612728565b60405190612768604083611c44565b60068252653937baba32b960d11b6020830152565b805115611b935760200190565b805160011015611b935760400190565b8051821015611b935760209160051b010190565b919082039182116127bb57565b634e487b7160e01b5f52601160045260245ffd5b602081016020825282518091526040820191602060408360051b8301019401925f915b83831061280157505050505090565b909192939460208061283f600193603f198682030187528951908361282f83516040845260408401906119dc565b92015190848184039101526119dc565b970193019301919392906127f2565b6005545f9291906001600160a01b03163303612e5157805f52600760205260405f2091600d830191600160ff84541661288681611a58565b0361155b57600f84016128af6128a08254600788016131d2565b602080825183010191016125f5565b9360ff600c87015460081c165f14612d1c576003860180546040516370a0823160e01b815230600482015291986001600160a01b039091169290602083602481875afa92831561151e575f93612ce8575b5061290f8360058b01546127ae565b9260068a0154948180612cc9575b505060048a8101546040516370a0823160e01b815230928101929092526001600160a01b031690602081602481855afa90811561151e575f91612c97575b5080612bae575b5050885190600282018092116127bb5761297e6129ca926126fc565b9b546001600160a01b0316908c6129ba6129988489613281565b91604051926129a684611c29565b6129ae612759565b8452602084015261277d565b526129c48d61277d565b50613281565b604051906129d782611c29565b6129df612759565b825260208201526129ef8b61278a565b526129f98a61278a565b505f5b8851811015612a3d57612a0f818a61279a565b519060028101918282116127bb5782612a3691612a2f8f9560019661279a565b528d61279a565b50016129fc565b5092959890939650969093965b6002546001600160a01b0316803b15610a285760405163f0dbeea560e01b8152915f918391829084908290612a8290600483016127cf565b03925af1801561151e57612b99575b50600e810193845494818601809611612b855785905586545f198114612b8557928892837f2fe16d47ffa3738e1c53765ec8dcbe2adbce46d0899a775de9b539572cfd864f606060409a989560017f5b19a0b08bbd8e7537d63d9f1db0947c5eba6d93e02a7e0a1520ea5f29bd644c9d9b9901809b558b51908b82526020820152898c820152a2612b2181612ed6565b612b38575b505050505082519182526020820152a2565b825460ff1916600217909255505485519283526001600160a01b0316917fc05078bb1894dee4a12f4b4f2822aa8625022f271aee8bffc64c6621f84c4d9490602090a35f85818080612b26565b634e487b7160e01b84526011600452602484fd5b612ba69192505f90611c44565b5f905f612a91565b60018060a01b0360025416915f8060405193612bee85612be0602082019363095ea7b360e01b85528960248401612e86565b03601f198101875286611c44565b84519082855af1612bfd613327565b81612c60575b5080612c56575b15612c16575b50612962565b610e60612c4e936040519063095ea7b360e01b602083015260248201525f604482015260448152612c48606482611c44565b826132b4565b5f8080612c10565b50803b1515612c0a565b8051801592508215612c75575b50505f612c03565b8192509060209181010312610a28576020612c909101611efe565b5f80612c6d565b90506020813d602011612cc1575b81612cb260209383611c44565b81010312610a2857515f61295b565b3d9150612ca5565b600254612ce1926001600160a01b0390911690612ea1565b5f8161291d565b9092506020813d602011612d14575b81612d0460209383611c44565b81010312610a285751915f612900565b3d9150612cf7565b95600486019660018060a01b0388541690604051926370a0823160e01b8452306004850152602084602481865afa93841561151e575f94612e1d575b5083612d758160058c01549560018060a01b036002541690612ea1565b885190600182018092116127bb57612d8f612da0926126fc565b9b546001600160a01b031690613281565b60405190612dad82611c29565b612db5612759565b82526020820152612dc58b61277d565b52612dcf8a61277d565b505f5b8851811015612e0c57612de5818a61279a565b519060018101918282116127bb5782612e0591612a2f8f9560019661279a565b5001612dd2565b509295989093965096909396612a4a565b9093506020813d602011612e49575b81612e3960209383611c44565b81010312610a285751925f612d58565b3d9150612e2c565b631cb3967f60e21b5f5260045ffd5b5f546001600160a01b03163303612e7357565b63118cdaa760e01b5f523360045260245ffd5b6001600160a01b039091168152602081019190915260400190565b610e60611cee9392612ec860405194859263a9059cbb60e01b602085015260248401612e86565b03601f198101845283611c44565b60ff600882015416612ee781611a58565b60028114612f4e57612ef881611a58565b60018114612f2257612f0981611a58565b15612f1357505f90565b6002600e820154910154111590565b50612f366002820154600e830154906127ae565b8015918215612f4457505090565b6005015411919050565b506009600f820154910154111590565b6005549091906001600160a01b03163303612e5157815f52600760205260405f2091600160ff600d85015416612f9381611a58565b0361155b57600f830191612fae6128a08454600187016131d2565b918251600181018091116127bb57612fc8612fe2916126fc565b95600581015490600360018060a01b039101541690613281565b60405190612fef82611c29565b612ff7612759565b825260208201526130078661277d565b526130118561277d565b505f5b835181101561305457613027818561279a565b519060018101918282116127bb578261304d916130466001958b61279a565b528861279a565b5001613014565b5060025491949093909250906001600160a01b0316803b15610a285760405163f0dbeea560e01b8152925f91849182908490829061309590600483016127cf565b03925af190811561151e577fed6ad11a587c194b3ad43896e949cb9a05975419926eda9b6b571d1847c9a7aa926020926130d5575b5054604051908152a2565b5f6130df91611c44565b5f6130ca565b60405163095ea7b360e01b602082019081526001600160a01b03909316602482018190525f19604480840191909152825292909190613125606484611c44565b82516001600160a01b038316915f91829182855af190613143613327565b82613198575b508161318d575b501561315b57505050565b610e60611cee936040519063095ea7b360e01b602083015260248201525f604482015260448152612c48606482611c44565b90503b15155f613150565b805191925081159182156131b0575b5050905f613149565b8192509060209181010312610a285760206131cb9101611efe565b5f806131a7565b90606082549081156132165750808210156131fc5750611f5b916131f69190611b7e565b50611cb6565b5f198101915081116127bb57611f5b916131f69190611b7e565b9250505060405190613229602083611c44565b5f82525f90815b82811061325e57505050611f5b61325091604051928391602083016127cf565b03601f198101835282611c44565b60209060405161326d81611c29565b838152838382015282828701015201613230565b9060405191602083015260018060a01b031660408201525f60608201526003608082015260808152611f5b60a082611c44565b5f806132dc9260018060a01b03169360208151910182865af16132d5613327565b9083613356565b8051908115159182613304575b50506132f25750565b635274afe760e01b5f5260045260245ffd5b8192509060209181010312610a2857602061331f9101611efe565b155f806132e9565b3d15613351573d9061333882611e89565b916133466040519384611c44565b82523d5f602084013e565b606090565b9061337a575080511561336b57805190602001fd5b630a12f52160e11b5f5260045ffd5b815115806133ab575b61338b575090565b639996b31560e01b5f9081526001600160a01b0391909116600452602490fd5b50803b1561338356fe8be0079c531659141344cd1fd0a4f28419497f9722a3daafe3b4186f6b6457e0a2646970667358221220bc12f963a850eda18ae752543dc62f90672f985c419919ed9ddeee72d4c3701e64736f6c634300081e0033",
  "devdoc": {
    "details": "Singleton contract that holds order context and executes hooks",
    "errors": {
      "AddressEmptyCode(address)": [
        {
          "details": "There's no code at `target` (it is not a contract)."
        }
      ],
      "AddressInsufficientBalance(address)": [
        {
          "details": "The ETH balance of the account is not enough to perform the operation."
        }
      ],
      "FailedInnerCall()": [
        {
          "details": "A call to an address target failed. The target may have reverted."
        }
      ],
      "OwnableInvalidOwner(address)": [
        {
          "details": "The owner is not a valid owner account. (eg. `address(0)`)"
        }
      ],
      "OwnableUnauthorizedAccount(address)": [
        {
          "details": "The caller account is not authorized to perform an operation."
        }
      ],
      "ReentrancyGuardReentrantCall()": [
        {
          "details": "Unauthorized reentrant call."
        }
      ],
      "SafeERC20FailedOperation(address)": [
        {
          "details": "An operation with an ERC20 token failed."
        }
      ]
    },
    "kind": "dev",
    "methods": {
      "cancelOrder(bytes32)": {
        "params": {
          "orderHash": "The order to cancel"
        }
      },
      "createOrder((address,bytes[],uint256,address,address,uint256,uint256,bytes[],uint8,uint256,uint256,bytes32,bool,bool),bytes32,uint256)": {
        "details": "User must approve this contract to pull seedAmount of sellToken before calling",
        "params": {
          "params": "The order parameters",
          "salt": "Unique salt for the order",
          "seedAmount": "Amount of sell tokens to pull from user for first chunk (0 to skip)"
        },
        "returns": {
          "orderHash": "The hash identifying this order"
        }
      },
      "executePostHook(bytes32)": {
        "details": "Prepends a ToOutput instruction with the actual received amount, so all      stored instructions can reference index 0 for the swap output",
        "params": {
          "orderHash": "The order being settled"
        }
      },
      "executePostHookBySalt(address,bytes32)": {
        "details": "Allows pre-computing appData before order creation",
        "params": {
          "salt": "The order salt (known before tx)",
          "user": "The order owner"
        }
      },
      "executePreHook(bytes32)": {
        "details": "Prepends a ToOutput instruction with chunkSize, so all stored instructions      can reference index 0 for the chunk amount. Chunk index is read from iterationCount.",
        "params": {
          "orderHash": "The order being settled"
        }
      },
      "executePreHookBySalt(address,bytes32)": {
        "details": "Allows pre-computing appData before order creation. Chunk index is determined      from the order's iterationCount, so the same appData works for all chunks.",
        "params": {
          "salt": "The order salt (known before tx)",
          "user": "The order owner"
        }
      },
      "isValidSignature(bytes32,bytes)": {
        "details": "For non-Safe ERC-1271 contracts, ComposableCoW returns signature as:      abi.encode(GPv2Order.Data, PayloadStruct)      We decode this and verify the order matches what the handler generates."
      },
      "owner()": {
        "details": "Returns the address of the current owner."
      },
      "renounceOwnership()": {
        "details": "Leaves the contract without owner. It will not be possible to call `onlyOwner` functions. Can only be called by the current owner. NOTE: Renouncing ownership will leave the contract without an owner, thereby disabling any functionality that is only available to the owner."
      },
      "transferOwnership(address)": {
        "details": "Transfers ownership of the contract to a new account (`newOwner`). Can only be called by the current owner."
      }
    },
    "stateVariables": {
      "ROUTER_PROTOCOL_HASH": {
        "details": "Constant hash for \"router\" protocol name comparison"
      }
    },
    "title": "KapanOrderManager",
    "version": 1
  },
  "userdoc": {
    "kind": "user",
    "methods": {
      "approveVaultRelayer(address)": {
        "notice": "Approve vault relayer to spend a token"
      },
      "cancelOrder(bytes32)": {
        "notice": "Cancel an active order and refund any remaining seed tokens"
      },
      "composableCoW()": {
        "notice": "The ComposableCoW contract for order registration"
      },
      "createOrder((address,bytes[],uint256,address,address,uint256,uint256,bytes[],uint8,uint256,uint256,bytes32,bool,bool),bytes32,uint256)": {
        "notice": "Create a new CoW order with seed tokens for first chunk"
      },
      "executePostHook(bytes32)": {
        "notice": "Execute post-hook (called by HooksTrampoline during CoW settlement)"
      },
      "executePostHookBySalt(address,bytes32)": {
        "notice": "Execute post-hook using (user, salt) lookup"
      },
      "executePreHook(bytes32)": {
        "notice": "Execute pre-hook (called by HooksTrampoline during CoW settlement)"
      },
      "executePreHookBySalt(address,bytes32)": {
        "notice": "Execute pre-hook using (user, salt) lookup"
      },
      "getOrder(bytes32)": {
        "notice": "Get order context"
      },
      "getUserOrders(address)": {
        "notice": "Get user's orders"
      },
      "hooksTrampoline()": {
        "notice": "The HooksTrampoline contract (caller for hooks)"
      },
      "isOrderComplete(bytes32)": {
        "notice": "Check if an order is complete based on completion criteria"
      },
      "isValidSignature(bytes32,bytes)": {
        "notice": "Verify signature for CoW Protocol orders"
      },
      "orderHandler()": {
        "notice": "The KapanOrderHandler for generating orders"
      },
      "orderSalts(bytes32)": {
        "notice": "Salt used for each order (for ComposableCoW cancellation)"
      },
      "orders(bytes32)": {
        "notice": "Order contexts by order hash"
      },
      "recoverTokens(address,address,uint256)": {
        "notice": "Recover stuck tokens (owner only)"
      },
      "router()": {
        "notice": "The KapanRouter for executing lending operations"
      },
      "settlement()": {
        "notice": "The GPv2Settlement contract"
      },
      "userOrders(address,uint256)": {
        "notice": "User's active orders"
      },
      "userSaltToOrderHash(address,bytes32)": {
        "notice": "Lookup order hash by (user, salt) - enables pre-computing appData"
      }
    },
    "notice": "Manages CoW Protocol orders for Kapan, acting as ERC-1271 signer",
    "version": 1
  },
  "storageLayout": {
    "storage": [
      {
        "astId": 8,
        "contract": "contracts/v2/cow/KapanOrderManager.sol:KapanOrderManager",
        "label": "_owner",
        "offset": 0,
        "slot": "0",
        "type": "t_address"
      },
      {
        "astId": 845,
        "contract": "contracts/v2/cow/KapanOrderManager.sol:KapanOrderManager",
        "label": "_status",
        "offset": 0,
        "slot": "1",
        "type": "t_uint256"
      },
      {
        "astId": 1665,
        "contract": "contracts/v2/cow/KapanOrderManager.sol:KapanOrderManager",
        "label": "router",
        "offset": 0,
        "slot": "2",
        "type": "t_contract(IKapanRouter)1552"
      },
      {
        "astId": 1669,
        "contract": "contracts/v2/cow/KapanOrderManager.sol:KapanOrderManager",
        "label": "composableCoW",
        "offset": 0,
        "slot": "3",
        "type": "t_contract(IComposableCoW)3794"
      },
      {
        "astId": 1673,
        "contract": "contracts/v2/cow/KapanOrderManager.sol:KapanOrderManager",
        "label": "settlement",
        "offset": 0,
        "slot": "4",
        "type": "t_contract(IGPv2Settlement)3934"
      },
      {
        "astId": 1676,
        "contract": "contracts/v2/cow/KapanOrderManager.sol:KapanOrderManager",
        "label": "hooksTrampoline",
        "offset": 0,
        "slot": "5",
        "type": "t_address"
      },
      {
        "astId": 1679,
        "contract": "contracts/v2/cow/KapanOrderManager.sol:KapanOrderManager",
        "label": "orderHandler",
        "offset": 0,
        "slot": "6",
        "type": "t_address"
      },
      {
        "astId": 1685,
        "contract": "contracts/v2/cow/KapanOrderManager.sol:KapanOrderManager",
        "label": "orders",
        "offset": 0,
        "slot": "7",
        "type": "t_mapping(t_bytes32,t_struct(OrderContext)1661_storage)"
      },
      {
        "astId": 1690,
        "contract": "contracts/v2/cow/KapanOrderManager.sol:KapanOrderManager",
        "label": "orderSalts",
        "offset": 0,
        "slot": "8",
        "type": "t_mapping(t_bytes32,t_bytes32)"
      },
      {
        "astId": 1696,
        "contract": "contracts/v2/cow/KapanOrderManager.sol:KapanOrderManager",
        "label": "userOrders",
        "offset": 0,
        "slot": "9",
        "type": "t_mapping(t_address,t_array(t_bytes32)dyn_storage)"
      },
      {
        "astId": 1703,
        "contract": "contracts/v2/cow/KapanOrderManager.sol:KapanOrderManager",
        "label": "userSaltToOrderHash",
        "offset": 0,
        "slot": "10",
        "type": "t_mapping(t_address,t_mapping(t_bytes32,t_bytes32))"
      }
    ],
    "types": {
      "t_address": {
        "encoding": "inplace",
        "label": "address",
        "numberOfBytes": "20"
      },
      "t_array(t_bytes32)dyn_storage": {
        "base": "t_bytes32",
        "encoding": "dynamic_array",
        "label": "bytes32[]",
        "numberOfBytes": "32"
      },
      "t_array(t_bytes_storage)dyn_storage": {
        "base": "t_bytes_storage",
        "encoding": "dynamic_array",
        "label": "bytes[]",
        "numberOfBytes": "32"
      },
      "t_bool": {
        "encoding": "inplace",
        "label": "bool",
        "numberOfBytes": "1"
      },
      "t_bytes32": {
        "encoding": "inplace",
        "label": "bytes32",
        "numberOfBytes": "32"
      },
      "t_bytes_storage": {
        "encoding": "bytes",
        "label": "bytes",
        "numberOfBytes": "32"
      },
      "t_contract(IComposableCoW)3794": {
        "encoding": "inplace",
        "label": "contract IComposableCoW",
        "numberOfBytes": "20"
      },
      "t_contract(IGPv2Settlement)3934": {
        "encoding": "inplace",
        "label": "contract IGPv2Settlement",
        "numberOfBytes": "20"
      },
      "t_contract(IKapanRouter)1552": {
        "encoding": "inplace",
        "label": "contract IKapanRouter",
        "numberOfBytes": "20"
      },
      "t_enum(CompletionType)1590": {
        "encoding": "inplace",
        "label": "enum KapanOrderManager.CompletionType",
        "numberOfBytes": "1"
      },
      "t_enum(OrderStatus)1595": {
        "encoding": "inplace",
        "label": "enum KapanOrderManager.OrderStatus",
        "numberOfBytes": "1"
      },
      "t_mapping(t_address,t_array(t_bytes32)dyn_storage)": {
        "encoding": "mapping",
        "key": "t_address",
        "label": "mapping(address => bytes32[])",
        "numberOfBytes": "32",
        "value": "t_array(t_bytes32)dyn_storage"
      },
      "t_mapping(t_address,t_mapping(t_bytes32,t_bytes32))": {
        "encoding": "mapping",
        "key": "t_address",
        "label": "mapping(address => mapping(bytes32 => bytes32))",
        "numberOfBytes": "32",
        "value": "t_mapping(t_bytes32,t_bytes32)"
      },
      "t_mapping(t_bytes32,t_bytes32)": {
        "encoding": "mapping",
        "key": "t_bytes32",
        "label": "mapping(bytes32 => bytes32)",
        "numberOfBytes": "32",
        "value": "t_bytes32"
      },
      "t_mapping(t_bytes32,t_struct(OrderContext)1661_storage)": {
        "encoding": "mapping",
        "key": "t_bytes32",
        "label": "mapping(bytes32 => struct KapanOrderManager.OrderContext)",
        "numberOfBytes": "32",
        "value": "t_struct(OrderContext)1661_storage"
      },
      "t_struct(KapanOrderParams)1647_storage": {
        "encoding": "inplace",
        "label": "struct KapanOrderManager.KapanOrderParams",
        "members": [
          {
            "astId": 1617,
            "contract": "contracts/v2/cow/KapanOrderManager.sol:KapanOrderManager",
            "label": "user",
            "offset": 0,
            "slot": "0",
            "type": "t_address"
          },
          {
            "astId": 1620,
            "contract": "contracts/v2/cow/KapanOrderManager.sol:KapanOrderManager",
            "label": "preInstructionsPerIteration",
            "offset": 0,
            "slot": "1",
            "type": "t_array(t_bytes_storage)dyn_storage"
          },
          {
            "astId": 1622,
            "contract": "contracts/v2/cow/KapanOrderManager.sol:KapanOrderManager",
            "label": "preTotalAmount",
            "offset": 0,
            "slot": "2",
            "type": "t_uint256"
          },
          {
            "astId": 1624,
            "contract": "contracts/v2/cow/KapanOrderManager.sol:KapanOrderManager",
            "label": "sellToken",
            "offset": 0,
            "slot": "3",
            "type": "t_address"
          },
          {
            "astId": 1626,
            "contract": "contracts/v2/cow/KapanOrderManager.sol:KapanOrderManager",
            "label": "buyToken",
            "offset": 0,
            "slot": "4",
            "type": "t_address"
          },
          {
            "astId": 1628,
            "contract": "contracts/v2/cow/KapanOrderManager.sol:KapanOrderManager",
            "label": "chunkSize",
            "offset": 0,
            "slot": "5",
            "type": "t_uint256"
          },
          {
            "astId": 1630,
            "contract": "contracts/v2/cow/KapanOrderManager.sol:KapanOrderManager",
            "label": "minBuyPerChunk",
            "offset": 0,
            "slot": "6",
            "type": "t_uint256"
          },
          {
            "astId": 1633,
            "contract": "contracts/v2/cow/KapanOrderManager.sol:KapanOrderManager",
            "label": "postInstructionsPerIteration",
            "offset": 0,
            "slot": "7",
            "type": "t_array(t_bytes_storage)dyn_storage"
          },
          {
            "astId": 1636,
            "contract": "contracts/v2/cow/KapanOrderManager.sol:KapanOrderManager",
            "label": "completion",
            "offset": 0,
            "slot": "8",
            "type": "t_enum(CompletionType)1590"
          },
          {
            "astId": 1638,
            "contract": "contracts/v2/cow/KapanOrderManager.sol:KapanOrderManager",
            "label": "targetValue",
            "offset": 0,
            "slot": "9",
            "type": "t_uint256"
          },
          {
            "astId": 1640,
            "contract": "contracts/v2/cow/KapanOrderManager.sol:KapanOrderManager",
            "label": "minHealthFactor",
            "offset": 0,
            "slot": "10",
            "type": "t_uint256"
          },
          {
            "astId": 1642,
            "contract": "contracts/v2/cow/KapanOrderManager.sol:KapanOrderManager",
            "label": "appDataHash",
            "offset": 0,
            "slot": "11",
            "type": "t_bytes32"
          },
          {
            "astId": 1644,
            "contract": "contracts/v2/cow/KapanOrderManager.sol:KapanOrderManager",
            "label": "isFlashLoanOrder",
            "offset": 0,
            "slot": "12",
            "type": "t_bool"
          },
          {
            "astId": 1646,
            "contract": "contracts/v2/cow/KapanOrderManager.sol:KapanOrderManager",
            "label": "isKindBuy",
            "offset": 1,
            "slot": "12",
            "type": "t_bool"
          }
        ],
        "numberOfBytes": "416"
      },
      "t_struct(OrderContext)1661_storage": {
        "encoding": "inplace",
        "label": "struct KapanOrderManager.OrderContext",
        "members": [
          {
            "astId": 1651,
            "contract": "contracts/v2/cow/KapanOrderManager.sol:KapanOrderManager",
            "label": "params",
            "offset": 0,
            "slot": "0",
            "type": "t_struct(KapanOrderParams)1647_storage"
          },
          {
            "astId": 1654,
            "contract": "contracts/v2/cow/KapanOrderManager.sol:KapanOrderManager",
            "label": "status",
            "offset": 0,
            "slot": "13",
            "type": "t_enum(OrderStatus)1595"
          },
          {
            "astId": 1656,
            "contract": "contracts/v2/cow/KapanOrderManager.sol:KapanOrderManager",
            "label": "executedAmount",
            "offset": 0,
            "slot": "14",
            "type": "t_uint256"
          },
          {
            "astId": 1658,
            "contract": "contracts/v2/cow/KapanOrderManager.sol:KapanOrderManager",
            "label": "iterationCount",
            "offset": 0,
            "slot": "15",
            "type": "t_uint256"
          },
          {
            "astId": 1660,
            "contract": "contracts/v2/cow/KapanOrderManager.sol:KapanOrderManager",
            "label": "createdAt",
            "offset": 0,
            "slot": "16",
            "type": "t_uint256"
          }
        ],
        "numberOfBytes": "544"
      },
      "t_uint256": {
        "encoding": "inplace",
        "label": "uint256",
        "numberOfBytes": "32"
      }
    }
  }
}