{
  "address": "0xdA103C6F970D3D3Eabc74c4bE96c0898c1FD0087",
  "abi": [
    {
      "inputs": [
        {
          "internalType": "address",
          "name": "owner",
          "type": "address"
        }
      ],
      "stateMutability": "nonpayable",
      "type": "constructor"
    },
    {
      "inputs": [
        {
          "internalType": "address",
          "name": "target",
          "type": "address"
        }
      ],
      "name": "AddressEmptyCode",
      "type": "error"
    },
    {
      "inputs": [
        {
          "internalType": "address",
          "name": "account",
          "type": "address"
        }
      ],
      "name": "AddressInsufficientBalance",
      "type": "error"
    },
    {
      "inputs": [],
      "name": "FailedInnerCall",
      "type": "error"
    },
    {
      "inputs": [
        {
          "internalType": "address",
          "name": "owner",
          "type": "address"
        }
      ],
      "name": "OwnableInvalidOwner",
      "type": "error"
    },
    {
      "inputs": [
        {
          "internalType": "address",
          "name": "account",
          "type": "address"
        }
      ],
      "name": "OwnableUnauthorizedAccount",
      "type": "error"
    },
    {
      "inputs": [],
      "name": "ReentrancyGuardReentrantCall",
      "type": "error"
    },
    {
      "inputs": [
        {
          "internalType": "address",
          "name": "token",
          "type": "address"
        }
      ],
      "name": "SafeERC20FailedOperation",
      "type": "error"
    },
    {
      "anonymous": false,
      "inputs": [
        {
          "indexed": false,
          "internalType": "bytes32",
          "name": "provider",
          "type": "bytes32"
        },
        {
          "indexed": true,
          "internalType": "address",
          "name": "token",
          "type": "address"
        },
        {
          "indexed": false,
          "internalType": "uint256",
          "name": "amountWithFee",
          "type": "uint256"
        }
      ],
      "name": "FlashRepaid",
      "type": "event"
    },
    {
      "anonymous": false,
      "inputs": [
        {
          "indexed": false,
          "internalType": "bytes32",
          "name": "provider",
          "type": "bytes32"
        },
        {
          "indexed": true,
          "internalType": "address",
          "name": "token",
          "type": "address"
        },
        {
          "indexed": false,
          "internalType": "uint256",
          "name": "amount",
          "type": "uint256"
        }
      ],
      "name": "FlashRequested",
      "type": "event"
    },
    {
      "anonymous": false,
      "inputs": [
        {
          "indexed": true,
          "internalType": "address",
          "name": "previousOwner",
          "type": "address"
        },
        {
          "indexed": true,
          "internalType": "address",
          "name": "newOwner",
          "type": "address"
        }
      ],
      "name": "OwnershipTransferred",
      "type": "event"
    },
    {
      "inputs": [],
      "name": "aaveEnabled",
      "outputs": [
        {
          "internalType": "bool",
          "name": "",
          "type": "bool"
        }
      ],
      "stateMutability": "view",
      "type": "function"
    },
    {
      "inputs": [],
      "name": "aaveV3Pool",
      "outputs": [
        {
          "internalType": "contract IAaveV3Pool",
          "name": "",
          "type": "address"
        }
      ],
      "stateMutability": "view",
      "type": "function"
    },
    {
      "inputs": [
        {
          "internalType": "string",
          "name": "protocolName",
          "type": "string"
        },
        {
          "internalType": "address",
          "name": "gateway",
          "type": "address"
        }
      ],
      "name": "addGateway",
      "outputs": [],
      "stateMutability": "nonpayable",
      "type": "function"
    },
    {
      "inputs": [
        {
          "components": [
            {
              "internalType": "string",
              "name": "protocolName",
              "type": "string"
            },
            {
              "internalType": "bytes",
              "name": "data",
              "type": "bytes"
            }
          ],
          "internalType": "struct ProtocolTypes.ProtocolInstruction[]",
          "name": "instructions",
          "type": "tuple[]"
        },
        {
          "internalType": "address",
          "name": "caller",
          "type": "address"
        }
      ],
      "name": "authorizeInstructions",
      "outputs": [
        {
          "internalType": "address[]",
          "name": "targets",
          "type": "address[]"
        },
        {
          "internalType": "bytes[]",
          "name": "data",
          "type": "bytes[]"
        }
      ],
      "stateMutability": "view",
      "type": "function"
    },
    {
      "inputs": [
        {
          "components": [
            {
              "internalType": "uint256",
              "name": "amount",
              "type": "uint256"
            },
            {
              "internalType": "address",
              "name": "token",
              "type": "address"
            },
            {
              "internalType": "address",
              "name": "user",
              "type": "address"
            },
            {
              "internalType": "enum KapanRouter.RouterInstructionType",
              "name": "instructionType",
              "type": "uint8"
            }
          ],
          "internalType": "struct KapanRouter.RouterInstruction[]",
          "name": "instrs",
          "type": "tuple[]"
        }
      ],
      "name": "authorizeRouter",
      "outputs": [
        {
          "internalType": "address[]",
          "name": "targets",
          "type": "address[]"
        },
        {
          "internalType": "bytes[]",
          "name": "data",
          "type": "bytes[]"
        }
      ],
      "stateMutability": "view",
      "type": "function"
    },
    {
      "inputs": [],
      "name": "balancerV2Enabled",
      "outputs": [
        {
          "internalType": "bool",
          "name": "",
          "type": "bool"
        }
      ],
      "stateMutability": "view",
      "type": "function"
    },
    {
      "inputs": [],
      "name": "balancerV2Vault",
      "outputs": [
        {
          "internalType": "contract IFlashLoanProvider",
          "name": "",
          "type": "address"
        }
      ],
      "stateMutability": "view",
      "type": "function"
    },
    {
      "inputs": [],
      "name": "balancerV3Enabled",
      "outputs": [
        {
          "internalType": "bool",
          "name": "",
          "type": "bool"
        }
      ],
      "stateMutability": "view",
      "type": "function"
    },
    {
      "inputs": [],
      "name": "balancerV3Vault",
      "outputs": [
        {
          "internalType": "contract IVaultV3",
          "name": "",
          "type": "address"
        }
      ],
      "stateMutability": "view",
      "type": "function"
    },
    {
      "inputs": [
        {
          "components": [
            {
              "internalType": "string",
              "name": "protocolName",
              "type": "string"
            },
            {
              "internalType": "bytes",
              "name": "data",
              "type": "bytes"
            }
          ],
          "internalType": "struct ProtocolTypes.ProtocolInstruction[]",
          "name": "instructions",
          "type": "tuple[]"
        },
        {
          "internalType": "address",
          "name": "caller",
          "type": "address"
        }
      ],
      "name": "deauthorizeInstructions",
      "outputs": [
        {
          "internalType": "address[]",
          "name": "targets",
          "type": "address[]"
        },
        {
          "internalType": "bytes[]",
          "name": "data",
          "type": "bytes[]"
        }
      ],
      "stateMutability": "view",
      "type": "function"
    },
    {
      "inputs": [
        {
          "internalType": "address",
          "name": "asset",
          "type": "address"
        },
        {
          "internalType": "uint256",
          "name": "amount",
          "type": "uint256"
        },
        {
          "internalType": "uint256",
          "name": "premium",
          "type": "uint256"
        },
        {
          "internalType": "address",
          "name": "initiator",
          "type": "address"
        },
        {
          "internalType": "bytes",
          "name": "params",
          "type": "bytes"
        }
      ],
      "name": "executeOperation",
      "outputs": [
        {
          "internalType": "bool",
          "name": "",
          "type": "bool"
        }
      ],
      "stateMutability": "nonpayable",
      "type": "function"
    },
    {
      "inputs": [
        {
          "internalType": "string",
          "name": "",
          "type": "string"
        }
      ],
      "name": "gateways",
      "outputs": [
        {
          "internalType": "contract IGateway",
          "name": "",
          "type": "address"
        }
      ],
      "stateMutability": "view",
      "type": "function"
    },
    {
      "inputs": [],
      "name": "owner",
      "outputs": [
        {
          "internalType": "address",
          "name": "",
          "type": "address"
        }
      ],
      "stateMutability": "view",
      "type": "function"
    },
    {
      "inputs": [
        {
          "components": [
            {
              "internalType": "string",
              "name": "protocolName",
              "type": "string"
            },
            {
              "internalType": "bytes",
              "name": "data",
              "type": "bytes"
            }
          ],
          "internalType": "struct ProtocolTypes.ProtocolInstruction[]",
          "name": "instructions",
          "type": "tuple[]"
        }
      ],
      "name": "processProtocolInstructions",
      "outputs": [],
      "stateMutability": "nonpayable",
      "type": "function"
    },
    {
      "inputs": [
        {
          "internalType": "contract IERC20[]",
          "name": "tokens",
          "type": "address[]"
        },
        {
          "internalType": "uint256[]",
          "name": "amounts",
          "type": "uint256[]"
        },
        {
          "internalType": "uint256[]",
          "name": "feeAmounts",
          "type": "uint256[]"
        },
        {
          "internalType": "bytes",
          "name": "userData",
          "type": "bytes"
        }
      ],
      "name": "receiveFlashLoan",
      "outputs": [],
      "stateMutability": "nonpayable",
      "type": "function"
    },
    {
      "inputs": [
        {
          "internalType": "bytes",
          "name": "userData",
          "type": "bytes"
        }
      ],
      "name": "receiveFlashLoanV3",
      "outputs": [],
      "stateMutability": "nonpayable",
      "type": "function"
    },
    {
      "inputs": [],
      "name": "renounceOwnership",
      "outputs": [],
      "stateMutability": "nonpayable",
      "type": "function"
    },
    {
      "inputs": [
        {
          "internalType": "address",
          "name": "pool",
          "type": "address"
        }
      ],
      "name": "setAaveV3",
      "outputs": [],
      "stateMutability": "nonpayable",
      "type": "function"
    },
    {
      "inputs": [
        {
          "internalType": "address",
          "name": "provider",
          "type": "address"
        }
      ],
      "name": "setBalancerV2",
      "outputs": [],
      "stateMutability": "nonpayable",
      "type": "function"
    },
    {
      "inputs": [
        {
          "internalType": "address",
          "name": "vault",
          "type": "address"
        }
      ],
      "name": "setBalancerV3",
      "outputs": [],
      "stateMutability": "nonpayable",
      "type": "function"
    },
    {
      "inputs": [
        {
          "internalType": "address",
          "name": "factoryOrSentinel",
          "type": "address"
        }
      ],
      "name": "setUniswapV3Enabled",
      "outputs": [],
      "stateMutability": "nonpayable",
      "type": "function"
    },
    {
      "inputs": [
        {
          "internalType": "address",
          "name": "newOwner",
          "type": "address"
        }
      ],
      "name": "transferOwnership",
      "outputs": [],
      "stateMutability": "nonpayable",
      "type": "function"
    },
    {
      "inputs": [],
      "name": "uniswapEnabled",
      "outputs": [
        {
          "internalType": "bool",
          "name": "",
          "type": "bool"
        }
      ],
      "stateMutability": "view",
      "type": "function"
    },
    {
      "inputs": [],
      "name": "uniswapV3FactoryOrSentinel",
      "outputs": [
        {
          "internalType": "address",
          "name": "",
          "type": "address"
        }
      ],
      "stateMutability": "view",
      "type": "function"
    },
    {
      "inputs": [
        {
          "internalType": "uint256",
          "name": "fee0",
          "type": "uint256"
        },
        {
          "internalType": "uint256",
          "name": "fee1",
          "type": "uint256"
        },
        {
          "internalType": "bytes",
          "name": "data",
          "type": "bytes"
        }
      ],
      "name": "uniswapV3FlashCallback",
      "outputs": [],
      "stateMutability": "nonpayable",
      "type": "function"
    }
  ],
  "transactionHash": "0x765d85376d8f9537e4422e7d645fd9462afdc4f361c3835e2f68a7a04d7a35e8",
  "args": [
    "0x0BE61223F99E57b8b8B7033a77B54Adc7f7cF027"
  ],
  "numDeployments": 19,
  "solcInputHash": "e1aaff1f954a84b9d18f587060217864",
  "bytecode": "0x60803460bc57601f6158fb38819003918201601f19168301916001600160401b0383118484101760c05780849260209460405283398101031260bc57516001600160a01b0381169081900360bc57801560a9575f80546001600160a01b031981168317825560405192916001600160a01b03909116907f8be0079c531659141344cd1fd0a4f28419497f9722a3daafe3b4186f6b6457e09080a36001805561582690816100d58239f35b631e4fbdf760e01b5f525f60045260245ffd5b5f80fd5b634e487b7160e01b5f52604160045260245ffdfe60806040526004361015610011575f80fd5b5f3560e01c80630acefd35146101a457806310c0a1571461019f5780631b11d0ff1461019a57806328c18416146101955780634c7f3eba146101905780635eaa9da31461018b578063715018a61461018657806386a06ff0146101815780638da5cb5b1461017c5780639dceeca114610177578063a6ed7be314610172578063a86a18161461016d578063bd3fd0ec14610168578063bf11f4af14610163578063bf1e4cf61461015e578063c3865d5714610159578063d7ff41bf14610154578063db236a1f1461014f578063e30b155e1461014a578063e851130314610145578063e9cbafb014610140578063f04f27071461013b578063f0dbeea514610136578063f2fde38b146101315763faea56e21461012c575f80fd5b611953565b6118ca565b6117ba565b61171d565b6115eb565b6115a4565b611555565b611506565b610a6d565b6109dc565b610995565b61079a565b610774565b61074c565b6106e1565b6105d7565b6105b0565b610588565b610531565b61050b565b6104df565b610498565b610252565b6101df565b6101b7565b5f9103126101b357565b5f80fd5b346101b3575f3660031901126101b3576003546040516001600160a01b039091168152602090f35b346101b3575f3660031901126101b3576002546040516001600160a01b039091168152602090f35b6001600160a01b038116036101b357565b359061022382610207565b565b9181601f840112156101b3578235916001600160401b0383116101b357602083818601950101116101b357565b346101b35760a03660031901126101b35760043561026f81610207565b606435906044359060243561028384610207565b608435936001600160401b0385116101b35761031d61037c94610325936102b1610318983690600401610225565b9890946102c560ff60055460a01c166120a9565b6102da60018060a01b036006541633146120ee565b60045461030890610301906102f5906001600160a01b031681565b6001600160a01b031690565b331461213a565b6001600160a01b0316301461217f565b6121e3565b943691611496565b506103308382613047565b6004546001600160a01b03918216939160209161034d91166102f5565b60405163095ea7b360e01b81526001600160a01b0390911660048201525f602482015292839081906044820190565b03815f875af1918215610476576103de9261047b575b5060045460209082906103ad906001600160a01b03166102f5565b60405163095ea7b360e01b81526001600160a01b039091166004820152602481019190915292839081906044820190565b03815f875af1908115610476575f5160206157715f395f51905f529261042592610449575b506040519182918291906020604084019366414156455f563360c81b81520152565b0390a261043861043361222e565b6130a2565b6040516001815280602081015b0390f35b61046a9060203d60201161046f575b610462818361144b565b8101906121fa565b610403565b503d610458565b61220f565b6104939060203d60201161046f57610462818361144b565b610392565b346101b35760203660031901126101b3576004356104b581610207565b6104bd6130d4565b600280546001600160a01b0319166001600160a01b0392909216919091179055005b346101b3575f3660031901126101b3576004546020906001600160a01b031615155b6040519015158152f35b346101b3575f3660031901126101b3576002546020906001600160a01b03161515610501565b346101b3575f3660031901126101b3576105496130d4565b5f80546001600160a01b0319811682556001600160a01b03167f8be0079c531659141344cd1fd0a4f28419497f9722a3daafe3b4186f6b6457e08280a3005b346101b3575f3660031901126101b3576004546040516001600160a01b039091168152602090f35b346101b3575f3660031901126101b3575f546040516001600160a01b039091168152602090f35b346101b35760203660031901126101b3576004356105f481610207565b6105fc6130d4565b600480546001600160a01b0319166001600160a01b0392909216919091179055005b805180835260209291819084018484015e5f828201840152601f01601f1916010190565b604081016040825282518091526020606083019301905f5b8181106106c2575050506020818303910152815180825260208201916020808360051b8301019401925f915b83831061069557505050505090565b90919293946020806106b3600193601f19868203018752895161061e565b97019301930191939290610686565b82516001600160a01b031685526020948501949092019160010161065a565b346101b35760203660031901126101b3576004356001600160401b0381116101b357366023820112156101b35780600401356001600160401b0381116101b3573660248260071b840101116101b357602461073c92016123ca565b9061044560405192839283610642565b346101b3575f3660031901126101b3576005546040516001600160a01b039091168152602090f35b346101b3575f3660031901126101b3576005546020906001600160a01b03161515610501565b346101b35760203660031901126101b3576004356001600160401b0381116101b3576107ca903690600401610225565b906107dc60ff60055460a01c166120a9565b6107f160018060a01b036006541633146120ee565b600354610806906001600160a01b03166102f5565b61081a6001600160a01b03821633146124bf565b6108268383018361250b565b6001600160a01b03909116939092908415158061098c575b61084457005b823b156101b35760405163ae63932960e01b81526001600160a01b038616600482015230602482015260448101859052925f908490606490829084905af19283156104765761089a93610978575b503691611496565b506108a58183613047565b6003546108c69082906108c0906001600160a01b03166102f5565b846130fa565b6003546108db906001600160a01b03166102f5565b90813b156101b3576040516315afd40960e01b81526001600160a01b038416600482015260248101829052915f908390604490829084905af1908115610476575f5160206157715f395f51905f52926109599261095e575b50604051918291829190602060408401936a42414c414e4345525f563360a81b81520152565b0390a2005b8061096c5f6109729361144b565b806101a9565b5f610933565b8061096c5f6109869361144b565b5f610892565b5083151561083e565b346101b35760203660031901126101b3576004356109b281610207565b6109ba6130d4565b600580546001600160a01b0319166001600160a01b0392909216919091179055005b346101b3575f3660031901126101b3576003546020906001600160a01b03161515610501565b9181601f840112156101b3578235916001600160401b0383116101b3576020808501948460051b0101116101b357565b60406003198201126101b357600435906001600160401b0382116101b357610a5c91600401610a02565b9091602435610a6a81610207565b90565b346101b357610a7b36610a32565b610a8692919261252a565b91610a9084612314565b93610a9a81612346565b935f935f925b808410610b3657878787610ab381612314565b91610abd82612346565b935f5b838110610ad65760405180610445888883610642565b80610b0f610af6610ae9600194866123b6565b516001600160a01b031690565b610b0083896123b6565b6001600160a01b039091169052565b610b1981856123b6565b51610b2482896123b6565b52610b2f81886123b6565b5001610ac0565b909192939594610b47858389612662565b610b79610b6b610b578380612684565b6040939193519283916020830195866126b6565b03601f19810183528261144b565b5190206040516020810190610b9181610b6b846126dd565b51902014610d8e578084610bc26102f5610bb5610baf858b97612684565b906128ab565b546001600160a01b031690565b916001600160a01b03831615610d4f5791610c2c9391610bf2610bea8560205f970190612684565b8101906128c4565b610bfa612968565b90610c0482612399565b52610c0e81612399565b506040516352ed587560e01b81529586948593849360048501612c55565b03915afa908115610476575f905f905f93610d28575b50838b8351151580610d11575b80610cfe575b15610ccd57610b00610c7692610c70610ae9610c7b97612399565b926123b6565b612399565b51610c8683896123b6565b52610c9182886123b6565b505b8051610cb5575b50610ca66001916122ef565b945b0192919095939495610aa0565b610cc5610ca691600193966131a7565b949150610c9a565b5f9350610cda92506123b6565b52610ce361221a565b610ced83896123b6565b52610cf882886123b6565b50610c93565b50610d0883612399565b51511515610c55565b50610d216102f5610ae986612399565b1515610c4f565b915050610d4791503d805f833e610d3f818361144b565b810190612b9e565b91905f610c42565b50505050610d88815f610d646001948c6123b6565b52610d6d61221a565b610d77828a6123b6565b52610d8281896123b6565b506122ef565b94610ca8565b60208195929501610daa610da28284612684565b810190612755565b915f610db6888d6123b6565b52610dbf61221a565b610dc9888b6123b6565b52610dd4878a6123b6565b506060830160018151610de6816122d6565b610def816122d6565b03610f635750505060408101516001600160a01b03858116911614610e58575b6020810151600192610d8892610e52929091906001600160a01b03165b9151610e48610e3961146c565b6001600160a01b039094168452565b6020830152613142565b946122ef565b602081018051610e72906102f5906001600160a01b031681565b604051636eb1769f60e11b81526001600160a01b03871660048201523060248201529290602090849060449082905afa93841561047657878c610e5294600197610d88975f91610f35575b50855111610ed3575b5050509350915050610e0f565b51610eea92610b00916001600160a01b0316610c70565b815160405163095ea7b360e01b60208201523060248201526044810191909152610f178160648101610b6b565b610f21898c6123b6565b52610f2c888b6123b6565b50878c5f610ec6565b610f56915060203d8111610f5c575b610f4e818361144b565b81019061289c565b5f610ebd565b503d610f44565b6002819895989492939451610f77816122d6565b610f80816122d6565b03610fe357505091610fa2610f9a610d8893600195612684565b810190612880565b80915051875111610fb357506122ef565b610fdc90610fbf61146c565b905f82525f60208301525190610fd5828a6123b6565b52876123b6565b505f610d82565b6003819895989493929451610ff7816122d6565b611000816122d6565b03611029575050506020810151600192610d8892610e52929091906001600160a01b0316610e2c565b909192506004815161103a816122d6565b611043816122d6565b0361106b57505050610d88610e5260019261105c61146c565b905f82525f6020830152613142565b8051611076816122d6565b61107f816122d6565b6110ec57509161109f611097610d8893600195612684565b810190612842565b509291505081518151115f146110df576110bd610e529251826123b6565b5190602082016110d86110d082516127f7565b6103e8900490565b9052613142565b610e52915061105c61146c565b600581516110f9816122d6565b611102816122d6565b036111f857509161112361111b610d8893600195612684565b8101906127d2565b90809250518351115f146111df57916111bd6111c9610e52946111478551856123b6565b519361117361116b61116661116160208901958651612825565b6121cf565b6127b7565b612710900490565b91518083116111d7575b61118a836111b0926127c5565b9661119361146c565b905f82525f602083015251906111a982856123b6565b52826123b6565b5084516001600160a01b03165b91610e48610e3961146c565b91516001600160a01b031690565b91508161117d565b50506111f0610e529161105c61146c565b61105c61146c565b60068151611205816122d6565b61120e816122d6565b036112f257509161122f611227610d8893600195612684565b810190612787565b9080925051835180911090816112e7575b50156112d957916111bd610e52936112cb61125c8551856123b6565b51916112a561127f61126f8351886123b6565b51602080870151910151906121e3565b9661128861146c565b905f82525f6020830152519061129e82896123b6565b52866123b6565b506112ae61146c565b905f82525f602083015251906112c482876123b6565b52846123b6565b50516001600160a01b031690565b5050610e529061105c61146c565b90508151105f611240565b60079096939651611302816122d6565b61130b816122d6565b1461131e575b5050610d886001916122ef565b94611332611227610d889360019598612684565b9080925051835180911090816113bb575b50156113a757916111bd611393936112cb61135f8551856123b6565b519161136c8151866123b6565b516020848101519101519081811061139b576112a59161127f916127c5565b61128861146c565b945b91611311565b50506112a55f9661138b565b50506113b59061105c61146c565b94611395565b90508151105f611343565b634e487b7160e01b5f52604160045260245ffd5b604081019081106001600160401b038211176113f557604052565b6113c6565b608081019081106001600160401b038211176113f557604052565b602081019081106001600160401b038211176113f557604052565b60c081019081106001600160401b038211176113f557604052565b90601f801991011681019081106001600160401b038211176113f557604052565b6040519061022360408361144b565b6001600160401b0381116113f557601f01601f191660200190565b9291926114a28261147b565b916114b0604051938461144b565b8294818452818301116101b3578281602093845f960137010152565b9080601f830112156101b357816020610a6a93359101611496565b60208091604051928184925191829101835e8101600781520301902090565b346101b35760203660031901126101b3576004356001600160401b0381116101b3576020906001600160a01b039061154b906115469036906004016114cc565b6114e7565b5416604051908152f35b346101b35760403660031901126101b3576004356001600160401b0381116101b3576115886115a2913690600401610225565b6024359161159583610207565b61159d6130d4565b612d28565b005b346101b35760203660031901126101b3576004356115c181610207565b6115c96130d4565b600380546001600160a01b0319166001600160a01b0392909216919091179055005b346101b35760603660031901126101b3576024356004356044356001600160401b0381116101b357611621903690600401610225565b61163260ff60055460a01c166120a9565b61164760018060a01b036006541633146120ee565b81019060a0818303126101b35780359361166085610207565b60208201359361166f85610207565b6040830135916060840135956001600160401b0387116101b3576116d06080866116af610959995f5160206157715f395f51905f529b6116dc9a016114cc565b500135916116bc836121f0565b6001600160a01b0390811699163314612dea565b156117155750906121e3565b6116e68185613047565b6116f18133866130fa565b6040519182918291906020604084019369554e49535741505f563360b01b81520152565b9050906121e3565b346101b35760803660031901126101b3576004356001600160401b0381116101b35761174d903690600401610a02565b6024356001600160401b0381116101b35761176c903690600401610a02565b6044939193356001600160401b0381116101b35761178e903690600401610a02565b91606435956001600160401b0387116101b3576117b26115a2973690600401610225565b969095612e36565b346101b35760203660031901126101b3576004356001600160401b0381116101b3576117ea903690600401610a02565b5f5b81811061180d57506117fd9161338e565b611805613578565b6115a2613700565b8061181b6001928486612662565b61182b610b6b610b578380612684565b519020604051602081019061184381610b6b846126dd565b51902003611853575b50016117ec565b610bea816020611864930190612684565b6003815161187181612c03565b61187a81612c03565b1480156118ad575b1561184c57604001516118a7906001600160a01b03163390848060a01b03161461323d565b5f61184c565b50600281516118bb81612c03565b6118c481612c03565b14611882565b346101b35760203660031901126101b3576004356118e781610207565b6118ef6130d4565b6001600160a01b03168015611940575f80546001600160a01b03198116831782556001600160a01b0316907f8be0079c531659141344cd1fd0a4f28419497f9722a3daafe3b4186f6b6457e09080a3005b631e4fbdf760e01b5f525f60045260245ffd5b346101b35761196136610a32565b9061196a61252a565b9061197c6119778261280f565b612314565b9261198e6119898361280f565b612346565b945f935f5b848110611a6c57875f8789825b828110611a3b57506119ba6119b484612314565b93612346565b935f915f5b8481106119d55760405180610445898983610642565b6119e56102f5610ae983856123b6565b6119f2575b6001016119bf565b92611a33600191611a13611a09610ae988876123b6565b610b00838b6123b6565b611a1d86866123b6565b51611a28828b6123b6565b52610d82818a6123b6565b9390506119ea565b611a4b6102f5610ae983856123b6565b611a58575b6001016119a0565b92611a646001916122ef565b939050611a50565b9091929594611a7f8286869a979a612662565b96611a90610b6b610b578a80612684565b5190206040516020810190611aa881610b6b846126dd565b51902014611cb757611ac36102f5610bb5610baf8b80612684565b916001600160a01b03831615611c795790849291611af0610bea611ae5612968565b9b6020810190612684565b611af98b612399565b52611b038a612399565b505f828b611b25604051998a93849363aad11a3f60e01b855260048501612c55565b0381865afa968715610476575f965f98611c4f575b505f915b8751831015611bc257611b9d818c8c600194878e8e611b636102f5610ae985846123b6565b15611ba55790611b86611b929596610b0086610c70610ae988611b8b99986123b6565b6123b6565b51926123b6565b52610d82818d6123b6565b920191611b3e565b505050611bb491505f926123b6565b528b611b9282610c7061221a565b999a839850859750611bf59491999c96959250925f93604051958694859384936352ed587560e01b855260048501612c55565b03915afa908115610476575f91611c32575b508051611c1e575b506001905b0193919093611993565b611c2b90600192946131a7565b9290611c0f565b611c4691503d805f833e610d3f818361144b565b9150505f611c07565b909750611c6f9196503d805f833e611c67818361144b565b810190613000565b959095965f611b3a565b879850600192505f611c9382611cb19498999c969a6123b6565b52611c9c61221a565b611ca6828c6123b6565b52610d82818b6123b6565b95611c14565b939497919596909260208201611cd0610da28285612684565b926060840160018151611ce2816122d6565b611ceb816122d6565b03611dbd575050506040820151600192611cb192611d8d926001600160a01b0390811690891603611d93576020820151611d35908c90610b00908a906001600160a01b0316610c70565b60405163095ea7b360e01b60208201523060248201525f6044820152611d6d888e611b8684606481015b03601f19810186528561144b565b52611d78878d6123b6565b505b60208201516001600160a01b0316610e2c565b936122ef565b5f611d9e888d6123b6565b528b611dac88610c7061221a565b52611db7878d6123b6565b50611d7a565b60028197959293949751611dd0816122d6565b611dd9816122d6565b03611e1e57505091611df3610f9a611cb193600195612684565b80915051865111611e0b575b505f611c93828b6123b6565b611e179061128861146c565b505f611dff565b6003819795979493929451611e32816122d6565b611e3b816122d6565b03611e70575050506020810151600192611cb192611e64929091906001600160a01b0316610e2c565b935f611c93828b6123b6565b9091925060048151611e81816122d6565b611e8a816122d6565b03611ea357505050611cb1611e6460019261105c61146c565b8051611eae816122d6565b611eb7816122d6565b611f12575091611ecf611097611cb193600195612684565b509291505081518151115f14611eff57611eed611e649251826123b6565b5190613142565b5f611c93828b6123b6565b611f0c915061105c61146c565b93611ef4565b60058151611f1f816122d6565b611f28816122d6565b03611f76575091611f4161111b611cb193600195612684565b90809250518351115f14611f6557916111bd6111c9611e64946111478551856123b6565b50506111f0611f0c9161105c61146c565b60068151611f83816122d6565b611f8c816122d6565b03611feb575091611fa5611227611cb193600195612684565b908092505183518091109081611fe0575b5015611fd257916111bd611e64936112cb61125c8551856123b6565b5050611f0c9061105c61146c565b90508151105f611fb6565b60079095939551611ffb816122d6565b612004816122d6565b14612017575b5050611cb16001916122ef565b9361202b611227611cb19360019597612684565b90809250518351809110908161209e575b501561208a57916111bd612058936112cb61135f8551856123b6565b935b5f612065828b6123b6565b5261206e61221a565b612078828c6123b6565b52612083818b6123b6565b509161200a565b50506120989061105c61146c565b9361205a565b90508151105f61203c565b156120b057565b60405162461bcd60e51b8152602060048201526016602482015275119b185cda081b1bd85b881b9bdd08195b98589b195960521b6044820152606490fd5b156120f557565b60405162461bcd60e51b815260206004820152601960248201527f556e617574686f72697a656420666c6173682063616c6c6572000000000000006044820152606490fd5b1561214157565b60405162461bcd60e51b8152602060048201526016602482015275155b985d5d1a1bdc9a5e99590810585d99481c1bdbdb60521b6044820152606490fd5b1561218657565b60405162461bcd60e51b815260206004820152600d60248201526c2130b21034b734ba34b0ba37b960991b6044820152606490fd5b634e487b7160e01b5f52601160045260245ffd5b9061271082018092116121de57565b6121bb565b919082018092116121de57565b801515036101b357565b908160209103126101b35751610a6a816121f0565b6040513d5f823e3d90fd5b6040519061222960208361144b565b5f8252565b6040519061223d60608361144b565b603e82527f65637574654f7065726174696f6e2061667465722072657061796d656e7400006040837f466c6173684c6f616e436f6e73756d6572426173653a2041617665563320657860208201520152565b634e487b7160e01b5f52603260045260245ffd5b91908110156122b35760071b0190565b61228f565b600811156101b357565b634e487b7160e01b5f52602160045260245ffd5b600811156122e057565b6122c2565b35610a6a816122b8565b5f1981146121de5760010190565b6001600160401b0381116113f55760051b60200190565b9061231e826122fd565b61232b604051918261144b565b828152809261233c601f19916122fd565b0190602036910137565b90612350826122fd565b61235d604051918261144b565b828152809261236e601f19916122fd565b01905f5b82811061237e57505050565b806060602080938501015201612372565b35610a6a81610207565b8051156122b35760200190565b8051600110156122b35760400190565b80518210156122b35760209160051b010190565b915f925f5b83811061247c57506123e96123e385612314565b94612346565b925f905f5b8181106123fb5750505050565b6124068183866122a3565b6001612414606083016122e5565b61241d816122d6565b1461242c575b506001016123ee565b83610b6b610d6d8361244e8c610b006001989a610c7060206124759a0161238f565b60405163095ea7b360e01b6020820152306024820152903560448201529182906064820190565b9290612423565b6001612494606061248e8488876122a3565b016122e5565b61249d816122d6565b146124ab575b6001016123cf565b936124b76001916122ef565b9490506124a3565b156124c657565b60405162461bcd60e51b815260206004820152601860248201527f556e617574686f72697a65642042616c616e63657220763300000000000000006044820152606490fd5b91908260409103126101b3576020823561252481610207565b92013590565b6040519061253960208361144b565b5f80835282815b82811061254c57505050565b60209060405161255b816113da565b5f81525f8382015282828501015201612540565b60408051909190612580838261144b565b6001815291601f1901825f5b82811061259857505050565b6020906040516125a7816113da565b5f81525f838201528282850101520161258c565b604051606091906125cc838261144b565b6002815291601f1901825f5b8281106125e457505050565b6020906040516125f3816113da565b5f81525f83820152828285010152016125d8565b90612611826122fd565b61261e604051918261144b565b828152809261262f601f19916122fd565b01905f5b82811061263f57505050565b60209060405161264e816113da565b5f81525f8382015282828501015201612633565b91908110156122b35760051b81013590603e19813603018212156101b3570190565b903590601e19813603018212156101b357018035906001600160401b0382116101b3576020019181360383136101b357565b90918060409360208452816020850152848401375f828201840152601f01601f1916010190565b6060906020815260066020820152653937baba32b960d11b60408201520190565b91908260809103126101b357604051612716816113fa565b606080829480358452602081013561272d81610207565b6020850152604081013561274081610207565b6040850152013591612751836122b8565b0152565b906080828203126101b357610a6a916126fe565b91908260209103126101b35760405161278181611415565b91358252565b909160c0828403126101b357610a6a6127a084846126fe565b9360a06127b08260808701612769565b9401612769565b5f198101919082116121de57565b919082039182116121de57565b909160c0828403126101b35760a06125246127ed85856126fe565b9460808501612769565b906103e98202918083046103e914901517156121de57565b906003820291808304600314901517156121de57565b818102929181159184041417156121de57565b600411156101b357565b60e0818303126101b35761285682826126fe565b9260c0612874608084013561286a81612838565b9460a08501612769565b920135610a6a81610207565b919060a0838203126101b3578060806127b0610a6a93866126fe565b908160209103126101b3575190565b6020908260405193849283378101600781520301902090565b6020818303126101b3578035906001600160401b0382116101b3570160c0818303126101b357604051916128f783611430565b813560098110156101b357835261291060208301610218565b602084015261292160408301610218565b60408401526060820135606084015260808201356001600160401b0381116101b357826129558360a09361296096016114cc565b608086015201612769565b60a082015290565b61297260016122fd565b90612980604051928361144b565b6001825281601f1961299260016122fd565b01905f5b8281106129a257505050565b6020906040516129b181611430565b5f81525f838201525f60408201525f6060820152606060808201526040516129d881611415565b5f815260a082015282828501015201612996565b9080601f830112156101b3578151612a03816122fd565b92612a11604051948561144b565b81845260208085019260051b8201019283116101b357602001905b828210612a395750505090565b602080918351612a4881610207565b815201910190612a2c565b81601f820112156101b357602081519101612a6d8261147b565b92612a7b604051948561144b565b828452828201116101b357815f926020928386015e8301015290565b9080601f830112156101b3578151612aae816122fd565b92612abc604051948561144b565b81845260208085019260051b820101918383116101b35760208201905b838210612ae857505050505090565b81516001600160401b0381116101b357602091612b0a87848094880101612a53565b815201910190612ad9565b81601f820112156101b357805190612b2c826122fd565b92612b3a604051948561144b565b82845260208085019360061b830101918183116101b357602001925b828410612b64575050505090565b6040848303126101b35760206040918251612b7e816113da565b8651612b8981610207565b81528287015183820152815201930192612b56565b916060838303126101b35782516001600160401b0381116101b35782612bc59185016129ec565b9260208101516001600160401b0381116101b35783612be5918301612a97565b9260408201516001600160401b0381116101b357610a6a9201612b15565b600911156122e057565b90602080835192838152019201905f5b818110612c2a5750505090565b825180516001600160a01b031685526020908101518186015260409094019390920191600101612c1d565b93929091936060810160608252835180915260808201602060808360051b8501019501915f5b818110612ca9575050506001600160a01b039095166020820152929350610a6a926040818403910152612c0d565b90919295607f19858203018452865190815160098110156122e0576001928260209392849352848060a01b03838301511683820152848060a01b0360408301511660408201526060820151606082015260a080612d15608085015160c0608086015260c085019061061e565b9301515191015298019401929101612c7b565b9190916040518382823760078185019081528190036020019020546001600160a01b0392831692168214612de5576040518382823760078482019081528190036020019020546001600160a01b0316612da75761022392612d88916128ab565b80546001600160a01b0319166001600160a01b03909216919091179055565b60405162461bcd60e51b81526020600482015260166024820152754761746577617920616c72656164792065786973747360501b6044820152606490fd5b505050565b15612df157565b60405162461bcd60e51b815260206004820152601960248201527f556e617574686f72697a656420556e697377617020706f6f6c000000000000006044820152606490fd5b9390612ee95f5160206157715f395f51905f5297612ee399612ec3612ed695612ebc612f4a9b612eb5612f239b6102f59b612e7860ff60055460a01c166120a9565b612e8d60018060a01b036006541633146120ee565b600254612ea4906001600160a01b03163314612f4f565b612eb060018c14612f9b565b612ff7565b3592612ff7565b35906121e3565b9a8b92612edb6102f5612ed6888d612ff7565b61238f565b923691611496565b50613047565b612f1588612efa612ed68489612ff7565b600254612f0f906001600160a01b03166102f5565b906130fa565b6001600160a01b0394612ff7565b1692604051918291829190602060408401936a2120a620a721a2a92fab1960a91b81520152565b0390a2565b15612f5657565b60405162461bcd60e51b815260206004820152601860248201527f556e617574686f72697a65642042616c616e63657220763200000000000000006044820152606490fd5b15612fa257565b60405162461bcd60e51b815260206004820152602760248201527f4f6e6c792073696e676c652d617373657420666c617368206c6f616e732073756044820152661c1c1bdc9d195960ca1b6064820152608490fd5b90156122b35790565b9190916040818403126101b35780516001600160401b0381116101b357836130299183016129ec565b9260208201516001600160401b0381116101b357610a6a9201612a97565b61304f61256f565b916040519161305d836113da565b6001600160a01b0316825260208201528151156122b35760208201528051156122b3576130899061372a565b610223613578565b906020610a6a92818152019061061e565b610b6b6130cf6102239260405192839163104c13eb60e21b6020840152602060248401818152019061061e565b6137c5565b5f546001600160a01b031633036130e757565b63118cdaa760e01b5f523360045260245ffd5b60405163a9059cbb60e01b60208201526001600160a01b03909216602483015260448201929092526102239161313d82606481015b03601f19810184528361144b565b6137df565b9190918051600181018091116121de5761315b90612607565b915f5b82518110156131915780613174600192856123b6565b5161317f82876123b6565b5261318a81866123b6565b500161315e565b50926131a39151906111a982856123b6565b5090565b918251825181018091116121de576131be90612607565b905f5b84518110156131f457806131d7600192876123b6565b516131e282866123b6565b526131ed81856123b6565b50016131c1565b50915f5b8151811015613236578061322f613211600193856123b6565b5161321d8389516121e3565b9061322882886123b6565b52856123b6565b50016131f8565b5090925050565b1561324457565b60405162461bcd60e51b815260206004820152602660248201527f4e6f7420617574686f72697a65643a2073656e646572206d757374206d61746360448201526534103ab9b2b960d11b6064820152608490fd5b604051906132a5826113da565b60606020838281520152565b6040813603126101b357604051906132c8826113da565b80356001600160401b0381116101b3576132e590369083016114cc565b82526020810135906001600160401b0382116101b357613307913691016114cc565b602082015290565b602081016020825282518091526040820191602060408360051b8301019401925f915b83831061334157505050505090565b909192939460208061337f600193603f198682030187528951908361336f835160408452604084019061061e565b920151908481840391015261061e565b97019301930191939290613332565b90613398816122fd565b916133a6604051938461144b565b818352601f196133b5836122fd565b015f5b81811061342e5750505f5b8281106133eb57505050610b6b6133e6610223926040519283916020830161330f565b61387b565b8061341261340d613406600194613401886127b7565b6127c5565b8686612662565b6132b1565b61341c82876123b6565b5261342781866123b6565b50016133c3565b602090613439613298565b828288010152016133b8565b6040519061345460608361144b565b602a825269696f6e2025733a20257360b01b6040837f4b6170616e526f757465723a2050726f63657373696e6720696e73747275637460208201520152565b604051906134a260608361144b565b602b82526a6820257320696e7075747360a81b6040837f4b6170616e526f757465723a2043616c6c696e6720676174657761792077697460208201520152565b906020828203126101b35781516001600160401b0381116101b357610a6a9201612b15565b909161351e610a6a93604084526040840190612c0d565b91602081840391015261061e565b6040519061353b60608361144b565b6028825267206f75747075747360c01b6040837f4b6170616e526f757465723a20476174657761792070726f647563656420257360208201520152565b6135806139ba565b81515115613603575f915b61359e815184613599613445565b613b30565b80516040516135b581610b6b602082019485613091565b51902060405160208101906135cd81610b6b846126dd565b51902003613607576135de906140f6565b613603575b613600576135fa6135f26139ba565b9190926122ef565b9161358b565b50565b5050565b6136176102f5610bb583516114e7565b6001600160a01b038116156136c757613669915f916020613636613b7a565b926136498451613644613493565b613c33565b0151918360405180968195829463ae4be46d60e01b845260048401613507565b03925af1908115610476575f916136a5575b50613689815161364461352c565b8051613696575b506135e3565b61369f9061372a565b5f613690565b6136c191503d805f833e6136b9818361144b565b8101906134e2565b5f61367b565b60405162461bcd60e51b815260206004820152601160248201527011d85d195dd85e481b9bdd08199bdd5b99607a1b6044820152606490fd5b61022360405161371160208261144b565b5f815261391b565b906020610a6a928181520190612c0d565b613732613b7a565b9161374861374384518451906121e3565b612607565b905f5b845181101561377e5780613761600192876123b6565b5161376c82866123b6565b5261377781856123b6565b500161374b565b50915f5b81518110156137a2578061379b613211600193856123b6565b5001613782565b50506102239192506137c0610b6b9160405192839160208301613719565b61391b565b5f80916020815191016a636f6e736f6c652e6c6f675afa50565b5f806138279260018060a01b03169360208151910182865af13d15613873573d906138098261147b565b91613817604051938461144b565b82523d5f602084013e5b83615712565b8051908115159182613858575b505061383d5750565b635274afe760e01b5f526001600160a01b031660045260245ffd5b61386b92506020809183010191016121fa565b155f80613834565b606090613821565b805190817f33a7f7e91c7e5e97e4035e86e424aaeb97691c852dc81d823520f664cc2ca71c5d8160051c91601f811690815f5b8581106138f457506138c1575b50505050565b601f19169091016020908101519190036101000a5f19011916905f5160206157915f395f51905f52015d5f8080806138bb565b6001915060208160051b860101515f5160206157915f395f51905f5282015d0182906138ae565b805190817f5f92431fdc2b6bf66f91a326fa06b3fad6b4ab24047c9be12b7f412fbfbaa1ec5d8160051c91601f811690815f5b85811061399357506139605750505050565b601f19169091016020908101519190036101000a5f19011916905f5160206157d15f395f51905f52015d5f8080806138bb565b6001915060208160051b860101515f5160206157d15f395f51905f5282015d01829061394e565b6139c2613298565b906139cb6147b2565b9182518015613b285783019260208401906020818603126101b3576020810151906001600160401b0382116101b3570181603f820112156101b357602081015194613a15866122fd565b95613a23604051978861144b565b8087526020808089019260051b85010101928484116101b35760408101915b848310613a9c575050505050508251908115613a93575080611166610b6b6133e6613a78613a72613a8f966127b7565b886123b6565b51965f19850181526040519283916020830161330f565b1590565b92506001919050565b82516001600160401b0381116101b35782016020810191906040908603601f1901126101b35760405190613acf826113da565b60208301516001600160401b0381116101b357886020613af192860101612a53565b82526040830151916001600160401b0383116101b357613b1989602080969581960101612a53565b83820152815201920191613a42565b509150600190565b6130cf90610b6b613b639361022395604051958694635970e08960e01b602087015260606024870152608486019061061e565b91604485015260231984830301606485015261061e565b7f5f92431fdc2b6bf66f91a326fa06b3fad6b4ab24047c9be12b7f412fbfbaa1ec5c604051908082528060051c5f5b818110613c0f575090602091601f8216613bef575b50601f01601f1916820101604052805115613be65780602080610a6a935183010191016134e2565b50610a6a61252a565b5f5160206157d15f395f51905f52015c601f19821684018301525f613bbe565b805f5160206157d15f395f51905f52600192015c60208260051b8701015201613ba9565b6130cf613c629161022393604051938492632d839cb360e21b602085015260406024850152606484019061061e565b90604483015203601f19810183528261144b565b91908260809103126101b357604051613c8e816113fa565b6060808294805184526020810151613ca581610207565b60208501526040810151613cb881610207565b6040850152015191612751836122b8565b906080828203126101b357610a6a91613c76565b91908260209103126101b357604051613cf581611415565b91518252565b909160c0828403126101b357610a6a613d148484613c76565b9360a0613d248260808701613cdd565b9401613cdd565b15613d3257565b60405162461bcd60e51b81526020600482015260136024820152720a6eac4e8e4c2c6e87440c4c2c840d2dcc8caf606b1b6044820152606490fd5b15613d7457565b60405162461bcd60e51b815260206004820152601460248201527329bab13a3930b1ba1d103d32b937903a37b5b2b760611b6044820152606490fd5b15613db757565b60405162461bcd60e51b815260206004820152601860248201527f53756274726163743a20746f6b656e206d69736d6174636800000000000000006044820152606490fd5b15613e0357565b60405162461bcd60e51b815260206004820152601360248201527253756274726163743a20756e646572666c6f7760681b6044820152606490fd5b15613e4557565b60405162461bcd60e51b815260206004820152600e60248201526d082c8c87440c4c2c840d2dcc8caf60931b6044820152606490fd5b15613e8257565b60405162461bcd60e51b815260206004820152600f60248201526e20b2321d103d32b937903a37b5b2b760891b6044820152606490fd5b15613ec057565b60405162461bcd60e51b8152602060048201526013602482015272082c8c87440e8ded6cadc40dad2e6dac2e8c6d606b1b6044820152606490fd5b909160c0828403126101b35760a0613f20613f168585613c76565b9460808501613cdd565b92015190565b15613f2d57565b60405162461bcd60e51b815260206004820152601060248201526f0a6e0d8d2e87440c4c2c840d2dcc8caf60831b6044820152606490fd5b15613f6c57565b60405162461bcd60e51b815260206004820152600f60248201526e53706c69743a206e6f2076616c756560881b6044820152606490fd5b15613faa57565b60405162461bcd60e51b815260206004820152601960248201527f53706c69743a206672616374696f6e20746f6f206c61726765000000000000006044820152606490fd5b909160c0828403126101b3576140058383613c76565b926080830151906001600160401b0382116101b35760a0613d2482610a6a948701612a53565b1561403257565b60405162461bcd60e51b8152602060048201526012602482015271082e0e0e4deecca7440c4c2c840d2dcc8caf60731b6044820152606490fd5b1561407357565b60405162461bcd60e51b815260206004820152601960248201527f417070726f76653a20746172676574206e6f7420666f756e64000000000000006044820152606490fd5b60e0818303126101b3576140cc8282613c76565b9260c06140ea60808401516140e081612838565b9460a08501613cdd565b920151610a6a81610207565b602081019061410f825160208082518301019101613cc9565b9060608201805161411f816122d6565b614128816122d6565b61415c575050506141466141579151602080825183010191016140b8565b6001600160a01b0316925090614c84565b600190565b60018151614169816122d6565b614172816122d6565b0361418757505061418391506149df565b5f90565b60028193929351614197816122d6565b6141a0816122d6565b036141b15750506141839150614912565b909150600381516141c1816122d6565b6141ca816122d6565b03614229575061418391506141dd61256f565b60208201519091906001600160a01b03165b905161420b6141fc61146c565b6001600160a01b039093168352565b602082015261421982612399565b5261422381612399565b5061372a565b905060048151614238816122d6565b614241816122d6565b036143f3575061425b905160208082518301019101613fef565b9150614265613b7a565b90614273835183511161402b565b604051602081019061428981610b6b8585613091565b51902060405160208101906142a181610b6b846126dd565b519020036143d9575060206142ea30925b6142c66001600160a01b038516151561406c565b6142e26142d48651836123b6565b51516001600160a01b031690565b9451906123b6565b51015160405163095ea7b360e01b81526001600160a01b0383811660048301525f6024830152909316602084806044810103815f855af19283156104765761436c946020946143be575b5060405163095ea7b360e01b81526001600160a01b0390911660048201526024810192909252909283919082905f9082906044820190565b03925af18015610476576143a1575b5061418361438761256f565b61438f61146c565b5f81525f602082015261421982612399565b6143b99060203d60201161046f57610462818361144b565b61437b565b6143d490853d871161046f57610462818361144b565b614334565b6142ea6143ed6102f5610bb56020946114e7565b926142b2565b60058151614400816122d6565b614409816122d6565b036145445750614426614183915160208082518301019101613efb565b9150614430613b7a565b9061443e8151835111613f26565b6144498151836123b6565b5180516001600160a01b0316151580614537575b61446690613f65565b614474612710851115613fa3565b61448c61116b61116661116160208501978851612825565b935180851161452f575b9261451a610b6b936137c0936144ed6144b28961452a996127c5565b916144bb6125bb565b8151909a906001600160a01b0316906144d56141fc61146c565b60208201526144e38b612399565b526112cb8a612399565b906144f96141fc61146c565b6020820152614507886123a6565b52614511876123a6565b5061119361146c565b5060405192839160208301613719565b61372a565b935083614496565b506020810151151561445d565b60068151614551816122d6565b61455a816122d6565b0361468f57506137c061452a610b6b614580614183945160208082518301019101613cfb565b9094915061451a61458f613b7a565b916145a7875184518091109081614684575b50613e3e565b6145116145b58851856123b6565b51976146256145c58451876123b6565b518a516001600160a01b0316151580614662575b6145e290613e7b565b8a51614616906001600160a01b03168251614605906001600160a01b03166102f5565b6001600160a01b0390911614613eb9565b6020808c0151910151906121e3565b61463e61463061256f565b9a516001600160a01b031690565b9061464a6141fc61146c565b60208201526146588a612399565b526112a589612399565b5080516145e29061467b906001600160a01b03166102f5565b151590506145d9565b90508251105f6145a1565b6007905161469c816122d6565b6146a5816122d6565b146146af57505f90565b6137c061452a610b6b6146cf614183945160208082518301019101613cfb565b9094915061451a6146de613b7a565b916146f68751845180911090816147a7575b50613d2b565b6145116147048851856123b6565b51976146256147148451876123b6565b518a516001600160a01b0316151580614785575b61473190613d6d565b8a51614765906001600160a01b03168251614754906001600160a01b03166102f5565b6001600160a01b0390911614613db0565b60208b0161477c6020825193019283511115613dfc565b519051906127c5565b5080516147319061479e906001600160a01b03166102f5565b15159050614728565b90508251105f6146f0565b7f33a7f7e91c7e5e97e4035e86e424aaeb97691c852dc81d823520f664cc2ca71c5c90604051918083528060051c5f5b818110614827575090602091601f8216614807575b50601f01601f1916830101604052565b5f5160206157915f395f51905f52015c601f19821685018301525f6147f7565b805f5160206157915f395f51905f52600192015c60208260051b88010152016147e2565b919060a0838203126101b357806080613d24610a6a9386613c76565b1561486e57565b60405162461bcd60e51b81526020600482015260146024820152730a0eae6d0a8ded6cadc7440c4c2c840d2dcc8caf60631b6044820152606490fd5b156148b157565b60405162461bcd60e51b8152602060048201526015602482015274283ab9b42a37b5b2b71d103d32b937903a37b5b2b760591b6044820152606490fd5b604051906148fb826113fa565b5f6060838281528260208201528260408201520152565b610b6b6137c06020610223930161451a61493682516020808251830101910161484b565b9050614940613b7a565b9261494e8251855111614867565b6149598251856123b6565b518051614970906001600160a01b031615156148aa565b602081018051614986575b50505061119361146c565b6149cf60406149c06102f56149b16149d7976149a06148ee565b50516020808251830101910161484b565b5095516001600160a01b031690565b9301516001600160a01b031690565b9051916130fa565b5f808061497b565b60408101516001600160a01b03163303614a58576020808201805183516040516323b872dd60e01b948101949094523360248501523060448501526064840152610223939192614a3f916001600160a01b031661313d826084810161312f565b6141ef614a4a61256f565b92516001600160a01b031690565b60405162461bcd60e51b815260206004820152600e60248201526d139bdd08185d5d1a1bdc9a5e995960921b6044820152606490fd5b60405190614a9d60608361144b565b602e82526d707574732e6c656e6774683d257360901b6040837f466c6173684c6f616e3a20696e7075745074722e696e6465783d25732c20696e60208201520152565b15614ae757565b60405162461bcd60e51b815260206004820152601460248201527308cd8c2e6d098dec2dc7440c4c2c840d2dcc8caf60631b6044820152606490fd5b60405190614b3260408361144b565b601e82527f466c6173684c6f616e3a20746f6b656e3d25732c20616d6f756e743d257300006020830152565b15614b6557565b60405162461bcd60e51b8152602060048201526015602482015274233630b9b42637b0b71d103d32b937903a37b5b2b760591b6044820152606490fd5b15614ba957565b60405162461bcd60e51b8152602060048201526016602482015275119b185cda131bd85b8e881e995c9bc8185b5bdd5b9d60521b6044820152606490fd5b600411156122e057565b60405190614c0060408361144b565b6016825275466c6173684c6f616e3a2070726f76696465723d257360501b6020830152565b15614c2c57565b60405162461bcd60e51b815260206004820152602a60248201527f466c6173684c6f616e3a20556e6973776170563320726571756972657320706f6044820152696f6c206164647265737360b01b6064820152608490fd5b90614cbb90614c91613b7a565b90614ca78151835190614ca2614a8e565b614e2c565b614cb48151835111614ae0565b51906123b6565b5180519092906001600160a01b031691614ce36020850193845190614cde614b23565b614e75565b8351614cf9906001600160a01b03161515614b5e565b614d0583511515614ba2565b614d0e81614be7565b614d1a81613644614bf1565b614d2381614be7565b80614d4a575050905161022391906001600160a01b03169051614d4461221a565b9161552f565b614d5381614be7565b60018103614d7357505090519051610223916001600160a01b0316615377565b614d7c81614be7565b60028103614da6575050905161022391906001600160a01b03169051614da061221a565b91615247565b80614db5600392949394614be7565b03614de75761022392614dd690610ae96001600160a01b0385161515614c25565b905190614de161221a565b92614ec8565b60405162461bcd60e51b815260206004820152601f60248201527f466c6173684c6f616e3a20756e737570706f727465642070726f7669646572006044820152606490fd5b6130cf90614e5c926102239460405194859363ca47c4eb60e01b602086015260606024860152608485019061061e565b916044840152606483015203601f19810183528261144b565b6130cf90614ea59261022394604051948593630d26b92560e01b602086015260606024860152608485019061061e565b6001600160a01b039092166044840152606483015203601f19810183528261144b565b6005805460ff60a01b198116600160a01b17909155600680546001600160a01b0319166001600160a01b0380851691821790925595949291614f0c911615156150d0565b614f17851515615112565b614f2282151561514e565b604051630dfe168160e01b8152602081600481895afa908115610476575f916150b1575b5060405163d21220a760e01b8152916020836004818a5afa928315610476575f9361507c575b506001600160a01b03858116938116841496921683149291614fb09190611d5f908590818015615075575b614fa09061519a565b87604051998a95602087016151da565b5f5160206157b15f395f51905f5260405180614fe4868291906020604084019369554e49535741505f563360b01b81520152565b0390a21561506e5780925b1561506657925b803b156101b357615022935f8094604051968795869485936312439b2f60e21b8552306004860161521c565b03925af1801561047657615052575b50600680546001600160a01b03191690555b6005805460ff60a01b19169055565b8061096c5f6150609361144b565b5f615031565b505f92614ff6565b5f92614fef565b5089614f97565b614fb09193506150a39060203d6020116150aa575b61509b818361144b565b810190615185565b9290614f6c565b503d615091565b6150ca915060203d6020116150aa5761509b818361144b565b5f614f46565b156150d757565b60405162461bcd60e51b8152602060048201526013602482015272155b9a5cddd85c081d8cc8191a5cd8589b1959606a1b6044820152606490fd5b1561511957565b60405162461bcd60e51b815260206004820152600d60248201526c141bdbdb081c995c5d5a5c9959609a1b6044820152606490fd5b1561515557565b60405162461bcd60e51b81526020600482015260086024820152670416d6f756e743d360c41b6044820152606490fd5b908160209103126101b35751610a6a81610207565b156151a157565b60405162461bcd60e51b8152602060048201526011602482015270151bdad95b881b9bdd081a5b881c1bdbdb607a1b6044820152606490fd5b6001600160a01b03918216815291166020820152604081019190915260a0606082018190529293929091608091615214919084019061061e565b931515910152565b9092608092610a6a959460018060a01b0316835260208301526040820152816060820152019061061e565b6004546005805460ff60a01b1916600160a01b179055600680546001600160a01b0319166001600160a01b0383169081179091559293919215615301576102f56152d5916040515f5160206157b15f395f51905f5260018060a01b03871691806152c68a8291906020604084019366414156455f563360c81b81520152565b0390a26001600160a01b031690565b803b156101b357615022935f8094604051968795869485936310ac2ddf60e21b85523060048601615339565b60405162461bcd60e51b815260206004820152601060248201526f10585d99481d8cc8191a5cd8589b195960821b6044820152606490fd5b6001600160a01b03918216815291166020820152604081019190915260a0606082018190529092915f916080916153729186019061061e565b930152565b6003546005805460ff60a01b1916600160a01b179055600680546001600160a01b0319166001600160a01b0383169081179091555f9384936154819361542593615464936102f59390915f5160206157b15f395f51905f52916152c6916153df9015156154c7565b604080516001600160a01b0383166020820152908101859052615433906154098160608101610b6b565b60405163bf11f4af60e01b6020820152998a9160248301613091565b03601f1981018a528961144b565b604080516a42414c414e4345525f563360a81b815260208101959095526001600160a01b0390911693918291820190565b906040519485809481936348c8949160e01b835260048301613091565b03925af18015610476576154a55750600680546001600160a01b0319169055615043565b6154c0903d805f833e6154b8818361144b565b81019061550a565b505f615031565b156154ce57565b60405162461bcd60e51b815260206004820152601460248201527310985b185b98d95c881d8cc8191a5cd8589b195960621b6044820152606490fd5b906020828203126101b35781516001600160401b0381116101b357610a6a9201612a53565b6002546005805460ff60a01b1916600160a01b179055600680546001600160a01b0319166001600160a01b038316908117909155929391926155e3916102f59161557a90151561560f565b615582615652565b946001600160a01b031661559981610b0088612399565b5f5160206157b15f395f51905f526152c66155b2615652565b98806155bd8b612399565b52604051918291829190602060408401936a2120a620a721a2a92fab1960a91b81520152565b803b156101b357615022935f809460405196879586948593632e1c224f60e11b85523060048601615674565b1561561657565b60405162461bcd60e51b815260206004820152601460248201527310985b185b98d95c881d8c88191a5cd8589b195960621b6044820152606490fd5b60408051909190615663838261144b565b6001815291601f1901366020840137565b6001600160a01b03909116815260806020808301829052835191830182905260a0830196959301905f5b8181106156f35750505080850360408201526020808451968781520193015f955b8087106156db575050610a6a939450606081840391015261061e565b909360208060019287518152019501960195906156bf565b82516001600160a01b031688526020978801979092019160010161569e565b90615736575080511561572757805190602001fd5b630a12f52160e11b5f5260045ffd5b81511580615767575b615747575090565b639996b31560e01b5f9081526001600160a01b0391909116600452602490fd5b50803b1561573f56feb21eee5e191a9cc1ec41621c9a0fea677a897b20b22a856449974d61f8061ac433a7f7e91c7e5e97e4035e86e424aaeb97691c852dc81d823520f664cc2ca71d1fd78546830bb8c24aefbbf22320d9d28d30decfca91ec0a9caf26e93c576d125f92431fdc2b6bf66f91a326fa06b3fad6b4ab24047c9be12b7f412fbfbaa1eda26469706673582212209a516fcf9f6aa7d27c3182274855ed56b2357ec5403d2b9dc907896a9f5ea16264736f6c634300081e0033",
  "devdoc": {
    "errors": {
      "AddressEmptyCode(address)": [
        {
          "details": "There's no code at `target` (it is not a contract)."
        }
      ],
      "AddressInsufficientBalance(address)": [
        {
          "details": "The ETH balance of the account is not enough to perform the operation."
        }
      ],
      "FailedInnerCall()": [
        {
          "details": "A call to an address target failed. The target may have reverted."
        }
      ],
      "OwnableInvalidOwner(address)": [
        {
          "details": "The owner is not a valid owner account. (eg. `address(0)`)"
        }
      ],
      "OwnableUnauthorizedAccount(address)": [
        {
          "details": "The caller account is not authorized to perform an operation."
        }
      ],
      "ReentrancyGuardReentrantCall()": [
        {
          "details": "Unauthorized reentrant call."
        }
      ],
      "SafeERC20FailedOperation(address)": [
        {
          "details": "An operation with an ERC20 token failed."
        }
      ]
    },
    "kind": "dev",
    "methods": {
      "owner()": {
        "details": "Returns the address of the current owner."
      },
      "renounceOwnership()": {
        "details": "Leaves the contract without owner. It will not be possible to call `onlyOwner` functions. Can only be called by the current owner. NOTE: Renouncing ownership will leave the contract without an owner, thereby disabling any functionality that is only available to the owner."
      },
      "transferOwnership(address)": {
        "details": "Transfers ownership of the contract to a new account (`newOwner`). Can only be called by the current owner."
      }
    },
    "version": 1
  },
  "userdoc": {
    "kind": "user",
    "methods": {
      "executeOperation(address,uint256,uint256,address,bytes)": {
        "notice": "Aave v3 callback. Approve Pool for principal+premium; return true to finalize."
      },
      "receiveFlashLoan(address[],uint256[],uint256[],bytes)": {
        "notice": "Balancer v2 callback."
      },
      "receiveFlashLoanV3(bytes)": {
        "notice": "Balancer v3 callback, runs in unlocked context."
      },
      "uniswapV3FlashCallback(uint256,uint256,bytes)": {
        "notice": "Uniswap v3 flash callback. Must repay (amount + fee) to the *pool* (msg.sender)."
      }
    },
    "version": 1
  },
  "storageLayout": {
    "storage": [
      {
        "astId": 8,
        "contract": "contracts/v2/KapanRouter.sol:KapanRouter",
        "label": "_owner",
        "offset": 0,
        "slot": "0",
        "type": "t_address"
      },
      {
        "astId": 845,
        "contract": "contracts/v2/KapanRouter.sol:KapanRouter",
        "label": "_status",
        "offset": 0,
        "slot": "1",
        "type": "t_uint256"
      },
      {
        "astId": 5186,
        "contract": "contracts/v2/KapanRouter.sol:KapanRouter",
        "label": "balancerV2Vault",
        "offset": 0,
        "slot": "2",
        "type": "t_contract(IFlashLoanProvider)6129"
      },
      {
        "astId": 5189,
        "contract": "contracts/v2/KapanRouter.sol:KapanRouter",
        "label": "balancerV3Vault",
        "offset": 0,
        "slot": "3",
        "type": "t_contract(IVaultV3)6155"
      },
      {
        "astId": 5192,
        "contract": "contracts/v2/KapanRouter.sol:KapanRouter",
        "label": "aaveV3Pool",
        "offset": 0,
        "slot": "4",
        "type": "t_contract(IAaveV3Pool)5138"
      },
      {
        "astId": 5194,
        "contract": "contracts/v2/KapanRouter.sol:KapanRouter",
        "label": "uniswapV3FactoryOrSentinel",
        "offset": 0,
        "slot": "5",
        "type": "t_address"
      },
      {
        "astId": 5196,
        "contract": "contracts/v2/KapanRouter.sol:KapanRouter",
        "label": "flashLoanEnabled",
        "offset": 20,
        "slot": "5",
        "type": "t_bool"
      },
      {
        "astId": 5198,
        "contract": "contracts/v2/KapanRouter.sol:KapanRouter",
        "label": "authorizedFlashSender",
        "offset": 0,
        "slot": "6",
        "type": "t_address"
      },
      {
        "astId": 947,
        "contract": "contracts/v2/KapanRouter.sol:KapanRouter",
        "label": "gateways",
        "offset": 0,
        "slot": "7",
        "type": "t_mapping(t_string_memory_ptr,t_contract(IGateway)6068)"
      }
    ],
    "types": {
      "t_address": {
        "encoding": "inplace",
        "label": "address",
        "numberOfBytes": "20"
      },
      "t_bool": {
        "encoding": "inplace",
        "label": "bool",
        "numberOfBytes": "1"
      },
      "t_contract(IAaveV3Pool)5138": {
        "encoding": "inplace",
        "label": "contract IAaveV3Pool",
        "numberOfBytes": "20"
      },
      "t_contract(IFlashLoanProvider)6129": {
        "encoding": "inplace",
        "label": "contract IFlashLoanProvider",
        "numberOfBytes": "20"
      },
      "t_contract(IGateway)6068": {
        "encoding": "inplace",
        "label": "contract IGateway",
        "numberOfBytes": "20"
      },
      "t_contract(IVaultV3)6155": {
        "encoding": "inplace",
        "label": "contract IVaultV3",
        "numberOfBytes": "20"
      },
      "t_mapping(t_string_memory_ptr,t_contract(IGateway)6068)": {
        "encoding": "mapping",
        "key": "t_string_memory_ptr",
        "label": "mapping(string => contract IGateway)",
        "numberOfBytes": "32",
        "value": "t_contract(IGateway)6068"
      },
      "t_string_memory_ptr": {
        "encoding": "bytes",
        "label": "string",
        "numberOfBytes": "32"
      },
      "t_uint256": {
        "encoding": "inplace",
        "label": "uint256",
        "numberOfBytes": "32"
      }
    }
  }
}