{
  "address": "0x51de2C8b217C1ecdBF7b8E9d9092d4eF013E5A55",
  "abi": [
    {
      "inputs": [
        {
          "internalType": "address",
          "name": "morpho_",
          "type": "address"
        },
        {
          "internalType": "address",
          "name": "owner_",
          "type": "address"
        }
      ],
      "stateMutability": "nonpayable",
      "type": "constructor"
    },
    {
      "inputs": [
        {
          "internalType": "address",
          "name": "owner",
          "type": "address"
        }
      ],
      "name": "OwnableInvalidOwner",
      "type": "error"
    },
    {
      "inputs": [
        {
          "internalType": "address",
          "name": "account",
          "type": "address"
        }
      ],
      "name": "OwnableUnauthorizedAccount",
      "type": "error"
    },
    {
      "anonymous": false,
      "inputs": [
        {
          "indexed": true,
          "internalType": "bytes32",
          "name": "marketId",
          "type": "bytes32"
        },
        {
          "indexed": false,
          "internalType": "address",
          "name": "loanToken",
          "type": "address"
        },
        {
          "indexed": false,
          "internalType": "address",
          "name": "collateralToken",
          "type": "address"
        }
      ],
      "name": "MarketRegistered",
      "type": "event"
    },
    {
      "anonymous": false,
      "inputs": [
        {
          "indexed": true,
          "internalType": "bytes32",
          "name": "marketId",
          "type": "bytes32"
        }
      ],
      "name": "MarketRemoved",
      "type": "event"
    },
    {
      "anonymous": false,
      "inputs": [
        {
          "indexed": true,
          "internalType": "address",
          "name": "previousOwner",
          "type": "address"
        },
        {
          "indexed": true,
          "internalType": "address",
          "name": "newOwner",
          "type": "address"
        }
      ],
      "name": "OwnershipTransferred",
      "type": "event"
    },
    {
      "inputs": [
        {
          "components": [
            {
              "internalType": "address",
              "name": "loanToken",
              "type": "address"
            },
            {
              "internalType": "address",
              "name": "collateralToken",
              "type": "address"
            },
            {
              "internalType": "address",
              "name": "oracle",
              "type": "address"
            },
            {
              "internalType": "address",
              "name": "irm",
              "type": "address"
            },
            {
              "internalType": "uint256",
              "name": "lltv",
              "type": "uint256"
            }
          ],
          "internalType": "struct MarketParams",
          "name": "params",
          "type": "tuple"
        }
      ],
      "name": "computeMarketId",
      "outputs": [
        {
          "internalType": "bytes32",
          "name": "",
          "type": "bytes32"
        }
      ],
      "stateMutability": "pure",
      "type": "function"
    },
    {
      "inputs": [],
      "name": "getAllMarketsInfo",
      "outputs": [
        {
          "components": [
            {
              "internalType": "bytes32",
              "name": "marketId",
              "type": "bytes32"
            },
            {
              "internalType": "address",
              "name": "loanToken",
              "type": "address"
            },
            {
              "internalType": "address",
              "name": "collateralToken",
              "type": "address"
            },
            {
              "internalType": "string",
              "name": "loanSymbol",
              "type": "string"
            },
            {
              "internalType": "string",
              "name": "collateralSymbol",
              "type": "string"
            },
            {
              "internalType": "uint8",
              "name": "loanDecimals",
              "type": "uint8"
            },
            {
              "internalType": "uint8",
              "name": "collateralDecimals",
              "type": "uint8"
            },
            {
              "internalType": "uint256",
              "name": "lltv",
              "type": "uint256"
            },
            {
              "internalType": "uint256",
              "name": "totalSupplyAssets",
              "type": "uint256"
            },
            {
              "internalType": "uint256",
              "name": "totalBorrowAssets",
              "type": "uint256"
            },
            {
              "internalType": "uint256",
              "name": "utilizationRate",
              "type": "uint256"
            },
            {
              "internalType": "uint256",
              "name": "borrowRate",
              "type": "uint256"
            },
            {
              "internalType": "uint256",
              "name": "supplyRate",
              "type": "uint256"
            },
            {
              "internalType": "uint256",
              "name": "oraclePrice",
              "type": "uint256"
            }
          ],
          "internalType": "struct MorphoBlueGatewayView.MarketInfo[]",
          "name": "infos",
          "type": "tuple[]"
        }
      ],
      "stateMutability": "view",
      "type": "function"
    },
    {
      "inputs": [
        {
          "internalType": "address",
          "name": "user",
          "type": "address"
        }
      ],
      "name": "getAllPositions",
      "outputs": [
        {
          "components": [
            {
              "internalType": "bytes32",
              "name": "marketId",
              "type": "bytes32"
            },
            {
              "internalType": "address",
              "name": "loanToken",
              "type": "address"
            },
            {
              "internalType": "address",
              "name": "collateralToken",
              "type": "address"
            },
            {
              "internalType": "uint256",
              "name": "collateralBalance",
              "type": "uint256"
            },
            {
              "internalType": "uint256",
              "name": "borrowBalance",
              "type": "uint256"
            },
            {
              "internalType": "uint256",
              "name": "supplyBalance",
              "type": "uint256"
            },
            {
              "internalType": "uint256",
              "name": "collateralValueUsd",
              "type": "uint256"
            },
            {
              "internalType": "uint256",
              "name": "borrowValueUsd",
              "type": "uint256"
            },
            {
              "internalType": "uint256",
              "name": "currentLtv",
              "type": "uint256"
            },
            {
              "internalType": "uint256",
              "name": "maxLtv",
              "type": "uint256"
            },
            {
              "internalType": "uint256",
              "name": "healthFactor",
              "type": "uint256"
            },
            {
              "internalType": "bool",
              "name": "isHealthy",
              "type": "bool"
            }
          ],
          "internalType": "struct MorphoBlueGatewayView.UserPosition[]",
          "name": "positions",
          "type": "tuple[]"
        }
      ],
      "stateMutability": "view",
      "type": "function"
    },
    {
      "inputs": [
        {
          "components": [
            {
              "internalType": "address",
              "name": "loanToken",
              "type": "address"
            },
            {
              "internalType": "address",
              "name": "collateralToken",
              "type": "address"
            },
            {
              "internalType": "address",
              "name": "oracle",
              "type": "address"
            },
            {
              "internalType": "address",
              "name": "irm",
              "type": "address"
            },
            {
              "internalType": "uint256",
              "name": "lltv",
              "type": "uint256"
            }
          ],
          "internalType": "struct MarketParams",
          "name": "params",
          "type": "tuple"
        }
      ],
      "name": "getBorrowApr",
      "outputs": [
        {
          "internalType": "uint256",
          "name": "",
          "type": "uint256"
        }
      ],
      "stateMutability": "view",
      "type": "function"
    },
    {
      "inputs": [
        {
          "components": [
            {
              "internalType": "address",
              "name": "loanToken",
              "type": "address"
            },
            {
              "internalType": "address",
              "name": "collateralToken",
              "type": "address"
            },
            {
              "internalType": "address",
              "name": "oracle",
              "type": "address"
            },
            {
              "internalType": "address",
              "name": "irm",
              "type": "address"
            },
            {
              "internalType": "uint256",
              "name": "lltv",
              "type": "uint256"
            }
          ],
          "internalType": "struct MarketParams",
          "name": "params",
          "type": "tuple"
        },
        {
          "internalType": "address",
          "name": "user",
          "type": "address"
        }
      ],
      "name": "getBorrowBalance",
      "outputs": [
        {
          "internalType": "uint256",
          "name": "",
          "type": "uint256"
        }
      ],
      "stateMutability": "view",
      "type": "function"
    },
    {
      "inputs": [
        {
          "components": [
            {
              "internalType": "address",
              "name": "loanToken",
              "type": "address"
            },
            {
              "internalType": "address",
              "name": "collateralToken",
              "type": "address"
            },
            {
              "internalType": "address",
              "name": "oracle",
              "type": "address"
            },
            {
              "internalType": "address",
              "name": "irm",
              "type": "address"
            },
            {
              "internalType": "uint256",
              "name": "lltv",
              "type": "uint256"
            }
          ],
          "internalType": "struct MarketParams",
          "name": "params",
          "type": "tuple"
        }
      ],
      "name": "getBorrowRate",
      "outputs": [
        {
          "internalType": "uint256",
          "name": "",
          "type": "uint256"
        }
      ],
      "stateMutability": "view",
      "type": "function"
    },
    {
      "inputs": [
        {
          "components": [
            {
              "internalType": "address",
              "name": "loanToken",
              "type": "address"
            },
            {
              "internalType": "address",
              "name": "collateralToken",
              "type": "address"
            },
            {
              "internalType": "address",
              "name": "oracle",
              "type": "address"
            },
            {
              "internalType": "address",
              "name": "irm",
              "type": "address"
            },
            {
              "internalType": "uint256",
              "name": "lltv",
              "type": "uint256"
            }
          ],
          "internalType": "struct MarketParams",
          "name": "params",
          "type": "tuple"
        },
        {
          "internalType": "address",
          "name": "user",
          "type": "address"
        }
      ],
      "name": "getCollateralBalance",
      "outputs": [
        {
          "internalType": "uint256",
          "name": "",
          "type": "uint256"
        }
      ],
      "stateMutability": "view",
      "type": "function"
    },
    {
      "inputs": [
        {
          "components": [
            {
              "internalType": "address",
              "name": "loanToken",
              "type": "address"
            },
            {
              "internalType": "address",
              "name": "collateralToken",
              "type": "address"
            },
            {
              "internalType": "address",
              "name": "oracle",
              "type": "address"
            },
            {
              "internalType": "address",
              "name": "irm",
              "type": "address"
            },
            {
              "internalType": "uint256",
              "name": "lltv",
              "type": "uint256"
            }
          ],
          "internalType": "struct MarketParams[]",
          "name": "paramsList",
          "type": "tuple[]"
        }
      ],
      "name": "getMarketConfigs",
      "outputs": [
        {
          "components": [
            {
              "internalType": "bytes32",
              "name": "marketId",
              "type": "bytes32"
            },
            {
              "internalType": "address",
              "name": "loanToken",
              "type": "address"
            },
            {
              "internalType": "address",
              "name": "collateralToken",
              "type": "address"
            },
            {
              "internalType": "uint256",
              "name": "lltv",
              "type": "uint256"
            },
            {
              "internalType": "uint256",
              "name": "oraclePrice",
              "type": "uint256"
            },
            {
              "internalType": "uint8",
              "name": "loanDecimals",
              "type": "uint8"
            },
            {
              "internalType": "uint8",
              "name": "collateralDecimals",
              "type": "uint8"
            },
            {
              "internalType": "bool",
              "name": "isActive",
              "type": "bool"
            }
          ],
          "internalType": "struct MorphoBlueGatewayView.MarketConfigData[]",
          "name": "configs",
          "type": "tuple[]"
        }
      ],
      "stateMutability": "view",
      "type": "function"
    },
    {
      "inputs": [
        {
          "components": [
            {
              "internalType": "address",
              "name": "loanToken",
              "type": "address"
            },
            {
              "internalType": "address",
              "name": "collateralToken",
              "type": "address"
            },
            {
              "internalType": "address",
              "name": "oracle",
              "type": "address"
            },
            {
              "internalType": "address",
              "name": "irm",
              "type": "address"
            },
            {
              "internalType": "uint256",
              "name": "lltv",
              "type": "uint256"
            }
          ],
          "internalType": "struct MarketParams",
          "name": "params",
          "type": "tuple"
        }
      ],
      "name": "getMarketInfo",
      "outputs": [
        {
          "components": [
            {
              "internalType": "bytes32",
              "name": "marketId",
              "type": "bytes32"
            },
            {
              "internalType": "address",
              "name": "loanToken",
              "type": "address"
            },
            {
              "internalType": "address",
              "name": "collateralToken",
              "type": "address"
            },
            {
              "internalType": "string",
              "name": "loanSymbol",
              "type": "string"
            },
            {
              "internalType": "string",
              "name": "collateralSymbol",
              "type": "string"
            },
            {
              "internalType": "uint8",
              "name": "loanDecimals",
              "type": "uint8"
            },
            {
              "internalType": "uint8",
              "name": "collateralDecimals",
              "type": "uint8"
            },
            {
              "internalType": "uint256",
              "name": "lltv",
              "type": "uint256"
            },
            {
              "internalType": "uint256",
              "name": "totalSupplyAssets",
              "type": "uint256"
            },
            {
              "internalType": "uint256",
              "name": "totalBorrowAssets",
              "type": "uint256"
            },
            {
              "internalType": "uint256",
              "name": "utilizationRate",
              "type": "uint256"
            },
            {
              "internalType": "uint256",
              "name": "borrowRate",
              "type": "uint256"
            },
            {
              "internalType": "uint256",
              "name": "supplyRate",
              "type": "uint256"
            },
            {
              "internalType": "uint256",
              "name": "oraclePrice",
              "type": "uint256"
            }
          ],
          "internalType": "struct MorphoBlueGatewayView.MarketInfo",
          "name": "info",
          "type": "tuple"
        }
      ],
      "stateMutability": "view",
      "type": "function"
    },
    {
      "inputs": [
        {
          "internalType": "bytes32",
          "name": "marketId",
          "type": "bytes32"
        }
      ],
      "name": "getMarketParams",
      "outputs": [
        {
          "components": [
            {
              "internalType": "address",
              "name": "loanToken",
              "type": "address"
            },
            {
              "internalType": "address",
              "name": "collateralToken",
              "type": "address"
            },
            {
              "internalType": "address",
              "name": "oracle",
              "type": "address"
            },
            {
              "internalType": "address",
              "name": "irm",
              "type": "address"
            },
            {
              "internalType": "uint256",
              "name": "lltv",
              "type": "uint256"
            }
          ],
          "internalType": "struct MarketParams",
          "name": "",
          "type": "tuple"
        }
      ],
      "stateMutability": "view",
      "type": "function"
    },
    {
      "inputs": [
        {
          "components": [
            {
              "internalType": "address",
              "name": "loanToken",
              "type": "address"
            },
            {
              "internalType": "address",
              "name": "collateralToken",
              "type": "address"
            },
            {
              "internalType": "address",
              "name": "oracle",
              "type": "address"
            },
            {
              "internalType": "address",
              "name": "irm",
              "type": "address"
            },
            {
              "internalType": "uint256",
              "name": "lltv",
              "type": "uint256"
            }
          ],
          "internalType": "struct MarketParams",
          "name": "params",
          "type": "tuple"
        }
      ],
      "name": "getMarketState",
      "outputs": [
        {
          "internalType": "uint256",
          "name": "totalSupplyAssets",
          "type": "uint256"
        },
        {
          "internalType": "uint256",
          "name": "totalBorrowAssets",
          "type": "uint256"
        },
        {
          "internalType": "uint256",
          "name": "utilizationRate",
          "type": "uint256"
        }
      ],
      "stateMutability": "view",
      "type": "function"
    },
    {
      "inputs": [
        {
          "components": [
            {
              "internalType": "address",
              "name": "loanToken",
              "type": "address"
            },
            {
              "internalType": "address",
              "name": "collateralToken",
              "type": "address"
            },
            {
              "internalType": "address",
              "name": "oracle",
              "type": "address"
            },
            {
              "internalType": "address",
              "name": "irm",
              "type": "address"
            },
            {
              "internalType": "uint256",
              "name": "lltv",
              "type": "uint256"
            }
          ],
          "internalType": "struct MarketParams",
          "name": "params",
          "type": "tuple"
        }
      ],
      "name": "getOraclePrice",
      "outputs": [
        {
          "internalType": "uint256",
          "name": "",
          "type": "uint256"
        }
      ],
      "stateMutability": "view",
      "type": "function"
    },
    {
      "inputs": [
        {
          "components": [
            {
              "internalType": "address",
              "name": "loanToken",
              "type": "address"
            },
            {
              "internalType": "address",
              "name": "collateralToken",
              "type": "address"
            },
            {
              "internalType": "address",
              "name": "oracle",
              "type": "address"
            },
            {
              "internalType": "address",
              "name": "irm",
              "type": "address"
            },
            {
              "internalType": "uint256",
              "name": "lltv",
              "type": "uint256"
            }
          ],
          "internalType": "struct MarketParams",
          "name": "params",
          "type": "tuple"
        },
        {
          "internalType": "address",
          "name": "user",
          "type": "address"
        }
      ],
      "name": "getPosition",
      "outputs": [
        {
          "components": [
            {
              "internalType": "bytes32",
              "name": "marketId",
              "type": "bytes32"
            },
            {
              "internalType": "address",
              "name": "loanToken",
              "type": "address"
            },
            {
              "internalType": "address",
              "name": "collateralToken",
              "type": "address"
            },
            {
              "internalType": "uint256",
              "name": "collateralBalance",
              "type": "uint256"
            },
            {
              "internalType": "uint256",
              "name": "borrowBalance",
              "type": "uint256"
            },
            {
              "internalType": "uint256",
              "name": "supplyBalance",
              "type": "uint256"
            },
            {
              "internalType": "uint256",
              "name": "collateralValueUsd",
              "type": "uint256"
            },
            {
              "internalType": "uint256",
              "name": "borrowValueUsd",
              "type": "uint256"
            },
            {
              "internalType": "uint256",
              "name": "currentLtv",
              "type": "uint256"
            },
            {
              "internalType": "uint256",
              "name": "maxLtv",
              "type": "uint256"
            },
            {
              "internalType": "uint256",
              "name": "healthFactor",
              "type": "uint256"
            },
            {
              "internalType": "bool",
              "name": "isHealthy",
              "type": "bool"
            }
          ],
          "internalType": "struct MorphoBlueGatewayView.UserPosition",
          "name": "pos",
          "type": "tuple"
        }
      ],
      "stateMutability": "view",
      "type": "function"
    },
    {
      "inputs": [
        {
          "components": [
            {
              "internalType": "address",
              "name": "loanToken",
              "type": "address"
            },
            {
              "internalType": "address",
              "name": "collateralToken",
              "type": "address"
            },
            {
              "internalType": "address",
              "name": "oracle",
              "type": "address"
            },
            {
              "internalType": "address",
              "name": "irm",
              "type": "address"
            },
            {
              "internalType": "uint256",
              "name": "lltv",
              "type": "uint256"
            }
          ],
          "internalType": "struct MarketParams[]",
          "name": "paramsList",
          "type": "tuple[]"
        },
        {
          "internalType": "address",
          "name": "user",
          "type": "address"
        }
      ],
      "name": "getPositionsForMarkets",
      "outputs": [
        {
          "components": [
            {
              "internalType": "bytes32",
              "name": "marketId",
              "type": "bytes32"
            },
            {
              "internalType": "address",
              "name": "loanToken",
              "type": "address"
            },
            {
              "internalType": "address",
              "name": "collateralToken",
              "type": "address"
            },
            {
              "internalType": "uint256",
              "name": "collateralBalance",
              "type": "uint256"
            },
            {
              "internalType": "uint256",
              "name": "borrowBalance",
              "type": "uint256"
            },
            {
              "internalType": "uint256",
              "name": "supplyBalance",
              "type": "uint256"
            },
            {
              "internalType": "uint256",
              "name": "collateralValueUsd",
              "type": "uint256"
            },
            {
              "internalType": "uint256",
              "name": "borrowValueUsd",
              "type": "uint256"
            },
            {
              "internalType": "uint256",
              "name": "currentLtv",
              "type": "uint256"
            },
            {
              "internalType": "uint256",
              "name": "maxLtv",
              "type": "uint256"
            },
            {
              "internalType": "uint256",
              "name": "healthFactor",
              "type": "uint256"
            },
            {
              "internalType": "bool",
              "name": "isHealthy",
              "type": "bool"
            }
          ],
          "internalType": "struct MorphoBlueGatewayView.UserPosition[]",
          "name": "positions",
          "type": "tuple[]"
        }
      ],
      "stateMutability": "view",
      "type": "function"
    },
    {
      "inputs": [],
      "name": "getRegisteredMarketIds",
      "outputs": [
        {
          "internalType": "bytes32[]",
          "name": "",
          "type": "bytes32[]"
        }
      ],
      "stateMutability": "view",
      "type": "function"
    },
    {
      "inputs": [
        {
          "components": [
            {
              "internalType": "address",
              "name": "loanToken",
              "type": "address"
            },
            {
              "internalType": "address",
              "name": "collateralToken",
              "type": "address"
            },
            {
              "internalType": "address",
              "name": "oracle",
              "type": "address"
            },
            {
              "internalType": "address",
              "name": "irm",
              "type": "address"
            },
            {
              "internalType": "uint256",
              "name": "lltv",
              "type": "uint256"
            }
          ],
          "internalType": "struct MarketParams",
          "name": "params",
          "type": "tuple"
        }
      ],
      "name": "getSupplyApr",
      "outputs": [
        {
          "internalType": "uint256",
          "name": "",
          "type": "uint256"
        }
      ],
      "stateMutability": "view",
      "type": "function"
    },
    {
      "inputs": [
        {
          "components": [
            {
              "internalType": "address",
              "name": "loanToken",
              "type": "address"
            },
            {
              "internalType": "address",
              "name": "collateralToken",
              "type": "address"
            },
            {
              "internalType": "address",
              "name": "oracle",
              "type": "address"
            },
            {
              "internalType": "address",
              "name": "irm",
              "type": "address"
            },
            {
              "internalType": "uint256",
              "name": "lltv",
              "type": "uint256"
            }
          ],
          "internalType": "struct MarketParams",
          "name": "params",
          "type": "tuple"
        },
        {
          "internalType": "address",
          "name": "user",
          "type": "address"
        }
      ],
      "name": "getSupplyBalance",
      "outputs": [
        {
          "internalType": "uint256",
          "name": "",
          "type": "uint256"
        }
      ],
      "stateMutability": "view",
      "type": "function"
    },
    {
      "inputs": [
        {
          "internalType": "address",
          "name": "authorizer",
          "type": "address"
        },
        {
          "internalType": "address",
          "name": "authorized",
          "type": "address"
        }
      ],
      "name": "isAuthorized",
      "outputs": [
        {
          "internalType": "bool",
          "name": "",
          "type": "bool"
        }
      ],
      "stateMutability": "view",
      "type": "function"
    },
    {
      "inputs": [
        {
          "internalType": "bytes32",
          "name": "marketId",
          "type": "bytes32"
        }
      ],
      "name": "isMarketRegistered",
      "outputs": [
        {
          "internalType": "bool",
          "name": "",
          "type": "bool"
        }
      ],
      "stateMutability": "view",
      "type": "function"
    },
    {
      "inputs": [],
      "name": "morpho",
      "outputs": [
        {
          "internalType": "contract IMorphoBlue",
          "name": "",
          "type": "address"
        }
      ],
      "stateMutability": "view",
      "type": "function"
    },
    {
      "inputs": [],
      "name": "owner",
      "outputs": [
        {
          "internalType": "address",
          "name": "",
          "type": "address"
        }
      ],
      "stateMutability": "view",
      "type": "function"
    },
    {
      "inputs": [
        {
          "components": [
            {
              "internalType": "address",
              "name": "loanToken",
              "type": "address"
            },
            {
              "internalType": "address",
              "name": "collateralToken",
              "type": "address"
            },
            {
              "internalType": "address",
              "name": "oracle",
              "type": "address"
            },
            {
              "internalType": "address",
              "name": "irm",
              "type": "address"
            },
            {
              "internalType": "uint256",
              "name": "lltv",
              "type": "uint256"
            }
          ],
          "internalType": "struct MarketParams",
          "name": "params",
          "type": "tuple"
        }
      ],
      "name": "registerMarket",
      "outputs": [],
      "stateMutability": "nonpayable",
      "type": "function"
    },
    {
      "inputs": [
        {
          "components": [
            {
              "internalType": "address",
              "name": "loanToken",
              "type": "address"
            },
            {
              "internalType": "address",
              "name": "collateralToken",
              "type": "address"
            },
            {
              "internalType": "address",
              "name": "oracle",
              "type": "address"
            },
            {
              "internalType": "address",
              "name": "irm",
              "type": "address"
            },
            {
              "internalType": "uint256",
              "name": "lltv",
              "type": "uint256"
            }
          ],
          "internalType": "struct MarketParams[]",
          "name": "paramsList",
          "type": "tuple[]"
        }
      ],
      "name": "registerMarkets",
      "outputs": [],
      "stateMutability": "nonpayable",
      "type": "function"
    },
    {
      "inputs": [],
      "name": "registeredMarketCount",
      "outputs": [
        {
          "internalType": "uint256",
          "name": "",
          "type": "uint256"
        }
      ],
      "stateMutability": "view",
      "type": "function"
    },
    {
      "inputs": [],
      "name": "renounceOwnership",
      "outputs": [],
      "stateMutability": "nonpayable",
      "type": "function"
    },
    {
      "inputs": [
        {
          "internalType": "address",
          "name": "newOwner",
          "type": "address"
        }
      ],
      "name": "transferOwnership",
      "outputs": [],
      "stateMutability": "nonpayable",
      "type": "function"
    }
  ],
  "transactionHash": "0x29171a4d4c579ca599b32c381d20d5bf8cba0088747fcba569ef807e1cf18359",
  "args": [
    "0xBBBBBbbBBb9cC5e90e3b3Af64bdAF62C37EEFFCb",
    "0x0BE61223F99E57b8b8B7033a77B54Adc7f7cF027"
  ],
  "numDeployments": 9,
  "solcInputHash": "1b49466c4c87eb8e5d5f803414d57b80",
  "bytecode": "0x60a03461017957601f612f4638819003918201601f19168301916001600160401b0383118484101761017d5780849260409485528339810103126101795761004681610191565b906001600160a01b039061005c90602001610191565b16908115610166575f80546001600160a01b031981168417825560405193916001600160a01b03909116907f8be0079c531659141344cd1fd0a4f28419497f9722a3daafe3b4186f6b6457e09080a36001600160a01b03169081156101245750608052604051612da090816101a68239608051818181610155015281816104f7015281816106ea01528181610a3401528181610b3201528181610d2701528181611250015281816115bb0152818161250a01528181612636015281816129a10152612ae50152f35b62461bcd60e51b815260206004820152601860248201527f4d6f7270686f426c75653a207a65726f206164647265737300000000000000006044820152606490fd5b631e4fbdf760e01b5f525f60045260245ffd5b5f80fd5b634e487b7160e01b5f52604160045260245ffd5b51906001600160a01b03821682036101795756fe60806040526004361015610011575f80fd5b5f3560e01c8063139df20014611a2157806314a1883a14611a0257806320631e091461196a5780632222e4dd1461194d57806327251311146119325780632df3ef2b1461179d578063385ec17e1461176e5780633ab24191146117535780634d0ee9f314611654578063606f76541461163957806365e4ad9e146115755780636c1d4e32146111ec578063715018a6146111a857806373e3128b1461110f5780637a49408d14610cdc5780637d05ccdf14610bf2578063849efd0c14610af75780638da5cb5b14610ad057806393f8833914610aa5578063a5f565f6146109e3578063ac0513b2146106a8578063b512cdfe14610526578063d8fbc833146104e2578063eb944b15146104af578063f2fde38b1461043d5763fb11e96914610137575f80fd5b3461043957602036600319011261043957610150611e31565b6001547f00000000000000000000000000000000000000000000000000000000000000006001600160a01b0316905f805b82811061037357506101929061288b565b915f905f5b8381106101b057604051806101ac8782611f13565b0390f35b6101b98161204b565b90549060031b1c6040516349e2903160e11b8152606081806101df8b866004840161284d565b0381875afa908115610318575f91610345575b5060408101516001600160801b0316158015919061032e575b8115610323575b50610221575b50600101610197565b5f93919352600260205260405f2060046040519161023e83611f57565b80546001600160a01b0390811684526001820154811660208501526002820154811660408086019190915260038301549091166060850152910154608083015251637a49408d60e01b815290610298906004830190611df2565b6001600160a01b03871660a48201526101808160c481305afa918215610318576001926102e2925f916102e9575b506102d182896120ee565b526102dc81886120ee565b50612bdb565b9290610218565b61030b91506101803d8111610311575b6103038183611faa565b8101906128da565b5f6102c6565b503d6102f9565b6040513d5f823e3d90fd5b90505115155f610212565b60208101516001600160801b03161515915061020b565b610366915060603d811161036c575b61035e8183611faa565b8101906127fc565b5f6101f2565b503d610354565b6103a46060866103828461204b565b90549060031b1c60405193849283926349e2903160e11b84526004840161284d565b0381885afa908115610318575f9161041b575b5060408101516001600160801b03161580159190610404575b81156103f9575b506103e5575b600101610181565b906103f1600191612bdb565b9190506103dd565b90505115155f6103d7565b60208101516001600160801b0316151591506103d0565b610433915060603d811161036c5761035e8183611faa565b5f6103b7565b5f80fd5b3461043957602036600319011261043957610456611e31565b61045e612c0f565b6001600160a01b0316801561049c575f80546001600160a01b03198116831782556001600160a01b0316905f516020612d2b5f395f51905f529080a3005b631e4fbdf760e01b5f525f60045260245ffd5b3461043957366003190160c081126104395760a0136104395760206104da6104d5611e5d565b612ac5565b604051908152f35b34610439575f366003190112610439576040517f00000000000000000000000000000000000000000000000000000000000000006001600160a01b03168152602090f35b346104395760a03660031901126104395761053f612c0f565b61055061054b36612102565b612be9565b805f52600360205260ff60405f2054166106635761056d816123c0565b5f8181526002602052604090206001600160a01b0361058a6122d5565b82546001600160a01b03191691161781556105a36122eb565b6001820180546001600160a01b0319166001600160a01b039092169190911790556105cc612301565b6002820180546001600160a01b0319166001600160a01b03928316179055606435908116810361043957600382019060018060a01b031660018060a01b03198254161790556004608435910155805f52600360205260405f20600160ff198254161790555f516020612d4b5f395f51905f526106466122d5565b61064e6122eb565b9061065e60405192839283612409565b0390a2005b60405162461bcd60e51b815260206004820152601e60248201527f4d6f7270686f426c75653a20616c7265616479207265676973746572656400006044820152606490fd5b346104395760a0366003190112610439576106c1611fe4565b6106cd61054b36612102565b604051632e3071cd60e11b8152600481018290529060c0826024817f00000000000000000000000000000000000000000000000000000000000000006001600160a01b03165afa918215610318575f926109b2575b5082526001600160a01b036107356122d5565b1660208301526001600160a01b0361074b6122eb565b16604083015260ff61076361075e6122d5565b612c35565b1660a083015260ff61077661075e6122eb565b1660c083015261078c6107876122d5565b612ca7565b606083015261079c6107876122eb565b608083015260843560e083015280516001600160801b0390811661010084015260408201805182166101208501528251909116610955575b506001600160a01b0390506107e7612301565b166108d9575b6040516320631e0960e01b8152610806600482016121e5565b60208160a481305afa908115610318575f916108a7575b5061016082015260405163181bdd9560e21b81529061083e600483016121e5565b60208260a481305afa8015610318575f90610873575b6101ac9250610180820152604051918291602083526020830190611cfc565b506020823d60201161089f575b8161088d60209383611faa565b81010312610439576101ac9151610854565b3d9150610880565b90506020813d6020116108d1575b816108c260209383611faa565b8101031261043957518261081d565b3d91506108b5565b600460206001600160a01b036108ed612301565b166040519283809263501ad8ff60e11b82525afa5f9181610921575b50610915575b506107ed565b6101a08201528161090f565b9091506020813d60201161094d575b8161093d60209383611faa565b8101031261043957519083610909565b3d9150610930565b516001600160801b0316670de0b6b3a7640000818102918083049091149015171561099e579051610991916001600160801b03909116906125ed565b61014082015281806107d4565b634e487b7160e01b5f52601160045260245ffd5b6109d591925060c03d60c0116109dc575b6109cd8183611faa565b810190612437565b9083610722565b503d6109c3565b3461043957366003190160c081126104395760a01361043957610a306060610a09611e5d565b610a1561054b36612102565b6040516349e2903160e11b815293849283926004840161284d565b03817f00000000000000000000000000000000000000000000000000000000000000006001600160a01b03165afa8015610318576020915f91610a86575b5060409081015190516001600160801b039091168152f35b610a9f915060603d60601161036c5761035e8183611faa565b82610a6e565b3461043957366003190160c081126104395760a0136104395760206104da610acb611e5d565b612984565b34610439575f366003190112610439575f546040516001600160a01b039091168152602090f35b346104395760a0366003190112610439575f610b1561054b36612102565b604051632e3071cd60e11b8152600481019190915260c0816024817f00000000000000000000000000000000000000000000000000000000000000006001600160a01b03165afa908115610318575f91610bd3575b5080516040909101516001600160801b039081169291169081610b9d575b60609260405192835260208301526040820152f35b50670de0b6b3a7640000820291808304670de0b6b3a7640000148115171561099e57610bcb826060946125ed565b909250610b88565b610bec915060c03d60c0116109dc576109cd8183611faa565b82610b6a565b34610439576040366003190112610439576004356001600160401b03811161043957610c22903690600401611dc2565b90610c2b611e47565b610c348361288b565b926001600160a01b03909116905f5b818110610c5857604051806101ac8782611f13565b610c638183866123b0565b604051637a49408d60e01b81529190610c80906004840190612254565b8360a48301526101808260c481305afa8015610318576001925f91610cbd575b50610cab82886120ee565b52610cb681876120ee565b5001610c43565b610cd691506101803d8111610311576103038183611faa565b87610ca0565b3461043957366003190160c081126104395760a01361043957610d61610d00611e5d565b610d086127a4565b90610d1561054b36612102565b6040516349e2903160e11b81529390917f00000000000000000000000000000000000000000000000000000000000000006001600160a01b03169160609186918291866004840161284d565b0381845afa938415610318575f946110e6575b509060c060249260405193848092632e3071cd60e11b82528560048301525afa918215610318575f926110c5575b5082526001600160a01b03610db56122d5565b1660208301526001600160a01b03610dcb6122eb565b16604083015260018060801b036040840151169060608301918252608435938461012085015260018060801b03602082015116801515806110af575b611074575b5051908115158061105e575b611024575b506001600160a01b039050610e30612301565b1615158061101a575b15610ff657600460206001600160a01b03610e52612301565b166040519283809263501ad8ff60e11b82525afa5f9181610fc2575b50610e8b575b505061018091505b610e896040518092611e87565bf35b610e9661075e6122eb565b91610ebc610ea561075e6122d5565b926a0c097ce7bc90715b34b9f160241b92516122c2565b049060ff83811690821680821115610f94575050610ee0610ee591610eeb94612866565b61287a565b906125ed565b8060c083015260808201928351938460e085015282610f0b575b50610e74565b670de0b6b3a7640000850294808604670de0b6b3a7640000149015171561099e57610f3983610180966125ed565b610100850152805115610f7c57610f5c610f6492670de0b6b3a7640000946122c2565b9051906125ed565b8061014084015210156101608201525b828080610f05565b50505f19610140830152506001610160820152610f74565b93929311610fa4575b5050610eeb565b610ee0610fbb9392610fb592612866565b906122c2565b8380610f9d565b9091506020813d602011610fee575b81610fde60209383611faa565b8101031261043957519085610e6e565b3d9150610fd1565b5061018091506080810151610e7c575f196101408201526001610160820152610e7c565b5080511515610e39565b80516110529261103d916001600160801b0316906122c2565b6020909101516001600160801b0316906125ed565b60a08301528380610e1d565b5060208101516001600160801b03161515610e18565b60408301516110a491611090916001600160801b0316906122c2565b60608401516001600160801b0316906125ed565b608085015285610e0c565b5060608301516001600160801b03161515610e07565b6110df91925060c03d60c0116109dc576109cd8183611faa565b9084610da2565b60249291945061110660c09160603d60601161036c5761035e8183611faa565b94919250610d74565b34610439575f366003190112610439576040518060206001549283815201809260015f5260205f20905f5b8181106111925750505081611150910382611faa565b604051918291602083019060208452518091526040830191905f5b818110611179575050500390f35b825184528594506020938401939092019160010161116b565b825484526020909301926001928301920161113a565b34610439575f366003190112610439576111c0612c0f565b5f80546001600160a01b0319811682556001600160a01b03165f516020612d2b5f395f51905f528280a3005b34610439576020366003190112610439576004356001600160401b0381116104395761121c903690600401611dc2565b61122581611fcd565b916112336040519384611faa565b818352601f1961124283611fcd565b015f5b8181106115075750507f00000000000000000000000000000000000000000000000000000000000000006001600160a01b03165f5b83811061132657846040518091602082016020835281518091526020604084019201905f5b8181106112ad575050500390f35b91935091602061010060019260e0875180518352858060a01b03858201511685840152858060a01b036040820151166040840152606081015160608401526080810151608084015260ff60a08201511660a084015260ff60c08201511660c08401520151151560e082015201940191019184939261129f565b6113318185856123b0565b61133e61054b3683612183565b604051632e3071cd60e11b815260048101829052919060c083602481885afa908115610318576040935f926114e7575b50611379858a6120ee565b515261138482612317565b6020611390868b6120ee565b516001600160a01b0390921691015261140761075e602084018a866113be896113b885612317565b936120ee565b516001600160a01b03909216910152608085013560606113de898e6120ee565b5101528a60ff60a06113fc8a6113f661075e8b612317565b946120ee565b510191169052612317565b60ff60c0611415878c6120ee565b5191909216910152516001600160801b0316151560e0611435858a6120ee565b51015201906001600160a01b0361144b83612317565b1661145b575b600191500161127a565b6004916020906001600160a01b039061147390612317565b166040519384809263501ad8ff60e11b82525afa805f916114b3575b6001935061149e575b50611451565b60806114aa83896120ee565b51015286611498565b90506020833d82116114df575b816114cd60209383611faa565b8101031261043957600192519061148f565b3d91506114c0565b61150091925060c03d81116109dc576109cd8183611faa565b908961136e565b604051610100810191906001600160401b03831181841017611561576020926040525f81525f838201525f60408201525f60608201525f60808201525f60a08201525f60c08201525f60e082015282828801015201611245565b634e487b7160e01b5f52604160045260245ffd5b34610439576040366003190112610439576115b76020611593611e31565b61159b611e47565b6040516332f256cf60e11b815293849283929060048401612409565b03817f00000000000000000000000000000000000000000000000000000000000000006001600160a01b03165afa8015610318575f906115ff575b6020906040519015158152f35b506020813d602011611631575b8161161960209383611faa565b810103126104395761162c602091612797565b6115f2565b3d915061160c565b346104395760a03660031901126104395760206104da61260b565b34610439576020366003190112610439576004355f608060405161167781611f57565b8281528260208201528260408201528260608201520152805f52600360205260ff60405f20541615611711575f52600260205260a060405f206004604051916116bf83611f57565b600180851b038154168352600180851b036001820154166020840152600180851b036002820154166040840152600180851b03600382015416606084015201546080820152610e896040518092611df2565b60405162461bcd60e51b815260206004820152601a602482015279135bdc9c1a1bd09b1d594e881b9bdd081c9959da5cdd195c995960321b6044820152606490fd5b346104395760a03660031901126104395760206104da6124c3565b34610439576020366003190112610439576004355f526003602052602060ff60405f2054166040519015158152f35b34610439576020366003190112610439576004356001600160401b038111610439576117cd903690600401611dc2565b6117d5612c0f565b5f5b8181106117e057005b6001906117fa61054b366117f58487896123b0565b612183565b805f52600360205260ff60405f20541615611817575b50016117d7565b611820816123c0565b61182b8285876123b0565b815f5260026020526004608060405f2092868060a01b0361184b82612317565b16878060a01b031985541617845561186560208201612317565b87850190888060a01b0316888060a01b031982541617905561188960408201612317565b6002850190888060a01b0316888060a01b03198254161790556118ae60608201612317565b6003850190888060a01b0316888060a01b03198254161790550135910155805f52600360205260405f208360ff198254161790555f516020612d4b5f395f51905f526119036118fe8487896123b0565b612317565b611919602061191386898b6123b0565b01612317565b9061192960405192839283612409565b0390a284611810565b346104395760a03660031901126104395760206104da61232b565b34610439575f366003190112610439576020600154604051908152f35b346104395760a036600319011261043957604051633ab2419160e01b8152611994600482016121e5565b60208160a481305afa908115610318575f916119d0575b506301e133808102908082046301e13380149015171561099e57602090604051908152f35b90506020813d6020116119fa575b816119eb60209383611faa565b810103126104395751816119ab565b3d91506119de565b346104395760a03660031901126104395760206104da61054b36612102565b34610439575f36600319011261043957600154611a3d81611fcd565b90611a4b6040519283611faa565b808252601f19611a5a82611fcd565b015f5b818110611cc15750505f5b818110611ad657826040518091602082016020835281518091526040830190602060408260051b8601019301915f905b828210611aa757505050500390f35b91936001919395506020611ac68192603f198a82030186528851611cfc565b9601920192018594939192611a98565b611adf8161204b565b90549060031b1c5f52600260205260405f2090600460405192611b0184611f57565b80546001600160a01b039081168552600182015481166020860152600282015481166040808701919091526003830154909116606086015291015460808401525163560289d960e11b815291611b5b906004840190611df2565b5f8260a481305afa8015610318575f90611b90575b60019250611b7e82866120ee565b52611b8981856120ee565b5001611a68565b503d805f843e611ba08184611faa565b820191602081840312610439578051906001600160401b0382116104395701916101c0838203126104395760405190611bd882611f72565b83518252611be860208501612077565b6020830152611bf960408501612077565b604083015260608401516001600160401b0381116104395781611c1d91860161208b565b60608301526080840151936001600160401b03851161043957611c476101a092600196830161208b565b6080840152611c5860a082016120e0565b60a0840152611c6960c082016120e0565b60c084015260e081015160e084015261010081015161010084015261012081015161012084015261014081015161014084015261016081015161016084015261018081015161018084015201516101a0820152611b70565b602090611ccc611fe4565b82828701015201611a5d565b805180835260209291819084018484015e5f828201840152601f01601f1916010190565b908151815260018060a01b03602083015116602082015260018060a01b0360408301511660408201526101a080611d59611d4760608601516101c060608701526101c0860190611cd8565b60808601518582036080870152611cd8565b9360ff60a08201511660a085015260ff60c08201511660c085015260e081015160e0850152610100810151610100850152610120810151610120850152610140810151610140850152610160810151610160850152610180810151610180850152015191015290565b9181601f84011215610439578235916001600160401b0383116104395760208085019460a0850201011161043957565b80516001600160a01b03908116835260208083015182169084015260408083015182169084015260608083015190911690830152608090810151910152565b600435906001600160a01b038216820361043957565b602435906001600160a01b038216820361043957565b60a435906001600160a01b038216820361043957565b35906001600160a01b038216820361043957565b61016080918051845260018060a01b03602082015116602085015260018060a01b036040820151166040850152606081015160608501526080810151608085015260a081015160a085015260c081015160c085015260e081015160e085015261010081015161010085015261012081015161012085015261014081015161014085015201511515910152565b60206040818301928281528451809452019201905f5b818110611f365750505090565b909192602061018082611f4c6001948851611e87565b019401929101611f29565b60a081019081106001600160401b0382111761156157604052565b6101c081019081106001600160401b0382111761156157604052565b61018081019081106001600160401b0382111761156157604052565b601f909101601f19168101906001600160401b0382119082101761156157604052565b6001600160401b0381116115615760051b60200190565b60405190611ff182611f72565b5f6101a083828152826020820152826040820152606080820152606060808201528260a08201528260c08201528260e082015282610100820152826101208201528261014082015282610160820152826101808201520152565b6001548110156120635760015f5260205f2001905f90565b634e487b7160e01b5f52603260045260245ffd5b51906001600160a01b038216820361043957565b81601f82011215610439578051906001600160401b03821161156157604051926120bf601f8401601f191660200185611faa565b8284526020838301011161043957815f9260208093018386015e8301015290565b519060ff8216820361043957565b80518210156120635760209160051b010190565b60a0906003190112610439576040519061211b82611f57565b816004356001600160a01b03811681036104395781526024356001600160a01b03811681036104395760208201526044356001600160a01b03811681036104395760408201526064356001600160a01b03811681036104395760608201526080608435910152565b91908260a09103126104395760405161219b81611f57565b60808082946121a981611e73565b84526121b760208201611e73565b60208501526121c860408201611e73565b60408501526121d960608201611e73565b60608501520135910152565b6004356001600160a01b038116908190036104395781526024356001600160a01b038116908190036104395760208201526044356001600160a01b038116908190036104395760408201526064356001600160a01b038116908190036104395760608201526080608435910152565b60809081906001600160a01b0361226a82611e73565b1684526001600160a01b0361228160208301611e73565b1660208501526001600160a01b0361229b60408301611e73565b1660408501526001600160a01b036122b560608301611e73565b1660608501520135910152565b8181029291811591840414171561099e57565b6004356001600160a01b03811681036104395790565b6024356001600160a01b03811681036104395790565b6044356001600160a01b03811681036104395790565b356001600160a01b03811681036104395790565b6044356001600160a01b038116908181036104395781156123aa575060405163501ad8ff60e11b815290602090829060049082905afa5f9181612376575b5061237357505f90565b90565b9091506020813d6020116123a2575b8161239260209383611faa565b810103126104395751905f612369565b3d9150612385565b50505f90565b91908110156120635760a0020190565b600154600160401b81101561156157600181016001556001548110156120635760015f527fb10e2d527612073b26eecdfd717e6a320cf44b4afac2b0732d9fcbe2b7fa0cf60155565b6001600160a01b0391821681529116602082015260400190565b51906001600160801b038216820361043957565b908160c0910312610439576040519060c082016001600160401b03811183821017611561576124bb9160a09160405261246f81612423565b845261247d60208201612423565b602085015261248e60408201612423565b604085015261249f60608201612423565b60608501526124b060808201612423565b608085015201612423565b60a082015290565b6064356001600160a01b038116908181036104395781156123aa576124ec61054b366004612183565b604051632e3071cd60e11b815260048101919091529060c0826024817f00000000000000000000000000000000000000000000000000000000000000006001600160a01b03165afa908115610318576020925f926125cc575b505061016460405180948193638c00bf6b60e01b8352612569600484016004612254565b80516001600160801b0390811660a485015286820151811660c48501526040820151811660e4850152606082015181166101048501526080820151811661012485015260a090910151166101448301525afa5f9181612376575061237357505f90565b6125e691925060c03d60c0116109dc576109cd8183611faa565b905f612545565b81156125f7570490565b634e487b7160e01b5f52601260045260245ffd5b61261961054b366004612183565b604051632e3071cd60e11b8152600481019190915260c0816024817f00000000000000000000000000000000000000000000000000000000000000006001600160a01b03165afa908115610318575f91612778575b5080516001600160801b031615612773576040516320631e0960e01b81529061269b600480840190612254565b60208260a481305afa918215610318575f9261273f575b5060408101516001600160801b0316670de0b6b3a764000081810292918084049091149015171561099e57805161270b926126f6916001600160801b0316906125ed565b60a0909101516001600160801b0316926122c2565b90670de0b6b3a764000003670de0b6b3a7640000811161099e5761273a670de0b6b3a7640000929183926122c2565b040490565b9091506020813d60201161276b575b8161275b60209383611faa565b810103126104395751905f6126b2565b3d915061274e565b505f90565b612791915060c03d60c0116109dc576109cd8183611faa565b5f61266e565b5190811515820361043957565b604051906127b182611f8e565b5f610160838281528260208201528260408201528260608201528260808201528260a08201528260c08201528260e08201528261010082015282610120820152826101408201520152565b908160609103126104395760405190606082016001600160401b03811183821017611561576128459160409182528051845261283a60208201612423565b602085015201612423565b604082015290565b9081526001600160a01b03909116602082015260400190565b9060ff8091169116039060ff821161099e57565b60ff16604d811161099e57600a0a90565b9061289582611fcd565b6128a26040519182611faa565b82815280926128b3601f1991611fcd565b01905f5b8281106128c357505050565b6020906128ce6127a4565b828285010152016128b7565b90816101809103126104395761297b610160604051926128f984611f8e565b8051845261290960208201612077565b602085015261291a60408201612077565b6040850152606081015160608501526080810151608085015260a081015160a085015260c081015160c085015260e081015160e085015261010081015161010085015261012081015161012085015261014081015161014085015201612797565b61016082015290565b61299261054b366004612183565b6040516349e2903160e11b81527f00000000000000000000000000000000000000000000000000000000000000006001600160a01b031692606090829081906129df90866004840161284d565b0381865afa8015610318576020915f91612aa6575b500180519091906001600160801b031615612a7e5760c090602460405180958193632e3071cd60e11b835260048301525afa918215610318575f92612a85575b506060820180519091906001600160801b031615612a7e575160409092015161237392612a6d916001600160801b0390811691166122c2565b90516001600160801b0316906125ed565b5050505f90565b612a9f91925060c03d60c0116109dc576109cd8183611faa565b905f612a34565b612abf915060603d60601161036c5761035e8183611faa565b5f6129f4565b612b21612ad661054b366004612183565b6040516349e2903160e11b81527f00000000000000000000000000000000000000000000000000000000000000006001600160a01b031693909260609184918291856004840161284d565b0381865afa918215610318575f92612bba575b50815115612a7e5760c090602460405180958193632e3071cd60e11b835260048301525afa918215610318575f92612b99575b506020820180519091906001600160801b031615612a7e5751915161237392612a6d916001600160801b0316906122c2565b612bb391925060c03d60c0116109dc576109cd8183611faa565b905f612b67565b612bd491925060603d60601161036c5761035e8183611faa565b905f612b34565b5f19811461099e5760010190565b604051612bfa602082018093611df2565b60a08152612c0960c082611faa565b51902090565b5f546001600160a01b03163303612c2257565b63118cdaa760e01b5f523360045260245ffd5b60405163313ce56760e01b815290602090829060049082906001600160a01b03165afa5f9181612c6b575b506123735750601290565b9091506020813d602011612c9f575b81612c8760209383611faa565b8101031261043957612c98906120e0565b905f612c60565b3d9150612c7a565b6040516395d89b4160e01b8152905f90829060049082906001600160a01b03165afa5f9181612ceb575b506123735750604051612ce5602082611faa565b5f815290565b9091503d805f833e612cfd8183611faa565b81016020828203126104395781516001600160401b03811161043957612d23920161208b565b905f612cd156fe8be0079c531659141344cd1fd0a4f28419497f9722a3daafe3b4186f6b6457e0393bf4ff2983ac2030da8f04a013ff4ac3176d2440549a516edff6f881c4db3ba2646970667358221220362fe491151498735f4c046de465a9cbd9de1e581cb6d2839268a1d5b16f7bb264736f6c634300081e0033",
  "devdoc": {
    "details": "Provides utility functions for reading user balances, market state, and risk parameters      Designed for frontend parity with Aave/Compound view gateways",
    "errors": {
      "OwnableInvalidOwner(address)": [
        {
          "details": "The owner is not a valid owner account. (eg. `address(0)`)"
        }
      ],
      "OwnableUnauthorizedAccount(address)": [
        {
          "details": "The caller account is not authorized to perform an operation."
        }
      ]
    },
    "kind": "dev",
    "methods": {
      "getOraclePrice((address,address,address,address,uint256))": {
        "details": "Returns price as collateral/loan with 36 decimals"
      },
      "getSupplyApr((address,address,address,address,uint256))": {
        "details": "Supply APR = Borrow APR * Utilization * (1 - fee)"
      },
      "owner()": {
        "details": "Returns the address of the current owner."
      },
      "renounceOwnership()": {
        "details": "Leaves the contract without owner. It will not be possible to call `onlyOwner` functions. Can only be called by the current owner. NOTE: Renouncing ownership will leave the contract without an owner, thereby disabling any functionality that is only available to the owner."
      },
      "transferOwnership(address)": {
        "details": "Transfers ownership of the contract to a new account (`newOwner`). Can only be called by the current owner."
      }
    },
    "title": "MorphoBlueGatewayView",
    "version": 1
  },
  "userdoc": {
    "kind": "user",
    "methods": {
      "computeMarketId((address,address,address,address,uint256))": {
        "notice": "Compute market ID from params"
      },
      "getAllMarketsInfo()": {
        "notice": "Get info for all registered markets"
      },
      "getAllPositions(address)": {
        "notice": "Get positions for a user across all registered markets"
      },
      "getBorrowApr((address,address,address,address,uint256))": {
        "notice": "Get borrow APR for a market (annualized, scaled to 1e18)"
      },
      "getBorrowBalance((address,address,address,address,uint256),address)": {
        "notice": "Get user's borrow balance in a market (converts shares to assets)"
      },
      "getBorrowRate((address,address,address,address,uint256))": {
        "notice": "Get borrow rate for a market (per second, scaled to 1e18)"
      },
      "getCollateralBalance((address,address,address,address,uint256),address)": {
        "notice": "Get user's collateral balance in a market"
      },
      "getMarketConfigs((address,address,address,address,uint256)[])": {
        "notice": "Get market config data (similar to Aave's getReserveConfigs)"
      },
      "getMarketInfo((address,address,address,address,uint256))": {
        "notice": "Get comprehensive info for a single market"
      },
      "getMarketParams(bytes32)": {
        "notice": "Get market params by ID"
      },
      "getMarketState((address,address,address,address,uint256))": {
        "notice": "Get market state"
      },
      "getOraclePrice((address,address,address,address,uint256))": {
        "notice": "Get oracle price for a market"
      },
      "getPosition((address,address,address,address,uint256),address)": {
        "notice": "Get user's full position in a market with risk metrics"
      },
      "getPositionsForMarkets((address,address,address,address,uint256)[],address)": {
        "notice": "Get positions for specific markets"
      },
      "getRegisteredMarketIds()": {
        "notice": "Get all registered market IDs"
      },
      "getSupplyApr((address,address,address,address,uint256))": {
        "notice": "Get supply APR for a market (annualized, scaled to 1e18)"
      },
      "getSupplyBalance((address,address,address,address,uint256),address)": {
        "notice": "Get user's supply balance in a market (lender side, converts shares to assets)"
      },
      "isAuthorized(address,address)": {
        "notice": "Check if a user is authorized to act on behalf of another"
      },
      "isMarketRegistered(bytes32)": {
        "notice": "Check if a market is registered"
      },
      "morpho()": {
        "notice": "The Morpho Blue singleton contract"
      },
      "registerMarket((address,address,address,address,uint256))": {
        "notice": "Register a market for enumeration"
      },
      "registerMarkets((address,address,address,address,uint256)[])": {
        "notice": "Register multiple markets at once"
      },
      "registeredMarketCount()": {
        "notice": "Get number of registered markets"
      }
    },
    "notice": "View-only gateway for querying Morpho Blue positions and market data",
    "version": 1
  },
  "storageLayout": {
    "storage": [
      {
        "astId": 1578,
        "contract": "contracts/v2/gateways/morpho/MorphoBlueGatewayView.sol:MorphoBlueGatewayView",
        "label": "_owner",
        "offset": 0,
        "slot": "0",
        "type": "t_address"
      },
      {
        "astId": 23958,
        "contract": "contracts/v2/gateways/morpho/MorphoBlueGatewayView.sol:MorphoBlueGatewayView",
        "label": "_registeredMarketIds",
        "offset": 0,
        "slot": "1",
        "type": "t_array(t_bytes32)dyn_storage"
      },
      {
        "astId": 23963,
        "contract": "contracts/v2/gateways/morpho/MorphoBlueGatewayView.sol:MorphoBlueGatewayView",
        "label": "_marketParams",
        "offset": 0,
        "slot": "2",
        "type": "t_mapping(t_bytes32,t_struct(MarketParams)34220_storage)"
      },
      {
        "astId": 23967,
        "contract": "contracts/v2/gateways/morpho/MorphoBlueGatewayView.sol:MorphoBlueGatewayView",
        "label": "_isRegistered",
        "offset": 0,
        "slot": "3",
        "type": "t_mapping(t_bytes32,t_bool)"
      }
    ],
    "types": {
      "t_address": {
        "encoding": "inplace",
        "label": "address",
        "numberOfBytes": "20"
      },
      "t_array(t_bytes32)dyn_storage": {
        "base": "t_bytes32",
        "encoding": "dynamic_array",
        "label": "bytes32[]",
        "numberOfBytes": "32"
      },
      "t_bool": {
        "encoding": "inplace",
        "label": "bool",
        "numberOfBytes": "1"
      },
      "t_bytes32": {
        "encoding": "inplace",
        "label": "bytes32",
        "numberOfBytes": "32"
      },
      "t_mapping(t_bytes32,t_bool)": {
        "encoding": "mapping",
        "key": "t_bytes32",
        "label": "mapping(bytes32 => bool)",
        "numberOfBytes": "32",
        "value": "t_bool"
      },
      "t_mapping(t_bytes32,t_struct(MarketParams)34220_storage)": {
        "encoding": "mapping",
        "key": "t_bytes32",
        "label": "mapping(bytes32 => struct MarketParams)",
        "numberOfBytes": "32",
        "value": "t_struct(MarketParams)34220_storage"
      },
      "t_struct(MarketParams)34220_storage": {
        "encoding": "inplace",
        "label": "struct MarketParams",
        "members": [
          {
            "astId": 34211,
            "contract": "contracts/v2/gateways/morpho/MorphoBlueGatewayView.sol:MorphoBlueGatewayView",
            "label": "loanToken",
            "offset": 0,
            "slot": "0",
            "type": "t_address"
          },
          {
            "astId": 34213,
            "contract": "contracts/v2/gateways/morpho/MorphoBlueGatewayView.sol:MorphoBlueGatewayView",
            "label": "collateralToken",
            "offset": 0,
            "slot": "1",
            "type": "t_address"
          },
          {
            "astId": 34215,
            "contract": "contracts/v2/gateways/morpho/MorphoBlueGatewayView.sol:MorphoBlueGatewayView",
            "label": "oracle",
            "offset": 0,
            "slot": "2",
            "type": "t_address"
          },
          {
            "astId": 34217,
            "contract": "contracts/v2/gateways/morpho/MorphoBlueGatewayView.sol:MorphoBlueGatewayView",
            "label": "irm",
            "offset": 0,
            "slot": "3",
            "type": "t_address"
          },
          {
            "astId": 34219,
            "contract": "contracts/v2/gateways/morpho/MorphoBlueGatewayView.sol:MorphoBlueGatewayView",
            "label": "lltv",
            "offset": 0,
            "slot": "4",
            "type": "t_uint256"
          }
        ],
        "numberOfBytes": "160"
      },
      "t_uint256": {
        "encoding": "inplace",
        "label": "uint256",
        "numberOfBytes": "32"
      }
    }
  }
}