{
  "address": "0xc435c8FD8bcDfdD670f5A5e1fA78FeD5011d55b0",
  "abi": [
    {
      "inputs": [
        {
          "internalType": "address",
          "name": "router",
          "type": "address"
        },
        {
          "internalType": "address",
          "name": "owner_",
          "type": "address"
        },
        {
          "internalType": "address",
          "name": "morpho_",
          "type": "address"
        }
      ],
      "stateMutability": "nonpayable",
      "type": "constructor"
    },
    {
      "inputs": [
        {
          "internalType": "address",
          "name": "target",
          "type": "address"
        }
      ],
      "name": "AddressEmptyCode",
      "type": "error"
    },
    {
      "inputs": [
        {
          "internalType": "address",
          "name": "account",
          "type": "address"
        }
      ],
      "name": "AddressInsufficientBalance",
      "type": "error"
    },
    {
      "inputs": [],
      "name": "FailedInnerCall",
      "type": "error"
    },
    {
      "inputs": [],
      "name": "InvalidMarketParams",
      "type": "error"
    },
    {
      "inputs": [
        {
          "internalType": "bytes32",
          "name": "marketId",
          "type": "bytes32"
        }
      ],
      "name": "MarketNotRegistered",
      "type": "error"
    },
    {
      "inputs": [
        {
          "internalType": "address",
          "name": "owner",
          "type": "address"
        }
      ],
      "name": "OwnableInvalidOwner",
      "type": "error"
    },
    {
      "inputs": [
        {
          "internalType": "address",
          "name": "account",
          "type": "address"
        }
      ],
      "name": "OwnableUnauthorizedAccount",
      "type": "error"
    },
    {
      "inputs": [],
      "name": "ReentrancyGuardReentrantCall",
      "type": "error"
    },
    {
      "inputs": [
        {
          "internalType": "address",
          "name": "token",
          "type": "address"
        }
      ],
      "name": "SafeERC20FailedOperation",
      "type": "error"
    },
    {
      "inputs": [],
      "name": "ZeroAddress",
      "type": "error"
    },
    {
      "anonymous": false,
      "inputs": [
        {
          "indexed": true,
          "internalType": "bytes32",
          "name": "marketId",
          "type": "bytes32"
        },
        {
          "indexed": false,
          "internalType": "address",
          "name": "loanToken",
          "type": "address"
        },
        {
          "indexed": false,
          "internalType": "address",
          "name": "collateralToken",
          "type": "address"
        }
      ],
      "name": "MarketRegistered",
      "type": "event"
    },
    {
      "anonymous": false,
      "inputs": [
        {
          "indexed": true,
          "internalType": "address",
          "name": "previousOwner",
          "type": "address"
        },
        {
          "indexed": true,
          "internalType": "address",
          "name": "newOwner",
          "type": "address"
        }
      ],
      "name": "OwnershipTransferred",
      "type": "event"
    },
    {
      "inputs": [],
      "name": "ROUTER",
      "outputs": [
        {
          "internalType": "address",
          "name": "",
          "type": "address"
        }
      ],
      "stateMutability": "view",
      "type": "function"
    },
    {
      "inputs": [
        {
          "components": [
            {
              "internalType": "enum ProtocolTypes.LendingOp",
              "name": "op",
              "type": "uint8"
            },
            {
              "internalType": "address",
              "name": "token",
              "type": "address"
            },
            {
              "internalType": "address",
              "name": "user",
              "type": "address"
            },
            {
              "internalType": "uint256",
              "name": "amount",
              "type": "uint256"
            },
            {
              "internalType": "bytes",
              "name": "context",
              "type": "bytes"
            },
            {
              "components": [
                {
                  "internalType": "uint256",
                  "name": "index",
                  "type": "uint256"
                }
              ],
              "internalType": "struct ProtocolTypes.InputPtr",
              "name": "input",
              "type": "tuple"
            }
          ],
          "internalType": "struct ProtocolTypes.LendingInstruction[]",
          "name": "instrs",
          "type": "tuple[]"
        },
        {
          "internalType": "address",
          "name": "caller",
          "type": "address"
        },
        {
          "components": [
            {
              "internalType": "address",
              "name": "token",
              "type": "address"
            },
            {
              "internalType": "uint256",
              "name": "amount",
              "type": "uint256"
            }
          ],
          "internalType": "struct ProtocolTypes.Output[]",
          "name": "inputs",
          "type": "tuple[]"
        }
      ],
      "name": "authorize",
      "outputs": [
        {
          "internalType": "address[]",
          "name": "targets",
          "type": "address[]"
        },
        {
          "internalType": "bytes[]",
          "name": "data",
          "type": "bytes[]"
        },
        {
          "components": [
            {
              "internalType": "address",
              "name": "token",
              "type": "address"
            },
            {
              "internalType": "uint256",
              "name": "amount",
              "type": "uint256"
            }
          ],
          "internalType": "struct ProtocolTypes.Output[]",
          "name": "produced",
          "type": "tuple[]"
        }
      ],
      "stateMutability": "view",
      "type": "function"
    },
    {
      "inputs": [
        {
          "components": [
            {
              "internalType": "enum ProtocolTypes.LendingOp",
              "name": "op",
              "type": "uint8"
            },
            {
              "internalType": "address",
              "name": "token",
              "type": "address"
            },
            {
              "internalType": "address",
              "name": "user",
              "type": "address"
            },
            {
              "internalType": "uint256",
              "name": "amount",
              "type": "uint256"
            },
            {
              "internalType": "bytes",
              "name": "context",
              "type": "bytes"
            },
            {
              "components": [
                {
                  "internalType": "uint256",
                  "name": "index",
                  "type": "uint256"
                }
              ],
              "internalType": "struct ProtocolTypes.InputPtr",
              "name": "input",
              "type": "tuple"
            }
          ],
          "internalType": "struct ProtocolTypes.LendingInstruction[]",
          "name": "instrs",
          "type": "tuple[]"
        },
        {
          "internalType": "address",
          "name": "",
          "type": "address"
        },
        {
          "components": [
            {
              "internalType": "address",
              "name": "token",
              "type": "address"
            },
            {
              "internalType": "uint256",
              "name": "amount",
              "type": "uint256"
            }
          ],
          "internalType": "struct ProtocolTypes.Output[]",
          "name": "",
          "type": "tuple[]"
        }
      ],
      "name": "deauthorize",
      "outputs": [
        {
          "internalType": "address[]",
          "name": "targets",
          "type": "address[]"
        },
        {
          "internalType": "bytes[]",
          "name": "data",
          "type": "bytes[]"
        }
      ],
      "stateMutability": "view",
      "type": "function"
    },
    {
      "inputs": [],
      "name": "getAllMarketIds",
      "outputs": [
        {
          "internalType": "bytes32[]",
          "name": "",
          "type": "bytes32[]"
        }
      ],
      "stateMutability": "view",
      "type": "function"
    },
    {
      "inputs": [
        {
          "internalType": "bytes32",
          "name": "marketId",
          "type": "bytes32"
        }
      ],
      "name": "getMarketParams",
      "outputs": [
        {
          "components": [
            {
              "internalType": "address",
              "name": "loanToken",
              "type": "address"
            },
            {
              "internalType": "address",
              "name": "collateralToken",
              "type": "address"
            },
            {
              "internalType": "address",
              "name": "oracle",
              "type": "address"
            },
            {
              "internalType": "address",
              "name": "irm",
              "type": "address"
            },
            {
              "internalType": "uint256",
              "name": "lltv",
              "type": "uint256"
            }
          ],
          "internalType": "struct MarketParams",
          "name": "",
          "type": "tuple"
        }
      ],
      "stateMutability": "view",
      "type": "function"
    },
    {
      "inputs": [
        {
          "internalType": "bytes32",
          "name": "",
          "type": "bytes32"
        }
      ],
      "name": "isMarketRegistered",
      "outputs": [
        {
          "internalType": "bool",
          "name": "",
          "type": "bool"
        }
      ],
      "stateMutability": "view",
      "type": "function"
    },
    {
      "inputs": [
        {
          "internalType": "uint256",
          "name": "",
          "type": "uint256"
        }
      ],
      "name": "marketIds",
      "outputs": [
        {
          "internalType": "bytes32",
          "name": "",
          "type": "bytes32"
        }
      ],
      "stateMutability": "view",
      "type": "function"
    },
    {
      "inputs": [],
      "name": "morpho",
      "outputs": [
        {
          "internalType": "contract IMorphoBlue",
          "name": "",
          "type": "address"
        }
      ],
      "stateMutability": "view",
      "type": "function"
    },
    {
      "inputs": [],
      "name": "owner",
      "outputs": [
        {
          "internalType": "address",
          "name": "",
          "type": "address"
        }
      ],
      "stateMutability": "view",
      "type": "function"
    },
    {
      "inputs": [
        {
          "components": [
            {
              "internalType": "address",
              "name": "token",
              "type": "address"
            },
            {
              "internalType": "uint256",
              "name": "amount",
              "type": "uint256"
            }
          ],
          "internalType": "struct ProtocolTypes.Output[]",
          "name": "inputs",
          "type": "tuple[]"
        },
        {
          "internalType": "bytes",
          "name": "data",
          "type": "bytes"
        }
      ],
      "name": "processLendingInstruction",
      "outputs": [
        {
          "components": [
            {
              "internalType": "address",
              "name": "token",
              "type": "address"
            },
            {
              "internalType": "uint256",
              "name": "amount",
              "type": "uint256"
            }
          ],
          "internalType": "struct ProtocolTypes.Output[]",
          "name": "",
          "type": "tuple[]"
        }
      ],
      "stateMutability": "nonpayable",
      "type": "function"
    },
    {
      "inputs": [
        {
          "components": [
            {
              "internalType": "address",
              "name": "loanToken",
              "type": "address"
            },
            {
              "internalType": "address",
              "name": "collateralToken",
              "type": "address"
            },
            {
              "internalType": "address",
              "name": "oracle",
              "type": "address"
            },
            {
              "internalType": "address",
              "name": "irm",
              "type": "address"
            },
            {
              "internalType": "uint256",
              "name": "lltv",
              "type": "uint256"
            }
          ],
          "internalType": "struct MarketParams",
          "name": "params",
          "type": "tuple"
        }
      ],
      "name": "registerMarket",
      "outputs": [],
      "stateMutability": "nonpayable",
      "type": "function"
    },
    {
      "inputs": [
        {
          "internalType": "bytes32",
          "name": "",
          "type": "bytes32"
        }
      ],
      "name": "registeredMarkets",
      "outputs": [
        {
          "internalType": "address",
          "name": "loanToken",
          "type": "address"
        },
        {
          "internalType": "address",
          "name": "collateralToken",
          "type": "address"
        },
        {
          "internalType": "address",
          "name": "oracle",
          "type": "address"
        },
        {
          "internalType": "address",
          "name": "irm",
          "type": "address"
        },
        {
          "internalType": "uint256",
          "name": "lltv",
          "type": "uint256"
        }
      ],
      "stateMutability": "view",
      "type": "function"
    },
    {
      "inputs": [],
      "name": "renounceOwnership",
      "outputs": [],
      "stateMutability": "nonpayable",
      "type": "function"
    },
    {
      "inputs": [
        {
          "internalType": "address",
          "name": "newOwner",
          "type": "address"
        }
      ],
      "name": "transferOwnership",
      "outputs": [],
      "stateMutability": "nonpayable",
      "type": "function"
    }
  ],
  "transactionHash": "0x950c1846bc5c15fd3dc35fd4e38c051432464cca6a1bedea4099b774dd1a6a2e",
  "args": [
    "0xC444698c4a6f18B4e86FDE6b4e27d08B0192C85a",
    "0x0BE61223F99E57b8b8B7033a77B54Adc7f7cF027",
    "0xBBBBBbbBBb9cC5e90e3b3Af64bdAF62C37EEFFCb"
  ],
  "numDeployments": 5,
  "solcInputHash": "cf5ff5c132e6b3e2cf29e3be8b528fd9",
  "bytecode": "0x60c060405234801561000f575f5ffd5b506040516132ef3803806132ef83398101604081905261002e91610158565b81836001600160a01b0381166100765760405162461bcd60e51b81526020600482015260086024820152670726f757465723d360c41b60448201526064015b60405180910390fd5b6001600160a01b0390811660805281166100a557604051631e4fbdf760e01b81525f600482015260240161006d565b6100ae816100ee565b50600180556001600160a01b0381166100da5760405163d92e233d60e01b815260040160405180910390fd5b6001600160a01b031660a052506101989050565b5f80546001600160a01b038381166001600160a01b0319831681178455604051919092169283917f8be0079c531659141344cd1fd0a4f28419497f9722a3daafe3b4186f6b6457e09190a35050565b80516001600160a01b0381168114610153575f5ffd5b919050565b5f5f5f6060848603121561016a575f5ffd5b6101738461013d565b92506101816020850161013d565b915061018f6040850161013d565b90509250925092565b60805160a0516130966102595f395f81816102970152818161054f015281816107a001528181610d35015281816111e0015281816112a3015281816113b5015281816116b601528181611748015281816117ca015281816118b201528181611945015281816119da01528181611a5501528181611b1f01528181611c0d01528181611d6501528181611df401528181611e6e01528181611f290152818161203e015281816120d6015261221f01525f818160c10152610e7301526130965ff3fe608060405234801561000f575f5ffd5b50600436106100b8575f3560e01c806332fe7b26146100bc578063385ec17e146100f95780634d0ee9f31461012b57806352ed58751461014b578063715018a61461016d57806376a32e7114610177578063779a9683146102005780638da5cb5b14610221578063aad11a3f14610229578063ae4be46d1461024a578063b512cdfe1461026a578063b85ed6361461027d578063d8fbc83314610292578063f2fde38b146102b9575b5f5ffd5b6100e37f000000000000000000000000000000000000000000000000000000000000000081565b6040516100f091906124b7565b60405180910390f35b61011b6101073660046124cb565b60046020525f908152604090205460ff1681565b60405190151581526020016100f0565b61013e6101393660046124cb565b6102cc565b6040516100f09190612521565b61015e610159366004612595565b610367565b6040516100f093929190612744565b610175610b57565b005b6101c56101853660046124cb565b600260208190525f9182526040909120805460018201549282015460038301546004909301546001600160a01b0392831694831693918316929091169085565b604080516001600160a01b0396871681529486166020860152928516928401929092529092166060820152608081019190915260a0016100f0565b61021361020e3660046124cb565b610b6a565b6040519081526020016100f0565b6100e3610b89565b61023c610237366004612595565b610b97565b6040516100f092919061277c565b61025d6102583660046127a9565b610e66565b6040516100f0919061283f565b610175610278366004612851565b610f56565b6102856110a9565b6040516100f0919061286a565b6100e37f000000000000000000000000000000000000000000000000000000000000000081565b6101756102c73660046128ac565b6110ff565b6102d4612474565b5f8281526004602052604090205460ff1661030a5760405163a814860360e01b8152600481018390526024015b60405180910390fd5b505f90815260026020818152604092839020835160a08101855281546001600160a01b0390811682526001830154811693820193909352928101548216938301939093526003830154166060820152600490910154608082015290565b60608080866001600160401b03811115610383576103836128c7565b6040519080825280602002602001820160405280156103ac578160200160208202803683370190505b509250866001600160401b038111156103c7576103c76128c7565b6040519080825280602002602001820160405280156103fa57816020015b60608152602001906001900390816103e55790505b5091505f805b888110156104de575f8a8a8381811061041b5761041b6128db565b905060200281019061042d91906128ef565b61043b90602081019061291b565b9050600281600981111561045157610451612934565b148061046e5750600381600981111561046c5761046c612934565b145b8061048a5750600481600981111561048857610488612934565b145b806104a6575060058160098111156104a4576104a4612934565b145b806104c2575060068160098111156104c0576104c0612934565b145b156104d557826104d18161295c565b9350505b50600101610400565b50806001600160401b038111156104f7576104f76128c7565b60405190808252806020026020018201604052801561053057816020015b61051d6124a1565b8152602001906001900390816105155790505b506040516332f256cf60e11b81529092505f9081906001600160a01b037f000000000000000000000000000000000000000000000000000000000000000016906365e4ad9e90610586908c903090600401612974565b602060405180830381865afa1580156105a1573d5f5f3e3d5ffd5b505050506040513d601f19601f820116820180604052508101906105c5919061298e565b90505f805b8b811015610b4757368d8d838181106105e5576105e56128db565b90506020028101906105f791906128ef565b90505f61064361060a60808401846129ad565b8080601f0160208091040260200160405190810160405280939291908181526020018383808284375f9201919091525061113c92505050565b90505f61065660408401602085016128ac565b9050606083013560a08401358d11156106ba578d8d60a086013581811061067f5761067f6128db565b61069592602060409092020190810191506128ac565b91508d8d60a08601358181106106ad576106ad6128db565b9050604002016020013590505b60026106c9602086018661291b565b60098111156106da576106da612934565b0361085e57604051806040016040528084602001516001600160a01b03168152602001828152508a8981518110610713576107136128db565b602002602001018190525087806107299061295c565b98505086806107355750855b1561079e575f8c868151811061074d5761074d6128db565b60200260200101906001600160a01b031690816001600160a01b03168152505060405180602001604052805f8152508b868151811061078e5761078e6128db565b6020026020010181905250610b37565b7f00000000000000000000000000000000000000000000000000000000000000008c86815181106107d1576107d16128db565b6001600160a01b03909216602092830291909101909101526040516207767560ed1b906108059030906001906024016129ef565b604051602081830303815290604052906001600160e01b0319166020820180516001600160e01b0383818316178352505050508b868151811061084a5761084a6128db565b602002602001018190525060019550610b37565b600361086d602086018661291b565b600981111561087e5761087e612934565b036108b6576040518060400160405280845f01516001600160a01b03168152602001828152508a8981518110610713576107136128db565b60056108c5602086018661291b565b60098111156108d6576108d6612934565b036109c3575f6108f5846108f060608801604089016128ac565b6111d0565b90506103e8610906826103e9612a0a565b6109109190612a21565b90506040518060400160405280855f01516001600160a01b03168152602001828152508b8a81518110610945576109456128db565b6020026020010181905250888061095b9061295c565b9950505f8d8781518110610971576109716128db565b60200260200101906001600160a01b031690816001600160a01b03168152505060405180602001604052805f8152508c87815181106109b2576109b26128db565b602002602001018190525050610b37565b60066109d2602086018661291b565b60098111156109e3576109e3612934565b03610a53575f610a02846109fd60608801604089016128ac565b6113a5565b90506103e8610a13826103e9612a0a565b610a1d9190612a21565b9050604051806040016040528085602001516001600160a01b03168152602001828152508b8a81518110610945576109456128db565b6004610a62602086018661291b565b6009811115610a7357610a73612934565b03610ad7576040518060400160405280845f01516001600160a01b031681526020015f8152508a8981518110610aab57610aab6128db565b60200260200101819052508780610ac19061295c565b9850505f8c868151811061074d5761074d6128db565b5f8c8681518110610aea57610aea6128db565b60200260200101906001600160a01b031690816001600160a01b03168152505060405180602001604052805f8152508b8681518110610b2b57610b2b6128db565b60200260200101819052505b5050600190920191506105ca9050565b5050505050955095509592505050565b610b5f611456565b610b685f611488565b565b60038181548110610b79575f80fd5b5f91825260209091200154905081565b5f546001600160a01b031690565b606080856001600160401b03811115610bb257610bb26128c7565b604051908082528060200260200182016040528015610bdb578160200160208202803683370190505b509150856001600160401b03811115610bf657610bf66128c7565b604051908082528060200260200182016040528015610c2957816020015b6060815260200190600190039081610c145790505b5090505f805b87811015610cb5575f898983818110610c4a57610c4a6128db565b9050602002810190610c5c91906128ef565b610c6a90602081019061291b565b90506002816009811115610c8057610c80612934565b1480610c9d57506003816009811115610c9b57610c9b612934565b145b15610cac576001925050610cb5565b50600101610c2f565b505f5b87811015610e5a575f898983818110610cd357610cd36128db565b9050602002810190610ce591906128ef565b610cf390602081019061291b565b9050828015610d2e57506002816009811115610d1157610d11612934565b1480610d2e57506003816009811115610d2c57610d2c612934565b145b15610df1577f0000000000000000000000000000000000000000000000000000000000000000858381518110610d6657610d666128db565b6001600160a01b03909216602092830291909101909101526040516207767560ed1b90610d999030905f906024016129ef565b604051602081830303815290604052906001600160e01b0319166020820180516001600160e01b038381831617835250505050848381518110610dde57610dde6128db565b60200260200101819052505f9250610e51565b5f858381518110610e0457610e046128db565b60200260200101906001600160a01b031690816001600160a01b03168152505060405180602001604052805f815250848381518110610e4557610e456128db565b60200260200101819052505b50600101610cb8565b50509550959350505050565b6060336001600160a01b037f00000000000000000000000000000000000000000000000000000000000000001614610ed75760405162461bcd60e51b815260206004820152601460248201527313db9b1e481c9bdd5d195c8818d85b8818d85b1b60621b6044820152606401610301565b5f610ee483850185612af9565b90505f610ef4826080015161113c565b60a0830151519091505f908711610f0f578260600151610f33565b87878460a001515f0151818110610f2857610f286128db565b905060400201602001355b9050610f48835f0151838386604001516114d7565b93505050505b949350505050565b610f5e611456565b5f610f6c60208301836128ac565b6001600160a01b03161480610f9857505f610f8d60408301602084016128ac565b6001600160a01b0316145b15610fb65760405163494e780760e01b815260040160405180910390fd5b5f610fce610fc936849003840184612c0f565b611649565b5f8181526004602052604090205490915060ff166110a5575f8181526002602052604090208290610fff8282612ca2565b50506003805460018181019092557fc2575a0e9e593c00f959f8c92f12db2869c3395a3b0502d05e2516446f71f85b018290555f828152600460209081526040909120805460ff191690921790915581907f393bf4ff2983ac2030da8f04a013ff4ac3176d2440549a516edff6f881c4db3b9061107e908501856128ac565b61108e60408601602087016128ac565b60405161109c929190612974565b60405180910390a25b5050565b606060038054806020026020016040519081016040528092919081815260200182805480156110f557602002820191905f5260205f20905b8154815260200190600101908083116110e1575b5050505050905090565b611107611456565b6001600160a01b038116611130575f604051631e4fbdf760e01b815260040161030191906124b7565b61113981611488565b50565b611144612474565b60a082511061116757818060200190518101906111619190612d1a565b92915050565b60405162461bcd60e51b815260206004820152603360248201527f4d6f7270686f426c75653a20696e76616c696420636f6e74657874202d206578604482015272706563746564204d61726b6574506172616d7360681b6064820152608401610301565b919050565b5f5f6111db84611649565b90505f7f00000000000000000000000000000000000000000000000000000000000000006001600160a01b03166393c5206283866040518363ffffffff1660e01b815260040161122c929190612d8d565b606060405180830381865afa158015611247573d5f5f3e3d5ffd5b505050506040513d601f19601f8201168201806040525081019061126b9190612dba565b905080602001516001600160801b03165f0361128b575f92505050611161565b604051632e3071cd60e11b8152600481018390525f907f00000000000000000000000000000000000000000000000000000000000000006001600160a01b031690635c60e39a9060240160c060405180830381865afa1580156112f0573d5f5f3e3d5ffd5b505050506040513d601f19601f820116820180604052508101906113149190612e1e565b905080606001516001600160801b03165f03611335575f9350505050611161565b5f81604001516001600160801b031683602001516001600160801b031661135c9190612a0a565b60608301519091506001600160801b031680600161137a8285612e9f565b6113849190612eb2565b61138e9190612a21565b611399906001612e9f565b98975050505050505050565b5f5f6113b084611649565b90505f7f00000000000000000000000000000000000000000000000000000000000000006001600160a01b03166393c5206283866040518363ffffffff1660e01b8152600401611401929190612d8d565b606060405180830381865afa15801561141c573d5f5f3e3d5ffd5b505050506040513d601f19601f820116820180604052508101906114409190612dba565b604001516001600160801b031695945050505050565b3361145f610b89565b6001600160a01b031614610b68573360405163118cdaa760e01b815260040161030191906124b7565b5f80546001600160a01b038381166001600160a01b0319831681178455604051919092169283917f8be0079c531659141344cd1fd0a4f28419497f9722a3daafe3b4186f6b6457e09190a35050565b60605f8560098111156114ec576114ec612934565b0361150b576114fc848484611678565b61150461184b565b9050610f4e565b600185600981111561151f5761151f612934565b0361152f576114fc848484611883565b600285600981111561154357611543612934565b0361156057611504846020015161155b868686611a45565b611b94565b600685600981111561157457611574612934565b0361158b57611504846020015161155b86856113a5565b600385600981111561159f5761159f612934565b036115b55783516115049061155b868686611c09565b60048560098111156115c9576115c9612934565b036115df5783516115049061155b868686611cb8565b60058560098111156115f3576115f3612934565b036116085783516115049061155b8685612206565b60405162461bcd60e51b815260206004820152601660248201527504d6f7270686f426c75653a20756e6b6e6f776e206f760541b6044820152606401610301565b5f8160405160200161165b9190612521565b604051602081830303815290604052805190602001209050919050565b825161168f906001600160a01b031633308561228b565b825160405163095ea7b360e01b81526001600160a01b039091169063095ea7b3906116e0907f0000000000000000000000000000000000000000000000000000000000000000905f90600401612ec5565b6020604051808303815f875af11580156116fc573d5f5f3e3d5ffd5b505050506040513d601f19601f82011682018060405250810190611720919061298e565b50825160405163095ea7b360e01b81526001600160a01b039091169063095ea7b390611772907f0000000000000000000000000000000000000000000000000000000000000000908690600401612ec5565b6020604051808303815f875af115801561178e573d5f5f3e3d5ffd5b505050506040513d601f19601f820116820180604052508101906117b2919061298e565b5060405163a99aad8960e01b81526001600160a01b037f0000000000000000000000000000000000000000000000000000000000000000169063a99aad899061180590869086905f908790600401612ede565b60408051808303815f875af1158015611820573d5f5f3e3d5ffd5b505050506040513d601f19601f820116820180604052508101906118449190612f1f565b5050505050565b604080515f8082526020820190925260609161187d565b61186a6124a1565b8152602001906001900390816118625790505b50905090565b602083015161189d906001600160a01b031633308561228b565b82602001516001600160a01b031663095ea7b37f00000000000000000000000000000000000000000000000000000000000000005f6040518363ffffffff1660e01b81526004016118ef929190612ec5565b6020604051808303815f875af115801561190b573d5f5f3e3d5ffd5b505050506040513d601f19601f8201168201806040525081019061192f919061298e565b5082602001516001600160a01b031663095ea7b37f0000000000000000000000000000000000000000000000000000000000000000846040518363ffffffff1660e01b8152600401611982929190612ec5565b6020604051808303815f875af115801561199e573d5f5f3e3d5ffd5b505050506040513d601f19601f820116820180604052508101906119c2919061298e565b5060405163238d657960e01b81526001600160a01b037f0000000000000000000000000000000000000000000000000000000000000000169063238d657990611a1390869086908690600401612f41565b5f604051808303815f87803b158015611a2a575f5ffd5b505af1158015611a3c573d5f5f3e3d5ffd5b50505050505050565b5f5f611a5085611649565b90505f7f00000000000000000000000000000000000000000000000000000000000000006001600160a01b03166393c5206283866040518363ffffffff1660e01b8152600401611aa1929190612d8d565b606060405180830381865afa158015611abc573d5f5f3e3d5ffd5b505050506040513d601f19601f82011682018060405250810190611ae09190612dba565b905080604001516001600160801b0316851115611b085780604001516001600160801b031694505b604051638720316d60e01b81526001600160a01b037f00000000000000000000000000000000000000000000000000000000000000001690638720316d90611b5a908990899089903390600401612f79565b5f604051808303815f87803b158015611b71575f5ffd5b505af1158015611b83573d5f5f3e3d5ffd5b5050505084925050505b9392505050565b604080516001808252818301909252606091816020015b611bb36124a1565b815260200190600190039081611bab5790505090506040518060400160405280846001600160a01b0316815260200183815250815f81518110611bf857611bf86128db565b602002602001018190525092915050565b5f5f7f00000000000000000000000000000000000000000000000000000000000000006001600160a01b03166350d8cd4b86865f87306040518663ffffffff1660e01b8152600401611c5f959493929190612fad565b60408051808303815f875af1158015611c7a573d5f5f3e3d5ffd5b505050506040513d601f19601f82011682018060405250810190611c9e9190612f1f565b508551909150610f4e906001600160a01b031633836122f8565b82516040516370a0823160e01b81525f919082906001600160a01b038316906370a0823190611ceb9030906004016124b7565b602060405180830381865afa158015611d06573d5f5f3e3d5ffd5b505050506040513d601f19601f82011682018060405250810190611d2a9190612fe9565b9050611d416001600160a01b03831633308861228b565b60405163095ea7b360e01b81526001600160a01b0383169063095ea7b390611d8f907f0000000000000000000000000000000000000000000000000000000000000000905f90600401612ec5565b6020604051808303815f875af1158015611dab573d5f5f3e3d5ffd5b505050506040513d601f19601f82011682018060405250810190611dcf919061298e565b5060405163095ea7b360e01b81526001600160a01b0383169063095ea7b390611e1e907f0000000000000000000000000000000000000000000000000000000000000000908990600401612ec5565b6020604051808303815f875af1158015611e3a573d5f5f3e3d5ffd5b505050506040513d601f19601f82011682018060405250810190611e5e919061298e565b505f611e6987611649565b90505f7f00000000000000000000000000000000000000000000000000000000000000006001600160a01b03166393c5206283886040518363ffffffff1660e01b8152600401611eba929190612d8d565b606060405180830381865afa158015611ed5573d5f5f3e3d5ffd5b505050506040513d601f19601f82011682018060405250810190611ef99190612dba565b90505f5f82602001516001600160801b0316111561215757604051632e3071cd60e11b8152600481018490525f907f00000000000000000000000000000000000000000000000000000000000000006001600160a01b031690635c60e39a9060240160c060405180830381865afa158015611f76573d5f5f3e3d5ffd5b505050506040513d601f19601f82011682018060405250810190611f9a9190612e1e565b90505f5f82606001516001600160801b031611611fb7575f612019565b81606001516001600160801b0316600183606001516001600160801b031684604001516001600160801b031687602001516001600160801b0316611ffb9190612a0a565b6120059190612e9f565b61200f9190612eb2565b6120199190612a21565b9050808a106120bf5760208401516040516320b76e8160e01b81526001600160a01b037f000000000000000000000000000000000000000000000000000000000000000016916320b76e8191612078918f915f91908f90600401613000565b60408051808303815f875af1158015612093573d5f5f3e3d5ffd5b505050506040513d601f19601f820116820180604052508101906120b79190612f1f565b509250612154565b6040516320b76e8160e01b81526001600160a01b037f000000000000000000000000000000000000000000000000000000000000000016906320b76e8190612111908e908e905f908f90600401612ede565b60408051808303815f875af115801561212c573d5f5f3e3d5ffd5b505050506040513d601f19601f820116820180604052508101906121509190612f1f565b5092505b50505b6040516370a0823160e01b81525f906001600160a01b038716906370a08231906121859030906004016124b7565b602060405180830381865afa1580156121a0573d5f5f3e3d5ffd5b505050506040513d601f19601f820116820180604052508101906121c49190612fe9565b90508481116121d3575f6121dd565b6121dd8582612eb2565b965086156121f9576121f96001600160a01b03871633896122f8565b5050505050509392505050565b604051630a8e0d6f60e11b81525f906001600160a01b037f0000000000000000000000000000000000000000000000000000000000000000169063151c1ade90612254908690600401612521565b5f604051808303815f87803b15801561226b575f5ffd5b505af115801561227d573d5f5f3e3d5ffd5b50505050611b8d83836111d0565b6040516001600160a01b0384811660248301528381166044830152606482018390526122f29186918216906323b872dd906084015b604051602081830303815290604052915060e01b6020820180516001600160e01b038381831617835250505050612323565b50505050565b61231e83846001600160a01b031663a9059cbb85856040516024016122c0929190612ec5565b505050565b5f6123376001600160a01b0384168361237b565b905080515f1415801561235b575080806020019051810190612359919061298e565b155b1561231e5782604051635274afe760e01b815260040161030191906124b7565b6060611b8d83835f845f5f856001600160a01b0316848660405161239f919061304a565b5f6040518083038185875af1925050503d805f81146123d9576040519150601f19603f3d011682016040523d82523d5f602084013e6123de565b606091505b50915091506123ee8683836123f8565b9695505050505050565b60608261240d576124088261244b565b611b8d565b815115801561242457506001600160a01b0384163b155b156124445783604051639996b31560e01b815260040161030191906124b7565b5080611b8d565b80511561245b5780518082602001fd5b604051630a12f52160e11b815260040160405180910390fd5b6040805160a0810182525f8082526020820181905291810182905260608101829052608081019190915290565b604080518082019091525f808252602082015290565b6001600160a01b0391909116815260200190565b5f602082840312156124db575f5ffd5b5035919050565b80516001600160a01b03908116835260208083015182169084015260408083015182169084015260608083015190911690830152608090810151910152565b60a0810161116182846124e2565b6001600160a01b0381168114611139575f5ffd5b80356111cb8161252f565b5f5f83601f84011261255e575f5ffd5b5081356001600160401b03811115612574575f5ffd5b6020830191508360208260061b850101111561258e575f5ffd5b9250929050565b5f5f5f5f5f606086880312156125a9575f5ffd5b85356001600160401b038111156125be575f5ffd5b8601601f810188136125ce575f5ffd5b80356001600160401b038111156125e3575f5ffd5b8860208260051b84010111156125f7575f5ffd5b60209182019650945061260b908701612543565b925060408601356001600160401b03811115612625575f5ffd5b6126318882890161254e565b969995985093965092949392505050565b5f8151808452602084019350602083015f5b8281101561267b5781516001600160a01b0316865260209586019590910190600101612654565b5093949350505050565b5f82825180855260208501945060208160051b830101602085015f5b838110156126f357601f19858403018852815180518085528060208301602087015e5f602082870101526020601f19601f830116860101945050506020820191506020880197506001810190506126a1565b50909695505050505050565b5f8151808452602084019350602083015f5b8281101561267b57815180516001600160a01b031687526020908101518188015260409096019590910190600101612711565b606081525f6127566060830186612642565b82810360208401526127688186612685565b905082810360408401526123ee81856126ff565b604081525f61278e6040830185612642565b82810360208401526127a08185612685565b95945050505050565b5f5f5f5f604085870312156127bc575f5ffd5b84356001600160401b038111156127d1575f5ffd5b6127dd8782880161254e565b90955093505060208501356001600160401b038111156127fb575f5ffd5b8501601f8101871361280b575f5ffd5b80356001600160401b03811115612820575f5ffd5b876020828401011115612831575f5ffd5b949793965060200194505050565b602081525f611b8d60208301846126ff565b5f60a0828403128015612862575f5ffd5b509092915050565b602080825282518282018190525f918401906040840190835b818110156128a1578351835260209384019390920191600101612883565b509095945050505050565b5f602082840312156128bc575f5ffd5b8135611b8d8161252f565b634e487b7160e01b5f52604160045260245ffd5b634e487b7160e01b5f52603260045260245ffd5b5f823560be19833603018112612903575f5ffd5b9190910192915050565b8035600a81106111cb575f5ffd5b5f6020828403121561292b575f5ffd5b611b8d8261290d565b634e487b7160e01b5f52602160045260245ffd5b634e487b7160e01b5f52601160045260245ffd5b5f6001820161296d5761296d612948565b5060010190565b6001600160a01b0392831681529116602082015260400190565b5f6020828403121561299e575f5ffd5b81518015158114611b8d575f5ffd5b5f5f8335601e198436030181126129c2575f5ffd5b8301803591506001600160401b038211156129db575f5ffd5b60200191503681900382131561258e575f5ffd5b6001600160a01b039290921682521515602082015260400190565b808202811582820484141761116157611161612948565b5f82612a3b57634e487b7160e01b5f52601260045260245ffd5b500490565b60405160c081016001600160401b0381118282101715612a6257612a626128c7565b60405290565b60405160a081016001600160401b0381118282101715612a6257612a626128c7565b604051601f8201601f191681016001600160401b0381118282101715612ab257612ab26128c7565b604052919050565b5f60208284031215612aca575f5ffd5b604051602081016001600160401b0381118282101715612aec57612aec6128c7565b6040529135825250919050565b5f60208284031215612b09575f5ffd5b81356001600160401b03811115612b1e575f5ffd5b820160c08185031215612b2f575f5ffd5b612b37612a40565b612b408261290d565b81526020820135612b508161252f565b60208201526040820135612b638161252f565b60408201526060828101359082015260808201356001600160401b03811115612b8a575f5ffd5b8201601f81018613612b9a575f5ffd5b80356001600160401b03811115612bb357612bb36128c7565b612bc6601f8201601f1916602001612a8a565b818152876020838501011115612bda575f5ffd5b816020840160208301375f60208383010152806080850152505050612c028560a08401612aba565b60a0820152949350505050565b5f60a0828403128015612c20575f5ffd5b50612c29612a68565b8235612c348161252f565b81526020830135612c448161252f565b60208201526040830135612c578161252f565b60408201526060830135612c6a8161252f565b60608201526080928301359281019290925250919050565b80546001600160a01b0319166001600160a01b0392909216919091179055565b8135612cad8161252f565b612cb78183612c82565b506020820135612cc68161252f565b612cd38160018401612c82565b506040820135612ce28161252f565b612cef8160028401612c82565b506060820135612cfe8161252f565b612d0b8160038401612c82565b50608082013560048201555050565b5f60a0828403128015612d2b575f5ffd5b50612d34612a68565b8251612d3f8161252f565b81526020830151612d4f8161252f565b60208201526040830151612d628161252f565b60408201526060830151612d758161252f565b60608201526080928301519281019290925250919050565b9182526001600160a01b0316602082015260400190565b80516001600160801b03811681146111cb575f5ffd5b5f6060828403128015612dcb575f5ffd5b50604051606081016001600160401b0381118282101715612dee57612dee6128c7565b60405282518152612e0160208401612da4565b6020820152612e1260408401612da4565b60408201529392505050565b5f60c0828403128015612e2f575f5ffd5b50612e38612a40565b612e4183612da4565b8152612e4f60208401612da4565b6020820152612e6060408401612da4565b6040820152612e7160608401612da4565b6060820152612e8260808401612da4565b6080820152612e9360a08401612da4565b60a08201529392505050565b8082018082111561116157611161612948565b8181038181111561116157611161612948565b6001600160a01b03929092168252602082015260400190565b612ee881866124e2565b60a081019390935260c08301919091526001600160a01b031660e082015261012061010082018190525f9082015261014001919050565b5f5f60408385031215612f30575f5ffd5b505080516020909101519092909150565b612f4b81856124e2565b60a08101929092526001600160a01b031660c082015261010060e082018190525f9082015261012001919050565b6101008101612f8882876124e2565b60a08201949094526001600160a01b0392831660c0820152911660e090910152919050565b6101208101612fbc82886124e2565b60a082019590955260c08101939093526001600160a01b0391821660e08401521661010090910152919050565b5f60208284031215612ff9575f5ffd5b5051919050565b61300a81866124e2565b60a08101939093526001600160801b039190911660c08301526001600160a01b031660e082015261012061010082018190525f9082015261014001919050565b5f82518060208501845e5f92019182525091905056fea26469706673582212209213be5d634552b309c29b7f8496bcb87fdf28fa26f19f30ef9208d1906f5b1c64736f6c634300081e0033",
  "devdoc": {
    "details": "Morpho Blue uses market-based lending where each market is identified by:      - loanToken: The token being borrowed      - collateralToken: The token used as collateral      - oracle: Price oracle address      - irm: Interest rate model address      - lltv: Liquidation loan-to-value ratio Context encoding for LendingInstruction:   - bytes context = abi.encode(MarketParams) for full market params   - The token field should be the collateral token for collateral ops,     or the loan token for borrow/repay ops",
    "errors": {
      "AddressEmptyCode(address)": [
        {
          "details": "There's no code at `target` (it is not a contract)."
        }
      ],
      "AddressInsufficientBalance(address)": [
        {
          "details": "The ETH balance of the account is not enough to perform the operation."
        }
      ],
      "FailedInnerCall()": [
        {
          "details": "A call to an address target failed. The target may have reverted."
        }
      ],
      "OwnableInvalidOwner(address)": [
        {
          "details": "The owner is not a valid owner account. (eg. `address(0)`)"
        }
      ],
      "OwnableUnauthorizedAccount(address)": [
        {
          "details": "The caller account is not authorized to perform an operation."
        }
      ],
      "ReentrancyGuardReentrantCall()": [
        {
          "details": "Unauthorized reentrant call."
        }
      ],
      "SafeERC20FailedOperation(address)": [
        {
          "details": "An operation with an ERC20 token failed."
        }
      ]
    },
    "kind": "dev",
    "methods": {
      "owner()": {
        "details": "Returns the address of the current owner."
      },
      "registerMarket((address,address,address,address,uint256))": {
        "params": {
          "params": "The market parameters"
        }
      },
      "renounceOwnership()": {
        "details": "Leaves the contract without owner. It will not be possible to call `onlyOwner` functions. Can only be called by the current owner. NOTE: Renouncing ownership will leave the contract without an owner, thereby disabling any functionality that is only available to the owner."
      },
      "transferOwnership(address)": {
        "details": "Transfers ownership of the contract to a new account (`newOwner`). Can only be called by the current owner."
      }
    },
    "title": "MorphoBlueGatewayWrite",
    "version": 1
  },
  "userdoc": {
    "kind": "user",
    "methods": {
      "ROUTER()": {
        "notice": "Immutable router address that can call protected functions"
      },
      "authorize((uint8,address,address,uint256,bytes,(uint256))[],address,(address,uint256)[])": {
        "notice": "Return user-side authorization calls for the given lending instructions.         One element per input (or (address(0), bytes(\"\")) if none needed).         Also returns the produced outputs from the simulation of these instructions."
      },
      "getAllMarketIds()": {
        "notice": "Get all registered market IDs"
      },
      "getMarketParams(bytes32)": {
        "notice": "Get market params by ID"
      },
      "isMarketRegistered(bytes32)": {
        "notice": "Whether a market ID is registered"
      },
      "marketIds(uint256)": {
        "notice": "List of registered market IDs for enumeration"
      },
      "morpho()": {
        "notice": "The Morpho Blue singleton contract"
      },
      "registerMarket((address,address,address,address,uint256))": {
        "notice": "Register a market for use with this gateway"
      },
      "registeredMarkets(bytes32)": {
        "notice": "Registered markets by their ID"
      }
    },
    "notice": "Gateway for Morpho Blue lending protocol",
    "version": 1
  },
  "storageLayout": {
    "storage": [
      {
        "astId": 1578,
        "contract": "contracts/v2/gateways/morpho/MorphoBlueGatewayWrite.sol:MorphoBlueGatewayWrite",
        "label": "_owner",
        "offset": 0,
        "slot": "0",
        "type": "t_address"
      },
      {
        "astId": 3093,
        "contract": "contracts/v2/gateways/morpho/MorphoBlueGatewayWrite.sol:MorphoBlueGatewayWrite",
        "label": "_status",
        "offset": 0,
        "slot": "1",
        "type": "t_uint256"
      },
      {
        "astId": 23695,
        "contract": "contracts/v2/gateways/morpho/MorphoBlueGatewayWrite.sol:MorphoBlueGatewayWrite",
        "label": "registeredMarkets",
        "offset": 0,
        "slot": "2",
        "type": "t_mapping(t_bytes32,t_struct(MarketParams)32001_storage)"
      },
      {
        "astId": 23699,
        "contract": "contracts/v2/gateways/morpho/MorphoBlueGatewayWrite.sol:MorphoBlueGatewayWrite",
        "label": "marketIds",
        "offset": 0,
        "slot": "3",
        "type": "t_array(t_bytes32)dyn_storage"
      },
      {
        "astId": 23704,
        "contract": "contracts/v2/gateways/morpho/MorphoBlueGatewayWrite.sol:MorphoBlueGatewayWrite",
        "label": "isMarketRegistered",
        "offset": 0,
        "slot": "4",
        "type": "t_mapping(t_bytes32,t_bool)"
      }
    ],
    "types": {
      "t_address": {
        "encoding": "inplace",
        "label": "address",
        "numberOfBytes": "20"
      },
      "t_array(t_bytes32)dyn_storage": {
        "base": "t_bytes32",
        "encoding": "dynamic_array",
        "label": "bytes32[]",
        "numberOfBytes": "32"
      },
      "t_bool": {
        "encoding": "inplace",
        "label": "bool",
        "numberOfBytes": "1"
      },
      "t_bytes32": {
        "encoding": "inplace",
        "label": "bytes32",
        "numberOfBytes": "32"
      },
      "t_mapping(t_bytes32,t_bool)": {
        "encoding": "mapping",
        "key": "t_bytes32",
        "label": "mapping(bytes32 => bool)",
        "numberOfBytes": "32",
        "value": "t_bool"
      },
      "t_mapping(t_bytes32,t_struct(MarketParams)32001_storage)": {
        "encoding": "mapping",
        "key": "t_bytes32",
        "label": "mapping(bytes32 => struct MarketParams)",
        "numberOfBytes": "32",
        "value": "t_struct(MarketParams)32001_storage"
      },
      "t_struct(MarketParams)32001_storage": {
        "encoding": "inplace",
        "label": "struct MarketParams",
        "members": [
          {
            "astId": 31992,
            "contract": "contracts/v2/gateways/morpho/MorphoBlueGatewayWrite.sol:MorphoBlueGatewayWrite",
            "label": "loanToken",
            "offset": 0,
            "slot": "0",
            "type": "t_address"
          },
          {
            "astId": 31994,
            "contract": "contracts/v2/gateways/morpho/MorphoBlueGatewayWrite.sol:MorphoBlueGatewayWrite",
            "label": "collateralToken",
            "offset": 0,
            "slot": "1",
            "type": "t_address"
          },
          {
            "astId": 31996,
            "contract": "contracts/v2/gateways/morpho/MorphoBlueGatewayWrite.sol:MorphoBlueGatewayWrite",
            "label": "oracle",
            "offset": 0,
            "slot": "2",
            "type": "t_address"
          },
          {
            "astId": 31998,
            "contract": "contracts/v2/gateways/morpho/MorphoBlueGatewayWrite.sol:MorphoBlueGatewayWrite",
            "label": "irm",
            "offset": 0,
            "slot": "3",
            "type": "t_address"
          },
          {
            "astId": 32000,
            "contract": "contracts/v2/gateways/morpho/MorphoBlueGatewayWrite.sol:MorphoBlueGatewayWrite",
            "label": "lltv",
            "offset": 0,
            "slot": "4",
            "type": "t_uint256"
          }
        ],
        "numberOfBytes": "160"
      },
      "t_uint256": {
        "encoding": "inplace",
        "label": "uint256",
        "numberOfBytes": "32"
      }
    }
  }
}