{
  "address": "0x05d8920B8a7eF5709c5F8c1C3DA1E00DB32A3210",
  "abi": [
    {
      "inputs": [
        {
          "internalType": "address",
          "name": "router",
          "type": "address"
        },
        {
          "internalType": "address",
          "name": "owner_",
          "type": "address"
        },
        {
          "internalType": "address",
          "name": "morpho_",
          "type": "address"
        }
      ],
      "stateMutability": "nonpayable",
      "type": "constructor"
    },
    {
      "inputs": [
        {
          "internalType": "address",
          "name": "target",
          "type": "address"
        }
      ],
      "name": "AddressEmptyCode",
      "type": "error"
    },
    {
      "inputs": [
        {
          "internalType": "address",
          "name": "account",
          "type": "address"
        }
      ],
      "name": "AddressInsufficientBalance",
      "type": "error"
    },
    {
      "inputs": [],
      "name": "FailedInnerCall",
      "type": "error"
    },
    {
      "inputs": [],
      "name": "InvalidMarketParams",
      "type": "error"
    },
    {
      "inputs": [
        {
          "internalType": "bytes32",
          "name": "marketId",
          "type": "bytes32"
        }
      ],
      "name": "MarketNotRegistered",
      "type": "error"
    },
    {
      "inputs": [
        {
          "internalType": "address",
          "name": "owner",
          "type": "address"
        }
      ],
      "name": "OwnableInvalidOwner",
      "type": "error"
    },
    {
      "inputs": [
        {
          "internalType": "address",
          "name": "account",
          "type": "address"
        }
      ],
      "name": "OwnableUnauthorizedAccount",
      "type": "error"
    },
    {
      "inputs": [],
      "name": "ReentrancyGuardReentrantCall",
      "type": "error"
    },
    {
      "inputs": [
        {
          "internalType": "address",
          "name": "token",
          "type": "address"
        }
      ],
      "name": "SafeERC20FailedOperation",
      "type": "error"
    },
    {
      "inputs": [],
      "name": "ZeroAddress",
      "type": "error"
    },
    {
      "anonymous": false,
      "inputs": [
        {
          "indexed": true,
          "internalType": "bytes32",
          "name": "marketId",
          "type": "bytes32"
        },
        {
          "indexed": false,
          "internalType": "address",
          "name": "loanToken",
          "type": "address"
        },
        {
          "indexed": false,
          "internalType": "address",
          "name": "collateralToken",
          "type": "address"
        }
      ],
      "name": "MarketRegistered",
      "type": "event"
    },
    {
      "anonymous": false,
      "inputs": [
        {
          "indexed": true,
          "internalType": "address",
          "name": "previousOwner",
          "type": "address"
        },
        {
          "indexed": true,
          "internalType": "address",
          "name": "newOwner",
          "type": "address"
        }
      ],
      "name": "OwnershipTransferred",
      "type": "event"
    },
    {
      "inputs": [],
      "name": "ROUTER",
      "outputs": [
        {
          "internalType": "address",
          "name": "",
          "type": "address"
        }
      ],
      "stateMutability": "view",
      "type": "function"
    },
    {
      "inputs": [
        {
          "components": [
            {
              "internalType": "enum ProtocolTypes.LendingOp",
              "name": "op",
              "type": "uint8"
            },
            {
              "internalType": "address",
              "name": "token",
              "type": "address"
            },
            {
              "internalType": "address",
              "name": "user",
              "type": "address"
            },
            {
              "internalType": "uint256",
              "name": "amount",
              "type": "uint256"
            },
            {
              "internalType": "bytes",
              "name": "context",
              "type": "bytes"
            },
            {
              "components": [
                {
                  "internalType": "uint256",
                  "name": "index",
                  "type": "uint256"
                }
              ],
              "internalType": "struct ProtocolTypes.InputPtr",
              "name": "input",
              "type": "tuple"
            }
          ],
          "internalType": "struct ProtocolTypes.LendingInstruction[]",
          "name": "instrs",
          "type": "tuple[]"
        },
        {
          "internalType": "address",
          "name": "caller",
          "type": "address"
        },
        {
          "components": [
            {
              "internalType": "address",
              "name": "token",
              "type": "address"
            },
            {
              "internalType": "uint256",
              "name": "amount",
              "type": "uint256"
            }
          ],
          "internalType": "struct ProtocolTypes.Output[]",
          "name": "inputs",
          "type": "tuple[]"
        }
      ],
      "name": "authorize",
      "outputs": [
        {
          "internalType": "address[]",
          "name": "targets",
          "type": "address[]"
        },
        {
          "internalType": "bytes[]",
          "name": "data",
          "type": "bytes[]"
        },
        {
          "components": [
            {
              "internalType": "address",
              "name": "token",
              "type": "address"
            },
            {
              "internalType": "uint256",
              "name": "amount",
              "type": "uint256"
            }
          ],
          "internalType": "struct ProtocolTypes.Output[]",
          "name": "produced",
          "type": "tuple[]"
        }
      ],
      "stateMutability": "view",
      "type": "function"
    },
    {
      "inputs": [
        {
          "components": [
            {
              "internalType": "enum ProtocolTypes.LendingOp",
              "name": "op",
              "type": "uint8"
            },
            {
              "internalType": "address",
              "name": "token",
              "type": "address"
            },
            {
              "internalType": "address",
              "name": "user",
              "type": "address"
            },
            {
              "internalType": "uint256",
              "name": "amount",
              "type": "uint256"
            },
            {
              "internalType": "bytes",
              "name": "context",
              "type": "bytes"
            },
            {
              "components": [
                {
                  "internalType": "uint256",
                  "name": "index",
                  "type": "uint256"
                }
              ],
              "internalType": "struct ProtocolTypes.InputPtr",
              "name": "input",
              "type": "tuple"
            }
          ],
          "internalType": "struct ProtocolTypes.LendingInstruction[]",
          "name": "instrs",
          "type": "tuple[]"
        },
        {
          "internalType": "address",
          "name": "",
          "type": "address"
        },
        {
          "components": [
            {
              "internalType": "address",
              "name": "token",
              "type": "address"
            },
            {
              "internalType": "uint256",
              "name": "amount",
              "type": "uint256"
            }
          ],
          "internalType": "struct ProtocolTypes.Output[]",
          "name": "",
          "type": "tuple[]"
        }
      ],
      "name": "deauthorize",
      "outputs": [
        {
          "internalType": "address[]",
          "name": "targets",
          "type": "address[]"
        },
        {
          "internalType": "bytes[]",
          "name": "data",
          "type": "bytes[]"
        }
      ],
      "stateMutability": "view",
      "type": "function"
    },
    {
      "inputs": [],
      "name": "getAllMarketIds",
      "outputs": [
        {
          "internalType": "bytes32[]",
          "name": "",
          "type": "bytes32[]"
        }
      ],
      "stateMutability": "view",
      "type": "function"
    },
    {
      "inputs": [
        {
          "internalType": "bytes32",
          "name": "marketId",
          "type": "bytes32"
        }
      ],
      "name": "getMarketParams",
      "outputs": [
        {
          "components": [
            {
              "internalType": "address",
              "name": "loanToken",
              "type": "address"
            },
            {
              "internalType": "address",
              "name": "collateralToken",
              "type": "address"
            },
            {
              "internalType": "address",
              "name": "oracle",
              "type": "address"
            },
            {
              "internalType": "address",
              "name": "irm",
              "type": "address"
            },
            {
              "internalType": "uint256",
              "name": "lltv",
              "type": "uint256"
            }
          ],
          "internalType": "struct MarketParams",
          "name": "",
          "type": "tuple"
        }
      ],
      "stateMutability": "view",
      "type": "function"
    },
    {
      "inputs": [
        {
          "internalType": "bytes32",
          "name": "",
          "type": "bytes32"
        }
      ],
      "name": "isMarketRegistered",
      "outputs": [
        {
          "internalType": "bool",
          "name": "",
          "type": "bool"
        }
      ],
      "stateMutability": "view",
      "type": "function"
    },
    {
      "inputs": [
        {
          "internalType": "uint256",
          "name": "",
          "type": "uint256"
        }
      ],
      "name": "marketIds",
      "outputs": [
        {
          "internalType": "bytes32",
          "name": "",
          "type": "bytes32"
        }
      ],
      "stateMutability": "view",
      "type": "function"
    },
    {
      "inputs": [],
      "name": "morpho",
      "outputs": [
        {
          "internalType": "contract IMorphoBlue",
          "name": "",
          "type": "address"
        }
      ],
      "stateMutability": "view",
      "type": "function"
    },
    {
      "inputs": [],
      "name": "owner",
      "outputs": [
        {
          "internalType": "address",
          "name": "",
          "type": "address"
        }
      ],
      "stateMutability": "view",
      "type": "function"
    },
    {
      "inputs": [
        {
          "components": [
            {
              "internalType": "address",
              "name": "token",
              "type": "address"
            },
            {
              "internalType": "uint256",
              "name": "amount",
              "type": "uint256"
            }
          ],
          "internalType": "struct ProtocolTypes.Output[]",
          "name": "inputs",
          "type": "tuple[]"
        },
        {
          "internalType": "bytes",
          "name": "data",
          "type": "bytes"
        }
      ],
      "name": "processLendingInstruction",
      "outputs": [
        {
          "components": [
            {
              "internalType": "address",
              "name": "token",
              "type": "address"
            },
            {
              "internalType": "uint256",
              "name": "amount",
              "type": "uint256"
            }
          ],
          "internalType": "struct ProtocolTypes.Output[]",
          "name": "",
          "type": "tuple[]"
        }
      ],
      "stateMutability": "nonpayable",
      "type": "function"
    },
    {
      "inputs": [
        {
          "components": [
            {
              "internalType": "address",
              "name": "loanToken",
              "type": "address"
            },
            {
              "internalType": "address",
              "name": "collateralToken",
              "type": "address"
            },
            {
              "internalType": "address",
              "name": "oracle",
              "type": "address"
            },
            {
              "internalType": "address",
              "name": "irm",
              "type": "address"
            },
            {
              "internalType": "uint256",
              "name": "lltv",
              "type": "uint256"
            }
          ],
          "internalType": "struct MarketParams",
          "name": "params",
          "type": "tuple"
        }
      ],
      "name": "registerMarket",
      "outputs": [],
      "stateMutability": "nonpayable",
      "type": "function"
    },
    {
      "inputs": [
        {
          "internalType": "bytes32",
          "name": "",
          "type": "bytes32"
        }
      ],
      "name": "registeredMarkets",
      "outputs": [
        {
          "internalType": "address",
          "name": "loanToken",
          "type": "address"
        },
        {
          "internalType": "address",
          "name": "collateralToken",
          "type": "address"
        },
        {
          "internalType": "address",
          "name": "oracle",
          "type": "address"
        },
        {
          "internalType": "address",
          "name": "irm",
          "type": "address"
        },
        {
          "internalType": "uint256",
          "name": "lltv",
          "type": "uint256"
        }
      ],
      "stateMutability": "view",
      "type": "function"
    },
    {
      "inputs": [],
      "name": "renounceOwnership",
      "outputs": [],
      "stateMutability": "nonpayable",
      "type": "function"
    },
    {
      "inputs": [
        {
          "internalType": "address",
          "name": "newOwner",
          "type": "address"
        }
      ],
      "name": "transferOwnership",
      "outputs": [],
      "stateMutability": "nonpayable",
      "type": "function"
    }
  ],
  "transactionHash": "0x06bd05bf663ddbfbad1b0a0e3d5256c39432da40e181dd286e155f524031f4ff",
  "args": [
    "0xf00dF09401AfBA1eF9f24b0ACe0720BcB3E5A1dc",
    "0x0BE61223F99E57b8b8B7033a77B54Adc7f7cF027",
    "0xBBBBBbbBBb9cC5e90e3b3Af64bdAF62C37EEFFCb"
  ],
  "numDeployments": 1,
  "solcInputHash": "34e55508de260c2f03a3603690a8d588",
  "bytecode": "0x60c03461019d57601f61293338819003918201601f19168301916001600160401b038311848410176101a15780849260609460405283398101031261019d57610047816101b5565b906100606040610059602084016101b5565b92016101b5565b916001600160a01b0381161561016d576080526001600160a01b031690811561015a575f80546001600160a01b031981168417825560405193916001600160a01b03909116907f8be0079c531659141344cd1fd0a4f28419497f9722a3daafe3b4186f6b6457e09080a3600180556001600160a01b0316801561014b5760a05261276990816101ca82396080518181816104cb01526110c3015260a051818181610154015281816107ed01528181610abc01528181611785015281816118b501528181611aa001528181611b9401528181612024015281816120fb0152818161222a01526123a20152f35b63d92e233d60e01b5f5260045ffd5b631e4fbdf760e01b5f525f60045260245ffd5b60405162461bcd60e51b81526020600482015260086024820152670726f757465723d360c41b6044820152606490fd5b5f80fd5b634e487b7160e01b5f52604160045260245ffd5b51906001600160a01b038216820361019d5756fe6080806040526004361015610012575f80fd5b5f3560e01c90816332fe7b26146110b157508063385ec17e146110825780634d0ee9f314610fce57806352ed587514610a33578063715018a6146109dc57806376a32e711461096a578063779a9683146109325780638da5cb5b1461090b578063aad11a3f14610761578063ae4be46d14610459578063b512cdfe14610239578063b85ed63614610183578063d8fbc8331461013f5763f2fde38b146100b6575f80fd5b3461013b57602036600319011261013b576100cf611131565b6100d76119e9565b6001600160a01b03168015610128575f80546001600160a01b03198116831782556001600160a01b0316907f8be0079c531659141344cd1fd0a4f28419497f9722a3daafe3b4186f6b6457e09080a3005b631e4fbdf760e01b5f525f60045260245ffd5b5f80fd5b3461013b575f36600319011261013b576040517f00000000000000000000000000000000000000000000000000000000000000006001600160a01b03168152602090f35b3461013b575f36600319011261013b576040518060206003549283815201809260035f527fc2575a0e9e593c00f959f8c92f12db2869c3395a3b0502d05e2516446f71f85b905f5b81811061022357505050816101e1910382611391565b604051918291602083019060208452518091526040830191905f5b81811061020a575050500390f35b82518452859450602093840193909201916001016101fc565b82548452602090930192600192830192016101cb565b3461013b5760a036600319011261013b576102526119e9565b6001600160a01b0361026261154c565b16158015610441575b6104325760405161027b81611340565b610283611131565b81526024356001600160a01b038116810361013b576020820152604435906001600160a01b038216820361013b57604081018290526064356001600160a01b038116810361013b578060608301526102e3608435928360808201526124c5565b92835f52600460205260ff60405f205416156102fb57005b5f84815260026020526040902060049290916001600160a01b0361031d61154c565b84546001600160a01b0319169116178355610336611562565b6001840180546001600160a01b03199081166001600160a01b03938416179091556002850180548216938316939093179092556003808501805490931693909116929092179055910191909155546801000000000000000081101561041e578060016103a59201600355611314565b81549060031b9083821b915f19901b1916179055805f52600460205260405f20600160ff198254161790557f393bf4ff2983ac2030da8f04a013ff4ac3176d2440549a516edff6f881c4db3b6103f961154c565b610401611562565b604080516001600160a01b039384168152919092166020820152a2005b634e487b7160e01b5f52604160045260245ffd5b63494e780760e01b5f5260045ffd5b506001600160a01b03610452611562565b161561026b565b3461013b57604036600319011261013b576004356001600160401b03811161013b5761048990369060040161115b565b90602435906001600160401b03821161013b573660238301121561013b5781600401356001600160401b03811161013b57820191602483019036821161013b577f00000000000000000000000000000000000000000000000000000000000000006001600160a01b031633036107255760208185031261013b5760248101356001600160401b03811161013b5701928390039360c0851261013b576040519261053184611376565b6024850135600a81101561013b57845261054d60448601611147565b602085015261055e60648601611147565b946040850195865260608501936084820135855260a48201356001600160401b03811161013b5760249083010181601f8201121561013b5760209181836105a793359101611516565b6080870190815297609f19011261013b5760405196602088018881106001600160401b0382111761041e576105ed9260c4916040520135885260a0860197885251611602565b955151928284101561071a5750916106079160209361158c565b0135905b8051600a8110156107065783516040515f9283926106b7906001600160a01b0316610637606085611391565b602584527f4d6f7270686f426c75653a206f703d25732c20616d6f756e743d25732c20757360208501526465723d257360d81b60408501526040519283916106986020840196631c43bc4f60e31b88526080602486015260a4850190611250565b916044840152896064840152608483015203601f198101835282611391565b51906a636f6e736f6c652e6c6f675afa505190600a821015610706579151610702936106ee936001600160a01b0390921692611a0f565b6040519182916020835260208301906112cc565b0390f35b634e487b7160e01b5f52602160045260245ffd5b92505050519061060b565b60405162461bcd60e51b815260206004820152601460248201527313db9b1e481c9bdd5d195c8818d85b8818d85b1b60621b6044820152606490fd5b3461013b5761076f3661118b565b50505061077b816113f3565b9061078581611425565b925f915f5b8181106108c7575b505f925b8184106107c7576107b98561070288604051938493604085526040850190611214565b908382036020850152611274565b6107d284838561146e565b35600a81101561013b578190816108a8575b501561086c57507f00000000000000000000000000000000000000000000000000000000000000006001600160a01b031661081f84866115a9565b526040516207767560ed1b60208201523060248201525f60448201526044815261084a606482611391565b61085484876115a9565b5261085f83866115a9565b5060015f935b0192610796565b92805f61087b600193886115a9565b5260405161088a602082611391565b5f815261089782896115a9565b526108a281886115a9565b50610865565b60028114915081156108bc575b50876107e4565b6003915014876108b5565b6108d281838561146e565b35600a81101561013b5760028114908115610900575b506108f55760010161078a565b506001925085610792565b6003915014876108e8565b3461013b575f36600319011261013b575f546040516001600160a01b039091168152602090f35b3461013b57602036600319011261013b5760043560035481101561013b5761095b602091611314565b90549060031b1c604051908152f35b3461013b57602036600319011261013b576004355f52600260205260a060405f20600180831b0381541690600180841b0360018201541690600180851b036002820154166004600180871b03600384015416920154926040519485526020850152604084015260608301526080820152f35b3461013b575f36600319011261013b576109f46119e9565b5f80546001600160a01b0319811682556001600160a01b03167f8be0079c531659141344cd1fd0a4f28419497f9722a3daafe3b4186f6b6457e08280a3005b3461013b57610a413661118b565b91929093610a4e826113f3565b93610a5883611425565b925f945f5b828110610f345750610a6e866113dc565b95610a7c6040519788611391565b808752610a8b601f19916113dc565b015f5b818110610f115750506040516332f256cf60e11b81526001600160a01b0393841660048201523060248201527f00000000000000000000000000000000000000000000000000000000000000009093169291905f90602084604481885afa938415610f06575f94610ed5575b505f925f925b818410610b4357610b278b6107028c610b358d604051958695606087526060870190611214565b908582036020870152611274565b9083820360408501526112cc565b610b4e84838a61146e565b6080810135601e198236030181121561013b578101908135916001600160401b03831161013b57602001823603811361013b57610b928f9391610b97923691611516565b611602565b90610ba460208201611578565b506060810135928660a083013591818310610ea5575b5050508035600a81101561013b578d8f91600281145f14610cc8575050505060200151604051610c1b939290916001600160a01b0316610bf98361135b565b82526020820152610c0a828d6115a9565b52610c15818c6115a9565b50611490565b928a868715610cc1575b15610c6857905f610c38826001946115a9565b52604051610c47602082611391565b5f8152610c54828c6115a9565b52610c5f818b6115a9565b505b0192610b00565b8188929650610c76916115a9565b526040516207767560ed1b60208201523060248201526001604482015260448152610ca2606482611391565b610cac858a6115a9565b52610cb784896115a9565b5060018094610c61565b5085610c25565b60038103610d445750509151604051610cf3959490935091506001600160a01b0316610bf98361135b565b928a868715610d3d575b15610c6857905f610d10826001946115a9565b52604051610d1f602082611391565b5f8152610d2c828c6115a9565b52610d37818b6115a9565b50610c61565b5085610cfd565b9091929395989450600581145f14610de457505050610d686040610d6e9201611578565b83611886565b916103e98302928084046103e91490151715610dd057610d1082610dca8f988f81610c15916001996103e85f998c8060a01b039051169160405192610db28461135b565b8352046020820152610dc483836115a9565b526115a9565b976115a9565b634e487b7160e01b5f52601160045260245ffd5b60068103610e4b57505050610dfe6040610e049201611578565b83611741565b916103e98302928084046103e91490151715610dd057610d1082610dca8f988f81610c15916001996103e85f9960208d8060a01b03910151169160405192610db28461135b565b9197939490925090600403610e945783610dca84610c15600197965f96610d10968a8060a01b0390511660405190610e828261135b565b8152886020820152610dc483836115a9565b505093905f610d10826001946115a9565b60209395509081610ec3610ebe8584610ec9979661158c565b611578565b5061158c565b0135918f8f8790610bba565b610ef891945060203d602011610eff575b610ef08183611391565b8101906114e3565b928a610afa565b503d610ee6565b6040513d5f823e3d90fd5b602090604051610f208161135b565b5f81525f8382015282828b01015201610a8e565b610f3f81848761146e565b35600a81101561013b5760028114905f8215610fc1575b8215610fb0575b8215610f9f575b8215610f8e575b5050610f7a575b600101610a5d565b95610f86600191611490565b969050610f72565b909150610706576006148a80610f6b565b809250610706576005811491610f64565b809250610706576004811491610f5d565b506003811491505f610f56565b3461013b57602036600319011261013b57600435610fea6113b2565b50805f52600460205260ff60405f20541615611070575f52600260205260a060405f2060046040519161101c83611340565b600180851b038154168352600180851b036001820154166020840152600180851b036002820154166040840152600180851b0360038201541660608401520154608082015261106e60405180926110f2565bf35b63a814860360e01b5f5260045260245ffd5b3461013b57602036600319011261013b576004355f526004602052602060ff60405f2054166040519015158152f35b3461013b575f36600319011261013b577f00000000000000000000000000000000000000000000000000000000000000006001600160a01b03168152602090f35b80516001600160a01b03908116835260208083015182169084015260408083015182169084015260608083015190911690830152608090810151910152565b600435906001600160a01b038216820361013b57565b35906001600160a01b038216820361013b57565b9181601f8401121561013b578235916001600160401b03831161013b576020808501948460061b01011161013b57565b90606060031983011261013b57600435916001600160401b03831161013b578060238401121561013b578260040135926001600160401b03841161013b578160248560051b8301011161013b576024908101939290356001600160a01b038116810361013b5791604435906001600160401b03821161013b576112109160040161115b565b9091565b90602080835192838152019201905f5b8181106112315750505090565b82516001600160a01b0316845260209384019390920191600101611224565b805180835260209291819084018484015e5f828201840152601f01601f1916010190565b9080602083519182815201916020808360051b8301019401925f915b83831061129f57505050505090565b90919293946020806112bd600193601f198682030187528951611250565b97019301930191939290611290565b90602080835192838152019201905f5b8181106112e95750505090565b825180516001600160a01b0316855260209081015181860152604090940193909201916001016112dc565b60035481101561132c5760035f5260205f2001905f90565b634e487b7160e01b5f52603260045260245ffd5b60a081019081106001600160401b0382111761041e57604052565b604081019081106001600160401b0382111761041e57604052565b60c081019081106001600160401b0382111761041e57604052565b90601f801991011681019081106001600160401b0382111761041e57604052565b604051906113bf82611340565b5f6080838281528260208201528260408201528260608201520152565b6001600160401b03811161041e5760051b60200190565b906113fd826113dc565b61140a6040519182611391565b828152809261141b601f19916113dc565b0190602036910137565b9061142f826113dc565b61143c6040519182611391565b828152809261144d601f19916113dc565b01905f5b82811061145d57505050565b806060602080938501015201611451565b919081101561132c5760051b8101359060be198136030182121561013b570190565b5f198114610dd05760010190565b604051906114ad602083611391565b5f80835282815b8281106114c057505050565b6020906040516114cf8161135b565b5f81525f83820152828285010152016114b4565b9081602091031261013b5751801515810361013b5790565b6001600160401b03811161041e57601f01601f191660200190565b929192611522826114fb565b916115306040519384611391565b82948184528183011161013b578281602093845f960137010152565b6004356001600160a01b038116810361013b5790565b6024356001600160a01b038116810361013b5790565b356001600160a01b038116810361013b5790565b919081101561132c5760061b0190565b80511561132c5760200190565b805182101561132c5760209160051b010190565b81810292918115918404141715610dd057565b81156115da570490565b634e487b7160e01b5f52601260045260245ffd5b51906001600160a01b038216820361013b57565b61160a6113b2565b50805160a01161167b5760a08180518101031261013b5760a06040519161163083611340565b61163c602082016115ee565b835261164a604082016115ee565b602084015261165b606082016115ee565b604084015261166c608082016115ee565b60608401520151608082015290565b60405162461bcd60e51b815260206004820152603360248201527f4d6f7270686f426c75653a20696e76616c696420636f6e74657874202d206578604482015272706563746564204d61726b6574506172616d7360681b6064820152608490fd5b51906001600160801b038216820361013b57565b9081606091031261013b5760405190606082018281106001600160401b0382111761041e576117399160409182528051845261172e602082016116dc565b6020850152016116dc565b604082015290565b611781916117506060926124c5565b6040516349e2903160e11b815260048101919091526001600160a01b03909116602482015291829081906044820190565b03817f00000000000000000000000000000000000000000000000000000000000000006001600160a01b03165afa908115610f06576001600160801b03916040915f916117d0575b5001511690565b6117f2915060603d6060116117f8575b6117ea8183611391565b8101906116f0565b5f6117c9565b503d6117e0565b908160c091031261013b5761187160a06040519261181c84611376565b611825816116dc565b8452611833602082016116dc565b6020850152611844604082016116dc565b6040850152611855606082016116dc565b6060850152611866608082016116dc565b6080850152016116dc565b60a082015290565b91908201809211610dd057565b61188f906124c5565b6040516349e2903160e11b8152600481018290526001600160a01b0392831660248201527f000000000000000000000000000000000000000000000000000000000000000090921691606081604481865afa8015610f06576020915f916119ca575b5001906001600160801b03825116156119925760c090602460405180958193632e3071cd60e11b835260048301525afa918215610f06575f92611999575b5060608201916001600160801b0383511615611992576119656001600160801b03918260408161196f96511692015116906115bd565b9251168092611879565b5f19810191908211610dd057611984916115d0565b60018101809111610dd05790565b5050505f90565b6119bc91925060c03d60c0116119c3575b6119b48183611391565b8101906117ff565b905f61192f565b503d6119aa565b6119e3915060603d6060116117f8576117ea8183611391565b5f6118f1565b5f546001600160a01b031633036119fc57565b63118cdaa760e01b5f523360045260245ffd5b5f9392600a82101561070657811561236957600182146121f257600282146120b557600682146120965760038214611fc35760048214611b375750600514611a8f5760405162461bcd60e51b815260206004820152601660248201527504d6f7270686f426c75653a20756e6b6e6f776e206f760541b6044820152606490fd5b80516001600160a01b0390811693907f000000000000000000000000000000000000000000000000000000000000000016803b15611b335781809160a460405180948193630a8e0d6f60e11b8352611aea600484018a6110f2565b5af18015611b2857611b10575b5050611b0d9291611b0791611886565b9061253c565b90565b611b1b828092611391565b611b255780611af7565b80fd5b6040513d84823e3d90fd5b5080fd5b82516040516370a0823160e01b81523060048201529596956001600160a01b0390911694909390925090602084602481885afa938415611fb8578794611f84575b50611b85813033886125bb565b60405163095ea7b360e01b81527f00000000000000000000000000000000000000000000000000000000000000006001600160a01b0316600482018190526024820189905291906020816044818c8b5af18015611f5c57611f67575b5060405163095ea7b360e01b81526001600160a01b0383166004820152602481018290526020816044818c8b5af18015611f5c57611f3f575b50611c24836124c5565b6040516349e2903160e11b8152600481018290526001600160a01b0386166024820152909190606081604481875afa8015611f15576020918b91611f20575b5001916001600160801b03835116611d37575b505050505050604051906370a0823160e01b8252306004830152602082602481865afa918215611d2c578592611cf8575b5080821115611ceb578103908111611cd757611b0d929350905b811561253c57611cd2823383612606565b61253c565b634e487b7160e01b84526011600452602484fd5b5050611b0d919290611cc1565b9091506020813d602011611d24575b81611d1460209383611391565b8101031261013b5751905f611ca7565b3d9150611d07565b6040513d87823e3d90fd5b60405190632e3071cd60e11b8252600482015260c081602481875afa908115611f15578a91611ef6575b5060608101908a6001600160801b0383511615155f14611eea5750611d9b611dac916001600160801b0360408188511692015116906115bd565b6001600160801b0383511690611879565b5f19810191908211611ed6578a949392916001600160801b03611dd1925116906115d0565b8110611e7d575092611e0a92610144926001600160801b03604096511696865197889687956320b76e8160e01b875260048701906110f2565b60a4850184905260c48501526001600160a01b031660e484015261012061010484015261012483018290525af18015611d2c57611e4f575b505b5f8080808080611c76565b611e709060403d604011611e76575b611e688183611391565b8101906124eb565b50611e42565b503d611e5e565b9050611ea394926040948551968795869485936320b76e8160e01b855260048501612501565b03925af18015611d2c57611eb8575b50611e44565b611ed09060403d604011611e7657611e688183611391565b50611eb2565b634e487b7160e01b8b52601160045260248bfd5b94939291505083611dd1565b611f0f915060c03d60c0116119c3576119b48183611391565b5f611d61565b6040513d8c823e3d90fd5b611f39915060603d6060116117f8576117ea8183611391565b5f611c63565b611f579060203d602011610eff57610ef08183611391565b611c1a565b6040513d8b823e3d90fd5b611f7f9060203d602011610eff57610ef08183611391565b611be1565b9093506020813d602011611fb0575b81611fa060209383611391565b8101031261013b5751925f611b78565b3d9150611f93565b6040513d89823e3d90fd5b82516040516350d8cd4b60e01b8152959695946001600160a01b0390911693925090611ff260048601846110f2565b60a485015260c484018690526001600160a01b0390811660e485015230610104850152604090849061012490829089907f0000000000000000000000000000000000000000000000000000000000000000165af1928315611d2c57611b0d949593612070575b5051611cd290839033906001600160a01b0316612606565b611cd291935061208e9060403d604011611e7657611e688183611391565b509290612058565b50506020810151611b0d93506001600160a01b031691611b0791611741565b9290508360018060a09796971b0360208401511692846120d4826124c5565b6040516349e2903160e11b815260048101919091526001600160a01b0385811660248301527f0000000000000000000000000000000000000000000000000000000000000000169190606081604481865afa908115611d2c576001600160801b039160409187916121d3575b500151168091116121cb575b50803b156121c757604051638720316d60e01b8152938492610104928492869261217a9060048601906110f2565b60a484018a90526001600160a01b031660c48401523360e48401525af18015611d2c576121ae575b50611b0d92935061253c565b6121b9858092611391565b6121c357836121a2565b8380fd5b8280fd5b95505f61214c565b6121ec915060603d6060116117f8576117ea8183611391565b5f612140565b93505090602082016122118460018060a01b03835116309033906125bb565b805160405163095ea7b360e01b81526001600160a01b037f00000000000000000000000000000000000000000000000000000000000000008116600483018190525f6024840181905290949360209284926044928492165af18015610f065761234c575b505160405163095ea7b360e01b81526001600160a01b038381166004830152602482018790529091602091839160449183915f91165af18015610f065761232f575b50803b1561013b575f9283610124926122e694604051978896879563238d657960e01b875260048701906110f2565b60a48501526001600160a01b031660c484015261010060e484015261010483018290525af18015610f065761231f575b50611b0d61149e565b5f61232991611391565b5f612316565b6123479060203d602011610eff57610ef08183611391565b6122b7565b6123649060203d602011610eff57610ef08183611391565b612275565b8251929450929161238991508390309033906001600160a01b03166125bb565b825160405163095ea7b360e01b81526001600160a01b037f00000000000000000000000000000000000000000000000000000000000000008116600483018190525f60248401819052909360209284926044928492165af18015610f06576124a8575b50835160405163095ea7b360e01b81526001600160a01b03838116600483015260248201869052909491602091869160449183915f91165af18015610f0657612456956040955f9261248b575b50855163a99aad8960e01b81529687958694859360048501612501565b03925af18015610f065761246d5750611b0d61149e565b6124859060403d604011611e7657611e688183611391565b50612316565b6124a39060203d602011610eff57610ef08183611391565b612439565b6124c09060203d602011610eff57610ef08183611391565b6123ec565b6040516124d66020820180936110f2565b60a081526124e560c082611391565b51902090565b919082604091031261013b576020825192015190565b916125108361014095936110f2565b60a08301525f60c083015260018060a01b031660e08201526101206101008201525f6101208201520190565b90919060408051919061254f8184611391565b60018352601f19015f5b81811061259857505090612595918194604051916125768361135b565b6001600160a01b03168252602082015261258f8261159c565b5261159c565b50565b6020906040516125a78161135b565b5f81525f8382015282828701015201612559565b6040516323b872dd60e01b60208201526001600160a01b039283166024820152929091166044830152606480830193909352918152612604916125ff608483611391565b612642565b565b60405163a9059cbb60e01b60208201526001600160a01b03929092166024830152604480830193909352918152612604916125ff606483611391565b5f8061268a9260018060a01b03169360208151910182865af13d156126cd573d9061266c826114fb565b9161267a6040519384611391565b82523d5f602084013e5b836126d5565b80519081151591826126b2575b50506126a05750565b635274afe760e01b5f5260045260245ffd5b6126c592506020809183010191016114e3565b155f80612697565b606090612684565b906126f957508051156126ea57805190602001fd5b630a12f52160e11b5f5260045ffd5b8151158061272a575b61270a575090565b639996b31560e01b5f9081526001600160a01b0391909116600452602490fd5b50803b1561270256fea2646970667358221220cb6797dc8945eb64bf30fe700a5108135f21e5e49fecbfd22d1ed85563c0f0bb64736f6c634300081e0033",
  "devdoc": {
    "details": "Morpho Blue uses market-based lending where each market is identified by:      - loanToken: The token being borrowed      - collateralToken: The token used as collateral      - oracle: Price oracle address      - irm: Interest rate model address      - lltv: Liquidation loan-to-value ratio Context encoding for LendingInstruction:   - bytes context = abi.encode(MarketParams) for full market params   - The token field should be the collateral token for collateral ops,     or the loan token for borrow/repay ops",
    "errors": {
      "AddressEmptyCode(address)": [
        {
          "details": "There's no code at `target` (it is not a contract)."
        }
      ],
      "AddressInsufficientBalance(address)": [
        {
          "details": "The ETH balance of the account is not enough to perform the operation."
        }
      ],
      "FailedInnerCall()": [
        {
          "details": "A call to an address target failed. The target may have reverted."
        }
      ],
      "OwnableInvalidOwner(address)": [
        {
          "details": "The owner is not a valid owner account. (eg. `address(0)`)"
        }
      ],
      "OwnableUnauthorizedAccount(address)": [
        {
          "details": "The caller account is not authorized to perform an operation."
        }
      ],
      "ReentrancyGuardReentrantCall()": [
        {
          "details": "Unauthorized reentrant call."
        }
      ],
      "SafeERC20FailedOperation(address)": [
        {
          "details": "An operation with an ERC20 token failed."
        }
      ]
    },
    "kind": "dev",
    "methods": {
      "owner()": {
        "details": "Returns the address of the current owner."
      },
      "registerMarket((address,address,address,address,uint256))": {
        "params": {
          "params": "The market parameters"
        }
      },
      "renounceOwnership()": {
        "details": "Leaves the contract without owner. It will not be possible to call `onlyOwner` functions. Can only be called by the current owner. NOTE: Renouncing ownership will leave the contract without an owner, thereby disabling any functionality that is only available to the owner."
      },
      "transferOwnership(address)": {
        "details": "Transfers ownership of the contract to a new account (`newOwner`). Can only be called by the current owner."
      }
    },
    "title": "MorphoBlueGatewayWrite",
    "version": 1
  },
  "userdoc": {
    "kind": "user",
    "methods": {
      "ROUTER()": {
        "notice": "Immutable router address that can call protected functions"
      },
      "authorize((uint8,address,address,uint256,bytes,(uint256))[],address,(address,uint256)[])": {
        "notice": "Return user-side authorization calls for the given lending instructions.         One element per input (or (address(0), bytes(\"\")) if none needed).         Also returns the produced outputs from the simulation of these instructions."
      },
      "getAllMarketIds()": {
        "notice": "Get all registered market IDs"
      },
      "getMarketParams(bytes32)": {
        "notice": "Get market params by ID"
      },
      "isMarketRegistered(bytes32)": {
        "notice": "Whether a market ID is registered"
      },
      "marketIds(uint256)": {
        "notice": "List of registered market IDs for enumeration"
      },
      "morpho()": {
        "notice": "The Morpho Blue singleton contract"
      },
      "registerMarket((address,address,address,address,uint256))": {
        "notice": "Register a market for use with this gateway"
      },
      "registeredMarkets(bytes32)": {
        "notice": "Registered markets by their ID"
      }
    },
    "notice": "Gateway for Morpho Blue lending protocol",
    "version": 1
  },
  "storageLayout": {
    "storage": [
      {
        "astId": 1432,
        "contract": "contracts/v2/gateways/morpho/MorphoBlueGatewayWrite.sol:MorphoBlueGatewayWrite",
        "label": "_owner",
        "offset": 0,
        "slot": "0",
        "type": "t_address"
      },
      {
        "astId": 2269,
        "contract": "contracts/v2/gateways/morpho/MorphoBlueGatewayWrite.sol:MorphoBlueGatewayWrite",
        "label": "_status",
        "offset": 0,
        "slot": "1",
        "type": "t_uint256"
      },
      {
        "astId": 12994,
        "contract": "contracts/v2/gateways/morpho/MorphoBlueGatewayWrite.sol:MorphoBlueGatewayWrite",
        "label": "registeredMarkets",
        "offset": 0,
        "slot": "2",
        "type": "t_mapping(t_bytes32,t_struct(MarketParams)16800_storage)"
      },
      {
        "astId": 12998,
        "contract": "contracts/v2/gateways/morpho/MorphoBlueGatewayWrite.sol:MorphoBlueGatewayWrite",
        "label": "marketIds",
        "offset": 0,
        "slot": "3",
        "type": "t_array(t_bytes32)dyn_storage"
      },
      {
        "astId": 13003,
        "contract": "contracts/v2/gateways/morpho/MorphoBlueGatewayWrite.sol:MorphoBlueGatewayWrite",
        "label": "isMarketRegistered",
        "offset": 0,
        "slot": "4",
        "type": "t_mapping(t_bytes32,t_bool)"
      }
    ],
    "types": {
      "t_address": {
        "encoding": "inplace",
        "label": "address",
        "numberOfBytes": "20"
      },
      "t_array(t_bytes32)dyn_storage": {
        "base": "t_bytes32",
        "encoding": "dynamic_array",
        "label": "bytes32[]",
        "numberOfBytes": "32"
      },
      "t_bool": {
        "encoding": "inplace",
        "label": "bool",
        "numberOfBytes": "1"
      },
      "t_bytes32": {
        "encoding": "inplace",
        "label": "bytes32",
        "numberOfBytes": "32"
      },
      "t_mapping(t_bytes32,t_bool)": {
        "encoding": "mapping",
        "key": "t_bytes32",
        "label": "mapping(bytes32 => bool)",
        "numberOfBytes": "32",
        "value": "t_bool"
      },
      "t_mapping(t_bytes32,t_struct(MarketParams)16800_storage)": {
        "encoding": "mapping",
        "key": "t_bytes32",
        "label": "mapping(bytes32 => struct MarketParams)",
        "numberOfBytes": "32",
        "value": "t_struct(MarketParams)16800_storage"
      },
      "t_struct(MarketParams)16800_storage": {
        "encoding": "inplace",
        "label": "struct MarketParams",
        "members": [
          {
            "astId": 16791,
            "contract": "contracts/v2/gateways/morpho/MorphoBlueGatewayWrite.sol:MorphoBlueGatewayWrite",
            "label": "loanToken",
            "offset": 0,
            "slot": "0",
            "type": "t_address"
          },
          {
            "astId": 16793,
            "contract": "contracts/v2/gateways/morpho/MorphoBlueGatewayWrite.sol:MorphoBlueGatewayWrite",
            "label": "collateralToken",
            "offset": 0,
            "slot": "1",
            "type": "t_address"
          },
          {
            "astId": 16795,
            "contract": "contracts/v2/gateways/morpho/MorphoBlueGatewayWrite.sol:MorphoBlueGatewayWrite",
            "label": "oracle",
            "offset": 0,
            "slot": "2",
            "type": "t_address"
          },
          {
            "astId": 16797,
            "contract": "contracts/v2/gateways/morpho/MorphoBlueGatewayWrite.sol:MorphoBlueGatewayWrite",
            "label": "irm",
            "offset": 0,
            "slot": "3",
            "type": "t_address"
          },
          {
            "astId": 16799,
            "contract": "contracts/v2/gateways/morpho/MorphoBlueGatewayWrite.sol:MorphoBlueGatewayWrite",
            "label": "lltv",
            "offset": 0,
            "slot": "4",
            "type": "t_uint256"
          }
        ],
        "numberOfBytes": "160"
      },
      "t_uint256": {
        "encoding": "inplace",
        "label": "uint256",
        "numberOfBytes": "32"
      }
    }
  }
}