{
  "address": "0x20536d9BaECb1903f79A2Cc2726ADfe2294a2057",
  "abi": [
    {
      "inputs": [
        {
          "internalType": "address",
          "name": "router",
          "type": "address"
        },
        {
          "internalType": "address",
          "name": "owner_",
          "type": "address"
        },
        {
          "internalType": "address",
          "name": "morpho_",
          "type": "address"
        }
      ],
      "stateMutability": "nonpayable",
      "type": "constructor"
    },
    {
      "inputs": [
        {
          "internalType": "address",
          "name": "target",
          "type": "address"
        }
      ],
      "name": "AddressEmptyCode",
      "type": "error"
    },
    {
      "inputs": [
        {
          "internalType": "address",
          "name": "account",
          "type": "address"
        }
      ],
      "name": "AddressInsufficientBalance",
      "type": "error"
    },
    {
      "inputs": [],
      "name": "FailedInnerCall",
      "type": "error"
    },
    {
      "inputs": [],
      "name": "InvalidMarketParams",
      "type": "error"
    },
    {
      "inputs": [
        {
          "internalType": "bytes32",
          "name": "marketId",
          "type": "bytes32"
        }
      ],
      "name": "MarketNotRegistered",
      "type": "error"
    },
    {
      "inputs": [
        {
          "internalType": "address",
          "name": "owner",
          "type": "address"
        }
      ],
      "name": "OwnableInvalidOwner",
      "type": "error"
    },
    {
      "inputs": [
        {
          "internalType": "address",
          "name": "account",
          "type": "address"
        }
      ],
      "name": "OwnableUnauthorizedAccount",
      "type": "error"
    },
    {
      "inputs": [],
      "name": "ReentrancyGuardReentrantCall",
      "type": "error"
    },
    {
      "inputs": [
        {
          "internalType": "address",
          "name": "token",
          "type": "address"
        }
      ],
      "name": "SafeERC20FailedOperation",
      "type": "error"
    },
    {
      "inputs": [],
      "name": "ZeroAddress",
      "type": "error"
    },
    {
      "anonymous": false,
      "inputs": [
        {
          "indexed": true,
          "internalType": "bytes32",
          "name": "marketId",
          "type": "bytes32"
        },
        {
          "indexed": false,
          "internalType": "address",
          "name": "loanToken",
          "type": "address"
        },
        {
          "indexed": false,
          "internalType": "address",
          "name": "collateralToken",
          "type": "address"
        }
      ],
      "name": "MarketRegistered",
      "type": "event"
    },
    {
      "anonymous": false,
      "inputs": [
        {
          "indexed": true,
          "internalType": "address",
          "name": "previousOwner",
          "type": "address"
        },
        {
          "indexed": true,
          "internalType": "address",
          "name": "newOwner",
          "type": "address"
        }
      ],
      "name": "OwnershipTransferred",
      "type": "event"
    },
    {
      "inputs": [],
      "name": "ROUTER",
      "outputs": [
        {
          "internalType": "address",
          "name": "",
          "type": "address"
        }
      ],
      "stateMutability": "view",
      "type": "function"
    },
    {
      "inputs": [
        {
          "components": [
            {
              "internalType": "enum ProtocolTypes.LendingOp",
              "name": "op",
              "type": "uint8"
            },
            {
              "internalType": "address",
              "name": "token",
              "type": "address"
            },
            {
              "internalType": "address",
              "name": "user",
              "type": "address"
            },
            {
              "internalType": "uint256",
              "name": "amount",
              "type": "uint256"
            },
            {
              "internalType": "bytes",
              "name": "context",
              "type": "bytes"
            },
            {
              "components": [
                {
                  "internalType": "uint256",
                  "name": "index",
                  "type": "uint256"
                }
              ],
              "internalType": "struct ProtocolTypes.InputPtr",
              "name": "input",
              "type": "tuple"
            }
          ],
          "internalType": "struct ProtocolTypes.LendingInstruction[]",
          "name": "instrs",
          "type": "tuple[]"
        },
        {
          "internalType": "address",
          "name": "caller",
          "type": "address"
        },
        {
          "components": [
            {
              "internalType": "address",
              "name": "token",
              "type": "address"
            },
            {
              "internalType": "uint256",
              "name": "amount",
              "type": "uint256"
            }
          ],
          "internalType": "struct ProtocolTypes.Output[]",
          "name": "inputs",
          "type": "tuple[]"
        }
      ],
      "name": "authorize",
      "outputs": [
        {
          "internalType": "address[]",
          "name": "targets",
          "type": "address[]"
        },
        {
          "internalType": "bytes[]",
          "name": "data",
          "type": "bytes[]"
        },
        {
          "components": [
            {
              "internalType": "address",
              "name": "token",
              "type": "address"
            },
            {
              "internalType": "uint256",
              "name": "amount",
              "type": "uint256"
            }
          ],
          "internalType": "struct ProtocolTypes.Output[]",
          "name": "produced",
          "type": "tuple[]"
        }
      ],
      "stateMutability": "view",
      "type": "function"
    },
    {
      "inputs": [
        {
          "components": [
            {
              "internalType": "enum ProtocolTypes.LendingOp",
              "name": "op",
              "type": "uint8"
            },
            {
              "internalType": "address",
              "name": "token",
              "type": "address"
            },
            {
              "internalType": "address",
              "name": "user",
              "type": "address"
            },
            {
              "internalType": "uint256",
              "name": "amount",
              "type": "uint256"
            },
            {
              "internalType": "bytes",
              "name": "context",
              "type": "bytes"
            },
            {
              "components": [
                {
                  "internalType": "uint256",
                  "name": "index",
                  "type": "uint256"
                }
              ],
              "internalType": "struct ProtocolTypes.InputPtr",
              "name": "input",
              "type": "tuple"
            }
          ],
          "internalType": "struct ProtocolTypes.LendingInstruction[]",
          "name": "instrs",
          "type": "tuple[]"
        },
        {
          "internalType": "address",
          "name": "",
          "type": "address"
        },
        {
          "components": [
            {
              "internalType": "address",
              "name": "token",
              "type": "address"
            },
            {
              "internalType": "uint256",
              "name": "amount",
              "type": "uint256"
            }
          ],
          "internalType": "struct ProtocolTypes.Output[]",
          "name": "",
          "type": "tuple[]"
        }
      ],
      "name": "deauthorize",
      "outputs": [
        {
          "internalType": "address[]",
          "name": "targets",
          "type": "address[]"
        },
        {
          "internalType": "bytes[]",
          "name": "data",
          "type": "bytes[]"
        }
      ],
      "stateMutability": "view",
      "type": "function"
    },
    {
      "inputs": [],
      "name": "getAllMarketIds",
      "outputs": [
        {
          "internalType": "bytes32[]",
          "name": "",
          "type": "bytes32[]"
        }
      ],
      "stateMutability": "view",
      "type": "function"
    },
    {
      "inputs": [
        {
          "internalType": "bytes32",
          "name": "marketId",
          "type": "bytes32"
        }
      ],
      "name": "getMarketParams",
      "outputs": [
        {
          "components": [
            {
              "internalType": "address",
              "name": "loanToken",
              "type": "address"
            },
            {
              "internalType": "address",
              "name": "collateralToken",
              "type": "address"
            },
            {
              "internalType": "address",
              "name": "oracle",
              "type": "address"
            },
            {
              "internalType": "address",
              "name": "irm",
              "type": "address"
            },
            {
              "internalType": "uint256",
              "name": "lltv",
              "type": "uint256"
            }
          ],
          "internalType": "struct MarketParams",
          "name": "",
          "type": "tuple"
        }
      ],
      "stateMutability": "view",
      "type": "function"
    },
    {
      "inputs": [
        {
          "internalType": "bytes32",
          "name": "",
          "type": "bytes32"
        }
      ],
      "name": "isMarketRegistered",
      "outputs": [
        {
          "internalType": "bool",
          "name": "",
          "type": "bool"
        }
      ],
      "stateMutability": "view",
      "type": "function"
    },
    {
      "inputs": [
        {
          "internalType": "uint256",
          "name": "",
          "type": "uint256"
        }
      ],
      "name": "marketIds",
      "outputs": [
        {
          "internalType": "bytes32",
          "name": "",
          "type": "bytes32"
        }
      ],
      "stateMutability": "view",
      "type": "function"
    },
    {
      "inputs": [],
      "name": "morpho",
      "outputs": [
        {
          "internalType": "contract IMorphoBlue",
          "name": "",
          "type": "address"
        }
      ],
      "stateMutability": "view",
      "type": "function"
    },
    {
      "inputs": [],
      "name": "owner",
      "outputs": [
        {
          "internalType": "address",
          "name": "",
          "type": "address"
        }
      ],
      "stateMutability": "view",
      "type": "function"
    },
    {
      "inputs": [
        {
          "components": [
            {
              "internalType": "address",
              "name": "token",
              "type": "address"
            },
            {
              "internalType": "uint256",
              "name": "amount",
              "type": "uint256"
            }
          ],
          "internalType": "struct ProtocolTypes.Output[]",
          "name": "inputs",
          "type": "tuple[]"
        },
        {
          "internalType": "bytes",
          "name": "data",
          "type": "bytes"
        }
      ],
      "name": "processLendingInstruction",
      "outputs": [
        {
          "components": [
            {
              "internalType": "address",
              "name": "token",
              "type": "address"
            },
            {
              "internalType": "uint256",
              "name": "amount",
              "type": "uint256"
            }
          ],
          "internalType": "struct ProtocolTypes.Output[]",
          "name": "",
          "type": "tuple[]"
        }
      ],
      "stateMutability": "nonpayable",
      "type": "function"
    },
    {
      "inputs": [
        {
          "internalType": "address",
          "name": "token",
          "type": "address"
        },
        {
          "internalType": "address",
          "name": "to",
          "type": "address"
        },
        {
          "internalType": "uint256",
          "name": "amount",
          "type": "uint256"
        }
      ],
      "name": "recoverTokens",
      "outputs": [],
      "stateMutability": "nonpayable",
      "type": "function"
    },
    {
      "inputs": [
        {
          "components": [
            {
              "internalType": "address",
              "name": "loanToken",
              "type": "address"
            },
            {
              "internalType": "address",
              "name": "collateralToken",
              "type": "address"
            },
            {
              "internalType": "address",
              "name": "oracle",
              "type": "address"
            },
            {
              "internalType": "address",
              "name": "irm",
              "type": "address"
            },
            {
              "internalType": "uint256",
              "name": "lltv",
              "type": "uint256"
            }
          ],
          "internalType": "struct MarketParams",
          "name": "params",
          "type": "tuple"
        }
      ],
      "name": "registerMarket",
      "outputs": [],
      "stateMutability": "nonpayable",
      "type": "function"
    },
    {
      "inputs": [
        {
          "internalType": "bytes32",
          "name": "",
          "type": "bytes32"
        }
      ],
      "name": "registeredMarkets",
      "outputs": [
        {
          "internalType": "address",
          "name": "loanToken",
          "type": "address"
        },
        {
          "internalType": "address",
          "name": "collateralToken",
          "type": "address"
        },
        {
          "internalType": "address",
          "name": "oracle",
          "type": "address"
        },
        {
          "internalType": "address",
          "name": "irm",
          "type": "address"
        },
        {
          "internalType": "uint256",
          "name": "lltv",
          "type": "uint256"
        }
      ],
      "stateMutability": "view",
      "type": "function"
    },
    {
      "inputs": [],
      "name": "renounceOwnership",
      "outputs": [],
      "stateMutability": "nonpayable",
      "type": "function"
    },
    {
      "inputs": [
        {
          "internalType": "address",
          "name": "newOwner",
          "type": "address"
        }
      ],
      "name": "transferOwnership",
      "outputs": [],
      "stateMutability": "nonpayable",
      "type": "function"
    }
  ],
  "transactionHash": "0x96c9529400366cb94472b23d3c0ff8f55840b29a2601b02b55e8b86508cca682",
  "args": [
    "0xc2137E0D9f4FD102C5eB045194329646Bac70FBE",
    "0x0BE61223F99E57b8b8B7033a77B54Adc7f7cF027",
    "0xBBBBBbbBBb9cC5e90e3b3Af64bdAF62C37EEFFCb"
  ],
  "numDeployments": 11,
  "solcInputHash": "fc5090b95a2d1d0828988afc94c5d421",
  "bytecode": "0x60c03461019d57601f61286a38819003918201601f19168301916001600160401b038311848410176101a15780849260609460405283398101031261019d57610047816101b5565b906100606040610059602084016101b5565b92016101b5565b916001600160a01b0381161561016d576080526001600160a01b031690811561015a575f80546001600160a01b031981168417825560405193916001600160a01b03909116907f8be0079c531659141344cd1fd0a4f28419497f9722a3daafe3b4186f6b6457e09080a3600180556001600160a01b0316801561014b5760a0526126a090816101ca823960805181818161048e015261108c015260a05181818161014c015281816106f601528181610a77015281816117770152818161189001528181611af601528181611bdd01528181611fd601528181612095015281816121ce01526122a60152f35b63d92e233d60e01b5f5260045ffd5b631e4fbdf760e01b5f525f60045260245ffd5b60405162461bcd60e51b81526020600482015260086024820152670726f757465723d360c41b6044820152606490fd5b5f80fd5b634e487b7160e01b5f52604160045260245ffd5b51906001600160a01b038216820361019d5756fe6080806040526004361015610012575f80fd5b5f3560e01c90816332fe7b261461107a57508063385ec17e1461104b5780634d0ee9f314610f9757806352ed587514610a045780635f3e849f14610929578063715018a6146108e557806376a32e7114610873578063779a96831461083b5780638da5cb5b14610814578063aad11a3f1461066a578063ae4be46d1461041c578063b512cdfe14610214578063b85ed6361461017b578063d8fbc833146101375763f2fde38b146100c1575f80fd5b34610133576020366003190112610133576100da6110fa565b6100e26119e8565b6001600160a01b03168015610120575f80546001600160a01b03198116831782556001600160a01b0316905f51602061264b5f395f51905f529080a3005b631e4fbdf760e01b5f525f60045260245ffd5b5f80fd5b34610133575f366003190112610133576040517f00000000000000000000000000000000000000000000000000000000000000006001600160a01b03168152602090f35b34610133575f366003190112610133576040518060206003549283815201809260035f5260205f20905f5b8181106101fe57505050816101bc910382611364565b604051918291602083019060208452518091526040830191905f5b8181106101e5575050500390f35b82518452859450602093840193909201916001016101d7565b82548452602090930192600192830192016101a6565b346101335760a03660031901126101335761022d6119e8565b6001600160a01b0361023d61153b565b16158015610404575b6103f55760405161025681611313565b61025e6110fa565b8152610268611110565b6020820152604435906001600160a01b038216820361013357604081018290526064356001600160a01b0381168103610133578060608301526102b36084359283608082015261232b565b92835f52600460205260ff60405f205416156102cb57005b5f84815260026020526040902060049290916001600160a01b036102ed61153b565b84546001600160a01b0319169116178355610306611551565b6001840180546001600160a01b03199081166001600160a01b0393841617909155600285018054821693831693909317909255600380850180549093169390911692909217905591019190915554600160401b8110156103e15780600161037092016003556112e7565b81549060031b9083821b915f19901b1916179055805f52600460205260405f20600160ff198254161790557f393bf4ff2983ac2030da8f04a013ff4ac3176d2440549a516edff6f881c4db3b6103c461153b565b6103cc611551565b906103dc604051928392836114d0565b0390a2005b634e487b7160e01b5f52604160045260245ffd5b63494e780760e01b5f5260045ffd5b506001600160a01b03610415611551565b1615610246565b34610133576040366003190112610133576004356001600160401b0381116101335761044c90369060040161113a565b90602435906001600160401b03821161013357366023830112156101335760048201356001600160401b038111610133578201916024830190368211610133577f00000000000000000000000000000000000000000000000000000000000000006001600160a01b0316330361062e576020818503126101335760248101356001600160401b0381116101335701928390039360c0851261013357604051926104f484611349565b6024850135600a81101561013357845261051060448601611126565b602085015261052160648601611126565b604085019081526084860135606086019081529095909360a48201356001600160401b0381116101335760249083010181601f8201121561013357602091818361056d93359101611505565b6080870190815297609f1901126101335760405196602088016001600160401b038111898210176103e1576105b39260c4916040520135885260a08601978852516115f1565b95515192828410156106235750916105cd9160209361157b565b0135905b5190600a82101561060f57915161060b936105f7936001600160a01b0390921692611a65565b60405191829160208352602083019061129f565b0390f35b634e487b7160e01b5f52602160045260245ffd5b9250505051906105d1565b60405162461bcd60e51b815260206004820152601460248201527313db9b1e481c9bdd5d195c8818d85b8818d85b1b60621b6044820152606490fd5b34610133576106783661116a565b505050610684816113c8565b9061068e816113fa565b925f915f5b8181106107d0575b505f925b8184106106d0576106c28561060b886040519384936040855260408501906111f3565b90838203602085015261122f565b6106db848385611443565b35600a811015610133578190816107b1575b501561077557507f00000000000000000000000000000000000000000000000000000000000000006001600160a01b03166107288486611598565b526040516207767560ed1b60208201523060248201525f604482015260448152610753606482611364565b61075d8487611598565b526107688386611598565b5060015f935b019261069f565b92805f61078460019388611598565b52604051610793602082611364565b5f81526107a08289611598565b526107ab8188611598565b5061076e565b60028114915081156107c5575b50876106ed565b6003915014876107be565b6107db818385611443565b35600a8110156101335760028114908115610809575b506107fe57600101610693565b50600192508561069b565b6003915014876107f1565b34610133575f366003190112610133575f546040516001600160a01b039091168152602090f35b3461013357602036600319011261013357600435600354811015610133576108646020916112e7565b90549060031b1c604051908152f35b34610133576020366003190112610133576004355f52600260205260a060405f20600180831b0381541690600180841b0360018201541690600180851b036002820154166004600180871b03600384015416920154926040519485526020850152604084015260608301526080820152f35b34610133575f366003190112610133576108fd6119e8565b5f80546001600160a01b0319811682556001600160a01b03165f51602061264b5f395f51905f528280a3005b34610133576060366003190112610133576109426110fa565b61094a611110565b90604435906109576119e8565b6040516370a0823160e01b81523060048201526001600160a01b0391909116929091602083602481875afa9283156109f9575f936109c5575b505f1981036109bf5750815b8083116109b7575b50816109ac57005b6109b592611a29565b005b9150836109a4565b9161099c565b9092506020813d6020116109f1575b816109e160209383611364565b8101031261013357519184610990565b3d91506109d4565b6040513d5f823e3d90fd5b3461013357610a123661116a565b91929093610a1f826113c8565b93610a29836113fa565b925f945f5b828110610efd5750610a3f866113b1565b95610a4d6040519788611364565b808752610a5c601f19916113b1565b015f5b818110610eda5750506040516332f256cf60e11b81527f00000000000000000000000000000000000000000000000000000000000000006001600160a01b0316939092915f9160209085908190610abb903090600484016114d0565b0381885afa9384156109f9575f94610ea9575b505f925f925b818410610b1757610afb8b61060b8c610b098d6040519586956060875260608701906111f3565b90858203602087015261122f565b90838203604085015261129f565b610b2284838a611443565b6080810135601e1982360301811215610133578101803591906001600160401b03831161013357602001823603811361013357610b668f9391610b6b923691611505565b6115f1565b90610b7860208201611567565b506060810135928660a083013591818310610e79575b5050508035600a811015610133578d8f91600281145f14610c9c575050505060200151604051610bef939290916001600160a01b0316610bcd8361132e565b82526020820152610bde828d611598565b52610be9818c611598565b50611465565b928a868715610c95575b15610c3c57905f610c0c82600194611598565b52604051610c1b602082611364565b5f8152610c28828c611598565b52610c33818b611598565b505b0192610ad4565b8188929650610c4a91611598565b526040516207767560ed1b60208201523060248201526001604482015260448152610c76606482611364565b610c80858a611598565b52610c8b8489611598565b5060018094610c35565b5085610bf9565b60038103610d185750509151604051610cc7959490935091506001600160a01b0316610bcd8361132e565b928a868715610d11575b15610c3c57905f610ce482600194611598565b52604051610cf3602082611364565b5f8152610d00828c611598565b52610d0b818b611598565b50610c35565b5085610cd1565b9091929395989450600581145f14610db857505050610d3c6040610d429201611567565b83611876565b916103e98302928084046103e91490151715610da457610ce482610d9e8f988f81610be9916001996103e85f998c8060a01b039051169160405192610d868461132e565b8352046020820152610d988383611598565b52611598565b97611598565b634e487b7160e01b5f52601160045260245ffd5b60068103610e1f57505050610dd26040610dd89201611567565b83611749565b916103e98302928084046103e91490151715610da457610ce482610d9e8f988f81610be9916001996103e85f9960208d8060a01b03910151169160405192610d868461132e565b9197939490925090600403610e685783610d9e84610be9600197965f96610ce4968a8060a01b0390511660405190610e568261132e565b8152886020820152610d988383611598565b505093905f610ce482600194611598565b60209395509081610e97610e928584610e9d979661157b565b611567565b5061157b565b0135918f8f8790610b8e565b610ecc91945060203d602011610ed3575b610ec48183611364565b8101906114b8565b928a610ace565b503d610eba565b602090604051610ee98161132e565b5f81525f8382015282828b01015201610a5f565b610f08818487611443565b35600a8110156101335760028114905f8215610f8a575b8215610f79575b8215610f68575b8215610f57575b5050610f43575b600101610a2e565b95610f4f600191611465565b969050610f3b565b90915061060f576006148a80610f34565b80925061060f576005811491610f2d565b80925061060f576004811491610f26565b506003811491505f610f1f565b3461013357602036600319011261013357600435610fb3611387565b50805f52600460205260ff60405f20541615611039575f52600260205260a060405f20600460405191610fe583611313565b600180851b038154168352600180851b036001820154166020840152600180851b036002820154166040840152600180851b0360038201541660608401520154608082015261103760405180926110bb565bf35b63a814860360e01b5f5260045260245ffd5b34610133576020366003190112610133576004355f526004602052602060ff60405f2054166040519015158152f35b34610133575f366003190112610133577f00000000000000000000000000000000000000000000000000000000000000006001600160a01b03168152602090f35b80516001600160a01b03908116835260208083015182169084015260408083015182169084015260608083015190911690830152608090810151910152565b600435906001600160a01b038216820361013357565b602435906001600160a01b038216820361013357565b35906001600160a01b038216820361013357565b9181601f84011215610133578235916001600160401b038311610133576020808501948460061b01011161013357565b90606060031983011261013357600435916001600160401b0383116101335780602384011215610133576004830135926001600160401b038411610133578160248560051b83010111610133576024908101939290356001600160a01b03811681036101335791604435906001600160401b038211610133576111ef9160040161113a565b9091565b90602080835192838152019201905f5b8181106112105750505090565b82516001600160a01b0316845260209384019390920191600101611203565b9080602083519182815201916020808360051b8301019401925f915b83831061125a57505050505090565b909192939460208080600193601f19868203018752818a518051918291828552018484015e5f828201840152601f01601f19160101970195949190910192019061124b565b90602080835192838152019201905f5b8181106112bc5750505090565b825180516001600160a01b0316855260209081015181860152604090940193909201916001016112af565b6003548110156112ff5760035f5260205f2001905f90565b634e487b7160e01b5f52603260045260245ffd5b60a081019081106001600160401b038211176103e157604052565b604081019081106001600160401b038211176103e157604052565b60c081019081106001600160401b038211176103e157604052565b601f909101601f19168101906001600160401b038211908210176103e157604052565b6040519061139482611313565b5f6080838281528260208201528260408201528260608201520152565b6001600160401b0381116103e15760051b60200190565b906113d2826113b1565b6113df6040519182611364565b82815280926113f0601f19916113b1565b0190602036910137565b90611404826113b1565b6114116040519182611364565b8281528092611422601f19916113b1565b01905f5b82811061143257505050565b806060602080938501015201611426565b91908110156112ff5760051b8101359060be1981360301821215610133570190565b5f198114610da45760010190565b60405190611482602083611364565b5f80835282815b82811061149557505050565b6020906040516114a48161132e565b5f81525f8382015282828501015201611489565b90816020910312610133575180151581036101335790565b6001600160a01b0391821681529116602082015260400190565b6001600160401b0381116103e157601f01601f191660200190565b929192611511826114ea565b9161151f6040519384611364565b829481845281830111610133578281602093845f960137010152565b6004356001600160a01b03811681036101335790565b6024356001600160a01b03811681036101335790565b356001600160a01b03811681036101335790565b91908110156112ff5760061b0190565b8051156112ff5760200190565b80518210156112ff5760209160051b010190565b81810292918115918404141715610da457565b81156115c9570490565b634e487b7160e01b5f52601260045260245ffd5b51906001600160a01b038216820361013357565b6115f9611387565b50805160a01161166a5760a0818051810103126101335760a06040519161161f83611313565b61162b602082016115dd565b8352611639604082016115dd565b602084015261164a606082016115dd565b604084015261165b608082016115dd565b60608401520151608082015290565b60405162461bcd60e51b815260206004820152603360248201527f4d6f7270686f426c75653a20696e76616c696420636f6e74657874202d206578604482015272706563746564204d61726b6574506172616d7360681b6064820152608490fd5b51906001600160801b038216820361013357565b908160609103126101335760405190606082016001600160401b038111838210176103e1576117289160409182528051845261171d602082016116cb565b6020850152016116cb565b604082015290565b9081526001600160a01b03909116602082015260400190565b6117739161175860609261232b565b6040516349e2903160e11b8152938492839260048401611730565b03817f00000000000000000000000000000000000000000000000000000000000000006001600160a01b03165afa9081156109f9575f916117c0575b50604001516001600160801b031690565b6117e2915060603d6060116117e8575b6117da8183611364565b8101906116df565b5f6117af565b503d6117d0565b908160c09103126101335761186160a06040519261180c84611349565b611815816116cb565b8452611823602082016116cb565b6020850152611834604082016116cb565b6040850152611845606082016116cb565b6060850152611856608082016116cb565b6080850152016116cb565b60a082015290565b91908201809211610da457565b61187f9061232b565b6040516349e2903160e11b815290917f00000000000000000000000000000000000000000000000000000000000000006001600160a01b03169190606090829081906118cf908760048401611730565b0381855afa80156109f9576020915f916119c9575b500180519092906001600160801b0316156119935760c090602460405180948193632e3071cd60e11b835260048301525afa9081156109f9575f9161199a575b506060810180519092906001600160801b03161561199357516040909101516119709161195d916001600160801b0390811691166115ac565b91516001600160801b0316918290611869565b5f19810191908211610da457611985916115bf565b60018101809111610da45790565b5050505f90565b6119bc915060c03d60c0116119c2575b6119b48183611364565b8101906117ef565b5f611924565b503d6119aa565b6119e2915060603d6060116117e8576117da8183611364565b5f6118e4565b5f546001600160a01b031633036119fb57565b63118cdaa760e01b5f523360045260245ffd5b6001600160a01b039091168152602081019190915260400190565b611a5e611a639392611a5060405194859263a9059cbb60e01b602085015260248401611a0e565b03601f198101845283611364565b612351565b565b5f9392600a82101561060f57811561227557600182146121a4576002821461206757600682146120485760038214611f755760048214611b8d5750600514611ae55760405162461bcd60e51b815260206004820152601660248201527504d6f7270686f426c75653a20756e6b6e6f776e206f760541b6044820152606490fd5b80516001600160a01b0390811693907f000000000000000000000000000000000000000000000000000000000000000016803b15611b895781809160a460405180948193630a8e0d6f60e11b8352611b40600484018a6110bb565b5af18015611b7e57611b66575b5050611b639291611b5d91611876565b9061240d565b90565b611b71828092611364565b611b7b5780611b4d565b80fd5b6040513d84823e3d90fd5b5080fd5b82516040516370a0823160e01b81523060048201529596956001600160a01b0390911694909390925090602084602481885afa938415611f6a578794611f36575b50611bdb8130338861248c565b7f00000000000000000000000000000000000000000000000000000000000000006001600160a01b031690611c118183886124d0565b611c1a8361232b565b906040516349e2903160e11b815260608180611c3a898760048401611730565b0381875afa8015611f0c576020918b91611f17575b500180519092906001600160801b0316611d25575b505050505050604051906370a0823160e01b8252306004830152602082602481865afa918215611d1a578592611ce6575b5080821115611cd9578103908111611cc557611b63929350905b811561240d57611cc0823383611a29565b61240d565b634e487b7160e01b84526011600452602484fd5b5050611b63919290611caf565b9091506020813d602011611d12575b81611d0260209383611364565b810103126101335751905f611c95565b3d9150611cf5565b6040513d87823e3d90fd5b60405190632e3071cd60e11b8252600482015260c081602481875afa908115611f0c578a91611eed575b506060810180519091908b906001600160801b031615611ee157508351604090910151611d9d91611d8c916001600160801b0390811691166115ac565b82516001600160801b031690611869565b5f19810191908211611ecd57518a94939291611dc2916001600160801b0316906115bf565b8110611e74575051604080516320b76e8160e01b815295909486946101449486949193909290916001600160801b031690611e019060048701906110bb565b60a4850184905260c48501526001600160a01b031660e484015261012061010484015261012483018290525af18015611d1a57611e46575b505b5f8080808080611c64565b611e679060403d604011611e6d575b611e5f8183611364565b8101906123bc565b50611e39565b503d611e55565b9050611e9a94926040948551968795869485936320b76e8160e01b8552600485016123d2565b03925af18015611d1a57611eaf575b50611e3b565b611ec79060403d604011611e6d57611e5f8183611364565b50611ea9565b634e487b7160e01b8b52601160045260248bfd5b94939291505083611dc2565b611f06915060c03d60c0116119c2576119b48183611364565b5f611d4f565b6040513d8c823e3d90fd5b611f30915060603d6060116117e8576117da8183611364565b5f611c4f565b9093506020813d602011611f62575b81611f5260209383611364565b810103126101335751925f611bce565b3d9150611f45565b6040513d89823e3d90fd5b82516040516350d8cd4b60e01b8152959695946001600160a01b0390911693925090611fa460048601846110bb565b60a485015260c484018690526001600160a01b0390811660e485015230610104850152604090849061012490829089907f0000000000000000000000000000000000000000000000000000000000000000165af1928315611d1a57611b63949593612022575b5051611cc090839033906001600160a01b0316611a29565b611cc09193506120409060403d604011611e6d57611e5f8183611364565b50929061200a565b50506020810151611b6393506001600160a01b031691611b5d91611749565b9290508360018060a09796971b0360208401511692846120868261232b565b6040516349e2903160e11b81527f00000000000000000000000000000000000000000000000000000000000000006001600160a01b03169291606090829081906120d5908a9060048401611730565b0381865afa908115611d1a578591612185575b50604001516001600160801b031690811061217d575b50803b1561217957604051638720316d60e01b8152938492610104928492869261212c9060048601906110bb565b60a484018a90526001600160a01b031660c48401523360e48401525af18015611d1a57612160575b50611b6392935061240d565b61216b858092611364565b6121755783612154565b8380fd5b8280fd5b95505f6120fe565b61219e915060603d6060116117e8576117da8183611364565b5f6120e8565b93505090602082016121c38460018060a01b038351163090339061248c565b516001600160a01b037f00000000000000000000000000000000000000000000000000000000000000008116916121fe9186918491166124d0565b803b15610133575f92836101249261222c94604051978896879563238d657960e01b875260048701906110bb565b60a48501526001600160a01b031660c484015261010060e484015261010483018290525af180156109f957612265575b50611b63611473565b5f61226f91611364565b5f61225c565b82516122f6955060409493925061229a908290309033906001600160a01b031661248c565b81516001600160a01b037f00000000000000000000000000000000000000000000000000000000000000008116935f9290916122da9185918791166124d0565b855163a99aad8960e01b815296879586948593600485016123d2565b03925af180156109f95761230d5750611b63611473565b6123259060403d604011611e6d57611e5f8183611364565b5061225c565b60405161233c6020820180936110bb565b60a0815261234b60c082611364565b51902090565b5f806123799260018060a01b03169360208151910182865af16123726125bd565b90836125ec565b80519081151591826123a1575b505061238f5750565b635274afe760e01b5f5260045260245ffd5b6123b492506020809183010191016114b8565b155f80612386565b9190826040910312610133576020825192015190565b916123e18361014095936110bb565b60a08301525f60c083015260018060a01b031660e08201526101206101008201525f6101208201520190565b9091906040805191906124208184611364565b60018352601f19015f5b81811061246957505090612466918194604051916124478361132e565b6001600160a01b0316825260208201526124608261158b565b5261158b565b50565b6020906040516124788161132e565b5f81525f838201528282870101520161242a565b6040516323b872dd60e01b60208201526001600160a01b039283166024820152929091166044830152606480830193909352918152611a6391611a5e608483611364565b91909160405191612505836124f7602082019363095ea7b360e01b85528760248401611a0e565b03601f198101855284611364565b82516001600160a01b038316915f91829182855af1906125236125bd565b8261258b575b5081612580575b501561253b57505050565b60405163095ea7b360e01b60208201526001600160a01b0390931660248401525f6044808501919091528352611a6392611a5e9061257a606482611364565b82612351565b90503b15155f612530565b805191925081159182156125a3575b5050905f612529565b6125b692506020809183010191016114b8565b5f8061259a565b3d156125e7573d906125ce826114ea565b916125dc6040519384611364565b82523d5f602084013e565b606090565b90612610575080511561260157805190602001fd5b630a12f52160e11b5f5260045ffd5b81511580612641575b612621575090565b639996b31560e01b5f9081526001600160a01b0391909116600452602490fd5b50803b1561261956fe8be0079c531659141344cd1fd0a4f28419497f9722a3daafe3b4186f6b6457e0a2646970667358221220c3ed1c415013334f27471682ba30f7bef1362db2cf269d5f122ed5a83bfff96464736f6c634300081e0033",
  "devdoc": {
    "details": "Morpho Blue uses market-based lending where each market is identified by:      - loanToken: The token being borrowed      - collateralToken: The token used as collateral      - oracle: Price oracle address      - irm: Interest rate model address      - lltv: Liquidation loan-to-value ratio Context encoding for LendingInstruction:   - bytes context = abi.encode(MarketParams) for full market params   - The token field should be the collateral token for collateral ops,     or the loan token for borrow/repay ops",
    "errors": {
      "AddressEmptyCode(address)": [
        {
          "details": "There's no code at `target` (it is not a contract)."
        }
      ],
      "AddressInsufficientBalance(address)": [
        {
          "details": "The ETH balance of the account is not enough to perform the operation."
        }
      ],
      "FailedInnerCall()": [
        {
          "details": "A call to an address target failed. The target may have reverted."
        }
      ],
      "OwnableInvalidOwner(address)": [
        {
          "details": "The owner is not a valid owner account. (eg. `address(0)`)"
        }
      ],
      "OwnableUnauthorizedAccount(address)": [
        {
          "details": "The caller account is not authorized to perform an operation."
        }
      ],
      "ReentrancyGuardReentrantCall()": [
        {
          "details": "Unauthorized reentrant call."
        }
      ],
      "SafeERC20FailedOperation(address)": [
        {
          "details": "An operation with an ERC20 token failed."
        }
      ]
    },
    "kind": "dev",
    "methods": {
      "owner()": {
        "details": "Returns the address of the current owner."
      },
      "registerMarket((address,address,address,address,uint256))": {
        "params": {
          "params": "The market parameters"
        }
      },
      "renounceOwnership()": {
        "details": "Leaves the contract without owner. It will not be possible to call `onlyOwner` functions. Can only be called by the current owner. NOTE: Renouncing ownership will leave the contract without an owner, thereby disabling any functionality that is only available to the owner."
      },
      "transferOwnership(address)": {
        "details": "Transfers ownership of the contract to a new account (`newOwner`). Can only be called by the current owner."
      }
    },
    "title": "MorphoBlueGatewayWrite",
    "version": 1
  },
  "userdoc": {
    "kind": "user",
    "methods": {
      "ROUTER()": {
        "notice": "Immutable router address that can call protected functions"
      },
      "authorize((uint8,address,address,uint256,bytes,(uint256))[],address,(address,uint256)[])": {
        "notice": "Return user-side authorization calls for the given lending instructions.         One element per input (or (address(0), bytes(\"\")) if none needed).         Also returns the produced outputs from the simulation of these instructions."
      },
      "getAllMarketIds()": {
        "notice": "Get all registered market IDs"
      },
      "getMarketParams(bytes32)": {
        "notice": "Get market params by ID"
      },
      "isMarketRegistered(bytes32)": {
        "notice": "Whether a market ID is registered"
      },
      "marketIds(uint256)": {
        "notice": "List of registered market IDs for enumeration"
      },
      "morpho()": {
        "notice": "The Morpho Blue singleton contract"
      },
      "recoverTokens(address,address,uint256)": {
        "notice": "Recover stuck tokens (owner only)"
      },
      "registerMarket((address,address,address,address,uint256))": {
        "notice": "Register a market for use with this gateway"
      },
      "registeredMarkets(bytes32)": {
        "notice": "Registered markets by their ID"
      }
    },
    "notice": "Gateway for Morpho Blue lending protocol",
    "version": 1
  },
  "storageLayout": {
    "storage": [
      {
        "astId": 1432,
        "contract": "contracts/v2/gateways/morpho/MorphoBlueGatewayWrite.sol:MorphoBlueGatewayWrite",
        "label": "_owner",
        "offset": 0,
        "slot": "0",
        "type": "t_address"
      },
      {
        "astId": 2269,
        "contract": "contracts/v2/gateways/morpho/MorphoBlueGatewayWrite.sol:MorphoBlueGatewayWrite",
        "label": "_status",
        "offset": 0,
        "slot": "1",
        "type": "t_uint256"
      },
      {
        "astId": 8258,
        "contract": "contracts/v2/gateways/morpho/MorphoBlueGatewayWrite.sol:MorphoBlueGatewayWrite",
        "label": "registeredMarkets",
        "offset": 0,
        "slot": "2",
        "type": "t_mapping(t_bytes32,t_struct(MarketParams)14385_storage)"
      },
      {
        "astId": 8262,
        "contract": "contracts/v2/gateways/morpho/MorphoBlueGatewayWrite.sol:MorphoBlueGatewayWrite",
        "label": "marketIds",
        "offset": 0,
        "slot": "3",
        "type": "t_array(t_bytes32)dyn_storage"
      },
      {
        "astId": 8267,
        "contract": "contracts/v2/gateways/morpho/MorphoBlueGatewayWrite.sol:MorphoBlueGatewayWrite",
        "label": "isMarketRegistered",
        "offset": 0,
        "slot": "4",
        "type": "t_mapping(t_bytes32,t_bool)"
      }
    ],
    "types": {
      "t_address": {
        "encoding": "inplace",
        "label": "address",
        "numberOfBytes": "20"
      },
      "t_array(t_bytes32)dyn_storage": {
        "base": "t_bytes32",
        "encoding": "dynamic_array",
        "label": "bytes32[]",
        "numberOfBytes": "32"
      },
      "t_bool": {
        "encoding": "inplace",
        "label": "bool",
        "numberOfBytes": "1"
      },
      "t_bytes32": {
        "encoding": "inplace",
        "label": "bytes32",
        "numberOfBytes": "32"
      },
      "t_mapping(t_bytes32,t_bool)": {
        "encoding": "mapping",
        "key": "t_bytes32",
        "label": "mapping(bytes32 => bool)",
        "numberOfBytes": "32",
        "value": "t_bool"
      },
      "t_mapping(t_bytes32,t_struct(MarketParams)14385_storage)": {
        "encoding": "mapping",
        "key": "t_bytes32",
        "label": "mapping(bytes32 => struct MarketParams)",
        "numberOfBytes": "32",
        "value": "t_struct(MarketParams)14385_storage"
      },
      "t_struct(MarketParams)14385_storage": {
        "encoding": "inplace",
        "label": "struct MarketParams",
        "members": [
          {
            "astId": 14376,
            "contract": "contracts/v2/gateways/morpho/MorphoBlueGatewayWrite.sol:MorphoBlueGatewayWrite",
            "label": "loanToken",
            "offset": 0,
            "slot": "0",
            "type": "t_address"
          },
          {
            "astId": 14378,
            "contract": "contracts/v2/gateways/morpho/MorphoBlueGatewayWrite.sol:MorphoBlueGatewayWrite",
            "label": "collateralToken",
            "offset": 0,
            "slot": "1",
            "type": "t_address"
          },
          {
            "astId": 14380,
            "contract": "contracts/v2/gateways/morpho/MorphoBlueGatewayWrite.sol:MorphoBlueGatewayWrite",
            "label": "oracle",
            "offset": 0,
            "slot": "2",
            "type": "t_address"
          },
          {
            "astId": 14382,
            "contract": "contracts/v2/gateways/morpho/MorphoBlueGatewayWrite.sol:MorphoBlueGatewayWrite",
            "label": "irm",
            "offset": 0,
            "slot": "3",
            "type": "t_address"
          },
          {
            "astId": 14384,
            "contract": "contracts/v2/gateways/morpho/MorphoBlueGatewayWrite.sol:MorphoBlueGatewayWrite",
            "label": "lltv",
            "offset": 0,
            "slot": "4",
            "type": "t_uint256"
          }
        ],
        "numberOfBytes": "160"
      },
      "t_uint256": {
        "encoding": "inplace",
        "label": "uint256",
        "numberOfBytes": "32"
      }
    }
  }
}