{
  "address": "0xe19F56278586a6041527135AEaA842D40685A99D",
  "abi": [
    {
      "inputs": [
        {
          "internalType": "address",
          "name": "_gateway",
          "type": "address"
        },
        {
          "internalType": "address",
          "name": "_router",
          "type": "address"
        }
      ],
      "stateMutability": "nonpayable",
      "type": "constructor"
    },
    {
      "inputs": [
        {
          "internalType": "address",
          "name": "target",
          "type": "address"
        }
      ],
      "name": "AddressEmptyCode",
      "type": "error"
    },
    {
      "inputs": [
        {
          "internalType": "address",
          "name": "account",
          "type": "address"
        }
      ],
      "name": "AddressInsufficientBalance",
      "type": "error"
    },
    {
      "inputs": [],
      "name": "FailedInnerCall",
      "type": "error"
    },
    {
      "inputs": [
        {
          "internalType": "address",
          "name": "owner",
          "type": "address"
        }
      ],
      "name": "OwnableInvalidOwner",
      "type": "error"
    },
    {
      "inputs": [
        {
          "internalType": "address",
          "name": "account",
          "type": "address"
        }
      ],
      "name": "OwnableUnauthorizedAccount",
      "type": "error"
    },
    {
      "inputs": [
        {
          "internalType": "address",
          "name": "token",
          "type": "address"
        }
      ],
      "name": "SafeERC20FailedOperation",
      "type": "error"
    },
    {
      "anonymous": false,
      "inputs": [
        {
          "indexed": true,
          "internalType": "address",
          "name": "previousOwner",
          "type": "address"
        },
        {
          "indexed": true,
          "internalType": "address",
          "name": "newOwner",
          "type": "address"
        }
      ],
      "name": "OwnershipTransferred",
      "type": "event"
    },
    {
      "inputs": [],
      "name": "ONE_INCH_ROUTER",
      "outputs": [
        {
          "internalType": "address",
          "name": "",
          "type": "address"
        }
      ],
      "stateMutability": "view",
      "type": "function"
    },
    {
      "inputs": [
        {
          "internalType": "address",
          "name": "tokenIn",
          "type": "address"
        },
        {
          "internalType": "address",
          "name": "tokenOut",
          "type": "address"
        },
        {
          "internalType": "uint256",
          "name": "amountIn",
          "type": "uint256"
        },
        {
          "internalType": "uint256",
          "name": "minAmountOut",
          "type": "uint256"
        },
        {
          "internalType": "bytes",
          "name": "data",
          "type": "bytes"
        }
      ],
      "name": "executeSwap",
      "outputs": [
        {
          "internalType": "uint256",
          "name": "amountReceived",
          "type": "uint256"
        },
        {
          "internalType": "uint256",
          "name": "amountRefunded",
          "type": "uint256"
        }
      ],
      "stateMutability": "nonpayable",
      "type": "function"
    },
    {
      "inputs": [],
      "name": "kapanGateway",
      "outputs": [
        {
          "internalType": "address",
          "name": "",
          "type": "address"
        }
      ],
      "stateMutability": "view",
      "type": "function"
    },
    {
      "inputs": [],
      "name": "owner",
      "outputs": [
        {
          "internalType": "address",
          "name": "",
          "type": "address"
        }
      ],
      "stateMutability": "view",
      "type": "function"
    },
    {
      "inputs": [],
      "name": "renounceOwnership",
      "outputs": [],
      "stateMutability": "nonpayable",
      "type": "function"
    },
    {
      "inputs": [
        {
          "internalType": "address",
          "name": "_gateway",
          "type": "address"
        }
      ],
      "name": "setGateway",
      "outputs": [],
      "stateMutability": "nonpayable",
      "type": "function"
    },
    {
      "inputs": [
        {
          "internalType": "address",
          "name": "newOwner",
          "type": "address"
        }
      ],
      "name": "transferOwnership",
      "outputs": [],
      "stateMutability": "nonpayable",
      "type": "function"
    }
  ],
  "transactionHash": "0x85fa43084e6b0b29befb46107e76c5b219858a96de98675cdb399f990b42b9ce",
  "args": [
    "0x832425866d45112a19a690724A5Cb1e01c86C1f8",
    "0x111111125421ca6dc452d289314280a0f8842a65"
  ],
  "numDeployments": 1,
  "solcInputHash": "e04621456c3d645181b5a6858e7653f6",
  "bytecode": "0x60a0346100f257601f610a6138819003918201601f19168301916001600160401b038311848410176100f65780849260409485528339810103126100f257610052602061004b8361010a565b920161010a565b33156100df575f8054336001600160a01b0319821681178355604051949290916001600160a01b0316907f8be0079c531659141344cd1fd0a4f28419497f9722a3daafe3b4186f6b6457e09080a3600180546001600160a01b0319166001600160a01b0392909216919091179055608052610942908161011f823960805181818161023701526103230152f35b631e4fbdf760e01b5f525f60045260245ffd5b5f80fd5b634e487b7160e01b5f52604160045260245ffd5b51906001600160a01b03821682036100f25756fe60806040526004361015610011575f80fd5b5f3560e01c8063232174c014610084578063715018a61461007f5780638da5cb5b1461007a57806390646b4a14610075578063dcb1374a14610070578063dd3fd9251461006b5763f2fde38b14610066575f80fd5b610266565b610222565b6101fa565b6101b7565b610190565b610139565b346101095760a03660031901126101095761009d61010d565b6100a5610123565b6084359160643560443567ffffffffffffffff851161010957366023860112156101095784600401359367ffffffffffffffff85116101095736602486880101116101095760246100f79601936102eb565b60408051928352602083019190915290f35b5f80fd5b600435906001600160a01b038216820361010957565b602435906001600160a01b038216820361010957565b34610109575f36600319011261010957610151610805565b5f80546001600160a01b0319811682556001600160a01b03167f8be0079c531659141344cd1fd0a4f28419497f9722a3daafe3b4186f6b6457e08280a3005b34610109575f366003190112610109575f546040516001600160a01b039091168152602090f35b34610109576020366003190112610109576101d061010d565b6101d8610805565b600180546001600160a01b0319166001600160a01b0392909216919091179055005b34610109575f366003190112610109576001546040516001600160a01b039091168152602090f35b34610109575f366003190112610109576040517f00000000000000000000000000000000000000000000000000000000000000006001600160a01b03168152602090f35b346101095760203660031901126101095761027f61010d565b610287610805565b6001600160a01b031680156102d8575f80546001600160a01b03198116831782556001600160a01b0316907f8be0079c531659141344cd1fd0a4f28419497f9722a3daafe3b4186f6b6457e09080a3005b631e4fbdf760e01b5f525f60045260245ffd5b6001549496959394919392916001600160a01b0316330361058757604051636eb1769f60e11b81523060048201526001600160a01b037f00000000000000000000000000000000000000000000000000000000000000008181166024840152921694919290602081604481895afa9081156104b4575f91610568575b5010610559575b6040516370a0823160e01b8152306004820152966001600160a01b03919091169290602088602481875afa9788156104b4575f9861052e575b50915f92918380936103be60405180948193610619565b03925af16103ca610626565b90156104da57506040516370a0823160e01b815230600482015294602086602481855afa9586156104b4575f966104b9575b506040516370a0823160e01b815230600482015295602087602481875afa9687156104b4575f97610479575b5061043f9161043691610665565b93841015610686565b8280610467575b50508380610455575b50509190565b6104609133906107c9565b5f8361044f565b6104729133906107c9565b5f82610446565b610436919750916104a461043f9360203d6020116104ad575b61049c81836105d8565b8101906105ff565b97915091610428565b503d610492565b61060e565b6104d391965060203d6020116104ad5761049c81836105d8565b945f6103fc565b8051156104e957805190602001fd5b60405162461bcd60e51b815260206004820152601a60248201527f416461707465723a2031696e63682053776170204661696c65640000000000006044820152606490fd5b5f809492995061054e81949260203d6020116104ad5761049c81836105d8565b9992945050916103a7565b61056382856106cb565b61036e565b610581915060203d6020116104ad5761049c81836105d8565b5f610367565b60405162461bcd60e51b8152602060048201526015602482015274416461707465723a204f6e6c79204761746577617960581b6044820152606490fd5b634e487b7160e01b5f52604160045260245ffd5b90601f8019910116810190811067ffffffffffffffff8211176105fa57604052565b6105c4565b90816020910312610109575190565b6040513d5f823e3d90fd5b908092918237015f815290565b3d15610660573d9067ffffffffffffffff82116105fa5760405191610655601f8201601f1916602001846105d8565b82523d5f602084013e565b606090565b9190820391821161067257565b634e487b7160e01b5f52601160045260245ffd5b1561068d57565b60405162461bcd60e51b8152602060048201526016602482015275416461707465723a204869676820536c69707061676560501b6044820152606490fd5b60405163095ea7b360e01b602082019081526001600160a01b03841660248301525f19604480840191909152825290919061073a9061070b6064856105d8565b83516001600160a01b038416915f91829182855af190610729610626565b82610797575b508161079057501590565b61074357505050565b60405163095ea7b360e01b60208201526001600160a01b039390931660248401525f604480850191909152835261078e92610789906107836064826105d8565b82610843565b610843565b565b3b15919050565b805191925081159182156107af575b5050905f61072f565b6107c2925060208091830101910161082b565b5f806107a6565b60405163a9059cbb60e01b60208201526001600160a01b0392909216602483015260448083019390935291815261078e916107896064836105d8565b5f546001600160a01b0316330361081857565b63118cdaa760e01b5f523360045260245ffd5b90816020910312610109575180151581036101095790565b5f8061086b9260018060a01b03169360208151910182865af1610864610626565b90836108ae565b8051908115159182610893575b50506108815750565b635274afe760e01b5f5260045260245ffd5b6108a6925060208091830101910161082b565b155f80610878565b906108d257508051156108c357805190602001fd5b630a12f52160e11b5f5260045ffd5b81511580610903575b6108e3575090565b639996b31560e01b5f9081526001600160a01b0391909116600452602490fd5b50803b156108db56fea26469706673582212202dfacb8b31f12db1fb88319f46ab3d43edc644c9ec33428fdbf991283ab14e1864736f6c634300081e0033",
  "devdoc": {
    "errors": {
      "AddressEmptyCode(address)": [
        {
          "details": "There's no code at `target` (it is not a contract)."
        }
      ],
      "AddressInsufficientBalance(address)": [
        {
          "details": "The ETH balance of the account is not enough to perform the operation."
        }
      ],
      "FailedInnerCall()": [
        {
          "details": "A call to an address target failed. The target may have reverted."
        }
      ],
      "OwnableInvalidOwner(address)": [
        {
          "details": "The owner is not a valid owner account. (eg. `address(0)`)"
        }
      ],
      "OwnableUnauthorizedAccount(address)": [
        {
          "details": "The caller account is not authorized to perform an operation."
        }
      ],
      "SafeERC20FailedOperation(address)": [
        {
          "details": "An operation with an ERC20 token failed."
        }
      ]
    },
    "kind": "dev",
    "methods": {
      "owner()": {
        "details": "Returns the address of the current owner."
      },
      "renounceOwnership()": {
        "details": "Leaves the contract without owner. It will not be possible to call `onlyOwner` functions. Can only be called by the current owner. NOTE: Renouncing ownership will leave the contract without an owner, thereby disabling any functionality that is only available to the owner."
      },
      "transferOwnership(address)": {
        "details": "Transfers ownership of the contract to a new account (`newOwner`). Can only be called by the current owner."
      }
    },
    "version": 1
  },
  "userdoc": {
    "kind": "user",
    "methods": {},
    "version": 1
  },
  "storageLayout": {
    "storage": [
      {
        "astId": 8,
        "contract": "contracts/v2/gateways/oneinch/OneInchAdapter.sol:OneInchAdapter",
        "label": "_owner",
        "offset": 0,
        "slot": "0",
        "type": "t_address"
      },
      {
        "astId": 982,
        "contract": "contracts/v2/gateways/oneinch/OneInchAdapter.sol:OneInchAdapter",
        "label": "kapanGateway",
        "offset": 0,
        "slot": "1",
        "type": "t_address"
      }
    ],
    "types": {
      "t_address": {
        "encoding": "inplace",
        "label": "address",
        "numberOfBytes": "20"
      }
    }
  }
}