{
  "address": "0x339D9525E5F84a5C4f86809c386961BEe5B5D6f5",
  "abi": [
    {
      "inputs": [
        {
          "internalType": "address",
          "name": "router",
          "type": "address"
        },
        {
          "internalType": "address",
          "name": "_comptroller",
          "type": "address"
        }
      ],
      "stateMutability": "nonpayable",
      "type": "constructor"
    },
    {
      "inputs": [
        {
          "internalType": "address",
          "name": "target",
          "type": "address"
        }
      ],
      "name": "AddressEmptyCode",
      "type": "error"
    },
    {
      "inputs": [
        {
          "internalType": "address",
          "name": "account",
          "type": "address"
        }
      ],
      "name": "AddressInsufficientBalance",
      "type": "error"
    },
    {
      "inputs": [],
      "name": "FailedInnerCall",
      "type": "error"
    },
    {
      "inputs": [],
      "name": "ReentrancyGuardReentrantCall",
      "type": "error"
    },
    {
      "inputs": [
        {
          "internalType": "address",
          "name": "token",
          "type": "address"
        }
      ],
      "name": "SafeERC20FailedOperation",
      "type": "error"
    },
    {
      "inputs": [],
      "name": "ROUTER",
      "outputs": [
        {
          "internalType": "address",
          "name": "",
          "type": "address"
        }
      ],
      "stateMutability": "view",
      "type": "function"
    },
    {
      "inputs": [
        {
          "components": [
            {
              "internalType": "enum ProtocolTypes.LendingOp",
              "name": "op",
              "type": "uint8"
            },
            {
              "internalType": "address",
              "name": "token",
              "type": "address"
            },
            {
              "internalType": "address",
              "name": "user",
              "type": "address"
            },
            {
              "internalType": "uint256",
              "name": "amount",
              "type": "uint256"
            },
            {
              "internalType": "bytes",
              "name": "context",
              "type": "bytes"
            },
            {
              "components": [
                {
                  "internalType": "uint256",
                  "name": "index",
                  "type": "uint256"
                }
              ],
              "internalType": "struct ProtocolTypes.InputPtr",
              "name": "input",
              "type": "tuple"
            }
          ],
          "internalType": "struct ProtocolTypes.LendingInstruction[]",
          "name": "instrs",
          "type": "tuple[]"
        },
        {
          "internalType": "address",
          "name": "caller",
          "type": "address"
        }
      ],
      "name": "authorize",
      "outputs": [
        {
          "internalType": "address[]",
          "name": "targets",
          "type": "address[]"
        },
        {
          "internalType": "bytes[]",
          "name": "data",
          "type": "bytes[]"
        }
      ],
      "stateMutability": "view",
      "type": "function"
    },
    {
      "inputs": [
        {
          "internalType": "address",
          "name": "token",
          "type": "address"
        },
        {
          "internalType": "address",
          "name": "user",
          "type": "address"
        },
        {
          "internalType": "uint256",
          "name": "amount",
          "type": "uint256"
        }
      ],
      "name": "borrow",
      "outputs": [],
      "stateMutability": "nonpayable",
      "type": "function"
    },
    {
      "inputs": [],
      "name": "comptroller",
      "outputs": [
        {
          "internalType": "contract ComptrollerInterface",
          "name": "",
          "type": "address"
        }
      ],
      "stateMutability": "view",
      "type": "function"
    },
    {
      "inputs": [
        {
          "internalType": "address",
          "name": "token",
          "type": "address"
        },
        {
          "internalType": "address",
          "name": "user",
          "type": "address"
        },
        {
          "internalType": "uint256",
          "name": "amount",
          "type": "uint256"
        }
      ],
      "name": "deposit",
      "outputs": [],
      "stateMutability": "nonpayable",
      "type": "function"
    },
    {
      "inputs": [
        {
          "components": [
            {
              "internalType": "address",
              "name": "token",
              "type": "address"
            },
            {
              "internalType": "uint256",
              "name": "amount",
              "type": "uint256"
            }
          ],
          "internalType": "struct ProtocolTypes.Output[]",
          "name": "inputs",
          "type": "tuple[]"
        },
        {
          "internalType": "bytes",
          "name": "data",
          "type": "bytes"
        }
      ],
      "name": "processLendingInstruction",
      "outputs": [
        {
          "components": [
            {
              "internalType": "address",
              "name": "token",
              "type": "address"
            },
            {
              "internalType": "uint256",
              "name": "amount",
              "type": "uint256"
            }
          ],
          "internalType": "struct ProtocolTypes.Output[]",
          "name": "outputs",
          "type": "tuple[]"
        }
      ],
      "stateMutability": "nonpayable",
      "type": "function"
    },
    {
      "inputs": [
        {
          "internalType": "address",
          "name": "token",
          "type": "address"
        },
        {
          "internalType": "address",
          "name": "user",
          "type": "address"
        },
        {
          "internalType": "uint256",
          "name": "amount",
          "type": "uint256"
        }
      ],
      "name": "repay",
      "outputs": [
        {
          "internalType": "uint256",
          "name": "refund",
          "type": "uint256"
        }
      ],
      "stateMutability": "nonpayable",
      "type": "function"
    },
    {
      "inputs": [
        {
          "internalType": "address",
          "name": "collateral",
          "type": "address"
        },
        {
          "internalType": "address",
          "name": "user",
          "type": "address"
        },
        {
          "internalType": "uint256",
          "name": "underlyingAmount",
          "type": "uint256"
        }
      ],
      "name": "withdrawCollateral",
      "outputs": [
        {
          "internalType": "address",
          "name": "",
          "type": "address"
        },
        {
          "internalType": "uint256",
          "name": "",
          "type": "uint256"
        }
      ],
      "stateMutability": "nonpayable",
      "type": "function"
    }
  ],
  "transactionHash": "0x2188c77e418ebe8a1af962a4a798d4d53d2d2defbd0d7f5d7f08791fc5fbdbeb",
  "args": [
    "0xDb9c345b561e0C45c9611C00C7719E8815749Fd1",
    "0x0C7973F9598AA62f9e03B94E92C967fD5437426C"
  ],
  "numDeployments": 10,
  "solcInputHash": "500df2add3657c71b86ef87c68c4d52e",
  "bytecode": "0x60c060405234801561000f575f5ffd5b5060405161335638038061335683398101604081905261002e916100c0565b816001600160a01b0381166100895760405162461bcd60e51b815260206004820152601d60248201527f526f7574657220616464726573732063616e6e6f74206265207a65726f000000604482015260640160405180910390fd5b6001600160a01b0390811660805260015f551660a052506100f1565b80516001600160a01b03811681146100bb575f5ffd5b919050565b5f5f604083850312156100d1575f5ffd5b6100da836100a5565b91506100e8602084016100a5565b90509250929050565b60805160a0516131f861015e5f395f818161014e015281816105ca015281816106f501528181610baf01528181610cdc0152818161109e0152818161117701526126bb01525f818160fa0152818161124f0152818161159f01528181611bff0152611d7901526131f85ff3fe608060405234801561000f575f5ffd5b5060043610610085575f3560e01c80635224372c116100585780635224372c146101345780635fe3b567146101495780638340f54914610170578063ae4be46d14610183575f5ffd5b806317c2a46b146100895780631da649cf146100b35780632ae8bdfe146100d457806332fe7b26146100f5575b5f5ffd5b61009c610097366004612ab1565b6101a3565b6040516100aa929190612b74565b60405180910390f35b6100c66100c1366004612c09565b611243565b6040519081526020016100aa565b6100e76100e2366004612c09565b611591565b6040516100aa929190612c47565b61011c7f000000000000000000000000000000000000000000000000000000000000000081565b6040516001600160a01b0390911681526020016100aa565b610147610142366004612c09565b611bf3565b005b61011c7f000000000000000000000000000000000000000000000000000000000000000081565b61014761017e366004612c09565b611d6e565b610196610191366004612ca4565b6120c2565b6040516100aa9190612d3c565b6060805f5f5b858110156102e057368787838181106101c4576101c4612d93565b90506020028101906101d69190612da7565b90505f6101e66020830183612dec565b60068111156101f7576101f7612dc5565b0361020e57610207600284612e19565b92506102d7565b600461021d6020830183612dec565b600681111561022e5761022e612dc5565b03610245578261023d81612e2c565b9350506102d7565b60016102546020830183612dec565b600681111561026557610265612dc5565b0361027557610207600284612e19565b60026102846020830183612dec565b600681111561029557610295612dc5565b036102a4578261023d81612e2c565b60036102b36020830183612dec565b60068111156102c4576102c4612dc5565b036102d757826102d381612e2c565b9350505b506001016101a9565b50806001600160401b038111156102f9576102f9612e44565b604051908082528060200260200182016040528015610322578160200160208202803683370190505b509250806001600160401b0381111561033d5761033d612e44565b60405190808252806020026020018201604052801561037057816020015b606081526020019060019003908161035b5790505b5091505f5f5b86811015611238573688888381811061039157610391612d93565b90506020028101906103a39190612da7565b90505f6103b36020830183612dec565b60068111156103c4576103c4612dc5565b036107bf575f6103da6040830160208401612e58565b604051636eb1769f60e11b81526001600160a01b038a81166004830152306024830152919091169063dd62ed3e90604401602060405180830381865afa158015610426573d5f5f3e3d5ffd5b505050506040513d601f19601f8201168201806040525081019061044a9190612e73565b9050606082013515801590610463575081606001358110155b156104cc575f87858151811061047b5761047b612d93565b60200260200101906001600160a01b031690816001600160a01b03168152505060405180602001604052805f8152508685815181106104bc576104bc612d93565b6020026020010181905250610577565b6104dc6040830160208401612e58565b8785815181106104ee576104ee612d93565b6001600160a01b039092166020928302919091019091015260405163095ea7b360e01b90610526903090606086013590602401612c47565b604051602081830303815290604052906001600160e01b0319166020820180516001600160e01b03838183161783525050505086858151811061056b5761056b612d93565b60200260200101819052505b8361058181612e2c565b94505f905061059e6105996040850160208601612e58565b6126b7565b60405163929fe9a160e01b81526001600160a01b038b8116600483015280831660248301529192505f917f0000000000000000000000000000000000000000000000000000000000000000169063929fe9a190604401602060405180830381865afa92505050801561062d575060408051601f3d908101601f1916820190925261062a91810190612e8a565b60015b156106355790505b801561069f575f89878151811061064e5761064e612d93565b60200260200101906001600160a01b031690816001600160a01b03168152505060405180602001604052805f81525088878151811061068f5761068f612d93565b60200260200101819052506107aa565b6040805160018082528183019092525f916020808301908036833701905050905082815f815181106106d3576106d3612d93565b60200260200101906001600160a01b031690816001600160a01b0316815250507f00000000000000000000000000000000000000000000000000000000000000008a888151811061072657610726612d93565b6001600160a01b0390921660209283029190910190910152604051631853304760e31b90610758908390602401612ea9565b604051602081830303815290604052906001600160e01b0319166020820180516001600160e01b03838183161783525050505089888151811061079d5761079d612d93565b6020026020010181905250505b856107b481612e2c565b96505050505061122f565b60046107ce6020830183612dec565b60068111156107df576107df612dc5565b036109a5575f6107f56040830160208401612e58565b604051636eb1769f60e11b81526001600160a01b038a81166004830152306024830152919091169063dd62ed3e90604401602060405180830381865afa158015610841573d5f5f3e3d5ffd5b505050506040513d601f19601f820116820180604052508101906108659190612e73565b905060608201351580159061087e575081606001358110155b156108e7575f87858151811061089657610896612d93565b60200260200101906001600160a01b031690816001600160a01b03168152505060405180602001604052805f8152508685815181106108d7576108d7612d93565b6020026020010181905250610992565b6108f76040830160208401612e58565b87858151811061090957610909612d93565b6001600160a01b039092166020928302919091019091015260405163095ea7b360e01b90610941903090606086013590602401612c47565b604051602081830303815290604052906001600160e01b0319166020820180516001600160e01b03838183161783525050505086858151811061098657610986612d93565b60200260200101819052505b8361099c81612e2c565b9450505061122f565b60016109b46020830183612dec565b60068111156109c5576109c5612dc5565b03610da7575f6109db6040830160208401612e58565b90505f6109e7826126b7565b604051636eb1769f60e11b81526001600160a01b038b811660048301523060248301529192505f9184169063dd62ed3e90604401602060405180830381865afa158015610a36573d5f5f3e3d5ffd5b505050506040513d601f19601f82011682018060405250810190610a5a9190612e73565b9050606084013515801590610a73575083606001358110155b15610adc575f898781518110610a8b57610a8b612d93565b60200260200101906001600160a01b031690816001600160a01b03168152505060405180602001604052805f815250888781518110610acc57610acc612d93565b6020026020010181905250610b78565b82898781518110610aef57610aef612d93565b6001600160a01b039092166020928302919091019091015260405163095ea7b360e01b90610b27903090606088013590602401612c47565b604051602081830303815290604052906001600160e01b0319166020820180516001600160e01b038381831617835250505050888781518110610b6c57610b6c612d93565b60200260200101819052505b85610b8281612e2c565b60405163929fe9a160e01b81526001600160a01b038d8116600483015285811660248301529198505f92507f00000000000000000000000000000000000000000000000000000000000000009091169063929fe9a190604401602060405180830381865afa925050508015610c14575060408051601f3d908101601f19168201909252610c1191810190612e8a565b60015b15610c1c5790505b8015610c86575f8a8881518110610c3557610c35612d93565b60200260200101906001600160a01b031690816001600160a01b03168152505060405180602001604052805f815250898881518110610c7657610c76612d93565b6020026020010181905250610d91565b6040805160018082528183019092525f916020808301908036833701905050905083815f81518110610cba57610cba612d93565b60200260200101906001600160a01b031690816001600160a01b0316815250507f00000000000000000000000000000000000000000000000000000000000000008b8981518110610d0d57610d0d612d93565b6001600160a01b0390921660209283029190910190910152604051631853304760e31b90610d3f908390602401612ea9565b604051602081830303815290604052906001600160e01b0319166020820180516001600160e01b0383818316178352505050508a8981518110610d8457610d84612d93565b6020026020010181905250505b86610d9b81612e2c565b9750505050505061122f565b6002610db66020830183612dec565b6006811115610dc757610dc7612dc5565b03611052575f610ddd6040830160208401612e58565b90505f610de9826126b7565b90505f816001600160a01b031663182df0f56040518163ffffffff1660e01b8152600401602060405180830381865afa158015610e28573d5f5f3e3d5ffd5b505050506040513d601f19601f82011682018060405250810190610e4c9190612e73565b90505f606085013515610e965781600181610e736060890135670de0b6b3a7640000612ebb565b610e7d9190612e19565b610e879190612ed2565b610e919190612ee5565b610e99565b5f195b604051636eb1769f60e11b81526001600160a01b038d811660048301523060248301529192505f9185169063dd62ed3e90604401602060405180830381865afa158015610ee8573d5f5f3e3d5ffd5b505050506040513d601f19601f82011682018060405250810190610f0c9190612e73565b9050606086013515801590610f215750818110155b80610f3957506060860135158015610f3957505f1981145b15610fa2575f8b8981518110610f5157610f51612d93565b60200260200101906001600160a01b031690816001600160a01b03168152505060405180602001604052805f8152508a8981518110610f9257610f92612d93565b602002602001018190525061103b565b838b8981518110610fb557610fb5612d93565b6001600160a01b039092166020928302919091019091015260405163095ea7b360e01b90610fea9030905f1990602401612c47565b604051602081830303815290604052906001600160e01b0319166020820180516001600160e01b0383818316178352505050508a898151811061102f5761102f612d93565b60200260200101819052505b8761104581612e2c565b985050505050505061122f565b60036110616020830183612dec565b600681111561107257611072612dc5565b0361122f57604051630217306760e31b81526001600160a01b0388811660048301523060248301525f917f0000000000000000000000000000000000000000000000000000000000000000909116906310b9833890604401602060405180830381865afa925050508015611103575060408051601f3d908101601f1916820190925261110091810190612e8a565b60015b1561110b5790505b8015611175575f87858151811061112457611124612d93565b60200260200101906001600160a01b031690816001600160a01b03168152505060405180602001604052805f81525086858151811061116557611165612d93565b6020026020010181905250611220565b7f00000000000000000000000000000000000000000000000000000000000000008785815181106111a8576111a8612d93565b6001600160a01b039290921660209283029190910182015260408051306024820152600160448083019190915282518083039091018152606490910190915290810180516001600160e01b031663ddbf54fd60e01b179052865187908690811061121457611214612d93565b60200260200101819052505b8361122a81612e2c565b945050505b50600101610376565b505050935093915050565b5f336001600160a01b037f000000000000000000000000000000000000000000000000000000000000000016146112b85760405162461bcd60e51b815260206004820152601460248201527313db9b1e481c9bdd5d195c8818d85b8818d85b1b60621b60448201526064015b60405180910390fd5b6112c0612850565b5f6112ca856126b7565b6040516370a0823160e01b81523060048201529091505f906001600160a01b038716906370a0823190602401602060405180830381865afa158015611311573d5f5f3e3d5ffd5b505050506040513d601f19601f820116820180604052508101906113359190612e73565b905061134c6001600160a01b038716333087612878565b60405163095ea7b360e01b81526001600160a01b0387169063095ea7b39061137a9085905f90600401612c47565b6020604051808303815f875af1158015611396573d5f5f3e3d5ffd5b505050506040513d601f19601f820116820180604052508101906113ba9190612e8a565b5060405163095ea7b360e01b81526001600160a01b0387169063095ea7b3906113e99085908890600401612c47565b6020604051808303815f875af1158015611405573d5f5f3e3d5ffd5b505050506040513d601f19601f820116820180604052508101906114299190612e8a565b506040516304c11f0360e31b81525f906001600160a01b03841690632608f8189061145a9089908990600401612c47565b6020604051808303815f875af1158015611476573d5f5f3e3d5ffd5b505050506040513d601f19601f8201168201806040525081019061149a9190612e73565b905080156114e05760405162461bcd60e51b815260206004820152601360248201527215995b9d5cce881c995c185e4819985a5b1959606a1b60448201526064016112af565b6040516370a0823160e01b81523060048201525f906001600160a01b038916906370a0823190602401602060405180830381865afa158015611524573d5f5f3e3d5ffd5b505050506040513d601f19601f820116820180604052508101906115489190612e73565b9050828111611557575f611561565b6115618382612ed2565b9450841561157d5761157d6001600160a01b03891633876128df565b5050505061158a60015f55565b9392505050565b5f8083336001600160a01b037f00000000000000000000000000000000000000000000000000000000000000001614806115d35750336001600160a01b038216145b61161f5760405162461bcd60e51b815260206004820152601c60248201527f4f6e6c7920726f75746572206f722073656c662063616e2063616c6c0000000060448201526064016112af565b611627612850565b5f611631876126b7565b6040516305eff7ef60e21b81526001600160a01b0388811660048301529192505f918316906317bfdfbc906024016020604051808303815f875af115801561167b573d5f5f3e3d5ffd5b505050506040513d601f19601f8201168201806040525081019061169f9190612e73565b9050808610611942576040516370a0823160e01b81526001600160a01b03888116600483015291965086915f91908416906370a0823190602401602060405180830381865afa1580156116f4573d5f5f3e3d5ffd5b505050506040513d601f19601f820116820180604052508101906117189190612e73565b6040516323b872dd60e01b81526001600160a01b038a8116600483015230602483015260448201839052919250908416906323b872dd906064016020604051808303815f875af115801561176e573d5f5f3e3d5ffd5b505050506040513d601f19601f820116820180604052508101906117929190612e8a565b506040516370a0823160e01b81523060048201525f906001600160a01b038b16906370a0823190602401602060405180830381865afa1580156117d7573d5f5f3e3d5ffd5b505050506040513d601f19601f820116820180604052508101906117fb9190612e73565b60405163db006a7560e01b8152600481018490529091505f906001600160a01b0386169063db006a75906024016020604051808303815f875af1158015611844573d5f5f3e3d5ffd5b505050506040513d601f19601f820116820180604052508101906118689190612e73565b905080156118885760405162461bcd60e51b81526004016112af90612f04565b80156118a65760405162461bcd60e51b81526004016112af90612f04565b6040516370a0823160e01b81523060048201525f906001600160a01b038d16906370a0823190602401602060405180830381865afa1580156118ea573d5f5f3e3d5ffd5b505050506040513d601f19601f8201168201806040525081019061190e9190612e73565b90505f61191b8483612ed2565b90506119316001600160a01b038e1633836128df565b8c99509750611be195505050505050565b5f826001600160a01b031663bd6d894d6040518163ffffffff1660e01b81526004016020604051808303815f875af1158015611980573d5f5f3e3d5ffd5b505050506040513d601f19601f820116820180604052508101906119a49190612e73565b90505f816001816119bd8b670de0b6b3a7640000612ebb565b6119c79190612e19565b6119d19190612ed2565b6119db9190612ee5565b6040516323b872dd60e01b81526001600160a01b038b8116600483015230602483015260448201839052919250908516906323b872dd906064016020604051808303815f875af1158015611a31573d5f5f3e3d5ffd5b505050506040513d601f19601f82011682018060405250810190611a559190612e8a565b506040516370a0823160e01b81523060048201525f906001600160a01b038c16906370a0823190602401602060405180830381865afa158015611a9a573d5f5f3e3d5ffd5b505050506040513d601f19601f82011682018060405250810190611abe9190612e73565b60405163db006a7560e01b8152600481018490529091505f906001600160a01b0387169063db006a75906024016020604051808303815f875af1158015611b07573d5f5f3e3d5ffd5b505050506040513d601f19601f82011682018060405250810190611b2b9190612e73565b90508015611b4b5760405162461bcd60e51b81526004016112af90612f04565b6040516370a0823160e01b81523060048201525f9083906001600160a01b038f16906370a0823190602401602060405180830381865afa158015611b91573d5f5f3e3d5ffd5b505050506040513d601f19601f82011682018060405250810190611bb59190612e73565b611bbf9190612ed2565b9050611bd56001600160a01b038e1633836128df565b8c995097505050505050505b611bea60015f55565b50935093915050565b81336001600160a01b037f0000000000000000000000000000000000000000000000000000000000000000161480611c335750336001600160a01b038216145b611c7f5760405162461bcd60e51b815260206004820152601c60248201527f4f6e6c7920726f75746572206f722073656c662063616e2063616c6c0000000060448201526064016112af565b611c87612850565b5f611c91856126b7565b90505f816001600160a01b031663856e5bb386866040518363ffffffff1660e01b8152600401611cc2929190612c47565b6020604051808303815f875af1158015611cde573d5f5f3e3d5ffd5b505050506040513d601f19601f82011682018060405250810190611d029190612e73565b90508015611d495760405162461bcd60e51b815260206004820152601460248201527315995b9d5cce88189bdc9c9bddc819985a5b195960621b60448201526064016112af565b611d5d6001600160a01b03871633866128df565b5050611d6860015f55565b50505050565b336001600160a01b037f00000000000000000000000000000000000000000000000000000000000000001614611ddd5760405162461bcd60e51b815260206004820152601460248201527313db9b1e481c9bdd5d195c8818d85b8818d85b1b60621b60448201526064016112af565b611de5612850565b5f611def846126b7565b9050611e066001600160a01b038516333085612878565b60405163095ea7b360e01b81526001600160a01b0385169063095ea7b390611e349084905f90600401612c47565b6020604051808303815f875af1158015611e50573d5f5f3e3d5ffd5b505050506040513d601f19601f82011682018060405250810190611e749190612e8a565b5060405163095ea7b360e01b81526001600160a01b0385169063095ea7b390611ea39084908690600401612c47565b6020604051808303815f875af1158015611ebf573d5f5f3e3d5ffd5b505050506040513d601f19601f82011682018060405250810190611ee39190612e8a565b5060405163140e25ad60e31b8152600481018390525f906001600160a01b0383169063a0712d68906024016020604051808303815f875af1158015611f2a573d5f5f3e3d5ffd5b505050506040513d601f19601f82011682018060405250810190611f4e9190612e73565b90508015611f935760405162461bcd60e51b815260206004820152601260248201527115995b9d5cce881b5a5b9d0819985a5b195960721b60448201526064016112af565b6040516370a0823160e01b81523060048201525f906001600160a01b038416906370a0823190602401602060405180830381865afa158015611fd7573d5f5f3e3d5ffd5b505050506040513d601f19601f82011682018060405250810190611ffb9190612e73565b90505f81116120425760405162461bcd60e51b815260206004820152601360248201527256656e75733a207a65726f2076546f6b656e7360681b60448201526064016112af565b60405163a9059cbb60e01b81526001600160a01b0384169063a9059cbb906120709088908590600401612c47565b6020604051808303815f875af115801561208c573d5f5f3e3d5ffd5b505050506040513d601f19601f820116820180604052508101906120b09190612e8a565b505050506120bd60015f55565b505050565b60605f6120d183850185612fc9565b6020810151606082015160a08301515192935090918711156121445787878460a001515f015181811061210657612106612d93565b61211c9260206040909202019081019150612e58565b915087878460a001515f015181811061213757612137612d93565b9050604002016020013590505b5f8351600681111561215857612158612dc5565b1480612176575060018351600681111561217457612174612dc5565b145b156121cd5761218a82846040015183611d6e565b604080515f80825260208201909252906121c5565b604080518082019091525f808252602082015281526020019060019003908161219f5790505b5093506126ac565b6002835160068111156121e2576121e2612dc5565b0361227c575f5f6121f884866040015185611591565b604080516001808252818301909252929450909250816020015b604080518082019091525f80825260208201528152602001906001900390816122125790505095506040518060400160405280836001600160a01b0316815260200182815250865f8151811061226a5761226a612d93565b602002602001018190525050506126ac565b60038351600681111561229157612291612dc5565b03612322576122a582846040015183611bf3565b60408051600180825281830190925290816020015b604080518082019091525f80825260208201528152602001906001900390816122ba5790505093506040518060400160405280836001600160a01b0316815260200182815250845f8151811061231257612312612d93565b60200260200101819052506126ac565b60048351600681111561233757612337612dc5565b036123cc575f61234c83856040015184611243565b604080516001808252818301909252919250816020015b604080518082019091525f80825260208201528152602001906001900390816123635790505094506040518060400160405280846001600160a01b0316815260200182815250855f815181106123bb576123bb612d93565b6020026020010181905250506126ac565b6005835160068111156123e1576123e1612dc5565b036124d3575f6123f0836126b7565b60408086015190516305eff7ef60e21b81526001600160a01b0391821660048201529192505f91908316906317bfdfbc906024016020604051808303815f875af1158015612440573d5f5f3e3d5ffd5b505050506040513d601f19601f820116820180604052508101906124649190612e73565b604080516001808252818301909252919250816020015b604080518082019091525f808252602082015281526020019060019003908161247b5790505095506040518060400160405280856001600160a01b0316815260200182815250865f8151811061226a5761226a612d93565b6006835160068111156124e8576124e8612dc5565b03612670575f6124f7836126b7565b60408086015190516370a0823160e01b81526001600160a01b0391821660048201529192505f91908316906370a0823190602401602060405180830381865afa158015612546573d5f5f3e3d5ffd5b505050506040513d601f19601f8201168201806040525081019061256a9190612e73565b90505f826001600160a01b031663182df0f56040518163ffffffff1660e01b8152600401602060405180830381865afa1580156125a9573d5f5f3e3d5ffd5b505050506040513d601f19601f820116820180604052508101906125cd9190612e73565b90505f670de0b6b3a76400006125e38385612ebb565b6125ed9190612ee5565b604080516001808252818301909252919250816020015b604080518082019091525f80825260208201528152602001906001900390816126045790505097506040518060400160405280876001600160a01b0316815260200182815250885f8151811061265c5761265c612d93565b6020026020010181905250505050506126ac565b60405162461bcd60e51b8152602060048201526011602482015270056656e75733a20756e6b6e6f776e206f7607c1b60448201526064016112af565b505050949350505050565b5f5f7f00000000000000000000000000000000000000000000000000000000000000006001600160a01b031663b0772d0b6040518163ffffffff1660e01b81526004015f60405180830381865afa158015612714573d5f5f3e3d5ffd5b505050506040513d5f823e601f3d908101601f1916820160405261273b91908101906130df565b90505f5b81518110156128075781818151811061275a5761275a612d93565b60200260200101516001600160a01b0316636f307dc36040518163ffffffff1660e01b8152600401602060405180830381865afa9250505080156127bb575060408051601f3d908101601f191682019092526127b891810190613191565b60015b156127ff57846001600160a01b0316816001600160a01b0316036127fd578282815181106127eb576127eb612d93565b60200260200101519350505050919050565b505b60010161273f565b5060405162461bcd60e51b815260206004820152601760248201527f56656e75733a2076546f6b656e206e6f7420666f756e6400000000000000000060448201526064016112af565b60025f540361287257604051633ee5aeb560e01b815260040160405180910390fd5b60025f55565b6040516001600160a01b038481166024830152838116604483015260648201839052611d689186918216906323b872dd906084015b604051602081830303815290604052915060e01b6020820180516001600160e01b038381831617835250505050612905565b6120bd83846001600160a01b031663a9059cbb85856040516024016128ad929190612c47565b5f6129196001600160a01b03841683612966565b905080515f1415801561293d57508080602001905181019061293b9190612e8a565b155b156120bd57604051635274afe760e01b81526001600160a01b03841660048201526024016112af565b606061297383835f61297c565b90505b92915050565b6060814710156129a15760405163cd78605960e01b81523060048201526024016112af565b5f5f856001600160a01b031684866040516129bc91906131ac565b5f6040518083038185875af1925050503d805f81146129f6576040519150601f19603f3d011682016040523d82523d5f602084013e6129fb565b606091505b5091509150612a0b868383612a15565b9695505050505050565b606082612a2a57612a2582612a71565b61158a565b8151158015612a4157506001600160a01b0384163b155b15612a6a57604051639996b31560e01b81526001600160a01b03851660048201526024016112af565b508061158a565b805115612a815780518082602001fd5b604051630a12f52160e11b815260040160405180910390fd5b50565b6001600160a01b0381168114612a9a575f5ffd5b5f5f5f60408486031215612ac3575f5ffd5b83356001600160401b03811115612ad8575f5ffd5b8401601f81018613612ae8575f5ffd5b80356001600160401b03811115612afd575f5ffd5b8660208260051b8401011115612b11575f5ffd5b602091820194509250840135612b2681612a9d565b809150509250925092565b5f8151808452602084019350602083015f5b82811015612b6a5781516001600160a01b0316865260209586019590910190600101612b43565b5093949350505050565b604081525f612b866040830185612b31565b828103602084015280845180835260208301915060208160051b840101602087015f5b83811015612bfb57601f19868403018552815180518085528060208301602087015e5f602082870101526020601f19601f83011686010194505050602082019150602085019450600181019050612ba9565b509098975050505050505050565b5f5f5f60608486031215612c1b575f5ffd5b8335612c2681612a9d565b92506020840135612c3681612a9d565b929592945050506040919091013590565b6001600160a01b03929092168252602082015260400190565b5f5f83601f840112612c70575f5ffd5b5081356001600160401b03811115612c86575f5ffd5b602083019150836020828501011115612c9d575f5ffd5b9250929050565b5f5f5f5f60408587031215612cb7575f5ffd5b84356001600160401b03811115612ccc575f5ffd5b8501601f81018713612cdc575f5ffd5b80356001600160401b03811115612cf1575f5ffd5b8760208260061b8401011115612d05575f5ffd5b6020918201955093508501356001600160401b03811115612d24575f5ffd5b612d3087828801612c60565b95989497509550505050565b602080825282518282018190525f918401906040840190835b81811015612d8857835180516001600160a01b031684526020908101518185015290930192604090920191600101612d55565b509095945050505050565b634e487b7160e01b5f52603260045260245ffd5b5f823560be19833603018112612dbb575f5ffd5b9190910192915050565b634e487b7160e01b5f52602160045260245ffd5b803560078110612de7575f5ffd5b919050565b5f60208284031215612dfc575f5ffd5b61297382612dd9565b634e487b7160e01b5f52601160045260245ffd5b8082018082111561297657612976612e05565b5f60018201612e3d57612e3d612e05565b5060010190565b634e487b7160e01b5f52604160045260245ffd5b5f60208284031215612e68575f5ffd5b813561158a81612a9d565b5f60208284031215612e83575f5ffd5b5051919050565b5f60208284031215612e9a575f5ffd5b8151801515811461158a575f5ffd5b602081525f6129736020830184612b31565b808202811582820484141761297657612976612e05565b8181038181111561297657612976612e05565b5f82612eff57634e487b7160e01b5f52601260045260245ffd5b500490565b60208082526014908201527315995b9d5cce881c995919595b4819985a5b195960621b604082015260600190565b60405160c081016001600160401b0381118282101715612f5457612f54612e44565b60405290565b604051601f8201601f191681016001600160401b0381118282101715612f8257612f82612e44565b604052919050565b5f60208284031215612f9a575f5ffd5b604051602081016001600160401b0381118282101715612fbc57612fbc612e44565b6040529135825250919050565b5f60208284031215612fd9575f5ffd5b81356001600160401b03811115612fee575f5ffd5b820160c08185031215612fff575f5ffd5b613007612f32565b61301082612dd9565b8152602082013561302081612a9d565b6020820152604082013561303381612a9d565b60408201526060828101359082015260808201356001600160401b0381111561305a575f5ffd5b8201601f8101861361306a575f5ffd5b80356001600160401b0381111561308357613083612e44565b613096601f8201601f1916602001612f5a565b8181528760208385010111156130aa575f5ffd5b816020840160208301375f602083830101528060808501525050506130d28560a08401612f8a565b60a0820152949350505050565b5f602082840312156130ef575f5ffd5b81516001600160401b03811115613104575f5ffd5b8201601f81018413613114575f5ffd5b80516001600160401b0381111561312d5761312d612e44565b8060051b61313d60208201612f5a565b91825260208184018101929081019087841115613158575f5ffd5b6020850194505b83851015613186578451925061317483612a9d565b8282526020948501949091019061315f565b979650505050505050565b5f602082840312156131a1575f5ffd5b815161158a81612a9d565b5f82518060208501845e5f92019182525091905056fea264697066735822122028691d004862877b38917146b9044851fa95f6b0f67aaf5a4177a196e379694d64736f6c634300081e0033",
  "devdoc": {
    "errors": {
      "AddressEmptyCode(address)": [
        {
          "details": "There's no code at `target` (it is not a contract)."
        }
      ],
      "AddressInsufficientBalance(address)": [
        {
          "details": "The ETH balance of the account is not enough to perform the operation."
        }
      ],
      "FailedInnerCall()": [
        {
          "details": "A call to an address target failed. The target may have reverted."
        }
      ],
      "ReentrancyGuardReentrantCall()": [
        {
          "details": "Unauthorized reentrant call."
        }
      ],
      "SafeERC20FailedOperation(address)": [
        {
          "details": "An operation with an ERC20 token failed."
        }
      ]
    },
    "kind": "dev",
    "methods": {},
    "version": 1
  },
  "userdoc": {
    "kind": "user",
    "methods": {
      "authorize((uint8,address,address,uint256,bytes,(uint256))[],address)": {
        "notice": "Return user-side authorization calls for the given lending instructions.         One element per input (or (address(0), bytes(\"\")) if none needed)."
      }
    },
    "version": 1
  },
  "storageLayout": {
    "storage": [
      {
        "astId": 845,
        "contract": "contracts/v2/gateways/venus/VenusGatewayWrite.sol:VenusGatewayWrite",
        "label": "_status",
        "offset": 0,
        "slot": "0",
        "type": "t_uint256"
      }
    ],
    "types": {
      "t_uint256": {
        "encoding": "inplace",
        "label": "uint256",
        "numberOfBytes": "32"
      }
    }
  }
}