{
  "address": "0x714292EFb5273f4308988031d533709cA4F16d15",
  "abi": [
    {
      "inputs": [
        {
          "internalType": "address",
          "name": "_comptroller",
          "type": "address"
        },
        {
          "internalType": "address",
          "name": "_oracle",
          "type": "address"
        },
        {
          "internalType": "address",
          "name": "owner_",
          "type": "address"
        }
      ],
      "stateMutability": "nonpayable",
      "type": "constructor"
    },
    {
      "inputs": [
        {
          "internalType": "address",
          "name": "owner",
          "type": "address"
        }
      ],
      "name": "OwnableInvalidOwner",
      "type": "error"
    },
    {
      "inputs": [
        {
          "internalType": "address",
          "name": "account",
          "type": "address"
        }
      ],
      "name": "OwnableUnauthorizedAccount",
      "type": "error"
    },
    {
      "anonymous": false,
      "inputs": [
        {
          "indexed": true,
          "internalType": "address",
          "name": "previousOwner",
          "type": "address"
        },
        {
          "indexed": true,
          "internalType": "address",
          "name": "newOwner",
          "type": "address"
        }
      ],
      "name": "OwnershipTransferred",
      "type": "event"
    },
    {
      "inputs": [
        {
          "internalType": "address",
          "name": "account",
          "type": "address"
        },
        {
          "internalType": "address",
          "name": "vToken",
          "type": "address"
        }
      ],
      "name": "checkMembership",
      "outputs": [
        {
          "internalType": "bool",
          "name": "",
          "type": "bool"
        }
      ],
      "stateMutability": "view",
      "type": "function"
    },
    {
      "inputs": [],
      "name": "comptroller",
      "outputs": [
        {
          "internalType": "contract ComptrollerInterface",
          "name": "",
          "type": "address"
        }
      ],
      "stateMutability": "view",
      "type": "function"
    },
    {
      "inputs": [
        {
          "internalType": "address",
          "name": "account",
          "type": "address"
        }
      ],
      "name": "getAccountLiquidity",
      "outputs": [
        {
          "internalType": "uint256",
          "name": "",
          "type": "uint256"
        },
        {
          "internalType": "uint256",
          "name": "",
          "type": "uint256"
        },
        {
          "internalType": "uint256",
          "name": "",
          "type": "uint256"
        }
      ],
      "stateMutability": "view",
      "type": "function"
    },
    {
      "inputs": [],
      "name": "getAllMarkets",
      "outputs": [
        {
          "internalType": "address[]",
          "name": "",
          "type": "address[]"
        }
      ],
      "stateMutability": "view",
      "type": "function"
    },
    {
      "inputs": [],
      "name": "getAllVenusMarkets",
      "outputs": [
        {
          "internalType": "address[]",
          "name": "vTokens",
          "type": "address[]"
        },
        {
          "internalType": "address[]",
          "name": "tokens",
          "type": "address[]"
        },
        {
          "internalType": "string[]",
          "name": "symbols",
          "type": "string[]"
        },
        {
          "internalType": "string[]",
          "name": "names",
          "type": "string[]"
        },
        {
          "internalType": "uint8[]",
          "name": "decimals",
          "type": "uint8[]"
        },
        {
          "internalType": "uint256[]",
          "name": "prices",
          "type": "uint256[]"
        }
      ],
      "stateMutability": "view",
      "type": "function"
    },
    {
      "inputs": [
        {
          "internalType": "address",
          "name": "account",
          "type": "address"
        }
      ],
      "name": "getAssetsIn",
      "outputs": [
        {
          "internalType": "address[]",
          "name": "",
          "type": "address[]"
        }
      ],
      "stateMutability": "view",
      "type": "function"
    },
    {
      "inputs": [
        {
          "internalType": "address",
          "name": "token",
          "type": "address"
        },
        {
          "internalType": "address",
          "name": "user",
          "type": "address"
        }
      ],
      "name": "getBalance",
      "outputs": [
        {
          "internalType": "uint256",
          "name": "",
          "type": "uint256"
        }
      ],
      "stateMutability": "view",
      "type": "function"
    },
    {
      "inputs": [
        {
          "internalType": "address",
          "name": "token",
          "type": "address"
        },
        {
          "internalType": "address",
          "name": "user",
          "type": "address"
        }
      ],
      "name": "getBorrowBalance",
      "outputs": [
        {
          "internalType": "uint256",
          "name": "",
          "type": "uint256"
        }
      ],
      "stateMutability": "view",
      "type": "function"
    },
    {
      "inputs": [
        {
          "internalType": "address",
          "name": "token",
          "type": "address"
        },
        {
          "internalType": "address",
          "name": "user",
          "type": "address"
        }
      ],
      "name": "getBorrowBalanceCurrent",
      "outputs": [
        {
          "internalType": "uint256",
          "name": "",
          "type": "uint256"
        }
      ],
      "stateMutability": "nonpayable",
      "type": "function"
    },
    {
      "inputs": [
        {
          "internalType": "address",
          "name": "token",
          "type": "address"
        }
      ],
      "name": "getBorrowRate",
      "outputs": [
        {
          "internalType": "uint256",
          "name": "",
          "type": "uint256"
        },
        {
          "internalType": "bool",
          "name": "",
          "type": "bool"
        }
      ],
      "stateMutability": "view",
      "type": "function"
    },
    {
      "inputs": [],
      "name": "getCollateralFactors",
      "outputs": [
        {
          "internalType": "address[]",
          "name": "assets",
          "type": "address[]"
        },
        {
          "internalType": "uint256[]",
          "name": "ltvBps",
          "type": "uint256[]"
        },
        {
          "internalType": "uint256[]",
          "name": "lltvBps",
          "type": "uint256[]"
        }
      ],
      "stateMutability": "view",
      "type": "function"
    },
    {
      "inputs": [
        {
          "internalType": "address[]",
          "name": "vTokens",
          "type": "address[]"
        },
        {
          "internalType": "address",
          "name": "account",
          "type": "address"
        }
      ],
      "name": "getCollateralStatus",
      "outputs": [
        {
          "internalType": "bool[]",
          "name": "isCollateral",
          "type": "bool[]"
        }
      ],
      "stateMutability": "view",
      "type": "function"
    },
    {
      "inputs": [
        {
          "internalType": "address",
          "name": "",
          "type": "address"
        },
        {
          "internalType": "address",
          "name": "user",
          "type": "address"
        }
      ],
      "name": "getLtv",
      "outputs": [
        {
          "internalType": "uint256",
          "name": "result",
          "type": "uint256"
        }
      ],
      "stateMutability": "view",
      "type": "function"
    },
    {
      "inputs": [
        {
          "internalType": "address[]",
          "name": "vTokens",
          "type": "address[]"
        }
      ],
      "name": "getMarketRates",
      "outputs": [
        {
          "internalType": "uint256[]",
          "name": "prices",
          "type": "uint256[]"
        },
        {
          "internalType": "uint256[]",
          "name": "supplyRates",
          "type": "uint256[]"
        },
        {
          "internalType": "uint256[]",
          "name": "borrowRates",
          "type": "uint256[]"
        }
      ],
      "stateMutability": "view",
      "type": "function"
    },
    {
      "inputs": [
        {
          "internalType": "address",
          "name": "",
          "type": "address"
        },
        {
          "internalType": "address",
          "name": "user",
          "type": "address"
        }
      ],
      "name": "getMaxLtv",
      "outputs": [
        {
          "internalType": "uint256",
          "name": "result",
          "type": "uint256"
        }
      ],
      "stateMutability": "view",
      "type": "function"
    },
    {
      "inputs": [
        {
          "internalType": "address",
          "name": "token",
          "type": "address"
        },
        {
          "internalType": "address",
          "name": "user",
          "type": "address"
        }
      ],
      "name": "getPossibleCollaterals",
      "outputs": [
        {
          "internalType": "address[]",
          "name": "collateralAddresses",
          "type": "address[]"
        },
        {
          "internalType": "uint256[]",
          "name": "balances",
          "type": "uint256[]"
        },
        {
          "internalType": "string[]",
          "name": "symbols",
          "type": "string[]"
        },
        {
          "internalType": "uint8[]",
          "name": "decimals",
          "type": "uint8[]"
        }
      ],
      "stateMutability": "view",
      "type": "function"
    },
    {
      "inputs": [],
      "name": "getReserveConfigs",
      "outputs": [
        {
          "components": [
            {
              "internalType": "address",
              "name": "token",
              "type": "address"
            },
            {
              "internalType": "address",
              "name": "vToken",
              "type": "address"
            },
            {
              "internalType": "uint256",
              "name": "price",
              "type": "uint256"
            },
            {
              "internalType": "uint256",
              "name": "ltv",
              "type": "uint256"
            },
            {
              "internalType": "uint256",
              "name": "liquidationThreshold",
              "type": "uint256"
            },
            {
              "internalType": "uint8",
              "name": "decimals",
              "type": "uint8"
            },
            {
              "internalType": "bool",
              "name": "isListed",
              "type": "bool"
            }
          ],
          "internalType": "struct VenusGatewayView.ReserveConfigData[]",
          "name": "configs",
          "type": "tuple[]"
        }
      ],
      "stateMutability": "view",
      "type": "function"
    },
    {
      "inputs": [
        {
          "internalType": "address",
          "name": "token",
          "type": "address"
        }
      ],
      "name": "getSupplyRate",
      "outputs": [
        {
          "internalType": "uint256",
          "name": "",
          "type": "uint256"
        },
        {
          "internalType": "bool",
          "name": "",
          "type": "bool"
        }
      ],
      "stateMutability": "view",
      "type": "function"
    },
    {
      "inputs": [
        {
          "internalType": "address",
          "name": "market",
          "type": "address"
        }
      ],
      "name": "getSupportedCollaterals",
      "outputs": [
        {
          "internalType": "address[]",
          "name": "collateralAddresses",
          "type": "address[]"
        }
      ],
      "stateMutability": "view",
      "type": "function"
    },
    {
      "inputs": [
        {
          "internalType": "address[]",
          "name": "vTokens",
          "type": "address[]"
        },
        {
          "internalType": "address",
          "name": "account",
          "type": "address"
        }
      ],
      "name": "getUserBalances",
      "outputs": [
        {
          "internalType": "uint256[]",
          "name": "balances",
          "type": "uint256[]"
        },
        {
          "internalType": "uint256[]",
          "name": "borrowBalances",
          "type": "uint256[]"
        }
      ],
      "stateMutability": "view",
      "type": "function"
    },
    {
      "inputs": [
        {
          "internalType": "address",
          "name": "underlyingToken",
          "type": "address"
        }
      ],
      "name": "getVTokenForUnderlying",
      "outputs": [
        {
          "internalType": "address",
          "name": "",
          "type": "address"
        }
      ],
      "stateMutability": "view",
      "type": "function"
    },
    {
      "inputs": [
        {
          "internalType": "address",
          "name": "market",
          "type": "address"
        },
        {
          "internalType": "address",
          "name": "collateral",
          "type": "address"
        }
      ],
      "name": "isCollateralSupported",
      "outputs": [
        {
          "internalType": "bool",
          "name": "isSupported",
          "type": "bool"
        }
      ],
      "stateMutability": "view",
      "type": "function"
    },
    {
      "inputs": [],
      "name": "oracle",
      "outputs": [
        {
          "internalType": "contract ResilientOracleInterface",
          "name": "",
          "type": "address"
        }
      ],
      "stateMutability": "view",
      "type": "function"
    },
    {
      "inputs": [],
      "name": "owner",
      "outputs": [
        {
          "internalType": "address",
          "name": "",
          "type": "address"
        }
      ],
      "stateMutability": "view",
      "type": "function"
    },
    {
      "inputs": [],
      "name": "renounceOwnership",
      "outputs": [],
      "stateMutability": "nonpayable",
      "type": "function"
    },
    {
      "inputs": [
        {
          "internalType": "address",
          "name": "_comptroller",
          "type": "address"
        }
      ],
      "name": "setComptroller",
      "outputs": [],
      "stateMutability": "nonpayable",
      "type": "function"
    },
    {
      "inputs": [
        {
          "internalType": "address",
          "name": "_oracle",
          "type": "address"
        }
      ],
      "name": "setOracle",
      "outputs": [],
      "stateMutability": "nonpayable",
      "type": "function"
    },
    {
      "inputs": [
        {
          "internalType": "address",
          "name": "newOwner",
          "type": "address"
        }
      ],
      "name": "transferOwnership",
      "outputs": [],
      "stateMutability": "nonpayable",
      "type": "function"
    }
  ],
  "transactionHash": "0x116f3557873ce1588e8807a544553f9adb14d5941582663064e087e471a8dcda",
  "args": [
    "0x0C7973F9598AA62f9e03B94E92C967fD5437426C",
    "0xcBBf58bD5bAdE357b634419B70b215D5E9d6FbeD",
    "0x0BE61223F99E57b8b8B7033a77B54Adc7f7cF027"
  ],
  "numDeployments": 20,
  "solcInputHash": "cf5ff5c132e6b3e2cf29e3be8b528fd9",
  "bytecode": "0x608060405234801561000f575f5ffd5b50604051613d12380380613d1283398101604081905261002e91610102565b806001600160a01b03811661005c57604051631e4fbdf760e01b81525f600482015260240160405180910390fd5b61006581610098565b5050600180546001600160a01b039384166001600160a01b03199182161790915560028054929093169116179055610142565b5f80546001600160a01b038381166001600160a01b0319831681178455604051919092169283917f8be0079c531659141344cd1fd0a4f28419497f9722a3daafe3b4186f6b6457e09190a35050565b80516001600160a01b03811681146100fd575f5ffd5b919050565b5f5f5f60608486031215610114575f5ffd5b61011d846100e7565b925061012b602085016100e7565b9150610139604085016100e7565b90509250925092565b613bc38061014f5f395ff3fe608060405234801561000f575f5ffd5b5060043610610152575f3560e01c8063104e999d14610156578063118e31b7146101825780632b7be8e8146101a35780635ec88c79146101c35780635fe3b567146101f157806362fd6add14610204578063646121321461021757806366e2d09b146102315780636b5441a914610251578063715018a61461027957806378466113146102835780637adbf973146102a65780637dc0d1d0146102b957806381906b80146102cc5780638bad38dd146102ed5780638da5cb5b14610300578063929fe9a11461030857806398f7ad411461031b5780639d7ec6c214610330578063abfceffc14610347578063b0772d0b1461035a578063bad1935014610362578063d4fac45d14610382578063d71275f614610395578063e94201c7146103a8578063f2fde38b146103bb578063f5125d3f146103ce578063f639ecd2146103e1575b5f5ffd5b610169610164366004613034565b610403565b604051610179949392919061318b565b60405180910390f35b610195610190366004613034565b610703565b604051908152602001610179565b6101b66101b13660046131e2565b610786565b60405161017991906131fd565b6101d66101d13660046131e2565b61090f565b60408051938452602084019290925290820152606001610179565b6001546101b6906001600160a01b031681565b610195610212366004613034565b61098f565b61021f6109b5565b60405161017996959493929190613211565b61024461023f3660046131e2565b6111c8565b6040516101799190613292565b61026461025f3660046131e2565b611394565b60408051928352901515602083015201610179565b61028161140f565b005b610296610291366004613034565b611422565b6040519015158152602001610179565b6102816102b43660046131e2565b611537565b6002546101b6906001600160a01b031681565b6102df6102da3660046132eb565b611561565b60405161017992919061333d565b6102816102fb3660046131e2565b61183a565b6101b6611864565b610296610316366004613034565b611872565b6103236118e6565b6040516101799190613361565b610338611cc4565b604051610179939291906133f7565b6102446103553660046131e2565b61202a565b610244612147565b6103756103703660046132eb565b612266565b604051610179919061342f565b610195610390366004613034565b6123f2565b6102646103a33660046131e2565b6124ed565b6101956103b6366004613034565b612538565b6102816103c93660046131e2565b61258e565b6101956103dc366004613034565b6125cb565b6103f46103ef366004613468565b6125ea565b604051610179939291906134a6565b6060806060805f5f5f5f5f5f306001600160a01b031663646121326040518163ffffffff1660e01b81526004015f60405180830381865afa15801561044a573d5f5f3e3d5ffd5b505050506040513d5f823e601f3d908101601f19168201604052610471919081019061374c565b95509550955095509550955084516001600160401b03811115610496576104966134b8565b6040519080825280602002602001820160405280156104bf578160200160208202803683370190505b50995084516001600160401b038111156104db576104db6134b8565b60405190808252806020026020018201604052801561050e57816020015b60608152602001906001900390816104f95790505b50975084516001600160401b0381111561052a5761052a6134b8565b604051908082528060200260200182016040528015610553578160200160208202803683370190505b50965084516001600160401b0381111561056f5761056f6134b8565b604051908082528060200260200182016040528015610598578160200160208202803683370190505b5098506001600160a01b038b161561061f575f306001600160a01b03166381906b80888e6040518363ffffffff1660e01b81526004016105d992919061385c565b5f60405180830381865afa1580156105f3573d5f5f3e3d5ffd5b505050506040513d5f823e601f3d908101601f1916820160405261061a9190810190613885565b509950505b5f5b85518110156106f35785818151811061063c5761063c6138ea565b60200260200101518b8281518110610656576106566138ea565b60200260200101906001600160a01b031690816001600160a01b031681525050848181518110610688576106886138ea565b60200260200101518982815181106106a2576106a26138ea565b60200260200101819052508281815181106106bf576106bf6138ea565b60200260200101518882815181106106d9576106d96138ea565b60ff90921660209283029190910190910152600101610621565b5050505050505092959194509250565b5f5f61070e84610786565b6040516395dd919360e01b81529091506001600160a01b038216906395dd91939061073d9086906004016131fd565b602060405180830381865afa158015610758573d5f5f3e3d5ffd5b505050506040513d601f19601f8201168201806040525081019061077c91906138fe565b9150505b92915050565b5f5f306001600160a01b031663b0772d0b6040518163ffffffff1660e01b81526004015f60405180830381865afa1580156107c3573d5f5f3e3d5ffd5b505050506040513d5f823e601f3d908101601f191682016040526107ea9190810190613915565b90505f5b81518110156108a5575f82828151811061080a5761080a6138ea565b60200260200101519050806001600160a01b0316636f307dc36040518163ffffffff1660e01b8152600401602060405180830381865afa92505050801561086e575060408051601f3d908101601f1916820190925261086b91810190613946565b60015b610878575061089d565b856001600160a01b0316816001600160a01b03160361089a5750949350505050565b50505b6001016107ee565b5060405162461bcd60e51b815260206004820152603360248201527f56656e7573476174657761793a2076546f6b656e206e6f7420666f756e64206660448201527237b9103ab73232b9363cb4b733903a37b5b2b760691b60648201526084015b60405180910390fd5b600154604051635ec88c7960e01b81525f91829182916001600160a01b031690635ec88c79906109439087906004016131fd565b606060405180830381865afa15801561095e573d5f5f3e3d5ffd5b505050506040513d601f19601f820116820180604052508101906109829190613961565b9250925092509193909250565b5f6001600160a01b0382166109a557505f610780565b6109ae8261288d565b9392505050565b606080606080606080306001600160a01b031663b0772d0b6040518163ffffffff1660e01b81526004015f60405180830381865afa1580156109f9573d5f5f3e3d5ffd5b505050506040513d5f823e601f3d908101601f19168201604052610a209190810190613915565b8051909650806001600160401b03811115610a3d57610a3d6134b8565b604051908082528060200260200182016040528015610a66578160200160208202803683370190505b509550806001600160401b03811115610a8157610a816134b8565b604051908082528060200260200182016040528015610ab457816020015b6060815260200190600190039081610a9f5790505b509450806001600160401b03811115610acf57610acf6134b8565b604051908082528060200260200182016040528015610b0257816020015b6060815260200190600190039081610aed5790505b509350806001600160401b03811115610b1d57610b1d6134b8565b604051908082528060200260200182016040528015610b46578160200160208202803683370190505b509250806001600160401b03811115610b6157610b616134b8565b604051908082528060200260200182016040528015610b8a578160200160208202803683370190505b5091505f5b818110156111be575f888281518110610baa57610baa6138ea565b602002602001015190505f819050806001600160a01b0316636f307dc36040518163ffffffff1660e01b8152600401602060405180830381865afa925050508015610c12575060408051601f3d908101601f19168201909252610c0f91810190613946565b60015b610dd2575f898481518110610c2957610c296138ea565b60200260200101906001600160a01b031690816001600160a01b031681525050806001600160a01b03166395d89b416040518163ffffffff1660e01b81526004015f60405180830381865afa158015610c84573d5f5f3e3d5ffd5b505050506040513d5f823e601f3d908101601f19168201604052610cab919081019061398c565b888481518110610cbd57610cbd6138ea565b6020026020010181905250806001600160a01b03166306fdde036040518163ffffffff1660e01b81526004015f60405180830381865afa158015610d03573d5f5f3e3d5ffd5b505050506040513d5f823e601f3d908101601f19168201604052610d2a919081019061398c565b878481518110610d3c57610d3c6138ea565b6020026020010181905250806001600160a01b031663313ce5676040518163ffffffff1660e01b8152600401602060405180830381865afa158015610d83573d5f5f3e3d5ffd5b505050506040513d601f19601f82011682018060405250810190610da791906139bd565b868481518110610db957610db96138ea565b602002602001019060ff16908160ff1681525050611128565b808a8581518110610de557610de56138ea565b60200260200101906001600160a01b031690816001600160a01b0316815250505f819050806001600160a01b03166395d89b416040518163ffffffff1660e01b81526004015f60405180830381865afa925050508015610e6657506040513d5f823e601f3d908101601f19168201604052610e63919081019061398c565b60015b610eee57826001600160a01b03166395d89b416040518163ffffffff1660e01b81526004015f60405180830381865afa158015610ea5573d5f5f3e3d5ffd5b505050506040513d5f823e601f3d908101601f19168201604052610ecc919081019061398c565b8a8681518110610ede57610ede6138ea565b6020026020010181905250610f0e565b808b8781518110610f0157610f016138ea565b6020026020010181905250505b806001600160a01b03166306fdde036040518163ffffffff1660e01b81526004015f60405180830381865afa925050508015610f6b57506040513d5f823e601f3d908101601f19168201604052610f68919081019061398c565b60015b610ff357826001600160a01b03166306fdde036040518163ffffffff1660e01b81526004015f60405180830381865afa158015610faa573d5f5f3e3d5ffd5b505050506040513d5f823e601f3d908101601f19168201604052610fd1919081019061398c565b898681518110610fe357610fe36138ea565b6020026020010181905250611013565b808a8781518110611006576110066138ea565b6020026020010181905250505b806001600160a01b031663313ce5676040518163ffffffff1660e01b8152600401602060405180830381865afa92505050801561106d575060408051601f3d908101601f1916820190925261106a918101906139bd565b60015b6110fc57826001600160a01b031663313ce5676040518163ffffffff1660e01b8152600401602060405180830381865afa1580156110ad573d5f5f3e3d5ffd5b505050506040513d601f19601f820116820180604052508101906110d191906139bd565b8886815181106110e3576110e36138ea565b602002602001019060ff16908160ff1681525050611125565b8089878151811061110f5761110f6138ea565b602002602001019060ff16908160ff1681525050505b50505b60025460405163fc57d4df60e01b81526001600160a01b039091169063fc57d4df906111589085906004016131fd565b602060405180830381865afa158015611173573d5f5f3e3d5ffd5b505050506040513d601f19601f8201168201806040525081019061119791906138fe565b8584815181106111a9576111a96138ea565b60209081029190910101525050600101610b8f565b5050909192939495565b60605f306001600160a01b031663646121326040518163ffffffff1660e01b81526004015f60405180830381865afa158015611206573d5f5f3e3d5ffd5b505050506040513d5f823e601f3d908101601f1916820160405261122d919081019061374c565b509294505f935083925050505b825181101561128657846001600160a01b031683828151811061125f5761125f6138ea565b60200260200101516001600160a01b03160361127e5760019150611286565b60010161123a565b50806112a2575050604080515f81526020810190915292915050565b600182516112b091906139ea565b6001600160401b038111156112c7576112c76134b8565b6040519080825280602002602001820160405280156112f0578160200160208202803683370190505b5092505f805b835181101561138b57856001600160a01b031684828151811061131b5761131b6138ea565b60200260200101516001600160a01b03161461138357838181518110611343576113436138ea565b602002602001015185838151811061135d5761135d6138ea565b6001600160a01b03909216602092830291909101909101528161137f816139fd565b9250505b6001016112f6565b50505050919050565b5f5f5f6113a084610786565b90505f816001600160a01b031663ae9d70b06040518163ffffffff1660e01b8152600401602060405180830381865afa1580156113df573d5f5f3e3d5ffd5b505050506040513d601f19601f8201168201806040525081019061140391906138fe565b95600195509350505050565b611417612c38565b6114205f612c6a565b565b5f5f306001600160a01b031663646121326040518163ffffffff1660e01b81526004015f60405180830381865afa15801561145f573d5f5f3e3d5ffd5b505050506040513d5f823e601f3d908101601f19168201604052611486919081019061374c565b509294505f9350839250829150505b835181101561152257866001600160a01b03168482815181106114ba576114ba6138ea565b60200260200101516001600160a01b0316036114d557600192505b856001600160a01b03168482815181106114f1576114f16138ea565b60200260200101516001600160a01b03160361150c57600191505b8280156115165750815b61152257600101611495565b5081801561152d5750805b9695505050505050565b61153f612c38565b600280546001600160a01b0319166001600160a01b0392909216919091179055565b6060806001600160a01b03831661158a5760405162461bcd60e51b815260040161090690613a15565b83806001600160401b038111156115a3576115a36134b8565b6040519080825280602002602001820160405280156115cc578160200160208202803683370190505b509250806001600160401b038111156115e7576115e76134b8565b604051908082528060200260200182016040528015611610578160200160208202803683370190505b5091505f5b81811015611830575f878783818110611630576116306138ea565b905060200201602081019061164591906131e2565b6040516370a0823160e01b815290915081906001600160a01b038216906370a0823190611676908a906004016131fd565b602060405180830381865afa9250505080156116af575060408051601f3d908101601f191682019092526116ac918101906138fe565b60015b6116d7575f8684815181106116c6576116c66138ea565b602002602001018181525050611778565b5f826001600160a01b031663182df0f56040518163ffffffff1660e01b8152600401602060405180830381865afa158015611714573d5f5f3e3d5ffd5b505050506040513d601f19601f8201168201806040525081019061173891906138fe565b9050670de0b6b3a764000061174d8284613a5b565b6117579190613a72565b888681518110611769576117696138ea565b60200260200101818152505050505b6040516395dd919360e01b81526001600160a01b038216906395dd9193906117a4908a906004016131fd565b602060405180830381865afa9250505080156117dd575060408051601f3d908101601f191682019092526117da918101906138fe565b60015b611805575f8584815181106117f4576117f46138ea565b602002602001018181525050611826565b80868581518110611818576118186138ea565b602002602001018181525050505b5050600101611615565b5050935093915050565b611842612c38565b600180546001600160a01b0319166001600160a01b0392909216919091179055565b5f546001600160a01b031690565b60015460405163929fe9a160e01b81526001600160a01b03848116600483015283811660248301525f92169063929fe9a190604401602060405180830381865afa1580156118c2573d5f5f3e3d5ffd5b505050506040513d601f19601f820116820180604052508101906109ae9190613aa0565b60605f60015f9054906101000a90046001600160a01b03166001600160a01b031663b0772d0b6040518163ffffffff1660e01b81526004015f60405180830381865afa158015611938573d5f5f3e3d5ffd5b505050506040513d5f823e601f3d908101601f1916820160405261195f9190810190613ab9565b905080516001600160401b0381111561197a5761197a6134b8565b6040519080825280602002602001820160405280156119df57816020015b6040805160e0810182525f8082526020808301829052928201819052606082018190526080820181905260a0820181905260c082015282525f199092019101816119985790505b5091505f5b8151811015611cbf575f828281518110611a0057611a006138ea565b602002602001015190505f838381518110611a1d57611a1d6138ea565b602002602001015190505f816001600160a01b0316636f307dc36040518163ffffffff1660e01b8152600401602060405180830381865afa925050508015611a82575060408051601f3d908101601f19168201909252611a7f91810190613946565b60015b611a8d57505f611a90565b90505b60126001600160a01b03821615611b0357816001600160a01b031663313ce5676040518163ffffffff1660e01b8152600401602060405180830381865afa925050508015611afb575060408051601f3d908101601f19168201909252611af8918101906139bd565b60015b15611b035790505b60025460405163fc57d4df60e01b81525f916001600160a01b03169063fc57d4df90611b339088906004016131fd565b602060405180830381865afa925050508015611b6c575060408051601f3d908101601f19168201909252611b69918101906138fe565b60015b15611b745790505b600154604051638e8f294b60e01b81525f91829182916001600160a01b031690638e8f294b90611ba8908b906004016131fd565b606060405180830381865afa925050508015611be1575060408051601f3d908101601f19168201909252611bde91810190613b48565b60015b15611c4357829550670de0b6b3a764000082612710611c009190613a5b565b611c0a9190613a72565b94505f8115611c195781611c1b565b825b9050670de0b6b3a7640000611c3282612710613a5b565b611c3c9190613a72565b9450505050505b6040518060e00160405280876001600160a01b03168152602001896001600160a01b031681526020018581526020018381526020018281526020018660ff1681526020018415158152508b8a81518110611c9f57611c9f6138ea565b6020026020010181905250505050505050505080806001019150506119e4565b505090565b60608060605f60015f9054906101000a90046001600160a01b03166001600160a01b031663b0772d0b6040518163ffffffff1660e01b81526004015f60405180830381865afa158015611d19573d5f5f3e3d5ffd5b505050506040513d5f823e601f3d908101601f19168201604052611d409190810190613ab9565b8051909150806001600160401b03811115611d5d57611d5d6134b8565b604051908082528060200260200182016040528015611d86578160200160208202803683370190505b509450806001600160401b03811115611da157611da16134b8565b604051908082528060200260200182016040528015611dca578160200160208202803683370190505b509350806001600160401b03811115611de557611de56134b8565b604051908082528060200260200182016040528015611e0e578160200160208202803683370190505b5092505f5b81811015612022575f838281518110611e2e57611e2e6138ea565b60200260200101519050838281518110611e4a57611e4a6138ea565b60200260200101516001600160a01b0316636f307dc36040518163ffffffff1660e01b8152600401602060405180830381865afa925050508015611eab575060408051601f3d908101601f19168201909252611ea891810190613946565b60015b611ee7575f878381518110611ec257611ec26138ea565b60200260200101906001600160a01b031690816001600160a01b031681525050611f1c565b80888481518110611efa57611efa6138ea565b60200260200101906001600160a01b031690816001600160a01b031681525050505b600154604051638e8f294b60e01b81526001600160a01b0390911690638e8f294b90611f4c9084906004016131fd565b606060405180830381865afa925050508015611f85575060408051601f3d908101601f19168201909252611f8291810190613b48565b60015b1561201957670de0b6b3a7640000611f9f83612710613a5b565b611fa99190613a72565b898681518110611fbb57611fbb6138ea565b60209081029190910101525f8115611fd35781611fd5565b825b9050670de0b6b3a7640000611fec82612710613a5b565b611ff69190613a72565b898781518110612008576120086138ea565b602002602001018181525050505050505b50600101611e13565b505050909192565b600154604051632aff3bff60e21b81526060915f916001600160a01b039091169063abfceffc9061205f9086906004016131fd565b5f60405180830381865afa158015612079573d5f5f3e3d5ffd5b505050506040513d5f823e601f3d908101601f191682016040526120a09190810190613ab9565b90505f81516001600160401b038111156120bc576120bc6134b8565b6040519080825280602002602001820160405280156120e5578160200160208202803683370190505b5090505f5b825181101561213f57828181518110612105576121056138ea565b602002602001015182828151811061211f5761211f6138ea565b6001600160a01b03909216602092830291909101909101526001016120ea565b509392505050565b60605f60015f9054906101000a90046001600160a01b03166001600160a01b031663b0772d0b6040518163ffffffff1660e01b81526004015f60405180830381865afa158015612199573d5f5f3e3d5ffd5b505050506040513d5f823e601f3d908101601f191682016040526121c09190810190613ab9565b90505f81516001600160401b038111156121dc576121dc6134b8565b604051908082528060200260200182016040528015612205578160200160208202803683370190505b5090505f5b825181101561225f57828181518110612225576122256138ea565b602002602001015182828151811061223f5761223f6138ea565b6001600160a01b039092166020928302919091019091015260010161220a565b5092915050565b60606001600160a01b03821661228e5760405162461bcd60e51b815260040161090690613a15565b82806001600160401b038111156122a7576122a76134b8565b6040519080825280602002602001820160405280156122d0578160200160208202803683370190505b50604051632aff3bff60e21b81529092505f90309063abfceffc906122f99087906004016131fd565b5f60405180830381865afa158015612313573d5f5f3e3d5ffd5b505050506040513d5f823e601f3d908101601f1916820160405261233a9190810190613915565b90505f5b828110156123e8575f878783818110612359576123596138ea565b905060200201602081019061236e91906131e2565b90505f5b83518110156123de57816001600160a01b0316848281518110612397576123976138ea565b60200260200101516001600160a01b0316036123d65760018684815181106123c1576123c16138ea565b911515602092830291909101909101526123de565b600101612372565b505060010161233e565b5050509392505050565b5f5f6123fd84610786565b90505f816001600160a01b03166370a08231856040518263ffffffff1660e01b815260040161242c91906131fd565b602060405180830381865afa158015612447573d5f5f3e3d5ffd5b505050506040513d601f19601f8201168201806040525081019061246b91906138fe565b90505f826001600160a01b031663182df0f56040518163ffffffff1660e01b8152600401602060405180830381865afa1580156124aa573d5f5f3e3d5ffd5b505050506040513d601f19601f820116820180604052508101906124ce91906138fe565b9050670de0b6b3a76400006124e38284613a5b565b61152d9190613a72565b5f5f5f6124f984610786565b90505f816001600160a01b031663f8f9da286040518163ffffffff1660e01b8152600401602060405180830381865afa1580156113df573d5f5f3e3d5ffd5b5f5f61254384610786565b6040516305eff7ef60e21b81529091506001600160a01b038216906317bfdfbc906125729086906004016131fd565b6020604051808303815f875af1158015610758573d5f5f3e3d5ffd5b612596612c38565b6001600160a01b0381166125bf575f604051631e4fbdf760e01b815260040161090691906131fd565b6125c881612c6a565b50565b5f6001600160a01b0382166125e157505f610780565b6109ae82612cb9565b6060808083806001600160401b03811115612607576126076134b8565b604051908082528060200260200182016040528015612630578160200160208202803683370190505b509350806001600160401b0381111561264b5761264b6134b8565b604051908082528060200260200182016040528015612674578160200160208202803683370190505b509250806001600160401b0381111561268f5761268f6134b8565b6040519080825280602002602001820160405280156126b8578160200160208202803683370190505b5091505f5b81811015612884575f8787838181106126d8576126d86138ea565b90506020020160208101906126ed91906131e2565b90505f819050806001600160a01b031663ae9d70b06040518163ffffffff1660e01b8152600401602060405180830381865afa15801561272f573d5f5f3e3d5ffd5b505050506040513d601f19601f8201168201806040525081019061275391906138fe565b868481518110612765576127656138ea565b602002602001018181525050806001600160a01b031663f8f9da286040518163ffffffff1660e01b8152600401602060405180830381865afa1580156127ad573d5f5f3e3d5ffd5b505050506040513d601f19601f820116820180604052508101906127d191906138fe565b8584815181106127e3576127e36138ea565b602090810291909101015260025460405163fc57d4df60e01b81526001600160a01b039091169063fc57d4df9061281e9085906004016131fd565b602060405180830381865afa158015612839573d5f5f3e3d5ffd5b505050506040513d601f19601f8201168201806040525081019061285d91906138fe565b87848151811061286f5761286f6138ea565b602090810291909101015250506001016126bd565b50509250925092565b6001545f906001600160a01b03163b81036128a957505f919050565b600154604051632aff3bff60e21b81526060916001600160a01b03169063abfceffc906128da9086906004016131fd565b5f60405180830381865afa92505050801561291657506040513d5f823e601f3d908101601f191682016040526129139190810190613ab9565b60015b61292257505f92915050565b905080515f0361293457505f92915050565b5f80805b8351811015612c06575f848281518110612954576129546138ea565b602002602001015190505f858381518110612971576129716138ea565b60200260200101516001600160a01b03166370a08231896040518263ffffffff1660e01b81526004016129a491906131fd565b602060405180830381865afa9250505080156129dd575060408051601f3d908101601f191682019092526129da918101906138fe565b60015b6129e8575050612bfe565b9050805f036129f8575050612bfe565b5f868481518110612a0b57612a0b6138ea565b60200260200101516001600160a01b031663182df0f56040518163ffffffff1660e01b8152600401602060405180830381865afa925050508015612a6c575060408051601f3d908101601f19168201909252612a69918101906138fe565b60015b612a7857505050612bfe565b90505f670de0b6b3a7640000612a8e8385613a5b565b612a989190613a72565b60025460405163fc57d4df60e01b81529192505f916001600160a01b039091169063fc57d4df90612acd9088906004016131fd565b602060405180830381865afa925050508015612b06575060408051601f3d908101601f19168201909252612b03918101906138fe565b60015b612b14575050505050612bfe565b90505f670de0b6b3a7640000612b2a8385613a5b565b612b349190613a72565b9050612b40818a613b7a565b600154604051638e8f294b60e01b8152919a506001600160a01b031690638e8f294b90612b719089906004016131fd565b606060405180830381865afa925050508015612baa575060408051601f3d908101601f19168201909252612ba791810190613b48565b60015b612bb957505050505050612bfe565b5f8115612bc65781612bc8565b825b9050670de0b6b3a7640000612bdd8287613a5b565b612be79190613a72565b612bf1908d613b7a565b9b50505050505050505050505b600101612938565b50815f03612c1857505f949350505050565b81612c2582612710613a5b565b612c2f9190613a72565b95945050505050565b33612c41611864565b6001600160a01b031614611420573360405163118cdaa760e01b815260040161090691906131fd565b5f80546001600160a01b038381166001600160a01b0319831681178455604051919092169283917f8be0079c531659141344cd1fd0a4f28419497f9722a3daafe3b4186f6b6457e09190a35050565b6001545f906001600160a01b03163b8103612cd557505f919050565b600154604051632aff3bff60e21b81526060916001600160a01b03169063abfceffc90612d069086906004016131fd565b5f60405180830381865afa925050508015612d4257506040513d5f823e601f3d908101601f19168201604052612d3f9190810190613ab9565b60015b612d4e57505f92915050565b905080515f03612d6057505f92915050565b5f80805b8351811015612c06575f848281518110612d8057612d806138ea565b602002602001015190505f858381518110612d9d57612d9d6138ea565b60200260200101516001600160a01b03166370a08231896040518263ffffffff1660e01b8152600401612dd091906131fd565b602060405180830381865afa925050508015612e09575060408051601f3d908101601f19168201909252612e06918101906138fe565b60015b612e14575050613018565b9050805f03612e24575050613018565b5f868481518110612e3757612e376138ea565b60200260200101516001600160a01b031663182df0f56040518163ffffffff1660e01b8152600401602060405180830381865afa925050508015612e98575060408051601f3d908101601f19168201909252612e95918101906138fe565b60015b612ea457505050613018565b90505f670de0b6b3a7640000612eba8385613a5b565b612ec49190613a72565b60025460405163fc57d4df60e01b81529192505f916001600160a01b039091169063fc57d4df90612ef99088906004016131fd565b602060405180830381865afa925050508015612f32575060408051601f3d908101601f19168201909252612f2f918101906138fe565b60015b612f40575050505050613018565b90505f670de0b6b3a7640000612f568385613a5b565b612f609190613a72565b9050612f6c818a613b7a565b600154604051638e8f294b60e01b8152919a506001600160a01b031690638e8f294b90612f9d9089906004016131fd565b606060405180830381865afa925050508015612fd6575060408051601f3d908101601f19168201909252612fd391810190613b48565b60015b612fe557505050505050613018565b670de0b6b3a7640000612ff88386613a5b565b6130029190613a72565b61300c908c613b7a565b9a505050505050505050505b600101612d64565b6001600160a01b03811681146125c8575f5ffd5b5f5f60408385031215613045575f5ffd5b823561305081613020565b9150602083013561306081613020565b809150509250929050565b5f8151808452602084019350602083015f5b828110156130a45781516001600160a01b031686526020958601959091019060010161307d565b5093949350505050565b5f8151808452602084019350602083015f5b828110156130a45781518652602095860195909101906001016130c0565b5f82825180855260208501945060208160051b830101602085015f5b8381101561314c57601f19858403018852815180518085528060208301602087015e5f602082870101526020601f19601f830116860101945050506020820191506020880197506001810190506130fa565b50909695505050505050565b5f8151808452602084019350602083015f5b828110156130a457815160ff1686526020958601959091019060010161316a565b608081525f61319d608083018761306b565b82810360208401526131af81876130ae565b905082810360408401526131c381866130de565b905082810360608401526131d78185613158565b979650505050505050565b5f602082840312156131f2575f5ffd5b81356109ae81613020565b6001600160a01b0391909116815260200190565b60c081525f61322360c083018961306b565b8281036020840152613235818961306b565b9050828103604084015261324981886130de565b9050828103606084015261325d81876130de565b905082810360808401526132718186613158565b905082810360a084015261328581856130ae565b9998505050505050505050565b602081525f6109ae602083018461306b565b5f5f83601f8401126132b4575f5ffd5b5081356001600160401b038111156132ca575f5ffd5b6020830191508360208260051b85010111156132e4575f5ffd5b9250929050565b5f5f5f604084860312156132fd575f5ffd5b83356001600160401b03811115613312575f5ffd5b61331e868287016132a4565b909450925050602084013561333281613020565b809150509250925092565b604081525f61334f60408301856130ae565b8281036020840152612c2f81856130ae565b602080825282518282018190525f918401906040840190835b818110156133ec57835180516001600160a01b0390811685526020808301519091168186015260408083015190860152606080830151908601526080808301519086015260a08083015160ff169086015260c0918201511515918501919091529093019260e09092019160010161337a565b509095945050505050565b606081525f613409606083018661306b565b828103602084015261341b81866130ae565b9050828103604084015261152d81856130ae565b602080825282518282018190525f918401906040840190835b818110156133ec5783511515835260209384019390920191600101613448565b5f5f60208385031215613479575f5ffd5b82356001600160401b0381111561348e575f5ffd5b61349a858286016132a4565b90969095509350505050565b606081525f61340960608301866130ae565b634e487b7160e01b5f52604160045260245ffd5b604051601f8201601f191681016001600160401b03811182821017156134f4576134f46134b8565b604052919050565b5f6001600160401b03821115613514576135146134b8565b5060051b60200190565b5f82601f83011261352d575f5ffd5b815161354061353b826134fc565b6134cc565b8082825260208201915060208360051b860101925085831115613561575f5ffd5b602085015b8381101561358757805161357981613020565b835260209283019201613566565b5095945050505050565b5f82601f8301126135a0575f5ffd5b81516001600160401b038111156135b9576135b96134b8565b6135cc601f8201601f19166020016134cc565b8181528460208386010111156135e0575f5ffd5b8160208501602083015e5f918101602001919091529392505050565b5f82601f83011261360b575f5ffd5b815161361961353b826134fc565b8082825260208201915060208360051b86010192508583111561363a575f5ffd5b602085015b838110156135875780516001600160401b0381111561365c575f5ffd5b61366b886020838a0101613591565b8452506020928301920161363f565b805160ff8116811461368a575f5ffd5b919050565b5f82601f83011261369e575f5ffd5b81516136ac61353b826134fc565b8082825260208201915060208360051b8601019250858311156136cd575f5ffd5b602085015b83811015613587576136e38161367a565b8352602092830192016136d2565b5f82601f830112613700575f5ffd5b815161370e61353b826134fc565b8082825260208201915060208360051b86010192508583111561372f575f5ffd5b602085015b83811015613587578051835260209283019201613734565b5f5f5f5f5f5f60c08789031215613761575f5ffd5b86516001600160401b03811115613776575f5ffd5b61378289828a0161351e565b602089015190975090506001600160401b0381111561379f575f5ffd5b6137ab89828a0161351e565b604089015190965090506001600160401b038111156137c8575f5ffd5b6137d489828a016135fc565b606089015190955090506001600160401b038111156137f1575f5ffd5b6137fd89828a016135fc565b608089015190945090506001600160401b0381111561381a575f5ffd5b61382689828a0161368f565b60a089015190935090506001600160401b03811115613843575f5ffd5b61384f89828a016136f1565b9150509295509295509295565b604081525f61386e604083018561306b565b905060018060a01b03831660208301529392505050565b5f5f60408385031215613896575f5ffd5b82516001600160401b038111156138ab575f5ffd5b6138b7858286016136f1565b602085015190935090506001600160401b038111156138d4575f5ffd5b6138e0858286016136f1565b9150509250929050565b634e487b7160e01b5f52603260045260245ffd5b5f6020828403121561390e575f5ffd5b5051919050565b5f60208284031215613925575f5ffd5b81516001600160401b0381111561393a575f5ffd5b61077c8482850161351e565b5f60208284031215613956575f5ffd5b81516109ae81613020565b5f5f5f60608486031215613973575f5ffd5b5050815160208301516040909301519094929350919050565b5f6020828403121561399c575f5ffd5b81516001600160401b038111156139b1575f5ffd5b61077c84828501613591565b5f602082840312156139cd575f5ffd5b6109ae8261367a565b634e487b7160e01b5f52601160045260245ffd5b81810381811115610780576107806139d6565b5f60018201613a0e57613a0e6139d6565b5060010190565b60208082526026908201527f56656e7573476174657761793a207a65726f2061646472657373206e6f7420616040820152651b1b1bddd95960d21b606082015260800190565b8082028115828204841417610780576107806139d6565b5f82613a8c57634e487b7160e01b5f52601260045260245ffd5b500490565b8051801515811461368a575f5ffd5b5f60208284031215613ab0575f5ffd5b6109ae82613a91565b5f60208284031215613ac9575f5ffd5b81516001600160401b03811115613ade575f5ffd5b8201601f81018413613aee575f5ffd5b8051613afc61353b826134fc565b8082825260208201915060208360051b850101925086831115613b1d575f5ffd5b6020840193505b8284101561152d578351613b3781613020565b825260209384019390910190613b24565b5f5f5f60608486031215613b5a575f5ffd5b613b6384613a91565b602085015160409095015190969495509392505050565b80820180821115610780576107806139d656fea2646970667358221220229deceef55e685c9a0f64609fa91865762a669d35cb22e8567db86ac387512864736f6c634300081e0033",
  "devdoc": {
    "details": "Contains all read/view functions from v1, separate from write operations",
    "errors": {
      "OwnableInvalidOwner(address)": [
        {
          "details": "The owner is not a valid owner account. (eg. `address(0)`)"
        }
      ],
      "OwnableUnauthorizedAccount(address)": [
        {
          "details": "The caller account is not authorized to perform an operation."
        }
      ]
    },
    "kind": "dev",
    "methods": {
      "getCollateralFactors()": {
        "returns": {
          "assets": "Array of underlying token addresses",
          "lltvBps": "Array of liquidation threshold values in basis points",
          "ltvBps": "Array of LTV values in basis points"
        }
      },
      "getLtv(address,address)": {
        "details": "Uses collateralFactor which determines how much can be borrowed"
      },
      "getMaxLtv(address,address)": {
        "details": "Uses liquidationThreshold which is higher than LTV - the point at which liquidation occurs"
      },
      "getReserveConfigs()": {
        "details": "Returns price, LTV (collateral factor), liquidation threshold for each market",
        "returns": {
          "configs": "Array of reserve configuration data"
        }
      },
      "owner()": {
        "details": "Returns the address of the current owner."
      },
      "renounceOwnership()": {
        "details": "Leaves the contract without owner. It will not be possible to call `onlyOwner` functions. Can only be called by the current owner. NOTE: Renouncing ownership will leave the contract without an owner, thereby disabling any functionality that is only available to the owner."
      },
      "transferOwnership(address)": {
        "details": "Transfers ownership of the contract to a new account (`newOwner`). Can only be called by the current owner."
      }
    },
    "title": "VenusGatewayView",
    "version": 1
  },
  "userdoc": {
    "kind": "user",
    "methods": {
      "getCollateralFactors()": {
        "notice": "Get collateral factors for all markets (similar to Compound's getCollateralFactors)"
      },
      "getLtv(address,address)": {
        "notice": "Returns the LTV (borrowing power) for a user in basis points"
      },
      "getMaxLtv(address,address)": {
        "notice": "Returns the LLTV (liquidation threshold) for a user in basis points"
      },
      "getReserveConfigs()": {
        "notice": "Get reserve configuration data for all Venus markets (for frontend LTV calculations)"
      }
    },
    "notice": "View-only gateway for Venus protocol",
    "version": 1
  },
  "storageLayout": {
    "storage": [
      {
        "astId": 1578,
        "contract": "contracts/v2/gateways/venus/VenusGatewayView.sol:VenusGatewayView",
        "label": "_owner",
        "offset": 0,
        "slot": "0",
        "type": "t_address"
      },
      {
        "astId": 27233,
        "contract": "contracts/v2/gateways/venus/VenusGatewayView.sol:VenusGatewayView",
        "label": "comptroller",
        "offset": 0,
        "slot": "1",
        "type": "t_contract(ComptrollerInterface)4355"
      },
      {
        "astId": 27236,
        "contract": "contracts/v2/gateways/venus/VenusGatewayView.sol:VenusGatewayView",
        "label": "oracle",
        "offset": 0,
        "slot": "2",
        "type": "t_contract(ResilientOracleInterface)4375"
      }
    ],
    "types": {
      "t_address": {
        "encoding": "inplace",
        "label": "address",
        "numberOfBytes": "20"
      },
      "t_contract(ComptrollerInterface)4355": {
        "encoding": "inplace",
        "label": "contract ComptrollerInterface",
        "numberOfBytes": "20"
      },
      "t_contract(ResilientOracleInterface)4375": {
        "encoding": "inplace",
        "label": "contract ResilientOracleInterface",
        "numberOfBytes": "20"
      }
    }
  }
}