{
  "address": "0x20452a316Dc6812eb3cC2F3AF46f4553AB348E77",
  "abi": [
    {
      "inputs": [
        {
          "internalType": "address",
          "name": "router",
          "type": "address"
        },
        {
          "internalType": "address",
          "name": "_comptroller",
          "type": "address"
        }
      ],
      "stateMutability": "nonpayable",
      "type": "constructor"
    },
    {
      "inputs": [
        {
          "internalType": "address",
          "name": "target",
          "type": "address"
        }
      ],
      "name": "AddressEmptyCode",
      "type": "error"
    },
    {
      "inputs": [
        {
          "internalType": "address",
          "name": "account",
          "type": "address"
        }
      ],
      "name": "AddressInsufficientBalance",
      "type": "error"
    },
    {
      "inputs": [],
      "name": "FailedInnerCall",
      "type": "error"
    },
    {
      "inputs": [],
      "name": "ReentrancyGuardReentrantCall",
      "type": "error"
    },
    {
      "inputs": [
        {
          "internalType": "address",
          "name": "token",
          "type": "address"
        }
      ],
      "name": "SafeERC20FailedOperation",
      "type": "error"
    },
    {
      "inputs": [],
      "name": "ROUTER",
      "outputs": [
        {
          "internalType": "address",
          "name": "",
          "type": "address"
        }
      ],
      "stateMutability": "view",
      "type": "function"
    },
    {
      "inputs": [
        {
          "components": [
            {
              "internalType": "enum ProtocolTypes.LendingOp",
              "name": "op",
              "type": "uint8"
            },
            {
              "internalType": "address",
              "name": "token",
              "type": "address"
            },
            {
              "internalType": "address",
              "name": "user",
              "type": "address"
            },
            {
              "internalType": "uint256",
              "name": "amount",
              "type": "uint256"
            },
            {
              "internalType": "bytes",
              "name": "context",
              "type": "bytes"
            },
            {
              "components": [
                {
                  "internalType": "uint256",
                  "name": "index",
                  "type": "uint256"
                }
              ],
              "internalType": "struct ProtocolTypes.InputPtr",
              "name": "input",
              "type": "tuple"
            }
          ],
          "internalType": "struct ProtocolTypes.LendingInstruction[]",
          "name": "instrs",
          "type": "tuple[]"
        },
        {
          "internalType": "address",
          "name": "caller",
          "type": "address"
        },
        {
          "components": [
            {
              "internalType": "address",
              "name": "token",
              "type": "address"
            },
            {
              "internalType": "uint256",
              "name": "amount",
              "type": "uint256"
            }
          ],
          "internalType": "struct ProtocolTypes.Output[]",
          "name": "inputs",
          "type": "tuple[]"
        }
      ],
      "name": "authorize",
      "outputs": [
        {
          "internalType": "address[]",
          "name": "targets",
          "type": "address[]"
        },
        {
          "internalType": "bytes[]",
          "name": "data",
          "type": "bytes[]"
        },
        {
          "components": [
            {
              "internalType": "address",
              "name": "token",
              "type": "address"
            },
            {
              "internalType": "uint256",
              "name": "amount",
              "type": "uint256"
            }
          ],
          "internalType": "struct ProtocolTypes.Output[]",
          "name": "produced",
          "type": "tuple[]"
        }
      ],
      "stateMutability": "view",
      "type": "function"
    },
    {
      "inputs": [
        {
          "internalType": "address",
          "name": "token",
          "type": "address"
        },
        {
          "internalType": "address",
          "name": "user",
          "type": "address"
        },
        {
          "internalType": "uint256",
          "name": "amount",
          "type": "uint256"
        }
      ],
      "name": "borrow",
      "outputs": [],
      "stateMutability": "nonpayable",
      "type": "function"
    },
    {
      "inputs": [],
      "name": "comptroller",
      "outputs": [
        {
          "internalType": "contract ComptrollerInterface",
          "name": "",
          "type": "address"
        }
      ],
      "stateMutability": "view",
      "type": "function"
    },
    {
      "inputs": [
        {
          "components": [
            {
              "internalType": "enum ProtocolTypes.LendingOp",
              "name": "op",
              "type": "uint8"
            },
            {
              "internalType": "address",
              "name": "token",
              "type": "address"
            },
            {
              "internalType": "address",
              "name": "user",
              "type": "address"
            },
            {
              "internalType": "uint256",
              "name": "amount",
              "type": "uint256"
            },
            {
              "internalType": "bytes",
              "name": "context",
              "type": "bytes"
            },
            {
              "components": [
                {
                  "internalType": "uint256",
                  "name": "index",
                  "type": "uint256"
                }
              ],
              "internalType": "struct ProtocolTypes.InputPtr",
              "name": "input",
              "type": "tuple"
            }
          ],
          "internalType": "struct ProtocolTypes.LendingInstruction[]",
          "name": "instrs",
          "type": "tuple[]"
        },
        {
          "internalType": "address",
          "name": "",
          "type": "address"
        },
        {
          "components": [
            {
              "internalType": "address",
              "name": "token",
              "type": "address"
            },
            {
              "internalType": "uint256",
              "name": "amount",
              "type": "uint256"
            }
          ],
          "internalType": "struct ProtocolTypes.Output[]",
          "name": "inputs",
          "type": "tuple[]"
        }
      ],
      "name": "deauthorize",
      "outputs": [
        {
          "internalType": "address[]",
          "name": "targets",
          "type": "address[]"
        },
        {
          "internalType": "bytes[]",
          "name": "data",
          "type": "bytes[]"
        }
      ],
      "stateMutability": "view",
      "type": "function"
    },
    {
      "inputs": [
        {
          "internalType": "address",
          "name": "token",
          "type": "address"
        },
        {
          "internalType": "address",
          "name": "user",
          "type": "address"
        },
        {
          "internalType": "uint256",
          "name": "amount",
          "type": "uint256"
        }
      ],
      "name": "deposit",
      "outputs": [],
      "stateMutability": "nonpayable",
      "type": "function"
    },
    {
      "inputs": [
        {
          "components": [
            {
              "internalType": "address",
              "name": "token",
              "type": "address"
            },
            {
              "internalType": "uint256",
              "name": "amount",
              "type": "uint256"
            }
          ],
          "internalType": "struct ProtocolTypes.Output[]",
          "name": "inputs",
          "type": "tuple[]"
        },
        {
          "internalType": "bytes",
          "name": "data",
          "type": "bytes"
        }
      ],
      "name": "processLendingInstruction",
      "outputs": [
        {
          "components": [
            {
              "internalType": "address",
              "name": "token",
              "type": "address"
            },
            {
              "internalType": "uint256",
              "name": "amount",
              "type": "uint256"
            }
          ],
          "internalType": "struct ProtocolTypes.Output[]",
          "name": "outputs",
          "type": "tuple[]"
        }
      ],
      "stateMutability": "nonpayable",
      "type": "function"
    },
    {
      "inputs": [
        {
          "internalType": "address",
          "name": "token",
          "type": "address"
        },
        {
          "internalType": "address",
          "name": "user",
          "type": "address"
        },
        {
          "internalType": "uint256",
          "name": "amount",
          "type": "uint256"
        }
      ],
      "name": "repay",
      "outputs": [
        {
          "internalType": "uint256",
          "name": "refund",
          "type": "uint256"
        }
      ],
      "stateMutability": "nonpayable",
      "type": "function"
    },
    {
      "inputs": [
        {
          "internalType": "address",
          "name": "collateral",
          "type": "address"
        },
        {
          "internalType": "address",
          "name": "user",
          "type": "address"
        },
        {
          "internalType": "uint256",
          "name": "underlyingAmount",
          "type": "uint256"
        }
      ],
      "name": "withdrawCollateral",
      "outputs": [
        {
          "internalType": "address",
          "name": "",
          "type": "address"
        },
        {
          "internalType": "uint256",
          "name": "",
          "type": "uint256"
        }
      ],
      "stateMutability": "nonpayable",
      "type": "function"
    }
  ],
  "transactionHash": "0xb93a04500fa0d5573a58b94ff598c30ff49f81e9434f0a695c5236d46557429e",
  "args": [
    "0xcaA455F2afa4e1656e1f66Ab73D32F2F30a6d53e",
    "0x0C7973F9598AA62f9e03B94E92C967fD5437426C"
  ],
  "numDeployments": 21,
  "solcInputHash": "90bb2527f9efe3d2f7b3ff529bab09e6",
  "bytecode": "0x60c03461012157601f612c7338819003918201601f19168301916001600160401b0383118484101761012557808492604094855283398101031261012157610052602061004b83610139565b9201610139565b906001600160a01b038116156100f15760805260015f556001600160a01b031660a052604051612b25908161014e8239608051818181610255015281816105c60152818161068401528181610c2101528181611a8901528181611b4501528181611b890152611e5c015260a051818181610b5d01528181610e5a01528181610fbb01528181611330015281816117380152818161197201526127930152f35b60405162461bcd60e51b81526020600482015260086024820152670726f757465723d360c41b6044820152606490fd5b5f80fd5b634e487b7160e01b5f52604160045260245ffd5b51906001600160a01b03821682036101215756fe60e06040526004361015610011575f80fd5b5f3560e01c80631da649cf14611bf45780632ae8bdfe14611b7457806332fe7b2614611b305780635224372c14611a6b57806352ed587514610e895780635fe3b56714610e455780638340f54914610c0d578063aad11a3f14610a4f5763ae4be46d1461007c575f80fd5b346104e65760403660031901126104e6576004356001600160401b0381116104e6576100ac903690600401611c63565b6024356001600160401b0381116104e657366023820112156104e65780600401356001600160401b0381116104e657810191602483013681116104e6576060926020818603126104e65760248101356001600160401b0381116104e65701938490039460c086126104e6576040519260c084018481106001600160401b03821117610433576040526024860135600a8110156104e657845261015060448701611c15565b926020850193845261016460648801611c15565b95604086019687528501976084880135895260a48801356001600160401b0381116104e6576024908901019180601f840112156104e65782356101a681612746565b916101b4604051938461214e565b818352602082860101116104e6576020815f928280970183860137830101526080870152609f1901126104e6576040519560208701908782106001600160401b038311176104335760c4916040520135865260a084019286845260018060a01b0390511696519551818110610a1c575b505050508051600a8110156109f457158015610a08575b156105965750516001600160a01b03908116919061027c907f0000000000000000000000000000000000000000000000000000000000000000163314611e10565b610284612761565b61028d8361277f565b6001600160a01b03909316926102a582303387612972565b60405163095ea7b360e01b815260018060a01b038216948560048301525f60248301526020826044815f855af19081156104765761031f93602093869361057b575b5060405163095ea7b360e01b81526001600160a01b0390911660048201526024810192909252909283919082905f9082906044820190565b03925af180156104765761055e575b506040519063140e25ad60e31b825260048201526020816024815f875af1908115610476575f9161052c575b506104f2576040516370a0823160e01b8152306004820152602081602481865afa908115610476575f916104bc575b5080156104815760405163a9059cbb60e01b81526001600160a01b03929092166004830152602482015290602090829060449082905f905af1801561047657610447575b5060015f5560405160206103e1818361214e565b5f8252601f19015f5b81811061041057505061040c905b604051918291602083526020830190611dc8565b0390f35b60209060405161041f81612133565b5f81525f83820152828286010152016103ea565b634e487b7160e01b5f52604160045260245ffd5b6104689060203d60201161046f575b610460818361214e565b81019061216f565b505f6103cd565b503d610456565b6040513d5f823e3d90fd5b60405162461bcd60e51b815260206004820152601360248201527256656e75733a207a65726f2076546f6b656e7360681b6044820152606490fd5b90506020813d6020116104ea575b816104d76020938361214e565b810103126104e657515f610389565b5f80fd5b3d91506104ca565b60405162461bcd60e51b815260206004820152601260248201527115995b9d5cce881b5a5b9d0819985a5b195960721b6044820152606490fd5b90506020813d602011610556575b816105476020938361214e565b810103126104e657515f61035a565b3d915061053a565b6105769060203d60201161046f57610460818361214e565b61032e565b61059190853d871161046f57610460818361214e565b6102e7565b8093929351600a8110156109f45760020361065257505161040c926106059290916001600160a01b0390811691907f00000000000000000000000000000000000000000000000000000000000000001633148015610649575b6105f890612194565b610600612761565b612261565b9060015f556106126126d9565b916040519161062083612133565b6001600160a01b03168252602082015261063982612725565b5261064381612725565b506103f8565b503382146105ef565b8093919351600a8110156109f4576003036107d3575091519091906107039060209083906001600160a01b03908116907f000000000000000000000000000000000000000000000000000000000000000016331480156107ca575b6106b690612194565b6106be612761565b6001600160a01b036106cf8761277f565b16905f60405180968195829463856e5bb360e01b84526004840160209093929193604081019460018060a01b031681520152565b03925af1908115610476575f91610798575b5061075c5761040c916001600160a01b03166107328233836129c5565b60015f5561073e6126d9565b916040519161074c83612133565b8252602082015261063982612725565b60405162461bcd60e51b815260206004820152601460248201527315995b9d5cce88189bdc9c9bddc819985a5b195960621b6044820152606490fd5b90506020813d6020116107c2575b816107b36020938361214e565b810103126104e657515f610715565b3d91506107a6565b503381146106ad565b8051600a8110156109f4576004036108085750915161040c926107ff916001600160a01b031683611e53565b906106126126d9565b80915051600a8110156109f4576005036108ad57505f9160209060246001600160a01b036108358561277f565b92516040516305eff7ef60e21b81526001600160a01b0390911660048201529586938492165af1908115610476575f91610877575b61040c92506106126126d9565b90506020823d6020116108a5575b816108926020938361214e565b810103126104e65761040c91519061086a565b3d9150610885565b51600a8110156109f4576006036109bb576001600160a01b036108cf8261277f565b92516040516370a0823160e01b81526001600160a01b0390911660048201529216602083602481845afa928315610476575f93610986575b509160206004936040519485809263182df0f560e01b82525afa928315610476575f93610950575b5061094661040c93670de0b6b3a764000092612223565b04906106126126d9565b92506020833d60201161097e575b8161096b6020938361214e565b810103126104e65791519161094661092f565b3d915061095e565b92506020833d6020116109b3575b816109a16020938361214e565b810103126104e6579151916020610907565b3d9150610994565b60405162461bcd60e51b8152602060048201526011602482015270056656e75733a20756e6b6e6f776e206f7607c1b6044820152606490fd5b634e487b7160e01b5f52602160045260245ffd5b508051600a8110156109f45760011461023b565b610a439397506020949650610a35610a3a918385612637565b612623565b96515191612637565b0135915f808080610224565b346104e657610a5d36611c93565b91509192610a6a8461265e565b92610a7485612690565b945f5b818110610aa857610a9a8661040c89604051938493604085526040850190611d1c565b908382036020850152611d58565b610ab38183866125df565b90610ac060208301612623565b9160a0810135878110610bf5575b503591600a8310156104e65760019260028103610b4b5750610aef9061277f565b610af98289612732565b90838060a01b0316905260405163095ea7b360e01b60208201523060248201525f604482015260448152610b2e60648261214e565b610b38828a612732565b52610b438189612732565b505b01610a77565b600314159050610bce57818060a01b037f000000000000000000000000000000000000000000000000000000000000000016610b878289612732565b5260405163ddbf54fd60e01b60208201523060248201525f604482015260448152610bb360648261214e565b610bbd828a612732565b52610bc88189612732565b50610b45565b5f610bd98289612732565b52604051610be860208261214e565b5f8152610bbd828a612732565b610c06919350610a35908887612637565b9189610ace565b346104e657610c1b36611c29565b610c4f337f00000000000000000000000000000000000000000000000000000000000000006001600160a01b031614611e10565b610c57612761565b610c608361277f565b6001600160a01b0390931692610c7882303387612972565b60405163095ea7b360e01b815260018060a01b038216948560048301525f60248301526020826044815f855af190811561047657610cf193602093869361057b575060405163095ea7b360e01b81526001600160a01b0390911660048201526024810192909252909283919082905f9082906044820190565b03925af1801561047657610e28575b506040519063140e25ad60e31b825260048201526020816024815f875af1908115610476575f91610df6575b506104f2576040516370a0823160e01b8152306004820152602081602481865afa908115610476575f91610dc4575b5080156104815760405163a9059cbb60e01b81526001600160a01b03929092166004830152602482015290602090829060449082905f905af1801561047657610da5575b60015f55005b610dbd9060203d60201161046f57610460818361214e565b5080610d9f565b90506020813d602011610dee575b81610ddf6020938361214e565b810103126104e6575183610d5b565b3d9150610dd2565b90506020813d602011610e20575b81610e116020938361214e565b810103126104e6575183610d2c565b3d9150610e04565b610e409060203d60201161046f57610460818361214e565b610d00565b346104e6575f3660031901126104e6576040517f00000000000000000000000000000000000000000000000000000000000000006001600160a01b03168152602090f35b346104e657610e9736611c93565b9193925f5f5f5b838110611683575080610eb3610ebb9261265e565b60a052612690565b608052610ed8610eca82612647565b60405160c05260c05161214e565b60c051819052601f1990610eeb90612647565b015f5b81811061165e5750505f925f915f5b818110610f4157604051606081528061040c610f31610f216060840160a051611d1c565b8381036020850152608051611d58565b828103604084015260c051611dc8565b610f4c8183896125df565b610f5860208201612623565b9060608101359060a0810135868110611636575b508035600a8110156104e6575f8115801561162a575b156110d05750505050610f949061277f565b60405163929fe9a160e01b81526001600160a01b038a8116600483015282811660248301527f00000000000000000000000000000000000000000000000000000000000000001690602081604481855afa5f91816110b0575b506110ab57505f5b15611007575b50506001905b01610efd565b966110766110846110a3936001959a604090815192611026838561214e565b888452601f19830136602086013761103d84612725565b90898060a01b031690526110538660a051612732565b5251928391631853304760e31b6020840152602060248401526044830190611d1c565b03601f19810183528261214e565b61109082608051612732565b5261109d81608051612732565b50612615565b959089610ffb565b610ff5565b6110c991925060203d811161046f57610460818361214e565b908c610fed565b9794976104e657600481036111245750505060019161111e91604051906110f682612133565b848060a01b031681525f60208201526111118260c051612732565b5261109d8160c051612732565b93611001565b6002810361130157506001600160a01b0390506111408361277f565b1660405163182df0f560e01b8152602081600481855afa908115610476575f916112d0575b508261127b57505f19905b604051636eb1769f60e11b81526001600160a01b038d166004820152306024820152602081604481855afa908115610476575f9161124a575b508284159185611240575b50506111ec575b50509161111e91600193604051916111d283612133565b858060a01b0316825260208201526111118260c051612732565b8961107661108461111e96946112359461120c60019a989f60a051612732565b5260405163095ea7b360e01b602082015230602482015260448101919091529182906064820190565b9891938193506111bb565b109050828e6111b4565b90506020813d8211611273575b816112646020938361214e565b810103126104e657518d6111a9565b3d9150611257565b670de0b6b3a76400008302838104670de0b6b3a7640000036112bc57816112a191612236565b5f198101919082116112bc576112b691612243565b90611170565b634e487b7160e01b5f52601160045260245ffd5b90506020813d82116112f9575b816112ea6020938361214e565b810103126104e657518c611165565b3d91506112dd565b600381036113fe575050604051630217306760e31b81526001600160a01b038b811660048301523060248301527f000000000000000000000000000000000000000000000000000000000000000016905f90602081604481865afa5f91816113de575b506113d6575b5015611387575b509161111e91600193604051916111d283612133565b916113cc8961111e946113a0600197959c60a051612732565b5260405163ddbf54fd60e01b60208201523060248201526044808201889052815261108460648261214e565b9891935091611371565b90508c61136a565b6113f791925060203d811161046f57610460818361214e565b908e611364565b9092939150600581145f146114de5750602061142e60406001600160a01b036114268761277f565b169401612623565b6040516395dd919360e01b81526001600160a01b03909116600482015292839060249082905afa918215610476575f926114ab575b506103e98202918083046103e914901517156112bc576001926103e861111e936040519261149084612133565b868060a01b031683520460208201526111118260c051612732565b9091506020813d82116114d6575b816114c66020938361214e565b810103126104e65751908a611463565b3d91506114b9565b90959291906006146114f5575b5050600190611001565b9194909161151760406001600160a01b0361150f8661277f565b169201612623565b6040516370a0823160e01b81526001600160a01b03909116600482015290602082602481845afa918215610476575f926115f6575b5060206004916040519283809263182df0f560e01b82525afa908115610476575f916115bd575b5061158790670de0b6b3a764000092612223565b04906103e98202918083046103e914901517156112bc576001926103e86115b5936040519261149084612133565b9390896114eb565b90506020813d82116115ee575b816115d76020938361214e565b810103126104e65751670de0b6b3a7640000611573565b3d91506115ca565b9091506020813d8211611622575b816116116020938361214e565b810103126104e6575190602061154c565b3d9150611604565b50505f60018214610f82565b92509050602061165561164d610a3585898c612637565b93878a612637565b0135908b610f6c565b60209060405161166d81612133565b5f81525f83820152828260c05101015201610eee565b61168e8185896125df565b8035600a8110156104e6575f9060028114808015611a5e575b8015611a4d575b8015611a3c575b8015611a2b575b611a1b575b6116cd60208501612623565b9260a060608601359501358b8b8183106119ef575b5050506104e6575f821580156119e3575b156117b557505050611705915061277f565b60405163929fe9a160e01b81526001600160a01b038a8116600483015291821660248201525f91602090829060449082907f0000000000000000000000000000000000000000000000000000000000000000165afa5f9181611795575b5061178d575b5015611779575b6001905b01610e9e565b90611785600191612615565b91905061176f565b905089611768565b6117ae91925060203d811161046f57610460818361214e565b908b611762565b6104e6571561192f57506001600160a01b03906117d19061277f565b1660405163182df0f560e01b8152602081600481855afa908115610476575f916118fe575b5082159283156118b757505061183f60208b5f19935b604051636eb1769f60e11b81526001600160a01b0390921660048301523060248301529092839190829081906044820190565b03915afa908115610476575f91611886575b50821561187c575b5050611868575b600190611773565b90611874600191612615565b919050611860565b1090508980611859565b90506020813d82116118af575b816118a06020938361214e565b810103126104e657518b611851565b3d9150611893565b670de0b6b3a76400008102908104670de0b6b3a7640000036112bc57816118dd91612236565b5f1981019081116112bc578b6118f861183f93602093612243565b9361180c565b90506020813d8211611927575b816119186020938361214e565b810103126104e657518b6117f6565b3d915061190b565b9050600391501461194257600190611773565b604051630217306760e31b81526001600160a01b03891660048201523060248201525f90602081806044810103817f00000000000000000000000000000000000000000000000000000000000000006001600160a01b03165afa5f91816119c3575b506119bb575b506118605790611874600191612615565b9050896119aa565b6119dc91925060203d811161046f57610460818361214e565b908b6119a4565b50505f600183146116f3565b602093975082611a10939750611a0892610a3592612637565b948c8c612637565b0135938d8b8b6116e2565b95611a2590612615565b956116c1565b50916104e6575f91600682146116bc565b50916104e6575f91600582146116b5565b50916104e6575f91600482146116ae565b505f9250600382146116a7565b346104e6576020611ac1611a7e36611c29565b9193919291908390337f00000000000000000000000000000000000000000000000000000000000000006001600160a01b0316148015611b1e576106b690612194565b03925af1908115610476575f91611aec575b5061075c57610d9f9133906001600160a01b03166129c5565b90506020813d602011611b16575b81611b076020938361214e565b810103126104e6575183611ad3565b3d9150611afa565b50336001600160a01b038216146106ad565b346104e6575f3660031901126104e6576040517f00000000000000000000000000000000000000000000000000000000000000006001600160a01b03168152602090f35b346104e657611bc1611b8536611c29565b91337f00000000000000000000000000000000000000000000000000000000000000006001600160a01b0316148015611be2576105f890612194565b60015f55604080516001600160a01b03939093168352602083019190915290f35b50336001600160a01b038316146105ef565b346104e6576020611c0d611c0736611c29565b91611e53565b604051908152f35b35906001600160a01b03821682036104e657565b60609060031901126104e6576004356001600160a01b03811681036104e657906024356001600160a01b03811681036104e6579060443590565b9181601f840112156104e6578235916001600160401b0383116104e6576020808501948460061b0101116104e657565b9060606003198301126104e657600435916001600160401b0383116104e657806023840112156104e6578260040135926001600160401b0384116104e6578160248560051b830101116104e6576024908101939290356001600160a01b03811681036104e65791604435906001600160401b0382116104e657611d1891600401611c63565b9091565b90602080835192838152019201905f5b818110611d395750505090565b82516001600160a01b0316845260209384019390920191600101611d2c565b9080602083519182815201916020808360051b8301019401925f915b838310611d8357505050505090565b909192939460208080600193601f19868203018752818a518051918291828552018484015e5f828201840152601f01601f191601019701959491909101920190611d74565b90602080835192838152019201905f5b818110611de55750505090565b825180516001600160a01b031685526020908101518186015260409094019390920191600101611dd8565b15611e1757565b60405162461bcd60e51b815260206004820152601460248201527313db9b1e481c9bdd5d195c8818d85b8818d85b1b60621b6044820152606490fd5b909190611e8a337f00000000000000000000000000000000000000000000000000000000000000006001600160a01b031614611e10565b611e92612761565b611e9b8161277f565b6040516370a0823160e01b81523060048201526001600160a01b03909216939192909190602084602481885afa938415610476575f946120ff575b50611ee381303388612972565b60405163095ea7b360e01b815260018060a01b038416908160048201525f60248201526020816044815f8b5af1801561047657611f569560209285926120e4575b5060405163095ea7b360e01b81526001600160a01b039091166004820152602481019190915294859081906044820190565b03815f8a5af192831561047657611fa7946020946120c9575b506040516304c11f0360e31b81526001600160a01b0390911660048201526024810192909252909283919082905f9082906044820190565b03925af1908115610476575f91612097575b5061205c576040516370a0823160e01b815230600482015290602082602481865afa918215610476575f92612028575b508082111561201f57611ffb91612187565b905b818061200d575b505060015f5590565b6120189133906129c5565b5f81612004565b50505f90611ffd565b9091506020813d602011612054575b816120446020938361214e565b810103126104e65751905f611fe9565b3d9150612037565b60405162461bcd60e51b815260206004820152601360248201527215995b9d5cce881c995c185e4819985a5b1959606a1b6044820152606490fd5b90506020813d6020116120c1575b816120b26020938361214e565b810103126104e657515f611fb9565b3d91506120a5565b6120df90853d871161046f57610460818361214e565b611f6f565b6120fa90843d861161046f57610460818361214e565b611f24565b9093506020813d60201161212b575b8161211b6020938361214e565b810103126104e65751925f611ed6565b3d915061210e565b604081019081106001600160401b0382111761043357604052565b90601f801991011681019081106001600160401b0382111761043357604052565b908160209103126104e6575180151581036104e65790565b919082039182116112bc57565b1561219b57565b60405162461bcd60e51b815260206004820152601c60248201527f4f6e6c7920726f75746572206f722073656c662063616e2063616c6c000000006044820152606490fd5b156121e757565b60405162461bcd60e51b815260206004820152601460248201527315995b9d5cce881c995919595b4819985a5b195960621b6044820152606490fd5b818102929181159184041417156112bc57565b919082018092116112bc57565b811561224d570490565b634e487b7160e01b5f52601260045260245ffd5b919291906001600160a01b036122768361277f565b6040516305eff7ef60e21b81526001600160a01b038416600482018190529190921695916020816024815f8b5af1908115610476575f916125ad575b50821015612513575060405163bd6d894d60e01b8152906020826004815f8a5af1918215610476575f926124df575b50670de0b6b3a7640000810290808204670de0b6b3a764000014901517156112bc578161230d91612236565b5f198101919082116112bc5761232860209161235f93612243565b6040516323b872dd60e01b81526001600160a01b039094166004850152306024850152604484018190529291829081906064820190565b03815f895af18015610476576124c2575b506040516370a0823160e01b81523060048201526001600160a01b038316949091602083602481895afa928315610476575f9361248e575b505f916024602092604051948593849263db006a7560e01b845260048401525af18015610476575f9061245a575b6123e19150156121e0565b6040516370a0823160e01b8152306004820152602081602481885afa908115610476575f91612426575b506124229161241991612187565b809433906129c5565b9190565b90506020813d602011612452575b816124416020938361214e565b810103126104e6575161242261240b565b3d9150612434565b506020813d602011612486575b816124746020938361214e565b810103126104e6576123e190516123d6565b3d9150612467565b9092506020813d6020116124ba575b816124aa6020938361214e565b810103126104e65751915f6123a8565b3d915061249d565b6124da9060203d60201161046f57610460818361214e565b612370565b9091506020813d60201161250b575b816124fb6020938361214e565b810103126104e65751905f6122e1565b3d91506124ee565b919050604051916370a0823160e01b83526004830152602082602481885afa918215610476575f92612578575b506040516323b872dd60e01b81526001600160a01b03909116600482015230602482015260448101829052602081806064810161235f565b9091506020813d6020116125a5575b816125946020938361214e565b810103126104e65751906020612540565b3d9150612587565b90506020813d6020116125d7575b816125c86020938361214e565b810103126104e657515f6122b2565b3d91506125bb565b91908110156126015760051b8101359060be19813603018212156104e6570190565b634e487b7160e01b5f52603260045260245ffd5b5f1981146112bc5760010190565b356001600160a01b03811681036104e65790565b91908110156126015760061b0190565b6001600160401b0381116104335760051b60200190565b9061266882612647565b612675604051918261214e565b8281528092612686601f1991612647565b0190602036910137565b9061269a82612647565b6126a7604051918261214e565b82815280926126b8601f1991612647565b01905f5b8281106126c857505050565b8060606020809385010152016126bc565b604080519091906126ea838261214e565b6001815291601f1901825f5b82811061270257505050565b60209060405161271181612133565b5f81525f83820152828285010152016126f6565b8051156126015760200190565b80518210156126015760209160051b010190565b6001600160401b03811161043357601f01601f191660200190565b60025f54146127705760025f55565b633ee5aeb560e01b5f5260045ffd5b60405163b0772d0b60e01b81525f816004817f00000000000000000000000000000000000000000000000000000000000000006001600160a01b03165afa908115610476575f916128d1575b505f5b815181101561288c57600460206001600160a01b036127ed8486612732565b511660405192838092636f307dc360e01b82525afa5f9181612849575b50612819575b506001016127ce565b6001600160a01b03848116911614612831575f612810565b6001600160a01b03925061284491612732565b511690565b9091506020813d8211612884575b816128646020938361214e565b810103126104e657516001600160a01b03811681036104e657905f61280a565b3d9150612857565b60405162461bcd60e51b815260206004820152601760248201527f56656e75733a2076546f6b656e206e6f7420666f756e640000000000000000006044820152606490fd5b90503d805f833e6128e2818361214e565b8101906020818303126104e6578051906001600160401b0382116104e657019080601f830112156104e65781519061291982612647565b92612927604051948561214e565b82845260208085019360051b8201019182116104e657602001915b818310612952575050505f6127cb565b82516001600160a01b03811681036104e657815260209283019201612942565b6040516323b872dd60e01b60208201526001600160a01b03928316602482015292909116604483015260648201929092526129c3916129be82608481015b03601f19810184528361214e565b6129fe565b565b60405163a9059cbb60e01b60208201526001600160a01b03909216602483015260448201929092526129c3916129be82606481016129b0565b5f80612a469260018060a01b03169360208151910182865af13d15612a89573d90612a2882612746565b91612a36604051938461214e565b82523d5f602084013e5b83612a91565b8051908115159182612a6e575b5050612a5c5750565b635274afe760e01b5f5260045260245ffd5b612a81925060208091830101910161216f565b155f80612a53565b606090612a40565b90612ab55750805115612aa657805190602001fd5b630a12f52160e11b5f5260045ffd5b81511580612ae6575b612ac6575090565b639996b31560e01b5f9081526001600160a01b0391909116600452602490fd5b50803b15612abe56fea264697066735822122026a22025cbc578377c327181e25189cf5021ca2665ec43707d76cd811ccb725564736f6c634300081e0033",
  "devdoc": {
    "errors": {
      "AddressEmptyCode(address)": [
        {
          "details": "There's no code at `target` (it is not a contract)."
        }
      ],
      "AddressInsufficientBalance(address)": [
        {
          "details": "The ETH balance of the account is not enough to perform the operation."
        }
      ],
      "FailedInnerCall()": [
        {
          "details": "A call to an address target failed. The target may have reverted."
        }
      ],
      "ReentrancyGuardReentrantCall()": [
        {
          "details": "Unauthorized reentrant call."
        }
      ],
      "SafeERC20FailedOperation(address)": [
        {
          "details": "An operation with an ERC20 token failed."
        }
      ]
    },
    "kind": "dev",
    "methods": {},
    "version": 1
  },
  "userdoc": {
    "kind": "user",
    "methods": {
      "ROUTER()": {
        "notice": "Immutable router address that can call protected functions"
      },
      "authorize((uint8,address,address,uint256,bytes,(uint256))[],address,(address,uint256)[])": {
        "notice": "Return user-side authorization calls for the given lending instructions.         One element per input (or (address(0), bytes(\"\")) if none needed).         Also returns the produced outputs from the simulation of these instructions."
      }
    },
    "version": 1
  },
  "storageLayout": {
    "storage": [
      {
        "astId": 2947,
        "contract": "contracts/v2/gateways/venus/VenusGatewayWrite.sol:VenusGatewayWrite",
        "label": "_status",
        "offset": 0,
        "slot": "0",
        "type": "t_uint256"
      }
    ],
    "types": {
      "t_uint256": {
        "encoding": "inplace",
        "label": "uint256",
        "numberOfBytes": "32"
      }
    }
  }
}