{
  "address": "0x67B02273a2C5C656c79DF6577baE1e7D94595b71",
  "abi": [
    {
      "inputs": [
        {
          "internalType": "address",
          "name": "_comptroller",
          "type": "address"
        },
        {
          "internalType": "address",
          "name": "_oracle",
          "type": "address"
        },
        {
          "internalType": "address",
          "name": "owner_",
          "type": "address"
        }
      ],
      "stateMutability": "nonpayable",
      "type": "constructor"
    },
    {
      "inputs": [
        {
          "internalType": "address",
          "name": "owner",
          "type": "address"
        }
      ],
      "name": "OwnableInvalidOwner",
      "type": "error"
    },
    {
      "inputs": [
        {
          "internalType": "address",
          "name": "account",
          "type": "address"
        }
      ],
      "name": "OwnableUnauthorizedAccount",
      "type": "error"
    },
    {
      "anonymous": false,
      "inputs": [
        {
          "indexed": true,
          "internalType": "address",
          "name": "previousOwner",
          "type": "address"
        },
        {
          "indexed": true,
          "internalType": "address",
          "name": "newOwner",
          "type": "address"
        }
      ],
      "name": "OwnershipTransferred",
      "type": "event"
    },
    {
      "inputs": [
        {
          "internalType": "address",
          "name": "account",
          "type": "address"
        },
        {
          "internalType": "address",
          "name": "vToken",
          "type": "address"
        }
      ],
      "name": "checkMembership",
      "outputs": [
        {
          "internalType": "bool",
          "name": "",
          "type": "bool"
        }
      ],
      "stateMutability": "view",
      "type": "function"
    },
    {
      "inputs": [],
      "name": "comptroller",
      "outputs": [
        {
          "internalType": "contract ComptrollerInterface",
          "name": "",
          "type": "address"
        }
      ],
      "stateMutability": "view",
      "type": "function"
    },
    {
      "inputs": [
        {
          "internalType": "address",
          "name": "account",
          "type": "address"
        }
      ],
      "name": "getAccountLiquidity",
      "outputs": [
        {
          "internalType": "uint256",
          "name": "",
          "type": "uint256"
        },
        {
          "internalType": "uint256",
          "name": "",
          "type": "uint256"
        },
        {
          "internalType": "uint256",
          "name": "",
          "type": "uint256"
        }
      ],
      "stateMutability": "view",
      "type": "function"
    },
    {
      "inputs": [],
      "name": "getAllMarkets",
      "outputs": [
        {
          "internalType": "address[]",
          "name": "",
          "type": "address[]"
        }
      ],
      "stateMutability": "view",
      "type": "function"
    },
    {
      "inputs": [],
      "name": "getAllVenusMarkets",
      "outputs": [
        {
          "internalType": "address[]",
          "name": "vTokens",
          "type": "address[]"
        },
        {
          "internalType": "address[]",
          "name": "tokens",
          "type": "address[]"
        },
        {
          "internalType": "string[]",
          "name": "symbols",
          "type": "string[]"
        },
        {
          "internalType": "string[]",
          "name": "names",
          "type": "string[]"
        },
        {
          "internalType": "uint8[]",
          "name": "decimals",
          "type": "uint8[]"
        },
        {
          "internalType": "uint256[]",
          "name": "prices",
          "type": "uint256[]"
        }
      ],
      "stateMutability": "view",
      "type": "function"
    },
    {
      "inputs": [
        {
          "internalType": "address",
          "name": "account",
          "type": "address"
        }
      ],
      "name": "getAssetsIn",
      "outputs": [
        {
          "internalType": "address[]",
          "name": "",
          "type": "address[]"
        }
      ],
      "stateMutability": "view",
      "type": "function"
    },
    {
      "inputs": [
        {
          "internalType": "address",
          "name": "token",
          "type": "address"
        },
        {
          "internalType": "address",
          "name": "user",
          "type": "address"
        }
      ],
      "name": "getBalance",
      "outputs": [
        {
          "internalType": "uint256",
          "name": "",
          "type": "uint256"
        }
      ],
      "stateMutability": "view",
      "type": "function"
    },
    {
      "inputs": [
        {
          "internalType": "address",
          "name": "token",
          "type": "address"
        },
        {
          "internalType": "address",
          "name": "user",
          "type": "address"
        }
      ],
      "name": "getBorrowBalance",
      "outputs": [
        {
          "internalType": "uint256",
          "name": "",
          "type": "uint256"
        }
      ],
      "stateMutability": "view",
      "type": "function"
    },
    {
      "inputs": [
        {
          "internalType": "address",
          "name": "token",
          "type": "address"
        },
        {
          "internalType": "address",
          "name": "user",
          "type": "address"
        }
      ],
      "name": "getBorrowBalanceCurrent",
      "outputs": [
        {
          "internalType": "uint256",
          "name": "",
          "type": "uint256"
        }
      ],
      "stateMutability": "nonpayable",
      "type": "function"
    },
    {
      "inputs": [
        {
          "internalType": "address",
          "name": "token",
          "type": "address"
        }
      ],
      "name": "getBorrowRate",
      "outputs": [
        {
          "internalType": "uint256",
          "name": "",
          "type": "uint256"
        },
        {
          "internalType": "bool",
          "name": "",
          "type": "bool"
        }
      ],
      "stateMutability": "view",
      "type": "function"
    },
    {
      "inputs": [],
      "name": "getCollateralFactors",
      "outputs": [
        {
          "internalType": "address[]",
          "name": "assets",
          "type": "address[]"
        },
        {
          "internalType": "uint256[]",
          "name": "ltvBps",
          "type": "uint256[]"
        },
        {
          "internalType": "uint256[]",
          "name": "lltvBps",
          "type": "uint256[]"
        }
      ],
      "stateMutability": "view",
      "type": "function"
    },
    {
      "inputs": [
        {
          "internalType": "address[]",
          "name": "vTokens",
          "type": "address[]"
        },
        {
          "internalType": "address",
          "name": "account",
          "type": "address"
        }
      ],
      "name": "getCollateralStatus",
      "outputs": [
        {
          "internalType": "bool[]",
          "name": "isCollateral",
          "type": "bool[]"
        }
      ],
      "stateMutability": "view",
      "type": "function"
    },
    {
      "inputs": [
        {
          "internalType": "address",
          "name": "",
          "type": "address"
        },
        {
          "internalType": "address",
          "name": "user",
          "type": "address"
        }
      ],
      "name": "getLtv",
      "outputs": [
        {
          "internalType": "uint256",
          "name": "result",
          "type": "uint256"
        }
      ],
      "stateMutability": "view",
      "type": "function"
    },
    {
      "inputs": [
        {
          "internalType": "address[]",
          "name": "vTokens",
          "type": "address[]"
        }
      ],
      "name": "getMarketRates",
      "outputs": [
        {
          "internalType": "uint256[]",
          "name": "prices",
          "type": "uint256[]"
        },
        {
          "internalType": "uint256[]",
          "name": "supplyRates",
          "type": "uint256[]"
        },
        {
          "internalType": "uint256[]",
          "name": "borrowRates",
          "type": "uint256[]"
        }
      ],
      "stateMutability": "view",
      "type": "function"
    },
    {
      "inputs": [
        {
          "internalType": "address",
          "name": "",
          "type": "address"
        },
        {
          "internalType": "address",
          "name": "user",
          "type": "address"
        }
      ],
      "name": "getMaxLtv",
      "outputs": [
        {
          "internalType": "uint256",
          "name": "result",
          "type": "uint256"
        }
      ],
      "stateMutability": "view",
      "type": "function"
    },
    {
      "inputs": [
        {
          "internalType": "address",
          "name": "token",
          "type": "address"
        },
        {
          "internalType": "address",
          "name": "user",
          "type": "address"
        }
      ],
      "name": "getPossibleCollaterals",
      "outputs": [
        {
          "internalType": "address[]",
          "name": "collateralAddresses",
          "type": "address[]"
        },
        {
          "internalType": "uint256[]",
          "name": "balances",
          "type": "uint256[]"
        },
        {
          "internalType": "string[]",
          "name": "symbols",
          "type": "string[]"
        },
        {
          "internalType": "uint8[]",
          "name": "decimals",
          "type": "uint8[]"
        }
      ],
      "stateMutability": "view",
      "type": "function"
    },
    {
      "inputs": [],
      "name": "getReserveConfigs",
      "outputs": [
        {
          "components": [
            {
              "internalType": "address",
              "name": "token",
              "type": "address"
            },
            {
              "internalType": "address",
              "name": "vToken",
              "type": "address"
            },
            {
              "internalType": "uint256",
              "name": "price",
              "type": "uint256"
            },
            {
              "internalType": "uint256",
              "name": "ltv",
              "type": "uint256"
            },
            {
              "internalType": "uint256",
              "name": "liquidationThreshold",
              "type": "uint256"
            },
            {
              "internalType": "uint8",
              "name": "decimals",
              "type": "uint8"
            },
            {
              "internalType": "bool",
              "name": "isListed",
              "type": "bool"
            }
          ],
          "internalType": "struct VenusGatewayView.ReserveConfigData[]",
          "name": "configs",
          "type": "tuple[]"
        }
      ],
      "stateMutability": "view",
      "type": "function"
    },
    {
      "inputs": [
        {
          "internalType": "address",
          "name": "token",
          "type": "address"
        }
      ],
      "name": "getSupplyRate",
      "outputs": [
        {
          "internalType": "uint256",
          "name": "",
          "type": "uint256"
        },
        {
          "internalType": "bool",
          "name": "",
          "type": "bool"
        }
      ],
      "stateMutability": "view",
      "type": "function"
    },
    {
      "inputs": [
        {
          "internalType": "address",
          "name": "market",
          "type": "address"
        }
      ],
      "name": "getSupportedCollaterals",
      "outputs": [
        {
          "internalType": "address[]",
          "name": "collateralAddresses",
          "type": "address[]"
        }
      ],
      "stateMutability": "view",
      "type": "function"
    },
    {
      "inputs": [
        {
          "internalType": "address[]",
          "name": "vTokens",
          "type": "address[]"
        },
        {
          "internalType": "address",
          "name": "account",
          "type": "address"
        }
      ],
      "name": "getUserBalances",
      "outputs": [
        {
          "internalType": "uint256[]",
          "name": "balances",
          "type": "uint256[]"
        },
        {
          "internalType": "uint256[]",
          "name": "borrowBalances",
          "type": "uint256[]"
        }
      ],
      "stateMutability": "view",
      "type": "function"
    },
    {
      "inputs": [
        {
          "internalType": "address",
          "name": "underlyingToken",
          "type": "address"
        }
      ],
      "name": "getVTokenForUnderlying",
      "outputs": [
        {
          "internalType": "address",
          "name": "",
          "type": "address"
        }
      ],
      "stateMutability": "view",
      "type": "function"
    },
    {
      "inputs": [
        {
          "internalType": "address",
          "name": "market",
          "type": "address"
        },
        {
          "internalType": "address",
          "name": "collateral",
          "type": "address"
        }
      ],
      "name": "isCollateralSupported",
      "outputs": [
        {
          "internalType": "bool",
          "name": "isSupported",
          "type": "bool"
        }
      ],
      "stateMutability": "view",
      "type": "function"
    },
    {
      "inputs": [],
      "name": "oracle",
      "outputs": [
        {
          "internalType": "contract ResilientOracleInterface",
          "name": "",
          "type": "address"
        }
      ],
      "stateMutability": "view",
      "type": "function"
    },
    {
      "inputs": [],
      "name": "owner",
      "outputs": [
        {
          "internalType": "address",
          "name": "",
          "type": "address"
        }
      ],
      "stateMutability": "view",
      "type": "function"
    },
    {
      "inputs": [],
      "name": "renounceOwnership",
      "outputs": [],
      "stateMutability": "nonpayable",
      "type": "function"
    },
    {
      "inputs": [
        {
          "internalType": "address",
          "name": "_comptroller",
          "type": "address"
        }
      ],
      "name": "setComptroller",
      "outputs": [],
      "stateMutability": "nonpayable",
      "type": "function"
    },
    {
      "inputs": [
        {
          "internalType": "address",
          "name": "_oracle",
          "type": "address"
        }
      ],
      "name": "setOracle",
      "outputs": [],
      "stateMutability": "nonpayable",
      "type": "function"
    },
    {
      "inputs": [
        {
          "internalType": "address",
          "name": "newOwner",
          "type": "address"
        }
      ],
      "name": "transferOwnership",
      "outputs": [],
      "stateMutability": "nonpayable",
      "type": "function"
    }
  ],
  "transactionHash": "0x1072c0334bb5c2ce0dd5c450f24d6855f2bfef31ae19dc5d2f3d89407f82be8e",
  "args": [
    "0x0C7973F9598AA62f9e03B94E92C967fD5437426C",
    "0xcBBf58bD5bAdE357b634419B70b215D5E9d6FbeD",
    "0x0BE61223F99E57b8b8B7033a77B54Adc7f7cF027"
  ],
  "numDeployments": 16,
  "solcInputHash": "f724000c8ca0bde35f5f203f4f0813bc",
  "bytecode": "0x60803461010757601f612fc038819003918201601f19168301916001600160401b0383118484101761010b57808492606094604052833981010312610107576100478161011f565b906100546020820161011f565b906001600160a01b039061006a9060400161011f565b169182156100f4575f80546001600160a01b031981168517825560405194916001600160a01b03909116907f8be0079c531659141344cd1fd0a4f28419497f9722a3daafe3b4186f6b6457e09080a3600180546001600160a01b039283166001600160a01b03199182161790915560028054939092169216919091179055612e8c90816101348239f35b631e4fbdf760e01b5f525f60045260245ffd5b5f80fd5b634e487b7160e01b5f52604160045260245ffd5b51906001600160a01b03821682036101075756fe6080806040526004361015610012575f80fd5b5f3560e01c908163104e999d14611c3f57508063118e31b714611bcb5780632b7be8e814611b9b5780635ec88c7914611aed5780635fe3b56714611ac557806362fd6add14611a99578063646121321461151d57806366e2d09b146114e55780636b5441a91461148a578063715018a61461143357806378466113146113195780637adbf973146112d65780637dc0d1d0146112ae57806381906b80146110ae5780638bad38dd1461106b5780638da5cb5b14611044578063929fe9a114610f9957806398f7ad4114610b865780639d7ec6c214610940578063abfceffc14610893578063b0772d0b146107d9578063bad1935014610665578063d4fac45d1461054b578063d71275f6146104b8578063e94201c71461040e578063f2fde38b14610389578063f5125d3f146103555763f639ecd214610150575f80fd5b346102dc5760203660031901126102dc576004356001600160401b0381116102dc57610180903690600401611f94565b61018981612345565b9061019381612345565b9261019d82612345565b60025490926001600160a01b03909116915f5b8281106101f7576101d7866101f3876101e58b604051958695606087526060870190611ebb565b908582036020870152611ebb565b908382036040850152611ebb565b0390f35b6001600160a01b0361021261020d83868661272f565b61273f565b1690604051630ae9d70b60e41b8152602081600481865afa9081156102e8575f91610324575b50610243828a6123c0565b52604051631f1f3b4560e31b8152602081600481865afa9081156102e8575f916102f3575b5061027382886123c0565b526040519163fc57d4df60e01b83526004830152602082602481885afa80156102e8575f906102b2575b600192506102ab82896123c0565b52016101b0565b506020823d82116102e0575b816102cb60209383612035565b810103126102dc576001915161029d565b5f80fd5b3d91506102be565b6040513d5f823e3d90fd5b90506020813d821161031c575b8161030d60209383612035565b810103126102dc57515f610268565b3d9150610300565b90506020813d821161034d575b8161033e60209383612035565b810103126102dc57515f610238565b3d9150610331565b346102dc5760403660031901126102dc5761036e611e53565b50602061038161037c611e69565b61283d565b604051908152f35b346102dc5760203660031901126102dc576103a2611e53565b6103aa612b77565b6001600160a01b031680156103fb575f80546001600160a01b03198116831782556001600160a01b0316907f8be0079c531659141344cd1fd0a4f28419497f9722a3daafe3b4186f6b6457e09080a3005b631e4fbdf760e01b5f525f60045260245ffd5b346102dc5760403660031901126102dc575f602061042a611e53565b6024610434611e69565b916001600160a01b03906104479061240d565b6040516305eff7ef60e21b81526001600160a01b039094166004850152929485938492165af180156102e8575f90610485575b602090604051908152f35b506020813d6020116104b0575b8161049f60209383612035565b810103126102dc576020905161047a565b3d9150610492565b346102dc5760203660031901126102dc57600460206001600160a01b036104e56104e0611e53565b61240d565b1660405192838092631f1f3b4560e31b82525afa9081156102e8575f91610519575b50604080519182526001602083015290f35b90506020813d602011610543575b8161053460209383612035565b810103126102dc575181610507565b3d9150610527565b346102dc5760403660031901126102dc57610564611e53565b61056c611e69565b906001600160a01b039061057f9061240d565b6040516370a0823160e01b81526001600160a01b03909316600484015216602082602481845afa9182156102e8575f92610630575b509060206004926040519384809263182df0f560e01b82525afa9182156102e8575f926105fa575b6020670de0b6b3a76400006105f18585612753565b04604051908152f35b91506020823d602011610628575b8161061560209383612035565b810103126102dc579051906105f16105dc565b3d9150610608565b91506020823d60201161065d575b8161064b60209383612035565b810103126102dc5790519060206105b4565b3d915061063e565b346102dc5761067336611fc4565b6001600160a01b03166106878115156126d4565b61069082612056565b9261069e6040519485612035565b8284526106aa83612056565b602085019390601f190136853760405192632aff3bff60e21b845260048401525f83602481305afa9283156102e8575f936107b5575b505f949394929192905b808210610737578585604051918291602083019060208452518091526040830191905f5b81811061071c575050500390f35b8251151584528594506020938401939092019160010161070e565b9461074b61020d838887959798969861272f565b6001600160a01b0316915f5b86518110156107a657836001600160a01b03610773838a6123c0565b51161461078257600101610757565b509295915093928060016107978193896123c0565b525b01909493949291926106ea565b50929591509392600190610799565b6107d29193503d805f833e6107ca8183612035565b8101906123e8565b91856106e0565b346102dc575f3660031901126102dc5760015460405163b0772d0b60e01b8152905f90829060049082906001600160a01b03165afa9081156102e8575f91610871575b506108278151612345565b905f5b815181101561085b576001906001600160a01b0361084882856123c0565b511661085482866123c0565b520161082a565b604051602080825281906101f390820186611e7f565b61088d91503d805f833e6108858183612035565b810190612791565b8161081c565b346102dc5760203660031901126102dc576108ac611e53565b600154604051632aff3bff60e21b81526001600160a01b039283166004820152915f9183916024918391165afa9081156102e8575f91610926575b506108f28151612345565b905f5b815181101561085b576001906001600160a01b0361091382856123c0565b511661091f82866123c0565b52016108f5565b61093a91503d805f833e6108858183612035565b816108e7565b346102dc575f3660031901126102dc5760015460405163b0772d0b60e01b8152906001600160a01b03165f82600481845afa9182156102e8575f92610b6a575b5081519061098d82612345565b9161099781612345565b916109a182612345565b945f5b8381106109cb576101d7866101f3896101e589604051958695606087526060870190611e7f565b6001600160a01b036109dd82846123c0565b5116600460206001600160a01b036109f585876123c0565b511660405192838092636f307dc360e01b82525afa5f9181610b2f575b50610b1357505f610a2383896123c0565b525b60405190638e8f294b60e01b82526004820152606081602481875afa805f925f92610add575b50610a5b575b50506001016109a4565b61271082028281046127101483151715610ac157670de0b6b3a76400009004610a8484896123c0565b5280610ad55750905b6127108202918083046127101490151715610ac157670de0b6b3a764000060019204610ab9828a6123c0565b529088610a51565b634e487b7160e01b5f52601160045260245ffd5b905090610a8d565b909250610b01915060603d8111610b0c575b610af98183612035565b81019061281b565b92915091908a610a4b565b503d610aef565b610b1d83896123c0565b6001600160a01b039091169052610a25565b9091506020813d8211610b62575b81610b4a60209383612035565b810103126102dc57610b5b9061206d565b908a610a12565b3d9150610b3d565b610b7f9192503d805f833e6108858183612035565b9082610980565b346102dc575f3660031901126102dc5760015460405163b0772d0b60e01b8152906001600160a01b03165f82600481845afa9182156102e8575f92610f7d575b508151610bd281612056565b90610be06040519283612035565b808252610bef601f1991612056565b015f5b818110610f3c5750506002546001600160a01b0316915f5b8451811015610ea5576001600160a01b03610c2582876123c0565b511690600460206001600160a01b03610c3e848a6123c0565b511660405192838092636f307dc360e01b82525afa5f9181610e6a575b50610e6457505f915b6012926001600160a01b03169081610df7575b5f9360405163fc57d4df60e01b81528260048201526020816024818c5afa5f9181610dc4575b50610dbc575b505f915f5f91604051638e8f294b60e01b81528160048201526060816024818d5afa5f815f935f93610d95575b50610d2e575b5050509060019760ff94939260405197610cef89612006565b885260208801526040870152606086015260808501521660a0830152151560c0820152610d1c82866123c0565b52610d2781856123c0565b5001610c0a565b92935094935094509361271081028181046127101482151715610ac157670de0b6b3a764000090049380610d8d5750925b6127108402938085046127101490151715610ac1579192670de0b6b3a7640000900491908760ff6001610cd6565b905092610d5f565b91509250610db1915060603d8111610b0c57610af98183612035565b92919092915f610cd0565b945089610ca3565b9091506020813d8211610def575b81610ddf60209383612035565b810103126102dc5751908b610c9d565b3d9150610dd2565b60405163313ce56760e01b8152602081600481865afa5f9181610e29575b50610e21575b50610c77565b935088610e1b565b9091506020813d8211610e5c575b81610e4460209383612035565b810103126102dc57610e55906121b9565b908a610e15565b3d9150610e37565b91610c64565b9091506020813d8211610e9d575b81610e8560209383612035565b810103126102dc57610e969061206d565b9088610c5b565b3d9150610e78565b826040518091602082016020835281518091526020604084019201905f5b818110610ed1575050500390f35b91935091602060e060019260c08751858060a01b038151168352858060a01b0385820151168584015260408101516040840152606081015160608401526080810151608084015260ff60a08201511660a08401520151151560c0820152019401910191849392610ec3565b602090604051610f4b81612006565b5f81525f838201525f60408201525f60608201525f60808201525f60a08201525f60c082015282828601015201610bf2565b610f929192503d805f833e6108858183612035565b9082610bc6565b346102dc5760403660031901126102dc57610fb2611e53565b6020610fbc611e69565b60015460405163929fe9a160e01b81526001600160a01b0394851660048201529184166024830152909283916044918391165afa80156102e8575f9061100a575b6020906040519015158152f35b506020813d60201161103c575b8161102460209383612035565b810103126102dc57611037602091612784565b610ffd565b3d9150611017565b346102dc575f3660031901126102dc575f546040516001600160a01b039091168152602090f35b346102dc5760203660031901126102dc57611084611e53565b61108c612b77565b600180546001600160a01b0319166001600160a01b0392909216919091179055005b346102dc576110bc36611fc4565b9091906001600160a01b03166110d38115156126d4565b6110dc83612345565b916110e684612345565b915f5b85811061111a5761110c856101f386604051938493604085526040850190611ebb565b908382036020850152611ebb565b6001600160a01b0361113061020d83898761272f565b16906040516370a0823160e01b8152836004820152602081602481865afa5f918161127b575b506111ef575060206024925f61116c848a6123c0565b525b604051938480926395dd919360e01b82528760048301525afa805f916111bb575b600193506111ab57505f6111a382876123c0565b525b016110e9565b6111b582876123c0565b526111a5565b90506020833d82116111e7575b816111d560209383612035565b810103126102dc57600192519061118f565b3d91506111c8565b60405163182df0f560e01b815290602082600481875afa9182156102e8575f9261123e575b5092670de0b6b3a764000061122d602093602496612753565b04611238848a6123c0565b5261116e565b9150926020823d8211611273575b8161125960209383612035565b810103126102dc5790519092670de0b6b3a7640000611214565b3d915061124c565b9091506020813d82116112a6575b8161129660209383612035565b810103126102dc57519089611156565b3d9150611289565b346102dc575f3660031901126102dc576002546040516001600160a01b039091168152602090f35b346102dc5760203660031901126102dc576112ef611e53565b6112f7612b77565b600280546001600160a01b0319166001600160a01b0392909216919091179055005b346102dc5760403660031901126102dc57611332611e53565b61133a611e69565b604051633230909960e11b81525f81600481305afa9081156102e8575f9161140b575b506001600160a01b03928316925f928392911690825b81518110156113ff57856001600160a01b0361138f83856123c0565b5116146113f6575b826001600160a01b036113aa83856123c0565b5116146113ed575b84806113e6575b6113c557600101611373565b505050602092505b816113de575b506040519015158152f35b9050826113d3565b50836113b9565b600193506113b2565b60019450611397565b505050602092506113cd565b61142791503d805f833e61141f8183612035565b810190612224565b5050505090508361135d565b346102dc575f3660031901126102dc5761144b612b77565b5f80546001600160a01b0319811682556001600160a01b03167f8be0079c531659141344cd1fd0a4f28419497f9722a3daafe3b4186f6b6457e08280a3005b346102dc5760203660031901126102dc57600460206001600160a01b036114b26104e0611e53565b1660405192838092630ae9d70b60e41b82525afa9081156102e8575f916105195750604080519182526001602083015290f35b346102dc5760203660031901126102dc576101f3611509611504611e53565b61259c565b604051918291602083526020830190611e7f565b346102dc575f3660031901126102dc5760405163b0772d0b60e01b81525f81600481305afa9081156102e8575f91611a7f575b5080519061155d82612345565b9161156781612377565b9261157182612377565b9361157b83612345565b9161158584612345565b60025490946001600160a01b03909116905f5b818110611611576115cb886101f3896116038a6115f58f6115e78d6115d98e6040519b8c9b60c08d5260c08d0190611e7f565b908b820360208d0152611e7f565b9089820360408b0152611eee565b908782036060890152611eee565b908582036080870152611f5e565b9083820360a0850152611ebb565b6001600160a01b03611623828a6123c0565b511690604051636f307dc360e01b8152602081600481865afa5f9181611a44575b506117e557505f61165582876123c0565b526040516395d89b4160e01b81525f81600481865afa9081156102e8575f916117cb575b5061168482886123c0565b5261168f81876123c0565b506040516306fdde0360e01b81525f81600481865afa9081156102e8575f916117a9575b506116be828c6123c0565b526116c9818b6123c0565b5060405163313ce56760e01b8152602081600481865afa9081156102e8575f91611770575b5060ff6116fb838a6123c0565b911690525b6040519163fc57d4df60e01b83526004830152602082602481875afa80156102e8575f9061173e575b60019250611737828a6123c0565b5201611598565b506020823d8211611768575b8161175760209383612035565b810103126102dc5760019151611729565b3d915061174a565b90506020813d82116117a1575b8161178a60209383612035565b810103126102dc5761179b906121b9565b8b6116ee565b3d915061177d565b6117c591503d805f833e6117bd8183612035565b810190612577565b8b6116b3565b6117df91503d805f833e6117bd8183612035565b8b611679565b6117ef82876123c0565b6001600160a01b03909116908190526040516395d89b4160e01b81525f81600481855afa5f9181611a28575b50611a0d57506040516395d89b4160e01b81525f81600481875afa9081156102e8575f916119f3575b5061184f83896123c0565b5261185a82886123c0565b505b818b6040516306fdde0360e01b81525f81600481875afa5f91816119d7575b506119bc5750506040516306fdde0360e01b81529190505f82600481875afa9081156102e8576118c4848e6020946004965f916119a2575b506118be83836123c0565b526123c0565b505b60405163313ce56760e01b815292839182905afa5f9181611967575b5061195b575060405163313ce56760e01b8152602081600481865afa9081156102e8575f91611922575b5060ff611919838a6123c0565b91169052611700565b90506020813d8211611953575b8161193c60209383612035565b810103126102dc5761194d906121b9565b8b61190c565b3d915061192f565b60ff611919838a6123c0565b9091506020813d821161199a575b8161198260209383612035565b810103126102dc57611993906121b9565b908c6118e2565b3d9150611975565b6119b691503d805f833e6117bd8183612035565b5f6118b3565b82826119d1926118be602096600498966123c0565b506118c6565b6119ec9192503d805f833e6117bd8183612035565b908f61187b565b611a0791503d805f833e6117bd8183612035565b8c611844565b611a1783896123c0565b52611a2282886123c0565b5061185c565b611a3d9192503d805f833e6117bd8183612035565b908d61181b565b9091506020813d8211611a77575b81611a5f60209383612035565b810103126102dc57611a709061206d565b908c611644565b3d9150611a52565b611a9391503d805f833e6107ca8183612035565b81611550565b346102dc5760403660031901126102dc57611ab2611e53565b506020610381611ac0611e69565b61255a565b346102dc575f3660031901126102dc576001546040516001600160a01b039091168152602090f35b346102dc5760203660031901126102dc57611b06611e53565b600154604051635ec88c7960e01b81526001600160a01b0392831660048201529160609183916024918391165afa80156102e8575f905f5f91611b5a575b6060935060405192835260208301526040820152f35b5050506060813d606011611b93575b81611b7660609383612035565b810103126102dc5780516020820151604090920151606092611b44565b3d9150611b69565b346102dc5760203660031901126102dc576020611bb96104e0611e53565b6040516001600160a01b039091168152f35b346102dc5760403660031901126102dc57611be4611e53565b6020611bee611e69565b916001600160a01b0390611c019061240d565b6040516395dd919360e01b81526001600160a01b03909416600485015283916024918391165afa80156102e8575f9061048557602090604051908152f35b346102dc5760403660031901126102dc57611c58611e53565b50611c61611e69565b633230909960e11b8252905f81600481305afa80156102e8575f905f925f905f92611e2e575b50611c928451612345565b90611c9d8551612377565b91611ca88651612345565b94611cb38751612345565b976001600160a01b03169081611d81575b50505f5b8651811015611d33576001906001600160a01b03611ce6828a6123c0565b5116611cf282856123c0565b52611cfd81856123c0565b51611d0882876123c0565b52611d1381866123c0565b5060ff611d2082886123c0565b5116611d2c82896123c0565b5201611cc8565b611d57826101f388611d7388611d658e604051978897608089526080890190611e7f565b908782036020890152611ebb565b908582036040870152611eee565b908382036060850152611f5e565b5f91929850611dad90604051938492839263010320d760e71b8452604060048501526044840190611e7f565b9060248301520381305afa9081156102e8575f91611dcf575b50958780611cc4565b90503d805f833e611de08183612035565b8101906040818303126102dc5780516001600160401b0381116102dc5782611e099183016121c7565b9160208201516001600160401b0381116102dc57611e2792016121c7565b5087611dc6565b92505050611e4691503d805f833e61141f8183612035565b5091939050919285611c87565b600435906001600160a01b03821682036102dc57565b602435906001600160a01b03821682036102dc57565b90602080835192838152019201905f5b818110611e9c5750505090565b82516001600160a01b0316845260209384019390920191600101611e8f565b90602080835192838152019201905f5b818110611ed85750505090565b8251845260209384019390920191600101611ecb565b9080602083519182815201916020808360051b8301019401925f915b838310611f1957505050505090565b909192939460208080600193601f19868203018752818a518051918291828552018484015e5f828201840152601f01601f191601019701959491909101920190611f0a565b90602080835192838152019201905f5b818110611f7b5750505090565b825160ff16845260209384019390920191600101611f6e565b9181601f840112156102dc578235916001600160401b0383116102dc576020808501948460051b0101116102dc57565b60406003198201126102dc57600435906001600160401b0382116102dc57611fee91600401611f94565b90916024356001600160a01b03811681036102dc5790565b60e081019081106001600160401b0382111761202157604052565b634e487b7160e01b5f52604160045260245ffd5b90601f801991011681019081106001600160401b0382111761202157604052565b6001600160401b0381116120215760051b60200190565b51906001600160a01b03821682036102dc57565b9080601f830112156102dc57815161209881612056565b926120a66040519485612035565b81845260208085019260051b8201019283116102dc57602001905b8282106120ce5750505090565b602080916120db8461206d565b8152019101906120c1565b81601f820112156102dc578051906001600160401b038211612021576040519261211a601f8401601f191660200185612035565b828452602083830101116102dc57815f9260208093018386015e8301015290565b9080601f830112156102dc57815161215281612056565b926121606040519485612035565b81845260208085019260051b820101918383116102dc5760208201905b83821061218c57505050505090565b81516001600160401b0381116102dc576020916121ae878480948801016120e6565b81520191019061217d565b519060ff821682036102dc57565b9080601f830112156102dc5781516121de81612056565b926121ec6040519485612035565b81845260208085019260051b8201019283116102dc57602001905b8282106122145750505090565b8151815260209182019101612207565b9160c0838303126102dc5782516001600160401b0381116102dc578261224b918501612081565b9260208101516001600160401b0381116102dc578361226b918301612081565b9260408201516001600160401b0381116102dc578161228b91840161213b565b9260608301516001600160401b0381116102dc57826122ab91850161213b565b9260808101516001600160401b0381116102dc57810183601f820112156102dc578051906122d882612056565b916122e66040519384612035565b80835260208084019160051b830101918683116102dc57602001905b82821061232d575050509260a08201516001600160401b0381116102dc5761232a92016121c7565b90565b6020809161233a846121b9565b815201910190612302565b9061234f82612056565b61235c6040519182612035565b828152809261236d601f1991612056565b0190602036910137565b9061238182612056565b61238e6040519182612035565b828152809261239f601f1991612056565b01905f5b8281106123af57505050565b8060606020809385010152016123a3565b80518210156123d45760209160051b010190565b634e487b7160e01b5f52603260045260245ffd5b906020828203126102dc5781516001600160401b0381116102dc5761232a9201612081565b60405163b0772d0b60e01b8152905f82600481305afa9182156102e8575f9261253e575b505f5b82518110156124dd576001600160a01b0361244f82856123c0565b5116604051636f307dc360e01b8152602081600481855afa5f91816124a2575b506124805750506001905b01612434565b6001600160a01b0384811691161461249b575060019061247a565b9250505090565b9091506020813d82116124d5575b816124bd60209383612035565b810103126102dc576124ce9061206d565b905f61246f565b3d91506124b0565b60405162461bcd60e51b815260206004820152603360248201527f56656e7573476174657761793a2076546f6b656e206e6f7420666f756e64206660448201527237b9103ab73232b9363cb4b733903a37b5b2b760691b6064820152608490fd5b6125539192503d805f833e6107ca8183612035565b905f612431565b6001600160a01b038116156125725761232a90612862565b505f90565b906020828203126102dc5781516001600160401b0381116102dc5761232a92016120e6565b604051633230909960e11b815290915f82600481305afa9182156102e8575f926126b2575b505f915f5b81518110156126aa576001600160a01b036125e182846123c0565b51166001600160a01b038616146125fa576001016125c6565b5090915060015b1561268f5780515f198101908111610ac15761261c90612345565b905f935f5b8251811015612687576001600160a01b0361263c82856123c0565b51166001600160a01b03831603612656575b600101612621565b946001600160a01b0361266987856123c0565b511661267582866123c0565b525f198114610ac1576001019461264e565b509193505050565b5090506040516126a0602082612035565b5f81525f36813790565b509091612601565b6126c79192503d805f833e61141f8183612035565b505050509050905f6125c1565b156126db57565b60405162461bcd60e51b815260206004820152602660248201527f56656e7573476174657761793a207a65726f2061646472657373206e6f7420616044820152651b1b1bddd95960d21b6064820152608490fd5b91908110156123d45760051b0190565b356001600160a01b03811681036102dc5790565b81810292918115918404141715610ac157565b8115612770570490565b634e487b7160e01b5f52601260045260245ffd5b519081151582036102dc57565b6020818303126102dc578051906001600160401b0382116102dc57019080601f830112156102dc578151906127c582612056565b926127d36040519485612035565b82845260208085019360051b8201019182116102dc57602001915b8183106127fb5750505090565b82516001600160a01b03811681036102dc578152602092830192016127ee565b908160609103126102dc5761282f81612784565b916040602083015192015190565b6001600160a01b038116156125725761232a90612b9d565b91908201809211610ac157565b6001546001600160a01b0316803b15612b4d57604051632aff3bff60e21b81526001600160a01b0390921660048301819052915f81602481855afa5f9181612b5b575b506128b1575050505f90565b92835115612b5357915f915f915f9060018060a01b0360025416915b8751811015612b22576001600160a01b036128e8828a6123c0565b5116602460206001600160a01b03612900858d6123c0565b5116604051928380926370a0823160e01b82528860048301525afa5f9181612aef575b506129345750506001905b016128cd565b8015612ae557600460206001600160a01b03612950868e6123c0565b51166040519283809263182df0f560e01b82525afa5f9181612ab2575b5061297d5750505060019061292e565b670de0b6b3a7640000916129919190612753565b0460405163fc57d4df60e01b8152826004820152602081602481895afa5f9181612a7f575b506129c65750505060019061292e565b6129e06129e892670de0b6b3a7640000929a949a90612753565b048092612855565b9660405190638e8f294b60e01b82526004820152606081602481895afa805f925f92612a59575b50612a1f5750505060019061292e565b612a44612a4b936001959993670de0b6b3a76400009380155f14612a51575090612753565b0490612855565b9461292e565b905090612753565b909250612a74915060603d8111610b0c57610af98183612035565b92915091905f612a0f565b9091506020813d8211612aaa575b81612a9a60209383612035565b810103126102dc5751905f6129b6565b3d9150612a8d565b9091506020813d8211612add575b81612acd60209383612035565b810103126102dc5751905f61296d565b3d9150612ac0565b505060019061292e565b9091506020813d8211612b1a575b81612b0a60209383612035565b810103126102dc5751905f612923565b3d9150612afd565b505050509192508015612b4d576127108202918083046127101490151715610ac15761232a91612766565b50505f90565b925050505f90565b612b709192503d805f833e6108858183612035565b905f6128a5565b5f546001600160a01b03163303612b8a57565b63118cdaa760e01b5f523360045260245ffd5b6001546001600160a01b0316803b15612b4d57604051632aff3bff60e21b81526001600160a01b0390921660048301819052915f81602481855afa5f9181612e3a575b50612bec575050505f90565b92835115612b5357915f915f915f9060018060a01b0360025416915b8751811015612b22576001600160a01b03612c23828a6123c0565b5116602460206001600160a01b03612c3b858d6123c0565b5116604051928380926370a0823160e01b82528860048301525afa5f9181612e07575b50612c6f5750506001905b01612c08565b8015612dfd57600460206001600160a01b03612c8b868e6123c0565b51166040519283809263182df0f560e01b82525afa5f9181612dca575b50612cb857505050600190612c69565b670de0b6b3a764000091612ccc9190612753565b0460405163fc57d4df60e01b8152826004820152602081602481895afa5f9181612d97575b50612d0157505050600190612c69565b612d18612d2092670de0b6b3a76400009290612753565b048098612855565b9660405191638e8f294b60e01b83526004830152606082602481895afa5f9281612d74575b50612d54575050600190612c69565b95670de0b6b3a7640000612a44612d6e9360019599612753565b94612c69565b612d8d91935060603d8111610b0c57610af98183612035565b509050915f612d45565b9091506020813d8211612dc2575b81612db260209383612035565b810103126102dc5751905f612cf1565b3d9150612da5565b9091506020813d8211612df5575b81612de560209383612035565b810103126102dc5751905f612ca8565b3d9150612dd8565b5050600190612c69565b9091506020813d8211612e32575b81612e2260209383612035565b810103126102dc5751905f612c5e565b3d9150612e15565b612e4f9192503d805f833e6108858183612035565b905f612be056fea26469706673582212200d17a53ad279b87454e88f200044abaa2c9b1184efd2c9dc6e326315ed20859464736f6c634300081e0033",
  "devdoc": {
    "details": "Contains all read/view functions from v1, separate from write operations",
    "errors": {
      "OwnableInvalidOwner(address)": [
        {
          "details": "The owner is not a valid owner account. (eg. `address(0)`)"
        }
      ],
      "OwnableUnauthorizedAccount(address)": [
        {
          "details": "The caller account is not authorized to perform an operation."
        }
      ]
    },
    "kind": "dev",
    "methods": {
      "getCollateralFactors()": {
        "returns": {
          "assets": "Array of underlying token addresses",
          "lltvBps": "Array of liquidation threshold values in basis points",
          "ltvBps": "Array of LTV values in basis points"
        }
      },
      "getLtv(address,address)": {
        "details": "Uses collateralFactor which determines how much can be borrowed"
      },
      "getMaxLtv(address,address)": {
        "details": "Uses liquidationThreshold which is higher than LTV - the point at which liquidation occurs"
      },
      "getReserveConfigs()": {
        "details": "Returns price, LTV (collateral factor), liquidation threshold for each market",
        "returns": {
          "configs": "Array of reserve configuration data"
        }
      },
      "owner()": {
        "details": "Returns the address of the current owner."
      },
      "renounceOwnership()": {
        "details": "Leaves the contract without owner. It will not be possible to call `onlyOwner` functions. Can only be called by the current owner. NOTE: Renouncing ownership will leave the contract without an owner, thereby disabling any functionality that is only available to the owner."
      },
      "transferOwnership(address)": {
        "details": "Transfers ownership of the contract to a new account (`newOwner`). Can only be called by the current owner."
      }
    },
    "title": "VenusGatewayView",
    "version": 1
  },
  "userdoc": {
    "kind": "user",
    "methods": {
      "getCollateralFactors()": {
        "notice": "Get collateral factors for all markets (similar to Compound's getCollateralFactors)"
      },
      "getLtv(address,address)": {
        "notice": "Returns the LTV (borrowing power) for a user in basis points"
      },
      "getMaxLtv(address,address)": {
        "notice": "Returns the LLTV (liquidation threshold) for a user in basis points"
      },
      "getReserveConfigs()": {
        "notice": "Get reserve configuration data for all Venus markets (for frontend LTV calculations)"
      }
    },
    "notice": "View-only gateway for Venus protocol",
    "version": 1
  },
  "storageLayout": {
    "storage": [
      {
        "astId": 8,
        "contract": "contracts/v2/gateways/venus/VenusGatewayView.sol:VenusGatewayView",
        "label": "_owner",
        "offset": 0,
        "slot": "0",
        "type": "t_address"
      },
      {
        "astId": 804,
        "contract": "contracts/v2/gateways/venus/VenusGatewayView.sol:VenusGatewayView",
        "label": "comptroller",
        "offset": 0,
        "slot": "1",
        "type": "t_contract(ComptrollerInterface)471"
      },
      {
        "astId": 807,
        "contract": "contracts/v2/gateways/venus/VenusGatewayView.sol:VenusGatewayView",
        "label": "oracle",
        "offset": 0,
        "slot": "2",
        "type": "t_contract(ResilientOracleInterface)491"
      }
    ],
    "types": {
      "t_address": {
        "encoding": "inplace",
        "label": "address",
        "numberOfBytes": "20"
      },
      "t_contract(ComptrollerInterface)471": {
        "encoding": "inplace",
        "label": "contract ComptrollerInterface",
        "numberOfBytes": "20"
      },
      "t_contract(ResilientOracleInterface)491": {
        "encoding": "inplace",
        "label": "contract ResilientOracleInterface",
        "numberOfBytes": "20"
      }
    }
  }
}