{
  "address": "0x5799BAb782d4E89bAd0C42B47718f9cfE6f61645",
  "abi": [
    {
      "inputs": [
        {
          "internalType": "address",
          "name": "_comptroller",
          "type": "address"
        },
        {
          "internalType": "address",
          "name": "_oracle",
          "type": "address"
        },
        {
          "internalType": "address",
          "name": "owner_",
          "type": "address"
        }
      ],
      "stateMutability": "nonpayable",
      "type": "constructor"
    },
    {
      "inputs": [
        {
          "internalType": "address",
          "name": "owner",
          "type": "address"
        }
      ],
      "name": "OwnableInvalidOwner",
      "type": "error"
    },
    {
      "inputs": [
        {
          "internalType": "address",
          "name": "account",
          "type": "address"
        }
      ],
      "name": "OwnableUnauthorizedAccount",
      "type": "error"
    },
    {
      "anonymous": false,
      "inputs": [
        {
          "indexed": true,
          "internalType": "address",
          "name": "previousOwner",
          "type": "address"
        },
        {
          "indexed": true,
          "internalType": "address",
          "name": "newOwner",
          "type": "address"
        }
      ],
      "name": "OwnershipTransferred",
      "type": "event"
    },
    {
      "inputs": [
        {
          "internalType": "address",
          "name": "account",
          "type": "address"
        },
        {
          "internalType": "address",
          "name": "vToken",
          "type": "address"
        }
      ],
      "name": "checkMembership",
      "outputs": [
        {
          "internalType": "bool",
          "name": "",
          "type": "bool"
        }
      ],
      "stateMutability": "view",
      "type": "function"
    },
    {
      "inputs": [],
      "name": "comptroller",
      "outputs": [
        {
          "internalType": "contract ComptrollerInterface",
          "name": "",
          "type": "address"
        }
      ],
      "stateMutability": "view",
      "type": "function"
    },
    {
      "inputs": [
        {
          "internalType": "address",
          "name": "account",
          "type": "address"
        }
      ],
      "name": "getAccountLiquidity",
      "outputs": [
        {
          "internalType": "uint256",
          "name": "",
          "type": "uint256"
        },
        {
          "internalType": "uint256",
          "name": "",
          "type": "uint256"
        },
        {
          "internalType": "uint256",
          "name": "",
          "type": "uint256"
        }
      ],
      "stateMutability": "view",
      "type": "function"
    },
    {
      "inputs": [],
      "name": "getAllMarkets",
      "outputs": [
        {
          "internalType": "address[]",
          "name": "",
          "type": "address[]"
        }
      ],
      "stateMutability": "view",
      "type": "function"
    },
    {
      "inputs": [],
      "name": "getAllVenusMarkets",
      "outputs": [
        {
          "internalType": "address[]",
          "name": "vTokens",
          "type": "address[]"
        },
        {
          "internalType": "address[]",
          "name": "tokens",
          "type": "address[]"
        },
        {
          "internalType": "string[]",
          "name": "symbols",
          "type": "string[]"
        },
        {
          "internalType": "string[]",
          "name": "names",
          "type": "string[]"
        },
        {
          "internalType": "uint8[]",
          "name": "decimals",
          "type": "uint8[]"
        },
        {
          "internalType": "uint256[]",
          "name": "prices",
          "type": "uint256[]"
        }
      ],
      "stateMutability": "view",
      "type": "function"
    },
    {
      "inputs": [
        {
          "internalType": "address",
          "name": "account",
          "type": "address"
        }
      ],
      "name": "getAssetsIn",
      "outputs": [
        {
          "internalType": "address[]",
          "name": "",
          "type": "address[]"
        }
      ],
      "stateMutability": "view",
      "type": "function"
    },
    {
      "inputs": [
        {
          "internalType": "address",
          "name": "token",
          "type": "address"
        },
        {
          "internalType": "address",
          "name": "user",
          "type": "address"
        }
      ],
      "name": "getBalance",
      "outputs": [
        {
          "internalType": "uint256",
          "name": "",
          "type": "uint256"
        }
      ],
      "stateMutability": "view",
      "type": "function"
    },
    {
      "inputs": [
        {
          "internalType": "address",
          "name": "token",
          "type": "address"
        },
        {
          "internalType": "address",
          "name": "user",
          "type": "address"
        }
      ],
      "name": "getBorrowBalance",
      "outputs": [
        {
          "internalType": "uint256",
          "name": "",
          "type": "uint256"
        }
      ],
      "stateMutability": "view",
      "type": "function"
    },
    {
      "inputs": [
        {
          "internalType": "address",
          "name": "token",
          "type": "address"
        },
        {
          "internalType": "address",
          "name": "user",
          "type": "address"
        }
      ],
      "name": "getBorrowBalanceCurrent",
      "outputs": [
        {
          "internalType": "uint256",
          "name": "",
          "type": "uint256"
        }
      ],
      "stateMutability": "nonpayable",
      "type": "function"
    },
    {
      "inputs": [
        {
          "internalType": "address",
          "name": "token",
          "type": "address"
        }
      ],
      "name": "getBorrowRate",
      "outputs": [
        {
          "internalType": "uint256",
          "name": "",
          "type": "uint256"
        },
        {
          "internalType": "bool",
          "name": "",
          "type": "bool"
        }
      ],
      "stateMutability": "view",
      "type": "function"
    },
    {
      "inputs": [
        {
          "internalType": "address[]",
          "name": "vTokens",
          "type": "address[]"
        },
        {
          "internalType": "address",
          "name": "account",
          "type": "address"
        }
      ],
      "name": "getCollateralStatus",
      "outputs": [
        {
          "internalType": "bool[]",
          "name": "isCollateral",
          "type": "bool[]"
        }
      ],
      "stateMutability": "view",
      "type": "function"
    },
    {
      "inputs": [
        {
          "internalType": "address",
          "name": "token",
          "type": "address"
        },
        {
          "internalType": "address",
          "name": "user",
          "type": "address"
        }
      ],
      "name": "getLtv",
      "outputs": [
        {
          "internalType": "uint256",
          "name": "",
          "type": "uint256"
        }
      ],
      "stateMutability": "view",
      "type": "function"
    },
    {
      "inputs": [
        {
          "internalType": "address[]",
          "name": "vTokens",
          "type": "address[]"
        }
      ],
      "name": "getMarketRates",
      "outputs": [
        {
          "internalType": "uint256[]",
          "name": "prices",
          "type": "uint256[]"
        },
        {
          "internalType": "uint256[]",
          "name": "supplyRates",
          "type": "uint256[]"
        },
        {
          "internalType": "uint256[]",
          "name": "borrowRates",
          "type": "uint256[]"
        }
      ],
      "stateMutability": "view",
      "type": "function"
    },
    {
      "inputs": [
        {
          "internalType": "address",
          "name": "token",
          "type": "address"
        },
        {
          "internalType": "address",
          "name": "user",
          "type": "address"
        }
      ],
      "name": "getPossibleCollaterals",
      "outputs": [
        {
          "internalType": "address[]",
          "name": "collateralAddresses",
          "type": "address[]"
        },
        {
          "internalType": "uint256[]",
          "name": "balances",
          "type": "uint256[]"
        },
        {
          "internalType": "string[]",
          "name": "symbols",
          "type": "string[]"
        },
        {
          "internalType": "uint8[]",
          "name": "decimals",
          "type": "uint8[]"
        }
      ],
      "stateMutability": "view",
      "type": "function"
    },
    {
      "inputs": [
        {
          "internalType": "address",
          "name": "token",
          "type": "address"
        }
      ],
      "name": "getSupplyRate",
      "outputs": [
        {
          "internalType": "uint256",
          "name": "",
          "type": "uint256"
        },
        {
          "internalType": "bool",
          "name": "",
          "type": "bool"
        }
      ],
      "stateMutability": "view",
      "type": "function"
    },
    {
      "inputs": [
        {
          "internalType": "address",
          "name": "market",
          "type": "address"
        }
      ],
      "name": "getSupportedCollaterals",
      "outputs": [
        {
          "internalType": "address[]",
          "name": "collateralAddresses",
          "type": "address[]"
        }
      ],
      "stateMutability": "view",
      "type": "function"
    },
    {
      "inputs": [
        {
          "internalType": "address[]",
          "name": "vTokens",
          "type": "address[]"
        },
        {
          "internalType": "address",
          "name": "account",
          "type": "address"
        }
      ],
      "name": "getUserBalances",
      "outputs": [
        {
          "internalType": "uint256[]",
          "name": "balances",
          "type": "uint256[]"
        },
        {
          "internalType": "uint256[]",
          "name": "borrowBalances",
          "type": "uint256[]"
        }
      ],
      "stateMutability": "view",
      "type": "function"
    },
    {
      "inputs": [
        {
          "internalType": "address",
          "name": "underlyingToken",
          "type": "address"
        }
      ],
      "name": "getVTokenForUnderlying",
      "outputs": [
        {
          "internalType": "address",
          "name": "",
          "type": "address"
        }
      ],
      "stateMutability": "view",
      "type": "function"
    },
    {
      "inputs": [
        {
          "internalType": "address",
          "name": "market",
          "type": "address"
        },
        {
          "internalType": "address",
          "name": "collateral",
          "type": "address"
        }
      ],
      "name": "isCollateralSupported",
      "outputs": [
        {
          "internalType": "bool",
          "name": "isSupported",
          "type": "bool"
        }
      ],
      "stateMutability": "view",
      "type": "function"
    },
    {
      "inputs": [],
      "name": "oracle",
      "outputs": [
        {
          "internalType": "contract ResilientOracleInterface",
          "name": "",
          "type": "address"
        }
      ],
      "stateMutability": "view",
      "type": "function"
    },
    {
      "inputs": [],
      "name": "owner",
      "outputs": [
        {
          "internalType": "address",
          "name": "",
          "type": "address"
        }
      ],
      "stateMutability": "view",
      "type": "function"
    },
    {
      "inputs": [],
      "name": "renounceOwnership",
      "outputs": [],
      "stateMutability": "nonpayable",
      "type": "function"
    },
    {
      "inputs": [
        {
          "internalType": "address",
          "name": "_comptroller",
          "type": "address"
        }
      ],
      "name": "setComptroller",
      "outputs": [],
      "stateMutability": "nonpayable",
      "type": "function"
    },
    {
      "inputs": [
        {
          "internalType": "address",
          "name": "_oracle",
          "type": "address"
        }
      ],
      "name": "setOracle",
      "outputs": [],
      "stateMutability": "nonpayable",
      "type": "function"
    },
    {
      "inputs": [
        {
          "internalType": "address",
          "name": "newOwner",
          "type": "address"
        }
      ],
      "name": "transferOwnership",
      "outputs": [],
      "stateMutability": "nonpayable",
      "type": "function"
    }
  ],
  "transactionHash": "0xcb205fcbd54af0f32db208f38a59c24e060e01baa37d3eec410f72da7269c692",
  "args": [
    "0x0C7973F9598AA62f9e03B94E92C967fD5437426C",
    "0xcBBf58bD5bAdE357b634419B70b215D5E9d6FbeD",
    "0x0BE61223F99E57b8b8B7033a77B54Adc7f7cF027"
  ],
  "numDeployments": 11,
  "solcInputHash": "92c04077963b585915986b6fc13c5a9c",
  "bytecode": "0x60803461010757601f61233138819003918201601f19168301916001600160401b0383118484101761010b57808492606094604052833981010312610107576100478161011f565b906100546020820161011f565b906001600160a01b039061006a9060400161011f565b169182156100f4575f80546001600160a01b031981168517825560405194916001600160a01b03909116907f8be0079c531659141344cd1fd0a4f28419497f9722a3daafe3b4186f6b6457e09080a3600180546001600160a01b039283166001600160a01b031991821617909155600280549390921692169190911790556121fd90816101348239f35b631e4fbdf760e01b5f525f60045260245ffd5b5f80fd5b634e487b7160e01b5f52604160045260245ffd5b51906001600160a01b03821682036101075756fe6080806040526004361015610012575f80fd5b5f3560e01c908163104e999d1461159b57508063118e31b7146115275780632b7be8e8146114f75780635ec88c79146114495780635fe3b567146114215780636461213214610ea557806366e2d09b14610e6d5780636b5441a914610e12578063715018a614610dbb5780637846611314610ca15780637adbf97314610c5e5780637dc0d1d014610c3657806381906b8014610a365780638bad38dd146109f35780638da5cb5b146109cc578063929fe9a11461091f578063abfceffc14610872578063b0772d0b146107b8578063bad1935014610644578063d4fac45d1461052a578063d71275f614610497578063e94201c7146103ed578063f2fde38b14610368578063f5125d3f146103345763f639ecd21461012f575f80fd5b346102bb5760203660031901126102bb576004356001600160401b0381116102bb5761015f9036906004016118f0565b61016881611c86565b9061017281611c86565b9261017c82611c86565b60025490926001600160a01b03909116915f5b8281106101d6576101b6866101d2876101c48b604051958695606087526060870190611817565b908582036020870152611817565b908382036040850152611817565b0390f35b6001600160a01b036101f16101ec838686612067565b612077565b1690604051630ae9d70b60e41b8152602081600481865afa9081156102c7575f91610303575b50610222828a611d01565b52604051631f1f3b4560e31b8152602081600481865afa9081156102c7575f916102d2575b506102528288611d01565b526040519163fc57d4df60e01b83526004830152602082602481885afa80156102c7575f90610291575b6001925061028a8289611d01565b520161018f565b506020823d82116102bf575b816102aa60209383611962565b810103126102bb576001915161027c565b5f80fd5b3d915061029d565b6040513d5f823e3d90fd5b90506020813d82116102fb575b816102ec60209383611962565b810103126102bb57515f610247565b3d91506102df565b90506020813d821161032c575b8161031d60209383611962565b810103126102bb57515f610217565b3d9150610310565b346102bb5760403660031901126102bb5760206103606103526117af565b61035a6117c5565b50612128565b604051908152f35b346102bb5760203660031901126102bb576103816117af565b6103896121a1565b6001600160a01b031680156103da575f80546001600160a01b03198116831782556001600160a01b0316907f8be0079c531659141344cd1fd0a4f28419497f9722a3daafe3b4186f6b6457e09080a3005b631e4fbdf760e01b5f525f60045260245ffd5b346102bb5760403660031901126102bb575f60206104096117af565b60246104136117c5565b916001600160a01b039061042690611d4e565b6040516305eff7ef60e21b81526001600160a01b039094166004850152929485938492165af180156102c7575f90610464575b602090604051908152f35b506020813d60201161048f575b8161047e60209383611962565b810103126102bb5760209051610459565b3d9150610471565b346102bb5760203660031901126102bb57600460206001600160a01b036104c46104bf6117af565b611d4e565b1660405192838092631f1f3b4560e31b82525afa9081156102c7575f916104f8575b50604080519182526001602083015290f35b90506020813d602011610522575b8161051360209383611962565b810103126102bb5751816104e6565b3d9150610506565b346102bb5760403660031901126102bb576105436117af565b61054b6117c5565b906001600160a01b039061055e90611d4e565b6040516370a0823160e01b81526001600160a01b03909316600484015216602082602481845afa9182156102c7575f9261060f575b509060206004926040519384809263182df0f560e01b82525afa9182156102c7575f926105d9575b6020670de0b6b3a76400006105d0858561208b565b04604051908152f35b91506020823d602011610607575b816105f460209383611962565b810103126102bb579051906105d06105bb565b3d91506105e7565b91506020823d60201161063c575b8161062a60209383611962565b810103126102bb579051906020610593565b3d915061061d565b346102bb5761065236611920565b6001600160a01b031661066681151561200c565b61066f82611997565b9261067d6040519485611962565b82845261068983611997565b602085019390601f190136853760405192632aff3bff60e21b845260048401525f83602481305afa9283156102c7575f93610794575b505f949394929192905b808210610716578585604051918291602083019060208452518091526040830191905f5b8181106106fb575050500390f35b825115158452859450602093840193909201916001016106ed565b9461072a6101ec8388879597989698612067565b6001600160a01b0316915f5b865181101561078557836001600160a01b03610752838a611d01565b51161461076157600101610736565b50929591509392806001610776819389611d01565b525b01909493949291926106c9565b50929591509392600190610778565b6107b19193503d805f833e6107a98183611962565b810190611d29565b91856106bf565b346102bb575f3660031901126102bb5760015460405163b0772d0b60e01b8152905f90829060049082906001600160a01b03165afa9081156102c7575f91610850575b506108068151611c86565b905f5b815181101561083a576001906001600160a01b036108278285611d01565b51166108338286611d01565b5201610809565b604051602080825281906101d2908201866117db565b61086c91503d805f833e6108648183611962565b81019061209e565b816107fb565b346102bb5760203660031901126102bb5761088b6117af565b600154604051632aff3bff60e21b81526001600160a01b039283166004820152915f9183916024918391165afa9081156102c7575f91610905575b506108d18151611c86565b905f5b815181101561083a576001906001600160a01b036108f28285611d01565b51166108fe8286611d01565b52016108d4565b61091991503d805f833e6108648183611962565b816108c6565b346102bb5760403660031901126102bb576109386117af565b60206109426117c5565b60015460405163929fe9a160e01b81526001600160a01b0394851660048201529184166024830152909283916044918391165afa80156102c7575f90610990575b6020906040519015158152f35b506020813d6020116109c4575b816109aa60209383611962565b810103126102bb575180151581036102bb57602090610983565b3d915061099d565b346102bb575f3660031901126102bb575f546040516001600160a01b039091168152602090f35b346102bb5760203660031901126102bb57610a0c6117af565b610a146121a1565b600180546001600160a01b0319166001600160a01b0392909216919091179055005b346102bb57610a4436611920565b9091906001600160a01b0316610a5b81151561200c565b610a6483611c86565b91610a6e84611c86565b915f5b858110610aa257610a94856101d286604051938493604085526040850190611817565b908382036020850152611817565b6001600160a01b03610ab86101ec838987612067565b16906040516370a0823160e01b8152836004820152602081602481865afa5f9181610c03575b50610b77575060206024925f610af4848a611d01565b525b604051938480926395dd919360e01b82528760048301525afa805f91610b43575b60019350610b3357505f610b2b8287611d01565b525b01610a71565b610b3d8287611d01565b52610b2d565b90506020833d8211610b6f575b81610b5d60209383611962565b810103126102bb576001925190610b17565b3d9150610b50565b60405163182df0f560e01b815290602082600481875afa9182156102c7575f92610bc6575b5092670de0b6b3a7640000610bb560209360249661208b565b04610bc0848a611d01565b52610af6565b9150926020823d8211610bfb575b81610be160209383611962565b810103126102bb5790519092670de0b6b3a7640000610b9c565b3d9150610bd4565b9091506020813d8211610c2e575b81610c1e60209383611962565b810103126102bb57519089610ade565b3d9150610c11565b346102bb575f3660031901126102bb576002546040516001600160a01b039091168152602090f35b346102bb5760203660031901126102bb57610c776117af565b610c7f6121a1565b600280546001600160a01b0319166001600160a01b0392909216919091179055005b346102bb5760403660031901126102bb57610cba6117af565b610cc26117c5565b604051633230909960e11b81525f81600481305afa9081156102c7575f91610d93575b506001600160a01b03928316925f928392911690825b8151811015610d8757856001600160a01b03610d178385611d01565b511614610d7e575b826001600160a01b03610d328385611d01565b511614610d75575b8480610d6e575b610d4d57600101610cfb565b505050602092505b81610d66575b506040519015158152f35b905082610d5b565b5083610d41565b60019350610d3a565b60019450610d1f565b50505060209250610d55565b610daf91503d805f833e610da78183611962565b810190611b65565b50505050905083610ce5565b346102bb575f3660031901126102bb57610dd36121a1565b5f80546001600160a01b0319811682556001600160a01b03167f8be0079c531659141344cd1fd0a4f28419497f9722a3daafe3b4186f6b6457e08280a3005b346102bb5760203660031901126102bb57600460206001600160a01b03610e3a6104bf6117af565b1660405192838092630ae9d70b60e41b82525afa9081156102c7575f916104f85750604080519182526001602083015290f35b346102bb5760203660031901126102bb576101d2610e91610e8c6117af565b611ec0565b6040519182916020835260208301906117db565b346102bb575f3660031901126102bb5760405163b0772d0b60e01b81525f81600481305afa9081156102c7575f91611407575b50805190610ee582611c86565b91610eef81611cb8565b92610ef982611cb8565b93610f0383611c86565b91610f0d84611c86565b60025490946001600160a01b03909116905f5b818110610f9957610f53886101d289610f8b8a610f7d8f610f6f8d610f618e6040519b8c9b60c08d5260c08d01906117db565b908b820360208d01526117db565b9089820360408b015261184a565b90878203606089015261184a565b9085820360808701526118ba565b9083820360a0850152611817565b6001600160a01b03610fab828a611d01565b511690604051636f307dc360e01b8152602081600481865afa5f91816113cc575b5061116d57505f610fdd8287611d01565b526040516395d89b4160e01b81525f81600481865afa9081156102c7575f91611153575b5061100c8288611d01565b526110178187611d01565b506040516306fdde0360e01b81525f81600481865afa9081156102c7575f91611131575b50611046828c611d01565b52611051818b611d01565b5060405163313ce56760e01b8152602081600481865afa9081156102c7575f916110f8575b5060ff611083838a611d01565b911690525b6040519163fc57d4df60e01b83526004830152602082602481875afa80156102c7575f906110c6575b600192506110bf828a611d01565b5201610f20565b506020823d82116110f0575b816110df60209383611962565b810103126102bb57600191516110b1565b3d91506110d2565b90506020813d8211611129575b8161111260209383611962565b810103126102bb5761112390611afa565b8b611076565b3d9150611105565b61114d91503d805f833e6111458183611962565b810190611e9b565b8b61103b565b61116791503d805f833e6111458183611962565b8b611001565b6111778287611d01565b6001600160a01b03909116908190526040516395d89b4160e01b81525f81600481855afa5f91816113b0575b5061139557506040516395d89b4160e01b81525f81600481875afa9081156102c7575f9161137b575b506111d78389611d01565b526111e28288611d01565b505b818b6040516306fdde0360e01b81525f81600481875afa5f918161135f575b506113445750506040516306fdde0360e01b81529190505f82600481875afa9081156102c75761124c848e6020946004965f9161132a575b506112468383611d01565b52611d01565b505b60405163313ce56760e01b815292839182905afa5f91816112ef575b506112e3575060405163313ce56760e01b8152602081600481865afa9081156102c7575f916112aa575b5060ff6112a1838a611d01565b91169052611088565b90506020813d82116112db575b816112c460209383611962565b810103126102bb576112d590611afa565b8b611294565b3d91506112b7565b60ff6112a1838a611d01565b9091506020813d8211611322575b8161130a60209383611962565b810103126102bb5761131b90611afa565b908c61126a565b3d91506112fd565b61133e91503d805f833e6111458183611962565b5f61123b565b82826113599261124660209660049896611d01565b5061124e565b6113749192503d805f833e6111458183611962565b908f611203565b61138f91503d805f833e6111458183611962565b8c6111cc565b61139f8389611d01565b526113aa8288611d01565b506111e4565b6113c59192503d805f833e6111458183611962565b908d6111a3565b9091506020813d82116113ff575b816113e760209383611962565b810103126102bb576113f8906119ae565b908c610fcc565b3d91506113da565b61141b91503d805f833e6107a98183611962565b81610ed8565b346102bb575f3660031901126102bb576001546040516001600160a01b039091168152602090f35b346102bb5760203660031901126102bb576114626117af565b600154604051635ec88c7960e01b81526001600160a01b0392831660048201529160609183916024918391165afa80156102c7575f905f5f916114b6575b6060935060405192835260208301526040820152f35b5050506060813d6060116114ef575b816114d260609383611962565b810103126102bb57805160208201516040909201516060926114a0565b3d91506114c5565b346102bb5760203660031901126102bb5760206115156104bf6117af565b6040516001600160a01b039091168152f35b346102bb5760403660031901126102bb576115406117af565b602061154a6117c5565b916001600160a01b039061155d90611d4e565b6040516395dd919360e01b81526001600160a01b03909416600485015283916024918391165afa80156102c7575f9061046457602090604051908152f35b346102bb5760403660031901126102bb576115b46117af565b506115bd6117c5565b633230909960e11b8252905f81600481305afa80156102c7575f905f925f905f9261178a575b506115ee8451611c86565b906115f98551611cb8565b916116048651611c86565b9461160f8751611c86565b976001600160a01b031690816116dd575b50505f5b865181101561168f576001906001600160a01b03611642828a611d01565b511661164e8285611d01565b526116598185611d01565b516116648287611d01565b5261166f8186611d01565b5060ff61167c8288611d01565b51166116888289611d01565b5201611624565b6116b3826101d2886116cf886116c18e6040519788976080895260808901906117db565b908782036020890152611817565b90858203604087015261184a565b9083820360608501526118ba565b5f9192985061170990604051938492839263010320d760e71b84526040600485015260448401906117db565b9060248301520381305afa9081156102c7575f9161172b575b50958780611620565b90503d805f833e61173c8183611962565b8101906040818303126102bb5780516001600160401b0381116102bb5782611765918301611b08565b9160208201516001600160401b0381116102bb576117839201611b08565b5087611722565b925050506117a291503d805f833e610da78183611962565b50919390509192856115e3565b600435906001600160a01b03821682036102bb57565b602435906001600160a01b03821682036102bb57565b90602080835192838152019201905f5b8181106117f85750505090565b82516001600160a01b03168452602093840193909201916001016117eb565b90602080835192838152019201905f5b8181106118345750505090565b8251845260209384019390920191600101611827565b9080602083519182815201916020808360051b8301019401925f915b83831061187557505050505090565b909192939460208080600193601f19868203018752818a518051918291828552018484015e5f828201840152601f01601f191601019701959491909101920190611866565b90602080835192838152019201905f5b8181106118d75750505090565b825160ff168452602093840193909201916001016118ca565b9181601f840112156102bb578235916001600160401b0383116102bb576020808501948460051b0101116102bb57565b60406003198201126102bb57600435906001600160401b0382116102bb5761194a916004016118f0565b90916024356001600160a01b03811681036102bb5790565b90601f801991011681019081106001600160401b0382111761198357604052565b634e487b7160e01b5f52604160045260245ffd5b6001600160401b0381116119835760051b60200190565b51906001600160a01b03821682036102bb57565b9080601f830112156102bb5781516119d981611997565b926119e76040519485611962565b81845260208085019260051b8201019283116102bb57602001905b828210611a0f5750505090565b60208091611a1c846119ae565b815201910190611a02565b81601f820112156102bb578051906001600160401b0382116119835760405192611a5b601f8401601f191660200185611962565b828452602083830101116102bb57815f9260208093018386015e8301015290565b9080601f830112156102bb578151611a9381611997565b92611aa16040519485611962565b81845260208085019260051b820101918383116102bb5760208201905b838210611acd57505050505090565b81516001600160401b0381116102bb57602091611aef87848094880101611a27565b815201910190611abe565b519060ff821682036102bb57565b9080601f830112156102bb578151611b1f81611997565b92611b2d6040519485611962565b81845260208085019260051b8201019283116102bb57602001905b828210611b555750505090565b8151815260209182019101611b48565b9160c0838303126102bb5782516001600160401b0381116102bb5782611b8c9185016119c2565b9260208101516001600160401b0381116102bb5783611bac9183016119c2565b9260408201516001600160401b0381116102bb5781611bcc918401611a7c565b9260608301516001600160401b0381116102bb5782611bec918501611a7c565b9260808101516001600160401b0381116102bb57810183601f820112156102bb57805190611c1982611997565b91611c276040519384611962565b80835260208084019160051b830101918683116102bb57602001905b828210611c6e575050509260a08201516001600160401b0381116102bb57611c6b9201611b08565b90565b60208091611c7b84611afa565b815201910190611c43565b90611c9082611997565b611c9d6040519182611962565b8281528092611cae601f1991611997565b0190602036910137565b90611cc282611997565b611ccf6040519182611962565b8281528092611ce0601f1991611997565b01905f5b828110611cf057505050565b806060602080938501015201611ce4565b8051821015611d155760209160051b010190565b634e487b7160e01b5f52603260045260245ffd5b906020828203126102bb5781516001600160401b0381116102bb57611c6b92016119c2565b60405163b0772d0b60e01b8152905f82600481305afa9182156102c7575f92611e7f575b505f5b8251811015611e1e576001600160a01b03611d908285611d01565b5116604051636f307dc360e01b8152602081600481855afa5f9181611de3575b50611dc15750506001905b01611d75565b6001600160a01b03848116911614611ddc5750600190611dbb565b9250505090565b9091506020813d8211611e16575b81611dfe60209383611962565b810103126102bb57611e0f906119ae565b905f611db0565b3d9150611df1565b60405162461bcd60e51b815260206004820152603360248201527f56656e7573476174657761793a2076546f6b656e206e6f7420666f756e64206660448201527237b9103ab73232b9363cb4b733903a37b5b2b760691b6064820152608490fd5b611e949192503d805f833e6107a98183611962565b905f611d72565b906020828203126102bb5781516001600160401b0381116102bb57611c6b9201611a27565b604051633230909960e11b815290915f82600481305afa9182156102c7575f92611fea575b505f915f5b8151811015611fe2576001600160a01b03611f058284611d01565b51166001600160a01b03861614611f1e57600101611eea565b5090915060015b15611fc75780515f198101908111611fab57611f4090611c86565b905f935f5b8251811015611fbf576001600160a01b03611f608285611d01565b51166001600160a01b03831603611f7a575b600101611f45565b946001600160a01b03611f8d8785611d01565b5116611f998286611d01565b525f198114611fab5760010194611f72565b634e487b7160e01b5f52601160045260245ffd5b509193505050565b509050604051611fd8602082611962565b5f81525f36813790565b509091611f25565b611fff9192503d805f833e610da78183611962565b505050509050905f611ee5565b1561201357565b60405162461bcd60e51b815260206004820152602660248201527f56656e7573476174657761793a207a65726f2061646472657373206e6f7420616044820152651b1b1bddd95960d21b6064820152608490fd5b9190811015611d155760051b0190565b356001600160a01b03811681036102bb5790565b81810292918115918404141715611fab57565b6020818303126102bb578051906001600160401b0382116102bb57019080601f830112156102bb578151906120d282611997565b926120e06040519485611962565b82845260208085019360051b8201019182116102bb57602001915b8183106121085750505090565b82516001600160a01b03811681036102bb578152602092830192016120fb565b60405163056f7d1d60e31b81526001600160a01b039091166004820152602081602481305afa908161216a575b5061215e575f90565b670a688906bd8b000090565b6020813d602011612199575b8161218360209383611962565b810103126102bb57612194906119ae565b612155565b3d9150612176565b5f546001600160a01b031633036121b457565b63118cdaa760e01b5f523360045260245ffdfea26469706673582212203a5c91b16e67257e8e2d0de26ced08dd26ebbafe5d3b06755f08281d468f7db564736f6c634300081e0033",
  "devdoc": {
    "details": "Contains all read/view functions from v1, separate from write operations",
    "errors": {
      "OwnableInvalidOwner(address)": [
        {
          "details": "The owner is not a valid owner account. (eg. `address(0)`)"
        }
      ],
      "OwnableUnauthorizedAccount(address)": [
        {
          "details": "The caller account is not authorized to perform an operation."
        }
      ]
    },
    "kind": "dev",
    "methods": {
      "owner()": {
        "details": "Returns the address of the current owner."
      },
      "renounceOwnership()": {
        "details": "Leaves the contract without owner. It will not be possible to call `onlyOwner` functions. Can only be called by the current owner. NOTE: Renouncing ownership will leave the contract without an owner, thereby disabling any functionality that is only available to the owner."
      },
      "transferOwnership(address)": {
        "details": "Transfers ownership of the contract to a new account (`newOwner`). Can only be called by the current owner."
      }
    },
    "title": "VenusGatewayView",
    "version": 1
  },
  "userdoc": {
    "kind": "user",
    "methods": {},
    "notice": "View-only gateway for Venus protocol",
    "version": 1
  },
  "storageLayout": {
    "storage": [
      {
        "astId": 1578,
        "contract": "contracts/v2/gateways/venus/VenusGatewayView.sol:VenusGatewayView",
        "label": "_owner",
        "offset": 0,
        "slot": "0",
        "type": "t_address"
      },
      {
        "astId": 17270,
        "contract": "contracts/v2/gateways/venus/VenusGatewayView.sol:VenusGatewayView",
        "label": "comptroller",
        "offset": 0,
        "slot": "1",
        "type": "t_contract(ComptrollerInterface)4495"
      },
      {
        "astId": 17273,
        "contract": "contracts/v2/gateways/venus/VenusGatewayView.sol:VenusGatewayView",
        "label": "oracle",
        "offset": 0,
        "slot": "2",
        "type": "t_contract(ResilientOracleInterface)4515"
      }
    ],
    "types": {
      "t_address": {
        "encoding": "inplace",
        "label": "address",
        "numberOfBytes": "20"
      },
      "t_contract(ComptrollerInterface)4495": {
        "encoding": "inplace",
        "label": "contract ComptrollerInterface",
        "numberOfBytes": "20"
      },
      "t_contract(ResilientOracleInterface)4515": {
        "encoding": "inplace",
        "label": "contract ResilientOracleInterface",
        "numberOfBytes": "20"
      }
    }
  }
}