{
  "address": "0x0C6aeAB640fFfd7DFECDc59f1D3BAb0AD269D0AC",
  "abi": [
    {
      "inputs": [
        {
          "internalType": "address",
          "name": "router",
          "type": "address"
        },
        {
          "internalType": "address",
          "name": "_comptroller",
          "type": "address"
        }
      ],
      "stateMutability": "nonpayable",
      "type": "constructor"
    },
    {
      "inputs": [
        {
          "internalType": "address",
          "name": "target",
          "type": "address"
        }
      ],
      "name": "AddressEmptyCode",
      "type": "error"
    },
    {
      "inputs": [
        {
          "internalType": "address",
          "name": "account",
          "type": "address"
        }
      ],
      "name": "AddressInsufficientBalance",
      "type": "error"
    },
    {
      "inputs": [],
      "name": "FailedInnerCall",
      "type": "error"
    },
    {
      "inputs": [],
      "name": "ReentrancyGuardReentrantCall",
      "type": "error"
    },
    {
      "inputs": [
        {
          "internalType": "address",
          "name": "token",
          "type": "address"
        }
      ],
      "name": "SafeERC20FailedOperation",
      "type": "error"
    },
    {
      "inputs": [],
      "name": "ROUTER",
      "outputs": [
        {
          "internalType": "address",
          "name": "",
          "type": "address"
        }
      ],
      "stateMutability": "view",
      "type": "function"
    },
    {
      "inputs": [
        {
          "components": [
            {
              "internalType": "enum ProtocolTypes.LendingOp",
              "name": "op",
              "type": "uint8"
            },
            {
              "internalType": "address",
              "name": "token",
              "type": "address"
            },
            {
              "internalType": "address",
              "name": "user",
              "type": "address"
            },
            {
              "internalType": "uint256",
              "name": "amount",
              "type": "uint256"
            },
            {
              "internalType": "bytes",
              "name": "context",
              "type": "bytes"
            },
            {
              "components": [
                {
                  "internalType": "uint256",
                  "name": "index",
                  "type": "uint256"
                }
              ],
              "internalType": "struct ProtocolTypes.InputPtr",
              "name": "input",
              "type": "tuple"
            }
          ],
          "internalType": "struct ProtocolTypes.LendingInstruction[]",
          "name": "instrs",
          "type": "tuple[]"
        },
        {
          "internalType": "address",
          "name": "caller",
          "type": "address"
        },
        {
          "components": [
            {
              "internalType": "address",
              "name": "token",
              "type": "address"
            },
            {
              "internalType": "uint256",
              "name": "amount",
              "type": "uint256"
            }
          ],
          "internalType": "struct ProtocolTypes.Output[]",
          "name": "inputs",
          "type": "tuple[]"
        }
      ],
      "name": "authorize",
      "outputs": [
        {
          "internalType": "address[]",
          "name": "targets",
          "type": "address[]"
        },
        {
          "internalType": "bytes[]",
          "name": "data",
          "type": "bytes[]"
        },
        {
          "components": [
            {
              "internalType": "address",
              "name": "token",
              "type": "address"
            },
            {
              "internalType": "uint256",
              "name": "amount",
              "type": "uint256"
            }
          ],
          "internalType": "struct ProtocolTypes.Output[]",
          "name": "produced",
          "type": "tuple[]"
        }
      ],
      "stateMutability": "view",
      "type": "function"
    },
    {
      "inputs": [],
      "name": "comptroller",
      "outputs": [
        {
          "internalType": "contract ComptrollerInterface",
          "name": "",
          "type": "address"
        }
      ],
      "stateMutability": "view",
      "type": "function"
    },
    {
      "inputs": [
        {
          "components": [
            {
              "internalType": "enum ProtocolTypes.LendingOp",
              "name": "op",
              "type": "uint8"
            },
            {
              "internalType": "address",
              "name": "token",
              "type": "address"
            },
            {
              "internalType": "address",
              "name": "user",
              "type": "address"
            },
            {
              "internalType": "uint256",
              "name": "amount",
              "type": "uint256"
            },
            {
              "internalType": "bytes",
              "name": "context",
              "type": "bytes"
            },
            {
              "components": [
                {
                  "internalType": "uint256",
                  "name": "index",
                  "type": "uint256"
                }
              ],
              "internalType": "struct ProtocolTypes.InputPtr",
              "name": "input",
              "type": "tuple"
            }
          ],
          "internalType": "struct ProtocolTypes.LendingInstruction[]",
          "name": "instrs",
          "type": "tuple[]"
        },
        {
          "internalType": "address",
          "name": "",
          "type": "address"
        },
        {
          "components": [
            {
              "internalType": "address",
              "name": "token",
              "type": "address"
            },
            {
              "internalType": "uint256",
              "name": "amount",
              "type": "uint256"
            }
          ],
          "internalType": "struct ProtocolTypes.Output[]",
          "name": "inputs",
          "type": "tuple[]"
        }
      ],
      "name": "deauthorize",
      "outputs": [
        {
          "internalType": "address[]",
          "name": "targets",
          "type": "address[]"
        },
        {
          "internalType": "bytes[]",
          "name": "data",
          "type": "bytes[]"
        }
      ],
      "stateMutability": "view",
      "type": "function"
    },
    {
      "inputs": [
        {
          "components": [
            {
              "internalType": "address",
              "name": "token",
              "type": "address"
            },
            {
              "internalType": "uint256",
              "name": "amount",
              "type": "uint256"
            }
          ],
          "internalType": "struct ProtocolTypes.Output[]",
          "name": "inputs",
          "type": "tuple[]"
        },
        {
          "internalType": "bytes",
          "name": "data",
          "type": "bytes"
        }
      ],
      "name": "processLendingInstruction",
      "outputs": [
        {
          "components": [
            {
              "internalType": "address",
              "name": "token",
              "type": "address"
            },
            {
              "internalType": "uint256",
              "name": "amount",
              "type": "uint256"
            }
          ],
          "internalType": "struct ProtocolTypes.Output[]",
          "name": "outputs",
          "type": "tuple[]"
        }
      ],
      "stateMutability": "nonpayable",
      "type": "function"
    },
    {
      "inputs": [
        {
          "internalType": "address",
          "name": "token",
          "type": "address"
        },
        {
          "internalType": "address",
          "name": "to",
          "type": "address"
        },
        {
          "internalType": "uint256",
          "name": "amount",
          "type": "uint256"
        }
      ],
      "name": "recoverTokens",
      "outputs": [],
      "stateMutability": "nonpayable",
      "type": "function"
    }
  ],
  "transactionHash": "0x6fb5dfafa2d37844c18ec4e99a6c69a95eef6b53b2a790bd957a00490f53d8d3",
  "args": [
    "0x934Da3c71A866337dECb76bF216aB6615aE8382D",
    "0x0C7973F9598AA62f9e03B94E92C967fD5437426C"
  ],
  "numDeployments": 29,
  "solcInputHash": "267cdce003ab789696b7dcea1a919979",
  "bytecode": "0x60c0346100f657601f6126db38819003918201601f19168301916001600160401b038311848410176100fa5780849260409485528339810103126100f657610052602061004b8361010e565b920161010e565b906001600160a01b038116156100c65760805260015f556001600160a01b031660a0526040516125b89081610123823960805181818160cf01528181610e6701526117ad015260a051818181610d2001528181610de5015281816111190152818161140a01528181611c3201526122810152f35b60405162461bcd60e51b81526020600482015260086024820152670726f757465723d360c41b6044820152606490fd5b5f80fd5b634e487b7160e01b5f52604160045260245ffd5b51906001600160a01b03821682036100f65756fe6080806040526004361015610012575f80fd5b5f3560e01c90816332fe7b261461179b5750806352ed587514610fab5780635f3e849f14610e145780635fe3b56714610dd0578063aad11a3f14610c125763ae4be46d1461005e575f80fd5b346104a45760403660031901126104a4576004356001600160401b0381116104a45761008e9036906004016117f0565b906024356001600160401b0381116104a457366023820112156104a45760048101356001600160401b0381116104a45781019160248301913683116104a4577f00000000000000000000000000000000000000000000000000000000000000006001600160a01b03163303610bd6576020818503126104a45760248101356001600160401b0381116104a45701928390039360c085126104a4576040519160c083016001600160401b038111848210176103f1576040526024850135600a8110156104a4578352610161604486016117dc565b9160208401928352610175606487016117dc565b604085019081526084870135606086019081529790959060a48801356001600160401b0381116104a4576024908901019180601f840112156104a45782356101bc81611b53565b916101ca60405193846119b8565b818352602082860101116104a4576020815f928280970183860137830101526080870152609f1901126104a4576040519560208701906001600160401b038211888310176103f15760c4916040520135865260a084019286845260018060a01b0390511696519551818110610ba3575b505050508051600a811015610b7b57158015610b8f575b156105545750516001600160a01b03169061026a6124de565b61027383611c1e565b6001600160a01b039093169261028b823033876124fc565b60405163095ea7b360e01b815260018060a01b038216948560048301525f60248301526020826044815f855af1908115610434576102eb936020938693610539575b505f60405180968195829463095ea7b360e01b845260048401611bc7565b03925af180156104345761051c575b506040519063140e25ad60e31b825260048201526020816024815f875af1908115610434575f916104ea575b506104b0576040516370a0823160e01b8152306004820152602081602481865afa908115610434575f9161047a575b50801561043f57610380926020925f60405180968195829463a9059cbb60e01b845260048401611bc7565b03925af1801561043457610405575b5060015f556040516103a26020826119b8565b5f81525f805b8181106103ce5750506103ca905b604051918291602083526020830190611955565b0390f35b6020906040516103dd8161199d565b5f81525f83820152828286010152016103a8565b634e487b7160e01b5f52604160045260245ffd5b6104269060203d60201161042d575b61041e81836119b8565b810190611de8565b505f61038f565b503d610414565b6040513d5f823e3d90fd5b60405162461bcd60e51b815260206004820152601360248201527256656e75733a207a65726f2076546f6b656e7360681b6044820152606490fd5b90506020813d6020116104a8575b81610495602093836119b8565b810103126104a457515f610355565b5f80fd5b3d9150610488565b60405162461bcd60e51b815260206004820152601260248201527115995b9d5cce881b5a5b9d0819985a5b195960721b6044820152606490fd5b90506020813d602011610514575b81610505602093836119b8565b810103126104a457515f610326565b3d91506104f8565b6105349060203d60201161042d5761041e81836119b8565b6102fa565b61054f90853d871161042d5761041e81836119b8565b6102cd565b8051600a811015610b7b576002036105cc5750516103ca9261058892916001600160a01b0316906105836124de565b611e65565b9060015f55610595611a6d565b91604051916105a38361199d565b6001600160a01b0316825260208201526105bc82611b32565b526105c681611b32565b506103b6565b8051600a811015610b7b576003036106f157505161062a9060209083906001600160a01b03166105fa6124de565b6001600160a01b0361060b87611c1e565b16905f60405180968195829463856e5bb360e01b845260048401611bc7565b03925af1908115610434575f916106bf575b50610683576103ca916001600160a01b0316610659823383611be2565b60015f55610665611a6d565b91604051916106738361199d565b825260208201526105bc82611b32565b60405162461bcd60e51b815260206004820152601460248201527315995b9d5cce88189bdc9c9bddc819985a5b195960621b6044820152606490fd5b90506020813d6020116106e9575b816106da602093836119b8565b810103126104a457515f61063c565b3d91506106cd565b8093929351600a811015610b7b5760040361098e5750516001600160a01b03169061071a6124de565b61072381611c1e565b6040516370a0823160e01b8152306004820152936001600160a01b03909216929091602085602481875afa948515610434575f9561095a575b50610769813033876124fc565b60405163095ea7b360e01b815260018060a01b038416908160048201525f60248201526020816044815f8a5af18015610434576107c695602092859261093f575b5060405163095ea7b360e01b8152968792839260048401611bc7565b03815f895af1928315610434576107fd94602094610924575b505f6040518096819582946304c11f0360e31b845260048401611bc7565b03925af1908115610434575f916108f2575b506108b7576040516370a0823160e01b815230600482015291602083602481855afa908115610434575f91610881575b6103ca9350808211156108785761085591611bba565b905b816108685760015f55610665611a6d565b610873823383611be2565b610659565b50505f90610857565b90506020833d6020116108af575b8161089c602093836119b8565b810103126104a4576103ca92519061083f565b3d915061088f565b60405162461bcd60e51b815260206004820152601360248201527215995b9d5cce881c995c185e4819985a5b1959606a1b6044820152606490fd5b90506020813d60201161091c575b8161090d602093836119b8565b810103126104a457515f61080f565b3d9150610900565b61093a90853d871161042d5761041e81836119b8565b6107df565b61095590843d861161042d5761041e81836119b8565b6107aa565b9094506020813d602011610986575b81610976602093836119b8565b810103126104a45751935f61075c565b3d9150610969565b8091935051600a811015610b7b57600503610a3457505f9160209060246001600160a01b036109bc85611c1e565b92516040516305eff7ef60e21b81526001600160a01b0390911660048201529586938492165af1908115610434575f916109fe575b6103ca9250610595611a6d565b90506020823d602011610a2c575b81610a19602093836119b8565b810103126104a4576103ca9151906109f1565b3d9150610a0c565b51600a811015610b7b57600603610b42576001600160a01b03610a5682611c1e565b92516040516370a0823160e01b81526001600160a01b0390911660048201529216602083602481845afa928315610434575f93610b0d575b509160206004936040519485809263182df0f560e01b82525afa928315610434575f93610ad7575b50610acd6103ca93670de0b6b3a764000092611b6e565b0490610595611a6d565b92506020833d602011610b05575b81610af2602093836119b8565b810103126104a457915191610acd610ab6565b3d9150610ae5565b92506020833d602011610b3a575b81610b28602093836119b8565b810103126104a4579151916020610a8e565b3d9150610b1b565b60405162461bcd60e51b8152602060048201526011602482015270056656e75733a20756e6b6e6f776e206f7607c1b6044820152606490fd5b634e487b7160e01b5f52602160045260245ffd5b508051600a811015610b7b57600114610251565b610bca9397506020949650610bbc610bc1918385611b22565b611b0e565b96515191611b22565b0135915f80808061023a565b60405162461bcd60e51b815260206004820152601460248201527313db9b1e481c9bdd5d195c8818d85b8818d85b1b60621b6044820152606490fd5b346104a457610c2036611820565b91509192610c2d846119f2565b92610c3785611a24565b945f5b818110610c6b57610c5d866103ca896040519384936040855260408501906118a9565b9083820360208501526118e5565b610c76818386611ad8565b90610c8360208301611b0e565b9160a0810135878110610db8575b503591600a8310156104a45760019260028103610d0e5750610cb290611c1e565b610cbc8289611b3f565b90838060a01b0316905260405163095ea7b360e01b60208201523060248201525f604482015260448152610cf16064826119b8565b610cfb828a611b3f565b52610d068189611b3f565b505b01610c3a565b600314159050610d9157818060a01b037f000000000000000000000000000000000000000000000000000000000000000016610d4a8289611b3f565b5260405163ddbf54fd60e01b60208201523060248201525f604482015260448152610d766064826119b8565b610d80828a611b3f565b52610d8b8189611b3f565b50610d08565b5f610d9c8289611b3f565b52604051610dab6020826119b8565b5f8152610d80828a611b3f565b610dc9919350610bbc908887611b22565b9189610c91565b346104a4575f3660031901126104a4576040517f00000000000000000000000000000000000000000000000000000000000000006001600160a01b03168152602090f35b346104a45760603660031901126104a4576004356001600160a01b038116908190036104a4576024356001600160a01b03811681036104a457604051638da5cb5b60e01b815260443591906020816004817f00000000000000000000000000000000000000000000000000000000000000006001600160a01b03165afa908115610434575f91610f7c575b506001600160a01b03163303610f43576040516370a0823160e01b815230600482015291602083602481875afa928315610434575f93610f0f575b505f198103610f095750815b808311610f01575b5081610ef657005b610eff92611be2565b005b915083610eee565b91610ee6565b9092506020813d602011610f3b575b81610f2b602093836119b8565b810103126104a457519184610eda565b3d9150610f1e565b60405162461bcd60e51b815260206004820152601160248201527027b7363c903937baba32b91037bbb732b960791b6044820152606490fd5b610f9e915060203d602011610fa4575b610f9681836119b8565b810190611ab9565b84610e9f565b503d610f8c565b346104a457610fb936611820565b9293909160405191610fca8361199d565b5f8084526020840181815295905b8781106116c95750610ff4610fed87516119f2565b9651611a24565b935194611000866119db565b9561100e60405197886119b8565b80875261101d601f19916119db565b015f5b8181106116a65750505f915f905f5b8a8110611072576110568a6103ca8b6110648c6040519586956060875260608701906118a9565b9085820360208701526118e5565b908382036040850152611955565b61107d818c88611ad8565b6110888386836121f6565b823590600a8210156104a4578d935f8315801561169a575b1561119557505050506110b38982612420565b6110c4575b50506001905b0161102f565b9561116261117061118b936110db6001969a611c1e565b906040908151926110ec83856119b8565b888452601f19830136602086013761110384611b32565b90898060a01b0316905261113f86898060a01b037f00000000000000000000000000000000000000000000000000000000000000001692611b3f565b5251928391631853304760e31b60208401526020602484015260448301906118a9565b03601f1981018352826119b8565b61117a828c611b3f565b52611185818b611b3f565b50611b9f565b949050898c6110b8565b909192979394506104a4578c96600481036111f3575050506111e0600193926111e66111ed93604051926111c88461199d565b878060a01b031683525f602084015280938491611b9f565b98611b3f565b528b611b3f565b506110be565b600281036113ac5750506112088a82856122e3565b611240575b600193926111e66111ed936111e093604051936112298561199d565b888060a01b03168452602084015280938491611b9f565b9694506001600160a01b0361125483611c1e565b169460405163182df0f560e01b81526020816004818a5afa908115610434578d978f91928e935f91611372575b508b6112ef5750936112e1846111858160019a99966111626112d16111e6986111ed9c6112b36111e09d5f1993611b3f565b5260405163095ea7b360e01b60208201529283913060248401611bc7565b6112db8383611b3f565b52611b3f565b9a935093505092935061120d565b969592509293975050670de0b6b3a76400008902898104670de0b6b3a76400000361135e578561131e91611bad565b5f19810190811161135e578d978f858f81611185916111626112d16112e1966111e09b60019f6111ed9e6113586112b3926111e69e611b81565b93611b3f565b634e487b7160e01b5f52601160045260245ffd5b9950509150506020873d82116113a4575b81611390602093836119b8565b810103126104a4578d8c918e98515f611281565b3d9150611383565b6003810361146c5750508a8d6113c18c61225b565b6113e4575b5050600193926111e66111ed936111e093604051936112298561199d565b6111ed9361145c8b6111858160019a99966111e0989f966114306111e6988e8060a01b037f00000000000000000000000000000000000000000000000000000000000000001692611b3f565b5260405163ddbf54fd60e01b602082015230602482015260448082018e905281526112d16064826119b8565b9a93509350509293508a8d6113c6565b929650929392919050600581036115515750602061149e60406001600160a01b0361149687611c1e565b169301611b0e565b6040516395dd919360e01b81526001600160a01b03909116600482015291829060249082905afa908115610434575f91611520575b506103e98102908082046103e9149015171561135e576111e06001936111e68d976103e86111ed95604051946115088661199d565b898060a01b0316855204602084015280938491611b9f565b90506020813d8211611549575b8161153a602093836119b8565b810103126104a457518d6114d3565b3d915061152d565b600614611563575b50600191506110be565b61158160406001600160a01b0361157986611c1e565b169201611b0e565b6040516370a0823160e01b81526001600160a01b03909116600482015290602082602481845afa918215610434575f92611666575b5060206004916040519283809263182df0f560e01b82525afa908115610434575f9161162d575b506115f190670de0b6b3a764000092611b6e565b046103e98102908082046103e9149015171561135e576111e06001936111e68d976103e861162695604051946115088661199d565b508c611559565b90506020813d821161165e575b81611647602093836119b8565b810103126104a45751670de0b6b3a76400006115dd565b3d915061163a565b9091506020813d8211611692575b81611681602093836119b8565b810103126104a457519060206115b6565b3d9150611674565b50505f600184146110a0565b6020906040516116b58161199d565b5f81525f8382015282828b01015201611020565b6116d4818985611ad8565b908135600a8110156104a457878685925f906002811491821561178e575b8215611774575b821561175a575b821561173f575b505091611726939160019661171f9461172e57612178565b8951611bad565b885201610fd8565b6117388c51611b9f565b8c52612178565b935093505050610b7b57839088908790600614816001611707565b93509350505080610b7b5786899183600588951491611700565b93509350505080610b7b57868991836004889514916116f9565b506003811491505f6116f2565b346104a4575f3660031901126104a4577f00000000000000000000000000000000000000000000000000000000000000006001600160a01b03168152602090f35b35906001600160a01b03821682036104a457565b9181601f840112156104a4578235916001600160401b0383116104a4576020808501948460061b0101116104a457565b9060606003198301126104a457600435916001600160401b0383116104a457806023840112156104a4576004830135926001600160401b0384116104a4578160248560051b830101116104a4576024908101939290356001600160a01b03811681036104a45791604435906001600160401b0382116104a4576118a5916004016117f0565b9091565b90602080835192838152019201905f5b8181106118c65750505090565b82516001600160a01b03168452602093840193909201916001016118b9565b9080602083519182815201916020808360051b8301019401925f915b83831061191057505050505090565b909192939460208080600193601f19868203018752818a518051918291828552018484015e5f828201840152601f01601f191601019701959491909101920190611901565b90602080835192838152019201905f5b8181106119725750505090565b825180516001600160a01b031685526020908101518186015260409094019390920191600101611965565b604081019081106001600160401b038211176103f157604052565b601f909101601f19168101906001600160401b038211908210176103f157604052565b6001600160401b0381116103f15760051b60200190565b906119fc826119db565b611a0960405191826119b8565b8281528092611a1a601f19916119db565b0190602036910137565b90611a2e826119db565b611a3b60405191826119b8565b8281528092611a4c601f19916119db565b01905f5b828110611a5c57505050565b806060602080938501015201611a50565b60408051909190611a7e83826119b8565b6001815291601f1901825f5b828110611a9657505050565b602090604051611aa58161199d565b5f81525f8382015282828501015201611a8a565b908160209103126104a457516001600160a01b03811681036104a45790565b9190811015611afa5760051b8101359060be19813603018212156104a4570190565b634e487b7160e01b5f52603260045260245ffd5b356001600160a01b03811681036104a45790565b9190811015611afa5760061b0190565b805115611afa5760200190565b8051821015611afa5760209160051b010190565b6001600160401b0381116103f157601f01601f191660200190565b8181029291811591840414171561135e57565b8115611b8b570490565b634e487b7160e01b5f52601260045260245ffd5b5f19811461135e5760010190565b9190820180921161135e57565b9190820391821161135e57565b6001600160a01b039091168152602081019190915260400190565b611c17611c1c9392611c0960405194859263a9059cbb60e01b602085015260248401611bc7565b03601f1981018452836119b8565b61244b565b565b60405163b0772d0b60e01b81525f816004817f00000000000000000000000000000000000000000000000000000000000000006001600160a01b03165afa908115610434575f91611d47575b505f5b8151811015611d0857600460206001600160a01b03611c8c8486611b3f565b511660405192838092636f307dc360e01b82525afa5f9181611ce8575b50611cb8575b50600101611c6d565b6001600160a01b03848116911614611cd0575f611caf565b6001600160a01b039250611ce391611b3f565b511690565b611d0191925060203d8111610fa457610f9681836119b8565b905f611ca9565b60405162461bcd60e51b815260206004820152601760248201527615995b9d5cce881d951bdad95b881b9bdd08199bdd5b99604a1b6044820152606490fd5b90503d805f833e611d5881836119b8565b8101906020818303126104a4578051906001600160401b0382116104a457019080601f830112156104a457815190611d8f826119db565b92611d9d60405194856119b8565b82845260208085019360051b8201019182116104a457602001915b818310611dc8575050505f611c6a565b82516001600160a01b03811681036104a457815260209283019201611db8565b908160209103126104a4575180151581036104a45790565b6001600160a01b03918216815291166020820152604081019190915260600190565b15611e2957565b60405162461bcd60e51b815260206004820152601460248201527315995b9d5cce881c995919595b4819985a5b195960621b6044820152606490fd5b919291906001600160a01b03611e7a83611c1e565b6040516370a0823160e01b81526001600160a01b0384166004820152911694602082602481895afa918215610434575f92612144575b5060405163bd6d894d60e01b8152916020836004815f8b5af1928315610434575f93612110575b50670de0b6b3a7640000611eeb8483611b6e565b048210801590612108575b6120e05750670de0b6b3a7640000810290808204670de0b6b3a7640000149015171561135e5781611f2691611bad565b5f1981019190821161135e57611f41602091611f6093611b81565b809360405193849283926323b872dd60e01b8452309060048501611e00565b03815f895af18015610434576120c3575b506040516370a0823160e01b81523060048201526001600160a01b038316949091602083602481895afa928315610434575f9361208f575b505f916024602092604051948593849263db006a7560e01b845260048401525af18015610434575f9061205b575b611fe2915015611e22565b6040516370a0823160e01b8152306004820152602081602481885afa908115610434575f91612027575b506120239161201a91611bba565b80943390611be2565b9190565b90506020813d602011612053575b81612042602093836119b8565b810103126104a4575161202361200c565b3d9150612035565b506020813d602011612087575b81612075602093836119b8565b810103126104a457611fe29051611fd7565b3d9150612068565b9092506020813d6020116120bb575b816120ab602093836119b8565b810103126104a45751915f611fa9565b3d915061209e565b6120db9060203d60201161042d5761041e81836119b8565b611f71565b611f60925060209150809360405193849283926323b872dd60e01b8452309060048501611e00565b508115611ef6565b9092506020813d60201161213c575b8161212c602093836119b8565b810103126104a45751915f611ed7565b3d915061211f565b9091506020813d602011612170575b81612160602093836119b8565b810103126104a45751905f611eb0565b3d9150612153565b926121849192846121f6565b923592600a8410156104a4575f841580156121ea575b156121b95750506121ab9250612420565b156121b557600190565b5f90565b9190916104a457600284036121d2576121ab93506122e3565b5050906003146121e157505f90565b6121ab9061225b565b50505f6001851461219a565b91929061220560208401611b0e565b9360a060608501359401359080821061221d57505050565b8295506020939450612236610bbc838361223c96611b22565b95611b22565b013590565b6001600160a01b0391821681529116602082015260400190565b602061227d9160405180938192630217306760e31b8352309060048401612241565b03817f00000000000000000000000000000000000000000000000000000000000000006001600160a01b03165afa5f91816122c2575b506122be5750600190565b1590565b6122dc91925060203d60201161042d5761041e81836119b8565b905f6122b3565b9091906001600160a01b03906122f890611c1e565b169060405163182df0f560e01b8152602081600481865afa908115610434575f916123ee575b5083159384156123a75750506020612351915f19935b6040518080958194636eb1769f60e11b8352309060048401612241565b03915afa908115610434575f91612375575b50821561236f57505090565b10919050565b90506020813d60201161239f575b81612390602093836119b8565b810103126104a457515f612363565b3d9150612383565b670de0b6b3a76400008102908104670de0b6b3a76400000361135e57816123cd91611bad565b5f1981019290831161135e576123e860209261235194611b81565b93612334565b90506020813d602011612418575b81612409602093836119b8565b810103126104a457515f61231e565b3d91506123fc565b61227d9161242f602092611c1e565b60405163929fe9a160e01b815293849283929060048401612241565b5f806124939260018060a01b03169360208151910182865af13d156124d6573d9061247582611b53565b9161248360405193846119b8565b82523d5f602084013e5b83612524565b80519081151591826124bb575b50506124a95750565b635274afe760e01b5f5260045260245ffd5b6124ce9250602080918301019101611de8565b155f806124a0565b60609061248d565b60025f54146124ed5760025f55565b633ee5aeb560e01b5f5260045ffd5b90611c1790611c09611c1c956040519586936323b872dd60e01b602086015260248501611e00565b90612548575080511561253957805190602001fd5b630a12f52160e11b5f5260045ffd5b81511580612579575b612559575090565b639996b31560e01b5f9081526001600160a01b0391909116600452602490fd5b50803b1561255156fea2646970667358221220ce545a8ac5a22cd7840621cc2d8cb8d8a38591525f277460143bd63ea7e6d04064736f6c634300081e0033",
  "devdoc": {
    "errors": {
      "AddressEmptyCode(address)": [
        {
          "details": "There's no code at `target` (it is not a contract)."
        }
      ],
      "AddressInsufficientBalance(address)": [
        {
          "details": "The ETH balance of the account is not enough to perform the operation."
        }
      ],
      "FailedInnerCall()": [
        {
          "details": "A call to an address target failed. The target may have reverted."
        }
      ],
      "ReentrancyGuardReentrantCall()": [
        {
          "details": "Unauthorized reentrant call."
        }
      ],
      "SafeERC20FailedOperation(address)": [
        {
          "details": "An operation with an ERC20 token failed."
        }
      ]
    },
    "kind": "dev",
    "methods": {},
    "version": 1
  },
  "userdoc": {
    "kind": "user",
    "methods": {
      "ROUTER()": {
        "notice": "Immutable router address that can call protected functions"
      },
      "authorize((uint8,address,address,uint256,bytes,(uint256))[],address,(address,uint256)[])": {
        "notice": "Return user-side authorization calls for the given lending instructions.         One element per input (or (address(0), bytes(\"\")) if none needed).         Also returns the produced outputs from the simulation of these instructions."
      },
      "recoverTokens(address,address,uint256)": {
        "notice": "Recover stuck tokens (only callable by router's owner)"
      }
    },
    "version": 1
  },
  "storageLayout": {
    "storage": [
      {
        "astId": 3093,
        "contract": "contracts/v2/gateways/venus/VenusGatewayWrite.sol:VenusGatewayWrite",
        "label": "_status",
        "offset": 0,
        "slot": "0",
        "type": "t_uint256"
      }
    ],
    "types": {
      "t_uint256": {
        "encoding": "inplace",
        "label": "uint256",
        "numberOfBytes": "32"
      }
    }
  }
}