{
  "address": "0x5993c8f2167c1F5C01137aC28D3CB152B439890f",
  "abi": [
    {
      "inputs": [
        {
          "internalType": "address",
          "name": "router",
          "type": "address"
        },
        {
          "internalType": "address",
          "name": "_comptroller",
          "type": "address"
        }
      ],
      "stateMutability": "nonpayable",
      "type": "constructor"
    },
    {
      "inputs": [
        {
          "internalType": "address",
          "name": "target",
          "type": "address"
        }
      ],
      "name": "AddressEmptyCode",
      "type": "error"
    },
    {
      "inputs": [
        {
          "internalType": "address",
          "name": "account",
          "type": "address"
        }
      ],
      "name": "AddressInsufficientBalance",
      "type": "error"
    },
    {
      "inputs": [],
      "name": "FailedInnerCall",
      "type": "error"
    },
    {
      "inputs": [],
      "name": "ReentrancyGuardReentrantCall",
      "type": "error"
    },
    {
      "inputs": [
        {
          "internalType": "address",
          "name": "token",
          "type": "address"
        }
      ],
      "name": "SafeERC20FailedOperation",
      "type": "error"
    },
    {
      "inputs": [],
      "name": "ROUTER",
      "outputs": [
        {
          "internalType": "address",
          "name": "",
          "type": "address"
        }
      ],
      "stateMutability": "view",
      "type": "function"
    },
    {
      "inputs": [
        {
          "components": [
            {
              "internalType": "enum ProtocolTypes.LendingOp",
              "name": "op",
              "type": "uint8"
            },
            {
              "internalType": "address",
              "name": "token",
              "type": "address"
            },
            {
              "internalType": "address",
              "name": "user",
              "type": "address"
            },
            {
              "internalType": "uint256",
              "name": "amount",
              "type": "uint256"
            },
            {
              "internalType": "bytes",
              "name": "context",
              "type": "bytes"
            },
            {
              "components": [
                {
                  "internalType": "uint256",
                  "name": "index",
                  "type": "uint256"
                }
              ],
              "internalType": "struct ProtocolTypes.InputPtr",
              "name": "input",
              "type": "tuple"
            }
          ],
          "internalType": "struct ProtocolTypes.LendingInstruction[]",
          "name": "instrs",
          "type": "tuple[]"
        },
        {
          "internalType": "address",
          "name": "caller",
          "type": "address"
        },
        {
          "components": [
            {
              "internalType": "address",
              "name": "token",
              "type": "address"
            },
            {
              "internalType": "uint256",
              "name": "amount",
              "type": "uint256"
            }
          ],
          "internalType": "struct ProtocolTypes.Output[]",
          "name": "inputs",
          "type": "tuple[]"
        }
      ],
      "name": "authorize",
      "outputs": [
        {
          "internalType": "address[]",
          "name": "targets",
          "type": "address[]"
        },
        {
          "internalType": "bytes[]",
          "name": "data",
          "type": "bytes[]"
        },
        {
          "components": [
            {
              "internalType": "address",
              "name": "token",
              "type": "address"
            },
            {
              "internalType": "uint256",
              "name": "amount",
              "type": "uint256"
            }
          ],
          "internalType": "struct ProtocolTypes.Output[]",
          "name": "produced",
          "type": "tuple[]"
        }
      ],
      "stateMutability": "view",
      "type": "function"
    },
    {
      "inputs": [
        {
          "internalType": "address",
          "name": "token",
          "type": "address"
        },
        {
          "internalType": "address",
          "name": "user",
          "type": "address"
        },
        {
          "internalType": "uint256",
          "name": "amount",
          "type": "uint256"
        }
      ],
      "name": "borrow",
      "outputs": [],
      "stateMutability": "nonpayable",
      "type": "function"
    },
    {
      "inputs": [],
      "name": "comptroller",
      "outputs": [
        {
          "internalType": "contract ComptrollerInterface",
          "name": "",
          "type": "address"
        }
      ],
      "stateMutability": "view",
      "type": "function"
    },
    {
      "inputs": [
        {
          "components": [
            {
              "internalType": "enum ProtocolTypes.LendingOp",
              "name": "op",
              "type": "uint8"
            },
            {
              "internalType": "address",
              "name": "token",
              "type": "address"
            },
            {
              "internalType": "address",
              "name": "user",
              "type": "address"
            },
            {
              "internalType": "uint256",
              "name": "amount",
              "type": "uint256"
            },
            {
              "internalType": "bytes",
              "name": "context",
              "type": "bytes"
            },
            {
              "components": [
                {
                  "internalType": "uint256",
                  "name": "index",
                  "type": "uint256"
                }
              ],
              "internalType": "struct ProtocolTypes.InputPtr",
              "name": "input",
              "type": "tuple"
            }
          ],
          "internalType": "struct ProtocolTypes.LendingInstruction[]",
          "name": "instrs",
          "type": "tuple[]"
        },
        {
          "internalType": "address",
          "name": "",
          "type": "address"
        }
      ],
      "name": "deauthorize",
      "outputs": [
        {
          "internalType": "address[]",
          "name": "targets",
          "type": "address[]"
        },
        {
          "internalType": "bytes[]",
          "name": "data",
          "type": "bytes[]"
        }
      ],
      "stateMutability": "view",
      "type": "function"
    },
    {
      "inputs": [
        {
          "internalType": "address",
          "name": "token",
          "type": "address"
        },
        {
          "internalType": "address",
          "name": "user",
          "type": "address"
        },
        {
          "internalType": "uint256",
          "name": "amount",
          "type": "uint256"
        }
      ],
      "name": "deposit",
      "outputs": [],
      "stateMutability": "nonpayable",
      "type": "function"
    },
    {
      "inputs": [
        {
          "components": [
            {
              "internalType": "address",
              "name": "token",
              "type": "address"
            },
            {
              "internalType": "uint256",
              "name": "amount",
              "type": "uint256"
            }
          ],
          "internalType": "struct ProtocolTypes.Output[]",
          "name": "inputs",
          "type": "tuple[]"
        },
        {
          "internalType": "bytes",
          "name": "data",
          "type": "bytes"
        }
      ],
      "name": "processLendingInstruction",
      "outputs": [
        {
          "components": [
            {
              "internalType": "address",
              "name": "token",
              "type": "address"
            },
            {
              "internalType": "uint256",
              "name": "amount",
              "type": "uint256"
            }
          ],
          "internalType": "struct ProtocolTypes.Output[]",
          "name": "outputs",
          "type": "tuple[]"
        }
      ],
      "stateMutability": "nonpayable",
      "type": "function"
    },
    {
      "inputs": [
        {
          "internalType": "address",
          "name": "token",
          "type": "address"
        },
        {
          "internalType": "address",
          "name": "user",
          "type": "address"
        },
        {
          "internalType": "uint256",
          "name": "amount",
          "type": "uint256"
        }
      ],
      "name": "repay",
      "outputs": [
        {
          "internalType": "uint256",
          "name": "refund",
          "type": "uint256"
        }
      ],
      "stateMutability": "nonpayable",
      "type": "function"
    },
    {
      "inputs": [
        {
          "internalType": "address",
          "name": "collateral",
          "type": "address"
        },
        {
          "internalType": "address",
          "name": "user",
          "type": "address"
        },
        {
          "internalType": "uint256",
          "name": "underlyingAmount",
          "type": "uint256"
        }
      ],
      "name": "withdrawCollateral",
      "outputs": [
        {
          "internalType": "address",
          "name": "",
          "type": "address"
        },
        {
          "internalType": "uint256",
          "name": "",
          "type": "uint256"
        }
      ],
      "stateMutability": "nonpayable",
      "type": "function"
    }
  ],
  "transactionHash": "0x2eecafa772437bbfd899242ebe3f23c8648a55e34a7d1806a40e98d83f13bda1",
  "args": [
    "0x27Dd6baEA6db73be2ABdf3Ddb631d5aEeb184870",
    "0x0C7973F9598AA62f9e03B94E92C967fD5437426C"
  ],
  "numDeployments": 12,
  "solcInputHash": "25573c45148b383f2c4e8938a6e41d8d",
  "bytecode": "0x60c03461011a57601f612d2138819003918201601f19168301916001600160401b0383118484101761011e57808492604094855283398101031261011a57610052602061004b83610132565b9201610132565b906001600160a01b038116156100ea5760805260015f556001600160a01b031660a052604051612bda908161014782396080518181816102d20152818161063b015281816106f901528181610ad801528181611b8101528181611c3d01528181611c810152611f11015260a051818181610d1101528181610f750152818161131b015281816117b701528181611a5c01526128480152f35b60405162461bcd60e51b81526020600482015260086024820152670726f757465723d360c41b6044820152606490fd5b5f80fd5b634e487b7160e01b5f52604160045260245ffd5b51906001600160a01b038216820361011a5756fe60c06040526004361015610011575f80fd5b5f3560e01c80631da649cf14611cec5780632ae8bdfe14611c6c57806332fe7b2614611c285780635224372c14611b6357806352ed587514610d405780635fe3b56714610cfc5780638340f54914610ac4578063ae4be46d146100f95763eaa835251461007c575f80fd5b346100f55760403660031901126100f5576004356001600160401b0381116100f5576100af6100e3913690600401611d71565b90506100b9611d0d565b506100f16100cf6100c983612713565b92612745565b604051938493604085526040850190611dd1565b908382036020850152611e0d565b0390f35b5f80fd5b346100f55760403660031901126100f5576004356001600160401b0381116100f557610129903690600401611da1565b6024356001600160401b0381116100f557366023820112156100f55780600401356001600160401b0381116100f557810191602483013681116100f5576060926020818603126100f55760248101356001600160401b0381116100f55701938490039460c086126100f5576040519260c084018481106001600160401b038211176104ac57604052602486013560078110156100f55784526101cd60448701611d23565b92602085019384526101e160648801611d23565b95604086019687528501976084880135895260a48801356001600160401b0381116100f5576024908901019180601f840112156100f5578235610223816127fb565b916102316040519384612203565b818352602082860101116100f5576020815f928280970183860137830101526080870152609f1901126100f5576040519560208701908782106001600160401b038311176104ac5760c4916040520135865260a084019286845260018060a01b0390511696519551818110610a91575b5050505080516007811015610a6957158015610a7d575b1561060b5750516001600160a01b0390811691906102f9907f0000000000000000000000000000000000000000000000000000000000000000163314611ec5565b610301612816565b61030a83612834565b6001600160a01b039093169261032282303387612a27565b60405163095ea7b360e01b815260018060a01b038216948560048301525f60248301526020826044815f855af19081156104ef5761039c9360209386936105f0575b5060405163095ea7b360e01b81526001600160a01b0390911660048201526024810192909252909283919082905f9082906044820190565b03925af180156104ef576105d3575b506040519063140e25ad60e31b825260048201526020816024815f875af19081156104ef575f916105a1575b50610567576040516370a0823160e01b8152306004820152602081602481865afa9081156104ef575f91610535575b5080156104fa5760405163a9059cbb60e01b81526001600160a01b03929092166004830152602482015290602090829060449082905f905af180156104ef576104c0575b5060015f55604051602061045e8183612203565b5f8252601f19015f5b8181106104895750506100f1905b604051918291602083526020830190611e7d565b602090604051610498816121e8565b5f81525f8382015282828601015201610467565b634e487b7160e01b5f52604160045260245ffd5b6104e19060203d6020116104e8575b6104d98183612203565b810190612224565b508061044a565b503d6104cf565b6040513d5f823e3d90fd5b60405162461bcd60e51b815260206004820152601360248201527256656e75733a207a65726f2076546f6b656e7360681b6044820152606490fd5b90506020813d60201161055f575b8161055060209383612203565b810103126100f5575183610406565b3d9150610543565b60405162461bcd60e51b815260206004820152601260248201527115995b9d5cce881b5a5b9d0819985a5b195960721b6044820152606490fd5b90506020813d6020116105cb575b816105bc60209383612203565b810103126100f55751836103d7565b3d91506105af565b6105eb9060203d6020116104e8576104d98183612203565b6103ab565b61060690853d87116104e8576104d98183612203565b610364565b80939293516007811015610a69576002036106c75750516100f19261067a9290916001600160a01b0390811691907f000000000000000000000000000000000000000000000000000000000000000016331480156106be575b61066d90612249565b610675612816565b612316565b9060015f5561068761278e565b9160405191610695836121e8565b6001600160a01b0316825260208201526106ae826127da565b526106b8816127da565b50610475565b50338214610664565b80939193516007811015610a6957600303610848575091519091906107789060209083906001600160a01b03908116907f0000000000000000000000000000000000000000000000000000000000000000163314801561083f575b61072b90612249565b610733612816565b6001600160a01b0361074487612834565b16905f60405180968195829463856e5bb360e01b84526004840160209093929193604081019460018060a01b031681520152565b03925af19081156104ef575f9161080d575b506107d1576100f1916001600160a01b03166107a7823383612a7a565b60015f556107b361278e565b91604051916107c1836121e8565b825260208201526106ae826127da565b60405162461bcd60e51b815260206004820152601460248201527315995b9d5cce88189bdc9c9bddc819985a5b195960621b6044820152606490fd5b90506020813d602011610837575b8161082860209383612203565b810103126100f557518361078a565b3d915061081b565b50338114610722565b80516007811015610a695760040361087d575091516100f192610874916001600160a01b031683611f08565b9061068761278e565b809150516007811015610a695760050361092257505f9160209060246001600160a01b036108aa85612834565b92516040516305eff7ef60e21b81526001600160a01b0390911660048201529586938492165af19081156104ef575f916108ec575b6100f1925061068761278e565b90506020823d60201161091a575b8161090760209383612203565b810103126100f5576100f19151906108df565b3d91506108fa565b516007811015610a6957600603610a30576001600160a01b0361094482612834565b92516040516370a0823160e01b81526001600160a01b0390911660048201529216602083602481845afa9283156104ef575f936109fb575b509160206004936040519485809263182df0f560e01b82525afa9283156104ef575f936109c5575b506109bb6100f193670de0b6b3a7640000926122d8565b049061068761278e565b92506020833d6020116109f3575b816109e060209383612203565b810103126100f5579151916109bb6109a4565b3d91506109d3565b92506020833d602011610a28575b81610a1660209383612203565b810103126100f557915191602061097c565b3d9150610a09565b60405162461bcd60e51b8152602060048201526011602482015270056656e75733a20756e6b6e6f776e206f7607c1b6044820152606490fd5b634e487b7160e01b5f52602160045260245ffd5b5080516007811015610a69576001146102b8565b610ab89397506020949650610aaa610aaf9183856126ec565b6126d8565b965151916126ec565b013591848080806102a1565b346100f557610ad236611d37565b610b06337f00000000000000000000000000000000000000000000000000000000000000006001600160a01b031614611ec5565b610b0e612816565b610b1783612834565b6001600160a01b0390931692610b2f82303387612a27565b60405163095ea7b360e01b815260018060a01b038216948560048301525f60248301526020826044815f855af19081156104ef57610ba89360209386936105f0575060405163095ea7b360e01b81526001600160a01b0390911660048201526024810192909252909283919082905f9082906044820190565b03925af180156104ef57610cdf575b506040519063140e25ad60e31b825260048201526020816024815f875af19081156104ef575f91610cad575b50610567576040516370a0823160e01b8152306004820152602081602481865afa9081156104ef575f91610c7b575b5080156104fa5760405163a9059cbb60e01b81526001600160a01b03929092166004830152602482015290602090829060449082905f905af180156104ef57610c5c575b60015f55005b610c749060203d6020116104e8576104d98183612203565b5080610c56565b90506020813d602011610ca5575b81610c9660209383612203565b810103126100f5575183610c12565b3d9150610c89565b90506020813d602011610cd7575b81610cc860209383612203565b810103126100f5575183610be3565b3d9150610cbb565b610cf79060203d6020116104e8576104d98183612203565b610bb7565b346100f5575f3660031901126100f5576040517f00000000000000000000000000000000000000000000000000000000000000006001600160a01b03168152602090f35b346100f55760603660031901126100f5576004356001600160401b0381116100f557610d70903690600401611d71565b610d78611d0d565b916044356001600160401b0381116100f557610d98903690600401611da1565b90925f935f5f5b83811061167c575080610db4610dbc92612713565b608052612745565b60a052610dc8856126fc565b94610dd66040519687612203565b808652610de5601f19916126fc565b015f5b8181106116595750505f955f925f5b818110610e3c576100f18860405191829160608352610e2e610e1e60608501608051611dd1565b848103602086015260a051611e0d565b908382036040850152611e7d565b610e47818389612694565b610e53602082016126d8565b60608201359160a0810135898110611631575b5080359060078210156100f5575f9082158015611624575b8015611613575b1561113b5750831593841561110d57505f5b604051636eb1769f60e11b81526001600160a01b038981166004830152306024830152851695906020816044818a5afa80156104ef5783915f916110d9575b5082156110cf575b5050611086575b506100f557600414908115610f45575b50610f06575b506001905b01610df7565b60019195610f3e9160405190610f1b826121e8565b81525f6020820152610f2d828c6127e7565b52610f38818b6127e7565b506126ca565b9490610efb565b610f4e90612834565b60405163929fe9a160e01b81526001600160a01b03878116600483015282811660248301527f000000000000000000000000000000000000000000000000000000000000000016905f90602081604481865afa5f9181611066575b5061105e575b5015610fbc575b50610ef5565b61103d611056939d9261102f92604090815192610fd98385612203565b60018452601f198301366020860137610ff1846127da565b6001600160a01b03909116905260805161100c9087906127e7565b5251928391631853304760e31b6020840152602060248401526044830190611dd1565b03601f198101835282612203565b6110498260a0516127e7565b52610f388160a0516127e7565b998b80610fb6565b90508e610faf565b61107f91925060203d81116104e8576104d98183612203565b905f610fa9565b9c61102f61103d6110c8939f8761109f856080516127e7565b5260405163095ea7b360e01b602082015230602482015260448101919091529182906064820190565b9b8d610ee5565b109050815f610ede565b9150506020813d8211611105575b816110f460209383612203565b810103126100f5578290515f610ed6565b3d91506110e7565b6103e981029081046103e903611127576103e89004610e97565b634e487b7160e01b5f52601160045260245ffd5b91909894989392936100f557600281036112ec57506001600160a01b03905061116383612834565b1660405163182df0f560e01b8152602081600481855afa9081156104ef575f916112bb575b508261127a57505f19905b604051636eb1769f60e11b81526001600160a01b0388166004820152306024820152602081604481855afa9081156104ef575f91611249575b50828415918561123f575b5050611213575b50509161120d91600193604051916111f5836121e8565b858060a01b031682526020820152610f2d828c6127e7565b94610f00565b8c61102f61103d600197959f946112349461109f61120d99976080516127e7565b9b91938193506111de565b109050828f6111d7565b90506020813d8211611272575b8161126360209383612203565b810103126100f557518e6111cc565b3d9150611256565b670de0b6b3a76400008302838104670de0b6b3a76400000361112757816112a0916122eb565b5f19810191908211611127576112b5916122f8565b90611193565b90506020813d82116112e4575b816112d560209383612203565b810103126100f557518d611188565b3d91506112c8565b600381036113e9575050604051630217306760e31b81526001600160a01b0386811660048301523060248301527f000000000000000000000000000000000000000000000000000000000000000016905f90602081604481865afa5f91816113c9575b506113c1575b5015611372575b509161120d91600193604051916111f5836121e8565b916113b78c61120d9461138b600197959f6080516127e7565b5260405163ddbf54fd60e01b60208201523060248201526044808201889052815261103d606482612203565b9b9193509161135c565b90508d611355565b6113e291925060203d81116104e8576104d98183612203565b908f61134f565b9092939150600581145f146114c75750602061141960406001600160a01b0361141187612834565b1694016126d8565b6040516395dd919360e01b81526001600160a01b03909116600482015292839060249082905afa9182156104ef575f92611494575b506103e98202918083046103e91490151715611127576001926103e861120d936040519261147b846121e8565b868060a01b03168352046020820152610f2d828c6127e7565b9091506020813d82116114bf575b816114af60209383612203565b810103126100f55751908b61144e565b3d91506114a2565b90969291906006146114de575b5050600190610f00565b9195909161150060406001600160a01b036114f886612834565b1692016126d8565b6040516370a0823160e01b81526001600160a01b03909116600482015290602082602481845afa9182156104ef575f926115df575b5060206004916040519283809263182df0f560e01b82525afa9081156104ef575f916115a6575b5061157090670de0b6b3a7640000926122d8565b04906103e98202918083046103e91490151715611127576001926103e861159e936040519261147b846121e8565b94908a6114d4565b90506020813d82116115d7575b816115c060209383612203565b810103126100f55751670de0b6b3a764000061155c565b3d91506115b3565b9091506020813d821161160b575b816115fa60209383612203565b810103126100f55751906020611535565b3d91506115ed565b50906100f5575f9060048314610e85565b505f915060018314610e7e565b915091506020611650611648610aaa848c8b6126ec565b928a896126ec565b0135918c610e66565b602090604051611668816121e8565b5f81525f8382015282828a01015201610de8565b611687818588612694565b803560078110156100f5575f916002821490818015611b56575b8015611b45575b8015611b34575b8015611b23575b611b13575b6116c7602082016126d8565b9360a060608301359201358a8110611aeb575b506100f5575f9183158015611ade575b8015611acd575b1561189b5750801590811561187b57505f61173860208e5b604051636eb1769f60e11b81526001600160a01b03909116600482015230602482015291829081906044820190565b03816001600160a01b038a165afa9081156104ef575f9161184a575b508215611840575b5050611830575b6100f5576003190161177b575b506001905b01610d9f565b61178490612834565b60405163929fe9a160e01b81526001600160a01b038a8116600483015291821660248201525f91602090829060449082907f0000000000000000000000000000000000000000000000000000000000000000165afa5f9181611810575b50611808575b50156117f4575b88611770565b906118006001916126ca565b9190506117ee565b9050896117e7565b61182991925060203d81116104e8576104d98183612203565b908b6117e1565b9361183a906126ca565b93611763565b1090508c8061175c565b90506020813d8211611873575b8161186460209383612203565b810103126100f557518e611754565b3d9150611857565b6103e981029081046103e903611127576103e8900461173860208e611709565b909392916100f55715611a1957506001600160a01b03906118bb90612834565b1660405163182df0f560e01b8152602081600481855afa9081156104ef575f916119e8575b5082159283156119a157505061192960208b5f19935b604051636eb1769f60e11b81526001600160a01b0390921660048301523060248301529092839190829081906044820190565b03915afa9081156104ef575f91611970575b508215611966575b5050611952575b600190611775565b9061195e6001916126ca565b91905061194a565b1090508980611943565b90506020813d8211611999575b8161198a60209383612203565b810103126100f557518b61193b565b3d915061197d565b670de0b6b3a76400008102908104670de0b6b3a76400000361112757816119c7916122eb565b5f198101908111611127578b6119e2611929936020936122f8565b936118f6565b90506020813d8211611a11575b81611a0260209383612203565b810103126100f557518b6118e0565b3d91506119f5565b90506003915014611a2c57600190611775565b604051630217306760e31b81526001600160a01b03891660048201523060248201525f90602081806044810103817f00000000000000000000000000000000000000000000000000000000000000006001600160a01b03165afa5f9181611aad575b50611aa5575b5061194a579061195e6001916126ca565b905089611a94565b611ac691925060203d81116104e8576104d98183612203565b908b611a8e565b50916100f5575f91600484146116f1565b505f9250600184146116ea565b945090506020611b0a611b02610aaa878d8c6126ec565b958b8a6126ec565b0135908d6116da565b99611b1d906126ca565b996116bb565b50926100f5575f92600683146116b6565b50926100f5575f92600583146116af565b50926100f5575f92600483146116a8565b505f9350600383146116a1565b346100f5576020611bb9611b7636611d37565b9193919291908390337f00000000000000000000000000000000000000000000000000000000000000006001600160a01b0316148015611c165761072b90612249565b03925af19081156104ef575f91611be4575b506107d157610c569133906001600160a01b0316612a7a565b90506020813d602011611c0e575b81611bff60209383612203565b810103126100f5575183611bcb565b3d9150611bf2565b50336001600160a01b03821614610722565b346100f5575f3660031901126100f5576040517f00000000000000000000000000000000000000000000000000000000000000006001600160a01b03168152602090f35b346100f557611cb9611c7d36611d37565b91337f00000000000000000000000000000000000000000000000000000000000000006001600160a01b0316148015611cda5761066d90612249565b60015f55604080516001600160a01b03939093168352602083019190915290f35b50336001600160a01b03831614610664565b346100f5576020611d05611cff36611d37565b91611f08565b604051908152f35b602435906001600160a01b03821682036100f557565b35906001600160a01b03821682036100f557565b60609060031901126100f5576004356001600160a01b03811681036100f557906024356001600160a01b03811681036100f5579060443590565b9181601f840112156100f5578235916001600160401b0383116100f5576020808501948460051b0101116100f557565b9181601f840112156100f5578235916001600160401b0383116100f5576020808501948460061b0101116100f557565b90602080835192838152019201905f5b818110611dee5750505090565b82516001600160a01b0316845260209384019390920191600101611de1565b9080602083519182815201916020808360051b8301019401925f915b838310611e3857505050505090565b909192939460208080600193601f19868203018752818a518051918291828552018484015e5f828201840152601f01601f191601019701959491909101920190611e29565b90602080835192838152019201905f5b818110611e9a5750505090565b825180516001600160a01b031685526020908101518186015260409094019390920191600101611e8d565b15611ecc57565b60405162461bcd60e51b815260206004820152601460248201527313db9b1e481c9bdd5d195c8818d85b8818d85b1b60621b6044820152606490fd5b909190611f3f337f00000000000000000000000000000000000000000000000000000000000000006001600160a01b031614611ec5565b611f47612816565b611f5081612834565b6040516370a0823160e01b81523060048201526001600160a01b03909216939192909190602084602481885afa9384156104ef575f946121b4575b50611f9881303388612a27565b60405163095ea7b360e01b815260018060a01b038416908160048201525f60248201526020816044815f8b5af180156104ef5761200b956020928592612199575b5060405163095ea7b360e01b81526001600160a01b039091166004820152602481019190915294859081906044820190565b03815f8a5af19283156104ef5761205c9460209461217e575b506040516304c11f0360e31b81526001600160a01b0390911660048201526024810192909252909283919082905f9082906044820190565b03925af19081156104ef575f9161214c575b50612111576040516370a0823160e01b815230600482015290602082602481865afa9182156104ef575f926120dd575b50808211156120d4576120b09161223c565b905b81806120c2575b505060015f5590565b6120cd913390612a7a565b5f816120b9565b50505f906120b2565b9091506020813d602011612109575b816120f960209383612203565b810103126100f55751905f61209e565b3d91506120ec565b60405162461bcd60e51b815260206004820152601360248201527215995b9d5cce881c995c185e4819985a5b1959606a1b6044820152606490fd5b90506020813d602011612176575b8161216760209383612203565b810103126100f557515f61206e565b3d915061215a565b61219490853d87116104e8576104d98183612203565b612024565b6121af90843d86116104e8576104d98183612203565b611fd9565b9093506020813d6020116121e0575b816121d060209383612203565b810103126100f55751925f611f8b565b3d91506121c3565b604081019081106001600160401b038211176104ac57604052565b90601f801991011681019081106001600160401b038211176104ac57604052565b908160209103126100f5575180151581036100f55790565b9190820391821161112757565b1561225057565b60405162461bcd60e51b815260206004820152601c60248201527f4f6e6c7920726f75746572206f722073656c662063616e2063616c6c000000006044820152606490fd5b1561229c57565b60405162461bcd60e51b815260206004820152601460248201527315995b9d5cce881c995919595b4819985a5b195960621b6044820152606490fd5b8181029291811591840414171561112757565b9190820180921161112757565b8115612302570490565b634e487b7160e01b5f52601260045260245ffd5b919291906001600160a01b0361232b83612834565b6040516305eff7ef60e21b81526001600160a01b038416600482018190529190921695916020816024815f8b5af19081156104ef575f91612662575b508210156125c8575060405163bd6d894d60e01b8152906020826004815f8a5af19182156104ef575f92612594575b50670de0b6b3a7640000810290808204670de0b6b3a7640000149015171561112757816123c2916122eb565b5f19810191908211611127576123dd602091612414936122f8565b6040516323b872dd60e01b81526001600160a01b039094166004850152306024850152604484018190529291829081906064820190565b03815f895af180156104ef57612577575b506040516370a0823160e01b81523060048201526001600160a01b038316949091602083602481895afa9283156104ef575f93612543575b505f916024602092604051948593849263db006a7560e01b845260048401525af180156104ef575f9061250f575b612496915015612295565b6040516370a0823160e01b8152306004820152602081602481885afa9081156104ef575f916124db575b506124d7916124ce9161223c565b80943390612a7a565b9190565b90506020813d602011612507575b816124f660209383612203565b810103126100f557516124d76124c0565b3d91506124e9565b506020813d60201161253b575b8161252960209383612203565b810103126100f557612496905161248b565b3d915061251c565b9092506020813d60201161256f575b8161255f60209383612203565b810103126100f55751915f61245d565b3d9150612552565b61258f9060203d6020116104e8576104d98183612203565b612425565b9091506020813d6020116125c0575b816125b060209383612203565b810103126100f55751905f612396565b3d91506125a3565b919050604051916370a0823160e01b83526004830152602082602481885afa9182156104ef575f9261262d575b506040516323b872dd60e01b81526001600160a01b039091166004820152306024820152604481018290526020818060648101612414565b9091506020813d60201161265a575b8161264960209383612203565b810103126100f557519060206125f5565b3d915061263c565b90506020813d60201161268c575b8161267d60209383612203565b810103126100f557515f612367565b3d9150612670565b91908110156126b65760051b8101359060be19813603018212156100f5570190565b634e487b7160e01b5f52603260045260245ffd5b5f1981146111275760010190565b356001600160a01b03811681036100f55790565b91908110156126b65760061b0190565b6001600160401b0381116104ac5760051b60200190565b9061271d826126fc565b61272a6040519182612203565b828152809261273b601f19916126fc565b0190602036910137565b9061274f826126fc565b61275c6040519182612203565b828152809261276d601f19916126fc565b01905f5b82811061277d57505050565b806060602080938501015201612771565b6040805190919061279f8382612203565b6001815291601f1901825f5b8281106127b757505050565b6020906040516127c6816121e8565b5f81525f83820152828285010152016127ab565b8051156126b65760200190565b80518210156126b65760209160051b010190565b6001600160401b0381116104ac57601f01601f191660200190565b60025f54146128255760025f55565b633ee5aeb560e01b5f5260045ffd5b60405163b0772d0b60e01b81525f816004817f00000000000000000000000000000000000000000000000000000000000000006001600160a01b03165afa9081156104ef575f91612986575b505f5b815181101561294157600460206001600160a01b036128a284866127e7565b511660405192838092636f307dc360e01b82525afa5f91816128fe575b506128ce575b50600101612883565b6001600160a01b038481169116146128e6575f6128c5565b6001600160a01b0392506128f9916127e7565b511690565b9091506020813d8211612939575b8161291960209383612203565b810103126100f557516001600160a01b03811681036100f557905f6128bf565b3d915061290c565b60405162461bcd60e51b815260206004820152601760248201527f56656e75733a2076546f6b656e206e6f7420666f756e640000000000000000006044820152606490fd5b90503d805f833e6129978183612203565b8101906020818303126100f5578051906001600160401b0382116100f557019080601f830112156100f5578151906129ce826126fc565b926129dc6040519485612203565b82845260208085019360051b8201019182116100f557602001915b818310612a07575050505f612880565b82516001600160a01b03811681036100f5578152602092830192016129f7565b6040516323b872dd60e01b60208201526001600160a01b0392831660248201529290911660448301526064820192909252612a7891612a7382608481015b03601f198101845283612203565b612ab3565b565b60405163a9059cbb60e01b60208201526001600160a01b0390921660248301526044820192909252612a7891612a738260648101612a65565b5f80612afb9260018060a01b03169360208151910182865af13d15612b3e573d90612add826127fb565b91612aeb6040519384612203565b82523d5f602084013e5b83612b46565b8051908115159182612b23575b5050612b115750565b635274afe760e01b5f5260045260245ffd5b612b369250602080918301019101612224565b155f80612b08565b606090612af5565b90612b6a5750805115612b5b57805190602001fd5b630a12f52160e11b5f5260045ffd5b81511580612b9b575b612b7b575090565b639996b31560e01b5f9081526001600160a01b0391909116600452602490fd5b50803b15612b7356fea2646970667358221220aa9f92cba58c7367cbba0447273eb3f2949657d44666e7e7df84e43cee544bee64736f6c634300081e0033",
  "devdoc": {
    "errors": {
      "AddressEmptyCode(address)": [
        {
          "details": "There's no code at `target` (it is not a contract)."
        }
      ],
      "AddressInsufficientBalance(address)": [
        {
          "details": "The ETH balance of the account is not enough to perform the operation."
        }
      ],
      "FailedInnerCall()": [
        {
          "details": "A call to an address target failed. The target may have reverted."
        }
      ],
      "ReentrancyGuardReentrantCall()": [
        {
          "details": "Unauthorized reentrant call."
        }
      ],
      "SafeERC20FailedOperation(address)": [
        {
          "details": "An operation with an ERC20 token failed."
        }
      ]
    },
    "kind": "dev",
    "methods": {},
    "version": 1
  },
  "userdoc": {
    "kind": "user",
    "methods": {
      "ROUTER()": {
        "notice": "Immutable router address that can call protected functions"
      },
      "authorize((uint8,address,address,uint256,bytes,(uint256))[],address,(address,uint256)[])": {
        "notice": "Return user-side authorization calls for the given lending instructions.         One element per input (or (address(0), bytes(\"\")) if none needed).         Also returns the produced outputs from the simulation of these instructions."
      }
    },
    "version": 1
  },
  "storageLayout": {
    "storage": [
      {
        "astId": 667,
        "contract": "contracts/v2/gateways/venus/VenusGatewayWrite.sol:VenusGatewayWrite",
        "label": "_status",
        "offset": 0,
        "slot": "0",
        "type": "t_uint256"
      }
    ],
    "types": {
      "t_uint256": {
        "encoding": "inplace",
        "label": "uint256",
        "numberOfBytes": "32"
      }
    }
  }
}