{
  "address": "0x1b34e2bB459823ae5f965Fbd7B623f7F5f0aAE98",
  "abi": [
    {
      "inputs": [
        {
          "internalType": "address",
          "name": "_poolAddressesProvider",
          "type": "address"
        },
        {
          "internalType": "address",
          "name": "",
          "type": "address"
        }
      ],
      "stateMutability": "nonpayable",
      "type": "constructor"
    },
    {
      "inputs": [
        {
          "internalType": "address",
          "name": "user",
          "type": "address"
        }
      ],
      "name": "borrowedTokens",
      "outputs": [
        {
          "internalType": "address[]",
          "name": "",
          "type": "address[]"
        }
      ],
      "stateMutability": "view",
      "type": "function"
    },
    {
      "inputs": [
        {
          "internalType": "address",
          "name": "underlyingToken",
          "type": "address"
        }
      ],
      "name": "getAToken",
      "outputs": [
        {
          "internalType": "address",
          "name": "",
          "type": "address"
        }
      ],
      "stateMutability": "view",
      "type": "function"
    },
    {
      "inputs": [
        {
          "internalType": "address",
          "name": "user",
          "type": "address"
        }
      ],
      "name": "getAllTokensInfo",
      "outputs": [
        {
          "components": [
            {
              "internalType": "address",
              "name": "token",
              "type": "address"
            },
            {
              "internalType": "uint256",
              "name": "supplyRate",
              "type": "uint256"
            },
            {
              "internalType": "uint256",
              "name": "borrowRate",
              "type": "uint256"
            },
            {
              "internalType": "string",
              "name": "name",
              "type": "string"
            },
            {
              "internalType": "string",
              "name": "symbol",
              "type": "string"
            },
            {
              "internalType": "uint256",
              "name": "price",
              "type": "uint256"
            },
            {
              "internalType": "uint256",
              "name": "borrowBalance",
              "type": "uint256"
            },
            {
              "internalType": "uint256",
              "name": "balance",
              "type": "uint256"
            },
            {
              "internalType": "address",
              "name": "aToken",
              "type": "address"
            },
            {
              "internalType": "uint8",
              "name": "decimals",
              "type": "uint8"
            }
          ],
          "internalType": "struct AaveGatewayViewBase.TokenInfo[]",
          "name": "",
          "type": "tuple[]"
        }
      ],
      "stateMutability": "view",
      "type": "function"
    },
    {
      "inputs": [
        {
          "internalType": "address",
          "name": "token",
          "type": "address"
        },
        {
          "internalType": "address",
          "name": "user",
          "type": "address"
        }
      ],
      "name": "getBalance",
      "outputs": [
        {
          "internalType": "uint256",
          "name": "",
          "type": "uint256"
        }
      ],
      "stateMutability": "view",
      "type": "function"
    },
    {
      "inputs": [
        {
          "internalType": "address",
          "name": "token",
          "type": "address"
        },
        {
          "internalType": "address",
          "name": "user",
          "type": "address"
        }
      ],
      "name": "getBorrowBalance",
      "outputs": [
        {
          "internalType": "uint256",
          "name": "",
          "type": "uint256"
        }
      ],
      "stateMutability": "view",
      "type": "function"
    },
    {
      "inputs": [
        {
          "internalType": "address",
          "name": "token",
          "type": "address"
        },
        {
          "internalType": "address",
          "name": "user",
          "type": "address"
        }
      ],
      "name": "getBorrowBalanceCurrent",
      "outputs": [
        {
          "internalType": "uint256",
          "name": "",
          "type": "uint256"
        }
      ],
      "stateMutability": "nonpayable",
      "type": "function"
    },
    {
      "inputs": [
        {
          "internalType": "address",
          "name": "token",
          "type": "address"
        }
      ],
      "name": "getBorrowRate",
      "outputs": [
        {
          "internalType": "uint256",
          "name": "",
          "type": "uint256"
        },
        {
          "internalType": "bool",
          "name": "",
          "type": "bool"
        }
      ],
      "stateMutability": "view",
      "type": "function"
    },
    {
      "inputs": [
        {
          "internalType": "address",
          "name": "",
          "type": "address"
        },
        {
          "internalType": "address",
          "name": "user",
          "type": "address"
        }
      ],
      "name": "getLtv",
      "outputs": [
        {
          "internalType": "uint256",
          "name": "",
          "type": "uint256"
        }
      ],
      "stateMutability": "view",
      "type": "function"
    },
    {
      "inputs": [
        {
          "internalType": "address",
          "name": "",
          "type": "address"
        },
        {
          "internalType": "address",
          "name": "user",
          "type": "address"
        }
      ],
      "name": "getMaxLtv",
      "outputs": [
        {
          "internalType": "uint256",
          "name": "",
          "type": "uint256"
        }
      ],
      "stateMutability": "view",
      "type": "function"
    },
    {
      "inputs": [
        {
          "internalType": "address",
          "name": "",
          "type": "address"
        },
        {
          "internalType": "address",
          "name": "user",
          "type": "address"
        }
      ],
      "name": "getPossibleCollaterals",
      "outputs": [
        {
          "internalType": "address[]",
          "name": "collateralAddresses",
          "type": "address[]"
        },
        {
          "internalType": "uint256[]",
          "name": "balances",
          "type": "uint256[]"
        },
        {
          "internalType": "string[]",
          "name": "symbols",
          "type": "string[]"
        },
        {
          "internalType": "uint8[]",
          "name": "decimals",
          "type": "uint8[]"
        }
      ],
      "stateMutability": "view",
      "type": "function"
    },
    {
      "inputs": [
        {
          "internalType": "address",
          "name": "token",
          "type": "address"
        }
      ],
      "name": "getSupplyRate",
      "outputs": [
        {
          "internalType": "uint256",
          "name": "",
          "type": "uint256"
        },
        {
          "internalType": "bool",
          "name": "",
          "type": "bool"
        }
      ],
      "stateMutability": "view",
      "type": "function"
    },
    {
      "inputs": [
        {
          "internalType": "address",
          "name": "",
          "type": "address"
        }
      ],
      "name": "getSupportedCollaterals",
      "outputs": [
        {
          "internalType": "address[]",
          "name": "collateralAddresses",
          "type": "address[]"
        }
      ],
      "stateMutability": "view",
      "type": "function"
    },
    {
      "inputs": [
        {
          "internalType": "address",
          "name": "aToken",
          "type": "address"
        }
      ],
      "name": "getUnderlyingToken",
      "outputs": [
        {
          "internalType": "address",
          "name": "",
          "type": "address"
        }
      ],
      "stateMutability": "view",
      "type": "function"
    },
    {
      "inputs": [
        {
          "internalType": "address",
          "name": "",
          "type": "address"
        },
        {
          "internalType": "address",
          "name": "collateral",
          "type": "address"
        }
      ],
      "name": "isCollateralSupported",
      "outputs": [
        {
          "internalType": "bool",
          "name": "isSupported",
          "type": "bool"
        }
      ],
      "stateMutability": "view",
      "type": "function"
    },
    {
      "inputs": [],
      "name": "poolAddressesProvider",
      "outputs": [
        {
          "internalType": "contract IPoolAddressesProvider",
          "name": "",
          "type": "address"
        }
      ],
      "stateMutability": "view",
      "type": "function"
    }
  ],
  "transactionHash": "0xd33f18d47d87778c67a4158c1b33aa56e435b67fca77f6f0bd4f0f8cef75db00",
  "args": [
    "0x5213ab3997a596c75Ac6ebF81f8aEb9cf9A31007",
    "0x0A1198DDb5247a283F76077Bb1E45e5858ee100b"
  ],
  "numDeployments": 6,
  "solcInputHash": "e028fb848b10d60fb5d956a05d904a64",
  "bytecode": "0x60a0346100c357601f6126c538819003918201601f19168301916001600160401b038311848410176100c75780849260409485528339810103126100c357610052602061004b836100db565b92016100db565b506001600160a01b03166080526040516125d590816100f0823960805181818160f60152818161028f01528181610653015281816106ba0152818161081601528181610b0501528181610c0c0152818161158e01528181611905015281816121fc0152818161233301526124240152f35b5f80fd5b634e487b7160e01b5f52604160045260245ffd5b51906001600160a01b03821682036100c35756fe60806040526004361015610011575f80fd5b5f3560e01c8063104e999d14611389578063118e31b7146101f5578063401d45d014610be457806362fd6add14610acd57806366e2d09b146107ed578063691bcc88146107c75780636b5441a9146107cc578063732a52ee146107c7578063784661131461068257806380e17d871461063e578063ceac55df14610267578063d4fac45d14610233578063d71275f6146101fa578063e94201c7146101f55763f5125d3f146100be575f80fd5b346101e95760403660031901126101e9576100d76114a7565b506100e06114bd565b60405163026b1d5f60e01b8152906020826004817f00000000000000000000000000000000000000000000000000000000000000006001600160a01b03165afa9182156101a8575f926101b3575b50604051632fe4a15f60e21b81526001600160a01b0391821660048201529160c09183916024918391165afa80156101a8576020915f91610173575b50604051908152f35b610195915060c03d60c0116101a1575b61018d81836116a5565b810190612143565b5093505050505f61016a565b503d610183565b6040513d5f823e3d90fd5b9091506020813d6020116101ed575b816101cf602093836116a5565b810103126101e9576101e260c0916116c7565b919061012e565b5f80fd5b3d91506101c2565b611533565b346101e95760203660031901126101e95761021b6102166114a7565b61231e565b604080519283529015156020830152819081015b0390f35b346101e95760403660031901126101e957602061025f6102516114a7565b6102596114bd565b906122fe565b604051908152f35b346101e95760203660031901126101e9576102806114a7565b60405163026b1d5f60e01b81527f00000000000000000000000000000000000000000000000000000000000000006001600160a01b0316602082600481845afa9182156101a8575f926105ff575b509060206004926040519384809263e860accb60e01b82525afa9182156101a8575f926105c1575b506040516334651b6f60e21b8152916001600160a01b03908116915f9184916004918391165afa9182156101a8575f9261059d575b505f905f5b835181101561044a576001600160a01b0361034b82866117f0565b516040516334924edb60e21b815291166004820152606081602481865afa9081156101a8575f91610419575b506001600160a01b031680610390575b50600101610330565b6040516370a0823160e01b81526001600160a01b038716600482015290602090829060249082905afa5f91816103e6575b5015610387576103d2575b85610387565b916103de6001916118d4565b9290506103cc565b9091506020813d8211610411575b81610401602093836116a5565b810103126101e9575190876103c1565b3d91506103f4565b61043a915060603d8111610443575b61043281836116a5565b8101906118a4565b91505086610377565b503d610428565b50919061045690611775565b905f5f5b8251811015610587576001600160a01b0361047582856117f0565b516040516334924edb60e21b815291166004820152606081602481895afa9081156101a8575f91610566575b506001600160a01b031690816104bc575b600191500161045a565b6040516370a0823160e01b81526001600160a01b038816600482015291602090839060249082905afa805f91610532575b600193506104fc575b506104b2565b610507575b876104f6565b818060a01b0361051782866117f0565b511661052c610525856118d4565b94876117f0565b52610501565b90506020833d821161055e575b8161054c602093836116a5565b810103126101e95760019251906104ed565b3d915061053f565b61057e915060603d81116104435761043281836116a5565b915050876104a1565b6040516020808252819061022f908201876114d3565b6105ba9192503d805f833e6105b281836116a5565b8101906116f3565b908361032b565b91506020823d6020116105f7575b816105dc602093836116a5565b810103126101e9575f6105f06004936116c7565b92506102f6565b3d91506105cf565b91506020823d602011610636575b8161061a602093836116a5565b810103126101e957602061062f6004936116c7565b92506102ce565b3d915061060d565b346101e9575f3660031901126101e9576040517f00000000000000000000000000000000000000000000000000000000000000006001600160a01b03168152602090f35b346101e95760403660031901126101e95761069b6114a7565b506106a46114bd565b60405163e860accb60e01b8152906020826004817f00000000000000000000000000000000000000000000000000000000000000006001600160a01b03165afa9182156101a8575f92610788575b50604051633e15014160e01b81526001600160a01b039182166004820152916101409183916024918391165afa80156101a8576020915f905f9261074e575b508115610744575b506040519015158152f35b9050151582610739565b905061077291506101403d8111610781575b61076a81836116a5565b81019061217e565b50505050945050505083610731565b503d610760565b9091506020813d6020116107bf575b816107a4602093836116a5565b810103126101e9576107b8610140916116c7565b91906106f2565b3d9150610797565b61155f565b346101e95760203660031901126101e95761021b6107e86114a7565b6121e7565b346101e95760203660031901126101e9576108066114a7565b5060405163026b1d5f60e01b81527f00000000000000000000000000000000000000000000000000000000000000006001600160a01b0316602082600481845afa9182156101a8575f92610a8c575b5060206004916040519283809263e860accb60e01b82525afa9081156101a8575f91610a4e575b506040516334651b6f60e21b81526001600160a01b039182169290915f9183916004918391165afa9081156101a8575f91610a34575b505f5f5b825181101561095e576001600160a01b036108d182856117f0565b51604051633e15014160e01b81529116600482015261014081602481885afa9081156101a8575f905f92610934575b50811561092a575b50610916575b6001016108b6565b906109226001916118d4565b91905061090e565b9050151585610908565b905061094f91506101403d81116107815761076a81836116a5565b50505050945050505086610900565b5061096890611775565b905f5f5b8251811015610587576001600160a01b0361098782856117f0565b51604051633e15014160e01b81529116600482015261014081602481895afa9081156101a8575f905f92610a0a575b508115610a00575b506109cc575b60010161096c565b906001906109f8906001600160a01b036109e685876117f0565b51166109f282886117f0565b526118d4565b9190506109c4565b90501515866109be565b9050610a2591506101403d81116107815761076a81836116a5565b505050509450505050876109b6565b610a4891503d805f833e6105b281836116a5565b826108b2565b90506020813d602011610a84575b81610a69602093836116a5565b810103126101e9575f610a7d6004926116c7565b915061087c565b3d9150610a5c565b9091506020813d602011610ac5575b81610aa8602093836116a5565b810103126101e9576020610abd6004926116c7565b929150610855565b3d9150610a9b565b346101e95760403660031901126101e957610ae66114a7565b50610aef6114bd565b60405163026b1d5f60e01b8152906020826004817f00000000000000000000000000000000000000000000000000000000000000006001600160a01b03165afa9182156101a8575f92610ba6575b50604051632fe4a15f60e21b81526001600160a01b0391821660048201529160c09183916024918391165afa80156101a8576020915f91610b815750604051908152f35b610b9a915060c03d60c0116101a15761018d81836116a5565b5050925050508261016a565b9091506020813d602011610bdc575b81610bc2602093836116a5565b810103126101e957610bd560c0916116c7565b9190610b3d565b3d9150610bb5565b346101e95760203660031901126101e957610bfd6114a7565b60405163026b1d5f60e01b81527f00000000000000000000000000000000000000000000000000000000000000006001600160a01b031690602081600481855afa9081156101a8575f9161134f575b50604051631f94a27560e31b81526001600160a01b03919091169290602081600481865afa9081156101a8575f91611310575b5060405163e860accb60e01b81526001600160a01b0390911692602090829060049082905afa9081156101a8575f916112d6575b506040516334651b6f60e21b81526001600160a01b0391909116925f82600481885afa9182156101a8575f926112ba575b5092815192610cf2846116db565b93610d0060405195866116a5565b808552610d0f601f19916116db565b015f5b81811061125e5750505f916020925b845181101561117d576001600160a01b03610d3c82876117f0565b516040516335ea6a7560e01b815291166004820152906101e0826024818c5afa9182156101a8575f9261114c575b506001600160a01b03610d7d82886117f0565b516040516334924edb60e21b81529116600482015291606083602481875afa9283156101a85787935f915f9161112a575b505f916001600160a01b0316908290826110b8575b6001600160a01b03168981611044575b5050604051610de28a826116a5565b5f8152928c604051610df48c826116a5565b5f8082526004906001600160a01b03610e0d8b8d6117f0565b5116604051928380926306fdde0360e01b82525afa5f9181611028575b50611020575b5060045f6001600160a01b03610e468b8d6117f0565b5116604051928380926395d89b4160e01b82525afa5f9181610ffc575b50610ff4575b5060129560048d806001600160a01b03610e838d8f6117f0565b51166040519384809263313ce56760e01b82525afa9182915f93610fc5575b5050610fbd575b506001600160a01b03610ebc8a8c6117f0565b5116978d6001600160801b03608081604085015116930151169b610ee78c60018060a01b03926117f0565b511660246040518097819363b3596f0760e01b835260048301525afa9384156101a8578e905f95610f7b575b509a60ff989796959493929160019c6040519b610f2f8d611674565b8c528b015260408a01526060890152608088015260a087015260c086015260e085015261010084015216610120820152610f6982896117f0565b52610f7481886117f0565b5001610d21565b80949392999897969550813d8311610fb6575b610f9881836116a5565b810103126101e95791519596949593949293929091908d6001610f13565b503d610f8e565b96505f610ea9565b610fe5929350803d10610fed575b610fdd81836116a5565b81019061188b565b905f8f610ea2565b503d610fd3565b90505f610e69565b6110199192503d805f833e61101181836116a5565b810190611818565b905f610e63565b95505f610e30565b61103d9192503d805f833e61101181836116a5565b905f610e2a565b6040516370a0823160e01b81526001600160a01b038b16600482015291829060249082905afa5f9181611086575b5061107e575b89610dd3565b92508d611078565b975090508987813d81116110b1575b61109f81836116a5565b810103126101e9578a9651908f611072565b503d611095565b6040516370a0823160e01b81526001600160a01b038a1660048201528a81602481875afa5f91816110f8575b506110f0575b50610dc3565b91508e6110ea565b985090508a88813d8111611123575b61111181836116a5565b810103126101e9578b9751905f6110e4565b503d611107565b9050611144915060603d81116104435761043281836116a5565b90508c610dae565b61116f9192506101e03d8111611176575b61116781836116a5565b810190611fe0565b9089610d6a565b503d61115d565b6040805185815287518187018190525f92600582901b83018101918a890191899085015b8287106111ae5785850386f35b909192938280600192603f19898203018552875190848060a01b03825116815282820151838201526040820151604082015261012060ff816112166112046060870151610140606088015261014087019061150f565b6080870151868203608088015261150f565b9460a081015160a086015260c081015160c086015260e081015160e0860152888060a01b036101008201511661010086015201511691015296019201960195929190926111a1565b60209060409794975161127081611674565b5f81525f838201525f6040820152606080820152606060808201525f60a08201525f60c08201525f60e08201525f6101008201525f61012082015282828901015201959295610d12565b6112cf9192503d805f833e6105b281836116a5565b9085610ce4565b90506020813d602011611308575b816112f1602093836116a5565b810103126101e957611302906116c7565b84610cb3565b3d91506112e4565b90506020813d602011611347575b8161132b602093836116a5565b810103126101e95760206113406004926116c7565b9150610c7f565b3d915061131e565b90506020813d602011611381575b8161136a602093836116a5565b810103126101e95761137b906116c7565b83610c4c565b3d915061135d565b346101e95760403660031901126101e9576113a26114a7565b506113cb6113b66113b16114bd565b6118f6565b916040519485946080865260808601906114d3565b8481036020860152602080835192838152019201905f5b81811061148e575050508381036040850152815180825260208201916020808360051b8301019401925f915b83831061145b5750505050508281036060840152602080835192838152019201905f5b81811061143f575050500390f35b825160ff16845285945060209384019390920191600101611431565b9193959650919360208061147b600193601f19868203018752895161150f565b970193019301909287969594929361140e565b82518452879650602093840193909201916001016113e2565b600435906001600160a01b03821682036101e957565b602435906001600160a01b03821682036101e957565b90602080835192838152019201905f5b8181106114f05750505090565b82516001600160a01b03168452602093840193909201916001016114e3565b805180835260209291819084018484015e5f828201840152601f01601f1916010190565b346101e95760403660031901126101e957602061025f6115516114a7565b6115596114bd565b90611f39565b346101e95760203660031901126101e9576115786114a7565b60405163e860accb60e01b8152906020826004817f00000000000000000000000000000000000000000000000000000000000000006001600160a01b03165afa9182156101a8575f92611636575b506040516334924edb60e21b81526001600160a01b0391821660048201529160609183916024918391165afa80156101a8576020915f91611615575b506040516001600160a01b039091168152f35b61162e915060603d6060116104435761043281836116a5565b50505f611602565b9091506020813d60201161166c575b81611652602093836116a5565b810103126101e9576116656060916116c7565b91906115c6565b3d9150611645565b610140810190811067ffffffffffffffff82111761169157604052565b634e487b7160e01b5f52604160045260245ffd5b90601f8019910116810190811067ffffffffffffffff82111761169157604052565b51906001600160a01b03821682036101e957565b67ffffffffffffffff81116116915760051b60200190565b6020818303126101e95780519067ffffffffffffffff82116101e957019080601f830112156101e9578151611727816116db565b9261173560405194856116a5565b81845260208085019260051b8201019283116101e957602001905b82821061175d5750505090565b6020809161176a846116c7565b815201910190611750565b9061177f826116db565b61178c60405191826116a5565b828152809261179d601f19916116db565b0190602036910137565b906117b1826116db565b6117be60405191826116a5565b82815280926117cf601f19916116db565b01905f5b8281106117df57505050565b8060606020809385010152016117d3565b80518210156118045760209160051b010190565b634e487b7160e01b5f52603260045260245ffd5b6020818303126101e95780519067ffffffffffffffff82116101e9570181601f820112156101e95780519067ffffffffffffffff8211611691576040519261186a601f8401601f1916602001856116a5565b828452602083830101116101e957815f9260208093018386015e8301015290565b908160209103126101e9575160ff811681036101e95790565b908160609103126101e9576118b8816116c7565b916118d160406118ca602085016116c7565b93016116c7565b90565b5f1981146118e25760010190565b634e487b7160e01b5f52601160045260245ffd5b60405163026b1d5f60e01b81527f00000000000000000000000000000000000000000000000000000000000000006001600160a01b03169291602082600481875afa9182156101a8575f92611efb575b506040516334651b6f60e21b8152915f90839060049082906001600160a01b03165afa9182156101a8575f92611edf575b506001600160a01b0316928315611d685760206004916040519283809263e860accb60e01b82525afa9081156101a8575f91611d2e575b5060018060a01b03165f915f5b8151811015611ab9576001600160a01b036119d682846117f0565b516040516334924edb60e21b815291166004820152606081602481875afa9081156101a8575f91611a99575b506001600160a01b031680611a1b575b506001016119bb565b6020602491604051928380926370a0823160e01b82528b60048301525afa5f9181611a66575b5015611a1257611a52575b5f611a12565b92611a5e6001916118d4565b939050611a4c565b9091506020813d8211611a91575b81611a81602093836116a5565b810103126101e95751905f611a41565b3d9150611a74565b611ab1915060603d81116104435761043281836116a5565b50505f611a02565b509391611ac581611775565b611ace82611775565b93611ae1611adb846117a7565b93611775565b915f945f5b8951811015611d1f576001600160a01b03611b01828c6117f0565b516040516334924edb60e21b815291166004820152606081602481865afa9081156101a8575f91611cff575b506001600160a01b031680611b46575b50600101611ae6565b602460205f92604051928380926370a0823160e01b82528a60048301525afa5f9181611ccc575b50611cc4575b508015611b3d579096600191611c5191906001600160a01b03611b968b8f6117f0565b5116611ba283886117f0565b52611bad828c6117f0565b5260045f8d611bc28c878060a01b03926117f0565b5116604051928380926395d89b4160e01b82525afa5f9181611ca8575b50611c8d5750604051611bf36020826116a5565b5f8152611c00828a6117f0565b52611c0b81896117f0565b505b600460208d611c228c878060a01b03926117f0565b51166040519283809263313ce56760e01b82525afa5f9181611c6d575b50611c58575060126109f282896117f0565b9690611b3d565b60ff611c64838a6117f0565b911690526118d4565b611c8691925060203d8111610fed57610fdd81836116a5565b905f611c3f565b611c97828a6117f0565b52611ca281896117f0565b50611c0d565b611cbd9192503d805f833e61101181836116a5565b905f611bdf565b90505f611b73565b9091506020813d8211611cf7575b81611ce7602093836116a5565b810103126101e95751905f611b6d565b3d9150611cda565b611d17915060603d81116104435761043281836116a5565b50505f611b2d565b50909750949592945090925050565b90506020813d602011611d60575b81611d49602093836116a5565b810103126101e957611d5a906116c7565b5f6119ae565b3d9150611d3c565b508051919250611d7782611775565b92611d8183611775565b93611d8b846117a7565b93611d9581611775565b935f5b828110611da85750505093929190565b6001906001600160a01b03611dbd82856117f0565b5116611dc982876117f0565b5260045f838060a01b03611ddd84876117f0565b5116604051928380926395d89b4160e01b82525afa5f9181611ec3575b50611ea85750604051611e0e6020826116a5565b5f8152611e1b828a6117f0565b52611e2681896117f0565b505b60046020838060a01b03611e3c84876117f0565b51166040519283809263313ce56760e01b82525afa5f9181611e88575b50611e7357506012611e6b82896117f0565b525b01611d98565b60ff611e7f838a6117f0565b91169052611e6d565b611ea191925060203d8111610fed57610fdd81836116a5565b905f611e59565b611eb2828a6117f0565b52611ebd81896117f0565b50611e28565b611ed89192503d805f833e61101181836116a5565b905f611dfa565b611ef49192503d805f833e6105b281836116a5565b905f611977565b91506020823d602011611f31575b81611f16602093836116a5565b810103126101e9575f611f2a6004936116c7565b9250611946565b3d9150611f09565b611f429061240d565b506001600160a01b031691905081611f5b575b50505f90565b6040516370a0823160e01b81526001600160a01b03909116600482015290602090829060249082905afa5f9181611f98575b506118d15780611f55565b9091506020813d602011611fc4575b81611fb4602093836116a5565b810103126101e95751905f611f8d565b3d9150611fa7565b51906001600160801b03821682036101e957565b809103906101e082126101e957604051916101e083019083821067ffffffffffffffff83111761169157602091604052126101e9576040516020810181811067ffffffffffffffff8211176116915760405281518152825261204460208201611fcc565b602083015261205560408201611fcc565b604083015261206660608201611fcc565b606083015261207760808201611fcc565b608083015261208860a08201611fcc565b60a083015260c081015164ffffffffff811681036101e95760c083015260e081015161ffff811681036101e95761213a916101c09160e08501526120cf61010082016116c7565b6101008501526120e261012082016116c7565b6101208501526120f561014082016116c7565b61014085015261210861016082016116c7565b61016085015261211b6101808201611fcc565b61018085015261212e6101a08201611fcc565b6101a085015201611fcc565b6101c082015290565b91908260c09103126101e95781519160208101519160408201519160608101519160a0608083015192015190565b519081151582036101e957565b9190826101409103126101e9578151916020810151916040820151916060810151916080820151916121b260a08201612171565b916121bf60c08301612171565b916121cc60e08201612171565b916118d16101206121e06101008501612171565b9301612171565b60405163026b1d5f60e01b81526020816004817f00000000000000000000000000000000000000000000000000000000000000006001600160a01b03165afa9081156101a8575f916122c4575b506001600160a01b031690612249818361250c565b156122bc576040516335ea6a7560e01b81526001600160a01b039091166004820152906101e090829060249082905afa9081156101a8576001600160801b03916040915f9161229d575b5001511690600190565b6122b691506101e03d81116111765761116781836116a5565b5f612293565b50505f905f90565b90506020813d6020116122f6575b816122df602093836116a5565b810103126101e9576122f0906116c7565b5f612234565b3d91506122d2565b6123079061240d565b50506001600160a01b03169081611f5b5750505f90565b60405163026b1d5f60e01b81526020816004817f00000000000000000000000000000000000000000000000000000000000000006001600160a01b03165afa9081156101a8575f916123d3575b506001600160a01b031690612380818361250c565b156122bc576040516335ea6a7560e01b81526001600160a01b039091166004820152906101e090829060249082905afa9081156101a8576001600160801b03916080915f9161229d575001511690600190565b90506020813d602011612405575b816123ee602093836116a5565b810103126101e9576123ff906116c7565b5f61236b565b3d91506123e1565b60405163e860accb60e01b815291906020836004817f00000000000000000000000000000000000000000000000000000000000000006001600160a01b03165afa9283156101a8575f936124ce575b506040516334924edb60e21b81526001600160a01b0391821660048201529260609184916024918391165afa91825f915f946124a9575b506124a257505f915081908190565b9190600190565b9093506124c5915060603d6060116104435761043281836116a5565b9390505f612493565b9092506020813d602011612504575b816124ea602093836116a5565b810103126101e9576124fd6060916116c7565b929061245c565b3d91506124dd565b6040516334651b6f60e21b815291905f90839060049082906001600160a01b03165afa9182156101a8575f92612583575b505f5b825181101561257c576001600160a01b0361255b82856117f0565b51166001600160a01b0383161461257457600101612540565b505050600190565b5050505f90565b6125989192503d805f833e6105b281836116a5565b905f61253d56fea264697066735822122098358cb216670e9b5b0f6483b6fbd6befa2e2db487d1263fab1583cfb077c22e64736f6c634300081e0033",
  "devdoc": {
    "kind": "dev",
    "methods": {
      "getLtv(address,address)": {
        "details": "The market parameter is unused and kept for interface consistency across gateways."
      },
      "getMaxLtv(address,address)": {
        "details": "The market parameter is unused and kept for interface consistency across gateways."
      }
    },
    "title": "AaveGatewayViewBase",
    "version": 1
  },
  "userdoc": {
    "kind": "user",
    "methods": {
      "getAllTokensInfo(address)": {
        "notice": "Returns all token info for a given user."
      },
      "getLtv(address,address)": {
        "notice": "Returns the configured maximum LTV for the user in basis points."
      },
      "getMaxLtv(address,address)": {
        "notice": "Returns the liquidation threshold (LLTV) for a given user in basis points."
      }
    },
    "notice": "View-only gateway for Aave v3 protocol on Base. Avoids UiPoolDataProvider struct differences         by reading directly from Pool, DataProvider and Oracle. Constructor signature matches the         generic view so deploy scripts can deploy this under the same name.",
    "version": 1
  },
  "storageLayout": {
    "storage": [],
    "types": null
  }
}