{
  "address": "0x9D45CcdCB01e4B858b0F3a1b4C1528ba8dEC9C25",
  "abi": [
    {
      "inputs": [
        {
          "internalType": "address",
          "name": "_poolAddressesProvider",
          "type": "address"
        },
        {
          "internalType": "address",
          "name": "",
          "type": "address"
        }
      ],
      "stateMutability": "nonpayable",
      "type": "constructor"
    },
    {
      "inputs": [
        {
          "internalType": "address",
          "name": "user",
          "type": "address"
        }
      ],
      "name": "borrowedTokens",
      "outputs": [
        {
          "internalType": "address[]",
          "name": "",
          "type": "address[]"
        }
      ],
      "stateMutability": "view",
      "type": "function"
    },
    {
      "inputs": [
        {
          "internalType": "address",
          "name": "underlyingToken",
          "type": "address"
        }
      ],
      "name": "getAToken",
      "outputs": [
        {
          "internalType": "address",
          "name": "",
          "type": "address"
        }
      ],
      "stateMutability": "view",
      "type": "function"
    },
    {
      "inputs": [
        {
          "internalType": "address",
          "name": "user",
          "type": "address"
        }
      ],
      "name": "getAllTokensInfo",
      "outputs": [
        {
          "components": [
            {
              "internalType": "address",
              "name": "token",
              "type": "address"
            },
            {
              "internalType": "uint256",
              "name": "supplyRate",
              "type": "uint256"
            },
            {
              "internalType": "uint256",
              "name": "borrowRate",
              "type": "uint256"
            },
            {
              "internalType": "string",
              "name": "name",
              "type": "string"
            },
            {
              "internalType": "string",
              "name": "symbol",
              "type": "string"
            },
            {
              "internalType": "uint256",
              "name": "price",
              "type": "uint256"
            },
            {
              "internalType": "uint256",
              "name": "borrowBalance",
              "type": "uint256"
            },
            {
              "internalType": "uint256",
              "name": "balance",
              "type": "uint256"
            },
            {
              "internalType": "address",
              "name": "aToken",
              "type": "address"
            },
            {
              "internalType": "uint8",
              "name": "decimals",
              "type": "uint8"
            }
          ],
          "internalType": "struct AaveGatewayViewBase.TokenInfo[]",
          "name": "",
          "type": "tuple[]"
        }
      ],
      "stateMutability": "view",
      "type": "function"
    },
    {
      "inputs": [
        {
          "internalType": "address",
          "name": "token",
          "type": "address"
        },
        {
          "internalType": "address",
          "name": "user",
          "type": "address"
        }
      ],
      "name": "getBalance",
      "outputs": [
        {
          "internalType": "uint256",
          "name": "",
          "type": "uint256"
        }
      ],
      "stateMutability": "view",
      "type": "function"
    },
    {
      "inputs": [
        {
          "internalType": "address",
          "name": "token",
          "type": "address"
        },
        {
          "internalType": "address",
          "name": "user",
          "type": "address"
        }
      ],
      "name": "getBorrowBalance",
      "outputs": [
        {
          "internalType": "uint256",
          "name": "",
          "type": "uint256"
        }
      ],
      "stateMutability": "view",
      "type": "function"
    },
    {
      "inputs": [
        {
          "internalType": "address",
          "name": "token",
          "type": "address"
        },
        {
          "internalType": "address",
          "name": "user",
          "type": "address"
        }
      ],
      "name": "getBorrowBalanceCurrent",
      "outputs": [
        {
          "internalType": "uint256",
          "name": "",
          "type": "uint256"
        }
      ],
      "stateMutability": "nonpayable",
      "type": "function"
    },
    {
      "inputs": [
        {
          "internalType": "address",
          "name": "token",
          "type": "address"
        }
      ],
      "name": "getBorrowRate",
      "outputs": [
        {
          "internalType": "uint256",
          "name": "",
          "type": "uint256"
        },
        {
          "internalType": "bool",
          "name": "",
          "type": "bool"
        }
      ],
      "stateMutability": "view",
      "type": "function"
    },
    {
      "inputs": [
        {
          "internalType": "address",
          "name": "",
          "type": "address"
        },
        {
          "internalType": "address",
          "name": "user",
          "type": "address"
        }
      ],
      "name": "getPossibleCollaterals",
      "outputs": [
        {
          "internalType": "address[]",
          "name": "collateralAddresses",
          "type": "address[]"
        },
        {
          "internalType": "uint256[]",
          "name": "balances",
          "type": "uint256[]"
        },
        {
          "internalType": "string[]",
          "name": "symbols",
          "type": "string[]"
        },
        {
          "internalType": "uint8[]",
          "name": "decimals",
          "type": "uint8[]"
        }
      ],
      "stateMutability": "view",
      "type": "function"
    },
    {
      "inputs": [
        {
          "internalType": "address",
          "name": "token",
          "type": "address"
        }
      ],
      "name": "getSupplyRate",
      "outputs": [
        {
          "internalType": "uint256",
          "name": "",
          "type": "uint256"
        },
        {
          "internalType": "bool",
          "name": "",
          "type": "bool"
        }
      ],
      "stateMutability": "view",
      "type": "function"
    },
    {
      "inputs": [
        {
          "internalType": "address",
          "name": "",
          "type": "address"
        }
      ],
      "name": "getSupportedCollaterals",
      "outputs": [
        {
          "internalType": "address[]",
          "name": "collateralAddresses",
          "type": "address[]"
        }
      ],
      "stateMutability": "view",
      "type": "function"
    },
    {
      "inputs": [
        {
          "internalType": "address",
          "name": "aToken",
          "type": "address"
        }
      ],
      "name": "getUnderlyingToken",
      "outputs": [
        {
          "internalType": "address",
          "name": "",
          "type": "address"
        }
      ],
      "stateMutability": "view",
      "type": "function"
    },
    {
      "inputs": [
        {
          "internalType": "address",
          "name": "",
          "type": "address"
        },
        {
          "internalType": "address",
          "name": "collateral",
          "type": "address"
        }
      ],
      "name": "isCollateralSupported",
      "outputs": [
        {
          "internalType": "bool",
          "name": "isSupported",
          "type": "bool"
        }
      ],
      "stateMutability": "view",
      "type": "function"
    },
    {
      "inputs": [],
      "name": "poolAddressesProvider",
      "outputs": [
        {
          "internalType": "contract IPoolAddressesProvider",
          "name": "",
          "type": "address"
        }
      ],
      "stateMutability": "view",
      "type": "function"
    }
  ],
  "transactionHash": "0x3ce3e48be6b25a4843bed07f0c4ba47ef7f3ae2ff76d588d3ae1883dabb00f63",
  "args": [
    "0x5213ab3997a596c75Ac6ebF81f8aEb9cf9A31007",
    "0x0A1198DDb5247a283F76077Bb1E45e5858ee100b"
  ],
  "numDeployments": 4,
  "solcInputHash": "92c04077963b585915986b6fc13c5a9c",
  "bytecode": "0x60a0346100b657601f61243538819003918201601f19168301916001600160401b038311848410176100ba5780849260409485528339810103126100b657610052602061004b836100ce565b92016100ce565b506001600160a01b031660805260405161235290816100e38239608051818181610146015281816105150152818161057c015281816106d8015281816109b701528181611339015281816116b001528181611f79015281816120b001526121a10152f35b5f80fd5b634e487b7160e01b5f52604160045260245ffd5b51906001600160a01b03821682036100b65756fe60806040526004361015610011575f80fd5b5f3560e01c8063104e999d14611134578063118e31b7146100a8578063401d45d01461098f57806366e2d09b146106af578063691bcc88146106895780636b5441a91461068e578063732a52ee14610689578063784661131461054457806380e17d8714610500578063ceac55df1461011e578063d4fac45d146100ea578063d71275f6146100ad5763e94201c7146100a8575f80fd5b6112de565b346100e65760203660031901126100e6576100ce6100c9611252565b61209b565b604080519283529015156020830152819081015b0390f35b5f80fd5b346100e65760403660031901126100e6576020610116610108611252565b610110611268565b9061207b565b604051908152f35b346100e65760203660031901126100e657610137611252565b60405163026b1d5f60e01b81527f00000000000000000000000000000000000000000000000000000000000000006001600160a01b0316602082600481845afa918215610301575f926104c1575b509060206004926040519384809263e860accb60e01b82525afa918215610301575f92610483575b506040516334651b6f60e21b8152916001600160a01b03908116915f9184916004918391165afa918215610301575f9261045f575b505f905f5b835181101561030c576001600160a01b03610202828661159b565b516040516334924edb60e21b815291166004820152606081602481865afa908115610301575f916102d0575b506001600160a01b031680610247575b506001016101e7565b6040516370a0823160e01b81526001600160a01b038716600482015290602090829060249082905afa5f918161029d575b501561023e57610289575b8561023e565b9161029560019161167f565b929050610283565b9091506020813d82116102c8575b816102b860209383611450565b810103126100e657519087610278565b3d91506102ab565b6102f1915060603d81116102fa575b6102e98183611450565b81019061164f565b9150508661022e565b503d6102df565b6040513d5f823e3d90fd5b50919061031890611520565b905f5f5b8251811015610449576001600160a01b03610337828561159b565b516040516334924edb60e21b815291166004820152606081602481895afa908115610301575f91610428575b506001600160a01b0316908161037e575b600191500161031c565b6040516370a0823160e01b81526001600160a01b038816600482015291602090839060249082905afa805f916103f4575b600193506103be575b50610374565b6103c9575b876103b8565b818060a01b036103d9828661159b565b51166103ee6103e78561167f565b948761159b565b526103c3565b90506020833d8211610420575b8161040e60209383611450565b810103126100e65760019251906103af565b3d9150610401565b610440915060603d81116102fa576102e98183611450565b91505087610363565b604051602080825281906100e29082018761127e565b61047c9192503d805f833e6104748183611450565b81019061149e565b90836101e2565b91506020823d6020116104b9575b8161049e60209383611450565b810103126100e6575f6104b2600493611472565b92506101ad565b3d9150610491565b91506020823d6020116104f8575b816104dc60209383611450565b810103126100e65760206104f1600493611472565b9250610185565b3d91506104cf565b346100e6575f3660031901126100e6576040517f00000000000000000000000000000000000000000000000000000000000000006001600160a01b03168152602090f35b346100e65760403660031901126100e65761055d611252565b50610566611268565b60405163e860accb60e01b8152906020826004817f00000000000000000000000000000000000000000000000000000000000000006001600160a01b03165afa918215610301575f9261064a575b50604051633e15014160e01b81526001600160a01b039182166004820152916101409183916024918391165afa8015610301576020915f905f92610610575b508115610606575b506040519015158152f35b90501515826105fb565b905061063491506101403d8111610643575b61062c8183611450565b810190611efb565b505050509450505050836105f3565b503d610622565b9091506020813d602011610681575b8161066660209383611450565b810103126100e65761067a61014091611472565b91906105b4565b3d9150610659565b61130a565b346100e65760203660031901126100e6576100ce6106aa611252565b611f64565b346100e65760203660031901126100e6576106c8611252565b5060405163026b1d5f60e01b81527f00000000000000000000000000000000000000000000000000000000000000006001600160a01b0316602082600481845afa918215610301575f9261094e575b5060206004916040519283809263e860accb60e01b82525afa908115610301575f91610910575b506040516334651b6f60e21b81526001600160a01b039182169290915f9183916004918391165afa908115610301575f916108f6575b505f5f5b8251811015610820576001600160a01b03610793828561159b565b51604051633e15014160e01b81529116600482015261014081602481885afa908115610301575f905f926107f6575b5081156107ec575b506107d8575b600101610778565b906107e460019161167f565b9190506107d0565b90501515856107ca565b905061081191506101403d81116106435761062c8183611450565b505050509450505050866107c2565b5061082a90611520565b905f5f5b8251811015610449576001600160a01b03610849828561159b565b51604051633e15014160e01b81529116600482015261014081602481895afa908115610301575f905f926108cc575b5081156108c2575b5061088e575b60010161082e565b906001906108ba906001600160a01b036108a8858761159b565b51166108b4828861159b565b5261167f565b919050610886565b9050151586610880565b90506108e791506101403d81116106435761062c8183611450565b50505050945050505087610878565b61090a91503d805f833e6104748183611450565b82610774565b90506020813d602011610946575b8161092b60209383611450565b810103126100e6575f61093f600492611472565b915061073e565b3d915061091e565b9091506020813d602011610987575b8161096a60209383611450565b810103126100e657602061097f600492611472565b929150610717565b3d915061095d565b346100e65760203660031901126100e6576109a8611252565b60405163026b1d5f60e01b81527f00000000000000000000000000000000000000000000000000000000000000006001600160a01b031690602081600481855afa908115610301575f916110fa575b50604051631f94a27560e31b81526001600160a01b03919091169290602081600481865afa908115610301575f916110bb575b5060405163e860accb60e01b81526001600160a01b0390911692602090829060049082905afa908115610301575f91611081575b506040516334651b6f60e21b81526001600160a01b0391909116925f82600481885afa918215610301575f92611065575b5092815192610a9d84611486565b93610aab6040519586611450565b808552610aba601f1991611486565b015f5b8181106110095750505f916020925b8451811015610f28576001600160a01b03610ae7828761159b565b516040516335ea6a7560e01b815291166004820152906101e0826024818c5afa918215610301575f92610ef7575b506001600160a01b03610b28828861159b565b516040516334924edb60e21b81529116600482015291606083602481875afa9283156103015787935f915f91610ed5575b505f916001600160a01b031690829082610e63575b6001600160a01b03168981610def575b5050604051610b8d8a82611450565b5f8152928c604051610b9f8c82611450565b5f8082526004906001600160a01b03610bb88b8d61159b565b5116604051928380926306fdde0360e01b82525afa5f9181610dd3575b50610dcb575b5060045f6001600160a01b03610bf18b8d61159b565b5116604051928380926395d89b4160e01b82525afa5f9181610da7575b50610d9f575b5060129560048d806001600160a01b03610c2e8d8f61159b565b51166040519384809263313ce56760e01b82525afa9182915f93610d70575b5050610d68575b506001600160a01b03610c678a8c61159b565b5116978d6001600160801b03608081604085015116930151169b610c928c60018060a01b039261159b565b511660246040518097819363b3596f0760e01b835260048301525afa938415610301578e905f95610d26575b509a60ff989796959493929160019c6040519b610cda8d61141f565b8c528b015260408a01526060890152608088015260a087015260c086015260e085015261010084015216610120820152610d14828961159b565b52610d1f818861159b565b5001610acc565b80949392999897969550813d8311610d61575b610d438183611450565b810103126100e65791519596949593949293929091908d6001610cbe565b503d610d39565b96505f610c54565b610d90929350803d10610d98575b610d888183611450565b810190611636565b905f8f610c4d565b503d610d7e565b90505f610c14565b610dc49192503d805f833e610dbc8183611450565b8101906115c3565b905f610c0e565b95505f610bdb565b610de89192503d805f833e610dbc8183611450565b905f610bd5565b6040516370a0823160e01b81526001600160a01b038b16600482015291829060249082905afa5f9181610e31575b50610e29575b89610b7e565b92508d610e23565b975090508987813d8111610e5c575b610e4a8183611450565b810103126100e6578a9651908f610e1d565b503d610e40565b6040516370a0823160e01b81526001600160a01b038a1660048201528a81602481875afa5f9181610ea3575b50610e9b575b50610b6e565b91508e610e95565b985090508a88813d8111610ece575b610ebc8183611450565b810103126100e6578b9751905f610e8f565b503d610eb2565b9050610eef915060603d81116102fa576102e98183611450565b90508c610b59565b610f1a9192506101e03d8111610f21575b610f128183611450565b810190611d8b565b9089610b15565b503d610f08565b6040805185815287518187018190525f92600582901b83018101918a890191899085015b828710610f595785850386f35b909192938280600192603f19898203018552875190848060a01b03825116815282820151838201526040820151604082015261012060ff81610fc1610faf606087015161014060608801526101408701906112ba565b608087015186820360808801526112ba565b9460a081015160a086015260c081015160c086015260e081015160e0860152888060a01b03610100820151166101008601520151169101529601920196019592919092610f4c565b60209060409794975161101b8161141f565b5f81525f838201525f6040820152606080820152606060808201525f60a08201525f60c08201525f60e08201525f6101008201525f61012082015282828901015201959295610abd565b61107a9192503d805f833e6104748183611450565b9085610a8f565b90506020813d6020116110b3575b8161109c60209383611450565b810103126100e6576110ad90611472565b84610a5e565b3d915061108f565b90506020813d6020116110f2575b816110d660209383611450565b810103126100e65760206110eb600492611472565b9150610a2a565b3d91506110c9565b90506020813d60201161112c575b8161111560209383611450565b810103126100e65761112690611472565b836109f7565b3d9150611108565b346100e65760403660031901126100e65761114d611252565b5061117661116161115c611268565b6116a1565b9160405194859460808652608086019061127e565b8481036020860152602080835192838152019201905f5b818110611239575050508381036040850152815180825260208201916020808360051b8301019401925f915b8383106112065750505050508281036060840152602080835192838152019201905f5b8181106111ea575050500390f35b825160ff168452859450602093840193909201916001016111dc565b91939596509193602080611226600193601f1986820301875289516112ba565b97019301930190928796959492936111b9565b825184528796506020938401939092019160010161118d565b600435906001600160a01b03821682036100e657565b602435906001600160a01b03821682036100e657565b90602080835192838152019201905f5b81811061129b5750505090565b82516001600160a01b031684526020938401939092019160010161128e565b805180835260209291819084018484015e5f828201840152601f01601f1916010190565b346100e65760403660031901126100e65760206101166112fc611252565b611304611268565b90611ce4565b346100e65760203660031901126100e657611323611252565b60405163e860accb60e01b8152906020826004817f00000000000000000000000000000000000000000000000000000000000000006001600160a01b03165afa918215610301575f926113e1575b506040516334924edb60e21b81526001600160a01b0391821660048201529160609183916024918391165afa8015610301576020915f916113c0575b506040516001600160a01b039091168152f35b6113d9915060603d6060116102fa576102e98183611450565b50505f6113ad565b9091506020813d602011611417575b816113fd60209383611450565b810103126100e657611410606091611472565b9190611371565b3d91506113f0565b610140810190811067ffffffffffffffff82111761143c57604052565b634e487b7160e01b5f52604160045260245ffd5b90601f8019910116810190811067ffffffffffffffff82111761143c57604052565b51906001600160a01b03821682036100e657565b67ffffffffffffffff811161143c5760051b60200190565b6020818303126100e65780519067ffffffffffffffff82116100e657019080601f830112156100e65781516114d281611486565b926114e06040519485611450565b81845260208085019260051b8201019283116100e657602001905b8282106115085750505090565b6020809161151584611472565b8152019101906114fb565b9061152a82611486565b6115376040519182611450565b8281528092611548601f1991611486565b0190602036910137565b9061155c82611486565b6115696040519182611450565b828152809261157a601f1991611486565b01905f5b82811061158a57505050565b80606060208093850101520161157e565b80518210156115af5760209160051b010190565b634e487b7160e01b5f52603260045260245ffd5b6020818303126100e65780519067ffffffffffffffff82116100e6570181601f820112156100e65780519067ffffffffffffffff821161143c5760405192611615601f8401601f191660200185611450565b828452602083830101116100e657815f9260208093018386015e8301015290565b908160209103126100e6575160ff811681036100e65790565b908160609103126100e65761166381611472565b9161167c604061167560208501611472565b9301611472565b90565b5f19811461168d5760010190565b634e487b7160e01b5f52601160045260245ffd5b60405163026b1d5f60e01b81527f00000000000000000000000000000000000000000000000000000000000000006001600160a01b03169291602082600481875afa918215610301575f92611ca6575b506040516334651b6f60e21b8152915f90839060049082906001600160a01b03165afa918215610301575f92611c8a575b506001600160a01b0316928315611b135760206004916040519283809263e860accb60e01b82525afa908115610301575f91611ad9575b5060018060a01b03165f915f5b8151811015611864576001600160a01b03611781828461159b565b516040516334924edb60e21b815291166004820152606081602481875afa908115610301575f91611844575b506001600160a01b0316806117c6575b50600101611766565b6020602491604051928380926370a0823160e01b82528b60048301525afa5f9181611811575b50156117bd576117fd575b5f6117bd565b9261180960019161167f565b9390506117f7565b9091506020813d821161183c575b8161182c60209383611450565b810103126100e65751905f6117ec565b3d915061181f565b61185c915060603d81116102fa576102e98183611450565b50505f6117ad565b50939161187081611520565b61187982611520565b9361188c61188684611552565b93611520565b915f945f5b8951811015611aca576001600160a01b036118ac828c61159b565b516040516334924edb60e21b815291166004820152606081602481865afa908115610301575f91611aaa575b506001600160a01b0316806118f1575b50600101611891565b602460205f92604051928380926370a0823160e01b82528a60048301525afa5f9181611a77575b50611a6f575b5080156118e85790966001916119fc91906001600160a01b036119418b8f61159b565b511661194d838861159b565b52611958828c61159b565b5260045f8d61196d8c878060a01b039261159b565b5116604051928380926395d89b4160e01b82525afa5f9181611a53575b50611a38575060405161199e602082611450565b5f81526119ab828a61159b565b526119b6818961159b565b505b600460208d6119cd8c878060a01b039261159b565b51166040519283809263313ce56760e01b82525afa5f9181611a18575b50611a03575060126108b4828961159b565b96906118e8565b60ff611a0f838a61159b565b9116905261167f565b611a3191925060203d8111610d9857610d888183611450565b905f6119ea565b611a42828a61159b565b52611a4d818961159b565b506119b8565b611a689192503d805f833e610dbc8183611450565b905f61198a565b90505f61191e565b9091506020813d8211611aa2575b81611a9260209383611450565b810103126100e65751905f611918565b3d9150611a85565b611ac2915060603d81116102fa576102e98183611450565b50505f6118d8565b50909750949592945090925050565b90506020813d602011611b0b575b81611af460209383611450565b810103126100e657611b0590611472565b5f611759565b3d9150611ae7565b508051919250611b2282611520565b92611b2c83611520565b93611b3684611552565b93611b4081611520565b935f5b828110611b535750505093929190565b6001906001600160a01b03611b68828561159b565b5116611b74828761159b565b5260045f838060a01b03611b88848761159b565b5116604051928380926395d89b4160e01b82525afa5f9181611c6e575b50611c535750604051611bb9602082611450565b5f8152611bc6828a61159b565b52611bd1818961159b565b505b60046020838060a01b03611be7848761159b565b51166040519283809263313ce56760e01b82525afa5f9181611c33575b50611c1e57506012611c16828961159b565b525b01611b43565b60ff611c2a838a61159b565b91169052611c18565b611c4c91925060203d8111610d9857610d888183611450565b905f611c04565b611c5d828a61159b565b52611c68818961159b565b50611bd3565b611c839192503d805f833e610dbc8183611450565b905f611ba5565b611c9f9192503d805f833e6104748183611450565b905f611722565b91506020823d602011611cdc575b81611cc160209383611450565b810103126100e6575f611cd5600493611472565b92506116f1565b3d9150611cb4565b611ced9061218a565b506001600160a01b031691905081611d06575b50505f90565b6040516370a0823160e01b81526001600160a01b03909116600482015290602090829060249082905afa5f9181611d43575b5061167c5780611d00565b9091506020813d602011611d6f575b81611d5f60209383611450565b810103126100e65751905f611d38565b3d9150611d52565b51906001600160801b03821682036100e657565b809103906101e082126100e657604051916101e083019083821067ffffffffffffffff83111761143c57602091604052126100e6576040516020810181811067ffffffffffffffff82111761143c57604052815181528252611def60208201611d77565b6020830152611e0060408201611d77565b6040830152611e1160608201611d77565b6060830152611e2260808201611d77565b6080830152611e3360a08201611d77565b60a083015260c081015164ffffffffff811681036100e65760c083015260e081015161ffff811681036100e657611ee5916101c09160e0850152611e7a6101008201611472565b610100850152611e8d6101208201611472565b610120850152611ea06101408201611472565b610140850152611eb36101608201611472565b610160850152611ec66101808201611d77565b610180850152611ed96101a08201611d77565b6101a085015201611d77565b6101c082015290565b519081151582036100e657565b9190826101409103126100e657815191602081015191604082015191606081015191608082015191611f2f60a08201611eee565b91611f3c60c08301611eee565b91611f4960e08201611eee565b9161167c610120611f5d6101008501611eee565b9301611eee565b60405163026b1d5f60e01b81526020816004817f00000000000000000000000000000000000000000000000000000000000000006001600160a01b03165afa908115610301575f91612041575b506001600160a01b031690611fc68183612289565b15612039576040516335ea6a7560e01b81526001600160a01b039091166004820152906101e090829060249082905afa908115610301576001600160801b03916040915f9161201a575b5001511690600190565b61203391506101e03d8111610f2157610f128183611450565b5f612010565b50505f905f90565b90506020813d602011612073575b8161205c60209383611450565b810103126100e65761206d90611472565b5f611fb1565b3d915061204f565b6120849061218a565b50506001600160a01b03169081611d065750505f90565b60405163026b1d5f60e01b81526020816004817f00000000000000000000000000000000000000000000000000000000000000006001600160a01b03165afa908115610301575f91612150575b506001600160a01b0316906120fd8183612289565b15612039576040516335ea6a7560e01b81526001600160a01b039091166004820152906101e090829060249082905afa908115610301576001600160801b03916080915f9161201a575001511690600190565b90506020813d602011612182575b8161216b60209383611450565b810103126100e65761217c90611472565b5f6120e8565b3d915061215e565b60405163e860accb60e01b815291906020836004817f00000000000000000000000000000000000000000000000000000000000000006001600160a01b03165afa928315610301575f9361224b575b506040516334924edb60e21b81526001600160a01b0391821660048201529260609184916024918391165afa91825f915f94612226575b5061221f57505f915081908190565b9190600190565b909350612242915060603d6060116102fa576102e98183611450565b9390505f612210565b9092506020813d602011612281575b8161226760209383611450565b810103126100e65761227a606091611472565b92906121d9565b3d915061225a565b6040516334651b6f60e21b815291905f90839060049082906001600160a01b03165afa918215610301575f92612300575b505f5b82518110156122f9576001600160a01b036122d8828561159b565b51166001600160a01b038316146122f1576001016122bd565b505050600190565b5050505f90565b6123159192503d805f833e6104748183611450565b905f6122ba56fea2646970667358221220f26fc4b39bba6bff1b05b43ce5a9f81429bcdd8b255deabad6ee46897f94962564736f6c634300081e0033",
  "devdoc": {
    "kind": "dev",
    "methods": {},
    "title": "AaveGatewayViewBase",
    "version": 1
  },
  "userdoc": {
    "kind": "user",
    "methods": {
      "getAllTokensInfo(address)": {
        "notice": "Returns all token info for a given user."
      }
    },
    "notice": "View-only gateway for Aave v3 protocol on Base. Avoids UiPoolDataProvider struct differences         by reading directly from Pool, DataProvider and Oracle. Constructor signature matches the         generic view so deploy scripts can deploy this under the same name.",
    "version": 1
  },
  "storageLayout": {
    "storage": [],
    "types": null
  }
}