{
  "address": "0xd02D6237aaFF2D852f4DC964f20c28C06ED603ba",
  "abi": [
    {
      "inputs": [
        {
          "internalType": "address",
          "name": "_poolAddressesProvider",
          "type": "address"
        },
        {
          "internalType": "address",
          "name": "",
          "type": "address"
        }
      ],
      "stateMutability": "nonpayable",
      "type": "constructor"
    },
    {
      "inputs": [
        {
          "internalType": "address",
          "name": "user",
          "type": "address"
        }
      ],
      "name": "borrowedTokens",
      "outputs": [
        {
          "internalType": "address[]",
          "name": "",
          "type": "address[]"
        }
      ],
      "stateMutability": "view",
      "type": "function"
    },
    {
      "inputs": [
        {
          "internalType": "address",
          "name": "underlyingToken",
          "type": "address"
        }
      ],
      "name": "getAToken",
      "outputs": [
        {
          "internalType": "address",
          "name": "",
          "type": "address"
        }
      ],
      "stateMutability": "view",
      "type": "function"
    },
    {
      "inputs": [
        {
          "internalType": "address",
          "name": "user",
          "type": "address"
        }
      ],
      "name": "getAllTokensInfo",
      "outputs": [
        {
          "components": [
            {
              "internalType": "address",
              "name": "token",
              "type": "address"
            },
            {
              "internalType": "uint256",
              "name": "supplyRate",
              "type": "uint256"
            },
            {
              "internalType": "uint256",
              "name": "borrowRate",
              "type": "uint256"
            },
            {
              "internalType": "string",
              "name": "name",
              "type": "string"
            },
            {
              "internalType": "string",
              "name": "symbol",
              "type": "string"
            },
            {
              "internalType": "uint256",
              "name": "price",
              "type": "uint256"
            },
            {
              "internalType": "uint256",
              "name": "borrowBalance",
              "type": "uint256"
            },
            {
              "internalType": "uint256",
              "name": "balance",
              "type": "uint256"
            },
            {
              "internalType": "address",
              "name": "aToken",
              "type": "address"
            },
            {
              "internalType": "uint8",
              "name": "decimals",
              "type": "uint8"
            }
          ],
          "internalType": "struct AaveGatewayViewBase.TokenInfo[]",
          "name": "",
          "type": "tuple[]"
        }
      ],
      "stateMutability": "view",
      "type": "function"
    },
    {
      "inputs": [
        {
          "internalType": "address",
          "name": "token",
          "type": "address"
        },
        {
          "internalType": "address",
          "name": "user",
          "type": "address"
        }
      ],
      "name": "getBalance",
      "outputs": [
        {
          "internalType": "uint256",
          "name": "",
          "type": "uint256"
        }
      ],
      "stateMutability": "view",
      "type": "function"
    },
    {
      "inputs": [
        {
          "internalType": "address",
          "name": "token",
          "type": "address"
        },
        {
          "internalType": "address",
          "name": "user",
          "type": "address"
        }
      ],
      "name": "getBorrowBalance",
      "outputs": [
        {
          "internalType": "uint256",
          "name": "",
          "type": "uint256"
        }
      ],
      "stateMutability": "view",
      "type": "function"
    },
    {
      "inputs": [
        {
          "internalType": "address",
          "name": "token",
          "type": "address"
        },
        {
          "internalType": "address",
          "name": "user",
          "type": "address"
        }
      ],
      "name": "getBorrowBalanceCurrent",
      "outputs": [
        {
          "internalType": "uint256",
          "name": "",
          "type": "uint256"
        }
      ],
      "stateMutability": "nonpayable",
      "type": "function"
    },
    {
      "inputs": [
        {
          "internalType": "address",
          "name": "token",
          "type": "address"
        }
      ],
      "name": "getBorrowRate",
      "outputs": [
        {
          "internalType": "uint256",
          "name": "",
          "type": "uint256"
        },
        {
          "internalType": "bool",
          "name": "",
          "type": "bool"
        }
      ],
      "stateMutability": "view",
      "type": "function"
    },
    {
      "inputs": [
        {
          "internalType": "address",
          "name": "",
          "type": "address"
        },
        {
          "internalType": "address",
          "name": "user",
          "type": "address"
        }
      ],
      "name": "getPossibleCollaterals",
      "outputs": [
        {
          "internalType": "address[]",
          "name": "collateralAddresses",
          "type": "address[]"
        },
        {
          "internalType": "uint256[]",
          "name": "balances",
          "type": "uint256[]"
        },
        {
          "internalType": "string[]",
          "name": "symbols",
          "type": "string[]"
        },
        {
          "internalType": "uint8[]",
          "name": "decimals",
          "type": "uint8[]"
        }
      ],
      "stateMutability": "view",
      "type": "function"
    },
    {
      "inputs": [
        {
          "internalType": "address",
          "name": "token",
          "type": "address"
        }
      ],
      "name": "getSupplyRate",
      "outputs": [
        {
          "internalType": "uint256",
          "name": "",
          "type": "uint256"
        },
        {
          "internalType": "bool",
          "name": "",
          "type": "bool"
        }
      ],
      "stateMutability": "view",
      "type": "function"
    },
    {
      "inputs": [
        {
          "internalType": "address",
          "name": "",
          "type": "address"
        }
      ],
      "name": "getSupportedCollaterals",
      "outputs": [
        {
          "internalType": "address[]",
          "name": "collateralAddresses",
          "type": "address[]"
        }
      ],
      "stateMutability": "view",
      "type": "function"
    },
    {
      "inputs": [
        {
          "internalType": "address",
          "name": "aToken",
          "type": "address"
        }
      ],
      "name": "getUnderlyingToken",
      "outputs": [
        {
          "internalType": "address",
          "name": "",
          "type": "address"
        }
      ],
      "stateMutability": "view",
      "type": "function"
    },
    {
      "inputs": [
        {
          "internalType": "address",
          "name": "",
          "type": "address"
        },
        {
          "internalType": "address",
          "name": "collateral",
          "type": "address"
        }
      ],
      "name": "isCollateralSupported",
      "outputs": [
        {
          "internalType": "bool",
          "name": "isSupported",
          "type": "bool"
        }
      ],
      "stateMutability": "view",
      "type": "function"
    },
    {
      "inputs": [],
      "name": "poolAddressesProvider",
      "outputs": [
        {
          "internalType": "contract IPoolAddressesProvider",
          "name": "",
          "type": "address"
        }
      ],
      "stateMutability": "view",
      "type": "function"
    }
  ],
  "transactionHash": "0x642abf6a365e5c680715a7b9b3b2cd8baa9b7ef0b8fdeaf8e9e00f98765f0ed8",
  "args": [
    "0x5213ab3997a596c75Ac6ebF81f8aEb9cf9A31007",
    "0x0A1198DDb5247a283F76077Bb1E45e5858ee100b"
  ],
  "numDeployments": 1,
  "solcInputHash": "33b6c958412fe17cb0d271c9323f3c2c",
  "bytecode": "0x60a060405234801561000f575f5ffd5b50604051612c9d380380612c9d83398101604081905261002e9161005b565b506001600160a01b031660805261008c565b80516001600160a01b0381168114610056575f5ffd5b919050565b5f5f6040838503121561006c575f5ffd5b61007583610040565b915061008360208401610040565b90509250929050565b608051612b976101065f395f81816101d70152818161024e0152818161065f01528181610d2601528181610da901528181610e2c015281816114f2015281816115750152818161189e0152818161199901528181611abb01528181611bd001528181611c530152818161209a01526121d00152612b975ff3fe608060405234801561000f575f5ffd5b50600436106100cb575f3560e01c8063732a52ee11610088578063ceac55df11610063578063ceac55df146101f9578063d4fac45d1461020c578063d71275f61461021f578063e94201c714610232575f5ffd5b8063732a52ee1461015c57806378466113146101af57806380e17d87146101d2575f5ffd5b8063104e999d146100cf578063118e31b7146100fb578063401d45d01461011c57806366e2d09b1461013c578063691bcc881461015c5780636b5441a914610187575b5f5ffd5b6100e26100dd3660046123b4565b610245565b6040516100f2949392919061248f565b60405180910390f35b61010e6101093660046123b4565b610c87565b6040519081526020016100f2565b61012f61012a366004612553565b610d21565b6040516100f2919061256e565b61014f61014a366004612553565b6114ed565b6040516100f29190612674565b61016f61016a366004612553565b61189a565b6040516001600160a01b0390911681526020016100f2565b61019a610195366004612553565b611994565b604080519283529015156020830152016100f2565b6101c26101bd3660046123b4565b611ab7565b60405190151581526020016100f2565b61016f7f000000000000000000000000000000000000000000000000000000000000000081565b61014f610207366004612553565b611bcb565b61010e61021a3660046123b4565b612048565b61019a61022d366004612553565b612095565b61010e6102403660046123b4565b6121b8565b6060806060805f7f00000000000000000000000000000000000000000000000000000000000000006001600160a01b031663026b1d5f6040518163ffffffff1660e01b8152600401602060405180830381865afa1580156102a8573d5f5f3e3d5ffd5b505050506040513d601f19601f820116820180604052508101906102cc9190612696565b90505f816001600160a01b031663d1946dbc6040518163ffffffff1660e01b81526004015f60405180830381865afa15801561030a573d5f5f3e3d5ffd5b505050506040513d5f823e601f3d908101601f19168201604052610331919081019061271e565b90506001600160a01b03871661065c578051806001600160401b0381111561035b5761035b6126b1565b604051908082528060200260200182016040528015610384578160200160208202803683370190505b509650806001600160401b0381111561039f5761039f6126b1565b6040519080825280602002602001820160405280156103c8578160200160208202803683370190505b509550806001600160401b038111156103e3576103e36126b1565b60405190808252806020026020018201604052801561041657816020015b60608152602001906001900390816104015790505b509450806001600160401b03811115610431576104316126b1565b60405190808252806020026020018201604052801561045a578160200160208202803683370190505b5093505f5b8181101561065357828181518110610479576104796127d0565b6020026020010151888281518110610493576104936127d0565b60200260200101906001600160a01b031690816001600160a01b0316815250508281815181106104c5576104c56127d0565b60200260200101516001600160a01b03166395d89b416040518163ffffffff1660e01b81526004015f60405180830381865afa92505050801561052957506040513d5f823e601f3d908101601f1916820160405261052691908101906127e4565b60015b61055e5760405180602001604052805f81525086828151811061054e5761054e6127d0565b602002602001018190525061057e565b80878381518110610571576105716127d0565b6020026020010181905250505b828181518110610590576105906127d0565b60200260200101516001600160a01b031663313ce5676040518163ffffffff1660e01b8152600401602060405180830381865afa9250505080156105f1575060408051601f3d908101601f191682019092526105ee91810190612876565b60015b610622576012858281518110610609576106096127d0565b602002602001019060ff16908160ff168152505061064b565b80868381518110610635576106356127d0565b602002602001019060ff16908160ff1681525050505b60010161045f565b50505050610c7e565b5f7f00000000000000000000000000000000000000000000000000000000000000006001600160a01b031663e860accb6040518163ffffffff1660e01b8152600401602060405180830381865afa1580156106b9573d5f5f3e3d5ffd5b505050506040513d601f19601f820116820180604052508101906106dd9190612696565b90505f805b8351811015610819575f836001600160a01b031663d2493b6c86848151811061070d5761070d6127d0565b60200260200101516040518263ffffffff1660e01b815260040161074091906001600160a01b0391909116815260200190565b606060405180830381865afa15801561075b573d5f5f3e3d5ffd5b505050506040513d601f19601f8201168201806040525081019061077f9190612896565b50909150506001600160a01b03811615610810576040516370a0823160e01b81526001600160a01b038c811660048301528216906370a0823190602401602060405180830381865afa9250505080156107f5575060408051601f3d908101601f191682019092526107f2918101906128e0565b60015b1561081057801561080e578361080a816128f7565b9450505b505b506001016106e2565b50806001600160401b03811115610832576108326126b1565b60405190808252806020026020018201604052801561085b578160200160208202803683370190505b509750806001600160401b03811115610876576108766126b1565b60405190808252806020026020018201604052801561089f578160200160208202803683370190505b509650806001600160401b038111156108ba576108ba6126b1565b6040519080825280602002602001820160405280156108ed57816020015b60608152602001906001900390816108d85790505b509550806001600160401b03811115610908576109086126b1565b604051908082528060200260200182016040528015610931578160200160208202803683370190505b5094505f805b8451811015610c77575f846001600160a01b031663d2493b6c878481518110610962576109626127d0565b60200260200101516040518263ffffffff1660e01b815260040161099591906001600160a01b0391909116815260200190565b606060405180830381865afa1580156109b0573d5f5f3e3d5ffd5b505050506040513d601f19601f820116820180604052508101906109d49190612896565b50909150506001600160a01b03811615610c6e576040516370a0823160e01b81526001600160a01b038d811660048301525f91908316906370a0823190602401602060405180830381865afa925050508015610a4d575060408051601f3d908101601f19168201909252610a4a918101906128e0565b60015b15610a555790505b8015610c6c57868381518110610a6d57610a6d6127d0565b60200260200101518c8581518110610a8757610a876127d0565b60200260200101906001600160a01b031690816001600160a01b031681525050808b8581518110610aba57610aba6127d0565b602002602001018181525050868381518110610ad857610ad86127d0565b60200260200101516001600160a01b03166395d89b416040518163ffffffff1660e01b81526004015f60405180830381865afa925050508015610b3c57506040513d5f823e601f3d908101601f19168201604052610b3991908101906127e4565b60015b610b715760405180602001604052805f8152508a8581518110610b6157610b616127d0565b6020026020010181905250610b91565b808b8681518110610b8457610b846127d0565b6020026020010181905250505b868381518110610ba357610ba36127d0565b60200260200101516001600160a01b031663313ce5676040518163ffffffff1660e01b8152600401602060405180830381865afa925050508015610c04575060408051601f3d908101601f19168201909252610c0191810190612876565b60015b610c35576012898581518110610c1c57610c1c6127d0565b602002602001019060ff16908160ff1681525050610c5e565b808a8681518110610c4857610c486127d0565b602002602001019060ff16908160ff1681525050505b83610c68816128f7565b9450505b505b50600101610937565b5050505050505b92959194509250565b5f5f610c92846121ca565b509150506001600160a01b03811615610d16576040516370a0823160e01b81526001600160a01b0384811660048301528216906370a08231906024015b602060405180830381865afa925050508015610d08575060408051601f3d908101601f19168201909252610d05918101906128e0565b60015b15610d16579150610d1b9050565b5f9150505b92915050565b60605f7f00000000000000000000000000000000000000000000000000000000000000006001600160a01b031663026b1d5f6040518163ffffffff1660e01b8152600401602060405180830381865afa158015610d80573d5f5f3e3d5ffd5b505050506040513d601f19601f82011682018060405250810190610da49190612696565b90505f7f00000000000000000000000000000000000000000000000000000000000000006001600160a01b031663fca513a86040518163ffffffff1660e01b8152600401602060405180830381865afa158015610e03573d5f5f3e3d5ffd5b505050506040513d601f19601f82011682018060405250810190610e279190612696565b90505f7f00000000000000000000000000000000000000000000000000000000000000006001600160a01b031663e860accb6040518163ffffffff1660e01b8152600401602060405180830381865afa158015610e86573d5f5f3e3d5ffd5b505050506040513d601f19601f82011682018060405250810190610eaa9190612696565b90505f836001600160a01b031663d1946dbc6040518163ffffffff1660e01b81526004015f60405180830381865afa158015610ee8573d5f5f3e3d5ffd5b505050506040513d5f823e601f3d908101601f19168201604052610f0f919081019061271e565b90505f81516001600160401b03811115610f2b57610f2b6126b1565b604051908082528060200260200182016040528015610fbf57816020015b610fac6040518061014001604052805f6001600160a01b031681526020015f81526020015f815260200160608152602001606081526020015f81526020015f81526020015f81526020015f6001600160a01b031681526020015f60ff1681525090565b815260200190600190039081610f495790505b5090505f5b82518110156114e2575f866001600160a01b03166335ea6a75858481518110610fef57610fef6127d0565b60200260200101516040518263ffffffff1660e01b815260040161102291906001600160a01b0391909116815260200190565b6101e060405180830381865afa15801561103e573d5f5f3e3d5ffd5b505050506040513d601f19601f820116820180604052508101906110629190612995565b90505f5f866001600160a01b031663d2493b6c878681518110611087576110876127d0565b60200260200101516040518263ffffffff1660e01b81526004016110ba91906001600160a01b0391909116815260200190565b606060405180830381865afa1580156110d5573d5f5f3e3d5ffd5b505050506040513d601f19601f820116820180604052508101906110f99190612896565b9193509091505f9050806001600160a01b0384161561117c576040516370a0823160e01b81526001600160a01b038e811660048301528516906370a0823190602401602060405180830381865afa925050508015611174575060408051601f3d908101601f19168201909252611171918101906128e0565b60015b1561117c5791505b6001600160a01b038316156111f5576040516370a0823160e01b81526001600160a01b038e811660048301528416906370a0823190602401602060405180830381865afa9250505080156111ed575060408051601f3d908101601f191682019092526111ea918101906128e0565b60015b156111f55790505b60408051602080820183525f808352835191820190935291825289519091908a9089908110611226576112266127d0565b60200260200101516001600160a01b03166306fdde036040518163ffffffff1660e01b81526004015f60405180830381865afa92505050801561128a57506040513d5f823e601f3d908101601f1916820160405261128791908101906127e4565b60015b156112925791505b8988815181106112a4576112a46127d0565b60200260200101516001600160a01b03166395d89b416040518163ffffffff1660e01b81526004015f60405180830381865afa92505050801561130857506040513d5f823e601f3d908101601f1916820160405261130591908101906127e4565b60015b156113105790505b5f601290508a8981518110611327576113276127d0565b60200260200101516001600160a01b031663313ce5676040518163ffffffff1660e01b8152600401602060405180830381865afa925050508015611388575060408051601f3d908101601f1916820190925261138591810190612876565b60015b156113905790505b6040518061014001604052808c8b815181106113ae576113ae6127d0565b60200260200101516001600160a01b0316815260200189604001516001600160801b0316815260200189608001516001600160801b031681526020018481526020018381526020018e6001600160a01b031663b3596f078e8d81518110611417576114176127d0565b60200260200101516040518263ffffffff1660e01b815260040161144a91906001600160a01b0391909116815260200190565b602060405180830381865afa158015611465573d5f5f3e3d5ffd5b505050506040513d601f19601f8201168201806040525081019061148991906128e0565b8152602001858152602001868152602001886001600160a01b031681526020018260ff168152508a8a815181106114c2576114c26127d0565b602002602001018190525050505050505050508080600101915050610fc4565b509695505050505050565b60605f7f00000000000000000000000000000000000000000000000000000000000000006001600160a01b031663026b1d5f6040518163ffffffff1660e01b8152600401602060405180830381865afa15801561154c573d5f5f3e3d5ffd5b505050506040513d601f19601f820116820180604052508101906115709190612696565b90505f7f00000000000000000000000000000000000000000000000000000000000000006001600160a01b031663e860accb6040518163ffffffff1660e01b8152600401602060405180830381865afa1580156115cf573d5f5f3e3d5ffd5b505050506040513d601f19601f820116820180604052508101906115f39190612696565b90505f826001600160a01b031663d1946dbc6040518163ffffffff1660e01b81526004015f60405180830381865afa158015611631573d5f5f3e3d5ffd5b505050506040513d5f823e601f3d908101601f19168201604052611658919081019061271e565b90505f805b8251811015611730575f5f856001600160a01b0316633e150141868581518110611689576116896127d0565b60200260200101516040518263ffffffff1660e01b81526004016116bc91906001600160a01b0391909116815260200190565b61014060405180830381865afa1580156116d8573d5f5f3e3d5ffd5b505050506040513d601f19601f820116820180604052508101906116fc9190612ace565b505050509550505050925050808061171357508115155b156117265783611722816128f7565b9450505b505060010161165d565b50806001600160401b03811115611749576117496126b1565b604051908082528060200260200182016040528015611772578160200160208202803683370190505b5094505f805b835181101561188f575f5f866001600160a01b0316633e1501418785815181106117a4576117a46127d0565b60200260200101516040518263ffffffff1660e01b81526004016117d791906001600160a01b0391909116815260200190565b61014060405180830381865afa1580156117f3573d5f5f3e3d5ffd5b505050506040513d601f19601f820116820180604052508101906118179190612ace565b505050509550505050925050808061182e57508115155b1561188557858381518110611845576118456127d0565b602002602001015189858151811061185f5761185f6127d0565b6001600160a01b039092166020928302919091019091015283611881816128f7565b9450505b5050600101611778565b505050505050919050565b5f5f7f00000000000000000000000000000000000000000000000000000000000000006001600160a01b031663e860accb6040518163ffffffff1660e01b8152600401602060405180830381865afa1580156118f8573d5f5f3e3d5ffd5b505050506040513d601f19601f8201168201806040525081019061191c9190612696565b6040516334924edb60e21b81526001600160a01b0385811660048301529192505f9183169063d2493b6c90602401606060405180830381865afa158015611965573d5f5f3e3d5ffd5b505050506040513d601f19601f820116820180604052508101906119899190612896565b509095945050505050565b5f5f5f7f00000000000000000000000000000000000000000000000000000000000000006001600160a01b031663026b1d5f6040518163ffffffff1660e01b8152600401602060405180830381865afa1580156119f3573d5f5f3e3d5ffd5b505050506040513d601f19601f82011682018060405250810190611a179190612696565b9050611a2381856122dd565b611a3257505f93849350915050565b6040516335ea6a7560e01b81526001600160a01b0385811660048301525f91908316906335ea6a75906024016101e060405180830381865afa158015611a7a573d5f5f3e3d5ffd5b505050506040513d601f19601f82011682018060405250810190611a9e9190612995565b604001516001600160801b031695600195509350505050565b5f5f7f00000000000000000000000000000000000000000000000000000000000000006001600160a01b031663e860accb6040518163ffffffff1660e01b8152600401602060405180830381865afa158015611b15573d5f5f3e3d5ffd5b505050506040513d601f19601f82011682018060405250810190611b399190612696565b604051633e15014160e01b81526001600160a01b0385811660048301529192505f91829190841690633e1501419060240161014060405180830381865afa158015611b86573d5f5f3e3d5ffd5b505050506040513d601f19601f82011682018060405250810190611baa9190612ace565b5050505095505050509250508080611bc157508115155b9695505050505050565b60605f7f00000000000000000000000000000000000000000000000000000000000000006001600160a01b031663026b1d5f6040518163ffffffff1660e01b8152600401602060405180830381865afa158015611c2a573d5f5f3e3d5ffd5b505050506040513d601f19601f82011682018060405250810190611c4e9190612696565b90505f7f00000000000000000000000000000000000000000000000000000000000000006001600160a01b031663e860accb6040518163ffffffff1660e01b8152600401602060405180830381865afa158015611cad573d5f5f3e3d5ffd5b505050506040513d601f19601f82011682018060405250810190611cd19190612696565b90505f826001600160a01b031663d1946dbc6040518163ffffffff1660e01b81526004015f60405180830381865afa158015611d0f573d5f5f3e3d5ffd5b505050506040513d5f823e601f3d908101601f19168201604052611d36919081019061271e565b90505f805b8251811015611e71575f846001600160a01b031663d2493b6c858481518110611d6657611d666127d0565b60200260200101516040518263ffffffff1660e01b8152600401611d9991906001600160a01b0391909116815260200190565b606060405180830381865afa158015611db4573d5f5f3e3d5ffd5b505050506040513d601f19601f82011682018060405250810190611dd89190612896565b925050506001600160a01b03811615611e68576040516370a0823160e01b81526001600160a01b0389811660048301528216906370a0823190602401602060405180830381865afa925050508015611e4d575060408051601f3d908101601f19168201909252611e4a918101906128e0565b60015b15611e68578015611e665783611e62816128f7565b9450505b505b50600101611d3b565b505f816001600160401b03811115611e8b57611e8b6126b1565b604051908082528060200260200182016040528015611eb4578160200160208202803683370190505b5090505f805b845181101561203b575f866001600160a01b031663d2493b6c878481518110611ee557611ee56127d0565b60200260200101516040518263ffffffff1660e01b8152600401611f1891906001600160a01b0391909116815260200190565b606060405180830381865afa158015611f33573d5f5f3e3d5ffd5b505050506040513d601f19601f82011682018060405250810190611f579190612896565b925050506001600160a01b03811615612032576040516370a0823160e01b81526001600160a01b038b811660048301528216906370a0823190602401602060405180830381865afa925050508015611fcc575060408051601f3d908101601f19168201909252611fc9918101906128e0565b60015b1561203257801561203057868381518110611fe957611fe96127d0565b6020026020010151858580611ffd906128f7565b96508151811061200f5761200f6127d0565b60200260200101906001600160a01b031690816001600160a01b0316815250505b505b50600101611eba565b5090979650505050505050565b5f5f612053846121ca565b50909150506001600160a01b03811615610d16576040516370a0823160e01b81526001600160a01b0384811660048301528216906370a0823190602401610ccf565b5f5f5f7f00000000000000000000000000000000000000000000000000000000000000006001600160a01b031663026b1d5f6040518163ffffffff1660e01b8152600401602060405180830381865afa1580156120f4573d5f5f3e3d5ffd5b505050506040513d601f19601f820116820180604052508101906121189190612696565b905061212481856122dd565b61213357505f93849350915050565b6040516335ea6a7560e01b81526001600160a01b0385811660048301525f91908316906335ea6a75906024016101e060405180830381865afa15801561217b573d5f5f3e3d5ffd5b505050506040513d601f19601f8201168201806040525081019061219f9190612995565b608001516001600160801b031695600195509350505050565b5f6121c38383610c87565b9392505050565b5f5f5f5f7f00000000000000000000000000000000000000000000000000000000000000006001600160a01b031663e860accb6040518163ffffffff1660e01b8152600401602060405180830381865afa15801561222a573d5f5f3e3d5ffd5b505050506040513d601f19601f8201168201806040525081019061224e9190612696565b6040516334924edb60e21b81526001600160a01b0387811660048301529192509082169063d2493b6c90602401606060405180830381865afa9250505080156122b4575060408051601f3d908101601f191682019092526122b191810190612896565b60015b156122cb57919550909350600192506122d6915050565b5f5f5f935093509350505b9193909250565b5f5f836001600160a01b031663d1946dbc6040518163ffffffff1660e01b81526004015f60405180830381865afa15801561231a573d5f5f3e3d5ffd5b505050506040513d5f823e601f3d908101601f19168201604052612341919081019061271e565b90505f5b815181101561239357836001600160a01b031682828151811061236a5761236a6127d0565b60200260200101516001600160a01b03160361238b57600192505050610d1b565b600101612345565b505f949350505050565b6001600160a01b03811681146123b1575f5ffd5b50565b5f5f604083850312156123c5575f5ffd5b82356123d08161239d565b915060208301356123e08161239d565b809150509250929050565b5f8151808452602084019350602083015f5b828110156124245781516001600160a01b03168652602095860195909101906001016123fd565b5093949350505050565b5f81518084528060208401602086015e5f602082860101526020601f19601f83011685010191505092915050565b5f8151808452602084019350602083015f5b8281101561242457815160ff1686526020958601959091019060010161246e565b608081525f6124a160808301876123eb565b82810360208401528086518083526020830191506020880192505f5b818110156124db5783518352602093840193909201916001016124bd565b50508381036040850152855180825260208083019350600582901b830181019088015f5b8381101561253157601f1985840301865261251b83835161242e565b60209687019690935091909101906001016124ff565b50508581036060870152612545818861245c565b9a9950505050505050505050565b5f60208284031215612563575f5ffd5b81356121c38161239d565b5f602082016020835280845180835260408501915060408160051b8601019250602086015f5b8281101561266857868503603f19018452815180516001600160a01b031686526020810151602087015260408101516040870152606081015161014060608801526125e361014088018261242e565b9050608082015187820360808901526125fc828261242e565b91505060a082015160a088015260c082015160c088015260e082015160e08801526101008201516126396101008901826001600160a01b03169052565b50610120820151915061265261012088018360ff169052565b9550506020938401939190910190600101612594565b50929695505050505050565b602081525f6121c360208301846123eb565b80516126918161239d565b919050565b5f602082840312156126a6575f5ffd5b81516121c38161239d565b634e487b7160e01b5f52604160045260245ffd5b6040516101e081016001600160401b03811182821017156126e8576126e86126b1565b60405290565b604051601f8201601f191681016001600160401b0381118282101715612716576127166126b1565b604052919050565b5f6020828403121561272e575f5ffd5b81516001600160401b03811115612743575f5ffd5b8201601f81018413612753575f5ffd5b80516001600160401b0381111561276c5761276c6126b1565b8060051b61277c602082016126ee565b91825260208184018101929081019087841115612797575f5ffd5b6020850194505b838510156127c557845192506127b38361239d565b8282526020948501949091019061279e565b979650505050505050565b634e487b7160e01b5f52603260045260245ffd5b5f602082840312156127f4575f5ffd5b81516001600160401b03811115612809575f5ffd5b8201601f81018413612819575f5ffd5b80516001600160401b03811115612832576128326126b1565b612845601f8201601f19166020016126ee565b818152856020838501011115612859575f5ffd5b8160208401602083015e5f91810160200191909152949350505050565b5f60208284031215612886575f5ffd5b815160ff811681146121c3575f5ffd5b5f5f5f606084860312156128a8575f5ffd5b83516128b38161239d565b60208501519093506128c48161239d565b60408501519092506128d58161239d565b809150509250925092565b5f602082840312156128f0575f5ffd5b5051919050565b5f6001820161291457634e487b7160e01b5f52601160045260245ffd5b5060010190565b5f6020828403121561292b575f5ffd5b604051602081016001600160401b038111828210171561294d5761294d6126b1565b6040529151825250919050565b80516001600160801b0381168114612691575f5ffd5b805164ffffffffff81168114612691575f5ffd5b805161ffff81168114612691575f5ffd5b5f6101e08284031280156129a7575f5ffd5b506129b06126c5565b6129ba848461291b565b81526129c86020840161295a565b60208201526129d96040840161295a565b60408201526129ea6060840161295a565b60608201526129fb6080840161295a565b6080820152612a0c60a0840161295a565b60a0820152612a1d60c08401612970565b60c0820152612a2e60e08401612984565b60e0820152612a406101008401612686565b610100820152612a536101208401612686565b610120820152612a666101408401612686565b610140820152612a796101608401612686565b610160820152612a8c610180840161295a565b610180820152612a9f6101a0840161295a565b6101a0820152612ab26101c0840161295a565b6101c08201529392505050565b80518015158114612691575f5ffd5b5f5f5f5f5f5f5f5f5f5f6101408b8d031215612ae8575f5ffd5b8a5160208c015160408d015160608e015160808f0151939d50919b50995097509550612b1660a08c01612abf565b9450612b2460c08c01612abf565b9350612b3260e08c01612abf565b9250612b416101008c01612abf565b9150612b506101208c01612abf565b90509295989b9194979a509295985056fea26469706673582212201411eb1f65e8b62ebce752eaac8a28be24e1631383632b7bae7bf5e1db05b61d64736f6c634300081e0033",
  "devdoc": {
    "kind": "dev",
    "methods": {},
    "title": "AaveGatewayViewBase",
    "version": 1
  },
  "userdoc": {
    "kind": "user",
    "methods": {
      "getAllTokensInfo(address)": {
        "notice": "Returns all token info for a given user."
      }
    },
    "notice": "View-only gateway for Aave v3 protocol on Base. Avoids UiPoolDataProvider struct differences         by reading directly from Pool, DataProvider and Oracle. Constructor signature matches the         generic view so deploy scripts can deploy this under the same name.",
    "version": 1
  },
  "storageLayout": {
    "storage": [],
    "types": null
  }
}