{
  "address": "0xb504Dd1343673929a42A40B55403966b19076201",
  "abi": [
    {
      "inputs": [
        {
          "internalType": "address",
          "name": "router",
          "type": "address"
        },
        {
          "internalType": "address",
          "name": "_poolAddressesProvider",
          "type": "address"
        },
        {
          "internalType": "uint16",
          "name": "_referralCode",
          "type": "uint16"
        }
      ],
      "stateMutability": "nonpayable",
      "type": "constructor"
    },
    {
      "inputs": [
        {
          "internalType": "address",
          "name": "target",
          "type": "address"
        }
      ],
      "name": "AddressEmptyCode",
      "type": "error"
    },
    {
      "inputs": [
        {
          "internalType": "address",
          "name": "account",
          "type": "address"
        }
      ],
      "name": "AddressInsufficientBalance",
      "type": "error"
    },
    {
      "inputs": [],
      "name": "FailedInnerCall",
      "type": "error"
    },
    {
      "inputs": [],
      "name": "ReentrancyGuardReentrantCall",
      "type": "error"
    },
    {
      "inputs": [
        {
          "internalType": "address",
          "name": "token",
          "type": "address"
        }
      ],
      "name": "SafeERC20FailedOperation",
      "type": "error"
    },
    {
      "inputs": [],
      "name": "REFERRAL_CODE",
      "outputs": [
        {
          "internalType": "uint16",
          "name": "",
          "type": "uint16"
        }
      ],
      "stateMutability": "view",
      "type": "function"
    },
    {
      "inputs": [],
      "name": "ROUTER",
      "outputs": [
        {
          "internalType": "address",
          "name": "",
          "type": "address"
        }
      ],
      "stateMutability": "view",
      "type": "function"
    },
    {
      "inputs": [
        {
          "components": [
            {
              "internalType": "enum ProtocolTypes.LendingOp",
              "name": "op",
              "type": "uint8"
            },
            {
              "internalType": "address",
              "name": "token",
              "type": "address"
            },
            {
              "internalType": "address",
              "name": "user",
              "type": "address"
            },
            {
              "internalType": "uint256",
              "name": "amount",
              "type": "uint256"
            },
            {
              "internalType": "bytes",
              "name": "context",
              "type": "bytes"
            },
            {
              "components": [
                {
                  "internalType": "uint256",
                  "name": "index",
                  "type": "uint256"
                }
              ],
              "internalType": "struct ProtocolTypes.InputPtr",
              "name": "input",
              "type": "tuple"
            }
          ],
          "internalType": "struct ProtocolTypes.LendingInstruction[]",
          "name": "instrs",
          "type": "tuple[]"
        },
        {
          "internalType": "address",
          "name": "caller",
          "type": "address"
        },
        {
          "components": [
            {
              "internalType": "address",
              "name": "token",
              "type": "address"
            },
            {
              "internalType": "uint256",
              "name": "amount",
              "type": "uint256"
            }
          ],
          "internalType": "struct ProtocolTypes.Output[]",
          "name": "inputs",
          "type": "tuple[]"
        }
      ],
      "name": "authorize",
      "outputs": [
        {
          "internalType": "address[]",
          "name": "targets",
          "type": "address[]"
        },
        {
          "internalType": "bytes[]",
          "name": "data",
          "type": "bytes[]"
        },
        {
          "components": [
            {
              "internalType": "address",
              "name": "token",
              "type": "address"
            },
            {
              "internalType": "uint256",
              "name": "amount",
              "type": "uint256"
            }
          ],
          "internalType": "struct ProtocolTypes.Output[]",
          "name": "produced",
          "type": "tuple[]"
        }
      ],
      "stateMutability": "view",
      "type": "function"
    },
    {
      "inputs": [
        {
          "components": [
            {
              "internalType": "enum ProtocolTypes.LendingOp",
              "name": "op",
              "type": "uint8"
            },
            {
              "internalType": "address",
              "name": "token",
              "type": "address"
            },
            {
              "internalType": "address",
              "name": "user",
              "type": "address"
            },
            {
              "internalType": "uint256",
              "name": "amount",
              "type": "uint256"
            },
            {
              "internalType": "bytes",
              "name": "context",
              "type": "bytes"
            },
            {
              "components": [
                {
                  "internalType": "uint256",
                  "name": "index",
                  "type": "uint256"
                }
              ],
              "internalType": "struct ProtocolTypes.InputPtr",
              "name": "input",
              "type": "tuple"
            }
          ],
          "internalType": "struct ProtocolTypes.LendingInstruction[]",
          "name": "instrs",
          "type": "tuple[]"
        },
        {
          "internalType": "address",
          "name": "",
          "type": "address"
        },
        {
          "components": [
            {
              "internalType": "address",
              "name": "token",
              "type": "address"
            },
            {
              "internalType": "uint256",
              "name": "amount",
              "type": "uint256"
            }
          ],
          "internalType": "struct ProtocolTypes.Output[]",
          "name": "inputs",
          "type": "tuple[]"
        }
      ],
      "name": "deauthorize",
      "outputs": [
        {
          "internalType": "address[]",
          "name": "targets",
          "type": "address[]"
        },
        {
          "internalType": "bytes[]",
          "name": "data",
          "type": "bytes[]"
        }
      ],
      "stateMutability": "view",
      "type": "function"
    },
    {
      "inputs": [
        {
          "internalType": "uint8",
          "name": "categoryId",
          "type": "uint8"
        }
      ],
      "name": "encodeSetEMode",
      "outputs": [
        {
          "internalType": "address",
          "name": "target",
          "type": "address"
        },
        {
          "internalType": "bytes",
          "name": "callData",
          "type": "bytes"
        }
      ],
      "stateMutability": "view",
      "type": "function"
    },
    {
      "inputs": [],
      "name": "getPool",
      "outputs": [
        {
          "internalType": "address",
          "name": "",
          "type": "address"
        }
      ],
      "stateMutability": "view",
      "type": "function"
    },
    {
      "inputs": [],
      "name": "poolAddressesProvider",
      "outputs": [
        {
          "internalType": "contract IPoolAddressesProvider",
          "name": "",
          "type": "address"
        }
      ],
      "stateMutability": "view",
      "type": "function"
    },
    {
      "inputs": [
        {
          "components": [
            {
              "internalType": "address",
              "name": "token",
              "type": "address"
            },
            {
              "internalType": "uint256",
              "name": "amount",
              "type": "uint256"
            }
          ],
          "internalType": "struct ProtocolTypes.Output[]",
          "name": "inputs",
          "type": "tuple[]"
        },
        {
          "internalType": "bytes",
          "name": "data",
          "type": "bytes"
        }
      ],
      "name": "processLendingInstruction",
      "outputs": [
        {
          "components": [
            {
              "internalType": "address",
              "name": "token",
              "type": "address"
            },
            {
              "internalType": "uint256",
              "name": "amount",
              "type": "uint256"
            }
          ],
          "internalType": "struct ProtocolTypes.Output[]",
          "name": "outputs",
          "type": "tuple[]"
        }
      ],
      "stateMutability": "nonpayable",
      "type": "function"
    }
  ],
  "transactionHash": "0x9df4a63128991dd27b19d7d13dc7aaef96eb3e9b8ffedf6d997e9ccf5423215a",
  "args": [
    "0xC444698c4a6f18B4e86FDE6b4e27d08B0192C85a",
    "0x5213ab3997a596c75Ac6ebF81f8aEb9cf9A31007",
    0
  ],
  "numDeployments": 19,
  "solcInputHash": "cf5ff5c132e6b3e2cf29e3be8b528fd9",
  "bytecode": "0x60e060405234801561000f575f5ffd5b50604051612ed4380380612ed483398101604081905261002e916100b5565b826001600160a01b0381166100745760405162461bcd60e51b81526020600482015260086024820152670726f757465723d360c41b604482015260640160405180910390fd5b6001600160a01b0390811660805260015f559190911660a05261ffff1660c052506100ff565b80516001600160a01b03811681146100b0575f5ffd5b919050565b5f5f5f606084860312156100c7575f5ffd5b6100d08461009a565b92506100de6020850161009a565b9150604084015161ffff811681146100f4575f5ffd5b809150509250925092565b60805160a05160c051612d5961017b5f395f818160e501528181611a040152611f5601525f8181610141015281816101a70152818161022f01528181610bbe01528181611553015281816116500152818161183a01528181611c1a01528181611d750152611fe901525f818160be015261105f0152612d595ff3fe608060405234801561000f575f5ffd5b5060043610610076575f3560e01c8063026b1d5f1461007a5780632e24a1881461009857806332fe7b26146100b95780633583849a146100e057806352ed58751461011a57806380e17d871461013c578063aad11a3f14610163578063ae4be46d14610184575b5f5ffd5b6100826101a4565b60405161008f9190612598565b60405180910390f35b6100ab6100a63660046125ac565b61022a565b60405161008f9291906125fa565b6100827f000000000000000000000000000000000000000000000000000000000000000081565b6101077f000000000000000000000000000000000000000000000000000000000000000081565b60405161ffff909116815260200161008f565b61012d610128366004612690565b6102f1565b60405161008f9392919061281f565b6100827f000000000000000000000000000000000000000000000000000000000000000081565b610176610171366004612690565b610d2f565b60405161008f929190612857565b610197610192366004612884565b611052565b60405161008f919061291a565b5f7f00000000000000000000000000000000000000000000000000000000000000006001600160a01b031663026b1d5f6040518163ffffffff1660e01b8152600401602060405180830381865afa158015610201573d5f5f3e3d5ffd5b505050506040513d601f19601f82011682018060405250810190610225919061292c565b905090565b5f60607f00000000000000000000000000000000000000000000000000000000000000006001600160a01b031663026b1d5f6040518163ffffffff1660e01b8152600401602060405180830381865afa158015610289573d5f5f3e3d5ffd5b505050506040513d601f19601f820116820180604052508101906102ad919061292c565b60405160ff8516602482015290925060440160408051601f198184030181529190526020810180516001600160e01b03166328530a4760e01b179052919391925050565b60608080866001600160401b0381111561030d5761030d612947565b604051908082528060200260200182016040528015610336578160200160208202803683370190505b509250866001600160401b0381111561035157610351612947565b60405190808252806020026020018201604052801561038457816020015b606081526020019060019003908161036f5790505b5091505f805b88811015610468575f8a8a838181106103a5576103a561295b565b90506020028101906103b7919061296f565b6103c590602081019061299b565b905060028160098111156103db576103db6129b4565b14806103f8575060038160098111156103f6576103f66129b4565b145b8061041457506005816009811115610412576104126129b4565b145b806104305750600681600981111561042e5761042e6129b4565b145b8061044c5750600481600981111561044a5761044a6129b4565b145b1561045f578261045b816129dc565b9350505b5060010161038a565b50806001600160401b0381111561048157610481612947565b6040519080825280602002602001820160405280156104ba57816020015b6104a7612582565b81526020019060019003908161049f5790505b5091505f805b89811015610d2157368b8b838181106104db576104db61295b565b90506020028101906104ed919061296f565b90505f61050060408301602084016129f4565b9050606082013560a08301358a1115610564578a8a60a08501358181106105295761052961295b565b61053f92602060409092020190810191506129f4565b91508a8a60a08501358181106105575761055761295b565b9050604002016020013590505b6002610573602085018561299b565b6009811115610584576105846129b4565b0361076a575f6105938361154f565b90505f816001600160a01b031663dd62ed3e8f306040518363ffffffff1660e01b81526004016105c4929190612a0f565b602060405180830381865afa1580156105df573d5f5f3e3d5ffd5b505050506040513d601f19601f820116820180604052508101906106039190612a29565b90505f8390506040518060400160405280866001600160a01b03168152602001858152508a89815181106106395761063961295b565b6020026020010181905250878061064f906129dc565b98505083158015906106615750808210155b156106ca575f8c88815181106106795761067961295b565b60200260200101906001600160a01b031690816001600160a01b03168152505060405180602001604052805f8152508b88815181106106ba576106ba61295b565b6020026020010181905250610762565b828c88815181106106dd576106dd61295b565b6001600160a01b039092166020928302919091019091015260405163095ea7b360e01b906107119030908490602401612a40565b604051602081830303815290604052906001600160e01b0319166020820180516001600160e01b0383818316178352505050508b88815181106107565761075661295b565b60200260200101819052505b505050610d16565b6003610779602085018561299b565b600981111561078a5761078a6129b4565b0361097b575f6107998361164a565b925050506040518060400160405280846001600160a01b03168152602001838152508887815181106107cd576107cd61295b565b602002602001018190525085806107e3906129dc565b9650506001600160a01b038116610858575f8a86815181106108075761080761295b565b60200260200101906001600160a01b031690816001600160a01b03168152505060405180602001604052805f8152508986815181106108485761084861295b565b6020026020010181905250610975565b5f816001600160a01b0316636bd76d248f306040518363ffffffff1660e01b8152600401610887929190612a0f565b602060405180830381865afa1580156108a2573d5f5f3e3d5ffd5b505050506040513d601f19601f820116820180604052508101906108c69190612a29565b9050828082108015906108d857508315155b156108f0575f8c88815181106106795761067961295b565b828c88815181106109035761090361295b565b60200260200101906001600160a01b031690816001600160a01b031681525050305f19604051602401610937929190612a40565b60408051601f198184030181529190526020810180516001600160e01b0316630c04a8a160e41b1790528b518c90899081106107565761075661295b565b50610d16565b600561098a602085018561299b565b600981111561099b5761099b6129b4565b03610a85575f6109ba836109b560608701604088016129f4565b61174a565b90506103e86109cb826103e9612a59565b6109d59190612a70565b90506040518060400160405280846001600160a01b0316815260200182815250888781518110610a0757610a0761295b565b60200260200101819052508580610a1d906129dc565b9650505f8a8681518110610a3357610a3361295b565b60200260200101906001600160a01b031690816001600160a01b03168152505060405180602001604052805f815250898681518110610a7457610a7461295b565b602002602001018190525050610d16565b6006610a94602085018561299b565b6009811115610aa557610aa56129b4565b03610ac4575f6109ba83610abf60608701604088016129f4565b6117e4565b6004610ad3602085018561299b565b6009811115610ae457610ae46129b4565b03610b96576040518060400160405280836001600160a01b031681526020015f815250878681518110610b1957610b1961295b565b60200260200101819052508480610b2f906129dc565b9550505f898581518110610b4557610b4561295b565b60200260200101906001600160a01b031690816001600160a01b03168152505060405180602001604052805f815250888581518110610b8657610b8661295b565b6020026020010181905250610d16565b6009610ba5602085018561299b565b6009811115610bb657610bb66129b4565b03610cb6575f7f00000000000000000000000000000000000000000000000000000000000000006001600160a01b031663026b1d5f6040518163ffffffff1660e01b8152600401602060405180830381865afa158015610c18573d5f5f3e3d5ffd5b505050506040513d601f19601f82011682018060405250810190610c3c919061292c565b9050808a8681518110610c5157610c5161295b565b6001600160a01b039092166020928302919091019091015260405160ff8316602482015260440160408051601f198184030181529190526020810180516001600160e01b03166328530a4760e01b17905289518a9087908110610a7457610a7461295b565b5f898581518110610cc957610cc961295b565b60200260200101906001600160a01b031690816001600160a01b03168152505060405180602001604052805f815250888581518110610d0a57610d0a61295b565b60200260200101819052505b5050506001016104c0565b505050955095509592505050565b606080856001600160401b03811115610d4a57610d4a612947565b604051908082528060200260200182016040528015610d73578160200160208202803683370190505b509150856001600160401b03811115610d8e57610d8e612947565b604051908082528060200260200182016040528015610dc157816020015b6060815260200190600190039081610dac5790505b5090505f5b868110156110475736888883818110610de157610de161295b565b9050602002810190610df3919061296f565b90505f610e0660408301602084016129f4565b905060a0820135861115610e4357868660a0840135818110610e2a57610e2a61295b565b610e4092602060409092020190810191506129f4565b90505b6002610e52602084018461299b565b6009811115610e6357610e636129b4565b03610f11575f610e728261154f565b905080868581518110610e8757610e8761295b565b6001600160a01b039092166020928302919091019091015260405163095ea7b360e01b90610ebb9030905f90602401612a8f565b604051602081830303815290604052906001600160e01b0319166020820180516001600160e01b038381831617835250505050858581518110610f0057610f0061295b565b60200260200101819052505061103d565b6003610f20602084018461299b565b6009811115610f3157610f316129b4565b03610fdd575f610f408261164a565b925050506001600160a01b03811615610fd75780868581518110610f6657610f6661295b565b60200260200101906001600160a01b031690816001600160a01b031681525050305f604051602401610f99929190612a8f565b60408051601f198184030181529190526020810180516001600160e01b0316630c04a8a160e41b1790528551869086908110610f0057610f0061295b565b5061103d565b5f858481518110610ff057610ff061295b565b60200260200101906001600160a01b031690816001600160a01b03168152505060405180602001604052805f8152508484815181106110315761103161295b565b60200260200101819052505b5050600101610dc6565b509550959350505050565b6060336001600160a01b037f000000000000000000000000000000000000000000000000000000000000000016146110c85760405162461bcd60e51b815260206004820152601460248201527313db9b1e481c9bdd5d195c8818d85b8818d85b1b60621b60448201526064015b60405180910390fd5b5f6110d583850185612b42565b6020810151606082015160a08301515192935090918711156111485787878460a001515f015181811061110a5761110a61295b565b61112092602060409092020190810191506129f4565b915087878460a001515f015181811061113b5761113b61295b565b9050604002016020013590505b5f8351600981111561115c5761115c6129b4565b148061117a5750600183516009811115611178576111786129b4565b145b156111c65761118e8284604001518361182f565b604080515f80825260208201909252906111be565b6111ab612582565b8152602001906001900390816111a35790505b509350611544565b6002835160098111156111db576111db6129b4565b0361126a575f5f6111f184866040015185611a71565b604080516001808252818301909252929450909250816020015b611213612582565b81526020019060019003908161120b5790505095506040518060400160405280836001600160a01b0316815260200182815250865f815181106112585761125861295b565b60200260200101819052505050611544565b60038351600981111561127f5761127f6129b4565b036113055761129382846040015183611d6a565b60408051600180825281830190925290816020015b6112b0612582565b8152602001906001900390816112a85790505093506040518060400160405280836001600160a01b0316815260200182815250845f815181106112f5576112f561295b565b6020026020010181905250611544565b60048351600981111561131a5761131a6129b4565b036113a4575f61132f83856040015184611fdd565b604080516001808252818301909252919250816020015b61134e612582565b8152602001906001900390816113465790505094506040518060400160405280846001600160a01b0316815260200182815250855f815181106113935761139361295b565b602002602001018190525050611544565b6005835160098111156113b9576113b96129b4565b03611431575f6113cd83856040015161174a565b604080516001808252818301909252919250816020015b6113ec612582565b8152602001906001900390816113e45790505094506040518060400160405280846001600160a01b0316815260200182815250855f815181106113935761139361295b565b600683516009811115611446576114466129b4565b036114be575f61145a8385604001516117e4565b604080516001808252818301909252919250816020015b611479612582565b8152602001906001900390816114715790505094506040518060400160405280846001600160a01b0316815260200182815250855f815181106113935761139361295b565b6009835160098111156114d3576114d36129b4565b0361150f57604080515f80825260208201909252906111be565b6114f5612582565b8152602001906001900390816114ed579050509350611544565b60405162461bcd60e51b815260206004820152600a6024820152690556e6b6e6f776e206f760b41b60448201526064016110bf565b505050949350505050565b5f5f7f00000000000000000000000000000000000000000000000000000000000000006001600160a01b031663e860accb6040518163ffffffff1660e01b8152600401602060405180830381865afa1580156115ad573d5f5f3e3d5ffd5b505050506040513d601f19601f820116820180604052508101906115d1919061292c565b90505f816001600160a01b031663d2493b6c856040518263ffffffff1660e01b81526004016116009190612598565b606060405180830381865afa15801561161b573d5f5f3e3d5ffd5b505050506040513d601f19601f8201168201806040525081019061163f9190612c58565b509095945050505050565b5f5f5f5f7f00000000000000000000000000000000000000000000000000000000000000006001600160a01b031663e860accb6040518163ffffffff1660e01b8152600401602060405180830381865afa1580156116aa573d5f5f3e3d5ffd5b505050506040513d601f19601f820116820180604052508101906116ce919061292c565b6040516334924edb60e21b81529091506001600160a01b0382169063d2493b6c906116fd908890600401612598565b606060405180830381865afa158015611718573d5f5f3e3d5ffd5b505050506040513d601f19601f8201168201806040525081019061173c9190612c58565b919790965090945092505050565b5f5f6117558461164a565b925050506001600160a01b038116156117d8576040516370a0823160e01b81526001600160a01b038216906370a0823190611794908690600401612598565b602060405180830381865afa1580156117af573d5f5f3e3d5ffd5b505050506040513d601f19601f820116820180604052508101906117d39190612a29565b6117da565b5f5b9150505b92915050565b5f5f6117ef8461164a565b50909150506001600160a01b038116156117d8576040516370a0823160e01b81526001600160a01b038216906370a0823190611794908690600401612598565b611837612373565b5f7f00000000000000000000000000000000000000000000000000000000000000006001600160a01b031663026b1d5f6040518163ffffffff1660e01b8152600401602060405180830381865afa158015611894573d5f5f3e3d5ffd5b505050506040513d601f19601f820116820180604052508101906118b8919061292c565b90506001600160a01b0381166118e05760405162461bcd60e51b81526004016110bf90612ca2565b6118f56001600160a01b03851633308561239b565b60405163095ea7b360e01b81526001600160a01b0385169063095ea7b3906119239084905f90600401612a40565b6020604051808303815f875af115801561193f573d5f5f3e3d5ffd5b505050506040513d601f19601f820116820180604052508101906119639190612cc8565b5060405163095ea7b360e01b81526001600160a01b0385169063095ea7b3906119929084908690600401612a40565b6020604051808303815f875af11580156119ae573d5f5f3e3d5ffd5b505050506040513d601f19601f820116820180604052508101906119d29190612cc8565b5060405163617ba03760e01b81526001600160a01b03858116600483015260248201849052848116604483015261ffff7f000000000000000000000000000000000000000000000000000000000000000016606483015282169063617ba037906084015f604051808303815f87803b158015611a4c575f5ffd5b505af1158015611a5e573d5f5f3e3d5ffd5b5050505050611a6c60015f55565b505050565b5f5f611a7b612373565b5f611a858661154f565b90506001600160a01b038116611ad05760405162461bcd60e51b815260206004820152601060248201526f18551bdad95b881b9bdd08199bdd5b9960821b60448201526064016110bf565b6040516370a0823160e01b815281905f906001600160a01b038316906370a0823190611b00908a90600401612598565b602060405180830381865afa158015611b1b573d5f5f3e3d5ffd5b505050506040513d601f19601f82011682018060405250810190611b3f9190612a29565b905080861115611b4d578095505b604051636eb1769f60e11b81525f906001600160a01b0384169063dd62ed3e90611b7d908b903090600401612a0f565b602060405180830381865afa158015611b98573d5f5f3e3d5ffd5b505050506040513d601f19601f82011682018060405250810190611bbc9190612a29565b905086811015611c025760405162461bcd60e51b815260206004820152601160248201527061546f6b656e3a20616c6c6f77616e636560781b60448201526064016110bf565b611c176001600160a01b03841689308a61239b565b5f7f00000000000000000000000000000000000000000000000000000000000000006001600160a01b031663026b1d5f6040518163ffffffff1660e01b8152600401602060405180830381865afa158015611c74573d5f5f3e3d5ffd5b505050506040513d601f19601f82011682018060405250810190611c98919061292c565b90506001600160a01b038116611cc05760405162461bcd60e51b81526004016110bf90612ca2565b604051631a4ca37b60e21b81526001600160a01b038b81166004830152602482018a90523060448301525f91908316906369328dec906064016020604051808303815f875af1158015611d15573d5f5f3e3d5ffd5b505050506040513d601f19601f82011682018060405250810190611d399190612a29565b9050611d4f6001600160a01b038c163383612408565b8a975095505050505050611d6260015f55565b935093915050565b611d72612373565b5f7f00000000000000000000000000000000000000000000000000000000000000006001600160a01b031663026b1d5f6040518163ffffffff1660e01b8152600401602060405180830381865afa158015611dcf573d5f5f3e3d5ffd5b505050506040513d601f19601f82011682018060405250810190611df3919061292c565b90506001600160a01b038116611e1b5760405162461bcd60e51b81526004016110bf90612ca2565b5f611e258561164a565b9250506001600160a01b0382169050611e725760405162461bcd60e51b815260206004820152600f60248201526e1d9119589d081b9bdd08199bdd5b99608a1b60448201526064016110bf565b604051631af5db4960e21b81525f906001600160a01b03831690636bd76d2490611ea29088903090600401612a0f565b602060405180830381865afa158015611ebd573d5f5f3e3d5ffd5b505050506040513d601f19601f82011682018060405250810190611ee19190612a29565b905083811015611f265760405162461bcd60e51b815260206004820152601060248201526f626f72726f7720616c6c6f77616e636560801b60448201526064016110bf565b60405163a415bcad60e01b81526001600160a01b038781166004830152602482018690526002604483015261ffff7f0000000000000000000000000000000000000000000000000000000000000000166064830152868116608483015284169063a415bcad9060a4015f604051808303815f87803b158015611fa6575f5ffd5b505af1158015611fb8573d5f5f3e3d5ffd5b50611fd1925050506001600160a01b0387163386612408565b505050611a6c60015f55565b5f611fe6612373565b5f7f00000000000000000000000000000000000000000000000000000000000000006001600160a01b031663026b1d5f6040518163ffffffff1660e01b8152600401602060405180830381865afa158015612043573d5f5f3e3d5ffd5b505050506040513d601f19601f82011682018060405250810190612067919061292c565b90506001600160a01b03811661208f5760405162461bcd60e51b81526004016110bf90612ca2565b6040516370a0823160e01b81525f906001600160a01b038716906370a08231906120bd903090600401612598565b602060405180830381865afa1580156120d8573d5f5f3e3d5ffd5b505050506040513d601f19601f820116820180604052508101906120fc9190612a29565b90506121136001600160a01b03871633308761239b565b60405163095ea7b360e01b81526001600160a01b0387169063095ea7b3906121419085905f90600401612a40565b6020604051808303815f875af115801561215d573d5f5f3e3d5ffd5b505050506040513d601f19601f820116820180604052508101906121819190612cc8565b5060405163095ea7b360e01b81526001600160a01b0387169063095ea7b3906121b09085908890600401612a40565b6020604051808303815f875af11580156121cc573d5f5f3e3d5ffd5b505050506040513d601f19601f820116820180604052508101906121f09190612cc8565b5060405163573ade8160e01b81526001600160a01b038781166004830152602482018690526002604483015286811660648301525f919084169063573ade81906084016020604051808303815f875af115801561224f573d5f5f3e3d5ffd5b505050506040513d601f19601f820116820180604052508101906122739190612a29565b90505f876001600160a01b03166370a08231306040518263ffffffff1660e01b81526004016122a29190612598565b602060405180830381865afa1580156122bd573d5f5f3e3d5ffd5b505050506040513d601f19601f820116820180604052508101906122e19190612a29565b90505f5f831180156122f35750868311155b61232757816123028886612ce7565b1161230d5786612329565b816123188886612ce7565b6123229190612cfa565b612329565b825b9050808711612338575f612342565b6123428188612cfa565b9550851561235e5761235e6001600160a01b038a163388612408565b505050505061236c60015f55565b9392505050565b60025f540361239557604051633ee5aeb560e01b815260040160405180910390fd5b60025f55565b6040516001600160a01b0384811660248301528381166044830152606482018390526124029186918216906323b872dd906084015b604051602081830303815290604052915060e01b6020820180516001600160e01b03838183161783525050505061242e565b50505050565b611a6c83846001600160a01b031663a9059cbb85856040516024016123d0929190612a40565b5f6124426001600160a01b03841683612486565b905080515f141580156124665750808060200190518101906124649190612cc8565b155b15611a6c5782604051635274afe760e01b81526004016110bf9190612598565b606061236c83835f845f5f856001600160a01b031684866040516124aa9190612d0d565b5f6040518083038185875af1925050503d805f81146124e4576040519150601f19603f3d011682016040523d82523d5f602084013e6124e9565b606091505b50915091506124f9868383612503565b9695505050505050565b6060826125185761251382612556565b61236c565b815115801561252f57506001600160a01b0384163b155b1561254f5783604051639996b31560e01b81526004016110bf9190612598565b508061236c565b8051156125665780518082602001fd5b604051630a12f52160e11b815260040160405180910390fd5b50565b604080518082019091525f808252602082015290565b6001600160a01b0391909116815260200190565b5f602082840312156125bc575f5ffd5b813560ff8116811461236c575f5ffd5b5f81518084528060208401602086015e5f602082860101526020601f19601f83011685010191505092915050565b6001600160a01b03831681526040602082018190525f9061261d908301846125cc565b949350505050565b6001600160a01b038116811461257f575f5ffd5b803561264481612625565b919050565b5f5f83601f840112612659575f5ffd5b5081356001600160401b0381111561266f575f5ffd5b6020830191508360208260061b8501011115612689575f5ffd5b9250929050565b5f5f5f5f5f606086880312156126a4575f5ffd5b85356001600160401b038111156126b9575f5ffd5b8601601f810188136126c9575f5ffd5b80356001600160401b038111156126de575f5ffd5b8860208260051b84010111156126f2575f5ffd5b602091820196509450612706908701612639565b925060408601356001600160401b03811115612720575f5ffd5b61272c88828901612649565b969995985093965092949392505050565b5f8151808452602084019350602083015f5b828110156127765781516001600160a01b031686526020958601959091019060010161274f565b5093949350505050565b5f82825180855260208501945060208160051b830101602085015f5b838110156127ce57601f198584030188526127b88383516125cc565b602098890198909350919091019060010161279c565b50909695505050505050565b5f8151808452602084019350602083015f5b8281101561277657815180516001600160a01b0316875260209081015181880152604090960195909101906001016127ec565b606081525f612831606083018661273d565b82810360208401526128438186612780565b905082810360408401526124f981856127da565b604081525f612869604083018561273d565b828103602084015261287b8185612780565b95945050505050565b5f5f5f5f60408587031215612897575f5ffd5b84356001600160401b038111156128ac575f5ffd5b6128b887828801612649565b90955093505060208501356001600160401b038111156128d6575f5ffd5b8501601f810187136128e6575f5ffd5b80356001600160401b038111156128fb575f5ffd5b87602082840101111561290c575f5ffd5b949793965060200194505050565b602081525f61236c60208301846127da565b5f6020828403121561293c575f5ffd5b815161236c81612625565b634e487b7160e01b5f52604160045260245ffd5b634e487b7160e01b5f52603260045260245ffd5b5f823560be19833603018112612983575f5ffd5b9190910192915050565b8035600a8110612644575f5ffd5b5f602082840312156129ab575f5ffd5b61236c8261298d565b634e487b7160e01b5f52602160045260245ffd5b634e487b7160e01b5f52601160045260245ffd5b5f600182016129ed576129ed6129c8565b5060010190565b5f60208284031215612a04575f5ffd5b813561236c81612625565b6001600160a01b0392831681529116602082015260400190565b5f60208284031215612a39575f5ffd5b5051919050565b6001600160a01b03929092168252602082015260400190565b80820281158282048414176117de576117de6129c8565b5f82612a8a57634e487b7160e01b5f52601260045260245ffd5b500490565b6001600160a01b0392909216825260ff16602082015260400190565b60405160c081016001600160401b0381118282101715612acd57612acd612947565b60405290565b604051601f8201601f191681016001600160401b0381118282101715612afb57612afb612947565b604052919050565b5f60208284031215612b13575f5ffd5b604051602081016001600160401b0381118282101715612b3557612b35612947565b6040529135825250919050565b5f60208284031215612b52575f5ffd5b81356001600160401b03811115612b67575f5ffd5b820160c08185031215612b78575f5ffd5b612b80612aab565b612b898261298d565b81526020820135612b9981612625565b60208201526040820135612bac81612625565b60408201526060828101359082015260808201356001600160401b03811115612bd3575f5ffd5b8201601f81018613612be3575f5ffd5b80356001600160401b03811115612bfc57612bfc612947565b612c0f601f8201601f1916602001612ad3565b818152876020838501011115612c23575f5ffd5b816020840160208301375f60208383010152806080850152505050612c4b8560a08401612b03565b60a0820152949350505050565b5f5f5f60608486031215612c6a575f5ffd5b8351612c7581612625565b6020850151909350612c8681612625565b6040850151909250612c9781612625565b809150509250925092565b6020808252600c908201526b141bdbdb081b9bdd081cd95d60a21b604082015260600190565b5f60208284031215612cd8575f5ffd5b8151801515811461236c575f5ffd5b808201808211156117de576117de6129c8565b818103818111156117de576117de6129c8565b5f82518060208501845e5f92019182525091905056fea26469706673582212208d72a5db53f532bf140f379d0582c91bf132052fdba58ece949f7ccc2b363a1564736f6c634300081e0033",
  "devdoc": {
    "errors": {
      "AddressEmptyCode(address)": [
        {
          "details": "There's no code at `target` (it is not a contract)."
        }
      ],
      "AddressInsufficientBalance(address)": [
        {
          "details": "The ETH balance of the account is not enough to perform the operation."
        }
      ],
      "FailedInnerCall()": [
        {
          "details": "A call to an address target failed. The target may have reverted."
        }
      ],
      "ReentrancyGuardReentrantCall()": [
        {
          "details": "Unauthorized reentrant call."
        }
      ],
      "SafeERC20FailedOperation(address)": [
        {
          "details": "An operation with an ERC20 token failed."
        }
      ]
    },
    "kind": "dev",
    "methods": {
      "encodeSetEMode(uint8)": {
        "params": {
          "categoryId": "The E-Mode category ID (0 = disable E-Mode)"
        },
        "returns": {
          "callData": "The encoded function call",
          "target": "The Aave Pool address"
        }
      }
    },
    "version": 1
  },
  "userdoc": {
    "kind": "user",
    "methods": {
      "ROUTER()": {
        "notice": "Immutable router address that can call protected functions"
      },
      "authorize((uint8,address,address,uint256,bytes,(uint256))[],address,(address,uint256)[])": {
        "notice": "Return user-side authorization calls for the given lending instructions.         One element per input (or (address(0), bytes(\"\")) if none needed).         Also returns the produced outputs from the simulation of these instructions."
      },
      "encodeSetEMode(uint8)": {
        "notice": "Helper to encode setUserEMode calldata"
      },
      "getPool()": {
        "notice": "Returns the Aave Pool address for direct calls (e.g., setUserEMode)"
      }
    },
    "version": 1
  },
  "storageLayout": {
    "storage": [
      {
        "astId": 3093,
        "contract": "contracts/v2/gateways/aave/AaveGatewayWrite.sol:AaveGatewayWrite",
        "label": "_status",
        "offset": 0,
        "slot": "0",
        "type": "t_uint256"
      }
    ],
    "types": {
      "t_uint256": {
        "encoding": "inplace",
        "label": "uint256",
        "numberOfBytes": "32"
      }
    }
  }
}