{
  "address": "0x6433987E9f8f3416fe61D1FaEABCcEE957156929",
  "abi": [
    {
      "inputs": [
        {
          "internalType": "address",
          "name": "_poolAddressesProvider",
          "type": "address"
        },
        {
          "internalType": "address",
          "name": "_uiPoolDataProvider",
          "type": "address"
        },
        {
          "internalType": "uint16",
          "name": "_referralCode",
          "type": "uint16"
        }
      ],
      "stateMutability": "nonpayable",
      "type": "constructor"
    },
    {
      "inputs": [
        {
          "internalType": "address",
          "name": "target",
          "type": "address"
        }
      ],
      "name": "AddressEmptyCode",
      "type": "error"
    },
    {
      "inputs": [
        {
          "internalType": "address",
          "name": "account",
          "type": "address"
        }
      ],
      "name": "AddressInsufficientBalance",
      "type": "error"
    },
    {
      "inputs": [],
      "name": "FailedInnerCall",
      "type": "error"
    },
    {
      "inputs": [
        {
          "internalType": "address",
          "name": "token",
          "type": "address"
        }
      ],
      "name": "SafeERC20FailedOperation",
      "type": "error"
    },
    {
      "inputs": [],
      "name": "REFERRAL_CODE",
      "outputs": [
        {
          "internalType": "uint16",
          "name": "",
          "type": "uint16"
        }
      ],
      "stateMutability": "view",
      "type": "function"
    },
    {
      "inputs": [
        {
          "internalType": "address",
          "name": "token",
          "type": "address"
        },
        {
          "internalType": "address",
          "name": "user",
          "type": "address"
        },
        {
          "internalType": "uint256",
          "name": "amount",
          "type": "uint256"
        }
      ],
      "name": "borrow",
      "outputs": [],
      "stateMutability": "nonpayable",
      "type": "function"
    },
    {
      "inputs": [
        {
          "internalType": "address",
          "name": "user",
          "type": "address"
        }
      ],
      "name": "borrowedTokens",
      "outputs": [
        {
          "internalType": "address[]",
          "name": "",
          "type": "address[]"
        }
      ],
      "stateMutability": "view",
      "type": "function"
    },
    {
      "inputs": [
        {
          "internalType": "address",
          "name": "token",
          "type": "address"
        },
        {
          "internalType": "address",
          "name": "user",
          "type": "address"
        },
        {
          "internalType": "uint256",
          "name": "amount",
          "type": "uint256"
        }
      ],
      "name": "deposit",
      "outputs": [],
      "stateMutability": "nonpayable",
      "type": "function"
    },
    {
      "inputs": [
        {
          "internalType": "address",
          "name": "market",
          "type": "address"
        },
        {
          "internalType": "address",
          "name": "collateral",
          "type": "address"
        },
        {
          "internalType": "uint256",
          "name": "amount",
          "type": "uint256"
        },
        {
          "internalType": "address",
          "name": "receiver",
          "type": "address"
        }
      ],
      "name": "depositCollateral",
      "outputs": [],
      "stateMutability": "nonpayable",
      "type": "function"
    },
    {
      "inputs": [
        {
          "internalType": "address",
          "name": "user",
          "type": "address"
        }
      ],
      "name": "getAllTokensInfo",
      "outputs": [
        {
          "components": [
            {
              "internalType": "address",
              "name": "token",
              "type": "address"
            },
            {
              "internalType": "uint256",
              "name": "supplyRate",
              "type": "uint256"
            },
            {
              "internalType": "uint256",
              "name": "borrowRate",
              "type": "uint256"
            },
            {
              "internalType": "string",
              "name": "name",
              "type": "string"
            },
            {
              "internalType": "string",
              "name": "symbol",
              "type": "string"
            },
            {
              "internalType": "uint256",
              "name": "price",
              "type": "uint256"
            },
            {
              "internalType": "uint256",
              "name": "borrowBalance",
              "type": "uint256"
            },
            {
              "internalType": "uint256",
              "name": "balance",
              "type": "uint256"
            },
            {
              "internalType": "address",
              "name": "aToken",
              "type": "address"
            }
          ],
          "internalType": "struct AaveGateway.TokenInfo[]",
          "name": "",
          "type": "tuple[]"
        }
      ],
      "stateMutability": "view",
      "type": "function"
    },
    {
      "inputs": [
        {
          "internalType": "address",
          "name": "token",
          "type": "address"
        },
        {
          "internalType": "address",
          "name": "user",
          "type": "address"
        }
      ],
      "name": "getBalance",
      "outputs": [
        {
          "internalType": "uint256",
          "name": "",
          "type": "uint256"
        }
      ],
      "stateMutability": "view",
      "type": "function"
    },
    {
      "inputs": [
        {
          "internalType": "address",
          "name": "token",
          "type": "address"
        },
        {
          "internalType": "address",
          "name": "user",
          "type": "address"
        }
      ],
      "name": "getBorrowBalance",
      "outputs": [
        {
          "internalType": "uint256",
          "name": "",
          "type": "uint256"
        }
      ],
      "stateMutability": "view",
      "type": "function"
    },
    {
      "inputs": [
        {
          "internalType": "address",
          "name": "token",
          "type": "address"
        }
      ],
      "name": "getBorrowRate",
      "outputs": [
        {
          "internalType": "uint256",
          "name": "",
          "type": "uint256"
        },
        {
          "internalType": "bool",
          "name": "",
          "type": "bool"
        }
      ],
      "stateMutability": "view",
      "type": "function"
    },
    {
      "inputs": [
        {
          "internalType": "address",
          "name": "token",
          "type": "address"
        },
        {
          "components": [
            {
              "internalType": "address",
              "name": "token",
              "type": "address"
            },
            {
              "internalType": "uint256",
              "name": "amount",
              "type": "uint256"
            }
          ],
          "internalType": "struct IGateway.Collateral[]",
          "name": "collaterals",
          "type": "tuple[]"
        }
      ],
      "name": "getEncodedCollateralApprovals",
      "outputs": [
        {
          "internalType": "address[]",
          "name": "target",
          "type": "address[]"
        },
        {
          "internalType": "bytes[]",
          "name": "data",
          "type": "bytes[]"
        }
      ],
      "stateMutability": "view",
      "type": "function"
    },
    {
      "inputs": [
        {
          "internalType": "address",
          "name": "token",
          "type": "address"
        },
        {
          "internalType": "uint256",
          "name": "amount",
          "type": "uint256"
        }
      ],
      "name": "getEncodedDebtApproval",
      "outputs": [
        {
          "internalType": "address[]",
          "name": "target",
          "type": "address[]"
        },
        {
          "internalType": "bytes[]",
          "name": "data",
          "type": "bytes[]"
        }
      ],
      "stateMutability": "view",
      "type": "function"
    },
    {
      "inputs": [
        {
          "internalType": "address",
          "name": "token",
          "type": "address"
        },
        {
          "internalType": "address",
          "name": "user",
          "type": "address"
        }
      ],
      "name": "getLtv",
      "outputs": [
        {
          "internalType": "uint256",
          "name": "",
          "type": "uint256"
        }
      ],
      "stateMutability": "view",
      "type": "function"
    },
    {
      "inputs": [
        {
          "internalType": "address",
          "name": "token",
          "type": "address"
        },
        {
          "internalType": "address",
          "name": "user",
          "type": "address"
        }
      ],
      "name": "getPossibleCollaterals",
      "outputs": [
        {
          "internalType": "address[]",
          "name": "collateralAddresses",
          "type": "address[]"
        },
        {
          "internalType": "uint256[]",
          "name": "balances",
          "type": "uint256[]"
        },
        {
          "internalType": "string[]",
          "name": "symbols",
          "type": "string[]"
        },
        {
          "internalType": "uint8[]",
          "name": "decimals",
          "type": "uint8[]"
        }
      ],
      "stateMutability": "view",
      "type": "function"
    },
    {
      "inputs": [
        {
          "internalType": "address",
          "name": "token",
          "type": "address"
        }
      ],
      "name": "getSupplyRate",
      "outputs": [
        {
          "internalType": "uint256",
          "name": "",
          "type": "uint256"
        },
        {
          "internalType": "bool",
          "name": "",
          "type": "bool"
        }
      ],
      "stateMutability": "view",
      "type": "function"
    },
    {
      "inputs": [],
      "name": "poolAddressesProvider",
      "outputs": [
        {
          "internalType": "contract IPoolAddressesProvider",
          "name": "",
          "type": "address"
        }
      ],
      "stateMutability": "view",
      "type": "function"
    },
    {
      "inputs": [
        {
          "internalType": "address",
          "name": "token",
          "type": "address"
        },
        {
          "internalType": "address",
          "name": "user",
          "type": "address"
        },
        {
          "internalType": "uint256",
          "name": "amount",
          "type": "uint256"
        }
      ],
      "name": "repay",
      "outputs": [],
      "stateMutability": "nonpayable",
      "type": "function"
    },
    {
      "inputs": [],
      "name": "uiPoolDataProvider",
      "outputs": [
        {
          "internalType": "contract IUiPoolDataProviderV3",
          "name": "",
          "type": "address"
        }
      ],
      "stateMutability": "view",
      "type": "function"
    },
    {
      "inputs": [
        {
          "internalType": "address",
          "name": "",
          "type": "address"
        },
        {
          "internalType": "address",
          "name": "aToken",
          "type": "address"
        },
        {
          "internalType": "address",
          "name": "user",
          "type": "address"
        },
        {
          "internalType": "uint256",
          "name": "amount",
          "type": "uint256"
        }
      ],
      "name": "withdrawCollateral",
      "outputs": [
        {
          "internalType": "address",
          "name": "",
          "type": "address"
        }
      ],
      "stateMutability": "nonpayable",
      "type": "function"
    }
  ],
  "transactionHash": "0x7042c5af2467d616c6a436fcfc05f818d294a0abbc4c8b8e7e301f967b19c3b7",
  "args": [
    "0x012bAC54348C0E635dCAc9D5FB99f06F24136C9A",
    "0x66B3b92Fb1b2635504Cd5f878E26ABD8826aAf1E",
    "0"
  ],
  "numDeployments": 2,
  "solcInputHash": "bfc73d538e127a798d86a8c0a90b6935",
  "bytecode": "0x60e06040523480156200001157600080fd5b506040516200382938038062003829833981016040819052620000349162000071565b6001600160a01b03928316608052911660a05261ffff1660c052620000c5565b80516001600160a01b03811681146200006c57600080fd5b919050565b6000806000606084860312156200008757600080fd5b620000928462000054565b9250620000a26020850162000054565b9150604084015161ffff81168114620000ba57600080fd5b809150509250925092565b60805160a05160c05161369a6200018f600039600081816101820152818161113b015261186e0152600081816102b0015281816107dc01528181610ae801528181610ba5015281816115fb01528181611acc01528181611d6d01528181611ff6015261213c015260008181610255015281816107a9015281816108e001528181610aba01528181610b6f01528181610ea60152818161149a015281816115cc0152818161170c01528181611a9601528181611d3a01528181611fc7015261210d015261369a6000f3fe608060405234801561001057600080fd5b50600436106101165760003560e01c806380e17d87116100a2578063ceac55df11610071578063ceac55df146102d2578063d4fac45d146102f2578063d5c561d614610305578063d71275f614610318578063f5125d3f1461032b57600080fd5b806380e17d87146102505780638340f54914610277578063a342986c1461028a578063c3a3a9a7146102ab57600080fd5b8063401d45d0116100e9578063401d45d0146101b75780634108d0af146101d75780635224372c146101ea5780635820ba63146101fd5780636b5441a91461022857600080fd5b8063104e999d1461011b578063118e31b7146101475780631da649cf146101685780633583849a1461017d575b600080fd5b61012e610129366004612811565b610341565b60405161013e9493929190612911565b60405180910390f35b61015a610155366004612811565b6106f4565b60405190815260200161013e565b61017b6101763660046129cf565b6108dc565b005b6101a47f000000000000000000000000000000000000000000000000000000000000000081565b60405161ffff909116815260200161013e565b6101ca6101c5366004612a10565b610aa3565b60405161013e9190612a2d565b61017b6101e5366004612b1b565b610e91565b61017b6101f83660046129cf565b610ea2565b61021061020b366004612b6e565b6111fb565b6040516001600160a01b03909116815260200161013e565b61023b610236366004612a10565b6115b5565b6040805192835290151560208301520161013e565b6102107f000000000000000000000000000000000000000000000000000000000000000081565b61017b6102853660046129cf565b611708565b61029d610298366004612bbf565b6118d7565b60405161013e929190612c46565b6102107f000000000000000000000000000000000000000000000000000000000000000081565b6102e56102e0366004612a10565b611a7f565b60405161013e9190612cb8565b61015a610300366004612811565b611c85565b61029d610313366004612ccb565b611e5e565b61023b610326366004612a10565b611fb0565b61015a610339366004612811565b600092915050565b604051630401d45d60e41b81526001600160a01b0382166004820152606090819081908190600090309063401d45d090602401600060405180830381865afa158015610391573d6000803e3d6000fd5b505050506040513d6000823e601f3d908101601f191682016040526103b99190810190612e49565b90506000805b825181101561040e5760008382815181106103dc576103dc612fb1565b602002602001015160e0015111156103fc57816103f881612fc7565b9250505b8061040681612fc7565b9150506103bf565b50806001600160401b0381111561042757610427612cf7565b604051908082528060200260200182016040528015610450578160200160208202803683370190505b509550806001600160401b0381111561046b5761046b612cf7565b604051908082528060200260200182016040528015610494578160200160208202803683370190505b509450806001600160401b038111156104af576104af612cf7565b6040519080825280602002602001820160405280156104e257816020015b60608152602001906001900390816104cd5790505b509350806001600160401b038111156104fd576104fd612cf7565b604051908082528060200260200182016040528015610526578160200160208202803683370190505b5092506000805b83518110156106e757600084828151811061054a5761054a612fb1565b602002602001015160e0015111156106d55783818151811061056e5761056e612fb1565b6020026020010151610100015188838151811061058d5761058d612fb1565b60200260200101906001600160a01b031690816001600160a01b0316815250508381815181106105bf576105bf612fb1565b602002602001015160e001518783815181106105dd576105dd612fb1565b6020026020010181815250508381815181106105fb576105fb612fb1565b60200260200101516080015186838151811061061957610619612fb1565b602002602001018190525083818151811061063657610636612fb1565b6020026020010151600001516001600160a01b031663313ce5676040518163ffffffff1660e01b8152600401602060405180830381865afa15801561067f573d6000803e3d6000fd5b505050506040513d601f19601f820116820180604052508101906106a39190612fff565b8583815181106106b5576106b5612fb1565b60ff90921660209283029190910190910152816106d181612fc7565b9250505b806106df81612fc7565b91505061052d565b5050505092959194509250565b6000806000610702856120f6565b925092505080801561071c57506001600160a01b03821615155b15610792576040516370a0823160e01b81526001600160a01b0385811660048301528316906370a0823190602401602060405180830381865afa925050508015610783575060408051601f3d908101601f191682019092526107809181019061301a565b60015b156107925792506108d6915050565b6040516301465d3360e61b81526001600160a01b037f00000000000000000000000000000000000000000000000000000000000000008116600483015285811660248301526000917f0000000000000000000000000000000000000000000000000000000000000000909116906351974cc090604401600060405180830381865afa158015610825573d6000803e3d6000fd5b505050506040513d6000823e601f3d908101601f1916820160405261084d9190810190613043565b50905060005b81518110156108cd57866001600160a01b031682828151811061087857610878612fb1565b6020026020010151600001516001600160a01b0316036108bb578181815181106108a4576108a4612fb1565b6020026020010151606001519450505050506108d6565b806108c581612fc7565b915050610853565b50600093505050505b92915050565b60007f00000000000000000000000000000000000000000000000000000000000000006001600160a01b031663026b1d5f6040518163ffffffff1660e01b8152600401602060405180830381865afa15801561093c573d6000803e3d6000fd5b505050506040513d601f19601f82011682018060405250810190610960919061312e565b90506001600160a01b0381166109915760405162461bcd60e51b81526004016109889061314b565b60405180910390fd5b6109a66001600160a01b038516333085612262565b60405163095ea7b360e01b81526001600160a01b0382811660048301526024820184905285169063095ea7b3906044016020604051808303816000875af11580156109f5573d6000803e3d6000fd5b505050506040513d601f19601f82011682018060405250810190610a199190613179565b5060405163573ade8160e01b81526001600160a01b0385811660048301526024820184905260026044830152848116606483015282169063573ade81906084016020604051808303816000875af1158015610a78573d6000803e3d6000fd5b505050506040513d601f19601f82011682018060405250810190610a9c919061301a565b5050505050565b60405163ec489c2160e01b81526001600160a01b037f0000000000000000000000000000000000000000000000000000000000000000811660048301526060916000917f0000000000000000000000000000000000000000000000000000000000000000169063ec489c2190602401600060405180830381865afa158015610b2f573d6000803e3d6000fd5b505050506040513d6000823e601f3d908101601f19168201604052610b57919081019061320b565b506040516301465d3360e61b81526001600160a01b037f00000000000000000000000000000000000000000000000000000000000000008116600483015285811660248301529192506000917f000000000000000000000000000000000000000000000000000000000000000016906351974cc090604401600060405180830381865afa158015610bec573d6000803e3d6000fd5b505050506040513d6000823e601f3d908101601f19168201604052610c149190810190613043565b509050600082516001600160401b03811115610c3257610c32612cf7565b604051908082528060200260200182016040528015610cc457816020015b610cb160405180610120016040528060006001600160a01b031681526020016000815260200160008152602001606081526020016060815260200160008152602001600081526020016000815260200160006001600160a01b031681525090565b815260200190600190039081610c505790505b50905060005b8351811015610e88576000610cf9858381518110610cea57610cea612fb1565b602002602001015188866122c9565b90506000610d21868481518110610d1257610d12612fb1565b602002602001015189876123e0565b9050604051806101200160405280878581518110610d4157610d41612fb1565b6020026020010151600001516001600160a01b03168152602001878581518110610d6d57610d6d612fb1565b60200260200101516101c001516001600160801b03168152602001878581518110610d9a57610d9a612fb1565b60200260200101516101e001516001600160801b03168152602001878581518110610dc757610dc7612fb1565b6020026020010151602001518152602001878581518110610dea57610dea612fb1565b6020026020010151604001518152602001878581518110610e0d57610e0d612fb1565b60200260200101516102c001518152602001828152602001838152602001878581518110610e3d57610e3d612fb1565b602002602001015161022001516001600160a01b0316815250848481518110610e6857610e68612fb1565b602002602001018190525050508080610e8090612fc7565b915050610cca565b50949350505050565b610e9c838284611708565b50505050565b60007f00000000000000000000000000000000000000000000000000000000000000006001600160a01b031663026b1d5f6040518163ffffffff1660e01b8152600401602060405180830381865afa158015610f02573d6000803e3d6000fd5b505050506040513d601f19601f82011682018060405250810190610f26919061312e565b90506001600160a01b038116610f4e5760405162461bcd60e51b81526004016109889061314b565b600080610f5a866120f6565b9250925050808015610f7457506001600160a01b03821615155b610fc05760405162461bcd60e51b815260206004820152601f60248201527f546f6b656e206973206e6f7420612076616c6964206465627420746f6b656e006044820152606401610988565b604051631af5db4960e21b81526001600160a01b03868116600483015230602483015260009190841690636bd76d2490604401602060405180830381865afa158015611010573d6000803e3d6000fd5b505050506040513d601f19601f82011682018060405250810190611034919061301a565b905061108e6040518060400160405280601081526020016f426f72726f7720616c6c6f77616e636560801b815250826040518060400160405280600c81526020016b185b5bdd5b9d08185cdad95960a21b815250886124ea565b848110156110de5760405162461bcd60e51b815260206004820152601d60248201527f496e73756666696369656e7420626f72726f7720616c6c6f77616e63650000006044820152606401610988565b61110b60405180604001604052806009815260200168426f72726f77696e6760b81b815250888789612533565b60405163a415bcad60e01b81526001600160a01b038881166004830152602482018790526002604483015261ffff7f0000000000000000000000000000000000000000000000000000000000000000166064830152878116608483015285169063a415bcad9060a401600060405180830381600087803b15801561118e57600080fd5b505af11580156111a2573d6000803e3d6000fd5b505050506111de604051806040016040528060158152602001742137b93937bbb2b21037b7103132b430b6331037b360591b815250878761257c565b6111f26001600160a01b03881633876125c8565b50505050505050565b6040516370a0823160e01b81526001600160a01b03838116600483015260009185918491908316906370a0823190602401602060405180830381865afa158015611249573d6000803e3d6000fd5b505050506040513d601f19601f8201168201806040525081019061126d919061301a565b10156112bb5760405162461bcd60e51b815260206004820152601f60248201527f496e73756666696369656e742062616c616e6365206f662061746f6b656e73006044820152606401610988565b604051636eb1769f60e11b81526001600160a01b0385811660048301523060248301526000919083169063dd62ed3e90604401602060405180830381865afa15801561130b573d6000803e3d6000fd5b505050506040513d601f19601f8201168201806040525081019061132f919061301a565b90508381101561137a5760405162461bcd60e51b8152602060048201526016602482015275496e73756666696369656e7420616c6c6f77616e636560501b6044820152606401610988565b6040516323b872dd60e01b81526001600160a01b038681166004830152306024830152604482018690528316906323b872dd906064016020604051808303816000875af11580156113cf573d6000803e3d6000fd5b505050506040513d601f19601f820116820180604052508101906113f39190613179565b506114326040518060400160405280602081526020017f5769746864726177696e6720636f6c6c61746572616c2066726f6d20416176658152506125f9565b6000866001600160a01b031663b16a19de6040518163ffffffff1660e01b8152600401602060405180830381865afa158015611472573d6000803e3d6000fd5b505050506040513d601f19601f82011682018060405250810190611496919061312e565b90507f00000000000000000000000000000000000000000000000000000000000000006001600160a01b031663026b1d5f6040518163ffffffff1660e01b8152600401602060405180830381865afa1580156114f6573d6000803e3d6000fd5b505050506040513d601f19601f8201168201806040525081019061151a919061312e565b604051631a4ca37b60e21b81526001600160a01b0383811660048301526024820188905230604483015291909116906369328dec906064016020604051808303816000875af1158015611571573d6000803e3d6000fd5b505050506040513d601f19601f82011682018060405250810190611595919061301a565b506115aa6001600160a01b03821633876125c8565b979650505050505050565b60405163ec489c2160e01b81526001600160a01b037f000000000000000000000000000000000000000000000000000000000000000081166004830152600091829182917f00000000000000000000000000000000000000000000000000000000000000009091169063ec489c2190602401600060405180830381865afa158015611644573d6000803e3d6000fd5b505050506040513d6000823e601f3d908101601f1916820160405261166c919081019061320b565b50905060005b81518110156116fb57846001600160a01b031682828151811061169757611697612fb1565b6020026020010151600001516001600160a01b0316036116e9578181815181106116c3576116c3612fb1565b60200260200101516101c001516001816001600160801b03169150935093505050915091565b806116f381612fc7565b915050611672565b5060009485945092505050565b60007f00000000000000000000000000000000000000000000000000000000000000006001600160a01b031663026b1d5f6040518163ffffffff1660e01b8152600401602060405180830381865afa158015611768573d6000803e3d6000fd5b505050506040513d601f19601f8201168201806040525081019061178c919061312e565b90506001600160a01b0381166117b45760405162461bcd60e51b81526004016109889061314b565b6117c96001600160a01b038516333085612262565b60405163095ea7b360e01b81526001600160a01b0382811660048301526024820184905285169063095ea7b3906044016020604051808303816000875af1158015611818573d6000803e3d6000fd5b505050506040513d601f19601f8201168201806040525081019061183c9190613179565b5060405163617ba03760e01b81526001600160a01b03858116600483015260248201849052848116604483015261ffff7f000000000000000000000000000000000000000000000000000000000000000016606483015282169063617ba03790608401600060405180830381600087803b1580156118b957600080fd5b505af11580156118cd573d6000803e3d6000fd5b5050505050505050565b606080826001600160401b038111156118f2576118f2612cf7565b60405190808252806020026020018201604052801561191b578160200160208202803683370190505b509150826001600160401b0381111561193657611936612cf7565b60405190808252806020026020018201604052801561196957816020015b60608152602001906001900390816119545790505b50905060005b83811015611a765784848281811061198957611989612fb1565b61199f9260206040909202019081019150612a10565b8382815181106119b1576119b1612fb1565b6001600160a01b039092166020928302919091019091015263095ea7b360e01b308686848181106119e4576119e4612fb1565b90506040020160200135604051602401611a139291906001600160a01b03929092168252602082015260400190565b604051602081830303815290604052906001600160e01b0319166020820180516001600160e01b038381831617835250505050828281518110611a5857611a58612fb1565b60200260200101819052508080611a6e90612fc7565b91505061196f565b50935093915050565b6040516301465d3360e61b81526001600160a01b037f00000000000000000000000000000000000000000000000000000000000000008116600483015282811660248301526060916000917f000000000000000000000000000000000000000000000000000000000000000016906351974cc090604401600060405180830381865afa158015611b13573d6000803e3d6000fd5b505050506040513d6000823e601f3d908101601f19168201604052611b3b9190810190613043565b5090506000805b8251811015611b91576000838281518110611b5f57611b5f612fb1565b6020026020010151606001511115611b7f5781611b7b81612fc7565b9250505b80611b8981612fc7565b915050611b42565b506000816001600160401b03811115611bac57611bac612cf7565b604051908082528060200260200182016040528015611bd5578160200160208202803683370190505b5090506000805b8451811015611c7a576000858281518110611bf957611bf9612fb1565b6020026020010151606001511115611c6857848181518110611c1d57611c1d612fb1565b602002602001015160000151838380611c3590612fc7565b945081518110611c4757611c47612fb1565b60200260200101906001600160a01b031690816001600160a01b0316815250505b80611c7281612fc7565b915050611bdc565b509095945050505050565b6000806000611c93856120f6565b9250509150808015611cad57506001600160a01b03821615155b15611d23576040516370a0823160e01b81526001600160a01b0385811660048301528316906370a0823190602401602060405180830381865afa925050508015611d14575060408051601f3d908101601f19168201909252611d119181019061301a565b60015b15611d235792506108d6915050565b6040516301465d3360e61b81526001600160a01b037f00000000000000000000000000000000000000000000000000000000000000008116600483015285811660248301526000917f0000000000000000000000000000000000000000000000000000000000000000909116906351974cc090604401600060405180830381865afa158015611db6573d6000803e3d6000fd5b505050506040513d6000823e601f3d908101601f19168201604052611dde9190810190613043565b50905060005b81518110156108cd57866001600160a01b0316828281518110611e0957611e09612fb1565b6020026020010151600001516001600160a01b031603611e4c57818181518110611e3557611e35612fb1565b6020026020010151602001519450505050506108d6565b80611e5681612fc7565b915050611de4565b606080600080611e6d866120f6565b9250925050808015611e8757506001600160a01b03821615155b611ed35760405162461bcd60e51b815260206004820152601f60248201527f546f6b656e206973206e6f7420612076616c6964206465627420746f6b656e006044820152606401610988565b604080516001808252818301909252906020808301908036833701905050604080516001808252818301909252919550816020015b6060815260200190600190039081611f085790505092508184600081518110611f3357611f33612fb1565b6001600160a01b0390921660209283029190910190910152604051306024820152600019604482015260640160408051601f198184030181529190526020810180516001600160e01b0316630c04a8a160e41b17905283518490600090611f9c57611f9c612fb1565b602002602001018190525050509250929050565b60405163ec489c2160e01b81526001600160a01b037f000000000000000000000000000000000000000000000000000000000000000081166004830152600091829182917f00000000000000000000000000000000000000000000000000000000000000009091169063ec489c2190602401600060405180830381865afa15801561203f573d6000803e3d6000fd5b505050506040513d6000823e601f3d908101601f19168201604052612067919081019061320b565b50905060005b81518110156116fb57846001600160a01b031682828151811061209257612092612fb1565b6020026020010151600001516001600160a01b0316036120e4578181815181106120be576120be612fb1565b60200260200101516101e001516001816001600160801b03169150935093505050915091565b806120ee81612fc7565b91505061206d565b60405163ec489c2160e01b81526001600160a01b037f000000000000000000000000000000000000000000000000000000000000000081166004830152600091829182917f00000000000000000000000000000000000000000000000000000000000000009091169063ec489c2190602401600060405180830381865afa9250505080156121a657506040513d6000823e601f3d908101601f191682016040526121a3919081019061320b565b60015b156122515760005b825181101561224d57866001600160a01b03168382815181106121d3576121d3612fb1565b6020026020010151600001516001600160a01b03160361223b578281815181106121ff576121ff612fb1565b6020026020010151610220015183828151811061221e5761221e612fb1565b60200260200101516102400151600195509550955050505061225b565b8061224581612fc7565b9150506121ae565b5050505b5060009150819050805b9193909250565b6040516001600160a01b038481166024830152838116604483015260648201839052610e9c9186918216906323b872dd906084015b604051602081830303815290604052915060e01b6020820180516001600160e01b03838183161783525050505061263f565b6102208301516000906001600160a01b031615612355576102208401516040516370a0823160e01b81526001600160a01b038581166004830152909116906370a0823190602401602060405180830381865afa925050508015612349575060408051601f3d908101601f191682019092526123469181019061301a565b60015b156123555790506123d9565b60005b82518110156123d35784600001516001600160a01b031683828151811061238157612381612fb1565b6020026020010151600001516001600160a01b0316036123c1578281815181106123ad576123ad612fb1565b6020026020010151602001519150506123d9565b806123cb81612fc7565b915050612358565b50600090505b9392505050565b6102408301516000906001600160a01b03161561246c576102408401516040516370a0823160e01b81526001600160a01b038581166004830152909116906370a0823190602401602060405180830381865afa925050508015612460575060408051601f3d908101601f1916820190925261245d9181019061301a565b60015b1561246c5790506123d9565b60005b82518110156123d35784600001516001600160a01b031683828151811061249857612498612fb1565b6020026020010151600001516001600160a01b0316036124d8578281815181106124c4576124c4612fb1565b6020026020010151606001519150506123d9565b806124e281612fc7565b91505061246f565b610e9c84848484604051602401612504949392919061358e565b60408051601f198184030181529190526020810180516001600160e01b031663c67ea9d160e01b1790526126a2565b610e9c8484848460405160240161254d94939291906135cb565b60408051601f198184030181529190526020810180516001600160e01b03166363fb8bc560e01b1790526126a2565b6125c383838360405160240161259493929190613607565b60408051601f198184030181529190526020810180516001600160e01b0316630d26b92560e01b1790526126a2565b505050565b6040516001600160a01b038381166024830152604482018390526125c391859182169063a9059cbb90606401612297565b61263c8160405160240161260d9190613635565b60408051601f198184030181529190526020810180516001600160e01b031663104c13eb60e21b1790526126a2565b50565b60006126546001600160a01b038416836126ab565b905080516000141580156126795750808060200190518101906126779190613179565b155b156125c357604051635274afe760e01b81526001600160a01b0384166004820152602401610988565b61263c816126b9565b60606123d9838360006126da565b60006a636f6e736f6c652e6c6f679050600080835160208501845afa505050565b6060814710156126ff5760405163cd78605960e01b8152306004820152602401610988565b600080856001600160a01b0316848660405161271b9190613648565b60006040518083038185875af1925050503d8060008114612758576040519150601f19603f3d011682016040523d82523d6000602084013e61275d565b606091505b509150915061276d868383612777565b9695505050505050565b60608261278c57612787826127d3565b6123d9565b81511580156127a357506001600160a01b0384163b155b156127cc57604051639996b31560e01b81526001600160a01b0385166004820152602401610988565b50806123d9565b8051156127e35780518082602001fd5b604051630a12f52160e11b815260040160405180910390fd5b6001600160a01b038116811461263c57600080fd5b6000806040838503121561282457600080fd5b823561282f816127fc565b9150602083013561283f816127fc565b809150509250929050565b600081518084526020808501945080840160005b838110156128835781516001600160a01b03168752958201959082019060010161285e565b509495945050505050565b60005b838110156128a9578181015183820152602001612891565b50506000910152565b600081518084526128ca81602086016020860161288e565b601f01601f19169290920160200192915050565b600081518084526020808501945080840160005b8381101561288357815160ff16875295820195908201906001016128f2565b608081526000612924608083018761284a565b82810360208481019190915286518083528782019282019060005b8181101561295b5784518352938301939183019160010161293f565b5050848103604086015286518082528282019350600581901b8201830183890160005b838110156129ac57601f1985840301875261299a8383516128b2565b9686019692509085019060010161297e565b505086810360608801526129c081896128de565b9b9a5050505050505050505050565b6000806000606084860312156129e457600080fd5b83356129ef816127fc565b925060208401356129ff816127fc565b929592945050506040919091013590565b600060208284031215612a2257600080fd5b81356123d9816127fc565b60006020808301818452808551808352604092508286019150828160051b87010184880160005b83811015612b0d57888303603f19018552815180516001600160a01b03168452610120888201518986015287820151888601526060808301518282880152612a9e838801826128b2565b9250505060808083015186830382880152612ab983826128b2565b60a0858101519089015260c0808601519089015260e08086015190890152610100948501516001600160a01b038116868a0152949093509150612af99050565b509588019593505090860190600101612a54565b509098975050505050505050565b60008060008060808587031215612b3157600080fd5b8435612b3c816127fc565b93506020850135612b4c816127fc565b9250604085013591506060850135612b63816127fc565b939692955090935050565b60008060008060808587031215612b8457600080fd5b8435612b8f816127fc565b93506020850135612b9f816127fc565b92506040850135612baf816127fc565b9396929550929360600135925050565b600080600060408486031215612bd457600080fd5b8335612bdf816127fc565b925060208401356001600160401b0380821115612bfb57600080fd5b818601915086601f830112612c0f57600080fd5b813581811115612c1e57600080fd5b8760208260061b8501011115612c3357600080fd5b6020830194508093505050509250925092565b604081526000612c59604083018561284a565b6020838203818501528185518084528284019150828160051b85010183880160005b83811015612ca957601f19878403018552612c978383516128b2565b94860194925090850190600101612c7b565b50909998505050505050505050565b6020815260006123d9602083018461284a565b60008060408385031215612cde57600080fd5b8235612ce9816127fc565b946020939093013593505050565b634e487b7160e01b600052604160045260246000fd5b60405161012081016001600160401b0381118282101715612d3057612d30612cf7565b60405290565b604051608081016001600160401b0381118282101715612d3057612d30612cf7565b60405161052081016001600160401b0381118282101715612d3057612d30612cf7565b604051601f8201601f191681016001600160401b0381118282101715612da357612da3612cf7565b604052919050565b60006001600160401b03821115612dc457612dc4612cf7565b5060051b60200190565b8051612dd9816127fc565b919050565b600082601f830112612def57600080fd5b81516001600160401b03811115612e0857612e08612cf7565b612e1b601f8201601f1916602001612d7b565b818152846020838601011115612e3057600080fd5b612e4182602083016020870161288e565b949350505050565b60006020808385031215612e5c57600080fd5b82516001600160401b0380821115612e7357600080fd5b818501915085601f830112612e8757600080fd5b8151612e9a612e9582612dab565b612d7b565b81815260059190911b83018401908481019088831115612eb957600080fd5b8585015b83811015612fa457805185811115612ed457600080fd5b8601610120818c03601f1901811315612eec57600080fd5b612ef4612d0d565b612eff8a8401612dce565b815260408301518a82015260608301516040820152608083015188811115612f275760008081fd5b612f358e8c83870101612dde565b60608301525060a08084015189811115612f4f5760008081fd5b612f5d8f8d83880101612dde565b60808401525060c0808501518284015260e091508185015181840152506101008085015182840152612f90848601612dce565b908301525085525050918601918601612ebd565b5098975050505050505050565b634e487b7160e01b600052603260045260246000fd5b600060018201612fe757634e487b7160e01b600052601160045260246000fd5b5060010190565b805160ff81168114612dd957600080fd5b60006020828403121561301157600080fd5b6123d982612fee565b60006020828403121561302c57600080fd5b5051919050565b80518015158114612dd957600080fd5b600080604080848603121561305757600080fd5b83516001600160401b0381111561306d57600080fd5b8401601f8101861361307e57600080fd5b8051602061308e612e9583612dab565b82815260079290921b830181019181810190898411156130ad57600080fd5b938201935b83851015613112576080858b0312156130cb5760008081fd5b6130d3612d36565b85516130de816127fc565b815285840151848201526130f3878701613033565b81880152606086810151908201528252608090940193908201906130b2565b96506131219050878201612fee565b9450505050509250929050565b60006020828403121561314057600080fd5b81516123d9816127fc565b602080825260149082015273141bdbdb081859191c995cdcc81b9bdd081cd95d60621b604082015260600190565b60006020828403121561318b57600080fd5b6123d982613033565b80516001600160801b0381168114612dd957600080fd5b805164ffffffffff81168114612dd957600080fd5b6000608082840312156131d257600080fd5b6131da612d36565b905081518152602082015160208201526040820151604082015261320060608301612fee565b606082015292915050565b60008060a0838503121561321e57600080fd5b82516001600160401b038082111561323557600080fd5b818501915085601f83011261324957600080fd5b81516020613259612e9583612dab565b82815260059290921b8401810191818101908984111561327857600080fd5b8286015b8481101561357d5780518681111561329357600080fd5b8701610520818d03601f19018113156132ab57600080fd5b6132b3612d58565b6132be878401612dce565b81526040830151898111156132d257600080fd5b6132e08f8983870101612dde565b88830152506060830151898111156132f85760008081fd5b6133068f8983870101612dde565b604083015250608080840151606083015260a0840151818301525060c08084015160a083015260e080850151828401526101009150818501518184015250610120613352818601613033565b828401526101409150613366828601613033565b90830152610160613378858201613033565b82840152610180915061338c828601613033565b908301526101a061339e858201613194565b828401526101c091506133b2828601613194565b908301526101e06133c4858201613194565b8284015261020091506133d8828601613194565b908301526102206133ea8582016131ab565b8284015261024091506133fe828601612dce565b90830152610260613410858201612dce565b828401526102809150613424828601612dce565b81840152506102a080850151828401526102c091508185015181840152506102e08085015182840152610300915061345d828601612dce565b818401525061032080850151828401526103409150818501518184015250610360808501518284015261038091508185015181840152506103a06134a2818601613033565b828401526103c091506134b6828601613033565b908301526103e06134c8858201613194565b8284015261040091506134dc828601613194565b908301526104206134ee858201613194565b828401526104409150613502828601613033565b8184015250610460808501518284015261048091508185015181840152506104a080850151828401526104c091508185015181840152506104e0613547818601613033565b82840152610500915061355b828601613033565b9083015261356a848401613194565b908201528552505091830191830161327c565b5096506131219050888883016131c0565b6080815260006135a160808301876128b2565b85602084015282810360408401526135b981866128b2565b91505082606083015295945050505050565b6080815260006135de60808301876128b2565b6001600160a01b0395861660208401526040830194909452509216606090920191909152919050565b60608152600061361a60608301866128b2565b6001600160a01b039490941660208301525060400152919050565b6020815260006123d960208301846128b2565b6000825161365a81846020870161288e565b919091019291505056fea26469706673582212206307be6686d19f6c0fdb0a722f5774b816a4f176b8e459333ab24cd517539e7c64736f6c63430008140033",
  "devdoc": {
    "errors": {
      "AddressEmptyCode(address)": [
        {
          "details": "There's no code at `target` (it is not a contract)."
        }
      ],
      "AddressInsufficientBalance(address)": [
        {
          "details": "The ETH balance of the account is not enough to perform the operation."
        }
      ],
      "FailedInnerCall()": [
        {
          "details": "A call to an address target failed. The target may have reverted."
        }
      ],
      "SafeERC20FailedOperation(address)": [
        {
          "details": "An operation with an ERC20 token failed."
        }
      ]
    },
    "kind": "dev",
    "methods": {
      "getAllTokensInfo(address)": {
        "details": "This function caches the reserves and user reserves data to avoid multiple heavy calls."
      },
      "getBalance(address,address)": {
        "details": "First attempts to call balanceOf on the associated aToken; if that fails, falls back to user reserves data."
      },
      "getBorrowBalance(address,address)": {
        "details": "First attempts to call balanceOf on the associated variable debt token; if that fails, falls back to user reserves data."
      }
    },
    "version": 1
  },
  "userdoc": {
    "kind": "user",
    "methods": {
      "borrowedTokens(address)": {
        "notice": "Returns the list of tokens that the user has borrowed."
      },
      "getAllTokensInfo(address)": {
        "notice": "Returns all token info for a given user."
      },
      "getBalance(address,address)": {
        "notice": "Gets the balance for a given token and user."
      },
      "getBorrowBalance(address,address)": {
        "notice": "Gets the borrow balance for a given token and user."
      }
    },
    "version": 1
  },
  "storageLayout": {
    "storage": [],
    "types": null
  }
}