{
  "address": "0x04A922BB66B7A1380b2089385490a44FC73F8086",
  "abi": [
    {
      "inputs": [
        {
          "internalType": "address",
          "name": "_poolAddressesProvider",
          "type": "address"
        },
        {
          "internalType": "address",
          "name": "_uiPoolDataProvider",
          "type": "address"
        },
        {
          "internalType": "uint16",
          "name": "_referralCode",
          "type": "uint16"
        }
      ],
      "stateMutability": "nonpayable",
      "type": "constructor"
    },
    {
      "inputs": [
        {
          "internalType": "address",
          "name": "target",
          "type": "address"
        }
      ],
      "name": "AddressEmptyCode",
      "type": "error"
    },
    {
      "inputs": [
        {
          "internalType": "address",
          "name": "account",
          "type": "address"
        }
      ],
      "name": "AddressInsufficientBalance",
      "type": "error"
    },
    {
      "inputs": [],
      "name": "FailedInnerCall",
      "type": "error"
    },
    {
      "inputs": [
        {
          "internalType": "address",
          "name": "token",
          "type": "address"
        }
      ],
      "name": "SafeERC20FailedOperation",
      "type": "error"
    },
    {
      "inputs": [],
      "name": "REFERRAL_CODE",
      "outputs": [
        {
          "internalType": "uint16",
          "name": "",
          "type": "uint16"
        }
      ],
      "stateMutability": "view",
      "type": "function"
    },
    {
      "inputs": [
        {
          "internalType": "address",
          "name": "token",
          "type": "address"
        },
        {
          "internalType": "address",
          "name": "user",
          "type": "address"
        },
        {
          "internalType": "uint256",
          "name": "amount",
          "type": "uint256"
        }
      ],
      "name": "borrow",
      "outputs": [],
      "stateMutability": "nonpayable",
      "type": "function"
    },
    {
      "inputs": [
        {
          "internalType": "address",
          "name": "user",
          "type": "address"
        }
      ],
      "name": "borrowedTokens",
      "outputs": [
        {
          "internalType": "address[]",
          "name": "",
          "type": "address[]"
        }
      ],
      "stateMutability": "view",
      "type": "function"
    },
    {
      "inputs": [
        {
          "internalType": "address",
          "name": "token",
          "type": "address"
        },
        {
          "internalType": "address",
          "name": "user",
          "type": "address"
        },
        {
          "internalType": "uint256",
          "name": "amount",
          "type": "uint256"
        }
      ],
      "name": "deposit",
      "outputs": [],
      "stateMutability": "nonpayable",
      "type": "function"
    },
    {
      "inputs": [
        {
          "internalType": "address",
          "name": "market",
          "type": "address"
        },
        {
          "internalType": "address",
          "name": "collateral",
          "type": "address"
        },
        {
          "internalType": "uint256",
          "name": "amount",
          "type": "uint256"
        },
        {
          "internalType": "address",
          "name": "receiver",
          "type": "address"
        }
      ],
      "name": "depositCollateral",
      "outputs": [],
      "stateMutability": "nonpayable",
      "type": "function"
    },
    {
      "inputs": [
        {
          "internalType": "address",
          "name": "user",
          "type": "address"
        }
      ],
      "name": "getAllTokensInfo",
      "outputs": [
        {
          "components": [
            {
              "internalType": "address",
              "name": "token",
              "type": "address"
            },
            {
              "internalType": "uint256",
              "name": "supplyRate",
              "type": "uint256"
            },
            {
              "internalType": "uint256",
              "name": "borrowRate",
              "type": "uint256"
            },
            {
              "internalType": "string",
              "name": "name",
              "type": "string"
            },
            {
              "internalType": "string",
              "name": "symbol",
              "type": "string"
            },
            {
              "internalType": "uint256",
              "name": "price",
              "type": "uint256"
            },
            {
              "internalType": "uint256",
              "name": "borrowBalance",
              "type": "uint256"
            },
            {
              "internalType": "uint256",
              "name": "balance",
              "type": "uint256"
            },
            {
              "internalType": "address",
              "name": "aToken",
              "type": "address"
            }
          ],
          "internalType": "struct AaveGateway.TokenInfo[]",
          "name": "",
          "type": "tuple[]"
        }
      ],
      "stateMutability": "view",
      "type": "function"
    },
    {
      "inputs": [
        {
          "internalType": "address",
          "name": "token",
          "type": "address"
        },
        {
          "internalType": "address",
          "name": "user",
          "type": "address"
        }
      ],
      "name": "getBalance",
      "outputs": [
        {
          "internalType": "uint256",
          "name": "",
          "type": "uint256"
        }
      ],
      "stateMutability": "view",
      "type": "function"
    },
    {
      "inputs": [
        {
          "internalType": "address",
          "name": "token",
          "type": "address"
        },
        {
          "internalType": "address",
          "name": "user",
          "type": "address"
        }
      ],
      "name": "getBorrowBalance",
      "outputs": [
        {
          "internalType": "uint256",
          "name": "",
          "type": "uint256"
        }
      ],
      "stateMutability": "view",
      "type": "function"
    },
    {
      "inputs": [
        {
          "internalType": "address",
          "name": "token",
          "type": "address"
        }
      ],
      "name": "getBorrowRate",
      "outputs": [
        {
          "internalType": "uint256",
          "name": "",
          "type": "uint256"
        },
        {
          "internalType": "bool",
          "name": "",
          "type": "bool"
        }
      ],
      "stateMutability": "view",
      "type": "function"
    },
    {
      "inputs": [
        {
          "internalType": "address",
          "name": "token",
          "type": "address"
        },
        {
          "components": [
            {
              "internalType": "address",
              "name": "token",
              "type": "address"
            },
            {
              "internalType": "uint256",
              "name": "amount",
              "type": "uint256"
            }
          ],
          "internalType": "struct IGateway.Collateral[]",
          "name": "collaterals",
          "type": "tuple[]"
        }
      ],
      "name": "getEncodedCollateralApprovals",
      "outputs": [
        {
          "internalType": "address[]",
          "name": "target",
          "type": "address[]"
        },
        {
          "internalType": "bytes[]",
          "name": "data",
          "type": "bytes[]"
        }
      ],
      "stateMutability": "view",
      "type": "function"
    },
    {
      "inputs": [
        {
          "internalType": "address",
          "name": "token",
          "type": "address"
        },
        {
          "internalType": "uint256",
          "name": "amount",
          "type": "uint256"
        }
      ],
      "name": "getEncodedDebtApproval",
      "outputs": [
        {
          "internalType": "address[]",
          "name": "target",
          "type": "address[]"
        },
        {
          "internalType": "bytes[]",
          "name": "data",
          "type": "bytes[]"
        }
      ],
      "stateMutability": "view",
      "type": "function"
    },
    {
      "inputs": [
        {
          "internalType": "address",
          "name": "token",
          "type": "address"
        },
        {
          "internalType": "address",
          "name": "user",
          "type": "address"
        }
      ],
      "name": "getLtv",
      "outputs": [
        {
          "internalType": "uint256",
          "name": "",
          "type": "uint256"
        }
      ],
      "stateMutability": "view",
      "type": "function"
    },
    {
      "inputs": [
        {
          "internalType": "address",
          "name": "token",
          "type": "address"
        },
        {
          "internalType": "address",
          "name": "user",
          "type": "address"
        }
      ],
      "name": "getPossibleCollaterals",
      "outputs": [
        {
          "internalType": "address[]",
          "name": "collateralAddresses",
          "type": "address[]"
        },
        {
          "internalType": "uint256[]",
          "name": "balances",
          "type": "uint256[]"
        },
        {
          "internalType": "string[]",
          "name": "symbols",
          "type": "string[]"
        },
        {
          "internalType": "uint8[]",
          "name": "decimals",
          "type": "uint8[]"
        }
      ],
      "stateMutability": "view",
      "type": "function"
    },
    {
      "inputs": [
        {
          "internalType": "address",
          "name": "token",
          "type": "address"
        }
      ],
      "name": "getSupplyRate",
      "outputs": [
        {
          "internalType": "uint256",
          "name": "",
          "type": "uint256"
        },
        {
          "internalType": "bool",
          "name": "",
          "type": "bool"
        }
      ],
      "stateMutability": "view",
      "type": "function"
    },
    {
      "inputs": [],
      "name": "poolAddressesProvider",
      "outputs": [
        {
          "internalType": "contract IPoolAddressesProvider",
          "name": "",
          "type": "address"
        }
      ],
      "stateMutability": "view",
      "type": "function"
    },
    {
      "inputs": [
        {
          "internalType": "address",
          "name": "token",
          "type": "address"
        },
        {
          "internalType": "address",
          "name": "user",
          "type": "address"
        },
        {
          "internalType": "uint256",
          "name": "amount",
          "type": "uint256"
        }
      ],
      "name": "repay",
      "outputs": [],
      "stateMutability": "nonpayable",
      "type": "function"
    },
    {
      "inputs": [],
      "name": "uiPoolDataProvider",
      "outputs": [
        {
          "internalType": "contract IUiPoolDataProviderV3",
          "name": "",
          "type": "address"
        }
      ],
      "stateMutability": "view",
      "type": "function"
    },
    {
      "inputs": [
        {
          "internalType": "address",
          "name": "",
          "type": "address"
        },
        {
          "internalType": "address",
          "name": "aToken",
          "type": "address"
        },
        {
          "internalType": "address",
          "name": "user",
          "type": "address"
        },
        {
          "internalType": "uint256",
          "name": "amount",
          "type": "uint256"
        }
      ],
      "name": "withdrawCollateral",
      "outputs": [
        {
          "internalType": "address",
          "name": "",
          "type": "address"
        }
      ],
      "stateMutability": "nonpayable",
      "type": "function"
    }
  ],
  "transactionHash": "0x67646479202c659e3e63136a1fa1b60419560ecaebf7140aacf596e66f65ffb1",
  "args": [
    "0x012bAC54348C0E635dCAc9D5FB99f06F24136C9A",
    "0x66B3b92Fb1b2635504Cd5f878E26ABD8826aAf1E",
    "0"
  ],
  "numDeployments": 4,
  "solcInputHash": "211067cbe068ebd08488d53641c715de",
  "bytecode": "0x60e0346200013957601f62002fb838819003918201601f19168301916001600160401b038311848410176200013e5780849260609460405283398101031262000139576200004d8162000154565b60406200005d6020840162000154565b9201519161ffff8316830362000139576001600160a01b039182166080521660a05260c052604051612e4e90816200016a82396080518181816102d4015281816105ff015281816107ff01528181610aa701528181610f2b015281816112f301528181611c100152818161265a0152818161274d01528181612844015281816129cf0152612b67015260a05181818161031e0152818161045001528181610f540152818161268b0152818161277e0152818161287f01528181612a0a0152612b97015260c051818181610ce40152818161129e0152611cdf0152f35b600080fd5b634e487b7160e01b600052604160045260246000fd5b51906001600160a01b0382168203620001395756fe608080604052600436101561001357600080fd5b600090813560e01c908163104e999d146114a057508063118e31b7146114735780631da649cf146112c25780633583849a14611283578063401d45d014610ef95780634108d0af14610eb15780635224372c14610a7d5780635820ba63146106505780636b5441a91461062e57806380e17d87146105e95780638340f549146105ce578063a342986c1461047f578063c3a3a9a71461043a578063ceac55df1461029f578063d4fac45d1461026a578063d5c561d614610150578063d71275f6146101185763f5125d3f146100e757600080fd5b34610115576040366003190112610115576020906101036119c0565b5061010c6119d6565b50604051908152f35b80fd5b50346101155760203660031901126101155761013a6101356119c0565b612643565b60408051928352901515602083015290f35b0390f35b50346101155760403660031901126101155761017261016d6119c0565b612b50565b90915080610258575b61018490611f58565b60405161019081611b4b565b600181526020803681840137604051926101a984611b4b565b600184528160005b8181106102485750506101c38361260c565b6001600160a01b039091169052604051630c04a8a160e41b918101919091523060248201526000196044808301919091528152608081016001600160401b03811182821017610232576040526102188361260c565b526102228261260c565b5061014c60405192839283611aa6565b634e487b7160e01b600052604160045260246000fd5b60608282880101520182906101b1565b506001600160a01b038116151561017b565b50346101155760403660031901126101155760206102976102896119c0565b6102916119d6565b90612816565b604051908152f35b50346101155760203660031901126101155761030c906102bd6119c0565b6040516301465d3360e61b81526001600160a01b037f00000000000000000000000000000000000000000000000000000000000000008116600483015290911660248201529182906044820190565b6001600160a01b0391839185919003817f000000000000000000000000000000000000000000000000000000000000000085165afa92831561042f57829361040a575b508190825b8451811015610394576080610369828761262f565b51015161037f575b61037a906125e7565b610354565b9161038c61037a916125e7565b929050610371565b50916103a08492612b1e565b92815b83518110156103f4578060806103bc6103c8938761262f565b5101516103cd576125e7565b6103a3565b826103d8828761262f565b5151166103ee6103e7866125e7565b958861262f565b526125e7565b6040516020808252819061014c908201886119ec565b6104279193503d8084833e61041f8183611b66565b8101906124f1565b50913861034f565b6040513d84823e3d90fd5b50346101155780600319360112610115576040517f00000000000000000000000000000000000000000000000000000000000000006001600160a01b03168152602090f35b5034610115576040366003190112610115576104996119c0565b506024908135916001600160401b0391828411610115573660238501121561011557836004013592831161011557818401938236918560061b010111610115576104e283612b1e565b926104ec81611fa4565b946104fa6040519687611b66565b818652601f19918261050b82611fa4565b019161051b602093848a01612deb565b845b828110610533576040518061014c8b8b83611aa6565b61053e818484612e08565b356001600160a01b038116908190036105ca57906105c591610560828b61262f565b5261059e6105aa86610573848888612e08565b6040805163095ea7b360e01b8b820152308e8201908152939092013560208401529093849290910190565b03888101835282611b66565b6105b4828c61262f565b526105bf818b61262f565b506125e7565b61051d565b8680fd5b5034610115576105e66105e036611a71565b91611beb565b80f35b50346101155780600319360112610115576040517f00000000000000000000000000000000000000000000000000000000000000006001600160a01b03168152602090f35b50346101155760203660031901126101155761013a61064b6119c0565b612736565b50346101155760803660031901126101155761066a6119c0565b506106736119d6565b6044356001600160a01b0381811692918381036108a15781606435931690604051946370a0823160e01b865260048601526020948581602481865afa80156109fc5785918891610a4c575b5010610a0757604051636eb1769f60e11b81526001600160a01b03821660048201523060248201528581604481865afa80156109fc57859188916109cb575b501061098d576040516323b872dd60e01b81526001600160a01b0391909116600482015230602482015260448101849052848160648189865af1801561098257610941575b5093836004949560008060405161075881611b4b565b8481527f5769746864726177696e6720636f6c6c61746572616c2066726f6d2041617665858201526040516107b6816107a88882019463104c13eb60e21b86528960248401526044830190611a4c565b03601f198101835282611b66565b51906a636f6e736f6c652e6c6f675afa506040516358b50cef60e11b815295869182905afa9384156109345781946108f9575b5060405163026b1d5f60e01b81529385856004817f000000000000000000000000000000000000000000000000000000000000000087165afa94851561042f5790869183966108b9575b5060648491846040519687948593631a4ca37b60e21b855216998a6004850152896024850152306044850152165af19081156108ad575090849161087f575b5050610297903383611f1f565b813d83116108a6575b6108928183611b66565b810103126108a1578238610872565b600080fd5b503d610888565b604051903d90823e3d90fd5b8281939297503d83116108f2575b6108d18183611b66565b810103126108ee578260646108e68893611b87565b969150610833565b5080fd5b503d6108c7565b9093508481813d831161092d575b6109118183611b66565b810103126109295761092290611b87565b92386107e9565b8380fd5b503d610907565b50604051903d90823e3d90fd5b8481813d831161097b575b6109568183611b66565b81010312610977579380959161096d600496611bde565b5091959450610742565b8580fd5b503d61094c565b6040513d88823e3d90fd5b60405162461bcd60e51b8152600481018690526016602482015275496e73756666696369656e7420616c6c6f77616e636560501b6044820152606490fd5b809250878092503d83116109f5575b6109e48183611b66565b810103126108a157849051386106fd565b503d6109da565b6040513d89823e3d90fd5b60405162461bcd60e51b815260048101869052601f60248201527f496e73756666696369656e742062616c616e6365206f662061746f6b656e73006044820152606490fd5b809250878092503d8311610a76575b610a658183611b66565b810103126108a157849051386106be565b503d610a5b565b503461011557610a8c36611a71565b60405163026b1d5f60e01b81529293929091906020816004817f00000000000000000000000000000000000000000000000000000000000000006001600160a01b03165afa908115610dd1578491610e77575b50610af46001600160a01b0382161515611b9b565b610afd85612b50565b90915080610e65575b610b0f90611f58565b604051631af5db4960e21b81526001600160a01b038481166004830152306024830152909160209183916044918391165afa908115610e5a579084918691610e21575b508580604051610b6181611b4b565b601081526f426f72726f7720616c6c6f77616e636560801b6020820152610bea610bfe604051610b9081611b4b565b600c81526b185b5bdd5b9d08185cdad95960a21b6020820152604051928391610bd2602084019663c67ea9d160e01b88526080602486015260a4850190611a4c565b90896044850152602319848303016064850152611a4c565b88608483015203601f198101835282611b66565b51906a636f6e736f6c652e6c6f675afa5010610ddc578380604051610c2281611b4b565b6009815268426f72726f77696e6760b81b6020820152604051610c9581610c6260208201946363fb8bc560e01b86526080602484015260a4830190611a4c565b6001600160a01b039b8c1660448301819052606483018b905298909b16608482018190529a03601f198101835282611b66565b51906a636f6e736f6c652e6c6f675afa506001600160a01b0381163b156109295783809160a46040518094819363a415bcad60e01b83528760048401528860248401526002604484015261ffff7f00000000000000000000000000000000000000000000000000000000000000001660648401528a608484015260018060a01b03165af18015610dd157610db9575b506000806105e6949560405190610d3a82611b4b565b60158252742137b93937bbb2b21037b7103132b430b6331037b360591b6020830152610da16040518092610d876020830195630d26b92560e01b8752606060248501526084840190611a4c565b90604483015288606483015203601f198101835282611b66565b51906a636f6e736f6c652e6c6f675afa503390611f1f565b60006105e694610dc98293611b38565b945050610d24565b6040513d86823e3d90fd5b60405162461bcd60e51b815260206004820152601d60248201527f496e73756666696369656e7420626f72726f7720616c6c6f77616e63650000006044820152606490fd5b9150506020813d602011610e52575b81610e3d60209383611b66565b81010312610e4e5783905138610b52565b8480fd5b3d9150610e30565b6040513d87823e3d90fd5b506001600160a01b0381161515610b06565b90506020813d602011610ea9575b81610e9260209383611b66565b8101031261092957610ea390611b87565b38610adf565b3d9150610e85565b503461011557608036600319011261011557610ecb6119c0565b50610ed46119d6565b606435906001600160a01b0382168203610ef5576105e69160443591611beb565b8280fd5b5034610115576020806003193601126108ee57610f146119c0565b60405163ec489c2160e01b81526001600160a01b037f000000000000000000000000000000000000000000000000000000000000000081811660048401527f00000000000000000000000000000000000000000000000000000000000000008216959194919391929084826024818a5afa918215610e5a5785969786928592610fd2989561125e575b506040516301465d3360e61b81526001600160a01b039182166004820152921660248301529095869190829081906044820190565b03915afa938415610e5a578594611241575b50805193610ff185611fa4565b94610fff6040519687611b66565b80865261100e601f1991611fa4565b0184875b8281106111f457505050855b82518110156111255780611040838661103a611120958861262f565b51612c51565b866110568588611050868a61262f565b51612d26565b918b611062858961262f565b51511692878d6001600160801b03806101e061107e8a8661262f565b51015116906102006110908a8661262f565b510151168661109f8a8661262f565b5101519160406110af8b8761262f565b510151936102606110d08c6103806110c7828b61262f565b5101519861262f565b5101511697604051996110e28b611b1c565b8a5289015260408801526060870152608086015260a085015260c084015260e0830152610100820152611115828961262f565b526105bf818861262f565b61101e565b505050509160405192808401908085528351809252604085018160408460051b880101950193965b83881061115a5786860387f35b90919293948380600192603f198a82030186528851908582511681528282015183820152604082015160408201526111b86111a5606080850151906101208091860152840190611a4c565b6080808501519084830390850152611a4c565b9160a0808201519083015260c0808201519083015260e081015160e083015286610100809201511691015297019301970196909392919361114d565b60405161120081611b1c565b89815289838201528960408201526060808083015260808201528960a08201528960c08201528960e08201528961010082015282828a010152018590611012565b6112569194503d8087833e61041f8183611b66565b509238610fe4565b61127b9195503d8086833e6112738183611b66565b810190612031565b509338610f9d565b5034610115578060031936011261011557602060405161ffff7f0000000000000000000000000000000000000000000000000000000000000000168152f35b5034610115576112d136611a71565b60405163026b1d5f60e01b81526020936001600160a01b0392908686846004817f000000000000000000000000000000000000000000000000000000000000000089165afa91821561093457819261143b575b61137a94508784878086169361133b851515611b9b565b169461134982303389611dae565b60405163095ea7b360e01b81526001600160a01b039091166004820152602481019190915295869081906044820190565b038185875af194851561042f578895611400575b506084939495604051978896879563573ade8160e01b875260048701526024860152600260448601521660648401525af180156113f5576113cd578280f35b813d83116113ee575b6113e08183611b66565b810103126101155738808280f35b503d6113d6565b6040513d85823e3d90fd5b939484813d8311611434575b6114168183611b66565b810103126108ee57879561142b608495611bde565b5095949361138e565b503d61140c565b91508684813d831161146c575b6114528183611b66565b810103126101155761146661137a94611b87565b91611324565b503d611448565b50346101155760403660031901126101155760206102976114926119c0565b61149a6119d6565b906129a0565b8234610115576040366003190112610115576114ba6119c0565b506114c36119d6565b630401d45d60e41b83526001600160a01b031660048301528082602481305afa918215610934578192611810575b508091815b81518110156115365760e061150b828461262f565b510151611521575b61151c906125e7565b6114f6565b9261152e61151c916125e7565b939050611513565b509061154183612b1e565b9261154b81611fa4565b926115596040519485611b66565b81845261156582611fa4565b602085019490601f190136863761157b83611fa4565b906115896040519283611b66565b83825261159584611fa4565b966115a86020840198601f190189612deb565b6115b185611fa4565b946115bf6040519687611b66565b8086526115ce601f1991611fa4565b013660208701378597865b855181101561171a5760e06115ee828861262f565b510151611604575b6115ff906125e7565b6115d9565b986001600160a01b0361010061161a8c8961262f565b51015116611628828561262f565b5260e06116358b8861262f565b510151611642828661262f565b52608061164f8b8861262f565b51015161165c828761262f565b52611667818661262f565b50600460206001600160a01b0361167e8d8a61262f565b5151166040519283809263313ce56760e01b82525afa90811561170f5789916116c8575b50816116c09160ff6116b76115ff958c61262f565b911690526125e7565b9990506115f6565b90506020813d602011611707575b816116e360209383611b66565b81010312611703576115ff916116fb6116c092612014565b9150916116a2565b8880fd5b3d91506116d6565b6040513d8b823e3d90fd5b509187919594509261173d9693602060405198899860808a5260808a01906119ec565b91888303828a01525191828152019290855b8181106117f757505050858203604087015251808252602082019160208260051b820101939285915b8383106117c45750505050508381036060850152602080845192838152019301915b8181106117a8575050500390f35b825160ff1684528594506020938401939092019160010161179a565b919396975091936020806117e4600193601f198682030187528a51611a4c565b9801930193019092889796949293611778565b825185528998506020948501949092019160010161174f565b9091503d8083833e6118228183611b66565b6020828281010312610ef55781516001600160401b03811161092957818301601f82850101121561092957808301519061185b82611fa4565b936118696040519586611b66565b828552602085019184820160208560051b8385010101116105ca57602081830101925b60208560051b838501010184106118aa5750505050505090826114f1565b83516001600160401b03811161170357610120848401820188860103601f19011261170357604051916118dc83611b1c565b6118ec6020838688010101611b87565b83526040848601830181810151602086015260608082015192860192909252608001516001600160401b0381116119bc576119339060208b89019186898b01010101611fbb565b9084015260a082858701010151906001600160401b0382116119b857602093849361196a8594858d8b0191848b8d01010101611fbb565b60808301528787010160c08181015160a084015260e080830151918401919091526101008083015191840191909152906119a79061012001611b87565b90820152815201940193905061188c565b8a80fd5b8b80fd5b600435906001600160a01b03821682036108a157565b602435906001600160a01b03821682036108a157565b90815180825260208080930193019160005b828110611a0c575050505090565b83516001600160a01b0316855293810193928101926001016119fe565b60005b838110611a3c5750506000910152565b8181015183820152602001611a2c565b90602091611a6581518092818552858086019101611a29565b601f01601f1916010190565b60609060031901126108a1576001600160a01b039060043582811681036108a1579160243590811681036108a1579060443590565b90611ab9906040835260408301906119ec565b90602090818184039101528251908183528083019281808460051b8301019501936000915b848310611aee5750505050505090565b9091929394958480611b0c600193601f198682030187528a51611a4c565b9801930193019194939290611ade565b61012081019081106001600160401b0382111761023257604052565b6001600160401b03811161023257604052565b604081019081106001600160401b0382111761023257604052565b90601f801991011681019081106001600160401b0382111761023257604052565b51906001600160a01b03821682036108a157565b15611ba257565b60405162461bcd60e51b8152602060048201526014602482015273141bdbdb081859191c995cdcc81b9bdd081cd95d60621b6044820152606490fd5b519081151582036108a157565b6040805163026b1d5f60e01b8152929390926001600160a01b039290602080826004817f000000000000000000000000000000000000000000000000000000000000000089165afa918215611da357600092611d69575b5080611c9791858780861696611c59881515611b9b565b1694611c6782303389611dae565b895163095ea7b360e01b81526001600160a01b039091166004820152602481019190915292839081906044820190565b03816000875af18015611d5e57611d2a575b5050813b156108a157600060849281958751988996879563617ba03760e01b87526004870152602486015216604484015261ffff7f00000000000000000000000000000000000000000000000000000000000000001660648401525af1908115611d205750611d155750565b611d1e90611b38565b565b513d6000823e3d90fd5b81813d8311611d57575b611d3e8183611b66565b810103126108a157611d4f90611bde565b503880611ca9565b503d611d34565b87513d6000823e3d90fd5b90918282813d8311611d9c575b611d808183611b66565b810103126101155750611d95611c9791611b87565b9190611c42565b503d611d76565b86513d6000823e3d90fd5b6040516323b872dd60e01b60208201526001600160a01b0392831660248201529290911660448301526064820192909252611d1e91611dfa82608481015b03601f198101845283611b66565b60018060a01b031690611e44600080836020829551910182875af13d15611e99573d90611e2682611ea1565b91611e346040519384611b66565b82523d84602084013e5b84611ebc565b8051918215159283611e73575b505050611e5b5750565b60249060405190635274afe760e01b82526004820152fd5b82935091602091928101031261011557506020611e909101611bde565b15388080611e51565b606090611e3e565b6001600160401b03811161023257601f01601f191660200190565b90611ee35750805115611ed157805190602001fd5b604051630a12f52160e11b8152600490fd5b81511580611f16575b611ef4575090565b604051639996b31560e01b81526001600160a01b039091166004820152602490fd5b50803b15611eec565b60405163a9059cbb60e01b60208201526001600160a01b0390921660248301526044820192909252611d1e91611dfa8260648101611dec565b15611f5f57565b60405162461bcd60e51b815260206004820152601f60248201527f546f6b656e206973206e6f7420612076616c6964206465627420746f6b656e006044820152606490fd5b6001600160401b0381116102325760051b60200190565b81601f820112156108a1578051611fd181611ea1565b92611fdf6040519485611b66565b818452602082840101116108a157611ffd9160208085019101611a29565b90565b51906001600160801b03821682036108a157565b519060ff821682036108a157565b519061ffff821682036108a157565b808203929160a0918285126108a1578051906001600160401b03918281116108a157810183601f820112156108a15780519061206c82611fa4565b9160409661207c88519485611b66565b818452602096878086019360051b850101938185116108a157888101935b8585106120f45750505050505060809096601f1901126108a1578351936080850192831185841017610232576120ec936080938252808301518652818301519086015260608201519085015201612014565b606082015290565b84518981116108a1578201906107009081601f1984870301126108a1578c518281018181108d8211176124dc578e5261212e8d8501611b87565b81528d8401518c81116108a157868e61214992870101611fbb565b8d8201526060808501518d81116108a1578f908f899061216b92890101611fbb565b908301526080908186015190830152878501519082015260c092838501518883015260e0938486015190830152610100938486015190830152610120936121b3858701611bde565b90830152610140936121c6858701611bde565b90830152610160936121d9858701611bde565b90830152610180936121ec858701611bde565b908301526101a0936121ff858701611bde565b908301526101c093612212858701612000565b908301526101e093612225858701612000565b9083015261020093612238858701612000565b908301526102209361224b858701612000565b908301526102409361225e858701612000565b9083015261026093848601519064ffffffffff821682036108a1578301526102809361228b858701611b87565b908301526102a09361229e858701611b87565b908301526102c0936122b1858701611b87565b908301526102e0936122c4858701611b87565b908301526103009384860151908301526103209384860151908301526103409384860151908301526103609384860151908301526103809384860151908301526103a09384860151908301526103c09361231f858701611b87565b908301526103e09384860151908301526104009384860151908301526104209384860151908301526104409384860151908301526104609384860151908301526104809384860151908301526104a09384860151908301526104c093612386858701611bde565b908301526104e093612399858701611bde565b90830152610500936123ac858701612000565b90830152610520936123bf858701612000565b90830152610540936123d2858701612000565b90830152610560936123e5858701611bde565b908301526105809384860151908301526105a09384860151908301526105c093612410858701612014565b908301526105e09384860151908301526106009384860151908301526106209361243b858701612022565b908301526106409361244e858701612022565b9083015261066093612461858701612022565b9083015261068093612474858701611b87565b908301528c6106a091828701519182116108a1578f96879661249d8b896124cd96850101611fbb565b908601526106c0936124b0858301611bde565b908601526106e0936124c3858301611bde565b9086015201612000565b9082015281520194019361209a565b60246000634e487b7160e01b81526041600452fd5b919060409081848203126108a1578351906001600160401b03918281116108a157850181601f820112156108a15780519161252b83611fa4565b9361253886519586611b66565b838552602095868601928760e0809702860101948186116108a1578801935b858510612571575050505050505090611ffd919301612014565b86858303126108a15782519087820190828210868311176124dc5788928b92865261259b88611b87565b815282880151838201526125b0868901611bde565b86820152606080890151908201526080808901519082015260a0808901519082015260c08089015190820152815201940193612557565b60001981146125f65760010190565b634e487b7160e01b600052601160045260246000fd5b8051156126195760200190565b634e487b7160e01b600052603260045260246000fd5b80518210156126195760209160051b010190565b60405163ec489c2160e01b81526001600160a01b037f0000000000000000000000000000000000000000000000000000000000000000811660048301526000929083836024817f000000000000000000000000000000000000000000000000000000000000000085165afa928315610dd1578493612719575b50835b835181101561271057816126d3828661262f565b515116828416146126ec576126e7906125e7565b6126bf565b90506001600160801b03935061270691506102009261262f565b5101511690600190565b50505050908190565b61272e9193503d8086833e6112738183611b66565b5091386126bc565b60405163ec489c2160e01b81526001600160a01b037f0000000000000000000000000000000000000000000000000000000000000000811660048301526000929083836024817f000000000000000000000000000000000000000000000000000000000000000085165afa928315610dd15784936127f9575b50835b835181101561271057816127c6828661262f565b515116828416146127df576127da906125e7565b6127b2565b90506001600160801b03935061270691506101e09261262f565b61280e9193503d8086833e6112738183611b66565b5091386127af565b61281f81612b50565b90508061298e575b61291a575b506040516301465d3360e61b81526001600160a01b037f000000000000000000000000000000000000000000000000000000000000000081166004830152928316602482015260009290919083836044817f000000000000000000000000000000000000000000000000000000000000000085165afa928315610dd15784936128fd575b50835b83518110156128f657816128c7828661262f565b515116828416146128e0576128db906125e7565b6128b3565b915050602092506128f09161262f565b51015190565b5050505090565b6129129193503d8086833e61041f8183611b66565b5091386128b0565b6040516370a0823160e01b81526001600160a01b038481166004830152909160209183916024918391165afa6000918161295b575b501561282c5791505090565b90916020823d8211612986575b8161297560209383611b66565b81010312610115575051903861294f565b3d9150612968565b506001600160a01b0381161515612827565b6129a981612b50565b90915080612b0c575b612a98575b506040516301465d3360e61b81526001600160a01b037f000000000000000000000000000000000000000000000000000000000000000081166004830152928316602482015260009290919083836044817f000000000000000000000000000000000000000000000000000000000000000085165afa928315610dd1578493612a7b575b50835b83518110156128f65781612a52828661262f565b51511682841614612a6b57612a66906125e7565b612a3e565b915050608092506128f09161262f565b612a909193503d8086833e61041f8183611b66565b509138612a3b565b6040516370a0823160e01b81526001600160a01b038481166004830152909160209183916024918391165afa60009181612ad9575b50156129b75791505090565b90916020823d8211612b04575b81612af360209383611b66565b810103126101155750519038612acd565b3d9150612ae6565b506001600160a01b03811615156129b2565b90612b2882611fa4565b612b356040519182611b66565b8281528092612b46601f1991611fa4565b0190602036910137565b60405163ec489c2160e01b81526001600160a01b037f00000000000000000000000000000000000000000000000000000000000000008116600483015260009283836024817f000000000000000000000000000000000000000000000000000000000000000086165afa849381612c34575b50612bd1575b50505080918190565b839492945b8551811015612c275782612bea828861262f565b51511683831614612c0357612bfe906125e7565b612bd6565b826102a0939495506127069250610260612c1d838961262f565b510151169561262f565b5050509150388080612bc8565b612c499194503d8087833e6112738183611b66565b509238612bc2565b6102608101516001600160a01b039392908416908482612cb8575b50505060005b8251811015612caf5783612c86828561262f565b5151168483511614612ca057612c9b906125e7565b612c72565b9050602092506128f09161262f565b50505050600090565b602460209260405194859384926370a0823160e01b84521660048301525afa60009181612cf3575b50612cec578084612c6c565b9250505090565b90916020823d8211612d1e575b81612d0d60209383611b66565b810103126101155750519038612ce0565b3d9150612d00565b6102a08101516001600160a01b039392908416908482612d84575b50505060005b8251811015612caf5783612d5b828561262f565b5151168483511614612d7557612d70906125e7565b612d47565b9050608092506128f09161262f565b602460209260405194859384926370a0823160e01b84521660048301525afa60009181612db8575b50612cec578084612d41565b90916020823d8211612de3575b81612dd260209383611b66565b810103126101155750519038612dac565b3d9150612dc5565b60005b828110612dfa57505050565b606082820152602001612dee565b91908110156126195760061b019056fea26469706673582212202055d20c1024fd1062bbbf5f7c752f1682d9f2f22bea217c7094f091a1048b5964736f6c63430008140033",
  "devdoc": {
    "errors": {
      "AddressEmptyCode(address)": [
        {
          "details": "There's no code at `target` (it is not a contract)."
        }
      ],
      "AddressInsufficientBalance(address)": [
        {
          "details": "The ETH balance of the account is not enough to perform the operation."
        }
      ],
      "FailedInnerCall()": [
        {
          "details": "A call to an address target failed. The target may have reverted."
        }
      ],
      "SafeERC20FailedOperation(address)": [
        {
          "details": "An operation with an ERC20 token failed."
        }
      ]
    },
    "kind": "dev",
    "methods": {
      "getAllTokensInfo(address)": {
        "details": "This function caches the reserves and user reserves data to avoid multiple heavy calls."
      },
      "getBalance(address,address)": {
        "details": "First attempts to call balanceOf on the associated aToken; if that fails, falls back to user reserves data."
      },
      "getBorrowBalance(address,address)": {
        "details": "First attempts to call balanceOf on the associated variable debt token; if that fails, falls back to user reserves data."
      }
    },
    "version": 1
  },
  "userdoc": {
    "kind": "user",
    "methods": {
      "borrowedTokens(address)": {
        "notice": "Returns the list of tokens that the user has borrowed."
      },
      "getAllTokensInfo(address)": {
        "notice": "Returns all token info for a given user."
      },
      "getBalance(address,address)": {
        "notice": "Gets the balance for a given token and user."
      },
      "getBorrowBalance(address,address)": {
        "notice": "Gets the borrow balance for a given token and user."
      }
    },
    "version": 1
  },
  "storageLayout": {
    "storage": [],
    "types": null
  }
}