{
  "address": "0xA0991f146B6ff0fFbF81AE6FccAcBf9EB136FdCF",
  "abi": [
    {
      "inputs": [
        {
          "internalType": "contract ICompoundComet[]",
          "name": "_comets",
          "type": "address[]"
        },
        {
          "internalType": "contract FeedRegistryInterface",
          "name": "_priceFeed",
          "type": "address"
        }
      ],
      "stateMutability": "nonpayable",
      "type": "constructor"
    },
    {
      "inputs": [
        {
          "internalType": "address",
          "name": "target",
          "type": "address"
        }
      ],
      "name": "AddressEmptyCode",
      "type": "error"
    },
    {
      "inputs": [
        {
          "internalType": "address",
          "name": "account",
          "type": "address"
        }
      ],
      "name": "AddressInsufficientBalance",
      "type": "error"
    },
    {
      "inputs": [],
      "name": "FailedInnerCall",
      "type": "error"
    },
    {
      "inputs": [
        {
          "internalType": "address",
          "name": "token",
          "type": "address"
        }
      ],
      "name": "SafeERC20FailedOperation",
      "type": "error"
    },
    {
      "inputs": [
        {
          "internalType": "address",
          "name": "token",
          "type": "address"
        },
        {
          "internalType": "address",
          "name": "user",
          "type": "address"
        },
        {
          "internalType": "uint256",
          "name": "amount",
          "type": "uint256"
        }
      ],
      "name": "borrow",
      "outputs": [],
      "stateMutability": "nonpayable",
      "type": "function"
    },
    {
      "inputs": [
        {
          "internalType": "address",
          "name": "token",
          "type": "address"
        },
        {
          "internalType": "address",
          "name": "user",
          "type": "address"
        },
        {
          "internalType": "uint256",
          "name": "amount",
          "type": "uint256"
        }
      ],
      "name": "deposit",
      "outputs": [],
      "stateMutability": "nonpayable",
      "type": "function"
    },
    {
      "inputs": [
        {
          "internalType": "address",
          "name": "market",
          "type": "address"
        },
        {
          "internalType": "address",
          "name": "collateral",
          "type": "address"
        },
        {
          "internalType": "uint256",
          "name": "amount",
          "type": "uint256"
        },
        {
          "internalType": "address",
          "name": "receiver",
          "type": "address"
        }
      ],
      "name": "depositCollateral",
      "outputs": [],
      "stateMutability": "nonpayable",
      "type": "function"
    },
    {
      "inputs": [
        {
          "internalType": "address",
          "name": "token",
          "type": "address"
        },
        {
          "internalType": "address",
          "name": "user",
          "type": "address"
        }
      ],
      "name": "getBalance",
      "outputs": [
        {
          "internalType": "uint256",
          "name": "",
          "type": "uint256"
        }
      ],
      "stateMutability": "view",
      "type": "function"
    },
    {
      "inputs": [
        {
          "internalType": "contract ICompoundComet",
          "name": "comet",
          "type": "address"
        }
      ],
      "name": "getBaseToken",
      "outputs": [
        {
          "internalType": "address",
          "name": "",
          "type": "address"
        }
      ],
      "stateMutability": "view",
      "type": "function"
    },
    {
      "inputs": [
        {
          "internalType": "address",
          "name": "token",
          "type": "address"
        },
        {
          "internalType": "address",
          "name": "user",
          "type": "address"
        }
      ],
      "name": "getBorrowBalance",
      "outputs": [
        {
          "internalType": "uint256",
          "name": "",
          "type": "uint256"
        }
      ],
      "stateMutability": "view",
      "type": "function"
    },
    {
      "inputs": [
        {
          "internalType": "address",
          "name": "token",
          "type": "address"
        }
      ],
      "name": "getBorrowRate",
      "outputs": [
        {
          "internalType": "uint256",
          "name": "borrowRate",
          "type": "uint256"
        },
        {
          "internalType": "bool",
          "name": "success",
          "type": "bool"
        }
      ],
      "stateMutability": "view",
      "type": "function"
    },
    {
      "inputs": [
        {
          "internalType": "address",
          "name": "token",
          "type": "address"
        },
        {
          "internalType": "address",
          "name": "account",
          "type": "address"
        }
      ],
      "name": "getCompoundData",
      "outputs": [
        {
          "internalType": "uint256",
          "name": "supplyRate",
          "type": "uint256"
        },
        {
          "internalType": "uint256",
          "name": "borrowRate",
          "type": "uint256"
        },
        {
          "internalType": "uint256",
          "name": "balance",
          "type": "uint256"
        },
        {
          "internalType": "uint256",
          "name": "borrowBalance",
          "type": "uint256"
        },
        {
          "internalType": "uint256",
          "name": "price",
          "type": "uint256"
        },
        {
          "internalType": "uint256",
          "name": "priceScale",
          "type": "uint256"
        }
      ],
      "stateMutability": "view",
      "type": "function"
    },
    {
      "inputs": [
        {
          "internalType": "address",
          "name": "token",
          "type": "address"
        },
        {
          "internalType": "address",
          "name": "account",
          "type": "address"
        }
      ],
      "name": "getDepositedCollaterals",
      "outputs": [
        {
          "internalType": "address[]",
          "name": "collaterals",
          "type": "address[]"
        },
        {
          "internalType": "uint128[]",
          "name": "balances",
          "type": "uint128[]"
        },
        {
          "internalType": "string[]",
          "name": "displayNames",
          "type": "string[]"
        }
      ],
      "stateMutability": "view",
      "type": "function"
    },
    {
      "inputs": [
        {
          "internalType": "address",
          "name": "token",
          "type": "address"
        },
        {
          "components": [
            {
              "internalType": "address",
              "name": "token",
              "type": "address"
            },
            {
              "internalType": "uint256",
              "name": "amount",
              "type": "uint256"
            }
          ],
          "internalType": "struct IGateway.Collateral[]",
          "name": "",
          "type": "tuple[]"
        }
      ],
      "name": "getEncodedCollateralApprovals",
      "outputs": [
        {
          "internalType": "address[]",
          "name": "target",
          "type": "address[]"
        },
        {
          "internalType": "bytes[]",
          "name": "data",
          "type": "bytes[]"
        }
      ],
      "stateMutability": "view",
      "type": "function"
    },
    {
      "inputs": [
        {
          "internalType": "address",
          "name": "token",
          "type": "address"
        },
        {
          "internalType": "uint256",
          "name": "",
          "type": "uint256"
        }
      ],
      "name": "getEncodedDebtApproval",
      "outputs": [
        {
          "internalType": "address[]",
          "name": "target",
          "type": "address[]"
        },
        {
          "internalType": "bytes[]",
          "name": "data",
          "type": "bytes[]"
        }
      ],
      "stateMutability": "view",
      "type": "function"
    },
    {
      "inputs": [
        {
          "internalType": "address",
          "name": "token",
          "type": "address"
        },
        {
          "internalType": "address",
          "name": "user",
          "type": "address"
        }
      ],
      "name": "getLtv",
      "outputs": [
        {
          "internalType": "uint256",
          "name": "",
          "type": "uint256"
        }
      ],
      "stateMutability": "view",
      "type": "function"
    },
    {
      "inputs": [
        {
          "internalType": "address",
          "name": "token",
          "type": "address"
        }
      ],
      "name": "getMaxLtv",
      "outputs": [
        {
          "internalType": "uint256",
          "name": "",
          "type": "uint256"
        }
      ],
      "stateMutability": "view",
      "type": "function"
    },
    {
      "inputs": [
        {
          "internalType": "address",
          "name": "token",
          "type": "address"
        },
        {
          "internalType": "address",
          "name": "user",
          "type": "address"
        }
      ],
      "name": "getPossibleCollaterals",
      "outputs": [
        {
          "internalType": "address[]",
          "name": "collateralAddresses",
          "type": "address[]"
        },
        {
          "internalType": "uint256[]",
          "name": "balances",
          "type": "uint256[]"
        },
        {
          "internalType": "string[]",
          "name": "symbols",
          "type": "string[]"
        },
        {
          "internalType": "uint8[]",
          "name": "decimals",
          "type": "uint8[]"
        }
      ],
      "stateMutability": "view",
      "type": "function"
    },
    {
      "inputs": [
        {
          "internalType": "address",
          "name": "token",
          "type": "address"
        }
      ],
      "name": "getPrice",
      "outputs": [
        {
          "internalType": "uint256",
          "name": "",
          "type": "uint256"
        }
      ],
      "stateMutability": "view",
      "type": "function"
    },
    {
      "inputs": [
        {
          "internalType": "address",
          "name": "token",
          "type": "address"
        }
      ],
      "name": "getSupplyRate",
      "outputs": [
        {
          "internalType": "uint256",
          "name": "supplyRate",
          "type": "uint256"
        },
        {
          "internalType": "bool",
          "name": "success",
          "type": "bool"
        }
      ],
      "stateMutability": "view",
      "type": "function"
    },
    {
      "inputs": [
        {
          "internalType": "address",
          "name": "token",
          "type": "address"
        },
        {
          "internalType": "contract AggregatorV3Interface",
          "name": "feed",
          "type": "address"
        }
      ],
      "name": "overrideFeed",
      "outputs": [],
      "stateMutability": "nonpayable",
      "type": "function"
    },
    {
      "inputs": [
        {
          "internalType": "address",
          "name": "",
          "type": "address"
        }
      ],
      "name": "overrideFeeds",
      "outputs": [
        {
          "internalType": "contract AggregatorV3Interface",
          "name": "",
          "type": "address"
        }
      ],
      "stateMutability": "view",
      "type": "function"
    },
    {
      "inputs": [],
      "name": "priceFeed",
      "outputs": [
        {
          "internalType": "contract FeedRegistryInterface",
          "name": "",
          "type": "address"
        }
      ],
      "stateMutability": "view",
      "type": "function"
    },
    {
      "inputs": [
        {
          "internalType": "address",
          "name": "token",
          "type": "address"
        },
        {
          "internalType": "address",
          "name": "user",
          "type": "address"
        },
        {
          "internalType": "uint256",
          "name": "amount",
          "type": "uint256"
        }
      ],
      "name": "repay",
      "outputs": [],
      "stateMutability": "nonpayable",
      "type": "function"
    },
    {
      "inputs": [
        {
          "internalType": "address",
          "name": "",
          "type": "address"
        }
      ],
      "name": "tokenToComet",
      "outputs": [
        {
          "internalType": "contract ICompoundComet",
          "name": "",
          "type": "address"
        }
      ],
      "stateMutability": "view",
      "type": "function"
    },
    {
      "inputs": [
        {
          "internalType": "address",
          "name": "market",
          "type": "address"
        },
        {
          "internalType": "address",
          "name": "collateral",
          "type": "address"
        },
        {
          "internalType": "address",
          "name": "user",
          "type": "address"
        },
        {
          "internalType": "uint256",
          "name": "amount",
          "type": "uint256"
        }
      ],
      "name": "withdrawCollateral",
      "outputs": [
        {
          "internalType": "address",
          "name": "",
          "type": "address"
        }
      ],
      "stateMutability": "nonpayable",
      "type": "function"
    }
  ],
  "transactionHash": "0xc4ad19488c026b677a6b1864262793237620047cf393691f8ed10bfba36cd5cd",
  "args": [
    [
      "0xAec1F48e02Cfb822Be958B68C7957156EB3F0b6e",
      "0x2943ac1216979aD8dB76D9147F64E61adc126e96"
    ],
    "0x0000000000000000000000000000000000000000"
  ],
  "numDeployments": 1,
  "solcInputHash": "6535c36005e1b97a9d1000e1d78b68ff",
  "bytecode": "0x60806040523480156200001157600080fd5b5060405162002633380380620026338339810160408190526200003491620001c9565b60005b8251811015620001605760006001600160a01b0316838281518110620000615762000061620002af565b60200260200101516001600160a01b0316146200014b578281815181106200008d576200008d620002af565b6020026020010151600080858481518110620000ad57620000ad620002af565b60200260200101516001600160a01b031663c55dae636040518163ffffffff1660e01b8152600401602060405180830381865afa158015620000f3573d6000803e3d6000fd5b505050506040513d601f19601f82011682018060405250810190620001199190620002c5565b6001600160a01b039081168252602082019290925260400160002080546001600160a01b031916929091169190911790555b806200015781620002ec565b91505062000037565b50600180546001600160a01b0319166001600160a01b03929092169190911790555062000314565b634e487b7160e01b600052604160045260246000fd5b6001600160a01b0381168114620001b457600080fd5b50565b8051620001c4816200019e565b919050565b60008060408385031215620001dd57600080fd5b82516001600160401b0380821115620001f557600080fd5b818501915085601f8301126200020a57600080fd5b815160208282111562000221576200022162000188565b8160051b604051601f19603f8301168101818110868211171562000249576200024962000188565b6040529283528183019350848101820192898411156200026857600080fd5b948201945b8386101562000291576200028186620001b7565b855294820194938201936200026d565b9650620002a29050878201620001b7565b9450505050509250929050565b634e487b7160e01b600052603260045260246000fd5b600060208284031215620002d857600080fd5b8151620002e5816200019e565b9392505050565b6000600182016200030d57634e487b7160e01b600052601160045260246000fd5b5060010190565b61230f80620003246000396000f3fe608060405234801561001057600080fd5b50600436106101425760003560e01c806369e65e49116100b8578063d4fac45d1161007c578063d4fac45d14610326578063d5c561d614610339578063d71275f61461034c578063e9db3c9f1461035f578063f2f1be1e1461039f578063f5125d3f146103c857600080fd5b806369e65e49146102955780636b5441a9146102b7578063741bef1a146102df5780638340f549146102f2578063a342986c1461030557600080fd5b806326e46ed31161010a57806326e46ed31461020c5780634108d0af1461023557806341976e09146102485780635224372c1461025b5780635820ba631461026e578063647e0c201461028157600080fd5b80630c10fd0f14610147578063104e999d14610177578063118e31b71461019a5780631da649cf146101bb57806324bddcfd146101d0575b600080fd5b61015a610155366004611ab9565b6103de565b6040516001600160a01b0390911681526020015b60405180910390f35b61018a610185366004611ad6565b610448565b60405161016e9493929190611bfb565b6101ad6101a8366004611ad6565b6107a0565b60405190815260200161016e565b6101ce6101c9366004611ca1565b610825565b005b6101ce6101de366004611ad6565b6001600160a01b03918216600090815260026020526040902080546001600160a01b03191691909216179055565b61015a61021a366004611ab9565b6000602081905290815260409020546001600160a01b031681565b6101ce610243366004611ce2565b610931565b6101ad610256366004611ab9565b6109a2565b6101ce610269366004611ca1565b610bd0565b61015a61027c366004611d35565b610be2565b6101ad61028f366004611ab9565b50600090565b6102a86102a3366004611ad6565b610cc2565b60405161016e93929190611d86565b6102ca6102c5366004611ab9565b61105d565b6040805192835290151560208301520161016e565b60015461015a906001600160a01b031681565b6101ce610300366004611ca1565b611176565b610318610313366004611df9565b6111dd565b60405161016e929190611e80565b6101ad610334366004611ad6565b6112df565b610318610347366004611ee3565b611320565b6102ca61035a366004611ab9565b611421565b61037261036d366004611ad6565b6114a1565b604080519687526020870195909552938501929092526060840152608083015260a082015260c00161016e565b61015a6103ad366004611ab9565b6002602052600090815260409020546001600160a01b031681565b6101ad6103d6366004611ad6565b600092915050565b6000816001600160a01b031663c55dae636040518163ffffffff1660e01b8152600401602060405180830381865afa15801561041e573d6000803e3d6000fd5b505050506040513d601f19601f820116820180604052508101906104429190611f1f565b92915050565b606080606080600080600061045d8989610cc2565b9250925092506000805b83518110156104bb57600084828151811061048457610484611f3c565b60200260200101516001600160801b031611156104a957816104a581611f68565b9250505b806104b381611f68565b915050610467565b50806001600160401b038111156104d4576104d4611f81565b6040519080825280602002602001820160405280156104fd578160200160208202803683370190505b509750806001600160401b0381111561051857610518611f81565b604051908082528060200260200182016040528015610541578160200160208202803683370190505b509650806001600160401b0381111561055c5761055c611f81565b60405190808252806020026020018201604052801561058f57816020015b606081526020019060019003908161057a5790505b509550806001600160401b038111156105aa576105aa611f81565b6040519080825280602002602001820160405280156105d3578160200160208202803683370190505b5094506000805b84518110156107915760008582815181106105f7576105f7611f3c565b60200260200101516001600160801b0316111561077f5785818151811061062057610620611f3c565b60200260200101518a838151811061063a5761063a611f3c565b60200260200101906001600160a01b031690816001600160a01b03168152505084818151811061066c5761066c611f3c565b60200260200101516001600160801b031689838151811061068f5761068f611f3c565b6020026020010181815250508381815181106106ad576106ad611f3c565b60200260200101518883815181106106c7576106c7611f3c565b60200260200101819052508581815181106106e4576106e4611f3c565b60200260200101516001600160a01b031663313ce5676040518163ffffffff1660e01b8152600401602060405180830381865afa158015610729573d6000803e3d6000fd5b505050506040513d601f19601f8201168201806040525081019061074d9190611fa8565b87838151811061075f5761075f611f3c565b60ff909216602092830291909101909101528161077b81611f68565b9250505b8061078981611f68565b9150506105da565b50505050505092959194509250565b6001600160a01b03828116600090815260208190526040808220549051630dd3126d60e21b815284841660048201529192169063374c49b4906024015b602060405180830381865afa1580156107fa573d6000803e3d6000fd5b505050506040513d601f19601f8201168201806040525081019061081e9190611fc3565b9392505050565b61083a6001600160a01b0384163330846117d4565b6001600160a01b038381166000818152602081905260409081902054905163095ea7b360e01b8152921660048301819052602483018490529163095ea7b3906044016020604051808303816000875af115801561089b573d6000803e3d6000fd5b505050506040513d601f19601f820116820180604052508101906108bf9190611fdc565b50604051634232cd6360e01b81526001600160a01b038481166004830152858116602483015260448201849052821690634232cd63906064015b600060405180830381600087803b15801561091357600080fd5b505af1158015610927573d6000803e3d6000fd5b5050505050505050565b6001600160a01b038085166000908152602081905260409020548591166109735760405162461bcd60e51b815260040161096a90611ffe565b60405180910390fd5b6001600160a01b038086166000908152602081905260409020541661099a8186858761183b565b505050505050565b6001600160a01b0381811660009081526002602052604081205490911615610a4c576001600160a01b03808316600090815260026020526040808220548151633fabe5a360e21b815291519293169163feaf968c9160048082019260a0929091908290030181865afa158015610a1c573d6000803e3d6000fd5b505050506040513d601f19601f82011682018060405250810190610a409190612042565b50919695505050505050565b6001546001600160a01b031615610ab05760015460405163bcfd032d60e01b81526001600160a01b0384811660048301526103486024830152600092169063bcfd032d9060440160a060405180830381865afa158015610a1c573d6000803e3d6000fd5b6001600160a01b0380831660009081526020818152604080832054815163e7dad6bd60e01b815291519394169263e7dad6bd926004808401939192918290030181865afa158015610b05573d6000803e3d6000fd5b505050506040513d601f19601f82011682018060405250810190610b299190611f1f565b90506001600160a01b03811615610bc7576001600160a01b03838116600090815260208190526040908190205490516341976e0960e01b815283831660048201529116906341976e0990602401602060405180830381865afa158015610b93573d6000803e3d6000fd5b505050506040513d601f19601f82011682018060405250810190610bb791906120a9565b6001600160801b03169392505050565b50600092915050565b610bdc83848484610be2565b50505050565b6001600160a01b038085166000908152602081905260408120549091869116610c1d5760405162461bcd60e51b815260040161096a90611ffe565b6001600160a01b03868116600090815260208190526040908190205490516304c8826360e31b815286831660048201523060248201528783166044820152606481018690529116908190632644131890608401600060405180830381600087803b158015610c8a57600080fd5b505af1158015610c9e573d6000803e3d6000fd5b50610cb7925050506001600160a01b0387163386611901565b509395945050505050565b6001600160a01b03808316600090815260208190526040902054606091829182911680610d015760405162461bcd60e51b815260040161096a90611ffe565b6000816001600160a01b031663a46fe83b6040518163ffffffff1660e01b8152600401602060405180830381865afa158015610d41573d6000803e3d6000fd5b505050506040513d601f19601f82011682018060405250810190610d659190611fa8565b90508060ff166001600160401b03811115610d8257610d82611f81565b604051908082528060200260200182016040528015610dab578160200160208202803683370190505b5094508060ff166001600160401b03811115610dc957610dc9611f81565b604051908082528060200260200182016040528015610dfc57816020015b6060815260200190600190039081610de75790505b5092508060ff166001600160401b03811115610e1a57610e1a611f81565b604051908082528060200260200182016040528015610e43578160200160208202803683370190505b5093506000805b8260ff168160ff1610156110525760405163c8c7fe6b60e01b815260ff821660048201526000906001600160a01b0386169063c8c7fe6b9060240161010060405180830381865afa158015610ea3573d6000803e3d6000fd5b505050506040513d601f19601f82011682018060405250810190610ec791906120db565b6020810151604051632b92a07d60e01b81526001600160a01b038c81166004830152918216602482015291925060009190871690632b92a07d906044016040805180830381865afa158015610f20573d6000803e3d6000fd5b505050506040513d601f19601f82011682018060405250810190610f4491906121a4565b5090508160200151898581518110610f5e57610f5e611f3c565b60200260200101906001600160a01b031690816001600160a01b03168152505081602001516001600160a01b03166395d89b416040518163ffffffff1660e01b8152600401600060405180830381865afa158015610fc0573d6000803e3d6000fd5b505050506040513d6000823e601f3d908101601f19168201604052610fe891908101906121d7565b878581518110610ffa57610ffa611f3c565b60200260200101819052508088858151811061101857611018611f3c565b6001600160801b03909216602092830291909101909101528361103a81611f68565b9450505050808061104a90612283565b915050610e4a565b505050509250925092565b6001600160a01b038082166000908152602081905260408120549091829184911615611170576001600160a01b0380851660009081526020818152604091829020548251637eb7113160e01b8152925193169263d955759d928492637eb71131926004808401938290030181865afa1580156110dd573d6000803e3d6000fd5b505050506040513d601f19601f820116820180604052508101906111019190611fc3565b6040518263ffffffff1660e01b815260040161111f91815260200190565b602060405180830381865afa15801561113c573d6000803e3d6000fd5b505050506040513d601f19601f8201168201806040525081019061116091906122a2565b6001600160401b03169250600191505b50915091565b6001600160a01b038084166000908152602081905260409020548491166111af5760405162461bcd60e51b815260040161096a90611ffe565b6001600160a01b03808516600090815260208190526040902054166111d68186868661183b565b5050505050565b6001600160a01b03838116600090815260208190526040908190205481516001808252818401909352606093849392169181602001602082028036833701905050604080516001808252818301909252919450816020015b6060815260200190600190039081611235579050509150808360008151811061126057611260611f3c565b6001600160a01b039290921660209283029190910182015260408051306024820152600160448083019190915282518083039091018152606490910190915290810180516001600160e01b031663110496e560e01b179052825183906000906112cb576112cb611f3c565b602002602001018190525050935093915050565b6001600160a01b038281166000908152602081905260408082205490516370a0823160e01b81528484166004820152919216906370a08231906024016107dd565b6001600160a01b03828116600090815260208190526040908190205481516001808252818401909352606093849392169181602001602082028036833701905050604080516001808252818301909252919450816020015b606081526020019060019003908161137857905050915080836000815181106113a3576113a3611f3c565b6001600160a01b039290921660209283029190910182015260408051306024820152600160448083019190915282518083039091018152606490910190915290810180516001600160e01b031663110496e560e01b1790528251839060009061140e5761140e611f3c565b6020026020010181905250509250929050565b6001600160a01b038082166000908152602081905260408120549091829184911615611170576001600160a01b0380851660009081526020818152604091829020548251637eb7113160e01b81529251931692639fa83b5a928492637eb71131926004808401938290030181865afa1580156110dd573d6000803e3d6000fd5b6001600160a01b03808316600090815260208181526040808320548151637eb7113160e01b815291519394859485948594859485941692839263d955759d928492637eb71131926004808401939192918290030181865afa15801561150a573d6000803e3d6000fd5b505050506040513d601f19601f8201168201806040525081019061152e9190611fc3565b6040518263ffffffff1660e01b815260040161154c91815260200190565b602060405180830381865afa158015611569573d6000803e3d6000fd5b505050506040513d601f19601f8201168201806040525081019061158d91906122a2565b6001600160401b03169650806001600160a01b0316639fa83b5a826001600160a01b0316637eb711316040518163ffffffff1660e01b8152600401602060405180830381865afa1580156115e5573d6000803e3d6000fd5b505050506040513d601f19601f820116820180604052508101906116099190611fc3565b6040518263ffffffff1660e01b815260040161162791815260200190565b602060405180830381865afa158015611644573d6000803e3d6000fd5b505050506040513d601f19601f8201168201806040525081019061166891906122a2565b6040516370a0823160e01b81526001600160a01b038a811660048301526001600160401b03929092169750908216906370a0823190602401602060405180830381865afa1580156116bd573d6000803e3d6000fd5b505050506040513d601f19601f820116820180604052508101906116e19190611fc3565b604051630dd3126d60e21b81526001600160a01b038a811660048301529196509082169063374c49b490602401602060405180830381865afa15801561172b573d6000803e3d6000fd5b505050506040513d601f19601f8201168201806040525081019061174f9190611fc3565b935061175a896109a2565b9250806001600160a01b031663a0fbddaf6040518163ffffffff1660e01b8152600401602060405180830381865afa15801561179a573d6000803e3d6000fd5b505050506040513d601f19601f820116820180604052508101906117be91906122a2565b6001600160401b03169150509295509295509295565b6040516001600160a01b038481166024830152838116604483015260648201839052610bdc9186918216906323b872dd906084015b604051602081830303815290604052915060e01b6020820180516001600160e01b038381831617835250505050611937565b6118506001600160a01b0384163330846117d4565b60405163095ea7b360e01b81526001600160a01b0385811660048301526024820183905284169063095ea7b3906044016020604051808303816000875af115801561189f573d6000803e3d6000fd5b505050506040513d601f19601f820116820180604052508101906118c39190611fdc565b50604051634232cd6360e01b81526001600160a01b038381166004830152848116602483015260448201839052851690634232cd63906064016108f9565b6040516001600160a01b0383811660248301526044820183905261193291859182169063a9059cbb90606401611809565b505050565b600061194c6001600160a01b0384168361199a565b9050805160001415801561197157508080602001905181019061196f9190611fdc565b155b1561193257604051635274afe760e01b81526001600160a01b038416600482015260240161096a565b606061081e8383600084600080856001600160a01b031684866040516119c091906122bd565b60006040518083038185875af1925050503d80600081146119fd576040519150601f19603f3d011682016040523d82523d6000602084013e611a02565b606091505b5091509150611a12868383611a1c565b9695505050505050565b606082611a3157611a2c82611a78565b61081e565b8151158015611a4857506001600160a01b0384163b155b15611a7157604051639996b31560e01b81526001600160a01b038516600482015260240161096a565b508061081e565b805115611a885780518082602001fd5b604051630a12f52160e11b815260040160405180910390fd5b50565b6001600160a01b0381168114611aa157600080fd5b600060208284031215611acb57600080fd5b813561081e81611aa4565b60008060408385031215611ae957600080fd5b8235611af481611aa4565b91506020830135611b0481611aa4565b809150509250929050565b600081518084526020808501945080840160005b83811015611b485781516001600160a01b031687529582019590820190600101611b23565b509495945050505050565b60005b83811015611b6e578181015183820152602001611b56565b50506000910152565b60008151808452611b8f816020860160208601611b53565b601f01601f19169290920160200192915050565b600082825180855260208086019550808260051b84010181860160005b84811015611bee57601f19868403018952611bdc838351611b77565b98840198925090830190600101611bc0565b5090979650505050505050565b608081526000611c0e6080830187611b0f565b82810360208481019190915286518083528782019282019060005b81811015611c4557845183529383019391830191600101611c29565b50508481036040860152611c598188611ba3565b858103606087015286518082528388019450908301915060005b81811015611c9257845160ff1683529383019391830191600101611c73565b50909998505050505050505050565b600080600060608486031215611cb657600080fd5b8335611cc181611aa4565b92506020840135611cd181611aa4565b929592945050506040919091013590565b60008060008060808587031215611cf857600080fd5b8435611d0381611aa4565b93506020850135611d1381611aa4565b9250604085013591506060850135611d2a81611aa4565b939692955090935050565b60008060008060808587031215611d4b57600080fd5b8435611d5681611aa4565b93506020850135611d6681611aa4565b92506040850135611d7681611aa4565b9396929550929360600135925050565b606081526000611d996060830186611b0f565b82810360208481019190915285518083528682019282019060005b81811015611dd95784516001600160801b031683529383019391830191600101611db4565b50508481036040860152611ded8187611ba3565b98975050505050505050565b600080600060408486031215611e0e57600080fd5b8335611e1981611aa4565b925060208401356001600160401b0380821115611e3557600080fd5b818601915086601f830112611e4957600080fd5b813581811115611e5857600080fd5b8760208260061b8501011115611e6d57600080fd5b6020830194508093505050509250925092565b604081526000611e936040830185611b0f565b6020838203818501528185518084528284019150828160051b85010183880160005b83811015611c9257601f19878403018552611ed1838351611b77565b94860194925090850190600101611eb5565b60008060408385031215611ef657600080fd5b8235611f0181611aa4565b946020939093013593505050565b8051611f1a81611aa4565b919050565b600060208284031215611f3157600080fd5b815161081e81611aa4565b634e487b7160e01b600052603260045260246000fd5b634e487b7160e01b600052601160045260246000fd5b600060018201611f7a57611f7a611f52565b5060010190565b634e487b7160e01b600052604160045260246000fd5b805160ff81168114611f1a57600080fd5b600060208284031215611fba57600080fd5b61081e82611f97565b600060208284031215611fd557600080fd5b5051919050565b600060208284031215611fee57600080fd5b8151801515811461081e57600080fd5b60208082526010908201526f10dbdb595d081a5cc81b9bdd081cd95d60821b604082015260600190565b805169ffffffffffffffffffff81168114611f1a57600080fd5b600080600080600060a0868803121561205a57600080fd5b61206386612028565b945060208601519350604086015192506060860151915061208660808701612028565b90509295509295909350565b80516001600160801b0381168114611f1a57600080fd5b6000602082840312156120bb57600080fd5b61081e82612092565b80516001600160401b0381168114611f1a57600080fd5b60006101008083850312156120ef57600080fd5b604051908101906001600160401b038211818310171561211157612111611f81565b8160405261211e84611f97565b81526020840151915061213082611aa4565b81602082015261214260408501611f0f565b6040820152612153606085016120c4565b6060820152612164608085016120c4565b608082015261217560a085016120c4565b60a082015261218660c085016120c4565b60c082015261219760e08501612092565b60e0820152949350505050565b600080604083850312156121b757600080fd5b6121c083612092565b91506121ce60208401612092565b90509250929050565b6000602082840312156121e957600080fd5b81516001600160401b038082111561220057600080fd5b818401915084601f83011261221457600080fd5b81518181111561222657612226611f81565b604051601f8201601f19908116603f0116810190838211818310171561224e5761224e611f81565b8160405282815287602084870101111561226757600080fd5b612278836020830160208801611b53565b979650505050505050565b600060ff821660ff810361229957612299611f52565b60010192915050565b6000602082840312156122b457600080fd5b61081e826120c4565b600082516122cf818460208701611b53565b919091019291505056fea2646970667358221220f2dc094bef34b38d9fcd09f6febdce10de3a7c3a015a230c45eb81605f9f064864736f6c63430008140033",
  "devdoc": {
    "errors": {
      "AddressEmptyCode(address)": [
        {
          "details": "There's no code at `target` (it is not a contract)."
        }
      ],
      "AddressInsufficientBalance(address)": [
        {
          "details": "The ETH balance of the account is not enough to perform the operation."
        }
      ],
      "FailedInnerCall()": [
        {
          "details": "A call to an address target failed. The target may have reverted."
        }
      ],
      "SafeERC20FailedOperation(address)": [
        {
          "details": "An operation with an ERC20 token failed."
        }
      ]
    },
    "kind": "dev",
    "methods": {},
    "version": 1
  },
  "userdoc": {
    "kind": "user",
    "methods": {},
    "version": 1
  },
  "storageLayout": {
    "storage": [
      {
        "astId": 5293,
        "contract": "contracts/gateways/CompoundGateway.sol:CompoundGateway",
        "label": "tokenToComet",
        "offset": 0,
        "slot": "0",
        "type": "t_mapping(t_address,t_contract(ICompoundComet)6458)"
      },
      {
        "astId": 5296,
        "contract": "contracts/gateways/CompoundGateway.sol:CompoundGateway",
        "label": "priceFeed",
        "offset": 0,
        "slot": "1",
        "type": "t_contract(FeedRegistryInterface)1974"
      },
      {
        "astId": 5301,
        "contract": "contracts/gateways/CompoundGateway.sol:CompoundGateway",
        "label": "overrideFeeds",
        "offset": 0,
        "slot": "2",
        "type": "t_mapping(t_address,t_contract(AggregatorV3Interface)2079)"
      }
    ],
    "types": {
      "t_address": {
        "encoding": "inplace",
        "label": "address",
        "numberOfBytes": "20"
      },
      "t_contract(AggregatorV3Interface)2079": {
        "encoding": "inplace",
        "label": "contract AggregatorV3Interface",
        "numberOfBytes": "20"
      },
      "t_contract(FeedRegistryInterface)1974": {
        "encoding": "inplace",
        "label": "contract FeedRegistryInterface",
        "numberOfBytes": "20"
      },
      "t_contract(ICompoundComet)6458": {
        "encoding": "inplace",
        "label": "contract ICompoundComet",
        "numberOfBytes": "20"
      },
      "t_mapping(t_address,t_contract(AggregatorV3Interface)2079)": {
        "encoding": "mapping",
        "key": "t_address",
        "label": "mapping(address => contract AggregatorV3Interface)",
        "numberOfBytes": "32",
        "value": "t_contract(AggregatorV3Interface)2079"
      },
      "t_mapping(t_address,t_contract(ICompoundComet)6458)": {
        "encoding": "mapping",
        "key": "t_address",
        "label": "mapping(address => contract ICompoundComet)",
        "numberOfBytes": "32",
        "value": "t_contract(ICompoundComet)6458"
      }
    }
  }
}