{
  "address": "0xc3FEDD5F3CFa9386380C7590a6d0C35b55a42395",
  "abi": [
    {
      "inputs": [
        {
          "internalType": "address",
          "name": "aaveGateway",
          "type": "address"
        },
        {
          "internalType": "address",
          "name": "compoundGateway",
          "type": "address"
        },
        {
          "internalType": "contract IVault",
          "name": "v3vault",
          "type": "address"
        },
        {
          "internalType": "contract IFlashLoanProvider",
          "name": "v2Vault",
          "type": "address"
        }
      ],
      "stateMutability": "nonpayable",
      "type": "constructor"
    },
    {
      "inputs": [
        {
          "internalType": "address",
          "name": "target",
          "type": "address"
        }
      ],
      "name": "AddressEmptyCode",
      "type": "error"
    },
    {
      "inputs": [
        {
          "internalType": "address",
          "name": "account",
          "type": "address"
        }
      ],
      "name": "AddressInsufficientBalance",
      "type": "error"
    },
    {
      "inputs": [],
      "name": "FailedInnerCall",
      "type": "error"
    },
    {
      "inputs": [
        {
          "internalType": "address",
          "name": "token",
          "type": "address"
        }
      ],
      "name": "SafeERC20FailedOperation",
      "type": "error"
    },
    {
      "inputs": [],
      "name": "balancerV2Vault",
      "outputs": [
        {
          "internalType": "contract IFlashLoanProvider",
          "name": "",
          "type": "address"
        }
      ],
      "stateMutability": "view",
      "type": "function"
    },
    {
      "inputs": [],
      "name": "balancerV3Vault",
      "outputs": [
        {
          "internalType": "contract IVault",
          "name": "",
          "type": "address"
        }
      ],
      "stateMutability": "view",
      "type": "function"
    },
    {
      "inputs": [
        {
          "internalType": "string",
          "name": "",
          "type": "string"
        }
      ],
      "name": "gateways",
      "outputs": [
        {
          "internalType": "contract IGateway",
          "name": "",
          "type": "address"
        }
      ],
      "stateMutability": "view",
      "type": "function"
    },
    {
      "inputs": [
        {
          "internalType": "string",
          "name": "protocolName",
          "type": "string"
        },
        {
          "internalType": "address",
          "name": "token",
          "type": "address"
        },
        {
          "internalType": "address",
          "name": "user",
          "type": "address"
        }
      ],
      "name": "getBalance",
      "outputs": [
        {
          "internalType": "uint256",
          "name": "",
          "type": "uint256"
        }
      ],
      "stateMutability": "view",
      "type": "function"
    },
    {
      "inputs": [
        {
          "internalType": "string",
          "name": "protocolName",
          "type": "string"
        },
        {
          "internalType": "address",
          "name": "token",
          "type": "address"
        },
        {
          "internalType": "address",
          "name": "user",
          "type": "address"
        }
      ],
      "name": "getBorrowBalance",
      "outputs": [
        {
          "internalType": "uint256",
          "name": "",
          "type": "uint256"
        }
      ],
      "stateMutability": "view",
      "type": "function"
    },
    {
      "inputs": [
        {
          "internalType": "address",
          "name": "debtToken",
          "type": "address"
        },
        {
          "components": [
            {
              "internalType": "address",
              "name": "token",
              "type": "address"
            },
            {
              "internalType": "uint256",
              "name": "amount",
              "type": "uint256"
            }
          ],
          "internalType": "struct IGateway.Collateral[]",
          "name": "collaterals",
          "type": "tuple[]"
        },
        {
          "internalType": "string",
          "name": "fromProtocol",
          "type": "string"
        }
      ],
      "name": "getFromProtocolApprovalsForMove",
      "outputs": [
        {
          "internalType": "address[]",
          "name": "",
          "type": "address[]"
        },
        {
          "internalType": "bytes[]",
          "name": "",
          "type": "bytes[]"
        }
      ],
      "stateMutability": "view",
      "type": "function"
    },
    {
      "inputs": [
        {
          "internalType": "address",
          "name": "token",
          "type": "address"
        },
        {
          "internalType": "string",
          "name": "protocolName",
          "type": "string"
        },
        {
          "internalType": "address",
          "name": "user",
          "type": "address"
        }
      ],
      "name": "getPossibleCollaterals",
      "outputs": [
        {
          "internalType": "address[]",
          "name": "collateralAddresses",
          "type": "address[]"
        },
        {
          "internalType": "uint256[]",
          "name": "balances",
          "type": "uint256[]"
        },
        {
          "internalType": "string[]",
          "name": "symbols",
          "type": "string[]"
        },
        {
          "internalType": "uint8[]",
          "name": "decimals",
          "type": "uint8[]"
        }
      ],
      "stateMutability": "view",
      "type": "function"
    },
    {
      "inputs": [
        {
          "internalType": "address",
          "name": "debtToken",
          "type": "address"
        },
        {
          "internalType": "uint256",
          "name": "debtAmount",
          "type": "uint256"
        },
        {
          "internalType": "string",
          "name": "toProtocol",
          "type": "string"
        }
      ],
      "name": "getToProtocolApprovalsForMove",
      "outputs": [
        {
          "internalType": "address[]",
          "name": "",
          "type": "address[]"
        },
        {
          "internalType": "bytes[]",
          "name": "",
          "type": "bytes[]"
        }
      ],
      "stateMutability": "view",
      "type": "function"
    },
    {
      "inputs": [
        {
          "internalType": "address",
          "name": "user",
          "type": "address"
        },
        {
          "internalType": "address",
          "name": "debtToken",
          "type": "address"
        },
        {
          "internalType": "uint256",
          "name": "debtAmount",
          "type": "uint256"
        },
        {
          "internalType": "bool",
          "name": "repayAll",
          "type": "bool"
        },
        {
          "components": [
            {
              "internalType": "address",
              "name": "token",
              "type": "address"
            },
            {
              "internalType": "uint256",
              "name": "amount",
              "type": "uint256"
            }
          ],
          "internalType": "struct IGateway.Collateral[]",
          "name": "collaterals",
          "type": "tuple[]"
        },
        {
          "internalType": "string",
          "name": "fromProtocol",
          "type": "string"
        },
        {
          "internalType": "string",
          "name": "toProtocol",
          "type": "string"
        },
        {
          "internalType": "string",
          "name": "flashLoanVersion",
          "type": "string"
        }
      ],
      "name": "moveDebt",
      "outputs": [],
      "stateMutability": "nonpayable",
      "type": "function"
    },
    {
      "inputs": [
        {
          "internalType": "contract IERC20[]",
          "name": "tokens",
          "type": "address[]"
        },
        {
          "internalType": "uint256[]",
          "name": "amounts",
          "type": "uint256[]"
        },
        {
          "internalType": "uint256[]",
          "name": "feeAmounts",
          "type": "uint256[]"
        },
        {
          "internalType": "bytes",
          "name": "userData",
          "type": "bytes"
        }
      ],
      "name": "receiveFlashLoan",
      "outputs": [],
      "stateMutability": "nonpayable",
      "type": "function"
    },
    {
      "inputs": [
        {
          "internalType": "address",
          "name": "user",
          "type": "address"
        },
        {
          "internalType": "address",
          "name": "debtToken",
          "type": "address"
        },
        {
          "internalType": "uint256",
          "name": "debtAmount",
          "type": "uint256"
        },
        {
          "components": [
            {
              "internalType": "address",
              "name": "token",
              "type": "address"
            },
            {
              "internalType": "uint256",
              "name": "amount",
              "type": "uint256"
            }
          ],
          "internalType": "struct IGateway.Collateral[]",
          "name": "collaterals",
          "type": "tuple[]"
        },
        {
          "internalType": "string",
          "name": "fromProtocol",
          "type": "string"
        },
        {
          "internalType": "string",
          "name": "toProtocol",
          "type": "string"
        }
      ],
      "name": "receiveFlashLoanV3",
      "outputs": [],
      "stateMutability": "nonpayable",
      "type": "function"
    },
    {
      "inputs": [
        {
          "internalType": "string",
          "name": "protocolName",
          "type": "string"
        },
        {
          "internalType": "address",
          "name": "token",
          "type": "address"
        },
        {
          "internalType": "address",
          "name": "user",
          "type": "address"
        },
        {
          "internalType": "uint256",
          "name": "amount",
          "type": "uint256"
        }
      ],
      "name": "repay",
      "outputs": [],
      "stateMutability": "nonpayable",
      "type": "function"
    },
    {
      "inputs": [
        {
          "internalType": "string",
          "name": "protocolName",
          "type": "string"
        },
        {
          "internalType": "address",
          "name": "token",
          "type": "address"
        },
        {
          "internalType": "address",
          "name": "user",
          "type": "address"
        },
        {
          "internalType": "uint256",
          "name": "amount",
          "type": "uint256"
        }
      ],
      "name": "supply",
      "outputs": [],
      "stateMutability": "nonpayable",
      "type": "function"
    },
    {
      "inputs": [
        {
          "internalType": "string",
          "name": "protocolName",
          "type": "string"
        },
        {
          "internalType": "address",
          "name": "token",
          "type": "address"
        },
        {
          "internalType": "address",
          "name": "user",
          "type": "address"
        },
        {
          "internalType": "uint256",
          "name": "amount",
          "type": "uint256"
        },
        {
          "internalType": "uint256",
          "name": "deadline",
          "type": "uint256"
        },
        {
          "internalType": "uint8",
          "name": "v",
          "type": "uint8"
        },
        {
          "internalType": "bytes32",
          "name": "r",
          "type": "bytes32"
        },
        {
          "internalType": "bytes32",
          "name": "s",
          "type": "bytes32"
        }
      ],
      "name": "supplyWithPermit",
      "outputs": [],
      "stateMutability": "nonpayable",
      "type": "function"
    }
  ],
  "transactionHash": "0xf533653214a45df7b1181fe19fb673ff9f63496df4fe66c197485d2c0c525dc3",
  "args": [
    "0xBe9e1BE5448d4A4e4f93f43b6D4bdbb5BD417c3E",
    "0xA0991f146B6ff0fFbF81AE6FccAcBf9EB136FdCF",
    "0xbA1333333333a1BA1108E8412f11850A5C319bA9",
    "0xBA12222222228d8Ba445958a75a0704d566BF2C8"
  ],
  "numDeployments": 1,
  "solcInputHash": "7091fb1055ddb464e4bb4684cfd7dd13",
  "bytecode": "0x60806040523480156200001157600080fd5b50604051620030fc380380620030fc833981016040819052620000349162000142565b8360006040516200004f90636161766560e01b815260040190565b9081526040805191829003602001822080546001600160a01b039485166001600160a01b0319918216179091556718dbdb5c1bdd5b9960c21b835260006008840181905282519384900360280184208054988616988316891790556a636f6d706f756e6420763360a81b8452600b8401819052825193849003602b01842080548316909817909755666161766520763360c81b8352600783019690965251908190036027019020805485169582169590951790945560018054841692851692909217909155600280549092169216919091179055620001aa565b6001600160a01b03811681146200013f57600080fd5b50565b600080600080608085870312156200015957600080fd5b8451620001668162000129565b6020860151909450620001798162000129565b60408601519093506200018c8162000129565b60608601519092506200019f8162000129565b939692955090935050565b612f4280620001ba6000396000f3fe608060405234801561001057600080fd5b50600436106100ea5760003560e01c8063ac3cded81161008c578063d7b28d5f11610066578063d7b28d5f146101f8578063db236a1f1461020b578063e327d3121461023f578063f04f27071461025257600080fd5b8063ac3cded8146101bf578063ad3a5f47146101d2578063caf89ac5146101e557600080fd5b806340c7dd62116100c857806340c7dd62146101475780635c738121146101685780637a04707d1461017b5780637ffe721e1461019e57600080fd5b80630acefd35146100ef57806310c0a1571461011f57806325d5691614610132575b600080fd5b600154610102906001600160a01b031681565b6040516001600160a01b0390911681526020015b60405180910390f35b600254610102906001600160a01b031681565b610145610140366004611bea565b610265565b005b61015a610155366004611c8c565b610435565b604051610116929190611d7b565b61015a610176366004611ded565b610539565b61018e610189366004611ea0565b610610565b6040516101169493929190611f6a565b6101b16101ac366004612004565b6106ea565b604051908152602001610116565b6101456101cd366004612060565b6107b4565b6101456101e03660046121f8565b610956565b6101b16101f3366004612004565b610ae4565b610145610206366004612060565b610b67565b610102610219366004612332565b80516020818301810180516000825292820191909301209152546001600160a01b031681565b61014561024d366004612387565b610ccf565b6101456102603660046124cc565b6110e5565b6000808a8a60405161027892919061256e565b908152604051908190036020019020546001600160a01b03169050806102b95760405162461bcd60e51b81526004016102b09061257e565b60405180910390fd5b60405163d505accf60e01b8152336004820152306024820152604481018790526064810186905260ff8516608482015260a4810184905260c481018390526001600160a01b0389169063d505accf9060e401600060405180830381600087803b15801561032557600080fd5b505af1158015610339573d6000803e3d6000fd5b50610353925050506001600160a01b0389163330896112ac565b60405163095ea7b360e01b81526001600160a01b0382811660048301526024820188905289169063095ea7b3906044016020604051808303816000875af11580156103a2573d6000803e3d6000fd5b505050506040513d601f19601f820116820180604052508101906103c691906125ae565b50604051638340f54960e01b81526001600160a01b03821690638340f549906103f7908b908b908b906004016125cb565b600060405180830381600087803b15801561041157600080fd5b505af1158015610425573d6000803e3d6000fd5b5050505050505050505050505050565b606080600080858560405161044b92919061256e565b908152604051908190036020019020546001600160a01b03169050806104af5760405162461bcd60e51b8152602060048201526019602482015278151bc81c1c9bdd1bd8dbdb081b9bdd081cdd5c1c1bdc9d1959603a1b60448201526064016102b0565b604051636ae2b0eb60e11b81526001600160a01b03888116600483015260248201889052600091829184169063d5c561d690604401600060405180830381865afa158015610501573d6000803e3d6000fd5b505050506040513d6000823e601f3d908101601f1916820160405261052991908101906126a3565b909a909950975050505050505050565b606080600080858560405161054f92919061256e565b908152604051908190036020019020546001600160a01b03169050806105875760405162461bcd60e51b81526004016102b090612777565b600080826001600160a01b031663a342986c8b8b8b6040518463ffffffff1660e01b81526004016105ba939291906127ae565b600060405180830381865afa1580156105d7573d6000803e3d6000fd5b505050506040513d6000823e601f3d908101601f191682016040526105ff91908101906126a3565b909b909a5098505050505050505050565b606080606080600080888860405161062992919061256e565b908152604051908190036020019020546001600160a01b03169050806106615760405162461bcd60e51b81526004016102b09061257e565b60405163104e999d60e01b81526001600160a01b038a81166004830152878116602483015282169063104e999d90604401600060405180830381865afa1580156106af573d6000803e3d6000fd5b505050506040513d6000823e601f3d908101601f191682016040526106d7919081019061290b565b929c919b50995090975095505050505050565b600080600086866040516106ff92919061256e565b908152604051908190036020019020546001600160a01b03169050806107375760405162461bcd60e51b81526004016102b09061257e565b60405163d4fac45d60e01b81526001600160a01b038581166004830152848116602483015282169063d4fac45d906044015b602060405180830381865afa158015610786573d6000803e3d6000fd5b505050506040513d601f19601f820116820180604052508101906107aa9190612a0c565b9695505050505050565b60008086866040516107c792919061256e565b908152604051908190036020019020546001600160a01b03169050806107ff5760405162461bcd60e51b81526004016102b09061257e565b6108216040518060600160405280602e8152602001612e3d602e91398361130c565b6108366001600160a01b0385168430856112ac565b610857604051806060016040528060218152602001612dc960219139611355565b60405163095ea7b360e01b81526001600160a01b0382811660048301526024820184905285169063095ea7b3906044016020604051808303816000875af11580156108a6573d6000803e3d6000fd5b505050506040513d601f19601f820116820180604052508101906108ca91906125ae565b506108ec604051806060016040528060328152602001612dea60329139611355565b604051638340f54960e01b81526001600160a01b03821690638340f5499061091c908790879087906004016125cb565b600060405180830381600087803b15801561093657600080fd5b505af115801561094a573d6000803e3d6000fd5b50505050505050505050565b6001546001600160a01b031633146109b05760405162461bcd60e51b815260206004820181905260248201527f556e617574686f72697a656420666c617368206c6f616e2070726f766964657260448201526064016102b0565b6109d1604051806060016040528060288152602001612e9560289139611355565b610a488888888888888080601f01602080910402602001604051908101604052809392919081815260200183838082843760009201919091525050604080516020601f8c018190048102820181019092528a815292508a915089908190840183828082843760009201919091525061139b92505050565b600154610a62906001600160a01b03898116911688611970565b6001546040516315afd40960e01b81526001600160a01b03898116600483015260248201899052909116906315afd409906044016020604051808303816000875af1158015610ab5573d6000803e3d6000fd5b505050506040513d601f19601f82011682018060405250810190610ad99190612a0c565b505050505050505050565b60008060008686604051610af992919061256e565b908152604051908190036020019020546001600160a01b0316905080610b315760405162461bcd60e51b81526004016102b09061257e565b60405163118e31b760e01b81526001600160a01b038581166004830152848116602483015282169063118e31b790604401610769565b6000808686604051610b7a92919061256e565b908152604051908190036020019020546001600160a01b0316905080610bb25760405162461bcd60e51b81526004016102b09061257e565b610bd46040518060600160405280603c8152602001612d6c603c91398361130c565b610be96001600160a01b0385168430856112ac565b610c0a6040518060600160405280602f8152602001612ebd602f9139611355565b60405163095ea7b360e01b81526001600160a01b0382811660048301526024820184905285169063095ea7b3906044016020604051808303816000875af1158015610c59573d6000803e3d6000fd5b505050506040513d601f19601f82011682018060405250810190610c7d91906125ae565b50610c9f604051806060016040528060308152602001612d3c60309139611355565b604051631da649cf60e01b81526001600160a01b03821690631da649cf9061091c908790879087906004016125cb565b8715610d96576000808787604051610ce892919061256e565b908152604051908190036020019020546001600160a01b0316905080610d205760405162461bcd60e51b81526004016102b090612777565b60405163118e31b760e01b81526001600160a01b038c811660048301528d8116602483015282169063118e31b790604401602060405180830381865afa158015610d6e573d6000803e3d6000fd5b505050506040513d601f19601f82011682018060405250810190610d929190612a0c565b9950505b60408051808201825260028152613b1960f11b602090910152517ff9446b8e937d86f0bc87cac73923491692b123ca5f8761908494703758206adf90610ddf908490849061256e565b604051809103902003610f3d5760008b8b8b8a8a8a8a8a604051602001610e0d989796959493929190612a4e565b60408051601f198184030181526001808452838301909252925060009190602080830190803683370190505090508b81600081518110610e4f57610e4f612ae0565b6001600160a01b0392909216602092830291909101909101526040805160018082528183019092526000918160200160208202803683370190505090508b81600081518110610ea057610ea0612ae0565b602002602001018181525050610ecd604051806060016040528060218152602001612e1c60219139611355565b600254604051632e1c224f60e11b81526001600160a01b0390911690635c38449e90610f03903090869086908990600401612af6565b600060405180830381600087803b158015610f1d57600080fd5b505af1158015610f31573d6000803e3d6000fd5b505050505050506110d8565b6040805180820182526002815261763360f01b602090910152517fec97b8914cfb6741ca720b49246676ddcc2c227e4046450a8d815244c93673da90610f86908490849061256e565b60405180910390200361109057600063ad3a5f4760e01b8c8c8c8b8b8b8b8b604051602401610fbc989796959493929190612a4e565b604051602081830303815290604052906001600160e01b0319166020820180516001600160e01b0383818316178352505050509050611012604051806060016040528060218152602001612da860219139611355565b6001546040516348c8949160e01b81526001600160a01b03909116906348c8949190611042908490600401612b7a565b6000604051808303816000875af1158015611061573d6000803e3d6000fd5b505050506040513d6000823e601f3d908101601f191682016040526110899190810190612b8d565b50506110d8565b60405162461bcd60e51b815260206004820152601e60248201527f556e737570706f7274656420666c617368206c6f616e2076657273696f6e000060448201526064016102b0565b5050505050505050505050565b6002546001600160a01b0316331461113f5760405162461bcd60e51b815260206004820181905260248201527f556e617574686f72697a656420666c617368206c6f616e2070726f766964657260448201526064016102b0565b6000808080808061115287890189612bc1565b95509550955095509550955061117f604051806060016040528060288152602001612d1460289139611355565b600189146111e95760405162461bcd60e51b815260206004820152603160248201527f42616c616e63657220563220666c617368206c6f616e2066656520616d6f756e6044820152700e840d8cadccee8d040dad2e6dac2e8c6d607b1b60648201526084016102b0565b898960008181106111fc576111fc612ae0565b905060200201356000146112495760405162461bcd60e51b8152602060048201526014602482015273466c617368206c6f616e7320617265206672656560601b60448201526064016102b0565b61125786868686868661139b565b60008a8a600081811061126c5761126c612ae0565b905060200201358561127e9190612c8c565b60025490915061129b906001600160a01b03888116911683611970565b505050505050505050505050505050565b61130684856001600160a01b03166323b872dd8686866040516024016112d4939291906125cb565b604051602081830303815290604052915060e01b6020820180516001600160e01b0383818316178352505050506119a6565b50505050565b6113518282604051602401611322929190612c9f565b60408051601f198184030181529190526020810180516001600160e01b0316632d839cb360e21b179052611a09565b5050565b611398816040516024016113699190612b7a565b60408051601f198184030181529190526020810180516001600160e01b031663104c13eb60e21b179052611a09565b50565b600080836040516113ac9190612cc1565b908152604051908190036020018120546001600160a01b0316915060009081906113d7908590612cc1565b908152604051908190036020019020546001600160a01b03908116915082166114125760405162461bcd60e51b81526004016102b090612777565b6001600160a01b0381166114645760405162461bcd60e51b8152602060048201526019602482015278151bc81c1c9bdd1bd8dbdb081b9bdd081cdd5c1c1bdc9d1959603a1b60448201526064016102b0565b60405163095ea7b360e01b81526001600160a01b0383811660048301526024820188905288169063095ea7b3906044016020604051808303816000875af11580156114b3573d6000803e3d6000fd5b505050506040513d601f19601f820116820180604052508101906114d791906125ae565b5060405163118e31b760e01b81526001600160a01b03888116600483015289811660248301526000919084169063118e31b790604401602060405180830381865afa15801561152a573d6000803e3d6000fd5b505050506040513d601f19601f8201168201806040525081019061154e9190612a0c565b604051631da649cf60e01b81529091506001600160a01b03841690631da649cf90611581908b908d908c906004016125cb565b600060405180830381600087803b15801561159b57600080fd5b505af11580156115af573d6000803e3d6000fd5b505060405163118e31b760e01b81526001600160a01b038b811660048301528c81166024830152600093508616915063118e31b790604401602060405180830381865afa158015611604573d6000803e3d6000fd5b505050506040513d601f19601f820116820180604052508101906116289190612a0c565b90508181106116895760405162461bcd60e51b815260206004820152602760248201527f52657061796d656e7420646964206e6f742072656475636520626f72726f772060448201526662616c616e636560c81b60648201526084016102b0565b505060005b85518110156118e2576000836001600160a01b0316635820ba638a8985815181106116bb576116bb612ae0565b6020026020010151600001518d8b87815181106116da576116da612ae0565b60209081029190910181015101516040516001600160e01b031960e087901b1681526001600160a01b03948516600482015292841660248401529216604482015260648101919091526084016020604051808303816000875af1158015611745573d6000803e3d6000fd5b505050506040513d601f19601f820116820180604052508101906117699190612cdd565b9050806001600160a01b031663095ea7b38489858151811061178d5761178d612ae0565b6020026020010151602001516040518363ffffffff1660e01b81526004016117ca9291906001600160a01b03929092168252602082015260400190565b6020604051808303816000875af11580156117e9573d6000803e3d6000fd5b505050506040513d601f19601f8201168201806040525081019061180d91906125ae565b5061182f6040518060600160405280602a8152602001612e6b602a9139611355565b826001600160a01b0316634108d0af8a838a868151811061185257611852612ae0565b60209081029190910181015101516040516001600160e01b031960e086901b1681526001600160a01b03938416600482015291831660248301526044820152908d166064820152608401600060405180830381600087803b1580156118b657600080fd5b505af11580156118ca573d6000803e3d6000fd5b505050505080806118da90612cfa565b91505061168e565b50611904604051806060016040528060218152602001612eec60219139611355565b6040516314890dcb60e21b81526001600160a01b03821690635224372c90611934908a908c908b906004016125cb565b600060405180830381600087803b15801561194e57600080fd5b505af1158015611962573d6000803e3d6000fd5b505050505050505050505050565b6040516001600160a01b038381166024830152604482018390526119a191859182169063a9059cbb906064016112d4565b505050565b60006119bb6001600160a01b03841683611a12565b905080516000141580156119e05750808060200190518101906119de91906125ae565b155b156119a157604051635274afe760e01b81526001600160a01b03841660048201526024016102b0565b61139881611a29565b6060611a2083836000611a4a565b90505b92915050565b60006a636f6e736f6c652e6c6f679050600080835160208501845afa505050565b606081471015611a6f5760405163cd78605960e01b81523060048201526024016102b0565b600080856001600160a01b03168486604051611a8b9190612cc1565b60006040518083038185875af1925050503d8060008114611ac8576040519150601f19603f3d011682016040523d82523d6000602084013e611acd565b606091505b5091509150611add868383611ae9565b925050505b9392505050565b606082611afe57611af982611b45565b611ae2565b8151158015611b1557506001600160a01b0384163b155b15611b3e57604051639996b31560e01b81526001600160a01b03851660048201526024016102b0565b5080611ae2565b805115611b555780518082602001fd5b604051630a12f52160e11b815260040160405180910390fd5b60008083601f840112611b8057600080fd5b5081356001600160401b03811115611b9757600080fd5b602083019150836020828501011115611baf57600080fd5b9250929050565b6001600160a01b038116811461139857600080fd5b8035611bd681611bb6565b919050565b60ff8116811461139857600080fd5b60008060008060008060008060006101008a8c031215611c0957600080fd5b89356001600160401b03811115611c1f57600080fd5b611c2b8c828d01611b6e565b909a5098505060208a0135611c3f81611bb6565b965060408a0135611c4f81611bb6565b955060608a0135945060808a0135935060a08a0135611c6d81611bdb565b8093505060c08a0135915060e08a013590509295985092959850929598565b60008060008060608587031215611ca257600080fd5b8435611cad81611bb6565b93506020850135925060408501356001600160401b03811115611ccf57600080fd5b611cdb87828801611b6e565b95989497509550505050565b600081518084526020808501945080840160005b83811015611d205781516001600160a01b031687529582019590820190600101611cfb565b509495945050505050565b60005b83811015611d46578181015183820152602001611d2e565b50506000910152565b60008151808452611d67816020860160208601611d2b565b601f01601f19169290920160200192915050565b604081526000611d8e6040830185611ce7565b6020838203818501528185518084528284019150828160051b85010183880160005b83811015611dde57601f19878403018552611dcc838351611d4f565b94860194925090850190600101611db0565b50909998505050505050505050565b600080600080600060608688031215611e0557600080fd5b8535611e1081611bb6565b945060208601356001600160401b0380821115611e2c57600080fd5b818801915088601f830112611e4057600080fd5b813581811115611e4f57600080fd5b8960208260061b8501011115611e6457600080fd5b602083019650809550506040880135915080821115611e8257600080fd5b50611e8f88828901611b6e565b969995985093965092949392505050565b60008060008060608587031215611eb657600080fd5b8435611ec181611bb6565b935060208501356001600160401b03811115611edc57600080fd5b611ee887828801611b6e565b9094509250506040850135611efc81611bb6565b939692955090935050565b600081518084526020808501945080840160005b83811015611d2057815187529582019590820190600101611f1b565b600081518084526020808501945080840160005b83811015611d2057815160ff1687529582019590820190600101611f4b565b608081526000611f7d6080830187611ce7565b602083820381850152611f908288611f07565b915083820360408501528186518084528284019150828160051b85010183890160005b83811015611fe157601f19878403018552611fcf838351611d4f565b94860194925090850190600101611fb3565b50508681036060880152611ff58189611f37565b9b9a5050505050505050505050565b6000806000806060858703121561201a57600080fd5b84356001600160401b0381111561203057600080fd5b61203c87828801611b6e565b909550935050602085013561205081611bb6565b91506040850135611efc81611bb6565b60008060008060006080868803121561207857600080fd5b85356001600160401b0381111561208e57600080fd5b61209a88828901611b6e565b90965094505060208601356120ae81611bb6565b925060408601356120be81611bb6565b949793965091946060013592915050565b634e487b7160e01b600052604160045260246000fd5b604080519081016001600160401b0381118282101715612107576121076120cf565b60405290565b604051601f8201601f191681016001600160401b0381118282101715612135576121356120cf565b604052919050565b60006001600160401b03821115612156576121566120cf565b5060051b60200190565b600082601f83011261217157600080fd5b813560206121866121818361213d565b61210d565b82815260069290921b840181019181810190868411156121a557600080fd5b8286015b848110156121ed57604081890312156121c25760008081fd5b6121ca6120e5565b81356121d581611bb6565b815281850135858201528352918301916040016121a9565b509695505050505050565b60008060008060008060008060c0898b03121561221457600080fd5b883561221f81611bb6565b9750602089013561222f81611bb6565b96506040890135955060608901356001600160401b038082111561225257600080fd5b61225e8c838d01612160565b965060808b013591508082111561227457600080fd5b6122808c838d01611b6e565b909650945060a08b013591508082111561229957600080fd5b506122a68b828c01611b6e565b999c989b5096995094979396929594505050565b60006001600160401b038211156122d3576122d36120cf565b50601f01601f191660200190565b600082601f8301126122f257600080fd5b8135612300612181826122ba565b81815284602083860101111561231557600080fd5b816020850160208301376000918101602001919091529392505050565b60006020828403121561234457600080fd5b81356001600160401b0381111561235a57600080fd5b612366848285016122e1565b949350505050565b801515811461139857600080fd5b8035611bd68161236e565b60008060008060008060008060008060006101008c8e0312156123a957600080fd5b6123b28c611bcb565b9a506123c060208d01611bcb565b995060408c013598506123d560608d0161237c565b97506001600160401b038060808e013511156123f057600080fd5b6124008e60808f01358f01612160565b97508060a08e0135111561241357600080fd5b6124238e60a08f01358f01611b6e565b909750955060c08d013581101561243957600080fd5b6124498e60c08f01358f01611b6e565b909550935060e08d013581101561245f57600080fd5b506124708d60e08e01358e01611b6e565b81935080925050509295989b509295989b9093969950565b60008083601f84011261249a57600080fd5b5081356001600160401b038111156124b157600080fd5b6020830191508360208260051b8501011115611baf57600080fd5b6000806000806000806000806080898b0312156124e857600080fd5b88356001600160401b03808211156124ff57600080fd5b61250b8c838d01612488565b909a50985060208b013591508082111561252457600080fd5b6125308c838d01612488565b909850965060408b013591508082111561254957600080fd5b6125558c838d01612488565b909650945060608b013591508082111561229957600080fd5b8183823760009101908152919050565b602080825260169082015275141c9bdd1bd8dbdb081b9bdd081cdd5c1c1bdc9d195960521b604082015260600190565b6000602082840312156125c057600080fd5b8151611ae28161236e565b6001600160a01b039384168152919092166020820152604081019190915260600190565b600082601f83011261260057600080fd5b815160206126106121818361213d565b82815260059290921b8401810191818101908684111561262f57600080fd5b8286015b848110156121ed57805161264681611bb6565b8352918301918301612633565b6000612661612181846122ba565b905082815283838301111561267557600080fd5b611ae2836020830184611d2b565b600082601f83011261269457600080fd5b611a2083835160208501612653565b600080604083850312156126b657600080fd5b82516001600160401b03808211156126cd57600080fd5b6126d9868387016125ef565b93506020915081850151818111156126f057600080fd5b8501601f8101871361270157600080fd5b805161270f6121818261213d565b81815260059190911b8201840190848101908983111561272e57600080fd5b8584015b838110156127665780518681111561274a5760008081fd5b6127588c8983890101612683565b845250918601918601612732565b508096505050505050509250929050565b6020808252601b908201527f46726f6d2070726f746f636f6c206e6f7420737570706f727465640000000000604082015260600190565b6001600160a01b03848116825260406020808401829052838201859052600092869160608601855b888110156128055784356127e981611bb6565b84168252848301358383015293850193908501906001016127d6565b509998505050505050505050565b600082601f83011261282457600080fd5b815160206128346121818361213d565b82815260059290921b8401810191818101908684111561285357600080fd5b8286015b848110156121ed5780516001600160401b038111156128765760008081fd5b8701603f810189136128885760008081fd5b612899898683015160408401612653565b845250918301918301612857565b600082601f8301126128b857600080fd5b815160206128c86121818361213d565b82815260059290921b840181019181810190868411156128e757600080fd5b8286015b848110156121ed5780516128fe81611bdb565b83529183019183016128eb565b6000806000806080858703121561292157600080fd5b84516001600160401b038082111561293857600080fd5b612944888389016125ef565b955060209150818701518181111561295b57600080fd5b8701601f8101891361296c57600080fd5b805161297a6121818261213d565b81815260059190911b8201840190848101908b83111561299957600080fd5b928501925b828410156129b75783518252928501929085019061299e565b60408b01519098509450505050808211156129d157600080fd5b6129dd88838901612813565b935060608701519150808211156129f357600080fd5b50612a00878288016128a7565b91505092959194509250565b600060208284031215612a1e57600080fd5b5051919050565b81835281816020850137506000828201602090810191909152601f909101601f19169091010190565b600060c0820160018060a01b03808c1684526020818c168186015260408b8187015260c06060870152838b5180865260e088019150838d01955060005b81811015612ab2578651805187168452850151858401529584019591830191600101612a8b565b50508681036080880152612ac7818b8d612a25565b94505050505082810360a0840152611ff5818587612a25565b634e487b7160e01b600052603260045260246000fd5b6001600160a01b0385811682526080602080840182905286519184018290526000928782019290919060a0860190855b81811015612b44578551851683529483019491830191600101612b26565b50508581036040870152612b588189611f07565b93505050508281036060840152612b6f8185611d4f565b979650505050505050565b602081526000611a206020830184611d4f565b600060208284031215612b9f57600080fd5b81516001600160401b03811115612bb557600080fd5b61236684828501612683565b60008060008060008060c08789031215612bda57600080fd5b8635612be581611bb6565b95506020870135612bf581611bb6565b94506040870135935060608701356001600160401b0380821115612c1857600080fd5b612c248a838b01612160565b94506080890135915080821115612c3a57600080fd5b612c468a838b016122e1565b935060a0890135915080821115612c5c57600080fd5b50612c6989828a016122e1565b9150509295509295509295565b634e487b7160e01b600052601160045260246000fd5b80820180821115611a2357611a23612c76565b604081526000612cb26040830185611d4f565b90508260208301529392505050565b60008251612cd3818460208701611d2b565b9190910192915050565b600060208284031215612cef57600080fd5b8151611ae281611bb6565b600060018201612d0c57612d0c612c76565b506001019056fe42616c616e63657220563220666c617368206c6f616e2063616c6c6261636b207265636569766564466f7277617264696e672072657061792063616c6c20746f2074686520617070726f70726961746520676174657761795472616e7366657272696e6720746f6b656e732066726f6d207573657220746f207468697320636f6e747261637420666f722072657061796d656e7452657175657374696e672042616c616e63657220563320666c617368206c6f616e417070726f76696e67206761746577617920746f207370656e6420746f6b656e73466f7277617264696e67206465706f7369742063616c6c20746f2074686520617070726f707269617465206761746577617952657175657374696e672042616c616e63657220563220666c617368206c6f616e5472616e7366657272696e6720746f6b656e732066726f6d207573657220746f207468697320636f6e74726163744465706f736974696e6720636f6c6c61746572616c20696e746f2074686520746f2070726f746f636f6c42616c616e63657220563320666c617368206c6f616e2063616c6c6261636b207265636569766564417070726f76696e67206761746577617920746f207370656e6420746f6b656e7320666f722072657061796d656e74426f72726f77696e672064656274206f6e2074686520746f2070726f746f636f6ca264697066735822122071f82313b8402bba375772996a11cbe2c880130e5da03dd927f57388a3c1051c64736f6c63430008140033",
  "devdoc": {
    "errors": {
      "AddressEmptyCode(address)": [
        {
          "details": "There's no code at `target` (it is not a contract)."
        }
      ],
      "AddressInsufficientBalance(address)": [
        {
          "details": "The ETH balance of the account is not enough to perform the operation."
        }
      ],
      "FailedInnerCall()": [
        {
          "details": "A call to an address target failed. The target may have reverted."
        }
      ],
      "SafeERC20FailedOperation(address)": [
        {
          "details": "An operation with an ERC20 token failed."
        }
      ]
    },
    "kind": "dev",
    "methods": {},
    "version": 1
  },
  "userdoc": {
    "kind": "user",
    "methods": {},
    "version": 1
  },
  "storageLayout": {
    "storage": [
      {
        "astId": 688,
        "contract": "contracts/RouterGateway.sol:RouterGateway",
        "label": "gateways",
        "offset": 0,
        "slot": "0",
        "type": "t_mapping(t_string_memory_ptr,t_contract(IGateway)1922)"
      },
      {
        "astId": 691,
        "contract": "contracts/RouterGateway.sol:RouterGateway",
        "label": "balancerV3Vault",
        "offset": 0,
        "slot": "1",
        "type": "t_contract(IVault)1950"
      },
      {
        "astId": 694,
        "contract": "contracts/RouterGateway.sol:RouterGateway",
        "label": "balancerV2Vault",
        "offset": 0,
        "slot": "2",
        "type": "t_contract(IFlashLoanProvider)679"
      }
    ],
    "types": {
      "t_contract(IFlashLoanProvider)679": {
        "encoding": "inplace",
        "label": "contract IFlashLoanProvider",
        "numberOfBytes": "20"
      },
      "t_contract(IGateway)1922": {
        "encoding": "inplace",
        "label": "contract IGateway",
        "numberOfBytes": "20"
      },
      "t_contract(IVault)1950": {
        "encoding": "inplace",
        "label": "contract IVault",
        "numberOfBytes": "20"
      },
      "t_mapping(t_string_memory_ptr,t_contract(IGateway)1922)": {
        "encoding": "mapping",
        "key": "t_string_memory_ptr",
        "label": "mapping(string => contract IGateway)",
        "numberOfBytes": "32",
        "value": "t_contract(IGateway)1922"
      },
      "t_string_memory_ptr": {
        "encoding": "bytes",
        "label": "string",
        "numberOfBytes": "32"
      }
    }
  }
}