{
  "address": "0x66678D8b7f28CDcaa58E1818bBf0950fE1238308",
  "abi": [
    {
      "inputs": [
        {
          "internalType": "address",
          "name": "router",
          "type": "address"
        },
        {
          "internalType": "address",
          "name": "_poolAddressesProvider",
          "type": "address"
        },
        {
          "internalType": "uint16",
          "name": "_referralCode",
          "type": "uint16"
        }
      ],
      "stateMutability": "nonpayable",
      "type": "constructor"
    },
    {
      "inputs": [
        {
          "internalType": "address",
          "name": "target",
          "type": "address"
        }
      ],
      "name": "AddressEmptyCode",
      "type": "error"
    },
    {
      "inputs": [
        {
          "internalType": "address",
          "name": "account",
          "type": "address"
        }
      ],
      "name": "AddressInsufficientBalance",
      "type": "error"
    },
    {
      "inputs": [],
      "name": "FailedInnerCall",
      "type": "error"
    },
    {
      "inputs": [],
      "name": "ReentrancyGuardReentrantCall",
      "type": "error"
    },
    {
      "inputs": [
        {
          "internalType": "address",
          "name": "token",
          "type": "address"
        }
      ],
      "name": "SafeERC20FailedOperation",
      "type": "error"
    },
    {
      "inputs": [],
      "name": "REFERRAL_CODE",
      "outputs": [
        {
          "internalType": "uint16",
          "name": "",
          "type": "uint16"
        }
      ],
      "stateMutability": "view",
      "type": "function"
    },
    {
      "inputs": [],
      "name": "ROUTER",
      "outputs": [
        {
          "internalType": "address",
          "name": "",
          "type": "address"
        }
      ],
      "stateMutability": "view",
      "type": "function"
    },
    {
      "inputs": [
        {
          "components": [
            {
              "internalType": "enum ProtocolTypes.LendingOp",
              "name": "op",
              "type": "uint8"
            },
            {
              "internalType": "address",
              "name": "token",
              "type": "address"
            },
            {
              "internalType": "address",
              "name": "user",
              "type": "address"
            },
            {
              "internalType": "uint256",
              "name": "amount",
              "type": "uint256"
            },
            {
              "internalType": "bytes",
              "name": "context",
              "type": "bytes"
            },
            {
              "components": [
                {
                  "internalType": "uint256",
                  "name": "index",
                  "type": "uint256"
                }
              ],
              "internalType": "struct ProtocolTypes.InputPtr",
              "name": "input",
              "type": "tuple"
            }
          ],
          "internalType": "struct ProtocolTypes.LendingInstruction[]",
          "name": "instrs",
          "type": "tuple[]"
        },
        {
          "internalType": "address",
          "name": "caller",
          "type": "address"
        },
        {
          "components": [
            {
              "internalType": "address",
              "name": "token",
              "type": "address"
            },
            {
              "internalType": "uint256",
              "name": "amount",
              "type": "uint256"
            }
          ],
          "internalType": "struct ProtocolTypes.Output[]",
          "name": "inputs",
          "type": "tuple[]"
        }
      ],
      "name": "authorize",
      "outputs": [
        {
          "internalType": "address[]",
          "name": "targets",
          "type": "address[]"
        },
        {
          "internalType": "bytes[]",
          "name": "data",
          "type": "bytes[]"
        },
        {
          "components": [
            {
              "internalType": "address",
              "name": "token",
              "type": "address"
            },
            {
              "internalType": "uint256",
              "name": "amount",
              "type": "uint256"
            }
          ],
          "internalType": "struct ProtocolTypes.Output[]",
          "name": "produced",
          "type": "tuple[]"
        }
      ],
      "stateMutability": "view",
      "type": "function"
    },
    {
      "inputs": [
        {
          "components": [
            {
              "internalType": "enum ProtocolTypes.LendingOp",
              "name": "op",
              "type": "uint8"
            },
            {
              "internalType": "address",
              "name": "token",
              "type": "address"
            },
            {
              "internalType": "address",
              "name": "user",
              "type": "address"
            },
            {
              "internalType": "uint256",
              "name": "amount",
              "type": "uint256"
            },
            {
              "internalType": "bytes",
              "name": "context",
              "type": "bytes"
            },
            {
              "components": [
                {
                  "internalType": "uint256",
                  "name": "index",
                  "type": "uint256"
                }
              ],
              "internalType": "struct ProtocolTypes.InputPtr",
              "name": "input",
              "type": "tuple"
            }
          ],
          "internalType": "struct ProtocolTypes.LendingInstruction[]",
          "name": "instrs",
          "type": "tuple[]"
        },
        {
          "internalType": "address",
          "name": "",
          "type": "address"
        },
        {
          "components": [
            {
              "internalType": "address",
              "name": "token",
              "type": "address"
            },
            {
              "internalType": "uint256",
              "name": "amount",
              "type": "uint256"
            }
          ],
          "internalType": "struct ProtocolTypes.Output[]",
          "name": "inputs",
          "type": "tuple[]"
        }
      ],
      "name": "deauthorize",
      "outputs": [
        {
          "internalType": "address[]",
          "name": "targets",
          "type": "address[]"
        },
        {
          "internalType": "bytes[]",
          "name": "data",
          "type": "bytes[]"
        }
      ],
      "stateMutability": "view",
      "type": "function"
    },
    {
      "inputs": [
        {
          "internalType": "uint8",
          "name": "categoryId",
          "type": "uint8"
        }
      ],
      "name": "encodeSetEMode",
      "outputs": [
        {
          "internalType": "address",
          "name": "target",
          "type": "address"
        },
        {
          "internalType": "bytes",
          "name": "callData",
          "type": "bytes"
        }
      ],
      "stateMutability": "view",
      "type": "function"
    },
    {
      "inputs": [],
      "name": "getPool",
      "outputs": [
        {
          "internalType": "address",
          "name": "",
          "type": "address"
        }
      ],
      "stateMutability": "view",
      "type": "function"
    },
    {
      "inputs": [],
      "name": "poolAddressesProvider",
      "outputs": [
        {
          "internalType": "contract IPoolAddressesProvider",
          "name": "",
          "type": "address"
        }
      ],
      "stateMutability": "view",
      "type": "function"
    },
    {
      "inputs": [
        {
          "components": [
            {
              "internalType": "address",
              "name": "token",
              "type": "address"
            },
            {
              "internalType": "uint256",
              "name": "amount",
              "type": "uint256"
            }
          ],
          "internalType": "struct ProtocolTypes.Output[]",
          "name": "inputs",
          "type": "tuple[]"
        },
        {
          "internalType": "bytes",
          "name": "data",
          "type": "bytes"
        }
      ],
      "name": "processLendingInstruction",
      "outputs": [
        {
          "components": [
            {
              "internalType": "address",
              "name": "token",
              "type": "address"
            },
            {
              "internalType": "uint256",
              "name": "amount",
              "type": "uint256"
            }
          ],
          "internalType": "struct ProtocolTypes.Output[]",
          "name": "outputs",
          "type": "tuple[]"
        }
      ],
      "stateMutability": "nonpayable",
      "type": "function"
    }
  ],
  "transactionHash": "0x52cacafe928dee93479d569f780fe4769dafeef7d26c1fd8f298f85abc1d1e87",
  "args": [
    "0x8de0002B5AB689EDB53aed216846c5d070140Ae8",
    "0x89502c3731F69DDC95B65753708A07F8Cd0373F4",
    0
  ],
  "numDeployments": 13,
  "solcInputHash": "86e9b4950924f9ee73e2edbbeee31fc9",
  "bytecode": "0x60e03461013757601f612d3e38819003918201601f19168301916001600160401b0383118484101761013b57808492606094604052833981010312610137576100478161014f565b9060406100566020830161014f565b9101519161ffff83168303610137576001600160a01b038116156101075760805260015f556001600160a01b031660a05260c052604051612bda9081610164823960805181818160e5015261200a015260a0518181816103f3015281816109ee01528181610f2c015281816111ee015281816118ea01528181611e130152818161206d0152818161214b015281816126a601526127a8015260c051818181610501015281816110170152611fd10152f35b60405162461bcd60e51b81526020600482015260086024820152670726f757465723d360c41b6044820152606490fd5b5f80fd5b634e487b7160e01b5f52604160045260245ffd5b51906001600160a01b03821682036101375756fe6080806040526004361015610012575f80fd5b5f905f3560e01c908163026b1d5f14612129575080632e24a1881461203957806332fe7b2614611ff55780633583849a14611fb757806352ed58751461191957806380e17d87146118d5578063aad11a3f146117165763ae4be46d14610076575f80fd5b34610d7f576040366003190112610d7f576004356001600160401b038111610d7f576100a6903690600401612209565b6024356001600160401b038111610d7f5736602382011215610d7f5780600401356001600160401b038111610d7f5781016024810191368311610d7f577f00000000000000000000000000000000000000000000000000000000000000006001600160a01b031633036116da57602081830312610d7f5760248101356001600160401b038111610d7f5701908190039160c08312610d7f5760405160c081018181106001600160401b038211176116c6576040526024830135600a811015610d7f578152610176604484016121f5565b60208201908152610189606485016121f5565b926040830193845260608301956084860135875260a48601356001600160401b038111610d7f576024908701019180601f84011215610d7f5782356101cd8161259a565b916101db60405193846123b9565b81835260208286010111610d7f576020815f928280970183860137830101526080850152609f190112610d7f576040519360208501908582106001600160401b038311176116c65760c4916040520135845260a0820193845260018060a01b03905116935192815196600a88101561161a57815151965f806102cc6102eb6060809d819d61026c60405193846123b9565b602983527f41617665476174657761793a206f703d25732c20746f6b656e3d25732c20696e6020840152687075744964783d257360b81b60408401526040519485936327827ee360e11b60208601526080602486015260a48501906121d1565b9160448401528d6064840152608483015203601f1981018352826123b9565b6020815191016a636f6e736f6c652e6c6f675afa5084516040805190995f9283929161038c916001600160a01b03166103728e61032881876123b9565b601f86527f41617665476174657761793a20616d6f756e743d25732c20757365723d25730060208701525194859363038fd88960e31b6020860152602485015260848401906121d1565b908c6044840152606483015203601f1981018352826123b9565b6020815191016a636f6e736f6c652e6c6f675afa50825151818110611642575b505050508051600a81101561161a5715801561162e575b156106965750516001600160a01b0316918591906103df6129c0565b845163026b1d5f60e01b81526020816004817f00000000000000000000000000000000000000000000000000000000000000006001600160a01b03165afa90811561068c578491610652575b506001600160a01b038116916104428315156128e3565b6001600160a01b031690610458843033856129de565b865163095ea7b360e01b815283600482015285602482015260208160448189875af18015610648576104bf92602092879261062d575b50895163095ea7b360e01b81526001600160a01b039091166004820152602481019190915291829081906044820190565b038188865af18015610623576105f6575b50813b156105f257836084928751968795869463617ba03760e01b865260048601526024850152604484015261ffff7f00000000000000000000000000000000000000000000000000000000000000001660648401525af180156105e8576105cf575b5060016105cb93556105b96105466124c4565b925b83519064747075747360d81b8451916105626080846123b9565b604583527f41617665476174657761793a2070726f636573734c656e64696e67496e73747260208401527f756374696f6e20636f6d706c6574652c2072657475726e696e67202573206f758684015282015261297d565b51918291602083526020830190612356565b0390f35b6105da8480926123b9565b6105e4575f610533565b8280fd5b82513d86823e3d90fd5b8380fd5b6106179060203d60201161061c575b61060f81836123b9565b81019061291e565b6104d0565b503d610605565b87513d87823e3d90fd5b61064390843d861161061c5761060f81836123b9565b61048e565b88513d88823e3d90fd5b90506020813d602011610684575b8161066d602093836123b9565b810103126105f25761067e906123da565b5f61042b565b3d9150610660565b86513d86823e3d90fd5b80969593929651600a81101561161a57600203610eed575061070884516106bd85826123b9565b603481527f41617665476174657761793a2063616c6c696e6720776974686472617720666f6020820152731c8815da5d1a191c985dd0dbdb1b185d195c985b60621b86820152612950565b516001600160a01b03169461071b6129c0565b8084519661072985896123b9565b603f88527f41617665476174657761793a2077697468647261772063616c6c65642c20756e60208901527f6465726c79696e673d25732c20757365723d25732c20616d6f756e743d257300868901525f8061079e88519a638ef3f39960e01b60208d0152608060248d015260a48c01906121d1565b996107cd8160018060a01b0389169c8d604483015286606483015287608483015203601f1981018352826123b9565b6020815191016a636f6e736f6c652e6c6f675afa506107eb84612792565b6108238188516107fb8a826123b9565b601681527541617665476174657761793a2061546f6b656e3d257360501b6020820152612a65565b6001600160a01b0316918215610eb65786516370a0823160e01b815260048101839052602081602481875afa908115610eac578991610e7a575b5080916108aa828a516108708b826123b9565b602381527f41617665476174657761793a20757365722061546f6b656e2062616c616e63656020820152623d257360e81b8c82015261297d565b11610e72575b506108fd8387516108c188826123b9565b602581527f41617665476174657761793a2066696e616c20776974686472617720616d6f756020820152646e743d257360d81b8982015261297d565b8551636eb1769f60e11b81526001600160a01b0382166004820152306024820152602081604481865afa908115610e68579084918991610e33575b506109788189516109498b826123b9565b602081527f41617665476174657761793a2061546f6b656e20616c6c6f77616e63653d2573602082015261297d565b10610dfb5761098a91839130916129de565b6109da845161099985826123b9565b602a81527f41617665476174657761793a207472616e736665727265642061546f6b656e20602082015269746f206761746577617960b01b86820152612950565b835163026b1d5f60e01b81526020816004817f00000000000000000000000000000000000000000000000000000000000000006001600160a01b03165afa908115610df157918588928895948691610d95575b50915f80610b10610b2f60649560209897610a73818351610a4e85826123b9565b601481527341617665476174657761793a20706f6f6c3d257360601b8d820152612a65565b6001600160a01b031697610a888915156128e3565b7f617728756e6465726c79696e673d25732c20616d6f756e743d25732c20746f3d825192610ab76080856123b9565b604384527f41617665476174657761793a2063616c6c696e6720706f6f6c2e7769746864728c8501528301526225732960e81b8d8301528d516363fb8bc560e01b818c01526080602482015293849260a48401906121d1565b906044830152868883015230608483015203601f1981018352826123b9565b86815191016a636f6e736f6c652e6c6f675afa5087519889938492631a4ca37b60e21b84528c600485015260248401523060448401525af1948515610d8b578295610d4b575b50906105cb95610cb2866105b99594610bdb828951610b9489826123b9565b603081527f41617665476174657761793a20706f6f6c2e776974686472617720726574757260208201526f6e656420616d6f756e744f75743d257360801b8b82015261297d565b610be6823386612a29565b610c5982828a51610bf86080826123b9565b604581527f41617665476174657761793a20776974686472617720636f6d706c6574652c2060208201527f72657475726e696e6720756e6465726c79696e673d25732c20616d6f756e744f8c8201526475743d257360d81b8a820152612879565b600185558751610c6987826123b9565b603281527f41617665476174657761793a2077697468647261772072657475726e656420746020820152716f6b656e3d25732c20616d6f756e743d257360701b89820152612879565b610cba612509565b95855191610cc78361239e565b82526020820152610cd786612579565b52610ce185612579565b5050610d468351610cf283826123b9565b603a81527f41617665476174657761793a205769746864726177436f6c6c61746572616c2060208201527f636f6d706c6574652c2072657475726e696e67206f757470757400000000000085820152612950565b610548565b92919094506020833d602011610d83575b81610d69602093836123b9565b81010312610d7f579151939091906105cb610b75565b5f80fd5b3d9150610d5c565b84513d84823e3d90fd5b935050509192506020813d602011610de9575b81610db5602093836123b9565b81010312610de5578660648794935f80610b10610b2f8b610dd76020996123da565b959798509550505050610a2d565b8580fd5b3d9150610da8565b85513d88823e3d90fd5b855162461bcd60e51b815260206004820152601160248201527061546f6b656e3a20616c6c6f77616e636560781b6044820152606490fd5b9150506020813d602011610e60575b81610e4f602093836123b9565b81010312610d7f578390515f610938565b3d9150610e42565b87513d8a823e3d90fd5b92505f6108b0565b90506020813d602011610ea4575b81610e95602093836123b9565b81010312610d7f57515f61085d565b3d9150610e88565b88513d8b823e3d90fd5b865162461bcd60e51b815260206004820152601060248201526f18551bdad95b881b9bdd08199bdd5b9960821b6044820152606490fd5b80969593949651600a81101561161a576003036111ac5750516001600160a01b031691610f186129c0565b855163026b1d5f60e01b81526020816004817f00000000000000000000000000000000000000000000000000000000000000006001600160a01b03165afa9081156111a2575f91611168575b506001600160a01b031691610f7a8315156128e3565b610f8381612690565b6001600160a01b03169150508015611132578751631af5db4960e21b81526001600160a01b038616600482015230602482015290602090829060449082905afa80156111285787915f916110f3575b50106110bc57823b15610d7f575f9260a484928951958693849263a415bcad60e01b845260018060a01b0316988960048501528b60248501526002604485015261ffff7f000000000000000000000000000000000000000000000000000000000000000016606485015260848401525af180156110b257916105b993916105cb97959361109f575b60019150611069873385612a29565b55611072612509565b9484519161107f8361239e565b8252602082015261108f85612579565b5261109984612579565b50610548565b505f6110aa916123b9565b60015f61105a565b86513d5f823e3d90fd5b865162461bcd60e51b815260206004820152601060248201526f626f72726f7720616c6c6f77616e636560801b6044820152606490fd5b9150506020813d602011611120575b8161110f602093836123b9565b81010312610d7f578690515f610fd2565b3d9150611102565b88513d5f823e3d90fd5b875162461bcd60e51b815260206004820152600f60248201526e1d9119589d081b9bdd08199bdd5b99608a1b6044820152606490fd5b90506020813d60201161119a575b81611183602093836123b9565b81010312610d7f57611194906123da565b5f610f64565b3d9150611176565b87513d5f823e3d90fd5b809192959694935051600a81101561161a5760040361152b5750516001600160a01b0316926111d96129c0565b825163026b1d5f60e01b8152906020826004817f00000000000000000000000000000000000000000000000000000000000000006001600160a01b03165afa91821561147b575f926114ef575b506001600160a01b0382169061123d8215156128e3565b84516370a0823160e01b81523060048201526001600160a01b03919091169590926020846024818a5afa9384156110b2575f946114bb575b506112828830338a6129de565b855163095ea7b360e01b81528360048201525f60248201526020816044815f8c5af180156111a2576112e9926020928b926114a0575b50885163095ea7b360e01b81526001600160a01b039091166004820152602481019190915291829081906044820190565b03815f8b5af180156110b2576020925f959492608492611485575b508751958693849263573ade8160e01b84528b60048501528c60248501526002604485015260648401525af191821561147b575f92611447575b5083516370a0823160e01b815230600482015290602082602481895afa91821561143d575f92611403575b5091866105cb97926105b99594831515806113f9575b156113c6575050505b808211156113bd5761139991612943565b935b846113ad575b60015f55611072612509565b6113b8853383612a29565b6113a1565b50505f9361139b565b908293506113d5819383612936565b11156113f2576113ed926113e891612936565b612943565b611388565b5050611388565b508284111561137f565b96915092916020873d602011611435575b81611421602093836123b9565b81010312610d7f5795519095919286611369565b3d9150611414565b85513d5f823e3d90fd5b9091506020813d602011611473575b81611463602093836123b9565b81010312610d7f5751905f61133e565b3d9150611456565b84513d5f823e3d90fd5b61149b90853d871161061c5761060f81836123b9565b611304565b6114b690843d861161061c5761060f81836123b9565b6112b8565b9093506020813d6020116114e7575b816114d7602093836123b9565b81010312610d7f5751925f611275565b3d91506114ca565b9091506020813d602011611523575b8161150b602093836123b9565b81010312610d7f5761151c906123da565b905f611226565b3d91506114fe565b80919293955051600a81101561161a5760050361158f5750516105cb93916105b991611560906001600160a01b03168561263f565b93611569612509565b948451916115768361239e565b6001600160a01b03168252602082015261108f85612579565b8051600a81101561161a576006036115bf5750516105cb93916105b991611560906001600160a01b0316856125b5565b9192505051600a81101561161a576009036115e9576105cb916105b96115e36124c4565b92610548565b815162461bcd60e51b815260206004820152600a6024820152690556e6b6e6f776e206f760b41b6044820152606490fd5b634e487b7160e01b5f52602160045260245ffd5b508051600a81101561161a576001146103c3565b611669939750602094965061165b611660918385612569565b612555565b96515191612569565b0135916116bd8385875161167d8a826123b9565b602981527f41617665476174657761793a207265736f6c76656420746f6b656e3d25732c20602082015268616d6f756e743d257360b81b89820152612879565b5f8080806103ac565b634e487b7160e01b5f52604160045260245ffd5b60405162461bcd60e51b815260206004820152601460248201527313db9b1e481c9bdd5d195c8818d85b8818d85b1b60621b6044820152606490fd5b34610d7f5761172436612239565b9150919261173184612405565b9261173b85612437565b945f5b81811061176f57611761866105cb896040519384936040855260408501906122c2565b9083820360208501526122fe565b61177a818386612480565b9061178760208301612555565b9160a08101358781106118bd575b503591600a831015610d7f576001926002810361181257506117b690612792565b6117c08289612586565b90838060a01b0316905260405163095ea7b360e01b60208201523060248201525f6044820152604481526117f56064826123b9565b6117ff828a612586565b5261180a8189612586565b505b0161173e565b60030361188a5761182290612690565b915050828060a01b031680611838575b5061180c565b6118428289612586565b52604051630c04a8a160e41b60208201523060248201525f60448201526044815261186e6064826123b9565b611878828a612586565b526118838189612586565b5088611832565b505f6118968289612586565b526040516118a56020826123b9565b5f81526118b2828a612586565b526118328189612586565b6118ce91935061165b908887612569565b9189611795565b34610d7f575f366003190112610d7f576040517f00000000000000000000000000000000000000000000000000000000000000006001600160a01b03168152602090f35b34610d7f5761192736612239565b929361193585939293612405565b9361193f86612437565b925f945f5b888110611f1d5750611955866123ee565b9561196360405197886123b9565b808752611972601f19916123ee565b015f5b818110611efa5750505f975f5b8181106119c5576119a9896105cb8a6119b78b6040519586956060875260608701906122c2565b9085820360208701526122fe565b908382036040850152612356565b6119d0818388612480565b6119dc60208201612555565b9a60608201359160a0810135888110611ed2575b508035600a811015610d7f5760028103611ba0575060209c9190506001600160a01b03611a1c83612792565b604051636eb1769f60e11b81526001600160a01b038a1660048201523060248201529e911692908e604481865afa9d8e15611b95575f9e611b5a575b50928c92611a9e83611a988f9589989660019a9760405190611a798261239e565b8c8060a01b03168152876020820152611a928383612586565b52612586565b506124b6565b9e828015159182611b4f575b505015611aed575050611abe905f92612586565b52604051611acd6020826123b9565b5f8152611ada828a612586565b52611ae58189612586565b505b01611982565b611afd611b3493611b2695612586565b5260405163095ea7b360e01b602082015230602482015260448101919091529182906064820190565b03601f1981018352826123b9565b611b3e828a612586565b52611b498189612586565b50611ae7565b10159050825f611aaa565b919493909d506020823d8211611b8d575b81611b78602093836123b9565b81010312610d7f5790519c9293909284611a58565b3d9150611b6b565b6040513d5f823e3d90fd5b92939260038103611cfb575050611bf290611bba8d612690565b9e91505060405190611bcb8261239e565b6001600160a01b0316815260208101859052611be7828d612586565b52611a98818c612586565b9a6001600160a01b031680611c2d5750600191505f611c11828c612586565b52604051611c206020826123b9565b5f8152611b3e828a612586565b604051631af5db4960e21b81526001600160a01b038716600482015230602482015292602084604481855afa938415611b95575f94611cc8575b508060019410159081611cbe575b5015611c8757505f611c11828c612586565b611c91828c612586565b52604051630c04a8a160e41b60208201523060248201525f19604482015260448152611b346064826123b9565b905015158d611c75565b93506020843d8211611cf3575b81611ce2602093836123b9565b81010312610d7f5792519280611c67565b3d9150611cd5565b929c93919290919060058103611d93575050611d1c6040611d229201612555565b8361263f565b906103e98202918083046103e91490151715611d7f576001926103e8611d739360405192611d4f8461239e565b868060a01b03168352046020820152611d68828c612586565b52611a98818b612586565b995f611c11828c612586565b634e487b7160e01b5f52601160045260245ffd5b60068103611db2575050611dac6040611d229201612555565b836125b5565b92939290915060048103611def575050600191611d739160405190611dd68261239e565b848060a01b031681525f6020820152611d68828c612586565b600991939c9250145f14611ec35760405163026b1d5f60e01b8152916020836004817f00000000000000000000000000000000000000000000000000000000000000006001600160a01b03165afa8015611b95575f90611e8a575b60019350611e58838d612586565b90848060a01b0316905260ff604051916328530a4760e01b602084015216602482015260248152611b346044826123b9565b506020833d8211611ebb575b81611ea3602093836123b9565b81010312610d7f57611eb66001936123da565b611e4a565b3d9150611e96565b600191505f611c11828c612586565b9c5091506020611ef1611ee961165b8f8b8a612569565b9d8988612569565b0135918d6119f0565b602090604051611f098161239e565b5f81525f8382015282828b01015201611975565b611f28818a87612480565b35600a811015610d7f5760028114905f8215611faa575b8215611f99575b8215611f88575b8215611f77575b5050611f63575b600101611944565b95611f6f6001916124b6565b969050611f5b565b90915061161a576004148a80611f54565b80925061161a576006811491611f4d565b80925061161a576005811491611f46565b506003811491505f611f3f565b34610d7f575f366003190112610d7f57602060405161ffff7f0000000000000000000000000000000000000000000000000000000000000000168152f35b34610d7f575f366003190112610d7f576040517f00000000000000000000000000000000000000000000000000000000000000006001600160a01b03168152602090f35b34610d7f576020366003190112610d7f5760043560ff8116809103610d7f5760405163026b1d5f60e01b81526020816004817f00000000000000000000000000000000000000000000000000000000000000006001600160a01b03165afa908115611b95575f916120ef575b50604051916328530a4760e01b60208401526024830152602482526120cb6044836123b9565b6105cb60405192839260018060a01b031683526040602084015260408301906121d1565b90506020813d602011612121575b8161210a602093836123b9565b81010312610d7f5761211b906123da565b826120a5565b3d91506120fd565b34610d7f575f366003190112610d7f5763026b1d5f60e01b81526020816004817f00000000000000000000000000000000000000000000000000000000000000006001600160a01b03165afa8015611b95575f90612197575b6040516001600160a01b039091168152602090f35b506020813d6020116121c9575b816121b1602093836123b9565b81010312610d7f576121c46020916123da565b612182565b3d91506121a4565b805180835260209291819084018484015e5f828201840152601f01601f1916010190565b35906001600160a01b0382168203610d7f57565b9181601f84011215610d7f578235916001600160401b038311610d7f576020808501948460061b010111610d7f57565b906060600319830112610d7f57600435916001600160401b038311610d7f5780602384011215610d7f578260040135926001600160401b038411610d7f578160248560051b83010111610d7f576024908101939290356001600160a01b0381168103610d7f5791604435906001600160401b038211610d7f576122be91600401612209565b9091565b90602080835192838152019201905f5b8181106122df5750505090565b82516001600160a01b03168452602093840193909201916001016122d2565b9080602083519182815201916020808360051b8301019401925f915b83831061232957505050505090565b9091929394602080612347600193601f1986820301875289516121d1565b9701930193019193929061231a565b90602080835192838152019201905f5b8181106123735750505090565b825180516001600160a01b031685526020908101518186015260409094019390920191600101612366565b604081019081106001600160401b038211176116c657604052565b90601f801991011681019081106001600160401b038211176116c657604052565b51906001600160a01b0382168203610d7f57565b6001600160401b0381116116c65760051b60200190565b9061240f826123ee565b61241c60405191826123b9565b828152809261242d601f19916123ee565b0190602036910137565b90612441826123ee565b61244e60405191826123b9565b828152809261245f601f19916123ee565b01905f5b82811061246f57505050565b806060602080938501015201612463565b91908110156124a25760051b8101359060be1981360301821215610d7f570190565b634e487b7160e01b5f52603260045260245ffd5b5f198114611d7f5760010190565b604051906124d36020836123b9565b5f80835282815b8281106124e657505050565b6020906040516124f58161239e565b5f81525f83820152828285010152016124da565b6040805190919061251a83826123b9565b6001815291601f1901825f5b82811061253257505050565b6020906040516125418161239e565b5f81525f8382015282828501015201612526565b356001600160a01b0381168103610d7f5790565b91908110156124a25760061b0190565b8051156124a25760200190565b80518210156124a25760209160051b010190565b6001600160401b0381116116c657601f01601f191660200190565b6125be90612690565b50506001600160a01b031690816125d55750505f90565b6040516370a0823160e01b81526001600160a01b03909116600482015290602090829060249082905afa908115611b95575f91612610575090565b90506020813d602011612637575b8161262b602093836123b9565b81010312610d7f575190565b3d915061261e565b61264890612690565b6001600160a01b031692915050816125d55750505f90565b90816060910312610d7f57612674816123da565b9161268d6040612686602085016123da565b93016123da565b90565b60405163e860accb60e01b8152906020826004817f00000000000000000000000000000000000000000000000000000000000000006001600160a01b03165afa918215611b95575f92612754575b506040516334924edb60e21b81526001600160a01b0391821660048201529160609183916024918391165afa908115611b95575f915f915f91612722575b50909192565b915050612747915060603d60601161274d575b61273f81836123b9565b810190612660565b5f61271c565b503d612735565b9091506020813d60201161278a575b81612770602093836123b9565b81010312610d7f576127836060916123da565b91906126de565b3d9150612763565b60405163e860accb60e01b8152906020826004817f00000000000000000000000000000000000000000000000000000000000000006001600160a01b03165afa918215611b95575f9261283b575b506040516334924edb60e21b81526001600160a01b0391821660048201529160609183916024918391165afa908115611b95575f9161281d575090565b612836915060603d60601161274d5761273f81836123b9565b505090565b9091506020813d602011612871575b81612857602093836123b9565b81010312610d7f5761286a6060916123da565b91906127e0565b3d915061284a565b6128cc6128a9915f94938594604051948593630d26b92560e01b60208601526060602486015260848501906121d1565b6001600160a01b039092166044840152606483015203601f1981018352826123b9565b6020815191016a636f6e736f6c652e6c6f675afa50565b156128ea57565b60405162461bcd60e51b815260206004820152600c60248201526b141bdbdb081b9bdd081cd95d60a21b6044820152606490fd5b90816020910312610d7f57518015158103610d7f5790565b91908201809211611d7f57565b91908203918211611d7f57565b5f611b266128cc829360405192839163104c13eb60e21b60208401526020602484015260448301906121d1565b6129ac6128cc5f93928493604051938492632d839cb360e21b60208501526040602485015260648401906121d1565b90604483015203601f1981018352826123b9565b60025f54146129cf5760025f55565b633ee5aeb560e01b5f5260045ffd5b6040516323b872dd60e01b60208201526001600160a01b039283166024820152929091166044830152606480830193909352918152612a2791612a226084836123b9565b612ab3565b565b60405163a9059cbb60e01b60208201526001600160a01b03929092166024830152604480830193909352918152612a2791612a226064836123b9565b612a946128cc5f9392849360405193849263319af33360e01b60208501526040602485015260648401906121d1565b6001600160a01b0391909116604483015203601f1981018352826123b9565b5f80612afb9260018060a01b03169360208151910182865af13d15612b3e573d90612add8261259a565b91612aeb60405193846123b9565b82523d5f602084013e5b83612b46565b8051908115159182612b23575b5050612b115750565b635274afe760e01b5f5260045260245ffd5b612b36925060208091830101910161291e565b155f80612b08565b606090612af5565b90612b6a5750805115612b5b57805190602001fd5b630a12f52160e11b5f5260045ffd5b81511580612b9b575b612b7b575090565b639996b31560e01b5f9081526001600160a01b0391909116600452602490fd5b50803b15612b7356fea2646970667358221220d76b906eba021a11ea94984619d4e7da3fba55280d4cc07d42c56cf79fa2ed5864736f6c634300081e0033",
  "devdoc": {
    "errors": {
      "AddressEmptyCode(address)": [
        {
          "details": "There's no code at `target` (it is not a contract)."
        }
      ],
      "AddressInsufficientBalance(address)": [
        {
          "details": "The ETH balance of the account is not enough to perform the operation."
        }
      ],
      "FailedInnerCall()": [
        {
          "details": "A call to an address target failed. The target may have reverted."
        }
      ],
      "ReentrancyGuardReentrantCall()": [
        {
          "details": "Unauthorized reentrant call."
        }
      ],
      "SafeERC20FailedOperation(address)": [
        {
          "details": "An operation with an ERC20 token failed."
        }
      ]
    },
    "kind": "dev",
    "methods": {
      "encodeSetEMode(uint8)": {
        "params": {
          "categoryId": "The E-Mode category ID (0 = disable E-Mode)"
        },
        "returns": {
          "callData": "The encoded function call",
          "target": "The Aave Pool address"
        }
      }
    },
    "version": 1
  },
  "userdoc": {
    "kind": "user",
    "methods": {
      "ROUTER()": {
        "notice": "Immutable router address that can call protected functions"
      },
      "authorize((uint8,address,address,uint256,bytes,(uint256))[],address,(address,uint256)[])": {
        "notice": "Return user-side authorization calls for the given lending instructions.         One element per input (or (address(0), bytes(\"\")) if none needed).         Also returns the produced outputs from the simulation of these instructions."
      },
      "encodeSetEMode(uint8)": {
        "notice": "Helper to encode setUserEMode calldata"
      },
      "getPool()": {
        "notice": "Returns the Aave Pool address for direct calls (e.g., setUserEMode)"
      }
    },
    "version": 1
  },
  "storageLayout": {
    "storage": [
      {
        "astId": 3093,
        "contract": "contracts/v2/gateways/aave/AaveGatewayWrite.sol:AaveGatewayWrite",
        "label": "_status",
        "offset": 0,
        "slot": "0",
        "type": "t_uint256"
      }
    ],
    "types": {
      "t_uint256": {
        "encoding": "inplace",
        "label": "uint256",
        "numberOfBytes": "32"
      }
    }
  }
}