{
  "address": "0xF2f8449c0A1Ce87727688F40d4738a1d0a1b8881",
  "abi": [
    {
      "inputs": [
        {
          "internalType": "address",
          "name": "router",
          "type": "address"
        },
        {
          "internalType": "address",
          "name": "_poolAddressesProvider",
          "type": "address"
        },
        {
          "internalType": "uint16",
          "name": "_referralCode",
          "type": "uint16"
        }
      ],
      "stateMutability": "nonpayable",
      "type": "constructor"
    },
    {
      "inputs": [
        {
          "internalType": "address",
          "name": "target",
          "type": "address"
        }
      ],
      "name": "AddressEmptyCode",
      "type": "error"
    },
    {
      "inputs": [
        {
          "internalType": "address",
          "name": "account",
          "type": "address"
        }
      ],
      "name": "AddressInsufficientBalance",
      "type": "error"
    },
    {
      "inputs": [],
      "name": "FailedInnerCall",
      "type": "error"
    },
    {
      "inputs": [],
      "name": "ReentrancyGuardReentrantCall",
      "type": "error"
    },
    {
      "inputs": [
        {
          "internalType": "address",
          "name": "token",
          "type": "address"
        }
      ],
      "name": "SafeERC20FailedOperation",
      "type": "error"
    },
    {
      "inputs": [],
      "name": "REFERRAL_CODE",
      "outputs": [
        {
          "internalType": "uint16",
          "name": "",
          "type": "uint16"
        }
      ],
      "stateMutability": "view",
      "type": "function"
    },
    {
      "inputs": [],
      "name": "ROUTER",
      "outputs": [
        {
          "internalType": "address",
          "name": "",
          "type": "address"
        }
      ],
      "stateMutability": "view",
      "type": "function"
    },
    {
      "inputs": [
        {
          "components": [
            {
              "internalType": "enum ProtocolTypes.LendingOp",
              "name": "op",
              "type": "uint8"
            },
            {
              "internalType": "address",
              "name": "token",
              "type": "address"
            },
            {
              "internalType": "address",
              "name": "user",
              "type": "address"
            },
            {
              "internalType": "uint256",
              "name": "amount",
              "type": "uint256"
            },
            {
              "internalType": "bytes",
              "name": "context",
              "type": "bytes"
            },
            {
              "components": [
                {
                  "internalType": "uint256",
                  "name": "index",
                  "type": "uint256"
                }
              ],
              "internalType": "struct ProtocolTypes.InputPtr",
              "name": "input",
              "type": "tuple"
            }
          ],
          "internalType": "struct ProtocolTypes.LendingInstruction[]",
          "name": "instrs",
          "type": "tuple[]"
        },
        {
          "internalType": "address",
          "name": "caller",
          "type": "address"
        },
        {
          "components": [
            {
              "internalType": "address",
              "name": "token",
              "type": "address"
            },
            {
              "internalType": "uint256",
              "name": "amount",
              "type": "uint256"
            }
          ],
          "internalType": "struct ProtocolTypes.Output[]",
          "name": "inputs",
          "type": "tuple[]"
        }
      ],
      "name": "authorize",
      "outputs": [
        {
          "internalType": "address[]",
          "name": "targets",
          "type": "address[]"
        },
        {
          "internalType": "bytes[]",
          "name": "data",
          "type": "bytes[]"
        },
        {
          "components": [
            {
              "internalType": "address",
              "name": "token",
              "type": "address"
            },
            {
              "internalType": "uint256",
              "name": "amount",
              "type": "uint256"
            }
          ],
          "internalType": "struct ProtocolTypes.Output[]",
          "name": "produced",
          "type": "tuple[]"
        }
      ],
      "stateMutability": "view",
      "type": "function"
    },
    {
      "inputs": [
        {
          "internalType": "address",
          "name": "token",
          "type": "address"
        },
        {
          "internalType": "address",
          "name": "user",
          "type": "address"
        },
        {
          "internalType": "uint256",
          "name": "amount",
          "type": "uint256"
        }
      ],
      "name": "borrow",
      "outputs": [],
      "stateMutability": "nonpayable",
      "type": "function"
    },
    {
      "inputs": [
        {
          "components": [
            {
              "internalType": "enum ProtocolTypes.LendingOp",
              "name": "op",
              "type": "uint8"
            },
            {
              "internalType": "address",
              "name": "token",
              "type": "address"
            },
            {
              "internalType": "address",
              "name": "user",
              "type": "address"
            },
            {
              "internalType": "uint256",
              "name": "amount",
              "type": "uint256"
            },
            {
              "internalType": "bytes",
              "name": "context",
              "type": "bytes"
            },
            {
              "components": [
                {
                  "internalType": "uint256",
                  "name": "index",
                  "type": "uint256"
                }
              ],
              "internalType": "struct ProtocolTypes.InputPtr",
              "name": "input",
              "type": "tuple"
            }
          ],
          "internalType": "struct ProtocolTypes.LendingInstruction[]",
          "name": "instrs",
          "type": "tuple[]"
        },
        {
          "internalType": "address",
          "name": "",
          "type": "address"
        },
        {
          "components": [
            {
              "internalType": "address",
              "name": "token",
              "type": "address"
            },
            {
              "internalType": "uint256",
              "name": "amount",
              "type": "uint256"
            }
          ],
          "internalType": "struct ProtocolTypes.Output[]",
          "name": "inputs",
          "type": "tuple[]"
        }
      ],
      "name": "deauthorize",
      "outputs": [
        {
          "internalType": "address[]",
          "name": "targets",
          "type": "address[]"
        },
        {
          "internalType": "bytes[]",
          "name": "data",
          "type": "bytes[]"
        }
      ],
      "stateMutability": "view",
      "type": "function"
    },
    {
      "inputs": [
        {
          "internalType": "address",
          "name": "token",
          "type": "address"
        },
        {
          "internalType": "address",
          "name": "onBehalfOf",
          "type": "address"
        },
        {
          "internalType": "uint256",
          "name": "amount",
          "type": "uint256"
        }
      ],
      "name": "deposit",
      "outputs": [],
      "stateMutability": "nonpayable",
      "type": "function"
    },
    {
      "inputs": [],
      "name": "poolAddressesProvider",
      "outputs": [
        {
          "internalType": "contract IPoolAddressesProvider",
          "name": "",
          "type": "address"
        }
      ],
      "stateMutability": "view",
      "type": "function"
    },
    {
      "inputs": [
        {
          "components": [
            {
              "internalType": "address",
              "name": "token",
              "type": "address"
            },
            {
              "internalType": "uint256",
              "name": "amount",
              "type": "uint256"
            }
          ],
          "internalType": "struct ProtocolTypes.Output[]",
          "name": "inputs",
          "type": "tuple[]"
        },
        {
          "internalType": "bytes",
          "name": "data",
          "type": "bytes"
        }
      ],
      "name": "processLendingInstruction",
      "outputs": [
        {
          "components": [
            {
              "internalType": "address",
              "name": "token",
              "type": "address"
            },
            {
              "internalType": "uint256",
              "name": "amount",
              "type": "uint256"
            }
          ],
          "internalType": "struct ProtocolTypes.Output[]",
          "name": "outputs",
          "type": "tuple[]"
        }
      ],
      "stateMutability": "nonpayable",
      "type": "function"
    },
    {
      "inputs": [
        {
          "internalType": "address",
          "name": "token",
          "type": "address"
        },
        {
          "internalType": "address",
          "name": "user",
          "type": "address"
        },
        {
          "internalType": "uint256",
          "name": "amount",
          "type": "uint256"
        }
      ],
      "name": "repay",
      "outputs": [
        {
          "internalType": "uint256",
          "name": "refund",
          "type": "uint256"
        }
      ],
      "stateMutability": "nonpayable",
      "type": "function"
    },
    {
      "inputs": [
        {
          "internalType": "address",
          "name": "underlying",
          "type": "address"
        },
        {
          "internalType": "address",
          "name": "user",
          "type": "address"
        },
        {
          "internalType": "uint256",
          "name": "amount",
          "type": "uint256"
        }
      ],
      "name": "withdraw",
      "outputs": [
        {
          "internalType": "address",
          "name": "",
          "type": "address"
        },
        {
          "internalType": "uint256",
          "name": "",
          "type": "uint256"
        }
      ],
      "stateMutability": "nonpayable",
      "type": "function"
    }
  ],
  "transactionHash": "0x5b47f99c2463cb1ca44c85a24eb2c3bcd6d6d9f3e6dff08d7a6ed9184964b23b",
  "args": [
    "0x595e0BD4403c8836051208276Efe6dB315cfb312",
    "0x89502c3731F69DDC95B65753708A07F8Cd0373F4",
    0
  ],
  "numDeployments": 7,
  "solcInputHash": "5e1cf7335f02f1286816feb528a58a7d",
  "bytecode": "0x60e03461016f57601f61389738819003918201601f19168301916001600160401b038311848410176101735780849260609460405283398101031261016f5761004781610187565b90604061005660208301610187565b9101519161ffff8316830361016f576001600160a01b0381161561013f5760805260015f556001600160a01b031660a05260c0526040516136fb908161019c8239608051818181609d01528181610b1101528181610ec1015281816115df01528181611cfd01528181612585015281816128c10152612b63015260a0518181816103be01528181610b55015281816110f60152818161162901528181611d4901528181611f69015281816125d701528181612baf0152818161322e01526133db015260c051818181610c650152818161171601528181611e64015281816126ba01526128880152f35b60405162461bcd60e51b81526020600482015260086024820152670726f757465723d360c41b6044820152606490fd5b5f80fd5b634e487b7160e01b5f52604160045260245ffd5b51906001600160a01b038216820361016f5756fe60806040526004361015610011575f80fd5b5f5f3560e01c80631da649cf146128f057806332fe7b26146128ac5780633583849a1461286e5780635224372c1461257057806352ed587514611f9857806380e17d8714611f535780638340f54914611ce4578063aad11a3f14611b22578063ae4be46d146107cd5763d9caed1214610088575f80fd5b346107ca5761009636612925565b906100cb337f00000000000000000000000000000000000000000000000000000000000000006001600160a01b031614612b18565b6100d3613143565b60405160609183906100e58484612f0b565b603f83527f41617665476174657761793a2077697468647261772063616c6c65642c20756e60208401527f6465726c79696e673d25732c20757365723d25732c20616d6f756e743d257300604084015261015a60405193638ef3f39960e01b60208601526080602486015260a4850190612a54565b905f8060018060a01b038916958660448201526101958160018060a01b038616968760648301528b608483015203601f198101835282612f0b565b6020815191016a636f6e736f6c652e6c6f675afa506101b3876133c5565b956040966101ef8189516101c78b82612f0b565b601681527541617665476174657761793a2061546f6b656e3d257360501b6020820152613586565b6001600160a01b0316928315610793578751906370a0823160e01b82526004820152602081602481875afa908115610789578a91610757575b508091610275828a5161023b8b82612f0b565b602381527f41617665476174657761793a20757365722061546f6b656e2062616c616e63656020820152623d257360e81b8c820152613543565b1161074f575b506102c883875161028c8882612f0b565b602581527f41617665476174657761793a2066696e616c20776974686472617720616d6f756020820152646e743d257360d81b89820152613543565b8551636eb1769f60e11b81526001600160a01b0382166004820152306024820152602081604481865afa908115610745579084918a91610710575b506103438189516103148b82612f0b565b602081527f41617665476174657761793a2061546f6b656e20616c6c6f77616e63653d25736020820152613543565b106106d857828895949392610359923091613161565b6103a985516103688582612f0b565b602a81527f41617665476174657761793a207472616e736665727265642061546f6b656e20602082015269746f206761746577617960b01b87820152613516565b845163026b1d5f60e01b8152906020826004817f00000000000000000000000000000000000000000000000000000000000000006001600160a01b03165afa9182156106ce57859261068b575b50606460209261043181895161040c8b82612f0b565b601481527341617665476174657761793a20706f6f6c3d257360601b87820152613586565b6001600160a01b031691610446831515612f40565b5f806104d66104f58b5161045b608082612f0b565b604381527f41617665476174657761793a2063616c6c696e6720706f6f6c2e776974686472898201527f617728756e6465726c79696e673d25732c20616d6f756e743d25732c20746f3d8d8201526225732960e81b8b8201528c516363fb8bc560e01b818b01526080602482015292839160a4830190612a54565b8a6044830152868883015230608483015203601f198101835282612f0b565b86815191016a636f6e736f6c652e6c6f675afa508751998a938492631a4ca37b60e21b845287600485015260248401523060448401525af195861561068157839661063f575b509161061a86866001946105ac8361063b99986105a5828b5161055e8782612f0b565b603081527f41617665476174657761793a20706f6f6c2e776974686472617720726574757260208201526f6e656420616d6f756e744f75743d257360801b8d820152613543565b33906131ac565b6475743d257360d81b8751916105c3608084612f0b565b604583527f41617665476174657761793a20776974686472617720636f6d706c6574652c2060208401527f72657475726e696e6720756e6465726c79696e673d25732c20616d6f756e744f898401528201526134ac565b55516001600160a01b03909216825260208201929092529081906040820190565b0390f35b91955092916020823d602011610679575b8161065d60209383612f0b565b8101031261067557905194919290919061061a61053b565b5f80fd5b3d9150610650565b84513d85823e3d90fd5b91506020823d6020116106c6575b816106a660209383612f0b565b810103126106c25760646106bb602093612f2c565b92506103f6565b8480fd5b3d9150610699565b86513d87823e3d90fd5b855162461bcd60e51b815260206004820152601160248201527061546f6b656e3a20616c6c6f77616e636560781b6044820152606490fd5b9150506020813d60201161073d575b8161072c60209383612f0b565b81010312610675578390515f610303565b3d915061071f565b87513d8b823e3d90fd5b92505f61027b565b90506020813d602011610781575b8161077260209383612f0b565b8101031261067557515f610228565b3d9150610765565b88513d8c823e3d90fd5b875162461bcd60e51b815260206004820152601060248201526f18551bdad95b881b9bdd08199bdd5b9960821b6044820152606490fd5b80fd5b50346107ca5760403660031901126107ca576004356001600160401b038111610d92576107fe90369060040161295f565b91906024356001600160401b0381116117b857366023820112156117b85780600401356001600160401b0381116117aa5781019360248501903682116106c2576060926020818803126114e6576024810135906001600160401b038211611b1e5701958690039060c082126114e6576040519660c088018881106001600160401b03821117611b0a5760405260248101356009811015611afe5788526108a660448201612911565b602089019081526108b960648301612911565b9360408a01948552868a01956084840135875260a48401356001600160401b038111611b065760249085010181601f82011215611b06578035906108fc82613128565b9261090a6040519485612f0b565b82845260208383010111611b025760208281959493828f9401838601378301015260808c0152609f190112611afe5760405191602083018381106001600160401b03821117611aea5760405260c40135825260a08901918252519351885190956001600160a01b0390951694906009811015611ad6575f6109fb610a1a8293865151906040519161099b8884612f0b565b602983527f41617665476174657761793a206f703d25732c20746f6b656e3d25732c20696e6020840152687075744964783d257360b81b60408401526040519485936327827ee360e11b60208601526080602486015260a4850190612a54565b9160448401528b6064840152608483015203601f198101835282612f0b565b6020815191016a636f6e736f6c652e6c6f675afa5060018060a01b03845116965f80610a9e610ab86040809c610a5282519283612f0b565b601f82527f41617665476174657761793a20616d6f756e743d25732c20757365723d25730060208301528d5193849263038fd88960e31b60208501528960248501526084840190612a54565b908d6044840152606483015203601f198101835282612f0b565b6020815191016a636f6e736f6c652e6c6f675afa50825151848110611a4d575b505050505085516009811015611a2557158015611a39575b15610e3b5751939450919284926001600160a01b03918216929091610b38907f0000000000000000000000000000000000000000000000000000000000000000163314612b18565b610b40613143565b845163026b1d5f60e01b8152916020836004817f00000000000000000000000000000000000000000000000000000000000000006001600160a01b03165afa9283156106ce578593610dff575b506001600160a01b03831690610ba4821515612f40565b6001600160a01b031692610bba83303387613161565b865163095ea7b360e01b81528260048201528660248201526020816044818a895af18015610df557610c21926020928692610dda575b50895163095ea7b360e01b81526001600160a01b039091166004820152602481019190915291829081906044820190565b038189885af18015610dd057610da3575b50803b156106c2578492836084928851968795869463617ba03760e01b865260048601526024850152604484015261ffff7f00000000000000000000000000000000000000000000000000000000000000001660648401525af18015610d9657610d7d575b5060019055610ca582612fc1565b91610cb282519384612f0b565b808352601f19610cc182612fc1565b0190805b828110610d5b5750505061063b91905b610d4982518251610ce7608082612f0b565b604581527f41617665476174657761793a2070726f636573734c656e64696e67496e73747260208201527f756374696f6e20636f6d706c6574652c2072657475726e696e67202573206f758482015264747075747360d81b6060820152613543565b51918291602083526020830190612ad0565b6020908451610d6981612edc565b838152838382015282828801015201610cc5565b81610d8791612f0b565b610d9257815f610c97565b5080fd5b50505051903d90823e3d90fd5b610dc49060203d602011610dc9575b610dbc8183612f0b565b810190612f7b565b610c32565b503d610db2565b87513d88823e3d90fd5b610df090843d8611610dc957610dbc8183612f0b565b610bf0565b88513d89823e3d90fd5b9092506020813d602011610e33575b81610e1b60209383612f0b565b810103126106c257610e2c90612f2c565b915f610b8d565b3d9150610e0e565b919480516009811015611a25576002036115b65750606091610ead8451610e628582612f0b565b603481527f41617665476174657761793a2063616c6c696e6720776974686472617720666f6020820152731c8815da5d1a191c985dd0dbdb1b185d195c985b60621b86820152613516565b516001600160a01b039081169590610ee8907f0000000000000000000000000000000000000000000000000000000000000000163314612b18565b610ef0613143565b80845196610efe8589612f0b565b603f88527f41617665476174657761793a2077697468647261772063616c6c65642c20756e60208901527f6465726c79696e673d25732c20757365723d25732c20616d6f756e743d257300868901525f80610f7388519a638ef3f39960e01b60208d0152608060248d015260a48c0190612a54565b99610fa28160018060a01b0389169c8d604483015286606483015287608483015203601f198101835282612f0b565b6020815191016a636f6e736f6c652e6c6f675afa50610fc0846133c5565b610fd08188516101c78a82612f0b565b6001600160a01b031691821561157f5786516370a0823160e01b815260048101839052602081602481875afa908115611575578991611543575b50809161101d828a5161023b8b82612f0b565b1161153b575b5061103483875161028c8882612f0b565b8551636eb1769f60e11b81526001600160a01b0382166004820152306024820152602081604481865afa9081156115315790849189916114fc575b506110808189516103148b82612f0b565b106106d8576110929183913091613161565b6110e284516110a18582612f0b565b602a81527f41617665476174657761793a207472616e736665727265642061546f6b656e20602082015269746f206761746577617960b01b86820152613516565b835163026b1d5f60e01b81526020816004817f00000000000000000000000000000000000000000000000000000000000000006001600160a01b03165afa9081156114f257918588928895948691611496575b50915f806112186112376064956020989761117b8183516111568582612f0b565b601481527341617665476174657761793a20706f6f6c3d257360601b8d820152613586565b6001600160a01b031697611190891515612f40565b7f617728756e6465726c79696e673d25732c20616d6f756e743d25732c20746f3d8251926111bf608085612f0b565b604384527f41617665476174657761793a2063616c6c696e6720706f6f6c2e7769746864728c8501528301526225732960e81b8d8301528d516363fb8bc560e01b818c01526080602482015293849260a4840190612a54565b906044830152868883015230608483015203601f198101835282612f0b565b86815191016a636f6e736f6c652e6c6f675afa5087519889938492631a4ca37b60e21b84528c600485015260248401523060448401525af194851561148c578295611450575b509061063b956113ba8661144b95946112e382895161129c8982612f0b565b603081527f41617665476174657761793a20706f6f6c2e776974686472617720726574757260208201526f6e656420616d6f756e744f75743d257360801b8b820152613543565b6112ee8233866131ac565b61136182828a51611300608082612f0b565b604581527f41617665476174657761793a20776974686472617720636f6d706c6574652c2060208201527f72657475726e696e6720756e6465726c79696e673d25732c20616d6f756e744f8c8201526475743d257360d81b8a8201526134ac565b6001855587516113718782612f0b565b603281527f41617665476174657761793a2077697468647261772072657475726e656420746020820152716f6b656e3d25732c20616d6f756e743d257360701b898201526134ac565b6113c2613097565b958551916113cf83612edc565b825260208201526113df86613107565b526113e985613107565b50506113f783519182612f0b565b603a81527f41617665476174657761793a205769746864726177436f6c6c61746572616c2060208201527f636f6d706c6574652c2072657475726e696e67206f757470757400000000000083820152613516565b610cd5565b92919094506020833d602011611484575b8161146e60209383612f0b565b810103126106755791519390919061063b61127d565b3d9150611461565b84513d84823e3d90fd5b935050509192506020813d6020116114ea575b816114b660209383612f0b565b810103126114e6578660648794935f806112186112378b6114d8602099612f2c565b959798509550505050611135565b8580fd5b3d91506114a9565b85513d88823e3d90fd5b9150506020813d602011611529575b8161151860209383612f0b565b81010312610675578390515f61106f565b3d915061150b565b87513d8a823e3d90fd5b92505f611023565b90506020813d60201161156d575b8161155e60209383612f0b565b8101031261067557515f61100a565b3d9150611551565b88513d8b823e3d90fd5b865162461bcd60e51b815260206004820152601060248201526f18551bdad95b881b9bdd08199bdd5b9960821b6044820152606490fd5b80959495929192516009811015611a11576003036118f95750516001600160a01b0390811691907f000000000000000000000000000000000000000000000000000000000000000016331480156118f0575b156118ac57611615613143565b825163026b1d5f60e01b81526020816004817f00000000000000000000000000000000000000000000000000000000000000006001600160a01b03165afa9081156118a2578691611868575b506001600160a01b0316611676811515612f40565b61167f82613218565b6001600160a01b03169150508015611832578451631af5db4960e21b81526001600160a01b038516600482015230602482015290602090829060449082905afa9081156118285790869188916117f3575b50106117bc57908186923b156117b85760a483928651948593849263a415bcad60e01b845260018060a01b0316978860048501528a60248501526002604485015261ffff7f000000000000000000000000000000000000000000000000000000000000000016606485015260848401525af180156117ae57611795575b50600161063b9461175f8533856131ac565b55611768613097565b9282519161177583612edc565b8252602082015261178583613107565b5261178f82613107565b50610cd5565b6117a0858092612f0b565b6117aa575f61174d565b8380fd5b83513d87823e3d90fd5b8280fd5b835162461bcd60e51b815260206004820152601060248201526f626f72726f7720616c6c6f77616e636560801b6044820152606490fd5b9150506020813d602011611820575b8161180f60209383612f0b565b81010312610675578590515f6116d0565b3d9150611802565b85513d89823e3d90fd5b845162461bcd60e51b815260206004820152600f60248201526e1d9119589d081b9bdd08199bdd5b99608a1b6044820152606490fd5b90506020813d60201161189a575b8161188360209383612f0b565b810103126114e65761189490612f2c565b5f611661565b3d9150611876565b84513d88823e3d90fd5b825162461bcd60e51b815260206004820152601c60248201527f4f6e6c7920726f75746572206f722073656c662063616e2063616c6c000000006044820152606490fd5b50813314611608565b809591929493955160098110156119fd5760040361195b5750505161063b939161192c916001600160a01b031684612b5b565b91611935613097565b9282519161194283612edc565b6001600160a01b03168252602082015261178583613107565b80919293505160098110156119fd5760050361198c5750505161063b929061192c906001600160a01b0316836133a4565b519060098210156119e957506006036119b8575161063b929061192c906001600160a01b03168361331a565b825162461bcd60e51b815260206004820152600a6024820152690556e6b6e6f776e206f760b41b6044820152606490fd5b634e487b7160e01b81526021600452602490fd5b634e487b7160e01b83526021600452602483fd5b634e487b7160e01b87526021600452602487fd5b634e487b7160e01b86526021600452602486fd5b5085516009811015611a2557600114610af0565b84975060209293965090611a70611a6b611a7b93611acc97846130f7565b6130e3565b9788975151916130f7565b0135948591611a8c88519182612f0b565b602981527f41617665476174657761793a207265736f6c76656420746f6b656e3d25732c20602082015268616d6f756e743d257360b81b888201526134ac565b5f80808080610ad8565b634e487b7160e01b89526021600452602489fd5b634e487b7160e01b8a52604160045260248afd5b8780fd5b8b80fd5b8a80fd5b634e487b7160e01b88526041600452602488fd5b8680fd5b50346107ca57611b313661298f565b90939150611b40839593612fd8565b93611b4a8661300a565b95845b818110611b7e57611b708761063b8a604051938493604085526040850190612a18565b908382036020850152612a78565b611b89818387613053565b611b95602082016130e3565b9060a0810135868110611ccc575b50356009811015611afe57600192919060028103611c215750611bc5906133c5565b611bcf828a613114565b90838060a01b0316905260405163095ea7b360e01b602082015230602482015287604482015260448152611c04606482612f0b565b611c0e828b613114565b52611c19818a613114565b505b01611b4d565b600303611c9957611c3190613218565b915050828060a01b031680611c47575b50611c1b565b611c51828a613114565b52604051630c04a8a160e41b602082015230602482015260448082018990528152611c7d606482612f0b565b611c87828b613114565b52611c92818a613114565b505f611c41565b5086611ca5828a613114565b52604051611cb4602082612f0b565b878152611cc1828b613114565b52611c41818a613114565b611cdd919250611a6b9087876130f7565b905f611ba3565b50346107ca5780611cf436612925565b909190611d2b337f00000000000000000000000000000000000000000000000000000000000000006001600160a01b031614612b18565b611d33613143565b60405163026b1d5f60e01b8152916020836004817f00000000000000000000000000000000000000000000000000000000000000006001600160a01b03165afa928315611f48578593611f0c575b506001600160a01b03831690611d98821515612f40565b6001600160a01b031692611dae83303387613161565b60405163095ea7b360e01b81528260048201528660248201526020816044818a895af18015611f0157611e17926020928692611ee6575b5060405163095ea7b360e01b81526001600160a01b039091166004820152602481019190915291829081906044820190565b038189885af18015611edb57611ebe575b50803b156106c257849283608492604051968795869463617ba03760e01b86526004860152602485015260018060a01b0316604484015261ffff7f00000000000000000000000000000000000000000000000000000000000000001660648401525af18015611eb357611e9e575b506001905580f35b81611ea891612f0b565b6107ca57805f611e96565b6040513d84823e3d90fd5b611ed69060203d602011610dc957610dbc8183612f0b565b611e28565b6040513d88823e3d90fd5b611efc90843d8611610dc957610dbc8183612f0b565b611de5565b6040513d89823e3d90fd5b9092506020813d602011611f40575b81611f2860209383612f0b565b810103126106c257611f3990612f2c565b915f611d81565b3d9150611f1b565b6040513d87823e3d90fd5b50346107ca57806003193601126107ca576040517f00000000000000000000000000000000000000000000000000000000000000006001600160a01b03168152602090f35b50346107ca57611fa73661298f565b93909294611fb486612fd8565b94611fbe8761300a565b938295835b8981106124d65750611fd487612fc1565b96611fe26040519889612f0b565b808852611ff1601f1991612fc1565b01845b8181106124b35750508398845b818110612044576120288a61063b8b6120368c604051958695606087526060870190612a18565b908582036020870152612a78565b908382036040850152612ad0565b61204f818389613053565b61205b602082016130e3565b9b60608201359160a081013588811061248a575b5080356009811015612486576002810361221f575060209d9190506001600160a01b0361209b836133c5565b604051636eb1769f60e11b81526001600160a01b038a1660048201523060248201529f911692908f604481865afa9e8f15612214578a9f6121d9575b50928d9261211d838f8897956121179160019a97604051906120f882612edc565b8c8060a01b031681528760208201526121118383613114565b52613114565b50613089565b9f8280151591826121ce575b50501561216c57505061213d908992613114565b5260405161214c602082612f0b565b878152612159828b613114565b52612164818a613114565b505b01612001565b61217c6121b3936121a595613114565b5260405163095ea7b360e01b602082015230602482015260448101919091529182906064820190565b03601f198101835282612f0b565b6121bd828b613114565b526121c8818a613114565b50612166565b10159050825f612129565b919493909e506020823d821161220c575b816121f760209383612f0b565b810103126106755790519d929390928d6120d7565b3d91506121ea565b6040513d8c823e3d90fd5b9293926003810361238b5750506122358d613218565b9e9150506040519061224682612edc565b6001600160a01b0316815260208101849052612262828d613114565b5261226d818c613114565b5061227790613089565b9b6001600160a01b0316806122b257506001915086612296828d613114565b526040516122a5602082612f0b565b8781526121bd828b613114565b604051631af5db4960e21b81526001600160a01b038716600482015230602482015292602084604481855afa93841561238057899461234d575b508060019410159081612343575b501561230c575086612296828d613114565b612316828d613114565b52604051630c04a8a160e41b60208201523060248201525f196044820152604481526121b3606482612f0b565b905015155f6122fa565b93506020843d8211612378575b8161236760209383612f0b565b8101031261067557925192806122ec565b3d915061235a565b6040513d8b823e3d90fd5b929d91935090916005810361242157506123aa60406123b092016130e3565b826133a4565b6103e98102908082046103e9149015171561240d5791612401916103e8600194604051926123dd84612edc565b868060a01b031683520460208201526123f6828d613114565b52612117818c613114565b9a86612296828d613114565b634e487b7160e01b88526011600452602488fd5b6006810361243f575061243960406123b092016130e3565b8261331a565b60041415905061247657600191612401916040519061245d82612edc565b848060a01b031681528860208201526123f6828d613114565b509980866122966001938d613114565b8980fd5b9d50915060206124aa6124a28f611a6b908b8a6130f7565b9e89886130f7565b0135915f61206f565b6020906040516124c281612edc565b878152878382015282828c01015201611ff4565b6124e1818b88613053565b3560098110156114e6576002811490868215612563575b8215612552575b8215612541575b8215612530575b505061251c575b600101611fc3565b96612528600191613089565b979050612514565b909150611a25576004145f8061250d565b809250611a11576006811491612506565b809250611a115760058114916124ff565b50600381149150866124f8565b50346106755761257f36612925565b909291337f00000000000000000000000000000000000000000000000000000000000000006001600160a01b031614801561285c575b15612817576125c2613143565b60405163026b1d5f60e01b81526020816004817f00000000000000000000000000000000000000000000000000000000000000006001600160a01b03165afa90811561272e575f916127dd575b506001600160a01b031690612625821515612f40565b61262e81613218565b6001600160a01b031691505080156127a657604051631af5db4960e21b81526001600160a01b038716600482015230602482015290602090829060449082905afa801561272e5784915f91612771575b501061273957813b156106755760405163a415bcad60e01b81526001600160a01b039182166004820181905260248201859052600260448301527f000000000000000000000000000000000000000000000000000000000000000061ffff166064830152959091166084820152905f90829060a490829084905af1801561272e57612718575b50612711919233906131ac565b6001815580f35b61271192505f61272791612f0b565b5f91612704565b6040513d5f823e3d90fd5b60405162461bcd60e51b815260206004820152601060248201526f626f72726f7720616c6c6f77616e636560801b6044820152606490fd5b9150506020813d60201161279e575b8161278d60209383612f0b565b81010312610675578390515f61267e565b3d9150612780565b60405162461bcd60e51b815260206004820152600f60248201526e1d9119589d081b9bdd08199bdd5b99608a1b6044820152606490fd5b90506020813d60201161280f575b816127f860209383612f0b565b810103126106755761280990612f2c565b5f61260f565b3d91506127eb565b60405162461bcd60e51b815260206004820152601c60248201527f4f6e6c7920726f75746572206f722073656c662063616e2063616c6c000000006044820152606490fd5b50336001600160a01b038516146125b5565b34610675575f36600319011261067557602060405161ffff7f0000000000000000000000000000000000000000000000000000000000000000168152f35b34610675575f366003190112610675576040517f00000000000000000000000000000000000000000000000000000000000000006001600160a01b03168152602090f35b3461067557602061290961290336612925565b91612b5b565b604051908152f35b35906001600160a01b038216820361067557565b6060906003190112610675576004356001600160a01b038116810361067557906024356001600160a01b0381168103610675579060443590565b9181601f84011215610675578235916001600160401b038311610675576020808501948460061b01011161067557565b90606060031983011261067557600435916001600160401b0383116106755780602384011215610675578260040135926001600160401b038411610675578160248560051b83010111610675576024908101939290356001600160a01b03811681036106755791604435906001600160401b03821161067557612a149160040161295f565b9091565b90602080835192838152019201905f5b818110612a355750505090565b82516001600160a01b0316845260209384019390920191600101612a28565b805180835260209291819084018484015e5f828201840152601f01601f1916010190565b9080602083519182815201916020808360051b8301019401925f915b838310612aa357505050505090565b9091929394602080612ac1600193601f198682030187528951612a54565b97019301930191939290612a94565b90602080835192838152019201905f5b818110612aed5750505090565b825180516001600160a01b031685526020908101518186015260409094019390920191600101612ae0565b15612b1f57565b60405162461bcd60e51b815260206004820152601460248201527313db9b1e481c9bdd5d195c8818d85b8818d85b1b60621b6044820152606490fd5b9190612b91337f00000000000000000000000000000000000000000000000000000000000000006001600160a01b031614612b18565b612b99613143565b60405163026b1d5f60e01b8152926020846004817f00000000000000000000000000000000000000000000000000000000000000006001600160a01b03165afa93841561272e575f94612ea0575b506001600160a01b03841690612bfe821515612f40565b6040516370a0823160e01b81523060048201526001600160a01b0391909116949091602083602481895afa92831561272e575f93612e6c575b50612c4485303389613161565b60405163095ea7b360e01b81528160048201525f60248201526020816044815f8b5af1801561272e57612cad936020928892612e51575b5060405163095ea7b360e01b81526001600160a01b039091166004820152602481019190915292839081906044820190565b03815f8a5af1801561272e575f94602093608492612e36575b5060405163573ade8160e01b81526004810189905260248101889052600260448201526001600160a01b0390911660648201529485928391905af191821561272e575f92612e02575b506040516370a0823160e01b815230600482015290602082602481885afa90811561272e5784925f92612dcb575b5083151580612dc1575b15612d8e575050505b80821115612d8557612d6191612fb4565b905b8180612d73575b505060015f5590565b612d7e9133906131ac565b5f81612d6a565b50505f90612d63565b90829350612d9d819383612f93565b1115612dba57612db592612db091612f93565b612fb4565b612d50565b5050612d50565b5082841115612d47565b925090506020823d602011612dfa575b81612de860209383612f0b565b8101031261067557839151905f612d3d565b3d9150612ddb565b9091506020813d602011612e2e575b81612e1e60209383612f0b565b810103126106755751905f612d0f565b3d9150612e11565b612e4c90853d8711610dc957610dbc8183612f0b565b612cc6565b612e6790843d8611610dc957610dbc8183612f0b565b612c7b565b9092506020813d602011612e98575b81612e8860209383612f0b565b810103126106755751915f612c37565b3d9150612e7b565b9093506020813d602011612ed4575b81612ebc60209383612f0b565b8101031261067557612ecd90612f2c565b925f612be7565b3d9150612eaf565b604081019081106001600160401b03821117612ef757604052565b634e487b7160e01b5f52604160045260245ffd5b90601f801991011681019081106001600160401b03821117612ef757604052565b51906001600160a01b038216820361067557565b15612f4757565b60405162461bcd60e51b815260206004820152600c60248201526b141bdbdb081b9bdd081cd95d60a21b6044820152606490fd5b90816020910312610675575180151581036106755790565b91908201809211612fa057565b634e487b7160e01b5f52601160045260245ffd5b91908203918211612fa057565b6001600160401b038111612ef75760051b60200190565b90612fe282612fc1565b612fef6040519182612f0b565b8281528092613000601f1991612fc1565b0190602036910137565b9061301482612fc1565b6130216040519182612f0b565b8281528092613032601f1991612fc1565b01905f5b82811061304257505050565b806060602080938501015201613036565b91908110156130755760051b8101359060be1981360301821215610675570190565b634e487b7160e01b5f52603260045260245ffd5b5f198114612fa05760010190565b604080519091906130a88382612f0b565b6001815291601f1901825f5b8281106130c057505050565b6020906040516130cf81612edc565b5f81525f83820152828285010152016130b4565b356001600160a01b03811681036106755790565b91908110156130755760061b0190565b8051156130755760200190565b80518210156130755760209160051b010190565b6001600160401b038111612ef757601f01601f191660200190565b60025f54146131525760025f55565b633ee5aeb560e01b5f5260045ffd5b6040516323b872dd60e01b60208201526001600160a01b0392831660248201529290911660448301526064808301939093529181526131aa916131a5608483612f0b565b6135d4565b565b60405163a9059cbb60e01b60208201526001600160a01b039290921660248301526044808301939093529181526131aa916131a5606483612f0b565b90816060910312610675576131fc81612f2c565b91613215604061320e60208501612f2c565b9301612f2c565b90565b60405163e860accb60e01b8152906020826004817f00000000000000000000000000000000000000000000000000000000000000006001600160a01b03165afa91821561272e575f926132dc575b506040516334924edb60e21b81526001600160a01b0391821660048201529160609183916024918391165afa90811561272e575f915f915f916132aa575b50909192565b9150506132cf915060603d6060116132d5575b6132c78183612f0b565b8101906131e8565b5f6132a4565b503d6132bd565b9091506020813d602011613312575b816132f860209383612f0b565b810103126106755761330b606091612f2c565b9190613266565b3d91506132eb565b61332390613218565b50506001600160a01b0316908161333a5750505f90565b6040516370a0823160e01b81526001600160a01b03909116600482015290602090829060249082905afa90811561272e575f91613375575090565b90506020813d60201161339c575b8161339060209383612f0b565b81010312610675575190565b3d9150613383565b6133ad90613218565b6001600160a01b0316929150508161333a5750505f90565b60405163e860accb60e01b8152906020826004817f00000000000000000000000000000000000000000000000000000000000000006001600160a01b03165afa91821561272e575f9261346e575b506040516334924edb60e21b81526001600160a01b0391821660048201529160609183916024918391165afa90811561272e575f91613450575090565b613469915060603d6060116132d5576132c78183612f0b565b505090565b9091506020813d6020116134a4575b8161348a60209383612f0b565b810103126106755761349d606091612f2c565b9190613413565b3d915061347d565b6134ff6134dc915f94938594604051948593630d26b92560e01b6020860152606060248601526084850190612a54565b6001600160a01b039092166044840152606483015203601f198101835282612f0b565b6020815191016a636f6e736f6c652e6c6f675afa50565b5f6121a56134ff829360405192839163104c13eb60e21b6020840152602060248401526044830190612a54565b6135726134ff5f93928493604051938492632d839cb360e21b6020850152604060248501526064840190612a54565b90604483015203601f198101835282612f0b565b6135b56134ff5f9392849360405193849263319af33360e01b6020850152604060248501526064840190612a54565b6001600160a01b0391909116604483015203601f198101835282612f0b565b5f8061361c9260018060a01b03169360208151910182865af13d1561365f573d906135fe82613128565b9161360c6040519384612f0b565b82523d5f602084013e5b83613667565b8051908115159182613644575b50506136325750565b635274afe760e01b5f5260045260245ffd5b6136579250602080918301019101612f7b565b155f80613629565b606090613616565b9061368b575080511561367c57805190602001fd5b630a12f52160e11b5f5260045ffd5b815115806136bc575b61369c575090565b639996b31560e01b5f9081526001600160a01b0391909116600452602490fd5b50803b1561369456fea26469706673582212200aae64de005a091de37d6edfadd1636cbd82bc1849a7bd59ed16560615452fc364736f6c634300081e0033",
  "devdoc": {
    "errors": {
      "AddressEmptyCode(address)": [
        {
          "details": "There's no code at `target` (it is not a contract)."
        }
      ],
      "AddressInsufficientBalance(address)": [
        {
          "details": "The ETH balance of the account is not enough to perform the operation."
        }
      ],
      "FailedInnerCall()": [
        {
          "details": "A call to an address target failed. The target may have reverted."
        }
      ],
      "ReentrancyGuardReentrantCall()": [
        {
          "details": "Unauthorized reentrant call."
        }
      ],
      "SafeERC20FailedOperation(address)": [
        {
          "details": "An operation with an ERC20 token failed."
        }
      ]
    },
    "kind": "dev",
    "methods": {},
    "version": 1
  },
  "userdoc": {
    "kind": "user",
    "methods": {
      "ROUTER()": {
        "notice": "Immutable router address that can call protected functions"
      },
      "authorize((uint8,address,address,uint256,bytes,(uint256))[],address,(address,uint256)[])": {
        "notice": "Return user-side authorization calls for the given lending instructions.         One element per input (or (address(0), bytes(\"\")) if none needed).         Also returns the produced outputs from the simulation of these instructions."
      }
    },
    "version": 1
  },
  "storageLayout": {
    "storage": [
      {
        "astId": 2091,
        "contract": "contracts/v2/gateways/aave/AaveGatewayWrite.sol:AaveGatewayWrite",
        "label": "_status",
        "offset": 0,
        "slot": "0",
        "type": "t_uint256"
      }
    ],
    "types": {
      "t_uint256": {
        "encoding": "inplace",
        "label": "uint256",
        "numberOfBytes": "32"
      }
    }
  }
}