{
  "address": "0xeEf63254f3c3d95675CbE58bEb0CABa182ce0b1C",
  "abi": [
    {
      "inputs": [
        {
          "internalType": "address",
          "name": "_poolAddressesProvider",
          "type": "address"
        },
        {
          "internalType": "address",
          "name": "_uiPoolDataProvider",
          "type": "address"
        }
      ],
      "stateMutability": "nonpayable",
      "type": "constructor"
    },
    {
      "inputs": [
        {
          "internalType": "address",
          "name": "user",
          "type": "address"
        }
      ],
      "name": "borrowedTokens",
      "outputs": [
        {
          "internalType": "address[]",
          "name": "",
          "type": "address[]"
        }
      ],
      "stateMutability": "view",
      "type": "function"
    },
    {
      "inputs": [
        {
          "internalType": "address",
          "name": "underlyingToken",
          "type": "address"
        }
      ],
      "name": "getAToken",
      "outputs": [
        {
          "internalType": "address",
          "name": "",
          "type": "address"
        }
      ],
      "stateMutability": "view",
      "type": "function"
    },
    {
      "inputs": [
        {
          "internalType": "address",
          "name": "user",
          "type": "address"
        }
      ],
      "name": "getAllTokensInfo",
      "outputs": [
        {
          "components": [
            {
              "internalType": "address",
              "name": "token",
              "type": "address"
            },
            {
              "internalType": "uint256",
              "name": "supplyRate",
              "type": "uint256"
            },
            {
              "internalType": "uint256",
              "name": "borrowRate",
              "type": "uint256"
            },
            {
              "internalType": "string",
              "name": "name",
              "type": "string"
            },
            {
              "internalType": "string",
              "name": "symbol",
              "type": "string"
            },
            {
              "internalType": "uint256",
              "name": "price",
              "type": "uint256"
            },
            {
              "internalType": "uint256",
              "name": "borrowBalance",
              "type": "uint256"
            },
            {
              "internalType": "uint256",
              "name": "balance",
              "type": "uint256"
            },
            {
              "internalType": "address",
              "name": "aToken",
              "type": "address"
            },
            {
              "internalType": "uint8",
              "name": "decimals",
              "type": "uint8"
            }
          ],
          "internalType": "struct AaveGatewayView.TokenInfo[]",
          "name": "",
          "type": "tuple[]"
        }
      ],
      "stateMutability": "view",
      "type": "function"
    },
    {
      "inputs": [
        {
          "internalType": "address",
          "name": "token",
          "type": "address"
        },
        {
          "internalType": "address",
          "name": "user",
          "type": "address"
        }
      ],
      "name": "getBalance",
      "outputs": [
        {
          "internalType": "uint256",
          "name": "",
          "type": "uint256"
        }
      ],
      "stateMutability": "view",
      "type": "function"
    },
    {
      "inputs": [
        {
          "internalType": "address",
          "name": "token",
          "type": "address"
        },
        {
          "internalType": "address",
          "name": "user",
          "type": "address"
        }
      ],
      "name": "getBorrowBalance",
      "outputs": [
        {
          "internalType": "uint256",
          "name": "",
          "type": "uint256"
        }
      ],
      "stateMutability": "view",
      "type": "function"
    },
    {
      "inputs": [
        {
          "internalType": "address",
          "name": "token",
          "type": "address"
        },
        {
          "internalType": "address",
          "name": "user",
          "type": "address"
        }
      ],
      "name": "getBorrowBalanceCurrent",
      "outputs": [
        {
          "internalType": "uint256",
          "name": "",
          "type": "uint256"
        }
      ],
      "stateMutability": "nonpayable",
      "type": "function"
    },
    {
      "inputs": [
        {
          "internalType": "address",
          "name": "token",
          "type": "address"
        }
      ],
      "name": "getBorrowRate",
      "outputs": [
        {
          "internalType": "uint256",
          "name": "",
          "type": "uint256"
        },
        {
          "internalType": "bool",
          "name": "",
          "type": "bool"
        }
      ],
      "stateMutability": "view",
      "type": "function"
    },
    {
      "inputs": [
        {
          "internalType": "address",
          "name": "",
          "type": "address"
        },
        {
          "internalType": "address",
          "name": "user",
          "type": "address"
        }
      ],
      "name": "getLtv",
      "outputs": [
        {
          "internalType": "uint256",
          "name": "",
          "type": "uint256"
        }
      ],
      "stateMutability": "view",
      "type": "function"
    },
    {
      "inputs": [
        {
          "internalType": "address",
          "name": "",
          "type": "address"
        },
        {
          "internalType": "address",
          "name": "user",
          "type": "address"
        }
      ],
      "name": "getMaxLtv",
      "outputs": [
        {
          "internalType": "uint256",
          "name": "",
          "type": "uint256"
        }
      ],
      "stateMutability": "view",
      "type": "function"
    },
    {
      "inputs": [
        {
          "internalType": "address",
          "name": "token",
          "type": "address"
        },
        {
          "internalType": "address",
          "name": "user",
          "type": "address"
        }
      ],
      "name": "getPossibleCollaterals",
      "outputs": [
        {
          "internalType": "address[]",
          "name": "collateralAddresses",
          "type": "address[]"
        },
        {
          "internalType": "uint256[]",
          "name": "balances",
          "type": "uint256[]"
        },
        {
          "internalType": "string[]",
          "name": "symbols",
          "type": "string[]"
        },
        {
          "internalType": "uint8[]",
          "name": "decimals",
          "type": "uint8[]"
        }
      ],
      "stateMutability": "view",
      "type": "function"
    },
    {
      "inputs": [
        {
          "internalType": "address",
          "name": "token",
          "type": "address"
        }
      ],
      "name": "getSupplyRate",
      "outputs": [
        {
          "internalType": "uint256",
          "name": "",
          "type": "uint256"
        },
        {
          "internalType": "bool",
          "name": "",
          "type": "bool"
        }
      ],
      "stateMutability": "view",
      "type": "function"
    },
    {
      "inputs": [
        {
          "internalType": "address",
          "name": "market",
          "type": "address"
        }
      ],
      "name": "getSupportedCollaterals",
      "outputs": [
        {
          "internalType": "address[]",
          "name": "collateralAddresses",
          "type": "address[]"
        }
      ],
      "stateMutability": "view",
      "type": "function"
    },
    {
      "inputs": [
        {
          "internalType": "address",
          "name": "aToken",
          "type": "address"
        }
      ],
      "name": "getUnderlyingToken",
      "outputs": [
        {
          "internalType": "address",
          "name": "",
          "type": "address"
        }
      ],
      "stateMutability": "view",
      "type": "function"
    },
    {
      "inputs": [
        {
          "internalType": "address",
          "name": "market",
          "type": "address"
        },
        {
          "internalType": "address",
          "name": "collateral",
          "type": "address"
        }
      ],
      "name": "isCollateralSupported",
      "outputs": [
        {
          "internalType": "bool",
          "name": "isSupported",
          "type": "bool"
        }
      ],
      "stateMutability": "view",
      "type": "function"
    },
    {
      "inputs": [],
      "name": "poolAddressesProvider",
      "outputs": [
        {
          "internalType": "contract IPoolAddressesProvider",
          "name": "",
          "type": "address"
        }
      ],
      "stateMutability": "view",
      "type": "function"
    },
    {
      "inputs": [],
      "name": "uiPoolDataProvider",
      "outputs": [
        {
          "internalType": "contract IUiPoolDataProviderV3",
          "name": "",
          "type": "address"
        }
      ],
      "stateMutability": "view",
      "type": "function"
    }
  ],
  "transactionHash": "0xffe13ba202c81450fd00799085a36ab2da2073597b7567f9a0f0cb7f2e36a32c",
  "args": [
    "0x89502c3731F69DDC95B65753708A07F8Cd0373F4",
    "0xf751969521E20A972A0776CDB0497Fad0F773F1F"
  ],
  "numDeployments": 5,
  "solcInputHash": "e028fb848b10d60fb5d956a05d904a64",
  "bytecode": "0x60c03461012657601f61247438819003918201601f19168301916001600160401b0383118484101761012a57808492604094855283398101031261012657610052602061004b8361013e565b920161013e565b6001600160a01b039182166080521660a05260405161232190816101538239608051818181610101015281816102a60152818161044c01528181610508015281816106820152818161079101528181610daf015281816117dd01528181611a8001528181611c2a01528181611d1f01528181611e1801528181611f860152612068015260a0518181816102e40152818161040801528181610539015281816107bc0152818161181201528181611ab901528181611c5b01528181611d5001528181611e5101528181611fb7015261209c0152f35b5f80fd5b634e487b7160e01b5f52604160045260245ffd5b51906001600160a01b03821682036101265756fe60806040526004361015610011575f80fd5b5f3560e01c8063104e999d14610baa578063118e31b714610200578063401d45d01461076157806362fd6add1461064a57806366e2d09b146104d7578063691bcc88146104b15780636b5441a9146104b6578063732a52ee146104b1578063784661131461047b57806380e17d8714610437578063c3a3a9a7146103f3578063ceac55df14610272578063d4fac45d1461023e578063d71275f614610205578063e94201c7146102005763f5125d3f146100c9575f80fd5b346101f45760403660031901126101f4576100e2610cc8565b506100eb610cde565b60405163026b1d5f60e01b8152906020826004817f00000000000000000000000000000000000000000000000000000000000000006001600160a01b03165afa9182156101b3575f926101be575b50604051632fe4a15f60e21b81526001600160a01b0391821660048201529160c09183916024918391165afa80156101b3576020915f9161017e575b50604051908152f35b6101a0915060c03d60c0116101ac575b6101988183610f12565b810190611be5565b5093505050505f610175565b503d61018e565b6040513d5f823e3d90fd5b9091506020813d6020116101f8575b816101da60209383610f12565b810103126101f4576101ed60c091610f4a565b9190610139565b5f80fd5b3d91506101cd565b610d54565b346101f45760203660031901126101f457610226610221610cc8565b611f6f565b604080519283529015156020830152819081015b0390f35b346101f45760403660031901126101f457602061026a61025c610cc8565b610264610cde565b90611de9565b604051908152f35b346101f45760203660031901126101f4576102e05f61028f610cc8565b6040516301465d3360e61b81526001600160a01b037f000000000000000000000000000000000000000000000000000000000000000081166004830152909116602482015291829081906044820190565b03817f00000000000000000000000000000000000000000000000000000000000000006001600160a01b03165afa9081156101b3575f916103d0575b505f5f5b8251811015610359576060610335828561141e565b510151610345575b600101610320565b90610351600191611446565b91905061033d565b50610363906113a3565b905f915f5b82518110156103ba578060606103806001938661141e565b51015161038e575b01610368565b818060a01b0361039e828661141e565b5151166103b46103ad87611446565b968561141e565b52610388565b6040516020808252819061023a90820185610cf4565b6103ec91503d805f833e6103e48183610f12565b810190611982565b508161031c565b346101f4575f3660031901126101f4576040517f00000000000000000000000000000000000000000000000000000000000000006001600160a01b03168152602090f35b346101f4575f3660031901126101f4576040517f00000000000000000000000000000000000000000000000000000000000000006001600160a01b03168152602090f35b346101f45760403660031901126101f457610494610cc8565b5060206104a76104a2610cde565b611d08565b6040519015158152f35b610d80565b346101f45760203660031901126101f4576102266104d2610cc8565b611c13565b346101f45760203660031901126101f4576104f0610cc8565b5060405163ec489c2160e01b81526001600160a01b037f0000000000000000000000000000000000000000000000000000000000000000811660048301525f90829060249082907f0000000000000000000000000000000000000000000000000000000000000000165afa9081156101b3575f91610627575b505f5f5b82518110156105a757610100610583828561141e565b510151610593575b60010161056d565b9061059f600191611446565b91905061058b565b506105b1906113a3565b905f905f5b8151811015610611576101006105cc828461141e565b5101516105dc575b6001016105b6565b91600190610609906001600160a01b036105f6868661141e565b515116610603828861141e565b52611446565b9290506105d4565b6040516020808252819061023a90820187610cf4565b61064391503d805f833e61063b8183610f12565b810190610fe2565b5081610569565b346101f45760403660031901126101f457610663610cc8565b5061066c610cde565b60405163026b1d5f60e01b8152906020826004817f00000000000000000000000000000000000000000000000000000000000000006001600160a01b03165afa9182156101b3575f92610723575b50604051632fe4a15f60e21b81526001600160a01b0391821660048201529160c09183916024918391165afa80156101b3576020915f916106fe5750604051908152f35b610717915060c03d60c0116101ac576101988183610f12565b50509250505082610175565b9091506020813d602011610759575b8161073f60209383610f12565b810103126101f45761075260c091610f4a565b91906106ba565b3d9150610732565b346101f45760203660031901126101f45761077a610cc8565b60405163ec489c2160e01b81526001600160a01b037f0000000000000000000000000000000000000000000000000000000000000000818116600484015292907f0000000000000000000000000000000000000000000000000000000000000000165f83602481845afa9283156101b3575f93610b85575b506040516301465d3360e61b81526001600160a01b03948516600482015293821660248501529192915f9083908180604481015b03915afa9182156101b3575f92610b68575b5082519061084582610f33565b916108536040519384610f12565b808352610862601f1991610f33565b015f5b818110610b125750505f5b8451811015610a275761088e8483610888848961141e565b51612165565b90856108a5868561089f858561141e565b51612228565b601290600460206001600160a01b036108be878761141e565b5151166040519283809263313ce56760e01b82525afa5f91816109de575b509560ff9392916001976109d6575b506001600160801b036101c0610914888a8060a01b0361090b828b61141e565b5151169861141e565b51015116918b6001600160801b036101e061092f8a8461141e565b51015116602061093f8a8461141e565b510151604061094e8b8561141e565b510151916102c061095f8c8661141e565b510151936102206109768d8f8060a01b039361141e565b51015116966040519a6109888c610ec7565b8b5260208b015260408a01526060890152608088015260a087015260c086015260e0850152610100840152166101208201526109c4828661141e565b526109cf818561141e565b5001610870565b92508b6108eb565b9392915093506020833d8211610a1f575b816109fc60209383610f12565b810103126101f4576001958a94610a1460ff95610fd4565b9293945090966108dc565b3d91506109ef565b826040518091602082016020835281518091526040830190602060408260051b8601019301915f905b828210610a5f57505050500390f35b919360019193955060208091603f19898203018552875190848060a01b03825116815282820151838201526040820151604082015261012060ff81610aca610ab860608701516101406060880152610140870190610d30565b60808701518682036080880152610d30565b9460a081015160a086015260c081015160c086015260e081015160e0860152888060a01b03610100820151166101008601520151169101529601920192018594939192610a50565b602090604051610b2181610ec7565b5f81525f838201525f6040820152606080820152606060808201525f60a08201525f60c08201525f60e08201525f6101008201525f61012082015282828701015201610865565b610b7d9192503d805f833e6103e48183610f12565b509083610838565b61082693505f91610ba084923d8086833e61063b8183610f12565b50945091506107f2565b346101f45760403660031901126101f457610bc3610cc8565b50610bec610bd7610bd2610cde565b611468565b91604051948594608086526080860190610cf4565b8481036020860152602080835192838152019201905f5b818110610caf575050508381036040850152815180825260208201916020808360051b8301019401925f915b838310610c7c5750505050508281036060840152602080835192838152019201905f5b818110610c60575050500390f35b825160ff16845285945060209384019390920191600101610c52565b91939596509193602080610c9c600193601f198682030187528951610d30565b9701930193019092879695949293610c2f565b8251845287965060209384019390920191600101610c03565b600435906001600160a01b03821682036101f457565b602435906001600160a01b03821682036101f457565b90602080835192838152019201905f5b818110610d115750505090565b82516001600160a01b0316845260209384019390920191600101610d04565b805180835260209291819084018484015e5f828201840152601f01601f1916010190565b346101f45760403660031901126101f457602061026a610d72610cc8565b610d7a610cde565b90611a50565b346101f45760203660031901126101f457610d99610cc8565b60405163e860accb60e01b8152906020826004817f00000000000000000000000000000000000000000000000000000000000000006001600160a01b03165afa9182156101b3575f92610e89575b506040516334924edb60e21b81526001600160a01b0391821660048201529160609183916024918391165afa80156101b3575f90610e35575b6040516001600160a01b039091168152602090f35b506060813d606011610e81575b81610e4f60609383610f12565b810103126101f45780610e7b6040610e68602094610f4a565b92610e74858201610f4a565b5001610f4a565b50610e20565b3d9150610e42565b9091506020813d602011610ebf575b81610ea560209383610f12565b810103126101f457610eb8606091610f4a565b9190610de7565b3d9150610e98565b61014081019081106001600160401b03821117610ee357604052565b634e487b7160e01b5f52604160045260245ffd5b608081019081106001600160401b03821117610ee357604052565b90601f801991011681019081106001600160401b03821117610ee357604052565b6001600160401b038111610ee35760051b60200190565b51906001600160a01b03821682036101f457565b81601f820112156101f4578051906001600160401b038211610ee35760405192610f92601f8401601f191660200185610f12565b828452602083830101116101f457815f9260208093018386015e8301015290565b519081151582036101f457565b51906001600160801b03821682036101f457565b519060ff821682036101f457565b808203929160a084126101f45781516001600160401b0381116101f457820181601f820112156101f45780519061101882610f33565b926110266040519485610f12565b82845260208085019360051b830101918183116101f45760208101935b83851061109757505050505060809093601f1901126101f45761108f60806040519261106e84610ef7565b60208101518452604081015160208501526060810151604085015201610fd4565b606082015290565b84516001600160401b0381116101f457820190610520828503601f1901126101f4576040519061052082018281106001600160401b03821117610ee3576040526110e360208401610f4a565b825260408301516001600160401b0381116101f45785602061110792860101610f5e565b602083015260608301516001600160401b0381116101f45785602061112e92860101610f5e565b60408301526080830151606083015260a0830151608083015260c083015160a083015260e083015160c083015261010083015160e08301526111736101208401610fb3565b6101008301526111866101408401610fb3565b6101208301526111996101608401610fb3565b6101408301526111ac6101808401610fb3565b6101608301526111bf6101a08401610fc0565b6101808301526111d26101c08401610fc0565b6101a08301526111e56101e08401610fc0565b6101c08301526111f86102008401610fc0565b6101e08301526102208301519164ffffffffff831683036101f45761139261052060209586956102008501526112316102408201610f4a565b6102208501526112446102608201610f4a565b6102408501526112576102808201610f4a565b6102608501526102a08101516102808501526102c08101516102a08501526102e08101516102c085015261128e6103008201610f4a565b6102e08501526103208101516103008501526103408101516103208501526103608101516103408501526103808101516103608501526112d16103a08201610fb3565b6103808501526112e46103c08201610fb3565b6103a08501526112f76103e08201610fc0565b6103c085015261130a6104008201610fc0565b6103e085015261131d6104208201610fc0565b6104008501526113306104408201610fb3565b6104208501526104608101516104408501526104808101516104608501526104a08101516104808501526104c08101516104a08501526113736104e08201610fb3565b6104c08501526113866105008201610fb3565b6104e085015201610fc0565b610500820152815201940193611043565b906113ad82610f33565b6113ba6040519182610f12565b82815280926113cb601f1991610f33565b0190602036910137565b906113df82610f33565b6113ec6040519182610f12565b82815280926113fd601f1991610f33565b01905f5b82811061140d57505050565b806060602080938501015201611401565b80518210156114325760209160051b010190565b634e487b7160e01b5f52603260045260245ffd5b5f1981146114545760010190565b634e487b7160e01b5f52601160045260245ffd5b6001600160a01b03169081156117c65760405191630401d45d60e41b835260048301525f82602481305afa9182156101b3575f9261164c575b505f915f5b81518110156114df5760e06114bb828461141e565b5101516114cb575b6001016114a6565b926114d7600191611446565b9390506114c3565b506114e9836113a3565b906114f3846113a3565b93611506611500826113d5565b916113a3565b945f935f5b84518110156116415760e0611520828761141e565b510151611530575b60010161150b565b946001600160a01b03611543878761141e565b515116611550828461141e565b5260e061155d878761141e565b51015161156a828561141e565b526080611577878761141e565b510151611584828661141e565b5261158f818561141e565b50600460206001600160a01b036115a6898961141e565b5151166040519283809263313ce56760e01b82525afa5f91816115fe575b50916115e191600193155f146115e957506012610603828c61141e565b959050611528565b60ff6115f5838d61141e565b91169052611446565b9150916020823d8211611639575b8161161960209383610f12565b810103126101f4576001926116306115e193610fd4565b925090926115c4565b3d915061160c565b509590949193509150565b9091503d805f833e61165e8183610f12565b8101906020818303126101f4578051906001600160401b0382116101f457019080601f830112156101f45781519161169583610f33565b926116a36040519485610f12565b80845260208085019160051b830101918383116101f45760208101915b8383106116d3575050505050905f6114a1565b82516001600160401b0381116101f457820190610140828703601f1901126101f4576040519061170282610ec7565b61170e60208401610f4a565b8252604083015160208301526060830151604083015260808301516001600160401b0381116101f45787602061174692860101610f5e565b606083015260a0830151916001600160401b0383116101f4576117b5610140856117788b602080999881990101610f5e565b608085015260c081015160a085015260e081015160c085015261010081015160e08501526117a96101208201610f4a565b61010085015201610fd4565b6101208201528152019201916116c0565b60405163ec489c2160e01b81526001600160a01b037f000000000000000000000000000000000000000000000000000000000000000081166004830152919250905f90829060249082907f0000000000000000000000000000000000000000000000000000000000000000165afa9081156101b3575f91611967575b5080519061184f826113a3565b92611859836113a3565b93611863846113d5565b9361186d816113a3565b935f5b8281106118805750505093929190565b6004906001600160a01b03611895828561141e565b5151166118a2828761141e565b5260406118af828561141e565b5101516118bc828a61141e565b526118c7818961141e565b5060206001600160a01b036118dc838661141e565b5151166040519384809263313ce56760e01b82525afa805f9161192c575b600193506119175750601261190f828961141e565b525b01611870565b60ff611923838a61141e565b91169052611911565b90506020833d821161195f575b8161194660209383610f12565b810103126101f457611959600193610fd4565b906118fa565b3d9150611939565b61197b91503d805f833e61063b8183610f12565b505f611842565b91906040838203126101f45782516001600160401b0381116101f457830181601f820112156101f4578051906119b782610f33565b926119c56040519485610f12565b82845260208085019360071b830101918183116101f457602001925b8284106119fc575050505060206119f9919301610fd4565b90565b6080848303126101f4576020608091604051611a1781610ef7565b611a2087610f4a565b81528287015183820152611a3660408801610fb3565b6040820152606087015160608201528152019301926119e1565b90611a5a82612051565b90915080611bd3575b611b5e575b506040516301465d3360e61b81526001600160a01b037f00000000000000000000000000000000000000000000000000000000000000008116600483015290911660248201525f81806044810103817f00000000000000000000000000000000000000000000000000000000000000006001600160a01b03165afa9081156101b3575f91611b43575b505f5b8151811015611b3c576001600160a01b03611b0f828461141e565b5151166001600160a01b03841614611b2957600101611af4565b60609250611b369161141e565b51015190565b5050505f90565b611b5791503d805f833e6103e48183610f12565b505f611af1565b6040516370a0823160e01b81526001600160a01b038381166004830152909160209183916024918391165afa5f9181611b9f575b5015611a68575b91505090565b9091506020813d602011611bcb575b81611bbb60209383610f12565b810103126101f45751905f611b92565b3d9150611bae565b506001600160a01b0381161515611a63565b91908260c09103126101f45781519160208101519160408201519160608101519160a0608083015192015190565b60405163ec489c2160e01b81526001600160a01b037f0000000000000000000000000000000000000000000000000000000000000000811660048301525f90829060249082907f0000000000000000000000000000000000000000000000000000000000000000165afa9081156101b3575f91611ced575b505f5b8151811015611ce4576001600160a01b03611ca9828461141e565b5151166001600160a01b03841614611cc357600101611c8e565b6001600160801b039250611cda906101c09261141e565b5101511690600190565b5050505f905f90565b611d0191503d805f833e61063b8183610f12565b505f611c8b565b60405163ec489c2160e01b81526001600160a01b037f0000000000000000000000000000000000000000000000000000000000000000811660048301525f90829060249082907f0000000000000000000000000000000000000000000000000000000000000000165afa9081156101b3575f91611dce575b505f5b8151811015611b3c576001600160a01b03611d9e828461141e565b5151166001600160a01b03841614611db857600101611d83565b6101009250611dc69161141e565b510151151590565b611de291503d805f833e61063b8183610f12565b505f611d80565b90611df382612051565b905080611f5d575b611ee9575b506040516301465d3360e61b81526001600160a01b037f00000000000000000000000000000000000000000000000000000000000000008116600483015290911660248201525f81806044810103817f00000000000000000000000000000000000000000000000000000000000000006001600160a01b03165afa9081156101b3575f91611ece575b505f5b8151811015611b3c576001600160a01b03611ea7828461141e565b5151166001600160a01b03841614611ec157600101611e8c565b60209250611b369161141e565b611ee291503d805f833e6103e48183610f12565b505f611e89565b6040516370a0823160e01b81526001600160a01b038381166004830152909160209183916024918391165afa5f9181611f29575b5015611e005791505090565b9091506020813d602011611f55575b81611f4560209383610f12565b810103126101f45751905f611f1d565b3d9150611f38565b506001600160a01b0381161515611dfb565b60405163ec489c2160e01b81526001600160a01b037f0000000000000000000000000000000000000000000000000000000000000000811660048301525f90829060249082907f0000000000000000000000000000000000000000000000000000000000000000165afa9081156101b3575f91612036575b505f5b8151811015611ce4576001600160a01b03612005828461141e565b5151166001600160a01b0384161461201f57600101611fea565b6001600160801b039250611cda906101e09261141e565b61204a91503d805f833e61063b8183610f12565b505f611fe7565b60405163ec489c2160e01b81526001600160a01b037f0000000000000000000000000000000000000000000000000000000000000000811660048301529192915f90829060249082907f0000000000000000000000000000000000000000000000000000000000000000165afa5f9181612148575b506120d6575b505f915081908190565b5f5b815181101561213d576001600160a01b036120f3828461141e565b5151166001600160a01b0385161461210d576001016120d8565b9250610240611cda6001600160a01b0361022061212a878661141e565b51015116946001600160a01b039361141e565b50509050805f6120cc565b61215d9192503d805f833e61063b8183610f12565b50905f6120c6565b919060018060a01b036102208401511690816121b7575b50505f5b8151811015611b3c576001600160a01b0361219b828461141e565b515184516001600160a01b0316911614611ec157600101612180565b6040516370a0823160e01b81526001600160a01b03909116600482015290602090829060249082905afa5f91816121f4575b50611b99578061217c565b9091506020813d602011612220575b8161221060209383610f12565b810103126101f45751905f6121e9565b3d9150612203565b919060018060a01b0361024084015116908161227a575b50505f5b8151811015611b3c576001600160a01b0361225e828461141e565b515184516001600160a01b0316911614611b2957600101612243565b6040516370a0823160e01b81526001600160a01b03909116600482015290602090829060249082905afa5f91816122b7575b50611b99578061223f565b9091506020813d6020116122e3575b816122d360209383610f12565b810103126101f45751905f6122ac565b3d91506122c656fea26469706673582212206cf959ff73a60a829b7aa00dc2ab037fbe5abce49f328ebc75d79cb454063f3364736f6c634300081e0033",
  "devdoc": {
    "details": "Contains all read/view functions from v1, separate from write operations",
    "kind": "dev",
    "methods": {
      "getAllTokensInfo(address)": {
        "details": "This function caches the reserves and user reserves data to avoid multiple heavy calls."
      },
      "getBalance(address,address)": {
        "details": "First attempts to call balanceOf on the associated aToken; if that fails, falls back to user reserves data."
      },
      "getBorrowBalance(address,address)": {
        "details": "First attempts to call balanceOf on the associated variable debt token; if that fails, falls back to user reserves data."
      },
      "getLtv(address,address)": {
        "details": "The market parameter is unused and kept for interface consistency across gateways."
      },
      "getMaxLtv(address,address)": {
        "details": "The market parameter is unused and kept for interface consistency across gateways."
      }
    },
    "title": "AaveGatewayView",
    "version": 1
  },
  "userdoc": {
    "kind": "user",
    "methods": {
      "borrowedTokens(address)": {
        "notice": "Returns the list of tokens that the user has borrowed."
      },
      "getAllTokensInfo(address)": {
        "notice": "Returns all token info for a given user."
      },
      "getBalance(address,address)": {
        "notice": "Gets the balance for a given token and user."
      },
      "getBorrowBalance(address,address)": {
        "notice": "Gets the borrow balance for a given token and user."
      },
      "getLtv(address,address)": {
        "notice": "Returns the protocol-level maximum LTV configuration for the user in basis points."
      },
      "getMaxLtv(address,address)": {
        "notice": "Returns the liquidation threshold (LLTV) for a given user in basis points."
      }
    },
    "notice": "View-only gateway for Aave v3 protocol",
    "version": 1
  },
  "storageLayout": {
    "storage": [],
    "types": null
  }
}