{
  "address": "0xD50206D58cA37f417B3CB28B4E8DD1C43a1b17d0",
  "abi": [
    {
      "inputs": [
        {
          "internalType": "address",
          "name": "router",
          "type": "address"
        },
        {
          "internalType": "address",
          "name": "_poolAddressesProvider",
          "type": "address"
        },
        {
          "internalType": "uint16",
          "name": "_referralCode",
          "type": "uint16"
        }
      ],
      "stateMutability": "nonpayable",
      "type": "constructor"
    },
    {
      "inputs": [
        {
          "internalType": "address",
          "name": "target",
          "type": "address"
        }
      ],
      "name": "AddressEmptyCode",
      "type": "error"
    },
    {
      "inputs": [
        {
          "internalType": "address",
          "name": "account",
          "type": "address"
        }
      ],
      "name": "AddressInsufficientBalance",
      "type": "error"
    },
    {
      "inputs": [],
      "name": "FailedInnerCall",
      "type": "error"
    },
    {
      "inputs": [],
      "name": "ReentrancyGuardReentrantCall",
      "type": "error"
    },
    {
      "inputs": [
        {
          "internalType": "address",
          "name": "token",
          "type": "address"
        }
      ],
      "name": "SafeERC20FailedOperation",
      "type": "error"
    },
    {
      "inputs": [],
      "name": "REFERRAL_CODE",
      "outputs": [
        {
          "internalType": "uint16",
          "name": "",
          "type": "uint16"
        }
      ],
      "stateMutability": "view",
      "type": "function"
    },
    {
      "inputs": [],
      "name": "ROUTER",
      "outputs": [
        {
          "internalType": "address",
          "name": "",
          "type": "address"
        }
      ],
      "stateMutability": "view",
      "type": "function"
    },
    {
      "inputs": [
        {
          "components": [
            {
              "internalType": "enum ProtocolTypes.LendingOp",
              "name": "op",
              "type": "uint8"
            },
            {
              "internalType": "address",
              "name": "token",
              "type": "address"
            },
            {
              "internalType": "address",
              "name": "user",
              "type": "address"
            },
            {
              "internalType": "uint256",
              "name": "amount",
              "type": "uint256"
            },
            {
              "internalType": "bytes",
              "name": "context",
              "type": "bytes"
            },
            {
              "components": [
                {
                  "internalType": "uint256",
                  "name": "index",
                  "type": "uint256"
                }
              ],
              "internalType": "struct ProtocolTypes.InputPtr",
              "name": "input",
              "type": "tuple"
            }
          ],
          "internalType": "struct ProtocolTypes.LendingInstruction[]",
          "name": "instrs",
          "type": "tuple[]"
        },
        {
          "internalType": "address",
          "name": "caller",
          "type": "address"
        },
        {
          "components": [
            {
              "internalType": "address",
              "name": "token",
              "type": "address"
            },
            {
              "internalType": "uint256",
              "name": "amount",
              "type": "uint256"
            }
          ],
          "internalType": "struct ProtocolTypes.Output[]",
          "name": "inputs",
          "type": "tuple[]"
        }
      ],
      "name": "authorize",
      "outputs": [
        {
          "internalType": "address[]",
          "name": "targets",
          "type": "address[]"
        },
        {
          "internalType": "bytes[]",
          "name": "data",
          "type": "bytes[]"
        },
        {
          "components": [
            {
              "internalType": "address",
              "name": "token",
              "type": "address"
            },
            {
              "internalType": "uint256",
              "name": "amount",
              "type": "uint256"
            }
          ],
          "internalType": "struct ProtocolTypes.Output[]",
          "name": "produced",
          "type": "tuple[]"
        }
      ],
      "stateMutability": "view",
      "type": "function"
    },
    {
      "inputs": [
        {
          "components": [
            {
              "internalType": "enum ProtocolTypes.LendingOp",
              "name": "op",
              "type": "uint8"
            },
            {
              "internalType": "address",
              "name": "token",
              "type": "address"
            },
            {
              "internalType": "address",
              "name": "user",
              "type": "address"
            },
            {
              "internalType": "uint256",
              "name": "amount",
              "type": "uint256"
            },
            {
              "internalType": "bytes",
              "name": "context",
              "type": "bytes"
            },
            {
              "components": [
                {
                  "internalType": "uint256",
                  "name": "index",
                  "type": "uint256"
                }
              ],
              "internalType": "struct ProtocolTypes.InputPtr",
              "name": "input",
              "type": "tuple"
            }
          ],
          "internalType": "struct ProtocolTypes.LendingInstruction[]",
          "name": "instrs",
          "type": "tuple[]"
        },
        {
          "internalType": "address",
          "name": "",
          "type": "address"
        },
        {
          "components": [
            {
              "internalType": "address",
              "name": "token",
              "type": "address"
            },
            {
              "internalType": "uint256",
              "name": "amount",
              "type": "uint256"
            }
          ],
          "internalType": "struct ProtocolTypes.Output[]",
          "name": "inputs",
          "type": "tuple[]"
        }
      ],
      "name": "deauthorize",
      "outputs": [
        {
          "internalType": "address[]",
          "name": "targets",
          "type": "address[]"
        },
        {
          "internalType": "bytes[]",
          "name": "data",
          "type": "bytes[]"
        }
      ],
      "stateMutability": "view",
      "type": "function"
    },
    {
      "inputs": [
        {
          "internalType": "uint8",
          "name": "categoryId",
          "type": "uint8"
        }
      ],
      "name": "encodeSetEMode",
      "outputs": [
        {
          "internalType": "address",
          "name": "target",
          "type": "address"
        },
        {
          "internalType": "bytes",
          "name": "callData",
          "type": "bytes"
        }
      ],
      "stateMutability": "view",
      "type": "function"
    },
    {
      "inputs": [],
      "name": "getPool",
      "outputs": [
        {
          "internalType": "address",
          "name": "",
          "type": "address"
        }
      ],
      "stateMutability": "view",
      "type": "function"
    },
    {
      "inputs": [],
      "name": "poolAddressesProvider",
      "outputs": [
        {
          "internalType": "contract IPoolAddressesProvider",
          "name": "",
          "type": "address"
        }
      ],
      "stateMutability": "view",
      "type": "function"
    },
    {
      "inputs": [
        {
          "components": [
            {
              "internalType": "address",
              "name": "token",
              "type": "address"
            },
            {
              "internalType": "uint256",
              "name": "amount",
              "type": "uint256"
            }
          ],
          "internalType": "struct ProtocolTypes.Output[]",
          "name": "inputs",
          "type": "tuple[]"
        },
        {
          "internalType": "bytes",
          "name": "data",
          "type": "bytes"
        }
      ],
      "name": "processLendingInstruction",
      "outputs": [
        {
          "components": [
            {
              "internalType": "address",
              "name": "token",
              "type": "address"
            },
            {
              "internalType": "uint256",
              "name": "amount",
              "type": "uint256"
            }
          ],
          "internalType": "struct ProtocolTypes.Output[]",
          "name": "outputs",
          "type": "tuple[]"
        }
      ],
      "stateMutability": "nonpayable",
      "type": "function"
    },
    {
      "inputs": [
        {
          "internalType": "address",
          "name": "token",
          "type": "address"
        },
        {
          "internalType": "address",
          "name": "to",
          "type": "address"
        },
        {
          "internalType": "uint256",
          "name": "amount",
          "type": "uint256"
        }
      ],
      "name": "recoverTokens",
      "outputs": [],
      "stateMutability": "nonpayable",
      "type": "function"
    }
  ],
  "transactionHash": "0x9bc5505ac57aa4cb865f8499e75f44b6d79b7369187ed192504962dbf1c03190",
  "args": [
    "0x33F06145eB41Ed01923bbb6AfE024fF63AAd86a1",
    "0x89502c3731F69DDC95B65753708A07F8Cd0373F4",
    0
  ],
  "numDeployments": 14,
  "solcInputHash": "267cdce003ab789696b7dcea1a919979",
  "bytecode": "0x60e03461013e57601f6125dd38819003918201601f19168301916001600160401b038311848410176101425780849260609460405283398101031261013e5761004781610156565b90604061005660208301610156565b9101519161ffff8316830361013e576001600160a01b0381161561010e5760805260015f556001600160a01b031660a05260c052604051612472908161016b823960805181818160f201528181611180015261199a015260a0518181816102a50152818161059a0152818161082601528181610a90015281816110fe015281816117a3015281816119fd01528181611adb0152818161206d015261216f015260c0518181816103a00152818161090901526119610152f35b60405162461bcd60e51b81526020600482015260086024820152670726f757465723d360c41b6044820152606490fd5b5f80fd5b634e487b7160e01b5f52604160045260245ffd5b51906001600160a01b038216820361013e5756fe6080806040526004361015610012575f80fd5b5f905f3560e01c908163026b1d5f14611ab9575080632e24a188146119c957806332fe7b26146119855780633583849a1461194757806352ed5875146112cf5780635f3e849f1461112d57806380e17d87146110e9578063aad11a3f14610f2a5763ae4be46d14610081575f80fd5b346106a25760403660031901126106a2576004356001600160401b0381116106a2576100b1903690600401611b99565b906024356001600160401b0381116106a257366023820112156106a25760048101356001600160401b0381116106a25781019060248201903682116106a2577f00000000000000000000000000000000000000000000000000000000000000006001600160a01b03163303610eee576020818403126106a25760248101356001600160401b0381116106a25701918290039360c085126106a2576040519360c085016001600160401b03811186821017610eda576040526024840135600a8110156106a257855261018460448501611b85565b916020860192835261019860648601611b85565b604087019081526084860135606088019081529790949060a48701356001600160401b0381116106a2576024908801019180601f840112156106a25782356101df81611f2c565b916101ed6040519384611d49565b818352602082860101116106a2576020815f928280970183860137830101526080890152609f1901126106a2576040519460208601906001600160401b03821187831017610eda5760c4916040520135855260a086019285845260018060a01b0390511696519451818110610ea7575b50505050825192600a841015610e7b578593158015610e8f575b156104c45750516001600160a01b03169261029061237c565b60405163026b1d5f60e01b81526020816004817f00000000000000000000000000000000000000000000000000000000000000006001600160a01b03165afa9081156104b957849161047f575b506001600160a01b038116916102f483151561227c565b6001600160a01b03169061030a8430338561239a565b60405163095ea7b360e01b815283600482015285602482015260208160448189875af180156104745761035d926020928792610459575b5060405163095ea7b360e01b8152938492839260048401611f61565b038188865af1801561044e57610421575b50813b1561041d5783608492604051968795869463617ba03760e01b865260048601526024850152604484015261ffff7f00000000000000000000000000000000000000000000000000000000000000001660648401525af18015610412576103fa575b50600190556103f66103e2611e56565b604051918291602083526020830190611ce6565b0390f35b610405828092611d49565b61040f575f6103d2565b80fd5b6040513d84823e3d90fd5b8380fd5b6104429060203d602011610447575b61043a8183611d49565b8101906122b7565b61036e565b503d610430565b6040513d87823e3d90fd5b61046f90843d86116104475761043a8183611d49565b610341565b6040513d88823e3d90fd5b90506020813d6020116104b1575b8161049a60209383611d49565b8101031261041d576104ab90611d6c565b5f6102dd565b3d915061048d565b6040513d86823e3d90fd5b809192935051600a811015610e7b576002036107e85750516001600160a01b0316916104ee61237c565b816001600160a01b0361050083612159565b169081156107b0576040516370a0823160e01b815260048101869052602081602481865afa9081156107a5578791610773575b5080911161076b575b50604051636eb1769f60e11b81526020818061055c308960048401611f47565b0381855afa80156104745784918791610736575b50106106fd5782610584918695309161239a565b60405163026b1d5f60e01b8152906020826004817f00000000000000000000000000000000000000000000000000000000000000006001600160a01b03165afa9182156104b95784926106b9575b506020916001600160a01b0316906064906105ee83151561227c565b6040519586938492631a4ca37b60e21b845260018060a01b03169687600485015260248401523060448401525af19182156106ae578392610673575b5060016103f69361063c843385612240565b55610645611e9b565b916040519161065383611d2e565b8252602082015261066382611f0b565b5261066d81611f0b565b506103e2565b9291506020833d6020116106a6575b8161068f60209383611d49565b810103126106a25791519091600161062a565b5f80fd5b3d9150610682565b6040513d85823e3d90fd5b91506020823d6020116106f5575b816106d460209383611d49565b810103126106f05760646106e9602093611d6c565b92506105d2565b505050fd5b3d91506106c7565b60405162461bcd60e51b815260206004820152601160248201527061546f6b656e3a20616c6c6f77616e636560781b6044820152606490fd5b9150506020813d602011610763575b8161075260209383611d49565b810103126106a2578390515f610570565b3d9150610745565b92505f61053c565b90506020813d60201161079d575b8161078e60209383611d49565b810103126106a257515f610533565b3d9150610781565b6040513d89823e3d90fd5b60405162461bcd60e51b815260206004820152601060248201526f18551bdad95b881b9bdd08199bdd5b9960821b6044820152606490fd5b8093929351600a811015610e7b57600303610a505750516001600160a01b03169061081161237c565b60405163026b1d5f60e01b81526020816004817f00000000000000000000000000000000000000000000000000000000000000006001600160a01b03165afa908115610967575f91610a16575b506001600160a01b03169061087482151561227c565b61087d81612057565b6001600160a01b031691505080156109df5760206040518092631af5db4960e21b825281806108b0308a60048401611f47565b03915afa80156109675785915f916109aa575b501061097257813b156106a2575f9160a48392604051948593849263a415bcad60e01b845260018060a01b0316978860048501528960248501526002604485015261ffff7f000000000000000000000000000000000000000000000000000000000000000016606485015260848401525af1938415610967576103f694610954575b6001915061063c843385612240565b505f61095f91611d49565b60015f610945565b6040513d5f823e3d90fd5b60405162461bcd60e51b815260206004820152601060248201526f626f72726f7720616c6c6f77616e636560801b6044820152606490fd5b9150506020813d6020116109d7575b816109c660209383611d49565b810103126106a2578490515f6108c3565b3d91506109b9565b60405162461bcd60e51b815260206004820152600f60248201526e1d9119589d081b9bdd08199bdd5b99608a1b6044820152606490fd5b90506020813d602011610a48575b81610a3160209383611d49565b810103126106a257610a4290611d6c565b5f61085e565b3d9150610a24565b809192945051600a811015610e7b57600403610d975750516001600160a01b031690610a7a61237c565b60405163026b1d5f60e01b8152916020836004817f00000000000000000000000000000000000000000000000000000000000000006001600160a01b03165afa928315610967575f93610d5b575b506001600160a01b03831693610adf85151561227c565b6040516370a0823160e01b8152306004820152946001600160a01b03919091169390602086602481885afa958615610967575f96610d27575b50610b258430338861239a565b60405163095ea7b360e01b81528160048201525f60248201526020816044815f8a5af1801561096757610b78936020928792610d0c575b5060405163095ea7b360e01b8152948592839260048401611f61565b03815f895af18015610967575f93602093608492610cf1575b50604051948593849263573ade8160e01b84528960048501528860248501526002604485015260648401525af1908115610967575f91610cbf575b506040516370a0823160e01b8152306004820152602081602481875afa908115610967575f91610c8b575b5082906103f69583151580610c81575b15610c4e575050505b80821115610c4557610c21916122dc565b905b81610c35575b60015f55610645611e9b565b610c40823383612240565b610c29565b50505f90610c23565b90829350610c5d8193836122cf565b1115610c7a57610c7592610c70916122cf565b6122dc565b610c10565b5050610c10565b5082841115610c07565b90506020813d602011610cb7575b81610ca660209383611d49565b810103126106a257516103f6610bf7565b3d9150610c99565b90506020813d602011610ce9575b81610cda60209383611d49565b810103126106a257515f610bcc565b3d9150610ccd565b610d0790853d87116104475761043a8183611d49565b610b91565b610d2290843d86116104475761043a8183611d49565b610b5c565b9095506020813d602011610d53575b81610d4360209383611d49565b810103126106a25751945f610b18565b3d9150610d36565b9092506020813d602011610d8f575b81610d7760209383611d49565b810103126106a257610d8890611d6c565b915f610ac8565b3d9150610d6a565b809193925051600a811015610e7b57600503610df8575090516103f69190610dc8906001600160a01b031682612006565b90610dd1611e9b565b9160405191610ddf83611d2e565b6001600160a01b03168252602082015261066382611f0b565b8051600a811015610e7b57600603610e25575090516103f69190610dc8906001600160a01b031682611f7c565b91505051600a811015610e7b57600903610e49576103f6610e44611e56565b6103e2565b60405162461bcd60e51b815260206004820152600a6024820152690556e6b6e6f776e206f760b41b6044820152606490fd5b634e487b7160e01b5f52602160045260245ffd5b5080519350600a841015610e7b576001869414610277565b610ece9397506020949550610ec0610ec5918385611efb565b611ee7565b96515191611efb565b0135905f80808061025d565b634e487b7160e01b5f52604160045260245ffd5b60405162461bcd60e51b815260206004820152601460248201527313db9b1e481c9bdd5d195c8818d85b8818d85b1b60621b6044820152606490fd5b346106a257610f3836611bc9565b91509192610f4584611d97565b92610f4f85611dc9565b945f5b818110610f8357610f75866103f689604051938493604085526040850190611c52565b908382036020850152611c8e565b610f8e818386611e12565b90610f9b60208301611ee7565b9160a08101358781106110d1575b503591600a8310156106a257600192600281036110265750610fca90612159565b610fd48289611f18565b90838060a01b0316905260405163095ea7b360e01b60208201523060248201525f604482015260448152611009606482611d49565b611013828a611f18565b5261101e8189611f18565b505b01610f52565b60030361109e5761103690612057565b915050828060a01b03168061104c575b50611020565b6110568289611f18565b52604051630c04a8a160e41b60208201523060248201525f604482015260448152611082606482611d49565b61108c828a611f18565b526110978189611f18565b5088611046565b505f6110aa8289611f18565b526040516110b9602082611d49565b5f81526110c6828a611f18565b526110468189611f18565b6110e2919350610ec0908887611efb565b9189610fa9565b346106a2575f3660031901126106a2576040517f00000000000000000000000000000000000000000000000000000000000000006001600160a01b03168152602090f35b346106a25760603660031901126106a2576004356001600160a01b038116908190036106a2576024356001600160a01b03811681036106a257604051638da5cb5b60e01b815260443591906020816004817f00000000000000000000000000000000000000000000000000000000000000006001600160a01b03165afa908115610967575f91611295575b506001600160a01b0316330361125c576040516370a0823160e01b815230600482015291602083602481875afa928315610967575f93611228575b505f1981036112225750815b80831161121a575b508161120f57005b61121892612240565b005b915083611207565b916111ff565b9092506020813d602011611254575b8161124460209383611d49565b810103126106a2575191846111f3565b3d9150611237565b60405162461bcd60e51b815260206004820152601160248201527027b7363c903937baba32b91037bbb732b960791b6044820152606490fd5b90506020813d6020116112c7575b816112b060209383611d49565b810103126106a2576112c190611d6c565b846111b8565b3d91506112a3565b346106a2576112dd36611bc9565b92936112eb85939293611d97565b936112f586611dc9565b925f945f5b8881106118ad575061130b86611d80565b956113196040519788611d49565b808752611328601f1991611d80565b015f5b81811061188a5750505f975f5b81811061137b5761135f896103f68a61136d8b604051958695606087526060870190611c52565b908582036020870152611c8e565b908382036040850152611ce6565b611386818388611e12565b61139260208201611ee7565b9a60608201359160a0810135888110611862575b508035600a8110156106a25760028103611537575060209c9190506001600160a01b036113d283612159565b16916040519d8e636eb1769f60e11b8152806113f2308c60048401611f47565b0381865afa9d8e15610967575f9e6114fc575b50928c9261144b836114458f9589989660019a976040519061142682611d2e565b8c8060a01b0316815287602082015261143f8383611f18565b52611f18565b50611e48565b9e8280151591826114f1575b50501561149a57505061146b905f92611f18565b5260405161147a602082611d49565b5f8152611487828a611f18565b526114928189611f18565b505b01611338565b6114aa6114d6936114c895611f18565b5260405163095ea7b360e01b60208201529283913060248401611f61565b03601f198101835282611d49565b6114e0828a611f18565b526114eb8189611f18565b50611494565b10159050825f611457565b919493909d506020823d821161152f575b8161151a60209383611d49565b810103126106a25790519c9293909284611405565b3d915061150d565b9293926003810361168b575050611589906115518d612057565b9e9150506040519061156282611d2e565b6001600160a01b031681526020810185905261157e828d611f18565b52611445818c611f18565b9a6001600160a01b0316806115c45750600191505f6115a8828c611f18565b526040516115b7602082611d49565b5f81526114e0828a611f18565b604051631af5db4960e21b815292602084806115e4308b60048401611f47565b0381855afa938415610967575f94611658575b50806001941015908161164e575b501561161757505f6115a8828c611f18565b611621828c611f18565b52604051630c04a8a160e41b60208201523060248201525f196044820152604481526114d6606482611d49565b905015158d611605565b93506020843d8211611683575b8161167260209383611d49565b810103126106a257925192806115f7565b3d9150611665565b929c939192909190600581036117235750506116ac60406116b29201611ee7565b83612006565b906103e98202918083046103e9149015171561170f576001926103e861170393604051926116df84611d2e565b868060a01b031683520460208201526116f8828c611f18565b52611445818b611f18565b995f6115a8828c611f18565b634e487b7160e01b5f52601160045260245ffd5b6006810361174257505061173c60406116b29201611ee7565b83611f7c565b9293929091506004810361177f575050600191611703916040519061176682611d2e565b848060a01b031681525f60208201526116f8828c611f18565b600991939c9250145f146118535760405163026b1d5f60e01b8152916020836004817f00000000000000000000000000000000000000000000000000000000000000006001600160a01b03165afa8015610967575f9061181a575b600193506117e8838d611f18565b90848060a01b0316905260ff604051916328530a4760e01b6020840152166024820152602481526114d6604482611d49565b506020833d821161184b575b8161183360209383611d49565b810103126106a257611846600193611d6c565b6117da565b3d9150611826565b600191505f6115a8828c611f18565b9c5091506020611881611879610ec08f8b8a611efb565b9d8988611efb565b0135918d6113a6565b60209060405161189981611d2e565b5f81525f8382015282828b0101520161132b565b6118b8818a87611e12565b35600a8110156106a25760028114905f821561193a575b8215611929575b8215611918575b8215611907575b50506118f3575b6001016112fa565b956118ff600191611e48565b9690506118eb565b909150610e7b576004148a806118e4565b809250610e7b5760068114916118dd565b809250610e7b5760058114916118d6565b506003811491505f6118cf565b346106a2575f3660031901126106a257602060405161ffff7f0000000000000000000000000000000000000000000000000000000000000000168152f35b346106a2575f3660031901126106a2576040517f00000000000000000000000000000000000000000000000000000000000000006001600160a01b03168152602090f35b346106a25760203660031901126106a25760043560ff81168091036106a25760405163026b1d5f60e01b81526020816004817f00000000000000000000000000000000000000000000000000000000000000006001600160a01b03165afa908115610967575f91611a7f575b50604051916328530a4760e01b6020840152602483015260248252611a5b604483611d49565b6103f660405192839260018060a01b03168352604060208401526040830190611b61565b90506020813d602011611ab1575b81611a9a60209383611d49565b810103126106a257611aab90611d6c565b82611a35565b3d9150611a8d565b346106a2575f3660031901126106a25763026b1d5f60e01b81526020816004817f00000000000000000000000000000000000000000000000000000000000000006001600160a01b03165afa8015610967575f90611b27575b6040516001600160a01b039091168152602090f35b506020813d602011611b59575b81611b4160209383611d49565b810103126106a257611b54602091611d6c565b611b12565b3d9150611b34565b805180835260209291819084018484015e5f828201840152601f01601f1916010190565b35906001600160a01b03821682036106a257565b9181601f840112156106a2578235916001600160401b0383116106a2576020808501948460061b0101116106a257565b9060606003198301126106a257600435916001600160401b0383116106a257806023840112156106a2576004830135926001600160401b0384116106a2578160248560051b830101116106a2576024908101939290356001600160a01b03811681036106a25791604435906001600160401b0382116106a257611c4e91600401611b99565b9091565b90602080835192838152019201905f5b818110611c6f5750505090565b82516001600160a01b0316845260209384019390920191600101611c62565b9080602083519182815201916020808360051b8301019401925f915b838310611cb957505050505090565b9091929394602080611cd7600193601f198682030187528951611b61565b97019301930191939290611caa565b90602080835192838152019201905f5b818110611d035750505090565b825180516001600160a01b031685526020908101518186015260409094019390920191600101611cf6565b604081019081106001600160401b03821117610eda57604052565b601f909101601f19168101906001600160401b03821190821017610eda57604052565b51906001600160a01b03821682036106a257565b6001600160401b038111610eda5760051b60200190565b90611da182611d80565b611dae6040519182611d49565b8281528092611dbf601f1991611d80565b0190602036910137565b90611dd382611d80565b611de06040519182611d49565b8281528092611df1601f1991611d80565b01905f5b828110611e0157505050565b806060602080938501015201611df5565b9190811015611e345760051b8101359060be19813603018212156106a2570190565b634e487b7160e01b5f52603260045260245ffd5b5f19811461170f5760010190565b60405190611e65602083611d49565b5f80835282815b828110611e7857505050565b602090604051611e8781611d2e565b5f81525f8382015282828501015201611e6c565b60408051909190611eac8382611d49565b6001815291601f1901825f5b828110611ec457505050565b602090604051611ed381611d2e565b5f81525f8382015282828501015201611eb8565b356001600160a01b03811681036106a25790565b9190811015611e345760061b0190565b805115611e345760200190565b8051821015611e345760209160051b010190565b6001600160401b038111610eda57601f01601f191660200190565b6001600160a01b0391821681529116602082015260400190565b6001600160a01b039091168152602081019190915260400190565b611f8590612057565b50506001600160a01b03169081611f9c5750505f90565b6040516370a0823160e01b81526001600160a01b03909116600482015290602090829060249082905afa908115610967575f91611fd7575090565b90506020813d602011611ffe575b81611ff260209383611d49565b810103126106a2575190565b3d9150611fe5565b61200f90612057565b6001600160a01b03169291505081611f9c5750505f90565b908160609103126106a25761203b81611d6c565b91612054604061204d60208501611d6c565b9301611d6c565b90565b60405163e860accb60e01b8152906020826004817f00000000000000000000000000000000000000000000000000000000000000006001600160a01b03165afa918215610967575f9261211b575b506040516334924edb60e21b81526001600160a01b0391821660048201529160609183916024918391165afa908115610967575f915f915f916120e9575b50909192565b91505061210e915060603d606011612114575b6121068183611d49565b810190612027565b5f6120e3565b503d6120fc565b9091506020813d602011612151575b8161213760209383611d49565b810103126106a25761214a606091611d6c565b91906120a5565b3d915061212a565b60405163e860accb60e01b8152906020826004817f00000000000000000000000000000000000000000000000000000000000000006001600160a01b03165afa918215610967575f92612202575b506040516334924edb60e21b81526001600160a01b0391821660048201529160609183916024918391165afa908115610967575f916121e4575090565b6121fd915060603d606011612114576121068183611d49565b505090565b9091506020813d602011612238575b8161221e60209383611d49565b810103126106a257612231606091611d6c565b91906121a7565b3d9150612211565b61227561227a939261226760405194859263a9059cbb60e01b602085015260248401611f61565b03601f198101845283611d49565b6122e9565b565b1561228357565b60405162461bcd60e51b815260206004820152600c60248201526b141bdbdb081b9bdd081cd95d60a21b6044820152606490fd5b908160209103126106a2575180151581036106a25790565b9190820180921161170f57565b9190820391821161170f57565b5f806123319260018060a01b03169360208151910182865af13d15612374573d9061231382611f2c565b916123216040519384611d49565b82523d5f602084013e5b836123de565b8051908115159182612359575b50506123475750565b635274afe760e01b5f5260045260245ffd5b61236c92506020809183010191016122b7565b155f8061233e565b60609061232b565b60025f541461238b5760025f55565b633ee5aeb560e01b5f5260045ffd5b6040516323b872dd60e01b60208201526001600160a01b03928316602482015292909116604483015260648083019390935291815261227a91612275608483611d49565b9061240257508051156123f357805190602001fd5b630a12f52160e11b5f5260045ffd5b81511580612433575b612413575090565b639996b31560e01b5f9081526001600160a01b0391909116600452602490fd5b50803b1561240b56fea26469706673582212202a40289547fe34d65dfe87b84912c82e13a175de2a1599b2adfd500b7eb7790464736f6c634300081e0033",
  "devdoc": {
    "errors": {
      "AddressEmptyCode(address)": [
        {
          "details": "There's no code at `target` (it is not a contract)."
        }
      ],
      "AddressInsufficientBalance(address)": [
        {
          "details": "The ETH balance of the account is not enough to perform the operation."
        }
      ],
      "FailedInnerCall()": [
        {
          "details": "A call to an address target failed. The target may have reverted."
        }
      ],
      "ReentrancyGuardReentrantCall()": [
        {
          "details": "Unauthorized reentrant call."
        }
      ],
      "SafeERC20FailedOperation(address)": [
        {
          "details": "An operation with an ERC20 token failed."
        }
      ]
    },
    "kind": "dev",
    "methods": {
      "encodeSetEMode(uint8)": {
        "params": {
          "categoryId": "The E-Mode category ID (0 = disable E-Mode)"
        },
        "returns": {
          "callData": "The encoded function call",
          "target": "The Aave Pool address"
        }
      }
    },
    "version": 1
  },
  "userdoc": {
    "kind": "user",
    "methods": {
      "ROUTER()": {
        "notice": "Immutable router address that can call protected functions"
      },
      "authorize((uint8,address,address,uint256,bytes,(uint256))[],address,(address,uint256)[])": {
        "notice": "Return user-side authorization calls for the given lending instructions.         One element per input (or (address(0), bytes(\"\")) if none needed).         Also returns the produced outputs from the simulation of these instructions."
      },
      "encodeSetEMode(uint8)": {
        "notice": "Helper to encode setUserEMode calldata"
      },
      "getPool()": {
        "notice": "Returns the Aave Pool address for direct calls (e.g., setUserEMode)"
      },
      "recoverTokens(address,address,uint256)": {
        "notice": "Recover stuck tokens (only callable by router's owner)"
      }
    },
    "version": 1
  },
  "storageLayout": {
    "storage": [
      {
        "astId": 3093,
        "contract": "contracts/v2/gateways/aave/AaveGatewayWrite.sol:AaveGatewayWrite",
        "label": "_status",
        "offset": 0,
        "slot": "0",
        "type": "t_uint256"
      }
    ],
    "types": {
      "t_uint256": {
        "encoding": "inplace",
        "label": "uint256",
        "numberOfBytes": "32"
      }
    }
  }
}