{
  "address": "0xAF3fa2E73151D2D4007F775749ff78bEa4DA2A77",
  "abi": [
    {
      "inputs": [
        {
          "internalType": "address",
          "name": "_poolAddressesProvider",
          "type": "address"
        },
        {
          "internalType": "address",
          "name": "_uiPoolDataProvider",
          "type": "address"
        }
      ],
      "stateMutability": "nonpayable",
      "type": "constructor"
    },
    {
      "inputs": [
        {
          "internalType": "address",
          "name": "user",
          "type": "address"
        }
      ],
      "name": "borrowedTokens",
      "outputs": [
        {
          "internalType": "address[]",
          "name": "",
          "type": "address[]"
        }
      ],
      "stateMutability": "view",
      "type": "function"
    },
    {
      "inputs": [
        {
          "internalType": "address",
          "name": "underlyingToken",
          "type": "address"
        }
      ],
      "name": "getAToken",
      "outputs": [
        {
          "internalType": "address",
          "name": "",
          "type": "address"
        }
      ],
      "stateMutability": "view",
      "type": "function"
    },
    {
      "inputs": [
        {
          "internalType": "address",
          "name": "user",
          "type": "address"
        }
      ],
      "name": "getAllTokensInfo",
      "outputs": [
        {
          "components": [
            {
              "internalType": "address",
              "name": "token",
              "type": "address"
            },
            {
              "internalType": "uint256",
              "name": "supplyRate",
              "type": "uint256"
            },
            {
              "internalType": "uint256",
              "name": "borrowRate",
              "type": "uint256"
            },
            {
              "internalType": "string",
              "name": "name",
              "type": "string"
            },
            {
              "internalType": "string",
              "name": "symbol",
              "type": "string"
            },
            {
              "internalType": "uint256",
              "name": "price",
              "type": "uint256"
            },
            {
              "internalType": "uint256",
              "name": "borrowBalance",
              "type": "uint256"
            },
            {
              "internalType": "uint256",
              "name": "balance",
              "type": "uint256"
            },
            {
              "internalType": "address",
              "name": "aToken",
              "type": "address"
            },
            {
              "internalType": "uint8",
              "name": "decimals",
              "type": "uint8"
            }
          ],
          "internalType": "struct AaveGatewayView.TokenInfo[]",
          "name": "",
          "type": "tuple[]"
        }
      ],
      "stateMutability": "view",
      "type": "function"
    },
    {
      "inputs": [
        {
          "internalType": "address",
          "name": "token",
          "type": "address"
        },
        {
          "internalType": "address",
          "name": "user",
          "type": "address"
        }
      ],
      "name": "getBalance",
      "outputs": [
        {
          "internalType": "uint256",
          "name": "",
          "type": "uint256"
        }
      ],
      "stateMutability": "view",
      "type": "function"
    },
    {
      "inputs": [
        {
          "internalType": "address",
          "name": "token",
          "type": "address"
        },
        {
          "internalType": "address",
          "name": "user",
          "type": "address"
        }
      ],
      "name": "getBorrowBalance",
      "outputs": [
        {
          "internalType": "uint256",
          "name": "",
          "type": "uint256"
        }
      ],
      "stateMutability": "view",
      "type": "function"
    },
    {
      "inputs": [
        {
          "internalType": "address",
          "name": "token",
          "type": "address"
        },
        {
          "internalType": "address",
          "name": "user",
          "type": "address"
        }
      ],
      "name": "getBorrowBalanceCurrent",
      "outputs": [
        {
          "internalType": "uint256",
          "name": "",
          "type": "uint256"
        }
      ],
      "stateMutability": "nonpayable",
      "type": "function"
    },
    {
      "inputs": [
        {
          "internalType": "address",
          "name": "token",
          "type": "address"
        }
      ],
      "name": "getBorrowRate",
      "outputs": [
        {
          "internalType": "uint256",
          "name": "",
          "type": "uint256"
        },
        {
          "internalType": "bool",
          "name": "",
          "type": "bool"
        }
      ],
      "stateMutability": "view",
      "type": "function"
    },
    {
      "inputs": [
        {
          "internalType": "address",
          "name": "token",
          "type": "address"
        },
        {
          "internalType": "address",
          "name": "user",
          "type": "address"
        }
      ],
      "name": "getPossibleCollaterals",
      "outputs": [
        {
          "internalType": "address[]",
          "name": "collateralAddresses",
          "type": "address[]"
        },
        {
          "internalType": "uint256[]",
          "name": "balances",
          "type": "uint256[]"
        },
        {
          "internalType": "string[]",
          "name": "symbols",
          "type": "string[]"
        },
        {
          "internalType": "uint8[]",
          "name": "decimals",
          "type": "uint8[]"
        }
      ],
      "stateMutability": "view",
      "type": "function"
    },
    {
      "inputs": [
        {
          "internalType": "address",
          "name": "token",
          "type": "address"
        }
      ],
      "name": "getSupplyRate",
      "outputs": [
        {
          "internalType": "uint256",
          "name": "",
          "type": "uint256"
        },
        {
          "internalType": "bool",
          "name": "",
          "type": "bool"
        }
      ],
      "stateMutability": "view",
      "type": "function"
    },
    {
      "inputs": [
        {
          "internalType": "address",
          "name": "market",
          "type": "address"
        }
      ],
      "name": "getSupportedCollaterals",
      "outputs": [
        {
          "internalType": "address[]",
          "name": "collateralAddresses",
          "type": "address[]"
        }
      ],
      "stateMutability": "view",
      "type": "function"
    },
    {
      "inputs": [
        {
          "internalType": "address",
          "name": "aToken",
          "type": "address"
        }
      ],
      "name": "getUnderlyingToken",
      "outputs": [
        {
          "internalType": "address",
          "name": "",
          "type": "address"
        }
      ],
      "stateMutability": "view",
      "type": "function"
    },
    {
      "inputs": [
        {
          "internalType": "address",
          "name": "market",
          "type": "address"
        },
        {
          "internalType": "address",
          "name": "collateral",
          "type": "address"
        }
      ],
      "name": "isCollateralSupported",
      "outputs": [
        {
          "internalType": "bool",
          "name": "isSupported",
          "type": "bool"
        }
      ],
      "stateMutability": "view",
      "type": "function"
    },
    {
      "inputs": [],
      "name": "poolAddressesProvider",
      "outputs": [
        {
          "internalType": "contract IPoolAddressesProvider",
          "name": "",
          "type": "address"
        }
      ],
      "stateMutability": "view",
      "type": "function"
    },
    {
      "inputs": [],
      "name": "uiPoolDataProvider",
      "outputs": [
        {
          "internalType": "contract IUiPoolDataProviderV3",
          "name": "",
          "type": "address"
        }
      ],
      "stateMutability": "view",
      "type": "function"
    }
  ],
  "transactionHash": "0x8fd26ee66c1080225f4463c4e73734facfac848dc25cb701e73f7ef845a3b0f4",
  "args": [
    "0x89502c3731F69DDC95B65753708A07F8Cd0373F4",
    "0xf751969521E20A972A0776CDB0497Fad0F773F1F"
  ],
  "numDeployments": 3,
  "solcInputHash": "7d6cf9fe3a0dd7107ffb2116fb947481",
  "bytecode": "0x60c03461011857601f6121e338819003918201601f19168301916001600160401b0383118484101761011c57808492604094855283398101031261011857610052602061004b83610130565b9201610130565b6001600160a01b039182166080521660a05260405161209e9081610145823960805181818161015d0152818161030e015281816103ca0152818161053c01528181610b5a015281816115880152818161182b015281816119a701528181611a9c01528181611b9501528181611d030152611de5015260a05181818161019b015281816102ca015281816103fb01528181610567015281816115bd01528181611864015281816119d801528181611acd01528181611bce01528181611d340152611e190152f35b5f80fd5b634e487b7160e01b5f52604160045260245ffd5b51906001600160a01b03821682036101185756fe60806040526004361015610011575f80fd5b5f3560e01c8063104e999d14610955578063118e31b7146100b3578063401d45d01461050c57806366e2d09b14610399578063691bcc88146103735780636b5441a914610378578063732a52ee14610373578063784661131461033d57806380e17d87146102f9578063c3a3a9a7146102b5578063ceac55df14610129578063d4fac45d146100f5578063d71275f6146100b85763e94201c7146100b3575f80fd5b610aff565b346100f15760203660031901126100f1576100d96100d4610a73565b611cec565b604080519283529015156020830152819081015b0390f35b5f80fd5b346100f15760403660031901126100f1576020610121610113610a73565b61011b610a89565b90611b66565b604051908152f35b346100f15760203660031901126100f1576101975f610146610a73565b6040516301465d3360e61b81526001600160a01b037f000000000000000000000000000000000000000000000000000000000000000081166004830152909116602482015291829081906044820190565b03817f00000000000000000000000000000000000000000000000000000000000000006001600160a01b03165afa9081156102aa575f91610287575b505f5f5b82518110156102105760606101ec82856111c9565b5101516101fc575b6001016101d7565b906102086001916111f1565b9190506101f4565b5061021a9061114e565b905f915f5b825181101561027157806060610237600193866111c9565b510151610245575b0161021f565b818060a01b0361025582866111c9565b51511661026b610264876111f1565b96856111c9565b5261023f565b604051602080825281906100ed90820185610a9f565b6102a391503d805f833e61029b8183610cbd565b81019061172d565b50816101d3565b6040513d5f823e3d90fd5b346100f1575f3660031901126100f1576040517f00000000000000000000000000000000000000000000000000000000000000006001600160a01b03168152602090f35b346100f1575f3660031901126100f1576040517f00000000000000000000000000000000000000000000000000000000000000006001600160a01b03168152602090f35b346100f15760403660031901126100f157610356610a73565b506020610369610364610a89565b611a85565b6040519015158152f35b610b2b565b346100f15760203660031901126100f1576100d9610394610a73565b611990565b346100f15760203660031901126100f1576103b2610a73565b5060405163ec489c2160e01b81526001600160a01b037f0000000000000000000000000000000000000000000000000000000000000000811660048301525f90829060249082907f0000000000000000000000000000000000000000000000000000000000000000165afa9081156102aa575f916104e9575b505f5f5b82518110156104695761010061044582856111c9565b510151610455575b60010161042f565b906104616001916111f1565b91905061044d565b506104739061114e565b905f905f5b81518110156104d35761010061048e82846111c9565b51015161049e575b600101610478565b916001906104cb906001600160a01b036104b886866111c9565b5151166104c582886111c9565b526111f1565b929050610496565b604051602080825281906100ed90820187610a9f565b61050591503d805f833e6104fd8183610cbd565b810190610d8d565b508161042b565b346100f15760203660031901126100f157610525610a73565b60405163ec489c2160e01b81526001600160a01b037f0000000000000000000000000000000000000000000000000000000000000000818116600484015292907f0000000000000000000000000000000000000000000000000000000000000000165f83602481845afa9283156102aa575f93610930575b506040516301465d3360e61b81526001600160a01b03948516600482015293821660248501529192915f9083908180604481015b03915afa9182156102aa575f92610913575b508251906105f082610cde565b916105fe6040519384610cbd565b80835261060d601f1991610cde565b015f5b8181106108bd5750505f5b84518110156107d257610639848361063384896111c9565b51611ee2565b9085610650868561064a85856111c9565b51611fa5565b601290600460206001600160a01b0361066987876111c9565b5151166040519283809263313ce56760e01b82525afa5f9181610789575b509560ff939291600197610781575b506001600160801b036101c06106bf888a8060a01b036106b6828b6111c9565b515116986111c9565b51015116918b6001600160801b036101e06106da8a846111c9565b5101511660206106ea8a846111c9565b51015160406106f98b856111c9565b510151916102c061070a8c866111c9565b510151936102206107218d8f8060a01b03936111c9565b51015116966040519a6107338c610c72565b8b5260208b015260408a01526060890152608088015260a087015260c086015260e08501526101008401521661012082015261076f82866111c9565b5261077a81856111c9565b500161061b565b92508b610696565b9392915093506020833d82116107ca575b816107a760209383610cbd565b810103126100f1576001958a946107bf60ff95610d7f565b929394509096610687565b3d915061079a565b826040518091602082016020835281518091526040830190602060408260051b8601019301915f905b82821061080a57505050500390f35b919360019193955060208091603f19898203018552875190848060a01b03825116815282820151838201526040820151604082015261012060ff8161087561086360608701516101406060880152610140870190610adb565b60808701518682036080880152610adb565b9460a081015160a086015260c081015160c086015260e081015160e0860152888060a01b036101008201511661010086015201511691015296019201920185949391926107fb565b6020906040516108cc81610c72565b5f81525f838201525f6040820152606080820152606060808201525f60a08201525f60c08201525f60e08201525f6101008201525f61012082015282828701015201610610565b6109289192503d805f833e61029b8183610cbd565b5090836105e3565b6105d193505f9161094b84923d8086833e6104fd8183610cbd565b509450915061059d565b346100f15760403660031901126100f15761096e610a73565b5061099761098261097d610a89565b611213565b91604051948594608086526080860190610a9f565b8481036020860152602080835192838152019201905f5b818110610a5a575050508381036040850152815180825260208201916020808360051b8301019401925f915b838310610a275750505050508281036060840152602080835192838152019201905f5b818110610a0b575050500390f35b825160ff168452859450602093840193909201916001016109fd565b91939596509193602080610a47600193601f198682030187528951610adb565b97019301930190928796959492936109da565b82518452879650602093840193909201916001016109ae565b600435906001600160a01b03821682036100f157565b602435906001600160a01b03821682036100f157565b90602080835192838152019201905f5b818110610abc5750505090565b82516001600160a01b0316845260209384019390920191600101610aaf565b805180835260209291819084018484015e5f828201840152601f01601f1916010190565b346100f15760403660031901126100f1576020610121610b1d610a73565b610b25610a89565b906117fb565b346100f15760203660031901126100f157610b44610a73565b60405163e860accb60e01b8152906020826004817f00000000000000000000000000000000000000000000000000000000000000006001600160a01b03165afa9182156102aa575f92610c34575b506040516334924edb60e21b81526001600160a01b0391821660048201529160609183916024918391165afa80156102aa575f90610be0575b6040516001600160a01b039091168152602090f35b506060813d606011610c2c575b81610bfa60609383610cbd565b810103126100f15780610c266040610c13602094610cf5565b92610c1f858201610cf5565b5001610cf5565b50610bcb565b3d9150610bed565b9091506020813d602011610c6a575b81610c5060209383610cbd565b810103126100f157610c63606091610cf5565b9190610b92565b3d9150610c43565b61014081019081106001600160401b03821117610c8e57604052565b634e487b7160e01b5f52604160045260245ffd5b608081019081106001600160401b03821117610c8e57604052565b90601f801991011681019081106001600160401b03821117610c8e57604052565b6001600160401b038111610c8e5760051b60200190565b51906001600160a01b03821682036100f157565b81601f820112156100f1578051906001600160401b038211610c8e5760405192610d3d601f8401601f191660200185610cbd565b828452602083830101116100f157815f9260208093018386015e8301015290565b519081151582036100f157565b51906001600160801b03821682036100f157565b519060ff821682036100f157565b808203929160a084126100f15781516001600160401b0381116100f157820181601f820112156100f157805190610dc382610cde565b92610dd16040519485610cbd565b82845260208085019360051b830101918183116100f15760208101935b838510610e4257505050505060809093601f1901126100f157610e3a608060405192610e1984610ca2565b60208101518452604081015160208501526060810151604085015201610d7f565b606082015290565b84516001600160401b0381116100f157820190610520828503601f1901126100f1576040519061052082018281106001600160401b03821117610c8e57604052610e8e60208401610cf5565b825260408301516001600160401b0381116100f157856020610eb292860101610d09565b602083015260608301516001600160401b0381116100f157856020610ed992860101610d09565b60408301526080830151606083015260a0830151608083015260c083015160a083015260e083015160c083015261010083015160e0830152610f1e6101208401610d5e565b610100830152610f316101408401610d5e565b610120830152610f446101608401610d5e565b610140830152610f576101808401610d5e565b610160830152610f6a6101a08401610d6b565b610180830152610f7d6101c08401610d6b565b6101a0830152610f906101e08401610d6b565b6101c0830152610fa36102008401610d6b565b6101e08301526102208301519164ffffffffff831683036100f15761113d6105206020958695610200850152610fdc6102408201610cf5565b610220850152610fef6102608201610cf5565b6102408501526110026102808201610cf5565b6102608501526102a08101516102808501526102c08101516102a08501526102e08101516102c08501526110396103008201610cf5565b6102e085015261032081015161030085015261034081015161032085015261036081015161034085015261038081015161036085015261107c6103a08201610d5e565b61038085015261108f6103c08201610d5e565b6103a08501526110a26103e08201610d6b565b6103c08501526110b56104008201610d6b565b6103e08501526110c86104208201610d6b565b6104008501526110db6104408201610d5e565b6104208501526104608101516104408501526104808101516104608501526104a08101516104808501526104c08101516104a085015261111e6104e08201610d5e565b6104c08501526111316105008201610d5e565b6104e085015201610d6b565b610500820152815201940193610dee565b9061115882610cde565b6111656040519182610cbd565b8281528092611176601f1991610cde565b0190602036910137565b9061118a82610cde565b6111976040519182610cbd565b82815280926111a8601f1991610cde565b01905f5b8281106111b857505050565b8060606020809385010152016111ac565b80518210156111dd5760209160051b010190565b634e487b7160e01b5f52603260045260245ffd5b5f1981146111ff5760010190565b634e487b7160e01b5f52601160045260245ffd5b6001600160a01b03169081156115715760405191630401d45d60e41b835260048301525f82602481305afa9182156102aa575f926113f7575b505f915f5b815181101561128a5760e061126682846111c9565b510151611276575b600101611251565b926112826001916111f1565b93905061126e565b506112948361114e565b9061129e8461114e565b936112b16112ab82611180565b9161114e565b945f935f5b84518110156113ec5760e06112cb82876111c9565b5101516112db575b6001016112b6565b946001600160a01b036112ee87876111c9565b5151166112fb82846111c9565b5260e061130887876111c9565b51015161131582856111c9565b52608061132287876111c9565b51015161132f82866111c9565b5261133a81856111c9565b50600460206001600160a01b0361135189896111c9565b5151166040519283809263313ce56760e01b82525afa5f91816113a9575b509161138c91600193155f14611394575060126104c5828c6111c9565b9590506112d3565b60ff6113a0838d6111c9565b911690526111f1565b9150916020823d82116113e4575b816113c460209383610cbd565b810103126100f1576001926113db61138c93610d7f565b9250909261136f565b3d91506113b7565b509590949193509150565b9091503d805f833e6114098183610cbd565b8101906020818303126100f1578051906001600160401b0382116100f157019080601f830112156100f15781519161144083610cde565b9261144e6040519485610cbd565b80845260208085019160051b830101918383116100f15760208101915b83831061147e575050505050905f61124c565b82516001600160401b0381116100f157820190610140828703601f1901126100f157604051906114ad82610c72565b6114b960208401610cf5565b8252604083015160208301526060830151604083015260808301516001600160401b0381116100f1578760206114f192860101610d09565b606083015260a0830151916001600160401b0383116100f157611560610140856115238b602080999881990101610d09565b608085015260c081015160a085015260e081015160c085015261010081015160e08501526115546101208201610cf5565b61010085015201610d7f565b61012082015281520192019161146b565b60405163ec489c2160e01b81526001600160a01b037f000000000000000000000000000000000000000000000000000000000000000081166004830152919250905f90829060249082907f0000000000000000000000000000000000000000000000000000000000000000165afa9081156102aa575f91611712575b508051906115fa8261114e565b926116048361114e565b9361160e84611180565b936116188161114e565b935f5b82811061162b5750505093929190565b6004906001600160a01b0361164082856111c9565b51511661164d82876111c9565b52604061165a82856111c9565b510151611667828a6111c9565b5261167281896111c9565b5060206001600160a01b0361168783866111c9565b5151166040519384809263313ce56760e01b82525afa805f916116d7575b600193506116c2575060126116ba82896111c9565b525b0161161b565b60ff6116ce838a6111c9565b911690526116bc565b90506020833d821161170a575b816116f160209383610cbd565b810103126100f157611704600193610d7f565b906116a5565b3d91506116e4565b61172691503d805f833e6104fd8183610cbd565b505f6115ed565b91906040838203126100f15782516001600160401b0381116100f157830181601f820112156100f15780519061176282610cde565b926117706040519485610cbd565b82845260208085019360071b830101918183116100f157602001925b8284106117a7575050505060206117a4919301610d7f565b90565b6080848303126100f15760206080916040516117c281610ca2565b6117cb87610cf5565b815282870151838201526117e160408801610d5e565b60408201526060870151606082015281520193019261178c565b9061180582611dce565b9091508061197e575b611909575b506040516301465d3360e61b81526001600160a01b037f00000000000000000000000000000000000000000000000000000000000000008116600483015290911660248201525f81806044810103817f00000000000000000000000000000000000000000000000000000000000000006001600160a01b03165afa9081156102aa575f916118ee575b505f5b81518110156118e7576001600160a01b036118ba82846111c9565b5151166001600160a01b038416146118d45760010161189f565b606092506118e1916111c9565b51015190565b5050505f90565b61190291503d805f833e61029b8183610cbd565b505f61189c565b6040516370a0823160e01b81526001600160a01b038381166004830152909160209183916024918391165afa5f918161194a575b5015611813575b91505090565b9091506020813d602011611976575b8161196660209383610cbd565b810103126100f15751905f61193d565b3d9150611959565b506001600160a01b038116151561180e565b60405163ec489c2160e01b81526001600160a01b037f0000000000000000000000000000000000000000000000000000000000000000811660048301525f90829060249082907f0000000000000000000000000000000000000000000000000000000000000000165afa9081156102aa575f91611a6a575b505f5b8151811015611a61576001600160a01b03611a2682846111c9565b5151166001600160a01b03841614611a4057600101611a0b565b6001600160801b039250611a57906101c0926111c9565b5101511690600190565b5050505f905f90565b611a7e91503d805f833e6104fd8183610cbd565b505f611a08565b60405163ec489c2160e01b81526001600160a01b037f0000000000000000000000000000000000000000000000000000000000000000811660048301525f90829060249082907f0000000000000000000000000000000000000000000000000000000000000000165afa9081156102aa575f91611b4b575b505f5b81518110156118e7576001600160a01b03611b1b82846111c9565b5151166001600160a01b03841614611b3557600101611b00565b6101009250611b43916111c9565b510151151590565b611b5f91503d805f833e6104fd8183610cbd565b505f611afd565b90611b7082611dce565b905080611cda575b611c66575b506040516301465d3360e61b81526001600160a01b037f00000000000000000000000000000000000000000000000000000000000000008116600483015290911660248201525f81806044810103817f00000000000000000000000000000000000000000000000000000000000000006001600160a01b03165afa9081156102aa575f91611c4b575b505f5b81518110156118e7576001600160a01b03611c2482846111c9565b5151166001600160a01b03841614611c3e57600101611c09565b602092506118e1916111c9565b611c5f91503d805f833e61029b8183610cbd565b505f611c06565b6040516370a0823160e01b81526001600160a01b038381166004830152909160209183916024918391165afa5f9181611ca6575b5015611b7d5791505090565b9091506020813d602011611cd2575b81611cc260209383610cbd565b810103126100f15751905f611c9a565b3d9150611cb5565b506001600160a01b0381161515611b78565b60405163ec489c2160e01b81526001600160a01b037f0000000000000000000000000000000000000000000000000000000000000000811660048301525f90829060249082907f0000000000000000000000000000000000000000000000000000000000000000165afa9081156102aa575f91611db3575b505f5b8151811015611a61576001600160a01b03611d8282846111c9565b5151166001600160a01b03841614611d9c57600101611d67565b6001600160801b039250611a57906101e0926111c9565b611dc791503d805f833e6104fd8183610cbd565b505f611d64565b60405163ec489c2160e01b81526001600160a01b037f0000000000000000000000000000000000000000000000000000000000000000811660048301529192915f90829060249082907f0000000000000000000000000000000000000000000000000000000000000000165afa5f9181611ec5575b50611e53575b505f915081908190565b5f5b8151811015611eba576001600160a01b03611e7082846111c9565b5151166001600160a01b03851614611e8a57600101611e55565b9250610240611a576001600160a01b03610220611ea787866111c9565b51015116946001600160a01b03936111c9565b50509050805f611e49565b611eda9192503d805f833e6104fd8183610cbd565b50905f611e43565b919060018060a01b03610220840151169081611f34575b50505f5b81518110156118e7576001600160a01b03611f1882846111c9565b515184516001600160a01b0316911614611c3e57600101611efd565b6040516370a0823160e01b81526001600160a01b03909116600482015290602090829060249082905afa5f9181611f71575b506119445780611ef9565b9091506020813d602011611f9d575b81611f8d60209383610cbd565b810103126100f15751905f611f66565b3d9150611f80565b919060018060a01b03610240840151169081611ff7575b50505f5b81518110156118e7576001600160a01b03611fdb82846111c9565b515184516001600160a01b03169116146118d457600101611fc0565b6040516370a0823160e01b81526001600160a01b03909116600482015290602090829060249082905afa5f9181612034575b506119445780611fbc565b9091506020813d602011612060575b8161205060209383610cbd565b810103126100f15751905f612029565b3d915061204356fea2646970667358221220b295d5e09423b13658c3432a743e9574a304d7cc6316b1e495b85808cdb64a2264736f6c634300081e0033",
  "devdoc": {
    "details": "Contains all read/view functions from v1, separate from write operations",
    "kind": "dev",
    "methods": {
      "getAllTokensInfo(address)": {
        "details": "This function caches the reserves and user reserves data to avoid multiple heavy calls."
      },
      "getBalance(address,address)": {
        "details": "First attempts to call balanceOf on the associated aToken; if that fails, falls back to user reserves data."
      },
      "getBorrowBalance(address,address)": {
        "details": "First attempts to call balanceOf on the associated variable debt token; if that fails, falls back to user reserves data."
      }
    },
    "title": "AaveGatewayView",
    "version": 1
  },
  "userdoc": {
    "kind": "user",
    "methods": {
      "borrowedTokens(address)": {
        "notice": "Returns the list of tokens that the user has borrowed."
      },
      "getAllTokensInfo(address)": {
        "notice": "Returns all token info for a given user."
      },
      "getBalance(address,address)": {
        "notice": "Gets the balance for a given token and user."
      },
      "getBorrowBalance(address,address)": {
        "notice": "Gets the borrow balance for a given token and user."
      }
    },
    "notice": "View-only gateway for Aave v3 protocol",
    "version": 1
  },
  "storageLayout": {
    "storage": [],
    "types": null
  }
}