{
  "address": "0x95f202828Cde09c9b90b2Cd33A36C954d2fB134f",
  "abi": [
    {
      "inputs": [
        {
          "internalType": "address",
          "name": "router",
          "type": "address"
        },
        {
          "internalType": "address",
          "name": "owner_",
          "type": "address"
        }
      ],
      "stateMutability": "nonpayable",
      "type": "constructor"
    },
    {
      "inputs": [
        {
          "internalType": "address",
          "name": "target",
          "type": "address"
        }
      ],
      "name": "AddressEmptyCode",
      "type": "error"
    },
    {
      "inputs": [
        {
          "internalType": "address",
          "name": "account",
          "type": "address"
        }
      ],
      "name": "AddressInsufficientBalance",
      "type": "error"
    },
    {
      "inputs": [],
      "name": "FailedInnerCall",
      "type": "error"
    },
    {
      "inputs": [
        {
          "internalType": "address",
          "name": "owner",
          "type": "address"
        }
      ],
      "name": "OwnableInvalidOwner",
      "type": "error"
    },
    {
      "inputs": [
        {
          "internalType": "address",
          "name": "account",
          "type": "address"
        }
      ],
      "name": "OwnableUnauthorizedAccount",
      "type": "error"
    },
    {
      "inputs": [],
      "name": "ReentrancyGuardReentrantCall",
      "type": "error"
    },
    {
      "inputs": [
        {
          "internalType": "address",
          "name": "token",
          "type": "address"
        }
      ],
      "name": "SafeERC20FailedOperation",
      "type": "error"
    },
    {
      "anonymous": false,
      "inputs": [
        {
          "indexed": true,
          "internalType": "address",
          "name": "baseToken",
          "type": "address"
        },
        {
          "indexed": true,
          "internalType": "address",
          "name": "comet",
          "type": "address"
        }
      ],
      "name": "CometRegistered",
      "type": "event"
    },
    {
      "anonymous": false,
      "inputs": [
        {
          "indexed": true,
          "internalType": "address",
          "name": "baseToken",
          "type": "address"
        },
        {
          "indexed": true,
          "internalType": "address",
          "name": "oldComet",
          "type": "address"
        },
        {
          "indexed": true,
          "internalType": "address",
          "name": "newComet",
          "type": "address"
        }
      ],
      "name": "CometReplaced",
      "type": "event"
    },
    {
      "anonymous": false,
      "inputs": [
        {
          "indexed": true,
          "internalType": "address",
          "name": "previousOwner",
          "type": "address"
        },
        {
          "indexed": true,
          "internalType": "address",
          "name": "newOwner",
          "type": "address"
        }
      ],
      "name": "OwnershipTransferred",
      "type": "event"
    },
    {
      "inputs": [],
      "name": "ROUTER",
      "outputs": [
        {
          "internalType": "address",
          "name": "",
          "type": "address"
        }
      ],
      "stateMutability": "view",
      "type": "function"
    },
    {
      "inputs": [
        {
          "internalType": "contract ICompoundComet",
          "name": "comet",
          "type": "address"
        }
      ],
      "name": "addComet",
      "outputs": [],
      "stateMutability": "nonpayable",
      "type": "function"
    },
    {
      "inputs": [],
      "name": "allComets",
      "outputs": [
        {
          "internalType": "address[]",
          "name": "",
          "type": "address[]"
        }
      ],
      "stateMutability": "view",
      "type": "function"
    },
    {
      "inputs": [
        {
          "components": [
            {
              "internalType": "enum ProtocolTypes.LendingOp",
              "name": "op",
              "type": "uint8"
            },
            {
              "internalType": "address",
              "name": "token",
              "type": "address"
            },
            {
              "internalType": "address",
              "name": "user",
              "type": "address"
            },
            {
              "internalType": "uint256",
              "name": "amount",
              "type": "uint256"
            },
            {
              "internalType": "bytes",
              "name": "context",
              "type": "bytes"
            },
            {
              "components": [
                {
                  "internalType": "uint256",
                  "name": "index",
                  "type": "uint256"
                }
              ],
              "internalType": "struct ProtocolTypes.InputPtr",
              "name": "input",
              "type": "tuple"
            }
          ],
          "internalType": "struct ProtocolTypes.LendingInstruction[]",
          "name": "instrs",
          "type": "tuple[]"
        },
        {
          "internalType": "address",
          "name": "caller",
          "type": "address"
        },
        {
          "components": [
            {
              "internalType": "address",
              "name": "token",
              "type": "address"
            },
            {
              "internalType": "uint256",
              "name": "amount",
              "type": "uint256"
            }
          ],
          "internalType": "struct ProtocolTypes.Output[]",
          "name": "inputs",
          "type": "tuple[]"
        }
      ],
      "name": "authorize",
      "outputs": [
        {
          "internalType": "address[]",
          "name": "targets",
          "type": "address[]"
        },
        {
          "internalType": "bytes[]",
          "name": "data",
          "type": "bytes[]"
        },
        {
          "components": [
            {
              "internalType": "address",
              "name": "token",
              "type": "address"
            },
            {
              "internalType": "uint256",
              "name": "amount",
              "type": "uint256"
            }
          ],
          "internalType": "struct ProtocolTypes.Output[]",
          "name": "produced",
          "type": "tuple[]"
        }
      ],
      "stateMutability": "view",
      "type": "function"
    },
    {
      "inputs": [
        {
          "internalType": "address",
          "name": "token",
          "type": "address"
        },
        {
          "internalType": "address",
          "name": "user",
          "type": "address"
        },
        {
          "internalType": "uint256",
          "name": "amount",
          "type": "uint256"
        }
      ],
      "name": "borrow",
      "outputs": [],
      "stateMutability": "nonpayable",
      "type": "function"
    },
    {
      "inputs": [
        {
          "components": [
            {
              "internalType": "enum ProtocolTypes.LendingOp",
              "name": "op",
              "type": "uint8"
            },
            {
              "internalType": "address",
              "name": "token",
              "type": "address"
            },
            {
              "internalType": "address",
              "name": "user",
              "type": "address"
            },
            {
              "internalType": "uint256",
              "name": "amount",
              "type": "uint256"
            },
            {
              "internalType": "bytes",
              "name": "context",
              "type": "bytes"
            },
            {
              "components": [
                {
                  "internalType": "uint256",
                  "name": "index",
                  "type": "uint256"
                }
              ],
              "internalType": "struct ProtocolTypes.InputPtr",
              "name": "input",
              "type": "tuple"
            }
          ],
          "internalType": "struct ProtocolTypes.LendingInstruction[]",
          "name": "instrs",
          "type": "tuple[]"
        },
        {
          "internalType": "address",
          "name": "",
          "type": "address"
        },
        {
          "components": [
            {
              "internalType": "address",
              "name": "token",
              "type": "address"
            },
            {
              "internalType": "uint256",
              "name": "amount",
              "type": "uint256"
            }
          ],
          "internalType": "struct ProtocolTypes.Output[]",
          "name": "inputs",
          "type": "tuple[]"
        }
      ],
      "name": "deauthorize",
      "outputs": [
        {
          "internalType": "address[]",
          "name": "targets",
          "type": "address[]"
        },
        {
          "internalType": "bytes[]",
          "name": "data",
          "type": "bytes[]"
        }
      ],
      "stateMutability": "view",
      "type": "function"
    },
    {
      "inputs": [
        {
          "internalType": "address",
          "name": "token",
          "type": "address"
        },
        {
          "internalType": "address",
          "name": "onBehalfOf",
          "type": "address"
        },
        {
          "internalType": "uint256",
          "name": "amount",
          "type": "uint256"
        }
      ],
      "name": "deposit",
      "outputs": [],
      "stateMutability": "nonpayable",
      "type": "function"
    },
    {
      "inputs": [
        {
          "internalType": "address",
          "name": "market",
          "type": "address"
        },
        {
          "internalType": "address",
          "name": "collateral",
          "type": "address"
        },
        {
          "internalType": "uint256",
          "name": "amount",
          "type": "uint256"
        },
        {
          "internalType": "address",
          "name": "receiver",
          "type": "address"
        }
      ],
      "name": "depositCollateral",
      "outputs": [],
      "stateMutability": "nonpayable",
      "type": "function"
    },
    {
      "inputs": [],
      "name": "owner",
      "outputs": [
        {
          "internalType": "address",
          "name": "",
          "type": "address"
        }
      ],
      "stateMutability": "view",
      "type": "function"
    },
    {
      "inputs": [
        {
          "components": [
            {
              "internalType": "address",
              "name": "token",
              "type": "address"
            },
            {
              "internalType": "uint256",
              "name": "amount",
              "type": "uint256"
            }
          ],
          "internalType": "struct ProtocolTypes.Output[]",
          "name": "inputs",
          "type": "tuple[]"
        },
        {
          "internalType": "bytes",
          "name": "data",
          "type": "bytes"
        }
      ],
      "name": "processLendingInstruction",
      "outputs": [
        {
          "components": [
            {
              "internalType": "address",
              "name": "token",
              "type": "address"
            },
            {
              "internalType": "uint256",
              "name": "amount",
              "type": "uint256"
            }
          ],
          "internalType": "struct ProtocolTypes.Output[]",
          "name": "outputs",
          "type": "tuple[]"
        }
      ],
      "stateMutability": "nonpayable",
      "type": "function"
    },
    {
      "inputs": [],
      "name": "renounceOwnership",
      "outputs": [],
      "stateMutability": "nonpayable",
      "type": "function"
    },
    {
      "inputs": [
        {
          "internalType": "address",
          "name": "token",
          "type": "address"
        },
        {
          "internalType": "address",
          "name": "user",
          "type": "address"
        },
        {
          "internalType": "uint256",
          "name": "amount",
          "type": "uint256"
        }
      ],
      "name": "repay",
      "outputs": [],
      "stateMutability": "nonpayable",
      "type": "function"
    },
    {
      "inputs": [
        {
          "internalType": "address",
          "name": "baseToken",
          "type": "address"
        },
        {
          "internalType": "address",
          "name": "comet_",
          "type": "address"
        }
      ],
      "name": "setCometForBase",
      "outputs": [],
      "stateMutability": "nonpayable",
      "type": "function"
    },
    {
      "inputs": [
        {
          "internalType": "address",
          "name": "",
          "type": "address"
        }
      ],
      "name": "tokenToComet",
      "outputs": [
        {
          "internalType": "contract ICompoundComet",
          "name": "",
          "type": "address"
        }
      ],
      "stateMutability": "view",
      "type": "function"
    },
    {
      "inputs": [
        {
          "internalType": "address",
          "name": "newOwner",
          "type": "address"
        }
      ],
      "name": "transferOwnership",
      "outputs": [],
      "stateMutability": "nonpayable",
      "type": "function"
    },
    {
      "inputs": [
        {
          "internalType": "address",
          "name": "market",
          "type": "address"
        },
        {
          "internalType": "address",
          "name": "collateral",
          "type": "address"
        },
        {
          "internalType": "address",
          "name": "user",
          "type": "address"
        },
        {
          "internalType": "uint256",
          "name": "amount",
          "type": "uint256"
        }
      ],
      "name": "withdrawCollateral",
      "outputs": [
        {
          "internalType": "address",
          "name": "",
          "type": "address"
        },
        {
          "internalType": "uint256",
          "name": "",
          "type": "uint256"
        }
      ],
      "stateMutability": "nonpayable",
      "type": "function"
    }
  ],
  "transactionHash": "0x62339c431bbdbe95d34e5c889540c1141b48ca22b84b25cff24e4e532b5474e0",
  "args": [
    "0xf7ec4d5FC2c6C6ae4364E92D36334A3f887Dda9e",
    "0x0BE61223F99E57b8b8B7033a77B54Adc7f7cF027"
  ],
  "numDeployments": 5,
  "solcInputHash": "3fffc1972e14c89a9a8ad22dbf8f3e34",
  "bytecode": "0x60a03461014f57601f612ec738819003918201601f19168301916001600160401b0383118484101761015357808492604094855283398101031261014f57610052602061004b83610167565b9201610167565b906001600160a01b0381161561011f576080526001600160a01b0316801561010c575f80546001600160a01b031981168317825560405192916001600160a01b03909116907f8be0079c531659141344cd1fd0a4f28419497f9722a3daafe3b4186f6b6457e09080a360018055612d4b908161017c823960805181818161017a0152818161038d01528181610405015281816105c401528181611224015281816119b101528181611d5401528181611f6501526123a00152f35b631e4fbdf760e01b5f525f60045260245ffd5b60405162461bcd60e51b81526020600482015260086024820152670726f757465723d360c41b6044820152606490fd5b5f80fd5b634e487b7160e01b5f52604160045260245ffd5b51906001600160a01b038216820361014f5756fe60806040526004361015610011575f80fd5b5f3560e01c80631da649cf146100e257806326e46ed31461010f5780632a8e3a491461010a57806332fe7b26146101055780634108d0af146101005780635224372c146100fb57806352ed5875146100f65780635820ba63146100f1578063715018a6146100ec578063755f62ce146100e75780638340f549146100e25780638da5cb5b146100dd5780639f2204e8146100d8578063aad11a3f146100d3578063ae4be46d146100ce5763f2fde38b146100c9575f80fd5b6118d9565b61184e565b611571565b61143e565b611417565b610162565b61138e565b611326565b6111e8565b610894565b6105b1565b6103bc565b610378565b610217565b6101d4565b6001600160a01b0381160361012557565b5f80fd5b359061013482610114565b565b60609060031901126101255760043561014e81610114565b9060243561015b81610114565b9060443590565b34610125576101b561017336610136565b916101a8337f00000000000000000000000000000000000000000000000000000000000000006001600160a01b031614611962565b6101b0612b33565b611ac4565b60018055005b6001600160a01b03165f90815260026020526040902090565b34610125576020366003190112610125576004356101f181610114565b60018060a01b03165f526002602052602060018060a01b0360405f205416604051908152f35b346101255760203660031901126101255760043561023481610114565b61023c612ba4565b60405163c55dae6360e01b81526001600160a01b03821691602082600481865afa918215610369575f92610334575b506001600160a01b038216916102dd91906102be9061028b851515611c32565b6101bb6102b96102b56102ae8960018060a01b03165f52600460205260405f2090565b5460ff1690565b1590565b611c71565b80546001600160a01b0319166001600160a01b03909216919091179055565b6001600160a01b0382165f90815260046020526040902061030590805460ff19166001179055565b61030e82611cd1565b7fbd7bf039bc2e612983f7f581f4b5d456d978092d546243d55a7b3f8594fb97965f80a3005b6102dd91925061035b9060203d602011610362575b6103538183611a80565b810190611c1d565b919061026b565b503d610349565b611ab9565b5f91031261012557565b34610125575f366003190112610125576040517f00000000000000000000000000000000000000000000000000000000000000006001600160a01b03168152602090f35b34610125576080366003190112610125576004356103d981610114565b602435906103e682610114565b60443561045461044861043b606435946103ff86610114565b610433337f00000000000000000000000000000000000000000000000000000000000000006001600160a01b031614611962565b6101bb612b33565b546001600160a01b031690565b6001600160a01b031690565b6104686001600160a01b0382161515611ec8565b6001600160a01b03841661047e83303384612b53565b60405163095ea7b360e01b81526001600160a01b03831660048201525f6024820152602081806044810103815f865af1801561036957610594575b5060405163095ea7b360e01b81526001600160a01b03831660048201526024810184905290602090829060449082905f905af1801561036957610567575b50803b1561012557604051634232cd6360e01b81526001600160a01b03938416600482015293909216602484015260448301525f908290606490829084905af180156103695761054d575b61054b60018055565b005b8061055b5f61056193611a80565b8061036e565b5f610542565b6105889060203d60201161058d575b6105808183611a80565b810190611aa1565b6104f7565b503d610576565b6105ac9060203d60201161058d576105808183611a80565b6104b9565b34610125576105bf36610136565b9091337f00000000000000000000000000000000000000000000000000000000000000006001600160a01b03161480156106a5575b6105fd90611f13565b610605612b33565b6001600160a01b0381165f908152600260205260409020610629906104489061043b565b61063d6001600160a01b03821615156119e5565b803b1561012557825f91838361066c97604051988995869485936304c8826360e31b855230906004860161204c565b03925af19283156103695761054293610691575b5033906001600160a01b0316612bca565b8061055b5f61069f93611a80565b5f610680565b50336001600160a01b038416146105f4565b9181601f84011215610125578235916001600160401b038311610125576020808501948460061b01011161012557565b90606060031983011261012557600435916001600160401b0383116101255780602384011215610125578260040135926001600160401b038411610125578160248560051b830101116101255760240192916107436024610129565b91604435906001600160401b03821161012557610762916004016106b7565b9091565b90602080835192838152019201905f5b8181106107835750505090565b82516001600160a01b0316845260209384019390920191600101610776565b9080602083519182815201916020808360051b8301019401925f915b8383106107cd57505050505090565b909192939460208080600193601f19868203018752818a518051918291828552018484015e5f828201840152601f01601f1916010197019594919091019201906107be565b90602080835192838152019201905f5b81811061082f5750505090565b825180516001600160a01b031685526020908101518186015260409094019390920191600101610822565b91610883906108756108919593606086526060860190610766565b9084820360208601526107a2565b916040818403910152610812565b90565b34610125576108a2366106e7565b93906108ad8461209d565b936108b7816120cf565b955f5f5b83811061113657506108cc90612224565b945f925f5b8181106108ec57604051806108e88a8d8d8461085a565b0390f35b6108f7818389612118565b61091661091161090a608084018461227f565b36916122cc565b612c03565b9061092360208201612302565b9160608201359060a0830135888b818310611105575b50505061094583612162565b61094e81612144565b1580156110ea575b15610aec5750604051636eb1769f60e11b81526001600160a01b038716600482015230602482015291602083806044810103816001600160a01b0388165afa92831561036957858f8f9294876004976109f2975f91610abe575b50828015159182610ab3575b505015610a565750505f6109d3836109ec9561236f565b526109dc612383565b6109e6838361236f565b5261236f565b50612162565b6109fb81612144565b14610a0c575b506001905b016108d1565b60019195610a4f91610a2e610a1f612077565b6001600160a01b039092168252565b5f6020820152610a3e828c61236f565b52610a49818b61236f565b50612180565b9490610a01565b610aa591610a7d6109dc92610a6e876109ec9961236f565b6001600160a01b039091169052565b60405163095ea7b360e01b602082015230602482015260448101919091529182906064820190565b03601f198101835282611a80565b10159050825f6109bc565b610adf915060203d8111610ae5575b610ad78183611a80565b81019061231c565b5f6109b0565b503d610acd565b909392916001610afb82612162565b610b0481612144565b1480156110a2575b15610be2575050604051636eb1769f60e11b81526001600160a01b038616600482015230602482015292602084806044810103816001600160a01b0386165afa90811561036957838d926001965f91610bc4575b50828015159182610bb9575b505015610ba55790505f9250610b819161236f565b52610b8a612383565b610b94828d61236f565b52610b9f818c61236f565b50610a06565b610aa593610a6e610a7d92610b8a9561236f565b10159050825f610b6c565b610bdc915060203d8111610ae557610ad78183611a80565b5f610b60565b6002610bf1829a94959a612162565b610bfa81612144565b03610d4357506001600160a01b03811615610d1f576001600160a01b03165f908152600260205260409020610c32906104489061043b565b60405163a165437960e01b81526001600160a01b038716600482015230602482015293909290602085604481875afa801561036957898f8f9296610cba976001995f91610d01575b5015610cc057505f6109d383610c8f9561236f565b505b610cab610c9c612077565b6001600160a01b039093168352565b6020820152610a3e828c61236f565b94610a06565b610cd190610a6e84610cfb9661236f565b60405163110496e560e01b6020820152306024820152600160448201526109dc8160648101610aa5565b50610c91565b610d19915060203d811161058d576105808183611a80565b5f610c7a565b50610c3261044861043b846001600160a01b03165f90815260026020526040902090565b906003610d4f83612162565b610d5881612144565b03610d835750506001600160a01b0382165f908152600260205260409020610c32906104489061043b565b90919293506005610d9383612162565b610d9c81612144565b03610e8057506001600160a01b0383165f908152600260205260409020610dc6906104489061043b565b906001600160a01b038216610dfe575050610df290600192610c91610dea5f61234a565b6103e8900490565b945f610b81828c61236f565b610e3d9291610e11604060209301612302565b604051630dd3126d60e21b81526001600160a01b03909116600482015293849190829081906024820190565b03915afa92831561036957610c91610dea600195610df2955f91610e62575b5061234a565b610e7a915060203d8111610ae557610ad78183611a80565b5f610e5c565b6006610e8f8399959499612162565b610e9881612144565b14610ea9575b505050600190610a06565b9296926001600160a01b038116801515908161108e575b5015610fe4576001600160a01b03165f908152600260205260409020610ee9906104489061043b565b906001600160a01b038216610f40575050600191610f0d91610c91610dea5f61234a565b945f610f19828c61236f565b52610f22612383565b610f2c828d61236f565b52610f37818c61236f565b50905f80610e9e565b82610f889492610f54604060209401612302565b604051632e12a4f760e11b81526001600160a01b039182166004820152921660248301529094859190829081906044820190565b03915afa91821561036957610c91610dea6001600160801b03610f0d956001975f91610fb6575b501661234a565b610fd7915060203d8111610fdd575b610fcf8183611a80565b81019061232b565b5f610faf565b503d610fc5565b5061100761044861043b84959460018060a01b03165f52600260205260405f2090565b906001600160a01b03821661102b575050610f0d90600192610c91610dea5f61234a565b61106a929161103e604060209301612302565b6040516370a0823160e01b81526001600160a01b03909116600482015293849190829081906024820190565b03915afa92831561036957610c91610dea600195610f0d955f91610e62575061234a565b6001600160a01b038516141590505f610ec0565b506110ac81612162565b6110b581612144565b15806110d8575b8015610b0c57506001600160a01b038281169084161415610b0c565b506001600160a01b03821615156110bc565b5060046110f684612162565b6110ff81612144565b14610956565b8261112b93975060209495506111239261111e9261230c565b612302565b94898c61230c565b0135905f888b610939565b611149611144828689612118565b612162565b61115281612144565b600281149081156111d3575b81156111be575b81156111a9575b8115611195575b50611181575b6001016108bb565b9061118d600191612180565b919050611179565b600691506111a281612144565b145f611173565b90506111b481612144565b600581149061116c565b90506111c981612144565b6004811490611165565b90506111de81612144565b600381149061115e565b346101255760803660031901126101255760043561120581610114565b60243561121181610114565b60443561121d81610114565b60643592337f00000000000000000000000000000000000000000000000000000000000000006001600160a01b0316148015611314575b61125d90611f13565b611265612b33565b6001600160a01b039081165f908152600260205260409020546112889116610448565b61129c6001600160a01b0382161515611ec8565b803b1561012557835f9184836112cb95604051968795869485936304c8826360e31b855233906004860161204c565b03925af1801561036957611300575b506112e460018055565b604080516001600160a01b039290921682526020820192909252f35b8061055b5f61130e93611a80565b5f6112da565b50336001600160a01b03831614611254565b34610125575f3660031901126101255761133e612ba4565b5f80546001600160a01b0319811682556001600160a01b03167f8be0079c531659141344cd1fd0a4f28419497f9722a3daafe3b4186f6b6457e08280a3005b906020610891928181520190610766565b34610125575f3660031901126101255760405180602060035491828152019060035f527fc2575a0e9e593c00f959f8c92f12db2869c3395a3b0502d05e2516446f71f85b905f5b8181106113f8576108e8856113ec81870382611a80565b6040519182918261137d565b82546001600160a01b03168452602090930192600192830192016113d5565b34610125575f366003190112610125575f546040516001600160a01b039091168152602090f35b346101255760403660031901126101255760043561145b81610114565b60243561146781610114565b61146f612ba4565b6001600160a01b038216908115158061153a575b15611504578261030e916114bc6114b661044861044861043b6102be9960018060a01b03165f52600260205260405f2090565b1561248a565b6114e46114df6102b56102ae8460018060a01b03165f52600460205260405f2090565b6124d6565b6001600160a01b039182165f908152600260205260409020911693849190565b60405162461bcd60e51b815260206004820152600e60248201526d436f6d706f756e643a207a65726f60901b6044820152606490fd5b506001600160a01b0381161515611483565b909161156361089193604084526040840190610766565b9160208184039101526107a2565b346101255761157f366106e7565b909293915061158d8461209d565b92611597856120cf565b945f5b8181106115b057604051806108e889898361154c565b806115be6001928488612118565b6115d161091161090a608084018461227f565b6115dd60208301612302565b9160a0810135888110611825575b5060026115f782612162565b61160081612144565b036116be575061043b6104489161163b93868060a01b03821615155f146116a357506001600160a01b03165f90815260026020526040902090565b828060a01b038116611650575b505b0161159a565b61165e90610a6e838a61236f565b60405163110496e560e01b60208201523060248201525f60448201526116878160648101610aa5565b611691828a61236f565b5261169c818961236f565b505f611648565b90506001600160a01b03165f90815260026020526040902090565b905060036116cb82612162565b6116d481612144565b0361176357506001600160a01b03165f9081526002602052604090206116fd906104489061043b565b828060a01b038116611710575b5061164a565b61171e90610a6e838a61236f565b60405163110496e560e01b60208201523060248201525f60448201526117478160648101610aa5565b611751828a61236f565b5261175c818961236f565b505f61170a565b61176c81612162565b61177581612144565b15908115611809575b81156117ec575b50156117d75761179990610a6e838a61236f565b60405163095ea7b360e01b60208201523060248201525f60448201526117c28160648101610aa5565b6117cc828a61236f565b5261170a818961236f565b505f6117e3828961236f565b526117c2612383565b600491506117f990612162565b61180281612144565b145f611785565b90508361181582612162565b61181e81612144565b149061177e565b61183691935061111e90898961230c565b915f6115eb565b906020610891928181520190610812565b34610125576040366003190112610125576004356001600160401b0381116101255761187e9036906004016106b7565b90602435906001600160401b0382116101255736602383011215610125578160040135906001600160401b038211610125573660248385010111610125576108e89360246118cd94019161261a565b6040519182918261183d565b34610125576020366003190112610125576004356118f681610114565b6118fe612ba4565b6001600160a01b0316801561194f575f80546001600160a01b03198116831782556001600160a01b0316907f8be0079c531659141344cd1fd0a4f28419497f9722a3daafe3b4186f6b6457e09080a3005b631e4fbdf760e01b5f525f60045260245ffd5b1561196957565b60405162461bcd60e51b815260206004820152601460248201527313db9b1e481c9bdd5d195c8818d85b8818d85b1b60621b6044820152606490fd5b6119df9291906101a8337f00000000000000000000000000000000000000000000000000000000000000006001600160a01b031614611962565b60018055565b156119ec57565b60405162461bcd60e51b815260206004820152601e60248201527f436f6d706f756e643a206261736520636f6d6574206e6f7420666f756e6400006044820152606490fd5b634e487b7160e01b5f52604160045260245ffd5b604081019081106001600160401b03821117611a6057604052565b611a31565b60c081019081106001600160401b03821117611a6057604052565b90601f801991011681019081106001600160401b03821117611a6057604052565b90816020910312610125575180151581036101255790565b6040513d5f823e3d90fd5b91611ae561044861043b8560018060a01b03165f52600260205260405f2090565b611af96001600160a01b03821615156119e5565b6001600160a01b038416611b0f83303384612b53565b60405163095ea7b360e01b81526001600160a01b03831660048201525f6024820152602081806044810103815f865af1801561036957611c00575b5060405163095ea7b360e01b81526001600160a01b03831660048201526024810184905290602090829060449082905f905af1801561036957611be3575b50803b1561012557604051634232cd6360e01b81526001600160a01b03938416600482015293909216602484015260448301525f908290606490829084905af1801561036957611bd55750565b8061055b5f61013493611a80565b611bfb9060203d60201161058d576105808183611a80565b611b88565b611c189060203d60201161058d576105808183611a80565b611b4a565b90816020910312610125575161089181610114565b15611c3957565b60405162461bcd60e51b815260206004820152601060248201526f0436f6d706f756e643a20626173653d360841b6044820152606490fd5b15611c7857565b60405162461bcd60e51b815260206004820152601c60248201527f436f6d706f756e643a20616c72656164792072656769737465726564000000006044820152606490fd5b634e487b7160e01b5f52603260045260245ffd5b60035468010000000000000000811015611a60576001810180600355811015611d395760035f527fc2575a0e9e593c00f959f8c92f12db2869c3395a3b0502d05e2516446f71f85b0180546001600160a01b0319166001600160a01b03909216919091179055565b611cbd565b90929190611d82906104489061043b90610433337f00000000000000000000000000000000000000000000000000000000000000006001600160a01b031614611962565b611d966001600160a01b0382161515611ec8565b6001600160a01b038416611dac83303384612b53565b60405163095ea7b360e01b81526001600160a01b03831660048201525f6024820152602081806044810103815f865af1801561036957611eab575b5060405163095ea7b360e01b81526001600160a01b03831660048201526024810184905290602090829060449082905f905af1801561036957611e8e575b50803b1561012557604051634232cd6360e01b81526001600160a01b03938416600482015293909216602484015260448301525f908290606490829084905af1801561036957611e7a575b5061013460018055565b8061055b5f611e8893611a80565b5f611e70565b611ea69060203d60201161058d576105808183611a80565b611e25565b611ec39060203d60201161058d576105808183611a80565b611de7565b15611ecf57565b606460405162461bcd60e51b815260206004820152602060248201527f436f6d706f756e643a206d61726b657420636f6d6574206e6f7420666f756e646044820152fd5b15611f1a57565b60405162461bcd60e51b815260206004820152601c60248201527f4f6e6c7920726f75746572206f722073656c662063616e2063616c6c000000006044820152606490fd5b909190337f00000000000000000000000000000000000000000000000000000000000000006001600160a01b031614801561203a575b611f9e90611f13565b611fa6612b33565b6001600160a01b0381165f908152600260205260409020611fca906104489061043b565b611fde6001600160a01b03821615156119e5565b803b1561012557825f91838361200d97604051988995869485936304c8826360e31b855230906004860161204c565b03925af19283156103695761203193610691575033906001600160a01b0316612bca565b61013460018055565b50336001600160a01b03841614611f95565b6001600160a01b03918216815291811660208301529091166040820152606081019190915260800190565b60405190610134604083611a80565b6001600160401b038111611a605760051b60200190565b906120a782612086565b6120b46040519182611a80565b82815280926120c5601f1991612086565b0190602036910137565b906120d982612086565b6120e66040519182611a80565b82815280926120f7601f1991612086565b01905f5b82811061210757505050565b8060606020809385010152016120fb565b9190811015611d395760051b8101359060be1981360301821215610125570190565b6007111561012557565b6007111561214e57565b634e487b7160e01b5f52602160045260245ffd5b356108918161213a565b634e487b7160e01b5f52601160045260245ffd5b5f19811461218e5760010190565b61216c565b604080519091906121a48382611a80565b6001815291601f1901825f5b8281106121bc57505050565b6020906040516121cb81611a45565b5f81525f83820152828285010152016121b0565b604051906121ee602083611a80565b5f80835282815b82811061220157505050565b60209060405161221081611a45565b5f81525f83820152828285010152016121f5565b9061222e82612086565b61223b6040519182611a80565b828152809261224c601f1991612086565b01905f5b82811061225c57505050565b60209060405161226b81611a45565b5f81525f8382015282828501015201612250565b903590601e198136030182121561012557018035906001600160401b0382116101255760200191813603831361012557565b6001600160401b038111611a6057601f01601f191660200190565b9291926122d8826122b1565b916122e66040519384611a80565b829481845281830111610125578281602093845f960137010152565b3561089181610114565b9190811015611d395760061b0190565b90816020910312610125575190565b9081602091031261012557516001600160801b03811681036101255790565b906103e98202918083046103e9149015171561218e57565b805115611d395760200190565b8051821015611d395760209160051b010190565b60405190612392602083611a80565b5f8252565b929392909190337f00000000000000000000000000000000000000000000000000000000000000006001600160a01b0316148015612478575b6123d990611f13565b6123e1612b33565b6001600160a01b039081165f908152600260205260409020546124049116610448565b6124186001600160a01b0382161515611ec8565b803b1561012557845f91848361244795604051968795869485936304c8826360e31b855233906004860161204c565b03925af1801561036957612464575b5061246060018055565b9190565b8061055b5f61247293611a80565b5f612456565b50336001600160a01b038316146123d0565b1561249157565b60405162461bcd60e51b815260206004820152601b60248201527f436f6d706f756e643a20636f6d657420616c72656164792073657400000000006044820152606490fd5b156124dd57565b60405162461bcd60e51b815260206004820152602260248201527f436f6d706f756e643a20636f6d657420616c7265616479207265676973746572604482015261195960f21b6064820152608490fd5b9080601f8301121561012557816020610891933591016122cc565b919082602091031261012557604051602081018181106001600160401b03821117611a605760405291358252565b602081830312610125578035906001600160401b038211610125570160c08183031261012557604051916125a983611a65565b81356125b48161213a565b83526125c260208301610129565b60208401526125d360408301610129565b60408401526060820135606084015260808201356001600160401b03811161012557826126078360a093612612960161252d565b608086015201612548565b60a082015290565b909161262b90606094810190612576565b926126396080850151612c03565b60208501519093906001600160a01b0316918501519260a0860191825151818110612b06575b50505050835161266e81612144565b61267781612144565b6126ef576001600160a01b03831680151590816126db575b50156126b957604093909301516126b193906001600160a01b03165b92611d3e565b6108916121df565b604093909301516126d6939192506001600160a01b0316906119a5565b6126b1565b6001600160a01b038316141590505f61268f565b600184939594516126ff81612144565b61270881612144565b036127465792936126b193906001600160a01b038116156127395760406126ab91945b01516001600160a01b031690565b506126ab6040829461272b565b60028392935161275581612144565b61275e81612144565b036127d257929361279493906001600160a01b038116156127c557604061278e919301516001600160a01b031690565b91612397565b919061279e612193565b926127aa610c9c612077565b60208201526127b883612362565b526127c282612362565b50565b5061278e6040829361272b565b9193600382516127e181612144565b6127ea81612144565b036128115750604001516128099084906001600160a01b031683611f5f565b61279e612193565b6004829395925161282181612144565b61282a81612144565b0361286e57506040919091015161284b91906001600160a01b0316846119a5565b612853612193565b9161285f610a1f612077565b5f60208201526127b883612362565b90506005825161287d81612144565b61288681612144565b0361292e57506001600160a01b0383165f9081526002602052604090206128b0906104489061043b565b906001600160a01b0382166128cb5750505f9161279e612193565b6040908101519051630dd3126d60e21b81526001600160a01b03909116600482015290602090829060249082905afa908115610369575f9161290f575b5091612809565b612928915060203d602011610ae557610ad78183611a80565b5f612908565b6006825161293b81612144565b61294481612144565b03612aca576001600160a01b0381168015159081612ab6575b5015612a16576001600160a01b03165f908152600260205260409020612986906104489061043b565b90836001600160a01b0383166129a4575050505f5b9161279e612193565b6040918201519151632e12a4f760e11b81526001600160a01b0392831660048201529116602482015290602090829060449082905afa8015610369576001600160801b03915f916129f7575b501661299b565b612a10915060203d602011610fdd57610fcf8183611a80565b5f6129f0565b506001600160a01b0383165f908152600260205260409020612a3b906104489061043b565b906001600160a01b038216612a545750505f5b91612809565b60409081015190516370a0823160e01b81526001600160a01b03909116600482015290602090829060249082905afa908115610369575f91612a97575b50612a4e565b612ab0915060203d602011610ae557610ad78183611a80565b5f612a91565b6001600160a01b038616141590505f61295d565b60405162461bcd60e51b81526020600482015260146024820152730436f6d706f756e643a20756e6b6e6f776e206f760641b6044820152606490fd5b612b279395506020945061111e612b1e91838561230c565b9451519161230c565b0135905f80808061265f565b600260015414612b44576002600155565b633ee5aeb560e01b5f5260045ffd5b6040516323b872dd60e01b60208201526001600160a01b039283166024820152929091166044830152606482019290925261013491612b9f82608481015b03601f198101845283611a80565b612c1b565b5f546001600160a01b03163303612bb757565b63118cdaa760e01b5f523360045260245ffd5b60405163a9059cbb60e01b60208201526001600160a01b039092166024830152604482019290925261013491612b9f8260648101612b91565b905f91602081511015612c135750565b602001519150565b5f80612c639260018060a01b03169360208151910182865af13d15612caf573d90612c45826122b1565b91612c536040519384611a80565b82523d5f602084013e5b83612cb7565b8051908115159182612c94575b5050612c795750565b635274afe760e01b5f526001600160a01b031660045260245ffd5b612ca79250602080918301019101611aa1565b155f80612c70565b606090612c5d565b90612cdb5750805115612ccc57805190602001fd5b630a12f52160e11b5f5260045ffd5b81511580612d0c575b612cec575090565b639996b31560e01b5f9081526001600160a01b0391909116600452602490fd5b50803b15612ce456fea26469706673582212204790e5768011b1a1ae4a3d4843794198b2cc4f04c8f32fc6440a710f22d3566264736f6c634300081e0033",
  "devdoc": {
    "errors": {
      "AddressEmptyCode(address)": [
        {
          "details": "There's no code at `target` (it is not a contract)."
        }
      ],
      "AddressInsufficientBalance(address)": [
        {
          "details": "The ETH balance of the account is not enough to perform the operation."
        }
      ],
      "FailedInnerCall()": [
        {
          "details": "A call to an address target failed. The target may have reverted."
        }
      ],
      "OwnableInvalidOwner(address)": [
        {
          "details": "The owner is not a valid owner account. (eg. `address(0)`)"
        }
      ],
      "OwnableUnauthorizedAccount(address)": [
        {
          "details": "The caller account is not authorized to perform an operation."
        }
      ],
      "ReentrancyGuardReentrantCall()": [
        {
          "details": "Unauthorized reentrant call."
        }
      ],
      "SafeERC20FailedOperation(address)": [
        {
          "details": "An operation with an ERC20 token failed."
        }
      ]
    },
    "kind": "dev",
    "methods": {
      "owner()": {
        "details": "Returns the address of the current owner."
      },
      "renounceOwnership()": {
        "details": "Leaves the contract without owner. It will not be possible to call `onlyOwner` functions. Can only be called by the current owner. NOTE: Renouncing ownership will leave the contract without an owner, thereby disabling any functionality that is only available to the owner."
      },
      "transferOwnership(address)": {
        "details": "Transfers ownership of the contract to a new account (`newOwner`). Can only be called by the current owner."
      }
    },
    "version": 1
  },
  "userdoc": {
    "kind": "user",
    "methods": {
      "ROUTER()": {
        "notice": "Immutable router address that can call protected functions"
      },
      "authorize((uint8,address,address,uint256,bytes,(uint256))[],address,(address,uint256)[])": {
        "notice": "Return user-side authorization calls for the given lending instructions.         One element per input (or (address(0), bytes(\"\")) if none needed).         Also returns the produced outputs from the simulation of these instructions."
      }
    },
    "version": 1
  },
  "storageLayout": {
    "storage": [
      {
        "astId": 1432,
        "contract": "contracts/v2/gateways/compound/CompoundGatewayWrite.sol:CompoundGatewayWrite",
        "label": "_owner",
        "offset": 0,
        "slot": "0",
        "type": "t_address"
      },
      {
        "astId": 2269,
        "contract": "contracts/v2/gateways/compound/CompoundGatewayWrite.sol:CompoundGatewayWrite",
        "label": "_status",
        "offset": 0,
        "slot": "1",
        "type": "t_uint256"
      },
      {
        "astId": 8260,
        "contract": "contracts/v2/gateways/compound/CompoundGatewayWrite.sol:CompoundGatewayWrite",
        "label": "tokenToComet",
        "offset": 0,
        "slot": "2",
        "type": "t_mapping(t_address,t_contract(ICompoundComet)12550)"
      },
      {
        "astId": 8263,
        "contract": "contracts/v2/gateways/compound/CompoundGatewayWrite.sol:CompoundGatewayWrite",
        "label": "_comets",
        "offset": 0,
        "slot": "3",
        "type": "t_array(t_address)dyn_storage"
      },
      {
        "astId": 8267,
        "contract": "contracts/v2/gateways/compound/CompoundGatewayWrite.sol:CompoundGatewayWrite",
        "label": "_isRegistered",
        "offset": 0,
        "slot": "4",
        "type": "t_mapping(t_address,t_bool)"
      }
    ],
    "types": {
      "t_address": {
        "encoding": "inplace",
        "label": "address",
        "numberOfBytes": "20"
      },
      "t_array(t_address)dyn_storage": {
        "base": "t_address",
        "encoding": "dynamic_array",
        "label": "address[]",
        "numberOfBytes": "32"
      },
      "t_bool": {
        "encoding": "inplace",
        "label": "bool",
        "numberOfBytes": "1"
      },
      "t_contract(ICompoundComet)12550": {
        "encoding": "inplace",
        "label": "contract ICompoundComet",
        "numberOfBytes": "20"
      },
      "t_mapping(t_address,t_bool)": {
        "encoding": "mapping",
        "key": "t_address",
        "label": "mapping(address => bool)",
        "numberOfBytes": "32",
        "value": "t_bool"
      },
      "t_mapping(t_address,t_contract(ICompoundComet)12550)": {
        "encoding": "mapping",
        "key": "t_address",
        "label": "mapping(address => contract ICompoundComet)",
        "numberOfBytes": "32",
        "value": "t_contract(ICompoundComet)12550"
      },
      "t_uint256": {
        "encoding": "inplace",
        "label": "uint256",
        "numberOfBytes": "32"
      }
    }
  }
}