{
  "address": "0x24D1E6AC8FE5eB382a71C0caae1Ee72E6dD02dbD",
  "abi": [
    {
      "inputs": [
        {
          "internalType": "address",
          "name": "router",
          "type": "address"
        },
        {
          "internalType": "address",
          "name": "owner_",
          "type": "address"
        }
      ],
      "stateMutability": "nonpayable",
      "type": "constructor"
    },
    {
      "inputs": [
        {
          "internalType": "address",
          "name": "target",
          "type": "address"
        }
      ],
      "name": "AddressEmptyCode",
      "type": "error"
    },
    {
      "inputs": [
        {
          "internalType": "address",
          "name": "account",
          "type": "address"
        }
      ],
      "name": "AddressInsufficientBalance",
      "type": "error"
    },
    {
      "inputs": [],
      "name": "FailedInnerCall",
      "type": "error"
    },
    {
      "inputs": [
        {
          "internalType": "address",
          "name": "owner",
          "type": "address"
        }
      ],
      "name": "OwnableInvalidOwner",
      "type": "error"
    },
    {
      "inputs": [
        {
          "internalType": "address",
          "name": "account",
          "type": "address"
        }
      ],
      "name": "OwnableUnauthorizedAccount",
      "type": "error"
    },
    {
      "inputs": [],
      "name": "ReentrancyGuardReentrantCall",
      "type": "error"
    },
    {
      "inputs": [
        {
          "internalType": "address",
          "name": "token",
          "type": "address"
        }
      ],
      "name": "SafeERC20FailedOperation",
      "type": "error"
    },
    {
      "anonymous": false,
      "inputs": [
        {
          "indexed": true,
          "internalType": "address",
          "name": "baseToken",
          "type": "address"
        },
        {
          "indexed": true,
          "internalType": "address",
          "name": "comet",
          "type": "address"
        }
      ],
      "name": "CometRegistered",
      "type": "event"
    },
    {
      "anonymous": false,
      "inputs": [
        {
          "indexed": true,
          "internalType": "address",
          "name": "baseToken",
          "type": "address"
        },
        {
          "indexed": true,
          "internalType": "address",
          "name": "oldComet",
          "type": "address"
        },
        {
          "indexed": true,
          "internalType": "address",
          "name": "newComet",
          "type": "address"
        }
      ],
      "name": "CometReplaced",
      "type": "event"
    },
    {
      "anonymous": false,
      "inputs": [
        {
          "indexed": true,
          "internalType": "address",
          "name": "previousOwner",
          "type": "address"
        },
        {
          "indexed": true,
          "internalType": "address",
          "name": "newOwner",
          "type": "address"
        }
      ],
      "name": "OwnershipTransferred",
      "type": "event"
    },
    {
      "inputs": [],
      "name": "ROUTER",
      "outputs": [
        {
          "internalType": "address",
          "name": "",
          "type": "address"
        }
      ],
      "stateMutability": "view",
      "type": "function"
    },
    {
      "inputs": [
        {
          "internalType": "contract ICompoundComet",
          "name": "comet",
          "type": "address"
        }
      ],
      "name": "addComet",
      "outputs": [],
      "stateMutability": "nonpayable",
      "type": "function"
    },
    {
      "inputs": [],
      "name": "allComets",
      "outputs": [
        {
          "internalType": "address[]",
          "name": "",
          "type": "address[]"
        }
      ],
      "stateMutability": "view",
      "type": "function"
    },
    {
      "inputs": [
        {
          "components": [
            {
              "internalType": "enum ProtocolTypes.LendingOp",
              "name": "op",
              "type": "uint8"
            },
            {
              "internalType": "address",
              "name": "token",
              "type": "address"
            },
            {
              "internalType": "address",
              "name": "user",
              "type": "address"
            },
            {
              "internalType": "uint256",
              "name": "amount",
              "type": "uint256"
            },
            {
              "internalType": "bytes",
              "name": "context",
              "type": "bytes"
            },
            {
              "components": [
                {
                  "internalType": "uint256",
                  "name": "index",
                  "type": "uint256"
                }
              ],
              "internalType": "struct ProtocolTypes.InputPtr",
              "name": "input",
              "type": "tuple"
            }
          ],
          "internalType": "struct ProtocolTypes.LendingInstruction[]",
          "name": "instrs",
          "type": "tuple[]"
        },
        {
          "internalType": "address",
          "name": "caller",
          "type": "address"
        },
        {
          "components": [
            {
              "internalType": "address",
              "name": "token",
              "type": "address"
            },
            {
              "internalType": "uint256",
              "name": "amount",
              "type": "uint256"
            }
          ],
          "internalType": "struct ProtocolTypes.Output[]",
          "name": "inputs",
          "type": "tuple[]"
        }
      ],
      "name": "authorize",
      "outputs": [
        {
          "internalType": "address[]",
          "name": "targets",
          "type": "address[]"
        },
        {
          "internalType": "bytes[]",
          "name": "data",
          "type": "bytes[]"
        },
        {
          "components": [
            {
              "internalType": "address",
              "name": "token",
              "type": "address"
            },
            {
              "internalType": "uint256",
              "name": "amount",
              "type": "uint256"
            }
          ],
          "internalType": "struct ProtocolTypes.Output[]",
          "name": "produced",
          "type": "tuple[]"
        }
      ],
      "stateMutability": "view",
      "type": "function"
    },
    {
      "inputs": [
        {
          "components": [
            {
              "internalType": "enum ProtocolTypes.LendingOp",
              "name": "op",
              "type": "uint8"
            },
            {
              "internalType": "address",
              "name": "token",
              "type": "address"
            },
            {
              "internalType": "address",
              "name": "user",
              "type": "address"
            },
            {
              "internalType": "uint256",
              "name": "amount",
              "type": "uint256"
            },
            {
              "internalType": "bytes",
              "name": "context",
              "type": "bytes"
            },
            {
              "components": [
                {
                  "internalType": "uint256",
                  "name": "index",
                  "type": "uint256"
                }
              ],
              "internalType": "struct ProtocolTypes.InputPtr",
              "name": "input",
              "type": "tuple"
            }
          ],
          "internalType": "struct ProtocolTypes.LendingInstruction[]",
          "name": "instrs",
          "type": "tuple[]"
        },
        {
          "internalType": "address",
          "name": "",
          "type": "address"
        },
        {
          "components": [
            {
              "internalType": "address",
              "name": "token",
              "type": "address"
            },
            {
              "internalType": "uint256",
              "name": "amount",
              "type": "uint256"
            }
          ],
          "internalType": "struct ProtocolTypes.Output[]",
          "name": "inputs",
          "type": "tuple[]"
        }
      ],
      "name": "deauthorize",
      "outputs": [
        {
          "internalType": "address[]",
          "name": "targets",
          "type": "address[]"
        },
        {
          "internalType": "bytes[]",
          "name": "data",
          "type": "bytes[]"
        }
      ],
      "stateMutability": "view",
      "type": "function"
    },
    {
      "inputs": [],
      "name": "owner",
      "outputs": [
        {
          "internalType": "address",
          "name": "",
          "type": "address"
        }
      ],
      "stateMutability": "view",
      "type": "function"
    },
    {
      "inputs": [
        {
          "components": [
            {
              "internalType": "address",
              "name": "token",
              "type": "address"
            },
            {
              "internalType": "uint256",
              "name": "amount",
              "type": "uint256"
            }
          ],
          "internalType": "struct ProtocolTypes.Output[]",
          "name": "inputs",
          "type": "tuple[]"
        },
        {
          "internalType": "bytes",
          "name": "data",
          "type": "bytes"
        }
      ],
      "name": "processLendingInstruction",
      "outputs": [
        {
          "components": [
            {
              "internalType": "address",
              "name": "token",
              "type": "address"
            },
            {
              "internalType": "uint256",
              "name": "amount",
              "type": "uint256"
            }
          ],
          "internalType": "struct ProtocolTypes.Output[]",
          "name": "outputs",
          "type": "tuple[]"
        }
      ],
      "stateMutability": "nonpayable",
      "type": "function"
    },
    {
      "inputs": [
        {
          "internalType": "address",
          "name": "token",
          "type": "address"
        },
        {
          "internalType": "address",
          "name": "to",
          "type": "address"
        },
        {
          "internalType": "uint256",
          "name": "amount",
          "type": "uint256"
        }
      ],
      "name": "recoverTokens",
      "outputs": [],
      "stateMutability": "nonpayable",
      "type": "function"
    },
    {
      "inputs": [],
      "name": "renounceOwnership",
      "outputs": [],
      "stateMutability": "nonpayable",
      "type": "function"
    },
    {
      "inputs": [
        {
          "internalType": "address",
          "name": "baseToken",
          "type": "address"
        },
        {
          "internalType": "address",
          "name": "comet_",
          "type": "address"
        }
      ],
      "name": "setCometForBase",
      "outputs": [],
      "stateMutability": "nonpayable",
      "type": "function"
    },
    {
      "inputs": [
        {
          "internalType": "address",
          "name": "",
          "type": "address"
        }
      ],
      "name": "tokenToComet",
      "outputs": [
        {
          "internalType": "contract ICompoundComet",
          "name": "",
          "type": "address"
        }
      ],
      "stateMutability": "view",
      "type": "function"
    },
    {
      "inputs": [
        {
          "internalType": "address",
          "name": "newOwner",
          "type": "address"
        }
      ],
      "name": "transferOwnership",
      "outputs": [],
      "stateMutability": "nonpayable",
      "type": "function"
    }
  ],
  "transactionHash": "0xa0f4b4d25735a8ed37f0aba3150c2571d9ee1db36b057449bb5d53a9010e14ba",
  "args": [
    "0xeF05829A68bCCEe298d6D6a0810B07A9B169433C",
    "0x0BE61223F99E57b8b8B7033a77B54Adc7f7cF027"
  ],
  "numDeployments": 15,
  "solcInputHash": "704fd468a351133abc5deb02272594fa",
  "bytecode": "0x60a03461011e57601f61251138819003918201601f19168301916001600160401b0383118484101761012257808492604094855283398101031261011e57610052602061004b83610136565b9201610136565b906001600160a01b038116156100ee576080526001600160a01b031680156100db575f80546001600160a01b031981168317825560405192916001600160a01b03909116907f8be0079c531659141344cd1fd0a4f28419497f9722a3daafe3b4186f6b6457e09080a3600180556123c6908161014b82396080518181816102ea015261119e0152f35b631e4fbdf760e01b5f525f60045260245ffd5b60405162461bcd60e51b81526020600482015260086024820152670726f757465723d360c41b6044820152606490fd5b5f80fd5b634e487b7160e01b5f52604160045260245ffd5b51906001600160a01b038216820361011e5756fe60806040526004361015610011575f80fd5b5f3560e01c806326e46ed3146100d45780632a8e3a49146100cf57806332fe7b26146100ca57806352ed5875146100c55780635f3e849f146100c0578063715018a6146100bb578063755f62ce146100b65780638da5cb5b146100b15780639f2204e8146100ac578063aad11a3f146100a7578063ae4be46d146100a25763f2fde38b1461009d575f80fd5b610c03565b610b78565b610961565b61084d565b610826565b6107b0565b61075b565b61067f565b6104f6565b6102d5565b61017c565b610139565b6001600160a01b031690565b6001600160a01b038116036100f657565b5f80fd5b3590610105826100e5565b565b6001600160a01b03165f90815260046020526040902090565b6001600160a01b03165f90815260026020526040902090565b346100f65760203660031901126100f657600435610156816100e5565b60018060a01b03165f526002602052602060018060a01b0360405f205416604051908152f35b346100f65760203660031901126100f657600435610199816100e5565b6101a16117ff565b60405163c55dae6360e01b81526001600160a01b03821691602082600481865afa9182156102b3575f9261027e575b506001600160a01b038216916102369190610217906101f0851515610cf0565b61021261020d61020961020289610107565b5460ff1690565b1590565b610d2f565b610120565b80546001600160a01b0319166001600160a01b03909216919091179055565b61024f61024283610107565b805460ff19166001179055565b61025882610d8e565b7fbd7bf039bc2e612983f7f581f4b5d456d978092d546243d55a7b3f8594fb97965f80a3005b6102369192506102a59060203d6020116102ac575b61029d8183610cad565b810190610cd0565b91906101d0565b503d610293565b610ce5565b5f9103126100f657565b6001600160a01b03909116815260200190565b346100f6575f3660031901126100f6576040517f00000000000000000000000000000000000000000000000000000000000000006001600160a01b03168152602090f35b9181601f840112156100f6578235916001600160401b0383116100f6576020808501948460061b0101116100f657565b9060606003198301126100f657600435916001600160401b0383116100f657806023840112156100f6576004830135926001600160401b0384116100f6578160248560051b830101116100f65760240192916103a560246100fa565b91604435906001600160401b0382116100f6576103c491600401610319565b9091565b90602080835192838152019201905f5b8181106103e55750505090565b82516001600160a01b03168452602093840193909201916001016103d8565b9080602083519182815201916020808360051b8301019401925f915b83831061042f57505050505090565b909192939460208080600193601f19868203018752818a518051918291828552018484015e5f828201840152601f01601f191601019701959491909101920190610420565b90602080835192838152019201905f5b8181106104915750505090565b825180516001600160a01b031685526020908101518186015260409094019390920191600101610484565b916104e5906104d76104f395936060865260608601906103c8565b908482036020860152610404565b916040818403910152610474565b90565b346100f65761050436610349565b9361051184939294610e09565b9261051b81610e3b565b945f5f5b8381106105cd575061053090610f25565b935f925f5b818110610550576040518061054c898c8c846104bc565b0390f35b876105798261057e61056f8e898961056a868f8c90610f74565b61183d565b9591949096610fa3565b610fb7565b610588848d610fa3565b52610593838c610fa3565b506105a2575b50600101610535565b94906105c6826105b460019491610fda565b976105bf828c610fa3565b5289610fa3565b5090610599565b6105e06105db828688610f74565b611162565b6105e981611144565b6002811490811561066a575b8115610655575b8115610640575b811561062c575b50610618575b60010161051f565b90610624600191610fda565b919050610610565b6006915061063981611144565b145f61060a565b905061064b81611144565b6005811490610603565b905061066081611144565b60048114906105fc565b905061067581611144565b60038114906105f5565b346100f65760603660031901126100f65760043561069c816100e5565b602435906106a9826100e5565b604435906106b56117ff565b6040516370a0823160e01b81526001600160a01b0391909116929091602083806106e230600483016102c2565b0381875afa9283156102b3575f9361072a575b505f1981036107245750815b80831161071c575b508161071157005b61071a92611b10565b005b91505f610709565b91610701565b61074d91935060203d602011610754575b6107458183610cad565b810190610fed565b915f6106f5565b503d61073b565b346100f6575f3660031901126100f6576107736117ff565b5f80546001600160a01b0319811682556001600160a01b03165f5160206123715f395f51905f528280a3005b9060206104f39281815201906103c8565b346100f6575f3660031901126100f657604051600380548083525f91825260208301915f5160206123515f395f51905f5291905b8181106108075761054c856107fb81870382610cad565b6040519182918261079f565b82546001600160a01b03168452602090930192600192830192016107e4565b346100f6575f3660031901126100f6575f546040516001600160a01b039091168152602090f35b346100f65760403660031901126100f65760043561086a816100e5565b602435610876816100e5565b61087e6117ff565b6001600160a01b038216908115158061092a575b156108f45782610258916108cc6108c66108c16108c16108b461021799610120565b546001600160a01b031690565b6100d9565b15610ffc565b6108e36108de61020961020284610107565b611046565b6001600160a01b0316938491610120565b60405162461bcd60e51b815260206004820152600e60248201526d436f6d706f756e643a207a65726f60901b6044820152606490fd5b506001600160a01b0381161515610892565b90916109536104f3936040845260408401906103c8565b916020818403910152610404565b346100f65761096f36610349565b909293915061097d84610e09565b9261098785610e3b565b945f5b8181106109a0576040518061054c89898361093c565b806109ae6001928488610f74565b6109cd6109c86109c1608084018461109d565b36916110ea565b611b4a565b6109d960208301611120565b9160a0810135888110610b4a575b5060026109f382611162565b6109fc81611144565b03610a9857506108b46108c191610a2393868060a01b03821615155f14610a915750610120565b828060a01b038116610a38575b505b0161098a565b610a4690610579838a610fa3565b60405163110496e560e01b6020820152610a7581610a673060248301611180565b03601f198101835282610cad565b610a7f828a610fa3565b52610a8a8189610fa3565b505f610a30565b9050610120565b60039150610aa590611162565b610aae81611144565b03610b20576108c16108b4610ac292610120565b828060a01b038116610ad5575b50610a32565b610ae390610579838a610fa3565b60405163110496e560e01b6020820152610b0481610a673060248301611180565b610b0e828a610fa3565b52610b198189610fa3565b505f610acf565b505f610b2c8289610fa3565b52610b3561116c565b610b3f828a610fa3565b52610acf8189610fa3565b610b60919350610b5b90898961112a565b611120565b915f6109e7565b9060206104f3928181520190610474565b346100f65760403660031901126100f6576004356001600160401b0381116100f657610ba8903690600401610319565b90602435906001600160401b0382116100f657366023830112156100f6576004820135906001600160401b0382116100f65736602483850101116100f65761054c936024610bf7940191611199565b60405191829182610b67565b346100f65760203660031901126100f657600435610c20816100e5565b610c286117ff565b6001600160a01b03168015610c66575f80546001600160a01b03198116831782556001600160a01b0316905f5160206123715f395f51905f529080a3005b631e4fbdf760e01b5f525f60045260245ffd5b634e487b7160e01b5f52604160045260245ffd5b60c081019081106001600160401b03821117610ca857604052565b610c79565b601f909101601f19168101906001600160401b03821190821017610ca857604052565b908160209103126100f657516104f3816100e5565b6040513d5f823e3d90fd5b15610cf757565b60405162461bcd60e51b815260206004820152601060248201526f0436f6d706f756e643a20626173653d360841b6044820152606490fd5b15610d3657565b60405162461bcd60e51b815260206004820152601c60248201527b10dbdb5c1bdd5b990e88185b1c9958591e481c9959da5cdd195c995960221b6044820152606490fd5b634e487b7160e01b5f52603260045260245ffd5b600354600160401b811015610ca8576001810180600355811015610dde5760035f525f5160206123515f395f51905f520180546001600160a01b0319166001600160a01b03909216919091179055565b610d7a565b60405190610105604083610cad565b6001600160401b038111610ca85760051b60200190565b90610e1382610df2565b610e206040519182610cad565b8281528092610e31601f1991610df2565b0190602036910137565b90610e4582610df2565b610e526040519182610cad565b8281528092610e63601f1991610df2565b01905f5b828110610e7357505050565b806060602080938501015201610e67565b60408051919082016001600160401b03811183821017610ca8576040525f6020838281520152565b60408051909190610ebd8382610cad565b6001815291601f1901825f5b828110610ed557505050565b602090610ee0610e84565b82828501015201610ec9565b60405190610efb602083610cad565b5f80835282815b828110610f0e57505050565b602090610f19610e84565b82828501015201610f02565b90610f2f82610df2565b610f3c6040519182610cad565b8281528092610f4d601f1991610df2565b01905f5b828110610f5d57505050565b602090610f68610e84565b82828501015201610f51565b9190811015610dde5760051b8101359060be19813603018212156100f6570190565b805115610dde5760200190565b8051821015610dde5760209160051b010190565b6001600160a01b039091169052565b634e487b7160e01b5f52601160045260245ffd5b5f198114610fe85760010190565b610fc6565b908160209103126100f6575190565b1561100357565b60405162461bcd60e51b815260206004820152601b60248201527a10dbdb5c1bdd5b990e8818dbdb595d08185b1c9958591e481cd95d602a1b6044820152606490fd5b1561104d57565b60405162461bcd60e51b815260206004820152602260248201527f436f6d706f756e643a20636f6d657420616c7265616479207265676973746572604482015261195960f21b6064820152608490fd5b903590601e19813603018212156100f657018035906001600160401b0382116100f6576020019181360383136100f657565b6001600160401b038111610ca857601f01601f191660200190565b9291926110f6826110cf565b916111046040519384610cad565b8294818452818301116100f6578281602093845f960137010152565b356104f3816100e5565b9190811015610dde5760061b0190565b600a11156100f657565b600a111561114e57565b634e487b7160e01b5f52602160045260245ffd5b356104f38161113a565b6040519061117b602083610cad565b5f8252565b6001600160a01b0390911681525f602082015260400190565b9290917f00000000000000000000000000000000000000000000000000000000000000006001600160a01b0316330361169d576111d891810190611722565b916111e66080840151611b4a565b916111f460208501516100d9565b9060608501519260a0860191825151818110611670575b50505050835161121a81611144565b61122381611144565b611291576001600160a01b038316801515908161127d575b501561125f5761125160406112579501516100d9565b92611e1b565b6104f3610eec565b90915061127260406112789401516100d9565b90611b62565b611257565b6001600160a01b038316141590505f61123b565b6001849394516112a081611144565b6112a981611144565b036112dd57611257936001600160a01b038116156112d057604061125191945b01516100d9565b50611251604082946112c9565b6002839293516112ec81611144565b6112f581611144565b0361136657611321936001600160a01b0381161561135957604061131b919301516100d9565b91611d39565b9061132a610eac565b9161133d611336610de3565b9283610fb7565b602082015261134b82610f96565b5261135581610f96565b5090565b5061131b604082936112c9565b91926003825161137581611144565b61137e81611144565b036113a3575082611395604061139b9301516100d9565b83611c71565b61132a610eac565b600482939492516113b381611144565b6113bc81611144565b0361140257506113d260406113d89301516100d9565b83611b62565b6113e0610eac565b906113f36113ec610de3565b9182610fb7565b5f602082015261134b82610f96565b90506005825161141181611144565b61141a81611144565b036114b1575061142f6108c16108b484610120565b906001600160a01b03821661144a5750505f9061132a610eac565b6114799161145d604060209301516100d9565b906040518080958194630dd3126d60e21b8352600483016102c2565b03915afa9081156102b3575f91611492575b509061139b565b6114ab915060203d602011610754576107458183610cad565b5f61148b565b600682516114be81611144565b6114c781611144565b03611634576001600160a01b0381168015159081611620575b5015611591576108c16108b46114f592610120565b90826001600160a01b038316611512575050505f9061132a610eac565b61154192611525604060209401516100d9565b604051809581948293632e12a4f760e11b8452600484016117e5565b03915afa9081156102b3575f91611562575b506001600160801b0316611321565b611584915060203d60201161158a575b61157c8183610cad565b8101906117c6565b5f611553565b503d611572565b506115a16108c16108b484610120565b906001600160a01b0382166115ba5750505f5b9061139b565b6115e9916115cd604060209301516100d9565b9060405180809581946370a0823160e01b8352600483016102c2565b03915afa9081156102b3575f91611601575b506115b4565b61161a915060203d602011610754576107458183610cad565b5f6115fb565b6001600160a01b038516141590505f6114e0565b60405162461bcd60e51b81526020600482015260146024820152730436f6d706f756e643a20756e6b6e6f776e206f760641b6044820152606490fd5b61169193955060209450610b5b61168891838561112a565b9451519161112a565b0135905f80808061120b565b60405162461bcd60e51b815260206004820152601460248201527313db9b1e481c9bdd5d195c8818d85b8818d85b1b60621b6044820152606490fd5b9080601f830112156100f6578160206104f3933591016110ea565b91908260209103126100f657604051602081016001600160401b03811182821017610ca85760405291358252565b6020818303126100f6578035906001600160401b0382116100f6570160c0818303126100f6576040519161175583610c8d565b81356117608161113a565b835261176e602083016100fa565b602084015261177f604083016100fa565b60408401526060828101359084015260808201356001600160401b0381116100f657826117b38360a0936117be96016116d9565b6080860152016116f4565b60a082015290565b908160209103126100f657516001600160801b03811681036100f65790565b6001600160a01b0391821681529116602082015260400190565b5f546001600160a01b0316330361181257565b63118cdaa760e01b5f523360045260245ffd5b906103e98202918083046103e91490151715610fe857565b9192935f9460609461184d610e84565b945f946118636109c86109c1608085018561109d565b61186f60208401611120565b9360608401359560a085013590808210611acb575b50505061189083611162565b61189981611144565b158015611ab0575b156118e257505060049192506118b690611162565b6118bf81611144565b146118c75750565b915091506118d66113ec610de3565b5f602082015290600190565b60016118ed84611162565b6118f681611144565b148015611a68575b1561190b575b5050505050565b9297909496829660026119208b979c95611162565b61192981611144565b0361195e575050505061193c9350612107565b92909361194a611336610de3565b6020820152906001905b5f80808080611904565b91945091949592600361197085611162565b61197981611144565b036119aa5750505050505061198e9083612055565b92909361199c611336610de3565b602082015290600190611954565b91939795509193975060056119be85611162565b6119c781611144565b03611a02575050506119ef6119ea6119e460406119f79401611120565b84611fe4565b611825565b6103e8900490565b61199c611336610de3565b90939194926006611a1282611162565b611a1b81611144565b14611a29575b505050611954565b611a4c9395506119ef92945090611a4560406119ea9301611120565b9085611eb8565b611a57611336610de3565b6020820152906001905f8080611a21565b50611a7283611162565b611a7b81611144565b1580611a9e575b80156118fe57506001600160a01b0381811690851614156118fe565b506001600160a01b0381161515611a82565b506004611abc84611162565b611ac581611144565b146118a1565b6020939750829650611ae4610b5b8383611aea9661112a565b9661112a565b0135935f8080611884565b6001600160a01b039091168152602081019190915260400190565b611b456101059392611b3760405194859263a9059cbb60e01b602085015260248401611af5565b03601f198101845283610cad565b612138565b905f91602081511015611b5a5750565b602001519150565b91611b6b6121a3565b611b7483610120565b546001600160a01b0316611b89811515611c03565b611ba982826001600160a01b038716611ba4833033846121c3565b6121eb565b803b156100f657611bd4935f809460405196879586948593634232cd6360e01b855260048501611c4f565b03925af180156102b357611bea575b5060018055565b80611bf65f8093610cad565b8003126100f6575f611be3565b15611c0a57565b60405162461bcd60e51b815260206004820152601e60248201527f436f6d706f756e643a206261736520636f6d6574206e6f7420666f756e6400006044820152606490fd5b6001600160a01b03918216815291166020820152604081019190915260600190565b9190611c7b6121a3565b611c8483610120565b546001600160a01b0316611c99811515611c03565b803b156100f657825f918583611cc895604051968795869485936304c8826360e31b8552309060048601611d0e565b03925af180156102b357611cf5575b50611cec9133906001600160a01b0316611b10565b61010560018055565b80611d015f8093610cad565b8003126100f6575f611cd7565b6001600160a01b03918216815291811660208301529091166040820152606081019190915260800190565b939293919091611d476121a3565b6001600160a01b039081165f9081526002602052604090205416611d6c811515611dd0565b803b156100f657845f918483611d9b95604051968795869485936304c8826360e31b8552339060048601611d0e565b03925af180156102b357611db6575b50919061010560018055565b80611dc45f611dca93610cad565b806102b8565b5f611daa565b15611dd757565b606460405162461bcd60e51b815260206004820152602060248201527f436f6d706f756e643a206d61726b657420636f6d6574206e6f7420666f756e646044820152fd5b611e2b90939291936102126121a3565b546001600160a01b0316611e40811515611dd0565b611e5b82826001600160a01b038716611ba4833033846121c3565b803b156100f657611e86935f809460405196879586948593634232cd6360e01b855260048501611c4f565b03925af180156102b357611e9f575b5061010560018055565b80611eab5f8093610cad565b8003126100f6575f611e95565b91906001600160a01b0381168015159081611fd0575b5015611f5b576108c16108b4611ee392610120565b916001600160a01b038316611ef9575050505f90565b604051632e12a4f760e11b815292602092849283918291611f1d91600484016117e5565b03915afa9081156102b3575f91611f3c575b506001600160801b031690565b611f55915060203d60201161158a5761157c8183610cad565b5f611f2f565b50906108c16108b4611f6c92610120565b6001600160a01b038116611f805750505f90565b611fa29160209160405180809581946370a0823160e01b8352600483016102c2565b03915afa9081156102b3575f91611fb7575090565b6104f3915060203d602011610754576107458183610cad565b6001600160a01b038516141590505f611ece565b6001600160a01b039081165f9081526002602052604090205461200791166100d9565b6001600160a01b03811661201b5750505f90565b611fa2916020916040518080958194630dd3126d60e21b8352600483016102c2565b908160209103126100f6575180151581036100f65790565b90915f9261208c602061206f6108c16108b4606097610120565b926040518093819263a165437960e01b83523090600484016117e5565b0381855afa9081156102b3575f916120d8575b50156120a85750565b60405163110496e560e01b6020820152306024820152600160448201529093509091506104f38160648101610a67565b6120fa915060203d602011612100575b6120f28183610cad565b81019061203d565b5f61209f565b503d6120e8565b5f936060939092909161208c9160209161206f916108c1916108b4916001600160a01b03821615610a915750610120565b5f806121609260018060a01b03169360208151910182865af16121596122c3565b90836122f2565b8051908115159182612188575b50506121765750565b635274afe760e01b5f5260045260245ffd5b61219b925060208091830101910161203d565b155f8061216d565b6002600154146121b4576002600155565b633ee5aeb560e01b5f5260045ffd5b90611b4590611b37610105956040519586936323b872dd60e01b602086015260248501611c4f565b9190916122526040519261222384612215602082019363095ea7b360e01b85528860248401611af5565b03601f198101865285610cad565b83516001600160a01b038416915f91829182855af1906122416122c3565b82612291575b508161228a57501590565b61225b57505050565b611b45610a676122846101059560405192839163095ea7b360e01b602084015260248301611180565b82612138565b3b15919050565b805191925081159182156122a9575b5050905f612247565b6122bc925060208091830101910161203d565b5f806122a0565b3d156122ed573d906122d4826110cf565b916122e26040519384610cad565b82523d5f602084013e565b606090565b90612316575080511561230757805190602001fd5b630a12f52160e11b5f5260045ffd5b81511580612347575b612327575090565b639996b31560e01b5f9081526001600160a01b0391909116600452602490fd5b50803b1561231f56fec2575a0e9e593c00f959f8c92f12db2869c3395a3b0502d05e2516446f71f85b8be0079c531659141344cd1fd0a4f28419497f9722a3daafe3b4186f6b6457e0a264697066735822122095b5202ec55aca6c52bd0708287ac0b6de8b005cb805f323b16283b3678db88164736f6c634300081e0033",
  "devdoc": {
    "errors": {
      "AddressEmptyCode(address)": [
        {
          "details": "There's no code at `target` (it is not a contract)."
        }
      ],
      "AddressInsufficientBalance(address)": [
        {
          "details": "The ETH balance of the account is not enough to perform the operation."
        }
      ],
      "FailedInnerCall()": [
        {
          "details": "A call to an address target failed. The target may have reverted."
        }
      ],
      "OwnableInvalidOwner(address)": [
        {
          "details": "The owner is not a valid owner account. (eg. `address(0)`)"
        }
      ],
      "OwnableUnauthorizedAccount(address)": [
        {
          "details": "The caller account is not authorized to perform an operation."
        }
      ],
      "ReentrancyGuardReentrantCall()": [
        {
          "details": "Unauthorized reentrant call."
        }
      ],
      "SafeERC20FailedOperation(address)": [
        {
          "details": "An operation with an ERC20 token failed."
        }
      ]
    },
    "kind": "dev",
    "methods": {
      "owner()": {
        "details": "Returns the address of the current owner."
      },
      "renounceOwnership()": {
        "details": "Leaves the contract without owner. It will not be possible to call `onlyOwner` functions. Can only be called by the current owner. NOTE: Renouncing ownership will leave the contract without an owner, thereby disabling any functionality that is only available to the owner."
      },
      "transferOwnership(address)": {
        "details": "Transfers ownership of the contract to a new account (`newOwner`). Can only be called by the current owner."
      }
    },
    "version": 1
  },
  "userdoc": {
    "kind": "user",
    "methods": {
      "ROUTER()": {
        "notice": "Immutable router address that can call protected functions"
      },
      "authorize((uint8,address,address,uint256,bytes,(uint256))[],address,(address,uint256)[])": {
        "notice": "Return user-side authorization calls for the given lending instructions.         One element per input (or (address(0), bytes(\"\")) if none needed).         Also returns the produced outputs from the simulation of these instructions."
      },
      "recoverTokens(address,address,uint256)": {
        "notice": "Recover stuck tokens (owner only)"
      }
    },
    "version": 1
  },
  "storageLayout": {
    "storage": [
      {
        "astId": 1432,
        "contract": "contracts/v2/gateways/compound/CompoundGatewayWrite.sol:CompoundGatewayWrite",
        "label": "_owner",
        "offset": 0,
        "slot": "0",
        "type": "t_address"
      },
      {
        "astId": 2269,
        "contract": "contracts/v2/gateways/compound/CompoundGatewayWrite.sol:CompoundGatewayWrite",
        "label": "_status",
        "offset": 0,
        "slot": "1",
        "type": "t_uint256"
      },
      {
        "astId": 11648,
        "contract": "contracts/v2/gateways/compound/CompoundGatewayWrite.sol:CompoundGatewayWrite",
        "label": "tokenToComet",
        "offset": 0,
        "slot": "2",
        "type": "t_mapping(t_address,t_contract(ICompoundComet)17445)"
      },
      {
        "astId": 11651,
        "contract": "contracts/v2/gateways/compound/CompoundGatewayWrite.sol:CompoundGatewayWrite",
        "label": "_comets",
        "offset": 0,
        "slot": "3",
        "type": "t_array(t_address)dyn_storage"
      },
      {
        "astId": 11655,
        "contract": "contracts/v2/gateways/compound/CompoundGatewayWrite.sol:CompoundGatewayWrite",
        "label": "_isRegistered",
        "offset": 0,
        "slot": "4",
        "type": "t_mapping(t_address,t_bool)"
      }
    ],
    "types": {
      "t_address": {
        "encoding": "inplace",
        "label": "address",
        "numberOfBytes": "20"
      },
      "t_array(t_address)dyn_storage": {
        "base": "t_address",
        "encoding": "dynamic_array",
        "label": "address[]",
        "numberOfBytes": "32"
      },
      "t_bool": {
        "encoding": "inplace",
        "label": "bool",
        "numberOfBytes": "1"
      },
      "t_contract(ICompoundComet)17445": {
        "encoding": "inplace",
        "label": "contract ICompoundComet",
        "numberOfBytes": "20"
      },
      "t_mapping(t_address,t_bool)": {
        "encoding": "mapping",
        "key": "t_address",
        "label": "mapping(address => bool)",
        "numberOfBytes": "32",
        "value": "t_bool"
      },
      "t_mapping(t_address,t_contract(ICompoundComet)17445)": {
        "encoding": "mapping",
        "key": "t_address",
        "label": "mapping(address => contract ICompoundComet)",
        "numberOfBytes": "32",
        "value": "t_contract(ICompoundComet)17445"
      },
      "t_uint256": {
        "encoding": "inplace",
        "label": "uint256",
        "numberOfBytes": "32"
      }
    }
  }
}