{
  "address": "0x7758136FaA0098FdccB0C32Ff757cfc147346a29",
  "abi": [
    {
      "inputs": [
        {
          "internalType": "address",
          "name": "_router",
          "type": "address"
        },
        {
          "internalType": "address",
          "name": "_owner",
          "type": "address"
        }
      ],
      "stateMutability": "nonpayable",
      "type": "constructor"
    },
    {
      "inputs": [
        {
          "internalType": "address",
          "name": "target",
          "type": "address"
        }
      ],
      "name": "AddressEmptyCode",
      "type": "error"
    },
    {
      "inputs": [
        {
          "internalType": "address",
          "name": "account",
          "type": "address"
        }
      ],
      "name": "AddressInsufficientBalance",
      "type": "error"
    },
    {
      "inputs": [],
      "name": "FailedInnerCall",
      "type": "error"
    },
    {
      "inputs": [],
      "name": "FlashLoanInProgress",
      "type": "error"
    },
    {
      "inputs": [],
      "name": "InvalidLender",
      "type": "error"
    },
    {
      "inputs": [],
      "name": "OnlyRouter",
      "type": "error"
    },
    {
      "inputs": [],
      "name": "OnlySettlement",
      "type": "error"
    },
    {
      "inputs": [
        {
          "internalType": "address",
          "name": "owner",
          "type": "address"
        }
      ],
      "name": "OwnableInvalidOwner",
      "type": "error"
    },
    {
      "inputs": [
        {
          "internalType": "address",
          "name": "account",
          "type": "address"
        }
      ],
      "name": "OwnableUnauthorizedAccount",
      "type": "error"
    },
    {
      "inputs": [
        {
          "internalType": "address",
          "name": "token",
          "type": "address"
        }
      ],
      "name": "SafeERC20FailedOperation",
      "type": "error"
    },
    {
      "inputs": [],
      "name": "UnauthorizedCaller",
      "type": "error"
    },
    {
      "anonymous": false,
      "inputs": [
        {
          "indexed": true,
          "internalType": "address",
          "name": "lender",
          "type": "address"
        },
        {
          "indexed": true,
          "internalType": "address",
          "name": "token",
          "type": "address"
        },
        {
          "indexed": false,
          "internalType": "uint256",
          "name": "amount",
          "type": "uint256"
        },
        {
          "indexed": false,
          "internalType": "enum LenderType",
          "name": "lenderType",
          "type": "uint8"
        }
      ],
      "name": "FlashLoanRequested",
      "type": "event"
    },
    {
      "anonymous": false,
      "inputs": [
        {
          "indexed": true,
          "internalType": "address",
          "name": "lender",
          "type": "address"
        },
        {
          "indexed": false,
          "internalType": "bool",
          "name": "allowed",
          "type": "bool"
        },
        {
          "indexed": false,
          "internalType": "enum LenderType",
          "name": "lenderType",
          "type": "uint8"
        }
      ],
      "name": "LenderUpdated",
      "type": "event"
    },
    {
      "anonymous": false,
      "inputs": [
        {
          "indexed": true,
          "internalType": "address",
          "name": "user",
          "type": "address"
        },
        {
          "indexed": true,
          "internalType": "bytes32",
          "name": "salt",
          "type": "bytes32"
        },
        {
          "indexed": true,
          "internalType": "address",
          "name": "token",
          "type": "address"
        },
        {
          "indexed": false,
          "internalType": "address",
          "name": "recipient",
          "type": "address"
        },
        {
          "indexed": false,
          "internalType": "uint256",
          "name": "amount",
          "type": "uint256"
        }
      ],
      "name": "OrderFunded",
      "type": "event"
    },
    {
      "anonymous": false,
      "inputs": [
        {
          "indexed": true,
          "internalType": "address",
          "name": "previousOwner",
          "type": "address"
        },
        {
          "indexed": true,
          "internalType": "address",
          "name": "newOwner",
          "type": "address"
        }
      ],
      "name": "OwnershipTransferred",
      "type": "event"
    },
    {
      "inputs": [
        {
          "internalType": "address",
          "name": "",
          "type": "address"
        }
      ],
      "name": "allowedLenders",
      "outputs": [
        {
          "internalType": "bool",
          "name": "",
          "type": "bool"
        }
      ],
      "stateMutability": "view",
      "type": "function"
    },
    {
      "inputs": [
        {
          "internalType": "contract IERC20",
          "name": "token",
          "type": "address"
        },
        {
          "internalType": "address",
          "name": "target",
          "type": "address"
        },
        {
          "internalType": "uint256",
          "name": "amount",
          "type": "uint256"
        }
      ],
      "name": "approve",
      "outputs": [],
      "stateMutability": "nonpayable",
      "type": "function"
    },
    {
      "inputs": [
        {
          "internalType": "address",
          "name": "asset",
          "type": "address"
        },
        {
          "internalType": "uint256",
          "name": "amount",
          "type": "uint256"
        },
        {
          "internalType": "uint256",
          "name": "premium",
          "type": "uint256"
        },
        {
          "internalType": "address",
          "name": "initiator",
          "type": "address"
        },
        {
          "internalType": "bytes",
          "name": "params",
          "type": "bytes"
        }
      ],
      "name": "executeOperation",
      "outputs": [
        {
          "internalType": "bool",
          "name": "",
          "type": "bool"
        }
      ],
      "stateMutability": "nonpayable",
      "type": "function"
    },
    {
      "inputs": [
        {
          "internalType": "address",
          "name": "lender",
          "type": "address"
        },
        {
          "internalType": "contract IERC20",
          "name": "token",
          "type": "address"
        },
        {
          "internalType": "uint256",
          "name": "amount",
          "type": "uint256"
        },
        {
          "internalType": "bytes",
          "name": "callbackData",
          "type": "bytes"
        }
      ],
      "name": "flashLoanAndCallBack",
      "outputs": [],
      "stateMutability": "nonpayable",
      "type": "function"
    },
    {
      "inputs": [
        {
          "internalType": "address",
          "name": "user",
          "type": "address"
        },
        {
          "internalType": "bytes32",
          "name": "salt",
          "type": "bytes32"
        },
        {
          "internalType": "address",
          "name": "token",
          "type": "address"
        },
        {
          "internalType": "address",
          "name": "recipient",
          "type": "address"
        },
        {
          "internalType": "uint256",
          "name": "amount",
          "type": "uint256"
        }
      ],
      "name": "fundOrderBySalt",
      "outputs": [],
      "stateMutability": "nonpayable",
      "type": "function"
    },
    {
      "inputs": [
        {
          "internalType": "address",
          "name": "user",
          "type": "address"
        },
        {
          "internalType": "bytes32",
          "name": "salt",
          "type": "bytes32"
        },
        {
          "internalType": "address",
          "name": "token",
          "type": "address"
        },
        {
          "internalType": "address",
          "name": "recipient",
          "type": "address"
        }
      ],
      "name": "fundOrderWithBalance",
      "outputs": [],
      "stateMutability": "nonpayable",
      "type": "function"
    },
    {
      "inputs": [
        {
          "internalType": "address",
          "name": "lender",
          "type": "address"
        }
      ],
      "name": "getLenderType",
      "outputs": [
        {
          "internalType": "enum LenderType",
          "name": "",
          "type": "uint8"
        }
      ],
      "stateMutability": "view",
      "type": "function"
    },
    {
      "inputs": [],
      "name": "getRouter",
      "outputs": [
        {
          "internalType": "address",
          "name": "",
          "type": "address"
        }
      ],
      "stateMutability": "view",
      "type": "function"
    },
    {
      "inputs": [],
      "name": "getSettlementContract",
      "outputs": [
        {
          "internalType": "address",
          "name": "",
          "type": "address"
        }
      ],
      "stateMutability": "view",
      "type": "function"
    },
    {
      "inputs": [],
      "name": "isInFlashLoan",
      "outputs": [
        {
          "internalType": "bool",
          "name": "",
          "type": "bool"
        }
      ],
      "stateMutability": "view",
      "type": "function"
    },
    {
      "inputs": [
        {
          "internalType": "address",
          "name": "",
          "type": "address"
        }
      ],
      "name": "lenderTypes",
      "outputs": [
        {
          "internalType": "enum LenderType",
          "name": "",
          "type": "uint8"
        }
      ],
      "stateMutability": "view",
      "type": "function"
    },
    {
      "inputs": [
        {
          "internalType": "uint256",
          "name": "assets",
          "type": "uint256"
        },
        {
          "internalType": "bytes",
          "name": "data",
          "type": "bytes"
        }
      ],
      "name": "onMorphoFlashLoan",
      "outputs": [],
      "stateMutability": "nonpayable",
      "type": "function"
    },
    {
      "inputs": [],
      "name": "owner",
      "outputs": [
        {
          "internalType": "address",
          "name": "",
          "type": "address"
        }
      ],
      "stateMutability": "view",
      "type": "function"
    },
    {
      "inputs": [
        {
          "internalType": "contract IERC20[]",
          "name": "tokens",
          "type": "address[]"
        },
        {
          "internalType": "uint256[]",
          "name": "amounts",
          "type": "uint256[]"
        },
        {
          "internalType": "uint256[]",
          "name": "feeAmounts",
          "type": "uint256[]"
        },
        {
          "internalType": "bytes",
          "name": "userData",
          "type": "bytes"
        }
      ],
      "name": "receiveFlashLoan",
      "outputs": [],
      "stateMutability": "nonpayable",
      "type": "function"
    },
    {
      "inputs": [
        {
          "internalType": "bytes",
          "name": "userData",
          "type": "bytes"
        }
      ],
      "name": "receiveFlashLoanV3",
      "outputs": [],
      "stateMutability": "nonpayable",
      "type": "function"
    },
    {
      "inputs": [],
      "name": "renounceOwnership",
      "outputs": [],
      "stateMutability": "nonpayable",
      "type": "function"
    },
    {
      "inputs": [
        {
          "internalType": "address",
          "name": "token",
          "type": "address"
        },
        {
          "internalType": "address",
          "name": "to",
          "type": "address"
        },
        {
          "internalType": "uint256",
          "name": "amount",
          "type": "uint256"
        }
      ],
      "name": "rescueTokens",
      "outputs": [],
      "stateMutability": "nonpayable",
      "type": "function"
    },
    {
      "inputs": [],
      "name": "router",
      "outputs": [
        {
          "internalType": "contract IFlashLoanRouter",
          "name": "",
          "type": "address"
        }
      ],
      "stateMutability": "view",
      "type": "function"
    },
    {
      "inputs": [
        {
          "internalType": "address",
          "name": "lender",
          "type": "address"
        },
        {
          "internalType": "bool",
          "name": "allowed",
          "type": "bool"
        }
      ],
      "name": "setAaveLender",
      "outputs": [],
      "stateMutability": "nonpayable",
      "type": "function"
    },
    {
      "inputs": [
        {
          "internalType": "address",
          "name": "lender",
          "type": "address"
        },
        {
          "internalType": "bool",
          "name": "allowed",
          "type": "bool"
        }
      ],
      "name": "setBalancerV2Lender",
      "outputs": [],
      "stateMutability": "nonpayable",
      "type": "function"
    },
    {
      "inputs": [
        {
          "internalType": "address",
          "name": "lender",
          "type": "address"
        },
        {
          "internalType": "bool",
          "name": "allowed",
          "type": "bool"
        }
      ],
      "name": "setBalancerV3Lender",
      "outputs": [],
      "stateMutability": "nonpayable",
      "type": "function"
    },
    {
      "inputs": [
        {
          "internalType": "address",
          "name": "lender",
          "type": "address"
        },
        {
          "internalType": "bool",
          "name": "allowed",
          "type": "bool"
        }
      ],
      "name": "setLender",
      "outputs": [],
      "stateMutability": "nonpayable",
      "type": "function"
    },
    {
      "inputs": [
        {
          "internalType": "address",
          "name": "lender",
          "type": "address"
        },
        {
          "internalType": "bool",
          "name": "allowed",
          "type": "bool"
        }
      ],
      "name": "setMorphoLender",
      "outputs": [],
      "stateMutability": "nonpayable",
      "type": "function"
    },
    {
      "inputs": [],
      "name": "settlementContract",
      "outputs": [
        {
          "internalType": "address",
          "name": "",
          "type": "address"
        }
      ],
      "stateMutability": "view",
      "type": "function"
    },
    {
      "inputs": [
        {
          "internalType": "address",
          "name": "newOwner",
          "type": "address"
        }
      ],
      "name": "transferOwnership",
      "outputs": [],
      "stateMutability": "nonpayable",
      "type": "function"
    }
  ],
  "transactionHash": "0x83dd5440eaa0124935576b9ee8dab11ec88e3b63c3de7b4a2a727eb49729bd80",
  "args": [
    "0x9da8B48441583a2b93e2eF8213aAD0EC0b392C69",
    "0x0BE61223F99E57b8b8B7033a77B54Adc7f7cF027"
  ],
  "numDeployments": 4,
  "solcInputHash": "0fea5cc4d237037126c3fb60329d2945",
  "bytecode": "0x60c0806040523461015157604081611b49803803809161001f828561017b565b83398101031261015157610032816101b2565b906001600160a01b0390610048906020016101b2565b168015610168575f80546001600160a01b0319811683178255604051936020938593600493859392916001600160a01b03909116907f8be0079c531659141344cd1fd0a4f28419497f9722a3daafe3b4186f6b6457e09080a36001600160a01b0316608081905263ea42418b60e01b82525afa90811561015d575f9161011f575b5060a05260405161198290816101c78239608051818181610142015281816102bf015281816106820152818161080701528181610bba0152818161111901526112b5015260a05181818161046001526114760152f35b90506020813d602011610155575b8161013a6020938361017b565b810103126101515761014b906101b2565b5f6100c9565b5f80fd5b3d915061012d565b6040513d5f823e3d90fd5b631e4fbdf760e01b5f525f60045260245ffd5b601f909101601f19168101906001600160401b0382119082101761019e57604052565b634e487b7160e01b5f52604160045260245ffd5b51906001600160a01b03821682036101515756fe60806040526004361015610011575f80fd5b5f5f3560e01c80631b11d0ff146111f457806331f570721461105c578063366d8f3d1461101d5780633ff5af8f14610ae25780635678d21614610b6e57806360db1bc214610b49578063665bf3d014610a22578063715018a614610b025780637cd223c914610ae25780637d867ede14610a665780638382075a14610a225780638da5cb5b146109fb5780638e1f9b071461099f57806393d4bf891461092357806394eb5e6a14610836578063b0f479a1146107f1578063bf11f4af14610587578063cea9d26f1461052b578063dc127d0914610437578063e1a3503b146104ae578063e1f21c671461043c578063ea42418b14610437578063f04f2707146101e7578063f2fde38b146101745763f887ea401461012d575f80fd5b346101715780600319360112610171576040517f00000000000000000000000000000000000000000000000000000000000000006001600160a01b03168152602090f35b80fd5b50346101715760203660031901126101715761018e6113a0565b61019661178f565b6001600160a01b031680156101d35781546001600160a01b03198116821783556001600160a01b03165f51602061190d5f395f51905f528380a380f35b631e4fbdf760e01b82526004829052602482fd5b5034610171576080366003190112610171576004356001600160401b038111610433576102189036906004016114a5565b906024356001600160401b0381116103f6576102389036906004016114a5565b6044356001600160401b03811161042f576102579036906004016114a5565b90916064356001600160401b03811161042b576102789036906004016113f8565b6002546001600160a01b0316330361041c57338952600360205260ff60408a2054166005811015610408576003036103fa57885460ff60a01b1916600160a01b17895588917f00000000000000000000000000000000000000000000000000000000000000006001600160a01b03169190823b156103f65761031b928492836040518096819582946306d7234360e11b845260206004850152602484019161152d565b03925af180156103eb576103d2575b5050156103be57156103aa5790610343913590356114d5565b911561039657356001600160a01b0381169190829003610392576103689133906117b5565b805460ff60a01b19168155600180546001600160a01b031990811690915560028054909116905580f35b8280fd5b634e487b7160e01b83526032600452602483fd5b634e487b7160e01b85526032600452602485fd5b634e487b7160e01b86526032600452602486fd5b816103dc916114f6565b6103e757865f61032a565b8680fd5b6040513d84823e3d90fd5b8380fd5b6221eeab60e81b8952600489fd5b634e487b7160e01b8a52602160045260248afd5b635c427cd960e01b8952600489fd5b8780fd5b8580fd5b5080fd5b611461565b5034610171576060366003190112610171576104566113a0565b61045e6113e2565b7f00000000000000000000000000000000000000000000000000000000000000006001600160a01b0316330361049f579061049c916044359161169b565b80f35b630ad98cbb60e11b8352600483fd5b50346101715760405f5160206118ed5f395f51905f526104cd36611425565b92906104d761178f565b60018060a01b03169283855260046020526104f4818387206115d2565b80156105225761051060025b85875260036020528387206115e3565b8151901515815260026020820152a280f35b61051085610500565b5034610171576060366003190112610171576105456113a0565b61054d6113e2565b61055561178f565b60ff835460a01c166105785761049c9160443591906001600160a01b03166117b5565b636d9b07e760e11b8352600483fd5b5034610171576020366003190112610171576004356001600160401b038111610433576105b89036906004016113f8565b6002546001600160a01b031633036107e257338352600360205260ff60408420541660058110156107ce576004036107c0578101906060818303126103925780356001600160a01b0381169184918390036104335760208101359360408201356001600160401b0381116103f6576106309201611568565b333b156104335760405163ae63932960e01b8152836004820152306024820152846044820152828160648183335af19081156107b55783916107a0575b5050815460ff60a01b1916600160a01b1782557f00000000000000000000000000000000000000000000000000000000000000006001600160a01b0316803b15610392576040516306d7234360e11b81526020600482015291839183918290849082906106de9060248301906115ae565b03925af180156103eb5761078b575b50508160209161070161071c9433836117b5565b6040516315afd40960e01b8152938492839260048401611680565b038185335af180156103eb57610758575b50805460ff60a01b19168155600180546001600160a01b031990811690915560028054909116905580f35b6020813d602011610783575b81610771602093836114f6565b8101031261077f575161072d565b5f80fd5b3d9150610764565b81610795916114f6565b61039257825f6106ed565b816107aa916114f6565b61043357815f61066d565b6040513d85823e3d90fd5b6221eeab60e81b8352600483fd5b634e487b7160e01b84526021600452602484fd5b635c427cd960e01b8352600483fd5b50346101715780600319360112610171576040517f00000000000000000000000000000000000000000000000000000000000000006001600160a01b03168152602090f35b5034610171576080366003190112610171576108506113a0565b6108586113cc565b906108616113b6565b6040516370a0823160e01b81523060048201526001600160a01b0390931692602081602481875afa9081156109185785916108e6575b50806108a1578480f35b6108db816108be5f51602061192d5f395f51905f529385886117b5565b604051602435956001600160a01b03169490928392909183611680565b0390a45f8080808480f35b90506020813d602011610910575b81610901602093836114f6565b8101031261077f57515f610897565b3d91506108f4565b6040513d87823e3d90fd5b50346101715760405f5160206118ed5f395f51905f5261094236611425565b929061094c61178f565b60018060a01b0316928385526004602052610969818387206115d2565b801561099657610984600385875260036020528387206115e3565b8151901515815260036020820152a280f35b61098485610500565b50346101715760a0366003190112610171576109b96113a0565b6109c16113cc565b906109ca6113b6565b6001600160a01b03909216915f51602061192d5f395f51905f526109f56084356108be8185886117b5565b0390a480f35b5034610171578060031936011261017157546040516001600160a01b039091168152602090f35b50346101715760203660031901126101715760209060ff906040906001600160a01b03610a4d6113a0565b16815260038452205416610a646040518092611454565bf35b50346101715760405f5160206118ed5f395f51905f52610a8536611425565b9290610a8f61178f565b60018060a01b0316928385526004602052610aac818387206115d2565b8015610ad957610ac7600485875260036020528387206115e3565b8151901515815260046020820152a280f35b610ac785610500565b50346101715761049c610af436611425565b90610afd61178f565b6115fb565b5034610171578060031936011261017157610b1b61178f565b80546001600160a01b03198116825581906001600160a01b03165f51602061190d5f395f51905f528280a380f35b503461017157806003193601126101715760ff6020915460a01c166040519015158152f35b503461017157608036600319011261017157610b886113a0565b90610b916113e2565b91604435906064356001600160401b0381116103f657610bb59036906004016113f8565b9490917f00000000000000000000000000000000000000000000000000000000000000006001600160a01b0316330361100e576001600160a01b03168085526004602052604085205490919060ff16156110005760ff855460a01c16610ff15760018060a01b0316948560018060a01b031960015416176001558160018060a01b03196002541617600255818552600360205260ff60408620541686837fae1167dd988b206ad4318c5abda297dffa2222fafb9f16468d03d866a3431dd660408051898152610c876020820187611454565ba36005811015610fdd5760028103610d2e575090610cc985969392610cbb604051948592602080850152604084019161152d565b03601f1981018452836114f6565b803b15610d2a57610d06938580946040519687958694859363701195a160e11b8552600485015260248401526060604484015260648301906115ae565b03925af180156103eb57610d1957505080f35b81610d23916114f6565b6101715780f35b8480fd5b60038103610e565750604092835194610d4785876114f6565b600186526020860190601f1986019889368437610d638861165f565b52855190610d7187836114f6565b600182526020820199368b37610d868261165f565b52843b1561042b578551632e1c224f60e11b81523060048201526080602482015296516084880181905260a488019290895b818110610e37575050506020906003198884030160448901525191828152019790875b818110610e215750505091848681610e03829a8296849860031985840301606486015261152d565b03925af1908115610e185750610d1957505080f35b513d84823e3d90fd5b82518a526020998a019990920191600101610ddb565b82516001600160a01b0316855260209485019490920191600101610db8565b9285969160048795145f14610f7b578495610ea8610ef09594610e9a610e9a95610ecc9560405195869460208601526040850152606080850152608084019161152d565b03601f1981018352826114f6565b60405192839163bf11f4af60e01b60208401526020602484015260448301906115ae565b6040519485809481936348c8949160e01b83526020600484015260248301906115ae565b03925af180156103eb57610f0357505080f35b3d8083833e610f1281836114f6565b810190602081830312610f77578051906001600160401b038211610f7557019080601f83011215610f7757815190610f498261154d565b90610f5760405192836114f6565b82825260208385010111610f75578160208094018483015e01015280f35b505b5050fd5b92809294509490943b1561042f57858094610fc4604051978896879586946310ac2ddf60e21b86523060048701526024860152604485015260a0606485015260a484019161152d565b82608483015203925af180156103eb57610d1957505080f35b634e487b7160e01b86526021600452602486fd5b636d9b07e760e11b8552600485fd5b6221eeab60e81b8552600485fd5b639e41bdd760e01b8552600485fd5b50346101715760203660031901126101715760209060ff906040906001600160a01b036110486113a0565b168152600484522054166040519015158152f35b5034610171576040366003190112610171576024356001600160401b0381116104335761108d9036906004016113f8565b600254909291906001600160a01b031633036111e557338252600360205260ff60408320541660058110156111d1576002036111c35781928101602082820312610f775781356001600160401b038111610f75576110eb9201611568565b815460ff60a01b1916600160a01b178255600154611117906004359033906001600160a01b031661169b565b7f00000000000000000000000000000000000000000000000000000000000000006001600160a01b0316803b15610f77576040516306d7234360e11b81526020600482015291839183918290849082906111759060248301906115ae565b03925af180156103eb576111ae5750805460ff60a01b19168155600180546001600160a01b031990811690915560028054909116905580f35b816111b8916114f6565b61017157805f61072d565b6221eeab60e81b8252600482fd5b634e487b7160e01b83526021600452602483fd5b635c427cd960e01b8252600482fd5b503461077f5760a036600319011261077f5761120e6113a0565b6112166113b6565b906084356001600160401b03811161077f576112369036906004016113f8565b60025491939092916001600160a01b0316330361136f57335f52600360205260ff60405f205416600581101561138c5760010361137e57306001600160a01b039091160361136f575f805460ff60a01b1916600160a01b1790556112b3906112a26044356024356114d5565b9033906001600160a01b031661169b565b7f00000000000000000000000000000000000000000000000000000000000000006001600160a01b031691823b1561077f57611310925f92836040518096819582946306d7234360e11b845260206004850152602484019161152d565b03925af1801561136457611351575b50805460ff60a01b19169055600180546001600160a01b03199081168255600280549091169055604051908152602090f35b61135d91505f906114f6565b5f5f61131f565b6040513d5f823e3d90fd5b635c427cd960e01b5f5260045ffd5b6221eeab60e81b5f5260045ffd5b634e487b7160e01b5f52602160045260245ffd5b600435906001600160a01b038216820361077f57565b606435906001600160a01b038216820361077f57565b604435906001600160a01b038216820361077f57565b602435906001600160a01b038216820361077f57565b9181601f8401121561077f578235916001600160401b03831161077f576020838186019501011161077f57565b604090600319011261077f576004356001600160a01b038116810361077f5790602435801515810361077f5790565b90600582101561138c5752565b3461077f575f36600319011261077f576040517f00000000000000000000000000000000000000000000000000000000000000006001600160a01b03168152602090f35b9181601f8401121561077f578235916001600160401b03831161077f576020808501948460051b01011161077f57565b919082018092116114e257565b634e487b7160e01b5f52601160045260245ffd5b601f909101601f19168101906001600160401b0382119082101761151957604052565b634e487b7160e01b5f52604160045260245ffd5b908060209392818452848401375f828201840152601f01601f1916010190565b6001600160401b03811161151957601f01601f191660200190565b81601f8201121561077f5780359061157f8261154d565b9261158d60405194856114f6565b8284526020838301011161077f57815f926020809301838601378301015290565b805180835260209291819084018484015e5f828201840152601f01601f1916010190565b9060ff801983541691151516179055565b90600581101561138c5760ff80198354169116179055565b60405f5160206118ed5f395f51905f529160018060a01b031692835f52600460205261162981835f206115d2565b80156116565761164560015b855f526003602052835f206115e3565b8151901515815260016020820152a2565b6116455f611635565b80511561166c5760200190565b634e487b7160e01b5f52603260045260245ffd5b6001600160a01b039091168152602081019190915260400190565b919091604051916116d0836116c2602082019363095ea7b360e01b85528760248401611680565b03601f1981018552846114f6565b82516001600160a01b038316915f91829182855af1906116ee6117dc565b8261175d575b5081611752575b501561170657505050565b60405163095ea7b360e01b60208201526001600160a01b0390931660248401525f60448085019190915283526117509261174b906117456064826114f6565b82611823565b611823565b565b90503b15155f6116fb565b80519192508115918215611775575b5050905f6116f4565b611788925060208091830101910161180b565b5f8061176c565b5f546001600160a01b031633036117a257565b63118cdaa760e01b5f523360045260245ffd5b61174b6117509392610cbb60405194859263a9059cbb60e01b602085015260248401611680565b3d15611806573d906117ed8261154d565b916117fb60405193846114f6565b82523d5f602084013e565b606090565b9081602091031261077f5751801515810361077f5790565b5f8061184b9260018060a01b03169360208151910182865af16118446117dc565b908361188e565b8051908115159182611873575b50506118615750565b635274afe760e01b5f5260045260245ffd5b611886925060208091830101910161180b565b155f80611858565b906118b257508051156118a357805190602001fd5b630a12f52160e11b5f5260045ffd5b815115806118e3575b6118c3575090565b639996b31560e01b5f9081526001600160a01b0391909116600452602490fd5b50803b156118bb56fed4592927869c83c7edf7f0a74cd19a3839b0888757840d5ea3663c4542ca1d758be0079c531659141344cd1fd0a4f28419497f9722a3daafe3b4186f6b6457e0e10c2db58c01c53f0ea5669a38d4a0be6c8a048aa1801f888a89ecade2d0848fa26469706673582212204852b8d6a8de207cc482861000eb7215ff5595744f9cb25486a3585a023f3d5264736f6c634300081e0033",
  "devdoc": {
    "details": "Supports Morpho Blue (0% fee), Balancer V2 (0% fee), and Aave V3 (0.05% fee)",
    "errors": {
      "AddressEmptyCode(address)": [
        {
          "details": "There's no code at `target` (it is not a contract)."
        }
      ],
      "AddressInsufficientBalance(address)": [
        {
          "details": "The ETH balance of the account is not enough to perform the operation."
        }
      ],
      "FailedInnerCall()": [
        {
          "details": "A call to an address target failed. The target may have reverted."
        }
      ],
      "OwnableInvalidOwner(address)": [
        {
          "details": "The owner is not a valid owner account. (eg. `address(0)`)"
        }
      ],
      "OwnableUnauthorizedAccount(address)": [
        {
          "details": "The caller account is not authorized to perform an operation."
        }
      ],
      "SafeERC20FailedOperation(address)": [
        {
          "details": "An operation with an ERC20 token failed."
        }
      ]
    },
    "kind": "dev",
    "methods": {
      "approve(address,address,uint256)": {
        "details": "Only callable by Settlement contract"
      },
      "flashLoanAndCallBack(address,address,uint256,bytes)": {
        "params": {
          "amount": "The amount to borrow",
          "callbackData": "Data to pass back to router after receiving loan",
          "lender": "The flash loan provider (Morpho or Aave pool)",
          "token": "The token to borrow"
        }
      },
      "fundOrderBySalt(address,bytes32,address,address,uint256)": {
        "details": "Called in pre-hook to fund the order before swap execution.      Security note: HooksTrampoline is only callable by Settlement contract,      so this can only be called during a valid settlement transaction.",
        "params": {
          "amount": "The amount to transfer",
          "recipient": "The recipient (typically OrderManager)",
          "salt": "The order salt (for event logging)",
          "token": "The token to transfer",
          "user": "The order owner (for event logging)"
        }
      },
      "fundOrderWithBalance(address,bytes32,address,address)": {
        "details": "For conditional orders where amounts are dynamic. Transfers whatever      flash loan amount was received, regardless of what was encoded in appData.",
        "params": {
          "recipient": "The recipient (typically OrderManager)",
          "salt": "The order salt (for event logging)",
          "token": "The token to transfer",
          "user": "The order owner (for event logging)"
        }
      },
      "onMorphoFlashLoan(uint256,bytes)": {
        "params": {
          "assets": "The borrowed amount",
          "data": "Encoded callbackData for router"
        }
      },
      "owner()": {
        "details": "Returns the address of the current owner."
      },
      "receiveFlashLoan(address[],uint256[],uint256[],bytes)": {
        "params": {
          "amounts": "Array of amounts borrowed",
          "feeAmounts": "Array of fee amounts (0 for Balancer)",
          "tokens": "Array of tokens borrowed (we only use single token)",
          "userData": "Encoded callbackData for router"
        }
      },
      "receiveFlashLoanV3(bytes)": {
        "details": "V3 uses a different flow: unlock() -> sendTo() to receive -> settle() to repay",
        "params": {
          "userData": "Encoded (token, amount, callbackData)"
        }
      },
      "renounceOwnership()": {
        "details": "Leaves the contract without owner. It will not be possible to call `onlyOwner` functions. Can only be called by the current owner. NOTE: Renouncing ownership will leave the contract without an owner, thereby disabling any functionality that is only available to the owner."
      },
      "transferOwnership(address)": {
        "details": "Transfers ownership of the contract to a new account (`newOwner`). Can only be called by the current owner."
      }
    },
    "title": "KapanCowAdapter",
    "version": 1
  },
  "userdoc": {
    "kind": "user",
    "methods": {
      "allowedLenders(address)": {
        "notice": "Mapping of allowed lenders"
      },
      "approve(address,address,uint256)": {
        "notice": "Approve a target to spend tokens (standard IBorrower function)"
      },
      "executeOperation(address,uint256,uint256,address,bytes)": {
        "notice": "Called by Aave after flash loan tokens are sent"
      },
      "flashLoanAndCallBack(address,address,uint256,bytes)": {
        "notice": "Called by FlashLoanRouter to initiate flash loan"
      },
      "fundOrderBySalt(address,bytes32,address,address,uint256)": {
        "notice": "Transfer flash-loaned tokens to the order recipient (OrderManager)"
      },
      "fundOrderWithBalance(address,bytes32,address,address)": {
        "notice": "Transfer entire token balance to the order recipient (OrderManager)"
      },
      "lenderTypes(address)": {
        "notice": "Mapping of lender address => LenderType"
      },
      "onMorphoFlashLoan(uint256,bytes)": {
        "notice": "Called by Morpho Blue after flash loan tokens are sent"
      },
      "receiveFlashLoan(address[],uint256[],uint256[],bytes)": {
        "notice": "Called by Balancer V2 Vault after flash loan tokens are sent"
      },
      "receiveFlashLoanV3(bytes)": {
        "notice": "Called by Balancer V3 Vault via unlock() pattern"
      },
      "rescueTokens(address,address,uint256)": {
        "notice": "Rescue tokens accidentally sent to this contract"
      },
      "router()": {
        "notice": "CoW Protocol's FlashLoanRouter"
      },
      "setAaveLender(address,bool)": {
        "notice": "Add or remove an allowed Aave lender"
      },
      "setBalancerV2Lender(address,bool)": {
        "notice": "Add or remove an allowed Balancer V2 lender"
      },
      "setBalancerV3Lender(address,bool)": {
        "notice": "Add or remove an allowed Balancer V3 lender"
      },
      "setLender(address,bool)": {
        "notice": "Legacy function for backwards compatibility (defaults to Aave)"
      },
      "setMorphoLender(address,bool)": {
        "notice": "Add or remove an allowed Morpho lender"
      },
      "settlementContract()": {
        "notice": "CoW Protocol's Settlement contract"
      }
    },
    "notice": "Bridges Kapan's OrderManager with CoW Protocol's flash loan system",
    "version": 1
  },
  "storageLayout": {
    "storage": [
      {
        "astId": 1578,
        "contract": "contracts/v2/cow/KapanCowAdapter.sol:KapanCowAdapter",
        "label": "_owner",
        "offset": 0,
        "slot": "0",
        "type": "t_address"
      },
      {
        "astId": 15204,
        "contract": "contracts/v2/cow/KapanCowAdapter.sol:KapanCowAdapter",
        "label": "_inFlashLoan",
        "offset": 20,
        "slot": "0",
        "type": "t_bool"
      },
      {
        "astId": 15207,
        "contract": "contracts/v2/cow/KapanCowAdapter.sol:KapanCowAdapter",
        "label": "_flashLoanToken",
        "offset": 0,
        "slot": "1",
        "type": "t_address"
      },
      {
        "astId": 15210,
        "contract": "contracts/v2/cow/KapanCowAdapter.sol:KapanCowAdapter",
        "label": "_currentLender",
        "offset": 0,
        "slot": "2",
        "type": "t_address"
      },
      {
        "astId": 15216,
        "contract": "contracts/v2/cow/KapanCowAdapter.sol:KapanCowAdapter",
        "label": "lenderTypes",
        "offset": 0,
        "slot": "3",
        "type": "t_mapping(t_address,t_enum(LenderType)15185)"
      },
      {
        "astId": 15221,
        "contract": "contracts/v2/cow/KapanCowAdapter.sol:KapanCowAdapter",
        "label": "allowedLenders",
        "offset": 0,
        "slot": "4",
        "type": "t_mapping(t_address,t_bool)"
      }
    ],
    "types": {
      "t_address": {
        "encoding": "inplace",
        "label": "address",
        "numberOfBytes": "20"
      },
      "t_bool": {
        "encoding": "inplace",
        "label": "bool",
        "numberOfBytes": "1"
      },
      "t_enum(LenderType)15185": {
        "encoding": "inplace",
        "label": "enum LenderType",
        "numberOfBytes": "1"
      },
      "t_mapping(t_address,t_bool)": {
        "encoding": "mapping",
        "key": "t_address",
        "label": "mapping(address => bool)",
        "numberOfBytes": "32",
        "value": "t_bool"
      },
      "t_mapping(t_address,t_enum(LenderType)15185)": {
        "encoding": "mapping",
        "key": "t_address",
        "label": "mapping(address => enum LenderType)",
        "numberOfBytes": "32",
        "value": "t_enum(LenderType)15185"
      }
    }
  }
}