{
  "address": "0x84e002F94902a87A50E566E45f4511B94168fE6a",
  "abi": [
    {
      "inputs": [
        {
          "internalType": "address",
          "name": "_router",
          "type": "address"
        },
        {
          "internalType": "address",
          "name": "_owner",
          "type": "address"
        }
      ],
      "stateMutability": "nonpayable",
      "type": "constructor"
    },
    {
      "inputs": [
        {
          "internalType": "address",
          "name": "target",
          "type": "address"
        }
      ],
      "name": "AddressEmptyCode",
      "type": "error"
    },
    {
      "inputs": [
        {
          "internalType": "address",
          "name": "account",
          "type": "address"
        }
      ],
      "name": "AddressInsufficientBalance",
      "type": "error"
    },
    {
      "inputs": [],
      "name": "FailedInnerCall",
      "type": "error"
    },
    {
      "inputs": [],
      "name": "FlashLoanInProgress",
      "type": "error"
    },
    {
      "inputs": [],
      "name": "InvalidLender",
      "type": "error"
    },
    {
      "inputs": [],
      "name": "OnlyDuringSettlement",
      "type": "error"
    },
    {
      "inputs": [],
      "name": "OnlyRouter",
      "type": "error"
    },
    {
      "inputs": [],
      "name": "OnlySettlement",
      "type": "error"
    },
    {
      "inputs": [
        {
          "internalType": "address",
          "name": "owner",
          "type": "address"
        }
      ],
      "name": "OwnableInvalidOwner",
      "type": "error"
    },
    {
      "inputs": [
        {
          "internalType": "address",
          "name": "account",
          "type": "address"
        }
      ],
      "name": "OwnableUnauthorizedAccount",
      "type": "error"
    },
    {
      "inputs": [
        {
          "internalType": "address",
          "name": "token",
          "type": "address"
        }
      ],
      "name": "SafeERC20FailedOperation",
      "type": "error"
    },
    {
      "inputs": [],
      "name": "UnauthorizedCaller",
      "type": "error"
    },
    {
      "anonymous": false,
      "inputs": [
        {
          "indexed": true,
          "internalType": "address",
          "name": "lender",
          "type": "address"
        },
        {
          "indexed": true,
          "internalType": "address",
          "name": "token",
          "type": "address"
        },
        {
          "indexed": false,
          "internalType": "uint256",
          "name": "amount",
          "type": "uint256"
        },
        {
          "indexed": false,
          "internalType": "enum LenderType",
          "name": "lenderType",
          "type": "uint8"
        }
      ],
      "name": "FlashLoanRequested",
      "type": "event"
    },
    {
      "anonymous": false,
      "inputs": [
        {
          "indexed": true,
          "internalType": "address",
          "name": "lender",
          "type": "address"
        },
        {
          "indexed": false,
          "internalType": "bool",
          "name": "allowed",
          "type": "bool"
        },
        {
          "indexed": false,
          "internalType": "enum LenderType",
          "name": "lenderType",
          "type": "uint8"
        }
      ],
      "name": "LenderUpdated",
      "type": "event"
    },
    {
      "anonymous": false,
      "inputs": [
        {
          "indexed": true,
          "internalType": "address",
          "name": "token",
          "type": "address"
        },
        {
          "indexed": true,
          "internalType": "address",
          "name": "recipient",
          "type": "address"
        },
        {
          "indexed": false,
          "internalType": "uint256",
          "name": "amount",
          "type": "uint256"
        }
      ],
      "name": "OrderFunded",
      "type": "event"
    },
    {
      "anonymous": false,
      "inputs": [
        {
          "indexed": true,
          "internalType": "address",
          "name": "previousOwner",
          "type": "address"
        },
        {
          "indexed": true,
          "internalType": "address",
          "name": "newOwner",
          "type": "address"
        }
      ],
      "name": "OwnershipTransferred",
      "type": "event"
    },
    {
      "inputs": [
        {
          "internalType": "address",
          "name": "",
          "type": "address"
        }
      ],
      "name": "allowedLenders",
      "outputs": [
        {
          "internalType": "bool",
          "name": "",
          "type": "bool"
        }
      ],
      "stateMutability": "view",
      "type": "function"
    },
    {
      "inputs": [
        {
          "internalType": "contract IERC20",
          "name": "token",
          "type": "address"
        },
        {
          "internalType": "address",
          "name": "target",
          "type": "address"
        },
        {
          "internalType": "uint256",
          "name": "amount",
          "type": "uint256"
        }
      ],
      "name": "approve",
      "outputs": [],
      "stateMutability": "nonpayable",
      "type": "function"
    },
    {
      "inputs": [
        {
          "internalType": "address",
          "name": "asset",
          "type": "address"
        },
        {
          "internalType": "uint256",
          "name": "amount",
          "type": "uint256"
        },
        {
          "internalType": "uint256",
          "name": "premium",
          "type": "uint256"
        },
        {
          "internalType": "address",
          "name": "initiator",
          "type": "address"
        },
        {
          "internalType": "bytes",
          "name": "params",
          "type": "bytes"
        }
      ],
      "name": "executeOperation",
      "outputs": [
        {
          "internalType": "bool",
          "name": "",
          "type": "bool"
        }
      ],
      "stateMutability": "nonpayable",
      "type": "function"
    },
    {
      "inputs": [
        {
          "internalType": "address",
          "name": "lender",
          "type": "address"
        },
        {
          "internalType": "contract IERC20",
          "name": "token",
          "type": "address"
        },
        {
          "internalType": "uint256",
          "name": "amount",
          "type": "uint256"
        },
        {
          "internalType": "bytes",
          "name": "callbackData",
          "type": "bytes"
        }
      ],
      "name": "flashLoanAndCallBack",
      "outputs": [],
      "stateMutability": "nonpayable",
      "type": "function"
    },
    {
      "inputs": [
        {
          "internalType": "address",
          "name": "token",
          "type": "address"
        },
        {
          "internalType": "address",
          "name": "recipient",
          "type": "address"
        },
        {
          "internalType": "uint256",
          "name": "amount",
          "type": "uint256"
        }
      ],
      "name": "fundOrder",
      "outputs": [],
      "stateMutability": "nonpayable",
      "type": "function"
    },
    {
      "inputs": [
        {
          "internalType": "address",
          "name": "lender",
          "type": "address"
        }
      ],
      "name": "getLenderType",
      "outputs": [
        {
          "internalType": "enum LenderType",
          "name": "",
          "type": "uint8"
        }
      ],
      "stateMutability": "view",
      "type": "function"
    },
    {
      "inputs": [],
      "name": "getRouter",
      "outputs": [
        {
          "internalType": "address",
          "name": "",
          "type": "address"
        }
      ],
      "stateMutability": "view",
      "type": "function"
    },
    {
      "inputs": [],
      "name": "getSettlementContract",
      "outputs": [
        {
          "internalType": "address",
          "name": "",
          "type": "address"
        }
      ],
      "stateMutability": "view",
      "type": "function"
    },
    {
      "inputs": [],
      "name": "isInFlashLoan",
      "outputs": [
        {
          "internalType": "bool",
          "name": "",
          "type": "bool"
        }
      ],
      "stateMutability": "view",
      "type": "function"
    },
    {
      "inputs": [
        {
          "internalType": "address",
          "name": "",
          "type": "address"
        }
      ],
      "name": "lenderTypes",
      "outputs": [
        {
          "internalType": "enum LenderType",
          "name": "",
          "type": "uint8"
        }
      ],
      "stateMutability": "view",
      "type": "function"
    },
    {
      "inputs": [
        {
          "internalType": "uint256",
          "name": "assets",
          "type": "uint256"
        },
        {
          "internalType": "bytes",
          "name": "data",
          "type": "bytes"
        }
      ],
      "name": "onMorphoFlashLoan",
      "outputs": [],
      "stateMutability": "nonpayable",
      "type": "function"
    },
    {
      "inputs": [],
      "name": "owner",
      "outputs": [
        {
          "internalType": "address",
          "name": "",
          "type": "address"
        }
      ],
      "stateMutability": "view",
      "type": "function"
    },
    {
      "inputs": [],
      "name": "renounceOwnership",
      "outputs": [],
      "stateMutability": "nonpayable",
      "type": "function"
    },
    {
      "inputs": [
        {
          "internalType": "address",
          "name": "token",
          "type": "address"
        },
        {
          "internalType": "address",
          "name": "to",
          "type": "address"
        },
        {
          "internalType": "uint256",
          "name": "amount",
          "type": "uint256"
        }
      ],
      "name": "rescueTokens",
      "outputs": [],
      "stateMutability": "nonpayable",
      "type": "function"
    },
    {
      "inputs": [],
      "name": "router",
      "outputs": [
        {
          "internalType": "contract IFlashLoanRouter",
          "name": "",
          "type": "address"
        }
      ],
      "stateMutability": "view",
      "type": "function"
    },
    {
      "inputs": [
        {
          "internalType": "address",
          "name": "lender",
          "type": "address"
        },
        {
          "internalType": "bool",
          "name": "allowed",
          "type": "bool"
        }
      ],
      "name": "setAaveLender",
      "outputs": [],
      "stateMutability": "nonpayable",
      "type": "function"
    },
    {
      "inputs": [
        {
          "internalType": "address",
          "name": "lender",
          "type": "address"
        },
        {
          "internalType": "bool",
          "name": "allowed",
          "type": "bool"
        }
      ],
      "name": "setLender",
      "outputs": [],
      "stateMutability": "nonpayable",
      "type": "function"
    },
    {
      "inputs": [
        {
          "internalType": "address",
          "name": "lender",
          "type": "address"
        },
        {
          "internalType": "bool",
          "name": "allowed",
          "type": "bool"
        }
      ],
      "name": "setMorphoLender",
      "outputs": [],
      "stateMutability": "nonpayable",
      "type": "function"
    },
    {
      "inputs": [],
      "name": "settlementContract",
      "outputs": [
        {
          "internalType": "address",
          "name": "",
          "type": "address"
        }
      ],
      "stateMutability": "view",
      "type": "function"
    },
    {
      "inputs": [
        {
          "internalType": "address",
          "name": "newOwner",
          "type": "address"
        }
      ],
      "name": "transferOwnership",
      "outputs": [],
      "stateMutability": "nonpayable",
      "type": "function"
    }
  ],
  "transactionHash": "0x35888c8d5c9e34fe0abcb8bad69194dc1159dd0f070f20b9583c8bd16669c9bf",
  "args": [
    "0x9da8B48441583a2b93e2eF8213aAD0EC0b392C69",
    "0x0BE61223F99E57b8b8B7033a77B54Adc7f7cF027"
  ],
  "numDeployments": 1,
  "solcInputHash": "995e680a341a343a4419d91ed1943081",
  "bytecode": "0x60c0806040523461014357604081611915803803809161001f828561016d565b83398101031261014357610032816101a4565b906001600160a01b0390610048906020016101a4565b16801561015a575f80546001600160a01b0319811683178255604051936020938593600493859392916001600160a01b03909116907f8be0079c531659141344cd1fd0a4f28419497f9722a3daafe3b4186f6b6457e09080a36001600160a01b0316608081905263ea42418b60e01b82525afa90811561014f575f91610111575b5060a05260405161175c90816101b9823960805181818161010b015281816105050152818161067501528181610d380152611067015260a0518181816101d9015261124a0152f35b90506020813d602011610147575b8161012c6020938361016d565b810103126101435761013d906101a4565b5f6100c9565b5f80fd5b3d915061011f565b6040513d5f823e3d90fd5b631e4fbdf760e01b5f525f60045260245ffd5b601f909101601f19168101906001600160401b0382119082101761019057604052565b634e487b7160e01b5f52604160045260245ffd5b51906001600160a01b03821682036101435756fe60806040526004361015610011575f80fd5b5f5f3560e01c80631b11d0ff14610fa457806331f5707214610b1c578063366d8f3d14610add5780633ff5af8f1461059f5780635678d2161461062b57806360db1bc214610606578063665bf3d01461055b578063715018a6146105bf5780637cd223c91461059f5780638382075a1461055b5780638da5cb5b14610534578063b0f479a1146104ef578063ba4d4392146102f6578063cea9d26f146102ab578063dc127d09146101b0578063e1a3503b14610227578063e1f21c67146101b5578063ea42418b146101b0578063f2fde38b1461013d5763f887ea40146100f6575f80fd5b3461013a578060031936011261013a576040517f00000000000000000000000000000000000000000000000000000000000000006001600160a01b03168152602090f35b80fd5b503461013a57602036600319011261013a57610157611166565b61015f61153b565b6001600160a01b0316801561019c5781546001600160a01b03198116821783556001600160a01b03165f5160206117075f395f51905f528380a380f35b631e4fbdf760e01b82526004829052602482fd5b611235565b503461013a57606036600319011261013a576101cf611166565b6101d761117c565b7f00000000000000000000000000000000000000000000000000000000000000006001600160a01b03163303610218579061021591604435916113b2565b80f35b630ad98cbb60e11b8352600483fd5b503461013a5760405f5160206116e75f395f51905f52610246366111bf565b929061025061153b565b6001600160a01b03168085526004602052818520805460ff191660ff861515161790559280156102a25761029060025b858752600360205283872061130f565b8151901515815260026020820152a280f35b61029085610280565b503461013a576102ba366111fb565b906102c693929361153b565b60ff835460a01c166102e757919261021592906001600160a01b03166115af565b636d9b07e760e11b8352600483fd5b503461013a57610305366111fb565b60ff849392935460a01c16156104e05760409161034983516103278582611279565b601081526f199d5b9913dc99195c8e8814d510549560821b60208201526114a6565b61037e8284516103598682611279565b601381527266756e644f726465723a20616d6f756e74203d60681b60208201526114f8565b6103b684845161038e8682611279565b601681527566756e644f726465723a20726563697069656e74203d60501b6020820152611561565b82516370a0823160e01b8152306004820152936001600160a01b039190911690602085602481855afa9485156104d657869561049d575b5060207e2359f304b8464c859c155522e44f8652d8e890288a45e8de86c3cab7961654916104516102159787516104248982611279565b601c81527b66756e644f726465723a20616461707465722062616c616e6365203d60201b858201526114f8565b61045c8582866115af565b85519485526001600160a01b031693a361047881519182611279565b601381527266756e644f726465723a20434f4d504c45544560681b60208201526114a6565b94506020853d6020116104ce575b816104b860209383611279565b810103126104ca5793519360206103ed565b5f80fd5b3d91506104ab565b84513d88823e3d90fd5b631a4a635d60e01b8452600484fd5b503461013a578060031936011261013a576040517f00000000000000000000000000000000000000000000000000000000000000006001600160a01b03168152602090f35b503461013a578060031936011261013a57546040516001600160a01b039091168152602090f35b503461013a57602036600319011261013a5760209060ff906040906001600160a01b03610586611166565b1681526003845220541661059d60405180926111ee565bf35b503461013a576102156105b1366111bf565b906105ba61153b565b611327565b503461013a578060031936011261013a576105d861153b565b80546001600160a01b03198116825581906001600160a01b03165f5160206117075f395f51905f528280a380f35b503461013a578060031936011261013a5760ff6020915460a01c166040519015158152f35b503461013a57608036600319011261013a57610645611166565b9061064e61117c565b916044356064356001600160401b038111610ad957610671903690600401611192565b94907f00000000000000000000000000000000000000000000000000000000000000006001600160a01b03163303610aca576040936106e285516106b58782611279565b601b81527a199b185cda131bd85b905b9910d85b1b109858dace8814d5105495602a1b60208201526114a6565b6107218186516106f28882611279565b601e81527f666c6173684c6f616e416e6443616c6c4261636b3a206c656e646572203d00006020820152611561565b6107608486516107318882611279565b601e81527f666c6173684c6f616e416e6443616c6c4261636b3a20616d6f756e74203d000060208201526114f8565b6001600160a01b031680865260046020528486205490929060ff1615610abc5760ff865460a01c16610aad5760018060a01b0316918260018060a01b031960015416176001558060018060a01b03196002541617600255808652600360205260ff85872054169683827fae1167dd988b206ad4318c5abda297dffa2222fafb9f16468d03d866a3431dd68880518981526107fe8d60208301906111ee565ba36003881015610a995760028798979697145f1461096a576108949061086f885161082a606082611279565b602e81527f666c6173684c6f616e416e6443616c6c4261636b3a2063616c6c696e67204d6f60208201526d3938343797333630b9b42637b0b760911b8a8201526114a6565b61088688519485926020808501528a8401916112b0565b03601f198101845283611279565b803b15610966576108d09385809488519687958694859363701195a160e11b8552600485015260248401526060604484015260648301906112eb565b03925af1801561095957610940575b50508051610215917673684c6f616e2072657475726e6564205355434345535360481b9061090e606084611279565b603783527f666c6173684c6f616e416e6443616c6c4261636b3a204d6f7270686f2e666c6160208401528201526114a6565b8161094a91611279565b61095557815f6108df565b5080fd5b50505051903d90823e3d90fd5b8480fd5b91936109c5875161097c606082611279565b603281527f666c6173684c6f616e416e6443616c6c4261636b3a2063616c6c696e6720416160208201527176652e666c6173684c6f616e53696d706c6560701b898201526114a6565b813b15610a9557858094610a068951978896879586946310ac2ddf60e21b86523060048701526024860152604485015260a0606485015260a48401916112b0565b82608483015203925af1801561095957610a80575b50508051610215917a4c6f616e53696d706c652072657475726e6564205355434345535360281b90610a4e606084611279565b603b83527f666c6173684c6f616e416e6443616c6c4261636b3a20416176652e666c61736860208401528201526114a6565b81610a8a91611279565b61095557815f610a1b565b8580fd5b634e487b7160e01b87526021600452602487fd5b636d9b07e760e11b8652600486fd5b6221eeab60e81b8652600486fd5b639e41bdd760e01b8552600485fd5b8380fd5b503461013a57602036600319011261013a5760209060ff906040906001600160a01b03610b08611166565b168152600484522054166040519015158152f35b503461013a57604036600319011261013a576004356024356001600160401b038111610f6557610b50903690600401611192565b91604092610b8d8451610b638682611279565b60188152771bdb935bdc9c1a1bd19b185cda131bd85b8e8814d510549560421b60208201526114a6565b610bca828551610b9d8782611279565b601b81527a6f6e4d6f7270686f466c6173684c6f616e3a20617373657473203d60281b60208201526114f8565b6002546001600160a01b03163303610f9557338552600360205260ff84862054166003811015610f8157600203610f7357820191602081840312610966578035906001600160401b038211610a9557019082601f830112156109665784823592610c33846112d0565b94610c4087519687611279565b848652602085830101116109555783610c849460208093018388013785010152845460ff60a01b1916600160a01b17855560015433906001600160a01b03166113b2565b82606091610cde8451610c978582611279565b603081527f6f6e4d6f7270686f466c6173684c6f616e3a20617070726f766564204d6f727060208201526f1a1bc8199bdc881c995c185e5b595b9d60821b868201526114a6565b610d368451610ced8582611279565b603281527f6f6e4d6f7270686f466c6173684c6f616e3a2063616c6c696e6720726f757465602082015271722e626f72726f77657243616c6c4261636b60701b868201526114a6565b7f00000000000000000000000000000000000000000000000000000000000000006001600160a01b0316803b15610f655784516306d7234360e11b8152602060048201529183918391829084908290610d939060248301906112eb565b03925af18015610f6957610f50575b5050610df68251610db38382611279565b602c81527f6f6e4d6f7270686f466c6173684c6f616e3a20626f72726f77657243616c6c4260208201526b1858dac81c995d1d5c9b995960a21b848201526114a6565b60015482516370a0823160e01b81523060048201529092906020816024816001600160a01b0388165afa908115610f46578591610f10575b509061021593610eae7b1c9c1a1bc81dda5b1b081b9bddc81c1d5b1b081c995c185e5b595b9d60221b938351610e648782611279565b603381527f6f6e4d6f7270686f466c6173684c6f616e3a20616461707465722062616c616e60208201527263652061667465722063616c6c6261636b203d60681b858201526114f8565b855460ff60a01b191686556001600160a01b0319908116600155600280549091169055805192610ede9084611279565b603c83527f6f6e4d6f7270686f466c6173684c6f616e3a20434f4d504c455445202d204d6f60208401528201526114a6565b9190506020823d602011610f3e575b81610f2c60209383611279565b810103126104ca579051610215610e2e565b3d9150610f1f565b82513d87823e3d90fd5b81610f5a91611279565b610f6557825f610da2565b8280fd5b84513d84823e3d90fd5b6221eeab60e81b8552600485fd5b634e487b7160e01b86526021600452602486fd5b635c427cd960e01b8552600485fd5b50346104ca5760a03660031901126104ca57610fbe611166565b6064356001600160a01b03811691602435918390036104ca576084356001600160401b0381116104ca57610ff6903690600401611192565b60025491949093916001600160a01b0316330361113557335f52600360205260ff60405f205416600381101561115257600103611144573003611135575f805460ff60a01b1916600160a01b1790556044358101908110611121576110659133906001600160a01b03166113b2565b7f00000000000000000000000000000000000000000000000000000000000000006001600160a01b031691823b156104ca576110c2925f92836040518096819582946306d7234360e11b84526020600485015260248401916112b0565b03925af1801561111657611103575b50805460ff60a01b19169055600180546001600160a01b03199081168255600280549091169055604051908152602090f35b61110f91505f90611279565b5f5f6110d1565b6040513d5f823e3d90fd5b634e487b7160e01b5f52601160045260245ffd5b635c427cd960e01b5f5260045ffd5b6221eeab60e81b5f5260045ffd5b634e487b7160e01b5f52602160045260245ffd5b600435906001600160a01b03821682036104ca57565b602435906001600160a01b03821682036104ca57565b9181601f840112156104ca578235916001600160401b0383116104ca57602083818601950101116104ca57565b60409060031901126104ca576004356001600160a01b03811681036104ca579060243580151581036104ca5790565b9060038210156111525752565b60609060031901126104ca576004356001600160a01b03811681036104ca57906024356001600160a01b03811681036104ca579060443590565b346104ca575f3660031901126104ca576040517f00000000000000000000000000000000000000000000000000000000000000006001600160a01b03168152602090f35b601f909101601f19168101906001600160401b0382119082101761129c57604052565b634e487b7160e01b5f52604160045260245ffd5b908060209392818452848401375f828201840152601f01601f1916010190565b6001600160401b03811161129c57601f01601f191660200190565b805180835260209291819084018484015e5f828201840152601f01601f1916010190565b9060038110156111525760ff80198354169116179055565b60405f5160206116e75f395f51905f529160018060a01b031692835f52600460205261136181835f209060ff801983541691151516179055565b801561138e5761137d60015b855f526003602052835f2061130f565b8151901515815260016020820152a2565b61137d5f61136d565b6001600160a01b039091168152602081019190915260400190565b919091604051916113e7836113d9602082019363095ea7b360e01b85528760248401611397565b03601f198101855284611279565b82516001600160a01b038316915f91829182855af1906114056115d6565b82611474575b5081611469575b501561141d57505050565b60405163095ea7b360e01b60208201526001600160a01b0390931660248401525f6044808501919091528352611467926114629061145c606482611279565b8261161d565b61161d565b565b90503b15155f611412565b8051919250811591821561148c575b5050905f61140b565b61149f9250602080918301019101611605565b5f80611483565b5f6114d36114e1829360405192839163104c13eb60e21b60208401526020602484015260448301906112eb565b03601f198101835282611279565b6020815191016a636f6e736f6c652e6c6f675afa50565b6115276114e15f93928493604051938492632d839cb360e21b60208501526040602485015260648401906112eb565b90604483015203601f198101835282611279565b5f546001600160a01b0316330361154e57565b63118cdaa760e01b5f523360045260245ffd5b6115906114e15f9392849360405193849263319af33360e01b60208501526040602485015260648401906112eb565b6001600160a01b0391909116604483015203601f198101835282611279565b611462611467939261088660405194859263a9059cbb60e01b602085015260248401611397565b3d15611600573d906115e7826112d0565b916115f56040519384611279565b82523d5f602084013e565b606090565b908160209103126104ca575180151581036104ca5790565b5f806116459260018060a01b03169360208151910182865af161163e6115d6565b9083611688565b805190811515918261166d575b505061165b5750565b635274afe760e01b5f5260045260245ffd5b6116809250602080918301019101611605565b155f80611652565b906116ac575080511561169d57805190602001fd5b630a12f52160e11b5f5260045ffd5b815115806116dd575b6116bd575090565b639996b31560e01b5f9081526001600160a01b0391909116600452602490fd5b50803b156116b556fed4592927869c83c7edf7f0a74cd19a3839b0888757840d5ea3663c4542ca1d758be0079c531659141344cd1fd0a4f28419497f9722a3daafe3b4186f6b6457e0a2646970667358221220deebb5e8465ea3e230be4c6568e2c7b6725499739ee642150e8744851eda9a4064736f6c634300081e0033",
  "devdoc": {
    "details": "Supports both Morpho Blue (0% fee) and Aave V3 (0.05% fee)",
    "errors": {
      "AddressEmptyCode(address)": [
        {
          "details": "There's no code at `target` (it is not a contract)."
        }
      ],
      "AddressInsufficientBalance(address)": [
        {
          "details": "The ETH balance of the account is not enough to perform the operation."
        }
      ],
      "FailedInnerCall()": [
        {
          "details": "A call to an address target failed. The target may have reverted."
        }
      ],
      "OwnableInvalidOwner(address)": [
        {
          "details": "The owner is not a valid owner account. (eg. `address(0)`)"
        }
      ],
      "OwnableUnauthorizedAccount(address)": [
        {
          "details": "The caller account is not authorized to perform an operation."
        }
      ],
      "SafeERC20FailedOperation(address)": [
        {
          "details": "An operation with an ERC20 token failed."
        }
      ]
    },
    "kind": "dev",
    "methods": {
      "approve(address,address,uint256)": {
        "details": "Only callable by Settlement contract"
      },
      "flashLoanAndCallBack(address,address,uint256,bytes)": {
        "params": {
          "amount": "The amount to borrow",
          "callbackData": "Data to pass back to router after receiving loan",
          "lender": "The flash loan provider (Morpho or Aave pool)",
          "token": "The token to borrow"
        }
      },
      "fundOrder(address,address,uint256)": {
        "details": "Called in pre-hook to fund the order. Only callable during active flash loan settlement."
      },
      "onMorphoFlashLoan(uint256,bytes)": {
        "params": {
          "assets": "The borrowed amount",
          "data": "Encoded callbackData for router"
        }
      },
      "owner()": {
        "details": "Returns the address of the current owner."
      },
      "renounceOwnership()": {
        "details": "Leaves the contract without owner. It will not be possible to call `onlyOwner` functions. Can only be called by the current owner. NOTE: Renouncing ownership will leave the contract without an owner, thereby disabling any functionality that is only available to the owner."
      },
      "transferOwnership(address)": {
        "details": "Transfers ownership of the contract to a new account (`newOwner`). Can only be called by the current owner."
      }
    },
    "title": "KapanCowAdapter",
    "version": 1
  },
  "userdoc": {
    "kind": "user",
    "methods": {
      "allowedLenders(address)": {
        "notice": "Mapping of allowed lenders"
      },
      "approve(address,address,uint256)": {
        "notice": "Approve a target to spend tokens (standard IBorrower function)"
      },
      "executeOperation(address,uint256,uint256,address,bytes)": {
        "notice": "Called by Aave after flash loan tokens are sent"
      },
      "flashLoanAndCallBack(address,address,uint256,bytes)": {
        "notice": "Called by FlashLoanRouter to initiate flash loan"
      },
      "fundOrder(address,address,uint256)": {
        "notice": "Transfer flash-loaned tokens to the order recipient (OrderManager)"
      },
      "lenderTypes(address)": {
        "notice": "Mapping of lender address => LenderType"
      },
      "onMorphoFlashLoan(uint256,bytes)": {
        "notice": "Called by Morpho Blue after flash loan tokens are sent"
      },
      "rescueTokens(address,address,uint256)": {
        "notice": "Rescue tokens accidentally sent to this contract"
      },
      "router()": {
        "notice": "CoW Protocol's FlashLoanRouter"
      },
      "setAaveLender(address,bool)": {
        "notice": "Add or remove an allowed Aave lender"
      },
      "setLender(address,bool)": {
        "notice": "Legacy function for backwards compatibility (defaults to Aave)"
      },
      "setMorphoLender(address,bool)": {
        "notice": "Add or remove an allowed Morpho lender"
      },
      "settlementContract()": {
        "notice": "CoW Protocol's Settlement contract"
      }
    },
    "notice": "Bridges Kapan's OrderManager with CoW Protocol's flash loan system",
    "version": 1
  },
  "storageLayout": {
    "storage": [
      {
        "astId": 8,
        "contract": "contracts/v2/cow/KapanCowAdapter.sol:KapanCowAdapter",
        "label": "_owner",
        "offset": 0,
        "slot": "0",
        "type": "t_address"
      },
      {
        "astId": 989,
        "contract": "contracts/v2/cow/KapanCowAdapter.sol:KapanCowAdapter",
        "label": "_inFlashLoan",
        "offset": 20,
        "slot": "0",
        "type": "t_bool"
      },
      {
        "astId": 992,
        "contract": "contracts/v2/cow/KapanCowAdapter.sol:KapanCowAdapter",
        "label": "_flashLoanToken",
        "offset": 0,
        "slot": "1",
        "type": "t_address"
      },
      {
        "astId": 995,
        "contract": "contracts/v2/cow/KapanCowAdapter.sol:KapanCowAdapter",
        "label": "_currentLender",
        "offset": 0,
        "slot": "2",
        "type": "t_address"
      },
      {
        "astId": 1001,
        "contract": "contracts/v2/cow/KapanCowAdapter.sol:KapanCowAdapter",
        "label": "lenderTypes",
        "offset": 0,
        "slot": "3",
        "type": "t_mapping(t_address,t_enum(LenderType)970)"
      },
      {
        "astId": 1006,
        "contract": "contracts/v2/cow/KapanCowAdapter.sol:KapanCowAdapter",
        "label": "allowedLenders",
        "offset": 0,
        "slot": "4",
        "type": "t_mapping(t_address,t_bool)"
      }
    ],
    "types": {
      "t_address": {
        "encoding": "inplace",
        "label": "address",
        "numberOfBytes": "20"
      },
      "t_bool": {
        "encoding": "inplace",
        "label": "bool",
        "numberOfBytes": "1"
      },
      "t_enum(LenderType)970": {
        "encoding": "inplace",
        "label": "enum LenderType",
        "numberOfBytes": "1"
      },
      "t_mapping(t_address,t_bool)": {
        "encoding": "mapping",
        "key": "t_address",
        "label": "mapping(address => bool)",
        "numberOfBytes": "32",
        "value": "t_bool"
      },
      "t_mapping(t_address,t_enum(LenderType)970)": {
        "encoding": "mapping",
        "key": "t_address",
        "label": "mapping(address => enum LenderType)",
        "numberOfBytes": "32",
        "value": "t_enum(LenderType)970"
      }
    }
  }
}