{
  "address": "0x295EBb08cBAe8478aF22d8B2448e435b1dE6E22d",
  "abi": [
    {
      "inputs": [
        {
          "internalType": "address",
          "name": "_orderManager",
          "type": "address"
        }
      ],
      "stateMutability": "nonpayable",
      "type": "constructor"
    },
    {
      "inputs": [],
      "name": "InvalidOrderManager",
      "type": "error"
    },
    {
      "inputs": [],
      "name": "OrderNotActive",
      "type": "error"
    },
    {
      "inputs": [
        {
          "internalType": "string",
          "name": "reason",
          "type": "string"
        }
      ],
      "name": "OrderNotValid",
      "type": "error"
    },
    {
      "inputs": [
        {
          "internalType": "string",
          "name": "reason",
          "type": "string"
        }
      ],
      "name": "PollNever",
      "type": "error"
    },
    {
      "inputs": [],
      "name": "CHUNK_WINDOW",
      "outputs": [
        {
          "internalType": "uint256",
          "name": "",
          "type": "uint256"
        }
      ],
      "stateMutability": "view",
      "type": "function"
    },
    {
      "inputs": [
        {
          "internalType": "bytes32",
          "name": "orderHash",
          "type": "bytes32"
        }
      ],
      "name": "getChunkParams",
      "outputs": [
        {
          "internalType": "uint256",
          "name": "sellAmount",
          "type": "uint256"
        },
        {
          "internalType": "uint256",
          "name": "buyAmount",
          "type": "uint256"
        },
        {
          "internalType": "bool",
          "name": "isComplete",
          "type": "bool"
        },
        {
          "internalType": "bool",
          "name": "isKindBuy",
          "type": "bool"
        }
      ],
      "stateMutability": "view",
      "type": "function"
    },
    {
      "inputs": [
        {
          "internalType": "bytes32",
          "name": "orderHash",
          "type": "bytes32"
        }
      ],
      "name": "getProgress",
      "outputs": [
        {
          "internalType": "uint256",
          "name": "executed",
          "type": "uint256"
        },
        {
          "internalType": "uint256",
          "name": "total",
          "type": "uint256"
        },
        {
          "internalType": "uint256",
          "name": "iterations",
          "type": "uint256"
        }
      ],
      "stateMutability": "view",
      "type": "function"
    },
    {
      "inputs": [
        {
          "internalType": "address",
          "name": "owner",
          "type": "address"
        },
        {
          "internalType": "address",
          "name": "sender",
          "type": "address"
        },
        {
          "internalType": "bytes32",
          "name": "ctx",
          "type": "bytes32"
        },
        {
          "internalType": "bytes",
          "name": "staticInput",
          "type": "bytes"
        },
        {
          "internalType": "bytes",
          "name": "offchainInput",
          "type": "bytes"
        }
      ],
      "name": "getTradeableOrder",
      "outputs": [
        {
          "components": [
            {
              "internalType": "contract IERC20",
              "name": "sellToken",
              "type": "address"
            },
            {
              "internalType": "contract IERC20",
              "name": "buyToken",
              "type": "address"
            },
            {
              "internalType": "address",
              "name": "receiver",
              "type": "address"
            },
            {
              "internalType": "uint256",
              "name": "sellAmount",
              "type": "uint256"
            },
            {
              "internalType": "uint256",
              "name": "buyAmount",
              "type": "uint256"
            },
            {
              "internalType": "uint32",
              "name": "validTo",
              "type": "uint32"
            },
            {
              "internalType": "bytes32",
              "name": "appData",
              "type": "bytes32"
            },
            {
              "internalType": "uint256",
              "name": "feeAmount",
              "type": "uint256"
            },
            {
              "internalType": "bytes32",
              "name": "kind",
              "type": "bytes32"
            },
            {
              "internalType": "bool",
              "name": "partiallyFillable",
              "type": "bool"
            },
            {
              "internalType": "bytes32",
              "name": "sellTokenBalance",
              "type": "bytes32"
            },
            {
              "internalType": "bytes32",
              "name": "buyTokenBalance",
              "type": "bytes32"
            }
          ],
          "internalType": "struct GPv2Order.Data",
          "name": "order",
          "type": "tuple"
        }
      ],
      "stateMutability": "view",
      "type": "function"
    },
    {
      "inputs": [],
      "name": "orderManager",
      "outputs": [
        {
          "internalType": "contract KapanOrderManager",
          "name": "",
          "type": "address"
        }
      ],
      "stateMutability": "view",
      "type": "function"
    },
    {
      "inputs": [
        {
          "internalType": "bytes4",
          "name": "interfaceId",
          "type": "bytes4"
        }
      ],
      "name": "supportsInterface",
      "outputs": [
        {
          "internalType": "bool",
          "name": "",
          "type": "bool"
        }
      ],
      "stateMutability": "pure",
      "type": "function"
    },
    {
      "inputs": [
        {
          "internalType": "address",
          "name": "owner",
          "type": "address"
        },
        {
          "internalType": "address",
          "name": "sender",
          "type": "address"
        },
        {
          "internalType": "bytes32",
          "name": "_hash",
          "type": "bytes32"
        },
        {
          "internalType": "bytes32",
          "name": "domainSeparator",
          "type": "bytes32"
        },
        {
          "internalType": "bytes32",
          "name": "ctx",
          "type": "bytes32"
        },
        {
          "internalType": "bytes",
          "name": "staticInput",
          "type": "bytes"
        },
        {
          "internalType": "bytes",
          "name": "offchainInput",
          "type": "bytes"
        },
        {
          "components": [
            {
              "internalType": "contract IERC20",
              "name": "sellToken",
              "type": "address"
            },
            {
              "internalType": "contract IERC20",
              "name": "buyToken",
              "type": "address"
            },
            {
              "internalType": "address",
              "name": "receiver",
              "type": "address"
            },
            {
              "internalType": "uint256",
              "name": "sellAmount",
              "type": "uint256"
            },
            {
              "internalType": "uint256",
              "name": "buyAmount",
              "type": "uint256"
            },
            {
              "internalType": "uint32",
              "name": "validTo",
              "type": "uint32"
            },
            {
              "internalType": "bytes32",
              "name": "appData",
              "type": "bytes32"
            },
            {
              "internalType": "uint256",
              "name": "feeAmount",
              "type": "uint256"
            },
            {
              "internalType": "bytes32",
              "name": "kind",
              "type": "bytes32"
            },
            {
              "internalType": "bool",
              "name": "partiallyFillable",
              "type": "bool"
            },
            {
              "internalType": "bytes32",
              "name": "sellTokenBalance",
              "type": "bytes32"
            },
            {
              "internalType": "bytes32",
              "name": "buyTokenBalance",
              "type": "bytes32"
            }
          ],
          "internalType": "struct GPv2Order.Data",
          "name": "order",
          "type": "tuple"
        }
      ],
      "name": "verify",
      "outputs": [],
      "stateMutability": "view",
      "type": "function"
    }
  ],
  "transactionHash": "0xa3edb189d81028c6727e72ee994b021199d80aaf32f11dab654f43073728b217",
  "args": [
    "0xfBFa40a9568Fb2E27568D8eB595e36656095D9Ef"
  ],
  "numDeployments": 3,
  "solcInputHash": "99dd42a1f45aca899f6c999b82a0e377",
  "bytecode": "0x60a03461009c57601f61108d38819003918201601f19168301916001600160401b038311848410176100a05780849260209460405283398101031261009c57516001600160a01b0381169081900361009c57801561008d57608052604051610fd890816100b58239608051818181607e0152818161018b015281816105a20152818161090f0152610db50152f35b632832949960e11b5f5260045ffd5b5f80fd5b634e487b7160e01b5f52604160045260245ffdfe6080806040526004361015610012575f80fd5b5f3560e01c90816301ffc9a7146109a3575080630b648128146109875780630f89ff41146108e257806314a2a7841461050f5780638c8f691c146104d5578063b8296fc4146100b15763f9b6117f14610069575f80fd5b346100ad575f3660031901126100ad576040517f00000000000000000000000000000000000000000000000000000000000000006001600160a01b03168152602090f35b5f80fd5b346100ad5760a03660031901126100ad576100ca610a0e565b506100d3610a24565b506064356001600160401b0381116100ad576100f3903690600401610a3a565b6084356001600160401b0381116100ad5760209161011684923690600401610a3a565b50505f61016060405161012881610a67565b82815282868201528260408201528260608201528260808201528260a08201528260c08201528260e08201528261010082015282610120820152826101408201520152810103126100ad57604051632bbc239560e11b81529035600482018190527f00000000000000000000000000000000000000000000000000000000000000006001600160a01b031691905f82602481865afa918215610474575f926104b1575b506020820151600481101561049d575f190161047f5760405190636edd27ff60e01b82526004820152602081602481865afa908115610474575f9161043a575b5061040357610224604082510151604083015190610d7d565b9182156103cc576101809260a0835101518082105f146103c45750905b6102546080840151606085015190610ef7565b92519060018060a01b036060830151169360018060a01b036080840151169360c0840151936101a061016082015191015115155f146103985763ffffffff7f6ed88e868af0a1983e3886d5f3e95a2fafbd6c3450bc229e27342283dc429ccc935b604051966102c288610a67565b898852602088019889526040880196875260608801948552608088019081528260a089019216825260c0880193845260e08801945f865261010089019687526101208901975f89526101606101408b019a5f516020610f835f395f51905f528c52019a5f516020610f835f395f51905f528c526040519c8d5260018060a01b0390511660208d015260018060a01b0390511660408c01525160608b01525160808a0152511660a08801525160c08701525160e0860152516101008501525115156101208401525161014083015251610160820152f35b63ffffffff7ff3b277728b3fee749481eb3e0b3b48980dbbab78658fc419025cb16eee346775936102b5565b905090610241565b60405163981b64cd60e01b815260206004820152600e60248201526d199d5b1b1e57d95e1958dd5d195960921b6044820152606490fd5b60405163981b64cd60e01b815260206004820152600e60248201526d6f726465725f636f6d706c65746560901b6044820152606490fd5b90506020813d60201161046c575b8161045560209383610a97565b810103126100ad5761046690610b9d565b8361020b565b3d9150610448565b6040513d5f823e3d90fd5b60405163981b64cd60e01b81528061049960048201610d52565b0390fd5b634e487b7160e01b5f52602160045260245ffd5b6104ce9192503d805f833e6104c68183610a97565b810190610baa565b90836101cb565b346100ad5760203660031901126100ad5760806104f3600435610d9e565b9160405193845260208401521515604083015215156060820152f35b346100ad576102603660031901126100ad57610529610a0e565b50610532610a24565b5060a4356001600160401b0381116100ad57610552903690600401610a3a565b60c4356001600160401b0381116100ad57610571903690600401610a3a565b50506101803660e31901126100ad5781602091810103126100ad57604051632bbc239560e11b8152903560048201527f00000000000000000000000000000000000000000000000000000000000000006001600160a01b03165f82602481845afa918215610474575f926108c6575b506020820151600481101561049d575f19016108ac5760e4356001600160a01b038116908181036100ad57508251606001516001600160a01b03160361087057610104356001600160a01b038116908181036100ad57508251608001516001600160a01b03160361083557610124356001600160a01b038116908190036100ad57036107fc5780516101a08101511561075a575060c081510151610164350361071e5760a08151015161014435116106de57610160905b5101516101a435036106a557005b60405163c8fc272560e01b815260206004820152601060248201526f0c2e0e0c8c2e8c2bedad2e6dac2e8c6d60831b6044820152606490fd5b60405163c8fc272560e01b81526020600482015260176024820152760e6cad8d8bec2dadeeadce8becaf0c6cacac8e6bedac2f604b1b6044820152606490fd5b60405163c8fc272560e01b81526020600482015260136024820152720c4eaf2bec2dadeeadce8bedad2e6dac2e8c6d606b1b6044820152606490fd5b60a0015161014435116107ba5760c081510151610164351061077f5761016090610697565b60405163c8fc272560e01b81526020600482015260126024820152716275795f616d6f756e745f746f6f5f6c6f7760701b6044820152606490fd5b60405163c8fc272560e01b815260206004820152601960248201527873656c6c5f616d6f756e745f657863656564735f6368756e6b60381b6044820152606490fd5b60405163c8fc272560e01b815260206004820152601060248201526f34b73b30b634b22fb932b1b2b4bb32b960811b6044820152606490fd5b60405163c8fc272560e01b81526020600482015260126024820152710c4eaf2bee8ded6cadcbedad2e6dac2e8c6d60731b6044820152606490fd5b60405163c8fc272560e01b81526020600482015260136024820152720e6cad8d8bee8ded6cadcbedad2e6dac2e8c6d606b1b6044820152606490fd5b60405163c8fc272560e01b81528061049960048201610d52565b6108db9192503d805f833e6104c68183610a97565b90826105e0565b346100ad5760203660031901126100ad57604051632bbc239560e11b815260048035908201525f816024817f00000000000000000000000000000000000000000000000000000000000000006001600160a01b03165afa8015610474576060915f9161096d575b50604081015190826040825101519101519060405192835260208301526040820152f35b61098191503d805f833e6104c68183610a97565b82610949565b346100ad575f3660031901126100ad5760206040516107088152f35b346100ad5760203660031901126100ad576004359063ffffffff60e01b82168092036100ad57602091632e0a5bf160e21b81149081156109fd575b81156109ec575b5015158152f35b6301ffc9a760e01b149050836109e5565b630528a9e160e21b811491506109de565b600435906001600160a01b03821682036100ad57565b602435906001600160a01b03821682036100ad57565b9181601f840112156100ad578235916001600160401b0383116100ad57602083818601950101116100ad57565b61018081019081106001600160401b03821117610a8357604052565b634e487b7160e01b5f52604160045260245ffd5b601f909101601f19168101906001600160401b03821190821017610a8357604052565b51906001600160a01b03821682036100ad57565b9080601f830112156100ad578151916001600160401b038311610a83578260051b60405193610b006020830186610a97565b8452602080850191830101918383116100ad5760208101915b838310610b2857505050505090565b82516001600160401b0381116100ad57820185603f820112156100ad576020810151916001600160401b038311610a8357604051610b70601f8501601f191660200182610a97565b83815260408385010188106100ad575f602085819660408397018386015e83010152815201920191610b19565b519081151582036100ad57565b6020818303126100ad578051906001600160401b0382116100ad570160a0818303126100ad576040519160a083016001600160401b03811184821017610a835760405281516001600160401b0381116100ad5782016101c0818303126100ad57604051916101c083016001600160401b03811184821017610a8357604052610c3182610aba565b835260208201516001600160401b0381116100ad5781610c52918401610ace565b602084015260408201516040840152610c6d60608301610aba565b6060840152610c7e60808301610aba565b608084015260a0828101519084015260c0808301519084015260e0820151906001600160401b0382116100ad57610cb6918301610ace565b60e083015261010081015160048110156100ad57610d15916101a091610100850152610120810151610120850152610140810151610140850152610160810151610160850152610d096101808201610b9d565b61018085015201610b9d565b6101a0820152825260208101519060048210156100ad57608091602084015260408101516040840152606081015160608401520151608082015290565b60609060208152601060208201526f6f726465725f6e6f745f61637469766560801b60408201520190565b91908203918211610d8a57565b634e487b7160e01b5f52601160045260245ffd5b604051632bbc239560e11b815260048101829052907f00000000000000000000000000000000000000000000000000000000000000006001600160a01b0316905f83602481855afa928315610474575f93610ecb575b50602090602460405180948193636edd27ff60e01b835260048301525afa908115610474575f91610e91575b508015610e79575b80610e6c57610e41604083510151604084015190610d7d565b91519160a08301518082105f14610e6557505b926101a060c0840151930151151590565b9050610e54565b50505f905f906001905f90565b506020810151600481101561049d5760011415610e28565b90506020813d602011610ec3575b81610eac60209383610a97565b810103126100ad57610ebd90610b9d565b5f610e20565b3d9150610e9f565b6020919350610ee3903d805f833e6104c68183610a97565b9290610df4565b91908201809211610d8a57565b906107088102908082046107081490151715610d8a57610f179082610eea565b610708810190818111610d8a5761070701908111610d8a5780421115610f7d5750610708610f458242610d7d565b0460018101809111610d8a576107088102908082046107081490151715610d8a57610f6f91610eea565b5f198101908111610d8a5790565b90509056fe5a28e9363bb942b639270062aa6bb295f434bcdfc42c97267bf003f272060dc9a26469706673582212203a5c67673f48109a18a59d9a70d79d16a5f53066367e47548ef9592077cb3b5864736f6c634300081e0033",
  "devdoc": {
    "details": "Implements IConditionalOrderGenerator for ComposableCoW integration",
    "errors": {
      "OrderNotValid(string)": [
        {
          "details": "Signal that the order parameters are invalid"
        }
      ],
      "PollNever(string)": [
        {
          "details": "Signal to stop polling this order (completed or cancelled)"
        }
      ]
    },
    "kind": "dev",
    "methods": {
      "getChunkParams(bytes32)": {
        "params": {
          "orderHash": "The order hash"
        },
        "returns": {
          "buyAmount": "For KIND_SELL: min buy amount. For KIND_BUY: exact buy amount.",
          "isComplete": "Whether the order is complete",
          "isKindBuy": "True if this is a KIND_BUY order",
          "sellAmount": "For KIND_SELL: exact sell amount. For KIND_BUY: max sell amount."
        }
      },
      "getProgress(bytes32)": {
        "params": {
          "orderHash": "The order hash"
        },
        "returns": {
          "executed": "Amount executed so far",
          "iterations": "Number of iterations completed",
          "total": "Total amount to execute"
        }
      },
      "getTradeableOrder(address,address,bytes32,bytes,bytes)": {
        "params": {
          "ctx": "The execution context (unused for single orders)",
          "offchainInput": "Off-chain provided data (unused)",
          "owner": "The order owner (KapanOrderManager address)",
          "sender": "The caller (usually ComposableCoW)",
          "staticInput": "ABI-encoded orderHash"
        },
        "returns": {
          "order": "The GPv2Order.Data struct for this chunk"
        }
      },
      "supportsInterface(bytes4)": {
        "details": "Required for ComposableCoW to verify handler compatibility"
      },
      "verify(address,address,bytes32,bytes32,bytes32,bytes,bytes,(address,address,address,uint256,uint256,uint32,bytes32,uint256,bytes32,bool,bytes32,bytes32))": {
        "details": "Called by ComposableCoW during signature verification"
      }
    },
    "stateVariables": {
      "CHUNK_WINDOW": {
        "details": "Using fixed windows ensures deterministic validTo = same order hash during window"
      }
    },
    "title": "KapanOrderHandler",
    "version": 1
  },
  "userdoc": {
    "kind": "user",
    "methods": {
      "CHUNK_WINDOW()": {
        "notice": "Chunk window duration - each chunk is valid for this period"
      },
      "getChunkParams(bytes32)": {
        "notice": "Get the current chunk parameters for an order"
      },
      "getProgress(bytes32)": {
        "notice": "Get order progress"
      },
      "getTradeableOrder(address,address,bytes32,bytes,bytes)": {
        "notice": "Generate a tradeable order for the current chunk"
      },
      "orderManager()": {
        "notice": "The KapanOrderManager that stores order contexts"
      },
      "supportsInterface(bytes4)": {
        "notice": "Check if contract supports an interface"
      },
      "verify(address,address,bytes32,bytes32,bytes32,bytes,bytes,(address,address,address,uint256,uint256,uint32,bytes32,uint256,bytes32,bool,bytes32,bytes32))": {
        "notice": "Verify that a proposed order matches the conditional order"
      }
    },
    "notice": "Generates CoW Protocol orders for Kapan leveraged positions",
    "version": 1
  },
  "storageLayout": {
    "storage": [],
    "types": null
  }
}