{
  "address": "0xbF64f86FEF2fd47B4cBc865Eb441202207ECEcEa",
  "abi": [
    {
      "inputs": [
        {
          "internalType": "address",
          "name": "owner_",
          "type": "address"
        }
      ],
      "stateMutability": "nonpayable",
      "type": "constructor"
    },
    {
      "inputs": [
        {
          "internalType": "address",
          "name": "owner",
          "type": "address"
        }
      ],
      "name": "OwnableInvalidOwner",
      "type": "error"
    },
    {
      "inputs": [
        {
          "internalType": "address",
          "name": "account",
          "type": "address"
        }
      ],
      "name": "OwnableUnauthorizedAccount",
      "type": "error"
    },
    {
      "anonymous": false,
      "inputs": [
        {
          "indexed": true,
          "internalType": "address",
          "name": "baseToken",
          "type": "address"
        },
        {
          "indexed": true,
          "internalType": "address",
          "name": "comet",
          "type": "address"
        }
      ],
      "name": "CometRegistered",
      "type": "event"
    },
    {
      "anonymous": false,
      "inputs": [
        {
          "indexed": true,
          "internalType": "address",
          "name": "baseToken",
          "type": "address"
        },
        {
          "indexed": true,
          "internalType": "address",
          "name": "oldComet",
          "type": "address"
        },
        {
          "indexed": true,
          "internalType": "address",
          "name": "newComet",
          "type": "address"
        }
      ],
      "name": "CometReplaced",
      "type": "event"
    },
    {
      "anonymous": false,
      "inputs": [
        {
          "indexed": true,
          "internalType": "address",
          "name": "previousOwner",
          "type": "address"
        },
        {
          "indexed": true,
          "internalType": "address",
          "name": "newOwner",
          "type": "address"
        }
      ],
      "name": "OwnershipTransferred",
      "type": "event"
    },
    {
      "anonymous": false,
      "inputs": [
        {
          "indexed": true,
          "internalType": "address",
          "name": "oldGateway",
          "type": "address"
        },
        {
          "indexed": true,
          "internalType": "address",
          "name": "newGateway",
          "type": "address"
        }
      ],
      "name": "WriteGatewayUpdated",
      "type": "event"
    },
    {
      "inputs": [
        {
          "internalType": "contract ICompoundComet",
          "name": "comet",
          "type": "address"
        }
      ],
      "name": "addComet",
      "outputs": [],
      "stateMutability": "nonpayable",
      "type": "function"
    },
    {
      "inputs": [],
      "name": "allActiveBaseTokens",
      "outputs": [
        {
          "internalType": "address[]",
          "name": "bases",
          "type": "address[]"
        }
      ],
      "stateMutability": "view",
      "type": "function"
    },
    {
      "inputs": [],
      "name": "allActiveComets",
      "outputs": [
        {
          "internalType": "address[]",
          "name": "comets",
          "type": "address[]"
        }
      ],
      "stateMutability": "view",
      "type": "function"
    },
    {
      "inputs": [],
      "name": "allBaseTokens",
      "outputs": [
        {
          "internalType": "address[]",
          "name": "",
          "type": "address[]"
        }
      ],
      "stateMutability": "view",
      "type": "function"
    },
    {
      "inputs": [],
      "name": "allComets",
      "outputs": [
        {
          "internalType": "address[]",
          "name": "",
          "type": "address[]"
        }
      ],
      "stateMutability": "view",
      "type": "function"
    },
    {
      "inputs": [
        {
          "internalType": "address",
          "name": "token",
          "type": "address"
        },
        {
          "internalType": "address",
          "name": "user",
          "type": "address"
        }
      ],
      "name": "getBalance",
      "outputs": [
        {
          "internalType": "uint256",
          "name": "",
          "type": "uint256"
        }
      ],
      "stateMutability": "view",
      "type": "function"
    },
    {
      "inputs": [
        {
          "internalType": "contract ICompoundComet",
          "name": "comet",
          "type": "address"
        }
      ],
      "name": "getBaseToken",
      "outputs": [
        {
          "internalType": "address",
          "name": "",
          "type": "address"
        }
      ],
      "stateMutability": "view",
      "type": "function"
    },
    {
      "inputs": [
        {
          "internalType": "address",
          "name": "market",
          "type": "address"
        }
      ],
      "name": "getBaseTokenInfo",
      "outputs": [
        {
          "internalType": "address",
          "name": "baseToken",
          "type": "address"
        },
        {
          "internalType": "uint256",
          "name": "price",
          "type": "uint256"
        },
        {
          "internalType": "uint8",
          "name": "decimals",
          "type": "uint8"
        },
        {
          "internalType": "uint256",
          "name": "priceScale",
          "type": "uint256"
        }
      ],
      "stateMutability": "view",
      "type": "function"
    },
    {
      "inputs": [
        {
          "internalType": "address",
          "name": "token",
          "type": "address"
        },
        {
          "internalType": "address",
          "name": "user",
          "type": "address"
        }
      ],
      "name": "getBorrowBalance",
      "outputs": [
        {
          "internalType": "uint256",
          "name": "",
          "type": "uint256"
        }
      ],
      "stateMutability": "view",
      "type": "function"
    },
    {
      "inputs": [
        {
          "internalType": "address",
          "name": "token",
          "type": "address"
        },
        {
          "internalType": "address",
          "name": "user",
          "type": "address"
        }
      ],
      "name": "getBorrowBalanceCurrent",
      "outputs": [
        {
          "internalType": "uint256",
          "name": "",
          "type": "uint256"
        }
      ],
      "stateMutability": "view",
      "type": "function"
    },
    {
      "inputs": [
        {
          "internalType": "address",
          "name": "token",
          "type": "address"
        }
      ],
      "name": "getBorrowRate",
      "outputs": [
        {
          "internalType": "uint256",
          "name": "borrowRate",
          "type": "uint256"
        },
        {
          "internalType": "bool",
          "name": "success",
          "type": "bool"
        }
      ],
      "stateMutability": "view",
      "type": "function"
    },
    {
      "inputs": [
        {
          "internalType": "address",
          "name": "market",
          "type": "address"
        }
      ],
      "name": "getCollateralFactors",
      "outputs": [
        {
          "internalType": "address[]",
          "name": "assets",
          "type": "address[]"
        },
        {
          "internalType": "uint256[]",
          "name": "ltvBps",
          "type": "uint256[]"
        },
        {
          "internalType": "uint256[]",
          "name": "lltvBps",
          "type": "uint256[]"
        }
      ],
      "stateMutability": "view",
      "type": "function"
    },
    {
      "inputs": [
        {
          "internalType": "address",
          "name": "market",
          "type": "address"
        },
        {
          "internalType": "address",
          "name": "asset",
          "type": "address"
        }
      ],
      "name": "getCollateralPrice",
      "outputs": [
        {
          "internalType": "uint256",
          "name": "",
          "type": "uint256"
        }
      ],
      "stateMutability": "view",
      "type": "function"
    },
    {
      "inputs": [
        {
          "internalType": "address",
          "name": "baseToken",
          "type": "address"
        }
      ],
      "name": "getComet",
      "outputs": [
        {
          "internalType": "contract ICompoundComet",
          "name": "",
          "type": "address"
        }
      ],
      "stateMutability": "view",
      "type": "function"
    },
    {
      "inputs": [
        {
          "internalType": "address",
          "name": "token",
          "type": "address"
        },
        {
          "internalType": "address",
          "name": "account",
          "type": "address"
        }
      ],
      "name": "getCompoundData",
      "outputs": [
        {
          "internalType": "uint256",
          "name": "supplyRate",
          "type": "uint256"
        },
        {
          "internalType": "uint256",
          "name": "borrowRate",
          "type": "uint256"
        },
        {
          "internalType": "uint256",
          "name": "balance",
          "type": "uint256"
        },
        {
          "internalType": "uint256",
          "name": "borrowBalance",
          "type": "uint256"
        },
        {
          "internalType": "uint256",
          "name": "price",
          "type": "uint256"
        },
        {
          "internalType": "uint256",
          "name": "priceScale",
          "type": "uint256"
        }
      ],
      "stateMutability": "view",
      "type": "function"
    },
    {
      "inputs": [
        {
          "internalType": "address",
          "name": "token",
          "type": "address"
        },
        {
          "internalType": "address",
          "name": "account",
          "type": "address"
        }
      ],
      "name": "getDepositedCollaterals",
      "outputs": [
        {
          "internalType": "address[]",
          "name": "collaterals",
          "type": "address[]"
        },
        {
          "internalType": "uint128[]",
          "name": "balances",
          "type": "uint128[]"
        },
        {
          "internalType": "string[]",
          "name": "displayNames",
          "type": "string[]"
        }
      ],
      "stateMutability": "view",
      "type": "function"
    },
    {
      "inputs": [
        {
          "internalType": "address",
          "name": "token",
          "type": "address"
        },
        {
          "internalType": "address",
          "name": "user",
          "type": "address"
        }
      ],
      "name": "getLtv",
      "outputs": [
        {
          "internalType": "uint256",
          "name": "",
          "type": "uint256"
        }
      ],
      "stateMutability": "view",
      "type": "function"
    },
    {
      "inputs": [
        {
          "internalType": "address",
          "name": "token",
          "type": "address"
        },
        {
          "internalType": "address",
          "name": "user",
          "type": "address"
        }
      ],
      "name": "getMaxLtv",
      "outputs": [
        {
          "internalType": "uint256",
          "name": "",
          "type": "uint256"
        }
      ],
      "stateMutability": "view",
      "type": "function"
    },
    {
      "inputs": [
        {
          "internalType": "address",
          "name": "token",
          "type": "address"
        },
        {
          "internalType": "address",
          "name": "user",
          "type": "address"
        }
      ],
      "name": "getPossibleCollaterals",
      "outputs": [
        {
          "internalType": "address[]",
          "name": "collateralAddresses",
          "type": "address[]"
        },
        {
          "internalType": "uint256[]",
          "name": "balances",
          "type": "uint256[]"
        },
        {
          "internalType": "string[]",
          "name": "symbols",
          "type": "string[]"
        },
        {
          "internalType": "uint8[]",
          "name": "decimals",
          "type": "uint8[]"
        }
      ],
      "stateMutability": "view",
      "type": "function"
    },
    {
      "inputs": [
        {
          "internalType": "address",
          "name": "token",
          "type": "address"
        }
      ],
      "name": "getPrice",
      "outputs": [
        {
          "internalType": "uint256",
          "name": "",
          "type": "uint256"
        }
      ],
      "stateMutability": "view",
      "type": "function"
    },
    {
      "inputs": [
        {
          "internalType": "address",
          "name": "market",
          "type": "address"
        },
        {
          "internalType": "address[]",
          "name": "tokens",
          "type": "address[]"
        }
      ],
      "name": "getPrices",
      "outputs": [
        {
          "internalType": "uint256[]",
          "name": "",
          "type": "uint256[]"
        }
      ],
      "stateMutability": "view",
      "type": "function"
    },
    {
      "inputs": [
        {
          "internalType": "address",
          "name": "market",
          "type": "address"
        }
      ],
      "name": "getReserveConfigs",
      "outputs": [
        {
          "components": [
            {
              "internalType": "address",
              "name": "token",
              "type": "address"
            },
            {
              "internalType": "uint256",
              "name": "price",
              "type": "uint256"
            },
            {
              "internalType": "uint256",
              "name": "ltv",
              "type": "uint256"
            },
            {
              "internalType": "uint256",
              "name": "liquidationThreshold",
              "type": "uint256"
            },
            {
              "internalType": "uint8",
              "name": "decimals",
              "type": "uint8"
            },
            {
              "internalType": "uint64",
              "name": "scale",
              "type": "uint64"
            }
          ],
          "internalType": "struct CompoundGatewayView.ReserveConfigData[]",
          "name": "configs",
          "type": "tuple[]"
        }
      ],
      "stateMutability": "view",
      "type": "function"
    },
    {
      "inputs": [
        {
          "internalType": "address",
          "name": "token",
          "type": "address"
        }
      ],
      "name": "getSupplyRate",
      "outputs": [
        {
          "internalType": "uint256",
          "name": "supplyRate",
          "type": "uint256"
        },
        {
          "internalType": "bool",
          "name": "success",
          "type": "bool"
        }
      ],
      "stateMutability": "view",
      "type": "function"
    },
    {
      "inputs": [
        {
          "internalType": "address",
          "name": "market",
          "type": "address"
        }
      ],
      "name": "getSupportedCollaterals",
      "outputs": [
        {
          "internalType": "address[]",
          "name": "collateralAddresses",
          "type": "address[]"
        }
      ],
      "stateMutability": "view",
      "type": "function"
    },
    {
      "inputs": [
        {
          "internalType": "address",
          "name": "market",
          "type": "address"
        },
        {
          "internalType": "address",
          "name": "collateral",
          "type": "address"
        }
      ],
      "name": "isCollateralSupported",
      "outputs": [
        {
          "internalType": "bool",
          "name": "isSupported",
          "type": "bool"
        }
      ],
      "stateMutability": "view",
      "type": "function"
    },
    {
      "inputs": [
        {
          "internalType": "address",
          "name": "token",
          "type": "address"
        },
        {
          "internalType": "contract AggregatorV3Interface",
          "name": "feed",
          "type": "address"
        }
      ],
      "name": "overrideFeed",
      "outputs": [],
      "stateMutability": "nonpayable",
      "type": "function"
    },
    {
      "inputs": [
        {
          "internalType": "address",
          "name": "",
          "type": "address"
        }
      ],
      "name": "overrideFeeds",
      "outputs": [
        {
          "internalType": "contract AggregatorV3Interface",
          "name": "",
          "type": "address"
        }
      ],
      "stateMutability": "view",
      "type": "function"
    },
    {
      "inputs": [],
      "name": "owner",
      "outputs": [
        {
          "internalType": "address",
          "name": "",
          "type": "address"
        }
      ],
      "stateMutability": "view",
      "type": "function"
    },
    {
      "inputs": [],
      "name": "renounceOwnership",
      "outputs": [],
      "stateMutability": "nonpayable",
      "type": "function"
    },
    {
      "inputs": [
        {
          "internalType": "address",
          "name": "baseToken",
          "type": "address"
        },
        {
          "internalType": "address",
          "name": "comet_",
          "type": "address"
        }
      ],
      "name": "setCometForBase",
      "outputs": [],
      "stateMutability": "nonpayable",
      "type": "function"
    },
    {
      "inputs": [
        {
          "internalType": "address",
          "name": "writeGateway_",
          "type": "address"
        }
      ],
      "name": "setWriteGateway",
      "outputs": [],
      "stateMutability": "nonpayable",
      "type": "function"
    },
    {
      "inputs": [],
      "name": "syncAllCometsFromWriteGateway",
      "outputs": [],
      "stateMutability": "nonpayable",
      "type": "function"
    },
    {
      "inputs": [
        {
          "internalType": "address",
          "name": "baseToken",
          "type": "address"
        }
      ],
      "name": "syncCometFromWriteGateway",
      "outputs": [],
      "stateMutability": "nonpayable",
      "type": "function"
    },
    {
      "inputs": [
        {
          "internalType": "address",
          "name": "",
          "type": "address"
        }
      ],
      "name": "tokenToComet",
      "outputs": [
        {
          "internalType": "contract ICompoundComet",
          "name": "",
          "type": "address"
        }
      ],
      "stateMutability": "view",
      "type": "function"
    },
    {
      "inputs": [
        {
          "internalType": "address",
          "name": "newOwner",
          "type": "address"
        }
      ],
      "name": "transferOwnership",
      "outputs": [],
      "stateMutability": "nonpayable",
      "type": "function"
    },
    {
      "inputs": [],
      "name": "writeGateway",
      "outputs": [
        {
          "internalType": "address",
          "name": "",
          "type": "address"
        }
      ],
      "stateMutability": "view",
      "type": "function"
    }
  ],
  "transactionHash": "0x41e5e628e0ca62b79f996b2b29d57c9d1cfe90952f33ced3f418dfa8af00b4c6",
  "args": [
    "0x0BE61223F99E57b8b8B7033a77B54Adc7f7cF027"
  ],
  "numDeployments": 1,
  "solcInputHash": "1b49466c4c87eb8e5d5f803414d57b80",
  "bytecode": "0x60803460b857601f6132f938819003918201601f19168301916001600160401b0383118484101760bc5780849260209460405283398101031260b857516001600160a01b0381169081900360b857801560a5575f80546001600160a01b031981168317825560405192916001600160a01b03909116907f8be0079c531659141344cd1fd0a4f28419497f9722a3daafe3b4186f6b6457e09080a361322890816100d18239f35b631e4fbdf760e01b5f525f60045260245ffd5b5f80fd5b634e487b7160e01b5f52604160045260245ffdfe60806040526004361015610011575f80fd5b5f3560e01c80630c10fd0f1461024f5780630d1fe0881461024a578063104e999d14610245578063118e31b7146101c357806324bddcfd1461024057806326e46ed31461023b5780632a8e3a49146102365780633613d5271461023157806341976e091461022c5780636072aa071461022757806362fd6add1461022257806366e2d09b1461021d57806369e65e49146102185780636b5441a914610213578063715018a61461020e578063755f62ce1461020957806378466113146102045780638ca28635146101ff5780638da5cb5b146101fa57806391aa9c6f146101f55780639f2204e8146101f0578063b4bae5e1146101eb578063b65b4e18146101e6578063be305bf8146101e1578063c9475cd7146101dc578063cc2255aa146101d7578063d4fac45d146101d2578063d5316477146101cd578063d71275f6146101c8578063e94201c7146101c3578063e9db3c9f146101be578063ef36fa93146101b9578063f2dbd070146101b4578063f2f1be1e146101af578063f2fde38b146101aa5763f5125d3f146101a5575f80fd5b611d42565b611ccc565b611c89565b611c70565b611b0d565b611874565b610697565b6117a8565b61171b565b611697565b611584565b6114cc565b6114b1565b611230565b611012565b610f10565b610d5a565b610d33565b610cc6565b610ca3565b610c88565b610c44565b610b23565b610aa9565b610a6d565b610a43565b610a09565b6109da565b610962565b610809565b6107c5565b610728565b6104bf565b61031b565b610288565b6001600160a01b031690565b6001600160a01b0381160361027157565b5f80fd5b6001600160a01b03909116815260200190565b34610271576020366003190112610271576004602081356102a881610260565b60405163c55dae6360e01b815292839182906001600160a01b03165afa8015610316576102e3915f916102e7575b5060405191829182610275565b0390f35b610309915060203d60201161030f575b6103018183611d90565b810190611dc0565b5f6102d6565b503d6102f7565b611dd5565b34610271575f366003190112610271576005546040516001600160a01b039091168152602090f35b60409060031901126102715760043561035b81610260565b9060243561036881610260565b90565b90602080835192838152019201905f5b8181106103885750505090565b82516001600160a01b031684526020938401939092019160010161037b565b90602080835192838152019201905f5b8181106103c45750505090565b82518452602093840193909201916001016103b7565b9080602083519182815201916020808360051b8301019401925f915b83831061040557505050505090565b909192939460208080600193601f19868203018752818a518051918291828552018484015e5f828201840152601f01601f1916010197019594919091019201906103f6565b9290610481926104656104739260808752608087019061036b565b9085820360208701526103a7565b9083820360408501526103da565b906060818303910152602080835192838152019201905f5b8181106104a65750505090565b825160ff16845260209384019390920191600101610499565b34610271576104d66104d036610343565b90612829565b905f915f5b825181101561052e5761050d6105016104f48386611df4565b516001600160801b031690565b6001600160801b031690565b61051a575b6001016104db565b92610526600191611e21565b939050610512565b509261053983611e75565b9261054381611e75565b9461055661055083611ea7565b92611e75565b955f945f5b8151811015610686576105746105016104f48385611df4565b610581575b60010161055b565b956105ae61059f6105928989611df4565b516001600160a01b031690565b6105a9838b611df4565b611ef0565b6105be6105016104f48985611df4565b6105c88285611df4565b526105d38785611df4565b516105de8287611df4565b526105e98186611df4565b50600460206106066106016106016105928c8c611df4565b610254565b60405163313ce56760e01b815292839182905afa918215610316576106478b6001948361064c955f92610654575b5061063f9192611df4565b9060ff169052565b611e21565b969050610579565b61063f92506106799060203d811161067f575b6106718183611d90565b810190611f0d565b91610634565b503d610667565b604051806102e38b88878d8561044a565b346102715760206106a736610343565b91906001600160a01b03906106bb90612211565b604051630dd3126d60e21b81526001600160a01b03909416600485015283916024918391165afa8015610316576020915f916106fb575b50604051908152f35b61071b9150823d8411610721575b6107138183611d90565b810190611f21565b5f6106f2565b503d610709565b346102715760403660031901126102715761077860043561074881610260565b6024359061075582610260565b61075d61316c565b6001600160a01b03165f908152600260205260409020611f30565b005b6001600160a01b03165f90815260016020526040902090565b6001600160a01b03165f90815260046020526040902090565b6001600160a01b03165f90815260026020526040902090565b34610271576020366003190112610271576004356107e281610260565b6001600160a01b039081165f90815260016020908152604091829020549151919092168152f35b346102715760203660031901126102715760043561082681610260565b61082e61316c565b60405163c55dae6360e01b81526001600160a01b0382169190602081600481865afa908115610316575f91610932575b506001600160a01b038116916108a390610879841515611f4f565b61089e61089861060161088b8661077a565b546001600160a01b031690565b9361077a565b611f30565b6108bd6108b96108b285610793565b5460ff1690565b1590565b61090b575b82825f5160206131935f395f51905f525f80a36001600160a01b03169081151580610901575b6108ee57005b5f5160206131b35f395f51905f525f80a4005b50828214156108e8565b61092461091784610793565b805460ff19166001179055565b61092d83611fa6565b6108c2565b61094b915060203d60201161030f576103018183611d90565b5f61085e565b9060206103689281815201906103a7565b346102715760403660031901126102715760043561097f81610260565b6024356001600160401b03811161027157366023820112156102715760048101356001600160401b038111610271573660248260051b84010111610271576102e39260246109ce93019061200b565b60405191829182610951565b34610271576020366003190112610271576020610a016004356109fc81610260565b6120c5565b604051908152f35b3461027157602036600319011261027157610a2e600435610a2981610260565b612211565b6040516001600160a01b039091168152602090f35b34610271576020610a01610a5636610343565b90612344565b90602061036892818152019061036b565b34610271576020366003190112610271576102e3610a95600435610a9081610260565b61263c565b60405191829160208352602083019061036b565b3461027157610aba6104d036610343565b610ad26040939293519260608452606084019061036b565b8281036020840152602080855192838152019401905f5b818110610b045784806102e3888783820360408501526103da565b82516001600160801b0316865260209586019590920191600101610ae9565b3461027157602036600319011261027157600435610b4081610260565b6001600160a01b038082165f9081526001602052604081205490928392909116610b77575b50604080519182529115156020820152f35b610b8692506106019150612211565b604051637eb7113160e01b8152602081600481855afa801561031657610bd1926020925f92610c25575b50604051808095819463d955759d60e01b8352600483019190602083019252565b03915afa908115610316575f91610bf6575b506001906001600160401b03165f610b65565b610c18915060203d602011610c1e575b610c108183611d90565b810190612a2e565b5f610be3565b503d610c06565b610c3d919250833d8511610721576107138183611d90565b905f610bb0565b34610271575f36600319011261027157610c5c61316c565b5f80546001600160a01b0319811682556001600160a01b03165f5160206131d35f395f51905f528280a3005b34610271575f366003190112610271576102e3610a95612a42565b34610271576020610cbc610cb636610343565b90612a93565b6040519015158152f35b3461027157602036600319011261027157600435610ce381610260565b610ceb61316c565b600580546001600160a01b039283166001600160a01b0319821681179092559091167f864aa5b65d00254be4a57e93185f66797e0b72b1d648eb9a569ea297fbd259375f80a3005b34610271575f366003190112610271575f546040516001600160a01b039091168152602090f35b34610271575f36600319011261027157610d7261316c565b60045f610d9a610601610d86600554610254565b6106016001600160a01b0382161515612bb9565b604051633aafb16760e11b815292839182905afa908115610316575f91610eee575b505f5b815181101561077857610dd86106016105928385611df4565b60405163c55dae6360e01b815291906001600160a01b03811690602084600481855afa8015610316576001945f91610ed0575b5082858060a01b03610e2261060161088b8561077a565b1603610e32575b50505001610dbf565b610e4e610e4461060161088b8461077a565b9261089e8361077a565b610e5d6108b96108b285610793565b610eb6575b848060a01b03169082825f5160206131935f395f51905f525f80a3848060a01b03169081151580610eac575b15610e29575f5160206131b35f395f51905f525f80a45f8080610e29565b5082821415610e8e565b610ec261091784610793565b610ecb83611fa6565b610e62565b610ee8915060203d811161030f576103018183611d90565b5f610e0b565b610f0a91503d805f833e610f028183611d90565b810190612c05565b5f610dbc565b346102715761089e610f2136610343565b90610f2a61316c565b6001600160a01b0381169182151580610fc9575b610f4790612c88565b610f6e610f5961060161088b8561077a565b6001600160a01b03831695909386919061077a565b610f7d6108b96108b283610793565b610fae575b5082825f5160206131935f395f51905f525f80a36001600160a01b03169081151580610901576108ee57005b80610fbe610917610fc393610793565b611fa6565b5f610f82565b506001600160a01b0381161515610f3e565b9161100490610ff6610368959360608652606086019061036b565b9084820360208601526103a7565b9160408184039101526103a7565b3461027157602036600319011261027157611035610601600435610a2981610260565b60405163a46fe83b60e01b8152602081600481855afa80156103165760ff915f9161118c575b501661106681611e75565b9061107081611e75565b9161107a82611e75565b905f5b60ff8116908482101561117c5760405163c8c7fe6b60e01b815260ff8216600482015290610100826024818b5afa9283156103165761114361113c61111f61111a61110e60a060ff998e60019a5f9261114b575b506110ed8d6105a98b6110e76020870151610254565b92611df4565b61112d896110e761111f61111a61110e60808801516001600160401b031690565b6001600160401b031690565b6122fb565b670de0b6b3a7640000900490565b5201516001600160401b031690565b9187611df4565b52011661107d565b61116e9192506101003d8111611175575b6111668183611d90565b81019061259f565b905f6110d1565b503d61115c565b604051806102e386898784610fdb565b6111a5915060203d60201161067f576106718183611d90565b5f61105b565b60206040818301928281528451809452019201905f5b8181106111ce5750505090565b825180516001600160a01b0316855260208181015181870152604080830151908701526060808301519087015260808083015160ff169087015260a0918201516001600160401b03169186019190915260c090940193909201916001016111c1565b3461027157602036600319011261027157611253610601600435610a2981610260565b60405163a46fe83b60e01b8152602081600481855afa80156103165760ff915f91611492575b501661128481612cc5565b5f5b60ff811690838210156114845760405163c8c7fe6b60e01b815260ff821660048201529061010082602481895afa918215610316575f92611461575b50819260206112d760406112f1950151610254565b604051809581926341976e0960e01b835260048301610275565b03818a5afa9081156103165760ff946113f0611401936001965f91611433575b506113e06012602085016004602061132f6106016106018551610254565b60405163313ce56760e01b815292839182905afa5f9181611413575b50611409575b5061135c9051610254565b9461137a61111f61111a61110e60808501516001600160401b031690565b6113ab606061139c61111f61111a61110e60a08801516001600160401b031690565b9301516001600160401b031690565b946113be6113b7611e34565b9889611ef0565b8b8060801b0316602088015260408701526060860152608085019060ff169052565b6001600160401b031660a0830152565b6113fa8288611df4565b5285611df4565b500116611286565b915061135c611351565b61142c91925060203d811161067f576106718183611d90565b905f61134b565b611454915060203d811161145a575b61144c8183611d90565b8101906120b1565b5f611311565b503d611442565b6112f1925061147e906101003d8111611175576111668183611d90565b916112c2565b604051806102e385826111ab565b6114ab915060203d60201161067f576106718183611d90565b5f611279565b34610271575f366003190112610271576102e3610a95612d56565b34610271575f366003190112610271576003546114e881611e75565b905f5b81811061150057604051806102e38582610a5c565b80602061152c610601610601611517600496611f8e565b905460039190911b1c6001600160a01b031690565b60405163c55dae6360e01b815293849182905afa91821561031657600192611560915f91611566575b506105a98387611df4565b016114eb565b61157e915060203d811161030f576103018183611d90565b5f611555565b34610271576020366003190112610271576004356115a181610260565b6115a961316c565b6115ba610601610d86600554610254565b602060405180926326e46ed360e01b825281806115da8760048301610275565b03915afa908115610316575f91611678575b506001600160a01b03811691611603831515612eb8565b611615610e4461060161088b8461077a565b6116246108b96108b285610793565b61165e575b6001600160a01b03169082825f5160206131935f395f51905f525f80a36001600160a01b03169081151580610901576108ee57005b61166a61091784610793565b61167383611fa6565b611629565b611691915060203d60201161030f576103018183611d90565b5f6115ec565b346102715760206116a736610343565b91906001600160a01b03906116bb90612211565b6040516370a0823160e01b81526001600160a01b03909416600485015283916024918391165afa908115610316575f916116fc575b50604051908152602090f35b611715915060203d602011610721576107138183611d90565b5f6116f0565b34610271575f36600319011261027157611733612d56565b61173d8151611e75565b905f5b815181101561179a5780602061176161060161060161059260049688611df4565b60405163c55dae6360e01b815293849182905afa91821561031657600192611794915f9161156657506105a98387611df4565b01611740565b604051806102e38582610a5c565b34610271576020366003190112610271576004356117c581610260565b6001600160a01b038082165f90815260016020526040812054909283929091166117fb5750604080519182529115156020820152f35b61180a92506106019150612211565b604051637eb7113160e01b8152602081600481855afa801561031657610bd1926020925f92611855575b506040518080958194634fd41dad60e11b8352600483019190602083019252565b61186d919250833d8511610721576107138183611d90565b905f611834565b346102715761188236610343565b61188e61060183612211565b604051637eb7113160e01b81529290602084600481845afa938415610316576118db946020915f91611af0575b506040518096819263d955759d60e01b8352600483019190602083019252565b0381845afa938415610316575f94611acf575b50604051637eb7113160e01b815290602082600481845afa9182156103165761193b926020915f91611ab2575b5060405180948192634fd41dad60e11b8352600483019190602083019252565b0381845afa918215610316575f92611a91575b506040516370a0823160e01b8152926020848061196e8860048301610275565b0381855afa938415610316575f94611a6d575b5060206119a3949560405180968192630dd3126d60e21b835260048301610275565b0381855afa908115610316576004945f92611a47575b506119c56020916120c5565b926040519586809263a0fbddaf60e01b82525afa938415610316575f94611a24575b50604080516001600160401b03978816815293871660208501528301949094526060820193909352608081019290925290911660a082015260c090f35b6102e39450611a419060203d602011610c1e57610c108183611d90565b936119e7565b6020919250611a656119c591833d8511610721576107138183611d90565b9291506119b9565b6119a39450611a8a602091823d8411610721576107138183611d90565b9450611981565b611aab91925060203d602011610c1e57610c108183611d90565b905f61194e565b611ac99150823d8411610721576107138183611d90565b5f61191b565b611ae991945060203d602011610c1e57610c108183611d90565b925f6118ee565b611b079150823d8411610721576107138183611d90565b5f6118bb565b3461027157602036600319011261027157600435611b2a81610260565b611b3661060182612211565b60405163c55dae6360e01b81529091602082600481865afa908115610316576004925f92611c4a575b50611b6b6020916120c5565b936040519384809263a0fbddaf60e01b82525afa918215610316575f92611c25575b5060405163313ce56760e01b81526102e391906020816004816001600160a01b0386165afa5f9181611c04575b50611bff575060125b604080516001600160a01b039093168352602083019590955260ff16938101939093526001600160401b03909116606083015281906080820190565b611bc3565b611c1e91925060203d60201161067f576106718183611d90565b905f611bba565b6102e3919250611c439060203d602011610c1e57610c108183611d90565b9190611b8d565b6020919250611c68611b6b91833d851161030f576103018183611d90565b929150611b5f565b34610271576020610a01611c8336610343565b90612f10565b3461027157602036600319011261027157600435611ca681610260565b60018060a01b03165f526002602052602060018060a01b0360405f205416604051908152f35b3461027157602036600319011261027157600435611ce981610260565b611cf161316c565b6001600160a01b03168015611d2f575f80546001600160a01b03198116831782556001600160a01b0316905f5160206131d35f395f51905f529080a3005b631e4fbdf760e01b5f525f60045260245ffd5b34610271576020610a01611d5536610343565b90612f7f565b634e487b7160e01b5f52604160045260245ffd5b61010081019081106001600160401b03821117611d8b57604052565b611d5b565b601f909101601f19168101906001600160401b03821190821017611d8b57604052565b5190611dbe82610260565b565b90816020910312610271575161036881610260565b6040513d5f823e3d90fd5b634e487b7160e01b5f52603260045260245ffd5b8051821015611e085760209160051b010190565b611de0565b634e487b7160e01b5f52601160045260245ffd5b5f198114611e2f5760010190565b611e0d565b60405190611dbe60c083611d90565b6001600160401b038111611d8b5760051b60200190565b60405190611e69602083611d90565b5f808352366020840137565b90611e7f82611e43565b611e8c6040519182611d90565b8281528092611e9d601f1991611e43565b0190602036910137565b90611eb182611e43565b611ebe6040519182611d90565b8281528092611ecf601f1991611e43565b01905f5b828110611edf57505050565b806060602080938501015201611ed3565b6001600160a01b039091169052565b519060ff8216820361027157565b908160209103126102715761036890611eff565b90816020910312610271575190565b80546001600160a01b0319166001600160a01b03909216919091179055565b15611f5657565b60405162461bcd60e51b815260206004820152601060248201526f0436f6d706f756e643a20626173653d360841b6044820152606490fd5b600354811015611e085760035f5260205f2001905f90565b600354600160401b811015611d8b5760018101600355600354811015611e085760035f527fc2575a0e9e593c00f959f8c92f12db2869c3395a3b0502d05e2516446f71f85b0180546001600160a01b0319166001600160a01b03909216919091179055565b929061201683611e75565b915f5b8481101561204e5760019061203d8160051b85013561203781610260565b88612f10565b6120478287611df4565b5201612019565b50935050905090565b51906001600160501b038216820361027157565b908160a09103126102715761207f81612057565b91602082015191604081015191610368608060608401519301612057565b51906001600160801b038216820361027157565b90816020910312610271576103689061209d565b6001600160a01b036120dc61060161088b846107ac565b166121a8576106016120ed91612211565b60405163e7dad6bd60e01b815290602082600481845afa918215610316575f92612187575b506001600160a01b0382166121275750505f90565b6121499160209160405180809581946341976e0960e01b835260048301610275565b03915afa908115610316575f91612168575b506001600160801b031690565b612181915060203d60201161145a5761144c8183611d90565b5f61215b565b6121a191925060203d60201161030f576103018183611d90565b905f612112565b60a06121bb61060161088b6004946107ac565b604051633fabe5a360e21b815292839182905afa908115610316575f916121e0575090565b612202915060a03d60a01161220a575b6121fa8183611d90565b81019061206b565b505050905090565b503d6121f0565b61221d61088b8261077a565b6001600160a01b0381166122f6575061223a610601600554610254565b80612281575b60405162461bcd60e51b815260206004820152601960248201527810dbdb5c1bdd5b990e8818dbdb595d081b9bdd08199bdd5b99603a1b6044820152606490fd5b6122ab91612290602092610254565b60405180809581946326e46ed360e01b835260048301610275565b03915afa5f91816122d5575b506122c3575b80612240565b6001600160a01b038116156122bd5790565b6122ef91925060203d60201161030f576103018183611d90565b905f6122b7565b905090565b906127108202918083046127101490151715611e2f57565b81810292918115918404141715611e2f57565b8115612330570490565b634e487b7160e01b5f52601260045260245ffd5b61234d90612211565b60405163a46fe83b60e01b81525f9283926001600160a01b03169190602082600481865afa918215610316575f9261256a575b5091905f925b60ff821660ff8516106123c1575050505080156123bb576127108202918083046127101490151715611e2f5761036891612326565b50505f90565b909192946040519463c8c7fe6b60e01b865261010086806123ed8a6004830160ff909116815260200190565b0381885afa958615610316575f96612549575b5061242d60406124136020890151610254565b815180938192632b92a07d60e01b8352886004840161279e565b0381895afa908115610316575f9161251a575b506001600160801b0316801561250b57906124649160206112d760408a0151610254565b03818a5afa938415610316576124d961111f6001946124d361110e60a06124c48f6124bd906124b761110e60ff9f60ff9f6124df9e60609261139c925f916124ed575b506001600160801b031690612313565b90612326565b8095612d49565b9e01516001600160401b031690565b90612313565b90612d49565b975b01169392919050612386565b612505915060203d811161145a5761144c8183611d90565b5f6124a7565b5094509460ff600181926124e1565b61253b915060403d8111612542575b6125338183611d90565b81019061277d565b505f612440565b503d612529565b6125639196506101003d8111611175576111668183611d90565b945f612400565b61258491925060203d60201161067f576106718183611d90565b905f612380565b51906001600160401b038216820361027157565b90816101009103126102715761263460e0604051926125bd84611d6f565b6125c681611eff565b84526125d460208201611db3565b60208501526125e560408201611db3565b60408501526125f66060820161258b565b60608501526126076080820161258b565b608085015261261860a0820161258b565b60a085015261262960c0820161258b565b60c08501520161209d565b60e082015290565b602061265c9160405180938192636072aa0760e01b835260048301610275565b0381305afa5f918161275c575b506126775750610368611e5a565b60405163a46fe83b60e01b81526001600160a01b03919091169190602081600481865afa80156103165760ff915f9161273d575b5016906126b782611e75565b5f5b60ff811690848210156127345760405163c8c7fe6b60e01b815260ff8216600482015290610100826024818a5afa80156103165760ff936105a961113c602061270e946001975f91612715575b500151610254565b01166126b9565b61272e91506101003d8111611175576111668183611d90565b5f612706565b50509150915090565b612756915060203d60201161067f576106718183611d90565b5f6126ab565b61277691925060203d60201161030f576103018183611d90565b905f612669565b91908260409103126102715761036860206127978461209d565b930161209d565b6001600160a01b0391821681529116602082015260400190565b602081830312610271578051906001600160401b038211610271570181601f82011215610271578051906001600160401b038211611d8b5760405192612808601f8401601f191660200185611d90565b8284526020838301011161027157815f9260208093018386015e8301015290565b61060161283891939293612211565b9060405163a46fe83b60e01b8152602081600481865afa80156103165760ff915f91612a0f575b50169061286b82611e75565b9361287583611ea7565b9261287f81611e75565b945f90815b8360ff841610612895575050505050565b60405163c8c7fe6b60e01b815260ff8416600482015261010081602481865afa908115610316576128f2916020915f916129f0575b500160406128d88251610254565b815180948192632b92a07d60e01b83528b6004840161279e565b0381875afa918215610316578b905f936129b8575b5061292d610601610601846129275f956105a98a6110e760049a51610254565b51610254565b6040516395d89b4160e01b815292839182905afa9283156103165761064760019361297e838e6129788f839060ff9b61298d9a5f91612996575b506129728383611df4565b52611df4565b50611df4565b6001600160801b039091169052565b93011691612884565b6129b291503d805f833e6129aa8183611d90565b8101906127b8565b5f612967565b5f9193506106016106016004946129276129e261292d9560403d8111612542576125338183611d90565b509795505094505050612907565b612a0991506101003d8111611175576111668183611d90565b5f6128ca565b612a28915060203d60201161067f576106718183611d90565b5f61285f565b90816020910312610271576103689061258b565b60405190600354808352826020810160035f5260205f20925f5b818110612a71575050611dbe92500383611d90565b84546001600160a01b0316835260019485019487945060209093019201612a5c565b6020612ab69193929360405180938192636072aa0760e01b835260048301610275565b0381305afa5f9181612b98575b50612ace57505f9150565b60405163a46fe83b60e01b815292906001600160a01b0316602084600481845afa938415610316575f94612b77575b505f5b60ff851660ff821610612b1557505f93505050565b60405163c8c7fe6b60e01b815260ff8216600482015261010081602481865afa90811561031657612b51916020915f9161271557500151610254565b6001600160a01b03848116911614612b6e5760010160ff16612b00565b50600193505050565b612b9191945060203d60201161067f576106718183611d90565b925f612afd565b612bb291925060203d60201161030f576103018183611d90565b905f612ac3565b15612bc057565b60405162461bcd60e51b815260206004820152601f60248201527f436f6d706f756e643a2077726974652067617465776179206e6f7420736574006044820152606490fd5b602081830312610271578051906001600160401b03821161027157019080601f83011215610271578151612c3881611e43565b92612c466040519485611d90565b81845260208085019260051b82010192831161027157602001905b828210612c6e5750505090565b602080918351612c7d81610260565b815201910190612c61565b15612c8f57565b60405162461bcd60e51b815260206004820152600e60248201526d436f6d706f756e643a207a65726f60901b6044820152606490fd5b90612ccf82611e43565b612cdc6040519182611d90565b8281528092612ced601f1991611e43565b015f5b818110612cfc57505050565b60405160c0810191906001600160401b03831181841017611d8b576020926040525f81525f838201525f60408201525f60608201525f60808201525f60a082015282828601015201612cf0565b91908201809211611e2f57565b612d5e612a42565b90612d6a600554610254565b6001600160a01b038116612e665750612d81611e5a565b905b612d98612d938451845190612d49565b611e75565b925f915f5b8251811015612dd25780612dcc612db961059260019487611df4565b6105a9612dc588611e21565b978a611df4565b01612d9d565b509290505f5b8151811015612e6057612dee6105928284611df4565b5f6001600160a01b038216815b868110612e34575b5050906001929115612e17575b5001612dd8565b612e2e906105a9612e2787611e21565b9689611df4565b5f612e10565b81612e45610601610592848d611df4565b14612e5257600101612dfb565b50600191508190505f612e03565b50508252565b5f612e75610601600493610254565b604051633aafb16760e11b815292839182905afa908115610316575f91612e9e575b5090612d83565b612eb291503d805f833e610f028183611d90565b5f612e97565b15612ebf57565b60405162461bcd60e51b8152602060048201526024808201527f436f6d706f756e643a20636f6d6574206e6f7420696e207772697465206761746044820152636577617960e01b6064820152608490fd5b610100612f22610601612f3d93612211565b9260405180938192631d9df61760e11b835260048301610275565b0381855afa91821561031657612f636040612149946020945f9161271557500151610254565b9060405180809581946341976e0960e01b835260048301610275565b612f8890612211565b60405163a46fe83b60e01b81525f9283926001600160a01b03169190602082600481865afa918215610316575f9261314b575b5091905f925b60ff821660ff851610612ff6575050505080156123bb576127108202918083046127101490151715611e2f5761036891612326565b909192946040519463c8c7fe6b60e01b865261010086806130228a6004830160ff909116815260200190565b0381885afa958615610316575f9661312a575b5061304860406124136020890151610254565b0381895afa908115610316575f9161310b575b506001600160801b031680156130fc579061307f9160206112d760408a0151610254565b03818a5afa938415610316576124d961111f6001946124d361110e60806124c48f6124bd906124b761110e60ff9f60ff9f6130d09e60609261139c925f916130de575b506001808b1b031690612313565b975b01169392919050612fc1565b6130f6915060203d811161145a5761144c8183611d90565b5f6130c2565b5094509460ff600181926130d2565b613123915060403d8111612542576125338183611d90565b505f61305b565b6131449196506101003d8111611175576111668183611d90565b945f613035565b61316591925060203d60201161067f576106718183611d90565b905f612fbb565b5f546001600160a01b0316330361317f57565b63118cdaa760e01b5f523360045260245ffdfebd7bf039bc2e612983f7f581f4b5d456d978092d546243d55a7b3f8594fb9796526edd5dd90f5bf0182679e6bfd9599001c52b92e97523563c3302d3a030e2968be0079c531659141344cd1fd0a4f28419497f9722a3daafe3b4186f6b6457e0a2646970667358221220a165eea20715e90875c8a37a87b81e4dbbf34e397e68621ec3260adb7ea70ae964736f6c634300081e0033",
  "devdoc": {
    "details": "Contains all read/view functions from v1, separate from write operations",
    "errors": {
      "OwnableInvalidOwner(address)": [
        {
          "details": "The owner is not a valid owner account. (eg. `address(0)`)"
        }
      ],
      "OwnableUnauthorizedAccount(address)": [
        {
          "details": "The caller account is not authorized to perform an operation."
        }
      ]
    },
    "kind": "dev",
    "methods": {
      "getBaseTokenInfo(address)": {
        "params": {
          "market": "The base token address"
        },
        "returns": {
          "baseToken": "The base token address",
          "decimals": "The base token decimals",
          "price": "The base token price",
          "priceScale": "The Comet's price scale"
        }
      },
      "getReserveConfigs(address)": {
        "details": "Returns price, LTV (borrow collateral factor), liquidation threshold for each collateral",
        "params": {
          "market": "The base token address (e.g., USDC) to identify the Comet"
        },
        "returns": {
          "configs": "Array of reserve configuration data for all collaterals in this market"
        }
      },
      "owner()": {
        "details": "Returns the address of the current owner."
      },
      "renounceOwnership()": {
        "details": "Leaves the contract without owner. It will not be possible to call `onlyOwner` functions. Can only be called by the current owner. NOTE: Renouncing ownership will leave the contract without an owner, thereby disabling any functionality that is only available to the owner."
      },
      "transferOwnership(address)": {
        "details": "Transfers ownership of the contract to a new account (`newOwner`). Can only be called by the current owner."
      }
    },
    "title": "CompoundGatewayView",
    "version": 1
  },
  "userdoc": {
    "kind": "user",
    "methods": {
      "allActiveBaseTokens()": {
        "notice": "Get all active base tokens (from allActiveComets)"
      },
      "allActiveComets()": {
        "notice": "Get all active Comets (union of local + write gateway registries)"
      },
      "allBaseTokens()": {
        "notice": "Get all base tokens for registered Comets"
      },
      "getBaseTokenInfo(address)": {
        "notice": "Get base token info for a market (debt token)"
      },
      "getComet(address)": {
        "notice": "Get Comet for base token, falling back to write gateway if not found locally"
      },
      "getReserveConfigs(address)": {
        "notice": "Get reserve configuration data for a Compound market (for frontend LTV calculations)"
      },
      "setWriteGateway(address)": {
        "notice": "Set the write gateway address for syncing Comet registry"
      },
      "syncAllCometsFromWriteGateway()": {
        "notice": "Sync all Comets from write gateway"
      },
      "syncCometFromWriteGateway(address)": {
        "notice": "Sync a Comet from the write gateway to this view gateway"
      }
    },
    "notice": "View-only gateway for Compound Comet protocol",
    "version": 1
  },
  "storageLayout": {
    "storage": [
      {
        "astId": 1578,
        "contract": "contracts/v2/gateways/compound/CompoundGatewayView.sol:CompoundGatewayView",
        "label": "_owner",
        "offset": 0,
        "slot": "0",
        "type": "t_address"
      },
      {
        "astId": 19840,
        "contract": "contracts/v2/gateways/compound/CompoundGatewayView.sol:CompoundGatewayView",
        "label": "tokenToComet",
        "offset": 0,
        "slot": "1",
        "type": "t_mapping(t_address,t_contract(ICompoundComet)33770)"
      },
      {
        "astId": 19845,
        "contract": "contracts/v2/gateways/compound/CompoundGatewayView.sol:CompoundGatewayView",
        "label": "overrideFeeds",
        "offset": 0,
        "slot": "2",
        "type": "t_mapping(t_address,t_contract(AggregatorV3Interface)1569)"
      },
      {
        "astId": 19848,
        "contract": "contracts/v2/gateways/compound/CompoundGatewayView.sol:CompoundGatewayView",
        "label": "_comets",
        "offset": 0,
        "slot": "3",
        "type": "t_array(t_address)dyn_storage"
      },
      {
        "astId": 19852,
        "contract": "contracts/v2/gateways/compound/CompoundGatewayView.sol:CompoundGatewayView",
        "label": "_isRegistered",
        "offset": 0,
        "slot": "4",
        "type": "t_mapping(t_address,t_bool)"
      },
      {
        "astId": 19854,
        "contract": "contracts/v2/gateways/compound/CompoundGatewayView.sol:CompoundGatewayView",
        "label": "writeGateway",
        "offset": 0,
        "slot": "5",
        "type": "t_address"
      }
    ],
    "types": {
      "t_address": {
        "encoding": "inplace",
        "label": "address",
        "numberOfBytes": "20"
      },
      "t_array(t_address)dyn_storage": {
        "base": "t_address",
        "encoding": "dynamic_array",
        "label": "address[]",
        "numberOfBytes": "32"
      },
      "t_bool": {
        "encoding": "inplace",
        "label": "bool",
        "numberOfBytes": "1"
      },
      "t_contract(AggregatorV3Interface)1569": {
        "encoding": "inplace",
        "label": "contract AggregatorV3Interface",
        "numberOfBytes": "20"
      },
      "t_contract(ICompoundComet)33770": {
        "encoding": "inplace",
        "label": "contract ICompoundComet",
        "numberOfBytes": "20"
      },
      "t_mapping(t_address,t_bool)": {
        "encoding": "mapping",
        "key": "t_address",
        "label": "mapping(address => bool)",
        "numberOfBytes": "32",
        "value": "t_bool"
      },
      "t_mapping(t_address,t_contract(AggregatorV3Interface)1569)": {
        "encoding": "mapping",
        "key": "t_address",
        "label": "mapping(address => contract AggregatorV3Interface)",
        "numberOfBytes": "32",
        "value": "t_contract(AggregatorV3Interface)1569"
      },
      "t_mapping(t_address,t_contract(ICompoundComet)33770)": {
        "encoding": "mapping",
        "key": "t_address",
        "label": "mapping(address => contract ICompoundComet)",
        "numberOfBytes": "32",
        "value": "t_contract(ICompoundComet)33770"
      }
    }
  }
}