{
  "address": "0xafE618953FFdf652493453404B784bD557d03e99",
  "abi": [
    {
      "inputs": [
        {
          "internalType": "address",
          "name": "router",
          "type": "address"
        },
        {
          "internalType": "address",
          "name": "owner_",
          "type": "address"
        },
        {
          "internalType": "address",
          "name": "evc_",
          "type": "address"
        }
      ],
      "stateMutability": "nonpayable",
      "type": "constructor"
    },
    {
      "inputs": [
        {
          "internalType": "address",
          "name": "target",
          "type": "address"
        }
      ],
      "name": "AddressEmptyCode",
      "type": "error"
    },
    {
      "inputs": [
        {
          "internalType": "address",
          "name": "account",
          "type": "address"
        }
      ],
      "name": "AddressInsufficientBalance",
      "type": "error"
    },
    {
      "inputs": [],
      "name": "FailedInnerCall",
      "type": "error"
    },
    {
      "inputs": [],
      "name": "InvalidContext",
      "type": "error"
    },
    {
      "inputs": [
        {
          "internalType": "address",
          "name": "owner",
          "type": "address"
        }
      ],
      "name": "OwnableInvalidOwner",
      "type": "error"
    },
    {
      "inputs": [
        {
          "internalType": "address",
          "name": "account",
          "type": "address"
        }
      ],
      "name": "OwnableUnauthorizedAccount",
      "type": "error"
    },
    {
      "inputs": [],
      "name": "ReentrancyGuardReentrantCall",
      "type": "error"
    },
    {
      "inputs": [
        {
          "internalType": "address",
          "name": "token",
          "type": "address"
        }
      ],
      "name": "SafeERC20FailedOperation",
      "type": "error"
    },
    {
      "inputs": [],
      "name": "UnsupportedOperation",
      "type": "error"
    },
    {
      "inputs": [],
      "name": "ZeroAddress",
      "type": "error"
    },
    {
      "anonymous": false,
      "inputs": [
        {
          "indexed": true,
          "internalType": "address",
          "name": "previousOwner",
          "type": "address"
        },
        {
          "indexed": true,
          "internalType": "address",
          "name": "newOwner",
          "type": "address"
        }
      ],
      "name": "OwnershipTransferred",
      "type": "event"
    },
    {
      "inputs": [],
      "name": "ROUTER",
      "outputs": [
        {
          "internalType": "address",
          "name": "",
          "type": "address"
        }
      ],
      "stateMutability": "view",
      "type": "function"
    },
    {
      "inputs": [
        {
          "components": [
            {
              "internalType": "enum ProtocolTypes.LendingOp",
              "name": "op",
              "type": "uint8"
            },
            {
              "internalType": "address",
              "name": "token",
              "type": "address"
            },
            {
              "internalType": "address",
              "name": "user",
              "type": "address"
            },
            {
              "internalType": "uint256",
              "name": "amount",
              "type": "uint256"
            },
            {
              "internalType": "bytes",
              "name": "context",
              "type": "bytes"
            },
            {
              "components": [
                {
                  "internalType": "uint256",
                  "name": "index",
                  "type": "uint256"
                }
              ],
              "internalType": "struct ProtocolTypes.InputPtr",
              "name": "input",
              "type": "tuple"
            }
          ],
          "internalType": "struct ProtocolTypes.LendingInstruction[]",
          "name": "instrs",
          "type": "tuple[]"
        },
        {
          "internalType": "address",
          "name": "caller",
          "type": "address"
        },
        {
          "components": [
            {
              "internalType": "address",
              "name": "token",
              "type": "address"
            },
            {
              "internalType": "uint256",
              "name": "amount",
              "type": "uint256"
            }
          ],
          "internalType": "struct ProtocolTypes.Output[]",
          "name": "inputs",
          "type": "tuple[]"
        }
      ],
      "name": "authorize",
      "outputs": [
        {
          "internalType": "address[]",
          "name": "targets",
          "type": "address[]"
        },
        {
          "internalType": "bytes[]",
          "name": "data",
          "type": "bytes[]"
        },
        {
          "components": [
            {
              "internalType": "address",
              "name": "token",
              "type": "address"
            },
            {
              "internalType": "uint256",
              "name": "amount",
              "type": "uint256"
            }
          ],
          "internalType": "struct ProtocolTypes.Output[]",
          "name": "produced",
          "type": "tuple[]"
        }
      ],
      "stateMutability": "view",
      "type": "function"
    },
    {
      "inputs": [
        {
          "components": [
            {
              "internalType": "enum ProtocolTypes.LendingOp",
              "name": "op",
              "type": "uint8"
            },
            {
              "internalType": "address",
              "name": "token",
              "type": "address"
            },
            {
              "internalType": "address",
              "name": "user",
              "type": "address"
            },
            {
              "internalType": "uint256",
              "name": "amount",
              "type": "uint256"
            },
            {
              "internalType": "bytes",
              "name": "context",
              "type": "bytes"
            },
            {
              "components": [
                {
                  "internalType": "uint256",
                  "name": "index",
                  "type": "uint256"
                }
              ],
              "internalType": "struct ProtocolTypes.InputPtr",
              "name": "input",
              "type": "tuple"
            }
          ],
          "internalType": "struct ProtocolTypes.LendingInstruction[]",
          "name": "instrs",
          "type": "tuple[]"
        },
        {
          "internalType": "address",
          "name": "caller",
          "type": "address"
        },
        {
          "components": [
            {
              "internalType": "address",
              "name": "token",
              "type": "address"
            },
            {
              "internalType": "uint256",
              "name": "amount",
              "type": "uint256"
            }
          ],
          "internalType": "struct ProtocolTypes.Output[]",
          "name": "",
          "type": "tuple[]"
        }
      ],
      "name": "deauthorize",
      "outputs": [
        {
          "internalType": "address[]",
          "name": "targets",
          "type": "address[]"
        },
        {
          "internalType": "bytes[]",
          "name": "data",
          "type": "bytes[]"
        }
      ],
      "stateMutability": "view",
      "type": "function"
    },
    {
      "inputs": [],
      "name": "evc",
      "outputs": [
        {
          "internalType": "contract IEVC",
          "name": "",
          "type": "address"
        }
      ],
      "stateMutability": "view",
      "type": "function"
    },
    {
      "inputs": [],
      "name": "owner",
      "outputs": [
        {
          "internalType": "address",
          "name": "",
          "type": "address"
        }
      ],
      "stateMutability": "view",
      "type": "function"
    },
    {
      "inputs": [
        {
          "components": [
            {
              "internalType": "address",
              "name": "token",
              "type": "address"
            },
            {
              "internalType": "uint256",
              "name": "amount",
              "type": "uint256"
            }
          ],
          "internalType": "struct ProtocolTypes.Output[]",
          "name": "inputs",
          "type": "tuple[]"
        },
        {
          "internalType": "bytes",
          "name": "data",
          "type": "bytes"
        }
      ],
      "name": "processLendingInstruction",
      "outputs": [
        {
          "components": [
            {
              "internalType": "address",
              "name": "token",
              "type": "address"
            },
            {
              "internalType": "uint256",
              "name": "amount",
              "type": "uint256"
            }
          ],
          "internalType": "struct ProtocolTypes.Output[]",
          "name": "",
          "type": "tuple[]"
        }
      ],
      "stateMutability": "nonpayable",
      "type": "function"
    },
    {
      "inputs": [
        {
          "internalType": "address",
          "name": "token",
          "type": "address"
        },
        {
          "internalType": "address",
          "name": "to",
          "type": "address"
        },
        {
          "internalType": "uint256",
          "name": "amount",
          "type": "uint256"
        }
      ],
      "name": "recoverTokens",
      "outputs": [],
      "stateMutability": "nonpayable",
      "type": "function"
    },
    {
      "inputs": [],
      "name": "renounceOwnership",
      "outputs": [],
      "stateMutability": "nonpayable",
      "type": "function"
    },
    {
      "inputs": [
        {
          "internalType": "address",
          "name": "newOwner",
          "type": "address"
        }
      ],
      "name": "transferOwnership",
      "outputs": [],
      "stateMutability": "nonpayable",
      "type": "function"
    }
  ],
  "transactionHash": "0xa78101cb567bae3fdae35ae43b061af7d923d8227b05767b3eb039737a473b18",
  "args": [
    "0xD9e8Eb2B3cc44ebF326d2b9772FBe2B28cdba65f",
    "0x0BE61223F99E57b8b8B7033a77B54Adc7f7cF027",
    "0x2A1176964F5D7caE5406B627Bf6166664FE83c60"
  ],
  "numDeployments": 2,
  "solcInputHash": "0fea5cc4d237037126c3fb60329d2945",
  "bytecode": "0x60c03461019c57601f612d4538819003918201601f19168301916001600160401b038311848410176101a05780849260609460405283398101031261019c57610047816101b4565b906100606040610059602084016101b4565b92016101b4565b916001600160a01b0381161561016c576080526001600160a01b0316908115610159575f80546001600160a01b031981168417825560405193916001600160a01b03909116907f8be0079c531659141344cd1fd0a4f28419497f9722a3daafe3b4186f6b6457e09080a3600180556001600160a01b0316801561014a5760a052612b7c90816101c9823960805181818161011e0152610d8d015260a05181818160b601528181610668015281816112f101528181611857015281816118f30152818161196c01528181611bed01528181611cd801528181611d630152818161222201526125d10152f35b63d92e233d60e01b5f5260045ffd5b631e4fbdf760e01b5f525f60045260245ffd5b60405162461bcd60e51b81526020600482015260086024820152670726f757465723d360c41b6044820152606490fd5b5f80fd5b634e487b7160e01b5f52604160045260245ffd5b51906001600160a01b038216820361019c5756fe60806040526004361015610011575f80fd5b5f3560e01c80630fb411e8146100a457806332fe7b261461009f57806352ed58751461009a5780635f3e849f14610095578063715018a6146100905780638da5cb5b1461008b578063aad11a3f14610086578063ae4be46d146100815763f2fde38b1461007c575f80fd5b6108f1565b610866565b610622565b6105d6565b610592565b6104b1565b610354565b610109565b346100e8575f3660031901126100e8577f00000000000000000000000000000000000000000000000000000000000000006001600160a01b03166080908152602090f35b5f80fd5b5f9103126100e857565b6001600160a01b03909116815260200190565b346100e8575f3660031901126100e8576040517f00000000000000000000000000000000000000000000000000000000000000006001600160a01b03168152602090f35b6001600160a01b038116036100e857565b35906101698261014d565b565b9181601f840112156100e8578235916001600160401b0383116100e8576020808501948460061b0101116100e857565b9060606003198301126100e857600435916001600160401b0383116100e857806023840112156100e8576004830135926001600160401b0384116100e8578160248560051b830101116100e85760240192916101f7602461015e565b91604435906001600160401b0382116100e8576102169160040161016b565b9091565b90602080835192838152019201905f5b8181106102375750505090565b82516001600160a01b031684526020938401939092019160010161022a565b805180835260209291819084018484015e5f828201840152601f01601f1916010190565b9080602083519182815201916020808360051b8301019401925f915b8383106102a557505050505090565b90919293946020806102c3600193601f198682030187528951610256565b97019301930191939290610296565b90602080835192838152019201905f5b8181106102ef5750505090565b825180516001600160a01b0316855260209081015181860152604090940193909201916001016102e2565b9161034390610335610351959360608652606086019061021a565b90848203602086015261027a565b9160408184039101526102d2565b90565b346100e8576103623661019b565b91939092905f805b8381106103ff575061037b90610a6e565b9261039561039061038b85610add565b610b10565b610b39565b946103aa6103a561038b86610add565b610b9e565b966103b3610be7565b945f5b89898383106103db576103d78a8a805184525184526040519384938461031a565b0390f35b888a84936103f9938a8a8a6103f48f9a8c60019c610c35565b610fc0565b016103b6565b61041261040d828686610c35565b610c9e565b61041b81610c80565b6002811490811561049c575b8115610487575b8115610472575b811561045e575b5061044a575b60010161036a565b90610456600191610d4c565b919050610442565b6006915061046b81610c80565b145f61043c565b905061047d81610c80565b6005811490610435565b905061049281610c80565b600481149061042e565b90506104a781610c80565b6003811490610427565b346100e85760603660031901126100e8576004356104ce8161014d565b602435906104db8261014d565b604435906104e7611387565b6040516370a0823160e01b81526001600160a01b03919091169290916020838061051430600483016100f6565b0381875afa92831561058d575f9361055c575b505f1981036105565750815b80831161054e575b508161054357005b61054c926113c8565b005b91505f61053b565b91610533565b61057f91935060203d602011610586575b61057781836109d1565b810190610c5c565b915f610527565b503d61056d565b610c6b565b346100e8575f3660031901126100e8576105aa611387565b5f80546001600160a01b0319811682556001600160a01b03165f516020612b275f395f51905f528280a3005b346100e8575f3660031901126100e8575f546040516001600160a01b039091168152602090f35b90916106146103519360408452604084019061021a565b91602081840391015261027a565b346100e8576106303661019b565b50509061063c81610b39565b915f915f5b81811061075b575050811590506107435761065b81610b39565b9061066581610b9e565b927f00000000000000000000000000000000000000000000000000000000000000006001600160a01b03165f5b8381106106ad57505050505b6103d7604051928392836105fd565b806106c3836106be60019489610d38565b610d5a565b6107196107276106e36106d68488610d38565b516001600160a01b031690565b604051634fae231560e11b60208201526001600160a01b0390911660248201523060448201525f60648201529182906084820190565b03601f1981018352826109d1565b6107318289610d38565b5261073c8188610d38565b5001610692565b505061074d610b1e565b610755610b6b565b9061069e565b61076961040d828489610c35565b61077281610c80565b60028114908115610841575b5061078c575b600101610641565b6107c26107b96107b46107ad6107a385878c610c35565b6080810190610ca8565b3691610cf5565b611469565b915050846114cd565b5f6001600160a01b038216815b878110610809575b50509060019291156107ec575b509050610784565b610803906106be6107fc88610d4c565b9789610d38565b5f6107e4565b8161082661081a6106d6848d610d38565b6001600160a01b031690565b14610833576001016107cf565b50600191508190505f6107d7565b6003915061084e81610c80565b145f61077e565b9060206103519281815201906102d2565b346100e85760403660031901126100e8576004356001600160401b0381116100e85761089690369060040161016b565b90602435906001600160401b0382116100e857366023830112156100e8576004820135906001600160401b0382116100e85736602483850101116100e8576103d79360246108e5940191610d8a565b60405191829182610855565b346100e85760203660031901126100e85760043561090e8161014d565b610916611387565b6001600160a01b03168015610954575f80546001600160a01b03198116831782556001600160a01b0316905f516020612b275f395f51905f529080a3005b631e4fbdf760e01b5f525f60045260245ffd5b634e487b7160e01b5f52604160045260245ffd5b604081019081106001600160401b0382111761099657604052565b610967565b60c081019081106001600160401b0382111761099657604052565b608081019081106001600160401b0382111761099657604052565b601f909101601f19168101906001600160401b0382119082101761099657604052565b604051906101696040836109d1565b604051906101696080836109d1565b6001600160401b0381116109965760051b60200190565b60405190610a386020836109d1565b5f80835282815b828110610a4b57505050565b602090604051610a5a8161097b565b5f81525f8382015282828501015201610a3f565b90610a7882610a12565b610a8560405191826109d1565b8281528092610a96601f1991610a12565b01905f5b828110610aa657505050565b602090604051610ab58161097b565b5f81525f8382015282828501015201610a9a565b634e487b7160e01b5f52601160045260245ffd5b90600c820291808304600c1490151715610af357565b610ac9565b906103e98202918083046103e91490151715610af357565b6001019081600111610af357565b60405190610b2d6020836109d1565b5f808352366020840137565b90610b4382610a12565b610b5060405191826109d1565b8281528092610b61601f1991610a12565b0190602036910137565b60405190610b7a6020836109d1565b5f80835282815b828110610b8d57505050565b806060602080938501015201610b81565b90610ba882610a12565b610bb560405191826109d1565b8281528092610bc6601f1991610a12565b01905f5b828110610bd657505050565b806060602080938501015201610bca565b6040519060a082016001600160401b03811183821017610996576040525f6080838281528260208201528260408201528260608201520152565b634e487b7160e01b5f52603260045260245ffd5b9190811015610c575760051b8101359060be19813603018212156100e8570190565b610c21565b908160209103126100e8575190565b6040513d5f823e3d90fd5b600a11156100e857565b600a1115610c8a57565b634e487b7160e01b5f52602160045260245ffd5b3561035181610c76565b903590601e19813603018212156100e857018035906001600160401b0382116100e8576020019181360383136100e857565b6001600160401b03811161099657601f01601f191660200190565b929192610d0182610cda565b91610d0f60405193846109d1565b8294818452818301116100e8578281602093845f960137010152565b805115610c575760200190565b8051821015610c575760209160051b010190565b5f198114610af35760010190565b6001600160a01b039091169052565b6001600160a01b039182168152911660208201526001604082015260600190565b927f00000000000000000000000000000000000000000000000000000000000000006001600160a01b03163303610eef578201916020818403126100e8578035906001600160401b0382116100e857019160c0838203126100e85760405190610df28261099b565b8335610dfd81610c76565b8252610e0b6020850161015e565b6020830152610e1c6040850161015e565b60408301908152606085810135908401908152608086013596919490916001600160401b0388116100e857610e9a610e81610e738660a0610e65610e95996103519e8e01610f2b565b9b60808b019c8d5201610f46565b9860a08801998a5251611469565b9851909891966001600160a01b0390911690565b6114cd565b9651519282841015610ee4575091610eb491602093610f74565b0135925b805115610edc576106d6610ecb91610d2b565b915b51610ed781610c80565b6114f5565b505f91610ecd565b925050505192610eb8565b60405162461bcd60e51b815260206004820152601460248201527313db9b1e481c9bdd5d195c8818d85b8818d85b1b60621b6044820152606490fd5b9080601f830112156100e85781602061035193359101610cf5565b91908260209103126100e857604051602081016001600160401b038111828210176109965760405291358252565b9190811015610c575760061b0190565b908160209103126100e8575180151581036100e85790565b6001600160a01b0391821681529116602082015260400190565b356103518161014d565b969590610fe393610fda6107b46107ad60808c018c610ca8565b909691936114cd565b9360a08a01358281101561137957602092610ffd92610f74565b0135905b845115611372576110146106d686610d2b565b945b60408901805186906001600160a01b038083169116036112c5575b5050600161103e8b610c9e565b61104781610c80565b0361105a57505050506101699550611d50565b90919392969594600261106c8b610c9e565b61107581610c80565b036110925750505061108c60206101699801610fb6565b90611c89565b60036110a08b93949b610c9e565b6110a981610c80565b036110c55750976110bf60206101699a01610fb6565b926117dc565b9350600592955080979894506110db9150610c9e565b6110e481610c80565b036111a4575061110c91602091604051808095819463d283e75f60e01b8352600483016100f6565b03916001600160a01b03165afa93841561058d5761114d602061114661113e6111849883965f91611187575b50610af8565b6103e8900490565b9501610fb6565b936111606111596109f4565b9586610d5a565b82850152019182519261117284610d4c565b905261117e8383610d38565b52610d38565b50565b61119e9150843d86116105865761057781836109d1565b5f611138565b905060066111b185610c9e565b6111ba81610c80565b0361126d576040516370a0823160e01b81526001600160a01b0390911691602090829081906111ec90600483016100f6565b0381855afa801561058d57611226926020925f9261124e575b5060405180809581946303d1689d60e11b8352600483019190602083019252565b03915afa93841561058d5761114d602061114661113e6111849883965f916111875750610af8565b611266919250833d85116105865761057781836109d1565b905f611205565b5050600461127c839493610c9e565b61128581610c80565b1461128f57505050565b602061129f816111849501610fb6565b926112b26112ab6109f4565b9485610d5a565b5f82850152019182519261117284610d4c565b6112ce91610d5a565b604051630b23949560e11b8152602081806112ed308a60048401610f9c565b03817f00000000000000000000000000000000000000000000000000000000000000006001600160a01b03165afa801561058d57611336915f91611343575b50151560608b0152565b5f60808a01525f85611031565b611365915060203d60201161136b575b61135d81836109d1565b810190610f84565b5f61132c565b503d611353565b5f94611016565b505050606088013590611001565b5f546001600160a01b0316330361139a57565b63118cdaa760e01b5f523360045260245ffd5b6001600160a01b039091168152602081019190915260400190565b6113fd61016993926113ef60405194859263a9059cbb60e01b6020850152602484016113ad565b03601f1981018452836109d1565b611e3a565b9080601f830112156100e857815161141981610a12565b9261142760405194856109d1565b81845260208085019260051b8201019283116100e857602001905b82821061144f5750505090565b60208091835161145e8161014d565b815201910190611442565b80518101906060818303126100e8576020810151916114878361014d565b6040820151906001600160401b0382116100e8576060916020806114af930191850101611402565b91015160ff811681036100e8576001600160a01b0390921692909190565b610100600160a01b031660ff9091161790565b908160209103126100e857516103518161014d565b90929161150182610c80565b600182146117735761151282610c80565b6002821461170e5761152382610c80565b600682146116a7575061153581610c80565b600381146116465761154681610c80565b600481146115e5576005915061155b81610c80565b1461156f57639ba6061b60e01b5f5260045ffd5b6040516338d52e0f60e01b8152916020836004816001600160a01b0386165afa90811561058d57610351935f926115b2575b506115ac919261290f565b906123e4565b6115ac92506115d89060203d6020116115de575b6115d081836109d1565b8101906114e0565b916115a1565b503d6115c6565b506040516338d52e0f60e01b8152926020846004816001600160a01b0387165afa91821561058d57610351945f93611623575b506115ac92936126d9565b6115ac93506116409060203d6020116115de576115d081836109d1565b92611618565b506040516338d52e0f60e01b8152926020846004816001600160a01b0387165afa91821561058d57610351945f93611684575b506115ac9293612506565b6115ac93506116a19060203d6020116115de576115d081836109d1565b92611679565b6040516338d52e0f60e01b815294909350915060209050836004816001600160a01b0386165afa90811561058d57610351935f926116eb575b506115ac9192612472565b6115ac92506117089060203d6020116115de576115d081836109d1565b916116e0565b6040516338d52e0f60e01b81529490935090506020846004816001600160a01b0387165afa91821561058d57610351945f93611750575b506115ac9293611f90565b6115ac935061176d9060203d6020116115de576115d081836109d1565b92611745565b9050611780939250611ea5565b610351610a29565b906020828203126100e85781516001600160401b0381116100e8576103519201611402565b6001600160a01b039182168152911660208201525f604082015260806060820181905261035192910190610256565b959498929193979690976117fa6117f660608a0151151590565b1590565b80611c73575b611be5575b5f5b85518110156119585780896118206106d68e948a610d38565b6001600160a01b038116151593846118cb575b600194611844575b50505001611807565b6118b6926106be61187f92878060a01b037f000000000000000000000000000000000000000000000000000000000000000016925190610d38565b6118a28b610719604051938492636a27f72d60e11b602085015260248401610f9c565b8b51906118af828c610d38565b5289610d38565b506118c18a51610d4c565b8a52895f8d61183b565b506040516313ce2dab60e31b815293509050602083806118ef848e60048401610f9c565b03817f00000000000000000000000000000000000000000000000000000000000000006001600160a01b03165afa90811561058d578d8c926001955f9161193a575b50159450611833565b611952915060203d811161136b5761135d81836109d1565b5f611931565b509490959196989297935060018060a01b037f0000000000000000000000000000000000000000000000000000000000000000166040516311f3f6b160e21b8152602081806119ab898860048401610f9c565b0381855afa90811561058d575f91611bc6575b50156119dd575b505050505061118493946020916111606111596109f4565b9295919497909398966040519263fd6046d760e01b84525f8480611a048a600483016100f6565b0381885afa93841561058d575f94611ba2575b505f5b8451811015611b375780611a326106d68a9388610d38565b6001600160a01b03818116908f168103611a53575b50506001915001611a1a565b611a7593602091604051808097819463d283e75f60e01b8352600483016100f6565b03915afa92831561058d578c89928d6001968e945f91611b19575b5015611aa0575b50505092611a47565b611b02946106be611ab692611af5955190610d38565b60405163869e50c760e01b60208201526004815261071990611ad96024826109d1565b604051631f8b521560e01b6020820152948593602485016117ad565b8c51906118af828c610d38565b50611b0d8b51610d4c565b8b5286898c5f8d611a97565b611b31915060203d81116105865761057781836109d1565b5f611a90565b5096611b8a9350602096611b5f6111849b966106be611b7d949e969e9c99959c8a5190610d38565b6113ef6040519485926330da145b60e21b8b85015260248401610f9c565b84519161117e8383610d38565b50611b958251610d4c565b8252918196955f806119c5565b611bbf9194503d805f833e611bb781836109d1565b810190611788565b925f611a17565b611bdf915060203d60201161136b5761135d81836109d1565b5f6119be565b8751611c20907f00000000000000000000000000000000000000000000000000000000000000006001600160a01b0316906106be908d610d38565b604051634fae231560e11b6020820152611c5a90611c4681610719308c60248401610d69565b895190611c53828a610d38565b5287610d38565b50611c658851610d4c565b885260016080890152611805565b50611c846117f660808a0151151590565b611800565b926020936111849793929695611ca56117f66060870151151590565b80611d3a575b611cbe575b5050506111606111596109f4565b611b7d6113ef92611d01611d1e956106be60018060a01b037f000000000000000000000000000000000000000000000000000000000000000016918a5190610d38565b604051634fae231560e11b89820152938491309060248401610d69565b50611d298251610d4c565b8252600160808301525f8080611cb0565b50611d4b6117f66080870151151590565b611cab565b6040516313ce2dab60e31b8152929391927f00000000000000000000000000000000000000000000000000000000000000006001600160a01b0316919060208180611d9f888660048401610f9c565b0381865afa90811561058d575f91611e1b575b5015611dc1575b505050505050565b611dd7611df6926106be611e0397895190610d38565b6113ef604051948592636a27f72d60e11b602085015260248401610f9c565b83519161117e8383610d38565b50611e0e8151610d4c565b90525f8080808080611db9565b611e34915060203d60201161136b5761135d81836109d1565b5f611db2565b5f80611e629260018060a01b03169360208151910182865af1611e5b612a99565b9083612ac8565b8051908115159182611e8a575b5050611e785750565b635274afe760e01b5f5260045260245ffd5b611e9d9250602080918301019101610f84565b155f80611e6f565b9091611eaf61294b565b6040516338d52e0f60e01b8152926001600160a01b03831690602085600481855afa801561058d5781602095611f0592611f22985f91611f5a575b506001600160a01b0316611f008330338461296b565b6129af565b5f604051809681958294636e553f6560e01b845260048401611f77565b03925af1801561058d57611f3b575b5061016960018055565b611f539060203d6020116105865761057781836109d1565b505f611f31565b611f719150883d8a116115de576115d081836109d1565b5f611eea565b9081526001600160a01b03909116602082015260400190565b90611fa39291611f9e61294b565b6120ca565b9060018055565b604080519190611fba90836109d1565b6001825281601f19611fcc6001610a12565b01905f5b828110611fdc57505050565b602090604051611feb816109b6565b5f81525f838201525f604082015260608082015282828501015201611fd0565b9081526001600160a01b0391821660208201529116604082015260600190565b602081016020825282518091526040820191602060408360051b8301019401925f915b83831061205d57505050505090565b90919293946020806120ae600193603f19868203018752608060608b51878060a01b038151168452878060a01b03868201511686850152604081015160408501520151918160608201520190610256565b9701930193019193929061204e565b91908203918211610af357565b6040516370a0823160e01b8152926001600160a01b0382169190602085806120f584600483016100f6565b0381865afa94851561058d575f956123c3575b506040516303d1689d60e11b81526004810186905292602084602481845afa93841561058d575f946123a2575b508515612398576020600491604051928380926338d52e0f60e01b82525afa90811561058d575f91612379575b506040516370a0823160e01b81526001600160a01b03919091169590946020868061219030600483016100f6565b03818a5afa95861561058d575f96612356575b5082906121ae611faa565b95811061230757506121ec612200926121de604051958692635d043b2960e11b602085015230906024850161200b565b03601f1981018552846109d1565b6121f76112ab610a03565b60208401610d5a565b5f6040830152606082015261221482610d2b565b5261221e81610d2b565b505b7f00000000000000000000000000000000000000000000000000000000000000006001600160a01b0316803b156100e85760405163305ab9e960e21b8152915f918391829084908290612276906004830161202b565b03925af1801561058d576122ed575b506040516370a0823160e01b8152602081806122a430600483016100f6565b0381865afa91821561058d57610351926122c5925f916122ce575b506120bd565b809233906113c8565b6122e7915060203d6020116105865761057781836109d1565b5f6122bf565b806122fb5f612301936109d1565b806100ec565b5f612285565b604051632d182be560e21b60208201529361233293506121ec9185916121de9130906024850161200b565b5f6040830152606082015261234682610d2b565b5261235081610d2b565b50612220565b839196506123729060203d6020116105865761057781836109d1565b95906121a3565b612392915060203d6020116115de576115d081836109d1565b5f612162565b5050505050505f90565b6123bc91945060203d6020116105865761057781836109d1565b925f612135565b6123dd91955060203d6020116105865761057781836109d1565b935f612108565b9190916123f16001610a12565b906123ff60405192836109d1565b60018252601f196124106001610a12565b015f5b81811061244f57505081936040519161242b8361097b565b6001600160a01b031682526020820152815115610c575760208201525115610c5757565b60209060405161245e8161097b565b5f81525f8382015282828701015201612413565b6040516370a0823160e01b81526001600160a01b03909116916020908290819061249f90600483016100f6565b0381855afa801561058d576124d8926020925f9261124e575060405180809581946303d1689d60e11b8352600483019190602083019252565b03915afa90811561058d575f916124ed575090565b610351915060203d6020116105865761057781836109d1565b919061251061294b565b6040516338d52e0f60e01b81526020816004816001600160a01b0388165afa90811561058d575f916126ba575b506040516370a0823160e01b81526001600160a01b03919091169390926020848061256b30600483016100f6565b0381885afa93841561058d575f94612691575b506125b06121de916121ec612591611faa565b95604051948591630967fa2960e31b6020840152309060248401611f77565b5f604083015260608201526125c482610d2b565b526125ce81610d2b565b507f00000000000000000000000000000000000000000000000000000000000000006001600160a01b0316803b156100e85760405163305ab9e960e21b8152915f918391829084908290612625906004830161202b565b03925af1801561058d5761267d575b506040516370a0823160e01b81526020818061265330600483016100f6565b0381865afa91821561058d57612673926122c5925f916122ce57506120bd565b9061016960018055565b806122fb5f61268b936109d1565b5f612634565b6121de9194506126b26125b09160203d6020116105865761057781836109d1565b94915061257e565b6126d3915060203d6020116115de576115d081836109d1565b5f61253d565b906126e261294b565b6040516338d52e0f60e01b81526001600160a01b0383169190602081600481865afa90811561058d575f916128f0575b506040516370a0823160e01b81526001600160a01b03919091169490936020858061274030600483016100f6565b0381895afa94851561058d575f956128c9575b508261276b916127658230338b61296b565b876129af565b60405163d283e75f60e01b8152926020848061278a85600483016100f6565b0381845afa93841561058d575f946128a8575b508361283d575b50505050604051906370a0823160e01b8252602082806127c730600483016100f6565b0381865afa91821561058d575f9261281c575b5080821115612813576127ec916120bd565b905b8180612801575b50509061016960018055565b61280c9133906113c8565b5f816127f5565b50505f906127ee565b61283691925060203d6020116105865761057781836109d1565b905f6127da565b61286b93602093818111156128a157505b5f60405180968195829463acb7081560e01b845260048401611f77565b03925af1801561058d57612882575b8080806127a4565b61289a9060203d6020116105865761057781836109d1565b505f61287a565b905061284e565b6128c291945060203d6020116105865761057781836109d1565b925f61279d565b61276b9195506128e8849160203d6020116105865761057781836109d1565b959150612753565b612909915060203d6020116115de576115d081836109d1565b5f612712565b60405163d283e75f60e01b81526001600160a01b0392831660048201529160209183916024918391165afa90811561058d575f916124ed575090565b60026001541461295c576002600155565b633ee5aeb560e01b5f5260045ffd5b6040516323b872dd60e01b60208201526001600160a01b039283166024820152929091166044830152606480830193909352918152610169916113fd6084836109d1565b919091612a16604051926129e7846129d9602082019363095ea7b360e01b855288602484016113ad565b03601f1981018652856109d1565b83516001600160a01b038416915f91829182855af190612a05612a99565b82612a67575b5081612a6057501590565b612a1f57505050565b60405163095ea7b360e01b60208201526001600160a01b0390931660248401525f6044840152610169926113fd90612a5a8160648101610719565b82611e3a565b3b15919050565b80519192508115918215612a7f575b5050905f612a0b565b612a929250602080918301019101610f84565b5f80612a76565b3d15612ac3573d90612aaa82610cda565b91612ab860405193846109d1565b82523d5f602084013e565b606090565b90612aec5750805115612add57805190602001fd5b630a12f52160e11b5f5260045ffd5b81511580612b1d575b612afd575090565b639996b31560e01b5f9081526001600160a01b0391909116600452602490fd5b50803b15612af556fe8be0079c531659141344cd1fd0a4f28419497f9722a3daafe3b4186f6b6457e0a2646970667358221220f1f5a4ee2d9c02f7fcdf45f4d7356106fcace8b8be7c76db40b6dc77073e6e5c64736f6c634300081e0033",
  "devdoc": {
    "details": "Euler V2 uses vault-based architecture with EVC (Ethereum Vault Connector) Context encoding for LendingInstruction:   - bytes context = abi.encode(address borrowVault, address collateralVault, uint8 subAccountIndex)   - borrowVault: The vault to borrow from (becomes controller)   - collateralVault: The vault where collateral is deposited   - subAccountIndex: Sub-account index (0-255) Sub-Account Model:   - Each user has 256 possible sub-accounts (index 0-255)   - Sub-account address = (userAddress & 0xFF...FF00) | subAccountIndex   - Each sub-account can have at most 1 controller (debt) + N collaterals   - User's \"main\" account has index = last byte of their wallet address     (e.g., wallet 0x...a3  main account is index 163) EVC Authorization Model:   - Users must enable collateral vaults via EVC before they can back debt   - Users must enable controller (borrow vault) before borrowing   - Gateway uses operator authorization to act on behalf of users/sub-accounts",
    "errors": {
      "AddressEmptyCode(address)": [
        {
          "details": "There's no code at `target` (it is not a contract)."
        }
      ],
      "AddressInsufficientBalance(address)": [
        {
          "details": "The ETH balance of the account is not enough to perform the operation."
        }
      ],
      "FailedInnerCall()": [
        {
          "details": "A call to an address target failed. The target may have reverted."
        }
      ],
      "OwnableInvalidOwner(address)": [
        {
          "details": "The owner is not a valid owner account. (eg. `address(0)`)"
        }
      ],
      "OwnableUnauthorizedAccount(address)": [
        {
          "details": "The caller account is not authorized to perform an operation."
        }
      ],
      "ReentrancyGuardReentrantCall()": [
        {
          "details": "Unauthorized reentrant call."
        }
      ],
      "SafeERC20FailedOperation(address)": [
        {
          "details": "An operation with an ERC20 token failed."
        }
      ]
    },
    "kind": "dev",
    "methods": {
      "owner()": {
        "details": "Returns the address of the current owner."
      },
      "renounceOwnership()": {
        "details": "Leaves the contract without owner. It will not be possible to call `onlyOwner` functions. Can only be called by the current owner. NOTE: Renouncing ownership will leave the contract without an owner, thereby disabling any functionality that is only available to the owner."
      },
      "transferOwnership(address)": {
        "details": "Transfers ownership of the contract to a new account (`newOwner`). Can only be called by the current owner."
      }
    },
    "title": "EulerGatewayWrite",
    "version": 1
  },
  "userdoc": {
    "kind": "user",
    "methods": {
      "ROUTER()": {
        "notice": "Immutable router address that can call protected functions"
      },
      "authorize((uint8,address,address,uint256,bytes,(uint256))[],address,(address,uint256)[])": {
        "notice": "Return user-side authorization calls for the given lending instructions.         One element per input (or (address(0), bytes(\"\")) if none needed).         Also returns the produced outputs from the simulation of these instructions."
      },
      "evc()": {
        "notice": "The Ethereum Vault Connector (EVC) singleton"
      },
      "recoverTokens(address,address,uint256)": {
        "notice": "Recover stuck tokens (owner only)"
      }
    },
    "notice": "Gateway for Euler V2 lending protocol",
    "version": 1
  },
  "storageLayout": {
    "storage": [
      {
        "astId": 1578,
        "contract": "contracts/v2/gateways/euler/EulerGatewayWrite.sol:EulerGatewayWrite",
        "label": "_owner",
        "offset": 0,
        "slot": "0",
        "type": "t_address"
      },
      {
        "astId": 3093,
        "contract": "contracts/v2/gateways/euler/EulerGatewayWrite.sol:EulerGatewayWrite",
        "label": "_status",
        "offset": 0,
        "slot": "1",
        "type": "t_uint256"
      }
    ],
    "types": {
      "t_address": {
        "encoding": "inplace",
        "label": "address",
        "numberOfBytes": "20"
      },
      "t_uint256": {
        "encoding": "inplace",
        "label": "uint256",
        "numberOfBytes": "32"
      }
    }
  }
}