{
  "address": "0x49068bC83AB413d4399f0D0a9331Db42C8062416",
  "abi": [
    {
      "inputs": [
        {
          "internalType": "address",
          "name": "_comptroller",
          "type": "address"
        },
        {
          "internalType": "address",
          "name": "_oracle",
          "type": "address"
        },
        {
          "internalType": "address",
          "name": "owner_",
          "type": "address"
        }
      ],
      "stateMutability": "nonpayable",
      "type": "constructor"
    },
    {
      "inputs": [
        {
          "internalType": "address",
          "name": "owner",
          "type": "address"
        }
      ],
      "name": "OwnableInvalidOwner",
      "type": "error"
    },
    {
      "inputs": [
        {
          "internalType": "address",
          "name": "account",
          "type": "address"
        }
      ],
      "name": "OwnableUnauthorizedAccount",
      "type": "error"
    },
    {
      "anonymous": false,
      "inputs": [
        {
          "indexed": true,
          "internalType": "address",
          "name": "previousOwner",
          "type": "address"
        },
        {
          "indexed": true,
          "internalType": "address",
          "name": "newOwner",
          "type": "address"
        }
      ],
      "name": "OwnershipTransferred",
      "type": "event"
    },
    {
      "inputs": [
        {
          "internalType": "address",
          "name": "account",
          "type": "address"
        },
        {
          "internalType": "address",
          "name": "vToken",
          "type": "address"
        }
      ],
      "name": "checkMembership",
      "outputs": [
        {
          "internalType": "bool",
          "name": "",
          "type": "bool"
        }
      ],
      "stateMutability": "view",
      "type": "function"
    },
    {
      "inputs": [],
      "name": "comptroller",
      "outputs": [
        {
          "internalType": "contract ComptrollerInterface",
          "name": "",
          "type": "address"
        }
      ],
      "stateMutability": "view",
      "type": "function"
    },
    {
      "inputs": [
        {
          "internalType": "address",
          "name": "account",
          "type": "address"
        }
      ],
      "name": "getAccountLiquidity",
      "outputs": [
        {
          "internalType": "uint256",
          "name": "",
          "type": "uint256"
        },
        {
          "internalType": "uint256",
          "name": "",
          "type": "uint256"
        },
        {
          "internalType": "uint256",
          "name": "",
          "type": "uint256"
        }
      ],
      "stateMutability": "view",
      "type": "function"
    },
    {
      "inputs": [],
      "name": "getAllMarkets",
      "outputs": [
        {
          "internalType": "address[]",
          "name": "",
          "type": "address[]"
        }
      ],
      "stateMutability": "view",
      "type": "function"
    },
    {
      "inputs": [],
      "name": "getAllVenusMarkets",
      "outputs": [
        {
          "internalType": "address[]",
          "name": "vTokens",
          "type": "address[]"
        },
        {
          "internalType": "address[]",
          "name": "tokens",
          "type": "address[]"
        },
        {
          "internalType": "string[]",
          "name": "symbols",
          "type": "string[]"
        },
        {
          "internalType": "string[]",
          "name": "names",
          "type": "string[]"
        },
        {
          "internalType": "uint8[]",
          "name": "decimals",
          "type": "uint8[]"
        },
        {
          "internalType": "uint256[]",
          "name": "prices",
          "type": "uint256[]"
        }
      ],
      "stateMutability": "view",
      "type": "function"
    },
    {
      "inputs": [
        {
          "internalType": "address",
          "name": "underlyingToken",
          "type": "address"
        }
      ],
      "name": "getAssetPrice",
      "outputs": [
        {
          "internalType": "uint256",
          "name": "price",
          "type": "uint256"
        }
      ],
      "stateMutability": "view",
      "type": "function"
    },
    {
      "inputs": [
        {
          "internalType": "address",
          "name": "underlyingToken",
          "type": "address"
        }
      ],
      "name": "getAssetPrice8",
      "outputs": [
        {
          "internalType": "uint256",
          "name": "price",
          "type": "uint256"
        }
      ],
      "stateMutability": "view",
      "type": "function"
    },
    {
      "inputs": [
        {
          "internalType": "address",
          "name": "account",
          "type": "address"
        }
      ],
      "name": "getAssetsIn",
      "outputs": [
        {
          "internalType": "address[]",
          "name": "",
          "type": "address[]"
        }
      ],
      "stateMutability": "view",
      "type": "function"
    },
    {
      "inputs": [
        {
          "internalType": "address",
          "name": "token",
          "type": "address"
        },
        {
          "internalType": "address",
          "name": "user",
          "type": "address"
        }
      ],
      "name": "getBalance",
      "outputs": [
        {
          "internalType": "uint256",
          "name": "",
          "type": "uint256"
        }
      ],
      "stateMutability": "view",
      "type": "function"
    },
    {
      "inputs": [
        {
          "internalType": "address",
          "name": "token",
          "type": "address"
        },
        {
          "internalType": "address",
          "name": "user",
          "type": "address"
        }
      ],
      "name": "getBorrowBalance",
      "outputs": [
        {
          "internalType": "uint256",
          "name": "",
          "type": "uint256"
        }
      ],
      "stateMutability": "view",
      "type": "function"
    },
    {
      "inputs": [
        {
          "internalType": "address",
          "name": "token",
          "type": "address"
        },
        {
          "internalType": "address",
          "name": "user",
          "type": "address"
        }
      ],
      "name": "getBorrowBalanceCurrent",
      "outputs": [
        {
          "internalType": "uint256",
          "name": "",
          "type": "uint256"
        }
      ],
      "stateMutability": "nonpayable",
      "type": "function"
    },
    {
      "inputs": [
        {
          "internalType": "address",
          "name": "token",
          "type": "address"
        }
      ],
      "name": "getBorrowRate",
      "outputs": [
        {
          "internalType": "uint256",
          "name": "",
          "type": "uint256"
        },
        {
          "internalType": "bool",
          "name": "",
          "type": "bool"
        }
      ],
      "stateMutability": "view",
      "type": "function"
    },
    {
      "inputs": [],
      "name": "getCollateralFactors",
      "outputs": [
        {
          "internalType": "address[]",
          "name": "assets",
          "type": "address[]"
        },
        {
          "internalType": "uint256[]",
          "name": "ltvBps",
          "type": "uint256[]"
        },
        {
          "internalType": "uint256[]",
          "name": "lltvBps",
          "type": "uint256[]"
        }
      ],
      "stateMutability": "view",
      "type": "function"
    },
    {
      "inputs": [
        {
          "internalType": "address[]",
          "name": "vTokens",
          "type": "address[]"
        },
        {
          "internalType": "address",
          "name": "account",
          "type": "address"
        }
      ],
      "name": "getCollateralStatus",
      "outputs": [
        {
          "internalType": "bool[]",
          "name": "isCollateral",
          "type": "bool[]"
        }
      ],
      "stateMutability": "view",
      "type": "function"
    },
    {
      "inputs": [
        {
          "internalType": "address",
          "name": "",
          "type": "address"
        },
        {
          "internalType": "address",
          "name": "user",
          "type": "address"
        }
      ],
      "name": "getCurrentLtvBps",
      "outputs": [
        {
          "internalType": "uint256",
          "name": "",
          "type": "uint256"
        }
      ],
      "stateMutability": "view",
      "type": "function"
    },
    {
      "inputs": [
        {
          "internalType": "address",
          "name": "",
          "type": "address"
        },
        {
          "internalType": "address",
          "name": "user",
          "type": "address"
        }
      ],
      "name": "getLiquidationLtvBps",
      "outputs": [
        {
          "internalType": "uint256",
          "name": "",
          "type": "uint256"
        }
      ],
      "stateMutability": "view",
      "type": "function"
    },
    {
      "inputs": [
        {
          "internalType": "address",
          "name": "",
          "type": "address"
        },
        {
          "internalType": "address",
          "name": "user",
          "type": "address"
        }
      ],
      "name": "getLtv",
      "outputs": [
        {
          "internalType": "uint256",
          "name": "result",
          "type": "uint256"
        }
      ],
      "stateMutability": "view",
      "type": "function"
    },
    {
      "inputs": [
        {
          "internalType": "address[]",
          "name": "vTokens",
          "type": "address[]"
        }
      ],
      "name": "getMarketRates",
      "outputs": [
        {
          "internalType": "uint256[]",
          "name": "prices",
          "type": "uint256[]"
        },
        {
          "internalType": "uint256[]",
          "name": "supplyRates",
          "type": "uint256[]"
        },
        {
          "internalType": "uint256[]",
          "name": "borrowRates",
          "type": "uint256[]"
        }
      ],
      "stateMutability": "view",
      "type": "function"
    },
    {
      "inputs": [
        {
          "internalType": "address",
          "name": "",
          "type": "address"
        },
        {
          "internalType": "address",
          "name": "user",
          "type": "address"
        }
      ],
      "name": "getMaxLtv",
      "outputs": [
        {
          "internalType": "uint256",
          "name": "result",
          "type": "uint256"
        }
      ],
      "stateMutability": "view",
      "type": "function"
    },
    {
      "inputs": [
        {
          "internalType": "address",
          "name": "token",
          "type": "address"
        },
        {
          "internalType": "address",
          "name": "user",
          "type": "address"
        }
      ],
      "name": "getPossibleCollaterals",
      "outputs": [
        {
          "internalType": "address[]",
          "name": "collateralAddresses",
          "type": "address[]"
        },
        {
          "internalType": "uint256[]",
          "name": "balances",
          "type": "uint256[]"
        },
        {
          "internalType": "string[]",
          "name": "symbols",
          "type": "string[]"
        },
        {
          "internalType": "uint8[]",
          "name": "decimals",
          "type": "uint8[]"
        }
      ],
      "stateMutability": "view",
      "type": "function"
    },
    {
      "inputs": [],
      "name": "getReserveConfigs",
      "outputs": [
        {
          "components": [
            {
              "internalType": "address",
              "name": "token",
              "type": "address"
            },
            {
              "internalType": "address",
              "name": "vToken",
              "type": "address"
            },
            {
              "internalType": "uint256",
              "name": "price",
              "type": "uint256"
            },
            {
              "internalType": "uint256",
              "name": "ltv",
              "type": "uint256"
            },
            {
              "internalType": "uint256",
              "name": "liquidationThreshold",
              "type": "uint256"
            },
            {
              "internalType": "uint8",
              "name": "decimals",
              "type": "uint8"
            },
            {
              "internalType": "bool",
              "name": "isListed",
              "type": "bool"
            }
          ],
          "internalType": "struct VenusGatewayView.ReserveConfigData[]",
          "name": "configs",
          "type": "tuple[]"
        }
      ],
      "stateMutability": "view",
      "type": "function"
    },
    {
      "inputs": [
        {
          "internalType": "address",
          "name": "token",
          "type": "address"
        }
      ],
      "name": "getSupplyRate",
      "outputs": [
        {
          "internalType": "uint256",
          "name": "",
          "type": "uint256"
        },
        {
          "internalType": "bool",
          "name": "",
          "type": "bool"
        }
      ],
      "stateMutability": "view",
      "type": "function"
    },
    {
      "inputs": [
        {
          "internalType": "address",
          "name": "market",
          "type": "address"
        }
      ],
      "name": "getSupportedCollaterals",
      "outputs": [
        {
          "internalType": "address[]",
          "name": "collateralAddresses",
          "type": "address[]"
        }
      ],
      "stateMutability": "view",
      "type": "function"
    },
    {
      "inputs": [
        {
          "internalType": "address",
          "name": "user",
          "type": "address"
        }
      ],
      "name": "getUserAccountData",
      "outputs": [
        {
          "internalType": "uint256",
          "name": "totalCollateralUsd",
          "type": "uint256"
        },
        {
          "internalType": "uint256",
          "name": "totalDebtUsd",
          "type": "uint256"
        }
      ],
      "stateMutability": "view",
      "type": "function"
    },
    {
      "inputs": [
        {
          "internalType": "address[]",
          "name": "vTokens",
          "type": "address[]"
        },
        {
          "internalType": "address",
          "name": "account",
          "type": "address"
        }
      ],
      "name": "getUserBalances",
      "outputs": [
        {
          "internalType": "uint256[]",
          "name": "balances",
          "type": "uint256[]"
        },
        {
          "internalType": "uint256[]",
          "name": "borrowBalances",
          "type": "uint256[]"
        }
      ],
      "stateMutability": "view",
      "type": "function"
    },
    {
      "inputs": [
        {
          "internalType": "address",
          "name": "underlyingToken",
          "type": "address"
        }
      ],
      "name": "getVTokenForUnderlying",
      "outputs": [
        {
          "internalType": "address",
          "name": "",
          "type": "address"
        }
      ],
      "stateMutability": "view",
      "type": "function"
    },
    {
      "inputs": [
        {
          "internalType": "address",
          "name": "market",
          "type": "address"
        },
        {
          "internalType": "address",
          "name": "collateral",
          "type": "address"
        }
      ],
      "name": "isCollateralSupported",
      "outputs": [
        {
          "internalType": "bool",
          "name": "isSupported",
          "type": "bool"
        }
      ],
      "stateMutability": "view",
      "type": "function"
    },
    {
      "inputs": [],
      "name": "oracle",
      "outputs": [
        {
          "internalType": "contract ResilientOracleInterface",
          "name": "",
          "type": "address"
        }
      ],
      "stateMutability": "view",
      "type": "function"
    },
    {
      "inputs": [],
      "name": "owner",
      "outputs": [
        {
          "internalType": "address",
          "name": "",
          "type": "address"
        }
      ],
      "stateMutability": "view",
      "type": "function"
    },
    {
      "inputs": [],
      "name": "renounceOwnership",
      "outputs": [],
      "stateMutability": "nonpayable",
      "type": "function"
    },
    {
      "inputs": [
        {
          "internalType": "address",
          "name": "_comptroller",
          "type": "address"
        }
      ],
      "name": "setComptroller",
      "outputs": [],
      "stateMutability": "nonpayable",
      "type": "function"
    },
    {
      "inputs": [
        {
          "internalType": "address",
          "name": "_oracle",
          "type": "address"
        }
      ],
      "name": "setOracle",
      "outputs": [],
      "stateMutability": "nonpayable",
      "type": "function"
    },
    {
      "inputs": [
        {
          "internalType": "address",
          "name": "newOwner",
          "type": "address"
        }
      ],
      "name": "transferOwnership",
      "outputs": [],
      "stateMutability": "nonpayable",
      "type": "function"
    }
  ],
  "transactionHash": "0x7e79a619573c00db118719c6bd6a9f4612f75141243bf49aa004be722d95abb6",
  "args": [
    "0xe22af1e6b78318e1Fe1053Edbd7209b8Fc62c4Fe",
    "0x86D04d6FE928D888076851122dc6739551818f7E",
    "0x0BE61223F99E57b8b8B7033a77B54Adc7f7cF027"
  ],
  "numDeployments": 3,
  "solcInputHash": "67d79cb0a91e79dbee2c6fad80621ad7",
  "bytecode": "0x60803461010757601f6137fd38819003918201601f19168301916001600160401b0383118484101761010b57808492606094604052833981010312610107576100478161011f565b906100546020820161011f565b906001600160a01b039061006a9060400161011f565b169182156100f4575f80546001600160a01b031981168517825560405194916001600160a01b03909116907f8be0079c531659141344cd1fd0a4f28419497f9722a3daafe3b4186f6b6457e09080a3600180546001600160a01b039283166001600160a01b031991821617909155600280549390921692169190911790556136c990816101348239f35b631e4fbdf760e01b5f525f60045260245ffd5b5f80fd5b634e487b7160e01b5f52604160045260245ffd5b51906001600160a01b03821682036101075756fe6080806040526004361015610012575f80fd5b5f3560e01c908163104e999d14611cca57508063118e31b714611c565780632b7be8e814611c265780633b9025c514611bfa5780635ec88c7914611b4c5780635fe3b56714611b2457806362fd6add1461103257806364612132146115a857806366e2d09b146115705780636b5441a914611515578063715018a6146114d157806378466113146113b75780637adbf973146113745780637dc0d1d01461134c57806381906b801461114c5780638bad38dd146111095780638da5cb5b146110e2578063929fe9a114611037578063951afe901461103257806398f7ad4114610c1f5780639d7ec6c2146109d95780639f918461146109b6578063abfceffc14610909578063b0772d0b1461084f578063b3596f071461082c578063bad19350146106b8578063bf92857c14610689578063d4fac45d1461056f578063d71275f6146104dc578063e94201c714610432578063f2fde38b146103c0578063f5125d3f1461038c5763f639ecd214610187575f80fd5b34610313576020366003190112610313576004356001600160401b038111610313576101b790369060040161204d565b6101c08161240a565b906101ca8161240a565b926101d48261240a565b60025490926001600160a01b03909116915f5b82811061022e5761020e8661022a8761021c8b604051958695606087526060870190611f48565b908582036020870152611f48565b908382036040850152611f48565b0390f35b6001600160a01b03610249610244838686612b87565b612b97565b1690604051630ae9d70b60e41b8152602081600481865afa90811561031f575f9161035b575b5061027a828a612485565b52604051631f1f3b4560e31b8152602081600481865afa90811561031f575f9161032a575b506102aa8288612485565b526040519163fc57d4df60e01b83526004830152602082602481885afa801561031f575f906102e9575b600192506102e28289612485565b52016101e7565b506020823d8211610317575b81610302602093836120ee565b8101031261031357600191516102d4565b5f80fd5b3d91506102f5565b6040513d5f823e3d90fd5b90506020813d8211610353575b81610344602093836120ee565b8101031261031357515f61029f565b3d9150610337565b90506020813d8211610384575b81610375602093836120ee565b8101031261031357515f61026f565b3d9150610368565b34610313576040366003190112610313576103a5611ee0565b5060206103b86103b3611ef6565b613074565b604051908152f35b34610313576020366003190112610313576103d9611ee0565b6103e1613394565b6001600160a01b0316801561041f575f80546001600160a01b03198116831782556001600160a01b0316905f5160206136745f395f51905f529080a3005b631e4fbdf760e01b5f525f60045260245ffd5b34610313576040366003190112610313575f602061044e611ee0565b6024610458611ef6565b916001600160a01b039061046b906124d2565b6040516305eff7ef60e21b81526001600160a01b039094166004850152929485938492165af1801561031f575f906104a9575b602090604051908152f35b506020813d6020116104d4575b816104c3602093836120ee565b81010312610313576020905161049e565b3d91506104b6565b3461031357602036600319011261031357600460206001600160a01b03610509610504611ee0565b6124d2565b1660405192838092631f1f3b4560e31b82525afa90811561031f575f9161053d575b50604080519182526001602083015290f35b90506020813d602011610567575b81610558602093836120ee565b8101031261031357518161052b565b3d915061054b565b3461031357604036600319011261031357610588611ee0565b610590611ef6565b906001600160a01b03906105a3906124d2565b6040516370a0823160e01b81526001600160a01b03909316600484015216602082602481845afa91821561031f575f92610654575b509060206004926040519384809263182df0f560e01b82525afa91821561031f575f9261061e575b6020670de0b6b3a764000061061585856126a9565b04604051908152f35b91506020823d60201161064c575b81610639602093836120ee565b8101031261031357905190610615610600565b3d915061062c565b91506020823d602011610681575b8161066f602093836120ee565b810103126103135790519060206105d8565b3d9150610662565b346103135760203660031901126103135760406106ac6106a7611ee0565b612dc4565b82519182526020820152f35b34610313576106c63661207d565b6001600160a01b03166106da811515612b2c565b6106e382612111565b926106f160405194856120ee565b8284526106fd83612111565b602085019390601f190136853760405192632aff3bff60e21b845260048401525f83602481305afa92831561031f575f93610808575b505f949394929192905b80821061078a578585604051918291602083019060208452518091526040830191905f5b81811061076f575050500390f35b82511515845285945060209384019390920191600101610761565b9461079e6102448388879597989698612b87565b6001600160a01b0316915f5b86518110156107f957836001600160a01b036107c6838a612485565b5116146107d5576001016107aa565b509295915093928060016107ea819389612485565b525b019094939492919261073d565b509295915093926001906107ec565b6108259193503d805f833e61081d81836120ee565b8101906124ad565b9185610733565b346103135760203660031901126103135760206103b861084a611ee0565b612d38565b34610313575f3660031901126103135760015460405163b0772d0b60e01b8152905f90829060049082906001600160a01b03165afa90811561031f575f916108e7575b5061089d815161240a565b905f5b81518110156108d1576001906001600160a01b036108be8285612485565b51166108ca8286612485565b52016108a0565b6040516020808252819061022a90820186611f0c565b61090391503d805f833e6108fb81836120ee565b81019061261f565b81610892565b3461031357602036600319011261031357610922611ee0565b600154604051632aff3bff60e21b81526001600160a01b039283166004820152915f9183916024918391165afa90811561031f575f9161099c575b50610968815161240a565b905f5b81518110156108d1576001906001600160a01b036109898285612485565b51166109958286612485565b520161096b565b6109b091503d805f833e6108fb81836120ee565b8161095d565b346103135760203660031901126103135760206103b86109d4611ee0565b612be8565b34610313575f3660031901126103135760015460405163b0772d0b60e01b8152906001600160a01b03165f82600481845afa91821561031f575f92610c03575b50815190610a268261240a565b91610a308161240a565b91610a3a8261240a565b945f5b838110610a645761020e8661022a8961021c89604051958695606087526060870190611f0c565b6001600160a01b03610a768284612485565b5116600460206001600160a01b03610a8e8587612485565b511660405192838092636f307dc360e01b82525afa5f9181610bc8575b50610bac57505f610abc8389612485565b525b60405190638e8f294b60e01b82526004820152606081602481875afa805f925f92610b76575b50610af4575b5050600101610a3d565b61271082028281046127101483151715610b5a57670de0b6b3a76400009004610b1d8489612485565b5280610b6e5750905b6127108202918083046127101490151715610b5a57670de0b6b3a764000060019204610b52828a612485565b529088610aea565b634e487b7160e01b5f52601160045260245ffd5b905090610b26565b909250610b9a915060603d8111610ba5575b610b9281836120ee565b810190612bb8565b92915091908a610ae4565b503d610b88565b610bb68389612485565b6001600160a01b039091169052610abe565b9091506020813d8211610bfb575b81610be3602093836120ee565b8101031261031357610bf490612128565b908a610aab565b3d9150610bd6565b610c189192503d805f833e6108fb81836120ee565b9082610a19565b34610313575f3660031901126103135760015460405163b0772d0b60e01b8152906001600160a01b03165f82600481845afa91821561031f575f92611016575b508151610c6b81612111565b90610c7960405192836120ee565b808252610c88601f1991612111565b015f5b818110610fd55750506002546001600160a01b0316915f5b8451811015610f3e576001600160a01b03610cbe8287612485565b511690600460206001600160a01b03610cd7848a612485565b511660405192838092636f307dc360e01b82525afa5f9181610f03575b50610efd57505f915b6012926001600160a01b03169081610e90575b5f9360405163fc57d4df60e01b81528260048201526020816024818c5afa5f9181610e5d575b50610e55575b505f915f5f91604051638e8f294b60e01b81528160048201526060816024818d5afa5f815f935f93610e2e575b50610dc7575b5050509060019760ff94939260405197610d88896120bf565b885260208801526040870152606086015260808501521660a0830152151560c0820152610db58286612485565b52610dc08185612485565b5001610ca3565b92935094935094509361271081028181046127101482151715610b5a57670de0b6b3a764000090049380610e265750925b6127108402938085046127101490151715610b5a579192670de0b6b3a7640000900491908760ff6001610d6f565b905092610df8565b91509250610e4a915060603d8111610ba557610b9281836120ee565b92919092915f610d69565b945089610d3c565b9091506020813d8211610e88575b81610e78602093836120ee565b810103126103135751908b610d36565b3d9150610e6b565b60405163313ce56760e01b8152602081600481865afa5f9181610ec2575b50610eba575b50610d10565b935088610eb4565b9091506020813d8211610ef5575b81610edd602093836120ee565b8101031261031357610eee90612274565b908a610eae565b3d9150610ed0565b91610cfd565b9091506020813d8211610f36575b81610f1e602093836120ee565b8101031261031357610f2f90612128565b9088610cf4565b3d9150610f11565b826040518091602082016020835281518091526020604084019201905f5b818110610f6a575050500390f35b91935091602060e060019260c08751858060a01b038151168352858060a01b0385820151168584015260408101516040840152606081015160608401526080810151608084015260ff60a08201511660a08401520151151560c0820152019401910191849392610f5c565b602090604051610fe4816120bf565b5f81525f838201525f60408201525f60608201525f60808201525f60a08201525f60c082015282828601015201610c8b565b61102b9192503d805f833e6108fb81836120ee565b9082610c5f565b612021565b3461031357604036600319011261031357611050611ee0565b602061105a611ef6565b60015460405163929fe9a160e01b81526001600160a01b0394851660048201529184166024830152909283916044918391165afa801561031f575f906110a8575b6020906040519015158152f35b506020813d6020116110da575b816110c2602093836120ee565b81010312610313576110d5602091612bab565b61109b565b3d91506110b5565b34610313575f366003190112610313575f546040516001600160a01b039091168152602090f35b3461031357602036600319011261031357611122611ee0565b61112a613394565b600180546001600160a01b0319166001600160a01b0392909216919091179055005b346103135761115a3661207d565b9091906001600160a01b0316611171811515612b2c565b61117a8361240a565b916111848461240a565b915f5b8581106111b8576111aa8561022a86604051938493604085526040850190611f48565b908382036020850152611f48565b6001600160a01b036111ce610244838987612b87565b16906040516370a0823160e01b8152836004820152602081602481865afa5f9181611319575b5061128d575060206024925f61120a848a612485565b525b604051938480926395dd919360e01b82528760048301525afa805f91611259575b6001935061124957505f6112418287612485565b525b01611187565b6112538287612485565b52611243565b90506020833d8211611285575b81611273602093836120ee565b8101031261031357600192519061122d565b3d9150611266565b60405163182df0f560e01b815290602082600481875afa91821561031f575f926112dc575b5092670de0b6b3a76400006112cb6020936024966126a9565b046112d6848a612485565b5261120c565b9150926020823d8211611311575b816112f7602093836120ee565b810103126103135790519092670de0b6b3a76400006112b2565b3d91506112ea565b9091506020813d8211611344575b81611334602093836120ee565b81010312610313575190896111f4565b3d9150611327565b34610313575f366003190112610313576002546040516001600160a01b039091168152602090f35b346103135760203660031901126103135761138d611ee0565b611395613394565b600280546001600160a01b0319166001600160a01b0392909216919091179055005b34610313576040366003190112610313576113d0611ee0565b6113d8611ef6565b604051633230909960e11b81525f81600481305afa90811561031f575f916114a9575b506001600160a01b03928316925f928392911690825b815181101561149d57856001600160a01b0361142d8385612485565b511614611494575b826001600160a01b036114488385612485565b51161461148b575b8480611484575b61146357600101611411565b505050602092505b8161147c575b506040519015158152f35b905082611471565b5083611457565b60019350611450565b60019450611435565b5050506020925061146b565b6114c591503d805f833e6114bd81836120ee565b8101906122df565b505050509050836113fb565b34610313575f366003190112610313576114e9613394565b5f80546001600160a01b0319811682556001600160a01b03165f5160206136745f395f51905f528280a3005b3461031357602036600319011261031357600460206001600160a01b0361153d610504611ee0565b1660405192838092630ae9d70b60e41b82525afa90811561031f575f9161053d5750604080519182526001602083015290f35b346103135760203660031901126103135761022a61159461158f611ee0565b6129f4565b604051918291602083526020830190611f0c565b34610313575f3660031901126103135760405163b0772d0b60e01b81525f81600481305afa90811561031f575f91611b0a575b508051906115e88261240a565b916115f28161243c565b926115fc8261243c565b936116068361240a565b916116108461240a565b60025490946001600160a01b03909116905f5b81811061169c576116568861022a8961168e8a6116808f6116728d6116648e6040519b8c9b60c08d5260c08d0190611f0c565b908b820360208d0152611f0c565b9089820360408b0152611f7b565b908782036060890152611f7b565b908582036080870152611feb565b9083820360a0850152611f48565b6001600160a01b036116ae828a612485565b511690604051636f307dc360e01b8152602081600481865afa5f9181611acf575b5061187057505f6116e08287612485565b526040516395d89b4160e01b81525f81600481865afa90811561031f575f91611856575b5061170f8288612485565b5261171a8187612485565b506040516306fdde0360e01b81525f81600481865afa90811561031f575f91611834575b50611749828c612485565b52611754818b612485565b5060405163313ce56760e01b8152602081600481865afa90811561031f575f916117fb575b5060ff611786838a612485565b911690525b6040519163fc57d4df60e01b83526004830152602082602481875afa801561031f575f906117c9575b600192506117c2828a612485565b5201611623565b506020823d82116117f3575b816117e2602093836120ee565b8101031261031357600191516117b4565b3d91506117d5565b90506020813d821161182c575b81611815602093836120ee565b810103126103135761182690612274565b8b611779565b3d9150611808565b61185091503d805f833e61184881836120ee565b8101906129cf565b8b61173e565b61186a91503d805f833e61184881836120ee565b8b611704565b61187a8287612485565b6001600160a01b03909116908190526040516395d89b4160e01b81525f81600481855afa5f9181611ab3575b50611a9857506040516395d89b4160e01b81525f81600481875afa90811561031f575f91611a7e575b506118da8389612485565b526118e58288612485565b505b818b6040516306fdde0360e01b81525f81600481875afa5f9181611a62575b50611a475750506040516306fdde0360e01b81529190505f82600481875afa90811561031f5761194f848e6020946004965f91611a2d575b506119498383612485565b52612485565b505b60405163313ce56760e01b815292839182905afa5f91816119f2575b506119e6575060405163313ce56760e01b8152602081600481865afa90811561031f575f916119ad575b5060ff6119a4838a612485565b9116905261178b565b90506020813d82116119de575b816119c7602093836120ee565b81010312610313576119d890612274565b8b611997565b3d91506119ba565b60ff6119a4838a612485565b9091506020813d8211611a25575b81611a0d602093836120ee565b8101031261031357611a1e90612274565b908c61196d565b3d9150611a00565b611a4191503d805f833e61184881836120ee565b5f61193e565b8282611a5c9261194960209660049896612485565b50611951565b611a779192503d805f833e61184881836120ee565b908f611906565b611a9291503d805f833e61184881836120ee565b8c6118cf565b611aa28389612485565b52611aad8288612485565b506118e7565b611ac89192503d805f833e61184881836120ee565b908d6118a6565b9091506020813d8211611b02575b81611aea602093836120ee565b8101031261031357611afb90612128565b908c6116cf565b3d9150611add565b611b1e91503d805f833e61081d81836120ee565b816115db565b34610313575f366003190112610313576001546040516001600160a01b039091168152602090f35b3461031357602036600319011261031357611b65611ee0565b600154604051635ec88c7960e01b81526001600160a01b0392831660048201529160609183916024918391165afa801561031f575f905f5f91611bb9575b6060935060405192835260208301526040820152f35b5050506060813d606011611bf2575b81611bd5606093836120ee565b810103126103135780516020820151604090920151606092611ba3565b3d9150611bc8565b3461031357604036600319011261031357611c13611ee0565b5060206103b8611c21611ef6565b6126e7565b34610313576020366003190112610313576020611c44610504611ee0565b6040516001600160a01b039091168152f35b3461031357604036600319011261031357611c6f611ee0565b6020611c79611ef6565b916001600160a01b0390611c8c906124d2565b6040516395dd919360e01b81526001600160a01b03909416600485015283916024918391165afa801561031f575f906104a957602090604051908152f35b3461031357604036600319011261031357611ce3611ee0565b50611cec611ef6565b633230909960e11b8252905f81600481305afa801561031f575f905f925f905f92611ebb575b50611d1d845161240a565b90611d28855161243c565b91611d33865161240a565b94611d3e875161240a565b976001600160a01b03169081611e0c575b50505f5b8651811015611dbe576001906001600160a01b03611d71828a612485565b5116611d7d8285612485565b52611d888185612485565b51611d938287612485565b52611d9e8186612485565b5060ff611dab8288612485565b5116611db78289612485565b5201611d53565b611de28261022a88611dfe88611df08e604051978897608089526080890190611f0c565b908782036020890152611f48565b908582036040870152611f7b565b908382036060850152611feb565b5f91929850611e3890604051938492839263010320d760e71b8452604060048501526044840190611f0c565b9060248301520381305afa90811561031f575f91611e5a575b50958780611d4f565b90503d805f833e611e6b81836120ee565b8101906040818303126103135780516001600160401b0381116103135782611e94918301612282565b60208201519092906001600160401b03811161031357611eb49201612282565b5087611e51565b92505050611ed391503d805f833e6114bd81836120ee565b5091939050919285611d12565b600435906001600160a01b038216820361031357565b602435906001600160a01b038216820361031357565b90602080835192838152019201905f5b818110611f295750505090565b82516001600160a01b0316845260209384019390920191600101611f1c565b90602080835192838152019201905f5b818110611f655750505090565b8251845260209384019390920191600101611f58565b9080602083519182815201916020808360051b8301019401925f915b838310611fa657505050505090565b909192939460208080600193601f19868203018752818a518051918291828552018484015e5f828201840152601f01601f191601019701959491909101920190611f97565b90602080835192838152019201905f5b8181106120085750505090565b825160ff16845260209384019390920191600101611ffb565b346103135760403660031901126103135761203a611ee0565b5060206103b8612048611ef6565b6129b7565b9181601f84011215610313578235916001600160401b038311610313576020808501948460051b01011161031357565b604060031982011261031357600435906001600160401b038211610313576120a79160040161204d565b90916024356001600160a01b03811681036103135790565b60e081019081106001600160401b038211176120da57604052565b634e487b7160e01b5f52604160045260245ffd5b601f909101601f19168101906001600160401b038211908210176120da57604052565b6001600160401b0381116120da5760051b60200190565b51906001600160a01b038216820361031357565b9080601f8301121561031357815161215381612111565b9261216160405194856120ee565b81845260208085019260051b82010192831161031357602001905b8282106121895750505090565b6020809161219684612128565b81520191019061217c565b81601f82011215610313578051906001600160401b0382116120da57604051926121d5601f8401601f1916602001856120ee565b8284526020838301011161031357815f9260208093018386015e8301015290565b9080601f8301121561031357815161220d81612111565b9261221b60405194856120ee565b81845260208085019260051b820101918383116103135760208201905b83821061224757505050505090565b81516001600160401b03811161031357602091612269878480948801016121a1565b815201910190612238565b519060ff8216820361031357565b9080601f8301121561031357815161229981612111565b926122a760405194856120ee565b81845260208085019260051b82010192831161031357602001905b8282106122cf5750505090565b81518152602091820191016122c2565b9160c0838303126103135782516001600160401b038111610313578261230691850161213c565b60208401519093906001600160401b038111610313578361232891830161213c565b60408201519093906001600160401b038111610313578161234a9184016121f6565b60608301519093906001600160401b038111610313578261236c9185016121f6565b60808401519093906001600160401b03811161031357810183601f820112156103135780519061239b82612111565b916123a960405193846120ee565b80835260208084019160051b8301019186831161031357602001905b8282106123f25750505060a08201519093906001600160401b038111610313576123ef9201612282565b90565b602080916123ff84612274565b8152019101906123c5565b9061241482612111565b61242160405191826120ee565b8281528092612432601f1991612111565b0190602036910137565b9061244682612111565b61245360405191826120ee565b8281528092612464601f1991612111565b01905f5b82811061247457505050565b806060602080938501015201612468565b80518210156124995760209160051b010190565b634e487b7160e01b5f52603260045260245ffd5b906020828203126103135781516001600160401b038111610313576123ef920161213c565b60405163b0772d0b60e01b8152905f82600481305afa91821561031f575f92612603575b505f5b82518110156125a2576001600160a01b036125148285612485565b5116604051636f307dc360e01b8152602081600481855afa5f9181612567575b506125455750506001905b016124f9565b6001600160a01b03848116911614612560575060019061253f565b9250505090565b9091506020813d821161259a575b81612582602093836120ee565b810103126103135761259390612128565b905f612534565b3d9150612575565b60405162461bcd60e51b815260206004820152603360248201527f56656e7573476174657761793a2076546f6b656e206e6f7420666f756e64206660448201527237b9103ab73232b9363cb4b733903a37b5b2b760691b6064820152608490fd5b6126189192503d805f833e61081d81836120ee565b905f6124f6565b602081830312610313578051906001600160401b03821161031357019080601f830112156103135781519061265382612111565b9261266160405194856120ee565b82845260208085019360051b82010191821161031357602001915b8183106126895750505090565b82516001600160a01b03811681036103135781526020928301920161267c565b81810292918115918404141715610b5a57565b81156126c6570490565b634e487b7160e01b5f52601260045260245ffd5b91908201809211610b5a57565b6001600160a01b031680156129b257600154604051632aff3bff60e21b81526004810183905291905f90839060249082906001600160a01b03165afa91821561031f575f92612996575b50815115612990576002546001600160a01b031692915f908190815b8151811015612965576001600160a01b036127688284612485565b511660405163fc57d4df60e01b81528160048201526020816024818c5afa5f9181612932575b5061279f5750506001905b0161274d565b906040516370a0823160e01b8152876004820152602081602481855afa90811561031f575f91612901575b508061286a575b506020602491604051928380926395dd919360e01b82528b60048301525afa5f9181612837575b50612808575b5050600190612799565b80156127fe5794670de0b6b3a764000061282861282f93600195986126a9565b04906126da565b93905f6127fe565b9091506020813d8211612862575b81612852602093836120ee565b810103126103135751905f6127f8565b3d9150612845565b60405163182df0f560e01b8152919591906020826004818a5afa90811561031f5784925f926128c3575b5092670de0b6b3a7640000612828602094826128b56128bb966024996126a9565b046126a9565b9591506127d1565b925090506020823d82116128f9575b816128df602093836120ee565b810103126103135790518391670de0b6b3a7640000612894565b3d91506128d2565b90506020813d821161292a575b8161291b602093836120ee565b8101031261031357515f6127ca565b3d915061290e565b9091506020813d821161295d575b8161294d602093836120ee565b810103126103135751905f61278e565b3d9150612940565b505091509192508015612990576127108202918083046127101490151715610b5a576123ef916126bc565b50505f90565b6129ab9192503d805f833e6108fb81836120ee565b905f612731565b505f90565b6001600160a01b038116156129b2576123ef9061308c565b906020828203126103135781516001600160401b038111610313576123ef92016121a1565b604051633230909960e11b815290915f82600481305afa91821561031f575f92612b0a575b505f915f5b8151811015612b02576001600160a01b03612a398284612485565b51166001600160a01b03861614612a5257600101612a1e565b5090915060015b15612ae75780515f198101908111610b5a57612a749061240a565b905f935f5b8251811015612adf576001600160a01b03612a948285612485565b51166001600160a01b03831603612aae575b600101612a79565b946001600160a01b03612ac18785612485565b5116612acd8286612485565b525f198114610b5a5760010194612aa6565b509193505050565b509050604051612af86020826120ee565b5f81525f36813790565b509091612a59565b612b1f9192503d805f833e6114bd81836120ee565b505050509050905f612a19565b15612b3357565b60405162461bcd60e51b815260206004820152602660248201527f56656e7573476174657761793a207a65726f2061646472657373206e6f7420616044820152651b1b1bddd95960d21b6064820152608490fd5b91908110156124995760051b0190565b356001600160a01b03811681036103135790565b5190811515820361031357565b9081606091031261031357612bcc81612bab565b916040602083015192015190565b604d8111610b5a57600a0a90565b6001600160a01b03612bf9826124d2565b169081156129905760025460405163fc57d4df60e01b81526004810193909352602090839060249082906001600160a01b03165afa5f9281612d04575b50612c415750505f90565b60405163313ce56760e01b815290601290602090839060049082906001600160a01b03165afa805f91612cc8575b60ff9350612cc0575b5016601c811015612ca157601c0390601c8211610b5a57612c9b6123ef92612bda565b906126bc565b601b19810191908211610b5a57612cba6123ef92612bda565b906126a9565b90505f612c78565b90506020833d602011612cfc575b81612ce3602093836120ee565b8101031261031357612cf660ff93612274565b90612c6f565b3d9150612cd6565b9092506020813d602011612d30575b81612d20602093836120ee565b810103126103135751915f612c36565b3d9150612d13565b6001600160a01b0390612d4a906124d2565b1680156129b25760025460405163fc57d4df60e01b81526004810192909252602090829060249082906001600160a01b03165afa5f9181612d90575b506123ef57505f90565b9091506020813d602011612dbc575b81612dac602093836120ee565b810103126103135751905f612d86565b3d9150612d9f565b6001600160a01b0316801561306d57600154604051632aff3bff60e21b81526004810183905291905f90839060249082906001600160a01b03165afa91821561031f575f92613051575b50815115613049576002546001600160a01b031692915f908190815b8151811015613035576001600160a01b03612e458284612485565b511660405163fc57d4df60e01b81528160048201526020816024818c5afa5f9181613002575b50612e7c5750506001905b01612e2a565b906040516370a0823160e01b8152876004820152602081602481855afa90811561031f575f91612fd1575b5080612f40575b506020602491604051928380926395dd919360e01b82528b60048301525afa5f9181612f0d575b50612ee5575b5050600190612e76565b8015612edb5794670de0b6b3a7640000612828612f0593600195986126a9565b93905f612edb565b9091506020813d8211612f38575b81612f28602093836120ee565b810103126103135751905f612ed5565b3d9150612f1b565b60405163182df0f560e01b8152919591906020826004818a5afa90811561031f5784925f92612f93575b5092670de0b6b3a7640000612828602094826128b5612f8b966024996126a9565b959150612eae565b925090506020823d8211612fc9575b81612faf602093836120ee565b810103126103135790518391670de0b6b3a7640000612f6a565b3d9150612fa2565b90506020813d8211612ffa575b81612feb602093836120ee565b8101031261031357515f612ea7565b3d9150612fde565b9091506020813d821161302d575b8161301d602093836120ee565b810103126103135751905f612e6b565b3d9150613010565b50506402540be40092508291945004920490565b50505f905f90565b6130669192503d805f833e6108fb81836120ee565b905f612e0e565b505f905f90565b6001600160a01b038116156129b2576123ef906133ba565b6001546001600160a01b0316803b1561299057604051632aff3bff60e21b81526001600160a01b0390921660048301819052915f81602481855afa5f9181613378575b506130db575050505f90565b9283511561337057915f915f915f9060018060a01b0360025416915b8751811015613345576001600160a01b03613112828a612485565b5116602460206001600160a01b0361312a858d612485565b5116604051928380926370a0823160e01b82528860048301525afa5f9181613312575b5061315e5750506001905b016130f7565b801561330857600460206001600160a01b0361317a868e612485565b51166040519283809263182df0f560e01b82525afa5f91816132d5575b506131a757505050600190613158565b670de0b6b3a7640000916131bb91906126a9565b0460405163fc57d4df60e01b8152826004820152602081602481895afa5f91816132a2575b506131f057505050600190613158565b61320a61321292670de0b6b3a7640000929a949a906126a9565b0480926126da565b9660405190638e8f294b60e01b82526004820152606081602481895afa805f925f9261327c575b5061324957505050600190613158565b61282861326e936001959993670de0b6b3a76400009380155f146132745750906126a9565b94613158565b9050906126a9565b909250613297915060603d8111610ba557610b9281836120ee565b92915091905f613239565b9091506020813d82116132cd575b816132bd602093836120ee565b810103126103135751905f6131e0565b3d91506132b0565b9091506020813d8211613300575b816132f0602093836120ee565b810103126103135751905f613197565b3d91506132e3565b5050600190613158565b9091506020813d821161333d575b8161332d602093836120ee565b810103126103135751905f61314d565b3d9150613320565b505050509192508015612990576127108202918083046127101490151715610b5a576123ef916126bc565b925050505f90565b61338d9192503d805f833e6108fb81836120ee565b905f6130cf565b5f546001600160a01b031633036133a757565b63118cdaa760e01b5f523360045260245ffd5b6001546001600160a01b0316803b1561299057604051632aff3bff60e21b81526001600160a01b0390921660048301819052915f81602481855afa5f9181613657575b50613409575050505f90565b9283511561337057915f915f915f9060018060a01b0360025416915b8751811015613345576001600160a01b03613440828a612485565b5116602460206001600160a01b03613458858d612485565b5116604051928380926370a0823160e01b82528860048301525afa5f9181613624575b5061348c5750506001905b01613425565b801561361a57600460206001600160a01b036134a8868e612485565b51166040519283809263182df0f560e01b82525afa5f91816135e7575b506134d557505050600190613486565b670de0b6b3a7640000916134e991906126a9565b0460405163fc57d4df60e01b8152826004820152602081602481895afa5f91816135b4575b5061351e57505050600190613486565b61353561353d92670de0b6b3a764000092906126a9565b0480986126da565b9660405191638e8f294b60e01b83526004830152606082602481895afa5f9281613591575b50613571575050600190613486565b95670de0b6b3a764000061282861358b93600195996126a9565b94613486565b6135aa91935060603d8111610ba557610b9281836120ee565b509050915f613562565b9091506020813d82116135df575b816135cf602093836120ee565b810103126103135751905f61350e565b3d91506135c2565b9091506020813d8211613612575b81613602602093836120ee565b810103126103135751905f6134c5565b3d91506135f5565b5050600190613486565b9091506020813d821161364f575b8161363f602093836120ee565b810103126103135751905f61347b565b3d9150613632565b61366c9192503d805f833e6108fb81836120ee565b905f6133fd56fe8be0079c531659141344cd1fd0a4f28419497f9722a3daafe3b4186f6b6457e0a264697066735822122078d73887126bb1a5a6403abdf1432a07a1312045da75ac344c3848c1287a090f64736f6c634300081e0033",
  "devdoc": {
    "details": "Contains all read/view functions from v1, separate from write operations",
    "errors": {
      "OwnableInvalidOwner(address)": [
        {
          "details": "The owner is not a valid owner account. (eg. `address(0)`)"
        }
      ],
      "OwnableUnauthorizedAccount(address)": [
        {
          "details": "The caller account is not authorized to perform an operation."
        }
      ]
    },
    "kind": "dev",
    "methods": {
      "getAssetPrice(address)": {
        "details": "Venus oracle returns price as: price_usd * 10^(36 - tokenDecimals)      For WETH (18 dec): price * 1e18. For USDC (6 dec): price * 1e30.",
        "params": {
          "underlyingToken": "The underlying asset address"
        },
        "returns": {
          "price": "Price in Venus oracle format (36 - tokenDecimals decimals)"
        }
      },
      "getAssetPrice8(address)": {
        "details": "Venus oracle returns price as price_usd * 10^(36 - tokenDecimals).      To normalize to 8 decimals: divide by 10^(28 - tokenDecimals).",
        "params": {
          "underlyingToken": "The underlying asset address"
        },
        "returns": {
          "price": "Price in 8 decimals (for consistency with other protocols)"
        }
      },
      "getCollateralFactors()": {
        "returns": {
          "assets": "Array of underlying token addresses",
          "lltvBps": "Array of liquidation threshold values in basis points",
          "ltvBps": "Array of LTV values in basis points"
        }
      },
      "getCurrentLtvBps(address,address)": {
        "details": "This is the actual current LTV = totalDebt / totalCollateral * 10000",
        "params": {
          "user": "The user address"
        },
        "returns": {
          "_0": "Current LTV in basis points (e.g., 6500 = 65%)"
        }
      },
      "getLiquidationLtvBps(address,address)": {
        "details": "Position is liquidatable when currentLTV >= liquidationLtvBps",
        "params": {
          "user": "The user address"
        },
        "returns": {
          "_0": "Weighted liquidation threshold in basis points"
        }
      },
      "getLtv(address,address)": {
        "details": "Uses collateralFactor which determines how much can be borrowed"
      },
      "getMaxLtv(address,address)": {
        "details": "Uses liquidationThreshold which is higher than LTV - the point at which liquidation occurs"
      },
      "getReserveConfigs()": {
        "details": "Returns price, LTV (collateral factor), liquidation threshold for each market",
        "returns": {
          "configs": "Array of reserve configuration data"
        }
      },
      "getUserAccountData(address)": {
        "details": "Returns collateral and debt values in 8-decimal USD",
        "params": {
          "user": "The user address"
        },
        "returns": {
          "totalCollateralUsd": "Total collateral value in 8-decimal USD",
          "totalDebtUsd": "Total debt value in 8-decimal USD"
        }
      },
      "owner()": {
        "details": "Returns the address of the current owner."
      },
      "renounceOwnership()": {
        "details": "Leaves the contract without owner. It will not be possible to call `onlyOwner` functions. Can only be called by the current owner. NOTE: Renouncing ownership will leave the contract without an owner, thereby disabling any functionality that is only available to the owner."
      },
      "transferOwnership(address)": {
        "details": "Transfers ownership of the contract to a new account (`newOwner`). Can only be called by the current owner."
      }
    },
    "title": "VenusGatewayView",
    "version": 1
  },
  "userdoc": {
    "kind": "user",
    "methods": {
      "getAssetPrice(address)": {
        "notice": "Get the price of an underlying asset in Venus oracle format"
      },
      "getAssetPrice8(address)": {
        "notice": "Get the price of an underlying asset normalized to 8 decimals"
      },
      "getCollateralFactors()": {
        "notice": "Get collateral factors for all markets (similar to Compound's getCollateralFactors)"
      },
      "getCurrentLtvBps(address,address)": {
        "notice": "Returns the current LTV (debt/collateral) in basis points"
      },
      "getLiquidationLtvBps(address,address)": {
        "notice": "Returns the liquidation LTV threshold in basis points"
      },
      "getLtv(address,address)": {
        "notice": "Returns the LTV (borrowing power) for a user in basis points"
      },
      "getMaxLtv(address,address)": {
        "notice": "Returns the LLTV (liquidation threshold) for a user in basis points"
      },
      "getReserveConfigs()": {
        "notice": "Get reserve configuration data for all Venus markets (for frontend LTV calculations)"
      },
      "getUserAccountData(address)": {
        "notice": "Get user account data for ADL trigger calculation"
      }
    },
    "notice": "View-only gateway for Venus protocol",
    "version": 1
  },
  "storageLayout": {
    "storage": [
      {
        "astId": 8,
        "contract": "contracts/v2/gateways/venus/VenusGatewayView.sol:VenusGatewayView",
        "label": "_owner",
        "offset": 0,
        "slot": "0",
        "type": "t_address"
      },
      {
        "astId": 804,
        "contract": "contracts/v2/gateways/venus/VenusGatewayView.sol:VenusGatewayView",
        "label": "comptroller",
        "offset": 0,
        "slot": "1",
        "type": "t_contract(ComptrollerInterface)471"
      },
      {
        "astId": 807,
        "contract": "contracts/v2/gateways/venus/VenusGatewayView.sol:VenusGatewayView",
        "label": "oracle",
        "offset": 0,
        "slot": "2",
        "type": "t_contract(ResilientOracleInterface)491"
      }
    ],
    "types": {
      "t_address": {
        "encoding": "inplace",
        "label": "address",
        "numberOfBytes": "20"
      },
      "t_contract(ComptrollerInterface)471": {
        "encoding": "inplace",
        "label": "contract ComptrollerInterface",
        "numberOfBytes": "20"
      },
      "t_contract(ResilientOracleInterface)491": {
        "encoding": "inplace",
        "label": "contract ResilientOracleInterface",
        "numberOfBytes": "20"
      }
    }
  }
}