{
  "address": "0xaB4dbD2271637Cff4F760826c39918f65f60F25a",
  "abi": [
    {
      "inputs": [
        {
          "internalType": "address",
          "name": "_gateway",
          "type": "address"
        },
        {
          "internalType": "address",
          "name": "_router",
          "type": "address"
        }
      ],
      "stateMutability": "nonpayable",
      "type": "constructor"
    },
    {
      "inputs": [
        {
          "internalType": "address",
          "name": "target",
          "type": "address"
        }
      ],
      "name": "AddressEmptyCode",
      "type": "error"
    },
    {
      "inputs": [
        {
          "internalType": "address",
          "name": "account",
          "type": "address"
        }
      ],
      "name": "AddressInsufficientBalance",
      "type": "error"
    },
    {
      "inputs": [],
      "name": "FailedInnerCall",
      "type": "error"
    },
    {
      "inputs": [
        {
          "internalType": "address",
          "name": "owner",
          "type": "address"
        }
      ],
      "name": "OwnableInvalidOwner",
      "type": "error"
    },
    {
      "inputs": [
        {
          "internalType": "address",
          "name": "account",
          "type": "address"
        }
      ],
      "name": "OwnableUnauthorizedAccount",
      "type": "error"
    },
    {
      "inputs": [
        {
          "internalType": "address",
          "name": "token",
          "type": "address"
        }
      ],
      "name": "SafeERC20FailedOperation",
      "type": "error"
    },
    {
      "anonymous": false,
      "inputs": [
        {
          "indexed": true,
          "internalType": "address",
          "name": "previousOwner",
          "type": "address"
        },
        {
          "indexed": true,
          "internalType": "address",
          "name": "newOwner",
          "type": "address"
        }
      ],
      "name": "OwnershipTransferred",
      "type": "event"
    },
    {
      "inputs": [],
      "name": "ONE_INCH_ROUTER",
      "outputs": [
        {
          "internalType": "address",
          "name": "",
          "type": "address"
        }
      ],
      "stateMutability": "view",
      "type": "function"
    },
    {
      "inputs": [
        {
          "internalType": "address",
          "name": "tokenIn",
          "type": "address"
        },
        {
          "internalType": "address",
          "name": "tokenOut",
          "type": "address"
        },
        {
          "internalType": "uint256",
          "name": "amountIn",
          "type": "uint256"
        },
        {
          "internalType": "uint256",
          "name": "minAmountOut",
          "type": "uint256"
        },
        {
          "internalType": "bytes",
          "name": "data",
          "type": "bytes"
        }
      ],
      "name": "executeSwap",
      "outputs": [
        {
          "internalType": "uint256",
          "name": "amountReceived",
          "type": "uint256"
        },
        {
          "internalType": "uint256",
          "name": "amountRefunded",
          "type": "uint256"
        }
      ],
      "stateMutability": "nonpayable",
      "type": "function"
    },
    {
      "inputs": [],
      "name": "kapanGateway",
      "outputs": [
        {
          "internalType": "address",
          "name": "",
          "type": "address"
        }
      ],
      "stateMutability": "view",
      "type": "function"
    },
    {
      "inputs": [],
      "name": "owner",
      "outputs": [
        {
          "internalType": "address",
          "name": "",
          "type": "address"
        }
      ],
      "stateMutability": "view",
      "type": "function"
    },
    {
      "inputs": [
        {
          "internalType": "address",
          "name": "token",
          "type": "address"
        },
        {
          "internalType": "address",
          "name": "to",
          "type": "address"
        },
        {
          "internalType": "uint256",
          "name": "amount",
          "type": "uint256"
        }
      ],
      "name": "recoverTokens",
      "outputs": [],
      "stateMutability": "nonpayable",
      "type": "function"
    },
    {
      "inputs": [],
      "name": "renounceOwnership",
      "outputs": [],
      "stateMutability": "nonpayable",
      "type": "function"
    },
    {
      "inputs": [
        {
          "internalType": "address",
          "name": "_gateway",
          "type": "address"
        }
      ],
      "name": "setGateway",
      "outputs": [],
      "stateMutability": "nonpayable",
      "type": "function"
    },
    {
      "inputs": [
        {
          "internalType": "address",
          "name": "newOwner",
          "type": "address"
        }
      ],
      "name": "transferOwnership",
      "outputs": [],
      "stateMutability": "nonpayable",
      "type": "function"
    }
  ],
  "transactionHash": "0xf3f39c968850c87e36906a8fa10ee482d0f97bcbf8853414999a555f658d57fe",
  "args": [
    "0x0eEF234D109902f383462e009243e638C44791ed",
    "0x111111125421ca6dc452d289314280a0f8842a65"
  ],
  "numDeployments": 3,
  "solcInputHash": "0fea5cc4d237037126c3fb60329d2945",
  "bytecode": "0x60a0346100f257601f610b5c38819003918201601f19168301916001600160401b038311848410176100f65780849260409485528339810103126100f257610052602061004b8361010a565b920161010a565b33156100df575f8054336001600160a01b0319821681178355604051949290916001600160a01b0316907f8be0079c531659141344cd1fd0a4f28419497f9722a3daafe3b4186f6b6457e09080a3600180546001600160a01b0319166001600160a01b0392909216919091179055608052610a3d908161011f823960805181818161031e01526103f70152f35b631e4fbdf760e01b5f525f60045260245ffd5b5f80fd5b634e487b7160e01b5f52604160045260245ffd5b51906001600160a01b03821682036100f25756fe60806040526004361015610011575f80fd5b5f3560e01c8063232174c0146100945780635f3e849f1461008f578063715018a61461008a5780638da5cb5b1461008557806390646b4a14610080578063dcb1374a1461007b578063dd3fd925146100765763f2fde38b14610071575f80fd5b61034d565b610309565b6102e1565b61029e565b610277565b610220565b610147565b346101175760a0366003190112610117576100ad61011b565b6100b5610131565b608435916064356044356001600160401b0385116101175736602386011215610117576004850135936001600160401b0385116101175736602486880101116101175760246101059601936103bf565b60408051928352602083019190915290f35b5f80fd5b600435906001600160a01b038216820361011757565b602435906001600160a01b038216820361011757565b346101175760603660031901126101175761016061011b565b610168610131565b90604435906101756108e0565b6040516370a0823160e01b81526001600160a01b0391909116929091602083806101a23060048301610264565b0381875afa92831561021b575f936101ea575b505f1981036101e45750815b8083116101dc575b50816101d157005b6101da926108ab565b005b91505f6101c9565b916101c1565b61020d91935060203d602011610214575b61020581836106a9565b8101906106d1565b915f6101b5565b503d6101fb565b6106e0565b34610117575f366003190112610117576102386108e0565b5f80546001600160a01b0319811682556001600160a01b03165f5160206109e85f395f51905f528280a3005b6001600160a01b03909116815260200190565b34610117575f366003190112610117575f546040516001600160a01b039091168152602090f35b34610117576020366003190112610117576102b761011b565b6102bf6108e0565b600180546001600160a01b0319166001600160a01b0392909216919091179055005b34610117575f366003190112610117576001546040516001600160a01b039091168152602090f35b34610117575f366003190112610117576040517f00000000000000000000000000000000000000000000000000000000000000006001600160a01b03168152602090f35b346101175760203660031901126101175761036661011b565b61036e6108e0565b6001600160a01b031680156103ac575f80546001600160a01b03198116831782556001600160a01b0316905f5160206109e85f395f51905f529080a3005b631e4fbdf760e01b5f525f60045260245ffd5b6001549496959394919392916001600160a01b0316330361065857604051636eb1769f60e11b81523060048201526001600160a01b037f00000000000000000000000000000000000000000000000000000000000000008181166024840152921694919290602081604481895afa90811561021b575f91610639575b501061062a575b6040516370a0823160e01b8152966001600160a01b039190911692906020888061046f3060048301610264565b0381875afa97881561021b575f986105ff575b50915f9291838093610499604051809481936106eb565b03925af16104a56106f8565b90156105ae57506040516370a0823160e01b815294602086806104cb3060048301610264565b0381855afa95861561021b575f9661058d575b506040516370a0823160e01b815295602087806104fe3060048301610264565b0381875afa96871561021b575f97610562575b506105289161051f91610736565b93841015610757565b8280610550575b5050838061053e575b50509190565b6105499133906108ab565b5f83610538565b61055b9133906108ab565b5f8261052f565b61051f919750916105846105289360203d6020116102145761020581836106a9565b97915091610511565b6105a791965060203d6020116102145761020581836106a9565b945f6104de565b8051156105bd57805190602001fd5b60405162461bcd60e51b815260206004820152601a6024820152791059185c1d195c8e880c5a5b98da0814ddd85c0811985a5b195960321b6044820152606490fd5b5f809492995061061f81949260203d6020116102145761020581836106a9565b999294505091610482565b61063482856107b7565b610442565b610652915060203d6020116102145761020581836106a9565b5f61043b565b60405162461bcd60e51b8152602060048201526015602482015274416461707465723a204f6e6c79204761746577617960581b6044820152606490fd5b634e487b7160e01b5f52604160045260245ffd5b601f909101601f19168101906001600160401b038211908210176106cc57604052565b610695565b90816020910312610117575190565b6040513d5f823e3d90fd5b908092918237015f815290565b3d15610731573d906001600160401b0382116106cc5760405191610726601f8201601f1916602001846106a9565b82523d5f602084013e565b606090565b9190820391821161074357565b634e487b7160e01b5f52601160045260245ffd5b1561075e57565b60405162461bcd60e51b8152602060048201526016602482015275416461707465723a204869676820536c69707061676560501b6044820152606490fd5b6001600160a01b039091168152602081019190915260400190565b6040519061081c6020830163095ea7b360e01b81526107ed846107df5f19886024840161079c565b03601f1981018652856106a9565b83516001600160a01b038416915f91829182855af19061080b6106f8565b82610879575b508161087257501590565b61082557505050565b60405163095ea7b360e01b60208201526001600160a01b039390931660248401525f60448085019190915283526108709261086b906108656064826106a9565b8261091e565b61091e565b565b3b15919050565b80519192508115918215610891575b5050905f610811565b6108a49250602080918301019101610906565b5f80610888565b61086b61087093926108d260405194859263a9059cbb60e01b60208501526024840161079c565b03601f1981018452836106a9565b5f546001600160a01b031633036108f357565b63118cdaa760e01b5f523360045260245ffd5b90816020910312610117575180151581036101175790565b5f806109469260018060a01b03169360208151910182865af161093f6106f8565b9083610989565b805190811515918261096e575b505061095c5750565b635274afe760e01b5f5260045260245ffd5b6109819250602080918301019101610906565b155f80610953565b906109ad575080511561099e57805190602001fd5b630a12f52160e11b5f5260045ffd5b815115806109de575b6109be575090565b639996b31560e01b5f9081526001600160a01b0391909116600452602490fd5b50803b156109b656fe8be0079c531659141344cd1fd0a4f28419497f9722a3daafe3b4186f6b6457e0a26469706673582212208e1d8a4a30e84bb6bb5f5cd93f972dd6c1a840b8648a9c48670b590d3af1e78b64736f6c634300081e0033",
  "devdoc": {
    "errors": {
      "AddressEmptyCode(address)": [
        {
          "details": "There's no code at `target` (it is not a contract)."
        }
      ],
      "AddressInsufficientBalance(address)": [
        {
          "details": "The ETH balance of the account is not enough to perform the operation."
        }
      ],
      "FailedInnerCall()": [
        {
          "details": "A call to an address target failed. The target may have reverted."
        }
      ],
      "OwnableInvalidOwner(address)": [
        {
          "details": "The owner is not a valid owner account. (eg. `address(0)`)"
        }
      ],
      "OwnableUnauthorizedAccount(address)": [
        {
          "details": "The caller account is not authorized to perform an operation."
        }
      ],
      "SafeERC20FailedOperation(address)": [
        {
          "details": "An operation with an ERC20 token failed."
        }
      ]
    },
    "kind": "dev",
    "methods": {
      "owner()": {
        "details": "Returns the address of the current owner."
      },
      "renounceOwnership()": {
        "details": "Leaves the contract without owner. It will not be possible to call `onlyOwner` functions. Can only be called by the current owner. NOTE: Renouncing ownership will leave the contract without an owner, thereby disabling any functionality that is only available to the owner."
      },
      "transferOwnership(address)": {
        "details": "Transfers ownership of the contract to a new account (`newOwner`). Can only be called by the current owner."
      }
    },
    "version": 1
  },
  "userdoc": {
    "kind": "user",
    "methods": {
      "recoverTokens(address,address,uint256)": {
        "notice": "Recover stuck tokens (owner only)"
      }
    },
    "version": 1
  },
  "storageLayout": {
    "storage": [
      {
        "astId": 1578,
        "contract": "contracts/v2/gateways/oneinch/OneInchAdapter.sol:OneInchAdapter",
        "label": "_owner",
        "offset": 0,
        "slot": "0",
        "type": "t_address"
      },
      {
        "astId": 37944,
        "contract": "contracts/v2/gateways/oneinch/OneInchAdapter.sol:OneInchAdapter",
        "label": "kapanGateway",
        "offset": 0,
        "slot": "1",
        "type": "t_address"
      }
    ],
    "types": {
      "t_address": {
        "encoding": "inplace",
        "label": "address",
        "numberOfBytes": "20"
      }
    }
  }
}