{
  "address": "0x1E84A10d575434792091F64620FD973d9Da13042",
  "abi": [
    {
      "inputs": [
        {
          "internalType": "address",
          "name": "_gateway",
          "type": "address"
        },
        {
          "internalType": "address",
          "name": "_router",
          "type": "address"
        }
      ],
      "stateMutability": "nonpayable",
      "type": "constructor"
    },
    {
      "inputs": [
        {
          "internalType": "address",
          "name": "target",
          "type": "address"
        }
      ],
      "name": "AddressEmptyCode",
      "type": "error"
    },
    {
      "inputs": [
        {
          "internalType": "address",
          "name": "account",
          "type": "address"
        }
      ],
      "name": "AddressInsufficientBalance",
      "type": "error"
    },
    {
      "inputs": [],
      "name": "FailedInnerCall",
      "type": "error"
    },
    {
      "inputs": [
        {
          "internalType": "address",
          "name": "owner",
          "type": "address"
        }
      ],
      "name": "OwnableInvalidOwner",
      "type": "error"
    },
    {
      "inputs": [
        {
          "internalType": "address",
          "name": "account",
          "type": "address"
        }
      ],
      "name": "OwnableUnauthorizedAccount",
      "type": "error"
    },
    {
      "inputs": [
        {
          "internalType": "address",
          "name": "token",
          "type": "address"
        }
      ],
      "name": "SafeERC20FailedOperation",
      "type": "error"
    },
    {
      "anonymous": false,
      "inputs": [
        {
          "indexed": true,
          "internalType": "address",
          "name": "previousOwner",
          "type": "address"
        },
        {
          "indexed": true,
          "internalType": "address",
          "name": "newOwner",
          "type": "address"
        }
      ],
      "name": "OwnershipTransferred",
      "type": "event"
    },
    {
      "inputs": [],
      "name": "PENDLE_ROUTER",
      "outputs": [
        {
          "internalType": "address",
          "name": "",
          "type": "address"
        }
      ],
      "stateMutability": "view",
      "type": "function"
    },
    {
      "inputs": [
        {
          "internalType": "address",
          "name": "tokenIn",
          "type": "address"
        },
        {
          "internalType": "address",
          "name": "tokenOut",
          "type": "address"
        },
        {
          "internalType": "uint256",
          "name": "amountIn",
          "type": "uint256"
        },
        {
          "internalType": "uint256",
          "name": "minAmountOut",
          "type": "uint256"
        },
        {
          "internalType": "bytes",
          "name": "data",
          "type": "bytes"
        }
      ],
      "name": "executeSwap",
      "outputs": [
        {
          "internalType": "uint256",
          "name": "amountReceived",
          "type": "uint256"
        },
        {
          "internalType": "uint256",
          "name": "amountRefunded",
          "type": "uint256"
        }
      ],
      "stateMutability": "nonpayable",
      "type": "function"
    },
    {
      "inputs": [],
      "name": "kapanGateway",
      "outputs": [
        {
          "internalType": "address",
          "name": "",
          "type": "address"
        }
      ],
      "stateMutability": "view",
      "type": "function"
    },
    {
      "inputs": [],
      "name": "owner",
      "outputs": [
        {
          "internalType": "address",
          "name": "",
          "type": "address"
        }
      ],
      "stateMutability": "view",
      "type": "function"
    },
    {
      "inputs": [
        {
          "internalType": "address",
          "name": "token",
          "type": "address"
        },
        {
          "internalType": "address",
          "name": "to",
          "type": "address"
        },
        {
          "internalType": "uint256",
          "name": "amount",
          "type": "uint256"
        }
      ],
      "name": "recoverTokens",
      "outputs": [],
      "stateMutability": "nonpayable",
      "type": "function"
    },
    {
      "inputs": [],
      "name": "renounceOwnership",
      "outputs": [],
      "stateMutability": "nonpayable",
      "type": "function"
    },
    {
      "inputs": [
        {
          "internalType": "address",
          "name": "_gateway",
          "type": "address"
        }
      ],
      "name": "setGateway",
      "outputs": [],
      "stateMutability": "nonpayable",
      "type": "function"
    },
    {
      "inputs": [
        {
          "internalType": "address",
          "name": "newOwner",
          "type": "address"
        }
      ],
      "name": "transferOwnership",
      "outputs": [],
      "stateMutability": "nonpayable",
      "type": "function"
    }
  ],
  "transactionHash": "0x3462cc710582340daea23100a4cc148443ae9a7565540e8a49293fc33cb00775",
  "args": [
    "0x0F90A90722Bb99f1d9a2E81FEFbD963FF85e0315",
    "0x888888888889758F76e7103c6CbF23ABbF58F946"
  ],
  "numDeployments": 1,
  "solcInputHash": "267cdce003ab789696b7dcea1a919979",
  "bytecode": "0x60a0346100f257601f610c1638819003918201601f19168301916001600160401b038311848410176100f65780849260409485528339810103126100f257610052602061004b8361010a565b920161010a565b33156100df575f8054336001600160a01b0319821681178355604051949290916001600160a01b0316907f8be0079c531659141344cd1fd0a4f28419497f9722a3daafe3b4186f6b6457e09080a3600180546001600160a01b0319166001600160a01b0392909216919091179055608052610af7908161011f823960805181818161016f01526104160152f35b631e4fbdf760e01b5f525f60045260245ffd5b5f80fd5b634e487b7160e01b5f52604160045260245ffd5b51906001600160a01b03821682036100f25756fe60806040526004361015610011575f80fd5b5f3560e01c8063232174c0146100945780633c97b00d1461008f5780635f3e849f1461008a578063715018a6146100855780638da5cb5b1461008057806390646b4a1461007b578063dcb1374a146100765763f2fde38b14610071575f80fd5b61034d565b610325565b6102e2565b6102bb565b610277565b61019e565b61015a565b346101175760a0366003190112610117576100ad61011b565b6100b5610131565b608435916064356044356001600160401b0385116101175736602386011215610117576004850135936001600160401b0385116101175736602486880101116101175760246101059601936103bf565b60408051928352602083019190915290f35b5f80fd5b600435906001600160a01b038216820361011757565b602435906001600160a01b038216820361011757565b6001600160a01b03909116815260200190565b34610117575f366003190112610117576040517f00000000000000000000000000000000000000000000000000000000000000006001600160a01b03168152602090f35b34610117576060366003190112610117576101b761011b565b6101bf610131565b90604435906101cc61099a565b6040516370a0823160e01b81526001600160a01b0391909116929091602083806101f93060048301610147565b0381875afa928315610272575f93610241575b505f19810361023b5750815b808311610233575b508161022857005b61023192610965565b005b91505f610220565b91610218565b61026491935060203d60201161026b575b61025c8183610763565b81019061078b565b915f61020c565b503d610252565b61079a565b34610117575f3660031901126101175761028f61099a565b5f80546001600160a01b0319811682556001600160a01b03165f516020610aa25f395f51905f528280a3005b34610117575f366003190112610117575f546040516001600160a01b039091168152602090f35b34610117576020366003190112610117576102fb61011b565b61030361099a565b600180546001600160a01b0319166001600160a01b0392909216919091179055005b34610117575f366003190112610117576001546040516001600160a01b039091168152602090f35b346101175760203660031901126101175761036661011b565b61036e61099a565b6001600160a01b031680156103ac575f80546001600160a01b03198116831782556001600160a01b0316905f516020610aa25f395f51905f529080a3005b631e4fbdf760e01b5f525f60045260245ffd5b6001549496959394919392916001600160a01b0316330361068d576001600160a01b0316928315158061067b575b6103f6906106ca565b61040182151561070c565b604051636eb1769f60e11b81523060048201527f00000000000000000000000000000000000000000000000000000000000000006001600160a01b03811660248301529290602081604481895afa908115610272575f9161065c575b501061064d575b6040516370a0823160e01b8152966001600160a01b03919091169290602088806104913060048301610147565b0381875afa978815610272575f98610622575b50915f92918380936104bb604051809481936107a5565b03925af16104c76107b2565b90156105d057506040516370a0823160e01b815294602086806104ed3060048301610147565b0381855afa958615610272575f966105af575b506040516370a0823160e01b815295602087806105203060048301610147565b0381875afa968715610272575f97610584575b5061054a91610541916107f0565b93841015610811565b8280610572575b50508380610560575b50509190565b61056b913390610965565b5f8361055a565b61057d913390610965565b5f82610551565b610541919750916105a661054a9360203d60201161026b5761025c8183610763565b97915091610533565b6105c991965060203d60201161026b5761025c8183610763565b945f610500565b8051156105df57805190602001fd5b60405162461bcd60e51b815260206004820152601b60248201527a1059185c1d195c8e8814195b991b194814ddd85c0811985a5b1959602a1b6044820152606490fd5b5f809492995061064281949260203d60201161026b5761025c8183610763565b9992945050916104a4565b6106578285610871565b610464565b610675915060203d60201161026b5761025c8183610763565b5f61045d565b506001600160a01b03811615156103ed565b60405162461bcd60e51b8152602060048201526015602482015274416461707465723a204f6e6c79204761746577617960581b6044820152606490fd5b156106d157565b60405162461bcd60e51b815260206004820152601360248201527220b230b83a32b91d103d32b937903a37b5b2b760691b6044820152606490fd5b1561071357565b60405162461bcd60e51b81526020600482015260146024820152731059185c1d195c8e881e995c9bc8185b5bdd5b9d60621b6044820152606490fd5b634e487b7160e01b5f52604160045260245ffd5b601f909101601f19168101906001600160401b0382119082101761078657604052565b61074f565b90816020910312610117575190565b6040513d5f823e3d90fd5b908092918237015f815290565b3d156107eb573d906001600160401b03821161078657604051916107e0601f8201601f191660200184610763565b82523d5f602084013e565b606090565b919082039182116107fd57565b634e487b7160e01b5f52601160045260245ffd5b1561081857565b60405162461bcd60e51b8152602060048201526016602482015275416461707465723a204869676820536c69707061676560501b6044820152606490fd5b6001600160a01b039091168152602081019190915260400190565b604051906108d66020830163095ea7b360e01b81526108a7846108995f198860248401610856565b03601f198101865285610763565b83516001600160a01b038416915f91829182855af1906108c56107b2565b82610933575b508161092c57501590565b6108df57505050565b60405163095ea7b360e01b60208201526001600160a01b039390931660248401525f604480850191909152835261092a926109259061091f606482610763565b826109d8565b6109d8565b565b3b15919050565b8051919250811591821561094b575b5050905f6108cb565b61095e92506020809183010191016109c0565b5f80610942565b61092561092a939261098c60405194859263a9059cbb60e01b602085015260248401610856565b03601f198101845283610763565b5f546001600160a01b031633036109ad57565b63118cdaa760e01b5f523360045260245ffd5b90816020910312610117575180151581036101175790565b5f80610a009260018060a01b03169360208151910182865af16109f96107b2565b9083610a43565b8051908115159182610a28575b5050610a165750565b635274afe760e01b5f5260045260245ffd5b610a3b92506020809183010191016109c0565b155f80610a0d565b90610a675750805115610a5857805190602001fd5b630a12f52160e11b5f5260045ffd5b81511580610a98575b610a78575090565b639996b31560e01b5f9081526001600160a01b0391909116600452602490fd5b50803b15610a7056fe8be0079c531659141344cd1fd0a4f28419497f9722a3daafe3b4186f6b6457e0a2646970667358221220c10a296227b442889067530b6ead26fc2ad3c2ffd844eea7d9cc2e484931f70564736f6c634300081e0033",
  "devdoc": {
    "errors": {
      "AddressEmptyCode(address)": [
        {
          "details": "There's no code at `target` (it is not a contract)."
        }
      ],
      "AddressInsufficientBalance(address)": [
        {
          "details": "The ETH balance of the account is not enough to perform the operation."
        }
      ],
      "FailedInnerCall()": [
        {
          "details": "A call to an address target failed. The target may have reverted."
        }
      ],
      "OwnableInvalidOwner(address)": [
        {
          "details": "The owner is not a valid owner account. (eg. `address(0)`)"
        }
      ],
      "OwnableUnauthorizedAccount(address)": [
        {
          "details": "The caller account is not authorized to perform an operation."
        }
      ],
      "SafeERC20FailedOperation(address)": [
        {
          "details": "An operation with an ERC20 token failed."
        }
      ]
    },
    "kind": "dev",
    "methods": {
      "owner()": {
        "details": "Returns the address of the current owner."
      },
      "renounceOwnership()": {
        "details": "Leaves the contract without owner. It will not be possible to call `onlyOwner` functions. Can only be called by the current owner. NOTE: Renouncing ownership will leave the contract without an owner, thereby disabling any functionality that is only available to the owner."
      },
      "transferOwnership(address)": {
        "details": "Transfers ownership of the contract to a new account (`newOwner`). Can only be called by the current owner."
      }
    },
    "version": 1
  },
  "userdoc": {
    "kind": "user",
    "methods": {
      "recoverTokens(address,address,uint256)": {
        "notice": "Recover stuck tokens (owner only)"
      }
    },
    "version": 1
  },
  "storageLayout": {
    "storage": [
      {
        "astId": 1578,
        "contract": "contracts/v2/gateways/pendle/PendleAdapter.sol:PendleAdapter",
        "label": "_owner",
        "offset": 0,
        "slot": "0",
        "type": "t_address"
      },
      {
        "astId": 27443,
        "contract": "contracts/v2/gateways/pendle/PendleAdapter.sol:PendleAdapter",
        "label": "kapanGateway",
        "offset": 0,
        "slot": "1",
        "type": "t_address"
      }
    ],
    "types": {
      "t_address": {
        "encoding": "inplace",
        "label": "address",
        "numberOfBytes": "20"
      }
    }
  }
}