{
  "address": "0xAeBdC3Bfe16D7Ec1ffCF37340eF88BE4987ed055",
  "abi": [
    {
      "inputs": [
        {
          "internalType": "address",
          "name": "_poolAddressesProvider",
          "type": "address"
        },
        {
          "internalType": "address",
          "name": "",
          "type": "address"
        }
      ],
      "stateMutability": "nonpayable",
      "type": "constructor"
    },
    {
      "inputs": [
        {
          "internalType": "address",
          "name": "user",
          "type": "address"
        }
      ],
      "name": "borrowedTokens",
      "outputs": [
        {
          "internalType": "address[]",
          "name": "",
          "type": "address[]"
        }
      ],
      "stateMutability": "view",
      "type": "function"
    },
    {
      "inputs": [
        {
          "internalType": "address",
          "name": "underlyingToken",
          "type": "address"
        }
      ],
      "name": "getAToken",
      "outputs": [
        {
          "internalType": "address",
          "name": "",
          "type": "address"
        }
      ],
      "stateMutability": "view",
      "type": "function"
    },
    {
      "inputs": [
        {
          "internalType": "address",
          "name": "user",
          "type": "address"
        }
      ],
      "name": "getAllTokensInfo",
      "outputs": [
        {
          "components": [
            {
              "internalType": "address",
              "name": "token",
              "type": "address"
            },
            {
              "internalType": "uint256",
              "name": "supplyRate",
              "type": "uint256"
            },
            {
              "internalType": "uint256",
              "name": "borrowRate",
              "type": "uint256"
            },
            {
              "internalType": "string",
              "name": "name",
              "type": "string"
            },
            {
              "internalType": "string",
              "name": "symbol",
              "type": "string"
            },
            {
              "internalType": "uint256",
              "name": "price",
              "type": "uint256"
            },
            {
              "internalType": "uint256",
              "name": "borrowBalance",
              "type": "uint256"
            },
            {
              "internalType": "uint256",
              "name": "balance",
              "type": "uint256"
            },
            {
              "internalType": "address",
              "name": "aToken",
              "type": "address"
            },
            {
              "internalType": "uint8",
              "name": "decimals",
              "type": "uint8"
            }
          ],
          "internalType": "struct AaveGatewayViewBase.TokenInfo[]",
          "name": "",
          "type": "tuple[]"
        }
      ],
      "stateMutability": "view",
      "type": "function"
    },
    {
      "inputs": [
        {
          "internalType": "address",
          "name": "user",
          "type": "address"
        }
      ],
      "name": "getAllTokensInfoWithEMode",
      "outputs": [
        {
          "components": [
            {
              "internalType": "address",
              "name": "token",
              "type": "address"
            },
            {
              "internalType": "uint256",
              "name": "supplyRate",
              "type": "uint256"
            },
            {
              "internalType": "uint256",
              "name": "borrowRate",
              "type": "uint256"
            },
            {
              "internalType": "string",
              "name": "name",
              "type": "string"
            },
            {
              "internalType": "string",
              "name": "symbol",
              "type": "string"
            },
            {
              "internalType": "uint256",
              "name": "price",
              "type": "uint256"
            },
            {
              "internalType": "uint256",
              "name": "borrowBalance",
              "type": "uint256"
            },
            {
              "internalType": "uint256",
              "name": "balance",
              "type": "uint256"
            },
            {
              "internalType": "address",
              "name": "aToken",
              "type": "address"
            },
            {
              "internalType": "uint8",
              "name": "decimals",
              "type": "uint8"
            }
          ],
          "internalType": "struct AaveGatewayViewBase.TokenInfo[]",
          "name": "tokens",
          "type": "tuple[]"
        },
        {
          "internalType": "uint8",
          "name": "userEModeCategory",
          "type": "uint8"
        }
      ],
      "stateMutability": "view",
      "type": "function"
    },
    {
      "inputs": [
        {
          "internalType": "address",
          "name": "token",
          "type": "address"
        },
        {
          "internalType": "address",
          "name": "user",
          "type": "address"
        }
      ],
      "name": "getBalance",
      "outputs": [
        {
          "internalType": "uint256",
          "name": "",
          "type": "uint256"
        }
      ],
      "stateMutability": "view",
      "type": "function"
    },
    {
      "inputs": [
        {
          "internalType": "address",
          "name": "token",
          "type": "address"
        },
        {
          "internalType": "address",
          "name": "user",
          "type": "address"
        }
      ],
      "name": "getBorrowBalance",
      "outputs": [
        {
          "internalType": "uint256",
          "name": "",
          "type": "uint256"
        }
      ],
      "stateMutability": "view",
      "type": "function"
    },
    {
      "inputs": [
        {
          "internalType": "address",
          "name": "token",
          "type": "address"
        },
        {
          "internalType": "address",
          "name": "user",
          "type": "address"
        }
      ],
      "name": "getBorrowBalanceCurrent",
      "outputs": [
        {
          "internalType": "uint256",
          "name": "",
          "type": "uint256"
        }
      ],
      "stateMutability": "nonpayable",
      "type": "function"
    },
    {
      "inputs": [
        {
          "internalType": "address",
          "name": "token",
          "type": "address"
        }
      ],
      "name": "getBorrowRate",
      "outputs": [
        {
          "internalType": "uint256",
          "name": "",
          "type": "uint256"
        },
        {
          "internalType": "bool",
          "name": "",
          "type": "bool"
        }
      ],
      "stateMutability": "view",
      "type": "function"
    },
    {
      "inputs": [],
      "name": "getEModes",
      "outputs": [
        {
          "components": [
            {
              "internalType": "uint8",
              "name": "id",
              "type": "uint8"
            },
            {
              "internalType": "uint16",
              "name": "ltv",
              "type": "uint16"
            },
            {
              "internalType": "uint16",
              "name": "liquidationThreshold",
              "type": "uint16"
            },
            {
              "internalType": "uint16",
              "name": "liquidationBonus",
              "type": "uint16"
            },
            {
              "internalType": "string",
              "name": "label",
              "type": "string"
            },
            {
              "internalType": "uint128",
              "name": "collateralBitmap",
              "type": "uint128"
            },
            {
              "internalType": "uint128",
              "name": "borrowableBitmap",
              "type": "uint128"
            }
          ],
          "internalType": "struct AaveGatewayViewBase.EModeInfo[]",
          "name": "emodes",
          "type": "tuple[]"
        }
      ],
      "stateMutability": "view",
      "type": "function"
    },
    {
      "inputs": [
        {
          "internalType": "address",
          "name": "",
          "type": "address"
        },
        {
          "internalType": "address",
          "name": "user",
          "type": "address"
        }
      ],
      "name": "getLtv",
      "outputs": [
        {
          "internalType": "uint256",
          "name": "",
          "type": "uint256"
        }
      ],
      "stateMutability": "view",
      "type": "function"
    },
    {
      "inputs": [
        {
          "internalType": "address",
          "name": "",
          "type": "address"
        },
        {
          "internalType": "address",
          "name": "user",
          "type": "address"
        }
      ],
      "name": "getMaxLtv",
      "outputs": [
        {
          "internalType": "uint256",
          "name": "",
          "type": "uint256"
        }
      ],
      "stateMutability": "view",
      "type": "function"
    },
    {
      "inputs": [
        {
          "internalType": "address",
          "name": "",
          "type": "address"
        },
        {
          "internalType": "address",
          "name": "user",
          "type": "address"
        }
      ],
      "name": "getPossibleCollaterals",
      "outputs": [
        {
          "internalType": "address[]",
          "name": "collateralAddresses",
          "type": "address[]"
        },
        {
          "internalType": "uint256[]",
          "name": "balances",
          "type": "uint256[]"
        },
        {
          "internalType": "string[]",
          "name": "symbols",
          "type": "string[]"
        },
        {
          "internalType": "uint8[]",
          "name": "decimals",
          "type": "uint8[]"
        }
      ],
      "stateMutability": "view",
      "type": "function"
    },
    {
      "inputs": [
        {
          "internalType": "address",
          "name": "token",
          "type": "address"
        }
      ],
      "name": "getReserveConfig",
      "outputs": [
        {
          "components": [
            {
              "internalType": "address",
              "name": "token",
              "type": "address"
            },
            {
              "internalType": "uint256",
              "name": "price",
              "type": "uint256"
            },
            {
              "internalType": "uint256",
              "name": "ltv",
              "type": "uint256"
            },
            {
              "internalType": "uint256",
              "name": "liquidationThreshold",
              "type": "uint256"
            },
            {
              "internalType": "uint256",
              "name": "liquidationBonus",
              "type": "uint256"
            },
            {
              "internalType": "uint8",
              "name": "decimals",
              "type": "uint8"
            },
            {
              "internalType": "bool",
              "name": "usageAsCollateralEnabled",
              "type": "bool"
            },
            {
              "internalType": "bool",
              "name": "borrowingEnabled",
              "type": "bool"
            }
          ],
          "internalType": "struct AaveGatewayViewBase.ReserveConfigData",
          "name": "config",
          "type": "tuple"
        }
      ],
      "stateMutability": "view",
      "type": "function"
    },
    {
      "inputs": [
        {
          "internalType": "address[]",
          "name": "tokens",
          "type": "address[]"
        }
      ],
      "name": "getReserveConfigs",
      "outputs": [
        {
          "components": [
            {
              "internalType": "address",
              "name": "token",
              "type": "address"
            },
            {
              "internalType": "uint256",
              "name": "price",
              "type": "uint256"
            },
            {
              "internalType": "uint256",
              "name": "ltv",
              "type": "uint256"
            },
            {
              "internalType": "uint256",
              "name": "liquidationThreshold",
              "type": "uint256"
            },
            {
              "internalType": "uint256",
              "name": "liquidationBonus",
              "type": "uint256"
            },
            {
              "internalType": "uint8",
              "name": "decimals",
              "type": "uint8"
            },
            {
              "internalType": "bool",
              "name": "usageAsCollateralEnabled",
              "type": "bool"
            },
            {
              "internalType": "bool",
              "name": "borrowingEnabled",
              "type": "bool"
            }
          ],
          "internalType": "struct AaveGatewayViewBase.ReserveConfigData[]",
          "name": "configs",
          "type": "tuple[]"
        }
      ],
      "stateMutability": "view",
      "type": "function"
    },
    {
      "inputs": [
        {
          "internalType": "address",
          "name": "token",
          "type": "address"
        }
      ],
      "name": "getSupplyRate",
      "outputs": [
        {
          "internalType": "uint256",
          "name": "",
          "type": "uint256"
        },
        {
          "internalType": "bool",
          "name": "",
          "type": "bool"
        }
      ],
      "stateMutability": "view",
      "type": "function"
    },
    {
      "inputs": [
        {
          "internalType": "address",
          "name": "",
          "type": "address"
        }
      ],
      "name": "getSupportedCollaterals",
      "outputs": [
        {
          "internalType": "address[]",
          "name": "collateralAddresses",
          "type": "address[]"
        }
      ],
      "stateMutability": "view",
      "type": "function"
    },
    {
      "inputs": [
        {
          "internalType": "address",
          "name": "aToken",
          "type": "address"
        }
      ],
      "name": "getUnderlyingToken",
      "outputs": [
        {
          "internalType": "address",
          "name": "",
          "type": "address"
        }
      ],
      "stateMutability": "view",
      "type": "function"
    },
    {
      "inputs": [
        {
          "internalType": "address",
          "name": "user",
          "type": "address"
        }
      ],
      "name": "getUserAccountData",
      "outputs": [
        {
          "internalType": "uint256",
          "name": "totalCollateralBase",
          "type": "uint256"
        },
        {
          "internalType": "uint256",
          "name": "totalDebtBase",
          "type": "uint256"
        },
        {
          "internalType": "uint256",
          "name": "availableBorrowsBase",
          "type": "uint256"
        },
        {
          "internalType": "uint256",
          "name": "currentLiquidationThreshold",
          "type": "uint256"
        },
        {
          "internalType": "uint256",
          "name": "ltv",
          "type": "uint256"
        },
        {
          "internalType": "uint256",
          "name": "healthFactor",
          "type": "uint256"
        }
      ],
      "stateMutability": "view",
      "type": "function"
    },
    {
      "inputs": [
        {
          "internalType": "address",
          "name": "user",
          "type": "address"
        }
      ],
      "name": "getUserEMode",
      "outputs": [
        {
          "internalType": "uint8",
          "name": "categoryId",
          "type": "uint8"
        }
      ],
      "stateMutability": "view",
      "type": "function"
    },
    {
      "inputs": [
        {
          "internalType": "address",
          "name": "",
          "type": "address"
        },
        {
          "internalType": "address",
          "name": "collateral",
          "type": "address"
        }
      ],
      "name": "isCollateralSupported",
      "outputs": [
        {
          "internalType": "bool",
          "name": "isSupported",
          "type": "bool"
        }
      ],
      "stateMutability": "view",
      "type": "function"
    },
    {
      "inputs": [],
      "name": "poolAddressesProvider",
      "outputs": [
        {
          "internalType": "contract IPoolAddressesProvider",
          "name": "",
          "type": "address"
        }
      ],
      "stateMutability": "view",
      "type": "function"
    }
  ],
  "transactionHash": "0xf0afa84786c640a60c9694057c6a0cfa618b335f579f2566ab3a33d43dae4e5d",
  "args": [
    "0x02C3eA4e34C0cBd694D2adFa2c690EECbC1793eE",
    "0xF028c2F4b19898718fD0F77b9b881CbfdAa5e8Bb"
  ],
  "numDeployments": 2,
  "solcInputHash": "1b49466c4c87eb8e5d5f803414d57b80",
  "bytecode": "0x60a0346100d957601f6133b638819003918201601f19168301916001600160401b038311848410176100dd5780849260409485528339810103126100d957610052602061004b836100f1565b92016100f1565b506001600160a01b03166080526040516132b09081610106823960805181818161013801528181610266015281816103b9015281816107d801528181610bb601528181610f7501528181610fdc01528181611128015281816114170152818161151e015281816121450152818161253901528181612e7f01528181612ff001526130ff0152f35b5f80fd5b634e487b7160e01b5f52604160045260245ffd5b51906001600160a01b03821682036100d95756fe60c06040526004361015610011575f80fd5b5f3560e01c8063104e999d14611e64578063118e31b7146103565780633e69c6af14611c12578063401d45d0146114f657806362fd6add146113df57806366e2d09b146110ff578063691bcc88146110d95780636b5441a9146110de578063732a52ee146110d95780637846611314610fa457806380e17d8714610f60578063a92c3f7e14610e7d578063bd05bdb414610cba578063bf92857c14610b87578063ceac55df146107b0578063d4fac45d1461077c578063d71275f614610743578063d7728c1c1461035b578063e94201c714610356578063eddf1b79146102375763f5125d3f14610100575f80fd5b3461022b57604036600319011261022b57610119611f82565b50610122611f98565b60405163026b1d5f60e01b8152906020826004817f00000000000000000000000000000000000000000000000000000000000000006001600160a01b03165afa9182156101ea575f926101f5575b50604051632fe4a15f60e21b81526001600160a01b0391821660048201529160c09183916024918391165afa80156101ea576020915f916101b5575b50604051908152f35b6101d7915060c03d60c0116101e3575b6101cf81836122d1565b810190612dc6565b5093505050505f6101ac565b503d6101c5565b6040513d5f823e3d90fd5b9091506020813d60201161022f575b81610211602093836122d1565b8101031261022b5761022460c0916122f4565b9190610170565b5f80fd5b3d9150610204565b3461022b57602036600319011261022b57610250611f82565b60405163026b1d5f60e01b8152906020826004817f00000000000000000000000000000000000000000000000000000000000000006001600160a01b03165afa9182156101ea575f92610318575b5060405163eddf1b7960e01b81526001600160a01b0391821660048201529160209183916024918391165afa80156101ea575f906102e5575b60209060ff60405191168152f35b506020813d602011610310575b816102ff602093836122d1565b8101031261022b57602090516102d7565b3d91506102f2565b9091506020813d60201161034e575b81610334602093836122d1565b8101031261022b576103476020916122f4565b919061029e565b3d9150610327565b61200e565b3461022b57602036600319011261022b576004356001600160401b03811161022b573660238201121561022b5760048101356001600160401b03811161022b573660248260051b8401011161022b57604051631f94a27560e31b81527f00000000000000000000000000000000000000000000000000000000000000006001600160a01b031690602081600481855afa9081156101ea575f91610704575b5060405163e860accb60e01b81526001600160a01b0390911691602090829060049082905afa9081156101ea575f916106ca575b506001600160a01b03169061044183612308565b9361044f60405195866122d1565b838552601f1961045e85612308565b015f5b8181106106b35750505f5b84811015610662576024600582901b830101356001600160a01b038116919082900361022b575f9160405163b3596f0760e01b8152816004820152602081602481895afa5f918161062f575b50610627575b5060405163313ce56760e01b815292866012602086600481875afa80965f916105e8575b506001966105e0575b505f905f5f905f9360246101405f9760405192838092633e15014160e01b82528d60048301525afa905f5f5f91845f945f9661059c575b50610585575b505050505060ff9495966040519861053f8a6122b5565b895260208901526040880152606087015260808601521660a0840152151560c0830152151560e0820152610573828961243c565b5261057e818861243c565b500161046c565b93995091975094509250905060ff5f808080610528565b9350945050506105c491506101403d81116105d9575b6105bc81836122d1565b810190612e01565b509198929750939593509091505f9050610522565b503d6105b2565b90508b6104eb565b9250506020823d821161061f575b81610603602093836122d1565b8101031261022b576001956106188a936124cd565b90966104e2565b3d91506105f6565b9250886104be565b9091506020813d821161065a575b8161064a602093836122d1565b8101031261022b5751908a6104b8565b3d915061063d565b856040518091602082016020835281518091526020604084019201905f5b81811061068e575050500390f35b919350916020610100826106a5600194885161222b565b019401910191849392610680565b6020906106be612f7f565b82828a01015201610461565b90506020813d6020116106fc575b816106e5602093836122d1565b8101031261022b576106f6906122f4565b8461042d565b3d91506106d8565b90506020813d60201161073b575b8161071f602093836122d1565b8101031261022b5760206107346004926122f4565b91506103f9565b3d9150610712565b3461022b57602036600319011261022b5761076461075f611f82565b612fdb565b604080519283529015156020830152819081015b0390f35b3461022b57604036600319011261022b5760206107a861079a611f82565b6107a2611f98565b90612fbb565b604051908152f35b3461022b57602036600319011261022b576107c9611f82565b60405163026b1d5f60e01b81527f00000000000000000000000000000000000000000000000000000000000000006001600160a01b0316602082600481845afa9182156101ea575f92610b48575b509060206004926040519384809263e860accb60e01b82525afa9182156101ea575f92610b0a575b506040516334651b6f60e21b8152916001600160a01b03908116915f9184916004918391165afa9182156101ea575f92610ae6575b505f905f5b8351811015610993576001600160a01b03610894828661243c565b516040516334924edb60e21b815291166004820152606081602481865afa9081156101ea575f91610962575b506001600160a01b0316806108d9575b50600101610879565b6040516370a0823160e01b81526001600160a01b038716600482015290602090829060249082905afa5f918161092f575b50156108d05761091b575b856108d0565b91610927600191612508565b929050610915565b9091506020813d821161095a575b8161094a602093836122d1565b8101031261022b5751908761090a565b3d915061093d565b610983915060603d811161098c575b61097b81836122d1565b8101906124db565b915050866108c0565b503d610971565b50919061099f906123a0565b905f5f5b8251811015610ad0576001600160a01b036109be828561243c565b516040516334924edb60e21b815291166004820152606081602481895afa9081156101ea575f91610aaf575b506001600160a01b03169081610a05575b60019150016109a3565b6040516370a0823160e01b81526001600160a01b038816600482015291602090839060249082905afa805f91610a7b575b60019350610a45575b506109fb565b610a50575b87610a3f565b818060a01b03610a60828661243c565b5116610a75610a6e85612508565b948761243c565b52610a4a565b90506020833d8211610aa7575b81610a95602093836122d1565b8101031261022b576001925190610a36565b3d9150610a88565b610ac7915060603d811161098c5761097b81836122d1565b915050876109ea565b6040516020808252819061077890820187611fae565b610b039192503d805f833e610afb81836122d1565b81019061231f565b9083610874565b91506020823d602011610b40575b81610b25602093836122d1565b8101031261022b575f610b396004936122f4565b925061083f565b3d9150610b18565b91506020823d602011610b7f575b81610b63602093836122d1565b8101031261022b576020610b786004936122f4565b9250610817565b3d9150610b56565b3461022b57602036600319011261022b57610ba0611f82565b60405163026b1d5f60e01b8152906020826004817f00000000000000000000000000000000000000000000000000000000000000006001600160a01b03165afa9182156101ea575f92610c7c575b50604051632fe4a15f60e21b81526001600160a01b0391821660048201529160c09183916024918391165afa9081156101ea5760c0915f915f5f5f915f935f95610c55575b50604051958652602086015260408501526060840152608083015260a0820152f35b945050505050610c729150823d84116101e3576101cf81836122d1565b9390929087610c33565b9091506020813d602011610cb2575b81610c98602093836122d1565b8101031261022b57610cab60c0916122f4565b9190610bee565b3d9150610c8b565b3461022b57602036600319011261022b57610d38610cd6611f82565b610cde612f7f565b505f604091825190610cf084836122d1565b60018252601f198401366020840137610d088261241b565b6001600160a01b03909116905282516335dca30760e21b8152602060048201529384918291906024830190611fae565b0381305afa918215610e73575f92610d67575b50610d65610d5b6101009361241b565b519151809261222b565bf35b91503d805f843e610d7881846122d1565b82019160208184031261022b578051906001600160401b03821161022b570182601f8201121561022b57805190610dae82612308565b93610dbb845195866122d1565b82855260208086019360081b8301019181831161022b57602001925b828410610dea5750505050610d65610d4b565b6101008483031261022b576020610100918651610e06816122b5565b610e0f876122f4565b8152828701518382015287870151888201526060870151606082015260808701516080820152610e4160a088016124cd565b60a0820152610e5260c08801612df4565b60c0820152610e6360e08801612df4565b60e0820152815201930192610dd7565b50513d5f823e3d90fd5b3461022b575f36600319011261022b576020604051610e9c82826122d1565b5f81526040519082820192808352815180945260408301938160408260051b8601019301915f955b828710610ed15785850386f35b909192938280600192603f1989820301855287519060ff825116815261ffff83830151168382015261ffff604083015116604082015261ffff606083015116606082015260c0610f30608084015160e0608085015260e0840190611fea565b92868060801b0360a08201511660a084015281878060801b03910151169101529601920196019592919092610ec4565b3461022b575f36600319011261022b576040517f00000000000000000000000000000000000000000000000000000000000000006001600160a01b03168152602090f35b3461022b57604036600319011261022b57610fbd611f82565b50610fc6611f98565b60405163e860accb60e01b8152906020826004817f00000000000000000000000000000000000000000000000000000000000000006001600160a01b03165afa9182156101ea575f9261109a575b50604051633e15014160e01b81526001600160a01b039182166004820152916101409183916024918391165afa80156101ea576020915f905f92611070575b508115611066575b506040519015158152f35b905015158261105b565b905061108b91506101403d81116105d9576105bc81836122d1565b50505050945050505083611053565b9091506020813d6020116110d1575b816110b6602093836122d1565b8101031261022b576110ca610140916122f4565b9190611014565b3d91506110a9565b612116565b3461022b57602036600319011261022b576107646110fa611f82565b612e6a565b3461022b57602036600319011261022b57611118611f82565b5060405163026b1d5f60e01b81527f00000000000000000000000000000000000000000000000000000000000000006001600160a01b0316602082600481845afa9182156101ea575f9261139e575b5060206004916040519283809263e860accb60e01b82525afa9081156101ea575f91611360575b506040516334651b6f60e21b81526001600160a01b039182169290915f9183916004918391165afa9081156101ea575f91611346575b505f5f5b8251811015611270576001600160a01b036111e3828561243c565b51604051633e15014160e01b81529116600482015261014081602481885afa9081156101ea575f905f92611246575b50811561123c575b50611228575b6001016111c8565b90611234600191612508565b919050611220565b905015158561121a565b905061126191506101403d81116105d9576105bc81836122d1565b50505050945050505086611212565b5061127a906123a0565b905f5f5b8251811015610ad0576001600160a01b03611299828561243c565b51604051633e15014160e01b81529116600482015261014081602481895afa9081156101ea575f905f9261131c575b508115611312575b506112de575b60010161127e565b9060019061130a906001600160a01b036112f8858761243c565b5116611304828861243c565b52612508565b9190506112d6565b90501515866112d0565b905061133791506101403d81116105d9576105bc81836122d1565b505050509450505050876112c8565b61135a91503d805f833e610afb81836122d1565b826111c4565b90506020813d602011611396575b8161137b602093836122d1565b8101031261022b575f61138f6004926122f4565b915061118e565b3d915061136e565b9091506020813d6020116113d7575b816113ba602093836122d1565b8101031261022b5760206113cf6004926122f4565b929150611167565b3d91506113ad565b3461022b57604036600319011261022b576113f8611f82565b50611401611f98565b60405163026b1d5f60e01b8152906020826004817f00000000000000000000000000000000000000000000000000000000000000006001600160a01b03165afa9182156101ea575f926114b8575b50604051632fe4a15f60e21b81526001600160a01b0391821660048201529160c09183916024918391165afa80156101ea576020915f916114935750604051908152f35b6114ac915060c03d60c0116101e3576101cf81836122d1565b505092505050826101ac565b9091506020813d6020116114ee575b816114d4602093836122d1565b8101031261022b576114e760c0916122f4565b919061144f565b3d91506114c7565b3461022b57602036600319011261022b5761150f611f82565b60405163026b1d5f60e01b81527f00000000000000000000000000000000000000000000000000000000000000006001600160a01b03169190602081600481865afa9081156101ea575f91611bd8575b50604051631f94a27560e31b8152602081600481875afa9081156101ea575f91611b97575b506001600160a01b031660805260405163e860accb60e01b815292602090849060049082905afa9283156101ea575f93611b5b575b506040516334651b6f60e21b8152905f826004816001600160a01b0385165afa9182156101ea575f92611b3f575b508151916115f483612308565b9261160260405194856122d1565b808452611611601f1991612308565b015f5b818110611ae9575050602060a0525f5b8151811015611ad1576001600160a01b0361163f828461243c565b516040516335ea6a7560e01b815291166004820152906101e0826024816001600160a01b0388165afa9182156101ea575f92611aa0575b506001600160a01b03611689828561243c565b516040516334924edb60e21b815291166004820152916060836024816001600160a01b038c165afa9283156101ea575f905f94611a7b575b505f9384906001600160a01b0383166119fd575b6001600160a01b031680611987575b506040516116f460a051826122d1565b5f81529460405161170760a051826122d1565b5f8082529096906004906001600160a01b03611723898c61243c565b5116604051928380926306fdde0360e01b82525afa5f918161196b575b50611963575b5060045f6001600160a01b0361175c898c61243c565b5116604051928380926395d89b4160e01b82525afa5f918161193f575b50611937575b506012966001600160a01b03611795888b61243c565b51166040519063313ce56760e01b82528160048160a051935afa5f91816118f9575b506118f1575b505f916001600160a01b036117d2898c61243c565b51166040519063b3596f0760e01b8252600482015260a051816024816080515afa5f91816118a7575b509160ff9795939160019b97959361189f575b508b6118208b8d8060a01b039261243c565b5116988b8060801b036040820151169060808d80821b0391015116906040519a6118498c612285565b8b5260a0518b015260408a01526060890152608088015260a087015260c086015260e0850152858060a01b03166101008401521661012082015261188d828761243c565b52611898818661243c565b5001611624565b92505f61180e565b97959391509995939160a0513d60a051116118ea575b6118c7818a6122d1565b8860a051918101031261022b5760019a60ff98519294969850909294969a6117fb565b503d6118bd565b97508d6117bd565b90915060a0513d60a05111611930575b61191381836122d1565b8160a051918101031261022b57611929906124cd565b908f6117b7565b503d611909565b96508c61177f565b61195c9192503d805f833e61195481836122d1565b8101906124a5565b908e611779565b90508c611746565b6119809192503d805f833e61195481836122d1565b908e611740565b6040516370a0823160e01b81526001600160a01b038b16600482015260a0519091829060249082905afa5f91816119c7575b50156116e45794508a6116e4565b90915060a0513d60a051116119f6575b6119e181836122d1565b8160a051918101031261022b5751908c6119b9565b503d6119d7565b6040516370a0823160e01b81526001600160a01b038b8116600483015260a051908290602490829088165afa5f9181611a45575b50611a3d575b506116d5565b91508b611a37565b90915060a0513d60a05111611a74575b611a5f81836122d1565b8160a051918101031261022b5751908d611a31565b503d611a55565b9050611a9691935060603d811161098c5761097b81836122d1565b93919050896116c1565b611ac39192506101e03d8111611aca575b611abb81836122d1565b810190612c65565b9087611676565b503d611ab1565b60405160a0805182525181906107789082018761203a565b602090604051611af881612285565b5f81525f838201525f6040820152606080820152606060808201525f60a08201525f60c08201525f60e08201525f6101008201525f61012082015282828801015201611614565b611b549192503d805f833e610afb81836122d1565b90846115e7565b9092506020813d602011611b8f575b81611b77602093836122d1565b8101031261022b57611b88906122f4565b91836115b9565b3d9150611b6a565b90506020813d602011611bd0575b81611bb2602093836122d1565b8101031261022b57600493611bc86020926122f4565b915093611584565b3d9150611ba5565b90506020813d602011611c0a575b81611bf3602093836122d1565b8101031261022b57611c04906122f4565b8361155f565b3d9150611be6565b3461022b57602036600319011261022b57611c2b611f82565b604051630401d45d60e41b81526001600160a01b0390911660048201819052905f81602481305afa9081156101ea575f91611cec575b506040519163eddf1b7960e01b83526004830152602082602481305afa80156101ea575f90611cb1575b611ca6925060ff60405193849360408552604085019061203a565b911660208301520390f35b506020823d602011611ce4575b81611ccb602093836122d1565b8101031261022b57611cdf611ca6926124cd565b611c8b565b3d9150611cbe565b90503d805f833e611cfd81836122d1565b81019060208183031261022b578051906001600160401b03821161022b57019080601f8301121561022b57815191611d3483612308565b92611d4260405194856122d1565b80845260208085019160051b8301019183831161022b5760208101915b838310611d7157505050505082611c61565b82516001600160401b03811161022b57820190610140828703601f19011261022b5760405190611da082612285565b611dac602084016122f4565b8252604083810151602084015260608401519083015260808301516001600160401b03811161022b57876020611de492860101612450565b606083015260a0830151916001600160401b03831161022b57611e5361014085611e168b602080999881990101612450565b608085015260c081015160a085015260e081015160c085015261010081015160e0850152611e4761012082016122f4565b610100850152016124cd565b610120820152815201920191611d5f565b3461022b57604036600319011261022b57611e7d611f82565b50611ea6611e91611e8c611f98565b61252a565b91604051948594608086526080860190611fae565b8481036020860152602080835192838152019201905f5b818110611f69575050508381036040850152815180825260208201916020808360051b8301019401925f915b838310611f365750505050508281036060840152602080835192838152019201905f5b818110611f1a575050500390f35b825160ff16845285945060209384019390920191600101611f0c565b91939596509193602080611f56600193601f198682030187528951611fea565b9701930193019092879695949293611ee9565b8251845287965060209384019390920191600101611ebd565b600435906001600160a01b038216820361022b57565b602435906001600160a01b038216820361022b57565b90602080835192838152019201905f5b818110611fcb5750505090565b82516001600160a01b0316845260209384019390920191600101611fbe565b805180835260209291819084018484015e5f828201840152601f01601f1916010190565b3461022b57604036600319011261022b5760206107a861202c611f82565b612034611f98565b90612bbe565b9080602083519182815201916020808360051b8301019401925f915b83831061206557505050505090565b9091929394602080600192601f19858203018652885190848060a01b03825116815282820151838201526040820151604082015261012060ff816120cf6120bd60608701516101406060880152610140870190611fea565b60808701518682036080880152611fea565b9460a081015160a086015260c081015160c086015260e081015160e0860152888060a01b036101008201511661010086015201511691015297019301930191939290612056565b3461022b57602036600319011261022b5761212f611f82565b60405163e860accb60e01b8152906020826004817f00000000000000000000000000000000000000000000000000000000000000006001600160a01b03165afa9182156101ea575f926121ed575b506040516334924edb60e21b81526001600160a01b0391821660048201529160609183916024918391165afa80156101ea576020915f916121cc575b506040516001600160a01b039091168152f35b6121e5915060603d60601161098c5761097b81836122d1565b50505f6121b9565b9091506020813d602011612223575b81612209602093836122d1565b8101031261022b5761221c6060916122f4565b919061217d565b3d91506121fc565b60e0809160018060a01b0381511684526020810151602085015260408101516040850152606081015160608501526080810151608085015260ff60a08201511660a085015260c0810151151560c085015201511515910152565b61014081019081106001600160401b038211176122a157604052565b634e487b7160e01b5f52604160045260245ffd5b61010081019081106001600160401b038211176122a157604052565b601f909101601f19168101906001600160401b038211908210176122a157604052565b51906001600160a01b038216820361022b57565b6001600160401b0381116122a15760051b60200190565b60208183031261022b578051906001600160401b03821161022b57019080601f8301121561022b57815161235281612308565b9261236060405194856122d1565b81845260208085019260051b82010192831161022b57602001905b8282106123885750505090565b60208091612395846122f4565b81520191019061237b565b906123aa82612308565b6123b760405191826122d1565b82815280926123c8601f1991612308565b0190602036910137565b906123dc82612308565b6123e960405191826122d1565b82815280926123fa601f1991612308565b01905f5b82811061240a57505050565b8060606020809385010152016123fe565b8051156124285760200190565b634e487b7160e01b5f52603260045260245ffd5b80518210156124285760209160051b010190565b81601f8201121561022b578051906001600160401b0382116122a15760405192612484601f8401601f1916602001856122d1565b8284526020838301011161022b57815f9260208093018386015e8301015290565b9060208282031261022b5781516001600160401b03811161022b576124ca9201612450565b90565b519060ff8216820361022b57565b9081606091031261022b576124ef816122f4565b916124ca6040612501602085016122f4565b93016122f4565b5f1981146125165760010190565b634e487b7160e01b5f52601160045260245ffd5b60405163026b1d5f60e01b81527f00000000000000000000000000000000000000000000000000000000000000006001600160a01b03169291602082600481875afa9182156101ea575f92612b80575b506040516334651b6f60e21b8152915f90839060049082906001600160a01b03165afa9182156101ea575f92612b64575b506001600160a01b03169283156129ce5760206004916040519283809263e860accb60e01b82525afa9081156101ea575f91612994575b5060018060a01b03165f915f5b81518110156126ed576001600160a01b0361260a828461243c565b516040516334924edb60e21b815291166004820152606081602481875afa9081156101ea575f916126cd575b506001600160a01b03168061264f575b506001016125ef565b6020602491604051928380926370a0823160e01b82528b60048301525afa5f918161269a575b501561264657612686575b5f612646565b92612692600191612508565b939050612680565b9091506020813d82116126c5575b816126b5602093836122d1565b8101031261022b5751905f612675565b3d91506126a8565b6126e5915060603d811161098c5761097b81836122d1565b50505f612636565b5090916126f9816123a0565b94612703826123a0565b61271561270f846123d2565b936123a0565b965f955f5b8651811015612985576001600160a01b03612735828961243c565b516040516334924edb60e21b815291166004820152606081602481865afa9081156101ea575f91612965575b506001600160a01b03168061277a575b5060010161271a565b602460205f92604051928380926370a0823160e01b82528b60048301525afa5f9181612932575b5061292a575b5080156127715790976004916001600160a01b036127c58b8b61243c565b51166127d1838761243c565b526127dc828761243c565b52815f6001600160a01b036127f18c8c61243c565b5116604051928380926395d89b4160e01b82525afa5f918161290e575b506128f357506040516128226020826122d1565b5f815261282f828961243c565b5261283a818861243c565b505b8a60206001600160a01b036128518c8c61243c565b51166040519485809263313ce56760e01b82525afa80935f916128ab575b5091809161288e93600195155f1461289557506012916113049161243c565b9790612771565b916128a29060ff9261243c565b91169052612508565b929150506020823d82116128eb575b816128c7602093836122d1565b8101031261022b57808c6001946128e061288e956124cd565b92509450919261286f565b3d91506128ba565b6128fd828961243c565b52612908818861243c565b5061283c565b6129239192503d805f833e61195481836122d1565b905f61280e565b90505f6127a7565b9091506020813d821161295d575b8161294d602093836122d1565b8101031261022b5751905f6127a1565b3d9150612940565b61297d915060603d811161098c5761097b81836122d1565b50505f612761565b50909791969395509093505050565b90506020813d6020116129c6575b816129af602093836122d1565b8101031261022b576129c0906122f4565b5f6125e2565b3d91506129a2565b5080519192506129dd826123a0565b926129e7836123a0565b936129f1846123d2565b936129fb816123a0565b935f5b828110612a0e5750505093929190565b6004906001600160a01b03612a23828561243c565b5116612a2f828761243c565b52815f6001600160a01b03612a44848761243c565b5116604051928380926395d89b4160e01b82525afa5f9181612b48575b50612b2d5750604051612a756020826122d1565b5f8152612a82828a61243c565b52612a8d818961243c565b505b60206001600160a01b03612aa3838661243c565b51166040519384809263313ce56760e01b82525afa805f91612af2575b60019350612add57506012612ad5828961243c565b525b016129fe565b60ff612ae9838a61243c565b91169052612ad7565b90506020833d8211612b25575b81612b0c602093836122d1565b8101031261022b57612b1f6001936124cd565b90612ac0565b3d9150612aff565b612b37828a61243c565b52612b42818961243c565b50612a8f565b612b5d9192503d805f833e61195481836122d1565b905f612a61565b612b799192503d805f833e610afb81836122d1565b905f6125ab565b91506020823d602011612bb6575b81612b9b602093836122d1565b8101031261022b575f612baf6004936122f4565b925061257a565b3d9150612b8e565b612bc7906130e8565b506001600160a01b031691905081612be0575b50505f90565b6040516370a0823160e01b81526001600160a01b03909116600482015290602090829060249082905afa5f9181612c1d575b506124ca5780612bda565b9091506020813d602011612c49575b81612c39602093836122d1565b8101031261022b5751905f612c12565b3d9150612c2c565b51906001600160801b038216820361022b57565b809103906101e0821261022b57604051916101e08301906001600160401b038211848310176122a1576020916040521261022b57604051602081016001600160401b038111828210176122a157604052815181528252612cc760208201612c51565b6020830152612cd860408201612c51565b6040830152612ce960608201612c51565b6060830152612cfa60808201612c51565b6080830152612d0b60a08201612c51565b60a083015260c081015164ffffffffff8116810361022b5760c083015260e081015161ffff8116810361022b57612dbd916101c09160e0850152612d5261010082016122f4565b610100850152612d6561012082016122f4565b610120850152612d7861014082016122f4565b610140850152612d8b61016082016122f4565b610160850152612d9e6101808201612c51565b610180850152612db16101a08201612c51565b6101a085015201612c51565b6101c082015290565b91908260c091031261022b5781519160208101519160408201519160608101519160a0608083015192015190565b5190811515820361022b57565b91908261014091031261022b57815191602081015191604082015191606081015191608082015191612e3560a08201612df4565b91612e4260c08301612df4565b91612e4f60e08201612df4565b916124ca610120612e636101008501612df4565b9301612df4565b60405163026b1d5f60e01b81526020816004817f00000000000000000000000000000000000000000000000000000000000000006001600160a01b03165afa9081156101ea575f91612f45575b506001600160a01b031690612ecc81836131e7565b15612f3d576040516335ea6a7560e01b81526001600160a01b039091166004820152906101e090829060249082905afa9081156101ea575f91612f1e575b50604001516001600160801b031690600190565b612f3791506101e03d8111611aca57611abb81836122d1565b5f612f0a565b50505f905f90565b90506020813d602011612f77575b81612f60602093836122d1565b8101031261022b57612f71906122f4565b5f612eb7565b3d9150612f53565b60405190612f8c826122b5565b5f60e0838281528260208201528260408201528260608201528260808201528260a08201528260c08201520152565b612fc4906130e8565b50506001600160a01b03169081612be05750505f90565b60405163026b1d5f60e01b81526020816004817f00000000000000000000000000000000000000000000000000000000000000006001600160a01b03165afa9081156101ea575f916130ae575b506001600160a01b03169061303d81836131e7565b15612f3d576040516335ea6a7560e01b81526001600160a01b039091166004820152906101e090829060249082905afa9081156101ea575f9161308f575b50608001516001600160801b031690600190565b6130a891506101e03d8111611aca57611abb81836122d1565b5f61307b565b90506020813d6020116130e0575b816130c9602093836122d1565b8101031261022b576130da906122f4565b5f613028565b3d91506130bc565b60405163e860accb60e01b815291906020836004817f00000000000000000000000000000000000000000000000000000000000000006001600160a01b03165afa9283156101ea575f936131a9575b506040516334924edb60e21b81526001600160a01b0391821660048201529260609184916024918391165afa91825f915f94613184575b5061317d57505f915081908190565b9190600190565b9093506131a0915060603d60601161098c5761097b81836122d1565b9390505f61316e565b9092506020813d6020116131df575b816131c5602093836122d1565b8101031261022b576131d86060916122f4565b9290613137565b3d91506131b8565b6040516334651b6f60e21b815291905f90839060049082906001600160a01b03165afa9182156101ea575f9261325e575b505f5b8251811015613257576001600160a01b03613236828561243c565b51166001600160a01b0383161461324f5760010161321b565b505050600190565b5050505f90565b6132739192503d805f833e610afb81836122d1565b905f61321856fea26469706673582212204de54de01df287a6d2f88f6e71d173d4f429d6afa5a2aff029d60ae63c22965364736f6c634300081e0033",
  "devdoc": {
    "kind": "dev",
    "methods": {
      "getAllTokensInfoWithEMode(address)": {
        "params": {
          "user": "The address of the user"
        },
        "returns": {
          "tokens": "Array of TokenInfo structs",
          "userEModeCategory": "The user's current E-Mode category ID (0 = no E-Mode)"
        }
      },
      "getEModes()": {
        "details": "Note: Base doesn't support the UiPoolDataProvider's getEModes, so we return empty for now",
        "returns": {
          "emodes": "Array of E-Mode categories with their configurations"
        }
      },
      "getReserveConfig(address)": {
        "params": {
          "token": "The token address"
        },
        "returns": {
          "config": "The reserve configuration data"
        }
      },
      "getReserveConfigs(address[])": {
        "details": "Returns price, LTV, liquidation threshold, and other config for each token",
        "params": {
          "tokens": "Array of token addresses to get config for"
        },
        "returns": {
          "configs": "Array of reserve configuration data"
        }
      },
      "getUserAccountData(address)": {
        "params": {
          "user": "The user address"
        },
        "returns": {
          "availableBorrowsBase": "Available borrows in base currency",
          "currentLiquidationThreshold": "Current liquidation threshold (bps)",
          "healthFactor": "Health factor (1e18 scale)",
          "ltv": "Current LTV (bps)",
          "totalCollateralBase": "Total collateral in base currency",
          "totalDebtBase": "Total debt in base currency"
        }
      },
      "getUserEMode(address)": {
        "params": {
          "user": "The address of the user"
        },
        "returns": {
          "categoryId": "The E-Mode category ID (0 = no E-Mode)"
        }
      }
    },
    "title": "AaveGatewayViewBase",
    "version": 1
  },
  "userdoc": {
    "kind": "user",
    "methods": {
      "getAllTokensInfo(address)": {
        "notice": "Returns all token info for a given user."
      },
      "getAllTokensInfoWithEMode(address)": {
        "notice": "Returns all token info for a user along with their E-Mode category"
      },
      "getEModes()": {
        "notice": "Returns all available E-Mode categories"
      },
      "getLtv(address,address)": {
        "notice": "Returns the configured maximum LTV for the user in basis points."
      },
      "getMaxLtv(address,address)": {
        "notice": "Returns the liquidation threshold (LLTV) for a given user in basis points."
      },
      "getReserveConfig(address)": {
        "notice": "Get reserve config for a single token"
      },
      "getReserveConfigs(address[])": {
        "notice": "Get reserve configuration data for multiple tokens (for frontend LTV calculations)"
      },
      "getUserAccountData(address)": {
        "notice": "Returns full user account data from Aave"
      },
      "getUserEMode(address)": {
        "notice": "Returns the user's current E-Mode category ID"
      }
    },
    "notice": "View-only gateway for Aave v3 protocol on Base. Avoids UiPoolDataProvider struct differences         by reading directly from Pool, DataProvider and Oracle. Constructor signature matches the         generic view so deploy scripts can deploy this under the same name.",
    "version": 1
  },
  "storageLayout": {
    "storage": [],
    "types": null
  }
}