{
  "address": "0x35C1fC32EEc3913ED63957aE819F52BD8b3FD2F8",
  "abi": [
    {
      "inputs": [
        {
          "internalType": "address",
          "name": "router",
          "type": "address"
        },
        {
          "internalType": "address",
          "name": "_comptroller",
          "type": "address"
        }
      ],
      "stateMutability": "nonpayable",
      "type": "constructor"
    },
    {
      "inputs": [
        {
          "internalType": "address",
          "name": "target",
          "type": "address"
        }
      ],
      "name": "AddressEmptyCode",
      "type": "error"
    },
    {
      "inputs": [
        {
          "internalType": "address",
          "name": "account",
          "type": "address"
        }
      ],
      "name": "AddressInsufficientBalance",
      "type": "error"
    },
    {
      "inputs": [],
      "name": "FailedInnerCall",
      "type": "error"
    },
    {
      "inputs": [],
      "name": "ReentrancyGuardReentrantCall",
      "type": "error"
    },
    {
      "inputs": [
        {
          "internalType": "address",
          "name": "token",
          "type": "address"
        }
      ],
      "name": "SafeERC20FailedOperation",
      "type": "error"
    },
    {
      "inputs": [],
      "name": "ROUTER",
      "outputs": [
        {
          "internalType": "address",
          "name": "",
          "type": "address"
        }
      ],
      "stateMutability": "view",
      "type": "function"
    },
    {
      "inputs": [
        {
          "components": [
            {
              "internalType": "enum ProtocolTypes.LendingOp",
              "name": "op",
              "type": "uint8"
            },
            {
              "internalType": "address",
              "name": "token",
              "type": "address"
            },
            {
              "internalType": "address",
              "name": "user",
              "type": "address"
            },
            {
              "internalType": "uint256",
              "name": "amount",
              "type": "uint256"
            },
            {
              "internalType": "bytes",
              "name": "context",
              "type": "bytes"
            },
            {
              "components": [
                {
                  "internalType": "uint256",
                  "name": "index",
                  "type": "uint256"
                }
              ],
              "internalType": "struct ProtocolTypes.InputPtr",
              "name": "input",
              "type": "tuple"
            }
          ],
          "internalType": "struct ProtocolTypes.LendingInstruction[]",
          "name": "instrs",
          "type": "tuple[]"
        },
        {
          "internalType": "address",
          "name": "caller",
          "type": "address"
        },
        {
          "components": [
            {
              "internalType": "address",
              "name": "token",
              "type": "address"
            },
            {
              "internalType": "uint256",
              "name": "amount",
              "type": "uint256"
            }
          ],
          "internalType": "struct ProtocolTypes.Output[]",
          "name": "inputs",
          "type": "tuple[]"
        }
      ],
      "name": "authorize",
      "outputs": [
        {
          "internalType": "address[]",
          "name": "targets",
          "type": "address[]"
        },
        {
          "internalType": "bytes[]",
          "name": "data",
          "type": "bytes[]"
        },
        {
          "components": [
            {
              "internalType": "address",
              "name": "token",
              "type": "address"
            },
            {
              "internalType": "uint256",
              "name": "amount",
              "type": "uint256"
            }
          ],
          "internalType": "struct ProtocolTypes.Output[]",
          "name": "produced",
          "type": "tuple[]"
        }
      ],
      "stateMutability": "view",
      "type": "function"
    },
    {
      "inputs": [],
      "name": "comptroller",
      "outputs": [
        {
          "internalType": "contract ComptrollerInterface",
          "name": "",
          "type": "address"
        }
      ],
      "stateMutability": "view",
      "type": "function"
    },
    {
      "inputs": [
        {
          "components": [
            {
              "internalType": "enum ProtocolTypes.LendingOp",
              "name": "op",
              "type": "uint8"
            },
            {
              "internalType": "address",
              "name": "token",
              "type": "address"
            },
            {
              "internalType": "address",
              "name": "user",
              "type": "address"
            },
            {
              "internalType": "uint256",
              "name": "amount",
              "type": "uint256"
            },
            {
              "internalType": "bytes",
              "name": "context",
              "type": "bytes"
            },
            {
              "components": [
                {
                  "internalType": "uint256",
                  "name": "index",
                  "type": "uint256"
                }
              ],
              "internalType": "struct ProtocolTypes.InputPtr",
              "name": "input",
              "type": "tuple"
            }
          ],
          "internalType": "struct ProtocolTypes.LendingInstruction[]",
          "name": "instrs",
          "type": "tuple[]"
        },
        {
          "internalType": "address",
          "name": "",
          "type": "address"
        },
        {
          "components": [
            {
              "internalType": "address",
              "name": "token",
              "type": "address"
            },
            {
              "internalType": "uint256",
              "name": "amount",
              "type": "uint256"
            }
          ],
          "internalType": "struct ProtocolTypes.Output[]",
          "name": "inputs",
          "type": "tuple[]"
        }
      ],
      "name": "deauthorize",
      "outputs": [
        {
          "internalType": "address[]",
          "name": "targets",
          "type": "address[]"
        },
        {
          "internalType": "bytes[]",
          "name": "data",
          "type": "bytes[]"
        }
      ],
      "stateMutability": "view",
      "type": "function"
    },
    {
      "inputs": [
        {
          "components": [
            {
              "internalType": "address",
              "name": "token",
              "type": "address"
            },
            {
              "internalType": "uint256",
              "name": "amount",
              "type": "uint256"
            }
          ],
          "internalType": "struct ProtocolTypes.Output[]",
          "name": "inputs",
          "type": "tuple[]"
        },
        {
          "internalType": "bytes",
          "name": "data",
          "type": "bytes"
        }
      ],
      "name": "processLendingInstruction",
      "outputs": [
        {
          "components": [
            {
              "internalType": "address",
              "name": "token",
              "type": "address"
            },
            {
              "internalType": "uint256",
              "name": "amount",
              "type": "uint256"
            }
          ],
          "internalType": "struct ProtocolTypes.Output[]",
          "name": "outputs",
          "type": "tuple[]"
        }
      ],
      "stateMutability": "nonpayable",
      "type": "function"
    },
    {
      "inputs": [
        {
          "internalType": "address",
          "name": "token",
          "type": "address"
        },
        {
          "internalType": "address",
          "name": "to",
          "type": "address"
        },
        {
          "internalType": "uint256",
          "name": "amount",
          "type": "uint256"
        }
      ],
      "name": "recoverTokens",
      "outputs": [],
      "stateMutability": "nonpayable",
      "type": "function"
    }
  ],
  "transactionHash": "0x4ce6771b6765001542e159ed24c8f8567d419a3f99bf85e1a726b99cc707bf99",
  "args": [
    "0x1f40073be3E16ce0E1214b66ab28E6D59fc09D53",
    "0x687a01ecF6d3907658f7A7c714749fAC32336D1B"
  ],
  "numDeployments": 2,
  "solcInputHash": "704fd468a351133abc5deb02272594fa",
  "bytecode": "0x60c0346100f657601f6126b238819003918201601f19168301916001600160401b038311848410176100fa5780849260409485528339810103126100f657610052602061004b8361010e565b920161010e565b906001600160a01b038116156100c65760805260015f556001600160a01b031660a05260405161258f9081610123823960805181818160ce01528181610d4a0152611690015260a051818181610c0301528181610cc801528181610ffc015281816112ed01528181611b1501526121640152f35b60405162461bcd60e51b81526020600482015260086024820152670726f757465723d360c41b6044820152606490fd5b5f80fd5b634e487b7160e01b5f52604160045260245ffd5b51906001600160a01b03821682036100f65756fe6080806040526004361015610012575f80fd5b5f3560e01c90816332fe7b261461167e5750806352ed587514610e8e5780635f3e849f14610cf75780635fe3b56714610cb3578063aad11a3f14610af55763ae4be46d1461005e575f80fd5b34610448576040366003190112610448576004356001600160401b0381116104485761008e9036906004016116d3565b6024356001600160401b03811161044857366023820112156104485760048101356001600160401b038111610448578101926024840191368311610448577f00000000000000000000000000000000000000000000000000000000000000006001600160a01b03163303610ab9576020818603126104485760248101356001600160401b0381116104485701938490039260c08412610448576040519160c083016001600160401b03811184821017610395576040526024860135600a811015610448578352610160604487016116bf565b9160208401928352610174606488016116bf565b604085019081526084880135606086019081529690959060a48901356001600160401b038111610448576024908a01019180601f840112156104485782356101bb81611a36565b916101c9604051938461189b565b81835260208286010111610448576020815f928280970183860137830101526080870152609f190112610448576040519660208801906001600160401b038211898310176103955760c4916040520135875260a084019287845260018060a01b0390511695519651818110610a86575b505050508051600a811015610a5e57158015610a72575b156104c05750516001600160a01b031690610269612399565b6102938361027683611b01565b9283906001600160a01b031661028e833033846123b7565b6123df565b60405163140e25ad60e31b815260048101939093526001600160a01b0316916020816024815f875af19081156103d8575f9161048e575b50610454576040516370a0823160e01b8152306004820152602081602481865afa9081156103d8575f9161041e575b5080156103e357610324926020925f60405180968195829463a9059cbb60e01b845260048401611aaa565b03925af180156103d8576103a9575b5060015f5560405161034660208261189b565b5f81525f805b81811061037257505061036e905b604051918291602083526020830190611838565b0390f35b60209060405161038181611880565b5f81525f838201528282860101520161034c565b634e487b7160e01b5f52604160045260245ffd5b6103ca9060203d6020116103d1575b6103c2818361189b565b810190611ccb565b505f610333565b503d6103b8565b6040513d5f823e3d90fd5b60405162461bcd60e51b815260206004820152601360248201527256656e75733a207a65726f2076546f6b656e7360681b6044820152606490fd5b90506020813d60201161044c575b816104396020938361189b565b8101031261044857515f6102f9565b5f80fd5b3d915061042c565b60405162461bcd60e51b815260206004820152601260248201527115995b9d5cce881b5a5b9d0819985a5b195960721b6044820152606490fd5b90506020813d6020116104b8575b816104a96020938361189b565b8101031261044857515f6102ca565b3d915061049c565b8093929351600a811015610a5e5760020361053b57505161036e926104f792916001600160a01b0316906104f2612399565b611d48565b9060015f55610504611950565b916040519161051283611880565b6001600160a01b03168252602082015261052b82611a15565b5261053581611a15565b5061035a565b8051600a811015610a5e576003036106605750516105999060209083906001600160a01b0316610569612399565b6001600160a01b0361057a87611b01565b16905f60405180968195829463856e5bb360e01b845260048401611aaa565b03925af19081156103d8575f9161062e575b506105f25761036e916001600160a01b03166105c8823383611ac5565b60015f556105d4611950565b91604051916105e283611880565b8252602082015261052b82611a15565b60405162461bcd60e51b815260206004820152601460248201527315995b9d5cce88189bdc9c9bddc819985a5b195960621b6044820152606490fd5b90506020813d602011610658575b816106496020938361189b565b8101031261044857515f6105ab565b3d915061063c565b8093929351600a811015610a5e576004036108715750516001600160a01b031691610689612399565b61069282611b01565b6040516370a0823160e01b8152306004820152936001600160a01b0390931692602085602481875afa9485156103d8575f95610836575b5091602091610706936106de833033896123b7565b6106e98383886123df565b5f6040518096819582946304c11f0360e31b845260048401611aaa565b03926001600160a01b03165af19081156103d8575f91610804575b506107c9576040516370a0823160e01b815230600482015291602083602481855afa9081156103d8575f91610793575b61036e93508082111561078a5761076791611a9d565b905b8161077a5760015f556105d4611950565b610785823383611ac5565b6105c8565b50505f90610769565b90506020833d6020116107c1575b816107ae6020938361189b565b810103126104485761036e925190610751565b3d91506107a1565b60405162461bcd60e51b815260206004820152601360248201527215995b9d5cce881c995c185e4819985a5b1959606a1b6044820152606490fd5b90506020813d60201161082e575b8161081f6020938361189b565b8101031261044857515f610721565b3d9150610812565b91929094506020823d602011610869575b816108546020938361189b565b810103126104485790519390919060206106c9565b3d9150610847565b8091935051600a811015610a5e5760050361091757505f9160209060246001600160a01b0361089f85611b01565b92516040516305eff7ef60e21b81526001600160a01b0390911660048201529586938492165af19081156103d8575f916108e1575b61036e9250610504611950565b90506020823d60201161090f575b816108fc6020938361189b565b810103126104485761036e9151906108d4565b3d91506108ef565b51600a811015610a5e57600603610a25576001600160a01b0361093982611b01565b92516040516370a0823160e01b81526001600160a01b0390911660048201529216602083602481845afa9283156103d8575f936109f0575b509160206004936040519485809263182df0f560e01b82525afa9283156103d8575f936109ba575b506109b061036e93670de0b6b3a764000092611a51565b0490610504611950565b92506020833d6020116109e8575b816109d56020938361189b565b81010312610448579151916109b0610999565b3d91506109c8565b92506020833d602011610a1d575b81610a0b6020938361189b565b81010312610448579151916020610971565b3d91506109fe565b60405162461bcd60e51b8152602060048201526011602482015270056656e75733a20756e6b6e6f776e206f7607c1b6044820152606490fd5b634e487b7160e01b5f52602160045260245ffd5b508051600a811015610a5e57600114610250565b6020949750610aad939650610a9f610aa4918385611a05565b6119f1565b95515191611a05565b0135925f808080610239565b60405162461bcd60e51b815260206004820152601460248201527313db9b1e481c9bdd5d195c8818d85b8818d85b1b60621b6044820152606490fd5b3461044857610b0336611703565b91509192610b10846118d5565b92610b1a85611907565b945f5b818110610b4e57610b408661036e8960405193849360408552604085019061178c565b9083820360208501526117c8565b610b598183866119bb565b90610b66602083016119f1565b9160a0810135878110610c9b575b503591600a8310156104485760019260028103610bf15750610b9590611b01565b610b9f8289611a22565b90838060a01b0316905260405163095ea7b360e01b60208201523060248201525f604482015260448152610bd460648261189b565b610bde828a611a22565b52610be98189611a22565b505b01610b1d565b600314159050610c7457818060a01b037f000000000000000000000000000000000000000000000000000000000000000016610c2d8289611a22565b5260405163ddbf54fd60e01b60208201523060248201525f604482015260448152610c5960648261189b565b610c63828a611a22565b52610c6e8189611a22565b50610beb565b5f610c7f8289611a22565b52604051610c8e60208261189b565b5f8152610c63828a611a22565b610cac919350610a9f908887611a05565b9189610b74565b34610448575f366003190112610448576040517f00000000000000000000000000000000000000000000000000000000000000006001600160a01b03168152602090f35b34610448576060366003190112610448576004356001600160a01b03811690819003610448576024356001600160a01b038116810361044857604051638da5cb5b60e01b815260443591906020816004817f00000000000000000000000000000000000000000000000000000000000000006001600160a01b03165afa9081156103d8575f91610e5f575b506001600160a01b03163303610e26576040516370a0823160e01b815230600482015291602083602481875afa9283156103d8575f93610df2575b505f198103610dec5750815b808311610de4575b5081610dd957005b610de292611ac5565b005b915083610dd1565b91610dc9565b9092506020813d602011610e1e575b81610e0e6020938361189b565b8101031261044857519184610dbd565b3d9150610e01565b60405162461bcd60e51b815260206004820152601160248201527027b7363c903937baba32b91037bbb732b960791b6044820152606490fd5b610e81915060203d602011610e87575b610e79818361189b565b81019061199c565b84610d82565b503d610e6f565b3461044857610e9c36611703565b9293909160405191610ead83611880565b5f8084526020840181815295905b8781106115ac5750610ed7610ed087516118d5565b9651611907565b935194610ee3866118be565b95610ef1604051978861189b565b808752610f00601f19916118be565b015f5b8181106115895750505f915f905f5b8a8110610f5557610f398a61036e8b610f478c60405195869560608752606087019061178c565b9085820360208701526117c8565b908382036040850152611838565b610f60818c886119bb565b610f6b8386836120d9565b823590600a821015610448578d935f8315801561157d575b156110785750505050610f968982612303565b610fa7575b50506001905b01610f12565b9561104561105361106e93610fbe6001969a611b01565b90604090815192610fcf838561189b565b888452601f198301366020860137610fe684611a15565b90898060a01b0316905261102286898060a01b037f00000000000000000000000000000000000000000000000000000000000000001692611a22565b5251928391631853304760e31b602084015260206024840152604483019061178c565b03601f19810183528261189b565b61105d828c611a22565b52611068818b611a22565b50611a82565b949050898c610f9b565b90919297939450610448578c96600481036110d6575050506110c3600193926110c96110d093604051926110ab84611880565b878060a01b031683525f602084015280938491611a82565b98611a22565b528b611a22565b50610fa1565b6002810361128f5750506110eb8a82856121c6565b611123575b600193926110c96110d0936110c3936040519361110c85611880565b888060a01b03168452602084015280938491611a82565b9694506001600160a01b0361113783611b01565b169460405163182df0f560e01b81526020816004818a5afa9081156103d8578d978f91928e935f91611255575b508b6111d25750936111c4846110688160019a99966110456111b46110c9986110d09c6111966110c39d5f1993611a22565b5260405163095ea7b360e01b60208201529283913060248401611aaa565b6111be8383611a22565b52611a22565b9a93509350509293506110f0565b969592509293975050670de0b6b3a76400008902898104670de0b6b3a764000003611241578561120191611a90565b5f198101908111611241578d978f858f81611068916110456111b46111c4966110c39b60019f6110d09e61123b611196926110c99e611a64565b93611a22565b634e487b7160e01b5f52601160045260245ffd5b9950509150506020873d8211611287575b816112736020938361189b565b81010312610448578d8c918e98515f611164565b3d9150611266565b6003810361134f5750508a8d6112a48c61213e565b6112c7575b5050600193926110c96110d0936110c3936040519361110c85611880565b6110d09361133f8b6110688160019a99966110c3989f966113136110c9988e8060a01b037f00000000000000000000000000000000000000000000000000000000000000001692611a22565b5260405163ddbf54fd60e01b602082015230602482015260448082018e905281526111b460648261189b565b9a93509350509293508a8d6112a9565b929650929392919050600581036114345750602061138160406001600160a01b0361137987611b01565b1693016119f1565b6040516395dd919360e01b81526001600160a01b03909116600482015291829060249082905afa9081156103d8575f91611403575b506103e98102908082046103e91490151715611241576110c36001936110c98d976103e86110d095604051946113eb86611880565b898060a01b0316855204602084015280938491611a82565b90506020813d821161142c575b8161141d6020938361189b565b8101031261044857518d6113b6565b3d9150611410565b600614611446575b5060019150610fa1565b61146460406001600160a01b0361145c86611b01565b1692016119f1565b6040516370a0823160e01b81526001600160a01b03909116600482015290602082602481845afa9182156103d8575f92611549575b5060206004916040519283809263182df0f560e01b82525afa9081156103d8575f91611510575b506114d490670de0b6b3a764000092611a51565b046103e98102908082046103e91490151715611241576110c36001936110c98d976103e861150995604051946113eb86611880565b508c61143c565b90506020813d8211611541575b8161152a6020938361189b565b810103126104485751670de0b6b3a76400006114c0565b3d915061151d565b9091506020813d8211611575575b816115646020938361189b565b810103126104485751906020611499565b3d9150611557565b50505f60018414610f83565b60209060405161159881611880565b5f81525f8382015282828b01015201610f03565b6115b78189856119bb565b908135600a81101561044857878685925f9060028114918215611671575b8215611657575b821561163d575b8215611622575b5050916116099391600196611602946116115761205b565b8951611a90565b885201610ebb565b61161b8c51611a82565b8c5261205b565b935093505050610a5e578390889087906006148160016115ea565b93509350505080610a5e57868991836005889514916115e3565b93509350505080610a5e57868991836004889514916115dc565b506003811491505f6115d5565b34610448575f366003190112610448577f00000000000000000000000000000000000000000000000000000000000000006001600160a01b03168152602090f35b35906001600160a01b038216820361044857565b9181601f84011215610448578235916001600160401b038311610448576020808501948460061b01011161044857565b90606060031983011261044857600435916001600160401b0383116104485780602384011215610448576004830135926001600160401b038411610448578160248560051b83010111610448576024908101939290356001600160a01b03811681036104485791604435906001600160401b03821161044857611788916004016116d3565b9091565b90602080835192838152019201905f5b8181106117a95750505090565b82516001600160a01b031684526020938401939092019160010161179c565b9080602083519182815201916020808360051b8301019401925f915b8383106117f357505050505090565b909192939460208080600193601f19868203018752818a518051918291828552018484015e5f828201840152601f01601f1916010197019594919091019201906117e4565b90602080835192838152019201905f5b8181106118555750505090565b825180516001600160a01b031685526020908101518186015260409094019390920191600101611848565b604081019081106001600160401b0382111761039557604052565b601f909101601f19168101906001600160401b0382119082101761039557604052565b6001600160401b0381116103955760051b60200190565b906118df826118be565b6118ec604051918261189b565b82815280926118fd601f19916118be565b0190602036910137565b90611911826118be565b61191e604051918261189b565b828152809261192f601f19916118be565b01905f5b82811061193f57505050565b806060602080938501015201611933565b60408051909190611961838261189b565b6001815291601f1901825f5b82811061197957505050565b60209060405161198881611880565b5f81525f838201528282850101520161196d565b9081602091031261044857516001600160a01b03811681036104485790565b91908110156119dd5760051b8101359060be1981360301821215610448570190565b634e487b7160e01b5f52603260045260245ffd5b356001600160a01b03811681036104485790565b91908110156119dd5760061b0190565b8051156119dd5760200190565b80518210156119dd5760209160051b010190565b6001600160401b03811161039557601f01601f191660200190565b8181029291811591840414171561124157565b8115611a6e570490565b634e487b7160e01b5f52601260045260245ffd5b5f1981146112415760010190565b9190820180921161124157565b9190820391821161124157565b6001600160a01b039091168152602081019190915260400190565b611afa611aff9392611aec60405194859263a9059cbb60e01b602085015260248401611aaa565b03601f19810184528361189b565b61232e565b565b60405163b0772d0b60e01b81525f816004817f00000000000000000000000000000000000000000000000000000000000000006001600160a01b03165afa9081156103d8575f91611c2a575b505f5b8151811015611beb57600460206001600160a01b03611b6f8486611a22565b511660405192838092636f307dc360e01b82525afa5f9181611bcb575b50611b9b575b50600101611b50565b6001600160a01b03848116911614611bb3575f611b92565b6001600160a01b039250611bc691611a22565b511690565b611be491925060203d8111610e8757610e79818361189b565b905f611b8c565b60405162461bcd60e51b815260206004820152601760248201527615995b9d5cce881d951bdad95b881b9bdd08199bdd5b99604a1b6044820152606490fd5b90503d805f833e611c3b818361189b565b810190602081830312610448578051906001600160401b03821161044857019080601f8301121561044857815190611c72826118be565b92611c80604051948561189b565b82845260208085019360051b82010191821161044857602001915b818310611cab575050505f611b4d565b82516001600160a01b038116810361044857815260209283019201611c9b565b90816020910312610448575180151581036104485790565b6001600160a01b03918216815291166020820152604081019190915260600190565b15611d0c57565b60405162461bcd60e51b815260206004820152601460248201527315995b9d5cce881c995919595b4819985a5b195960621b6044820152606490fd5b919291906001600160a01b03611d5d83611b01565b6040516370a0823160e01b81526001600160a01b0384166004820152911694602082602481895afa9182156103d8575f92612027575b5060405163bd6d894d60e01b8152916020836004815f8b5af19283156103d8575f93611ff3575b50670de0b6b3a7640000611dce8483611a51565b048210801590611feb575b611fc35750670de0b6b3a7640000810290808204670de0b6b3a764000014901517156112415781611e0991611a90565b5f1981019190821161124157611e24602091611e4393611a64565b809360405193849283926323b872dd60e01b8452309060048501611ce3565b03815f895af180156103d857611fa6575b506040516370a0823160e01b81523060048201526001600160a01b038316949091602083602481895afa9283156103d8575f93611f72575b505f916024602092604051948593849263db006a7560e01b845260048401525af180156103d8575f90611f3e575b611ec5915015611d05565b6040516370a0823160e01b8152306004820152602081602481885afa9081156103d8575f91611f0a575b50611f0691611efd91611a9d565b80943390611ac5565b9190565b90506020813d602011611f36575b81611f256020938361189b565b810103126104485751611f06611eef565b3d9150611f18565b506020813d602011611f6a575b81611f586020938361189b565b8101031261044857611ec59051611eba565b3d9150611f4b565b9092506020813d602011611f9e575b81611f8e6020938361189b565b810103126104485751915f611e8c565b3d9150611f81565b611fbe9060203d6020116103d1576103c2818361189b565b611e54565b611e43925060209150809360405193849283926323b872dd60e01b8452309060048501611ce3565b508115611dd9565b9092506020813d60201161201f575b8161200f6020938361189b565b810103126104485751915f611dba565b3d9150612002565b9091506020813d602011612053575b816120436020938361189b565b810103126104485751905f611d93565b3d9150612036565b926120679192846120d9565b923592600a841015610448575f841580156120cd575b1561209c57505061208e9250612303565b1561209857600190565b5f90565b91909161044857600284036120b55761208e93506121c6565b5050906003146120c457505f90565b61208e9061213e565b50505f6001851461207d565b9192906120e8602084016119f1565b9360a060608501359401359080821061210057505050565b8295506020939450612119610a9f838361211f96611a05565b95611a05565b013590565b6001600160a01b0391821681529116602082015260400190565b60206121609160405180938192630217306760e31b8352309060048401612124565b03817f00000000000000000000000000000000000000000000000000000000000000006001600160a01b03165afa5f91816121a5575b506121a15750600190565b1590565b6121bf91925060203d6020116103d1576103c2818361189b565b905f612196565b9091906001600160a01b03906121db90611b01565b169060405163182df0f560e01b8152602081600481865afa9081156103d8575f916122d1575b50831593841561228a5750506020612234915f19935b6040518080958194636eb1769f60e11b8352309060048401612124565b03915afa9081156103d8575f91612258575b50821561225257505090565b10919050565b90506020813d602011612282575b816122736020938361189b565b8101031261044857515f612246565b3d9150612266565b670de0b6b3a76400008102908104670de0b6b3a76400000361124157816122b091611a90565b5f19810192908311611241576122cb60209261223494611a64565b93612217565b90506020813d6020116122fb575b816122ec6020938361189b565b8101031261044857515f612201565b3d91506122df565b61216091612312602092611b01565b60405163929fe9a160e01b815293849283929060048401612124565b5f806123569260018060a01b03169360208151910182865af161234f6124cc565b90836124fb565b805190811515918261237e575b505061236c5750565b635274afe760e01b5f5260045260245ffd5b6123919250602080918301019101611ccb565b155f80612363565b60025f54146123a85760025f55565b633ee5aeb560e01b5f5260045ffd5b90611afa90611aec611aff956040519586936323b872dd60e01b602086015260248501611ce3565b9190916040519161241483612406602082019363095ea7b360e01b85528760248401611aaa565b03601f19810185528461189b565b82516001600160a01b038316915f91829182855af1906124326124cc565b8261249a575b508161248f575b501561244a57505050565b60405163095ea7b360e01b60208201526001600160a01b0390931660248401525f6044808501919091528352611aff92611afa9061248960648261189b565b8261232e565b90503b15155f61243f565b805191925081159182156124b2575b5050905f612438565b6124c59250602080918301019101611ccb565b5f806124a9565b3d156124f6573d906124dd82611a36565b916124eb604051938461189b565b82523d5f602084013e565b606090565b9061251f575080511561251057805190602001fd5b630a12f52160e11b5f5260045ffd5b81511580612550575b612530575090565b639996b31560e01b5f9081526001600160a01b0391909116600452602490fd5b50803b1561252856fea26469706673582212200ffeda73a743679464bf57c38705cc2c05d6376493e7a636276d3121d8fb6e6164736f6c634300081e0033",
  "devdoc": {
    "errors": {
      "AddressEmptyCode(address)": [
        {
          "details": "There's no code at `target` (it is not a contract)."
        }
      ],
      "AddressInsufficientBalance(address)": [
        {
          "details": "The ETH balance of the account is not enough to perform the operation."
        }
      ],
      "FailedInnerCall()": [
        {
          "details": "A call to an address target failed. The target may have reverted."
        }
      ],
      "ReentrancyGuardReentrantCall()": [
        {
          "details": "Unauthorized reentrant call."
        }
      ],
      "SafeERC20FailedOperation(address)": [
        {
          "details": "An operation with an ERC20 token failed."
        }
      ]
    },
    "kind": "dev",
    "methods": {},
    "version": 1
  },
  "userdoc": {
    "kind": "user",
    "methods": {
      "ROUTER()": {
        "notice": "Immutable router address that can call protected functions"
      },
      "authorize((uint8,address,address,uint256,bytes,(uint256))[],address,(address,uint256)[])": {
        "notice": "Return user-side authorization calls for the given lending instructions.         One element per input (or (address(0), bytes(\"\")) if none needed).         Also returns the produced outputs from the simulation of these instructions."
      },
      "recoverTokens(address,address,uint256)": {
        "notice": "Recover stuck tokens (only callable by router's owner)"
      }
    },
    "version": 1
  },
  "storageLayout": {
    "storage": [
      {
        "astId": 2269,
        "contract": "contracts/v2/gateways/venus/VenusGatewayWrite.sol:VenusGatewayWrite",
        "label": "_status",
        "offset": 0,
        "slot": "0",
        "type": "t_uint256"
      }
    ],
    "types": {
      "t_uint256": {
        "encoding": "inplace",
        "label": "uint256",
        "numberOfBytes": "32"
      }
    }
  }
}