{
  "address": "0x32763F0971416a8cDBaF9c2c3a83a5a5B718DCE8",
  "abi": [
    {
      "inputs": [
        {
          "internalType": "address",
          "name": "router",
          "type": "address"
        },
        {
          "internalType": "address",
          "name": "_poolAddressesProvider",
          "type": "address"
        },
        {
          "internalType": "uint16",
          "name": "_referralCode",
          "type": "uint16"
        }
      ],
      "stateMutability": "nonpayable",
      "type": "constructor"
    },
    {
      "inputs": [
        {
          "internalType": "address",
          "name": "target",
          "type": "address"
        }
      ],
      "name": "AddressEmptyCode",
      "type": "error"
    },
    {
      "inputs": [
        {
          "internalType": "address",
          "name": "account",
          "type": "address"
        }
      ],
      "name": "AddressInsufficientBalance",
      "type": "error"
    },
    {
      "inputs": [],
      "name": "FailedInnerCall",
      "type": "error"
    },
    {
      "inputs": [],
      "name": "ReentrancyGuardReentrantCall",
      "type": "error"
    },
    {
      "inputs": [
        {
          "internalType": "address",
          "name": "token",
          "type": "address"
        }
      ],
      "name": "SafeERC20FailedOperation",
      "type": "error"
    },
    {
      "inputs": [],
      "name": "REFERRAL_CODE",
      "outputs": [
        {
          "internalType": "uint16",
          "name": "",
          "type": "uint16"
        }
      ],
      "stateMutability": "view",
      "type": "function"
    },
    {
      "inputs": [],
      "name": "ROUTER",
      "outputs": [
        {
          "internalType": "address",
          "name": "",
          "type": "address"
        }
      ],
      "stateMutability": "view",
      "type": "function"
    },
    {
      "inputs": [
        {
          "components": [
            {
              "internalType": "enum ProtocolTypes.LendingOp",
              "name": "op",
              "type": "uint8"
            },
            {
              "internalType": "address",
              "name": "token",
              "type": "address"
            },
            {
              "internalType": "address",
              "name": "user",
              "type": "address"
            },
            {
              "internalType": "uint256",
              "name": "amount",
              "type": "uint256"
            },
            {
              "internalType": "bytes",
              "name": "context",
              "type": "bytes"
            },
            {
              "components": [
                {
                  "internalType": "uint256",
                  "name": "index",
                  "type": "uint256"
                }
              ],
              "internalType": "struct ProtocolTypes.InputPtr",
              "name": "input",
              "type": "tuple"
            }
          ],
          "internalType": "struct ProtocolTypes.LendingInstruction[]",
          "name": "instrs",
          "type": "tuple[]"
        },
        {
          "internalType": "address",
          "name": "caller",
          "type": "address"
        }
      ],
      "name": "authorize",
      "outputs": [
        {
          "internalType": "address[]",
          "name": "targets",
          "type": "address[]"
        },
        {
          "internalType": "bytes[]",
          "name": "data",
          "type": "bytes[]"
        }
      ],
      "stateMutability": "view",
      "type": "function"
    },
    {
      "inputs": [
        {
          "internalType": "address",
          "name": "token",
          "type": "address"
        },
        {
          "internalType": "address",
          "name": "user",
          "type": "address"
        },
        {
          "internalType": "uint256",
          "name": "amount",
          "type": "uint256"
        }
      ],
      "name": "borrow",
      "outputs": [],
      "stateMutability": "nonpayable",
      "type": "function"
    },
    {
      "inputs": [
        {
          "internalType": "address",
          "name": "token",
          "type": "address"
        },
        {
          "internalType": "address",
          "name": "onBehalfOf",
          "type": "address"
        },
        {
          "internalType": "uint256",
          "name": "amount",
          "type": "uint256"
        }
      ],
      "name": "deposit",
      "outputs": [],
      "stateMutability": "nonpayable",
      "type": "function"
    },
    {
      "inputs": [],
      "name": "poolAddressesProvider",
      "outputs": [
        {
          "internalType": "contract IPoolAddressesProvider",
          "name": "",
          "type": "address"
        }
      ],
      "stateMutability": "view",
      "type": "function"
    },
    {
      "inputs": [
        {
          "components": [
            {
              "internalType": "address",
              "name": "token",
              "type": "address"
            },
            {
              "internalType": "uint256",
              "name": "amount",
              "type": "uint256"
            }
          ],
          "internalType": "struct ProtocolTypes.Output[]",
          "name": "inputs",
          "type": "tuple[]"
        },
        {
          "internalType": "bytes",
          "name": "data",
          "type": "bytes"
        }
      ],
      "name": "processLendingInstruction",
      "outputs": [
        {
          "components": [
            {
              "internalType": "address",
              "name": "token",
              "type": "address"
            },
            {
              "internalType": "uint256",
              "name": "amount",
              "type": "uint256"
            }
          ],
          "internalType": "struct ProtocolTypes.Output[]",
          "name": "outputs",
          "type": "tuple[]"
        }
      ],
      "stateMutability": "nonpayable",
      "type": "function"
    },
    {
      "inputs": [
        {
          "internalType": "address",
          "name": "token",
          "type": "address"
        },
        {
          "internalType": "address",
          "name": "user",
          "type": "address"
        },
        {
          "internalType": "uint256",
          "name": "amount",
          "type": "uint256"
        }
      ],
      "name": "repay",
      "outputs": [
        {
          "internalType": "uint256",
          "name": "refund",
          "type": "uint256"
        }
      ],
      "stateMutability": "nonpayable",
      "type": "function"
    },
    {
      "inputs": [
        {
          "internalType": "address",
          "name": "underlying",
          "type": "address"
        },
        {
          "internalType": "address",
          "name": "user",
          "type": "address"
        },
        {
          "internalType": "uint256",
          "name": "amount",
          "type": "uint256"
        }
      ],
      "name": "withdraw",
      "outputs": [
        {
          "internalType": "address",
          "name": "",
          "type": "address"
        },
        {
          "internalType": "uint256",
          "name": "",
          "type": "uint256"
        }
      ],
      "stateMutability": "nonpayable",
      "type": "function"
    }
  ],
  "transactionHash": "0x2ab2802c6530236a09d432919b9f63c8c1edfc70918a6adf89ac11146c0ff5cb",
  "args": [
    "0x7e3eE2743b4322E9705931615c92b520b38dE864",
    "0xa97684ead0e402dC232d5A977953DF7ECBaB3CDb",
    0
  ],
  "numDeployments": 2,
  "solcInputHash": "d247a0785cbe119247a0f6c2a41f13c9",
  "bytecode": "0x60e060405234801561000f575f5ffd5b5060405161249d38038061249d83398101604081905261002e916100ca565b826001600160a01b0381166100895760405162461bcd60e51b815260206004820152601d60248201527f526f7574657220616464726573732063616e6e6f74206265207a65726f000000604482015260640160405180910390fd5b6001600160a01b0390811660805260015f559190911660a05261ffff1660c05250610114565b80516001600160a01b03811681146100c5575f5ffd5b919050565b5f5f5f606084860312156100dc575f5ffd5b6100e5846100af565b92506100f3602085016100af565b9150604084015161ffff81168114610109575f5ffd5b809150509250925092565b60805160a05160c05161230c6101915f395f818161012301528181610d67015261101401525f81816101720152818161076801528181610b8401528181610e470152818161164001528181611792015261188e01525f818160e40152818161072001528181610af901528181610dff015261142a015261230c5ff3fe608060405234801561000f575f5ffd5b5060043610610090575f3560e01c80635224372c116100635780635224372c1461015857806380e17d871461016d5780638340f54914610194578063ae4be46d146101a7578063d9caed12146101c7575f5ffd5b806317c2a46b146100945780631da649cf146100be57806332fe7b26146100df5780633583849a1461011e575b5f5ffd5b6100a76100a2366004611ca5565b6101f9565b6040516100b5929190611d25565b60405180910390f35b6100d16100cc366004611dee565b610714565b6040519081526020016100b5565b6101067f000000000000000000000000000000000000000000000000000000000000000081565b6040516001600160a01b0390911681526020016100b5565b6101457f000000000000000000000000000000000000000000000000000000000000000081565b60405161ffff90911681526020016100b5565b61016b610166366004611dee565b610aed565b005b6101067f000000000000000000000000000000000000000000000000000000000000000081565b61016b6101a2366004611dee565b610df4565b6101ba6101b5366004611e70565b611081565b6040516100b59190611f08565b6101da6101d5366004611dee565b61141d565b604080516001600160a01b0390931683526020830191909152016100b5565b606080836001600160401b0381111561021457610214611f54565b60405190808252806020026020018201604052801561023d578160200160208202803683370190505b509150836001600160401b0381111561025857610258611f54565b60405190808252806020026020018201604052801561028b57816020015b60608152602001906001900390816102765790505b5090505f5b8481101561070b57368686838181106102ab576102ab611f68565b90506020028101906102bd9190611f7c565b905060026102ce6020830183611fc1565b60068111156102df576102df611f9a565b03610484575f6102fd6102f86040840160208501611fda565b61178e565b604051636eb1769f60e11b81526001600160a01b0388811660048301523060248301529192505f9183169063dd62ed3e90604401602060405180830381865afa15801561034c573d5f5f3e3d5ffd5b505050506040513d601f19601f820116820180604052508101906103709190611ff5565b9050826060013581101580156103895750606083013515155b156103f2575f8685815181106103a1576103a1611f68565b60200260200101906001600160a01b031690816001600160a01b03168152505060405180602001604052805f8152508585815181106103e2576103e2611f68565b602002602001018190525061047d565b8186858151811061040557610405611f68565b6001600160a01b0392909216602092830291909101820152604080513060248201525f1960448083019190915282518083039091018152606490910190915290810180516001600160e01b031663095ea7b360e01b179052855186908690811061047157610471611f68565b60200260200101819052505b5050610702565b60036104936020830183611fc1565b60068111156104a4576104a4611f9a565b036106a2575f80806104c46104bf6040860160208701611fda565b611888565b919450925090506001600160a01b03811661051e5760405162461bcd60e51b81526020600482015260156024820152747644656274206973207a65726f206164647265737360581b60448201526064015b60405180910390fd5b604051631af5db4960e21b81526001600160a01b0389811660048301523060248301525f9190831690636bd76d2490604401602060405180830381865afa15801561056b573d5f5f3e3d5ffd5b505050506040513d601f19601f8201168201806040525081019061058f9190611ff5565b9050846060013581101580156105a85750606085013515155b15610611575f8887815181106105c0576105c0611f68565b60200260200101906001600160a01b031690816001600160a01b03168152505060405180602001604052805f81525087878151811061060157610601611f68565b6020026020010181905250610699565b8188878151811061062457610624611f68565b6001600160a01b03909216602092830291909101909101526040513060248201525f19604482015260640160408051601f198184030181529190526020810180516001600160e01b0316630c04a8a160e41b179052875188908890811061068d5761068d611f68565b60200260200101819052505b50505050610702565b5f8483815181106106b5576106b5611f68565b60200260200101906001600160a01b031690816001600160a01b03168152505060405180602001604052805f8152508383815181106106f6576106f6611f68565b60200260200101819052505b50600101610290565b50935093915050565b5f336001600160a01b037f0000000000000000000000000000000000000000000000000000000000000000161461075d5760405162461bcd60e51b81526004016105159061200c565b610765611986565b5f7f00000000000000000000000000000000000000000000000000000000000000006001600160a01b031663026b1d5f6040518163ffffffff1660e01b8152600401602060405180830381865afa1580156107c2573d5f5f3e3d5ffd5b505050506040513d601f19601f820116820180604052508101906107e6919061203a565b90506001600160a01b03811661080e5760405162461bcd60e51b815260040161051590612055565b6040516370a0823160e01b81523060048201525f906001600160a01b038716906370a0823190602401602060405180830381865afa158015610852573d5f5f3e3d5ffd5b505050506040513d601f19601f820116820180604052508101906108769190611ff5565b905061088d6001600160a01b0387163330876119ae565b60405163095ea7b360e01b81526001600160a01b0383811660048301525f602483015287169063095ea7b3906044016020604051808303815f875af11580156108d8573d5f5f3e3d5ffd5b505050506040513d601f19601f820116820180604052508101906108fc919061207b565b5060405163095ea7b360e01b81526001600160a01b0383811660048301526024820186905287169063095ea7b3906044016020604051808303815f875af1158015610949573d5f5f3e3d5ffd5b505050506040513d601f19601f8201168201806040525081019061096d919061207b565b5060405163573ade8160e01b81526001600160a01b038781166004830152602482018690526002604483015286811660648301525f919084169063573ade81906084016020604051808303815f875af11580156109cc573d5f5f3e3d5ffd5b505050506040513d601f19601f820116820180604052508101906109f09190611ff5565b6040516370a0823160e01b81523060048201529091505f906001600160a01b038916906370a0823190602401602060405180830381865afa158015610a37573d5f5f3e3d5ffd5b505050506040513d601f19601f82011682018060405250810190610a5b9190611ff5565b90505f5f83118015610a6d5750868311155b610aa15781610a7c88866120ae565b11610a875786610aa3565b81610a9288866120ae565b610a9c91906120c1565b610aa3565b825b9050808711610ab2575f610abc565b610abc81886120c1565b95508515610ad857610ad86001600160a01b038a163388611a15565b5050505050610ae660015f55565b9392505050565b81336001600160a01b037f0000000000000000000000000000000000000000000000000000000000000000161480610b2d5750336001600160a01b038216145b610b795760405162461bcd60e51b815260206004820152601c60248201527f4f6e6c7920726f75746572206f722073656c662063616e2063616c6c000000006044820152606401610515565b610b81611986565b5f7f00000000000000000000000000000000000000000000000000000000000000006001600160a01b031663026b1d5f6040518163ffffffff1660e01b8152600401602060405180830381865afa158015610bde573d5f5f3e3d5ffd5b505050506040513d601f19601f82011682018060405250810190610c02919061203a565b90506001600160a01b038116610c2a5760405162461bcd60e51b815260040161051590612055565b5f610c3486611888565b9250506001600160a01b0382169050610c815760405162461bcd60e51b815260206004820152600f60248201526e1d9119589d081b9bdd08199bdd5b99608a1b6044820152606401610515565b604051631af5db4960e21b81526001600160a01b0386811660048301523060248301525f9190831690636bd76d2490604401602060405180830381865afa158015610cce573d5f5f3e3d5ffd5b505050506040513d601f19601f82011682018060405250810190610cf29190611ff5565b905084811015610d375760405162461bcd60e51b815260206004820152601060248201526f626f72726f7720616c6c6f77616e636560801b6044820152606401610515565b60405163a415bcad60e01b81526001600160a01b038881166004830152602482018790526002604483015261ffff7f0000000000000000000000000000000000000000000000000000000000000000166064830152878116608483015284169063a415bcad9060a4015f604051808303815f87803b158015610db7575f5ffd5b505af1158015610dc9573d5f5f3e3d5ffd5b50610de2925050506001600160a01b0388163387611a15565b505050610dee60015f55565b50505050565b336001600160a01b037f00000000000000000000000000000000000000000000000000000000000000001614610e3c5760405162461bcd60e51b81526004016105159061200c565b610e44611986565b5f7f00000000000000000000000000000000000000000000000000000000000000006001600160a01b031663026b1d5f6040518163ffffffff1660e01b8152600401602060405180830381865afa158015610ea1573d5f5f3e3d5ffd5b505050506040513d601f19601f82011682018060405250810190610ec5919061203a565b90506001600160a01b038116610eed5760405162461bcd60e51b815260040161051590612055565b610f026001600160a01b0385163330856119ae565b60405163095ea7b360e01b81526001600160a01b0382811660048301525f602483015285169063095ea7b3906044016020604051808303815f875af1158015610f4d573d5f5f3e3d5ffd5b505050506040513d601f19601f82011682018060405250810190610f71919061207b565b5060405163095ea7b360e01b81526001600160a01b0382811660048301526024820184905285169063095ea7b3906044016020604051808303815f875af1158015610fbe573d5f5f3e3d5ffd5b505050506040513d601f19601f82011682018060405250810190610fe2919061207b565b5060405163617ba03760e01b81526001600160a01b03858116600483015260248201849052848116604483015261ffff7f000000000000000000000000000000000000000000000000000000000000000016606483015282169063617ba037906084015f604051808303815f87803b15801561105c575f5ffd5b505af115801561106e573d5f5f3e3d5ffd5b505050505061107c60015f55565b505050565b60605f6110908385018561216b565b6020810151606082015160a08301515192935090918711156111035787878460a001515f01518181106110c5576110c5611f68565b6110db9260206040909202019081019150611fda565b915087878460a001515f01518181106110f6576110f6611f68565b9050604002016020013590505b5f8351600681111561111757611117611f9a565b1480611135575060018351600681111561113357611133611f9a565b145b1561118c5761114982846040015183610df4565b604080515f8082526020820190925290611184565b604080518082019091525f808252602082015281526020019060019003908161115e5790505b509350611412565b6002835160068111156111a1576111a1611f9a565b0361123b575f5f6111b78486604001518561141d565b604080516001808252818301909252929450909250816020015b604080518082019091525f80825260208201528152602001906001900390816111d15790505095506040518060400160405280836001600160a01b0316815260200182815250865f8151811061122957611229611f68565b60200260200101819052505050611412565b60038351600681111561125057611250611f9a565b036112e15761126482846040015183610aed565b60408051600180825281830190925290816020015b604080518082019091525f80825260208201528152602001906001900390816112795790505093506040518060400160405280836001600160a01b0316815260200182815250845f815181106112d1576112d1611f68565b6020026020010181905250611412565b6004835160068111156112f6576112f6611f9a565b0361138b575f61130b83856040015184610714565b604080516001808252818301909252919250816020015b604080518082019091525f80825260208201528152602001906001900390816113225790505094506040518060400160405280846001600160a01b0316815260200182815250855f8151811061137a5761137a611f68565b602002602001018190525050611412565b6005835160068111156113a0576113a0611f9a565b036113b4575f61130b838560400151611a46565b6006835160068111156113c9576113c9611f9a565b036113dd575f61130b838560400151611ade565b60405162461bcd60e51b815260206004820152600a6024820152690556e6b6e6f776e206f760b41b6044820152606401610515565b505050949350505050565b5f80336001600160a01b037f000000000000000000000000000000000000000000000000000000000000000016146114675760405162461bcd60e51b81526004016105159061200c565b61146f611986565b5f6114798661178e565b90506001600160a01b0381166114c45760405162461bcd60e51b815260206004820152601060248201526f18551bdad95b881b9bdd08199bdd5b9960821b6044820152606401610515565b6040516370a0823160e01b81526001600160a01b038681166004830152829186918316906370a0823190602401602060405180830381865afa15801561150c573d5f5f3e3d5ffd5b505050506040513d601f19601f820116820180604052508101906115309190611ff5565b10156115755760405162461bcd60e51b815260206004820152601460248201527318551bdad95b8e881a5b9cdd59999a58da595b9d60621b6044820152606401610515565b604051636eb1769f60e11b81526001600160a01b03878116600483015230602483015286919083169063dd62ed3e90604401602060405180830381865afa1580156115c2573d5f5f3e3d5ffd5b505050506040513d601f19601f820116820180604052508101906115e69190611ff5565b10156116285760405162461bcd60e51b815260206004820152601160248201527061546f6b656e3a20616c6c6f77616e636560781b6044820152606401610515565b61163d6001600160a01b0382168730886119ae565b5f7f00000000000000000000000000000000000000000000000000000000000000006001600160a01b031663026b1d5f6040518163ffffffff1660e01b8152600401602060405180830381865afa15801561169a573d5f5f3e3d5ffd5b505050506040513d601f19601f820116820180604052508101906116be919061203a565b90506001600160a01b0381166116e65760405162461bcd60e51b815260040161051590612055565b604051631a4ca37b60e21b81526001600160a01b038981166004830152602482018890523060448301525f91908316906369328dec906064016020604051808303815f875af115801561173b573d5f5f3e3d5ffd5b505050506040513d601f19601f8201168201806040525081019061175f9190611ff5565b90506117756001600160a01b038a163383611a15565b889550935050505061178660015f55565b935093915050565b5f5f7f00000000000000000000000000000000000000000000000000000000000000006001600160a01b031663e860accb6040518163ffffffff1660e01b8152600401602060405180830381865afa1580156117ec573d5f5f3e3d5ffd5b505050506040513d601f19601f82011682018060405250810190611810919061203a565b6040516334924edb60e21b81526001600160a01b0385811660048301529192505f9183169063d2493b6c90602401606060405180830381865afa158015611859573d5f5f3e3d5ffd5b505050506040513d601f19601f8201168201806040525081019061187d9190612281565b509095945050505050565b5f5f5f5f7f00000000000000000000000000000000000000000000000000000000000000006001600160a01b031663e860accb6040518163ffffffff1660e01b8152600401602060405180830381865afa1580156118e8573d5f5f3e3d5ffd5b505050506040513d601f19601f8201168201806040525081019061190c919061203a565b6040516334924edb60e21b81526001600160a01b0387811660048301529192509082169063d2493b6c90602401606060405180830381865afa158015611954573d5f5f3e3d5ffd5b505050506040513d601f19601f820116820180604052508101906119789190612281565b919790965090945092505050565b60025f54036119a857604051633ee5aeb560e01b815260040160405180910390fd5b60025f55565b6040516001600160a01b038481166024830152838116604483015260648201839052610dee9186918216906323b872dd906084015b604051602081830303815290604052915060e01b6020820180516001600160e01b038381831617835250505050611b2b565b6040516001600160a01b0383811660248301526044820183905261107c91859182169063a9059cbb906064016119e3565b5f5f611a5184611888565b925050506001600160a01b03811615611ad2576040516370a0823160e01b81526001600160a01b0384811660048301528216906370a08231906024015b602060405180830381865afa158015611aa9573d5f5f3e3d5ffd5b505050506040513d601f19601f82011682018060405250810190611acd9190611ff5565b611ad4565b5f5b9150505b92915050565b5f5f611ae984611888565b50909150506001600160a01b03811615611ad2576040516370a0823160e01b81526001600160a01b0384811660048301528216906370a0823190602401611a8e565b5f611b3f6001600160a01b03841683611b8c565b905080515f14158015611b63575080806020019051810190611b61919061207b565b155b1561107c57604051635274afe760e01b81526001600160a01b0384166004820152602401610515565b6060610ae683835f845f5f856001600160a01b03168486604051611bb091906122c0565b5f6040518083038185875af1925050503d805f8114611bea576040519150601f19603f3d011682016040523d82523d5f602084013e611bef565b606091505b5091509150611bff868383611c09565b9695505050505050565b606082611c1e57611c1982611c65565b610ae6565b8151158015611c3557506001600160a01b0384163b155b15611c5e57604051639996b31560e01b81526001600160a01b0385166004820152602401610515565b5080610ae6565b805115611c755780518082602001fd5b604051630a12f52160e11b815260040160405180910390fd5b50565b6001600160a01b0381168114611c8e575f5ffd5b5f5f5f60408486031215611cb7575f5ffd5b83356001600160401b03811115611ccc575f5ffd5b8401601f81018613611cdc575f5ffd5b80356001600160401b03811115611cf1575f5ffd5b8660208260051b8401011115611d05575f5ffd5b602091820194509250840135611d1a81611c91565b809150509250925092565b604080825283519082018190525f9060208501906060840190835b81811015611d675783516001600160a01b0316835260209384019390920191600101611d40565b50508381036020850152809150845180825260208201925060208160051b830101602087015f5b83811015611de057601f19858403018652815180518085528060208301602087015e5f602082870101526020601f19601f83011686010194505050602082019150602086019550600181019050611d8e565b509098975050505050505050565b5f5f5f60608486031215611e00575f5ffd5b8335611e0b81611c91565b92506020840135611e1b81611c91565b929592945050506040919091013590565b5f5f83601f840112611e3c575f5ffd5b5081356001600160401b03811115611e52575f5ffd5b602083019150836020828501011115611e69575f5ffd5b9250929050565b5f5f5f5f60408587031215611e83575f5ffd5b84356001600160401b03811115611e98575f5ffd5b8501601f81018713611ea8575f5ffd5b80356001600160401b03811115611ebd575f5ffd5b8760208260061b8401011115611ed1575f5ffd5b6020918201955093508501356001600160401b03811115611ef0575f5ffd5b611efc87828801611e2c565b95989497509550505050565b602080825282518282018190525f918401906040840190835b8181101561187d57835180516001600160a01b031684526020908101518185015290930192604090920191600101611f21565b634e487b7160e01b5f52604160045260245ffd5b634e487b7160e01b5f52603260045260245ffd5b5f823560be19833603018112611f90575f5ffd5b9190910192915050565b634e487b7160e01b5f52602160045260245ffd5b803560078110611fbc575f5ffd5b919050565b5f60208284031215611fd1575f5ffd5b610ae682611fae565b5f60208284031215611fea575f5ffd5b8135610ae681611c91565b5f60208284031215612005575f5ffd5b5051919050565b60208082526014908201527313db9b1e481c9bdd5d195c8818d85b8818d85b1b60621b604082015260600190565b5f6020828403121561204a575f5ffd5b8151610ae681611c91565b6020808252600c908201526b141bdbdb081b9bdd081cd95d60a21b604082015260600190565b5f6020828403121561208b575f5ffd5b81518015158114610ae6575f5ffd5b634e487b7160e01b5f52601160045260245ffd5b80820180821115611ad857611ad861209a565b81810381811115611ad857611ad861209a565b60405160c081016001600160401b03811182821017156120f6576120f6611f54565b60405290565b604051601f8201601f191681016001600160401b038111828210171561212457612124611f54565b604052919050565b5f6020828403121561213c575f5ffd5b604051602081016001600160401b038111828210171561215e5761215e611f54565b6040529135825250919050565b5f6020828403121561217b575f5ffd5b81356001600160401b03811115612190575f5ffd5b820160c081850312156121a1575f5ffd5b6121a96120d4565b6121b282611fae565b815260208201356121c281611c91565b602082015260408201356121d581611c91565b60408201526060828101359082015260808201356001600160401b038111156121fc575f5ffd5b8201601f8101861361220c575f5ffd5b80356001600160401b0381111561222557612225611f54565b612238601f8201601f19166020016120fc565b81815287602083850101111561224c575f5ffd5b816020840160208301375f602083830101528060808501525050506122748560a0840161212c565b60a0820152949350505050565b5f5f5f60608486031215612293575f5ffd5b835161229e81611c91565b60208501519093506122af81611c91565b6040850151909250611d1a81611c91565b5f82518060208501845e5f92019182525091905056fea2646970667358221220ac4d2a4d69a2c2a782c8e4f8cbb138bcdbfab59d8fbe52cd348ea355e958172c64736f6c634300081e0033",
  "devdoc": {
    "errors": {
      "AddressEmptyCode(address)": [
        {
          "details": "There's no code at `target` (it is not a contract)."
        }
      ],
      "AddressInsufficientBalance(address)": [
        {
          "details": "The ETH balance of the account is not enough to perform the operation."
        }
      ],
      "FailedInnerCall()": [
        {
          "details": "A call to an address target failed. The target may have reverted."
        }
      ],
      "ReentrancyGuardReentrantCall()": [
        {
          "details": "Unauthorized reentrant call."
        }
      ],
      "SafeERC20FailedOperation(address)": [
        {
          "details": "An operation with an ERC20 token failed."
        }
      ]
    },
    "kind": "dev",
    "methods": {},
    "version": 1
  },
  "userdoc": {
    "kind": "user",
    "methods": {
      "authorize((uint8,address,address,uint256,bytes,(uint256))[],address)": {
        "notice": "Return user-side authorization calls for the given lending instructions.         One element per input (or (address(0), bytes(\"\")) if none needed)."
      }
    },
    "version": 1
  },
  "storageLayout": {
    "storage": [
      {
        "astId": 2269,
        "contract": "contracts/v2/gateways/aave/AaveGatewayWrite.sol:AaveGatewayWrite",
        "label": "_status",
        "offset": 0,
        "slot": "0",
        "type": "t_uint256"
      }
    ],
    "types": {
      "t_uint256": {
        "encoding": "inplace",
        "label": "uint256",
        "numberOfBytes": "32"
      }
    }
  }
}