{
  "address": "0x9587b8D16210EaA43e505e1882C20223e5d92b56",
  "abi": [
    {
      "inputs": [
        {
          "internalType": "address",
          "name": "owner_",
          "type": "address"
        }
      ],
      "stateMutability": "nonpayable",
      "type": "constructor"
    },
    {
      "inputs": [
        {
          "internalType": "address",
          "name": "owner",
          "type": "address"
        }
      ],
      "name": "OwnableInvalidOwner",
      "type": "error"
    },
    {
      "inputs": [
        {
          "internalType": "address",
          "name": "account",
          "type": "address"
        }
      ],
      "name": "OwnableUnauthorizedAccount",
      "type": "error"
    },
    {
      "anonymous": false,
      "inputs": [
        {
          "indexed": true,
          "internalType": "address",
          "name": "baseToken",
          "type": "address"
        },
        {
          "indexed": true,
          "internalType": "address",
          "name": "comet",
          "type": "address"
        }
      ],
      "name": "CometRegistered",
      "type": "event"
    },
    {
      "anonymous": false,
      "inputs": [
        {
          "indexed": true,
          "internalType": "address",
          "name": "baseToken",
          "type": "address"
        },
        {
          "indexed": true,
          "internalType": "address",
          "name": "oldComet",
          "type": "address"
        },
        {
          "indexed": true,
          "internalType": "address",
          "name": "newComet",
          "type": "address"
        }
      ],
      "name": "CometReplaced",
      "type": "event"
    },
    {
      "anonymous": false,
      "inputs": [
        {
          "indexed": true,
          "internalType": "address",
          "name": "previousOwner",
          "type": "address"
        },
        {
          "indexed": true,
          "internalType": "address",
          "name": "newOwner",
          "type": "address"
        }
      ],
      "name": "OwnershipTransferred",
      "type": "event"
    },
    {
      "anonymous": false,
      "inputs": [
        {
          "indexed": true,
          "internalType": "address",
          "name": "oldGateway",
          "type": "address"
        },
        {
          "indexed": true,
          "internalType": "address",
          "name": "newGateway",
          "type": "address"
        }
      ],
      "name": "WriteGatewayUpdated",
      "type": "event"
    },
    {
      "inputs": [
        {
          "internalType": "contract ICompoundComet",
          "name": "comet",
          "type": "address"
        }
      ],
      "name": "addComet",
      "outputs": [],
      "stateMutability": "nonpayable",
      "type": "function"
    },
    {
      "inputs": [],
      "name": "allActiveBaseTokens",
      "outputs": [
        {
          "internalType": "address[]",
          "name": "bases",
          "type": "address[]"
        }
      ],
      "stateMutability": "view",
      "type": "function"
    },
    {
      "inputs": [],
      "name": "allActiveComets",
      "outputs": [
        {
          "internalType": "address[]",
          "name": "comets",
          "type": "address[]"
        }
      ],
      "stateMutability": "view",
      "type": "function"
    },
    {
      "inputs": [],
      "name": "allBaseTokens",
      "outputs": [
        {
          "internalType": "address[]",
          "name": "",
          "type": "address[]"
        }
      ],
      "stateMutability": "view",
      "type": "function"
    },
    {
      "inputs": [],
      "name": "allComets",
      "outputs": [
        {
          "internalType": "address[]",
          "name": "",
          "type": "address[]"
        }
      ],
      "stateMutability": "view",
      "type": "function"
    },
    {
      "inputs": [
        {
          "internalType": "address",
          "name": "token",
          "type": "address"
        },
        {
          "internalType": "address",
          "name": "user",
          "type": "address"
        }
      ],
      "name": "getBalance",
      "outputs": [
        {
          "internalType": "uint256",
          "name": "",
          "type": "uint256"
        }
      ],
      "stateMutability": "view",
      "type": "function"
    },
    {
      "inputs": [
        {
          "internalType": "contract ICompoundComet",
          "name": "comet",
          "type": "address"
        }
      ],
      "name": "getBaseToken",
      "outputs": [
        {
          "internalType": "address",
          "name": "",
          "type": "address"
        }
      ],
      "stateMutability": "view",
      "type": "function"
    },
    {
      "inputs": [
        {
          "internalType": "address",
          "name": "token",
          "type": "address"
        },
        {
          "internalType": "address",
          "name": "user",
          "type": "address"
        }
      ],
      "name": "getBorrowBalance",
      "outputs": [
        {
          "internalType": "uint256",
          "name": "",
          "type": "uint256"
        }
      ],
      "stateMutability": "view",
      "type": "function"
    },
    {
      "inputs": [
        {
          "internalType": "address",
          "name": "token",
          "type": "address"
        },
        {
          "internalType": "address",
          "name": "user",
          "type": "address"
        }
      ],
      "name": "getBorrowBalanceCurrent",
      "outputs": [
        {
          "internalType": "uint256",
          "name": "",
          "type": "uint256"
        }
      ],
      "stateMutability": "view",
      "type": "function"
    },
    {
      "inputs": [
        {
          "internalType": "address",
          "name": "token",
          "type": "address"
        }
      ],
      "name": "getBorrowRate",
      "outputs": [
        {
          "internalType": "uint256",
          "name": "borrowRate",
          "type": "uint256"
        },
        {
          "internalType": "bool",
          "name": "success",
          "type": "bool"
        }
      ],
      "stateMutability": "view",
      "type": "function"
    },
    {
      "inputs": [
        {
          "internalType": "address",
          "name": "market",
          "type": "address"
        },
        {
          "internalType": "address",
          "name": "asset",
          "type": "address"
        }
      ],
      "name": "getCollateralPrice",
      "outputs": [
        {
          "internalType": "uint256",
          "name": "",
          "type": "uint256"
        }
      ],
      "stateMutability": "view",
      "type": "function"
    },
    {
      "inputs": [
        {
          "internalType": "address",
          "name": "baseToken",
          "type": "address"
        }
      ],
      "name": "getComet",
      "outputs": [
        {
          "internalType": "contract ICompoundComet",
          "name": "",
          "type": "address"
        }
      ],
      "stateMutability": "view",
      "type": "function"
    },
    {
      "inputs": [
        {
          "internalType": "address",
          "name": "token",
          "type": "address"
        },
        {
          "internalType": "address",
          "name": "account",
          "type": "address"
        }
      ],
      "name": "getCompoundData",
      "outputs": [
        {
          "internalType": "uint256",
          "name": "supplyRate",
          "type": "uint256"
        },
        {
          "internalType": "uint256",
          "name": "borrowRate",
          "type": "uint256"
        },
        {
          "internalType": "uint256",
          "name": "balance",
          "type": "uint256"
        },
        {
          "internalType": "uint256",
          "name": "borrowBalance",
          "type": "uint256"
        },
        {
          "internalType": "uint256",
          "name": "price",
          "type": "uint256"
        },
        {
          "internalType": "uint256",
          "name": "priceScale",
          "type": "uint256"
        }
      ],
      "stateMutability": "view",
      "type": "function"
    },
    {
      "inputs": [
        {
          "internalType": "address",
          "name": "token",
          "type": "address"
        },
        {
          "internalType": "address",
          "name": "account",
          "type": "address"
        }
      ],
      "name": "getDepositedCollaterals",
      "outputs": [
        {
          "internalType": "address[]",
          "name": "collaterals",
          "type": "address[]"
        },
        {
          "internalType": "uint128[]",
          "name": "balances",
          "type": "uint128[]"
        },
        {
          "internalType": "string[]",
          "name": "displayNames",
          "type": "string[]"
        }
      ],
      "stateMutability": "view",
      "type": "function"
    },
    {
      "inputs": [
        {
          "internalType": "address",
          "name": "",
          "type": "address"
        },
        {
          "internalType": "address",
          "name": "",
          "type": "address"
        }
      ],
      "name": "getLtv",
      "outputs": [
        {
          "internalType": "uint256",
          "name": "",
          "type": "uint256"
        }
      ],
      "stateMutability": "pure",
      "type": "function"
    },
    {
      "inputs": [
        {
          "internalType": "address",
          "name": "",
          "type": "address"
        }
      ],
      "name": "getMaxLtv",
      "outputs": [
        {
          "internalType": "uint256",
          "name": "",
          "type": "uint256"
        }
      ],
      "stateMutability": "pure",
      "type": "function"
    },
    {
      "inputs": [
        {
          "internalType": "address",
          "name": "token",
          "type": "address"
        },
        {
          "internalType": "address",
          "name": "user",
          "type": "address"
        }
      ],
      "name": "getPossibleCollaterals",
      "outputs": [
        {
          "internalType": "address[]",
          "name": "collateralAddresses",
          "type": "address[]"
        },
        {
          "internalType": "uint256[]",
          "name": "balances",
          "type": "uint256[]"
        },
        {
          "internalType": "string[]",
          "name": "symbols",
          "type": "string[]"
        },
        {
          "internalType": "uint8[]",
          "name": "decimals",
          "type": "uint8[]"
        }
      ],
      "stateMutability": "view",
      "type": "function"
    },
    {
      "inputs": [
        {
          "internalType": "address",
          "name": "token",
          "type": "address"
        }
      ],
      "name": "getPrice",
      "outputs": [
        {
          "internalType": "uint256",
          "name": "",
          "type": "uint256"
        }
      ],
      "stateMutability": "view",
      "type": "function"
    },
    {
      "inputs": [
        {
          "internalType": "address",
          "name": "market",
          "type": "address"
        },
        {
          "internalType": "address[]",
          "name": "tokens",
          "type": "address[]"
        }
      ],
      "name": "getPrices",
      "outputs": [
        {
          "internalType": "uint256[]",
          "name": "",
          "type": "uint256[]"
        }
      ],
      "stateMutability": "view",
      "type": "function"
    },
    {
      "inputs": [
        {
          "internalType": "address",
          "name": "token",
          "type": "address"
        }
      ],
      "name": "getSupplyRate",
      "outputs": [
        {
          "internalType": "uint256",
          "name": "supplyRate",
          "type": "uint256"
        },
        {
          "internalType": "bool",
          "name": "success",
          "type": "bool"
        }
      ],
      "stateMutability": "view",
      "type": "function"
    },
    {
      "inputs": [
        {
          "internalType": "address",
          "name": "market",
          "type": "address"
        }
      ],
      "name": "getSupportedCollaterals",
      "outputs": [
        {
          "internalType": "address[]",
          "name": "collateralAddresses",
          "type": "address[]"
        }
      ],
      "stateMutability": "view",
      "type": "function"
    },
    {
      "inputs": [
        {
          "internalType": "address",
          "name": "market",
          "type": "address"
        },
        {
          "internalType": "address",
          "name": "collateral",
          "type": "address"
        }
      ],
      "name": "isCollateralSupported",
      "outputs": [
        {
          "internalType": "bool",
          "name": "isSupported",
          "type": "bool"
        }
      ],
      "stateMutability": "view",
      "type": "function"
    },
    {
      "inputs": [
        {
          "internalType": "address",
          "name": "token",
          "type": "address"
        },
        {
          "internalType": "contract AggregatorV3Interface",
          "name": "feed",
          "type": "address"
        }
      ],
      "name": "overrideFeed",
      "outputs": [],
      "stateMutability": "nonpayable",
      "type": "function"
    },
    {
      "inputs": [
        {
          "internalType": "address",
          "name": "",
          "type": "address"
        }
      ],
      "name": "overrideFeeds",
      "outputs": [
        {
          "internalType": "contract AggregatorV3Interface",
          "name": "",
          "type": "address"
        }
      ],
      "stateMutability": "view",
      "type": "function"
    },
    {
      "inputs": [],
      "name": "owner",
      "outputs": [
        {
          "internalType": "address",
          "name": "",
          "type": "address"
        }
      ],
      "stateMutability": "view",
      "type": "function"
    },
    {
      "inputs": [],
      "name": "renounceOwnership",
      "outputs": [],
      "stateMutability": "nonpayable",
      "type": "function"
    },
    {
      "inputs": [
        {
          "internalType": "address",
          "name": "baseToken",
          "type": "address"
        },
        {
          "internalType": "address",
          "name": "comet_",
          "type": "address"
        }
      ],
      "name": "setCometForBase",
      "outputs": [],
      "stateMutability": "nonpayable",
      "type": "function"
    },
    {
      "inputs": [
        {
          "internalType": "address",
          "name": "writeGateway_",
          "type": "address"
        }
      ],
      "name": "setWriteGateway",
      "outputs": [],
      "stateMutability": "nonpayable",
      "type": "function"
    },
    {
      "inputs": [],
      "name": "syncAllCometsFromWriteGateway",
      "outputs": [],
      "stateMutability": "nonpayable",
      "type": "function"
    },
    {
      "inputs": [
        {
          "internalType": "address",
          "name": "baseToken",
          "type": "address"
        }
      ],
      "name": "syncCometFromWriteGateway",
      "outputs": [],
      "stateMutability": "nonpayable",
      "type": "function"
    },
    {
      "inputs": [
        {
          "internalType": "address",
          "name": "",
          "type": "address"
        }
      ],
      "name": "tokenToComet",
      "outputs": [
        {
          "internalType": "contract ICompoundComet",
          "name": "",
          "type": "address"
        }
      ],
      "stateMutability": "view",
      "type": "function"
    },
    {
      "inputs": [
        {
          "internalType": "address",
          "name": "newOwner",
          "type": "address"
        }
      ],
      "name": "transferOwnership",
      "outputs": [],
      "stateMutability": "nonpayable",
      "type": "function"
    },
    {
      "inputs": [],
      "name": "writeGateway",
      "outputs": [
        {
          "internalType": "address",
          "name": "",
          "type": "address"
        }
      ],
      "stateMutability": "view",
      "type": "function"
    }
  ],
  "transactionHash": "0x63f3c9822f28e5b86c44416cb1204768a5119c32cba8262d03f319fae38d50ae",
  "args": [
    "0x0BE61223F99E57b8b8B7033a77B54Adc7f7cF027"
  ],
  "numDeployments": 4,
  "solcInputHash": "7d6cf9fe3a0dd7107ffb2116fb947481",
  "bytecode": "0x60803460b857601f61295538819003918201601f19168301916001600160401b0383118484101760bc5780849260209460405283398101031260b857516001600160a01b0381169081900360b857801560a5575f80546001600160a01b031981168317825560405192916001600160a01b03909116907f8be0079c531659141344cd1fd0a4f28419497f9722a3daafe3b4186f6b6457e09080a361288490816100d18239f35b631e4fbdf760e01b5f525f60045260245ffd5b5f80fd5b634e487b7160e01b5f52604160045260245ffdfe60806040526004361015610011575f80fd5b5f3560e01c80630c10fd0f1461021f5780630d1fe0881461021a578063104e999d14610215578063118e31b71461019d57806324bddcfd1461021057806326e46ed31461020b5780632a8e3a49146102065780633613d5271461020157806341976e09146101fc5780636072aa07146101f7578063647e0c20146101f257806366e2d09b146101ed57806369e65e49146101e85780636b5441a9146101e3578063715018a6146101de578063755f62ce146101d957806378466113146101d45780638ca28635146101cf5780638da5cb5b146101ca57806391aa9c6f146101c55780639f2204e8146101c0578063be305bf8146101bb578063c9475cd7146101b6578063cc2255aa146101b1578063d4fac45d146101ac578063d5316477146101a7578063d71275f6146101a2578063e94201c71461019d578063e9db3c9f14610198578063f2dbd07014610193578063f2f1be1e1461018e578063f2fde38b146101895763f5125d3f14610184575f80fd5b611864565b6117db565b611798565b61177f565b6114d7565b610667565b61140b565b61137e565b6112fa565b6111a0565b6110e8565b6110cd565b610fba565b610d8b565b610d64565b610cf7565b610cd4565b610cb9565b610c62565b610b40565b610ac6565b610a8a565b610a53565b610a19565b6109ea565b610970565b6107a3565b61075f565b6106f8565b61047e565b6102da565b610239565b6001600160a01b0381160361023557565b5f80fd5b346102355760203660031901126102355760046020813561025981610224565b60405163c55dae6360e01b815292839182906001600160a01b03165afa80156102d5576102a2915f916102a6575b506040516001600160a01b0390911681529081906020820190565b0390f35b6102c8915060203d6020116102ce575b6102c081836118b4565b8101906118e3565b5f610287565b503d6102b6565b6118f8565b34610235575f366003190112610235576005546040516001600160a01b039091168152602090f35b60409060031901126102355760043561031a81610224565b9060243561032781610224565b90565b90602080835192838152019201905f5b8181106103475750505090565b82516001600160a01b031684526020938401939092019160010161033a565b90602080835192838152019201905f5b8181106103835750505090565b8251845260209384019390920191600101610376565b9080602083519182815201916020808360051b8301019401925f915b8383106103c457505050505090565b909192939460208080600193601f19868203018752818a518051918291828552018484015e5f828201840152601f01601f1916010197019594919091019201906103b5565b9290610440926104246104329260808752608087019061032a565b908582036020870152610366565b908382036040850152610399565b906060818303910152602080835192838152019201905f5b8181106104655750505090565b825160ff16845260209384019390920191600101610458565b346102355761049561048f36610302565b906120e0565b905f915f5b82518110156104ed576104cc6104c06104b38386611917565b516001600160801b031690565b6001600160801b031690565b6104d9575b60010161049a565b926104e5600191611944565b9390506104d1565b50926104f88361198a565b926105028161198a565b9461051561050f836119bc565b9261198a565b955f945f5b8151811015610656576105336104c06104b38385611917565b610540575b60010161051a565b9561057761055e6105518989611917565b516001600160a01b031690565b610568838b611917565b6001600160a01b039091169052565b6105876104c06104b38985611917565b6105918285611917565b5261059c8785611917565b516105a78287611917565b526105b28186611917565b50600460206105d66105ca6105ca6105518c8c611917565b6001600160a01b031690565b60405163313ce56760e01b815292839182905afa9182156102d5576106178b6001948361061c955f92610624575b5061060f9192611917565b9060ff169052565b611944565b969050610538565b61060f92506106499060203d811161064f575b61064181836118b4565b810190611a13565b91610604565b503d610637565b604051806102a28b88878d85610409565b3461023557602061067736610302565b91906001600160a01b039061068b90611d33565b604051630dd3126d60e21b81526001600160a01b03909416600485015283916024918391165afa80156102d5576020915f916106cb575b50604051908152f35b6106eb9150823d84116106f1575b6106e381836118b4565b810190611a27565b5f6106c2565b503d6106d9565b346102355760403660031901126102355761075d60043561071881610224565b6024359061072582610224565b61072d612808565b6001600160a01b039081165f90815260026020526040902080546001600160a01b03191692909116919091179055565b005b346102355760203660031901126102355760043561077c81610224565b6001600160a01b039081165f90815260016020908152604091829020549151919092168152f35b34610235576020366003190112610235576004356107c081610224565b6107c8612808565b60405163c55dae6360e01b81526001600160a01b0382169190602081600481865afa9081156102d5575f91610940575b506001600160a01b0381169161087d90610813841515611a36565b61085e6108436105ca6108368660018060a01b03165f52600160205260405f2090565b546001600160a01b031690565b6001600160a01b039094165f90815260016020526040902090565b80546001600160a01b0319166001600160a01b03909216919091179055565b6001600160a01b0383165f9081526004602052604090206108a8906108a4905b5460ff1690565b1590565b610909575b82825f51602061282f5f395f51905f525f80a36001600160a01b031690811515806108ff575b6108d957005b7f526edd5dd90f5bf0182679e6bfd9599001c52b92e97523563c3302d3a030e2965f80a4005b50828214156108d3565b6001600160a01b0383165f908152600460205260409020610932905b805460ff19166001179055565b61093b83611a8d565b6108ad565b610959915060203d6020116102ce576102c081836118b4565b5f6107f8565b906020610327928181520190610366565b346102355760403660031901126102355760043561098d81610224565b60243567ffffffffffffffff8111610235573660238201121561023557806004013567ffffffffffffffff8111610235573660248260051b84010111610235576102a29260246109de930190611af7565b6040519182918261095f565b34610235576020366003190112610235576020610a11600435610a0c81610224565b611bb4565b604051908152f35b3461023557602036600319011261023557610a3e600435610a3981610224565b611d33565b6040516001600160a01b039091168152602090f35b3461023557602036600319011261023557610a6f600435610224565b60206040515f8152f35b90602061032792818152019061032a565b34610235576020366003190112610235576102a2610ab2600435610aad81610224565b611eeb565b60405191829160208352602083019061032a565b3461023557610ad761048f36610302565b610aef6040939293519260608452606084019061032a565b8281036020840152602080855192838152019401905f5b818110610b215784806102a288878382036040850152610399565b82516001600160801b0316865260209586019590920191600101610b06565b3461023557602036600319011261023557600435610b5d81610224565b6001600160a01b038082165f9081526001602052604081205490928392909116610b94575b50604080519182529115156020820152f35b610ba392506105ca9150611d33565b604051637eb7113160e01b8152602081600481855afa80156102d557610bee926020925f92610c43575b50604051808095819463d955759d60e01b8352600483019190602083019252565b03915afa80156102d55767ffffffffffffffff915f91610c14575b50166001905f610b82565b610c36915060203d602011610c3c575b610c2e81836118b4565b810190612309565b5f610c09565b503d610c24565b610c5b919250833d85116106f1576106e381836118b4565b905f610bcd565b34610235575f36600319011261023557610c7a612808565b5f80546001600160a01b0319811682556001600160a01b03167f8be0079c531659141344cd1fd0a4f28419497f9722a3daafe3b4186f6b6457e08280a3005b34610235575f366003190112610235576102a2610ab261231d565b34610235576020610ced610ce736610302565b9061236e565b6040519015158152f35b3461023557602036600319011261023557600435610d1481610224565b610d1c612808565b600580546001600160a01b039283166001600160a01b0319821681179092559091167f864aa5b65d00254be4a57e93185f66797e0b72b1d648eb9a569ea297fbd259375f80a3005b34610235575f366003190112610235575f546040516001600160a01b039091168152602090f35b34610235575f36600319011261023557610da3612808565b6005546004905f90610dd1906105ca906001600160a01b03165b6105ca6001600160a01b038216151561249d565b604051633aafb16760e11b815292839182905afa9081156102d5575f91610f98575b505f5b815181101561075d57610e0f6105ca6105518385611917565b60405163c55dae6360e01b815291906001600160a01b03811690602084600481855afa80156102d5576001945f91610f7a575b5082858060a01b03610e6a6105ca6108368560018060a01b03165f52600160205260405f2090565b1603610e7a575b50505001610df6565b610ebc610e9d6105ca6108368460018060a01b03165f52600160205260405f2090565b6001600160a01b0383165f90815260016020526040902090939061085e565b6001600160a01b0383165f908152600460205260409020610ee0906108a49061089d565b610f4c575b848060a01b03169082825f51602061282f5f395f51905f525f80a3848060a01b03169081151580610f42575b15610e71577f526edd5dd90f5bf0182679e6bfd9599001c52b92e97523563c3302d3a030e2965f80a45f8080610e71565b5082821415610f11565b6001600160a01b0383165f908152600460205260409020610f6c90610925565b610f7583611a8d565b610ee5565b610f92915060203d81116102ce576102c081836118b4565b5f610e42565b610fb491503d805f833e610fac81836118b4565b8101906124e9565b5f610df3565b346102355761085e610fcb36610302565b90610fd4612808565b6001600160a01b03811691821515806110bb575b610ff19061256d565b6110366110146105ca6108368560018060a01b03165f52600160205260405f2090565b6001600160a01b039384165f9081526001602052604090209383169590938691565b6001600160a01b0381165f90815260046020526040902061105a906108a49061089d565b61108b575b5082825f51602061282f5f395f51905f525f80a36001600160a01b031690811515806108ff576108d957005b6001600160a01b0381165f9081526004602052604090206110b591906110b090610925565b611a8d565b5f61105f565b506001600160a01b0381161515610fe8565b34610235575f366003190112610235576102a2610ab26125b7565b34610235575f366003190112610235576003546111048161198a565b905f5b81811061111c57604051806102a28582610a79565b8060206111486105ca6105ca611133600496611a75565b905460039190911b1c6001600160a01b031690565b60405163c55dae6360e01b815293849182905afa9182156102d55760019261117c915f91611182575b506105688387611917565b01611107565b61119a915060203d81116102ce576102c081836118b4565b5f611171565b34610235576020366003190112610235576004356111bd81610224565b6111c5612808565b6005546111de906105ca906001600160a01b0316610dbd565b6040516326e46ed360e01b81526001600160a01b038316600482015290602090829060249082905afa9081156102d5575f916112db575b506001600160a01b0381169161122c83151561271b565b61124f610e9d6105ca6108368460018060a01b03165f52600160205260405f2090565b6001600160a01b0383165f908152600460205260409020611273906108a49061089d565b6112ad575b6001600160a01b03169082825f51602061282f5f395f51905f525f80a36001600160a01b031690811515806108ff576108d957005b6001600160a01b0383165f9081526004602052604090206112cd90610925565b6112d683611a8d565b611278565b6112f4915060203d6020116102ce576102c081836118b4565b5f611215565b3461023557602061130a36610302565b91906001600160a01b039061131e90611d33565b6040516370a0823160e01b81526001600160a01b03909416600485015283916024918391165afa9081156102d5575f9161135f575b50604051908152602090f35b611378915060203d6020116106f1576106e381836118b4565b5f611353565b34610235575f366003190112610235576113966125b7565b6113a0815161198a565b905f5b81518110156113fd578060206113c46105ca6105ca61055160049688611917565b60405163c55dae6360e01b815293849182905afa9182156102d5576001926113f7915f9161118257506105688387611917565b016113a3565b604051806102a28582610a79565b346102355760203660031901126102355760043561142881610224565b6001600160a01b038082165f908152600160205260408120549092839290911661145e5750604080519182529115156020820152f35b61146d92506105ca9150611d33565b604051637eb7113160e01b8152602081600481855afa80156102d557610bee926020925f926114b8575b506040518080958194634fd41dad60e11b8352600483019190602083019252565b6114d0919250833d85116106f1576106e381836118b4565b905f611497565b34610235576114e536610302565b6114f16105ca83611d33565b604051637eb7113160e01b81529190602083600481845afa9283156102d55761153e936020915f91611762575b506040518095819263d955759d60e01b8352600483019190602083019252565b0381845afa9283156102d5575f93611741575b50604051637eb7113160e01b815290602082600481845afa9182156102d55761159e926020915f91611724575b5060405180948192634fd41dad60e11b8352600483019190602083019252565b0381845afa9182156102d5575f92611703575b506040516370a0823160e01b81526001600160a01b038416600482015294602086602481855afa9384156102d557611617965f956116e1575b50604051630dd3126d60e21b81526001600160a01b03909116600482015295602090879081906024820190565b0381855afa9081156102d5576004965f926116bb575b50611639602091611bb4565b926040519788809263a0fbddaf60e01b82525afa9384156102d55767ffffffffffffffff965f95611698575b506040805196881687529387166020870152928501929092526060840191909152608083015290911660a082015260c090f35b6102a295506116b59060203d602011610c3c57610c2e81836118b4565b94611665565b60209192506116d961163991833d85116106f1576106e381836118b4565b92915061162d565b60209195506116fc90823d84116106f1576106e381836118b4565b94906115ea565b61171d91925060203d602011610c3c57610c2e81836118b4565b905f6115b1565b61173b9150823d84116106f1576106e381836118b4565b5f61157e565b61175b91935060203d602011610c3c57610c2e81836118b4565b915f611551565b6117799150823d84116106f1576106e381836118b4565b5f61151e565b34610235576020610a1161179236610302565b90612773565b34610235576020366003190112610235576004356117b581610224565b60018060a01b03165f526002602052602060018060a01b0360405f205416604051908152f35b34610235576020366003190112610235576004356117f881610224565b611800612808565b6001600160a01b03168015611851575f80546001600160a01b03198116831782556001600160a01b0316907f8be0079c531659141344cd1fd0a4f28419497f9722a3daafe3b4186f6b6457e09080a3005b631e4fbdf760e01b5f525f60045260245ffd5b346102355761187236610302565b505060206040515f8152f35b634e487b7160e01b5f52604160045260245ffd5b610100810190811067ffffffffffffffff8211176118af57604052565b61187e565b90601f8019910116810190811067ffffffffffffffff8211176118af57604052565b51906118e182610224565b565b90816020910312610235575161032781610224565b6040513d5f823e3d90fd5b634e487b7160e01b5f52603260045260245ffd5b805182101561192b5760209160051b010190565b611903565b634e487b7160e01b5f52601160045260245ffd5b5f1981146119525760010190565b611930565b67ffffffffffffffff81116118af5760051b60200190565b6040519061197e6020836118b4565b5f808352366020840137565b9061199482611957565b6119a160405191826118b4565b82815280926119b2601f1991611957565b0190602036910137565b906119c682611957565b6119d360405191826118b4565b82815280926119e4601f1991611957565b01905f5b8281106119f457505050565b8060606020809385010152016119e8565b519060ff8216820361023557565b908160209103126102355761032790611a05565b90816020910312610235575190565b15611a3d57565b60405162461bcd60e51b815260206004820152601060248201526f0436f6d706f756e643a20626173653d360841b6044820152606490fd5b60035481101561192b5760035f5260205f2001905f90565b600354680100000000000000008110156118af576001810160035560035481101561192b5760035f527fc2575a0e9e593c00f959f8c92f12db2869c3395a3b0502d05e2516446f71f85b0180546001600160a01b0319166001600160a01b03909216919091179055565b9290611b028361198a565b915f5b84811015611b3a57600190611b298160051b850135611b2381610224565b88612773565b611b338287611917565b5201611b05565b50935050905090565b519069ffffffffffffffffffff8216820361023557565b908160a091031261023557611b6e81611b43565b91602082015191604081015191610327608060608401519301611b43565b51906001600160801b038216820361023557565b908160209103126102355761032790611b8c565b6001600160a01b038181165f908152600260205260409020611bd9906105ca90610836565b16611cb9576105ca611bea91611d33565b60405163e7dad6bd60e01b815290602082600481845afa9182156102d5575f92611c98575b506001600160a01b038216611c245750505f90565b6040516341976e0960e01b81526001600160a01b03909216600483015260209082908180602481015b03915afa80156102d5576001600160801b03915f91611c6b57501690565b611c8d915060203d602011611c91575b611c8581836118b4565b810190611ba0565b1690565b503d611c7b565b611cb291925060203d6020116102ce576102c081836118b4565b905f611c0f565b60a0611cdd6105ca61083660049460018060a01b03165f52600260205260405f2090565b604051633fabe5a360e21b815292839182905afa9081156102d5575f91611d02575090565b611d24915060a03d60a011611d2c575b611d1c81836118b4565b810190611b5a565b505050905090565b503d611d12565b6001600160a01b0381165f908152600160205260409020611d5390610836565b6001600160a01b038116611e345750600554611d77906001600160a01b03166105ca565b80611dc2575b60405162461bcd60e51b815260206004820152601960248201527f436f6d706f756e643a20636f6d6574206e6f7420666f756e64000000000000006044820152606490fd5b6040516326e46ed360e01b81526001600160a01b0392831660048201529160209183916024918391165afa5f9181611e13575b50611e01575b80611d7d565b6001600160a01b03811615611dfb5790565b611e2d91925060203d6020116102ce576102c081836118b4565b905f611df5565b905090565b519067ffffffffffffffff8216820361023557565b908161010091031261023557611ee360e060405192611e6c84611892565b611e7581611a05565b8452611e83602082016118d6565b6020850152611e94604082016118d6565b6040850152611ea560608201611e39565b6060850152611eb660808201611e39565b6080850152611ec760a08201611e39565b60a0850152611ed860c08201611e39565b60c085015201611b8c565b60e082015290565b604051636072aa0760e01b81526001600160a01b03919091166004820152602081602481305afa5f918161202b575b50611f28575061032761196f565b60405163a46fe83b60e01b81526001600160a01b03919091169190602081600481865afa80156102d55760ff915f9161200c575b501690611f688261198a565b5f5b60ff811690848210156120035760405163c8c7fe6b60e01b815260ff8216600482015290610100826024818a5afa80156102d55760ff93610568611fc66020611fcd946001975f91611fd4575b5001516001600160a01b031690565b9187611917565b0116611f6a565b611ff691506101003d8111611ffc575b611fee81836118b4565b810190611e4e565b5f611fb7565b503d611fe4565b50509150915090565b612025915060203d60201161064f5761064181836118b4565b5f611f5c565b61204591925060203d6020116102ce576102c081836118b4565b905f611f1a565b919082604091031261023557610327602061206684611b8c565b9301611b8c565b6020818303126102355780519067ffffffffffffffff8211610235570181601f820112156102355780519067ffffffffffffffff82116118af57604051926120bf601f8401601f1916602001856118b4565b8284526020838301011161023557815f9260208093018386015e8301015290565b6105ca6120ef91939293611d33565b9060405163a46fe83b60e01b8152602081600481865afa80156102d55760ff915f916122ea575b5016906121228261198a565b9361212c836119bc565b926121368161198a565b945f90815b8360ff84161061214c575050505050565b60405163c8c7fe6b60e01b815260ff8416600482015261010081602481865afa9081156102d5576121b8916020915f916122cb575b5001805160408051632b92a07d60e01b81526001600160a01b038a8116600483015290921660248301529092839081906044820190565b0381875afa9182156102d5578b905f93612283575b506121f96105ca6105ca846105515f956105688a6121f360049a5160018060a01b031690565b92611917565b6040516395d89b4160e01b815292839182905afa9283156102d55761061760019361224a838e6122448f839060ff9b6122589a5f91612261575b5061223e8383611917565b52611917565b50611917565b906001600160801b03169052565b9301169161213b565b61227d91503d805f833e61227581836118b4565b81019061206d565b5f612233565b5f9193506105ca6105ca6004946105516122b66121f99560403d81116122c4575b6122ae81836118b4565b81019061204c565b5097955050945050506121cd565b503d6122a4565b6122e491506101003d8111611ffc57611fee81836118b4565b5f612181565b612303915060203d60201161064f5761064181836118b4565b5f612116565b908160209103126102355761032790611e39565b60405190600354808352826020810160035f5260205f20925f5b81811061234c5750506118e1925003836118b4565b84546001600160a01b0316835260019485019487945060209093019201612337565b604051636072aa0760e01b81526001600160a01b03919091166004820152909190602081602481305afa5f918161247c575b506123ab57505f9150565b60405163a46fe83b60e01b815292906001600160a01b0316602084600481845afa9384156102d5575f9461245b575b505f5b60ff851660ff8216106123f257505f93505050565b60405163c8c7fe6b60e01b815260ff8216600482015261010081602481865afa9081156102d557612435916020915f91611fd4575001516001600160a01b031690565b6001600160a01b038481169116146124525760010160ff166123dd565b50600193505050565b61247591945060203d60201161064f5761064181836118b4565b925f6123da565b61249691925060203d6020116102ce576102c081836118b4565b905f6123a0565b156124a457565b60405162461bcd60e51b815260206004820152601f60248201527f436f6d706f756e643a2077726974652067617465776179206e6f7420736574006044820152606490fd5b6020818303126102355780519067ffffffffffffffff821161023557019080601f8301121561023557815161251d81611957565b9261252b60405194856118b4565b81845260208085019260051b82010192831161023557602001905b8282106125535750505090565b60208091835161256281610224565b815201910190612546565b1561257457565b60405162461bcd60e51b815260206004820152600e60248201526d436f6d706f756e643a207a65726f60901b6044820152606490fd5b9190820180921161195257565b6125bf61231d565b6005549091906001600160a01b0316806126c157506125dc61196f565b905b6125f36125ee84518451906125aa565b61198a565b925f915f5b825181101561262d578061262761261461055160019487611917565b61056861262088611944565b978a611917565b016125f8565b509290505f5b81518110156126bb576126496105518284611917565b5f6001600160a01b038216815b86811061268f575b5050906001929115612672575b5001612633565b6126899061056861268287611944565b9689611917565b5f61266b565b816126a06105ca610551848d611917565b146126ad57600101612656565b50600191508190505f61265e565b50508252565b6004905f906126d8906001600160a01b03166105ca565b604051633aafb16760e11b815292839182905afa9081156102d5575f91612701575b50906125de565b61271591503d805f833e610fac81836118b4565b5f6126fa565b1561272257565b60405162461bcd60e51b8152602060048201526024808201527f436f6d706f756e643a20636f6d6574206e6f7420696e207772697465206761746044820152636577617960e01b6064820152608490fd5b6101006127856105ca6127af93611d33565b604051631d9df61760e11b81526001600160a01b0390941660048501529291829081906024820190565b0381855afa9182156102d5576127dc6040611c4d946020945f91611fd4575001516001600160a01b031690565b6040516341976e0960e01b81526001600160a01b03909116600482015292839190829081906024820190565b5f546001600160a01b0316330361281b57565b63118cdaa760e01b5f523360045260245ffdfebd7bf039bc2e612983f7f581f4b5d456d978092d546243d55a7b3f8594fb9796a264697066735822122052419828ebd66bad3b7b335750a968a3de4f45d66f7b359c9b9a7a12b4e1bc4e64736f6c634300081e0033",
  "devdoc": {
    "details": "Contains all read/view functions from v1, separate from write operations",
    "errors": {
      "OwnableInvalidOwner(address)": [
        {
          "details": "The owner is not a valid owner account. (eg. `address(0)`)"
        }
      ],
      "OwnableUnauthorizedAccount(address)": [
        {
          "details": "The caller account is not authorized to perform an operation."
        }
      ]
    },
    "kind": "dev",
    "methods": {
      "owner()": {
        "details": "Returns the address of the current owner."
      },
      "renounceOwnership()": {
        "details": "Leaves the contract without owner. It will not be possible to call `onlyOwner` functions. Can only be called by the current owner. NOTE: Renouncing ownership will leave the contract without an owner, thereby disabling any functionality that is only available to the owner."
      },
      "transferOwnership(address)": {
        "details": "Transfers ownership of the contract to a new account (`newOwner`). Can only be called by the current owner."
      }
    },
    "title": "CompoundGatewayView",
    "version": 1
  },
  "userdoc": {
    "kind": "user",
    "methods": {
      "allActiveBaseTokens()": {
        "notice": "Get all active base tokens (from allActiveComets)"
      },
      "allActiveComets()": {
        "notice": "Get all active Comets (union of local + write gateway registries)"
      },
      "allBaseTokens()": {
        "notice": "Get all base tokens for registered Comets"
      },
      "getComet(address)": {
        "notice": "Get Comet for base token, falling back to write gateway if not found locally"
      },
      "setWriteGateway(address)": {
        "notice": "Set the write gateway address for syncing Comet registry"
      },
      "syncAllCometsFromWriteGateway()": {
        "notice": "Sync all Comets from write gateway"
      },
      "syncCometFromWriteGateway(address)": {
        "notice": "Sync a Comet from the write gateway to this view gateway"
      }
    },
    "notice": "View-only gateway for Compound Comet protocol",
    "version": 1
  },
  "storageLayout": {
    "storage": [
      {
        "astId": 1578,
        "contract": "contracts/v2/gateways/compound/CompoundGatewayView.sol:CompoundGatewayView",
        "label": "_owner",
        "offset": 0,
        "slot": "0",
        "type": "t_address"
      },
      {
        "astId": 12370,
        "contract": "contracts/v2/gateways/compound/CompoundGatewayView.sol:CompoundGatewayView",
        "label": "tokenToComet",
        "offset": 0,
        "slot": "1",
        "type": "t_mapping(t_address,t_contract(ICompoundComet)19834)"
      },
      {
        "astId": 12375,
        "contract": "contracts/v2/gateways/compound/CompoundGatewayView.sol:CompoundGatewayView",
        "label": "overrideFeeds",
        "offset": 0,
        "slot": "2",
        "type": "t_mapping(t_address,t_contract(AggregatorV3Interface)1569)"
      },
      {
        "astId": 12378,
        "contract": "contracts/v2/gateways/compound/CompoundGatewayView.sol:CompoundGatewayView",
        "label": "_comets",
        "offset": 0,
        "slot": "3",
        "type": "t_array(t_address)dyn_storage"
      },
      {
        "astId": 12382,
        "contract": "contracts/v2/gateways/compound/CompoundGatewayView.sol:CompoundGatewayView",
        "label": "_isRegistered",
        "offset": 0,
        "slot": "4",
        "type": "t_mapping(t_address,t_bool)"
      },
      {
        "astId": 12384,
        "contract": "contracts/v2/gateways/compound/CompoundGatewayView.sol:CompoundGatewayView",
        "label": "writeGateway",
        "offset": 0,
        "slot": "5",
        "type": "t_address"
      }
    ],
    "types": {
      "t_address": {
        "encoding": "inplace",
        "label": "address",
        "numberOfBytes": "20"
      },
      "t_array(t_address)dyn_storage": {
        "base": "t_address",
        "encoding": "dynamic_array",
        "label": "address[]",
        "numberOfBytes": "32"
      },
      "t_bool": {
        "encoding": "inplace",
        "label": "bool",
        "numberOfBytes": "1"
      },
      "t_contract(AggregatorV3Interface)1569": {
        "encoding": "inplace",
        "label": "contract AggregatorV3Interface",
        "numberOfBytes": "20"
      },
      "t_contract(ICompoundComet)19834": {
        "encoding": "inplace",
        "label": "contract ICompoundComet",
        "numberOfBytes": "20"
      },
      "t_mapping(t_address,t_bool)": {
        "encoding": "mapping",
        "key": "t_address",
        "label": "mapping(address => bool)",
        "numberOfBytes": "32",
        "value": "t_bool"
      },
      "t_mapping(t_address,t_contract(AggregatorV3Interface)1569)": {
        "encoding": "mapping",
        "key": "t_address",
        "label": "mapping(address => contract AggregatorV3Interface)",
        "numberOfBytes": "32",
        "value": "t_contract(AggregatorV3Interface)1569"
      },
      "t_mapping(t_address,t_contract(ICompoundComet)19834)": {
        "encoding": "mapping",
        "key": "t_address",
        "label": "mapping(address => contract ICompoundComet)",
        "numberOfBytes": "32",
        "value": "t_contract(ICompoundComet)19834"
      }
    }
  }
}