{
  "address": "0x442Cc078414C64Aaeae670640D1C52c1913c822E",
  "abi": [
    {
      "inputs": [
        {
          "internalType": "address",
          "name": "owner",
          "type": "address"
        }
      ],
      "stateMutability": "nonpayable",
      "type": "constructor"
    },
    {
      "inputs": [
        {
          "internalType": "address",
          "name": "target",
          "type": "address"
        }
      ],
      "name": "AddressEmptyCode",
      "type": "error"
    },
    {
      "inputs": [
        {
          "internalType": "address",
          "name": "account",
          "type": "address"
        }
      ],
      "name": "AddressInsufficientBalance",
      "type": "error"
    },
    {
      "inputs": [],
      "name": "BadIndex",
      "type": "error"
    },
    {
      "inputs": [],
      "name": "BadInitiator",
      "type": "error"
    },
    {
      "inputs": [],
      "name": "FailedInnerCall",
      "type": "error"
    },
    {
      "inputs": [],
      "name": "FlashLoanNotEnabled",
      "type": "error"
    },
    {
      "inputs": [],
      "name": "FlashLoanRequiresTransientStack",
      "type": "error"
    },
    {
      "inputs": [],
      "name": "FractionTooLarge",
      "type": "error"
    },
    {
      "inputs": [],
      "name": "GatewayAlreadyExists",
      "type": "error"
    },
    {
      "inputs": [],
      "name": "GatewayNotFound",
      "type": "error"
    },
    {
      "inputs": [],
      "name": "InvalidFlashParams",
      "type": "error"
    },
    {
      "inputs": [],
      "name": "InvalidPool",
      "type": "error"
    },
    {
      "inputs": [],
      "name": "NestedFlashNotAllowed",
      "type": "error"
    },
    {
      "inputs": [],
      "name": "NoValue",
      "type": "error"
    },
    {
      "inputs": [],
      "name": "NotAuthorized",
      "type": "error"
    },
    {
      "inputs": [
        {
          "internalType": "address",
          "name": "owner",
          "type": "address"
        }
      ],
      "name": "OwnableInvalidOwner",
      "type": "error"
    },
    {
      "inputs": [
        {
          "internalType": "address",
          "name": "account",
          "type": "address"
        }
      ],
      "name": "OwnableUnauthorizedAccount",
      "type": "error"
    },
    {
      "inputs": [],
      "name": "ProviderNotConfigured",
      "type": "error"
    },
    {
      "inputs": [],
      "name": "ReentrancyGuardReentrantCall",
      "type": "error"
    },
    {
      "inputs": [
        {
          "internalType": "address",
          "name": "token",
          "type": "address"
        }
      ],
      "name": "SafeERC20FailedOperation",
      "type": "error"
    },
    {
      "inputs": [],
      "name": "TokenMismatch",
      "type": "error"
    },
    {
      "inputs": [],
      "name": "TokenNotInPool",
      "type": "error"
    },
    {
      "inputs": [],
      "name": "UnauthorizedFlashCaller",
      "type": "error"
    },
    {
      "inputs": [],
      "name": "Underflow",
      "type": "error"
    },
    {
      "inputs": [],
      "name": "UniswapV3RequiresPoolAddress",
      "type": "error"
    },
    {
      "inputs": [],
      "name": "UnsupportedFlashLoanProvider",
      "type": "error"
    },
    {
      "inputs": [],
      "name": "ZeroAmount",
      "type": "error"
    },
    {
      "inputs": [],
      "name": "ZeroToken",
      "type": "error"
    },
    {
      "anonymous": false,
      "inputs": [
        {
          "indexed": true,
          "internalType": "address",
          "name": "previousOwner",
          "type": "address"
        },
        {
          "indexed": true,
          "internalType": "address",
          "name": "newOwner",
          "type": "address"
        }
      ],
      "name": "OwnershipTransferred",
      "type": "event"
    },
    {
      "inputs": [
        {
          "internalType": "bytes32",
          "name": "",
          "type": "bytes32"
        }
      ],
      "name": "aaveCompatiblePools",
      "outputs": [
        {
          "internalType": "address",
          "name": "",
          "type": "address"
        }
      ],
      "stateMutability": "view",
      "type": "function"
    },
    {
      "inputs": [
        {
          "internalType": "string",
          "name": "protocolName",
          "type": "string"
        },
        {
          "internalType": "address",
          "name": "gateway",
          "type": "address"
        }
      ],
      "name": "addGateway",
      "outputs": [],
      "stateMutability": "nonpayable",
      "type": "function"
    },
    {
      "inputs": [
        {
          "components": [
            {
              "internalType": "string",
              "name": "protocolName",
              "type": "string"
            },
            {
              "internalType": "bytes",
              "name": "data",
              "type": "bytes"
            }
          ],
          "internalType": "struct ProtocolTypes.ProtocolInstruction[]",
          "name": "instructions",
          "type": "tuple[]"
        },
        {
          "internalType": "address",
          "name": "caller",
          "type": "address"
        }
      ],
      "name": "authorizeInstructions",
      "outputs": [
        {
          "internalType": "address[]",
          "name": "targets",
          "type": "address[]"
        },
        {
          "internalType": "bytes[]",
          "name": "data",
          "type": "bytes[]"
        }
      ],
      "stateMutability": "view",
      "type": "function"
    },
    {
      "inputs": [
        {
          "components": [
            {
              "internalType": "uint256",
              "name": "amount",
              "type": "uint256"
            },
            {
              "internalType": "address",
              "name": "token",
              "type": "address"
            },
            {
              "internalType": "address",
              "name": "user",
              "type": "address"
            },
            {
              "internalType": "enum KapanRouter.RouterInstructionType",
              "name": "instructionType",
              "type": "uint8"
            }
          ],
          "internalType": "struct KapanRouter.RouterInstruction[]",
          "name": "instrs",
          "type": "tuple[]"
        }
      ],
      "name": "authorizeRouter",
      "outputs": [
        {
          "internalType": "address[]",
          "name": "targets",
          "type": "address[]"
        },
        {
          "internalType": "bytes[]",
          "name": "data",
          "type": "bytes[]"
        }
      ],
      "stateMutability": "view",
      "type": "function"
    },
    {
      "inputs": [],
      "name": "balancerV2Vault",
      "outputs": [
        {
          "internalType": "contract IFlashLoanProvider",
          "name": "",
          "type": "address"
        }
      ],
      "stateMutability": "view",
      "type": "function"
    },
    {
      "inputs": [],
      "name": "balancerV3Vault",
      "outputs": [
        {
          "internalType": "contract IVaultV3",
          "name": "",
          "type": "address"
        }
      ],
      "stateMutability": "view",
      "type": "function"
    },
    {
      "inputs": [
        {
          "components": [
            {
              "internalType": "string",
              "name": "protocolName",
              "type": "string"
            },
            {
              "internalType": "bytes",
              "name": "data",
              "type": "bytes"
            }
          ],
          "internalType": "struct ProtocolTypes.ProtocolInstruction[]",
          "name": "instructions",
          "type": "tuple[]"
        },
        {
          "internalType": "address",
          "name": "caller",
          "type": "address"
        }
      ],
      "name": "deauthorizeInstructions",
      "outputs": [
        {
          "internalType": "address[]",
          "name": "targets",
          "type": "address[]"
        },
        {
          "internalType": "bytes[]",
          "name": "data",
          "type": "bytes[]"
        }
      ],
      "stateMutability": "view",
      "type": "function"
    },
    {
      "inputs": [
        {
          "internalType": "address",
          "name": "asset",
          "type": "address"
        },
        {
          "internalType": "uint256",
          "name": "amount",
          "type": "uint256"
        },
        {
          "internalType": "uint256",
          "name": "premium",
          "type": "uint256"
        },
        {
          "internalType": "address",
          "name": "initiator",
          "type": "address"
        },
        {
          "internalType": "bytes",
          "name": "params",
          "type": "bytes"
        }
      ],
      "name": "executeOperation",
      "outputs": [
        {
          "internalType": "bool",
          "name": "",
          "type": "bool"
        }
      ],
      "stateMutability": "nonpayable",
      "type": "function"
    },
    {
      "inputs": [
        {
          "internalType": "string",
          "name": "",
          "type": "string"
        }
      ],
      "name": "gateways",
      "outputs": [
        {
          "internalType": "contract IGateway",
          "name": "",
          "type": "address"
        }
      ],
      "stateMutability": "view",
      "type": "function"
    },
    {
      "inputs": [
        {
          "internalType": "address",
          "name": "",
          "type": "address"
        }
      ],
      "name": "isAaveCompatiblePool",
      "outputs": [
        {
          "internalType": "bool",
          "name": "",
          "type": "bool"
        }
      ],
      "stateMutability": "view",
      "type": "function"
    },
    {
      "inputs": [],
      "name": "morphoBlue",
      "outputs": [
        {
          "internalType": "address",
          "name": "",
          "type": "address"
        }
      ],
      "stateMutability": "view",
      "type": "function"
    },
    {
      "inputs": [
        {
          "internalType": "uint256",
          "name": "assets",
          "type": "uint256"
        },
        {
          "internalType": "bytes",
          "name": "data",
          "type": "bytes"
        }
      ],
      "name": "onMorphoFlashLoan",
      "outputs": [],
      "stateMutability": "nonpayable",
      "type": "function"
    },
    {
      "inputs": [],
      "name": "owner",
      "outputs": [
        {
          "internalType": "address",
          "name": "",
          "type": "address"
        }
      ],
      "stateMutability": "view",
      "type": "function"
    },
    {
      "inputs": [
        {
          "components": [
            {
              "internalType": "string",
              "name": "protocolName",
              "type": "string"
            },
            {
              "internalType": "bytes",
              "name": "data",
              "type": "bytes"
            }
          ],
          "internalType": "struct ProtocolTypes.ProtocolInstruction[]",
          "name": "instructions",
          "type": "tuple[]"
        }
      ],
      "name": "processProtocolInstructions",
      "outputs": [],
      "stateMutability": "nonpayable",
      "type": "function"
    },
    {
      "inputs": [
        {
          "internalType": "contract IERC20[]",
          "name": "tokens",
          "type": "address[]"
        },
        {
          "internalType": "uint256[]",
          "name": "amounts",
          "type": "uint256[]"
        },
        {
          "internalType": "uint256[]",
          "name": "feeAmounts",
          "type": "uint256[]"
        },
        {
          "internalType": "bytes",
          "name": "userData",
          "type": "bytes"
        }
      ],
      "name": "receiveFlashLoan",
      "outputs": [],
      "stateMutability": "nonpayable",
      "type": "function"
    },
    {
      "inputs": [
        {
          "internalType": "bytes",
          "name": "userData",
          "type": "bytes"
        }
      ],
      "name": "receiveFlashLoanV3",
      "outputs": [],
      "stateMutability": "nonpayable",
      "type": "function"
    },
    {
      "inputs": [],
      "name": "renounceOwnership",
      "outputs": [],
      "stateMutability": "nonpayable",
      "type": "function"
    },
    {
      "inputs": [
        {
          "internalType": "address",
          "name": "pool",
          "type": "address"
        }
      ],
      "name": "setAavePool",
      "outputs": [],
      "stateMutability": "nonpayable",
      "type": "function"
    },
    {
      "inputs": [
        {
          "internalType": "address",
          "name": "provider",
          "type": "address"
        }
      ],
      "name": "setBalancerV2",
      "outputs": [],
      "stateMutability": "nonpayable",
      "type": "function"
    },
    {
      "inputs": [
        {
          "internalType": "address",
          "name": "vault",
          "type": "address"
        }
      ],
      "name": "setBalancerV3",
      "outputs": [],
      "stateMutability": "nonpayable",
      "type": "function"
    },
    {
      "inputs": [
        {
          "internalType": "address",
          "name": "morpho",
          "type": "address"
        }
      ],
      "name": "setMorphoBluePool",
      "outputs": [],
      "stateMutability": "nonpayable",
      "type": "function"
    },
    {
      "inputs": [
        {
          "internalType": "address",
          "name": "factoryOrSentinel",
          "type": "address"
        }
      ],
      "name": "setUniswapV3Enabled",
      "outputs": [],
      "stateMutability": "nonpayable",
      "type": "function"
    },
    {
      "inputs": [
        {
          "internalType": "address",
          "name": "pool",
          "type": "address"
        }
      ],
      "name": "setZeroLendPool",
      "outputs": [],
      "stateMutability": "nonpayable",
      "type": "function"
    },
    {
      "inputs": [
        {
          "internalType": "address",
          "name": "newOwner",
          "type": "address"
        }
      ],
      "name": "transferOwnership",
      "outputs": [],
      "stateMutability": "nonpayable",
      "type": "function"
    },
    {
      "inputs": [],
      "name": "uniswapV3Factory",
      "outputs": [
        {
          "internalType": "address",
          "name": "",
          "type": "address"
        }
      ],
      "stateMutability": "view",
      "type": "function"
    },
    {
      "inputs": [
        {
          "internalType": "uint256",
          "name": "fee0",
          "type": "uint256"
        },
        {
          "internalType": "uint256",
          "name": "fee1",
          "type": "uint256"
        },
        {
          "internalType": "bytes",
          "name": "data",
          "type": "bytes"
        }
      ],
      "name": "uniswapV3FlashCallback",
      "outputs": [],
      "stateMutability": "nonpayable",
      "type": "function"
    }
  ],
  "transactionHash": "0xc90f1c1d79fe5088d32c5ad384fc9a310076155e5861c376099ca5715ab75524",
  "args": [
    "0x0BE61223F99E57b8b8B7033a77B54Adc7f7cF027"
  ],
  "numDeployments": 14,
  "solcInputHash": "86e9b4950924f9ee73e2edbbeee31fc9",
  "bytecode": "0x60803460bc57601f6156fc38819003918201601f19168301916001600160401b0383118484101760c05780849260209460405283398101031260bc57516001600160a01b0381169081900360bc57801560a9575f80546001600160a01b031981168317825560405192916001600160a01b03909116907f8be0079c531659141344cd1fd0a4f28419497f9722a3daafe3b4186f6b6457e09080a36001805561562790816100d58239f35b631e4fbdf760e01b5f525f60045260245ffd5b5f80fd5b634e487b7160e01b5f52604160045260245ffdfe60806040526004361015610011575f80fd5b5f3560e01c80630acefd35146101b457806310c0a157146101af5780631b11d0ff146101aa57806328c18416146101a557806331f57072146101a0578063340592071461019b578063349f937c146101965780635b54918214610191578063715018a61461018c5780638da5cb5b14610187578063a6ed7be314610182578063ba3dba8a1461017d578063bba8a3dc14610178578063bf11f4af14610173578063bf1e4cf61461016e578063d7ff41bf14610169578063db236a1f14610164578063e30b155e1461015f578063e85113031461015a578063e8ce1bfa14610155578063e9cbafb014610150578063f04f27071461014b578063f07b6e6414610146578063f0dbeea514610141578063f2fde38b1461013c5763faea56e214610137575f80fd5b6118da565b611851565b61173f565b61170d565b611670565b61157c565b611554565b61150d565b6114c0565b611463565b6109cf565b61091d565b61078f565b61074f565b61071f565b6106b4565b6105ca565b610573565b61054b565b610516565b6104cf565b6103e2565b61039b565b610262565b6101ef565b6101c7565b5f9103126101c357565b5f80fd5b346101c3575f3660031901126101c3576003546040516001600160a01b039091168152602090f35b346101c3575f3660031901126101c3576002546040516001600160a01b039091168152602090f35b6001600160a01b038116036101c357565b359061023382610217565b565b9181601f840112156101c3578235916001600160401b0383116101c357602083818601950101116101c357565b346101c35760a03660031901126101c35760043561027f81610217565b60243560443560643561029181610217565b6084356001600160401b0381116101c3576102b0903690600401610235565b92909160ff60075460a01c161561038c576008546001600160a01b0316330361037d57306001600160a01b039091160361036e578301809311610369576102f89136916113e3565b506103016122f7565b916040519061030f82611327565b6001600160a01b0316808252602082018390528351909190156103645760208401528251156103645761034461035393613392565b61034c613483565b3390612cd7565b6040516001815280602081015b0390f35b61207c565b612016565b630377b97960e11b5f5260045ffd5b6364427b5760e11b5f5260045ffd5b630a3fad8360e01b5f5260045ffd5b346101c35760203660031901126101c3576004356103b881610217565b6103c0612dca565b600280546001600160a01b0319166001600160a01b0392909216919091179055005b346101c35760403660031901126101c3576004356024356001600160401b0381116101c357610415903690600401610235565b60ff60075460a01c161561038c576008546001600160a01b0316330361037d578101906040818303126101c35780359161044e83610217565b60208201356001600160401b0381116101c35761046b9201611419565b506001600160a01b03169061047e6122f7565b9160405161048b81611327565b818152826020820152835115610364576020840152825115610364576104b36104cd93613392565b6104bb613483565b6007546001600160a01b031690612cd7565b005b346101c35760203660031901126101c3576004356104ec81610217565b6104f4612dca565b600780546001600160a01b0319166001600160a01b0392909216919091179055005b346101c35760203660031901126101c3576104cd60043561053681610217565b61053e612dca565b61054661205a565b612df0565b346101c3575f3660031901126101c3576006546040516001600160a01b039091168152602090f35b346101c3575f3660031901126101c35761058b612dca565b5f80546001600160a01b0319811682556001600160a01b03167f8be0079c531659141344cd1fd0a4f28419497f9722a3daafe3b4186f6b6457e08280a3005b346101c3575f3660031901126101c3575f546040516001600160a01b039091168152602090f35b805180835260209291819084018484015e5f828201840152601f01601f1916010190565b604081016040825282518091526020606083019301905f5b818110610695575050506020818303910152815180825260208201916020808360051b8301019401925f915b83831061066857505050505090565b9091929394602080610686600193601f1986820301875289516105f1565b97019301930191939290610659565b82516001600160a01b031685526020948501949092019160010161062d565b346101c35760203660031901126101c3576004356001600160401b0381116101c357366023820112156101c35780600401356001600160401b0381116101c3573660248260071b840101116101c357602461070f92016121b2565b9061036060405192839283610615565b346101c35760203660031901126101c3576104cd60043561073f81610217565b610747612dca565b6105466122a7565b346101c35760203660031901126101c35760043561076c81610217565b60018060a01b03165f526005602052602060ff60405f2054166040519015158152f35b346101c35760203660031901126101c3576004356001600160401b0381116101c3576107bf903690600401610235565b9060ff60075460a01c161561038c576008546001600160a01b0316330361037d576107ec828201826122cd565b60035490936001600160a01b03928316939092909161081391165b6001600160a01b031690565b91823b156101c35760405163ae63932960e01b81526001600160a01b038516600482015230602482015260448101869052925f908490606490829084905af19283156109045761086a93610909575b5036916113e3565b506108758282612c8d565b600354610896908390610890906001600160a01b0316610807565b83612e8d565b6003546108ab906001600160a01b0316610807565b91823b156101c3576040516315afd40960e01b81526001600160a01b039290921660048301526024820152905f908290604490829084905af18015610904576108f057005b806108fe5f6104cd93611398565b806101b9565b6122ec565b806108fe5f61091793611398565b5f610862565b346101c35760203660031901126101c35760043561093a81610217565b610942612dca565b600680546001600160a01b0319166001600160a01b0392909216919091179055005b9181601f840112156101c3578235916001600160401b0383116101c3576020808501948460051b0101116101c357565b60406003198201126101c357600435906001600160401b0382116101c3576109be91600401610964565b90916024356109cc81610217565b90565b346101c3576109dd36610994565b6109e8929192612343565b926109fa6109f58261242f565b6120fc565b93610a0c610a078361242f565b61212e565b935f935f925b848410610aa857878787610a25816120fc565b91610a2f8261212e565b935f5b838110610a485760405180610360888883610615565b80610a81610a68610a5b6001948661219e565b516001600160a01b031690565b610a72838961219e565b6001600160a01b039091169052565b610a8b818561219e565b51610a96828961219e565b52610aa1818861219e565b5001610a32565b610aba84868598979a94969995612470565b610aec610ade610aca8380612492565b6040939193519283916020830195866124e4565b03601f198101835282611398565b519020610af76124f5565b14610cd357610b22610807610b15610b0f8480612492565b906126a5565b546001600160a01b031690565b906001600160a01b03821615610ca057828695949392610b9097610b56610b4e8560205f970190612492565b8101906126be565b610b5e612762565b90610b6882612181565b52610b7281612181565b506040516352ed587560e01b8152998a948593849360048501612a45565b03915afa968715610904575f945f965f99610c72575b505f5b8651811015610c3a57610bc2610807610a5b838a61219e565b151580610c26575b610bd7575b600101610ba9565b97610c1e600191610bf8610bee610a5b8d8c61219e565b610a72838a61219e565b610c028b8b61219e565b51610c0d828a61219e565b52610c18818961219e565b506120d7565b989050610bcf565b50610c31818961219e565b51511515610bca565b50945097919892969094508051610c5e575b506001905b0192959190939495610a12565b610c6b9060019295612f35565b9390610c4c565b9195509750610c949195503d805f833e610c8c8183611398565b810190612998565b9591949095975f610ba6565b50509291949593610ccd815f610cba600194869c9661219e565b52610cc3612046565b610c0d828a61219e565b94610c51565b60208199939998969594979801610cf5610ced8284612492565b810190612583565b915f610d01888d61219e565b52610d0a612046565b610d14888b61219e565b52610d1f878a61219e565b506060830160018151610d31816120be565b610d3a816120be565b03610eb05750505060408101516001600160a01b03858116911614610da3575b6020810151600192610ccd92610d9d929091906001600160a01b03165b9151610d93610d846113b9565b6001600160a01b039094168452565b6020830152612ed0565b946120d7565b602081018051610dbd90610807906001600160a01b031681565b604051636eb1769f60e11b81526001600160a01b03871660048201523060248201529290602090849060449082905afa93841561090457878c610d9d94600197610ccd975f91610e82575b50855111610e1e575b5050509350915050610d5a565b51610e3792610a72916001600160a01b03165b9261219e565b815160405163095ea7b360e01b60208201523060248201526044810191909152610e648160648101610ade565b610e6e898c61219e565b52610e79888b61219e565b50878c5f610e11565b610ea3915060203d8111610ea9575b610e9b8183611398565b810190612696565b5f610e08565b503d610e91565b6002819895989492939451610ec4816120be565b610ecd816120be565b03610f3057505091610eef610ee7610ccd93600195612492565b81019061267a565b80915051875111610f0057506120d7565b610f2990610f0c6113b9565b905f82525f60208301525190610f22828a61219e565b528761219e565b505f610c18565b6003819895989493929451610f44816120be565b610f4d816120be565b03610f76575050506020810151600192610ccd92610d9d929091906001600160a01b0316610d77565b9091925060048151610f87816120be565b610f90816120be565b03610fb857505050610ccd610d9d600192610fa96113b9565b905f82525f6020830152612ed0565b8051610fc3816120be565b610fcc816120be565b611039575091610fec610fe4610ccd93600195612492565b81019061263c565b509291505081518151115f1461102c5761100a610d9d92518261219e565b51906020820161102561101d8251612445565b6103e8900490565b9052612ed0565b610d9d9150610fa96113b9565b60058151611046816120be565b61104f816120be565b03611145575091611070611068610ccd93600195612492565b81019061260d565b90809250518351115f1461112c579161110a611116610d9d9461109485518561219e565b51936110c06110b86110b36110ae6020890195865161245d565b61202a565b6125f2565b612710900490565b9151808311611124575b6110d7836110fd92612600565b966110e06113b9565b905f82525f602083015251906110f6828561219e565b528261219e565b5084516001600160a01b03165b91610d93610d846113b9565b91516001600160a01b031690565b9150816110ca565b505061113d610d9d91610fa96113b9565b610fa96113b9565b60068151611152816120be565b61115b816120be565b0361123f57509161117c611174610ccd93600195612492565b8101906125c2565b908092505183518091109081611234575b5015611226579161110a610d9d936112186111a985518561219e565b51916111f26111cc6111bc83518861219e565b5160208087015191015190612039565b966111d56113b9565b905f82525f602083015251906111eb828961219e565b528661219e565b506111fb6113b9565b905f82525f60208301525190611211828761219e565b528461219e565b50516001600160a01b031690565b5050610d9d90610fa96113b9565b90508151105f61118d565b6007909693965161124f816120be565b611258816120be565b1461126b575b5050610ccd6001916120d7565b9461127f611174610ccd9360019598612492565b908092505183518091109081611308575b50156112f4579161110a6112e0936112186112ac85518561219e565b51916112b981518661219e565b51602084810151910151908181106112e8576111f2916111cc91612600565b6111d56113b9565b945b9161125e565b50506111f25f966112d8565b505061130290610fa96113b9565b946112e2565b90508151105f611290565b634e487b7160e01b5f52604160045260245ffd5b604081019081106001600160401b0382111761134257604052565b611313565b608081019081106001600160401b0382111761134257604052565b602081019081106001600160401b0382111761134257604052565b60c081019081106001600160401b0382111761134257604052565b90601f801991011681019081106001600160401b0382111761134257604052565b60405190610233604083611398565b6001600160401b03811161134257601f01601f191660200190565b9291926113ef826113c8565b916113fd6040519384611398565b8294818452818301116101c3578281602093845f960137010152565b9080601f830112156101c3578160206109cc933591016113e3565b805191908290602001825e015f815290565b60206114589160405192838092611434565b600981520301902090565b346101c35760203660031901126101c3576004356001600160401b0381116101c3576114956020913690600401611419565b6114a26040518092611434565b6009815281900382019020546040516001600160a01b039091168152f35b346101c35760403660031901126101c3576004356001600160401b0381116101c3576114f36104cd913690600401610235565b6024359161150083610217565b611508612dca565b612b18565b346101c35760203660031901126101c35760043561152a81610217565b611532612dca565b600380546001600160a01b0319166001600160a01b0392909216919091179055005b346101c3575f3660031901126101c3576007546040516001600160a01b039091168152602090f35b346101c35760603660031901126101c3576004356024356044356001600160401b0381116101c3576115b2903690600401610235565b60ff60079492945460a01c161561038c576008546001600160a01b0316330361037d57830160a0848203126101c3578335926115ed84610217565b6020850135926115fc84610217565b6040860135916060870135936001600160401b0385116101c3578761162b60809261164e976104cd9b01611419565b5001359461163886612b9e565b6001600160a01b03169415611668575090612039565b916116598383612c8d565b6001600160a01b031690612e8d565b905090612039565b346101c35760803660031901126101c3576004356001600160401b0381116101c3576116a0903690600401610964565b6024356001600160401b0381116101c3576116bf903690600401610964565b6044939193356001600160401b0381116101c3576116e1903690600401610964565b91606435956001600160401b0387116101c3576117056104cd973690600401610235565b969095612ba8565b346101c35760203660031901126101c3576004355f526004602052602060018060a01b0360405f205416604051908152f35b346101c35760203660031901126101c3576004356001600160401b0381116101c35761176f903690600401610964565b6002600154146118425760026001555f5b8181106117c357506117928183612fcb565b9190156117b3576117a292613247565b6117aa613379565b6104cd60018055565b90506117be9161306c565b6117a2565b6117ce818385612470565b6117de610ade610aca8380612492565b5190206117e96124f5565b036117f8575b50600101611780565b604061180e610b4e83602061181c950190612492565b01516001600160a01b031690565b336001600160a01b0390911603611833575f6117ef565b63ea8e4eb560e01b5f5260045ffd5b633ee5aeb560e01b5f5260045ffd5b346101c35760203660031901126101c35760043561186e81610217565b611876612dca565b6001600160a01b031680156118c7575f80546001600160a01b03198116831782556001600160a01b0316907f8be0079c531659141344cd1fd0a4f28419497f9722a3daafe3b4186f6b6457e09080a3005b631e4fbdf760e01b5f525f60045260245ffd5b346101c3576118e836610994565b906118f1612343565b906118fe6109f58261242f565b9261190b610a078361242f565b945f935f5b8481106119e957875f8789825b8281106119b85750611937611931846120fc565b9361212e565b935f915f5b8481106119525760405180610360898983610615565b611962610807610a5b838561219e565b61196f575b60010161193c565b926119b0600191611990611986610a5b888761219e565b610a72838b61219e565b61199a868661219e565b516119a5828b61219e565b52610c18818a61219e565b939050611967565b6119c8610807610a5b838561219e565b6119d5575b60010161191d565b926119e16001916120d7565b9390506119cd565b90919295946119fc8286869a979a612470565b96611a0d610ade610aca8a80612492565b519020611a186124f5565b14611c2457611a30610807610b15610b0f8b80612492565b916001600160a01b03831615611be65790849291611a5d610b4e611a52612762565b9b6020810190612492565b611a668b612181565b52611a708a612181565b505f828b611a92604051998a93849363aad11a3f60e01b855260048501612a45565b0381865afa968715610904575f965f98611bbc575b505f915b8751831015611b2f57611b0a818c8c600194878e8e611ad0610807610a5b858461219e565b15611b125790611af3611aff9596610a7286610e31610a5b88611af8999861219e565b61219e565b519261219e565b52610c18818d61219e565b920191611aab565b505050611b2191505f9261219e565b528b611aff82610e31612046565b999a839850859750611b629491999c96959250925f93604051958694859384936352ed587560e01b855260048501612a45565b03915afa908115610904575f91611b9f575b508051611b8b575b506001905b0193919093611910565b611b989060019294612f35565b9290611b7c565b611bb391503d805f833e610c8c8183611398565b9150505f611b74565b909750611bdc9196503d805f833e611bd48183611398565b810190612c46565b959095965f611aa7565b879850600192505f611c0082611c1e9498999c969a61219e565b52611c09612046565b611c13828c61219e565b52610c18818b61219e565b95611b81565b939497919596909260208201611c3d610ced8285612492565b926060840160018151611c4f816120be565b611c58816120be565b03611d2a575050506040820151600192611c1e92611cfa926001600160a01b0390811690891603611d00576020820151611ca2908c90610a72908a906001600160a01b0316610e31565b60405163095ea7b360e01b60208201523060248201525f6044820152611cda888e611af384606481015b03601f198101865285611398565b52611ce5878d61219e565b505b60208201516001600160a01b0316610d77565b936120d7565b5f611d0b888d61219e565b528b611d1988610e31612046565b52611d24878d61219e565b50611ce7565b60028197959293949751611d3d816120be565b611d46816120be565b03611d8b57505091611d60610ee7611c1e93600195612492565b80915051865111611d78575b505f611c00828b61219e565b611d84906111d56113b9565b505f611d6c565b6003819795979493929451611d9f816120be565b611da8816120be565b03611ddd575050506020810151600192611c1e92611dd1929091906001600160a01b0316610d77565b935f611c00828b61219e565b9091925060048151611dee816120be565b611df7816120be565b03611e1057505050611c1e611dd1600192610fa96113b9565b8051611e1b816120be565b611e24816120be565b611e7f575091611e3c610fe4611c1e93600195612492565b509291505081518151115f14611e6c57611e5a611dd192518261219e565b5190612ed0565b5f611c00828b61219e565b611e799150610fa96113b9565b93611e61565b60058151611e8c816120be565b611e95816120be565b03611ee3575091611eae611068611c1e93600195612492565b90809250518351115f14611ed2579161110a611116611dd19461109485518561219e565b505061113d611e7991610fa96113b9565b60068151611ef0816120be565b611ef9816120be565b03611f58575091611f12611174611c1e93600195612492565b908092505183518091109081611f4d575b5015611f3f579161110a611dd1936112186111a985518561219e565b5050611e7990610fa96113b9565b90508151105f611f23565b60079095939551611f68816120be565b611f71816120be565b14611f84575b5050611c1e6001916120d7565b93611f98611174611c1e9360019597612492565b90809250518351809110908161200b575b5015611ff7579161110a611fc5936112186112ac85518561219e565b935b5f611fd2828b61219e565b52611fdb612046565b611fe5828c61219e565b52611ff0818b61219e565b5091611f77565b505061200590610fa96113b9565b93611fc7565b90508151105f611fa9565b634e487b7160e01b5f52601160045260245ffd5b90612710820180921161036957565b9190820180921161036957565b60405190612055602083611398565b5f8252565b60405190612069604083611398565b60048252636161766560e01b6020830152565b634e487b7160e01b5f52603260045260245ffd5b91908110156103645760071b0190565b600811156101c357565b634e487b7160e01b5f52602160045260245ffd5b600811156120c857565b6120aa565b356109cc816120a0565b5f1981146103695760010190565b6001600160401b0381116113425760051b60200190565b90612106826120e5565b6121136040519182611398565b8281528092612124601f19916120e5565b0190602036910137565b90612138826120e5565b6121456040519182611398565b8281528092612156601f19916120e5565b01905f5b82811061216657505050565b80606060208093850101520161215a565b356109cc81610217565b8051156103645760200190565b8051600110156103645760400190565b80518210156103645760209160051b010190565b915f925f5b83811061226457506121d16121cb856120fc565b9461212e565b925f905f5b8181106121e35750505050565b6121ee818386612090565b60016121fc606083016120cd565b612205816120be565b14612214575b506001016121d6565b83610ade610cc3836122368c610a726001989a610e31602061225d9a01612177565b60405163095ea7b360e01b6020820152306024820152903560448201529182906064820190565b929061220b565b600161227c6060612276848887612090565b016120cd565b612285816120be565b14612293575b6001016121b7565b9361229f6001916120d7565b94905061228b565b604051906122b6604083611398565b60088252671e995c9bdb195b9960c21b6020830152565b91908260409103126101c357602082356122e681610217565b92013590565b6040513d5f823e3d90fd5b604080519091906123088382611398565b6001815291601f1901825f5b82811061232057505050565b60209060405161232f81611327565b5f81525f8382015282828501015201612314565b60405190612352602083611398565b5f80835282815b82811061236557505050565b60209060405161237481611327565b5f81525f8382015282828501015201612359565b604051606091906123998382611398565b6002815291601f1901825f5b8281106123b157505050565b6020906040516123c081611327565b5f81525f83820152828285010152016123a5565b906123de826120e5565b6123eb6040519182611398565b82815280926123fc601f19916120e5565b01905f5b82811061240c57505050565b60209060405161241b81611327565b5f81525f8382015282828501015201612400565b9060038202918083046003149015171561036957565b906103e98202918083046103e9149015171561036957565b8181029291811591840414171561036957565b91908110156103645760051b81013590603e19813603018212156101c3570190565b903590601e19813603018212156101c357018035906001600160401b0382116101c3576020019181360383136101c357565b908060209392818452848401375f828201840152601f01601f1916010190565b9160206109cc9381815201916124c4565b60405160208101906020825260066040820152653937baba32b960d11b606082015260608152612526608082611398565b51902090565b91908260809103126101c35760405161254481611347565b606080829480358452602081013561255b81610217565b6020850152604081013561256e81610217565b604085015201359161257f836120a0565b0152565b906080828203126101c3576109cc9161252c565b5160088110156120c85790565b91908260209103126101c3576040516125bc81611362565b91358252565b909160c0828403126101c3576109cc6125db848461252c565b9360a06125eb82608087016125a4565b94016125a4565b5f1981019190821161036957565b9190820391821161036957565b909160c0828403126101c35760a06122e6612628858561252c565b94608085016125a4565b600611156101c357565b60e0818303126101c357612650828261252c565b9260c061266e608084013561266481612632565b9460a085016125a4565b9201356109cc81610217565b919060a0838203126101c3578060806125eb6109cc938661252c565b908160209103126101c3575190565b6020908260405193849283378101600981520301902090565b6020818303126101c3578035906001600160401b0382116101c3570160c0818303126101c357604051916126f18361137d565b8135600a8110156101c357835261270a60208301610228565b602084015261271b60408301610228565b60408401526060820135606084015260808201356001600160401b0381116101c3578261274f8360a09361275a9601611419565b6080860152016125a4565b60a082015290565b61276c60016120e5565b9061277a6040519283611398565b6001825281601f1961278c60016120e5565b01905f5b82811061279c57505050565b6020906040516127ab8161137d565b5f81525f838201525f60408201525f6060820152606060808201526040516127d281611362565b5f815260a082015282828501015201612790565b9080601f830112156101c35781516127fd816120e5565b9261280b6040519485611398565b81845260208085019260051b8201019283116101c357602001905b8282106128335750505090565b60208091835161284281610217565b815201910190612826565b81601f820112156101c357602081519101612867826113c8565b926128756040519485611398565b828452828201116101c357815f926020928386015e8301015290565b9080601f830112156101c35781516128a8816120e5565b926128b66040519485611398565b81845260208085019260051b820101918383116101c35760208201905b8382106128e257505050505090565b81516001600160401b0381116101c3576020916129048784809488010161284d565b8152019101906128d3565b81601f820112156101c357805190612926826120e5565b926129346040519485611398565b82845260208085019360061b830101918183116101c357602001925b82841061295e575050505090565b6040848303126101c3576020604091825161297881611327565b865161298381610217565b81528287015183820152815201930192612950565b916060838303126101c35782516001600160401b0381116101c357826129bf9185016127e6565b9260208101516001600160401b0381116101c357836129df918301612891565b9260408201516001600160401b0381116101c3576109cc920161290f565b90602080835192838152019201905f5b818110612a1a5750505090565b825180516001600160a01b031685526020908101518186015260409094019390920191600101612a0d565b93929091936060810160608252835180915260808201602060808360051b8501019501915f5b818110612a99575050506001600160a01b0390951660208201529293506109cc9260408184039101526129fd565b90919295607f198582030184528651908151600a8110156120c8576001928260209392849352848060a01b03838301511683820152848060a01b0360408301511660408201526060820151606082015260a080612b05608085015160c0608086015260c08501906105f1565b9301515191015298019401929101612a6b565b9190916040518382823760098185019081528190036020019020546001600160a01b0392831692168214612b9957612b5083826126a5565b546001600160a01b0316612b8a5761023392612b6b916126a5565b80546001600160a01b0319166001600160a01b03909216919091179055565b630a20941760e31b5f5260045ffd5b505050565b801515036101c357565b9694959391909260ff60075460a01c161561038c576008546001600160a01b0316330361037d571561036457359415610364573584018094116103695780156103645784612c1885612c2295612c12612c1d96612c0a6108076102339c612177565b9236916113e3565b50612c8d565b612c3d565b612177565b600254612c37906001600160a01b0316610807565b90612e8d565b90156103645790565b9190916040818403126101c35780516001600160401b0381116101c35783612c6f9183016127e6565b9260208201516001600160401b0381116101c3576109cc9201612891565b612c956122f7565b9160405191612ca383611327565b6001600160a01b03168252602082015281511561036457602082015280511561036457612ccf90613392565b610233613483565b60405163095ea7b360e01b602082019081526001600160a01b038416602483015260448201949094529192612d4290612d138460648101611ccc565b83516001600160a01b038416915f91829182855af190612d31613594565b82612d98575b5081612d9157501590565b612d4b57505050565b60405163095ea7b360e01b60208201526001600160a01b0390931660248401525f604484015261023392612d8c90612d868160648101610ade565b826135d8565b6135d8565b3b15919050565b80519192508115918215612db0575b5050905f612d37565b612dc392506020809183010191016135c3565b5f80612da7565b5f546001600160a01b03163303612ddd57565b63118cdaa760e01b5f523360045260245ffd5b81612b6b612e3c92604051612e0d81610ade602082018095611434565b5190205f818152600460205260409020546001600160a01b031680612e74575b505f52600460205260405f2090565b6001600160a01b038116612e4d5750565b6001600160a01b03165f90815260056020526040902061023390805460ff19166001179055565b5f52600560205260405f2060ff1981541690555f612e2d565b60405163a9059cbb60e01b60208201526001600160a01b039092166024830152604482019290925261023391612d8c82606481015b03601f198101845283611398565b91909180516001810180911161036957612ee9906123d4565b915f5b8251811015612f1f5780612f026001928561219e565b51612f0d828761219e565b52612f18818661219e565b5001612eec565b5092612f319151906110f6828561219e565b5090565b9182518251810180911161036957612f4c906123d4565b905f5b8451811015612f825780612f656001928761219e565b51612f70828661219e565b52612f7b818561219e565b5001612f4f565b50915f5b8151811015612fc45780612fbd612f9f6001938561219e565b51612fab838951612039565b90612fb6828861219e565b528561219e565b5001612f86565b5090925050565b915f925f925f5b818110612fde57505050565b612fe9818385612470565b612ff9610ade610aca8380612492565b5190206130046124f5565b036130635760208101906130188282612492565b90501561305957613031610ced61303793606093612492565b01612597565b613040816120be565b1561304f576001905b01612fd2565b6001955093505050565b5050600190613049565b50600190613049565b90613075612343565b905f915b8183106130865750505050565b600190613094848487612470565b906130c0610ade6130a58480612492565b929060405192839160208301956020875260208701916124c4565b5190206130cb6124f5565b036130e2576130d991613737565b925b0191613079565b6130eb91613668565b926130db565b604051906130fe82611327565b60606020838281520152565b90613114826120e5565b6131216040519182611398565b8281528092613132601f19916120e5565b01905f5b82811061314257505050565b60209061314d6130f1565b82828501015201613136565b6040813603126101c3576040519061317082611327565b80356001600160401b0381116101c35761318d9036908301611419565b82526020810135906001600160401b0382116101c3576131af91369101611419565b602082015290565b602081016020825282518091526040820191602060408360051b8301019401925f915b8383106131e957505050505090565b9091929394602080613227600193603f198682030187528951908361321783516040845260408401906105f1565b92015190848184039101526105f1565b970193019301919392906131da565b9060206109cc9281815201906129fd565b61324f612343565b5f5b84811061332957506132666110b38585612600565b61326f8161310a565b905f5b8181106132e6575050936132d593610fe4936132c6610ade6132c16132cb966132b2610ade6132ad6102339d604051928391602083016131b7565b613d1e565b60405192839160208301613236565b613dbe565b612470565b6020810190612492565b6001600160a01b0316925090613e67565b8061330d6133086133016001946132fc8b6125f2565b612600565b8989612470565b613159565b613317828661219e565b52613322818561219e565b5001613272565b90600190613338838686612470565b90613349610ade610aca8480612492565b5190206133546124f5565b0361336a5761336291613737565b915b01613251565b61337391613668565b91613364565b61023360405161338a602082611398565b5f8152613dbe565b61339a614012565b916133b06133ab8451845190612039565b6123d4565b905f5b84518110156133e657806133c96001928761219e565b516133d4828661219e565b526133df818561219e565b50016133b3565b50915f5b815181101561340a5780613403612f9f6001938561219e565b50016133ea565b50506102339192506132c1610ade9160405192839160208301613236565b9060206109cc9281815201906105f1565b906020828203126101c35781516001600160401b0381116101c3576109cc920161290f565b90916134756109cc936040845260408401906129fd565b9160208184039101526105f1565b61348b6140cb565b819091515115613590575b80516040516134ad81610ade602082019485613428565b5190206134b86124f5565b036134e0576134c69061439b565b6134dd575b610233576134d76140cb565b90613496565b50565b6134f0610807610b158351611446565b6001600160a01b0381161561358157613530915f91602061350f614012565b920151918360405180968195829463ae4be46d60e01b84526004840161345e565b03925af1908115610904575f9161355f575b508051613550575b506134cb565b61355990613392565b5f61354a565b61357b91503d805f833e6135738183611398565b810190613439565b5f613542565b635d958a8b60e11b5f5260045ffd5b5050565b3d156135be573d906135a5826113c8565b916135b36040519384611398565b82523d5f602084013e565b606090565b908160209103126101c357516109cc81612b9e565b5f806136009260018060a01b03169360208151910182865af16135f9613594565b9083615553565b8051908115159182613628575b50506136165750565b635274afe760e01b5f5260045260245ffd5b61363b92506020809183010191016135c3565b155f8061360d565b9161365a6109cc94926040855260408501906129fd565b9260208185039101526124c4565b613678610b15610b0f8380612492565b906001600160a01b03821615613581576136bb9161369b8260205f940190612492565b91908360405180968195829463ae4be46d60e01b84528a60048501613643565b03925af1908115610904575f916136e1575b5080516136d8575090565b6109cc91612f35565b6136f591503d805f833e6135738183611398565b5f6136cd565b909160c0828403126101c357613711838361252c565b926080830135906001600160401b0382116101c35760a06125eb826109cc948701611419565b60208101613748610ced8284612492565b91606083018051613758816120be565b613761816120be565b61377457635049b04960e01b5f5260045ffd5b60018151613781816120be565b61378a816120be565b036137d9575050506040810151336001600160a01b0390911603611833576020810180516109cc9391610d7791610a5b906137cd906001600160a01b0316610807565b855190309033906149f1565b600281516137e6816120be565b6137ef816120be565b03613894575061380291610ee791612492565b80915051835111156138855761381981518461219e565b5180516001600160a01b031615613876576020810151612f319381613844575b5050506110e06113b9565b612c37604061385f61080761386e965160018060a01b031690565b9201516001600160a01b031690565b5f8080613839565b63ad1991f560e01b5f5260045ffd5b63779ffa5760e11b5f5260045ffd5b600381516138a1816120be565b6138aa816120be565b036138ca5750505060208101516109cc92906001600160a01b0316610d77565b90919250600481516138db816120be565b6138e4816120be565b03613a6857506138ff916138f791612492565b8101906136fb565b80939250518251111561388557604051602081019061392281610ade8585613428565b51902061392d6124f5565b03613a545750305b6001600160a01b0381161561358157602061396d61396561395786518661219e565b51516001600160a01b031690565b94518461219e565b51015160405163095ea7b360e01b81526001600160a01b0383811660048301525f6024830152909416602085806044810103815f855af1928315610904576139ef95602094613a39575b5060405163095ea7b360e01b81526001600160a01b0390911660048201526024810192909252909384919082905f9082906044820190565b03925af1918215610904576109cc92613a0c575b50610fa96113b9565b613a2d9060203d602011613a32575b613a258183611398565b8101906135c3565b613a03565b503d613a1b565b613a4f90853d8711613a3257613a258183611398565b6139b7565b610807610b15613a6392611446565b613935565b60058151613a75816120be565b613a7e816120be565b03613b1a5750613a919161106891612492565b90809250518351111561388557613aa982518461219e565b5180519091906001600160a01b0316158015613b0e575b613aff576127108111613af05761111661110a916109cc956110c06110b86110b36110ae6020890195865161245d565b631222751960e01b5f5260045ffd5b63f2365b5b60e01b5f5260045ffd5b50602082015115613ac0565b60068151613b27816120be565b613b30816120be565b03613c145750613b439161117491612492565b929080925051815180911090811591613c08575b5061388557613b6782518261219e565b5192613b7481518361219e565b5184519094906001600160a01b0316158015613bed575b6138765780516001600160a01b03168551613bae906001600160a01b0316610807565b6001600160a01b0390911603613bde5761121861110a926111f26111cc6109cc9860208087015191015190612039565b63936bb5ad60e01b5f5260045ffd5b508451613c02906001600160a01b0316610807565b15613b8b565b9050835110155f613b57565b60079051613c21816120be565b613c2a816120be565b14613c3457505090565b613c419161117491612492565b929080925051815180911090811591613d12575b5061388557613c6582518261219e565b51613c7184518361219e565b5181519091906001600160a01b0316158015613cf7575b6138765780516001600160a01b03168251613cab906001600160a01b0316610807565b6001600160a01b0390911603613bde576020810160208151930192835111613ce8576109cc956111f26111cc61110a956112189451905190612600565b63caccb6d960e01b5f5260045ffd5b508151613d0c906001600160a01b0316610807565b15613c88565b9050835110155f613c55565b805190817f33a7f7e91c7e5e97e4035e86e424aaeb97691c852dc81d823520f664cc2ca71c5d8160051c91601f811690815f5b858110613d975750613d64575b50505050565b601f19169091016020908101519190036101000a5f19011916905f5160206155b25f395f51905f52015d5f808080613d5e565b6001915060208160051b860101515f5160206155b25f395f51905f5282015d018290613d51565b805190817f5f92431fdc2b6bf66f91a326fa06b3fad6b4ab24047c9be12b7f412fbfbaa1ec5d8160051c91601f811690815f5b858110613e365750613e035750505050565b601f19169091016020908101519190036101000a5f19011916905f5160206155d25f395f51905f52015d5f808080613d5e565b6001915060208160051b860101515f5160206155d25f395f51905f5282015d018290613df1565b600611156120c857565b90613e70614012565b81518151111561388557613e8591519061219e565b5180519092906001600160a01b03161561387657602083019182511561400357613eae81613e5d565b80613ed5575050905161023391906001600160a01b03169051613ecf612046565b91615171565b613ede81613e5d565b60018103613efe57505090519051610233916001600160a01b0316615017565b613f0781613e5d565b60028103613f39575050905161023391906001600160a01b03169051613f2b612046565b91613f3461205a565b614f64565b613f4281613e5d565b60038103613f6f575050905161023391906001600160a01b03169051613f66612046565b91613f346122a7565b613f7b81939293613e5d565b60048103613fc157506001600160a01b03821615613fb25791519151610233926001600160a01b0316613fac612046565b92614ba4565b631f356b8560e11b5f5260045ffd5b6005919250613fcf81613e5d565b03613ff457905161023391906001600160a01b03169051613fee612046565b91614a33565b63882f810360e01b5f5260045ffd5b631f2a200560e01b5f5260045ffd5b7f5f92431fdc2b6bf66f91a326fa06b3fad6b4ab24047c9be12b7f412fbfbaa1ec5c604051908082528060051c5f5b8181106140a7575090602091601f8216614087575b50601f01601f191682010160405280511561407e57806020806109cc93518301019101613439565b506109cc612343565b5f5160206155d25f395f51905f52015c601f19821684018301525f614056565b805f5160206155d25f395f51905f52600192015c60208260051b8701015201614041565b6140d36130f1565b906140dc615308565b91825180156142395783019260208401906020818603126101c3576020810151906001600160401b0382116101c3570181603f820112156101c357602081015194614126866120e5565b956141346040519788611398565b8087526020808089019260051b85010101928484116101c35760408101915b8483106141ad5750505050505082519081156141a45750806110b3610ade6132ad6141896141836141a0966125f2565b8861219e565b51965f1985018152604051928391602083016131b7565b1590565b92506001919050565b82516001600160401b0381116101c35782016020810191906040908603601f1901126101c357604051906141e082611327565b60208301516001600160401b0381116101c3578860206142029286010161284d565b82526040830151916001600160401b0383116101c35761422a8960208096958196010161284d565b83820152815201920191614153565b509150600190565b91908260809103126101c35760405161425981611347565b606080829480518452602081015161427081610217565b6020850152604081015161428381610217565b604085015201519161257f836120a0565b906080828203126101c3576109cc91614241565b91908260209103126101c3576040516142c081611362565b91518252565b909160c0828403126101c3576109cc6142df8484614241565b9360a06142ef82608087016142a8565b94016142a8565b909160c0828403126101c35760a061431b6143118585614241565b94608085016142a8565b92015190565b909160c0828403126101c3576143378383614241565b926080830151906001600160401b0382116101c35760a06142ef826109cc94870161284d565b60e0818303126101c3576143718282614241565b9260c061438f608084015161438581612632565b9460a085016142a8565b9201516109cc81610217565b60208101906143b4825160208082518301019101614294565b906060820180516143c4816120be565b6143cd816120be565b6143f0575050506132d56143eb91516020808251830101910161435d565b600190565b600181516143fd816120be565b614406816120be565b0361441b57505061441791506154a1565b5f90565b6002819392935161442b816120be565b614434816120be565b0361444557505061441791506153e1565b90915060038151614455816120be565b61445e816120be565b036144bc575061441791506144716122f7565b60208201519091906001600160a01b0316905161449e61448f6113b9565b6001600160a01b039093168352565b60208201526144ac82612181565b526144b681612181565b50613392565b9050600481516144cb816120be565b6144d4816120be565b0361465c57506144ee905160208082518301019101614321565b91506144f8614012565b9082518251111561388557604051602081019061451981610ade8585613428565b5190206145246124f5565b03614647575030905b6001600160a01b038216156135815761455860209161455061395786518361219e565b94519061219e565b51015160405163095ea7b360e01b81526001600160a01b0383811660048301525f6024830152909316602084806044810103815f855af1928315610904576145da9460209461462c575b5060405163095ea7b360e01b81526001600160a01b0390911660048201526024810192909252909283919082905f9082906044820190565b03925af180156109045761460f575b506144176145f56122f7565b6145fd6113b9565b5f81525f60208201526144ac82612181565b6146279060203d602011613a3257613a258183611398565b6145e9565b61464290853d8711613a3257613a258183611398565b6145a2565b610807610b1561465692611446565b9061452d565b60058151614669816120be565b614672816120be565b036147a3575061468c9051602080825183010191016142f6565b909150614697614012565b825181511115613885576146ac83518261219e565b5180519093906001600160a01b0316158015614797575b613aff576127108311613af057836146ec6110b86110b36110ae6020614417990197885161245d565b935180851161478f575b9261477a610ade936132c19361474d6147128961478a99612600565b9161471b612388565b8151909a906001600160a01b03169061473561448f6113b9565b60208201526147438b612181565b526112188a612181565b9061475961448f6113b9565b60208201526147678861218e565b526147718761218e565b506110e06113b9565b5060405192839160208301613236565b613392565b9350836146f6565b506020840151156146c3565b600681516147b0816120be565b6147b9816120be565b036148df57506147d39051602080825183010191016142c6565b9091506147de614012565b9180518351809110908115916148d3575b50613885576147ff81518461219e565b519161480c81518561219e565b5183516001600160a01b03161580156148b8575b6138765783516001600160a01b03168151614843906001600160a01b0316610807565b6001600160a01b0390911603613bde576144179461477a610ade9361477161478a9661487b6132c1966020808c015191015190612039565b6148946148866122f7565b9a516001600160a01b031690565b906148a061448f6113b9565b60208201526148ae8a612181565b526111f289612181565b5080516148cd906001600160a01b0316610807565b15614820565b9050825110155f6147ef565b600790516148ec816120be565b6148f5816120be565b146148ff57505f90565b6149139051602080825183010191016142c6565b915061491d614012565b9181518351809110908115916149e5575b506138855761493e82518461219e565b519161494b82518561219e565b5183519091906001600160a01b03161580156149ca575b6138765783516001600160a01b03168251614985906001600160a01b0316610807565b6001600160a01b0390911603613bde57602084019460208651930192835111613ce85761477a61478a946147716132c19461487b610ade976144179b51905190612600565b5081516149df906001600160a01b0316610807565b15614962565b9050815110155f61492e565b6040516323b872dd60e01b60208201526001600160a01b039283166024820152929091166044830152606482019290925261023391612d8c8260848101612ec2565b909160075460ff8160a01c16614b4f5760ff60a01b198116600160a01b17600755600880546001600160a01b0319166001600160a01b039092169182179055908115614b40576001600160a01b038316158015614b38575b614b2957612ec291614aba90614aa9906001600160a01b0316610807565b916040519384918660208401614b5e565b803b156101c357614ae5935f80946040519687958694859363701195a160e11b855260048501614b80565b03925af1801561090457614b15575b50600880546001600160a01b03191690555b6007805460ff60a01b19169055565b806108fe5f614b2393611398565b5f614af4565b630331eb0f60e41b5f5260045ffd5b508315614a8b565b637d908e5b60e11b5f5260045ffd5b6388aac56f60e01b5f5260045ffd5b6001600160a01b0390911681526040602082018190526109cc929101906105f1565b6109cc939260609260018060a01b03168252602082015281604082015201906105f1565b92919260075460ff8160a01c16614b4f5760ff60a01b1916600160a01b17600755600880546001600160a01b0319166001600160a01b0383811691821790925560065490929116906001600160a01b03821615614b405782158015614eb6575b8015614eae575b614b295760405163c45a015560e01b815291602083600481875afa928315610904575f93614e89575b506001600160a01b03165b916001600160a01b0316829003614dd757604051630dfe168160e01b815291602083600481875afa928315610904575f93614e68575b5060405163d21220a760e01b815290602082600481885afa918215610904575f92614e43575b506001600160a01b03165b60405163ddca3f4360e01b8152602081600481895afa801561090457614d11926020925f92614e14575b50604051630b4c774160e11b81526001600160a01b0380891660048301528616602482015262ffffff90921660448301529092839190829081906064820190565b03915afa80156109045785915f91614de5575b506001600160a01b031603614dd7576001600160a01b03858116931683149283159182614dc3575b5050614db457612ec2614d7b92805f14614dad5787965b8115614da7575f985b60405197889560208701614ef7565b803b156101c357614ae5935f8094604051968795869485936312439b2f60e21b85523060048601614f39565b88614d6c565b5f96614d63565b630732619560e01b5f5260045ffd5b6001600160a01b0316141590505f80614d4c565b62820f3560e61b5f5260045ffd5b614e07915060203d602011614e0d575b614dff8183611398565b810190614ec7565b5f614d24565b503d614df5565b614e35919250833d8511614e3c575b614e2d8183611398565b810190614edc565b905f614cd0565b503d614e23565b614ca6919250614e619060203d602011614e0d57614dff8183611398565b9190614c9b565b614e8291935060203d602011614e0d57614dff8183611398565b915f614c75565b614c3f919350614ea79060203d602011614e0d57614dff8183611398565b9290614c34565b508515614c0b565b506001600160a01b03841615614c04565b908160209103126101c357516109cc81610217565b908160209103126101c3575162ffffff811681036101c35790565b6001600160a01b03918216815291166020820152604081019190915260a0606082018190529293929091608091614f3191908401906105f1565b931515910152565b90926080926109cc959460018060a01b031683526020830152604082015281606082015201906105f1565b92909192604051614f7d81610ade602082018095611434565b5190205f908152600460205260409020546001600160a01b03168015614b405760075460ff8160a01c16614b4f5760ff60a01b1916600160a01b17600755600880546001600160a01b031916821790556001600160a01b03831615801561500f575b614b2957803b156101c357614ae5935f8094604051968795869485936310ac2ddf60e21b85523060048601615515565b508315614fdf565b9060018060a01b036003541660075460ff8160a01c16614b4f5760ff60a01b1916600160a01b17600755600880546001600160a01b03191691909117905560035461506a906001600160a01b0316610807565b916001600160a01b03831615614b40576001600160a01b038116158015615144575b614b2957604080516001600160a01b0390921660208301528101919091525f9182916150fe9190610ade906150e2906150c6816060810185565b60405163bf11f4af60e01b602082015292839160248301613428565b6040519485809481936348c8949160e01b835260048301613428565b03925af18015610904576151225750600880546001600160a01b0319169055614b06565b61513d903d805f833e6151358183611398565b81019061514c565b505f614af4565b50811561508c565b906020828203126101c35781516001600160401b0381116101c3576109cc920161284d565b909160018060a01b036002541660075460ff8160a01c16614b4f5760ff60a01b1916600160a01b17600755600880546001600160a01b0319169190911790556002546151c5906001600160a01b0316610807565b916001600160a01b03831615614b40576001600160a01b03169182158015615240575b614b29576152016151f7615248565b93610a7285612181565b615209615248565b9361521385612181565b52803b156101c357614ae5935f809460405196879586948593632e1c224f60e11b8552306004860161526a565b5083156151e8565b604080519091906152598382611398565b6001815291601f1901366020840137565b6001600160a01b03909116815260806020808301829052835191830182905260a0830196959301905f5b8181106152e95750505080850360408201526020808451968781520193015f955b8087106152d15750506109cc93945060608184039101526105f1565b909360208060019287518152019501960195906152b5565b82516001600160a01b0316885260209788019790920191600101615294565b7f33a7f7e91c7e5e97e4035e86e424aaeb97691c852dc81d823520f664cc2ca71c5c90604051918083528060051c5f5b81811061537d575090602091601f821661535d575b50601f01601f1916830101604052565b5f5160206155b25f395f51905f52015c601f19821685018301525f61534d565b805f5160206155b25f395f51905f52600192015c60208260051b8801015201615338565b919060a0838203126101c3578060806142ef6109cc9386614241565b604051906153ca82611347565b5f6060838281528260208201528260408201520152565b6020016153f88151602080825183010191016153a1565b9050615402614012565b918151835111156138855761541882518461219e565b5180519093906001600160a01b0316156138765761477a610ade936132c19386602061023398018051615450575050506110e06113b9565b615499604061548a61080761547b61386e9761546a6153bd565b5051602080825183010191016153a1565b5095516001600160a01b031690565b9301516001600160a01b031690565b905191612e8d565b60408101516001600160a01b031633036118335760208101805182516154d391309033906001600160a01b03166149f1565b6154db6122f7565b90519151604051926001600160a01b03166154f584611327565b83526020830152805115610364576102339160208201526144b681612181565b6001600160a01b03918216815291166020820152604081019190915260a0606082018190529092915f9160809161554e918601906105f1565b930152565b90615577575080511561556857805190602001fd5b630a12f52160e11b5f5260045ffd5b815115806155a8575b615588575090565b639996b31560e01b5f9081526001600160a01b0391909116600452602490fd5b50803b1561558056fe33a7f7e91c7e5e97e4035e86e424aaeb97691c852dc81d823520f664cc2ca71d5f92431fdc2b6bf66f91a326fa06b3fad6b4ab24047c9be12b7f412fbfbaa1eda26469706673582212203fed5fb5f1d75237427b5ed35b396a63199010f761027c9020ab07757471241e64736f6c634300081e0033",
  "devdoc": {
    "errors": {
      "AddressEmptyCode(address)": [
        {
          "details": "There's no code at `target` (it is not a contract)."
        }
      ],
      "AddressInsufficientBalance(address)": [
        {
          "details": "The ETH balance of the account is not enough to perform the operation."
        }
      ],
      "FailedInnerCall()": [
        {
          "details": "A call to an address target failed. The target may have reverted."
        }
      ],
      "OwnableInvalidOwner(address)": [
        {
          "details": "The owner is not a valid owner account. (eg. `address(0)`)"
        }
      ],
      "OwnableUnauthorizedAccount(address)": [
        {
          "details": "The caller account is not authorized to perform an operation."
        }
      ],
      "ReentrancyGuardReentrantCall()": [
        {
          "details": "Unauthorized reentrant call."
        }
      ],
      "SafeERC20FailedOperation(address)": [
        {
          "details": "An operation with an ERC20 token failed."
        }
      ]
    },
    "kind": "dev",
    "methods": {
      "onMorphoFlashLoan(uint256,bytes)": {
        "params": {
          "assets": "The amount of assets that was flash loaned.",
          "data": "Arbitrary data passed to the `flashLoan` function."
        }
      },
      "owner()": {
        "details": "Returns the address of the current owner."
      },
      "renounceOwnership()": {
        "details": "Leaves the contract without owner. It will not be possible to call `onlyOwner` functions. Can only be called by the current owner. NOTE: Renouncing ownership will leave the contract without an owner, thereby disabling any functionality that is only available to the owner."
      },
      "transferOwnership(address)": {
        "details": "Transfers ownership of the contract to a new account (`newOwner`). Can only be called by the current owner."
      }
    },
    "version": 1
  },
  "userdoc": {
    "kind": "user",
    "methods": {
      "onMorphoFlashLoan(uint256,bytes)": {
        "notice": "Callback called when a flash loan occurs."
      },
      "setAavePool(address)": {
        "notice": "Set the Aave V3 pool address."
      },
      "setMorphoBluePool(address)": {
        "notice": "Set the Morpho Blue address for flash loans."
      },
      "setZeroLendPool(address)": {
        "notice": "Set the ZeroLend pool address."
      }
    },
    "version": 1
  },
  "storageLayout": {
    "storage": [
      {
        "astId": 1578,
        "contract": "contracts/v2/KapanRouter.sol:KapanRouter",
        "label": "_owner",
        "offset": 0,
        "slot": "0",
        "type": "t_address"
      },
      {
        "astId": 3093,
        "contract": "contracts/v2/KapanRouter.sol:KapanRouter",
        "label": "_status",
        "offset": 0,
        "slot": "1",
        "type": "t_uint256"
      },
      {
        "astId": 10275,
        "contract": "contracts/v2/KapanRouter.sol:KapanRouter",
        "label": "balancerV2Vault",
        "offset": 0,
        "slot": "2",
        "type": "t_contract(IFlashLoanProvider)30193"
      },
      {
        "astId": 10278,
        "contract": "contracts/v2/KapanRouter.sol:KapanRouter",
        "label": "balancerV3Vault",
        "offset": 0,
        "slot": "3",
        "type": "t_contract(IVaultV3)30219"
      },
      {
        "astId": 10282,
        "contract": "contracts/v2/KapanRouter.sol:KapanRouter",
        "label": "aaveCompatiblePools",
        "offset": 0,
        "slot": "4",
        "type": "t_mapping(t_bytes32,t_address)"
      },
      {
        "astId": 10286,
        "contract": "contracts/v2/KapanRouter.sol:KapanRouter",
        "label": "isAaveCompatiblePool",
        "offset": 0,
        "slot": "5",
        "type": "t_mapping(t_address,t_bool)"
      },
      {
        "astId": 10288,
        "contract": "contracts/v2/KapanRouter.sol:KapanRouter",
        "label": "uniswapV3Factory",
        "offset": 0,
        "slot": "6",
        "type": "t_address"
      },
      {
        "astId": 10290,
        "contract": "contracts/v2/KapanRouter.sol:KapanRouter",
        "label": "morphoBlue",
        "offset": 0,
        "slot": "7",
        "type": "t_address"
      },
      {
        "astId": 10292,
        "contract": "contracts/v2/KapanRouter.sol:KapanRouter",
        "label": "flashLoanEnabled",
        "offset": 20,
        "slot": "7",
        "type": "t_bool"
      },
      {
        "astId": 10294,
        "contract": "contracts/v2/KapanRouter.sol:KapanRouter",
        "label": "authorizedFlashSender",
        "offset": 0,
        "slot": "8",
        "type": "t_address"
      },
      {
        "astId": 4922,
        "contract": "contracts/v2/KapanRouter.sol:KapanRouter",
        "label": "gateways",
        "offset": 0,
        "slot": "9",
        "type": "t_mapping(t_string_memory_ptr,t_contract(IGateway)30131)"
      }
    ],
    "types": {
      "t_address": {
        "encoding": "inplace",
        "label": "address",
        "numberOfBytes": "20"
      },
      "t_bool": {
        "encoding": "inplace",
        "label": "bool",
        "numberOfBytes": "1"
      },
      "t_bytes32": {
        "encoding": "inplace",
        "label": "bytes32",
        "numberOfBytes": "32"
      },
      "t_contract(IFlashLoanProvider)30193": {
        "encoding": "inplace",
        "label": "contract IFlashLoanProvider",
        "numberOfBytes": "20"
      },
      "t_contract(IGateway)30131": {
        "encoding": "inplace",
        "label": "contract IGateway",
        "numberOfBytes": "20"
      },
      "t_contract(IVaultV3)30219": {
        "encoding": "inplace",
        "label": "contract IVaultV3",
        "numberOfBytes": "20"
      },
      "t_mapping(t_address,t_bool)": {
        "encoding": "mapping",
        "key": "t_address",
        "label": "mapping(address => bool)",
        "numberOfBytes": "32",
        "value": "t_bool"
      },
      "t_mapping(t_bytes32,t_address)": {
        "encoding": "mapping",
        "key": "t_bytes32",
        "label": "mapping(bytes32 => address)",
        "numberOfBytes": "32",
        "value": "t_address"
      },
      "t_mapping(t_string_memory_ptr,t_contract(IGateway)30131)": {
        "encoding": "mapping",
        "key": "t_string_memory_ptr",
        "label": "mapping(string => contract IGateway)",
        "numberOfBytes": "32",
        "value": "t_contract(IGateway)30131"
      },
      "t_string_memory_ptr": {
        "encoding": "bytes",
        "label": "string",
        "numberOfBytes": "32"
      },
      "t_uint256": {
        "encoding": "inplace",
        "label": "uint256",
        "numberOfBytes": "32"
      }
    }
  }
}