{
  "address": "0xD0B68f52806B0Fb89999338452FC8089E5BF98B7",
  "abi": [
    {
      "inputs": [
        {
          "internalType": "address",
          "name": "_gateway",
          "type": "address"
        },
        {
          "internalType": "address",
          "name": "_router",
          "type": "address"
        }
      ],
      "stateMutability": "nonpayable",
      "type": "constructor"
    },
    {
      "inputs": [
        {
          "internalType": "address",
          "name": "target",
          "type": "address"
        }
      ],
      "name": "AddressEmptyCode",
      "type": "error"
    },
    {
      "inputs": [
        {
          "internalType": "address",
          "name": "account",
          "type": "address"
        }
      ],
      "name": "AddressInsufficientBalance",
      "type": "error"
    },
    {
      "inputs": [],
      "name": "FailedInnerCall",
      "type": "error"
    },
    {
      "inputs": [
        {
          "internalType": "address",
          "name": "owner",
          "type": "address"
        }
      ],
      "name": "OwnableInvalidOwner",
      "type": "error"
    },
    {
      "inputs": [
        {
          "internalType": "address",
          "name": "account",
          "type": "address"
        }
      ],
      "name": "OwnableUnauthorizedAccount",
      "type": "error"
    },
    {
      "inputs": [
        {
          "internalType": "address",
          "name": "token",
          "type": "address"
        }
      ],
      "name": "SafeERC20FailedOperation",
      "type": "error"
    },
    {
      "anonymous": false,
      "inputs": [
        {
          "indexed": true,
          "internalType": "address",
          "name": "previousOwner",
          "type": "address"
        },
        {
          "indexed": true,
          "internalType": "address",
          "name": "newOwner",
          "type": "address"
        }
      ],
      "name": "OwnershipTransferred",
      "type": "event"
    },
    {
      "inputs": [],
      "name": "ONE_INCH_ROUTER",
      "outputs": [
        {
          "internalType": "address",
          "name": "",
          "type": "address"
        }
      ],
      "stateMutability": "view",
      "type": "function"
    },
    {
      "inputs": [
        {
          "internalType": "address",
          "name": "tokenIn",
          "type": "address"
        },
        {
          "internalType": "address",
          "name": "tokenOut",
          "type": "address"
        },
        {
          "internalType": "uint256",
          "name": "amountIn",
          "type": "uint256"
        },
        {
          "internalType": "uint256",
          "name": "minAmountOut",
          "type": "uint256"
        },
        {
          "internalType": "bytes",
          "name": "data",
          "type": "bytes"
        }
      ],
      "name": "executeSwap",
      "outputs": [
        {
          "internalType": "uint256",
          "name": "amountReceived",
          "type": "uint256"
        },
        {
          "internalType": "uint256",
          "name": "amountRefunded",
          "type": "uint256"
        }
      ],
      "stateMutability": "nonpayable",
      "type": "function"
    },
    {
      "inputs": [],
      "name": "kapanGateway",
      "outputs": [
        {
          "internalType": "address",
          "name": "",
          "type": "address"
        }
      ],
      "stateMutability": "view",
      "type": "function"
    },
    {
      "inputs": [],
      "name": "owner",
      "outputs": [
        {
          "internalType": "address",
          "name": "",
          "type": "address"
        }
      ],
      "stateMutability": "view",
      "type": "function"
    },
    {
      "inputs": [],
      "name": "renounceOwnership",
      "outputs": [],
      "stateMutability": "nonpayable",
      "type": "function"
    },
    {
      "inputs": [
        {
          "internalType": "address",
          "name": "_gateway",
          "type": "address"
        }
      ],
      "name": "setGateway",
      "outputs": [],
      "stateMutability": "nonpayable",
      "type": "function"
    },
    {
      "inputs": [
        {
          "internalType": "address",
          "name": "newOwner",
          "type": "address"
        }
      ],
      "name": "transferOwnership",
      "outputs": [],
      "stateMutability": "nonpayable",
      "type": "function"
    }
  ],
  "transactionHash": "0xdec52ee1d299f54624bc1e1dbf914d7db47a2f9085ba5aa5df3fc1c845edefde",
  "args": [
    "0x0fDE261f6a1b042abe52B16f77a7aA6b6466Fe25",
    "0x111111125421ca6dc452d289314280a0f8842a65"
  ],
  "numDeployments": 4,
  "solcInputHash": "077df78554c4ff03d8acfe00f3c8e71d",
  "bytecode": "0x60a0346100f257601f610d6238819003918201601f19168301916001600160401b038311848410176100f65780849260409485528339810103126100f257610052602061004b8361010a565b920161010a565b33156100df575f8054336001600160a01b0319821681178355604051949290916001600160a01b0316907f8be0079c531659141344cd1fd0a4f28419497f9722a3daafe3b4186f6b6457e09080a3600180546001600160a01b0319166001600160a01b0392909216919091179055608052610c43908161011f823960805181818161023701526103170152f35b631e4fbdf760e01b5f525f60045260245ffd5b5f80fd5b634e487b7160e01b5f52604160045260245ffd5b51906001600160a01b03821682036100f25756fe60806040526004361015610011575f80fd5b5f3560e01c8063232174c014610084578063715018a61461007f5780638da5cb5b1461007a57806390646b4a14610075578063dcb1374a14610070578063dd3fd9251461006b5763f2fde38b14610066575f80fd5b610266565b610222565b6101fa565b6101b7565b610190565b610139565b346101095760a03660031901126101095761009d61010d565b6100a5610123565b6084359160643560443567ffffffffffffffff851161010957366023860112156101095784600401359367ffffffffffffffff85116101095736602486880101116101095760246100f79601936102eb565b60408051928352602083019190915290f35b5f80fd5b600435906001600160a01b038216820361010957565b602435906001600160a01b038216820361010957565b34610109575f36600319011261010957610151610aec565b5f80546001600160a01b0319811682556001600160a01b03167f8be0079c531659141344cd1fd0a4f28419497f9722a3daafe3b4186f6b6457e08280a3005b34610109575f366003190112610109575f546040516001600160a01b039091168152602090f35b34610109576020366003190112610109576101d061010d565b6101d8610aec565b600180546001600160a01b0319166001600160a01b0392909216919091179055005b34610109575f366003190112610109576001546040516001600160a01b039091168152602090f35b34610109575f366003190112610109576040517f00000000000000000000000000000000000000000000000000000000000000006001600160a01b03168152602090f35b346101095760203660031901126101095761027f61010d565b610287610aec565b6001600160a01b031680156102d8575f80546001600160a01b03198116831782556001600160a01b0316907f8be0079c531659141344cd1fd0a4f28419497f9722a3daafe3b4186f6b6457e09080a3005b631e4fbdf760e01b5f525f60045260245ffd5b95949192939060018060a01b036001541633036105de57604051636eb1769f60e11b81523060048201527f00000000000000000000000000000000000000000000000000000000000000006001600160a01b038181166024840152891695916020816044818a5afa801561050b5783915f916105bf575b50106105b0575b6040516370a0823160e01b81523060048201526001600160a01b0384169590946020866024818a5afa95861561050b575f96610585575b50915f92918380936103b760405180948193610670565b03925af16103c361067d565b901561053157506040516370a0823160e01b815230600482015291602083602481885afa92831561050b575f93610510575b506040516370a0823160e01b81523060048201529860208a6024818a5afa998a1561050b575f9a6104c0575b50876104869593610441610471969461044e9461043c6106bc565b6109ca565b610449610707565b610a24565b61045b8183610449610757565b61046c896104676107b8565b610a6d565b6107fd565b9361047e8561046761081e565b841015610863565b82806104ae575b5050838061049c575b50509190565b6104a7913390610ab0565b5f83610496565b6104b9913390610ab0565b5f8261048d565b61044e919a50610486959361044161047196946104f58c9460203d602011610504575b6104ed818361062f565b810190610656565b9d945094965050939550610421565b503d6104e3565b610665565b61052a91935060203d602011610504576104ed818361062f565b915f6103f5565b80511561054057805190602001fd5b60405162461bcd60e51b815260206004820152601a60248201527f416461707465723a2031696e63682053776170204661696c65640000000000006044820152606490fd5b5f80949297506105a581949260203d602011610504576104ed818361062f565b9792945050916103a0565b6105ba81876108a8565b610369565b6105d8915060203d602011610504576104ed818361062f565b5f610362565b60405162461bcd60e51b8152602060048201526015602482015274416461707465723a204f6e6c79204761746577617960581b6044820152606490fd5b634e487b7160e01b5f52604160045260245ffd5b90601f8019910116810190811067ffffffffffffffff82111761065157604052565b61061b565b90816020910312610109575190565b6040513d5f823e3d90fd5b908092918237015f815290565b3d156106b7573d9067ffffffffffffffff821161065157604051916106ac601f8201601f19166020018461062f565b82523d5f602084013e565b606090565b604051906106cb60608361062f565b60278252666e4f75743d257360c81b6040837f4f6e65496e6368416461707465723a20746f6b656e496e3d25732c20746f6b6560208201520152565b6040519061071660608361062f565b602c82526b416d6f756e744f75743d257360a01b6040837f4f6e65496e6368416461707465723a20616d6f756e74496e3d25732c206d696e60208201520152565b6040519061076660608361062f565b603782527f3d25732c2062616c616e63654f757441667465723d25730000000000000000006040837f4f6e65496e6368416461707465723a2062616c616e63654f75744265666f726560208201520152565b604051906107c760608361062f565b60218252607360f81b6040837f4f6e65496e6368416461707465723a2062616c616e6365496e41667465723d2560208201520152565b9190820391821161080a57565b634e487b7160e01b5f52601160045260245ffd5b6040519061082d60608361062f565b60218252607360f81b6040837f4f6e65496e6368416461707465723a20616d6f756e7452656365697665643d2560208201520152565b1561086a57565b60405162461bcd60e51b8152602060048201526016602482015275416461707465723a204869676820536c69707061676560501b6044820152606490fd5b60405163095ea7b360e01b602082019081526001600160a01b03841660248301525f196044808401919091528252909190610917906108e860648561062f565b83516001600160a01b038416915f91829182855af19061090661067d565b82610974575b508161096d57501590565b61092057505050565b60405163095ea7b360e01b60208201526001600160a01b039390931660248401525f604480850191909152835261096b926109669061096060648261062f565b82610b2a565b610b2a565b565b3b15919050565b8051919250811591821561098c575b5050905f61090c565b61099f9250602080918301019101610b12565b5f80610983565b805180835260209291819084018484015e5f828201840152601f01601f1916010190565b610a1f906109fa9261096b946040519485936307e763af60e51b60208601526060602486015260848501906109a6565b6001600160a01b0392831660448501529116606483015203601f19810183528261062f565b610b95565b610a1f90610a549261096b9460405194859363ca47c4eb60e01b60208601526060602486015260848501906109a6565b916044840152606483015203601f19810183528261062f565b610a1f610a9c9161096b93604051938492632d839cb360e21b60208501526040602485015260648401906109a6565b90604483015203601f19810183528261062f565b60405163a9059cbb60e01b60208201526001600160a01b0392909216602483015260448083019390935291815261096b9161096660648361062f565b5f546001600160a01b03163303610aff57565b63118cdaa760e01b5f523360045260245ffd5b90816020910312610109575180151581036101095790565b5f80610b529260018060a01b03169360208151910182865af1610b4b61067d565b9083610baf565b8051908115159182610b7a575b5050610b685750565b635274afe760e01b5f5260045260245ffd5b610b8d9250602080918301019101610b12565b155f80610b5f565b5f80916020815191016a636f6e736f6c652e6c6f675afa50565b90610bd35750805115610bc457805190602001fd5b630a12f52160e11b5f5260045ffd5b81511580610c04575b610be4575090565b639996b31560e01b5f9081526001600160a01b0391909116600452602490fd5b50803b15610bdc56fea264697066735822122003fcb853742e2fe52a82808bb3c5e39c7e411b0d0373137075f50ff671aa426b64736f6c634300081e0033",
  "devdoc": {
    "errors": {
      "AddressEmptyCode(address)": [
        {
          "details": "There's no code at `target` (it is not a contract)."
        }
      ],
      "AddressInsufficientBalance(address)": [
        {
          "details": "The ETH balance of the account is not enough to perform the operation."
        }
      ],
      "FailedInnerCall()": [
        {
          "details": "A call to an address target failed. The target may have reverted."
        }
      ],
      "OwnableInvalidOwner(address)": [
        {
          "details": "The owner is not a valid owner account. (eg. `address(0)`)"
        }
      ],
      "OwnableUnauthorizedAccount(address)": [
        {
          "details": "The caller account is not authorized to perform an operation."
        }
      ],
      "SafeERC20FailedOperation(address)": [
        {
          "details": "An operation with an ERC20 token failed."
        }
      ]
    },
    "kind": "dev",
    "methods": {
      "owner()": {
        "details": "Returns the address of the current owner."
      },
      "renounceOwnership()": {
        "details": "Leaves the contract without owner. It will not be possible to call `onlyOwner` functions. Can only be called by the current owner. NOTE: Renouncing ownership will leave the contract without an owner, thereby disabling any functionality that is only available to the owner."
      },
      "transferOwnership(address)": {
        "details": "Transfers ownership of the contract to a new account (`newOwner`). Can only be called by the current owner."
      }
    },
    "version": 1
  },
  "userdoc": {
    "kind": "user",
    "methods": {},
    "version": 1
  },
  "storageLayout": {
    "storage": [
      {
        "astId": 1432,
        "contract": "contracts/v2/gateways/oneinch/OneInchAdapter.sol:OneInchAdapter",
        "label": "_owner",
        "offset": 0,
        "slot": "0",
        "type": "t_address"
      },
      {
        "astId": 7769,
        "contract": "contracts/v2/gateways/oneinch/OneInchAdapter.sol:OneInchAdapter",
        "label": "kapanGateway",
        "offset": 0,
        "slot": "1",
        "type": "t_address"
      }
    ],
    "types": {
      "t_address": {
        "encoding": "inplace",
        "label": "address",
        "numberOfBytes": "20"
      }
    }
  }
}