{
  "address": "0xaF2b85ecac9cEa34171a4eFe465d0Cb2eccb3C7D",
  "abi": [
    {
      "inputs": [
        {
          "internalType": "address",
          "name": "_poolAddressesProvider",
          "type": "address"
        },
        {
          "internalType": "address",
          "name": "_uiPoolDataProvider",
          "type": "address"
        }
      ],
      "stateMutability": "nonpayable",
      "type": "constructor"
    },
    {
      "inputs": [
        {
          "internalType": "address",
          "name": "user",
          "type": "address"
        }
      ],
      "name": "borrowedTokens",
      "outputs": [
        {
          "internalType": "address[]",
          "name": "",
          "type": "address[]"
        }
      ],
      "stateMutability": "view",
      "type": "function"
    },
    {
      "inputs": [
        {
          "internalType": "address",
          "name": "underlyingToken",
          "type": "address"
        }
      ],
      "name": "getAToken",
      "outputs": [
        {
          "internalType": "address",
          "name": "",
          "type": "address"
        }
      ],
      "stateMutability": "view",
      "type": "function"
    },
    {
      "inputs": [
        {
          "internalType": "address",
          "name": "user",
          "type": "address"
        }
      ],
      "name": "getAllTokensInfo",
      "outputs": [
        {
          "components": [
            {
              "internalType": "address",
              "name": "token",
              "type": "address"
            },
            {
              "internalType": "uint256",
              "name": "supplyRate",
              "type": "uint256"
            },
            {
              "internalType": "uint256",
              "name": "borrowRate",
              "type": "uint256"
            },
            {
              "internalType": "string",
              "name": "name",
              "type": "string"
            },
            {
              "internalType": "string",
              "name": "symbol",
              "type": "string"
            },
            {
              "internalType": "uint256",
              "name": "price",
              "type": "uint256"
            },
            {
              "internalType": "uint256",
              "name": "borrowBalance",
              "type": "uint256"
            },
            {
              "internalType": "uint256",
              "name": "balance",
              "type": "uint256"
            },
            {
              "internalType": "address",
              "name": "aToken",
              "type": "address"
            },
            {
              "internalType": "uint8",
              "name": "decimals",
              "type": "uint8"
            }
          ],
          "internalType": "struct AaveGatewayView.TokenInfo[]",
          "name": "",
          "type": "tuple[]"
        }
      ],
      "stateMutability": "view",
      "type": "function"
    },
    {
      "inputs": [
        {
          "internalType": "address",
          "name": "user",
          "type": "address"
        }
      ],
      "name": "getAllTokensInfoWithEMode",
      "outputs": [
        {
          "components": [
            {
              "internalType": "address",
              "name": "token",
              "type": "address"
            },
            {
              "internalType": "uint256",
              "name": "supplyRate",
              "type": "uint256"
            },
            {
              "internalType": "uint256",
              "name": "borrowRate",
              "type": "uint256"
            },
            {
              "internalType": "string",
              "name": "name",
              "type": "string"
            },
            {
              "internalType": "string",
              "name": "symbol",
              "type": "string"
            },
            {
              "internalType": "uint256",
              "name": "price",
              "type": "uint256"
            },
            {
              "internalType": "uint256",
              "name": "borrowBalance",
              "type": "uint256"
            },
            {
              "internalType": "uint256",
              "name": "balance",
              "type": "uint256"
            },
            {
              "internalType": "address",
              "name": "aToken",
              "type": "address"
            },
            {
              "internalType": "uint8",
              "name": "decimals",
              "type": "uint8"
            }
          ],
          "internalType": "struct AaveGatewayView.TokenInfo[]",
          "name": "tokens",
          "type": "tuple[]"
        },
        {
          "internalType": "uint8",
          "name": "userEModeCategory",
          "type": "uint8"
        }
      ],
      "stateMutability": "view",
      "type": "function"
    },
    {
      "inputs": [
        {
          "internalType": "address",
          "name": "token",
          "type": "address"
        },
        {
          "internalType": "address",
          "name": "user",
          "type": "address"
        }
      ],
      "name": "getBalance",
      "outputs": [
        {
          "internalType": "uint256",
          "name": "",
          "type": "uint256"
        }
      ],
      "stateMutability": "view",
      "type": "function"
    },
    {
      "inputs": [
        {
          "internalType": "address",
          "name": "token",
          "type": "address"
        },
        {
          "internalType": "address",
          "name": "user",
          "type": "address"
        }
      ],
      "name": "getBorrowBalance",
      "outputs": [
        {
          "internalType": "uint256",
          "name": "",
          "type": "uint256"
        }
      ],
      "stateMutability": "view",
      "type": "function"
    },
    {
      "inputs": [
        {
          "internalType": "address",
          "name": "token",
          "type": "address"
        },
        {
          "internalType": "address",
          "name": "user",
          "type": "address"
        }
      ],
      "name": "getBorrowBalanceCurrent",
      "outputs": [
        {
          "internalType": "uint256",
          "name": "",
          "type": "uint256"
        }
      ],
      "stateMutability": "nonpayable",
      "type": "function"
    },
    {
      "inputs": [
        {
          "internalType": "address",
          "name": "token",
          "type": "address"
        }
      ],
      "name": "getBorrowRate",
      "outputs": [
        {
          "internalType": "uint256",
          "name": "",
          "type": "uint256"
        },
        {
          "internalType": "bool",
          "name": "",
          "type": "bool"
        }
      ],
      "stateMutability": "view",
      "type": "function"
    },
    {
      "inputs": [],
      "name": "getEModes",
      "outputs": [
        {
          "components": [
            {
              "internalType": "uint8",
              "name": "id",
              "type": "uint8"
            },
            {
              "internalType": "uint16",
              "name": "ltv",
              "type": "uint16"
            },
            {
              "internalType": "uint16",
              "name": "liquidationThreshold",
              "type": "uint16"
            },
            {
              "internalType": "uint16",
              "name": "liquidationBonus",
              "type": "uint16"
            },
            {
              "internalType": "string",
              "name": "label",
              "type": "string"
            },
            {
              "internalType": "uint128",
              "name": "collateralBitmap",
              "type": "uint128"
            },
            {
              "internalType": "uint128",
              "name": "borrowableBitmap",
              "type": "uint128"
            }
          ],
          "internalType": "struct AaveGatewayView.EModeInfo[]",
          "name": "emodes",
          "type": "tuple[]"
        }
      ],
      "stateMutability": "view",
      "type": "function"
    },
    {
      "inputs": [
        {
          "internalType": "address",
          "name": "",
          "type": "address"
        },
        {
          "internalType": "address",
          "name": "user",
          "type": "address"
        }
      ],
      "name": "getLtv",
      "outputs": [
        {
          "internalType": "uint256",
          "name": "",
          "type": "uint256"
        }
      ],
      "stateMutability": "view",
      "type": "function"
    },
    {
      "inputs": [
        {
          "internalType": "address",
          "name": "",
          "type": "address"
        },
        {
          "internalType": "address",
          "name": "user",
          "type": "address"
        }
      ],
      "name": "getMaxLtv",
      "outputs": [
        {
          "internalType": "uint256",
          "name": "",
          "type": "uint256"
        }
      ],
      "stateMutability": "view",
      "type": "function"
    },
    {
      "inputs": [
        {
          "internalType": "address",
          "name": "token",
          "type": "address"
        },
        {
          "internalType": "address",
          "name": "user",
          "type": "address"
        }
      ],
      "name": "getPossibleCollaterals",
      "outputs": [
        {
          "internalType": "address[]",
          "name": "collateralAddresses",
          "type": "address[]"
        },
        {
          "internalType": "uint256[]",
          "name": "balances",
          "type": "uint256[]"
        },
        {
          "internalType": "string[]",
          "name": "symbols",
          "type": "string[]"
        },
        {
          "internalType": "uint8[]",
          "name": "decimals",
          "type": "uint8[]"
        }
      ],
      "stateMutability": "view",
      "type": "function"
    },
    {
      "inputs": [
        {
          "internalType": "address",
          "name": "token",
          "type": "address"
        }
      ],
      "name": "getSupplyRate",
      "outputs": [
        {
          "internalType": "uint256",
          "name": "",
          "type": "uint256"
        },
        {
          "internalType": "bool",
          "name": "",
          "type": "bool"
        }
      ],
      "stateMutability": "view",
      "type": "function"
    },
    {
      "inputs": [
        {
          "internalType": "address",
          "name": "market",
          "type": "address"
        }
      ],
      "name": "getSupportedCollaterals",
      "outputs": [
        {
          "internalType": "address[]",
          "name": "collateralAddresses",
          "type": "address[]"
        }
      ],
      "stateMutability": "view",
      "type": "function"
    },
    {
      "inputs": [
        {
          "internalType": "address",
          "name": "aToken",
          "type": "address"
        }
      ],
      "name": "getUnderlyingToken",
      "outputs": [
        {
          "internalType": "address",
          "name": "",
          "type": "address"
        }
      ],
      "stateMutability": "view",
      "type": "function"
    },
    {
      "inputs": [
        {
          "internalType": "address",
          "name": "user",
          "type": "address"
        }
      ],
      "name": "getUserEMode",
      "outputs": [
        {
          "internalType": "uint8",
          "name": "categoryId",
          "type": "uint8"
        }
      ],
      "stateMutability": "view",
      "type": "function"
    },
    {
      "inputs": [
        {
          "internalType": "address",
          "name": "market",
          "type": "address"
        },
        {
          "internalType": "address",
          "name": "collateral",
          "type": "address"
        }
      ],
      "name": "isCollateralSupported",
      "outputs": [
        {
          "internalType": "bool",
          "name": "isSupported",
          "type": "bool"
        }
      ],
      "stateMutability": "view",
      "type": "function"
    },
    {
      "inputs": [],
      "name": "poolAddressesProvider",
      "outputs": [
        {
          "internalType": "contract IPoolAddressesProvider",
          "name": "",
          "type": "address"
        }
      ],
      "stateMutability": "view",
      "type": "function"
    },
    {
      "inputs": [],
      "name": "uiPoolDataProvider",
      "outputs": [
        {
          "internalType": "contract IUiPoolDataProviderV3",
          "name": "",
          "type": "address"
        }
      ],
      "stateMutability": "view",
      "type": "function"
    }
  ],
  "transactionHash": "0x695c320f37b95ec824ac697edd8ef013aca1676faecf5fd3d056d4c74e47f7ee",
  "args": [
    "0x061D8e131F26512348ee5FA42e2DF1bA9d6505E9",
    "0xc851e6147dcE6A469CC33BE3121b6B2D4CaD2763"
  ],
  "numDeployments": 3,
  "solcInputHash": "90bb2527f9efe3d2f7b3ff529bab09e6",
  "bytecode": "0x60c03461014957601f612cc038819003918201601f19168301916001600160401b0383118484101761014d57808492604094855283398101031261014957610052602061004b83610161565b9201610161565b6001600160a01b039182166080521660a052604051612b4a9081610176823960805181818161012201528181610255015281816105020152818161095601528181610a1201528181610b8c01528181610c9b01528181610f870152818161153401528181611f690152818161220c015281816124440152818161253901528181612641015281816127af0152612891015260a05181818161029301528181610390015281816104ac0152818161053301528181610a4301528181610cc601528181610fbb01528181611f9e01528181612245015281816124750152818161256a0152818161267a015281816127e001526128c50152f35b5f80fd5b634e487b7160e01b5f52604160045260245ffd5b51906001600160a01b03821682036101495756fe60806040526004361015610011575f80fd5b5f3560e01c8063104e999d14611253578063118e31b7146102fd5780633e69c6af14610f5f578063401d45d014610c6b57806362fd6add14610b5457806366e2d09b146109e1578063691bcc88146109bb5780636b5441a9146109c0578063732a52ee146109bb578063784661131461098557806380e17d8714610941578063a92c3f7e146104db578063c3a3a9a714610497578063ceac55df1461036f578063d4fac45d1461033b578063d71275f614610302578063e94201c7146102fd578063eddf1b79146102215763f5125d3f146100ea575f80fd5b3461021557604036600319011261021557610103611371565b5061010c611387565b60405163026b1d5f60e01b8152906020826004817f00000000000000000000000000000000000000000000000000000000000000006001600160a01b03165afa9182156101d4575f926101df575b50604051632fe4a15f60e21b81526001600160a01b0391821660048201529160c09183916024918391165afa80156101d4576020915f9161019f575b50604051908152f35b6101c1915060c03d60c0116101cd575b6101b9818361169e565b8101906123ff565b5093505050505f610196565b503d6101af565b6040513d5f823e3d90fd5b9091506020813d602011610219575b816101fb6020938361169e565b810103126102155761020e60c0916116d6565b919061015a565b5f80fd5b3d91506101ee565b346102155760203660031901126102155761028f5f61023e611371565b6040516301465d3360e61b81526001600160a01b037f000000000000000000000000000000000000000000000000000000000000000081166004830152909116602482015291829081906044820190565b03817f00000000000000000000000000000000000000000000000000000000000000006001600160a01b03165afa80156101d4576020915f916102d9575b5060ff60405191168152f35b6102f591503d805f833e6102ed818361169e565b81019061210e565b9050826102cd565b6113fd565b346102155760203660031901126102155761032361031e611371565b612798565b604080519283529015156020830152819081015b0390f35b34610215576040366003190112610215576020610367610359611371565b610361611387565b90612612565b604051908152f35b346102155760203660031901126102155761038c5f61023e611371565b03817f00000000000000000000000000000000000000000000000000000000000000006001600160a01b03165afa9081156101d4575f9161047c575b505f5f5b82518110156104055760606103e18285611baa565b5101516103f1575b6001016103cc565b906103fd600191611bd2565b9190506103e9565b5061040f90611b2f565b905f915f5b82518110156104665780606061042c60019386611baa565b51015161043a575b01610414565b818060a01b0361044a8286611baa565b51511661046061045987611bd2565b9685611baa565b52610434565b604051602080825281906103379082018561139d565b61049091503d805f833e6102ed818361169e565b50816103c8565b34610215575f366003190112610215576040517f00000000000000000000000000000000000000000000000000000000000000006001600160a01b03168152602090f35b34610215575f36600319011261021557604051636f90b9d160e01b81526001600160a01b037f0000000000000000000000000000000000000000000000000000000000000000811660048301525f90829060249082907f0000000000000000000000000000000000000000000000000000000000000000165afa9081156101d4575f91610796575b50805190610570826116bf565b9161057e604051938461169e565b80835261058d601f19916116bf565b015f5b8181106107545750505f5b815181101561068e578060ff6105b360019385611baa565b51511661ffff60206105c58487611baa565b510151511661ffff6020806105da8689611baa565b51015101511661ffff604060206105f1878a611baa565b51015101511660806020610605878a611baa565b5101510151906001600160801b0360606020610621898c611baa565b510151015116926001600160801b0360a0602061063e8a8d611baa565b510151015116946040519661065288611668565b8752602087015260408601526060850152608084015260a083015260c082015261067c8286611baa565b526106878185611baa565b500161059b565b826040518091602082016020835281518091526040830190602060408260051b8601019301915f905b8282106106c657505050500390f35b919360019193955060208091603f1989820301855287519060ff825116815261ffff83830151168382015261ffff604083015116604082015261ffff606083015116606082015260c06001600160801b0381610731608086015160e0608087015260e08601906113d9565b948260a08201511660a086015201511691015296019201920185949391926106b7565b60209060405161076381611668565b5f81525f838201525f60408201525f6060820152606060808201525f60a08201525f60c082015282828701015201610590565b90503d805f833e6107a7818361169e565b810190602081830312610215578051906001600160401b03821161021557019080601f83011215610215578151916107de836116bf565b926107ec604051948561169e565b80845260208085019160051b830101918383116102155760208101915b83831061081b57505050505081610563565b82516001600160401b0381116102155782016040818703601f1901126102155760405190604082018281106001600160401b0382111761092d5760405261086460208201611760565b825260408101516001600160401b0381116102155760209101019160c083880312610215576040519160c083018381106001600160401b0382111761092d576040526108af84612603565b83526108bd60208501612603565b60208401526108ce60408501612603565b60408401526108df6060850161174c565b60608401526080840151926001600160401b0384116102155761091960a08661090e8c602099988a99016116ea565b60808501520161174c565b60a082015283820152815201920191610809565b634e487b7160e01b5f52604160045260245ffd5b34610215575f366003190112610215576040517f00000000000000000000000000000000000000000000000000000000000000006001600160a01b03168152602090f35b346102155760403660031901126102155761099e611371565b5060206109b16109ac611387565b612522565b6040519015158152f35b611505565b34610215576020366003190112610215576103236109dc611371565b61242d565b34610215576020366003190112610215576109fa611371565b5060405163ec489c2160e01b81526001600160a01b037f0000000000000000000000000000000000000000000000000000000000000000811660048301525f90829060249082907f0000000000000000000000000000000000000000000000000000000000000000165afa9081156101d4575f91610b31575b505f5f5b8251811015610ab157610100610a8d8285611baa565b510151610a9d575b600101610a77565b90610aa9600191611bd2565b919050610a95565b50610abb90611b2f565b905f905f5b8151811015610b1b57610100610ad68284611baa565b510151610ae6575b600101610ac0565b91600190610b13906001600160a01b03610b008686611baa565b515116610b0d8288611baa565b52611bd2565b929050610ade565b604051602080825281906103379082018761139d565b610b4d91503d805f833e610b45818361169e565b81019061176e565b5081610a73565b3461021557604036600319011261021557610b6d611371565b50610b76611387565b60405163026b1d5f60e01b8152906020826004817f00000000000000000000000000000000000000000000000000000000000000006001600160a01b03165afa9182156101d4575f92610c2d575b50604051632fe4a15f60e21b81526001600160a01b0391821660048201529160c09183916024918391165afa80156101d4576020915f91610c085750604051908152f35b610c21915060c03d60c0116101cd576101b9818361169e565b50509250505082610196565b9091506020813d602011610c63575b81610c496020938361169e565b8101031261021557610c5c60c0916116d6565b9190610bc4565b3d9150610c3c565b3461021557602036600319011261021557610c84611371565b60405163ec489c2160e01b81526001600160a01b037f0000000000000000000000000000000000000000000000000000000000000000818116600484015292907f0000000000000000000000000000000000000000000000000000000000000000165f83602481845afa9283156101d4575f93610f3a575b506040516301465d3360e61b81526001600160a01b03948516600482015293821660248501529192915f9083908180604481015b03915afa9182156101d4575f92610f1d575b50610d4d8351612371565b905f5b8451811015610f0757610d6e8483610d688489611baa565b5161298e565b9085610d858685610d7f8585611baa565b51612a51565b601290600460206001600160a01b03610d9e8787611baa565b5151166040519283809263313ce56760e01b82525afa5f9181610ebe575b509560ff939291600197610eb6575b506001600160801b036101c0610df4888a8060a01b03610deb828b611baa565b51511698611baa565b51015116918b6001600160801b036101e0610e0f8a84611baa565b510151166020610e1f8a84611baa565b5101516040610e2e8b85611baa565b510151916102c0610e3f8c86611baa565b51015193610220610e568d8f8060a01b0393611baa565b51015116966040519a610e688c61164c565b8b5260208b015260408a01526060890152608088015260a087015260c086015260e085015261010084015216610120820152610ea48286611baa565b52610eaf8185611baa565b5001610d50565b92508b610dcb565b9392915093506020833d8211610eff575b81610edc6020938361169e565b81010312610215576001958a94610ef460ff95611760565b929394509096610dbc565b3d9150610ecf565b6040516020808252819061033790820186611429565b610f329192503d805f833e6102ed818361169e565b509083610d42565b610d3093505f91610f5584923d8086833e610b45818361169e565b5094509150610cfc565b3461021557602036600319011261021557610f78611371565b60405163ec489c2160e01b81527f00000000000000000000000000000000000000000000000000000000000000006001600160a01b0381811660048401529192917f000000000000000000000000000000000000000000000000000000000000000016905f84602481855afa9384156101d4575f9461122c575b506040516301465d3360e61b81526001600160a01b0391821660048201529083166024820152905f9082908180604481015b03915afa9182156101d4575f915f9361120e575b506110438451612371565b915f5b85518110156111e85761105e8284610d68848a611baa565b908661106f8486610d7f8585611baa565b601290600460206001600160a01b036110888787611baa565b5151166040519283809263313ce56760e01b82525afa5f918161119f575b509560ff939291600197611197575b506001600160801b036101c06110d5888a8060a01b03610deb828b611baa565b51015116918c6001600160801b036101e06110f08a84611baa565b5101511660206111008a84611baa565b510151604061110f8b85611baa565b510151916102c06111208c86611baa565b510151936102206111378d8f8060a01b0393611baa565b51015116966040519a6111498c61164c565b8b5260208b015260408a01526060890152608088015260a087015260c086015260e0850152610100840152166101208201526111858287611baa565b526111908186611baa565b5001611046565b92508c6110b5565b9392915093506020833d82116111e0575b816111bd6020938361169e565b81010312610215576001958b946111d560ff95611760565b9293945090966110a6565b3d91506111b0565b611203848660ff604051938493604085526040850190611429565b911660208301520390f35b90925061122591503d805f833e6102ed818361169e565b9184611038565b5f9194506110249261124885923d8086833e610b45818361169e565b509592509250610ff2565b346102155760403660031901126102155761126c611371565b5061129561128061127b611387565b611bf4565b9160405194859460808652608086019061139d565b8481036020860152602080835192838152019201905f5b818110611358575050508381036040850152815180825260208201916020808360051b8301019401925f915b8383106113255750505050508281036060840152602080835192838152019201905f5b818110611309575050500390f35b825160ff168452859450602093840193909201916001016112fb565b91939596509193602080611345600193601f1986820301875289516113d9565b97019301930190928796959492936112d8565b82518452879650602093840193909201916001016112ac565b600435906001600160a01b038216820361021557565b602435906001600160a01b038216820361021557565b90602080835192838152019201905f5b8181106113ba5750505090565b82516001600160a01b03168452602093840193909201916001016113ad565b805180835260209291819084018484015e5f828201840152601f01601f1916010190565b3461021557604036600319011261021557602061036761141b611371565b611423611387565b906121dc565b9080602083519182815201916020808360051b8301019401925f915b83831061145457505050505090565b9091929394602080600192601f19858203018652885190848060a01b03825116815282820151838201526040820151604082015261012060ff816114be6114ac606087015161014060608801526101408701906113d9565b608087015186820360808801526113d9565b9460a081015160a086015260c081015160c086015260e081015160e0860152888060a01b036101008201511661010086015201511691015297019301930191939290611445565b346102155760203660031901126102155761151e611371565b60405163e860accb60e01b8152906020826004817f00000000000000000000000000000000000000000000000000000000000000006001600160a01b03165afa9182156101d4575f9261160e575b506040516334924edb60e21b81526001600160a01b0391821660048201529160609183916024918391165afa80156101d4575f906115ba575b6040516001600160a01b039091168152602090f35b506060813d606011611606575b816115d46060938361169e565b81010312610215578061160060406115ed6020946116d6565b926115f98582016116d6565b50016116d6565b506115a5565b3d91506115c7565b9091506020813d602011611644575b8161162a6020938361169e565b810103126102155761163d6060916116d6565b919061156c565b3d915061161d565b61014081019081106001600160401b0382111761092d57604052565b60e081019081106001600160401b0382111761092d57604052565b608081019081106001600160401b0382111761092d57604052565b90601f801991011681019081106001600160401b0382111761092d57604052565b6001600160401b03811161092d5760051b60200190565b51906001600160a01b038216820361021557565b81601f82011215610215578051906001600160401b03821161092d576040519261171e601f8401601f19166020018561169e565b8284526020838301011161021557815f9260208093018386015e8301015290565b5190811515820361021557565b51906001600160801b038216820361021557565b519060ff8216820361021557565b808203929160a084126102155781516001600160401b03811161021557820181601f82011215610215578051906117a4826116bf565b926117b2604051948561169e565b82845260208085019360051b830101918183116102155760208101935b83851061182357505050505060809093601f1901126102155761181b6080604051926117fa84611683565b60208101518452604081015160208501526060810151604085015201611760565b606082015290565b84516001600160401b03811161021557820190610520828503601f190112610215576040519061052082018281106001600160401b0382111761092d5760405261186f602084016116d6565b825260408301516001600160401b03811161021557856020611893928601016116ea565b602083015260608301516001600160401b038111610215578560206118ba928601016116ea565b60408301526080830151606083015260a0830151608083015260c083015160a083015260e083015160c083015261010083015160e08301526118ff610120840161173f565b610100830152611912610140840161173f565b610120830152611925610160840161173f565b610140830152611938610180840161173f565b61016083015261194b6101a0840161174c565b61018083015261195e6101c0840161174c565b6101a08301526119716101e0840161174c565b6101c0830152611984610200840161174c565b6101e08301526102208301519164ffffffffff8316830361021557611b1e61052060209586956102008501526119bd61024082016116d6565b6102208501526119d061026082016116d6565b6102408501526119e361028082016116d6565b6102608501526102a08101516102808501526102c08101516102a08501526102e08101516102c0850152611a1a61030082016116d6565b6102e0850152610320810151610300850152610340810151610320850152610360810151610340850152610380810151610360850152611a5d6103a0820161173f565b610380850152611a706103c0820161173f565b6103a0850152611a836103e0820161174c565b6103c0850152611a96610400820161174c565b6103e0850152611aa9610420820161174c565b610400850152611abc610440820161173f565b6104208501526104608101516104408501526104808101516104608501526104a08101516104808501526104c08101516104a0850152611aff6104e0820161173f565b6104c0850152611b12610500820161173f565b6104e08501520161174c565b6105008201528152019401936117cf565b90611b39826116bf565b611b46604051918261169e565b8281528092611b57601f19916116bf565b0190602036910137565b90611b6b826116bf565b611b78604051918261169e565b8281528092611b89601f19916116bf565b01905f5b828110611b9957505050565b806060602080938501015201611b8d565b8051821015611bbe5760209160051b010190565b634e487b7160e01b5f52603260045260245ffd5b5f198114611be05760010190565b634e487b7160e01b5f52601160045260245ffd5b6001600160a01b0316908115611f525760405191630401d45d60e41b835260048301525f82602481305afa9182156101d4575f92611dd8575b505f915f5b8151811015611c6b5760e0611c478284611baa565b510151611c57575b600101611c32565b92611c63600191611bd2565b939050611c4f565b50611c7583611b2f565b90611c7f84611b2f565b93611c92611c8c82611b61565b91611b2f565b945f935f5b8451811015611dcd5760e0611cac8287611baa565b510151611cbc575b600101611c97565b946001600160a01b03611ccf8787611baa565b515116611cdc8284611baa565b5260e0611ce98787611baa565b510151611cf68285611baa565b526080611d038787611baa565b510151611d108286611baa565b52611d1b8185611baa565b50600460206001600160a01b03611d328989611baa565b5151166040519283809263313ce56760e01b82525afa5f9181611d8a575b5091611d6d91600193155f14611d7557506012610b0d828c611baa565b959050611cb4565b60ff611d81838d611baa565b91169052611bd2565b9150916020823d8211611dc5575b81611da56020938361169e565b8101031261021557600192611dbc611d6d93611760565b92509092611d50565b3d9150611d98565b509590949193509150565b9091503d805f833e611dea818361169e565b810190602081830312610215578051906001600160401b03821161021557019080601f8301121561021557815191611e21836116bf565b92611e2f604051948561169e565b80845260208085019160051b830101918383116102155760208101915b838310611e5f575050505050905f611c2d565b82516001600160401b03811161021557820190610140828703601f1901126102155760405190611e8e8261164c565b611e9a602084016116d6565b8252604083015160208301526060830151604083015260808301516001600160401b03811161021557876020611ed2928601016116ea565b606083015260a0830151916001600160401b03831161021557611f4161014085611f048b6020809998819901016116ea565b608085015260c081015160a085015260e081015160c085015261010081015160e0850152611f3561012082016116d6565b61010085015201611760565b610120820152815201920191611e4c565b60405163ec489c2160e01b81526001600160a01b037f000000000000000000000000000000000000000000000000000000000000000081166004830152919250905f90829060249082907f0000000000000000000000000000000000000000000000000000000000000000165afa9081156101d4575f916120f3575b50805190611fdb82611b2f565b92611fe583611b2f565b93611fef84611b61565b93611ff981611b2f565b935f5b82811061200c5750505093929190565b6004906001600160a01b036120218285611baa565b51511661202e8287611baa565b52604061203b8285611baa565b510151612048828a611baa565b526120538189611baa565b5060206001600160a01b036120688386611baa565b5151166040519384809263313ce56760e01b82525afa805f916120b8575b600193506120a35750601261209b8289611baa565b525b01611ffc565b60ff6120af838a611baa565b9116905261209d565b90506020833d82116120eb575b816120d26020938361169e565b81010312610215576120e5600193611760565b90612086565b3d91506120c5565b61210791503d805f833e610b45818361169e565b505f611fce565b91906040838203126102155782516001600160401b03811161021557830181601f8201121561021557805190612143826116bf565b92612151604051948561169e565b82845260208085019360071b8301019181831161021557602001925b82841061218857505050506020612185919301611760565b90565b6080848303126102155760206080916040516121a381611683565b6121ac876116d6565b815282870151838201526121c26040880161173f565b60408201526060870151606082015281520193019261216d565b906121e68261287a565b9091508061235f575b6122ea575b506040516301465d3360e61b81526001600160a01b037f00000000000000000000000000000000000000000000000000000000000000008116600483015290911660248201525f81806044810103817f00000000000000000000000000000000000000000000000000000000000000006001600160a01b03165afa9081156101d4575f916122cf575b505f5b81518110156122c8576001600160a01b0361229b8284611baa565b5151166001600160a01b038416146122b557600101612280565b606092506122c291611baa565b51015190565b5050505f90565b6122e391503d805f833e6102ed818361169e565b505f61227d565b6040516370a0823160e01b81526001600160a01b038381166004830152909160209183916024918391165afa5f918161232b575b50156121f4575b91505090565b9091506020813d602011612357575b816123476020938361169e565b810103126102155751905f61231e565b3d915061233a565b506001600160a01b03811615156121ef565b9061237b826116bf565b612388604051918261169e565b8281528092612399601f19916116bf565b01905f5b8281106123a957505050565b6020906040516123b88161164c565b5f81525f838201525f6040820152606080820152606060808201525f60a08201525f60c08201525f60e08201525f6101008201525f6101208201528282850101520161239d565b91908260c09103126102155781519160208101519160408201519160608101519160a0608083015192015190565b60405163ec489c2160e01b81526001600160a01b037f0000000000000000000000000000000000000000000000000000000000000000811660048301525f90829060249082907f0000000000000000000000000000000000000000000000000000000000000000165afa9081156101d4575f91612507575b505f5b81518110156124fe576001600160a01b036124c38284611baa565b5151166001600160a01b038416146124dd576001016124a8565b6001600160801b0392506124f4906101c092611baa565b5101511690600190565b5050505f905f90565b61251b91503d805f833e610b45818361169e565b505f6124a5565b60405163ec489c2160e01b81526001600160a01b037f0000000000000000000000000000000000000000000000000000000000000000811660048301525f90829060249082907f0000000000000000000000000000000000000000000000000000000000000000165afa9081156101d4575f916125e8575b505f5b81518110156122c8576001600160a01b036125b88284611baa565b5151166001600160a01b038416146125d25760010161259d565b61010092506125e091611baa565b510151151590565b6125fc91503d805f833e610b45818361169e565b505f61259a565b519061ffff8216820361021557565b9061261c8261287a565b905080612786575b612712575b506040516301465d3360e61b81526001600160a01b037f00000000000000000000000000000000000000000000000000000000000000008116600483015290911660248201525f81806044810103817f00000000000000000000000000000000000000000000000000000000000000006001600160a01b03165afa9081156101d4575f916126f7575b505f5b81518110156122c8576001600160a01b036126d08284611baa565b5151166001600160a01b038416146126ea576001016126b5565b602092506122c291611baa565b61270b91503d805f833e6102ed818361169e565b505f6126b2565b6040516370a0823160e01b81526001600160a01b038381166004830152909160209183916024918391165afa5f9181612752575b50156126295791505090565b9091506020813d60201161277e575b8161276e6020938361169e565b810103126102155751905f612746565b3d9150612761565b506001600160a01b0381161515612624565b60405163ec489c2160e01b81526001600160a01b037f0000000000000000000000000000000000000000000000000000000000000000811660048301525f90829060249082907f0000000000000000000000000000000000000000000000000000000000000000165afa9081156101d4575f9161285f575b505f5b81518110156124fe576001600160a01b0361282e8284611baa565b5151166001600160a01b0384161461284857600101612813565b6001600160801b0392506124f4906101e092611baa565b61287391503d805f833e610b45818361169e565b505f612810565b60405163ec489c2160e01b81526001600160a01b037f0000000000000000000000000000000000000000000000000000000000000000811660048301529192915f90829060249082907f0000000000000000000000000000000000000000000000000000000000000000165afa5f9181612971575b506128ff575b505f915081908190565b5f5b8151811015612966576001600160a01b0361291c8284611baa565b5151166001600160a01b0385161461293657600101612901565b92506102406124f46001600160a01b036102206129538786611baa565b51015116946001600160a01b0393611baa565b50509050805f6128f5565b6129869192503d805f833e610b45818361169e565b50905f6128ef565b919060018060a01b036102208401511690816129e0575b50505f5b81518110156122c8576001600160a01b036129c48284611baa565b515184516001600160a01b03169116146126ea576001016129a9565b6040516370a0823160e01b81526001600160a01b03909116600482015290602090829060249082905afa5f9181612a1d575b5061232557806129a5565b9091506020813d602011612a49575b81612a396020938361169e565b810103126102155751905f612a12565b3d9150612a2c565b919060018060a01b03610240840151169081612aa3575b50505f5b81518110156122c8576001600160a01b03612a878284611baa565b515184516001600160a01b03169116146122b557600101612a6c565b6040516370a0823160e01b81526001600160a01b03909116600482015290602090829060249082905afa5f9181612ae0575b506123255780612a68565b9091506020813d602011612b0c575b81612afc6020938361169e565b810103126102155751905f612ad5565b3d9150612aef56fea2646970667358221220d161c75fe856bdb7a19cac777772a8a8cb5094b3e8097a3d24bb8f9d48557a9f64736f6c634300081e0033",
  "devdoc": {
    "details": "Contains all read/view functions from v1, separate from write operations",
    "kind": "dev",
    "methods": {
      "getAllTokensInfoWithEMode(address)": {
        "params": {
          "user": "The address of the user"
        },
        "returns": {
          "tokens": "Array of TokenInfo structs",
          "userEModeCategory": "The user's current E-Mode category ID (0 = no E-Mode)"
        }
      },
      "getBalance(address,address)": {
        "details": "First attempts to call balanceOf on the associated aToken; if that fails, falls back to user reserves data."
      },
      "getBorrowBalance(address,address)": {
        "details": "First attempts to call balanceOf on the associated variable debt token; if that fails, falls back to user reserves data."
      },
      "getEModes()": {
        "returns": {
          "emodes": "Array of E-Mode categories with their configurations"
        }
      },
      "getLtv(address,address)": {
        "details": "The market parameter is unused and kept for interface consistency across gateways."
      },
      "getMaxLtv(address,address)": {
        "details": "The market parameter is unused and kept for interface consistency across gateways."
      },
      "getUserEMode(address)": {
        "params": {
          "user": "The address of the user"
        },
        "returns": {
          "categoryId": "The E-Mode category ID (0 = no E-Mode)"
        }
      }
    },
    "title": "AaveGatewayView",
    "version": 1
  },
  "userdoc": {
    "kind": "user",
    "methods": {
      "borrowedTokens(address)": {
        "notice": "Returns the list of tokens that the user has borrowed."
      },
      "getAllTokensInfoWithEMode(address)": {
        "notice": "Returns all token info for a user along with their E-Mode category"
      },
      "getBalance(address,address)": {
        "notice": "Gets the balance for a given token and user."
      },
      "getBorrowBalance(address,address)": {
        "notice": "Gets the borrow balance for a given token and user."
      },
      "getEModes()": {
        "notice": "Returns all available E-Mode categories"
      },
      "getLtv(address,address)": {
        "notice": "Returns the protocol-level maximum LTV configuration for the user in basis points."
      },
      "getMaxLtv(address,address)": {
        "notice": "Returns the liquidation threshold (LLTV) for a given user in basis points."
      },
      "getUserEMode(address)": {
        "notice": "Returns the user's current E-Mode category ID"
      }
    },
    "notice": "View-only gateway for Aave v3 protocol",
    "version": 1
  },
  "storageLayout": {
    "storage": [],
    "types": null
  }
}