{
  "address": "0x6bb8899c80e3cD7ac150Bf2f9Fa5745Ade782558",
  "abi": [
    {
      "inputs": [
        {
          "internalType": "address",
          "name": "_poolAddressesProvider",
          "type": "address"
        },
        {
          "internalType": "address",
          "name": "_uiPoolDataProvider",
          "type": "address"
        }
      ],
      "stateMutability": "nonpayable",
      "type": "constructor"
    },
    {
      "inputs": [
        {
          "internalType": "address",
          "name": "user",
          "type": "address"
        }
      ],
      "name": "borrowedTokens",
      "outputs": [
        {
          "internalType": "address[]",
          "name": "",
          "type": "address[]"
        }
      ],
      "stateMutability": "view",
      "type": "function"
    },
    {
      "inputs": [
        {
          "internalType": "address",
          "name": "underlyingToken",
          "type": "address"
        }
      ],
      "name": "getAToken",
      "outputs": [
        {
          "internalType": "address",
          "name": "",
          "type": "address"
        }
      ],
      "stateMutability": "view",
      "type": "function"
    },
    {
      "inputs": [
        {
          "internalType": "address",
          "name": "user",
          "type": "address"
        }
      ],
      "name": "getAllTokensInfo",
      "outputs": [
        {
          "components": [
            {
              "internalType": "address",
              "name": "token",
              "type": "address"
            },
            {
              "internalType": "uint256",
              "name": "supplyRate",
              "type": "uint256"
            },
            {
              "internalType": "uint256",
              "name": "borrowRate",
              "type": "uint256"
            },
            {
              "internalType": "string",
              "name": "name",
              "type": "string"
            },
            {
              "internalType": "string",
              "name": "symbol",
              "type": "string"
            },
            {
              "internalType": "uint256",
              "name": "price",
              "type": "uint256"
            },
            {
              "internalType": "uint256",
              "name": "borrowBalance",
              "type": "uint256"
            },
            {
              "internalType": "uint256",
              "name": "balance",
              "type": "uint256"
            },
            {
              "internalType": "address",
              "name": "aToken",
              "type": "address"
            },
            {
              "internalType": "uint8",
              "name": "decimals",
              "type": "uint8"
            }
          ],
          "internalType": "struct AaveGatewayView.TokenInfo[]",
          "name": "",
          "type": "tuple[]"
        }
      ],
      "stateMutability": "view",
      "type": "function"
    },
    {
      "inputs": [
        {
          "internalType": "address",
          "name": "user",
          "type": "address"
        }
      ],
      "name": "getAllTokensInfoWithEMode",
      "outputs": [
        {
          "components": [
            {
              "internalType": "address",
              "name": "token",
              "type": "address"
            },
            {
              "internalType": "uint256",
              "name": "supplyRate",
              "type": "uint256"
            },
            {
              "internalType": "uint256",
              "name": "borrowRate",
              "type": "uint256"
            },
            {
              "internalType": "string",
              "name": "name",
              "type": "string"
            },
            {
              "internalType": "string",
              "name": "symbol",
              "type": "string"
            },
            {
              "internalType": "uint256",
              "name": "price",
              "type": "uint256"
            },
            {
              "internalType": "uint256",
              "name": "borrowBalance",
              "type": "uint256"
            },
            {
              "internalType": "uint256",
              "name": "balance",
              "type": "uint256"
            },
            {
              "internalType": "address",
              "name": "aToken",
              "type": "address"
            },
            {
              "internalType": "uint8",
              "name": "decimals",
              "type": "uint8"
            }
          ],
          "internalType": "struct AaveGatewayView.TokenInfo[]",
          "name": "tokens",
          "type": "tuple[]"
        },
        {
          "internalType": "uint8",
          "name": "userEModeCategory",
          "type": "uint8"
        }
      ],
      "stateMutability": "view",
      "type": "function"
    },
    {
      "inputs": [
        {
          "internalType": "address",
          "name": "token",
          "type": "address"
        }
      ],
      "name": "getAssetPrice",
      "outputs": [
        {
          "internalType": "uint256",
          "name": "price",
          "type": "uint256"
        }
      ],
      "stateMutability": "view",
      "type": "function"
    },
    {
      "inputs": [
        {
          "internalType": "address[]",
          "name": "tokens",
          "type": "address[]"
        }
      ],
      "name": "getAssetPrices",
      "outputs": [
        {
          "internalType": "uint256[]",
          "name": "prices",
          "type": "uint256[]"
        }
      ],
      "stateMutability": "view",
      "type": "function"
    },
    {
      "inputs": [
        {
          "internalType": "address",
          "name": "token",
          "type": "address"
        },
        {
          "internalType": "address",
          "name": "user",
          "type": "address"
        }
      ],
      "name": "getBalance",
      "outputs": [
        {
          "internalType": "uint256",
          "name": "",
          "type": "uint256"
        }
      ],
      "stateMutability": "view",
      "type": "function"
    },
    {
      "inputs": [
        {
          "internalType": "address",
          "name": "token",
          "type": "address"
        },
        {
          "internalType": "address",
          "name": "user",
          "type": "address"
        }
      ],
      "name": "getBorrowBalance",
      "outputs": [
        {
          "internalType": "uint256",
          "name": "",
          "type": "uint256"
        }
      ],
      "stateMutability": "view",
      "type": "function"
    },
    {
      "inputs": [
        {
          "internalType": "address",
          "name": "token",
          "type": "address"
        },
        {
          "internalType": "address",
          "name": "user",
          "type": "address"
        }
      ],
      "name": "getBorrowBalanceCurrent",
      "outputs": [
        {
          "internalType": "uint256",
          "name": "",
          "type": "uint256"
        }
      ],
      "stateMutability": "nonpayable",
      "type": "function"
    },
    {
      "inputs": [
        {
          "internalType": "address",
          "name": "token",
          "type": "address"
        }
      ],
      "name": "getBorrowRate",
      "outputs": [
        {
          "internalType": "uint256",
          "name": "",
          "type": "uint256"
        },
        {
          "internalType": "bool",
          "name": "",
          "type": "bool"
        }
      ],
      "stateMutability": "view",
      "type": "function"
    },
    {
      "inputs": [
        {
          "internalType": "address",
          "name": "",
          "type": "address"
        },
        {
          "internalType": "address",
          "name": "user",
          "type": "address"
        }
      ],
      "name": "getCurrentLtvBps",
      "outputs": [
        {
          "internalType": "uint256",
          "name": "",
          "type": "uint256"
        }
      ],
      "stateMutability": "view",
      "type": "function"
    },
    {
      "inputs": [],
      "name": "getEModes",
      "outputs": [
        {
          "components": [
            {
              "internalType": "uint8",
              "name": "id",
              "type": "uint8"
            },
            {
              "internalType": "uint16",
              "name": "ltv",
              "type": "uint16"
            },
            {
              "internalType": "uint16",
              "name": "liquidationThreshold",
              "type": "uint16"
            },
            {
              "internalType": "uint16",
              "name": "liquidationBonus",
              "type": "uint16"
            },
            {
              "internalType": "string",
              "name": "label",
              "type": "string"
            },
            {
              "internalType": "uint128",
              "name": "collateralBitmap",
              "type": "uint128"
            },
            {
              "internalType": "uint128",
              "name": "borrowableBitmap",
              "type": "uint128"
            }
          ],
          "internalType": "struct AaveGatewayView.EModeInfo[]",
          "name": "emodes",
          "type": "tuple[]"
        }
      ],
      "stateMutability": "view",
      "type": "function"
    },
    {
      "inputs": [
        {
          "internalType": "address",
          "name": "",
          "type": "address"
        },
        {
          "internalType": "address",
          "name": "user",
          "type": "address"
        }
      ],
      "name": "getLiquidationLtvBps",
      "outputs": [
        {
          "internalType": "uint256",
          "name": "",
          "type": "uint256"
        }
      ],
      "stateMutability": "view",
      "type": "function"
    },
    {
      "inputs": [
        {
          "internalType": "address",
          "name": "",
          "type": "address"
        },
        {
          "internalType": "address",
          "name": "user",
          "type": "address"
        }
      ],
      "name": "getLtv",
      "outputs": [
        {
          "internalType": "uint256",
          "name": "",
          "type": "uint256"
        }
      ],
      "stateMutability": "view",
      "type": "function"
    },
    {
      "inputs": [
        {
          "internalType": "address",
          "name": "",
          "type": "address"
        },
        {
          "internalType": "address",
          "name": "user",
          "type": "address"
        }
      ],
      "name": "getMaxLtv",
      "outputs": [
        {
          "internalType": "uint256",
          "name": "",
          "type": "uint256"
        }
      ],
      "stateMutability": "view",
      "type": "function"
    },
    {
      "inputs": [
        {
          "internalType": "address",
          "name": "token",
          "type": "address"
        },
        {
          "internalType": "address",
          "name": "user",
          "type": "address"
        }
      ],
      "name": "getPossibleCollaterals",
      "outputs": [
        {
          "internalType": "address[]",
          "name": "collateralAddresses",
          "type": "address[]"
        },
        {
          "internalType": "uint256[]",
          "name": "balances",
          "type": "uint256[]"
        },
        {
          "internalType": "string[]",
          "name": "symbols",
          "type": "string[]"
        },
        {
          "internalType": "uint8[]",
          "name": "decimals",
          "type": "uint8[]"
        }
      ],
      "stateMutability": "view",
      "type": "function"
    },
    {
      "inputs": [
        {
          "internalType": "address",
          "name": "token",
          "type": "address"
        }
      ],
      "name": "getReserveConfig",
      "outputs": [
        {
          "components": [
            {
              "internalType": "address",
              "name": "token",
              "type": "address"
            },
            {
              "internalType": "uint256",
              "name": "price",
              "type": "uint256"
            },
            {
              "internalType": "uint256",
              "name": "ltv",
              "type": "uint256"
            },
            {
              "internalType": "uint256",
              "name": "liquidationThreshold",
              "type": "uint256"
            },
            {
              "internalType": "uint256",
              "name": "liquidationBonus",
              "type": "uint256"
            },
            {
              "internalType": "uint8",
              "name": "decimals",
              "type": "uint8"
            },
            {
              "internalType": "bool",
              "name": "usageAsCollateralEnabled",
              "type": "bool"
            },
            {
              "internalType": "bool",
              "name": "borrowingEnabled",
              "type": "bool"
            }
          ],
          "internalType": "struct AaveGatewayView.ReserveConfigData",
          "name": "config",
          "type": "tuple"
        }
      ],
      "stateMutability": "view",
      "type": "function"
    },
    {
      "inputs": [
        {
          "internalType": "address[]",
          "name": "tokens",
          "type": "address[]"
        }
      ],
      "name": "getReserveConfigs",
      "outputs": [
        {
          "components": [
            {
              "internalType": "address",
              "name": "token",
              "type": "address"
            },
            {
              "internalType": "uint256",
              "name": "price",
              "type": "uint256"
            },
            {
              "internalType": "uint256",
              "name": "ltv",
              "type": "uint256"
            },
            {
              "internalType": "uint256",
              "name": "liquidationThreshold",
              "type": "uint256"
            },
            {
              "internalType": "uint256",
              "name": "liquidationBonus",
              "type": "uint256"
            },
            {
              "internalType": "uint8",
              "name": "decimals",
              "type": "uint8"
            },
            {
              "internalType": "bool",
              "name": "usageAsCollateralEnabled",
              "type": "bool"
            },
            {
              "internalType": "bool",
              "name": "borrowingEnabled",
              "type": "bool"
            }
          ],
          "internalType": "struct AaveGatewayView.ReserveConfigData[]",
          "name": "configs",
          "type": "tuple[]"
        }
      ],
      "stateMutability": "view",
      "type": "function"
    },
    {
      "inputs": [
        {
          "internalType": "address",
          "name": "token",
          "type": "address"
        }
      ],
      "name": "getSupplyRate",
      "outputs": [
        {
          "internalType": "uint256",
          "name": "",
          "type": "uint256"
        },
        {
          "internalType": "bool",
          "name": "",
          "type": "bool"
        }
      ],
      "stateMutability": "view",
      "type": "function"
    },
    {
      "inputs": [
        {
          "internalType": "address",
          "name": "market",
          "type": "address"
        }
      ],
      "name": "getSupportedCollaterals",
      "outputs": [
        {
          "internalType": "address[]",
          "name": "collateralAddresses",
          "type": "address[]"
        }
      ],
      "stateMutability": "view",
      "type": "function"
    },
    {
      "inputs": [
        {
          "internalType": "address",
          "name": "aToken",
          "type": "address"
        }
      ],
      "name": "getUnderlyingToken",
      "outputs": [
        {
          "internalType": "address",
          "name": "",
          "type": "address"
        }
      ],
      "stateMutability": "view",
      "type": "function"
    },
    {
      "inputs": [
        {
          "internalType": "address",
          "name": "user",
          "type": "address"
        }
      ],
      "name": "getUserAccountData",
      "outputs": [
        {
          "internalType": "uint256",
          "name": "totalCollateralBase",
          "type": "uint256"
        },
        {
          "internalType": "uint256",
          "name": "totalDebtBase",
          "type": "uint256"
        },
        {
          "internalType": "uint256",
          "name": "availableBorrowsBase",
          "type": "uint256"
        },
        {
          "internalType": "uint256",
          "name": "currentLiquidationThreshold",
          "type": "uint256"
        },
        {
          "internalType": "uint256",
          "name": "ltv",
          "type": "uint256"
        },
        {
          "internalType": "uint256",
          "name": "healthFactor",
          "type": "uint256"
        }
      ],
      "stateMutability": "view",
      "type": "function"
    },
    {
      "inputs": [
        {
          "internalType": "address",
          "name": "user",
          "type": "address"
        }
      ],
      "name": "getUserEMode",
      "outputs": [
        {
          "internalType": "uint8",
          "name": "categoryId",
          "type": "uint8"
        }
      ],
      "stateMutability": "view",
      "type": "function"
    },
    {
      "inputs": [
        {
          "internalType": "address",
          "name": "market",
          "type": "address"
        },
        {
          "internalType": "address",
          "name": "collateral",
          "type": "address"
        }
      ],
      "name": "isCollateralSupported",
      "outputs": [
        {
          "internalType": "bool",
          "name": "isSupported",
          "type": "bool"
        }
      ],
      "stateMutability": "view",
      "type": "function"
    },
    {
      "inputs": [],
      "name": "poolAddressesProvider",
      "outputs": [
        {
          "internalType": "contract IPoolAddressesProvider",
          "name": "",
          "type": "address"
        }
      ],
      "stateMutability": "view",
      "type": "function"
    },
    {
      "inputs": [],
      "name": "uiPoolDataProvider",
      "outputs": [
        {
          "internalType": "contract IUiPoolDataProviderV3",
          "name": "",
          "type": "address"
        }
      ],
      "stateMutability": "view",
      "type": "function"
    }
  ],
  "transactionHash": "0x23bc7ce38cc476c1a37cfc08a9740cc43ec2d16e945f9761a739afd78e778b96",
  "args": [
    "0x061D8e131F26512348ee5FA42e2DF1bA9d6505E9",
    "0xc851e6147dcE6A469CC33BE3121b6B2D4CaD2763"
  ],
  "numDeployments": 10,
  "solcInputHash": "0fea5cc4d237037126c3fb60329d2945",
  "bytecode": "0x60c03461017357601f6138f538819003918201601f19168301916001600160401b0383118484101761017757808492604094855283398101031261017357610052602061004b8361018b565b920161018b565b6001600160a01b039182166080521660a05260405161375590816101a08239608051818181610172015281816102a10152818161035c0152818161093e01528181610c4f015281816110a801528181611164015281816112ce015281816115a2015281816119a501528181611d3801528181611e460152818161292401528181612be201528181612d7e01528181612f1f015281816130150152818161310401528181613258015281816133b9015261349c015260a0518181816102cd015281816103ca015281816107c4015281816108e001528181610c8001528181611195015281816112f9015281816115d60152818161295901528181612c0e01528181612f500152818161304601528181613284015281816133ea01526134d00152f35b5f80fd5b634e487b7160e01b5f52604160045260245ffd5b51906001600160a01b03821682036101735756fe6080806040526004361015610012575f80fd5b5f3560e01c908163053c81b51461198457508063104e999d1461188c578063118e31b7146103375780633b9025c5146118605780633e69c6af1461157a578063401d45d01461129e57806362fd6add1461108e57806366e2d09b14611133578063691bcc881461110d5780636b5441a914611112578063732a52ee1461110d57806378466113146110d757806380e17d8714611093578063951afe901461108e578063a92c3f7e14610c28578063b3596f0714610c05578063bd05bdb414610a42578063bf92857c1461090f578063c3a3a9a7146108cb578063ceac55df146107a3578063d4fac45d1461076f578063d71275f614610736578063d7728c1c1461033c578063e94201c714610337578063eddf1b79146102715763f5125d3f1461013a575f80fd5b3461026557604036600319011261026557610153611b6c565b5061015c611b82565b60405163026b1d5f60e01b8152906020826004817f00000000000000000000000000000000000000000000000000000000000000006001600160a01b03165afa918215610224575f9261022f575b50604051632fe4a15f60e21b81526001600160a01b0391821660048201529160c09183916024918391165afa8015610224576020915f916101ef575b50604051908152f35b610211915060c03d60c01161021d575b6102098183612026565b810190612d3a565b5093505050505f6101e6565b503d6101ff565b6040513d5f823e3d90fd5b9091506020813d602011610269575b8161024b60209383612026565b810103126102655761025e60c091612049565b91906101aa565b5f80fd5b3d915061023e565b34610265576020366003190112610265576102c95f61028e611b6c565b604051809381926301465d3360e61b83527f000000000000000000000000000000000000000000000000000000000000000060048401612b97565b03817f00000000000000000000000000000000000000000000000000000000000000006001600160a01b03165afa8015610224576020915f91610313575b5060ff60405191168152f35b61032f91503d805f833e6103278183612026565b810190612ac9565b905082610307565b611bf8565b346102655761034a36611ae7565b60405163e860accb60e01b81529091907f00000000000000000000000000000000000000000000000000000000000000006001600160a01b031690602081600481855afa908115610224575f916106fc575b5060405163ec489c2160e01b815260048101929092526001600160a01b0390811692905f90839060249082907f0000000000000000000000000000000000000000000000000000000000000000165afa918215610224575f926106d7575b50906104058461205d565b936104136040519586612026565b808552601f196104228261205d565b015f5b8181106106ba5750505f915b81831061048957856040518091602082016020835281518091526020604084019201905f5b818110610464575050500390f35b9193509160206101008261047b6001948851611f5e565b019401910191849392610456565b6104a061049b848487989996976120a6565b6120ca565b5f956001600160a01b039091169290865b83518110156106ad57846001600160a01b036104cd83876120eb565b515116146104dd576001016104b1565b6102c091959897506104f39084979395946120eb565b510151915b60405163313ce56760e01b815292876012602086600481875afa80965f9161066e575b50602496610666575b505f905f5f905f936101405f966040519b8c8092633e15014160e01b82528c60048301525afa5f5f5f905f92845f956105d7575b60019f506105c0575b505050505060ff949596604051986105788a611fef565b895260208901526040880152606087015260808601521660a0840152151560c0830152151560e08201526105ac82896120eb565b526105b781886120eb565b50019192610431565b93995091975094509250905060ff5f808080610561565b9450505050506101408b3d821161065e575b816105f76101409383612026565b81010312610265578a602060019c0151604082015160608301519061061e60a08501612154565b9261065361012061063160c08801612154565b9661063e60e08201612154565b5061064c6101008201612154565b5001612154565b509091929394610558565b3d91506105e9565b90508b610524565b9250506020823d82116106a5575b8161068960209383612026565b810103126102655760249561069e8b93612175565b909661051b565b3d915061067c565b50939695919490926104f8565b6020906106c89594956131ec565b82828a01015201939293610425565b6106f49192503d805f833e6106ec8183612026565b810190612183565b5090846103fa565b90506020813d60201161072e575b8161071760209383612026565b810103126102655761072890612049565b8461039c565b3d915061070a565b3461026557602036600319011261026557610757610752611b6c565b6133a2565b604080519283529015156020830152819081015b0390f35b3461026557604036600319011261026557602061079b61078d611b6c565b610795611b82565b90613228565b604051908152f35b34610265576020366003190112610265576107c05f61028e611b6c565b03817f00000000000000000000000000000000000000000000000000000000000000006001600160a01b03165afa908115610224575f916108b0575b505f5f5b825181101561083957606061081582856120eb565b510151610825575b600101610800565b9061083160019161258d565b91905061081d565b5061084390612074565b905f915f5b825181101561089a57806060610860600193866120eb565b51015161086e575b01610848565b818060a01b0361087e82866120eb565b51511661089461088d8761258d565b96856120eb565b52610868565b6040516020808252819061076b90820185611b98565b6108c491503d805f833e6103278183612026565b50816107fc565b34610265575f366003190112610265576040517f00000000000000000000000000000000000000000000000000000000000000006001600160a01b03168152602090f35b3461026557602036600319011261026557610928611b6c565b60405163026b1d5f60e01b8152906020826004817f00000000000000000000000000000000000000000000000000000000000000006001600160a01b03165afa918215610224575f92610a04575b50604051632fe4a15f60e21b81526001600160a01b0391821660048201529160c09183916024918391165afa9081156102245760c0915f915f5f5f915f935f956109dd575b50604051958652602086015260408501526060840152608083015260a0820152f35b9450505050506109fa9150823d841161021d576102098183612026565b93909290876109bb565b9091506020813d602011610a3a575b81610a2060209383612026565b8101031261026557610a3360c091612049565b9190610976565b3d9150610a13565b3461026557602036600319011261026557610ac0610a5e611b6c565b610a666131ec565b505f604091825190610a788483612026565b60018252601f198401366020840137610a90826120de565b6001600160a01b03909116905282516335dca30760e21b8152602060048201529384918291906024830190611b98565b0381305afa918215610bfb575f92610aef575b50610aed610ae3610100936120de565b5191518092611f5e565bf35b91503d805f843e610b008184612026565b820191602081840312610265578051906001600160401b038211610265570182601f8201121561026557805190610b368261205d565b93610b4384519586612026565b82855260208086019360081b8301019181831161026557602001925b828410610b725750505050610aed610ad3565b61010084830312610265576020610100918651610b8e81611fef565b610b9787612049565b8152828701518382015287870151888201526060870151606082015260808701516080820152610bc960a08801612175565b60a0820152610bda60c08801612154565b60c0820152610beb60e08801612154565b60e0820152815201930192610b5f565b50513d5f823e3d90fd5b3461026557602036600319011261026557602061079b610c23611b6c565b6130ee565b34610265575f36600319011261026557604051636f90b9d160e01b81526001600160a01b037f0000000000000000000000000000000000000000000000000000000000000000811660048301525f90829060249082907f0000000000000000000000000000000000000000000000000000000000000000165afa908115610224575f91610ee3575b50805190610cbd8261205d565b91610ccb6040519384612026565b808352610cda601f199161205d565b015f5b818110610ea15750505f5b8151811015610dd7578060ff610d00600193856120eb565b51511661ffff6020610d1284876120eb565b510151511661ffff602080610d2786896120eb565b51015101511661ffff60406020610d3e878a6120eb565b51015101511660806020610d52878a6120eb565b510151015190868060801b0360606020610d6c898c6120eb565b51015101511692878060801b0360a06020610d878a8d6120eb565b5101510151169460405196610d9b88611fd4565b8752602087015260408601526060850152608084015260a083015260c0820152610dc582866120eb565b52610dd081856120eb565b5001610ce8565b826040518091602082016020835281518091526040830190602060408260051b8601019301915f905b828210610e0f57505050500390f35b919360019193955060208091603f1989820301855287519060ff825116815261ffff83830151168382015261ffff604083015116604082015261ffff606083015116606082015260c0610e71608084015160e0608085015260e0840190611bd4565b92868060801b0360a08201511660a084015281878060801b03910151169101529601920192018594939192610e00565b602090604051610eb081611fd4565b5f81525f838201525f60408201525f6060820152606060808201525f60a08201525f60c082015282828701015201610cdd565b90503d805f833e610ef48183612026565b810190602081830312610265578051906001600160401b03821161026557019080601f8301121561026557815191610f2b8361205d565b92610f396040519485612026565b80845260208085019160051b830101918383116102655760208101915b838310610f6857505050505081610cb0565b82516001600160401b0381116102655782016040818703601f1901126102655760408051919082016001600160401b0381118382101761107a57604052610fb160208201612175565b825260408101516001600160401b0381116102655760209101019160c083880312610265576040519160c083016001600160401b0381118482101761107a57604052610ffc846130df565b835261100a602085016130df565b602084015261101b604085016130df565b604084015261102c60608501612161565b60608401526080840151926001600160401b0384116102655761106660a08661105b8c602099988a99016120ff565b608085015201612161565b60a082015283820152815201920191610f56565b634e487b7160e01b5f52604160045260245ffd5b611d00565b34610265575f366003190112610265576040517f00000000000000000000000000000000000000000000000000000000000000006001600160a01b03168152602090f35b34610265576040366003190112610265576110f0611b6c565b5060206111036110fe611b82565b612ffe565b6040519015158152f35b611e17565b346102655760203660031901126102655761075761112e611b6c565b612f08565b346102655760203660031901126102655761114c611b6c565b5060405163ec489c2160e01b81526001600160a01b037f0000000000000000000000000000000000000000000000000000000000000000811660048301525f90829060249082907f0000000000000000000000000000000000000000000000000000000000000000165afa908115610224575f91611283575b505f5f5b8251811015611203576101006111df82856120eb565b5101516111ef575b6001016111c9565b906111fb60019161258d565b9190506111e7565b5061120d90612074565b905f905f5b815181101561126d5761010061122882846120eb565b510151611238575b600101611212565b91600190611265906001600160a01b0361125286866120eb565b51511661125f82886120eb565b5261258d565b929050611230565b6040516020808252819061076b90820187611b98565b61129791503d805f833e6106ec8183612026565b50816111c5565b34610265576020366003190112610265576112b7611b6c565b60405163ec489c2160e01b81526001600160a01b037f0000000000000000000000000000000000000000000000000000000000000000818116600484015292907f0000000000000000000000000000000000000000000000000000000000000000165f83602481845afa928315610224575f93611555575b50815f9161135494956040518096819482936301465d3360e61b845260048401612b97565b03915afa918215610224575f92611538575b506113718351612e7a565b905f5b845181101561152257611392848361138c84896120eb565b51613599565b906113a885846113a2848a6120eb565b5161365c565b916012600460206001600160a01b036113c1868c6120eb565b5151166040519283809263313ce56760e01b82525afa5f91816114de575b509460ff92916001966114d6575b50858060a01b036113fe868c6120eb565b515116938a6101c0611416888a8060801b03936120eb565b51015116918b888060801b036101e061142f8a846120eb565b51015116602061143f8a846120eb565b510151604061144e8b856120eb565b510151916102c061145f8c866120eb565b510151936102206114768d8f8060a01b03936120eb565b51015116966040519a6114888c611fb8565b8b5260208b015260408a01526060890152608088015260a087015260c086015260e0850152610100840152166101208201526114c482866120eb565b526114cf81856120eb565b5001611374565b91508a6113ed565b929150946020833d821161151a575b816114fa60209383612026565b810103126102655760019561151060ff94612175565b92935090956113df565b3d91506114ed565b6040516020808252819061076b90820186611c24565b61154d9192503d805f833e6103278183612026565b509083611366565b61135493505f9161157084923d8086833e6106ec8183612026565b509450915061132f565b3461026557602036600319011261026557611593611b6c565b60405163ec489c2160e01b81527f00000000000000000000000000000000000000000000000000000000000000006001600160a01b0381811660048401529192917f000000000000000000000000000000000000000000000000000000000000000016905f84602481855afa938415610224575f94611839575b5082611631925f926040518095819482936301465d3360e61b845260048401612b97565b03915afa918215610224575f915f9361181b575b506116508451612e7a565b915f5b85518110156117f55761166b828461138c848a6120eb565b9061167b83856113a2848b6120eb565b916012600460206001600160a01b03611694868d6120eb565b5151166040519283809263313ce56760e01b82525afa5f91816117b1575b509460ff92916001966117a9575b50858060a01b036116d1868d6120eb565b515116938b6101c06116e9888a8060801b03936120eb565b51015116918c888060801b036101e06117028a846120eb565b5101511660206117128a846120eb565b51015160406117218b856120eb565b510151916102c06117328c866120eb565b510151936102206117498d8f8060a01b03936120eb565b51015116966040519a61175b8c611fb8565b8b5260208b015260408a01526060890152608088015260a087015260c086015260e08501526101008401521661012082015261179782876120eb565b526117a281866120eb565b5001611653565b91508b6116c0565b929150946020833d82116117ed575b816117cd60209383612026565b81010312610265576001956117e360ff94612175565b92935090956116b2565b3d91506117c0565b611810848660ff604051938493604085526040850190611c24565b911660208301520390f35b90925061183291503d805f833e6103278183612026565b9184611645565b5f9194506116319261185585923d8086833e6106ec8183612026565b50959250925061160d565b3461026557604036600319011261026557611879611b6c565b50602061079b611887611b82565b612d68565b34610265576040366003190112610265576118a5611b6c565b506118d46118e26118bc6118b7611b82565b6125af565b92939091604051958695608087526080870190611b98565b908582036020870152611b39565b8381036040850152815180825260208201916020808360051b8301019401925f915b8383106119515750505050508281036060840152602080835192838152019201905f5b818110611935575050500390f35b825160ff16845285945060209384019390920191600101611927565b91939596509193602080611971600193601f198682030187528951611bd4565b9701930193019092879695949293611904565b346102655761199236611ae7565b631f94a27560e31b8352916020816004817f00000000000000000000000000000000000000000000000000000000000000006001600160a01b03165afa908115610224575f91611aad575b506001600160a01b03166119f083612074565b925f5b818110611a10576040516020808252819061076b90820188611b39565b611a1e61049b8284876120a6565b60405163b3596f0760e01b81526001600160a01b03909116600482015290602082602481875afa805f91611a79575b60019350611a6957505f611a6182886120eb565b525b016119f3565b611a7382886120eb565b52611a63565b90506020833d8211611aa5575b81611a9360209383612026565b81010312610265576001925190611a4d565b3d9150611a86565b90506020813d602011611adf575b81611ac860209383612026565b8101031261026557611ad990612049565b836119dd565b3d9150611abb565b906020600319830112610265576004356001600160401b0381116102655782602382011215610265576004810135926001600160401b0384116102655760248460051b83010111610265576024019190565b90602080835192838152019201905f5b818110611b565750505090565b8251845260209384019390920191600101611b49565b600435906001600160a01b038216820361026557565b602435906001600160a01b038216820361026557565b90602080835192838152019201905f5b818110611bb55750505090565b82516001600160a01b0316845260209384019390920191600101611ba8565b805180835260209291819084018484015e5f828201840152601f01601f1916010190565b3461026557604036600319011261026557602061079b611c16611b6c565b611c1e611b82565b90612bb1565b9080602083519182815201916020808360051b8301019401925f915b838310611c4f57505050505090565b9091929394602080600192601f19858203018652885190848060a01b03825116815282820151838201526040820151604082015261012060ff81611cb9611ca760608701516101406060880152610140870190611bd4565b60808701518682036080880152611bd4565b9460a081015160a086015260c081015160c086015260e081015160e0860152888060a01b036101008201511661010086015201511691015297019301930191939290611c40565b3461026557604036600319011261026557611d19611b6c565b50611d22611b82565b60405163026b1d5f60e01b8152906020826004817f00000000000000000000000000000000000000000000000000000000000000006001600160a01b03165afa918215610224575f92611dd9575b50604051632fe4a15f60e21b81526001600160a01b0391821660048201529160c09183916024918391165afa8015610224576020915f91611db45750604051908152f35b611dcd915060c03d60c01161021d576102098183612026565b5050925050505f6101e6565b9091506020813d602011611e0f575b81611df560209383612026565b8101031261026557611e0860c091612049565b9190611d70565b3d9150611de8565b3461026557602036600319011261026557611e30611b6c565b60405163e860accb60e01b8152906020826004817f00000000000000000000000000000000000000000000000000000000000000006001600160a01b03165afa918215610224575f92611f20575b506040516334924edb60e21b81526001600160a01b0391821660048201529160609183916024918391165afa8015610224575f90611ecc575b6040516001600160a01b039091168152602090f35b506060813d606011611f18575b81611ee660609383612026565b810103126102655780611f126040611eff602094612049565b92611f0b858201612049565b5001612049565b50611eb7565b3d9150611ed9565b9091506020813d602011611f56575b81611f3c60209383612026565b8101031261026557611f4f606091612049565b9190611e7e565b3d9150611f2f565b60e0809160018060a01b0381511684526020810151602085015260408101516040850152606081015160608501526080810151608085015260ff60a08201511660a085015260c0810151151560c085015201511515910152565b61014081019081106001600160401b0382111761107a57604052565b60e081019081106001600160401b0382111761107a57604052565b61010081019081106001600160401b0382111761107a57604052565b608081019081106001600160401b0382111761107a57604052565b601f909101601f19168101906001600160401b0382119082101761107a57604052565b51906001600160a01b038216820361026557565b6001600160401b03811161107a5760051b60200190565b9061207e8261205d565b61208b6040519182612026565b828152809261209c601f199161205d565b0190602036910137565b91908110156120b65760051b0190565b634e487b7160e01b5f52603260045260245ffd5b356001600160a01b03811681036102655790565b8051156120b65760200190565b80518210156120b65760209160051b010190565b81601f82011215610265578051906001600160401b03821161107a5760405192612133601f8401601f191660200185612026565b8284526020838301011161026557815f9260208093018386015e8301015290565b5190811515820361026557565b51906001600160801b038216820361026557565b519060ff8216820361026557565b808203929160a084126102655781516001600160401b03811161026557820181601f82011215610265578051906121b98261205d565b926121c76040519485612026565b82845260208085019360051b830101918183116102655760208101935b83851061223857505050505060809093601f1901126102655761223060806040519261220f8461200b565b60208101518452604081015160208501526060810151604085015201612175565b606082015290565b84516001600160401b03811161026557820190610520828503601f190112610265576040519061052082016001600160401b0381118382101761107a5760405261228460208401612049565b825260408301516001600160401b038111610265578560206122a8928601016120ff565b602083015260608301516001600160401b038111610265578560206122cf928601016120ff565b60408301526080830151606083015260a0830151608083015260c083015160a083015260e083015160c083015261010083015160e08301526123146101208401612154565b6101008301526123276101408401612154565b61012083015261233a6101608401612154565b61014083015261234d6101808401612154565b6101608301526123606101a08401612161565b6101808301526123736101c08401612161565b6101a08301526123866101e08401612161565b6101c08301526123996102008401612161565b6101e08301526102208301519164ffffffffff831683036102655761253361052060209586956102008501526123d26102408201612049565b6102208501526123e56102608201612049565b6102408501526123f86102808201612049565b6102608501526102a08101516102808501526102c08101516102a08501526102e08101516102c085015261242f6103008201612049565b6102e08501526103208101516103008501526103408101516103208501526103608101516103408501526103808101516103608501526124726103a08201612154565b6103808501526124856103c08201612154565b6103a08501526124986103e08201612161565b6103c08501526124ab6104008201612161565b6103e08501526124be6104208201612161565b6104008501526124d16104408201612154565b6104208501526104608101516104408501526104808101516104608501526104a08101516104808501526104c08101516104a08501526125146104e08201612154565b6104c08501526125276105008201612154565b6104e085015201612161565b6105008201528152019401936121e4565b9061254e8261205d565b61255b6040519182612026565b828152809261256c601f199161205d565b01905f5b82811061257c57505050565b806060602080938501015201612570565b5f19811461259b5760010190565b634e487b7160e01b5f52601160045260245ffd5b6001600160a01b031690811561290d5760405191630401d45d60e41b835260048301525f82602481305afa918215610224575f92612793575b505f915f5b81518110156126265760e061260282846120eb565b510151612612575b6001016125ed565b9261261e60019161258d565b93905061260a565b5061263083612074565b9061263a84612074565b9361264d61264782612544565b91612074565b945f935f5b84518110156127885760e061266782876120eb565b510151612677575b600101612652565b946001600160a01b0361268a87876120eb565b51511661269782846120eb565b5260e06126a487876120eb565b5101516126b182856120eb565b5260806126be87876120eb565b5101516126cb82866120eb565b526126d681856120eb565b50600460206001600160a01b036126ed89896120eb565b5151166040519283809263313ce56760e01b82525afa5f9181612745575b509161272891600193155f146127305750601261125f828c6120eb565b95905061266f565b60ff61273c838d6120eb565b9116905261258d565b9150916020823d8211612780575b8161276060209383612026565b810103126102655760019261277761272893612175565b9250909261270b565b3d9150612753565b509590949193509150565b9091503d805f833e6127a58183612026565b810190602081830312610265578051906001600160401b03821161026557019080601f83011215610265578151916127dc8361205d565b926127ea6040519485612026565b80845260208085019160051b830101918383116102655760208101915b83831061281a575050505050905f6125e8565b82516001600160401b03811161026557820190610140828703601f190112610265576040519061284982611fb8565b61285560208401612049565b8252604083810151602084015260608401519083015260808301516001600160401b0381116102655787602061288d928601016120ff565b606083015260a0830151916001600160401b038311610265576128fc610140856128bf8b6020809998819901016120ff565b608085015260c081015160a085015260e081015160c085015261010081015160e08501526128f06101208201612049565b61010085015201612175565b610120820152815201920191612807565b60405163ec489c2160e01b81526001600160a01b037f000000000000000000000000000000000000000000000000000000000000000081166004830152919250905f90829060249082907f0000000000000000000000000000000000000000000000000000000000000000165afa908115610224575f91612aae575b5080519061299682612074565b926129a083612074565b936129aa84612544565b936129b481612074565b935f5b8281106129c75750505093929190565b6004906001600160a01b036129dc82856120eb565b5151166129e982876120eb565b5260406129f682856120eb565b510151612a03828a6120eb565b52612a0e81896120eb565b5060206001600160a01b03612a2383866120eb565b5151166040519384809263313ce56760e01b82525afa805f91612a73575b60019350612a5e57506012612a5682896120eb565b525b016129b7565b60ff612a6a838a6120eb565b91169052612a58565b90506020833d8211612aa6575b81612a8d60209383612026565b8101031261026557612aa0600193612175565b90612a41565b3d9150612a80565b612ac291503d805f833e6106ec8183612026565b505f612989565b91906040838203126102655782516001600160401b03811161026557830181601f8201121561026557805190612afe8261205d565b92612b0c6040519485612026565b82845260208085019360071b8301019181831161026557602001925b828410612b4357505050506020612b40919301612175565b90565b608084830312610265576020608091604051612b5e8161200b565b612b6787612049565b81528287015183820152612b7d60408801612154565b604082015260608701516060820152815201930192612b28565b6001600160a01b0391821681529116602082015260400190565b90612bbb82613485565b90915080612d28575b612cb3575b505f612c0a91604051809381926301465d3360e61b83527f000000000000000000000000000000000000000000000000000000000000000060048401612b97565b03817f00000000000000000000000000000000000000000000000000000000000000006001600160a01b03165afa908115610224575f91612c98575b505f5b8151811015612c91576001600160a01b03612c6482846120eb565b5151166001600160a01b03841614612c7e57600101612c49565b60609250612c8b916120eb565b51015190565b5050505f90565b612cac91503d805f833e6103278183612026565b505f612c46565b6040516370a0823160e01b81526001600160a01b038381166004830152909160209183916024918391165afa5f9181612cf4575b5015612bc9575b91505090565b9091506020813d602011612d20575b81612d1060209383612026565b810103126102655751905f612ce7565b3d9150612d03565b506001600160a01b0381161515612bc4565b91908260c09103126102655781519160208101519160408201519160608101519160a0608083015192015190565b60405163026b1d5f60e01b8152906020826004817f00000000000000000000000000000000000000000000000000000000000000006001600160a01b03165afa918215610224575f92612e3c575b50604051632fe4a15f60e21b81526001600160a01b0391821660048201529160c09183916024918391165afa8015610224575f915f91612e17575b508115612e1157612710810290808204612710149015171561259b570490565b50505f90565b9050612e32915060c03d60c01161021d576102098183612026565b505050505f612df1565b9091506020813d602011612e72575b81612e5860209383612026565b8101031261026557612e6b60c091612049565b9190612db6565b3d9150612e4b565b90612e848261205d565b612e916040519182612026565b8281528092612ea2601f199161205d565b01905f5b828110612eb257505050565b602090604051612ec181611fb8565b5f81525f838201525f6040820152606080820152606060808201525f60a08201525f60c08201525f60e08201525f6101008201525f61012082015282828501015201612ea6565b60405163ec489c2160e01b81526001600160a01b037f0000000000000000000000000000000000000000000000000000000000000000811660048301525f90829060249082907f0000000000000000000000000000000000000000000000000000000000000000165afa908115610224575f91612fe3575b505f5b8151811015612fda576001600160a01b03612f9e82846120eb565b5151166001600160a01b03841614612fb857600101612f83565b6001600160801b0392506101c091612fd091906120eb565b5101511690600190565b5050505f905f90565b612ff791503d805f833e6106ec8183612026565b505f612f80565b60405163ec489c2160e01b81526001600160a01b037f0000000000000000000000000000000000000000000000000000000000000000811660048301525f90829060249082907f0000000000000000000000000000000000000000000000000000000000000000165afa908115610224575f916130c4575b505f5b8151811015612c91576001600160a01b0361309482846120eb565b5151166001600160a01b038416146130ae57600101613079565b61010092506130bc916120eb565b510151151590565b6130d891503d805f833e6106ec8183612026565b505f613076565b519061ffff8216820361026557565b604051631f94a27560e31b8152906020826004817f00000000000000000000000000000000000000000000000000000000000000006001600160a01b03165afa918215610224575f926131ae575b5060405163b3596f0760e01b81526001600160a01b0391821660048201529160209183916024918391165afa5f918161317a575b50612b4057505f90565b9091506020813d6020116131a6575b8161319660209383612026565b810103126102655751905f613170565b3d9150613189565b9091506020813d6020116131e4575b816131ca60209383612026565b81010312610265576131dd602091612049565b919061313c565b3d91506131bd565b604051906131f982611fef565b5f60e0838281528260208201528260408201528260608201528260808201528260a08201528260c08201520152565b9061323282613485565b905080613390575b61331c575b505f61328091604051809381926301465d3360e61b83527f000000000000000000000000000000000000000000000000000000000000000060048401612b97565b03817f00000000000000000000000000000000000000000000000000000000000000006001600160a01b03165afa908115610224575f91613301575b505f5b8151811015612c91576001600160a01b036132da82846120eb565b5151166001600160a01b038416146132f4576001016132bf565b60209250612c8b916120eb565b61331591503d805f833e6103278183612026565b505f6132bc565b6040516370a0823160e01b81526001600160a01b038381166004830152909160209183916024918391165afa5f918161335c575b501561323f5791505090565b9091506020813d602011613388575b8161337860209383612026565b810103126102655751905f613350565b3d915061336b565b506001600160a01b038116151561323a565b60405163ec489c2160e01b81526001600160a01b037f0000000000000000000000000000000000000000000000000000000000000000811660048301525f90829060249082907f0000000000000000000000000000000000000000000000000000000000000000165afa908115610224575f9161346a575b505f5b8151811015612fda576001600160a01b0361343882846120eb565b5151166001600160a01b038416146134525760010161341d565b6001600160801b0392506101e091612fd091906120eb565b61347e91503d805f833e6106ec8183612026565b505f61341a565b60405163ec489c2160e01b81526001600160a01b037f0000000000000000000000000000000000000000000000000000000000000000811660048301529192915f90829060249082907f0000000000000000000000000000000000000000000000000000000000000000165afa5f918161357c575b5061350a575b505f915081908190565b5f5b8151811015613571576001600160a01b0361352782846120eb565b5151166001600160a01b038516146135415760010161350c565b9250610240612fd06001600160a01b0361022061355e87866120eb565b51015116946001600160a01b03936120eb565b50509050805f613500565b6135919192503d805f833e6106ec8183612026565b50905f6134fa565b919060018060a01b036102208401511690816135eb575b50505f5b8151811015612c91576001600160a01b036135cf82846120eb565b515184516001600160a01b03169116146132f4576001016135b4565b6040516370a0823160e01b81526001600160a01b03909116600482015290602090829060249082905afa5f9181613628575b50612cee57806135b0565b9091506020813d602011613654575b8161364460209383612026565b810103126102655751905f61361d565b3d9150613637565b919060018060a01b036102408401511690816136ae575b50505f5b8151811015612c91576001600160a01b0361369282846120eb565b515184516001600160a01b0316911614612c7e57600101613677565b6040516370a0823160e01b81526001600160a01b03909116600482015290602090829060249082905afa5f91816136eb575b50612cee5780613673565b9091506020813d602011613717575b8161370760209383612026565b810103126102655751905f6136e0565b3d91506136fa56fea2646970667358221220ab12478f7666b21de2fc957b1f2ccc95099ec7238537681da0b705f8de98077364736f6c634300081e0033",
  "devdoc": {
    "details": "Contains all read/view functions from v1, separate from write operations",
    "kind": "dev",
    "methods": {
      "getAllTokensInfoWithEMode(address)": {
        "params": {
          "user": "The address of the user"
        },
        "returns": {
          "tokens": "Array of TokenInfo structs",
          "userEModeCategory": "The user's current E-Mode category ID (0 = no E-Mode)"
        }
      },
      "getAssetPrice(address)": {
        "params": {
          "token": "The asset address"
        },
        "returns": {
          "price": "Price in 8 decimals (e.g., 300000000000 for $3000)"
        }
      },
      "getAssetPrices(address[])": {
        "params": {
          "tokens": "Array of asset addresses"
        },
        "returns": {
          "prices": "Array of prices in 8 decimals"
        }
      },
      "getCurrentLtvBps(address,address)": {
        "details": "This is the actual current LTV = totalDebt / totalCollateral * 10000",
        "params": {
          "user": "The user address"
        },
        "returns": {
          "_0": "Current LTV in basis points (e.g., 6500 = 65%)"
        }
      },
      "getEModes()": {
        "returns": {
          "emodes": "Array of E-Mode categories with their configurations"
        }
      },
      "getLiquidationLtvBps(address,address)": {
        "details": "Position is liquidatable when currentLTV >= liquidationLtvBps",
        "params": {
          "user": "The user address"
        },
        "returns": {
          "_0": "Liquidation threshold in basis points"
        }
      },
      "getReserveConfig(address)": {
        "params": {
          "token": "The token address"
        },
        "returns": {
          "config": "The reserve configuration data"
        }
      },
      "getReserveConfigs(address[])": {
        "details": "Returns price, LTV, liquidation threshold, and other config for each token",
        "params": {
          "tokens": "Array of token addresses to get config for"
        },
        "returns": {
          "configs": "Array of reserve configuration data"
        }
      },
      "getUserAccountData(address)": {
        "params": {
          "user": "The user address"
        },
        "returns": {
          "availableBorrowsBase": "Available borrows in base currency",
          "currentLiquidationThreshold": "Current liquidation threshold (bps)",
          "healthFactor": "Health factor (1e18 scale)",
          "ltv": "Current LTV (bps)",
          "totalCollateralBase": "Total collateral in base currency",
          "totalDebtBase": "Total debt in base currency"
        }
      },
      "getUserEMode(address)": {
        "params": {
          "user": "The address of the user"
        },
        "returns": {
          "categoryId": "The E-Mode category ID (0 = no E-Mode)"
        }
      }
    },
    "title": "AaveGatewayView",
    "version": 1
  },
  "userdoc": {
    "kind": "user",
    "methods": {
      "borrowedTokens(address)": {
        "notice": "Returns the list of tokens that the user has borrowed."
      },
      "getAllTokensInfoWithEMode(address)": {
        "notice": "Returns all token info for a user along with their E-Mode category"
      },
      "getAssetPrice(address)": {
        "notice": "Get the price of an asset in USD (8 decimals)"
      },
      "getAssetPrices(address[])": {
        "notice": "Get prices for multiple assets"
      },
      "getBalance(address,address)": {
        "notice": "Gets the balance for a given token and user."
      },
      "getBorrowBalance(address,address)": {
        "notice": "Gets the borrow balance for a given token and user."
      },
      "getCurrentLtvBps(address,address)": {
        "notice": "Returns the current LTV (debt/collateral) in basis points"
      },
      "getEModes()": {
        "notice": "Returns all available E-Mode categories"
      },
      "getLiquidationLtvBps(address,address)": {
        "notice": "Returns the liquidation LTV threshold in basis points"
      },
      "getLtv(address,address)": {
        "notice": "Returns the protocol-level maximum LTV configuration for the user in basis points."
      },
      "getMaxLtv(address,address)": {
        "notice": "Returns the liquidation threshold (LLTV) for a given user in basis points."
      },
      "getReserveConfig(address)": {
        "notice": "Get reserve config for a single token"
      },
      "getReserveConfigs(address[])": {
        "notice": "Get reserve configuration data for multiple tokens (for frontend LTV calculations)"
      },
      "getUserAccountData(address)": {
        "notice": "Returns full user account data from Aave"
      },
      "getUserEMode(address)": {
        "notice": "Returns the user's current E-Mode category ID"
      }
    },
    "notice": "View-only gateway for Aave v3 protocol",
    "version": 1
  },
  "storageLayout": {
    "storage": [],
    "types": null
  }
}