{
  "address": "0x90D8c5a1a329485e6B7A7b8FC2e3E2B6a0e6592d",
  "abi": [
    {
      "inputs": [
        {
          "internalType": "address",
          "name": "owner",
          "type": "address"
        }
      ],
      "stateMutability": "nonpayable",
      "type": "constructor"
    },
    {
      "inputs": [
        {
          "internalType": "address",
          "name": "target",
          "type": "address"
        }
      ],
      "name": "AddressEmptyCode",
      "type": "error"
    },
    {
      "inputs": [
        {
          "internalType": "address",
          "name": "account",
          "type": "address"
        }
      ],
      "name": "AddressInsufficientBalance",
      "type": "error"
    },
    {
      "inputs": [],
      "name": "BadIndex",
      "type": "error"
    },
    {
      "inputs": [],
      "name": "BadInitiator",
      "type": "error"
    },
    {
      "inputs": [],
      "name": "FailedInnerCall",
      "type": "error"
    },
    {
      "inputs": [],
      "name": "FlashLoanNotEnabled",
      "type": "error"
    },
    {
      "inputs": [],
      "name": "FlashLoanRequiresTransientStack",
      "type": "error"
    },
    {
      "inputs": [],
      "name": "FractionTooLarge",
      "type": "error"
    },
    {
      "inputs": [],
      "name": "GatewayAlreadyExists",
      "type": "error"
    },
    {
      "inputs": [],
      "name": "GatewayNotFound",
      "type": "error"
    },
    {
      "inputs": [],
      "name": "InvalidFlashParams",
      "type": "error"
    },
    {
      "inputs": [],
      "name": "InvalidPool",
      "type": "error"
    },
    {
      "inputs": [],
      "name": "NestedFlashNotAllowed",
      "type": "error"
    },
    {
      "inputs": [],
      "name": "NoValue",
      "type": "error"
    },
    {
      "inputs": [],
      "name": "NotAuthorized",
      "type": "error"
    },
    {
      "inputs": [
        {
          "internalType": "address",
          "name": "owner",
          "type": "address"
        }
      ],
      "name": "OwnableInvalidOwner",
      "type": "error"
    },
    {
      "inputs": [
        {
          "internalType": "address",
          "name": "account",
          "type": "address"
        }
      ],
      "name": "OwnableUnauthorizedAccount",
      "type": "error"
    },
    {
      "inputs": [],
      "name": "ProviderNotConfigured",
      "type": "error"
    },
    {
      "inputs": [],
      "name": "ReentrancyGuardReentrantCall",
      "type": "error"
    },
    {
      "inputs": [
        {
          "internalType": "address",
          "name": "token",
          "type": "address"
        }
      ],
      "name": "SafeERC20FailedOperation",
      "type": "error"
    },
    {
      "inputs": [],
      "name": "TokenMismatch",
      "type": "error"
    },
    {
      "inputs": [],
      "name": "TokenNotInPool",
      "type": "error"
    },
    {
      "inputs": [],
      "name": "UnauthorizedFlashCaller",
      "type": "error"
    },
    {
      "inputs": [],
      "name": "Underflow",
      "type": "error"
    },
    {
      "inputs": [],
      "name": "UniswapV3RequiresPoolAddress",
      "type": "error"
    },
    {
      "inputs": [],
      "name": "UnsupportedFlashLoanProvider",
      "type": "error"
    },
    {
      "inputs": [],
      "name": "ZeroAmount",
      "type": "error"
    },
    {
      "inputs": [],
      "name": "ZeroToken",
      "type": "error"
    },
    {
      "anonymous": false,
      "inputs": [
        {
          "indexed": true,
          "internalType": "address",
          "name": "user",
          "type": "address"
        },
        {
          "indexed": true,
          "internalType": "address",
          "name": "delegate",
          "type": "address"
        },
        {
          "indexed": false,
          "internalType": "bool",
          "name": "approved",
          "type": "bool"
        }
      ],
      "name": "DelegateApprovalChanged",
      "type": "event"
    },
    {
      "anonymous": false,
      "inputs": [
        {
          "indexed": true,
          "internalType": "address",
          "name": "manager",
          "type": "address"
        },
        {
          "indexed": false,
          "internalType": "bool",
          "name": "approved",
          "type": "bool"
        }
      ],
      "name": "ManagerApprovalChanged",
      "type": "event"
    },
    {
      "anonymous": false,
      "inputs": [
        {
          "indexed": true,
          "internalType": "address",
          "name": "previousOwner",
          "type": "address"
        },
        {
          "indexed": true,
          "internalType": "address",
          "name": "newOwner",
          "type": "address"
        }
      ],
      "name": "OwnershipTransferred",
      "type": "event"
    },
    {
      "inputs": [
        {
          "internalType": "bytes32",
          "name": "",
          "type": "bytes32"
        }
      ],
      "name": "aaveCompatiblePools",
      "outputs": [
        {
          "internalType": "address",
          "name": "",
          "type": "address"
        }
      ],
      "stateMutability": "view",
      "type": "function"
    },
    {
      "inputs": [
        {
          "internalType": "string",
          "name": "protocolName",
          "type": "string"
        },
        {
          "internalType": "address",
          "name": "gateway",
          "type": "address"
        }
      ],
      "name": "addGateway",
      "outputs": [],
      "stateMutability": "nonpayable",
      "type": "function"
    },
    {
      "inputs": [
        {
          "internalType": "address",
          "name": "",
          "type": "address"
        }
      ],
      "name": "approvedManagers",
      "outputs": [
        {
          "internalType": "bool",
          "name": "",
          "type": "bool"
        }
      ],
      "stateMutability": "view",
      "type": "function"
    },
    {
      "inputs": [],
      "name": "authorizationHelper",
      "outputs": [
        {
          "internalType": "address",
          "name": "",
          "type": "address"
        }
      ],
      "stateMutability": "view",
      "type": "function"
    },
    {
      "inputs": [
        {
          "components": [
            {
              "internalType": "string",
              "name": "protocolName",
              "type": "string"
            },
            {
              "internalType": "bytes",
              "name": "data",
              "type": "bytes"
            }
          ],
          "internalType": "struct ProtocolTypes.ProtocolInstruction[]",
          "name": "instructions",
          "type": "tuple[]"
        },
        {
          "internalType": "address",
          "name": "caller",
          "type": "address"
        }
      ],
      "name": "authorizeInstructions",
      "outputs": [
        {
          "internalType": "address[]",
          "name": "",
          "type": "address[]"
        },
        {
          "internalType": "bytes[]",
          "name": "",
          "type": "bytes[]"
        }
      ],
      "stateMutability": "view",
      "type": "function"
    },
    {
      "inputs": [
        {
          "components": [
            {
              "internalType": "uint256",
              "name": "amount",
              "type": "uint256"
            },
            {
              "internalType": "address",
              "name": "token",
              "type": "address"
            },
            {
              "internalType": "address",
              "name": "user",
              "type": "address"
            },
            {
              "internalType": "enum KapanRouter.RouterInstructionType",
              "name": "instructionType",
              "type": "uint8"
            }
          ],
          "internalType": "struct KapanRouter.RouterInstruction[]",
          "name": "instrs",
          "type": "tuple[]"
        }
      ],
      "name": "authorizeRouter",
      "outputs": [
        {
          "internalType": "address[]",
          "name": "targets",
          "type": "address[]"
        },
        {
          "internalType": "bytes[]",
          "name": "data",
          "type": "bytes[]"
        }
      ],
      "stateMutability": "view",
      "type": "function"
    },
    {
      "inputs": [],
      "name": "balancerV2Vault",
      "outputs": [
        {
          "internalType": "contract IFlashLoanProvider",
          "name": "",
          "type": "address"
        }
      ],
      "stateMutability": "view",
      "type": "function"
    },
    {
      "inputs": [],
      "name": "balancerV3Vault",
      "outputs": [
        {
          "internalType": "contract IVaultV3",
          "name": "",
          "type": "address"
        }
      ],
      "stateMutability": "view",
      "type": "function"
    },
    {
      "inputs": [
        {
          "components": [
            {
              "internalType": "string",
              "name": "protocolName",
              "type": "string"
            },
            {
              "internalType": "bytes",
              "name": "data",
              "type": "bytes"
            }
          ],
          "internalType": "struct ProtocolTypes.ProtocolInstruction[]",
          "name": "instructions",
          "type": "tuple[]"
        },
        {
          "internalType": "address",
          "name": "caller",
          "type": "address"
        }
      ],
      "name": "deauthorizeInstructions",
      "outputs": [
        {
          "internalType": "address[]",
          "name": "",
          "type": "address[]"
        },
        {
          "internalType": "bytes[]",
          "name": "",
          "type": "bytes[]"
        }
      ],
      "stateMutability": "view",
      "type": "function"
    },
    {
      "inputs": [
        {
          "internalType": "address",
          "name": "asset",
          "type": "address"
        },
        {
          "internalType": "uint256",
          "name": "amount",
          "type": "uint256"
        },
        {
          "internalType": "uint256",
          "name": "premium",
          "type": "uint256"
        },
        {
          "internalType": "address",
          "name": "initiator",
          "type": "address"
        },
        {
          "internalType": "bytes",
          "name": "params",
          "type": "bytes"
        }
      ],
      "name": "executeOperation",
      "outputs": [
        {
          "internalType": "bool",
          "name": "",
          "type": "bool"
        }
      ],
      "stateMutability": "nonpayable",
      "type": "function"
    },
    {
      "inputs": [
        {
          "internalType": "string",
          "name": "",
          "type": "string"
        }
      ],
      "name": "gateways",
      "outputs": [
        {
          "internalType": "contract IGateway",
          "name": "",
          "type": "address"
        }
      ],
      "stateMutability": "view",
      "type": "function"
    },
    {
      "inputs": [
        {
          "internalType": "address",
          "name": "",
          "type": "address"
        }
      ],
      "name": "isAaveCompatiblePool",
      "outputs": [
        {
          "internalType": "bool",
          "name": "",
          "type": "bool"
        }
      ],
      "stateMutability": "view",
      "type": "function"
    },
    {
      "inputs": [
        {
          "internalType": "address",
          "name": "user",
          "type": "address"
        }
      ],
      "name": "isAuthorizedFor",
      "outputs": [
        {
          "internalType": "bool",
          "name": "",
          "type": "bool"
        }
      ],
      "stateMutability": "view",
      "type": "function"
    },
    {
      "inputs": [],
      "name": "morphoBlue",
      "outputs": [
        {
          "internalType": "address",
          "name": "",
          "type": "address"
        }
      ],
      "stateMutability": "view",
      "type": "function"
    },
    {
      "inputs": [
        {
          "internalType": "uint256",
          "name": "assets",
          "type": "uint256"
        },
        {
          "internalType": "bytes",
          "name": "data",
          "type": "bytes"
        }
      ],
      "name": "onMorphoFlashLoan",
      "outputs": [],
      "stateMutability": "nonpayable",
      "type": "function"
    },
    {
      "inputs": [],
      "name": "owner",
      "outputs": [
        {
          "internalType": "address",
          "name": "",
          "type": "address"
        }
      ],
      "stateMutability": "view",
      "type": "function"
    },
    {
      "inputs": [
        {
          "components": [
            {
              "internalType": "string",
              "name": "protocolName",
              "type": "string"
            },
            {
              "internalType": "bytes",
              "name": "data",
              "type": "bytes"
            }
          ],
          "internalType": "struct ProtocolTypes.ProtocolInstruction[]",
          "name": "instructions",
          "type": "tuple[]"
        }
      ],
      "name": "processProtocolInstructions",
      "outputs": [],
      "stateMutability": "nonpayable",
      "type": "function"
    },
    {
      "inputs": [
        {
          "internalType": "contract IERC20[]",
          "name": "tokens",
          "type": "address[]"
        },
        {
          "internalType": "uint256[]",
          "name": "amounts",
          "type": "uint256[]"
        },
        {
          "internalType": "uint256[]",
          "name": "feeAmounts",
          "type": "uint256[]"
        },
        {
          "internalType": "bytes",
          "name": "userData",
          "type": "bytes"
        }
      ],
      "name": "receiveFlashLoan",
      "outputs": [],
      "stateMutability": "nonpayable",
      "type": "function"
    },
    {
      "inputs": [
        {
          "internalType": "bytes",
          "name": "userData",
          "type": "bytes"
        }
      ],
      "name": "receiveFlashLoanV3",
      "outputs": [],
      "stateMutability": "nonpayable",
      "type": "function"
    },
    {
      "inputs": [
        {
          "internalType": "address payable",
          "name": "to",
          "type": "address"
        },
        {
          "internalType": "uint256",
          "name": "amount",
          "type": "uint256"
        }
      ],
      "name": "recoverNative",
      "outputs": [],
      "stateMutability": "nonpayable",
      "type": "function"
    },
    {
      "inputs": [
        {
          "internalType": "address",
          "name": "token",
          "type": "address"
        },
        {
          "internalType": "address",
          "name": "to",
          "type": "address"
        },
        {
          "internalType": "uint256",
          "name": "amount",
          "type": "uint256"
        }
      ],
      "name": "recoverTokens",
      "outputs": [],
      "stateMutability": "nonpayable",
      "type": "function"
    },
    {
      "inputs": [],
      "name": "renounceOwnership",
      "outputs": [],
      "stateMutability": "nonpayable",
      "type": "function"
    },
    {
      "inputs": [
        {
          "internalType": "address",
          "name": "pool",
          "type": "address"
        }
      ],
      "name": "setAavePool",
      "outputs": [],
      "stateMutability": "nonpayable",
      "type": "function"
    },
    {
      "inputs": [
        {
          "internalType": "address",
          "name": "manager",
          "type": "address"
        },
        {
          "internalType": "bool",
          "name": "approved",
          "type": "bool"
        }
      ],
      "name": "setApprovedManager",
      "outputs": [],
      "stateMutability": "nonpayable",
      "type": "function"
    },
    {
      "inputs": [
        {
          "internalType": "address",
          "name": "helper",
          "type": "address"
        }
      ],
      "name": "setAuthorizationHelper",
      "outputs": [],
      "stateMutability": "nonpayable",
      "type": "function"
    },
    {
      "inputs": [
        {
          "internalType": "address",
          "name": "provider",
          "type": "address"
        }
      ],
      "name": "setBalancerV2",
      "outputs": [],
      "stateMutability": "nonpayable",
      "type": "function"
    },
    {
      "inputs": [
        {
          "internalType": "address",
          "name": "vault",
          "type": "address"
        }
      ],
      "name": "setBalancerV3",
      "outputs": [],
      "stateMutability": "nonpayable",
      "type": "function"
    },
    {
      "inputs": [
        {
          "internalType": "address",
          "name": "delegate",
          "type": "address"
        },
        {
          "internalType": "bool",
          "name": "approved",
          "type": "bool"
        }
      ],
      "name": "setDelegate",
      "outputs": [],
      "stateMutability": "nonpayable",
      "type": "function"
    },
    {
      "inputs": [
        {
          "internalType": "address",
          "name": "morpho",
          "type": "address"
        }
      ],
      "name": "setMorphoBluePool",
      "outputs": [],
      "stateMutability": "nonpayable",
      "type": "function"
    },
    {
      "inputs": [
        {
          "internalType": "address",
          "name": "factoryOrSentinel",
          "type": "address"
        }
      ],
      "name": "setUniswapV3Enabled",
      "outputs": [],
      "stateMutability": "nonpayable",
      "type": "function"
    },
    {
      "inputs": [
        {
          "internalType": "address",
          "name": "pool",
          "type": "address"
        }
      ],
      "name": "setZeroLendPool",
      "outputs": [],
      "stateMutability": "nonpayable",
      "type": "function"
    },
    {
      "inputs": [
        {
          "internalType": "address",
          "name": "newOwner",
          "type": "address"
        }
      ],
      "name": "transferOwnership",
      "outputs": [],
      "stateMutability": "nonpayable",
      "type": "function"
    },
    {
      "inputs": [],
      "name": "uniswapV3Factory",
      "outputs": [
        {
          "internalType": "address",
          "name": "",
          "type": "address"
        }
      ],
      "stateMutability": "view",
      "type": "function"
    },
    {
      "inputs": [
        {
          "internalType": "uint256",
          "name": "fee0",
          "type": "uint256"
        },
        {
          "internalType": "uint256",
          "name": "fee1",
          "type": "uint256"
        },
        {
          "internalType": "bytes",
          "name": "data",
          "type": "bytes"
        }
      ],
      "name": "uniswapV3FlashCallback",
      "outputs": [],
      "stateMutability": "nonpayable",
      "type": "function"
    },
    {
      "inputs": [
        {
          "internalType": "address",
          "name": "",
          "type": "address"
        },
        {
          "internalType": "address",
          "name": "",
          "type": "address"
        }
      ],
      "name": "userDelegates",
      "outputs": [
        {
          "internalType": "bool",
          "name": "",
          "type": "bool"
        }
      ],
      "stateMutability": "view",
      "type": "function"
    }
  ],
  "transactionHash": "0xc1c2ff8002d9eb0f546721084b677c6c38771c9cece28fdc803381f06511a1f4",
  "args": [
    "0x0BE61223F99E57b8b8B7033a77B54Adc7f7cF027"
  ],
  "numDeployments": 9,
  "solcInputHash": "75958a3d9d99eef72cb671c7a2e9b64b",
  "bytecode": "0x60803460bc57601f61496038819003918201601f19168301916001600160401b0383118484101760c05780849260209460405283398101031260bc57516001600160a01b0381169081900360bc57801560a9575f80546001600160a01b031981168317825560405192916001600160a01b03909116907f8be0079c531659141344cd1fd0a4f28419497f9722a3daafe3b4186f6b6457e09080a36001805561488b90816100d58239f35b631e4fbdf760e01b5f525f60045260245ffd5b5f80fd5b634e487b7160e01b5f52604160045260245ffdfe60806040526004361015610011575f80fd5b5f3560e01c80630acefd3514610244578063109745e21461023f57806310c0a1571461023a5780631b11d0ff146102355780631caebf741461023057806328c184161461022b57806331f570721461022657806333d6c36a14610221578063340592071461021c578063349f937c14610217578063463721af146102125780634a994eef1461020d5780634bef5d69146102085780635b549182146102035780635f3e849f146101fe57806363c0f133146101f9578063715018a6146101f45780638da5cb5b146101ef578063a6ed7be3146101ea578063ba3dba8a146101e5578063bba8a3dc146101e0578063bf11f4af146101db578063bf1e4cf6146101d6578063d7ff41bf146101d1578063db236a1f146101cc578063e30b155e146101c7578063e8511303146101c2578063e8ce1bfa146101bd578063e9cbafb0146101b8578063f04f2707146101b3578063f07b6e64146101ae578063f0dbeea5146101a9578063f2cda82e146101a4578063f2fde38b1461019f5763faea56e21461019a575f80fd5b611428565b6113b2565b61134b565b6111fa565b6111c8565b611129565b611034565b61100c565b610fc5565b610f78565b610f1b565b610d3f565b610c90565b610b3b565b610afb565b610acb565b610a60565b610976565b610932565b6108f2565b61082c565b610804565b610799565b610724565b6106c1565b61068c565b610645565b6105fe565b610512565b6104cb565b610474565b610326565b6102b3565b61028b565b610263565b5f91031261025357565b5f80fd5b6001600160a01b031690565b34610253575f366003190112610253576003546040516001600160a01b039091168152602090f35b34610253575f36600319011261025357600a546040516001600160a01b039091168152602090f35b34610253575f366003190112610253576002546040516001600160a01b039091168152602090f35b6001600160a01b0381160361025357565b35906102f7826102db565b565b9181601f84011215610253578235916001600160401b038311610253576020838186019501011161025357565b346102535760a036600319011261025357600435610343816102db565b602435604435606435610355816102db565b6084356001600160401b038111610253576103749036906004016102f9565b92909160ff60075460a01c1615610450576008546001600160a01b0316330361044157306001600160a01b039091160361043257830180931161042d576103bc913691610e9b565b506103c5611bd5565b91604051906103d382610ddd565b6001600160a01b031680825260208201839052835190919015610428576020840152825115610428576104086104179361259b565b61041061272a565b3390611d57565b6040516001815280602081015b0390f35b611548565b611469565b630377b97960e11b5f5260045ffd5b6364427b5760e11b5f5260045ffd5b630a3fad8360e01b5f5260045ffd5b9060018060a01b03165f5260205260405f2090565b3461025357604036600319011261025357602060ff6104bf600435610498816102db565b602435906104a5826102db565b6001600160a01b03165f908152600c85526040902061045f565b54166040519015158152f35b34610253576020366003190112610253576004356104e8816102db565b6104f0611e46565b600280546001600160a01b0319166001600160a01b0392909216919091179055005b34610253576040366003190112610253576004356024356001600160401b038111610253576105459036906004016102f9565b60ff60075460a01c1615610450576008546001600160a01b03163303610441578101906040818303126102535780359161057e836102db565b60208201356001600160401b0381116102535761059b9201610ed1565b506001600160a01b0316906105ae611bd5565b916040516105bb81610ddd565b818152826020820152835115610428576020840152825115610428576105e36105fc9361259b565b6105eb61272a565b6105f6600754610257565b90611d57565b005b346102535760203660031901126102535760043561061b816102db565b610623611e46565b600a80546001600160a01b0319166001600160a01b0392909216919091179055005b3461025357602036600319011261025357600435610662816102db565b61066a611e46565b600780546001600160a01b0319166001600160a01b0392909216919091179055005b34610253576020366003190112610253576105fc6004356106ac816102db565b6106b4611e46565b6106bc6114bf565b611e6c565b346102535760203660031901126102535760206106e86004356106e3816102db565b6114e1565b6040519015158152f35b8015150361025357565b604090600319011261025357600435610714816102db565b90602435610721816106f2565b90565b3461025357610732366106fc565b90335f52600c60205261075d8261074c8360405f2061045f565b9060ff801983541691151516179055565b60405191151582526001600160a01b03169033907f2d471f64b7fea7d6fd2f0566b1ee57f49e337f84b90d68995686069542d11e6090602090a3005b346102535760207fe75c73780beec8a53a900ed52c74c8954d8890f2c9047ddb1e5c6546fd637d896107ca366106fc565b92906107d4611e46565b6001600160a01b03165f818152600b835260409020805460ff191660ff86151516179055926040519015158152a2005b34610253575f366003190112610253576006546040516001600160a01b039091168152602090f35b3461025357606036600319011261025357600435610849816102db565b602435610855816102db565b60443591610861611e46565b6040516370a0823160e01b81523060048201526001600160a01b039190911692602082602481875afa9182156108ed575f926108bc575b50818111156108b45750905b816108ab57005b6105fc92611f09565b9050906108a4565b6108df91925060203d6020116108e6575b6108d78183610e4e565b81019061152e565b905f610898565b503d6108cd565b61153d565b346102535760203660031901126102535760043561090f816102db565b60018060a01b03165f52600b602052602060ff60405f2054166040519015158152f35b34610253575f3660031901126102535761094a611e46565b5f80546001600160a01b0319811682556001600160a01b03165f5160206147f65f395f51905f528280a3005b34610253575f366003190112610253575f546040516001600160a01b039091168152602090f35b805180835260209291819084018484015e5f828201840152601f01601f1916010190565b604081016040825282518091526020606083019301905f5b818110610a41575050506020818303910152815180825260208201916020808360051b8301019401925f915b838310610a1457505050505090565b9091929394602080610a32600193601f19868203018752895161099d565b97019301930191939290610a05565b82516001600160a01b03168552602094850194909201916001016109d9565b34610253576020366003190112610253576004356001600160401b03811161025357366023820112156102535760048101356001600160401b038111610253573660248260071b84010111610253576024610abb92016116a8565b90610424604051928392836109c1565b34610253576020366003190112610253576105fc600435610aeb816102db565b610af3611e46565b6106bc6117ba565b3461025357602036600319011261025357600435610b18816102db565b60018060a01b03165f526005602052602060ff60405f2054166040519015158152f35b34610253576020366003190112610253576004356001600160401b03811161025357610b6b9036906004016102f9565b9060ff60075460a01c1615610450576008546001600160a01b0316330361044157610b988282018261132c565b929060018060a01b031691610bb6610bb1600354610257565b610257565b91823b15610253575f604051809463ae63932960e01b8252818381610be08b308c600485016117e0565b03925af19283156108ed57610bfc93610c7c575b503691610e9b565b50610c078282611d0d565b610c1f82610c19610bb1600354610257565b83611f09565b610c2d610bb1600354610257565b91823b1561025357610c58925f92836040518096819582946315afd40960e01b84526004840161168d565b03925af180156108ed57610c6857005b80610c765f6105fc93610e4e565b80610249565b80610c765f610c8a93610e4e565b5f610bf4565b3461025357602036600319011261025357600435610cad816102db565b610cb5611e46565b600680546001600160a01b0319166001600160a01b0392909216919091179055005b9181601f84011215610253578235916001600160401b038311610253576020808501948460051b01011161025357565b604060031982011261025357600435906001600160401b03821161025357610d3191600401610cd7565b9091602435610721816102db565b3461025357610d805f610d5136610d07565b600a5460405163d7ff41bf60e01b81529586946001600160a01b039092169385938493909190600485016119ba565b03915afa9081156108ed575f905f92610da4575b50610424604051928392836109c1565b9050610dc291503d805f833e610dba8183610e4e565b8101906118c4565b905f610d94565b634e487b7160e01b5f52604160045260245ffd5b604081019081106001600160401b03821117610df857604052565b610dc9565b602081019081106001600160401b03821117610df857604052565b60c081019081106001600160401b03821117610df857604052565b608081019081106001600160401b03821117610df857604052565b601f909101601f19168101906001600160401b03821190821017610df857604052565b604051906102f7604083610e4e565b6001600160401b038111610df857601f01601f191660200190565b929192610ea782610e80565b91610eb56040519384610e4e565b829481845281830111610253578281602093845f960137010152565b9080601f830112156102535781602061072193359101610e9b565b805191908290602001825e015f815290565b6020610f109160405192838092610eec565b600981520301902090565b34610253576020366003190112610253576004356001600160401b03811161025357610f4d6020913690600401610ed1565b610f5a6040518092610eec565b6009815281900382019020546040516001600160a01b039091168152f35b34610253576040366003190112610253576004356001600160401b03811161025357610fab6105fc9136906004016102f9565b60243591610fb8836102db565b610fc0611e46565b611a89565b3461025357602036600319011261025357600435610fe2816102db565b610fea611e46565b600380546001600160a01b0319166001600160a01b0392909216919091179055005b34610253575f366003190112610253576007546040516001600160a01b039091168152602090f35b34610253576060366003190112610253576004356024356044356001600160401b0381116102535761106a9036906004016102f9565b60ff60079492945460a01c1615610450576008546001600160a01b0316330361044157830160a084820312610253578335926110a5846102db565b6020850135926110b4846102db565b606086013592604087013592906001600160401b03851161025357876110e4608092611107976105fc9b01610ed1565b500135946110f1866106f2565b6001600160a01b0316941561112157509061148c565b916111128383611d0d565b6001600160a01b031690611f09565b90509061148c565b34610253576080366003190112610253576004356001600160401b03811161025357611159903690600401610cd7565b6024356001600160401b03811161025357611178903690600401610cd7565b9092906044356001600160401b0381116102535761119a903690600401610cd7565b606435959092906001600160401b038711610253576111c06105fc9736906004016102f9565b969095611b0f565b34610253576020366003190112610253576004355f526004602052602060018060a01b0360405f205416604051908152f35b34610253576020366003190112610253576004356001600160401b0381116102535761122a903690600401610cd7565b60026001541461131d5760026001555f5b81811061127e575061124d8183612114565b91901561126e5761125d92612443565b611265612582565b6105fc60018055565b9050611279916121bd565b61125d565b611289818385611f3e565b6112bb6112ad6112998380611f60565b604093919351928391602083019586611f92565b03601f198101835282610e4e565b5190206112c6611fa3565b036112d5575b5060010161123b565b6113006106e360406112f96112f1856020611304970190611f60565b810190611ff8565b0151610257565b1590565b61130e575f6112cc565b63ea8e4eb560e01b5f5260045ffd5b633ee5aeb560e01b5f5260045ffd5b91908260409103126102535760208235611345816102db565b92013590565b3461025357604036600319011261025357600435611368816102db565b602435611373611e46565b4790818111156113aa5750905b8161138757005b5f918291829182916001600160a01b03165af16113a2611ba6565b501561025357005b905090611380565b34610253576020366003190112610253576004356113cf816102db565b6113d7611e46565b6001600160a01b03168015611415575f80546001600160a01b03198116831782556001600160a01b0316905f5160206147f65f395f51905f529080a3005b631e4fbdf760e01b5f525f60045260245ffd5b3461025357610d805f61143a36610d07565b600a54604051637d752b7160e11b81529586946001600160a01b039092169385938493909190600485016119ba565b634e487b7160e01b5f52601160045260245ffd5b90612710820180921161042d57565b9190820180921161042d57565b600880546001600160a01b0319169055565b604051906114ba602083610e4e565b5f8252565b604051906114ce604083610e4e565b60048252636161766560e01b6020830152565b6001600160a01b031633811461152857335f52600b60205260ff60405f205416908161150b575090565b90505f52600c60205260ff6115233360405f2061045f565b541690565b50600190565b90816020910312610253575190565b6040513d5f823e3d90fd5b634e487b7160e01b5f52603260045260245ffd5b91908110156104285760071b0190565b6008111561025357565b634e487b7160e01b5f52602160045260245ffd5b6008111561159457565b611576565b356107218161156c565b5f19811461042d5760010190565b6001600160401b038111610df85760051b60200190565b906115d2826115b1565b6115df6040519182610e4e565b82815280926115f0601f19916115b1565b0190602036910137565b90611604826115b1565b6116116040519182610e4e565b8281528092611622601f19916115b1565b01905f5b82811061163257505050565b806060602080938501015201611626565b35610721816102db565b8051156104285760200190565b8051600110156104285760400190565b80518210156104285760209160051b010190565b6001600160a01b039091169052565b6001600160a01b039091168152602081019190915260400190565b915f925f5b83811061177757506116c76116c1856115c8565b946115fa565b925f905f5b8181106116d95750505050565b6116e481838661155c565b60016116f260608301611599565b6116fb8161158a565b1461170a575b506001016116cc565b836112ad611755836117378c6117326001989a61172c60206117709a01611643565b9261166a565b61167e565b60405163095ea7b360e01b602082015292839135306024840161168d565b61175f828a61166a565b5261176a818961166a565b506115a3565b9290611701565b600161178f606061178984888761155c565b01611599565b6117988161158a565b146117a6575b6001016116ad565b936117b26001916115a3565b94905061179e565b604051906117c9604083610e4e565b60088252671e995c9bdb195b9960c21b6020830152565b6001600160a01b03918216815291166020820152604081019190915260600190565b81601f820112156102535760208151910161181c82610e80565b9261182a6040519485610e4e565b8284528282011161025357815f926020928386015e8301015290565b9080601f8301121561025357815161185d816115b1565b9261186b6040519485610e4e565b81845260208085019260051b820101918383116102535760208201905b83821061189757505050505090565b81516001600160401b038111610253576020916118b987848094880101611802565b815201910190611888565b9190916040818403126102535780516001600160401b03811161025357810183601f82011215610253578051906118fa826115b1565b916119086040519384610e4e565b80835260208084019160051b8301019186831161025357602001905b82821061194e5750505060208201519093906001600160401b038111610253576107219201611846565b60208091835161195d816102db565b815201910190611924565b9035601e1982360301811215610253570160208101919035906001600160401b03821161025357813603831361025357565b908060209392818452848401375f828201840152601f01601f1916010190565b93929190816040860160408752526060850160608360051b87010192825f90603e1981360301935b838310611a05575050505050509060206102f79294019060018060a01b03169052565b909192939495605f198a8203018252863586811215610253576020611a606001938683940190611a53611a49611a3b8480611968565b60408552604085019161199a565b9285810190611968565b918581850391015261199a565b98019201930191909493926119e2565b6020908260405193849283378101600981520301902090565b9190916040518382823760098185019081528190036020019020546001600160a01b0392831692168214611b0a57611ac18382611a70565b546001600160a01b0316611afb576102f792611adc91611a70565b80546001600160a01b0319166001600160a01b03909216919091179055565b630a20941760e31b5f5260045ffd5b505050565b9694959391909260ff60075460a01c1615610450576008546001600160a01b031633036104415715610428573594156104285735840180941161042d5780156104285784611b7f85611b8995611b79611b8496611b71610bb16102f79c611643565b923691610e9b565b50611d0d565b611b9d565b611643565b611b97610bb1600254610257565b90611f09565b90156104285790565b3d15611bd0573d90611bb782610e80565b91611bc56040519384610e4e565b82523d5f602084013e565b606090565b60408051909190611be68382610e4e565b6001815291601f1901825f5b828110611bfe57505050565b602090604051611c0d81610ddd565b5f81525f8382015282828501015201611bf2565b60405190611c30602083610e4e565b5f80835282815b828110611c4357505050565b602090604051611c5281610ddd565b5f81525f8382015282828501015201611c37565b60405160609190611c778382610e4e565b6002815291601f1901825f5b828110611c8f57505050565b602090604051611c9e81610ddd565b5f81525f8382015282828501015201611c83565b90611cbc826115b1565b611cc96040519182610e4e565b8281528092611cda601f19916115b1565b01905f5b828110611cea57505050565b602090604051611cf981610ddd565b5f81525f8382015282828501015201611cde565b611d15611bd5565b9160405191611d2383610ddd565b6001600160a01b03168252602082015281511561042857602082015280511561042857611d4f9061259b565b6102f761272a565b919091611dbe60405192611d8f84611d81602082019363095ea7b360e01b8552886024840161168d565b03601f198101865285610e4e565b83516001600160a01b038416915f91829182855af190611dad611ba6565b82611e14575b5081611e0d57501590565b611dc757505050565b60405163095ea7b360e01b60208201526001600160a01b0390931660248401525f60448401526102f792611e0890611e0281606481016112ad565b8261285d565b61285d565b3b15919050565b80519192508115918215611e2c575b5050905f611db3565b611e3f9250602080918301019101612848565b5f80611e23565b5f546001600160a01b03163303611e5957565b63118cdaa760e01b5f523360045260245ffd5b81611adc611eb892604051611e89816112ad602082018095610eec565b5190205f818152600460205260409020546001600160a01b031680611ef0575b505f52600460205260405f2090565b6001600160a01b038116611ec95750565b6001600160a01b03165f9081526005602052604090206102f790805460ff19166001179055565b5f52600560205260405f2060ff1981541690555f611ea9565b611e086102f79392611f3060405194859263a9059cbb60e01b60208501526024840161168d565b03601f198101845283610e4e565b91908110156104285760051b81013590603e1981360301821215610253570190565b903590601e198136030182121561025357018035906001600160401b0382116102535760200191813603831361025357565b91602061072193818152019161199a565b60405160208101906020825260066040820152653937baba32b960d11b606082015260608152611fd4608082610e4e565b51902090565b919082602091031261025357604051611ff281610dfd565b91358252565b602081830312610253578035906001600160401b038211610253570160c081830312610253576040519161202b83610e18565b8135600a811015610253578352612044602083016102ec565b6020840152612055604083016102ec565b60408401526060828101359084015260808201356001600160401b03811161025357826120898360a0936120949601610ed1565b608086015201611fda565b60a082015290565b9190826080910312610253576040516120b481610e33565b60608082948035845260208101356120cb816102db565b602085015260408101356120de816102db565b60408501520135916120ef8361156c565b0152565b90608082820312610253576107219161209c565b5160088110156115945790565b915f925f925f5b81811061212757505050565b612132818385611f3e565b6121426112ad6112998380611f60565b51902061214d611fa3565b036121b45760208101906121618282611f60565b9050156121aa5761218261217a61218893606093611f60565b8101906120f3565b01612107565b6121918161158a565b156121a0576001905b0161211b565b6001955093505050565b505060019061219a565b5060019061219a565b906121c6611c21565b905f915b8183106121d75750505050565b6001906121e5848487611f3e565b906122116112ad6121f68480611f60565b9290604051928391602083019560208752602087019161199a565b51902061221c611fa3565b036122335761222a91612a55565b925b01916121ca565b61223c916128ed565b9261222c565b5f1981019190821161042d57565b9190820391821161042d57565b6040519061226a82610ddd565b60606020838281520152565b90612280826115b1565b61228d6040519182610e4e565b828152809261229e601f19916115b1565b01905f5b8281106122ae57505050565b6020906122b961225d565b828285010152016122a2565b60408136031261025357604051906122dc82610ddd565b80356001600160401b038111610253576122f99036908301610ed1565b82526020810135906001600160401b0382116102535761231b91369101610ed1565b602082015290565b602081016020825282518091526040820191602060408360051b8301019401925f915b83831061235557505050505090565b9091929394602080612393600193603f1986820301875289519083612383835160408452604084019061099d565b920151908481840391015261099d565b97019301930191939290612346565b90602080835192838152019201905f5b8181106123bf5750505090565b825180516001600160a01b0316855260209081015181860152604090940193909201916001016123b2565b9060206107219281815201906123a2565b6006111561025357565b60e08183031261025357612419828261209c565b9260c0612437608084013561242d816123fb565b9460a08501611fda565b920135610721816102db565b61244b611c21565b5f5b84811061253257506124676124628585612250565b612242565b61247081612276565b905f5b8181106124ef575050936124de936124d6936124c76112ad6124c26124cc966124b36112ad6124ae6102f79d60405192839160208301612323565b613005565b604051928391602083016123ea565b613092565b611f3e565b6020810190611f60565b810190612405565b6001600160a01b0316925090613128565b8061251661251161250a6001946125058b612242565b612250565b8989611f3e565b6122c5565b612520828661166a565b5261252b818561166a565b5001612473565b90600190612541838686611f3e565b906125526112ad6112998480611f60565b51902061255d611fa3565b036125735761256b91612a55565b915b0161244d565b61257c916128ed565b9161256d565b6102f7604051612593602082610e4e565b5f8152613092565b6125a36132ca565b916125b96125b4845184519061148c565b611cb2565b905f5b84518110156125ef57806125d26001928761166a565b516125dd828661166a565b526125e8818561166a565b50016125bc565b50915f5b8151811015612631578061262a61260c6001938561166a565b5161261883895161148c565b90612623828861166a565b528561166a565b50016125f3565b50506102f79192506124c26112ad91604051928391602083016123ea565b90602061072192818152019061099d565b602081830312610253578051906001600160401b038211610253570181601f8201121561025357805190612693826115b1565b926126a16040519485610e4e565b82845260208085019360061b8301019181831161025357602001925b8284106126cb575050505090565b60408483031261025357602060409182516126e581610ddd565b86516126f0816102db565b815282870151838201528152019301926126bd565b909161271c610721936040845260408401906123a2565b91602081840391015261099d565b612732613370565b819091515115612844575b8051604051612754816112ad60208201948561264f565b51902061275f611fa3565b036127875761276d9061363c565b612784575b6102f75761277e613370565b9061273d565b50565b6127a4610bb16127978351610efe565b546001600160a01b031690565b6001600160a01b03811615612835576127e4915f9160206127c36132ca565b920151918360405180968195829463ae4be46d60e01b845260048401612705565b03925af19081156108ed575f91612813575b508051612804575b50612772565b61280d9061259b565b5f6127fe565b61282f91503d805f833e6128278183610e4e565b810190612660565b5f6127f6565b635d958a8b60e11b5f5260045ffd5b5050565b908160209103126102535751610721816106f2565b5f806128859260018060a01b03169360208151910182865af161287e611ba6565b9083614757565b80519081151591826128ad575b505061289b5750565b635274afe760e01b5f5260045260245ffd5b6128c09250602080918301019101612848565b155f80612892565b916128df61072194926040855260408501906123a2565b92602081850391015261199a565b6129126129036128fd8380611f60565b90611a70565b546001600160a01b0316610257565b906001600160a01b0382161561283557612955916129358260205f940190611f60565b91908360405180968195829463ae4be46d60e01b84528a600485016128c8565b03925af19081156108ed575f9161297b575b508051612972575090565b61072191613b5f565b61298f91503d805f833e6128278183610e4e565b5f612967565b909160c082840312610253576107216129ae848461209c565b9360a06129be8260808701611fda565b9401611fda565b909160c0828403126102535760a06113456129e0858561209c565b9460808501611fda565b8181029291811591840414171561042d57565b909160c08284031261025357612a13838361209c565b926080830135906001600160401b0382116102535760a06129be82610721948701610ed1565b919060a083820312610253578060806129be610721938661209c565b60208101612a6661217a8284611f60565b91606083018051612a768161158a565b612a7f8161158a565b612a9257635049b04960e01b5f5260045ffd5b60018151612a9f8161158a565b612aa88161158a565b03612b1e575050506040810191612ac56113006106e38551610257565b61130e57612b0061072193612afa6020850191612aef612ae8610bb18551610257565b9151610257565b908651913091613c38565b51610257565b9151612b14612b0d610e71565b938461167e565b6020830152613bd7565b60028151612b2b8161158a565b612b348161158a565b03612bff5750612b4f91612b4791611f60565b810190612a39565b8091505183511115612bf057612b6681518461166a565b5180516001600160a01b0390612b7b90610257565b1615612be1576020810151612bb89381612bbc575b505050612b9b610e71565b905f82525f60208301525190612bb1828561166a565b528261166a565b5090565b611b976040612bd1610bb1612bd99651610257565b920151610257565b5f8080612b90565b63ad1991f560e01b5f5260045ffd5b63779ffa5760e11b5f5260045ffd5b60038151612c0c8161158a565b612c158161158a565b03612c2e5750505061072191612b006020830151610257565b9091925060048151612c3f8161158a565b612c488161158a565b03612d165750612c6391612c5b91611f60565b8101906129fd565b809392505182511115612bf0576040516020810190612c86816112ad858561264f565b519020612c91611fa3565b03612d025750305b6001600160a01b038116156128355782612ceb916020612cd9612cd1612cc361072198518861166a565b51516001600160a01b031690565b93518661166a565b510151916001600160a01b0316611d57565b612cf3610e71565b905f82525f6020830152613bd7565b610bb1612797612d1192610efe565b612c99565b60058151612d238161158a565b612d2c8161158a565b03612e215750612d4791612d3f91611f60565b8101906129c5565b908092505183511115612bf057612d5f82518461166a565b519060018060a01b03612d728351610257565b16158015612e15575b612e06576127108111612df757612ae8612de39161072195612db8612db0612462612dab602089019586516129ea565b61147d565b612710900490565b9151808311612def575b612dcf83612dd892612250565b96612b9b610e71565b50612de38551610257565b91612b14612b0d610e71565b915081612dc2565b631222751960e01b5f5260045ffd5b63f2365b5b60e01b5f5260045ffd5b50602082015115612d7b565b60068151612e2e8161158a565b612e378161158a565b03612f165750612e5291612e4a91611f60565b810190612995565b91508051835180911090811591612f0a575b50612bf057612e77612e8091518461166a565b5191518361166a565b519160018060a01b03612e938351610257565b16158015612ef6575b612be157612eaa8251610257565b612eb7610bb18551610257565b6001600160a01b0390911603612ee757612de3612ee0610721946020808601519101519061148c565b9251610257565b63936bb5ad60e01b5f5260045ffd5b50612f04610bb18451610257565b15612e9c565b9050825110155f612e64565b60079051612f238161158a565b612f2c8161158a565b14612f3657505090565b612f4391612e4a91611f60565b91508051835180911090811591612ff9575b50612bf057612e77612f6891518461166a565b519160018060a01b03612f7b8351610257565b16158015612fe5575b612be157612f928251610257565b612f9f610bb18551610257565b6001600160a01b0390911603612ee757602082019260208451910190815111612fd657612ee0612de3916107219551905190612250565b63caccb6d960e01b5f5260045ffd5b50612ff3610bb18451610257565b15612f84565b9050825110155f612f55565b805190815f5160206147b65f395f51905f525d8160051c91601f811690815f5b85811061306b5750613038575b50505050565b601f19169091016020908101519190036101000a5f19011916905f5160206148165f395f51905f52015d5f808080613032565b6001915060208160051b860101515f5160206148165f395f51905f5282015d018290613025565b805190815f5160206147d65f395f51905f525d8160051c91601f811690815f5b8581106130f757506130c45750505050565b601f19169091016020908101519190036101000a5f19011916905f5160206148365f395f51905f52015d5f808080613032565b6001915060208160051b860101515f5160206148365f395f51905f5282015d0182906130b2565b6006111561159457565b906131316132ca565b815181511115612bf05761314691519061166a565b519160018060a01b036131598451610257565b1615612be15760208301918251156132bb576131748161311e565b806131985750506131886102f79251610257565b90516131926114ab565b91614386565b6131a18161311e565b600181036131c05750506131b86102f79251610257565b905190614251565b6131c98161311e565b600281036131f85750506131e06102f79251610257565b90516131ea6114ab565b916131f36114bf565b61419e565b6132018161311e565b6003810361322b5750506132186102f79251610257565b90516132226114ab565b916131f36117ba565b6132378193929361311e565b6004810361327c57506001600160a01b0382161561326d5761325c6102f79351610257565b9051906132676114ab565b92613dd9565b631f356b8560e11b5f5260045ffd5b600591925061328a8161311e565b036132ac5761329c6102f79251610257565b90516132a66114ab565b91613c60565b63882f810360e01b5f5260045ffd5b631f2a200560e01b5f5260045ffd5b5f5160206147d65f395f51905f525c604051908082528060051c5f5b81811061334c575090602091601f821661332c575b50601f01601f1916820101604052805115613323578060208061072193518301019101612660565b50610721611c21565b5f5160206148365f395f51905f52015c601f19821684018301525f6132fb565b805f5160206148365f395f51905f52600192015c60208260051b87010152016132e6565b61337861225d565b90613381614518565b91825180156134da578301926020840190602081860312610253576020810151906001600160401b038211610253570181603f82011215610253576020810151946133cb866115b1565b956133d96040519788610e4e565b8087526020808089019260051b85010101928484116102535760408101915b84831061344e5750505050505082519081156134455750806124626112ad6124ae61342e61342861130096612242565b8861166a565b51965f198501815260405192839160208301612323565b92506001919050565b82516001600160401b0381116102535782016020810191906040908603601f190112610253576040519061348182610ddd565b60208301516001600160401b038111610253578860206134a392860101611802565b82526040830151916001600160401b038311610253576134cb89602080969581960101611802565b838201528152019201916133f8565b509150600190565b9190826080910312610253576040516134fa81610e33565b6060808294805184526020810151613511816102db565b60208501526040810151613524816102db565b60408501520151916120ef8361156c565b9060808282031261025357610721916134e2565b91908260209103126102535760405161356181610dfd565b91518252565b909160c0828403126102535761072161358084846134e2565b9360a06135908260808701613549565b9401613549565b909160c0828403126102535760a06135bc6135b285856134e2565b9460808501613549565b92015190565b909160c082840312610253576135d883836134e2565b608083015190936001600160401b0382116102535760a061359082610721948701611802565b60e0818303126102535761361282826134e2565b9260c06136306080840151613626816123fb565b9460a08501613549565b920151610721816102db565b6020810190613655825160208082518301019101613535565b906060820180516136658161158a565b61366e8161158a565b613691575050506124de61368c9151602080825183010191016135fe565b600190565b6001815161369e8161158a565b6136a78161158a565b036136bc5750506136b89150614695565b5f90565b600281939293516136cc8161158a565b6136d58161158a565b036136e65750506136b891506145de565b909150600381516136f68161158a565b6136ff8161158a565b0361375257506136b89150613712611bd5565b906137206020820151610257565b905161373461372d610e71565b928361167e565b60208201526137428261164d565b5261374c8161164d565b5061259b565b9050600481516137618161158a565b61376a8161158a565b0361382a57506137849051602080825183010191016135c2565b90915061378f6132ca565b91815183511115612bf05760405160208101906137b0816112ad858561264f565b5190206137bb611fa3565b036138165750305b6001600160a01b03811615612835576020612cd96137f1946137e9612cc386518361166a565b94519061166a565b6136b86137fc611bd5565b613804610e71565b5f81525f60208201526137428261164d565b610bb161279761382592610efe565b6137c3565b600581516138378161158a565b6138408161158a565b0361397a575061385a905160208082518301019101613597565b9091506138656132ca565b825181511115612bf05761387a83518261166a565b519260018060a01b0361388d8551610257565b1615801561396e575b612e06576127108311612df757836138bf612db0612462612dab60206136b899019788516129ea565b9351808511613966575b926139516112ad936124c2936139246138e58961396199612250565b916138ee611c66565b996138f98251610257565b9061390561372d610e71565b60208201526139138b61164d565b5261391d8a61164d565b5051610257565b9061393061372d610e71565b602082015261393e8861165a565b526139488761165a565b50612b9b610e71565b50604051928391602083016123ea565b61259b565b9350836138c9565b50602084015115613896565b600681516139878161158a565b6139908161158a565b03613a7457506139aa905160208082518301019101613567565b91506139b46132ca565b8151815180911090811591613a68575b50612bf0576139d76139e092518261166a565b5192519061166a565b519060018060a01b036139f38251610257565b16158015613a54575b612be157613a0a8151610257565b613a17610bb18451610257565b6001600160a01b0390911603612ee757613a3d6136b8926020808401519101519061148c565b613a48612ee0611bd5565b9061373461372d610e71565b50613a62610bb18351610257565b156139fc565b9050835110155f6139c4565b60079051613a818161158a565b613a8a8161158a565b14613a9457505f90565b613aa8905160208082518301019101613567565b9150613ab26132ca565b8151815180911090811591613b53575b50612bf0576139d7613ad592518261166a565b519060018060a01b03613ae88251610257565b16158015613b3f575b612be157613aff8151610257565b613b0c610bb18451610257565b6001600160a01b0390911603612ee7576020810160208151930192835111612fd6576136b892613a3d9151905190612250565b50613b4d610bb18351610257565b15613af1565b9050835110155f613ac2565b9182518251810180911161042d57613b7690611cb2565b905f5b8451811015613bac5780613b8f6001928761166a565b51613b9a828661166a565b52613ba5818561166a565b5001613b79565b50915f5b8151811015613bd05780613bc961260c6001938561166a565b5001613bb0565b5090925050565b91909180516001810180911161042d57613bf090611cb2565b915f5b8251811015613c265780613c096001928561166a565b51613c14828761166a565b52613c1f818661166a565b5001613bf3565b5092612bb8915190612bb1828561166a565b90611e0890611f306102f7956040519586936323b872dd60e01b6020860152602485016117e0565b909160075460ff8160a01c16613d845760ff60a01b198116600160a01b176007819055600880546001600160a01b0319166001600160a01b0390931692909217909155613cac90610257565b906001600160a01b03821615613d75576001600160a01b038316158015613d6d575b613d5e57613cf5613ce4610bb1611f3094610257565b916040519384918660208401613d93565b803b1561025357613d20935f80946040519687958694859363701195a160e11b855260048501613db5565b03925af180156108ed57613d4a575b50613d38611499565b6102f76007805460ff60a01b19169055565b80610c765f613d5893610e4e565b5f613d2f565b630331eb0f60e41b5f5260045ffd5b508315613cce565b637d908e5b60e11b5f5260045ffd5b6388aac56f60e01b5f5260045ffd5b6001600160a01b0390911681526040602082018190526107219291019061099d565b610721939260609260018060a01b031682526020820152816040820152019061099d565b92919260075460ff8160a01c16613d845760ff60a01b1916600160a01b17600755600880546001600160a01b0319166001600160a01b038316908117909155600654909190613e2790610257565b906001600160a01b03821615613d7557821580156140f0575b80156140e8575b613d5e5760405163c45a015560e01b815291602083600481875afa9283156108ed575f936140c3575b50613e7a90610257565b916001600160a01b031682900361401157604051630dfe168160e01b815291602083600481875afa9283156108ed575f936140a2575b5060405163d21220a760e01b815290602082600481885afa9182156108ed575f9261407d575b50613ee090610257565b60405163ddca3f4360e01b8152602081600481895afa80156108ed57613f4b926020925f9261404e575b50604051630b4c774160e11b81526001600160a01b0380891660048301528616602482015262ffffff90921660448301529092839190829081906064820190565b03915afa80156108ed5785915f9161401f575b506001600160a01b031603614011576001600160a01b03858116931683149283159182613ffd575b5050613fee57611f30613fb592805f14613fe75787965b8115613fe1575f985b60405197889560208701614131565b803b1561025357613d20935f8094604051968795869485936312439b2f60e21b85523060048601614173565b88613fa6565b5f96613f9d565b630732619560e01b5f5260045ffd5b6001600160a01b0316141590505f80613f86565b62820f3560e61b5f5260045ffd5b614041915060203d602011614047575b6140398183610e4e565b810190614101565b5f613f5e565b503d61402f565b61406f919250833d8511614076575b6140678183610e4e565b810190614116565b905f613f0a565b503d61405d565b613ee091925061409b9060203d602011614047576140398183610e4e565b9190613ed6565b6140bc91935060203d602011614047576140398183610e4e565b915f613eb0565b613e7a9193506140e19060203d602011614047576140398183610e4e565b9290613e70565b508515613e47565b506001600160a01b03841615613e40565b908160209103126102535751610721816102db565b90816020910312610253575162ffffff811681036102535790565b6001600160a01b03918216815291166020820152604081019190915260a060608201819052929392909160809161416b919084019061099d565b931515910152565b9092608092610721959460018060a01b0316835260208301526040820152816060820152019061099d565b929091926040516141b7816112ad602082018095610eec565b5190205f908152600460205260409020546001600160a01b03168015613d755760075460ff8160a01c16613d845760ff60a01b1916600160a01b17600755600880546001600160a01b031916821790556001600160a01b038316158015614249575b613d5e57803b1561025357613d20935f8094604051968795869485936310ac2ddf60e21b85523060048601614719565b508315614219565b9060018060a01b036003541660075460ff8160a01c16613d845760ff60a01b1916600160a01b17600755600880546001600160a01b03191691909117905560035461429f90610bb190610257565b916001600160a01b03831615613d75576001600160a01b038116158015614359575b613d5e575f926112ad61430485946142e8614320956112ad6040519384926020840161168d565b60405163bf11f4af60e01b60208201529283916024830161264f565b6040519485809481936348c8949160e01b83526004830161264f565b03925af180156108ed576143375750613d38611499565b614352903d805f833e61434a8183610e4e565b810190614361565b505f613d2f565b5081156142c1565b906020828203126102535781516001600160401b038111610253576107219201611802565b909160018060a01b036002541660075460ff8160a01c16613d845760ff60a01b1916600160a01b17600755600880546001600160a01b0319169190911790556002546143d590610bb190610257565b916001600160a01b03831615613d75576001600160a01b03169182158015614450575b613d5e57614411614407614458565b936117328561164d565b614419614458565b936144238561164d565b52803b1561025357613d20935f809460405196879586948593632e1c224f60e11b8552306004860161447a565b5083156143f8565b604080519091906144698382610e4e565b6001815291601f1901366020840137565b6001600160a01b03909116815260806020808301829052835191830182905260a0830196959301905f5b8181106144f95750505080850360408201526020808451968781520193015f955b8087106144e1575050610721939450606081840391015261099d565b909360208060019287518152019501960195906144c5565b82516001600160a01b03168852602097880197909201916001016144a4565b5f5160206147b65f395f51905f525c90604051918083528060051c5f5b81811061457a575090602091601f821661455a575b50601f01601f1916830101604052565b5f5160206148165f395f51905f52015c601f19821685018301525f61454a565b805f5160206148165f395f51905f52600192015c60208260051b8801015201614535565b919060a0838203126102535780608061359061072193866134e2565b604051906145c782610e33565b5f6060838281528260208201528260408201520152565b6020016145f581516020808251830101910161459e565b90506145ff6132ca565b91815183511115612bf05761461582518461166a565b519260018060a01b036146288551610257565b1615612be1576139516112ad936124c2938660206102f79801805161465257505050612b9b610e71565b61468d6040614685610bb161467d612bd99761466c6145ba565b50516020808251830101910161459e565b509551610257565b930151610257565b905191611f09565b6040810180516146ad906001600160a01b03166114e1565b1561130e576020820180519151835191926146d7929130916001600160a01b039182169116613c38565b6146df611bd5565b90519151604051926001600160a01b03166146f984610ddd565b83526020830152805115610428576102f791602082015261374c8161164d565b6001600160a01b03918216815291166020820152604081019190915260a0606082018190529092915f916080916147529186019061099d565b930152565b9061477b575080511561476c57805190602001fd5b630a12f52160e11b5f5260045ffd5b815115806147ac575b61478c575090565b639996b31560e01b5f9081526001600160a01b0391909116600452602490fd5b50803b1561478456fe33a7f7e91c7e5e97e4035e86e424aaeb97691c852dc81d823520f664cc2ca71c5f92431fdc2b6bf66f91a326fa06b3fad6b4ab24047c9be12b7f412fbfbaa1ec8be0079c531659141344cd1fd0a4f28419497f9722a3daafe3b4186f6b6457e033a7f7e91c7e5e97e4035e86e424aaeb97691c852dc81d823520f664cc2ca71d5f92431fdc2b6bf66f91a326fa06b3fad6b4ab24047c9be12b7f412fbfbaa1eda26469706673582212205a19c8011a73038af5c76244e16783498741fca06926434bde05b888a3ea7c7664736f6c634300081e0033",
  "devdoc": {
    "errors": {
      "AddressEmptyCode(address)": [
        {
          "details": "There's no code at `target` (it is not a contract)."
        }
      ],
      "AddressInsufficientBalance(address)": [
        {
          "details": "The ETH balance of the account is not enough to perform the operation."
        }
      ],
      "FailedInnerCall()": [
        {
          "details": "A call to an address target failed. The target may have reverted."
        }
      ],
      "OwnableInvalidOwner(address)": [
        {
          "details": "The owner is not a valid owner account. (eg. `address(0)`)"
        }
      ],
      "OwnableUnauthorizedAccount(address)": [
        {
          "details": "The caller account is not authorized to perform an operation."
        }
      ],
      "ReentrancyGuardReentrantCall()": [
        {
          "details": "Unauthorized reentrant call."
        }
      ],
      "SafeERC20FailedOperation(address)": [
        {
          "details": "An operation with an ERC20 token failed."
        }
      ]
    },
    "kind": "dev",
    "methods": {
      "isAuthorizedFor(address)": {
        "params": {
          "user": "The user to check authorization for"
        },
        "returns": {
          "_0": "True if msg.sender can act on behalf of user"
        }
      },
      "onMorphoFlashLoan(uint256,bytes)": {
        "params": {
          "assets": "The amount of assets that was flash loaned.",
          "data": "Arbitrary data passed to the `flashLoan` function."
        }
      },
      "owner()": {
        "details": "Returns the address of the current owner."
      },
      "renounceOwnership()": {
        "details": "Leaves the contract without owner. It will not be possible to call `onlyOwner` functions. Can only be called by the current owner. NOTE: Renouncing ownership will leave the contract without an owner, thereby disabling any functionality that is only available to the owner."
      },
      "setDelegate(address,bool)": {
        "details": "Manager must be approved by owner first"
      },
      "transferOwnership(address)": {
        "details": "Transfers ownership of the contract to a new account (`newOwner`). Can only be called by the current owner."
      }
    },
    "version": 1
  },
  "userdoc": {
    "kind": "user",
    "methods": {
      "approvedManagers(address)": {
        "notice": "Approved managers that can act on behalf of users who delegate to them"
      },
      "authorizationHelper()": {
        "notice": "Address of the KapanAuthorizationHelper contract for auth encoding"
      },
      "authorizeInstructions((string,bytes)[],address)": {
        "notice": "Generate authorization calls for instructions (delegates to helper)"
      },
      "deauthorizeInstructions((string,bytes)[],address)": {
        "notice": "Generate deauthorization calls for instructions (delegates to helper)"
      },
      "isAuthorizedFor(address)": {
        "notice": "Check if caller is authorized to act for a user"
      },
      "onMorphoFlashLoan(uint256,bytes)": {
        "notice": "Callback called when a flash loan occurs."
      },
      "recoverNative(address,uint256)": {
        "notice": "Recover native ETH stuck in the router (owner only)"
      },
      "recoverTokens(address,address,uint256)": {
        "notice": "Recover ERC20 tokens stuck in the router (owner only)"
      },
      "setAavePool(address)": {
        "notice": "Set the Aave V3 pool address."
      },
      "setApprovedManager(address,bool)": {
        "notice": "Owner approves/revokes a manager address that users can delegate to"
      },
      "setAuthorizationHelper(address)": {
        "notice": "Set the authorization helper contract address"
      },
      "setDelegate(address,bool)": {
        "notice": "User grants/revokes delegation to a manager"
      },
      "setMorphoBluePool(address)": {
        "notice": "Set the Morpho Blue address for flash loans."
      },
      "setZeroLendPool(address)": {
        "notice": "Set the ZeroLend pool address."
      },
      "userDelegates(address,address)": {
        "notice": "User => delegate => canActOnBehalf"
      }
    },
    "version": 1
  },
  "storageLayout": {
    "storage": [
      {
        "astId": 8,
        "contract": "contracts/v2/KapanRouter.sol:KapanRouter",
        "label": "_owner",
        "offset": 0,
        "slot": "0",
        "type": "t_address"
      },
      {
        "astId": 845,
        "contract": "contracts/v2/KapanRouter.sol:KapanRouter",
        "label": "_status",
        "offset": 0,
        "slot": "1",
        "type": "t_uint256"
      },
      {
        "astId": 7207,
        "contract": "contracts/v2/KapanRouter.sol:KapanRouter",
        "label": "balancerV2Vault",
        "offset": 0,
        "slot": "2",
        "type": "t_contract(IFlashLoanProvider)8184"
      },
      {
        "astId": 7210,
        "contract": "contracts/v2/KapanRouter.sol:KapanRouter",
        "label": "balancerV3Vault",
        "offset": 0,
        "slot": "3",
        "type": "t_contract(IVaultV3)8210"
      },
      {
        "astId": 7214,
        "contract": "contracts/v2/KapanRouter.sol:KapanRouter",
        "label": "aaveCompatiblePools",
        "offset": 0,
        "slot": "4",
        "type": "t_mapping(t_bytes32,t_address)"
      },
      {
        "astId": 7218,
        "contract": "contracts/v2/KapanRouter.sol:KapanRouter",
        "label": "isAaveCompatiblePool",
        "offset": 0,
        "slot": "5",
        "type": "t_mapping(t_address,t_bool)"
      },
      {
        "astId": 7220,
        "contract": "contracts/v2/KapanRouter.sol:KapanRouter",
        "label": "uniswapV3Factory",
        "offset": 0,
        "slot": "6",
        "type": "t_address"
      },
      {
        "astId": 7222,
        "contract": "contracts/v2/KapanRouter.sol:KapanRouter",
        "label": "morphoBlue",
        "offset": 0,
        "slot": "7",
        "type": "t_address"
      },
      {
        "astId": 7224,
        "contract": "contracts/v2/KapanRouter.sol:KapanRouter",
        "label": "flashLoanEnabled",
        "offset": 20,
        "slot": "7",
        "type": "t_bool"
      },
      {
        "astId": 7226,
        "contract": "contracts/v2/KapanRouter.sol:KapanRouter",
        "label": "authorizedFlashSender",
        "offset": 0,
        "slot": "8",
        "type": "t_address"
      },
      {
        "astId": 1027,
        "contract": "contracts/v2/KapanRouter.sol:KapanRouter",
        "label": "gateways",
        "offset": 0,
        "slot": "9",
        "type": "t_mapping(t_string_memory_ptr,t_contract(IGateway)8122)"
      },
      {
        "astId": 1030,
        "contract": "contracts/v2/KapanRouter.sol:KapanRouter",
        "label": "authorizationHelper",
        "offset": 0,
        "slot": "10",
        "type": "t_address"
      },
      {
        "astId": 1035,
        "contract": "contracts/v2/KapanRouter.sol:KapanRouter",
        "label": "approvedManagers",
        "offset": 0,
        "slot": "11",
        "type": "t_mapping(t_address,t_bool)"
      },
      {
        "astId": 1042,
        "contract": "contracts/v2/KapanRouter.sol:KapanRouter",
        "label": "userDelegates",
        "offset": 0,
        "slot": "12",
        "type": "t_mapping(t_address,t_mapping(t_address,t_bool))"
      }
    ],
    "types": {
      "t_address": {
        "encoding": "inplace",
        "label": "address",
        "numberOfBytes": "20"
      },
      "t_bool": {
        "encoding": "inplace",
        "label": "bool",
        "numberOfBytes": "1"
      },
      "t_bytes32": {
        "encoding": "inplace",
        "label": "bytes32",
        "numberOfBytes": "32"
      },
      "t_contract(IFlashLoanProvider)8184": {
        "encoding": "inplace",
        "label": "contract IFlashLoanProvider",
        "numberOfBytes": "20"
      },
      "t_contract(IGateway)8122": {
        "encoding": "inplace",
        "label": "contract IGateway",
        "numberOfBytes": "20"
      },
      "t_contract(IVaultV3)8210": {
        "encoding": "inplace",
        "label": "contract IVaultV3",
        "numberOfBytes": "20"
      },
      "t_mapping(t_address,t_bool)": {
        "encoding": "mapping",
        "key": "t_address",
        "label": "mapping(address => bool)",
        "numberOfBytes": "32",
        "value": "t_bool"
      },
      "t_mapping(t_address,t_mapping(t_address,t_bool))": {
        "encoding": "mapping",
        "key": "t_address",
        "label": "mapping(address => mapping(address => bool))",
        "numberOfBytes": "32",
        "value": "t_mapping(t_address,t_bool)"
      },
      "t_mapping(t_bytes32,t_address)": {
        "encoding": "mapping",
        "key": "t_bytes32",
        "label": "mapping(bytes32 => address)",
        "numberOfBytes": "32",
        "value": "t_address"
      },
      "t_mapping(t_string_memory_ptr,t_contract(IGateway)8122)": {
        "encoding": "mapping",
        "key": "t_string_memory_ptr",
        "label": "mapping(string => contract IGateway)",
        "numberOfBytes": "32",
        "value": "t_contract(IGateway)8122"
      },
      "t_string_memory_ptr": {
        "encoding": "bytes",
        "label": "string",
        "numberOfBytes": "32"
      },
      "t_uint256": {
        "encoding": "inplace",
        "label": "uint256",
        "numberOfBytes": "32"
      }
    }
  }
}