{
  "address": "0x1941503F3d143e917E7775E7039C2cd95AA97A4e",
  "abi": [
    {
      "inputs": [
        {
          "internalType": "address",
          "name": "router",
          "type": "address"
        },
        {
          "internalType": "address",
          "name": "owner_",
          "type": "address"
        }
      ],
      "stateMutability": "nonpayable",
      "type": "constructor"
    },
    {
      "inputs": [
        {
          "internalType": "address",
          "name": "target",
          "type": "address"
        }
      ],
      "name": "AddressEmptyCode",
      "type": "error"
    },
    {
      "inputs": [
        {
          "internalType": "address",
          "name": "account",
          "type": "address"
        }
      ],
      "name": "AddressInsufficientBalance",
      "type": "error"
    },
    {
      "inputs": [],
      "name": "FailedInnerCall",
      "type": "error"
    },
    {
      "inputs": [
        {
          "internalType": "address",
          "name": "owner",
          "type": "address"
        }
      ],
      "name": "OwnableInvalidOwner",
      "type": "error"
    },
    {
      "inputs": [
        {
          "internalType": "address",
          "name": "account",
          "type": "address"
        }
      ],
      "name": "OwnableUnauthorizedAccount",
      "type": "error"
    },
    {
      "inputs": [],
      "name": "ReentrancyGuardReentrantCall",
      "type": "error"
    },
    {
      "inputs": [
        {
          "internalType": "address",
          "name": "token",
          "type": "address"
        }
      ],
      "name": "SafeERC20FailedOperation",
      "type": "error"
    },
    {
      "anonymous": false,
      "inputs": [
        {
          "indexed": true,
          "internalType": "address",
          "name": "previousOwner",
          "type": "address"
        },
        {
          "indexed": true,
          "internalType": "address",
          "name": "newOwner",
          "type": "address"
        }
      ],
      "name": "OwnershipTransferred",
      "type": "event"
    },
    {
      "inputs": [],
      "name": "ROUTER",
      "outputs": [
        {
          "internalType": "address",
          "name": "",
          "type": "address"
        }
      ],
      "stateMutability": "view",
      "type": "function"
    },
    {
      "inputs": [],
      "name": "adapter",
      "outputs": [
        {
          "internalType": "contract PendleAdapter",
          "name": "",
          "type": "address"
        }
      ],
      "stateMutability": "view",
      "type": "function"
    },
    {
      "inputs": [
        {
          "components": [
            {
              "internalType": "enum ProtocolTypes.LendingOp",
              "name": "op",
              "type": "uint8"
            },
            {
              "internalType": "address",
              "name": "token",
              "type": "address"
            },
            {
              "internalType": "address",
              "name": "user",
              "type": "address"
            },
            {
              "internalType": "uint256",
              "name": "amount",
              "type": "uint256"
            },
            {
              "internalType": "bytes",
              "name": "context",
              "type": "bytes"
            },
            {
              "components": [
                {
                  "internalType": "uint256",
                  "name": "index",
                  "type": "uint256"
                }
              ],
              "internalType": "struct ProtocolTypes.InputPtr",
              "name": "input",
              "type": "tuple"
            }
          ],
          "internalType": "struct ProtocolTypes.LendingInstruction[]",
          "name": "instrs",
          "type": "tuple[]"
        },
        {
          "internalType": "address",
          "name": "",
          "type": "address"
        },
        {
          "components": [
            {
              "internalType": "address",
              "name": "token",
              "type": "address"
            },
            {
              "internalType": "uint256",
              "name": "amount",
              "type": "uint256"
            }
          ],
          "internalType": "struct ProtocolTypes.Output[]",
          "name": "inputs",
          "type": "tuple[]"
        }
      ],
      "name": "authorize",
      "outputs": [
        {
          "internalType": "address[]",
          "name": "targets",
          "type": "address[]"
        },
        {
          "internalType": "bytes[]",
          "name": "data",
          "type": "bytes[]"
        },
        {
          "components": [
            {
              "internalType": "address",
              "name": "token",
              "type": "address"
            },
            {
              "internalType": "uint256",
              "name": "amount",
              "type": "uint256"
            }
          ],
          "internalType": "struct ProtocolTypes.Output[]",
          "name": "produced",
          "type": "tuple[]"
        }
      ],
      "stateMutability": "pure",
      "type": "function"
    },
    {
      "inputs": [
        {
          "components": [
            {
              "internalType": "enum ProtocolTypes.LendingOp",
              "name": "op",
              "type": "uint8"
            },
            {
              "internalType": "address",
              "name": "token",
              "type": "address"
            },
            {
              "internalType": "address",
              "name": "user",
              "type": "address"
            },
            {
              "internalType": "uint256",
              "name": "amount",
              "type": "uint256"
            },
            {
              "internalType": "bytes",
              "name": "context",
              "type": "bytes"
            },
            {
              "components": [
                {
                  "internalType": "uint256",
                  "name": "index",
                  "type": "uint256"
                }
              ],
              "internalType": "struct ProtocolTypes.InputPtr",
              "name": "input",
              "type": "tuple"
            }
          ],
          "internalType": "struct ProtocolTypes.LendingInstruction[]",
          "name": "instrs",
          "type": "tuple[]"
        },
        {
          "internalType": "address",
          "name": "",
          "type": "address"
        },
        {
          "components": [
            {
              "internalType": "address",
              "name": "token",
              "type": "address"
            },
            {
              "internalType": "uint256",
              "name": "amount",
              "type": "uint256"
            }
          ],
          "internalType": "struct ProtocolTypes.Output[]",
          "name": "",
          "type": "tuple[]"
        }
      ],
      "name": "deauthorize",
      "outputs": [
        {
          "internalType": "address[]",
          "name": "targets",
          "type": "address[]"
        },
        {
          "internalType": "bytes[]",
          "name": "data",
          "type": "bytes[]"
        }
      ],
      "stateMutability": "pure",
      "type": "function"
    },
    {
      "inputs": [],
      "name": "owner",
      "outputs": [
        {
          "internalType": "address",
          "name": "",
          "type": "address"
        }
      ],
      "stateMutability": "view",
      "type": "function"
    },
    {
      "inputs": [
        {
          "components": [
            {
              "internalType": "address",
              "name": "token",
              "type": "address"
            },
            {
              "internalType": "uint256",
              "name": "amount",
              "type": "uint256"
            }
          ],
          "internalType": "struct ProtocolTypes.Output[]",
          "name": "inputs",
          "type": "tuple[]"
        },
        {
          "internalType": "bytes",
          "name": "data",
          "type": "bytes"
        }
      ],
      "name": "processLendingInstruction",
      "outputs": [
        {
          "components": [
            {
              "internalType": "address",
              "name": "token",
              "type": "address"
            },
            {
              "internalType": "uint256",
              "name": "amount",
              "type": "uint256"
            }
          ],
          "internalType": "struct ProtocolTypes.Output[]",
          "name": "outputs",
          "type": "tuple[]"
        }
      ],
      "stateMutability": "nonpayable",
      "type": "function"
    },
    {
      "inputs": [],
      "name": "renounceOwnership",
      "outputs": [],
      "stateMutability": "nonpayable",
      "type": "function"
    },
    {
      "inputs": [
        {
          "internalType": "address",
          "name": "_adapter",
          "type": "address"
        }
      ],
      "name": "setAdapter",
      "outputs": [],
      "stateMutability": "nonpayable",
      "type": "function"
    },
    {
      "inputs": [
        {
          "internalType": "address",
          "name": "newOwner",
          "type": "address"
        }
      ],
      "name": "transferOwnership",
      "outputs": [],
      "stateMutability": "nonpayable",
      "type": "function"
    }
  ],
  "transactionHash": "0x46f09e4f3614739c826a9365911d0ce9e95533691fad74db6053567d9cf50e17",
  "args": [
    "0x80B90261A827B39D88deF1120Dd177B00979abF7",
    "0x0BE61223F99E57b8b8B7033a77B54Adc7f7cF027"
  ],
  "numDeployments": 9,
  "solcInputHash": "0fea5cc4d237037126c3fb60329d2945",
  "bytecode": "0x60a03461011e57601f61123438819003918201601f19168301916001600160401b0383118484101761012257808492604094855283398101031261011e57610052602061004b83610136565b9201610136565b906001600160a01b038116156100ee576080526001600160a01b031680156100db575f80546001600160a01b031981168317825560405192916001600160a01b03909116907f8be0079c531659141344cd1fd0a4f28419497f9722a3daafe3b4186f6b6457e09080a3600180556110e9908161014b82396080518181816101650152610b320152f35b631e4fbdf760e01b5f525f60045260245ffd5b60405162461bcd60e51b81526020600482015260086024820152670726f757465723d360c41b6044820152606490fd5b5f80fd5b634e487b7160e01b5f52604160045260245ffd5b51906001600160a01b038216820361011e5756fe6080806040526004361015610012575f80fd5b5f3560e01c90816303eadcfc14610b615750806332fe7b2614610b1d57806352ed587514610814578063715018a6146107d05780638da5cb5b146107a9578063aad11a3f14610713578063ab1da79c146106d0578063ae4be46d146100f55763f2fde38b1461007f575f80fd5b346100f15760203660031901126100f157610098610b84565b6100a0610f31565b6001600160a01b031680156100de575f80546001600160a01b03198116831782556001600160a01b0316905f5160206110945f395f51905f529080a3005b631e4fbdf760e01b5f525f60045260245ffd5b5f80fd5b346100f15760403660031901126100f1576004356001600160401b0381116100f157610125903690600401610bae565b602435916001600160401b0383116100f157366023840112156100f15760048301356001600160401b0381116100f157830160248101933685116100f1577f00000000000000000000000000000000000000000000000000000000000000006001600160a01b03163303610694576020818303126100f15760248101356001600160401b0381116100f15701908190039160c083126100f15760405160c081016001600160401b038111828210176104ee576040526024830135600a8110156100f15781526101f660448401610b9a565b906020810191825261020a60648501610b9a565b60408201526084840135606082019081529660a48501356001600160401b0381116100f157602091602461024092880101610eb9565b6080830190815295609f1901126100f1576040519360208501906001600160401b038211868310176104ee5760c4916040520135845260a081019384528051600a8110156106805760071490811561066b575b501561062d5760018060a01b039051169451938251518181106105fa575b50506002546001600160a01b03169491505083156105bb576001600160a01b0316908115610581578215610546575180518101606082602083019203126100f15760208201516001600160a01b03811694908590036100f1576040830151606084015190936001600160401b0382116100f157019282603f850112156100f15760208401519361034085610e9e565b9361034e6040519586610d82565b858552604082870101116100f1576103f1975f602087604098896103ab9601838a015e870101528551906323b872dd60e01b60208301523360248301526044820152836064820152606481526103a5608482610d82565b86610f99565b5f60018060a01b036002541692855198899586948593628c85d360e61b85528a60048601528b60248601526044850152606484015260a0608484015260a4830190610ca3565b03925af1801561053b575f935f91610502575b506040519260606104158186610d82565b60028552601f1901945f5b8681106104cb57506104a3955061047e8560405161043d81610d67565b84815283602082015261044f82610e6d565b5261045981610e6d565b5060405161046681610d67565b86815285602082015261047882610e7a565b52610e7a565b50806104b9575b5050806104a7575b5050604051918291602083526020830190610d1f565b0390f35b6104b2913390610f57565b828061048d565b6104c4913390610f57565b8480610485565b6020906040516104da81610d67565b5f81525f8382015282828901015201610420565b634e487b7160e01b5f52604160045260245ffd5b9350506040833d604011610533575b8161051e60409383610d82565b810103126100f1576020835193015184610404565b3d9150610511565b6040513d5f823e3d90fd5b60405162461bcd60e51b815260206004820152601360248201527214195b991b194e8816995c9bc8185b5bdd5b9d606a1b6044820152606490fd5b60405162461bcd60e51b81526020600482015260126024820152712832b73236329d102d32b937903a37b5b2b760711b6044820152606490fd5b60405162461bcd60e51b815260206004820152601760248201527614195b991b194e881059185c1d195c881b9bdd081cd95d604a1b6044820152606490fd5b6106219396506020949550610613610618918385610f21565b610f0d565b95515191610f21565b013590838080806102b1565b60405162461bcd60e51b8152602060048201526016602482015275050656e646c653a20556e737570706f72746564204f760541b6044820152606490fd5b905051600a8110156106805760081487610293565b634e487b7160e01b5f52602160045260245ffd5b60405162461bcd60e51b815260206004820152601460248201527313db9b1e481c9bdd5d195c8818d85b8818d85b1b60621b6044820152606490fd5b346100f15760203660031901126100f1576106e9610b84565b6106f1610f31565b600280546001600160a01b0319166001600160a01b0392909216919091179055005b346100f15761072136610bde565b505050905061072f81610dbc565b61073882610dee565b9160205f5b82811061076e57610760846104a387604051938493604085526040850190610c67565b908382036020850152610cc7565b805f61077c60019387610e8a565b5260405161078a8482610d82565b5f81526107978288610e8a565b526107a28187610e8a565b500161073d565b346100f1575f3660031901126100f1575f546040516001600160a01b039091168152602090f35b346100f1575f3660031901126100f1576107e8610f31565b5f80546001600160a01b0319811682556001600160a01b03165f5160206110945f395f51905f528280a3005b346100f15761082236610bde565b91509261082e83610dbc565b9261083881610dee565b945f935f5b838110610aad575061084e85610da5565b9461085c6040519687610d82565b80865261086b601f1991610da5565b015f5b818110610a8a5750505f925f935b8185106108bf576108a3886104a3896108b18d604051958695606087526060870190610c67565b908582036020870152610cc7565b908382036040850152610d1f565b6108ca858388610e37565b8035600a8110156100f15760078114908115610a7f575b5015610a42575f6108f2878b610e8a565b5260206040516109028282610d82565b5f815261090f888d610e8a565b5261091a878c610e8a565b506080820135601e19833603018112156100f1578201803592906001600160401b0384116100f1578281019380360385136100f15781019360608286038501601f1901126100f157356001600160a01b03811695908690036100f1576060820135956001600160401b0387116100f1576109c5828e60406109d6966109ab60019c8b80610a209e0191840101610eb9565b508151956109b887610d67565b8652013588850152610e8a565b526109d0818d610e8a565b50610eff565b9160a06109e4828401610f0d565b920135878110610a29575b505f90604051926109ff84610d67565b868060a01b03168352820152610a15828b610e8a565b526109d0818a610e8a565b945b019361087c565b5f919250610613610a3b91898b610f21565b91906109ef565b5093805f610a526001938b610e8a565b52604051610a61602082610d82565b5f8152610a6e828c610e8a565b52610a79818b610e8a565b50610a22565b60089150148b6108e1565b602090604051610a9981610d67565b5f81525f8382015282828a0101520161086e565b610ab8818587610e37565b35600a8110156100f1576007148015610aff575b610ad9575b60010161083d565b9460028101809111610aeb5794610ad1565b634e487b7160e01b5f52601160045260245ffd5b50610b0b818587610e37565b35600a8110156100f157600814610acc565b346100f1575f3660031901126100f1576040517f00000000000000000000000000000000000000000000000000000000000000006001600160a01b03168152602090f35b346100f1575f3660031901126100f1576002546001600160a01b03168152602090f35b600435906001600160a01b03821682036100f157565b35906001600160a01b03821682036100f157565b9181601f840112156100f1578235916001600160401b0383116100f1576020808501948460061b0101116100f157565b9060606003198301126100f157600435916001600160401b0383116100f157806023840112156100f1576004830135926001600160401b0384116100f1578160248560051b830101116100f1576024908101939290356001600160a01b03811681036100f15791604435906001600160401b0382116100f157610c6391600401610bae565b9091565b90602080835192838152019201905f5b818110610c845750505090565b82516001600160a01b0316845260209384019390920191600101610c77565b805180835260209291819084018484015e5f828201840152601f01601f1916010190565b9080602083519182815201916020808360051b8301019401925f915b838310610cf257505050505090565b9091929394602080610d10600193601f198682030187528951610ca3565b97019301930191939290610ce3565b90602080835192838152019201905f5b818110610d3c5750505090565b825180516001600160a01b031685526020908101518186015260409094019390920191600101610d2f565b604081019081106001600160401b038211176104ee57604052565b601f909101601f19168101906001600160401b038211908210176104ee57604052565b6001600160401b0381116104ee5760051b60200190565b90610dc682610da5565b610dd36040519182610d82565b8281528092610de4601f1991610da5565b0190602036910137565b90610df882610da5565b610e056040519182610d82565b8281528092610e16601f1991610da5565b01905f5b828110610e2657505050565b806060602080938501015201610e1a565b9190811015610e595760051b8101359060be19813603018212156100f1570190565b634e487b7160e01b5f52603260045260245ffd5b805115610e595760200190565b805160011015610e595760400190565b8051821015610e595760209160051b010190565b6001600160401b0381116104ee57601f01601f191660200190565b81601f820112156100f157803590610ed082610e9e565b92610ede6040519485610d82565b828452602083830101116100f157815f926020809301838601378301015290565b5f198114610aeb5760010190565b356001600160a01b03811681036100f15790565b9190811015610e595760061b0190565b5f546001600160a01b03163303610f4457565b63118cdaa760e01b5f523360045260245ffd5b60405163a9059cbb60e01b60208201526001600160a01b039092166024830152604480830193909352918152610f9791610f92606483610d82565b610f99565b565b5f80610fe19260018060a01b03169360208151910182865af13d1561102d573d90610fc382610e9e565b91610fd16040519384610d82565b82523d5f602084013e5b83611035565b8051908115159182611009575b5050610ff75750565b635274afe760e01b5f5260045260245ffd5b81925090602091810103126100f157602001518015908115036100f1575f80610fee565b606090610fdb565b90611059575080511561104a57805190602001fd5b630a12f52160e11b5f5260045ffd5b8151158061108a575b61106a575090565b639996b31560e01b5f9081526001600160a01b0391909116600452602490fd5b50803b1561106256fe8be0079c531659141344cd1fd0a4f28419497f9722a3daafe3b4186f6b6457e0a264697066735822122021f1953aebb0b70bd6fafabe330004aae04f8ce48514e49961a29e760c7d5bbb64736f6c634300081e0033",
  "devdoc": {
    "errors": {
      "AddressEmptyCode(address)": [
        {
          "details": "There's no code at `target` (it is not a contract)."
        }
      ],
      "AddressInsufficientBalance(address)": [
        {
          "details": "The ETH balance of the account is not enough to perform the operation."
        }
      ],
      "FailedInnerCall()": [
        {
          "details": "A call to an address target failed. The target may have reverted."
        }
      ],
      "OwnableInvalidOwner(address)": [
        {
          "details": "The owner is not a valid owner account. (eg. `address(0)`)"
        }
      ],
      "OwnableUnauthorizedAccount(address)": [
        {
          "details": "The caller account is not authorized to perform an operation."
        }
      ],
      "ReentrancyGuardReentrantCall()": [
        {
          "details": "Unauthorized reentrant call."
        }
      ],
      "SafeERC20FailedOperation(address)": [
        {
          "details": "An operation with an ERC20 token failed."
        }
      ]
    },
    "kind": "dev",
    "methods": {
      "owner()": {
        "details": "Returns the address of the current owner."
      },
      "renounceOwnership()": {
        "details": "Leaves the contract without owner. It will not be possible to call `onlyOwner` functions. Can only be called by the current owner. NOTE: Renouncing ownership will leave the contract without an owner, thereby disabling any functionality that is only available to the owner."
      },
      "transferOwnership(address)": {
        "details": "Transfers ownership of the contract to a new account (`newOwner`). Can only be called by the current owner."
      }
    },
    "version": 1
  },
  "userdoc": {
    "kind": "user",
    "methods": {
      "ROUTER()": {
        "notice": "Immutable router address that can call protected functions"
      }
    },
    "version": 1
  },
  "storageLayout": {
    "storage": [
      {
        "astId": 1578,
        "contract": "contracts/v2/gateways/pendle/PendleGateway.sol:PendleGateway",
        "label": "_owner",
        "offset": 0,
        "slot": "0",
        "type": "t_address"
      },
      {
        "astId": 3093,
        "contract": "contracts/v2/gateways/pendle/PendleGateway.sol:PendleGateway",
        "label": "_status",
        "offset": 0,
        "slot": "1",
        "type": "t_uint256"
      },
      {
        "astId": 39369,
        "contract": "contracts/v2/gateways/pendle/PendleGateway.sol:PendleGateway",
        "label": "adapter",
        "offset": 0,
        "slot": "2",
        "type": "t_contract(PendleAdapter)39336"
      }
    ],
    "types": {
      "t_address": {
        "encoding": "inplace",
        "label": "address",
        "numberOfBytes": "20"
      },
      "t_contract(PendleAdapter)39336": {
        "encoding": "inplace",
        "label": "contract PendleAdapter",
        "numberOfBytes": "20"
      },
      "t_uint256": {
        "encoding": "inplace",
        "label": "uint256",
        "numberOfBytes": "32"
      }
    }
  }
}