{
  "address": "0xD31d4Bd3c095323882fA9870d12D448446Af13D9",
  "abi": [
    {
      "inputs": [
        {
          "internalType": "address",
          "name": "_poolAddressesProvider",
          "type": "address"
        },
        {
          "internalType": "address",
          "name": "_uiPoolDataProvider",
          "type": "address"
        }
      ],
      "stateMutability": "nonpayable",
      "type": "constructor"
    },
    {
      "inputs": [
        {
          "internalType": "address",
          "name": "user",
          "type": "address"
        }
      ],
      "name": "borrowedTokens",
      "outputs": [
        {
          "internalType": "address[]",
          "name": "",
          "type": "address[]"
        }
      ],
      "stateMutability": "view",
      "type": "function"
    },
    {
      "inputs": [
        {
          "internalType": "address",
          "name": "underlyingToken",
          "type": "address"
        }
      ],
      "name": "getAToken",
      "outputs": [
        {
          "internalType": "address",
          "name": "",
          "type": "address"
        }
      ],
      "stateMutability": "view",
      "type": "function"
    },
    {
      "inputs": [
        {
          "internalType": "address",
          "name": "user",
          "type": "address"
        }
      ],
      "name": "getAllTokensInfo",
      "outputs": [
        {
          "components": [
            {
              "internalType": "address",
              "name": "token",
              "type": "address"
            },
            {
              "internalType": "uint256",
              "name": "supplyRate",
              "type": "uint256"
            },
            {
              "internalType": "uint256",
              "name": "borrowRate",
              "type": "uint256"
            },
            {
              "internalType": "string",
              "name": "name",
              "type": "string"
            },
            {
              "internalType": "string",
              "name": "symbol",
              "type": "string"
            },
            {
              "internalType": "uint256",
              "name": "price",
              "type": "uint256"
            },
            {
              "internalType": "uint256",
              "name": "borrowBalance",
              "type": "uint256"
            },
            {
              "internalType": "uint256",
              "name": "balance",
              "type": "uint256"
            },
            {
              "internalType": "address",
              "name": "aToken",
              "type": "address"
            },
            {
              "internalType": "uint8",
              "name": "decimals",
              "type": "uint8"
            }
          ],
          "internalType": "struct AaveGatewayView.TokenInfo[]",
          "name": "",
          "type": "tuple[]"
        }
      ],
      "stateMutability": "view",
      "type": "function"
    },
    {
      "inputs": [
        {
          "internalType": "address",
          "name": "user",
          "type": "address"
        }
      ],
      "name": "getAllTokensInfoWithEMode",
      "outputs": [
        {
          "components": [
            {
              "internalType": "address",
              "name": "token",
              "type": "address"
            },
            {
              "internalType": "uint256",
              "name": "supplyRate",
              "type": "uint256"
            },
            {
              "internalType": "uint256",
              "name": "borrowRate",
              "type": "uint256"
            },
            {
              "internalType": "string",
              "name": "name",
              "type": "string"
            },
            {
              "internalType": "string",
              "name": "symbol",
              "type": "string"
            },
            {
              "internalType": "uint256",
              "name": "price",
              "type": "uint256"
            },
            {
              "internalType": "uint256",
              "name": "borrowBalance",
              "type": "uint256"
            },
            {
              "internalType": "uint256",
              "name": "balance",
              "type": "uint256"
            },
            {
              "internalType": "address",
              "name": "aToken",
              "type": "address"
            },
            {
              "internalType": "uint8",
              "name": "decimals",
              "type": "uint8"
            }
          ],
          "internalType": "struct AaveGatewayView.TokenInfo[]",
          "name": "tokens",
          "type": "tuple[]"
        },
        {
          "internalType": "uint8",
          "name": "userEModeCategory",
          "type": "uint8"
        }
      ],
      "stateMutability": "view",
      "type": "function"
    },
    {
      "inputs": [
        {
          "internalType": "address",
          "name": "token",
          "type": "address"
        },
        {
          "internalType": "address",
          "name": "user",
          "type": "address"
        }
      ],
      "name": "getBalance",
      "outputs": [
        {
          "internalType": "uint256",
          "name": "",
          "type": "uint256"
        }
      ],
      "stateMutability": "view",
      "type": "function"
    },
    {
      "inputs": [
        {
          "internalType": "address",
          "name": "token",
          "type": "address"
        },
        {
          "internalType": "address",
          "name": "user",
          "type": "address"
        }
      ],
      "name": "getBorrowBalance",
      "outputs": [
        {
          "internalType": "uint256",
          "name": "",
          "type": "uint256"
        }
      ],
      "stateMutability": "view",
      "type": "function"
    },
    {
      "inputs": [
        {
          "internalType": "address",
          "name": "token",
          "type": "address"
        },
        {
          "internalType": "address",
          "name": "user",
          "type": "address"
        }
      ],
      "name": "getBorrowBalanceCurrent",
      "outputs": [
        {
          "internalType": "uint256",
          "name": "",
          "type": "uint256"
        }
      ],
      "stateMutability": "nonpayable",
      "type": "function"
    },
    {
      "inputs": [
        {
          "internalType": "address",
          "name": "token",
          "type": "address"
        }
      ],
      "name": "getBorrowRate",
      "outputs": [
        {
          "internalType": "uint256",
          "name": "",
          "type": "uint256"
        },
        {
          "internalType": "bool",
          "name": "",
          "type": "bool"
        }
      ],
      "stateMutability": "view",
      "type": "function"
    },
    {
      "inputs": [],
      "name": "getEModes",
      "outputs": [
        {
          "components": [
            {
              "internalType": "uint8",
              "name": "id",
              "type": "uint8"
            },
            {
              "internalType": "uint16",
              "name": "ltv",
              "type": "uint16"
            },
            {
              "internalType": "uint16",
              "name": "liquidationThreshold",
              "type": "uint16"
            },
            {
              "internalType": "uint16",
              "name": "liquidationBonus",
              "type": "uint16"
            },
            {
              "internalType": "string",
              "name": "label",
              "type": "string"
            },
            {
              "internalType": "uint128",
              "name": "collateralBitmap",
              "type": "uint128"
            },
            {
              "internalType": "uint128",
              "name": "borrowableBitmap",
              "type": "uint128"
            }
          ],
          "internalType": "struct AaveGatewayView.EModeInfo[]",
          "name": "emodes",
          "type": "tuple[]"
        }
      ],
      "stateMutability": "view",
      "type": "function"
    },
    {
      "inputs": [
        {
          "internalType": "address",
          "name": "",
          "type": "address"
        },
        {
          "internalType": "address",
          "name": "user",
          "type": "address"
        }
      ],
      "name": "getLtv",
      "outputs": [
        {
          "internalType": "uint256",
          "name": "",
          "type": "uint256"
        }
      ],
      "stateMutability": "view",
      "type": "function"
    },
    {
      "inputs": [
        {
          "internalType": "address",
          "name": "",
          "type": "address"
        },
        {
          "internalType": "address",
          "name": "user",
          "type": "address"
        }
      ],
      "name": "getMaxLtv",
      "outputs": [
        {
          "internalType": "uint256",
          "name": "",
          "type": "uint256"
        }
      ],
      "stateMutability": "view",
      "type": "function"
    },
    {
      "inputs": [
        {
          "internalType": "address",
          "name": "token",
          "type": "address"
        },
        {
          "internalType": "address",
          "name": "user",
          "type": "address"
        }
      ],
      "name": "getPossibleCollaterals",
      "outputs": [
        {
          "internalType": "address[]",
          "name": "collateralAddresses",
          "type": "address[]"
        },
        {
          "internalType": "uint256[]",
          "name": "balances",
          "type": "uint256[]"
        },
        {
          "internalType": "string[]",
          "name": "symbols",
          "type": "string[]"
        },
        {
          "internalType": "uint8[]",
          "name": "decimals",
          "type": "uint8[]"
        }
      ],
      "stateMutability": "view",
      "type": "function"
    },
    {
      "inputs": [
        {
          "internalType": "address",
          "name": "token",
          "type": "address"
        }
      ],
      "name": "getReserveConfig",
      "outputs": [
        {
          "components": [
            {
              "internalType": "address",
              "name": "token",
              "type": "address"
            },
            {
              "internalType": "uint256",
              "name": "price",
              "type": "uint256"
            },
            {
              "internalType": "uint256",
              "name": "ltv",
              "type": "uint256"
            },
            {
              "internalType": "uint256",
              "name": "liquidationThreshold",
              "type": "uint256"
            },
            {
              "internalType": "uint256",
              "name": "liquidationBonus",
              "type": "uint256"
            },
            {
              "internalType": "uint8",
              "name": "decimals",
              "type": "uint8"
            },
            {
              "internalType": "bool",
              "name": "usageAsCollateralEnabled",
              "type": "bool"
            },
            {
              "internalType": "bool",
              "name": "borrowingEnabled",
              "type": "bool"
            }
          ],
          "internalType": "struct AaveGatewayView.ReserveConfigData",
          "name": "config",
          "type": "tuple"
        }
      ],
      "stateMutability": "view",
      "type": "function"
    },
    {
      "inputs": [
        {
          "internalType": "address[]",
          "name": "tokens",
          "type": "address[]"
        }
      ],
      "name": "getReserveConfigs",
      "outputs": [
        {
          "components": [
            {
              "internalType": "address",
              "name": "token",
              "type": "address"
            },
            {
              "internalType": "uint256",
              "name": "price",
              "type": "uint256"
            },
            {
              "internalType": "uint256",
              "name": "ltv",
              "type": "uint256"
            },
            {
              "internalType": "uint256",
              "name": "liquidationThreshold",
              "type": "uint256"
            },
            {
              "internalType": "uint256",
              "name": "liquidationBonus",
              "type": "uint256"
            },
            {
              "internalType": "uint8",
              "name": "decimals",
              "type": "uint8"
            },
            {
              "internalType": "bool",
              "name": "usageAsCollateralEnabled",
              "type": "bool"
            },
            {
              "internalType": "bool",
              "name": "borrowingEnabled",
              "type": "bool"
            }
          ],
          "internalType": "struct AaveGatewayView.ReserveConfigData[]",
          "name": "configs",
          "type": "tuple[]"
        }
      ],
      "stateMutability": "view",
      "type": "function"
    },
    {
      "inputs": [
        {
          "internalType": "address",
          "name": "token",
          "type": "address"
        }
      ],
      "name": "getSupplyRate",
      "outputs": [
        {
          "internalType": "uint256",
          "name": "",
          "type": "uint256"
        },
        {
          "internalType": "bool",
          "name": "",
          "type": "bool"
        }
      ],
      "stateMutability": "view",
      "type": "function"
    },
    {
      "inputs": [
        {
          "internalType": "address",
          "name": "market",
          "type": "address"
        }
      ],
      "name": "getSupportedCollaterals",
      "outputs": [
        {
          "internalType": "address[]",
          "name": "collateralAddresses",
          "type": "address[]"
        }
      ],
      "stateMutability": "view",
      "type": "function"
    },
    {
      "inputs": [
        {
          "internalType": "address",
          "name": "aToken",
          "type": "address"
        }
      ],
      "name": "getUnderlyingToken",
      "outputs": [
        {
          "internalType": "address",
          "name": "",
          "type": "address"
        }
      ],
      "stateMutability": "view",
      "type": "function"
    },
    {
      "inputs": [
        {
          "internalType": "address",
          "name": "user",
          "type": "address"
        }
      ],
      "name": "getUserAccountData",
      "outputs": [
        {
          "internalType": "uint256",
          "name": "totalCollateralBase",
          "type": "uint256"
        },
        {
          "internalType": "uint256",
          "name": "totalDebtBase",
          "type": "uint256"
        },
        {
          "internalType": "uint256",
          "name": "availableBorrowsBase",
          "type": "uint256"
        },
        {
          "internalType": "uint256",
          "name": "currentLiquidationThreshold",
          "type": "uint256"
        },
        {
          "internalType": "uint256",
          "name": "ltv",
          "type": "uint256"
        },
        {
          "internalType": "uint256",
          "name": "healthFactor",
          "type": "uint256"
        }
      ],
      "stateMutability": "view",
      "type": "function"
    },
    {
      "inputs": [
        {
          "internalType": "address",
          "name": "user",
          "type": "address"
        }
      ],
      "name": "getUserEMode",
      "outputs": [
        {
          "internalType": "uint8",
          "name": "categoryId",
          "type": "uint8"
        }
      ],
      "stateMutability": "view",
      "type": "function"
    },
    {
      "inputs": [
        {
          "internalType": "address",
          "name": "market",
          "type": "address"
        },
        {
          "internalType": "address",
          "name": "collateral",
          "type": "address"
        }
      ],
      "name": "isCollateralSupported",
      "outputs": [
        {
          "internalType": "bool",
          "name": "isSupported",
          "type": "bool"
        }
      ],
      "stateMutability": "view",
      "type": "function"
    },
    {
      "inputs": [],
      "name": "poolAddressesProvider",
      "outputs": [
        {
          "internalType": "contract IPoolAddressesProvider",
          "name": "",
          "type": "address"
        }
      ],
      "stateMutability": "view",
      "type": "function"
    },
    {
      "inputs": [],
      "name": "uiPoolDataProvider",
      "outputs": [
        {
          "internalType": "contract IUiPoolDataProviderV3",
          "name": "",
          "type": "address"
        }
      ],
      "stateMutability": "view",
      "type": "function"
    }
  ],
  "transactionHash": "0xb3c6f2154acbaf14db39b16ef6e3e7bc5ea1cc399429d37060a805fcf9ff230e",
  "args": [
    "0xa97684ead0e402dC232d5A977953DF7ECBaB3CDb",
    "0x5c5228aC8BC1528482514aF3e27E692495148717"
  ],
  "numDeployments": 13,
  "solcInputHash": "8ea05fae211b01fd2cadb8e01b71fb98",
  "bytecode": "0x60c03461015e57601f6134d538819003918201601f19168301916001600160401b0383118484101761016257808492604094855283398101031261015e57610052602061004b83610176565b9201610176565b6001600160a01b039182166080521660a05260405161334a908161018b823960805181818161014301528181610276015281816103810152818161095d01528181610c4b0152818161109f0152818161115b015281816112cd015281816113dc015281816116c801528181611c750152818161272d015281816129d001528181612c0801528181612cfd01528181612e4101528181612faf0152613091015260a0518181816102b4015281816103f0015281816107e3015281816108ff01528181610c7c0152818161118c01528181611407015281816116fc0152818161276201528181612a0901528181612c3901528181612d2e01528181612e7a01528181612fe001526130c50152f35b5f80fd5b634e487b7160e01b5f52604160045260245ffd5b51906001600160a01b038216820361015e5756fe60806040526004361015610011575f80fd5b5f3560e01c8063104e999d14611994578063118e31b71461031e5780633e69c6af146116a0578063401d45d0146113ac57806362fd6add1461129557806366e2d09b1461112a578063691bcc88146111045780636b5441a914611109578063732a52ee1461110457806378466113146110ce57806380e17d871461108a578063a92c3f7e14610c24578063bd05bdb414610a61578063bf92857c1461092e578063c3a3a9a7146108ea578063ceac55df146107c2578063d4fac45d1461078e578063d71275f614610755578063d7728c1c14610323578063e94201c71461031e578063eddf1b79146102425763f5125d3f1461010b575f80fd5b3461023657604036600319011261023657610124611ab2565b5061012d611ac8565b60405163026b1d5f60e01b8152906020826004817f00000000000000000000000000000000000000000000000000000000000000006001600160a01b03165afa9182156101f5575f92610200575b50604051632fe4a15f60e21b81526001600160a01b0391821660048201529160c09183916024918391165afa80156101f5576020915f916101c0575b50604051908152f35b6101e2915060c03d60c0116101ee575b6101da8183611e55565b810190612bc3565b5093505050505f6101b7565b503d6101d0565b6040513d5f823e3d90fd5b9091506020813d60201161023a575b8161021c60209383611e55565b810103126102365761022f60c091611e8d565b919061017b565b5f80fd5b3d915061020f565b34610236576020366003190112610236576102b05f61025f611ab2565b6040516301465d3360e61b81526001600160a01b037f000000000000000000000000000000000000000000000000000000000000000081166004830152909116602482015291829081906044820190565b03817f00000000000000000000000000000000000000000000000000000000000000006001600160a01b03165afa80156101f5576020915f916102fa575b5060ff60405191168152f35b61031691503d805f833e61030e8183611e55565b8101906128d2565b9050826102ee565b611b3e565b34610236576020366003190112610236576004356001600160401b03811161023657366023820112156102365780600401356001600160401b038111610236573660248260051b840101116102365760405163e860accb60e01b81527f00000000000000000000000000000000000000000000000000000000000000006001600160a01b03169190602081600481865afa9081156101f5575f9161071b575b5060405163ec489c2160e01b815260048101939093526001600160a01b0390811693905f90849060249082907f0000000000000000000000000000000000000000000000000000000000000000165afa9283156101f5575f936106f6575b5061042c829392611e76565b9061043a6040519283611e55565b838252601f1961044985611e76565b015f5b8181106106d95750505f925b84841015610688576024600585901b830101356001600160a01b0381169290839003610236575f955f5b835181101561067c57846001600160a01b0361049e8387612382565b515116146104ae57600101610482565b8397506104c2906102c09297939594612382565b510151915b60405163313ce56760e01b815292886012602086600481875afa80965f9161063d575b50602496610635575b505f905f5f905f936101405f966040519b8c8092633e15014160e01b82528c60048301525afa5f5f5f905f92845f956105a6575b60019f5061058f575b505050505060ff949596604051986105478a611e1e565b895260208901526040880152606087015260808601521660a0840152151560c0830152151560e082015261057b8286612382565b526105868185612382565b50019293610458565b93995091975094509250905060ff5f808080610530565b9450505050506101408b3d821161062d575b816105c66101409383611e55565b81010312610236578a602060019c015160408201516060830151906105ed60a08501611ef6565b9261062261012061060060c08801611ef6565b9661060d60e08201611ef6565b5061061b6101008201611ef6565b5001611ef6565b509091929394610527565b3d91506105b8565b90508b6104f3565b9250506020823d8211610674575b8161065860209383611e55565b810103126102365760249561066d8c93611f17565b90966104ea565b3d915061064b565b509490929591956104c7565b826040518091602082016020835281518091526020604084019201905f5b8181106106b4575050500390f35b919350916020610100826106cb6001948851611d8d565b0194019101918493926106a6565b6020906106e7969596612dd6565b8282870101520194939461044c565b6107139193503d805f833e61070b8183611e55565b810190611f25565b509184610420565b90506020813d60201161074d575b8161073660209383611e55565b810103126102365761074790611e8d565b846103c2565b3d9150610729565b3461023657602036600319011261023657610776610771611ab2565b612f98565b604080519283529015156020830152819081015b0390f35b346102365760403660031901126102365760206107ba6107ac611ab2565b6107b4611ac8565b90612e12565b604051908152f35b34610236576020366003190112610236576107df5f61025f611ab2565b03817f00000000000000000000000000000000000000000000000000000000000000006001600160a01b03165afa9081156101f5575f916108cf575b505f5f5b82518110156108585760606108348285612382565b510151610844575b60010161081f565b90610850600191612396565b91905061083c565b50610862906122e6565b905f915f5b82518110156108b95780606061087f60019386612382565b51015161088d575b01610867565b818060a01b0361089d8286612382565b5151166108b36108ac87612396565b9685612382565b52610887565b6040516020808252819061078a90820185611ade565b6108e391503d805f833e61030e8183611e55565b508161081b565b34610236575f366003190112610236576040517f00000000000000000000000000000000000000000000000000000000000000006001600160a01b03168152602090f35b3461023657602036600319011261023657610947611ab2565b60405163026b1d5f60e01b8152906020826004817f00000000000000000000000000000000000000000000000000000000000000006001600160a01b03165afa9182156101f5575f92610a23575b50604051632fe4a15f60e21b81526001600160a01b0391821660048201529160c09183916024918391165afa9081156101f55760c0915f915f5f5f915f935f956109fc575b50604051958652602086015260408501526060840152608083015260a0820152f35b945050505050610a199150823d84116101ee576101da8183611e55565b93909290876109da565b9091506020813d602011610a59575b81610a3f60209383611e55565b8101031261023657610a5260c091611e8d565b9190610995565b3d9150610a32565b3461023657602036600319011261023657610adf610a7d611ab2565b610a85612dd6565b505f604091825190610a978483611e55565b60018252601f198401366020840137610aaf82612361565b6001600160a01b03909116905282516335dca30760e21b8152602060048201529384918291906024830190611ade565b0381305afa918215610c1a575f92610b0e575b50610b0c610b0261010093612361565b5191518092611d8d565bf35b91503d805f843e610b1f8184611e55565b820191602081840312610236578051906001600160401b038211610236570182601f8201121561023657805190610b5582611e76565b93610b6284519586611e55565b82855260208086019360081b8301019181831161023657602001925b828410610b915750505050610b0c610af2565b61010084830312610236576020610100918651610bad81611e1e565b610bb687611e8d565b8152828701518382015287870151888201526060870151606082015260808701516080820152610be860a08801611f17565b60a0820152610bf960c08801611ef6565b60c0820152610c0a60e08801611ef6565b60e0820152815201930192610b7e565b50513d5f823e3d90fd5b34610236575f36600319011261023657604051636f90b9d160e01b81526001600160a01b037f0000000000000000000000000000000000000000000000000000000000000000811660048301525f90829060249082907f0000000000000000000000000000000000000000000000000000000000000000165afa9081156101f5575f91610edf575b50805190610cb982611e76565b91610cc76040519384611e55565b808352610cd6601f1991611e76565b015f5b818110610e9d5750505f5b8151811015610dd7578060ff610cfc60019385612382565b51511661ffff6020610d0e8487612382565b510151511661ffff602080610d238689612382565b51015101511661ffff60406020610d3a878a612382565b51015101511660806020610d4e878a612382565b5101510151906001600160801b0360606020610d6a898c612382565b510151015116926001600160801b0360a06020610d878a8d612382565b5101510151169460405196610d9b88611e03565b8752602087015260408601526060850152608084015260a083015260c0820152610dc58286612382565b52610dd08185612382565b5001610ce4565b826040518091602082016020835281518091526040830190602060408260051b8601019301915f905b828210610e0f57505050500390f35b919360019193955060208091603f1989820301855287519060ff825116815261ffff83830151168382015261ffff604083015116604082015261ffff606083015116606082015260c06001600160801b0381610e7a608086015160e0608087015260e0860190611b1a565b948260a08201511660a08601520151169101529601920192018594939192610e00565b602090604051610eac81611e03565b5f81525f838201525f60408201525f6060820152606060808201525f60a08201525f60c082015282828701015201610cd9565b90503d805f833e610ef08183611e55565b810190602081830312610236578051906001600160401b03821161023657019080601f8301121561023657815191610f2783611e76565b92610f356040519485611e55565b80845260208085019160051b830101918383116102365760208101915b838310610f6457505050505081610cac565b82516001600160401b0381116102365782016040818703601f1901126102365760405190604082018281106001600160401b0382111761107657604052610fad60208201611f17565b825260408101516001600160401b0381116102365760209101019160c083880312610236576040519160c083018381106001600160401b0382111761107657604052610ff884612dc7565b835261100660208501612dc7565b602084015261101760408501612dc7565b604084015261102860608501611f03565b60608401526080840151926001600160401b0384116102365761106260a0866110578c602099988a9901611ea1565b608085015201611f03565b60a082015283820152815201920191610f52565b634e487b7160e01b5f52604160045260245ffd5b34610236575f366003190112610236576040517f00000000000000000000000000000000000000000000000000000000000000006001600160a01b03168152602090f35b34610236576040366003190112610236576110e7611ab2565b5060206110fa6110f5611ac8565b612ce6565b6040519015158152f35b611c46565b3461023657602036600319011261023657610776611125611ab2565b612bf1565b3461023657602036600319011261023657611143611ab2565b5060405163ec489c2160e01b81526001600160a01b037f0000000000000000000000000000000000000000000000000000000000000000811660048301525f90829060249082907f0000000000000000000000000000000000000000000000000000000000000000165afa9081156101f5575f9161127a575b505f5f5b82518110156111fa576101006111d68285612382565b5101516111e6575b6001016111c0565b906111f2600191612396565b9190506111de565b50611204906122e6565b905f905f5b81518110156112645761010061121f8284612382565b51015161122f575b600101611209565b9160019061125c906001600160a01b036112498686612382565b5151166112568288612382565b52612396565b929050611227565b6040516020808252819061078a90820187611ade565b61128e91503d805f833e61070b8183611e55565b50816111bc565b34610236576040366003190112610236576112ae611ab2565b506112b7611ac8565b60405163026b1d5f60e01b8152906020826004817f00000000000000000000000000000000000000000000000000000000000000006001600160a01b03165afa9182156101f5575f9261136e575b50604051632fe4a15f60e21b81526001600160a01b0391821660048201529160c09183916024918391165afa80156101f5576020915f916113495750604051908152f35b611362915060c03d60c0116101ee576101da8183611e55565b505092505050826101b7565b9091506020813d6020116113a4575b8161138a60209383611e55565b810103126102365761139d60c091611e8d565b9190611305565b3d915061137d565b34610236576020366003190112610236576113c5611ab2565b60405163ec489c2160e01b81526001600160a01b037f0000000000000000000000000000000000000000000000000000000000000000818116600484015292907f0000000000000000000000000000000000000000000000000000000000000000165f83602481845afa9283156101f5575f9361167b575b506040516301465d3360e61b81526001600160a01b03948516600482015293821660248501529192915f9083908180604481015b03915afa9182156101f5575f9261165e575b5061148e8351612b35565b905f5b8451811015611648576114af84836114a98489612382565b5161318e565b90856114c686856114c08585612382565b51613251565b601290600460206001600160a01b036114df8787612382565b5151166040519283809263313ce56760e01b82525afa5f91816115ff575b509560ff9392916001976115f7575b506001600160801b036101c0611535888a8060a01b0361152c828b612382565b51511698612382565b51015116918b6001600160801b036101e06115508a84612382565b5101511660206115608a84612382565b510151604061156f8b85612382565b510151916102c06115808c86612382565b510151936102206115978d8f8060a01b0393612382565b51015116966040519a6115a98c611de7565b8b5260208b015260408a01526060890152608088015260a087015260c086015260e0850152610100840152166101208201526115e58286612382565b526115f08185612382565b5001611491565b92508b61150c565b9392915093506020833d8211611640575b8161161d60209383611e55565b81010312610236576001958a9461163560ff95611f17565b9293945090966114fd565b3d9150611610565b6040516020808252819061078a90820186611b6a565b6116739192503d805f833e61030e8183611e55565b509083611483565b61147193505f9161169684923d8086833e61070b8183611e55565b509450915061143d565b34610236576020366003190112610236576116b9611ab2565b60405163ec489c2160e01b81527f00000000000000000000000000000000000000000000000000000000000000006001600160a01b0381811660048401529192917f000000000000000000000000000000000000000000000000000000000000000016905f84602481855afa9384156101f5575f9461196d575b506040516301465d3360e61b81526001600160a01b0391821660048201529083166024820152905f9082908180604481015b03915afa9182156101f5575f915f9361194f575b506117848451612b35565b915f5b85518110156119295761179f82846114a9848a612382565b90866117b084866114c08585612382565b601290600460206001600160a01b036117c98787612382565b5151166040519283809263313ce56760e01b82525afa5f91816118e0575b509560ff9392916001976118d8575b506001600160801b036101c0611816888a8060a01b0361152c828b612382565b51015116918c6001600160801b036101e06118318a84612382565b5101511660206118418a84612382565b51015160406118508b85612382565b510151916102c06118618c86612382565b510151936102206118788d8f8060a01b0393612382565b51015116966040519a61188a8c611de7565b8b5260208b015260408a01526060890152608088015260a087015260c086015260e0850152610100840152166101208201526118c68287612382565b526118d18186612382565b5001611787565b92508c6117f6565b9392915093506020833d8211611921575b816118fe60209383611e55565b81010312610236576001958b9461191660ff95611f17565b9293945090966117e7565b3d91506118f1565b611944848660ff604051938493604085526040850190611b6a565b911660208301520390f35b90925061196691503d805f833e61030e8183611e55565b9184611779565b5f9194506117659261198985923d8086833e61070b8183611e55565b509592509250611733565b34610236576040366003190112610236576119ad611ab2565b506119d66119c16119bc611ac8565b6123b8565b91604051948594608086526080860190611ade565b8481036020860152602080835192838152019201905f5b818110611a99575050508381036040850152815180825260208201916020808360051b8301019401925f915b838310611a665750505050508281036060840152602080835192838152019201905f5b818110611a4a575050500390f35b825160ff16845285945060209384019390920191600101611a3c565b91939596509193602080611a86600193601f198682030187528951611b1a565b9701930193019092879695949293611a19565b82518452879650602093840193909201916001016119ed565b600435906001600160a01b038216820361023657565b602435906001600160a01b038216820361023657565b90602080835192838152019201905f5b818110611afb5750505090565b82516001600160a01b0316845260209384019390920191600101611aee565b805180835260209291819084018484015e5f828201840152601f01601f1916010190565b346102365760403660031901126102365760206107ba611b5c611ab2565b611b64611ac8565b906129a0565b9080602083519182815201916020808360051b8301019401925f915b838310611b9557505050505090565b9091929394602080600192601f19858203018652885190848060a01b03825116815282820151838201526040820151604082015261012060ff81611bff611bed60608701516101406060880152610140870190611b1a565b60808701518682036080880152611b1a565b9460a081015160a086015260c081015160c086015260e081015160e0860152888060a01b036101008201511661010086015201511691015297019301930191939290611b86565b3461023657602036600319011261023657611c5f611ab2565b60405163e860accb60e01b8152906020826004817f00000000000000000000000000000000000000000000000000000000000000006001600160a01b03165afa9182156101f5575f92611d4f575b506040516334924edb60e21b81526001600160a01b0391821660048201529160609183916024918391165afa80156101f5575f90611cfb575b6040516001600160a01b039091168152602090f35b506060813d606011611d47575b81611d1560609383611e55565b810103126102365780611d416040611d2e602094611e8d565b92611d3a858201611e8d565b5001611e8d565b50611ce6565b3d9150611d08565b9091506020813d602011611d85575b81611d6b60209383611e55565b8101031261023657611d7e606091611e8d565b9190611cad565b3d9150611d5e565b60e0809160018060a01b0381511684526020810151602085015260408101516040850152606081015160608501526080810151608085015260ff60a08201511660a085015260c0810151151560c085015201511515910152565b61014081019081106001600160401b0382111761107657604052565b60e081019081106001600160401b0382111761107657604052565b61010081019081106001600160401b0382111761107657604052565b608081019081106001600160401b0382111761107657604052565b90601f801991011681019081106001600160401b0382111761107657604052565b6001600160401b0381116110765760051b60200190565b51906001600160a01b038216820361023657565b81601f82011215610236578051906001600160401b0382116110765760405192611ed5601f8401601f191660200185611e55565b8284526020838301011161023657815f9260208093018386015e8301015290565b5190811515820361023657565b51906001600160801b038216820361023657565b519060ff8216820361023657565b808203929160a084126102365781516001600160401b03811161023657820181601f8201121561023657805190611f5b82611e76565b92611f696040519485611e55565b82845260208085019360051b830101918183116102365760208101935b838510611fda57505050505060809093601f19011261023657611fd2608060405192611fb184611e3a565b60208101518452604081015160208501526060810151604085015201611f17565b606082015290565b84516001600160401b03811161023657820190610520828503601f190112610236576040519061052082018281106001600160401b038211176110765760405261202660208401611e8d565b825260408301516001600160401b0381116102365785602061204a92860101611ea1565b602083015260608301516001600160401b0381116102365785602061207192860101611ea1565b60408301526080830151606083015260a0830151608083015260c083015160a083015260e083015160c083015261010083015160e08301526120b66101208401611ef6565b6101008301526120c96101408401611ef6565b6101208301526120dc6101608401611ef6565b6101408301526120ef6101808401611ef6565b6101608301526121026101a08401611f03565b6101808301526121156101c08401611f03565b6101a08301526121286101e08401611f03565b6101c083015261213b6102008401611f03565b6101e08301526102208301519164ffffffffff83168303610236576122d561052060209586956102008501526121746102408201611e8d565b6102208501526121876102608201611e8d565b61024085015261219a6102808201611e8d565b6102608501526102a08101516102808501526102c08101516102a08501526102e08101516102c08501526121d16103008201611e8d565b6102e08501526103208101516103008501526103408101516103208501526103608101516103408501526103808101516103608501526122146103a08201611ef6565b6103808501526122276103c08201611ef6565b6103a085015261223a6103e08201611f03565b6103c085015261224d6104008201611f03565b6103e08501526122606104208201611f03565b6104008501526122736104408201611ef6565b6104208501526104608101516104408501526104808101516104608501526104a08101516104808501526104c08101516104a08501526122b66104e08201611ef6565b6104c08501526122c96105008201611ef6565b6104e085015201611f03565b610500820152815201940193611f86565b906122f082611e76565b6122fd6040519182611e55565b828152809261230e601f1991611e76565b0190602036910137565b9061232282611e76565b61232f6040519182611e55565b8281528092612340601f1991611e76565b01905f5b82811061235057505050565b806060602080938501015201612344565b80511561236e5760200190565b634e487b7160e01b5f52603260045260245ffd5b805182101561236e5760209160051b010190565b5f1981146123a45760010190565b634e487b7160e01b5f52601160045260245ffd5b6001600160a01b03169081156127165760405191630401d45d60e41b835260048301525f82602481305afa9182156101f5575f9261259c575b505f915f5b815181101561242f5760e061240b8284612382565b51015161241b575b6001016123f6565b92612427600191612396565b939050612413565b50612439836122e6565b90612443846122e6565b9361245661245082612318565b916122e6565b945f935f5b84518110156125915760e06124708287612382565b510151612480575b60010161245b565b946001600160a01b036124938787612382565b5151166124a08284612382565b5260e06124ad8787612382565b5101516124ba8285612382565b5260806124c78787612382565b5101516124d48286612382565b526124df8185612382565b50600460206001600160a01b036124f68989612382565b5151166040519283809263313ce56760e01b82525afa5f918161254e575b509161253191600193155f1461253957506012611256828c612382565b959050612478565b60ff612545838d612382565b91169052612396565b9150916020823d8211612589575b8161256960209383611e55565b810103126102365760019261258061253193611f17565b92509092612514565b3d915061255c565b509590949193509150565b9091503d805f833e6125ae8183611e55565b810190602081830312610236578051906001600160401b03821161023657019080601f83011215610236578151916125e583611e76565b926125f36040519485611e55565b80845260208085019160051b830101918383116102365760208101915b838310612623575050505050905f6123f1565b82516001600160401b03811161023657820190610140828703601f190112610236576040519061265282611de7565b61265e60208401611e8d565b8252604083015160208301526060830151604083015260808301516001600160401b0381116102365787602061269692860101611ea1565b606083015260a0830151916001600160401b03831161023657612705610140856126c88b602080999881990101611ea1565b608085015260c081015160a085015260e081015160c085015261010081015160e08501526126f96101208201611e8d565b61010085015201611f17565b610120820152815201920191612610565b60405163ec489c2160e01b81526001600160a01b037f000000000000000000000000000000000000000000000000000000000000000081166004830152919250905f90829060249082907f0000000000000000000000000000000000000000000000000000000000000000165afa9081156101f5575f916128b7575b5080519061279f826122e6565b926127a9836122e6565b936127b384612318565b936127bd816122e6565b935f5b8281106127d05750505093929190565b6004906001600160a01b036127e58285612382565b5151166127f28287612382565b5260406127ff8285612382565b51015161280c828a612382565b526128178189612382565b5060206001600160a01b0361282c8386612382565b5151166040519384809263313ce56760e01b82525afa805f9161287c575b600193506128675750601261285f8289612382565b525b016127c0565b60ff612873838a612382565b91169052612861565b90506020833d82116128af575b8161289660209383611e55565b81010312610236576128a9600193611f17565b9061284a565b3d9150612889565b6128cb91503d805f833e61070b8183611e55565b505f612792565b91906040838203126102365782516001600160401b03811161023657830181601f820112156102365780519061290782611e76565b926129156040519485611e55565b82845260208085019360071b8301019181831161023657602001925b82841061294c57505050506020612949919301611f17565b90565b60808483031261023657602060809160405161296781611e3a565b61297087611e8d565b8152828701518382015261298660408801611ef6565b604082015260608701516060820152815201930192612931565b906129aa8261307a565b90915080612b23575b612aae575b506040516301465d3360e61b81526001600160a01b037f00000000000000000000000000000000000000000000000000000000000000008116600483015290911660248201525f81806044810103817f00000000000000000000000000000000000000000000000000000000000000006001600160a01b03165afa9081156101f5575f91612a93575b505f5b8151811015612a8c576001600160a01b03612a5f8284612382565b5151166001600160a01b03841614612a7957600101612a44565b60609250612a8691612382565b51015190565b5050505f90565b612aa791503d805f833e61030e8183611e55565b505f612a41565b6040516370a0823160e01b81526001600160a01b038381166004830152909160209183916024918391165afa5f9181612aef575b50156129b8575b91505090565b9091506020813d602011612b1b575b81612b0b60209383611e55565b810103126102365751905f612ae2565b3d9150612afe565b506001600160a01b03811615156129b3565b90612b3f82611e76565b612b4c6040519182611e55565b8281528092612b5d601f1991611e76565b01905f5b828110612b6d57505050565b602090604051612b7c81611de7565b5f81525f838201525f6040820152606080820152606060808201525f60a08201525f60c08201525f60e08201525f6101008201525f61012082015282828501015201612b61565b91908260c09103126102365781519160208101519160408201519160608101519160a0608083015192015190565b60405163ec489c2160e01b81526001600160a01b037f0000000000000000000000000000000000000000000000000000000000000000811660048301525f90829060249082907f0000000000000000000000000000000000000000000000000000000000000000165afa9081156101f5575f91612ccb575b505f5b8151811015612cc2576001600160a01b03612c878284612382565b5151166001600160a01b03841614612ca157600101612c6c565b6001600160801b039250612cb8906101c092612382565b5101511690600190565b5050505f905f90565b612cdf91503d805f833e61070b8183611e55565b505f612c69565b60405163ec489c2160e01b81526001600160a01b037f0000000000000000000000000000000000000000000000000000000000000000811660048301525f90829060249082907f0000000000000000000000000000000000000000000000000000000000000000165afa9081156101f5575f91612dac575b505f5b8151811015612a8c576001600160a01b03612d7c8284612382565b5151166001600160a01b03841614612d9657600101612d61565b6101009250612da491612382565b510151151590565b612dc091503d805f833e61070b8183611e55565b505f612d5e565b519061ffff8216820361023657565b60405190612de382611e1e565b5f60e0838281528260208201528260408201528260608201528260808201528260a08201528260c08201520152565b90612e1c8261307a565b905080612f86575b612f12575b506040516301465d3360e61b81526001600160a01b037f00000000000000000000000000000000000000000000000000000000000000008116600483015290911660248201525f81806044810103817f00000000000000000000000000000000000000000000000000000000000000006001600160a01b03165afa9081156101f5575f91612ef7575b505f5b8151811015612a8c576001600160a01b03612ed08284612382565b5151166001600160a01b03841614612eea57600101612eb5565b60209250612a8691612382565b612f0b91503d805f833e61030e8183611e55565b505f612eb2565b6040516370a0823160e01b81526001600160a01b038381166004830152909160209183916024918391165afa5f9181612f52575b5015612e295791505090565b9091506020813d602011612f7e575b81612f6e60209383611e55565b810103126102365751905f612f46565b3d9150612f61565b506001600160a01b0381161515612e24565b60405163ec489c2160e01b81526001600160a01b037f0000000000000000000000000000000000000000000000000000000000000000811660048301525f90829060249082907f0000000000000000000000000000000000000000000000000000000000000000165afa9081156101f5575f9161305f575b505f5b8151811015612cc2576001600160a01b0361302e8284612382565b5151166001600160a01b0384161461304857600101613013565b6001600160801b039250612cb8906101e092612382565b61307391503d805f833e61070b8183611e55565b505f613010565b60405163ec489c2160e01b81526001600160a01b037f0000000000000000000000000000000000000000000000000000000000000000811660048301529192915f90829060249082907f0000000000000000000000000000000000000000000000000000000000000000165afa5f9181613171575b506130ff575b505f915081908190565b5f5b8151811015613166576001600160a01b0361311c8284612382565b5151166001600160a01b0385161461313657600101613101565b9250610240612cb86001600160a01b036102206131538786612382565b51015116946001600160a01b0393612382565b50509050805f6130f5565b6131869192503d805f833e61070b8183611e55565b50905f6130ef565b919060018060a01b036102208401511690816131e0575b50505f5b8151811015612a8c576001600160a01b036131c48284612382565b515184516001600160a01b0316911614612eea576001016131a9565b6040516370a0823160e01b81526001600160a01b03909116600482015290602090829060249082905afa5f918161321d575b50612ae957806131a5565b9091506020813d602011613249575b8161323960209383611e55565b810103126102365751905f613212565b3d915061322c565b919060018060a01b036102408401511690816132a3575b50505f5b8151811015612a8c576001600160a01b036132878284612382565b515184516001600160a01b0316911614612a795760010161326c565b6040516370a0823160e01b81526001600160a01b03909116600482015290602090829060249082905afa5f91816132e0575b50612ae95780613268565b9091506020813d60201161330c575b816132fc60209383611e55565b810103126102365751905f6132d5565b3d91506132ef56fea2646970667358221220dda898449ad1d25c04e6ba53f0b6f517a0d9f83d65029c95bb850a93acfd1e2964736f6c634300081e0033",
  "devdoc": {
    "details": "Contains all read/view functions from v1, separate from write operations",
    "kind": "dev",
    "methods": {
      "getAllTokensInfoWithEMode(address)": {
        "params": {
          "user": "The address of the user"
        },
        "returns": {
          "tokens": "Array of TokenInfo structs",
          "userEModeCategory": "The user's current E-Mode category ID (0 = no E-Mode)"
        }
      },
      "getEModes()": {
        "returns": {
          "emodes": "Array of E-Mode categories with their configurations"
        }
      },
      "getReserveConfig(address)": {
        "params": {
          "token": "The token address"
        },
        "returns": {
          "config": "The reserve configuration data"
        }
      },
      "getReserveConfigs(address[])": {
        "details": "Returns price, LTV, liquidation threshold, and other config for each token",
        "params": {
          "tokens": "Array of token addresses to get config for"
        },
        "returns": {
          "configs": "Array of reserve configuration data"
        }
      },
      "getUserAccountData(address)": {
        "params": {
          "user": "The user address"
        },
        "returns": {
          "availableBorrowsBase": "Available borrows in base currency",
          "currentLiquidationThreshold": "Current liquidation threshold (bps)",
          "healthFactor": "Health factor (1e18 scale)",
          "ltv": "Current LTV (bps)",
          "totalCollateralBase": "Total collateral in base currency",
          "totalDebtBase": "Total debt in base currency"
        }
      },
      "getUserEMode(address)": {
        "params": {
          "user": "The address of the user"
        },
        "returns": {
          "categoryId": "The E-Mode category ID (0 = no E-Mode)"
        }
      }
    },
    "title": "AaveGatewayView",
    "version": 1
  },
  "userdoc": {
    "kind": "user",
    "methods": {
      "borrowedTokens(address)": {
        "notice": "Returns the list of tokens that the user has borrowed."
      },
      "getAllTokensInfoWithEMode(address)": {
        "notice": "Returns all token info for a user along with their E-Mode category"
      },
      "getBalance(address,address)": {
        "notice": "Gets the balance for a given token and user."
      },
      "getBorrowBalance(address,address)": {
        "notice": "Gets the borrow balance for a given token and user."
      },
      "getEModes()": {
        "notice": "Returns all available E-Mode categories"
      },
      "getLtv(address,address)": {
        "notice": "Returns the protocol-level maximum LTV configuration for the user in basis points."
      },
      "getMaxLtv(address,address)": {
        "notice": "Returns the liquidation threshold (LLTV) for a given user in basis points."
      },
      "getReserveConfig(address)": {
        "notice": "Get reserve config for a single token"
      },
      "getReserveConfigs(address[])": {
        "notice": "Get reserve configuration data for multiple tokens (for frontend LTV calculations)"
      },
      "getUserAccountData(address)": {
        "notice": "Returns full user account data from Aave"
      },
      "getUserEMode(address)": {
        "notice": "Returns the user's current E-Mode category ID"
      }
    },
    "notice": "View-only gateway for Aave v3 protocol",
    "version": 1
  },
  "storageLayout": {
    "storage": [],
    "types": null
  }
}