{
  "address": "0x45d4D2e048aE2AA7c7506671D4E592B7b18f6Bdf",
  "abi": [
    {
      "inputs": [
        {
          "internalType": "address",
          "name": "router",
          "type": "address"
        },
        {
          "internalType": "address",
          "name": "_poolAddressesProvider",
          "type": "address"
        },
        {
          "internalType": "address",
          "name": "_uiPoolDataProvider",
          "type": "address"
        },
        {
          "internalType": "uint16",
          "name": "_referralCode",
          "type": "uint16"
        }
      ],
      "stateMutability": "nonpayable",
      "type": "constructor"
    },
    {
      "inputs": [
        {
          "internalType": "address",
          "name": "target",
          "type": "address"
        }
      ],
      "name": "AddressEmptyCode",
      "type": "error"
    },
    {
      "inputs": [
        {
          "internalType": "address",
          "name": "account",
          "type": "address"
        }
      ],
      "name": "AddressInsufficientBalance",
      "type": "error"
    },
    {
      "inputs": [],
      "name": "FailedInnerCall",
      "type": "error"
    },
    {
      "inputs": [],
      "name": "ReentrancyGuardReentrantCall",
      "type": "error"
    },
    {
      "inputs": [
        {
          "internalType": "address",
          "name": "token",
          "type": "address"
        }
      ],
      "name": "SafeERC20FailedOperation",
      "type": "error"
    },
    {
      "inputs": [],
      "name": "REFERRAL_CODE",
      "outputs": [
        {
          "internalType": "uint16",
          "name": "",
          "type": "uint16"
        }
      ],
      "stateMutability": "view",
      "type": "function"
    },
    {
      "inputs": [],
      "name": "ROUTER",
      "outputs": [
        {
          "internalType": "address",
          "name": "",
          "type": "address"
        }
      ],
      "stateMutability": "view",
      "type": "function"
    },
    {
      "inputs": [
        {
          "internalType": "address",
          "name": "token",
          "type": "address"
        },
        {
          "internalType": "address",
          "name": "user",
          "type": "address"
        },
        {
          "internalType": "uint256",
          "name": "amount",
          "type": "uint256"
        }
      ],
      "name": "borrow",
      "outputs": [],
      "stateMutability": "nonpayable",
      "type": "function"
    },
    {
      "inputs": [
        {
          "internalType": "address",
          "name": "user",
          "type": "address"
        }
      ],
      "name": "borrowedTokens",
      "outputs": [
        {
          "internalType": "address[]",
          "name": "",
          "type": "address[]"
        }
      ],
      "stateMutability": "view",
      "type": "function"
    },
    {
      "inputs": [
        {
          "internalType": "address",
          "name": "token",
          "type": "address"
        },
        {
          "internalType": "address",
          "name": "user",
          "type": "address"
        },
        {
          "internalType": "uint256",
          "name": "amount",
          "type": "uint256"
        }
      ],
      "name": "deposit",
      "outputs": [],
      "stateMutability": "nonpayable",
      "type": "function"
    },
    {
      "inputs": [
        {
          "internalType": "address",
          "name": "market",
          "type": "address"
        },
        {
          "internalType": "address",
          "name": "collateral",
          "type": "address"
        },
        {
          "internalType": "uint256",
          "name": "amount",
          "type": "uint256"
        },
        {
          "internalType": "address",
          "name": "receiver",
          "type": "address"
        }
      ],
      "name": "depositCollateral",
      "outputs": [],
      "stateMutability": "nonpayable",
      "type": "function"
    },
    {
      "inputs": [
        {
          "internalType": "address",
          "name": "underlyingToken",
          "type": "address"
        }
      ],
      "name": "getAToken",
      "outputs": [
        {
          "internalType": "address",
          "name": "",
          "type": "address"
        }
      ],
      "stateMutability": "view",
      "type": "function"
    },
    {
      "inputs": [
        {
          "internalType": "address",
          "name": "user",
          "type": "address"
        }
      ],
      "name": "getAllTokensInfo",
      "outputs": [
        {
          "components": [
            {
              "internalType": "address",
              "name": "token",
              "type": "address"
            },
            {
              "internalType": "uint256",
              "name": "supplyRate",
              "type": "uint256"
            },
            {
              "internalType": "uint256",
              "name": "borrowRate",
              "type": "uint256"
            },
            {
              "internalType": "string",
              "name": "name",
              "type": "string"
            },
            {
              "internalType": "string",
              "name": "symbol",
              "type": "string"
            },
            {
              "internalType": "uint256",
              "name": "price",
              "type": "uint256"
            },
            {
              "internalType": "uint256",
              "name": "borrowBalance",
              "type": "uint256"
            },
            {
              "internalType": "uint256",
              "name": "balance",
              "type": "uint256"
            },
            {
              "internalType": "address",
              "name": "aToken",
              "type": "address"
            }
          ],
          "internalType": "struct AaveGateway.TokenInfo[]",
          "name": "",
          "type": "tuple[]"
        }
      ],
      "stateMutability": "view",
      "type": "function"
    },
    {
      "inputs": [
        {
          "internalType": "address",
          "name": "token",
          "type": "address"
        },
        {
          "internalType": "address",
          "name": "user",
          "type": "address"
        }
      ],
      "name": "getBalance",
      "outputs": [
        {
          "internalType": "uint256",
          "name": "",
          "type": "uint256"
        }
      ],
      "stateMutability": "view",
      "type": "function"
    },
    {
      "inputs": [
        {
          "internalType": "address",
          "name": "token",
          "type": "address"
        },
        {
          "internalType": "address",
          "name": "user",
          "type": "address"
        }
      ],
      "name": "getBorrowBalance",
      "outputs": [
        {
          "internalType": "uint256",
          "name": "",
          "type": "uint256"
        }
      ],
      "stateMutability": "view",
      "type": "function"
    },
    {
      "inputs": [
        {
          "internalType": "address",
          "name": "token",
          "type": "address"
        },
        {
          "internalType": "address",
          "name": "user",
          "type": "address"
        }
      ],
      "name": "getBorrowBalanceCurrent",
      "outputs": [
        {
          "internalType": "uint256",
          "name": "",
          "type": "uint256"
        }
      ],
      "stateMutability": "nonpayable",
      "type": "function"
    },
    {
      "inputs": [
        {
          "internalType": "address",
          "name": "token",
          "type": "address"
        }
      ],
      "name": "getBorrowRate",
      "outputs": [
        {
          "internalType": "uint256",
          "name": "",
          "type": "uint256"
        },
        {
          "internalType": "bool",
          "name": "",
          "type": "bool"
        }
      ],
      "stateMutability": "view",
      "type": "function"
    },
    {
      "inputs": [
        {
          "internalType": "address",
          "name": "token",
          "type": "address"
        },
        {
          "components": [
            {
              "internalType": "address",
              "name": "token",
              "type": "address"
            },
            {
              "internalType": "uint256",
              "name": "amount",
              "type": "uint256"
            }
          ],
          "internalType": "struct IGateway.Collateral[]",
          "name": "collaterals",
          "type": "tuple[]"
        }
      ],
      "name": "getEncodedCollateralApprovals",
      "outputs": [
        {
          "internalType": "address[]",
          "name": "target",
          "type": "address[]"
        },
        {
          "internalType": "bytes[]",
          "name": "data",
          "type": "bytes[]"
        }
      ],
      "stateMutability": "view",
      "type": "function"
    },
    {
      "inputs": [
        {
          "internalType": "address",
          "name": "token",
          "type": "address"
        },
        {
          "internalType": "uint256",
          "name": "amount",
          "type": "uint256"
        },
        {
          "internalType": "address",
          "name": "user",
          "type": "address"
        }
      ],
      "name": "getEncodedDebtApproval",
      "outputs": [
        {
          "internalType": "address[]",
          "name": "target",
          "type": "address[]"
        },
        {
          "internalType": "bytes[]",
          "name": "data",
          "type": "bytes[]"
        }
      ],
      "stateMutability": "view",
      "type": "function"
    },
    {
      "inputs": [
        {
          "internalType": "address",
          "name": "token",
          "type": "address"
        },
        {
          "components": [
            {
              "internalType": "address",
              "name": "token",
              "type": "address"
            },
            {
              "internalType": "uint256",
              "name": "amount",
              "type": "uint256"
            }
          ],
          "internalType": "struct IGateway.Collateral[]",
          "name": "collaterals",
          "type": "tuple[]"
        }
      ],
      "name": "getInboundCollateralActions",
      "outputs": [
        {
          "internalType": "address[]",
          "name": "target",
          "type": "address[]"
        },
        {
          "internalType": "bytes[]",
          "name": "data",
          "type": "bytes[]"
        }
      ],
      "stateMutability": "view",
      "type": "function"
    },
    {
      "inputs": [
        {
          "internalType": "address",
          "name": "token",
          "type": "address"
        },
        {
          "internalType": "address",
          "name": "user",
          "type": "address"
        }
      ],
      "name": "getLtv",
      "outputs": [
        {
          "internalType": "uint256",
          "name": "",
          "type": "uint256"
        }
      ],
      "stateMutability": "view",
      "type": "function"
    },
    {
      "inputs": [
        {
          "internalType": "address",
          "name": "token",
          "type": "address"
        },
        {
          "internalType": "address",
          "name": "user",
          "type": "address"
        }
      ],
      "name": "getPossibleCollaterals",
      "outputs": [
        {
          "internalType": "address[]",
          "name": "collateralAddresses",
          "type": "address[]"
        },
        {
          "internalType": "uint256[]",
          "name": "balances",
          "type": "uint256[]"
        },
        {
          "internalType": "string[]",
          "name": "symbols",
          "type": "string[]"
        },
        {
          "internalType": "uint8[]",
          "name": "decimals",
          "type": "uint8[]"
        }
      ],
      "stateMutability": "view",
      "type": "function"
    },
    {
      "inputs": [
        {
          "internalType": "address",
          "name": "token",
          "type": "address"
        }
      ],
      "name": "getSupplyRate",
      "outputs": [
        {
          "internalType": "uint256",
          "name": "",
          "type": "uint256"
        },
        {
          "internalType": "bool",
          "name": "",
          "type": "bool"
        }
      ],
      "stateMutability": "view",
      "type": "function"
    },
    {
      "inputs": [
        {
          "internalType": "address",
          "name": "market",
          "type": "address"
        }
      ],
      "name": "getSupportedCollaterals",
      "outputs": [
        {
          "internalType": "address[]",
          "name": "collateralAddresses",
          "type": "address[]"
        }
      ],
      "stateMutability": "view",
      "type": "function"
    },
    {
      "inputs": [
        {
          "internalType": "address",
          "name": "aToken",
          "type": "address"
        }
      ],
      "name": "getUnderlyingToken",
      "outputs": [
        {
          "internalType": "address",
          "name": "",
          "type": "address"
        }
      ],
      "stateMutability": "view",
      "type": "function"
    },
    {
      "inputs": [
        {
          "internalType": "address",
          "name": "market",
          "type": "address"
        },
        {
          "internalType": "address",
          "name": "collateral",
          "type": "address"
        }
      ],
      "name": "isCollateralSupported",
      "outputs": [
        {
          "internalType": "bool",
          "name": "isSupported",
          "type": "bool"
        }
      ],
      "stateMutability": "view",
      "type": "function"
    },
    {
      "inputs": [],
      "name": "poolAddressesProvider",
      "outputs": [
        {
          "internalType": "contract IPoolAddressesProvider",
          "name": "",
          "type": "address"
        }
      ],
      "stateMutability": "view",
      "type": "function"
    },
    {
      "inputs": [
        {
          "internalType": "address",
          "name": "token",
          "type": "address"
        },
        {
          "internalType": "address",
          "name": "user",
          "type": "address"
        },
        {
          "internalType": "uint256",
          "name": "amount",
          "type": "uint256"
        }
      ],
      "name": "repay",
      "outputs": [],
      "stateMutability": "nonpayable",
      "type": "function"
    },
    {
      "inputs": [],
      "name": "uiPoolDataProvider",
      "outputs": [
        {
          "internalType": "contract IUiPoolDataProviderV3",
          "name": "",
          "type": "address"
        }
      ],
      "stateMutability": "view",
      "type": "function"
    },
    {
      "inputs": [
        {
          "internalType": "address",
          "name": "",
          "type": "address"
        },
        {
          "internalType": "address",
          "name": "token",
          "type": "address"
        },
        {
          "internalType": "address",
          "name": "user",
          "type": "address"
        },
        {
          "internalType": "uint256",
          "name": "amount",
          "type": "uint256"
        }
      ],
      "name": "withdrawCollateral",
      "outputs": [
        {
          "internalType": "address",
          "name": "",
          "type": "address"
        },
        {
          "internalType": "uint256",
          "name": "",
          "type": "uint256"
        }
      ],
      "stateMutability": "nonpayable",
      "type": "function"
    }
  ],
  "transactionHash": "0xd997869ca5e6d83b87d21461909bca34c7a14e12f5f6480cf3c46c2e3d751062",
  "args": [
    "0xAB25FDc3A23514A5651F7b616500049E181F9523",
    "0xa97684ead0e402dC232d5A977953DF7ECBaB3CDb",
    "0x5c5228aC8BC1528482514aF3e27E692495148717",
    "0"
  ],
  "numDeployments": 3,
  "solcInputHash": "3249a21bd3c5a45d3d1e2d0dfcbe36e8",
  "bytecode": "0x6101006040523480156200001257600080fd5b506040516200408b3803806200408b8339810160408190526200003591620000da565b836001600160a01b038116620000915760405162461bcd60e51b815260206004820152601d60248201527f526f7574657220616464726573732063616e6e6f74206265207a65726f000000604482015260640160405180910390fd5b6001600160a01b03908116608052600160005592831660a052911660c05261ffff1660e052506200013f565b80516001600160a01b0381168114620000d557600080fd5b919050565b60008060008060808587031215620000f157600080fd5b620000fc85620000bd565b93506200010c60208601620000bd565b92506200011c60408601620000bd565b9150606085015161ffff811681146200013457600080fd5b939692955090935050565b60805160a05160c05160e051613e39620002526000396000818161021e0152818161179001526123080152600081816103cf015281816104a801528181610c7a01528181610f980152818161105501528181611c6001528181611f50015281816120a10152818161256e015281816128040152818161293b0152612a940152600081816103820152818161047d01528181610c4701528181610d8601528181610f6a0152818161101f0152818161158001528181611afc01528181611c3201528181611e0f01528181611f2101528181612074015281816121a601528181612538015281816127d10152818161290c0152612a650152600081816101df015281816114f4015261182c0152613e396000f3fe608060405234801561001057600080fd5b50600436106101735760003560e01c8063691bcc88116100de578063a342986c11610097578063d4fac45d11610071578063d4fac45d14610404578063d71275f614610417578063e94201c71461042a578063f5125d3f1461043d57600080fd5b8063a342986c146103b7578063c3a3a9a7146103ca578063ceac55df146103f157600080fd5b8063691bcc881461031f5780636b5441a914610332578063732a52ee1461031f578063784661131461035a57806380e17d871461037d5780638340f549146103a457600080fd5b80634108d0af116101305780634108d0af146102735780635054a1ae14610286578063508a07f1146102a75780635224372c146102ba5780635820ba63146102cd57806366e2d09b146102ff57600080fd5b8063104e999d14610178578063118e31b7146101a45780631da649cf146101c557806332fe7b26146101da5780633583849a14610219578063401d45d014610253575b600080fd5b61018b610186366004613012565b610453565b60405161019b9493929190613112565b60405180910390f35b6101b76101b2366004613012565b610b92565b60405190815260200161019b565b6101d86101d33660046131d0565b610d7a565b005b6102017f000000000000000000000000000000000000000000000000000000000000000081565b6040516001600160a01b03909116815260200161019b565b6102407f000000000000000000000000000000000000000000000000000000000000000081565b60405161ffff909116815260200161019b565b610266610261366004613211565b610f53565b60405161019b919061322e565b6101d861028136600461331c565b611341565b61029961029436600461336f565b611352565b60405161019b9291906133f6565b6102996102b5366004613468565b611395565b6101d86102c83660046131d0565b6114e8565b6102e06102db3660046134aa565b61181e565b604080516001600160a01b03909316835260208301919091520161019b565b61031261030d366004613211565b611c1b565b60405161019b91906134fb565b61020161032d366004613211565b611e0a565b610345610340366004613211565b611f0a565b6040805192835290151560208301520161019b565b61036d610368366004613012565b61205d565b604051901515815260200161019b565b6102017f000000000000000000000000000000000000000000000000000000000000000081565b6101d86103b23660046131d0565b61219a565b6102996103c536600461336f565b612376565b6102017f000000000000000000000000000000000000000000000000000000000000000081565b6103126103ff366004613211565b612521565b6101b7610412366004613012565b61271c565b610345610425366004613211565b6128f5565b6101b7610438366004613012565b612a3b565b6101b761044b366004613012565b600092915050565b60608080806001600160a01b0385166107ba5760405163ec489c2160e01b81526001600160a01b037f0000000000000000000000000000000000000000000000000000000000000000811660048301526000917f00000000000000000000000000000000000000000000000000000000000000009091169063ec489c2190602401600060405180830381865afa1580156104f1573d6000803e3d6000fd5b505050506040513d6000823e601f3d908101601f1916820160405261051991908101906136f8565b508051909150806001600160401b038111156105375761053761350e565b604051908082528060200260200182016040528015610560578160200160208202803683370190505b509550806001600160401b0381111561057b5761057b61350e565b6040519080825280602002602001820160405280156105a4578160200160208202803683370190505b509450806001600160401b038111156105bf576105bf61350e565b6040519080825280602002602001820160405280156105f257816020015b60608152602001906001900390816105dd5790505b509350806001600160401b0381111561060d5761060d61350e565b604051908082528060200260200182016040528015610636578160200160208202803683370190505b50925060005b818110156107b25782818151811061065657610656613a8d565b60200260200101516000015187828151811061067457610674613a8d565b60200260200101906001600160a01b031690816001600160a01b0316815250508281815181106106a6576106a6613a8d565b6020026020010151604001518582815181106106c4576106c4613a8d565b60200260200101819052508281815181106106e1576106e1613a8d565b6020026020010151600001516001600160a01b031663313ce5676040518163ffffffff1660e01b8152600401602060405180830381865afa925050508015610746575060408051601f3d908101601f1916820190925261074391810190613aa3565b60015b61077757601284828151811061075e5761075e613a8d565b602002602001019060ff16908160ff16815250506107a0565b8085838151811061078a5761078a613a8d565b602002602001019060ff16908160ff1681525050505b806107aa81613abe565b91505061063c565b505050610b89565b604051630401d45d60e41b81526001600160a01b0386166004820152600090309063401d45d090602401600060405180830381865afa158015610801573d6000803e3d6000fd5b505050506040513d6000823e601f3d908101601f191682016040526108299190810190613ae5565b90506000805b825181101561087e57600083828151811061084c5761084c613a8d565b602002602001015160e00151111561086c578161086881613abe565b9250505b8061087681613abe565b91505061082f565b50806001600160401b038111156108975761089761350e565b6040519080825280602002602001820160405280156108c0578160200160208202803683370190505b509550806001600160401b038111156108db576108db61350e565b604051908082528060200260200182016040528015610904578160200160208202803683370190505b509450806001600160401b0381111561091f5761091f61350e565b60405190808252806020026020018201604052801561095257816020015b606081526020019060019003908161093d5790505b509350806001600160401b0381111561096d5761096d61350e565b604051908082528060200260200182016040528015610996578160200160208202803683370190505b5092506000805b8351811015610b845760008482815181106109ba576109ba613a8d565b602002602001015160e001511115610b72578381815181106109de576109de613a8d565b6020026020010151600001518883815181106109fc576109fc613a8d565b60200260200101906001600160a01b031690816001600160a01b031681525050838181518110610a2e57610a2e613a8d565b602002602001015160e00151878381518110610a4c57610a4c613a8d565b602002602001018181525050838181518110610a6a57610a6a613a8d565b602002602001015160800151868381518110610a8857610a88613a8d565b6020026020010181905250838181518110610aa557610aa5613a8d565b6020026020010151600001516001600160a01b031663313ce5676040518163ffffffff1660e01b8152600401602060405180830381865afa925050508015610b0a575060408051601f3d908101601f19168201909252610b0791810190613aa3565b60015b610b3b576012858381518110610b2257610b22613a8d565b602002602001019060ff16908160ff1681525050610b64565b80868481518110610b4e57610b4e613a8d565b602002602001019060ff16908160ff1681525050505b81610b6e81613abe565b9250505b80610b7c81613abe565b91505061099d565b505050505b92959194509250565b6000806000610ba085612a4e565b9250925050808015610bba57506001600160a01b03821615155b15610c30576040516370a0823160e01b81526001600160a01b0385811660048301528316906370a0823190602401602060405180830381865afa925050508015610c21575060408051601f3d908101601f19168201909252610c1e91810190613c48565b60015b15610c30579250610d74915050565b6040516301465d3360e61b81526001600160a01b037f00000000000000000000000000000000000000000000000000000000000000008116600483015285811660248301526000917f0000000000000000000000000000000000000000000000000000000000000000909116906351974cc090604401600060405180830381865afa158015610cc3573d6000803e3d6000fd5b505050506040513d6000823e601f3d908101601f19168201604052610ceb9190810190613c61565b50905060005b8151811015610d6b57866001600160a01b0316828281518110610d1657610d16613a8d565b6020026020010151600001516001600160a01b031603610d5957818181518110610d4257610d42613a8d565b602002602001015160600151945050505050610d74565b80610d6381613abe565b915050610cf1565b50600093505050505b92915050565b610d82612bba565b60007f00000000000000000000000000000000000000000000000000000000000000006001600160a01b031663026b1d5f6040518163ffffffff1660e01b8152600401602060405180830381865afa158015610de2573d6000803e3d6000fd5b505050506040513d601f19601f82011682018060405250810190610e069190613d3f565b90506001600160a01b038116610e375760405162461bcd60e51b8152600401610e2e90613d5c565b60405180910390fd5b610e4c6001600160a01b038516333085612be4565b60405163095ea7b360e01b81526001600160a01b0382811660048301526024820184905285169063095ea7b3906044016020604051808303816000875af1158015610e9b573d6000803e3d6000fd5b505050506040513d601f19601f82011682018060405250810190610ebf9190613d8a565b5060405163573ade8160e01b81526001600160a01b0385811660048301526024820184905260026044830152848116606483015282169063573ade81906084016020604051808303816000875af1158015610f1e573d6000803e3d6000fd5b505050506040513d601f19601f82011682018060405250810190610f429190613c48565b5050610f4e6001600055565b505050565b60405163ec489c2160e01b81526001600160a01b037f0000000000000000000000000000000000000000000000000000000000000000811660048301526060916000917f0000000000000000000000000000000000000000000000000000000000000000169063ec489c2190602401600060405180830381865afa158015610fdf573d6000803e3d6000fd5b505050506040513d6000823e601f3d908101601f1916820160405261100791908101906136f8565b506040516301465d3360e61b81526001600160a01b037f00000000000000000000000000000000000000000000000000000000000000008116600483015285811660248301529192506000917f000000000000000000000000000000000000000000000000000000000000000016906351974cc090604401600060405180830381865afa15801561109c573d6000803e3d6000fd5b505050506040513d6000823e601f3d908101601f191682016040526110c49190810190613c61565b509050600082516001600160401b038111156110e2576110e261350e565b60405190808252806020026020018201604052801561117457816020015b61116160405180610120016040528060006001600160a01b031681526020016000815260200160008152602001606081526020016060815260200160008152602001600081526020016000815260200160006001600160a01b031681525090565b8152602001906001900390816111005790505b50905060005b83518110156113385760006111a985838151811061119a5761119a613a8d565b60200260200101518886612c4b565b905060006111d18684815181106111c2576111c2613a8d565b60200260200101518987612d55565b90506040518061012001604052808785815181106111f1576111f1613a8d565b6020026020010151600001516001600160a01b0316815260200187858151811061121d5761121d613a8d565b60200260200101516101c001516001600160801b0316815260200187858151811061124a5761124a613a8d565b60200260200101516101e001516001600160801b0316815260200187858151811061127757611277613a8d565b602002602001015160200151815260200187858151811061129a5761129a613a8d565b60200260200101516040015181526020018785815181106112bd576112bd613a8d565b60200260200101516102c0015181526020018281526020018381526020018785815181106112ed576112ed613a8d565b602002602001015161022001516001600160a01b031681525084848151811061131857611318613a8d565b60200260200101819052505050808061133090613abe565b91505061117a565b50949350505050565b61134c83828461219a565b50505050565b60408051600080825260208201818152828401909352606092839291611388565b60608152602001906001900390816113735790505b5091509150935093915050565b6060806000806113a487612a4e565b92509250508080156113be57506001600160a01b03821615155b61140a5760405162461bcd60e51b815260206004820152601f60248201527f546f6b656e206973206e6f7420612076616c6964206465627420746f6b656e006044820152606401610e2e565b604080516001808252818301909252906020808301908036833701905050604080516001808252818301909252919550816020015b606081526020019060019003908161143f579050509250818460008151811061146a5761146a613a8d565b6001600160a01b0390921660209283029190910190910152604051306024820152600019604482015260640160408051601f198184030181529190526020810180516001600160e01b0316630c04a8a160e41b179052835184906000906114d3576114d3613a8d565b60200260200101819052505050935093915050565b81336001600160a01b037f00000000000000000000000000000000000000000000000000000000000000001614806115285750336001600160a01b038216145b6115745760405162461bcd60e51b815260206004820152601c60248201527f4f6e6c7920726f75746572206f722073656c662063616e2063616c6c000000006044820152606401610e2e565b61157c612bba565b60007f00000000000000000000000000000000000000000000000000000000000000006001600160a01b031663026b1d5f6040518163ffffffff1660e01b8152600401602060405180830381865afa1580156115dc573d6000803e3d6000fd5b505050506040513d601f19601f820116820180604052508101906116009190613d3f565b90506001600160a01b0381166116285760405162461bcd60e51b8152600401610e2e90613d5c565b60008061163487612a4e565b925092505080801561164e57506001600160a01b03821615155b61169a5760405162461bcd60e51b815260206004820152601f60248201527f546f6b656e206973206e6f7420612076616c6964206465627420746f6b656e006044820152606401610e2e565b604051631af5db4960e21b81526001600160a01b03878116600483015230602483015260009190841690636bd76d2490604401602060405180830381865afa1580156116ea573d6000803e3d6000fd5b505050506040513d601f19601f8201168201806040525081019061170e9190613c48565b9050858110156117605760405162461bcd60e51b815260206004820152601d60248201527f496e73756666696369656e7420626f72726f7720616c6c6f77616e63650000006044820152606401610e2e565b60405163a415bcad60e01b81526001600160a01b038981166004830152602482018890526002604483015261ffff7f0000000000000000000000000000000000000000000000000000000000000000166064830152888116608483015285169063a415bcad9060a401600060405180830381600087803b1580156117e357600080fd5b505af11580156117f7573d6000803e3d6000fd5b50611810925050506001600160a01b0389163388612e5f565b5050505061134c6001600055565b600080336001600160a01b037f000000000000000000000000000000000000000000000000000000000000000016146118905760405162461bcd60e51b815260206004820152601460248201527313db9b1e481c9bdd5d195c8818d85b8818d85b1b60621b6044820152606401610e2e565b600061189b86611e0a565b6040516370a0823160e01b81526001600160a01b03878116600483015291925082918691908316906370a0823190602401602060405180830381865afa1580156118e9573d6000803e3d6000fd5b505050506040513d601f19601f8201168201806040525081019061190d9190613c48565b101561195b5760405162461bcd60e51b815260206004820152601f60248201527f496e73756666696369656e742062616c616e6365206f662061746f6b656e73006044820152606401610e2e565b604051636eb1769f60e11b81526001600160a01b0387811660048301523060248301526000919083169063dd62ed3e90604401602060405180830381865afa1580156119ab573d6000803e3d6000fd5b505050506040513d601f19601f820116820180604052508101906119cf9190613c48565b905085811015611a1a5760405162461bcd60e51b8152602060048201526016602482015275496e73756666696369656e7420616c6c6f77616e636560501b6044820152606401610e2e565b6040516323b872dd60e01b81526001600160a01b038881166004830152306024830152604482018890528316906323b872dd906064016020604051808303816000875af1158015611a6f573d6000803e3d6000fd5b505050506040513d601f19601f82011682018060405250810190611a939190613d8a565b506000836001600160a01b031663b16a19de6040518163ffffffff1660e01b8152600401602060405180830381865afa158015611ad4573d6000803e3d6000fd5b505050506040513d601f19601f82011682018060405250810190611af89190613d3f565b90507f00000000000000000000000000000000000000000000000000000000000000006001600160a01b031663026b1d5f6040518163ffffffff1660e01b8152600401602060405180830381865afa158015611b58573d6000803e3d6000fd5b505050506040513d601f19601f82011682018060405250810190611b7c9190613d3f565b604051631a4ca37b60e21b81526001600160a01b038381166004830152602482018a905230604483015291909116906369328dec906064016020604051808303816000875af1158015611bd3573d6000803e3d6000fd5b505050506040513d601f19601f82011682018060405250810190611bf79190613c48565b50611c0c6001600160a01b0382163389612e5f565b99959850949650505050505050565b60405163ec489c2160e01b81526001600160a01b037f0000000000000000000000000000000000000000000000000000000000000000811660048301526060916000917f0000000000000000000000000000000000000000000000000000000000000000169063ec489c2190602401600060405180830381865afa158015611ca7573d6000803e3d6000fd5b505050506040513d6000823e601f3d908101601f19168201604052611ccf91908101906136f8565b5090506000805b8251811015611d2357828181518110611cf157611cf1613a8d565b6020026020010151610100015115611d115781611d0d81613abe565b9250505b80611d1b81613abe565b915050611cd6565b50806001600160401b03811115611d3c57611d3c61350e565b604051908082528060200260200182016040528015611d65578160200160208202803683370190505b5092506000805b8351811015611e0157838181518110611d8757611d87613a8d565b6020026020010151610100015115611def57838181518110611dab57611dab613a8d565b602002602001015160000151858381518110611dc957611dc9613a8d565b6001600160a01b039092166020928302919091019091015281611deb81613abe565b9250505b80611df981613abe565b915050611d6c565b50505050919050565b6000807f00000000000000000000000000000000000000000000000000000000000000006001600160a01b031663e860accb6040518163ffffffff1660e01b8152600401602060405180830381865afa158015611e6b573d6000803e3d6000fd5b505050506040513d601f19601f82011682018060405250810190611e8f9190613d3f565b6040516334924edb60e21b81526001600160a01b03858116600483015291925060009183169063d2493b6c90602401606060405180830381865afa158015611edb573d6000803e3d6000fd5b505050506040513d601f19601f82011682018060405250810190611eff9190613da5565b509095945050505050565b60405163ec489c2160e01b81526001600160a01b037f000000000000000000000000000000000000000000000000000000000000000081166004830152600091829182917f00000000000000000000000000000000000000000000000000000000000000009091169063ec489c2190602401600060405180830381865afa158015611f99573d6000803e3d6000fd5b505050506040513d6000823e601f3d908101601f19168201604052611fc191908101906136f8565b50905060005b815181101561205057846001600160a01b0316828281518110611fec57611fec613a8d565b6020026020010151600001516001600160a01b03160361203e5781818151811061201857612018613a8d565b60200260200101516101c001516001816001600160801b03169150935093505050915091565b8061204881613abe565b915050611fc7565b5060009485945092505050565b60405163ec489c2160e01b81526001600160a01b037f00000000000000000000000000000000000000000000000000000000000000008116600483015260009182917f0000000000000000000000000000000000000000000000000000000000000000169063ec489c2190602401600060405180830381865afa1580156120e8573d6000803e3d6000fd5b505050506040513d6000823e601f3d908101601f1916820160405261211091908101906136f8565b50905060005b815181101561218f57836001600160a01b031682828151811061213b5761213b613a8d565b6020026020010151600001516001600160a01b03160361217d5781818151811061216757612167613a8d565b6020026020010151610100015192505050610d74565b8061218781613abe565b915050612116565b506000949350505050565b6121a2612bba565b60007f00000000000000000000000000000000000000000000000000000000000000006001600160a01b031663026b1d5f6040518163ffffffff1660e01b8152600401602060405180830381865afa158015612202573d6000803e3d6000fd5b505050506040513d601f19601f820116820180604052508101906122269190613d3f565b90506001600160a01b03811661224e5760405162461bcd60e51b8152600401610e2e90613d5c565b6122636001600160a01b038516333085612be4565b60405163095ea7b360e01b81526001600160a01b0382811660048301526024820184905285169063095ea7b3906044016020604051808303816000875af11580156122b2573d6000803e3d6000fd5b505050506040513d601f19601f820116820180604052508101906122d69190613d8a565b5060405163617ba03760e01b81526001600160a01b03858116600483015260248201849052848116604483015261ffff7f000000000000000000000000000000000000000000000000000000000000000016606483015282169063617ba03790608401600060405180830381600087803b15801561235357600080fd5b505af1158015612367573d6000803e3d6000fd5b5050505050610f4e6001600055565b606080826001600160401b038111156123915761239161350e565b6040519080825280602002602001820160405280156123ba578160200160208202803683370190505b509150826001600160401b038111156123d5576123d561350e565b60405190808252806020026020018201604052801561240857816020015b60608152602001906001900390816123f35790505b50905060005b838110156125185761244185858381811061242b5761242b613a8d565b61032d9260206040909202019081019150613211565b83828151811061245357612453613a8d565b6001600160a01b039092166020928302919091019091015263095ea7b360e01b3086868481811061248657612486613a8d565b905060400201602001356040516024016124b59291906001600160a01b03929092168252602082015260400190565b604051602081830303815290604052906001600160e01b0319166020820180516001600160e01b0383818316178352505050508282815181106124fa576124fa613a8d565b6020026020010181905250808061251090613abe565b91505061240e565b50935093915050565b6040516301465d3360e61b81526001600160a01b037f00000000000000000000000000000000000000000000000000000000000000008116600483015282811660248301526060916000917f000000000000000000000000000000000000000000000000000000000000000016906351974cc090604401600060405180830381865afa1580156125b5573d6000803e3d6000fd5b505050506040513d6000823e601f3d908101601f191682016040526125dd9190810190613c61565b5090506000805b825181101561263357600083828151811061260157612601613a8d565b6020026020010151606001511115612621578161261d81613abe565b9250505b8061262b81613abe565b9150506125e4565b506000816001600160401b0381111561264e5761264e61350e565b604051908082528060200260200182016040528015612677578160200160208202803683370190505b5090506000805b8451811015611eff57600085828151811061269b5761269b613a8d565b602002602001015160600151111561270a578481815181106126bf576126bf613a8d565b6020026020010151600001518383806126d790613abe565b9450815181106126e9576126e9613a8d565b60200260200101906001600160a01b031690816001600160a01b0316815250505b8061271481613abe565b91505061267e565b600080600061272a85612a4e565b925050915080801561274457506001600160a01b03821615155b156127ba576040516370a0823160e01b81526001600160a01b0385811660048301528316906370a0823190602401602060405180830381865afa9250505080156127ab575060408051601f3d908101601f191682019092526127a891810190613c48565b60015b156127ba579250610d74915050565b6040516301465d3360e61b81526001600160a01b037f00000000000000000000000000000000000000000000000000000000000000008116600483015285811660248301526000917f0000000000000000000000000000000000000000000000000000000000000000909116906351974cc090604401600060405180830381865afa15801561284d573d6000803e3d6000fd5b505050506040513d6000823e601f3d908101601f191682016040526128759190810190613c61565b50905060005b8151811015610d6b57866001600160a01b03168282815181106128a0576128a0613a8d565b6020026020010151600001516001600160a01b0316036128e3578181815181106128cc576128cc613a8d565b602002602001015160200151945050505050610d74565b806128ed81613abe565b91505061287b565b60405163ec489c2160e01b81526001600160a01b037f000000000000000000000000000000000000000000000000000000000000000081166004830152600091829182917f00000000000000000000000000000000000000000000000000000000000000009091169063ec489c2190602401600060405180830381865afa158015612984573d6000803e3d6000fd5b505050506040513d6000823e601f3d908101601f191682016040526129ac91908101906136f8565b50905060005b815181101561205057846001600160a01b03168282815181106129d7576129d7613a8d565b6020026020010151600001516001600160a01b031603612a2957818181518110612a0357612a03613a8d565b60200260200101516101e001516001816001600160801b03169150935093505050915091565b80612a3381613abe565b9150506129b2565b6000612a478383610b92565b9392505050565b60405163ec489c2160e01b81526001600160a01b037f000000000000000000000000000000000000000000000000000000000000000081166004830152600091829182917f00000000000000000000000000000000000000000000000000000000000000009091169063ec489c2190602401600060405180830381865afa925050508015612afe57506040513d6000823e601f3d908101601f19168201604052612afb91908101906136f8565b60015b15612ba95760005b8251811015612ba557866001600160a01b0316838281518110612b2b57612b2b613a8d565b6020026020010151600001516001600160a01b031603612b9357828181518110612b5757612b57613a8d565b60200260200101516102200151838281518110612b7657612b76613a8d565b602002602001015161024001516001955095509550505050612bb3565b80612b9d81613abe565b915050612b06565b5050505b5060009150819050805b9193909250565b600260005403612bdd57604051633ee5aeb560e01b815260040160405180910390fd5b6002600055565b6040516001600160a01b03848116602483015283811660448301526064820183905261134c9186918216906323b872dd906084015b604051602081830303815290604052915060e01b6020820180516001600160e01b038381831617835250505050612e90565b6102208301516000906001600160a01b031615612cd7576102208401516040516370a0823160e01b81526001600160a01b038581166004830152909116906370a0823190602401602060405180830381865afa925050508015612ccb575060408051601f3d908101601f19168201909252612cc891810190613c48565b60015b15612cd7579050612a47565b60005b825181101561218f5784600001516001600160a01b0316838281518110612d0357612d03613a8d565b6020026020010151600001516001600160a01b031603612d4357828181518110612d2f57612d2f613a8d565b602002602001015160200151915050612a47565b80612d4d81613abe565b915050612cda565b6102408301516000906001600160a01b031615612de1576102408401516040516370a0823160e01b81526001600160a01b038581166004830152909116906370a0823190602401602060405180830381865afa925050508015612dd5575060408051601f3d908101601f19168201909252612dd291810190613c48565b60015b15612de1579050612a47565b60005b825181101561218f5784600001516001600160a01b0316838281518110612e0d57612e0d613a8d565b6020026020010151600001516001600160a01b031603612e4d57828181518110612e3957612e39613a8d565b602002602001015160600151915050612a47565b80612e5781613abe565b915050612de4565b6040516001600160a01b03838116602483015260448201839052610f4e91859182169063a9059cbb90606401612c19565b6000612ea56001600160a01b03841683612ef3565b90508051600014158015612eca575080806020019051810190612ec89190613d8a565b155b15610f4e57604051635274afe760e01b81526001600160a01b0384166004820152602401610e2e565b6060612a478383600084600080856001600160a01b03168486604051612f199190613de7565b60006040518083038185875af1925050503d8060008114612f56576040519150601f19603f3d011682016040523d82523d6000602084013e612f5b565b606091505b5091509150612f6b868383612f75565b9695505050505050565b606082612f8a57612f8582612fd1565b612a47565b8151158015612fa157506001600160a01b0384163b155b15612fca57604051639996b31560e01b81526001600160a01b0385166004820152602401610e2e565b5080612a47565b805115612fe15780518082602001fd5b604051630a12f52160e11b815260040160405180910390fd5b50565b6001600160a01b0381168114612ffa57600080fd5b6000806040838503121561302557600080fd5b823561303081612ffd565b9150602083013561304081612ffd565b809150509250929050565b600081518084526020808501945080840160005b838110156130845781516001600160a01b03168752958201959082019060010161305f565b509495945050505050565b60005b838110156130aa578181015183820152602001613092565b50506000910152565b600081518084526130cb81602086016020860161308f565b601f01601f19169290920160200192915050565b600081518084526020808501945080840160005b8381101561308457815160ff16875295820195908201906001016130f3565b608081526000613125608083018761304b565b82810360208481019190915286518083528782019282019060005b8181101561315c57845183529383019391830191600101613140565b5050848103604086015286518082528282019350600581901b8201830183890160005b838110156131ad57601f1985840301875261319b8383516130b3565b9686019692509085019060010161317f565b505086810360608801526131c181896130df565b9b9a5050505050505050505050565b6000806000606084860312156131e557600080fd5b83356131f081612ffd565b9250602084013561320081612ffd565b929592945050506040919091013590565b60006020828403121561322357600080fd5b8135612a4781612ffd565b60006020808301818452808551808352604092508286019150828160051b87010184880160005b8381101561330e57888303603f19018552815180516001600160a01b0316845261012088820151898601528782015188860152606080830151828288015261329f838801826130b3565b92505050608080830151868303828801526132ba83826130b3565b60a0858101519089015260c0808601519089015260e08086015190890152610100948501516001600160a01b038116868a01529490935091506132fa9050565b509588019593505090860190600101613255565b509098975050505050505050565b6000806000806080858703121561333257600080fd5b843561333d81612ffd565b9350602085013561334d81612ffd565b925060408501359150606085013561336481612ffd565b939692955090935050565b60008060006040848603121561338457600080fd5b833561338f81612ffd565b925060208401356001600160401b03808211156133ab57600080fd5b818601915086601f8301126133bf57600080fd5b8135818111156133ce57600080fd5b8760208260061b85010111156133e357600080fd5b6020830194508093505050509250925092565b604081526000613409604083018561304b565b6020838203818501528185518084528284019150828160051b85010183880160005b8381101561345957601f198784030185526134478383516130b3565b9486019492509085019060010161342b565b50909998505050505050505050565b60008060006060848603121561347d57600080fd5b833561348881612ffd565b925060208401359150604084013561349f81612ffd565b809150509250925092565b600080600080608085870312156134c057600080fd5b84356134cb81612ffd565b935060208501356134db81612ffd565b925060408501356134eb81612ffd565b9396929550929360600135925050565b602081526000612a47602083018461304b565b634e487b7160e01b600052604160045260246000fd5b604051608081016001600160401b03811182821017156135465761354661350e565b60405290565b60405161052081016001600160401b03811182821017156135465761354661350e565b60405161012081016001600160401b03811182821017156135465761354661350e565b604051601f8201601f191681016001600160401b03811182821017156135ba576135ba61350e565b604052919050565b60006001600160401b038211156135db576135db61350e565b5060051b60200190565b80516135f081612ffd565b919050565b600082601f83011261360657600080fd5b81516001600160401b0381111561361f5761361f61350e565b613632601f8201601f1916602001613592565b81815284602083860101111561364757600080fd5b61365882602083016020870161308f565b949350505050565b805180151581146135f057600080fd5b80516001600160801b03811681146135f057600080fd5b805164ffffffffff811681146135f057600080fd5b805160ff811681146135f057600080fd5b6000608082840312156136bf57600080fd5b6136c7613524565b90508151815260208201516020820152604082015160408201526136ed6060830161369c565b606082015292915050565b60008060a0838503121561370b57600080fd5b82516001600160401b038082111561372257600080fd5b818501915085601f83011261373657600080fd5b8151602061374b613746836135c2565b613592565b82815260059290921b8401810191818101908984111561376a57600080fd5b8286015b84811015613a6f5780518681111561378557600080fd5b8701610520818d03601f190181131561379d57600080fd5b6137a561354c565b6137b08784016135e5565b81526040830151898111156137c457600080fd5b6137d28f89838701016135f5565b88830152506060830151898111156137ea5760008081fd5b6137f88f89838701016135f5565b604083015250608080840151606083015260a0840151818301525060c08084015160a083015260e080850151828401526101009150818501518184015250610120613844818601613660565b828401526101409150613858828601613660565b9083015261016061386a858201613660565b82840152610180915061387e828601613660565b908301526101a0613890858201613670565b828401526101c091506138a4828601613670565b908301526101e06138b6858201613670565b8284015261020091506138ca828601613670565b908301526102206138dc858201613687565b8284015261024091506138f08286016135e5565b908301526102606139028582016135e5565b8284015261028091506139168286016135e5565b81840152506102a080850151828401526102c091508185015181840152506102e08085015182840152610300915061394f8286016135e5565b818401525061032080850151828401526103409150818501518184015250610360808501518284015261038091508185015181840152506103a0613994818601613660565b828401526103c091506139a8828601613660565b908301526103e06139ba858201613670565b8284015261040091506139ce828601613670565b908301526104206139e0858201613670565b8284015261044091506139f4828601613660565b8184015250610460808501518284015261048091508185015181840152506104a080850151828401526104c091508185015181840152506104e0613a39818601613660565b828401526105009150613a4d828601613660565b90830152613a5c848401613670565b908201528552505091830191830161376e565b509650613a809050888883016136ad565b9450505050509250929050565b634e487b7160e01b600052603260045260246000fd5b600060208284031215613ab557600080fd5b612a478261369c565b600060018201613ade57634e487b7160e01b600052601160045260246000fd5b5060010190565b60006020808385031215613af857600080fd5b82516001600160401b0380821115613b0f57600080fd5b818501915085601f830112613b2357600080fd5b8151613b31613746826135c2565b81815260059190911b83018401908481019088831115613b5057600080fd5b8585015b83811015613c3b57805185811115613b6b57600080fd5b8601610120818c03601f1901811315613b8357600080fd5b613b8b61356f565b613b968a84016135e5565b815260408301518a82015260608301516040820152608083015188811115613bbe5760008081fd5b613bcc8e8c838701016135f5565b60608301525060a08084015189811115613be65760008081fd5b613bf48f8d838801016135f5565b60808401525060c0808501518284015260e091508185015181840152506101008085015182840152613c278486016135e5565b908301525085525050918601918601613b54565b5098975050505050505050565b600060208284031215613c5a57600080fd5b5051919050565b6000806040808486031215613c7557600080fd5b83516001600160401b03811115613c8b57600080fd5b8401601f81018613613c9c57600080fd5b80516020613cac613746836135c2565b82815260079290921b83018101918181019089841115613ccb57600080fd5b938201935b83851015613d30576080858b031215613ce95760008081fd5b613cf1613524565b8551613cfc81612ffd565b81528584015184820152613d11878701613660565b8188015260608681015190820152825260809094019390820190613cd0565b9650613a80905087820161369c565b600060208284031215613d5157600080fd5b8151612a4781612ffd565b602080825260149082015273141bdbdb081859191c995cdcc81b9bdd081cd95d60621b604082015260600190565b600060208284031215613d9c57600080fd5b612a4782613660565b600080600060608486031215613dba57600080fd5b8351613dc581612ffd565b6020850151909350613dd681612ffd565b604085015190925061349f81612ffd565b60008251613df981846020870161308f565b919091019291505056fea2646970667358221220746c47f01e3d903b96cca422e9727670687d5218d0f011a1c77247df8532aa6164736f6c63430008140033",
  "devdoc": {
    "errors": {
      "AddressEmptyCode(address)": [
        {
          "details": "There's no code at `target` (it is not a contract)."
        }
      ],
      "AddressInsufficientBalance(address)": [
        {
          "details": "The ETH balance of the account is not enough to perform the operation."
        }
      ],
      "FailedInnerCall()": [
        {
          "details": "A call to an address target failed. The target may have reverted."
        }
      ],
      "ReentrancyGuardReentrantCall()": [
        {
          "details": "Unauthorized reentrant call."
        }
      ],
      "SafeERC20FailedOperation(address)": [
        {
          "details": "An operation with an ERC20 token failed."
        }
      ]
    },
    "kind": "dev",
    "methods": {
      "borrow(address,address,uint256)": {
        "details": "Can be called by Router or directly by the user",
        "params": {
          "amount": "The amount to borrow",
          "token": "The token to borrow",
          "user": "The user to borrow for"
        }
      },
      "getAllTokensInfo(address)": {
        "details": "This function caches the reserves and user reserves data to avoid multiple heavy calls."
      },
      "getBalance(address,address)": {
        "details": "First attempts to call balanceOf on the associated aToken; if that fails, falls back to user reserves data."
      },
      "getBorrowBalance(address,address)": {
        "details": "First attempts to call balanceOf on the associated variable debt token; if that fails, falls back to user reserves data."
      },
      "getInboundCollateralActions(address,(address,uint256)[])": {
        "params": {
          "collaterals": "The collaterals to use",
          "token": "The token to borrow"
        },
        "returns": {
          "data": "Array of encoded function call data (empty for Aave)",
          "target": "Array of target contract addresses (empty for Aave)"
        }
      },
      "getSupportedCollaterals(address)": {
        "params": {
          "market": "The address of the market token (not used in Aave as all collaterals are cross-market)"
        },
        "returns": {
          "collateralAddresses": "Array of supported collateral token addresses"
        }
      },
      "isCollateralSupported(address,address)": {
        "params": {
          "collateral": "The address of the collateral token to check",
          "market": "The address of the market token (not used in Aave as all collaterals are cross-market)"
        },
        "returns": {
          "isSupported": "Whether the collateral is supported in Aave"
        }
      }
    },
    "version": 1
  },
  "userdoc": {
    "kind": "user",
    "methods": {
      "borrow(address,address,uint256)": {
        "notice": "Borrow tokens from the protocol"
      },
      "borrowedTokens(address)": {
        "notice": "Returns the list of tokens that the user has borrowed."
      },
      "getAllTokensInfo(address)": {
        "notice": "Returns all token info for a given user."
      },
      "getBalance(address,address)": {
        "notice": "Gets the balance for a given token and user."
      },
      "getBorrowBalance(address,address)": {
        "notice": "Gets the borrow balance for a given token and user."
      },
      "getInboundCollateralActions(address,(address,uint256)[])": {
        "notice": "Get additional actions required for a token when providing collateral (not used in Aave)"
      },
      "getSupportedCollaterals(address)": {
        "notice": "Get all supported collaterals for a specific market in Aave"
      },
      "isCollateralSupported(address,address)": {
        "notice": "Check if a collateral token is supported for a specific market in Aave"
      }
    },
    "version": 1
  },
  "storageLayout": {
    "storage": [
      {
        "astId": 3827,
        "contract": "contracts/gateways/AaveGateway.sol:AaveGateway",
        "label": "_status",
        "offset": 0,
        "slot": "0",
        "type": "t_uint256"
      }
    ],
    "types": {
      "t_uint256": {
        "encoding": "inplace",
        "label": "uint256",
        "numberOfBytes": "32"
      }
    }
  }
}