{
  "address": "0x69d75316ec08Dcd6DA08EAc278b406a8Adc0494b",
  "abi": [
    {
      "inputs": [
        {
          "internalType": "address",
          "name": "_poolAddressesProvider",
          "type": "address"
        },
        {
          "internalType": "address",
          "name": "_uiPoolDataProvider",
          "type": "address"
        }
      ],
      "stateMutability": "nonpayable",
      "type": "constructor"
    },
    {
      "inputs": [
        {
          "internalType": "address",
          "name": "user",
          "type": "address"
        }
      ],
      "name": "borrowedTokens",
      "outputs": [
        {
          "internalType": "address[]",
          "name": "",
          "type": "address[]"
        }
      ],
      "stateMutability": "view",
      "type": "function"
    },
    {
      "inputs": [
        {
          "internalType": "address",
          "name": "underlyingToken",
          "type": "address"
        }
      ],
      "name": "getAToken",
      "outputs": [
        {
          "internalType": "address",
          "name": "",
          "type": "address"
        }
      ],
      "stateMutability": "view",
      "type": "function"
    },
    {
      "inputs": [
        {
          "internalType": "address",
          "name": "user",
          "type": "address"
        }
      ],
      "name": "getAllTokensInfo",
      "outputs": [
        {
          "components": [
            {
              "internalType": "address",
              "name": "token",
              "type": "address"
            },
            {
              "internalType": "uint256",
              "name": "supplyRate",
              "type": "uint256"
            },
            {
              "internalType": "uint256",
              "name": "borrowRate",
              "type": "uint256"
            },
            {
              "internalType": "string",
              "name": "name",
              "type": "string"
            },
            {
              "internalType": "string",
              "name": "symbol",
              "type": "string"
            },
            {
              "internalType": "uint256",
              "name": "price",
              "type": "uint256"
            },
            {
              "internalType": "uint256",
              "name": "borrowBalance",
              "type": "uint256"
            },
            {
              "internalType": "uint256",
              "name": "balance",
              "type": "uint256"
            },
            {
              "internalType": "address",
              "name": "aToken",
              "type": "address"
            },
            {
              "internalType": "uint8",
              "name": "decimals",
              "type": "uint8"
            }
          ],
          "internalType": "struct AaveGatewayView.TokenInfo[]",
          "name": "",
          "type": "tuple[]"
        }
      ],
      "stateMutability": "view",
      "type": "function"
    },
    {
      "inputs": [
        {
          "internalType": "address",
          "name": "user",
          "type": "address"
        }
      ],
      "name": "getAllTokensInfoWithEMode",
      "outputs": [
        {
          "components": [
            {
              "internalType": "address",
              "name": "token",
              "type": "address"
            },
            {
              "internalType": "uint256",
              "name": "supplyRate",
              "type": "uint256"
            },
            {
              "internalType": "uint256",
              "name": "borrowRate",
              "type": "uint256"
            },
            {
              "internalType": "string",
              "name": "name",
              "type": "string"
            },
            {
              "internalType": "string",
              "name": "symbol",
              "type": "string"
            },
            {
              "internalType": "uint256",
              "name": "price",
              "type": "uint256"
            },
            {
              "internalType": "uint256",
              "name": "borrowBalance",
              "type": "uint256"
            },
            {
              "internalType": "uint256",
              "name": "balance",
              "type": "uint256"
            },
            {
              "internalType": "address",
              "name": "aToken",
              "type": "address"
            },
            {
              "internalType": "uint8",
              "name": "decimals",
              "type": "uint8"
            }
          ],
          "internalType": "struct AaveGatewayView.TokenInfo[]",
          "name": "tokens",
          "type": "tuple[]"
        },
        {
          "internalType": "uint8",
          "name": "userEModeCategory",
          "type": "uint8"
        }
      ],
      "stateMutability": "view",
      "type": "function"
    },
    {
      "inputs": [
        {
          "internalType": "address",
          "name": "token",
          "type": "address"
        },
        {
          "internalType": "address",
          "name": "user",
          "type": "address"
        }
      ],
      "name": "getBalance",
      "outputs": [
        {
          "internalType": "uint256",
          "name": "",
          "type": "uint256"
        }
      ],
      "stateMutability": "view",
      "type": "function"
    },
    {
      "inputs": [
        {
          "internalType": "address",
          "name": "token",
          "type": "address"
        },
        {
          "internalType": "address",
          "name": "user",
          "type": "address"
        }
      ],
      "name": "getBorrowBalance",
      "outputs": [
        {
          "internalType": "uint256",
          "name": "",
          "type": "uint256"
        }
      ],
      "stateMutability": "view",
      "type": "function"
    },
    {
      "inputs": [
        {
          "internalType": "address",
          "name": "token",
          "type": "address"
        },
        {
          "internalType": "address",
          "name": "user",
          "type": "address"
        }
      ],
      "name": "getBorrowBalanceCurrent",
      "outputs": [
        {
          "internalType": "uint256",
          "name": "",
          "type": "uint256"
        }
      ],
      "stateMutability": "nonpayable",
      "type": "function"
    },
    {
      "inputs": [
        {
          "internalType": "address",
          "name": "token",
          "type": "address"
        }
      ],
      "name": "getBorrowRate",
      "outputs": [
        {
          "internalType": "uint256",
          "name": "",
          "type": "uint256"
        },
        {
          "internalType": "bool",
          "name": "",
          "type": "bool"
        }
      ],
      "stateMutability": "view",
      "type": "function"
    },
    {
      "inputs": [],
      "name": "getEModes",
      "outputs": [
        {
          "components": [
            {
              "internalType": "uint8",
              "name": "id",
              "type": "uint8"
            },
            {
              "internalType": "uint16",
              "name": "ltv",
              "type": "uint16"
            },
            {
              "internalType": "uint16",
              "name": "liquidationThreshold",
              "type": "uint16"
            },
            {
              "internalType": "uint16",
              "name": "liquidationBonus",
              "type": "uint16"
            },
            {
              "internalType": "string",
              "name": "label",
              "type": "string"
            },
            {
              "internalType": "uint128",
              "name": "collateralBitmap",
              "type": "uint128"
            },
            {
              "internalType": "uint128",
              "name": "borrowableBitmap",
              "type": "uint128"
            }
          ],
          "internalType": "struct AaveGatewayView.EModeInfo[]",
          "name": "emodes",
          "type": "tuple[]"
        }
      ],
      "stateMutability": "view",
      "type": "function"
    },
    {
      "inputs": [
        {
          "internalType": "address",
          "name": "",
          "type": "address"
        },
        {
          "internalType": "address",
          "name": "user",
          "type": "address"
        }
      ],
      "name": "getLtv",
      "outputs": [
        {
          "internalType": "uint256",
          "name": "",
          "type": "uint256"
        }
      ],
      "stateMutability": "view",
      "type": "function"
    },
    {
      "inputs": [
        {
          "internalType": "address",
          "name": "",
          "type": "address"
        },
        {
          "internalType": "address",
          "name": "user",
          "type": "address"
        }
      ],
      "name": "getMaxLtv",
      "outputs": [
        {
          "internalType": "uint256",
          "name": "",
          "type": "uint256"
        }
      ],
      "stateMutability": "view",
      "type": "function"
    },
    {
      "inputs": [
        {
          "internalType": "address",
          "name": "token",
          "type": "address"
        },
        {
          "internalType": "address",
          "name": "user",
          "type": "address"
        }
      ],
      "name": "getPossibleCollaterals",
      "outputs": [
        {
          "internalType": "address[]",
          "name": "collateralAddresses",
          "type": "address[]"
        },
        {
          "internalType": "uint256[]",
          "name": "balances",
          "type": "uint256[]"
        },
        {
          "internalType": "string[]",
          "name": "symbols",
          "type": "string[]"
        },
        {
          "internalType": "uint8[]",
          "name": "decimals",
          "type": "uint8[]"
        }
      ],
      "stateMutability": "view",
      "type": "function"
    },
    {
      "inputs": [
        {
          "internalType": "address",
          "name": "token",
          "type": "address"
        }
      ],
      "name": "getReserveConfig",
      "outputs": [
        {
          "components": [
            {
              "internalType": "address",
              "name": "token",
              "type": "address"
            },
            {
              "internalType": "uint256",
              "name": "price",
              "type": "uint256"
            },
            {
              "internalType": "uint256",
              "name": "ltv",
              "type": "uint256"
            },
            {
              "internalType": "uint256",
              "name": "liquidationThreshold",
              "type": "uint256"
            },
            {
              "internalType": "uint256",
              "name": "liquidationBonus",
              "type": "uint256"
            },
            {
              "internalType": "uint8",
              "name": "decimals",
              "type": "uint8"
            },
            {
              "internalType": "bool",
              "name": "usageAsCollateralEnabled",
              "type": "bool"
            },
            {
              "internalType": "bool",
              "name": "borrowingEnabled",
              "type": "bool"
            }
          ],
          "internalType": "struct AaveGatewayView.ReserveConfigData",
          "name": "config",
          "type": "tuple"
        }
      ],
      "stateMutability": "view",
      "type": "function"
    },
    {
      "inputs": [
        {
          "internalType": "address[]",
          "name": "tokens",
          "type": "address[]"
        }
      ],
      "name": "getReserveConfigs",
      "outputs": [
        {
          "components": [
            {
              "internalType": "address",
              "name": "token",
              "type": "address"
            },
            {
              "internalType": "uint256",
              "name": "price",
              "type": "uint256"
            },
            {
              "internalType": "uint256",
              "name": "ltv",
              "type": "uint256"
            },
            {
              "internalType": "uint256",
              "name": "liquidationThreshold",
              "type": "uint256"
            },
            {
              "internalType": "uint256",
              "name": "liquidationBonus",
              "type": "uint256"
            },
            {
              "internalType": "uint8",
              "name": "decimals",
              "type": "uint8"
            },
            {
              "internalType": "bool",
              "name": "usageAsCollateralEnabled",
              "type": "bool"
            },
            {
              "internalType": "bool",
              "name": "borrowingEnabled",
              "type": "bool"
            }
          ],
          "internalType": "struct AaveGatewayView.ReserveConfigData[]",
          "name": "configs",
          "type": "tuple[]"
        }
      ],
      "stateMutability": "view",
      "type": "function"
    },
    {
      "inputs": [
        {
          "internalType": "address",
          "name": "token",
          "type": "address"
        }
      ],
      "name": "getSupplyRate",
      "outputs": [
        {
          "internalType": "uint256",
          "name": "",
          "type": "uint256"
        },
        {
          "internalType": "bool",
          "name": "",
          "type": "bool"
        }
      ],
      "stateMutability": "view",
      "type": "function"
    },
    {
      "inputs": [
        {
          "internalType": "address",
          "name": "market",
          "type": "address"
        }
      ],
      "name": "getSupportedCollaterals",
      "outputs": [
        {
          "internalType": "address[]",
          "name": "collateralAddresses",
          "type": "address[]"
        }
      ],
      "stateMutability": "view",
      "type": "function"
    },
    {
      "inputs": [
        {
          "internalType": "address",
          "name": "aToken",
          "type": "address"
        }
      ],
      "name": "getUnderlyingToken",
      "outputs": [
        {
          "internalType": "address",
          "name": "",
          "type": "address"
        }
      ],
      "stateMutability": "view",
      "type": "function"
    },
    {
      "inputs": [
        {
          "internalType": "address",
          "name": "user",
          "type": "address"
        }
      ],
      "name": "getUserAccountData",
      "outputs": [
        {
          "internalType": "uint256",
          "name": "totalCollateralBase",
          "type": "uint256"
        },
        {
          "internalType": "uint256",
          "name": "totalDebtBase",
          "type": "uint256"
        },
        {
          "internalType": "uint256",
          "name": "availableBorrowsBase",
          "type": "uint256"
        },
        {
          "internalType": "uint256",
          "name": "currentLiquidationThreshold",
          "type": "uint256"
        },
        {
          "internalType": "uint256",
          "name": "ltv",
          "type": "uint256"
        },
        {
          "internalType": "uint256",
          "name": "healthFactor",
          "type": "uint256"
        }
      ],
      "stateMutability": "view",
      "type": "function"
    },
    {
      "inputs": [
        {
          "internalType": "address",
          "name": "user",
          "type": "address"
        }
      ],
      "name": "getUserEMode",
      "outputs": [
        {
          "internalType": "uint8",
          "name": "categoryId",
          "type": "uint8"
        }
      ],
      "stateMutability": "view",
      "type": "function"
    },
    {
      "inputs": [
        {
          "internalType": "address",
          "name": "market",
          "type": "address"
        },
        {
          "internalType": "address",
          "name": "collateral",
          "type": "address"
        }
      ],
      "name": "isCollateralSupported",
      "outputs": [
        {
          "internalType": "bool",
          "name": "isSupported",
          "type": "bool"
        }
      ],
      "stateMutability": "view",
      "type": "function"
    },
    {
      "inputs": [],
      "name": "poolAddressesProvider",
      "outputs": [
        {
          "internalType": "contract IPoolAddressesProvider",
          "name": "",
          "type": "address"
        }
      ],
      "stateMutability": "view",
      "type": "function"
    },
    {
      "inputs": [],
      "name": "uiPoolDataProvider",
      "outputs": [
        {
          "internalType": "contract IUiPoolDataProviderV3",
          "name": "",
          "type": "address"
        }
      ],
      "stateMutability": "view",
      "type": "function"
    }
  ],
  "transactionHash": "0x39bc1a95d000161a9aef6b1aef7d8b80421f2bf54920d9c6f70323780008633d",
  "args": [
    "0xa97684ead0e402dC232d5A977953DF7ECBaB3CDb",
    "0x5c5228aC8BC1528482514aF3e27E692495148717"
  ],
  "numDeployments": 15,
  "solcInputHash": "cf5ff5c132e6b3e2cf29e3be8b528fd9",
  "bytecode": "0x60c060405234801561000f575f5ffd5b5060405161415c38038061415c83398101604081905261002e91610060565b6001600160a01b039182166080521660a052610091565b80516001600160a01b038116811461005b575f5ffd5b919050565b5f5f60408385031215610071575f5ffd5b61007a83610045565b915061008860208401610045565b90509250929050565b60805160a051613fa76101b55f395f81816102e1015281816103d301528181610b6a01528181610c8a01528181610d3c01528181611092015281816111430152818161159501528181611864015281816119a201528181611acf01528181611f54015281816121de015281816122ef015281816124a5015281816127eb015261298601525f81816102450152818161040001528181610b9701528181610cb901528181610d6b015281816110c10152818161117201528181611495015281816115c40152818161176801528181611893015281816119d101528181611afe01528181611e4e01528181611f830152818161220b0152818161231e01528181612422015281816124d4015281816128180152818161288701526129b50152613fa75ff3fe608060405234801561000f575f5ffd5b5060043610610110575f3560e01c8063104e999d14610114578063118e31b7146101405780633e69c6af14610161578063401d45d01461018257806362fd6add146101a257806366e2d09b146101b5578063691bcc88146101d55780636b5441a9146101f5578063732a52ee146101d5578063784661131461021d57806380e17d8714610240578063a92c3f7e14610267578063bd05bdb41461027c578063bf92857c1461029c578063c3a3a9a7146102dc578063ceac55df14610303578063d4fac45d14610316578063d71275f614610329578063d7728c1c1461033c578063e94201c71461035c578063eddf1b791461036f578063f5125d3f14610394575b5f5ffd5b610127610122366004612d99565b6103a7565b6040516101379493929190612e81565b60405180910390f35b61015361014e366004612d99565b610ab2565b604051908152602001610137565b61017461016f366004612f45565b610c84565b604051610137929190613053565b610195610190366004612f45565b61108d565b6040516101379190613077565b6101536101b0366004612d99565b611491565b6101c86101c3366004612f45565b611590565b6040516101379190613089565b6101e86101e3366004612f45565b611764565b604051610137919061309b565b610208610203366004612f45565b61185f565b60408051928352901515602083015201610137565b61023061022b366004612d99565b61199e565b6040519015158152602001610137565b6101e87f000000000000000000000000000000000000000000000000000000000000000081565b61026f611aca565b60405161013791906130af565b61028f61028a366004612f45565b611d66565b60405161013791906131fa565b6102af6102aa366004612f45565b611e45565b604080519687526020870195909552938501929092526060840152608083015260a082015260c001610137565b6101e87f000000000000000000000000000000000000000000000000000000000000000081565b6101c8610311366004612f45565b611f4f565b610153610324366004612d99565b612126565b610208610337366004612f45565b6122ea565b61034f61034a366004613209565b61241d565b6040516101379190613278565b61015361036a366004612d99565b6127c0565b61038261037d366004612f45565b6127d2565b60405160ff9091168152602001610137565b6101536103a2366004612d99565b612883565b60608080806001600160a01b0385166106fd5760405163ec489c2160e01b81525f906001600160a01b037f0000000000000000000000000000000000000000000000000000000000000000169063ec489c2190610428907f00000000000000000000000000000000000000000000000000000000000000009060040161309b565b5f60405180830381865afa158015610442573d5f5f3e3d5ffd5b505050506040513d5f823e601f3d908101601f191682016040526104699190810190613503565b508051909150806001600160401b03811115610487576104876132bb565b6040519080825280602002602001820160405280156104b0578160200160208202803683370190505b509550806001600160401b038111156104cb576104cb6132bb565b6040519080825280602002602001820160405280156104f4578160200160208202803683370190505b509450806001600160401b0381111561050f5761050f6132bb565b60405190808252806020026020018201604052801561054257816020015b606081526020019060019003908161052d5790505b509350806001600160401b0381111561055d5761055d6132bb565b604051908082528060200260200182016040528015610586578160200160208202803683370190505b5092505f5b818110156106f5578281815181106105a5576105a56138ab565b60200260200101515f01518782815181106105c2576105c26138ab565b60200260200101906001600160a01b031690816001600160a01b0316815250508281815181106105f4576105f46138ab565b602002602001015160400151858281518110610612576106126138ab565b602002602001018190525082818151811061062f5761062f6138ab565b60200260200101515f01516001600160a01b031663313ce5676040518163ffffffff1660e01b8152600401602060405180830381865afa925050508015610693575060408051601f3d908101601f19168201909252610690918101906138bf565b60015b6106c45760128482815181106106ab576106ab6138ab565b602002602001019060ff16908160ff16815250506106ed565b808583815181106106d7576106d76138ab565b602002602001019060ff16908160ff1681525050505b60010161058b565b505050610aa9565b604051630401d45d60e41b81525f90309063401d45d09061072290899060040161309b565b5f60405180830381865afa15801561073c573d5f5f3e3d5ffd5b505050506040513d5f823e601f3d908101601f1916820160405261076391908101906138d8565b90505f805b82518110156107ac575f838281518110610784576107846138ab565b602002602001015160e0015111156107a457816107a081613a5a565b9250505b600101610768565b50806001600160401b038111156107c5576107c56132bb565b6040519080825280602002602001820160405280156107ee578160200160208202803683370190505b509550806001600160401b03811115610809576108096132bb565b604051908082528060200260200182016040528015610832578160200160208202803683370190505b509450806001600160401b0381111561084d5761084d6132bb565b60405190808252806020026020018201604052801561088057816020015b606081526020019060019003908161086b5790505b509350806001600160401b0381111561089b5761089b6132bb565b6040519080825280602002602001820160405280156108c4578160200160208202803683370190505b5092505f805b8351811015610aa4575f8482815181106108e6576108e66138ab565b602002602001015160e001511115610a9c5783818151811061090a5761090a6138ab565b60200260200101515f0151888381518110610927576109276138ab565b60200260200101906001600160a01b031690816001600160a01b031681525050838181518110610959576109596138ab565b602002602001015160e00151878381518110610977576109776138ab565b602002602001018181525050838181518110610995576109956138ab565b6020026020010151608001518683815181106109b3576109b36138ab565b60200260200101819052508381815181106109d0576109d06138ab565b60200260200101515f01516001600160a01b031663313ce5676040518163ffffffff1660e01b8152600401602060405180830381865afa925050508015610a34575060408051601f3d908101601f19168201909252610a31918101906138bf565b60015b610a65576012858381518110610a4c57610a4c6138ab565b602002602001019060ff16908160ff1681525050610a8e565b80868481518110610a7857610a786138ab565b602002602001019060ff16908160ff1681525050505b81610a9881613a5a565b9250505b6001016108ca565b505050505b92959194509250565b5f5f5f610abe85612981565b9250925050808015610ad857506001600160a01b03821615155b15610b51576040516370a0823160e01b81526001600160a01b038316906370a0823190610b0990879060040161309b565b602060405180830381865afa925050508015610b42575060408051601f3d908101601f19168201909252610b3f91810190613a7e565b60015b15610b51579250610c7e915050565b6040516301465d3360e61b81525f906001600160a01b037f000000000000000000000000000000000000000000000000000000000000000016906351974cc090610bc1907f0000000000000000000000000000000000000000000000000000000000000000908990600401613a95565b5f60405180830381865afa158015610bdb573d5f5f3e3d5ffd5b505050506040513d5f823e601f3d908101601f19168201604052610c029190810190613aaf565b5090505f5b8151811015610c7657866001600160a01b0316828281518110610c2c57610c2c6138ab565b60200260200101515f01516001600160a01b031603610c6e57818181518110610c5757610c576138ab565b602002602001015160600151945050505050610c7e565b600101610c07565b505f93505050505b92915050565b60605f5f7f00000000000000000000000000000000000000000000000000000000000000006001600160a01b031663ec489c217f00000000000000000000000000000000000000000000000000000000000000006040518263ffffffff1660e01b8152600401610cf4919061309b565b5f60405180830381865afa158015610d0e573d5f5f3e3d5ffd5b505050506040513d5f823e601f3d908101601f19168201604052610d359190810190613503565b5090505f5f7f00000000000000000000000000000000000000000000000000000000000000006001600160a01b03166351974cc07f0000000000000000000000000000000000000000000000000000000000000000886040518363ffffffff1660e01b8152600401610da8929190613a95565b5f60405180830381865afa158015610dc2573d5f5f3e3d5ffd5b505050506040513d5f823e601f3d908101601f19168201604052610de99190810190613aaf565b9150915080935082516001600160401b03811115610e0957610e096132bb565b604051908082528060200260200182016040528015610e4257816020015b610e2f612cd5565b815260200190600190039081610e275790505b5094505f5b8351811015611084575f610e75858381518110610e6657610e666138ab565b60200260200101518986612adb565b90505f610e9c868481518110610e8d57610e8d6138ab565b60200260200101518a87612bd8565b90505f60129050868481518110610eb557610eb56138ab565b60200260200101515f01516001600160a01b031663313ce5676040518163ffffffff1660e01b8152600401602060405180830381865afa925050508015610f19575060408051601f3d908101601f19168201909252610f16918101906138bf565b60015b15610f215790505b604051806101400160405280888681518110610f3f57610f3f6138ab565b60200260200101515f01516001600160a01b03168152602001888681518110610f6a57610f6a6138ab565b60200260200101516101c001516001600160801b03168152602001888681518110610f9757610f976138ab565b60200260200101516101e001516001600160801b03168152602001888681518110610fc457610fc46138ab565b6020026020010151602001518152602001888681518110610fe757610fe76138ab565b602002602001015160400151815260200188868151811061100a5761100a6138ab565b60200260200101516102c00151815260200183815260200184815260200188868151811061103a5761103a6138ab565b602002602001015161022001516001600160a01b031681526020018260ff1681525089858151811061106e5761106e6138ab565b6020908102919091010152505050600101610e47565b50505050915091565b60605f7f00000000000000000000000000000000000000000000000000000000000000006001600160a01b031663ec489c217f00000000000000000000000000000000000000000000000000000000000000006040518263ffffffff1660e01b81526004016110fc919061309b565b5f60405180830381865afa158015611116573d5f5f3e3d5ffd5b505050506040513d5f823e601f3d908101601f1916820160405261113d9190810190613503565b5090505f7f00000000000000000000000000000000000000000000000000000000000000006001600160a01b03166351974cc07f0000000000000000000000000000000000000000000000000000000000000000866040518363ffffffff1660e01b81526004016111af929190613a95565b5f60405180830381865afa1580156111c9573d5f5f3e3d5ffd5b505050506040513d5f823e601f3d908101601f191682016040526111f09190810190613aaf565b5090505f82516001600160401b0381111561120d5761120d6132bb565b60405190808252806020026020018201604052801561124657816020015b611233612cd5565b81526020019060019003908161122b5790505b5090505f5b8351811015611488575f61127985838151811061126a5761126a6138ab565b60200260200101518886612adb565b90505f6112a0868481518110611291576112916138ab565b60200260200101518987612bd8565b90505f601290508684815181106112b9576112b96138ab565b60200260200101515f01516001600160a01b031663313ce5676040518163ffffffff1660e01b8152600401602060405180830381865afa92505050801561131d575060408051601f3d908101601f1916820190925261131a918101906138bf565b60015b156113255790505b604051806101400160405280888681518110611343576113436138ab565b60200260200101515f01516001600160a01b0316815260200188868151811061136e5761136e6138ab565b60200260200101516101c001516001600160801b0316815260200188868151811061139b5761139b6138ab565b60200260200101516101e001516001600160801b031681526020018886815181106113c8576113c86138ab565b60200260200101516020015181526020018886815181106113eb576113eb6138ab565b602002602001015160400151815260200188868151811061140e5761140e6138ab565b60200260200101516102c00151815260200183815260200184815260200188868151811061143e5761143e6138ab565b602002602001015161022001516001600160a01b031681526020018260ff16815250858581518110611472576114726138ab565b602090810291909101015250505060010161124b565b50949350505050565b5f5f7f00000000000000000000000000000000000000000000000000000000000000006001600160a01b031663026b1d5f6040518163ffffffff1660e01b8152600401602060405180830381865afa1580156114ef573d5f5f3e3d5ffd5b505050506040513d601f19601f820116820180604052508101906115139190613b91565b90505f816001600160a01b031663bf92857c856040518263ffffffff1660e01b8152600401611542919061309b565b60c060405180830381865afa15801561155d573d5f5f3e3d5ffd5b505050506040513d601f19601f820116820180604052508101906115819190613bac565b50909998505050505050505050565b60605f7f00000000000000000000000000000000000000000000000000000000000000006001600160a01b031663ec489c217f00000000000000000000000000000000000000000000000000000000000000006040518263ffffffff1660e01b81526004016115ff919061309b565b5f60405180830381865afa158015611619573d5f5f3e3d5ffd5b505050506040513d5f823e601f3d908101601f191682016040526116409190810190613503565b5090505f805b825181101561168957828181518110611661576116616138ab565b6020026020010151610100015115611681578161167d81613a5a565b9250505b600101611646565b50806001600160401b038111156116a2576116a26132bb565b6040519080825280602002602001820160405280156116cb578160200160208202803683370190505b5092505f805b835181101561175b578381815181106116ec576116ec6138ab565b602002602001015161010001511561175357838181518110611710576117106138ab565b60200260200101515f015185838151811061172d5761172d6138ab565b6001600160a01b03909216602092830291909101909101528161174f81613a5a565b9250505b6001016116d1565b50505050919050565b5f5f7f00000000000000000000000000000000000000000000000000000000000000006001600160a01b031663e860accb6040518163ffffffff1660e01b8152600401602060405180830381865afa1580156117c2573d5f5f3e3d5ffd5b505050506040513d601f19601f820116820180604052508101906117e69190613b91565b90505f816001600160a01b031663d2493b6c856040518263ffffffff1660e01b8152600401611815919061309b565b606060405180830381865afa158015611830573d5f5f3e3d5ffd5b505050506040513d601f19601f820116820180604052508101906118549190613bf2565b509095945050505050565b5f5f5f7f00000000000000000000000000000000000000000000000000000000000000006001600160a01b031663ec489c217f00000000000000000000000000000000000000000000000000000000000000006040518263ffffffff1660e01b81526004016118ce919061309b565b5f60405180830381865afa1580156118e8573d5f5f3e3d5ffd5b505050506040513d5f823e601f3d908101601f1916820160405261190f9190810190613503565b5090505f5b815181101561199257846001600160a01b0316828281518110611939576119396138ab565b60200260200101515f01516001600160a01b03160361198a57818181518110611964576119646138ab565b60200260200101516101c001516001816001600160801b03169150935093505050915091565b600101611914565b505f9485945092505050565b5f5f7f00000000000000000000000000000000000000000000000000000000000000006001600160a01b031663ec489c217f00000000000000000000000000000000000000000000000000000000000000006040518263ffffffff1660e01b8152600401611a0c919061309b565b5f60405180830381865afa158015611a26573d5f5f3e3d5ffd5b505050506040513d5f823e601f3d908101601f19168201604052611a4d9190810190613503565b5090505f5b8151811015611ac057836001600160a01b0316828281518110611a7757611a776138ab565b60200260200101515f01516001600160a01b031603611ab857818181518110611aa257611aa26138ab565b6020026020010151610100015192505050610c7e565b600101611a52565b505f949350505050565b60605f7f00000000000000000000000000000000000000000000000000000000000000006001600160a01b0316636f90b9d17f00000000000000000000000000000000000000000000000000000000000000006040518263ffffffff1660e01b8152600401611b39919061309b565b5f60405180830381865afa158015611b53573d5f5f3e3d5ffd5b505050506040513d5f823e601f3d908101601f19168201604052611b7a9190810190613c4d565b905080516001600160401b03811115611b9557611b956132bb565b604051908082528060200260200182016040528015611bf957816020015b6040805160e0810182525f80825260208083018290529282018190526060808301829052608083015260a0820181905260c082015282525f19909201910181611bb35790505b5091505f5b8151811015611d61576040518060e00160405280838381518110611c2457611c246138ab565b60200260200101515f015160ff168152602001838381518110611c4957611c496138ab565b6020026020010151602001515f015161ffff168152602001838381518110611c7357611c736138ab565b6020026020010151602001516020015161ffff168152602001838381518110611c9e57611c9e6138ab565b6020026020010151602001516040015161ffff168152602001838381518110611cc957611cc96138ab565b602002602001015160200151608001518152602001838381518110611cf057611cf06138ab565b602002602001015160200151606001516001600160801b03168152602001838381518110611d2057611d206138ab565b60200260200101516020015160a001516001600160801b0316815250838281518110611d4e57611d4e6138ab565b6020908102919091010152600101611bfe565b505090565b611d6e612d35565b6040805160018082528183019092525f916020808301908036833701905050905082815f81518110611da257611da26138ab565b6001600160a01b03909216602092830291909101909101526040516335dca30760e21b81525f90309063d7728c1c90611ddf908590600401613089565b5f60405180830381865afa158015611df9573d5f5f3e3d5ffd5b505050506040513d5f823e601f3d908101601f19168201604052611e209190810190613dcc565b9050805f81518110611e3457611e346138ab565b602002602001015192505050919050565b5f5f5f5f5f5f5f7f00000000000000000000000000000000000000000000000000000000000000006001600160a01b031663026b1d5f6040518163ffffffff1660e01b8152600401602060405180830381865afa158015611ea8573d5f5f3e3d5ffd5b505050506040513d601f19601f82011682018060405250810190611ecc9190613b91565b604051632fe4a15f60e21b81529091506001600160a01b0382169063bf92857c90611efb908b9060040161309b565b60c060405180830381865afa158015611f16573d5f5f3e3d5ffd5b505050506040513d601f19601f82011682018060405250810190611f3a9190613bac565b949d939c50919a509850965090945092505050565b60605f7f00000000000000000000000000000000000000000000000000000000000000006001600160a01b03166351974cc07f0000000000000000000000000000000000000000000000000000000000000000856040518363ffffffff1660e01b8152600401611fc0929190613a95565b5f60405180830381865afa158015611fda573d5f5f3e3d5ffd5b505050506040513d5f823e601f3d908101601f191682016040526120019190810190613aaf565b5090505f805b825181101561204b575f838281518110612023576120236138ab565b6020026020010151606001511115612043578161203f81613a5a565b9250505b600101612007565b505f816001600160401b03811115612065576120656132bb565b60405190808252806020026020018201604052801561208e578160200160208202803683370190505b5090505f805b8451811015611854575f8582815181106120b0576120b06138ab565b602002602001015160600151111561211e578481815181106120d4576120d46138ab565b60200260200101515f01518383806120eb90613a5a565b9450815181106120fd576120fd6138ab565b60200260200101906001600160a01b031690816001600160a01b0316815250505b600101612094565b5f5f5f61213285612981565b925050915080801561214c57506001600160a01b03821615155b156121c5576040516370a0823160e01b81526001600160a01b038316906370a082319061217d90879060040161309b565b602060405180830381865afa9250505080156121b6575060408051601f3d908101601f191682019092526121b391810190613a7e565b60015b156121c5579250610c7e915050565b6040516301465d3360e61b81525f906001600160a01b037f000000000000000000000000000000000000000000000000000000000000000016906351974cc090612235907f0000000000000000000000000000000000000000000000000000000000000000908990600401613a95565b5f60405180830381865afa15801561224f573d5f5f3e3d5ffd5b505050506040513d5f823e601f3d908101601f191682016040526122769190810190613aaf565b5090505f5b8151811015610c7657866001600160a01b03168282815181106122a0576122a06138ab565b60200260200101515f01516001600160a01b0316036122e2578181815181106122cb576122cb6138ab565b602002602001015160200151945050505050610c7e565b60010161227b565b5f5f5f7f00000000000000000000000000000000000000000000000000000000000000006001600160a01b031663ec489c217f00000000000000000000000000000000000000000000000000000000000000006040518263ffffffff1660e01b8152600401612359919061309b565b5f60405180830381865afa158015612373573d5f5f3e3d5ffd5b505050506040513d5f823e601f3d908101601f1916820160405261239a9190810190613503565b5090505f5b815181101561199257846001600160a01b03168282815181106123c4576123c46138ab565b60200260200101515f01516001600160a01b031603612415578181815181106123ef576123ef6138ab565b60200260200101516101e001516001816001600160801b03169150935093505050915091565b60010161239f565b60605f7f00000000000000000000000000000000000000000000000000000000000000006001600160a01b031663e860accb6040518163ffffffff1660e01b8152600401602060405180830381865afa15801561247c573d5f5f3e3d5ffd5b505050506040513d601f19601f820116820180604052508101906124a09190613b91565b90505f7f00000000000000000000000000000000000000000000000000000000000000006001600160a01b031663ec489c217f00000000000000000000000000000000000000000000000000000000000000006040518263ffffffff1660e01b815260040161250f919061309b565b5f60405180830381865afa158015612529573d5f5f3e3d5ffd5b505050506040513d5f823e601f3d908101601f191682016040526125509190810190613503565b509050836001600160401b0381111561256b5761256b6132bb565b6040519080825280602002602001820160405280156125a457816020015b612591612d35565b8152602001906001900390816125895790505b5092505f5b848110156127b7575f8686838181106125c4576125c46138ab565b90506020020160208101906125d99190612f45565b90505f805b845181101561264a57826001600160a01b0316858281518110612603576126036138ab565b60200260200101515f01516001600160a01b0316036126425784818151811061262e5761262e6138ab565b60200260200101516102c00151915061264a565b6001016125de565b505f60129050826001600160a01b031663313ce5676040518163ffffffff1660e01b8152600401602060405180830381865afa9250505080156126aa575060408051601f3d908101601f191682019092526126a7918101906138bf565b60015b156126b25790505b604051633e15014160e01b81525f9081908190819081906001600160a01b038c1690633e150141906126e8908b9060040161309b565b61014060405180830381865afa925050508015612722575060408051601f3d908101601f1916820190925261271f91810190613ede565b60015b1561273b5750969c50949a509298509650909450505050505b604051806101000160405280896001600160a01b031681526020018881526020018681526020018581526020018481526020018760ff16815260200183151581526020018215158152508c8a81518110612797576127976138ab565b6020026020010181905250505050505050505080806001019150506125a9565b50505092915050565b5f6127cb8383610ab2565b9392505050565b6040516301465d3360e61b81525f906001600160a01b037f000000000000000000000000000000000000000000000000000000000000000016906351974cc090612842907f0000000000000000000000000000000000000000000000000000000000000000908690600401613a95565b5f60405180830381865afa15801561285c573d5f5f3e3d5ffd5b505050506040513d5f823e601f3d908101601f191682016040526127cb9190810190613aaf565b5f5f7f00000000000000000000000000000000000000000000000000000000000000006001600160a01b031663026b1d5f6040518163ffffffff1660e01b8152600401602060405180830381865afa1580156128e1573d5f5f3e3d5ffd5b505050506040513d601f19601f820116820180604052508101906129059190613b91565b90505f816001600160a01b031663bf92857c856040518263ffffffff1660e01b8152600401612934919061309b565b60c060405180830381865afa15801561294f573d5f5f3e3d5ffd5b505050506040513d601f19601f820116820180604052508101906129739190613bac565b509998505050505050505050565b5f5f5f7f00000000000000000000000000000000000000000000000000000000000000006001600160a01b031663ec489c217f00000000000000000000000000000000000000000000000000000000000000006040518263ffffffff1660e01b81526004016129f0919061309b565b5f60405180830381865afa925050508015612a2c57506040513d5f823e601f3d908101601f19168201604052612a299190810190613503565b60015b15612acb575f5b8251811015612ac757866001600160a01b0316838281518110612a5857612a586138ab565b60200260200101515f01516001600160a01b031603612abf57828181518110612a8357612a836138ab565b60200260200101516102200151838281518110612aa257612aa26138ab565b602002602001015161024001516001955095509550505050612ad4565b600101612a33565b5050505b505f9150819050805b9193909250565b6102208301515f906001600160a01b031615612b67578361022001516001600160a01b03166370a08231846040518263ffffffff1660e01b8152600401612b22919061309b565b602060405180830381865afa925050508015612b5b575060408051601f3d908101601f19168201909252612b5891810190613a7e565b60015b15612b675790506127cb565b5f5b8251811015611ac057845f01516001600160a01b0316838281518110612b9157612b916138ab565b60200260200101515f01516001600160a01b031603612bd057828181518110612bbc57612bbc6138ab565b6020026020010151602001519150506127cb565b600101612b69565b6102408301515f906001600160a01b031615612c64578361024001516001600160a01b03166370a08231846040518263ffffffff1660e01b8152600401612c1f919061309b565b602060405180830381865afa925050508015612c58575060408051601f3d908101601f19168201909252612c5591810190613a7e565b60015b15612c645790506127cb565b5f5b8251811015611ac057845f01516001600160a01b0316838281518110612c8e57612c8e6138ab565b60200260200101515f01516001600160a01b031603612ccd57828181518110612cb957612cb96138ab565b6020026020010151606001519150506127cb565b600101612c66565b6040518061014001604052805f6001600160a01b031681526020015f81526020015f815260200160608152602001606081526020015f81526020015f81526020015f81526020015f6001600160a01b031681526020015f60ff1681525090565b6040518061010001604052805f6001600160a01b031681526020015f81526020015f81526020015f81526020015f81526020015f60ff1681526020015f151581526020015f151581525090565b6001600160a01b0381168114612d96575f5ffd5b50565b5f5f60408385031215612daa575f5ffd5b8235612db581612d82565b91506020830135612dc581612d82565b809150509250929050565b6001600160a01b03169052565b5f8151808452602084019350602083015f5b82811015612e165781516001600160a01b0316865260209586019590910190600101612def565b5093949350505050565b5f81518084528060208401602086015e5f602082860101526020601f19601f83011685010191505092915050565b5f8151808452602084019350602083015f5b82811015612e1657815160ff16865260209586019590910190600101612e60565b608081525f612e936080830187612ddd565b82810360208401528086518083526020830191506020880192505f5b81811015612ecd578351835260209384019390920191600101612eaf565b50508381036040850152855180825260208083019350600582901b830181019088015f5b83811015612f2357601f19858403018652612f0d838351612e20565b6020968701969093509190910190600101612ef1565b50508581036060870152612f378188612e4e565b9a9950505050505050505050565b5f60208284031215612f55575f5ffd5b81356127cb81612d82565b5f82825180855260208501945060208160051b830101602085015f5b8381101561304757601f198584030188528151612f9a848251612dd0565b602081015160208501526040810151604085015260608101516101406060860152612fc9610140860182612e20565b905060808201518582036080870152612fe28282612e20565b91505060a082015160a086015260c082015160c086015260e082015160e0860152610100820151613017610100870182612dd0565b50610120820151915061303061012086018360ff169052565b6020998a0199909450929092019150600101612f7c565b50909695505050505050565b604081525f6130656040830185612f60565b905060ff831660208301529392505050565b602081525f6127cb6020830184612f60565b602081525f6127cb6020830184612ddd565b6001600160a01b0391909116815260200190565b5f602082016020835280845180835260408501915060408160051b8601019250602086015f5b8281101561318957603f19878603018452815160ff815116865261ffff602082015116602087015261ffff60408201511660408701526060810151613120606088018261ffff169052565b50608081015160e0608088015261313a60e0880182612e20565b905060a082015161315660a08901826001600160801b03169052565b5060c0820151915061317360c08801836001600160801b03169052565b95505060209384019391909101906001016130d5565b50929695505050505050565b60018060a01b0381511682526020810151602083015260408101516040830152606081015160608301526080810151608083015260ff60a08201511660a083015260c0810151151560c083015260e08101516131f560e084018215159052565b505050565b6101008101610c7e8284613195565b5f5f6020838503121561321a575f5ffd5b82356001600160401b0381111561322f575f5ffd5b8301601f8101851361323f575f5ffd5b80356001600160401b03811115613254575f5ffd5b8560208260051b8401011115613268575f5ffd5b6020919091019590945092505050565b602080825282518282018190525f918401906040840190835b81811015611854576132a4838551613195565b602093909301926101009290920191600101613291565b634e487b7160e01b5f52604160045260245ffd5b604051608081016001600160401b03811182821017156132f1576132f16132bb565b60405290565b60405161052081016001600160401b03811182821017156132f1576132f16132bb565b60405161014081016001600160401b03811182821017156132f1576132f16132bb565b604080519081016001600160401b03811182821017156132f1576132f16132bb565b60405160c081016001600160401b03811182821017156132f1576132f16132bb565b60405161010081016001600160401b03811182821017156132f1576132f16132bb565b604051601f8201601f191681016001600160401b03811182821017156133cc576133cc6132bb565b604052919050565b5f6001600160401b038211156133ec576133ec6132bb565b5060051b60200190565b805161340181612d82565b919050565b5f82601f830112613415575f5ffd5b81516001600160401b0381111561342e5761342e6132bb565b613441601f8201601f19166020016133a4565b818152846020838601011115613455575f5ffd5b8160208501602083015e5f918101602001919091529392505050565b80518015158114613401575f5ffd5b80516001600160801b0381168114613401575f5ffd5b805164ffffffffff81168114613401575f5ffd5b805160ff81168114613401575f5ffd5b5f608082840312156134ca575f5ffd5b6134d26132cf565b82518152602080840151908201526040808401519082015290506134f8606083016134aa565b606082015292915050565b5f5f60a08385031215613514575f5ffd5b82516001600160401b03811115613529575f5ffd5b8301601f81018513613539575f5ffd5b805161354c613547826133d4565b6133a4565b8082825260208201915060208360051b85010192508783111561356d575f5ffd5b602084015b8381101561388d5780516001600160401b0381111561358f575f5ffd5b8501610520818b03601f190112156135a5575f5ffd5b6135ad6132f7565b6135b9602083016133f6565b815260408201516001600160401b038111156135d3575f5ffd5b6135e28c602083860101613406565b60208301525060608201516001600160401b03811115613600575f5ffd5b61360f8c602083860101613406565b604083015250608082810151606083015260a0808401519183019190915260c0808401519183019190915260e080840151918301919091526101008301519082015261365e6101208301613471565b6101008201526136716101408301613471565b6101208201526136846101608301613471565b6101408201526136976101808301613471565b6101608201526136aa6101a08301613480565b6101808201526136bd6101c08301613480565b6101a08201526136d06101e08301613480565b6101c08201526136e36102008301613480565b6101e08201526136f66102208301613496565b61020082015261370961024083016133f6565b61022082015261371c61026083016133f6565b61024082015261372f61028083016133f6565b6102608201526102a0828101516102808301526102c080840151918301919091526102e08301519082015261376761030083016133f6565b6102e08201526103208281015161030083015261034080840151918301919091526103608084015191830191909152610380830151908201526137ad6103a08301613471565b6103808201526137c06103c08301613471565b6103a08201526137d36103e08301613480565b6103c08201526137e66104008301613480565b6103e08201526137f96104208301613480565b61040082015261380c6104408301613471565b6104208201526104608281015161044083015261048080840151918301919091526104a080840151918301919091526104c0830151908201526138526104e08301613471565b6104c08201526138656105008301613471565b6104e08201526138786105208301613480565b61050082015284525060209283019201613572565b50809550505050506138a284602085016134ba565b90509250929050565b634e487b7160e01b5f52603260045260245ffd5b5f602082840312156138cf575f5ffd5b6127cb826134aa565b5f602082840312156138e8575f5ffd5b81516001600160401b038111156138fd575f5ffd5b8201601f8101841361390d575f5ffd5b805161391b613547826133d4565b8082825260208201915060208360051b85010192508683111561393c575f5ffd5b602084015b83811015613a4f5780516001600160401b0381111561395e575f5ffd5b8501610140818a03601f19011215613974575f5ffd5b61397c61331a565b613988602083016133f6565b8152604082810151602083015260608301519082015260808201516001600160401b038111156139b6575f5ffd5b6139c58b602083860101613406565b60608301525060a08201516001600160401b038111156139e3575f5ffd5b6139f28b602083860101613406565b60808301525060c08281015160a083015260e0808401519183019190915261010083015190820152613a2761012083016133f6565b610100820152613a3a61014083016134aa565b61012082015284525060209283019201613941565b509695505050505050565b5f60018201613a7757634e487b7160e01b5f52601160045260245ffd5b5060010190565b5f60208284031215613a8e575f5ffd5b5051919050565b6001600160a01b0392831681529116602082015260400190565b5f5f60408385031215613ac0575f5ffd5b82516001600160401b03811115613ad5575f5ffd5b8301601f81018513613ae5575f5ffd5b8051613af3613547826133d4565b8082825260208201915060208360071b850101925087831115613b14575f5ffd5b6020840193505b82841015613b7f5760808489031215613b32575f5ffd5b613b3a6132cf565b8451613b4581612d82565b815260208581015190820152613b5d60408601613471565b6040820152606085810151908201528252608090930192602090910190613b1b565b94506138a292505050602084016134aa565b5f60208284031215613ba1575f5ffd5b81516127cb81612d82565b5f5f5f5f5f5f60c08789031215613bc1575f5ffd5b50508451602086015160408701516060880151608089015160a090990151939a929950909790965094509092509050565b5f5f5f60608486031215613c04575f5ffd5b8351613c0f81612d82565b6020850151909350613c2081612d82565b6040850151909250613c3181612d82565b809150509250925092565b805161ffff81168114613401575f5ffd5b5f60208284031215613c5d575f5ffd5b81516001600160401b03811115613c72575f5ffd5b8201601f81018413613c82575f5ffd5b8051613c90613547826133d4565b8082825260208201915060208360051b850101925086831115613cb1575f5ffd5b602084015b83811015613a4f5780516001600160401b03811115613cd3575f5ffd5b85016040818a03601f19011215613ce8575f5ffd5b613cf061333d565b613cfc602083016134aa565b815260408201516001600160401b03811115613d16575f5ffd5b60208184010192505060c0828b031215613d2e575f5ffd5b613d3661335f565b613d3f83613c3c565b8152613d4d60208401613c3c565b6020820152613d5e60408401613c3c565b6040820152613d6f60608401613480565b606082015260808301516001600160401b03811115613d8c575f5ffd5b613d988c828601613406565b608083015250613daa60a08401613480565b60a0820152806020830152508085525050602083019250602081019050613cb6565b5f60208284031215613ddc575f5ffd5b81516001600160401b03811115613df1575f5ffd5b8201601f81018413613e01575f5ffd5b8051613e0f613547826133d4565b8082825260208201915060208360081b850101925086831115613e30575f5ffd5b6020840193505b82841015613ed4576101008488031215613e4f575f5ffd5b613e57613381565b8451613e6281612d82565b815260208581015190820152604080860151908201526060808601519082015260808086015190820152613e9860a086016134aa565b60a0820152613ea960c08601613471565b60c0820152613eba60e08601613471565b60e082015282526101009390930192602090910190613e37565b9695505050505050565b5f5f5f5f5f5f5f5f5f5f6101408b8d031215613ef8575f5ffd5b8a5160208c015160408d015160608e015160808f0151939d50919b50995097509550613f2660a08c01613471565b9450613f3460c08c01613471565b9350613f4260e08c01613471565b9250613f516101008c01613471565b9150613f606101208c01613471565b90509295989b9194979a509295985056fea264697066735822122052ea352b0580fec5102c0d3dc816021006e5fd53f18ab00f3afa5626c6d500ac64736f6c634300081e0033",
  "devdoc": {
    "details": "Contains all read/view functions from v1, separate from write operations",
    "kind": "dev",
    "methods": {
      "getAllTokensInfoWithEMode(address)": {
        "params": {
          "user": "The address of the user"
        },
        "returns": {
          "tokens": "Array of TokenInfo structs",
          "userEModeCategory": "The user's current E-Mode category ID (0 = no E-Mode)"
        }
      },
      "getEModes()": {
        "returns": {
          "emodes": "Array of E-Mode categories with their configurations"
        }
      },
      "getReserveConfig(address)": {
        "params": {
          "token": "The token address"
        },
        "returns": {
          "config": "The reserve configuration data"
        }
      },
      "getReserveConfigs(address[])": {
        "details": "Returns price, LTV, liquidation threshold, and other config for each token",
        "params": {
          "tokens": "Array of token addresses to get config for"
        },
        "returns": {
          "configs": "Array of reserve configuration data"
        }
      },
      "getUserAccountData(address)": {
        "params": {
          "user": "The user address"
        },
        "returns": {
          "availableBorrowsBase": "Available borrows in base currency",
          "currentLiquidationThreshold": "Current liquidation threshold (bps)",
          "healthFactor": "Health factor (1e18 scale)",
          "ltv": "Current LTV (bps)",
          "totalCollateralBase": "Total collateral in base currency",
          "totalDebtBase": "Total debt in base currency"
        }
      },
      "getUserEMode(address)": {
        "params": {
          "user": "The address of the user"
        },
        "returns": {
          "categoryId": "The E-Mode category ID (0 = no E-Mode)"
        }
      }
    },
    "title": "AaveGatewayView",
    "version": 1
  },
  "userdoc": {
    "kind": "user",
    "methods": {
      "borrowedTokens(address)": {
        "notice": "Returns the list of tokens that the user has borrowed."
      },
      "getAllTokensInfoWithEMode(address)": {
        "notice": "Returns all token info for a user along with their E-Mode category"
      },
      "getBalance(address,address)": {
        "notice": "Gets the balance for a given token and user."
      },
      "getBorrowBalance(address,address)": {
        "notice": "Gets the borrow balance for a given token and user."
      },
      "getEModes()": {
        "notice": "Returns all available E-Mode categories"
      },
      "getLtv(address,address)": {
        "notice": "Returns the protocol-level maximum LTV configuration for the user in basis points."
      },
      "getMaxLtv(address,address)": {
        "notice": "Returns the liquidation threshold (LLTV) for a given user in basis points."
      },
      "getReserveConfig(address)": {
        "notice": "Get reserve config for a single token"
      },
      "getReserveConfigs(address[])": {
        "notice": "Get reserve configuration data for multiple tokens (for frontend LTV calculations)"
      },
      "getUserAccountData(address)": {
        "notice": "Returns full user account data from Aave"
      },
      "getUserEMode(address)": {
        "notice": "Returns the user's current E-Mode category ID"
      }
    },
    "notice": "View-only gateway for Aave v3 protocol",
    "version": 1
  },
  "storageLayout": {
    "storage": [],
    "types": null
  }
}