{
  "address": "0xac96b18a656e54662Cd2ff5Eb1Df9C36d9FE7a77",
  "abi": [
    {
      "inputs": [
        {
          "internalType": "address",
          "name": "router",
          "type": "address"
        },
        {
          "internalType": "address",
          "name": "_poolAddressesProvider",
          "type": "address"
        },
        {
          "internalType": "address",
          "name": "_uiPoolDataProvider",
          "type": "address"
        },
        {
          "internalType": "uint16",
          "name": "_referralCode",
          "type": "uint16"
        }
      ],
      "stateMutability": "nonpayable",
      "type": "constructor"
    },
    {
      "inputs": [
        {
          "internalType": "address",
          "name": "target",
          "type": "address"
        }
      ],
      "name": "AddressEmptyCode",
      "type": "error"
    },
    {
      "inputs": [
        {
          "internalType": "address",
          "name": "account",
          "type": "address"
        }
      ],
      "name": "AddressInsufficientBalance",
      "type": "error"
    },
    {
      "inputs": [],
      "name": "FailedInnerCall",
      "type": "error"
    },
    {
      "inputs": [],
      "name": "ReentrancyGuardReentrantCall",
      "type": "error"
    },
    {
      "inputs": [
        {
          "internalType": "address",
          "name": "token",
          "type": "address"
        }
      ],
      "name": "SafeERC20FailedOperation",
      "type": "error"
    },
    {
      "inputs": [],
      "name": "REFERRAL_CODE",
      "outputs": [
        {
          "internalType": "uint16",
          "name": "",
          "type": "uint16"
        }
      ],
      "stateMutability": "view",
      "type": "function"
    },
    {
      "inputs": [],
      "name": "ROUTER",
      "outputs": [
        {
          "internalType": "address",
          "name": "",
          "type": "address"
        }
      ],
      "stateMutability": "view",
      "type": "function"
    },
    {
      "inputs": [
        {
          "internalType": "address",
          "name": "token",
          "type": "address"
        },
        {
          "internalType": "address",
          "name": "user",
          "type": "address"
        },
        {
          "internalType": "uint256",
          "name": "amount",
          "type": "uint256"
        }
      ],
      "name": "borrow",
      "outputs": [],
      "stateMutability": "nonpayable",
      "type": "function"
    },
    {
      "inputs": [
        {
          "internalType": "address",
          "name": "user",
          "type": "address"
        }
      ],
      "name": "borrowedTokens",
      "outputs": [
        {
          "internalType": "address[]",
          "name": "",
          "type": "address[]"
        }
      ],
      "stateMutability": "view",
      "type": "function"
    },
    {
      "inputs": [
        {
          "internalType": "address",
          "name": "token",
          "type": "address"
        },
        {
          "internalType": "address",
          "name": "user",
          "type": "address"
        },
        {
          "internalType": "uint256",
          "name": "amount",
          "type": "uint256"
        }
      ],
      "name": "deposit",
      "outputs": [],
      "stateMutability": "nonpayable",
      "type": "function"
    },
    {
      "inputs": [
        {
          "internalType": "address",
          "name": "market",
          "type": "address"
        },
        {
          "internalType": "address",
          "name": "collateral",
          "type": "address"
        },
        {
          "internalType": "uint256",
          "name": "amount",
          "type": "uint256"
        },
        {
          "internalType": "address",
          "name": "receiver",
          "type": "address"
        }
      ],
      "name": "depositCollateral",
      "outputs": [],
      "stateMutability": "nonpayable",
      "type": "function"
    },
    {
      "inputs": [
        {
          "internalType": "address",
          "name": "underlyingToken",
          "type": "address"
        }
      ],
      "name": "getAToken",
      "outputs": [
        {
          "internalType": "address",
          "name": "",
          "type": "address"
        }
      ],
      "stateMutability": "view",
      "type": "function"
    },
    {
      "inputs": [
        {
          "internalType": "address",
          "name": "user",
          "type": "address"
        }
      ],
      "name": "getAllTokensInfo",
      "outputs": [
        {
          "components": [
            {
              "internalType": "address",
              "name": "token",
              "type": "address"
            },
            {
              "internalType": "uint256",
              "name": "supplyRate",
              "type": "uint256"
            },
            {
              "internalType": "uint256",
              "name": "borrowRate",
              "type": "uint256"
            },
            {
              "internalType": "string",
              "name": "name",
              "type": "string"
            },
            {
              "internalType": "string",
              "name": "symbol",
              "type": "string"
            },
            {
              "internalType": "uint256",
              "name": "price",
              "type": "uint256"
            },
            {
              "internalType": "uint256",
              "name": "borrowBalance",
              "type": "uint256"
            },
            {
              "internalType": "uint256",
              "name": "balance",
              "type": "uint256"
            },
            {
              "internalType": "address",
              "name": "aToken",
              "type": "address"
            }
          ],
          "internalType": "struct AaveGateway.TokenInfo[]",
          "name": "",
          "type": "tuple[]"
        }
      ],
      "stateMutability": "view",
      "type": "function"
    },
    {
      "inputs": [
        {
          "internalType": "address",
          "name": "token",
          "type": "address"
        },
        {
          "internalType": "address",
          "name": "user",
          "type": "address"
        }
      ],
      "name": "getBalance",
      "outputs": [
        {
          "internalType": "uint256",
          "name": "",
          "type": "uint256"
        }
      ],
      "stateMutability": "view",
      "type": "function"
    },
    {
      "inputs": [
        {
          "internalType": "address",
          "name": "token",
          "type": "address"
        },
        {
          "internalType": "address",
          "name": "user",
          "type": "address"
        }
      ],
      "name": "getBorrowBalance",
      "outputs": [
        {
          "internalType": "uint256",
          "name": "",
          "type": "uint256"
        }
      ],
      "stateMutability": "view",
      "type": "function"
    },
    {
      "inputs": [
        {
          "internalType": "address",
          "name": "token",
          "type": "address"
        }
      ],
      "name": "getBorrowRate",
      "outputs": [
        {
          "internalType": "uint256",
          "name": "",
          "type": "uint256"
        },
        {
          "internalType": "bool",
          "name": "",
          "type": "bool"
        }
      ],
      "stateMutability": "view",
      "type": "function"
    },
    {
      "inputs": [
        {
          "internalType": "address",
          "name": "token",
          "type": "address"
        },
        {
          "components": [
            {
              "internalType": "address",
              "name": "token",
              "type": "address"
            },
            {
              "internalType": "uint256",
              "name": "amount",
              "type": "uint256"
            }
          ],
          "internalType": "struct IGateway.Collateral[]",
          "name": "collaterals",
          "type": "tuple[]"
        }
      ],
      "name": "getEncodedCollateralApprovals",
      "outputs": [
        {
          "internalType": "address[]",
          "name": "target",
          "type": "address[]"
        },
        {
          "internalType": "bytes[]",
          "name": "data",
          "type": "bytes[]"
        }
      ],
      "stateMutability": "view",
      "type": "function"
    },
    {
      "inputs": [
        {
          "internalType": "address",
          "name": "token",
          "type": "address"
        },
        {
          "internalType": "uint256",
          "name": "amount",
          "type": "uint256"
        }
      ],
      "name": "getEncodedDebtApproval",
      "outputs": [
        {
          "internalType": "address[]",
          "name": "target",
          "type": "address[]"
        },
        {
          "internalType": "bytes[]",
          "name": "data",
          "type": "bytes[]"
        }
      ],
      "stateMutability": "view",
      "type": "function"
    },
    {
      "inputs": [
        {
          "internalType": "address",
          "name": "token",
          "type": "address"
        },
        {
          "internalType": "address",
          "name": "user",
          "type": "address"
        }
      ],
      "name": "getLtv",
      "outputs": [
        {
          "internalType": "uint256",
          "name": "",
          "type": "uint256"
        }
      ],
      "stateMutability": "view",
      "type": "function"
    },
    {
      "inputs": [
        {
          "internalType": "address",
          "name": "token",
          "type": "address"
        },
        {
          "internalType": "address",
          "name": "user",
          "type": "address"
        }
      ],
      "name": "getPossibleCollaterals",
      "outputs": [
        {
          "internalType": "address[]",
          "name": "collateralAddresses",
          "type": "address[]"
        },
        {
          "internalType": "uint256[]",
          "name": "balances",
          "type": "uint256[]"
        },
        {
          "internalType": "string[]",
          "name": "symbols",
          "type": "string[]"
        },
        {
          "internalType": "uint8[]",
          "name": "decimals",
          "type": "uint8[]"
        }
      ],
      "stateMutability": "view",
      "type": "function"
    },
    {
      "inputs": [
        {
          "internalType": "address",
          "name": "token",
          "type": "address"
        }
      ],
      "name": "getSupplyRate",
      "outputs": [
        {
          "internalType": "uint256",
          "name": "",
          "type": "uint256"
        },
        {
          "internalType": "bool",
          "name": "",
          "type": "bool"
        }
      ],
      "stateMutability": "view",
      "type": "function"
    },
    {
      "inputs": [
        {
          "internalType": "address",
          "name": "market",
          "type": "address"
        }
      ],
      "name": "getSupportedCollaterals",
      "outputs": [
        {
          "internalType": "address[]",
          "name": "collateralAddresses",
          "type": "address[]"
        }
      ],
      "stateMutability": "view",
      "type": "function"
    },
    {
      "inputs": [
        {
          "internalType": "address",
          "name": "aToken",
          "type": "address"
        }
      ],
      "name": "getUnderlyingToken",
      "outputs": [
        {
          "internalType": "address",
          "name": "",
          "type": "address"
        }
      ],
      "stateMutability": "view",
      "type": "function"
    },
    {
      "inputs": [
        {
          "internalType": "address",
          "name": "market",
          "type": "address"
        },
        {
          "internalType": "address",
          "name": "collateral",
          "type": "address"
        }
      ],
      "name": "isCollateralSupported",
      "outputs": [
        {
          "internalType": "bool",
          "name": "isSupported",
          "type": "bool"
        }
      ],
      "stateMutability": "view",
      "type": "function"
    },
    {
      "inputs": [],
      "name": "poolAddressesProvider",
      "outputs": [
        {
          "internalType": "contract IPoolAddressesProvider",
          "name": "",
          "type": "address"
        }
      ],
      "stateMutability": "view",
      "type": "function"
    },
    {
      "inputs": [
        {
          "internalType": "address",
          "name": "token",
          "type": "address"
        },
        {
          "internalType": "address",
          "name": "user",
          "type": "address"
        },
        {
          "internalType": "uint256",
          "name": "amount",
          "type": "uint256"
        }
      ],
      "name": "repay",
      "outputs": [],
      "stateMutability": "nonpayable",
      "type": "function"
    },
    {
      "inputs": [],
      "name": "uiPoolDataProvider",
      "outputs": [
        {
          "internalType": "contract IUiPoolDataProviderV3",
          "name": "",
          "type": "address"
        }
      ],
      "stateMutability": "view",
      "type": "function"
    },
    {
      "inputs": [
        {
          "internalType": "address",
          "name": "",
          "type": "address"
        },
        {
          "internalType": "address",
          "name": "token",
          "type": "address"
        },
        {
          "internalType": "address",
          "name": "user",
          "type": "address"
        },
        {
          "internalType": "uint256",
          "name": "amount",
          "type": "uint256"
        }
      ],
      "name": "withdrawCollateral",
      "outputs": [
        {
          "internalType": "address",
          "name": "",
          "type": "address"
        }
      ],
      "stateMutability": "nonpayable",
      "type": "function"
    }
  ],
  "transactionHash": "0x4d92c836592fd276521276810fa2d28edba5561f7f631437bec7e0c64161c223",
  "args": [
    "0x712ad471D73031AB13f94E40acDac5f21E9e78d9",
    "0xa97684ead0e402dC232d5A977953DF7ECBaB3CDb",
    "0x5c5228aC8BC1528482514aF3e27E692495148717",
    "0"
  ],
  "numDeployments": 2,
  "solcInputHash": "3106b965c73b5bcac5da5b42eddeb291",
  "bytecode": "0x6101006040523480156200001257600080fd5b5060405162003c2c38038062003c2c8339810160408190526200003591620000da565b836001600160a01b038116620000915760405162461bcd60e51b815260206004820152601d60248201527f526f7574657220616464726573732063616e6e6f74206265207a65726f000000604482015260640160405180910390fd5b6001600160a01b03908116608052600160005592831660a052911660c05261ffff1660e052506200013f565b80516001600160a01b0381168114620000d557600080fd5b919050565b60008060008060808587031215620000f157600080fd5b620000fc85620000bd565b93506200010c60208601620000bd565b92506200011c60408601620000bd565b9150606085015161ffff811681146200013457600080fd5b939692955090935050565b60805160a05160c05160e0516139e862000244600039600081816101f8015281816112020152611d760152600081816103640152818161088201528181610ba001528181610c5d015281816116ce015281816119be01528181611b0f01528181611fdc01528181612272015281816124fb01526126410152600081816103090152818161084f0152818161098e01528181610b7201528181610c2701528181610ff20152818161156d015281816116a00152818161187d0152818161198f01528181611ae201528181611c1401528181611fa60152818161223f015281816124cc01526126120152600081816101b901528181610f66015261129d01526139e86000f3fe608060405234801561001057600080fd5b506004361061014d5760003560e01c80636b5441a9116100c3578063c3a3a9a71161007c578063c3a3a9a71461035f578063ceac55df14610386578063d4fac45d14610399578063d5c561d6146103ac578063d71275f6146103bf578063f5125d3f146103d257600080fd5b80636b5441a9146102b9578063732a52ee146102a657806378466113146102e157806380e17d87146103045780638340f5491461032b578063a342986c1461033e57600080fd5b8063401d45d011610115578063401d45d01461022d5780634108d0af1461024d5780635224372c146102605780635820ba631461027357806366e2d09b14610286578063691bcc88146102a657600080fd5b8063104e999d14610152578063118e31b71461017e5780631da649cf1461019f57806332fe7b26146101b45780633583849a146101f3575b600080fd5b610165610160366004612bcc565b6103e8565b6040516101759493929190612ccc565b60405180910390f35b61019161018c366004612bcc565b61079a565b604051908152602001610175565b6101b26101ad366004612d8a565b610982565b005b6101db7f000000000000000000000000000000000000000000000000000000000000000081565b6040516001600160a01b039091168152602001610175565b61021a7f000000000000000000000000000000000000000000000000000000000000000081565b60405161ffff9091168152602001610175565b61024061023b366004612dcb565b610b5b565b6040516101759190612de8565b6101b261025b366004612ed6565b610f49565b6101b261026e366004612d8a565b610f5a565b6101db610281366004612f29565b611290565b610299610294366004612dcb565b611689565b6040516101759190612f7a565b6101db6102b4366004612dcb565b611878565b6102cc6102c7366004612dcb565b611978565b60408051928352901515602083015201610175565b6102f46102ef366004612bcc565b611acb565b6040519015158152602001610175565b6101db7f000000000000000000000000000000000000000000000000000000000000000081565b6101b2610339366004612d8a565b611c08565b61035161034c366004612f8d565b611de4565b604051610175929190613014565b6101db7f000000000000000000000000000000000000000000000000000000000000000081565b610299610394366004612dcb565b611f8f565b6101916103a7366004612bcc565b61218a565b6103516103ba366004613086565b612363565b6102cc6103cd366004612dcb565b6124b5565b6101916103e0366004612bcc565b600092915050565b604051630401d45d60e41b81526001600160a01b0382166004820152606090819081908190600090309063401d45d090602401600060405180830381865afa158015610438573d6000803e3d6000fd5b505050506040513d6000823e601f3d908101601f191682016040526104609190810190613204565b90506000805b82518110156104b55760008382815181106104835761048361336c565b602002602001015160e0015111156104a3578161049f81613382565b9250505b806104ad81613382565b915050610466565b50806001600160401b038111156104ce576104ce6130b2565b6040519080825280602002602001820160405280156104f7578160200160208202803683370190505b509550806001600160401b03811115610512576105126130b2565b60405190808252806020026020018201604052801561053b578160200160208202803683370190505b509450806001600160401b03811115610556576105566130b2565b60405190808252806020026020018201604052801561058957816020015b60608152602001906001900390816105745790505b509350806001600160401b038111156105a4576105a46130b2565b6040519080825280602002602001820160405280156105cd578160200160208202803683370190505b5092506000805b835181101561078d5760008482815181106105f1576105f161336c565b602002602001015160e00151111561077b578381815181106106155761061561336c565b6020026020010151600001518883815181106106335761063361336c565b60200260200101906001600160a01b031690816001600160a01b0316815250508381815181106106655761066561336c565b602002602001015160e001518783815181106106835761068361336c565b6020026020010181815250508381815181106106a1576106a161336c565b6020026020010151608001518683815181106106bf576106bf61336c565b60200260200101819052508381815181106106dc576106dc61336c565b6020026020010151600001516001600160a01b031663313ce5676040518163ffffffff1660e01b8152600401602060405180830381865afa158015610725573d6000803e3d6000fd5b505050506040513d601f19601f8201168201806040525081019061074991906133ba565b85838151811061075b5761075b61336c565b60ff909216602092830291909101909101528161077781613382565b9250505b8061078581613382565b9150506105d4565b5050505092959194509250565b60008060006107a8856125fb565b92509250508080156107c257506001600160a01b03821615155b15610838576040516370a0823160e01b81526001600160a01b0385811660048301528316906370a0823190602401602060405180830381865afa925050508015610829575060408051601f3d908101601f19168201909252610826918101906133d5565b60015b1561083857925061097c915050565b6040516301465d3360e61b81526001600160a01b037f00000000000000000000000000000000000000000000000000000000000000008116600483015285811660248301526000917f0000000000000000000000000000000000000000000000000000000000000000909116906351974cc090604401600060405180830381865afa1580156108cb573d6000803e3d6000fd5b505050506040513d6000823e601f3d908101601f191682016040526108f391908101906133fe565b50905060005b815181101561097357866001600160a01b031682828151811061091e5761091e61336c565b6020026020010151600001516001600160a01b0316036109615781818151811061094a5761094a61336c565b60200260200101516060015194505050505061097c565b8061096b81613382565b9150506108f9565b50600093505050505b92915050565b61098a612767565b60007f00000000000000000000000000000000000000000000000000000000000000006001600160a01b031663026b1d5f6040518163ffffffff1660e01b8152600401602060405180830381865afa1580156109ea573d6000803e3d6000fd5b505050506040513d601f19601f82011682018060405250810190610a0e91906134e9565b90506001600160a01b038116610a3f5760405162461bcd60e51b8152600401610a3690613506565b60405180910390fd5b610a546001600160a01b038516333085612791565b60405163095ea7b360e01b81526001600160a01b0382811660048301526024820184905285169063095ea7b3906044016020604051808303816000875af1158015610aa3573d6000803e3d6000fd5b505050506040513d601f19601f82011682018060405250810190610ac79190613534565b5060405163573ade8160e01b81526001600160a01b0385811660048301526024820184905260026044830152848116606483015282169063573ade81906084016020604051808303816000875af1158015610b26573d6000803e3d6000fd5b505050506040513d601f19601f82011682018060405250810190610b4a91906133d5565b5050610b566001600055565b505050565b60405163ec489c2160e01b81526001600160a01b037f0000000000000000000000000000000000000000000000000000000000000000811660048301526060916000917f0000000000000000000000000000000000000000000000000000000000000000169063ec489c2190602401600060405180830381865afa158015610be7573d6000803e3d6000fd5b505050506040513d6000823e601f3d908101601f19168201604052610c0f91908101906135c6565b506040516301465d3360e61b81526001600160a01b037f00000000000000000000000000000000000000000000000000000000000000008116600483015285811660248301529192506000917f000000000000000000000000000000000000000000000000000000000000000016906351974cc090604401600060405180830381865afa158015610ca4573d6000803e3d6000fd5b505050506040513d6000823e601f3d908101601f19168201604052610ccc91908101906133fe565b509050600082516001600160401b03811115610cea57610cea6130b2565b604051908082528060200260200182016040528015610d7c57816020015b610d6960405180610120016040528060006001600160a01b031681526020016000815260200160008152602001606081526020016060815260200160008152602001600081526020016000815260200160006001600160a01b031681525090565b815260200190600190039081610d085790505b50905060005b8351811015610f40576000610db1858381518110610da257610da261336c565b602002602001015188866127f8565b90506000610dd9868481518110610dca57610dca61336c565b6020026020010151898761290f565b9050604051806101200160405280878581518110610df957610df961336c565b6020026020010151600001516001600160a01b03168152602001878581518110610e2557610e2561336c565b60200260200101516101c001516001600160801b03168152602001878581518110610e5257610e5261336c565b60200260200101516101e001516001600160801b03168152602001878581518110610e7f57610e7f61336c565b6020026020010151602001518152602001878581518110610ea257610ea261336c565b6020026020010151604001518152602001878581518110610ec557610ec561336c565b60200260200101516102c001518152602001828152602001838152602001878581518110610ef557610ef561336c565b602002602001015161022001516001600160a01b0316815250848481518110610f2057610f2061336c565b602002602001018190525050508080610f3890613382565b915050610d82565b50949350505050565b610f54838284611c08565b50505050565b81336001600160a01b037f0000000000000000000000000000000000000000000000000000000000000000161480610f9a5750336001600160a01b038216145b610fe65760405162461bcd60e51b815260206004820152601c60248201527f4f6e6c7920726f75746572206f722073656c662063616e2063616c6c000000006044820152606401610a36565b610fee612767565b60007f00000000000000000000000000000000000000000000000000000000000000006001600160a01b031663026b1d5f6040518163ffffffff1660e01b8152600401602060405180830381865afa15801561104e573d6000803e3d6000fd5b505050506040513d601f19601f8201168201806040525081019061107291906134e9565b90506001600160a01b03811661109a5760405162461bcd60e51b8152600401610a3690613506565b6000806110a6876125fb565b92509250508080156110c057506001600160a01b03821615155b61110c5760405162461bcd60e51b815260206004820152601f60248201527f546f6b656e206973206e6f7420612076616c6964206465627420746f6b656e006044820152606401610a36565b604051631af5db4960e21b81526001600160a01b03878116600483015230602483015260009190841690636bd76d2490604401602060405180830381865afa15801561115c573d6000803e3d6000fd5b505050506040513d601f19601f8201168201806040525081019061118091906133d5565b9050858110156111d25760405162461bcd60e51b815260206004820152601d60248201527f496e73756666696369656e7420626f72726f7720616c6c6f77616e63650000006044820152606401610a36565b60405163a415bcad60e01b81526001600160a01b038981166004830152602482018890526002604483015261ffff7f0000000000000000000000000000000000000000000000000000000000000000166064830152888116608483015285169063a415bcad9060a401600060405180830381600087803b15801561125557600080fd5b505af1158015611269573d6000803e3d6000fd5b50611282925050506001600160a01b0389163388612a19565b50505050610f546001600055565b6000336001600160a01b037f000000000000000000000000000000000000000000000000000000000000000016146113015760405162461bcd60e51b815260206004820152601460248201527313db9b1e481c9bdd5d195c8818d85b8818d85b1b60621b6044820152606401610a36565b600061130c85611878565b6040516370a0823160e01b81526001600160a01b03868116600483015291925082918591908316906370a0823190602401602060405180830381865afa15801561135a573d6000803e3d6000fd5b505050506040513d601f19601f8201168201806040525081019061137e91906133d5565b10156113cc5760405162461bcd60e51b815260206004820152601f60248201527f496e73756666696369656e742062616c616e6365206f662061746f6b656e73006044820152606401610a36565b604051636eb1769f60e11b81526001600160a01b0386811660048301523060248301526000919083169063dd62ed3e90604401602060405180830381865afa15801561141c573d6000803e3d6000fd5b505050506040513d601f19601f8201168201806040525081019061144091906133d5565b90508481101561148b5760405162461bcd60e51b8152602060048201526016602482015275496e73756666696369656e7420616c6c6f77616e636560501b6044820152606401610a36565b6040516323b872dd60e01b81526001600160a01b038781166004830152306024830152604482018790528316906323b872dd906064016020604051808303816000875af11580156114e0573d6000803e3d6000fd5b505050506040513d601f19601f820116820180604052508101906115049190613534565b506000836001600160a01b031663b16a19de6040518163ffffffff1660e01b8152600401602060405180830381865afa158015611545573d6000803e3d6000fd5b505050506040513d601f19601f8201168201806040525081019061156991906134e9565b90507f00000000000000000000000000000000000000000000000000000000000000006001600160a01b031663026b1d5f6040518163ffffffff1660e01b8152600401602060405180830381865afa1580156115c9573d6000803e3d6000fd5b505050506040513d601f19601f820116820180604052508101906115ed91906134e9565b604051631a4ca37b60e21b81526001600160a01b0383811660048301526024820189905230604483015291909116906369328dec906064016020604051808303816000875af1158015611644573d6000803e3d6000fd5b505050506040513d601f19601f8201168201806040525081019061166891906133d5565b5061167d6001600160a01b0382163388612a19565b98975050505050505050565b60405163ec489c2160e01b81526001600160a01b037f0000000000000000000000000000000000000000000000000000000000000000811660048301526060916000917f0000000000000000000000000000000000000000000000000000000000000000169063ec489c2190602401600060405180830381865afa158015611715573d6000803e3d6000fd5b505050506040513d6000823e601f3d908101601f1916820160405261173d91908101906135c6565b5090506000805b82518110156117915782818151811061175f5761175f61336c565b602002602001015161010001511561177f578161177b81613382565b9250505b8061178981613382565b915050611744565b50806001600160401b038111156117aa576117aa6130b2565b6040519080825280602002602001820160405280156117d3578160200160208202803683370190505b5092506000805b835181101561186f578381815181106117f5576117f561336c565b602002602001015161010001511561185d578381815181106118195761181961336c565b6020026020010151600001518583815181106118375761183761336c565b6001600160a01b03909216602092830291909101909101528161185981613382565b9250505b8061186781613382565b9150506117da565b50505050919050565b6000807f00000000000000000000000000000000000000000000000000000000000000006001600160a01b031663e860accb6040518163ffffffff1660e01b8152600401602060405180830381865afa1580156118d9573d6000803e3d6000fd5b505050506040513d601f19601f820116820180604052508101906118fd91906134e9565b6040516334924edb60e21b81526001600160a01b03858116600483015291925060009183169063d2493b6c90602401606060405180830381865afa158015611949573d6000803e3d6000fd5b505050506040513d601f19601f8201168201806040525081019061196d9190613949565b509095945050505050565b60405163ec489c2160e01b81526001600160a01b037f000000000000000000000000000000000000000000000000000000000000000081166004830152600091829182917f00000000000000000000000000000000000000000000000000000000000000009091169063ec489c2190602401600060405180830381865afa158015611a07573d6000803e3d6000fd5b505050506040513d6000823e601f3d908101601f19168201604052611a2f91908101906135c6565b50905060005b8151811015611abe57846001600160a01b0316828281518110611a5a57611a5a61336c565b6020026020010151600001516001600160a01b031603611aac57818181518110611a8657611a8661336c565b60200260200101516101c001516001816001600160801b03169150935093505050915091565b80611ab681613382565b915050611a35565b5060009485945092505050565b60405163ec489c2160e01b81526001600160a01b037f00000000000000000000000000000000000000000000000000000000000000008116600483015260009182917f0000000000000000000000000000000000000000000000000000000000000000169063ec489c2190602401600060405180830381865afa158015611b56573d6000803e3d6000fd5b505050506040513d6000823e601f3d908101601f19168201604052611b7e91908101906135c6565b50905060005b8151811015611bfd57836001600160a01b0316828281518110611ba957611ba961336c565b6020026020010151600001516001600160a01b031603611beb57818181518110611bd557611bd561336c565b602002602001015161010001519250505061097c565b80611bf581613382565b915050611b84565b506000949350505050565b611c10612767565b60007f00000000000000000000000000000000000000000000000000000000000000006001600160a01b031663026b1d5f6040518163ffffffff1660e01b8152600401602060405180830381865afa158015611c70573d6000803e3d6000fd5b505050506040513d601f19601f82011682018060405250810190611c9491906134e9565b90506001600160a01b038116611cbc5760405162461bcd60e51b8152600401610a3690613506565b611cd16001600160a01b038516333085612791565b60405163095ea7b360e01b81526001600160a01b0382811660048301526024820184905285169063095ea7b3906044016020604051808303816000875af1158015611d20573d6000803e3d6000fd5b505050506040513d601f19601f82011682018060405250810190611d449190613534565b5060405163617ba03760e01b81526001600160a01b03858116600483015260248201849052848116604483015261ffff7f000000000000000000000000000000000000000000000000000000000000000016606483015282169063617ba03790608401600060405180830381600087803b158015611dc157600080fd5b505af1158015611dd5573d6000803e3d6000fd5b5050505050610b566001600055565b606080826001600160401b03811115611dff57611dff6130b2565b604051908082528060200260200182016040528015611e28578160200160208202803683370190505b509150826001600160401b03811115611e4357611e436130b2565b604051908082528060200260200182016040528015611e7657816020015b6060815260200190600190039081611e615790505b50905060005b83811015611f8657611eaf858583818110611e9957611e9961336c565b6102b49260206040909202019081019150612dcb565b838281518110611ec157611ec161336c565b6001600160a01b039092166020928302919091019091015263095ea7b360e01b30868684818110611ef457611ef461336c565b90506040020160200135604051602401611f239291906001600160a01b03929092168252602082015260400190565b604051602081830303815290604052906001600160e01b0319166020820180516001600160e01b038381831617835250505050828281518110611f6857611f6861336c565b60200260200101819052508080611f7e90613382565b915050611e7c565b50935093915050565b6040516301465d3360e61b81526001600160a01b037f00000000000000000000000000000000000000000000000000000000000000008116600483015282811660248301526060916000917f000000000000000000000000000000000000000000000000000000000000000016906351974cc090604401600060405180830381865afa158015612023573d6000803e3d6000fd5b505050506040513d6000823e601f3d908101601f1916820160405261204b91908101906133fe565b5090506000805b82518110156120a157600083828151811061206f5761206f61336c565b602002602001015160600151111561208f578161208b81613382565b9250505b8061209981613382565b915050612052565b506000816001600160401b038111156120bc576120bc6130b2565b6040519080825280602002602001820160405280156120e5578160200160208202803683370190505b5090506000805b845181101561196d5760008582815181106121095761210961336c565b60200260200101516060015111156121785784818151811061212d5761212d61336c565b60200260200101516000015183838061214590613382565b9450815181106121575761215761336c565b60200260200101906001600160a01b031690816001600160a01b0316815250505b8061218281613382565b9150506120ec565b6000806000612198856125fb565b92505091508080156121b257506001600160a01b03821615155b15612228576040516370a0823160e01b81526001600160a01b0385811660048301528316906370a0823190602401602060405180830381865afa925050508015612219575060408051601f3d908101601f19168201909252612216918101906133d5565b60015b1561222857925061097c915050565b6040516301465d3360e61b81526001600160a01b037f00000000000000000000000000000000000000000000000000000000000000008116600483015285811660248301526000917f0000000000000000000000000000000000000000000000000000000000000000909116906351974cc090604401600060405180830381865afa1580156122bb573d6000803e3d6000fd5b505050506040513d6000823e601f3d908101601f191682016040526122e391908101906133fe565b50905060005b815181101561097357866001600160a01b031682828151811061230e5761230e61336c565b6020026020010151600001516001600160a01b0316036123515781818151811061233a5761233a61336c565b60200260200101516020015194505050505061097c565b8061235b81613382565b9150506122e9565b606080600080612372866125fb565b925092505080801561238c57506001600160a01b03821615155b6123d85760405162461bcd60e51b815260206004820152601f60248201527f546f6b656e206973206e6f7420612076616c6964206465627420746f6b656e006044820152606401610a36565b604080516001808252818301909252906020808301908036833701905050604080516001808252818301909252919550816020015b606081526020019060019003908161240d57905050925081846000815181106124385761243861336c565b6001600160a01b0390921660209283029190910190910152604051306024820152600019604482015260640160408051601f198184030181529190526020810180516001600160e01b0316630c04a8a160e41b179052835184906000906124a1576124a161336c565b602002602001018190525050509250929050565b60405163ec489c2160e01b81526001600160a01b037f000000000000000000000000000000000000000000000000000000000000000081166004830152600091829182917f00000000000000000000000000000000000000000000000000000000000000009091169063ec489c2190602401600060405180830381865afa158015612544573d6000803e3d6000fd5b505050506040513d6000823e601f3d908101601f1916820160405261256c91908101906135c6565b50905060005b8151811015611abe57846001600160a01b03168282815181106125975761259761336c565b6020026020010151600001516001600160a01b0316036125e9578181815181106125c3576125c361336c565b60200260200101516101e001516001816001600160801b03169150935093505050915091565b806125f381613382565b915050612572565b60405163ec489c2160e01b81526001600160a01b037f000000000000000000000000000000000000000000000000000000000000000081166004830152600091829182917f00000000000000000000000000000000000000000000000000000000000000009091169063ec489c2190602401600060405180830381865afa9250505080156126ab57506040513d6000823e601f3d908101601f191682016040526126a891908101906135c6565b60015b156127565760005b825181101561275257866001600160a01b03168382815181106126d8576126d861336c565b6020026020010151600001516001600160a01b031603612740578281815181106127045761270461336c565b602002602001015161022001518382815181106127235761272361336c565b602002602001015161024001516001955095509550505050612760565b8061274a81613382565b9150506126b3565b5050505b5060009150819050805b9193909250565b60026000540361278a57604051633ee5aeb560e01b815260040160405180910390fd5b6002600055565b6040516001600160a01b038481166024830152838116604483015260648201839052610f549186918216906323b872dd906084015b604051602081830303815290604052915060e01b6020820180516001600160e01b038381831617835250505050612a4a565b6102208301516000906001600160a01b031615612884576102208401516040516370a0823160e01b81526001600160a01b038581166004830152909116906370a0823190602401602060405180830381865afa925050508015612878575060408051601f3d908101601f19168201909252612875918101906133d5565b60015b15612884579050612908565b60005b82518110156129025784600001516001600160a01b03168382815181106128b0576128b061336c565b6020026020010151600001516001600160a01b0316036128f0578281815181106128dc576128dc61336c565b602002602001015160200151915050612908565b806128fa81613382565b915050612887565b50600090505b9392505050565b6102408301516000906001600160a01b03161561299b576102408401516040516370a0823160e01b81526001600160a01b038581166004830152909116906370a0823190602401602060405180830381865afa92505050801561298f575060408051601f3d908101601f1916820190925261298c918101906133d5565b60015b1561299b579050612908565b60005b82518110156129025784600001516001600160a01b03168382815181106129c7576129c761336c565b6020026020010151600001516001600160a01b031603612a07578281815181106129f3576129f361336c565b602002602001015160600151915050612908565b80612a1181613382565b91505061299e565b6040516001600160a01b03838116602483015260448201839052610b5691859182169063a9059cbb906064016127c6565b6000612a5f6001600160a01b03841683612aad565b90508051600014158015612a84575080806020019051810190612a829190613534565b155b15610b5657604051635274afe760e01b81526001600160a01b0384166004820152602401610a36565b60606129088383600084600080856001600160a01b03168486604051612ad39190613996565b60006040518083038185875af1925050503d8060008114612b10576040519150601f19603f3d011682016040523d82523d6000602084013e612b15565b606091505b5091509150612b25868383612b2f565b9695505050505050565b606082612b4457612b3f82612b8b565b612908565b8151158015612b5b57506001600160a01b0384163b155b15612b8457604051639996b31560e01b81526001600160a01b0385166004820152602401610a36565b5080612908565b805115612b9b5780518082602001fd5b604051630a12f52160e11b815260040160405180910390fd5b50565b6001600160a01b0381168114612bb457600080fd5b60008060408385031215612bdf57600080fd5b8235612bea81612bb7565b91506020830135612bfa81612bb7565b809150509250929050565b600081518084526020808501945080840160005b83811015612c3e5781516001600160a01b031687529582019590820190600101612c19565b509495945050505050565b60005b83811015612c64578181015183820152602001612c4c565b50506000910152565b60008151808452612c85816020860160208601612c49565b601f01601f19169290920160200192915050565b600081518084526020808501945080840160005b83811015612c3e57815160ff1687529582019590820190600101612cad565b608081526000612cdf6080830187612c05565b82810360208481019190915286518083528782019282019060005b81811015612d1657845183529383019391830191600101612cfa565b5050848103604086015286518082528282019350600581901b8201830183890160005b83811015612d6757601f19858403018752612d55838351612c6d565b96860196925090850190600101612d39565b50508681036060880152612d7b8189612c99565b9b9a5050505050505050505050565b600080600060608486031215612d9f57600080fd5b8335612daa81612bb7565b92506020840135612dba81612bb7565b929592945050506040919091013590565b600060208284031215612ddd57600080fd5b813561290881612bb7565b60006020808301818452808551808352604092508286019150828160051b87010184880160005b83811015612ec857888303603f19018552815180516001600160a01b03168452610120888201518986015287820151888601526060808301518282880152612e5983880182612c6d565b9250505060808083015186830382880152612e748382612c6d565b60a0858101519089015260c0808601519089015260e08086015190890152610100948501516001600160a01b038116868a0152949093509150612eb49050565b509588019593505090860190600101612e0f565b509098975050505050505050565b60008060008060808587031215612eec57600080fd5b8435612ef781612bb7565b93506020850135612f0781612bb7565b9250604085013591506060850135612f1e81612bb7565b939692955090935050565b60008060008060808587031215612f3f57600080fd5b8435612f4a81612bb7565b93506020850135612f5a81612bb7565b92506040850135612f6a81612bb7565b9396929550929360600135925050565b6020815260006129086020830184612c05565b600080600060408486031215612fa257600080fd5b8335612fad81612bb7565b925060208401356001600160401b0380821115612fc957600080fd5b818601915086601f830112612fdd57600080fd5b813581811115612fec57600080fd5b8760208260061b850101111561300157600080fd5b6020830194508093505050509250925092565b6040815260006130276040830185612c05565b6020838203818501528185518084528284019150828160051b85010183880160005b8381101561307757601f19878403018552613065838351612c6d565b94860194925090850190600101613049565b50909998505050505050505050565b6000806040838503121561309957600080fd5b82356130a481612bb7565b946020939093013593505050565b634e487b7160e01b600052604160045260246000fd5b60405161012081016001600160401b03811182821017156130eb576130eb6130b2565b60405290565b604051608081016001600160401b03811182821017156130eb576130eb6130b2565b60405161052081016001600160401b03811182821017156130eb576130eb6130b2565b604051601f8201601f191681016001600160401b038111828210171561315e5761315e6130b2565b604052919050565b60006001600160401b0382111561317f5761317f6130b2565b5060051b60200190565b805161319481612bb7565b919050565b600082601f8301126131aa57600080fd5b81516001600160401b038111156131c3576131c36130b2565b6131d6601f8201601f1916602001613136565b8181528460208386010111156131eb57600080fd5b6131fc826020830160208701612c49565b949350505050565b6000602080838503121561321757600080fd5b82516001600160401b038082111561322e57600080fd5b818501915085601f83011261324257600080fd5b815161325561325082613166565b613136565b81815260059190911b8301840190848101908883111561327457600080fd5b8585015b8381101561335f5780518581111561328f57600080fd5b8601610120818c03601f19018113156132a757600080fd5b6132af6130c8565b6132ba8a8401613189565b815260408301518a820152606083015160408201526080830151888111156132e25760008081fd5b6132f08e8c83870101613199565b60608301525060a0808401518981111561330a5760008081fd5b6133188f8d83880101613199565b60808401525060c0808501518284015260e09150818501518184015250610100808501518284015261334b848601613189565b908301525085525050918601918601613278565b5098975050505050505050565b634e487b7160e01b600052603260045260246000fd5b6000600182016133a257634e487b7160e01b600052601160045260246000fd5b5060010190565b805160ff8116811461319457600080fd5b6000602082840312156133cc57600080fd5b612908826133a9565b6000602082840312156133e757600080fd5b5051919050565b8051801515811461319457600080fd5b600080604080848603121561341257600080fd5b83516001600160401b0381111561342857600080fd5b8401601f8101861361343957600080fd5b8051602061344961325083613166565b82815260079290921b8301810191818101908984111561346857600080fd5b938201935b838510156134cd576080858b0312156134865760008081fd5b61348e6130f1565b855161349981612bb7565b815285840151848201526134ae8787016133ee565b818801526060868101519082015282526080909401939082019061346d565b96506134dc90508782016133a9565b9450505050509250929050565b6000602082840312156134fb57600080fd5b815161290881612bb7565b602080825260149082015273141bdbdb081859191c995cdcc81b9bdd081cd95d60621b604082015260600190565b60006020828403121561354657600080fd5b612908826133ee565b80516001600160801b038116811461319457600080fd5b805164ffffffffff8116811461319457600080fd5b60006080828403121561358d57600080fd5b6135956130f1565b90508151815260208201516020820152604082015160408201526135bb606083016133a9565b606082015292915050565b60008060a083850312156135d957600080fd5b82516001600160401b03808211156135f057600080fd5b818501915085601f83011261360457600080fd5b8151602061361461325083613166565b82815260059290921b8401810191818101908984111561363357600080fd5b8286015b848110156139385780518681111561364e57600080fd5b8701610520818d03601f190181131561366657600080fd5b61366e613113565b613679878401613189565b815260408301518981111561368d57600080fd5b61369b8f8983870101613199565b88830152506060830151898111156136b35760008081fd5b6136c18f8983870101613199565b604083015250608080840151606083015260a0840151818301525060c08084015160a083015260e08085015182840152610100915081850151818401525061012061370d8186016133ee565b8284015261014091506137218286016133ee565b908301526101606137338582016133ee565b8284015261018091506137478286016133ee565b908301526101a061375985820161354f565b828401526101c0915061376d82860161354f565b908301526101e061377f85820161354f565b82840152610200915061379382860161354f565b908301526102206137a5858201613566565b8284015261024091506137b9828601613189565b908301526102606137cb858201613189565b8284015261028091506137df828601613189565b81840152506102a080850151828401526102c091508185015181840152506102e080850151828401526103009150613818828601613189565b818401525061032080850151828401526103409150818501518184015250610360808501518284015261038091508185015181840152506103a061385d8186016133ee565b828401526103c091506138718286016133ee565b908301526103e061388385820161354f565b82840152610400915061389782860161354f565b908301526104206138a985820161354f565b8284015261044091506138bd8286016133ee565b8184015250610460808501518284015261048091508185015181840152506104a080850151828401526104c091508185015181840152506104e06139028186016133ee565b8284015261050091506139168286016133ee565b9083015261392584840161354f565b9082015285525050918301918301613637565b5096506134dc90508888830161357b565b60008060006060848603121561395e57600080fd5b835161396981612bb7565b602085015190935061397a81612bb7565b604085015190925061398b81612bb7565b809150509250925092565b600082516139a8818460208701612c49565b919091019291505056fea264697066735822122004918abf68f827d0bf6df03c431b57e701ffd489ad7c349a56f4690593f9e6f264736f6c63430008140033",
  "devdoc": {
    "errors": {
      "AddressEmptyCode(address)": [
        {
          "details": "There's no code at `target` (it is not a contract)."
        }
      ],
      "AddressInsufficientBalance(address)": [
        {
          "details": "The ETH balance of the account is not enough to perform the operation."
        }
      ],
      "FailedInnerCall()": [
        {
          "details": "A call to an address target failed. The target may have reverted."
        }
      ],
      "ReentrancyGuardReentrantCall()": [
        {
          "details": "Unauthorized reentrant call."
        }
      ],
      "SafeERC20FailedOperation(address)": [
        {
          "details": "An operation with an ERC20 token failed."
        }
      ]
    },
    "kind": "dev",
    "methods": {
      "borrow(address,address,uint256)": {
        "details": "Can be called by Router or directly by the user",
        "params": {
          "amount": "The amount to borrow",
          "token": "The token to borrow",
          "user": "The user to borrow for"
        }
      },
      "getAllTokensInfo(address)": {
        "details": "This function caches the reserves and user reserves data to avoid multiple heavy calls."
      },
      "getBalance(address,address)": {
        "details": "First attempts to call balanceOf on the associated aToken; if that fails, falls back to user reserves data."
      },
      "getBorrowBalance(address,address)": {
        "details": "First attempts to call balanceOf on the associated variable debt token; if that fails, falls back to user reserves data."
      },
      "getSupportedCollaterals(address)": {
        "params": {
          "market": "The address of the market token (not used in Aave as all collaterals are cross-market)"
        },
        "returns": {
          "collateralAddresses": "Array of supported collateral token addresses"
        }
      },
      "isCollateralSupported(address,address)": {
        "params": {
          "collateral": "The address of the collateral token to check",
          "market": "The address of the market token (not used in Aave as all collaterals are cross-market)"
        },
        "returns": {
          "isSupported": "Whether the collateral is supported in Aave"
        }
      }
    },
    "version": 1
  },
  "userdoc": {
    "kind": "user",
    "methods": {
      "borrow(address,address,uint256)": {
        "notice": "Borrow tokens from the protocol"
      },
      "borrowedTokens(address)": {
        "notice": "Returns the list of tokens that the user has borrowed."
      },
      "getAllTokensInfo(address)": {
        "notice": "Returns all token info for a given user."
      },
      "getBalance(address,address)": {
        "notice": "Gets the balance for a given token and user."
      },
      "getBorrowBalance(address,address)": {
        "notice": "Gets the borrow balance for a given token and user."
      },
      "getSupportedCollaterals(address)": {
        "notice": "Get all supported collaterals for a specific market in Aave"
      },
      "isCollateralSupported(address,address)": {
        "notice": "Check if a collateral token is supported for a specific market in Aave"
      }
    },
    "version": 1
  },
  "storageLayout": {
    "storage": [
      {
        "astId": 3827,
        "contract": "contracts/gateways/AaveGateway.sol:AaveGateway",
        "label": "_status",
        "offset": 0,
        "slot": "0",
        "type": "t_uint256"
      }
    ],
    "types": {
      "t_uint256": {
        "encoding": "inplace",
        "label": "uint256",
        "numberOfBytes": "32"
      }
    }
  }
}