{
  "address": "0x920E3f46e54e524f08d4a7c11B38F283525048E2",
  "abi": [
    {
      "inputs": [
        {
          "internalType": "address",
          "name": "router",
          "type": "address"
        },
        {
          "internalType": "address",
          "name": "_poolAddressesProvider",
          "type": "address"
        },
        {
          "internalType": "uint16",
          "name": "_referralCode",
          "type": "uint16"
        }
      ],
      "stateMutability": "nonpayable",
      "type": "constructor"
    },
    {
      "inputs": [
        {
          "internalType": "address",
          "name": "target",
          "type": "address"
        }
      ],
      "name": "AddressEmptyCode",
      "type": "error"
    },
    {
      "inputs": [
        {
          "internalType": "address",
          "name": "account",
          "type": "address"
        }
      ],
      "name": "AddressInsufficientBalance",
      "type": "error"
    },
    {
      "inputs": [],
      "name": "FailedInnerCall",
      "type": "error"
    },
    {
      "inputs": [],
      "name": "ReentrancyGuardReentrantCall",
      "type": "error"
    },
    {
      "inputs": [
        {
          "internalType": "address",
          "name": "token",
          "type": "address"
        }
      ],
      "name": "SafeERC20FailedOperation",
      "type": "error"
    },
    {
      "inputs": [],
      "name": "REFERRAL_CODE",
      "outputs": [
        {
          "internalType": "uint16",
          "name": "",
          "type": "uint16"
        }
      ],
      "stateMutability": "view",
      "type": "function"
    },
    {
      "inputs": [],
      "name": "ROUTER",
      "outputs": [
        {
          "internalType": "address",
          "name": "",
          "type": "address"
        }
      ],
      "stateMutability": "view",
      "type": "function"
    },
    {
      "inputs": [
        {
          "components": [
            {
              "internalType": "enum ProtocolTypes.LendingOp",
              "name": "op",
              "type": "uint8"
            },
            {
              "internalType": "address",
              "name": "token",
              "type": "address"
            },
            {
              "internalType": "address",
              "name": "user",
              "type": "address"
            },
            {
              "internalType": "uint256",
              "name": "amount",
              "type": "uint256"
            },
            {
              "internalType": "bytes",
              "name": "context",
              "type": "bytes"
            },
            {
              "components": [
                {
                  "internalType": "uint256",
                  "name": "index",
                  "type": "uint256"
                }
              ],
              "internalType": "struct ProtocolTypes.InputPtr",
              "name": "input",
              "type": "tuple"
            }
          ],
          "internalType": "struct ProtocolTypes.LendingInstruction[]",
          "name": "instrs",
          "type": "tuple[]"
        },
        {
          "internalType": "address",
          "name": "caller",
          "type": "address"
        },
        {
          "components": [
            {
              "internalType": "address",
              "name": "token",
              "type": "address"
            },
            {
              "internalType": "uint256",
              "name": "amount",
              "type": "uint256"
            }
          ],
          "internalType": "struct ProtocolTypes.Output[]",
          "name": "inputs",
          "type": "tuple[]"
        }
      ],
      "name": "authorize",
      "outputs": [
        {
          "internalType": "address[]",
          "name": "targets",
          "type": "address[]"
        },
        {
          "internalType": "bytes[]",
          "name": "data",
          "type": "bytes[]"
        },
        {
          "components": [
            {
              "internalType": "address",
              "name": "token",
              "type": "address"
            },
            {
              "internalType": "uint256",
              "name": "amount",
              "type": "uint256"
            }
          ],
          "internalType": "struct ProtocolTypes.Output[]",
          "name": "produced",
          "type": "tuple[]"
        }
      ],
      "stateMutability": "view",
      "type": "function"
    },
    {
      "inputs": [
        {
          "internalType": "address",
          "name": "token",
          "type": "address"
        },
        {
          "internalType": "address",
          "name": "user",
          "type": "address"
        },
        {
          "internalType": "uint256",
          "name": "amount",
          "type": "uint256"
        }
      ],
      "name": "borrow",
      "outputs": [],
      "stateMutability": "nonpayable",
      "type": "function"
    },
    {
      "inputs": [
        {
          "components": [
            {
              "internalType": "enum ProtocolTypes.LendingOp",
              "name": "op",
              "type": "uint8"
            },
            {
              "internalType": "address",
              "name": "token",
              "type": "address"
            },
            {
              "internalType": "address",
              "name": "user",
              "type": "address"
            },
            {
              "internalType": "uint256",
              "name": "amount",
              "type": "uint256"
            },
            {
              "internalType": "bytes",
              "name": "context",
              "type": "bytes"
            },
            {
              "components": [
                {
                  "internalType": "uint256",
                  "name": "index",
                  "type": "uint256"
                }
              ],
              "internalType": "struct ProtocolTypes.InputPtr",
              "name": "input",
              "type": "tuple"
            }
          ],
          "internalType": "struct ProtocolTypes.LendingInstruction[]",
          "name": "instrs",
          "type": "tuple[]"
        },
        {
          "internalType": "address",
          "name": "",
          "type": "address"
        },
        {
          "components": [
            {
              "internalType": "address",
              "name": "token",
              "type": "address"
            },
            {
              "internalType": "uint256",
              "name": "amount",
              "type": "uint256"
            }
          ],
          "internalType": "struct ProtocolTypes.Output[]",
          "name": "inputs",
          "type": "tuple[]"
        }
      ],
      "name": "deauthorize",
      "outputs": [
        {
          "internalType": "address[]",
          "name": "targets",
          "type": "address[]"
        },
        {
          "internalType": "bytes[]",
          "name": "data",
          "type": "bytes[]"
        }
      ],
      "stateMutability": "view",
      "type": "function"
    },
    {
      "inputs": [
        {
          "internalType": "address",
          "name": "token",
          "type": "address"
        },
        {
          "internalType": "address",
          "name": "onBehalfOf",
          "type": "address"
        },
        {
          "internalType": "uint256",
          "name": "amount",
          "type": "uint256"
        }
      ],
      "name": "deposit",
      "outputs": [],
      "stateMutability": "nonpayable",
      "type": "function"
    },
    {
      "inputs": [
        {
          "internalType": "uint8",
          "name": "categoryId",
          "type": "uint8"
        }
      ],
      "name": "encodeSetEMode",
      "outputs": [
        {
          "internalType": "address",
          "name": "target",
          "type": "address"
        },
        {
          "internalType": "bytes",
          "name": "callData",
          "type": "bytes"
        }
      ],
      "stateMutability": "view",
      "type": "function"
    },
    {
      "inputs": [],
      "name": "getPool",
      "outputs": [
        {
          "internalType": "address",
          "name": "",
          "type": "address"
        }
      ],
      "stateMutability": "view",
      "type": "function"
    },
    {
      "inputs": [],
      "name": "poolAddressesProvider",
      "outputs": [
        {
          "internalType": "contract IPoolAddressesProvider",
          "name": "",
          "type": "address"
        }
      ],
      "stateMutability": "view",
      "type": "function"
    },
    {
      "inputs": [
        {
          "components": [
            {
              "internalType": "address",
              "name": "token",
              "type": "address"
            },
            {
              "internalType": "uint256",
              "name": "amount",
              "type": "uint256"
            }
          ],
          "internalType": "struct ProtocolTypes.Output[]",
          "name": "inputs",
          "type": "tuple[]"
        },
        {
          "internalType": "bytes",
          "name": "data",
          "type": "bytes"
        }
      ],
      "name": "processLendingInstruction",
      "outputs": [
        {
          "components": [
            {
              "internalType": "address",
              "name": "token",
              "type": "address"
            },
            {
              "internalType": "uint256",
              "name": "amount",
              "type": "uint256"
            }
          ],
          "internalType": "struct ProtocolTypes.Output[]",
          "name": "outputs",
          "type": "tuple[]"
        }
      ],
      "stateMutability": "nonpayable",
      "type": "function"
    },
    {
      "inputs": [
        {
          "internalType": "address",
          "name": "token",
          "type": "address"
        },
        {
          "internalType": "address",
          "name": "user",
          "type": "address"
        },
        {
          "internalType": "uint256",
          "name": "amount",
          "type": "uint256"
        }
      ],
      "name": "repay",
      "outputs": [
        {
          "internalType": "uint256",
          "name": "refund",
          "type": "uint256"
        }
      ],
      "stateMutability": "nonpayable",
      "type": "function"
    },
    {
      "inputs": [
        {
          "internalType": "address",
          "name": "underlying",
          "type": "address"
        },
        {
          "internalType": "address",
          "name": "user",
          "type": "address"
        },
        {
          "internalType": "uint256",
          "name": "amount",
          "type": "uint256"
        }
      ],
      "name": "withdraw",
      "outputs": [
        {
          "internalType": "address",
          "name": "",
          "type": "address"
        },
        {
          "internalType": "uint256",
          "name": "",
          "type": "uint256"
        }
      ],
      "stateMutability": "nonpayable",
      "type": "function"
    }
  ],
  "transactionHash": "0xa03d05bcb300888901acc678522e3409a898d32d0a5d2b9aa839d25d145d4211",
  "args": [
    "0x8080C60010164FECdB7fDB7d616765379Fe4CfAf",
    "0xa97684ead0e402dC232d5A977953DF7ECBaB3CDb",
    0
  ],
  "numDeployments": 21,
  "solcInputHash": "34e55508de260c2f03a3603690a8d588",
  "bytecode": "0x60e03461017657601f613b6738819003918201601f19168301916001600160401b0383118484101761017a57808492606094604052833981010312610176576100478161018e565b9060406100566020830161018e565b9101519161ffff83168303610176576001600160a01b038116156101465760805260015f556001600160a01b031660a05260c0526040516139c490816101a3823960805181818160b70152818161085701528181611cca01528181612671015281816129ad0152612e4b015260a0518181816103d801528181610b78015281816110ad015281816115bb01528181611d1601528181611f360152818161246c015281816126c301528181612a1001528181612b0f01528181612e97015281816134f701526136a4015260c051818181610c86015281816116a801528181611e31015281816127a601526129740152f35b60405162461bcd60e51b81526020600482015260086024820152670726f757465723d360c41b6044820152606490fd5b5f80fd5b634e487b7160e01b5f52604160045260245ffd5b51906001600160a01b03821682036101765756fe6080806040526004361015610012575f80fd5b5f905f3560e01c908163026b1d5f14612aed575080631da649cf14612acc5780632e24a188146129dc57806332fe7b26146129985780633583849a1461295a5780635224372c1461265c57806352ed587514611f6557806380e17d8714611f205780638340f54914611cb1578063aad11a3f14611aef578063ae4be46d146107e75763d9caed12146100a2575f80fd5b346107e4576100b036612ba9565b906100e5337f00000000000000000000000000000000000000000000000000000000000000006001600160a01b031614612e00565b6100ed61340c565b60405160609183906100ff8484612dcb565b603f83527f41617665476174657761793a2077697468647261772063616c6c65642c20756e60208401527f6465726c79696e673d25732c20757365723d25732c20616d6f756e743d257300604084015261017460405193638ef3f39960e01b60208601526080602486015260a4850190612be3565b905f8060018060a01b038916958660448201526101af8160018060a01b038616968760648301528b608483015203601f198101835282612dcb565b6020815191016a636f6e736f6c652e6c6f675afa506101cd8761368e565b956040966102098189516101e18b82612dcb565b601681527541617665476174657761793a2061546f6b656e3d257360501b602082015261384f565b6001600160a01b03169283156107ad578751906370a0823160e01b82526004820152602081602481875afa9081156107a3578a91610771575b50809161028f828a516102558b82612dcb565b602381527f41617665476174657761793a20757365722061546f6b656e2062616c616e63656020820152623d257360e81b8c82015261380c565b11610769575b506102e28387516102a68882612dcb565b602581527f41617665476174657761793a2066696e616c20776974686472617720616d6f756020820152646e743d257360d81b8982015261380c565b8551636eb1769f60e11b81526001600160a01b0382166004820152306024820152602081604481865afa90811561075f579084918a9161072a575b5061035d81895161032e8b82612dcb565b602081527f41617665476174657761793a2061546f6b656e20616c6c6f77616e63653d2573602082015261380c565b106106f25782889594939261037392309161342a565b6103c385516103828582612dcb565b602a81527f41617665476174657761793a207472616e736665727265642061546f6b656e20602082015269746f206761746577617960b01b878201526137df565b845163026b1d5f60e01b8152906020826004817f00000000000000000000000000000000000000000000000000000000000000006001600160a01b03165afa9182156106e85785926106a5575b50606460209261044b8189516104268b82612dcb565b601481527341617665476174657761793a20706f6f6c3d257360601b8782015261384f565b6001600160a01b0316916104608315156131c4565b5f806104f061050f8b51610475608082612dcb565b604381527f41617665476174657761793a2063616c6c696e6720706f6f6c2e776974686472898201527f617728756e6465726c79696e673d25732c20616d6f756e743d25732c20746f3d8d8201526225732960e81b8b8201528c516363fb8bc560e01b818b01526080602482015292839160a4830190612be3565b8a6044830152868883015230608483015203601f198101835282612dcb565b86815191016a636f6e736f6c652e6c6f675afa508751998a938492631a4ca37b60e21b845287600485015260248401523060448401525af195861561069b578396610659575b509161063486866001946105c68361065599986105bf828b516105788782612dcb565b603081527f41617665476174657761793a20706f6f6c2e776974686472617720726574757260208201526f6e656420616d6f756e744f75743d257360801b8d82015261380c565b3390613475565b6475743d257360d81b8751916105dd608084612dcb565b604583527f41617665476174657761793a20776974686472617720636f6d706c6574652c2060208401527f72657475726e696e6720756e6465726c79696e673d25732c20616d6f756e744f89840152820152613775565b55516001600160a01b03909216825260208201929092529081906040820190565b0390f35b91955092916020823d602011610693575b8161067760209383612dcb565b8101031261068f579051949192909190610634610555565b5f80fd5b3d915061066a565b84513d85823e3d90fd5b91506020823d6020116106e0575b816106c060209383612dcb565b810103126106dc5760646106d5602093612dec565b9250610410565b8480fd5b3d91506106b3565b86513d87823e3d90fd5b855162461bcd60e51b815260206004820152601160248201527061546f6b656e3a20616c6c6f77616e636560781b6044820152606490fd5b9150506020813d602011610757575b8161074660209383612dcb565b8101031261068f578390515f61031d565b3d9150610739565b87513d8b823e3d90fd5b92505f610295565b90506020813d60201161079b575b8161078c60209383612dcb565b8101031261068f57515f610242565b3d915061077f565b88513d8c823e3d90fd5b875162461bcd60e51b815260206004820152601060248201526f18551bdad95b881b9bdd08199bdd5b9960821b6044820152606490fd5b80fd5b50346107e45760403660031901126107e4576004356001600160401b038111611acf57610818903690600401612c07565b6024356001600160401b038111610d735736602382011215610d735780600401356001600160401b0381116106dc578101602481013681116114a057337f00000000000000000000000000000000000000000000000000000000000000006001600160a01b0316149261088a84612e00565b6020818403126118295760248101356001600160401b038111611aeb5701918290039060c082126118295760405160c081018181106001600160401b03821117611ad7576040526024840135600a811015611acb5781526108ed60448501612b95565b6020820190815261090060648601612b95565b926040830193845260608301946084870135865260a48701356001600160401b038111611ad3576024908801019180601f84011215611ad3578b833593610946856133f1565b926109546040519485612dcb565b85845260208683010111611acf57846020958680930183860137830101526080850152609f190112611acb5760405194602086018681106001600160401b03821117611ab75760405260c40135855260a0820194855251925181519790946001600160a01b039094169390600a891015611aa357815151975f80610a47610a666060809e819e6109e76040519384612dcb565b602983527f41617665476174657761793a206f703d25732c20746f6b656e3d25732c20696e6020840152687075744964783d257360b81b60408401526040519485936327827ee360e11b60208601526080602486015260a4850190612be3565b9160448401528c6064840152608483015203601f198101835282612dcb565b6020815191016a636f6e736f6c652e6c6f675afa50845160408051909a5f92839291610b07916001600160a01b0316610aed8f610aa38187612dcb565b601f86527f41617665476174657761793a20616d6f756e743d25732c20757365723d25730060208701525194859363038fd88960e31b602086015260248501526084840190612be3565b908d6044840152606483015203601f198101835282612dcb565b6020815191016a636f6e736f6c652e6c6f675afa50825151818110611a1f575b505050508051600a8110156119e357158015611a0b575b15610e175750516001600160a01b03169286929190610b5c90612e00565b610b6461340c565b845163026b1d5f60e01b81526020816004817f00000000000000000000000000000000000000000000000000000000000000006001600160a01b03165afa908115610e0d578491610dd3575b506001600160a01b03811691610bc78315156131c4565b6001600160a01b031690610bdd8430338561342a565b865163095ea7b360e01b815283600482015285602482015260208160448189875af18015610dc957610c44926020928792610dae575b50895163095ea7b360e01b81526001600160a01b039091166004820152602481019190915291829081906044820190565b038188865af18015610da457610d77575b50813b15610d7357836084928751968795869463617ba03760e01b865260048601526024850152604484015261ffff7f00000000000000000000000000000000000000000000000000000000000000001660648401525af18015610d6957610d50575b5060016106559355610d3e610ccb61331b565b925b83519064747075747360d81b845191610ce7608084612dcb565b604583527f41617665476174657761793a2070726f636573734c656e64696e67496e73747260208401527f756374696f6e20636f6d706c6574652c2072657475726e696e67202573206f758684015282015261380c565b51918291602083526020830190612d54565b610d5b848092612dcb565b610d65575f610cb8565b8280fd5b82513d86823e3d90fd5b8380fd5b610d989060203d602011610d9d575b610d908183612dcb565b8101906131ff565b610c55565b503d610d86565b87513d87823e3d90fd5b610dc490843d8611610d9d57610d908183612dcb565b610c13565b88513d88823e3d90fd5b90506020813d602011610e05575b81610dee60209383612dcb565b81010312610d7357610dff90612dec565b5f610bb0565b3d9150610de1565b86513d86823e3d90fd5b809796949793929351600a8110156119f7576002036115705750610e9f90610e8f8651610e448782612dcb565b603481527f41617665476174657761793a2063616c6c696e6720776974686472617720666f6020820152731c8815da5d1a191c985dd0dbdb1b185d195c985b60621b888201526137df565b516001600160a01b031696612e00565b610ea761340c565b80845196610eb58589612dcb565b603f88527f41617665476174657761793a2077697468647261772063616c6c65642c20756e60208901527f6465726c79696e673d25732c20757365723d25732c20616d6f756e743d257300868901525f80610f2a88519a638ef3f39960e01b60208d0152608060248d015260a48c0190612be3565b99610f598160018060a01b0389169c8d604483015286606483015287608483015203601f198101835282612dcb565b6020815191016a636f6e736f6c652e6c6f675afa50610f778461368e565b610f878188516101e18a82612dcb565b6001600160a01b03169182156115395786516370a0823160e01b815260048101839052602081602481875afa90811561152f5789916114fd575b508091610fd4828a516102558b82612dcb565b116114f5575b50610feb8387516102a68882612dcb565b8551636eb1769f60e11b81526001600160a01b0382166004820152306024820152602081604481865afa9081156114eb5790849189916114b6575b5061103781895161032e8b82612dcb565b106106f257611049918391309161342a565b61109984516110588582612dcb565b602a81527f41617665476174657761793a207472616e736665727265642061546f6b656e20602082015269746f206761746577617960b01b868201526137df565b835163026b1d5f60e01b81526020816004817f00000000000000000000000000000000000000000000000000000000000000006001600160a01b03165afa9081156114ac57918588928895948691611450575b50915f806111cf6111ee6064956020989761113281835161110d8582612dcb565b601481527341617665476174657761793a20706f6f6c3d257360601b8d82015261384f565b6001600160a01b0316976111478915156131c4565b7f617728756e6465726c79696e673d25732c20616d6f756e743d25732c20746f3d825192611176608085612dcb565b604384527f41617665476174657761793a2063616c6c696e6720706f6f6c2e7769746864728c8501528301526225732960e81b8d8301528d516363fb8bc560e01b818c01526080602482015293849260a4840190612be3565b906044830152868883015230608483015203601f198101835282612dcb565b86815191016a636f6e736f6c652e6c6f675afa5087519889938492631a4ca37b60e21b84528c600485015260248401523060448401525af194851561144657829561140a575b50906106559561137186610d3e959461129a8289516112538982612dcb565b603081527f41617665476174657761793a20706f6f6c2e776974686472617720726574757260208201526f6e656420616d6f756e744f75743d257360801b8b82015261380c565b6112a5823386613475565b61131882828a516112b7608082612dcb565b604581527f41617665476174657761793a20776974686472617720636f6d706c6574652c2060208201527f72657475726e696e6720756e6465726c79696e673d25732c20616d6f756e744f8c8201526475743d257360d81b8a820152613775565b6001855587516113288782612dcb565b603281527f41617665476174657761793a2077697468647261772072657475726e656420746020820152716f6b656e3d25732c20616d6f756e743d257360701b89820152613775565b611379613360565b9585519161138683612d9c565b82526020820152611396866133d0565b526113a0856133d0565b505061140583516113b18382612dcb565b603a81527f41617665476174657761793a205769746864726177436f6c6c61746572616c2060208201527f636f6d706c6574652c2072657475726e696e67206f7574707574000000000000858201526137df565b610ccd565b92919094506020833d60201161143e575b8161142860209383612dcb565b8101031261068f57915193909190610655611234565b3d915061141b565b84513d84823e3d90fd5b935050509192506020813d6020116114a4575b8161147060209383612dcb565b810103126114a0578660648794935f806111cf6111ee8b611492602099612dec565b9597985095505050506110ec565b8580fd5b3d9150611463565b85513d88823e3d90fd5b9150506020813d6020116114e3575b816114d260209383612dcb565b8101031261068f578390515f611026565b3d91506114c5565b87513d8a823e3d90fd5b92505f610fda565b90506020813d602011611527575b8161151860209383612dcb565b8101031261068f57515f610fc1565b3d915061150b565b88513d8b823e3d90fd5b865162461bcd60e51b815260206004820152601060248201526f18551bdad95b881b9bdd08199bdd5b9960821b6044820152606490fd5b80979392969751600a8110156119e35760030361188c5750516001600160a01b0316918015611883575b1561183f576115a761340c565b835163026b1d5f60e01b81526020816004817f00000000000000000000000000000000000000000000000000000000000000006001600160a01b03165afa9081156118355787916117f7575b506001600160a01b03166116088115156131c4565b611611826134e1565b6001600160a01b031691505080156117c1578551631af5db4960e21b81526001600160a01b038516600482015230602482015290602090829060449082905afa9081156117b7579087918991611782575b501061174b57908187923b15610d655760a483928751948593849263a415bcad60e01b845260018060a01b0316978860048501528b60248501526002604485015261ffff7f000000000000000000000000000000000000000000000000000000000000000016606485015260848401525af180156117415761172c575b5090610d3e916001610655966116f6873385613475565b556116ff613360565b9484519161170c83612d9c565b8252602082015261171c856133d0565b52611726846133d0565b50610ccd565b611737868092612dcb565b6106dc575f6116df565b84513d88823e3d90fd5b845162461bcd60e51b815260206004820152601060248201526f626f72726f7720616c6c6f77616e636560801b6044820152606490fd5b9150506020813d6020116117af575b8161179e60209383612dcb565b8101031261068f578690515f611662565b3d9150611791565b86513d8a823e3d90fd5b855162461bcd60e51b815260206004820152600f60248201526e1d9119589d081b9bdd08199bdd5b99608a1b6044820152606490fd5b90506020813d60201161182d575b8161181260209383612dcb565b810103126118295761182390612dec565b5f6115f3565b8680fd5b3d9150611805565b85513d89823e3d90fd5b835162461bcd60e51b815260206004820152601c60248201527f4f6e6c7920726f75746572206f722073656c662063616e2063616c6c000000006044820152606490fd5b5081331461159a565b8091935096919593949651600a8110156119cf576004036118f8575050516106559492610d3e9290916118c991906001600160a01b031686612e43565b936118d2613360565b948451916118df83612d9c565b6001600160a01b03168252602082015261171c856133d0565b809192935051600a8110156119cf5760050361192d575050516106559391610d3e916118c9906001600160a01b03168561366d565b8051600a8110156119cf5760060361195e575050516106559391610d3e916118c9906001600160a01b0316856135e3565b519293509050600a8210156119bb575060090361198a5761065591610d3e61198461331b565b92610ccd565b815162461bcd60e51b815260206004820152600a6024820152690556e6b6e6f776e206f760b41b6044820152606490fd5b634e487b7160e01b81526021600452602490fd5b634e487b7160e01b83526021600452602483fd5b634e487b7160e01b89526021600452602489fd5b634e487b7160e01b88526021600452602488fd5b508051600a8110156119e357600114610b3e565b6020949750611a46939650611a38611a3d9183856133c0565b6133ac565b955151916133c0565b013592611a9a84848851611a5a8b82612dcb565b602981527f41617665476174657761793a207265736f6c76656420746f6b656e3d25732c20602082015268616d6f756e743d257360b81b8a820152613775565b5f808080610b27565b634e487b7160e01b8a52602160045260248afd5b634e487b7160e01b8b52604160045260248bfd5b8880fd5b5080fd5b8b80fd5b634e487b7160e01b89526041600452602489fd5b8780fd5b50346107e457611afe36612c37565b90939150611b0d83959361325c565b93611b178661328e565b95845b818110611b4b57611b3d876106558a604051938493604085526040850190612cc0565b908382036020850152612cfc565b611b568183876132d7565b611b62602082016133ac565b9060a0810135868110611c99575b5035600a811015611aeb57600192919060028103611bee5750611b929061368e565b611b9c828a6133dd565b90838060a01b0316905260405163095ea7b360e01b602082015230602482015287604482015260448152611bd1606482612dcb565b611bdb828b6133dd565b52611be6818a6133dd565b505b01611b1a565b600303611c6657611bfe906134e1565b915050828060a01b031680611c14575b50611be8565b611c1e828a6133dd565b52604051630c04a8a160e41b602082015230602482015260448082018990528152611c4a606482612dcb565b611c54828b6133dd565b52611c5f818a6133dd565b505f611c0e565b5086611c72828a6133dd565b52604051611c81602082612dcb565b878152611c8e828b6133dd565b52611c0e818a6133dd565b611caa919250611a389087876133c0565b905f611b70565b50346107e45780611cc136612ba9565b909190611cf8337f00000000000000000000000000000000000000000000000000000000000000006001600160a01b031614612e00565b611d0061340c565b60405163026b1d5f60e01b8152916020836004817f00000000000000000000000000000000000000000000000000000000000000006001600160a01b03165afa928315611f15578593611ed9575b506001600160a01b03831690611d658215156131c4565b6001600160a01b031692611d7b8330338761342a565b60405163095ea7b360e01b81528260048201528660248201526020816044818a895af18015611ece57611de4926020928692611eb3575b5060405163095ea7b360e01b81526001600160a01b039091166004820152602481019190915291829081906044820190565b038189885af18015611ea857611e8b575b50803b156106dc57849283608492604051968795869463617ba03760e01b86526004860152602485015260018060a01b0316604484015261ffff7f00000000000000000000000000000000000000000000000000000000000000001660648401525af18015611e8057611e6b575b506001905580f35b81611e7591612dcb565b6107e457805f611e63565b6040513d84823e3d90fd5b611ea39060203d602011610d9d57610d908183612dcb565b611df5565b6040513d88823e3d90fd5b611ec990843d8611610d9d57610d908183612dcb565b611db2565b6040513d89823e3d90fd5b9092506020813d602011611f0d575b81611ef560209383612dcb565b810103126106dc57611f0690612dec565b915f611d4e565b3d9150611ee8565b6040513d87823e3d90fd5b50346107e457806003193601126107e4576040517f00000000000000000000000000000000000000000000000000000000000000006001600160a01b03168152602090f35b50346107e457611f7436612c37565b93909294611f818661325c565b94611f8b8761328e565b938295835b89811061259a5750611fa187613245565b96611faf6040519889612dcb565b808852611fbe601f1991613245565b01845b8181106125775750508398845b81811061201157611ff58a6106558b6120038c604051958695606087526060870190612cc0565b908582036020870152612cfc565b908382036040850152612d54565b61201c8183896132d7565b612028602082016133ac565b9b60608201359160a081013588811061254e575b508035600a81101561254a57600281036121ec575060209d9190506001600160a01b036120688361368e565b604051636eb1769f60e11b81526001600160a01b038a1660048201523060248201529f911692908f604481865afa9e8f156121e1578a9f6121a6575b50928d926120ea838f8897956120e49160019a97604051906120c582612d9c565b8c8060a01b031681528760208201526120de83836133dd565b526133dd565b5061330d565b9f82801515918261219b575b50501561213957505061210a9089926133dd565b52604051612119602082612dcb565b878152612126828b6133dd565b52612131818a6133dd565b505b01611fce565b61214961218093612172956133dd565b5260405163095ea7b360e01b602082015230602482015260448101919091529182906064820190565b03601f198101835282612dcb565b61218a828b6133dd565b52612195818a6133dd565b50612133565b10159050825f6120f6565b919493909e506020823d82116121d9575b816121c460209383612dcb565b8101031261068f5790519d929390928d6120a4565b3d91506121b7565b6040513d8c823e3d90fd5b929392600381036123585750506122028d6134e1565b9e9150506040519061221382612d9c565b6001600160a01b031681526020810184905261222f828d6133dd565b5261223a818c6133dd565b506122449061330d565b9b6001600160a01b03168061227f57506001915086612263828d6133dd565b52604051612272602082612dcb565b87815261218a828b6133dd565b604051631af5db4960e21b81526001600160a01b038716600482015230602482015292602084604481855afa93841561234d57899461231a575b508060019410159081612310575b50156122d9575086612263828d6133dd565b6122e3828d6133dd565b52604051630c04a8a160e41b60208201523060248201525f19604482015260448152612180606482612dcb565b905015155f6122c7565b93506020843d8211612345575b8161233460209383612dcb565b8101031261068f57925192806122b9565b3d9150612327565b6040513d8b823e3d90fd5b929d91939192909190600581036123f157505061237a604061238092016133ac565b8261366d565b6103e98102908082046103e914901517156123dd57916123d1916103e8600194604051926123ad84612d9c565b868060a01b031683520460208201526123c6828d6133dd565b526120e4818c6133dd565b9a86612263828d6133dd565b634e487b7160e01b88526011600452602488fd5b6006810361241057505061240a604061238092016133ac565b826135e3565b9091506004810361244a5750506001916123d1916040519061243182612d9c565b848060a01b031681528860208201526123c6828d6133dd565b929c9290915060090361253b5760405163026b1d5f60e01b81526020816004817f00000000000000000000000000000000000000000000000000000000000000006001600160a01b03165afa90811561253057908c93929189916124e8575b506124b6836001956133dd565b90848060a01b0316905260ff604051916328530a4760e01b602084015216602482015260248152612180604482612dcb565b91929350506020813d8211612528575b8161250560209383612dcb565b81010312611aeb57908b6124b68461251f60019695612dec565b929550506124a9565b3d91506124f8565b6040513d8a823e3d90fd5b5080866122636001938d6133dd565b8980fd5b9d509150602061256e6125668f611a38908b8a6133c0565b9e89886133c0565b0135915f61203c565b60209060405161258681612d9c565b878152878382015282828c01015201611fc1565b6125a5818b886132d7565b35600a8110156114a057600281149086821561264f575b821561263e575b8215612619575b82156125f4575b50506125e0575b600101611f90565b966125ec60019161330d565b9790506125d8565b909150612605576004145f806125d1565b634e487b7160e01b86526021600452602486fd5b80925061262a5760068114916125ca565b634e487b7160e01b87526021600452602487fd5b80925061262a5760058114916125c3565b50600381149150866125bc565b503461068f5761266b36612ba9565b909291337f00000000000000000000000000000000000000000000000000000000000000006001600160a01b0316148015612948575b15612903576126ae61340c565b60405163026b1d5f60e01b81526020816004817f00000000000000000000000000000000000000000000000000000000000000006001600160a01b03165afa90811561281a575f916128c9575b506001600160a01b0316906127118215156131c4565b61271a816134e1565b6001600160a01b0316915050801561289257604051631af5db4960e21b81526001600160a01b038716600482015230602482015290602090829060449082905afa801561281a5784915f9161285d575b501061282557813b1561068f5760405163a415bcad60e01b81526001600160a01b039182166004820181905260248201859052600260448301527f000000000000000000000000000000000000000000000000000000000000000061ffff166064830152959091166084820152905f90829060a490829084905af1801561281a57612804575b506127fd91923390613475565b6001815580f35b6127fd92505f61281391612dcb565b5f916127f0565b6040513d5f823e3d90fd5b60405162461bcd60e51b815260206004820152601060248201526f626f72726f7720616c6c6f77616e636560801b6044820152606490fd5b9150506020813d60201161288a575b8161287960209383612dcb565b8101031261068f578390515f61276a565b3d915061286c565b60405162461bcd60e51b815260206004820152600f60248201526e1d9119589d081b9bdd08199bdd5b99608a1b6044820152606490fd5b90506020813d6020116128fb575b816128e460209383612dcb565b8101031261068f576128f590612dec565b5f6126fb565b3d91506128d7565b60405162461bcd60e51b815260206004820152601c60248201527f4f6e6c7920726f75746572206f722073656c662063616e2063616c6c000000006044820152606490fd5b50336001600160a01b038516146126a1565b3461068f575f36600319011261068f57602060405161ffff7f0000000000000000000000000000000000000000000000000000000000000000168152f35b3461068f575f36600319011261068f576040517f00000000000000000000000000000000000000000000000000000000000000006001600160a01b03168152602090f35b3461068f57602036600319011261068f5760043560ff811680910361068f5760405163026b1d5f60e01b81526020816004817f00000000000000000000000000000000000000000000000000000000000000006001600160a01b03165afa90811561281a575f91612a92575b50604051916328530a4760e01b6020840152602483015260248252612a6e604483612dcb565b61065560405192839260018060a01b03168352604060208401526040830190612be3565b90506020813d602011612ac4575b81612aad60209383612dcb565b8101031261068f57612abe90612dec565b82612a48565b3d9150612aa0565b3461068f576020612ae5612adf36612ba9565b91612e43565b604051908152f35b3461068f575f36600319011261068f5763026b1d5f60e01b81526020816004817f00000000000000000000000000000000000000000000000000000000000000006001600160a01b03165afa801561281a575f90612b5b575b6040516001600160a01b039091168152602090f35b506020813d602011612b8d575b81612b7560209383612dcb565b8101031261068f57612b88602091612dec565b612b46565b3d9150612b68565b35906001600160a01b038216820361068f57565b606090600319011261068f576004356001600160a01b038116810361068f57906024356001600160a01b038116810361068f579060443590565b805180835260209291819084018484015e5f828201840152601f01601f1916010190565b9181601f8401121561068f578235916001600160401b03831161068f576020808501948460061b01011161068f57565b90606060031983011261068f57600435916001600160401b03831161068f578060238401121561068f578260040135926001600160401b03841161068f578160248560051b8301011161068f576024908101939290356001600160a01b038116810361068f5791604435906001600160401b03821161068f57612cbc91600401612c07565b9091565b90602080835192838152019201905f5b818110612cdd5750505090565b82516001600160a01b0316845260209384019390920191600101612cd0565b9080602083519182815201916020808360051b8301019401925f915b838310612d2757505050505090565b9091929394602080612d45600193601f198682030187528951612be3565b97019301930191939290612d18565b90602080835192838152019201905f5b818110612d715750505090565b825180516001600160a01b031685526020908101518186015260409094019390920191600101612d64565b604081019081106001600160401b03821117612db757604052565b634e487b7160e01b5f52604160045260245ffd5b90601f801991011681019081106001600160401b03821117612db757604052565b51906001600160a01b038216820361068f57565b15612e0757565b60405162461bcd60e51b815260206004820152601460248201527313db9b1e481c9bdd5d195c8818d85b8818d85b1b60621b6044820152606490fd5b9190612e79337f00000000000000000000000000000000000000000000000000000000000000006001600160a01b031614612e00565b612e8161340c565b60405163026b1d5f60e01b8152926020846004817f00000000000000000000000000000000000000000000000000000000000000006001600160a01b03165afa93841561281a575f94613188575b506001600160a01b03841690612ee68215156131c4565b6040516370a0823160e01b81523060048201526001600160a01b0391909116949091602083602481895afa92831561281a575f93613154575b50612f2c8530338961342a565b60405163095ea7b360e01b81528160048201525f60248201526020816044815f8b5af1801561281a57612f95936020928892613139575b5060405163095ea7b360e01b81526001600160a01b039091166004820152602481019190915292839081906044820190565b03815f8a5af1801561281a575f9460209360849261311e575b5060405163573ade8160e01b81526004810189905260248101889052600260448201526001600160a01b0390911660648201529485928391905af191821561281a575f926130ea575b506040516370a0823160e01b815230600482015290602082602481885afa90811561281a5784925f926130b3575b50831515806130a9575b15613076575050505b8082111561306d5761304991613238565b905b818061305b575b505060015f5590565b613066913390613475565b5f81613052565b50505f9061304b565b90829350613085819383613217565b11156130a25761309d9261309891613217565b613238565b613038565b5050613038565b508284111561302f565b925090506020823d6020116130e2575b816130d060209383612dcb565b8101031261068f57839151905f613025565b3d91506130c3565b9091506020813d602011613116575b8161310660209383612dcb565b8101031261068f5751905f612ff7565b3d91506130f9565b61313490853d8711610d9d57610d908183612dcb565b612fae565b61314f90843d8611610d9d57610d908183612dcb565b612f63565b9092506020813d602011613180575b8161317060209383612dcb565b8101031261068f5751915f612f1f565b3d9150613163565b9093506020813d6020116131bc575b816131a460209383612dcb565b8101031261068f576131b590612dec565b925f612ecf565b3d9150613197565b156131cb57565b60405162461bcd60e51b815260206004820152600c60248201526b141bdbdb081b9bdd081cd95d60a21b6044820152606490fd5b9081602091031261068f5751801515810361068f5790565b9190820180921161322457565b634e487b7160e01b5f52601160045260245ffd5b9190820391821161322457565b6001600160401b038111612db75760051b60200190565b9061326682613245565b6132736040519182612dcb565b8281528092613284601f1991613245565b0190602036910137565b9061329882613245565b6132a56040519182612dcb565b82815280926132b6601f1991613245565b01905f5b8281106132c657505050565b8060606020809385010152016132ba565b91908110156132f95760051b8101359060be198136030182121561068f570190565b634e487b7160e01b5f52603260045260245ffd5b5f1981146132245760010190565b6040519061332a602083612dcb565b5f80835282815b82811061333d57505050565b60209060405161334c81612d9c565b5f81525f8382015282828501015201613331565b604080519091906133718382612dcb565b6001815291601f1901825f5b82811061338957505050565b60209060405161339881612d9c565b5f81525f838201528282850101520161337d565b356001600160a01b038116810361068f5790565b91908110156132f95760061b0190565b8051156132f95760200190565b80518210156132f95760209160051b010190565b6001600160401b038111612db757601f01601f191660200190565b60025f541461341b5760025f55565b633ee5aeb560e01b5f5260045ffd5b6040516323b872dd60e01b60208201526001600160a01b0392831660248201529290911660448301526064808301939093529181526134739161346e608483612dcb565b61389d565b565b60405163a9059cbb60e01b60208201526001600160a01b039290921660248301526044808301939093529181526134739161346e606483612dcb565b9081606091031261068f576134c581612dec565b916134de60406134d760208501612dec565b9301612dec565b90565b60405163e860accb60e01b8152906020826004817f00000000000000000000000000000000000000000000000000000000000000006001600160a01b03165afa91821561281a575f926135a5575b506040516334924edb60e21b81526001600160a01b0391821660048201529160609183916024918391165afa90811561281a575f915f915f91613573575b50909192565b915050613598915060603d60601161359e575b6135908183612dcb565b8101906134b1565b5f61356d565b503d613586565b9091506020813d6020116135db575b816135c160209383612dcb565b8101031261068f576135d4606091612dec565b919061352f565b3d91506135b4565b6135ec906134e1565b50506001600160a01b031690816136035750505f90565b6040516370a0823160e01b81526001600160a01b03909116600482015290602090829060249082905afa90811561281a575f9161363e575090565b90506020813d602011613665575b8161365960209383612dcb565b8101031261068f575190565b3d915061364c565b613676906134e1565b6001600160a01b031692915050816136035750505f90565b60405163e860accb60e01b8152906020826004817f00000000000000000000000000000000000000000000000000000000000000006001600160a01b03165afa91821561281a575f92613737575b506040516334924edb60e21b81526001600160a01b0391821660048201529160609183916024918391165afa90811561281a575f91613719575090565b613732915060603d60601161359e576135908183612dcb565b505090565b9091506020813d60201161376d575b8161375360209383612dcb565b8101031261068f57613766606091612dec565b91906136dc565b3d9150613746565b6137c86137a5915f94938594604051948593630d26b92560e01b6020860152606060248601526084850190612be3565b6001600160a01b039092166044840152606483015203601f198101835282612dcb565b6020815191016a636f6e736f6c652e6c6f675afa50565b5f6121726137c8829360405192839163104c13eb60e21b6020840152602060248401526044830190612be3565b61383b6137c85f93928493604051938492632d839cb360e21b6020850152604060248501526064840190612be3565b90604483015203601f198101835282612dcb565b61387e6137c85f9392849360405193849263319af33360e01b6020850152604060248501526064840190612be3565b6001600160a01b0391909116604483015203601f198101835282612dcb565b5f806138e59260018060a01b03169360208151910182865af13d15613928573d906138c7826133f1565b916138d56040519384612dcb565b82523d5f602084013e5b83613930565b805190811515918261390d575b50506138fb5750565b635274afe760e01b5f5260045260245ffd5b61392092506020809183010191016131ff565b155f806138f2565b6060906138df565b90613954575080511561394557805190602001fd5b630a12f52160e11b5f5260045ffd5b81511580613985575b613965575090565b639996b31560e01b5f9081526001600160a01b0391909116600452602490fd5b50803b1561395d56fea2646970667358221220b93674cfb2b55005b1613ba271a7e9b3eb53d5474cfa685578de8fa6dd1b409664736f6c634300081e0033",
  "devdoc": {
    "errors": {
      "AddressEmptyCode(address)": [
        {
          "details": "There's no code at `target` (it is not a contract)."
        }
      ],
      "AddressInsufficientBalance(address)": [
        {
          "details": "The ETH balance of the account is not enough to perform the operation."
        }
      ],
      "FailedInnerCall()": [
        {
          "details": "A call to an address target failed. The target may have reverted."
        }
      ],
      "ReentrancyGuardReentrantCall()": [
        {
          "details": "Unauthorized reentrant call."
        }
      ],
      "SafeERC20FailedOperation(address)": [
        {
          "details": "An operation with an ERC20 token failed."
        }
      ]
    },
    "kind": "dev",
    "methods": {
      "encodeSetEMode(uint8)": {
        "params": {
          "categoryId": "The E-Mode category ID (0 = disable E-Mode)"
        },
        "returns": {
          "callData": "The encoded function call",
          "target": "The Aave Pool address"
        }
      }
    },
    "version": 1
  },
  "userdoc": {
    "kind": "user",
    "methods": {
      "ROUTER()": {
        "notice": "Immutable router address that can call protected functions"
      },
      "authorize((uint8,address,address,uint256,bytes,(uint256))[],address,(address,uint256)[])": {
        "notice": "Return user-side authorization calls for the given lending instructions.         One element per input (or (address(0), bytes(\"\")) if none needed).         Also returns the produced outputs from the simulation of these instructions."
      },
      "encodeSetEMode(uint8)": {
        "notice": "Helper to encode setUserEMode calldata"
      },
      "getPool()": {
        "notice": "Returns the Aave Pool address for direct calls (e.g., setUserEMode)"
      }
    },
    "version": 1
  },
  "storageLayout": {
    "storage": [
      {
        "astId": 2269,
        "contract": "contracts/v2/gateways/aave/AaveGatewayWrite.sol:AaveGatewayWrite",
        "label": "_status",
        "offset": 0,
        "slot": "0",
        "type": "t_uint256"
      }
    ],
    "types": {
      "t_uint256": {
        "encoding": "inplace",
        "label": "uint256",
        "numberOfBytes": "32"
      }
    }
  }
}