{
  "address": "0x105ED3AC4650A4858b7AcBE95bb80714d9dD74E2",
  "abi": [
    {
      "inputs": [
        {
          "internalType": "address",
          "name": "router",
          "type": "address"
        },
        {
          "internalType": "address",
          "name": "owner_",
          "type": "address"
        }
      ],
      "stateMutability": "nonpayable",
      "type": "constructor"
    },
    {
      "inputs": [
        {
          "internalType": "address",
          "name": "target",
          "type": "address"
        }
      ],
      "name": "AddressEmptyCode",
      "type": "error"
    },
    {
      "inputs": [
        {
          "internalType": "address",
          "name": "account",
          "type": "address"
        }
      ],
      "name": "AddressInsufficientBalance",
      "type": "error"
    },
    {
      "inputs": [],
      "name": "FailedInnerCall",
      "type": "error"
    },
    {
      "inputs": [],
      "name": "InvalidContext",
      "type": "error"
    },
    {
      "inputs": [
        {
          "internalType": "address",
          "name": "alchemist",
          "type": "address"
        }
      ],
      "name": "MarketAlreadyRegistered",
      "type": "error"
    },
    {
      "inputs": [
        {
          "internalType": "uint256",
          "name": "marketId",
          "type": "uint256"
        }
      ],
      "name": "MarketNotRegistered",
      "type": "error"
    },
    {
      "inputs": [
        {
          "internalType": "address",
          "name": "myt",
          "type": "address"
        },
        {
          "internalType": "address",
          "name": "asset",
          "type": "address"
        },
        {
          "internalType": "address",
          "name": "underlying",
          "type": "address"
        }
      ],
      "name": "MytAssetMismatch",
      "type": "error"
    },
    {
      "inputs": [
        {
          "internalType": "address",
          "name": "owner",
          "type": "address"
        }
      ],
      "name": "OwnableInvalidOwner",
      "type": "error"
    },
    {
      "inputs": [
        {
          "internalType": "address",
          "name": "account",
          "type": "address"
        }
      ],
      "name": "OwnableUnauthorizedAccount",
      "type": "error"
    },
    {
      "inputs": [],
      "name": "ReentrancyGuardReentrantCall",
      "type": "error"
    },
    {
      "inputs": [
        {
          "internalType": "address",
          "name": "token",
          "type": "address"
        }
      ],
      "name": "SafeERC20FailedOperation",
      "type": "error"
    },
    {
      "inputs": [],
      "name": "TokenIdRequired",
      "type": "error"
    },
    {
      "inputs": [],
      "name": "TokenMismatch",
      "type": "error"
    },
    {
      "inputs": [],
      "name": "UnsupportedOperation",
      "type": "error"
    },
    {
      "inputs": [],
      "name": "ZeroAddress",
      "type": "error"
    },
    {
      "anonymous": false,
      "inputs": [
        {
          "indexed": true,
          "internalType": "uint256",
          "name": "marketId",
          "type": "uint256"
        },
        {
          "indexed": true,
          "internalType": "address",
          "name": "alchemist",
          "type": "address"
        },
        {
          "indexed": false,
          "internalType": "address",
          "name": "myt",
          "type": "address"
        },
        {
          "indexed": false,
          "internalType": "address",
          "name": "underlying",
          "type": "address"
        },
        {
          "indexed": false,
          "internalType": "address",
          "name": "debtToken",
          "type": "address"
        },
        {
          "indexed": false,
          "internalType": "address",
          "name": "positionNft",
          "type": "address"
        }
      ],
      "name": "MarketRegistered",
      "type": "event"
    },
    {
      "anonymous": false,
      "inputs": [
        {
          "indexed": true,
          "internalType": "uint256",
          "name": "marketId",
          "type": "uint256"
        },
        {
          "indexed": false,
          "internalType": "bool",
          "name": "active",
          "type": "bool"
        }
      ],
      "name": "MarketSetActive",
      "type": "event"
    },
    {
      "anonymous": false,
      "inputs": [
        {
          "indexed": true,
          "internalType": "address",
          "name": "previousOwner",
          "type": "address"
        },
        {
          "indexed": true,
          "internalType": "address",
          "name": "newOwner",
          "type": "address"
        }
      ],
      "name": "OwnershipTransferred",
      "type": "event"
    },
    {
      "inputs": [],
      "name": "ROUTER",
      "outputs": [
        {
          "internalType": "address",
          "name": "",
          "type": "address"
        }
      ],
      "stateMutability": "view",
      "type": "function"
    },
    {
      "inputs": [
        {
          "internalType": "address",
          "name": "",
          "type": "address"
        }
      ],
      "name": "alchemistToMarketId",
      "outputs": [
        {
          "internalType": "uint256",
          "name": "",
          "type": "uint256"
        }
      ],
      "stateMutability": "view",
      "type": "function"
    },
    {
      "inputs": [
        {
          "components": [
            {
              "internalType": "enum ProtocolTypes.LendingOp",
              "name": "op",
              "type": "uint8"
            },
            {
              "internalType": "address",
              "name": "token",
              "type": "address"
            },
            {
              "internalType": "address",
              "name": "user",
              "type": "address"
            },
            {
              "internalType": "uint256",
              "name": "amount",
              "type": "uint256"
            },
            {
              "internalType": "bytes",
              "name": "context",
              "type": "bytes"
            },
            {
              "components": [
                {
                  "internalType": "uint256",
                  "name": "index",
                  "type": "uint256"
                }
              ],
              "internalType": "struct ProtocolTypes.InputPtr",
              "name": "input",
              "type": "tuple"
            }
          ],
          "internalType": "struct ProtocolTypes.LendingInstruction[]",
          "name": "instrs",
          "type": "tuple[]"
        },
        {
          "internalType": "address",
          "name": "caller",
          "type": "address"
        },
        {
          "components": [
            {
              "internalType": "address",
              "name": "token",
              "type": "address"
            },
            {
              "internalType": "uint256",
              "name": "amount",
              "type": "uint256"
            }
          ],
          "internalType": "struct ProtocolTypes.Output[]",
          "name": "inputs",
          "type": "tuple[]"
        }
      ],
      "name": "authorize",
      "outputs": [
        {
          "internalType": "address[]",
          "name": "targets",
          "type": "address[]"
        },
        {
          "internalType": "bytes[]",
          "name": "data",
          "type": "bytes[]"
        },
        {
          "components": [
            {
              "internalType": "address",
              "name": "token",
              "type": "address"
            },
            {
              "internalType": "uint256",
              "name": "amount",
              "type": "uint256"
            }
          ],
          "internalType": "struct ProtocolTypes.Output[]",
          "name": "produced",
          "type": "tuple[]"
        }
      ],
      "stateMutability": "view",
      "type": "function"
    },
    {
      "inputs": [
        {
          "components": [
            {
              "internalType": "enum ProtocolTypes.LendingOp",
              "name": "op",
              "type": "uint8"
            },
            {
              "internalType": "address",
              "name": "token",
              "type": "address"
            },
            {
              "internalType": "address",
              "name": "user",
              "type": "address"
            },
            {
              "internalType": "uint256",
              "name": "amount",
              "type": "uint256"
            },
            {
              "internalType": "bytes",
              "name": "context",
              "type": "bytes"
            },
            {
              "components": [
                {
                  "internalType": "uint256",
                  "name": "index",
                  "type": "uint256"
                }
              ],
              "internalType": "struct ProtocolTypes.InputPtr",
              "name": "input",
              "type": "tuple"
            }
          ],
          "internalType": "struct ProtocolTypes.LendingInstruction[]",
          "name": "instrs",
          "type": "tuple[]"
        },
        {
          "internalType": "address",
          "name": "caller",
          "type": "address"
        },
        {
          "components": [
            {
              "internalType": "address",
              "name": "token",
              "type": "address"
            },
            {
              "internalType": "uint256",
              "name": "amount",
              "type": "uint256"
            }
          ],
          "internalType": "struct ProtocolTypes.Output[]",
          "name": "",
          "type": "tuple[]"
        }
      ],
      "name": "deauthorize",
      "outputs": [
        {
          "internalType": "address[]",
          "name": "targets",
          "type": "address[]"
        },
        {
          "internalType": "bytes[]",
          "name": "data",
          "type": "bytes[]"
        }
      ],
      "stateMutability": "view",
      "type": "function"
    },
    {
      "inputs": [
        {
          "internalType": "uint256",
          "name": "marketId",
          "type": "uint256"
        }
      ],
      "name": "getMarket",
      "outputs": [
        {
          "components": [
            {
              "internalType": "address",
              "name": "alchemist",
              "type": "address"
            },
            {
              "internalType": "address",
              "name": "myt",
              "type": "address"
            },
            {
              "internalType": "address",
              "name": "underlying",
              "type": "address"
            },
            {
              "internalType": "address",
              "name": "debtToken",
              "type": "address"
            },
            {
              "internalType": "address",
              "name": "positionNft",
              "type": "address"
            },
            {
              "internalType": "bool",
              "name": "active",
              "type": "bool"
            }
          ],
          "internalType": "struct AlchemixGatewayWrite.Market",
          "name": "",
          "type": "tuple"
        }
      ],
      "stateMutability": "view",
      "type": "function"
    },
    {
      "inputs": [],
      "name": "marketCount",
      "outputs": [
        {
          "internalType": "uint256",
          "name": "",
          "type": "uint256"
        }
      ],
      "stateMutability": "view",
      "type": "function"
    },
    {
      "inputs": [
        {
          "internalType": "uint256",
          "name": "",
          "type": "uint256"
        }
      ],
      "name": "markets",
      "outputs": [
        {
          "internalType": "address",
          "name": "alchemist",
          "type": "address"
        },
        {
          "internalType": "address",
          "name": "myt",
          "type": "address"
        },
        {
          "internalType": "address",
          "name": "underlying",
          "type": "address"
        },
        {
          "internalType": "address",
          "name": "debtToken",
          "type": "address"
        },
        {
          "internalType": "address",
          "name": "positionNft",
          "type": "address"
        },
        {
          "internalType": "bool",
          "name": "active",
          "type": "bool"
        }
      ],
      "stateMutability": "view",
      "type": "function"
    },
    {
      "inputs": [],
      "name": "owner",
      "outputs": [
        {
          "internalType": "address",
          "name": "",
          "type": "address"
        }
      ],
      "stateMutability": "view",
      "type": "function"
    },
    {
      "inputs": [
        {
          "components": [
            {
              "internalType": "address",
              "name": "token",
              "type": "address"
            },
            {
              "internalType": "uint256",
              "name": "amount",
              "type": "uint256"
            }
          ],
          "internalType": "struct ProtocolTypes.Output[]",
          "name": "inputs",
          "type": "tuple[]"
        },
        {
          "internalType": "bytes",
          "name": "data",
          "type": "bytes"
        }
      ],
      "name": "processLendingInstruction",
      "outputs": [
        {
          "components": [
            {
              "internalType": "address",
              "name": "token",
              "type": "address"
            },
            {
              "internalType": "uint256",
              "name": "amount",
              "type": "uint256"
            }
          ],
          "internalType": "struct ProtocolTypes.Output[]",
          "name": "",
          "type": "tuple[]"
        }
      ],
      "stateMutability": "nonpayable",
      "type": "function"
    },
    {
      "inputs": [
        {
          "internalType": "address",
          "name": "nft",
          "type": "address"
        },
        {
          "internalType": "address",
          "name": "to",
          "type": "address"
        },
        {
          "internalType": "uint256",
          "name": "tokenId",
          "type": "uint256"
        }
      ],
      "name": "recoverNFT",
      "outputs": [],
      "stateMutability": "nonpayable",
      "type": "function"
    },
    {
      "inputs": [
        {
          "internalType": "address",
          "name": "token",
          "type": "address"
        },
        {
          "internalType": "address",
          "name": "to",
          "type": "address"
        },
        {
          "internalType": "uint256",
          "name": "amount",
          "type": "uint256"
        }
      ],
      "name": "recoverTokens",
      "outputs": [],
      "stateMutability": "nonpayable",
      "type": "function"
    },
    {
      "inputs": [
        {
          "internalType": "address",
          "name": "alchemist",
          "type": "address"
        }
      ],
      "name": "registerMarket",
      "outputs": [
        {
          "internalType": "uint256",
          "name": "marketId",
          "type": "uint256"
        }
      ],
      "stateMutability": "nonpayable",
      "type": "function"
    },
    {
      "inputs": [],
      "name": "renounceOwnership",
      "outputs": [],
      "stateMutability": "nonpayable",
      "type": "function"
    },
    {
      "inputs": [
        {
          "internalType": "uint256",
          "name": "marketId",
          "type": "uint256"
        },
        {
          "internalType": "bool",
          "name": "active",
          "type": "bool"
        }
      ],
      "name": "setMarketActive",
      "outputs": [],
      "stateMutability": "nonpayable",
      "type": "function"
    },
    {
      "inputs": [
        {
          "internalType": "address",
          "name": "newOwner",
          "type": "address"
        }
      ],
      "name": "transferOwnership",
      "outputs": [],
      "stateMutability": "nonpayable",
      "type": "function"
    }
  ],
  "transactionHash": "0xa70c6166da944490bc60ed1dacf2fc5f09a924fea1370e9db6a995302a08bb52",
  "args": [
    "0x4a7E57e9324CCE2c73B520817571bcBFF56846EA",
    "0x0BE61223F99E57b8b8B7033a77B54Adc7f7cF027"
  ],
  "numDeployments": 2,
  "solcInputHash": "dfe4350660c3559bce33812b4b515bbc",
  "bytecode": "0x60a03461011e57601f61328f38819003918201601f19168301916001600160401b0383118484101761012257808492604094855283398101031261011e57610052602061004b83610136565b9201610136565b906001600160a01b038116156100ee576080526001600160a01b031680156100db575f80546001600160a01b031981168317825560405192916001600160a01b03909116907f8be0079c531659141344cd1fd0a4f28419497f9722a3daafe3b4186f6b6457e09080a360018055613144908161014b823960805181818161020901526115b80152f35b631e4fbdf760e01b5f525f60045260245ffd5b60405162461bcd60e51b81526020600482015260086024820152670726f757465723d360c41b6044820152606490fd5b5f80fd5b634e487b7160e01b5f52604160045260245ffd5b51906001600160a01b038216820361011e5756fe60806040526004361015610011575f80fd5b5f3560e01c80630d7f50351461010457806332fe7b26146100ff57806352ed5875146100fa5780635f3e849f146100f5578063715018a6146100f05780638be80a2e146100eb5780638da5cb5b146100e6578063a79b9ec9146100e1578063aad11a3f146100dc578063ae4be46d146100d7578063aea61556146100d2578063b1283e77146100cd578063eb44fdd3146100c8578063ec979082146100c35763f2fde38b146100be575f80fd5b6110f5565b6110d8565b610f90565b610f0e565b610e75565b610de0565b610a72565b6106e7565b6106c0565b610685565b610628565b61056c565b610415565b6101f4565b610163565b6001600160a01b031690565b6001600160a01b0381160361012657565b5f80fd5b359061013582610115565b565b60609060031901126101265760043561014f81610115565b9060243561015c81610115565b9060443590565b346101265761017136610137565b909161017b6117e6565b6001600160a01b031691823b15610126576040516323b872dd60e01b8152915f9183916101ac9130600485016111dd565b93818381819703925af180156101d2576101c4575080f35b6101d091505f906111ba565b005b6111ff565b5f91031261012657565b6001600160a01b03909116815260200190565b34610126575f366003190112610126576040517f00000000000000000000000000000000000000000000000000000000000000006001600160a01b03168152602090f35b9181601f84011215610126578235916001600160401b038311610126576020808501948460061b01011161012657565b90606060031983011261012657600435916001600160401b0383116101265780602384011215610126576004830135926001600160401b038411610126578160248560051b830101116101265760240192916102c4602461012a565b91604435906001600160401b038211610126576102e391600401610238565b9091565b90602080835192838152019201905f5b8181106103045750505090565b82516001600160a01b03168452602093840193909201916001016102f7565b9080602083519182815201916020808360051b8301019401925f915b83831061034e57505050505090565b909192939460208080600193601f19868203018752818a518051918291828552018484015e5f828201840152601f01601f19160101970195949190910192019061033f565b90602080835192838152019201905f5b8181106103b05750505090565b825180516001600160a01b0316855260209081015181860152604090940193909201916001016103a3565b91610404906103f661041295936060865260608601906102e7565b908482036020860152610323565b916040818403910152610393565b90565b346101265761042336610268565b9290938160011b93828504600214831517156105675761044b6104458661126b565b9561129d565b955f5f5b8581106104b5575061046090611337565b946104696112e6565b945f5b89898383106104915761048d8a8a80518452518452604051938493846103db565b0390f35b888a84936104af938a8a8a6104aa8f9a8c60019c61139a565b611876565b0161046c565b6104c86104c382888861139a565b6114ea565b6104d1816114cc565b60028114908115610552575b811561053d575b8115610528575b8115610514575b50610500575b60010161044f565b9061050c6001916113e5565b9190506104f8565b60069150610521816114cc565b145f6104f2565b9050610533816114cc565b60058114906104eb565b9050610548816114cc565b60048114906104e4565b905061055d816114cc565b60038114906104dd565b61120a565b346101265761057a36610137565b90916105846117e6565b6040516370a0823160e01b81526001600160a01b0391909116929091602083806105b130600483016101e1565b0381875afa9283156101d2575f936105f7575b505f1981036105f15750815b8083116105e9575b50816105e057005b6101d092611dd1565b91505f6105d8565b916105d0565b61061a91935060203d602011610621575b61061281836111ba565b8101906113c1565b915f6105c4565b503d610608565b34610126575f366003190112610126576106406117e6565b5f80546001600160a01b0319811682556001600160a01b03165f5160206130ef5f395f51905f528280a3005b6001600160a01b03165f90815260036020526040902090565b34610126576020366003190112610126576004356106a281610115565b60018060a01b03165f526003602052602060405f2054604051908152f35b34610126575f366003190112610126575f546040516001600160a01b039091168152602090f35b346101265760203660031901126101265760043561070481610115565b61070c6117e6565b6001600160a01b038116908115610970576107268161066c565b54610a32576040516322d80e0d60e11b8152602081600481865afa9081156101d2575f91610a13575b50604051632495a59960e01b815290602082600481875afa9182156101d2575f926109f2575b50604051631f1b131360e31b8152602081600481885afa9081156101d2575f916109d3575b5060405163c886391d60e01b815290602082600481895afa9182156101d2575f926109b2575b506001600160a01b038316801580156109a1575b8015610990575b801561097f575b610970576020600491604051928380926338d52e0f60e01b82525afa9081156101d2575f91610941575b506001600160a01b03858116908216036109195761048d6108d488887faa44f9e1752427055be107f43e8626b1120cd256dd9a72c5eac3f8f27a922a0c89896109068a8a61085b6004546113e5565b8099819861086883600455565b6108cf610873611236565b61087d83826113f3565b61088a89602083016113f3565b6108978a604083016113f3565b6108a486606083016113f3565b6108b187608083016113f3565b600160a08201526108ca855f52600260205260405f2090565b61143e565b61066c565b55604080516001600160a01b039586168152958516602087015290841690850152909116606083015281906080820190565b0390a36040519081529081906020820190565b63156742bb60e01b5f526001600160a01b03808516600452908116602452841660445260645ffd5b610963915060203d602011610969575b61095b81836111ba565b8101906113d0565b5f61080c565b503d610951565b63d92e233d60e01b5f5260045ffd5b506001600160a01b038316156107e2565b506001600160a01b038216156107db565b506001600160a01b038516156107d4565b6109cc91925060203d6020116109695761095b81836111ba565b905f6107c0565b6109ec915060203d6020116109695761095b81836111ba565b5f61079a565b610a0c91925060203d6020116109695761095b81836111ba565b905f610775565b610a2c915060203d6020116109695761095b81836111ba565b5f61074f565b636604557d60e01b5f526001600160a01b031660045260245ffd5b9091610a64610412936040845260408401906102e7565b916020818403910152610323565b3461012657610a8036610268565b505050610a8c8161126b565b915f5f5b838110610d0a5750610aa18361126b565b92610aab8161126b565b905f935f5b828110610bfe57505050610ac4838361158b565b93610ad16104458661126b565b955f935f915b818310610b9c575050505f925b848410610afa576040518061048d898983610a4d565b610b94600191610b2c610b1d610b108887611577565b516001600160a01b031690565b610b27838b611577565b6113f3565b610b6b610b79610b3c8888611577565b51604051633f66000160e11b602082015260248101919091523060448201525f60648201529182906084820190565b03601f1981018352826111ba565b610b83828b611577565b52610b8e818a611577565b506113e5565b930192610ae4565b909194610bf5600191610bbf610bb5610b108a87611577565b610b27838d611577565b60405163a22cb46560e01b6020820152610be081610b6b3060248301611598565b610bea828d611577565b52610b8e818c611577565b95019190610ad7565b6003610c116104c38386869c999c61139a565b610c1a816114cc565b03610d0257610c49610c44610c3d610c3384878761139a565b60808101906114f4565b3691611541565b611e13565b5f5f5b888110610ca4575b5015610c69575b506001905b01969396610ab0565b8660a082610c8b8b610b276001979c610c85610c9d9851610109565b92611577565b0151610c978288611577565b526113e5565b9590610c5b565b610cb1610b10828c611577565b610cc3610cbe8551610109565b610109565b6001600160a01b039091161480610ceb575b610ce157600101610c4c565b505060015f610c54565b50610cf68188611577565b5160a084015114610cd5565b600190610c60565b6002610d1d6104c383878799969961139a565b610d26816114cc565b03610dc757610d3f610c44610c3d610c3384888861139a565b6080015f805b878110610d8a575b50906001929115610d64575b505b01939093610a90565b610d71610d849151610109565b610b27610d7d896113e5565b9886611577565b5f610d59565b610d97610b108287611577565b610da4610cbe8551610109565b6001600160a01b0390911614610dbc57600101610d45565b506001905080610d4d565b600190610d5b565b906020610412928181520190610393565b34610126576040366003190112610126576004356001600160401b03811161012657610e10903690600401610238565b90602435906001600160401b0382116101265736602383011215610126576004820135906001600160401b0382116101265736602483850101116101265761048d936024610e5f9401916115b1565b60405191829182610dcf565b8015150361012657565b3461012657604036600319011261012657600435602435610e9581610e6b565b610e9d6117e6565b81158015610f03575b610ef05760207f0cbdedcbbb365233681d67712a65f290db1f09e6cfa510def1266a5883b6717691835f5260028252610ee581600460405f2001611421565b6040519015158152a2005b506376db8f8d60e11b5f5260045260245ffd5b506004548211610ea6565b34610126576020366003190112610126576004355f908152600260208181526040928390208054600182015493820154600383015460049093015486516001600160a01b0393841681529583169486019490945281169484019490945283166060830152918216608082015260ff60a092831c1615159181019190915260c090f35b3461012657602036600319011261012657600435610fac6117b6565b50801580156110cd575b6110bb575f52600260205261048d60405f2061105a611051600460405193610fdd8561117f565b80546001600160a01b0390811686526001820154610fff9116602087016113f3565b61101861100f6002830154610109565b604087016113f3565b6110316110286003830154610109565b606087016113f3565b015461104861103f82610109565b608086016113f3565b60a01c60ff1690565b151560a0830152565b6040805182516001600160a01b039081168252602080850151821690830152838301518116928201929092526060808401518316908201526080808401519092169181019190915260a09182015115159181019190915290819060c0820190565b6376db8f8d60e11b5f5260045260245ffd5b506004548111610fb6565b34610126575f366003190112610126576020600454604051908152f35b346101265760203660031901126101265760043561111281610115565b61111a6117e6565b6001600160a01b03168015611158575f80546001600160a01b03198116831782556001600160a01b0316905f5160206130ef5f395f51905f529080a3005b631e4fbdf760e01b5f525f60045260245ffd5b634e487b7160e01b5f52604160045260245ffd5b60c081019081106001600160401b0382111761119a57604052565b61116b565b604081019081106001600160401b0382111761119a57604052565b601f909101601f19168101906001600160401b0382119082101761119a57604052565b6001600160a01b03918216815291166020820152604081019190915260600190565b6040513d5f823e3d90fd5b634e487b7160e01b5f52601160045260245ffd5b906103e98202918083046103e9149015171561056757565b6040519061013560c0836111ba565b604051906101356040836111ba565b6001600160401b03811161119a5760051b60200190565b9061127582611254565b61128260405191826111ba565b8281528092611293601f1991611254565b0190602036910137565b906112a782611254565b6112b460405191826111ba565b82815280926112c5601f1991611254565b01905f5b8281106112d557505050565b8060606020809385010152016112c9565b604051906112f38261119f565b5f6020838281520152565b6040519061130d6020836111ba565b5f80835282815b82811061132057505050565b60209061132b6112e6565b82828501015201611314565b9061134182611254565b61134e60405191826111ba565b828152809261135f601f1991611254565b01905f5b82811061136f57505050565b60209061137a6112e6565b82828501015201611363565b634e487b7160e01b5f52603260045260245ffd5b91908110156113bc5760051b8101359060be1981360301821215610126570190565b611386565b90816020910312610126575190565b90816020910312610126575161041281610115565b5f1981146105675760010190565b6001600160a01b039091169052565b80546001600160a01b0319166001600160a01b03909216919091179055565b805460ff60a01b191691151560a01b60ff60a01b16919091179055565b9060a0600461013593611459600180851b0385511682611402565b611471600180851b0360208601511660018301611402565b611489600180851b0360408601511660028301611402565b6114a1600180851b0360608601511660038301611402565b01916114b8600180841b0360808301511684611402565b0151151590611421565b600a111561012657565b600a11156114d657565b634e487b7160e01b5f52602160045260245ffd5b35610412816114c2565b903590601e198136030182121561012657018035906001600160401b0382116101265760200191813603831361012657565b6001600160401b03811161119a57601f01601f191660200190565b92919261154d82611526565b9161155b60405193846111ba565b829481845281830111610126578281602093845f960137010152565b80518210156113bc5760209160051b010190565b9190820180921161056757565b6001600160a01b0390911681525f602082015260400190565b91929091907f00000000000000000000000000000000000000000000000000000000000000006001600160a01b0316330361171757830192602081850312610126578035906001600160401b03821161012657019160c083850312610126576040519161161d8361117f565b8335611628816114c2565b83526116366020850161012a565b926020810193845261164a6040860161012a565b604082019081526060808701359083019081529095909260808201356001600160401b038111610126576116ab61169d8a60a061168f6104129d6116b4968901611753565b96608089019788520161176e565b9360a0860194855251611e13565b94519651610109565b948251518181106116df575b505050506116d99051946116d3866114cc565b51610109565b93611f0e565b6116d99497506020939650906117026116fd84938361170b9661179c565b6117ac565b9651519161179c565b013593905f80806116c0565b60405162461bcd60e51b815260206004820152601460248201527313db9b1e481c9bdd5d195c8818d85b8818d85b1b60621b6044820152606490fd5b9080601f830112156101265781602061041293359101611541565b919082602091031261012657604051602081016001600160401b0381118282101761119a5760405291358252565b91908110156113bc5760061b0190565b3561041281610115565b604051906117c38261117f565b5f60a0838281528260208201528260408201528260608201528260808201520152565b5f546001600160a01b031633036117f957565b63118cdaa760e01b5f523360045260245ffd5b90816060910312610126578051916040602083015192015190565b9081526001600160a01b03909116602082015260400190565b9081526001600160a01b039091166020820152604081019190915260600190565b90816020910312610126575161041281610e6b565b96939195949096611890610c44610c3d60808401846114f4565b9061189d602082016117ac565b9760608201359560a083013590808210611d8c575b50505060026118c0826114ea565b6118c9816114cc565b03611a1c575090602060806119209695949301986118ed610cbe610cbe8c51610109565b60405163e985e9c560e01b81526001600160a01b0390921660048301523060248301529096879190829081906044820190565b03915afa9788156101d257611979986020965f916119ef575b501561197c575b50505061195561194e611245565b95866113f3565b828501520191825192611967846113e5565b90526119738383611577565b52611577565b50565b6119da92610b276119906119999351610109565b91875190611577565b60405163a22cb46560e01b8682015230602482015260016044820152906119cd82606481015b03601f1981018452836111ba565b8451916119738383611577565b506119e582516113e5565b82525f8080611940565b611a0f9150873d8911611a15575b611a0781836111ba565b810190611861565b5f611939565b503d6119fd565b97506003611a2d89969594966114ea565b611a36816114cc565b03611b2e57611a789750611a50610cbe610cbe8351610109565b91602060a083019384519060405180809d8194636528ea0160e01b8352309060048401611827565b03915afa9586156101d257846020976119799b5f91611b11575b5010611aa8575b5050505061195561194e611245565b611afb93611acc6119cd92610b27611ac36119bf9751610109565b918a5190611577565b51604051633f66000160e11b8982015260248101919091523060448201525f1960648201529283906084820190565b50611b0682516113e5565b82525f808080611a99565b611b289150893d8b116106215761061281836111ba565b5f611a92565b9593505050936005611b3f826114ea565b611b48816114cc565b03611c00575050611b8a6060611b64610cbe610cbe8651610109565b60a085015190604051808095819463faf2bf7360e01b8352600483019190602083019252565b03915afa9384156101d257611bc46060611bbc611bb4611979986020965f91611bd0575b5061121e565b6103e8900490565b950151610109565b9361195561194e611245565b611bf09150843d8611611bf9575b611be881836111ba565b81019061180c565b5090505f611bae565b503d611bde565b90926006611c0d836114ea565b611c16816114cc565b03611d4257611c5891506060611c32610cbe610cbe8451610109565b60a083015190604051808096819463faf2bf7360e01b8352600483019190602083019252565b03915afa9182156101d2575f92611d1f575b50611c7b610cbe6040830151610109565b6001600160a01b03851603611d0c57611cc091611ca0610cbe610cbe60209451610109565b60405180809581946314e29b0d60e01b8352600483019190602083019252565b03915afa9384156101d257611ce4611bb4611979966020945f91611cef575061121e565b61195561194e611245565b611d069150853d87116106215761061281836111ba565b5f611bae565b5061197993611ce4611bb460209361121e565b611d3991925060603d606011611bf957611be881836111ba565b5050905f611c6a565b50611d4e6004916114ea565b611d57816114cc565b14611d6157505050565b602061197993611d79611d72611245565b94856113f3565b5f828501520191825192611967846113e5565b829a506020939750611da56116fd8383611dab9661179c565b9a61179c565b0135935f80806118b2565b6001600160a01b039091168152602081019190915260400190565b611df861013593926119bf60405194859263a9059cbb60e01b602085015260248401611db6565b612095565b9190826040910312610126576020825192015190565b90611e1c6117b6565b916040815110611eff5780602080611e3993518301019101611dfd565b9080158015611ef4575b611ee257611e59815f52600260205260405f2090565b60048101549160ff60a084901c1615611ee25750611edb91610cbe611ec9600384611e90611e8a611ed29754610109565b8b6113f3565b611ea9611ea06001830154610109565b60208c016113f3565b611ec2611eb96002830154610109565b60408c016113f3565b0154610109565b606088016113f3565b608085016113f3565b60a0830152565b6376db8f8d60e11b5f5260045260245ffd5b506004548111611e43565b63271a26f160e01b5f5260045ffd5b91929093611f1b836114cc565b82158015612082575b61206d57611f31836114cc565b600283146120515750611f43826114cc565b60038214611ffb57611f54826114cc565b60048214611fe05750611f66816114cc565b60058114611fba5780611f7a6006926114cc565b14611f8e57639ba6061b60e01b5f5260045ffd5b60a082015115611fab57611fa58161041293612e5b565b906126a2565b63d816cfd160e01b5f5260045ffd5b505060a081015115611fab5780611fa5611fda6060610412940151610109565b91612e01565b92905060a081015115611fab576104129282611fa5926127b5565b9291905060a082015115611fab57606082019061201b610cbe8351610109565b6001600160a01b0390911603612042576104129261203c611fa59251610109565b92612724565b63936bb5ad60e01b5f5260045ffd5b9093915060a082015115611fab576104129383611fa593612280565b9290915061207a9361210e565b6104126112fe565b5061208c836114cc565b60018314611f24565b5f806120bd9260018060a01b03169360208151910182865af16120b6613061565b9083613090565b80519081151591826120f3575b50506120d35750565b635274afe760e01b5f9081526001600160a01b0391909116600452602490fd5b6121069250602080918301019101611861565b155f806120ca565b9290612118612f41565b6001600160a01b031661212d83303384612f61565b604084019061213f610cbe8351610109565b810361225c575061219a5f9361217b610cbe610cbe612163610cbe60209751610109565b6116d385888c01926121758451610109565b90612f89565b90604051958680948193636e553f6560e01b8352309060048401611827565b03925af19283156101d257612207936020935f9161223f575b50915b6121d3836121c9610cbe87860151610109565b6121758551610109565b5f60a06121e6610cbe610cbe8651610109565b93015160405163bc157ac160e01b8152968795869485939160048501611840565b03925af180156101d257612220575b5061013560018055565b6122389060203d6020116106215761061281836111ba565b505f612216565b6122569150843d86116106215761061281836111ba565b5f6121b3565b905061226e610cbe6020860151610109565b036120425761220792602092916121b6565b9061229493929161228f612f41565b61229b565b9060018055565b9160808301906122b1610cbe610cbe8451610109565b9460a0850192835196803b15610126576040516323b872dd60e01b8152975f9189918290849082906122e890308a600485016111dd565b03925af19687156101d2576123329761268e575b50606061230f610cbe610cbe8951610109565b85519060405180809b819463faf2bf7360e01b8352600483019190602083019252565b03915afa9687156101d2575f9761266b575b506040860192612357610cbe8551610109565b6001600160a01b039096169586036125d25761237f602089611ca0610cbe610cbe8c51610109565b03915afa9081156101d2575f916125b3575b50811061253357506020876123dd98905b80821161252b575b506123bb610cbe610cbe8a51610109565b8651915f604051809c81958294631cc6d2f960e31b8452309060048501611840565b03925af19687156101d2575f976124fe575b50610cbe610cbe6124009251610109565b9251833b156101265761242d935f92836040518097819582946323b872dd60e01b845230600485016111dd565b03925af19081156101d25761244c92610cbe926124e4575b5051610109565b036124c95761249b5f9261246a610cbe610cbe602080960151610109565b604051635d043b2960e11b815260048101929092523360248301523060448301529093849283919082906064820190565b03925af19081156101d2575f916124b0575090565b610412915060203d6020116106215761061281836111ba565b816124dd610cbe6020610412940151610109565b3390611dd1565b806124f25f6124f8936111ba565b806101d7565b5f612445565b612400919750610cbe612522610cbe9260203d6020116106215761061281836111ba565b989250506123ef565b90505f6123aa565b602061256b9161254b610cbe610cbe848c0151610109565b6040518080958194630a28a47760e01b8352600483019190602083019252565b03915afa80156101d2576123dd986020925f92612594575b50808211156123a2579050806123a2565b6125ac919250833d85116106215761061281836111ba565b905f612583565b6125cc915060203d6020116106215761061281836111ba565b5f612391565b6125e6610cbe6020899b9a949b0151610109565b86036125fb576123dd979891602091906123a2565b848361260d610cbe610cbe8d51610109565b9151823b156101265761263a925f92836040518096819582946323b872dd60e01b845230600485016111dd565b03925af180156101d2576126575763936bb5ad60e01b5f5260045ffd5b806124f25f612665936111ba565b80612042565b61268591975060603d606011611bf957611be881836111ba565b5050955f612344565b806124f25f61269c936111ba565b5f6122fc565b9190916126af6001611254565b906126bd60405192836111ba565b60018252601f196126ce6001611254565b015f5b81811061270d5750508193604051916126e98361119f565b6001600160a01b0316825260208201528151156113bc57602082015251156113bc57565b6020906127186112e6565b828287010152016126d1565b61272c612f41565b805160a082015191906001600160a01b0316803b156101265760405163eaa968e560e01b81526004810193909352602483018490523060448401525f908390606490829084905af19081156101d257610cbe60606124dd926127979587956127a1575b500151610109565b9061013560018055565b806124f25f6127af936111ba565b5f61278f565b91906127bf612f41565b60608301906127d1610cbe8351610109565b6001600160a01b03909116908103612a1e5750610cbe6127f19151610109565b6040516370a0823160e01b815290926001600160a01b03841692906020838061281d30600483016101e1565b0381875afa9283156101d2575f936129fd575b5061283d82303388612f61565b61284d610cbe610cbe8351610109565b60a08201805160405163faf2bf7360e01b81526004810191909152909391606090829060249082905afa80156101d2575f915f916129d9575b50808211156129d05761289891612df4565b905b818111156129c957505b80612942575b505050602060405180936370a0823160e01b825281806128cd30600483016101e1565b03915afa9182156101d2575f92612921575b5080821115612918576128f191612df4565b905b8180612906575b50509061013560018055565b612911913390611dd1565b5f806128fa565b50505f906128f3565b61293b91925060203d6020116106215761061281836111ba565b905f6128df565b61299492612966610cbe610cbe856116d38661296060209951610109565b8d612f89565b905160405163b390c0ab60e01b815260048101939093526024830152909283919082905f9082906044820190565b03925af180156101d2576129aa575b80806128aa565b6129c29060203d6020116106215761061281836111ba565b505f6129a3565b90506128a4565b50505f9061289a565b90506129f4915060603d606011611bf957611be881836111ba565b9150905f612886565b612a1791935060203d6020116106215761061281836111ba565b915f612830565b92905060408101612a32610cbe8251610109565b84148015612ddc575b15612042576040516370a0823160e01b81529260208480612a5f30600483016101e1565b0381885afa9384156101d2575f94612dbb575b50612a7f81303388612f61565b612a8c610cbe8351610109565b858103612db557612ad582612ab6610cbe610cbe6020956116d35f98888c01926121758451610109565b90604051948580948193636e553f6560e01b8352309060048401611827565b03925af19081156101d2575f91612d96575b505b612af9610cbe610cbe8551610109565b60a08401805160405163faf2bf7360e01b81526004810191909152909291606090829060249082905afa9081156101d257612b69916020915f91612d74575b50612b49610cbe610cbe8951610109565b604051808095819463a487f67760e01b8352600483019190602083019252565b03915afa9081156101d2575f91612d55575b5080821115612d4e57905b81612cb4575b612b969250612df4565b9081612c31575b50506040516370a0823160e01b815291905060208280612bc030600483016101e1565b0381865afa9182156101d2575f92612c10575b5080821115612c0757612be591612df4565b905b8180612bf5575b5050612797565b612c00913390611dd1565b5f80612bee565b50505f90612be7565b612c2a91925060203d6020116106215761061281836111ba565b905f612bd3565b610cbe612c3e9151610109565b8403612c9557612c5d60209161246a610cbe610cbe855f970151610109565b03925af180156101d257612c76575b505b5f8080612b9d565b612c8e9060203d6020116106215761061281836111ba565b505f612c6c565b612caf91612caa610cbe602033930151610109565b611dd1565b612c6e565b6020612d155f94612cd885612cce610cbe868c0151610109565b6121758b51610109565b612ce8610cbe610cbe8a51610109565b905160405163d8aed14560e01b815260048101879052602481019190915295869283919082906044820190565b03925af19283156101d257612b9693612d2f575b50612b8c565b612d479060203d6020116106215761061281836111ba565b505f612d29565b5080612b86565b612d6e915060203d6020116106215761061281836111ba565b5f612b7b565b612d8d915060603d606011611bf957611be881836111ba565b5090505f612b38565b612daf915060203d6020116106215761061281836111ba565b5f612ae7565b50612ae9565b612dd591945060203d6020116106215761061281836111ba565b925f612a72565b50612ded610cbe6020840151610109565b8414612a3b565b9190820391821161056757565b606060a0600180821b0383511692015160246040518094819363faf2bf7360e01b835260048301525afa9081156101d2575f91612e3c575090565b612e55915060603d606011611bf957611be881836111ba565b50905090565b90612e98916060612e72610cbe610cbe8451610109565b60a083015190604051808097819463faf2bf7360e01b8352600483019190602083019252565b03915afa9283156101d2575f93612f1e575b50612ebb610cbe6040830151610109565b6001600160a01b03909216918214612ef157610cbe6020612edd920151610109565b146104125763936bb5ad60e01b5f5260045ffd5b6020915091611ca0610cbe610cbe612f099551610109565b03915afa9081156101d2575f916124b0575090565b612f3891935060603d606011611bf957611be881836111ba565b5050915f612eaa565b600260015414612f52576002600155565b633ee5aeb560e01b5f5260045ffd5b90611df8906119bf610135956040519586936323b872dd60e01b6020860152602485016111dd565b919091612ff060405192612fc184612fb3602082019363095ea7b360e01b85528860248401611db6565b03601f1981018652856111ba565b83516001600160a01b038416915f91829182855af190612fdf613061565b8261302f575b508161302857501590565b612ff957505050565b611df8610b6b6130226101359560405192839163095ea7b360e01b602084015260248301611598565b82612095565b3b15919050565b80519192508115918215613047575b5050905f612fe5565b61305a9250602080918301019101611861565b5f8061303e565b3d1561308b573d9061307282611526565b9161308060405193846111ba565b82523d5f602084013e565b606090565b906130b457508051156130a557805190602001fd5b630a12f52160e11b5f5260045ffd5b815115806130e5575b6130c5575090565b639996b31560e01b5f9081526001600160a01b0391909116600452602490fd5b50803b156130bd56fe8be0079c531659141344cd1fd0a4f28419497f9722a3daafe3b4186f6b6457e0a2646970667358221220d9fd746e97645cda3ff0b90646e7e38232eec25a3a8bb6fa5dde253a4348f76764736f6c634300081e0033",
  "devdoc": {
    "errors": {
      "AddressEmptyCode(address)": [
        {
          "details": "There's no code at `target` (it is not a contract)."
        }
      ],
      "AddressInsufficientBalance(address)": [
        {
          "details": "The ETH balance of the account is not enough to perform the operation."
        }
      ],
      "FailedInnerCall()": [
        {
          "details": "A call to an address target failed. The target may have reverted."
        }
      ],
      "OwnableInvalidOwner(address)": [
        {
          "details": "The owner is not a valid owner account. (eg. `address(0)`)"
        }
      ],
      "OwnableUnauthorizedAccount(address)": [
        {
          "details": "The caller account is not authorized to perform an operation."
        }
      ],
      "ReentrancyGuardReentrantCall()": [
        {
          "details": "Unauthorized reentrant call."
        }
      ],
      "SafeERC20FailedOperation(address)": [
        {
          "details": "An operation with an ERC20 token failed."
        }
      ]
    },
    "kind": "dev",
    "methods": {
      "owner()": {
        "details": "Returns the address of the current owner."
      },
      "registerMarket(address)": {
        "returns": {
          "marketId": "Newly assigned 1-indexed market id."
        }
      },
      "renounceOwnership()": {
        "details": "Leaves the contract without owner. It will not be possible to call `onlyOwner` functions. Can only be called by the current owner. NOTE: Renouncing ownership will leave the contract without an owner, thereby disabling any functionality that is only available to the owner."
      },
      "transferOwnership(address)": {
        "details": "Transfers ownership of the contract to a new account (`newOwner`). Can only be called by the current owner."
      }
    },
    "title": "AlchemixGatewayWrite",
    "version": 1
  },
  "userdoc": {
    "kind": "user",
    "methods": {
      "ROUTER()": {
        "notice": "Immutable router address that can call protected functions"
      },
      "alchemistToMarketId(address)": {
        "notice": "Reverse index for off-chain enumeration / dedup at registration time."
      },
      "authorize((uint8,address,address,uint256,bytes,(uint256))[],address,(address,uint256)[])": {
        "notice": "Return user-side authorization calls for the given lending instructions.         One element per input (or (address(0), bytes(\"\")) if none needed).         Also returns the produced outputs from the simulation of these instructions."
      },
      "getMarket(uint256)": {
        "notice": "Return the registered market data for a given marketId (reverts if unset)."
      },
      "marketCount()": {
        "notice": "Monotonic counter; first registered market gets id=1."
      },
      "markets(uint256)": {
        "notice": "marketId => Market. marketId is 1-indexed; 0 is reserved as \"unset\"."
      },
      "recoverNFT(address,address,uint256)": {
        "notice": "Recover stuck ERC721 (owner only) — needed only if a position NFT is left here         after a partial revert mid-withdraw."
      },
      "recoverTokens(address,address,uint256)": {
        "notice": "Recover stuck tokens (owner only)"
      },
      "registerMarket(address)": {
        "notice": "Register a new Alchemix market. Pulls all dependent addresses from the alchemist         itself so callers cannot spoof MYT/underlying/debtToken via context."
      },
      "setMarketActive(uint256,bool)": {
        "notice": "Disable or re-enable an existing market without removing its id (so historical         positions can still query / repay / withdraw against it)."
      }
    },
    "notice": "Kapan write gateway for Alchemix V3. Architecture summary -------------------- - Each Alchemist instance is configured for one (yieldToken, debtToken, underlyingToken)   triple. The yieldToken is an ERC4626 \"MYT\" (Meta-Yield Token, a Morpho V2 vault). - Positions are ERC721 NFTs. `tokenId == 0` passed to `deposit` mints a fresh NFT to `recipient`. - `withdraw` and `mint` require msg.sender to *own* the NFT (no operator bypass).   `mintFrom` works via pre-approved `mintAllowance`. - `burn` repays only UNEARMARKED debt using alAsset; `repay` covers both portions using MYT. Market registry --------------- To prevent address-spoofing attacks via crafted instruction contexts (a malicious caller could otherwise route the gateway through a fake ERC4626 and trap funds in the gateway for later draining), every Alchemix market must be registered by the gateway owner via `registerMarket(address alchemist)`. At registration time the gateway pulls MYT/underlying/debtToken/positionNFT *from the alchemist itself* and verifies `IERC4626(myt).asset() == underlying`. There is no other way to introduce a market — instruction processing always reads from this storage. Context encoding for {LendingInstruction} -----------------------------------------   bytes context = abi.encode(     uint256 marketId,     // returned by registerMarket; resolves to a Market struct     uint256 tokenId       // 0 only valid for Deposit / DepositCollateral   ) Token field semantics per op (with auto-wrap/unwrap on the underlying↔MYT boundary) ----------------------------------------------------------------------------------   Deposit / DepositCollateral : token == underlying (auto-wrap) OR token == myt (direct)   WithdrawCollateral          : token == underlying (auto-unwrap) OR token == myt (direct)   Borrow                      : token == debtToken   Repay                       : token == debtToken (uses burn) OR underlying/myt (uses repay)   GetBorrowBalance            : token == debtToken   GetSupplyBalance            : token == underlying (normalized) OR token == myt (raw)",
    "version": 1
  },
  "storageLayout": {
    "storage": [
      {
        "astId": 8,
        "contract": "contracts/v2/gateways/alchemix/AlchemixGatewayWrite.sol:AlchemixGatewayWrite",
        "label": "_owner",
        "offset": 0,
        "slot": "0",
        "type": "t_address"
      },
      {
        "astId": 1158,
        "contract": "contracts/v2/gateways/alchemix/AlchemixGatewayWrite.sol:AlchemixGatewayWrite",
        "label": "_status",
        "offset": 0,
        "slot": "1",
        "type": "t_uint256"
      },
      {
        "astId": 1391,
        "contract": "contracts/v2/gateways/alchemix/AlchemixGatewayWrite.sol:AlchemixGatewayWrite",
        "label": "markets",
        "offset": 0,
        "slot": "2",
        "type": "t_mapping(t_uint256,t_struct(Market)1385_storage)"
      },
      {
        "astId": 1396,
        "contract": "contracts/v2/gateways/alchemix/AlchemixGatewayWrite.sol:AlchemixGatewayWrite",
        "label": "alchemistToMarketId",
        "offset": 0,
        "slot": "3",
        "type": "t_mapping(t_address,t_uint256)"
      },
      {
        "astId": 1399,
        "contract": "contracts/v2/gateways/alchemix/AlchemixGatewayWrite.sol:AlchemixGatewayWrite",
        "label": "marketCount",
        "offset": 0,
        "slot": "4",
        "type": "t_uint256"
      }
    ],
    "types": {
      "t_address": {
        "encoding": "inplace",
        "label": "address",
        "numberOfBytes": "20"
      },
      "t_bool": {
        "encoding": "inplace",
        "label": "bool",
        "numberOfBytes": "1"
      },
      "t_mapping(t_address,t_uint256)": {
        "encoding": "mapping",
        "key": "t_address",
        "label": "mapping(address => uint256)",
        "numberOfBytes": "32",
        "value": "t_uint256"
      },
      "t_mapping(t_uint256,t_struct(Market)1385_storage)": {
        "encoding": "mapping",
        "key": "t_uint256",
        "label": "mapping(uint256 => struct AlchemixGatewayWrite.Market)",
        "numberOfBytes": "32",
        "value": "t_struct(Market)1385_storage"
      },
      "t_struct(Market)1385_storage": {
        "encoding": "inplace",
        "label": "struct AlchemixGatewayWrite.Market",
        "members": [
          {
            "astId": 1374,
            "contract": "contracts/v2/gateways/alchemix/AlchemixGatewayWrite.sol:AlchemixGatewayWrite",
            "label": "alchemist",
            "offset": 0,
            "slot": "0",
            "type": "t_address"
          },
          {
            "astId": 1376,
            "contract": "contracts/v2/gateways/alchemix/AlchemixGatewayWrite.sol:AlchemixGatewayWrite",
            "label": "myt",
            "offset": 0,
            "slot": "1",
            "type": "t_address"
          },
          {
            "astId": 1378,
            "contract": "contracts/v2/gateways/alchemix/AlchemixGatewayWrite.sol:AlchemixGatewayWrite",
            "label": "underlying",
            "offset": 0,
            "slot": "2",
            "type": "t_address"
          },
          {
            "astId": 1380,
            "contract": "contracts/v2/gateways/alchemix/AlchemixGatewayWrite.sol:AlchemixGatewayWrite",
            "label": "debtToken",
            "offset": 0,
            "slot": "3",
            "type": "t_address"
          },
          {
            "astId": 1382,
            "contract": "contracts/v2/gateways/alchemix/AlchemixGatewayWrite.sol:AlchemixGatewayWrite",
            "label": "positionNft",
            "offset": 0,
            "slot": "4",
            "type": "t_address"
          },
          {
            "astId": 1384,
            "contract": "contracts/v2/gateways/alchemix/AlchemixGatewayWrite.sol:AlchemixGatewayWrite",
            "label": "active",
            "offset": 20,
            "slot": "4",
            "type": "t_bool"
          }
        ],
        "numberOfBytes": "160"
      },
      "t_uint256": {
        "encoding": "inplace",
        "label": "uint256",
        "numberOfBytes": "32"
      }
    }
  }
}