{
  "address": "0x203b0D6EF18fDD1F87e398bF8741978A25643e1D",
  "abi": [
    {
      "inputs": [
        {
          "internalType": "contract AlchemixGatewayWrite",
          "name": "_writeGateway",
          "type": "address"
        },
        {
          "internalType": "contract IPoolAddressesProvider",
          "name": "_poolAddressesProvider",
          "type": "address"
        }
      ],
      "stateMutability": "nonpayable",
      "type": "constructor"
    },
    {
      "inputs": [
        {
          "internalType": "uint256",
          "name": "marketId",
          "type": "uint256"
        }
      ],
      "name": "MarketNotRegistered",
      "type": "error"
    },
    {
      "inputs": [
        {
          "internalType": "address",
          "name": "token",
          "type": "address"
        }
      ],
      "name": "PriceUnavailable",
      "type": "error"
    },
    {
      "inputs": [
        {
          "internalType": "uint256",
          "name": "marketId",
          "type": "uint256"
        },
        {
          "internalType": "address",
          "name": "token",
          "type": "address"
        }
      ],
      "name": "getAssetPrice",
      "outputs": [
        {
          "internalType": "uint256",
          "name": "",
          "type": "uint256"
        }
      ],
      "stateMutability": "view",
      "type": "function"
    },
    {
      "inputs": [
        {
          "internalType": "uint256",
          "name": "marketId",
          "type": "uint256"
        },
        {
          "internalType": "uint256",
          "name": "tokenId",
          "type": "uint256"
        }
      ],
      "name": "getCurrentLtvBps",
      "outputs": [
        {
          "internalType": "uint256",
          "name": "",
          "type": "uint256"
        }
      ],
      "stateMutability": "view",
      "type": "function"
    },
    {
      "inputs": [
        {
          "internalType": "uint256",
          "name": "marketId",
          "type": "uint256"
        }
      ],
      "name": "getLiquidationLtvBps",
      "outputs": [
        {
          "internalType": "uint256",
          "name": "",
          "type": "uint256"
        }
      ],
      "stateMutability": "view",
      "type": "function"
    },
    {
      "inputs": [
        {
          "internalType": "uint256",
          "name": "marketId",
          "type": "uint256"
        },
        {
          "internalType": "uint256",
          "name": "tokenId",
          "type": "uint256"
        }
      ],
      "name": "getPositionValue",
      "outputs": [
        {
          "internalType": "uint256",
          "name": "collateralValueUsd",
          "type": "uint256"
        },
        {
          "internalType": "uint256",
          "name": "debtValueUsd",
          "type": "uint256"
        }
      ],
      "stateMutability": "view",
      "type": "function"
    },
    {
      "inputs": [],
      "name": "poolAddressesProvider",
      "outputs": [
        {
          "internalType": "contract IPoolAddressesProvider",
          "name": "",
          "type": "address"
        }
      ],
      "stateMutability": "view",
      "type": "function"
    },
    {
      "inputs": [],
      "name": "writeGateway",
      "outputs": [
        {
          "internalType": "contract AlchemixGatewayWrite",
          "name": "",
          "type": "address"
        }
      ],
      "stateMutability": "view",
      "type": "function"
    }
  ],
  "transactionHash": "0x23ff8dc2c3cf5a1f3f645df82367026ad125fedf326145803e66628df017d236",
  "args": [
    "0x105ED3AC4650A4858b7AcBE95bb80714d9dD74E2",
    "0xa97684ead0e402dC232d5A977953DF7ECBaB3CDb"
  ],
  "numDeployments": 2,
  "solcInputHash": "68fb4e1fcb223d08472c82905263e9f3",
  "bytecode": "0x60c03461009a57601f610c2238819003918201601f19168301916001600160401b0383118484101761009e57808492604094855283398101031261009a578051906001600160a01b038216820361009a5760200151906001600160a01b038216820361009a5760805260a052604051610b6f90816100b3823960805181818161036301526108db015260a0518181816102b101526109de0152f35b5f80fd5b634e487b7160e01b5f52604160045260245ffdfe6080806040526004361015610012575f80fd5b5f3560e01c9081630d1fe0881461035157508063201e3ca21461031f578063389192b0146103065780636ac02aa8146102e057806380e17d871461029c57638b6104e21461005e575f80fd5b346101fd5761006c36610392565b905f906100795f916108be565b5060405163faf2bf7360e01b815260048101979097526001600160a01b039093169592909150606083602481895afa908115610209576004935f905f93610267575b5060206100c7856109c8565b60405163313ce56760e01b815296909587919082906001600160a01b03165afa918215610209576004955f93610245575b5060405163313ce56760e01b81529560209187919082906001600160a01b03165afa948515610209575f95610214575b5080610179575b5050604095508061014a575b50505082519182526020820152f35b610171935061016061016c93926101669261041d565b916103f8565b90610430565b610b19565b5f808061013b565b6020919296506024604051809981936314e29b0d60e01b835260048301525afa958615610209575f966101cf575b5061016c81610166610160856101c26101c79660409c610ae5565b61041d565b935f8061012f565b95506020863d602011610201575b816101ea602093836103a8565b810103126101fd5794519461016c6101a7565b5f80fd5b3d91506101dd565b6040513d5f823e3d90fd5b61023791955060203d60201161023e575b61022f81836103a8565b8101906103df565b935f610128565b503d610225565b602091935061026090823d841161023e5761022f81836103a8565b92906100f8565b905061028c91925060603d606011610295575b61028481836103a8565b8101906105e5565b5091905f6100bb565b503d61027a565b346101fd575f3660031901126101fd576040517f00000000000000000000000000000000000000000000000000000000000000006001600160a01b03168152602090f35b346101fd5760203660031901126101fd5760206102fe60043561081f565b604051908152f35b346101fd5760206102fe61031936610392565b90610614565b346101fd5760403660031901126101fd576024356001600160a01b03811681036101fd576102fe60209160043561044e565b346101fd575f3660031901126101fd577f00000000000000000000000000000000000000000000000000000000000000006001600160a01b03168152602090f35b60409060031901126101fd576004359060243590565b601f909101601f19168101906001600160401b038211908210176103cb57604052565b634e487b7160e01b5f52604160045260245ffd5b908160209103126101fd575160ff811681036101fd5790565b60ff16604d811161040957600a0a90565b634e487b7160e01b5f52601160045260245ffd5b8181029291811591840414171561040957565b811561043a570490565b634e487b7160e01b5f52601260045260245ffd5b61045a909291926108be565b506001600160a01b0395861695821692908684149081156105d2575b506105c3576001600160a01b031685811461049e5785638fd228af60e01b5f5260045260245ffd5b60049192939495506020906040519283809263313ce56760e01b82525afa908115610209576020916104d7915f916105ac575b506103f8565b6040516314e29b0d60e01b8152600481019190915293849060249082906001600160a01b03165afa928315610209575f93610576575b5061052560049361051f6020936109c8565b9061041d565b916040519384809263313ce56760e01b82525afa9182156102095761055492610166915f9161055757506103f8565b90565b610570915060203d60201161023e5761022f81836103a8565b5f6104d1565b92506020833d6020116105a4575b81610591602093836103a8565b810103126101fd5791519161052561050d565b3d9150610584565b6105709150833d851161023e5761022f81836103a8565b509150506105549192506109c8565b6001600160a01b0316871490505f610476565b908160609103126101fd578051916040602083015192015190565b9060ff8091169116039060ff821161040957565b61061d906108be565b5060405163faf2bf7360e01b815260048101959095529093929091506001600160a01b0316606083602481845afa928315610209575f905f946107fa575b5080156107f15760405163313ce56760e01b815294602090869060049082906001600160a01b03165afa928315610209576004955f946107cf575b5060405163313ce56760e01b81529560209187919082906001600160a01b03165afa948515610209575f956107ad575b506020906024604051809481936314e29b0d60e01b835260048301525afa80156102095782905f90610777575b6106fd9250610ae5565b92831561076f57610725928260ff811660ff84168181145f146107445750505090505b610ae5565b9061271082029180830461271014901517156104095761055491610430565b111561075f5761075a6101669161072094610600565b6103f8565b61075a6107209361051f92610600565b505050505f90565b50506020813d6020116107a5575b81610792602093836103a8565b810103126101fd57816106fd91516106f3565b3d9150610785565b60209195506107c890823d841161023e5761022f81836103a8565b94906106c6565b60209194506107ea90823d841161023e5761022f81836103a8565b9390610696565b50505050505f90565b905061081691935060603d6060116102955761028481836103a8565b5092905f61065b565b602061082c6004926108be565b505060405163e8b6571b60e01b81529485939092508391506001600160a01b03165afa908115610209575f91610878575b5080156108735769021e19e0c9bab24000000490565b505f90565b90506020813d6020116108a2575b81610893602093836103a8565b810103126101fd57515f61085d565b3d9150610886565b51906001600160a01b03821682036101fd57565b60405163b1283e7760e01b8152600481018290529160c0836024817f00000000000000000000000000000000000000000000000000000000000000006001600160a01b03165afa8015610209575f935f925f925f925f91610945575b509394929391926001600160a01b038716156109335750565b6376db8f8d60e11b5f5260045260245ffd5b9650509250505060c0833d60c0116109c0575b8161096560c093836103a8565b810103126101fd57610976836108aa565b610982602085016108aa565b9361098f604082016108aa565b9261099c606083016108aa565b9260a06109ab608085016108aa565b930151801515036101fd57959392915f61091a565b3d9150610958565b604051631f94a27560e31b8152906020826004817f00000000000000000000000000000000000000000000000000000000000000006001600160a01b03165afa918215610209575f92610aa6575b5060405163b3596f0760e01b81526001600160a01b03918216600482018190529092909160209184916024918391165afa918215610209575f92610a72575b508115610a60575090565b638fd228af60e01b5f5260045260245ffd5b9091506020813d602011610a9e575b81610a8e602093836103a8565b810103126101fd5751905f610a55565b3d9150610a81565b91506020823d602011610add575b81610ac1602093836103a8565b810103126101fd576020610ad66024936108aa565b9250610a16565b3d9150610ab4565b9060ff166004811115610b1557600319019060ff8211610409576101c2610b0e610554936103f8565b8092610430565b5090565b620f42409004620f4240810290808204620f42401490151715610409579056fea2646970667358221220fa8ecda05fff0f258fe23f23e3e95435e3b6144ba77eda95ad9b1ffa2533d42c64736f6c634300081e0033",
  "devdoc": {
    "kind": "dev",
    "methods": {
      "getAssetPrice(uint256,address)": {
        "details": "Underlying & alAsset both price as the underlying (face-value peg). MYT prices         as `pps * underlyingPrice` via the alchemist's own conversion."
      },
      "getCurrentLtvBps(uint256,uint256)": {
        "details": "LTV = debt_face_value / collateral_underlying_value, both expressed in         the underlying token's decimals. We collapse via USD-8 to be consistent         with the rest of KapanViewRouter, but for stable underlyings the answer         is invariant to the price chosen."
      },
      "getLiquidationLtvBps(uint256)": {
        "details": "minimumCollateralization is 1e18 fixed-point: 1.111e18 → ~90% face-value LTV cap."
      },
      "getPositionValue(uint256,uint256)": {
        "returns": {
          "collateralValueUsd": "Underlying value of MYT collateral, priced via oracle.",
          "debtValueUsd": "      Face-value debt priced as underlying (alAsset peg)."
        }
      }
    },
    "title": "AlchemixGatewayView",
    "version": 1
  },
  "userdoc": {
    "kind": "user",
    "methods": {
      "getAssetPrice(uint256,address)": {
        "notice": "8-decimal USD price for an Alchemix-known token."
      },
      "getCurrentLtvBps(uint256,uint256)": {
        "notice": "Current face-value LTV in bps for an Alchemix position."
      },
      "getLiquidationLtvBps(uint256)": {
        "notice": "Liquidation LTV (the alchemist's minimumCollateralization floor) in bps."
      },
      "getPositionValue(uint256,uint256)": {
        "notice": "Position value in 8-decimal USD."
      },
      "poolAddressesProvider()": {
        "notice": "Aave's PoolAddressesProvider — we read the live price oracle off it on each call,         matching the pattern used by AaveGatewayView. This makes oracle rotations on the         Aave side automatic without redeploying this view contract."
      },
      "writeGateway()": {
        "notice": "The write gateway whose market registry we read from. Sharing this registry         ensures both contracts agree on the (alchemist, MYT, underlying, debtToken,         positionNFT) tuple per marketId, with no possibility of divergence from owners         registering markets in only one of the two."
      }
    },
    "notice": "Read-side adapter for Alchemix V3 used by KapanViewRouter and downstream triggers         (LimitPriceTrigger, LtvTrigger, AutoLeverageTrigger). Why a separate view contract ---------------------------- Alchemix positions are NFT-shaped, not address-shaped. The shared trigger interfaces (`getCurrentLtv`, `getPositionValue`, `getCollateralPrice`, …) take `(address user, bytes context)` because every other supported lending protocol keys positions by user address. For Alchemix we ignore `user` at the gateway-view boundary and key everything by `(marketId, tokenId)` which the router decodes from `context` and forwards to us. Pricing model ------------- - alAsset (debtToken) is treated as **face-value pegged to its underlying** (e.g. alUSD ↔ $1,   alETH ↔ 1 WETH). This matches the alchemist's own minimumCollateralization invariant,   which is enforced in face-value terms — the transmuter rebases alAsset to its underlying   on a 1:1 basis. Trigger LTV math uses face-value, so we mirror that here. - Collateral is held as MYT shares; its USD value is   `convertYieldTokensToUnderlying(shares) * underlyingPriceUsd / 10^underlyingDecimals`. - Underlying USD prices come from a configurable IAaveOracle (Aave's price oracle is the   most reliable cross-chain source for the underlyings used by Alchemix markets — USDC, WETH,   etc.). Switch the oracle by re-deploying; we keep it immutable for safety. Liquidation LTV --------------- `minimumCollateralization()` is alchemist's per-market collateralization floor expressed as a 1e18 fixed-point (e.g. 1.111e18 → 90% face-value LTV cap). We invert it to bps.",
    "version": 1
  },
  "storageLayout": {
    "storage": [],
    "types": null
  }
}