{
  "address": "0x2252dc55D5B3A587FE50077A8cF82366b72C719D",
  "abi": [
    {
      "inputs": [
        {
          "internalType": "address",
          "name": "owner_",
          "type": "address"
        }
      ],
      "stateMutability": "nonpayable",
      "type": "constructor"
    },
    {
      "inputs": [
        {
          "internalType": "address",
          "name": "owner",
          "type": "address"
        }
      ],
      "name": "OwnableInvalidOwner",
      "type": "error"
    },
    {
      "inputs": [
        {
          "internalType": "address",
          "name": "account",
          "type": "address"
        }
      ],
      "name": "OwnableUnauthorizedAccount",
      "type": "error"
    },
    {
      "anonymous": false,
      "inputs": [
        {
          "indexed": true,
          "internalType": "address",
          "name": "baseToken",
          "type": "address"
        },
        {
          "indexed": true,
          "internalType": "address",
          "name": "comet",
          "type": "address"
        }
      ],
      "name": "CometRegistered",
      "type": "event"
    },
    {
      "anonymous": false,
      "inputs": [
        {
          "indexed": true,
          "internalType": "address",
          "name": "baseToken",
          "type": "address"
        },
        {
          "indexed": true,
          "internalType": "address",
          "name": "oldComet",
          "type": "address"
        },
        {
          "indexed": true,
          "internalType": "address",
          "name": "newComet",
          "type": "address"
        }
      ],
      "name": "CometReplaced",
      "type": "event"
    },
    {
      "anonymous": false,
      "inputs": [
        {
          "indexed": true,
          "internalType": "address",
          "name": "previousOwner",
          "type": "address"
        },
        {
          "indexed": true,
          "internalType": "address",
          "name": "newOwner",
          "type": "address"
        }
      ],
      "name": "OwnershipTransferred",
      "type": "event"
    },
    {
      "anonymous": false,
      "inputs": [
        {
          "indexed": true,
          "internalType": "address",
          "name": "oldGateway",
          "type": "address"
        },
        {
          "indexed": true,
          "internalType": "address",
          "name": "newGateway",
          "type": "address"
        }
      ],
      "name": "WriteGatewayUpdated",
      "type": "event"
    },
    {
      "inputs": [
        {
          "internalType": "contract ICompoundComet",
          "name": "comet",
          "type": "address"
        }
      ],
      "name": "addComet",
      "outputs": [],
      "stateMutability": "nonpayable",
      "type": "function"
    },
    {
      "inputs": [],
      "name": "allActiveBaseTokens",
      "outputs": [
        {
          "internalType": "address[]",
          "name": "bases",
          "type": "address[]"
        }
      ],
      "stateMutability": "view",
      "type": "function"
    },
    {
      "inputs": [],
      "name": "allActiveComets",
      "outputs": [
        {
          "internalType": "address[]",
          "name": "comets",
          "type": "address[]"
        }
      ],
      "stateMutability": "view",
      "type": "function"
    },
    {
      "inputs": [],
      "name": "allBaseTokens",
      "outputs": [
        {
          "internalType": "address[]",
          "name": "",
          "type": "address[]"
        }
      ],
      "stateMutability": "view",
      "type": "function"
    },
    {
      "inputs": [],
      "name": "allComets",
      "outputs": [
        {
          "internalType": "address[]",
          "name": "",
          "type": "address[]"
        }
      ],
      "stateMutability": "view",
      "type": "function"
    },
    {
      "inputs": [
        {
          "internalType": "address",
          "name": "token",
          "type": "address"
        },
        {
          "internalType": "address",
          "name": "user",
          "type": "address"
        }
      ],
      "name": "getBalance",
      "outputs": [
        {
          "internalType": "uint256",
          "name": "",
          "type": "uint256"
        }
      ],
      "stateMutability": "view",
      "type": "function"
    },
    {
      "inputs": [
        {
          "internalType": "contract ICompoundComet",
          "name": "comet",
          "type": "address"
        }
      ],
      "name": "getBaseToken",
      "outputs": [
        {
          "internalType": "address",
          "name": "",
          "type": "address"
        }
      ],
      "stateMutability": "view",
      "type": "function"
    },
    {
      "inputs": [
        {
          "internalType": "address",
          "name": "token",
          "type": "address"
        },
        {
          "internalType": "address",
          "name": "user",
          "type": "address"
        }
      ],
      "name": "getBorrowBalance",
      "outputs": [
        {
          "internalType": "uint256",
          "name": "",
          "type": "uint256"
        }
      ],
      "stateMutability": "view",
      "type": "function"
    },
    {
      "inputs": [
        {
          "internalType": "address",
          "name": "token",
          "type": "address"
        },
        {
          "internalType": "address",
          "name": "user",
          "type": "address"
        }
      ],
      "name": "getBorrowBalanceCurrent",
      "outputs": [
        {
          "internalType": "uint256",
          "name": "",
          "type": "uint256"
        }
      ],
      "stateMutability": "view",
      "type": "function"
    },
    {
      "inputs": [
        {
          "internalType": "address",
          "name": "token",
          "type": "address"
        }
      ],
      "name": "getBorrowRate",
      "outputs": [
        {
          "internalType": "uint256",
          "name": "borrowRate",
          "type": "uint256"
        },
        {
          "internalType": "bool",
          "name": "success",
          "type": "bool"
        }
      ],
      "stateMutability": "view",
      "type": "function"
    },
    {
      "inputs": [
        {
          "internalType": "address",
          "name": "market",
          "type": "address"
        },
        {
          "internalType": "address",
          "name": "asset",
          "type": "address"
        }
      ],
      "name": "getCollateralPrice",
      "outputs": [
        {
          "internalType": "uint256",
          "name": "",
          "type": "uint256"
        }
      ],
      "stateMutability": "view",
      "type": "function"
    },
    {
      "inputs": [
        {
          "internalType": "address",
          "name": "baseToken",
          "type": "address"
        }
      ],
      "name": "getComet",
      "outputs": [
        {
          "internalType": "contract ICompoundComet",
          "name": "",
          "type": "address"
        }
      ],
      "stateMutability": "view",
      "type": "function"
    },
    {
      "inputs": [
        {
          "internalType": "address",
          "name": "token",
          "type": "address"
        },
        {
          "internalType": "address",
          "name": "account",
          "type": "address"
        }
      ],
      "name": "getCompoundData",
      "outputs": [
        {
          "internalType": "uint256",
          "name": "supplyRate",
          "type": "uint256"
        },
        {
          "internalType": "uint256",
          "name": "borrowRate",
          "type": "uint256"
        },
        {
          "internalType": "uint256",
          "name": "balance",
          "type": "uint256"
        },
        {
          "internalType": "uint256",
          "name": "borrowBalance",
          "type": "uint256"
        },
        {
          "internalType": "uint256",
          "name": "price",
          "type": "uint256"
        },
        {
          "internalType": "uint256",
          "name": "priceScale",
          "type": "uint256"
        }
      ],
      "stateMutability": "view",
      "type": "function"
    },
    {
      "inputs": [
        {
          "internalType": "address",
          "name": "token",
          "type": "address"
        },
        {
          "internalType": "address",
          "name": "account",
          "type": "address"
        }
      ],
      "name": "getDepositedCollaterals",
      "outputs": [
        {
          "internalType": "address[]",
          "name": "collaterals",
          "type": "address[]"
        },
        {
          "internalType": "uint128[]",
          "name": "balances",
          "type": "uint128[]"
        },
        {
          "internalType": "string[]",
          "name": "displayNames",
          "type": "string[]"
        }
      ],
      "stateMutability": "view",
      "type": "function"
    },
    {
      "inputs": [
        {
          "internalType": "address",
          "name": "",
          "type": "address"
        },
        {
          "internalType": "address",
          "name": "",
          "type": "address"
        }
      ],
      "name": "getLtv",
      "outputs": [
        {
          "internalType": "uint256",
          "name": "",
          "type": "uint256"
        }
      ],
      "stateMutability": "pure",
      "type": "function"
    },
    {
      "inputs": [
        {
          "internalType": "address",
          "name": "",
          "type": "address"
        }
      ],
      "name": "getMaxLtv",
      "outputs": [
        {
          "internalType": "uint256",
          "name": "",
          "type": "uint256"
        }
      ],
      "stateMutability": "pure",
      "type": "function"
    },
    {
      "inputs": [
        {
          "internalType": "address",
          "name": "token",
          "type": "address"
        },
        {
          "internalType": "address",
          "name": "user",
          "type": "address"
        }
      ],
      "name": "getPossibleCollaterals",
      "outputs": [
        {
          "internalType": "address[]",
          "name": "collateralAddresses",
          "type": "address[]"
        },
        {
          "internalType": "uint256[]",
          "name": "balances",
          "type": "uint256[]"
        },
        {
          "internalType": "string[]",
          "name": "symbols",
          "type": "string[]"
        },
        {
          "internalType": "uint8[]",
          "name": "decimals",
          "type": "uint8[]"
        }
      ],
      "stateMutability": "view",
      "type": "function"
    },
    {
      "inputs": [
        {
          "internalType": "address",
          "name": "token",
          "type": "address"
        }
      ],
      "name": "getPrice",
      "outputs": [
        {
          "internalType": "uint256",
          "name": "",
          "type": "uint256"
        }
      ],
      "stateMutability": "view",
      "type": "function"
    },
    {
      "inputs": [
        {
          "internalType": "address",
          "name": "market",
          "type": "address"
        },
        {
          "internalType": "address[]",
          "name": "tokens",
          "type": "address[]"
        }
      ],
      "name": "getPrices",
      "outputs": [
        {
          "internalType": "uint256[]",
          "name": "",
          "type": "uint256[]"
        }
      ],
      "stateMutability": "view",
      "type": "function"
    },
    {
      "inputs": [
        {
          "internalType": "address",
          "name": "token",
          "type": "address"
        }
      ],
      "name": "getSupplyRate",
      "outputs": [
        {
          "internalType": "uint256",
          "name": "supplyRate",
          "type": "uint256"
        },
        {
          "internalType": "bool",
          "name": "success",
          "type": "bool"
        }
      ],
      "stateMutability": "view",
      "type": "function"
    },
    {
      "inputs": [
        {
          "internalType": "address",
          "name": "market",
          "type": "address"
        }
      ],
      "name": "getSupportedCollaterals",
      "outputs": [
        {
          "internalType": "address[]",
          "name": "collateralAddresses",
          "type": "address[]"
        }
      ],
      "stateMutability": "view",
      "type": "function"
    },
    {
      "inputs": [
        {
          "internalType": "address",
          "name": "market",
          "type": "address"
        },
        {
          "internalType": "address",
          "name": "collateral",
          "type": "address"
        }
      ],
      "name": "isCollateralSupported",
      "outputs": [
        {
          "internalType": "bool",
          "name": "isSupported",
          "type": "bool"
        }
      ],
      "stateMutability": "view",
      "type": "function"
    },
    {
      "inputs": [
        {
          "internalType": "address",
          "name": "token",
          "type": "address"
        },
        {
          "internalType": "contract AggregatorV3Interface",
          "name": "feed",
          "type": "address"
        }
      ],
      "name": "overrideFeed",
      "outputs": [],
      "stateMutability": "nonpayable",
      "type": "function"
    },
    {
      "inputs": [
        {
          "internalType": "address",
          "name": "",
          "type": "address"
        }
      ],
      "name": "overrideFeeds",
      "outputs": [
        {
          "internalType": "contract AggregatorV3Interface",
          "name": "",
          "type": "address"
        }
      ],
      "stateMutability": "view",
      "type": "function"
    },
    {
      "inputs": [],
      "name": "owner",
      "outputs": [
        {
          "internalType": "address",
          "name": "",
          "type": "address"
        }
      ],
      "stateMutability": "view",
      "type": "function"
    },
    {
      "inputs": [],
      "name": "renounceOwnership",
      "outputs": [],
      "stateMutability": "nonpayable",
      "type": "function"
    },
    {
      "inputs": [
        {
          "internalType": "address",
          "name": "baseToken",
          "type": "address"
        },
        {
          "internalType": "address",
          "name": "comet_",
          "type": "address"
        }
      ],
      "name": "setCometForBase",
      "outputs": [],
      "stateMutability": "nonpayable",
      "type": "function"
    },
    {
      "inputs": [
        {
          "internalType": "address",
          "name": "writeGateway_",
          "type": "address"
        }
      ],
      "name": "setWriteGateway",
      "outputs": [],
      "stateMutability": "nonpayable",
      "type": "function"
    },
    {
      "inputs": [],
      "name": "syncAllCometsFromWriteGateway",
      "outputs": [],
      "stateMutability": "nonpayable",
      "type": "function"
    },
    {
      "inputs": [
        {
          "internalType": "address",
          "name": "baseToken",
          "type": "address"
        }
      ],
      "name": "syncCometFromWriteGateway",
      "outputs": [],
      "stateMutability": "nonpayable",
      "type": "function"
    },
    {
      "inputs": [
        {
          "internalType": "address",
          "name": "",
          "type": "address"
        }
      ],
      "name": "tokenToComet",
      "outputs": [
        {
          "internalType": "contract ICompoundComet",
          "name": "",
          "type": "address"
        }
      ],
      "stateMutability": "view",
      "type": "function"
    },
    {
      "inputs": [
        {
          "internalType": "address",
          "name": "newOwner",
          "type": "address"
        }
      ],
      "name": "transferOwnership",
      "outputs": [],
      "stateMutability": "nonpayable",
      "type": "function"
    },
    {
      "inputs": [],
      "name": "writeGateway",
      "outputs": [
        {
          "internalType": "address",
          "name": "",
          "type": "address"
        }
      ],
      "stateMutability": "view",
      "type": "function"
    }
  ],
  "transactionHash": "0x87c4e348a27c26649e39f42fe7abd068a17c537f770d707b226d65ba0b21a04b",
  "args": [
    "0x0BE61223F99E57b8b8B7033a77B54Adc7f7cF027"
  ],
  "numDeployments": 6,
  "solcInputHash": "170b11f0625b37629b5dbe0856540380",
  "bytecode": "0x6080604052348015600e575f5ffd5b50604051612fcc380380612fcc833981016040819052602b9160b4565b806001600160a01b038116605857604051631e4fbdf760e01b81525f600482015260240160405180910390fd5b605f816065565b505060df565b5f80546001600160a01b038381166001600160a01b0319831681178455604051919092169283917f8be0079c531659141344cd1fd0a4f28419497f9722a3daafe3b4186f6b6457e09190a35050565b5f6020828403121560c3575f5ffd5b81516001600160a01b038116811460d8575f5ffd5b9392505050565b612ee0806100ec5f395ff3fe608060405234801561000f575f5ffd5b50600436106101f2575f3560e01c80637846611311610114578063d4fac45d116100a9578063e9db3c9f11610079578063e9db3c9f14610465578063f2dbd070146104a5578063f2f1be1e146104b8578063f2fde38b146104e0578063f5125d3f146104f3575f5ffd5b8063d4fac45d14610424578063d531647714610437578063d71275f61461043f578063e94201c714610452575f5ffd5b80639f2204e8116100e45780639f2204e8146103ee578063be305bf814610401578063c9475cd714610409578063cc2255aa14610411575f5ffd5b806378466113146103a05780638ca28635146103c35780638da5cb5b146103d657806391aa9c6f146103e6575f5ffd5b806341976e091161018a57806369e65e491161015a57806369e65e49146103465780636b5441a914610368578063715018a614610390578063755f62ce14610398575f5ffd5b806341976e09146102ed5780636072aa0714610300578063647e0c201461031357806366e2d09b14610326575f5ffd5b806324bddcfd116101c557806324bddcfd1461027d57806326e46ed3146102925780632a8e3a49146102ba5780633613d527146102cd575f5ffd5b80630c10fd0f146101f65780630d1fe08814610226578063104e999d14610239578063118e31b71461025c575b5f5ffd5b6102096102043660046127d1565b610508565b6040516001600160a01b0390911681526020015b60405180910390f35b600554610209906001600160a01b031681565b61024c6102473660046127ec565b61056f565b60405161021d9493929190612910565b61026f61026a3660046127ec565b6108ac565b60405190815260200161021d565b61029061028b3660046127ec565b61092c565b005b6102096102a03660046127d1565b60016020525f90815260409020546001600160a01b031681565b6102906102c83660046127d1565b610961565b6102e06102db366004612991565b610b84565b60405161021d9190612a12565b61026f6102fb3660046127d1565b610c2e565b61020961030e3660046127d1565b610dd4565b61026f6103213660046127d1565b505f90565b6103396103343660046127d1565b610ed8565b60405161021d9190612a24565b6103596103543660046127ec565b6110c3565b60405161021d93929190612a36565b61037b6103763660046127d1565b61141b565b6040805192835290151560208301520161021d565b61029061152f565b610339611542565b6103b36103ae3660046127ec565b6115a2565b604051901515815260200161021d565b6102906103d13660046127d1565b611734565b5f546001600160a01b0316610209565b61029061178d565b6102906103fc3660046127ec565b611a80565b610339611c4e565b610339611ed6565b61029061041f3660046127d1565b611fe7565b61026f6104323660046127ec565b612117565b610339612154565b61037b61044d3660046127d1565b612261565b61026f6104603660046127ec565b6122dd565b6104786104733660046127ec565b6122ef565b604080519687526020870195909552938501929092526060840152608083015260a082015260c00161021d565b61026f6104b33660046127ec565b61260a565b6102096104c63660046127d1565b60026020525f90815260409020546001600160a01b031681565b6102906104ee3660046127d1565b612705565b61026f6105013660046127ec565b5f92915050565b5f816001600160a01b031663c55dae636040518163ffffffff1660e01b8152600401602060405180830381865afa158015610545573d5f5f3e3d5ffd5b505050506040513d601f19601f820116820180604052508101906105699190612aba565b92915050565b6060806060805f5f5f61058289896110c3565b919450925090505f805b83518110156105d5575f8482815181106105a8576105a8612ad5565b60200260200101516001600160801b031611156105cd57816105c981612afd565b9250505b60010161058c565b50806001600160401b038111156105ee576105ee612b15565b604051908082528060200260200182016040528015610617578160200160208202803683370190505b509750806001600160401b0381111561063257610632612b15565b60405190808252806020026020018201604052801561065b578160200160208202803683370190505b509650806001600160401b0381111561067657610676612b15565b6040519080825280602002602001820160405280156106a957816020015b60608152602001906001900390816106945790505b509550806001600160401b038111156106c4576106c4612b15565b6040519080825280602002602001820160405280156106ed578160200160208202803683370190505b5094505f805b845181101561089d575f85828151811061070f5761070f612ad5565b60200260200101516001600160801b031611156108955785818151811061073857610738612ad5565b60200260200101518a838151811061075257610752612ad5565b60200260200101906001600160a01b031690816001600160a01b03168152505084818151811061078457610784612ad5565b60200260200101516001600160801b03168983815181106107a7576107a7612ad5565b6020026020010181815250508381815181106107c5576107c5612ad5565b60200260200101518883815181106107df576107df612ad5565b60200260200101819052508581815181106107fc576107fc612ad5565b60200260200101516001600160a01b031663313ce5676040518163ffffffff1660e01b8152600401602060405180830381865afa15801561083f573d5f5f3e3d5ffd5b505050506040513d601f19601f820116820180604052508101906108639190612b39565b87838151811061087557610875612ad5565b60ff909216602092830291909101909101528161089181612afd565b9250505b6001016106f3565b50505050505092959194509250565b5f5f6108b784610dd4565b604051630dd3126d60e21b81526001600160a01b0385811660048301529192509082169063374c49b4906024015b602060405180830381865afa158015610900573d5f5f3e3d5ffd5b505050506040513d601f19601f820116820180604052508101906109249190612b52565b949350505050565b610934612742565b6001600160a01b039182165f90815260026020526040902080546001600160a01b03191691909216179055565b610969612742565b5f816001600160a01b031663c55dae636040518163ffffffff1660e01b8152600401602060405180830381865afa1580156109a6573d5f5f3e3d5ffd5b505050506040513d601f19601f820116820180604052508101906109ca9190612aba565b90506001600160a01b038116610a1a5760405162461bcd60e51b815260206004820152601060248201526f0436f6d706f756e643a20626173653d360841b60448201526064015b60405180910390fd5b6001600160a01b038082165f90815260016020908152604080832080548786166001600160a01b03198216811790925590845260049092529091205491169060ff16610ac5576001600160a01b0383165f818152600460205260408120805460ff191660019081179091556003805491820181559091527fc2575a0e9e593c00f959f8c92f12db2869c3395a3b0502d05e2516446f71f85b0180546001600160a01b03191690911790555b826001600160a01b0316826001600160a01b03167fbd7bf039bc2e612983f7f581f4b5d456d978092d546243d55a7b3f8594fb979660405160405180910390a36001600160a01b03811615801590610b2f5750826001600160a01b0316816001600160a01b031614155b15610b7f57826001600160a01b0316816001600160a01b0316836001600160a01b03167f526edd5dd90f5bf0182679e6bfd9599001c52b92e97523563c3302d3a030e29660405160405180910390a45b505050565b60605f826001600160401b03811115610b9f57610b9f612b15565b604051908082528060200260200182016040528015610bc8578160200160208202803683370190505b5090505f5b83811015610c2557610c0086868684818110610beb57610beb612ad5565b90506020020160208101906104b391906127d1565b828281518110610c1257610c12612ad5565b6020908102919091010152600101610bcd565b50949350505050565b6001600160a01b038181165f9081526002602052604081205490911615610cd4576001600160a01b038083165f90815260026020526040808220548151633fabe5a360e21b815291519293169163feaf968c9160048082019260a0929091908290030181865afa158015610ca4573d5f5f3e3d5ffd5b505050506040513d601f19601f82011682018060405250810190610cc89190612b82565b50919695505050505050565b5f610cde83610dd4565b90505f816001600160a01b031663e7dad6bd6040518163ffffffff1660e01b8152600401602060405180830381865afa158015610d1d573d5f5f3e3d5ffd5b505050506040513d601f19601f82011682018060405250810190610d419190612aba565b90506001600160a01b03811615610dcb576040516341976e0960e01b81526001600160a01b0382811660048301528316906341976e0990602401602060405180830381865afa158015610d96573d5f5f3e3d5ffd5b505050506040513d601f19601f82011682018060405250810190610dba9190612be6565b6001600160801b0316949350505050565b505f9392505050565b6001600160a01b038082165f908152600160205260408120549091168015610dfc5792915050565b6005546001600160a01b031615610e90576005546040516326e46ed360e01b81526001600160a01b038581166004830152909116906326e46ed390602401602060405180830381865afa925050508015610e73575060408051601f3d908101601f19168201909252610e7091810190612aba565b60015b15610e90576001600160a01b03811615610e8e579392505050565b505b60405162461bcd60e51b815260206004820152601960248201527f436f6d706f756e643a20636f6d6574206e6f7420666f756e64000000000000006044820152606401610a11565b604051636072aa0760e01b81526001600160a01b03821660048201526060905f903090636072aa0790602401602060405180830381865afa925050508015610f3d575060408051601f3d908101601f19168201909252610f3a91810190612aba565b60015b610f56575050604080515f815260208101909152919050565b90505f816001600160a01b031663a46fe83b6040518163ffffffff1660e01b8152600401602060405180830381865afa158015610f95573d5f5f3e3d5ffd5b505050506040513d601f19601f82011682018060405250810190610fb99190612b39565b90508060ff166001600160401b03811115610fd657610fd6612b15565b604051908082528060200260200182016040528015610fff578160200160208202803683370190505b5092505f5b8160ff168160ff1610156110bb5760405163c8c7fe6b60e01b815260ff821660048201525f906001600160a01b0385169063c8c7fe6b9060240161010060405180830381865afa15801561105a573d5f5f3e3d5ffd5b505050506040513d601f19601f8201168201806040525081019061107e9190612c6e565b90508060200151858360ff168151811061109a5761109a612ad5565b6001600160a01b039092166020928302919091019091015250600101611004565b505050919050565b60608060605f6110d286610dd4565b90505f816001600160a01b031663a46fe83b6040518163ffffffff1660e01b8152600401602060405180830381865afa158015611111573d5f5f3e3d5ffd5b505050506040513d601f19601f820116820180604052508101906111359190612b39565b90508060ff166001600160401b0381111561115257611152612b15565b60405190808252806020026020018201604052801561117b578160200160208202803683370190505b5094508060ff166001600160401b0381111561119957611199612b15565b6040519080825280602002602001820160405280156111cc57816020015b60608152602001906001900390816111b75790505b5092508060ff166001600160401b038111156111ea576111ea612b15565b604051908082528060200260200182016040528015611213578160200160208202803683370190505b5093505f805b8260ff168160ff1610156114105760405163c8c7fe6b60e01b815260ff821660048201525f906001600160a01b0386169063c8c7fe6b9060240161010060405180830381865afa15801561126f573d5f5f3e3d5ffd5b505050506040513d601f19601f820116820180604052508101906112939190612c6e565b6020810151604051632b92a07d60e01b81526001600160a01b038c8116600483015291821660248201529192505f9190871690632b92a07d906044016040805180830381865afa1580156112e9573d5f5f3e3d5ffd5b505050506040513d601f19601f8201168201806040525081019061130d9190612d14565b509050816020015189858151811061132757611327612ad5565b60200260200101906001600160a01b031690816001600160a01b03168152505081602001516001600160a01b03166395d89b416040518163ffffffff1660e01b81526004015f60405180830381865afa158015611386573d5f5f3e3d5ffd5b505050506040513d5f823e601f3d908101601f191682016040526113ad9190810190612d45565b8785815181106113bf576113bf612ad5565b6020026020010181905250808885815181106113dd576113dd612ad5565b6001600160801b0390921660209283029190910190910152836113ff81612afd565b945050600190920191506112199050565b505050509250925092565b6001600160a01b038082165f908152600160205260408120549091829184911615611529575f61144a85610dd4565b9050806001600160a01b031663d955759d826001600160a01b0316637eb711316040518163ffffffff1660e01b8152600401602060405180830381865afa158015611497573d5f5f3e3d5ffd5b505050506040513d601f19601f820116820180604052508101906114bb9190612b52565b6040518263ffffffff1660e01b81526004016114d991815260200190565b602060405180830381865afa1580156114f4573d5f5f3e3d5ffd5b505050506040513d601f19601f820116820180604052508101906115189190612dd7565b6001600160401b0316935060019250505b50915091565b611537612742565b6115405f61276e565b565b6060600380548060200260200160405190810160405280929190818152602001828054801561159857602002820191905f5260205f20905b81546001600160a01b0316815260019091019060200180831161157a575b5050505050905090565b604051636072aa0760e01b81526001600160a01b03831660048201525f9081903090636072aa0790602401602060405180830381865afa925050508015611606575060408051601f3d908101601f1916820190925261160391810190612aba565b60015b611613575f915050610569565b90505f816001600160a01b031663a46fe83b6040518163ffffffff1660e01b8152600401602060405180830381865afa158015611652573d5f5f3e3d5ffd5b505050506040513d601f19601f820116820180604052508101906116769190612b39565b90505f5b8160ff168160ff1610156117295760405163c8c7fe6b60e01b815260ff821660048201525f906001600160a01b0385169063c8c7fe6b9060240161010060405180830381865afa1580156116d0573d5f5f3e3d5ffd5b505050506040513d601f19601f820116820180604052508101906116f49190612c6e565b9050856001600160a01b031681602001516001600160a01b031603611720576001945050505050610569565b5060010161167a565b505f95945050505050565b61173c612742565b600580546001600160a01b038381166001600160a01b0319831681179093556040519116919082907f864aa5b65d00254be4a57e93185f66797e0b72b1d648eb9a569ea297fbd25937905f90a35050565b611795612742565b6005546001600160a01b03166117ed5760405162461bcd60e51b815260206004820152601f60248201527f436f6d706f756e643a2077726974652067617465776179206e6f7420736574006044820152606401610a11565b60055460408051633aafb16760e11b815290515f926001600160a01b03169163755f62ce91600480830192869291908290030181865afa158015611833573d5f5f3e3d5ffd5b505050506040513d5f823e601f3d908101601f1916820160405261185a9190810190612df0565b90505f5b8151811015611a7c575f82828151811061187a5761187a612ad5565b602002602001015190505f816001600160a01b031663c55dae636040518163ffffffff1660e01b8152600401602060405180830381865afa1580156118c1573d5f5f3e3d5ffd5b505050506040513d601f19601f820116820180604052508101906118e59190612aba565b6001600160a01b038181165f90815260016020526040902054919250838116911614611a72576001600160a01b038082165f90815260016020908152604080832080548786166001600160a01b03198216811790925590845260049092529091205491169060ff166119b6576001600160a01b0383165f818152600460205260408120805460ff191660019081179091556003805491820181559091527fc2575a0e9e593c00f959f8c92f12db2869c3395a3b0502d05e2516446f71f85b0180546001600160a01b03191690911790555b826001600160a01b0316826001600160a01b03167fbd7bf039bc2e612983f7f581f4b5d456d978092d546243d55a7b3f8594fb979660405160405180910390a36001600160a01b03811615801590611a205750826001600160a01b0316816001600160a01b031614155b15611a7057826001600160a01b0316816001600160a01b0316836001600160a01b03167f526edd5dd90f5bf0182679e6bfd9599001c52b92e97523563c3302d3a030e29660405160405180910390a45b505b505060010161185e565b5050565b611a88612742565b6001600160a01b03821615801590611aa857506001600160a01b03811615155b611ae55760405162461bcd60e51b815260206004820152600e60248201526d436f6d706f756e643a207a65726f60901b6044820152606401610a11565b6001600160a01b038083165f90815260016020908152604080832080548686166001600160a01b03198216811790925590845260049092529091205491169060ff16611b90576001600160a01b0382165f818152600460205260408120805460ff191660019081179091556003805491820181559091527fc2575a0e9e593c00f959f8c92f12db2869c3395a3b0502d05e2516446f71f85b0180546001600160a01b03191690911790555b816001600160a01b0316836001600160a01b03167fbd7bf039bc2e612983f7f581f4b5d456d978092d546243d55a7b3f8594fb979660405160405180910390a36001600160a01b03811615801590611bfa5750816001600160a01b0316816001600160a01b031614155b15610b7f57816001600160a01b0316816001600160a01b0316846001600160a01b03167f526edd5dd90f5bf0182679e6bfd9599001c52b92e97523563c3302d3a030e29660405160405180910390a4505050565b60605f6003805480602002602001604051908101604052809291908181526020018280548015611ca557602002820191905f5260205f20905b81546001600160a01b03168152600190910190602001808311611c87575b50506005549394505f936001600160a01b0316159250611d3d9150505760055f9054906101000a90046001600160a01b03166001600160a01b031663755f62ce6040518163ffffffff1660e01b81526004015f60405180830381865afa158015611d11573d5f5f3e3d5ffd5b505050506040513d5f823e601f3d908101601f19168201604052611d389190810190612df0565b611d4c565b604080515f8152602081019091525b905080518251611d5c9190612e97565b6001600160401b03811115611d7357611d73612b15565b604051908082528060200260200182016040528015611d9c578160200160208202803683370190505b5092505f805b8351811015611e0357838181518110611dbd57611dbd612ad5565b6020026020010151858380611dd190612afd565b945081518110611de357611de3612ad5565b6001600160a01b0390921660209283029190910190910152600101611da2565b505f5b8251811015611ecc575f838281518110611e2257611e22612ad5565b602090810291909101015190505f805b84811015611e7d57826001600160a01b0316888281518110611e5657611e56612ad5565b60200260200101516001600160a01b031603611e755760019150611e7d565b600101611e32565b5080611ec257818785611e8f81612afd565b965081518110611ea157611ea1612ad5565b60200260200101906001600160a01b031690816001600160a01b0316815250505b5050600101611e06565b5080845250505090565b6003546060905f906001600160401b03811115611ef557611ef5612b15565b604051908082528060200260200182016040528015611f1e578160200160208202803683370190505b5090505f5b600354811015611fe15760038181548110611f4057611f40612ad5565b5f91825260209182902001546040805163c55dae6360e01b815290516001600160a01b039092169263c55dae63926004808401938290030181865afa158015611f8b573d5f5f3e3d5ffd5b505050506040513d601f19601f82011682018060405250810190611faf9190612aba565b828281518110611fc157611fc1612ad5565b6001600160a01b0390921660209283029190910190910152600101611f23565b50919050565b611fef612742565b6005546001600160a01b03166120475760405162461bcd60e51b815260206004820152601f60248201527f436f6d706f756e643a2077726974652067617465776179206e6f7420736574006044820152606401610a11565b6005546040516326e46ed360e01b81526001600160a01b0383811660048301525f9216906326e46ed390602401602060405180830381865afa15801561208f573d5f5f3e3d5ffd5b505050506040513d601f19601f820116820180604052508101906120b39190612aba565b90506001600160a01b038116611ae55760405162461bcd60e51b8152602060048201526024808201527f436f6d706f756e643a20636f6d6574206e6f7420696e207772697465206761746044820152636577617960e01b6064820152608401610a11565b5f5f61212284610dd4565b6040516370a0823160e01b81526001600160a01b038581166004830152919250908216906370a08231906024016108e5565b60605f61215f611c4e565b905080516001600160401b0381111561217a5761217a612b15565b6040519080825280602002602001820160405280156121a3578160200160208202803683370190505b5091505f5b815181101561225c578181815181106121c3576121c3612ad5565b60200260200101516001600160a01b031663c55dae636040518163ffffffff1660e01b8152600401602060405180830381865afa158015612206573d5f5f3e3d5ffd5b505050506040513d601f19601f8201168201806040525081019061222a9190612aba565b83828151811061223c5761223c612ad5565b6001600160a01b03909216602092830291909101909101526001016121a8565b505090565b6001600160a01b038082165f908152600160205260408120549091829184911615611529575f61229085610dd4565b9050806001600160a01b0316639fa83b5a826001600160a01b0316637eb711316040518163ffffffff1660e01b8152600401602060405180830381865afa158015611497573d5f5f3e3d5ffd5b5f6122e883836108ac565b9392505050565b5f5f5f5f5f5f5f6122ff89610dd4565b9050806001600160a01b031663d955759d826001600160a01b0316637eb711316040518163ffffffff1660e01b8152600401602060405180830381865afa15801561234c573d5f5f3e3d5ffd5b505050506040513d601f19601f820116820180604052508101906123709190612b52565b6040518263ffffffff1660e01b815260040161238e91815260200190565b602060405180830381865afa1580156123a9573d5f5f3e3d5ffd5b505050506040513d601f19601f820116820180604052508101906123cd9190612dd7565b6001600160401b03169650806001600160a01b0316639fa83b5a826001600160a01b0316637eb711316040518163ffffffff1660e01b8152600401602060405180830381865afa158015612423573d5f5f3e3d5ffd5b505050506040513d601f19601f820116820180604052508101906124479190612b52565b6040518263ffffffff1660e01b815260040161246591815260200190565b602060405180830381865afa158015612480573d5f5f3e3d5ffd5b505050506040513d601f19601f820116820180604052508101906124a49190612dd7565b6040516370a0823160e01b81526001600160a01b038a811660048301526001600160401b03929092169750908216906370a0823190602401602060405180830381865afa1580156124f7573d5f5f3e3d5ffd5b505050506040513d601f19601f8201168201806040525081019061251b9190612b52565b604051630dd3126d60e21b81526001600160a01b038a811660048301529196509082169063374c49b490602401602060405180830381865afa158015612563573d5f5f3e3d5ffd5b505050506040513d601f19601f820116820180604052508101906125879190612b52565b935061259289610c2e565b9250806001600160a01b031663a0fbddaf6040518163ffffffff1660e01b8152600401602060405180830381865afa1580156125d0573d5f5f3e3d5ffd5b505050506040513d601f19601f820116820180604052508101906125f49190612dd7565b6001600160401b03169150509295509295509295565b5f5f61261584610dd4565b604051631d9df61760e11b81526001600160a01b0385811660048301529192505f91831690633b3bec2e9060240161010060405180830381865afa15801561265f573d5f5f3e3d5ffd5b505050506040513d601f19601f820116820180604052508101906126839190612c6e565b60408181015190516341976e0960e01b81526001600160a01b0391821660048201529192508316906341976e0990602401602060405180830381865afa1580156126cf573d5f5f3e3d5ffd5b505050506040513d601f19601f820116820180604052508101906126f39190612be6565b6001600160801b031695945050505050565b61270d612742565b6001600160a01b03811661273657604051631e4fbdf760e01b81525f6004820152602401610a11565b61273f8161276e565b50565b5f546001600160a01b031633146115405760405163118cdaa760e01b8152336004820152602401610a11565b5f80546001600160a01b038381166001600160a01b0319831681178455604051919092169283917f8be0079c531659141344cd1fd0a4f28419497f9722a3daafe3b4186f6b6457e09190a35050565b6001600160a01b038116811461273f575f5ffd5b5f602082840312156127e1575f5ffd5b81356122e8816127bd565b5f5f604083850312156127fd575f5ffd5b8235612808816127bd565b91506020830135612818816127bd565b809150509250929050565b5f8151808452602084019350602083015f5b8281101561285c5781516001600160a01b0316865260209586019590910190600101612835565b5093949350505050565b5f8151808452602084019350602083015f5b8281101561285c578151865260209586019590910190600101612878565b5f82825180855260208501945060208160051b830101602085015f5b8381101561290457601f19858403018852815180518085528060208301602087015e5f602082870101526020601f19601f830116860101945050506020820191506020880197506001810190506128b2565b50909695505050505050565b608081525f6129226080830187612823565b82810360208401526129348187612866565b905082810360408401526129488186612896565b8381036060850152845180825260208087019350909101905f5b8181101561298357835160ff16835260209384019390920191600101612962565b509098975050505050505050565b5f5f5f604084860312156129a3575f5ffd5b83356129ae816127bd565b925060208401356001600160401b038111156129c8575f5ffd5b8401601f810186136129d8575f5ffd5b80356001600160401b038111156129ed575f5ffd5b8660208260051b8401011115612a01575f5ffd5b939660209190910195509293505050565b602081525f6122e86020830184612866565b602081525f6122e86020830184612823565b606081525f612a486060830186612823565b82810360208401528085518083526020830191506020870192505f5b81811015612a8b5783516001600160801b0316835260209384019390920191600101612a64565b50508381036040850152612a9f8186612896565b979650505050505050565b8051612ab5816127bd565b919050565b5f60208284031215612aca575f5ffd5b81516122e8816127bd565b634e487b7160e01b5f52603260045260245ffd5b634e487b7160e01b5f52601160045260245ffd5b5f60018201612b0e57612b0e612ae9565b5060010190565b634e487b7160e01b5f52604160045260245ffd5b805160ff81168114612ab5575f5ffd5b5f60208284031215612b49575f5ffd5b6122e882612b29565b5f60208284031215612b62575f5ffd5b5051919050565b805169ffffffffffffffffffff81168114612ab5575f5ffd5b5f5f5f5f5f60a08688031215612b96575f5ffd5b612b9f86612b69565b60208701516040880151606089015192975090955093509150612bc460808701612b69565b90509295509295909350565b80516001600160801b0381168114612ab5575f5ffd5b5f60208284031215612bf6575f5ffd5b6122e882612bd0565b60405161010081016001600160401b0381118282101715612c2257612c22612b15565b60405290565b604051601f8201601f191681016001600160401b0381118282101715612c5057612c50612b15565b604052919050565b80516001600160401b0381168114612ab5575f5ffd5b5f610100828403128015612c80575f5ffd5b50612c89612bff565b612c9283612b29565b81526020830151612ca2816127bd565b6020820152612cb360408401612aaa565b6040820152612cc460608401612c58565b6060820152612cd560808401612c58565b6080820152612ce660a08401612c58565b60a0820152612cf760c08401612c58565b60c0820152612d0860e08401612bd0565b60e08201529392505050565b5f5f60408385031215612d25575f5ffd5b612d2e83612bd0565b9150612d3c60208401612bd0565b90509250929050565b5f60208284031215612d55575f5ffd5b81516001600160401b03811115612d6a575f5ffd5b8201601f81018413612d7a575f5ffd5b80516001600160401b03811115612d9357612d93612b15565b612da6601f8201601f1916602001612c28565b818152856020838501011115612dba575f5ffd5b8160208401602083015e5f91810160200191909152949350505050565b5f60208284031215612de7575f5ffd5b6122e882612c58565b5f60208284031215612e00575f5ffd5b81516001600160401b03811115612e15575f5ffd5b8201601f81018413612e25575f5ffd5b80516001600160401b03811115612e3e57612e3e612b15565b8060051b612e4e60208201612c28565b91825260208184018101929081019087841115612e69575f5ffd5b6020850194505b83851015612a9f5784519250612e85836127bd565b82825260209485019490910190612e70565b8082018082111561056957610569612ae956fea26469706673582212205b83f518dcb1ae7ff3a81c7d92ed8726cfdb97d6fb38982390986a2d9b01eb7564736f6c634300081e0033",
  "devdoc": {
    "details": "Contains all read/view functions from v1, separate from write operations",
    "errors": {
      "OwnableInvalidOwner(address)": [
        {
          "details": "The owner is not a valid owner account. (eg. `address(0)`)"
        }
      ],
      "OwnableUnauthorizedAccount(address)": [
        {
          "details": "The caller account is not authorized to perform an operation."
        }
      ]
    },
    "kind": "dev",
    "methods": {
      "owner()": {
        "details": "Returns the address of the current owner."
      },
      "renounceOwnership()": {
        "details": "Leaves the contract without owner. It will not be possible to call `onlyOwner` functions. Can only be called by the current owner. NOTE: Renouncing ownership will leave the contract without an owner, thereby disabling any functionality that is only available to the owner."
      },
      "transferOwnership(address)": {
        "details": "Transfers ownership of the contract to a new account (`newOwner`). Can only be called by the current owner."
      }
    },
    "title": "CompoundGatewayView",
    "version": 1
  },
  "userdoc": {
    "kind": "user",
    "methods": {
      "allActiveBaseTokens()": {
        "notice": "Get all active base tokens (from allActiveComets)"
      },
      "allActiveComets()": {
        "notice": "Get all active Comets (union of local + write gateway registries)"
      },
      "allBaseTokens()": {
        "notice": "Get all base tokens for registered Comets"
      },
      "getComet(address)": {
        "notice": "Get Comet for base token, falling back to write gateway if not found locally"
      },
      "setWriteGateway(address)": {
        "notice": "Set the write gateway address for syncing Comet registry"
      },
      "syncAllCometsFromWriteGateway()": {
        "notice": "Sync all Comets from write gateway"
      },
      "syncCometFromWriteGateway(address)": {
        "notice": "Sync a Comet from the write gateway to this view gateway"
      }
    },
    "notice": "View-only gateway for Compound Comet protocol",
    "version": 1
  },
  "storageLayout": {
    "storage": [
      {
        "astId": 1478,
        "contract": "contracts/v2/gateways/compound/CompoundGatewayView.sol:CompoundGatewayView",
        "label": "_owner",
        "offset": 0,
        "slot": "0",
        "type": "t_address"
      },
      {
        "astId": 7721,
        "contract": "contracts/v2/gateways/compound/CompoundGatewayView.sol:CompoundGatewayView",
        "label": "tokenToComet",
        "offset": 0,
        "slot": "1",
        "type": "t_mapping(t_address,t_contract(ICompoundComet)12905)"
      },
      {
        "astId": 7726,
        "contract": "contracts/v2/gateways/compound/CompoundGatewayView.sol:CompoundGatewayView",
        "label": "overrideFeeds",
        "offset": 0,
        "slot": "2",
        "type": "t_mapping(t_address,t_contract(AggregatorV3Interface)1469)"
      },
      {
        "astId": 7729,
        "contract": "contracts/v2/gateways/compound/CompoundGatewayView.sol:CompoundGatewayView",
        "label": "_comets",
        "offset": 0,
        "slot": "3",
        "type": "t_array(t_address)dyn_storage"
      },
      {
        "astId": 7733,
        "contract": "contracts/v2/gateways/compound/CompoundGatewayView.sol:CompoundGatewayView",
        "label": "_isRegistered",
        "offset": 0,
        "slot": "4",
        "type": "t_mapping(t_address,t_bool)"
      },
      {
        "astId": 7735,
        "contract": "contracts/v2/gateways/compound/CompoundGatewayView.sol:CompoundGatewayView",
        "label": "writeGateway",
        "offset": 0,
        "slot": "5",
        "type": "t_address"
      }
    ],
    "types": {
      "t_address": {
        "encoding": "inplace",
        "label": "address",
        "numberOfBytes": "20"
      },
      "t_array(t_address)dyn_storage": {
        "base": "t_address",
        "encoding": "dynamic_array",
        "label": "address[]",
        "numberOfBytes": "32"
      },
      "t_bool": {
        "encoding": "inplace",
        "label": "bool",
        "numberOfBytes": "1"
      },
      "t_contract(AggregatorV3Interface)1469": {
        "encoding": "inplace",
        "label": "contract AggregatorV3Interface",
        "numberOfBytes": "20"
      },
      "t_contract(ICompoundComet)12905": {
        "encoding": "inplace",
        "label": "contract ICompoundComet",
        "numberOfBytes": "20"
      },
      "t_mapping(t_address,t_bool)": {
        "encoding": "mapping",
        "key": "t_address",
        "label": "mapping(address => bool)",
        "numberOfBytes": "32",
        "value": "t_bool"
      },
      "t_mapping(t_address,t_contract(AggregatorV3Interface)1469)": {
        "encoding": "mapping",
        "key": "t_address",
        "label": "mapping(address => contract AggregatorV3Interface)",
        "numberOfBytes": "32",
        "value": "t_contract(AggregatorV3Interface)1469"
      },
      "t_mapping(t_address,t_contract(ICompoundComet)12905)": {
        "encoding": "mapping",
        "key": "t_address",
        "label": "mapping(address => contract ICompoundComet)",
        "numberOfBytes": "32",
        "value": "t_contract(ICompoundComet)12905"
      }
    }
  }
}