{
  "address": "0x2C896Fe12069918752531F62dfCcAf47FF0B1F8d",
  "abi": [
    {
      "inputs": [
        {
          "internalType": "address",
          "name": "router",
          "type": "address"
        },
        {
          "internalType": "contract ICompoundComet[]",
          "name": "_comets",
          "type": "address[]"
        },
        {
          "internalType": "contract FeedRegistryInterface",
          "name": "_priceFeed",
          "type": "address"
        },
        {
          "internalType": "address",
          "name": "_owner",
          "type": "address"
        }
      ],
      "stateMutability": "nonpayable",
      "type": "constructor"
    },
    {
      "inputs": [
        {
          "internalType": "address",
          "name": "target",
          "type": "address"
        }
      ],
      "name": "AddressEmptyCode",
      "type": "error"
    },
    {
      "inputs": [
        {
          "internalType": "address",
          "name": "account",
          "type": "address"
        }
      ],
      "name": "AddressInsufficientBalance",
      "type": "error"
    },
    {
      "inputs": [],
      "name": "FailedInnerCall",
      "type": "error"
    },
    {
      "inputs": [
        {
          "internalType": "address",
          "name": "owner",
          "type": "address"
        }
      ],
      "name": "OwnableInvalidOwner",
      "type": "error"
    },
    {
      "inputs": [
        {
          "internalType": "address",
          "name": "account",
          "type": "address"
        }
      ],
      "name": "OwnableUnauthorizedAccount",
      "type": "error"
    },
    {
      "inputs": [],
      "name": "ReentrancyGuardReentrantCall",
      "type": "error"
    },
    {
      "inputs": [
        {
          "internalType": "address",
          "name": "token",
          "type": "address"
        }
      ],
      "name": "SafeERC20FailedOperation",
      "type": "error"
    },
    {
      "anonymous": false,
      "inputs": [
        {
          "indexed": true,
          "internalType": "address",
          "name": "market",
          "type": "address"
        },
        {
          "indexed": true,
          "internalType": "address",
          "name": "collateral",
          "type": "address"
        },
        {
          "indexed": true,
          "internalType": "address",
          "name": "user",
          "type": "address"
        },
        {
          "indexed": false,
          "internalType": "uint256",
          "name": "amount",
          "type": "uint256"
        }
      ],
      "name": "CollateralWithdrawn",
      "type": "event"
    },
    {
      "anonymous": false,
      "inputs": [
        {
          "indexed": true,
          "internalType": "address",
          "name": "previousOwner",
          "type": "address"
        },
        {
          "indexed": true,
          "internalType": "address",
          "name": "newOwner",
          "type": "address"
        }
      ],
      "name": "OwnershipTransferred",
      "type": "event"
    },
    {
      "inputs": [],
      "name": "ROUTER",
      "outputs": [
        {
          "internalType": "address",
          "name": "",
          "type": "address"
        }
      ],
      "stateMutability": "view",
      "type": "function"
    },
    {
      "inputs": [
        {
          "internalType": "address",
          "name": "token",
          "type": "address"
        },
        {
          "internalType": "address",
          "name": "user",
          "type": "address"
        },
        {
          "internalType": "uint256",
          "name": "amount",
          "type": "uint256"
        }
      ],
      "name": "borrow",
      "outputs": [],
      "stateMutability": "nonpayable",
      "type": "function"
    },
    {
      "inputs": [
        {
          "internalType": "address",
          "name": "token",
          "type": "address"
        },
        {
          "internalType": "address",
          "name": "user",
          "type": "address"
        },
        {
          "internalType": "uint256",
          "name": "amount",
          "type": "uint256"
        }
      ],
      "name": "deposit",
      "outputs": [],
      "stateMutability": "nonpayable",
      "type": "function"
    },
    {
      "inputs": [
        {
          "internalType": "address",
          "name": "market",
          "type": "address"
        },
        {
          "internalType": "address",
          "name": "collateral",
          "type": "address"
        },
        {
          "internalType": "uint256",
          "name": "amount",
          "type": "uint256"
        },
        {
          "internalType": "address",
          "name": "receiver",
          "type": "address"
        }
      ],
      "name": "depositCollateral",
      "outputs": [],
      "stateMutability": "nonpayable",
      "type": "function"
    },
    {
      "inputs": [
        {
          "internalType": "address",
          "name": "token",
          "type": "address"
        },
        {
          "internalType": "address",
          "name": "user",
          "type": "address"
        }
      ],
      "name": "getBalance",
      "outputs": [
        {
          "internalType": "uint256",
          "name": "",
          "type": "uint256"
        }
      ],
      "stateMutability": "view",
      "type": "function"
    },
    {
      "inputs": [
        {
          "internalType": "contract ICompoundComet",
          "name": "comet",
          "type": "address"
        }
      ],
      "name": "getBaseToken",
      "outputs": [
        {
          "internalType": "address",
          "name": "",
          "type": "address"
        }
      ],
      "stateMutability": "view",
      "type": "function"
    },
    {
      "inputs": [
        {
          "internalType": "address",
          "name": "token",
          "type": "address"
        },
        {
          "internalType": "address",
          "name": "user",
          "type": "address"
        }
      ],
      "name": "getBorrowBalance",
      "outputs": [
        {
          "internalType": "uint256",
          "name": "",
          "type": "uint256"
        }
      ],
      "stateMutability": "view",
      "type": "function"
    },
    {
      "inputs": [
        {
          "internalType": "address",
          "name": "token",
          "type": "address"
        }
      ],
      "name": "getBorrowRate",
      "outputs": [
        {
          "internalType": "uint256",
          "name": "borrowRate",
          "type": "uint256"
        },
        {
          "internalType": "bool",
          "name": "success",
          "type": "bool"
        }
      ],
      "stateMutability": "view",
      "type": "function"
    },
    {
      "inputs": [
        {
          "internalType": "address",
          "name": "token",
          "type": "address"
        },
        {
          "internalType": "address",
          "name": "account",
          "type": "address"
        }
      ],
      "name": "getCompoundData",
      "outputs": [
        {
          "internalType": "uint256",
          "name": "supplyRate",
          "type": "uint256"
        },
        {
          "internalType": "uint256",
          "name": "borrowRate",
          "type": "uint256"
        },
        {
          "internalType": "uint256",
          "name": "balance",
          "type": "uint256"
        },
        {
          "internalType": "uint256",
          "name": "borrowBalance",
          "type": "uint256"
        },
        {
          "internalType": "uint256",
          "name": "price",
          "type": "uint256"
        },
        {
          "internalType": "uint256",
          "name": "priceScale",
          "type": "uint256"
        }
      ],
      "stateMutability": "view",
      "type": "function"
    },
    {
      "inputs": [
        {
          "internalType": "address",
          "name": "token",
          "type": "address"
        },
        {
          "internalType": "address",
          "name": "account",
          "type": "address"
        }
      ],
      "name": "getDepositedCollaterals",
      "outputs": [
        {
          "internalType": "address[]",
          "name": "collaterals",
          "type": "address[]"
        },
        {
          "internalType": "uint128[]",
          "name": "balances",
          "type": "uint128[]"
        },
        {
          "internalType": "string[]",
          "name": "displayNames",
          "type": "string[]"
        }
      ],
      "stateMutability": "view",
      "type": "function"
    },
    {
      "inputs": [
        {
          "internalType": "address",
          "name": "token",
          "type": "address"
        },
        {
          "components": [
            {
              "internalType": "address",
              "name": "token",
              "type": "address"
            },
            {
              "internalType": "uint256",
              "name": "amount",
              "type": "uint256"
            }
          ],
          "internalType": "struct IGateway.Collateral[]",
          "name": "",
          "type": "tuple[]"
        }
      ],
      "name": "getEncodedCollateralApprovals",
      "outputs": [
        {
          "internalType": "address[]",
          "name": "target",
          "type": "address[]"
        },
        {
          "internalType": "bytes[]",
          "name": "data",
          "type": "bytes[]"
        }
      ],
      "stateMutability": "view",
      "type": "function"
    },
    {
      "inputs": [
        {
          "internalType": "address",
          "name": "token",
          "type": "address"
        },
        {
          "internalType": "uint256",
          "name": "",
          "type": "uint256"
        }
      ],
      "name": "getEncodedDebtApproval",
      "outputs": [
        {
          "internalType": "address[]",
          "name": "target",
          "type": "address[]"
        },
        {
          "internalType": "bytes[]",
          "name": "data",
          "type": "bytes[]"
        }
      ],
      "stateMutability": "view",
      "type": "function"
    },
    {
      "inputs": [
        {
          "internalType": "address",
          "name": "token",
          "type": "address"
        },
        {
          "internalType": "address",
          "name": "user",
          "type": "address"
        }
      ],
      "name": "getLtv",
      "outputs": [
        {
          "internalType": "uint256",
          "name": "",
          "type": "uint256"
        }
      ],
      "stateMutability": "view",
      "type": "function"
    },
    {
      "inputs": [
        {
          "internalType": "address",
          "name": "token",
          "type": "address"
        }
      ],
      "name": "getMaxLtv",
      "outputs": [
        {
          "internalType": "uint256",
          "name": "",
          "type": "uint256"
        }
      ],
      "stateMutability": "view",
      "type": "function"
    },
    {
      "inputs": [
        {
          "internalType": "address",
          "name": "token",
          "type": "address"
        },
        {
          "internalType": "address",
          "name": "user",
          "type": "address"
        }
      ],
      "name": "getPossibleCollaterals",
      "outputs": [
        {
          "internalType": "address[]",
          "name": "collateralAddresses",
          "type": "address[]"
        },
        {
          "internalType": "uint256[]",
          "name": "balances",
          "type": "uint256[]"
        },
        {
          "internalType": "string[]",
          "name": "symbols",
          "type": "string[]"
        },
        {
          "internalType": "uint8[]",
          "name": "decimals",
          "type": "uint8[]"
        }
      ],
      "stateMutability": "view",
      "type": "function"
    },
    {
      "inputs": [
        {
          "internalType": "address",
          "name": "token",
          "type": "address"
        }
      ],
      "name": "getPrice",
      "outputs": [
        {
          "internalType": "uint256",
          "name": "",
          "type": "uint256"
        }
      ],
      "stateMutability": "view",
      "type": "function"
    },
    {
      "inputs": [
        {
          "internalType": "address",
          "name": "token",
          "type": "address"
        }
      ],
      "name": "getSupplyRate",
      "outputs": [
        {
          "internalType": "uint256",
          "name": "supplyRate",
          "type": "uint256"
        },
        {
          "internalType": "bool",
          "name": "success",
          "type": "bool"
        }
      ],
      "stateMutability": "view",
      "type": "function"
    },
    {
      "inputs": [
        {
          "internalType": "address",
          "name": "market",
          "type": "address"
        }
      ],
      "name": "getSupportedCollaterals",
      "outputs": [
        {
          "internalType": "address[]",
          "name": "collateralAddresses",
          "type": "address[]"
        }
      ],
      "stateMutability": "view",
      "type": "function"
    },
    {
      "inputs": [
        {
          "internalType": "address",
          "name": "market",
          "type": "address"
        },
        {
          "internalType": "address",
          "name": "collateral",
          "type": "address"
        }
      ],
      "name": "isCollateralSupported",
      "outputs": [
        {
          "internalType": "bool",
          "name": "isSupported",
          "type": "bool"
        }
      ],
      "stateMutability": "view",
      "type": "function"
    },
    {
      "inputs": [
        {
          "internalType": "address",
          "name": "token",
          "type": "address"
        },
        {
          "internalType": "contract AggregatorV3Interface",
          "name": "feed",
          "type": "address"
        }
      ],
      "name": "overrideFeed",
      "outputs": [],
      "stateMutability": "nonpayable",
      "type": "function"
    },
    {
      "inputs": [
        {
          "internalType": "address",
          "name": "",
          "type": "address"
        }
      ],
      "name": "overrideFeeds",
      "outputs": [
        {
          "internalType": "contract AggregatorV3Interface",
          "name": "",
          "type": "address"
        }
      ],
      "stateMutability": "view",
      "type": "function"
    },
    {
      "inputs": [],
      "name": "owner",
      "outputs": [
        {
          "internalType": "address",
          "name": "",
          "type": "address"
        }
      ],
      "stateMutability": "view",
      "type": "function"
    },
    {
      "inputs": [],
      "name": "priceFeed",
      "outputs": [
        {
          "internalType": "contract FeedRegistryInterface",
          "name": "",
          "type": "address"
        }
      ],
      "stateMutability": "view",
      "type": "function"
    },
    {
      "inputs": [],
      "name": "renounceOwnership",
      "outputs": [],
      "stateMutability": "nonpayable",
      "type": "function"
    },
    {
      "inputs": [
        {
          "internalType": "address",
          "name": "token",
          "type": "address"
        },
        {
          "internalType": "address",
          "name": "user",
          "type": "address"
        },
        {
          "internalType": "uint256",
          "name": "amount",
          "type": "uint256"
        }
      ],
      "name": "repay",
      "outputs": [],
      "stateMutability": "nonpayable",
      "type": "function"
    },
    {
      "inputs": [
        {
          "internalType": "address",
          "name": "",
          "type": "address"
        }
      ],
      "name": "tokenToComet",
      "outputs": [
        {
          "internalType": "contract ICompoundComet",
          "name": "",
          "type": "address"
        }
      ],
      "stateMutability": "view",
      "type": "function"
    },
    {
      "inputs": [
        {
          "internalType": "address",
          "name": "newOwner",
          "type": "address"
        }
      ],
      "name": "transferOwnership",
      "outputs": [],
      "stateMutability": "nonpayable",
      "type": "function"
    },
    {
      "inputs": [
        {
          "internalType": "address",
          "name": "market",
          "type": "address"
        },
        {
          "internalType": "address",
          "name": "collateral",
          "type": "address"
        },
        {
          "internalType": "address",
          "name": "user",
          "type": "address"
        },
        {
          "internalType": "uint256",
          "name": "amount",
          "type": "uint256"
        }
      ],
      "name": "withdrawCollateral",
      "outputs": [
        {
          "internalType": "address",
          "name": "",
          "type": "address"
        }
      ],
      "stateMutability": "nonpayable",
      "type": "function"
    }
  ],
  "transactionHash": "0x17e2197ebe240cbaec387c10ce1ecd881472c00f7843160bb1af36dab356ce9d",
  "args": [
    "0x379b1e0a42Dd2533f09f3B44c8D40E83204EF81A",
    [
      "0x9c4ec768c28520B50860ea7a15bd7213a9fF58bf",
      "0xd98Be00b5D27fc98112BdE293e487f8D4cA57d07",
      "0xA5EDBDD9646f8dFF606d7448e414884C7d905dCA",
      "0x6f7D514bbD4aFf3BcD1140B7344b32f063dEe486"
    ],
    "0x0000000000000000000000000000000000000000",
    "0x58d21499B5A3374a486B3F412Cca43b76692eF15"
  ],
  "numDeployments": 1,
  "solcInputHash": "0028cfb2ff64506f06d460f9d2264888",
  "bytecode": "0x60a06040523480156200001157600080fd5b5060405162002e8a38038062002e8a8339810160408190526200003491620002bd565b80846001600160a01b038116620000925760405162461bcd60e51b815260206004820152601d60248201527f526f7574657220616464726573732063616e6e6f74206265207a65726f00000060448201526064015b60405180910390fd5b6001600160a01b039081166080528116620000c457604051631e4fbdf760e01b81526000600482015260240162000089565b620000cf816200022c565b506001805560005b8351811015620002015760006001600160a01b0316848281518110620001015762000101620003cd565b60200260200101516001600160a01b031614620001ec578381815181106200012d576200012d620003cd565b6020026020010151600260008684815181106200014e576200014e620003cd565b60200260200101516001600160a01b031663c55dae636040518163ffffffff1660e01b8152600401602060405180830381865afa15801562000194573d6000803e3d6000fd5b505050506040513d601f19601f82011682018060405250810190620001ba9190620003e3565b6001600160a01b039081168252602082019290925260400160002080546001600160a01b031916929091169190911790555b80620001f8816200040a565b915050620000d7565b5050600380546001600160a01b0319166001600160a01b039290921691909117905550620004329050565b600080546001600160a01b038381166001600160a01b0319831681178455604051919092169283917f8be0079c531659141344cd1fd0a4f28419497f9722a3daafe3b4186f6b6457e09190a35050565b6001600160a01b03811681146200029257600080fd5b50565b8051620002a2816200027c565b919050565b634e487b7160e01b600052604160045260246000fd5b60008060008060808587031215620002d457600080fd5b8451620002e1816200027c565b602086810151919550906001600160401b03808211156200030157600080fd5b818801915088601f8301126200031657600080fd5b8151818111156200032b576200032b620002a7565b8060051b604051601f19603f83011681018181108582111715620003535762000353620002a7565b60405291825284820192508381018501918b8311156200037257600080fd5b938501935b828510156200039b576200038b8562000295565b8452938501939285019262000377565b809850505050505050620003b26040860162000295565b9150620003c26060860162000295565b905092959194509250565b634e487b7160e01b600052603260045260246000fd5b600060208284031215620003f657600080fd5b815162000403816200027c565b9392505050565b6000600182016200042b57634e487b7160e01b600052601160045260246000fd5b5060010190565b608051612a2e6200045c6000396000818161029301528181610d230152610db90152612a2e6000f3fe608060405234801561001057600080fd5b50600436106101c45760003560e01c80636b5441a9116100f9578063d4fac45d11610097578063e9db3c9f11610071578063e9db3c9f1461043b578063f2f1be1e1461047b578063f2fde38b146104a4578063f5125d3f146104b757600080fd5b8063d4fac45d14610402578063d5c561d614610415578063d71275f61461042857600080fd5b806378466113116100d3578063784661131461039a5780638340f549146103bd5780638da5cb5b146103d0578063a342986c146103e157600080fd5b80636b5441a914610357578063715018a61461037f578063741bef1a1461038757600080fd5b80634108d0af116101665780635820ba63116101405780635820ba63146102ee578063647e0c201461030157806366e2d09b1461031557806369e65e491461033557600080fd5b80634108d0af146102b557806341976e09146102c85780635224372c146102db57600080fd5b80631da649cf116101a25780631da649cf1461023d57806324bddcfd1461025257806326e46ed31461026557806332fe7b261461028e57600080fd5b80630c10fd0f146101c9578063104e999d146101f9578063118e31b71461021c575b600080fd5b6101dc6101d73660046121c5565b6104cd565b6040516001600160a01b0390911681526020015b60405180910390f35b61020c6102073660046121e2565b610537565b6040516101f09493929190612307565b61022f61022a3660046121e2565b61088f565b6040519081526020016101f0565b61025061024b3660046123ad565b610914565b005b6102506102603660046121e2565b610a30565b6101dc6102733660046121c5565b6002602052600090815260409020546001600160a01b031681565b6101dc7f000000000000000000000000000000000000000000000000000000000000000081565b6102506102c33660046123ee565b610a66565b61022f6102d63660046121c5565b610ae8565b6102506102e93660046123ad565b610d17565b6101dc6102fc366004612441565b610dab565b61022f61030f3660046121c5565b50600090565b6103286103233660046121c5565b610f81565b6040516101f09190612492565b6103486103433660046121e2565b611136565b6040516101f0939291906124a5565b61036a6103653660046121c5565b6114d1565b604080519283529015156020830152016101f0565b6102506115ec565b6003546101dc906001600160a01b031681565b6103ad6103a83660046121e2565b611600565b60405190151581526020016101f0565b6102506103cb3660046123ad565b61175d565b6000546001600160a01b03166101dc565b6103f46103ef366004612518565b6117d5565b6040516101f092919061259f565b61022f6104103660046121e2565b6118d7565b6103f4610423366004612602565b611918565b61036a6104363660046121c5565b611a19565b61044e6104493660046121e2565b611a9b565b604080519687526020870195909552938501929092526060840152608083015260a082015260c0016101f0565b6101dc6104893660046121c5565b6004602052600090815260409020546001600160a01b031681565b6102506104b23660046121c5565b611dd0565b61022f6104c53660046121e2565b600092915050565b6000816001600160a01b031663c55dae636040518163ffffffff1660e01b8152600401602060405180830381865afa15801561050d573d6000803e3d6000fd5b505050506040513d601f19601f82011682018060405250810190610531919061263e565b92915050565b606080606080600080600061054c8989611136565b9250925092506000805b83518110156105aa5760008482815181106105735761057361265b565b60200260200101516001600160801b03161115610598578161059481612687565b9250505b806105a281612687565b915050610556565b50806001600160401b038111156105c3576105c36126a0565b6040519080825280602002602001820160405280156105ec578160200160208202803683370190505b509750806001600160401b03811115610607576106076126a0565b604051908082528060200260200182016040528015610630578160200160208202803683370190505b509650806001600160401b0381111561064b5761064b6126a0565b60405190808252806020026020018201604052801561067e57816020015b60608152602001906001900390816106695790505b509550806001600160401b03811115610699576106996126a0565b6040519080825280602002602001820160405280156106c2578160200160208202803683370190505b5094506000805b84518110156108805760008582815181106106e6576106e661265b565b60200260200101516001600160801b0316111561086e5785818151811061070f5761070f61265b565b60200260200101518a83815181106107295761072961265b565b60200260200101906001600160a01b031690816001600160a01b03168152505084818151811061075b5761075b61265b565b60200260200101516001600160801b031689838151811061077e5761077e61265b565b60200260200101818152505083818151811061079c5761079c61265b565b60200260200101518883815181106107b6576107b661265b565b60200260200101819052508581815181106107d3576107d361265b565b60200260200101516001600160a01b031663313ce5676040518163ffffffff1660e01b8152600401602060405180830381865afa158015610818573d6000803e3d6000fd5b505050506040513d601f19601f8201168201806040525081019061083c91906126c7565b87838151811061084e5761084e61265b565b60ff909216602092830291909101909101528161086a81612687565b9250505b8061087881612687565b9150506106c9565b50505050505092959194509250565b6001600160a01b03828116600090815260026020526040808220549051630dd3126d60e21b815284841660048201529192169063374c49b4906024015b602060405180830381865afa1580156108e9573d6000803e3d6000fd5b505050506040513d601f19601f8201168201806040525081019061090d91906126e2565b9392505050565b61091c611e0e565b6109316001600160a01b038416333084611e38565b6001600160a01b038381166000818152600260205260409081902054905163095ea7b360e01b8152921660048301819052602483018490529163095ea7b3906044016020604051808303816000875af1158015610992573d6000803e3d6000fd5b505050506040513d601f19601f820116820180604052508101906109b691906126fb565b50604051634232cd6360e01b81526001600160a01b038481166004830152858116602483015260448201849052821690634232cd6390606401600060405180830381600087803b158015610a0957600080fd5b505af1158015610a1d573d6000803e3d6000fd5b5050505050610a2b60018055565b505050565b610a38611e9f565b6001600160a01b03918216600090815260046020526040902080546001600160a01b03191691909216179055565b6001600160a01b03808516600090815260026020526040902054859116610aa85760405162461bcd60e51b8152600401610a9f9061271d565b60405180910390fd5b610ab0611e0e565b6001600160a01b0380861660009081526002602052604090205416610ad781868587611ecc565b50610ae160018055565b5050505050565b6001600160a01b0381811660009081526004602052604081205490911615610b91576001600160a01b038083166000908152600460208190526040808320548151633fabe5a360e21b815291519394169263feaf968c928281019260a09291908290030181865afa158015610b61573d6000803e3d6000fd5b505050506040513d601f19601f82011682018060405250810190610b859190612761565b50919695505050505050565b6003546001600160a01b031615610bf55760035460405163bcfd032d60e01b81526001600160a01b0384811660048301526103486024830152600092169063bcfd032d9060440160a060405180830381865afa158015610b61573d6000803e3d6000fd5b6001600160a01b03808316600090815260026020908152604080832054815163e7dad6bd60e01b815291519394169263e7dad6bd926004808401939192918290030181865afa158015610c4c573d6000803e3d6000fd5b505050506040513d601f19601f82011682018060405250810190610c70919061263e565b90506001600160a01b03811615610d0e576001600160a01b03838116600090815260026020526040908190205490516341976e0960e01b815283831660048201529116906341976e0990602401602060405180830381865afa158015610cda573d6000803e3d6000fd5b505050506040513d601f19601f82011682018060405250810190610cfe91906127c8565b6001600160801b03169392505050565b50600092915050565b81336001600160a01b037f0000000000000000000000000000000000000000000000000000000000000000161480610d575750336001600160a01b038216145b610da35760405162461bcd60e51b815260206004820152601c60248201527f4f6e6c7920726f75746572206f722073656c662063616e2063616c6c000000006044820152606401610a9f565b610ae1848585855b600082336001600160a01b037f0000000000000000000000000000000000000000000000000000000000000000161480610ded5750336001600160a01b038216145b610e395760405162461bcd60e51b815260206004820152601c60248201527f4f6e6c7920726f75746572206f722073656c662063616e2063616c6c000000006044820152606401610a9f565b6001600160a01b03808716600090815260026020526040902054879116610e725760405162461bcd60e51b8152600401610a9f9061271d565b610e7a611e0e565b6001600160a01b03878116600090815260026020526040908190205490516304c8826360e31b815287831660048201523060248201528883166044820152606481018790529116908190632644131890608401600060405180830381600087803b158015610ee757600080fd5b505af1158015610efb573d6000803e3d6000fd5b50505050856001600160a01b0316876001600160a01b0316896001600160a01b03167f066ba4a8f1b0176abba8cd70012fabcaa801a97916823e068d94ec15deb9037a88604051610f4e91815260200190565b60405180910390a4610f6a6001600160a01b0388163387611fc5565b86935050610f7760018055565b5050949350505050565b6001600160a01b038082166000908152600260205260409020546060911680610fba575050604080516000815260208101909152919050565b6000816001600160a01b031663a46fe83b6040518163ffffffff1660e01b8152600401602060405180830381865afa158015610ffa573d6000803e3d6000fd5b505050506040513d601f19601f8201168201806040525081019061101e91906126c7565b90508060ff166001600160401b0381111561103b5761103b6126a0565b604051908082528060200260200182016040528015611064578160200160208202803683370190505b50925060005b8160ff168160ff16101561112e5760405163c8c7fe6b60e01b815260ff821660048201526000906001600160a01b0385169063c8c7fe6b9060240161010060405180830381865afa1580156110c3573d6000803e3d6000fd5b505050506040513d601f19601f820116820180604052508101906110e791906127fa565b90508060200151858360ff16815181106111035761110361265b565b6001600160a01b03909216602092830291909101909101525080611126816128c3565b91505061106a565b505050919050565b6001600160a01b038083166000908152600260205260409020546060918291829116806111755760405162461bcd60e51b8152600401610a9f9061271d565b6000816001600160a01b031663a46fe83b6040518163ffffffff1660e01b8152600401602060405180830381865afa1580156111b5573d6000803e3d6000fd5b505050506040513d601f19601f820116820180604052508101906111d991906126c7565b90508060ff166001600160401b038111156111f6576111f66126a0565b60405190808252806020026020018201604052801561121f578160200160208202803683370190505b5094508060ff166001600160401b0381111561123d5761123d6126a0565b60405190808252806020026020018201604052801561127057816020015b606081526020019060019003908161125b5790505b5092508060ff166001600160401b0381111561128e5761128e6126a0565b6040519080825280602002602001820160405280156112b7578160200160208202803683370190505b5093506000805b8260ff168160ff1610156114c65760405163c8c7fe6b60e01b815260ff821660048201526000906001600160a01b0386169063c8c7fe6b9060240161010060405180830381865afa158015611317573d6000803e3d6000fd5b505050506040513d601f19601f8201168201806040525081019061133b91906127fa565b6020810151604051632b92a07d60e01b81526001600160a01b038c81166004830152918216602482015291925060009190871690632b92a07d906044016040805180830381865afa158015611394573d6000803e3d6000fd5b505050506040513d601f19601f820116820180604052508101906113b891906128e2565b50905081602001518985815181106113d2576113d261265b565b60200260200101906001600160a01b031690816001600160a01b03168152505081602001516001600160a01b03166395d89b416040518163ffffffff1660e01b8152600401600060405180830381865afa158015611434573d6000803e3d6000fd5b505050506040513d6000823e601f3d908101601f1916820160405261145c9190810190612915565b87858151811061146e5761146e61265b565b60200260200101819052508088858151811061148c5761148c61265b565b6001600160801b0390921660209283029190910190910152836114ae81612687565b945050505080806114be906128c3565b9150506112be565b505050509250925092565b6001600160a01b0380821660009081526002602052604081205490918291849116156115e6576001600160a01b03808516600090815260026020908152604091829020548251637eb7113160e01b8152925193169263d955759d928492637eb71131926004808401938290030181865afa158015611553573d6000803e3d6000fd5b505050506040513d601f19601f8201168201806040525081019061157791906126e2565b6040518263ffffffff1660e01b815260040161159591815260200190565b602060405180830381865afa1580156115b2573d6000803e3d6000fd5b505050506040513d601f19601f820116820180604052508101906115d691906129c1565b6001600160401b03169250600191505b50915091565b6115f4611e9f565b6115fe6000611ff6565b565b6001600160a01b038083166000908152600260205260408120549091168061162c576000915050610531565b6000816001600160a01b031663a46fe83b6040518163ffffffff1660e01b8152600401602060405180830381865afa15801561166c573d6000803e3d6000fd5b505050506040513d601f19601f8201168201806040525081019061169091906126c7565b905060005b8160ff168160ff1610156117515760405163c8c7fe6b60e01b815260ff821660048201526000906001600160a01b0385169063c8c7fe6b9060240161010060405180830381865afa1580156116ee573d6000803e3d6000fd5b505050506040513d601f19601f8201168201806040525081019061171291906127fa565b9050856001600160a01b031681602001516001600160a01b03160361173e576001945050505050610531565b5080611749816128c3565b915050611695565b50600095945050505050565b6001600160a01b038084166000908152600260205260409020548491166117965760405162461bcd60e51b8152600401610a9f9061271d565b61179e611e0e565b6001600160a01b03808516600090815260026020526040902054166117c581868686611ecc565b506117cf60018055565b50505050565b6001600160a01b03838116600090815260026020526040908190205481516001808252818401909352606093849392169181602001602082028036833701905050604080516001808252818301909252919450816020015b606081526020019060019003908161182d57905050915080836000815181106118585761185861265b565b6001600160a01b039290921660209283029190910182015260408051306024820152600160448083019190915282518083039091018152606490910190915290810180516001600160e01b031663110496e560e01b179052825183906000906118c3576118c361265b565b602002602001018190525050935093915050565b6001600160a01b038281166000908152600260205260408082205490516370a0823160e01b81528484166004820152919216906370a08231906024016108cc565b6001600160a01b03828116600090815260026020526040908190205481516001808252818401909352606093849392169181602001602082028036833701905050604080516001808252818301909252919450816020015b6060815260200190600190039081611970579050509150808360008151811061199b5761199b61265b565b6001600160a01b039290921660209283029190910182015260408051306024820152600160448083019190915282518083039091018152606490910190915290810180516001600160e01b031663110496e560e01b17905282518390600090611a0657611a0661265b565b6020026020010181905250509250929050565b6001600160a01b0380821660009081526002602052604081205490918291849116156115e6576001600160a01b03808516600090815260026020908152604091829020548251637eb7113160e01b81529251931692639fa83b5a928492637eb71131926004808401938290030181865afa158015611553573d6000803e3d6000fd5b6001600160a01b038083166000908152600260209081526040808320548151637eb7113160e01b815291519394859485948594859485941692839263d955759d928492637eb71131926004808401939192918290030181865afa158015611b06573d6000803e3d6000fd5b505050506040513d601f19601f82011682018060405250810190611b2a91906126e2565b6040518263ffffffff1660e01b8152600401611b4891815260200190565b602060405180830381865afa158015611b65573d6000803e3d6000fd5b505050506040513d601f19601f82011682018060405250810190611b8991906129c1565b6001600160401b03169650806001600160a01b0316639fa83b5a826001600160a01b0316637eb711316040518163ffffffff1660e01b8152600401602060405180830381865afa158015611be1573d6000803e3d6000fd5b505050506040513d601f19601f82011682018060405250810190611c0591906126e2565b6040518263ffffffff1660e01b8152600401611c2391815260200190565b602060405180830381865afa158015611c40573d6000803e3d6000fd5b505050506040513d601f19601f82011682018060405250810190611c6491906129c1565b6040516370a0823160e01b81526001600160a01b038a811660048301526001600160401b03929092169750908216906370a0823190602401602060405180830381865afa158015611cb9573d6000803e3d6000fd5b505050506040513d601f19601f82011682018060405250810190611cdd91906126e2565b604051630dd3126d60e21b81526001600160a01b038a811660048301529196509082169063374c49b490602401602060405180830381865afa158015611d27573d6000803e3d6000fd5b505050506040513d601f19601f82011682018060405250810190611d4b91906126e2565b9350611d5689610ae8565b9250806001600160a01b031663a0fbddaf6040518163ffffffff1660e01b8152600401602060405180830381865afa158015611d96573d6000803e3d6000fd5b505050506040513d601f19601f82011682018060405250810190611dba91906129c1565b6001600160401b03169150509295509295509295565b611dd8611e9f565b6001600160a01b038116611e0257604051631e4fbdf760e01b815260006004820152602401610a9f565b611e0b81611ff6565b50565b600260015403611e3157604051633ee5aeb560e01b815260040160405180910390fd5b6002600155565b6040516001600160a01b0384811660248301528381166044830152606482018390526117cf9186918216906323b872dd906084015b604051602081830303815290604052915060e01b6020820180516001600160e01b038381831617835250505050612046565b6000546001600160a01b031633146115fe5760405163118cdaa760e01b8152336004820152602401610a9f565b611ee16001600160a01b038416333084611e38565b60405163095ea7b360e01b81526001600160a01b0385811660048301526024820183905284169063095ea7b3906044016020604051808303816000875af1158015611f30573d6000803e3d6000fd5b505050506040513d601f19601f82011682018060405250810190611f5491906126fb565b50604051634232cd6360e01b81526001600160a01b038381166004830152848116602483015260448201839052851690634232cd6390606401600060405180830381600087803b158015611fa757600080fd5b505af1158015611fbb573d6000803e3d6000fd5b5050505050505050565b6040516001600160a01b03838116602483015260448201839052610a2b91859182169063a9059cbb90606401611e6d565b600080546001600160a01b038381166001600160a01b0319831681178455604051919092169283917f8be0079c531659141344cd1fd0a4f28419497f9722a3daafe3b4186f6b6457e09190a35050565b600061205b6001600160a01b038416836120a9565b9050805160001415801561208057508080602001905181019061207e91906126fb565b155b15610a2b57604051635274afe760e01b81526001600160a01b0384166004820152602401610a9f565b606061090d8383600084600080856001600160a01b031684866040516120cf91906129dc565b60006040518083038185875af1925050503d806000811461210c576040519150601f19603f3d011682016040523d82523d6000602084013e612111565b606091505b509150915061212186838361212b565b9695505050505050565b6060826121405761213b82612187565b61090d565b815115801561215757506001600160a01b0384163b155b1561218057604051639996b31560e01b81526001600160a01b0385166004820152602401610a9f565b508061090d565b8051156121975780518082602001fd5b604051630a12f52160e11b815260040160405180910390fd5b6001600160a01b0381168114611e0b57600080fd5b6000602082840312156121d757600080fd5b813561090d816121b0565b600080604083850312156121f557600080fd5b8235612200816121b0565b91506020830135612210816121b0565b809150509250929050565b600081518084526020808501945080840160005b838110156122545781516001600160a01b03168752958201959082019060010161222f565b509495945050505050565b60005b8381101561227a578181015183820152602001612262565b50506000910152565b6000815180845261229b81602086016020860161225f565b601f01601f19169290920160200192915050565b600082825180855260208086019550808260051b84010181860160005b848110156122fa57601f198684030189526122e8838351612283565b988401989250908301906001016122cc565b5090979650505050505050565b60808152600061231a608083018761221b565b82810360208481019190915286518083528782019282019060005b8181101561235157845183529383019391830191600101612335565b5050848103604086015261236581886122af565b858103606087015286518082528388019450908301915060005b8181101561239e57845160ff168352938301939183019160010161237f565b50909998505050505050505050565b6000806000606084860312156123c257600080fd5b83356123cd816121b0565b925060208401356123dd816121b0565b929592945050506040919091013590565b6000806000806080858703121561240457600080fd5b843561240f816121b0565b9350602085013561241f816121b0565b9250604085013591506060850135612436816121b0565b939692955090935050565b6000806000806080858703121561245757600080fd5b8435612462816121b0565b93506020850135612472816121b0565b92506040850135612482816121b0565b9396929550929360600135925050565b60208152600061090d602083018461221b565b6060815260006124b8606083018661221b565b82810360208481019190915285518083528682019282019060005b818110156124f85784516001600160801b0316835293830193918301916001016124d3565b5050848103604086015261250c81876122af565b98975050505050505050565b60008060006040848603121561252d57600080fd5b8335612538816121b0565b925060208401356001600160401b038082111561255457600080fd5b818601915086601f83011261256857600080fd5b81358181111561257757600080fd5b8760208260061b850101111561258c57600080fd5b6020830194508093505050509250925092565b6040815260006125b2604083018561221b565b6020838203818501528185518084528284019150828160051b85010183880160005b8381101561239e57601f198784030185526125f0838351612283565b948601949250908501906001016125d4565b6000806040838503121561261557600080fd5b8235612620816121b0565b946020939093013593505050565b8051612639816121b0565b919050565b60006020828403121561265057600080fd5b815161090d816121b0565b634e487b7160e01b600052603260045260246000fd5b634e487b7160e01b600052601160045260246000fd5b60006001820161269957612699612671565b5060010190565b634e487b7160e01b600052604160045260246000fd5b805160ff8116811461263957600080fd5b6000602082840312156126d957600080fd5b61090d826126b6565b6000602082840312156126f457600080fd5b5051919050565b60006020828403121561270d57600080fd5b8151801515811461090d57600080fd5b60208082526010908201526f10dbdb595d081a5cc81b9bdd081cd95d60821b604082015260600190565b805169ffffffffffffffffffff8116811461263957600080fd5b600080600080600060a0868803121561277957600080fd5b61278286612747565b94506020860151935060408601519250606086015191506127a560808701612747565b90509295509295909350565b80516001600160801b038116811461263957600080fd5b6000602082840312156127da57600080fd5b61090d826127b1565b80516001600160401b038116811461263957600080fd5b600061010080838503121561280e57600080fd5b604051908101906001600160401b0382118183101715612830576128306126a0565b8160405261283d846126b6565b81526020840151915061284f826121b0565b8160208201526128616040850161262e565b6040820152612872606085016127e3565b6060820152612883608085016127e3565b608082015261289460a085016127e3565b60a08201526128a560c085016127e3565b60c08201526128b660e085016127b1565b60e0820152949350505050565b600060ff821660ff81036128d9576128d9612671565b60010192915050565b600080604083850312156128f557600080fd5b6128fe836127b1565b915061290c602084016127b1565b90509250929050565b60006020828403121561292757600080fd5b81516001600160401b038082111561293e57600080fd5b818401915084601f83011261295257600080fd5b815181811115612964576129646126a0565b604051601f8201601f19908116603f0116810190838211818310171561298c5761298c6126a0565b816040528281528760208487010111156129a557600080fd5b6129b683602083016020880161225f565b979650505050505050565b6000602082840312156129d357600080fd5b61090d826127e3565b600082516129ee81846020870161225f565b919091019291505056fea2646970667358221220def35858646a70aa06c2ffafc89a3c8ec50fb2184cb6599c1d86eda17eddc3f964736f6c63430008140033",
  "devdoc": {
    "errors": {
      "AddressEmptyCode(address)": [
        {
          "details": "There's no code at `target` (it is not a contract)."
        }
      ],
      "AddressInsufficientBalance(address)": [
        {
          "details": "The ETH balance of the account is not enough to perform the operation."
        }
      ],
      "FailedInnerCall()": [
        {
          "details": "A call to an address target failed. The target may have reverted."
        }
      ],
      "OwnableInvalidOwner(address)": [
        {
          "details": "The owner is not a valid owner account. (eg. `address(0)`)"
        }
      ],
      "OwnableUnauthorizedAccount(address)": [
        {
          "details": "The caller account is not authorized to perform an operation."
        }
      ],
      "ReentrancyGuardReentrantCall()": [
        {
          "details": "Unauthorized reentrant call."
        }
      ],
      "SafeERC20FailedOperation(address)": [
        {
          "details": "An operation with an ERC20 token failed."
        }
      ]
    },
    "kind": "dev",
    "methods": {
      "borrow(address,address,uint256)": {
        "details": "Can be called by Router or directly by the user",
        "params": {
          "amount": "The amount to borrow",
          "token": "The token to borrow",
          "user": "The user to borrow for"
        }
      },
      "getSupportedCollaterals(address)": {
        "params": {
          "market": "The address of the market token"
        },
        "returns": {
          "collateralAddresses": "Array of supported collateral token addresses"
        }
      },
      "isCollateralSupported(address,address)": {
        "params": {
          "collateral": "The address of the collateral token to check",
          "market": "The address of the market token"
        },
        "returns": {
          "isSupported": "Whether the collateral is supported in the market"
        }
      },
      "owner()": {
        "details": "Returns the address of the current owner."
      },
      "renounceOwnership()": {
        "details": "Leaves the contract without owner. It will not be possible to call `onlyOwner` functions. Can only be called by the current owner. NOTE: Renouncing ownership will leave the contract without an owner, thereby disabling any functionality that is only available to the owner."
      },
      "transferOwnership(address)": {
        "details": "Transfers ownership of the contract to a new account (`newOwner`). Can only be called by the current owner."
      }
    },
    "version": 1
  },
  "userdoc": {
    "kind": "user",
    "methods": {
      "borrow(address,address,uint256)": {
        "notice": "Borrow tokens from the protocol"
      },
      "getSupportedCollaterals(address)": {
        "notice": "Get all supported collaterals for a specific market in Compound"
      },
      "isCollateralSupported(address,address)": {
        "notice": "Check if a collateral token is supported for a specific market in Compound"
      }
    },
    "version": 1
  },
  "storageLayout": {
    "storage": [
      {
        "astId": 2312,
        "contract": "contracts/gateways/CompoundGateway.sol:CompoundGateway",
        "label": "_owner",
        "offset": 0,
        "slot": "0",
        "type": "t_address"
      },
      {
        "astId": 3827,
        "contract": "contracts/gateways/CompoundGateway.sol:CompoundGateway",
        "label": "_status",
        "offset": 0,
        "slot": "1",
        "type": "t_uint256"
      },
      {
        "astId": 7409,
        "contract": "contracts/gateways/CompoundGateway.sol:CompoundGateway",
        "label": "tokenToComet",
        "offset": 0,
        "slot": "2",
        "type": "t_mapping(t_address,t_contract(ICompoundComet)8816)"
      },
      {
        "astId": 7412,
        "contract": "contracts/gateways/CompoundGateway.sol:CompoundGateway",
        "label": "priceFeed",
        "offset": 0,
        "slot": "3",
        "type": "t_contract(FeedRegistryInterface)2198"
      },
      {
        "astId": 7417,
        "contract": "contracts/gateways/CompoundGateway.sol:CompoundGateway",
        "label": "overrideFeeds",
        "offset": 0,
        "slot": "4",
        "type": "t_mapping(t_address,t_contract(AggregatorV3Interface)2303)"
      }
    ],
    "types": {
      "t_address": {
        "encoding": "inplace",
        "label": "address",
        "numberOfBytes": "20"
      },
      "t_contract(AggregatorV3Interface)2303": {
        "encoding": "inplace",
        "label": "contract AggregatorV3Interface",
        "numberOfBytes": "20"
      },
      "t_contract(FeedRegistryInterface)2198": {
        "encoding": "inplace",
        "label": "contract FeedRegistryInterface",
        "numberOfBytes": "20"
      },
      "t_contract(ICompoundComet)8816": {
        "encoding": "inplace",
        "label": "contract ICompoundComet",
        "numberOfBytes": "20"
      },
      "t_mapping(t_address,t_contract(AggregatorV3Interface)2303)": {
        "encoding": "mapping",
        "key": "t_address",
        "label": "mapping(address => contract AggregatorV3Interface)",
        "numberOfBytes": "32",
        "value": "t_contract(AggregatorV3Interface)2303"
      },
      "t_mapping(t_address,t_contract(ICompoundComet)8816)": {
        "encoding": "mapping",
        "key": "t_address",
        "label": "mapping(address => contract ICompoundComet)",
        "numberOfBytes": "32",
        "value": "t_contract(ICompoundComet)8816"
      },
      "t_uint256": {
        "encoding": "inplace",
        "label": "uint256",
        "numberOfBytes": "32"
      }
    }
  }
}