{
  "address": "0xdF4402e1bc549Fe87F724e922CF8161515209ff2",
  "abi": [
    {
      "inputs": [
        {
          "internalType": "address",
          "name": "router",
          "type": "address"
        },
        {
          "internalType": "contract ICompoundComet[]",
          "name": "_comets",
          "type": "address[]"
        },
        {
          "internalType": "contract FeedRegistryInterface",
          "name": "_priceFeed",
          "type": "address"
        },
        {
          "internalType": "address",
          "name": "_owner",
          "type": "address"
        }
      ],
      "stateMutability": "nonpayable",
      "type": "constructor"
    },
    {
      "inputs": [
        {
          "internalType": "address",
          "name": "target",
          "type": "address"
        }
      ],
      "name": "AddressEmptyCode",
      "type": "error"
    },
    {
      "inputs": [
        {
          "internalType": "address",
          "name": "account",
          "type": "address"
        }
      ],
      "name": "AddressInsufficientBalance",
      "type": "error"
    },
    {
      "inputs": [],
      "name": "FailedInnerCall",
      "type": "error"
    },
    {
      "inputs": [
        {
          "internalType": "address",
          "name": "owner",
          "type": "address"
        }
      ],
      "name": "OwnableInvalidOwner",
      "type": "error"
    },
    {
      "inputs": [
        {
          "internalType": "address",
          "name": "account",
          "type": "address"
        }
      ],
      "name": "OwnableUnauthorizedAccount",
      "type": "error"
    },
    {
      "inputs": [],
      "name": "ReentrancyGuardReentrantCall",
      "type": "error"
    },
    {
      "inputs": [
        {
          "internalType": "address",
          "name": "token",
          "type": "address"
        }
      ],
      "name": "SafeERC20FailedOperation",
      "type": "error"
    },
    {
      "anonymous": false,
      "inputs": [
        {
          "indexed": true,
          "internalType": "address",
          "name": "market",
          "type": "address"
        },
        {
          "indexed": true,
          "internalType": "address",
          "name": "collateral",
          "type": "address"
        },
        {
          "indexed": true,
          "internalType": "address",
          "name": "user",
          "type": "address"
        },
        {
          "indexed": false,
          "internalType": "uint256",
          "name": "amount",
          "type": "uint256"
        }
      ],
      "name": "CollateralWithdrawn",
      "type": "event"
    },
    {
      "anonymous": false,
      "inputs": [
        {
          "indexed": true,
          "internalType": "address",
          "name": "previousOwner",
          "type": "address"
        },
        {
          "indexed": true,
          "internalType": "address",
          "name": "newOwner",
          "type": "address"
        }
      ],
      "name": "OwnershipTransferred",
      "type": "event"
    },
    {
      "inputs": [],
      "name": "ROUTER",
      "outputs": [
        {
          "internalType": "address",
          "name": "",
          "type": "address"
        }
      ],
      "stateMutability": "view",
      "type": "function"
    },
    {
      "inputs": [
        {
          "internalType": "address",
          "name": "token",
          "type": "address"
        },
        {
          "internalType": "address",
          "name": "user",
          "type": "address"
        },
        {
          "internalType": "uint256",
          "name": "amount",
          "type": "uint256"
        }
      ],
      "name": "borrow",
      "outputs": [],
      "stateMutability": "nonpayable",
      "type": "function"
    },
    {
      "inputs": [
        {
          "internalType": "address",
          "name": "token",
          "type": "address"
        },
        {
          "internalType": "address",
          "name": "user",
          "type": "address"
        },
        {
          "internalType": "uint256",
          "name": "amount",
          "type": "uint256"
        }
      ],
      "name": "deposit",
      "outputs": [],
      "stateMutability": "nonpayable",
      "type": "function"
    },
    {
      "inputs": [
        {
          "internalType": "address",
          "name": "market",
          "type": "address"
        },
        {
          "internalType": "address",
          "name": "collateral",
          "type": "address"
        },
        {
          "internalType": "uint256",
          "name": "amount",
          "type": "uint256"
        },
        {
          "internalType": "address",
          "name": "receiver",
          "type": "address"
        }
      ],
      "name": "depositCollateral",
      "outputs": [],
      "stateMutability": "nonpayable",
      "type": "function"
    },
    {
      "inputs": [
        {
          "internalType": "address",
          "name": "token",
          "type": "address"
        },
        {
          "internalType": "address",
          "name": "user",
          "type": "address"
        }
      ],
      "name": "getBalance",
      "outputs": [
        {
          "internalType": "uint256",
          "name": "",
          "type": "uint256"
        }
      ],
      "stateMutability": "view",
      "type": "function"
    },
    {
      "inputs": [
        {
          "internalType": "contract ICompoundComet",
          "name": "comet",
          "type": "address"
        }
      ],
      "name": "getBaseToken",
      "outputs": [
        {
          "internalType": "address",
          "name": "",
          "type": "address"
        }
      ],
      "stateMutability": "view",
      "type": "function"
    },
    {
      "inputs": [
        {
          "internalType": "address",
          "name": "token",
          "type": "address"
        },
        {
          "internalType": "address",
          "name": "user",
          "type": "address"
        }
      ],
      "name": "getBorrowBalance",
      "outputs": [
        {
          "internalType": "uint256",
          "name": "",
          "type": "uint256"
        }
      ],
      "stateMutability": "view",
      "type": "function"
    },
    {
      "inputs": [
        {
          "internalType": "address",
          "name": "token",
          "type": "address"
        },
        {
          "internalType": "address",
          "name": "user",
          "type": "address"
        }
      ],
      "name": "getBorrowBalanceCurrent",
      "outputs": [
        {
          "internalType": "uint256",
          "name": "",
          "type": "uint256"
        }
      ],
      "stateMutability": "nonpayable",
      "type": "function"
    },
    {
      "inputs": [
        {
          "internalType": "address",
          "name": "token",
          "type": "address"
        }
      ],
      "name": "getBorrowRate",
      "outputs": [
        {
          "internalType": "uint256",
          "name": "borrowRate",
          "type": "uint256"
        },
        {
          "internalType": "bool",
          "name": "success",
          "type": "bool"
        }
      ],
      "stateMutability": "view",
      "type": "function"
    },
    {
      "inputs": [
        {
          "internalType": "address",
          "name": "market",
          "type": "address"
        },
        {
          "internalType": "address",
          "name": "asset",
          "type": "address"
        }
      ],
      "name": "getCollateralPrice",
      "outputs": [
        {
          "internalType": "uint256",
          "name": "",
          "type": "uint256"
        }
      ],
      "stateMutability": "view",
      "type": "function"
    },
    {
      "inputs": [
        {
          "internalType": "address",
          "name": "token",
          "type": "address"
        },
        {
          "internalType": "address",
          "name": "account",
          "type": "address"
        }
      ],
      "name": "getCompoundData",
      "outputs": [
        {
          "internalType": "uint256",
          "name": "supplyRate",
          "type": "uint256"
        },
        {
          "internalType": "uint256",
          "name": "borrowRate",
          "type": "uint256"
        },
        {
          "internalType": "uint256",
          "name": "balance",
          "type": "uint256"
        },
        {
          "internalType": "uint256",
          "name": "borrowBalance",
          "type": "uint256"
        },
        {
          "internalType": "uint256",
          "name": "price",
          "type": "uint256"
        },
        {
          "internalType": "uint256",
          "name": "priceScale",
          "type": "uint256"
        }
      ],
      "stateMutability": "view",
      "type": "function"
    },
    {
      "inputs": [
        {
          "internalType": "address",
          "name": "token",
          "type": "address"
        },
        {
          "internalType": "address",
          "name": "account",
          "type": "address"
        }
      ],
      "name": "getDepositedCollaterals",
      "outputs": [
        {
          "internalType": "address[]",
          "name": "collaterals",
          "type": "address[]"
        },
        {
          "internalType": "uint128[]",
          "name": "balances",
          "type": "uint128[]"
        },
        {
          "internalType": "string[]",
          "name": "displayNames",
          "type": "string[]"
        }
      ],
      "stateMutability": "view",
      "type": "function"
    },
    {
      "inputs": [
        {
          "internalType": "address",
          "name": "token",
          "type": "address"
        },
        {
          "components": [
            {
              "internalType": "address",
              "name": "token",
              "type": "address"
            },
            {
              "internalType": "uint256",
              "name": "amount",
              "type": "uint256"
            }
          ],
          "internalType": "struct IGateway.Collateral[]",
          "name": "",
          "type": "tuple[]"
        }
      ],
      "name": "getEncodedCollateralApprovals",
      "outputs": [
        {
          "internalType": "address[]",
          "name": "target",
          "type": "address[]"
        },
        {
          "internalType": "bytes[]",
          "name": "data",
          "type": "bytes[]"
        }
      ],
      "stateMutability": "view",
      "type": "function"
    },
    {
      "inputs": [
        {
          "internalType": "address",
          "name": "token",
          "type": "address"
        },
        {
          "internalType": "uint256",
          "name": "amount",
          "type": "uint256"
        },
        {
          "internalType": "address",
          "name": "user",
          "type": "address"
        }
      ],
      "name": "getEncodedDebtApproval",
      "outputs": [
        {
          "internalType": "address[]",
          "name": "target",
          "type": "address[]"
        },
        {
          "internalType": "bytes[]",
          "name": "data",
          "type": "bytes[]"
        }
      ],
      "stateMutability": "view",
      "type": "function"
    },
    {
      "inputs": [
        {
          "internalType": "address",
          "name": "token",
          "type": "address"
        },
        {
          "components": [
            {
              "internalType": "address",
              "name": "token",
              "type": "address"
            },
            {
              "internalType": "uint256",
              "name": "amount",
              "type": "uint256"
            }
          ],
          "internalType": "struct IGateway.Collateral[]",
          "name": "collaterals",
          "type": "tuple[]"
        }
      ],
      "name": "getInboundCollateralActions",
      "outputs": [
        {
          "internalType": "address[]",
          "name": "target",
          "type": "address[]"
        },
        {
          "internalType": "bytes[]",
          "name": "data",
          "type": "bytes[]"
        }
      ],
      "stateMutability": "view",
      "type": "function"
    },
    {
      "inputs": [
        {
          "internalType": "address",
          "name": "token",
          "type": "address"
        },
        {
          "internalType": "address",
          "name": "user",
          "type": "address"
        }
      ],
      "name": "getLtv",
      "outputs": [
        {
          "internalType": "uint256",
          "name": "",
          "type": "uint256"
        }
      ],
      "stateMutability": "view",
      "type": "function"
    },
    {
      "inputs": [
        {
          "internalType": "address",
          "name": "token",
          "type": "address"
        }
      ],
      "name": "getMaxLtv",
      "outputs": [
        {
          "internalType": "uint256",
          "name": "",
          "type": "uint256"
        }
      ],
      "stateMutability": "view",
      "type": "function"
    },
    {
      "inputs": [
        {
          "internalType": "address",
          "name": "token",
          "type": "address"
        },
        {
          "internalType": "address",
          "name": "user",
          "type": "address"
        }
      ],
      "name": "getPossibleCollaterals",
      "outputs": [
        {
          "internalType": "address[]",
          "name": "collateralAddresses",
          "type": "address[]"
        },
        {
          "internalType": "uint256[]",
          "name": "balances",
          "type": "uint256[]"
        },
        {
          "internalType": "string[]",
          "name": "symbols",
          "type": "string[]"
        },
        {
          "internalType": "uint8[]",
          "name": "decimals",
          "type": "uint8[]"
        }
      ],
      "stateMutability": "view",
      "type": "function"
    },
    {
      "inputs": [
        {
          "internalType": "address",
          "name": "token",
          "type": "address"
        }
      ],
      "name": "getPrice",
      "outputs": [
        {
          "internalType": "uint256",
          "name": "",
          "type": "uint256"
        }
      ],
      "stateMutability": "view",
      "type": "function"
    },
    {
      "inputs": [
        {
          "internalType": "address",
          "name": "market",
          "type": "address"
        },
        {
          "internalType": "address[]",
          "name": "tokens",
          "type": "address[]"
        }
      ],
      "name": "getPrices",
      "outputs": [
        {
          "internalType": "uint256[]",
          "name": "",
          "type": "uint256[]"
        }
      ],
      "stateMutability": "view",
      "type": "function"
    },
    {
      "inputs": [
        {
          "internalType": "address",
          "name": "token",
          "type": "address"
        }
      ],
      "name": "getSupplyRate",
      "outputs": [
        {
          "internalType": "uint256",
          "name": "supplyRate",
          "type": "uint256"
        },
        {
          "internalType": "bool",
          "name": "success",
          "type": "bool"
        }
      ],
      "stateMutability": "view",
      "type": "function"
    },
    {
      "inputs": [
        {
          "internalType": "address",
          "name": "market",
          "type": "address"
        }
      ],
      "name": "getSupportedCollaterals",
      "outputs": [
        {
          "internalType": "address[]",
          "name": "collateralAddresses",
          "type": "address[]"
        }
      ],
      "stateMutability": "view",
      "type": "function"
    },
    {
      "inputs": [
        {
          "internalType": "address",
          "name": "market",
          "type": "address"
        },
        {
          "internalType": "address",
          "name": "collateral",
          "type": "address"
        }
      ],
      "name": "isCollateralSupported",
      "outputs": [
        {
          "internalType": "bool",
          "name": "isSupported",
          "type": "bool"
        }
      ],
      "stateMutability": "view",
      "type": "function"
    },
    {
      "inputs": [
        {
          "internalType": "address",
          "name": "token",
          "type": "address"
        },
        {
          "internalType": "contract AggregatorV3Interface",
          "name": "feed",
          "type": "address"
        }
      ],
      "name": "overrideFeed",
      "outputs": [],
      "stateMutability": "nonpayable",
      "type": "function"
    },
    {
      "inputs": [
        {
          "internalType": "address",
          "name": "",
          "type": "address"
        }
      ],
      "name": "overrideFeeds",
      "outputs": [
        {
          "internalType": "contract AggregatorV3Interface",
          "name": "",
          "type": "address"
        }
      ],
      "stateMutability": "view",
      "type": "function"
    },
    {
      "inputs": [],
      "name": "owner",
      "outputs": [
        {
          "internalType": "address",
          "name": "",
          "type": "address"
        }
      ],
      "stateMutability": "view",
      "type": "function"
    },
    {
      "inputs": [],
      "name": "priceFeed",
      "outputs": [
        {
          "internalType": "contract FeedRegistryInterface",
          "name": "",
          "type": "address"
        }
      ],
      "stateMutability": "view",
      "type": "function"
    },
    {
      "inputs": [],
      "name": "renounceOwnership",
      "outputs": [],
      "stateMutability": "nonpayable",
      "type": "function"
    },
    {
      "inputs": [
        {
          "internalType": "address",
          "name": "token",
          "type": "address"
        },
        {
          "internalType": "address",
          "name": "user",
          "type": "address"
        },
        {
          "internalType": "uint256",
          "name": "amount",
          "type": "uint256"
        }
      ],
      "name": "repay",
      "outputs": [],
      "stateMutability": "nonpayable",
      "type": "function"
    },
    {
      "inputs": [
        {
          "internalType": "address",
          "name": "",
          "type": "address"
        }
      ],
      "name": "tokenToComet",
      "outputs": [
        {
          "internalType": "contract ICompoundComet",
          "name": "",
          "type": "address"
        }
      ],
      "stateMutability": "view",
      "type": "function"
    },
    {
      "inputs": [
        {
          "internalType": "address",
          "name": "newOwner",
          "type": "address"
        }
      ],
      "name": "transferOwnership",
      "outputs": [],
      "stateMutability": "nonpayable",
      "type": "function"
    },
    {
      "inputs": [
        {
          "internalType": "address",
          "name": "market",
          "type": "address"
        },
        {
          "internalType": "address",
          "name": "collateral",
          "type": "address"
        },
        {
          "internalType": "address",
          "name": "user",
          "type": "address"
        },
        {
          "internalType": "uint256",
          "name": "amount",
          "type": "uint256"
        }
      ],
      "name": "withdrawCollateral",
      "outputs": [
        {
          "internalType": "address",
          "name": "",
          "type": "address"
        },
        {
          "internalType": "uint256",
          "name": "",
          "type": "uint256"
        }
      ],
      "stateMutability": "nonpayable",
      "type": "function"
    }
  ],
  "transactionHash": "0xa6c300e1ff9ab878795f7387d5bc3c196526e61df024503df49ad6ed62eb5150",
  "args": [
    "0xa17c2714BA30e61D70dfbBE204C1c9548D604b0f",
    [
      "0x9c4ec768c28520B50860ea7a15bd7213a9fF58bf",
      "0xd98Be00b5D27fc98112BdE293e487f8D4cA57d07",
      "0xA5EDBDD9646f8dFF606d7448e414884C7d905dCA",
      "0x6f7D514bbD4aFf3BcD1140B7344b32f063dEe486"
    ],
    "0x0000000000000000000000000000000000000000",
    "0x58d21499B5A3374a486B3F412Cca43b76692eF15"
  ],
  "numDeployments": 5,
  "solcInputHash": "122e603eadd7886d569828c5ab7ef8c7",
  "bytecode": "0x60a06040523480156200001157600080fd5b50604051620030ec380380620030ec8339810160408190526200003491620002bd565b80846001600160a01b038116620000925760405162461bcd60e51b815260206004820152601d60248201527f526f7574657220616464726573732063616e6e6f74206265207a65726f00000060448201526064015b60405180910390fd5b6001600160a01b039081166080528116620000c457604051631e4fbdf760e01b81526000600482015260240162000089565b620000cf816200022c565b506001805560005b8351811015620002015760006001600160a01b0316848281518110620001015762000101620003cd565b60200260200101516001600160a01b031614620001ec578381815181106200012d576200012d620003cd565b6020026020010151600260008684815181106200014e576200014e620003cd565b60200260200101516001600160a01b031663c55dae636040518163ffffffff1660e01b8152600401602060405180830381865afa15801562000194573d6000803e3d6000fd5b505050506040513d601f19601f82011682018060405250810190620001ba9190620003e3565b6001600160a01b039081168252602082019290925260400160002080546001600160a01b031916929091169190911790555b80620001f8816200040a565b915050620000d7565b5050600380546001600160a01b0319166001600160a01b039290921691909117905550620004329050565b600080546001600160a01b038381166001600160a01b0319831681178455604051919092169283917f8be0079c531659141344cd1fd0a4f28419497f9722a3daafe3b4186f6b6457e09190a35050565b6001600160a01b03811681146200029257600080fd5b50565b8051620002a2816200027c565b919050565b634e487b7160e01b600052604160045260246000fd5b60008060008060808587031215620002d457600080fd5b8451620002e1816200027c565b602086810151919550906001600160401b03808211156200030157600080fd5b818801915088601f8301126200031657600080fd5b8151818111156200032b576200032b620002a7565b8060051b604051601f19603f83011681018181108582111715620003535762000353620002a7565b60405291825284820192508381018501918b8311156200037257600080fd5b938501935b828510156200039b576200038b8562000295565b8452938501939285019262000377565b809850505050505050620003b26040860162000295565b9150620003c26060860162000295565b905092959194509250565b634e487b7160e01b600052603260045260246000fd5b600060208284031215620003f657600080fd5b815162000403816200027c565b9392505050565b6000600182016200042b57634e487b7160e01b600052601160045260246000fd5b5060010190565b608051612c906200045c600039600081816102bf01528181610fbd01526110600152612c906000f3fe608060405234801561001057600080fd5b50600436106101f05760003560e01c806369e65e491161010f578063d4fac45d116100a2578063f2dbd07011610071578063f2dbd07014610507578063f2f1be1e1461051a578063f2fde38b14610543578063f5125d3f1461055657600080fd5b8063d4fac45d1461048e578063d71275f6146104a1578063e94201c7146104b4578063e9db3c9f146104c757600080fd5b806378466113116100de57806378466113146104395780638340f5491461045c5780638da5cb5b1461046f578063a342986c1461048057600080fd5b806369e65e49146103d45780636b5441a9146103f6578063715018a61461041e578063741bef1a1461042657600080fd5b80634108d0af116101875780635224372c116101565780635224372c1461035b5780635820ba631461036e578063647e0c20146103a057806366e2d09b146103b457600080fd5b80634108d0af1461030157806341976e09146103145780635054a1ae14610327578063508a07f11461034857600080fd5b806324bddcfd116101c357806324bddcfd1461027e57806326e46ed31461029157806332fe7b26146102ba5780633613d527146102e157600080fd5b80630c10fd0f146101f5578063104e999d14610225578063118e31b7146102485780631da649cf14610269575b600080fd5b61020861020336600461237f565b61056c565b6040516001600160a01b0390911681526020015b60405180910390f35b61023861023336600461239c565b6105d6565b60405161021c94939291906124f1565b61025b61025636600461239c565b61092e565b60405190815260200161021c565b61027c610277366004612572565b6109b3565b005b61027c61028c36600461239c565b610acf565b61020861029f36600461237f565b6002602052600090815260409020546001600160a01b031681565b6102087f000000000000000000000000000000000000000000000000000000000000000081565b6102f46102ef3660046125b3565b610b05565b60405161021c919061263a565b61027c61030f36600461264d565b610bbb565b61025b61032236600461237f565b610c3d565b61033a6103353660046126a0565b610e6c565b60405161021c929190612714565b61033a610356366004612777565b610eaf565b61027c610369366004612572565b610fb1565b61038161037c3660046127b9565b611051565b604080516001600160a01b03909316835260208301919091520161021c565b61025b6103ae36600461237f565b50600090565b6103c76103c236600461237f565b61122c565b60405161021c919061280a565b6103e76103e236600461239c565b6113e1565b60405161021c9392919061281d565b61040961040436600461237f565b61177c565b6040805192835290151560208301520161021c565b61027c611897565b600354610208906001600160a01b031681565b61044c61044736600461239c565b6118ab565b604051901515815260200161021c565b61027c61046a366004612572565b611a08565b6000546001600160a01b0316610208565b61033a6103563660046126a0565b61025b61049c36600461239c565b611a80565b6104096104af36600461237f565b611ac1565b61025b6104c236600461239c565b611b43565b6104da6104d536600461239c565b611b4f565b604080519687526020870195909552938501929092526060840152608083015260a082015260c00161021c565b61025b61051536600461239c565b611e84565b61020861052836600461237f565b6004602052600090815260409020546001600160a01b031681565b61027c61055136600461237f565b611f8a565b61025b61056436600461239c565b600092915050565b6000816001600160a01b031663c55dae636040518163ffffffff1660e01b8152600401602060405180830381865afa1580156105ac573d6000803e3d6000fd5b505050506040513d601f19601f820116820180604052508101906105d091906128a0565b92915050565b60608060608060008060006105eb89896113e1565b9250925092506000805b8351811015610649576000848281518110610612576106126128bd565b60200260200101516001600160801b031611156106375781610633816128e9565b9250505b80610641816128e9565b9150506105f5565b50806001600160401b0381111561066257610662612902565b60405190808252806020026020018201604052801561068b578160200160208202803683370190505b509750806001600160401b038111156106a6576106a6612902565b6040519080825280602002602001820160405280156106cf578160200160208202803683370190505b509650806001600160401b038111156106ea576106ea612902565b60405190808252806020026020018201604052801561071d57816020015b60608152602001906001900390816107085790505b509550806001600160401b0381111561073857610738612902565b604051908082528060200260200182016040528015610761578160200160208202803683370190505b5094506000805b845181101561091f576000858281518110610785576107856128bd565b60200260200101516001600160801b0316111561090d578581815181106107ae576107ae6128bd565b60200260200101518a83815181106107c8576107c86128bd565b60200260200101906001600160a01b031690816001600160a01b0316815250508481815181106107fa576107fa6128bd565b60200260200101516001600160801b031689838151811061081d5761081d6128bd565b60200260200101818152505083818151811061083b5761083b6128bd565b6020026020010151888381518110610855576108556128bd565b6020026020010181905250858181518110610872576108726128bd565b60200260200101516001600160a01b031663313ce5676040518163ffffffff1660e01b8152600401602060405180830381865afa1580156108b7573d6000803e3d6000fd5b505050506040513d601f19601f820116820180604052508101906108db9190612929565b8783815181106108ed576108ed6128bd565b60ff9092166020928302919091019091015281610909816128e9565b9250505b80610917816128e9565b915050610768565b50505050505092959194509250565b6001600160a01b03828116600090815260026020526040808220549051630dd3126d60e21b815284841660048201529192169063374c49b4906024015b602060405180830381865afa158015610988573d6000803e3d6000fd5b505050506040513d601f19601f820116820180604052508101906109ac9190612944565b9392505050565b6109bb611fc8565b6109d06001600160a01b038416333084611ff2565b6001600160a01b038381166000818152600260205260409081902054905163095ea7b360e01b8152921660048301819052602483018490529163095ea7b3906044016020604051808303816000875af1158015610a31573d6000803e3d6000fd5b505050506040513d601f19601f82011682018060405250810190610a55919061295d565b50604051634232cd6360e01b81526001600160a01b038481166004830152858116602483015260448201849052821690634232cd6390606401600060405180830381600087803b158015610aa857600080fd5b505af1158015610abc573d6000803e3d6000fd5b5050505050610aca60018055565b505050565b610ad7612059565b6001600160a01b03918216600090815260046020526040902080546001600160a01b03191691909216179055565b60606000826001600160401b03811115610b2157610b21612902565b604051908082528060200260200182016040528015610b4a578160200160208202803683370190505b50905060005b83811015610bb257610b8386868684818110610b6e57610b6e6128bd565b9050602002016020810190610515919061237f565b828281518110610b9557610b956128bd565b602090810291909101015280610baa816128e9565b915050610b50565b50949350505050565b6001600160a01b03808516600090815260026020526040902054859116610bfd5760405162461bcd60e51b8152600401610bf49061297f565b60405180910390fd5b610c05611fc8565b6001600160a01b0380861660009081526002602052604090205416610c2c81868587612086565b50610c3660018055565b5050505050565b6001600160a01b0381811660009081526004602052604081205490911615610ce6576001600160a01b038083166000908152600460208190526040808320548151633fabe5a360e21b815291519394169263feaf968c928281019260a09291908290030181865afa158015610cb6573d6000803e3d6000fd5b505050506040513d601f19601f82011682018060405250810190610cda91906129c3565b50919695505050505050565b6003546001600160a01b031615610d4a5760035460405163bcfd032d60e01b81526001600160a01b0384811660048301526103486024830152600092169063bcfd032d9060440160a060405180830381865afa158015610cb6573d6000803e3d6000fd5b6001600160a01b03808316600090815260026020908152604080832054815163e7dad6bd60e01b815291519394169263e7dad6bd926004808401939192918290030181865afa158015610da1573d6000803e3d6000fd5b505050506040513d601f19601f82011682018060405250810190610dc591906128a0565b90506001600160a01b03811615610e63576001600160a01b03838116600090815260026020526040908190205490516341976e0960e01b815283831660048201529116906341976e0990602401602060405180830381865afa158015610e2f573d6000803e3d6000fd5b505050506040513d601f19601f82011682018060405250810190610e539190612a2a565b6001600160801b03169392505050565b50600092915050565b60408051600080825260208201818152828401909352606092839291610ea2565b6060815260200190600190039081610e8d5790505b5091509150935093915050565b6001600160a01b03838116600090815260026020526040908190205481516001808252818401909352606093849392169181602001602082028036833701905050604080516001808252818301909252919450816020015b6060815260200190600190039081610f075790505091508083600081518110610f3257610f326128bd565b6001600160a01b039290921660209283029190910182015260408051306024820152600160448083019190915282518083039091018152606490910190915290810180516001600160e01b031663110496e560e01b17905282518390600090610f9d57610f9d6128bd565b602002602001018190525050935093915050565b81336001600160a01b037f0000000000000000000000000000000000000000000000000000000000000000161480610ff15750336001600160a01b038216145b61103d5760405162461bcd60e51b815260206004820152601c60248201527f4f6e6c7920726f75746572206f722073656c662063616e2063616c6c000000006044820152606401610bf4565b61104984858585611051565b505050505050565b60008083336001600160a01b037f00000000000000000000000000000000000000000000000000000000000000001614806110945750336001600160a01b038216145b6110e05760405162461bcd60e51b815260206004820152601c60248201527f4f6e6c7920726f75746572206f722073656c662063616e2063616c6c000000006044820152606401610bf4565b6001600160a01b038088166000908152600260205260409020548891166111195760405162461bcd60e51b8152600401610bf49061297f565b611121611fc8565b6001600160a01b03888116600090815260026020526040908190205490516304c8826360e31b815288831660048201523060248201528983166044820152606481018890529116908190632644131890608401600060405180830381600087803b15801561118e57600080fd5b505af11580156111a2573d6000803e3d6000fd5b50505050866001600160a01b0316886001600160a01b03168a6001600160a01b03167f066ba4a8f1b0176abba8cd70012fabcaa801a97916823e068d94ec15deb9037a896040516111f591815260200190565b60405180910390a46112116001600160a01b038916338861217f565b8786945094505061122160018055565b505094509492505050565b6001600160a01b038082166000908152600260205260409020546060911680611265575050604080516000815260208101909152919050565b6000816001600160a01b031663a46fe83b6040518163ffffffff1660e01b8152600401602060405180830381865afa1580156112a5573d6000803e3d6000fd5b505050506040513d601f19601f820116820180604052508101906112c99190612929565b90508060ff166001600160401b038111156112e6576112e6612902565b60405190808252806020026020018201604052801561130f578160200160208202803683370190505b50925060005b8160ff168160ff1610156113d95760405163c8c7fe6b60e01b815260ff821660048201526000906001600160a01b0385169063c8c7fe6b9060240161010060405180830381865afa15801561136e573d6000803e3d6000fd5b505050506040513d601f19601f820116820180604052508101906113929190612a5c565b90508060200151858360ff16815181106113ae576113ae6128bd565b6001600160a01b039092166020928302919091019091015250806113d181612b25565b915050611315565b505050919050565b6001600160a01b038083166000908152600260205260409020546060918291829116806114205760405162461bcd60e51b8152600401610bf49061297f565b6000816001600160a01b031663a46fe83b6040518163ffffffff1660e01b8152600401602060405180830381865afa158015611460573d6000803e3d6000fd5b505050506040513d601f19601f820116820180604052508101906114849190612929565b90508060ff166001600160401b038111156114a1576114a1612902565b6040519080825280602002602001820160405280156114ca578160200160208202803683370190505b5094508060ff166001600160401b038111156114e8576114e8612902565b60405190808252806020026020018201604052801561151b57816020015b60608152602001906001900390816115065790505b5092508060ff166001600160401b0381111561153957611539612902565b604051908082528060200260200182016040528015611562578160200160208202803683370190505b5093506000805b8260ff168160ff1610156117715760405163c8c7fe6b60e01b815260ff821660048201526000906001600160a01b0386169063c8c7fe6b9060240161010060405180830381865afa1580156115c2573d6000803e3d6000fd5b505050506040513d601f19601f820116820180604052508101906115e69190612a5c565b6020810151604051632b92a07d60e01b81526001600160a01b038c81166004830152918216602482015291925060009190871690632b92a07d906044016040805180830381865afa15801561163f573d6000803e3d6000fd5b505050506040513d601f19601f820116820180604052508101906116639190612b44565b509050816020015189858151811061167d5761167d6128bd565b60200260200101906001600160a01b031690816001600160a01b03168152505081602001516001600160a01b03166395d89b416040518163ffffffff1660e01b8152600401600060405180830381865afa1580156116df573d6000803e3d6000fd5b505050506040513d6000823e601f3d908101601f191682016040526117079190810190612b77565b878581518110611719576117196128bd565b602002602001018190525080888581518110611737576117376128bd565b6001600160801b039092166020928302919091019091015283611759816128e9565b9450505050808061176990612b25565b915050611569565b505050509250925092565b6001600160a01b038082166000908152600260205260408120549091829184911615611891576001600160a01b03808516600090815260026020908152604091829020548251637eb7113160e01b8152925193169263d955759d928492637eb71131926004808401938290030181865afa1580156117fe573d6000803e3d6000fd5b505050506040513d601f19601f820116820180604052508101906118229190612944565b6040518263ffffffff1660e01b815260040161184091815260200190565b602060405180830381865afa15801561185d573d6000803e3d6000fd5b505050506040513d601f19601f820116820180604052508101906118819190612c23565b6001600160401b03169250600191505b50915091565b61189f612059565b6118a960006121b0565b565b6001600160a01b03808316600090815260026020526040812054909116806118d75760009150506105d0565b6000816001600160a01b031663a46fe83b6040518163ffffffff1660e01b8152600401602060405180830381865afa158015611917573d6000803e3d6000fd5b505050506040513d601f19601f8201168201806040525081019061193b9190612929565b905060005b8160ff168160ff1610156119fc5760405163c8c7fe6b60e01b815260ff821660048201526000906001600160a01b0385169063c8c7fe6b9060240161010060405180830381865afa158015611999573d6000803e3d6000fd5b505050506040513d601f19601f820116820180604052508101906119bd9190612a5c565b9050856001600160a01b031681602001516001600160a01b0316036119e95760019450505050506105d0565b50806119f481612b25565b915050611940565b50600095945050505050565b6001600160a01b03808416600090815260026020526040902054849116611a415760405162461bcd60e51b8152600401610bf49061297f565b611a49611fc8565b6001600160a01b0380851660009081526002602052604090205416611a7081868686612086565b50611a7a60018055565b50505050565b6001600160a01b038281166000908152600260205260408082205490516370a0823160e01b81528484166004820152919216906370a082319060240161096b565b6001600160a01b038082166000908152600260205260408120549091829184911615611891576001600160a01b03808516600090815260026020908152604091829020548251637eb7113160e01b81529251931692639fa83b5a928492637eb71131926004808401938290030181865afa1580156117fe573d6000803e3d6000fd5b60006109ac838361092e565b6001600160a01b038083166000908152600260209081526040808320548151637eb7113160e01b815291519394859485948594859485941692839263d955759d928492637eb71131926004808401939192918290030181865afa158015611bba573d6000803e3d6000fd5b505050506040513d601f19601f82011682018060405250810190611bde9190612944565b6040518263ffffffff1660e01b8152600401611bfc91815260200190565b602060405180830381865afa158015611c19573d6000803e3d6000fd5b505050506040513d601f19601f82011682018060405250810190611c3d9190612c23565b6001600160401b03169650806001600160a01b0316639fa83b5a826001600160a01b0316637eb711316040518163ffffffff1660e01b8152600401602060405180830381865afa158015611c95573d6000803e3d6000fd5b505050506040513d601f19601f82011682018060405250810190611cb99190612944565b6040518263ffffffff1660e01b8152600401611cd791815260200190565b602060405180830381865afa158015611cf4573d6000803e3d6000fd5b505050506040513d601f19601f82011682018060405250810190611d189190612c23565b6040516370a0823160e01b81526001600160a01b038a811660048301526001600160401b03929092169750908216906370a0823190602401602060405180830381865afa158015611d6d573d6000803e3d6000fd5b505050506040513d601f19601f82011682018060405250810190611d919190612944565b604051630dd3126d60e21b81526001600160a01b038a811660048301529196509082169063374c49b490602401602060405180830381865afa158015611ddb573d6000803e3d6000fd5b505050506040513d601f19601f82011682018060405250810190611dff9190612944565b9350611e0a89610c3d565b9250806001600160a01b031663a0fbddaf6040518163ffffffff1660e01b8152600401602060405180830381865afa158015611e4a573d6000803e3d6000fd5b505050506040513d601f19601f82011682018060405250810190611e6e9190612c23565b6001600160401b03169150509295509295509295565b6001600160a01b03828116600090815260026020526040808220549051631d9df61760e11b815284841660048201529192169082908290633b3bec2e9060240161010060405180830381865afa158015611ee2573d6000803e3d6000fd5b505050506040513d601f19601f82011682018060405250810190611f069190612a5c565b60408181015190516341976e0960e01b81526001600160a01b0391821660048201529192508316906341976e0990602401602060405180830381865afa158015611f54573d6000803e3d6000fd5b505050506040513d601f19601f82011682018060405250810190611f789190612a2a565b6001600160801b031695945050505050565b611f92612059565b6001600160a01b038116611fbc57604051631e4fbdf760e01b815260006004820152602401610bf4565b611fc5816121b0565b50565b600260015403611feb57604051633ee5aeb560e01b815260040160405180910390fd5b6002600155565b6040516001600160a01b038481166024830152838116604483015260648201839052611a7a9186918216906323b872dd906084015b604051602081830303815290604052915060e01b6020820180516001600160e01b038381831617835250505050612200565b6000546001600160a01b031633146118a95760405163118cdaa760e01b8152336004820152602401610bf4565b61209b6001600160a01b038416333084611ff2565b60405163095ea7b360e01b81526001600160a01b0385811660048301526024820183905284169063095ea7b3906044016020604051808303816000875af11580156120ea573d6000803e3d6000fd5b505050506040513d601f19601f8201168201806040525081019061210e919061295d565b50604051634232cd6360e01b81526001600160a01b038381166004830152848116602483015260448201839052851690634232cd6390606401600060405180830381600087803b15801561216157600080fd5b505af1158015612175573d6000803e3d6000fd5b5050505050505050565b6040516001600160a01b03838116602483015260448201839052610aca91859182169063a9059cbb90606401612027565b600080546001600160a01b038381166001600160a01b0319831681178455604051919092169283917f8be0079c531659141344cd1fd0a4f28419497f9722a3daafe3b4186f6b6457e09190a35050565b60006122156001600160a01b03841683612263565b9050805160001415801561223a575080806020019051810190612238919061295d565b155b15610aca57604051635274afe760e01b81526001600160a01b0384166004820152602401610bf4565b60606109ac8383600084600080856001600160a01b031684866040516122899190612c3e565b60006040518083038185875af1925050503d80600081146122c6576040519150601f19603f3d011682016040523d82523d6000602084013e6122cb565b606091505b50915091506122db8683836122e5565b9695505050505050565b6060826122fa576122f582612341565b6109ac565b815115801561231157506001600160a01b0384163b155b1561233a57604051639996b31560e01b81526001600160a01b0385166004820152602401610bf4565b50806109ac565b8051156123515780518082602001fd5b604051630a12f52160e11b815260040160405180910390fd5b6001600160a01b0381168114611fc557600080fd5b60006020828403121561239157600080fd5b81356109ac8161236a565b600080604083850312156123af57600080fd5b82356123ba8161236a565b915060208301356123ca8161236a565b809150509250929050565b600081518084526020808501945080840160005b8381101561240e5781516001600160a01b0316875295820195908201906001016123e9565b509495945050505050565b600081518084526020808501945080840160005b8381101561240e5781518752958201959082019060010161242d565b60005b8381101561246457818101518382015260200161244c565b50506000910152565b60008151808452612485816020860160208601612449565b601f01601f19169290920160200192915050565b600082825180855260208086019550808260051b84010181860160005b848110156124e457601f198684030189526124d283835161246d565b988401989250908301906001016124b6565b5090979650505050505050565b60808152600061250460808301876123d5565b6020838203818501526125178288612419565b9150838203604085015261252b8287612499565b8481036060860152855180825282870193509082019060005b8181101561256357845160ff1683529383019391830191600101612544565b50909998505050505050505050565b60008060006060848603121561258757600080fd5b83356125928161236a565b925060208401356125a28161236a565b929592945050506040919091013590565b6000806000604084860312156125c857600080fd5b83356125d38161236a565b925060208401356001600160401b03808211156125ef57600080fd5b818601915086601f83011261260357600080fd5b81358181111561261257600080fd5b8760208260051b850101111561262757600080fd5b6020830194508093505050509250925092565b6020815260006109ac6020830184612419565b6000806000806080858703121561266357600080fd5b843561266e8161236a565b9350602085013561267e8161236a565b92506040850135915060608501356126958161236a565b939692955090935050565b6000806000604084860312156126b557600080fd5b83356126c08161236a565b925060208401356001600160401b03808211156126dc57600080fd5b818601915086601f8301126126f057600080fd5b8135818111156126ff57600080fd5b8760208260061b850101111561262757600080fd5b60408152600061272760408301856123d5565b6020838203818501528185518084528284019150828160051b85010183880160005b8381101561256357601f1987840301855261276583835161246d565b94860194925090850190600101612749565b60008060006060848603121561278c57600080fd5b83356127978161236a565b92506020840135915060408401356127ae8161236a565b809150509250925092565b600080600080608085870312156127cf57600080fd5b84356127da8161236a565b935060208501356127ea8161236a565b925060408501356127fa8161236a565b9396929550929360600135925050565b6020815260006109ac60208301846123d5565b60608152600061283060608301866123d5565b82810360208481019190915285518083528682019282019060005b818110156128705784516001600160801b03168352938301939183019160010161284b565b505084810360408601526128848187612499565b98975050505050505050565b805161289b8161236a565b919050565b6000602082840312156128b257600080fd5b81516109ac8161236a565b634e487b7160e01b600052603260045260246000fd5b634e487b7160e01b600052601160045260246000fd5b6000600182016128fb576128fb6128d3565b5060010190565b634e487b7160e01b600052604160045260246000fd5b805160ff8116811461289b57600080fd5b60006020828403121561293b57600080fd5b6109ac82612918565b60006020828403121561295657600080fd5b5051919050565b60006020828403121561296f57600080fd5b815180151581146109ac57600080fd5b60208082526010908201526f10dbdb595d081a5cc81b9bdd081cd95d60821b604082015260600190565b805169ffffffffffffffffffff8116811461289b57600080fd5b600080600080600060a086880312156129db57600080fd5b6129e4866129a9565b9450602086015193506040860151925060608601519150612a07608087016129a9565b90509295509295909350565b80516001600160801b038116811461289b57600080fd5b600060208284031215612a3c57600080fd5b6109ac82612a13565b80516001600160401b038116811461289b57600080fd5b6000610100808385031215612a7057600080fd5b604051908101906001600160401b0382118183101715612a9257612a92612902565b81604052612a9f84612918565b815260208401519150612ab18261236a565b816020820152612ac360408501612890565b6040820152612ad460608501612a45565b6060820152612ae560808501612a45565b6080820152612af660a08501612a45565b60a0820152612b0760c08501612a45565b60c0820152612b1860e08501612a13565b60e0820152949350505050565b600060ff821660ff8103612b3b57612b3b6128d3565b60010192915050565b60008060408385031215612b5757600080fd5b612b6083612a13565b9150612b6e60208401612a13565b90509250929050565b600060208284031215612b8957600080fd5b81516001600160401b0380821115612ba057600080fd5b818401915084601f830112612bb457600080fd5b815181811115612bc657612bc6612902565b604051601f8201601f19908116603f01168101908382118183101715612bee57612bee612902565b81604052828152876020848701011115612c0757600080fd5b612c18836020830160208801612449565b979650505050505050565b600060208284031215612c3557600080fd5b6109ac82612a45565b60008251612c50818460208701612449565b919091019291505056fea2646970667358221220d25ea1256a0aae8d289d8da0b255a40a43cc31860e6908beb582dc7f3db2ce7964736f6c63430008140033",
  "devdoc": {
    "errors": {
      "AddressEmptyCode(address)": [
        {
          "details": "There's no code at `target` (it is not a contract)."
        }
      ],
      "AddressInsufficientBalance(address)": [
        {
          "details": "The ETH balance of the account is not enough to perform the operation."
        }
      ],
      "FailedInnerCall()": [
        {
          "details": "A call to an address target failed. The target may have reverted."
        }
      ],
      "OwnableInvalidOwner(address)": [
        {
          "details": "The owner is not a valid owner account. (eg. `address(0)`)"
        }
      ],
      "OwnableUnauthorizedAccount(address)": [
        {
          "details": "The caller account is not authorized to perform an operation."
        }
      ],
      "ReentrancyGuardReentrantCall()": [
        {
          "details": "Unauthorized reentrant call."
        }
      ],
      "SafeERC20FailedOperation(address)": [
        {
          "details": "An operation with an ERC20 token failed."
        }
      ]
    },
    "kind": "dev",
    "methods": {
      "borrow(address,address,uint256)": {
        "details": "Can be called by Router or directly by the user",
        "params": {
          "amount": "The amount to borrow",
          "token": "The token to borrow",
          "user": "The user to borrow for"
        }
      },
      "getInboundCollateralActions(address,(address,uint256)[])": {
        "params": {
          "collaterals": "The collaterals to use",
          "token": "The token to borrow"
        },
        "returns": {
          "data": "Array of encoded function call data (empty for Compound)",
          "target": "Array of target contract addresses (empty for Compound)"
        }
      },
      "getPrices(address,address[])": {
        "params": {
          "tokens": "Array of token addresses"
        },
        "returns": {
          "_0": "prices Array of token prices in USD (same decimals as individual getPrice calls)"
        }
      },
      "getSupportedCollaterals(address)": {
        "params": {
          "market": "The address of the market token"
        },
        "returns": {
          "collateralAddresses": "Array of supported collateral token addresses"
        }
      },
      "isCollateralSupported(address,address)": {
        "params": {
          "collateral": "The address of the collateral token to check",
          "market": "The address of the market token"
        },
        "returns": {
          "isSupported": "Whether the collateral is supported in the market"
        }
      },
      "owner()": {
        "details": "Returns the address of the current owner."
      },
      "renounceOwnership()": {
        "details": "Leaves the contract without owner. It will not be possible to call `onlyOwner` functions. Can only be called by the current owner. NOTE: Renouncing ownership will leave the contract without an owner, thereby disabling any functionality that is only available to the owner."
      },
      "transferOwnership(address)": {
        "details": "Transfers ownership of the contract to a new account (`newOwner`). Can only be called by the current owner."
      }
    },
    "version": 1
  },
  "userdoc": {
    "kind": "user",
    "methods": {
      "borrow(address,address,uint256)": {
        "notice": "Borrow tokens from the protocol"
      },
      "getInboundCollateralActions(address,(address,uint256)[])": {
        "notice": "Get additional actions required for a token when providing collateral (not used in Compound)"
      },
      "getPrices(address,address[])": {
        "notice": "Get prices for multiple tokens at once"
      },
      "getSupportedCollaterals(address)": {
        "notice": "Get all supported collaterals for a specific market in Compound"
      },
      "isCollateralSupported(address,address)": {
        "notice": "Check if a collateral token is supported for a specific market in Compound"
      }
    },
    "version": 1
  },
  "storageLayout": {
    "storage": [
      {
        "astId": 2312,
        "contract": "contracts/gateways/CompoundGateway.sol:CompoundGateway",
        "label": "_owner",
        "offset": 0,
        "slot": "0",
        "type": "t_address"
      },
      {
        "astId": 3827,
        "contract": "contracts/gateways/CompoundGateway.sol:CompoundGateway",
        "label": "_status",
        "offset": 0,
        "slot": "1",
        "type": "t_uint256"
      },
      {
        "astId": 6870,
        "contract": "contracts/gateways/CompoundGateway.sol:CompoundGateway",
        "label": "tokenToComet",
        "offset": 0,
        "slot": "2",
        "type": "t_mapping(t_address,t_contract(ICompoundComet)10537)"
      },
      {
        "astId": 6873,
        "contract": "contracts/gateways/CompoundGateway.sol:CompoundGateway",
        "label": "priceFeed",
        "offset": 0,
        "slot": "3",
        "type": "t_contract(FeedRegistryInterface)2198"
      },
      {
        "astId": 6878,
        "contract": "contracts/gateways/CompoundGateway.sol:CompoundGateway",
        "label": "overrideFeeds",
        "offset": 0,
        "slot": "4",
        "type": "t_mapping(t_address,t_contract(AggregatorV3Interface)2303)"
      }
    ],
    "types": {
      "t_address": {
        "encoding": "inplace",
        "label": "address",
        "numberOfBytes": "20"
      },
      "t_contract(AggregatorV3Interface)2303": {
        "encoding": "inplace",
        "label": "contract AggregatorV3Interface",
        "numberOfBytes": "20"
      },
      "t_contract(FeedRegistryInterface)2198": {
        "encoding": "inplace",
        "label": "contract FeedRegistryInterface",
        "numberOfBytes": "20"
      },
      "t_contract(ICompoundComet)10537": {
        "encoding": "inplace",
        "label": "contract ICompoundComet",
        "numberOfBytes": "20"
      },
      "t_mapping(t_address,t_contract(AggregatorV3Interface)2303)": {
        "encoding": "mapping",
        "key": "t_address",
        "label": "mapping(address => contract AggregatorV3Interface)",
        "numberOfBytes": "32",
        "value": "t_contract(AggregatorV3Interface)2303"
      },
      "t_mapping(t_address,t_contract(ICompoundComet)10537)": {
        "encoding": "mapping",
        "key": "t_address",
        "label": "mapping(address => contract ICompoundComet)",
        "numberOfBytes": "32",
        "value": "t_contract(ICompoundComet)10537"
      },
      "t_uint256": {
        "encoding": "inplace",
        "label": "uint256",
        "numberOfBytes": "32"
      }
    }
  }
}