{
  "address": "0x8499e8B052a0d8f24E96534D341B7A1EeD9FE8cF",
  "abi": [
    {
      "inputs": [
        {
          "internalType": "address",
          "name": "owner_",
          "type": "address"
        }
      ],
      "stateMutability": "nonpayable",
      "type": "constructor"
    },
    {
      "inputs": [
        {
          "internalType": "address",
          "name": "owner",
          "type": "address"
        }
      ],
      "name": "OwnableInvalidOwner",
      "type": "error"
    },
    {
      "inputs": [
        {
          "internalType": "address",
          "name": "account",
          "type": "address"
        }
      ],
      "name": "OwnableUnauthorizedAccount",
      "type": "error"
    },
    {
      "anonymous": false,
      "inputs": [
        {
          "indexed": true,
          "internalType": "address",
          "name": "baseToken",
          "type": "address"
        },
        {
          "indexed": true,
          "internalType": "address",
          "name": "comet",
          "type": "address"
        }
      ],
      "name": "CometRegistered",
      "type": "event"
    },
    {
      "anonymous": false,
      "inputs": [
        {
          "indexed": true,
          "internalType": "address",
          "name": "baseToken",
          "type": "address"
        },
        {
          "indexed": true,
          "internalType": "address",
          "name": "oldComet",
          "type": "address"
        },
        {
          "indexed": true,
          "internalType": "address",
          "name": "newComet",
          "type": "address"
        }
      ],
      "name": "CometReplaced",
      "type": "event"
    },
    {
      "anonymous": false,
      "inputs": [
        {
          "indexed": true,
          "internalType": "address",
          "name": "previousOwner",
          "type": "address"
        },
        {
          "indexed": true,
          "internalType": "address",
          "name": "newOwner",
          "type": "address"
        }
      ],
      "name": "OwnershipTransferred",
      "type": "event"
    },
    {
      "anonymous": false,
      "inputs": [
        {
          "indexed": true,
          "internalType": "address",
          "name": "oldGateway",
          "type": "address"
        },
        {
          "indexed": true,
          "internalType": "address",
          "name": "newGateway",
          "type": "address"
        }
      ],
      "name": "WriteGatewayUpdated",
      "type": "event"
    },
    {
      "inputs": [
        {
          "internalType": "contract ICompoundComet",
          "name": "comet",
          "type": "address"
        }
      ],
      "name": "addComet",
      "outputs": [],
      "stateMutability": "nonpayable",
      "type": "function"
    },
    {
      "inputs": [],
      "name": "allActiveBaseTokens",
      "outputs": [
        {
          "internalType": "address[]",
          "name": "bases",
          "type": "address[]"
        }
      ],
      "stateMutability": "view",
      "type": "function"
    },
    {
      "inputs": [],
      "name": "allActiveComets",
      "outputs": [
        {
          "internalType": "address[]",
          "name": "comets",
          "type": "address[]"
        }
      ],
      "stateMutability": "view",
      "type": "function"
    },
    {
      "inputs": [],
      "name": "allBaseTokens",
      "outputs": [
        {
          "internalType": "address[]",
          "name": "",
          "type": "address[]"
        }
      ],
      "stateMutability": "view",
      "type": "function"
    },
    {
      "inputs": [],
      "name": "allComets",
      "outputs": [
        {
          "internalType": "address[]",
          "name": "",
          "type": "address[]"
        }
      ],
      "stateMutability": "view",
      "type": "function"
    },
    {
      "inputs": [
        {
          "internalType": "address",
          "name": "token",
          "type": "address"
        },
        {
          "internalType": "address",
          "name": "user",
          "type": "address"
        }
      ],
      "name": "getBalance",
      "outputs": [
        {
          "internalType": "uint256",
          "name": "",
          "type": "uint256"
        }
      ],
      "stateMutability": "view",
      "type": "function"
    },
    {
      "inputs": [
        {
          "internalType": "contract ICompoundComet",
          "name": "comet",
          "type": "address"
        }
      ],
      "name": "getBaseToken",
      "outputs": [
        {
          "internalType": "address",
          "name": "",
          "type": "address"
        }
      ],
      "stateMutability": "view",
      "type": "function"
    },
    {
      "inputs": [
        {
          "internalType": "address",
          "name": "token",
          "type": "address"
        },
        {
          "internalType": "address",
          "name": "user",
          "type": "address"
        }
      ],
      "name": "getBorrowBalance",
      "outputs": [
        {
          "internalType": "uint256",
          "name": "",
          "type": "uint256"
        }
      ],
      "stateMutability": "view",
      "type": "function"
    },
    {
      "inputs": [
        {
          "internalType": "address",
          "name": "token",
          "type": "address"
        },
        {
          "internalType": "address",
          "name": "user",
          "type": "address"
        }
      ],
      "name": "getBorrowBalanceCurrent",
      "outputs": [
        {
          "internalType": "uint256",
          "name": "",
          "type": "uint256"
        }
      ],
      "stateMutability": "view",
      "type": "function"
    },
    {
      "inputs": [
        {
          "internalType": "address",
          "name": "token",
          "type": "address"
        }
      ],
      "name": "getBorrowRate",
      "outputs": [
        {
          "internalType": "uint256",
          "name": "borrowRate",
          "type": "uint256"
        },
        {
          "internalType": "bool",
          "name": "success",
          "type": "bool"
        }
      ],
      "stateMutability": "view",
      "type": "function"
    },
    {
      "inputs": [
        {
          "internalType": "address",
          "name": "market",
          "type": "address"
        }
      ],
      "name": "getCollateralFactors",
      "outputs": [
        {
          "internalType": "address[]",
          "name": "assets",
          "type": "address[]"
        },
        {
          "internalType": "uint256[]",
          "name": "ltvBps",
          "type": "uint256[]"
        },
        {
          "internalType": "uint256[]",
          "name": "lltvBps",
          "type": "uint256[]"
        }
      ],
      "stateMutability": "view",
      "type": "function"
    },
    {
      "inputs": [
        {
          "internalType": "address",
          "name": "market",
          "type": "address"
        },
        {
          "internalType": "address",
          "name": "asset",
          "type": "address"
        }
      ],
      "name": "getCollateralPrice",
      "outputs": [
        {
          "internalType": "uint256",
          "name": "",
          "type": "uint256"
        }
      ],
      "stateMutability": "view",
      "type": "function"
    },
    {
      "inputs": [
        {
          "internalType": "address",
          "name": "baseToken",
          "type": "address"
        }
      ],
      "name": "getComet",
      "outputs": [
        {
          "internalType": "contract ICompoundComet",
          "name": "",
          "type": "address"
        }
      ],
      "stateMutability": "view",
      "type": "function"
    },
    {
      "inputs": [
        {
          "internalType": "address",
          "name": "token",
          "type": "address"
        },
        {
          "internalType": "address",
          "name": "account",
          "type": "address"
        }
      ],
      "name": "getCompoundData",
      "outputs": [
        {
          "internalType": "uint256",
          "name": "supplyRate",
          "type": "uint256"
        },
        {
          "internalType": "uint256",
          "name": "borrowRate",
          "type": "uint256"
        },
        {
          "internalType": "uint256",
          "name": "balance",
          "type": "uint256"
        },
        {
          "internalType": "uint256",
          "name": "borrowBalance",
          "type": "uint256"
        },
        {
          "internalType": "uint256",
          "name": "price",
          "type": "uint256"
        },
        {
          "internalType": "uint256",
          "name": "priceScale",
          "type": "uint256"
        }
      ],
      "stateMutability": "view",
      "type": "function"
    },
    {
      "inputs": [
        {
          "internalType": "address",
          "name": "token",
          "type": "address"
        },
        {
          "internalType": "address",
          "name": "account",
          "type": "address"
        }
      ],
      "name": "getDepositedCollaterals",
      "outputs": [
        {
          "internalType": "address[]",
          "name": "collaterals",
          "type": "address[]"
        },
        {
          "internalType": "uint128[]",
          "name": "balances",
          "type": "uint128[]"
        },
        {
          "internalType": "string[]",
          "name": "displayNames",
          "type": "string[]"
        }
      ],
      "stateMutability": "view",
      "type": "function"
    },
    {
      "inputs": [
        {
          "internalType": "address",
          "name": "token",
          "type": "address"
        },
        {
          "internalType": "address",
          "name": "user",
          "type": "address"
        }
      ],
      "name": "getLtv",
      "outputs": [
        {
          "internalType": "uint256",
          "name": "",
          "type": "uint256"
        }
      ],
      "stateMutability": "view",
      "type": "function"
    },
    {
      "inputs": [
        {
          "internalType": "address",
          "name": "token",
          "type": "address"
        },
        {
          "internalType": "address",
          "name": "user",
          "type": "address"
        }
      ],
      "name": "getMaxLtv",
      "outputs": [
        {
          "internalType": "uint256",
          "name": "",
          "type": "uint256"
        }
      ],
      "stateMutability": "view",
      "type": "function"
    },
    {
      "inputs": [
        {
          "internalType": "address",
          "name": "token",
          "type": "address"
        },
        {
          "internalType": "address",
          "name": "user",
          "type": "address"
        }
      ],
      "name": "getPossibleCollaterals",
      "outputs": [
        {
          "internalType": "address[]",
          "name": "collateralAddresses",
          "type": "address[]"
        },
        {
          "internalType": "uint256[]",
          "name": "balances",
          "type": "uint256[]"
        },
        {
          "internalType": "string[]",
          "name": "symbols",
          "type": "string[]"
        },
        {
          "internalType": "uint8[]",
          "name": "decimals",
          "type": "uint8[]"
        }
      ],
      "stateMutability": "view",
      "type": "function"
    },
    {
      "inputs": [
        {
          "internalType": "address",
          "name": "token",
          "type": "address"
        }
      ],
      "name": "getPrice",
      "outputs": [
        {
          "internalType": "uint256",
          "name": "",
          "type": "uint256"
        }
      ],
      "stateMutability": "view",
      "type": "function"
    },
    {
      "inputs": [
        {
          "internalType": "address",
          "name": "market",
          "type": "address"
        },
        {
          "internalType": "address[]",
          "name": "tokens",
          "type": "address[]"
        }
      ],
      "name": "getPrices",
      "outputs": [
        {
          "internalType": "uint256[]",
          "name": "",
          "type": "uint256[]"
        }
      ],
      "stateMutability": "view",
      "type": "function"
    },
    {
      "inputs": [
        {
          "internalType": "address",
          "name": "token",
          "type": "address"
        }
      ],
      "name": "getSupplyRate",
      "outputs": [
        {
          "internalType": "uint256",
          "name": "supplyRate",
          "type": "uint256"
        },
        {
          "internalType": "bool",
          "name": "success",
          "type": "bool"
        }
      ],
      "stateMutability": "view",
      "type": "function"
    },
    {
      "inputs": [
        {
          "internalType": "address",
          "name": "market",
          "type": "address"
        }
      ],
      "name": "getSupportedCollaterals",
      "outputs": [
        {
          "internalType": "address[]",
          "name": "collateralAddresses",
          "type": "address[]"
        }
      ],
      "stateMutability": "view",
      "type": "function"
    },
    {
      "inputs": [
        {
          "internalType": "address",
          "name": "market",
          "type": "address"
        },
        {
          "internalType": "address",
          "name": "collateral",
          "type": "address"
        }
      ],
      "name": "isCollateralSupported",
      "outputs": [
        {
          "internalType": "bool",
          "name": "isSupported",
          "type": "bool"
        }
      ],
      "stateMutability": "view",
      "type": "function"
    },
    {
      "inputs": [
        {
          "internalType": "address",
          "name": "token",
          "type": "address"
        },
        {
          "internalType": "contract AggregatorV3Interface",
          "name": "feed",
          "type": "address"
        }
      ],
      "name": "overrideFeed",
      "outputs": [],
      "stateMutability": "nonpayable",
      "type": "function"
    },
    {
      "inputs": [
        {
          "internalType": "address",
          "name": "",
          "type": "address"
        }
      ],
      "name": "overrideFeeds",
      "outputs": [
        {
          "internalType": "contract AggregatorV3Interface",
          "name": "",
          "type": "address"
        }
      ],
      "stateMutability": "view",
      "type": "function"
    },
    {
      "inputs": [],
      "name": "owner",
      "outputs": [
        {
          "internalType": "address",
          "name": "",
          "type": "address"
        }
      ],
      "stateMutability": "view",
      "type": "function"
    },
    {
      "inputs": [],
      "name": "renounceOwnership",
      "outputs": [],
      "stateMutability": "nonpayable",
      "type": "function"
    },
    {
      "inputs": [
        {
          "internalType": "address",
          "name": "baseToken",
          "type": "address"
        },
        {
          "internalType": "address",
          "name": "comet_",
          "type": "address"
        }
      ],
      "name": "setCometForBase",
      "outputs": [],
      "stateMutability": "nonpayable",
      "type": "function"
    },
    {
      "inputs": [
        {
          "internalType": "address",
          "name": "writeGateway_",
          "type": "address"
        }
      ],
      "name": "setWriteGateway",
      "outputs": [],
      "stateMutability": "nonpayable",
      "type": "function"
    },
    {
      "inputs": [],
      "name": "syncAllCometsFromWriteGateway",
      "outputs": [],
      "stateMutability": "nonpayable",
      "type": "function"
    },
    {
      "inputs": [
        {
          "internalType": "address",
          "name": "baseToken",
          "type": "address"
        }
      ],
      "name": "syncCometFromWriteGateway",
      "outputs": [],
      "stateMutability": "nonpayable",
      "type": "function"
    },
    {
      "inputs": [
        {
          "internalType": "address",
          "name": "",
          "type": "address"
        }
      ],
      "name": "tokenToComet",
      "outputs": [
        {
          "internalType": "contract ICompoundComet",
          "name": "",
          "type": "address"
        }
      ],
      "stateMutability": "view",
      "type": "function"
    },
    {
      "inputs": [
        {
          "internalType": "address",
          "name": "newOwner",
          "type": "address"
        }
      ],
      "name": "transferOwnership",
      "outputs": [],
      "stateMutability": "nonpayable",
      "type": "function"
    },
    {
      "inputs": [],
      "name": "writeGateway",
      "outputs": [
        {
          "internalType": "address",
          "name": "",
          "type": "address"
        }
      ],
      "stateMutability": "view",
      "type": "function"
    }
  ],
  "transactionHash": "0x82a7051f6c5b2a2f3509353e043f6a161d5c9df9f4bea8e46637f94b9a797d64",
  "args": [
    "0x0BE61223F99E57b8b8B7033a77B54Adc7f7cF027"
  ],
  "numDeployments": 12,
  "solcInputHash": "e028fb848b10d60fb5d956a05d904a64",
  "bytecode": "0x60803460b857601f612fb138819003918201601f19168301916001600160401b0383118484101760bc5780849260209460405283398101031260b857516001600160a01b0381169081900360b857801560a5575f80546001600160a01b031981168317825560405192916001600160a01b03909116907f8be0079c531659141344cd1fd0a4f28419497f9722a3daafe3b4186f6b6457e09080a3612ee090816100d18239f35b631e4fbdf760e01b5f525f60045260245ffd5b5f80fd5b634e487b7160e01b5f52604160045260245ffdfe60806040526004361015610011575f80fd5b5f3560e01c80630c10fd0f1461022f5780630d1fe0881461022a578063104e999d14610225578063118e31b7146101a857806324bddcfd1461022057806326e46ed31461021b5780632a8e3a49146102165780633613d5271461021157806341976e091461020c5780636072aa071461020757806362fd6add1461020257806366e2d09b146101fd57806369e65e49146101f85780636b5441a9146101f3578063715018a6146101ee578063755f62ce146101e957806378466113146101e45780638ca28635146101df5780638da5cb5b146101da57806391aa9c6f146101d55780639f2204e8146101d0578063b4bae5e1146101cb578063be305bf8146101c6578063c9475cd7146101c1578063cc2255aa146101bc578063d4fac45d146101b7578063d5316477146101b2578063d71275f6146101ad578063e94201c7146101a8578063e9db3c9f146101a3578063f2dbd0701461019e578063f2f1be1e14610199578063f2fde38b146101945763f5125d3f1461018f575f80fd5b611a39565b6119b0565b61196d565b611954565b6116ad565b610677565b6115e1565b611554565b6114d0565b611376565b6112be565b6112a3565b611104565b610fba565b610d8b565b610d64565b610cf7565b610cd4565b610cb9565b610c62565b610b41565b610ac7565b610a8b565b610a61565b610a27565b6109f8565b610980565b6107b3565b61076f565b610708565b61048e565b6102ea565b610249565b6001600160a01b0381160361024557565b5f80fd5b346102455760203660031901126102455760046020813561026981610234565b60405163c55dae6360e01b815292839182906001600160a01b03165afa80156102e5576102b2915f916102b6575b506040516001600160a01b0390911681529081906020820190565b0390f35b6102d8915060203d6020116102de575b6102d08183611a87565b810190611ab5565b5f610297565b503d6102c6565b611aca565b34610245575f366003190112610245576005546040516001600160a01b039091168152602090f35b60409060031901126102455760043561032a81610234565b9060243561033781610234565b90565b90602080835192838152019201905f5b8181106103575750505090565b82516001600160a01b031684526020938401939092019160010161034a565b90602080835192838152019201905f5b8181106103935750505090565b8251845260209384019390920191600101610386565b9080602083519182815201916020808360051b8301019401925f915b8383106103d457505050505090565b909192939460208080600193601f19868203018752818a518051918291828552018484015e5f828201840152601f01601f1916010197019594919091019201906103c5565b9290610450926104346104429260808752608087019061033a565b908582036020870152610376565b9083820360408501526103a9565b906060818303910152602080835192838152019201905f5b8181106104755750505090565b825160ff16845260209384019390920191600101610468565b34610245576104a561049f36610312565b90612578565b905f915f5b82518110156104fd576104dc6104d06104c38386611ae9565b516001600160801b031690565b6001600160801b031690565b6104e9575b6001016104aa565b926104f5600191611b16565b9390506104e1565b509261050883611b5b565b9261051281611b5b565b9461052561051f83611b8d565b92611b5b565b955f945f5b8151811015610666576105436104d06104c38385611ae9565b610550575b60010161052a565b9561058761056e6105618989611ae9565b516001600160a01b031690565b610578838b611ae9565b6001600160a01b039091169052565b6105976104d06104c38985611ae9565b6105a18285611ae9565b526105ac8785611ae9565b516105b78287611ae9565b526105c28186611ae9565b50600460206105e66105da6105da6105618c8c611ae9565b6001600160a01b031690565b60405163313ce56760e01b815292839182905afa9182156102e5576106278b6001948361062c955f92610634575b5061061f9192611ae9565b9060ff169052565b611b16565b969050610548565b61061f92506106599060203d811161065f575b6106518183611a87565b810190611be4565b91610614565b503d610647565b604051806102b28b88878d85610419565b3461024557602061068736610312565b91906001600160a01b039061069b90611f04565b604051630dd3126d60e21b81526001600160a01b03909416600485015283916024918391165afa80156102e5576020915f916106db575b50604051908152f35b6106fb9150823d8411610701575b6106f38183611a87565b810190611bf8565b5f6106d2565b503d6106e9565b346102455760403660031901126102455761076d60043561072881610234565b6024359061073582610234565b61073d612e64565b6001600160a01b039081165f90815260026020526040902080546001600160a01b03191692909116919091179055565b005b346102455760203660031901126102455760043561078c81610234565b6001600160a01b039081165f90815260016020908152604091829020549151919092168152f35b34610245576020366003190112610245576004356107d081610234565b6107d8612e64565b60405163c55dae6360e01b81526001600160a01b0382169190602081600481865afa9081156102e5575f91610950575b506001600160a01b0381169161088d90610823841515611c07565b61086e6108536105da6108468660018060a01b03165f52600160205260405f2090565b546001600160a01b031690565b6001600160a01b039094165f90815260016020526040902090565b80546001600160a01b0319166001600160a01b03909216919091179055565b6001600160a01b0383165f9081526004602052604090206108b8906108b4905b5460ff1690565b1590565b610919575b82825f516020612e8b5f395f51905f525f80a36001600160a01b0316908115158061090f575b6108e957005b7f526edd5dd90f5bf0182679e6bfd9599001c52b92e97523563c3302d3a030e2965f80a4005b50828214156108e3565b6001600160a01b0383165f908152600460205260409020610942905b805460ff19166001179055565b61094b83611c5e565b6108bd565b610969915060203d6020116102de576102d08183611a87565b5f610808565b906020610337928181520190610376565b346102455760403660031901126102455760043561099d81610234565b6024356001600160401b03811161024557366023820112156102455780600401356001600160401b038111610245573660248260051b84010111610245576102b29260246109ec930190611cc8565b6040519182918261096f565b34610245576020366003190112610245576020610a1f600435610a1a81610234565b611d85565b604051908152f35b3461024557602036600319011261024557610a4c600435610a4781610234565b611f04565b6040516001600160a01b039091168152602090f35b34610245576020610a1f610a7436610312565b90612053565b90602061033792818152019061033a565b34610245576020366003190112610245576102b2610ab3600435610aae81610234565b61239c565b60405191829160208352602083019061033a565b3461024557610ad861049f36610312565b610af06040939293519260608452606084019061033a565b8281036020840152602080855192838152019401905f5b818110610b225784806102b2888783820360408501526103a9565b82516001600160801b0316865260209586019590920191600101610b07565b3461024557602036600319011261024557600435610b5e81610234565b6001600160a01b038082165f9081526001602052604081205490928392909116610b95575b50604080519182529115156020820152f35b610ba492506105da9150611f04565b604051637eb7113160e01b8152602081600481855afa80156102e557610bef926020925f92610c43575b50604051808095819463d955759d60e01b8352600483019190602083019252565b03915afa80156102e5576001600160401b03915f91610c14575b50166001905f610b83565b610c36915060203d602011610c3c575b610c2e8183611a87565b81019061278b565b5f610c09565b503d610c24565b610c5b919250833d8511610701576106f38183611a87565b905f610bce565b34610245575f36600319011261024557610c7a612e64565b5f80546001600160a01b0319811682556001600160a01b03167f8be0079c531659141344cd1fd0a4f28419497f9722a3daafe3b4186f6b6457e08280a3005b34610245575f366003190112610245576102b2610ab361279f565b34610245576020610ced610ce736610312565b906127f0565b6040519015158152f35b3461024557602036600319011261024557600435610d1481610234565b610d1c612e64565b600580546001600160a01b039283166001600160a01b0319821681179092559091167f864aa5b65d00254be4a57e93185f66797e0b72b1d648eb9a569ea297fbd259375f80a3005b34610245575f366003190112610245575f546040516001600160a01b039091168152602090f35b34610245575f36600319011261024557610da3612e64565b6005546004905f90610dd1906105da906001600160a01b03165b6105da6001600160a01b038216151561291f565b604051633aafb16760e11b815292839182905afa9081156102e5575f91610f98575b505f5b815181101561076d57610e0f6105da6105618385611ae9565b60405163c55dae6360e01b815291906001600160a01b03811690602084600481855afa80156102e5576001945f91610f7a575b5082858060a01b03610e6a6105da6108468560018060a01b03165f52600160205260405f2090565b1603610e7a575b50505001610df6565b610ebc610e9d6105da6108468460018060a01b03165f52600160205260405f2090565b6001600160a01b0383165f90815260016020526040902090939061086e565b6001600160a01b0383165f908152600460205260409020610ee0906108b4906108ad565b610f4c575b848060a01b03169082825f516020612e8b5f395f51905f525f80a3848060a01b03169081151580610f42575b15610e71577f526edd5dd90f5bf0182679e6bfd9599001c52b92e97523563c3302d3a030e2965f80a45f8080610e71565b5082821415610f11565b6001600160a01b0383165f908152600460205260409020610f6c90610935565b610f7583611c5e565b610ee5565b610f92915060203d81116102de576102d08183611a87565b5f610e42565b610fb491503d805f833e610fac8183611a87565b81019061296b565b5f610df3565b346102455761086e610fcb36610312565b90610fd4612e64565b6001600160a01b03811691821515806110bb575b610ff1906129ee565b6110366110146105da6108468560018060a01b03165f52600160205260405f2090565b6001600160a01b039384165f9081526001602052604090209383169590938691565b6001600160a01b0381165f90815260046020526040902061105a906108b4906108ad565b61108b575b5082825f516020612e8b5f395f51905f525f80a36001600160a01b0316908115158061090f576108e957005b6001600160a01b0381165f9081526004602052604090206110b591906110b090610935565b611c5e565b5f61105f565b506001600160a01b0381161515610fe8565b916110f6906110e8610337959360608652606086019061033a565b908482036020860152610376565b916040818403910152610376565b34610245576020366003190112610245576111276105da600435610a4781610234565b60405163a46fe83b60e01b8152602081600481855afa80156102e55760ff915f91611284575b501661115881611b5b565b9061116281611b5b565b9161116c82611b5b565b905f5b60ff811690848210156112745760405163c8c7fe6b60e01b815260ff8216600482015290610100826024818b5afa9283156102e55761123b61123461121761121261120660a060ff998e60019a5f92611243575b5060208201516111e5908e90610578908c906001600160a01b03165b92611ae9565b611225896111df61121761121261120660808801516001600160401b031690565b6001600160401b031690565b61200a565b670de0b6b3a7640000900490565b5201516001600160401b031690565b9187611ae9565b52011661116f565b6112669192506101003d811161126d575b61125e8183611a87565b8101906122ff565b905f6111c3565b503d611254565b604051806102b2868987846110cd565b61129d915060203d60201161065f576106518183611a87565b5f61114d565b34610245575f366003190112610245576102b2610ab3612a38565b34610245575f366003190112610245576003546112da81611b5b565b905f5b8181106112f257604051806102b28582610a7a565b80602061131e6105da6105da611309600496611c46565b905460039190911b1c6001600160a01b031690565b60405163c55dae6360e01b815293849182905afa9182156102e557600192611352915f91611358575b506105788387611ae9565b016112dd565b611370915060203d81116102de576102d08183611a87565b5f611347565b346102455760203660031901126102455760043561139381610234565b61139b612e64565b6005546113b4906105da906001600160a01b0316610dbd565b6040516326e46ed360e01b81526001600160a01b038316600482015290602090829060249082905afa9081156102e5575f916114b1575b506001600160a01b03811691611402831515612b9c565b611425610e9d6105da6108468460018060a01b03165f52600160205260405f2090565b6001600160a01b0383165f908152600460205260409020611449906108b4906108ad565b611483575b6001600160a01b03169082825f516020612e8b5f395f51905f525f80a36001600160a01b0316908115158061090f576108e957005b6001600160a01b0383165f9081526004602052604090206114a390610935565b6114ac83611c5e565b61144e565b6114ca915060203d6020116102de576102d08183611a87565b5f6113eb565b346102455760206114e036610312565b91906001600160a01b03906114f490611f04565b6040516370a0823160e01b81526001600160a01b03909416600485015283916024918391165afa9081156102e5575f91611535575b50604051908152602090f35b61154e915060203d602011610701576106f38183611a87565b5f611529565b34610245575f3660031901126102455761156c612a38565b6115768151611b5b565b905f5b81518110156115d35780602061159a6105da6105da61056160049688611ae9565b60405163c55dae6360e01b815293849182905afa9182156102e5576001926115cd915f9161135857506105788387611ae9565b01611579565b604051806102b28582610a7a565b34610245576020366003190112610245576004356115fe81610234565b6001600160a01b038082165f90815260016020526040812054909283929091166116345750604080519182529115156020820152f35b61164392506105da9150611f04565b604051637eb7113160e01b8152602081600481855afa80156102e557610bef926020925f9261168e575b506040518080958194634fd41dad60e11b8352600483019190602083019252565b6116a6919250833d8511610701576106f38183611a87565b905f61166d565b34610245576116bb36610312565b6116c76105da83611f04565b604051637eb7113160e01b81529190602083600481845afa9283156102e557611714936020915f91611937575b506040518095819263d955759d60e01b8352600483019190602083019252565b0381845afa9283156102e5575f93611916575b50604051637eb7113160e01b815290602082600481845afa9182156102e557611774926020915f916118f9575b5060405180948192634fd41dad60e11b8352600483019190602083019252565b0381845afa9182156102e5575f926118d8575b506040516370a0823160e01b81526001600160a01b038416600482015294602086602481855afa9384156102e5576117ed965f956118b6575b50604051630dd3126d60e21b81526001600160a01b03909116600482015295602090879081906024820190565b0381855afa9081156102e5576004965f92611890575b5061180f602091611d85565b926040519788809263a0fbddaf60e01b82525afa9384156102e5576001600160401b03965f9561186d575b506040805196881687529387166020870152928501929092526060840191909152608083015290911660a082015260c090f35b6102b2955061188a9060203d602011610c3c57610c2e8183611a87565b9461183a565b60209192506118ae61180f91833d8511610701576106f38183611a87565b929150611803565b60209195506118d190823d8411610701576106f38183611a87565b94906117c0565b6118f291925060203d602011610c3c57610c2e8183611a87565b905f611787565b6119109150823d8411610701576106f38183611a87565b5f611754565b61193091935060203d602011610c3c57610c2e8183611a87565b915f611727565b61194e9150823d8411610701576106f38183611a87565b5f6116f4565b34610245576020610a1f61196736610312565b90612bf4565b346102455760203660031901126102455760043561198a81610234565b60018060a01b03165f526002602052602060018060a01b0360405f205416604051908152f35b34610245576020366003190112610245576004356119cd81610234565b6119d5612e64565b6001600160a01b03168015611a26575f80546001600160a01b03198116831782556001600160a01b0316907f8be0079c531659141344cd1fd0a4f28419497f9722a3daafe3b4186f6b6457e09080a3005b631e4fbdf760e01b5f525f60045260245ffd5b34610245576020610a1f611a4c36610312565b90612c89565b634e487b7160e01b5f52604160045260245ffd5b61010081019081106001600160401b03821117611a8257604052565b611a52565b90601f801991011681019081106001600160401b03821117611a8257604052565b5190611ab382610234565b565b90816020910312610245575161033781610234565b6040513d5f823e3d90fd5b634e487b7160e01b5f52603260045260245ffd5b8051821015611afd5760209160051b010190565b611ad5565b634e487b7160e01b5f52601160045260245ffd5b5f198114611b245760010190565b611b02565b6001600160401b038111611a825760051b60200190565b60405190611b4f602083611a87565b5f808352366020840137565b90611b6582611b29565b611b726040519182611a87565b8281528092611b83601f1991611b29565b0190602036910137565b90611b9782611b29565b611ba46040519182611a87565b8281528092611bb5601f1991611b29565b01905f5b828110611bc557505050565b806060602080938501015201611bb9565b519060ff8216820361024557565b908160209103126102455761033790611bd6565b90816020910312610245575190565b15611c0e57565b60405162461bcd60e51b815260206004820152601060248201526f0436f6d706f756e643a20626173653d360841b6044820152606490fd5b600354811015611afd5760035f5260205f2001905f90565b60035468010000000000000000811015611a825760018101600355600354811015611afd5760035f527fc2575a0e9e593c00f959f8c92f12db2869c3395a3b0502d05e2516446f71f85b0180546001600160a01b0319166001600160a01b03909216919091179055565b9290611cd383611b5b565b915f5b84811015611d0b57600190611cfa8160051b850135611cf481610234565b88612bf4565b611d048287611ae9565b5201611cd6565b50935050905090565b519069ffffffffffffffffffff8216820361024557565b908160a091031261024557611d3f81611d14565b91602082015191604081015191610337608060608401519301611d14565b51906001600160801b038216820361024557565b908160209103126102455761033790611d5d565b6001600160a01b038181165f908152600260205260409020611daa906105da90610846565b16611e8a576105da611dbb91611f04565b60405163e7dad6bd60e01b815290602082600481845afa9182156102e5575f92611e69575b506001600160a01b038216611df55750505f90565b6040516341976e0960e01b81526001600160a01b03909216600483015260209082908180602481015b03915afa80156102e5576001600160801b03915f91611e3c57501690565b611e5e915060203d602011611e62575b611e568183611a87565b810190611d71565b1690565b503d611e4c565b611e8391925060203d6020116102de576102d08183611a87565b905f611de0565b60a0611eae6105da61084660049460018060a01b03165f52600260205260405f2090565b604051633fabe5a360e21b815292839182905afa9081156102e5575f91611ed3575090565b611ef5915060a03d60a011611efd575b611eed8183611a87565b810190611d2b565b505050905090565b503d611ee3565b6001600160a01b0381165f908152600160205260409020611f2490610846565b6001600160a01b0381166120055750600554611f48906001600160a01b03166105da565b80611f93575b60405162461bcd60e51b815260206004820152601960248201527f436f6d706f756e643a20636f6d6574206e6f7420666f756e64000000000000006044820152606490fd5b6040516326e46ed360e01b81526001600160a01b0392831660048201529160209183916024918391165afa5f9181611fe4575b50611fd2575b80611f4e565b6001600160a01b03811615611fcc5790565b611ffe91925060203d6020116102de576102d08183611a87565b905f611fc6565b905090565b906127108202918083046127101490151715611b2457565b81810292918115918404141715611b2457565b811561203f570490565b634e487b7160e01b5f52601260045260245ffd5b61205c90611f04565b60405163a46fe83b60e01b81525f9283926001600160a01b03169190602082600481865afa9182156102e5575f926122ca575b5091905f925b60ff821660ff8516106120d0575050505080156120ca576127108202918083046127101490151715611b245761033791612035565b50505f90565b60405163c8c7fe6b60e01b815260ff85166004820152939593949293919290919061010086602481885afa9586156102e5575f966122a9575b506020860151612150906040906001600160a01b03165b8151632b92a07d60e01b81526001600160a01b038088166004830152909116602482015291829081906044820190565b0381895afa80156102e5576001600160801b03915f9161227a575b5016801561226b5760408701516121b5939291906020906001600160a01b03165b6040516341976e0960e01b81526001600160a01b03909116600482015294859081906024820190565b03818a5afa9283156102e55761223961121760019461223361120660a06122248f61221d9061221761120660ff9f60ff9f61223f9e6001600160801b03612208926060945f9161224d575b501690612022565b9301516001600160401b031690565b90612035565b8095612a2b565b9e01516001600160401b031690565b90612022565b90612a2b565b975b01169392919050612095565b612265915060203d8111611e6257611e568183611a87565b5f612200565b5094509460ff60018192612241565b61229b915060403d81116122a2575b6122938183611a87565b8101906124e6565b505f61216b565b503d612289565b6122c39196506101003d811161126d5761125e8183611a87565b945f612109565b6122e491925060203d60201161065f576106518183611a87565b905f61208f565b51906001600160401b038216820361024557565b90816101009103126102455761239460e06040519261231d84611a66565b61232681611bd6565b845261233460208201611aa8565b602085015261234560408201611aa8565b6040850152612356606082016122eb565b6060850152612367608082016122eb565b608085015261237860a082016122eb565b60a085015261238960c082016122eb565b60c085015201611d5d565b60e082015290565b604051636072aa0760e01b81526001600160a01b03919091166004820152602081602481305afa5f91816124c5575b506123d95750610337611b40565b60405163a46fe83b60e01b81526001600160a01b03919091169190602081600481865afa80156102e55760ff915f916124a6575b50169061241982611b5b565b5f5b60ff8116908482101561249d5760405163c8c7fe6b60e01b815260ff8216600482015290610100826024818a5afa80156102e55760ff936105786112346020612477946001975f9161247e575b5001516001600160a01b031690565b011661241b565b61249791506101003d811161126d5761125e8183611a87565b5f612468565b50509150915090565b6124bf915060203d60201161065f576106518183611a87565b5f61240d565b6124df91925060203d6020116102de576102d08183611a87565b905f6123cb565b919082604091031261024557610337602061250084611d5d565b9301611d5d565b602081830312610245578051906001600160401b038211610245570181601f82011215610245578051906001600160401b038211611a825760405192612557601f8401601f191660200185611a87565b8284526020838301011161024557815f9260208093018386015e8301015290565b6105da61258791939293611f04565b9060405163a46fe83b60e01b8152602081600481865afa80156102e55760ff915f9161276c575b5016906125ba82611b5b565b936125c483611b8d565b926125ce81611b5b565b945f90815b8360ff8416106125e4575050505050565b60405163c8c7fe6b60e01b815260ff8416600482015261010081602481865afa9081156102e557612650916020915f9161274d575b5001805160408051632b92a07d60e01b81526001600160a01b038a8116600483015290921660248301529092839081906044820190565b0381875afa9182156102e5578b905f93612715575b5061268b6105da6105da846105615f956105788a6111df60049a5160018060a01b031690565b6040516395d89b4160e01b815292839182905afa9283156102e5576106276001936126dc838e6126d68f839060ff9b6126ea9a5f916126f3575b506126d08383611ae9565b52611ae9565b50611ae9565b906001600160801b03169052565b930116916125d3565b61270f91503d805f833e6127078183611a87565b810190612507565b5f6126c5565b5f9193506105da6105da60049461056161273f61268b9560403d81116122a2576122938183611a87565b509795505094505050612665565b61276691506101003d811161126d5761125e8183611a87565b5f612619565b612785915060203d60201161065f576106518183611a87565b5f6125ae565b9081602091031261024557610337906122eb565b60405190600354808352826020810160035f5260205f20925f5b8181106127ce575050611ab392500383611a87565b84546001600160a01b03168352600194850194879450602090930192016127b9565b604051636072aa0760e01b81526001600160a01b03919091166004820152909190602081602481305afa5f91816128fe575b5061282d57505f9150565b60405163a46fe83b60e01b815292906001600160a01b0316602084600481845afa9384156102e5575f946128dd575b505f5b60ff851660ff82161061287457505f93505050565b60405163c8c7fe6b60e01b815260ff8216600482015261010081602481865afa9081156102e5576128b7916020915f9161247e575001516001600160a01b031690565b6001600160a01b038481169116146128d45760010160ff1661285f565b50600193505050565b6128f791945060203d60201161065f576106518183611a87565b925f61285c565b61291891925060203d6020116102de576102d08183611a87565b905f612822565b1561292657565b60405162461bcd60e51b815260206004820152601f60248201527f436f6d706f756e643a2077726974652067617465776179206e6f7420736574006044820152606490fd5b602081830312610245578051906001600160401b03821161024557019080601f8301121561024557815161299e81611b29565b926129ac6040519485611a87565b81845260208085019260051b82010192831161024557602001905b8282106129d45750505090565b6020809183516129e381610234565b8152019101906129c7565b156129f557565b60405162461bcd60e51b815260206004820152600e60248201526d436f6d706f756e643a207a65726f60901b6044820152606490fd5b91908201809211611b2457565b612a4061279f565b6005549091906001600160a01b031680612b425750612a5d611b40565b905b612a74612a6f8451845190612a2b565b611b5b565b925f915f5b8251811015612aae5780612aa8612a9561056160019487611ae9565b610578612aa188611b16565b978a611ae9565b01612a79565b509290505f5b8151811015612b3c57612aca6105618284611ae9565b5f6001600160a01b038216815b868110612b10575b5050906001929115612af3575b5001612ab4565b612b0a90610578612b0387611b16565b9689611ae9565b5f612aec565b81612b216105da610561848d611ae9565b14612b2e57600101612ad7565b50600191508190505f612adf565b50508252565b6004905f90612b59906001600160a01b03166105da565b604051633aafb16760e11b815292839182905afa9081156102e5575f91612b82575b5090612a5f565b612b9691503d805f833e610fac8183611a87565b5f612b7b565b15612ba357565b60405162461bcd60e51b8152602060048201526024808201527f436f6d706f756e643a20636f6d6574206e6f7420696e207772697465206761746044820152636577617960e01b6064820152608490fd5b610100612c066105da612c3093611f04565b604051631d9df61760e11b81526001600160a01b0390941660048501529291829081906024820190565b0381855afa9182156102e557612c5d6040611e1e946020945f9161247e575001516001600160a01b031690565b6040516341976e0960e01b81526001600160a01b03909116600482015292839190829081906024820190565b612c9290611f04565b60405163a46fe83b60e01b81525f9283926001600160a01b03169190602082600481865afa9182156102e5575f92612e43575b5091905f925b60ff821660ff851610612d00575050505080156120ca576127108202918083046127101490151715611b245761033791612035565b60405163c8c7fe6b60e01b815260ff85166004820152939593949293919290919061010086602481885afa9586156102e5575f96612e22575b506020860151612d54906040906001600160a01b0316612120565b0381895afa80156102e5576001600160801b03915f91612e03575b50168015612df4576040870151612d94939291906020906001600160a01b031661218c565b03818a5afa9283156102e55761223961121760019461223361120660806122248f61221d9061221761120660ff9f60ff9f612de69e6001600160801b03612208926060945f9161224d57501690612022565b975b01169392919050612ccb565b5094509460ff60018192612de8565b612e1b915060403d81116122a2576122938183611a87565b505f612d6f565b612e3c9196506101003d811161126d5761125e8183611a87565b945f612d39565b612e5d91925060203d60201161065f576106518183611a87565b905f612cc5565b5f546001600160a01b03163303612e7757565b63118cdaa760e01b5f523360045260245ffdfebd7bf039bc2e612983f7f581f4b5d456d978092d546243d55a7b3f8594fb9796a2646970667358221220d7536fc6b9c33ede6ebe98f77d47917129170dd78e7cc96ea985e3e78276ed2764736f6c634300081e0033",
  "devdoc": {
    "details": "Contains all read/view functions from v1, separate from write operations",
    "errors": {
      "OwnableInvalidOwner(address)": [
        {
          "details": "The owner is not a valid owner account. (eg. `address(0)`)"
        }
      ],
      "OwnableUnauthorizedAccount(address)": [
        {
          "details": "The caller account is not authorized to perform an operation."
        }
      ]
    },
    "kind": "dev",
    "methods": {
      "owner()": {
        "details": "Returns the address of the current owner."
      },
      "renounceOwnership()": {
        "details": "Leaves the contract without owner. It will not be possible to call `onlyOwner` functions. Can only be called by the current owner. NOTE: Renouncing ownership will leave the contract without an owner, thereby disabling any functionality that is only available to the owner."
      },
      "transferOwnership(address)": {
        "details": "Transfers ownership of the contract to a new account (`newOwner`). Can only be called by the current owner."
      }
    },
    "title": "CompoundGatewayView",
    "version": 1
  },
  "userdoc": {
    "kind": "user",
    "methods": {
      "allActiveBaseTokens()": {
        "notice": "Get all active base tokens (from allActiveComets)"
      },
      "allActiveComets()": {
        "notice": "Get all active Comets (union of local + write gateway registries)"
      },
      "allBaseTokens()": {
        "notice": "Get all base tokens for registered Comets"
      },
      "getComet(address)": {
        "notice": "Get Comet for base token, falling back to write gateway if not found locally"
      },
      "setWriteGateway(address)": {
        "notice": "Set the write gateway address for syncing Comet registry"
      },
      "syncAllCometsFromWriteGateway()": {
        "notice": "Sync all Comets from write gateway"
      },
      "syncCometFromWriteGateway(address)": {
        "notice": "Sync a Comet from the write gateway to this view gateway"
      }
    },
    "notice": "View-only gateway for Compound Comet protocol",
    "version": 1
  },
  "storageLayout": {
    "storage": [
      {
        "astId": 1578,
        "contract": "contracts/v2/gateways/compound/CompoundGatewayView.sol:CompoundGatewayView",
        "label": "_owner",
        "offset": 0,
        "slot": "0",
        "type": "t_address"
      },
      {
        "astId": 6603,
        "contract": "contracts/v2/gateways/compound/CompoundGatewayView.sol:CompoundGatewayView",
        "label": "tokenToComet",
        "offset": 0,
        "slot": "1",
        "type": "t_mapping(t_address,t_contract(ICompoundComet)10224)"
      },
      {
        "astId": 6608,
        "contract": "contracts/v2/gateways/compound/CompoundGatewayView.sol:CompoundGatewayView",
        "label": "overrideFeeds",
        "offset": 0,
        "slot": "2",
        "type": "t_mapping(t_address,t_contract(AggregatorV3Interface)1569)"
      },
      {
        "astId": 6611,
        "contract": "contracts/v2/gateways/compound/CompoundGatewayView.sol:CompoundGatewayView",
        "label": "_comets",
        "offset": 0,
        "slot": "3",
        "type": "t_array(t_address)dyn_storage"
      },
      {
        "astId": 6615,
        "contract": "contracts/v2/gateways/compound/CompoundGatewayView.sol:CompoundGatewayView",
        "label": "_isRegistered",
        "offset": 0,
        "slot": "4",
        "type": "t_mapping(t_address,t_bool)"
      },
      {
        "astId": 6617,
        "contract": "contracts/v2/gateways/compound/CompoundGatewayView.sol:CompoundGatewayView",
        "label": "writeGateway",
        "offset": 0,
        "slot": "5",
        "type": "t_address"
      }
    ],
    "types": {
      "t_address": {
        "encoding": "inplace",
        "label": "address",
        "numberOfBytes": "20"
      },
      "t_array(t_address)dyn_storage": {
        "base": "t_address",
        "encoding": "dynamic_array",
        "label": "address[]",
        "numberOfBytes": "32"
      },
      "t_bool": {
        "encoding": "inplace",
        "label": "bool",
        "numberOfBytes": "1"
      },
      "t_contract(AggregatorV3Interface)1569": {
        "encoding": "inplace",
        "label": "contract AggregatorV3Interface",
        "numberOfBytes": "20"
      },
      "t_contract(ICompoundComet)10224": {
        "encoding": "inplace",
        "label": "contract ICompoundComet",
        "numberOfBytes": "20"
      },
      "t_mapping(t_address,t_bool)": {
        "encoding": "mapping",
        "key": "t_address",
        "label": "mapping(address => bool)",
        "numberOfBytes": "32",
        "value": "t_bool"
      },
      "t_mapping(t_address,t_contract(AggregatorV3Interface)1569)": {
        "encoding": "mapping",
        "key": "t_address",
        "label": "mapping(address => contract AggregatorV3Interface)",
        "numberOfBytes": "32",
        "value": "t_contract(AggregatorV3Interface)1569"
      },
      "t_mapping(t_address,t_contract(ICompoundComet)10224)": {
        "encoding": "mapping",
        "key": "t_address",
        "label": "mapping(address => contract ICompoundComet)",
        "numberOfBytes": "32",
        "value": "t_contract(ICompoundComet)10224"
      }
    }
  }
}