{
  "address": "0x6E3fb10D348f157CF075e468DA5369A132dC05c5",
  "abi": [
    {
      "inputs": [
        {
          "internalType": "address",
          "name": "owner_",
          "type": "address"
        }
      ],
      "stateMutability": "nonpayable",
      "type": "constructor"
    },
    {
      "inputs": [
        {
          "internalType": "address",
          "name": "owner",
          "type": "address"
        }
      ],
      "name": "OwnableInvalidOwner",
      "type": "error"
    },
    {
      "inputs": [
        {
          "internalType": "address",
          "name": "account",
          "type": "address"
        }
      ],
      "name": "OwnableUnauthorizedAccount",
      "type": "error"
    },
    {
      "anonymous": false,
      "inputs": [
        {
          "indexed": true,
          "internalType": "address",
          "name": "baseToken",
          "type": "address"
        },
        {
          "indexed": true,
          "internalType": "address",
          "name": "comet",
          "type": "address"
        }
      ],
      "name": "CometRegistered",
      "type": "event"
    },
    {
      "anonymous": false,
      "inputs": [
        {
          "indexed": true,
          "internalType": "address",
          "name": "baseToken",
          "type": "address"
        },
        {
          "indexed": true,
          "internalType": "address",
          "name": "oldComet",
          "type": "address"
        },
        {
          "indexed": true,
          "internalType": "address",
          "name": "newComet",
          "type": "address"
        }
      ],
      "name": "CometReplaced",
      "type": "event"
    },
    {
      "anonymous": false,
      "inputs": [
        {
          "indexed": true,
          "internalType": "address",
          "name": "previousOwner",
          "type": "address"
        },
        {
          "indexed": true,
          "internalType": "address",
          "name": "newOwner",
          "type": "address"
        }
      ],
      "name": "OwnershipTransferred",
      "type": "event"
    },
    {
      "anonymous": false,
      "inputs": [
        {
          "indexed": true,
          "internalType": "address",
          "name": "oldGateway",
          "type": "address"
        },
        {
          "indexed": true,
          "internalType": "address",
          "name": "newGateway",
          "type": "address"
        }
      ],
      "name": "WriteGatewayUpdated",
      "type": "event"
    },
    {
      "inputs": [
        {
          "internalType": "contract ICompoundComet",
          "name": "comet",
          "type": "address"
        }
      ],
      "name": "addComet",
      "outputs": [],
      "stateMutability": "nonpayable",
      "type": "function"
    },
    {
      "inputs": [],
      "name": "allActiveBaseTokens",
      "outputs": [
        {
          "internalType": "address[]",
          "name": "bases",
          "type": "address[]"
        }
      ],
      "stateMutability": "view",
      "type": "function"
    },
    {
      "inputs": [],
      "name": "allActiveComets",
      "outputs": [
        {
          "internalType": "address[]",
          "name": "comets",
          "type": "address[]"
        }
      ],
      "stateMutability": "view",
      "type": "function"
    },
    {
      "inputs": [],
      "name": "allBaseTokens",
      "outputs": [
        {
          "internalType": "address[]",
          "name": "",
          "type": "address[]"
        }
      ],
      "stateMutability": "view",
      "type": "function"
    },
    {
      "inputs": [],
      "name": "allComets",
      "outputs": [
        {
          "internalType": "address[]",
          "name": "",
          "type": "address[]"
        }
      ],
      "stateMutability": "view",
      "type": "function"
    },
    {
      "inputs": [
        {
          "internalType": "address",
          "name": "token",
          "type": "address"
        },
        {
          "internalType": "address",
          "name": "user",
          "type": "address"
        }
      ],
      "name": "getBalance",
      "outputs": [
        {
          "internalType": "uint256",
          "name": "",
          "type": "uint256"
        }
      ],
      "stateMutability": "view",
      "type": "function"
    },
    {
      "inputs": [
        {
          "internalType": "contract ICompoundComet",
          "name": "comet",
          "type": "address"
        }
      ],
      "name": "getBaseToken",
      "outputs": [
        {
          "internalType": "address",
          "name": "",
          "type": "address"
        }
      ],
      "stateMutability": "view",
      "type": "function"
    },
    {
      "inputs": [
        {
          "internalType": "address",
          "name": "market",
          "type": "address"
        }
      ],
      "name": "getBaseTokenInfo",
      "outputs": [
        {
          "internalType": "address",
          "name": "baseToken",
          "type": "address"
        },
        {
          "internalType": "uint256",
          "name": "price",
          "type": "uint256"
        },
        {
          "internalType": "uint8",
          "name": "decimals",
          "type": "uint8"
        },
        {
          "internalType": "uint256",
          "name": "priceScale",
          "type": "uint256"
        }
      ],
      "stateMutability": "view",
      "type": "function"
    },
    {
      "inputs": [
        {
          "internalType": "address",
          "name": "token",
          "type": "address"
        },
        {
          "internalType": "address",
          "name": "user",
          "type": "address"
        }
      ],
      "name": "getBorrowBalance",
      "outputs": [
        {
          "internalType": "uint256",
          "name": "",
          "type": "uint256"
        }
      ],
      "stateMutability": "view",
      "type": "function"
    },
    {
      "inputs": [
        {
          "internalType": "address",
          "name": "token",
          "type": "address"
        },
        {
          "internalType": "address",
          "name": "user",
          "type": "address"
        }
      ],
      "name": "getBorrowBalanceCurrent",
      "outputs": [
        {
          "internalType": "uint256",
          "name": "",
          "type": "uint256"
        }
      ],
      "stateMutability": "view",
      "type": "function"
    },
    {
      "inputs": [
        {
          "internalType": "address",
          "name": "token",
          "type": "address"
        }
      ],
      "name": "getBorrowRate",
      "outputs": [
        {
          "internalType": "uint256",
          "name": "borrowRate",
          "type": "uint256"
        },
        {
          "internalType": "bool",
          "name": "success",
          "type": "bool"
        }
      ],
      "stateMutability": "view",
      "type": "function"
    },
    {
      "inputs": [
        {
          "internalType": "address",
          "name": "market",
          "type": "address"
        }
      ],
      "name": "getCollateralFactors",
      "outputs": [
        {
          "internalType": "address[]",
          "name": "assets",
          "type": "address[]"
        },
        {
          "internalType": "uint256[]",
          "name": "ltvBps",
          "type": "uint256[]"
        },
        {
          "internalType": "uint256[]",
          "name": "lltvBps",
          "type": "uint256[]"
        }
      ],
      "stateMutability": "view",
      "type": "function"
    },
    {
      "inputs": [
        {
          "internalType": "address",
          "name": "market",
          "type": "address"
        },
        {
          "internalType": "address",
          "name": "asset",
          "type": "address"
        }
      ],
      "name": "getCollateralPrice",
      "outputs": [
        {
          "internalType": "uint256",
          "name": "",
          "type": "uint256"
        }
      ],
      "stateMutability": "view",
      "type": "function"
    },
    {
      "inputs": [
        {
          "internalType": "address",
          "name": "baseToken",
          "type": "address"
        }
      ],
      "name": "getComet",
      "outputs": [
        {
          "internalType": "contract ICompoundComet",
          "name": "",
          "type": "address"
        }
      ],
      "stateMutability": "view",
      "type": "function"
    },
    {
      "inputs": [
        {
          "internalType": "address",
          "name": "token",
          "type": "address"
        },
        {
          "internalType": "address",
          "name": "account",
          "type": "address"
        }
      ],
      "name": "getCompoundData",
      "outputs": [
        {
          "internalType": "uint256",
          "name": "supplyRate",
          "type": "uint256"
        },
        {
          "internalType": "uint256",
          "name": "borrowRate",
          "type": "uint256"
        },
        {
          "internalType": "uint256",
          "name": "balance",
          "type": "uint256"
        },
        {
          "internalType": "uint256",
          "name": "borrowBalance",
          "type": "uint256"
        },
        {
          "internalType": "uint256",
          "name": "price",
          "type": "uint256"
        },
        {
          "internalType": "uint256",
          "name": "priceScale",
          "type": "uint256"
        }
      ],
      "stateMutability": "view",
      "type": "function"
    },
    {
      "inputs": [
        {
          "internalType": "address",
          "name": "token",
          "type": "address"
        },
        {
          "internalType": "address",
          "name": "user",
          "type": "address"
        }
      ],
      "name": "getCurrentLtvBps",
      "outputs": [
        {
          "internalType": "uint256",
          "name": "",
          "type": "uint256"
        }
      ],
      "stateMutability": "view",
      "type": "function"
    },
    {
      "inputs": [
        {
          "internalType": "address",
          "name": "token",
          "type": "address"
        },
        {
          "internalType": "address",
          "name": "account",
          "type": "address"
        }
      ],
      "name": "getDepositedCollaterals",
      "outputs": [
        {
          "internalType": "address[]",
          "name": "collaterals",
          "type": "address[]"
        },
        {
          "internalType": "uint128[]",
          "name": "balances",
          "type": "uint128[]"
        },
        {
          "internalType": "string[]",
          "name": "displayNames",
          "type": "string[]"
        }
      ],
      "stateMutability": "view",
      "type": "function"
    },
    {
      "inputs": [
        {
          "internalType": "address",
          "name": "token",
          "type": "address"
        },
        {
          "internalType": "address",
          "name": "user",
          "type": "address"
        }
      ],
      "name": "getLiquidationLtvBps",
      "outputs": [
        {
          "internalType": "uint256",
          "name": "",
          "type": "uint256"
        }
      ],
      "stateMutability": "view",
      "type": "function"
    },
    {
      "inputs": [
        {
          "internalType": "address",
          "name": "token",
          "type": "address"
        },
        {
          "internalType": "address",
          "name": "user",
          "type": "address"
        }
      ],
      "name": "getLtv",
      "outputs": [
        {
          "internalType": "uint256",
          "name": "",
          "type": "uint256"
        }
      ],
      "stateMutability": "view",
      "type": "function"
    },
    {
      "inputs": [
        {
          "internalType": "address",
          "name": "token",
          "type": "address"
        },
        {
          "internalType": "address",
          "name": "user",
          "type": "address"
        }
      ],
      "name": "getMaxLtv",
      "outputs": [
        {
          "internalType": "uint256",
          "name": "",
          "type": "uint256"
        }
      ],
      "stateMutability": "view",
      "type": "function"
    },
    {
      "inputs": [
        {
          "internalType": "address",
          "name": "token",
          "type": "address"
        },
        {
          "internalType": "address",
          "name": "user",
          "type": "address"
        }
      ],
      "name": "getPossibleCollaterals",
      "outputs": [
        {
          "internalType": "address[]",
          "name": "collateralAddresses",
          "type": "address[]"
        },
        {
          "internalType": "uint256[]",
          "name": "balances",
          "type": "uint256[]"
        },
        {
          "internalType": "string[]",
          "name": "symbols",
          "type": "string[]"
        },
        {
          "internalType": "uint8[]",
          "name": "decimals",
          "type": "uint8[]"
        }
      ],
      "stateMutability": "view",
      "type": "function"
    },
    {
      "inputs": [
        {
          "internalType": "address",
          "name": "token",
          "type": "address"
        }
      ],
      "name": "getPrice",
      "outputs": [
        {
          "internalType": "uint256",
          "name": "",
          "type": "uint256"
        }
      ],
      "stateMutability": "view",
      "type": "function"
    },
    {
      "inputs": [
        {
          "internalType": "address",
          "name": "market",
          "type": "address"
        },
        {
          "internalType": "address[]",
          "name": "tokens",
          "type": "address[]"
        }
      ],
      "name": "getPrices",
      "outputs": [
        {
          "internalType": "uint256[]",
          "name": "",
          "type": "uint256[]"
        }
      ],
      "stateMutability": "view",
      "type": "function"
    },
    {
      "inputs": [
        {
          "internalType": "address",
          "name": "market",
          "type": "address"
        }
      ],
      "name": "getReserveConfigs",
      "outputs": [
        {
          "components": [
            {
              "internalType": "address",
              "name": "token",
              "type": "address"
            },
            {
              "internalType": "uint256",
              "name": "price",
              "type": "uint256"
            },
            {
              "internalType": "uint256",
              "name": "ltv",
              "type": "uint256"
            },
            {
              "internalType": "uint256",
              "name": "liquidationThreshold",
              "type": "uint256"
            },
            {
              "internalType": "uint8",
              "name": "decimals",
              "type": "uint8"
            },
            {
              "internalType": "uint64",
              "name": "scale",
              "type": "uint64"
            }
          ],
          "internalType": "struct CompoundGatewayView.ReserveConfigData[]",
          "name": "configs",
          "type": "tuple[]"
        }
      ],
      "stateMutability": "view",
      "type": "function"
    },
    {
      "inputs": [
        {
          "internalType": "address",
          "name": "token",
          "type": "address"
        }
      ],
      "name": "getSupplyRate",
      "outputs": [
        {
          "internalType": "uint256",
          "name": "supplyRate",
          "type": "uint256"
        },
        {
          "internalType": "bool",
          "name": "success",
          "type": "bool"
        }
      ],
      "stateMutability": "view",
      "type": "function"
    },
    {
      "inputs": [
        {
          "internalType": "address",
          "name": "market",
          "type": "address"
        }
      ],
      "name": "getSupportedCollaterals",
      "outputs": [
        {
          "internalType": "address[]",
          "name": "collateralAddresses",
          "type": "address[]"
        }
      ],
      "stateMutability": "view",
      "type": "function"
    },
    {
      "inputs": [
        {
          "internalType": "address",
          "name": "market",
          "type": "address"
        },
        {
          "internalType": "address",
          "name": "collateral",
          "type": "address"
        }
      ],
      "name": "isCollateralSupported",
      "outputs": [
        {
          "internalType": "bool",
          "name": "isSupported",
          "type": "bool"
        }
      ],
      "stateMutability": "view",
      "type": "function"
    },
    {
      "inputs": [
        {
          "internalType": "address",
          "name": "token",
          "type": "address"
        },
        {
          "internalType": "contract AggregatorV3Interface",
          "name": "feed",
          "type": "address"
        }
      ],
      "name": "overrideFeed",
      "outputs": [],
      "stateMutability": "nonpayable",
      "type": "function"
    },
    {
      "inputs": [
        {
          "internalType": "address",
          "name": "",
          "type": "address"
        }
      ],
      "name": "overrideFeeds",
      "outputs": [
        {
          "internalType": "contract AggregatorV3Interface",
          "name": "",
          "type": "address"
        }
      ],
      "stateMutability": "view",
      "type": "function"
    },
    {
      "inputs": [],
      "name": "owner",
      "outputs": [
        {
          "internalType": "address",
          "name": "",
          "type": "address"
        }
      ],
      "stateMutability": "view",
      "type": "function"
    },
    {
      "inputs": [],
      "name": "renounceOwnership",
      "outputs": [],
      "stateMutability": "nonpayable",
      "type": "function"
    },
    {
      "inputs": [
        {
          "internalType": "address",
          "name": "baseToken",
          "type": "address"
        },
        {
          "internalType": "address",
          "name": "comet_",
          "type": "address"
        }
      ],
      "name": "setCometForBase",
      "outputs": [],
      "stateMutability": "nonpayable",
      "type": "function"
    },
    {
      "inputs": [
        {
          "internalType": "address",
          "name": "writeGateway_",
          "type": "address"
        }
      ],
      "name": "setWriteGateway",
      "outputs": [],
      "stateMutability": "nonpayable",
      "type": "function"
    },
    {
      "inputs": [],
      "name": "syncAllCometsFromWriteGateway",
      "outputs": [],
      "stateMutability": "nonpayable",
      "type": "function"
    },
    {
      "inputs": [
        {
          "internalType": "address",
          "name": "baseToken",
          "type": "address"
        }
      ],
      "name": "syncCometFromWriteGateway",
      "outputs": [],
      "stateMutability": "nonpayable",
      "type": "function"
    },
    {
      "inputs": [
        {
          "internalType": "address",
          "name": "",
          "type": "address"
        }
      ],
      "name": "tokenToComet",
      "outputs": [
        {
          "internalType": "contract ICompoundComet",
          "name": "",
          "type": "address"
        }
      ],
      "stateMutability": "view",
      "type": "function"
    },
    {
      "inputs": [
        {
          "internalType": "address",
          "name": "newOwner",
          "type": "address"
        }
      ],
      "name": "transferOwnership",
      "outputs": [],
      "stateMutability": "nonpayable",
      "type": "function"
    },
    {
      "inputs": [],
      "name": "writeGateway",
      "outputs": [
        {
          "internalType": "address",
          "name": "",
          "type": "address"
        }
      ],
      "stateMutability": "view",
      "type": "function"
    }
  ],
  "transactionHash": "0x8b128d6eca0eb74b4d02b9478c300deea2e337a3e0780949e4672c4e65ecef14",
  "args": [
    "0x0BE61223F99E57b8b8B7033a77B54Adc7f7cF027"
  ],
  "numDeployments": 35,
  "solcInputHash": "0fea5cc4d237037126c3fb60329d2945",
  "bytecode": "0x60803460b857601f61356338819003918201601f19168301916001600160401b0383118484101760bc5780849260209460405283398101031260b857516001600160a01b0381169081900360b857801560a5575f80546001600160a01b031981168317825560405192916001600160a01b03909116907f8be0079c531659141344cd1fd0a4f28419497f9722a3daafe3b4186f6b6457e09080a361349290816100d18239f35b631e4fbdf760e01b5f525f60045260245ffd5b5f80fd5b634e487b7160e01b5f52604160045260245ffdfe60806040526004361015610011575f80fd5b5f3560e01c80630c10fd0f1461026a5780630d1fe08814610265578063104e999d14610260578063118e31b7146101d957806324bddcfd1461025b57806326e46ed3146102565780632a8e3a49146102515780633613d5271461024c5780633b9025c51461024757806341976e09146102425780636072aa071461023d57806362fd6add1461020b57806366e2d09b1461023857806369e65e49146102335780636b5441a91461022e578063715018a614610229578063755f62ce14610224578063784661131461021f5780638ca286351461021a5780638da5cb5b1461021557806391aa9c6f14610210578063951afe901461020b5780639f2204e814610206578063b4bae5e114610201578063b65b4e18146101fc578063be305bf8146101f7578063c9475cd7146101f2578063cc2255aa146101ed578063d4fac45d146101e8578063d5316477146101e3578063d71275f6146101de578063e94201c7146101d9578063e9db3c9f146101d4578063ef36fa93146101cf578063f2dbd070146101ca578063f2f1be1e146101c5578063f2fde38b146101c05763f5125d3f146101bb575f80fd5b611d58565b611ce2565b611c9f565b611c86565b611b23565b61188a565b6106b2565b6117be565b611731565b6116ad565b61159a565b6114e2565b6114c7565b61125b565b611046565b610f44565b610a77565b610d8e565b610d67565b610cfa565b610cd7565b610cbc565b610c78565b610b57565b610add565b610aa1565b610a3d565b610a16565b6109f5565b61097d565b610824565b6107e0565b610743565b6104da565b610336565b6102a3565b6001600160a01b031690565b6001600160a01b0381160361028c57565b5f80fd5b6001600160a01b03909116815260200190565b3461028c57602036600319011261028c576004602081356102c38161027b565b60405163c55dae6360e01b815292839182906001600160a01b03165afa8015610331576102fe915f91610302575b5060405191829182610290565b0390f35b610324915060203d60201161032a575b61031c8183611da6565b810190611dd6565b5f6102f1565b503d610312565b611deb565b3461028c575f36600319011261028c576005546040516001600160a01b039091168152602090f35b604090600319011261028c576004356103768161027b565b906024356103838161027b565b90565b90602080835192838152019201905f5b8181106103a35750505090565b82516001600160a01b0316845260209384019390920191600101610396565b90602080835192838152019201905f5b8181106103df5750505090565b82518452602093840193909201916001016103d2565b9080602083519182815201916020808360051b8301019401925f915b83831061042057505050505090565b909192939460208080600193601f19868203018752818a518051918291828552018484015e5f828201840152601f01601f191601019701959491909101920190610411565b929061049c9261048061048e92608087526080870190610386565b9085820360208701526103c2565b9083820360408501526103f5565b906060818303910152602080835192838152019201905f5b8181106104c15750505090565b825160ff168452602093840193909201916001016104b4565b3461028c576104f16104eb3661035e565b90612a37565b905f915f5b82518110156105495761052861051c61050f8386611e0a565b516001600160801b031690565b6001600160801b031690565b610535575b6001016104f6565b92610541600191611e37565b93905061052d565b509261055483611e8b565b9261055e81611e8b565b9461057161056b83611ebd565b92611e8b565b955f945f5b81518110156106a15761058f61051c61050f8385611e0a565b61059c575b600101610576565b956105c96105ba6105ad8989611e0a565b516001600160a01b031690565b6105c4838b611e0a565b611f06565b6105d961051c61050f8985611e0a565b6105e38285611e0a565b526105ee8785611e0a565b516105f98287611e0a565b526106048186611e0a565b506004602061062161061c61061c6105ad8c8c611e0a565b61026f565b60405163313ce56760e01b815292839182905afa918215610331576106628b60019483610667955f9261066f575b5061065a9192611e0a565b9060ff169052565b611e37565b969050610594565b61065a92506106949060203d811161069a575b61068c8183611da6565b810190611f23565b9161064f565b503d610682565b604051806102fe8b88878d85610465565b3461028c5760206106c23661035e565b91906001600160a01b03906106d69061246f565b604051630dd3126d60e21b81526001600160a01b03909416600485015283916024918391165afa8015610331576020915f91610716575b50604051908152f35b6107369150823d841161073c575b61072e8183611da6565b810190611f37565b5f61070d565b503d610724565b3461028c57604036600319011261028c576107936004356107638161027b565b602435906107708261027b565b6107786131c4565b6001600160a01b03165f908152600260205260409020611f46565b005b6001600160a01b03165f90815260016020526040902090565b6001600160a01b03165f90815260046020526040902090565b6001600160a01b03165f90815260026020526040902090565b3461028c57602036600319011261028c576004356107fd8161027b565b6001600160a01b039081165f90815260016020908152604091829020549151919092168152f35b3461028c57602036600319011261028c576004356108418161027b565b6108496131c4565b60405163c55dae6360e01b81526001600160a01b0382169190602081600481865afa908115610331575f9161094d575b506001600160a01b038116916108be90610894841515611f65565b6108b96108b361061c6108a686610795565b546001600160a01b031690565b93610795565b611f46565b6108d86108d46108cd856107ae565b5460ff1690565b1590565b610926575b82825f5160206133fd5f395f51905f525f80a36001600160a01b0316908115158061091c575b61090957005b5f51602061341d5f395f51905f525f80a4005b5082821415610903565b61093f610932846107ae565b805460ff19166001179055565b61094883611fbc565b6108dd565b610966915060203d60201161032a5761031c8183611da6565b5f610879565b9060206103839281815201906103c2565b3461028c57604036600319011261028c5760043561099a8161027b565b6024356001600160401b03811161028c573660238201121561028c5760048101356001600160401b03811161028c573660248260051b8401011161028c576102fe9260246109e9930190612021565b6040519182918261096c565b3461028c576020610a0e610a083661035e565b906120ef565b604051908152f35b3461028c57602036600319011261028c576020610a0e600435610a388161027b565b612323565b3461028c57602036600319011261028c57610a62600435610a5d8161027b565b61246f565b6040516001600160a01b039091168152602090f35b3461028c576020610a0e610a8a3661035e565b90612559565b906020610383928181520190610386565b3461028c57602036600319011261028c576102fe610ac9600435610ac48161027b565b61284a565b604051918291602083526020830190610386565b3461028c57610aee6104eb3661035e565b610b0660409392935192606084526060840190610386565b8281036020840152602080855192838152019401905f5b818110610b385784806102fe888783820360408501526103f5565b82516001600160801b0316865260209586019590920191600101610b1d565b3461028c57602036600319011261028c57600435610b748161027b565b6001600160a01b038082165f9081526001602052604081205490928392909116610bab575b50604080519182529115156020820152f35b610bba925061061c915061246f565b604051637eb7113160e01b8152602081600481855afa801561033157610c05926020925f92610c59575b50604051808095819463d955759d60e01b8352600483019190602083019252565b03915afa908115610331575f91610c2a575b506001906001600160401b03165f610b99565b610c4c915060203d602011610c52575b610c448183611da6565b810190612c3c565b5f610c17565b503d610c3a565b610c71919250833d851161073c5761072e8183611da6565b905f610be4565b3461028c575f36600319011261028c57610c906131c4565b5f80546001600160a01b0319811682556001600160a01b03165f51602061343d5f395f51905f528280a3005b3461028c575f36600319011261028c576102fe610ac9612c50565b3461028c576020610cf0610cea3661035e565b90612ca1565b6040519015158152f35b3461028c57602036600319011261028c57600435610d178161027b565b610d1f6131c4565b600580546001600160a01b039283166001600160a01b0319821681179092559091167f864aa5b65d00254be4a57e93185f66797e0b72b1d648eb9a569ea297fbd259375f80a3005b3461028c575f36600319011261028c575f546040516001600160a01b039091168152602090f35b3461028c575f36600319011261028c57610da66131c4565b60045f610dce61061c610dba60055461026f565b61061c6001600160a01b0382161515612dc7565b604051633aafb16760e11b815292839182905afa908115610331575f91610f22575b505f5b815181101561079357610e0c61061c6105ad8385611e0a565b60405163c55dae6360e01b815291906001600160a01b03811690602084600481855afa8015610331576001945f91610f04575b5082858060a01b03610e5661061c6108a685610795565b1603610e66575b50505001610df3565b610e82610e7861061c6108a684610795565b926108b983610795565b610e916108d46108cd856107ae565b610eea575b848060a01b03169082825f5160206133fd5f395f51905f525f80a3848060a01b03169081151580610ee0575b15610e5d575f51602061341d5f395f51905f525f80a45f8080610e5d565b5082821415610ec2565b610ef6610932846107ae565b610eff83611fbc565b610e96565b610f1c915060203d811161032a5761031c8183611da6565b5f610e3f565b610f3e91503d805f833e610f368183611da6565b810190612e13565b5f610df0565b3461028c576108b9610f553661035e565b90610f5e6131c4565b6001600160a01b0381169182151580610ffd575b610f7b90612e96565b610fa2610f8d61061c6108a685610795565b6001600160a01b038316959093869190610795565b610fb16108d46108cd836107ae565b610fe2575b5082825f5160206133fd5f395f51905f525f80a36001600160a01b0316908115158061091c5761090957005b80610ff2610932610ff7936107ae565b611fbc565b5f610fb6565b506001600160a01b0381161515610f72565b916110389061102a6103839593606086526060860190610386565b9084820360208601526103c2565b9160408184039101526103c2565b3461028c57602036600319011261028c5761106961061c600435610a5d8161027b565b60405163a46fe83b60e01b8152602081600481855afa80156103315760ff915f916111ab575b501661109a81611e8b565b906110a481611e8b565b916110ae82611e8b565b905f5b60ff8116908482101561119b5760405163c8c7fe6b60e01b815260ff8216600482015290610100826024818b5afa9283156103315761116261115b61114561114061113b60a060ff998e60019a5f9261116a575b506111218d6105c48b61111b602087015161026f565b92611e0a565b6111538961111b61114561114061113b60808801516111ca565b6111ca565b6120a6565b670de0b6b3a7640000900490565b5201516111ca565b9187611e0a565b5201166110b1565b61118d9192506101003d8111611194575b6111858183611da6565b8101906127ad565b905f611105565b503d61117b565b604051806102fe8689878461100f565b6111c4915060203d60201161069a5761068c8183611da6565b5f61108f565b6001600160401b031690565b60206040818301928281528451809452019201905f5b8181106111f95750505090565b825180516001600160a01b0316855260208181015181870152604080830151908701526060808301519087015260808083015160ff169087015260a0918201516001600160401b03169186019190915260c090940193909201916001016111ec565b3461028c57602036600319011261028c5761127e61061c600435610a5d8161027b565b60405163a46fe83b60e01b8152602081600481855afa80156103315760ff915f916114a8575b50166112af81612ed3565b5f5b60ff8116908382101561149a5760405163c8c7fe6b60e01b815260ff821660048201529061010082602481895afa918215610331575f92611477575b5081926020611302604061131c95015161026f565b604051809581926341976e0960e01b835260048301610290565b03818a5afa9081156103315760ff94611406611417936001965f91611449575b506113f66012602085016004602061135a61061c61061c855161026f565b60405163313ce56760e01b815292839182905afa5f9181611429575b5061141f575b50611387905161026f565b9461139e61114561114061113b60808501516111ca565b6113c160606113b961114561114061113b60a08801516111ca565b9301516111ca565b946113d46113cd611e4a565b9889611f06565b8b8060801b0316602088015260408701526060860152608085019060ff169052565b6001600160401b031660a0830152565b6114108288611e0a565b5285611e0a565b5001166112b1565b915061138761137c565b61144291925060203d811161069a5761068c8183611da6565b905f611376565b61146a915060203d8111611470575b6114628183611da6565b810190612081565b5f61133c565b503d611458565b61131c9250611494906101003d8111611194576111858183611da6565b916112ed565b604051806102fe85826111d6565b6114c1915060203d60201161069a5761068c8183611da6565b5f6112a4565b3461028c575f36600319011261028c576102fe610ac9612f64565b3461028c575f36600319011261028c576003546114fe81611e8b565b905f5b81811061151657604051806102fe8582610a90565b80602061154261061c61061c61152d600496611fa4565b905460039190911b1c6001600160a01b031690565b60405163c55dae6360e01b815293849182905afa91821561033157600192611576915f9161157c575b506105c48387611e0a565b01611501565b611594915060203d811161032a5761031c8183611da6565b5f61156b565b3461028c57602036600319011261028c576004356115b78161027b565b6115bf6131c4565b6115d061061c610dba60055461026f565b602060405180926326e46ed360e01b825281806115f08760048301610290565b03915afa908115610331575f9161168e575b506001600160a01b038116916116198315156130c6565b61162b610e7861061c6108a684610795565b61163a6108d46108cd856107ae565b611674575b6001600160a01b03169082825f5160206133fd5f395f51905f525f80a36001600160a01b0316908115158061091c5761090957005b611680610932846107ae565b61168983611fbc565b61163f565b6116a7915060203d60201161032a5761031c8183611da6565b5f611602565b3461028c5760206116bd3661035e565b91906001600160a01b03906116d19061246f565b6040516370a0823160e01b81526001600160a01b03909416600485015283916024918391165afa908115610331575f91611712575b50604051908152602090f35b61172b915060203d60201161073c5761072e8183611da6565b5f611706565b3461028c575f36600319011261028c57611749612f64565b6117538151611e8b565b905f5b81518110156117b05780602061177761061c61061c6105ad60049688611e0a565b60405163c55dae6360e01b815293849182905afa918215610331576001926117aa915f9161157c57506105c48387611e0a565b01611756565b604051806102fe8582610a90565b3461028c57602036600319011261028c576004356117db8161027b565b6001600160a01b038082165f90815260016020526040812054909283929091166118115750604080519182529115156020820152f35b611820925061061c915061246f565b604051637eb7113160e01b8152602081600481855afa801561033157610c05926020925f9261186b575b506040518080958194634fd41dad60e11b8352600483019190602083019252565b611883919250833d851161073c5761072e8183611da6565b905f61184a565b3461028c576118983661035e565b6118a461061c8361246f565b604051637eb7113160e01b81529290602084600481845afa938415610331576118f1946020915f91611b06575b506040518096819263d955759d60e01b8352600483019190602083019252565b0381845afa938415610331575f94611ae5575b50604051637eb7113160e01b815290602082600481845afa91821561033157611951926020915f91611ac8575b5060405180948192634fd41dad60e11b8352600483019190602083019252565b0381845afa918215610331575f92611aa7575b506040516370a0823160e01b815292602084806119848860048301610290565b0381855afa938415610331575f94611a83575b5060206119b9949560405180968192630dd3126d60e21b835260048301610290565b0381855afa908115610331576004945f92611a5d575b506119db602091612323565b926040519586809263a0fbddaf60e01b82525afa938415610331575f94611a3a575b50604080516001600160401b03978816815293871660208501528301949094526060820193909352608081019290925290911660a082015260c090f35b6102fe9450611a579060203d602011610c5257610c448183611da6565b936119fd565b6020919250611a7b6119db91833d851161073c5761072e8183611da6565b9291506119cf565b6119b99450611aa0602091823d841161073c5761072e8183611da6565b9450611997565b611ac191925060203d602011610c5257610c448183611da6565b905f611964565b611adf9150823d841161073c5761072e8183611da6565b5f611931565b611aff91945060203d602011610c5257610c448183611da6565b925f611904565b611b1d9150823d841161073c5761072e8183611da6565b5f6118d1565b3461028c57602036600319011261028c57600435611b408161027b565b611b4c61061c8261246f565b60405163c55dae6360e01b81529091602082600481865afa908115610331576004925f92611c60575b50611b81602091612323565b936040519384809263a0fbddaf60e01b82525afa918215610331575f92611c3b575b5060405163313ce56760e01b81526102fe91906020816004816001600160a01b0386165afa5f9181611c1a575b50611c15575060125b604080516001600160a01b039093168352602083019590955260ff16938101939093526001600160401b03909116606083015281906080820190565b611bd9565b611c3491925060203d60201161069a5761068c8183611da6565b905f611bd0565b6102fe919250611c599060203d602011610c5257610c448183611da6565b9190611ba3565b6020919250611c7e611b8191833d851161032a5761031c8183611da6565b929150611b75565b3461028c576020610a0e611c993661035e565b9061311e565b3461028c57602036600319011261028c57600435611cbc8161027b565b60018060a01b03165f526002602052602060018060a01b0360405f205416604051908152f35b3461028c57602036600319011261028c57600435611cff8161027b565b611d076131c4565b6001600160a01b03168015611d45575f80546001600160a01b03198116831782556001600160a01b0316905f51602061343d5f395f51905f529080a3005b631e4fbdf760e01b5f525f60045260245ffd5b3461028c576020610a0e611d6b3661035e565b9061318d565b634e487b7160e01b5f52604160045260245ffd5b61010081019081106001600160401b03821117611da157604052565b611d71565b601f909101601f19168101906001600160401b03821190821017611da157604052565b5190611dd48261027b565b565b9081602091031261028c57516103838161027b565b6040513d5f823e3d90fd5b634e487b7160e01b5f52603260045260245ffd5b8051821015611e1e5760209160051b010190565b611df6565b634e487b7160e01b5f52601160045260245ffd5b5f198114611e455760010190565b611e23565b60405190611dd460c083611da6565b6001600160401b038111611da15760051b60200190565b60405190611e7f602083611da6565b5f808352366020840137565b90611e9582611e59565b611ea26040519182611da6565b8281528092611eb3601f1991611e59565b0190602036910137565b90611ec782611e59565b611ed46040519182611da6565b8281528092611ee5601f1991611e59565b01905f5b828110611ef557505050565b806060602080938501015201611ee9565b6001600160a01b039091169052565b519060ff8216820361028c57565b9081602091031261028c5761038390611f15565b9081602091031261028c575190565b80546001600160a01b0319166001600160a01b03909216919091179055565b15611f6c57565b60405162461bcd60e51b815260206004820152601060248201526f0436f6d706f756e643a20626173653d360841b6044820152606490fd5b600354811015611e1e5760035f5260205f2001905f90565b600354600160401b811015611da15760018101600355600354811015611e1e5760035f527fc2575a0e9e593c00f959f8c92f12db2869c3395a3b0502d05e2516446f71f85b0180546001600160a01b0319166001600160a01b03909216919091179055565b929061202c83611e8b565b915f5b84811015612064576001906120538160051b85013561204d8161027b565b8861311e565b61205d8287611e0a565b520161202f565b50935050905090565b51906001600160801b038216820361028c57565b9081602091031261028c576103839061206d565b60ff16604d8111611e4557600a0a90565b906127108202918083046127101490151715611e4557565b81810292918115918404141715611e4557565b81156120db570490565b634e487b7160e01b5f52601260045260245ffd5b6120f89061246f565b604051630dd3126d60e21b81526001600160a01b03821692909190602083806121248460048301610290565b0381875afa928315610331575f936122bc575b5082156122b457612147916131ea565b509081156122ad5760405163c55dae6360e01b8152602081600481875afa908115610331575f9161228e575b5060405163e7dad6bd60e01b8152602081600481885afa8015610331576121ba956020925f9261226f575b5060405180809881946341976e0960e01b835260048301610290565b03915afa938415610331575f9461224a575b5060405163313ce56760e01b815290602090829060049082906001600160a01b03165afa938415610331576122266122269361221661038397611140955f9161222b575b50612095565b926001600160801b0316906120be565b6120d1565b612244915060203d60201161069a5761068c8183611da6565b5f612210565b6004919450612267602091823d8411611470576114628183611da6565b9491506121cc565b612287919250833d851161032a5761031c8183611da6565b905f61219e565b6122a7915060203d60201161032a5761031c8183611da6565b5f612173565b5050505f90565b505050505f90565b6122d691935060203d60201161073c5761072e8183611da6565b915f612137565b51906001600160501b038216820361028c57565b908160a091031261028c57612305816122dd565b916020820151916040810151916103836080606084015193016122dd565b6001600160a01b0361233a61061c6108a6846107c7565b166124065761061c61234b9161246f565b60405163e7dad6bd60e01b815290602082600481845afa918215610331575f926123e5575b506001600160a01b0382166123855750505f90565b6123a79160209160405180809581946341976e0960e01b835260048301610290565b03915afa908115610331575f916123c6575b506001600160801b031690565b6123df915060203d602011611470576114628183611da6565b5f6123b9565b6123ff91925060203d60201161032a5761031c8183611da6565b905f612370565b60a061241961061c6108a66004946107c7565b604051633fabe5a360e21b815292839182905afa908115610331575f9161243e575090565b612460915060a03d60a011612468575b6124588183611da6565b8101906122f1565b505050905090565b503d61244e565b61247b6108a682610795565b6001600160a01b038116612554575061249861061c60055461026f565b806124df575b60405162461bcd60e51b815260206004820152601960248201527810dbdb5c1bdd5b990e8818dbdb595d081b9bdd08199bdd5b99603a1b6044820152606490fd5b612509916124ee60209261026f565b60405180809581946326e46ed360e01b835260048301610290565b03915afa5f9181612533575b50612521575b8061249e565b6001600160a01b0381161561251b5790565b61254d91925060203d60201161032a5761031c8183611da6565b905f612515565b905090565b6125629061246f565b60405163a46fe83b60e01b81525f9283926001600160a01b03169190602082600481865afa918215610331575f92612778575b5091905f925b60ff821660ff8516106125d6575050505080156125d0576127108202918083046127101490151715611e4557610383916120d1565b50505f90565b909192946040519463c8c7fe6b60e01b865261010086806126028a6004830160ff909116815260200190565b0381885afa958615610331575f96612757575b506126426040612628602089015161026f565b815180938192632b92a07d60e01b835288600484016129ac565b0381895afa908115610331575f91612728575b506001600160801b03168015612719579061267991602061130260408a015161026f565b03818a5afa938415610331576126e76111456001946126e161113b60a06126d98f6126d2906126cc61113b60ff9f60ff9f6126ed9e6060926113b9925f916126fb575b506001600160801b0316906120be565b906120d1565b8095612f57565b9e01516111ca565b906120be565b90612f57565b975b0116939291905061259b565b612713915060203d8111611470576114628183611da6565b5f6126bc565b5094509460ff600181926126ef565b612749915060403d8111612750575b6127418183611da6565b81019061298b565b505f612655565b503d612737565b6127719196506101003d8111611194576111858183611da6565b945f612615565b61279291925060203d60201161069a5761068c8183611da6565b905f612595565b51906001600160401b038216820361028c57565b908161010091031261028c5761284260e0604051926127cb84611d85565b6127d481611f15565b84526127e260208201611dc9565b60208501526127f360408201611dc9565b604085015261280460608201612799565b606085015261281560808201612799565b608085015261282660a08201612799565b60a085015261283760c08201612799565b60c08501520161206d565b60e082015290565b602061286a9160405180938192636072aa0760e01b835260048301610290565b0381305afa5f918161296a575b506128855750610383611e70565b60405163a46fe83b60e01b81526001600160a01b03919091169190602081600481865afa80156103315760ff915f9161294b575b5016906128c582611e8b565b5f5b60ff811690848210156129425760405163c8c7fe6b60e01b815260ff8216600482015290610100826024818a5afa80156103315760ff936105c461115b602061291c946001975f91612923575b50015161026f565b01166128c7565b61293c91506101003d8111611194576111858183611da6565b5f612914565b50509150915090565b612964915060203d60201161069a5761068c8183611da6565b5f6128b9565b61298491925060203d60201161032a5761031c8183611da6565b905f612877565b919082604091031261028c5761038360206129a58461206d565b930161206d565b6001600160a01b0391821681529116602082015260400190565b60208183031261028c578051906001600160401b03821161028c570181601f8201121561028c578051906001600160401b038211611da15760405192612a16601f8401601f191660200185611da6565b8284526020838301011161028c57815f9260208093018386015e8301015290565b61061c612a469193929361246f565b9060405163a46fe83b60e01b8152602081600481865afa80156103315760ff915f91612c1d575b501690612a7982611e8b565b93612a8383611ebd565b92612a8d81611e8b565b945f90815b8360ff841610612aa3575050505050565b60405163c8c7fe6b60e01b815260ff8416600482015261010081602481865afa90811561033157612b00916020915f91612bfe575b50016040612ae6825161026f565b815180948192632b92a07d60e01b83528b600484016129ac565b0381875afa918215610331578b905f93612bc6575b50612b3b61061c61061c84612b355f956105c48a61111b60049a5161026f565b5161026f565b6040516395d89b4160e01b815292839182905afa92831561033157610662600193612b8c838e612b868f839060ff9b612b9b9a5f91612ba4575b50612b808383611e0a565b52611e0a565b50611e0a565b6001600160801b039091169052565b93011691612a92565b612bc091503d805f833e612bb88183611da6565b8101906129c6565b5f612b75565b5f91935061061c61061c600494612b35612bf0612b3b9560403d8111612750576127418183611da6565b509795505094505050612b15565b612c1791506101003d8111611194576111858183611da6565b5f612ad8565b612c36915060203d60201161069a5761068c8183611da6565b5f612a6d565b9081602091031261028c5761038390612799565b60405190600354808352826020810160035f5260205f20925f5b818110612c7f575050611dd492500383611da6565b84546001600160a01b0316835260019485019487945060209093019201612c6a565b6020612cc49193929360405180938192636072aa0760e01b835260048301610290565b0381305afa5f9181612da6575b50612cdc57505f9150565b60405163a46fe83b60e01b815292906001600160a01b0316602084600481845afa938415610331575f94612d85575b505f5b60ff851660ff821610612d2357505f93505050565b60405163c8c7fe6b60e01b815260ff8216600482015261010081602481865afa90811561033157612d5f916020915f916129235750015161026f565b6001600160a01b03848116911614612d7c5760010160ff16612d0e565b50600193505050565b612d9f91945060203d60201161069a5761068c8183611da6565b925f612d0b565b612dc091925060203d60201161032a5761031c8183611da6565b905f612cd1565b15612dce57565b60405162461bcd60e51b815260206004820152601f60248201527f436f6d706f756e643a2077726974652067617465776179206e6f7420736574006044820152606490fd5b60208183031261028c578051906001600160401b03821161028c57019080601f8301121561028c578151612e4681611e59565b92612e546040519485611da6565b81845260208085019260051b82010192831161028c57602001905b828210612e7c5750505090565b602080918351612e8b8161027b565b815201910190612e6f565b15612e9d57565b60405162461bcd60e51b815260206004820152600e60248201526d436f6d706f756e643a207a65726f60901b6044820152606490fd5b90612edd82611e59565b612eea6040519182611da6565b8281528092612efb601f1991611e59565b015f5b818110612f0a57505050565b60405160c0810191906001600160401b03831181841017611da1576020926040525f81525f838201525f60408201525f60608201525f60808201525f60a082015282828601015201612efe565b91908201809211611e4557565b612f6c612c50565b90612f7860055461026f565b6001600160a01b0381166130745750612f8f611e70565b905b612fa6612fa18451845190612f57565b611e8b565b925f915f5b8251811015612fe05780612fda612fc76105ad60019487611e0a565b6105c4612fd388611e37565b978a611e0a565b01612fab565b509290505f5b815181101561306e57612ffc6105ad8284611e0a565b5f6001600160a01b038216815b868110613042575b5050906001929115613025575b5001612fe6565b61303c906105c461303587611e37565b9689611e0a565b5f61301e565b8161305361061c6105ad848d611e0a565b1461306057600101613009565b50600191508190505f613011565b50508252565b5f61308361061c60049361026f565b604051633aafb16760e11b815292839182905afa908115610331575f916130ac575b5090612f91565b6130c091503d805f833e610f368183611da6565b5f6130a5565b156130cd57565b60405162461bcd60e51b8152602060048201526024808201527f436f6d706f756e643a20636f6d6574206e6f7420696e207772697465206761746044820152636577617960e01b6064820152608490fd5b61010061313061061c61314b9361246f565b9260405180938192631d9df61760e11b835260048301610290565b0381855afa9182156103315761317160406123a7946020945f916129235750015161026f565b9060405180809581946341976e0960e01b835260048301610290565b9061319a61319f9261246f565b6131ea565b9080156125d0576127108202918083046127101490151715611e4557610383916120d1565b5f546001600160a01b031633036131d757565b63118cdaa760e01b5f523360045260245ffd5b60405163a46fe83b60e01b81525f93849390926001600160a01b03169190602082600481865afa918215610331575f926133db575b5091905f925b60ff821660ff8516106132385750505050565b60405163c8c7fe6b60e01b815260ff8516600482015296939592939192909161010088602481885afa978815610331575f986133ba575b50613282604061262860208b015161026f565b0381895afa908115610331575f9161339b575b506001600160801b0316801561338c576132d160206132b760408c015161026f565b604051809381926341976e0960e01b835260048301610290565b03818a5afa908115610331575f9161336e575b506132fb916001600160801b0391909116906120be565b6060890151613309906111ca565b613312906111ca565b61331b916120d1565b908161332691612f57565b9760800151613334906111ca565b61333d906111ca565b613346916120be565b670de0b6b3a7640000900461335a91612f57565b9460ff600181925b01169392919050613225565b613386915060203d8111611470576114628183611da6565b5f6132e4565b5096509460ff60018192613362565b6133b3915060403d8111612750576127418183611da6565b505f613295565b6133d49198506101003d8111611194576111858183611da6565b965f61326f565b6133f591925060203d60201161069a5761068c8183611da6565b905f61321f56febd7bf039bc2e612983f7f581f4b5d456d978092d546243d55a7b3f8594fb9796526edd5dd90f5bf0182679e6bfd9599001c52b92e97523563c3302d3a030e2968be0079c531659141344cd1fd0a4f28419497f9722a3daafe3b4186f6b6457e0a2646970667358221220d9a39f97d47f6dfaeae29fa5c8b569866d630d071525c00d5d9b00f9a0a830c164736f6c634300081e0033",
  "devdoc": {
    "details": "Contains all read/view functions from v1, separate from write operations",
    "errors": {
      "OwnableInvalidOwner(address)": [
        {
          "details": "The owner is not a valid owner account. (eg. `address(0)`)"
        }
      ],
      "OwnableUnauthorizedAccount(address)": [
        {
          "details": "The caller account is not authorized to perform an operation."
        }
      ]
    },
    "kind": "dev",
    "methods": {
      "getBaseTokenInfo(address)": {
        "params": {
          "market": "The base token address"
        },
        "returns": {
          "baseToken": "The base token address",
          "decimals": "The base token decimals",
          "price": "The base token price",
          "priceScale": "The Comet's price scale"
        }
      },
      "getCurrentLtvBps(address,address)": {
        "details": "This is the actual current LTV = totalDebt / totalCollateral * 10000",
        "params": {
          "token": "The base token (market identifier)",
          "user": "The user address"
        },
        "returns": {
          "_0": "Current LTV in basis points (e.g., 6500 = 65%)"
        }
      },
      "getLiquidationLtvBps(address,address)": {
        "details": "Position is liquidatable when currentLTV >= liquidationLtvBps",
        "params": {
          "token": "The base token (market identifier)",
          "user": "The user address"
        },
        "returns": {
          "_0": "Weighted liquidation threshold in basis points"
        }
      },
      "getReserveConfigs(address)": {
        "details": "Returns price, LTV (borrow collateral factor), liquidation threshold for each collateral",
        "params": {
          "market": "The base token address (e.g., USDC) to identify the Comet"
        },
        "returns": {
          "configs": "Array of reserve configuration data for all collaterals in this market"
        }
      },
      "owner()": {
        "details": "Returns the address of the current owner."
      },
      "renounceOwnership()": {
        "details": "Leaves the contract without owner. It will not be possible to call `onlyOwner` functions. Can only be called by the current owner. NOTE: Renouncing ownership will leave the contract without an owner, thereby disabling any functionality that is only available to the owner."
      },
      "transferOwnership(address)": {
        "details": "Transfers ownership of the contract to a new account (`newOwner`). Can only be called by the current owner."
      }
    },
    "title": "CompoundGatewayView",
    "version": 1
  },
  "userdoc": {
    "kind": "user",
    "methods": {
      "allActiveBaseTokens()": {
        "notice": "Get all active base tokens (from allActiveComets)"
      },
      "allActiveComets()": {
        "notice": "Get all active Comets (union of local + write gateway registries)"
      },
      "allBaseTokens()": {
        "notice": "Get all base tokens for registered Comets"
      },
      "getBaseTokenInfo(address)": {
        "notice": "Get base token info for a market (debt token)"
      },
      "getComet(address)": {
        "notice": "Get Comet for base token, falling back to write gateway if not found locally"
      },
      "getCurrentLtvBps(address,address)": {
        "notice": "Returns the current LTV (debt/collateral) in basis points"
      },
      "getLiquidationLtvBps(address,address)": {
        "notice": "Returns the liquidation LTV threshold in basis points"
      },
      "getReserveConfigs(address)": {
        "notice": "Get reserve configuration data for a Compound market (for frontend LTV calculations)"
      },
      "setWriteGateway(address)": {
        "notice": "Set the write gateway address for syncing Comet registry"
      },
      "syncAllCometsFromWriteGateway()": {
        "notice": "Sync all Comets from write gateway"
      },
      "syncCometFromWriteGateway(address)": {
        "notice": "Sync a Comet from the write gateway to this view gateway"
      }
    },
    "notice": "View-only gateway for Compound Comet protocol",
    "version": 1
  },
  "storageLayout": {
    "storage": [
      {
        "astId": 1578,
        "contract": "contracts/v2/gateways/compound/CompoundGatewayView.sol:CompoundGatewayView",
        "label": "_owner",
        "offset": 0,
        "slot": "0",
        "type": "t_address"
      },
      {
        "astId": 25911,
        "contract": "contracts/v2/gateways/compound/CompoundGatewayView.sol:CompoundGatewayView",
        "label": "tokenToComet",
        "offset": 0,
        "slot": "1",
        "type": "t_mapping(t_address,t_contract(ICompoundComet)44623)"
      },
      {
        "astId": 25916,
        "contract": "contracts/v2/gateways/compound/CompoundGatewayView.sol:CompoundGatewayView",
        "label": "overrideFeeds",
        "offset": 0,
        "slot": "2",
        "type": "t_mapping(t_address,t_contract(AggregatorV3Interface)1569)"
      },
      {
        "astId": 25919,
        "contract": "contracts/v2/gateways/compound/CompoundGatewayView.sol:CompoundGatewayView",
        "label": "_comets",
        "offset": 0,
        "slot": "3",
        "type": "t_array(t_address)dyn_storage"
      },
      {
        "astId": 25923,
        "contract": "contracts/v2/gateways/compound/CompoundGatewayView.sol:CompoundGatewayView",
        "label": "_isRegistered",
        "offset": 0,
        "slot": "4",
        "type": "t_mapping(t_address,t_bool)"
      },
      {
        "astId": 25925,
        "contract": "contracts/v2/gateways/compound/CompoundGatewayView.sol:CompoundGatewayView",
        "label": "writeGateway",
        "offset": 0,
        "slot": "5",
        "type": "t_address"
      }
    ],
    "types": {
      "t_address": {
        "encoding": "inplace",
        "label": "address",
        "numberOfBytes": "20"
      },
      "t_array(t_address)dyn_storage": {
        "base": "t_address",
        "encoding": "dynamic_array",
        "label": "address[]",
        "numberOfBytes": "32"
      },
      "t_bool": {
        "encoding": "inplace",
        "label": "bool",
        "numberOfBytes": "1"
      },
      "t_contract(AggregatorV3Interface)1569": {
        "encoding": "inplace",
        "label": "contract AggregatorV3Interface",
        "numberOfBytes": "20"
      },
      "t_contract(ICompoundComet)44623": {
        "encoding": "inplace",
        "label": "contract ICompoundComet",
        "numberOfBytes": "20"
      },
      "t_mapping(t_address,t_bool)": {
        "encoding": "mapping",
        "key": "t_address",
        "label": "mapping(address => bool)",
        "numberOfBytes": "32",
        "value": "t_bool"
      },
      "t_mapping(t_address,t_contract(AggregatorV3Interface)1569)": {
        "encoding": "mapping",
        "key": "t_address",
        "label": "mapping(address => contract AggregatorV3Interface)",
        "numberOfBytes": "32",
        "value": "t_contract(AggregatorV3Interface)1569"
      },
      "t_mapping(t_address,t_contract(ICompoundComet)44623)": {
        "encoding": "mapping",
        "key": "t_address",
        "label": "mapping(address => contract ICompoundComet)",
        "numberOfBytes": "32",
        "value": "t_contract(ICompoundComet)44623"
      }
    }
  }
}