{
  "address": "0x31B67DDF28915d228036Ae297f5694E1A8b83A9d",
  "abi": [
    {
      "inputs": [
        {
          "internalType": "address",
          "name": "owner_",
          "type": "address"
        }
      ],
      "stateMutability": "nonpayable",
      "type": "constructor"
    },
    {
      "inputs": [
        {
          "internalType": "address",
          "name": "owner",
          "type": "address"
        }
      ],
      "name": "OwnableInvalidOwner",
      "type": "error"
    },
    {
      "inputs": [
        {
          "internalType": "address",
          "name": "account",
          "type": "address"
        }
      ],
      "name": "OwnableUnauthorizedAccount",
      "type": "error"
    },
    {
      "anonymous": false,
      "inputs": [
        {
          "indexed": true,
          "internalType": "address",
          "name": "baseToken",
          "type": "address"
        },
        {
          "indexed": true,
          "internalType": "address",
          "name": "comet",
          "type": "address"
        }
      ],
      "name": "CometRegistered",
      "type": "event"
    },
    {
      "anonymous": false,
      "inputs": [
        {
          "indexed": true,
          "internalType": "address",
          "name": "baseToken",
          "type": "address"
        },
        {
          "indexed": true,
          "internalType": "address",
          "name": "oldComet",
          "type": "address"
        },
        {
          "indexed": true,
          "internalType": "address",
          "name": "newComet",
          "type": "address"
        }
      ],
      "name": "CometReplaced",
      "type": "event"
    },
    {
      "anonymous": false,
      "inputs": [
        {
          "indexed": true,
          "internalType": "address",
          "name": "previousOwner",
          "type": "address"
        },
        {
          "indexed": true,
          "internalType": "address",
          "name": "newOwner",
          "type": "address"
        }
      ],
      "name": "OwnershipTransferred",
      "type": "event"
    },
    {
      "anonymous": false,
      "inputs": [
        {
          "indexed": true,
          "internalType": "address",
          "name": "oldGateway",
          "type": "address"
        },
        {
          "indexed": true,
          "internalType": "address",
          "name": "newGateway",
          "type": "address"
        }
      ],
      "name": "WriteGatewayUpdated",
      "type": "event"
    },
    {
      "inputs": [
        {
          "internalType": "contract ICompoundComet",
          "name": "comet",
          "type": "address"
        }
      ],
      "name": "addComet",
      "outputs": [],
      "stateMutability": "nonpayable",
      "type": "function"
    },
    {
      "inputs": [],
      "name": "allActiveBaseTokens",
      "outputs": [
        {
          "internalType": "address[]",
          "name": "bases",
          "type": "address[]"
        }
      ],
      "stateMutability": "view",
      "type": "function"
    },
    {
      "inputs": [],
      "name": "allActiveComets",
      "outputs": [
        {
          "internalType": "address[]",
          "name": "comets",
          "type": "address[]"
        }
      ],
      "stateMutability": "view",
      "type": "function"
    },
    {
      "inputs": [],
      "name": "allBaseTokens",
      "outputs": [
        {
          "internalType": "address[]",
          "name": "",
          "type": "address[]"
        }
      ],
      "stateMutability": "view",
      "type": "function"
    },
    {
      "inputs": [],
      "name": "allComets",
      "outputs": [
        {
          "internalType": "address[]",
          "name": "",
          "type": "address[]"
        }
      ],
      "stateMutability": "view",
      "type": "function"
    },
    {
      "inputs": [
        {
          "internalType": "address",
          "name": "token",
          "type": "address"
        },
        {
          "internalType": "address",
          "name": "user",
          "type": "address"
        }
      ],
      "name": "getBalance",
      "outputs": [
        {
          "internalType": "uint256",
          "name": "",
          "type": "uint256"
        }
      ],
      "stateMutability": "view",
      "type": "function"
    },
    {
      "inputs": [
        {
          "internalType": "contract ICompoundComet",
          "name": "comet",
          "type": "address"
        }
      ],
      "name": "getBaseToken",
      "outputs": [
        {
          "internalType": "address",
          "name": "",
          "type": "address"
        }
      ],
      "stateMutability": "view",
      "type": "function"
    },
    {
      "inputs": [
        {
          "internalType": "address",
          "name": "market",
          "type": "address"
        }
      ],
      "name": "getBaseTokenInfo",
      "outputs": [
        {
          "internalType": "address",
          "name": "baseToken",
          "type": "address"
        },
        {
          "internalType": "uint256",
          "name": "price",
          "type": "uint256"
        },
        {
          "internalType": "uint8",
          "name": "decimals",
          "type": "uint8"
        },
        {
          "internalType": "uint256",
          "name": "priceScale",
          "type": "uint256"
        }
      ],
      "stateMutability": "view",
      "type": "function"
    },
    {
      "inputs": [
        {
          "internalType": "address",
          "name": "token",
          "type": "address"
        },
        {
          "internalType": "address",
          "name": "user",
          "type": "address"
        }
      ],
      "name": "getBorrowBalance",
      "outputs": [
        {
          "internalType": "uint256",
          "name": "",
          "type": "uint256"
        }
      ],
      "stateMutability": "view",
      "type": "function"
    },
    {
      "inputs": [
        {
          "internalType": "address",
          "name": "token",
          "type": "address"
        },
        {
          "internalType": "address",
          "name": "user",
          "type": "address"
        }
      ],
      "name": "getBorrowBalanceCurrent",
      "outputs": [
        {
          "internalType": "uint256",
          "name": "",
          "type": "uint256"
        }
      ],
      "stateMutability": "view",
      "type": "function"
    },
    {
      "inputs": [
        {
          "internalType": "address",
          "name": "token",
          "type": "address"
        }
      ],
      "name": "getBorrowRate",
      "outputs": [
        {
          "internalType": "uint256",
          "name": "borrowRate",
          "type": "uint256"
        },
        {
          "internalType": "bool",
          "name": "success",
          "type": "bool"
        }
      ],
      "stateMutability": "view",
      "type": "function"
    },
    {
      "inputs": [
        {
          "internalType": "address",
          "name": "market",
          "type": "address"
        }
      ],
      "name": "getCollateralFactors",
      "outputs": [
        {
          "internalType": "address[]",
          "name": "assets",
          "type": "address[]"
        },
        {
          "internalType": "uint256[]",
          "name": "ltvBps",
          "type": "uint256[]"
        },
        {
          "internalType": "uint256[]",
          "name": "lltvBps",
          "type": "uint256[]"
        }
      ],
      "stateMutability": "view",
      "type": "function"
    },
    {
      "inputs": [
        {
          "internalType": "address",
          "name": "market",
          "type": "address"
        },
        {
          "internalType": "address",
          "name": "asset",
          "type": "address"
        }
      ],
      "name": "getCollateralPrice",
      "outputs": [
        {
          "internalType": "uint256",
          "name": "",
          "type": "uint256"
        }
      ],
      "stateMutability": "view",
      "type": "function"
    },
    {
      "inputs": [
        {
          "internalType": "address",
          "name": "baseToken",
          "type": "address"
        }
      ],
      "name": "getComet",
      "outputs": [
        {
          "internalType": "contract ICompoundComet",
          "name": "",
          "type": "address"
        }
      ],
      "stateMutability": "view",
      "type": "function"
    },
    {
      "inputs": [
        {
          "internalType": "address",
          "name": "token",
          "type": "address"
        },
        {
          "internalType": "address",
          "name": "account",
          "type": "address"
        }
      ],
      "name": "getCompoundData",
      "outputs": [
        {
          "internalType": "uint256",
          "name": "supplyRate",
          "type": "uint256"
        },
        {
          "internalType": "uint256",
          "name": "borrowRate",
          "type": "uint256"
        },
        {
          "internalType": "uint256",
          "name": "balance",
          "type": "uint256"
        },
        {
          "internalType": "uint256",
          "name": "borrowBalance",
          "type": "uint256"
        },
        {
          "internalType": "uint256",
          "name": "price",
          "type": "uint256"
        },
        {
          "internalType": "uint256",
          "name": "priceScale",
          "type": "uint256"
        }
      ],
      "stateMutability": "view",
      "type": "function"
    },
    {
      "inputs": [
        {
          "internalType": "address",
          "name": "token",
          "type": "address"
        },
        {
          "internalType": "address",
          "name": "account",
          "type": "address"
        }
      ],
      "name": "getDepositedCollaterals",
      "outputs": [
        {
          "internalType": "address[]",
          "name": "collaterals",
          "type": "address[]"
        },
        {
          "internalType": "uint128[]",
          "name": "balances",
          "type": "uint128[]"
        },
        {
          "internalType": "string[]",
          "name": "displayNames",
          "type": "string[]"
        }
      ],
      "stateMutability": "view",
      "type": "function"
    },
    {
      "inputs": [
        {
          "internalType": "address",
          "name": "token",
          "type": "address"
        },
        {
          "internalType": "address",
          "name": "user",
          "type": "address"
        }
      ],
      "name": "getLtv",
      "outputs": [
        {
          "internalType": "uint256",
          "name": "",
          "type": "uint256"
        }
      ],
      "stateMutability": "view",
      "type": "function"
    },
    {
      "inputs": [
        {
          "internalType": "address",
          "name": "token",
          "type": "address"
        },
        {
          "internalType": "address",
          "name": "user",
          "type": "address"
        }
      ],
      "name": "getMaxLtv",
      "outputs": [
        {
          "internalType": "uint256",
          "name": "",
          "type": "uint256"
        }
      ],
      "stateMutability": "view",
      "type": "function"
    },
    {
      "inputs": [
        {
          "internalType": "address",
          "name": "token",
          "type": "address"
        },
        {
          "internalType": "address",
          "name": "user",
          "type": "address"
        }
      ],
      "name": "getPossibleCollaterals",
      "outputs": [
        {
          "internalType": "address[]",
          "name": "collateralAddresses",
          "type": "address[]"
        },
        {
          "internalType": "uint256[]",
          "name": "balances",
          "type": "uint256[]"
        },
        {
          "internalType": "string[]",
          "name": "symbols",
          "type": "string[]"
        },
        {
          "internalType": "uint8[]",
          "name": "decimals",
          "type": "uint8[]"
        }
      ],
      "stateMutability": "view",
      "type": "function"
    },
    {
      "inputs": [
        {
          "internalType": "address",
          "name": "token",
          "type": "address"
        }
      ],
      "name": "getPrice",
      "outputs": [
        {
          "internalType": "uint256",
          "name": "",
          "type": "uint256"
        }
      ],
      "stateMutability": "view",
      "type": "function"
    },
    {
      "inputs": [
        {
          "internalType": "address",
          "name": "market",
          "type": "address"
        },
        {
          "internalType": "address[]",
          "name": "tokens",
          "type": "address[]"
        }
      ],
      "name": "getPrices",
      "outputs": [
        {
          "internalType": "uint256[]",
          "name": "",
          "type": "uint256[]"
        }
      ],
      "stateMutability": "view",
      "type": "function"
    },
    {
      "inputs": [
        {
          "internalType": "address",
          "name": "market",
          "type": "address"
        }
      ],
      "name": "getReserveConfigs",
      "outputs": [
        {
          "components": [
            {
              "internalType": "address",
              "name": "token",
              "type": "address"
            },
            {
              "internalType": "uint256",
              "name": "price",
              "type": "uint256"
            },
            {
              "internalType": "uint256",
              "name": "ltv",
              "type": "uint256"
            },
            {
              "internalType": "uint256",
              "name": "liquidationThreshold",
              "type": "uint256"
            },
            {
              "internalType": "uint8",
              "name": "decimals",
              "type": "uint8"
            },
            {
              "internalType": "uint64",
              "name": "scale",
              "type": "uint64"
            }
          ],
          "internalType": "struct CompoundGatewayView.ReserveConfigData[]",
          "name": "configs",
          "type": "tuple[]"
        }
      ],
      "stateMutability": "view",
      "type": "function"
    },
    {
      "inputs": [
        {
          "internalType": "address",
          "name": "token",
          "type": "address"
        }
      ],
      "name": "getSupplyRate",
      "outputs": [
        {
          "internalType": "uint256",
          "name": "supplyRate",
          "type": "uint256"
        },
        {
          "internalType": "bool",
          "name": "success",
          "type": "bool"
        }
      ],
      "stateMutability": "view",
      "type": "function"
    },
    {
      "inputs": [
        {
          "internalType": "address",
          "name": "market",
          "type": "address"
        }
      ],
      "name": "getSupportedCollaterals",
      "outputs": [
        {
          "internalType": "address[]",
          "name": "collateralAddresses",
          "type": "address[]"
        }
      ],
      "stateMutability": "view",
      "type": "function"
    },
    {
      "inputs": [
        {
          "internalType": "address",
          "name": "market",
          "type": "address"
        },
        {
          "internalType": "address",
          "name": "collateral",
          "type": "address"
        }
      ],
      "name": "isCollateralSupported",
      "outputs": [
        {
          "internalType": "bool",
          "name": "isSupported",
          "type": "bool"
        }
      ],
      "stateMutability": "view",
      "type": "function"
    },
    {
      "inputs": [
        {
          "internalType": "address",
          "name": "token",
          "type": "address"
        },
        {
          "internalType": "contract AggregatorV3Interface",
          "name": "feed",
          "type": "address"
        }
      ],
      "name": "overrideFeed",
      "outputs": [],
      "stateMutability": "nonpayable",
      "type": "function"
    },
    {
      "inputs": [
        {
          "internalType": "address",
          "name": "",
          "type": "address"
        }
      ],
      "name": "overrideFeeds",
      "outputs": [
        {
          "internalType": "contract AggregatorV3Interface",
          "name": "",
          "type": "address"
        }
      ],
      "stateMutability": "view",
      "type": "function"
    },
    {
      "inputs": [],
      "name": "owner",
      "outputs": [
        {
          "internalType": "address",
          "name": "",
          "type": "address"
        }
      ],
      "stateMutability": "view",
      "type": "function"
    },
    {
      "inputs": [],
      "name": "renounceOwnership",
      "outputs": [],
      "stateMutability": "nonpayable",
      "type": "function"
    },
    {
      "inputs": [
        {
          "internalType": "address",
          "name": "baseToken",
          "type": "address"
        },
        {
          "internalType": "address",
          "name": "comet_",
          "type": "address"
        }
      ],
      "name": "setCometForBase",
      "outputs": [],
      "stateMutability": "nonpayable",
      "type": "function"
    },
    {
      "inputs": [
        {
          "internalType": "address",
          "name": "writeGateway_",
          "type": "address"
        }
      ],
      "name": "setWriteGateway",
      "outputs": [],
      "stateMutability": "nonpayable",
      "type": "function"
    },
    {
      "inputs": [],
      "name": "syncAllCometsFromWriteGateway",
      "outputs": [],
      "stateMutability": "nonpayable",
      "type": "function"
    },
    {
      "inputs": [
        {
          "internalType": "address",
          "name": "baseToken",
          "type": "address"
        }
      ],
      "name": "syncCometFromWriteGateway",
      "outputs": [],
      "stateMutability": "nonpayable",
      "type": "function"
    },
    {
      "inputs": [
        {
          "internalType": "address",
          "name": "",
          "type": "address"
        }
      ],
      "name": "tokenToComet",
      "outputs": [
        {
          "internalType": "contract ICompoundComet",
          "name": "",
          "type": "address"
        }
      ],
      "stateMutability": "view",
      "type": "function"
    },
    {
      "inputs": [
        {
          "internalType": "address",
          "name": "newOwner",
          "type": "address"
        }
      ],
      "name": "transferOwnership",
      "outputs": [],
      "stateMutability": "nonpayable",
      "type": "function"
    },
    {
      "inputs": [],
      "name": "writeGateway",
      "outputs": [
        {
          "internalType": "address",
          "name": "",
          "type": "address"
        }
      ],
      "stateMutability": "view",
      "type": "function"
    }
  ],
  "transactionHash": "0x9973f8c31fcf688aab289050964e315f538ea511ded69b75f3f1281e5f61e115",
  "args": [
    "0x0BE61223F99E57b8b8B7033a77B54Adc7f7cF027"
  ],
  "numDeployments": 13,
  "solcInputHash": "ef7a035920c68b797742d1c38064d95d",
  "bytecode": "0x60803460b857601f6134c538819003918201601f19168301916001600160401b0383118484101760bc5780849260209460405283398101031260b857516001600160a01b0381169081900360b857801560a5575f80546001600160a01b031981168317825560405192916001600160a01b03909116907f8be0079c531659141344cd1fd0a4f28419497f9722a3daafe3b4186f6b6457e09080a36133f490816100d18239f35b631e4fbdf760e01b5f525f60045260245ffd5b5f80fd5b634e487b7160e01b5f52604160045260245ffdfe60806040526004361015610011575f80fd5b5f3560e01c80630c10fd0f1461024f5780630d1fe0881461024a578063104e999d14610245578063118e31b7146101c357806324bddcfd1461024057806326e46ed31461023b5780632a8e3a49146102365780633613d5271461023157806341976e091461022c5780636072aa071461022757806362fd6add1461022257806366e2d09b1461021d57806369e65e49146102185780636b5441a914610213578063715018a61461020e578063755f62ce1461020957806378466113146102045780638ca28635146101ff5780638da5cb5b146101fa57806391aa9c6f146101f55780639f2204e8146101f0578063b4bae5e1146101eb578063b65b4e18146101e6578063be305bf8146101e1578063c9475cd7146101dc578063cc2255aa146101d7578063d4fac45d146101d2578063d5316477146101cd578063d71275f6146101c8578063e94201c7146101c3578063e9db3c9f146101be578063ef36fa93146101b9578063f2dbd070146101b4578063f2f1be1e146101af578063f2fde38b146101aa5763f5125d3f146101a5575f80fd5b611eca565b611e41565b611dfe565b611de5565b611c84565b6119dd565b610697565b611911565b611884565b611800565b6116a6565b6115ee565b6115d3565b611344565b611124565b610fda565b610dab565b610d84565b610d17565b610cf4565b610cd9565b610c82565b610b61565b610ae7565b610aab565b610a81565b610a47565b610a18565b6109a0565b6107d3565b61078f565b610728565b6104ae565b61030a565b610269565b6001600160a01b0381160361026557565b5f80fd5b346102655760203660031901126102655760046020813561028981610254565b60405163c55dae6360e01b815292839182906001600160a01b03165afa8015610305576102d2915f916102d6575b506040516001600160a01b0390911681529081906020820190565b0390f35b6102f8915060203d6020116102fe575b6102f08183611f18565b810190611f46565b5f6102b7565b503d6102e6565b611f5b565b34610265575f366003190112610265576005546040516001600160a01b039091168152602090f35b60409060031901126102655760043561034a81610254565b9060243561035781610254565b90565b90602080835192838152019201905f5b8181106103775750505090565b82516001600160a01b031684526020938401939092019160010161036a565b90602080835192838152019201905f5b8181106103b35750505090565b82518452602093840193909201916001016103a6565b9080602083519182815201916020808360051b8301019401925f915b8383106103f457505050505090565b909192939460208080600193601f19868203018752818a518051918291828552018484015e5f828201840152601f01601f1916010197019594919091019201906103e5565b9290610470926104546104629260808752608087019061035a565b908582036020870152610396565b9083820360408501526103c9565b906060818303910152602080835192838152019201905f5b8181106104955750505090565b825160ff16845260209384019390920191600101610488565b34610265576104c56104bf36610332565b90612a08565b905f915f5b825181101561051d576104fc6104f06104e38386611f7a565b516001600160801b031690565b6001600160801b031690565b610509575b6001016104ca565b92610515600191611fa7565b939050610501565b509261052883611ffb565b9261053281611ffb565b9461054561053f8361202d565b92611ffb565b955f945f5b8151811015610686576105636104f06104e38385611f7a565b610570575b60010161054a565b956105a761058e6105818989611f7a565b516001600160a01b031690565b610598838b611f7a565b6001600160a01b039091169052565b6105b76104f06104e38985611f7a565b6105c18285611f7a565b526105cc8785611f7a565b516105d78287611f7a565b526105e28186611f7a565b50600460206106066105fa6105fa6105818c8c611f7a565b6001600160a01b031690565b60405163313ce56760e01b815292839182905afa918215610305576106478b6001948361064c955f92610654575b5061063f9192611f7a565b9060ff169052565b611fa7565b969050610568565b61063f92506106799060203d811161067f575b6106718183611f18565b810190612084565b91610634565b503d610667565b604051806102d28b88878d85610439565b346102655760206106a736610332565b91906001600160a01b03906106bb90612394565b604051630dd3126d60e21b81526001600160a01b03909416600485015283916024918391165afa8015610305576020915f916106fb575b50604051908152f35b61071b9150823d8411610721575b6107138183611f18565b810190612098565b5f6106f2565b503d610709565b346102655760403660031901126102655761078d60043561074881610254565b6024359061075582610254565b61075d613378565b6001600160a01b039081165f90815260026020526040902080546001600160a01b03191692909116919091179055565b005b34610265576020366003190112610265576004356107ac81610254565b6001600160a01b039081165f90815260016020908152604091829020549151919092168152f35b34610265576020366003190112610265576004356107f081610254565b6107f8613378565b60405163c55dae6360e01b81526001600160a01b0382169190602081600481865afa908115610305575f91610970575b506001600160a01b038116916108ad906108438415156120a7565b61088e6108736105fa6108668660018060a01b03165f52600160205260405f2090565b546001600160a01b031690565b6001600160a01b039094165f90815260016020526040902090565b80546001600160a01b0319166001600160a01b03909216919091179055565b6001600160a01b0383165f9081526004602052604090206108d8906108d4905b5460ff1690565b1590565b610939575b82825f51602061339f5f395f51905f525f80a36001600160a01b0316908115158061092f575b61090957005b7f526edd5dd90f5bf0182679e6bfd9599001c52b92e97523563c3302d3a030e2965f80a4005b5082821415610903565b6001600160a01b0383165f908152600460205260409020610962905b805460ff19166001179055565b61096b836120fe565b6108dd565b610989915060203d6020116102fe576102f08183611f18565b5f610828565b906020610357928181520190610396565b34610265576040366003190112610265576004356109bd81610254565b6024356001600160401b03811161026557366023820112156102655780600401356001600160401b038111610265573660248260051b84010111610265576102d2926024610a0c930190612168565b6040519182918261098f565b34610265576020366003190112610265576020610a3f600435610a3a81610254565b612225565b604051908152f35b3461026557602036600319011261026557610a6c600435610a6781610254565b612394565b6040516001600160a01b039091168152602090f35b34610265576020610a3f610a9436610332565b906124e3565b90602061035792818152019061035a565b34610265576020366003190112610265576102d2610ad3600435610ace81610254565b61282c565b60405191829160208352602083019061035a565b3461026557610af86104bf36610332565b610b106040939293519260608452606084019061035a565b8281036020840152602080855192838152019401905f5b818110610b425784806102d2888783820360408501526103c9565b82516001600160801b0316865260209586019590920191600101610b27565b3461026557602036600319011261026557600435610b7e81610254565b6001600160a01b038082165f9081526001602052604081205490928392909116610bb5575b50604080519182529115156020820152f35b610bc492506105fa9150612394565b604051637eb7113160e01b8152602081600481855afa801561030557610c0f926020925f92610c63575b50604051808095819463d955759d60e01b8352600483019190602083019252565b03915afa8015610305576001600160401b03915f91610c34575b50166001905f610ba3565b610c56915060203d602011610c5c575b610c4e8183611f18565b810190612c1b565b5f610c29565b503d610c44565b610c7b919250833d8511610721576107138183611f18565b905f610bee565b34610265575f36600319011261026557610c9a613378565b5f80546001600160a01b0319811682556001600160a01b03167f8be0079c531659141344cd1fd0a4f28419497f9722a3daafe3b4186f6b6457e08280a3005b34610265575f366003190112610265576102d2610ad3612c2f565b34610265576020610d0d610d0736610332565b90612c80565b6040519015158152f35b3461026557602036600319011261026557600435610d3481610254565b610d3c613378565b600580546001600160a01b039283166001600160a01b0319821681179092559091167f864aa5b65d00254be4a57e93185f66797e0b72b1d648eb9a569ea297fbd259375f80a3005b34610265575f366003190112610265575f546040516001600160a01b039091168152602090f35b34610265575f36600319011261026557610dc3613378565b6005546004905f90610df1906105fa906001600160a01b03165b6105fa6001600160a01b0382161515612daf565b604051633aafb16760e11b815292839182905afa908115610305575f91610fb8575b505f5b815181101561078d57610e2f6105fa6105818385611f7a565b60405163c55dae6360e01b815291906001600160a01b03811690602084600481855afa8015610305576001945f91610f9a575b5082858060a01b03610e8a6105fa6108668560018060a01b03165f52600160205260405f2090565b1603610e9a575b50505001610e16565b610edc610ebd6105fa6108668460018060a01b03165f52600160205260405f2090565b6001600160a01b0383165f90815260016020526040902090939061088e565b6001600160a01b0383165f908152600460205260409020610f00906108d4906108cd565b610f6c575b848060a01b03169082825f51602061339f5f395f51905f525f80a3848060a01b03169081151580610f62575b15610e91577f526edd5dd90f5bf0182679e6bfd9599001c52b92e97523563c3302d3a030e2965f80a45f8080610e91565b5082821415610f31565b6001600160a01b0383165f908152600460205260409020610f8c90610955565b610f95836120fe565b610f05565b610fb2915060203d81116102fe576102f08183611f18565b5f610e62565b610fd491503d805f833e610fcc8183611f18565b810190612dfb565b5f610e13565b346102655761088e610feb36610332565b90610ff4613378565b6001600160a01b03811691821515806110db575b61101190612e7e565b6110566110346105fa6108668560018060a01b03165f52600160205260405f2090565b6001600160a01b039384165f9081526001602052604090209383169590938691565b6001600160a01b0381165f90815260046020526040902061107a906108d4906108cd565b6110ab575b5082825f51602061339f5f395f51905f525f80a36001600160a01b0316908115158061092f5761090957005b6001600160a01b0381165f9081526004602052604090206110d591906110d090610955565b6120fe565b5f61107f565b506001600160a01b0381161515611008565b9161111690611108610357959360608652606086019061035a565b908482036020860152610396565b916040818403910152610396565b34610265576020366003190112610265576111476105fa600435610a6781610254565b60405163a46fe83b60e01b8152602081600481855afa80156103055760ff915f916112a4575b501661117881611ffb565b9061118281611ffb565b9161118c82611ffb565b905f5b60ff811690848210156112945760405163c8c7fe6b60e01b815260ff8216600482015290610100826024818b5afa9283156103055761125b61125461123761123261122660a060ff998e60019a5f92611263575b506020820151611205908e90610598908c906001600160a01b03165b92611f7a565b611245896111ff61123761123261122660808801516001600160401b031690565b6001600160401b031690565b61249a565b670de0b6b3a7640000900490565b5201516001600160401b031690565b9187611f7a565b52011661118f565b6112869192506101003d811161128d575b61127e8183611f18565b81019061278f565b905f6111e3565b503d611274565b604051806102d2868987846110ed565b6112bd915060203d60201161067f576106718183611f18565b5f61116d565b60206040818301928281528451809452019201905f5b8181106112e65750505090565b909192602060c06001926001600160401b0360a088518680831b0381511684528581015186850152604081015160408501526060810151606085015260ff608082015116608085015201511660a082015201940191019190916112d9565b34610265576020366003190112610265576113676105fa600435610a6781610254565b60405163a46fe83b60e01b8152602081600481855afa80156103055760ff915f916115b4575b501661139881612ebb565b5f5b60ff811690838210156115a65760405163c8c7fe6b60e01b815260ff821660048201529061010082602481895afa918215610305575f92611583575b5060408281015190516341976e0960e01b81526001600160a01b039091166004820152919260208380602481015b03818a5afa9081156103055760ff94611512611523936001965f91611555575b50611502601260208501600460206114486105fa6105fa855160018060a01b031690565b60405163313ce56760e01b815292839182905afa5f9181611535575b5061152b575b50516001600160a01b03165b9461149461123761123261122660808501516001600160401b031690565b6001600160801b036114cd60606114be61123761123261122660a08901516001600160401b031690565b9401516001600160401b031690565b956114e86114d9611fba565b6001600160a01b03909a168a52565b1660208801526040870152606086015260ff166080850152565b6001600160401b031660a0830152565b61151c8288611f7a565b5285611f7a565b50011661139a565b915061147661146a565b61154e91925060203d811161067f576106718183611f18565b905f611464565b611576915060203d811161157c575b61156e8183611f18565b810190612211565b5f611424565b503d611564565b61140492506115a0906101003d811161128d5761127e8183611f18565b916113d6565b604051806102d285826112c3565b6115cd915060203d60201161067f576106718183611f18565b5f61138d565b34610265575f366003190112610265576102d2610ad3612f4c565b34610265575f3660031901126102655760035461160a81611ffb565b905f5b81811061162257604051806102d28582610a9a565b80602061164e6105fa6105fa6116396004966120e6565b905460039190911b1c6001600160a01b031690565b60405163c55dae6360e01b815293849182905afa91821561030557600192611682915f91611688575b506105988387611f7a565b0161160d565b6116a0915060203d81116102fe576102f08183611f18565b5f611677565b34610265576020366003190112610265576004356116c381610254565b6116cb613378565b6005546116e4906105fa906001600160a01b0316610ddd565b6040516326e46ed360e01b81526001600160a01b038316600482015290602090829060249082905afa908115610305575f916117e1575b506001600160a01b038116916117328315156130b0565b611755610ebd6105fa6108668460018060a01b03165f52600160205260405f2090565b6001600160a01b0383165f908152600460205260409020611779906108d4906108cd565b6117b3575b6001600160a01b03169082825f51602061339f5f395f51905f525f80a36001600160a01b0316908115158061092f5761090957005b6001600160a01b0383165f9081526004602052604090206117d390610955565b6117dc836120fe565b61177e565b6117fa915060203d6020116102fe576102f08183611f18565b5f61171b565b3461026557602061181036610332565b91906001600160a01b039061182490612394565b6040516370a0823160e01b81526001600160a01b03909416600485015283916024918391165afa908115610305575f91611865575b50604051908152602090f35b61187e915060203d602011610721576107138183611f18565b5f611859565b34610265575f3660031901126102655761189c612f4c565b6118a68151611ffb565b905f5b8151811015611903578060206118ca6105fa6105fa61058160049688611f7a565b60405163c55dae6360e01b815293849182905afa918215610305576001926118fd915f9161168857506105988387611f7a565b016118a9565b604051806102d28582610a9a565b346102655760203660031901126102655760043561192e81610254565b6001600160a01b038082165f90815260016020526040812054909283929091166119645750604080519182529115156020820152f35b61197392506105fa9150612394565b604051637eb7113160e01b8152602081600481855afa801561030557610c0f926020925f926119be575b506040518080958194634fd41dad60e11b8352600483019190602083019252565b6119d6919250833d8511610721576107138183611f18565b905f61199d565b34610265576119eb36610332565b6119f76105fa83612394565b604051637eb7113160e01b81529190602083600481845afa92831561030557611a44936020915f91611c67575b506040518095819263d955759d60e01b8352600483019190602083019252565b0381845afa928315610305575f93611c46575b50604051637eb7113160e01b815290602082600481845afa91821561030557611aa4926020915f91611c29575b5060405180948192634fd41dad60e11b8352600483019190602083019252565b0381845afa918215610305575f92611c08575b506040516370a0823160e01b81526001600160a01b038416600482015294602086602481855afa93841561030557611b1d965f95611be6575b50604051630dd3126d60e21b81526001600160a01b03909116600482015295602090879081906024820190565b0381855afa908115610305576004965f92611bc0575b50611b3f602091612225565b926040519788809263a0fbddaf60e01b82525afa938415610305576001600160401b03965f95611b9d575b506040805196881687529387166020870152928501929092526060840191909152608083015290911660a082015260c090f35b6102d29550611bba9060203d602011610c5c57610c4e8183611f18565b94611b6a565b6020919250611bde611b3f91833d8511610721576107138183611f18565b929150611b33565b6020919550611c0190823d8411610721576107138183611f18565b9490611af0565b611c2291925060203d602011610c5c57610c4e8183611f18565b905f611ab7565b611c409150823d8411610721576107138183611f18565b5f611a84565b611c6091935060203d602011610c5c57610c4e8183611f18565b915f611a57565b611c7e9150823d8411610721576107138183611f18565b5f611a24565b3461026557602036600319011261026557600435611ca181610254565b611cad6105fa82612394565b60405163c55dae6360e01b815291602083600481855afa908115610305576004935f92611dbf575b50611ce1602091612225565b926040519485809263a0fbddaf60e01b82525afa908115610305576001600160401b03935f92611d9c575b5060405163313ce56760e01b815291926102d2926020816004816001600160a01b0387165afa5f9181611d7b575b50611d7557506012905b6040519586951692859094939260ff90606093608084019760018060a01b0316845260208401521660408201520152565b90611d44565b611d9591925060203d60201161067f576106718183611f18565b905f611d3a565b6102d29250611db99060203d602011610c5c57610c4e8183611f18565b91611d0c565b6020919250611ddd611ce191833d85116102fe576102f08183611f18565b929150611cd5565b34610265576020610a3f611df836610332565b90613108565b3461026557602036600319011261026557600435611e1b81610254565b60018060a01b03165f526002602052602060018060a01b0360405f205416604051908152f35b3461026557602036600319011261026557600435611e5e81610254565b611e66613378565b6001600160a01b03168015611eb7575f80546001600160a01b03198116831782556001600160a01b0316907f8be0079c531659141344cd1fd0a4f28419497f9722a3daafe3b4186f6b6457e09080a3005b631e4fbdf760e01b5f525f60045260245ffd5b34610265576020610a3f611edd36610332565b9061319d565b634e487b7160e01b5f52604160045260245ffd5b61010081019081106001600160401b03821117611f1357604052565b611ee3565b90601f801991011681019081106001600160401b03821117611f1357604052565b5190611f4482610254565b565b90816020910312610265575161035781610254565b6040513d5f823e3d90fd5b634e487b7160e01b5f52603260045260245ffd5b8051821015611f8e5760209160051b010190565b611f66565b634e487b7160e01b5f52601160045260245ffd5b5f198114611fb55760010190565b611f93565b60405190611f4460c083611f18565b6001600160401b038111611f135760051b60200190565b60405190611fef602083611f18565b5f808352366020840137565b9061200582611fc9565b6120126040519182611f18565b8281528092612023601f1991611fc9565b0190602036910137565b9061203782611fc9565b6120446040519182611f18565b8281528092612055601f1991611fc9565b01905f5b82811061206557505050565b806060602080938501015201612059565b519060ff8216820361026557565b908160209103126102655761035790612076565b90816020910312610265575190565b156120ae57565b60405162461bcd60e51b815260206004820152601060248201526f0436f6d706f756e643a20626173653d360841b6044820152606490fd5b600354811015611f8e5760035f5260205f2001905f90565b60035468010000000000000000811015611f135760018101600355600354811015611f8e5760035f527fc2575a0e9e593c00f959f8c92f12db2869c3395a3b0502d05e2516446f71f85b0180546001600160a01b0319166001600160a01b03909216919091179055565b929061217383611ffb565b915f5b848110156121ab5760019061219a8160051b85013561219481610254565b88613108565b6121a48287611f7a565b5201612176565b50935050905090565b519069ffffffffffffffffffff8216820361026557565b908160a0910312610265576121df816121b4565b916020820151916040810151916103576080606084015193016121b4565b51906001600160801b038216820361026557565b9081602091031261026557610357906121fd565b6001600160a01b038181165f90815260026020526040902061224a906105fa90610866565b1661231a576105fa61225b91612394565b60405163e7dad6bd60e01b815290602082600481845afa918215610305575f926122f9575b506001600160a01b0382166122955750505f90565b6040516341976e0960e01b81526001600160a01b03909216600483015260209082908180602481015b03915afa8015610305576001600160801b03915f916122dc57501690565b6122f5915060203d60201161157c5761156e8183611f18565b1690565b61231391925060203d6020116102fe576102f08183611f18565b905f612280565b60a061233e6105fa61086660049460018060a01b03165f52600260205260405f2090565b604051633fabe5a360e21b815292839182905afa908115610305575f91612363575090565b612385915060a03d60a01161238d575b61237d8183611f18565b8101906121cb565b505050905090565b503d612373565b6001600160a01b0381165f9081526001602052604090206123b490610866565b6001600160a01b03811661249557506005546123d8906001600160a01b03166105fa565b80612423575b60405162461bcd60e51b815260206004820152601960248201527f436f6d706f756e643a20636f6d6574206e6f7420666f756e64000000000000006044820152606490fd5b6040516326e46ed360e01b81526001600160a01b0392831660048201529160209183916024918391165afa5f9181612474575b50612462575b806123de565b6001600160a01b0381161561245c5790565b61248e91925060203d6020116102fe576102f08183611f18565b905f612456565b905090565b906127108202918083046127101490151715611fb557565b81810292918115918404141715611fb557565b81156124cf570490565b634e487b7160e01b5f52601260045260245ffd5b6124ec90612394565b60405163a46fe83b60e01b81525f9283926001600160a01b03169190602082600481865afa918215610305575f9261275a575b5091905f925b60ff821660ff8516106125605750505050801561255a576127108202918083046127101490151715611fb557610357916124c5565b50505f90565b60405163c8c7fe6b60e01b815260ff85166004820152939593949293919290919061010086602481885afa958615610305575f96612739575b5060208601516125e0906040906001600160a01b03165b8151632b92a07d60e01b81526001600160a01b038088166004830152909116602482015291829081906044820190565b0381895afa8015610305576001600160801b03915f9161270a575b501680156126fb576040870151612645939291906020906001600160a01b03165b6040516341976e0960e01b81526001600160a01b03909116600482015294859081906024820190565b03818a5afa928315610305576126c96112376001946126c361122660a06126b48f6126ad906126a761122660ff9f60ff9f6126cf9e6001600160801b03612698926060945f916126dd575b5016906124b2565b9301516001600160401b031690565b906124c5565b8095612f3f565b9e01516001600160401b031690565b906124b2565b90612f3f565b975b01169392919050612525565b6126f5915060203d811161157c5761156e8183611f18565b5f612690565b5094509460ff600181926126d1565b61272b915060403d8111612732575b6127238183611f18565b810190612976565b505f6125fb565b503d612719565b6127539196506101003d811161128d5761127e8183611f18565b945f612599565b61277491925060203d60201161067f576106718183611f18565b905f61251f565b51906001600160401b038216820361026557565b90816101009103126102655761282460e0604051926127ad84611ef7565b6127b681612076565b84526127c460208201611f39565b60208501526127d560408201611f39565b60408501526127e66060820161277b565b60608501526127f76080820161277b565b608085015261280860a0820161277b565b60a085015261281960c0820161277b565b60c0850152016121fd565b60e082015290565b604051636072aa0760e01b81526001600160a01b03919091166004820152602081602481305afa5f9181612955575b506128695750610357611fe0565b60405163a46fe83b60e01b81526001600160a01b03919091169190602081600481865afa80156103055760ff915f91612936575b5016906128a982611ffb565b5f5b60ff8116908482101561292d5760405163c8c7fe6b60e01b815260ff8216600482015290610100826024818a5afa80156103055760ff936105986112546020612907946001975f9161290e575b5001516001600160a01b031690565b01166128ab565b61292791506101003d811161128d5761127e8183611f18565b5f6128f8565b50509150915090565b61294f915060203d60201161067f576106718183611f18565b5f61289d565b61296f91925060203d6020116102fe576102f08183611f18565b905f61285b565b9190826040910312610265576103576020612990846121fd565b93016121fd565b602081830312610265578051906001600160401b038211610265570181601f82011215610265578051906001600160401b038211611f1357604051926129e7601f8401601f191660200185611f18565b8284526020838301011161026557815f9260208093018386015e8301015290565b6105fa612a1791939293612394565b9060405163a46fe83b60e01b8152602081600481865afa80156103055760ff915f91612bfc575b501690612a4a82611ffb565b93612a548361202d565b92612a5e81611ffb565b945f90815b8360ff841610612a74575050505050565b60405163c8c7fe6b60e01b815260ff8416600482015261010081602481865afa90811561030557612ae0916020915f91612bdd575b5001805160408051632b92a07d60e01b81526001600160a01b038a8116600483015290921660248301529092839081906044820190565b0381875afa918215610305578b905f93612ba5575b50612b1b6105fa6105fa846105815f956105988a6111ff60049a5160018060a01b031690565b6040516395d89b4160e01b815292839182905afa92831561030557610647600193612b6c838e612b668f839060ff9b612b7a9a5f91612b83575b50612b608383611f7a565b52611f7a565b50611f7a565b906001600160801b03169052565b93011691612a63565b612b9f91503d805f833e612b978183611f18565b810190612997565b5f612b55565b5f9193506105fa6105fa600494610581612bcf612b1b9560403d8111612732576127238183611f18565b509795505094505050612af5565b612bf691506101003d811161128d5761127e8183611f18565b5f612aa9565b612c15915060203d60201161067f576106718183611f18565b5f612a3e565b90816020910312610265576103579061277b565b60405190600354808352826020810160035f5260205f20925f5b818110612c5e575050611f4492500383611f18565b84546001600160a01b0316835260019485019487945060209093019201612c49565b604051636072aa0760e01b81526001600160a01b03919091166004820152909190602081602481305afa5f9181612d8e575b50612cbd57505f9150565b60405163a46fe83b60e01b815292906001600160a01b0316602084600481845afa938415610305575f94612d6d575b505f5b60ff851660ff821610612d0457505f93505050565b60405163c8c7fe6b60e01b815260ff8216600482015261010081602481865afa90811561030557612d47916020915f9161290e575001516001600160a01b031690565b6001600160a01b03848116911614612d645760010160ff16612cef565b50600193505050565b612d8791945060203d60201161067f576106718183611f18565b925f612cec565b612da891925060203d6020116102fe576102f08183611f18565b905f612cb2565b15612db657565b60405162461bcd60e51b815260206004820152601f60248201527f436f6d706f756e643a2077726974652067617465776179206e6f7420736574006044820152606490fd5b602081830312610265578051906001600160401b03821161026557019080601f83011215610265578151612e2e81611fc9565b92612e3c6040519485611f18565b81845260208085019260051b82010192831161026557602001905b828210612e645750505090565b602080918351612e7381610254565b815201910190612e57565b15612e8557565b60405162461bcd60e51b815260206004820152600e60248201526d436f6d706f756e643a207a65726f60901b6044820152606490fd5b90612ec582611fc9565b612ed26040519182611f18565b8281528092612ee3601f1991611fc9565b015f5b818110612ef257505050565b6040519060c08201918083106001600160401b03841117611f13576020926040525f81525f838201525f60408201525f60608201525f60808201525f60a082015282828601015201612ee6565b91908201809211611fb557565b612f54612c2f565b6005549091906001600160a01b0316806130565750612f71611fe0565b905b612f88612f838451845190612f3f565b611ffb565b925f915f5b8251811015612fc25780612fbc612fa961058160019487611f7a565b610598612fb588611fa7565b978a611f7a565b01612f8d565b509290505f5b815181101561305057612fde6105818284611f7a565b5f6001600160a01b038216815b868110613024575b5050906001929115613007575b5001612fc8565b61301e9061059861301787611fa7565b9689611f7a565b5f613000565b816130356105fa610581848d611f7a565b1461304257600101612feb565b50600191508190505f612ff3565b50508252565b6004905f9061306d906001600160a01b03166105fa565b604051633aafb16760e11b815292839182905afa908115610305575f91613096575b5090612f73565b6130aa91503d805f833e610fcc8183611f18565b5f61308f565b156130b757565b60405162461bcd60e51b8152602060048201526024808201527f436f6d706f756e643a20636f6d6574206e6f7420696e207772697465206761746044820152636577617960e01b6064820152608490fd5b61010061311a6105fa61314493612394565b604051631d9df61760e11b81526001600160a01b0390941660048501529291829081906024820190565b0381855afa9182156103055761317160406122be946020945f9161290e575001516001600160a01b031690565b6040516341976e0960e01b81526001600160a01b03909116600482015292839190829081906024820190565b6131a690612394565b60405163a46fe83b60e01b81525f9283926001600160a01b03169190602082600481865afa918215610305575f92613357575b5091905f925b60ff821660ff8516106132145750505050801561255a576127108202918083046127101490151715611fb557610357916124c5565b60405163c8c7fe6b60e01b815260ff85166004820152939593949293919290919061010086602481885afa958615610305575f96613336575b506020860151613268906040906001600160a01b03166125b0565b0381895afa8015610305576001600160801b03915f91613317575b501680156133085760408701516132a8939291906020906001600160a01b031661261c565b03818a5afa928315610305576126c96112376001946126c361122660806126b48f6126ad906126a761122660ff9f60ff9f6132fa9e6001600160801b03612698926060945f916126dd575016906124b2565b975b011693929190506131df565b5094509460ff600181926132fc565b61332f915060403d8111612732576127238183611f18565b505f613283565b6133509196506101003d811161128d5761127e8183611f18565b945f61324d565b61337191925060203d60201161067f576106718183611f18565b905f6131d9565b5f546001600160a01b0316330361338b57565b63118cdaa760e01b5f523360045260245ffdfebd7bf039bc2e612983f7f581f4b5d456d978092d546243d55a7b3f8594fb9796a264697066735822122021310dd8fa7dbc3cd2e4253acad3161ad904fc1f008e9ba703173f7bc803590764736f6c634300081e0033",
  "devdoc": {
    "details": "Contains all read/view functions from v1, separate from write operations",
    "errors": {
      "OwnableInvalidOwner(address)": [
        {
          "details": "The owner is not a valid owner account. (eg. `address(0)`)"
        }
      ],
      "OwnableUnauthorizedAccount(address)": [
        {
          "details": "The caller account is not authorized to perform an operation."
        }
      ]
    },
    "kind": "dev",
    "methods": {
      "getBaseTokenInfo(address)": {
        "params": {
          "market": "The base token address"
        },
        "returns": {
          "baseToken": "The base token address",
          "decimals": "The base token decimals",
          "price": "The base token price",
          "priceScale": "The Comet's price scale"
        }
      },
      "getReserveConfigs(address)": {
        "details": "Returns price, LTV (borrow collateral factor), liquidation threshold for each collateral",
        "params": {
          "market": "The base token address (e.g., USDC) to identify the Comet"
        },
        "returns": {
          "configs": "Array of reserve configuration data for all collaterals in this market"
        }
      },
      "owner()": {
        "details": "Returns the address of the current owner."
      },
      "renounceOwnership()": {
        "details": "Leaves the contract without owner. It will not be possible to call `onlyOwner` functions. Can only be called by the current owner. NOTE: Renouncing ownership will leave the contract without an owner, thereby disabling any functionality that is only available to the owner."
      },
      "transferOwnership(address)": {
        "details": "Transfers ownership of the contract to a new account (`newOwner`). Can only be called by the current owner."
      }
    },
    "title": "CompoundGatewayView",
    "version": 1
  },
  "userdoc": {
    "kind": "user",
    "methods": {
      "allActiveBaseTokens()": {
        "notice": "Get all active base tokens (from allActiveComets)"
      },
      "allActiveComets()": {
        "notice": "Get all active Comets (union of local + write gateway registries)"
      },
      "allBaseTokens()": {
        "notice": "Get all base tokens for registered Comets"
      },
      "getBaseTokenInfo(address)": {
        "notice": "Get base token info for a market (debt token)"
      },
      "getComet(address)": {
        "notice": "Get Comet for base token, falling back to write gateway if not found locally"
      },
      "getReserveConfigs(address)": {
        "notice": "Get reserve configuration data for a Compound market (for frontend LTV calculations)"
      },
      "setWriteGateway(address)": {
        "notice": "Set the write gateway address for syncing Comet registry"
      },
      "syncAllCometsFromWriteGateway()": {
        "notice": "Sync all Comets from write gateway"
      },
      "syncCometFromWriteGateway(address)": {
        "notice": "Sync a Comet from the write gateway to this view gateway"
      }
    },
    "notice": "View-only gateway for Compound Comet protocol",
    "version": 1
  },
  "storageLayout": {
    "storage": [
      {
        "astId": 54,
        "contract": "contracts/v2/gateways/compound/CompoundGatewayView.sol:CompoundGatewayView",
        "label": "_owner",
        "offset": 0,
        "slot": "0",
        "type": "t_address"
      },
      {
        "astId": 1017,
        "contract": "contracts/v2/gateways/compound/CompoundGatewayView.sol:CompoundGatewayView",
        "label": "tokenToComet",
        "offset": 0,
        "slot": "1",
        "type": "t_mapping(t_address,t_contract(ICompoundComet)3318)"
      },
      {
        "astId": 1022,
        "contract": "contracts/v2/gateways/compound/CompoundGatewayView.sol:CompoundGatewayView",
        "label": "overrideFeeds",
        "offset": 0,
        "slot": "2",
        "type": "t_mapping(t_address,t_contract(AggregatorV3Interface)45)"
      },
      {
        "astId": 1025,
        "contract": "contracts/v2/gateways/compound/CompoundGatewayView.sol:CompoundGatewayView",
        "label": "_comets",
        "offset": 0,
        "slot": "3",
        "type": "t_array(t_address)dyn_storage"
      },
      {
        "astId": 1029,
        "contract": "contracts/v2/gateways/compound/CompoundGatewayView.sol:CompoundGatewayView",
        "label": "_isRegistered",
        "offset": 0,
        "slot": "4",
        "type": "t_mapping(t_address,t_bool)"
      },
      {
        "astId": 1031,
        "contract": "contracts/v2/gateways/compound/CompoundGatewayView.sol:CompoundGatewayView",
        "label": "writeGateway",
        "offset": 0,
        "slot": "5",
        "type": "t_address"
      }
    ],
    "types": {
      "t_address": {
        "encoding": "inplace",
        "label": "address",
        "numberOfBytes": "20"
      },
      "t_array(t_address)dyn_storage": {
        "base": "t_address",
        "encoding": "dynamic_array",
        "label": "address[]",
        "numberOfBytes": "32"
      },
      "t_bool": {
        "encoding": "inplace",
        "label": "bool",
        "numberOfBytes": "1"
      },
      "t_contract(AggregatorV3Interface)45": {
        "encoding": "inplace",
        "label": "contract AggregatorV3Interface",
        "numberOfBytes": "20"
      },
      "t_contract(ICompoundComet)3318": {
        "encoding": "inplace",
        "label": "contract ICompoundComet",
        "numberOfBytes": "20"
      },
      "t_mapping(t_address,t_bool)": {
        "encoding": "mapping",
        "key": "t_address",
        "label": "mapping(address => bool)",
        "numberOfBytes": "32",
        "value": "t_bool"
      },
      "t_mapping(t_address,t_contract(AggregatorV3Interface)45)": {
        "encoding": "mapping",
        "key": "t_address",
        "label": "mapping(address => contract AggregatorV3Interface)",
        "numberOfBytes": "32",
        "value": "t_contract(AggregatorV3Interface)45"
      },
      "t_mapping(t_address,t_contract(ICompoundComet)3318)": {
        "encoding": "mapping",
        "key": "t_address",
        "label": "mapping(address => contract ICompoundComet)",
        "numberOfBytes": "32",
        "value": "t_contract(ICompoundComet)3318"
      }
    }
  }
}