{
  "address": "0x06281379100b9D7c7b60ec137b116B151E217e06",
  "abi": [
    {
      "inputs": [
        {
          "internalType": "address",
          "name": "router",
          "type": "address"
        },
        {
          "internalType": "contract ICompoundComet[]",
          "name": "_comets",
          "type": "address[]"
        },
        {
          "internalType": "contract FeedRegistryInterface",
          "name": "_priceFeed",
          "type": "address"
        },
        {
          "internalType": "address",
          "name": "_owner",
          "type": "address"
        }
      ],
      "stateMutability": "nonpayable",
      "type": "constructor"
    },
    {
      "inputs": [
        {
          "internalType": "address",
          "name": "target",
          "type": "address"
        }
      ],
      "name": "AddressEmptyCode",
      "type": "error"
    },
    {
      "inputs": [
        {
          "internalType": "address",
          "name": "account",
          "type": "address"
        }
      ],
      "name": "AddressInsufficientBalance",
      "type": "error"
    },
    {
      "inputs": [],
      "name": "FailedInnerCall",
      "type": "error"
    },
    {
      "inputs": [
        {
          "internalType": "address",
          "name": "owner",
          "type": "address"
        }
      ],
      "name": "OwnableInvalidOwner",
      "type": "error"
    },
    {
      "inputs": [
        {
          "internalType": "address",
          "name": "account",
          "type": "address"
        }
      ],
      "name": "OwnableUnauthorizedAccount",
      "type": "error"
    },
    {
      "inputs": [],
      "name": "ReentrancyGuardReentrantCall",
      "type": "error"
    },
    {
      "inputs": [
        {
          "internalType": "address",
          "name": "token",
          "type": "address"
        }
      ],
      "name": "SafeERC20FailedOperation",
      "type": "error"
    },
    {
      "anonymous": false,
      "inputs": [
        {
          "indexed": true,
          "internalType": "address",
          "name": "market",
          "type": "address"
        },
        {
          "indexed": true,
          "internalType": "address",
          "name": "collateral",
          "type": "address"
        },
        {
          "indexed": true,
          "internalType": "address",
          "name": "user",
          "type": "address"
        },
        {
          "indexed": false,
          "internalType": "uint256",
          "name": "amount",
          "type": "uint256"
        }
      ],
      "name": "CollateralWithdrawn",
      "type": "event"
    },
    {
      "anonymous": false,
      "inputs": [
        {
          "indexed": true,
          "internalType": "address",
          "name": "previousOwner",
          "type": "address"
        },
        {
          "indexed": true,
          "internalType": "address",
          "name": "newOwner",
          "type": "address"
        }
      ],
      "name": "OwnershipTransferred",
      "type": "event"
    },
    {
      "inputs": [],
      "name": "ROUTER",
      "outputs": [
        {
          "internalType": "address",
          "name": "",
          "type": "address"
        }
      ],
      "stateMutability": "view",
      "type": "function"
    },
    {
      "inputs": [
        {
          "internalType": "address",
          "name": "token",
          "type": "address"
        },
        {
          "internalType": "address",
          "name": "user",
          "type": "address"
        },
        {
          "internalType": "uint256",
          "name": "amount",
          "type": "uint256"
        }
      ],
      "name": "borrow",
      "outputs": [],
      "stateMutability": "nonpayable",
      "type": "function"
    },
    {
      "inputs": [
        {
          "internalType": "address",
          "name": "token",
          "type": "address"
        },
        {
          "internalType": "address",
          "name": "user",
          "type": "address"
        },
        {
          "internalType": "uint256",
          "name": "amount",
          "type": "uint256"
        }
      ],
      "name": "deposit",
      "outputs": [],
      "stateMutability": "nonpayable",
      "type": "function"
    },
    {
      "inputs": [
        {
          "internalType": "address",
          "name": "market",
          "type": "address"
        },
        {
          "internalType": "address",
          "name": "collateral",
          "type": "address"
        },
        {
          "internalType": "uint256",
          "name": "amount",
          "type": "uint256"
        },
        {
          "internalType": "address",
          "name": "receiver",
          "type": "address"
        }
      ],
      "name": "depositCollateral",
      "outputs": [],
      "stateMutability": "nonpayable",
      "type": "function"
    },
    {
      "inputs": [
        {
          "internalType": "address",
          "name": "token",
          "type": "address"
        },
        {
          "internalType": "address",
          "name": "user",
          "type": "address"
        }
      ],
      "name": "getBalance",
      "outputs": [
        {
          "internalType": "uint256",
          "name": "",
          "type": "uint256"
        }
      ],
      "stateMutability": "view",
      "type": "function"
    },
    {
      "inputs": [
        {
          "internalType": "contract ICompoundComet",
          "name": "comet",
          "type": "address"
        }
      ],
      "name": "getBaseToken",
      "outputs": [
        {
          "internalType": "address",
          "name": "",
          "type": "address"
        }
      ],
      "stateMutability": "view",
      "type": "function"
    },
    {
      "inputs": [
        {
          "internalType": "address",
          "name": "token",
          "type": "address"
        },
        {
          "internalType": "address",
          "name": "user",
          "type": "address"
        }
      ],
      "name": "getBorrowBalance",
      "outputs": [
        {
          "internalType": "uint256",
          "name": "",
          "type": "uint256"
        }
      ],
      "stateMutability": "view",
      "type": "function"
    },
    {
      "inputs": [
        {
          "internalType": "address",
          "name": "token",
          "type": "address"
        }
      ],
      "name": "getBorrowRate",
      "outputs": [
        {
          "internalType": "uint256",
          "name": "borrowRate",
          "type": "uint256"
        },
        {
          "internalType": "bool",
          "name": "success",
          "type": "bool"
        }
      ],
      "stateMutability": "view",
      "type": "function"
    },
    {
      "inputs": [
        {
          "internalType": "address",
          "name": "market",
          "type": "address"
        },
        {
          "internalType": "address",
          "name": "asset",
          "type": "address"
        }
      ],
      "name": "getCollateralPrice",
      "outputs": [
        {
          "internalType": "uint256",
          "name": "",
          "type": "uint256"
        }
      ],
      "stateMutability": "view",
      "type": "function"
    },
    {
      "inputs": [
        {
          "internalType": "address",
          "name": "token",
          "type": "address"
        },
        {
          "internalType": "address",
          "name": "account",
          "type": "address"
        }
      ],
      "name": "getCompoundData",
      "outputs": [
        {
          "internalType": "uint256",
          "name": "supplyRate",
          "type": "uint256"
        },
        {
          "internalType": "uint256",
          "name": "borrowRate",
          "type": "uint256"
        },
        {
          "internalType": "uint256",
          "name": "balance",
          "type": "uint256"
        },
        {
          "internalType": "uint256",
          "name": "borrowBalance",
          "type": "uint256"
        },
        {
          "internalType": "uint256",
          "name": "price",
          "type": "uint256"
        },
        {
          "internalType": "uint256",
          "name": "priceScale",
          "type": "uint256"
        }
      ],
      "stateMutability": "view",
      "type": "function"
    },
    {
      "inputs": [
        {
          "internalType": "address",
          "name": "token",
          "type": "address"
        },
        {
          "internalType": "address",
          "name": "account",
          "type": "address"
        }
      ],
      "name": "getDepositedCollaterals",
      "outputs": [
        {
          "internalType": "address[]",
          "name": "collaterals",
          "type": "address[]"
        },
        {
          "internalType": "uint128[]",
          "name": "balances",
          "type": "uint128[]"
        },
        {
          "internalType": "string[]",
          "name": "displayNames",
          "type": "string[]"
        }
      ],
      "stateMutability": "view",
      "type": "function"
    },
    {
      "inputs": [
        {
          "internalType": "address",
          "name": "token",
          "type": "address"
        },
        {
          "components": [
            {
              "internalType": "address",
              "name": "token",
              "type": "address"
            },
            {
              "internalType": "uint256",
              "name": "amount",
              "type": "uint256"
            }
          ],
          "internalType": "struct IGateway.Collateral[]",
          "name": "",
          "type": "tuple[]"
        }
      ],
      "name": "getEncodedCollateralApprovals",
      "outputs": [
        {
          "internalType": "address[]",
          "name": "target",
          "type": "address[]"
        },
        {
          "internalType": "bytes[]",
          "name": "data",
          "type": "bytes[]"
        }
      ],
      "stateMutability": "view",
      "type": "function"
    },
    {
      "inputs": [
        {
          "internalType": "address",
          "name": "token",
          "type": "address"
        },
        {
          "internalType": "uint256",
          "name": "",
          "type": "uint256"
        }
      ],
      "name": "getEncodedDebtApproval",
      "outputs": [
        {
          "internalType": "address[]",
          "name": "target",
          "type": "address[]"
        },
        {
          "internalType": "bytes[]",
          "name": "data",
          "type": "bytes[]"
        }
      ],
      "stateMutability": "view",
      "type": "function"
    },
    {
      "inputs": [
        {
          "internalType": "address",
          "name": "token",
          "type": "address"
        },
        {
          "internalType": "address",
          "name": "user",
          "type": "address"
        }
      ],
      "name": "getLtv",
      "outputs": [
        {
          "internalType": "uint256",
          "name": "",
          "type": "uint256"
        }
      ],
      "stateMutability": "view",
      "type": "function"
    },
    {
      "inputs": [
        {
          "internalType": "address",
          "name": "token",
          "type": "address"
        }
      ],
      "name": "getMaxLtv",
      "outputs": [
        {
          "internalType": "uint256",
          "name": "",
          "type": "uint256"
        }
      ],
      "stateMutability": "view",
      "type": "function"
    },
    {
      "inputs": [
        {
          "internalType": "address",
          "name": "token",
          "type": "address"
        },
        {
          "internalType": "address",
          "name": "user",
          "type": "address"
        }
      ],
      "name": "getPossibleCollaterals",
      "outputs": [
        {
          "internalType": "address[]",
          "name": "collateralAddresses",
          "type": "address[]"
        },
        {
          "internalType": "uint256[]",
          "name": "balances",
          "type": "uint256[]"
        },
        {
          "internalType": "string[]",
          "name": "symbols",
          "type": "string[]"
        },
        {
          "internalType": "uint8[]",
          "name": "decimals",
          "type": "uint8[]"
        }
      ],
      "stateMutability": "view",
      "type": "function"
    },
    {
      "inputs": [
        {
          "internalType": "address",
          "name": "token",
          "type": "address"
        }
      ],
      "name": "getPrice",
      "outputs": [
        {
          "internalType": "uint256",
          "name": "",
          "type": "uint256"
        }
      ],
      "stateMutability": "view",
      "type": "function"
    },
    {
      "inputs": [
        {
          "internalType": "address",
          "name": "market",
          "type": "address"
        },
        {
          "internalType": "address[]",
          "name": "tokens",
          "type": "address[]"
        }
      ],
      "name": "getPrices",
      "outputs": [
        {
          "internalType": "uint256[]",
          "name": "",
          "type": "uint256[]"
        }
      ],
      "stateMutability": "view",
      "type": "function"
    },
    {
      "inputs": [
        {
          "internalType": "address",
          "name": "token",
          "type": "address"
        }
      ],
      "name": "getSupplyRate",
      "outputs": [
        {
          "internalType": "uint256",
          "name": "supplyRate",
          "type": "uint256"
        },
        {
          "internalType": "bool",
          "name": "success",
          "type": "bool"
        }
      ],
      "stateMutability": "view",
      "type": "function"
    },
    {
      "inputs": [
        {
          "internalType": "address",
          "name": "market",
          "type": "address"
        }
      ],
      "name": "getSupportedCollaterals",
      "outputs": [
        {
          "internalType": "address[]",
          "name": "collateralAddresses",
          "type": "address[]"
        }
      ],
      "stateMutability": "view",
      "type": "function"
    },
    {
      "inputs": [
        {
          "internalType": "address",
          "name": "market",
          "type": "address"
        },
        {
          "internalType": "address",
          "name": "collateral",
          "type": "address"
        }
      ],
      "name": "isCollateralSupported",
      "outputs": [
        {
          "internalType": "bool",
          "name": "isSupported",
          "type": "bool"
        }
      ],
      "stateMutability": "view",
      "type": "function"
    },
    {
      "inputs": [
        {
          "internalType": "address",
          "name": "token",
          "type": "address"
        },
        {
          "internalType": "contract AggregatorV3Interface",
          "name": "feed",
          "type": "address"
        }
      ],
      "name": "overrideFeed",
      "outputs": [],
      "stateMutability": "nonpayable",
      "type": "function"
    },
    {
      "inputs": [
        {
          "internalType": "address",
          "name": "",
          "type": "address"
        }
      ],
      "name": "overrideFeeds",
      "outputs": [
        {
          "internalType": "contract AggregatorV3Interface",
          "name": "",
          "type": "address"
        }
      ],
      "stateMutability": "view",
      "type": "function"
    },
    {
      "inputs": [],
      "name": "owner",
      "outputs": [
        {
          "internalType": "address",
          "name": "",
          "type": "address"
        }
      ],
      "stateMutability": "view",
      "type": "function"
    },
    {
      "inputs": [],
      "name": "priceFeed",
      "outputs": [
        {
          "internalType": "contract FeedRegistryInterface",
          "name": "",
          "type": "address"
        }
      ],
      "stateMutability": "view",
      "type": "function"
    },
    {
      "inputs": [],
      "name": "renounceOwnership",
      "outputs": [],
      "stateMutability": "nonpayable",
      "type": "function"
    },
    {
      "inputs": [
        {
          "internalType": "address",
          "name": "token",
          "type": "address"
        },
        {
          "internalType": "address",
          "name": "user",
          "type": "address"
        },
        {
          "internalType": "uint256",
          "name": "amount",
          "type": "uint256"
        }
      ],
      "name": "repay",
      "outputs": [],
      "stateMutability": "nonpayable",
      "type": "function"
    },
    {
      "inputs": [
        {
          "internalType": "address",
          "name": "",
          "type": "address"
        }
      ],
      "name": "tokenToComet",
      "outputs": [
        {
          "internalType": "contract ICompoundComet",
          "name": "",
          "type": "address"
        }
      ],
      "stateMutability": "view",
      "type": "function"
    },
    {
      "inputs": [
        {
          "internalType": "address",
          "name": "newOwner",
          "type": "address"
        }
      ],
      "name": "transferOwnership",
      "outputs": [],
      "stateMutability": "nonpayable",
      "type": "function"
    },
    {
      "inputs": [
        {
          "internalType": "address",
          "name": "market",
          "type": "address"
        },
        {
          "internalType": "address",
          "name": "collateral",
          "type": "address"
        },
        {
          "internalType": "address",
          "name": "user",
          "type": "address"
        },
        {
          "internalType": "uint256",
          "name": "amount",
          "type": "uint256"
        }
      ],
      "name": "withdrawCollateral",
      "outputs": [
        {
          "internalType": "address",
          "name": "",
          "type": "address"
        }
      ],
      "stateMutability": "nonpayable",
      "type": "function"
    }
  ],
  "transactionHash": "0xadba82e50707a7d5fd74e228ee0c68b56e7251fd0ddec484af4536934e64aa79",
  "args": [
    "0x712ad471D73031AB13f94E40acDac5f21E9e78d9",
    [
      "0x9c4ec768c28520B50860ea7a15bd7213a9fF58bf",
      "0xd98Be00b5D27fc98112BdE293e487f8D4cA57d07",
      "0xA5EDBDD9646f8dFF606d7448e414884C7d905dCA",
      "0x6f7D514bbD4aFf3BcD1140B7344b32f063dEe486"
    ],
    "0x0000000000000000000000000000000000000000",
    "0x58d21499B5A3374a486B3F412Cca43b76692eF15"
  ],
  "numDeployments": 3,
  "solcInputHash": "8d0205b252890f7f3337dcb9ae787445",
  "bytecode": "0x60a06040523480156200001157600080fd5b5060405162003121380380620031218339810160408190526200003491620002bd565b80846001600160a01b038116620000925760405162461bcd60e51b815260206004820152601d60248201527f526f7574657220616464726573732063616e6e6f74206265207a65726f00000060448201526064015b60405180910390fd5b6001600160a01b039081166080528116620000c457604051631e4fbdf760e01b81526000600482015260240162000089565b620000cf816200022c565b506001805560005b8351811015620002015760006001600160a01b0316848281518110620001015762000101620003cd565b60200260200101516001600160a01b031614620001ec578381815181106200012d576200012d620003cd565b6020026020010151600260008684815181106200014e576200014e620003cd565b60200260200101516001600160a01b031663c55dae636040518163ffffffff1660e01b8152600401602060405180830381865afa15801562000194573d6000803e3d6000fd5b505050506040513d601f19601f82011682018060405250810190620001ba9190620003e3565b6001600160a01b039081168252602082019290925260400160002080546001600160a01b031916929091169190911790555b80620001f8816200040a565b915050620000d7565b5050600380546001600160a01b0319166001600160a01b039290921691909117905550620004329050565b600080546001600160a01b038381166001600160a01b0319831681178455604051919092169283917f8be0079c531659141344cd1fd0a4f28419497f9722a3daafe3b4186f6b6457e09190a35050565b6001600160a01b03811681146200029257600080fd5b50565b8051620002a2816200027c565b919050565b634e487b7160e01b600052604160045260246000fd5b60008060008060808587031215620002d457600080fd5b8451620002e1816200027c565b602086810151919550906001600160401b03808211156200030157600080fd5b818801915088601f8301126200031657600080fd5b8151818111156200032b576200032b620002a7565b8060051b604051601f19603f83011681018181108582111715620003535762000353620002a7565b60405291825284820192508381018501918b8311156200037257600080fd5b938501935b828510156200039b576200038b8562000295565b8452938501939285019262000377565b809850505050505050620003b26040860162000295565b9150620003c26060860162000295565b905092959194509250565b634e487b7160e01b600052603260045260246000fd5b600060208284031215620003f657600080fd5b815162000403816200027c565b9392505050565b6000600182016200042b57634e487b7160e01b600052601160045260246000fd5b5060010190565b608051612cc56200045c600039600081816102a901528181610e220152610eb80152612cc56000f3fe608060405234801561001057600080fd5b50600436106101da5760003560e01c80636b5441a911610104578063d4fac45d116100a2578063f2dbd07011610071578063f2dbd070146104b1578063f2f1be1e146104c4578063f2fde38b146104ed578063f5125d3f1461050057600080fd5b8063d4fac45d14610438578063d5c561d61461044b578063d71275f61461045e578063e9db3c9f1461047157600080fd5b806378466113116100de57806378466113146103d05780638340f549146103f35780638da5cb5b14610406578063a342986c1461041757600080fd5b80636b5441a91461038d578063715018a6146103b5578063741bef1a146103bd57600080fd5b80633613d5271161017c5780635820ba631161014b5780635820ba6314610324578063647e0c201461033757806366e2d09b1461034b57806369e65e491461036b57600080fd5b80633613d527146102cb5780634108d0af146102eb57806341976e09146102fe5780635224372c1461031157600080fd5b80631da649cf116101b85780631da649cf1461025357806324bddcfd1461026857806326e46ed31461027b57806332fe7b26146102a457600080fd5b80630c10fd0f146101df578063104e999d1461020f578063118e31b714610232575b600080fd5b6101f26101ed3660046123ca565b610516565b6040516001600160a01b0390911681526020015b60405180910390f35b61022261021d3660046123e7565b610580565b604051610206949392919061253c565b6102456102403660046123e7565b6108d8565b604051908152602001610206565b6102666102613660046125bd565b61095d565b005b6102666102763660046123e7565b610a79565b6101f26102893660046123ca565b6002602052600090815260409020546001600160a01b031681565b6101f27f000000000000000000000000000000000000000000000000000000000000000081565b6102de6102d93660046125fe565b610aaf565b6040516102069190612685565b6102666102f9366004612698565b610b65565b61024561030c3660046123ca565b610be7565b61026661031f3660046125bd565b610e16565b6101f26103323660046126eb565b610eaa565b6102456103453660046123ca565b50600090565b61035e6103593660046123ca565b611080565b604051610206919061273c565b61037e6103793660046123e7565b611235565b6040516102069392919061274f565b6103a061039b3660046123ca565b6115d0565b60408051928352901515602083015201610206565b6102666116eb565b6003546101f2906001600160a01b031681565b6103e36103de3660046123e7565b6116ff565b6040519015158152602001610206565b6102666104013660046125bd565b61185c565b6000546001600160a01b03166101f2565b61042a6104253660046127c2565b6118d4565b604051610206929190612836565b6102456104463660046123e7565b6119d6565b61042a610459366004612899565b611a17565b6103a061046c3660046123ca565b611b18565b61048461047f3660046123e7565b611b9a565b604080519687526020870195909552938501929092526060840152608083015260a082015260c001610206565b6102456104bf3660046123e7565b611ecf565b6101f26104d23660046123ca565b6004602052600090815260409020546001600160a01b031681565b6102666104fb3660046123ca565b611fd5565b61024561050e3660046123e7565b600092915050565b6000816001600160a01b031663c55dae636040518163ffffffff1660e01b8152600401602060405180830381865afa158015610556573d6000803e3d6000fd5b505050506040513d601f19601f8201168201806040525081019061057a91906128d5565b92915050565b60608060608060008060006105958989611235565b9250925092506000805b83518110156105f35760008482815181106105bc576105bc6128f2565b60200260200101516001600160801b031611156105e157816105dd8161291e565b9250505b806105eb8161291e565b91505061059f565b50806001600160401b0381111561060c5761060c612937565b604051908082528060200260200182016040528015610635578160200160208202803683370190505b509750806001600160401b0381111561065057610650612937565b604051908082528060200260200182016040528015610679578160200160208202803683370190505b509650806001600160401b0381111561069457610694612937565b6040519080825280602002602001820160405280156106c757816020015b60608152602001906001900390816106b25790505b509550806001600160401b038111156106e2576106e2612937565b60405190808252806020026020018201604052801561070b578160200160208202803683370190505b5094506000805b84518110156108c957600085828151811061072f5761072f6128f2565b60200260200101516001600160801b031611156108b757858181518110610758576107586128f2565b60200260200101518a8381518110610772576107726128f2565b60200260200101906001600160a01b031690816001600160a01b0316815250508481815181106107a4576107a46128f2565b60200260200101516001600160801b03168983815181106107c7576107c76128f2565b6020026020010181815250508381815181106107e5576107e56128f2565b60200260200101518883815181106107ff576107ff6128f2565b602002602001018190525085818151811061081c5761081c6128f2565b60200260200101516001600160a01b031663313ce5676040518163ffffffff1660e01b8152600401602060405180830381865afa158015610861573d6000803e3d6000fd5b505050506040513d601f19601f82011682018060405250810190610885919061295e565b878381518110610897576108976128f2565b60ff90921660209283029190910190910152816108b38161291e565b9250505b806108c18161291e565b915050610712565b50505050505092959194509250565b6001600160a01b03828116600090815260026020526040808220549051630dd3126d60e21b815284841660048201529192169063374c49b4906024015b602060405180830381865afa158015610932573d6000803e3d6000fd5b505050506040513d601f19601f820116820180604052508101906109569190612979565b9392505050565b610965612013565b61097a6001600160a01b03841633308461203d565b6001600160a01b038381166000818152600260205260409081902054905163095ea7b360e01b8152921660048301819052602483018490529163095ea7b3906044016020604051808303816000875af11580156109db573d6000803e3d6000fd5b505050506040513d601f19601f820116820180604052508101906109ff9190612992565b50604051634232cd6360e01b81526001600160a01b038481166004830152858116602483015260448201849052821690634232cd6390606401600060405180830381600087803b158015610a5257600080fd5b505af1158015610a66573d6000803e3d6000fd5b5050505050610a7460018055565b505050565b610a816120a4565b6001600160a01b03918216600090815260046020526040902080546001600160a01b03191691909216179055565b60606000826001600160401b03811115610acb57610acb612937565b604051908082528060200260200182016040528015610af4578160200160208202803683370190505b50905060005b83811015610b5c57610b2d86868684818110610b1857610b186128f2565b90506020020160208101906104bf91906123ca565b828281518110610b3f57610b3f6128f2565b602090810291909101015280610b548161291e565b915050610afa565b50949350505050565b6001600160a01b03808516600090815260026020526040902054859116610ba75760405162461bcd60e51b8152600401610b9e906129b4565b60405180910390fd5b610baf612013565b6001600160a01b0380861660009081526002602052604090205416610bd6818685876120d1565b50610be060018055565b5050505050565b6001600160a01b0381811660009081526004602052604081205490911615610c90576001600160a01b038083166000908152600460208190526040808320548151633fabe5a360e21b815291519394169263feaf968c928281019260a09291908290030181865afa158015610c60573d6000803e3d6000fd5b505050506040513d601f19601f82011682018060405250810190610c8491906129f8565b50919695505050505050565b6003546001600160a01b031615610cf45760035460405163bcfd032d60e01b81526001600160a01b0384811660048301526103486024830152600092169063bcfd032d9060440160a060405180830381865afa158015610c60573d6000803e3d6000fd5b6001600160a01b03808316600090815260026020908152604080832054815163e7dad6bd60e01b815291519394169263e7dad6bd926004808401939192918290030181865afa158015610d4b573d6000803e3d6000fd5b505050506040513d601f19601f82011682018060405250810190610d6f91906128d5565b90506001600160a01b03811615610e0d576001600160a01b03838116600090815260026020526040908190205490516341976e0960e01b815283831660048201529116906341976e0990602401602060405180830381865afa158015610dd9573d6000803e3d6000fd5b505050506040513d601f19601f82011682018060405250810190610dfd9190612a5f565b6001600160801b03169392505050565b50600092915050565b81336001600160a01b037f0000000000000000000000000000000000000000000000000000000000000000161480610e565750336001600160a01b038216145b610ea25760405162461bcd60e51b815260206004820152601c60248201527f4f6e6c7920726f75746572206f722073656c662063616e2063616c6c000000006044820152606401610b9e565b610be0848585855b600082336001600160a01b037f0000000000000000000000000000000000000000000000000000000000000000161480610eec5750336001600160a01b038216145b610f385760405162461bcd60e51b815260206004820152601c60248201527f4f6e6c7920726f75746572206f722073656c662063616e2063616c6c000000006044820152606401610b9e565b6001600160a01b03808716600090815260026020526040902054879116610f715760405162461bcd60e51b8152600401610b9e906129b4565b610f79612013565b6001600160a01b03878116600090815260026020526040908190205490516304c8826360e31b815287831660048201523060248201528883166044820152606481018790529116908190632644131890608401600060405180830381600087803b158015610fe657600080fd5b505af1158015610ffa573d6000803e3d6000fd5b50505050856001600160a01b0316876001600160a01b0316896001600160a01b03167f066ba4a8f1b0176abba8cd70012fabcaa801a97916823e068d94ec15deb9037a8860405161104d91815260200190565b60405180910390a46110696001600160a01b03881633876121ca565b8693505061107660018055565b5050949350505050565b6001600160a01b0380821660009081526002602052604090205460609116806110b9575050604080516000815260208101909152919050565b6000816001600160a01b031663a46fe83b6040518163ffffffff1660e01b8152600401602060405180830381865afa1580156110f9573d6000803e3d6000fd5b505050506040513d601f19601f8201168201806040525081019061111d919061295e565b90508060ff166001600160401b0381111561113a5761113a612937565b604051908082528060200260200182016040528015611163578160200160208202803683370190505b50925060005b8160ff168160ff16101561122d5760405163c8c7fe6b60e01b815260ff821660048201526000906001600160a01b0385169063c8c7fe6b9060240161010060405180830381865afa1580156111c2573d6000803e3d6000fd5b505050506040513d601f19601f820116820180604052508101906111e69190612a91565b90508060200151858360ff1681518110611202576112026128f2565b6001600160a01b0390921660209283029190910190910152508061122581612b5a565b915050611169565b505050919050565b6001600160a01b038083166000908152600260205260409020546060918291829116806112745760405162461bcd60e51b8152600401610b9e906129b4565b6000816001600160a01b031663a46fe83b6040518163ffffffff1660e01b8152600401602060405180830381865afa1580156112b4573d6000803e3d6000fd5b505050506040513d601f19601f820116820180604052508101906112d8919061295e565b90508060ff166001600160401b038111156112f5576112f5612937565b60405190808252806020026020018201604052801561131e578160200160208202803683370190505b5094508060ff166001600160401b0381111561133c5761133c612937565b60405190808252806020026020018201604052801561136f57816020015b606081526020019060019003908161135a5790505b5092508060ff166001600160401b0381111561138d5761138d612937565b6040519080825280602002602001820160405280156113b6578160200160208202803683370190505b5093506000805b8260ff168160ff1610156115c55760405163c8c7fe6b60e01b815260ff821660048201526000906001600160a01b0386169063c8c7fe6b9060240161010060405180830381865afa158015611416573d6000803e3d6000fd5b505050506040513d601f19601f8201168201806040525081019061143a9190612a91565b6020810151604051632b92a07d60e01b81526001600160a01b038c81166004830152918216602482015291925060009190871690632b92a07d906044016040805180830381865afa158015611493573d6000803e3d6000fd5b505050506040513d601f19601f820116820180604052508101906114b79190612b79565b50905081602001518985815181106114d1576114d16128f2565b60200260200101906001600160a01b031690816001600160a01b03168152505081602001516001600160a01b03166395d89b416040518163ffffffff1660e01b8152600401600060405180830381865afa158015611533573d6000803e3d6000fd5b505050506040513d6000823e601f3d908101601f1916820160405261155b9190810190612bac565b87858151811061156d5761156d6128f2565b60200260200101819052508088858151811061158b5761158b6128f2565b6001600160801b0390921660209283029190910190910152836115ad8161291e565b945050505080806115bd90612b5a565b9150506113bd565b505050509250925092565b6001600160a01b0380821660009081526002602052604081205490918291849116156116e5576001600160a01b03808516600090815260026020908152604091829020548251637eb7113160e01b8152925193169263d955759d928492637eb71131926004808401938290030181865afa158015611652573d6000803e3d6000fd5b505050506040513d601f19601f820116820180604052508101906116769190612979565b6040518263ffffffff1660e01b815260040161169491815260200190565b602060405180830381865afa1580156116b1573d6000803e3d6000fd5b505050506040513d601f19601f820116820180604052508101906116d59190612c58565b6001600160401b03169250600191505b50915091565b6116f36120a4565b6116fd60006121fb565b565b6001600160a01b038083166000908152600260205260408120549091168061172b57600091505061057a565b6000816001600160a01b031663a46fe83b6040518163ffffffff1660e01b8152600401602060405180830381865afa15801561176b573d6000803e3d6000fd5b505050506040513d601f19601f8201168201806040525081019061178f919061295e565b905060005b8160ff168160ff1610156118505760405163c8c7fe6b60e01b815260ff821660048201526000906001600160a01b0385169063c8c7fe6b9060240161010060405180830381865afa1580156117ed573d6000803e3d6000fd5b505050506040513d601f19601f820116820180604052508101906118119190612a91565b9050856001600160a01b031681602001516001600160a01b03160361183d57600194505050505061057a565b508061184881612b5a565b915050611794565b50600095945050505050565b6001600160a01b038084166000908152600260205260409020548491166118955760405162461bcd60e51b8152600401610b9e906129b4565b61189d612013565b6001600160a01b03808516600090815260026020526040902054166118c4818686866120d1565b506118ce60018055565b50505050565b6001600160a01b03838116600090815260026020526040908190205481516001808252818401909352606093849392169181602001602082028036833701905050604080516001808252818301909252919450816020015b606081526020019060019003908161192c5790505091508083600081518110611957576119576128f2565b6001600160a01b039290921660209283029190910182015260408051306024820152600160448083019190915282518083039091018152606490910190915290810180516001600160e01b031663110496e560e01b179052825183906000906119c2576119c26128f2565b602002602001018190525050935093915050565b6001600160a01b038281166000908152600260205260408082205490516370a0823160e01b81528484166004820152919216906370a0823190602401610915565b6001600160a01b03828116600090815260026020526040908190205481516001808252818401909352606093849392169181602001602082028036833701905050604080516001808252818301909252919450816020015b6060815260200190600190039081611a6f5790505091508083600081518110611a9a57611a9a6128f2565b6001600160a01b039290921660209283029190910182015260408051306024820152600160448083019190915282518083039091018152606490910190915290810180516001600160e01b031663110496e560e01b17905282518390600090611b0557611b056128f2565b6020026020010181905250509250929050565b6001600160a01b0380821660009081526002602052604081205490918291849116156116e5576001600160a01b03808516600090815260026020908152604091829020548251637eb7113160e01b81529251931692639fa83b5a928492637eb71131926004808401938290030181865afa158015611652573d6000803e3d6000fd5b6001600160a01b038083166000908152600260209081526040808320548151637eb7113160e01b815291519394859485948594859485941692839263d955759d928492637eb71131926004808401939192918290030181865afa158015611c05573d6000803e3d6000fd5b505050506040513d601f19601f82011682018060405250810190611c299190612979565b6040518263ffffffff1660e01b8152600401611c4791815260200190565b602060405180830381865afa158015611c64573d6000803e3d6000fd5b505050506040513d601f19601f82011682018060405250810190611c889190612c58565b6001600160401b03169650806001600160a01b0316639fa83b5a826001600160a01b0316637eb711316040518163ffffffff1660e01b8152600401602060405180830381865afa158015611ce0573d6000803e3d6000fd5b505050506040513d601f19601f82011682018060405250810190611d049190612979565b6040518263ffffffff1660e01b8152600401611d2291815260200190565b602060405180830381865afa158015611d3f573d6000803e3d6000fd5b505050506040513d601f19601f82011682018060405250810190611d639190612c58565b6040516370a0823160e01b81526001600160a01b038a811660048301526001600160401b03929092169750908216906370a0823190602401602060405180830381865afa158015611db8573d6000803e3d6000fd5b505050506040513d601f19601f82011682018060405250810190611ddc9190612979565b604051630dd3126d60e21b81526001600160a01b038a811660048301529196509082169063374c49b490602401602060405180830381865afa158015611e26573d6000803e3d6000fd5b505050506040513d601f19601f82011682018060405250810190611e4a9190612979565b9350611e5589610be7565b9250806001600160a01b031663a0fbddaf6040518163ffffffff1660e01b8152600401602060405180830381865afa158015611e95573d6000803e3d6000fd5b505050506040513d601f19601f82011682018060405250810190611eb99190612c58565b6001600160401b03169150509295509295509295565b6001600160a01b03828116600090815260026020526040808220549051631d9df61760e11b815284841660048201529192169082908290633b3bec2e9060240161010060405180830381865afa158015611f2d573d6000803e3d6000fd5b505050506040513d601f19601f82011682018060405250810190611f519190612a91565b60408181015190516341976e0960e01b81526001600160a01b0391821660048201529192508316906341976e0990602401602060405180830381865afa158015611f9f573d6000803e3d6000fd5b505050506040513d601f19601f82011682018060405250810190611fc39190612a5f565b6001600160801b031695945050505050565b611fdd6120a4565b6001600160a01b03811661200757604051631e4fbdf760e01b815260006004820152602401610b9e565b612010816121fb565b50565b60026001540361203657604051633ee5aeb560e01b815260040160405180910390fd5b6002600155565b6040516001600160a01b0384811660248301528381166044830152606482018390526118ce9186918216906323b872dd906084015b604051602081830303815290604052915060e01b6020820180516001600160e01b03838183161783525050505061224b565b6000546001600160a01b031633146116fd5760405163118cdaa760e01b8152336004820152602401610b9e565b6120e66001600160a01b03841633308461203d565b60405163095ea7b360e01b81526001600160a01b0385811660048301526024820183905284169063095ea7b3906044016020604051808303816000875af1158015612135573d6000803e3d6000fd5b505050506040513d601f19601f820116820180604052508101906121599190612992565b50604051634232cd6360e01b81526001600160a01b038381166004830152848116602483015260448201839052851690634232cd6390606401600060405180830381600087803b1580156121ac57600080fd5b505af11580156121c0573d6000803e3d6000fd5b5050505050505050565b6040516001600160a01b03838116602483015260448201839052610a7491859182169063a9059cbb90606401612072565b600080546001600160a01b038381166001600160a01b0319831681178455604051919092169283917f8be0079c531659141344cd1fd0a4f28419497f9722a3daafe3b4186f6b6457e09190a35050565b60006122606001600160a01b038416836122ae565b905080516000141580156122855750808060200190518101906122839190612992565b155b15610a7457604051635274afe760e01b81526001600160a01b0384166004820152602401610b9e565b60606109568383600084600080856001600160a01b031684866040516122d49190612c73565b60006040518083038185875af1925050503d8060008114612311576040519150601f19603f3d011682016040523d82523d6000602084013e612316565b606091505b5091509150612326868383612330565b9695505050505050565b606082612345576123408261238c565b610956565b815115801561235c57506001600160a01b0384163b155b1561238557604051639996b31560e01b81526001600160a01b0385166004820152602401610b9e565b5080610956565b80511561239c5780518082602001fd5b604051630a12f52160e11b815260040160405180910390fd5b6001600160a01b038116811461201057600080fd5b6000602082840312156123dc57600080fd5b8135610956816123b5565b600080604083850312156123fa57600080fd5b8235612405816123b5565b91506020830135612415816123b5565b809150509250929050565b600081518084526020808501945080840160005b838110156124595781516001600160a01b031687529582019590820190600101612434565b509495945050505050565b600081518084526020808501945080840160005b8381101561245957815187529582019590820190600101612478565b60005b838110156124af578181015183820152602001612497565b50506000910152565b600081518084526124d0816020860160208601612494565b601f01601f19169290920160200192915050565b600082825180855260208086019550808260051b84010181860160005b8481101561252f57601f1986840301895261251d8383516124b8565b98840198925090830190600101612501565b5090979650505050505050565b60808152600061254f6080830187612420565b6020838203818501526125628288612464565b9150838203604085015261257682876124e4565b8481036060860152855180825282870193509082019060005b818110156125ae57845160ff168352938301939183019160010161258f565b50909998505050505050505050565b6000806000606084860312156125d257600080fd5b83356125dd816123b5565b925060208401356125ed816123b5565b929592945050506040919091013590565b60008060006040848603121561261357600080fd5b833561261e816123b5565b925060208401356001600160401b038082111561263a57600080fd5b818601915086601f83011261264e57600080fd5b81358181111561265d57600080fd5b8760208260051b850101111561267257600080fd5b6020830194508093505050509250925092565b6020815260006109566020830184612464565b600080600080608085870312156126ae57600080fd5b84356126b9816123b5565b935060208501356126c9816123b5565b92506040850135915060608501356126e0816123b5565b939692955090935050565b6000806000806080858703121561270157600080fd5b843561270c816123b5565b9350602085013561271c816123b5565b9250604085013561272c816123b5565b9396929550929360600135925050565b6020815260006109566020830184612420565b6060815260006127626060830186612420565b82810360208481019190915285518083528682019282019060005b818110156127a25784516001600160801b03168352938301939183019160010161277d565b505084810360408601526127b681876124e4565b98975050505050505050565b6000806000604084860312156127d757600080fd5b83356127e2816123b5565b925060208401356001600160401b03808211156127fe57600080fd5b818601915086601f83011261281257600080fd5b81358181111561282157600080fd5b8760208260061b850101111561267257600080fd5b6040815260006128496040830185612420565b6020838203818501528185518084528284019150828160051b85010183880160005b838110156125ae57601f198784030185526128878383516124b8565b9486019492509085019060010161286b565b600080604083850312156128ac57600080fd5b82356128b7816123b5565b946020939093013593505050565b80516128d0816123b5565b919050565b6000602082840312156128e757600080fd5b8151610956816123b5565b634e487b7160e01b600052603260045260246000fd5b634e487b7160e01b600052601160045260246000fd5b60006001820161293057612930612908565b5060010190565b634e487b7160e01b600052604160045260246000fd5b805160ff811681146128d057600080fd5b60006020828403121561297057600080fd5b6109568261294d565b60006020828403121561298b57600080fd5b5051919050565b6000602082840312156129a457600080fd5b8151801515811461095657600080fd5b60208082526010908201526f10dbdb595d081a5cc81b9bdd081cd95d60821b604082015260600190565b805169ffffffffffffffffffff811681146128d057600080fd5b600080600080600060a08688031215612a1057600080fd5b612a19866129de565b9450602086015193506040860151925060608601519150612a3c608087016129de565b90509295509295909350565b80516001600160801b03811681146128d057600080fd5b600060208284031215612a7157600080fd5b61095682612a48565b80516001600160401b03811681146128d057600080fd5b6000610100808385031215612aa557600080fd5b604051908101906001600160401b0382118183101715612ac757612ac7612937565b81604052612ad48461294d565b815260208401519150612ae6826123b5565b816020820152612af8604085016128c5565b6040820152612b0960608501612a7a565b6060820152612b1a60808501612a7a565b6080820152612b2b60a08501612a7a565b60a0820152612b3c60c08501612a7a565b60c0820152612b4d60e08501612a48565b60e0820152949350505050565b600060ff821660ff8103612b7057612b70612908565b60010192915050565b60008060408385031215612b8c57600080fd5b612b9583612a48565b9150612ba360208401612a48565b90509250929050565b600060208284031215612bbe57600080fd5b81516001600160401b0380821115612bd557600080fd5b818401915084601f830112612be957600080fd5b815181811115612bfb57612bfb612937565b604051601f8201601f19908116603f01168101908382118183101715612c2357612c23612937565b81604052828152876020848701011115612c3c57600080fd5b612c4d836020830160208801612494565b979650505050505050565b600060208284031215612c6a57600080fd5b61095682612a7a565b60008251612c85818460208701612494565b919091019291505056fea264697066735822122039505d5ffdf6d744acdaa8f9e79f6cd91e57e7c56f8b23d9dd49d998ad76644a64736f6c63430008140033",
  "devdoc": {
    "errors": {
      "AddressEmptyCode(address)": [
        {
          "details": "There's no code at `target` (it is not a contract)."
        }
      ],
      "AddressInsufficientBalance(address)": [
        {
          "details": "The ETH balance of the account is not enough to perform the operation."
        }
      ],
      "FailedInnerCall()": [
        {
          "details": "A call to an address target failed. The target may have reverted."
        }
      ],
      "OwnableInvalidOwner(address)": [
        {
          "details": "The owner is not a valid owner account. (eg. `address(0)`)"
        }
      ],
      "OwnableUnauthorizedAccount(address)": [
        {
          "details": "The caller account is not authorized to perform an operation."
        }
      ],
      "ReentrancyGuardReentrantCall()": [
        {
          "details": "Unauthorized reentrant call."
        }
      ],
      "SafeERC20FailedOperation(address)": [
        {
          "details": "An operation with an ERC20 token failed."
        }
      ]
    },
    "kind": "dev",
    "methods": {
      "borrow(address,address,uint256)": {
        "details": "Can be called by Router or directly by the user",
        "params": {
          "amount": "The amount to borrow",
          "token": "The token to borrow",
          "user": "The user to borrow for"
        }
      },
      "getPrices(address,address[])": {
        "params": {
          "tokens": "Array of token addresses"
        },
        "returns": {
          "_0": "prices Array of token prices in USD (same decimals as individual getPrice calls)"
        }
      },
      "getSupportedCollaterals(address)": {
        "params": {
          "market": "The address of the market token"
        },
        "returns": {
          "collateralAddresses": "Array of supported collateral token addresses"
        }
      },
      "isCollateralSupported(address,address)": {
        "params": {
          "collateral": "The address of the collateral token to check",
          "market": "The address of the market token"
        },
        "returns": {
          "isSupported": "Whether the collateral is supported in the market"
        }
      },
      "owner()": {
        "details": "Returns the address of the current owner."
      },
      "renounceOwnership()": {
        "details": "Leaves the contract without owner. It will not be possible to call `onlyOwner` functions. Can only be called by the current owner. NOTE: Renouncing ownership will leave the contract without an owner, thereby disabling any functionality that is only available to the owner."
      },
      "transferOwnership(address)": {
        "details": "Transfers ownership of the contract to a new account (`newOwner`). Can only be called by the current owner."
      }
    },
    "version": 1
  },
  "userdoc": {
    "kind": "user",
    "methods": {
      "borrow(address,address,uint256)": {
        "notice": "Borrow tokens from the protocol"
      },
      "getPrices(address,address[])": {
        "notice": "Get prices for multiple tokens at once"
      },
      "getSupportedCollaterals(address)": {
        "notice": "Get all supported collaterals for a specific market in Compound"
      },
      "isCollateralSupported(address,address)": {
        "notice": "Check if a collateral token is supported for a specific market in Compound"
      }
    },
    "version": 1
  },
  "storageLayout": {
    "storage": [
      {
        "astId": 2312,
        "contract": "contracts/gateways/CompoundGateway.sol:CompoundGateway",
        "label": "_owner",
        "offset": 0,
        "slot": "0",
        "type": "t_address"
      },
      {
        "astId": 3827,
        "contract": "contracts/gateways/CompoundGateway.sol:CompoundGateway",
        "label": "_status",
        "offset": 0,
        "slot": "1",
        "type": "t_uint256"
      },
      {
        "astId": 6151,
        "contract": "contracts/gateways/CompoundGateway.sol:CompoundGateway",
        "label": "tokenToComet",
        "offset": 0,
        "slot": "2",
        "type": "t_mapping(t_address,t_contract(ICompoundComet)7642)"
      },
      {
        "astId": 6154,
        "contract": "contracts/gateways/CompoundGateway.sol:CompoundGateway",
        "label": "priceFeed",
        "offset": 0,
        "slot": "3",
        "type": "t_contract(FeedRegistryInterface)2198"
      },
      {
        "astId": 6159,
        "contract": "contracts/gateways/CompoundGateway.sol:CompoundGateway",
        "label": "overrideFeeds",
        "offset": 0,
        "slot": "4",
        "type": "t_mapping(t_address,t_contract(AggregatorV3Interface)2303)"
      }
    ],
    "types": {
      "t_address": {
        "encoding": "inplace",
        "label": "address",
        "numberOfBytes": "20"
      },
      "t_contract(AggregatorV3Interface)2303": {
        "encoding": "inplace",
        "label": "contract AggregatorV3Interface",
        "numberOfBytes": "20"
      },
      "t_contract(FeedRegistryInterface)2198": {
        "encoding": "inplace",
        "label": "contract FeedRegistryInterface",
        "numberOfBytes": "20"
      },
      "t_contract(ICompoundComet)7642": {
        "encoding": "inplace",
        "label": "contract ICompoundComet",
        "numberOfBytes": "20"
      },
      "t_mapping(t_address,t_contract(AggregatorV3Interface)2303)": {
        "encoding": "mapping",
        "key": "t_address",
        "label": "mapping(address => contract AggregatorV3Interface)",
        "numberOfBytes": "32",
        "value": "t_contract(AggregatorV3Interface)2303"
      },
      "t_mapping(t_address,t_contract(ICompoundComet)7642)": {
        "encoding": "mapping",
        "key": "t_address",
        "label": "mapping(address => contract ICompoundComet)",
        "numberOfBytes": "32",
        "value": "t_contract(ICompoundComet)7642"
      },
      "t_uint256": {
        "encoding": "inplace",
        "label": "uint256",
        "numberOfBytes": "32"
      }
    }
  }
}