{
  "address": "0x096FC097245aC5C616C4297aA4479AF2665492D0",
  "abi": [
    {
      "inputs": [
        {
          "internalType": "address",
          "name": "router",
          "type": "address"
        },
        {
          "internalType": "address",
          "name": "owner_",
          "type": "address"
        }
      ],
      "stateMutability": "nonpayable",
      "type": "constructor"
    },
    {
      "inputs": [
        {
          "internalType": "address",
          "name": "target",
          "type": "address"
        }
      ],
      "name": "AddressEmptyCode",
      "type": "error"
    },
    {
      "inputs": [
        {
          "internalType": "address",
          "name": "account",
          "type": "address"
        }
      ],
      "name": "AddressInsufficientBalance",
      "type": "error"
    },
    {
      "inputs": [],
      "name": "FailedInnerCall",
      "type": "error"
    },
    {
      "inputs": [
        {
          "internalType": "address",
          "name": "owner",
          "type": "address"
        }
      ],
      "name": "OwnableInvalidOwner",
      "type": "error"
    },
    {
      "inputs": [
        {
          "internalType": "address",
          "name": "account",
          "type": "address"
        }
      ],
      "name": "OwnableUnauthorizedAccount",
      "type": "error"
    },
    {
      "inputs": [],
      "name": "ReentrancyGuardReentrantCall",
      "type": "error"
    },
    {
      "inputs": [
        {
          "internalType": "address",
          "name": "token",
          "type": "address"
        }
      ],
      "name": "SafeERC20FailedOperation",
      "type": "error"
    },
    {
      "anonymous": false,
      "inputs": [
        {
          "indexed": true,
          "internalType": "address",
          "name": "baseToken",
          "type": "address"
        },
        {
          "indexed": true,
          "internalType": "address",
          "name": "comet",
          "type": "address"
        }
      ],
      "name": "CometRegistered",
      "type": "event"
    },
    {
      "anonymous": false,
      "inputs": [
        {
          "indexed": true,
          "internalType": "address",
          "name": "baseToken",
          "type": "address"
        },
        {
          "indexed": true,
          "internalType": "address",
          "name": "oldComet",
          "type": "address"
        },
        {
          "indexed": true,
          "internalType": "address",
          "name": "newComet",
          "type": "address"
        }
      ],
      "name": "CometReplaced",
      "type": "event"
    },
    {
      "anonymous": false,
      "inputs": [
        {
          "indexed": true,
          "internalType": "address",
          "name": "previousOwner",
          "type": "address"
        },
        {
          "indexed": true,
          "internalType": "address",
          "name": "newOwner",
          "type": "address"
        }
      ],
      "name": "OwnershipTransferred",
      "type": "event"
    },
    {
      "inputs": [],
      "name": "ROUTER",
      "outputs": [
        {
          "internalType": "address",
          "name": "",
          "type": "address"
        }
      ],
      "stateMutability": "view",
      "type": "function"
    },
    {
      "inputs": [
        {
          "internalType": "contract ICompoundComet",
          "name": "comet",
          "type": "address"
        }
      ],
      "name": "addComet",
      "outputs": [],
      "stateMutability": "nonpayable",
      "type": "function"
    },
    {
      "inputs": [],
      "name": "allComets",
      "outputs": [
        {
          "internalType": "address[]",
          "name": "",
          "type": "address[]"
        }
      ],
      "stateMutability": "view",
      "type": "function"
    },
    {
      "inputs": [
        {
          "components": [
            {
              "internalType": "enum ProtocolTypes.LendingOp",
              "name": "op",
              "type": "uint8"
            },
            {
              "internalType": "address",
              "name": "token",
              "type": "address"
            },
            {
              "internalType": "address",
              "name": "user",
              "type": "address"
            },
            {
              "internalType": "uint256",
              "name": "amount",
              "type": "uint256"
            },
            {
              "internalType": "bytes",
              "name": "context",
              "type": "bytes"
            },
            {
              "components": [
                {
                  "internalType": "uint256",
                  "name": "index",
                  "type": "uint256"
                }
              ],
              "internalType": "struct ProtocolTypes.InputPtr",
              "name": "input",
              "type": "tuple"
            }
          ],
          "internalType": "struct ProtocolTypes.LendingInstruction[]",
          "name": "instrs",
          "type": "tuple[]"
        },
        {
          "internalType": "address",
          "name": "caller",
          "type": "address"
        }
      ],
      "name": "authorize",
      "outputs": [
        {
          "internalType": "address[]",
          "name": "targets",
          "type": "address[]"
        },
        {
          "internalType": "bytes[]",
          "name": "data",
          "type": "bytes[]"
        }
      ],
      "stateMutability": "view",
      "type": "function"
    },
    {
      "inputs": [
        {
          "internalType": "address",
          "name": "token",
          "type": "address"
        },
        {
          "internalType": "address",
          "name": "user",
          "type": "address"
        },
        {
          "internalType": "uint256",
          "name": "amount",
          "type": "uint256"
        }
      ],
      "name": "borrow",
      "outputs": [],
      "stateMutability": "nonpayable",
      "type": "function"
    },
    {
      "inputs": [
        {
          "internalType": "address",
          "name": "token",
          "type": "address"
        },
        {
          "internalType": "address",
          "name": "onBehalfOf",
          "type": "address"
        },
        {
          "internalType": "uint256",
          "name": "amount",
          "type": "uint256"
        }
      ],
      "name": "deposit",
      "outputs": [],
      "stateMutability": "nonpayable",
      "type": "function"
    },
    {
      "inputs": [
        {
          "internalType": "address",
          "name": "market",
          "type": "address"
        },
        {
          "internalType": "address",
          "name": "collateral",
          "type": "address"
        },
        {
          "internalType": "uint256",
          "name": "amount",
          "type": "uint256"
        },
        {
          "internalType": "address",
          "name": "receiver",
          "type": "address"
        }
      ],
      "name": "depositCollateral",
      "outputs": [],
      "stateMutability": "nonpayable",
      "type": "function"
    },
    {
      "inputs": [],
      "name": "owner",
      "outputs": [
        {
          "internalType": "address",
          "name": "",
          "type": "address"
        }
      ],
      "stateMutability": "view",
      "type": "function"
    },
    {
      "inputs": [
        {
          "components": [
            {
              "internalType": "address",
              "name": "token",
              "type": "address"
            },
            {
              "internalType": "uint256",
              "name": "amount",
              "type": "uint256"
            }
          ],
          "internalType": "struct ProtocolTypes.Output[]",
          "name": "inputs",
          "type": "tuple[]"
        },
        {
          "internalType": "bytes",
          "name": "data",
          "type": "bytes"
        }
      ],
      "name": "processLendingInstruction",
      "outputs": [
        {
          "components": [
            {
              "internalType": "address",
              "name": "token",
              "type": "address"
            },
            {
              "internalType": "uint256",
              "name": "amount",
              "type": "uint256"
            }
          ],
          "internalType": "struct ProtocolTypes.Output[]",
          "name": "outputs",
          "type": "tuple[]"
        }
      ],
      "stateMutability": "nonpayable",
      "type": "function"
    },
    {
      "inputs": [],
      "name": "renounceOwnership",
      "outputs": [],
      "stateMutability": "nonpayable",
      "type": "function"
    },
    {
      "inputs": [
        {
          "internalType": "address",
          "name": "token",
          "type": "address"
        },
        {
          "internalType": "address",
          "name": "user",
          "type": "address"
        },
        {
          "internalType": "uint256",
          "name": "amount",
          "type": "uint256"
        }
      ],
      "name": "repay",
      "outputs": [],
      "stateMutability": "nonpayable",
      "type": "function"
    },
    {
      "inputs": [
        {
          "internalType": "address",
          "name": "baseToken",
          "type": "address"
        },
        {
          "internalType": "address",
          "name": "comet_",
          "type": "address"
        }
      ],
      "name": "setCometForBase",
      "outputs": [],
      "stateMutability": "nonpayable",
      "type": "function"
    },
    {
      "inputs": [
        {
          "internalType": "address",
          "name": "",
          "type": "address"
        }
      ],
      "name": "tokenToComet",
      "outputs": [
        {
          "internalType": "contract ICompoundComet",
          "name": "",
          "type": "address"
        }
      ],
      "stateMutability": "view",
      "type": "function"
    },
    {
      "inputs": [
        {
          "internalType": "address",
          "name": "newOwner",
          "type": "address"
        }
      ],
      "name": "transferOwnership",
      "outputs": [],
      "stateMutability": "nonpayable",
      "type": "function"
    },
    {
      "inputs": [
        {
          "internalType": "address",
          "name": "market",
          "type": "address"
        },
        {
          "internalType": "address",
          "name": "collateral",
          "type": "address"
        },
        {
          "internalType": "address",
          "name": "user",
          "type": "address"
        },
        {
          "internalType": "uint256",
          "name": "amount",
          "type": "uint256"
        }
      ],
      "name": "withdrawCollateral",
      "outputs": [
        {
          "internalType": "address",
          "name": "",
          "type": "address"
        },
        {
          "internalType": "uint256",
          "name": "",
          "type": "uint256"
        }
      ],
      "stateMutability": "nonpayable",
      "type": "function"
    }
  ],
  "transactionHash": "0x39eb96135a825cf496fe36c25b0b793f5a8736340cc1badc882d467279fedb2d",
  "args": [
    "0xFcb68195c26Ab2D22073133a5002Df3E076d8069",
    "0x0BE61223F99E57b8b8B7033a77B54Adc7f7cF027"
  ],
  "numDeployments": 3,
  "solcInputHash": "170b11f0625b37629b5dbe0856540380",
  "bytecode": "0x60a060405234801561000f575f5ffd5b506040516137c63803806137c683398101604081905261002e91610139565b80826001600160a01b03811661008b5760405162461bcd60e51b815260206004820152601d60248201527f526f7574657220616464726573732063616e6e6f74206265207a65726f00000060448201526064015b60405180910390fd5b6001600160a01b0390811660805281166100ba57604051631e4fbdf760e01b81525f6004820152602401610082565b6100c3816100cf565b5050600180555061016a565b5f80546001600160a01b038381166001600160a01b0319831681178455604051919092169283917f8be0079c531659141344cd1fd0a4f28419497f9722a3daafe3b4186f6b6457e09190a35050565b80516001600160a01b0381168114610134575f5ffd5b919050565b5f5f6040838503121561014a575f5ffd5b6101538361011e565b91506101616020840161011e565b90509250929050565b60805161362861019e5f395f818161018b01528181610d2701528181611191015281816113db015261156201526136285ff3fe608060405234801561000f575f5ffd5b50600436106100f0575f3560e01c80635820ba63116100935780638da5cb5b116100635780638da5cb5b146102225780639f2204e814610232578063ae4be46d14610245578063f2fde38b14610265575f5ffd5b80635820ba63146101d3578063715018a614610205578063755f62ce1461020d5780638340f5491461011e575f5ffd5b80632a8e3a49116100ce5780632a8e3a491461017357806332fe7b26146101865780634108d0af146101ad5780635224372c146101c0575f5ffd5b806317c2a46b146100f45780631da649cf1461011e57806326e46ed314610133575b5f5ffd5b610107610102366004612a9e565b610278565b604051610115929190612b8f565b60405180910390f35b61013161012c366004612c04565b610d1c565b005b61015b610141366004612c42565b60026020525f90815260409020546001600160a01b031681565b6040516001600160a01b039091168152602001610115565b610131610181366004612c42565b610f69565b61015b7f000000000000000000000000000000000000000000000000000000000000000081565b6101316101bb366004612c5d565b611186565b6101316101ce366004612c04565b6113cf565b6101e66101e1366004612cad565b611554565b604080516001600160a01b039093168352602083019190915201610115565b6101316116eb565b6102156116fe565b6040516101159190612cfb565b5f546001600160a01b031661015b565b610131610240366004612d0d565b61175e565b610258610253366004612d88565b61192c565b6040516101159190612e20565b610131610273366004612c42565b61266a565b6060805f5f5b85811015610455573687878381811061029957610299612e77565b90506020028101906102ab9190612e8b565b90505f6102f76102be6080840184612ea9565b8080601f0160208091040260200160405190810160405280939291908181526020018383808284375f920191909152506126a792505050565b90505f6103076020840184612f0d565b600681111561031857610318612eeb565b14806103415750600461032e6020840184612f0d565b600681111561033f5761033f612eeb565b145b15610358578361035081612f26565b94505061044b565b60016103676020840184612f0d565b600681111561037857610378612eeb565b14806103e057505f61038d6020840184612f0d565b600681111561039e5761039e612eeb565b1480156103b357506001600160a01b03811615155b80156103e057506103ca6040830160208401612c42565b6001600160a01b0316816001600160a01b031614155b156103ef578361035081612f26565b60026103fe6020840184612f0d565b600681111561040f5761040f612eeb565b1480610438575060036104256020840184612f0d565b600681111561043657610436612eeb565b145b1561044b578361044781612f26565b9450505b505060010161027e565b50806001600160401b0381111561046e5761046e612f4a565b604051908082528060200260200182016040528015610497578160200160208202803683370190505b509250806001600160401b038111156104b2576104b2612f4a565b6040519080825280602002602001820160405280156104e557816020015b60608152602001906001900390816104d05790505b5091505f5f5b86811015610d11573688888381811061050657610506612e77565b90506020028101906105189190612e8b565b90505f61052b6102be6080840184612ea9565b90505f61053b6020840184612f0d565b600681111561054c5761054c612eeb565b1480610575575060046105626020840184612f0d565b600681111561057357610573612eeb565b145b1561072d575f61058b6040840160208501612c42565b604051636eb1769f60e11b81526001600160a01b038b81166004830152306024830152919091169063dd62ed3e90604401602060405180830381865afa1580156105d7573d5f5f3e3d5ffd5b505050506040513d601f19601f820116820180604052508101906105fb9190612f5e565b9050606083013515801590610614575082606001358110155b1561067d575f88868151811061062c5761062c612e77565b60200260200101906001600160a01b031690816001600160a01b03168152505060405180602001604052805f81525087868151811061066d5761066d612e77565b602002602001018190525061071a565b61068d6040840160208501612c42565b88868151811061069f5761069f612e77565b6001600160a01b039290921660209283029190910182015260408051306024820152606086013560448083019190915282518083039091018152606490910190915290810180516001600160e01b031663095ea7b360e01b179052875188908790811061070e5761070e612e77565b60200260200101819052505b8461072481612f26565b95505050610d07565b600161073c6020840184612f0d565b600681111561074d5761074d612eeb565b14806107b557505f6107626020840184612f0d565b600681111561077357610773612eeb565b14801561078857506001600160a01b03811615155b80156107b5575061079f6040830160208401612c42565b6001600160a01b0316816001600160a01b031614155b15610962575f6107cb6040840160208501612c42565b604051636eb1769f60e11b81526001600160a01b038b811660048301523060248301529192505f9183169063dd62ed3e90604401602060405180830381865afa15801561081a573d5f5f3e3d5ffd5b505050506040513d601f19601f8201168201806040525081019061083e9190612f5e565b9050606084013515801590610857575083606001358110155b156108c0575f89878151811061086f5761086f612e77565b60200260200101906001600160a01b031690816001600160a01b03168152505060405180602001604052805f8152508887815181106108b0576108b0612e77565b602002602001018190525061094e565b818987815181106108d3576108d3612e77565b6001600160a01b039290921660209283029190910182015260408051306024820152606087013560448083019190915282518083039091018152606490910190915290810180516001600160e01b031663095ea7b360e01b179052885189908890811061094257610942612e77565b60200260200101819052505b8561095881612f26565b9650505050610d07565b60026109716020840184612f0d565b600681111561098257610982612eeb565b03610b3e575f6001600160a01b0382166109ab576109a66040840160208501612c42565b6109ad565b815b6001600160a01b038181165f9081526002602052604080822054905163a165437960e01b81528d8416600482015230602482015293945090911691829063a165437990604401602060405180830381865afa158015610a0e573d5f5f3e3d5ffd5b505050506040513d601f19601f82011682018060405250810190610a329190612f75565b90508015610a9e575f8a8881518110610a4d57610a4d612e77565b60200260200101906001600160a01b031690816001600160a01b03168152505060405180602001604052805f815250898881518110610a8e57610a8e612e77565b6020026020010181905250610b29565b818a8881518110610ab157610ab1612e77565b6001600160a01b039290921660209283029190910182015260408051306024820152600160448083019190915282518083039091018152606490910190915290810180516001600160e01b031663110496e560e01b17905289518a9089908110610b1d57610b1d612e77565b60200260200101819052505b86610b3381612f26565b975050505050610d07565b6003610b4d6020840184612f0d565b6006811115610b5e57610b5e612eeb565b03610d07575f600281610b776040860160208701612c42565b6001600160a01b039081168252602082019290925260409081015f90812054915163a165437960e01b81528c84166004820152306024820152919092169250829063a165437990604401602060405180830381865afa158015610bdc573d5f5f3e3d5ffd5b505050506040513d601f19601f82011682018060405250810190610c009190612f75565b90508015610c6c575f898781518110610c1b57610c1b612e77565b60200260200101906001600160a01b031690816001600160a01b03168152505060405180602001604052805f815250888781518110610c5c57610c5c612e77565b6020026020010181905250610cf7565b81898781518110610c7f57610c7f612e77565b6001600160a01b039290921660209283029190910182015260408051306024820152600160448083019190915282518083039091018152606490910190915290810180516001600160e01b031663110496e560e01b1790528851899088908110610ceb57610ceb612e77565b60200260200101819052505b85610d0181612f26565b96505050505b50506001016104eb565b505050935093915050565b336001600160a01b037f00000000000000000000000000000000000000000000000000000000000000001614610d905760405162461bcd60e51b815260206004820152601460248201527313db9b1e481c9bdd5d195c8818d85b8818d85b1b60621b60448201526064015b60405180910390fd5b610d986126bd565b6001600160a01b038084165f908152600260205260409020541680610dff5760405162461bcd60e51b815260206004820152601e60248201527f436f6d706f756e643a206261736520636f6d6574206e6f7420666f756e6400006044820152606401610d87565b610e146001600160a01b0385163330856126e7565b60405163095ea7b360e01b81526001600160a01b0382811660048301525f602483015285169063095ea7b3906044016020604051808303815f875af1158015610e5f573d5f5f3e3d5ffd5b505050506040513d601f19601f82011682018060405250810190610e839190612f75565b5060405163095ea7b360e01b81526001600160a01b0382811660048301526024820184905285169063095ea7b3906044016020604051808303815f875af1158015610ed0573d5f5f3e3d5ffd5b505050506040513d601f19601f82011682018060405250810190610ef49190612f75565b50604051634232cd6360e01b81526001600160a01b038481166004830152858116602483015260448201849052821690634232cd63906064015f604051808303815f87803b158015610f44575f5ffd5b505af1158015610f56573d5f5f3e3d5ffd5b5050505050610f6460018055565b505050565b610f7161274e565b5f816001600160a01b031663c55dae636040518163ffffffff1660e01b8152600401602060405180830381865afa158015610fae573d5f5f3e3d5ffd5b505050506040513d601f19601f82011682018060405250810190610fd29190612f94565b90506001600160a01b03811661101d5760405162461bcd60e51b815260206004820152601060248201526f0436f6d706f756e643a20626173653d360841b6044820152606401610d87565b6001600160a01b038082165f90815260026020908152604080832080548786166001600160a01b03198216811790925590845260049092529091205491169060ff166110c8576001600160a01b0383165f818152600460205260408120805460ff191660019081179091556003805491820181559091527fc2575a0e9e593c00f959f8c92f12db2869c3395a3b0502d05e2516446f71f85b0180546001600160a01b03191690911790555b826001600160a01b0316826001600160a01b03167fbd7bf039bc2e612983f7f581f4b5d456d978092d546243d55a7b3f8594fb979660405160405180910390a36001600160a01b038116158015906111325750826001600160a01b0316816001600160a01b031614155b15610f6457826001600160a01b0316816001600160a01b0316836001600160a01b03167f526edd5dd90f5bf0182679e6bfd9599001c52b92e97523563c3302d3a030e29660405160405180910390a4505050565b336001600160a01b037f000000000000000000000000000000000000000000000000000000000000000016146111f55760405162461bcd60e51b815260206004820152601460248201527313db9b1e481c9bdd5d195c8818d85b8818d85b1b60621b6044820152606401610d87565b6111fd6126bd565b6001600160a01b038085165f9081526002602052604090205416806112645760405162461bcd60e51b815260206004820181905260248201527f436f6d706f756e643a206d61726b657420636f6d6574206e6f7420666f756e646044820152606401610d87565b6112796001600160a01b0385163330866126e7565b60405163095ea7b360e01b81526001600160a01b0382811660048301525f602483015285169063095ea7b3906044016020604051808303815f875af11580156112c4573d5f5f3e3d5ffd5b505050506040513d601f19601f820116820180604052508101906112e89190612f75565b5060405163095ea7b360e01b81526001600160a01b0382811660048301526024820185905285169063095ea7b3906044016020604051808303815f875af1158015611335573d5f5f3e3d5ffd5b505050506040513d601f19601f820116820180604052508101906113599190612f75565b50604051634232cd6360e01b81526001600160a01b038381166004830152858116602483015260448201859052821690634232cd63906064015f604051808303815f87803b1580156113a9575f5ffd5b505af11580156113bb573d5f5f3e3d5ffd5b50505050506113c960018055565b50505050565b81336001600160a01b037f000000000000000000000000000000000000000000000000000000000000000016148061140f5750336001600160a01b038216145b61145b5760405162461bcd60e51b815260206004820152601c60248201527f4f6e6c7920726f75746572206f722073656c662063616e2063616c6c000000006044820152606401610d87565b6114636126bd565b6001600160a01b038085165f9081526002602052604090205416806114ca5760405162461bcd60e51b815260206004820152601e60248201527f436f6d706f756e643a206261736520636f6d6574206e6f7420666f756e6400006044820152606401610d87565b6040516304c8826360e31b81526001600160a01b0385811660048301523060248301528681166044830152606482018590528216906326441318906084015f604051808303815f87803b15801561151f575f5ffd5b505af1158015611531573d5f5f3e3d5ffd5b5061154a925050506001600160a01b038616338561277a565b506113c960018055565b5f8083336001600160a01b037f00000000000000000000000000000000000000000000000000000000000000001614806115965750336001600160a01b038216145b6115e25760405162461bcd60e51b815260206004820152601c60248201527f4f6e6c7920726f75746572206f722073656c662063616e2063616c6c000000006044820152606401610d87565b6115ea6126bd565b6001600160a01b038088165f9081526002602052604090205416806116515760405162461bcd60e51b815260206004820181905260248201527f436f6d706f756e643a206d61726b657420636f6d6574206e6f7420666f756e646044820152606401610d87565b6040516304c8826360e31b81526001600160a01b0387811660048301523060248301528881166044830152606482018790528216906326441318906084015f604051808303815f87803b1580156116a6575f5ffd5b505af11580156116b8573d5f5f3e3d5ffd5b506116d1925050506001600160a01b038816338761277a565b868593509350506116e160018055565b5094509492505050565b6116f361274e565b6116fc5f6127ab565b565b6060600380548060200260200160405190810160405280929190818152602001828054801561175457602002820191905f5260205f20905b81546001600160a01b03168152600190910190602001808311611736575b5050505050905090565b61176661274e565b6001600160a01b0382161580159061178657506001600160a01b03811615155b6117c35760405162461bcd60e51b815260206004820152600e60248201526d436f6d706f756e643a207a65726f60901b6044820152606401610d87565b6001600160a01b038083165f90815260026020908152604080832080548686166001600160a01b03198216811790925590845260049092529091205491169060ff1661186e576001600160a01b0382165f818152600460205260408120805460ff191660019081179091556003805491820181559091527fc2575a0e9e593c00f959f8c92f12db2869c3395a3b0502d05e2516446f71f85b0180546001600160a01b03191690911790555b816001600160a01b0316836001600160a01b03167fbd7bf039bc2e612983f7f581f4b5d456d978092d546243d55a7b3f8594fb979660405160405180910390a36001600160a01b038116158015906118d85750816001600160a01b0316816001600160a01b031614155b15610f6457816001600160a01b0316816001600160a01b0316846001600160a01b03167f526edd5dd90f5bf0182679e6bfd9599001c52b92e97523563c3302d3a030e29660405160405180910390a4505050565b606061194f604051806060016040528060368152602001613443603691396127fa565b611971604051806060016040528060228152602001613585602291398561283d565b5f5b84811015611a8f57611a0b6040518060400160405280601c81526020017f436f6d706f756e644761746577617957726974653a20696e7075745b0000000081525082604051806040016040528060078152602001662e903a37b5b2b760c91b8152508989868181106119e7576119e7612e77565b6119fd9260206040909202019081019150612c42565b6001600160a01b0316612886565b611a876040518060400160405280601c81526020017f436f6d706f756e644761746577617957726974653a20696e7075745b0000000081525082604051806040016040528060088152602001671748185b5bdd5b9d60c21b815250898986818110611a7857611a78612e77565b90506040020160200135612886565b600101611973565b50611ab2604051806060016040528060218152602001613208602191398361283d565b5f611abf83850185613046565b9050611b146040518060400160405280601881526020017f436f6d706f756e644761746577617957726974653a206f700000000000000000815250825f01516006811115611b0f57611b0f612eeb565b61283d565b611b606040518060400160405280601b81526020017f436f6d706f756e644761746577617957726974653a20746f6b656e000000000081525082602001516001600160a01b031661283d565b611bac6040518060400160405280601a81526020017f436f6d706f756e644761746577617957726974653a207573657200000000000081525082604001516001600160a01b031661283d565b611bef6040518060400160405280601c81526020017f436f6d706f756e644761746577617957726974653a20616d6f756e7400000000815250826060015161283d565b611c166040518060600160405280602181526020016134796021913960a08301515161283d565b5f611c2482608001516126a7565b9050611c6e6040518060400160405280601c81526020017f436f6d706f756e644761746577617957726974653a206d61726b657400000000815250826001600160a01b031661283d565b6020820151606083015160a084015151881115611d2d5788888560a001515f0151818110611c9e57611c9e612e77565b611cb49260206040909202019081019150612c42565b915088888560a001515f0151818110611ccf57611ccf612e77565b905060400201602001359050611d0660405180606001604052806028815260200161350560289139836001600160a01b031661283d565b611d28604051806060016040528060298152602001613262602991398261283d565b611d4e565b611d4e6040518060600160405280602e815260200161328b602e91396127fa565b5f84516006811115611d6257611d62612eeb565b03611e3f57611d886040518060600160405280602781526020016135a7602791396127fa565b6001600160a01b03831615801590611db25750816001600160a01b0316836001600160a01b031614155b15611dcc57611dc78383838760400151611186565b611ddb565b611ddb82856040015183610d1c565b604080515f8082526020820190925290611e16565b604080518082019091525f8082526020820152815260200190600190039081611df05790505b509450611e3a60405180606001604052806032815260200161352d603291396127fa565b61265e565b600184516006811115611e5457611e54612eeb565b03611f0857611e7a6040518060600160405280603181526020016132b9603191396127fa565b5f6001600160a01b038416611e8f5782611e91565b835b9050611ea38184848860400151611186565b604080515f8082526020820190925290611ede565b604080518082019091525f8082526020820152815260200190600190039081611eb85790505b509550611f026040518060600160405280603c8152602001613342603c91396127fa565b5061265e565b600284516006811115611f1d57611f1d612eeb565b0361203e57611f4360405180606001604052806032815260200161349a603291396127fa565b5f6001600160a01b038416611f585782611f5a565b835b90505f5f611f6e8386896040015187611554565b604080516001808252818301909252929450909250816020015b604080518082019091525f8082526020820152815260200190600190039081611f885790505097506040518060400160405280836001600160a01b0316815260200182815250885f81518110611fe057611fe0612e77565b60200260200101819052506120366040518060600160405280603981526020016134cc60399139836001600160a01b031660405180604001604052806006815260200165185b5bdd5b9d60d21b81525084612886565b50505061265e565b60038451600681111561205357612053612eeb565b0361214b5761207960405180606001604052806026815260200161355f602691396127fa565b612088828560400151836113cf565b60408051600180825281830190925290816020015b604080518082019091525f808252602082015281526020019060019003908161209d5790505094506040518060400160405280836001600160a01b0316815260200182815250855f815181106120f5576120f5612e77565b6020026020010181905250611e3a6040518060600160405280602d81526020016133dd602d9139836001600160a01b031660405180604001604052806006815260200165185b5bdd5b9d60d21b81525084612886565b60048451600681111561216057612160612eeb565b0361222e576121866040518060600160405280602581526020016135ce602591396127fa565b61219582856040015183610d1c565b60408051600180825281830190925290816020015b604080518082019091525f80825260208201528152602001906001900390816121aa5790505094506040518060400160405280836001600160a01b031681526020015f815250855f8151811061220257612202612e77565b6020026020010181905250611e3a6040518060600160405280602f815260200161337e602f91396127fa565b60058451600681111561224357612243612eeb565b036123a4576122696040518060600160405280603081526020016133ad603091396127fa565b6001600160a01b038083165f908152600260205260408120549091169081156122ff576040868101519051630dd3126d60e21b81526001600160a01b0391821660048201529083169063374c49b490602401602060405180830381865afa1580156122d6573d5f5f3e3d5ffd5b505050506040513d601f19601f820116820180604052508101906122fa9190612f5e565b612301565b5f5b604080516001808252818301909252919250816020015b604080518082019091525f80825260208201528152602001906001900390816123185790505096506040518060400160405280856001600160a01b0316815260200182815250875f8151811061237057612370612e77565b602002602001018190525061239d60405180606001604052806039815260200161340a603991398261283d565b505061265e565b6006845160068111156123b9576123b9612eeb565b036125f0576123df6040518060600160405280603081526020016132ea603091396127fa565b5f6001600160a01b0384161580159061240a5750826001600160a01b0316846001600160a01b031614155b156124bd576001600160a01b038085165f908152600260205260409020541680156124b3576040868101519051632e12a4f760e11b81526001600160a01b039182166004820152858216602482015290821690635c2549ee90604401602060405180830381865afa158015612481573d5f5f3e3d5ffd5b505050506040513d601f19601f820116820180604052508101906124a5919061315c565b6001600160801b03166124b5565b5f5b915050612556565b6001600160a01b038084165f908152600260205260409020541680156125505760408681015190516370a0823160e01b81526001600160a01b039182166004820152908216906370a0823190602401602060405180830381865afa158015612527573d5f5f3e3d5ffd5b505050506040513d601f19601f8201168201806040525081019061254b9190612f5e565b612552565b5f5b9150505b60408051600180825281830190925290816020015b604080518082019091525f808252602082015281526020019060019003908161256b5790505095506040518060400160405280846001600160a01b0316815260200182815250865f815181106125c3576125c3612e77565b6020026020010181905250611f02604051806060016040528060398152602001613229603991398261283d565b61261f60405180606001604052806028815260200161331a6028913985516006811115611b0f57611b0f612eeb565b60405162461bcd60e51b81526020600482015260146024820152730436f6d706f756e643a20756e6b6e6f776e206f760641b6044820152606401610d87565b50505050949350505050565b61267261274e565b6001600160a01b03811661269b57604051631e4fbdf760e01b81525f6004820152602401610d87565b6126a4816127ab565b50565b5f60208251106126b8575060208101515b919050565b6002600154036126e057604051633ee5aeb560e01b815260040160405180910390fd5b6002600155565b6040516001600160a01b0384811660248301528381166044830152606482018390526113c99186918216906323b872dd906084015b604051602081830303815290604052915060e01b6020820180516001600160e01b0383818316178352505050506128cf565b5f546001600160a01b031633146116fc5760405163118cdaa760e01b8152336004820152602401610d87565b6040516001600160a01b03838116602483015260448201839052610f6491859182169063a9059cbb9060640161271c565b5f80546001600160a01b038381166001600160a01b0319831681178455604051919092169283917f8be0079c531659141344cd1fd0a4f28419497f9722a3daafe3b4186f6b6457e09190a35050565b6126a48160405160240161280e9190613182565b60408051601f198184030181529190526020810180516001600160e01b031663104c13eb60e21b179052612930565b6128828282604051602401612853929190613194565b60408051601f198184030181529190526020810180516001600160e01b0316632d839cb360e21b179052612930565b5050565b6113c9848484846040516024016128a094939291906131b5565b60408051601f198184030181529190526020810180516001600160e01b031663c67ea9d160e01b179052612930565b5f6128e36001600160a01b03841683612939565b905080515f141580156129075750808060200190518101906129059190612f75565b155b15610f6457604051635274afe760e01b81526001600160a01b0384166004820152602401610d87565b6126a48161294d565b606061294683835f61296c565b9392505050565b5f6a636f6e736f6c652e6c6f6790505f5f835160208501845afa505050565b6060814710156129915760405163cd78605960e01b8152306004820152602401610d87565b5f5f856001600160a01b031684866040516129ac91906131f1565b5f6040518083038185875af1925050503d805f81146129e6576040519150601f19603f3d011682016040523d82523d5f602084013e6129eb565b606091505b50915091506129fb868383612a05565b9695505050505050565b606082612a1a57612a1582612a61565b612946565b8151158015612a3157506001600160a01b0384163b155b15612a5a57604051639996b31560e01b81526001600160a01b0385166004820152602401610d87565b5080612946565b805115612a715780518082602001fd5b604051630a12f52160e11b815260040160405180910390fd5b6001600160a01b03811681146126a4575f5ffd5b5f5f5f60408486031215612ab0575f5ffd5b83356001600160401b03811115612ac5575f5ffd5b8401601f81018613612ad5575f5ffd5b80356001600160401b03811115612aea575f5ffd5b8660208260051b8401011115612afe575f5ffd5b602091820194509250840135612b1381612a8a565b809150509250925092565b5f8151808452602084019350602083015f5b82811015612b575781516001600160a01b0316865260209586019590910190600101612b30565b5093949350505050565b5f81518084528060208401602086015e5f602082860101526020601f19601f83011685010191505092915050565b604081525f612ba16040830185612b1e565b828103602084015280845180835260208301915060208160051b840101602087015f5b83811015612bf657601f19868403018552612be0838351612b61565b6020958601959093509190910190600101612bc4565b509098975050505050505050565b5f5f5f60608486031215612c16575f5ffd5b8335612c2181612a8a565b92506020840135612c3181612a8a565b929592945050506040919091013590565b5f60208284031215612c52575f5ffd5b813561294681612a8a565b5f5f5f5f60808587031215612c70575f5ffd5b8435612c7b81612a8a565b93506020850135612c8b81612a8a565b9250604085013591506060850135612ca281612a8a565b939692955090935050565b5f5f5f5f60808587031215612cc0575f5ffd5b8435612ccb81612a8a565b93506020850135612cdb81612a8a565b92506040850135612ceb81612a8a565b9396929550929360600135925050565b602081525f6129466020830184612b1e565b5f5f60408385031215612d1e575f5ffd5b8235612d2981612a8a565b91506020830135612d3981612a8a565b809150509250929050565b5f5f83601f840112612d54575f5ffd5b5081356001600160401b03811115612d6a575f5ffd5b602083019150836020828501011115612d81575f5ffd5b9250929050565b5f5f5f5f60408587031215612d9b575f5ffd5b84356001600160401b03811115612db0575f5ffd5b8501601f81018713612dc0575f5ffd5b80356001600160401b03811115612dd5575f5ffd5b8760208260061b8401011115612de9575f5ffd5b6020918201955093508501356001600160401b03811115612e08575f5ffd5b612e1487828801612d44565b95989497509550505050565b602080825282518282018190525f918401906040840190835b81811015612e6c57835180516001600160a01b031684526020908101518185015290930192604090920191600101612e39565b509095945050505050565b634e487b7160e01b5f52603260045260245ffd5b5f823560be19833603018112612e9f575f5ffd5b9190910192915050565b5f5f8335601e19843603018112612ebe575f5ffd5b8301803591506001600160401b03821115612ed7575f5ffd5b602001915036819003821315612d81575f5ffd5b634e487b7160e01b5f52602160045260245ffd5b8035600781106126b8575f5ffd5b5f60208284031215612f1d575f5ffd5b61294682612eff565b5f60018201612f4357634e487b7160e01b5f52601160045260245ffd5b5060010190565b634e487b7160e01b5f52604160045260245ffd5b5f60208284031215612f6e575f5ffd5b5051919050565b5f60208284031215612f85575f5ffd5b81518015158114612946575f5ffd5b5f60208284031215612fa4575f5ffd5b815161294681612a8a565b60405160c081016001600160401b0381118282101715612fd157612fd1612f4a565b60405290565b604051601f8201601f191681016001600160401b0381118282101715612fff57612fff612f4a565b604052919050565b5f60208284031215613017575f5ffd5b604051602081016001600160401b038111828210171561303957613039612f4a565b6040529135825250919050565b5f60208284031215613056575f5ffd5b81356001600160401b0381111561306b575f5ffd5b820160c0818503121561307c575f5ffd5b613084612faf565b61308d82612eff565b8152602082013561309d81612a8a565b602082015260408201356130b081612a8a565b60408201526060828101359082015260808201356001600160401b038111156130d7575f5ffd5b8201601f810186136130e7575f5ffd5b80356001600160401b0381111561310057613100612f4a565b613113601f8201601f1916602001612fd7565b818152876020838501011115613127575f5ffd5b816020840160208301375f6020838301015280608085015250505061314f8560a08401613007565b60a0820152949350505050565b5f6020828403121561316c575f5ffd5b81516001600160801b0381168114612946575f5ffd5b602081525f6129466020830184612b61565b604081525f6131a66040830185612b61565b90508260208301529392505050565b608081525f6131c76080830187612b61565b85602084015282810360408401526131df8186612b61565b91505082606083015295945050505050565b5f82518060208501845e5f92019182525091905056fe436f6d706f756e644761746577617957726974653a2064617461206c656e677468436f6d706f756e644761746577617957726974653a20476574537570706c7942616c616e636520636f6d706c657465642c2062616c616e6365436f6d706f756e644761746577617957726974653a207573696e67205554584f202d20616d6f756e74436f6d706f756e644761746577617957726974653a207573696e6720696e737472756374696f6e20706172616d73436f6d706f756e644761746577617957726974653a20657865637574696e67204465706f736974436f6c6c61746572616c436f6d706f756e644761746577617957726974653a20657865637574696e6720476574537570706c7942616c616e6365436f6d706f756e644761746577617957726974653a204552524f52202d20756e6b6e6f776e206f70436f6d706f756e644761746577617957726974653a204465706f736974436f6c6c61746572616c20636f6d706c657465642c2030206f757470757473436f6d706f756e644761746577617957726974653a20526570617920636f6d706c657465642c203020726566756e64436f6d706f756e644761746577617957726974653a20657865637574696e6720476574426f72726f7742616c616e6365436f6d706f756e644761746577617957726974653a20426f72726f7720636f6d706c657465642c20746f6b656e436f6d706f756e644761746577617957726974653a20476574426f72726f7742616c616e636520636f6d706c657465642c2062616c616e6365436f6d706f756e644761746577617957726974653a2070726f636573734c656e64696e67496e737472756374696f6e2063616c6c6564436f6d706f756e644761746577617957726974653a20696e7075742e696e646578436f6d706f756e644761746577617957726974653a20657865637574696e67205769746864726177436f6c6c61746572616c436f6d706f756e644761746577617957726974653a205769746864726177436f6c6c61746572616c20636f6d706c657465642c20746f6b656e436f6d706f756e644761746577617957726974653a207573696e67205554584f202d20746f6b656e436f6d706f756e644761746577617957726974653a204465706f73697420636f6d706c657465642c2030206f757470757473436f6d706f756e644761746577617957726974653a20657865637574696e6720426f72726f77436f6d706f756e644761746577617957726974653a20696e7075747320636f756e74436f6d706f756e644761746577617957726974653a20657865637574696e67204465706f736974436f6d706f756e644761746577617957726974653a20657865637574696e67205265706179a2646970667358221220704923a7fd517e34fb96f011aa40949b1c03372fc923bd8b15de6ae8518c694e64736f6c634300081e0033",
  "devdoc": {
    "errors": {
      "AddressEmptyCode(address)": [
        {
          "details": "There's no code at `target` (it is not a contract)."
        }
      ],
      "AddressInsufficientBalance(address)": [
        {
          "details": "The ETH balance of the account is not enough to perform the operation."
        }
      ],
      "FailedInnerCall()": [
        {
          "details": "A call to an address target failed. The target may have reverted."
        }
      ],
      "OwnableInvalidOwner(address)": [
        {
          "details": "The owner is not a valid owner account. (eg. `address(0)`)"
        }
      ],
      "OwnableUnauthorizedAccount(address)": [
        {
          "details": "The caller account is not authorized to perform an operation."
        }
      ],
      "ReentrancyGuardReentrantCall()": [
        {
          "details": "Unauthorized reentrant call."
        }
      ],
      "SafeERC20FailedOperation(address)": [
        {
          "details": "An operation with an ERC20 token failed."
        }
      ]
    },
    "kind": "dev",
    "methods": {
      "owner()": {
        "details": "Returns the address of the current owner."
      },
      "renounceOwnership()": {
        "details": "Leaves the contract without owner. It will not be possible to call `onlyOwner` functions. Can only be called by the current owner. NOTE: Renouncing ownership will leave the contract without an owner, thereby disabling any functionality that is only available to the owner."
      },
      "transferOwnership(address)": {
        "details": "Transfers ownership of the contract to a new account (`newOwner`). Can only be called by the current owner."
      }
    },
    "version": 1
  },
  "userdoc": {
    "kind": "user",
    "methods": {
      "authorize((uint8,address,address,uint256,bytes,(uint256))[],address)": {
        "notice": "Return user-side authorization calls for the given lending instructions.         One element per input (or (address(0), bytes(\"\")) if none needed)."
      }
    },
    "version": 1
  },
  "storageLayout": {
    "storage": [
      {
        "astId": 1478,
        "contract": "contracts/v2/gateways/compound/CompoundGatewayWrite.sol:CompoundGatewayWrite",
        "label": "_owner",
        "offset": 0,
        "slot": "0",
        "type": "t_address"
      },
      {
        "astId": 2993,
        "contract": "contracts/v2/gateways/compound/CompoundGatewayWrite.sol:CompoundGatewayWrite",
        "label": "_status",
        "offset": 0,
        "slot": "1",
        "type": "t_uint256"
      },
      {
        "astId": 9435,
        "contract": "contracts/v2/gateways/compound/CompoundGatewayWrite.sol:CompoundGatewayWrite",
        "label": "tokenToComet",
        "offset": 0,
        "slot": "2",
        "type": "t_mapping(t_address,t_contract(ICompoundComet)12905)"
      },
      {
        "astId": 9438,
        "contract": "contracts/v2/gateways/compound/CompoundGatewayWrite.sol:CompoundGatewayWrite",
        "label": "_comets",
        "offset": 0,
        "slot": "3",
        "type": "t_array(t_address)dyn_storage"
      },
      {
        "astId": 9442,
        "contract": "contracts/v2/gateways/compound/CompoundGatewayWrite.sol:CompoundGatewayWrite",
        "label": "_isRegistered",
        "offset": 0,
        "slot": "4",
        "type": "t_mapping(t_address,t_bool)"
      }
    ],
    "types": {
      "t_address": {
        "encoding": "inplace",
        "label": "address",
        "numberOfBytes": "20"
      },
      "t_array(t_address)dyn_storage": {
        "base": "t_address",
        "encoding": "dynamic_array",
        "label": "address[]",
        "numberOfBytes": "32"
      },
      "t_bool": {
        "encoding": "inplace",
        "label": "bool",
        "numberOfBytes": "1"
      },
      "t_contract(ICompoundComet)12905": {
        "encoding": "inplace",
        "label": "contract ICompoundComet",
        "numberOfBytes": "20"
      },
      "t_mapping(t_address,t_bool)": {
        "encoding": "mapping",
        "key": "t_address",
        "label": "mapping(address => bool)",
        "numberOfBytes": "32",
        "value": "t_bool"
      },
      "t_mapping(t_address,t_contract(ICompoundComet)12905)": {
        "encoding": "mapping",
        "key": "t_address",
        "label": "mapping(address => contract ICompoundComet)",
        "numberOfBytes": "32",
        "value": "t_contract(ICompoundComet)12905"
      },
      "t_uint256": {
        "encoding": "inplace",
        "label": "uint256",
        "numberOfBytes": "32"
      }
    }
  }
}