{
  "address": "0x8e430bab0611d5356c964C6De97793956689216b",
  "abi": [
    {
      "inputs": [
        {
          "internalType": "address",
          "name": "router",
          "type": "address"
        },
        {
          "internalType": "address",
          "name": "owner_",
          "type": "address"
        }
      ],
      "stateMutability": "nonpayable",
      "type": "constructor"
    },
    {
      "inputs": [
        {
          "internalType": "address",
          "name": "target",
          "type": "address"
        }
      ],
      "name": "AddressEmptyCode",
      "type": "error"
    },
    {
      "inputs": [
        {
          "internalType": "address",
          "name": "account",
          "type": "address"
        }
      ],
      "name": "AddressInsufficientBalance",
      "type": "error"
    },
    {
      "inputs": [],
      "name": "FailedInnerCall",
      "type": "error"
    },
    {
      "inputs": [
        {
          "internalType": "address",
          "name": "owner",
          "type": "address"
        }
      ],
      "name": "OwnableInvalidOwner",
      "type": "error"
    },
    {
      "inputs": [
        {
          "internalType": "address",
          "name": "account",
          "type": "address"
        }
      ],
      "name": "OwnableUnauthorizedAccount",
      "type": "error"
    },
    {
      "inputs": [],
      "name": "ReentrancyGuardReentrantCall",
      "type": "error"
    },
    {
      "inputs": [
        {
          "internalType": "address",
          "name": "token",
          "type": "address"
        }
      ],
      "name": "SafeERC20FailedOperation",
      "type": "error"
    },
    {
      "anonymous": false,
      "inputs": [
        {
          "indexed": true,
          "internalType": "address",
          "name": "baseToken",
          "type": "address"
        },
        {
          "indexed": true,
          "internalType": "address",
          "name": "comet",
          "type": "address"
        }
      ],
      "name": "CometRegistered",
      "type": "event"
    },
    {
      "anonymous": false,
      "inputs": [
        {
          "indexed": true,
          "internalType": "address",
          "name": "baseToken",
          "type": "address"
        },
        {
          "indexed": true,
          "internalType": "address",
          "name": "oldComet",
          "type": "address"
        },
        {
          "indexed": true,
          "internalType": "address",
          "name": "newComet",
          "type": "address"
        }
      ],
      "name": "CometReplaced",
      "type": "event"
    },
    {
      "anonymous": false,
      "inputs": [
        {
          "indexed": true,
          "internalType": "address",
          "name": "previousOwner",
          "type": "address"
        },
        {
          "indexed": true,
          "internalType": "address",
          "name": "newOwner",
          "type": "address"
        }
      ],
      "name": "OwnershipTransferred",
      "type": "event"
    },
    {
      "inputs": [],
      "name": "ROUTER",
      "outputs": [
        {
          "internalType": "address",
          "name": "",
          "type": "address"
        }
      ],
      "stateMutability": "view",
      "type": "function"
    },
    {
      "inputs": [
        {
          "internalType": "contract ICompoundComet",
          "name": "comet",
          "type": "address"
        }
      ],
      "name": "addComet",
      "outputs": [],
      "stateMutability": "nonpayable",
      "type": "function"
    },
    {
      "inputs": [],
      "name": "allComets",
      "outputs": [
        {
          "internalType": "address[]",
          "name": "",
          "type": "address[]"
        }
      ],
      "stateMutability": "view",
      "type": "function"
    },
    {
      "inputs": [
        {
          "components": [
            {
              "internalType": "enum ProtocolTypes.LendingOp",
              "name": "op",
              "type": "uint8"
            },
            {
              "internalType": "address",
              "name": "token",
              "type": "address"
            },
            {
              "internalType": "address",
              "name": "user",
              "type": "address"
            },
            {
              "internalType": "uint256",
              "name": "amount",
              "type": "uint256"
            },
            {
              "internalType": "bytes",
              "name": "context",
              "type": "bytes"
            },
            {
              "components": [
                {
                  "internalType": "uint256",
                  "name": "index",
                  "type": "uint256"
                }
              ],
              "internalType": "struct ProtocolTypes.InputPtr",
              "name": "input",
              "type": "tuple"
            }
          ],
          "internalType": "struct ProtocolTypes.LendingInstruction[]",
          "name": "instrs",
          "type": "tuple[]"
        },
        {
          "internalType": "address",
          "name": "caller",
          "type": "address"
        },
        {
          "components": [
            {
              "internalType": "address",
              "name": "token",
              "type": "address"
            },
            {
              "internalType": "uint256",
              "name": "amount",
              "type": "uint256"
            }
          ],
          "internalType": "struct ProtocolTypes.Output[]",
          "name": "inputs",
          "type": "tuple[]"
        }
      ],
      "name": "authorize",
      "outputs": [
        {
          "internalType": "address[]",
          "name": "targets",
          "type": "address[]"
        },
        {
          "internalType": "bytes[]",
          "name": "data",
          "type": "bytes[]"
        },
        {
          "components": [
            {
              "internalType": "address",
              "name": "token",
              "type": "address"
            },
            {
              "internalType": "uint256",
              "name": "amount",
              "type": "uint256"
            }
          ],
          "internalType": "struct ProtocolTypes.Output[]",
          "name": "produced",
          "type": "tuple[]"
        }
      ],
      "stateMutability": "view",
      "type": "function"
    },
    {
      "inputs": [
        {
          "components": [
            {
              "internalType": "enum ProtocolTypes.LendingOp",
              "name": "op",
              "type": "uint8"
            },
            {
              "internalType": "address",
              "name": "token",
              "type": "address"
            },
            {
              "internalType": "address",
              "name": "user",
              "type": "address"
            },
            {
              "internalType": "uint256",
              "name": "amount",
              "type": "uint256"
            },
            {
              "internalType": "bytes",
              "name": "context",
              "type": "bytes"
            },
            {
              "components": [
                {
                  "internalType": "uint256",
                  "name": "index",
                  "type": "uint256"
                }
              ],
              "internalType": "struct ProtocolTypes.InputPtr",
              "name": "input",
              "type": "tuple"
            }
          ],
          "internalType": "struct ProtocolTypes.LendingInstruction[]",
          "name": "instrs",
          "type": "tuple[]"
        },
        {
          "internalType": "address",
          "name": "",
          "type": "address"
        },
        {
          "components": [
            {
              "internalType": "address",
              "name": "token",
              "type": "address"
            },
            {
              "internalType": "uint256",
              "name": "amount",
              "type": "uint256"
            }
          ],
          "internalType": "struct ProtocolTypes.Output[]",
          "name": "inputs",
          "type": "tuple[]"
        }
      ],
      "name": "deauthorize",
      "outputs": [
        {
          "internalType": "address[]",
          "name": "targets",
          "type": "address[]"
        },
        {
          "internalType": "bytes[]",
          "name": "data",
          "type": "bytes[]"
        }
      ],
      "stateMutability": "view",
      "type": "function"
    },
    {
      "inputs": [],
      "name": "owner",
      "outputs": [
        {
          "internalType": "address",
          "name": "",
          "type": "address"
        }
      ],
      "stateMutability": "view",
      "type": "function"
    },
    {
      "inputs": [
        {
          "components": [
            {
              "internalType": "address",
              "name": "token",
              "type": "address"
            },
            {
              "internalType": "uint256",
              "name": "amount",
              "type": "uint256"
            }
          ],
          "internalType": "struct ProtocolTypes.Output[]",
          "name": "inputs",
          "type": "tuple[]"
        },
        {
          "internalType": "bytes",
          "name": "data",
          "type": "bytes"
        }
      ],
      "name": "processLendingInstruction",
      "outputs": [
        {
          "components": [
            {
              "internalType": "address",
              "name": "token",
              "type": "address"
            },
            {
              "internalType": "uint256",
              "name": "amount",
              "type": "uint256"
            }
          ],
          "internalType": "struct ProtocolTypes.Output[]",
          "name": "outputs",
          "type": "tuple[]"
        }
      ],
      "stateMutability": "nonpayable",
      "type": "function"
    },
    {
      "inputs": [],
      "name": "renounceOwnership",
      "outputs": [],
      "stateMutability": "nonpayable",
      "type": "function"
    },
    {
      "inputs": [
        {
          "internalType": "address",
          "name": "baseToken",
          "type": "address"
        },
        {
          "internalType": "address",
          "name": "comet_",
          "type": "address"
        }
      ],
      "name": "setCometForBase",
      "outputs": [],
      "stateMutability": "nonpayable",
      "type": "function"
    },
    {
      "inputs": [
        {
          "internalType": "address",
          "name": "",
          "type": "address"
        }
      ],
      "name": "tokenToComet",
      "outputs": [
        {
          "internalType": "contract ICompoundComet",
          "name": "",
          "type": "address"
        }
      ],
      "stateMutability": "view",
      "type": "function"
    },
    {
      "inputs": [
        {
          "internalType": "address",
          "name": "newOwner",
          "type": "address"
        }
      ],
      "name": "transferOwnership",
      "outputs": [],
      "stateMutability": "nonpayable",
      "type": "function"
    }
  ],
  "transactionHash": "0x4a309322ef1b8cba7177ce6117456a0adc5ba00714df8df41cf8499d4ee08478",
  "args": [
    "0x97bF826cD87784c9e5A924F8d97918632AA4BFfC",
    "0x0BE61223F99E57b8b8B7033a77B54Adc7f7cF027"
  ],
  "numDeployments": 23,
  "solcInputHash": "cf5ff5c132e6b3e2cf29e3be8b528fd9",
  "bytecode": "0x60a060405234801561000f575f5ffd5b50604051612c0f380380612c0f83398101604081905261002e91610124565b80826001600160a01b0381166100765760405162461bcd60e51b81526020600482015260086024820152670726f757465723d360c41b60448201526064015b60405180910390fd5b6001600160a01b0390811660805281166100a557604051631e4fbdf760e01b81525f600482015260240161006d565b6100ae816100ba565b50506001805550610155565b5f80546001600160a01b038381166001600160a01b0319831681178455604051919092169283917f8be0079c531659141344cd1fd0a4f28419497f9722a3daafe3b4186f6b6457e09190a35050565b80516001600160a01b038116811461011f575f5ffd5b919050565b5f5f60408385031215610135575f5ffd5b61013e83610109565b915061014c60208401610109565b90509250929050565b608051612a9c6101735f395f818160f30152610b170152612a9c5ff3fe608060405234801561000f575f5ffd5b5060043610610097575f3560e01c806326e46ed31461009b5780632a8e3a49146100d957806332fe7b26146100ee57806352ed587514610115578063715018a614610137578063755f62ce1461013f5780638da5cb5b146101545780639f2204e81461015c578063aad11a3f1461016f578063ae4be46d14610190578063f2fde38b146101b0575b5f5ffd5b6100c36100a9366004612264565b60026020525f90815260409020546001600160a01b031681565b6040516100d0919061227f565b60405180910390f35b6100ec6100e7366004612264565b6101c3565b005b6100c37f000000000000000000000000000000000000000000000000000000000000000081565b6101286101233660046122da565b61037b565b6040516100d093929190612489565b6100ec610552565b610147610565565b6040516100d091906124c1565b6100c36105c5565b6100ec61016a3660046124d3565b6105d3565b61018261017d3660046122da565b610753565b6040516100d092919061250a565b6101a361019e366004612537565b610b0a565b6040516100d091906125cd565b6100ec6101be366004612264565b611284565b6101cb6112c1565b5f816001600160a01b031663c55dae636040518163ffffffff1660e01b8152600401602060405180830381865afa158015610208573d5f5f3e3d5ffd5b505050506040513d601f19601f8201168201806040525081019061022c91906125df565b90506001600160a01b03811661027c5760405162461bcd60e51b815260206004820152601060248201526f0436f6d706f756e643a20626173653d360841b60448201526064015b60405180910390fd5b6001600160a01b0382165f9081526004602052604090205460ff16156102e35760405162461bcd60e51b815260206004820152601c60248201527b10dbdb5c1bdd5b990e88185b1c9958591e481c9959da5cdd195c995960221b6044820152606401610273565b6001600160a01b038082165f81815260026020908152604080832080549588166001600160a01b031996871681179091558084526004909252808320805460ff1916600190811790915560038054918201815584527fc2575a0e9e593c00f959f8c92f12db2869c3395a3b0502d05e2516446f71f85b018054909516821790945592515f516020612a475f395f51905f529190a35050565b60608080866001600160401b03811115610397576103976125fa565b6040519080825280602002602001820160405280156103c0578160200160208202803683370190505b509250866001600160401b038111156103db576103db6125fa565b60405190808252806020026020018201604052801561040e57816020015b60608152602001906001900390816103f95790505b50915061041b88886112f3565b6001600160401b03811115610432576104326125fa565b60405190808252806020026020018201604052801561046b57816020015b61045861222f565b8152602001906001900390816104505790505b5090505f805b88811015610545575f5f5f5f6104ac8e8e878181106104925761049261260e565b90506020028101906104a49190612622565b8d8d8d6113db565b9350935093509350838986815181106104c7576104c761260e565b60200260200101906001600160a01b031690816001600160a01b031681525050828886815181106104fa576104fa61260e565b602002602001018190525080156105355781878761051781612654565b9850815181106105295761052961260e565b60200260200101819052505b5050600190920191506104719050565b5050955095509592505050565b61055a6112c1565b6105635f61172e565b565b606060038054806020026020016040519081016040528092919081815260200182805480156105bb57602002820191905f5260205f20905b81546001600160a01b0316815260019091019060200180831161059d575b5050505050905090565b5f546001600160a01b031690565b6105db6112c1565b6001600160a01b038216158015906105fb57506001600160a01b03811615155b6106385760405162461bcd60e51b815260206004820152600e60248201526d436f6d706f756e643a207a65726f60901b6044820152606401610273565b6001600160a01b038281165f90815260026020526040902054161561069d5760405162461bcd60e51b815260206004820152601b60248201527a10dbdb5c1bdd5b990e8818dbdb595d08185b1c9958591e481cd95d602a1b6044820152606401610273565b6001600160a01b0381165f9081526004602052604090205460ff16156107105760405162461bcd60e51b815260206004820152602260248201527f436f6d706f756e643a20636f6d657420616c7265616479207265676973746572604482015261195960f21b6064820152608401610273565b6001600160a01b038281165f8181526002602052604080822080546001600160a01b0319169486169485179055515f516020612a475f395f51905f529190a35050565b606080856001600160401b0381111561076e5761076e6125fa565b604051908082528060200260200182016040528015610797578160200160208202803683370190505b509150856001600160401b038111156107b2576107b26125fa565b6040519080825280602002602001820160405280156107e557816020015b60608152602001906001900390816107d05790505b5090505f5b86811015610aff57368888838181106108055761080561260e565b90506020028101906108179190612622565b90505f61086361082a608084018461266c565b8080601f0160208091040260200160405190810160405280939291908181526020018383808284375f9201919091525061177d92505050565b90505f6108766040840160208501612264565b905060a08301358711156108b357878760a085013581811061089a5761089a61260e565b6108b09260206040909202019081019150612264565b90505b60026108c260208501856126d0565b60098111156108d3576108d36126ae565b036109b1575f6001600160a01b0383166108ed57816108ef565b825b6001600160a01b038082165f908152600260205260409020549192501680156109aa57808887815181106109255761092561260e565b6001600160a01b039092166020928302919091019091015260405163110496e560e01b906109599030905f906024016126e9565b604051602081830303815290604052906001600160e01b0319166020820180516001600160e01b03838183161783525050505087878151811061099e5761099e61260e565b60200260200101819052505b5050610af4565b60036109c060208501856126d0565b60098111156109d1576109d16126ae565b03610a94576001600160a01b038082165f90815260026020526040902054168015610a8e5780878681518110610a0957610a0961260e565b6001600160a01b039092166020928302919091019091015260405163110496e560e01b90610a3d9030905f906024016126e9565b604051602081830303815290604052906001600160e01b0319166020820180516001600160e01b038381831617835250505050868681518110610a8257610a8261260e565b60200260200101819052505b50610af4565b5f868581518110610aa757610aa761260e565b60200260200101906001600160a01b031690816001600160a01b03168152505060405180602001604052805f815250858581518110610ae857610ae861260e565b60200260200101819052505b5050506001016107ea565b509550959350505050565b6060336001600160a01b037f00000000000000000000000000000000000000000000000000000000000000001614610b7b5760405162461bcd60e51b815260206004820152601460248201527313db9b1e481c9bdd5d195c8818d85b8818d85b1b60621b6044820152606401610273565b5f610b888385018561279b565b90505f610b98826080015161177d565b6020830151606084015160a0850151519293509091881115610c0b5788888560a001515f0151818110610bcd57610bcd61260e565b610be39260206040909202019081019150612264565b915088888560a001515f0151818110610bfe57610bfe61260e565b9050604002016020013590505b5f84516009811115610c1f57610c1f6126ae565b03610caf576001600160a01b03831615801590610c4e5750816001600160a01b0316836001600160a01b031614155b15610c6857610c638383838760400151611793565b610c77565b610c7782856040015183611932565b604080515f8082526020820190925290610ca7565b610c9461222f565b815260200190600190039081610c8c5790505b509450611278565b600184516009811115610cc457610cc46126ae565b03610d2b575f6001600160a01b038416610cde5782610ce0565b835b9050610cf28184848860400151611793565b604080515f8082526020820190925290610d22565b610d0f61222f565b815260200190600190039081610d075790505b50955050611278565b600284516009811115610d4057610d406126ae565b03610dea575f6001600160a01b038416610d5a5782610d5c565b835b90505f5f610d708386896040015187611ad0565b604080516001808252818301909252929450909250816020015b610d9261222f565b815260200190600190039081610d8a5790505097506040518060400160405280836001600160a01b0316815260200182815250885f81518110610dd757610dd761260e565b6020026020010181905250505050611278565b600384516009811115610dff57610dff6126ae565b03610e8557610e1382856040015183611b89565b60408051600180825281830190925290816020015b610e3061222f565b815260200190600190039081610e285790505094506040518060400160405280836001600160a01b0316815260200182815250855f81518110610e7557610e7561260e565b6020026020010181905250611278565b600484516009811115610e9a57610e9a6126ae565b03610f1057610eae82856040015183611932565b60408051600180825281830190925290816020015b610ecb61222f565b815260200190600190039081610ec35790505094506040518060400160405280836001600160a01b031681526020015f815250855f81518110610e7557610e7561260e565b600584516009811115610f2557610f256126ae565b03611039576001600160a01b038083165f90815260026020526040812054909116908115610fc1576040808701519051630dd3126d60e21b81526001600160a01b0384169163374c49b491610f7d919060040161227f565b602060405180830381865afa158015610f98573d5f5f3e3d5ffd5b505050506040513d601f19601f82011682018060405250810190610fbc91906128b1565b610fc3565b5f5b604080516001808252818301909252919250816020015b610fe261222f565b815260200190600190039081610fda5790505096506040518060400160405280856001600160a01b0316815260200182815250875f815181106110275761102761260e565b60200260200101819052505050611278565b60068451600981111561104e5761104e6126ae565b03611239575f6001600160a01b0384161580159061107e5750826001600160a01b0316846001600160a01b031614155b1561112c576001600160a01b038085165f90815260026020526040902054168015611122576040808701519051632e12a4f760e11b81526001600160a01b03831691635c2549ee916110d5919088906004016128c8565b602060405180830381865afa1580156110f0573d5f5f3e3d5ffd5b505050506040513d601f19601f8201168201806040525081019061111491906128e2565b6001600160801b0316611124565b5f5b9150506111c6565b6001600160a01b038084165f908152600260205260409020541680156111c05760408087015190516370a0823160e01b81526001600160a01b038316916370a082319161117c919060040161227f565b602060405180830381865afa158015611197573d5f5f3e3d5ffd5b505050506040513d601f19601f820116820180604052508101906111bb91906128b1565b6111c2565b5f5b9150505b60408051600180825281830190925290816020015b6111e361222f565b8152602001906001900390816111db5790505095506040518060400160405280846001600160a01b0316815260200182815250865f815181106112285761122861260e565b602002602001018190525050611278565b60405162461bcd60e51b81526020600482015260146024820152730436f6d706f756e643a20756e6b6e6f776e206f760641b6044820152606401610273565b50505050949350505050565b61128c6112c1565b6001600160a01b0381166112b5575f604051631e4fbdf760e01b8152600401610273919061227f565b6112be8161172e565b50565b336112ca6105c5565b6001600160a01b031614610563573360405163118cdaa760e01b8152600401610273919061227f565b5f805b828110156113d4575f8484838181106113115761131161260e565b90506020028101906113239190612622565b6113319060208101906126d0565b90506002816009811115611347576113476126ae565b148061136457506003816009811115611362576113626126ae565b145b806113805750600481600981111561137e5761137e6126ae565b145b8061139c5750600581600981111561139a5761139a6126ae565b145b806113b8575060068160098111156113b6576113b66126ae565b145b156113cb57826113c781612654565b9350505b506001016112f6565b5092915050565b5f60606113e661222f565b5f806113f861082a60808b018b61266c565b90505f61140b60408b0160208c01612264565b905060608a013560a08b013588111561146f57888860a08d01358181106114345761143461260e565b61144a9260206040909202019081019150612264565b9150888860a08d01358181106114625761146261260e565b9050604002016020013590505b5f61147d60208d018d6126d0565b600981111561148e5761148e6126ae565b14806114b7575060046114a460208d018d6126d0565b60098111156114b5576114b56126ae565b145b1561150b5760046114cb60208d018d6126d0565b60098111156114dc576114dc6126ae565b03611506576040518060400160405280836001600160a01b031681526020015f8152509450600193505b611720565b600161151a60208d018d6126d0565b600981111561152b5761152b6126ae565b148061158457505f61154060208d018d6126d0565b6009811115611551576115516126ae565b14801561156657506001600160a01b03831615155b80156115845750816001600160a01b0316836001600160a01b031614155b61172057600261159760208d018d6126d0565b60098111156115a8576115a86126ae565b036115e5576115b883838c611c46565b604080518082019091526001600160a01b0385168152602081018490529198509650945060019350611720565b60036115f460208d018d6126d0565b6009811115611605576116056126ae565b03611614576115b8828b611d45565b600561162360208d018d6126d0565b6009811115611634576116346126ae565b0361169c575f611656838d60400160208101906116519190612264565b611e2a565b90506040518060400160405280846001600160a01b031681526020016103e8836103e96116839190612908565b61168d919061291f565b81525095506001945050611720565b60066116ab60208d018d6126d0565b60098111156116bc576116bc6126ae565b03611720575f6116df83858e60400160208101906116da9190612264565b611ec8565b90506040518060400160405280846001600160a01b031681526020016103e8836103e961170c9190612908565b611716919061291f565b9052955060019450505b505050945094509450949050565b5f80546001600160a01b038381166001600160a01b0319831681178455604051919092169283917f8be0079c531659141344cd1fd0a4f28419497f9722a3daafe3b4186f6b6457e09190a35050565b5f602082511061178e575060208101515b919050565b61179b612034565b6001600160a01b038085165f9081526002602052604090205416806117d25760405162461bcd60e51b81526004016102739061293e565b6117e76001600160a01b03851633308661205e565b60405163095ea7b360e01b81526001600160a01b0385169063095ea7b3906118159084905f90600401612973565b6020604051808303815f875af1158015611831573d5f5f3e3d5ffd5b505050506040513d601f19601f82011682018060405250810190611855919061298c565b5060405163095ea7b360e01b81526001600160a01b0385169063095ea7b3906118849084908790600401612973565b6020604051808303815f875af11580156118a0573d5f5f3e3d5ffd5b505050506040513d601f19601f820116820180604052508101906118c4919061298c565b50604051634232cd6360e01b81526001600160a01b03821690634232cd63906118f5908590889088906004016129ab565b5f604051808303815f87803b15801561190c575f5ffd5b505af115801561191e573d5f5f3e3d5ffd5b505050505061192c60018055565b50505050565b61193a612034565b6001600160a01b038084165f9081526002602052604090205416806119715760405162461bcd60e51b8152600401610273906129cf565b6119866001600160a01b03851633308561205e565b60405163095ea7b360e01b81526001600160a01b0385169063095ea7b3906119b49084905f90600401612973565b6020604051808303815f875af11580156119d0573d5f5f3e3d5ffd5b505050506040513d601f19601f820116820180604052508101906119f4919061298c565b5060405163095ea7b360e01b81526001600160a01b0385169063095ea7b390611a239084908690600401612973565b6020604051808303815f875af1158015611a3f573d5f5f3e3d5ffd5b505050506040513d601f19601f82011682018060405250810190611a63919061298c565b50604051634232cd6360e01b81526001600160a01b03821690634232cd6390611a94908690889087906004016129ab565b5f604051808303815f87803b158015611aab575f5ffd5b505af1158015611abd573d5f5f3e3d5ffd5b5050505050611acb60018055565b505050565b5f5f611ada612034565b6001600160a01b038087165f908152600260205260409020541680611b115760405162461bcd60e51b81526004016102739061293e565b6040516304c8826360e31b81526001600160a01b03821690632644131890611b4390889033908b908a90600401612a06565b5f604051808303815f87803b158015611b5a575f5ffd5b505af1158015611b6c573d5f5f3e3d5ffd5b5050505085849250925050611b8060018055565b94509492505050565b611b91612034565b6001600160a01b038084165f908152600260205260409020541680611bc85760405162461bcd60e51b8152600401610273906129cf565b6040516304c8826360e31b81526001600160a01b03821690632644131890611bfa908690309089908890600401612a06565b5f604051808303815f87803b158015611c11575f5ffd5b505af1158015611c23573d5f5f3e3d5ffd5b50611c3c925050506001600160a01b03851633846120b8565b50611acb60018055565b5f6060816001600160a01b038616611c5e5784611c60565b855b6001600160a01b038082165f908152600260205260409081902054905163a165437960e01b81529293501690819063a165437990611ca490889030906004016128c8565b602060405180830381865afa158015611cbf573d5f5f3e3d5ffd5b505050506040513d601f19601f82011682018060405250810190611ce3919061298c565b611d3b5780935063110496e560e01b306001604051602401611d069291906126e9565b60408051601f198184030181529190526020810180516001600160e01b03166001600160e01b03199093169290921790915292505b5050935093915050565b6001600160a01b038083165f9081526002602052604080822054905163a165437960e01b81529192606092911690819063a165437990611d8b90879030906004016128c8565b602060405180830381865afa158015611da6573d5f5f3e3d5ffd5b505050506040513d601f19601f82011682018060405250810190611dca919061298c565b611e225780925063110496e560e01b306001604051602401611ded9291906126e9565b60408051601f198184030181529190526020810180516001600160e01b03166001600160e01b03199093169290921790915291505b509250929050565b6001600160a01b038083165f908152600260205260408120549091168015611ebc57604051630dd3126d60e21b81526001600160a01b0382169063374c49b490611e7890869060040161227f565b602060405180830381865afa158015611e93573d5f5f3e3d5ffd5b505050506040513d601f19601f82011682018060405250810190611eb791906128b1565b611ebe565b5f5b9150505b92915050565b5f6001600160a01b03831615801590611ef35750836001600160a01b0316836001600160a01b031614155b15611f9d576001600160a01b038084165f90815260026020526040902054168015611f9357604051632e12a4f760e11b81526001600160a01b03821690635c2549ee90611f4690869089906004016128c8565b602060405180830381865afa158015611f61573d5f5f3e3d5ffd5b505050506040513d601f19601f82011682018060405250810190611f8591906128e2565b6001600160801b0316611f95565b5f5b91505061202d565b6001600160a01b038085165f90815260026020526040902054168015611f93576040516370a0823160e01b81526001600160a01b038216906370a0823190611fe990869060040161227f565b602060405180830381865afa158015612004573d5f5f3e3d5ffd5b505050506040513d601f19601f8201168201806040525081019061202891906128b1565b611f95565b9392505050565b60026001540361205757604051633ee5aeb560e01b815260040160405180910390fd5b6002600155565b61192c84856001600160a01b03166323b872dd868686604051602401612086939291906129ab565b604051602081830303815290604052915060e01b6020820180516001600160e01b0383818316178352505050506120de565b611acb83846001600160a01b031663a9059cbb8585604051602401612086929190612973565b5f6120f26001600160a01b03841683612136565b905080515f14158015612116575080806020019051810190612114919061298c565b155b15611acb5782604051635274afe760e01b8152600401610273919061227f565b606061202d83835f845f5f856001600160a01b0316848660405161215a9190612a30565b5f6040518083038185875af1925050503d805f8114612194576040519150601f19603f3d011682016040523d82523d5f602084013e612199565b606091505b50915091506121a98683836121b3565b9695505050505050565b6060826121c8576121c382612206565b61202d565b81511580156121df57506001600160a01b0384163b155b156121ff5783604051639996b31560e01b8152600401610273919061227f565b508061202d565b8051156122165780518082602001fd5b604051630a12f52160e11b815260040160405180910390fd5b604080518082019091525f808252602082015290565b6001600160a01b03811681146112be575f5ffd5b803561178e81612245565b5f60208284031215612274575f5ffd5b813561202d81612245565b6001600160a01b0391909116815260200190565b5f5f83601f8401126122a3575f5ffd5b5081356001600160401b038111156122b9575f5ffd5b6020830191508360208260061b85010111156122d3575f5ffd5b9250929050565b5f5f5f5f5f606086880312156122ee575f5ffd5b85356001600160401b03811115612303575f5ffd5b8601601f81018813612313575f5ffd5b80356001600160401b03811115612328575f5ffd5b8860208260051b840101111561233c575f5ffd5b602091820196509450612350908701612259565b925060408601356001600160401b0381111561236a575f5ffd5b61237688828901612293565b969995985093965092949392505050565b5f8151808452602084019350602083015f5b828110156123c05781516001600160a01b0316865260209586019590910190600101612399565b5093949350505050565b5f82825180855260208501945060208160051b830101602085015f5b8381101561243857601f19858403018852815180518085528060208301602087015e5f602082870101526020601f19601f830116860101945050506020820191506020880197506001810190506123e6565b50909695505050505050565b5f8151808452602084019350602083015f5b828110156123c057815180516001600160a01b031687526020908101518188015260409096019590910190600101612456565b606081525f61249b6060830186612387565b82810360208401526124ad81866123ca565b905082810360408401526121a98185612444565b602081525f61202d6020830184612387565b5f5f604083850312156124e4575f5ffd5b82356124ef81612245565b915060208301356124ff81612245565b809150509250929050565b604081525f61251c6040830185612387565b828103602084015261252e81856123ca565b95945050505050565b5f5f5f5f6040858703121561254a575f5ffd5b84356001600160401b0381111561255f575f5ffd5b61256b87828801612293565b90955093505060208501356001600160401b03811115612589575f5ffd5b8501601f81018713612599575f5ffd5b80356001600160401b038111156125ae575f5ffd5b8760208284010111156125bf575f5ffd5b949793965060200194505050565b602081525f61202d6020830184612444565b5f602082840312156125ef575f5ffd5b815161202d81612245565b634e487b7160e01b5f52604160045260245ffd5b634e487b7160e01b5f52603260045260245ffd5b5f823560be19833603018112612636575f5ffd5b9190910192915050565b634e487b7160e01b5f52601160045260245ffd5b5f6001820161266557612665612640565b5060010190565b5f5f8335601e19843603018112612681575f5ffd5b8301803591506001600160401b0382111561269a575f5ffd5b6020019150368190038213156122d3575f5ffd5b634e487b7160e01b5f52602160045260245ffd5b8035600a811061178e575f5ffd5b5f602082840312156126e0575f5ffd5b61202d826126c2565b6001600160a01b039290921682521515602082015260400190565b60405160c081016001600160401b0381118282101715612726576127266125fa565b60405290565b604051601f8201601f191681016001600160401b0381118282101715612754576127546125fa565b604052919050565b5f6020828403121561276c575f5ffd5b604051602081016001600160401b038111828210171561278e5761278e6125fa565b6040529135825250919050565b5f602082840312156127ab575f5ffd5b81356001600160401b038111156127c0575f5ffd5b820160c081850312156127d1575f5ffd5b6127d9612704565b6127e2826126c2565b815260208201356127f281612245565b6020820152604082013561280581612245565b60408201526060828101359082015260808201356001600160401b0381111561282c575f5ffd5b8201601f8101861361283c575f5ffd5b80356001600160401b03811115612855576128556125fa565b612868601f8201601f191660200161272c565b81815287602083850101111561287c575f5ffd5b816020840160208301375f602083830101528060808501525050506128a48560a0840161275c565b60a0820152949350505050565b5f602082840312156128c1575f5ffd5b5051919050565b6001600160a01b0392831681529116602082015260400190565b5f602082840312156128f2575f5ffd5b81516001600160801b038116811461202d575f5ffd5b8082028115828204841417611ec257611ec2612640565b5f8261293957634e487b7160e01b5f52601260045260245ffd5b500490565b6020808252818101527f436f6d706f756e643a206d61726b657420636f6d6574206e6f7420666f756e64604082015260600190565b6001600160a01b03929092168252602082015260400190565b5f6020828403121561299c575f5ffd5b8151801515811461202d575f5ffd5b6001600160a01b039384168152919092166020820152604081019190915260600190565b6020808252601e908201527f436f6d706f756e643a206261736520636f6d6574206e6f7420666f756e640000604082015260600190565b6001600160a01b039485168152928416602084015292166040820152606081019190915260800190565b5f82518060208501845e5f92019182525091905056febd7bf039bc2e612983f7f581f4b5d456d978092d546243d55a7b3f8594fb9796a264697066735822122091648802aa8528edb8d065f24c59a0d11e3053130de729910cfa9f4afa8679df64736f6c634300081e0033",
  "devdoc": {
    "errors": {
      "AddressEmptyCode(address)": [
        {
          "details": "There's no code at `target` (it is not a contract)."
        }
      ],
      "AddressInsufficientBalance(address)": [
        {
          "details": "The ETH balance of the account is not enough to perform the operation."
        }
      ],
      "FailedInnerCall()": [
        {
          "details": "A call to an address target failed. The target may have reverted."
        }
      ],
      "OwnableInvalidOwner(address)": [
        {
          "details": "The owner is not a valid owner account. (eg. `address(0)`)"
        }
      ],
      "OwnableUnauthorizedAccount(address)": [
        {
          "details": "The caller account is not authorized to perform an operation."
        }
      ],
      "ReentrancyGuardReentrantCall()": [
        {
          "details": "Unauthorized reentrant call."
        }
      ],
      "SafeERC20FailedOperation(address)": [
        {
          "details": "An operation with an ERC20 token failed."
        }
      ]
    },
    "kind": "dev",
    "methods": {
      "owner()": {
        "details": "Returns the address of the current owner."
      },
      "renounceOwnership()": {
        "details": "Leaves the contract without owner. It will not be possible to call `onlyOwner` functions. Can only be called by the current owner. NOTE: Renouncing ownership will leave the contract without an owner, thereby disabling any functionality that is only available to the owner."
      },
      "transferOwnership(address)": {
        "details": "Transfers ownership of the contract to a new account (`newOwner`). Can only be called by the current owner."
      }
    },
    "version": 1
  },
  "userdoc": {
    "kind": "user",
    "methods": {
      "ROUTER()": {
        "notice": "Immutable router address that can call protected functions"
      },
      "authorize((uint8,address,address,uint256,bytes,(uint256))[],address,(address,uint256)[])": {
        "notice": "Return user-side authorization calls for the given lending instructions.         One element per input (or (address(0), bytes(\"\")) if none needed).         Also returns the produced outputs from the simulation of these instructions."
      }
    },
    "version": 1
  },
  "storageLayout": {
    "storage": [
      {
        "astId": 1578,
        "contract": "contracts/v2/gateways/compound/CompoundGatewayWrite.sol:CompoundGatewayWrite",
        "label": "_owner",
        "offset": 0,
        "slot": "0",
        "type": "t_address"
      },
      {
        "astId": 3093,
        "contract": "contracts/v2/gateways/compound/CompoundGatewayWrite.sol:CompoundGatewayWrite",
        "label": "_status",
        "offset": 0,
        "slot": "1",
        "type": "t_uint256"
      },
      {
        "astId": 20112,
        "contract": "contracts/v2/gateways/compound/CompoundGatewayWrite.sol:CompoundGatewayWrite",
        "label": "tokenToComet",
        "offset": 0,
        "slot": "2",
        "type": "t_mapping(t_address,t_contract(ICompoundComet)31551)"
      },
      {
        "astId": 20115,
        "contract": "contracts/v2/gateways/compound/CompoundGatewayWrite.sol:CompoundGatewayWrite",
        "label": "_comets",
        "offset": 0,
        "slot": "3",
        "type": "t_array(t_address)dyn_storage"
      },
      {
        "astId": 20119,
        "contract": "contracts/v2/gateways/compound/CompoundGatewayWrite.sol:CompoundGatewayWrite",
        "label": "_isRegistered",
        "offset": 0,
        "slot": "4",
        "type": "t_mapping(t_address,t_bool)"
      }
    ],
    "types": {
      "t_address": {
        "encoding": "inplace",
        "label": "address",
        "numberOfBytes": "20"
      },
      "t_array(t_address)dyn_storage": {
        "base": "t_address",
        "encoding": "dynamic_array",
        "label": "address[]",
        "numberOfBytes": "32"
      },
      "t_bool": {
        "encoding": "inplace",
        "label": "bool",
        "numberOfBytes": "1"
      },
      "t_contract(ICompoundComet)31551": {
        "encoding": "inplace",
        "label": "contract ICompoundComet",
        "numberOfBytes": "20"
      },
      "t_mapping(t_address,t_bool)": {
        "encoding": "mapping",
        "key": "t_address",
        "label": "mapping(address => bool)",
        "numberOfBytes": "32",
        "value": "t_bool"
      },
      "t_mapping(t_address,t_contract(ICompoundComet)31551)": {
        "encoding": "mapping",
        "key": "t_address",
        "label": "mapping(address => contract ICompoundComet)",
        "numberOfBytes": "32",
        "value": "t_contract(ICompoundComet)31551"
      },
      "t_uint256": {
        "encoding": "inplace",
        "label": "uint256",
        "numberOfBytes": "32"
      }
    }
  }
}