{
  "address": "0xaAba0f01904fBeC08979a9E759EAA363DAe89Cc7",
  "abi": [
    {
      "inputs": [
        {
          "internalType": "address",
          "name": "router",
          "type": "address"
        },
        {
          "internalType": "address",
          "name": "owner_",
          "type": "address"
        },
        {
          "internalType": "address",
          "name": "evc_",
          "type": "address"
        }
      ],
      "stateMutability": "nonpayable",
      "type": "constructor"
    },
    {
      "inputs": [
        {
          "internalType": "address",
          "name": "target",
          "type": "address"
        }
      ],
      "name": "AddressEmptyCode",
      "type": "error"
    },
    {
      "inputs": [
        {
          "internalType": "address",
          "name": "account",
          "type": "address"
        }
      ],
      "name": "AddressInsufficientBalance",
      "type": "error"
    },
    {
      "inputs": [],
      "name": "FailedInnerCall",
      "type": "error"
    },
    {
      "inputs": [],
      "name": "InvalidContext",
      "type": "error"
    },
    {
      "inputs": [
        {
          "internalType": "address",
          "name": "owner",
          "type": "address"
        }
      ],
      "name": "OwnableInvalidOwner",
      "type": "error"
    },
    {
      "inputs": [
        {
          "internalType": "address",
          "name": "account",
          "type": "address"
        }
      ],
      "name": "OwnableUnauthorizedAccount",
      "type": "error"
    },
    {
      "inputs": [],
      "name": "ReentrancyGuardReentrantCall",
      "type": "error"
    },
    {
      "inputs": [
        {
          "internalType": "address",
          "name": "token",
          "type": "address"
        }
      ],
      "name": "SafeERC20FailedOperation",
      "type": "error"
    },
    {
      "inputs": [],
      "name": "UnsupportedOperation",
      "type": "error"
    },
    {
      "inputs": [],
      "name": "ZeroAddress",
      "type": "error"
    },
    {
      "anonymous": false,
      "inputs": [
        {
          "indexed": true,
          "internalType": "address",
          "name": "previousOwner",
          "type": "address"
        },
        {
          "indexed": true,
          "internalType": "address",
          "name": "newOwner",
          "type": "address"
        }
      ],
      "name": "OwnershipTransferred",
      "type": "event"
    },
    {
      "inputs": [],
      "name": "ROUTER",
      "outputs": [
        {
          "internalType": "address",
          "name": "",
          "type": "address"
        }
      ],
      "stateMutability": "view",
      "type": "function"
    },
    {
      "inputs": [
        {
          "components": [
            {
              "internalType": "enum ProtocolTypes.LendingOp",
              "name": "op",
              "type": "uint8"
            },
            {
              "internalType": "address",
              "name": "token",
              "type": "address"
            },
            {
              "internalType": "address",
              "name": "user",
              "type": "address"
            },
            {
              "internalType": "uint256",
              "name": "amount",
              "type": "uint256"
            },
            {
              "internalType": "bytes",
              "name": "context",
              "type": "bytes"
            },
            {
              "components": [
                {
                  "internalType": "uint256",
                  "name": "index",
                  "type": "uint256"
                }
              ],
              "internalType": "struct ProtocolTypes.InputPtr",
              "name": "input",
              "type": "tuple"
            }
          ],
          "internalType": "struct ProtocolTypes.LendingInstruction[]",
          "name": "instrs",
          "type": "tuple[]"
        },
        {
          "internalType": "address",
          "name": "caller",
          "type": "address"
        },
        {
          "components": [
            {
              "internalType": "address",
              "name": "token",
              "type": "address"
            },
            {
              "internalType": "uint256",
              "name": "amount",
              "type": "uint256"
            }
          ],
          "internalType": "struct ProtocolTypes.Output[]",
          "name": "inputs",
          "type": "tuple[]"
        }
      ],
      "name": "authorize",
      "outputs": [
        {
          "internalType": "address[]",
          "name": "targets",
          "type": "address[]"
        },
        {
          "internalType": "bytes[]",
          "name": "data",
          "type": "bytes[]"
        },
        {
          "components": [
            {
              "internalType": "address",
              "name": "token",
              "type": "address"
            },
            {
              "internalType": "uint256",
              "name": "amount",
              "type": "uint256"
            }
          ],
          "internalType": "struct ProtocolTypes.Output[]",
          "name": "produced",
          "type": "tuple[]"
        }
      ],
      "stateMutability": "view",
      "type": "function"
    },
    {
      "inputs": [
        {
          "components": [
            {
              "internalType": "enum ProtocolTypes.LendingOp",
              "name": "op",
              "type": "uint8"
            },
            {
              "internalType": "address",
              "name": "token",
              "type": "address"
            },
            {
              "internalType": "address",
              "name": "user",
              "type": "address"
            },
            {
              "internalType": "uint256",
              "name": "amount",
              "type": "uint256"
            },
            {
              "internalType": "bytes",
              "name": "context",
              "type": "bytes"
            },
            {
              "components": [
                {
                  "internalType": "uint256",
                  "name": "index",
                  "type": "uint256"
                }
              ],
              "internalType": "struct ProtocolTypes.InputPtr",
              "name": "input",
              "type": "tuple"
            }
          ],
          "internalType": "struct ProtocolTypes.LendingInstruction[]",
          "name": "instrs",
          "type": "tuple[]"
        },
        {
          "internalType": "address",
          "name": "caller",
          "type": "address"
        },
        {
          "components": [
            {
              "internalType": "address",
              "name": "token",
              "type": "address"
            },
            {
              "internalType": "uint256",
              "name": "amount",
              "type": "uint256"
            }
          ],
          "internalType": "struct ProtocolTypes.Output[]",
          "name": "",
          "type": "tuple[]"
        }
      ],
      "name": "deauthorize",
      "outputs": [
        {
          "internalType": "address[]",
          "name": "targets",
          "type": "address[]"
        },
        {
          "internalType": "bytes[]",
          "name": "data",
          "type": "bytes[]"
        }
      ],
      "stateMutability": "view",
      "type": "function"
    },
    {
      "inputs": [],
      "name": "evc",
      "outputs": [
        {
          "internalType": "contract IEVC",
          "name": "",
          "type": "address"
        }
      ],
      "stateMutability": "view",
      "type": "function"
    },
    {
      "inputs": [],
      "name": "owner",
      "outputs": [
        {
          "internalType": "address",
          "name": "",
          "type": "address"
        }
      ],
      "stateMutability": "view",
      "type": "function"
    },
    {
      "inputs": [
        {
          "components": [
            {
              "internalType": "address",
              "name": "token",
              "type": "address"
            },
            {
              "internalType": "uint256",
              "name": "amount",
              "type": "uint256"
            }
          ],
          "internalType": "struct ProtocolTypes.Output[]",
          "name": "inputs",
          "type": "tuple[]"
        },
        {
          "internalType": "bytes",
          "name": "data",
          "type": "bytes"
        }
      ],
      "name": "processLendingInstruction",
      "outputs": [
        {
          "components": [
            {
              "internalType": "address",
              "name": "token",
              "type": "address"
            },
            {
              "internalType": "uint256",
              "name": "amount",
              "type": "uint256"
            }
          ],
          "internalType": "struct ProtocolTypes.Output[]",
          "name": "",
          "type": "tuple[]"
        }
      ],
      "stateMutability": "nonpayable",
      "type": "function"
    },
    {
      "inputs": [
        {
          "internalType": "address",
          "name": "token",
          "type": "address"
        },
        {
          "internalType": "address",
          "name": "to",
          "type": "address"
        },
        {
          "internalType": "uint256",
          "name": "amount",
          "type": "uint256"
        }
      ],
      "name": "recoverTokens",
      "outputs": [],
      "stateMutability": "nonpayable",
      "type": "function"
    },
    {
      "inputs": [],
      "name": "renounceOwnership",
      "outputs": [],
      "stateMutability": "nonpayable",
      "type": "function"
    },
    {
      "inputs": [
        {
          "internalType": "address",
          "name": "newOwner",
          "type": "address"
        }
      ],
      "name": "transferOwnership",
      "outputs": [],
      "stateMutability": "nonpayable",
      "type": "function"
    }
  ],
  "transactionHash": "0x6da253b9951e065755ce54e2f235d8d1a3b2451e3b8816a160c7a91a5b13a4a3",
  "args": [
    "0x0e1c6b00d95F0A582a62a8a94cb9192fDF2d62eA",
    "0x0BE61223F99E57b8b8B7033a77B54Adc7f7cF027",
    "0x6302ef0F34100CDDFb5489fbcB6eE1AA95CD1066"
  ],
  "numDeployments": 2,
  "solcInputHash": "b95a56a4b85c33c6f7bda1716e6db33b",
  "bytecode": "0x60c03461018e57601f6127b738819003918201601f19168301916001600160401b038311848410176101925780849260609460405283398101031261018e57610047816101a6565b906100606040610059602084016101a6565b92016101a6565b916001600160a01b0381161561015e576080526001600160a01b031690811561014b575f80546001600160a01b031981168417825560405193916001600160a01b03909116907f8be0079c531659141344cd1fd0a4f28419497f9722a3daafe3b4186f6b6457e09080a3600180556001600160a01b0316801561013c5760a0526125fc90816101bb823960805181818161011e0152610c5e015260a05181818160b6015281816103d5015281816106470152818161150b015281816116af015281816117860152818161181101528181611cd301526120510152f35b63d92e233d60e01b5f5260045ffd5b631e4fbdf760e01b5f525f60045260245ffd5b60405162461bcd60e51b81526020600482015260086024820152670726f757465723d360c41b6044820152606490fd5b5f80fd5b634e487b7160e01b5f52604160045260245ffd5b51906001600160a01b038216820361018e5756fe60806040526004361015610011575f80fd5b5f3560e01c80630fb411e8146100a457806332fe7b261461009f57806352ed58751461009a5780635f3e849f14610095578063715018a6146100905780638da5cb5b1461008b578063aad11a3f14610086578063ae4be46d146100815763f2fde38b1461007c575f80fd5b6107ef565b610764565b610605565b6105b9565b610575565b610499565b610354565b610109565b346100e8575f3660031901126100e8577f00000000000000000000000000000000000000000000000000000000000000006001600160a01b03166080908152602090f35b5f80fd5b5f9103126100e857565b6001600160a01b03909116815260200190565b346100e8575f3660031901126100e8576040517f00000000000000000000000000000000000000000000000000000000000000006001600160a01b03168152602090f35b6001600160a01b038116036100e857565b35906101698261014d565b565b9181601f840112156100e8578235916001600160401b0383116100e8576020808501948460061b0101116100e857565b9060606003198301126100e857600435916001600160401b0383116100e857806023840112156100e8576004830135926001600160401b0384116100e8578160248560051b830101116100e85760240192916101f7602461015e565b91604435906001600160401b0382116100e8576102169160040161016b565b9091565b90602080835192838152019201905f5b8181106102375750505090565b82516001600160a01b031684526020938401939092019160010161022a565b805180835260209291819084018484015e5f828201840152601f01601f1916010190565b9080602083519182815201916020808360051b8301019401925f915b8383106102a557505050505090565b90919293946020806102c3600193601f198682030187528951610256565b97019301930191939290610296565b90602080835192838152019201905f5b8181106102ef5750505090565b825180516001600160a01b0316855260209081015181860152604090940193909201916001016102e2565b9161034390610335610351959360608652606086019061021a565b90848203602086015261027a565b9160408184039101526102d2565b90565b346100e8576103623661019b565b91936103796103748583969496610e8c565b61096c565b9261039361038e610389856109db565b6109f6565b610a41565b946103a86103a3610389866109db565b610ae0565b966103b1610b29565b94604051630b23949560e11b8152602081806103d1308760048401610b65565b03817f00000000000000000000000000000000000000000000000000000000000000006001600160a01b03165afa80156104945761041a915f91610465575b5015156040880152565b5f5b89898383106104415761043d8a8a805184525184526040519384938461031a565b0390f35b888a849361045f938a8a8a61045a8f9a8c60019c610b9e565b610f8d565b0161041c565b610487915060203d60201161048d575b61047f81836108cf565b810190610b4d565b5f610410565b503d610475565b610b7f565b346100e85760603660031901126100e8576004356104b68161014d565b602435906104c38261014d565b604435906104cf61115d565b6040516370a0823160e01b81526001600160a01b0391909116929091602083806104fc30600483016100f6565b0381875afa928315610494575f93610544575b505f19810361053e5750815b808311610536575b508161052b57005b6105349261119e565b005b91505f610523565b9161051b565b61056791935060203d60201161056e575b61055f81836108cf565b810190610bc5565b915f61050f565b503d610555565b346100e8575f3660031901126100e85761058d61115d565b5f80546001600160a01b0319811682556001600160a01b03165f5160206125a75f395f51905f528280a3005b346100e8575f3660031901126100e8575f546040516001600160a01b039091168152602090f35b90916105f76103519360408452604084019061021a565b91602081840391015261027a565b346100e8576106133661019b565b5050915f915f5b8181106106fc575b5050505f146106e557610633610a1f565b6106b36106c1610641610aa6565b9361067d7f00000000000000000000000000000000000000000000000000000000000000006001600160a01b031661067886610c06565b610c27565b604051634fae231560e11b60208201526001600160a01b0390911660248201523060448201525f60648201529182906084820190565b03601f1981018352826108cf565b6106ca83610c06565b526106d482610c06565b505b61043d604051928392836105e0565b506106ee610a04565b6106f6610a73565b906106d6565b61070f61070a828486610b9e565b610bfc565b61071881610bde565b6002811490811561073f575b506107315760010161061a565b5050505060015f8080610622565b6003915061074c81610bde565b145f610724565b9060206103519281815201906102d2565b346100e85760403660031901126100e8576004356001600160401b0381116100e85761079490369060040161016b565b90602435906001600160401b0382116100e857366023830112156100e8576004820135906001600160401b0382116100e85736602483850101116100e85761043d9360246107e3940191610c57565b60405191829182610753565b346100e85760203660031901126100e85760043561080c8161014d565b61081461115d565b6001600160a01b03168015610852575f80546001600160a01b03198116831782556001600160a01b0316905f5160206125a75f395f51905f529080a3005b631e4fbdf760e01b5f525f60045260245ffd5b634e487b7160e01b5f52604160045260245ffd5b604081019081106001600160401b0382111761089457604052565b610865565b608081019081106001600160401b0382111761089457604052565b60c081019081106001600160401b0382111761089457604052565b601f909101601f19168101906001600160401b0382119082101761089457604052565b604051906101696040836108cf565b604051906101696080836108cf565b6001600160401b0381116108945760051b60200190565b604051906109366020836108cf565b5f80835282815b82811061094957505050565b60209060405161095881610879565b5f81525f838201528282850101520161093d565b9061097682610910565b61098360405191826108cf565b8281528092610994601f1991610910565b01905f5b8281106109a457505050565b6020906040516109b381610879565b5f81525f8382015282828501015201610998565b634e487b7160e01b5f52601160045260245ffd5b908160011b91808304600214901517156109f157565b6109c7565b60010190816001116109f157565b60405190610a136020836108cf565b5f808352366020840137565b60408051909190610a3083826108cf565b6001815291601f1901366020840137565b90610a4b82610910565b610a5860405191826108cf565b8281528092610a69601f1991610910565b0190602036910137565b60405190610a826020836108cf565b5f80835282815b828110610a9557505050565b806060602080938501015201610a89565b60408051909190610ab783826108cf565b6001815291601f1901825f5b828110610acf57505050565b806060602080938501015201610ac3565b90610aea82610910565b610af760405191826108cf565b8281528092610b08601f1991610910565b01905f5b828110610b1857505050565b806060602080938501015201610b0c565b60405190610b3682610899565b5f6060838281528260208201528260408201520152565b908160209103126100e8575180151581036100e85790565b6001600160a01b0391821681529116602082015260400190565b6040513d5f823e3d90fd5b634e487b7160e01b5f52603260045260245ffd5b9190811015610bc05760051b8101359060be19813603018212156100e8570190565b610b8a565b908160209103126100e8575190565b600a11156100e857565b600a1115610be857565b634e487b7160e01b5f52602160045260245ffd5b3561035181610bd4565b805115610bc05760200190565b8051821015610bc05760209160051b010190565b6001600160a01b039091169052565b6001600160a01b039182168152911660208201526001604082015260600190565b91929091907f00000000000000000000000000000000000000000000000000000000000000006001600160a01b03163303610d98578301926020818503126100e8578035906001600160401b0382116100e857019060c0828503126100e85760405191610cc3836108b4565b8035610cce81610bd4565b8352610cdc6020820161015e565b6020840152610ced6040820161015e565b604084019081526060828101359085019081529094608083013591906001600160401b0383116100e857610d4e610d408960a0610d326103519c610d87988a01610e25565b9760808b0198895201610e40565b9460a08801958652516111d8565b9590945151928284105f14610d8d575091610d6b91602093610e6e565b0135935b5194610d7a86610bde565b516001600160a01b031690565b9361123f565b925050505193610d6f565b60405162461bcd60e51b815260206004820152601460248201527313db9b1e481c9bdd5d195c8818d85b8818d85b1b60621b6044820152606490fd5b6001600160401b03811161089457601f01601f191660200190565b929192610dfb82610dd4565b91610e0960405193846108cf565b8294818452818301116100e8578281602093845f960137010152565b9080601f830112156100e85781602061035193359101610def565b91908260209103126100e857604051602081016001600160401b038111828210176108945760405291358252565b9190811015610bc05760061b0190565b5f1981146109f15760010190565b5f9291835b818110610e9d57505050565b610ea8818385610b9e565b35610eb281610bd4565b610ebb81610bde565b60028114908115610f3c575b8115610f27575b8115610f12575b8115610efe575b50610eea575b600101610e91565b93610ef6600191610e7e565b949050610ee2565b60069150610f0b81610bde565b145f610edc565b9050610f1d81610bde565b6005811490610ed5565b9050610f3281610bde565b6004811490610ece565b9050610f4781610bde565b6003811490610ec7565b903590601e19813603018212156100e857018035906001600160401b0382116100e8576020019181360383136100e857565b356103518161014d565b96959091610fb0610fab610fa460808b018b610f51565b3691610def565b6111d8565b94909160a08a01358281101561114f57602092610fcc92610e6e565b0135905b6001610fdb8a610bfc565b610fe481610bde565b03610ff65750505061016995506117fe565b60026110088a98979693959498610bfc565b61101181610bde565b0361102d57505061102760206101699801610f83565b90611737565b60036110388a610bfc565b61104181610bde565b0361105b5761105560206101699a01610f83565b926114d2565b50505050505090600561106d84610bfc565b61107681610bde565b036110cc5790602083926060611090836110c99701610f83565b9401356110a561109e6108f2565b9586610c27565b8285015201918251926110b784610e7e565b90526110c38383610c13565b52610c13565b50565b60066110d784610bfc565b6110e081610bde565b036110fa5790602083926060611090836110c99701610f83565b90600461110684610bfc565b61110f81610bde565b1461111957505050565b6020611129816110c99501610f83565b9261113c6111356108f2565b9485610c27565b5f8285015201918251926110b784610e7e565b505050606088013590610fd0565b5f546001600160a01b0316330361117057565b63118cdaa760e01b5f523360045260245ffd5b6001600160a01b039091168152602081019190915260400190565b6111d361016993926111c560405194859263a9059cbb60e01b602085015260248401611183565b03601f1981018452836108cf565b6118e8565b604081511061121b576040818051810103126100e85760406020820151916111ff8361014d565b015161120a8161014d565b6001600160a01b0391821692911690565b63271a26f160e01b5f5260045ffd5b908160209103126100e857516103518161014d565b90929161124b82610bde565b600182146114bd5761125c82610bde565b600282146114585761126d82610bde565b600682146113f1575061127f81610bde565b600381146113905761129081610bde565b6004811461132f57600591506112a581610bde565b146112b957639ba6061b60e01b5f5260045ffd5b6040516338d52e0f60e01b8152916020836004816001600160a01b0386165afa90811561049457610351935f926112fc575b506112f6919261238f565b90611e44565b6112f692506113229060203d602011611328575b61131a81836108cf565b81019061122a565b916112eb565b503d611310565b506040516338d52e0f60e01b8152926020846004816001600160a01b0387165afa91821561049457610351945f9361136d575b506112f69293612159565b6112f6935061138a9060203d6020116113285761131a81836108cf565b92611362565b506040516338d52e0f60e01b8152926020846004816001600160a01b0387165afa91821561049457610351945f936113ce575b506112f69293611f86565b6112f693506113eb9060203d6020116113285761131a81836108cf565b926113c3565b6040516338d52e0f60e01b815294909350915060209050836004816001600160a01b0386165afa90811561049457610351935f92611435575b506112f69192611ed2565b6112f692506114529060203d6020116113285761131a81836108cf565b9161142a565b6040516338d52e0f60e01b81529490935090506020846004816001600160a01b0387165afa91821561049457610351945f9361149a575b506112f69293611a3e565b6112f693506114b79060203d6020116113285761131a81836108cf565b9261148f565b90506114ca939250611953565b610351610927565b979392969561154795926114f06114ec6040880151151590565b1590565b80611721575b6116a7575b6040516313ce2dab60e31b8152967f00000000000000000000000000000000000000000000000000000000000000006001600160a01b0316919060209089908190848f60048401610b65565b0381855afa801561049457611585985f91611688575b501561162b575b506040516311f3f6b160e21b81529660209088908190868e60048401610b65565b0381845afa998a15610494576110c99a6020985f9161160e575b50156115b6575b50505050506110a561109e6108f2565b6115cc6115ea926106786115f7978a5190610c13565b6111c56040519485926330da145b60e21b8b85015260248401610b65565b8451916110c38383610c13565b506116028251610e7e565b82525f808080806115a6565b6116259150893d8b1161048d5761047f81836108cf565b5f61159f565b6116759061163e836106788a5189610c13565b6116618c6106b3604051938492636a27f72d60e11b602085015260248401610b65565b87519061166e8286610c13565b5283610c13565b506116808651610e7e565b86525f611564565b6116a1915060203d60201161048d5761047f81836108cf565b5f61155d565b85516116e2907f00000000000000000000000000000000000000000000000000000000000000006001600160a01b0316906106789087610c13565b604051634fae231560e11b602082015261170890611661816106b3308f60248401610c36565b506117138651610e7e565b8652600160608701526114fb565b506117326114ec6060880151151590565b6114f6565b926020936110c997939296956117536114ec6040870151151590565b806117e8575b61176c575b5050506110a561109e6108f2565b6115ea6111c5926117af6117cc9561067860018060a01b037f000000000000000000000000000000000000000000000000000000000000000016918a5190610c13565b604051634fae231560e11b89820152938491309060248401610c36565b506117d78251610e7e565b8252600160608301525f808061175e565b506117f96114ec6060870151151590565b611759565b6040516313ce2dab60e31b8152929391927f00000000000000000000000000000000000000000000000000000000000000006001600160a01b031691906020818061184d888660048401610b65565b0381865afa908115610494575f916118c9575b501561186f575b505050505050565b6118856118a4926106786118b197895190610c13565b6111c5604051948592636a27f72d60e11b602085015260248401610b65565b8351916110c38383610c13565b506118bc8151610e7e565b90525f8080808080611867565b6118e2915060203d60201161048d5761047f81836108cf565b5f611860565b5f806119109260018060a01b03169360208151910182865af1611909612519565b9083612548565b8051908115159182611938575b50506119265750565b635274afe760e01b5f5260045260245ffd5b61194b9250602080918301019101610b4d565b155f8061191d565b909161195d6123cb565b6040516338d52e0f60e01b8152926001600160a01b03831690602085600481855afa801561049457816020956119b3926119d0985f91611a08575b506001600160a01b03166119ae833033846123eb565b61242f565b5f604051809681958294636e553f6560e01b845260048401611a25565b03925af18015610494576119e9575b5061016960018055565b611a019060203d60201161056e5761055f81836108cf565b505f6119df565b611a1f9150883d8a116113285761131a81836108cf565b5f611998565b9081526001600160a01b03909116602082015260400190565b90611a519291611a4c6123cb565b611b58565b9060018055565b604080519190611a6890836108cf565b6001825281601f19611a7a6001610910565b01905f5b828110611a8a57505050565b602090604051611a9981610899565b5f81525f838201525f604082015260608082015282828501015201611a7e565b602081016020825282518091526040820191602060408360051b8301019401925f915b838310611aeb57505050505090565b9091929394602080611b3c600193603f19868203018752608060608b51878060a01b038151168452878060a01b03868201511686850152604081015160408501520151918160608201520190610256565b97019301930191939290611adc565b919082039182116109f157565b6040516370a0823160e01b8152909291906001600160a01b0384169060208180611b8587600483016100f6565b0381855afa90811561049457611bbf916020915f91611e27575b50604051809381926303d1689d60e11b8352600483019190602083019252565b0381855afa908115610494575f91611e08575b50808311611e00575b508115611df8576020600491604051928380926338d52e0f60e01b82525afa908115610494575f91611dd9575b506040516370a0823160e01b81526001600160a01b039190911693909260208480611c3630600483016100f6565b0381885afa938415610494575f94611db8575b50611cb281611c9e611c59611a58565b604051632d182be560e21b602082015260248101979097523060448801526001600160a01b03909416606487015292949283608481015b03601f1981018552846108cf565b611ca9611135610901565b60208401610c27565b5f60408301526060820152611cc682610c06565b52611cd081610c06565b507f00000000000000000000000000000000000000000000000000000000000000006001600160a01b0316803b156100e85760405163305ab9e960e21b8152915f918391829084908290611d279060048301611ab9565b03925af1801561049457611d9e575b506040516370a0823160e01b815260208180611d5530600483016100f6565b0381865afa9182156104945761035192611d76925f91611d7f575b50611b4b565b8092339061119e565b611d98915060203d60201161056e5761055f81836108cf565b5f611d70565b80611dac5f611db2936108cf565b806100ec565b5f611d36565b611dd291945060203d60201161056e5761055f81836108cf565b925f611c49565b611df2915060203d6020116113285761131a81836108cf565b5f611c08565b505050505f90565b91505f611bdb565b611e21915060203d60201161056e5761055f81836108cf565b5f611bd2565b611e3e9150823d841161056e5761055f81836108cf565b5f611b9f565b919091611e516001610910565b90611e5f60405192836108cf565b60018252601f19611e706001610910565b015f5b818110611eaf575050819360405191611e8b83610879565b6001600160a01b031682526020820152815115610bc05760208201525115610bc057565b602090604051611ebe81610879565b5f81525f8382015282828701015201611e73565b6040516370a0823160e01b81526001600160a01b039091169160209082908190611eff90600483016100f6565b0381855afa801561049457611f39926020925f92611f67575b5060405180809581946303d1689d60e11b8352600483019190602083019252565b03915afa908115610494575f91611f4e575090565b610351915060203d60201161056e5761055f81836108cf565b611f7f919250833d851161056e5761055f81836108cf565b905f611f18565b9190611f906123cb565b6040516338d52e0f60e01b81526020816004816001600160a01b0388165afa908115610494575f9161213a575b506040516370a0823160e01b81526001600160a01b039190911693909260208480611feb30600483016100f6565b0381885afa938415610494575f94612111575b50612030611c9091611c9e612011611a58565b95604051948591630967fa2960e31b6020840152309060248401611a25565b5f6040830152606082015261204482610c06565b5261204e81610c06565b507f00000000000000000000000000000000000000000000000000000000000000006001600160a01b0316803b156100e85760405163305ab9e960e21b8152915f9183918290849082906120a59060048301611ab9565b03925af18015610494576120fd575b506040516370a0823160e01b8152602081806120d330600483016100f6565b0381865afa918215610494576120f392611d76925f91611d7f5750611b4b565b9061016960018055565b80611dac5f61210b936108cf565b5f6120b4565b611c909194506121326120309160203d60201161056e5761055f81836108cf565b949150611ffe565b612153915060203d6020116113285761131a81836108cf565b5f611fbd565b906121626123cb565b6040516338d52e0f60e01b81526001600160a01b0383169190602081600481865afa908115610494575f91612370575b506040516370a0823160e01b81526001600160a01b0391909116949093602085806121c030600483016100f6565b0381895afa948515610494575f95612349575b50826121eb916121e58230338b6123eb565b8761242f565b60405163d283e75f60e01b8152926020848061220a85600483016100f6565b0381845afa938415610494575f94612328575b50836122bd575b50505050604051906370a0823160e01b82526020828061224730600483016100f6565b0381865afa918215610494575f9261229c575b50808211156122935761226c91611b4b565b905b8180612281575b50509061016960018055565b61228c91339061119e565b5f81612275565b50505f9061226e565b6122b691925060203d60201161056e5761055f81836108cf565b905f61225a565b6122eb936020938181111561232157505b5f60405180968195829463acb7081560e01b845260048401611a25565b03925af1801561049457612302575b808080612224565b61231a9060203d60201161056e5761055f81836108cf565b505f6122fa565b90506122ce565b61234291945060203d60201161056e5761055f81836108cf565b925f61221d565b6121eb919550612368849160203d60201161056e5761055f81836108cf565b9591506121d3565b612389915060203d6020116113285761131a81836108cf565b5f612192565b60405163d283e75f60e01b81526001600160a01b0392831660048201529160209183916024918391165afa908115610494575f91611f4e575090565b6002600154146123dc576002600155565b633ee5aeb560e01b5f5260045ffd5b6040516323b872dd60e01b60208201526001600160a01b039283166024820152929091166044830152606480830193909352918152610169916111d36084836108cf565b9190916124966040519261246784612459602082019363095ea7b360e01b85528860248401611183565b03601f1981018652856108cf565b83516001600160a01b038416915f91829182855af190612485612519565b826124e7575b50816124e057501590565b61249f57505050565b60405163095ea7b360e01b60208201526001600160a01b0390931660248401525f6044840152610169926111d3906124da81606481016106b3565b826118e8565b3b15919050565b805191925081159182156124ff575b5050905f61248b565b6125129250602080918301019101610b4d565b5f806124f6565b3d15612543573d9061252a82610dd4565b9161253860405193846108cf565b82523d5f602084013e565b606090565b9061256c575080511561255d57805190602001fd5b630a12f52160e11b5f5260045ffd5b8151158061259d575b61257d575090565b639996b31560e01b5f9081526001600160a01b0391909116600452602490fd5b50803b1561257556fe8be0079c531659141344cd1fd0a4f28419497f9722a3daafe3b4186f6b6457e0a26469706673582212200c107c6cb843483c3b2348d90c1970e6f1505e66b6c54079707929b3f787217e64736f6c634300081e0033",
  "devdoc": {
    "details": "Euler V2 uses vault-based architecture with EVC (Ethereum Vault Connector) Context encoding for LendingInstruction:   - bytes context = abi.encode(address borrowVault, address collateralVault)   - borrowVault: The vault to borrow from (becomes controller)   - collateralVault: The vault where collateral is deposited EVC Authorization Model:   - Users must enable collateral vaults via EVC before they can back debt   - Users must enable controller (borrow vault) before borrowing   - Gateway uses operator authorization to act on behalf of users",
    "errors": {
      "AddressEmptyCode(address)": [
        {
          "details": "There's no code at `target` (it is not a contract)."
        }
      ],
      "AddressInsufficientBalance(address)": [
        {
          "details": "The ETH balance of the account is not enough to perform the operation."
        }
      ],
      "FailedInnerCall()": [
        {
          "details": "A call to an address target failed. The target may have reverted."
        }
      ],
      "OwnableInvalidOwner(address)": [
        {
          "details": "The owner is not a valid owner account. (eg. `address(0)`)"
        }
      ],
      "OwnableUnauthorizedAccount(address)": [
        {
          "details": "The caller account is not authorized to perform an operation."
        }
      ],
      "ReentrancyGuardReentrantCall()": [
        {
          "details": "Unauthorized reentrant call."
        }
      ],
      "SafeERC20FailedOperation(address)": [
        {
          "details": "An operation with an ERC20 token failed."
        }
      ]
    },
    "kind": "dev",
    "methods": {
      "owner()": {
        "details": "Returns the address of the current owner."
      },
      "renounceOwnership()": {
        "details": "Leaves the contract without owner. It will not be possible to call `onlyOwner` functions. Can only be called by the current owner. NOTE: Renouncing ownership will leave the contract without an owner, thereby disabling any functionality that is only available to the owner."
      },
      "transferOwnership(address)": {
        "details": "Transfers ownership of the contract to a new account (`newOwner`). Can only be called by the current owner."
      }
    },
    "title": "EulerGatewayWrite",
    "version": 1
  },
  "userdoc": {
    "kind": "user",
    "methods": {
      "ROUTER()": {
        "notice": "Immutable router address that can call protected functions"
      },
      "authorize((uint8,address,address,uint256,bytes,(uint256))[],address,(address,uint256)[])": {
        "notice": "Return user-side authorization calls for the given lending instructions.         One element per input (or (address(0), bytes(\"\")) if none needed).         Also returns the produced outputs from the simulation of these instructions."
      },
      "evc()": {
        "notice": "The Ethereum Vault Connector (EVC) singleton"
      },
      "recoverTokens(address,address,uint256)": {
        "notice": "Recover stuck tokens (owner only)"
      }
    },
    "notice": "Gateway for Euler V2 lending protocol",
    "version": 1
  },
  "storageLayout": {
    "storage": [
      {
        "astId": 8,
        "contract": "contracts/v2/gateways/euler/EulerGatewayWrite.sol:EulerGatewayWrite",
        "label": "_owner",
        "offset": 0,
        "slot": "0",
        "type": "t_address"
      },
      {
        "astId": 845,
        "contract": "contracts/v2/gateways/euler/EulerGatewayWrite.sol:EulerGatewayWrite",
        "label": "_status",
        "offset": 0,
        "slot": "1",
        "type": "t_uint256"
      }
    ],
    "types": {
      "t_address": {
        "encoding": "inplace",
        "label": "address",
        "numberOfBytes": "20"
      },
      "t_uint256": {
        "encoding": "inplace",
        "label": "uint256",
        "numberOfBytes": "32"
      }
    }
  }
}