{
  "address": "0x42a3E18f8B7656f22ef4738e9751B1034913C238",
  "abi": [
    {
      "inputs": [
        {
          "internalType": "address",
          "name": "owner",
          "type": "address"
        }
      ],
      "stateMutability": "nonpayable",
      "type": "constructor"
    },
    {
      "inputs": [
        {
          "internalType": "address",
          "name": "target",
          "type": "address"
        }
      ],
      "name": "AddressEmptyCode",
      "type": "error"
    },
    {
      "inputs": [
        {
          "internalType": "address",
          "name": "account",
          "type": "address"
        }
      ],
      "name": "AddressInsufficientBalance",
      "type": "error"
    },
    {
      "inputs": [],
      "name": "BadIndex",
      "type": "error"
    },
    {
      "inputs": [],
      "name": "BadInitiator",
      "type": "error"
    },
    {
      "inputs": [],
      "name": "FailedInnerCall",
      "type": "error"
    },
    {
      "inputs": [],
      "name": "FlashLoanNotEnabled",
      "type": "error"
    },
    {
      "inputs": [],
      "name": "FlashLoanRequiresTransientStack",
      "type": "error"
    },
    {
      "inputs": [],
      "name": "FractionTooLarge",
      "type": "error"
    },
    {
      "inputs": [],
      "name": "GatewayAlreadyExists",
      "type": "error"
    },
    {
      "inputs": [],
      "name": "GatewayNotFound",
      "type": "error"
    },
    {
      "inputs": [],
      "name": "InvalidFlashParams",
      "type": "error"
    },
    {
      "inputs": [],
      "name": "InvalidPool",
      "type": "error"
    },
    {
      "inputs": [],
      "name": "NestedFlashNotAllowed",
      "type": "error"
    },
    {
      "inputs": [],
      "name": "NoValue",
      "type": "error"
    },
    {
      "inputs": [],
      "name": "NotAuthorized",
      "type": "error"
    },
    {
      "inputs": [
        {
          "internalType": "address",
          "name": "owner",
          "type": "address"
        }
      ],
      "name": "OwnableInvalidOwner",
      "type": "error"
    },
    {
      "inputs": [
        {
          "internalType": "address",
          "name": "account",
          "type": "address"
        }
      ],
      "name": "OwnableUnauthorizedAccount",
      "type": "error"
    },
    {
      "inputs": [],
      "name": "ProviderNotConfigured",
      "type": "error"
    },
    {
      "inputs": [],
      "name": "ReentrancyGuardReentrantCall",
      "type": "error"
    },
    {
      "inputs": [
        {
          "internalType": "address",
          "name": "token",
          "type": "address"
        }
      ],
      "name": "SafeERC20FailedOperation",
      "type": "error"
    },
    {
      "inputs": [],
      "name": "TokenMismatch",
      "type": "error"
    },
    {
      "inputs": [],
      "name": "TokenNotInPool",
      "type": "error"
    },
    {
      "inputs": [],
      "name": "UnauthorizedFlashCaller",
      "type": "error"
    },
    {
      "inputs": [],
      "name": "Underflow",
      "type": "error"
    },
    {
      "inputs": [],
      "name": "UniswapV3RequiresPoolAddress",
      "type": "error"
    },
    {
      "inputs": [],
      "name": "UnsupportedFlashLoanProvider",
      "type": "error"
    },
    {
      "inputs": [],
      "name": "ZeroAmount",
      "type": "error"
    },
    {
      "inputs": [],
      "name": "ZeroToken",
      "type": "error"
    },
    {
      "anonymous": false,
      "inputs": [
        {
          "indexed": true,
          "internalType": "address",
          "name": "user",
          "type": "address"
        },
        {
          "indexed": true,
          "internalType": "address",
          "name": "delegate",
          "type": "address"
        },
        {
          "indexed": false,
          "internalType": "bool",
          "name": "approved",
          "type": "bool"
        }
      ],
      "name": "DelegateApprovalChanged",
      "type": "event"
    },
    {
      "anonymous": false,
      "inputs": [
        {
          "indexed": true,
          "internalType": "address",
          "name": "manager",
          "type": "address"
        },
        {
          "indexed": false,
          "internalType": "bool",
          "name": "approved",
          "type": "bool"
        }
      ],
      "name": "ManagerApprovalChanged",
      "type": "event"
    },
    {
      "anonymous": false,
      "inputs": [
        {
          "indexed": true,
          "internalType": "address",
          "name": "previousOwner",
          "type": "address"
        },
        {
          "indexed": true,
          "internalType": "address",
          "name": "newOwner",
          "type": "address"
        }
      ],
      "name": "OwnershipTransferred",
      "type": "event"
    },
    {
      "inputs": [
        {
          "internalType": "bytes32",
          "name": "",
          "type": "bytes32"
        }
      ],
      "name": "aaveCompatiblePools",
      "outputs": [
        {
          "internalType": "address",
          "name": "",
          "type": "address"
        }
      ],
      "stateMutability": "view",
      "type": "function"
    },
    {
      "inputs": [
        {
          "internalType": "string",
          "name": "protocolName",
          "type": "string"
        },
        {
          "internalType": "address",
          "name": "gateway",
          "type": "address"
        }
      ],
      "name": "addGateway",
      "outputs": [],
      "stateMutability": "nonpayable",
      "type": "function"
    },
    {
      "inputs": [
        {
          "internalType": "address",
          "name": "",
          "type": "address"
        }
      ],
      "name": "approvedManagers",
      "outputs": [
        {
          "internalType": "bool",
          "name": "",
          "type": "bool"
        }
      ],
      "stateMutability": "view",
      "type": "function"
    },
    {
      "inputs": [],
      "name": "authorizationHelper",
      "outputs": [
        {
          "internalType": "address",
          "name": "",
          "type": "address"
        }
      ],
      "stateMutability": "view",
      "type": "function"
    },
    {
      "inputs": [
        {
          "components": [
            {
              "internalType": "string",
              "name": "protocolName",
              "type": "string"
            },
            {
              "internalType": "bytes",
              "name": "data",
              "type": "bytes"
            }
          ],
          "internalType": "struct ProtocolTypes.ProtocolInstruction[]",
          "name": "instructions",
          "type": "tuple[]"
        },
        {
          "internalType": "address",
          "name": "caller",
          "type": "address"
        }
      ],
      "name": "authorizeInstructions",
      "outputs": [
        {
          "internalType": "address[]",
          "name": "",
          "type": "address[]"
        },
        {
          "internalType": "bytes[]",
          "name": "",
          "type": "bytes[]"
        }
      ],
      "stateMutability": "view",
      "type": "function"
    },
    {
      "inputs": [
        {
          "components": [
            {
              "internalType": "uint256",
              "name": "amount",
              "type": "uint256"
            },
            {
              "internalType": "address",
              "name": "token",
              "type": "address"
            },
            {
              "internalType": "address",
              "name": "user",
              "type": "address"
            },
            {
              "internalType": "enum KapanRouter.RouterInstructionType",
              "name": "instructionType",
              "type": "uint8"
            }
          ],
          "internalType": "struct KapanRouter.RouterInstruction[]",
          "name": "instrs",
          "type": "tuple[]"
        }
      ],
      "name": "authorizeRouter",
      "outputs": [
        {
          "internalType": "address[]",
          "name": "targets",
          "type": "address[]"
        },
        {
          "internalType": "bytes[]",
          "name": "data",
          "type": "bytes[]"
        }
      ],
      "stateMutability": "view",
      "type": "function"
    },
    {
      "inputs": [],
      "name": "balancerV2Vault",
      "outputs": [
        {
          "internalType": "contract IFlashLoanProvider",
          "name": "",
          "type": "address"
        }
      ],
      "stateMutability": "view",
      "type": "function"
    },
    {
      "inputs": [],
      "name": "balancerV3Vault",
      "outputs": [
        {
          "internalType": "contract IVaultV3",
          "name": "",
          "type": "address"
        }
      ],
      "stateMutability": "view",
      "type": "function"
    },
    {
      "inputs": [
        {
          "components": [
            {
              "internalType": "string",
              "name": "protocolName",
              "type": "string"
            },
            {
              "internalType": "bytes",
              "name": "data",
              "type": "bytes"
            }
          ],
          "internalType": "struct ProtocolTypes.ProtocolInstruction[]",
          "name": "instructions",
          "type": "tuple[]"
        },
        {
          "internalType": "address",
          "name": "caller",
          "type": "address"
        }
      ],
      "name": "deauthorizeInstructions",
      "outputs": [
        {
          "internalType": "address[]",
          "name": "",
          "type": "address[]"
        },
        {
          "internalType": "bytes[]",
          "name": "",
          "type": "bytes[]"
        }
      ],
      "stateMutability": "view",
      "type": "function"
    },
    {
      "inputs": [
        {
          "internalType": "address",
          "name": "asset",
          "type": "address"
        },
        {
          "internalType": "uint256",
          "name": "amount",
          "type": "uint256"
        },
        {
          "internalType": "uint256",
          "name": "premium",
          "type": "uint256"
        },
        {
          "internalType": "address",
          "name": "initiator",
          "type": "address"
        },
        {
          "internalType": "bytes",
          "name": "params",
          "type": "bytes"
        }
      ],
      "name": "executeOperation",
      "outputs": [
        {
          "internalType": "bool",
          "name": "",
          "type": "bool"
        }
      ],
      "stateMutability": "nonpayable",
      "type": "function"
    },
    {
      "inputs": [
        {
          "internalType": "string",
          "name": "",
          "type": "string"
        }
      ],
      "name": "gateways",
      "outputs": [
        {
          "internalType": "contract IGateway",
          "name": "",
          "type": "address"
        }
      ],
      "stateMutability": "view",
      "type": "function"
    },
    {
      "inputs": [
        {
          "internalType": "address",
          "name": "",
          "type": "address"
        }
      ],
      "name": "isAaveCompatiblePool",
      "outputs": [
        {
          "internalType": "bool",
          "name": "",
          "type": "bool"
        }
      ],
      "stateMutability": "view",
      "type": "function"
    },
    {
      "inputs": [
        {
          "internalType": "address",
          "name": "user",
          "type": "address"
        }
      ],
      "name": "isAuthorizedFor",
      "outputs": [
        {
          "internalType": "bool",
          "name": "",
          "type": "bool"
        }
      ],
      "stateMutability": "view",
      "type": "function"
    },
    {
      "inputs": [],
      "name": "morphoBlue",
      "outputs": [
        {
          "internalType": "address",
          "name": "",
          "type": "address"
        }
      ],
      "stateMutability": "view",
      "type": "function"
    },
    {
      "inputs": [
        {
          "internalType": "uint256",
          "name": "assets",
          "type": "uint256"
        },
        {
          "internalType": "bytes",
          "name": "data",
          "type": "bytes"
        }
      ],
      "name": "onMorphoFlashLoan",
      "outputs": [],
      "stateMutability": "nonpayable",
      "type": "function"
    },
    {
      "inputs": [],
      "name": "owner",
      "outputs": [
        {
          "internalType": "address",
          "name": "",
          "type": "address"
        }
      ],
      "stateMutability": "view",
      "type": "function"
    },
    {
      "inputs": [
        {
          "components": [
            {
              "internalType": "string",
              "name": "protocolName",
              "type": "string"
            },
            {
              "internalType": "bytes",
              "name": "data",
              "type": "bytes"
            }
          ],
          "internalType": "struct ProtocolTypes.ProtocolInstruction[]",
          "name": "instructions",
          "type": "tuple[]"
        }
      ],
      "name": "processProtocolInstructions",
      "outputs": [],
      "stateMutability": "nonpayable",
      "type": "function"
    },
    {
      "inputs": [
        {
          "internalType": "contract IERC20[]",
          "name": "tokens",
          "type": "address[]"
        },
        {
          "internalType": "uint256[]",
          "name": "amounts",
          "type": "uint256[]"
        },
        {
          "internalType": "uint256[]",
          "name": "feeAmounts",
          "type": "uint256[]"
        },
        {
          "internalType": "bytes",
          "name": "userData",
          "type": "bytes"
        }
      ],
      "name": "receiveFlashLoan",
      "outputs": [],
      "stateMutability": "nonpayable",
      "type": "function"
    },
    {
      "inputs": [
        {
          "internalType": "bytes",
          "name": "userData",
          "type": "bytes"
        }
      ],
      "name": "receiveFlashLoanV3",
      "outputs": [],
      "stateMutability": "nonpayable",
      "type": "function"
    },
    {
      "inputs": [
        {
          "internalType": "address payable",
          "name": "to",
          "type": "address"
        },
        {
          "internalType": "uint256",
          "name": "amount",
          "type": "uint256"
        }
      ],
      "name": "recoverNative",
      "outputs": [],
      "stateMutability": "nonpayable",
      "type": "function"
    },
    {
      "inputs": [
        {
          "internalType": "address",
          "name": "token",
          "type": "address"
        },
        {
          "internalType": "address",
          "name": "to",
          "type": "address"
        },
        {
          "internalType": "uint256",
          "name": "amount",
          "type": "uint256"
        }
      ],
      "name": "recoverTokens",
      "outputs": [],
      "stateMutability": "nonpayable",
      "type": "function"
    },
    {
      "inputs": [],
      "name": "renounceOwnership",
      "outputs": [],
      "stateMutability": "nonpayable",
      "type": "function"
    },
    {
      "inputs": [
        {
          "internalType": "address",
          "name": "pool",
          "type": "address"
        }
      ],
      "name": "setAavePool",
      "outputs": [],
      "stateMutability": "nonpayable",
      "type": "function"
    },
    {
      "inputs": [
        {
          "internalType": "address",
          "name": "manager",
          "type": "address"
        },
        {
          "internalType": "bool",
          "name": "approved",
          "type": "bool"
        }
      ],
      "name": "setApprovedManager",
      "outputs": [],
      "stateMutability": "nonpayable",
      "type": "function"
    },
    {
      "inputs": [
        {
          "internalType": "address",
          "name": "helper",
          "type": "address"
        }
      ],
      "name": "setAuthorizationHelper",
      "outputs": [],
      "stateMutability": "nonpayable",
      "type": "function"
    },
    {
      "inputs": [
        {
          "internalType": "address",
          "name": "provider",
          "type": "address"
        }
      ],
      "name": "setBalancerV2",
      "outputs": [],
      "stateMutability": "nonpayable",
      "type": "function"
    },
    {
      "inputs": [
        {
          "internalType": "address",
          "name": "vault",
          "type": "address"
        }
      ],
      "name": "setBalancerV3",
      "outputs": [],
      "stateMutability": "nonpayable",
      "type": "function"
    },
    {
      "inputs": [
        {
          "internalType": "address",
          "name": "delegate",
          "type": "address"
        },
        {
          "internalType": "bool",
          "name": "approved",
          "type": "bool"
        }
      ],
      "name": "setDelegate",
      "outputs": [],
      "stateMutability": "nonpayable",
      "type": "function"
    },
    {
      "inputs": [
        {
          "internalType": "address",
          "name": "morpho",
          "type": "address"
        }
      ],
      "name": "setMorphoBluePool",
      "outputs": [],
      "stateMutability": "nonpayable",
      "type": "function"
    },
    {
      "inputs": [
        {
          "internalType": "address",
          "name": "factoryOrSentinel",
          "type": "address"
        }
      ],
      "name": "setUniswapV3Enabled",
      "outputs": [],
      "stateMutability": "nonpayable",
      "type": "function"
    },
    {
      "inputs": [
        {
          "internalType": "address",
          "name": "pool",
          "type": "address"
        }
      ],
      "name": "setZeroLendPool",
      "outputs": [],
      "stateMutability": "nonpayable",
      "type": "function"
    },
    {
      "inputs": [
        {
          "internalType": "address",
          "name": "newOwner",
          "type": "address"
        }
      ],
      "name": "transferOwnership",
      "outputs": [],
      "stateMutability": "nonpayable",
      "type": "function"
    },
    {
      "inputs": [],
      "name": "uniswapV3Factory",
      "outputs": [
        {
          "internalType": "address",
          "name": "",
          "type": "address"
        }
      ],
      "stateMutability": "view",
      "type": "function"
    },
    {
      "inputs": [
        {
          "internalType": "uint256",
          "name": "fee0",
          "type": "uint256"
        },
        {
          "internalType": "uint256",
          "name": "fee1",
          "type": "uint256"
        },
        {
          "internalType": "bytes",
          "name": "data",
          "type": "bytes"
        }
      ],
      "name": "uniswapV3FlashCallback",
      "outputs": [],
      "stateMutability": "nonpayable",
      "type": "function"
    },
    {
      "inputs": [
        {
          "internalType": "address",
          "name": "",
          "type": "address"
        },
        {
          "internalType": "address",
          "name": "",
          "type": "address"
        }
      ],
      "name": "userDelegates",
      "outputs": [
        {
          "internalType": "bool",
          "name": "",
          "type": "bool"
        }
      ],
      "stateMutability": "view",
      "type": "function"
    }
  ],
  "transactionHash": "0xe91d86a0b5d81fdd058d3f966b4cff380d52ed0dd7c286a03eb3512f69a50368",
  "args": [
    "0x0BE61223F99E57b8b8B7033a77B54Adc7f7cF027"
  ],
  "numDeployments": 39,
  "solcInputHash": "1defaa97da21e690870cee4ea6009d84",
  "bytecode": "0x60803460bc57601f614ca138819003918201601f19168301916001600160401b0383118484101760c05780849260209460405283398101031260bc57516001600160a01b0381169081900360bc57801560a9575f80546001600160a01b031981168317825560405192916001600160a01b03909116907f8be0079c531659141344cd1fd0a4f28419497f9722a3daafe3b4186f6b6457e09080a360018055614bcc90816100d58239f35b631e4fbdf760e01b5f525f60045260245ffd5b5f80fd5b634e487b7160e01b5f52604160045260245ffdfe60806040526004361015610011575f80fd5b5f3560e01c80630acefd3514610244578063109745e21461023f57806310c0a1571461023a5780631b11d0ff146102355780631caebf741461023057806328c184161461022b57806331f570721461022657806333d6c36a14610221578063340592071461021c578063349f937c14610217578063463721af146102125780634a994eef1461020d5780634bef5d69146102085780635b549182146102035780635f3e849f146101fe57806363c0f133146101f9578063715018a6146101f45780638da5cb5b146101ef578063a6ed7be3146101ea578063ba3dba8a146101e5578063bba8a3dc146101e0578063bf11f4af146101db578063bf1e4cf6146101d6578063d7ff41bf146101d1578063db236a1f146101cc578063e30b155e146101c7578063e8511303146101c2578063e8ce1bfa146101bd578063e9cbafb0146101b8578063f04f2707146101b3578063f07b6e64146101ae578063f0dbeea5146101a9578063f2cda82e146101a4578063f2fde38b1461019f5763faea56e21461019a575f80fd5b611428565b6113b2565b61134b565b6111fa565b6111c8565b611129565b611034565b61100c565b610fc5565b610f78565b610f1b565b610d3f565b610c90565b610b3b565b610afb565b610acb565b610a60565b610976565b610932565b6108f2565b61082c565b610804565b610799565b610724565b6106c1565b61068c565b610645565b6105fe565b610512565b6104cb565b610474565b610326565b6102b3565b61028b565b610263565b5f91031261025357565b5f80fd5b6001600160a01b031690565b34610253575f366003190112610253576003546040516001600160a01b039091168152602090f35b34610253575f36600319011261025357600a546040516001600160a01b039091168152602090f35b34610253575f366003190112610253576002546040516001600160a01b039091168152602090f35b6001600160a01b0381160361025357565b35906102f7826102db565b565b9181601f84011215610253578235916001600160401b038311610253576020838186019501011161025357565b346102535760a036600319011261025357600435610343816102db565b602435604435606435610355816102db565b6084356001600160401b038111610253576103749036906004016102f9565b92909160ff60075460a01c1615610450576008546001600160a01b0316330361044157306001600160a01b039091160361043257830180931161042d576103bc913691610e9b565b506103c5611bd5565b91604051906103d382610ddd565b6001600160a01b03168082526020820183905283519091901561042857602084015282511561042857610408610417936126d7565b610410612866565b3390611d57565b6040516001815280602081015b0390f35b611548565b611469565b630377b97960e11b5f5260045ffd5b6364427b5760e11b5f5260045ffd5b630a3fad8360e01b5f5260045ffd5b9060018060a01b03165f5260205260405f2090565b3461025357604036600319011261025357602060ff6104bf600435610498816102db565b602435906104a5826102db565b6001600160a01b03165f908152600c85526040902061045f565b54166040519015158152f35b34610253576020366003190112610253576004356104e8816102db565b6104f0611e46565b600280546001600160a01b0319166001600160a01b0392909216919091179055005b34610253576040366003190112610253576004356024356001600160401b038111610253576105459036906004016102f9565b60ff60075460a01c1615610450576008546001600160a01b03163303610441578101906040818303126102535780359161057e836102db565b60208201356001600160401b0381116102535761059b9201610ed1565b506001600160a01b0316906105ae611bd5565b916040516105bb81610ddd565b818152826020820152835115610428576020840152825115610428576105e36105fc936126d7565b6105eb612866565b6105f6600754610257565b90611d57565b005b346102535760203660031901126102535760043561061b816102db565b610623611e46565b600a80546001600160a01b0319166001600160a01b0392909216919091179055005b3461025357602036600319011261025357600435610662816102db565b61066a611e46565b600780546001600160a01b0319166001600160a01b0392909216919091179055005b34610253576020366003190112610253576105fc6004356106ac816102db565b6106b4611e46565b6106bc6114bf565b611e6c565b346102535760203660031901126102535760206106e86004356106e3816102db565b6114e1565b6040519015158152f35b8015150361025357565b604090600319011261025357600435610714816102db565b90602435610721816106f2565b90565b3461025357610732366106fc565b90335f52600c60205261075d8261074c8360405f2061045f565b9060ff801983541691151516179055565b60405191151582526001600160a01b03169033907f2d471f64b7fea7d6fd2f0566b1ee57f49e337f84b90d68995686069542d11e6090602090a3005b346102535760207fe75c73780beec8a53a900ed52c74c8954d8890f2c9047ddb1e5c6546fd637d896107ca366106fc565b92906107d4611e46565b6001600160a01b03165f818152600b835260409020805460ff191660ff86151516179055926040519015158152a2005b34610253575f366003190112610253576006546040516001600160a01b039091168152602090f35b3461025357606036600319011261025357600435610849816102db565b602435610855816102db565b60443591610861611e46565b6040516370a0823160e01b81523060048201526001600160a01b039190911692602082602481875afa9182156108ed575f926108bc575b50818111156108b45750905b816108ab57005b6105fc92611f09565b9050906108a4565b6108df91925060203d6020116108e6575b6108d78183610e4e565b81019061152e565b905f610898565b503d6108cd565b61153d565b346102535760203660031901126102535760043561090f816102db565b60018060a01b03165f52600b602052602060ff60405f2054166040519015158152f35b34610253575f3660031901126102535761094a611e46565b5f80546001600160a01b0319811682556001600160a01b03165f516020614b375f395f51905f528280a3005b34610253575f366003190112610253575f546040516001600160a01b039091168152602090f35b805180835260209291819084018484015e5f828201840152601f01601f1916010190565b604081016040825282518091526020606083019301905f5b818110610a41575050506020818303910152815180825260208201916020808360051b8301019401925f915b838310610a1457505050505090565b9091929394602080610a32600193601f19868203018752895161099d565b97019301930191939290610a05565b82516001600160a01b03168552602094850194909201916001016109d9565b34610253576020366003190112610253576004356001600160401b03811161025357366023820112156102535760048101356001600160401b038111610253573660248260071b84010111610253576024610abb92016116a8565b90610424604051928392836109c1565b34610253576020366003190112610253576105fc600435610aeb816102db565b610af3611e46565b6106bc6117ba565b3461025357602036600319011261025357600435610b18816102db565b60018060a01b03165f526005602052602060ff60405f2054166040519015158152f35b34610253576020366003190112610253576004356001600160401b03811161025357610b6b9036906004016102f9565b9060ff60075460a01c1615610450576008546001600160a01b0316330361044157610b988282018261132c565b929060018060a01b031691610bb6610bb1600354610257565b610257565b91823b15610253575f604051809463ae63932960e01b8252818381610be08b308c600485016117e0565b03925af19283156108ed57610bfc93610c7c575b503691610e9b565b50610c078282611d0d565b610c1f82610c19610bb1600354610257565b83611f09565b610c2d610bb1600354610257565b91823b1561025357610c58925f92836040518096819582946315afd40960e01b84526004840161168d565b03925af180156108ed57610c6857005b80610c765f6105fc93610e4e565b80610249565b80610c765f610c8a93610e4e565b5f610bf4565b3461025357602036600319011261025357600435610cad816102db565b610cb5611e46565b600680546001600160a01b0319166001600160a01b0392909216919091179055005b9181601f84011215610253578235916001600160401b038311610253576020808501948460051b01011161025357565b604060031982011261025357600435906001600160401b03821161025357610d3191600401610cd7565b9091602435610721816102db565b3461025357610d805f610d5136610d07565b600a5460405163d7ff41bf60e01b81529586946001600160a01b039092169385938493909190600485016119ba565b03915afa9081156108ed575f905f92610da4575b50610424604051928392836109c1565b9050610dc291503d805f833e610dba8183610e4e565b8101906118c4565b905f610d94565b634e487b7160e01b5f52604160045260245ffd5b604081019081106001600160401b03821117610df857604052565b610dc9565b602081019081106001600160401b03821117610df857604052565b60c081019081106001600160401b03821117610df857604052565b608081019081106001600160401b03821117610df857604052565b601f909101601f19168101906001600160401b03821190821017610df857604052565b604051906102f7604083610e4e565b6001600160401b038111610df857601f01601f191660200190565b929192610ea782610e80565b91610eb56040519384610e4e565b829481845281830111610253578281602093845f960137010152565b9080601f830112156102535781602061072193359101610e9b565b805191908290602001825e015f815290565b6020610f109160405192838092610eec565b600981520301902090565b34610253576020366003190112610253576004356001600160401b03811161025357610f4d6020913690600401610ed1565b610f5a6040518092610eec565b6009815281900382019020546040516001600160a01b039091168152f35b34610253576040366003190112610253576004356001600160401b03811161025357610fab6105fc9136906004016102f9565b60243591610fb8836102db565b610fc0611e46565b611a89565b3461025357602036600319011261025357600435610fe2816102db565b610fea611e46565b600380546001600160a01b0319166001600160a01b0392909216919091179055005b34610253575f366003190112610253576007546040516001600160a01b039091168152602090f35b34610253576060366003190112610253576004356024356044356001600160401b0381116102535761106a9036906004016102f9565b60ff60079492945460a01c1615610450576008546001600160a01b0316330361044157830160a084820312610253578335926110a5846102db565b6020850135926110b4846102db565b606086013592604087013592906001600160401b03851161025357876110e4608092611107976105fc9b01610ed1565b500135946110f1866106f2565b6001600160a01b0316941561112157509061148c565b916111128383611d0d565b6001600160a01b031690611f09565b90509061148c565b34610253576080366003190112610253576004356001600160401b03811161025357611159903690600401610cd7565b6024356001600160401b03811161025357611178903690600401610cd7565b9092906044356001600160401b0381116102535761119a903690600401610cd7565b606435959092906001600160401b038711610253576111c06105fc9736906004016102f9565b969095611b0f565b34610253576020366003190112610253576004355f526004602052602060018060a01b0360405f205416604051908152f35b34610253576020366003190112610253576004356001600160401b0381116102535761122a903690600401610cd7565b60026001541461131d5760026001555f5b81811061127e575061124d8183612114565b91901561126e5761125d9261257f565b6112656126be565b6105fc60018055565b9050611279916122bc565b61125d565b611289818385611f3e565b6112bb6112ad6112998380611f60565b604093919351928391602083019586611f92565b03601f198101835282610e4e565b5190206112c6611fa3565b036112d5575b5060010161123b565b6113006106e360406112f96112f1856020611304970190611f60565b810190611ff8565b0151610257565b1590565b61130e575f6112cc565b63ea8e4eb560e01b5f5260045ffd5b633ee5aeb560e01b5f5260045ffd5b91908260409103126102535760208235611345816102db565b92013590565b3461025357604036600319011261025357600435611368816102db565b602435611373611e46565b4790818111156113aa5750905b8161138757005b5f918291829182916001600160a01b03165af16113a2611ba6565b501561025357005b905090611380565b34610253576020366003190112610253576004356113cf816102db565b6113d7611e46565b6001600160a01b03168015611415575f80546001600160a01b03198116831782556001600160a01b0316905f516020614b375f395f51905f529080a3005b631e4fbdf760e01b5f525f60045260245ffd5b3461025357610d805f61143a36610d07565b600a54604051637d752b7160e11b81529586946001600160a01b039092169385938493909190600485016119ba565b634e487b7160e01b5f52601160045260245ffd5b90612710820180921161042d57565b9190820180921161042d57565b600880546001600160a01b0319169055565b604051906114ba602083610e4e565b5f8252565b604051906114ce604083610e4e565b60048252636161766560e01b6020830152565b6001600160a01b031633811461152857335f52600b60205260ff60405f205416908161150b575090565b90505f52600c60205260ff6115233360405f2061045f565b541690565b50600190565b90816020910312610253575190565b6040513d5f823e3d90fd5b634e487b7160e01b5f52603260045260245ffd5b91908110156104285760071b0190565b6008111561025357565b634e487b7160e01b5f52602160045260245ffd5b6008111561159457565b611576565b356107218161156c565b5f19811461042d5760010190565b6001600160401b038111610df85760051b60200190565b906115d2826115b1565b6115df6040519182610e4e565b82815280926115f0601f19916115b1565b0190602036910137565b90611604826115b1565b6116116040519182610e4e565b8281528092611622601f19916115b1565b01905f5b82811061163257505050565b806060602080938501015201611626565b35610721816102db565b8051156104285760200190565b8051600110156104285760400190565b80518210156104285760209160051b010190565b6001600160a01b039091169052565b6001600160a01b039091168152602081019190915260400190565b915f925f5b83811061177757506116c76116c1856115c8565b946115fa565b925f905f5b8181106116d95750505050565b6116e481838661155c565b60016116f260608301611599565b6116fb8161158a565b1461170a575b506001016116cc565b836112ad611755836117378c6117326001989a61172c60206117709a01611643565b9261166a565b61167e565b60405163095ea7b360e01b602082015292839135306024840161168d565b61175f828a61166a565b5261176a818961166a565b506115a3565b9290611701565b600161178f606061178984888761155c565b01611599565b6117988161158a565b146117a6575b6001016116ad565b936117b26001916115a3565b94905061179e565b604051906117c9604083610e4e565b60088252671e995c9bdb195b9960c21b6020830152565b6001600160a01b03918216815291166020820152604081019190915260600190565b81601f820112156102535760208151910161181c82610e80565b9261182a6040519485610e4e565b8284528282011161025357815f926020928386015e8301015290565b9080601f8301121561025357815161185d816115b1565b9261186b6040519485610e4e565b81845260208085019260051b820101918383116102535760208201905b83821061189757505050505090565b81516001600160401b038111610253576020916118b987848094880101611802565b815201910190611888565b9190916040818403126102535780516001600160401b03811161025357810183601f82011215610253578051906118fa826115b1565b916119086040519384610e4e565b80835260208084019160051b8301019186831161025357602001905b82821061194e5750505060208201519093906001600160401b038111610253576107219201611846565b60208091835161195d816102db565b815201910190611924565b9035601e1982360301811215610253570160208101919035906001600160401b03821161025357813603831361025357565b908060209392818452848401375f828201840152601f01601f1916010190565b93929190816040860160408752526060850160608360051b87010192825f90603e1981360301935b838310611a05575050505050509060206102f79294019060018060a01b03169052565b909192939495605f198a8203018252863586811215610253576020611a606001938683940190611a53611a49611a3b8480611968565b60408552604085019161199a565b9285810190611968565b918581850391015261199a565b98019201930191909493926119e2565b6020908260405193849283378101600981520301902090565b9190916040518382823760098185019081528190036020019020546001600160a01b0392831692168214611b0a57611ac18382611a70565b546001600160a01b0316611afb576102f792611adc91611a70565b80546001600160a01b0319166001600160a01b03909216919091179055565b630a20941760e31b5f5260045ffd5b505050565b9694959391909260ff60075460a01c1615610450576008546001600160a01b031633036104415715610428573594156104285735840180941161042d5780156104285784611b7f85611b8995611b79611b8496611b71610bb16102f79c611643565b923691610e9b565b50611d0d565b611b9d565b611643565b611b97610bb1600254610257565b90611f09565b90156104285790565b3d15611bd0573d90611bb782610e80565b91611bc56040519384610e4e565b82523d5f602084013e565b606090565b60408051909190611be68382610e4e565b6001815291601f1901825f5b828110611bfe57505050565b602090604051611c0d81610ddd565b5f81525f8382015282828501015201611bf2565b60405190611c30602083610e4e565b5f80835282815b828110611c4357505050565b602090604051611c5281610ddd565b5f81525f8382015282828501015201611c37565b60405160609190611c778382610e4e565b6002815291601f1901825f5b828110611c8f57505050565b602090604051611c9e81610ddd565b5f81525f8382015282828501015201611c83565b90611cbc826115b1565b611cc96040519182610e4e565b8281528092611cda601f19916115b1565b01905f5b828110611cea57505050565b602090604051611cf981610ddd565b5f81525f8382015282828501015201611cde565b611d15611bd5565b9160405191611d2383610ddd565b6001600160a01b03168252602082015281511561042857602082015280511561042857611d4f906126d7565b6102f7612866565b919091611dbe60405192611d8f84611d81602082019363095ea7b360e01b8552886024840161168d565b03601f198101865285610e4e565b83516001600160a01b038416915f91829182855af190611dad611ba6565b82611e14575b5081611e0d57501590565b611dc757505050565b60405163095ea7b360e01b60208201526001600160a01b0390931660248401525f60448401526102f792611e0890611e0281606481016112ad565b82612999565b612999565b3b15919050565b80519192508115918215611e2c575b5050905f611db3565b611e3f9250602080918301019101612984565b5f80611e23565b5f546001600160a01b03163303611e5957565b63118cdaa760e01b5f523360045260245ffd5b81611adc611eb892604051611e89816112ad602082018095610eec565b5190205f818152600460205260409020546001600160a01b031680611ef0575b505f52600460205260405f2090565b6001600160a01b038116611ec95750565b6001600160a01b03165f9081526005602052604090206102f790805460ff19166001179055565b5f52600560205260405f2060ff1981541690555f611ea9565b611e086102f79392611f3060405194859263a9059cbb60e01b60208501526024840161168d565b03601f198101845283610e4e565b91908110156104285760051b81013590603e1981360301821215610253570190565b903590601e198136030182121561025357018035906001600160401b0382116102535760200191813603831361025357565b91602061072193818152019161199a565b60405160208101906020825260066040820152653937baba32b960d11b606082015260608152611fd4608082610e4e565b51902090565b919082602091031261025357604051611ff281610dfd565b91358252565b602081830312610253578035906001600160401b038211610253570160c081830312610253576040519161202b83610e18565b8135600a811015610253578352612044602083016102ec565b6020840152612055604083016102ec565b60408401526060828101359084015260808201356001600160401b03811161025357826120898360a0936120949601610ed1565b608086015201611fda565b60a082015290565b9190826080910312610253576040516120b481610e33565b60608082948035845260208101356120cb816102db565b602085015260408101356120de816102db565b60408501520135916120ef8361156c565b0152565b90608082820312610253576107219161209c565b5160088110156115945790565b915f925f925f5b81811061212757505050565b612132818385611f3e565b6121426112ad6112998380611f60565b51902061214d611fa3565b036121b45760208101906121618282611f60565b9050156121aa5761218261217a61218893606093611f60565b8101906120f3565b01612107565b6121918161158a565b156121a0576001905b0161211b565b6001955093505050565b505060019061219a565b5060019061219a565b604051906121cc606083610e4e565b602f82526e125b9cdd1c9d58dd1a5bdb9ccf4959608a1b6040837f5b526f757465725d205f65786563757465416c6c496e4d656d6f7279206e756d60208201520152565b6040519061221f606083610e4e565b603082526f642f25642070726f746f636f6c3d257360801b6040837f5b526f757465725d20457865637574696e6720696e737472756374696f6e202560208201520152565b60405190612273606083610e4e565b6034825273190b081bdd5d1c1d5d1ccb9b195b99dd1a0f495960621b6040837f5b526f757465725d20496e737472756374696f6e20256420636f6d706c65746560208201520152565b906122ce816122c96121bd565b612a04565b6122d6611c21565b905f915b8183106122e75750505050565b60019061231e612318848661230661230082848c611f3e565b80611f60565b9390612310612210565b943691610e9b565b92612a4c565b612329848487611f3e565b9061233a6112ad6112998480611f60565b519020612345611fa3565b0361236f5761235391612cdf565b925b612368845182612363612264565b61328f565b01916122da565b61237891612b57565b92612355565b5f1981019190821161042d57565b9190820391821161042d57565b604051906123a682610ddd565b60606020838281520152565b906123bc826115b1565b6123c96040519182610e4e565b82815280926123da601f19916115b1565b01905f5b8281106123ea57505050565b6020906123f5612399565b828285010152016123de565b604081360312610253576040519061241882610ddd565b80356001600160401b038111610253576124359036908301610ed1565b82526020810135906001600160401b0382116102535761245791369101610ed1565b602082015290565b602081016020825282518091526040820191602060408360051b8301019401925f915b83831061249157505050505090565b90919293946020806124cf600193603f19868203018752895190836124bf835160408452604084019061099d565b920151908481840391015261099d565b97019301930191939290612482565b90602080835192838152019201905f5b8181106124fb5750505090565b825180516001600160a01b0316855260209081015181860152604090940193909201916001016124ee565b9060206107219281815201906124de565b6006111561025357565b60e08183031261025357612555828261209c565b9260c0612573608084013561256981612537565b9460a08501611fda565b920135610721816102db565b612587611c21565b5f5b84811061266e57506125a361259e858561238c565b61237e565b6125ac816123b2565b905f5b81811061262b5750509361261a93612612936126036112ad6125fe612608966125ef6112ad6125ea6102f79d6040519283916020830161245f565b6132d8565b60405192839160208301612526565b613365565b611f3e565b6020810190611f60565b810190612541565b6001600160a01b03169250906133fb565b8061265261264d6126466001946126418b61237e565b61238c565b8989611f3e565b612401565b61265c828661166a565b52612667818561166a565b50016125af565b9060019061267d838686611f3e565b9061268e6112ad6112998480611f60565b519020612699611fa3565b036126af576126a791612cdf565b915b01612589565b6126b891612b57565b916126a9565b6102f76040516126cf602082610e4e565b5f8152613365565b6126df61359d565b916126f56126f0845184519061148c565b611cb2565b905f5b845181101561272b578061270e6001928761166a565b51612719828661166a565b52612724818561166a565b50016126f8565b50915f5b815181101561276d57806127666127486001938561166a565b5161275483895161148c565b9061275f828861166a565b528561166a565b500161272f565b50506102f79192506125fe6112ad9160405192839160208301612526565b90602061072192818152019061099d565b602081830312610253578051906001600160401b038211610253570181601f82011215610253578051906127cf826115b1565b926127dd6040519485610e4e565b82845260208085019360061b8301019181831161025357602001925b828410612807575050505090565b604084830312610253576020604091825161282181610ddd565b865161282c816102db565b815282870151838201528152019301926127f9565b9091612858610721936040845260408401906124de565b91602081840391015261099d565b61286e613643565b819091515115612980575b8051604051612890816112ad60208201948561278b565b51902061289b611fa3565b036128c3576128a99061390f565b6128c0575b6102f7576128ba613643565b90612879565b50565b6128e0610bb16128d38351610efe565b546001600160a01b031690565b6001600160a01b0381161561297157612920915f9160206128ff61359d565b920151918360405180968195829463ae4be46d60e01b845260048401612841565b03925af19081156108ed575f9161294f575b508051612940575b506128ae565b612949906126d7565b5f61293a565b61296b91503d805f833e6129638183610e4e565b81019061279c565b5f612932565b635d958a8b60e11b5f5260045ffd5b5050565b908160209103126102535751610721816106f2565b5f806129c19260018060a01b03169360208151910182865af16129ba611ba6565b9083614a98565b80519081151591826129e9575b50506129d75750565b635274afe760e01b5f5260045260245ffd5b6129fc9250602080918301019101612984565b155f806129ce565b612a47612a33916102f793604051938492632d839cb360e21b602085015260406024850152606484019061099d565b90604483015203601f198101835282610e4e565b613e32565b6112ad612a47926102f795612a7f956040519687956342a59a4b60e11b60208801526080602488015260a487019061099d565b926044860152606485015260231984830301608485015261099d565b60405190612aaa606083610e4e565b602b82526a70726f746f636f6c3d257360a81b6040837f5b526f757465725d2043616c6c696e6720676174657761793d257320666f722060208201520152565b91612b0161072194926040855260408501906124de565b92602081850391015261199a565b60405190612b1e606083610e4e565b60248252637075747360e01b6040837f5b526f757465725d20476174657761792072657475726e6564202564206f757460208201520152565b612b70610bb16128d3612b6a8480611f60565b90611a70565b906001600160a01b038216156129715781612bb282612608612bac612bd296612b9a845f98611f60565b9290612ba4612a9b565b933691610e9b565b91613e4c565b91908360405180968195829463ae4be46d60e01b84528a60048501612aea565b03925af19081156108ed575f91612c05575b50612bf281516122c9612b0f565b8051612bfc575090565b61072191613ea0565b612c1991503d805f833e6129638183610e4e565b5f612be4565b909160c08284031261025357610721612c38848461209c565b9360a0612c488260808701611fda565b9401611fda565b909160c0828403126102535760a0611345612c6a858561209c565b9460808501611fda565b8181029291811591840414171561042d57565b909160c08284031261025357612c9d838361209c565b926080830135906001600160401b0382116102535760a0612c4882610721948701610ed1565b919060a08382031261025357806080612c48610721938661209c565b60208101612cf061217a8284611f60565b91606083018051612d008161158a565b612d098161158a565b612d1c57635049b04960e01b5f5260045ffd5b60018151612d298161158a565b612d328161158a565b03612da8575050506040810191612d4f6113006106e38551610257565b61130e57612d8a61072193612d846020850191612d79612d72610bb18551610257565b9151610257565b908651913091613f79565b51610257565b9151612d9e612d97610e71565b938461167e565b6020830152613f18565b60028151612db58161158a565b612dbe8161158a565b03612e895750612dd991612dd191611f60565b810190612cc3565b8091505183511115612e7a57612df081518461166a565b5180516001600160a01b0390612e0590610257565b1615612e6b576020810151612e429381612e46575b505050612e25610e71565b905f82525f60208301525190612e3b828561166a565b528261166a565b5090565b611b976040612e5b610bb1612e639651610257565b920151610257565b5f8080612e1a565b63ad1991f560e01b5f5260045ffd5b63779ffa5760e11b5f5260045ffd5b60038151612e968161158a565b612e9f8161158a565b03612eb85750505061072191612d8a6020830151610257565b9091925060048151612ec98161158a565b612ed28161158a565b03612fa05750612eed91612ee591611f60565b810190612c87565b809392505182511115612e7a576040516020810190612f10816112ad858561278b565b519020612f1b611fa3565b03612f8c5750305b6001600160a01b038116156129715782612f75916020612f63612f5b612f4d61072198518861166a565b51516001600160a01b031690565b93518661166a565b510151916001600160a01b0316611d57565b612f7d610e71565b905f82525f6020830152613f18565b610bb16128d3612f9b92610efe565b612f23565b60058151612fad8161158a565b612fb68161158a565b036130ab5750612fd191612fc991611f60565b810190612c4f565b908092505183511115612e7a57612fe982518461166a565b519060018060a01b03612ffc8351610257565b1615801561309f575b61309057612710811161308157612d7261306d916107219561304261303a61259e61303560208901958651612c74565b61147d565b612710900490565b9151808311613079575b613059836130629261238c565b96612e25610e71565b5061306d8551610257565b91612d9e612d97610e71565b91508161304c565b631222751960e01b5f5260045ffd5b63f2365b5b60e01b5f5260045ffd5b50602082015115613005565b600681516130b88161158a565b6130c18161158a565b036131a057506130dc916130d491611f60565b810190612c1f565b91508051835180911090811591613194575b50612e7a5761310161310a91518461166a565b5191518361166a565b519160018060a01b0361311d8351610257565b16158015613180575b612e6b576131348251610257565b613141610bb18551610257565b6001600160a01b03909116036131715761306d61316a610721946020808601519101519061148c565b9251610257565b63936bb5ad60e01b5f5260045ffd5b5061318e610bb18451610257565b15613126565b9050825110155f6130ee565b600790516131ad8161158a565b6131b68161158a565b146131c057505090565b6131cd916130d491611f60565b91508051835180911090811591613283575b50612e7a576131016131f291518461166a565b519160018060a01b036132058351610257565b1615801561326f575b612e6b5761321c8251610257565b613229610bb18551610257565b6001600160a01b0390911603613171576020820192602084519101908151116132605761316a61306d91610721955190519061238c565b63caccb6d960e01b5f5260045ffd5b5061327d610bb18451610257565b1561320e565b9050825110155f6131df565b612a47906132bf926102f79460405194859363ca47c4eb60e01b602086015260606024860152608485019061099d565b916044840152606483015203601f198101835282610e4e565b805190815f516020614af75f395f51905f525d8160051c91601f811690815f5b85811061333e575061330b575b50505050565b601f19169091016020908101519190036101000a5f19011916905f516020614b575f395f51905f52015d5f808080613305565b6001915060208160051b860101515f516020614b575f395f51905f5282015d0182906132f8565b805190815f516020614b175f395f51905f525d8160051c91601f811690815f5b8581106133ca57506133975750505050565b601f19169091016020908101519190036101000a5f19011916905f516020614b775f395f51905f52015d5f808080613305565b6001915060208160051b860101515f516020614b775f395f51905f5282015d018290613385565b6006111561159457565b9061340461359d565b815181511115612e7a5761341991519061166a565b519160018060a01b0361342c8451610257565b1615612e6b57602083019182511561358e57613447816133f1565b8061346b57505061345b6102f79251610257565b90516134656114ab565b916146c7565b613474816133f1565b6001810361349357505061348b6102f79251610257565b905190614592565b61349c816133f1565b600281036134cb5750506134b36102f79251610257565b90516134bd6114ab565b916134c66114bf565b6144df565b6134d4816133f1565b600381036134fe5750506134eb6102f79251610257565b90516134f56114ab565b916134c66117ba565b61350a819392936133f1565b6004810361354f57506001600160a01b038216156135405761352f6102f79351610257565b90519061353a6114ab565b9261411a565b631f356b8560e11b5f5260045ffd5b600591925061355d816133f1565b0361357f5761356f6102f79251610257565b90516135796114ab565b91613fa1565b63882f810360e01b5f5260045ffd5b631f2a200560e01b5f5260045ffd5b5f516020614b175f395f51905f525c604051908082528060051c5f5b81811061361f575090602091601f82166135ff575b50601f01601f19168201016040528051156135f657806020806107219351830101910161279c565b50610721611c21565b5f516020614b775f395f51905f52015c601f19821684018301525f6135ce565b805f516020614b775f395f51905f52600192015c60208260051b87010152016135b9565b61364b612399565b90613654614859565b91825180156137ad578301926020840190602081860312610253576020810151906001600160401b038211610253570181603f820112156102535760208101519461369e866115b1565b956136ac6040519788610e4e565b8087526020808089019260051b85010101928484116102535760408101915b84831061372157505050505050825190811561371857508061259e6112ad6125ea6137016136fb6113009661237e565b8861166a565b51965f19850181526040519283916020830161245f565b92506001919050565b82516001600160401b0381116102535782016020810191906040908603601f190112610253576040519061375482610ddd565b60208301516001600160401b0381116102535788602061377692860101611802565b82526040830151916001600160401b0383116102535761379e89602080969581960101611802565b838201528152019201916136cb565b509150600190565b9190826080910312610253576040516137cd81610e33565b60608082948051845260208101516137e4816102db565b602085015260408101516137f7816102db565b60408501520151916120ef8361156c565b9060808282031261025357610721916137b5565b91908260209103126102535760405161383481610dfd565b91518252565b909160c0828403126102535761072161385384846137b5565b9360a0613863826080870161381c565b940161381c565b909160c0828403126102535760a061388f61388585856137b5565b946080850161381c565b92015190565b909160c082840312610253576138ab83836137b5565b608083015190936001600160401b0382116102535760a061386382610721948701611802565b60e081830312610253576138e582826137b5565b9260c061390360808401516138f981612537565b9460a0850161381c565b920151610721816102db565b6020810190613928825160208082518301019101613808565b906060820180516139388161158a565b6139418161158a565b6139645750505061261a61395f9151602080825183010191016138d1565b600190565b600181516139718161158a565b61397a8161158a565b0361398f57505061398b91506149d6565b5f90565b6002819392935161399f8161158a565b6139a88161158a565b036139b957505061398b915061491f565b909150600381516139c98161158a565b6139d28161158a565b03613a25575061398b91506139e5611bd5565b906139f36020820151610257565b9051613a07613a00610e71565b928361167e565b6020820152613a158261164d565b52613a1f8161164d565b506126d7565b905060048151613a348161158a565b613a3d8161158a565b03613afd5750613a57905160208082518301019101613895565b909150613a6261359d565b91815183511115612e7a576040516020810190613a83816112ad858561278b565b519020613a8e611fa3565b03613ae95750305b6001600160a01b03811615612971576020612f63613ac494613abc612f4d86518361166a565b94519061166a565b61398b613acf611bd5565b613ad7610e71565b5f81525f6020820152613a158261164d565b610bb16128d3613af892610efe565b613a96565b60058151613b0a8161158a565b613b138161158a565b03613c4d5750613b2d90516020808251830101910161386a565b909150613b3861359d565b825181511115612e7a57613b4d83518261166a565b519260018060a01b03613b608551610257565b16158015613c41575b6130905761271083116130815783613b9261303a61259e613035602061398b9901978851612c74565b9351808511613c39575b92613c246112ad936125fe93613bf7613bb889613c349961238c565b91613bc1611c66565b99613bcc8251610257565b90613bd8613a00610e71565b6020820152613be68b61164d565b52613bf08a61164d565b5051610257565b90613c03613a00610e71565b6020820152613c118861165a565b52613c1b8761165a565b50612e25610e71565b5060405192839160208301612526565b6126d7565b935083613b9c565b50602084015115613b69565b60068151613c5a8161158a565b613c638161158a565b03613d475750613c7d90516020808251830101910161383a565b9150613c8761359d565b8151815180911090811591613d3b575b50612e7a57613caa613cb392518261166a565b5192519061166a565b519060018060a01b03613cc68251610257565b16158015613d27575b612e6b57613cdd8151610257565b613cea610bb18451610257565b6001600160a01b039091160361317157613d1061398b926020808401519101519061148c565b613d1b61316a611bd5565b90613a07613a00610e71565b50613d35610bb18351610257565b15613ccf565b9050835110155f613c97565b60079051613d548161158a565b613d5d8161158a565b14613d6757505f90565b613d7b90516020808251830101910161383a565b9150613d8561359d565b8151815180911090811591613e26575b50612e7a57613caa613da892518261166a565b519060018060a01b03613dbb8251610257565b16158015613e12575b612e6b57613dd28151610257565b613ddf610bb18451610257565b6001600160a01b03909116036131715760208101602081519301928351116132605761398b92613d10915190519061238c565b50613e20610bb18351610257565b15613dc4565b9050835110155f613d95565b5f80916020815191016a636f6e736f6c652e6c6f675afa50565b612a47906112ad613e7f936102f79560405195869463e0e9ad4f60e01b602087015260606024870152608486019061099d565b6001600160a01b03909216604485015283820360231901606485015261099d565b9182518251810180911161042d57613eb790611cb2565b905f5b8451811015613eed5780613ed06001928761166a565b51613edb828661166a565b52613ee6818561166a565b5001613eba565b50915f5b8151811015613f115780613f0a6127486001938561166a565b5001613ef1565b5090925050565b91909180516001810180911161042d57613f3190611cb2565b915f5b8251811015613f675780613f4a6001928561166a565b51613f55828761166a565b52613f60818661166a565b5001613f34565b5092612e42915190612e3b828561166a565b90611e0890611f306102f7956040519586936323b872dd60e01b6020860152602485016117e0565b909160075460ff8160a01c166140c55760ff60a01b198116600160a01b176007819055600880546001600160a01b0319166001600160a01b0390931692909217909155613fed90610257565b906001600160a01b038216156140b6576001600160a01b0383161580156140ae575b61409f57614036614025610bb1611f3094610257565b9160405193849186602084016140d4565b803b1561025357614061935f80946040519687958694859363701195a160e11b8552600485016140f6565b03925af180156108ed5761408b575b50614079611499565b6102f76007805460ff60a01b19169055565b80610c765f61409993610e4e565b5f614070565b630331eb0f60e41b5f5260045ffd5b50831561400f565b637d908e5b60e11b5f5260045ffd5b6388aac56f60e01b5f5260045ffd5b6001600160a01b0390911681526040602082018190526107219291019061099d565b610721939260609260018060a01b031682526020820152816040820152019061099d565b92919260075460ff8160a01c166140c55760ff60a01b1916600160a01b17600755600880546001600160a01b0319166001600160a01b03831690811790915560065490919061416890610257565b906001600160a01b038216156140b65782158015614431575b8015614429575b61409f5760405163c45a015560e01b815291602083600481875afa9283156108ed575f93614404575b506141bb90610257565b916001600160a01b031682900361435257604051630dfe168160e01b815291602083600481875afa9283156108ed575f936143e3575b5060405163d21220a760e01b815290602082600481885afa9182156108ed575f926143be575b5061422190610257565b60405163ddca3f4360e01b8152602081600481895afa80156108ed5761428c926020925f9261438f575b50604051630b4c774160e11b81526001600160a01b0380891660048301528616602482015262ffffff90921660448301529092839190829081906064820190565b03915afa80156108ed5785915f91614360575b506001600160a01b031603614352576001600160a01b0385811693168314928315918261433e575b505061432f57611f306142f692805f146143285787965b8115614322575f985b60405197889560208701614472565b803b1561025357614061935f8094604051968795869485936312439b2f60e21b855230600486016144b4565b886142e7565b5f966142de565b630732619560e01b5f5260045ffd5b6001600160a01b0316141590505f806142c7565b62820f3560e61b5f5260045ffd5b614382915060203d602011614388575b61437a8183610e4e565b810190614442565b5f61429f565b503d614370565b6143b0919250833d85116143b7575b6143a88183610e4e565b810190614457565b905f61424b565b503d61439e565b6142219192506143dc9060203d6020116143885761437a8183610e4e565b9190614217565b6143fd91935060203d6020116143885761437a8183610e4e565b915f6141f1565b6141bb9193506144229060203d6020116143885761437a8183610e4e565b92906141b1565b508515614188565b506001600160a01b03841615614181565b908160209103126102535751610721816102db565b90816020910312610253575162ffffff811681036102535790565b6001600160a01b03918216815291166020820152604081019190915260a06060820181905292939290916080916144ac919084019061099d565b931515910152565b9092608092610721959460018060a01b0316835260208301526040820152816060820152019061099d565b929091926040516144f8816112ad602082018095610eec565b5190205f908152600460205260409020546001600160a01b031680156140b65760075460ff8160a01c166140c55760ff60a01b1916600160a01b17600755600880546001600160a01b031916821790556001600160a01b03831615801561458a575b61409f57803b1561025357614061935f8094604051968795869485936310ac2ddf60e21b85523060048601614a5a565b50831561455a565b9060018060a01b036003541660075460ff8160a01c166140c55760ff60a01b1916600160a01b17600755600880546001600160a01b0319169190911790556003546145e090610bb190610257565b916001600160a01b038316156140b6576001600160a01b03811615801561469a575b61409f575f926112ad6146458594614629614661956112ad6040519384926020840161168d565b60405163bf11f4af60e01b60208201529283916024830161278b565b6040519485809481936348c8949160e01b83526004830161278b565b03925af180156108ed576146785750614079611499565b614693903d805f833e61468b8183610e4e565b8101906146a2565b505f614070565b508115614602565b906020828203126102535781516001600160401b038111610253576107219201611802565b909160018060a01b036002541660075460ff8160a01c166140c55760ff60a01b1916600160a01b17600755600880546001600160a01b03191691909117905560025461471690610bb190610257565b916001600160a01b038316156140b6576001600160a01b03169182158015614791575b61409f57614752614748614799565b936117328561164d565b61475a614799565b936147648561164d565b52803b1561025357614061935f809460405196879586948593632e1c224f60e11b855230600486016147bb565b508315614739565b604080519091906147aa8382610e4e565b6001815291601f1901366020840137565b6001600160a01b03909116815260806020808301829052835191830182905260a0830196959301905f5b81811061483a5750505080850360408201526020808451968781520193015f955b808710614822575050610721939450606081840391015261099d565b90936020806001928751815201950196019590614806565b82516001600160a01b03168852602097880197909201916001016147e5565b5f516020614af75f395f51905f525c90604051918083528060051c5f5b8181106148bb575090602091601f821661489b575b50601f01601f1916830101604052565b5f516020614b575f395f51905f52015c601f19821685018301525f61488b565b805f516020614b575f395f51905f52600192015c60208260051b8801015201614876565b919060a0838203126102535780608061386361072193866137b5565b6040519061490882610e33565b5f6060838281528260208201528260408201520152565b6020016149368151602080825183010191016148df565b905061494061359d565b91815183511115612e7a5761495682518461166a565b519260018060a01b036149698551610257565b1615612e6b57613c246112ad936125fe938660206102f79801805161499357505050612e25610e71565b6149ce60406149c6610bb16149be612e63976149ad6148fb565b5051602080825183010191016148df565b509551610257565b930151610257565b905191611f09565b6040810180516149ee906001600160a01b03166114e1565b1561130e57602082018051915183519192614a18929130916001600160a01b039182169116613f79565b614a20611bd5565b90519151604051926001600160a01b0316614a3a84610ddd565b83526020830152805115610428576102f7916020820152613a1f8161164d565b6001600160a01b03918216815291166020820152604081019190915260a0606082018190529092915f91608091614a939186019061099d565b930152565b90614abc5750805115614aad57805190602001fd5b630a12f52160e11b5f5260045ffd5b81511580614aed575b614acd575090565b639996b31560e01b5f9081526001600160a01b0391909116600452602490fd5b50803b15614ac556fe33a7f7e91c7e5e97e4035e86e424aaeb97691c852dc81d823520f664cc2ca71c5f92431fdc2b6bf66f91a326fa06b3fad6b4ab24047c9be12b7f412fbfbaa1ec8be0079c531659141344cd1fd0a4f28419497f9722a3daafe3b4186f6b6457e033a7f7e91c7e5e97e4035e86e424aaeb97691c852dc81d823520f664cc2ca71d5f92431fdc2b6bf66f91a326fa06b3fad6b4ab24047c9be12b7f412fbfbaa1eda2646970667358221220fbc20d06d2cb2df5784e75243b4c662994d43e18d74aaf54d135235335db779664736f6c634300081e0033",
  "devdoc": {
    "errors": {
      "AddressEmptyCode(address)": [
        {
          "details": "There's no code at `target` (it is not a contract)."
        }
      ],
      "AddressInsufficientBalance(address)": [
        {
          "details": "The ETH balance of the account is not enough to perform the operation."
        }
      ],
      "FailedInnerCall()": [
        {
          "details": "A call to an address target failed. The target may have reverted."
        }
      ],
      "OwnableInvalidOwner(address)": [
        {
          "details": "The owner is not a valid owner account. (eg. `address(0)`)"
        }
      ],
      "OwnableUnauthorizedAccount(address)": [
        {
          "details": "The caller account is not authorized to perform an operation."
        }
      ],
      "ReentrancyGuardReentrantCall()": [
        {
          "details": "Unauthorized reentrant call."
        }
      ],
      "SafeERC20FailedOperation(address)": [
        {
          "details": "An operation with an ERC20 token failed."
        }
      ]
    },
    "kind": "dev",
    "methods": {
      "isAuthorizedFor(address)": {
        "params": {
          "user": "The user to check authorization for"
        },
        "returns": {
          "_0": "True if msg.sender can act on behalf of user"
        }
      },
      "onMorphoFlashLoan(uint256,bytes)": {
        "params": {
          "assets": "The amount of assets that was flash loaned.",
          "data": "Arbitrary data passed to the `flashLoan` function."
        }
      },
      "owner()": {
        "details": "Returns the address of the current owner."
      },
      "renounceOwnership()": {
        "details": "Leaves the contract without owner. It will not be possible to call `onlyOwner` functions. Can only be called by the current owner. NOTE: Renouncing ownership will leave the contract without an owner, thereby disabling any functionality that is only available to the owner."
      },
      "setDelegate(address,bool)": {
        "details": "Manager must be approved by owner first"
      },
      "transferOwnership(address)": {
        "details": "Transfers ownership of the contract to a new account (`newOwner`). Can only be called by the current owner."
      }
    },
    "version": 1
  },
  "userdoc": {
    "kind": "user",
    "methods": {
      "approvedManagers(address)": {
        "notice": "Approved managers that can act on behalf of users who delegate to them"
      },
      "authorizationHelper()": {
        "notice": "Address of the KapanAuthorizationHelper contract for auth encoding"
      },
      "authorizeInstructions((string,bytes)[],address)": {
        "notice": "Generate authorization calls for instructions (delegates to helper)"
      },
      "deauthorizeInstructions((string,bytes)[],address)": {
        "notice": "Generate deauthorization calls for instructions (delegates to helper)"
      },
      "isAuthorizedFor(address)": {
        "notice": "Check if caller is authorized to act for a user"
      },
      "onMorphoFlashLoan(uint256,bytes)": {
        "notice": "Callback called when a flash loan occurs."
      },
      "recoverNative(address,uint256)": {
        "notice": "Recover native ETH stuck in the router (owner only)"
      },
      "recoverTokens(address,address,uint256)": {
        "notice": "Recover ERC20 tokens stuck in the router (owner only)"
      },
      "setAavePool(address)": {
        "notice": "Set the Aave V3 pool address."
      },
      "setApprovedManager(address,bool)": {
        "notice": "Owner approves/revokes a manager address that users can delegate to"
      },
      "setAuthorizationHelper(address)": {
        "notice": "Set the authorization helper contract address"
      },
      "setDelegate(address,bool)": {
        "notice": "User grants/revokes delegation to a manager"
      },
      "setMorphoBluePool(address)": {
        "notice": "Set the Morpho Blue address for flash loans."
      },
      "setZeroLendPool(address)": {
        "notice": "Set the ZeroLend pool address."
      },
      "userDelegates(address,address)": {
        "notice": "User => delegate => canActOnBehalf"
      }
    },
    "version": 1
  },
  "storageLayout": {
    "storage": [
      {
        "astId": 1578,
        "contract": "contracts/v2/KapanRouter.sol:KapanRouter",
        "label": "_owner",
        "offset": 0,
        "slot": "0",
        "type": "t_address"
      },
      {
        "astId": 3093,
        "contract": "contracts/v2/KapanRouter.sol:KapanRouter",
        "label": "_status",
        "offset": 0,
        "slot": "1",
        "type": "t_uint256"
      },
      {
        "astId": 19166,
        "contract": "contracts/v2/KapanRouter.sol:KapanRouter",
        "label": "balancerV2Vault",
        "offset": 0,
        "slot": "2",
        "type": "t_contract(IFlashLoanProvider)43317"
      },
      {
        "astId": 19169,
        "contract": "contracts/v2/KapanRouter.sol:KapanRouter",
        "label": "balancerV3Vault",
        "offset": 0,
        "slot": "3",
        "type": "t_contract(IVaultV3)43343"
      },
      {
        "astId": 19173,
        "contract": "contracts/v2/KapanRouter.sol:KapanRouter",
        "label": "aaveCompatiblePools",
        "offset": 0,
        "slot": "4",
        "type": "t_mapping(t_bytes32,t_address)"
      },
      {
        "astId": 19177,
        "contract": "contracts/v2/KapanRouter.sol:KapanRouter",
        "label": "isAaveCompatiblePool",
        "offset": 0,
        "slot": "5",
        "type": "t_mapping(t_address,t_bool)"
      },
      {
        "astId": 19179,
        "contract": "contracts/v2/KapanRouter.sol:KapanRouter",
        "label": "uniswapV3Factory",
        "offset": 0,
        "slot": "6",
        "type": "t_address"
      },
      {
        "astId": 19181,
        "contract": "contracts/v2/KapanRouter.sol:KapanRouter",
        "label": "morphoBlue",
        "offset": 0,
        "slot": "7",
        "type": "t_address"
      },
      {
        "astId": 19183,
        "contract": "contracts/v2/KapanRouter.sol:KapanRouter",
        "label": "flashLoanEnabled",
        "offset": 20,
        "slot": "7",
        "type": "t_bool"
      },
      {
        "astId": 19185,
        "contract": "contracts/v2/KapanRouter.sol:KapanRouter",
        "label": "authorizedFlashSender",
        "offset": 0,
        "slot": "8",
        "type": "t_address"
      },
      {
        "astId": 6651,
        "contract": "contracts/v2/KapanRouter.sol:KapanRouter",
        "label": "gateways",
        "offset": 0,
        "slot": "9",
        "type": "t_mapping(t_string_memory_ptr,t_contract(IGateway)43209)"
      },
      {
        "astId": 6654,
        "contract": "contracts/v2/KapanRouter.sol:KapanRouter",
        "label": "authorizationHelper",
        "offset": 0,
        "slot": "10",
        "type": "t_address"
      },
      {
        "astId": 6659,
        "contract": "contracts/v2/KapanRouter.sol:KapanRouter",
        "label": "approvedManagers",
        "offset": 0,
        "slot": "11",
        "type": "t_mapping(t_address,t_bool)"
      },
      {
        "astId": 6666,
        "contract": "contracts/v2/KapanRouter.sol:KapanRouter",
        "label": "userDelegates",
        "offset": 0,
        "slot": "12",
        "type": "t_mapping(t_address,t_mapping(t_address,t_bool))"
      }
    ],
    "types": {
      "t_address": {
        "encoding": "inplace",
        "label": "address",
        "numberOfBytes": "20"
      },
      "t_bool": {
        "encoding": "inplace",
        "label": "bool",
        "numberOfBytes": "1"
      },
      "t_bytes32": {
        "encoding": "inplace",
        "label": "bytes32",
        "numberOfBytes": "32"
      },
      "t_contract(IFlashLoanProvider)43317": {
        "encoding": "inplace",
        "label": "contract IFlashLoanProvider",
        "numberOfBytes": "20"
      },
      "t_contract(IGateway)43209": {
        "encoding": "inplace",
        "label": "contract IGateway",
        "numberOfBytes": "20"
      },
      "t_contract(IVaultV3)43343": {
        "encoding": "inplace",
        "label": "contract IVaultV3",
        "numberOfBytes": "20"
      },
      "t_mapping(t_address,t_bool)": {
        "encoding": "mapping",
        "key": "t_address",
        "label": "mapping(address => bool)",
        "numberOfBytes": "32",
        "value": "t_bool"
      },
      "t_mapping(t_address,t_mapping(t_address,t_bool))": {
        "encoding": "mapping",
        "key": "t_address",
        "label": "mapping(address => mapping(address => bool))",
        "numberOfBytes": "32",
        "value": "t_mapping(t_address,t_bool)"
      },
      "t_mapping(t_bytes32,t_address)": {
        "encoding": "mapping",
        "key": "t_bytes32",
        "label": "mapping(bytes32 => address)",
        "numberOfBytes": "32",
        "value": "t_address"
      },
      "t_mapping(t_string_memory_ptr,t_contract(IGateway)43209)": {
        "encoding": "mapping",
        "key": "t_string_memory_ptr",
        "label": "mapping(string => contract IGateway)",
        "numberOfBytes": "32",
        "value": "t_contract(IGateway)43209"
      },
      "t_string_memory_ptr": {
        "encoding": "bytes",
        "label": "string",
        "numberOfBytes": "32"
      },
      "t_uint256": {
        "encoding": "inplace",
        "label": "uint256",
        "numberOfBytes": "32"
      }
    }
  }
}