{
  "address": "0x89e5251E98373954d4ad4277022dc6108b29768d",
  "abi": [
    {
      "inputs": [
        {
          "internalType": "address",
          "name": "_owner",
          "type": "address"
        },
        {
          "internalType": "address",
          "name": "_router",
          "type": "address"
        },
        {
          "internalType": "address",
          "name": "_composableCoW",
          "type": "address"
        },
        {
          "internalType": "address",
          "name": "_settlement",
          "type": "address"
        },
        {
          "internalType": "address",
          "name": "_hooksTrampoline",
          "type": "address"
        }
      ],
      "stateMutability": "nonpayable",
      "type": "constructor"
    },
    {
      "inputs": [
        {
          "internalType": "address",
          "name": "target",
          "type": "address"
        }
      ],
      "name": "AddressEmptyCode",
      "type": "error"
    },
    {
      "inputs": [
        {
          "internalType": "address",
          "name": "account",
          "type": "address"
        }
      ],
      "name": "AddressInsufficientBalance",
      "type": "error"
    },
    {
      "inputs": [],
      "name": "CannotCancelMidExecution",
      "type": "error"
    },
    {
      "inputs": [],
      "name": "FailedInnerCall",
      "type": "error"
    },
    {
      "inputs": [],
      "name": "HookExecutionFailed",
      "type": "error"
    },
    {
      "inputs": [
        {
          "internalType": "address",
          "name": "expected",
          "type": "address"
        },
        {
          "internalType": "address",
          "name": "actual",
          "type": "address"
        }
      ],
      "name": "InstructionUserMismatch",
      "type": "error"
    },
    {
      "inputs": [],
      "name": "InvalidHandler",
      "type": "error"
    },
    {
      "inputs": [],
      "name": "InvalidOrderState",
      "type": "error"
    },
    {
      "inputs": [],
      "name": "NotHooksTrampoline",
      "type": "error"
    },
    {
      "inputs": [],
      "name": "OrderAlreadyExists",
      "type": "error"
    },
    {
      "inputs": [],
      "name": "OrderNotFound",
      "type": "error"
    },
    {
      "inputs": [
        {
          "internalType": "address",
          "name": "owner",
          "type": "address"
        }
      ],
      "name": "OwnableInvalidOwner",
      "type": "error"
    },
    {
      "inputs": [
        {
          "internalType": "address",
          "name": "account",
          "type": "address"
        }
      ],
      "name": "OwnableUnauthorizedAccount",
      "type": "error"
    },
    {
      "inputs": [],
      "name": "PreHookAlreadyExecuted",
      "type": "error"
    },
    {
      "inputs": [],
      "name": "PreHookNotExecuted",
      "type": "error"
    },
    {
      "inputs": [],
      "name": "ReentrancyGuardReentrantCall",
      "type": "error"
    },
    {
      "inputs": [
        {
          "internalType": "address",
          "name": "token",
          "type": "address"
        }
      ],
      "name": "SafeERC20FailedOperation",
      "type": "error"
    },
    {
      "inputs": [],
      "name": "Unauthorized",
      "type": "error"
    },
    {
      "inputs": [],
      "name": "ZeroAddress",
      "type": "error"
    },
    {
      "anonymous": false,
      "inputs": [
        {
          "indexed": true,
          "internalType": "bytes32",
          "name": "orderHash",
          "type": "bytes32"
        },
        {
          "indexed": false,
          "internalType": "uint256",
          "name": "chunkIndex",
          "type": "uint256"
        },
        {
          "indexed": false,
          "internalType": "uint256",
          "name": "sellAmount",
          "type": "uint256"
        },
        {
          "indexed": false,
          "internalType": "uint256",
          "name": "buyAmount",
          "type": "uint256"
        }
      ],
      "name": "ChunkExecuted",
      "type": "event"
    },
    {
      "anonymous": false,
      "inputs": [
        {
          "indexed": true,
          "internalType": "address",
          "name": "oldComposableCoW",
          "type": "address"
        },
        {
          "indexed": true,
          "internalType": "address",
          "name": "newComposableCoW",
          "type": "address"
        }
      ],
      "name": "ComposableCoWUpdated",
      "type": "event"
    },
    {
      "anonymous": false,
      "inputs": [
        {
          "indexed": true,
          "internalType": "address",
          "name": "oldTrampoline",
          "type": "address"
        },
        {
          "indexed": true,
          "internalType": "address",
          "name": "newTrampoline",
          "type": "address"
        }
      ],
      "name": "HooksTrampolineUpdated",
      "type": "event"
    },
    {
      "anonymous": false,
      "inputs": [
        {
          "indexed": true,
          "internalType": "bytes32",
          "name": "orderHash",
          "type": "bytes32"
        },
        {
          "indexed": true,
          "internalType": "address",
          "name": "user",
          "type": "address"
        }
      ],
      "name": "OrderCancelled",
      "type": "event"
    },
    {
      "anonymous": false,
      "inputs": [
        {
          "indexed": true,
          "internalType": "bytes32",
          "name": "orderHash",
          "type": "bytes32"
        },
        {
          "indexed": true,
          "internalType": "address",
          "name": "user",
          "type": "address"
        },
        {
          "indexed": false,
          "internalType": "uint256",
          "name": "totalExecuted",
          "type": "uint256"
        }
      ],
      "name": "OrderCompleted",
      "type": "event"
    },
    {
      "anonymous": false,
      "inputs": [
        {
          "indexed": true,
          "internalType": "bytes32",
          "name": "orderHash",
          "type": "bytes32"
        },
        {
          "indexed": true,
          "internalType": "address",
          "name": "user",
          "type": "address"
        },
        {
          "indexed": false,
          "internalType": "address",
          "name": "sellToken",
          "type": "address"
        },
        {
          "indexed": false,
          "internalType": "address",
          "name": "buyToken",
          "type": "address"
        },
        {
          "indexed": false,
          "internalType": "uint256",
          "name": "totalAmount",
          "type": "uint256"
        },
        {
          "indexed": false,
          "internalType": "uint256",
          "name": "chunkSize",
          "type": "uint256"
        }
      ],
      "name": "OrderCreated",
      "type": "event"
    },
    {
      "anonymous": false,
      "inputs": [
        {
          "indexed": true,
          "internalType": "address",
          "name": "oldHandler",
          "type": "address"
        },
        {
          "indexed": true,
          "internalType": "address",
          "name": "newHandler",
          "type": "address"
        }
      ],
      "name": "OrderHandlerUpdated",
      "type": "event"
    },
    {
      "anonymous": false,
      "inputs": [
        {
          "indexed": true,
          "internalType": "address",
          "name": "previousOwner",
          "type": "address"
        },
        {
          "indexed": true,
          "internalType": "address",
          "name": "newOwner",
          "type": "address"
        }
      ],
      "name": "OwnershipTransferred",
      "type": "event"
    },
    {
      "anonymous": false,
      "inputs": [
        {
          "indexed": true,
          "internalType": "bytes32",
          "name": "orderHash",
          "type": "bytes32"
        },
        {
          "indexed": false,
          "internalType": "uint256",
          "name": "chunkIndex",
          "type": "uint256"
        },
        {
          "indexed": false,
          "internalType": "uint256",
          "name": "receivedAmount",
          "type": "uint256"
        }
      ],
      "name": "PostHookExecuted",
      "type": "event"
    },
    {
      "anonymous": false,
      "inputs": [
        {
          "indexed": true,
          "internalType": "bytes32",
          "name": "orderHash",
          "type": "bytes32"
        },
        {
          "indexed": false,
          "internalType": "uint256",
          "name": "chunkIndex",
          "type": "uint256"
        }
      ],
      "name": "PreHookExecuted",
      "type": "event"
    },
    {
      "anonymous": false,
      "inputs": [
        {
          "indexed": true,
          "internalType": "address",
          "name": "oldRouter",
          "type": "address"
        },
        {
          "indexed": true,
          "internalType": "address",
          "name": "newRouter",
          "type": "address"
        }
      ],
      "name": "RouterUpdated",
      "type": "event"
    },
    {
      "inputs": [
        {
          "internalType": "address",
          "name": "token",
          "type": "address"
        }
      ],
      "name": "approveVaultRelayer",
      "outputs": [],
      "stateMutability": "nonpayable",
      "type": "function"
    },
    {
      "inputs": [
        {
          "internalType": "bytes32",
          "name": "orderHash",
          "type": "bytes32"
        }
      ],
      "name": "cancelOrder",
      "outputs": [],
      "stateMutability": "nonpayable",
      "type": "function"
    },
    {
      "inputs": [],
      "name": "composableCoW",
      "outputs": [
        {
          "internalType": "contract IComposableCoW",
          "name": "",
          "type": "address"
        }
      ],
      "stateMutability": "view",
      "type": "function"
    },
    {
      "inputs": [
        {
          "components": [
            {
              "internalType": "address",
              "name": "user",
              "type": "address"
            },
            {
              "internalType": "bytes[]",
              "name": "preInstructionsPerIteration",
              "type": "bytes[]"
            },
            {
              "internalType": "uint256",
              "name": "preTotalAmount",
              "type": "uint256"
            },
            {
              "internalType": "address",
              "name": "sellToken",
              "type": "address"
            },
            {
              "internalType": "address",
              "name": "buyToken",
              "type": "address"
            },
            {
              "internalType": "uint256",
              "name": "chunkSize",
              "type": "uint256"
            },
            {
              "internalType": "uint256",
              "name": "minBuyPerChunk",
              "type": "uint256"
            },
            {
              "internalType": "bytes[]",
              "name": "postInstructionsPerIteration",
              "type": "bytes[]"
            },
            {
              "internalType": "enum KapanOrderManager.CompletionType",
              "name": "completion",
              "type": "uint8"
            },
            {
              "internalType": "uint256",
              "name": "targetValue",
              "type": "uint256"
            },
            {
              "internalType": "uint256",
              "name": "minHealthFactor",
              "type": "uint256"
            },
            {
              "internalType": "bytes32",
              "name": "appDataHash",
              "type": "bytes32"
            },
            {
              "internalType": "bool",
              "name": "isFlashLoanOrder",
              "type": "bool"
            },
            {
              "internalType": "bool",
              "name": "isKindBuy",
              "type": "bool"
            }
          ],
          "internalType": "struct KapanOrderManager.KapanOrderParams",
          "name": "params",
          "type": "tuple"
        },
        {
          "internalType": "bytes32",
          "name": "salt",
          "type": "bytes32"
        },
        {
          "internalType": "uint256",
          "name": "seedAmount",
          "type": "uint256"
        }
      ],
      "name": "createOrder",
      "outputs": [
        {
          "internalType": "bytes32",
          "name": "orderHash",
          "type": "bytes32"
        }
      ],
      "stateMutability": "nonpayable",
      "type": "function"
    },
    {
      "inputs": [
        {
          "internalType": "bytes32",
          "name": "orderHash",
          "type": "bytes32"
        }
      ],
      "name": "executePostHook",
      "outputs": [],
      "stateMutability": "nonpayable",
      "type": "function"
    },
    {
      "inputs": [
        {
          "internalType": "address",
          "name": "user",
          "type": "address"
        },
        {
          "internalType": "bytes32",
          "name": "salt",
          "type": "bytes32"
        }
      ],
      "name": "executePostHookBySalt",
      "outputs": [],
      "stateMutability": "nonpayable",
      "type": "function"
    },
    {
      "inputs": [
        {
          "internalType": "bytes32",
          "name": "orderHash",
          "type": "bytes32"
        }
      ],
      "name": "executePreHook",
      "outputs": [],
      "stateMutability": "nonpayable",
      "type": "function"
    },
    {
      "inputs": [
        {
          "internalType": "address",
          "name": "user",
          "type": "address"
        },
        {
          "internalType": "bytes32",
          "name": "salt",
          "type": "bytes32"
        }
      ],
      "name": "executePreHookBySalt",
      "outputs": [],
      "stateMutability": "nonpayable",
      "type": "function"
    },
    {
      "inputs": [
        {
          "internalType": "bytes32",
          "name": "orderHash",
          "type": "bytes32"
        }
      ],
      "name": "getOrder",
      "outputs": [
        {
          "components": [
            {
              "components": [
                {
                  "internalType": "address",
                  "name": "user",
                  "type": "address"
                },
                {
                  "internalType": "bytes[]",
                  "name": "preInstructionsPerIteration",
                  "type": "bytes[]"
                },
                {
                  "internalType": "uint256",
                  "name": "preTotalAmount",
                  "type": "uint256"
                },
                {
                  "internalType": "address",
                  "name": "sellToken",
                  "type": "address"
                },
                {
                  "internalType": "address",
                  "name": "buyToken",
                  "type": "address"
                },
                {
                  "internalType": "uint256",
                  "name": "chunkSize",
                  "type": "uint256"
                },
                {
                  "internalType": "uint256",
                  "name": "minBuyPerChunk",
                  "type": "uint256"
                },
                {
                  "internalType": "bytes[]",
                  "name": "postInstructionsPerIteration",
                  "type": "bytes[]"
                },
                {
                  "internalType": "enum KapanOrderManager.CompletionType",
                  "name": "completion",
                  "type": "uint8"
                },
                {
                  "internalType": "uint256",
                  "name": "targetValue",
                  "type": "uint256"
                },
                {
                  "internalType": "uint256",
                  "name": "minHealthFactor",
                  "type": "uint256"
                },
                {
                  "internalType": "bytes32",
                  "name": "appDataHash",
                  "type": "bytes32"
                },
                {
                  "internalType": "bool",
                  "name": "isFlashLoanOrder",
                  "type": "bool"
                },
                {
                  "internalType": "bool",
                  "name": "isKindBuy",
                  "type": "bool"
                }
              ],
              "internalType": "struct KapanOrderManager.KapanOrderParams",
              "name": "params",
              "type": "tuple"
            },
            {
              "internalType": "enum KapanOrderManager.OrderStatus",
              "name": "status",
              "type": "uint8"
            },
            {
              "internalType": "uint256",
              "name": "executedAmount",
              "type": "uint256"
            },
            {
              "internalType": "uint256",
              "name": "iterationCount",
              "type": "uint256"
            },
            {
              "internalType": "uint256",
              "name": "createdAt",
              "type": "uint256"
            }
          ],
          "internalType": "struct KapanOrderManager.OrderContext",
          "name": "",
          "type": "tuple"
        }
      ],
      "stateMutability": "view",
      "type": "function"
    },
    {
      "inputs": [
        {
          "internalType": "address",
          "name": "user",
          "type": "address"
        }
      ],
      "name": "getUserOrders",
      "outputs": [
        {
          "internalType": "bytes32[]",
          "name": "",
          "type": "bytes32[]"
        }
      ],
      "stateMutability": "view",
      "type": "function"
    },
    {
      "inputs": [],
      "name": "hooksTrampoline",
      "outputs": [
        {
          "internalType": "address",
          "name": "",
          "type": "address"
        }
      ],
      "stateMutability": "view",
      "type": "function"
    },
    {
      "inputs": [
        {
          "internalType": "bytes32",
          "name": "orderHash",
          "type": "bytes32"
        }
      ],
      "name": "isOrderComplete",
      "outputs": [
        {
          "internalType": "bool",
          "name": "",
          "type": "bool"
        }
      ],
      "stateMutability": "view",
      "type": "function"
    },
    {
      "inputs": [
        {
          "internalType": "bytes32",
          "name": "_hash",
          "type": "bytes32"
        },
        {
          "internalType": "bytes",
          "name": "_signature",
          "type": "bytes"
        }
      ],
      "name": "isValidSignature",
      "outputs": [
        {
          "internalType": "bytes4",
          "name": "",
          "type": "bytes4"
        }
      ],
      "stateMutability": "view",
      "type": "function"
    },
    {
      "inputs": [],
      "name": "orderHandler",
      "outputs": [
        {
          "internalType": "address",
          "name": "",
          "type": "address"
        }
      ],
      "stateMutability": "view",
      "type": "function"
    },
    {
      "inputs": [
        {
          "internalType": "bytes32",
          "name": "",
          "type": "bytes32"
        }
      ],
      "name": "orderSalts",
      "outputs": [
        {
          "internalType": "bytes32",
          "name": "",
          "type": "bytes32"
        }
      ],
      "stateMutability": "view",
      "type": "function"
    },
    {
      "inputs": [
        {
          "internalType": "bytes32",
          "name": "",
          "type": "bytes32"
        }
      ],
      "name": "orderSeedBalance",
      "outputs": [
        {
          "internalType": "uint256",
          "name": "",
          "type": "uint256"
        }
      ],
      "stateMutability": "view",
      "type": "function"
    },
    {
      "inputs": [
        {
          "internalType": "bytes32",
          "name": "",
          "type": "bytes32"
        }
      ],
      "name": "orders",
      "outputs": [
        {
          "components": [
            {
              "internalType": "address",
              "name": "user",
              "type": "address"
            },
            {
              "internalType": "bytes[]",
              "name": "preInstructionsPerIteration",
              "type": "bytes[]"
            },
            {
              "internalType": "uint256",
              "name": "preTotalAmount",
              "type": "uint256"
            },
            {
              "internalType": "address",
              "name": "sellToken",
              "type": "address"
            },
            {
              "internalType": "address",
              "name": "buyToken",
              "type": "address"
            },
            {
              "internalType": "uint256",
              "name": "chunkSize",
              "type": "uint256"
            },
            {
              "internalType": "uint256",
              "name": "minBuyPerChunk",
              "type": "uint256"
            },
            {
              "internalType": "bytes[]",
              "name": "postInstructionsPerIteration",
              "type": "bytes[]"
            },
            {
              "internalType": "enum KapanOrderManager.CompletionType",
              "name": "completion",
              "type": "uint8"
            },
            {
              "internalType": "uint256",
              "name": "targetValue",
              "type": "uint256"
            },
            {
              "internalType": "uint256",
              "name": "minHealthFactor",
              "type": "uint256"
            },
            {
              "internalType": "bytes32",
              "name": "appDataHash",
              "type": "bytes32"
            },
            {
              "internalType": "bool",
              "name": "isFlashLoanOrder",
              "type": "bool"
            },
            {
              "internalType": "bool",
              "name": "isKindBuy",
              "type": "bool"
            }
          ],
          "internalType": "struct KapanOrderManager.KapanOrderParams",
          "name": "params",
          "type": "tuple"
        },
        {
          "internalType": "enum KapanOrderManager.OrderStatus",
          "name": "status",
          "type": "uint8"
        },
        {
          "internalType": "uint256",
          "name": "executedAmount",
          "type": "uint256"
        },
        {
          "internalType": "uint256",
          "name": "iterationCount",
          "type": "uint256"
        },
        {
          "internalType": "uint256",
          "name": "createdAt",
          "type": "uint256"
        }
      ],
      "stateMutability": "view",
      "type": "function"
    },
    {
      "inputs": [],
      "name": "owner",
      "outputs": [
        {
          "internalType": "address",
          "name": "",
          "type": "address"
        }
      ],
      "stateMutability": "view",
      "type": "function"
    },
    {
      "inputs": [
        {
          "internalType": "bytes32",
          "name": "",
          "type": "bytes32"
        }
      ],
      "name": "preHookBuyBalance",
      "outputs": [
        {
          "internalType": "uint256",
          "name": "",
          "type": "uint256"
        }
      ],
      "stateMutability": "view",
      "type": "function"
    },
    {
      "inputs": [
        {
          "internalType": "bytes32",
          "name": "",
          "type": "bytes32"
        }
      ],
      "name": "preHookExecutedForIteration",
      "outputs": [
        {
          "internalType": "uint256",
          "name": "",
          "type": "uint256"
        }
      ],
      "stateMutability": "view",
      "type": "function"
    },
    {
      "inputs": [
        {
          "internalType": "bytes32",
          "name": "",
          "type": "bytes32"
        }
      ],
      "name": "preHookSellBalance",
      "outputs": [
        {
          "internalType": "uint256",
          "name": "",
          "type": "uint256"
        }
      ],
      "stateMutability": "view",
      "type": "function"
    },
    {
      "inputs": [
        {
          "internalType": "address",
          "name": "token",
          "type": "address"
        },
        {
          "internalType": "address",
          "name": "to",
          "type": "address"
        },
        {
          "internalType": "uint256",
          "name": "amount",
          "type": "uint256"
        }
      ],
      "name": "recoverTokens",
      "outputs": [],
      "stateMutability": "nonpayable",
      "type": "function"
    },
    {
      "inputs": [],
      "name": "renounceOwnership",
      "outputs": [],
      "stateMutability": "nonpayable",
      "type": "function"
    },
    {
      "inputs": [],
      "name": "router",
      "outputs": [
        {
          "internalType": "contract IKapanRouter",
          "name": "",
          "type": "address"
        }
      ],
      "stateMutability": "view",
      "type": "function"
    },
    {
      "inputs": [
        {
          "internalType": "address",
          "name": "_composableCoW",
          "type": "address"
        }
      ],
      "name": "setComposableCoW",
      "outputs": [],
      "stateMutability": "nonpayable",
      "type": "function"
    },
    {
      "inputs": [
        {
          "internalType": "address",
          "name": "_hooksTrampoline",
          "type": "address"
        }
      ],
      "name": "setHooksTrampoline",
      "outputs": [],
      "stateMutability": "nonpayable",
      "type": "function"
    },
    {
      "inputs": [
        {
          "internalType": "address",
          "name": "_handler",
          "type": "address"
        }
      ],
      "name": "setOrderHandler",
      "outputs": [],
      "stateMutability": "nonpayable",
      "type": "function"
    },
    {
      "inputs": [
        {
          "internalType": "address",
          "name": "_router",
          "type": "address"
        }
      ],
      "name": "setRouter",
      "outputs": [],
      "stateMutability": "nonpayable",
      "type": "function"
    },
    {
      "inputs": [],
      "name": "settlement",
      "outputs": [
        {
          "internalType": "contract IGPv2Settlement",
          "name": "",
          "type": "address"
        }
      ],
      "stateMutability": "view",
      "type": "function"
    },
    {
      "inputs": [
        {
          "internalType": "address",
          "name": "newOwner",
          "type": "address"
        }
      ],
      "name": "transferOwnership",
      "outputs": [],
      "stateMutability": "nonpayable",
      "type": "function"
    },
    {
      "inputs": [
        {
          "internalType": "address",
          "name": "",
          "type": "address"
        },
        {
          "internalType": "uint256",
          "name": "",
          "type": "uint256"
        }
      ],
      "name": "userOrders",
      "outputs": [
        {
          "internalType": "bytes32",
          "name": "",
          "type": "bytes32"
        }
      ],
      "stateMutability": "view",
      "type": "function"
    },
    {
      "inputs": [
        {
          "internalType": "address",
          "name": "",
          "type": "address"
        },
        {
          "internalType": "bytes32",
          "name": "",
          "type": "bytes32"
        }
      ],
      "name": "userSaltToOrderHash",
      "outputs": [
        {
          "internalType": "bytes32",
          "name": "",
          "type": "bytes32"
        }
      ],
      "stateMutability": "view",
      "type": "function"
    }
  ],
  "transactionHash": "0xe507ea9bb2379fefc1575ad578acf475df833cbef691820f76439c2f20254fb4",
  "args": [
    "0x0BE61223F99E57b8b8B7033a77B54Adc7f7cF027",
    "0x42a3E18f8B7656f22ef4738e9751B1034913C238",
    "0xfdaFc9d1902f4e0b84f65F49f244b32b31013b74",
    "0x9008D19f58AAbD9eD0D60971565AA8510560ab41",
    "0x60Bf78233f48eC42eE3F101b9a05eC7878728006"
  ],
  "numDeployments": 21,
  "solcInputHash": "1defaa97da21e690870cee4ea6009d84",
  "bytecode": "0x60803461018557601f61408938819003918201601f19168301916001600160401b038311848410176101895780849260a094604052833981010312610185576100478161019d565b906100546020820161019d565b916100616040830161019d565b9161007a60806100736060840161019d565b920161019d565b6001600160a01b03909216938415610172575f80546001600160a01b031981168717825560405196916001600160a01b03909116907f8be0079c531659141344cd1fd0a4f28419497f9722a3daafe3b4186f6b6457e09080a3600180556001600160a01b0316928315610163576001600160a01b0316908115610163576001600160a01b0316918215610163576001600160a01b03169283156101635760018060a01b0319600254161760025560018060a01b0319600354161760035560018060a01b0319600454161760045560018060a01b03196005541617600555613ed790816101b28239f35b63d92e233d60e01b5f5260045ffd5b631e4fbdf760e01b5f525f60045260245ffd5b5f80fd5b634e487b7160e01b5f52604160045260245ffd5b51906001600160a01b03821682036101855756fe60806040526004361015610011575f80fd5b5f5f3560e01c80631626ba7e146119995780632fbff5a414611943578063304d313e146118c1578063507f0e7414611897578063511606301461186f57806351fe1db5146118455780635778472a146117015780635f3e849f146116b457806363c69f081461162a5780636edd27ff146115f7578063715018a6146115b35780637489ec231461136c5780638009fb6a1461130a57806381e6d3ce146112e1578063856652e91461128a5780638b0f4834146112615780638da5cb5b1461123a578063988ccc16146111c55780639c3f1e9014611148578063b58483051461111f578063c0d78655146110aa578063c3cdefe514611080578063c73bb4bd14610fc6578063caf2185614610fa1578063cea4b43614610f5e578063d08bdbf31461031c578063d22b0586146102f2578063d7a3aca71461026e578063e0b787e414610242578063ea69718614610218578063f2fde38b146101a55763f887ea401461017a575f80fd5b346101a257806003193601126101a2576002546040516001600160a01b039091168152602090f35b80fd5b50346101a25760203660031901126101a2576101bf611a0b565b6101c7613152565b6001600160a01b031680156102045781546001600160a01b03198116821783556001600160a01b03165f516020613e825f395f51905f528380a380f35b631e4fbdf760e01b82526004829052602482fd5b50346101a25760203660031901126101a25760406020916004358152600e83522054604051908152f35b50346101a25760203660031901126101a25761025c61281e565b61026760043561347e565b6001805580f35b50346101a25760203660031901126101a257610288611a0b565b610290613152565b6001600160a01b031680156102e357600680546001600160a01b0319811683179091556001600160a01b03167f7bf6e789688cd776b5170517f39970fea2870a79d649c8443dd2b0ec62823eb78380a380f35b63d92e233d60e01b8252600482fd5b50346101a25760203660031901126101a25760406020916004358152600b83522054604051908152f35b50346101a25760603660031901126101a2576001600160401b03600435116101a2576101c0600435360360031901126101a25761035761281e565b61036560043560040161255f565b336001600160a01b0390911603610f50576006546001600160a01b031615610f41576103a861039e602460043501600435600401612573565b9030913391613825565b6103bf61039e60e460043501600435600401612573565b604051606060208201908152906001600160a01b036103e16004803501611a21565b1660808201526104956104146104016024600435016004356004016125a8565b6101c060a08601526102408501916125dd565b600435604481013560c08501526001600160a01b039061043690606401611a21565b1660e08401526001600160a01b03610452600435608401611a21565b166101008401526004803560a481013561012086015260c48101356101408601526104829160e4820191016125a8565b848303607f1901610160860152906125dd565b6004610104813501351015610b2c5781610534916104b96101046004350135611ab1565b6004356101048101356101808401526101248101356101a08401526101448101356101c08401526101648101356101e08401526104f99061018401611ed5565b15156102008301526105106101a460043501611ed5565b1515610220830152602435604083015242606083015203601f198101835282611c9d565b519020808252600760205260ff600d6040842001541661055381611ab1565b610f3257604435610eca575b6040519061056c82611c00565b60405161057881611c2f565b610586600435600401611a21565b81526001600160401b036004356024013511610b2c576105b0366004803560248101350101612673565b60208201526044600435013560408201526105cf606460043501611a21565b60608201526105e2608460043501611a21565b608082015260043560a481013560a083015260c481013560c083015260e401356001600160401b038111610ec657610621906004369181350101612673565b60e08201526004356101048101356101008301526101248101356101208301526101448101356101408301526101648101356101608301526106669061018401611ed5565b61018082015261067b6101a460043501611ed5565b6101a08201528252600160208084018281526040808601878152606087018881524260808901908152878a52600786529289209751805189546001600160a01b0319166001600160a01b0391909116178955948501518051959896939591949293870190600160401b8311610d2e578154838355808410610e48575b50602001908a5260208a208a915b838310610d4257505050506040870151600286015560608701516003860180546001600160a01b039283166001600160a01b031991821617909155608089015160048801805491909316911617905560a0870151600586015560c0870151600686015560e0870151805197906007870190600160401b8a11610d2e5781548a8355808b10610cb0575b50602001908a5260208a208a915b8a8310610b7f57505050859697506008601096016101008201516107bf81611ab1565b6107c881611ab1565b60ff801983541691161790556101208101516009880155610140810151600a880155610160810151600b880155600c87019061018081015115159060ff61ff006101a08554930151151560081b1692169061ffff191617179055600d8601905161083181611ab1565b61083a81611ab1565b60ff8019835416911617905551600e85015551600f840155519101558082526008602052602435604083205560018060a01b0361087b60043560040161255f565b168252600960205260408220805490600160401b821015610b6b57906108a691600182018155611bd7565b81545f1960039290921b91821b19169083901b1790556001600160a01b036108d1600480350161255f565b168252600a6020526040822060243583526020528060408320558160018060a01b03600654166040518360208201526020815261090f604082611c9d565b6040519161091c83611c4b565b8252602435602083015260408201526003546001600160a01b0316803b15610b675761096a83929183926040519485809481936335fd70e560e11b8352604060048401526044830190611fc2565b6001602483015203925af18015610b5c57610b43575b50506004610991606482350161255f565b8154604051634daa966160e11b81529260209184919082906001600160a01b03165afa918215610b38578492610af8575b50604051636eb1769f60e11b81523060048201526001600160a01b038381166024830152909491169190602085604481865afa908115610aec5790610ab5575b602094506001600160ff1b0311610aa5575b5050610a2460043560040161255f565b817f961e6438a987eab19d9850691e56ca64f442dbb689801b0f3cfc1381c98ed15e6080610a5660646004350161255f565b93610a6560846004350161255f565b604080516001600160a01b0397881681529187168983015260043560448101359183019190915260a401356060820152941693a360018055604051908152f35b610aae91613740565b5f80610a14565b506020843d602011610ae4575b81610acf60209383611c9d565b81010312610ae05760209351610a02565b5f80fd5b3d9150610ac2565b604051903d90823e3d90fd5b9091506020813d602011610b30575b81610b1460209383611c9d565b81010312610b2c57610b2590611f51565b905f6109c2565b8380fd5b3d9150610b07565b6040513d86823e3d90fd5b81610b4d91611c9d565b610b5857815f610980565b5080fd5b6040513d84823e3d90fd5b8280fd5b634e487b7160e01b84526041600452602484fd5b80518051906001600160401b038211610c9c578d90610b9e8554611cd7565b601f8111610c61575b50602091601f8411600114610bf9578360019592946020948796610bdf9492610bee575b50508160011b915f199060031b1c19161790565b85555b0192019201919061079c565b015190505f80610bcb565b9190601f198416868452828420935b818110610c495750936020936001969387969383889510610c31575b505050811b018555610be2565b01515f1960f88460031b161c191690555f8080610c24565b92936020600181928786015181550195019301610c08565b610c8c9086845260208420601f860160051c81019160208710610c92575b601f0160051c01906126f1565b5f610ba7565b9091508190610c7f565b634e487b7160e01b8e52604160045260248efd5b828c528a60208d2091820191015b8c828210610ccd57505061078e565b9080600192610cdc8254611cd7565b80610ceb575b50505001610cbe565b601f81118514610d04575050508d81555b808e5f610ce2565b82825260208220610d1f91601f0160051c81019086016126f1565b528d6020812081835555610cfc565b634e487b7160e01b8b52604160045260248bfd5b80518051906001600160401b038211610c9c578d90610d618554611cd7565b601f8111610e18575b50602091601f8411600114610db0578360019592946020948796610da19492610bee5750508160011b915f199060031b1c19161790565b85555b01920192019190610705565b9190601f198416868452828420935b818110610e005750936020936001969387969383889510610de8575b505050811b018555610da4565b01515f1960f88460031b161c191690555f8080610ddb565b92936020600181928786015181550195019301610dbf565b610e429086845260208420601f860160051c81019160208710610c9257601f0160051c01906126f1565b5f610d6a565b828c528360208d2091820191015b8c828210610e655750506106f7565b9080600192610e748254611cd7565b80610e83575b50505001610e56565b601f81118514610e9c575050508d81555b808e5f610e7a565b82825260208220610eb791601f0160051c81019086016126f1565b528d6020812081835555610e94565b8480fd5b610f1d6001600160a01b03610ee360043560640161255f565b16604051906323b872dd60e01b6020830152336024830152306044830152604435606483015260648252610f18608483611c9d565b613cb6565b808252600c602052604435604083205561055f565b63966753c560e01b8252600482fd5b63d8f59fa560e01b8152600490fd5b6282b42960e81b8152600490fd5b50346101a25760403660031901126101a2576020906040906001600160a01b03610f86611a0b565b168152600a8352818120602435825283522054604051908152f35b50346101a25760203660031901126101a257610fbb61281e565b610267600435612aa4565b50346101a25760203660031901126101a257610fe0611a0b565b610fe8613152565b6001600160a01b031680156102e35760048054604051634daa966160e11b8152929160209184919082906001600160a01b03165afa908115611075578391611038575b6110359250613740565b80f35b90506020823d60201161106d575b8161105360209383611c9d565b81010312610b675761106761103592611f51565b9061102b565b3d9150611046565b6040513d85823e3d90fd5b50346101a25760203660031901126101a25760406020916004358152600c83522054604051908152f35b50346101a25760203660031901126101a2576110c4611a0b565b6110cc613152565b6001600160a01b031680156102e357600280546001600160a01b0319811683179091556001600160a01b03167f02dc5c233404867c793b749c6d644beb2277536d18a7e7974d3f238e4c6f16848380a380f35b50346101a257806003193601126101a2576006546040516001600160a01b039091168152602090f35b50346101a25760203660031901126101a25760406111a391600435815260076020522061117481611e04565b9060ff600d8201541690600e810154906010600f8201549101549160405195869560a0875260a0870190611acf565b936111ad81611ab1565b60208601526040850152606084015260808301520390f35b50346101a25760203660031901126101a2576111df611a0b565b6111e7613152565b6001600160a01b031680156102e357600380546001600160a01b0319811683179091556001600160a01b03167f5ee1511014357e81e6a0e8a9bf9d80be6c56a0922d067518ddc6f7a2f6eb7bd68380a380f35b50346101a257806003193601126101a257546040516001600160a01b039091168152602090f35b50346101a257806003193601126101a2576003546040516001600160a01b039091168152602090f35b50346101a25760403660031901126101a2576112a4611a0b565b6001600160a01b03168152600960205260408120805460243592908310156101a25760206112d28484611bd7565b90549060031b1c604051908152f35b50346101a257806003193601126101a2576005546040516001600160a01b039091168152602090f35b50346101a25760403660031901126101a257611324611a0b565b61132c61281e565b6001600160a01b03168152600a602090815260408083206024358452909152812054801561135d576102679061347e565b63d36d896560e01b8252600482fd5b5034610ae0576020366003190112610ae05760043561138961281e565b805f52600760205260405f20600d810160ff8154166113a781611ab1565b80156115a45782546001600160a01b03163303611596576001906113ca81611ab1565b0361158757825f52600b60205260405f2054611578576113e982613250565b600360ff1982541617905560018060a01b036003541661146b602060018060a01b0360065416855f526008825260405f2054604051908784830152838252611432604083611c9d565b6040519261143f84611c4b565b835283830152604082015260405180938192635500079d60e01b83528460048401526024830190611fc2565b0381855afa90811561153b575f91611546575b50813b15610ae0575f916024839260405194859384926395bc267360e01b845260048401525af1801561153b57611526575b50818352600c6020526040832054806114f3575b505033907fa6eb7cdc219e1518ced964e9a34e61d68a94e4f1569db3e84256ba981ba527538380a36001805580f35b828452600c602052604084208490556003820154915461151f926001600160a01b039182169116613193565b5f806114c4565b6115339193505f90611c9d565b5f915f6114b0565b6040513d5f823e3d90fd5b90506020813d602011611570575b8161156160209383611c9d565b81010312610ae057515f61147e565b3d9150611554565b6313e916e560e01b5f5260045ffd5b632b12537f60e21b5f5260045ffd5b6282b42960e81b5f5260045ffd5b63d36d896560e01b5f5260045ffd5b34610ae0575f366003190112610ae0576115cb613152565b5f80546001600160a01b0319811682556001600160a01b03165f516020613e825f395f51905f528280a3005b34610ae0576020366003190112610ae0576004355f526007602052602061162060405f206131c8565b6040519015158152f35b34610ae0576020366003190112610ae0576001600160a01b0361164b611a0b565b165f52600960205260405f206040519081602082549182815201915f5260205f20905f5b81811061169e5761169a8561168681870382611c9d565b604051918291602083526020830190611ba4565b0390f35b825484526020909301926001928301920161166f565b34610ae0576060366003190112610ae0576116cd611a0b565b602435906001600160a01b0382168203610ae0576116ff916116ed613152565b604435916001600160a01b0316613193565b005b34610ae0576020366003190112610ae0575f608060405161172181611c00565b60405161172d81611c2f565b8381526060602082015283604082015283606082015283838201528360a08201528360c0820152606060e08201528361010082015283610120820152836101408201528361016082015283610180820152836101a0820152815282602082015282604082015282606082015201526004355f52600760205261181f60405f20604051906117b982611c00565b6117c281611e04565b825260ff600d820154169060208301916117db81611ab1565b8252600e81015490604084019182526010600f820154916060860192835201549160808501928352604051958695602087525160a0602088015260c0870190611acf565b935161182a81611ab1565b60408601525160608501525160808401525160a08301520390f35b34610ae0576020366003190112610ae0576004355f52600d602052602060405f2054604051908152f35b34610ae0575f366003190112610ae0576004546040516001600160a01b039091168152602090f35b34610ae0576020366003190112610ae0576004355f526008602052602060405f2054604051908152f35b34610ae0576020366003190112610ae0576118da611a0b565b6118e2613152565b6001600160a01b0316801561193457600580546001600160a01b0319811683179091556001600160a01b03167fbdce5776902fb6aa0ba780ce23fc8392c2014d41efaeaa287d6b06ef28fe5cb05f80a3005b63d92e233d60e01b5f5260045ffd5b34610ae0576040366003190112610ae05761195c611a0b565b61196461281e565b60018060a01b03165f52600a60205260405f206024355f5260205260405f205480156115a45761199390612aa4565b60018055005b34610ae0576040366003190112610ae0576024356001600160401b038111610ae05736602382011215610ae0576004810135906001600160401b038211610ae0573660248383010111610ae05760209160246119f89201600435611ff1565b6040516001600160e01b03199091168152f35b600435906001600160a01b0382168203610ae057565b35906001600160a01b0382168203610ae057565b805180835260209291819084018484015e5f828201840152601f01601f1916010190565b9080602083519182815201916020808360051b8301019401925f915b838310611a8457505050505090565b9091929394602080611aa2600193601f198682030187528951611a35565b97019301930191939290611a75565b60041115611abb57565b634e487b7160e01b5f52602160045260245ffd5b9060018060a01b0382511681526101a080611b52611afe60208601516101c060208701526101c0860190611a59565b6040860151604086015260018060a01b03606087015116606086015260018060a01b03608087015116608086015260a086015160a086015260c086015160c086015260e086015185820360e0870152611a59565b93610100810151611b6281611ab1565b61010085015261012081015161012085015261014081015161014085015261016081015161016085015261018081015115156101808501520151151591015290565b90602080835192838152019201905f5b818110611bc15750505090565b8251845260209384019390920191600101611bb4565b8054821015611bec575f5260205f2001905f90565b634e487b7160e01b5f52603260045260245ffd5b60a081019081106001600160401b03821117611c1b57604052565b634e487b7160e01b5f52604160045260245ffd5b6101c081019081106001600160401b03821117611c1b57604052565b606081019081106001600160401b03821117611c1b57604052565b61018081019081106001600160401b03821117611c1b57604052565b604081019081106001600160401b03821117611c1b57604052565b601f909101601f19168101906001600160401b03821190821017611c1b57604052565b6001600160401b038111611c1b5760051b60200190565b90600182811c92168015611d05575b6020831014611cf157565b634e487b7160e01b5f52602260045260245ffd5b91607f1691611ce6565b9060405191825f825492611d2284611cd7565b8084529360018116908115611d8d5750600114611d49575b50611d4792500383611c9d565b565b90505f9291925260205f20905f915b818310611d71575050906020611d47928201015f611d3a565b6020919350806001915483858901015201910190918492611d58565b905060209250611d4794915060ff191682840152151560051b8201015f611d3a565b908154611dbb81611cc0565b92611dc96040519485611c9d565b81845260208401905f5260205f205f915b838310611de75750505050565b600160208192611df685611d0f565b815201920192019190611dda565b90604051611e1181611c2f565b6101a060ff600c839560018060a01b038154168552611e3260018201611daf565b60208601526002810154604086015260038101546001600160a01b0390811660608701526004820154166080860152600581015460a0860152600681015460c0860152611e8160078201611daf565b60e086015282600882015416611e9681611ab1565b6101008601526009810154610120860152600a810154610140860152600b8101546101608601520154818116151561018085015260081c161515910152565b35908115158203610ae057565b6001600160401b038111611c1b57601f01601f191660200190565b929192611f0982611ee2565b91611f176040519384611c9d565b829481845281830111610ae0578281602093845f960137010152565b9080601f83011215610ae057816020611f4e93359101611efd565b90565b51906001600160a01b0382168203610ae057565b51908115158203610ae057565b929192611f7e82611ee2565b91611f8c6040519384611c9d565b829481845281830111610ae0578281602093845f96015e010152565b9080601f83011215610ae0578151611f4e92602001611f72565b9060606040611f4e9360018060a01b038151168452602081015160208501520151918160408201520190611a35565b90918201918083036101a08112610ae05761018013610ae0576040519261201784611c66565b61202082611a21565b845261202e60208301611a21565b936020810194855261204260408401611a21565b604082019081526060820160608501358152608083016080860135815260a086013563ffffffff81168103610ae05760a085015260c084019060c0870135825260e085019260e0880135845261010086019461010089013586526120a96101208a01611ed5565b9661012081019788526101408101986101408b01358a5261016082019a6101608101358c526101808101359060018060401b038211610ae05701606081830312610ae057604051906120fa82611c4b565b80356001600160401b038111610ae057810183601f82011215610ae05780359061212382611cc0565b916121316040519384611c9d565b80835260208084019160051b83010191868311610ae057602001905b82821061254f57505050825260208101356001600160401b038111610ae057810192606084820312610ae0576040519361218685611c4b565b80356001600160a01b0381168103610ae0578552602081810135908601526040810135906001600160401b038211610ae0576121c491839101611f33565b604085810191909152602084019485528201356001600160401b038111610ae0576121ef9201611f33565b604082810191825260048054915163f698da2560e01b8152929f9291602091839182906001600160a01b03165afa801561153b575f9061251b575b612235915085612707565b036125005760035491519c51905160405163137050cb60e11b8152306004820152608060248201529d6001600160a01b03909316928e9283929161227d906084850190611fc2565b83810360031901604485015261229291611a35565b8281036003190160648401526122a791611ba4565b03815a935f94fa5f9b81612403575b506122d457506001600160e01b03199b9a5050505050505050505050565b518a516001600160a01b039081169116149a8b6123e7575b508a6123cb575b50896123bc575b50886123ad575b508761239e575b508661238f575b508561237f575b508461236a575b508361235a575b5082612348575b505061233d576001600160e01b031990565b630b135d3f60e11b90565b61016091925051910151145f8061232b565b516101408301511492505f612324565b5161012084015115159015151493505f61231d565b516101008501511494505f612316565b5160e08601511495505f61230f565b5160c08701511496505f612308565b5160808801511497505f612301565b5160608901511498505f6122fa565b5160408a01516001600160a01b0390811691161499505f6122f3565b5160208b01516001600160a01b039081169116149a505f6122ec565b909b503d805f833e6124158183611c9d565b8101908082036101a08112610ae05761018013610ae0576040519161243983611c66565b61244282611f51565b835261245060208301611f51565b602084015261246160408301611f51565b6040840152606082015160608401526080820151608084015260a082015163ffffffff81168103610ae05760a084015260c082015160c084015260e082015160e08401526101008201516101008401526124be6101208301611f65565b610120840152610140828101519084015261016080830151908401526101808201516001600160401b038111610ae0576124f89201611fa8565b509a5f6122b6565b506001600160e01b03199d9c50505050505050505050505050565b506020813d602011612547575b8161253560209383611c9d565b81010312610ae057612235905161222a565b3d9150612528565b813581526020918201910161214d565b356001600160a01b0381168103610ae05790565b903590601e1981360301821215610ae057018035906001600160401b038211610ae057602001918160051b36038313610ae057565b9035601e1982360301811215610ae0570160208101919035906001600160401b038211610ae0578160051b36038313610ae057565b90602083828152019060208160051b85010193835f915b8383106126045750505050505090565b909192939495601f198282030186528635601e1984360301811215610ae0578301602081019190356001600160401b038111610ae0578036038313610ae0576020828280600196849695859652848401375f828201840152601f01601f191601019801960194930191906125f4565b9080601f83011215610ae057813561268a81611cc0565b926126986040519485611c9d565b81845260208085019260051b82010191838311610ae05760208201905b8382106126c457505050505090565b81356001600160401b038111610ae0576020916126e687848094880101611f33565b8152019101906126b5565b8181106126fc575050565b5f81556001016126f1565b7fd5a25ba2e97094ad7d83dc28a6572da797d6b3e7fc6663bd93efb789fc17e4899060018060a01b038151169060018060a01b036020820151169060018060a01b036040820151166060820151608083015163ffffffff60a08501511660c08501519060e086015192610100870151946101208801511515966101606101408a0151990151996040519b60208d019d8e5260408d015260608c015260808b015260a08a015260c089015260e08801526101008701526101208601526101408501526101608401526101808301526101a08201526101a081526127eb6101c082611c9d565b51902060405190602082019261190160f01b84526022830152604282015260428152612818606282611c9d565b51902090565b60026001541461282f576002600155565b633ee5aeb560e01b5f5260045ffd5b9190820180921161284b57565b634e487b7160e01b5f52601160045260245ffd5b602081830312610ae0578051906001600160401b038211610ae057019080601f83011215610ae05781519161289383611cc0565b926128a16040519485611c9d565b80845260208085019160051b83010191838311610ae05760208101915b8383106128cd57505050505090565b82516001600160401b038111610ae0578201906040828703601f190112610ae057604051906128fb82611c82565b60208301516001600160401b038111610ae05760209084010187601f82011215610ae0578781602061292f93519101611f72565b82526040830151916001600160401b038311610ae05761295788602080969581960101611fa8565b838201528152019201916128be565b9190820391821161284b57565b9061297d82611cc0565b61298a6040519182611c9d565b828152809261299b601f1991611cc0565b01905f5b8281106129ab57505050565b6020906040516129ba81611c82565b606081526060838201528282850101520161299f565b604051906129df604083611c9d565b60068252653937baba32b960d11b6020830152565b805115611bec5760200190565b805160011015611bec5760400190565b8051821015611bec5760209160051b010190565b602081016020825282518091526040820191602060408360051b8301019401925f915b838310612a5757505050505090565b9091929394602080612a95600193603f1986820301875289519083612a858351604084526040840190611a35565b9201519084818403910152611a35565b97019301930191939290612a48565b6005545f9291906001600160a01b0316330361314357805f52600760205260405f2091600d830191600160ff845416612adc81611ab1565b0361158757805f52600b60205260405f205492600f8501938454906001820180921161284b570361313457815f52600b6020525f6040812055612b35612b26855460078801613bd4565b6020808251830101910161285f565b93825f52600d60205260405f205490835f52600e60205260405f20549260038801986024602060018060a01b038c5416604051928380926370a0823160e01b82523060048301525afa90811561153b575f91613102575b50602460048b0195602060018060a01b03885416604051938480926370a0823160e01b82523060048301525afa91821561153b575f926130ce575b50885f52600d6020525f6040812055885f52600e6020525f6040812055828082115f146130c557612bf791612966565b965b808211156130bc57612c0a91612966565b945b600c8b015460081c60ff1615612fea5760058b01548781811015612fe157612c3391612966565b915b828015159182612fd6575b5050612fb4575b85612ebe575b508851906002820180921161284b57612c68612cb492612973565b9b546001600160a01b0316908c612ca4612c82848b613c83565b9160405192612c9084611c82565b612c986129d0565b845260208401526129f4565b52612cae8d6129f4565b50613c83565b60405190612cc182611c82565b612cc96129d0565b82526020820152612cd98b612a01565b52612ce38a612a01565b505f5b8851811015612d2757612cf9818a612a11565b5190600281019182821161284b5782612d2091612d198f95600196612a11565b528d612a11565b5001612ce6565b5092959890939650969093965b6002546001600160a01b0316803b15610ae05760405163f0dbeea560e01b8152915f918391829084908290612d6c9060048301612a25565b03925af1801561153b57612ea9575b50600e810193612d8c87865461283e565b855580545f198114612e9557928892837f2fe16d47ffa3738e1c53765ec8dcbe2adbce46d0899a775de9b539572cfd864f606060409a989560017f5b19a0b08bbd8e7537d63d9f1db0947c5eba6d93e02a7e0a1520ea5f29bd644c9d9b99018155838652600c6020528b862054612e83575b54998b51908b82526020820152898c820152a2612e1a816131c8565b612e31575b505050505082519182526020820152a2565b825460ff19166002179092555054915485519081526001600160a01b0392909216917fc05078bb1894dee4a12f4b4f2822aa8625022f271aee8bffc64c6621f84c4d9490602090a35f85818080612e1f565b838652600c602052858c812055612dfe565b634e487b7160e01b84526011600452602484fd5b612eb69192505f90611c9d565b5f905f612d7b565b5460025460405163095ea7b360e01b602082019081526001600160a01b03928316939192909116905f908190612f0a85612efc8d8960248401613178565b03601f198101875286611c9d565b84519082855af1612f19613db4565b81612f7d575b5080612f73575b15612f33575b5050612c4d565b610f18612f6b936040519063095ea7b360e01b602083015260248201525f604482015260448152612f65606482611c9d565b82613cb6565b5f8080612f2c565b50803b1515612f26565b8051801592508215612f92575b50505f612f1f565b8192509060209181010312610ae0576020612fad9101611f65565b5f80612f8a565b8b54600254612fd19184916001600160a01b039081169116613193565b612c47565b10159050825f612c40565b50505f91612c35565b9a50508361309a575b87516001810180911161284b5761300c61301d91612973565b9a546001600160a01b031685613c83565b6040519061302a82611c82565b6130326129d0565b825260208201526130428b6129f4565b5261304c8a6129f4565b505f5b885181101561308957613062818a612a11565b5190600181019182821161284b578261308291612d198f95600196612a11565b500161304f565b509295989093965096909396612d34565b89546002546130b79186916001600160a01b039081169116613193565b612ff3565b50505f94612c0c565b50505f96612bf9565b9091506020813d6020116130fa575b816130ea60209383611c9d565b81010312610ae05751905f612bc7565b3d91506130dd565b90506020813d60201161312c575b8161311d60209383611c9d565b81010312610ae057515f612b8c565b3d9150613110565b631feb8b7960e21b5f5260045ffd5b631cb3967f60e21b5f5260045ffd5b5f546001600160a01b0316330361316557565b63118cdaa760e01b5f523360045260245ffd5b6001600160a01b039091168152602081019190915260400190565b610f18611d4793926131ba60405194859263a9059cbb60e01b602085015260248401613178565b03601f198101845283611c9d565b60ff6008820154166131d981611ab1565b60028114613240576131ea81611ab1565b60018114613214576131fb81611ab1565b1561320557505f90565b6002600e820154910154111590565b506132286002820154600e83015490612966565b801591821561323657505090565b6005015411919050565b506009600f820154910154111590565b6132636002820154600e83015490612966565b801561347a576005820154808210156134725750905b61328c6010820154600f83015490613d29565b9160018060a01b036003830154169160018060a01b036004820154169160068201549060ff600c600b85015494015460081c165f1461344b577f6ed88e868af0a1983e3886d5f3e95a2fafbd6c3450bc229e27342283dc429ccc935b604051956132f587611c66565b865260208601523060408601526060850152608084015263ffffffff841660a084015260c08301525f60e08301526101008201525f6101208201525f516020613e625f395f51905f526101408201525f516020613e625f395f51905f5261016082015260018060a01b0360045416906040519063f698da2560e01b8252602082600481865afa90811561153b575f91613415575b6133939250612707565b916040519260208401523060601b604084015263ffffffff60e01b9060e01b166054830152603882526133c7605883611c9d565b803b15610ae0576040516254cdef60e61b815260206004820152915f9183918290849082906133fa906024830190611a35565b03925af1801561153b5761340b5750565b5f611d4791611c9d565b90506020823d602011613443575b8161343060209383611c9d565b81010312610ae057613393915190613389565b3d9150613423565b7ff3b277728b3fee749481eb3e0b3b48980dbbab78658fc419025cb16eee346775936132e8565b905090613279565b5050565b6005545f91906001600160a01b0316330361314357805f52600760205260405f2092600160ff600d860154166134b381611ab1565b0361158757815f52600b60205260405f205461373157600f84019182546001810180911161284b57815f52600b60205260405f20556134f9612b26845460018801613bd4565b9283516001810180911161284b5761351090612973565b9560058101549561352f600383019760018060a01b0389541690613c83565b6040519061353c82611c82565b6135446129d0565b82526020820152613554896129f4565b5261355e886129f4565b505f5b86518110156135a1576135748188612a11565b5190600181019182821161284b578261359a916135936001958e612a11565b528b612a11565b5001613561565b509295919450929560018060a01b0360025416803b15610ae05760405163f0dbeea560e01b8152915f9183918290849082906135e09060048301612a25565b03925af1801561153b5761371b575b50546040516370a0823160e01b815230600482015290602090829060249082906001600160a01b03165afa908115610b5c5782916136e8575b50602492602091868452600d83526040842055600460018060a01b0391015416604051938480926370a0823160e01b82523060048301525afa9182156136db578192613698575b5091602091604084865f516020613e425f395f51905f529652600e8552205554604051908152a2565b9150916020823d6020116136d3575b816136b460209383611c9d565b81010312610ae057905190915f516020613e425f395f51905f5261366f565b3d91506136a7565b50604051903d90823e3d90fd5b90506020813d602011613713575b8161370360209383611c9d565b81010312610ae057516024613628565b3d91506136f6565b6137289192505f90611c9d565b5f9060206135ef565b63e617d13160e01b5f5260045ffd5b60405190602082019263095ea7b360e01b845260018060a01b0316928360248401525f19604484015260448352613778606484611c9d565b82516001600160a01b038316915f91829182855af190613796613db4565b826137eb575b50816137e0575b50156137ae57505050565b610f18611d47936040519063095ea7b360e01b602083015260248201525f604482015260448152612f65606482611c9d565b90503b15155f6137a3565b80519192508115918215613803575b5050905f61379c565b8192509060209181010312610ae057602061381e9101611f65565b5f806137fa565b909291935f935b80851015613bcc578460051b830135601e1984360301811215610ae05783019283356001600160401b038111610ae05760208501908036038213610ae0578501946020808701929082880312610ae05735906001600160401b038211610ae0570181603f82011215610ae0576020810135956138a787611cc0565b966138b56040519889611c9d565b808852602080808a019260051b8501010192848411610ae05760408101915b848310613b2e575050505050505f5b8451811015613b215760206138f88287612a11565b51805160405161392684828180820195805191829101875e81015f838201520301601f198101835282611c9d565b51902060405183810190653937baba32b960d11b82526006815261394b602682611c9d565b51902003613a1e570151608081805181010312610ae057604051608081016001600160401b03811182821017611c1b576040526020820151815261399160408301611f51565b602082015260806139a460608401611f51565b926040830193845201516008811015610ae0578060606001930152145f14613a1757516001600160a01b039081169087168103613a125750875b6001600160a01b039081169089168082036139fd5750506001016138e3565b63041bc0b160e41b5f5260045260245260445ffd5b6139de565b50876139de565b01518051810190602081830312610ae0576020810151906001600160401b038211610ae05701808203601f19810192919060c013610ae0576040519160c083016001600160401b03811184821017611c1b576040526020820151600a811015610ae0578352613a8f60408301611f51565b6020840152613aa060608301611f51565b604084019081526080830151606085015260a0830151909490916001600160401b038311610ae0576020928380613adb930191860101611fa8565b6080850152607f190112610ae05760405191602083016001600160401b03811184821017611c1b5760405260c090910151825260a00152516001600160a01b03166139de565b509250936001019361382c565b82356001600160401b038111610ae05782016020810191906040908603601f190112610ae05760405190613b6182611c82565b60208301356001600160401b038111610ae05760209084010188601f82011215610ae05788816020613b9593359101611efd565b82526040830135916001600160401b038311610ae057613bbd89602080969581960101611f33565b838201528152019201916138d4565b509350505050565b9060608254908115613c18575080821015613bfe5750611f4e91613bf89190611bd7565b50611d0f565b5f1981019150811161284b57611f4e91613bf89190611bd7565b9250505060405190613c2b602083611c9d565b5f82525f90815b828110613c6057505050611f4e613c529160405192839160208301612a25565b03601f198101835282611c9d565b602090604051613c6f81611c82565b838152838382015282828701015201613c32565b9060405191602083015260018060a01b031660408201525f60608201526003608082015260808152611f4e60a082611c9d565b5f80613cde9260018060a01b03169360208151910182865af1613cd7613db4565b9083613de3565b8051908115159182613d06575b5050613cf45750565b635274afe760e01b5f5260045260245ffd5b8192509060209181010312610ae0576020613d219101611f65565b155f80613ceb565b90610708810290808204610708149015171561284b57613d49908261283e565b61070881019081811161284b576107070190811161284b5780421115613daf5750610708613d778242612966565b046001810180911161284b57610708810290808204610708149015171561284b57613da19161283e565b5f19810190811161284b5790565b905090565b3d15613dde573d90613dc582611ee2565b91613dd36040519384611c9d565b82523d5f602084013e565b606090565b90613e075750805115613df857805190602001fd5b630a12f52160e11b5f5260045ffd5b81511580613e38575b613e18575090565b639996b31560e01b5f9081526001600160a01b0391909116600452602490fd5b50803b15613e1056feed6ad11a587c194b3ad43896e949cb9a05975419926eda9b6b571d1847c9a7aa5a28e9363bb942b639270062aa6bb295f434bcdfc42c97267bf003f272060dc98be0079c531659141344cd1fd0a4f28419497f9722a3daafe3b4186f6b6457e0a2646970667358221220681b585d05f72602ea2aa836d9cfa3ddb3162af8bcffb7ef1efa95b5e59a9aa064736f6c634300081e0033",
  "devdoc": {
    "details": "Singleton contract that holds order context and executes hooks",
    "errors": {
      "AddressEmptyCode(address)": [
        {
          "details": "There's no code at `target` (it is not a contract)."
        }
      ],
      "AddressInsufficientBalance(address)": [
        {
          "details": "The ETH balance of the account is not enough to perform the operation."
        }
      ],
      "FailedInnerCall()": [
        {
          "details": "A call to an address target failed. The target may have reverted."
        }
      ],
      "OwnableInvalidOwner(address)": [
        {
          "details": "The owner is not a valid owner account. (eg. `address(0)`)"
        }
      ],
      "OwnableUnauthorizedAccount(address)": [
        {
          "details": "The caller account is not authorized to perform an operation."
        }
      ],
      "ReentrancyGuardReentrantCall()": [
        {
          "details": "Unauthorized reentrant call."
        }
      ],
      "SafeERC20FailedOperation(address)": [
        {
          "details": "An operation with an ERC20 token failed."
        }
      ]
    },
    "kind": "dev",
    "methods": {
      "cancelOrder(bytes32)": {
        "params": {
          "orderHash": "The order to cancel"
        }
      },
      "createOrder((address,bytes[],uint256,address,address,uint256,uint256,bytes[],uint8,uint256,uint256,bytes32,bool,bool),bytes32,uint256)": {
        "details": "User must approve this contract to pull seedAmount of sellToken before calling",
        "params": {
          "params": "The order parameters",
          "salt": "Unique salt for the order",
          "seedAmount": "Amount of sell tokens to pull from user for first chunk (0 to skip)"
        },
        "returns": {
          "orderHash": "The hash identifying this order"
        }
      },
      "executePostHook(bytes32)": {
        "details": "Prepends a ToOutput instruction with the actual received amount, so all      stored instructions can reference index 0 for the swap output",
        "params": {
          "orderHash": "The order being settled"
        }
      },
      "executePostHookBySalt(address,bytes32)": {
        "details": "Allows pre-computing appData before order creation",
        "params": {
          "salt": "The order salt (known before tx)",
          "user": "The order owner"
        }
      },
      "executePreHook(bytes32)": {
        "details": "Prepends a ToOutput instruction with chunkSize, so all stored instructions      can reference index 0 for the chunk amount. Chunk index is read from iterationCount.",
        "params": {
          "orderHash": "The order being settled"
        }
      },
      "executePreHookBySalt(address,bytes32)": {
        "details": "Allows pre-computing appData before order creation. Chunk index is determined      from the order's iterationCount, so the same appData works for all chunks.",
        "params": {
          "salt": "The order salt (known before tx)",
          "user": "The order owner"
        }
      },
      "isValidSignature(bytes32,bytes)": {
        "details": "For non-Safe ERC-1271 contracts, ComposableCoW returns signature as:      abi.encode(GPv2Order.Data, PayloadStruct)      We decode this and verify the order matches what the handler generates."
      },
      "owner()": {
        "details": "Returns the address of the current owner."
      },
      "renounceOwnership()": {
        "details": "Leaves the contract without owner. It will not be possible to call `onlyOwner` functions. Can only be called by the current owner. NOTE: Renouncing ownership will leave the contract without an owner, thereby disabling any functionality that is only available to the owner."
      },
      "transferOwnership(address)": {
        "details": "Transfers ownership of the contract to a new account (`newOwner`). Can only be called by the current owner."
      }
    },
    "stateVariables": {
      "ROUTER_PROTOCOL_HASH": {
        "details": "Constant hash for \"router\" protocol name comparison"
      },
      "preHookExecutedForIteration": {
        "details": "Stores (iterationCount + 1) when pre-hook executed, 0 means no pre-hook pending"
      },
      "preHookSellBalance": {
        "details": "Prevents leftover token accumulation from affecting subsequent orders"
      }
    },
    "title": "KapanOrderManager",
    "version": 1
  },
  "userdoc": {
    "kind": "user",
    "methods": {
      "approveVaultRelayer(address)": {
        "notice": "Approve vault relayer to spend a token"
      },
      "cancelOrder(bytes32)": {
        "notice": "Cancel an active order and refund any remaining seed tokens"
      },
      "composableCoW()": {
        "notice": "The ComposableCoW contract for order registration"
      },
      "createOrder((address,bytes[],uint256,address,address,uint256,uint256,bytes[],uint8,uint256,uint256,bytes32,bool,bool),bytes32,uint256)": {
        "notice": "Create a new CoW order with seed tokens for first chunk"
      },
      "executePostHook(bytes32)": {
        "notice": "Execute post-hook (called by HooksTrampoline during CoW settlement)"
      },
      "executePostHookBySalt(address,bytes32)": {
        "notice": "Execute post-hook using (user, salt) lookup"
      },
      "executePreHook(bytes32)": {
        "notice": "Execute pre-hook (called by HooksTrampoline during CoW settlement)"
      },
      "executePreHookBySalt(address,bytes32)": {
        "notice": "Execute pre-hook using (user, salt) lookup"
      },
      "getOrder(bytes32)": {
        "notice": "Get order context"
      },
      "getUserOrders(address)": {
        "notice": "Get user's orders"
      },
      "hooksTrampoline()": {
        "notice": "The HooksTrampoline contract (caller for hooks)"
      },
      "isOrderComplete(bytes32)": {
        "notice": "Check if an order is complete based on completion criteria"
      },
      "isValidSignature(bytes32,bytes)": {
        "notice": "Verify signature for CoW Protocol orders"
      },
      "orderHandler()": {
        "notice": "The KapanOrderHandler for generating orders"
      },
      "orderSalts(bytes32)": {
        "notice": "Salt used for each order (for ComposableCoW cancellation)"
      },
      "orderSeedBalance(bytes32)": {
        "notice": "Track seed tokens deposited per order for accurate refunds on cancel"
      },
      "orders(bytes32)": {
        "notice": "Order contexts by order hash"
      },
      "preHookExecutedForIteration(bytes32)": {
        "notice": "Track pre-hook execution per order to prevent re-execution"
      },
      "preHookSellBalance(bytes32)": {
        "notice": "Track token balances at end of pre-hook for delta calculation in post-hook"
      },
      "recoverTokens(address,address,uint256)": {
        "notice": "Recover stuck tokens (owner only)"
      },
      "router()": {
        "notice": "The KapanRouter for executing lending operations"
      },
      "settlement()": {
        "notice": "The GPv2Settlement contract"
      },
      "userOrders(address,uint256)": {
        "notice": "User's active orders"
      },
      "userSaltToOrderHash(address,bytes32)": {
        "notice": "Lookup order hash by (user, salt) - enables pre-computing appData"
      }
    },
    "notice": "Manages CoW Protocol orders for Kapan, acting as ERC-1271 signer",
    "version": 1
  },
  "storageLayout": {
    "storage": [
      {
        "astId": 1578,
        "contract": "contracts/v2/cow/KapanOrderManager.sol:KapanOrderManager",
        "label": "_owner",
        "offset": 0,
        "slot": "0",
        "type": "t_address"
      },
      {
        "astId": 3093,
        "contract": "contracts/v2/cow/KapanOrderManager.sol:KapanOrderManager",
        "label": "_status",
        "offset": 0,
        "slot": "1",
        "type": "t_uint256"
      },
      {
        "astId": 16887,
        "contract": "contracts/v2/cow/KapanOrderManager.sol:KapanOrderManager",
        "label": "router",
        "offset": 0,
        "slot": "2",
        "type": "t_contract(IKapanRouter)16768"
      },
      {
        "astId": 16891,
        "contract": "contracts/v2/cow/KapanOrderManager.sol:KapanOrderManager",
        "label": "composableCoW",
        "offset": 0,
        "slot": "3",
        "type": "t_contract(IComposableCoW)43776"
      },
      {
        "astId": 16895,
        "contract": "contracts/v2/cow/KapanOrderManager.sol:KapanOrderManager",
        "label": "settlement",
        "offset": 0,
        "slot": "4",
        "type": "t_contract(IGPv2Settlement)43937"
      },
      {
        "astId": 16898,
        "contract": "contracts/v2/cow/KapanOrderManager.sol:KapanOrderManager",
        "label": "hooksTrampoline",
        "offset": 0,
        "slot": "5",
        "type": "t_address"
      },
      {
        "astId": 16901,
        "contract": "contracts/v2/cow/KapanOrderManager.sol:KapanOrderManager",
        "label": "orderHandler",
        "offset": 0,
        "slot": "6",
        "type": "t_address"
      },
      {
        "astId": 16907,
        "contract": "contracts/v2/cow/KapanOrderManager.sol:KapanOrderManager",
        "label": "orders",
        "offset": 0,
        "slot": "7",
        "type": "t_mapping(t_bytes32,t_struct(OrderContext)16883_storage)"
      },
      {
        "astId": 16912,
        "contract": "contracts/v2/cow/KapanOrderManager.sol:KapanOrderManager",
        "label": "orderSalts",
        "offset": 0,
        "slot": "8",
        "type": "t_mapping(t_bytes32,t_bytes32)"
      },
      {
        "astId": 16918,
        "contract": "contracts/v2/cow/KapanOrderManager.sol:KapanOrderManager",
        "label": "userOrders",
        "offset": 0,
        "slot": "9",
        "type": "t_mapping(t_address,t_array(t_bytes32)dyn_storage)"
      },
      {
        "astId": 16925,
        "contract": "contracts/v2/cow/KapanOrderManager.sol:KapanOrderManager",
        "label": "userSaltToOrderHash",
        "offset": 0,
        "slot": "10",
        "type": "t_mapping(t_address,t_mapping(t_bytes32,t_bytes32))"
      },
      {
        "astId": 16930,
        "contract": "contracts/v2/cow/KapanOrderManager.sol:KapanOrderManager",
        "label": "preHookExecutedForIteration",
        "offset": 0,
        "slot": "11",
        "type": "t_mapping(t_bytes32,t_uint256)"
      },
      {
        "astId": 16935,
        "contract": "contracts/v2/cow/KapanOrderManager.sol:KapanOrderManager",
        "label": "orderSeedBalance",
        "offset": 0,
        "slot": "12",
        "type": "t_mapping(t_bytes32,t_uint256)"
      },
      {
        "astId": 16940,
        "contract": "contracts/v2/cow/KapanOrderManager.sol:KapanOrderManager",
        "label": "preHookSellBalance",
        "offset": 0,
        "slot": "13",
        "type": "t_mapping(t_bytes32,t_uint256)"
      },
      {
        "astId": 16944,
        "contract": "contracts/v2/cow/KapanOrderManager.sol:KapanOrderManager",
        "label": "preHookBuyBalance",
        "offset": 0,
        "slot": "14",
        "type": "t_mapping(t_bytes32,t_uint256)"
      }
    ],
    "types": {
      "t_address": {
        "encoding": "inplace",
        "label": "address",
        "numberOfBytes": "20"
      },
      "t_array(t_bytes32)dyn_storage": {
        "base": "t_bytes32",
        "encoding": "dynamic_array",
        "label": "bytes32[]",
        "numberOfBytes": "32"
      },
      "t_array(t_bytes_storage)dyn_storage": {
        "base": "t_bytes_storage",
        "encoding": "dynamic_array",
        "label": "bytes[]",
        "numberOfBytes": "32"
      },
      "t_bool": {
        "encoding": "inplace",
        "label": "bool",
        "numberOfBytes": "1"
      },
      "t_bytes32": {
        "encoding": "inplace",
        "label": "bytes32",
        "numberOfBytes": "32"
      },
      "t_bytes_storage": {
        "encoding": "bytes",
        "label": "bytes",
        "numberOfBytes": "32"
      },
      "t_contract(IComposableCoW)43776": {
        "encoding": "inplace",
        "label": "contract IComposableCoW",
        "numberOfBytes": "20"
      },
      "t_contract(IGPv2Settlement)43937": {
        "encoding": "inplace",
        "label": "contract IGPv2Settlement",
        "numberOfBytes": "20"
      },
      "t_contract(IKapanRouter)16768": {
        "encoding": "inplace",
        "label": "contract IKapanRouter",
        "numberOfBytes": "20"
      },
      "t_enum(CompletionType)16812": {
        "encoding": "inplace",
        "label": "enum KapanOrderManager.CompletionType",
        "numberOfBytes": "1"
      },
      "t_enum(OrderStatus)16817": {
        "encoding": "inplace",
        "label": "enum KapanOrderManager.OrderStatus",
        "numberOfBytes": "1"
      },
      "t_mapping(t_address,t_array(t_bytes32)dyn_storage)": {
        "encoding": "mapping",
        "key": "t_address",
        "label": "mapping(address => bytes32[])",
        "numberOfBytes": "32",
        "value": "t_array(t_bytes32)dyn_storage"
      },
      "t_mapping(t_address,t_mapping(t_bytes32,t_bytes32))": {
        "encoding": "mapping",
        "key": "t_address",
        "label": "mapping(address => mapping(bytes32 => bytes32))",
        "numberOfBytes": "32",
        "value": "t_mapping(t_bytes32,t_bytes32)"
      },
      "t_mapping(t_bytes32,t_bytes32)": {
        "encoding": "mapping",
        "key": "t_bytes32",
        "label": "mapping(bytes32 => bytes32)",
        "numberOfBytes": "32",
        "value": "t_bytes32"
      },
      "t_mapping(t_bytes32,t_struct(OrderContext)16883_storage)": {
        "encoding": "mapping",
        "key": "t_bytes32",
        "label": "mapping(bytes32 => struct KapanOrderManager.OrderContext)",
        "numberOfBytes": "32",
        "value": "t_struct(OrderContext)16883_storage"
      },
      "t_mapping(t_bytes32,t_uint256)": {
        "encoding": "mapping",
        "key": "t_bytes32",
        "label": "mapping(bytes32 => uint256)",
        "numberOfBytes": "32",
        "value": "t_uint256"
      },
      "t_struct(KapanOrderParams)16869_storage": {
        "encoding": "inplace",
        "label": "struct KapanOrderManager.KapanOrderParams",
        "members": [
          {
            "astId": 16839,
            "contract": "contracts/v2/cow/KapanOrderManager.sol:KapanOrderManager",
            "label": "user",
            "offset": 0,
            "slot": "0",
            "type": "t_address"
          },
          {
            "astId": 16842,
            "contract": "contracts/v2/cow/KapanOrderManager.sol:KapanOrderManager",
            "label": "preInstructionsPerIteration",
            "offset": 0,
            "slot": "1",
            "type": "t_array(t_bytes_storage)dyn_storage"
          },
          {
            "astId": 16844,
            "contract": "contracts/v2/cow/KapanOrderManager.sol:KapanOrderManager",
            "label": "preTotalAmount",
            "offset": 0,
            "slot": "2",
            "type": "t_uint256"
          },
          {
            "astId": 16846,
            "contract": "contracts/v2/cow/KapanOrderManager.sol:KapanOrderManager",
            "label": "sellToken",
            "offset": 0,
            "slot": "3",
            "type": "t_address"
          },
          {
            "astId": 16848,
            "contract": "contracts/v2/cow/KapanOrderManager.sol:KapanOrderManager",
            "label": "buyToken",
            "offset": 0,
            "slot": "4",
            "type": "t_address"
          },
          {
            "astId": 16850,
            "contract": "contracts/v2/cow/KapanOrderManager.sol:KapanOrderManager",
            "label": "chunkSize",
            "offset": 0,
            "slot": "5",
            "type": "t_uint256"
          },
          {
            "astId": 16852,
            "contract": "contracts/v2/cow/KapanOrderManager.sol:KapanOrderManager",
            "label": "minBuyPerChunk",
            "offset": 0,
            "slot": "6",
            "type": "t_uint256"
          },
          {
            "astId": 16855,
            "contract": "contracts/v2/cow/KapanOrderManager.sol:KapanOrderManager",
            "label": "postInstructionsPerIteration",
            "offset": 0,
            "slot": "7",
            "type": "t_array(t_bytes_storage)dyn_storage"
          },
          {
            "astId": 16858,
            "contract": "contracts/v2/cow/KapanOrderManager.sol:KapanOrderManager",
            "label": "completion",
            "offset": 0,
            "slot": "8",
            "type": "t_enum(CompletionType)16812"
          },
          {
            "astId": 16860,
            "contract": "contracts/v2/cow/KapanOrderManager.sol:KapanOrderManager",
            "label": "targetValue",
            "offset": 0,
            "slot": "9",
            "type": "t_uint256"
          },
          {
            "astId": 16862,
            "contract": "contracts/v2/cow/KapanOrderManager.sol:KapanOrderManager",
            "label": "minHealthFactor",
            "offset": 0,
            "slot": "10",
            "type": "t_uint256"
          },
          {
            "astId": 16864,
            "contract": "contracts/v2/cow/KapanOrderManager.sol:KapanOrderManager",
            "label": "appDataHash",
            "offset": 0,
            "slot": "11",
            "type": "t_bytes32"
          },
          {
            "astId": 16866,
            "contract": "contracts/v2/cow/KapanOrderManager.sol:KapanOrderManager",
            "label": "isFlashLoanOrder",
            "offset": 0,
            "slot": "12",
            "type": "t_bool"
          },
          {
            "astId": 16868,
            "contract": "contracts/v2/cow/KapanOrderManager.sol:KapanOrderManager",
            "label": "isKindBuy",
            "offset": 1,
            "slot": "12",
            "type": "t_bool"
          }
        ],
        "numberOfBytes": "416"
      },
      "t_struct(OrderContext)16883_storage": {
        "encoding": "inplace",
        "label": "struct KapanOrderManager.OrderContext",
        "members": [
          {
            "astId": 16873,
            "contract": "contracts/v2/cow/KapanOrderManager.sol:KapanOrderManager",
            "label": "params",
            "offset": 0,
            "slot": "0",
            "type": "t_struct(KapanOrderParams)16869_storage"
          },
          {
            "astId": 16876,
            "contract": "contracts/v2/cow/KapanOrderManager.sol:KapanOrderManager",
            "label": "status",
            "offset": 0,
            "slot": "13",
            "type": "t_enum(OrderStatus)16817"
          },
          {
            "astId": 16878,
            "contract": "contracts/v2/cow/KapanOrderManager.sol:KapanOrderManager",
            "label": "executedAmount",
            "offset": 0,
            "slot": "14",
            "type": "t_uint256"
          },
          {
            "astId": 16880,
            "contract": "contracts/v2/cow/KapanOrderManager.sol:KapanOrderManager",
            "label": "iterationCount",
            "offset": 0,
            "slot": "15",
            "type": "t_uint256"
          },
          {
            "astId": 16882,
            "contract": "contracts/v2/cow/KapanOrderManager.sol:KapanOrderManager",
            "label": "createdAt",
            "offset": 0,
            "slot": "16",
            "type": "t_uint256"
          }
        ],
        "numberOfBytes": "544"
      },
      "t_uint256": {
        "encoding": "inplace",
        "label": "uint256",
        "numberOfBytes": "32"
      }
    }
  }
}