{
  "address": "0xA1AA1B2985031826750B2d6409AFC38f3B5b22AE",
  "abi": [
    {
      "inputs": [
        {
          "internalType": "address",
          "name": "_owner",
          "type": "address"
        },
        {
          "internalType": "address",
          "name": "_router",
          "type": "address"
        },
        {
          "internalType": "address",
          "name": "_composableCoW",
          "type": "address"
        },
        {
          "internalType": "address",
          "name": "_settlement",
          "type": "address"
        },
        {
          "internalType": "address",
          "name": "_hooksTrampoline",
          "type": "address"
        }
      ],
      "stateMutability": "nonpayable",
      "type": "constructor"
    },
    {
      "inputs": [
        {
          "internalType": "address",
          "name": "target",
          "type": "address"
        }
      ],
      "name": "AddressEmptyCode",
      "type": "error"
    },
    {
      "inputs": [
        {
          "internalType": "address",
          "name": "account",
          "type": "address"
        }
      ],
      "name": "AddressInsufficientBalance",
      "type": "error"
    },
    {
      "inputs": [],
      "name": "CannotCancelMidExecution",
      "type": "error"
    },
    {
      "inputs": [],
      "name": "FailedInnerCall",
      "type": "error"
    },
    {
      "inputs": [
        {
          "internalType": "address",
          "name": "expected",
          "type": "address"
        },
        {
          "internalType": "address",
          "name": "actual",
          "type": "address"
        }
      ],
      "name": "InstructionUserMismatch",
      "type": "error"
    },
    {
      "inputs": [],
      "name": "InvalidChunkWindow",
      "type": "error"
    },
    {
      "inputs": [],
      "name": "InvalidOrderState",
      "type": "error"
    },
    {
      "inputs": [],
      "name": "InvalidTokens",
      "type": "error"
    },
    {
      "inputs": [],
      "name": "InvalidTrigger",
      "type": "error"
    },
    {
      "inputs": [],
      "name": "MaxOrdersExceeded",
      "type": "error"
    },
    {
      "inputs": [],
      "name": "NoTokensReceived",
      "type": "error"
    },
    {
      "inputs": [],
      "name": "NotHooksTrampoline",
      "type": "error"
    },
    {
      "inputs": [],
      "name": "OrderAlreadyExists",
      "type": "error"
    },
    {
      "inputs": [],
      "name": "OrderNotFound",
      "type": "error"
    },
    {
      "inputs": [
        {
          "internalType": "address",
          "name": "owner",
          "type": "address"
        }
      ],
      "name": "OwnableInvalidOwner",
      "type": "error"
    },
    {
      "inputs": [
        {
          "internalType": "address",
          "name": "account",
          "type": "address"
        }
      ],
      "name": "OwnableUnauthorizedAccount",
      "type": "error"
    },
    {
      "inputs": [],
      "name": "PreHookAlreadyExecuted",
      "type": "error"
    },
    {
      "inputs": [],
      "name": "PreHookNotExecuted",
      "type": "error"
    },
    {
      "inputs": [],
      "name": "ReentrancyGuardReentrantCall",
      "type": "error"
    },
    {
      "inputs": [
        {
          "internalType": "address",
          "name": "token",
          "type": "address"
        }
      ],
      "name": "SafeERC20FailedOperation",
      "type": "error"
    },
    {
      "inputs": [],
      "name": "SaltAlreadyUsed",
      "type": "error"
    },
    {
      "inputs": [],
      "name": "TriggerNotMet",
      "type": "error"
    },
    {
      "inputs": [],
      "name": "Unauthorized",
      "type": "error"
    },
    {
      "inputs": [],
      "name": "ValidToOverflow",
      "type": "error"
    },
    {
      "inputs": [],
      "name": "ZeroAddress",
      "type": "error"
    },
    {
      "anonymous": false,
      "inputs": [
        {
          "indexed": false,
          "internalType": "uint256",
          "name": "oldWindow",
          "type": "uint256"
        },
        {
          "indexed": false,
          "internalType": "uint256",
          "name": "newWindow",
          "type": "uint256"
        }
      ],
      "name": "ChunkWindowUpdated",
      "type": "event"
    },
    {
      "anonymous": false,
      "inputs": [
        {
          "indexed": true,
          "internalType": "bytes32",
          "name": "orderHash",
          "type": "bytes32"
        },
        {
          "indexed": true,
          "internalType": "address",
          "name": "user",
          "type": "address"
        }
      ],
      "name": "ConditionalOrderCancelled",
      "type": "event"
    },
    {
      "anonymous": false,
      "inputs": [
        {
          "indexed": true,
          "internalType": "bytes32",
          "name": "orderHash",
          "type": "bytes32"
        },
        {
          "indexed": true,
          "internalType": "address",
          "name": "user",
          "type": "address"
        },
        {
          "indexed": false,
          "internalType": "uint256",
          "name": "iterations",
          "type": "uint256"
        }
      ],
      "name": "ConditionalOrderCompleted",
      "type": "event"
    },
    {
      "anonymous": false,
      "inputs": [
        {
          "indexed": true,
          "internalType": "bytes32",
          "name": "orderHash",
          "type": "bytes32"
        },
        {
          "indexed": true,
          "internalType": "address",
          "name": "user",
          "type": "address"
        },
        {
          "indexed": false,
          "internalType": "address",
          "name": "trigger",
          "type": "address"
        },
        {
          "indexed": false,
          "internalType": "address",
          "name": "sellToken",
          "type": "address"
        },
        {
          "indexed": false,
          "internalType": "address",
          "name": "buyToken",
          "type": "address"
        }
      ],
      "name": "ConditionalOrderCreated",
      "type": "event"
    },
    {
      "anonymous": false,
      "inputs": [
        {
          "indexed": true,
          "internalType": "address",
          "name": "oldHandler",
          "type": "address"
        },
        {
          "indexed": true,
          "internalType": "address",
          "name": "newHandler",
          "type": "address"
        }
      ],
      "name": "OrderHandlerUpdated",
      "type": "event"
    },
    {
      "anonymous": false,
      "inputs": [
        {
          "indexed": true,
          "internalType": "address",
          "name": "previousOwner",
          "type": "address"
        },
        {
          "indexed": true,
          "internalType": "address",
          "name": "newOwner",
          "type": "address"
        }
      ],
      "name": "OwnershipTransferred",
      "type": "event"
    },
    {
      "anonymous": false,
      "inputs": [
        {
          "indexed": true,
          "internalType": "bytes32",
          "name": "orderHash",
          "type": "bytes32"
        },
        {
          "indexed": false,
          "internalType": "uint256",
          "name": "iteration",
          "type": "uint256"
        },
        {
          "indexed": false,
          "internalType": "uint256",
          "name": "receivedAmount",
          "type": "uint256"
        }
      ],
      "name": "PostHookExecuted",
      "type": "event"
    },
    {
      "anonymous": false,
      "inputs": [
        {
          "indexed": true,
          "internalType": "bytes32",
          "name": "orderHash",
          "type": "bytes32"
        },
        {
          "indexed": false,
          "internalType": "uint256",
          "name": "iteration",
          "type": "uint256"
        }
      ],
      "name": "PreHookExecuted",
      "type": "event"
    },
    {
      "anonymous": false,
      "inputs": [
        {
          "indexed": true,
          "internalType": "bytes32",
          "name": "orderHash",
          "type": "bytes32"
        },
        {
          "indexed": true,
          "internalType": "address",
          "name": "user",
          "type": "address"
        }
      ],
      "name": "StuckOrderReset",
      "type": "event"
    },
    {
      "anonymous": false,
      "inputs": [
        {
          "indexed": true,
          "internalType": "address",
          "name": "token",
          "type": "address"
        },
        {
          "indexed": true,
          "internalType": "address",
          "name": "to",
          "type": "address"
        },
        {
          "indexed": false,
          "internalType": "uint256",
          "name": "amount",
          "type": "uint256"
        }
      ],
      "name": "TokensRecovered",
      "type": "event"
    },
    {
      "anonymous": false,
      "inputs": [
        {
          "indexed": true,
          "internalType": "bytes32",
          "name": "orderHash",
          "type": "bytes32"
        },
        {
          "indexed": false,
          "internalType": "uint256",
          "name": "iteration",
          "type": "uint256"
        },
        {
          "indexed": false,
          "internalType": "uint256",
          "name": "sellAmount",
          "type": "uint256"
        },
        {
          "indexed": false,
          "internalType": "uint256",
          "name": "buyAmount",
          "type": "uint256"
        }
      ],
      "name": "TriggerExecuted",
      "type": "event"
    },
    {
      "anonymous": false,
      "inputs": [
        {
          "indexed": true,
          "internalType": "address",
          "name": "token",
          "type": "address"
        },
        {
          "indexed": true,
          "internalType": "address",
          "name": "vaultRelayer",
          "type": "address"
        }
      ],
      "name": "VaultRelayerApproved",
      "type": "event"
    },
    {
      "inputs": [],
      "name": "DEFAULT_CHUNK_WINDOW",
      "outputs": [
        {
          "internalType": "uint256",
          "name": "",
          "type": "uint256"
        }
      ],
      "stateMutability": "view",
      "type": "function"
    },
    {
      "inputs": [],
      "name": "MAX_CHUNK_WINDOW",
      "outputs": [
        {
          "internalType": "uint256",
          "name": "",
          "type": "uint256"
        }
      ],
      "stateMutability": "view",
      "type": "function"
    },
    {
      "inputs": [],
      "name": "MAX_ORDERS_PER_USER",
      "outputs": [
        {
          "internalType": "uint256",
          "name": "",
          "type": "uint256"
        }
      ],
      "stateMutability": "view",
      "type": "function"
    },
    {
      "inputs": [],
      "name": "MIN_CHUNK_WINDOW",
      "outputs": [
        {
          "internalType": "uint256",
          "name": "",
          "type": "uint256"
        }
      ],
      "stateMutability": "view",
      "type": "function"
    },
    {
      "inputs": [
        {
          "internalType": "address",
          "name": "token",
          "type": "address"
        }
      ],
      "name": "approveVaultRelayer",
      "outputs": [],
      "stateMutability": "nonpayable",
      "type": "function"
    },
    {
      "inputs": [
        {
          "internalType": "bytes32",
          "name": "orderHash",
          "type": "bytes32"
        }
      ],
      "name": "cancelOrder",
      "outputs": [],
      "stateMutability": "nonpayable",
      "type": "function"
    },
    {
      "inputs": [],
      "name": "chunkWindow",
      "outputs": [
        {
          "internalType": "uint256",
          "name": "",
          "type": "uint256"
        }
      ],
      "stateMutability": "view",
      "type": "function"
    },
    {
      "inputs": [],
      "name": "composableCoW",
      "outputs": [
        {
          "internalType": "contract IComposableCoW",
          "name": "",
          "type": "address"
        }
      ],
      "stateMutability": "view",
      "type": "function"
    },
    {
      "inputs": [
        {
          "components": [
            {
              "internalType": "address",
              "name": "user",
              "type": "address"
            },
            {
              "internalType": "address",
              "name": "trigger",
              "type": "address"
            },
            {
              "internalType": "bytes",
              "name": "triggerStaticData",
              "type": "bytes"
            },
            {
              "internalType": "bytes",
              "name": "preInstructions",
              "type": "bytes"
            },
            {
              "internalType": "address",
              "name": "sellToken",
              "type": "address"
            },
            {
              "internalType": "address",
              "name": "buyToken",
              "type": "address"
            },
            {
              "internalType": "bytes",
              "name": "postInstructions",
              "type": "bytes"
            },
            {
              "internalType": "bytes32",
              "name": "appDataHash",
              "type": "bytes32"
            },
            {
              "internalType": "uint256",
              "name": "maxIterations",
              "type": "uint256"
            },
            {
              "internalType": "address",
              "name": "sellTokenRefundAddress",
              "type": "address"
            },
            {
              "internalType": "bool",
              "name": "isKindBuy",
              "type": "bool"
            }
          ],
          "internalType": "struct KapanConditionalOrderManager.KapanOrderParams",
          "name": "params",
          "type": "tuple"
        },
        {
          "internalType": "bytes32",
          "name": "salt",
          "type": "bytes32"
        }
      ],
      "name": "createOrder",
      "outputs": [
        {
          "internalType": "bytes32",
          "name": "orderHash",
          "type": "bytes32"
        }
      ],
      "stateMutability": "nonpayable",
      "type": "function"
    },
    {
      "inputs": [
        {
          "internalType": "bytes32",
          "name": "orderHash",
          "type": "bytes32"
        }
      ],
      "name": "executePostHook",
      "outputs": [],
      "stateMutability": "nonpayable",
      "type": "function"
    },
    {
      "inputs": [
        {
          "internalType": "address",
          "name": "user",
          "type": "address"
        },
        {
          "internalType": "bytes32",
          "name": "salt",
          "type": "bytes32"
        }
      ],
      "name": "executePostHookBySalt",
      "outputs": [],
      "stateMutability": "nonpayable",
      "type": "function"
    },
    {
      "inputs": [
        {
          "internalType": "bytes32",
          "name": "orderHash",
          "type": "bytes32"
        }
      ],
      "name": "executePreHook",
      "outputs": [],
      "stateMutability": "nonpayable",
      "type": "function"
    },
    {
      "inputs": [
        {
          "internalType": "address",
          "name": "user",
          "type": "address"
        },
        {
          "internalType": "bytes32",
          "name": "salt",
          "type": "bytes32"
        }
      ],
      "name": "executePreHookBySalt",
      "outputs": [],
      "stateMutability": "nonpayable",
      "type": "function"
    },
    {
      "inputs": [
        {
          "internalType": "bytes32",
          "name": "orderHash",
          "type": "bytes32"
        }
      ],
      "name": "getExecutionAmounts",
      "outputs": [
        {
          "internalType": "uint256",
          "name": "sellAmount",
          "type": "uint256"
        },
        {
          "internalType": "uint256",
          "name": "minBuyAmount",
          "type": "uint256"
        }
      ],
      "stateMutability": "view",
      "type": "function"
    },
    {
      "inputs": [
        {
          "internalType": "bytes32",
          "name": "orderHash",
          "type": "bytes32"
        }
      ],
      "name": "getOrder",
      "outputs": [
        {
          "components": [
            {
              "components": [
                {
                  "internalType": "address",
                  "name": "user",
                  "type": "address"
                },
                {
                  "internalType": "address",
                  "name": "trigger",
                  "type": "address"
                },
                {
                  "internalType": "bytes",
                  "name": "triggerStaticData",
                  "type": "bytes"
                },
                {
                  "internalType": "bytes",
                  "name": "preInstructions",
                  "type": "bytes"
                },
                {
                  "internalType": "address",
                  "name": "sellToken",
                  "type": "address"
                },
                {
                  "internalType": "address",
                  "name": "buyToken",
                  "type": "address"
                },
                {
                  "internalType": "bytes",
                  "name": "postInstructions",
                  "type": "bytes"
                },
                {
                  "internalType": "bytes32",
                  "name": "appDataHash",
                  "type": "bytes32"
                },
                {
                  "internalType": "uint256",
                  "name": "maxIterations",
                  "type": "uint256"
                },
                {
                  "internalType": "address",
                  "name": "sellTokenRefundAddress",
                  "type": "address"
                },
                {
                  "internalType": "bool",
                  "name": "isKindBuy",
                  "type": "bool"
                }
              ],
              "internalType": "struct KapanConditionalOrderManager.KapanOrderParams",
              "name": "params",
              "type": "tuple"
            },
            {
              "internalType": "enum KapanConditionalOrderManager.OrderStatus",
              "name": "status",
              "type": "uint8"
            },
            {
              "internalType": "uint256",
              "name": "iterationCount",
              "type": "uint256"
            },
            {
              "internalType": "uint256",
              "name": "createdAt",
              "type": "uint256"
            }
          ],
          "internalType": "struct KapanConditionalOrderManager.OrderContext",
          "name": "",
          "type": "tuple"
        }
      ],
      "stateMutability": "view",
      "type": "function"
    },
    {
      "inputs": [
        {
          "internalType": "address",
          "name": "user",
          "type": "address"
        }
      ],
      "name": "getUserOrders",
      "outputs": [
        {
          "internalType": "bytes32[]",
          "name": "",
          "type": "bytes32[]"
        }
      ],
      "stateMutability": "view",
      "type": "function"
    },
    {
      "inputs": [],
      "name": "hooksTrampoline",
      "outputs": [
        {
          "internalType": "address",
          "name": "",
          "type": "address"
        }
      ],
      "stateMutability": "view",
      "type": "function"
    },
    {
      "inputs": [
        {
          "internalType": "bytes32",
          "name": "orderHash",
          "type": "bytes32"
        }
      ],
      "name": "isTriggerMet",
      "outputs": [
        {
          "internalType": "bool",
          "name": "shouldExecute",
          "type": "bool"
        },
        {
          "internalType": "string",
          "name": "reason",
          "type": "string"
        }
      ],
      "stateMutability": "view",
      "type": "function"
    },
    {
      "inputs": [
        {
          "internalType": "bytes32",
          "name": "_hash",
          "type": "bytes32"
        },
        {
          "internalType": "bytes",
          "name": "_signature",
          "type": "bytes"
        }
      ],
      "name": "isValidSignature",
      "outputs": [
        {
          "internalType": "bytes4",
          "name": "",
          "type": "bytes4"
        }
      ],
      "stateMutability": "view",
      "type": "function"
    },
    {
      "inputs": [],
      "name": "orderHandler",
      "outputs": [
        {
          "internalType": "address",
          "name": "",
          "type": "address"
        }
      ],
      "stateMutability": "view",
      "type": "function"
    },
    {
      "inputs": [
        {
          "internalType": "bytes32",
          "name": "",
          "type": "bytes32"
        }
      ],
      "name": "orderSalts",
      "outputs": [
        {
          "internalType": "bytes32",
          "name": "",
          "type": "bytes32"
        }
      ],
      "stateMutability": "view",
      "type": "function"
    },
    {
      "inputs": [
        {
          "internalType": "bytes32",
          "name": "",
          "type": "bytes32"
        }
      ],
      "name": "orders",
      "outputs": [
        {
          "components": [
            {
              "internalType": "address",
              "name": "user",
              "type": "address"
            },
            {
              "internalType": "address",
              "name": "trigger",
              "type": "address"
            },
            {
              "internalType": "bytes",
              "name": "triggerStaticData",
              "type": "bytes"
            },
            {
              "internalType": "bytes",
              "name": "preInstructions",
              "type": "bytes"
            },
            {
              "internalType": "address",
              "name": "sellToken",
              "type": "address"
            },
            {
              "internalType": "address",
              "name": "buyToken",
              "type": "address"
            },
            {
              "internalType": "bytes",
              "name": "postInstructions",
              "type": "bytes"
            },
            {
              "internalType": "bytes32",
              "name": "appDataHash",
              "type": "bytes32"
            },
            {
              "internalType": "uint256",
              "name": "maxIterations",
              "type": "uint256"
            },
            {
              "internalType": "address",
              "name": "sellTokenRefundAddress",
              "type": "address"
            },
            {
              "internalType": "bool",
              "name": "isKindBuy",
              "type": "bool"
            }
          ],
          "internalType": "struct KapanConditionalOrderManager.KapanOrderParams",
          "name": "params",
          "type": "tuple"
        },
        {
          "internalType": "enum KapanConditionalOrderManager.OrderStatus",
          "name": "status",
          "type": "uint8"
        },
        {
          "internalType": "uint256",
          "name": "iterationCount",
          "type": "uint256"
        },
        {
          "internalType": "uint256",
          "name": "createdAt",
          "type": "uint256"
        }
      ],
      "stateMutability": "view",
      "type": "function"
    },
    {
      "inputs": [],
      "name": "owner",
      "outputs": [
        {
          "internalType": "address",
          "name": "",
          "type": "address"
        }
      ],
      "stateMutability": "view",
      "type": "function"
    },
    {
      "inputs": [
        {
          "internalType": "bytes32",
          "name": "",
          "type": "bytes32"
        }
      ],
      "name": "preHookBuyBalance",
      "outputs": [
        {
          "internalType": "uint256",
          "name": "",
          "type": "uint256"
        }
      ],
      "stateMutability": "view",
      "type": "function"
    },
    {
      "inputs": [
        {
          "internalType": "bytes32",
          "name": "",
          "type": "bytes32"
        }
      ],
      "name": "preHookExecutedForIteration",
      "outputs": [
        {
          "internalType": "uint256",
          "name": "",
          "type": "uint256"
        }
      ],
      "stateMutability": "view",
      "type": "function"
    },
    {
      "inputs": [
        {
          "internalType": "bytes32",
          "name": "",
          "type": "bytes32"
        }
      ],
      "name": "preHookSellBalance",
      "outputs": [
        {
          "internalType": "uint256",
          "name": "",
          "type": "uint256"
        }
      ],
      "stateMutability": "view",
      "type": "function"
    },
    {
      "inputs": [
        {
          "internalType": "address",
          "name": "token",
          "type": "address"
        },
        {
          "internalType": "address",
          "name": "to",
          "type": "address"
        },
        {
          "internalType": "uint256",
          "name": "amount",
          "type": "uint256"
        }
      ],
      "name": "recoverTokens",
      "outputs": [],
      "stateMutability": "nonpayable",
      "type": "function"
    },
    {
      "inputs": [],
      "name": "renounceOwnership",
      "outputs": [],
      "stateMutability": "nonpayable",
      "type": "function"
    },
    {
      "inputs": [
        {
          "internalType": "bytes32",
          "name": "orderHash",
          "type": "bytes32"
        }
      ],
      "name": "resetStuckOrder",
      "outputs": [],
      "stateMutability": "nonpayable",
      "type": "function"
    },
    {
      "inputs": [],
      "name": "router",
      "outputs": [
        {
          "internalType": "contract IKapanRouter",
          "name": "",
          "type": "address"
        }
      ],
      "stateMutability": "view",
      "type": "function"
    },
    {
      "inputs": [
        {
          "internalType": "uint256",
          "name": "_chunkWindow",
          "type": "uint256"
        }
      ],
      "name": "setChunkWindow",
      "outputs": [],
      "stateMutability": "nonpayable",
      "type": "function"
    },
    {
      "inputs": [
        {
          "internalType": "address",
          "name": "_orderHandler",
          "type": "address"
        }
      ],
      "name": "setOrderHandler",
      "outputs": [],
      "stateMutability": "nonpayable",
      "type": "function"
    },
    {
      "inputs": [],
      "name": "settlement",
      "outputs": [
        {
          "internalType": "contract IGPv2Settlement",
          "name": "",
          "type": "address"
        }
      ],
      "stateMutability": "view",
      "type": "function"
    },
    {
      "inputs": [
        {
          "internalType": "address",
          "name": "newOwner",
          "type": "address"
        }
      ],
      "name": "transferOwnership",
      "outputs": [],
      "stateMutability": "nonpayable",
      "type": "function"
    },
    {
      "inputs": [
        {
          "internalType": "address",
          "name": "",
          "type": "address"
        },
        {
          "internalType": "uint256",
          "name": "",
          "type": "uint256"
        }
      ],
      "name": "userOrders",
      "outputs": [
        {
          "internalType": "bytes32",
          "name": "",
          "type": "bytes32"
        }
      ],
      "stateMutability": "view",
      "type": "function"
    },
    {
      "inputs": [
        {
          "internalType": "address",
          "name": "",
          "type": "address"
        },
        {
          "internalType": "bytes32",
          "name": "",
          "type": "bytes32"
        }
      ],
      "name": "userSaltToOrderHash",
      "outputs": [
        {
          "internalType": "bytes32",
          "name": "",
          "type": "bytes32"
        }
      ],
      "stateMutability": "view",
      "type": "function"
    }
  ],
  "transactionHash": "0xe2f56ec35ddc19cd52d338d01c03fbe6e6e5c2e5fbeb733834aee149e7c99271",
  "args": [
    "0x0BE61223F99E57b8b8B7033a77B54Adc7f7cF027",
    "0x4a7E57e9324CCE2c73B520817571bcBFF56846EA",
    "0xfdaFc9d1902f4e0b84f65F49f244b32b31013b74",
    "0x9008D19f58AAbD9eD0D60971565AA8510560ab41",
    "0x60Bf78233f48eC42eE3F101b9a05eC7878728006"
  ],
  "numDeployments": 27,
  "solcInputHash": "8143aad6cd4638b740eee582a9de0de3",
  "bytecode": "0x610100346101c057601f613c9b38819003918201601f19168301916001600160401b038311848410176101c45780849260a0946040528339810103126101c057610048816101d8565b610054602083016101d8565b91610061604082016101d8565b9061007a6080610073606084016101d8565b92016101d8565b6001600160a01b039093169384156101ad575f80546001600160a01b031981168717825560405196916001600160a01b03909116907f8be0079c531659141344cd1fd0a4f28419497f9722a3daafe3b4186f6b6457e09080a3600180556107086002556001600160a01b031691821561019e576001600160a01b031690811561019e576001600160a01b031691821561019e576001600160a01b0384161561019e5760805260a05260c05260e052613aae90816101ed82396080518181816101bf01528181612c00015261326e015260a051818181610d02015281816112af0152818161146301526123fa015260c05181818161049f01528181610d97015281816119d20152818161224301526129b9015260e05181818161134b01526129700152f35b63d92e233d60e01b5f5260045ffd5b631e4fbdf760e01b5f525f60045260245ffd5b5f80fd5b634e487b7160e01b5f52604160045260245ffd5b51906001600160a01b03821682036101c05756fe6080806040526004361015610012575f80fd5b5f905f3560e01c908163031d974214611afb575080631626ba7e14611a895780632fbff5a414611a2b578063507f0e7414611a0157806351160630146119bd57806351fe1db5146119935780635485b1581461197857806355024ca7146118bd578063568ed812146118a15780635778472a1461178e5780635e10bce4146117645780635f3e849f146116cd57806363c69f0814611647578063715018a6146116035780637489ec23146113e45780638009fb6a1461137a57806381e6d3ce14611335578063856652e9146112de5780638b0f4834146112995780638da5cb5b146112725780638f7afbe6146106765780639c3f1e9014610605578063a436215214610585578063b58483051461055c578063c73bb4bd14610459578063caf218561461042c578063cea4b436146103e9578063d22b0586146103bf578063d7a3aca71461033b578063de7cdda4146102fb578063e0b787e4146102c7578063ea6971861461029d578063eae2b0ab14610281578063ed75efd814610264578063f2fde38b146101f15763f887ea40146101aa575f80fd5b346101ee57806003193601126101ee576040517f00000000000000000000000000000000000000000000000000000000000000006001600160a01b03168152602090f35b80fd5b50346101ee5760203660031901126101ee5761020b611b15565b610213613089565b6001600160a01b031680156102505781546001600160a01b03198116821783556001600160a01b03165f516020613a595f395f51905f528380a380f35b631e4fbdf760e01b82526004829052602482fd5b50346101ee57806003193601126101ee576020604051610e108152f35b50346101ee57806003193601126101ee57602060405160418152f35b50346101ee5760203660031901126101ee5760406020916004358152600a83522054604051908152f35b50346101ee5760203660031901126101ee576102e161294d565b6102e961296d565b6102f46004356130f1565b6001805580f35b50346101ee5760203660031901126101ee5761031860043561284c565b9061033760405192839215158352604060208401526040830190611b3f565b0390f35b50346101ee5760203660031901126101ee57610355611b15565b61035d613089565b6001600160a01b031680156103b057600380546001600160a01b0319811683179091556001600160a01b03167f7bf6e789688cd776b5170517f39970fea2870a79d649c8443dd2b0ec62823eb78380a380f35b63d92e233d60e01b8252600482fd5b50346101ee5760203660031901126101ee5760406020916004358152600883522054604051908152f35b50346101ee5760403660031901126101ee576020906040906001600160a01b03610411611b15565b16815260078352818120602435825283522054604051908152f35b50346101ee5760203660031901126101ee5761044661294d565b61044e61296d565b6102f4600435612ab4565b50346101ee5760203660031901126101ee57610473611b15565b61047b613089565b6001600160a01b031680156103b057604051634daa966160e11b81526020816004817f00000000000000000000000000000000000000000000000000000000000000006001600160a01b03165afa908115610551578391610513575b506104e28183613741565b6001600160a01b0316907f1ed99bd68e15d0355032c83534ad49f29b5eeba77f51b957e6ee3c09f561a7b88380a380f35b90506020813d602011610549575b8161052e60209383611de2565b810103126105455761053f90611f72565b5f6104d7565b8280fd5b3d9150610521565b6040513d85823e3d90fd5b50346101ee57806003193601126101ee576003546040516001600160a01b039091168152602090f35b50346101ee5760203660031901126101ee576004356105a2613089565b6041811080156105fa575b6105eb5760407fd41ae331cdd0716e9a1370baa1403c14b9dca36a1be170877840f86efb15846f91600254908060025582519182526020820152a180f35b630e1ccb6f60e31b8252600482fd5b50610e1081116105ad565b50346101ee5760203660031901126101ee57604061065d91600435815260046020522061063181611e05565b9060ff600a8201541690600c600b82015491015490610668604051958695608087526080870190611b63565b936020860190611c23565b604084015260608301520390f35b50346101ee5760403660031901126101ee576004356001600160401b03811161126e57806004019161016060031983360301126101ee576024356106b861294d565b6106c1846127b4565b336001600160a01b03909116036112605760248301906001600160a01b036106e8836127b4565b16156112515760848401926001600160a01b03610704856127b4565b16158015611235575b6112265761071a846127b4565b60a4860192906001600160a01b03610731856127b4565b6001600160a01b039092169116146112175733825260076020526040822081835260205260408220546112085733825260066020526064604083205410156111f9576064860161078181896127c8565b339161078e913691611f1e565b9061079891613569565b60c48701906107a7828a6127c8565b33916107b4913691611f1e565b906107be91613569565b60405160606020820190815290916001600160a01b036107dd8c611b2b565b1660808401526001600160a01b036107f489611b2b565b1660a084015260448a0199818c61080b8d826127fa565b60c0880161016090526101e08801906108239261282c565b9161082d916127fa565b868303607f190160e0880152610843929161282c565b6001600160a01b036108548c611b2b565b166101008601528c866001600160a01b0361086e8c611b2b565b1661012088015261087e916127fa565b868303607f1901610140880152610895929161282c565b9460e482013592836101608701526101048301359485610180880152610124840196600160a01b600190036108c989611b2b565b166101a0820152806101448601996108e08b611edf565b15156101c08301528b604083015242606083015203601f19810182526109069082611de2565b5190209c8d8a52600460205260408a20600a015460ff1660048110156111e5576111d657918b979593918f9795936109606040519a6109448c611d45565b6109596040519b6109548d611d74565b611b2b565b8b52611b2b565b60208a0152356001600160401b0381116111d2576109849060043691860101611f54565b6040890152356001600160401b0381116111ce576109a89060043691850101611f54565b60608801526109b68d611b2b565b60808801526109c48b611b2b565b60a0880152356001600160401b0381116111ca57916109f2610a0794926004610a1298979536920101611f54565b60c088015260e0870152610100860152611b2b565b610120840152611edf565b610140820152815260016020808301828152604080850187815242606087019081528c8952600485528289209651805188546001600160a01b03199081166001600160a01b03928316178a559682015197890180549097169716969096179094559084015180519394919360028701916001600160401b03821161103c578190610a9c8454611c8c565b601f811161117a575b50602090601f8311600114611118578b9261110d575b50508160011b915f199060031b1c19161790555b6060810151805160038701916001600160401b03821161103c578190610af58454611c8c565b601f81116110bd575b50602090601f831160011461105b578b92611050575b50508160011b915f199060031b1c19161790555b60808101516004860180546001600160a01b039283166001600160a01b03199182161790915560a083015160058801805491909316911617905560c0810151805160068701916001600160401b03821161103c578190610b888454611c8c565b601f8111610fec575b50602090601f8311600114610f8a578b92610f7f575b50508160011b915f199060031b1c19161790555b60e0810151600786015561010081015160088601556101208101516009860180546101409093015160ff60a01b90151560a01b166001600160a01b039092166001600160a81b03199093169290921717905551600a8401906004811015610f6b57815460ff191660ff9190911617905551600b83015551600c909101558582526005602052604082208190556001600160a01b03610c58886127b4565b168252600660205260408220805490600160401b821015610f575790610c8391600182018155611c63565b81545f1960039290921b91821b19169088901b1790556001600160a01b03610caa886127b4565b16825260076020526040822081835260205285604083205560018060a01b0360035416906040519087602083015260208252610ce7604083611de2565b60405192610cf484611d90565b8352602083015260408201527f00000000000000000000000000000000000000000000000000000000000000006001600160a01b031690813b1561054557610d5d839283926040519485809481936335fd70e560e11b8352604060048401526044830190611fd7565b6001602483015203925af18015610f4c57908291610f37575b5050610d81846127b4565b604051634daa966160e11b8152906020826004817f00000000000000000000000000000000000000000000000000000000000000006001600160a01b03165afa918215610551578392610efb575b50604051636eb1769f60e11b81523060048201526001600160a01b038381166024830152919091169290602081604481875afa918215610eef5791610ead575b5092610e6e610e68610e62610e5c60209b6060978c9a977f0d7b86882845c929e022510097af482fe9d559b56b818bb2c8630eff4d3ed9539a60018060ff1b0311610e9d575b50506127b4565b946127b4565b976127b4565b916127b4565b604080516001600160a01b0398891681529288168a84015290871690820152941693a360018055604051908152f35b610ea691613741565b5f80610e55565b9294919390506020833d602011610ee7575b81610ecc60209383611de2565b81010312610ee35791519093919290610e6e610e0f565b5f80fd5b3d9150610ebf565b604051903d90823e3d90fd5b9091506020813d602011610f2f575b81610f1760209383611de2565b8101031261054557610f2890611f72565b905f610dcf565b3d9150610f0a565b81610f4191611de2565b6101ee57805f610d76565b6040513d84823e3d90fd5b634e487b7160e01b84526041600452602484fd5b634e487b7160e01b87526021600452602487fd5b015190505f80610ba7565b848c52818c209250601f1984168c5b818110610fd45750908460019594939210610fbc575b505050811b019055610bbb565b01515f1960f88460031b161c191690555f8080610faf565b92936020600181928786015181550195019301610f99565b909150838b5260208b20601f840160051c81019160208510611032575b90601f859493920160051c01905b8181106110245750610b91565b8c8155849350600101611017565b9091508190611009565b634e487b7160e01b8a52604160045260248afd5b015190505f80610b14565b848c52818c209250601f1984168c5b8181106110a5575090846001959493921061108d575b505050811b019055610b28565b01515f1960f88460031b161c191690555f8080611080565b9293602060018192878601518155019501930161106a565b909150838b5260208b20601f840160051c81019160208510611103575b90601f859493920160051c01905b8181106110f55750610afe565b8c81558493506001016110e8565b90915081906110da565b015190505f80610abb565b848c52818c209250601f1984168c5b818110611162575090846001959493921061114a575b505050811b019055610acf565b01515f1960f88460031b161c191690555f808061113d565b92936020600181928786015181550195019301611127565b909150838b5260208b20601f840160051c810191602085106111c0575b90601f859493920160051c01905b8181106111b25750610aa5565b8c81558493506001016111a5565b9091508190611197565b8980fd5b8a80fd5b8b80fd5b63966753c560e01b8a5260048afd5b634e487b7160e01b8b52602160045260248bfd5b6352f9988b60e01b8252600482fd5b630ced304360e01b8252600482fd5b6333910aef60e11b8252600482fd5b63d92e233d60e01b8152600490fd5b506001600160a01b0361124a60a487016127b4565b161561070d565b63a768d7fd60e01b8352600483fd5b6282b42960e81b8252600482fd5b5080fd5b50346101ee57806003193601126101ee57546040516001600160a01b039091168152602090f35b50346101ee57806003193601126101ee576040517f00000000000000000000000000000000000000000000000000000000000000006001600160a01b03168152602090f35b50346101ee5760403660031901126101ee576112f8611b15565b6001600160a01b03168152600660205260408120805460243592908310156101ee5760206113268484611c63565b90549060031b1c604051908152f35b50346101ee57806003193601126101ee576040517f00000000000000000000000000000000000000000000000000000000000000006001600160a01b03168152602090f35b50346101ee5760403660031901126101ee57611394611b15565b61139c61294d565b6113a461296d565b6001600160a01b03168152600760209081526040808320602435845290915281205480156113d5576102f4906130f1565b63d36d896560e01b8252600482fd5b5034610ee3576020366003190112610ee35760043561140161294d565b805f52600460205260405f20600a81019060ff8254169060048210156115ef5781156115e057546001600160a01b031633036115d2575f19016115c357815f52600860205260405f20546115b457600360ff1982541617905560018060a01b037f0000000000000000000000000000000000000000000000000000000000000000166114ef602060018060a01b0360035416845f526005825260405f20546040519086848301528382526114b6604083611de2565b604051926114c384611d90565b835283830152604082015260405180938192635500079d60e01b83528460048401526024830190611fd7565b0381855afa908115611577575f91611582575b50813b15610ee3575f916024839260405194859384926395bc267360e01b845260048401525af1801561157757611562575b5033907f0e00387e025961780b7f127ffab3dfa3118f4d9047a3508c3ae9a0285245a15e8380a36001805580f35b61156f9192505f90611de2565b5f905f611534565b6040513d5f823e3d90fd5b90506020813d6020116115ac575b8161159d60209383611de2565b81010312610ee357515f611502565b3d9150611590565b6313e916e560e01b5f5260045ffd5b632b12537f60e21b5f5260045ffd5b6282b42960e81b5f5260045ffd5b63d36d896560e01b5f5260045ffd5b634e487b7160e01b5f52602160045260245ffd5b34610ee3575f366003190112610ee35761161b613089565b5f80546001600160a01b0319811682556001600160a01b03165f516020613a595f395f51905f528280a3005b34610ee3576020366003190112610ee3576001600160a01b03611668611b15565b165f52600660205260405f206040519081602082549182815201915f5260205f20905f5b8181106116b757610337856116a381870382611de2565b604051918291602083526020830190611c30565b825484526020909301926001928301920161168c565b34610ee3576060366003190112610ee3576116e6611b15565b6024356001600160a01b03811691828203610ee35760443590611707613089565b6001600160a01b0316918215611755578315611755578161174c7f401f439d865a766757ec78675925bd67198d5e78805aa41691b34b5d6a6cbbe693602093866130af565b604051908152a3005b63d92e233d60e01b5f5260045ffd5b34610ee3576020366003190112610ee35760406117826004356126eb565b82519182526020820152f35b34610ee3576020366003190112610ee3575f60606040516117ae81611d45565b6040516117ba81611d74565b83815283602082015282604082015282808201528360808201528360a08201528260c08201528360e0820152836101008201528361012082015283610140820152815282602082015282604082015201526004355f52600460205260405f2060405161182581611d45565b61182e82611e05565b815260ff600a8301541691602082019060048410156115ef57611885938252600c600b82015491604085019283520154906060840191825261189160405195869560208752516080602088015260a0870190611b63565b93516040860190611c23565b5160608401525160808301520390f35b34610ee3575f366003190112610ee35760206040516107088152f35b34610ee3576020366003190112610ee3576004356118d9613089565b805f52600460205260405f2060ff600a8201541660048110156115ef576001036115c357815f52600860205260405f205415611969575f82815260086020908152604080832083905560098252808320839055600a909152812081905590546001600160a01b031691907fe2210120d48fe93da6dc8d1873a097516ebbbe5e3f47c5afb525bb2263f1e6e09080a3005b631feb8b7960e21b5f5260045ffd5b34610ee3575f366003190112610ee357602060405160648152f35b34610ee3576020366003190112610ee3576004355f526009602052602060405f2054604051908152f35b34610ee3575f366003190112610ee3576040517f00000000000000000000000000000000000000000000000000000000000000006001600160a01b03168152602090f35b34610ee3576020366003190112610ee3576004355f526005602052602060405f2054604051908152f35b34610ee3576040366003190112610ee357611a44611b15565b611a4c61294d565b611a5461296d565b60018060a01b03165f52600760205260405f206024355f5260205260405f205480156115e057611a8390612ab4565b60018055005b34610ee3576040366003190112610ee3576024356001600160401b038111610ee35736602382011215610ee3576004810135906001600160401b038211610ee3573660248383010111610ee3576020916024611ae89201600435612006565b6040516001600160e01b03199091168152f35b34610ee3575f366003190112610ee3576020906002548152f35b600435906001600160a01b0382168203610ee357565b35906001600160a01b0382168203610ee357565b805180835260209291819084018484015e5f828201840152601f01601f1916010190565b9060018060a01b03825116815260018060a01b03602083015116602082015261014080611bef611bb9611ba760408701516101606040880152610160870190611b3f565b60608701518682036060880152611b3f565b60018060a01b03608087015116608086015260018060a01b0360a08701511660a086015260c086015185820360c0870152611b3f565b60e080860151908501526101008086015190850152610120808601516001600160a01b031690850152930151151591015290565b9060048210156115ef5752565b90602080835192838152019201905f5b818110611c4d5750505090565b8251845260209384019390920191600101611c40565b8054821015611c78575f5260205f2001905f90565b634e487b7160e01b5f52603260045260245ffd5b90600182811c92168015611cba575b6020831014611ca657565b634e487b7160e01b5f52602260045260245ffd5b91607f1691611c9b565b5f9291815491611cd383611c8c565b8083529260018116908115611d285750600114611cef57505050565b5f9081526020812093945091925b838310611d0e575060209250010190565b600181602092949394548385870101520191019190611cfd565b915050602093945060ff929192191683830152151560051b010190565b608081019081106001600160401b03821117611d6057604052565b634e487b7160e01b5f52604160045260245ffd5b61016081019081106001600160401b03821117611d6057604052565b606081019081106001600160401b03821117611d6057604052565b61018081019081106001600160401b03821117611d6057604052565b604081019081106001600160401b03821117611d6057604052565b601f909101601f19168101906001600160401b03821190821017611d6057604052565b90604051611e1281611d74565b82546001600160a01b0390811682526001840154166020820152604051909283916101409160ff9160099190611e5681611e4f8160028601611cc4565b0382611de2565b6040860152604051611e6f81611e4f8160038601611cc4565b606086015260048101546001600160a01b03908116608087015260058201541660a0860152604051611ea881611e4f8160068601611cc4565b60c0860152600781015460e0860152600881015461010086015201546001600160a01b03811661012085015260a01c161515910152565b35908115158203610ee357565b6001600160401b038111611d605760051b60200190565b6001600160401b038111611d6057601f01601f191660200190565b929192611f2a82611f03565b91611f386040519384611de2565b829481845281830111610ee3578281602093845f960137010152565b9080601f83011215610ee357816020611f6f93359101611f1e565b90565b51906001600160a01b0382168203610ee357565b51908115158203610ee357565b81601f82011215610ee357602081519101611fad82611f03565b92611fbb6040519485611de2565b82845282820111610ee357815f926020928386015e8301015290565b9060606040611f6f9360018060a01b038151168452602081015160208501520151918160408201520190611b3f565b81838101036101a08112610ee35761018013610ee3576040519261202984611dab565b61203283611b2b565b845261204060208401611b2b565b602085015261205160408401611b2b565b6040850152606083013560608501526080830135608085015260a083013563ffffffff81168103610ee35760a085015260c083013560c085015260e083013560e08501526101008301356101008501526120ae6101208401611edf565b61012085015261014083810135908501526101608084013590850152610180830135926001600160401b038411610ee35760608482018383010312610ee357604051936120fa85611d90565b818101356001600160401b038111610ee357838301601f8284860101011215610ee35780828401013561212c81611eec565b9161213a6040519384611de2565b818352602083019086860160208460051b83888a0101010111610ee357906020828688010101915b60208460051b82888a0101010183106126c15750505090865250818101602001356001600160401b038111610ee357606081838501018585010312610ee357604051906121ae82611d90565b8383018101356001600160a01b0381168103610ee357825283830181016020818101359084015260400135906001600160401b038211610ee3576121fa91868601918587010101611f54565b60408201526020860152604081830101359060018060401b038211610ee357612227938301920101611f54565b6040838101919091525163f698da2560e01b81526020816004817f00000000000000000000000000000000000000000000000000000000000000006001600160a01b03165afa908115611577575f9161268f575b507fd5a25ba2e97094ad7d83dc28a6572da797d6b3e7fc6663bd93efb789fc17e48960018060a01b0385511660018060a01b036020870151168660018060a01b036040820151166060820151608083015163ffffffff60a08501511660c08501519060e086015192610100870151946101208801511515966101606101408a0151990151996040519b60208d019d8e5260408d015260608c015260808b015260a08a015260c089015260e08801526101008701526101208601526101408501526101608401526101808301526101a08201526101a0815261235e6101c082611de2565b51902060405190602082019261190160f01b8452602283015260428201526042815261238b606282611de2565b51902003612689575f6123d260208301516123f6604085015194516123e4604051968795869563137050cb60e11b8752306004880152608060248801526084870190611fd7565b85810360031901604487015290611b3f565b83810360031901606485015290611c30565b03817f00000000000000000000000000000000000000000000000000000000000000006001600160a01b03165afa5f918161258c575b506124375750505f90565b815181516001600160a01b03908116911614918261256d575b8261254e575b82612533575b82612518575b82612505575b826124f2575b826124dd575b826124c4575b826124af575b8261249b575b5050612490575f90565b630b135d3f60e11b90565b610160919250810151910151145f80612486565b91506101408201516101408201511491612480565b915061012082015115156101208201511515149161247a565b91506101008201516101008201511491612474565b915060e082015160e0820151149161246e565b915060c082015160c08201511491612468565b915061252d608083015160808301519061382c565b91612462565b9150612548606083015160608301519061382c565b9161245c565b604080820151908301516001600160a01b039081169116149250612456565b602080820151908301516001600160a01b039081169116149250612450565b9091503d805f833e61259e8183611de2565b8101908082036101a08112610ee35761018013610ee357604051916125c283611dab565b6125cb82611f72565b83526125d960208301611f72565b60208401526125ea60408301611f72565b6040840152606082015160608401526080820151608084015260a082015163ffffffff81168103610ee35760a084015260c082015160c084015260e082015160e08401526101008201516101008401526126476101208301611f86565b610120840152610140828101519084015261016080830151908401526101808201516001600160401b038111610ee3576126819201611f93565b50905f61242c565b50505f90565b90506020813d6020116126b9575b816126aa60209383611de2565b81010312610ee357515f61227b565b3d915061269d565b602080809385358152019301929150612162565b9190826040910312610ee3576020825192015190565b5f52600460205260405f209060ff600a8301541660048110156115ef576001036127ad5760018201548254600b840154604080516368c4be2560e01b81526060600482015295909386936001600160a01b0391821693859384939092169161275a906064850190600201611cc4565b916024840152604483015203915afa918215611577575f905f9361277d57509190565b90506127a291925060403d6040116127a6575b61279a8183611de2565b8101906126d5565b9091565b503d612790565b5f91508190565b356001600160a01b0381168103610ee35790565b903590601e1981360301821215610ee357018035906001600160401b038211610ee357602001918136038313610ee357565b9035601e1982360301811215610ee3570160208101919035906001600160401b038211610ee3578136038313610ee357565b908060209392818452848401375f828201840152601f01601f1916010190565b5f52600460205260405f209060ff600a8301541660048110156115ef5760010361291b57600182015482546040805163632224a760e01b81526004810191909152935f9285926001600160a01b03918216928492839216906128b5906044840190600201611cc4565b90602483015203915afa918215611577575f905f936128d357509190565b9250503d805f843e6128e58184611de2565b820191604081840312610ee3576128fb81611f86565b60208201519093906001600160401b038111610ee357611f6f9201611f93565b90505f9060405161292d604082611de2565b601081526f6f726465725f6e6f745f61637469766560801b602082015290565b60026001541461295e576002600155565b633ee5aeb560e01b5f5260045ffd5b337f00000000000000000000000000000000000000000000000000000000000000006001600160a01b03161415806129b5575b6129a657565b631cb3967f60e21b5f5260045ffd5b50337f00000000000000000000000000000000000000000000000000000000000000006001600160a01b031614156129a0565b919082039182116129f557565b634e487b7160e01b5f52601160045260245ffd5b602081016020825282518091526040820191602060408360051b8301019401925f915b838310612a3b57505050505090565b9091929394602080612a79600193603f1986820301875289519083612a698351604084526040840190611b3f565b9201519084818403910152611b3f565b97019301930191939290612a2c565b612aa060409295949395606083526060830190611b3f565b6001600160a01b0390951660208201520152565b5f815f52600460205260405f2092600a84019260ff84541660048110156115ef576001036115c357805f52600860205260405f205490600b860191825490600182018092116129f5570361196957612b0d602496611e05565b94815f5260086020525f6040812055815f52600960205260405f205494825f52600a60205260405f2054966080810196602060018060a01b038951166040519b8c80926370a0823160e01b82523060048301525afa998a15611577575f9a613054575b5060249060a083019a602060018060a01b038d5116604051948580926370a0823160e01b82523060048301525afa928315611577575f93613020575b50865f5260096020525f6040812055865f52600a6020525f60408120558082115f1461301757612bdb916129e8565b985b8082111561300f57612bee916129e8565b80156130005789516001600160a01b037f000000000000000000000000000000000000000000000000000000000000000081169a91612c319184918d91166130af565b60c083015189519b5181516001600160a01b039d8e169d9091169a91612c5f91602090820181019101613443565b998a51600281018091116129f557612c7690613884565b9c612c8190846139a7565b8d60405191612c8f83611dc7565b612c976138e1565b83526020830152612ca790613538565b52612cb18d613538565b50612cbc90846139a7565b60405190612cc982611dc7565b612cd16138e1565b82526020820152612ce18d613545565b52612ceb8c613545565b505f5b8a51811015612d2e57612d01818c613555565b519060028101918282116129f557828f612d2792612d2160019683613555565b52613555565b5001612cee565b50929598509295989990939699803b15610ee35760405163f0dbeea560e01b8152915f918391829084908290612d679060048301612a09565b03925af1801561157757612feb575b50610120840180516001600160a01b0316612f43575b505086545f198114612f2f577f5b19a0b08bbd8e7537d63d9f1db0947c5eba6d93e02a7e0a1520ea5f29bd644c6040612e4594897f746e7bce16b1125d16e5673941791d7ff1f65d656a3c7346b7c2aa614814850f60608d97600184980180995585519089825260208201528486820152a28151908582526020820152a2602083810151604080860151865191516343fc086560e01b81529586936001600160a01b039081169385938493928992169060048501612a88565b03915afa918215612f24578492612ee4575b506101008301518015159182612ed9575b50508115612ed1575b50612e7e575b5050505050565b825460ff1916600217909255505191546040519081526001600160a01b0392909216917f11c239861e7b77ea2869389e0f03373ea1d12f407575794b517a10d10c54333390602090a35f80808080612e77565b90505f612e71565b101590505f80612e68565b9091506020813d602011612f1c575b81612f0060209383611de2565b81010312612f1857612f1190611f86565b905f612e57565b8380fd5b3d9150612ef3565b6040513d86823e3d90fd5b634e487b7160e01b85526011600452602485fd5b81516040516370a0823160e01b81523060048201529190602090839060249082906001600160a01b03165afa918215612fe0578792612fac575b5081612f8a575b50612d8c565b91519151612fa4926001600160a01b0391821691166130af565b5f8080612f84565b9091506020813d602011612fd8575b81612fc860209383611de2565b81010312610ee35751905f612f7d565b3d9150612fbb565b6040513d89823e3d90fd5b612ff89195505f90611de2565b5f935f612d76565b639671a89f60e01b5f5260045ffd5b50505f612bee565b50505f98612bdd565b9092506020813d60201161304c575b8161303c60209383611de2565b81010312610ee35751915f612bac565b3d915061302f565b9099506020813d602011613081575b8161307060209383611de2565b81010312610ee35751986024612b70565b3d9150613063565b5f546001600160a01b0316330361309c57565b63118cdaa760e01b5f523360045260245ffd5b60405163a9059cbb60e01b60208201526001600160a01b0390921660248301526044808301939093529181526130ef916130ea606483611de2565b613905565b565b905f90825f52600460205260405f209060ff600a8301541660048110156115ef576001036115c357835f52600860205260405f20546134345761317c9361313783611e05565b9260018060a01b0360208501511690604080860151600b60018060a01b03885116930193845493849284519b8c94859384936368c4be2560e01b855260048501612a88565b03915afa968715611577575f97613412575b50600181018091116129f557825f52600860205260405f205560608401519360808101956131cf60018060a01b038851169660208082518301019101613443565b95865190600182018092116129f5576131ea6131f092613884565b996139a7565b604051906131fd82611dc7565b6132056138e1565b8252602082015261321589613538565b5261321f88613538565b505f5b8651811015613262576132358188613555565b519060018101918282116129f5578261325b916132546001958e613555565b528b613555565b5001613222565b509396929591945092917f00000000000000000000000000000000000000000000000000000000000000006001600160a01b0316803b15610ee35760405163f0dbeea560e01b8152915f9183918290849082906132c29060048301612a09565b03925af18015611577576133fc575b50516040516370a0823160e01b815230600482015290602090829060249082906001600160a01b03165afa908115610f4c5782916133c9575b5060249260209186845260098352604084205560a0600180821b0391015116604051938480926370a0823160e01b82523060048301525afa9182156133bc578192613379575b5091602091604084865f516020613a395f395f51905f529652600a8552205554604051908152a2565b9150916020823d6020116133b4575b8161339560209383611de2565b81010312610ee357905190915f516020613a395f395f51905f52613350565b3d9150613388565b50604051903d90823e3d90fd5b90506020813d6020116133f4575b816133e460209383611de2565b81010312610ee35751602461330a565b3d91506133d7565b6134099192505f90611de2565b5f9060206132d1565b61342c91975060403d6040116127a65761279a8183611de2565b50955f61318e565b63e617d13160e01b5f5260045ffd5b602081830312610ee3578051906001600160401b038211610ee357019080601f83011215610ee35781519161347783611eec565b926134856040519485611de2565b80845260208085019160051b83010191838311610ee35760208101915b8383106134b157505050505090565b82516001600160401b038111610ee3578201906040828703601f190112610ee357604051906134df82611dc7565b60208301516001600160401b038111610ee35787602061350192860101611f93565b82526040830151916001600160401b038311610ee35761352988602080969581960101611f93565b838201528152019201916134a2565b805115611c785760200190565b805160011015611c785760400190565b8051821015611c785760209160051b010190565b9190918051801561373b5790602080613586938301019101613443565b6040516020810190653937baba32b960d11b8252600681526135a9602682611de2565b5190205f5b825181101561373457816135c28285613555565b51516040516135f06020828180820195805191829101875e81015f838201520301601f198101835282611de2565b51902003613601575b6001016135ae565b602061360d8285613555565b5101518051810190602081830312610ee3576020810151906001600160401b038211610ee35701808203601f19810192919060c013610ee3576040519160c083016001600160401b03811184821017611d60576040526020820151600a811015610ee357835261367f60408301611f72565b602084015261369060608301611f72565b604084019081526080830151606085015260a0830151909490916001600160401b038311610ee35760209283806136cb930191860101611f93565b6080850152607f190112610ee35760405191602083016001600160401b03811184821017611d605760405260c090910151825260a00152516001600160a01b0390811690861680820361371f5750506135f9565b63041bc0b160e41b5f5260045260245260445ffd5b5050509050565b50509050565b60405190602082019263095ea7b360e01b845260018060a01b0316928360248401525f19604484015260448352613779606484611de2565b82516001600160a01b038316915f91829182855af190613797613978565b826137f2575b50816137e7575b50156137af57505050565b6130ea6130ef936040519063095ea7b360e01b602083015260248201525f6044820152604481526137e1606482611de2565b82613905565b90503b15155f6137a4565b8051919250811591821561380a575b5050905f61379d565b8192509060209181010312610ee35760206138259101611f86565b5f80613801565b9080821461387d578082119182156138765780925b156138685790613850916129e8565b6064810290808204606414901517156129f557111590565b613871916129e8565b613850565b8192613841565b5050600190565b9061388e82611eec565b61389b6040519182611de2565b82815280926138ac601f1991611eec565b01905f5b8281106138bc57505050565b6020906040516138cb81611dc7565b60608152606083820152828285010152016138b0565b604051906138f0604083611de2565b60068252653937baba32b960d11b6020830152565b5f8061392d9260018060a01b03169360208151910182865af1613926613978565b90836139da565b8051908115159182613955575b50506139435750565b635274afe760e01b5f5260045260245ffd5b8192509060209181010312610ee35760206139709101611f86565b155f8061393a565b3d156139a2573d9061398982611f03565b916139976040519384611de2565b82523d5f602084013e565b606090565b9060405191602083015260018060a01b031660408201525f60608201526003608082015260808152611f6f60a082611de2565b906139fe57508051156139ef57805190602001fd5b630a12f52160e11b5f5260045ffd5b81511580613a2f575b613a0f575090565b639996b31560e01b5f9081526001600160a01b0391909116600452602490fd5b50803b15613a0756feed6ad11a587c194b3ad43896e949cb9a05975419926eda9b6b571d1847c9a7aa8be0079c531659141344cd1fd0a4f28419497f9722a3daafe3b4186f6b6457e0a26469706673582212203a097b6e56cceeaa4b0cb9b407d31b9c9eeb94693370cd7fb3f44cf0f39c1a3964736f6c634300081e0033",
  "devdoc": {
    "details": "Uses separate KapanConditionalOrderHandler for IConditionalOrderGenerator.      This contract is the OWNER in ComposableCoW and handles ERC-1271 signature verification.      It intentionally does NOT implement IERC165 to avoid Safe/fallback handler detection. Key differences from KapanOrderManager: - Orders have pluggable triggers (IOrderTrigger) that determine when and how much to execute - Amounts are calculated dynamically at execution time via trigger.calculateExecution() - Instructions are templates that reference UTXO[0] for dynamic amounts",
    "errors": {
      "AddressEmptyCode(address)": [
        {
          "details": "There's no code at `target` (it is not a contract)."
        }
      ],
      "AddressInsufficientBalance(address)": [
        {
          "details": "The ETH balance of the account is not enough to perform the operation."
        }
      ],
      "FailedInnerCall()": [
        {
          "details": "A call to an address target failed. The target may have reverted."
        }
      ],
      "OwnableInvalidOwner(address)": [
        {
          "details": "The owner is not a valid owner account. (eg. `address(0)`)"
        }
      ],
      "OwnableUnauthorizedAccount(address)": [
        {
          "details": "The caller account is not authorized to perform an operation."
        }
      ],
      "ReentrancyGuardReentrantCall()": [
        {
          "details": "Unauthorized reentrant call."
        }
      ],
      "SafeERC20FailedOperation(address)": [
        {
          "details": "An operation with an ERC20 token failed."
        }
      ]
    },
    "kind": "dev",
    "methods": {
      "approveVaultRelayer(address)": {
        "params": {
          "token": "Token to approve"
        }
      },
      "createOrder((address,address,bytes,bytes,address,address,bytes,bytes32,uint256,address,bool),bytes32)": {
        "params": {
          "params": "The order parameters",
          "salt": "Unique salt for the order"
        },
        "returns": {
          "orderHash": "The hash identifying this order"
        }
      },
      "executePostHook(bytes32)": {
        "params": {
          "orderHash": "The order hash"
        }
      },
      "executePostHookBySalt(address,bytes32)": {
        "params": {
          "salt": "The order salt",
          "user": "The user address"
        }
      },
      "executePreHook(bytes32)": {
        "params": {
          "orderHash": "The order hash"
        }
      },
      "executePreHookBySalt(address,bytes32)": {
        "params": {
          "salt": "The order salt",
          "user": "The user address"
        }
      },
      "isValidSignature(bytes32,bytes)": {
        "params": {
          "_hash": "The hash of the data signed",
          "_signature": "The signature bytes"
        },
        "returns": {
          "_0": "bytes4(0x1626ba7e) if valid, any other value if invalid"
        }
      },
      "owner()": {
        "details": "Returns the address of the current owner."
      },
      "recoverTokens(address,address,uint256)": {
        "params": {
          "amount": "Amount to recover",
          "to": "Recipient address",
          "token": "Token address to recover"
        }
      },
      "renounceOwnership()": {
        "details": "Leaves the contract without owner. It will not be possible to call `onlyOwner` functions. Can only be called by the current owner. NOTE: Renouncing ownership will leave the contract without an owner, thereby disabling any functionality that is only available to the owner."
      },
      "resetStuckOrder(bytes32)": {
        "details": "Only use when an order is permanently stuck due to failed settlement",
        "params": {
          "orderHash": "The order hash to reset"
        }
      },
      "setChunkWindow(uint256)": {
        "params": {
          "_chunkWindow": "New chunk window in seconds"
        }
      },
      "setOrderHandler(address)": {
        "params": {
          "_orderHandler": "New order handler address"
        }
      },
      "transferOwnership(address)": {
        "details": "Transfers ownership of the contract to a new account (`newOwner`). Can only be called by the current owner."
      }
    },
    "stateVariables": {
      "DEFAULT_CHUNK_WINDOW": {
        "details": "Must be > 60 seconds due to CoW Protocol's min_order_validity_period (default 1 minute) Increased to 30 minutes to allow sufficient time for solver competition and fills"
      },
      "MIN_CHUNK_WINDOW": {
        "details": "Must be > 60 seconds due to CoW Protocol's min_order_validity_period"
      },
      "chunkWindow": {
        "details": "Configurable to tune order validity based on watchtower polling and token characteristics"
      }
    },
    "title": "KapanConditionalOrderManager",
    "version": 1
  },
  "userdoc": {
    "kind": "user",
    "methods": {
      "DEFAULT_CHUNK_WINDOW()": {
        "notice": "Default chunk window duration (30 minutes)"
      },
      "MAX_CHUNK_WINDOW()": {
        "notice": "Maximum allowed chunk window (1 hour)"
      },
      "MAX_ORDERS_PER_USER()": {
        "notice": "Maximum orders per user to prevent storage DOS"
      },
      "MIN_CHUNK_WINDOW()": {
        "notice": "Minimum allowed chunk window (65 seconds)"
      },
      "approveVaultRelayer(address)": {
        "notice": "Approve vault relayer to spend tokens"
      },
      "cancelOrder(bytes32)": {
        "notice": "Cancel an active conditional order"
      },
      "chunkWindow()": {
        "notice": "Chunk window duration for deterministic validTo"
      },
      "composableCoW()": {
        "notice": "The ComposableCoW contract for order registration (immutable)"
      },
      "createOrder((address,address,bytes,bytes,address,address,bytes,bytes32,uint256,address,bool),bytes32)": {
        "notice": "Create a new conditional order"
      },
      "executePostHook(bytes32)": {
        "notice": "Execute post-hook (called by HooksTrampoline)"
      },
      "executePostHookBySalt(address,bytes32)": {
        "notice": "Execute post-hook using (user, salt) lookup"
      },
      "executePreHook(bytes32)": {
        "notice": "Execute pre-hook (called by HooksTrampoline, or by GPv2Settlement during         orderbook balance simulation — see `_onlyHookCaller`)."
      },
      "executePreHookBySalt(address,bytes32)": {
        "notice": "Execute pre-hook using (user, salt) lookup"
      },
      "getExecutionAmounts(bytes32)": {
        "notice": "Get current execution amounts from trigger"
      },
      "hooksTrampoline()": {
        "notice": "The HooksTrampoline contract (caller for hooks) (immutable)"
      },
      "isTriggerMet(bytes32)": {
        "notice": "Check if trigger condition is currently met"
      },
      "isValidSignature(bytes32,bytes)": {
        "notice": "Verifies that the signature is valid for the given hash"
      },
      "orderHandler()": {
        "notice": "The KapanConditionalOrderHandler for generating orders"
      },
      "orderSalts(bytes32)": {
        "notice": "Salt used for each order (for ComposableCoW cancellation)"
      },
      "orders(bytes32)": {
        "notice": "Order contexts by order hash"
      },
      "preHookExecutedForIteration(bytes32)": {
        "notice": "Track pre-hook execution per order"
      },
      "preHookSellBalance(bytes32)": {
        "notice": "Track balances at end of pre-hook for delta calculation"
      },
      "recoverTokens(address,address,uint256)": {
        "notice": "Recover tokens accidentally sent to this contract"
      },
      "resetStuckOrder(bytes32)": {
        "notice": "Reset a stuck order where pre-hook executed but post-hook failed"
      },
      "router()": {
        "notice": "The KapanRouter for executing lending operations (immutable)"
      },
      "setChunkWindow(uint256)": {
        "notice": "Update the chunk window for order validity"
      },
      "setOrderHandler(address)": {
        "notice": "Update the order handler address"
      },
      "settlement()": {
        "notice": "The GPv2Settlement contract (immutable)"
      },
      "userOrders(address,uint256)": {
        "notice": "User's active orders"
      },
      "userSaltToOrderHash(address,bytes32)": {
        "notice": "Lookup order hash by (user, salt)"
      }
    },
    "notice": "Manages trigger-based conditional orders for Kapan (ADL, stop-loss, etc.)",
    "version": 1
  },
  "storageLayout": {
    "storage": [
      {
        "astId": 8,
        "contract": "contracts/v2/cow/KapanConditionalOrderManager.sol:KapanConditionalOrderManager",
        "label": "_owner",
        "offset": 0,
        "slot": "0",
        "type": "t_address"
      },
      {
        "astId": 845,
        "contract": "contracts/v2/cow/KapanConditionalOrderManager.sol:KapanConditionalOrderManager",
        "label": "_status",
        "offset": 0,
        "slot": "1",
        "type": "t_uint256"
      },
      {
        "astId": 1061,
        "contract": "contracts/v2/cow/KapanConditionalOrderManager.sol:KapanConditionalOrderManager",
        "label": "chunkWindow",
        "offset": 0,
        "slot": "2",
        "type": "t_uint256"
      },
      {
        "astId": 1079,
        "contract": "contracts/v2/cow/KapanConditionalOrderManager.sol:KapanConditionalOrderManager",
        "label": "orderHandler",
        "offset": 0,
        "slot": "3",
        "type": "t_address"
      },
      {
        "astId": 1085,
        "contract": "contracts/v2/cow/KapanConditionalOrderManager.sol:KapanConditionalOrderManager",
        "label": "orders",
        "offset": 0,
        "slot": "4",
        "type": "t_mapping(t_bytes32,t_struct(OrderContext)1045_storage)"
      },
      {
        "astId": 1090,
        "contract": "contracts/v2/cow/KapanConditionalOrderManager.sol:KapanConditionalOrderManager",
        "label": "orderSalts",
        "offset": 0,
        "slot": "5",
        "type": "t_mapping(t_bytes32,t_bytes32)"
      },
      {
        "astId": 1096,
        "contract": "contracts/v2/cow/KapanConditionalOrderManager.sol:KapanConditionalOrderManager",
        "label": "userOrders",
        "offset": 0,
        "slot": "6",
        "type": "t_mapping(t_address,t_array(t_bytes32)dyn_storage)"
      },
      {
        "astId": 1103,
        "contract": "contracts/v2/cow/KapanConditionalOrderManager.sol:KapanConditionalOrderManager",
        "label": "userSaltToOrderHash",
        "offset": 0,
        "slot": "7",
        "type": "t_mapping(t_address,t_mapping(t_bytes32,t_bytes32))"
      },
      {
        "astId": 1108,
        "contract": "contracts/v2/cow/KapanConditionalOrderManager.sol:KapanConditionalOrderManager",
        "label": "preHookExecutedForIteration",
        "offset": 0,
        "slot": "8",
        "type": "t_mapping(t_bytes32,t_uint256)"
      },
      {
        "astId": 1113,
        "contract": "contracts/v2/cow/KapanConditionalOrderManager.sol:KapanConditionalOrderManager",
        "label": "preHookSellBalance",
        "offset": 0,
        "slot": "9",
        "type": "t_mapping(t_bytes32,t_uint256)"
      },
      {
        "astId": 1117,
        "contract": "contracts/v2/cow/KapanConditionalOrderManager.sol:KapanConditionalOrderManager",
        "label": "preHookBuyBalance",
        "offset": 0,
        "slot": "10",
        "type": "t_mapping(t_bytes32,t_uint256)"
      }
    ],
    "types": {
      "t_address": {
        "encoding": "inplace",
        "label": "address",
        "numberOfBytes": "20"
      },
      "t_array(t_bytes32)dyn_storage": {
        "base": "t_bytes32",
        "encoding": "dynamic_array",
        "label": "bytes32[]",
        "numberOfBytes": "32"
      },
      "t_bool": {
        "encoding": "inplace",
        "label": "bool",
        "numberOfBytes": "1"
      },
      "t_bytes32": {
        "encoding": "inplace",
        "label": "bytes32",
        "numberOfBytes": "32"
      },
      "t_bytes_storage": {
        "encoding": "bytes",
        "label": "bytes",
        "numberOfBytes": "32"
      },
      "t_enum(OrderStatus)1000": {
        "encoding": "inplace",
        "label": "enum KapanConditionalOrderManager.OrderStatus",
        "numberOfBytes": "1"
      },
      "t_mapping(t_address,t_array(t_bytes32)dyn_storage)": {
        "encoding": "mapping",
        "key": "t_address",
        "label": "mapping(address => bytes32[])",
        "numberOfBytes": "32",
        "value": "t_array(t_bytes32)dyn_storage"
      },
      "t_mapping(t_address,t_mapping(t_bytes32,t_bytes32))": {
        "encoding": "mapping",
        "key": "t_address",
        "label": "mapping(address => mapping(bytes32 => bytes32))",
        "numberOfBytes": "32",
        "value": "t_mapping(t_bytes32,t_bytes32)"
      },
      "t_mapping(t_bytes32,t_bytes32)": {
        "encoding": "mapping",
        "key": "t_bytes32",
        "label": "mapping(bytes32 => bytes32)",
        "numberOfBytes": "32",
        "value": "t_bytes32"
      },
      "t_mapping(t_bytes32,t_struct(OrderContext)1045_storage)": {
        "encoding": "mapping",
        "key": "t_bytes32",
        "label": "mapping(bytes32 => struct KapanConditionalOrderManager.OrderContext)",
        "numberOfBytes": "32",
        "value": "t_struct(OrderContext)1045_storage"
      },
      "t_mapping(t_bytes32,t_uint256)": {
        "encoding": "mapping",
        "key": "t_bytes32",
        "label": "mapping(bytes32 => uint256)",
        "numberOfBytes": "32",
        "value": "t_uint256"
      },
      "t_struct(KapanOrderParams)1033_storage": {
        "encoding": "inplace",
        "label": "struct KapanConditionalOrderManager.KapanOrderParams",
        "members": [
          {
            "astId": 1012,
            "contract": "contracts/v2/cow/KapanConditionalOrderManager.sol:KapanConditionalOrderManager",
            "label": "user",
            "offset": 0,
            "slot": "0",
            "type": "t_address"
          },
          {
            "astId": 1014,
            "contract": "contracts/v2/cow/KapanConditionalOrderManager.sol:KapanConditionalOrderManager",
            "label": "trigger",
            "offset": 0,
            "slot": "1",
            "type": "t_address"
          },
          {
            "astId": 1016,
            "contract": "contracts/v2/cow/KapanConditionalOrderManager.sol:KapanConditionalOrderManager",
            "label": "triggerStaticData",
            "offset": 0,
            "slot": "2",
            "type": "t_bytes_storage"
          },
          {
            "astId": 1018,
            "contract": "contracts/v2/cow/KapanConditionalOrderManager.sol:KapanConditionalOrderManager",
            "label": "preInstructions",
            "offset": 0,
            "slot": "3",
            "type": "t_bytes_storage"
          },
          {
            "astId": 1020,
            "contract": "contracts/v2/cow/KapanConditionalOrderManager.sol:KapanConditionalOrderManager",
            "label": "sellToken",
            "offset": 0,
            "slot": "4",
            "type": "t_address"
          },
          {
            "astId": 1022,
            "contract": "contracts/v2/cow/KapanConditionalOrderManager.sol:KapanConditionalOrderManager",
            "label": "buyToken",
            "offset": 0,
            "slot": "5",
            "type": "t_address"
          },
          {
            "astId": 1024,
            "contract": "contracts/v2/cow/KapanConditionalOrderManager.sol:KapanConditionalOrderManager",
            "label": "postInstructions",
            "offset": 0,
            "slot": "6",
            "type": "t_bytes_storage"
          },
          {
            "astId": 1026,
            "contract": "contracts/v2/cow/KapanConditionalOrderManager.sol:KapanConditionalOrderManager",
            "label": "appDataHash",
            "offset": 0,
            "slot": "7",
            "type": "t_bytes32"
          },
          {
            "astId": 1028,
            "contract": "contracts/v2/cow/KapanConditionalOrderManager.sol:KapanConditionalOrderManager",
            "label": "maxIterations",
            "offset": 0,
            "slot": "8",
            "type": "t_uint256"
          },
          {
            "astId": 1030,
            "contract": "contracts/v2/cow/KapanConditionalOrderManager.sol:KapanConditionalOrderManager",
            "label": "sellTokenRefundAddress",
            "offset": 0,
            "slot": "9",
            "type": "t_address"
          },
          {
            "astId": 1032,
            "contract": "contracts/v2/cow/KapanConditionalOrderManager.sol:KapanConditionalOrderManager",
            "label": "isKindBuy",
            "offset": 20,
            "slot": "9",
            "type": "t_bool"
          }
        ],
        "numberOfBytes": "320"
      },
      "t_struct(OrderContext)1045_storage": {
        "encoding": "inplace",
        "label": "struct KapanConditionalOrderManager.OrderContext",
        "members": [
          {
            "astId": 1037,
            "contract": "contracts/v2/cow/KapanConditionalOrderManager.sol:KapanConditionalOrderManager",
            "label": "params",
            "offset": 0,
            "slot": "0",
            "type": "t_struct(KapanOrderParams)1033_storage"
          },
          {
            "astId": 1040,
            "contract": "contracts/v2/cow/KapanConditionalOrderManager.sol:KapanConditionalOrderManager",
            "label": "status",
            "offset": 0,
            "slot": "10",
            "type": "t_enum(OrderStatus)1000"
          },
          {
            "astId": 1042,
            "contract": "contracts/v2/cow/KapanConditionalOrderManager.sol:KapanConditionalOrderManager",
            "label": "iterationCount",
            "offset": 0,
            "slot": "11",
            "type": "t_uint256"
          },
          {
            "astId": 1044,
            "contract": "contracts/v2/cow/KapanConditionalOrderManager.sol:KapanConditionalOrderManager",
            "label": "createdAt",
            "offset": 0,
            "slot": "12",
            "type": "t_uint256"
          }
        ],
        "numberOfBytes": "416"
      },
      "t_uint256": {
        "encoding": "inplace",
        "label": "uint256",
        "numberOfBytes": "32"
      }
    }
  }
}