{
  "address": "0x002d8F30002c425e3afAd1E87A50A44Ef8926dE7",
  "abi": [
    {
      "inputs": [
        {
          "internalType": "address",
          "name": "_owner",
          "type": "address"
        },
        {
          "internalType": "address",
          "name": "_router",
          "type": "address"
        },
        {
          "internalType": "address",
          "name": "_composableCoW",
          "type": "address"
        },
        {
          "internalType": "address",
          "name": "_settlement",
          "type": "address"
        },
        {
          "internalType": "address",
          "name": "_hooksTrampoline",
          "type": "address"
        }
      ],
      "stateMutability": "nonpayable",
      "type": "constructor"
    },
    {
      "inputs": [
        {
          "internalType": "address",
          "name": "target",
          "type": "address"
        }
      ],
      "name": "AddressEmptyCode",
      "type": "error"
    },
    {
      "inputs": [
        {
          "internalType": "address",
          "name": "account",
          "type": "address"
        }
      ],
      "name": "AddressInsufficientBalance",
      "type": "error"
    },
    {
      "inputs": [],
      "name": "CannotCancelMidExecution",
      "type": "error"
    },
    {
      "inputs": [],
      "name": "FailedInnerCall",
      "type": "error"
    },
    {
      "inputs": [],
      "name": "HookExecutionFailed",
      "type": "error"
    },
    {
      "inputs": [
        {
          "internalType": "address",
          "name": "expected",
          "type": "address"
        },
        {
          "internalType": "address",
          "name": "actual",
          "type": "address"
        }
      ],
      "name": "InstructionUserMismatch",
      "type": "error"
    },
    {
      "inputs": [],
      "name": "InvalidHandler",
      "type": "error"
    },
    {
      "inputs": [],
      "name": "InvalidOrderState",
      "type": "error"
    },
    {
      "inputs": [],
      "name": "NotHooksTrampoline",
      "type": "error"
    },
    {
      "inputs": [],
      "name": "OrderAlreadyExists",
      "type": "error"
    },
    {
      "inputs": [],
      "name": "OrderNotFound",
      "type": "error"
    },
    {
      "inputs": [
        {
          "internalType": "address",
          "name": "owner",
          "type": "address"
        }
      ],
      "name": "OwnableInvalidOwner",
      "type": "error"
    },
    {
      "inputs": [
        {
          "internalType": "address",
          "name": "account",
          "type": "address"
        }
      ],
      "name": "OwnableUnauthorizedAccount",
      "type": "error"
    },
    {
      "inputs": [],
      "name": "PreHookAlreadyExecuted",
      "type": "error"
    },
    {
      "inputs": [],
      "name": "PreHookNotExecuted",
      "type": "error"
    },
    {
      "inputs": [],
      "name": "ReentrancyGuardReentrantCall",
      "type": "error"
    },
    {
      "inputs": [
        {
          "internalType": "address",
          "name": "token",
          "type": "address"
        }
      ],
      "name": "SafeERC20FailedOperation",
      "type": "error"
    },
    {
      "inputs": [],
      "name": "Unauthorized",
      "type": "error"
    },
    {
      "inputs": [],
      "name": "ZeroAddress",
      "type": "error"
    },
    {
      "anonymous": false,
      "inputs": [
        {
          "indexed": true,
          "internalType": "bytes32",
          "name": "orderHash",
          "type": "bytes32"
        },
        {
          "indexed": false,
          "internalType": "uint256",
          "name": "chunkIndex",
          "type": "uint256"
        },
        {
          "indexed": false,
          "internalType": "uint256",
          "name": "sellAmount",
          "type": "uint256"
        },
        {
          "indexed": false,
          "internalType": "uint256",
          "name": "buyAmount",
          "type": "uint256"
        }
      ],
      "name": "ChunkExecuted",
      "type": "event"
    },
    {
      "anonymous": false,
      "inputs": [
        {
          "indexed": true,
          "internalType": "address",
          "name": "oldComposableCoW",
          "type": "address"
        },
        {
          "indexed": true,
          "internalType": "address",
          "name": "newComposableCoW",
          "type": "address"
        }
      ],
      "name": "ComposableCoWUpdated",
      "type": "event"
    },
    {
      "anonymous": false,
      "inputs": [
        {
          "indexed": true,
          "internalType": "address",
          "name": "oldAdapter",
          "type": "address"
        },
        {
          "indexed": true,
          "internalType": "address",
          "name": "newAdapter",
          "type": "address"
        }
      ],
      "name": "CowAdapterUpdated",
      "type": "event"
    },
    {
      "anonymous": false,
      "inputs": [
        {
          "indexed": true,
          "internalType": "address",
          "name": "oldTrampoline",
          "type": "address"
        },
        {
          "indexed": true,
          "internalType": "address",
          "name": "newTrampoline",
          "type": "address"
        }
      ],
      "name": "HooksTrampolineUpdated",
      "type": "event"
    },
    {
      "anonymous": false,
      "inputs": [
        {
          "indexed": true,
          "internalType": "bytes32",
          "name": "orderHash",
          "type": "bytes32"
        },
        {
          "indexed": true,
          "internalType": "address",
          "name": "user",
          "type": "address"
        }
      ],
      "name": "OrderCancelled",
      "type": "event"
    },
    {
      "anonymous": false,
      "inputs": [
        {
          "indexed": true,
          "internalType": "bytes32",
          "name": "orderHash",
          "type": "bytes32"
        },
        {
          "indexed": true,
          "internalType": "address",
          "name": "user",
          "type": "address"
        },
        {
          "indexed": false,
          "internalType": "uint256",
          "name": "totalExecuted",
          "type": "uint256"
        }
      ],
      "name": "OrderCompleted",
      "type": "event"
    },
    {
      "anonymous": false,
      "inputs": [
        {
          "indexed": true,
          "internalType": "bytes32",
          "name": "orderHash",
          "type": "bytes32"
        },
        {
          "indexed": true,
          "internalType": "address",
          "name": "user",
          "type": "address"
        },
        {
          "indexed": false,
          "internalType": "address",
          "name": "sellToken",
          "type": "address"
        },
        {
          "indexed": false,
          "internalType": "address",
          "name": "buyToken",
          "type": "address"
        },
        {
          "indexed": false,
          "internalType": "uint256",
          "name": "totalAmount",
          "type": "uint256"
        },
        {
          "indexed": false,
          "internalType": "uint256",
          "name": "chunkSize",
          "type": "uint256"
        }
      ],
      "name": "OrderCreated",
      "type": "event"
    },
    {
      "anonymous": false,
      "inputs": [
        {
          "indexed": true,
          "internalType": "address",
          "name": "oldHandler",
          "type": "address"
        },
        {
          "indexed": true,
          "internalType": "address",
          "name": "newHandler",
          "type": "address"
        }
      ],
      "name": "OrderHandlerUpdated",
      "type": "event"
    },
    {
      "anonymous": false,
      "inputs": [
        {
          "indexed": true,
          "internalType": "address",
          "name": "previousOwner",
          "type": "address"
        },
        {
          "indexed": true,
          "internalType": "address",
          "name": "newOwner",
          "type": "address"
        }
      ],
      "name": "OwnershipTransferred",
      "type": "event"
    },
    {
      "anonymous": false,
      "inputs": [
        {
          "indexed": true,
          "internalType": "bytes32",
          "name": "orderHash",
          "type": "bytes32"
        },
        {
          "indexed": false,
          "internalType": "uint256",
          "name": "chunkIndex",
          "type": "uint256"
        },
        {
          "indexed": false,
          "internalType": "uint256",
          "name": "receivedAmount",
          "type": "uint256"
        }
      ],
      "name": "PostHookExecuted",
      "type": "event"
    },
    {
      "anonymous": false,
      "inputs": [
        {
          "indexed": true,
          "internalType": "bytes32",
          "name": "orderHash",
          "type": "bytes32"
        },
        {
          "indexed": false,
          "internalType": "uint256",
          "name": "chunkIndex",
          "type": "uint256"
        }
      ],
      "name": "PreHookExecuted",
      "type": "event"
    },
    {
      "anonymous": false,
      "inputs": [
        {
          "indexed": true,
          "internalType": "address",
          "name": "oldRouter",
          "type": "address"
        },
        {
          "indexed": true,
          "internalType": "address",
          "name": "newRouter",
          "type": "address"
        }
      ],
      "name": "RouterUpdated",
      "type": "event"
    },
    {
      "inputs": [
        {
          "internalType": "address",
          "name": "token",
          "type": "address"
        }
      ],
      "name": "approveVaultRelayer",
      "outputs": [],
      "stateMutability": "nonpayable",
      "type": "function"
    },
    {
      "inputs": [
        {
          "internalType": "bytes32",
          "name": "orderHash",
          "type": "bytes32"
        }
      ],
      "name": "cancelOrder",
      "outputs": [],
      "stateMutability": "nonpayable",
      "type": "function"
    },
    {
      "inputs": [],
      "name": "composableCoW",
      "outputs": [
        {
          "internalType": "contract IComposableCoW",
          "name": "",
          "type": "address"
        }
      ],
      "stateMutability": "view",
      "type": "function"
    },
    {
      "inputs": [],
      "name": "cowAdapter",
      "outputs": [
        {
          "internalType": "contract IKapanCowAdapter",
          "name": "",
          "type": "address"
        }
      ],
      "stateMutability": "view",
      "type": "function"
    },
    {
      "inputs": [
        {
          "components": [
            {
              "internalType": "address",
              "name": "user",
              "type": "address"
            },
            {
              "internalType": "bytes[]",
              "name": "preInstructionsPerIteration",
              "type": "bytes[]"
            },
            {
              "internalType": "uint256",
              "name": "preTotalAmount",
              "type": "uint256"
            },
            {
              "internalType": "address",
              "name": "sellToken",
              "type": "address"
            },
            {
              "internalType": "address",
              "name": "buyToken",
              "type": "address"
            },
            {
              "internalType": "uint256",
              "name": "chunkSize",
              "type": "uint256"
            },
            {
              "internalType": "uint256",
              "name": "minBuyPerChunk",
              "type": "uint256"
            },
            {
              "internalType": "bytes[]",
              "name": "postInstructionsPerIteration",
              "type": "bytes[]"
            },
            {
              "internalType": "enum KapanOrderManager.CompletionType",
              "name": "completion",
              "type": "uint8"
            },
            {
              "internalType": "uint256",
              "name": "targetValue",
              "type": "uint256"
            },
            {
              "internalType": "uint256",
              "name": "minHealthFactor",
              "type": "uint256"
            },
            {
              "internalType": "bytes32",
              "name": "appDataHash",
              "type": "bytes32"
            },
            {
              "internalType": "bool",
              "name": "isFlashLoanOrder",
              "type": "bool"
            },
            {
              "internalType": "bool",
              "name": "isKindBuy",
              "type": "bool"
            }
          ],
          "internalType": "struct KapanOrderManager.KapanOrderParams",
          "name": "params",
          "type": "tuple"
        },
        {
          "internalType": "bytes32",
          "name": "salt",
          "type": "bytes32"
        },
        {
          "internalType": "uint256",
          "name": "seedAmount",
          "type": "uint256"
        }
      ],
      "name": "createOrder",
      "outputs": [
        {
          "internalType": "bytes32",
          "name": "orderHash",
          "type": "bytes32"
        }
      ],
      "stateMutability": "nonpayable",
      "type": "function"
    },
    {
      "inputs": [
        {
          "internalType": "bytes32",
          "name": "orderHash",
          "type": "bytes32"
        }
      ],
      "name": "executePostHook",
      "outputs": [],
      "stateMutability": "nonpayable",
      "type": "function"
    },
    {
      "inputs": [
        {
          "internalType": "address",
          "name": "user",
          "type": "address"
        },
        {
          "internalType": "bytes32",
          "name": "salt",
          "type": "bytes32"
        }
      ],
      "name": "executePostHookBySalt",
      "outputs": [],
      "stateMutability": "nonpayable",
      "type": "function"
    },
    {
      "inputs": [
        {
          "internalType": "bytes32",
          "name": "orderHash",
          "type": "bytes32"
        }
      ],
      "name": "executePreHook",
      "outputs": [],
      "stateMutability": "nonpayable",
      "type": "function"
    },
    {
      "inputs": [
        {
          "internalType": "address",
          "name": "user",
          "type": "address"
        },
        {
          "internalType": "bytes32",
          "name": "salt",
          "type": "bytes32"
        }
      ],
      "name": "executePreHookBySalt",
      "outputs": [],
      "stateMutability": "nonpayable",
      "type": "function"
    },
    {
      "inputs": [
        {
          "internalType": "bytes32",
          "name": "orderHash",
          "type": "bytes32"
        }
      ],
      "name": "getOrder",
      "outputs": [
        {
          "components": [
            {
              "components": [
                {
                  "internalType": "address",
                  "name": "user",
                  "type": "address"
                },
                {
                  "internalType": "bytes[]",
                  "name": "preInstructionsPerIteration",
                  "type": "bytes[]"
                },
                {
                  "internalType": "uint256",
                  "name": "preTotalAmount",
                  "type": "uint256"
                },
                {
                  "internalType": "address",
                  "name": "sellToken",
                  "type": "address"
                },
                {
                  "internalType": "address",
                  "name": "buyToken",
                  "type": "address"
                },
                {
                  "internalType": "uint256",
                  "name": "chunkSize",
                  "type": "uint256"
                },
                {
                  "internalType": "uint256",
                  "name": "minBuyPerChunk",
                  "type": "uint256"
                },
                {
                  "internalType": "bytes[]",
                  "name": "postInstructionsPerIteration",
                  "type": "bytes[]"
                },
                {
                  "internalType": "enum KapanOrderManager.CompletionType",
                  "name": "completion",
                  "type": "uint8"
                },
                {
                  "internalType": "uint256",
                  "name": "targetValue",
                  "type": "uint256"
                },
                {
                  "internalType": "uint256",
                  "name": "minHealthFactor",
                  "type": "uint256"
                },
                {
                  "internalType": "bytes32",
                  "name": "appDataHash",
                  "type": "bytes32"
                },
                {
                  "internalType": "bool",
                  "name": "isFlashLoanOrder",
                  "type": "bool"
                },
                {
                  "internalType": "bool",
                  "name": "isKindBuy",
                  "type": "bool"
                }
              ],
              "internalType": "struct KapanOrderManager.KapanOrderParams",
              "name": "params",
              "type": "tuple"
            },
            {
              "internalType": "enum KapanOrderManager.OrderStatus",
              "name": "status",
              "type": "uint8"
            },
            {
              "internalType": "uint256",
              "name": "executedAmount",
              "type": "uint256"
            },
            {
              "internalType": "uint256",
              "name": "iterationCount",
              "type": "uint256"
            },
            {
              "internalType": "uint256",
              "name": "createdAt",
              "type": "uint256"
            }
          ],
          "internalType": "struct KapanOrderManager.OrderContext",
          "name": "",
          "type": "tuple"
        }
      ],
      "stateMutability": "view",
      "type": "function"
    },
    {
      "inputs": [
        {
          "internalType": "address",
          "name": "user",
          "type": "address"
        }
      ],
      "name": "getUserOrders",
      "outputs": [
        {
          "internalType": "bytes32[]",
          "name": "",
          "type": "bytes32[]"
        }
      ],
      "stateMutability": "view",
      "type": "function"
    },
    {
      "inputs": [],
      "name": "hooksTrampoline",
      "outputs": [
        {
          "internalType": "address",
          "name": "",
          "type": "address"
        }
      ],
      "stateMutability": "view",
      "type": "function"
    },
    {
      "inputs": [
        {
          "internalType": "bytes32",
          "name": "orderHash",
          "type": "bytes32"
        }
      ],
      "name": "isOrderComplete",
      "outputs": [
        {
          "internalType": "bool",
          "name": "",
          "type": "bool"
        }
      ],
      "stateMutability": "view",
      "type": "function"
    },
    {
      "inputs": [
        {
          "internalType": "bytes32",
          "name": "_hash",
          "type": "bytes32"
        },
        {
          "internalType": "bytes",
          "name": "_signature",
          "type": "bytes"
        }
      ],
      "name": "isValidSignature",
      "outputs": [
        {
          "internalType": "bytes4",
          "name": "",
          "type": "bytes4"
        }
      ],
      "stateMutability": "view",
      "type": "function"
    },
    {
      "inputs": [],
      "name": "orderHandler",
      "outputs": [
        {
          "internalType": "address",
          "name": "",
          "type": "address"
        }
      ],
      "stateMutability": "view",
      "type": "function"
    },
    {
      "inputs": [
        {
          "internalType": "bytes32",
          "name": "",
          "type": "bytes32"
        }
      ],
      "name": "orderSalts",
      "outputs": [
        {
          "internalType": "bytes32",
          "name": "",
          "type": "bytes32"
        }
      ],
      "stateMutability": "view",
      "type": "function"
    },
    {
      "inputs": [
        {
          "internalType": "bytes32",
          "name": "",
          "type": "bytes32"
        }
      ],
      "name": "orderSeedBalance",
      "outputs": [
        {
          "internalType": "uint256",
          "name": "",
          "type": "uint256"
        }
      ],
      "stateMutability": "view",
      "type": "function"
    },
    {
      "inputs": [
        {
          "internalType": "bytes32",
          "name": "",
          "type": "bytes32"
        }
      ],
      "name": "orders",
      "outputs": [
        {
          "components": [
            {
              "internalType": "address",
              "name": "user",
              "type": "address"
            },
            {
              "internalType": "bytes[]",
              "name": "preInstructionsPerIteration",
              "type": "bytes[]"
            },
            {
              "internalType": "uint256",
              "name": "preTotalAmount",
              "type": "uint256"
            },
            {
              "internalType": "address",
              "name": "sellToken",
              "type": "address"
            },
            {
              "internalType": "address",
              "name": "buyToken",
              "type": "address"
            },
            {
              "internalType": "uint256",
              "name": "chunkSize",
              "type": "uint256"
            },
            {
              "internalType": "uint256",
              "name": "minBuyPerChunk",
              "type": "uint256"
            },
            {
              "internalType": "bytes[]",
              "name": "postInstructionsPerIteration",
              "type": "bytes[]"
            },
            {
              "internalType": "enum KapanOrderManager.CompletionType",
              "name": "completion",
              "type": "uint8"
            },
            {
              "internalType": "uint256",
              "name": "targetValue",
              "type": "uint256"
            },
            {
              "internalType": "uint256",
              "name": "minHealthFactor",
              "type": "uint256"
            },
            {
              "internalType": "bytes32",
              "name": "appDataHash",
              "type": "bytes32"
            },
            {
              "internalType": "bool",
              "name": "isFlashLoanOrder",
              "type": "bool"
            },
            {
              "internalType": "bool",
              "name": "isKindBuy",
              "type": "bool"
            }
          ],
          "internalType": "struct KapanOrderManager.KapanOrderParams",
          "name": "params",
          "type": "tuple"
        },
        {
          "internalType": "enum KapanOrderManager.OrderStatus",
          "name": "status",
          "type": "uint8"
        },
        {
          "internalType": "uint256",
          "name": "executedAmount",
          "type": "uint256"
        },
        {
          "internalType": "uint256",
          "name": "iterationCount",
          "type": "uint256"
        },
        {
          "internalType": "uint256",
          "name": "createdAt",
          "type": "uint256"
        }
      ],
      "stateMutability": "view",
      "type": "function"
    },
    {
      "inputs": [],
      "name": "owner",
      "outputs": [
        {
          "internalType": "address",
          "name": "",
          "type": "address"
        }
      ],
      "stateMutability": "view",
      "type": "function"
    },
    {
      "inputs": [
        {
          "internalType": "bytes32",
          "name": "",
          "type": "bytes32"
        }
      ],
      "name": "preHookBuyBalance",
      "outputs": [
        {
          "internalType": "uint256",
          "name": "",
          "type": "uint256"
        }
      ],
      "stateMutability": "view",
      "type": "function"
    },
    {
      "inputs": [
        {
          "internalType": "bytes32",
          "name": "",
          "type": "bytes32"
        }
      ],
      "name": "preHookExecutedForIteration",
      "outputs": [
        {
          "internalType": "uint256",
          "name": "",
          "type": "uint256"
        }
      ],
      "stateMutability": "view",
      "type": "function"
    },
    {
      "inputs": [
        {
          "internalType": "bytes32",
          "name": "",
          "type": "bytes32"
        }
      ],
      "name": "preHookSellBalance",
      "outputs": [
        {
          "internalType": "uint256",
          "name": "",
          "type": "uint256"
        }
      ],
      "stateMutability": "view",
      "type": "function"
    },
    {
      "inputs": [
        {
          "internalType": "address",
          "name": "token",
          "type": "address"
        },
        {
          "internalType": "address",
          "name": "to",
          "type": "address"
        },
        {
          "internalType": "uint256",
          "name": "amount",
          "type": "uint256"
        }
      ],
      "name": "recoverTokens",
      "outputs": [],
      "stateMutability": "nonpayable",
      "type": "function"
    },
    {
      "inputs": [],
      "name": "renounceOwnership",
      "outputs": [],
      "stateMutability": "nonpayable",
      "type": "function"
    },
    {
      "inputs": [],
      "name": "router",
      "outputs": [
        {
          "internalType": "contract IKapanRouter",
          "name": "",
          "type": "address"
        }
      ],
      "stateMutability": "view",
      "type": "function"
    },
    {
      "inputs": [
        {
          "internalType": "address",
          "name": "_composableCoW",
          "type": "address"
        }
      ],
      "name": "setComposableCoW",
      "outputs": [],
      "stateMutability": "nonpayable",
      "type": "function"
    },
    {
      "inputs": [
        {
          "internalType": "address",
          "name": "_cowAdapter",
          "type": "address"
        }
      ],
      "name": "setCowAdapter",
      "outputs": [],
      "stateMutability": "nonpayable",
      "type": "function"
    },
    {
      "inputs": [
        {
          "internalType": "address",
          "name": "_hooksTrampoline",
          "type": "address"
        }
      ],
      "name": "setHooksTrampoline",
      "outputs": [],
      "stateMutability": "nonpayable",
      "type": "function"
    },
    {
      "inputs": [
        {
          "internalType": "address",
          "name": "_handler",
          "type": "address"
        }
      ],
      "name": "setOrderHandler",
      "outputs": [],
      "stateMutability": "nonpayable",
      "type": "function"
    },
    {
      "inputs": [
        {
          "internalType": "address",
          "name": "_router",
          "type": "address"
        }
      ],
      "name": "setRouter",
      "outputs": [],
      "stateMutability": "nonpayable",
      "type": "function"
    },
    {
      "inputs": [],
      "name": "settlement",
      "outputs": [
        {
          "internalType": "contract IGPv2Settlement",
          "name": "",
          "type": "address"
        }
      ],
      "stateMutability": "view",
      "type": "function"
    },
    {
      "inputs": [
        {
          "internalType": "address",
          "name": "newOwner",
          "type": "address"
        }
      ],
      "name": "transferOwnership",
      "outputs": [],
      "stateMutability": "nonpayable",
      "type": "function"
    },
    {
      "inputs": [
        {
          "internalType": "address",
          "name": "",
          "type": "address"
        },
        {
          "internalType": "uint256",
          "name": "",
          "type": "uint256"
        }
      ],
      "name": "userOrders",
      "outputs": [
        {
          "internalType": "bytes32",
          "name": "",
          "type": "bytes32"
        }
      ],
      "stateMutability": "view",
      "type": "function"
    },
    {
      "inputs": [
        {
          "internalType": "address",
          "name": "",
          "type": "address"
        },
        {
          "internalType": "bytes32",
          "name": "",
          "type": "bytes32"
        }
      ],
      "name": "userSaltToOrderHash",
      "outputs": [
        {
          "internalType": "bytes32",
          "name": "",
          "type": "bytes32"
        }
      ],
      "stateMutability": "view",
      "type": "function"
    }
  ],
  "transactionHash": "0x999fa96a19138f2615e4572dd7aee63df74cf589b2dd9700be0f6da9ba8ac459",
  "args": [
    "0x0BE61223F99E57b8b8B7033a77B54Adc7f7cF027",
    "0xdb9EF2055622b194A00eD80F0FCDd80F090b505E",
    "0xfdaFc9d1902f4e0b84f65F49f244b32b31013b74",
    "0x9008D19f58AAbD9eD0D60971565AA8510560ab41",
    "0x60Bf78233f48eC42eE3F101b9a05eC7878728006"
  ],
  "numDeployments": 14,
  "solcInputHash": "99dd42a1f45aca899f6c999b82a0e377",
  "bytecode": "0x60803461018557601f613f5638819003918201601f19168301916001600160401b038311848410176101895780849260a094604052833981010312610185576100478161019d565b906100546020820161019d565b916100616040830161019d565b9161007a60806100736060840161019d565b920161019d565b6001600160a01b03909216938415610172575f80546001600160a01b031981168717825560405196916001600160a01b03909116907f8be0079c531659141344cd1fd0a4f28419497f9722a3daafe3b4186f6b6457e09080a3600180556001600160a01b0316928315610163576001600160a01b0316908115610163576001600160a01b0316918215610163576001600160a01b03169283156101635760018060a01b0319600254161760025560018060a01b0319600354161760035560018060a01b0319600454161760045560018060a01b03196005541617600555613da490816101b28239f35b63d92e233d60e01b5f5260045ffd5b631e4fbdf760e01b5f525f60045260245ffd5b5f80fd5b634e487b7160e01b5f52604160045260245ffd5b51906001600160a01b03821682036101855756fe60806040526004361015610011575f80fd5b5f5f3560e01c80631626ba7e14611a385780632fbff5a4146119e2578063304d313e1461196057806330da193a146118f7578063507f0e74146118cd57806351160630146118a557806351fe1db51461187b5780635778472a146117375780635f3e849f146116ea57806363c69f08146116605780636edd27ff1461162d578063715018a6146115e95780637489ec23146113ab5780637fa165b0146113825780638009fb6a1461132057806381e6d3ce146112f7578063856652e9146112a05780638b0f4834146112775780638da5cb5b14611250578063988ccc16146111db5780639c3f1e901461115e578063b584830514611135578063c0d78655146110c0578063c3cdefe514611096578063c73bb4bd14610fdc578063caf2185614610fb7578063cea4b43614610f74578063d08bdbf314610332578063d22b058614610308578063d7a3aca714610284578063e0b787e414610258578063ea6971861461022e578063f2fde38b146101bb5763f887ea4014610190575f80fd5b346101b857806003193601126101b8576002546040516001600160a01b039091168152602090f35b80fd5b50346101b85760203660031901126101b8576101d5611aaa565b6101dd61323a565b6001600160a01b0316801561021a5781546001600160a01b03198116821783556001600160a01b03165f516020613d4f5f395f51905f528380a380f35b631e4fbdf760e01b82526004829052602482fd5b50346101b85760203660031901126101b85760406020916004358152600f83522054604051908152f35b50346101b85760203660031901126101b857610272612893565b61027d600435613338565b6001805580f35b50346101b85760203660031901126101b85761029e611aaa565b6102a661323a565b6001600160a01b031680156102f957600680546001600160a01b0319811683179091556001600160a01b03167f7bf6e789688cd776b5170517f39970fea2870a79d649c8443dd2b0ec62823eb78380a380f35b63d92e233d60e01b8252600482fd5b50346101b85760203660031901126101b85760406020916004358152600c83522054604051908152f35b50346101b85760603660031901126101b8576001600160401b03600435116101b8576101c0600435360360031901126101b85761036d612893565b61037b6004356004016126eb565b336001600160a01b0390911603610f66576006546001600160a01b031615610f57576103be6103b46024600435016004356004016126ff565b903091339161379d565b6103d56103b460e4600435016004356004016126ff565b604051606060208201908152906001600160a01b036103f76004803501611ac0565b1660808201526104ab61042a610417602460043501600435600401612734565b6101c060a0860152610240850191612769565b600435604481013560c08501526001600160a01b039061044c90606401611ac0565b1660e08401526001600160a01b03610468600435608401611ac0565b166101008401526004803560a481013561012086015260c48101356101408601526104989160e482019101612734565b848303607f190161016086015290612769565b6004610104813501351015610b42578161054a916104cf6101046004350135611b50565b6004356101048101356101808401526101248101356101a08401526101448101356101c08401526101648101356101e084015261050f9061018401611f74565b15156102008301526105266101a460043501611f74565b1515610220830152602435604083015242606083015203601f198101835282611d3c565b519020808252600860205260ff600d6040842001541661056981611b50565b610f4857604435610ee0575b6040519061058282611c9f565b60405161058e81611cce565b61059c600435600401611ac0565b81526001600160401b036004356024013511610b42576105c63660048035602481013501016127ff565b60208201526044600435013560408201526105e5606460043501611ac0565b60608201526105f8608460043501611ac0565b608082015260043560a481013560a083015260c481013560c083015260e401356001600160401b038111610edc576106379060043691813501016127ff565b60e082015260043561010481013561010083015261012481013561012083015261014481013561014083015261016481013561016083015261067c9061018401611f74565b6101808201526106916101a460043501611f74565b6101a08201528252600160208084018281526040808601878152606087018881524260808901908152878a52600886529289209751805189546001600160a01b0319166001600160a01b0391909116178955948501518051959896939591949293870190600160401b8311610d44578154838355808410610e5e575b50602001908a5260208a208a915b838310610d5857505050506040870151600286015560608701516003860180546001600160a01b039283166001600160a01b031991821617909155608089015160048801805491909316911617905560a0870151600586015560c0870151600686015560e0870151805197906007870190600160401b8a11610d445781548a8355808b10610cc6575b50602001908a5260208a208a915b8a8310610b9557505050859697506008601096016101008201516107d581611b50565b6107de81611b50565b60ff801983541691161790556101208101516009880155610140810151600a880155610160810151600b880155600c87019061018081015115159060ff61ff006101a08554930151151560081b1692169061ffff191617179055600d8601905161084781611b50565b61085081611b50565b60ff8019835416911617905551600e85015551600f840155519101558082526009602052602435604083205560018060a01b036108916004356004016126eb565b168252600a60205260408220805490600160401b821015610b8157906108bc91600182018155611c76565b81545f1960039290921b91821b19169083901b1790556001600160a01b036108e760048035016126eb565b168252600b6020526040822060243583526020528060408320558160018060a01b036006541660405183602082015260208152610925604082611d3c565b6040519161093283611cea565b8252602435602083015260408201526003546001600160a01b0316803b15610b7d5761098083929183926040519485809481936335fd70e560e11b8352604060048401526044830190612061565b6001602483015203925af18015610b7257610b59575b505060046109a760648235016126eb565b8154604051634daa966160e11b81529260209184919082906001600160a01b03165afa918215610b4e578492610b0e575b50604051636eb1769f60e11b81523060048201526001600160a01b038381166024830152909491169190602085604481865afa908115610b025790610acb575b602094506001600160ff1b0311610abb575b5050610a3a6004356004016126eb565b817f961e6438a987eab19d9850691e56ca64f442dbb689801b0f3cfc1381c98ed15e6080610a6c6064600435016126eb565b93610a7b6084600435016126eb565b604080516001600160a01b0397881681529187168983015260043560448101359183019190915260a401356060820152941693a360018055604051908152f35b610ac4916136b8565b5f80610a2a565b506020843d602011610afa575b81610ae560209383611d3c565b81010312610af65760209351610a18565b5f80fd5b3d9150610ad8565b604051903d90823e3d90fd5b9091506020813d602011610b46575b81610b2a60209383611d3c565b81010312610b4257610b3b90611ff0565b905f6109d8565b8380fd5b3d9150610b1d565b6040513d86823e3d90fd5b81610b6391611d3c565b610b6e57815f610996565b5080fd5b6040513d84823e3d90fd5b8280fd5b634e487b7160e01b84526041600452602484fd5b80518051906001600160401b038211610cb2578d90610bb48554611d76565b601f8111610c77575b50602091601f8411600114610c0f578360019592946020948796610bf59492610c04575b50508160011b915f199060031b1c19161790565b85555b019201920191906107b2565b015190505f80610be1565b9190601f198416868452828420935b818110610c5f5750936020936001969387969383889510610c47575b505050811b018555610bf8565b01515f1960f88460031b161c191690555f8080610c3a565b92936020600181928786015181550195019301610c1e565b610ca29086845260208420601f860160051c81019160208710610ca8575b601f0160051c019061287d565b5f610bbd565b9091508190610c95565b634e487b7160e01b8e52604160045260248efd5b828c528a60208d2091820191015b8c828210610ce35750506107a4565b9080600192610cf28254611d76565b80610d01575b50505001610cd4565b601f81118514610d1a575050508d81555b808e5f610cf8565b82825260208220610d3591601f0160051c810190860161287d565b528d6020812081835555610d12565b634e487b7160e01b8b52604160045260248bfd5b80518051906001600160401b038211610cb2578d90610d778554611d76565b601f8111610e2e575b50602091601f8411600114610dc6578360019592946020948796610db79492610c045750508160011b915f199060031b1c19161790565b85555b0192019201919061071b565b9190601f198416868452828420935b818110610e165750936020936001969387969383889510610dfe575b505050811b018555610dba565b01515f1960f88460031b161c191690555f8080610df1565b92936020600181928786015181550195019301610dd5565b610e589086845260208420601f860160051c81019160208710610ca857601f0160051c019061287d565b5f610d80565b828c528360208d2091820191015b8c828210610e7b57505061070d565b9080600192610e8a8254611d76565b80610e99575b50505001610e6c565b601f81118514610eb2575050508d81555b808e5f610e90565b82825260208220610ecd91601f0160051c810190860161287d565b528d6020812081835555610eaa565b8480fd5b610f336001600160a01b03610ef96004356064016126eb565b16604051906323b872dd60e01b6020830152336024830152306044830152604435606483015260648252610f2e608483611d3c565b613c2e565b808252600d6020526044356040832055610575565b63966753c560e01b8252600482fd5b63d8f59fa560e01b8152600490fd5b6282b42960e81b8152600490fd5b50346101b85760403660031901126101b8576020906040906001600160a01b03610f9c611aaa565b168152600b8352818120602435825283522054604051908152f35b50346101b85760203660031901126101b857610fd1612893565b61027d600435612b0c565b50346101b85760203660031901126101b857610ff6611aaa565b610ffe61323a565b6001600160a01b031680156102f95760048054604051634daa966160e11b8152929160209184919082906001600160a01b03165afa90811561108b57839161104e575b61104b92506136b8565b80f35b90506020823d602011611083575b8161106960209383611d3c565b81010312610b7d5761107d61104b92611ff0565b90611041565b3d915061105c565b6040513d85823e3d90fd5b50346101b85760203660031901126101b85760406020916004358152600d83522054604051908152f35b50346101b85760203660031901126101b8576110da611aaa565b6110e261323a565b6001600160a01b031680156102f957600280546001600160a01b0319811683179091556001600160a01b03167f02dc5c233404867c793b749c6d644beb2277536d18a7e7974d3f238e4c6f16848380a380f35b50346101b857806003193601126101b8576006546040516001600160a01b039091168152602090f35b50346101b85760203660031901126101b85760406111b991600435815260086020522061118a81611ea3565b9060ff600d8201541690600e810154906010600f8201549101549160405195869560a0875260a0870190611b6e565b936111c381611b50565b60208601526040850152606084015260808301520390f35b50346101b85760203660031901126101b8576111f5611aaa565b6111fd61323a565b6001600160a01b031680156102f957600380546001600160a01b0319811683179091556001600160a01b03167f5ee1511014357e81e6a0e8a9bf9d80be6c56a0922d067518ddc6f7a2f6eb7bd68380a380f35b50346101b857806003193601126101b857546040516001600160a01b039091168152602090f35b50346101b857806003193601126101b8576003546040516001600160a01b039091168152602090f35b50346101b85760403660031901126101b8576112ba611aaa565b6001600160a01b03168152600a60205260408120805460243592908310156101b85760206112e88484611c76565b90549060031b1c604051908152f35b50346101b857806003193601126101b8576005546040516001600160a01b039091168152602090f35b50346101b85760403660031901126101b85761133a611aaa565b611342612893565b6001600160a01b03168152600b60209081526040808320602435845290915281205480156113735761027d90613338565b63d36d896560e01b8252600482fd5b50346101b857806003193601126101b8576007546040516001600160a01b039091168152602090f35b5034610af6576020366003190112610af6576004356113c8612893565b805f52600860205260405f20600d8101805460ff81166113e781611b50565b80156115da5783546001600160a01b031633036115cc5760019061140a81611b50565b036115bd57835f52600c60205260405f20546115ae5760039060ff191617905560018060a01b03600354166114a1602060018060a01b0360065416855f526009825260405f2054604051908784830152838252611468604083611d3c565b6040519261147584611cea565b835283830152604082015260405180938192635500079d60e01b83528460048401526024830190612061565b0381855afa908115611571575f9161157c575b50813b15610af6575f916024839260405194859384926395bc267360e01b845260048401525af180156115715761155c575b50818352600d602052604083205480611529575b505033907fa6eb7cdc219e1518ced964e9a34e61d68a94e4f1569db3e84256ba981ba527538380a36001805580f35b828452600d6020526040842084905560038201549154611555926001600160a01b03918216911661327b565b5f806114fa565b6115699193505f90611d3c565b5f915f6114e6565b6040513d5f823e3d90fd5b90506020813d6020116115a6575b8161159760209383611d3c565b81010312610af657515f6114b4565b3d915061158a565b6313e916e560e01b5f5260045ffd5b632b12537f60e21b5f5260045ffd5b6282b42960e81b5f5260045ffd5b63d36d896560e01b5f5260045ffd5b34610af6575f366003190112610af65761160161323a565b5f80546001600160a01b0319811682556001600160a01b03165f516020613d4f5f395f51905f528280a3005b34610af6576020366003190112610af6576004355f526008602052602061165660405f206132b0565b6040519015158152f35b34610af6576020366003190112610af6576001600160a01b03611681611aaa565b165f52600a60205260405f206040519081602082549182815201915f5260205f20905f5b8181106116d4576116d0856116bc81870382611d3c565b604051918291602083526020830190611c43565b0390f35b82548452602090930192600192830192016116a5565b34610af6576060366003190112610af657611703611aaa565b602435906001600160a01b0382168203610af6576117359161172361323a565b604435916001600160a01b031661327b565b005b34610af6576020366003190112610af6575f608060405161175781611c9f565b60405161176381611cce565b8381526060602082015283604082015283606082015283838201528360a08201528360c0820152606060e08201528361010082015283610120820152836101408201528361016082015283610180820152836101a0820152815282602082015282604082015282606082015201526004355f52600860205261185560405f20604051906117ef82611c9f565b6117f881611ea3565b825260ff600d8201541690602083019161181181611b50565b8252600e81015490604084019182526010600f820154916060860192835201549160808501928352604051958695602087525160a0602088015260c0870190611b6e565b935161186081611b50565b60408601525160608501525160808401525160a08301520390f35b34610af6576020366003190112610af6576004355f52600e602052602060405f2054604051908152f35b34610af6575f366003190112610af6576004546040516001600160a01b039091168152602090f35b34610af6576020366003190112610af6576004355f526009602052602060405f2054604051908152f35b34610af6576020366003190112610af657611910611aaa565b61191861323a565b600780546001600160a01b039283166001600160a01b0319821681179092559091167f8d1b05837f66caec3ad591f9b5a7b607fcbba5ef212df2589aa255ef615a62bd5f80a3005b34610af6576020366003190112610af657611979611aaa565b61198161323a565b6001600160a01b031680156119d357600580546001600160a01b0319811683179091556001600160a01b03167fbdce5776902fb6aa0ba780ce23fc8392c2014d41efaeaa287d6b06ef28fe5cb05f80a3005b63d92e233d60e01b5f5260045ffd5b34610af6576040366003190112610af6576119fb611aaa565b611a03612893565b60018060a01b03165f52600b60205260405f206024355f5260205260405f205480156115da57611a3290612b0c565b60018055005b34610af6576040366003190112610af6576024356001600160401b038111610af65736602382011215610af6576004810135906001600160401b038211610af6573660248383010111610af6576020916024611a979201600435612090565b6040516001600160e01b03199091168152f35b600435906001600160a01b0382168203610af657565b35906001600160a01b0382168203610af657565b805180835260209291819084018484015e5f828201840152601f01601f1916010190565b9080602083519182815201916020808360051b8301019401925f915b838310611b2357505050505090565b9091929394602080611b41600193601f198682030187528951611ad4565b97019301930191939290611b14565b60041115611b5a57565b634e487b7160e01b5f52602160045260245ffd5b9060018060a01b0382511681526101a080611bf1611b9d60208601516101c060208701526101c0860190611af8565b6040860151604086015260018060a01b03606087015116606086015260018060a01b03608087015116608086015260a086015160a086015260c086015160c086015260e086015185820360e0870152611af8565b93610100810151611c0181611b50565b61010085015261012081015161012085015261014081015161014085015261016081015161016085015261018081015115156101808501520151151591015290565b90602080835192838152019201905f5b818110611c605750505090565b8251845260209384019390920191600101611c53565b8054821015611c8b575f5260205f2001905f90565b634e487b7160e01b5f52603260045260245ffd5b60a081019081106001600160401b03821117611cba57604052565b634e487b7160e01b5f52604160045260245ffd5b6101c081019081106001600160401b03821117611cba57604052565b606081019081106001600160401b03821117611cba57604052565b61018081019081106001600160401b03821117611cba57604052565b604081019081106001600160401b03821117611cba57604052565b601f909101601f19168101906001600160401b03821190821017611cba57604052565b6001600160401b038111611cba5760051b60200190565b90600182811c92168015611da4575b6020831014611d9057565b634e487b7160e01b5f52602260045260245ffd5b91607f1691611d85565b9060405191825f825492611dc184611d76565b8084529360018116908115611e2c5750600114611de8575b50611de692500383611d3c565b565b90505f9291925260205f20905f915b818310611e10575050906020611de6928201015f611dd9565b6020919350806001915483858901015201910190918492611df7565b905060209250611de694915060ff191682840152151560051b8201015f611dd9565b908154611e5a81611d5f565b92611e686040519485611d3c565b81845260208401905f5260205f205f915b838310611e865750505050565b600160208192611e9585611dae565b815201920192019190611e79565b90604051611eb081611cce565b6101a060ff600c839560018060a01b038154168552611ed160018201611e4e565b60208601526002810154604086015260038101546001600160a01b0390811660608701526004820154166080860152600581015460a0860152600681015460c0860152611f2060078201611e4e565b60e086015282600882015416611f3581611b50565b6101008601526009810154610120860152600a810154610140860152600b8101546101608601520154818116151561018085015260081c161515910152565b35908115158203610af657565b6001600160401b038111611cba57601f01601f191660200190565b929192611fa882611f81565b91611fb66040519384611d3c565b829481845281830111610af6578281602093845f960137010152565b9080601f83011215610af657816020611fed93359101611f9c565b90565b51906001600160a01b0382168203610af657565b51908115158203610af657565b92919261201d82611f81565b9161202b6040519384611d3c565b829481845281830111610af6578281602093845f96015e010152565b9080601f83011215610af6578151611fed92602001612011565b9060606040611fed9360018060a01b038151168452602081015160208501520151918160408201520190611ad4565b90918201908282036101a08112610af65761018013610af657604051926120b684611d05565b6120bf81611ac0565b84526120cd60208201611ac0565b60208501526120de60408201611ac0565b6040850152606081013560608501526080810135608085015260a081013563ffffffff81168103610af65760a085015260c081013560c085015260e081013560e085015261010081013561010085015261213b6101208201611f74565b61012085015261014081810135908501526101608082013590850152610180810135906001600160401b038211610af65701606081840312610af6576040519261218484611cea565b81356001600160401b038111610af657820181601f82011215610af6578035906121ad82611d5f565b916121bb6040519384611d3c565b80835260208084019160051b83010191848311610af657602001905b8282106126db57505050845260208201356001600160401b038111610af6578201606081830312610af6576040519061220f82611cea565b80356001600160a01b0381168103610af6578252602081810135908301526040810135906001600160401b038211610af65761224d91849101611fd2565b60408201526020850152604082013560018060401b038111610af6576122739201611fd2565b60408301526004602060018060a01b038254166040519283809263f698da2560e01b82525afa908115611571575f916126a9575b507fd5a25ba2e97094ad7d83dc28a6572da797d6b3e7fc6663bd93efb789fc17e48960018060a01b0385511660018060a01b036020870151168660018060a01b036040820151166060820151608083015163ffffffff60a08501511660c08501519060e086015192610100870151946101208801511515966101606101408a0151990151996040519b60208d019d8e5260408d015260608c015260808b015260a08a015260c089015260e08801526101008701526101208601526101408501526101608401526101808301526101a08201526101a0815261238a6101c082611d3c565b51902060405190602082019261190160f01b845260228301526042820152604281526123b7606282611d3c565b5190200361269a575f61241e9160018060a01b036003541661240c6020830151612430604085015194516040519788968795869563137050cb60e11b8752306004880152608060248801526084870190612061565b85810360031901604487015290611ad4565b83810360031901606485015290611c43565b03915afa5f918161259d575b5061245057506001600160e01b0319919050565b815181516001600160a01b03908116911614918261257e575b8261255f575b8261254c575b82612539575b82612526575b82612513575b826124fe575b826124e5575b826124d0575b826124bc575b50506124b1576001600160e01b031990565b630b135d3f60e11b90565b610160919250810151910151145f8061249f565b91506101408201516101408201511491612499565b9150610120820151151561012082015115151491612493565b9150610100820151610100820151149161248d565b915060e082015160e08201511491612487565b915060c082015160c08201511491612481565b915060808201516080820151149161247b565b9150606082015160608201511491612475565b604080820151908301516001600160a01b03908116911614925061246f565b602080820151908301516001600160a01b039081169116149250612469565b9091503d805f833e6125af8183611d3c565b8101908082036101a08112610af65761018013610af657604051916125d383611d05565b6125dc82611ff0565b83526125ea60208301611ff0565b60208401526125fb60408301611ff0565b6040840152606082015160608401526080820151608084015260a082015163ffffffff81168103610af65760a084015260c082015160c084015260e082015160e08401526101008201516101008401526126586101208301612004565b610120840152610140828101519084015261016080830151908401526101808201516001600160401b038111610af6576126929201612047565b50905f61243c565b506001600160e01b0319919050565b90506020813d6020116126d3575b816126c460209383611d3c565b81010312610af657515f6122a7565b3d91506126b7565b81358152602091820191016121d7565b356001600160a01b0381168103610af65790565b903590601e1981360301821215610af657018035906001600160401b038211610af657602001918160051b36038313610af657565b9035601e1982360301811215610af6570160208101919035906001600160401b038211610af6578160051b36038313610af657565b90602083828152019060208160051b85010193835f915b8383106127905750505050505090565b909192939495601f198282030186528635601e1984360301811215610af6578301602081019190356001600160401b038111610af6578036038313610af6576020828280600196849695859652848401375f828201840152601f01601f19160101980196019493019190612780565b9080601f83011215610af657813561281681611d5f565b926128246040519485611d3c565b81845260208085019260051b82010191838311610af65760208201905b83821061285057505050505090565b81356001600160401b038111610af65760209161287287848094880101611fd2565b815201910190612841565b818110612888575050565b5f815560010161287d565b6002600154146128a4576002600155565b633ee5aeb560e01b5f5260045ffd5b602081830312610af6578051906001600160401b038211610af657019080601f83011215610af6578151916128e783611d5f565b926128f56040519485611d3c565b80845260208085019160051b83010191838311610af65760208101915b83831061292157505050505090565b82516001600160401b038111610af6578201906040828703601f190112610af6576040519061294f82611d21565b60208301516001600160401b038111610af65760209084010187601f82011215610af6578781602061298393519101612011565b82526040830151916001600160401b038311610af6576129ab88602080969581960101612047565b83820152815201920191612912565b919082039182116129c757565b634e487b7160e01b5f52601160045260245ffd5b906129e582611d5f565b6129f26040519182611d3c565b8281528092612a03601f1991611d5f565b01905f5b828110612a1357505050565b602090604051612a2281611d21565b6060815260608382015282828501015201612a07565b60405190612a47604083611d3c565b60068252653937baba32b960d11b6020830152565b805115611c8b5760200190565b805160011015611c8b5760400190565b8051821015611c8b5760209160051b010190565b602081016020825282518091526040820191602060408360051b8301019401925f915b838310612abf57505050505090565b9091929394602080612afd600193603f1986820301875289519083612aed8351604084526040840190611ad4565b9201519084818403910152611ad4565b97019301930191939290612ab0565b6005545f9291906001600160a01b0316330361322b57805f52600860205260405f2091600d830193600160ff865416612b4481611b50565b036115bd57825f52600c60205260405f205492600f850193845490600182018092116129c7570361321c57602495815f52600c6020525f6040812055612ba0612b91865460078901613b4c565b602080825183010191016128b3565b94825f52600e60205260405f205491835f52600f60205260405f2054916003890191602060018060a01b038454166040519c8d80926370a0823160e01b82523060048301525afa9a8b15611571575f9b6131e8575b50602460048b0195602060018060a01b03885416604051938480926370a0823160e01b82523060048301525afa918215611571575f926131b4575b50875f52600e6020525f6040812055875f52600f6020525f60408120558c8082115f146131ab57612c60916129ba565b945b808211156131a257612c73916129ba565b925b600c8b019560ff875460081c165f146130d15760058c015486818110156130c857612c9f916129ba565b9c5b8d80151591826130bd575b505061309b575b84612fa5575b50895190600282018092116129c757612d1e9c612cd8612d24936129db565b9154919d6001600160a01b03909216918e612cf3848a613bfb565b60405190612d0082611d21565b612d08612a38565b82526020820152612d1882612a5c565b52612a5c565b50613bfb565b60405190612d3182611d21565b612d39612a38565b82526020820152612d498c612a69565b52612d538b612a69565b505f5b8951811015612d9657612d69818b612a79565b519060028101918282116129c757828e612d8f92612d8960019683612a79565b52612a79565b5001612d56565b50929598919497509295985b6002546001600160a01b0316803b15610af65760405163f0dbeea560e01b8152915f918391829084908290612dda9060048301612a8d565b03925af1801561157157612f90575b50600e8101928354868101809111612f7c57845580545f198114612f7c5793886040948b60ff9a9995837f2fe16d47ffa3738e1c53765ec8dcbe2adbce46d0899a775de9b539572cfd864f6060829c9860017f5b19a0b08bbd8e7537d63d9f1db0947c5eba6d93e02a7e0a1520ea5f29bd644c9d018155838652600d6020528b862054612f6a575b54998b51908b82526020820152898c820152a2612e8d816132b0565b612f19575b505050505082519182526020820152a2541680612f05575b612eb2575050565b6007546001600160a01b031690813b15610b7d57829160248392604051948593849263232af88b60e01b845260048401525af18015610b7257612ef3575050565b612efe828092611d3c565b6101b85750565b506007546001600160a01b03161515612eaa565b82548c19166002179092555054915485519081526001600160a01b0392909216917fc05078bb1894dee4a12f4b4f2822aa8625022f271aee8bffc64c6621f84c4d9490602090a35f85818b81612e92565b838652600d602052858c812055612e71565b634e487b7160e01b8a52601160045260248afd5b612f9d9198505f90611d3c565b5f965f612de9565b5460025460405163095ea7b360e01b602082019081526001600160a01b03928316939192909116905f908190612ff185612fe38c8960248401613260565b03601f198101875286611d3c565b84519082855af1613000613ca1565b81613064575b508061305a575b1561301a575b5050612cb9565b610f2e613052936040519063095ea7b360e01b602083015260248201525f60448201526044815261304c606482611d3c565b82613c2e565b5f8080613013565b50803b151561300d565b8051801592508215613079575b50505f613006565b8192509060209181010312610af65760206130949101612004565b5f80613071565b81546002546130b8918f916001600160a01b03908116911661327b565b612cb3565b101590508d5f612cac565b50505f9c612ca1565b9b505082613180575b8851600181018091116129c7576130f3613104916129db565b9b546001600160a01b031684613bfb565b6040519061311182611d21565b613119612a38565b825260208201526131298c612a5c565b526131338b612a5c565b505f5b895181101561317057613149818b612a79565b519060018101918282116129c757828e61316992612d8960019683612a79565b5001613136565b5092959891949750929598612da2565b8a5460025461319d9185916001600160a01b03908116911661327b565b6130da565b50505f92612c75565b50505f94612c62565b9091506020813d6020116131e0575b816131d060209383611d3c565b81010312610af65751905f612c30565b3d91506131c3565b909a506020813d602011613214575b8161320460209383611d3c565b81010312610af65751995f612bf5565b3d91506131f7565b631feb8b7960e21b5f5260045ffd5b631cb3967f60e21b5f5260045ffd5b5f546001600160a01b0316330361324d57565b63118cdaa760e01b5f523360045260245ffd5b6001600160a01b039091168152602081019190915260400190565b610f2e611de693926132a260405194859263a9059cbb60e01b602085015260248401613260565b03601f198101845283611d3c565b60ff6008820154166132c181611b50565b60028114613328576132d281611b50565b600181146132fc576132e381611b50565b156132ed57505f90565b6002600e820154910154111590565b506133106002820154600e830154906129ba565b801591821561331e57505090565b6005015411919050565b506009600f820154910154111590565b6005545f92906001600160a01b0316330361322b57815f52600860205260405f2091600160ff600d8501541661336d81611b50565b036115bd5760ff600c84015416806136a4575b61364d575b808452600c602052604084205461363e57600f83019182546001810180911161362a57828652600c60205260408620556133c6612b91845460018701613b4c565b91825160018101809111613616576133dd906129db565b936005860154956133fc600382019760018060a01b0389541690613bfb565b6040519061340982611d21565b613411612a38565b8252602082015261342187612a5c565b5261342b86612a5c565b50875b8551811015613482576134418187612a79565b51600182019081831161346e578161346791613460600195948c612a79565b5289612a79565b500161342e565b634e487b7160e01b8b52601160045260248bfd5b5093509395919594909460018060a01b036002541690813b15610b42576134c28492839260405194858094819363f0dbeea560e01b835260048301612a8d565b03925af1801561108b57908391613601575b5050546040516370a0823160e01b815230600482015290602090829060249082906001600160a01b03165afa908115610b725782916135ce575b50602492602091868452600e83526040842055600460018060a01b0391015416604051938480926370a0823160e01b82523060048301525afa9182156135c157819261357e575b5091602091604084865f516020613d2f5f395f51905f529652600f8552205554604051908152a2565b9150916020823d6020116135b9575b8161359a60209383611d3c565b81010312610af657905190915f516020613d2f5f395f51905f52613555565b3d915061358d565b50604051903d90823e3d90fd5b90506020813d6020116135f9575b816135e960209383611d3c565b81010312610af65751602461350e565b3d91506135dc565b8161360b91611d3c565b610b6e57815f6134d4565b634e487b7160e01b87526011600452602487fd5b634e487b7160e01b86526011600452602486fd5b63e617d13160e01b8452600484fd5b6007546001600160a01b0316803b15610af6575f809160246040518094819363d96ffe6760e01b83528760048401525af180156115715761368f575b50613385565b61369c9194505f90611d3c565b5f925f613689565b506007546001600160a01b03161515613380565b60405190602082019263095ea7b360e01b845260018060a01b0316928360248401525f196044840152604483526136f0606484611d3c565b82516001600160a01b038316915f91829182855af19061370e613ca1565b82613763575b5081613758575b501561372657505050565b610f2e611de6936040519063095ea7b360e01b602083015260248201525f60448201526044815261304c606482611d3c565b90503b15155f61371b565b8051919250811591821561377b575b5050905f613714565b8192509060209181010312610af65760206137969101612004565b5f80613772565b909291935f935b80851015613b44578460051b830135601e1984360301811215610af65783019283356001600160401b038111610af65760208501908036038213610af6578501946020808701929082880312610af65735906001600160401b038211610af6570181603f82011215610af65760208101359561381f87611d5f565b9661382d6040519889611d3c565b808852602080808a019260051b8501010192848411610af65760408101915b848310613aa6575050505050505f5b8451811015613a995760206138708287612a79565b51805160405161389e84828180820195805191829101875e81015f838201520301601f198101835282611d3c565b51902060405183810190653937baba32b960d11b8252600681526138c3602682611d3c565b51902003613996570151608081805181010312610af657604051608081016001600160401b03811182821017611cba576040526020820151815261390960408301611ff0565b6020820152608061391c60608401611ff0565b926040830193845201516008811015610af6578060606001930152145f1461398f57516001600160a01b03908116908716810361398a5750875b6001600160a01b0390811690891680820361397557505060010161385b565b63041bc0b160e41b5f5260045260245260445ffd5b613956565b5087613956565b01518051810190602081830312610af6576020810151906001600160401b038211610af65701808203601f19810192919060c013610af6576040519160c083016001600160401b03811184821017611cba576040526020820151600a811015610af6578352613a0760408301611ff0565b6020840152613a1860608301611ff0565b604084019081526080830151606085015260a0830151909490916001600160401b038311610af6576020928380613a53930191860101612047565b6080850152607f190112610af65760405191602083016001600160401b03811184821017611cba5760405260c090910151825260a00152516001600160a01b0316613956565b50925093600101936137a4565b82356001600160401b038111610af65782016020810191906040908603601f190112610af65760405190613ad982611d21565b60208301356001600160401b038111610af65760209084010188601f82011215610af65788816020613b0d93359101611f9c565b82526040830135916001600160401b038311610af657613b3589602080969581960101611fd2565b8382015281520192019161384c565b509350505050565b9060608254908115613b90575080821015613b765750611fed91613b709190611c76565b50611dae565b5f198101915081116129c757611fed91613b709190611c76565b9250505060405190613ba3602083611d3c565b5f82525f90815b828110613bd857505050611fed613bca9160405192839160208301612a8d565b03601f198101835282611d3c565b602090604051613be781611d21565b838152838382015282828701015201613baa565b9060405191602083015260018060a01b031660408201525f60608201526003608082015260808152611fed60a082611d3c565b5f80613c569260018060a01b03169360208151910182865af1613c4f613ca1565b9083613cd0565b8051908115159182613c7e575b5050613c6c5750565b635274afe760e01b5f5260045260245ffd5b8192509060209181010312610af6576020613c999101612004565b155f80613c63565b3d15613ccb573d90613cb282611f81565b91613cc06040519384611d3c565b82523d5f602084013e565b606090565b90613cf45750805115613ce557805190602001fd5b630a12f52160e11b5f5260045ffd5b81511580613d25575b613d05575090565b639996b31560e01b5f9081526001600160a01b0391909116600452602490fd5b50803b15613cfd56feed6ad11a587c194b3ad43896e949cb9a05975419926eda9b6b571d1847c9a7aa8be0079c531659141344cd1fd0a4f28419497f9722a3daafe3b4186f6b6457e0a26469706673582212204b5508acb2a0a794a129bff952267054f171202a957567ea270595ada7cd49c064736f6c634300081e0033",
  "devdoc": {
    "details": "Singleton contract that holds order context and executes hooks",
    "errors": {
      "AddressEmptyCode(address)": [
        {
          "details": "There's no code at `target` (it is not a contract)."
        }
      ],
      "AddressInsufficientBalance(address)": [
        {
          "details": "The ETH balance of the account is not enough to perform the operation."
        }
      ],
      "FailedInnerCall()": [
        {
          "details": "A call to an address target failed. The target may have reverted."
        }
      ],
      "OwnableInvalidOwner(address)": [
        {
          "details": "The owner is not a valid owner account. (eg. `address(0)`)"
        }
      ],
      "OwnableUnauthorizedAccount(address)": [
        {
          "details": "The caller account is not authorized to perform an operation."
        }
      ],
      "ReentrancyGuardReentrantCall()": [
        {
          "details": "Unauthorized reentrant call."
        }
      ],
      "SafeERC20FailedOperation(address)": [
        {
          "details": "An operation with an ERC20 token failed."
        }
      ]
    },
    "kind": "dev",
    "methods": {
      "cancelOrder(bytes32)": {
        "params": {
          "orderHash": "The order to cancel"
        }
      },
      "createOrder((address,bytes[],uint256,address,address,uint256,uint256,bytes[],uint8,uint256,uint256,bytes32,bool,bool),bytes32,uint256)": {
        "details": "User must approve this contract to pull seedAmount of sellToken before calling",
        "params": {
          "params": "The order parameters",
          "salt": "Unique salt for the order",
          "seedAmount": "Amount of sell tokens to pull from user for first chunk (0 to skip)"
        },
        "returns": {
          "orderHash": "The hash identifying this order"
        }
      },
      "executePostHook(bytes32)": {
        "details": "Prepends a ToOutput instruction with the actual received amount, so all      stored instructions can reference index 0 for the swap output",
        "params": {
          "orderHash": "The order being settled"
        }
      },
      "executePostHookBySalt(address,bytes32)": {
        "details": "Allows pre-computing appData before order creation",
        "params": {
          "salt": "The order salt (known before tx)",
          "user": "The order owner"
        }
      },
      "executePreHook(bytes32)": {
        "details": "Prepends a ToOutput instruction with chunkSize, so all stored instructions      can reference index 0 for the chunk amount. Chunk index is read from iterationCount.",
        "params": {
          "orderHash": "The order being settled"
        }
      },
      "executePreHookBySalt(address,bytes32)": {
        "details": "Allows pre-computing appData before order creation. Chunk index is determined      from the order's iterationCount, so the same appData works for all chunks.",
        "params": {
          "salt": "The order salt (known before tx)",
          "user": "The order owner"
        }
      },
      "isValidSignature(bytes32,bytes)": {
        "details": "For non-Safe ERC-1271 contracts, ComposableCoW returns signature as:      abi.encode(GPv2Order.Data, PayloadStruct)      We decode this and verify the order matches what the handler generates."
      },
      "owner()": {
        "details": "Returns the address of the current owner."
      },
      "renounceOwnership()": {
        "details": "Leaves the contract without owner. It will not be possible to call `onlyOwner` functions. Can only be called by the current owner. NOTE: Renouncing ownership will leave the contract without an owner, thereby disabling any functionality that is only available to the owner."
      },
      "transferOwnership(address)": {
        "details": "Transfers ownership of the contract to a new account (`newOwner`). Can only be called by the current owner."
      }
    },
    "stateVariables": {
      "ROUTER_PROTOCOL_HASH": {
        "details": "Constant hash for \"router\" protocol name comparison"
      },
      "preHookExecutedForIteration": {
        "details": "Stores (iterationCount + 1) when pre-hook executed, 0 means no pre-hook pending"
      },
      "preHookSellBalance": {
        "details": "Prevents leftover token accumulation from affecting subsequent orders"
      }
    },
    "title": "KapanOrderManager",
    "version": 1
  },
  "userdoc": {
    "kind": "user",
    "methods": {
      "approveVaultRelayer(address)": {
        "notice": "Approve vault relayer to spend a token"
      },
      "cancelOrder(bytes32)": {
        "notice": "Cancel an active order and refund any remaining seed tokens"
      },
      "composableCoW()": {
        "notice": "The ComposableCoW contract for order registration"
      },
      "cowAdapter()": {
        "notice": "The KapanCowAdapter for flash loan order security"
      },
      "createOrder((address,bytes[],uint256,address,address,uint256,uint256,bytes[],uint8,uint256,uint256,bytes32,bool,bool),bytes32,uint256)": {
        "notice": "Create a new CoW order with seed tokens for first chunk"
      },
      "executePostHook(bytes32)": {
        "notice": "Execute post-hook (called by HooksTrampoline during CoW settlement)"
      },
      "executePostHookBySalt(address,bytes32)": {
        "notice": "Execute post-hook using (user, salt) lookup"
      },
      "executePreHook(bytes32)": {
        "notice": "Execute pre-hook (called by HooksTrampoline during CoW settlement)"
      },
      "executePreHookBySalt(address,bytes32)": {
        "notice": "Execute pre-hook using (user, salt) lookup"
      },
      "getOrder(bytes32)": {
        "notice": "Get order context"
      },
      "getUserOrders(address)": {
        "notice": "Get user's orders"
      },
      "hooksTrampoline()": {
        "notice": "The HooksTrampoline contract (caller for hooks)"
      },
      "isOrderComplete(bytes32)": {
        "notice": "Check if an order is complete based on completion criteria"
      },
      "isValidSignature(bytes32,bytes)": {
        "notice": "Verify signature for CoW Protocol orders"
      },
      "orderHandler()": {
        "notice": "The KapanOrderHandler for generating orders"
      },
      "orderSalts(bytes32)": {
        "notice": "Salt used for each order (for ComposableCoW cancellation)"
      },
      "orderSeedBalance(bytes32)": {
        "notice": "Track seed tokens deposited per order for accurate refunds on cancel"
      },
      "orders(bytes32)": {
        "notice": "Order contexts by order hash"
      },
      "preHookExecutedForIteration(bytes32)": {
        "notice": "Track pre-hook execution per order to prevent re-execution"
      },
      "preHookSellBalance(bytes32)": {
        "notice": "Track token balances at end of pre-hook for delta calculation in post-hook"
      },
      "recoverTokens(address,address,uint256)": {
        "notice": "Recover stuck tokens (owner only)"
      },
      "router()": {
        "notice": "The KapanRouter for executing lending operations"
      },
      "settlement()": {
        "notice": "The GPv2Settlement contract"
      },
      "userOrders(address,uint256)": {
        "notice": "User's active orders"
      },
      "userSaltToOrderHash(address,bytes32)": {
        "notice": "Lookup order hash by (user, salt) - enables pre-computing appData"
      }
    },
    "notice": "Manages CoW Protocol orders for Kapan, acting as ERC-1271 signer",
    "version": 1
  },
  "storageLayout": {
    "storage": [
      {
        "astId": 8,
        "contract": "contracts/v2/cow/KapanOrderManager.sol:KapanOrderManager",
        "label": "_owner",
        "offset": 0,
        "slot": "0",
        "type": "t_address"
      },
      {
        "astId": 845,
        "contract": "contracts/v2/cow/KapanOrderManager.sol:KapanOrderManager",
        "label": "_status",
        "offset": 0,
        "slot": "1",
        "type": "t_uint256"
      },
      {
        "astId": 1681,
        "contract": "contracts/v2/cow/KapanOrderManager.sol:KapanOrderManager",
        "label": "router",
        "offset": 0,
        "slot": "2",
        "type": "t_contract(IKapanRouter)1551"
      },
      {
        "astId": 1685,
        "contract": "contracts/v2/cow/KapanOrderManager.sol:KapanOrderManager",
        "label": "composableCoW",
        "offset": 0,
        "slot": "3",
        "type": "t_contract(IComposableCoW)4056"
      },
      {
        "astId": 1689,
        "contract": "contracts/v2/cow/KapanOrderManager.sol:KapanOrderManager",
        "label": "settlement",
        "offset": 0,
        "slot": "4",
        "type": "t_contract(IGPv2Settlement)4196"
      },
      {
        "astId": 1692,
        "contract": "contracts/v2/cow/KapanOrderManager.sol:KapanOrderManager",
        "label": "hooksTrampoline",
        "offset": 0,
        "slot": "5",
        "type": "t_address"
      },
      {
        "astId": 1695,
        "contract": "contracts/v2/cow/KapanOrderManager.sol:KapanOrderManager",
        "label": "orderHandler",
        "offset": 0,
        "slot": "6",
        "type": "t_address"
      },
      {
        "astId": 1699,
        "contract": "contracts/v2/cow/KapanOrderManager.sol:KapanOrderManager",
        "label": "cowAdapter",
        "offset": 0,
        "slot": "7",
        "type": "t_contract(IKapanCowAdapter)1562"
      },
      {
        "astId": 1705,
        "contract": "contracts/v2/cow/KapanOrderManager.sol:KapanOrderManager",
        "label": "orders",
        "offset": 0,
        "slot": "8",
        "type": "t_mapping(t_bytes32,t_struct(OrderContext)1677_storage)"
      },
      {
        "astId": 1710,
        "contract": "contracts/v2/cow/KapanOrderManager.sol:KapanOrderManager",
        "label": "orderSalts",
        "offset": 0,
        "slot": "9",
        "type": "t_mapping(t_bytes32,t_bytes32)"
      },
      {
        "astId": 1716,
        "contract": "contracts/v2/cow/KapanOrderManager.sol:KapanOrderManager",
        "label": "userOrders",
        "offset": 0,
        "slot": "10",
        "type": "t_mapping(t_address,t_array(t_bytes32)dyn_storage)"
      },
      {
        "astId": 1723,
        "contract": "contracts/v2/cow/KapanOrderManager.sol:KapanOrderManager",
        "label": "userSaltToOrderHash",
        "offset": 0,
        "slot": "11",
        "type": "t_mapping(t_address,t_mapping(t_bytes32,t_bytes32))"
      },
      {
        "astId": 1728,
        "contract": "contracts/v2/cow/KapanOrderManager.sol:KapanOrderManager",
        "label": "preHookExecutedForIteration",
        "offset": 0,
        "slot": "12",
        "type": "t_mapping(t_bytes32,t_uint256)"
      },
      {
        "astId": 1733,
        "contract": "contracts/v2/cow/KapanOrderManager.sol:KapanOrderManager",
        "label": "orderSeedBalance",
        "offset": 0,
        "slot": "13",
        "type": "t_mapping(t_bytes32,t_uint256)"
      },
      {
        "astId": 1738,
        "contract": "contracts/v2/cow/KapanOrderManager.sol:KapanOrderManager",
        "label": "preHookSellBalance",
        "offset": 0,
        "slot": "14",
        "type": "t_mapping(t_bytes32,t_uint256)"
      },
      {
        "astId": 1742,
        "contract": "contracts/v2/cow/KapanOrderManager.sol:KapanOrderManager",
        "label": "preHookBuyBalance",
        "offset": 0,
        "slot": "15",
        "type": "t_mapping(t_bytes32,t_uint256)"
      }
    ],
    "types": {
      "t_address": {
        "encoding": "inplace",
        "label": "address",
        "numberOfBytes": "20"
      },
      "t_array(t_bytes32)dyn_storage": {
        "base": "t_bytes32",
        "encoding": "dynamic_array",
        "label": "bytes32[]",
        "numberOfBytes": "32"
      },
      "t_array(t_bytes_storage)dyn_storage": {
        "base": "t_bytes_storage",
        "encoding": "dynamic_array",
        "label": "bytes[]",
        "numberOfBytes": "32"
      },
      "t_bool": {
        "encoding": "inplace",
        "label": "bool",
        "numberOfBytes": "1"
      },
      "t_bytes32": {
        "encoding": "inplace",
        "label": "bytes32",
        "numberOfBytes": "32"
      },
      "t_bytes_storage": {
        "encoding": "bytes",
        "label": "bytes",
        "numberOfBytes": "32"
      },
      "t_contract(IComposableCoW)4056": {
        "encoding": "inplace",
        "label": "contract IComposableCoW",
        "numberOfBytes": "20"
      },
      "t_contract(IGPv2Settlement)4196": {
        "encoding": "inplace",
        "label": "contract IGPv2Settlement",
        "numberOfBytes": "20"
      },
      "t_contract(IKapanCowAdapter)1562": {
        "encoding": "inplace",
        "label": "contract IKapanCowAdapter",
        "numberOfBytes": "20"
      },
      "t_contract(IKapanRouter)1551": {
        "encoding": "inplace",
        "label": "contract IKapanRouter",
        "numberOfBytes": "20"
      },
      "t_enum(CompletionType)1606": {
        "encoding": "inplace",
        "label": "enum KapanOrderManager.CompletionType",
        "numberOfBytes": "1"
      },
      "t_enum(OrderStatus)1611": {
        "encoding": "inplace",
        "label": "enum KapanOrderManager.OrderStatus",
        "numberOfBytes": "1"
      },
      "t_mapping(t_address,t_array(t_bytes32)dyn_storage)": {
        "encoding": "mapping",
        "key": "t_address",
        "label": "mapping(address => bytes32[])",
        "numberOfBytes": "32",
        "value": "t_array(t_bytes32)dyn_storage"
      },
      "t_mapping(t_address,t_mapping(t_bytes32,t_bytes32))": {
        "encoding": "mapping",
        "key": "t_address",
        "label": "mapping(address => mapping(bytes32 => bytes32))",
        "numberOfBytes": "32",
        "value": "t_mapping(t_bytes32,t_bytes32)"
      },
      "t_mapping(t_bytes32,t_bytes32)": {
        "encoding": "mapping",
        "key": "t_bytes32",
        "label": "mapping(bytes32 => bytes32)",
        "numberOfBytes": "32",
        "value": "t_bytes32"
      },
      "t_mapping(t_bytes32,t_struct(OrderContext)1677_storage)": {
        "encoding": "mapping",
        "key": "t_bytes32",
        "label": "mapping(bytes32 => struct KapanOrderManager.OrderContext)",
        "numberOfBytes": "32",
        "value": "t_struct(OrderContext)1677_storage"
      },
      "t_mapping(t_bytes32,t_uint256)": {
        "encoding": "mapping",
        "key": "t_bytes32",
        "label": "mapping(bytes32 => uint256)",
        "numberOfBytes": "32",
        "value": "t_uint256"
      },
      "t_struct(KapanOrderParams)1663_storage": {
        "encoding": "inplace",
        "label": "struct KapanOrderManager.KapanOrderParams",
        "members": [
          {
            "astId": 1633,
            "contract": "contracts/v2/cow/KapanOrderManager.sol:KapanOrderManager",
            "label": "user",
            "offset": 0,
            "slot": "0",
            "type": "t_address"
          },
          {
            "astId": 1636,
            "contract": "contracts/v2/cow/KapanOrderManager.sol:KapanOrderManager",
            "label": "preInstructionsPerIteration",
            "offset": 0,
            "slot": "1",
            "type": "t_array(t_bytes_storage)dyn_storage"
          },
          {
            "astId": 1638,
            "contract": "contracts/v2/cow/KapanOrderManager.sol:KapanOrderManager",
            "label": "preTotalAmount",
            "offset": 0,
            "slot": "2",
            "type": "t_uint256"
          },
          {
            "astId": 1640,
            "contract": "contracts/v2/cow/KapanOrderManager.sol:KapanOrderManager",
            "label": "sellToken",
            "offset": 0,
            "slot": "3",
            "type": "t_address"
          },
          {
            "astId": 1642,
            "contract": "contracts/v2/cow/KapanOrderManager.sol:KapanOrderManager",
            "label": "buyToken",
            "offset": 0,
            "slot": "4",
            "type": "t_address"
          },
          {
            "astId": 1644,
            "contract": "contracts/v2/cow/KapanOrderManager.sol:KapanOrderManager",
            "label": "chunkSize",
            "offset": 0,
            "slot": "5",
            "type": "t_uint256"
          },
          {
            "astId": 1646,
            "contract": "contracts/v2/cow/KapanOrderManager.sol:KapanOrderManager",
            "label": "minBuyPerChunk",
            "offset": 0,
            "slot": "6",
            "type": "t_uint256"
          },
          {
            "astId": 1649,
            "contract": "contracts/v2/cow/KapanOrderManager.sol:KapanOrderManager",
            "label": "postInstructionsPerIteration",
            "offset": 0,
            "slot": "7",
            "type": "t_array(t_bytes_storage)dyn_storage"
          },
          {
            "astId": 1652,
            "contract": "contracts/v2/cow/KapanOrderManager.sol:KapanOrderManager",
            "label": "completion",
            "offset": 0,
            "slot": "8",
            "type": "t_enum(CompletionType)1606"
          },
          {
            "astId": 1654,
            "contract": "contracts/v2/cow/KapanOrderManager.sol:KapanOrderManager",
            "label": "targetValue",
            "offset": 0,
            "slot": "9",
            "type": "t_uint256"
          },
          {
            "astId": 1656,
            "contract": "contracts/v2/cow/KapanOrderManager.sol:KapanOrderManager",
            "label": "minHealthFactor",
            "offset": 0,
            "slot": "10",
            "type": "t_uint256"
          },
          {
            "astId": 1658,
            "contract": "contracts/v2/cow/KapanOrderManager.sol:KapanOrderManager",
            "label": "appDataHash",
            "offset": 0,
            "slot": "11",
            "type": "t_bytes32"
          },
          {
            "astId": 1660,
            "contract": "contracts/v2/cow/KapanOrderManager.sol:KapanOrderManager",
            "label": "isFlashLoanOrder",
            "offset": 0,
            "slot": "12",
            "type": "t_bool"
          },
          {
            "astId": 1662,
            "contract": "contracts/v2/cow/KapanOrderManager.sol:KapanOrderManager",
            "label": "isKindBuy",
            "offset": 1,
            "slot": "12",
            "type": "t_bool"
          }
        ],
        "numberOfBytes": "416"
      },
      "t_struct(OrderContext)1677_storage": {
        "encoding": "inplace",
        "label": "struct KapanOrderManager.OrderContext",
        "members": [
          {
            "astId": 1667,
            "contract": "contracts/v2/cow/KapanOrderManager.sol:KapanOrderManager",
            "label": "params",
            "offset": 0,
            "slot": "0",
            "type": "t_struct(KapanOrderParams)1663_storage"
          },
          {
            "astId": 1670,
            "contract": "contracts/v2/cow/KapanOrderManager.sol:KapanOrderManager",
            "label": "status",
            "offset": 0,
            "slot": "13",
            "type": "t_enum(OrderStatus)1611"
          },
          {
            "astId": 1672,
            "contract": "contracts/v2/cow/KapanOrderManager.sol:KapanOrderManager",
            "label": "executedAmount",
            "offset": 0,
            "slot": "14",
            "type": "t_uint256"
          },
          {
            "astId": 1674,
            "contract": "contracts/v2/cow/KapanOrderManager.sol:KapanOrderManager",
            "label": "iterationCount",
            "offset": 0,
            "slot": "15",
            "type": "t_uint256"
          },
          {
            "astId": 1676,
            "contract": "contracts/v2/cow/KapanOrderManager.sol:KapanOrderManager",
            "label": "createdAt",
            "offset": 0,
            "slot": "16",
            "type": "t_uint256"
          }
        ],
        "numberOfBytes": "544"
      },
      "t_uint256": {
        "encoding": "inplace",
        "label": "uint256",
        "numberOfBytes": "32"
      }
    }
  }
}