{
  "address": "0x072711bb63E07b0Ce606BFb50Ef6442d654D087f",
  "abi": [
    {
      "inputs": [
        {
          "internalType": "address",
          "name": "_owner",
          "type": "address"
        },
        {
          "internalType": "address",
          "name": "_router",
          "type": "address"
        },
        {
          "internalType": "address",
          "name": "_composableCoW",
          "type": "address"
        },
        {
          "internalType": "address",
          "name": "_settlement",
          "type": "address"
        },
        {
          "internalType": "address",
          "name": "_hooksTrampoline",
          "type": "address"
        }
      ],
      "stateMutability": "nonpayable",
      "type": "constructor"
    },
    {
      "inputs": [
        {
          "internalType": "address",
          "name": "target",
          "type": "address"
        }
      ],
      "name": "AddressEmptyCode",
      "type": "error"
    },
    {
      "inputs": [
        {
          "internalType": "address",
          "name": "account",
          "type": "address"
        }
      ],
      "name": "AddressInsufficientBalance",
      "type": "error"
    },
    {
      "inputs": [],
      "name": "CannotCancelMidExecution",
      "type": "error"
    },
    {
      "inputs": [],
      "name": "FailedInnerCall",
      "type": "error"
    },
    {
      "inputs": [],
      "name": "HookExecutionFailed",
      "type": "error"
    },
    {
      "inputs": [
        {
          "internalType": "address",
          "name": "expected",
          "type": "address"
        },
        {
          "internalType": "address",
          "name": "actual",
          "type": "address"
        }
      ],
      "name": "InstructionUserMismatch",
      "type": "error"
    },
    {
      "inputs": [],
      "name": "InvalidHandler",
      "type": "error"
    },
    {
      "inputs": [],
      "name": "InvalidOrderState",
      "type": "error"
    },
    {
      "inputs": [],
      "name": "MaxOrdersExceeded",
      "type": "error"
    },
    {
      "inputs": [],
      "name": "NotHooksTrampoline",
      "type": "error"
    },
    {
      "inputs": [],
      "name": "OrderAlreadyExists",
      "type": "error"
    },
    {
      "inputs": [],
      "name": "OrderNotFound",
      "type": "error"
    },
    {
      "inputs": [
        {
          "internalType": "address",
          "name": "owner",
          "type": "address"
        }
      ],
      "name": "OwnableInvalidOwner",
      "type": "error"
    },
    {
      "inputs": [
        {
          "internalType": "address",
          "name": "account",
          "type": "address"
        }
      ],
      "name": "OwnableUnauthorizedAccount",
      "type": "error"
    },
    {
      "inputs": [],
      "name": "PreHookAlreadyExecuted",
      "type": "error"
    },
    {
      "inputs": [],
      "name": "PreHookNotExecuted",
      "type": "error"
    },
    {
      "inputs": [],
      "name": "ReentrancyGuardReentrantCall",
      "type": "error"
    },
    {
      "inputs": [
        {
          "internalType": "address",
          "name": "token",
          "type": "address"
        }
      ],
      "name": "SafeERC20FailedOperation",
      "type": "error"
    },
    {
      "inputs": [],
      "name": "SaltAlreadyUsed",
      "type": "error"
    },
    {
      "inputs": [],
      "name": "Unauthorized",
      "type": "error"
    },
    {
      "inputs": [],
      "name": "ZeroAddress",
      "type": "error"
    },
    {
      "anonymous": false,
      "inputs": [
        {
          "indexed": true,
          "internalType": "bytes32",
          "name": "orderHash",
          "type": "bytes32"
        },
        {
          "indexed": false,
          "internalType": "uint256",
          "name": "chunkIndex",
          "type": "uint256"
        },
        {
          "indexed": false,
          "internalType": "uint256",
          "name": "sellAmount",
          "type": "uint256"
        },
        {
          "indexed": false,
          "internalType": "uint256",
          "name": "buyAmount",
          "type": "uint256"
        }
      ],
      "name": "ChunkExecuted",
      "type": "event"
    },
    {
      "anonymous": false,
      "inputs": [
        {
          "indexed": true,
          "internalType": "bytes32",
          "name": "orderHash",
          "type": "bytes32"
        },
        {
          "indexed": true,
          "internalType": "address",
          "name": "user",
          "type": "address"
        }
      ],
      "name": "OrderCancelled",
      "type": "event"
    },
    {
      "anonymous": false,
      "inputs": [
        {
          "indexed": true,
          "internalType": "bytes32",
          "name": "orderHash",
          "type": "bytes32"
        },
        {
          "indexed": true,
          "internalType": "address",
          "name": "user",
          "type": "address"
        },
        {
          "indexed": false,
          "internalType": "uint256",
          "name": "totalExecuted",
          "type": "uint256"
        }
      ],
      "name": "OrderCompleted",
      "type": "event"
    },
    {
      "anonymous": false,
      "inputs": [
        {
          "indexed": true,
          "internalType": "bytes32",
          "name": "orderHash",
          "type": "bytes32"
        },
        {
          "indexed": true,
          "internalType": "address",
          "name": "user",
          "type": "address"
        },
        {
          "indexed": false,
          "internalType": "address",
          "name": "sellToken",
          "type": "address"
        },
        {
          "indexed": false,
          "internalType": "address",
          "name": "buyToken",
          "type": "address"
        },
        {
          "indexed": false,
          "internalType": "uint256",
          "name": "totalAmount",
          "type": "uint256"
        },
        {
          "indexed": false,
          "internalType": "uint256",
          "name": "chunkSize",
          "type": "uint256"
        }
      ],
      "name": "OrderCreated",
      "type": "event"
    },
    {
      "anonymous": false,
      "inputs": [
        {
          "indexed": true,
          "internalType": "address",
          "name": "oldHandler",
          "type": "address"
        },
        {
          "indexed": true,
          "internalType": "address",
          "name": "newHandler",
          "type": "address"
        }
      ],
      "name": "OrderHandlerUpdated",
      "type": "event"
    },
    {
      "anonymous": false,
      "inputs": [
        {
          "indexed": true,
          "internalType": "address",
          "name": "previousOwner",
          "type": "address"
        },
        {
          "indexed": true,
          "internalType": "address",
          "name": "newOwner",
          "type": "address"
        }
      ],
      "name": "OwnershipTransferred",
      "type": "event"
    },
    {
      "anonymous": false,
      "inputs": [
        {
          "indexed": true,
          "internalType": "bytes32",
          "name": "orderHash",
          "type": "bytes32"
        },
        {
          "indexed": false,
          "internalType": "uint256",
          "name": "chunkIndex",
          "type": "uint256"
        },
        {
          "indexed": false,
          "internalType": "uint256",
          "name": "receivedAmount",
          "type": "uint256"
        }
      ],
      "name": "PostHookExecuted",
      "type": "event"
    },
    {
      "anonymous": false,
      "inputs": [
        {
          "indexed": true,
          "internalType": "bytes32",
          "name": "orderHash",
          "type": "bytes32"
        },
        {
          "indexed": false,
          "internalType": "uint256",
          "name": "chunkIndex",
          "type": "uint256"
        }
      ],
      "name": "PreHookExecuted",
      "type": "event"
    },
    {
      "inputs": [],
      "name": "MAX_ORDERS_PER_USER",
      "outputs": [
        {
          "internalType": "uint256",
          "name": "",
          "type": "uint256"
        }
      ],
      "stateMutability": "view",
      "type": "function"
    },
    {
      "inputs": [
        {
          "internalType": "address",
          "name": "token",
          "type": "address"
        }
      ],
      "name": "approveVaultRelayer",
      "outputs": [],
      "stateMutability": "nonpayable",
      "type": "function"
    },
    {
      "inputs": [
        {
          "internalType": "bytes32",
          "name": "orderHash",
          "type": "bytes32"
        }
      ],
      "name": "cancelOrder",
      "outputs": [],
      "stateMutability": "nonpayable",
      "type": "function"
    },
    {
      "inputs": [],
      "name": "composableCoW",
      "outputs": [
        {
          "internalType": "contract IComposableCoW",
          "name": "",
          "type": "address"
        }
      ],
      "stateMutability": "view",
      "type": "function"
    },
    {
      "inputs": [
        {
          "components": [
            {
              "internalType": "address",
              "name": "user",
              "type": "address"
            },
            {
              "internalType": "bytes[]",
              "name": "preInstructionsPerIteration",
              "type": "bytes[]"
            },
            {
              "internalType": "uint256",
              "name": "preTotalAmount",
              "type": "uint256"
            },
            {
              "internalType": "address",
              "name": "sellToken",
              "type": "address"
            },
            {
              "internalType": "address",
              "name": "buyToken",
              "type": "address"
            },
            {
              "internalType": "uint256",
              "name": "chunkSize",
              "type": "uint256"
            },
            {
              "internalType": "uint256",
              "name": "minBuyPerChunk",
              "type": "uint256"
            },
            {
              "internalType": "bytes[]",
              "name": "postInstructionsPerIteration",
              "type": "bytes[]"
            },
            {
              "internalType": "enum KapanOrderManager.CompletionType",
              "name": "completion",
              "type": "uint8"
            },
            {
              "internalType": "uint256",
              "name": "targetValue",
              "type": "uint256"
            },
            {
              "internalType": "uint256",
              "name": "minHealthFactor",
              "type": "uint256"
            },
            {
              "internalType": "bytes32",
              "name": "appDataHash",
              "type": "bytes32"
            },
            {
              "internalType": "bool",
              "name": "isFlashLoanOrder",
              "type": "bool"
            },
            {
              "internalType": "bool",
              "name": "isKindBuy",
              "type": "bool"
            }
          ],
          "internalType": "struct KapanOrderManager.KapanOrderParams",
          "name": "params",
          "type": "tuple"
        },
        {
          "internalType": "bytes32",
          "name": "salt",
          "type": "bytes32"
        },
        {
          "internalType": "uint256",
          "name": "seedAmount",
          "type": "uint256"
        }
      ],
      "name": "createOrder",
      "outputs": [
        {
          "internalType": "bytes32",
          "name": "orderHash",
          "type": "bytes32"
        }
      ],
      "stateMutability": "nonpayable",
      "type": "function"
    },
    {
      "inputs": [
        {
          "internalType": "bytes32",
          "name": "orderHash",
          "type": "bytes32"
        }
      ],
      "name": "executePostHook",
      "outputs": [],
      "stateMutability": "nonpayable",
      "type": "function"
    },
    {
      "inputs": [
        {
          "internalType": "address",
          "name": "user",
          "type": "address"
        },
        {
          "internalType": "bytes32",
          "name": "salt",
          "type": "bytes32"
        }
      ],
      "name": "executePostHookBySalt",
      "outputs": [],
      "stateMutability": "nonpayable",
      "type": "function"
    },
    {
      "inputs": [
        {
          "internalType": "bytes32",
          "name": "orderHash",
          "type": "bytes32"
        }
      ],
      "name": "executePreHook",
      "outputs": [],
      "stateMutability": "nonpayable",
      "type": "function"
    },
    {
      "inputs": [
        {
          "internalType": "address",
          "name": "user",
          "type": "address"
        },
        {
          "internalType": "bytes32",
          "name": "salt",
          "type": "bytes32"
        }
      ],
      "name": "executePreHookBySalt",
      "outputs": [],
      "stateMutability": "nonpayable",
      "type": "function"
    },
    {
      "inputs": [
        {
          "internalType": "bytes32",
          "name": "orderHash",
          "type": "bytes32"
        }
      ],
      "name": "getOrder",
      "outputs": [
        {
          "components": [
            {
              "components": [
                {
                  "internalType": "address",
                  "name": "user",
                  "type": "address"
                },
                {
                  "internalType": "bytes[]",
                  "name": "preInstructionsPerIteration",
                  "type": "bytes[]"
                },
                {
                  "internalType": "uint256",
                  "name": "preTotalAmount",
                  "type": "uint256"
                },
                {
                  "internalType": "address",
                  "name": "sellToken",
                  "type": "address"
                },
                {
                  "internalType": "address",
                  "name": "buyToken",
                  "type": "address"
                },
                {
                  "internalType": "uint256",
                  "name": "chunkSize",
                  "type": "uint256"
                },
                {
                  "internalType": "uint256",
                  "name": "minBuyPerChunk",
                  "type": "uint256"
                },
                {
                  "internalType": "bytes[]",
                  "name": "postInstructionsPerIteration",
                  "type": "bytes[]"
                },
                {
                  "internalType": "enum KapanOrderManager.CompletionType",
                  "name": "completion",
                  "type": "uint8"
                },
                {
                  "internalType": "uint256",
                  "name": "targetValue",
                  "type": "uint256"
                },
                {
                  "internalType": "uint256",
                  "name": "minHealthFactor",
                  "type": "uint256"
                },
                {
                  "internalType": "bytes32",
                  "name": "appDataHash",
                  "type": "bytes32"
                },
                {
                  "internalType": "bool",
                  "name": "isFlashLoanOrder",
                  "type": "bool"
                },
                {
                  "internalType": "bool",
                  "name": "isKindBuy",
                  "type": "bool"
                }
              ],
              "internalType": "struct KapanOrderManager.KapanOrderParams",
              "name": "params",
              "type": "tuple"
            },
            {
              "internalType": "enum KapanOrderManager.OrderStatus",
              "name": "status",
              "type": "uint8"
            },
            {
              "internalType": "uint256",
              "name": "executedAmount",
              "type": "uint256"
            },
            {
              "internalType": "uint256",
              "name": "iterationCount",
              "type": "uint256"
            },
            {
              "internalType": "uint256",
              "name": "createdAt",
              "type": "uint256"
            }
          ],
          "internalType": "struct KapanOrderManager.OrderContext",
          "name": "",
          "type": "tuple"
        }
      ],
      "stateMutability": "view",
      "type": "function"
    },
    {
      "inputs": [
        {
          "internalType": "address",
          "name": "user",
          "type": "address"
        }
      ],
      "name": "getUserOrders",
      "outputs": [
        {
          "internalType": "bytes32[]",
          "name": "",
          "type": "bytes32[]"
        }
      ],
      "stateMutability": "view",
      "type": "function"
    },
    {
      "inputs": [],
      "name": "hooksTrampoline",
      "outputs": [
        {
          "internalType": "address",
          "name": "",
          "type": "address"
        }
      ],
      "stateMutability": "view",
      "type": "function"
    },
    {
      "inputs": [
        {
          "internalType": "bytes32",
          "name": "orderHash",
          "type": "bytes32"
        }
      ],
      "name": "isOrderComplete",
      "outputs": [
        {
          "internalType": "bool",
          "name": "",
          "type": "bool"
        }
      ],
      "stateMutability": "view",
      "type": "function"
    },
    {
      "inputs": [
        {
          "internalType": "bytes32",
          "name": "_hash",
          "type": "bytes32"
        },
        {
          "internalType": "bytes",
          "name": "_signature",
          "type": "bytes"
        }
      ],
      "name": "isValidSignature",
      "outputs": [
        {
          "internalType": "bytes4",
          "name": "",
          "type": "bytes4"
        }
      ],
      "stateMutability": "view",
      "type": "function"
    },
    {
      "inputs": [],
      "name": "orderHandler",
      "outputs": [
        {
          "internalType": "address",
          "name": "",
          "type": "address"
        }
      ],
      "stateMutability": "view",
      "type": "function"
    },
    {
      "inputs": [
        {
          "internalType": "bytes32",
          "name": "",
          "type": "bytes32"
        }
      ],
      "name": "orderSalts",
      "outputs": [
        {
          "internalType": "bytes32",
          "name": "",
          "type": "bytes32"
        }
      ],
      "stateMutability": "view",
      "type": "function"
    },
    {
      "inputs": [
        {
          "internalType": "bytes32",
          "name": "",
          "type": "bytes32"
        }
      ],
      "name": "orderSeedBalance",
      "outputs": [
        {
          "internalType": "uint256",
          "name": "",
          "type": "uint256"
        }
      ],
      "stateMutability": "view",
      "type": "function"
    },
    {
      "inputs": [
        {
          "internalType": "bytes32",
          "name": "",
          "type": "bytes32"
        }
      ],
      "name": "orders",
      "outputs": [
        {
          "components": [
            {
              "internalType": "address",
              "name": "user",
              "type": "address"
            },
            {
              "internalType": "bytes[]",
              "name": "preInstructionsPerIteration",
              "type": "bytes[]"
            },
            {
              "internalType": "uint256",
              "name": "preTotalAmount",
              "type": "uint256"
            },
            {
              "internalType": "address",
              "name": "sellToken",
              "type": "address"
            },
            {
              "internalType": "address",
              "name": "buyToken",
              "type": "address"
            },
            {
              "internalType": "uint256",
              "name": "chunkSize",
              "type": "uint256"
            },
            {
              "internalType": "uint256",
              "name": "minBuyPerChunk",
              "type": "uint256"
            },
            {
              "internalType": "bytes[]",
              "name": "postInstructionsPerIteration",
              "type": "bytes[]"
            },
            {
              "internalType": "enum KapanOrderManager.CompletionType",
              "name": "completion",
              "type": "uint8"
            },
            {
              "internalType": "uint256",
              "name": "targetValue",
              "type": "uint256"
            },
            {
              "internalType": "uint256",
              "name": "minHealthFactor",
              "type": "uint256"
            },
            {
              "internalType": "bytes32",
              "name": "appDataHash",
              "type": "bytes32"
            },
            {
              "internalType": "bool",
              "name": "isFlashLoanOrder",
              "type": "bool"
            },
            {
              "internalType": "bool",
              "name": "isKindBuy",
              "type": "bool"
            }
          ],
          "internalType": "struct KapanOrderManager.KapanOrderParams",
          "name": "params",
          "type": "tuple"
        },
        {
          "internalType": "enum KapanOrderManager.OrderStatus",
          "name": "status",
          "type": "uint8"
        },
        {
          "internalType": "uint256",
          "name": "executedAmount",
          "type": "uint256"
        },
        {
          "internalType": "uint256",
          "name": "iterationCount",
          "type": "uint256"
        },
        {
          "internalType": "uint256",
          "name": "createdAt",
          "type": "uint256"
        }
      ],
      "stateMutability": "view",
      "type": "function"
    },
    {
      "inputs": [],
      "name": "owner",
      "outputs": [
        {
          "internalType": "address",
          "name": "",
          "type": "address"
        }
      ],
      "stateMutability": "view",
      "type": "function"
    },
    {
      "inputs": [
        {
          "internalType": "bytes32",
          "name": "",
          "type": "bytes32"
        }
      ],
      "name": "preHookBuyBalance",
      "outputs": [
        {
          "internalType": "uint256",
          "name": "",
          "type": "uint256"
        }
      ],
      "stateMutability": "view",
      "type": "function"
    },
    {
      "inputs": [
        {
          "internalType": "bytes32",
          "name": "",
          "type": "bytes32"
        }
      ],
      "name": "preHookExecutedForIteration",
      "outputs": [
        {
          "internalType": "uint256",
          "name": "",
          "type": "uint256"
        }
      ],
      "stateMutability": "view",
      "type": "function"
    },
    {
      "inputs": [
        {
          "internalType": "bytes32",
          "name": "",
          "type": "bytes32"
        }
      ],
      "name": "preHookSellBalance",
      "outputs": [
        {
          "internalType": "uint256",
          "name": "",
          "type": "uint256"
        }
      ],
      "stateMutability": "view",
      "type": "function"
    },
    {
      "inputs": [
        {
          "internalType": "address",
          "name": "token",
          "type": "address"
        },
        {
          "internalType": "address",
          "name": "to",
          "type": "address"
        },
        {
          "internalType": "uint256",
          "name": "amount",
          "type": "uint256"
        }
      ],
      "name": "recoverTokens",
      "outputs": [],
      "stateMutability": "nonpayable",
      "type": "function"
    },
    {
      "inputs": [],
      "name": "renounceOwnership",
      "outputs": [],
      "stateMutability": "nonpayable",
      "type": "function"
    },
    {
      "inputs": [],
      "name": "router",
      "outputs": [
        {
          "internalType": "contract IKapanRouter",
          "name": "",
          "type": "address"
        }
      ],
      "stateMutability": "view",
      "type": "function"
    },
    {
      "inputs": [
        {
          "internalType": "address",
          "name": "_handler",
          "type": "address"
        }
      ],
      "name": "setOrderHandler",
      "outputs": [],
      "stateMutability": "nonpayable",
      "type": "function"
    },
    {
      "inputs": [],
      "name": "settlement",
      "outputs": [
        {
          "internalType": "contract IGPv2Settlement",
          "name": "",
          "type": "address"
        }
      ],
      "stateMutability": "view",
      "type": "function"
    },
    {
      "inputs": [
        {
          "internalType": "address",
          "name": "newOwner",
          "type": "address"
        }
      ],
      "name": "transferOwnership",
      "outputs": [],
      "stateMutability": "nonpayable",
      "type": "function"
    },
    {
      "inputs": [
        {
          "internalType": "address",
          "name": "",
          "type": "address"
        },
        {
          "internalType": "uint256",
          "name": "",
          "type": "uint256"
        }
      ],
      "name": "userOrders",
      "outputs": [
        {
          "internalType": "bytes32",
          "name": "",
          "type": "bytes32"
        }
      ],
      "stateMutability": "view",
      "type": "function"
    },
    {
      "inputs": [
        {
          "internalType": "address",
          "name": "",
          "type": "address"
        },
        {
          "internalType": "bytes32",
          "name": "",
          "type": "bytes32"
        }
      ],
      "name": "userSaltToOrderHash",
      "outputs": [
        {
          "internalType": "bytes32",
          "name": "",
          "type": "bytes32"
        }
      ],
      "stateMutability": "view",
      "type": "function"
    }
  ],
  "transactionHash": "0xfe93893f607ce06fdfb53e7085fd503463f7f151e21b00e640614c422f3fbffe",
  "args": [
    "0x0BE61223F99E57b8b8B7033a77B54Adc7f7cF027",
    "0xadad575d251395Ecd37Ff87a0b8e3d810683493a",
    "0xfdaFc9d1902f4e0b84f65F49f244b32b31013b74",
    "0x9008D19f58AAbD9eD0D60971565AA8510560ab41",
    "0x60Bf78233f48eC42eE3F101b9a05eC7878728006"
  ],
  "numDeployments": 26,
  "solcInputHash": "0fea5cc4d237037126c3fb60329d2945",
  "bytecode": "0x610100346101d657601f61420038819003918201601f19168301916001600160401b038311848410176101da5780849260a0946040528339810103126101d657610048816101ee565b610054602083016101ee565b91610061604082016101ee565b9061007a6080610073606084016101ee565b92016101ee565b6001600160a01b039093169384156101c3575f80546001600160a01b031981168717825560405196916001600160a01b03909116907f8be0079c531659141344cd1fd0a4f28419497f9722a3daafe3b4186f6b6457e09080a3600180556001600160a01b03169182156101b4576001600160a01b03169081156101b4576001600160a01b03169182156101b4576001600160a01b038416156101b45760805260a05260c05260e052613ffd9081610203823960805181818161017901528181612d8f01528181612f52015281816130560152818161315901526136b2015260a05181818161096501528181611237015281816113f501526122b2015260c0518181816109fc0152818161109d015281816118b501528181612209015261342b015260e0518181816112d301528181612ae301526135680152f35b63d92e233d60e01b5f5260045ffd5b631e4fbdf760e01b5f525f60045260245ffd5b5f80fd5b634e487b7160e01b5f52604160045260245ffd5b51906001600160a01b03821682036101d65756fe60806040526004361015610011575f80fd5b5f5f3560e01c80631626ba7e146119645780632fbff5a41461190e578063507f0e74146118e457806351160630146118a057806351fe1db5146118765780635485b1581461185b5780635778472a146117175780635f3e849f146116ca57806363c69f08146116405780636edd27ff1461160d578063715018a6146115c95780637489ec23146113645780638009fb6a1461130257806381e6d3ce146112bd578063856652e9146112665780638b0f4834146112215780638da5cb5b146111fa5780639c3f1e901461117d578063b584830514611154578063c3cdefe51461112a578063c73bb4bd14611056578063caf2185614611031578063cea4b43614610fee578063d08bdbf314610322578063d22b0586146102f8578063d7a3aca714610274578063e0b787e414610248578063ea6971861461021e578063f2fde38b146101ab5763f887ea4014610164575f80fd5b346101a857806003193601126101a8576040517f00000000000000000000000000000000000000000000000000000000000000006001600160a01b03168152602090f35b80fd5b50346101a85760203660031901126101a8576101c56119d6565b6101cd61321c565b6001600160a01b0316801561020a5781546001600160a01b03198116821783556001600160a01b03165f516020613fa85f395f51905f528380a380f35b631e4fbdf760e01b82526004829052602482fd5b50346101a85760203660031901126101a85760406020916004358152600a83522054604051908152f35b50346101a85760203660031901126101a85761026261285a565b61026d600435613566565b6001805580f35b50346101a85760203660031901126101a85761028e6119d6565b61029661321c565b6001600160a01b031680156102e957600280546001600160a01b0319811683179091556001600160a01b03167f7bf6e789688cd776b5170517f39970fea2870a79d649c8443dd2b0ec62823eb78380a380f35b63d92e233d60e01b8252600482fd5b50346101a85760203660031901126101a85760406020916004358152600783522054604051908152f35b50346101a85760603660031901126101a8576001600160401b03600435116101a8576101c0600435360360031901126101a85761035d61285a565b61036b60043560040161259b565b336001600160a01b0390911603610fe0576002546001600160a01b031615610fd15733815260066020526040812060243582526020526040812054610fc2573381526005602052606460408220541015610fb3576103e06103d66024600435016004356004016125af565b903091339161394b565b6103f76103d660e4600435016004356004016125af565b604051606060208201908152906001600160a01b0361041960048035016119ec565b1660808201526104cd61044c6104396024600435016004356004016125e4565b6101c060a0860152610240850191612619565b600435604481013560c08501526001600160a01b039061046e906064016119ec565b1660e08401526001600160a01b0361048a6004356084016119ec565b166101008401526004803560a481013561012086015260c48101356101408601526104ba9160e4820191016125e4565b848303607f190161016086015290612619565b6004610104813501351015610b9e578161056c916104f16101046004350135611a7c565b6004356101048101356101808401526101248101356101a08401526101448101356101c08401526101648101356101e08401526105319061018401611ea0565b15156102008301526105486101a460043501611ea0565b1515610220830152602435604083015242606083015203601f198101835282611c68565b519020808252600360205260ff600d6040842001541661058b81611a7c565b610fa457604435610f3c575b604051906105a482611bcb565b6040516105b081611bfa565b6105be6004356004016119ec565b81526001600160401b036004356024013511610b9e576105e83660048035602481013501016126af565b60208201526044600435013560408201526106076064600435016119ec565b606082015261061a6084600435016119ec565b608082015260043560a481013560a083015260c481013560c083015260e401356001600160401b038111610f38576106599060043691813501016126af565b60e082015260043561010481013561010083015261012481013561012083015261014481013561014083015261016481013561016083015261069e9061018401611ea0565b6101808201526106b36101a460043501611ea0565b6101a08201528252600160208084018281526040808601878152606087018881524260808901908152878a52600386529289209751805189546001600160a01b0319166001600160a01b0391909116178955948501518051959896939591949293870190600160401b8311610da0578154838355808410610eba575b50602001908a5260208a208a915b838310610db457505050506040870151600286015560608701516003860180546001600160a01b039283166001600160a01b031991821617909155608089015160048801805491909316911617905560a0870151600586015560c0870151600686015560e0870151805197906007870190600160401b8a11610da05781548a8355808b10610d22575b50602001908a5260208a208a915b8a8310610bf157505050859697506008601096016101008201516107f781611a7c565b61080081611a7c565b60ff801983541691161790556101208101516009880155610140810151600a880155610160810151600b880155600c87019061018081015115159060ff61ff006101a08554930151151560081b1692169061ffff191617179055600d8601905161086981611a7c565b61087281611a7c565b60ff8019835416911617905551600e85015551600f840155519101558082526004602052602435604083205560018060a01b036108b360043560040161259b565b168252600560205260408220805490600160401b821015610bdd57906108de91600182018155611ba2565b81545f1960039290921b91821b19169083901b1790556001600160a01b03610909600480350161259b565b16825260066020526040822060243583526020528060408320558160018060a01b036002541660405183602082015260208152610947604082611c68565b6040519161095483611c16565b8252602435602083015260408201527f00000000000000000000000000000000000000000000000000000000000000006001600160a01b0316803b15610bd9576109c083929183926040519485809481936335fd70e560e11b8352604060048401526044830190611f8d565b6001602483015203925af18015610bce57610bb5575b50506109e660646004350161259b565b604051634daa966160e11b8152906020826004817f00000000000000000000000000000000000000000000000000000000000000006001600160a01b03165afa918215610baa578492610b6a575b50604051636eb1769f60e11b81523060048201526001600160a01b038381166024830152909491169190602085604481865afa908115610b5e5790610b27575b602094506001600160ff1b0311610b17575b5050610a9660043560040161259b565b817f961e6438a987eab19d9850691e56ca64f442dbb689801b0f3cfc1381c98ed15e6080610ac860646004350161259b565b93610ad760846004350161259b565b604080516001600160a01b0397881681529187168983015260043560448101359183019190915260a401356060820152941693a360018055604051908152f35b610b2091613866565b5f80610a86565b506020843d602011610b56575b81610b4160209383611c68565b81010312610b525760209351610a74565b5f80fd5b3d9150610b34565b604051903d90823e3d90fd5b9091506020813d602011610ba2575b81610b8660209383611c68565b81010312610b9e57610b9790611f1c565b905f610a34565b8380fd5b3d9150610b79565b6040513d86823e3d90fd5b81610bbf91611c68565b610bca57815f6109d6565b5080fd5b6040513d84823e3d90fd5b8280fd5b634e487b7160e01b84526041600452602484fd5b80518051906001600160401b038211610d0e578d90610c108554611ca2565b601f8111610cd3575b50602091601f8411600114610c6b578360019592946020948796610c519492610c60575b50508160011b915f199060031b1c19161790565b85555b019201920191906107d4565b015190505f80610c3d565b9190601f198416868452828420935b818110610cbb5750936020936001969387969383889510610ca3575b505050811b018555610c54565b01515f1960f88460031b161c191690555f8080610c96565b92936020600181928786015181550195019301610c7a565b610cfe9086845260208420601f860160051c81019160208710610d04575b601f0160051c019061272d565b5f610c19565b9091508190610cf1565b634e487b7160e01b8e52604160045260248efd5b828c528a60208d2091820191015b8c828210610d3f5750506107c6565b9080600192610d4e8254611ca2565b80610d5d575b50505001610d30565b601f81118514610d76575050508d81555b808e5f610d54565b82825260208220610d9191601f0160051c810190860161272d565b528d6020812081835555610d6e565b634e487b7160e01b8b52604160045260248bfd5b80518051906001600160401b038211610d0e578d90610dd38554611ca2565b601f8111610e8a575b50602091601f8411600114610e22578360019592946020948796610e139492610c605750508160011b915f199060031b1c19161790565b85555b0192019201919061073d565b9190601f198416868452828420935b818110610e725750936020936001969387969383889510610e5a575b505050811b018555610e16565b01515f1960f88460031b161c191690555f8080610e4d565b92936020600181928786015181550195019301610e31565b610eb49086845260208420601f860160051c81019160208710610d0457601f0160051c019061272d565b5f610ddc565b828c528360208d2091820191015b8c828210610ed757505061072f565b9080600192610ee68254611ca2565b80610ef5575b50505001610ec8565b601f81118514610f0e575050508d81555b808e5f610eec565b82825260208220610f2991601f0160051c810190860161272d565b528d6020812081835555610f06565b8480fd5b610f8f6001600160a01b03610f5560043560640161259b565b16604051906323b872dd60e01b6020830152336024830152306044830152604435606483015260648252610f8a608483611c68565b613ddc565b80825260086020526044356040832055610597565b63966753c560e01b8252600482fd5b6352f9988b60e01b8152600490fd5b630ced304360e01b8152600490fd5b63d8f59fa560e01b8152600490fd5b6282b42960e81b8152600490fd5b50346101a85760403660031901126101a8576020906040906001600160a01b036110166119d6565b16815260068352818120602435825283522054604051908152f35b50346101a85760203660031901126101a85761104b61285a565b61026d600435612ae0565b50346101a85760203660031901126101a8576110706119d6565b61107861321c565b6001600160a01b031680156102e957604051634daa966160e11b8152906020826004817f00000000000000000000000000000000000000000000000000000000000000006001600160a01b03165afa90811561111f5783916110e2575b6110df9250613866565b80f35b90506020823d602011611117575b816110fd60209383611c68565b81010312610bd9576111116110df92611f1c565b906110d5565b3d91506110f0565b6040513d85823e3d90fd5b50346101a85760203660031901126101a85760406020916004358152600883522054604051908152f35b50346101a857806003193601126101a8576002546040516001600160a01b039091168152602090f35b50346101a85760203660031901126101a85760406111d89160043581526003602052206111a981611dcf565b9060ff600d8201541690600e810154906010600f8201549101549160405195869560a0875260a0870190611a9a565b936111e281611a7c565b60208601526040850152606084015260808301520390f35b50346101a857806003193601126101a857546040516001600160a01b039091168152602090f35b50346101a857806003193601126101a8576040517f00000000000000000000000000000000000000000000000000000000000000006001600160a01b03168152602090f35b50346101a85760403660031901126101a8576112806119d6565b6001600160a01b03168152600560205260408120805460243592908310156101a85760206112ae8484611ba2565b90549060031b1c604051908152f35b50346101a857806003193601126101a8576040517f00000000000000000000000000000000000000000000000000000000000000006001600160a01b03168152602090f35b50346101a85760403660031901126101a85761131c6119d6565b61132461285a565b6001600160a01b03168152600660209081526040808320602435845290915281205480156113555761026d90613566565b63d36d896560e01b8252600482fd5b5034610b52576020366003190112610b525760043561138161285a565b805f52600360205260405f20600d810160ff81541661139f81611a7c565b80156115ba5782546001600160a01b031633036115ac576001906113c281611a7c565b0361159d57825f52600760205260405f205461158e576113e18261331a565b600360ff1982541617905560018060a01b037f000000000000000000000000000000000000000000000000000000000000000016611481602060018060a01b0360025416855f526004825260405f2054604051908784830152838252611448604083611c68565b6040519261145584611c16565b835283830152604082015260405180938192635500079d60e01b83528460048401526024830190611f8d565b0381855afa908115611551575f9161155c575b50813b15610b52575f916024839260405194859384926395bc267360e01b845260048401525af180156115515761153c575b508183526008602052604083205480611509575b505033907fa6eb7cdc219e1518ced964e9a34e61d68a94e4f1569db3e84256ba981ba527538380a36001805580f35b82845260086020526040842084905560038201549154611535926001600160a01b03918216911661325d565b5f806114da565b6115499193505f90611c68565b5f915f6114c6565b6040513d5f823e3d90fd5b90506020813d602011611586575b8161157760209383611c68565b81010312610b5257515f611494565b3d915061156a565b6313e916e560e01b5f5260045ffd5b632b12537f60e21b5f5260045ffd5b6282b42960e81b5f5260045ffd5b63d36d896560e01b5f5260045ffd5b34610b52575f366003190112610b52576115e161321c565b5f80546001600160a01b0319811682556001600160a01b03165f516020613fa85f395f51905f528280a3005b34610b52576020366003190112610b52576004355f526003602052602061163660405f20613292565b6040519015158152f35b34610b52576020366003190112610b52576001600160a01b036116616119d6565b165f52600560205260405f206040519081602082549182815201915f5260205f20905f5b8181106116b4576116b08561169c81870382611c68565b604051918291602083526020830190611b6f565b0390f35b8254845260209093019260019283019201611685565b34610b52576060366003190112610b52576116e36119d6565b602435906001600160a01b0382168203610b52576117159161170361321c565b604435916001600160a01b031661325d565b005b34610b52576020366003190112610b52575f608060405161173781611bcb565b60405161174381611bfa565b8381526060602082015283604082015283606082015283838201528360a08201528360c0820152606060e08201528361010082015283610120820152836101408201528361016082015283610180820152836101a0820152815282602082015282604082015282606082015201526004355f52600360205261183560405f20604051906117cf82611bcb565b6117d881611dcf565b825260ff600d820154169060208301916117f181611a7c565b8252600e81015490604084019182526010600f820154916060860192835201549160808501928352604051958695602087525160a0602088015260c0870190611a9a565b935161184081611a7c565b60408601525160608501525160808401525160a08301520390f35b34610b52575f366003190112610b5257602060405160648152f35b34610b52576020366003190112610b52576004355f526009602052602060405f2054604051908152f35b34610b52575f366003190112610b52576040517f00000000000000000000000000000000000000000000000000000000000000006001600160a01b03168152602090f35b34610b52576020366003190112610b52576004355f526004602052602060405f2054604051908152f35b34610b52576040366003190112610b52576119276119d6565b61192f61285a565b60018060a01b03165f52600660205260405f206024355f5260205260405f205480156115ba5761195e90612ae0565b60018055005b34610b52576040366003190112610b52576024356001600160401b038111610b525736602382011215610b52576004810135906001600160401b038211610b52573660248383010111610b525760209160246119c39201600435611fbc565b6040516001600160e01b03199091168152f35b600435906001600160a01b0382168203610b5257565b35906001600160a01b0382168203610b5257565b805180835260209291819084018484015e5f828201840152601f01601f1916010190565b9080602083519182815201916020808360051b8301019401925f915b838310611a4f57505050505090565b9091929394602080611a6d600193601f198682030187528951611a00565b97019301930191939290611a40565b60041115611a8657565b634e487b7160e01b5f52602160045260245ffd5b9060018060a01b0382511681526101a080611b1d611ac960208601516101c060208701526101c0860190611a24565b6040860151604086015260018060a01b03606087015116606086015260018060a01b03608087015116608086015260a086015160a086015260c086015160c086015260e086015185820360e0870152611a24565b93610100810151611b2d81611a7c565b61010085015261012081015161012085015261014081015161014085015261016081015161016085015261018081015115156101808501520151151591015290565b90602080835192838152019201905f5b818110611b8c5750505090565b8251845260209384019390920191600101611b7f565b8054821015611bb7575f5260205f2001905f90565b634e487b7160e01b5f52603260045260245ffd5b60a081019081106001600160401b03821117611be657604052565b634e487b7160e01b5f52604160045260245ffd5b6101c081019081106001600160401b03821117611be657604052565b606081019081106001600160401b03821117611be657604052565b61018081019081106001600160401b03821117611be657604052565b604081019081106001600160401b03821117611be657604052565b601f909101601f19168101906001600160401b03821190821017611be657604052565b6001600160401b038111611be65760051b60200190565b90600182811c92168015611cd0575b6020831014611cbc57565b634e487b7160e01b5f52602260045260245ffd5b91607f1691611cb1565b9060405191825f825492611ced84611ca2565b8084529360018116908115611d585750600114611d14575b50611d1292500383611c68565b565b90505f9291925260205f20905f915b818310611d3c575050906020611d12928201015f611d05565b6020919350806001915483858901015201910190918492611d23565b905060209250611d1294915060ff191682840152151560051b8201015f611d05565b908154611d8681611c8b565b92611d946040519485611c68565b81845260208401905f5260205f205f915b838310611db25750505050565b600160208192611dc185611cda565b815201920192019190611da5565b90604051611ddc81611bfa565b6101a060ff600c839560018060a01b038154168552611dfd60018201611d7a565b60208601526002810154604086015260038101546001600160a01b0390811660608701526004820154166080860152600581015460a0860152600681015460c0860152611e4c60078201611d7a565b60e086015282600882015416611e6181611a7c565b6101008601526009810154610120860152600a810154610140860152600b8101546101608601520154818116151561018085015260081c161515910152565b35908115158203610b5257565b6001600160401b038111611be657601f01601f191660200190565b929192611ed482611ead565b91611ee26040519384611c68565b829481845281830111610b52578281602093845f960137010152565b9080601f83011215610b5257816020611f1993359101611ec8565b90565b51906001600160a01b0382168203610b5257565b51908115158203610b5257565b929192611f4982611ead565b91611f576040519384611c68565b829481845281830111610b52578281602093845f96015e010152565b9080601f83011215610b52578151611f1992602001611f3d565b9060606040611f199360018060a01b038151168452602081015160208501520151918160408201520190611a00565b81838101036101a08112610b525761018013610b525760405190611fdf82611c31565b611fe8836119ec565b8252611ff6602084016119ec565b936020830194855261200a604085016119ec565b6040840152606084013560608401526080840135608084015260a084013563ffffffff81168103610b525760a084015260c084013560c084015260e084013560e08401526101008401356101008401526120676101208501611ea0565b61012084015261014084810135908401526101608085013590840152610180840135906001600160401b038211610b525760608286018287010312610b5257604051946120b386611c16565b808301356001600160401b038111610b5257828201601f8286850101011215610b52578084830101356120e581611c8b565b916120f36040519384611c68565b818352602083019085850160208460051b838a890101010111610b5257906020828887010101915b60208460051b828a89010101018310612587575050509087525080830160200135926001600160401b038411610b5257606084828401018484010312610b52576040519361216885611c16565b8282018101356001600160a01b0381168103610b525785528282018101602081810135908701526001600160401b0360409091013511610b52576121b9908385019083850101604081013501611efe565b604085810191909152602088019485528282010135906001600160401b038211610b52576121eb938301920101611efe565b60408581019182525163f698da2560e01b81529092906020816004817f00000000000000000000000000000000000000000000000000000000000000006001600160a01b03165afa8015611551575f90612553575b61224b915085612743565b03612541575f916122ae61228a92519151955161229c604051978895869563137050cb60e11b8752306004880152608060248801526084870190611f8d565b85810360031901604487015290611a00565b83810360031901606485015290611b6f565b03817f00000000000000000000000000000000000000000000000000000000000000006001600160a01b03165afa5f9281612444575b506122f957506001600160e01b031992915050565b805182516001600160a01b039081169116149283612428575b5082612409575b826123f6575b826123e3575b826123d0575b826123bd575b826123a8575b8261238f575b8261237a575b82612366575b505061235b576001600160e01b031990565b630b135d3f60e11b90565b610160919250810151910151145f80612349565b91506101408201516101408201511491612343565b915061012082015115156101208201511515149161233d565b91506101008201516101008201511491612337565b915060e082015160e08201511491612331565b915060c082015160c0820151149161232b565b9150608082015160808201511491612325565b915060608201516060820151149161231f565b604080820151908301516001600160a01b039081169116149250612319565b5160208301516001600160a01b0390811691161492505f612312565b9092503d805f833e6124568183611c68565b8101908082036101a08112610b525761018013610b52576040519161247a83611c31565b61248382611f1c565b835261249160208301611f1c565b60208401526124a260408301611f1c565b6040840152606082015160608401526080820151608084015260a082015163ffffffff81168103610b525760a084015260c082015160c084015260e082015160e08401526101008201516101008401526124ff6101208301611f30565b610120840152610140828101519084015261016080830151908401526101808201516001600160401b038111610b52576125399201611f73565b50915f6122e4565b506001600160e01b0319949350505050565b506020813d60201161257f575b8161256d60209383611c68565b81010312610b525761224b9051612240565b3d9150612560565b60208080938535815201930192915061211b565b356001600160a01b0381168103610b525790565b903590601e1981360301821215610b5257018035906001600160401b038211610b5257602001918160051b36038313610b5257565b9035601e1982360301811215610b52570160208101919035906001600160401b038211610b52578160051b36038313610b5257565b90602083828152019060208160051b85010193835f915b8383106126405750505050505090565b909192939495601f198282030186528635601e1984360301811215610b52578301602081019190356001600160401b038111610b52578036038313610b52576020828280600196849695859652848401375f828201840152601f01601f19160101980196019493019190612630565b9080601f83011215610b525781356126c681611c8b565b926126d46040519485611c68565b81845260208085019260051b82010191838311610b525760208201905b83821061270057505050505090565b81356001600160401b038111610b525760209161272287848094880101611efe565b8152019101906126f1565b818110612738575050565b5f815560010161272d565b7fd5a25ba2e97094ad7d83dc28a6572da797d6b3e7fc6663bd93efb789fc17e4899060018060a01b038151169060018060a01b036020820151169060018060a01b036040820151166060820151608083015163ffffffff60a08501511660c08501519060e086015192610100870151946101208801511515966101606101408a0151990151996040519b60208d019d8e5260408d015260608c015260808b015260a08a015260c089015260e08801526101008701526101208601526101408501526101608401526101808301526101a08201526101a081526128276101c082611c68565b51902060405190602082019261190160f01b84526022830152604282015260428152612854606282611c68565b51902090565b60026001541461286b576002600155565b633ee5aeb560e01b5f5260045ffd5b9190820180921161288757565b634e487b7160e01b5f52601160045260245ffd5b602081830312610b52578051906001600160401b038211610b5257019080601f83011215610b52578151916128cf83611c8b565b926128dd6040519485611c68565b80845260208085019160051b83010191838311610b525760208101915b83831061290957505050505090565b82516001600160401b038111610b52578201906040828703601f190112610b52576040519061293782611c4d565b60208301516001600160401b038111610b525760209084010187601f82011215610b52578781602061296b93519101611f3d565b82526040830151916001600160401b038311610b525761299388602080969581960101611f73565b838201528152019201916128fa565b9190820391821161288757565b906129b982611c8b565b6129c66040519182611c68565b82815280926129d7601f1991611c8b565b01905f5b8281106129e757505050565b6020906040516129f681611c4d565b60608152606083820152828285010152016129db565b60405190612a1b604083611c68565b60068252653937baba32b960d11b6020830152565b805115611bb75760200190565b805160011015611bb75760400190565b8051821015611bb75760209160051b010190565b602081016020825282518091526040820191602060408360051b8301019401925f915b838310612a9357505050505090565b9091929394602080612ad1600193603f1986820301875289519083612ac18351604084526040840190611a00565b9201519084818403910152611a00565b97019301930191939290612a84565b907f00000000000000000000000000000000000000000000000000000000000000006001600160a01b0316330361320d575f91805f52600360205260405f2091600d830191600160ff845416612b3581611a7c565b0361159d57805f52600760205260405f205492600f8501938454906001820180921161288757036131fe57815f5260076020525f6040812055612b8e612b7f855460078801613cfa565b6020808251830101910161289b565b93825f52600960205260405f205490835f52600a60205260405f20549260038801986024602060018060a01b038c5416604051928380926370a0823160e01b82523060048301525afa908115611551575f916131cc575b50602460048b0195602060018060a01b03885416604051938480926370a0823160e01b82523060048301525afa918215611551575f92613198575b50885f5260096020525f6040812055885f52600a6020525f6040812055828082115f1461318f57612c50916129a2565b965b8082111561318657612c63916129a2565b945b600c8b015460081c60ff16156130975760058b0154878181101561308e57612c8c916129a2565b915b828015159182613083575b5050613044575b85612f35575b508851906002820180921161288757612cc1612d0d926129af565b9b546001600160a01b0316908c612cfd612cdb848b613da9565b9160405192612ce984611c4d565b612cf1612a0c565b84526020840152612a30565b52612d078d612a30565b50613da9565b60405190612d1a82611c4d565b612d22612a0c565b82526020820152612d328b612a3d565b52612d3c8a612a3d565b505f5b8851811015612d8057612d52818a612a4d565b519060028101918282116128875782612d7991612d728f95600196612a4d565b528d612a4d565b5001612d3f565b5092959890939650969093965b7f00000000000000000000000000000000000000000000000000000000000000006001600160a01b0316803b15610b525760405163f0dbeea560e01b8152915f918391829084908290612de39060048301612a61565b03925af1801561155157612f20575b50600e810193612e0387865461287a565b855580545f198114612f0c57928892837f2fe16d47ffa3738e1c53765ec8dcbe2adbce46d0899a775de9b539572cfd864f606060409a989560017f5b19a0b08bbd8e7537d63d9f1db0947c5eba6d93e02a7e0a1520ea5f29bd644c9d9b9901815583865260086020528b862054612efa575b54998b51908b82526020820152898c820152a2612e9181613292565b612ea8575b505050505082519182526020820152a2565b825460ff19166002179092555054915485519081526001600160a01b0392909216917fc05078bb1894dee4a12f4b4f2822aa8625022f271aee8bffc64c6621f84c4d9490602090a35f85818080612e96565b8386526008602052858c812055612e75565b634e487b7160e01b84526011600452602484fd5b612f2d9192505f90611c68565b5f905f612df2565b5460405163095ea7b360e01b602082019081526001600160a01b037f000000000000000000000000000000000000000000000000000000000000000081169316905f908190612f9a85612f8c8d8960248401613242565b03601f198101875286611c68565b84519082855af1612fa9613eda565b8161300d575b5080613003575b15612fc3575b5050612ca6565b610f8a612ffb936040519063095ea7b360e01b602083015260248201525f604482015260448152612ff5606482611c68565b82613ddc565b5f8080612fbc565b50803b1515612fb6565b8051801592508215613022575b50505f612faf565b8192509060209181010312610b5257602061303d9101611f30565b5f8061301a565b8b5461307e9083906001600160a01b037f00000000000000000000000000000000000000000000000000000000000000008116911661325d565b612ca0565b10159050825f612c99565b50505f91612c8e565b9a505083613147575b875160018101809111612887576130b96130ca916129af565b9a546001600160a01b031685613da9565b604051906130d782611c4d565b6130df612a0c565b825260208201526130ef8b612a30565b526130f98a612a30565b505f5b88518110156131365761310f818a612a4d565b51906001810191828211612887578261312f91612d728f95600196612a4d565b50016130fc565b509295989093965096909396612d8d565b89546131819085906001600160a01b037f00000000000000000000000000000000000000000000000000000000000000008116911661325d565b6130a0565b50505f94612c65565b50505f96612c52565b9091506020813d6020116131c4575b816131b460209383611c68565b81010312610b525751905f612c20565b3d91506131a7565b90506020813d6020116131f6575b816131e760209383611c68565b81010312610b5257515f612be5565b3d91506131da565b631feb8b7960e21b5f5260045ffd5b631cb3967f60e21b5f5260045ffd5b5f546001600160a01b0316330361322f57565b63118cdaa760e01b5f523360045260245ffd5b6001600160a01b039091168152602081019190915260400190565b610f8a611d12939261328460405194859263a9059cbb60e01b602085015260248401613242565b03601f198101845283611c68565b60ff6008820154166132a381611a7c565b6002811461330a576132b481611a7c565b600181146132de576132c581611a7c565b156132cf57505f90565b6002600e820154910154111590565b506132f26002820154600e830154906129a2565b801591821561330057505090565b6005015411919050565b506009600f820154910154111590565b61332d6002820154600e830154906129a2565b80156135625760058201548082101561355a5750905b6133566010820154600f83015490613e4f565b9160018060a01b036003830154169160018060a01b036004820154169160068201549060ff600c600b85015494015460081c165f14613533577f6ed88e868af0a1983e3886d5f3e95a2fafbd6c3450bc229e27342283dc429ccc935b604051956133bf87611c31565b865260208601523060408601526060850152608084015263ffffffff841660a084015260c08301525f60e08301526101008201525f6101208201525f516020613f885f395f51905f526101408201525f516020613f885f395f51905f5261016082015260018060a01b037f000000000000000000000000000000000000000000000000000000000000000016906040519063f698da2560e01b8252602082600481865afa908115611551575f916134fd575b61347b9250612743565b916040519260208401523060601b604084015263ffffffff60e01b9060e01b166054830152603882526134af605883611c68565b803b15610b52576040516254cdef60e61b815260206004820152915f9183918290849082906134e2906024830190611a00565b03925af18015611551576134f35750565b5f611d1291611c68565b90506020823d60201161352b575b8161351860209383611c68565b81010312610b525761347b915190613471565b3d915061350b565b7ff3b277728b3fee749481eb3e0b3b48980dbbab78658fc419025cb16eee346775936133b2565b905090613343565b5050565b7f00000000000000000000000000000000000000000000000000000000000000006001600160a01b0316330361320d575f90805f52600360205260405f2092600160ff600d860154166135b881611a7c565b0361159d57815f52600760205260405f205461385757600f84019182546001810180911161288757815f52600760205260405f20556135fe612b7f845460018801613cfa565b9283516001810180911161288757613615906129af565b95600581015495613634600383019760018060a01b0389541690613da9565b6040519061364182611c4d565b613649612a0c565b8252602082015261365989612a30565b5261366388612a30565b505f5b86518110156136a6576136798188612a4d565b51906001810191828211612887578261369f916136986001958e612a4d565b528b612a4d565b5001613666565b509396929591945092917f00000000000000000000000000000000000000000000000000000000000000006001600160a01b0316803b15610b525760405163f0dbeea560e01b8152915f9183918290849082906137069060048301612a61565b03925af1801561155157613841575b50546040516370a0823160e01b815230600482015290602090829060249082906001600160a01b03165afa908115610bce57829161380e575b50602492602091868452600983526040842055600460018060a01b0391015416604051938480926370a0823160e01b82523060048301525afa9182156138015781926137be575b5091602091604084865f516020613f685f395f51905f529652600a8552205554604051908152a2565b9150916020823d6020116137f9575b816137da60209383611c68565b81010312610b5257905190915f516020613f685f395f51905f52613795565b3d91506137cd565b50604051903d90823e3d90fd5b90506020813d602011613839575b8161382960209383611c68565b81010312610b525751602461374e565b3d915061381c565b61384e9192505f90611c68565b5f906020613715565b63e617d13160e01b5f5260045ffd5b60405190602082019263095ea7b360e01b845260018060a01b0316928360248401525f1960448401526044835261389e606484611c68565b82516001600160a01b038316915f91829182855af1906138bc613eda565b82613911575b5081613906575b50156138d457505050565b610f8a611d12936040519063095ea7b360e01b602083015260248201525f604482015260448152612ff5606482611c68565b90503b15155f6138c9565b80519192508115918215613929575b5050905f6138c2565b8192509060209181010312610b525760206139449101611f30565b5f80613920565b909291935f935b80851015613cf2578460051b830135601e1984360301811215610b525783019283356001600160401b038111610b525760208501908036038213610b52578501946020808701929082880312610b525735906001600160401b038211610b52570181603f82011215610b52576020810135956139cd87611c8b565b966139db6040519889611c68565b808852602080808a019260051b8501010192848411610b525760408101915b848310613c54575050505050505f5b8451811015613c47576020613a1e8287612a4d565b518051604051613a4c84828180820195805191829101875e81015f838201520301601f198101835282611c68565b51902060405183810190653937baba32b960d11b825260068152613a71602682611c68565b51902003613b44570151608081805181010312610b5257604051608081016001600160401b03811182821017611be65760405260208201518152613ab760408301611f1c565b60208201526080613aca60608401611f1c565b926040830193845201516008811015610b52578060606001930152145f14613b3d57516001600160a01b039081169087168103613b385750875b6001600160a01b03908116908916808203613b23575050600101613a09565b63041bc0b160e41b5f5260045260245260445ffd5b613b04565b5087613b04565b01518051810190602081830312610b52576020810151906001600160401b038211610b525701808203601f19810192919060c013610b52576040519160c083016001600160401b03811184821017611be6576040526020820151600a811015610b52578352613bb560408301611f1c565b6020840152613bc660608301611f1c565b604084019081526080830151606085015260a0830151909490916001600160401b038311610b52576020928380613c01930191860101611f73565b6080850152607f190112610b525760405191602083016001600160401b03811184821017611be65760405260c090910151825260a00152516001600160a01b0316613b04565b5092509360010193613952565b82356001600160401b038111610b525782016020810191906040908603601f190112610b525760405190613c8782611c4d565b60208301356001600160401b038111610b525760209084010188601f82011215610b525788816020613cbb93359101611ec8565b82526040830135916001600160401b038311610b5257613ce389602080969581960101611efe565b838201528152019201916139fa565b509350505050565b9060608254908115613d3e575080821015613d245750611f1991613d1e9190611ba2565b50611cda565b5f1981019150811161288757611f1991613d1e9190611ba2565b9250505060405190613d51602083611c68565b5f82525f90815b828110613d8657505050611f19613d789160405192839160208301612a61565b03601f198101835282611c68565b602090604051613d9581611c4d565b838152838382015282828701015201613d58565b9060405191602083015260018060a01b031660408201525f60608201526003608082015260808152611f1960a082611c68565b5f80613e049260018060a01b03169360208151910182865af1613dfd613eda565b9083613f09565b8051908115159182613e2c575b5050613e1a5750565b635274afe760e01b5f5260045260245ffd5b8192509060209181010312610b52576020613e479101611f30565b155f80613e11565b90610708810290808204610708149015171561288757613e6f908261287a565b61070881019081811161288757610707019081116128875780421115613ed55750610708613e9d82426129a2565b046001810180911161288757610708810290808204610708149015171561288757613ec79161287a565b5f1981019081116128875790565b905090565b3d15613f04573d90613eeb82611ead565b91613ef96040519384611c68565b82523d5f602084013e565b606090565b90613f2d5750805115613f1e57805190602001fd5b630a12f52160e11b5f5260045ffd5b81511580613f5e575b613f3e575090565b639996b31560e01b5f9081526001600160a01b0391909116600452602490fd5b50803b15613f3656feed6ad11a587c194b3ad43896e949cb9a05975419926eda9b6b571d1847c9a7aa5a28e9363bb942b639270062aa6bb295f434bcdfc42c97267bf003f272060dc98be0079c531659141344cd1fd0a4f28419497f9722a3daafe3b4186f6b6457e0a2646970667358221220884435371fcdd4d84a9850498e2ef0ce160d48b646fd625fe351ec7fff3038c664736f6c634300081e0033",
  "devdoc": {
    "details": "Singleton contract that holds order context and executes hooks",
    "errors": {
      "AddressEmptyCode(address)": [
        {
          "details": "There's no code at `target` (it is not a contract)."
        }
      ],
      "AddressInsufficientBalance(address)": [
        {
          "details": "The ETH balance of the account is not enough to perform the operation."
        }
      ],
      "FailedInnerCall()": [
        {
          "details": "A call to an address target failed. The target may have reverted."
        }
      ],
      "OwnableInvalidOwner(address)": [
        {
          "details": "The owner is not a valid owner account. (eg. `address(0)`)"
        }
      ],
      "OwnableUnauthorizedAccount(address)": [
        {
          "details": "The caller account is not authorized to perform an operation."
        }
      ],
      "ReentrancyGuardReentrantCall()": [
        {
          "details": "Unauthorized reentrant call."
        }
      ],
      "SafeERC20FailedOperation(address)": [
        {
          "details": "An operation with an ERC20 token failed."
        }
      ]
    },
    "kind": "dev",
    "methods": {
      "cancelOrder(bytes32)": {
        "params": {
          "orderHash": "The order to cancel"
        }
      },
      "createOrder((address,bytes[],uint256,address,address,uint256,uint256,bytes[],uint8,uint256,uint256,bytes32,bool,bool),bytes32,uint256)": {
        "details": "User must approve this contract to pull seedAmount of sellToken before calling",
        "params": {
          "params": "The order parameters",
          "salt": "Unique salt for the order",
          "seedAmount": "Amount of sell tokens to pull from user for first chunk (0 to skip)"
        },
        "returns": {
          "orderHash": "The hash identifying this order"
        }
      },
      "executePostHook(bytes32)": {
        "details": "Prepends a ToOutput instruction with the actual received amount, so all      stored instructions can reference index 0 for the swap output",
        "params": {
          "orderHash": "The order being settled"
        }
      },
      "executePostHookBySalt(address,bytes32)": {
        "details": "Allows pre-computing appData before order creation",
        "params": {
          "salt": "The order salt (known before tx)",
          "user": "The order owner"
        }
      },
      "executePreHook(bytes32)": {
        "details": "Prepends a ToOutput instruction with chunkSize, so all stored instructions      can reference index 0 for the chunk amount. Chunk index is read from iterationCount.",
        "params": {
          "orderHash": "The order being settled"
        }
      },
      "executePreHookBySalt(address,bytes32)": {
        "details": "Allows pre-computing appData before order creation. Chunk index is determined      from the order's iterationCount, so the same appData works for all chunks.",
        "params": {
          "salt": "The order salt (known before tx)",
          "user": "The order owner"
        }
      },
      "isValidSignature(bytes32,bytes)": {
        "details": "For non-Safe ERC-1271 contracts, ComposableCoW returns signature as:      abi.encode(GPv2Order.Data, PayloadStruct)      We decode this and verify the order matches what the handler generates."
      },
      "owner()": {
        "details": "Returns the address of the current owner."
      },
      "renounceOwnership()": {
        "details": "Leaves the contract without owner. It will not be possible to call `onlyOwner` functions. Can only be called by the current owner. NOTE: Renouncing ownership will leave the contract without an owner, thereby disabling any functionality that is only available to the owner."
      },
      "transferOwnership(address)": {
        "details": "Transfers ownership of the contract to a new account (`newOwner`). Can only be called by the current owner."
      }
    },
    "stateVariables": {
      "ROUTER_PROTOCOL_HASH": {
        "details": "Constant hash for \"router\" protocol name comparison"
      },
      "preHookExecutedForIteration": {
        "details": "Stores (iterationCount + 1) when pre-hook executed, 0 means no pre-hook pending"
      },
      "preHookSellBalance": {
        "details": "Prevents leftover token accumulation from affecting subsequent orders"
      }
    },
    "title": "KapanOrderManager",
    "version": 1
  },
  "userdoc": {
    "kind": "user",
    "methods": {
      "MAX_ORDERS_PER_USER()": {
        "notice": "Maximum orders per user to prevent storage DOS"
      },
      "approveVaultRelayer(address)": {
        "notice": "Approve vault relayer to spend a token"
      },
      "cancelOrder(bytes32)": {
        "notice": "Cancel an active order and refund any remaining seed tokens"
      },
      "composableCoW()": {
        "notice": "The ComposableCoW contract for order registration (immutable)"
      },
      "createOrder((address,bytes[],uint256,address,address,uint256,uint256,bytes[],uint8,uint256,uint256,bytes32,bool,bool),bytes32,uint256)": {
        "notice": "Create a new CoW order with seed tokens for first chunk"
      },
      "executePostHook(bytes32)": {
        "notice": "Execute post-hook (called by HooksTrampoline during CoW settlement)"
      },
      "executePostHookBySalt(address,bytes32)": {
        "notice": "Execute post-hook using (user, salt) lookup"
      },
      "executePreHook(bytes32)": {
        "notice": "Execute pre-hook (called by HooksTrampoline during CoW settlement)"
      },
      "executePreHookBySalt(address,bytes32)": {
        "notice": "Execute pre-hook using (user, salt) lookup"
      },
      "getOrder(bytes32)": {
        "notice": "Get order context"
      },
      "getUserOrders(address)": {
        "notice": "Get user's orders"
      },
      "hooksTrampoline()": {
        "notice": "The HooksTrampoline contract (caller for hooks) (immutable)"
      },
      "isOrderComplete(bytes32)": {
        "notice": "Check if an order is complete based on completion criteria"
      },
      "isValidSignature(bytes32,bytes)": {
        "notice": "Verify signature for CoW Protocol orders"
      },
      "orderHandler()": {
        "notice": "The KapanOrderHandler for generating orders"
      },
      "orderSalts(bytes32)": {
        "notice": "Salt used for each order (for ComposableCoW cancellation)"
      },
      "orderSeedBalance(bytes32)": {
        "notice": "Track seed tokens deposited per order for accurate refunds on cancel"
      },
      "orders(bytes32)": {
        "notice": "Order contexts by order hash"
      },
      "preHookExecutedForIteration(bytes32)": {
        "notice": "Track pre-hook execution per order to prevent re-execution"
      },
      "preHookSellBalance(bytes32)": {
        "notice": "Track token balances at end of pre-hook for delta calculation in post-hook"
      },
      "recoverTokens(address,address,uint256)": {
        "notice": "Recover stuck tokens (owner only)"
      },
      "router()": {
        "notice": "The KapanRouter for executing lending operations (immutable)"
      },
      "setOrderHandler(address)": {
        "notice": "Update the order handler address"
      },
      "settlement()": {
        "notice": "The GPv2Settlement contract (immutable)"
      },
      "userOrders(address,uint256)": {
        "notice": "User's active orders"
      },
      "userSaltToOrderHash(address,bytes32)": {
        "notice": "Lookup order hash by (user, salt) - enables pre-computing appData"
      }
    },
    "notice": "Manages CoW Protocol orders for Kapan, acting as ERC-1271 signer",
    "version": 1
  },
  "storageLayout": {
    "storage": [
      {
        "astId": 1578,
        "contract": "contracts/v2/cow/KapanOrderManager.sol:KapanOrderManager",
        "label": "_owner",
        "offset": 0,
        "slot": "0",
        "type": "t_address"
      },
      {
        "astId": 3093,
        "contract": "contracts/v2/cow/KapanOrderManager.sol:KapanOrderManager",
        "label": "_status",
        "offset": 0,
        "slot": "1",
        "type": "t_uint256"
      },
      {
        "astId": 17005,
        "contract": "contracts/v2/cow/KapanOrderManager.sol:KapanOrderManager",
        "label": "orderHandler",
        "offset": 0,
        "slot": "2",
        "type": "t_address"
      },
      {
        "astId": 17011,
        "contract": "contracts/v2/cow/KapanOrderManager.sol:KapanOrderManager",
        "label": "orders",
        "offset": 0,
        "slot": "3",
        "type": "t_mapping(t_bytes32,t_struct(OrderContext)16987_storage)"
      },
      {
        "astId": 17016,
        "contract": "contracts/v2/cow/KapanOrderManager.sol:KapanOrderManager",
        "label": "orderSalts",
        "offset": 0,
        "slot": "4",
        "type": "t_mapping(t_bytes32,t_bytes32)"
      },
      {
        "astId": 17022,
        "contract": "contracts/v2/cow/KapanOrderManager.sol:KapanOrderManager",
        "label": "userOrders",
        "offset": 0,
        "slot": "5",
        "type": "t_mapping(t_address,t_array(t_bytes32)dyn_storage)"
      },
      {
        "astId": 17029,
        "contract": "contracts/v2/cow/KapanOrderManager.sol:KapanOrderManager",
        "label": "userSaltToOrderHash",
        "offset": 0,
        "slot": "6",
        "type": "t_mapping(t_address,t_mapping(t_bytes32,t_bytes32))"
      },
      {
        "astId": 17034,
        "contract": "contracts/v2/cow/KapanOrderManager.sol:KapanOrderManager",
        "label": "preHookExecutedForIteration",
        "offset": 0,
        "slot": "7",
        "type": "t_mapping(t_bytes32,t_uint256)"
      },
      {
        "astId": 17039,
        "contract": "contracts/v2/cow/KapanOrderManager.sol:KapanOrderManager",
        "label": "orderSeedBalance",
        "offset": 0,
        "slot": "8",
        "type": "t_mapping(t_bytes32,t_uint256)"
      },
      {
        "astId": 17044,
        "contract": "contracts/v2/cow/KapanOrderManager.sol:KapanOrderManager",
        "label": "preHookSellBalance",
        "offset": 0,
        "slot": "9",
        "type": "t_mapping(t_bytes32,t_uint256)"
      },
      {
        "astId": 17048,
        "contract": "contracts/v2/cow/KapanOrderManager.sol:KapanOrderManager",
        "label": "preHookBuyBalance",
        "offset": 0,
        "slot": "10",
        "type": "t_mapping(t_bytes32,t_uint256)"
      }
    ],
    "types": {
      "t_address": {
        "encoding": "inplace",
        "label": "address",
        "numberOfBytes": "20"
      },
      "t_array(t_bytes32)dyn_storage": {
        "base": "t_bytes32",
        "encoding": "dynamic_array",
        "label": "bytes32[]",
        "numberOfBytes": "32"
      },
      "t_array(t_bytes_storage)dyn_storage": {
        "base": "t_bytes_storage",
        "encoding": "dynamic_array",
        "label": "bytes[]",
        "numberOfBytes": "32"
      },
      "t_bool": {
        "encoding": "inplace",
        "label": "bool",
        "numberOfBytes": "1"
      },
      "t_bytes32": {
        "encoding": "inplace",
        "label": "bytes32",
        "numberOfBytes": "32"
      },
      "t_bytes_storage": {
        "encoding": "bytes",
        "label": "bytes",
        "numberOfBytes": "32"
      },
      "t_enum(CompletionType)16916": {
        "encoding": "inplace",
        "label": "enum KapanOrderManager.CompletionType",
        "numberOfBytes": "1"
      },
      "t_enum(OrderStatus)16921": {
        "encoding": "inplace",
        "label": "enum KapanOrderManager.OrderStatus",
        "numberOfBytes": "1"
      },
      "t_mapping(t_address,t_array(t_bytes32)dyn_storage)": {
        "encoding": "mapping",
        "key": "t_address",
        "label": "mapping(address => bytes32[])",
        "numberOfBytes": "32",
        "value": "t_array(t_bytes32)dyn_storage"
      },
      "t_mapping(t_address,t_mapping(t_bytes32,t_bytes32))": {
        "encoding": "mapping",
        "key": "t_address",
        "label": "mapping(address => mapping(bytes32 => bytes32))",
        "numberOfBytes": "32",
        "value": "t_mapping(t_bytes32,t_bytes32)"
      },
      "t_mapping(t_bytes32,t_bytes32)": {
        "encoding": "mapping",
        "key": "t_bytes32",
        "label": "mapping(bytes32 => bytes32)",
        "numberOfBytes": "32",
        "value": "t_bytes32"
      },
      "t_mapping(t_bytes32,t_struct(OrderContext)16987_storage)": {
        "encoding": "mapping",
        "key": "t_bytes32",
        "label": "mapping(bytes32 => struct KapanOrderManager.OrderContext)",
        "numberOfBytes": "32",
        "value": "t_struct(OrderContext)16987_storage"
      },
      "t_mapping(t_bytes32,t_uint256)": {
        "encoding": "mapping",
        "key": "t_bytes32",
        "label": "mapping(bytes32 => uint256)",
        "numberOfBytes": "32",
        "value": "t_uint256"
      },
      "t_struct(KapanOrderParams)16973_storage": {
        "encoding": "inplace",
        "label": "struct KapanOrderManager.KapanOrderParams",
        "members": [
          {
            "astId": 16943,
            "contract": "contracts/v2/cow/KapanOrderManager.sol:KapanOrderManager",
            "label": "user",
            "offset": 0,
            "slot": "0",
            "type": "t_address"
          },
          {
            "astId": 16946,
            "contract": "contracts/v2/cow/KapanOrderManager.sol:KapanOrderManager",
            "label": "preInstructionsPerIteration",
            "offset": 0,
            "slot": "1",
            "type": "t_array(t_bytes_storage)dyn_storage"
          },
          {
            "astId": 16948,
            "contract": "contracts/v2/cow/KapanOrderManager.sol:KapanOrderManager",
            "label": "preTotalAmount",
            "offset": 0,
            "slot": "2",
            "type": "t_uint256"
          },
          {
            "astId": 16950,
            "contract": "contracts/v2/cow/KapanOrderManager.sol:KapanOrderManager",
            "label": "sellToken",
            "offset": 0,
            "slot": "3",
            "type": "t_address"
          },
          {
            "astId": 16952,
            "contract": "contracts/v2/cow/KapanOrderManager.sol:KapanOrderManager",
            "label": "buyToken",
            "offset": 0,
            "slot": "4",
            "type": "t_address"
          },
          {
            "astId": 16954,
            "contract": "contracts/v2/cow/KapanOrderManager.sol:KapanOrderManager",
            "label": "chunkSize",
            "offset": 0,
            "slot": "5",
            "type": "t_uint256"
          },
          {
            "astId": 16956,
            "contract": "contracts/v2/cow/KapanOrderManager.sol:KapanOrderManager",
            "label": "minBuyPerChunk",
            "offset": 0,
            "slot": "6",
            "type": "t_uint256"
          },
          {
            "astId": 16959,
            "contract": "contracts/v2/cow/KapanOrderManager.sol:KapanOrderManager",
            "label": "postInstructionsPerIteration",
            "offset": 0,
            "slot": "7",
            "type": "t_array(t_bytes_storage)dyn_storage"
          },
          {
            "astId": 16962,
            "contract": "contracts/v2/cow/KapanOrderManager.sol:KapanOrderManager",
            "label": "completion",
            "offset": 0,
            "slot": "8",
            "type": "t_enum(CompletionType)16916"
          },
          {
            "astId": 16964,
            "contract": "contracts/v2/cow/KapanOrderManager.sol:KapanOrderManager",
            "label": "targetValue",
            "offset": 0,
            "slot": "9",
            "type": "t_uint256"
          },
          {
            "astId": 16966,
            "contract": "contracts/v2/cow/KapanOrderManager.sol:KapanOrderManager",
            "label": "minHealthFactor",
            "offset": 0,
            "slot": "10",
            "type": "t_uint256"
          },
          {
            "astId": 16968,
            "contract": "contracts/v2/cow/KapanOrderManager.sol:KapanOrderManager",
            "label": "appDataHash",
            "offset": 0,
            "slot": "11",
            "type": "t_bytes32"
          },
          {
            "astId": 16970,
            "contract": "contracts/v2/cow/KapanOrderManager.sol:KapanOrderManager",
            "label": "isFlashLoanOrder",
            "offset": 0,
            "slot": "12",
            "type": "t_bool"
          },
          {
            "astId": 16972,
            "contract": "contracts/v2/cow/KapanOrderManager.sol:KapanOrderManager",
            "label": "isKindBuy",
            "offset": 1,
            "slot": "12",
            "type": "t_bool"
          }
        ],
        "numberOfBytes": "416"
      },
      "t_struct(OrderContext)16987_storage": {
        "encoding": "inplace",
        "label": "struct KapanOrderManager.OrderContext",
        "members": [
          {
            "astId": 16977,
            "contract": "contracts/v2/cow/KapanOrderManager.sol:KapanOrderManager",
            "label": "params",
            "offset": 0,
            "slot": "0",
            "type": "t_struct(KapanOrderParams)16973_storage"
          },
          {
            "astId": 16980,
            "contract": "contracts/v2/cow/KapanOrderManager.sol:KapanOrderManager",
            "label": "status",
            "offset": 0,
            "slot": "13",
            "type": "t_enum(OrderStatus)16921"
          },
          {
            "astId": 16982,
            "contract": "contracts/v2/cow/KapanOrderManager.sol:KapanOrderManager",
            "label": "executedAmount",
            "offset": 0,
            "slot": "14",
            "type": "t_uint256"
          },
          {
            "astId": 16984,
            "contract": "contracts/v2/cow/KapanOrderManager.sol:KapanOrderManager",
            "label": "iterationCount",
            "offset": 0,
            "slot": "15",
            "type": "t_uint256"
          },
          {
            "astId": 16986,
            "contract": "contracts/v2/cow/KapanOrderManager.sol:KapanOrderManager",
            "label": "createdAt",
            "offset": 0,
            "slot": "16",
            "type": "t_uint256"
          }
        ],
        "numberOfBytes": "544"
      },
      "t_uint256": {
        "encoding": "inplace",
        "label": "uint256",
        "numberOfBytes": "32"
      }
    }
  }
}