{
  "address": "0x0853C12377f9A83978376D2473aEcD032FCc7714",
  "abi": [
    {
      "inputs": [
        {
          "internalType": "address",
          "name": "owner",
          "type": "address"
        }
      ],
      "stateMutability": "nonpayable",
      "type": "constructor"
    },
    {
      "inputs": [
        {
          "internalType": "address",
          "name": "target",
          "type": "address"
        }
      ],
      "name": "AddressEmptyCode",
      "type": "error"
    },
    {
      "inputs": [
        {
          "internalType": "address",
          "name": "account",
          "type": "address"
        }
      ],
      "name": "AddressInsufficientBalance",
      "type": "error"
    },
    {
      "inputs": [],
      "name": "FailedInnerCall",
      "type": "error"
    },
    {
      "inputs": [
        {
          "internalType": "address",
          "name": "owner",
          "type": "address"
        }
      ],
      "name": "OwnableInvalidOwner",
      "type": "error"
    },
    {
      "inputs": [
        {
          "internalType": "address",
          "name": "account",
          "type": "address"
        }
      ],
      "name": "OwnableUnauthorizedAccount",
      "type": "error"
    },
    {
      "inputs": [],
      "name": "ReentrancyGuardReentrantCall",
      "type": "error"
    },
    {
      "inputs": [
        {
          "internalType": "address",
          "name": "token",
          "type": "address"
        }
      ],
      "name": "SafeERC20FailedOperation",
      "type": "error"
    },
    {
      "anonymous": false,
      "inputs": [
        {
          "indexed": false,
          "internalType": "bytes32",
          "name": "provider",
          "type": "bytes32"
        },
        {
          "indexed": true,
          "internalType": "address",
          "name": "token",
          "type": "address"
        },
        {
          "indexed": false,
          "internalType": "uint256",
          "name": "amountWithFee",
          "type": "uint256"
        }
      ],
      "name": "FlashRepaid",
      "type": "event"
    },
    {
      "anonymous": false,
      "inputs": [
        {
          "indexed": false,
          "internalType": "bytes32",
          "name": "provider",
          "type": "bytes32"
        },
        {
          "indexed": true,
          "internalType": "address",
          "name": "token",
          "type": "address"
        },
        {
          "indexed": false,
          "internalType": "uint256",
          "name": "amount",
          "type": "uint256"
        }
      ],
      "name": "FlashRequested",
      "type": "event"
    },
    {
      "anonymous": false,
      "inputs": [
        {
          "indexed": true,
          "internalType": "address",
          "name": "previousOwner",
          "type": "address"
        },
        {
          "indexed": true,
          "internalType": "address",
          "name": "newOwner",
          "type": "address"
        }
      ],
      "name": "OwnershipTransferred",
      "type": "event"
    },
    {
      "inputs": [],
      "name": "aaveEnabled",
      "outputs": [
        {
          "internalType": "bool",
          "name": "",
          "type": "bool"
        }
      ],
      "stateMutability": "view",
      "type": "function"
    },
    {
      "inputs": [],
      "name": "aaveV3Pool",
      "outputs": [
        {
          "internalType": "contract IAaveV3Pool",
          "name": "",
          "type": "address"
        }
      ],
      "stateMutability": "view",
      "type": "function"
    },
    {
      "inputs": [
        {
          "internalType": "string",
          "name": "protocolName",
          "type": "string"
        },
        {
          "internalType": "address",
          "name": "gateway",
          "type": "address"
        }
      ],
      "name": "addGateway",
      "outputs": [],
      "stateMutability": "nonpayable",
      "type": "function"
    },
    {
      "inputs": [
        {
          "components": [
            {
              "internalType": "string",
              "name": "protocolName",
              "type": "string"
            },
            {
              "internalType": "bytes",
              "name": "data",
              "type": "bytes"
            }
          ],
          "internalType": "struct ProtocolTypes.ProtocolInstruction[]",
          "name": "instructions",
          "type": "tuple[]"
        },
        {
          "internalType": "address",
          "name": "caller",
          "type": "address"
        }
      ],
      "name": "authorizeInstructions",
      "outputs": [
        {
          "internalType": "address[]",
          "name": "targets",
          "type": "address[]"
        },
        {
          "internalType": "bytes[]",
          "name": "data",
          "type": "bytes[]"
        }
      ],
      "stateMutability": "view",
      "type": "function"
    },
    {
      "inputs": [
        {
          "components": [
            {
              "internalType": "uint256",
              "name": "amount",
              "type": "uint256"
            },
            {
              "internalType": "address",
              "name": "token",
              "type": "address"
            },
            {
              "internalType": "address",
              "name": "user",
              "type": "address"
            },
            {
              "internalType": "enum KapanRouter.RouterInstructionType",
              "name": "instructionType",
              "type": "uint8"
            }
          ],
          "internalType": "struct KapanRouter.RouterInstruction[]",
          "name": "instrs",
          "type": "tuple[]"
        }
      ],
      "name": "authorizeRouter",
      "outputs": [
        {
          "internalType": "address[]",
          "name": "targets",
          "type": "address[]"
        },
        {
          "internalType": "bytes[]",
          "name": "data",
          "type": "bytes[]"
        }
      ],
      "stateMutability": "view",
      "type": "function"
    },
    {
      "inputs": [],
      "name": "balancerV2Enabled",
      "outputs": [
        {
          "internalType": "bool",
          "name": "",
          "type": "bool"
        }
      ],
      "stateMutability": "view",
      "type": "function"
    },
    {
      "inputs": [],
      "name": "balancerV2Vault",
      "outputs": [
        {
          "internalType": "contract IFlashLoanProvider",
          "name": "",
          "type": "address"
        }
      ],
      "stateMutability": "view",
      "type": "function"
    },
    {
      "inputs": [],
      "name": "balancerV3Enabled",
      "outputs": [
        {
          "internalType": "bool",
          "name": "",
          "type": "bool"
        }
      ],
      "stateMutability": "view",
      "type": "function"
    },
    {
      "inputs": [],
      "name": "balancerV3Vault",
      "outputs": [
        {
          "internalType": "contract IVaultV3",
          "name": "",
          "type": "address"
        }
      ],
      "stateMutability": "view",
      "type": "function"
    },
    {
      "inputs": [
        {
          "internalType": "address",
          "name": "asset",
          "type": "address"
        },
        {
          "internalType": "uint256",
          "name": "amount",
          "type": "uint256"
        },
        {
          "internalType": "uint256",
          "name": "premium",
          "type": "uint256"
        },
        {
          "internalType": "address",
          "name": "initiator",
          "type": "address"
        },
        {
          "internalType": "bytes",
          "name": "params",
          "type": "bytes"
        }
      ],
      "name": "executeOperation",
      "outputs": [
        {
          "internalType": "bool",
          "name": "",
          "type": "bool"
        }
      ],
      "stateMutability": "nonpayable",
      "type": "function"
    },
    {
      "inputs": [
        {
          "internalType": "string",
          "name": "",
          "type": "string"
        }
      ],
      "name": "gateways",
      "outputs": [
        {
          "internalType": "contract IGateway",
          "name": "",
          "type": "address"
        }
      ],
      "stateMutability": "view",
      "type": "function"
    },
    {
      "inputs": [],
      "name": "owner",
      "outputs": [
        {
          "internalType": "address",
          "name": "",
          "type": "address"
        }
      ],
      "stateMutability": "view",
      "type": "function"
    },
    {
      "inputs": [
        {
          "components": [
            {
              "internalType": "string",
              "name": "protocolName",
              "type": "string"
            },
            {
              "internalType": "bytes",
              "name": "data",
              "type": "bytes"
            }
          ],
          "internalType": "struct ProtocolTypes.ProtocolInstruction[]",
          "name": "instructions",
          "type": "tuple[]"
        }
      ],
      "name": "processProtocolInstructions",
      "outputs": [],
      "stateMutability": "nonpayable",
      "type": "function"
    },
    {
      "inputs": [
        {
          "internalType": "contract IERC20[]",
          "name": "tokens",
          "type": "address[]"
        },
        {
          "internalType": "uint256[]",
          "name": "amounts",
          "type": "uint256[]"
        },
        {
          "internalType": "uint256[]",
          "name": "feeAmounts",
          "type": "uint256[]"
        },
        {
          "internalType": "bytes",
          "name": "userData",
          "type": "bytes"
        }
      ],
      "name": "receiveFlashLoan",
      "outputs": [],
      "stateMutability": "nonpayable",
      "type": "function"
    },
    {
      "inputs": [
        {
          "internalType": "bytes",
          "name": "userData",
          "type": "bytes"
        }
      ],
      "name": "receiveFlashLoanV3",
      "outputs": [],
      "stateMutability": "nonpayable",
      "type": "function"
    },
    {
      "inputs": [],
      "name": "renounceOwnership",
      "outputs": [],
      "stateMutability": "nonpayable",
      "type": "function"
    },
    {
      "inputs": [
        {
          "internalType": "address",
          "name": "pool",
          "type": "address"
        }
      ],
      "name": "setAaveV3",
      "outputs": [],
      "stateMutability": "nonpayable",
      "type": "function"
    },
    {
      "inputs": [
        {
          "internalType": "address",
          "name": "provider",
          "type": "address"
        }
      ],
      "name": "setBalancerV2",
      "outputs": [],
      "stateMutability": "nonpayable",
      "type": "function"
    },
    {
      "inputs": [
        {
          "internalType": "address",
          "name": "vault",
          "type": "address"
        }
      ],
      "name": "setBalancerV3",
      "outputs": [],
      "stateMutability": "nonpayable",
      "type": "function"
    },
    {
      "inputs": [
        {
          "internalType": "address",
          "name": "factoryOrSentinel",
          "type": "address"
        }
      ],
      "name": "setUniswapV3Enabled",
      "outputs": [],
      "stateMutability": "nonpayable",
      "type": "function"
    },
    {
      "inputs": [
        {
          "internalType": "address",
          "name": "newOwner",
          "type": "address"
        }
      ],
      "name": "transferOwnership",
      "outputs": [],
      "stateMutability": "nonpayable",
      "type": "function"
    },
    {
      "inputs": [],
      "name": "uniswapEnabled",
      "outputs": [
        {
          "internalType": "bool",
          "name": "",
          "type": "bool"
        }
      ],
      "stateMutability": "view",
      "type": "function"
    },
    {
      "inputs": [],
      "name": "uniswapV3FactoryOrSentinel",
      "outputs": [
        {
          "internalType": "address",
          "name": "",
          "type": "address"
        }
      ],
      "stateMutability": "view",
      "type": "function"
    },
    {
      "inputs": [
        {
          "internalType": "uint256",
          "name": "fee0",
          "type": "uint256"
        },
        {
          "internalType": "uint256",
          "name": "fee1",
          "type": "uint256"
        },
        {
          "internalType": "bytes",
          "name": "data",
          "type": "bytes"
        }
      ],
      "name": "uniswapV3FlashCallback",
      "outputs": [],
      "stateMutability": "nonpayable",
      "type": "function"
    }
  ],
  "transactionHash": "0x9292d86cc6c556d08d4b7bb3f675d10d2a5939e9e62c973192fbf77990332cf9",
  "args": [
    "0x0BE61223F99E57b8b8B7033a77B54Adc7f7cF027"
  ],
  "numDeployments": 9,
  "solcInputHash": "013013fc9743cee1b62ae93be311c731",
  "bytecode": "0x6080604052348015600e575f5ffd5b5060405161497a38038061497a833981016040819052602b9160b8565b806001600160a01b038116605857604051631e4fbdf760e01b81525f600482015260240160405180910390fd5b605f816069565b50506001805560e3565b5f80546001600160a01b038381166001600160a01b0319831681178455604051919092169283917f8be0079c531659141344cd1fd0a4f28419497f9722a3daafe3b4186f6b6457e09190a35050565b5f6020828403121560c7575f5ffd5b81516001600160a01b038116811460dc575f5ffd5b9392505050565b61488a806100f05f395ff3fe608060405234801561000f575f5ffd5b5060043610610153575f3560e01c8063bd3fd0ec116100bf578063e30b155e11610079578063e30b155e146102fd578063e851130314610310578063e9cbafb014610323578063f04f270714610336578063f0dbeea514610349578063f2fde38b1461035c575f5ffd5b8063bd3fd0ec1461026a578063bf11f4af1461027d578063bf1e4cf614610290578063c3865d57146102a3578063d7ff41bf146102b6578063db236a1f146102c9575f5ffd5b8063715018a611610110578063715018a6146101f857806386a06ff0146102005780638da5cb5b146102135780639dceeca114610223578063a6ed7be314610236578063a86a181614610257575f5ffd5b80630acefd351461015757806310c0a157146101875780631b11d0ff1461019a57806328c18416146101bd5780634c7f3eba146101d25780635eaa9da3146101e5575b5f5ffd5b60035461016a906001600160a01b031681565b6040516001600160a01b0390911681526020015b60405180910390f35b60025461016a906001600160a01b031681565b6101ad6101a836600461350d565b61036f565b604051901515815260200161017e565b6101d06101cb366004613583565b6105eb565b005b6004546001600160a01b031615156101ad565b6002546001600160a01b031615156101ad565b6101d0610614565b60045461016a906001600160a01b031681565b5f546001600160a01b031661016a565b6101d0610231366004613583565b610627565b61024961024436600461359e565b61064d565b60405161017e92919061363b565b60055461016a906001600160a01b031681565b6005546001600160a01b031615156101ad565b6101d061028b3660046136e4565b610852565b6101d061029e366004613583565b610a96565b6003546001600160a01b031615156101ad565b6102496102c4366004613762565b610abc565b61016a6102d7366004613900565b80516020818301810180516007825292820191909301209152546001600160a01b031681565b6101d061030b366004613939565b61122f565b6101d061031e366004613583565b611334565b6101d061033136600461396c565b61135a565b6101d06103443660046139ba565b6114b0565b6101d0610357366004613a84565b611721565b6101d061036a366004613583565b611741565b6005545f90600160a01b900460ff166103a35760405162461bcd60e51b815260040161039a90613ab6565b60405180910390fd5b6006546001600160a01b031633146103cd5760405162461bcd60e51b815260040161039a90613ae6565b6004546001600160a01b031633146104205760405162461bcd60e51b8152602060048201526016602482015275155b985d5d1a1bdc9a5e99590810585d99481c1bdbdb60521b604482015260640161039a565b6001600160a01b03841630146104685760405162461bcd60e51b815260206004820152600d60248201526c2130b21034b734ba34b0ba37b960991b604482015260640161039a565b5f6104738688613b31565b90506104b5888286868080601f0160208091040260200160405190810160405280939291908181526020018383808284375f9201919091525061177b92505050565b6004805460405163095ea7b360e01b81526001600160a01b03918216928101929092525f602483015289169063095ea7b3906044016020604051808303815f875af1158015610506573d5f5f3e3d5ffd5b505050506040513d601f19601f8201168201806040525081019061052a9190613b51565b506004805460405163095ea7b360e01b81526001600160a01b03918216928101929092526024820183905289169063095ea7b3906044016020604051808303815f875af115801561057d573d5f5f3e3d5ffd5b505050506040513d601f19601f820116820180604052508101906105a19190613b51565b506040805166414156455f563360c81b8152602081018390526001600160a01b038a16915f5160206148155f395f51905f52910160405180910390a2506001979650505050505050565b6105f3611805565b600280546001600160a01b0319166001600160a01b03831617905550565b50565b61061c611805565b6106255f611831565b565b61062f611805565b600480546001600160a01b0319166001600160a01b03831617905550565b6060805f805b848110156106b357600186868381811061066f5761066f613b80565b90506080020160600160208101906106879190613ba0565b600481111561069857610698613b6c565b036106ab57816106a781613bbb565b9250505b600101610653565b50806001600160401b038111156106cc576106cc6137b4565b6040519080825280602002602001820160405280156106f5578160200160208202803683370190505b509250806001600160401b03811115610710576107106137b4565b60405190808252806020026020018201604052801561074357816020015b606081526020019060019003908161072e5790505b5091505f805b85811015610848573687878381811061076457610764613b80565b608002919091019150600190506107816080830160608401613ba0565b600481111561079257610792613b6c565b0361083f576107a76040820160208301613583565b8684815181106107b9576107b9613b80565b6001600160a01b039290921660209283029190910182015260408051306024820152833560448083019190915282518083039091018152606490910190915290810180516001600160e01b031663095ea7b360e01b179052855186908590811061082557610825613b80565b6020026020010181905250828061083b90613bbb565b9350505b50600101610749565b5050509250929050565b600554600160a01b900460ff1661087b5760405162461bcd60e51b815260040161039a90613ab6565b6006546001600160a01b031633146108a55760405162461bcd60e51b815260040161039a90613ae6565b6003546001600160a01b031633146108ff5760405162461bcd60e51b815260206004820152601860248201527f556e617574686f72697a65642042616c616e6365722076330000000000000000604482015260640161039a565b5f8061090d83850185613bd3565b90925090506001600160a01b0382161580159061092957505f81115b15610a905760035460405163ae63932960e01b81526001600160a01b038481166004830152306024830152604482018490529091169063ae639329906064015f604051808303815f87803b15801561097f575f5ffd5b505af1158015610991573d5f5f3e3d5ffd5b505050506109d5828286868080601f0160208091040260200160405190810160405280939291908181526020018383808284375f9201919091525061177b92505050565b6003546109ef906001600160a01b03848116911683611880565b6003546040516315afd40960e01b81526001600160a01b03848116600483015260248201849052909116906315afd409906044015f604051808303815f87803b158015610a3a575f5ffd5b505af1158015610a4c573d5f5f3e3d5ffd5b5050604080516a42414c414e4345525f563360a81b8152602081018590526001600160a01b03861693505f5160206148155f395f51905f5292500160405180910390a25b50505050565b610a9e611805565b600580546001600160a01b0319166001600160a01b03831617905550565b6060805f846001600160401b03811115610ad857610ad86137b4565b604051908082528060200260200182016040528015610b01578160200160208202803683370190505b5090505f856001600160401b03811115610b1d57610b1d6137b4565b604051908082528060200260200182016040528015610b5057816020015b6060815260200190600190039081610b3b5790505b5090505f805b878110156110fb5736898983818110610b7157610b71613b80565b9050602002810190610b839190613bfd565b9050604051602001610b9490613c1b565b60408051601f198184030181529190528051602090910120610bb68280613c3b565b604051602001610bc7929190613c7d565b6040516020818303038152906040528051906020012003610e28575f610bf06020830183613c3b565b810190610bfd9190613cab565b9050600181606001516004811115610c1757610c17613b6c565b148015610c395750886001600160a01b031681604001516001600160a01b0316145b15610db4576020810151604051636eb1769f60e11b81526001600160a01b038b811660048301523060248301525f92169063dd62ed3e90604401602060405180830381865afa158015610c8e573d5f5f3e3d5ffd5b505050506040513d601f19601f82011682018060405250810190610cb29190613d09565b8251909150811015610d4e578160200151878681518110610cd557610cd5613b80565b6001600160a01b039290921660209283029190910182015282516040805130602482015260448082019390935281518082039093018352606401905290810180516001600160e01b031663095ea7b360e01b1790528651879087908110610d3e57610d3e613b80565b6020026020010181905250610dae565b5f878681518110610d6157610d61613b80565b60200260200101906001600160a01b031690816001600160a01b03168152505060405180602001604052805f815250868681518110610da257610da2613b80565b60200260200101819052505b50610e14565b5f868581518110610dc757610dc7613b80565b60200260200101906001600160a01b031690816001600160a01b03168152505060405180602001604052805f815250858581518110610e0857610e08613b80565b60200260200101819052505b83610e1e81613bbb565b94505050506110f3565b5f6007610e358380613c3b565b604051610e43929190613d20565b908152604051908190036020019020546001600160a01b0316905080610e76575f868581518110610dc757610dc7613b80565b5f610e846020840184613c3b565b810190610e919190613d51565b6040805160018082528183019092529192505f9190816020015b610eea6040805160c0810182525f808252602080830182905282840182905260608084018390526080840152835190810190935282529060a082015290565b815260200190600190039081610eab57905050905081815f81518110610f1257610f12613b80565b60200260200101819052505f5f846001600160a01b03166317c2a46b848f6040518363ffffffff1660e01b8152600401610f4d929190613e0f565b5f60405180830381865afa158015610f67573d5f5f3e3d5ffd5b505050506040513d5f823e601f3d908101601f19168201604052610f8e9190810190613ff9565b915091505f8251118015610fcd57505f6001600160a01b0316825f81518110610fb957610fb9613b80565b60200260200101516001600160a01b031614155b8015610ff257505f815f81518110610fe757610fe7613b80565b602002602001015151115b1561107f57815f8151811061100957611009613b80565b60200260200101518a898151811061102357611023613b80565b60200260200101906001600160a01b031690816001600160a01b031681525050805f8151811061105557611055613b80565b602002602001015189898151811061106f5761106f613b80565b60200260200101819052506110df565b5f8a898151811061109257611092613b80565b60200260200101906001600160a01b031690816001600160a01b03168152505060405180602001604052805f8152508989815181106110d3576110d3613b80565b60200260200101819052505b876110e981613bbb565b9850505050505050505b600101610b56565b50806001600160401b03811115611114576111146137b4565b60405190808252806020026020018201604052801561113d578160200160208202803683370190505b509450806001600160401b03811115611158576111586137b4565b60405190808252806020026020018201604052801561118b57816020015b60608152602001906001900390816111765790505b5093505f5b81811015611223578381815181106111aa576111aa613b80565b60200260200101518682815181106111c4576111c4613b80565b60200260200101906001600160a01b031690816001600160a01b0316815250508281815181106111f6576111f6613b80565b602002602001015185828151811061121057611210613b80565b6020908102919091010152600101611190565b50505050935093915050565b611237611805565b806001600160a01b031660078484604051611253929190613d20565b908152604051908190036020019020546001600160a01b03161461132f575f6001600160a01b03166007848460405161128d929190613d20565b908152604051908190036020019020546001600160a01b0316146112ec5760405162461bcd60e51b81526020600482015260166024820152754761746577617920616c72656164792065786973747360501b604482015260640161039a565b80600784846040516112ff929190613d20565b90815260405190819003602001902080546001600160a01b03929092166001600160a01b03199092169190911790555b505050565b61133c611805565b600380546001600160a01b0319166001600160a01b03831617905550565b600554600160a01b900460ff166113835760405162461bcd60e51b815260040161039a90613ab6565b6006546001600160a01b031633146113ad5760405162461bcd60e51b815260040161039a90613ae6565b5f808080806113be868801886140be565b94509450945094509450846001600160a01b0316336001600160a01b0316146114295760405162461bcd60e51b815260206004820152601960248201527f556e617574686f72697a656420556e697377617020706f6f6c00000000000000604482015260640161039a565b5f816114355788611437565b895b90505f6114448286613b31565b905061145186828661177b565b6114656001600160a01b0387163383611880565b6040805169554e49535741505f563360b01b8152602081018390526001600160a01b038816915f5160206148155f395f51905f52910160405180910390a25050505050505050505050565b600554600160a01b900460ff166114d95760405162461bcd60e51b815260040161039a90613ab6565b6006546001600160a01b031633146115035760405162461bcd60e51b815260040161039a90613ae6565b6002546001600160a01b0316331461155d5760405162461bcd60e51b815260206004820152601860248201527f556e617574686f72697a65642042616c616e6365722076320000000000000000604482015260640161039a565b600187146115bd5760405162461bcd60e51b815260206004820152602760248201527f4f6e6c792073696e676c652d617373657420666c617368206c6f616e732073756044820152661c1c1bdc9d195960ca1b606482015260840161039a565b5f84845f8181106115d0576115d0613b80565b9050602002013587875f8181106115e9576115e9613b80565b905060200201356115fa9190613b31565b905061166289895f81811061161157611611613b80565b90506020020160208101906116269190613583565b8285858080601f0160208091040260200160405190810160405280939291908181526020018383808284375f9201919091525061177b92505050565b6002546116a8906001600160a01b0316828b8b5f8161168357611683613b80565b90506020020160208101906116989190613583565b6001600160a01b03169190611880565b88885f8181106116ba576116ba613b80565b90506020020160208101906116cf9190613583565b6001600160a01b03165f5160206148155f395f51905f528260405161170e91906a2120a620a721a2a92fab1960a91b8152602081019190915260400190565b60405180910390a2505050505050505050565b61172b82826118df565b6117358282611a38565b61173d611b54565b5050565b611749611805565b6001600160a01b03811661177257604051631e4fbdf760e01b81525f600482015260240161039a565b61061181611831565b6040805160018082528183019092525f91816020015b604080518082019091525f80825260208201528152602001906001900390816117915790505090506040518060400160405280856001600160a01b0316815260200184815250815f815181106117e9576117e9613b80565b60200260200101819052506117fd81611d2f565b610a90611b54565b5f546001600160a01b031633146106255760405163118cdaa760e01b815233600482015260240161039a565b5f80546001600160a01b038381166001600160a01b0319831681178455604051919092169283917f8be0079c531659141344cd1fd0a4f28419497f9722a3daafe3b4186f6b6457e09190a35050565b6040516001600160a01b0383811660248301526044820183905261132f91859182169063a9059cbb906064015b604051602081830303815290604052915060e01b6020820180516001600160e01b038381831617835250505050611e7e565b5f5b8181101561132f57368383838181106118fc576118fc613b80565b905060200281019061190e9190613bfd565b905060405160200161191f90613c1b565b60408051601f1981840301815291905280516020909101206119418280613c3b565b604051602001611952929190613c7d565b6040516020818303038152906040528051906020012014611a2f575f61197b6020830183613c3b565b8101906119889190613d51565b905060038151600681111561199f5761199f613b6c565b14806119bd57506002815160068111156119bb576119bb613b6c565b145b15611a2d5760408101516001600160a01b03163314611a2d5760405162461bcd60e51b815260206004820152602660248201527f4e6f7420617574686f72697a65643a2073656e646572206d757374206d61746360448201526534103ab9b2b960d11b606482015260840161039a565b505b506001016118e1565b5f816001600160401b03811115611a5157611a516137b4565b604051908082528060200260200182016040528015611a9657816020015b6040805180820190915260608082526020820152815260200190600190039081611a6f5790505b5090505f5b82811015611b0a57838382611ab1600183614139565b611abb9190614139565b818110611aca57611aca613b80565b9050602002810190611adc9190613bfd565b611ae59061414c565b828281518110611af757611af7613b80565b6020908102919091010152600101611a9b565b5061132f7f33a7f7e91c7e5e97e4035e86e424aaeb97691c852dc81d823520f664cc2ca71c82604051602001611b4091906141b8565b604051602081830303815290604052611edf565b5f5f611b5e611f41565b81515191935091505f03611b70575050565b5f5b5f611b7b612038565b9050604051602001611b8c90613c1b565b60408051601f1981840301815290829052805160209182012086519092611bb39201614242565b6040516020818303038152906040528051906020012003611bed575f611bd8856120ca565b90508015611be7575050505050565b50611cf5565b5f6007855f0151604051611c01919061426b565b908152604051908190036020019020546001600160a01b0316905080611c5d5760405162461bcd60e51b815260206004820152601160248201527011d85d195dd85e481b9bdd08199bdd5b99607a1b604482015260640161039a565b5f611c66612038565b602087015160405163ae4be46d60e01b81529192505f916001600160a01b0385169163ae4be46d91611c9c9186916004016142c5565b5f604051808303815f875af1158015611cb7573d5f5f3e3d5ffd5b505050506040513d5f823e601f3d908101601f19168201604052611cde91908101906142f2565b805190915015611cf157611cf181611d2f565b5050505b5f611cfe612038565b90508315611d0d575050505050565b82611d1781613bbb565b935050611d22611f41565b9095509350611b72915050565b5f611d38612038565b90505f82518251611d499190613b31565b6001600160401b03811115611d6057611d606137b4565b604051908082528060200260200182016040528015611da457816020015b604080518082019091525f8082526020820152815260200190600190039081611d7e5790505b5090505f5b8251811015611df157828181518110611dc457611dc4613b80565b6020026020010151828281518110611dde57611dde613b80565b6020908102919091010152600101611da9565b505f5b8351811015611e4857838181518110611e0f57611e0f613b80565b602002602001015182828551611e259190613b31565b81518110611e3557611e35613b80565b6020908102919091010152600101611df4565b5061132f7f5f92431fdc2b6bf66f91a326fa06b3fad6b4ab24047c9be12b7f412fbfbaa1ec82604051602001611b4091906143b0565b5f611e926001600160a01b03841683612586565b905080515f14158015611eb6575080806020019051810190611eb49190613b51565b155b1561132f57604051635274afe760e01b81526001600160a01b038416600482015260240161039a565b805180835d601f811690602083810191045f5b81811015611f1057602081028301518160010187015d600101611ef2565b508215611f3a57602081028201516001846020036101000a0319808216915050808260010187015d505b5050505050565b60408051808201909152606080825260208201525f5f611f807f33a7f7e91c7e5e97e4035e86e424aaeb97691c852dc81d823520f664cc2ca71c61259c565b905080515f03611f935750909160019150565b5f81806020019051810190611fa891906143c2565b80519091505f819003611fc15750929360019350915050565b81611fcd600183614139565b81518110611fdd57611fdd613b80565b602002602001015194506001810382526120227f33a7f7e91c7e5e97e4035e86e424aaeb97691c852dc81d823520f664cc2ca71c83604051602001611b4091906141b8565b61202d600182614139565b5f1493505050509091565b60605f6120647f5f92431fdc2b6bf66f91a326fa06b3fad6b4ab24047c9be12b7f412fbfbaa1ec61259c565b905080515f036120b057604080515f80825260208201909252906120a9565b604080518082019091525f80825260208201528152602001906001900390816120835790505b5091505090565b808060200190518101906120c491906142f2565b91505090565b5f5f82602001518060200190518101906120e4919061453b565b90505f816060015160048111156120fd576120fd613b6c565b0361213b575f5f5f856020015180602001905181019061211d9190614577565b9350935093505061212f8383836125fa565b50600195945050505050565b60018160600151600481111561215357612153613b6c565b036121665761216181612899565b61257e565b60028160600151600481111561217e5761217e613b6c565b0361218c5761216183612991565b6003816060015160048111156121a4576121a4613b6c565b03612238576040805160018082528183019092525f91816020015b604080518082019091525f80825260208201528152602001906001900390816121bf579050509050604051806040016040528083602001516001600160a01b03168152602001835f0151815250815f8151811061221e5761221e613b80565b602002602001018190525061223281611d2f565b5061257e565b60048160600151600481111561225057612250613b6c565b0361257e575f5f846020015180602001905181019061226f91906145d1565b92509250505f61227d612038565b90508051825f0151106122c75760405162461bcd60e51b8152602060048201526012602482015271082e0e0e4deecca7440c4c2c840d2dcc8caf60731b604482015260640161039a565b5f6040516020016122d790613c1b565b60405160208183030381529060405280519060200120846040516020016122fe9190614242565b604051602081830303815290604052805190602001200361232057503061234c565b600784604051612330919061426b565b908152604051908190036020019020546001600160a01b031690505b6001600160a01b0381166123a25760405162461bcd60e51b815260206004820152601960248201527f417070726f76653a20746172676574206e6f7420666f756e6400000000000000604482015260640161039a565b81835f0151815181106123b7576123b7613b80565b60209081029190910101515160405163095ea7b360e01b81526001600160a01b0383811660048301525f60248301529091169063095ea7b3906044016020604051808303815f875af115801561240f573d5f5f3e3d5ffd5b505050506040513d601f19601f820116820180604052508101906124339190613b51565b5081835f01518151811061244957612449613b80565b60200260200101515f01516001600160a01b031663095ea7b38284865f01518151811061247857612478613b80565b6020026020010151602001516040518363ffffffff1660e01b81526004016124b59291906001600160a01b03929092168252602082015260400190565b6020604051808303815f875af11580156124d1573d5f5f3e3d5ffd5b505050506040513d601f19601f820116820180604052508101906124f59190613b51565b506040805160018082528183019092525f91816020015b604080518082019091525f808252602082015281526020019060019003908161250c57905050905060405180604001604052805f6001600160a01b031681526020015f815250815f8151811061256457612564613b80565b602002602001018190525061257881611d2f565b50505050505b505f92915050565b606061259383835f612b4c565b90505b92915050565b604051815c8082526020808301908204601f83165f5b828110156125cf57600181880181015c60208302860152016125b2565b5080156125e5578160010186015c602083028401525b5050601f91909101601f191601604052919050565b5f612603612038565b90508051835f01511061264f5760405162461bcd60e51b815260206004820152601460248201527308cd8c2e6d098dec2dc7440c4c2c840d2dcc8caf60631b604482015260640161039a565b5f81845f01518151811061266557612665613b80565b602090810291909101015180519091506001600160a01b03166126c25760405162461bcd60e51b8152602060048201526015602482015274233630b9b42637b0b71d103d32b937903a37b5b2b760591b604482015260640161039a565b5f81602001511161270e5760405162461bcd60e51b8152602060048201526016602482015275119b185cda131bd85b8e881e995c9bc8185b5bdd5b9d60521b604482015260640161039a565b5f85600381111561272157612721613b6c565b0361274b57612746815f0151826020015160405180602001604052805f815250612be7565b611f3a565b600185600381111561275f5761275f613b6c565b0361277557612746815f01518260200151612dbe565b600285600381111561278957612789613b6c565b036127ae57612746815f0151826020015160405180602001604052805f815250612f81565b60038560038111156127c2576127c2613b6c565b03612851576001600160a01b0383166128305760405162461bcd60e51b815260206004820152602a60248201527f466c6173684c6f616e3a20556e6973776170563320726571756972657320706f6044820152696f6c206164647265737360b01b606482015260840161039a565b61274683825f0151836020015160405180602001604052805f8152506130b7565b60405162461bcd60e51b815260206004820152601f60248201527f466c6173684c6f616e3a20756e737570706f727465642070726f766964657200604482015260640161039a565b604081015181906001600160a01b031633146128e85760405162461bcd60e51b815260206004820152600e60248201526d139bdd08185d5d1a1bdc9a5e995960921b604482015260640161039a565b81516020830151612908916001600160a01b0390911690339030906133e7565b6040805160018082528183019092525f91816020015b604080518082019091525f808252602082015281526020019060019003908161291e579050509050604051806040016040528084602001516001600160a01b03168152602001845f0151815250815f8151811061297d5761297d613b80565b602002602001018190525061132f81611d2f565b5f81602001518060200190518101906129aa919061462c565b9150505f6129b6612038565b90508051825f015110612a025760405162461bcd60e51b81526020600482015260146024820152730a0eae6d0a8ded6cadc7440c4c2c840d2dcc8caf60631b604482015260640161039a565b5f81835f015181518110612a1857612a18613b80565b602090810291909101015180519091506001600160a01b0316612a755760405162461bcd60e51b8152602060048201526015602482015274283ab9b42a37b5b2b71d103d32b937903a37b5b2b760591b604482015260640161039a565b602081015115612ae457612aa6604080516080810182525f8082526020820181905291810182905290606082015290565b8460200151806020019051810190612abe919061462c565b50604081015160208401518451929350612ae2926001600160a01b03169190611880565b505b604080518082019091525f8082526020820152835183518491908110612b0c57612b0c613b80565b6020026020010181905250610a907f5f92431fdc2b6bf66f91a326fa06b3fad6b4ab24047c9be12b7f412fbfbaa1ec83604051602001611b4091906143b0565b606081471015612b715760405163cd78605960e01b815230600482015260240161039a565b5f5f856001600160a01b03168486604051612b8c919061426b565b5f6040518083038185875af1925050503d805f8114612bc6576040519150601f19603f3d011682016040523d82523d5f602084013e612bcb565b606091505b5091509150612bdb868383613420565b925050505b9392505050565b6002546005805460ff60a01b1916600160a01b179055600680546001600160a01b0319166001600160a01b03909216918217905580612c5f5760405162461bcd60e51b815260206004820152601460248201527310985b185b98d95c881d8c88191a5cd8589b195960621b604482015260640161039a565b6040805160018082528183019092525f916020808301908036833701905050905084815f81518110612c9357612c93613b80565b6001600160a01b0392909216602092830291909101909101526040805160018082528183019092525f9181602001602082028036833701905050905084815f81518110612ce257612ce2613b80565b602002602001018181525050856001600160a01b03165f5160206148355f395f51905f5286604051612d2e91906a2120a620a721a2a92fab1960a91b8152602081019190915260400190565b60405180910390a2600254604051632e1c224f60e11b81526001600160a01b0390911690635c38449e90612d6c903090869086908a9060040161465f565b5f604051808303815f87803b158015612d83575f5ffd5b505af1158015612d95573d5f5f3e3d5ffd5b5050600680546001600160a01b031916905550506005805460ff60a01b19169055505050505050565b6003546005805460ff60a01b1916600160a01b179055600680546001600160a01b0319166001600160a01b03909216918217905580612e365760405162461bcd60e51b815260206004820152601460248201527310985b185b98d95c881d8cc8191a5cd8589b195960621b604482015260640161039a565b604080516001600160a01b0385166020820152808201849052815180820383018152606082019092525f9063bf11f4af60e01b90612e78908490608401614242565b60408051601f19818403018152918152602080830180516001600160e01b03166001600160e01b03199095169490941790935280516a42414c414e4345525f563360a81b81529283018790529092506001600160a01b038716915f5160206148355f395f51905f52910160405180910390a26003546040516348c8949160e01b81526001600160a01b03909116906348c8949190612f1a908490600401614242565b5f604051808303815f875af1158015612f35573d5f5f3e3d5ffd5b505050506040513d5f823e601f3d908101601f19168201604052612f5c919081019061470e565b5050600680546001600160a01b031916905550506005805460ff60a01b191690555050565b6004546005805460ff60a01b1916600160a01b179055600680546001600160a01b0319166001600160a01b03909216918217905580612ff55760405162461bcd60e51b815260206004820152601060248201526f10585d99481d8cc8191a5cd8589b195960821b604482015260640161039a565b6040805166414156455f563360c81b8152602081018590526001600160a01b038616915f5160206148355f395f51905f52910160405180910390a2600480546040516310ac2ddf60e21b81526001600160a01b03909116916342b0b77c916130679130918991899189915f910161473f565b5f604051808303815f87803b15801561307e575f5ffd5b505af1158015613090573d5f5f3e3d5ffd5b5050600680546001600160a01b031916905550506005805460ff60a01b1916905550505050565b6005805460ff60a01b1916600160a01b179055600680546001600160a01b0386166001600160a01b0319909116179055836130fc6005546001600160a01b0316151590565b61313e5760405162461bcd60e51b8152602060048201526013602482015272155b9a5cddd85c081d8cc8191a5cd8589b1959606a1b604482015260640161039a565b6001600160a01b0385166131845760405162461bcd60e51b815260206004820152600d60248201526c141bdbdb081c995c5d5a5c9959609a1b604482015260640161039a565b5f83116131be5760405162461bcd60e51b81526020600482015260086024820152670416d6f756e743d360c41b604482015260640161039a565b5f856001600160a01b0316630dfe16816040518163ffffffff1660e01b8152600401602060405180830381865afa1580156131fb573d5f5f3e3d5ffd5b505050506040513d601f19601f8201168201806040525081019061321f9190614787565b90505f866001600160a01b031663d21220a76040518163ffffffff1660e01b8152600401602060405180830381865afa15801561325e573d5f5f3e3d5ffd5b505050506040513d601f19601f820116820180604052508101906132829190614787565b90506001600160a01b0386811681841681149183161481806132a15750805b6132e15760405162461bcd60e51b8152602060048201526011602482015270151bdad95b881b9bdd081a5b881c1bdbdb607a1b604482015260640161039a565b5f89898989866040516020016132fb9594939291906147a2565b60408051601f1981840301815282825269554e49535741505f563360b01b8352602083018b905292506001600160a01b038b16915f5160206148355f395f51905f52910160405180910390a2896001600160a01b031663490e6cbc3085613362575f613364565b8a5b8561336f575f613371565b8b5b856040518563ffffffff1660e01b815260040161339194939291906147e8565b5f604051808303815f87803b1580156133a8575f5ffd5b505af11580156133ba573d5f5f3e3d5ffd5b5050600680546001600160a01b031916905550506005805460ff60a01b1916905550505050505050505050565b6040516001600160a01b038481166024830152838116604483015260648201839052610a909186918216906323b872dd906084016118ad565b606082613435576134308261347c565b612be0565b815115801561344c57506001600160a01b0384163b155b1561347557604051639996b31560e01b81526001600160a01b038516600482015260240161039a565b5080612be0565b80511561348c5780518082602001fd5b604051630a12f52160e11b815260040160405180910390fd5b6001600160a01b0381168114610611575f5ffd5b80356134c4816134a5565b919050565b5f5f83601f8401126134d9575f5ffd5b5081356001600160401b038111156134ef575f5ffd5b602083019150836020828501011115613506575f5ffd5b9250929050565b5f5f5f5f5f5f60a08789031215613522575f5ffd5b863561352d816134a5565b95506020870135945060408701359350606087013561354b816134a5565b925060808701356001600160401b03811115613565575f5ffd5b61357189828a016134c9565b979a9699509497509295939492505050565b5f60208284031215613593575f5ffd5b8135612be0816134a5565b5f5f602083850312156135af575f5ffd5b82356001600160401b038111156135c4575f5ffd5b8301601f810185136135d4575f5ffd5b80356001600160401b038111156135e9575f5ffd5b8560208260071b84010111156135fd575f5ffd5b6020919091019590945092505050565b5f81518084528060208401602086015e5f602082860101526020601f19601f83011685010191505092915050565b604080825283519082018190525f9060208501906060840190835b8181101561367d5783516001600160a01b0316835260209384019390920191600101613656565b50508381036020850152809150845180825260208201925060208160051b830101602087015f5b838110156136d657601f198584030186526136c083835161360d565b60209687019690935091909101906001016136a4565b509098975050505050505050565b5f5f602083850312156136f5575f5ffd5b82356001600160401b0381111561370a575f5ffd5b613716858286016134c9565b90969095509350505050565b5f5f83601f840112613732575f5ffd5b5081356001600160401b03811115613748575f5ffd5b6020830191508360208260051b8501011115613506575f5ffd5b5f5f5f60408486031215613774575f5ffd5b83356001600160401b03811115613789575f5ffd5b61379586828701613722565b90945092505060208401356137a9816134a5565b809150509250925092565b634e487b7160e01b5f52604160045260245ffd5b604051608081016001600160401b03811182821017156137ea576137ea6137b4565b60405290565b604051602081016001600160401b03811182821017156137ea576137ea6137b4565b60405160c081016001600160401b03811182821017156137ea576137ea6137b4565b604080519081016001600160401b03811182821017156137ea576137ea6137b4565b604051601f8201601f191681016001600160401b038111828210171561387e5761387e6137b4565b604052919050565b5f6001600160401b0382111561389e5761389e6137b4565b50601f01601f191660200190565b5f82601f8301126138bb575f5ffd5b8135602083015f6138d36138ce84613886565b613856565b90508281528583830111156138e6575f5ffd5b828260208301375f92810160200192909252509392505050565b5f60208284031215613910575f5ffd5b81356001600160401b03811115613925575f5ffd5b613931848285016138ac565b949350505050565b5f5f5f6040848603121561394b575f5ffd5b83356001600160401b03811115613960575f5ffd5b613795868287016134c9565b5f5f5f5f6060858703121561397f575f5ffd5b843593506020850135925060408501356001600160401b038111156139a2575f5ffd5b6139ae878288016134c9565b95989497509550505050565b5f5f5f5f5f5f5f5f6080898b0312156139d1575f5ffd5b88356001600160401b038111156139e6575f5ffd5b6139f28b828c01613722565b90995097505060208901356001600160401b03811115613a10575f5ffd5b613a1c8b828c01613722565b90975095505060408901356001600160401b03811115613a3a575f5ffd5b613a468b828c01613722565b90955093505060608901356001600160401b03811115613a64575f5ffd5b613a708b828c016134c9565b999c989b5096995094979396929594505050565b5f5f60208385031215613a95575f5ffd5b82356001600160401b03811115613aaa575f5ffd5b61371685828601613722565b602080825260169082015275119b185cda081b1bd85b881b9bdd08195b98589b195960521b604082015260600190565b60208082526019908201527f556e617574686f72697a656420666c6173682063616c6c657200000000000000604082015260600190565b634e487b7160e01b5f52601160045260245ffd5b8082018082111561259657612596613b1d565b8015158114610611575f5ffd5b5f60208284031215613b61575f5ffd5b8151612be081613b44565b634e487b7160e01b5f52602160045260245ffd5b634e487b7160e01b5f52603260045260245ffd5b60058110610611575f5ffd5b5f60208284031215613bb0575f5ffd5b8135612be081613b94565b5f60018201613bcc57613bcc613b1d565b5060010190565b5f5f60408385031215613be4575f5ffd5b8235613bef816134a5565b946020939093013593505050565b5f8235603e19833603018112613c11575f5ffd5b9190910192915050565b6020808252600690820152653937baba32b960d11b604082015260600190565b5f5f8335601e19843603018112613c50575f5ffd5b8301803591506001600160401b03821115613c69575f5ffd5b602001915036819003821315613506575f5ffd5b60208152816020820152818360408301375f818301604090810191909152601f909201601f19160101919050565b5f6080828403128015613cbc575f5ffd5b50613cc56137c8565b823581526020830135613cd7816134a5565b60208201526040830135613cea816134a5565b60408201526060830135613cfd81613b94565b60608201529392505050565b5f60208284031215613d19575f5ffd5b5051919050565b818382375f9101908152919050565b5f60208284031215613d3f575f5ffd5b613d476137f0565b9135825250919050565b5f60208284031215613d61575f5ffd5b81356001600160401b03811115613d76575f5ffd5b820160c08185031215613d87575f5ffd5b613d8f613812565b813560078110613d9d575f5ffd5b8152613dab602083016134b9565b6020820152613dbc604083016134b9565b60408201526060828101359082015260808201356001600160401b03811115613de3575f5ffd5b613def868285016138ac565b608083015250613e028560a08401613d2f565b60a0820152949350505050565b5f604082016040835280855180835260608501915060608160051b8601019250602087015f5b82811015613ee657868503605f190184528151805160078110613e6657634e487b7160e01b5f52602160045260245ffd5b86526020818101516001600160a01b03169087015260408082015190613e96908801826001600160a01b03169052565b5060608101516060870152608081015160c06080880152613eba60c088018261360d565b905060a08201519150613ed060a0880183519052565b9550506020938401939190910190600101613e35565b5050506001600160a01b0385166020850152509050612be0565b5f6001600160401b03821115613f1857613f186137b4565b5060051b60200190565b5f82601f830112613f31575f5ffd5b8151602083015f613f446138ce84613886565b9050828152858383011115613f57575f5ffd5b8282602083015e5f92810160200192909252509392505050565b5f82601f830112613f80575f5ffd5b8151613f8e6138ce82613f00565b8082825260208201915060208360051b860101925085831115613faf575f5ffd5b602085015b83811015613fef5780516001600160401b03811115613fd1575f5ffd5b613fe0886020838a0101613f22565b84525060209283019201613fb4565b5095945050505050565b5f5f6040838503121561400a575f5ffd5b82516001600160401b0381111561401f575f5ffd5b8301601f8101851361402f575f5ffd5b805161403d6138ce82613f00565b8082825260208201915060208360051b85010192508783111561405e575f5ffd5b6020840193505b82841015614089578351614078816134a5565b825260209384019390910190614065565b8095505050505060208301516001600160401b038111156140a8575f5ffd5b6140b485828601613f71565b9150509250929050565b5f5f5f5f5f60a086880312156140d2575f5ffd5b85356140dd816134a5565b945060208601356140ed816134a5565b93506040860135925060608601356001600160401b0381111561410e575f5ffd5b61411a888289016138ac565b925050608086013561412b81613b44565b809150509295509295909350565b8181038181111561259657612596613b1d565b5f6040823603121561415c575f5ffd5b614164613834565b82356001600160401b03811115614179575f5ffd5b614185368286016138ac565b82525060208301356001600160401b038111156141a0575f5ffd5b6141ac368286016138ac565b60208301525092915050565b5f602082016020835280845180835260408501915060408160051b8601019250602086015f5b8281101561423657603f198786030184528151805160408752614204604088018261360d565b905060208201519150868103602088015261421f818361360d565b9650505060209384019391909101906001016141de565b50929695505050505050565b602081525f612593602083018461360d565b5f81518060208401855e5f93019283525090919050565b5f6125938284614254565b5f8151808452602084019350602083015f5b828110156142bb57815180516001600160a01b031687526020908101518188015260409096019590910190600101614288565b5093949350505050565b604081525f6142d76040830185614276565b82810360208401526142e9818561360d565b95945050505050565b5f60208284031215614302575f5ffd5b81516001600160401b03811115614317575f5ffd5b8201601f81018413614327575f5ffd5b80516143356138ce82613f00565b8082825260208201915060208360061b850101925086831115614356575f5ffd5b6020840193505b828410156143a65760408488031215614374575f5ffd5b61437c613834565b8451614387816134a5565b815260208581015181830152908352604090940193919091019061435d565b9695505050505050565b602081525f6125936020830184614276565b5f602082840312156143d2575f5ffd5b81516001600160401b038111156143e7575f5ffd5b8201601f810184136143f7575f5ffd5b80516144056138ce82613f00565b8082825260208201915060208360051b850101925086831115614426575f5ffd5b602084015b838110156144d25780516001600160401b03811115614448575f5ffd5b85016040818a03601f1901121561445d575f5ffd5b614465613834565b60208201516001600160401b0381111561447d575f5ffd5b61448c8b602083860101613f22565b82525060408201516001600160401b038111156144a7575f5ffd5b6144b68b602083860101613f22565b602083015250808552505060208301925060208101905061442b565b509695505050505050565b5f608082840312156144ed575f5ffd5b6144f56137c8565b82518152602083015190915061450a816134a5565b6020820152604082015161451d816134a5565b6040820152606082015161453081613b94565b606082015292915050565b5f6080828403121561454b575f5ffd5b61259383836144dd565b5f60208284031215614565575f5ffd5b61456d6137f0565b9151825250919050565b5f5f5f5f60e0858703121561458a575f5ffd5b61459486866144dd565b93506080850151600481106145a7575f5ffd5b92506145b68660a08701614555565b915060c08501516145c6816134a5565b939692955090935050565b5f5f5f60c084860312156145e3575f5ffd5b6145ed85856144dd565b925060808401516001600160401b03811115614607575f5ffd5b61461386828701613f22565b9250506146238560a08601614555565b90509250925092565b5f5f60a0838503121561463d575f5ffd5b61464784846144dd565b91506146568460808501614555565b90509250929050565b6001600160a01b03851681526080602080830182905285519183018290525f919086019060a0840190835b818110156146b15783516001600160a01b031683526020938401939092019160010161468a565b50508381036040850152855180825260209182019250908601905f90815b818110156146ed5783518552602094850194909301926001016146cf565b505050508281036060840152614703818561360d565b979650505050505050565b5f6020828403121561471e575f5ffd5b81516001600160401b03811115614733575f5ffd5b61393184828501613f22565b6001600160a01b038681168252851660208201526040810184905260a0606082018190525f906147719083018561360d565b905061ffff831660808301529695505050505050565b5f60208284031215614797575f5ffd5b8151612be0816134a5565b6001600160a01b038681168252851660208201526040810184905260a0606082018190525f906147d49083018561360d565b905082151560808301529695505050505050565b60018060a01b0385168152836020820152826040820152608060608201525f6143a6608083018461360d56feb21eee5e191a9cc1ec41621c9a0fea677a897b20b22a856449974d61f8061ac41fd78546830bb8c24aefbbf22320d9d28d30decfca91ec0a9caf26e93c576d12a264697066735822122001e091e8aaacf5b7724465bc5d222c206b64d7fee642729bbac16e38c90339a664736f6c634300081e0033",
  "devdoc": {
    "errors": {
      "AddressEmptyCode(address)": [
        {
          "details": "There's no code at `target` (it is not a contract)."
        }
      ],
      "AddressInsufficientBalance(address)": [
        {
          "details": "The ETH balance of the account is not enough to perform the operation."
        }
      ],
      "FailedInnerCall()": [
        {
          "details": "A call to an address target failed. The target may have reverted."
        }
      ],
      "OwnableInvalidOwner(address)": [
        {
          "details": "The owner is not a valid owner account. (eg. `address(0)`)"
        }
      ],
      "OwnableUnauthorizedAccount(address)": [
        {
          "details": "The caller account is not authorized to perform an operation."
        }
      ],
      "ReentrancyGuardReentrantCall()": [
        {
          "details": "Unauthorized reentrant call."
        }
      ],
      "SafeERC20FailedOperation(address)": [
        {
          "details": "An operation with an ERC20 token failed."
        }
      ]
    },
    "kind": "dev",
    "methods": {
      "owner()": {
        "details": "Returns the address of the current owner."
      },
      "renounceOwnership()": {
        "details": "Leaves the contract without owner. It will not be possible to call `onlyOwner` functions. Can only be called by the current owner. NOTE: Renouncing ownership will leave the contract without an owner, thereby disabling any functionality that is only available to the owner."
      },
      "transferOwnership(address)": {
        "details": "Transfers ownership of the contract to a new account (`newOwner`). Can only be called by the current owner."
      }
    },
    "version": 1
  },
  "userdoc": {
    "kind": "user",
    "methods": {
      "executeOperation(address,uint256,uint256,address,bytes)": {
        "notice": "Aave v3 callback. Approve Pool for principal+premium; return true to finalize."
      },
      "receiveFlashLoan(address[],uint256[],uint256[],bytes)": {
        "notice": "Balancer v2 callback."
      },
      "receiveFlashLoanV3(bytes)": {
        "notice": "Balancer v3 callback, runs in unlocked context."
      },
      "uniswapV3FlashCallback(uint256,uint256,bytes)": {
        "notice": "Uniswap v3 flash callback. Must repay (amount + fee) to the *pool* (msg.sender)."
      }
    },
    "version": 1
  },
  "storageLayout": {
    "storage": [
      {
        "astId": 8,
        "contract": "contracts/v2/KapanRouter.sol:KapanRouter",
        "label": "_owner",
        "offset": 0,
        "slot": "0",
        "type": "t_address"
      },
      {
        "astId": 845,
        "contract": "contracts/v2/KapanRouter.sol:KapanRouter",
        "label": "_status",
        "offset": 0,
        "slot": "1",
        "type": "t_uint256"
      },
      {
        "astId": 2782,
        "contract": "contracts/v2/KapanRouter.sol:KapanRouter",
        "label": "balancerV2Vault",
        "offset": 0,
        "slot": "2",
        "type": "t_contract(IFlashLoanProvider)3689"
      },
      {
        "astId": 2785,
        "contract": "contracts/v2/KapanRouter.sol:KapanRouter",
        "label": "balancerV3Vault",
        "offset": 0,
        "slot": "3",
        "type": "t_contract(IVaultV3)3715"
      },
      {
        "astId": 2788,
        "contract": "contracts/v2/KapanRouter.sol:KapanRouter",
        "label": "aaveV3Pool",
        "offset": 0,
        "slot": "4",
        "type": "t_contract(IAaveV3Pool)2734"
      },
      {
        "astId": 2790,
        "contract": "contracts/v2/KapanRouter.sol:KapanRouter",
        "label": "uniswapV3FactoryOrSentinel",
        "offset": 0,
        "slot": "5",
        "type": "t_address"
      },
      {
        "astId": 2792,
        "contract": "contracts/v2/KapanRouter.sol:KapanRouter",
        "label": "flashLoanEnabled",
        "offset": 20,
        "slot": "5",
        "type": "t_bool"
      },
      {
        "astId": 2794,
        "contract": "contracts/v2/KapanRouter.sol:KapanRouter",
        "label": "authorizedFlashSender",
        "offset": 0,
        "slot": "6",
        "type": "t_address"
      },
      {
        "astId": 946,
        "contract": "contracts/v2/KapanRouter.sol:KapanRouter",
        "label": "gateways",
        "offset": 0,
        "slot": "7",
        "type": "t_mapping(t_string_memory_ptr,t_contract(IGateway)3630)"
      }
    ],
    "types": {
      "t_address": {
        "encoding": "inplace",
        "label": "address",
        "numberOfBytes": "20"
      },
      "t_bool": {
        "encoding": "inplace",
        "label": "bool",
        "numberOfBytes": "1"
      },
      "t_contract(IAaveV3Pool)2734": {
        "encoding": "inplace",
        "label": "contract IAaveV3Pool",
        "numberOfBytes": "20"
      },
      "t_contract(IFlashLoanProvider)3689": {
        "encoding": "inplace",
        "label": "contract IFlashLoanProvider",
        "numberOfBytes": "20"
      },
      "t_contract(IGateway)3630": {
        "encoding": "inplace",
        "label": "contract IGateway",
        "numberOfBytes": "20"
      },
      "t_contract(IVaultV3)3715": {
        "encoding": "inplace",
        "label": "contract IVaultV3",
        "numberOfBytes": "20"
      },
      "t_mapping(t_string_memory_ptr,t_contract(IGateway)3630)": {
        "encoding": "mapping",
        "key": "t_string_memory_ptr",
        "label": "mapping(string => contract IGateway)",
        "numberOfBytes": "32",
        "value": "t_contract(IGateway)3630"
      },
      "t_string_memory_ptr": {
        "encoding": "bytes",
        "label": "string",
        "numberOfBytes": "32"
      },
      "t_uint256": {
        "encoding": "inplace",
        "label": "uint256",
        "numberOfBytes": "32"
      }
    }
  }
}