{
  "address": "0x8F94351Ac17B4B5fb0923D229319805bB52616CD",
  "abi": [
    {
      "inputs": [
        {
          "internalType": "address",
          "name": "_owner",
          "type": "address"
        },
        {
          "internalType": "address",
          "name": "_router",
          "type": "address"
        },
        {
          "internalType": "address",
          "name": "_composableCoW",
          "type": "address"
        },
        {
          "internalType": "address",
          "name": "_settlement",
          "type": "address"
        },
        {
          "internalType": "address",
          "name": "_hooksTrampoline",
          "type": "address"
        }
      ],
      "stateMutability": "nonpayable",
      "type": "constructor"
    },
    {
      "inputs": [
        {
          "internalType": "address",
          "name": "target",
          "type": "address"
        }
      ],
      "name": "AddressEmptyCode",
      "type": "error"
    },
    {
      "inputs": [
        {
          "internalType": "address",
          "name": "account",
          "type": "address"
        }
      ],
      "name": "AddressInsufficientBalance",
      "type": "error"
    },
    {
      "inputs": [],
      "name": "FailedInnerCall",
      "type": "error"
    },
    {
      "inputs": [],
      "name": "HookExecutionFailed",
      "type": "error"
    },
    {
      "inputs": [],
      "name": "InvalidHandler",
      "type": "error"
    },
    {
      "inputs": [],
      "name": "InvalidOrderState",
      "type": "error"
    },
    {
      "inputs": [],
      "name": "NotHooksTrampoline",
      "type": "error"
    },
    {
      "inputs": [],
      "name": "OrderAlreadyExists",
      "type": "error"
    },
    {
      "inputs": [],
      "name": "OrderNotFound",
      "type": "error"
    },
    {
      "inputs": [
        {
          "internalType": "address",
          "name": "owner",
          "type": "address"
        }
      ],
      "name": "OwnableInvalidOwner",
      "type": "error"
    },
    {
      "inputs": [
        {
          "internalType": "address",
          "name": "account",
          "type": "address"
        }
      ],
      "name": "OwnableUnauthorizedAccount",
      "type": "error"
    },
    {
      "inputs": [],
      "name": "ReentrancyGuardReentrantCall",
      "type": "error"
    },
    {
      "inputs": [
        {
          "internalType": "address",
          "name": "token",
          "type": "address"
        }
      ],
      "name": "SafeERC20FailedOperation",
      "type": "error"
    },
    {
      "inputs": [],
      "name": "Unauthorized",
      "type": "error"
    },
    {
      "inputs": [],
      "name": "ZeroAddress",
      "type": "error"
    },
    {
      "anonymous": false,
      "inputs": [
        {
          "indexed": true,
          "internalType": "bytes32",
          "name": "orderHash",
          "type": "bytes32"
        },
        {
          "indexed": false,
          "internalType": "uint256",
          "name": "chunkIndex",
          "type": "uint256"
        },
        {
          "indexed": false,
          "internalType": "uint256",
          "name": "sellAmount",
          "type": "uint256"
        },
        {
          "indexed": false,
          "internalType": "uint256",
          "name": "buyAmount",
          "type": "uint256"
        }
      ],
      "name": "ChunkExecuted",
      "type": "event"
    },
    {
      "anonymous": false,
      "inputs": [
        {
          "indexed": true,
          "internalType": "address",
          "name": "oldComposableCoW",
          "type": "address"
        },
        {
          "indexed": true,
          "internalType": "address",
          "name": "newComposableCoW",
          "type": "address"
        }
      ],
      "name": "ComposableCoWUpdated",
      "type": "event"
    },
    {
      "anonymous": false,
      "inputs": [
        {
          "indexed": true,
          "internalType": "address",
          "name": "oldTrampoline",
          "type": "address"
        },
        {
          "indexed": true,
          "internalType": "address",
          "name": "newTrampoline",
          "type": "address"
        }
      ],
      "name": "HooksTrampolineUpdated",
      "type": "event"
    },
    {
      "anonymous": false,
      "inputs": [
        {
          "indexed": true,
          "internalType": "bytes32",
          "name": "orderHash",
          "type": "bytes32"
        },
        {
          "indexed": true,
          "internalType": "address",
          "name": "user",
          "type": "address"
        }
      ],
      "name": "OrderCancelled",
      "type": "event"
    },
    {
      "anonymous": false,
      "inputs": [
        {
          "indexed": true,
          "internalType": "bytes32",
          "name": "orderHash",
          "type": "bytes32"
        },
        {
          "indexed": true,
          "internalType": "address",
          "name": "user",
          "type": "address"
        },
        {
          "indexed": false,
          "internalType": "uint256",
          "name": "totalExecuted",
          "type": "uint256"
        }
      ],
      "name": "OrderCompleted",
      "type": "event"
    },
    {
      "anonymous": false,
      "inputs": [
        {
          "indexed": true,
          "internalType": "bytes32",
          "name": "orderHash",
          "type": "bytes32"
        },
        {
          "indexed": true,
          "internalType": "address",
          "name": "user",
          "type": "address"
        },
        {
          "indexed": false,
          "internalType": "address",
          "name": "sellToken",
          "type": "address"
        },
        {
          "indexed": false,
          "internalType": "address",
          "name": "buyToken",
          "type": "address"
        },
        {
          "indexed": false,
          "internalType": "uint256",
          "name": "totalAmount",
          "type": "uint256"
        },
        {
          "indexed": false,
          "internalType": "uint256",
          "name": "chunkSize",
          "type": "uint256"
        }
      ],
      "name": "OrderCreated",
      "type": "event"
    },
    {
      "anonymous": false,
      "inputs": [
        {
          "indexed": true,
          "internalType": "address",
          "name": "oldHandler",
          "type": "address"
        },
        {
          "indexed": true,
          "internalType": "address",
          "name": "newHandler",
          "type": "address"
        }
      ],
      "name": "OrderHandlerUpdated",
      "type": "event"
    },
    {
      "anonymous": false,
      "inputs": [
        {
          "indexed": true,
          "internalType": "address",
          "name": "previousOwner",
          "type": "address"
        },
        {
          "indexed": true,
          "internalType": "address",
          "name": "newOwner",
          "type": "address"
        }
      ],
      "name": "OwnershipTransferred",
      "type": "event"
    },
    {
      "anonymous": false,
      "inputs": [
        {
          "indexed": true,
          "internalType": "bytes32",
          "name": "orderHash",
          "type": "bytes32"
        },
        {
          "indexed": false,
          "internalType": "uint256",
          "name": "chunkIndex",
          "type": "uint256"
        },
        {
          "indexed": false,
          "internalType": "uint256",
          "name": "receivedAmount",
          "type": "uint256"
        }
      ],
      "name": "PostHookExecuted",
      "type": "event"
    },
    {
      "anonymous": false,
      "inputs": [
        {
          "indexed": true,
          "internalType": "bytes32",
          "name": "orderHash",
          "type": "bytes32"
        },
        {
          "indexed": false,
          "internalType": "uint256",
          "name": "chunkIndex",
          "type": "uint256"
        }
      ],
      "name": "PreHookExecuted",
      "type": "event"
    },
    {
      "anonymous": false,
      "inputs": [
        {
          "indexed": true,
          "internalType": "address",
          "name": "oldRouter",
          "type": "address"
        },
        {
          "indexed": true,
          "internalType": "address",
          "name": "newRouter",
          "type": "address"
        }
      ],
      "name": "RouterUpdated",
      "type": "event"
    },
    {
      "inputs": [
        {
          "internalType": "address",
          "name": "token",
          "type": "address"
        }
      ],
      "name": "approveVaultRelayer",
      "outputs": [],
      "stateMutability": "nonpayable",
      "type": "function"
    },
    {
      "inputs": [
        {
          "internalType": "bytes32",
          "name": "orderHash",
          "type": "bytes32"
        }
      ],
      "name": "cancelOrder",
      "outputs": [],
      "stateMutability": "nonpayable",
      "type": "function"
    },
    {
      "inputs": [],
      "name": "composableCoW",
      "outputs": [
        {
          "internalType": "contract IComposableCoW",
          "name": "",
          "type": "address"
        }
      ],
      "stateMutability": "view",
      "type": "function"
    },
    {
      "inputs": [
        {
          "components": [
            {
              "internalType": "address",
              "name": "user",
              "type": "address"
            },
            {
              "internalType": "bytes",
              "name": "preInstructionsData",
              "type": "bytes"
            },
            {
              "internalType": "uint256",
              "name": "preTotalAmount",
              "type": "uint256"
            },
            {
              "internalType": "address",
              "name": "sellToken",
              "type": "address"
            },
            {
              "internalType": "address",
              "name": "buyToken",
              "type": "address"
            },
            {
              "internalType": "uint256",
              "name": "chunkSize",
              "type": "uint256"
            },
            {
              "internalType": "uint256",
              "name": "minBuyPerChunk",
              "type": "uint256"
            },
            {
              "internalType": "bytes",
              "name": "postInstructionsData",
              "type": "bytes"
            },
            {
              "internalType": "enum KapanOrderManager.CompletionType",
              "name": "completion",
              "type": "uint8"
            },
            {
              "internalType": "uint256",
              "name": "targetValue",
              "type": "uint256"
            },
            {
              "internalType": "uint256",
              "name": "minHealthFactor",
              "type": "uint256"
            },
            {
              "internalType": "bytes32",
              "name": "appDataHash",
              "type": "bytes32"
            }
          ],
          "internalType": "struct KapanOrderManager.KapanOrderParams",
          "name": "params",
          "type": "tuple"
        },
        {
          "internalType": "bytes32",
          "name": "salt",
          "type": "bytes32"
        }
      ],
      "name": "createOrder",
      "outputs": [
        {
          "internalType": "bytes32",
          "name": "orderHash",
          "type": "bytes32"
        }
      ],
      "stateMutability": "nonpayable",
      "type": "function"
    },
    {
      "inputs": [
        {
          "internalType": "bytes32",
          "name": "orderHash",
          "type": "bytes32"
        }
      ],
      "name": "executePostHook",
      "outputs": [],
      "stateMutability": "nonpayable",
      "type": "function"
    },
    {
      "inputs": [
        {
          "internalType": "bytes32",
          "name": "orderHash",
          "type": "bytes32"
        },
        {
          "internalType": "uint256",
          "name": "chunkIndex",
          "type": "uint256"
        }
      ],
      "name": "executePreHook",
      "outputs": [],
      "stateMutability": "nonpayable",
      "type": "function"
    },
    {
      "inputs": [
        {
          "internalType": "bytes32",
          "name": "orderHash",
          "type": "bytes32"
        }
      ],
      "name": "getOrder",
      "outputs": [
        {
          "components": [
            {
              "components": [
                {
                  "internalType": "address",
                  "name": "user",
                  "type": "address"
                },
                {
                  "internalType": "bytes",
                  "name": "preInstructionsData",
                  "type": "bytes"
                },
                {
                  "internalType": "uint256",
                  "name": "preTotalAmount",
                  "type": "uint256"
                },
                {
                  "internalType": "address",
                  "name": "sellToken",
                  "type": "address"
                },
                {
                  "internalType": "address",
                  "name": "buyToken",
                  "type": "address"
                },
                {
                  "internalType": "uint256",
                  "name": "chunkSize",
                  "type": "uint256"
                },
                {
                  "internalType": "uint256",
                  "name": "minBuyPerChunk",
                  "type": "uint256"
                },
                {
                  "internalType": "bytes",
                  "name": "postInstructionsData",
                  "type": "bytes"
                },
                {
                  "internalType": "enum KapanOrderManager.CompletionType",
                  "name": "completion",
                  "type": "uint8"
                },
                {
                  "internalType": "uint256",
                  "name": "targetValue",
                  "type": "uint256"
                },
                {
                  "internalType": "uint256",
                  "name": "minHealthFactor",
                  "type": "uint256"
                },
                {
                  "internalType": "bytes32",
                  "name": "appDataHash",
                  "type": "bytes32"
                }
              ],
              "internalType": "struct KapanOrderManager.KapanOrderParams",
              "name": "params",
              "type": "tuple"
            },
            {
              "internalType": "enum KapanOrderManager.OrderStatus",
              "name": "status",
              "type": "uint8"
            },
            {
              "internalType": "uint256",
              "name": "executedAmount",
              "type": "uint256"
            },
            {
              "internalType": "uint256",
              "name": "iterationCount",
              "type": "uint256"
            },
            {
              "internalType": "uint256",
              "name": "createdAt",
              "type": "uint256"
            }
          ],
          "internalType": "struct KapanOrderManager.OrderContext",
          "name": "",
          "type": "tuple"
        }
      ],
      "stateMutability": "view",
      "type": "function"
    },
    {
      "inputs": [
        {
          "internalType": "address",
          "name": "user",
          "type": "address"
        }
      ],
      "name": "getUserOrders",
      "outputs": [
        {
          "internalType": "bytes32[]",
          "name": "",
          "type": "bytes32[]"
        }
      ],
      "stateMutability": "view",
      "type": "function"
    },
    {
      "inputs": [],
      "name": "hooksTrampoline",
      "outputs": [
        {
          "internalType": "address",
          "name": "",
          "type": "address"
        }
      ],
      "stateMutability": "view",
      "type": "function"
    },
    {
      "inputs": [
        {
          "internalType": "bytes32",
          "name": "orderHash",
          "type": "bytes32"
        }
      ],
      "name": "isOrderComplete",
      "outputs": [
        {
          "internalType": "bool",
          "name": "",
          "type": "bool"
        }
      ],
      "stateMutability": "view",
      "type": "function"
    },
    {
      "inputs": [
        {
          "internalType": "bytes32",
          "name": "_hash",
          "type": "bytes32"
        },
        {
          "internalType": "bytes",
          "name": "_signature",
          "type": "bytes"
        }
      ],
      "name": "isValidSignature",
      "outputs": [
        {
          "internalType": "bytes4",
          "name": "",
          "type": "bytes4"
        }
      ],
      "stateMutability": "view",
      "type": "function"
    },
    {
      "inputs": [],
      "name": "orderHandler",
      "outputs": [
        {
          "internalType": "address",
          "name": "",
          "type": "address"
        }
      ],
      "stateMutability": "view",
      "type": "function"
    },
    {
      "inputs": [
        {
          "internalType": "bytes32",
          "name": "",
          "type": "bytes32"
        }
      ],
      "name": "orderSalts",
      "outputs": [
        {
          "internalType": "bytes32",
          "name": "",
          "type": "bytes32"
        }
      ],
      "stateMutability": "view",
      "type": "function"
    },
    {
      "inputs": [
        {
          "internalType": "bytes32",
          "name": "",
          "type": "bytes32"
        }
      ],
      "name": "orders",
      "outputs": [
        {
          "components": [
            {
              "internalType": "address",
              "name": "user",
              "type": "address"
            },
            {
              "internalType": "bytes",
              "name": "preInstructionsData",
              "type": "bytes"
            },
            {
              "internalType": "uint256",
              "name": "preTotalAmount",
              "type": "uint256"
            },
            {
              "internalType": "address",
              "name": "sellToken",
              "type": "address"
            },
            {
              "internalType": "address",
              "name": "buyToken",
              "type": "address"
            },
            {
              "internalType": "uint256",
              "name": "chunkSize",
              "type": "uint256"
            },
            {
              "internalType": "uint256",
              "name": "minBuyPerChunk",
              "type": "uint256"
            },
            {
              "internalType": "bytes",
              "name": "postInstructionsData",
              "type": "bytes"
            },
            {
              "internalType": "enum KapanOrderManager.CompletionType",
              "name": "completion",
              "type": "uint8"
            },
            {
              "internalType": "uint256",
              "name": "targetValue",
              "type": "uint256"
            },
            {
              "internalType": "uint256",
              "name": "minHealthFactor",
              "type": "uint256"
            },
            {
              "internalType": "bytes32",
              "name": "appDataHash",
              "type": "bytes32"
            }
          ],
          "internalType": "struct KapanOrderManager.KapanOrderParams",
          "name": "params",
          "type": "tuple"
        },
        {
          "internalType": "enum KapanOrderManager.OrderStatus",
          "name": "status",
          "type": "uint8"
        },
        {
          "internalType": "uint256",
          "name": "executedAmount",
          "type": "uint256"
        },
        {
          "internalType": "uint256",
          "name": "iterationCount",
          "type": "uint256"
        },
        {
          "internalType": "uint256",
          "name": "createdAt",
          "type": "uint256"
        }
      ],
      "stateMutability": "view",
      "type": "function"
    },
    {
      "inputs": [],
      "name": "owner",
      "outputs": [
        {
          "internalType": "address",
          "name": "",
          "type": "address"
        }
      ],
      "stateMutability": "view",
      "type": "function"
    },
    {
      "inputs": [
        {
          "internalType": "address",
          "name": "token",
          "type": "address"
        },
        {
          "internalType": "address",
          "name": "to",
          "type": "address"
        },
        {
          "internalType": "uint256",
          "name": "amount",
          "type": "uint256"
        }
      ],
      "name": "recoverTokens",
      "outputs": [],
      "stateMutability": "nonpayable",
      "type": "function"
    },
    {
      "inputs": [],
      "name": "renounceOwnership",
      "outputs": [],
      "stateMutability": "nonpayable",
      "type": "function"
    },
    {
      "inputs": [],
      "name": "router",
      "outputs": [
        {
          "internalType": "contract IKapanRouter",
          "name": "",
          "type": "address"
        }
      ],
      "stateMutability": "view",
      "type": "function"
    },
    {
      "inputs": [
        {
          "internalType": "address",
          "name": "_composableCoW",
          "type": "address"
        }
      ],
      "name": "setComposableCoW",
      "outputs": [],
      "stateMutability": "nonpayable",
      "type": "function"
    },
    {
      "inputs": [
        {
          "internalType": "address",
          "name": "_hooksTrampoline",
          "type": "address"
        }
      ],
      "name": "setHooksTrampoline",
      "outputs": [],
      "stateMutability": "nonpayable",
      "type": "function"
    },
    {
      "inputs": [
        {
          "internalType": "address",
          "name": "_handler",
          "type": "address"
        }
      ],
      "name": "setOrderHandler",
      "outputs": [],
      "stateMutability": "nonpayable",
      "type": "function"
    },
    {
      "inputs": [
        {
          "internalType": "address",
          "name": "_router",
          "type": "address"
        }
      ],
      "name": "setRouter",
      "outputs": [],
      "stateMutability": "nonpayable",
      "type": "function"
    },
    {
      "inputs": [],
      "name": "settlement",
      "outputs": [
        {
          "internalType": "contract IGPv2Settlement",
          "name": "",
          "type": "address"
        }
      ],
      "stateMutability": "view",
      "type": "function"
    },
    {
      "inputs": [
        {
          "internalType": "address",
          "name": "newOwner",
          "type": "address"
        }
      ],
      "name": "transferOwnership",
      "outputs": [],
      "stateMutability": "nonpayable",
      "type": "function"
    },
    {
      "inputs": [
        {
          "internalType": "address",
          "name": "",
          "type": "address"
        },
        {
          "internalType": "uint256",
          "name": "",
          "type": "uint256"
        }
      ],
      "name": "userOrders",
      "outputs": [
        {
          "internalType": "bytes32",
          "name": "",
          "type": "bytes32"
        }
      ],
      "stateMutability": "view",
      "type": "function"
    }
  ],
  "transactionHash": "0xc8eb4e65f131a1a06a13f163218fb8d4922b2e3e4baab07eb41e63c3a236e76c",
  "args": [
    "0x0BE61223F99E57b8b8B7033a77B54Adc7f7cF027",
    "0x97bF826cD87784c9e5A924F8d97918632AA4BFfC",
    "0xfdaFc9d1902f4e0b84f65F49f244b32b31013b74",
    "0x9008D19f58AAbD9eD0D60971565AA8510560ab41",
    "0x60Bf78233f48eC42eE3F101b9a05eC7878728006"
  ],
  "numDeployments": 1,
  "solcInputHash": "1333fecdebbf056d4345e8ceac3a53a5",
  "bytecode": "0x608060405234801561000f575f5ffd5b506040516130bf3803806130bf83398101604081905261002e916101c4565b846001600160a01b03811661005c57604051631e4fbdf760e01b81525f600482015260240160405180910390fd5b6100658161015a565b50600180556001600160a01b0384166100915760405163d92e233d60e01b815260040160405180910390fd5b6001600160a01b0383166100b85760405163d92e233d60e01b815260040160405180910390fd5b6001600160a01b0382166100df5760405163d92e233d60e01b815260040160405180910390fd5b6001600160a01b0381166101065760405163d92e233d60e01b815260040160405180910390fd5b600280546001600160a01b039586166001600160a01b031991821617909155600380549486169482169490941790935560048054928516928416929092179091556005805491909316911617905550610225565b5f80546001600160a01b038381166001600160a01b0319831681178455604051919092169283917f8be0079c531659141344cd1fd0a4f28419497f9722a3daafe3b4186f6b6457e09190a35050565b80516001600160a01b03811681146101bf575f5ffd5b919050565b5f5f5f5f5f60a086880312156101d8575f5ffd5b6101e1866101a9565b94506101ef602087016101a9565b93506101fd604087016101a9565b925061020b606087016101a9565b9150610219608087016101a9565b90509295509295909350565b612e8d806102325f395ff3fe608060405234801561000f575f5ffd5b5060043610610131575f3560e01c80630d7340f3146101355780631626ba7e1461015b578063304d313e14610187578063507f0e741461019c57806351160630146101bb5780635778472a146101db5780635f3e849f146101fb57806363c69f081461020e5780636edd27ff1461022e578063715018a6146102515780637489ec231461025957806381e6d3ce1461026c57806382c8027f1461027f578063856652e9146102925780638b0f4834146102a55780638da5cb5b146102b8578063988ccc16146102c05780639c3f1e90146102d3578063b5848305146102f7578063c0d786551461030a578063c73bb4bd1461031d578063caf2185614610330578063d7a3aca714610343578063f2fde38b14610356578063f887ea4014610369575b5f5ffd5b610148610143366004611f20565b61037c565b6040519081526020015b60405180910390f35b61016e610169366004611f66565b610767565b6040516001600160e01b03199091168152602001610152565b61019a610195366004611fff565b610821565b005b6101486101aa36600461201a565b60086020525f908152604090205481565b6004546101ce906001600160a01b031681565b6040516101529190612031565b6101ee6101e936600461201a565b6108a1565b6040516101529190612187565b61019a6102093660046121e1565b610aed565b61022161021c366004611fff565b610b0e565b6040516101529190612259565b61024161023c36600461201a565b610b77565b6040519015158152602001610152565b61019a610b8d565b61019a61026736600461201a565b610ba0565b6005546101ce906001600160a01b031681565b61019a61028d36600461226b565b610d9e565b6101486102a036600461228b565b611082565b6003546101ce906001600160a01b031681565b6101ce6110ad565b61019a6102ce366004611fff565b6110bb565b6102e66102e136600461201a565b61113b565b6040516101529594939291906122a7565b6006546101ce906001600160a01b031681565b61019a610318366004611fff565b611342565b61019a61032b366004611fff565b6113c2565b61019a61033e36600461201a565b6114d8565b61019a610351366004611fff565b6118e9565b61019a610364366004611fff565b611969565b6002546101ce906001600160a01b031681565b5f6103856119ac565b336103936020850185611fff565b6001600160a01b0316146103b9576040516282b42960e81b815260040160405180910390fd5b6006546001600160a01b03166103e25760405163d8f59fa560e01b815260040160405180910390fd5b8282426040516020016103f793929190612364565b60408051601f19818403018152919052805160209091012090505f5f828152600760205260409020600c015460ff16600381111561043757610437612080565b146104555760405163966753c560e01b815260040160405180910390fd5b6040518060a001604052808461046a9061259f565b8152602001600181525f6020808301829052604080840183905242606090940193909352848252600781529190208251805182546001600160a01b0319166001600160a01b0390911617825591820151909190829060018201906104ce9082612715565b506040820151600282015560608201516003820180546001600160a01b039283166001600160a01b031991821617909155608084015160048401805491909316911617905560a0820151600582015560c0820151600682015560e0820151600782019061053b9082612715565b5061010082015160088201805460ff1916600183600381111561056057610560612080565b02179055506101208201516009820155610140820151600a82015561016090910151600b909101556020820151600c8201805460ff191660018360038111156105ab576105ab612080565b0217905550604082810151600d8301556060830151600e830155608090920151600f909101555f828152600860209081529181208490556009916105f190860186611fff565b6001600160a01b03908116825260208083019390935260409182015f90812080546001808201835591835291859020909101859055825160608101845260065483168152808501879052835180860187905284518082039096018652840184528084019490945260035492516335fd70e560e11b81529290911691636bfae1ca9161068191859190600401612807565b5f604051808303815f87803b158015610698575f5ffd5b505af11580156106aa573d5f5f3e3d5ffd5b506106c892506106c39150506080860160608701611fff565b6119d6565b6106d56020850185611fff565b6001600160a01b0316827f961e6438a987eab19d9850691e56ca64f442dbb689801b0f3cfc1381c98ed15e6107106080880160608901611fff565b61072060a0890160808a01611fff565b604080516001600160a01b039384168152929091166020830152808901359082015260a0880135606082015260800160405180910390a35061076160018055565b92915050565b5f80610775838501856128ad565b60035460208201516040808401518451915163137050cb60e11b81529495506001600160a01b03909316936326e0a196936107b693309390926004016129c2565b5f60405180830381865afa9250505080156107f257506040513d5f823e601f3d908101601f191682016040526107ef9190810190612a97565b60015b61080757506001600160e01b0319905061081a565b50630b135d3f60e11b925061081a915050565b9392505050565b610829611b48565b6001600160a01b0381166108505760405163d92e233d60e01b815260040160405180910390fd5b600580546001600160a01b038381166001600160a01b0319831681179093556040519116919082907fbdce5776902fb6aa0ba780ce23fc8392c2014d41efaeaa287d6b06ef28fe5cb0905f90a35050565b6108a9611e69565b5f82815260076020526040908190208151610220810190925280546001600160a01b031660a08301908152600182018054849291849160c0850191906108ee90612692565b80601f016020809104026020016040519081016040528092919081815260200182805461091a90612692565b80156109655780601f1061093c57610100808354040283529160200191610965565b820191905f5260205f20905b81548152906001019060200180831161094857829003601f168201915b50505091835250506002820154602082015260038201546001600160a01b039081166040830152600483015416606082015260058201546080820152600682015460a082015260078201805460c0909201916109c090612692565b80601f01602080910402602001604051908101604052809291908181526020018280546109ec90612692565b8015610a375780601f10610a0e57610100808354040283529160200191610a37565b820191905f5260205f20905b815481529060010190602001808311610a1a57829003601f168201915b5050509183525050600882015460209091019060ff166003811115610a5e57610a5e612080565b6003811115610a6f57610a6f612080565b81526009820154602080830191909152600a8301546040830152600b90920154606090910152908252600c83015491019060ff166003811115610ab457610ab4612080565b6003811115610ac557610ac5612080565b8152600d8201546020820152600e8201546040820152600f9091015460609091015292915050565b610af5611b48565b610b096001600160a01b0384168383611b7a565b505050565b6001600160a01b0381165f90815260096020908152604091829020805483518184028101840190945280845260609392830182828015610b6b57602002820191905f5260205f20905b815481526020019060010190808311610b57575b50505050509050919050565b5f81815260076020526040812061076190611bd2565b610b95611b48565b610b9e5f611c88565b565b610ba86119ac565b5f81815260076020526040812090600c82015460ff166003811115610bcf57610bcf612080565b03610bed5760405163d36d896560e01b815260040160405180910390fd5b80546001600160a01b03163314610c16576040516282b42960e81b815260040160405180910390fd5b6001600c82015460ff166003811115610c3157610c31612080565b14610c4f57604051632b12537f60e21b815260040160405180910390fd5b600c8101805460ff1916600390811790915554604080516060810182526006546001600160a01b0390811682525f86815260086020908152848220548185015284518082018990528551808203909201825285018552838501529251635500079d60e01b815292931691635500079d91610ccb91600401612b8d565b602060405180830381865afa158015610ce6573d5f5f3e3d5ffd5b505050506040513d601f19601f82011682018060405250810190610d0a9190612b9f565b6003546040516395bc267360e01b8152600481018390529192506001600160a01b0316906395bc2673906024015f604051808303815f87803b158015610d4e575f5ffd5b505af1158015610d60573d5f5f3e3d5ffd5b50506040513392508591507fa6eb7cdc219e1518ced964e9a34e61d68a94e4f1569db3e84256ba981ba52753905f90a35050610d9b60018055565b50565b610da66119ac565b6005546001600160a01b03163314610dd157604051631cb3967f60e21b815260040160405180910390fd5b5f8281526007602052604090206001600c82015460ff166003811115610df957610df9612080565b14610e1757604051632b12537f60e21b815260040160405180910390fd5b5f815f016001018054610e2990612692565b80601f0160208091040260200160405190810160405280929190818152602001828054610e5590612692565b8015610ea05780601f10610e7757610100808354040283529160200191610ea0565b820191905f5260205f20905b815481529060010190602001808311610e8357829003601f168201915b5050505050806020019051810190610eb89190612bb6565b90505f81516001610ec99190612cf9565b6001600160401b03811115610ee057610ee0612476565b604051908082528060200260200182016040528015610f1957816020015b610f06611e9b565b815260200190600190039081610efe5790505b50604080516080810182526006918101918252653937baba32b960d11b60608201529081526005850154600386015492935090916020830191610f64916001600160a01b0316611cd7565b815250815f81518110610f7957610f79612d0c565b60209081029190910101525f5b8251811015610fda57828181518110610fa157610fa1612d0c565b602002602001015182826001610fb79190612cf9565b81518110610fc757610fc7612d0c565b6020908102919091010152600101610f86565b5060025460405163f0dbeea560e01b81526001600160a01b039091169063f0dbeea59061100b908490600401612d20565b5f604051808303815f87803b158015611022575f5ffd5b505af1158015611034573d5f5f3e3d5ffd5b50505050847fed6ad11a587c194b3ad43896e949cb9a05975419926eda9b6b571d1847c9a7aa8560405161106a91815260200190565b60405180910390a250505061107e60018055565b5050565b6009602052815f5260405f20818154811061109b575f80fd5b905f5260205f20015f91509150505481565b5f546001600160a01b031690565b6110c3611b48565b6001600160a01b0381166110ea5760405163d92e233d60e01b815260040160405180910390fd5b600380546001600160a01b038381166001600160a01b0319831681179093556040519116919082907f5ee1511014357e81e6a0e8a9bf9d80be6c56a0922d067518ddc6f7a2f6eb7bd6905f90a35050565b600760209081525f9182526040918290208251610180810190935280546001600160a01b031683526001810180549193928492908401919061117c90612692565b80601f01602080910402602001604051908101604052809291908181526020018280546111a890612692565b80156111f35780601f106111ca576101008083540402835291602001916111f3565b820191905f5260205f20905b8154815290600101906020018083116111d657829003601f168201915b50505091835250506002820154602082015260038201546001600160a01b039081166040830152600483015416606082015260058201546080820152600682015460a082015260078201805460c09092019161124e90612692565b80601f016020809104026020016040519081016040528092919081815260200182805461127a90612692565b80156112c55780601f1061129c576101008083540402835291602001916112c5565b820191905f5260205f20905b8154815290600101906020018083116112a857829003601f168201915b5050509183525050600882015460209091019060ff1660038111156112ec576112ec612080565b60038111156112fd576112fd612080565b815260098201546020820152600a8201546040820152600b90910154606090910152600c820154600d830154600e840154600f90940154929360ff9092169290919085565b61134a611b48565b6001600160a01b0381166113715760405163d92e233d60e01b815260040160405180910390fd5b600280546001600160a01b038381166001600160a01b0319831681179093556040519116919082907f02dc5c233404867c793b749c6d644beb2277536d18a7e7974d3f238e4c6f1684905f90a35050565b6113ca611b48565b6001600160a01b0381166113f15760405163d92e233d60e01b815260040160405180910390fd5b5f60045f9054906101000a90046001600160a01b03166001600160a01b0316639b552cc26040518163ffffffff1660e01b8152600401602060405180830381865afa158015611442573d5f5f3e3d5ffd5b505050506040513d601f19601f820116820180604052508101906114669190612daa565b60405163095ea7b360e01b81529091506001600160a01b0383169063095ea7b3906114989084905f1990600401612dc5565b6020604051808303815f875af11580156114b4573d5f5f3e3d5ffd5b505050506040513d601f19601f82011682018060405250810190610b099190612dde565b6114e06119ac565b6005546001600160a01b0316331461150b57604051631cb3967f60e21b815260040160405180910390fd5b5f8181526007602052604090206001600c82015460ff16600381111561153357611533612080565b1461155157604051632b12537f60e21b815260040160405180910390fd5b6004808201546040516370a0823160e01b81525f926001600160a01b03909216916370a082319161158491309101612031565b602060405180830381865afa15801561159f573d5f5f3e3d5ffd5b505050506040513d601f19601f820116820180604052508101906115c39190612b9f565b60025460048401549192506115e5916001600160a01b03908116911683611b7a565b5f825f0160070180546115f790612692565b80601f016020809104026020016040519081016040528092919081815260200182805461162390612692565b801561166e5780601f106116455761010080835404028352916020019161166e565b820191905f5260205f20905b81548152906001019060200180831161165157829003601f168201915b50505050508060200190518101906116869190612bb6565b90505f815160016116979190612cf9565b6001600160401b038111156116ae576116ae612476565b6040519080825280602002602001820160405280156116e757816020015b6116d4611e9b565b8152602001906001900390816116cc5790505b50604080516080810182526006918101918252653937baba32b960d11b6060820152908152600486015491925090602082019061172e9086906001600160a01b0316611cd7565b815250815f8151811061174357611743612d0c565b60209081029190910101525f5b82518110156117a45782818151811061176b5761176b612d0c565b6020026020010151828260016117819190612cf9565b8151811061179157611791612d0c565b6020908102919091010152600101611750565b5060025460405163f0dbeea560e01b81526001600160a01b039091169063f0dbeea5906117d5908490600401612d20565b5f604051808303815f87803b1580156117ec575f5ffd5b505af11580156117fe573d5f5f3e3d5ffd5b50505050835f016005015484600d015f82825461181b9190612cf9565b9091555050600e84018054905f61183183612df7565b919050555061183f84611bd2565b1561189c57600c8401805460ff191660021790558354600d8501546040519081526001600160a01b039091169086907fc05078bb1894dee4a12f4b4f2822aa8625022f271aee8bffc64c6621f84c4d949060200160405180910390a35b600e840154604080519182526020820185905286917f5b19a0b08bbd8e7537d63d9f1db0947c5eba6d93e02a7e0a1520ea5f29bd644c910160405180910390a250505050610d9b60018055565b6118f1611b48565b6001600160a01b0381166119185760405163d92e233d60e01b815260040160405180910390fd5b600680546001600160a01b038381166001600160a01b0319831681179093556040519116919082907f7bf6e789688cd776b5170517f39970fea2870a79d649c8443dd2b0ec62823eb7905f90a35050565b611971611b48565b6001600160a01b0381166119a3575f604051631e4fbdf760e01b815260040161199a9190612031565b60405180910390fd5b610d9b81611c88565b6002600154036119cf57604051633ee5aeb560e01b815260040160405180910390fd5b6002600155565b5f60045f9054906101000a90046001600160a01b03166001600160a01b0316639b552cc26040518163ffffffff1660e01b8152600401602060405180830381865afa158015611a27573d5f5f3e3d5ffd5b505050506040513d601f19601f82011682018060405250810190611a4b9190612daa565b604051636eb1769f60e11b81523060048201526001600160a01b0380831660248301529192505f9184169063dd62ed3e90604401602060405180830381865afa158015611a9a573d5f5f3e3d5ffd5b505050506040513d601f19601f82011682018060405250810190611abe9190612b9f565b9050611acc60025f19612e0f565b811015610b095760405163095ea7b360e01b81526001600160a01b0384169063095ea7b390611b029085905f1990600401612dc5565b6020604051808303815f875af1158015611b1e573d5f5f3e3d5ffd5b505050506040513d601f19601f82011682018060405250810190611b429190612dde565b50505050565b33611b516110ad565b6001600160a01b031614610b9e573360405163118cdaa760e01b815260040161199a9190612031565b610b0983846001600160a01b031663a9059cbb8585604051602401611ba0929190612dc5565b604051602081830303815290604052915060e01b6020820180516001600160e01b038381831617835250505050611d18565b5f6002600883015460ff166003811115611bee57611bee612080565b03611c0457506009810154600e90910154101590565b6001600883015460ff166003811115611c1f57611c1f612080565b03611c5157600d82015460028301545f91611c3991612e2e565b905080158061081a5750600583015481109392505050565b5f600883015460ff166003811115611c6b57611c6b612080565b03611c8157506002810154600d90910154101590565b505f919050565b5f80546001600160a01b038381166001600160a01b0319831681178455604051919092169283917f8be0079c531659141344cd1fd0a4f28419497f9722a3daafe3b4186f6b6457e09190a35050565b6040805160208101939093526001600160a01b0391909116828201525f606083015260036080808401919091528151808403909101815260a0909201905290565b5f611d2c6001600160a01b03841683611d70565b905080515f14158015611d50575080806020019051810190611d4e9190612dde565b155b15610b095782604051635274afe760e01b815260040161199a9190612031565b606061081a83835f845f5f856001600160a01b03168486604051611d949190612e41565b5f6040518083038185875af1925050503d805f8114611dce576040519150601f19603f3d011682016040523d82523d5f602084013e611dd3565b606091505b5091509150611de3868383611ded565b9695505050505050565b606082611e0257611dfd82611e40565b61081a565b8151158015611e1957506001600160a01b0384163b155b15611e395783604051639996b31560e01b815260040161199a9190612031565b508061081a565b805115611e505780518082602001fd5b604051630a12f52160e11b815260040160405180910390fd5b6040518060a00160405280611e7c611eb5565b81526020015f5b81526020015f81526020015f81526020015f81525090565b604051806040016040528060608152602001606081525090565b6040518061018001604052805f6001600160a01b03168152602001606081526020015f81526020015f6001600160a01b031681526020015f6001600160a01b031681526020015f81526020015f8152602001606081526020015f6003811115611e8357611e83612080565b5f5f60408385031215611f31575f5ffd5b82356001600160401b03811115611f46575f5ffd5b83016101808186031215611f58575f5ffd5b946020939093013593505050565b5f5f5f60408486031215611f78575f5ffd5b8335925060208401356001600160401b03811115611f94575f5ffd5b8401601f81018613611fa4575f5ffd5b80356001600160401b03811115611fb9575f5ffd5b866020828401011115611fca575f5ffd5b939660209190910195509293505050565b6001600160a01b0381168114610d9b575f5ffd5b8035611ffa81611fdb565b919050565b5f6020828403121561200f575f5ffd5b813561081a81611fdb565b5f6020828403121561202a575f5ffd5b5035919050565b6001600160a01b0391909116815260200190565b6001600160a01b03169052565b5f81518084528060208401602086015e5f602082860101526020601f19601f83011685010191505092915050565b634e487b7160e01b5f52602160045260245ffd5b60048110610d9b57634e487b7160e01b5f52602160045260245ffd5b6120b981612094565b9052565b6120c8828251612045565b5f602082015161018060208501526120e4610180850182612052565b90506040830151604085015260608301516121026060860182612045565b5060808301516121156080860182612045565b5060a083015160a085015260c083015160c085015260e083015184820360e08601526121418282612052565b9150506101008301516121586101008601826120b0565b506101208301516101208501526101408301516101408501526101608301516101608501528091505092915050565b602081525f825160a060208401526121a260c08401826120bd565b905060208401516121b281612094565b806040850152506040840151606084015260608401516080840152608084015160a08401528091505092915050565b5f5f5f606084860312156121f3575f5ffd5b83356121fe81611fdb565b9250602084013561220e81611fdb565b929592945050506040919091013590565b5f8151808452602084019350602083015f5b8281101561224f578151865260209586019590910190600101612231565b5093949350505050565b602081525f61081a602083018461221f565b5f5f6040838503121561227c575f5ffd5b50508035926020909101359150565b5f5f6040838503121561229c575f5ffd5b8235611f5881611fdb565b60a081525f6122b960a08301886120bd565b90506122c486612094565b8560208301528460408301528360608301528260808301529695505050505050565b5f5f8335601e198436030181126122fb575f5ffd5b83016020810192503590506001600160401b03811115612319575f5ffd5b803603821315612327575f5ffd5b9250929050565b81835281816020850137505f828201602090810191909152601f909101601f19169091010190565b803560048110611ffa575f5ffd5b6060815261237d6060820161237886611fef565b612045565b5f61238b60208601866122e6565b61018060808501526123a26101e08501828461232e565b604088013560a086015291506123bc905060608701611fef565b6123c960c0850182612045565b506123d660808701611fef565b6123e360e0850182612045565b5060a086013561010084015260c086013561012084015261240760e08701876122e6565b848303605f190161014086015261241f83828461232e565b925050506124306101008701612356565b61243e6101608501826120b0565b506101208601356101808401526101408601356101a0840152610160909501356101c083015250602081019290925260409091015290565b634e487b7160e01b5f52604160045260245ffd5b60405161018081016001600160401b03811182821017156124ad576124ad612476565b60405290565b604051606081016001600160401b03811182821017156124ad576124ad612476565b604080519081016001600160401b03811182821017156124ad576124ad612476565b604051601f8201601f191681016001600160401b038111828210171561251f5761251f612476565b604052919050565b5f6001600160401b0382111561253f5761253f612476565b50601f01601f191660200190565b5f82601f83011261255c575f5ffd5b813561256f61256a82612527565b6124f7565b818152846020838601011115612583575f5ffd5b816020850160208301375f918101602001919091529392505050565b5f61018082360312156125b0575f5ffd5b6125b861248a565b6125c183611fef565b815260208301356001600160401b038111156125db575f5ffd5b6125e73682860161254d565b6020830152506040838101359082015261260360608401611fef565b606082015261261460808401611fef565b608082015260a0838101359082015260c0808401359082015260e08301356001600160401b03811115612645575f5ffd5b6126513682860161254d565b60e0830152506126646101008401612356565b6101008201526101208381013590820152610140808401359082015261016092830135928101929092525090565b600181811c908216806126a657607f821691505b6020821081036126c457634e487b7160e01b5f52602260045260245ffd5b50919050565b601f821115610b0957805f5260205f20601f840160051c810160208510156126ef5750805b601f840160051c820191505b8181101561270e575f81556001016126fb565b5050505050565b81516001600160401b0381111561272e5761272e612476565b6127428161273c8454612692565b846126ca565b6020601f821160018114612774575f831561275d5750848201515b5f19600385901b1c1916600184901b17845561270e565b5f84815260208120601f198516915b828110156127a35787850151825560209485019460019092019101612783565b50848210156127c057868401515f19600387901b60f8161c191681555b50505050600190811b01905550565b60018060a01b038151168252602081015160208301525f6040820151606060408501526127ff6060850182612052565b949350505050565b604081525f61281960408301856127cf565b905082151560208301529392505050565b5f6001600160401b0382111561284257612842612476565b5060051b60200190565b5f6060828403121561285c575f5ffd5b6128646124b3565b9050813561287181611fdb565b81526020828101359082015260408201356001600160401b03811115612895575f5ffd5b6128a18482850161254d565b60408301525092915050565b5f602082840312156128bd575f5ffd5b81356001600160401b038111156128d2575f5ffd5b8201606081850312156128e3575f5ffd5b6128eb6124b3565b81356001600160401b03811115612900575f5ffd5b8201601f81018613612910575f5ffd5b803561291e61256a8261282a565b8082825260208201915060208360051b85010192508883111561293f575f5ffd5b6020840193505b82841015612961578335825260209384019390910190612946565b845250505060208201356001600160401b0381111561297e575f5ffd5b61298a8682850161284c565b60208301525060408201356001600160401b038111156129a8575f5ffd5b6129b48682850161254d565b604083015250949350505050565b6001600160a01b03851681526080602082018190525f906129e5908301866127cf565b82810360408401526129f78186612052565b90508281036060840152612a0b818561221f565b979650505050505050565b8051611ffa81611fdb565b805163ffffffff81168114611ffa575f5ffd5b80518015158114611ffa575f5ffd5b5f612a5061256a84612527565b9050828152838383011115612a63575f5ffd5b8282602083015e5f602084830101529392505050565b5f82601f830112612a88575f5ffd5b61081a83835160208501612a43565b5f5f8284036101a0811215612aaa575f5ffd5b610180811215612ab8575f5ffd5b50612ac161248a565b612aca84612a16565b8152612ad860208501612a16565b6020820152612ae960408501612a16565b60408201526060848101519082015260808085015190820152612b0e60a08501612a21565b60a082015260c0848101519082015260e080850151908201526101008085015190820152612b3f6101208501612a34565b610120820152610140848101519082015261016080850151908201526101808401519092506001600160401b03811115612b77575f5ffd5b612b8385828601612a79565b9150509250929050565b602081525f61081a60208301846127cf565b5f60208284031215612baf575f5ffd5b5051919050565b5f60208284031215612bc6575f5ffd5b81516001600160401b03811115612bdb575f5ffd5b8201601f81018413612beb575f5ffd5b8051612bf961256a8261282a565b8082825260208201915060208360051b850101925086831115612c1a575f5ffd5b602084015b83811015612cda5780516001600160401b03811115612c3c575f5ffd5b85016040818a03601f19011215612c51575f5ffd5b612c596124d5565b60208201516001600160401b03811115612c71575f5ffd5b82016020810190603f018b13612c85575f5ffd5b612c948b825160208401612a43565b82525060408201516001600160401b03811115612caf575f5ffd5b612cbe8b602083860101612a79565b6020830152508085525050602083019250602081019050612c1f565b509695505050505050565b634e487b7160e01b5f52601160045260245ffd5b8082018082111561076157610761612ce5565b634e487b7160e01b5f52603260045260245ffd5b5f602082016020835280845180835260408501915060408160051b8601019250602086015f5b82811015612d9e57603f198786030184528151805160408752612d6c6040880182612052565b9050602082015191508681036020880152612d878183612052565b965050506020938401939190910190600101612d46565b50929695505050505050565b5f60208284031215612dba575f5ffd5b815161081a81611fdb565b6001600160a01b03929092168252602082015260400190565b5f60208284031215612dee575f5ffd5b61081a82612a34565b5f60018201612e0857612e08612ce5565b5060010190565b5f82612e2957634e487b7160e01b5f52601260045260245ffd5b500490565b8181038181111561076157610761612ce5565b5f82518060208501845e5f92019182525091905056fea26469706673582212203b38995d50faac286a6a3e2c8fe77cf08621e33e2923758457a30a5b1af0aab064736f6c634300081e0033",
  "devdoc": {
    "details": "Singleton contract that holds order context and executes hooks",
    "errors": {
      "AddressEmptyCode(address)": [
        {
          "details": "There's no code at `target` (it is not a contract)."
        }
      ],
      "AddressInsufficientBalance(address)": [
        {
          "details": "The ETH balance of the account is not enough to perform the operation."
        }
      ],
      "FailedInnerCall()": [
        {
          "details": "A call to an address target failed. The target may have reverted."
        }
      ],
      "OwnableInvalidOwner(address)": [
        {
          "details": "The owner is not a valid owner account. (eg. `address(0)`)"
        }
      ],
      "OwnableUnauthorizedAccount(address)": [
        {
          "details": "The caller account is not authorized to perform an operation."
        }
      ],
      "ReentrancyGuardReentrantCall()": [
        {
          "details": "Unauthorized reentrant call."
        }
      ],
      "SafeERC20FailedOperation(address)": [
        {
          "details": "An operation with an ERC20 token failed."
        }
      ]
    },
    "kind": "dev",
    "methods": {
      "cancelOrder(bytes32)": {
        "params": {
          "orderHash": "The order to cancel"
        }
      },
      "createOrder((address,bytes,uint256,address,address,uint256,uint256,bytes,uint8,uint256,uint256,bytes32),bytes32)": {
        "params": {
          "params": "The order parameters",
          "salt": "Unique salt for the order"
        },
        "returns": {
          "orderHash": "The hash identifying this order"
        }
      },
      "executePostHook(bytes32)": {
        "details": "Prepends a ToOutput instruction with the actual received amount, so all      stored instructions can reference index 0 for the swap output",
        "params": {
          "orderHash": "The order being settled"
        }
      },
      "executePreHook(bytes32,uint256)": {
        "details": "Prepends a ToOutput instruction with chunkSize, so all stored instructions      can reference index 0 for the chunk amount",
        "params": {
          "chunkIndex": "The current chunk index",
          "orderHash": "The order being settled"
        }
      },
      "isValidSignature(bytes32,bytes)": {
        "details": "Delegates to ComposableCoW for conditional order verification"
      },
      "owner()": {
        "details": "Returns the address of the current owner."
      },
      "renounceOwnership()": {
        "details": "Leaves the contract without owner. It will not be possible to call `onlyOwner` functions. Can only be called by the current owner. NOTE: Renouncing ownership will leave the contract without an owner, thereby disabling any functionality that is only available to the owner."
      },
      "transferOwnership(address)": {
        "details": "Transfers ownership of the contract to a new account (`newOwner`). Can only be called by the current owner."
      }
    },
    "title": "KapanOrderManager",
    "version": 1
  },
  "userdoc": {
    "kind": "user",
    "methods": {
      "approveVaultRelayer(address)": {
        "notice": "Approve vault relayer to spend a token"
      },
      "cancelOrder(bytes32)": {
        "notice": "Cancel an active order"
      },
      "composableCoW()": {
        "notice": "The ComposableCoW contract for order registration"
      },
      "createOrder((address,bytes,uint256,address,address,uint256,uint256,bytes,uint8,uint256,uint256,bytes32),bytes32)": {
        "notice": "Create a new CoW order"
      },
      "executePostHook(bytes32)": {
        "notice": "Execute post-hook (called by HooksTrampoline during CoW settlement)"
      },
      "executePreHook(bytes32,uint256)": {
        "notice": "Execute pre-hook (called by HooksTrampoline during CoW settlement)"
      },
      "getOrder(bytes32)": {
        "notice": "Get order context"
      },
      "getUserOrders(address)": {
        "notice": "Get user's orders"
      },
      "hooksTrampoline()": {
        "notice": "The HooksTrampoline contract (caller for hooks)"
      },
      "isOrderComplete(bytes32)": {
        "notice": "Check if an order is complete based on completion criteria"
      },
      "isValidSignature(bytes32,bytes)": {
        "notice": "Verify signature for CoW Protocol orders"
      },
      "orderHandler()": {
        "notice": "The KapanOrderHandler for generating orders"
      },
      "orderSalts(bytes32)": {
        "notice": "Salt used for each order (for ComposableCoW cancellation)"
      },
      "orders(bytes32)": {
        "notice": "Order contexts by order hash"
      },
      "recoverTokens(address,address,uint256)": {
        "notice": "Recover stuck tokens (owner only)"
      },
      "router()": {
        "notice": "The KapanRouter for executing lending operations"
      },
      "settlement()": {
        "notice": "The GPv2Settlement contract"
      },
      "userOrders(address,uint256)": {
        "notice": "User's active orders"
      }
    },
    "notice": "Manages CoW Protocol orders for Kapan, acting as ERC-1271 signer",
    "version": 1
  },
  "storageLayout": {
    "storage": [
      {
        "astId": 8,
        "contract": "contracts/v2/cow/KapanOrderManager.sol:KapanOrderManager",
        "label": "_owner",
        "offset": 0,
        "slot": "0",
        "type": "t_address"
      },
      {
        "astId": 845,
        "contract": "contracts/v2/cow/KapanOrderManager.sol:KapanOrderManager",
        "label": "_status",
        "offset": 0,
        "slot": "1",
        "type": "t_uint256"
      },
      {
        "astId": 1517,
        "contract": "contracts/v2/cow/KapanOrderManager.sol:KapanOrderManager",
        "label": "router",
        "offset": 0,
        "slot": "2",
        "type": "t_contract(IKapanRouter)1435"
      },
      {
        "astId": 1521,
        "contract": "contracts/v2/cow/KapanOrderManager.sol:KapanOrderManager",
        "label": "composableCoW",
        "offset": 0,
        "slot": "3",
        "type": "t_contract(IComposableCoW)2966"
      },
      {
        "astId": 1525,
        "contract": "contracts/v2/cow/KapanOrderManager.sol:KapanOrderManager",
        "label": "settlement",
        "offset": 0,
        "slot": "4",
        "type": "t_contract(IGPv2Settlement)3100"
      },
      {
        "astId": 1528,
        "contract": "contracts/v2/cow/KapanOrderManager.sol:KapanOrderManager",
        "label": "hooksTrampoline",
        "offset": 0,
        "slot": "5",
        "type": "t_address"
      },
      {
        "astId": 1531,
        "contract": "contracts/v2/cow/KapanOrderManager.sol:KapanOrderManager",
        "label": "orderHandler",
        "offset": 0,
        "slot": "6",
        "type": "t_address"
      },
      {
        "astId": 1537,
        "contract": "contracts/v2/cow/KapanOrderManager.sol:KapanOrderManager",
        "label": "orders",
        "offset": 0,
        "slot": "7",
        "type": "t_mapping(t_bytes32,t_struct(OrderContext)1513_storage)"
      },
      {
        "astId": 1542,
        "contract": "contracts/v2/cow/KapanOrderManager.sol:KapanOrderManager",
        "label": "orderSalts",
        "offset": 0,
        "slot": "8",
        "type": "t_mapping(t_bytes32,t_bytes32)"
      },
      {
        "astId": 1548,
        "contract": "contracts/v2/cow/KapanOrderManager.sol:KapanOrderManager",
        "label": "userOrders",
        "offset": 0,
        "slot": "9",
        "type": "t_mapping(t_address,t_array(t_bytes32)dyn_storage)"
      }
    ],
    "types": {
      "t_address": {
        "encoding": "inplace",
        "label": "address",
        "numberOfBytes": "20"
      },
      "t_array(t_bytes32)dyn_storage": {
        "base": "t_bytes32",
        "encoding": "dynamic_array",
        "label": "bytes32[]",
        "numberOfBytes": "32"
      },
      "t_bytes32": {
        "encoding": "inplace",
        "label": "bytes32",
        "numberOfBytes": "32"
      },
      "t_bytes_storage": {
        "encoding": "bytes",
        "label": "bytes",
        "numberOfBytes": "32"
      },
      "t_contract(IComposableCoW)2966": {
        "encoding": "inplace",
        "label": "contract IComposableCoW",
        "numberOfBytes": "20"
      },
      "t_contract(IGPv2Settlement)3100": {
        "encoding": "inplace",
        "label": "contract IGPv2Settlement",
        "numberOfBytes": "20"
      },
      "t_contract(IKapanRouter)1435": {
        "encoding": "inplace",
        "label": "contract IKapanRouter",
        "numberOfBytes": "20"
      },
      "t_enum(CompletionType)1467": {
        "encoding": "inplace",
        "label": "enum KapanOrderManager.CompletionType",
        "numberOfBytes": "1"
      },
      "t_enum(OrderStatus)1472": {
        "encoding": "inplace",
        "label": "enum KapanOrderManager.OrderStatus",
        "numberOfBytes": "1"
      },
      "t_mapping(t_address,t_array(t_bytes32)dyn_storage)": {
        "encoding": "mapping",
        "key": "t_address",
        "label": "mapping(address => bytes32[])",
        "numberOfBytes": "32",
        "value": "t_array(t_bytes32)dyn_storage"
      },
      "t_mapping(t_bytes32,t_bytes32)": {
        "encoding": "mapping",
        "key": "t_bytes32",
        "label": "mapping(bytes32 => bytes32)",
        "numberOfBytes": "32",
        "value": "t_bytes32"
      },
      "t_mapping(t_bytes32,t_struct(OrderContext)1513_storage)": {
        "encoding": "mapping",
        "key": "t_bytes32",
        "label": "mapping(bytes32 => struct KapanOrderManager.OrderContext)",
        "numberOfBytes": "32",
        "value": "t_struct(OrderContext)1513_storage"
      },
      "t_struct(KapanOrderParams)1499_storage": {
        "encoding": "inplace",
        "label": "struct KapanOrderManager.KapanOrderParams",
        "members": [
          {
            "astId": 1475,
            "contract": "contracts/v2/cow/KapanOrderManager.sol:KapanOrderManager",
            "label": "user",
            "offset": 0,
            "slot": "0",
            "type": "t_address"
          },
          {
            "astId": 1477,
            "contract": "contracts/v2/cow/KapanOrderManager.sol:KapanOrderManager",
            "label": "preInstructionsData",
            "offset": 0,
            "slot": "1",
            "type": "t_bytes_storage"
          },
          {
            "astId": 1479,
            "contract": "contracts/v2/cow/KapanOrderManager.sol:KapanOrderManager",
            "label": "preTotalAmount",
            "offset": 0,
            "slot": "2",
            "type": "t_uint256"
          },
          {
            "astId": 1481,
            "contract": "contracts/v2/cow/KapanOrderManager.sol:KapanOrderManager",
            "label": "sellToken",
            "offset": 0,
            "slot": "3",
            "type": "t_address"
          },
          {
            "astId": 1483,
            "contract": "contracts/v2/cow/KapanOrderManager.sol:KapanOrderManager",
            "label": "buyToken",
            "offset": 0,
            "slot": "4",
            "type": "t_address"
          },
          {
            "astId": 1485,
            "contract": "contracts/v2/cow/KapanOrderManager.sol:KapanOrderManager",
            "label": "chunkSize",
            "offset": 0,
            "slot": "5",
            "type": "t_uint256"
          },
          {
            "astId": 1487,
            "contract": "contracts/v2/cow/KapanOrderManager.sol:KapanOrderManager",
            "label": "minBuyPerChunk",
            "offset": 0,
            "slot": "6",
            "type": "t_uint256"
          },
          {
            "astId": 1489,
            "contract": "contracts/v2/cow/KapanOrderManager.sol:KapanOrderManager",
            "label": "postInstructionsData",
            "offset": 0,
            "slot": "7",
            "type": "t_bytes_storage"
          },
          {
            "astId": 1492,
            "contract": "contracts/v2/cow/KapanOrderManager.sol:KapanOrderManager",
            "label": "completion",
            "offset": 0,
            "slot": "8",
            "type": "t_enum(CompletionType)1467"
          },
          {
            "astId": 1494,
            "contract": "contracts/v2/cow/KapanOrderManager.sol:KapanOrderManager",
            "label": "targetValue",
            "offset": 0,
            "slot": "9",
            "type": "t_uint256"
          },
          {
            "astId": 1496,
            "contract": "contracts/v2/cow/KapanOrderManager.sol:KapanOrderManager",
            "label": "minHealthFactor",
            "offset": 0,
            "slot": "10",
            "type": "t_uint256"
          },
          {
            "astId": 1498,
            "contract": "contracts/v2/cow/KapanOrderManager.sol:KapanOrderManager",
            "label": "appDataHash",
            "offset": 0,
            "slot": "11",
            "type": "t_bytes32"
          }
        ],
        "numberOfBytes": "384"
      },
      "t_struct(OrderContext)1513_storage": {
        "encoding": "inplace",
        "label": "struct KapanOrderManager.OrderContext",
        "members": [
          {
            "astId": 1503,
            "contract": "contracts/v2/cow/KapanOrderManager.sol:KapanOrderManager",
            "label": "params",
            "offset": 0,
            "slot": "0",
            "type": "t_struct(KapanOrderParams)1499_storage"
          },
          {
            "astId": 1506,
            "contract": "contracts/v2/cow/KapanOrderManager.sol:KapanOrderManager",
            "label": "status",
            "offset": 0,
            "slot": "12",
            "type": "t_enum(OrderStatus)1472"
          },
          {
            "astId": 1508,
            "contract": "contracts/v2/cow/KapanOrderManager.sol:KapanOrderManager",
            "label": "executedAmount",
            "offset": 0,
            "slot": "13",
            "type": "t_uint256"
          },
          {
            "astId": 1510,
            "contract": "contracts/v2/cow/KapanOrderManager.sol:KapanOrderManager",
            "label": "iterationCount",
            "offset": 0,
            "slot": "14",
            "type": "t_uint256"
          },
          {
            "astId": 1512,
            "contract": "contracts/v2/cow/KapanOrderManager.sol:KapanOrderManager",
            "label": "createdAt",
            "offset": 0,
            "slot": "15",
            "type": "t_uint256"
          }
        ],
        "numberOfBytes": "512"
      },
      "t_uint256": {
        "encoding": "inplace",
        "label": "uint256",
        "numberOfBytes": "32"
      }
    }
  }
}