{
  "address": "0x21DDeBeC1536E376c6d408401728152842080426",
  "abi": [
    {
      "inputs": [
        {
          "internalType": "address",
          "name": "_owner",
          "type": "address"
        },
        {
          "internalType": "address",
          "name": "_router",
          "type": "address"
        },
        {
          "internalType": "address",
          "name": "_composableCoW",
          "type": "address"
        },
        {
          "internalType": "address",
          "name": "_settlement",
          "type": "address"
        },
        {
          "internalType": "address",
          "name": "_hooksTrampoline",
          "type": "address"
        }
      ],
      "stateMutability": "nonpayable",
      "type": "constructor"
    },
    {
      "inputs": [
        {
          "internalType": "address",
          "name": "target",
          "type": "address"
        }
      ],
      "name": "AddressEmptyCode",
      "type": "error"
    },
    {
      "inputs": [
        {
          "internalType": "address",
          "name": "account",
          "type": "address"
        }
      ],
      "name": "AddressInsufficientBalance",
      "type": "error"
    },
    {
      "inputs": [],
      "name": "CannotCancelMidExecution",
      "type": "error"
    },
    {
      "inputs": [],
      "name": "FailedInnerCall",
      "type": "error"
    },
    {
      "inputs": [
        {
          "internalType": "address",
          "name": "expected",
          "type": "address"
        },
        {
          "internalType": "address",
          "name": "actual",
          "type": "address"
        }
      ],
      "name": "InstructionUserMismatch",
      "type": "error"
    },
    {
      "inputs": [],
      "name": "InvalidChunkWindow",
      "type": "error"
    },
    {
      "inputs": [],
      "name": "InvalidOrderState",
      "type": "error"
    },
    {
      "inputs": [],
      "name": "InvalidTokens",
      "type": "error"
    },
    {
      "inputs": [],
      "name": "InvalidTrigger",
      "type": "error"
    },
    {
      "inputs": [],
      "name": "MaxOrdersExceeded",
      "type": "error"
    },
    {
      "inputs": [],
      "name": "NoTokensReceived",
      "type": "error"
    },
    {
      "inputs": [],
      "name": "NotHooksTrampoline",
      "type": "error"
    },
    {
      "inputs": [],
      "name": "OrderAlreadyExists",
      "type": "error"
    },
    {
      "inputs": [],
      "name": "OrderNotFound",
      "type": "error"
    },
    {
      "inputs": [
        {
          "internalType": "address",
          "name": "owner",
          "type": "address"
        }
      ],
      "name": "OwnableInvalidOwner",
      "type": "error"
    },
    {
      "inputs": [
        {
          "internalType": "address",
          "name": "account",
          "type": "address"
        }
      ],
      "name": "OwnableUnauthorizedAccount",
      "type": "error"
    },
    {
      "inputs": [],
      "name": "PreHookAlreadyExecuted",
      "type": "error"
    },
    {
      "inputs": [],
      "name": "PreHookNotExecuted",
      "type": "error"
    },
    {
      "inputs": [],
      "name": "ReentrancyGuardReentrantCall",
      "type": "error"
    },
    {
      "inputs": [
        {
          "internalType": "address",
          "name": "token",
          "type": "address"
        }
      ],
      "name": "SafeERC20FailedOperation",
      "type": "error"
    },
    {
      "inputs": [],
      "name": "SaltAlreadyUsed",
      "type": "error"
    },
    {
      "inputs": [],
      "name": "TriggerNotMet",
      "type": "error"
    },
    {
      "inputs": [],
      "name": "Unauthorized",
      "type": "error"
    },
    {
      "inputs": [],
      "name": "ValidToOverflow",
      "type": "error"
    },
    {
      "inputs": [],
      "name": "ZeroAddress",
      "type": "error"
    },
    {
      "anonymous": false,
      "inputs": [
        {
          "indexed": false,
          "internalType": "uint256",
          "name": "oldWindow",
          "type": "uint256"
        },
        {
          "indexed": false,
          "internalType": "uint256",
          "name": "newWindow",
          "type": "uint256"
        }
      ],
      "name": "ChunkWindowUpdated",
      "type": "event"
    },
    {
      "anonymous": false,
      "inputs": [
        {
          "indexed": true,
          "internalType": "bytes32",
          "name": "orderHash",
          "type": "bytes32"
        },
        {
          "indexed": true,
          "internalType": "address",
          "name": "user",
          "type": "address"
        }
      ],
      "name": "ConditionalOrderCancelled",
      "type": "event"
    },
    {
      "anonymous": false,
      "inputs": [
        {
          "indexed": true,
          "internalType": "bytes32",
          "name": "orderHash",
          "type": "bytes32"
        },
        {
          "indexed": true,
          "internalType": "address",
          "name": "user",
          "type": "address"
        },
        {
          "indexed": false,
          "internalType": "uint256",
          "name": "iterations",
          "type": "uint256"
        }
      ],
      "name": "ConditionalOrderCompleted",
      "type": "event"
    },
    {
      "anonymous": false,
      "inputs": [
        {
          "indexed": true,
          "internalType": "bytes32",
          "name": "orderHash",
          "type": "bytes32"
        },
        {
          "indexed": true,
          "internalType": "address",
          "name": "user",
          "type": "address"
        },
        {
          "indexed": false,
          "internalType": "address",
          "name": "trigger",
          "type": "address"
        },
        {
          "indexed": false,
          "internalType": "address",
          "name": "sellToken",
          "type": "address"
        },
        {
          "indexed": false,
          "internalType": "address",
          "name": "buyToken",
          "type": "address"
        }
      ],
      "name": "ConditionalOrderCreated",
      "type": "event"
    },
    {
      "anonymous": false,
      "inputs": [
        {
          "indexed": true,
          "internalType": "address",
          "name": "oldHandler",
          "type": "address"
        },
        {
          "indexed": true,
          "internalType": "address",
          "name": "newHandler",
          "type": "address"
        }
      ],
      "name": "OrderHandlerUpdated",
      "type": "event"
    },
    {
      "anonymous": false,
      "inputs": [
        {
          "indexed": true,
          "internalType": "address",
          "name": "previousOwner",
          "type": "address"
        },
        {
          "indexed": true,
          "internalType": "address",
          "name": "newOwner",
          "type": "address"
        }
      ],
      "name": "OwnershipTransferred",
      "type": "event"
    },
    {
      "anonymous": false,
      "inputs": [
        {
          "indexed": true,
          "internalType": "bytes32",
          "name": "orderHash",
          "type": "bytes32"
        },
        {
          "indexed": false,
          "internalType": "uint256",
          "name": "iteration",
          "type": "uint256"
        },
        {
          "indexed": false,
          "internalType": "uint256",
          "name": "receivedAmount",
          "type": "uint256"
        }
      ],
      "name": "PostHookExecuted",
      "type": "event"
    },
    {
      "anonymous": false,
      "inputs": [
        {
          "indexed": true,
          "internalType": "bytes32",
          "name": "orderHash",
          "type": "bytes32"
        },
        {
          "indexed": false,
          "internalType": "uint256",
          "name": "iteration",
          "type": "uint256"
        }
      ],
      "name": "PreHookExecuted",
      "type": "event"
    },
    {
      "anonymous": false,
      "inputs": [
        {
          "indexed": true,
          "internalType": "bytes32",
          "name": "orderHash",
          "type": "bytes32"
        },
        {
          "indexed": true,
          "internalType": "address",
          "name": "user",
          "type": "address"
        }
      ],
      "name": "StuckOrderReset",
      "type": "event"
    },
    {
      "anonymous": false,
      "inputs": [
        {
          "indexed": true,
          "internalType": "address",
          "name": "token",
          "type": "address"
        },
        {
          "indexed": true,
          "internalType": "address",
          "name": "to",
          "type": "address"
        },
        {
          "indexed": false,
          "internalType": "uint256",
          "name": "amount",
          "type": "uint256"
        }
      ],
      "name": "TokensRecovered",
      "type": "event"
    },
    {
      "anonymous": false,
      "inputs": [
        {
          "indexed": true,
          "internalType": "bytes32",
          "name": "orderHash",
          "type": "bytes32"
        },
        {
          "indexed": false,
          "internalType": "uint256",
          "name": "iteration",
          "type": "uint256"
        },
        {
          "indexed": false,
          "internalType": "uint256",
          "name": "sellAmount",
          "type": "uint256"
        },
        {
          "indexed": false,
          "internalType": "uint256",
          "name": "buyAmount",
          "type": "uint256"
        }
      ],
      "name": "TriggerExecuted",
      "type": "event"
    },
    {
      "anonymous": false,
      "inputs": [
        {
          "indexed": true,
          "internalType": "address",
          "name": "token",
          "type": "address"
        },
        {
          "indexed": true,
          "internalType": "address",
          "name": "vaultRelayer",
          "type": "address"
        }
      ],
      "name": "VaultRelayerApproved",
      "type": "event"
    },
    {
      "inputs": [],
      "name": "DEFAULT_CHUNK_WINDOW",
      "outputs": [
        {
          "internalType": "uint256",
          "name": "",
          "type": "uint256"
        }
      ],
      "stateMutability": "view",
      "type": "function"
    },
    {
      "inputs": [],
      "name": "MAX_CHUNK_WINDOW",
      "outputs": [
        {
          "internalType": "uint256",
          "name": "",
          "type": "uint256"
        }
      ],
      "stateMutability": "view",
      "type": "function"
    },
    {
      "inputs": [],
      "name": "MAX_ORDERS_PER_USER",
      "outputs": [
        {
          "internalType": "uint256",
          "name": "",
          "type": "uint256"
        }
      ],
      "stateMutability": "view",
      "type": "function"
    },
    {
      "inputs": [],
      "name": "MIN_CHUNK_WINDOW",
      "outputs": [
        {
          "internalType": "uint256",
          "name": "",
          "type": "uint256"
        }
      ],
      "stateMutability": "view",
      "type": "function"
    },
    {
      "inputs": [
        {
          "internalType": "address",
          "name": "token",
          "type": "address"
        }
      ],
      "name": "approveVaultRelayer",
      "outputs": [],
      "stateMutability": "nonpayable",
      "type": "function"
    },
    {
      "inputs": [
        {
          "internalType": "bytes32",
          "name": "orderHash",
          "type": "bytes32"
        }
      ],
      "name": "cancelOrder",
      "outputs": [],
      "stateMutability": "nonpayable",
      "type": "function"
    },
    {
      "inputs": [],
      "name": "chunkWindow",
      "outputs": [
        {
          "internalType": "uint256",
          "name": "",
          "type": "uint256"
        }
      ],
      "stateMutability": "view",
      "type": "function"
    },
    {
      "inputs": [],
      "name": "composableCoW",
      "outputs": [
        {
          "internalType": "contract IComposableCoW",
          "name": "",
          "type": "address"
        }
      ],
      "stateMutability": "view",
      "type": "function"
    },
    {
      "inputs": [
        {
          "components": [
            {
              "internalType": "address",
              "name": "user",
              "type": "address"
            },
            {
              "internalType": "address",
              "name": "trigger",
              "type": "address"
            },
            {
              "internalType": "bytes",
              "name": "triggerStaticData",
              "type": "bytes"
            },
            {
              "internalType": "bytes",
              "name": "preInstructions",
              "type": "bytes"
            },
            {
              "internalType": "address",
              "name": "sellToken",
              "type": "address"
            },
            {
              "internalType": "address",
              "name": "buyToken",
              "type": "address"
            },
            {
              "internalType": "bytes",
              "name": "postInstructions",
              "type": "bytes"
            },
            {
              "internalType": "bytes32",
              "name": "appDataHash",
              "type": "bytes32"
            },
            {
              "internalType": "uint256",
              "name": "maxIterations",
              "type": "uint256"
            },
            {
              "internalType": "address",
              "name": "sellTokenRefundAddress",
              "type": "address"
            },
            {
              "internalType": "bool",
              "name": "isKindBuy",
              "type": "bool"
            }
          ],
          "internalType": "struct KapanConditionalOrderManager.KapanOrderParams",
          "name": "params",
          "type": "tuple"
        },
        {
          "internalType": "bytes32",
          "name": "salt",
          "type": "bytes32"
        }
      ],
      "name": "createOrder",
      "outputs": [
        {
          "internalType": "bytes32",
          "name": "orderHash",
          "type": "bytes32"
        }
      ],
      "stateMutability": "nonpayable",
      "type": "function"
    },
    {
      "inputs": [
        {
          "internalType": "bytes32",
          "name": "orderHash",
          "type": "bytes32"
        }
      ],
      "name": "executePostHook",
      "outputs": [],
      "stateMutability": "nonpayable",
      "type": "function"
    },
    {
      "inputs": [
        {
          "internalType": "address",
          "name": "user",
          "type": "address"
        },
        {
          "internalType": "bytes32",
          "name": "salt",
          "type": "bytes32"
        }
      ],
      "name": "executePostHookBySalt",
      "outputs": [],
      "stateMutability": "nonpayable",
      "type": "function"
    },
    {
      "inputs": [
        {
          "internalType": "bytes32",
          "name": "orderHash",
          "type": "bytes32"
        }
      ],
      "name": "executePreHook",
      "outputs": [],
      "stateMutability": "nonpayable",
      "type": "function"
    },
    {
      "inputs": [
        {
          "internalType": "address",
          "name": "user",
          "type": "address"
        },
        {
          "internalType": "bytes32",
          "name": "salt",
          "type": "bytes32"
        }
      ],
      "name": "executePreHookBySalt",
      "outputs": [],
      "stateMutability": "nonpayable",
      "type": "function"
    },
    {
      "inputs": [
        {
          "internalType": "bytes32",
          "name": "orderHash",
          "type": "bytes32"
        }
      ],
      "name": "getExecutionAmounts",
      "outputs": [
        {
          "internalType": "uint256",
          "name": "sellAmount",
          "type": "uint256"
        },
        {
          "internalType": "uint256",
          "name": "minBuyAmount",
          "type": "uint256"
        }
      ],
      "stateMutability": "view",
      "type": "function"
    },
    {
      "inputs": [
        {
          "internalType": "bytes32",
          "name": "orderHash",
          "type": "bytes32"
        }
      ],
      "name": "getOrder",
      "outputs": [
        {
          "components": [
            {
              "components": [
                {
                  "internalType": "address",
                  "name": "user",
                  "type": "address"
                },
                {
                  "internalType": "address",
                  "name": "trigger",
                  "type": "address"
                },
                {
                  "internalType": "bytes",
                  "name": "triggerStaticData",
                  "type": "bytes"
                },
                {
                  "internalType": "bytes",
                  "name": "preInstructions",
                  "type": "bytes"
                },
                {
                  "internalType": "address",
                  "name": "sellToken",
                  "type": "address"
                },
                {
                  "internalType": "address",
                  "name": "buyToken",
                  "type": "address"
                },
                {
                  "internalType": "bytes",
                  "name": "postInstructions",
                  "type": "bytes"
                },
                {
                  "internalType": "bytes32",
                  "name": "appDataHash",
                  "type": "bytes32"
                },
                {
                  "internalType": "uint256",
                  "name": "maxIterations",
                  "type": "uint256"
                },
                {
                  "internalType": "address",
                  "name": "sellTokenRefundAddress",
                  "type": "address"
                },
                {
                  "internalType": "bool",
                  "name": "isKindBuy",
                  "type": "bool"
                }
              ],
              "internalType": "struct KapanConditionalOrderManager.KapanOrderParams",
              "name": "params",
              "type": "tuple"
            },
            {
              "internalType": "enum KapanConditionalOrderManager.OrderStatus",
              "name": "status",
              "type": "uint8"
            },
            {
              "internalType": "uint256",
              "name": "iterationCount",
              "type": "uint256"
            },
            {
              "internalType": "uint256",
              "name": "createdAt",
              "type": "uint256"
            }
          ],
          "internalType": "struct KapanConditionalOrderManager.OrderContext",
          "name": "",
          "type": "tuple"
        }
      ],
      "stateMutability": "view",
      "type": "function"
    },
    {
      "inputs": [
        {
          "internalType": "address",
          "name": "user",
          "type": "address"
        }
      ],
      "name": "getUserOrders",
      "outputs": [
        {
          "internalType": "bytes32[]",
          "name": "",
          "type": "bytes32[]"
        }
      ],
      "stateMutability": "view",
      "type": "function"
    },
    {
      "inputs": [],
      "name": "hooksTrampoline",
      "outputs": [
        {
          "internalType": "address",
          "name": "",
          "type": "address"
        }
      ],
      "stateMutability": "view",
      "type": "function"
    },
    {
      "inputs": [
        {
          "internalType": "bytes32",
          "name": "orderHash",
          "type": "bytes32"
        }
      ],
      "name": "isTriggerMet",
      "outputs": [
        {
          "internalType": "bool",
          "name": "shouldExecute",
          "type": "bool"
        },
        {
          "internalType": "string",
          "name": "reason",
          "type": "string"
        }
      ],
      "stateMutability": "view",
      "type": "function"
    },
    {
      "inputs": [
        {
          "internalType": "bytes32",
          "name": "_hash",
          "type": "bytes32"
        },
        {
          "internalType": "bytes",
          "name": "_signature",
          "type": "bytes"
        }
      ],
      "name": "isValidSignature",
      "outputs": [
        {
          "internalType": "bytes4",
          "name": "",
          "type": "bytes4"
        }
      ],
      "stateMutability": "view",
      "type": "function"
    },
    {
      "inputs": [],
      "name": "orderHandler",
      "outputs": [
        {
          "internalType": "address",
          "name": "",
          "type": "address"
        }
      ],
      "stateMutability": "view",
      "type": "function"
    },
    {
      "inputs": [
        {
          "internalType": "bytes32",
          "name": "",
          "type": "bytes32"
        }
      ],
      "name": "orderSalts",
      "outputs": [
        {
          "internalType": "bytes32",
          "name": "",
          "type": "bytes32"
        }
      ],
      "stateMutability": "view",
      "type": "function"
    },
    {
      "inputs": [
        {
          "internalType": "bytes32",
          "name": "",
          "type": "bytes32"
        }
      ],
      "name": "orders",
      "outputs": [
        {
          "components": [
            {
              "internalType": "address",
              "name": "user",
              "type": "address"
            },
            {
              "internalType": "address",
              "name": "trigger",
              "type": "address"
            },
            {
              "internalType": "bytes",
              "name": "triggerStaticData",
              "type": "bytes"
            },
            {
              "internalType": "bytes",
              "name": "preInstructions",
              "type": "bytes"
            },
            {
              "internalType": "address",
              "name": "sellToken",
              "type": "address"
            },
            {
              "internalType": "address",
              "name": "buyToken",
              "type": "address"
            },
            {
              "internalType": "bytes",
              "name": "postInstructions",
              "type": "bytes"
            },
            {
              "internalType": "bytes32",
              "name": "appDataHash",
              "type": "bytes32"
            },
            {
              "internalType": "uint256",
              "name": "maxIterations",
              "type": "uint256"
            },
            {
              "internalType": "address",
              "name": "sellTokenRefundAddress",
              "type": "address"
            },
            {
              "internalType": "bool",
              "name": "isKindBuy",
              "type": "bool"
            }
          ],
          "internalType": "struct KapanConditionalOrderManager.KapanOrderParams",
          "name": "params",
          "type": "tuple"
        },
        {
          "internalType": "enum KapanConditionalOrderManager.OrderStatus",
          "name": "status",
          "type": "uint8"
        },
        {
          "internalType": "uint256",
          "name": "iterationCount",
          "type": "uint256"
        },
        {
          "internalType": "uint256",
          "name": "createdAt",
          "type": "uint256"
        }
      ],
      "stateMutability": "view",
      "type": "function"
    },
    {
      "inputs": [],
      "name": "owner",
      "outputs": [
        {
          "internalType": "address",
          "name": "",
          "type": "address"
        }
      ],
      "stateMutability": "view",
      "type": "function"
    },
    {
      "inputs": [
        {
          "internalType": "bytes32",
          "name": "",
          "type": "bytes32"
        }
      ],
      "name": "preHookBuyBalance",
      "outputs": [
        {
          "internalType": "uint256",
          "name": "",
          "type": "uint256"
        }
      ],
      "stateMutability": "view",
      "type": "function"
    },
    {
      "inputs": [
        {
          "internalType": "bytes32",
          "name": "",
          "type": "bytes32"
        }
      ],
      "name": "preHookExecutedForIteration",
      "outputs": [
        {
          "internalType": "uint256",
          "name": "",
          "type": "uint256"
        }
      ],
      "stateMutability": "view",
      "type": "function"
    },
    {
      "inputs": [
        {
          "internalType": "bytes32",
          "name": "",
          "type": "bytes32"
        }
      ],
      "name": "preHookSellBalance",
      "outputs": [
        {
          "internalType": "uint256",
          "name": "",
          "type": "uint256"
        }
      ],
      "stateMutability": "view",
      "type": "function"
    },
    {
      "inputs": [
        {
          "internalType": "address",
          "name": "token",
          "type": "address"
        },
        {
          "internalType": "address",
          "name": "to",
          "type": "address"
        },
        {
          "internalType": "uint256",
          "name": "amount",
          "type": "uint256"
        }
      ],
      "name": "recoverTokens",
      "outputs": [],
      "stateMutability": "nonpayable",
      "type": "function"
    },
    {
      "inputs": [],
      "name": "renounceOwnership",
      "outputs": [],
      "stateMutability": "nonpayable",
      "type": "function"
    },
    {
      "inputs": [
        {
          "internalType": "bytes32",
          "name": "orderHash",
          "type": "bytes32"
        }
      ],
      "name": "resetStuckOrder",
      "outputs": [],
      "stateMutability": "nonpayable",
      "type": "function"
    },
    {
      "inputs": [],
      "name": "router",
      "outputs": [
        {
          "internalType": "contract IKapanRouter",
          "name": "",
          "type": "address"
        }
      ],
      "stateMutability": "view",
      "type": "function"
    },
    {
      "inputs": [
        {
          "internalType": "uint256",
          "name": "_chunkWindow",
          "type": "uint256"
        }
      ],
      "name": "setChunkWindow",
      "outputs": [],
      "stateMutability": "nonpayable",
      "type": "function"
    },
    {
      "inputs": [
        {
          "internalType": "address",
          "name": "_orderHandler",
          "type": "address"
        }
      ],
      "name": "setOrderHandler",
      "outputs": [],
      "stateMutability": "nonpayable",
      "type": "function"
    },
    {
      "inputs": [],
      "name": "settlement",
      "outputs": [
        {
          "internalType": "contract IGPv2Settlement",
          "name": "",
          "type": "address"
        }
      ],
      "stateMutability": "view",
      "type": "function"
    },
    {
      "inputs": [
        {
          "internalType": "address",
          "name": "newOwner",
          "type": "address"
        }
      ],
      "name": "transferOwnership",
      "outputs": [],
      "stateMutability": "nonpayable",
      "type": "function"
    },
    {
      "inputs": [
        {
          "internalType": "address",
          "name": "",
          "type": "address"
        },
        {
          "internalType": "uint256",
          "name": "",
          "type": "uint256"
        }
      ],
      "name": "userOrders",
      "outputs": [
        {
          "internalType": "bytes32",
          "name": "",
          "type": "bytes32"
        }
      ],
      "stateMutability": "view",
      "type": "function"
    },
    {
      "inputs": [
        {
          "internalType": "address",
          "name": "",
          "type": "address"
        },
        {
          "internalType": "bytes32",
          "name": "",
          "type": "bytes32"
        }
      ],
      "name": "userSaltToOrderHash",
      "outputs": [
        {
          "internalType": "bytes32",
          "name": "",
          "type": "bytes32"
        }
      ],
      "stateMutability": "view",
      "type": "function"
    }
  ],
  "transactionHash": "0xb6f33dc54a7b7d900a76370678d7e961810dfd2ded43673cd20fa1f405e03f3d",
  "args": [
    "0x0BE61223F99E57b8b8B7033a77B54Adc7f7cF027",
    "0xadad575d251395Ecd37Ff87a0b8e3d810683493a",
    "0xfdaFc9d1902f4e0b84f65F49f244b32b31013b74",
    "0x9008D19f58AAbD9eD0D60971565AA8510560ab41",
    "0x60Bf78233f48eC42eE3F101b9a05eC7878728006"
  ],
  "numDeployments": 25,
  "solcInputHash": "3c4f81b738133bf1e43dd2ecb35b1029",
  "bytecode": "0x610100346101ce57601f613cfb38819003918201601f19168301916001600160401b038311848410176101d25780849260a0946040528339810103126101ce57610048816101e6565b610054602083016101e6565b91610061604082016101e6565b9061007a6080610073606084016101e6565b92016101e6565b6001600160a01b039093169384156101bb575f80546001600160a01b031981168717825560405196916001600160a01b03909116907f8be0079c531659141344cd1fd0a4f28419497f9722a3daafe3b4186f6b6457e09080a3600180556107086002556001600160a01b03169182156101ac576001600160a01b03169081156101ac576001600160a01b03169182156101ac576001600160a01b038416156101ac5760805260a05260c05260e052613b0090816101fb82396080518181816101bf01528181612c5201526132c0015260a051818181610d610152818161130e015281816114f901526124c7015260c0518181816104fe01528181610df601528181611a680152612310015260e0518181816102e30152818161047f015281816113aa015281816113fd0152611ae40152f35b63d92e233d60e01b5f5260045ffd5b631e4fbdf760e01b5f525f60045260245ffd5b5f80fd5b634e487b7160e01b5f52604160045260245ffd5b51906001600160a01b03821682036101ce5756fe6080806040526004361015610012575f80fd5b5f905f3560e01c908163031d974214611bc8575080631626ba7e14611b565780632fbff5a414611ac1578063507f0e7414611a975780635116063014611a5357806351fe1db514611a295780635485b15814611a0e57806355024ca714611953578063568ed812146119375780635778472a146118245780635e10bce4146117fa5780635f3e849f1461176357806363c69f08146116dd578063715018a6146116995780637489ec231461147a5780638009fb6a146113d957806381e6d3ce14611394578063856652e91461133d5780638b0f4834146112f85780638da5cb5b146112d15780638f7afbe6146106d55780639c3f1e9014610664578063a4362152146105e4578063b5848305146105bb578063c73bb4bd146104b8578063caf2185614610463578063cea4b43614610420578063d22b0586146103f6578063d7a3aca714610372578063de7cdda414610332578063e0b787e4146102c7578063ea6971861461029d578063eae2b0ab14610281578063ed75efd814610264578063f2fde38b146101f15763f887ea40146101aa575f80fd5b346101ee57806003193601126101ee576040517f00000000000000000000000000000000000000000000000000000000000000006001600160a01b03168152602090f35b80fd5b50346101ee5760203660031901126101ee5761020b611be2565b6102136130db565b6001600160a01b031680156102505781546001600160a01b03198116821783556001600160a01b03165f516020613aab5f395f51905f528380a380f35b631e4fbdf760e01b82526004829052602482fd5b50346101ee57806003193601126101ee576020604051610e108152f35b50346101ee57806003193601126101ee57602060405160418152f35b50346101ee5760203660031901126101ee5760406020916004358152600a83522054604051908152f35b50346101ee5760203660031901126101ee576102e1612a1a565b7f00000000000000000000000000000000000000000000000000000000000000006001600160a01b031633036103235761031c600435613143565b6001805580f35b631cb3967f60e21b8152600490fd5b50346101ee5760203660031901126101ee5761034f600435612919565b9061036e60405192839215158352604060208401526040830190611c0c565b0390f35b50346101ee5760203660031901126101ee5761038c611be2565b6103946130db565b6001600160a01b031680156103e757600380546001600160a01b0319811683179091556001600160a01b03167f7bf6e789688cd776b5170517f39970fea2870a79d649c8443dd2b0ec62823eb78380a380f35b63d92e233d60e01b8252600482fd5b50346101ee5760203660031901126101ee5760406020916004358152600883522054604051908152f35b50346101ee5760403660031901126101ee576020906040906001600160a01b03610448611be2565b16815260078352818120602435825283522054604051908152f35b50346101ee5760203660031901126101ee5761047d612a1a565b7f00000000000000000000000000000000000000000000000000000000000000006001600160a01b031633036103235761031c600435612b06565b50346101ee5760203660031901126101ee576104d2611be2565b6104da6130db565b6001600160a01b031680156103e757604051634daa966160e11b81526020816004817f00000000000000000000000000000000000000000000000000000000000000006001600160a01b03165afa9081156105b0578391610572575b506105418183613793565b6001600160a01b0316907f1ed99bd68e15d0355032c83534ad49f29b5eeba77f51b957e6ee3c09f561a7b88380a380f35b90506020813d6020116105a8575b8161058d60209383611eaf565b810103126105a45761059e9061203f565b5f610536565b8280fd5b3d9150610580565b6040513d85823e3d90fd5b50346101ee57806003193601126101ee576003546040516001600160a01b039091168152602090f35b50346101ee5760203660031901126101ee576004356106016130db565b604181108015610659575b61064a5760407fd41ae331cdd0716e9a1370baa1403c14b9dca36a1be170877840f86efb15846f91600254908060025582519182526020820152a180f35b630e1ccb6f60e31b8252600482fd5b50610e10811161060c565b50346101ee5760203660031901126101ee5760406106bc91600435815260046020522061069081611ed2565b9060ff600a8201541690600c600b820154910154906106c7604051958695608087526080870190611c30565b936020860190611cf0565b604084015260608301520390f35b50346101ee5760403660031901126101ee576004356001600160401b0381116112cd57806004019161016060031983360301126101ee57602435610717612a1a565b61072084612881565b336001600160a01b03909116036112bf5760248301906001600160a01b0361074783612881565b16156112b05760848401926001600160a01b0361076385612881565b16158015611294575b6112855761077984612881565b60a4860192906001600160a01b0361079085612881565b6001600160a01b0390921691161461127657338252600760205260408220818352602052604082205461126757338252600660205260646040832054101561125857606486016107e08189612895565b33916107ed913691611feb565b906107f7916135bb565b60c4870190610806828a612895565b3391610813913691611feb565b9061081d916135bb565b60405160606020820190815290916001600160a01b0361083c8c611bf8565b1660808401526001600160a01b0361085389611bf8565b1660a084015260448a0199818c61086a8d826128c7565b60c0880161016090526101e0880190610882926128f9565b9161088c916128c7565b868303607f190160e08801526108a292916128f9565b6001600160a01b036108b38c611bf8565b166101008601528c866001600160a01b036108cd8c611bf8565b166101208801526108dd916128c7565b868303607f19016101408801526108f492916128f9565b9460e482013592836101608701526101048301359485610180880152610124840196600160a01b6001900361092889611bf8565b166101a08201528061014486019961093f8b611fac565b15156101c08301528b604083015242606083015203601f19810182526109659082611eaf565b5190209c8d8a52600460205260408a20600a015460ff1660048110156112445761123557918b979593918f9795936109bf6040519a6109a38c611e12565b6109b86040519b6109b38d611e41565b611bf8565b8b52611bf8565b60208a0152356001600160401b038111611231576109e39060043691860101612021565b6040890152356001600160401b03811161122d57610a079060043691850101612021565b6060880152610a158d611bf8565b6080880152610a238b611bf8565b60a0880152356001600160401b0381116112295791610a51610a6694926004610a7198979536920101612021565b60c088015260e0870152610100860152611bf8565b610120840152611fac565b610140820152815260016020808301828152604080850187815242606087019081528c8952600485528289209651805188546001600160a01b03199081166001600160a01b03928316178a559682015197890180549097169716969096179094559084015180519394919360028701916001600160401b03821161109b578190610afb8454611d59565b601f81116111d9575b50602090601f8311600114611177578b9261116c575b50508160011b915f199060031b1c19161790555b6060810151805160038701916001600160401b03821161109b578190610b548454611d59565b601f811161111c575b50602090601f83116001146110ba578b926110af575b50508160011b915f199060031b1c19161790555b60808101516004860180546001600160a01b039283166001600160a01b03199182161790915560a083015160058801805491909316911617905560c0810151805160068701916001600160401b03821161109b578190610be78454611d59565b601f811161104b575b50602090601f8311600114610fe9578b92610fde575b50508160011b915f199060031b1c19161790555b60e0810151600786015561010081015160088601556101208101516009860180546101409093015160ff60a01b90151560a01b166001600160a01b039092166001600160a81b03199093169290921717905551600a8401906004811015610fca57815460ff191660ff9190911617905551600b83015551600c909101558582526005602052604082208190556001600160a01b03610cb788612881565b168252600660205260408220805490600160401b821015610fb65790610ce291600182018155611d30565b81545f1960039290921b91821b19169088901b1790556001600160a01b03610d0988612881565b16825260076020526040822081835260205285604083205560018060a01b0360035416906040519087602083015260208252610d46604083611eaf565b60405192610d5384611e5d565b8352602083015260408201527f00000000000000000000000000000000000000000000000000000000000000006001600160a01b031690813b156105a457610dbc839283926040519485809481936335fd70e560e11b83526040600484015260448301906120a4565b6001602483015203925af18015610fab57908291610f96575b5050610de084612881565b604051634daa966160e11b8152906020826004817f00000000000000000000000000000000000000000000000000000000000000006001600160a01b03165afa9182156105b0578392610f5a575b50604051636eb1769f60e11b81523060048201526001600160a01b038381166024830152919091169290602081604481875afa918215610f4e5791610f0c575b5092610ecd610ec7610ec1610ebb60209b6060978c9a977f0d7b86882845c929e022510097af482fe9d559b56b818bb2c8630eff4d3ed9539a60018060ff1b0311610efc575b5050612881565b94612881565b97612881565b91612881565b604080516001600160a01b0398891681529288168a84015290871690820152941693a360018055604051908152f35b610f0591613793565b5f80610eb4565b9294919390506020833d602011610f46575b81610f2b60209383611eaf565b81010312610f425791519093919290610ecd610e6e565b5f80fd5b3d9150610f1e565b604051903d90823e3d90fd5b9091506020813d602011610f8e575b81610f7660209383611eaf565b810103126105a457610f879061203f565b905f610e2e565b3d9150610f69565b81610fa091611eaf565b6101ee57805f610dd5565b6040513d84823e3d90fd5b634e487b7160e01b84526041600452602484fd5b634e487b7160e01b87526021600452602487fd5b015190505f80610c06565b848c52818c209250601f1984168c5b818110611033575090846001959493921061101b575b505050811b019055610c1a565b01515f1960f88460031b161c191690555f808061100e565b92936020600181928786015181550195019301610ff8565b909150838b5260208b20601f840160051c81019160208510611091575b90601f859493920160051c01905b8181106110835750610bf0565b8c8155849350600101611076565b9091508190611068565b634e487b7160e01b8a52604160045260248afd5b015190505f80610b73565b848c52818c209250601f1984168c5b81811061110457509084600195949392106110ec575b505050811b019055610b87565b01515f1960f88460031b161c191690555f80806110df565b929360206001819287860151815501950193016110c9565b909150838b5260208b20601f840160051c81019160208510611162575b90601f859493920160051c01905b8181106111545750610b5d565b8c8155849350600101611147565b9091508190611139565b015190505f80610b1a565b848c52818c209250601f1984168c5b8181106111c157509084600195949392106111a9575b505050811b019055610b2e565b01515f1960f88460031b161c191690555f808061119c565b92936020600181928786015181550195019301611186565b909150838b5260208b20601f840160051c8101916020851061121f575b90601f859493920160051c01905b8181106112115750610b04565b8c8155849350600101611204565b90915081906111f6565b8980fd5b8a80fd5b8b80fd5b63966753c560e01b8a5260048afd5b634e487b7160e01b8b52602160045260248bfd5b6352f9988b60e01b8252600482fd5b630ced304360e01b8252600482fd5b6333910aef60e11b8252600482fd5b63d92e233d60e01b8152600490fd5b506001600160a01b036112a960a48701612881565b161561076c565b63a768d7fd60e01b8352600483fd5b6282b42960e81b8252600482fd5b5080fd5b50346101ee57806003193601126101ee57546040516001600160a01b039091168152602090f35b50346101ee57806003193601126101ee576040517f00000000000000000000000000000000000000000000000000000000000000006001600160a01b03168152602090f35b50346101ee5760403660031901126101ee57611357611be2565b6001600160a01b03168152600660205260408120805460243592908310156101ee5760206113858484611d30565b90549060031b1c604051908152f35b50346101ee57806003193601126101ee576040517f00000000000000000000000000000000000000000000000000000000000000006001600160a01b03168152602090f35b50346101ee5760403660031901126101ee576113f3611be2565b6113fb612a1a565b7f00000000000000000000000000000000000000000000000000000000000000006001600160a01b0316330361146b576001600160a01b031681526007602090815260408083206024358452909152812054801561145c5761031c90613143565b63d36d896560e01b8252600482fd5b631cb3967f60e21b8252600482fd5b5034610f42576020366003190112610f4257600435611497612a1a565b805f52600460205260405f20600a81019060ff82541690600482101561168557811561167657546001600160a01b03163303611668575f190161165957815f52600860205260405f205461164a57600360ff1982541617905560018060a01b037f000000000000000000000000000000000000000000000000000000000000000016611585602060018060a01b0360035416845f526005825260405f205460405190868483015283825261154c604083611eaf565b6040519261155984611e5d565b835283830152604082015260405180938192635500079d60e01b835284600484015260248301906120a4565b0381855afa90811561160d575f91611618575b50813b15610f42575f916024839260405194859384926395bc267360e01b845260048401525af1801561160d576115f8575b5033907f0e00387e025961780b7f127ffab3dfa3118f4d9047a3508c3ae9a0285245a15e8380a36001805580f35b6116059192505f90611eaf565b5f905f6115ca565b6040513d5f823e3d90fd5b90506020813d602011611642575b8161163360209383611eaf565b81010312610f4257515f611598565b3d9150611626565b6313e916e560e01b5f5260045ffd5b632b12537f60e21b5f5260045ffd5b6282b42960e81b5f5260045ffd5b63d36d896560e01b5f5260045ffd5b634e487b7160e01b5f52602160045260245ffd5b34610f42575f366003190112610f42576116b16130db565b5f80546001600160a01b0319811682556001600160a01b03165f516020613aab5f395f51905f528280a3005b34610f42576020366003190112610f42576001600160a01b036116fe611be2565b165f52600660205260405f206040519081602082549182815201915f5260205f20905f5b81811061174d5761036e8561173981870382611eaf565b604051918291602083526020830190611cfd565b8254845260209093019260019283019201611722565b34610f42576060366003190112610f425761177c611be2565b6024356001600160a01b03811691828203610f42576044359061179d6130db565b6001600160a01b03169182156117eb5783156117eb57816117e27f401f439d865a766757ec78675925bd67198d5e78805aa41691b34b5d6a6cbbe69360209386613101565b604051908152a3005b63d92e233d60e01b5f5260045ffd5b34610f42576020366003190112610f425760406118186004356127b8565b82519182526020820152f35b34610f42576020366003190112610f42575f606060405161184481611e12565b60405161185081611e41565b83815283602082015282604082015282808201528360808201528360a08201528260c08201528360e0820152836101008201528361012082015283610140820152815282602082015282604082015201526004355f52600460205260405f206040516118bb81611e12565b6118c482611ed2565b815260ff600a8301541691602082019060048410156116855761191b938252600c600b82015491604085019283520154906060840191825261192760405195869560208752516080602088015260a0870190611c30565b93516040860190611cf0565b5160608401525160808301520390f35b34610f42575f366003190112610f425760206040516107088152f35b34610f42576020366003190112610f425760043561196f6130db565b805f52600460205260405f2060ff600a8201541660048110156116855760010361165957815f52600860205260405f2054156119ff575f82815260086020908152604080832083905560098252808320839055600a909152812081905590546001600160a01b031691907fe2210120d48fe93da6dc8d1873a097516ebbbe5e3f47c5afb525bb2263f1e6e09080a3005b631feb8b7960e21b5f5260045ffd5b34610f42575f366003190112610f4257602060405160648152f35b34610f42576020366003190112610f42576004355f526009602052602060405f2054604051908152f35b34610f42575f366003190112610f42576040517f00000000000000000000000000000000000000000000000000000000000000006001600160a01b03168152602090f35b34610f42576020366003190112610f42576004355f526005602052602060405f2054604051908152f35b34610f42576040366003190112610f4257611ada611be2565b611ae2612a1a565b7f00000000000000000000000000000000000000000000000000000000000000006001600160a01b03163303611b475760018060a01b03165f52600760205260405f206024355f5260205260405f2054801561167657611b4190612b06565b60018055005b631cb3967f60e21b5f5260045ffd5b34610f42576040366003190112610f42576024356001600160401b038111610f425736602382011215610f42576004810135906001600160401b038211610f42573660248383010111610f42576020916024611bb592016004356120d3565b6040516001600160e01b03199091168152f35b34610f42575f366003190112610f42576020906002548152f35b600435906001600160a01b0382168203610f4257565b35906001600160a01b0382168203610f4257565b805180835260209291819084018484015e5f828201840152601f01601f1916010190565b9060018060a01b03825116815260018060a01b03602083015116602082015261014080611cbc611c86611c7460408701516101606040880152610160870190611c0c565b60608701518682036060880152611c0c565b60018060a01b03608087015116608086015260018060a01b0360a08701511660a086015260c086015185820360c0870152611c0c565b60e080860151908501526101008086015190850152610120808601516001600160a01b031690850152930151151591015290565b9060048210156116855752565b90602080835192838152019201905f5b818110611d1a5750505090565b8251845260209384019390920191600101611d0d565b8054821015611d45575f5260205f2001905f90565b634e487b7160e01b5f52603260045260245ffd5b90600182811c92168015611d87575b6020831014611d7357565b634e487b7160e01b5f52602260045260245ffd5b91607f1691611d68565b5f9291815491611da083611d59565b8083529260018116908115611df55750600114611dbc57505050565b5f9081526020812093945091925b838310611ddb575060209250010190565b600181602092949394548385870101520191019190611dca565b915050602093945060ff929192191683830152151560051b010190565b608081019081106001600160401b03821117611e2d57604052565b634e487b7160e01b5f52604160045260245ffd5b61016081019081106001600160401b03821117611e2d57604052565b606081019081106001600160401b03821117611e2d57604052565b61018081019081106001600160401b03821117611e2d57604052565b604081019081106001600160401b03821117611e2d57604052565b601f909101601f19168101906001600160401b03821190821017611e2d57604052565b90604051611edf81611e41565b82546001600160a01b0390811682526001840154166020820152604051909283916101409160ff9160099190611f2381611f1c8160028601611d91565b0382611eaf565b6040860152604051611f3c81611f1c8160038601611d91565b606086015260048101546001600160a01b03908116608087015260058201541660a0860152604051611f7581611f1c8160068601611d91565b60c0860152600781015460e0860152600881015461010086015201546001600160a01b03811661012085015260a01c161515910152565b35908115158203610f4257565b6001600160401b038111611e2d5760051b60200190565b6001600160401b038111611e2d57601f01601f191660200190565b929192611ff782611fd0565b916120056040519384611eaf565b829481845281830111610f42578281602093845f960137010152565b9080601f83011215610f425781602061203c93359101611feb565b90565b51906001600160a01b0382168203610f4257565b51908115158203610f4257565b81601f82011215610f425760208151910161207a82611fd0565b926120886040519485611eaf565b82845282820111610f4257815f926020928386015e8301015290565b906060604061203c9360018060a01b038151168452602081015160208501520151918160408201520190611c0c565b81838101036101a08112610f425761018013610f4257604051926120f684611e78565b6120ff83611bf8565b845261210d60208401611bf8565b602085015261211e60408401611bf8565b6040850152606083013560608501526080830135608085015260a083013563ffffffff81168103610f425760a085015260c083013560c085015260e083013560e085015261010083013561010085015261217b6101208401611fac565b61012085015261014083810135908501526101608084013590850152610180830135926001600160401b038411610f425760608482018383010312610f4257604051936121c785611e5d565b818101356001600160401b038111610f4257838301601f8284860101011215610f42578082840101356121f981611fb9565b916122076040519384611eaf565b818352602083019086860160208460051b83888a0101010111610f4257906020828688010101915b60208460051b82888a01010101831061278e5750505090865250818101602001356001600160401b038111610f4257606081838501018585010312610f42576040519061227b82611e5d565b8383018101356001600160a01b0381168103610f4257825283830181016020818101359084015260400135906001600160401b038211610f42576122c791868601918587010101612021565b60408201526020860152604081830101359060018060401b038211610f42576122f4938301920101612021565b6040838101919091525163f698da2560e01b81526020816004817f00000000000000000000000000000000000000000000000000000000000000006001600160a01b03165afa90811561160d575f9161275c575b507fd5a25ba2e97094ad7d83dc28a6572da797d6b3e7fc6663bd93efb789fc17e48960018060a01b0385511660018060a01b036020870151168660018060a01b036040820151166060820151608083015163ffffffff60a08501511660c08501519060e086015192610100870151946101208801511515966101606101408a0151990151996040519b60208d019d8e5260408d015260608c015260808b015260a08a015260c089015260e08801526101008701526101208601526101408501526101608401526101808301526101a08201526101a0815261242b6101c082611eaf565b51902060405190602082019261190160f01b84526022830152604282015260428152612458606282611eaf565b51902003612756575f61249f60208301516124c3604085015194516124b1604051968795869563137050cb60e11b87523060048801526080602488015260848701906120a4565b85810360031901604487015290611c0c565b83810360031901606485015290611cfd565b03817f00000000000000000000000000000000000000000000000000000000000000006001600160a01b03165afa5f9181612659575b506125045750505f90565b815181516001600160a01b03908116911614918261263a575b8261261b575b82612600575b826125e5575b826125d2575b826125bf575b826125aa575b82612591575b8261257c575b82612568575b505061255d575f90565b630b135d3f60e11b90565b610160919250810151910151145f80612553565b9150610140820151610140820151149161254d565b9150610120820151151561012082015115151491612547565b91506101008201516101008201511491612541565b915060e082015160e0820151149161253b565b915060c082015160c08201511491612535565b91506125fa608083015160808301519061387e565b9161252f565b9150612615606083015160608301519061387e565b91612529565b604080820151908301516001600160a01b039081169116149250612523565b602080820151908301516001600160a01b03908116911614925061251d565b9091503d805f833e61266b8183611eaf565b8101908082036101a08112610f425761018013610f42576040519161268f83611e78565b6126988261203f565b83526126a66020830161203f565b60208401526126b76040830161203f565b6040840152606082015160608401526080820151608084015260a082015163ffffffff81168103610f425760a084015260c082015160c084015260e082015160e08401526101008201516101008401526127146101208301612053565b610120840152610140828101519084015261016080830151908401526101808201516001600160401b038111610f425761274e9201612060565b50905f6124f9565b50505f90565b90506020813d602011612786575b8161277760209383611eaf565b81010312610f4257515f612348565b3d915061276a565b60208080938535815201930192915061222f565b9190826040910312610f42576020825192015190565b5f52600460205260405f209060ff600a8301541660048110156116855760010361287a5760018201548254600b840154604080516368c4be2560e01b81526060600482015295909386936001600160a01b03918216938593849390921691612827906064850190600201611d91565b916024840152604483015203915afa91821561160d575f905f9361284a57509190565b905061286f91925060403d604011612873575b6128678183611eaf565b8101906127a2565b9091565b503d61285d565b5f91508190565b356001600160a01b0381168103610f425790565b903590601e1981360301821215610f4257018035906001600160401b038211610f4257602001918136038313610f4257565b9035601e1982360301811215610f42570160208101919035906001600160401b038211610f42578136038313610f4257565b908060209392818452848401375f828201840152601f01601f1916010190565b5f52600460205260405f209060ff600a830154166004811015611685576001036129e857600182015482546040805163632224a760e01b81526004810191909152935f9285926001600160a01b0391821692849283921690612982906044840190600201611d91565b90602483015203915afa91821561160d575f905f936129a057509190565b9250503d805f843e6129b28184611eaf565b820191604081840312610f42576129c881612053565b60208201519093906001600160401b038111610f425761203c9201612060565b90505f906040516129fa604082611eaf565b601081526f6f726465725f6e6f745f61637469766560801b602082015290565b600260015414612a2b576002600155565b633ee5aeb560e01b5f5260045ffd5b91908203918211612a4757565b634e487b7160e01b5f52601160045260245ffd5b602081016020825282518091526040820191602060408360051b8301019401925f915b838310612a8d57505050505090565b9091929394602080612acb600193603f1986820301875289519083612abb8351604084526040840190611c0c565b9201519084818403910152611c0c565b97019301930191939290612a7e565b612af260409295949395606083526060830190611c0c565b6001600160a01b0390951660208201520152565b5f815f52600460205260405f2092600a84019260ff84541660048110156116855760010361165957805f52600860205260405f205490600b86019182549060018201809211612a4757036119ff57612b5f602496611ed2565b94815f5260086020525f6040812055815f52600960205260405f205494825f52600a60205260405f2054966080810196602060018060a01b038951166040519b8c80926370a0823160e01b82523060048301525afa998a1561160d575f9a6130a6575b5060249060a083019a602060018060a01b038d5116604051948580926370a0823160e01b82523060048301525afa92831561160d575f93613072575b50865f5260096020525f6040812055865f52600a6020525f60408120558082115f1461306957612c2d91612a3a565b985b8082111561306157612c4091612a3a565b80156130525789516001600160a01b037f000000000000000000000000000000000000000000000000000000000000000081169a91612c839184918d9116613101565b60c083015189519b5181516001600160a01b039d8e169d9091169a91612cb191602090820181019101613495565b998a5160028101809111612a4757612cc8906138d6565b9c612cd390846139f9565b8d60405191612ce183611e94565b612ce9613933565b83526020830152612cf99061358a565b52612d038d61358a565b50612d0e90846139f9565b60405190612d1b82611e94565b612d23613933565b82526020820152612d338d613597565b52612d3d8c613597565b505f5b8a51811015612d8057612d53818c6135a7565b51906002810191828211612a4757828f612d7992612d73600196836135a7565b526135a7565b5001612d40565b50929598509295989990939699803b15610f425760405163f0dbeea560e01b8152915f918391829084908290612db99060048301612a5b565b03925af1801561160d5761303d575b50610120840180516001600160a01b0316612f95575b505086545f198114612f81577f5b19a0b08bbd8e7537d63d9f1db0947c5eba6d93e02a7e0a1520ea5f29bd644c6040612e9794897f746e7bce16b1125d16e5673941791d7ff1f65d656a3c7346b7c2aa614814850f60608d97600184980180995585519089825260208201528486820152a28151908582526020820152a2602083810151604080860151865191516343fc086560e01b81529586936001600160a01b039081169385938493928992169060048501612ada565b03915afa918215612f76578492612f36575b506101008301518015159182612f2b575b50508115612f23575b50612ed0575b5050505050565b825460ff1916600217909255505191546040519081526001600160a01b0392909216917f11c239861e7b77ea2869389e0f03373ea1d12f407575794b517a10d10c54333390602090a35f80808080612ec9565b90505f612ec3565b101590505f80612eba565b9091506020813d602011612f6e575b81612f5260209383611eaf565b81010312612f6a57612f6390612053565b905f612ea9565b8380fd5b3d9150612f45565b6040513d86823e3d90fd5b634e487b7160e01b85526011600452602485fd5b81516040516370a0823160e01b81523060048201529190602090839060249082906001600160a01b03165afa918215613032578792612ffe575b5081612fdc575b50612dde565b91519151612ff6926001600160a01b039182169116613101565b5f8080612fd6565b9091506020813d60201161302a575b8161301a60209383611eaf565b81010312610f425751905f612fcf565b3d915061300d565b6040513d89823e3d90fd5b61304a9195505f90611eaf565b5f935f612dc8565b639671a89f60e01b5f5260045ffd5b50505f612c40565b50505f98612c2f565b9092506020813d60201161309e575b8161308e60209383611eaf565b81010312610f425751915f612bfe565b3d9150613081565b9099506020813d6020116130d3575b816130c260209383611eaf565b81010312610f425751986024612bc2565b3d91506130b5565b5f546001600160a01b031633036130ee57565b63118cdaa760e01b5f523360045260245ffd5b60405163a9059cbb60e01b60208201526001600160a01b0390921660248301526044808301939093529181526131419161313c606483611eaf565b613957565b565b905f90825f52600460205260405f209060ff600a8301541660048110156116855760010361165957835f52600860205260405f2054613486576131ce9361318983611ed2565b9260018060a01b0360208501511690604080860151600b60018060a01b03885116930193845493849284519b8c94859384936368c4be2560e01b855260048501612ada565b03915afa96871561160d575f97613464575b5060018101809111612a4757825f52600860205260405f2055606084015193608081019561322160018060a01b038851169660208082518301019101613495565b9586519060018201809211612a475761323c613242926138d6565b996139f9565b6040519061324f82611e94565b613257613933565b825260208201526132678961358a565b526132718861358a565b505f5b86518110156132b45761328781886135a7565b51906001810191828211612a4757826132ad916132a66001958e6135a7565b528b6135a7565b5001613274565b509396929591945092917f00000000000000000000000000000000000000000000000000000000000000006001600160a01b0316803b15610f425760405163f0dbeea560e01b8152915f9183918290849082906133149060048301612a5b565b03925af1801561160d5761344e575b50516040516370a0823160e01b815230600482015290602090829060249082906001600160a01b03165afa908115610fab57829161341b575b5060249260209186845260098352604084205560a0600180821b0391015116604051938480926370a0823160e01b82523060048301525afa91821561340e5781926133cb575b5091602091604084865f516020613a8b5f395f51905f529652600a8552205554604051908152a2565b9150916020823d602011613406575b816133e760209383611eaf565b81010312610f4257905190915f516020613a8b5f395f51905f526133a2565b3d91506133da565b50604051903d90823e3d90fd5b90506020813d602011613446575b8161343660209383611eaf565b81010312610f425751602461335c565b3d9150613429565b61345b9192505f90611eaf565b5f906020613323565b61347e91975060403d604011612873576128678183611eaf565b50955f6131e0565b63e617d13160e01b5f5260045ffd5b602081830312610f42578051906001600160401b038211610f4257019080601f83011215610f42578151916134c983611fb9565b926134d76040519485611eaf565b80845260208085019160051b83010191838311610f425760208101915b83831061350357505050505090565b82516001600160401b038111610f42578201906040828703601f190112610f42576040519061353182611e94565b60208301516001600160401b038111610f425787602061355392860101612060565b82526040830151916001600160401b038311610f425761357b88602080969581960101612060565b838201528152019201916134f4565b805115611d455760200190565b805160011015611d455760400190565b8051821015611d455760209160051b010190565b9190918051801561378d57906020806135d8938301019101613495565b6040516020810190653937baba32b960d11b8252600681526135fb602682611eaf565b5190205f5b8251811015613786578161361482856135a7565b51516040516136426020828180820195805191829101875e81015f838201520301601f198101835282611eaf565b51902003613653575b600101613600565b602061365f82856135a7565b5101518051810190602081830312610f42576020810151906001600160401b038211610f425701808203601f19810192919060c013610f42576040519160c083016001600160401b03811184821017611e2d576040526020820151600a811015610f425783526136d16040830161203f565b60208401526136e26060830161203f565b604084019081526080830151606085015260a0830151909490916001600160401b038311610f4257602092838061371d930191860101612060565b6080850152607f190112610f425760405191602083016001600160401b03811184821017611e2d5760405260c090910151825260a00152516001600160a01b0390811690861680820361377157505061364b565b63041bc0b160e41b5f5260045260245260445ffd5b5050509050565b50509050565b60405190602082019263095ea7b360e01b845260018060a01b0316928360248401525f196044840152604483526137cb606484611eaf565b82516001600160a01b038316915f91829182855af1906137e96139ca565b82613844575b5081613839575b501561380157505050565b61313c613141936040519063095ea7b360e01b602083015260248201525f604482015260448152613833606482611eaf565b82613957565b90503b15155f6137f6565b8051919250811591821561385c575b5050905f6137ef565b8192509060209181010312610f425760206138779101612053565b5f80613853565b908082146138cf578082119182156138c85780925b156138ba57906138a291612a3a565b606481029080820460641490151715612a4757111590565b6138c391612a3a565b6138a2565b8192613893565b5050600190565b906138e082611fb9565b6138ed6040519182611eaf565b82815280926138fe601f1991611fb9565b01905f5b82811061390e57505050565b60209060405161391d81611e94565b6060815260608382015282828501015201613902565b60405190613942604083611eaf565b60068252653937baba32b960d11b6020830152565b5f8061397f9260018060a01b03169360208151910182865af16139786139ca565b9083613a2c565b80519081151591826139a7575b50506139955750565b635274afe760e01b5f5260045260245ffd5b8192509060209181010312610f425760206139c29101612053565b155f8061398c565b3d156139f4573d906139db82611fd0565b916139e96040519384611eaf565b82523d5f602084013e565b606090565b9060405191602083015260018060a01b031660408201525f6060820152600360808201526080815261203c60a082611eaf565b90613a505750805115613a4157805190602001fd5b630a12f52160e11b5f5260045ffd5b81511580613a81575b613a61575090565b639996b31560e01b5f9081526001600160a01b0391909116600452602490fd5b50803b15613a5956feed6ad11a587c194b3ad43896e949cb9a05975419926eda9b6b571d1847c9a7aa8be0079c531659141344cd1fd0a4f28419497f9722a3daafe3b4186f6b6457e0a264697066735822122032d20429e3a65475abb436679b0cee59ab6fff6b1cdf128a0d6db12d899ed0ae64736f6c634300081e0033",
  "devdoc": {
    "details": "Uses separate KapanConditionalOrderHandler for IConditionalOrderGenerator.      This contract is the OWNER in ComposableCoW and handles ERC-1271 signature verification.      It intentionally does NOT implement IERC165 to avoid Safe/fallback handler detection. Key differences from KapanOrderManager: - Orders have pluggable triggers (IOrderTrigger) that determine when and how much to execute - Amounts are calculated dynamically at execution time via trigger.calculateExecution() - Instructions are templates that reference UTXO[0] for dynamic amounts",
    "errors": {
      "AddressEmptyCode(address)": [
        {
          "details": "There's no code at `target` (it is not a contract)."
        }
      ],
      "AddressInsufficientBalance(address)": [
        {
          "details": "The ETH balance of the account is not enough to perform the operation."
        }
      ],
      "FailedInnerCall()": [
        {
          "details": "A call to an address target failed. The target may have reverted."
        }
      ],
      "OwnableInvalidOwner(address)": [
        {
          "details": "The owner is not a valid owner account. (eg. `address(0)`)"
        }
      ],
      "OwnableUnauthorizedAccount(address)": [
        {
          "details": "The caller account is not authorized to perform an operation."
        }
      ],
      "ReentrancyGuardReentrantCall()": [
        {
          "details": "Unauthorized reentrant call."
        }
      ],
      "SafeERC20FailedOperation(address)": [
        {
          "details": "An operation with an ERC20 token failed."
        }
      ]
    },
    "kind": "dev",
    "methods": {
      "approveVaultRelayer(address)": {
        "params": {
          "token": "Token to approve"
        }
      },
      "createOrder((address,address,bytes,bytes,address,address,bytes,bytes32,uint256,address,bool),bytes32)": {
        "params": {
          "params": "The order parameters",
          "salt": "Unique salt for the order"
        },
        "returns": {
          "orderHash": "The hash identifying this order"
        }
      },
      "executePostHook(bytes32)": {
        "params": {
          "orderHash": "The order hash"
        }
      },
      "executePostHookBySalt(address,bytes32)": {
        "params": {
          "salt": "The order salt",
          "user": "The user address"
        }
      },
      "executePreHook(bytes32)": {
        "params": {
          "orderHash": "The order hash"
        }
      },
      "executePreHookBySalt(address,bytes32)": {
        "params": {
          "salt": "The order salt",
          "user": "The user address"
        }
      },
      "isValidSignature(bytes32,bytes)": {
        "params": {
          "_hash": "The hash of the data signed",
          "_signature": "The signature bytes"
        },
        "returns": {
          "_0": "bytes4(0x1626ba7e) if valid, any other value if invalid"
        }
      },
      "owner()": {
        "details": "Returns the address of the current owner."
      },
      "recoverTokens(address,address,uint256)": {
        "params": {
          "amount": "Amount to recover",
          "to": "Recipient address",
          "token": "Token address to recover"
        }
      },
      "renounceOwnership()": {
        "details": "Leaves the contract without owner. It will not be possible to call `onlyOwner` functions. Can only be called by the current owner. NOTE: Renouncing ownership will leave the contract without an owner, thereby disabling any functionality that is only available to the owner."
      },
      "resetStuckOrder(bytes32)": {
        "details": "Only use when an order is permanently stuck due to failed settlement",
        "params": {
          "orderHash": "The order hash to reset"
        }
      },
      "setChunkWindow(uint256)": {
        "params": {
          "_chunkWindow": "New chunk window in seconds"
        }
      },
      "setOrderHandler(address)": {
        "params": {
          "_orderHandler": "New order handler address"
        }
      },
      "transferOwnership(address)": {
        "details": "Transfers ownership of the contract to a new account (`newOwner`). Can only be called by the current owner."
      }
    },
    "stateVariables": {
      "DEFAULT_CHUNK_WINDOW": {
        "details": "Must be > 60 seconds due to CoW Protocol's min_order_validity_period (default 1 minute) Increased to 30 minutes to allow sufficient time for solver competition and fills"
      },
      "MIN_CHUNK_WINDOW": {
        "details": "Must be > 60 seconds due to CoW Protocol's min_order_validity_period"
      },
      "chunkWindow": {
        "details": "Configurable to tune order validity based on watchtower polling and token characteristics"
      }
    },
    "title": "KapanConditionalOrderManager",
    "version": 1
  },
  "userdoc": {
    "kind": "user",
    "methods": {
      "DEFAULT_CHUNK_WINDOW()": {
        "notice": "Default chunk window duration (30 minutes)"
      },
      "MAX_CHUNK_WINDOW()": {
        "notice": "Maximum allowed chunk window (1 hour)"
      },
      "MAX_ORDERS_PER_USER()": {
        "notice": "Maximum orders per user to prevent storage DOS"
      },
      "MIN_CHUNK_WINDOW()": {
        "notice": "Minimum allowed chunk window (65 seconds)"
      },
      "approveVaultRelayer(address)": {
        "notice": "Approve vault relayer to spend tokens"
      },
      "cancelOrder(bytes32)": {
        "notice": "Cancel an active conditional order"
      },
      "chunkWindow()": {
        "notice": "Chunk window duration for deterministic validTo"
      },
      "composableCoW()": {
        "notice": "The ComposableCoW contract for order registration (immutable)"
      },
      "createOrder((address,address,bytes,bytes,address,address,bytes,bytes32,uint256,address,bool),bytes32)": {
        "notice": "Create a new conditional order"
      },
      "executePostHook(bytes32)": {
        "notice": "Execute post-hook (called by HooksTrampoline)"
      },
      "executePostHookBySalt(address,bytes32)": {
        "notice": "Execute post-hook using (user, salt) lookup"
      },
      "executePreHook(bytes32)": {
        "notice": "Execute pre-hook (called by HooksTrampoline)"
      },
      "executePreHookBySalt(address,bytes32)": {
        "notice": "Execute pre-hook using (user, salt) lookup"
      },
      "getExecutionAmounts(bytes32)": {
        "notice": "Get current execution amounts from trigger"
      },
      "hooksTrampoline()": {
        "notice": "The HooksTrampoline contract (caller for hooks) (immutable)"
      },
      "isTriggerMet(bytes32)": {
        "notice": "Check if trigger condition is currently met"
      },
      "isValidSignature(bytes32,bytes)": {
        "notice": "Verifies that the signature is valid for the given hash"
      },
      "orderHandler()": {
        "notice": "The KapanConditionalOrderHandler for generating orders"
      },
      "orderSalts(bytes32)": {
        "notice": "Salt used for each order (for ComposableCoW cancellation)"
      },
      "orders(bytes32)": {
        "notice": "Order contexts by order hash"
      },
      "preHookExecutedForIteration(bytes32)": {
        "notice": "Track pre-hook execution per order"
      },
      "preHookSellBalance(bytes32)": {
        "notice": "Track balances at end of pre-hook for delta calculation"
      },
      "recoverTokens(address,address,uint256)": {
        "notice": "Recover tokens accidentally sent to this contract"
      },
      "resetStuckOrder(bytes32)": {
        "notice": "Reset a stuck order where pre-hook executed but post-hook failed"
      },
      "router()": {
        "notice": "The KapanRouter for executing lending operations (immutable)"
      },
      "setChunkWindow(uint256)": {
        "notice": "Update the chunk window for order validity"
      },
      "setOrderHandler(address)": {
        "notice": "Update the order handler address"
      },
      "settlement()": {
        "notice": "The GPv2Settlement contract (immutable)"
      },
      "userOrders(address,uint256)": {
        "notice": "User's active orders"
      },
      "userSaltToOrderHash(address,bytes32)": {
        "notice": "Lookup order hash by (user, salt)"
      }
    },
    "notice": "Manages trigger-based conditional orders for Kapan (ADL, stop-loss, etc.)",
    "version": 1
  },
  "storageLayout": {
    "storage": [
      {
        "astId": 8,
        "contract": "contracts/v2/cow/KapanConditionalOrderManager.sol:KapanConditionalOrderManager",
        "label": "_owner",
        "offset": 0,
        "slot": "0",
        "type": "t_address"
      },
      {
        "astId": 845,
        "contract": "contracts/v2/cow/KapanConditionalOrderManager.sol:KapanConditionalOrderManager",
        "label": "_status",
        "offset": 0,
        "slot": "1",
        "type": "t_uint256"
      },
      {
        "astId": 1061,
        "contract": "contracts/v2/cow/KapanConditionalOrderManager.sol:KapanConditionalOrderManager",
        "label": "chunkWindow",
        "offset": 0,
        "slot": "2",
        "type": "t_uint256"
      },
      {
        "astId": 1079,
        "contract": "contracts/v2/cow/KapanConditionalOrderManager.sol:KapanConditionalOrderManager",
        "label": "orderHandler",
        "offset": 0,
        "slot": "3",
        "type": "t_address"
      },
      {
        "astId": 1085,
        "contract": "contracts/v2/cow/KapanConditionalOrderManager.sol:KapanConditionalOrderManager",
        "label": "orders",
        "offset": 0,
        "slot": "4",
        "type": "t_mapping(t_bytes32,t_struct(OrderContext)1045_storage)"
      },
      {
        "astId": 1090,
        "contract": "contracts/v2/cow/KapanConditionalOrderManager.sol:KapanConditionalOrderManager",
        "label": "orderSalts",
        "offset": 0,
        "slot": "5",
        "type": "t_mapping(t_bytes32,t_bytes32)"
      },
      {
        "astId": 1096,
        "contract": "contracts/v2/cow/KapanConditionalOrderManager.sol:KapanConditionalOrderManager",
        "label": "userOrders",
        "offset": 0,
        "slot": "6",
        "type": "t_mapping(t_address,t_array(t_bytes32)dyn_storage)"
      },
      {
        "astId": 1103,
        "contract": "contracts/v2/cow/KapanConditionalOrderManager.sol:KapanConditionalOrderManager",
        "label": "userSaltToOrderHash",
        "offset": 0,
        "slot": "7",
        "type": "t_mapping(t_address,t_mapping(t_bytes32,t_bytes32))"
      },
      {
        "astId": 1108,
        "contract": "contracts/v2/cow/KapanConditionalOrderManager.sol:KapanConditionalOrderManager",
        "label": "preHookExecutedForIteration",
        "offset": 0,
        "slot": "8",
        "type": "t_mapping(t_bytes32,t_uint256)"
      },
      {
        "astId": 1113,
        "contract": "contracts/v2/cow/KapanConditionalOrderManager.sol:KapanConditionalOrderManager",
        "label": "preHookSellBalance",
        "offset": 0,
        "slot": "9",
        "type": "t_mapping(t_bytes32,t_uint256)"
      },
      {
        "astId": 1117,
        "contract": "contracts/v2/cow/KapanConditionalOrderManager.sol:KapanConditionalOrderManager",
        "label": "preHookBuyBalance",
        "offset": 0,
        "slot": "10",
        "type": "t_mapping(t_bytes32,t_uint256)"
      }
    ],
    "types": {
      "t_address": {
        "encoding": "inplace",
        "label": "address",
        "numberOfBytes": "20"
      },
      "t_array(t_bytes32)dyn_storage": {
        "base": "t_bytes32",
        "encoding": "dynamic_array",
        "label": "bytes32[]",
        "numberOfBytes": "32"
      },
      "t_bool": {
        "encoding": "inplace",
        "label": "bool",
        "numberOfBytes": "1"
      },
      "t_bytes32": {
        "encoding": "inplace",
        "label": "bytes32",
        "numberOfBytes": "32"
      },
      "t_bytes_storage": {
        "encoding": "bytes",
        "label": "bytes",
        "numberOfBytes": "32"
      },
      "t_enum(OrderStatus)1000": {
        "encoding": "inplace",
        "label": "enum KapanConditionalOrderManager.OrderStatus",
        "numberOfBytes": "1"
      },
      "t_mapping(t_address,t_array(t_bytes32)dyn_storage)": {
        "encoding": "mapping",
        "key": "t_address",
        "label": "mapping(address => bytes32[])",
        "numberOfBytes": "32",
        "value": "t_array(t_bytes32)dyn_storage"
      },
      "t_mapping(t_address,t_mapping(t_bytes32,t_bytes32))": {
        "encoding": "mapping",
        "key": "t_address",
        "label": "mapping(address => mapping(bytes32 => bytes32))",
        "numberOfBytes": "32",
        "value": "t_mapping(t_bytes32,t_bytes32)"
      },
      "t_mapping(t_bytes32,t_bytes32)": {
        "encoding": "mapping",
        "key": "t_bytes32",
        "label": "mapping(bytes32 => bytes32)",
        "numberOfBytes": "32",
        "value": "t_bytes32"
      },
      "t_mapping(t_bytes32,t_struct(OrderContext)1045_storage)": {
        "encoding": "mapping",
        "key": "t_bytes32",
        "label": "mapping(bytes32 => struct KapanConditionalOrderManager.OrderContext)",
        "numberOfBytes": "32",
        "value": "t_struct(OrderContext)1045_storage"
      },
      "t_mapping(t_bytes32,t_uint256)": {
        "encoding": "mapping",
        "key": "t_bytes32",
        "label": "mapping(bytes32 => uint256)",
        "numberOfBytes": "32",
        "value": "t_uint256"
      },
      "t_struct(KapanOrderParams)1033_storage": {
        "encoding": "inplace",
        "label": "struct KapanConditionalOrderManager.KapanOrderParams",
        "members": [
          {
            "astId": 1012,
            "contract": "contracts/v2/cow/KapanConditionalOrderManager.sol:KapanConditionalOrderManager",
            "label": "user",
            "offset": 0,
            "slot": "0",
            "type": "t_address"
          },
          {
            "astId": 1014,
            "contract": "contracts/v2/cow/KapanConditionalOrderManager.sol:KapanConditionalOrderManager",
            "label": "trigger",
            "offset": 0,
            "slot": "1",
            "type": "t_address"
          },
          {
            "astId": 1016,
            "contract": "contracts/v2/cow/KapanConditionalOrderManager.sol:KapanConditionalOrderManager",
            "label": "triggerStaticData",
            "offset": 0,
            "slot": "2",
            "type": "t_bytes_storage"
          },
          {
            "astId": 1018,
            "contract": "contracts/v2/cow/KapanConditionalOrderManager.sol:KapanConditionalOrderManager",
            "label": "preInstructions",
            "offset": 0,
            "slot": "3",
            "type": "t_bytes_storage"
          },
          {
            "astId": 1020,
            "contract": "contracts/v2/cow/KapanConditionalOrderManager.sol:KapanConditionalOrderManager",
            "label": "sellToken",
            "offset": 0,
            "slot": "4",
            "type": "t_address"
          },
          {
            "astId": 1022,
            "contract": "contracts/v2/cow/KapanConditionalOrderManager.sol:KapanConditionalOrderManager",
            "label": "buyToken",
            "offset": 0,
            "slot": "5",
            "type": "t_address"
          },
          {
            "astId": 1024,
            "contract": "contracts/v2/cow/KapanConditionalOrderManager.sol:KapanConditionalOrderManager",
            "label": "postInstructions",
            "offset": 0,
            "slot": "6",
            "type": "t_bytes_storage"
          },
          {
            "astId": 1026,
            "contract": "contracts/v2/cow/KapanConditionalOrderManager.sol:KapanConditionalOrderManager",
            "label": "appDataHash",
            "offset": 0,
            "slot": "7",
            "type": "t_bytes32"
          },
          {
            "astId": 1028,
            "contract": "contracts/v2/cow/KapanConditionalOrderManager.sol:KapanConditionalOrderManager",
            "label": "maxIterations",
            "offset": 0,
            "slot": "8",
            "type": "t_uint256"
          },
          {
            "astId": 1030,
            "contract": "contracts/v2/cow/KapanConditionalOrderManager.sol:KapanConditionalOrderManager",
            "label": "sellTokenRefundAddress",
            "offset": 0,
            "slot": "9",
            "type": "t_address"
          },
          {
            "astId": 1032,
            "contract": "contracts/v2/cow/KapanConditionalOrderManager.sol:KapanConditionalOrderManager",
            "label": "isKindBuy",
            "offset": 20,
            "slot": "9",
            "type": "t_bool"
          }
        ],
        "numberOfBytes": "320"
      },
      "t_struct(OrderContext)1045_storage": {
        "encoding": "inplace",
        "label": "struct KapanConditionalOrderManager.OrderContext",
        "members": [
          {
            "astId": 1037,
            "contract": "contracts/v2/cow/KapanConditionalOrderManager.sol:KapanConditionalOrderManager",
            "label": "params",
            "offset": 0,
            "slot": "0",
            "type": "t_struct(KapanOrderParams)1033_storage"
          },
          {
            "astId": 1040,
            "contract": "contracts/v2/cow/KapanConditionalOrderManager.sol:KapanConditionalOrderManager",
            "label": "status",
            "offset": 0,
            "slot": "10",
            "type": "t_enum(OrderStatus)1000"
          },
          {
            "astId": 1042,
            "contract": "contracts/v2/cow/KapanConditionalOrderManager.sol:KapanConditionalOrderManager",
            "label": "iterationCount",
            "offset": 0,
            "slot": "11",
            "type": "t_uint256"
          },
          {
            "astId": 1044,
            "contract": "contracts/v2/cow/KapanConditionalOrderManager.sol:KapanConditionalOrderManager",
            "label": "createdAt",
            "offset": 0,
            "slot": "12",
            "type": "t_uint256"
          }
        ],
        "numberOfBytes": "416"
      },
      "t_uint256": {
        "encoding": "inplace",
        "label": "uint256",
        "numberOfBytes": "32"
      }
    }
  }
}