{
  "address": "0x79D4b55a88560d2EaA4CAF15C55139416bc2cb36",
  "abi": [
    {
      "inputs": [
        {
          "internalType": "address",
          "name": "_owner",
          "type": "address"
        }
      ],
      "stateMutability": "nonpayable",
      "type": "constructor"
    },
    {
      "inputs": [
        {
          "internalType": "string",
          "name": "protocolName",
          "type": "string"
        }
      ],
      "name": "GatewayNotSet",
      "type": "error"
    },
    {
      "inputs": [
        {
          "internalType": "string",
          "name": "protocolName",
          "type": "string"
        }
      ],
      "name": "UnsupportedProtocol",
      "type": "error"
    },
    {
      "inputs": [
        {
          "internalType": "bytes4",
          "name": "protocolId",
          "type": "bytes4"
        }
      ],
      "name": "UnsupportedProtocolId",
      "type": "error"
    },
    {
      "inputs": [],
      "name": "ZeroAddress",
      "type": "error"
    },
    {
      "anonymous": false,
      "inputs": [
        {
          "indexed": true,
          "internalType": "string",
          "name": "protocolName",
          "type": "string"
        },
        {
          "indexed": false,
          "internalType": "address",
          "name": "gateway",
          "type": "address"
        }
      ],
      "name": "GatewayUpdated",
      "type": "event"
    },
    {
      "inputs": [],
      "name": "AAVE_V3",
      "outputs": [
        {
          "internalType": "bytes4",
          "name": "",
          "type": "bytes4"
        }
      ],
      "stateMutability": "view",
      "type": "function"
    },
    {
      "inputs": [],
      "name": "ALCHEMIX",
      "outputs": [
        {
          "internalType": "bytes4",
          "name": "",
          "type": "bytes4"
        }
      ],
      "stateMutability": "view",
      "type": "function"
    },
    {
      "inputs": [],
      "name": "COMPOUND_V3",
      "outputs": [
        {
          "internalType": "bytes4",
          "name": "",
          "type": "bytes4"
        }
      ],
      "stateMutability": "view",
      "type": "function"
    },
    {
      "inputs": [],
      "name": "EULER_V2",
      "outputs": [
        {
          "internalType": "bytes4",
          "name": "",
          "type": "bytes4"
        }
      ],
      "stateMutability": "view",
      "type": "function"
    },
    {
      "inputs": [],
      "name": "MORPHO_BLUE",
      "outputs": [
        {
          "internalType": "bytes4",
          "name": "",
          "type": "bytes4"
        }
      ],
      "stateMutability": "view",
      "type": "function"
    },
    {
      "inputs": [],
      "name": "VENUS",
      "outputs": [
        {
          "internalType": "bytes4",
          "name": "",
          "type": "bytes4"
        }
      ],
      "stateMutability": "view",
      "type": "function"
    },
    {
      "inputs": [
        {
          "internalType": "bytes4",
          "name": "protocolId",
          "type": "bytes4"
        },
        {
          "internalType": "uint256",
          "name": "sellAmount",
          "type": "uint256"
        },
        {
          "internalType": "uint256",
          "name": "maxSlippageBps",
          "type": "uint256"
        },
        {
          "internalType": "address",
          "name": "collateralToken",
          "type": "address"
        },
        {
          "internalType": "address",
          "name": "debtToken",
          "type": "address"
        },
        {
          "internalType": "uint8",
          "name": "collateralDecimals",
          "type": "uint8"
        },
        {
          "internalType": "uint8",
          "name": "debtDecimals",
          "type": "uint8"
        },
        {
          "internalType": "bytes",
          "name": "context",
          "type": "bytes"
        }
      ],
      "name": "calculateMinBuy",
      "outputs": [
        {
          "internalType": "uint256",
          "name": "minBuyAmount",
          "type": "uint256"
        }
      ],
      "stateMutability": "view",
      "type": "function"
    },
    {
      "inputs": [
        {
          "internalType": "uint256",
          "name": "sellAmount",
          "type": "uint256"
        },
        {
          "internalType": "uint256",
          "name": "maxSlippageBps",
          "type": "uint256"
        },
        {
          "internalType": "uint256",
          "name": "sellPriceUsd",
          "type": "uint256"
        },
        {
          "internalType": "uint256",
          "name": "buyPriceUsd",
          "type": "uint256"
        },
        {
          "internalType": "uint8",
          "name": "sellDecimals",
          "type": "uint8"
        },
        {
          "internalType": "uint8",
          "name": "buyDecimals",
          "type": "uint8"
        }
      ],
      "name": "calculateMinBuyAmount",
      "outputs": [
        {
          "internalType": "uint256",
          "name": "minBuyAmount",
          "type": "uint256"
        }
      ],
      "stateMutability": "view",
      "type": "function"
    },
    {
      "inputs": [
        {
          "internalType": "uint256",
          "name": "sellAmount",
          "type": "uint256"
        },
        {
          "internalType": "uint256",
          "name": "maxSlippageBps",
          "type": "uint256"
        },
        {
          "internalType": "uint256",
          "name": "exchangeRate18",
          "type": "uint256"
        },
        {
          "internalType": "uint8",
          "name": "sellDecimals",
          "type": "uint8"
        },
        {
          "internalType": "uint8",
          "name": "buyDecimals",
          "type": "uint8"
        }
      ],
      "name": "calculateMinBuyFromRate",
      "outputs": [
        {
          "internalType": "uint256",
          "name": "minBuyAmount",
          "type": "uint256"
        }
      ],
      "stateMutability": "pure",
      "type": "function"
    },
    {
      "inputs": [
        {
          "internalType": "uint256",
          "name": "sellAmount",
          "type": "uint256"
        },
        {
          "internalType": "uint256",
          "name": "maxSlippageBps",
          "type": "uint256"
        },
        {
          "internalType": "uint256",
          "name": "morphoOraclePrice",
          "type": "uint256"
        }
      ],
      "name": "calculateMorphoMinBuyAmount",
      "outputs": [
        {
          "internalType": "uint256",
          "name": "minBuyAmount",
          "type": "uint256"
        }
      ],
      "stateMutability": "pure",
      "type": "function"
    },
    {
      "inputs": [
        {
          "internalType": "string",
          "name": "",
          "type": "string"
        }
      ],
      "name": "gateways",
      "outputs": [
        {
          "internalType": "address",
          "name": "",
          "type": "address"
        }
      ],
      "stateMutability": "view",
      "type": "function"
    },
    {
      "inputs": [
        {
          "internalType": "address",
          "name": "user",
          "type": "address"
        }
      ],
      "name": "getAaveLiquidationLtvBps",
      "outputs": [
        {
          "internalType": "uint256",
          "name": "",
          "type": "uint256"
        }
      ],
      "stateMutability": "view",
      "type": "function"
    },
    {
      "inputs": [
        {
          "internalType": "address",
          "name": "user",
          "type": "address"
        }
      ],
      "name": "getAaveLtvBps",
      "outputs": [
        {
          "internalType": "uint256",
          "name": "ltvBps",
          "type": "uint256"
        }
      ],
      "stateMutability": "view",
      "type": "function"
    },
    {
      "inputs": [
        {
          "internalType": "address",
          "name": "token",
          "type": "address"
        }
      ],
      "name": "getAavePrice",
      "outputs": [
        {
          "internalType": "uint256",
          "name": "",
          "type": "uint256"
        }
      ],
      "stateMutability": "view",
      "type": "function"
    },
    {
      "inputs": [
        {
          "internalType": "address[]",
          "name": "tokens",
          "type": "address[]"
        }
      ],
      "name": "getAavePrices",
      "outputs": [
        {
          "internalType": "uint256[]",
          "name": "",
          "type": "uint256[]"
        }
      ],
      "stateMutability": "view",
      "type": "function"
    },
    {
      "inputs": [
        {
          "internalType": "address",
          "name": "user",
          "type": "address"
        }
      ],
      "name": "getAaveUserAccountData",
      "outputs": [
        {
          "internalType": "uint256",
          "name": "totalCollateralBase",
          "type": "uint256"
        },
        {
          "internalType": "uint256",
          "name": "totalDebtBase",
          "type": "uint256"
        },
        {
          "internalType": "uint256",
          "name": "availableBorrowsBase",
          "type": "uint256"
        },
        {
          "internalType": "uint256",
          "name": "currentLiquidationThreshold",
          "type": "uint256"
        },
        {
          "internalType": "uint256",
          "name": "ltv",
          "type": "uint256"
        },
        {
          "internalType": "uint256",
          "name": "healthFactor",
          "type": "uint256"
        }
      ],
      "stateMutability": "view",
      "type": "function"
    },
    {
      "inputs": [
        {
          "internalType": "bytes4",
          "name": "protocolId",
          "type": "bytes4"
        },
        {
          "internalType": "address",
          "name": "collateralToken",
          "type": "address"
        },
        {
          "internalType": "bytes",
          "name": "context",
          "type": "bytes"
        }
      ],
      "name": "getCollateralPrice",
      "outputs": [
        {
          "internalType": "uint256",
          "name": "price",
          "type": "uint256"
        }
      ],
      "stateMutability": "view",
      "type": "function"
    },
    {
      "inputs": [
        {
          "internalType": "address",
          "name": "baseToken",
          "type": "address"
        },
        {
          "internalType": "address",
          "name": "user",
          "type": "address"
        }
      ],
      "name": "getCompoundLiquidationLtvBps",
      "outputs": [
        {
          "internalType": "uint256",
          "name": "",
          "type": "uint256"
        }
      ],
      "stateMutability": "view",
      "type": "function"
    },
    {
      "inputs": [
        {
          "internalType": "address",
          "name": "baseToken",
          "type": "address"
        },
        {
          "internalType": "address",
          "name": "user",
          "type": "address"
        }
      ],
      "name": "getCompoundLtvBps",
      "outputs": [
        {
          "internalType": "uint256",
          "name": "",
          "type": "uint256"
        }
      ],
      "stateMutability": "view",
      "type": "function"
    },
    {
      "inputs": [
        {
          "internalType": "address",
          "name": "baseToken",
          "type": "address"
        },
        {
          "internalType": "address",
          "name": "user",
          "type": "address"
        }
      ],
      "name": "getCompoundPositionValue",
      "outputs": [
        {
          "internalType": "uint256",
          "name": "collateralValueUsd",
          "type": "uint256"
        },
        {
          "internalType": "uint256",
          "name": "debtValueUsd",
          "type": "uint256"
        }
      ],
      "stateMutability": "view",
      "type": "function"
    },
    {
      "inputs": [
        {
          "internalType": "address",
          "name": "baseToken",
          "type": "address"
        },
        {
          "internalType": "address",
          "name": "asset",
          "type": "address"
        }
      ],
      "name": "getCompoundPrice",
      "outputs": [
        {
          "internalType": "uint256",
          "name": "",
          "type": "uint256"
        }
      ],
      "stateMutability": "view",
      "type": "function"
    },
    {
      "inputs": [
        {
          "internalType": "bytes4",
          "name": "protocolId",
          "type": "bytes4"
        },
        {
          "internalType": "address",
          "name": "user",
          "type": "address"
        },
        {
          "internalType": "bytes",
          "name": "context",
          "type": "bytes"
        }
      ],
      "name": "getCurrentLtv",
      "outputs": [
        {
          "internalType": "uint256",
          "name": "ltvBps",
          "type": "uint256"
        }
      ],
      "stateMutability": "view",
      "type": "function"
    },
    {
      "inputs": [
        {
          "internalType": "bytes4",
          "name": "protocolId",
          "type": "bytes4"
        },
        {
          "internalType": "address",
          "name": "debtToken",
          "type": "address"
        },
        {
          "internalType": "bytes",
          "name": "context",
          "type": "bytes"
        }
      ],
      "name": "getDebtPrice",
      "outputs": [
        {
          "internalType": "uint256",
          "name": "price",
          "type": "uint256"
        }
      ],
      "stateMutability": "view",
      "type": "function"
    },
    {
      "inputs": [
        {
          "internalType": "address",
          "name": "borrowVault",
          "type": "address"
        },
        {
          "internalType": "address",
          "name": "collateralVault",
          "type": "address"
        }
      ],
      "name": "getEulerExchangeRate",
      "outputs": [
        {
          "internalType": "uint256",
          "name": "",
          "type": "uint256"
        }
      ],
      "stateMutability": "view",
      "type": "function"
    },
    {
      "inputs": [
        {
          "internalType": "address",
          "name": "vault",
          "type": "address"
        }
      ],
      "name": "getEulerLiquidationLtvBps",
      "outputs": [
        {
          "internalType": "uint256",
          "name": "",
          "type": "uint256"
        }
      ],
      "stateMutability": "view",
      "type": "function"
    },
    {
      "inputs": [
        {
          "internalType": "address",
          "name": "vault",
          "type": "address"
        },
        {
          "internalType": "address",
          "name": "user",
          "type": "address"
        },
        {
          "internalType": "uint8",
          "name": "subAccountIndex",
          "type": "uint8"
        }
      ],
      "name": "getEulerLtvBps",
      "outputs": [
        {
          "internalType": "uint256",
          "name": "",
          "type": "uint256"
        }
      ],
      "stateMutability": "view",
      "type": "function"
    },
    {
      "inputs": [
        {
          "internalType": "address",
          "name": "vault",
          "type": "address"
        },
        {
          "internalType": "address",
          "name": "token",
          "type": "address"
        }
      ],
      "name": "getEulerPrice",
      "outputs": [
        {
          "internalType": "uint256",
          "name": "",
          "type": "uint256"
        }
      ],
      "stateMutability": "view",
      "type": "function"
    },
    {
      "inputs": [
        {
          "components": [
            {
              "internalType": "address",
              "name": "loanToken",
              "type": "address"
            },
            {
              "internalType": "address",
              "name": "collateralToken",
              "type": "address"
            },
            {
              "internalType": "address",
              "name": "oracle",
              "type": "address"
            },
            {
              "internalType": "address",
              "name": "irm",
              "type": "address"
            },
            {
              "internalType": "uint256",
              "name": "lltv",
              "type": "uint256"
            }
          ],
          "internalType": "struct MarketParams",
          "name": "params",
          "type": "tuple"
        }
      ],
      "name": "getMorphoLiquidationLtvBps",
      "outputs": [
        {
          "internalType": "uint256",
          "name": "",
          "type": "uint256"
        }
      ],
      "stateMutability": "view",
      "type": "function"
    },
    {
      "inputs": [
        {
          "components": [
            {
              "internalType": "address",
              "name": "loanToken",
              "type": "address"
            },
            {
              "internalType": "address",
              "name": "collateralToken",
              "type": "address"
            },
            {
              "internalType": "address",
              "name": "oracle",
              "type": "address"
            },
            {
              "internalType": "address",
              "name": "irm",
              "type": "address"
            },
            {
              "internalType": "uint256",
              "name": "lltv",
              "type": "uint256"
            }
          ],
          "internalType": "struct MarketParams",
          "name": "params",
          "type": "tuple"
        },
        {
          "internalType": "address",
          "name": "user",
          "type": "address"
        }
      ],
      "name": "getMorphoLtvBps",
      "outputs": [
        {
          "internalType": "uint256",
          "name": "",
          "type": "uint256"
        }
      ],
      "stateMutability": "view",
      "type": "function"
    },
    {
      "inputs": [
        {
          "components": [
            {
              "internalType": "address",
              "name": "loanToken",
              "type": "address"
            },
            {
              "internalType": "address",
              "name": "collateralToken",
              "type": "address"
            },
            {
              "internalType": "address",
              "name": "oracle",
              "type": "address"
            },
            {
              "internalType": "address",
              "name": "irm",
              "type": "address"
            },
            {
              "internalType": "uint256",
              "name": "lltv",
              "type": "uint256"
            }
          ],
          "internalType": "struct MarketParams",
          "name": "params",
          "type": "tuple"
        }
      ],
      "name": "getMorphoOraclePrice",
      "outputs": [
        {
          "internalType": "uint256",
          "name": "",
          "type": "uint256"
        }
      ],
      "stateMutability": "view",
      "type": "function"
    },
    {
      "inputs": [
        {
          "components": [
            {
              "internalType": "address",
              "name": "loanToken",
              "type": "address"
            },
            {
              "internalType": "address",
              "name": "collateralToken",
              "type": "address"
            },
            {
              "internalType": "address",
              "name": "oracle",
              "type": "address"
            },
            {
              "internalType": "address",
              "name": "irm",
              "type": "address"
            },
            {
              "internalType": "uint256",
              "name": "lltv",
              "type": "uint256"
            }
          ],
          "internalType": "struct MarketParams",
          "name": "params",
          "type": "tuple"
        },
        {
          "internalType": "address",
          "name": "user",
          "type": "address"
        }
      ],
      "name": "getMorphoPositionValue",
      "outputs": [
        {
          "internalType": "uint256",
          "name": "collateralValueUsd",
          "type": "uint256"
        },
        {
          "internalType": "uint256",
          "name": "debtValueUsd",
          "type": "uint256"
        }
      ],
      "stateMutability": "view",
      "type": "function"
    },
    {
      "inputs": [
        {
          "internalType": "bytes4",
          "name": "protocolId",
          "type": "bytes4"
        },
        {
          "internalType": "address",
          "name": "user",
          "type": "address"
        },
        {
          "internalType": "bytes",
          "name": "context",
          "type": "bytes"
        }
      ],
      "name": "getPositionValue",
      "outputs": [
        {
          "internalType": "uint256",
          "name": "collateralValueUsd",
          "type": "uint256"
        },
        {
          "internalType": "uint256",
          "name": "debtValueUsd",
          "type": "uint256"
        }
      ],
      "stateMutability": "view",
      "type": "function"
    },
    {
      "inputs": [
        {
          "internalType": "address",
          "name": "user",
          "type": "address"
        }
      ],
      "name": "getVenusLiquidationLtvBps",
      "outputs": [
        {
          "internalType": "uint256",
          "name": "",
          "type": "uint256"
        }
      ],
      "stateMutability": "view",
      "type": "function"
    },
    {
      "inputs": [
        {
          "internalType": "address",
          "name": "user",
          "type": "address"
        }
      ],
      "name": "getVenusLtvBps",
      "outputs": [
        {
          "internalType": "uint256",
          "name": "",
          "type": "uint256"
        }
      ],
      "stateMutability": "view",
      "type": "function"
    },
    {
      "inputs": [
        {
          "internalType": "address",
          "name": "underlyingToken",
          "type": "address"
        }
      ],
      "name": "getVenusPrice",
      "outputs": [
        {
          "internalType": "uint256",
          "name": "",
          "type": "uint256"
        }
      ],
      "stateMutability": "view",
      "type": "function"
    },
    {
      "inputs": [
        {
          "internalType": "address",
          "name": "user",
          "type": "address"
        }
      ],
      "name": "getVenusUserAccountData",
      "outputs": [
        {
          "internalType": "uint256",
          "name": "totalCollateralUsd",
          "type": "uint256"
        },
        {
          "internalType": "uint256",
          "name": "totalDebtUsd",
          "type": "uint256"
        }
      ],
      "stateMutability": "view",
      "type": "function"
    },
    {
      "inputs": [
        {
          "internalType": "address",
          "name": "user",
          "type": "address"
        },
        {
          "internalType": "uint256",
          "name": "bufferBps",
          "type": "uint256"
        }
      ],
      "name": "isAaveAtRisk",
      "outputs": [
        {
          "internalType": "bool",
          "name": "atRisk",
          "type": "bool"
        }
      ],
      "stateMutability": "view",
      "type": "function"
    },
    {
      "inputs": [
        {
          "internalType": "address",
          "name": "baseToken",
          "type": "address"
        },
        {
          "internalType": "address",
          "name": "user",
          "type": "address"
        },
        {
          "internalType": "uint256",
          "name": "bufferBps",
          "type": "uint256"
        }
      ],
      "name": "isCompoundAtRisk",
      "outputs": [
        {
          "internalType": "bool",
          "name": "",
          "type": "bool"
        }
      ],
      "stateMutability": "view",
      "type": "function"
    },
    {
      "inputs": [
        {
          "components": [
            {
              "internalType": "address",
              "name": "loanToken",
              "type": "address"
            },
            {
              "internalType": "address",
              "name": "collateralToken",
              "type": "address"
            },
            {
              "internalType": "address",
              "name": "oracle",
              "type": "address"
            },
            {
              "internalType": "address",
              "name": "irm",
              "type": "address"
            },
            {
              "internalType": "uint256",
              "name": "lltv",
              "type": "uint256"
            }
          ],
          "internalType": "struct MarketParams",
          "name": "params",
          "type": "tuple"
        },
        {
          "internalType": "address",
          "name": "user",
          "type": "address"
        },
        {
          "internalType": "uint256",
          "name": "bufferBps",
          "type": "uint256"
        }
      ],
      "name": "isMorphoAtRisk",
      "outputs": [
        {
          "internalType": "bool",
          "name": "",
          "type": "bool"
        }
      ],
      "stateMutability": "view",
      "type": "function"
    },
    {
      "inputs": [],
      "name": "owner",
      "outputs": [
        {
          "internalType": "address",
          "name": "",
          "type": "address"
        }
      ],
      "stateMutability": "view",
      "type": "function"
    },
    {
      "inputs": [
        {
          "internalType": "string",
          "name": "protocolName",
          "type": "string"
        },
        {
          "internalType": "address",
          "name": "gateway",
          "type": "address"
        }
      ],
      "name": "setGateway",
      "outputs": [],
      "stateMutability": "nonpayable",
      "type": "function"
    },
    {
      "inputs": [
        {
          "internalType": "string[]",
          "name": "protocolNames",
          "type": "string[]"
        },
        {
          "internalType": "address[]",
          "name": "gatewayAddresses",
          "type": "address[]"
        }
      ],
      "name": "setGateways",
      "outputs": [],
      "stateMutability": "nonpayable",
      "type": "function"
    },
    {
      "inputs": [
        {
          "internalType": "address",
          "name": "newOwner",
          "type": "address"
        }
      ],
      "name": "transferOwnership",
      "outputs": [],
      "stateMutability": "nonpayable",
      "type": "function"
    },
    {
      "inputs": [
        {
          "internalType": "uint256",
          "name": "sellPriceUsd",
          "type": "uint256"
        },
        {
          "internalType": "uint256",
          "name": "buyPriceUsd",
          "type": "uint256"
        }
      ],
      "name": "usdPricesToExchangeRate",
      "outputs": [
        {
          "internalType": "uint256",
          "name": "exchangeRate18",
          "type": "uint256"
        }
      ],
      "stateMutability": "pure",
      "type": "function"
    }
  ],
  "transactionHash": "0x23d3cd022780ccc417f6f639a61792443a0d5f8fcdbc5710c267e88e781a8f56",
  "args": [
    "0x0BE61223F99E57b8b8B7033a77B54Adc7f7cF027"
  ],
  "numDeployments": 14,
  "solcInputHash": "2ace10b08e8433c763920c76101ace03",
  "bytecode": "0x608034608357601f6130a338819003918201601f19168301916001600160401b03831184841017608757808492602094604052833981010312608357516001600160a01b0381169081900360835780156074575f80546001600160a01b031916919091179055604051613007908161009c8239f35b63d92e233d60e01b5f5260045ffd5b5f80fd5b634e487b7160e01b5f52604160045260245ffdfe60806040526004361015610011575f80fd5b5f3560e01c80630794e5031461150f5780630bb5e4a8146114ab5780630ee907831461148f5780630ff219cc1461140b578063168be4db146113a957806318b0933d1461131e5780631a78ccc1146112fc57806324a35ff2146112815780633131489f1461125f578063321394961461123d57806332801a0d1461115c57806337594ea1146110d65780633872bbd1146110aa57806339199bfb14611037578063537ea3421461100457806359407d6f14610fe05780635b29bdfe14610f6a57806362d068c414610ef657806364971cfa14610e905780636812cc5d14610dfe5780636f61dc1114610d54578063755b0ea914610cba57806376e10cba14610c7f57806377ba651014610c0d5780637ad4005114610ba75780638da5cb5b14610b805780638ea6b12714610b5957806390359bcc14610b375780639152cfd114610aff5780639680b44614610a0757806399fec7a0146109e55780639aa743e4146109bd5780639de73085146109a1578063a389d4c2146107cc578063a6a1f16214610745578063a6b6f7a01461071c578063b626e766146106a9578063c2c3215d14610541578063c54a8af714610491578063d016e72714610462578063d66eb92d14610353578063d76b12601461031a578063db236a1f1461025f5763f2fde38b146101fd575f80fd5b3461025b57602036600319011261025b5761021661152b565b5f549061022d336001600160a01b03841614612bf2565b6001600160a01b031690811561024c576001600160a01b031916175f55005b63d92e233d60e01b5f5260045ffd5b5f80fd5b3461025b57602036600319011261025b576004356001600160401b03811161025b573660238201121561025b5760048101356001600160401b03811161030657604051906102b7601f8201601f191660200183611605565b8082526020820190366024828601011161025b576020815f92602483970185378401015260405191518091835e600190820190815281900382019020546040516001600160a01b039091168152f35b634e487b7160e01b5f52604160045260245ffd5b3461025b57366003190160e0811261025b5760a01361025b576020610349610340611557565b60c43590612d46565b6040519015158152f35b3461025b57606036600319011261025b5761036c61152b565b610374611541565b9060443560ff8116810361025b576040516732bab632b916bb1960c11b81526001600882015260289020546001600160a01b0316801561042c576103d293602093604051958694859384936348ca991560e11b855260048501612711565b03915afa8015610421575f906103ee575b602090604051908152f35b506020813d602011610419575b8161040860209383611605565b8101031261025b57602090516103e3565b3d91506103fb565b6040513d5f823e3d90fd5b604051630c54731360e01b815260206004820152600860248201526732bab632b916bb1960c11b604482015280606481015b0390fd5b3461025b57606036600319011261025b57602061034961048061152b565b610488611541565b60443591612c8f565b3461025b57604036600319011261025b576004356001600160401b03811161025b576104c1903690600401611581565b6104c9611541565b6104dd60018060a01b035f54163314612bf2565b6001600160a01b031691821561024c575f516020612fb25f395f51905f52916020916040518282823760018382019081528190038401902080546001600160a01b031916861790556040519182918190833781015f815203902092604051908152a2005b3461025b57604036600319011261025b576004356001600160401b03811161025b57610571903690600401611671565b6024356001600160401b03811161025b57610590903690600401611671565b926105a560018060a01b035f54163314612bf2565b838303610672575f5b8381106105b757005b6001600160a01b036105d26105cd838887612c2a565b612c3a565b161561024c57806105e96105cd6001938887612c2a565b60206105f6838887612c4e565b919082604051938492833781018681520301902090838060a01b0316838060a01b031982541617905560205f516020612fb25f395f51905f5261063a838887612c4e565b61064b6105cd868c8b979597612c2a565b9381604051928392833781015f81520390209260405190868060a01b03168152a2016105ae565b60405162461bcd60e51b815260206004820152600f60248201526e098cadccee8d040dad2e6dac2e8c6d608b1b6044820152606490fd5b3461025b57604036600319011261025b576106c261152b565b6106ca611541565b6040516732bab632b916bb1960c11b81526001600882015260289020546001600160a01b03169190821561042c57604051635ab55e5b60e11b8152926020928492839182916103d291600484016116fa565b3461025b57604036600319011261025b57602061073d602435600435612bc1565b604051908152f35b3461025b57602036600319011261025b5761075e61152b565b6040516732bab632b916bb1960c11b81526001600882015260289020546001600160a01b031690811561042c5760405163288f7ccf60e21b81526001600160a01b03909116600482015290602090829060249082905afa8015610421575f906103ee57602090604051908152f35b3461025b57602036600319011261025b576004356001600160401b03811161025b576107fc903690600401611671565b9060405166616176652d763360c81b815260016007820152602760018060a01b03912054169081156109715760405163053c81b560e01b8152602060048201526024810184905292839160448301915f5b818110610943575050509181805f9403915afa908115610421575f916108b3575b506040518091602082016020835281518091526020604084019201905f5b81811061089a575050500390f35b825184528594506020938401939092019160010161088c565b90503d805f833e6108c48183611605565b81019060208183031261025b578051906001600160401b03821161025b57019080601f8301121561025b5781516108fa8161181e565b926109086040519485611605565b81845260208085019260051b82010192831161025b57602001905b828210610933575050508161086e565b8151815260209182019101610923565b9193509160019060209081906001600160a01b036109608861156d565b16815201940191019185939261084d565b604051630c54731360e01b8152602060048201526007602482015266616176652d763360c81b6044820152606490fd5b3461025b57602061073d6109b4366115ae565b929190916129d7565b3461025b5760406109d96109d0366115ae565b92919091612735565b82519182526020820152f35b3461025b575f36600319011261025b57604051633028125760e01b8152602090f35b3461025b57366003190160c0811261025b5760a01361025b57610a28611557565b6040516a6d6f7270686f2d626c756560a81b81526001600b820152602b9020546001600160a01b03168015610acb57610a78916040918251808095819463025f7ec160e01b835260048301612557565b03915afa908115610421576040915f915f91610a9c575b5082519182526020820152f35b9050610abe9150823d8411610ac4575b610ab68183611605565b81019061200d565b83610a8f565b503d610aac565b604051630c54731360e01b815260206004820152600b60248201526a6d6f7270686f2d626c756560a81b6044820152606490fd5b3461025b5760c036600319011261025b57602061073d610b1d611661565b610b25611651565b90606435604435602435600435612672565b3461025b575f36600319011261025b57604051633c724fef60e11b8152602090f35b3461025b57604036600319011261025b576020610349610b7761152b565b60243590612584565b3461025b575f36600319011261025b575f546040516001600160a01b039091168152602090f35b3461025b57602036600319011261025b57610bc061152b565b60405166616176652d763360c81b81526001600782015260279020546001600160a01b03168015610971576103d2916020916040518080958194630951afe960e41b8352600483016116e1565b3461025b57366003190160c0811261025b5760a01361025b57610c2e611557565b6040516a6d6f7270686f2d626c756560a81b81526001600b820152602b9020546001600160a01b03168015610acb576103d2916020916040518080958194631f1d38c760e11b835260048301612557565b3461025b5760a036600319011261025b5760643560ff8116810361025b5761073d602091610cab611661565b906044356024356004356124df565b3461025b5761010036600319011261025b576004356001600160e01b03198116810361025b57606435906001600160a01b038216820361025b57608435916001600160a01b038316830361025b57610d10611651565b9160c43560ff8116810361025b5760e435936001600160401b03851161025b57602095610d4461073d963690600401611581565b9590946044359060243590612171565b3461025b57604036600319011261025b57610d6d61152b565b610d75611541565b6040516a636f6d706f756e642d763360a81b81526001600b820152602b9020546001600160a01b031691908215610dca57604051630951afe960e41b8152926020928492839182916103d291600484016116fa565b604051630c54731360e01b815260206004820152600b60248201526a636f6d706f756e642d763360a81b6044820152606490fd5b3461025b57602036600319011261025b57610e1761152b565b6040516476656e757360d81b81526001600582015260259020546001600160a01b03168015610e62576103d2916020916040518080958194633b9025c560e01b8352600483016116e1565b604051630c54731360e01b815260206004820152600560248201526476656e757360d81b6044820152606490fd5b3461025b57602036600319011261025b57610ea961152b565b60405166616176652d763360c81b81526001600782015260279020546001600160a01b03168015610971576103d2916020916040518080958194633b9025c560e01b8352600483016116e1565b3461025b57604036600319011261025b57610f0f61152b565b610f17611541565b6040516a636f6d706f756e642d763360a81b81526001600b820152602b9020546001600160a01b031691908215610dca57610a789260409283518095819482936377b57b0760e01b8452600484016116fa565b3461025b57604036600319011261025b57610f8361152b565b610f8b611541565b6040516a636f6d706f756e642d763360a81b81526001600b820152602b9020546001600160a01b031691908215610dca57604051633b9025c560e01b8152926020928492839182916103d291600484016116fa565b3461025b57606036600319011261025b57602061073d6044356024356004356120bc565b3461025b575f36600319011261025b57602061101e611628565b8051908201206040516001600160e01b03199091168152f35b3461025b57604036600319011261025b5761105061152b565b611058611541565b6040516732bab632b916bb1960c11b81526001600882015260289020546001600160a01b03169190821561042c57604051631d6a900960e31b8152926020928492839182916103d291600484016116fa565b3461025b57604036600319011261025b57602061073d6110c861152b565b6110d0611541565b90612051565b3461025b57602036600319011261025b576110ef61152b565b60405166616176652d763360c81b81526001600782015260279020546001600160a01b03169081156109715760405163b3596f0760e01b81526001600160a01b03909116600482015290602090829060249082905afa8015610421575f906103ee57602090604051908152f35b3461025b57602036600319011261025b5761117561152b565b60405166616176652d763360c81b81526001600782015260279020546001600160a01b031690811561097157604051632fe4a15f60e21b81526001600160a01b0390911660048201529060c090829060249082905afa9081156104215760c0915f915f5f5f915f935f95611206575b50604051958652602086015260408501526060840152608083015260a0820152f35b94505050505061122c9150823d8411611236575b6112248183611605565b810190612023565b93909290876111e4565b503d61121a565b3461025b575f36600319011261025b5760405163bbbf88eb60e01b8152602090f35b3461025b575f36600319011261025b57604051633af167ff60e01b8152602090f35b3461025b5760a036600319011261025b576040516a6d6f7270686f2d626c756560a81b81526001600b820152602b9020546001600160a01b03168015610acb57602060a49160405192838092636ac0c36b60e11b82526112e360048301611f30565b5afa8015610421575f906103ee57602090604051908152f35b3461025b575f36600319011261025b576040516308ee5f0360e31b8152602090f35b3461025b57602036600319011261025b5761133761152b565b6040516476656e757360d81b81526001600582015260259020546001600160a01b0316908115610e625760408051632fe4a15f60e21b81526001600160a01b0390921660048301529091829060249082905afa908115610421576040915f915f91610a9c575082519182526020820152f35b3461025b5760a036600319011261025b576040516a6d6f7270686f2d626c756560a81b81526001600b820152602b9020546001600160a01b03168015610acb57602060a49160405192838092632725131160e01b82526112e360048301611f30565b3461025b57602036600319011261025b5761142461152b565b6040516476656e757360d81b81526001600582015260259020546001600160a01b0316908115610e6257604051639f91846160e01b81526001600160a01b03909116600482015290602090829060249082905afa8015610421575f906103ee57602090604051908152f35b3461025b57602061073d6114a2366115ae565b92919091611e93565b3461025b57602036600319011261025b576114c461152b565b6040516476656e757360d81b81526001600582015260259020546001600160a01b03168015610e62576103d2916020916040518080958194630951afe960e41b8352600483016116e1565b3461025b57602061073d611522366115ae565b92919091611956565b600435906001600160a01b038216820361025b57565b602435906001600160a01b038216820361025b57565b60a435906001600160a01b038216820361025b57565b35906001600160a01b038216820361025b57565b9181601f8401121561025b578235916001600160401b03831161025b576020838186019501011161025b57565b606060031982011261025b576004356001600160e01b03198116810361025b57916024356001600160a01b038116810361025b5791604435906001600160401b03821161025b5761160191600401611581565b9091565b601f909101601f19168101906001600160401b0382119082101761030657604052565b60405190611637604083611605565b600b82526a616c6368656d69782d763360a81b6020830152565b60a4359060ff8216820361025b57565b6084359060ff8216820361025b57565b9181601f8401121561025b578235916001600160401b03831161025b576020808501948460051b01011161025b57565b919082604091031261025b576020823592013590565b602060409281835280519182918282860152018484015e5f828201840152601f01601f1916010190565b5f81526001600160a01b03909116602082015260400190565b6001600160a01b0391821681529116602082015260400190565b908160a091031261025b576040519060a08201906001600160401b03821183831017610306576080916040526117498161156d565b83526117576020820161156d565b60208401526117686040820161156d565b60408401526117796060820161156d565b60608401520135608082015290565b80516001600160a01b03908116835260208083015182169084015260408083015182169084015260608083015190911690830152608090810151910152565b61ffff16604d81116117d957600a0a90565b634e487b7160e01b5f52601160045260245ffd5b818102929181159184041417156117d957565b811561180a570490565b634e487b7160e01b5f52601260045260245ffd5b6001600160401b0381116103065760051b60200190565b909160608284031261025b5761184a8261156d565b9260208301356001600160401b03811161025b5783019080601f8301121561025b5781356118778161181e565b926118856040519485611605565b81845260208085019260051b82010192831161025b57602001905b8282106118bd5750505060409092013560ff8116810361025b5790565b602080916118ca8461156d565b8152019101906118a0565b9081602091031261025b57516001600160a01b038116810361025b5790565b9081602091031261025b575160ff8116810361025b5790565b60ff166008039060ff82116117d957565b60ff6007199116019060ff82116117d957565b9060ff8091169116039060ff82116117d957565b60ff16604d81116117d957600a0a90565b61195f81612e02565b9060405182518060208501835e60019082019081528190036020019020546001600160a01b0316918215611e7657506001600160e01b03191663bbbf88eb60e01b8114611e3757633af167ff60e01b8114611dac576308ee5f0360e31b8114611d6d57633028125760e01b8114611c4c575b633c724fef60e11b8114611a91576119e7611628565b80516020909101206001600160e01b03191614611a0a57505050506305f5e10090565b611a1c83611a4d9560209501906116a1565b5060405180958194829363100f1e5160e11b8452600484019081526001600160a01b03909116602082015260400190565b03915afa908115610421575f91611a62575090565b90506020813d602011611a89575b81611a7d60209383611605565b8101031261025b575190565b3d9150611a70565b509190611aa682611acd956020940190611835565b505060018060a01b0316926040518080968194631d6a900960e31b835287600484016116fa565b03915afa918215610421575f92611c18575b508115611c1257602060049160405192838092630fa0ccd960e21b82525afa908115610421575f91611be3575b506012906001600160a01b038116908115159081611bd8575b50611b79575b5060ff81166008811115611b58575090611b4f611b4a611b559361191e565b611945565b90611800565b90565b600811611b63575090565b90611b73611b4a611b559361190d565b906117ed565b60206004916040519283809263313ce56760e01b82525afa5f9181611ba7575b5015611b2b5790505f611b2b565b611bca91925060203d602011611bd1575b611bc28183611605565b8101906118f4565b905f611b99565b503d611bb8565b90503b15155f611b25565b611c05915060203d602011611c0b575b611bfd8183611605565b8101906118d5565b5f611b0c565b503d611bf3565b50505f90565b9091506020813d602011611c44575b81611c3460209383611605565b8101031261025b5751905f611adf565b3d9150611c27565b611c5885850185611714565b604051632725131160e01b815290611c736004830182611788565b60208260a481875afa918215610421575f92611d39575b5081611c975750506119d1565b9450945050505060ff611cc9611cb560018060a01b03845116612f5a565b6020909301516001600160a01b0316612f5a565b911660010b601c0190617fff198212617fff8313176117d95760ff1660010b9060010b0390617fff8213617fff198312176117d957600182900b5f8112611d1b5750611b4f611b559261ffff166117c7565b9150617fff1982146117d957611b73611b55925f0361ffff166117c7565b9091506020813d602011611d65575b81611d5560209383611605565b8101031261025b5751905f611c8a565b3d9150611d48565b50604051639f91846160e01b81526001600160a01b03909216600483015290925060209150829060249082905afa908115610421575f91611a62575090565b50928260209181939401031261025b576001600160a01b0390611dce9061156d565b166001600160a01b038216808214611e065750604051630f2dbd0760e41b815292602092849283918291611a4d9190600484016116fa565b9050602091506024604051809481936341976e0960e01b835260048301525afa908115610421575f91611a62575090565b5060405163b3596f0760e01b81526001600160a01b03909216600483015290925060209150829060249082905afa908115610421575f91611a62575090565b604051630c54731360e01b815290819061045e90600483016116b7565b611e9c81612e02565b9060405182518060208501835e60019082019081528190036020019020546001600160a01b0316918215611e7657506001600160e01b03191663bbbf88eb60e01b8114611e3757633af167ff60e01b8114611dac576308ee5f0360e31b8114611d6d57633028125760e01b8114611f2357633c724fef60e11b8114611a91576119e7611628565b50505050506305f5e10090565b6004356001600160a01b0381169081900361025b5781526024356001600160a01b0381169081900361025b5760208201526044356001600160a01b0381169081900361025b5760408201526064356001600160a01b0381169081900361025b5760608201526080608435910152565b60809081906001600160a01b03611fb58261156d565b1684526001600160a01b03611fcc6020830161156d565b1660208501526001600160a01b03611fe66040830161156d565b1660408501526001600160a01b036120006060830161156d565b1660608501520135910152565b919082604091031261025b576020825192015190565b91908260c091031261025b5781519160208101519160408201519160608101519160a0608083015192015190565b6040516a636f6d706f756e642d763360a81b81526001600b820152602b9020546001600160a01b031691908215610dca576001600160a01b038281169082168114611e065750604051630f2dbd0760e41b815292602092849283918291611a4d9190600484016116fa565b909180156120ff576a0c097ce7bc90715b34b9f160241b916120de91906117ed565b0490612710039061271082116117d957612710916120fb916117ed565b0490565b5050505f90565b805182101561211a5760209160051b010190565b634e487b7160e01b5f52603260045260245ffd5b9284926080959263ffffffff60e01b16855260018060a01b0316602085015260606040850152816060850152848401375f828201840152601f01601f1916010190565b9791929793909361218181612e02565b60405181518060208401835e60019082019081528190036020019020546001600160a01b0316908115611e7657506001600160e01b03198216633028125760e01b811461245457633c724fef60e11b1461230557506020888495969798999a6121ff6040519687938493630794e50360e01b8552876004860161212e565b0381305afa928315610421575f936122cf575b50612235602093946040519a8b948594630ee9078360e01b86526004860161212e565b0381305afa958615610421575f9661229b575b508015808015612293575b61228857670de0b6b3a76400008202918204670de0b6b3a76400001417156117d957611b559561228291611800565b916124df565b505050505050505f90565b508615612253565b9095506020813d6020116122c7575b816122b760209383611605565b8101031261025b5751945f612248565b3d91506122aa565b92506020833d6020116122fd575b816122ea60209383611605565b8101031261025b57915191612235612212565b3d91506122dd565b9761231593810192509050611835565b505f975f5b8251811015612446576001600160a01b036123358285612106565b51604051631953acf960e31b8152911660048201526020816024818d5afa908115610421575f91612428575b506001600160a01b0383811691161461237c5760010161231a565b905061239791929394959697985060018060a01b0392612106565b51165b6001600160a01b0381161561228857604051635ab55e5b60e11b8152966020928892839182916123d6916001600160a01b0316600484016116fa565b03915afa918215610421575f926123f2575b611b5595506124df565b91506020853d602011612420575b8161240d60209383611605565b8101031261025b57611b559451916123e8565b3d9150612400565b612440915060203d8111611c0b57611bfd8183611605565b5f612361565b50505090919293949561239a565b509850505060a491945060209350856124739161248f94970190611714565b604051632725131160e01b815296879384926004840190611788565b5afa918215610421575f926124a9575b611b5593506120bc565b91506020833d6020116124d7575b816124c460209383611605565b8101031261025b57611b5592519161249f565b3d91506124b7565b93919093811561254e57670de0b6b3a7640000916124fc916117ed565b049060ff8381169082161061253857611b4a61251b93611b7392611931565b905b612710039061271082116117d957612710916120fb916117ed565b611b4a611b4f9161254894611931565b9061251d565b50505050505f90565b60c08101929160a09061256b836004611f9f565b600180831b0316910152565b919082018092116117d957565b60405163324b8e7d60e11b81526001600160a01b039091166004820181905291602082602481305afa918215610421575f9261263e575b5060405192637ad4005160e01b84526004840152602083602481305afa928315610421575f9361260a575b5081158015612602575b6120ff576125fd91612577565b101590565b5082156125f0565b9092506020813d602011612636575b8161262660209383611605565b8101031261025b5751915f6125e6565b3d9150612619565b9091506020813d60201161266a575b8161265a60209383611605565b8101031261025b5751905f6125bb565b3d915061264d565b949291939084158080156126f5575b61228857670de0b6b3a76400008602958604670de0b6b3a76400001417156117d9576126b160ff95938694611800565b9060405196633b70865d60e11b885260048801526024870152604486015216606484015216608482015260208160a481305afa908115610421575f91611a62575090565b508315612681565b90929160a09061256b8360c0810196611788565b6001600160a01b0391821681529116602082015260ff909116604082015260600190565b929391909361274384612e02565b9360405185518060208801835e60019082019081528190036020019020546001600160a01b0316948515611e7657506001600160e01b0319169463bbbf88eb60e01b861461296e57633af167ff60e01b861461292757633028125760e01b86146128f5576308ee5f0360e31b86146128b357633c724fef60e11b861461285b57506127cc611628565b80516020909101206001600160e01b03191685146127f75784631f629a1b60e11b5f5260045260245ffd5b6040929394508161280c9160449301906116a1565b9190835195869384926345b0827160e11b8452600484015260248301525afa918215610421575f905f9361283f57509190565b905061160191925060403d604011610ac457610ab68183611605565b9161289b9550806040949592612872920190611835565b8551631a3c41d360e01b815297889586948594509192916001600160a01b031660048501612711565b03915afa918215610421575f905f9361283f57509190565b60408051632fe4a15f60e21b81526001600160a01b03909216600483015290955092938592506024915082905afa918215610421575f905f9361283f57509190565b9161289b955080604094959261290c920190611714565b835180968194829363025f7ec160e01b8452600484016126fd565b9180939495506020918101031261025b5761289b936040926001600160a01b03906129519061156d565b84516377b57b0760e01b81529687948593849316600484016116fa565b604051632fe4a15f60e21b81526001600160a01b0390911660048201529450919260c0925084915060249082905afa918215610421575f905f936129b157509190565b90506129cd91925060c03d60c011611236576112248183611605565b5050505091909190565b919093926129e483612e02565b9260405184518060208701835e60019082019081528190036020019020546001600160a01b0316938415611e7657506001600160e01b0319169463bbbf88eb60e01b8614612ade57633af167ff60e01b8614612b7957633028125760e01b8614612b4657633c724fef60e11b8614612b05576308ee5f0360e31b8614612ade5750612a6d611628565b80516020909101206001600160e01b0319168514612a985784631f629a1b60e11b5f5260045260245ffd5b60209293945081612aad9160449301906116a1565b91906040519485938492630389192b60e41b8452600484015260248301525afa908115610421575f91611a62575090565b915050611a4d9293506020916040518080958194633b9025c560e01b8352600483016116e1565b91611a4d9495508060209492612b1c920190611835565b6040516348ca991560e11b815296879586948594509192916001600160a01b031660048501612711565b91611a4d9495508060209492612b5d920190611714565b604051809581948293631f1d38c760e11b8452600484016126fd565b9180939495506020918101031261025b57611a4d926020926001600160a01b0390612ba39061156d565b604051633b9025c560e01b81529586948593849316600484016116fa565b908015611c1257670de0b6b3a7640000820291808304670de0b6b3a764000014901517156117d957611b5591611800565b15612bf957565b60405162461bcd60e51b81526020600482015260096024820152682737ba1037bbb732b960b91b6044820152606490fd5b919081101561211a5760051b0190565b356001600160a01b038116810361025b5790565b919081101561211a5760051b81013590601e198136030182121561025b5701803591906001600160401b03831161025b57602001823603811361025b579190565b604051632d94deff60e11b815291929060208380612cb18785600484016116fa565b0381305afa928315610421575f93612d10575b50604051636f61dc1160e01b81529360209185918291612ce89190600484016116fa565b0381305afa928315610421575f9361260a575081158015612602576120ff576125fd91612577565b9092506020813d602011612d3e575b81612d2c60209383611605565b8101031261025b575191612ce8612cc4565b3d9150612d1f565b60405163077ba65160e41b815290612d62600480840190611f9f565b6001600160a01b031660a482015260208160c481305afa908115610421575f91612dd0575b50604051631251aff960e11b815291612da4600480850190611f9f565b60208360a481305afa928315610421575f9361260a575081158015612602576120ff576125fd91612577565b90506020813d602011612dfa575b81612deb60209383611605565b8101031261025b57515f612d87565b3d9150612dde565b6001600160e01b0319169063bbbf88eb60e01b8214612f3357633af167ff60e01b8214612f0857633028125760e01b8214612edd57633c724fef60e11b8214612eb5576308ee5f0360e31b8214612e9057612e5b611628565b80516020909101206001600160e01b0319168214612e865750631f629a1b60e11b5f5260045260245ffd5b9050611b55611628565b9050604051612ea0604082611605565b600581526476656e757360d81b602082015290565b9050604051612ec5604082611605565b600881526732bab632b916bb1960c11b602082015290565b9050604051612eed604082611605565b600b81526a6d6f7270686f2d626c756560a81b602082015290565b9050604051612f18604082611605565b600b81526a636f6d706f756e642d763360a81b602082015290565b9050604051612f43604082611605565b6007815266616176652d763360c81b602082015290565b60405163313ce56760e01b815290602090829060049082906001600160a01b03165afa5f9181612f90575b50611b555750601290565b612faa91925060203d602011611bd157611bc28183611605565b905f612f8556febb3e5184c1abd837fdef964aa5dd5330db9956e5956074319da71072fb072d92a264697066735822122055b37a968d38eafccd1907ce1a65fff7cc553624de7115fefe93f9bf0165a49864736f6c634300081e0033",
  "devdoc": {
    "details": "Aggregates gateway view contracts to provide protocol-agnostic LTV queries for ADL Supported protocols:   - \"aave-v3\": Aave V3 (context: empty)   - \"compound-v3\": Compound V3 (context: abi.encode(baseToken address))   - \"morpho-blue\": Morpho Blue (context: abi.encode(MarketParams))   - \"euler-v2\": Euler V2 (context: abi.encode(borrowVault address, collateralVaults address[], subAccountIndex uint8))   - \"venus\": Venus (context: empty)",
    "kind": "dev",
    "methods": {
      "calculateMinBuy(bytes4,uint256,uint256,address,address,uint8,uint8,bytes)": {
        "params": {
          "collateralDecimals": "Collateral token decimals",
          "collateralToken": "Collateral token",
          "context": "Protocol-specific context (see getCurrentLtv)",
          "debtDecimals": "Debt token decimals",
          "debtToken": "Debt token",
          "maxSlippageBps": "Maximum slippage in basis points",
          "protocolId": "Protocol identifier",
          "sellAmount": "Amount to sell"
        },
        "returns": {
          "minBuyAmount": "Minimum acceptable buy amount"
        }
      },
      "calculateMinBuyAmount(uint256,uint256,uint256,uint256,uint8,uint8)": {
        "details": "Convenience function that takes USD prices and converts to exchange rate internally",
        "params": {
          "buyDecimals": "Decimals of buy token",
          "buyPriceUsd": "Price of buyToken (same decimals as sellPriceUsd)",
          "maxSlippageBps": "Maximum slippage in basis points (e.g., 100 = 1%)",
          "sellAmount": "Amount of sellToken",
          "sellDecimals": "Decimals of sell token",
          "sellPriceUsd": "Price of sellToken (any decimals)"
        },
        "returns": {
          "minBuyAmount": "Minimum acceptable buy amount"
        }
      },
      "calculateMinBuyFromRate(uint256,uint256,uint256,uint8,uint8)": {
        "details": "Exchange rate = how many buyTokens per sellToken, scaled by 1e18",
        "params": {
          "buyDecimals": "Decimals of buy token",
          "exchangeRate18": "Exchange rate with 18 decimals (sellToken → buyToken)",
          "maxSlippageBps": "Maximum slippage in basis points (e.g., 100 = 1%)",
          "sellAmount": "Amount of sellToken (in sellToken decimals)",
          "sellDecimals": "Decimals of sell token"
        },
        "returns": {
          "minBuyAmount": "Minimum acceptable buy amount"
        }
      },
      "calculateMorphoMinBuyAmount(uint256,uint256,uint256)": {
        "details": "Morpho oracles return the exchange rate scaled by 1e36      Formula: loanAmount = collateralAmount * price / 1e36      The oracle price already accounts for token decimals",
        "params": {
          "maxSlippageBps": "Maximum slippage in basis points",
          "morphoOraclePrice": "Price from Morpho oracle (36 decimals scale)",
          "sellAmount": "Amount of collateral to sell (in collateral token decimals)"
        },
        "returns": {
          "minBuyAmount": "Minimum acceptable loan tokens to receive"
        }
      },
      "getAaveLtvBps(address)": {
        "params": {
          "user": "The user's address"
        },
        "returns": {
          "ltvBps": "Current LTV in basis points"
        }
      },
      "getAavePrice(address)": {
        "params": {
          "token": "The asset address"
        },
        "returns": {
          "_0": "price Price in 8 decimals USD"
        }
      },
      "getAaveUserAccountData(address)": {
        "params": {
          "user": "The user address"
        },
        "returns": {
          "availableBorrowsBase": "Available borrows in 8 decimals USD",
          "currentLiquidationThreshold": "Liquidation threshold in basis points",
          "healthFactor": "Health factor (1e18 scale)",
          "ltv": "Loan-to-value ratio in basis points",
          "totalCollateralBase": "Total collateral in 8 decimals USD",
          "totalDebtBase": "Total debt in 8 decimals USD"
        }
      },
      "getCollateralPrice(bytes4,address,bytes)": {
        "params": {
          "collateralToken": "Collateral token address",
          "context": "Protocol-specific context (see getCurrentLtv)",
          "protocolId": "Protocol identifier"
        },
        "returns": {
          "price": "Price in 8 decimals USD (or 1e8 for protocols using exchange rates)"
        }
      },
      "getCompoundLtvBps(address,address)": {
        "params": {
          "baseToken": "The base token of the Comet market (e.g., USDC)",
          "user": "The user's address"
        }
      },
      "getCompoundPositionValue(address,address)": {
        "params": {
          "baseToken": "The Comet base token (e.g., USDC)",
          "user": "The user address"
        },
        "returns": {
          "collateralValueUsd": "Total collateral in 8 decimals USD",
          "debtValueUsd": "Total debt in 8 decimals USD"
        }
      },
      "getCompoundPrice(address,address)": {
        "params": {
          "asset": "The asset to price (collateral or base token)",
          "baseToken": "The Comet base token (e.g., USDC)"
        },
        "returns": {
          "_0": "price Price in 8 decimals USD"
        }
      },
      "getCurrentLtv(bytes4,address,bytes)": {
        "params": {
          "context": "Protocol-specific context:   - AAVE_V3: empty bytes   - COMPOUND_V3: abi.encode(baseToken address)   - MORPHO_BLUE: abi.encode(MarketParams)   - EULER_V2: abi.encode(borrowVault address, collateralVaults address[], subAccountIndex uint8)   - VENUS: empty bytes",
          "protocolId": "Protocol identifier (AAVE_V3, COMPOUND_V3, etc.)",
          "user": "User address"
        },
        "returns": {
          "ltvBps": "Current LTV in basis points"
        }
      },
      "getDebtPrice(bytes4,address,bytes)": {
        "params": {
          "context": "Protocol-specific context (see getCurrentLtv)",
          "debtToken": "Debt token address",
          "protocolId": "Protocol identifier"
        },
        "returns": {
          "price": "Price in 8 decimals USD (or 1e8 for protocols using exchange rates)"
        }
      },
      "getEulerExchangeRate(address,address)": {
        "details": "Returns 18-decimal exchange rate ready for calculateMinBuyFromRate()",
        "params": {
          "borrowVault": "The borrow vault (debt side)",
          "collateralVault": "The collateral vault"
        },
        "returns": {
          "_0": "rate18 Exchange rate with 18 decimals"
        }
      },
      "getEulerLtvBps(address,address,uint8)": {
        "params": {
          "subAccountIndex": "The sub-account index (0-255)",
          "user": "The user's address",
          "vault": "The borrow vault address"
        }
      },
      "getEulerPrice(address,address)": {
        "params": {
          "token": "The token to price",
          "vault": "The Euler vault address (determines oracle)"
        },
        "returns": {
          "_0": "price Price in unit of account decimals"
        }
      },
      "getMorphoLtvBps((address,address,address,address,uint256),address)": {
        "params": {
          "params": "The Morpho market parameters",
          "user": "The user's address"
        }
      },
      "getMorphoOraclePrice((address,address,address,address,uint256))": {
        "details": "This is NOT a USD price - it's the exchange rate from collateral to loan token",
        "params": {
          "params": "The Morpho market parameters"
        },
        "returns": {
          "_0": "price Price ratio with 36 decimals"
        }
      },
      "getMorphoPositionValue((address,address,address,address,uint256),address)": {
        "params": {
          "params": "The Morpho market parameters",
          "user": "The user address"
        },
        "returns": {
          "collateralValueUsd": "Total collateral in 8 decimals USD",
          "debtValueUsd": "Total debt in 8 decimals USD"
        }
      },
      "getPositionValue(bytes4,address,bytes)": {
        "params": {
          "context": "Protocol-specific context (see getCurrentLtv)",
          "protocolId": "Protocol identifier",
          "user": "User address"
        },
        "returns": {
          "collateralValueUsd": "Total collateral in 8 decimals USD",
          "debtValueUsd": "Total debt in 8 decimals USD"
        }
      },
      "getVenusLtvBps(address)": {
        "params": {
          "user": "The user's address"
        }
      },
      "getVenusPrice(address)": {
        "params": {
          "underlyingToken": "The underlying asset address"
        },
        "returns": {
          "_0": "price Price in 8 decimals USD"
        }
      },
      "getVenusUserAccountData(address)": {
        "params": {
          "user": "The user address"
        },
        "returns": {
          "totalCollateralUsd": "Total collateral in 8 decimals USD",
          "totalDebtUsd": "Total debt in 8 decimals USD"
        }
      },
      "isAaveAtRisk(address,uint256)": {
        "params": {
          "bufferBps": "Safety buffer in basis points (e.g., 500 = 5%)",
          "user": "The user's address"
        },
        "returns": {
          "atRisk": "True if current LTV + buffer >= liquidation LTV"
        }
      },
      "setGateway(string,address)": {
        "params": {
          "gateway": "Gateway view contract address",
          "protocolName": "Protocol name (e.g., \"aave-v3\", \"morpho-blue\")"
        }
      },
      "setGateways(string[],address[])": {
        "params": {
          "gatewayAddresses": "Array of gateway addresses",
          "protocolNames": "Array of protocol names"
        }
      },
      "transferOwnership(address)": {
        "params": {
          "newOwner": "New owner address"
        }
      },
      "usdPricesToExchangeRate(uint256,uint256)": {
        "details": "exchangeRate18 = sellPriceUsd * 1e18 / buyPriceUsd",
        "params": {
          "buyPriceUsd": "USD price of buy token (any decimals, but same as sellPriceUsd)",
          "sellPriceUsd": "USD price of sell token (any decimals, but same as buyPriceUsd)"
        },
        "returns": {
          "exchangeRate18": "Exchange rate with 18 decimals"
        }
      }
    },
    "title": "KapanViewRouter",
    "version": 1
  },
  "userdoc": {
    "kind": "user",
    "methods": {
      "AAVE_V3()": {
        "notice": "Protocol identifiers (bytes4 for unified interface)"
      },
      "calculateMinBuy(bytes4,uint256,uint256,address,address,uint8,uint8,bytes)": {
        "notice": "Calculate minimum buy amount with slippage for any protocol (unified interface)"
      },
      "calculateMinBuyAmount(uint256,uint256,uint256,uint256,uint8,uint8)": {
        "notice": "Calculate minimum buy amount for ADL order with slippage protection"
      },
      "calculateMinBuyFromRate(uint256,uint256,uint256,uint8,uint8)": {
        "notice": "Calculate minimum buy amount using exchange rate"
      },
      "calculateMorphoMinBuyAmount(uint256,uint256,uint256)": {
        "notice": "Calculate minimum buy amount for Morpho ADL orders"
      },
      "gateways(string)": {
        "notice": "Protocol name => gateway view address (consistent with KapanRouter)"
      },
      "getAaveLiquidationLtvBps(address)": {
        "notice": "Get liquidation LTV for Aave V3"
      },
      "getAaveLtvBps(address)": {
        "notice": "Get current LTV for Aave V3"
      },
      "getAavePrice(address)": {
        "notice": "Get asset price via Aave oracle (8 decimals)"
      },
      "getAavePrices(address[])": {
        "notice": "Get multiple asset prices via Aave oracle"
      },
      "getAaveUserAccountData(address)": {
        "notice": "Get Aave user account data (collateral and debt in USD)"
      },
      "getCollateralPrice(bytes4,address,bytes)": {
        "notice": "Get collateral price for any protocol (unified interface)"
      },
      "getCompoundLiquidationLtvBps(address,address)": {
        "notice": "Get liquidation LTV for Compound V3"
      },
      "getCompoundLtvBps(address,address)": {
        "notice": "Get current LTV for Compound V3"
      },
      "getCompoundPositionValue(address,address)": {
        "notice": "Get Compound position value (collateral and debt in USD)"
      },
      "getCompoundPrice(address,address)": {
        "notice": "Get asset price via Compound (8 decimals)"
      },
      "getCurrentLtv(bytes4,address,bytes)": {
        "notice": "Get current LTV for any protocol (unified interface)"
      },
      "getDebtPrice(bytes4,address,bytes)": {
        "notice": "Get debt price for any protocol (unified interface)"
      },
      "getEulerExchangeRate(address,address)": {
        "notice": "Get exchange rate for Euler position (collateral → debt)"
      },
      "getEulerLiquidationLtvBps(address)": {
        "notice": "Get liquidation LTV for Euler V2"
      },
      "getEulerLtvBps(address,address,uint8)": {
        "notice": "Get current LTV for Euler V2"
      },
      "getEulerPrice(address,address)": {
        "notice": "Get asset price via Euler oracle (in vault's unit of account)"
      },
      "getMorphoLiquidationLtvBps((address,address,address,address,uint256))": {
        "notice": "Get liquidation LTV for Morpho Blue"
      },
      "getMorphoLtvBps((address,address,address,address,uint256),address)": {
        "notice": "Get current LTV for Morpho Blue"
      },
      "getMorphoOraclePrice((address,address,address,address,uint256))": {
        "notice": "Get Morpho oracle price (36 decimals, collateral/loan ratio)"
      },
      "getMorphoPositionValue((address,address,address,address,uint256),address)": {
        "notice": "Get Morpho position value (collateral and debt in USD)"
      },
      "getPositionValue(bytes4,address,bytes)": {
        "notice": "Get position value for any protocol (unified interface)"
      },
      "getVenusLiquidationLtvBps(address)": {
        "notice": "Get liquidation LTV for Venus"
      },
      "getVenusLtvBps(address)": {
        "notice": "Get current LTV for Venus"
      },
      "getVenusPrice(address)": {
        "notice": "Get asset price via Venus oracle (8 decimals normalized)"
      },
      "getVenusUserAccountData(address)": {
        "notice": "Get Venus user account data (collateral and debt in USD)"
      },
      "isAaveAtRisk(address,uint256)": {
        "notice": "Check if Aave position is at liquidation risk"
      },
      "isCompoundAtRisk(address,address,uint256)": {
        "notice": "Check if Compound position is at liquidation risk"
      },
      "isMorphoAtRisk((address,address,address,address,uint256),address,uint256)": {
        "notice": "Check if Morpho position is at liquidation risk"
      },
      "owner()": {
        "notice": "Owner who can update gateway addresses"
      },
      "setGateway(string,address)": {
        "notice": "Set or update a gateway view address"
      },
      "setGateways(string[],address[])": {
        "notice": "Batch set multiple gateways"
      },
      "transferOwnership(address)": {
        "notice": "Transfer ownership"
      },
      "usdPricesToExchangeRate(uint256,uint256)": {
        "notice": "Convert two USD prices (same decimals) to an 18-decimal exchange rate"
      }
    },
    "notice": "Unified read-only router for querying position data across lending protocols",
    "version": 1
  },
  "storageLayout": {
    "storage": [
      {
        "astId": 461,
        "contract": "contracts/v2/KapanViewRouter.sol:KapanViewRouter",
        "label": "owner",
        "offset": 0,
        "slot": "0",
        "type": "t_address"
      },
      {
        "astId": 466,
        "contract": "contracts/v2/KapanViewRouter.sol:KapanViewRouter",
        "label": "gateways",
        "offset": 0,
        "slot": "1",
        "type": "t_mapping(t_string_memory_ptr,t_address)"
      }
    ],
    "types": {
      "t_address": {
        "encoding": "inplace",
        "label": "address",
        "numberOfBytes": "20"
      },
      "t_mapping(t_string_memory_ptr,t_address)": {
        "encoding": "mapping",
        "key": "t_string_memory_ptr",
        "label": "mapping(string => address)",
        "numberOfBytes": "32",
        "value": "t_address"
      },
      "t_string_memory_ptr": {
        "encoding": "bytes",
        "label": "string",
        "numberOfBytes": "32"
      }
    }
  }
}