{
  "address": "0xEBe83a05f3622CE2B8933dAee4C81Db8a726ddab",
  "abi": [
    {
      "inputs": [
        {
          "internalType": "address",
          "name": "_owner",
          "type": "address"
        },
        {
          "internalType": "address",
          "name": "_router",
          "type": "address"
        },
        {
          "internalType": "address",
          "name": "_composableCoW",
          "type": "address"
        },
        {
          "internalType": "address",
          "name": "_settlement",
          "type": "address"
        },
        {
          "internalType": "address",
          "name": "_hooksTrampoline",
          "type": "address"
        }
      ],
      "stateMutability": "nonpayable",
      "type": "constructor"
    },
    {
      "inputs": [
        {
          "internalType": "address",
          "name": "target",
          "type": "address"
        }
      ],
      "name": "AddressEmptyCode",
      "type": "error"
    },
    {
      "inputs": [
        {
          "internalType": "address",
          "name": "account",
          "type": "address"
        }
      ],
      "name": "AddressInsufficientBalance",
      "type": "error"
    },
    {
      "inputs": [],
      "name": "CannotCancelMidExecution",
      "type": "error"
    },
    {
      "inputs": [],
      "name": "FailedInnerCall",
      "type": "error"
    },
    {
      "inputs": [
        {
          "internalType": "address",
          "name": "expected",
          "type": "address"
        },
        {
          "internalType": "address",
          "name": "actual",
          "type": "address"
        }
      ],
      "name": "InstructionUserMismatch",
      "type": "error"
    },
    {
      "inputs": [],
      "name": "InvalidChunkWindow",
      "type": "error"
    },
    {
      "inputs": [],
      "name": "InvalidOrderState",
      "type": "error"
    },
    {
      "inputs": [],
      "name": "InvalidTokens",
      "type": "error"
    },
    {
      "inputs": [],
      "name": "InvalidTrigger",
      "type": "error"
    },
    {
      "inputs": [],
      "name": "MaxOrdersExceeded",
      "type": "error"
    },
    {
      "inputs": [],
      "name": "NoTokensReceived",
      "type": "error"
    },
    {
      "inputs": [],
      "name": "NotHooksTrampoline",
      "type": "error"
    },
    {
      "inputs": [],
      "name": "OrderAlreadyExists",
      "type": "error"
    },
    {
      "inputs": [],
      "name": "OrderNotFound",
      "type": "error"
    },
    {
      "inputs": [
        {
          "internalType": "address",
          "name": "owner",
          "type": "address"
        }
      ],
      "name": "OwnableInvalidOwner",
      "type": "error"
    },
    {
      "inputs": [
        {
          "internalType": "address",
          "name": "account",
          "type": "address"
        }
      ],
      "name": "OwnableUnauthorizedAccount",
      "type": "error"
    },
    {
      "inputs": [],
      "name": "PreHookAlreadyExecuted",
      "type": "error"
    },
    {
      "inputs": [],
      "name": "PreHookNotExecuted",
      "type": "error"
    },
    {
      "inputs": [],
      "name": "ReentrancyGuardReentrantCall",
      "type": "error"
    },
    {
      "inputs": [
        {
          "internalType": "address",
          "name": "token",
          "type": "address"
        }
      ],
      "name": "SafeERC20FailedOperation",
      "type": "error"
    },
    {
      "inputs": [],
      "name": "SaltAlreadyUsed",
      "type": "error"
    },
    {
      "inputs": [],
      "name": "TriggerNotMet",
      "type": "error"
    },
    {
      "inputs": [],
      "name": "Unauthorized",
      "type": "error"
    },
    {
      "inputs": [],
      "name": "ValidToOverflow",
      "type": "error"
    },
    {
      "inputs": [],
      "name": "ZeroAddress",
      "type": "error"
    },
    {
      "anonymous": false,
      "inputs": [
        {
          "indexed": false,
          "internalType": "uint256",
          "name": "oldWindow",
          "type": "uint256"
        },
        {
          "indexed": false,
          "internalType": "uint256",
          "name": "newWindow",
          "type": "uint256"
        }
      ],
      "name": "ChunkWindowUpdated",
      "type": "event"
    },
    {
      "anonymous": false,
      "inputs": [
        {
          "indexed": true,
          "internalType": "bytes32",
          "name": "orderHash",
          "type": "bytes32"
        },
        {
          "indexed": true,
          "internalType": "address",
          "name": "user",
          "type": "address"
        }
      ],
      "name": "ConditionalOrderCancelled",
      "type": "event"
    },
    {
      "anonymous": false,
      "inputs": [
        {
          "indexed": true,
          "internalType": "bytes32",
          "name": "orderHash",
          "type": "bytes32"
        },
        {
          "indexed": true,
          "internalType": "address",
          "name": "user",
          "type": "address"
        },
        {
          "indexed": false,
          "internalType": "uint256",
          "name": "iterations",
          "type": "uint256"
        }
      ],
      "name": "ConditionalOrderCompleted",
      "type": "event"
    },
    {
      "anonymous": false,
      "inputs": [
        {
          "indexed": true,
          "internalType": "bytes32",
          "name": "orderHash",
          "type": "bytes32"
        },
        {
          "indexed": true,
          "internalType": "address",
          "name": "user",
          "type": "address"
        },
        {
          "indexed": false,
          "internalType": "address",
          "name": "trigger",
          "type": "address"
        },
        {
          "indexed": false,
          "internalType": "address",
          "name": "sellToken",
          "type": "address"
        },
        {
          "indexed": false,
          "internalType": "address",
          "name": "buyToken",
          "type": "address"
        }
      ],
      "name": "ConditionalOrderCreated",
      "type": "event"
    },
    {
      "anonymous": false,
      "inputs": [
        {
          "indexed": true,
          "internalType": "address",
          "name": "oldHandler",
          "type": "address"
        },
        {
          "indexed": true,
          "internalType": "address",
          "name": "newHandler",
          "type": "address"
        }
      ],
      "name": "OrderHandlerUpdated",
      "type": "event"
    },
    {
      "anonymous": false,
      "inputs": [
        {
          "indexed": true,
          "internalType": "address",
          "name": "previousOwner",
          "type": "address"
        },
        {
          "indexed": true,
          "internalType": "address",
          "name": "newOwner",
          "type": "address"
        }
      ],
      "name": "OwnershipTransferred",
      "type": "event"
    },
    {
      "anonymous": false,
      "inputs": [
        {
          "indexed": true,
          "internalType": "bytes32",
          "name": "orderHash",
          "type": "bytes32"
        },
        {
          "indexed": false,
          "internalType": "uint256",
          "name": "iteration",
          "type": "uint256"
        },
        {
          "indexed": false,
          "internalType": "uint256",
          "name": "receivedAmount",
          "type": "uint256"
        }
      ],
      "name": "PostHookExecuted",
      "type": "event"
    },
    {
      "anonymous": false,
      "inputs": [
        {
          "indexed": true,
          "internalType": "bytes32",
          "name": "orderHash",
          "type": "bytes32"
        },
        {
          "indexed": false,
          "internalType": "uint256",
          "name": "iteration",
          "type": "uint256"
        }
      ],
      "name": "PreHookExecuted",
      "type": "event"
    },
    {
      "anonymous": false,
      "inputs": [
        {
          "indexed": true,
          "internalType": "bytes32",
          "name": "orderHash",
          "type": "bytes32"
        },
        {
          "indexed": true,
          "internalType": "address",
          "name": "user",
          "type": "address"
        }
      ],
      "name": "StuckOrderReset",
      "type": "event"
    },
    {
      "anonymous": false,
      "inputs": [
        {
          "indexed": true,
          "internalType": "address",
          "name": "token",
          "type": "address"
        },
        {
          "indexed": true,
          "internalType": "address",
          "name": "to",
          "type": "address"
        },
        {
          "indexed": false,
          "internalType": "uint256",
          "name": "amount",
          "type": "uint256"
        }
      ],
      "name": "TokensRecovered",
      "type": "event"
    },
    {
      "anonymous": false,
      "inputs": [
        {
          "indexed": true,
          "internalType": "bytes32",
          "name": "orderHash",
          "type": "bytes32"
        },
        {
          "indexed": false,
          "internalType": "uint256",
          "name": "iteration",
          "type": "uint256"
        },
        {
          "indexed": false,
          "internalType": "uint256",
          "name": "sellAmount",
          "type": "uint256"
        },
        {
          "indexed": false,
          "internalType": "uint256",
          "name": "buyAmount",
          "type": "uint256"
        }
      ],
      "name": "TriggerExecuted",
      "type": "event"
    },
    {
      "anonymous": false,
      "inputs": [
        {
          "indexed": true,
          "internalType": "address",
          "name": "token",
          "type": "address"
        },
        {
          "indexed": true,
          "internalType": "address",
          "name": "vaultRelayer",
          "type": "address"
        }
      ],
      "name": "VaultRelayerApproved",
      "type": "event"
    },
    {
      "inputs": [],
      "name": "DEFAULT_CHUNK_WINDOW",
      "outputs": [
        {
          "internalType": "uint256",
          "name": "",
          "type": "uint256"
        }
      ],
      "stateMutability": "view",
      "type": "function"
    },
    {
      "inputs": [],
      "name": "MAX_CHUNK_WINDOW",
      "outputs": [
        {
          "internalType": "uint256",
          "name": "",
          "type": "uint256"
        }
      ],
      "stateMutability": "view",
      "type": "function"
    },
    {
      "inputs": [],
      "name": "MAX_ORDERS_PER_USER",
      "outputs": [
        {
          "internalType": "uint256",
          "name": "",
          "type": "uint256"
        }
      ],
      "stateMutability": "view",
      "type": "function"
    },
    {
      "inputs": [],
      "name": "MIN_CHUNK_WINDOW",
      "outputs": [
        {
          "internalType": "uint256",
          "name": "",
          "type": "uint256"
        }
      ],
      "stateMutability": "view",
      "type": "function"
    },
    {
      "inputs": [
        {
          "internalType": "address",
          "name": "token",
          "type": "address"
        }
      ],
      "name": "approveVaultRelayer",
      "outputs": [],
      "stateMutability": "nonpayable",
      "type": "function"
    },
    {
      "inputs": [
        {
          "internalType": "bytes32",
          "name": "",
          "type": "bytes32"
        }
      ],
      "name": "cachedBuyAmount",
      "outputs": [
        {
          "internalType": "uint256",
          "name": "",
          "type": "uint256"
        }
      ],
      "stateMutability": "view",
      "type": "function"
    },
    {
      "inputs": [
        {
          "internalType": "bytes32",
          "name": "",
          "type": "bytes32"
        }
      ],
      "name": "cachedSellAmount",
      "outputs": [
        {
          "internalType": "uint256",
          "name": "",
          "type": "uint256"
        }
      ],
      "stateMutability": "view",
      "type": "function"
    },
    {
      "inputs": [
        {
          "internalType": "bytes32",
          "name": "orderHash",
          "type": "bytes32"
        }
      ],
      "name": "cancelOrder",
      "outputs": [],
      "stateMutability": "nonpayable",
      "type": "function"
    },
    {
      "inputs": [],
      "name": "chunkWindow",
      "outputs": [
        {
          "internalType": "uint256",
          "name": "",
          "type": "uint256"
        }
      ],
      "stateMutability": "view",
      "type": "function"
    },
    {
      "inputs": [],
      "name": "composableCoW",
      "outputs": [
        {
          "internalType": "contract IComposableCoW",
          "name": "",
          "type": "address"
        }
      ],
      "stateMutability": "view",
      "type": "function"
    },
    {
      "inputs": [
        {
          "components": [
            {
              "internalType": "address",
              "name": "user",
              "type": "address"
            },
            {
              "internalType": "address",
              "name": "trigger",
              "type": "address"
            },
            {
              "internalType": "bytes",
              "name": "triggerStaticData",
              "type": "bytes"
            },
            {
              "internalType": "bytes",
              "name": "preInstructions",
              "type": "bytes"
            },
            {
              "internalType": "address",
              "name": "sellToken",
              "type": "address"
            },
            {
              "internalType": "address",
              "name": "buyToken",
              "type": "address"
            },
            {
              "internalType": "bytes",
              "name": "postInstructions",
              "type": "bytes"
            },
            {
              "internalType": "bytes32",
              "name": "appDataHash",
              "type": "bytes32"
            },
            {
              "internalType": "uint256",
              "name": "maxIterations",
              "type": "uint256"
            },
            {
              "internalType": "address",
              "name": "sellTokenRefundAddress",
              "type": "address"
            }
          ],
          "internalType": "struct KapanConditionalOrderManager.KapanOrderParams",
          "name": "params",
          "type": "tuple"
        },
        {
          "internalType": "bytes32",
          "name": "salt",
          "type": "bytes32"
        }
      ],
      "name": "createOrder",
      "outputs": [
        {
          "internalType": "bytes32",
          "name": "orderHash",
          "type": "bytes32"
        }
      ],
      "stateMutability": "nonpayable",
      "type": "function"
    },
    {
      "inputs": [
        {
          "internalType": "bytes32",
          "name": "orderHash",
          "type": "bytes32"
        }
      ],
      "name": "executePostHook",
      "outputs": [],
      "stateMutability": "nonpayable",
      "type": "function"
    },
    {
      "inputs": [
        {
          "internalType": "address",
          "name": "user",
          "type": "address"
        },
        {
          "internalType": "bytes32",
          "name": "salt",
          "type": "bytes32"
        }
      ],
      "name": "executePostHookBySalt",
      "outputs": [],
      "stateMutability": "nonpayable",
      "type": "function"
    },
    {
      "inputs": [
        {
          "internalType": "bytes32",
          "name": "orderHash",
          "type": "bytes32"
        }
      ],
      "name": "executePreHook",
      "outputs": [],
      "stateMutability": "nonpayable",
      "type": "function"
    },
    {
      "inputs": [
        {
          "internalType": "address",
          "name": "user",
          "type": "address"
        },
        {
          "internalType": "bytes32",
          "name": "salt",
          "type": "bytes32"
        }
      ],
      "name": "executePreHookBySalt",
      "outputs": [],
      "stateMutability": "nonpayable",
      "type": "function"
    },
    {
      "inputs": [
        {
          "internalType": "bytes32",
          "name": "orderHash",
          "type": "bytes32"
        }
      ],
      "name": "getExecutionAmounts",
      "outputs": [
        {
          "internalType": "uint256",
          "name": "sellAmount",
          "type": "uint256"
        },
        {
          "internalType": "uint256",
          "name": "minBuyAmount",
          "type": "uint256"
        }
      ],
      "stateMutability": "view",
      "type": "function"
    },
    {
      "inputs": [
        {
          "internalType": "bytes32",
          "name": "orderHash",
          "type": "bytes32"
        }
      ],
      "name": "getOrder",
      "outputs": [
        {
          "components": [
            {
              "components": [
                {
                  "internalType": "address",
                  "name": "user",
                  "type": "address"
                },
                {
                  "internalType": "address",
                  "name": "trigger",
                  "type": "address"
                },
                {
                  "internalType": "bytes",
                  "name": "triggerStaticData",
                  "type": "bytes"
                },
                {
                  "internalType": "bytes",
                  "name": "preInstructions",
                  "type": "bytes"
                },
                {
                  "internalType": "address",
                  "name": "sellToken",
                  "type": "address"
                },
                {
                  "internalType": "address",
                  "name": "buyToken",
                  "type": "address"
                },
                {
                  "internalType": "bytes",
                  "name": "postInstructions",
                  "type": "bytes"
                },
                {
                  "internalType": "bytes32",
                  "name": "appDataHash",
                  "type": "bytes32"
                },
                {
                  "internalType": "uint256",
                  "name": "maxIterations",
                  "type": "uint256"
                },
                {
                  "internalType": "address",
                  "name": "sellTokenRefundAddress",
                  "type": "address"
                }
              ],
              "internalType": "struct KapanConditionalOrderManager.KapanOrderParams",
              "name": "params",
              "type": "tuple"
            },
            {
              "internalType": "enum KapanConditionalOrderManager.OrderStatus",
              "name": "status",
              "type": "uint8"
            },
            {
              "internalType": "uint256",
              "name": "iterationCount",
              "type": "uint256"
            },
            {
              "internalType": "uint256",
              "name": "createdAt",
              "type": "uint256"
            }
          ],
          "internalType": "struct KapanConditionalOrderManager.OrderContext",
          "name": "",
          "type": "tuple"
        }
      ],
      "stateMutability": "view",
      "type": "function"
    },
    {
      "inputs": [
        {
          "internalType": "address",
          "name": "user",
          "type": "address"
        }
      ],
      "name": "getUserOrders",
      "outputs": [
        {
          "internalType": "bytes32[]",
          "name": "",
          "type": "bytes32[]"
        }
      ],
      "stateMutability": "view",
      "type": "function"
    },
    {
      "inputs": [],
      "name": "hooksTrampoline",
      "outputs": [
        {
          "internalType": "address",
          "name": "",
          "type": "address"
        }
      ],
      "stateMutability": "view",
      "type": "function"
    },
    {
      "inputs": [
        {
          "internalType": "bytes32",
          "name": "orderHash",
          "type": "bytes32"
        }
      ],
      "name": "isTriggerMet",
      "outputs": [
        {
          "internalType": "bool",
          "name": "shouldExecute",
          "type": "bool"
        },
        {
          "internalType": "string",
          "name": "reason",
          "type": "string"
        }
      ],
      "stateMutability": "view",
      "type": "function"
    },
    {
      "inputs": [
        {
          "internalType": "bytes32",
          "name": "_hash",
          "type": "bytes32"
        },
        {
          "internalType": "bytes",
          "name": "_signature",
          "type": "bytes"
        }
      ],
      "name": "isValidSignature",
      "outputs": [
        {
          "internalType": "bytes4",
          "name": "",
          "type": "bytes4"
        }
      ],
      "stateMutability": "view",
      "type": "function"
    },
    {
      "inputs": [],
      "name": "orderHandler",
      "outputs": [
        {
          "internalType": "address",
          "name": "",
          "type": "address"
        }
      ],
      "stateMutability": "view",
      "type": "function"
    },
    {
      "inputs": [
        {
          "internalType": "bytes32",
          "name": "",
          "type": "bytes32"
        }
      ],
      "name": "orderSalts",
      "outputs": [
        {
          "internalType": "bytes32",
          "name": "",
          "type": "bytes32"
        }
      ],
      "stateMutability": "view",
      "type": "function"
    },
    {
      "inputs": [
        {
          "internalType": "bytes32",
          "name": "",
          "type": "bytes32"
        }
      ],
      "name": "orders",
      "outputs": [
        {
          "components": [
            {
              "internalType": "address",
              "name": "user",
              "type": "address"
            },
            {
              "internalType": "address",
              "name": "trigger",
              "type": "address"
            },
            {
              "internalType": "bytes",
              "name": "triggerStaticData",
              "type": "bytes"
            },
            {
              "internalType": "bytes",
              "name": "preInstructions",
              "type": "bytes"
            },
            {
              "internalType": "address",
              "name": "sellToken",
              "type": "address"
            },
            {
              "internalType": "address",
              "name": "buyToken",
              "type": "address"
            },
            {
              "internalType": "bytes",
              "name": "postInstructions",
              "type": "bytes"
            },
            {
              "internalType": "bytes32",
              "name": "appDataHash",
              "type": "bytes32"
            },
            {
              "internalType": "uint256",
              "name": "maxIterations",
              "type": "uint256"
            },
            {
              "internalType": "address",
              "name": "sellTokenRefundAddress",
              "type": "address"
            }
          ],
          "internalType": "struct KapanConditionalOrderManager.KapanOrderParams",
          "name": "params",
          "type": "tuple"
        },
        {
          "internalType": "enum KapanConditionalOrderManager.OrderStatus",
          "name": "status",
          "type": "uint8"
        },
        {
          "internalType": "uint256",
          "name": "iterationCount",
          "type": "uint256"
        },
        {
          "internalType": "uint256",
          "name": "createdAt",
          "type": "uint256"
        }
      ],
      "stateMutability": "view",
      "type": "function"
    },
    {
      "inputs": [],
      "name": "owner",
      "outputs": [
        {
          "internalType": "address",
          "name": "",
          "type": "address"
        }
      ],
      "stateMutability": "view",
      "type": "function"
    },
    {
      "inputs": [
        {
          "internalType": "bytes32",
          "name": "",
          "type": "bytes32"
        }
      ],
      "name": "preHookBuyBalance",
      "outputs": [
        {
          "internalType": "uint256",
          "name": "",
          "type": "uint256"
        }
      ],
      "stateMutability": "view",
      "type": "function"
    },
    {
      "inputs": [
        {
          "internalType": "bytes32",
          "name": "",
          "type": "bytes32"
        }
      ],
      "name": "preHookExecutedForIteration",
      "outputs": [
        {
          "internalType": "uint256",
          "name": "",
          "type": "uint256"
        }
      ],
      "stateMutability": "view",
      "type": "function"
    },
    {
      "inputs": [
        {
          "internalType": "bytes32",
          "name": "",
          "type": "bytes32"
        }
      ],
      "name": "preHookSellBalance",
      "outputs": [
        {
          "internalType": "uint256",
          "name": "",
          "type": "uint256"
        }
      ],
      "stateMutability": "view",
      "type": "function"
    },
    {
      "inputs": [
        {
          "internalType": "address",
          "name": "token",
          "type": "address"
        },
        {
          "internalType": "address",
          "name": "to",
          "type": "address"
        },
        {
          "internalType": "uint256",
          "name": "amount",
          "type": "uint256"
        }
      ],
      "name": "recoverTokens",
      "outputs": [],
      "stateMutability": "nonpayable",
      "type": "function"
    },
    {
      "inputs": [],
      "name": "renounceOwnership",
      "outputs": [],
      "stateMutability": "nonpayable",
      "type": "function"
    },
    {
      "inputs": [
        {
          "internalType": "bytes32",
          "name": "orderHash",
          "type": "bytes32"
        }
      ],
      "name": "resetStuckOrder",
      "outputs": [],
      "stateMutability": "nonpayable",
      "type": "function"
    },
    {
      "inputs": [],
      "name": "router",
      "outputs": [
        {
          "internalType": "contract IKapanRouter",
          "name": "",
          "type": "address"
        }
      ],
      "stateMutability": "view",
      "type": "function"
    },
    {
      "inputs": [
        {
          "internalType": "uint256",
          "name": "_chunkWindow",
          "type": "uint256"
        }
      ],
      "name": "setChunkWindow",
      "outputs": [],
      "stateMutability": "nonpayable",
      "type": "function"
    },
    {
      "inputs": [
        {
          "internalType": "address",
          "name": "_orderHandler",
          "type": "address"
        }
      ],
      "name": "setOrderHandler",
      "outputs": [],
      "stateMutability": "nonpayable",
      "type": "function"
    },
    {
      "inputs": [],
      "name": "settlement",
      "outputs": [
        {
          "internalType": "contract IGPv2Settlement",
          "name": "",
          "type": "address"
        }
      ],
      "stateMutability": "view",
      "type": "function"
    },
    {
      "inputs": [
        {
          "internalType": "address",
          "name": "newOwner",
          "type": "address"
        }
      ],
      "name": "transferOwnership",
      "outputs": [],
      "stateMutability": "nonpayable",
      "type": "function"
    },
    {
      "inputs": [
        {
          "internalType": "address",
          "name": "",
          "type": "address"
        },
        {
          "internalType": "uint256",
          "name": "",
          "type": "uint256"
        }
      ],
      "name": "userOrders",
      "outputs": [
        {
          "internalType": "bytes32",
          "name": "",
          "type": "bytes32"
        }
      ],
      "stateMutability": "view",
      "type": "function"
    },
    {
      "inputs": [
        {
          "internalType": "address",
          "name": "",
          "type": "address"
        },
        {
          "internalType": "bytes32",
          "name": "",
          "type": "bytes32"
        }
      ],
      "name": "userSaltToOrderHash",
      "outputs": [
        {
          "internalType": "bytes32",
          "name": "",
          "type": "bytes32"
        }
      ],
      "stateMutability": "view",
      "type": "function"
    }
  ],
  "transactionHash": "0x3e5be43a0858629fca44e268cd5681bc1e222fe61588bea7b8d2807472307d52",
  "args": [
    "0x0BE61223F99E57b8b8B7033a77B54Adc7f7cF027",
    "0x42a3E18f8B7656f22ef4738e9751B1034913C238",
    "0xfdaFc9d1902f4e0b84f65F49f244b32b31013b74",
    "0x9008D19f58AAbD9eD0D60971565AA8510560ab41",
    "0x60Bf78233f48eC42eE3F101b9a05eC7878728006"
  ],
  "numDeployments": 19,
  "solcInputHash": "0f085dc6f77c827eeccc5fb39a34b567",
  "bytecode": "0x610100346101ce57601f613cdd38819003918201601f19168301916001600160401b038311848410176101d25780849260a0946040528339810103126101ce57610048816101e6565b610054602083016101e6565b91610061604082016101e6565b9061007a6080610073606084016101e6565b92016101e6565b6001600160a01b039093169384156101bb575f80546001600160a01b031981168717825560405196916001600160a01b03909116907f8be0079c531659141344cd1fd0a4f28419497f9722a3daafe3b4186f6b6457e09080a3600180556107086002556001600160a01b03169182156101ac576001600160a01b03169081156101ac576001600160a01b03169182156101ac576001600160a01b038416156101ac5760805260a05260c05260e052613ae290816101fb82396080518181816101d501528181612eda015261359c015260a0518181816107280152818161093e015281816115dd015261246c015260c05181818161051401528181610ed90152818161166e01526122b5015260e0518181816102f901528181610495015281816107c4015281816108170152610f560152f35b63d92e233d60e01b5f5260045ffd5b631e4fbdf760e01b5f525f60045260245ffd5b5f80fd5b634e487b7160e01b5f52604160045260245ffd5b51906001600160a01b03821682036101ce5756fe6080806040526004361015610012575f80fd5b5f905f3560e01c908163031d974214611baa575080631626ba7e14611b38578063268a0ec114611b0e578063277fa0d014610fb55780632fbff5a414610f32578063507f0e7414610f085780635116063014610ec357806351fe1db514610e995780635485b15814610e7d57806355024ca714610dab578063568ed81214610d8e5780635778472a14610c7f5780635e10bce414610c545780635f3e849f14610bb757806363c69f0814610b31578063715018a614610aea5780637489ec23146108be5780637f881ea0146108945780638009fb6a146107f357806381e6d3ce146107ae578063856652e9146107575780638b0f4834146107125780638da5cb5b146106eb5780639c3f1e901461067a578063a4362152146105fa578063b5848305146105d1578063c73bb4bd146104ce578063caf2185614610479578063cea4b43614610436578063d22b05861461040c578063d7a3aca714610388578063de7cdda414610348578063e0b787e4146102dd578063ea697186146102b3578063eae2b0ab14610297578063ed75efd81461027a578063f2fde38b146102075763f887ea40146101c0575f80fd5b346102045780600319360112610204576040517f00000000000000000000000000000000000000000000000000000000000000006001600160a01b03168152602090f35b80fd5b503461020457602036600319011261020457610221611bc4565b610229613391565b6001600160a01b031680156102665781546001600160a01b03198116821783556001600160a01b03165f516020613a8d5f395f51905f528380a380f35b631e4fbdf760e01b82526004829052602482fd5b50346102045780600319360112610204576020604051610e108152f35b5034610204578060031936011261020457602060405160418152f35b50346102045760203660031901126102045760406020916004358152600a83522054604051908152f35b5034610204576020366003190112610204576102f76129be565b7f00000000000000000000000000000000000000000000000000000000000000006001600160a01b03163303610339576103326004356133f9565b6001805580f35b631cb3967f60e21b8152600490fd5b5034610204576020366003190112610204576103656004356128cd565b9061038460405192839215158352604060208401526040830190611bee565b0390f35b5034610204576020366003190112610204576103a2611bc4565b6103aa613391565b6001600160a01b031680156103fd57600380546001600160a01b0319811683179091556001600160a01b03167f7bf6e789688cd776b5170517f39970fea2870a79d649c8443dd2b0ec62823eb78380a380f35b63d92e233d60e01b8252600482fd5b50346102045760203660031901126102045760406020916004358152600883522054604051908152f35b5034610204576040366003190112610204576020906040906001600160a01b0361045e611bc4565b16815260078352818120602435825283522054604051908152f35b5034610204576020366003190112610204576104936129be565b7f00000000000000000000000000000000000000000000000000000000000000006001600160a01b0316330361033957610332600435612d7c565b5034610204576020366003190112610204576104e8611bc4565b6104f0613391565b6001600160a01b031680156103fd57604051634daa966160e11b81526020816004817f00000000000000000000000000000000000000000000000000000000000000006001600160a01b03165afa9081156105c6578391610588575b506105578183613775565b6001600160a01b0316907f1ed99bd68e15d0355032c83534ad49f29b5eeba77f51b957e6ee3c09f561a7b88380a380f35b90506020813d6020116105be575b816105a360209383611e70565b810103126105ba576105b490611fe2565b5f61054c565b8280fd5b3d9150610596565b6040513d85823e3d90fd5b50346102045780600319360112610204576003546040516001600160a01b039091168152602090f35b503461020457602036600319011261020457600435610617613391565b60418110801561066f575b6106605760407fd41ae331cdd0716e9a1370baa1403c14b9dca36a1be170877840f86efb15846f91600254908060025582519182526020820152a180f35b630e1ccb6f60e31b8252600482fd5b50610e108111610622565b50346102045760203660031901126102045760406106d29160043581526004602052206106a681611e93565b9060ff600a8201541690600c600b820154910154906106dd604051958695608087526080870190611c12565b936020860190611cc5565b604084015260608301520390f35b5034610204578060031936011261020457546040516001600160a01b039091168152602090f35b50346102045780600319360112610204576040517f00000000000000000000000000000000000000000000000000000000000000006001600160a01b03168152602090f35b503461020457604036600319011261020457610771611bc4565b6001600160a01b031681526006602052604081208054602435929083101561020457602061079f8484611d05565b90549060031b1c604051908152f35b50346102045780600319360112610204576040517f00000000000000000000000000000000000000000000000000000000000000006001600160a01b03168152602090f35b50346102045760403660031901126102045761080d611bc4565b6108156129be565b7f00000000000000000000000000000000000000000000000000000000000000006001600160a01b03163303610885576001600160a01b031681526007602090815260408083206024358452909152812054801561087657610332906133f9565b63d36d896560e01b8252600482fd5b631cb3967f60e21b8252600482fd5b50346102045760203660031901126102045760406020916004358152600c83522054604051908152f35b5034610204576020366003190112610204576004356108db6129be565b808252600460205260408220600a81019060ff825416906004821015610ad6578115610ac757546001600160a01b03163303610ab9575f1901610aaa5781835260086020526040832054610a9b57600360ff198254161790558160018060a01b037f0000000000000000000000000000000000000000000000000000000000000000166109ca602060018060a01b0360035416858552600582526040852054604051908784830152838252610991604083611e70565b6040519261099e84611e1e565b835283830152604082015260405180938192635500079d60e01b83528460048401526024830190612047565b0381855afa9081156105c6578391610a62575b50813b156105ba5782916024839260405194859384926395bc267360e01b845260048401525af18015610a5757610a3e575b505033907f0e00387e025961780b7f127ffab3dfa3118f4d9047a3508c3ae9a0285245a15e8380a36001805580f35b81610a4891611e70565b610a5357815f610a0f565b5080fd5b6040513d84823e3d90fd5b9250506020823d602011610a93575b81610a7e60209383611e70565b81010312610a8f578391515f6109dd565b5f80fd5b3d9150610a71565b6313e916e560e01b8352600483fd5b632b12537f60e21b8352600483fd5b6282b42960e81b8452600484fd5b63d36d896560e01b8552600485fd5b634e487b7160e01b85526021600452602485fd5b5034610204578060031936011261020457610b03613391565b80546001600160a01b03198116825581906001600160a01b03165f516020613a8d5f395f51905f528280a380f35b5034610204576020366003190112610204576001600160a01b03610b53611bc4565b168152600660205260408120604051918260208354918281520192825260208220915b818110610ba15761038485610b8d81870382611e70565b604051918291602083526020830190611cd2565b8254845260209093019260019283019201610b76565b503461020457606036600319011261020457610bd1611bc4565b6024356001600160a01b03811691828203610c505760443590610bf2613391565b6001600160a01b0316918215610c41578315610c415781610c377f401f439d865a766757ec78675925bd67198d5e78805aa41691b34b5d6a6cbbe693602093866133b7565b604051908152a380f35b63d92e233d60e01b8552600485fd5b8380fd5b5034610204576020366003190112610204576040610c7360043561281d565b82519182526020820152f35b503461020457602036600319011261020457806060604051610ca081611de7565b604051610cac81611e02565b83815283602082015282604082015282808201528360808201528360a08201528260c08201528360e0820152836101008201528361012082015281528260208201528260408201520152600435815260046020526040812060405190610d1182611de7565b610d1a81611e93565b825260ff600a820154169060208301916004811015610ad657610d7294508252600c600b820154916040850192835201549060608401918252610d7e60405195869560208752516080602088015260a0870190611c12565b93516040860190611cc5565b5160608401525160808301520390f35b503461020457806003193601126102045760206040516107088152f35b503461020457602036600319011261020457600435610dc8613391565b80825260046020526040822060ff600a820154166004811015610e6957600103610aaa578183526008602052604083205415610e5a5781835260086020528260408120558183526009602052826040812055818352600a60205282604081205560018060a01b03905416907fe2210120d48fe93da6dc8d1873a097516ebbbe5e3f47c5afb525bb2263f1e6e08380a380f35b631feb8b7960e21b8352600483fd5b634e487b7160e01b84526021600452602484fd5b5034610204578060031936011261020457602060405160648152f35b50346102045760203660031901126102045760406020916004358152600983522054604051908152f35b50346102045780600319360112610204576040517f00000000000000000000000000000000000000000000000000000000000000006001600160a01b03168152602090f35b50346102045760203660031901126102045760406020916004358152600583522054604051908152f35b503461020457604036600319011261020457610f4c611bc4565b610f546129be565b7f00000000000000000000000000000000000000000000000000000000000000006001600160a01b03163303610885576001600160a01b03168152600760209081526040808320602435845290915281205480156108765761033290612d7c565b5034610a8f576040366003190112610a8f576004356001600160401b038111610a8f5780600401916101406003198336030112610a8f57602435610ff76129be565b61100084612747565b336001600160a01b0390911603611b005760248301906001600160a01b0361102783612747565b1615611af15760848401926001600160a01b0361104385612747565b16158015611ad5575b611ac65761105984612747565b60a4860192906001600160a01b0361107085612747565b6001600160a01b03909216911614611ab757335f52600760205260405f20815f5260205260405f2054611aa857335f526006602052606460405f20541015611a995786606487016110d76110d26110c7838561275b565b919033923691611f8e565b612b04565b60c48801976110ec6110d26110c78b8661275b565b604051606060208201908152906001600160a01b0361110a86611bda565b1660808201526001600160a01b036111218a611bda565b1660a08201526111bd8a6111aa8d60448701986111736111576111448c8461278d565b61014060c08b01526101c08a01916127bf565b6111618b8461278d565b898303607f190160e08b0152906127bf565b936001600160a01b039061118690611bda565b166101008701526001600160a01b0361119e8e611bda565b1661012087015261278d565b848303607f1901610140860152906127bf565b9160e4840135908161016084015261010485013592836101808201526112148161012488019660018060a01b036111f389611bda565b166101a08301528b604083015242606083015203601f198101835282611e70565b5190209b8c5f52600460205260ff600a60405f20015416600481101561183c57611a8a578d956040519761124789611de7565b61125c604051986112578a611e02565b611bda565b88526112678d611bda565b6020890152356001600160401b038111610a8f5761128b9060043691890101611fc4565b6040880152356001600160401b038111610a8f576112af9060043691880101611fc4565b60608701526112bd8c611bda565b60808701526112cb8a611bda565b60a0870152356001600160401b038111610a8f576113079460046112f29236920101611fc4565b60c086015260e0850152610100840152611bda565b6101208201528152600160208083018281525f604080860182815242606088019081528d845260048652928290209651805188546001600160a01b03199081166001600160a01b03928316178a559682015197890180549097169716969096179094558401518051929491939260028701916001600160401b0382116118285781906113938454611d2e565b601f8111611a3a575b50602090601f83116001146119d7575f926119cc575b50508160011b915f199060031b1c19161790555b6060810151805160038701916001600160401b0382116118285781906113ec8454611d2e565b601f811161197c575b50602090601f8311600114611919575f9261190e575b50508160011b915f199060031b1c19161790555b60808101516004860180546001600160a01b039283166001600160a01b03199182161790915560a083015160058801805491909316911617905560c0810151805160068701916001600160401b03821161182857819061147f8454611d2e565b601f81116118be575b50602090601f831160011461185b575f92611850575b50508160011b915f199060031b1c19161790555b60e08101516007860155610100810151600886015561012001516009850180546001600160a01b0319166001600160a01b0392909216919091179055915191600a8401600484101561183c57600c9360ff8019835416911617905551600b84015551910155855f5260056020528060405f205560018060a01b0361153588612747565b165f52600660205260405f208054600160401b8110156118285761155e91600182018155611d05565b81545f1960039290921b91821b19169088901b1790556001600160a01b0361158588612747565b165f52600760205260405f20815f526020528560405f205560018060a01b03600354169060405190876020830152602082526115c2604083611e70565b604051926115cf84611e1e565b8352602083015260408201527f00000000000000000000000000000000000000000000000000000000000000006001600160a01b0316803b15610a8f576116385f929183926040519485809481936335fd70e560e11b8352604060048401526044830190612047565b6001602483015203925af1801561181d5761180a575b5061165884612747565b604051634daa966160e11b8152906020826004817f00000000000000000000000000000000000000000000000000000000000000006001600160a01b03165afa9182156105c65783926117ce575b50604051636eb1769f60e11b81523060048201526001600160a01b038381166024830152919091169290602081604481875afa9182156117c25791611784575b509261174561173f61173961173360209b6060978c9a977f0d7b86882845c929e022510097af482fe9d559b56b818bb2c8630eff4d3ed9539a60018060ff1b0311611774575b5050612747565b94612747565b97612747565b91612747565b604080516001600160a01b0398891681529288168a84015290871690820152941693a360018055604051908152f35b61177d91613775565b5f8061172c565b9294919390506020833d6020116117ba575b816117a360209383611e70565b81010312610a8f57915190939192906117456116e6565b3d9150611796565b604051903d90823e3d90fd5b9091506020813d602011611802575b816117ea60209383611e70565b810103126105ba576117fb90611fe2565b905f6116a6565b3d91506117dd565b61181691505f90611e70565b5f5f61164e565b6040513d5f823e3d90fd5b634e487b7160e01b5f52604160045260245ffd5b634e487b7160e01b5f52602160045260245ffd5b015190505f8061149e565b5f8581528281209350601f198516905b8181106118a6575090846001959493921061188e575b505050811b0190556114b2565b01515f1960f88460031b161c191690555f8080611881565b9293602060018192878601518155019501930161186b565b909150835f5260205f20601f840160051c81019160208510611904575b90601f859493920160051c01905b8181106118f65750611488565b5f81558493506001016118e9565b90915081906118db565b015190505f8061140b565b5f8581528281209350601f198516905b818110611964575090846001959493921061194c575b505050811b01905561141f565b01515f1960f88460031b161c191690555f808061193f565b92936020600181928786015181550195019301611929565b909150835f5260205f20601f840160051c810191602085106119c2575b90601f859493920160051c01905b8181106119b457506113f5565b5f81558493506001016119a7565b9091508190611999565b015190505f806113b2565b5f8581528281209350601f198516905b818110611a225750908460019594939210611a0a575b505050811b0190556113c6565b01515f1960f88460031b161c191690555f80806119fd565b929360206001819287860151815501950193016119e7565b909150835f5260205f20601f840160051c81019160208510611a80575b90601f859493920160051c01905b818110611a72575061139c565b5f8155849350600101611a65565b9091508190611a57565b63966753c560e01b5f5260045ffd5b6352f9988b60e01b5f5260045ffd5b630ced304360e01b5f5260045ffd5b6333910aef60e11b5f5260045ffd5b63d92e233d60e01b5f5260045ffd5b506001600160a01b03611aea60a48701612747565b161561104c565b63a768d7fd60e01b5f5260045ffd5b6282b42960e81b5f5260045ffd5b34610a8f576020366003190112610a8f576004355f52600b602052602060405f2054604051908152f35b34610a8f576040366003190112610a8f576024356001600160401b038111610a8f5736602382011215610a8f576004810135906001600160401b038211610a8f573660248383010111610a8f576020916024611b979201600435612076565b6040516001600160e01b03199091168152f35b34610a8f575f366003190112610a8f576020906002548152f35b600435906001600160a01b0382168203610a8f57565b35906001600160a01b0382168203610a8f57565b805180835260209291819084018484015e5f828201840152601f01601f1916010190565b9060018060a01b03825116815260018060a01b036020830151166020820152610120611c9d611c67611c5560408601516101406040870152610140860190611bee565b60608601518582036060870152611bee565b60018060a01b03608086015116608085015260018060a01b0360a08601511660a085015260c085015184820360c0860152611bee565b60e080850151908401526101008085015190840152928101516001600160a01b031691015290565b90600482101561183c5752565b90602080835192838152019201905f5b818110611cef5750505090565b8251845260209384019390920191600101611ce2565b8054821015611d1a575f5260205f2001905f90565b634e487b7160e01b5f52603260045260245ffd5b90600182811c92168015611d5c575b6020831014611d4857565b634e487b7160e01b5f52602260045260245ffd5b91607f1691611d3d565b5f9291815491611d7583611d2e565b8083529260018116908115611dca5750600114611d9157505050565b5f9081526020812093945091925b838310611db0575060209250010190565b600181602092949394548385870101520191019190611d9f565b915050602093945060ff929192191683830152151560051b010190565b608081019081106001600160401b0382111761182857604052565b61014081019081106001600160401b0382111761182857604052565b606081019081106001600160401b0382111761182857604052565b61018081019081106001600160401b0382111761182857604052565b604081019081106001600160401b0382111761182857604052565b601f909101601f19168101906001600160401b0382119082101761182857604052565b90604051611ea081611e02565b82546001600160a01b0390811682526001840154166020820152604051909283916101209190611ede81611ed78160028601611d66565b0382611e70565b6040840152604051611ef781611ed78160038601611d66565b606084015260048101546001600160a01b03908116608085015260058201541660a0840152604051611f3081611ed78160068601611d66565b60c0840152600781015460e08401526008810154610100840152600901546001600160a01b0316910152565b6001600160401b0381116118285760051b60200190565b6001600160401b03811161182857601f01601f191660200190565b929192611f9a82611f73565b91611fa86040519384611e70565b829481845281830111610a8f578281602093845f960137010152565b9080601f83011215610a8f57816020611fdf93359101611f8e565b90565b51906001600160a01b0382168203610a8f57565b51908115158203610a8f57565b81601f82011215610a8f5760208151910161201d82611f73565b9261202b6040519485611e70565b82845282820111610a8f57815f926020928386015e8301015290565b9060606040611fdf9360018060a01b038151168452602081015160208501520151918160408201520190611bee565b81838101036101a08112610a8f5761018013610a8f576040519261209984611e39565b6120a283611bda565b84526120b060208401611bda565b60208501526120c160408401611bda565b6040850152606083013560608501526080830135608085015260a083013563ffffffff81168103610a8f5760a085015260c083013560c085015260e083013560e08501526101008301356101008501526101208301358015158103610a8f5761012085015261014083810135908501526101608084013590850152610180830135926001600160401b038411610a8f5760608482018383010312610a8f576040519361216c85611e1e565b818101356001600160401b038111610a8f57838301601f8284860101011215610a8f5780828401013561219e81611f5c565b916121ac6040519384611e70565b818352602083019086860160208460051b83888a0101010111610a8f57906020828688010101915b60208460051b82888a0101010183106127335750505090865250818101602001356001600160401b038111610a8f57606081838501018585010312610a8f576040519061222082611e1e565b8383018101356001600160a01b0381168103610a8f57825283830181016020818101359084015260400135906001600160401b038211610a8f5761226c91868601918587010101611fc4565b60408201526020860152604081830101359060018060401b038211610a8f57612299938301920101611fc4565b6040838101919091525163f698da2560e01b81526020816004817f00000000000000000000000000000000000000000000000000000000000000006001600160a01b03165afa90811561181d575f91612701575b507fd5a25ba2e97094ad7d83dc28a6572da797d6b3e7fc6663bd93efb789fc17e48960018060a01b0385511660018060a01b036020870151168660018060a01b036040820151166060820151608083015163ffffffff60a08501511660c08501519060e086015192610100870151946101208801511515966101606101408a0151990151996040519b60208d019d8e5260408d015260608c015260808b015260a08a015260c089015260e08801526101008701526101208601526101408501526101608401526101808301526101a08201526101a081526123d06101c082611e70565b51902060405190602082019261190160f01b845260228301526042820152604281526123fd606282611e70565b519020036126fb575f612444602083015161246860408501519451612456604051968795869563137050cb60e11b8752306004880152608060248801526084870190612047565b85810360031901604487015290611bee565b83810360031901606485015290611cd2565b03817f00000000000000000000000000000000000000000000000000000000000000006001600160a01b03165afa5f91816125fe575b506124a95750505f90565b815181516001600160a01b0390811691161491826125df575b826125c0575b826125a5575b8261258a575b82612577575b82612564575b8261254f575b82612536575b82612521575b8261250d575b5050612502575f90565b630b135d3f60e11b90565b610160919250810151910151145f806124f8565b915061014082015161014082015114916124f2565b91506101208201511515610120820151151514916124ec565b915061010082015161010082015114916124e6565b915060e082015160e082015114916124e0565b915060c082015160c082015114916124da565b915061259f6080830151608083015190613860565b916124d4565b91506125ba6060830151606083015190613860565b916124ce565b604080820151908301516001600160a01b0390811691161492506124c8565b602080820151908301516001600160a01b0390811691161492506124c2565b9091503d805f833e6126108183611e70565b8101908082036101a08112610a8f5761018013610a8f576040519161263483611e39565b61263d82611fe2565b835261264b60208301611fe2565b602084015261265c60408301611fe2565b6040840152606082015160608401526080820151608084015260a082015163ffffffff81168103610a8f5760a084015260c082015160c084015260e082015160e08401526101008201516101008401526126b96101208301611ff6565b610120840152610140828101519084015261016080830151908401526101808201516001600160401b038111610a8f576126f39201612003565b50905f61249e565b50505f90565b90506020813d60201161272b575b8161271c60209383611e70565b81010312610a8f57515f6122ed565b3d915061270f565b6020808093853581520193019291506121d4565b356001600160a01b0381168103610a8f5790565b903590601e1981360301821215610a8f57018035906001600160401b038211610a8f57602001918136038313610a8f57565b9035601e1982360301811215610a8f570160208101919035906001600160401b038211610a8f578136038313610a8f57565b908060209392818452848401375f828201840152601f01601f1916010190565b9190826040910312610a8f576020825192015190565b9061280d602091949394604084526040840190611d66565b6001600160a01b03909416910152565b5f52600460205260405f2060ff600a82015416600481101561183c576001036128c6576001810154815460408051632b548a7b60e11b81529493909285926001600160a01b03918216928492839261287e92911690600201600484016127f5565b03915afa91821561181d575f905f9361289657509190565b90506128bb91925060403d6040116128bf575b6128b38183611e70565b8101906127df565b9091565b503d6128a9565b505f905f90565b5f52600460205260405f2060ff600a82015416600481101561183c5760010361298d576001810154815460405163632224a760e01b815293925f9285926001600160a01b03918216928492839261292d92911690600201600484016127f5565b03915afa91821561181d575f905f9361294557509190565b9250503d805f843e6129578184611e70565b820191604081840312610a8f5761296d81611ff6565b60208201519093906001600160401b038111610a8f57611fdf9201612003565b505f9060405161299e604082611e70565b601081526f6f726465725f6e6f745f61637469766560801b602082015290565b6002600154146129cf576002600155565b633ee5aeb560e01b5f5260045ffd5b602081830312610a8f578051906001600160401b038211610a8f57019080601f83011215610a8f57815191612a1283611f5c565b92612a206040519485611e70565b80845260208085019160051b83010191838311610a8f5760208101915b838310612a4c57505050505090565b82516001600160401b038111610a8f578201906040828703601f190112610a8f5760405190612a7a82611e55565b60208301516001600160401b038111610a8f57876020612a9c92860101612003565b82526040830151916001600160401b038311610a8f57612ac488602080969581960101612003565b83820152815201920191612a3d565b805115611d1a5760200190565b805160011015611d1a5760400190565b8051821015611d1a5760209160051b010190565b91909180518015612cd65790602080612b219383010191016129de565b6040516020810190653937baba32b960d11b825260068152612b44602682611e70565b5190205f5b8251811015612ccf5781612b5d8285612af0565b5151604051612b8b6020828180820195805191829101875e81015f838201520301601f198101835282611e70565b51902003612b9c575b600101612b49565b6020612ba88285612af0565b5101518051810190602081830312610a8f576020810151906001600160401b038211610a8f5701808203601f19810192919060c013610a8f576040519160c083016001600160401b03811184821017611828576040526020820151600a811015610a8f578352612c1a60408301611fe2565b6020840152612c2b60608301611fe2565b604084019081526080830151606085015260a0830151909490916001600160401b038311610a8f576020928380612c66930191860101612003565b6080850152607f190112610a8f5760405191602083016001600160401b038111848210176118285760405260c090910151825260a00152516001600160a01b03908116908616808203612cba575050612b94565b63041bc0b160e41b5f5260045260245260445ffd5b5050509050565b50509050565b91908203918211612ce957565b634e487b7160e01b5f52601160045260245ffd5b602081016020825282518091526040820191602060408360051b8301019401925f915b838310612d2f57505050505090565b9091929394602080612d6d600193603f1986820301875289519083612d5d8351604084526040840190611bee565b9201519084818403910152611bee565b97019301930191939290612d20565b5f815f52600460205260405f2092600a84019260ff845416600481101561183c5760010361338257805f52600860205260405f205490600b86019182549060018201809211612ce9570361337357612dd5602496611e93565b94815f5260086020525f6040812055815f52600960205260405f205494825f52600a60205260405f2054966080810196602060018060a01b038951166040519b8c80926370a0823160e01b82523060048301525afa998a1561181d575f9a61333e575b5060249060a083019a602060018060a01b038d5116604051948580926370a0823160e01b82523060048301525afa92831561181d575f9361330a575b505f878152600960209081526040808320839055600a8252808320839055600b8252808320839055600c9091528120558082111561330157612eb591612cdc565b985b808211156132f957612ec891612cdc565b80156132ea5789516001600160a01b037f000000000000000000000000000000000000000000000000000000000000000081169a91612f0b9184918d91166133b7565b60c083015189519b5181516001600160a01b039d8e169d9091169a91612f39916020908201810191016129de565b998a5160028101809111612ce957612f50906138b8565b9c612f5b90846139db565b8d60405191612f6983611e55565b612f71613915565b83526020830152612f8190612ad3565b52612f8b8d612ad3565b50612f9690846139db565b60405190612fa382611e55565b612fab613915565b82526020820152612fbb8d612ae0565b52612fc58c612ae0565b505f5b8a5181101561300857612fdb818c612af0565b51906002810191828211612ce957828f61300192612ffb60019683612af0565b52612af0565b5001612fc8565b50929598509295989990939699803b15610a8f5760405163f0dbeea560e01b8152915f9183918290849082906130419060048301612cfd565b03925af1801561181d576132d5575b50610120840180516001600160a01b031661322d575b505086545f1981146132195760408893887f746e7bce16b1125d16e5673941791d7ff1f65d656a3c7346b7c2aa614814850f6060829660017f5b19a0b08bbd8e7537d63d9f1db0947c5eba6d93e02a7e0a1520ea5f29bd644c970180995585519089825260208201528486820152a28151908582526020820152a2602082810151604080850151855191516343fc086560e01b81526060600482015294939285926001600160a01b0391821692849283921690613127906064840190611bee565b90602483015286604483015203915afa91821561320e5784926131d2575b5061010083015180151591826131c7575b505081156131bf575b5061316c575b5050505050565b825460ff1916600217909255505191546040519081526001600160a01b0392909216917f11c239861e7b77ea2869389e0f03373ea1d12f407575794b517a10d10c54333390602090a35f80808080613165565b90505f61315f565b101590505f80613156565b9091506020813d602011613206575b816131ee60209383611e70565b81010312610c50576131ff90611ff6565b905f613145565b3d91506131e1565b6040513d86823e3d90fd5b634e487b7160e01b85526011600452602485fd5b81516040516370a0823160e01b81523060048201529190602090839060249082906001600160a01b03165afa9182156132ca578792613296575b5081613274575b50613066565b9151915161328e926001600160a01b0391821691166133b7565b5f808061326e565b9091506020813d6020116132c2575b816132b260209383611e70565b81010312610a8f5751905f613267565b3d91506132a5565b6040513d89823e3d90fd5b6132e29195505f90611e70565b5f935f613050565b639671a89f60e01b5f5260045ffd5b50505f612ec8565b50505f98612eb7565b9092506020813d602011613336575b8161332660209383611e70565b81010312610a8f5751915f612e74565b3d9150613319565b9099506020813d60201161336b575b8161335a60209383611e70565b81010312610a8f5751986024612e38565b3d915061334d565b631feb8b7960e21b5f5260045ffd5b632b12537f60e21b5f5260045ffd5b5f546001600160a01b031633036133a457565b63118cdaa760e01b5f523360045260245ffd5b60405163a9059cbb60e01b60208201526001600160a01b0390921660248301526044808301939093529181526133f7916133f2606483611e70565b613939565b565b5f90805f52600460205260405f209260ff600a85015416600481101561183c5760010361338257815f52600860205260405f20546137665761343a84611e93565b602081015160408083015183518251632b548a7b60e11b815260048101849052989496949389926001600160a01b039182169284928392911690613482906044840190611bee565b90602483015203915afa801561181d575f965f91613740575b5090600b91835f52826020528760405f2055835f52600c60205260405f205501805460018101809111612ce957825f52600860205260405f205560608401519360808101956134fd60018060a01b0388511696602080825183010191016129de565b9586519060018201809211612ce95761351861351e926138b8565b996139db565b6040519061352b82611e55565b613533613915565b8252602082015261354389612ad3565b5261354d88612ad3565b505f5b8651811015613590576135638188612af0565b51906001810191828211612ce95782613589916135826001958e612af0565b528b612af0565b5001613550565b509396929591945092917f00000000000000000000000000000000000000000000000000000000000000006001600160a01b0316803b15610a8f5760405163f0dbeea560e01b8152915f9183918290849082906135f09060048301612cfd565b03925af1801561181d5761372a575b50516040516370a0823160e01b815230600482015290602090829060249082906001600160a01b03165afa908115610a575782916136f7575b5060249260209186845260098352604084205560a0600180821b0391015116604051938480926370a0823160e01b82523060048301525afa9182156136ea5781926136a7575b5091602091604084865f516020613a6d5f395f51905f529652600a8552205554604051908152a2565b9150916020823d6020116136e2575b816136c360209383611e70565b81010312610a8f57905190915f516020613a6d5f395f51905f5261367e565b3d91506136b6565b50604051903d90823e3d90fd5b90506020813d602011613722575b8161371260209383611e70565b81010312610a8f57516024613638565b3d9150613705565b6137379192505f90611e70565b5f9060206135ff565b600b92975061375e915060403d6040116128bf576128b38183611e70565b90969161349b565b63e617d13160e01b5f5260045ffd5b60405190602082019263095ea7b360e01b845260018060a01b0316928360248401525f196044840152604483526137ad606484611e70565b82516001600160a01b038316915f91829182855af1906137cb6139ac565b82613826575b508161381b575b50156137e357505050565b6133f26133f7936040519063095ea7b360e01b602083015260248201525f604482015260448152613815606482611e70565b82613939565b90503b15155f6137d8565b8051919250811591821561383e575b5050905f6137d1565b8192509060209181010312610a8f5760206138599101611ff6565b5f80613835565b908082146138b1578082119182156138aa5780925b1561389c579061388491612cdc565b606481029080820460641490151715612ce957111590565b6138a591612cdc565b613884565b8192613875565b5050600190565b906138c282611f5c565b6138cf6040519182611e70565b82815280926138e0601f1991611f5c565b01905f5b8281106138f057505050565b6020906040516138ff81611e55565b60608152606083820152828285010152016138e4565b60405190613924604083611e70565b60068252653937baba32b960d11b6020830152565b5f806139619260018060a01b03169360208151910182865af161395a6139ac565b9083613a0e565b8051908115159182613989575b50506139775750565b635274afe760e01b5f5260045260245ffd5b8192509060209181010312610a8f5760206139a49101611ff6565b155f8061396e565b3d156139d6573d906139bd82611f73565b916139cb6040519384611e70565b82523d5f602084013e565b606090565b9060405191602083015260018060a01b031660408201525f60608201526003608082015260808152611fdf60a082611e70565b90613a325750805115613a2357805190602001fd5b630a12f52160e11b5f5260045ffd5b81511580613a63575b613a43575090565b639996b31560e01b5f9081526001600160a01b0391909116600452602490fd5b50803b15613a3b56feed6ad11a587c194b3ad43896e949cb9a05975419926eda9b6b571d1847c9a7aa8be0079c531659141344cd1fd0a4f28419497f9722a3daafe3b4186f6b6457e0a264697066735822122064e7b4951255b4a62613c6f418944d72c7053a94e2df322d60aa5e1cded5e49664736f6c634300081e0033",
  "devdoc": {
    "details": "Uses separate KapanConditionalOrderHandler for IConditionalOrderGenerator.      This contract is the OWNER in ComposableCoW and handles ERC-1271 signature verification.      It intentionally does NOT implement IERC165 to avoid Safe/fallback handler detection. Key differences from KapanOrderManager: - Orders have pluggable triggers (IOrderTrigger) that determine when and how much to execute - Amounts are calculated dynamically at execution time via trigger.calculateExecution() - Instructions are templates that reference UTXO[0] for dynamic amounts",
    "errors": {
      "AddressEmptyCode(address)": [
        {
          "details": "There's no code at `target` (it is not a contract)."
        }
      ],
      "AddressInsufficientBalance(address)": [
        {
          "details": "The ETH balance of the account is not enough to perform the operation."
        }
      ],
      "FailedInnerCall()": [
        {
          "details": "A call to an address target failed. The target may have reverted."
        }
      ],
      "OwnableInvalidOwner(address)": [
        {
          "details": "The owner is not a valid owner account. (eg. `address(0)`)"
        }
      ],
      "OwnableUnauthorizedAccount(address)": [
        {
          "details": "The caller account is not authorized to perform an operation."
        }
      ],
      "ReentrancyGuardReentrantCall()": [
        {
          "details": "Unauthorized reentrant call."
        }
      ],
      "SafeERC20FailedOperation(address)": [
        {
          "details": "An operation with an ERC20 token failed."
        }
      ]
    },
    "kind": "dev",
    "methods": {
      "approveVaultRelayer(address)": {
        "params": {
          "token": "Token to approve"
        }
      },
      "createOrder((address,address,bytes,bytes,address,address,bytes,bytes32,uint256,address),bytes32)": {
        "params": {
          "params": "The order parameters",
          "salt": "Unique salt for the order"
        },
        "returns": {
          "orderHash": "The hash identifying this order"
        }
      },
      "executePostHook(bytes32)": {
        "params": {
          "orderHash": "The order hash"
        }
      },
      "executePostHookBySalt(address,bytes32)": {
        "params": {
          "salt": "The order salt",
          "user": "The user address"
        }
      },
      "executePreHook(bytes32)": {
        "params": {
          "orderHash": "The order hash"
        }
      },
      "executePreHookBySalt(address,bytes32)": {
        "params": {
          "salt": "The order salt",
          "user": "The user address"
        }
      },
      "isValidSignature(bytes32,bytes)": {
        "params": {
          "_hash": "The hash of the data signed",
          "_signature": "The signature bytes"
        },
        "returns": {
          "_0": "bytes4(0x1626ba7e) if valid, any other value if invalid"
        }
      },
      "owner()": {
        "details": "Returns the address of the current owner."
      },
      "recoverTokens(address,address,uint256)": {
        "params": {
          "amount": "Amount to recover",
          "to": "Recipient address",
          "token": "Token address to recover"
        }
      },
      "renounceOwnership()": {
        "details": "Leaves the contract without owner. It will not be possible to call `onlyOwner` functions. Can only be called by the current owner. NOTE: Renouncing ownership will leave the contract without an owner, thereby disabling any functionality that is only available to the owner."
      },
      "resetStuckOrder(bytes32)": {
        "details": "Only use when an order is permanently stuck due to failed settlement",
        "params": {
          "orderHash": "The order hash to reset"
        }
      },
      "setChunkWindow(uint256)": {
        "params": {
          "_chunkWindow": "New chunk window in seconds"
        }
      },
      "setOrderHandler(address)": {
        "params": {
          "_orderHandler": "New order handler address"
        }
      },
      "transferOwnership(address)": {
        "details": "Transfers ownership of the contract to a new account (`newOwner`). Can only be called by the current owner."
      }
    },
    "stateVariables": {
      "DEFAULT_CHUNK_WINDOW": {
        "details": "Must be > 60 seconds due to CoW Protocol's min_order_validity_period (default 1 minute) Increased to 30 minutes to allow sufficient time for solver competition and fills"
      },
      "MIN_CHUNK_WINDOW": {
        "details": "Must be > 60 seconds due to CoW Protocol's min_order_validity_period"
      },
      "chunkWindow": {
        "details": "Configurable to tune order validity based on watchtower polling and token characteristics"
      }
    },
    "title": "KapanConditionalOrderManager",
    "version": 1
  },
  "userdoc": {
    "kind": "user",
    "methods": {
      "DEFAULT_CHUNK_WINDOW()": {
        "notice": "Default chunk window duration (30 minutes)"
      },
      "MAX_CHUNK_WINDOW()": {
        "notice": "Maximum allowed chunk window (1 hour)"
      },
      "MAX_ORDERS_PER_USER()": {
        "notice": "Maximum orders per user to prevent storage DOS"
      },
      "MIN_CHUNK_WINDOW()": {
        "notice": "Minimum allowed chunk window (65 seconds)"
      },
      "approveVaultRelayer(address)": {
        "notice": "Approve vault relayer to spend tokens"
      },
      "cachedSellAmount(bytes32)": {
        "notice": "Cached execution amounts (set before pre-hook, used in signature verification) This is needed because pre-hook may change protocol state (e.g., LTV), which would cause getTradeableOrder to return different amounts."
      },
      "cancelOrder(bytes32)": {
        "notice": "Cancel an active conditional order"
      },
      "chunkWindow()": {
        "notice": "Chunk window duration for deterministic validTo"
      },
      "composableCoW()": {
        "notice": "The ComposableCoW contract for order registration (immutable)"
      },
      "createOrder((address,address,bytes,bytes,address,address,bytes,bytes32,uint256,address),bytes32)": {
        "notice": "Create a new conditional order"
      },
      "executePostHook(bytes32)": {
        "notice": "Execute post-hook (called by HooksTrampoline)"
      },
      "executePostHookBySalt(address,bytes32)": {
        "notice": "Execute post-hook using (user, salt) lookup"
      },
      "executePreHook(bytes32)": {
        "notice": "Execute pre-hook (called by HooksTrampoline)"
      },
      "executePreHookBySalt(address,bytes32)": {
        "notice": "Execute pre-hook using (user, salt) lookup"
      },
      "getExecutionAmounts(bytes32)": {
        "notice": "Get current execution amounts from trigger"
      },
      "hooksTrampoline()": {
        "notice": "The HooksTrampoline contract (caller for hooks) (immutable)"
      },
      "isTriggerMet(bytes32)": {
        "notice": "Check if trigger condition is currently met"
      },
      "isValidSignature(bytes32,bytes)": {
        "notice": "Verifies that the signature is valid for the given hash"
      },
      "orderHandler()": {
        "notice": "The KapanConditionalOrderHandler for generating orders"
      },
      "orderSalts(bytes32)": {
        "notice": "Salt used for each order (for ComposableCoW cancellation)"
      },
      "orders(bytes32)": {
        "notice": "Order contexts by order hash"
      },
      "preHookExecutedForIteration(bytes32)": {
        "notice": "Track pre-hook execution per order"
      },
      "preHookSellBalance(bytes32)": {
        "notice": "Track balances at end of pre-hook for delta calculation"
      },
      "recoverTokens(address,address,uint256)": {
        "notice": "Recover tokens accidentally sent to this contract"
      },
      "resetStuckOrder(bytes32)": {
        "notice": "Reset a stuck order where pre-hook executed but post-hook failed"
      },
      "router()": {
        "notice": "The KapanRouter for executing lending operations (immutable)"
      },
      "setChunkWindow(uint256)": {
        "notice": "Update the chunk window for order validity"
      },
      "setOrderHandler(address)": {
        "notice": "Update the order handler address"
      },
      "settlement()": {
        "notice": "The GPv2Settlement contract (immutable)"
      },
      "userOrders(address,uint256)": {
        "notice": "User's active orders"
      },
      "userSaltToOrderHash(address,bytes32)": {
        "notice": "Lookup order hash by (user, salt)"
      }
    },
    "notice": "Manages trigger-based conditional orders for Kapan (ADL, stop-loss, etc.)",
    "version": 1
  },
  "storageLayout": {
    "storage": [
      {
        "astId": 8,
        "contract": "contracts/v2/cow/KapanConditionalOrderManager.sol:KapanConditionalOrderManager",
        "label": "_owner",
        "offset": 0,
        "slot": "0",
        "type": "t_address"
      },
      {
        "astId": 845,
        "contract": "contracts/v2/cow/KapanConditionalOrderManager.sol:KapanConditionalOrderManager",
        "label": "_status",
        "offset": 0,
        "slot": "1",
        "type": "t_uint256"
      },
      {
        "astId": 1059,
        "contract": "contracts/v2/cow/KapanConditionalOrderManager.sol:KapanConditionalOrderManager",
        "label": "chunkWindow",
        "offset": 0,
        "slot": "2",
        "type": "t_uint256"
      },
      {
        "astId": 1077,
        "contract": "contracts/v2/cow/KapanConditionalOrderManager.sol:KapanConditionalOrderManager",
        "label": "orderHandler",
        "offset": 0,
        "slot": "3",
        "type": "t_address"
      },
      {
        "astId": 1083,
        "contract": "contracts/v2/cow/KapanConditionalOrderManager.sol:KapanConditionalOrderManager",
        "label": "orders",
        "offset": 0,
        "slot": "4",
        "type": "t_mapping(t_bytes32,t_struct(OrderContext)1043_storage)"
      },
      {
        "astId": 1088,
        "contract": "contracts/v2/cow/KapanConditionalOrderManager.sol:KapanConditionalOrderManager",
        "label": "orderSalts",
        "offset": 0,
        "slot": "5",
        "type": "t_mapping(t_bytes32,t_bytes32)"
      },
      {
        "astId": 1094,
        "contract": "contracts/v2/cow/KapanConditionalOrderManager.sol:KapanConditionalOrderManager",
        "label": "userOrders",
        "offset": 0,
        "slot": "6",
        "type": "t_mapping(t_address,t_array(t_bytes32)dyn_storage)"
      },
      {
        "astId": 1101,
        "contract": "contracts/v2/cow/KapanConditionalOrderManager.sol:KapanConditionalOrderManager",
        "label": "userSaltToOrderHash",
        "offset": 0,
        "slot": "7",
        "type": "t_mapping(t_address,t_mapping(t_bytes32,t_bytes32))"
      },
      {
        "astId": 1106,
        "contract": "contracts/v2/cow/KapanConditionalOrderManager.sol:KapanConditionalOrderManager",
        "label": "preHookExecutedForIteration",
        "offset": 0,
        "slot": "8",
        "type": "t_mapping(t_bytes32,t_uint256)"
      },
      {
        "astId": 1111,
        "contract": "contracts/v2/cow/KapanConditionalOrderManager.sol:KapanConditionalOrderManager",
        "label": "preHookSellBalance",
        "offset": 0,
        "slot": "9",
        "type": "t_mapping(t_bytes32,t_uint256)"
      },
      {
        "astId": 1115,
        "contract": "contracts/v2/cow/KapanConditionalOrderManager.sol:KapanConditionalOrderManager",
        "label": "preHookBuyBalance",
        "offset": 0,
        "slot": "10",
        "type": "t_mapping(t_bytes32,t_uint256)"
      },
      {
        "astId": 1120,
        "contract": "contracts/v2/cow/KapanConditionalOrderManager.sol:KapanConditionalOrderManager",
        "label": "cachedSellAmount",
        "offset": 0,
        "slot": "11",
        "type": "t_mapping(t_bytes32,t_uint256)"
      },
      {
        "astId": 1124,
        "contract": "contracts/v2/cow/KapanConditionalOrderManager.sol:KapanConditionalOrderManager",
        "label": "cachedBuyAmount",
        "offset": 0,
        "slot": "12",
        "type": "t_mapping(t_bytes32,t_uint256)"
      }
    ],
    "types": {
      "t_address": {
        "encoding": "inplace",
        "label": "address",
        "numberOfBytes": "20"
      },
      "t_array(t_bytes32)dyn_storage": {
        "base": "t_bytes32",
        "encoding": "dynamic_array",
        "label": "bytes32[]",
        "numberOfBytes": "32"
      },
      "t_bytes32": {
        "encoding": "inplace",
        "label": "bytes32",
        "numberOfBytes": "32"
      },
      "t_bytes_storage": {
        "encoding": "bytes",
        "label": "bytes",
        "numberOfBytes": "32"
      },
      "t_enum(OrderStatus)1000": {
        "encoding": "inplace",
        "label": "enum KapanConditionalOrderManager.OrderStatus",
        "numberOfBytes": "1"
      },
      "t_mapping(t_address,t_array(t_bytes32)dyn_storage)": {
        "encoding": "mapping",
        "key": "t_address",
        "label": "mapping(address => bytes32[])",
        "numberOfBytes": "32",
        "value": "t_array(t_bytes32)dyn_storage"
      },
      "t_mapping(t_address,t_mapping(t_bytes32,t_bytes32))": {
        "encoding": "mapping",
        "key": "t_address",
        "label": "mapping(address => mapping(bytes32 => bytes32))",
        "numberOfBytes": "32",
        "value": "t_mapping(t_bytes32,t_bytes32)"
      },
      "t_mapping(t_bytes32,t_bytes32)": {
        "encoding": "mapping",
        "key": "t_bytes32",
        "label": "mapping(bytes32 => bytes32)",
        "numberOfBytes": "32",
        "value": "t_bytes32"
      },
      "t_mapping(t_bytes32,t_struct(OrderContext)1043_storage)": {
        "encoding": "mapping",
        "key": "t_bytes32",
        "label": "mapping(bytes32 => struct KapanConditionalOrderManager.OrderContext)",
        "numberOfBytes": "32",
        "value": "t_struct(OrderContext)1043_storage"
      },
      "t_mapping(t_bytes32,t_uint256)": {
        "encoding": "mapping",
        "key": "t_bytes32",
        "label": "mapping(bytes32 => uint256)",
        "numberOfBytes": "32",
        "value": "t_uint256"
      },
      "t_struct(KapanOrderParams)1031_storage": {
        "encoding": "inplace",
        "label": "struct KapanConditionalOrderManager.KapanOrderParams",
        "members": [
          {
            "astId": 1012,
            "contract": "contracts/v2/cow/KapanConditionalOrderManager.sol:KapanConditionalOrderManager",
            "label": "user",
            "offset": 0,
            "slot": "0",
            "type": "t_address"
          },
          {
            "astId": 1014,
            "contract": "contracts/v2/cow/KapanConditionalOrderManager.sol:KapanConditionalOrderManager",
            "label": "trigger",
            "offset": 0,
            "slot": "1",
            "type": "t_address"
          },
          {
            "astId": 1016,
            "contract": "contracts/v2/cow/KapanConditionalOrderManager.sol:KapanConditionalOrderManager",
            "label": "triggerStaticData",
            "offset": 0,
            "slot": "2",
            "type": "t_bytes_storage"
          },
          {
            "astId": 1018,
            "contract": "contracts/v2/cow/KapanConditionalOrderManager.sol:KapanConditionalOrderManager",
            "label": "preInstructions",
            "offset": 0,
            "slot": "3",
            "type": "t_bytes_storage"
          },
          {
            "astId": 1020,
            "contract": "contracts/v2/cow/KapanConditionalOrderManager.sol:KapanConditionalOrderManager",
            "label": "sellToken",
            "offset": 0,
            "slot": "4",
            "type": "t_address"
          },
          {
            "astId": 1022,
            "contract": "contracts/v2/cow/KapanConditionalOrderManager.sol:KapanConditionalOrderManager",
            "label": "buyToken",
            "offset": 0,
            "slot": "5",
            "type": "t_address"
          },
          {
            "astId": 1024,
            "contract": "contracts/v2/cow/KapanConditionalOrderManager.sol:KapanConditionalOrderManager",
            "label": "postInstructions",
            "offset": 0,
            "slot": "6",
            "type": "t_bytes_storage"
          },
          {
            "astId": 1026,
            "contract": "contracts/v2/cow/KapanConditionalOrderManager.sol:KapanConditionalOrderManager",
            "label": "appDataHash",
            "offset": 0,
            "slot": "7",
            "type": "t_bytes32"
          },
          {
            "astId": 1028,
            "contract": "contracts/v2/cow/KapanConditionalOrderManager.sol:KapanConditionalOrderManager",
            "label": "maxIterations",
            "offset": 0,
            "slot": "8",
            "type": "t_uint256"
          },
          {
            "astId": 1030,
            "contract": "contracts/v2/cow/KapanConditionalOrderManager.sol:KapanConditionalOrderManager",
            "label": "sellTokenRefundAddress",
            "offset": 0,
            "slot": "9",
            "type": "t_address"
          }
        ],
        "numberOfBytes": "320"
      },
      "t_struct(OrderContext)1043_storage": {
        "encoding": "inplace",
        "label": "struct KapanConditionalOrderManager.OrderContext",
        "members": [
          {
            "astId": 1035,
            "contract": "contracts/v2/cow/KapanConditionalOrderManager.sol:KapanConditionalOrderManager",
            "label": "params",
            "offset": 0,
            "slot": "0",
            "type": "t_struct(KapanOrderParams)1031_storage"
          },
          {
            "astId": 1038,
            "contract": "contracts/v2/cow/KapanConditionalOrderManager.sol:KapanConditionalOrderManager",
            "label": "status",
            "offset": 0,
            "slot": "10",
            "type": "t_enum(OrderStatus)1000"
          },
          {
            "astId": 1040,
            "contract": "contracts/v2/cow/KapanConditionalOrderManager.sol:KapanConditionalOrderManager",
            "label": "iterationCount",
            "offset": 0,
            "slot": "11",
            "type": "t_uint256"
          },
          {
            "astId": 1042,
            "contract": "contracts/v2/cow/KapanConditionalOrderManager.sol:KapanConditionalOrderManager",
            "label": "createdAt",
            "offset": 0,
            "slot": "12",
            "type": "t_uint256"
          }
        ],
        "numberOfBytes": "416"
      },
      "t_uint256": {
        "encoding": "inplace",
        "label": "uint256",
        "numberOfBytes": "32"
      }
    }
  }
}