{
  "address": "0xD49D9C9F7A4C3dD06762D5d8FC14bcED8E6D552D",
  "abi": [
    {
      "inputs": [
        {
          "internalType": "address",
          "name": "_owner",
          "type": "address"
        },
        {
          "internalType": "address",
          "name": "_router",
          "type": "address"
        },
        {
          "internalType": "address",
          "name": "_composableCoW",
          "type": "address"
        },
        {
          "internalType": "address",
          "name": "_settlement",
          "type": "address"
        },
        {
          "internalType": "address",
          "name": "_hooksTrampoline",
          "type": "address"
        }
      ],
      "stateMutability": "nonpayable",
      "type": "constructor"
    },
    {
      "inputs": [
        {
          "internalType": "address",
          "name": "target",
          "type": "address"
        }
      ],
      "name": "AddressEmptyCode",
      "type": "error"
    },
    {
      "inputs": [
        {
          "internalType": "address",
          "name": "account",
          "type": "address"
        }
      ],
      "name": "AddressInsufficientBalance",
      "type": "error"
    },
    {
      "inputs": [],
      "name": "CannotCancelMidExecution",
      "type": "error"
    },
    {
      "inputs": [],
      "name": "FailedInnerCall",
      "type": "error"
    },
    {
      "inputs": [
        {
          "internalType": "address",
          "name": "expected",
          "type": "address"
        },
        {
          "internalType": "address",
          "name": "actual",
          "type": "address"
        }
      ],
      "name": "InstructionUserMismatch",
      "type": "error"
    },
    {
      "inputs": [],
      "name": "InvalidOrderState",
      "type": "error"
    },
    {
      "inputs": [],
      "name": "InvalidTokens",
      "type": "error"
    },
    {
      "inputs": [],
      "name": "InvalidTrigger",
      "type": "error"
    },
    {
      "inputs": [],
      "name": "MaxOrdersExceeded",
      "type": "error"
    },
    {
      "inputs": [],
      "name": "NoTokensReceived",
      "type": "error"
    },
    {
      "inputs": [],
      "name": "NotHooksTrampoline",
      "type": "error"
    },
    {
      "inputs": [],
      "name": "OrderAlreadyExists",
      "type": "error"
    },
    {
      "inputs": [],
      "name": "OrderNotFound",
      "type": "error"
    },
    {
      "inputs": [
        {
          "internalType": "address",
          "name": "owner",
          "type": "address"
        }
      ],
      "name": "OwnableInvalidOwner",
      "type": "error"
    },
    {
      "inputs": [
        {
          "internalType": "address",
          "name": "account",
          "type": "address"
        }
      ],
      "name": "OwnableUnauthorizedAccount",
      "type": "error"
    },
    {
      "inputs": [],
      "name": "PreHookAlreadyExecuted",
      "type": "error"
    },
    {
      "inputs": [],
      "name": "PreHookNotExecuted",
      "type": "error"
    },
    {
      "inputs": [],
      "name": "ReentrancyGuardReentrantCall",
      "type": "error"
    },
    {
      "inputs": [
        {
          "internalType": "address",
          "name": "token",
          "type": "address"
        }
      ],
      "name": "SafeERC20FailedOperation",
      "type": "error"
    },
    {
      "inputs": [],
      "name": "SaltAlreadyUsed",
      "type": "error"
    },
    {
      "inputs": [],
      "name": "TriggerNotMet",
      "type": "error"
    },
    {
      "inputs": [],
      "name": "Unauthorized",
      "type": "error"
    },
    {
      "inputs": [],
      "name": "ValidToOverflow",
      "type": "error"
    },
    {
      "inputs": [],
      "name": "ZeroAddress",
      "type": "error"
    },
    {
      "anonymous": false,
      "inputs": [
        {
          "indexed": true,
          "internalType": "bytes32",
          "name": "orderHash",
          "type": "bytes32"
        },
        {
          "indexed": true,
          "internalType": "address",
          "name": "user",
          "type": "address"
        }
      ],
      "name": "ConditionalOrderCancelled",
      "type": "event"
    },
    {
      "anonymous": false,
      "inputs": [
        {
          "indexed": true,
          "internalType": "bytes32",
          "name": "orderHash",
          "type": "bytes32"
        },
        {
          "indexed": true,
          "internalType": "address",
          "name": "user",
          "type": "address"
        },
        {
          "indexed": false,
          "internalType": "uint256",
          "name": "iterations",
          "type": "uint256"
        }
      ],
      "name": "ConditionalOrderCompleted",
      "type": "event"
    },
    {
      "anonymous": false,
      "inputs": [
        {
          "indexed": true,
          "internalType": "bytes32",
          "name": "orderHash",
          "type": "bytes32"
        },
        {
          "indexed": true,
          "internalType": "address",
          "name": "user",
          "type": "address"
        },
        {
          "indexed": false,
          "internalType": "address",
          "name": "trigger",
          "type": "address"
        },
        {
          "indexed": false,
          "internalType": "address",
          "name": "sellToken",
          "type": "address"
        },
        {
          "indexed": false,
          "internalType": "address",
          "name": "buyToken",
          "type": "address"
        }
      ],
      "name": "ConditionalOrderCreated",
      "type": "event"
    },
    {
      "anonymous": false,
      "inputs": [
        {
          "indexed": true,
          "internalType": "address",
          "name": "oldHandler",
          "type": "address"
        },
        {
          "indexed": true,
          "internalType": "address",
          "name": "newHandler",
          "type": "address"
        }
      ],
      "name": "OrderHandlerUpdated",
      "type": "event"
    },
    {
      "anonymous": false,
      "inputs": [
        {
          "indexed": true,
          "internalType": "address",
          "name": "previousOwner",
          "type": "address"
        },
        {
          "indexed": true,
          "internalType": "address",
          "name": "newOwner",
          "type": "address"
        }
      ],
      "name": "OwnershipTransferred",
      "type": "event"
    },
    {
      "anonymous": false,
      "inputs": [
        {
          "indexed": true,
          "internalType": "bytes32",
          "name": "orderHash",
          "type": "bytes32"
        },
        {
          "indexed": false,
          "internalType": "uint256",
          "name": "iteration",
          "type": "uint256"
        },
        {
          "indexed": false,
          "internalType": "uint256",
          "name": "receivedAmount",
          "type": "uint256"
        }
      ],
      "name": "PostHookExecuted",
      "type": "event"
    },
    {
      "anonymous": false,
      "inputs": [
        {
          "indexed": true,
          "internalType": "bytes32",
          "name": "orderHash",
          "type": "bytes32"
        },
        {
          "indexed": false,
          "internalType": "uint256",
          "name": "iteration",
          "type": "uint256"
        }
      ],
      "name": "PreHookExecuted",
      "type": "event"
    },
    {
      "anonymous": false,
      "inputs": [
        {
          "indexed": true,
          "internalType": "bytes32",
          "name": "orderHash",
          "type": "bytes32"
        },
        {
          "indexed": true,
          "internalType": "address",
          "name": "user",
          "type": "address"
        }
      ],
      "name": "StuckOrderReset",
      "type": "event"
    },
    {
      "anonymous": false,
      "inputs": [
        {
          "indexed": true,
          "internalType": "address",
          "name": "token",
          "type": "address"
        },
        {
          "indexed": true,
          "internalType": "address",
          "name": "to",
          "type": "address"
        },
        {
          "indexed": false,
          "internalType": "uint256",
          "name": "amount",
          "type": "uint256"
        }
      ],
      "name": "TokensRecovered",
      "type": "event"
    },
    {
      "anonymous": false,
      "inputs": [
        {
          "indexed": true,
          "internalType": "bytes32",
          "name": "orderHash",
          "type": "bytes32"
        },
        {
          "indexed": false,
          "internalType": "uint256",
          "name": "iteration",
          "type": "uint256"
        },
        {
          "indexed": false,
          "internalType": "uint256",
          "name": "sellAmount",
          "type": "uint256"
        },
        {
          "indexed": false,
          "internalType": "uint256",
          "name": "buyAmount",
          "type": "uint256"
        }
      ],
      "name": "TriggerExecuted",
      "type": "event"
    },
    {
      "anonymous": false,
      "inputs": [
        {
          "indexed": true,
          "internalType": "address",
          "name": "token",
          "type": "address"
        },
        {
          "indexed": true,
          "internalType": "address",
          "name": "vaultRelayer",
          "type": "address"
        }
      ],
      "name": "VaultRelayerApproved",
      "type": "event"
    },
    {
      "inputs": [],
      "name": "CHUNK_WINDOW",
      "outputs": [
        {
          "internalType": "uint256",
          "name": "",
          "type": "uint256"
        }
      ],
      "stateMutability": "view",
      "type": "function"
    },
    {
      "inputs": [],
      "name": "MAX_ORDERS_PER_USER",
      "outputs": [
        {
          "internalType": "uint256",
          "name": "",
          "type": "uint256"
        }
      ],
      "stateMutability": "view",
      "type": "function"
    },
    {
      "inputs": [
        {
          "internalType": "address",
          "name": "token",
          "type": "address"
        }
      ],
      "name": "approveVaultRelayer",
      "outputs": [],
      "stateMutability": "nonpayable",
      "type": "function"
    },
    {
      "inputs": [
        {
          "internalType": "bytes32",
          "name": "",
          "type": "bytes32"
        }
      ],
      "name": "cachedBuyAmount",
      "outputs": [
        {
          "internalType": "uint256",
          "name": "",
          "type": "uint256"
        }
      ],
      "stateMutability": "view",
      "type": "function"
    },
    {
      "inputs": [
        {
          "internalType": "bytes32",
          "name": "",
          "type": "bytes32"
        }
      ],
      "name": "cachedSellAmount",
      "outputs": [
        {
          "internalType": "uint256",
          "name": "",
          "type": "uint256"
        }
      ],
      "stateMutability": "view",
      "type": "function"
    },
    {
      "inputs": [
        {
          "internalType": "bytes32",
          "name": "orderHash",
          "type": "bytes32"
        }
      ],
      "name": "cancelOrder",
      "outputs": [],
      "stateMutability": "nonpayable",
      "type": "function"
    },
    {
      "inputs": [],
      "name": "composableCoW",
      "outputs": [
        {
          "internalType": "contract IComposableCoW",
          "name": "",
          "type": "address"
        }
      ],
      "stateMutability": "view",
      "type": "function"
    },
    {
      "inputs": [
        {
          "components": [
            {
              "internalType": "address",
              "name": "user",
              "type": "address"
            },
            {
              "internalType": "address",
              "name": "trigger",
              "type": "address"
            },
            {
              "internalType": "bytes",
              "name": "triggerStaticData",
              "type": "bytes"
            },
            {
              "internalType": "bytes",
              "name": "preInstructions",
              "type": "bytes"
            },
            {
              "internalType": "address",
              "name": "sellToken",
              "type": "address"
            },
            {
              "internalType": "address",
              "name": "buyToken",
              "type": "address"
            },
            {
              "internalType": "bytes",
              "name": "postInstructions",
              "type": "bytes"
            },
            {
              "internalType": "bytes32",
              "name": "appDataHash",
              "type": "bytes32"
            },
            {
              "internalType": "uint256",
              "name": "maxIterations",
              "type": "uint256"
            },
            {
              "internalType": "address",
              "name": "sellTokenRefundAddress",
              "type": "address"
            }
          ],
          "internalType": "struct KapanConditionalOrderManager.KapanOrderParams",
          "name": "params",
          "type": "tuple"
        },
        {
          "internalType": "bytes32",
          "name": "salt",
          "type": "bytes32"
        }
      ],
      "name": "createOrder",
      "outputs": [
        {
          "internalType": "bytes32",
          "name": "orderHash",
          "type": "bytes32"
        }
      ],
      "stateMutability": "nonpayable",
      "type": "function"
    },
    {
      "inputs": [
        {
          "internalType": "bytes32",
          "name": "orderHash",
          "type": "bytes32"
        }
      ],
      "name": "executePostHook",
      "outputs": [],
      "stateMutability": "nonpayable",
      "type": "function"
    },
    {
      "inputs": [
        {
          "internalType": "address",
          "name": "user",
          "type": "address"
        },
        {
          "internalType": "bytes32",
          "name": "salt",
          "type": "bytes32"
        }
      ],
      "name": "executePostHookBySalt",
      "outputs": [],
      "stateMutability": "nonpayable",
      "type": "function"
    },
    {
      "inputs": [
        {
          "internalType": "bytes32",
          "name": "orderHash",
          "type": "bytes32"
        }
      ],
      "name": "executePreHook",
      "outputs": [],
      "stateMutability": "nonpayable",
      "type": "function"
    },
    {
      "inputs": [
        {
          "internalType": "address",
          "name": "user",
          "type": "address"
        },
        {
          "internalType": "bytes32",
          "name": "salt",
          "type": "bytes32"
        }
      ],
      "name": "executePreHookBySalt",
      "outputs": [],
      "stateMutability": "nonpayable",
      "type": "function"
    },
    {
      "inputs": [
        {
          "internalType": "bytes32",
          "name": "orderHash",
          "type": "bytes32"
        }
      ],
      "name": "getExecutionAmounts",
      "outputs": [
        {
          "internalType": "uint256",
          "name": "sellAmount",
          "type": "uint256"
        },
        {
          "internalType": "uint256",
          "name": "minBuyAmount",
          "type": "uint256"
        }
      ],
      "stateMutability": "view",
      "type": "function"
    },
    {
      "inputs": [
        {
          "internalType": "bytes32",
          "name": "orderHash",
          "type": "bytes32"
        }
      ],
      "name": "getOrder",
      "outputs": [
        {
          "components": [
            {
              "components": [
                {
                  "internalType": "address",
                  "name": "user",
                  "type": "address"
                },
                {
                  "internalType": "address",
                  "name": "trigger",
                  "type": "address"
                },
                {
                  "internalType": "bytes",
                  "name": "triggerStaticData",
                  "type": "bytes"
                },
                {
                  "internalType": "bytes",
                  "name": "preInstructions",
                  "type": "bytes"
                },
                {
                  "internalType": "address",
                  "name": "sellToken",
                  "type": "address"
                },
                {
                  "internalType": "address",
                  "name": "buyToken",
                  "type": "address"
                },
                {
                  "internalType": "bytes",
                  "name": "postInstructions",
                  "type": "bytes"
                },
                {
                  "internalType": "bytes32",
                  "name": "appDataHash",
                  "type": "bytes32"
                },
                {
                  "internalType": "uint256",
                  "name": "maxIterations",
                  "type": "uint256"
                },
                {
                  "internalType": "address",
                  "name": "sellTokenRefundAddress",
                  "type": "address"
                }
              ],
              "internalType": "struct KapanConditionalOrderManager.KapanOrderParams",
              "name": "params",
              "type": "tuple"
            },
            {
              "internalType": "enum KapanConditionalOrderManager.OrderStatus",
              "name": "status",
              "type": "uint8"
            },
            {
              "internalType": "uint256",
              "name": "iterationCount",
              "type": "uint256"
            },
            {
              "internalType": "uint256",
              "name": "createdAt",
              "type": "uint256"
            }
          ],
          "internalType": "struct KapanConditionalOrderManager.OrderContext",
          "name": "",
          "type": "tuple"
        }
      ],
      "stateMutability": "view",
      "type": "function"
    },
    {
      "inputs": [
        {
          "internalType": "address",
          "name": "user",
          "type": "address"
        }
      ],
      "name": "getUserOrders",
      "outputs": [
        {
          "internalType": "bytes32[]",
          "name": "",
          "type": "bytes32[]"
        }
      ],
      "stateMutability": "view",
      "type": "function"
    },
    {
      "inputs": [],
      "name": "hooksTrampoline",
      "outputs": [
        {
          "internalType": "address",
          "name": "",
          "type": "address"
        }
      ],
      "stateMutability": "view",
      "type": "function"
    },
    {
      "inputs": [
        {
          "internalType": "bytes32",
          "name": "orderHash",
          "type": "bytes32"
        }
      ],
      "name": "isTriggerMet",
      "outputs": [
        {
          "internalType": "bool",
          "name": "shouldExecute",
          "type": "bool"
        },
        {
          "internalType": "string",
          "name": "reason",
          "type": "string"
        }
      ],
      "stateMutability": "view",
      "type": "function"
    },
    {
      "inputs": [
        {
          "internalType": "bytes32",
          "name": "_hash",
          "type": "bytes32"
        },
        {
          "internalType": "bytes",
          "name": "_signature",
          "type": "bytes"
        }
      ],
      "name": "isValidSignature",
      "outputs": [
        {
          "internalType": "bytes4",
          "name": "",
          "type": "bytes4"
        }
      ],
      "stateMutability": "view",
      "type": "function"
    },
    {
      "inputs": [],
      "name": "orderHandler",
      "outputs": [
        {
          "internalType": "address",
          "name": "",
          "type": "address"
        }
      ],
      "stateMutability": "view",
      "type": "function"
    },
    {
      "inputs": [
        {
          "internalType": "bytes32",
          "name": "",
          "type": "bytes32"
        }
      ],
      "name": "orderSalts",
      "outputs": [
        {
          "internalType": "bytes32",
          "name": "",
          "type": "bytes32"
        }
      ],
      "stateMutability": "view",
      "type": "function"
    },
    {
      "inputs": [
        {
          "internalType": "bytes32",
          "name": "",
          "type": "bytes32"
        }
      ],
      "name": "orders",
      "outputs": [
        {
          "components": [
            {
              "internalType": "address",
              "name": "user",
              "type": "address"
            },
            {
              "internalType": "address",
              "name": "trigger",
              "type": "address"
            },
            {
              "internalType": "bytes",
              "name": "triggerStaticData",
              "type": "bytes"
            },
            {
              "internalType": "bytes",
              "name": "preInstructions",
              "type": "bytes"
            },
            {
              "internalType": "address",
              "name": "sellToken",
              "type": "address"
            },
            {
              "internalType": "address",
              "name": "buyToken",
              "type": "address"
            },
            {
              "internalType": "bytes",
              "name": "postInstructions",
              "type": "bytes"
            },
            {
              "internalType": "bytes32",
              "name": "appDataHash",
              "type": "bytes32"
            },
            {
              "internalType": "uint256",
              "name": "maxIterations",
              "type": "uint256"
            },
            {
              "internalType": "address",
              "name": "sellTokenRefundAddress",
              "type": "address"
            }
          ],
          "internalType": "struct KapanConditionalOrderManager.KapanOrderParams",
          "name": "params",
          "type": "tuple"
        },
        {
          "internalType": "enum KapanConditionalOrderManager.OrderStatus",
          "name": "status",
          "type": "uint8"
        },
        {
          "internalType": "uint256",
          "name": "iterationCount",
          "type": "uint256"
        },
        {
          "internalType": "uint256",
          "name": "createdAt",
          "type": "uint256"
        }
      ],
      "stateMutability": "view",
      "type": "function"
    },
    {
      "inputs": [],
      "name": "owner",
      "outputs": [
        {
          "internalType": "address",
          "name": "",
          "type": "address"
        }
      ],
      "stateMutability": "view",
      "type": "function"
    },
    {
      "inputs": [
        {
          "internalType": "bytes32",
          "name": "",
          "type": "bytes32"
        }
      ],
      "name": "preHookBuyBalance",
      "outputs": [
        {
          "internalType": "uint256",
          "name": "",
          "type": "uint256"
        }
      ],
      "stateMutability": "view",
      "type": "function"
    },
    {
      "inputs": [
        {
          "internalType": "bytes32",
          "name": "",
          "type": "bytes32"
        }
      ],
      "name": "preHookExecutedForIteration",
      "outputs": [
        {
          "internalType": "uint256",
          "name": "",
          "type": "uint256"
        }
      ],
      "stateMutability": "view",
      "type": "function"
    },
    {
      "inputs": [
        {
          "internalType": "bytes32",
          "name": "",
          "type": "bytes32"
        }
      ],
      "name": "preHookSellBalance",
      "outputs": [
        {
          "internalType": "uint256",
          "name": "",
          "type": "uint256"
        }
      ],
      "stateMutability": "view",
      "type": "function"
    },
    {
      "inputs": [
        {
          "internalType": "address",
          "name": "token",
          "type": "address"
        },
        {
          "internalType": "address",
          "name": "to",
          "type": "address"
        },
        {
          "internalType": "uint256",
          "name": "amount",
          "type": "uint256"
        }
      ],
      "name": "recoverTokens",
      "outputs": [],
      "stateMutability": "nonpayable",
      "type": "function"
    },
    {
      "inputs": [],
      "name": "renounceOwnership",
      "outputs": [],
      "stateMutability": "nonpayable",
      "type": "function"
    },
    {
      "inputs": [
        {
          "internalType": "bytes32",
          "name": "orderHash",
          "type": "bytes32"
        }
      ],
      "name": "resetStuckOrder",
      "outputs": [],
      "stateMutability": "nonpayable",
      "type": "function"
    },
    {
      "inputs": [],
      "name": "router",
      "outputs": [
        {
          "internalType": "contract IKapanRouter",
          "name": "",
          "type": "address"
        }
      ],
      "stateMutability": "view",
      "type": "function"
    },
    {
      "inputs": [
        {
          "internalType": "address",
          "name": "_orderHandler",
          "type": "address"
        }
      ],
      "name": "setOrderHandler",
      "outputs": [],
      "stateMutability": "nonpayable",
      "type": "function"
    },
    {
      "inputs": [],
      "name": "settlement",
      "outputs": [
        {
          "internalType": "contract IGPv2Settlement",
          "name": "",
          "type": "address"
        }
      ],
      "stateMutability": "view",
      "type": "function"
    },
    {
      "inputs": [
        {
          "internalType": "address",
          "name": "newOwner",
          "type": "address"
        }
      ],
      "name": "transferOwnership",
      "outputs": [],
      "stateMutability": "nonpayable",
      "type": "function"
    },
    {
      "inputs": [
        {
          "internalType": "address",
          "name": "",
          "type": "address"
        },
        {
          "internalType": "uint256",
          "name": "",
          "type": "uint256"
        }
      ],
      "name": "userOrders",
      "outputs": [
        {
          "internalType": "bytes32",
          "name": "",
          "type": "bytes32"
        }
      ],
      "stateMutability": "view",
      "type": "function"
    },
    {
      "inputs": [
        {
          "internalType": "address",
          "name": "",
          "type": "address"
        },
        {
          "internalType": "bytes32",
          "name": "",
          "type": "bytes32"
        }
      ],
      "name": "userSaltToOrderHash",
      "outputs": [
        {
          "internalType": "bytes32",
          "name": "",
          "type": "bytes32"
        }
      ],
      "stateMutability": "view",
      "type": "function"
    }
  ],
  "transactionHash": "0x0689c383379fd4427e88982ea9ab387bc9b006a639342552cd23e817c39146ed",
  "args": [
    "0x0BE61223F99E57b8b8B7033a77B54Adc7f7cF027",
    "0x42a3E18f8B7656f22ef4738e9751B1034913C238",
    "0xfdaFc9d1902f4e0b84f65F49f244b32b31013b74",
    "0x9008D19f58AAbD9eD0D60971565AA8510560ab41",
    "0x60Bf78233f48eC42eE3F101b9a05eC7878728006"
  ],
  "numDeployments": 16,
  "solcInputHash": "984e77d1fc08e4d5b76fd3420811ed24",
  "bytecode": "0x610100346101c857601f613bd538819003918201601f19168301916001600160401b038311848410176101cc5780849260a0946040528339810103126101c857610048816101e0565b610054602083016101e0565b91610061604082016101e0565b9061007a6080610073606084016101e0565b92016101e0565b6001600160a01b039093169384156101b5575f80546001600160a01b031981168717825560405196916001600160a01b03909116907f8be0079c531659141344cd1fd0a4f28419497f9722a3daafe3b4186f6b6457e09080a3600180556001600160a01b03169182156101a6576001600160a01b03169081156101a6576001600160a01b03169182156101a6576001600160a01b038416156101a65760805260a05260c05260e0526139e090816101f582396080518181816101a901528181612dd8015261349a015260a05181818161064301528181610859015281816114db015261236a015260c0518181816104af01528181610dd70152818161156c01526121b3015260e05181818161029401528181610430015281816106df015281816107320152610e540152f35b63d92e233d60e01b5f5260045ffd5b631e4fbdf760e01b5f525f60045260245ffd5b5f80fd5b634e487b7160e01b5f52604160045260245ffd5b51906001600160a01b03821682036101c85756fe6080806040526004361015610012575f80fd5b5f905f3560e01c9081630b64812814611aa8575080631626ba7e14611a36578063268a0ec114611a0c578063277fa0d014610eb35780632fbff5a414610e30578063507f0e7414610e065780635116063014610dc157806351fe1db514610d975780635485b15814610d7b57806355024ca714610ca95780635778472a14610b9a5780635e10bce414610b6f5780635f3e849f14610ad257806363c69f0814610a4c578063715018a614610a055780637489ec23146107d95780637f881ea0146107af5780638009fb6a1461070e57806381e6d3ce146106c9578063856652e9146106725780638b0f48341461062d5780638da5cb5b146106065780639c3f1e9014610595578063b58483051461056c578063c73bb4bd14610469578063caf2185614610414578063cea4b436146103d1578063d22b0586146103a7578063d7a3aca714610323578063de7cdda4146102e3578063e0b787e414610278578063ea6971861461024e578063f2fde38b146101db5763f887ea4014610194575f80fd5b346101d857806003193601126101d8576040517f00000000000000000000000000000000000000000000000000000000000000006001600160a01b03168152602090f35b80fd5b50346101d85760203660031901126101d8576101f5611ac2565b6101fd61328f565b6001600160a01b0316801561023a5781546001600160a01b03198116821783556001600160a01b03165f51602061398b5f395f51905f528380a380f35b631e4fbdf760e01b82526004829052602482fd5b50346101d85760203660031901126101d85760406020916004358152600983522054604051908152f35b50346101d85760203660031901126101d8576102926128bc565b7f00000000000000000000000000000000000000000000000000000000000000006001600160a01b031633036102d4576102cd6004356132f7565b6001805580f35b631cb3967f60e21b8152600490fd5b50346101d85760203660031901126101d8576103006004356127cb565b9061031f60405192839215158352604060208401526040830190611aec565b0390f35b50346101d85760203660031901126101d85761033d611ac2565b61034561328f565b6001600160a01b0316801561039857600280546001600160a01b0319811683179091556001600160a01b03167f7bf6e789688cd776b5170517f39970fea2870a79d649c8443dd2b0ec62823eb78380a380f35b63d92e233d60e01b8252600482fd5b50346101d85760203660031901126101d85760406020916004358152600783522054604051908152f35b50346101d85760403660031901126101d8576020906040906001600160a01b036103f9611ac2565b16815260068352818120602435825283522054604051908152f35b50346101d85760203660031901126101d85761042e6128bc565b7f00000000000000000000000000000000000000000000000000000000000000006001600160a01b031633036102d4576102cd600435612c7a565b50346101d85760203660031901126101d857610483611ac2565b61048b61328f565b6001600160a01b0316801561039857604051634daa966160e11b81526020816004817f00000000000000000000000000000000000000000000000000000000000000006001600160a01b03165afa908115610561578391610523575b506104f28183613673565b6001600160a01b0316907f1ed99bd68e15d0355032c83534ad49f29b5eeba77f51b957e6ee3c09f561a7b88380a380f35b90506020813d602011610559575b8161053e60209383611d6e565b810103126105555761054f90611ee0565b5f6104e7565b8280fd5b3d9150610531565b6040513d85823e3d90fd5b50346101d857806003193601126101d8576002546040516001600160a01b039091168152602090f35b50346101d85760203660031901126101d85760406105ed9160043581526003602052206105c181611d91565b9060ff600a8201541690600c600b820154910154906105f8604051958695608087526080870190611b10565b936020860190611bc3565b604084015260608301520390f35b50346101d857806003193601126101d857546040516001600160a01b039091168152602090f35b50346101d857806003193601126101d8576040517f00000000000000000000000000000000000000000000000000000000000000006001600160a01b03168152602090f35b50346101d85760403660031901126101d85761068c611ac2565b6001600160a01b03168152600560205260408120805460243592908310156101d85760206106ba8484611c03565b90549060031b1c604051908152f35b50346101d857806003193601126101d8576040517f00000000000000000000000000000000000000000000000000000000000000006001600160a01b03168152602090f35b50346101d85760403660031901126101d857610728611ac2565b6107306128bc565b7f00000000000000000000000000000000000000000000000000000000000000006001600160a01b031633036107a0576001600160a01b0316815260066020908152604080832060243584529091528120548015610791576102cd906132f7565b63d36d896560e01b8252600482fd5b631cb3967f60e21b8252600482fd5b50346101d85760203660031901126101d85760406020916004358152600b83522054604051908152f35b50346101d85760203660031901126101d8576004356107f66128bc565b808252600360205260408220600a81019060ff8254169060048210156109f15781156109e257546001600160a01b031633036109d4575f19016109c557818352600760205260408320546109b657600360ff198254161790558160018060a01b037f0000000000000000000000000000000000000000000000000000000000000000166108e5602060018060a01b03600254168585526004825260408520546040519087848301528382526108ac604083611d6e565b604051926108b984611d1c565b835283830152604082015260405180938192635500079d60e01b83528460048401526024830190611f45565b0381855afa90811561056157839161097d575b50813b156105555782916024839260405194859384926395bc267360e01b845260048401525af1801561097257610959575b505033907f0e00387e025961780b7f127ffab3dfa3118f4d9047a3508c3ae9a0285245a15e8380a36001805580f35b8161096391611d6e565b61096e57815f61092a565b5080fd5b6040513d84823e3d90fd5b9250506020823d6020116109ae575b8161099960209383611d6e565b810103126109aa578391515f6108f8565b5f80fd5b3d915061098c565b6313e916e560e01b8352600483fd5b632b12537f60e21b8352600483fd5b6282b42960e81b8452600484fd5b63d36d896560e01b8552600485fd5b634e487b7160e01b85526021600452602485fd5b50346101d857806003193601126101d857610a1e61328f565b80546001600160a01b03198116825581906001600160a01b03165f51602061398b5f395f51905f528280a380f35b50346101d85760203660031901126101d8576001600160a01b03610a6e611ac2565b168152600560205260408120604051918260208354918281520192825260208220915b818110610abc5761031f85610aa881870382611d6e565b604051918291602083526020830190611bd0565b8254845260209093019260019283019201610a91565b50346101d85760603660031901126101d857610aec611ac2565b6024356001600160a01b03811691828203610b6b5760443590610b0d61328f565b6001600160a01b0316918215610b5c578315610b5c5781610b527f401f439d865a766757ec78675925bd67198d5e78805aa41691b34b5d6a6cbbe693602093866132b5565b604051908152a380f35b63d92e233d60e01b8552600485fd5b8380fd5b50346101d85760203660031901126101d8576040610b8e60043561271b565b82519182526020820152f35b50346101d85760203660031901126101d857806060604051610bbb81611ce5565b604051610bc781611d00565b83815283602082015282604082015282808201528360808201528360a08201528260c08201528360e0820152836101008201528361012082015281528260208201528260408201520152600435815260036020526040812060405190610c2c82611ce5565b610c3581611d91565b825260ff600a8201541690602083019160048110156109f157610c8d94508252600c600b820154916040850192835201549060608401918252610c9960405195869560208752516080602088015260a0870190611b10565b93516040860190611bc3565b5160608401525160808301520390f35b50346101d85760203660031901126101d857600435610cc661328f565b80825260036020526040822060ff600a820154166004811015610d67576001036109c5578183526007602052604083205415610d585781835260076020528260408120558183526008602052826040812055818352600960205282604081205560018060a01b03905416907fe2210120d48fe93da6dc8d1873a097516ebbbe5e3f47c5afb525bb2263f1e6e08380a380f35b631feb8b7960e21b8352600483fd5b634e487b7160e01b84526021600452602484fd5b50346101d857806003193601126101d857602060405160648152f35b50346101d85760203660031901126101d85760406020916004358152600883522054604051908152f35b50346101d857806003193601126101d8576040517f00000000000000000000000000000000000000000000000000000000000000006001600160a01b03168152602090f35b50346101d85760203660031901126101d85760406020916004358152600483522054604051908152f35b50346101d85760403660031901126101d857610e4a611ac2565b610e526128bc565b7f00000000000000000000000000000000000000000000000000000000000000006001600160a01b031633036107a0576001600160a01b0316815260066020908152604080832060243584529091528120548015610791576102cd90612c7a565b50346109aa5760403660031901126109aa576004356001600160401b0381116109aa57806004019161014060031983360301126109aa57602435610ef56128bc565b610efe84612645565b336001600160a01b03909116036119fe5760248301906001600160a01b03610f2583612645565b16156119ef5760848401926001600160a01b03610f4185612645565b161580156119d3575b6119c457610f5784612645565b60a4860192906001600160a01b03610f6e85612645565b6001600160a01b039092169116146119b557335f52600660205260405f20815f5260205260405f20546119a657335f526005602052606460405f20541015611997578660648701610fd5610fd0610fc58385612659565b919033923691611e8c565b612a02565b60c4880197610fea610fd0610fc58b86612659565b604051606060208201908152906001600160a01b0361100886611ad8565b1660808201526001600160a01b0361101f8a611ad8565b1660a08201526110bb8a6110a88d60448701986110716110556110428c8461268b565b61014060c08b01526101c08a01916126bd565b61105f8b8461268b565b898303607f190160e08b0152906126bd565b936001600160a01b039061108490611ad8565b166101008701526001600160a01b0361109c8e611ad8565b1661012087015261268b565b848303607f1901610140860152906126bd565b9160e4840135908161016084015261010485013592836101808201526111128161012488019660018060a01b036110f189611ad8565b166101a08301528b604083015242606083015203601f198101835282611d6e565b5190209b8c5f52600360205260ff600a60405f20015416600481101561173a57611988578d956040519761114589611ce5565b61115a604051986111558a611d00565b611ad8565b88526111658d611ad8565b6020890152356001600160401b0381116109aa576111899060043691890101611ec2565b6040880152356001600160401b0381116109aa576111ad9060043691880101611ec2565b60608701526111bb8c611ad8565b60808701526111c98a611ad8565b60a0870152356001600160401b0381116109aa576112059460046111f09236920101611ec2565b60c086015260e0850152610100840152611ad8565b6101208201528152600160208083018281525f604080860182815242606088019081528d845260038652928290209651805188546001600160a01b03199081166001600160a01b03928316178a559682015197890180549097169716969096179094558401518051929491939260028701916001600160401b0382116117265781906112918454611c2c565b601f8111611938575b50602090601f83116001146118d5575f926118ca575b50508160011b915f199060031b1c19161790555b6060810151805160038701916001600160401b0382116117265781906112ea8454611c2c565b601f811161187a575b50602090601f8311600114611817575f9261180c575b50508160011b915f199060031b1c19161790555b60808101516004860180546001600160a01b039283166001600160a01b03199182161790915560a083015160058801805491909316911617905560c0810151805160068701916001600160401b03821161172657819061137d8454611c2c565b601f81116117bc575b50602090601f8311600114611759575f9261174e575b50508160011b915f199060031b1c19161790555b60e08101516007860155610100810151600886015561012001516009850180546001600160a01b0319166001600160a01b0392909216919091179055915191600a8401600484101561173a57600c9360ff8019835416911617905551600b84015551910155855f5260046020528060405f205560018060a01b0361143388612645565b165f52600560205260405f208054600160401b8110156117265761145c91600182018155611c03565b81545f1960039290921b91821b19169088901b1790556001600160a01b0361148388612645565b165f52600660205260405f20815f526020528560405f205560018060a01b03600254169060405190876020830152602082526114c0604083611d6e565b604051926114cd84611d1c565b8352602083015260408201527f00000000000000000000000000000000000000000000000000000000000000006001600160a01b0316803b156109aa576115365f929183926040519485809481936335fd70e560e11b8352604060048401526044830190611f45565b6001602483015203925af1801561171b57611708575b5061155684612645565b604051634daa966160e11b8152906020826004817f00000000000000000000000000000000000000000000000000000000000000006001600160a01b03165afa9182156105615783926116cc575b50604051636eb1769f60e11b81523060048201526001600160a01b038381166024830152919091169290602081604481875afa9182156116c05791611682575b509261164361163d61163761163160209b6060978c9a977f0d7b86882845c929e022510097af482fe9d559b56b818bb2c8630eff4d3ed9539a60018060ff1b0311611672575b5050612645565b94612645565b97612645565b91612645565b604080516001600160a01b0398891681529288168a84015290871690820152941693a360018055604051908152f35b61167b91613673565b5f8061162a565b9294919390506020833d6020116116b8575b816116a160209383611d6e565b810103126109aa57915190939192906116436115e4565b3d9150611694565b604051903d90823e3d90fd5b9091506020813d602011611700575b816116e860209383611d6e565b81010312610555576116f990611ee0565b905f6115a4565b3d91506116db565b61171491505f90611d6e565b5f5f61154c565b6040513d5f823e3d90fd5b634e487b7160e01b5f52604160045260245ffd5b634e487b7160e01b5f52602160045260245ffd5b015190505f8061139c565b5f8581528281209350601f198516905b8181106117a4575090846001959493921061178c575b505050811b0190556113b0565b01515f1960f88460031b161c191690555f808061177f565b92936020600181928786015181550195019301611769565b909150835f5260205f20601f840160051c81019160208510611802575b90601f859493920160051c01905b8181106117f45750611386565b5f81558493506001016117e7565b90915081906117d9565b015190505f80611309565b5f8581528281209350601f198516905b818110611862575090846001959493921061184a575b505050811b01905561131d565b01515f1960f88460031b161c191690555f808061183d565b92936020600181928786015181550195019301611827565b909150835f5260205f20601f840160051c810191602085106118c0575b90601f859493920160051c01905b8181106118b257506112f3565b5f81558493506001016118a5565b9091508190611897565b015190505f806112b0565b5f8581528281209350601f198516905b8181106119205750908460019594939210611908575b505050811b0190556112c4565b01515f1960f88460031b161c191690555f80806118fb565b929360206001819287860151815501950193016118e5565b909150835f5260205f20601f840160051c8101916020851061197e575b90601f859493920160051c01905b818110611970575061129a565b5f8155849350600101611963565b9091508190611955565b63966753c560e01b5f5260045ffd5b6352f9988b60e01b5f5260045ffd5b630ced304360e01b5f5260045ffd5b6333910aef60e11b5f5260045ffd5b63d92e233d60e01b5f5260045ffd5b506001600160a01b036119e860a48701612645565b1615610f4a565b63a768d7fd60e01b5f5260045ffd5b6282b42960e81b5f5260045ffd5b346109aa5760203660031901126109aa576004355f52600a602052602060405f2054604051908152f35b346109aa5760403660031901126109aa576024356001600160401b0381116109aa57366023820112156109aa576004810135906001600160401b0382116109aa5736602483830101116109aa576020916024611a959201600435611f74565b6040516001600160e01b03199091168152f35b346109aa575f3660031901126109aa578061070860209252f35b600435906001600160a01b03821682036109aa57565b35906001600160a01b03821682036109aa57565b805180835260209291819084018484015e5f828201840152601f01601f1916010190565b9060018060a01b03825116815260018060a01b036020830151166020820152610120611b9b611b65611b5360408601516101406040870152610140860190611aec565b60608601518582036060870152611aec565b60018060a01b03608086015116608085015260018060a01b0360a08601511660a085015260c085015184820360c0860152611aec565b60e080850151908401526101008085015190840152928101516001600160a01b031691015290565b90600482101561173a5752565b90602080835192838152019201905f5b818110611bed5750505090565b8251845260209384019390920191600101611be0565b8054821015611c18575f5260205f2001905f90565b634e487b7160e01b5f52603260045260245ffd5b90600182811c92168015611c5a575b6020831014611c4657565b634e487b7160e01b5f52602260045260245ffd5b91607f1691611c3b565b5f9291815491611c7383611c2c565b8083529260018116908115611cc85750600114611c8f57505050565b5f9081526020812093945091925b838310611cae575060209250010190565b600181602092949394548385870101520191019190611c9d565b915050602093945060ff929192191683830152151560051b010190565b608081019081106001600160401b0382111761172657604052565b61014081019081106001600160401b0382111761172657604052565b606081019081106001600160401b0382111761172657604052565b61018081019081106001600160401b0382111761172657604052565b604081019081106001600160401b0382111761172657604052565b601f909101601f19168101906001600160401b0382119082101761172657604052565b90604051611d9e81611d00565b82546001600160a01b0390811682526001840154166020820152604051909283916101209190611ddc81611dd58160028601611c64565b0382611d6e565b6040840152604051611df581611dd58160038601611c64565b606084015260048101546001600160a01b03908116608085015260058201541660a0840152604051611e2e81611dd58160068601611c64565b60c0840152600781015460e08401526008810154610100840152600901546001600160a01b0316910152565b6001600160401b0381116117265760051b60200190565b6001600160401b03811161172657601f01601f191660200190565b929192611e9882611e71565b91611ea66040519384611d6e565b8294818452818301116109aa578281602093845f960137010152565b9080601f830112156109aa57816020611edd93359101611e8c565b90565b51906001600160a01b03821682036109aa57565b519081151582036109aa57565b81601f820112156109aa57602081519101611f1b82611e71565b92611f296040519485611d6e565b828452828201116109aa57815f926020928386015e8301015290565b9060606040611edd9360018060a01b038151168452602081015160208501520151918160408201520190611aec565b81838101036101a081126109aa57610180136109aa5760405192611f9784611d37565b611fa083611ad8565b8452611fae60208401611ad8565b6020850152611fbf60408401611ad8565b6040850152606083013560608501526080830135608085015260a083013563ffffffff811681036109aa5760a085015260c083013560c085015260e083013560e085015261010083013561010085015261012083013580151581036109aa5761012085015261014083810135908501526101608084013590850152610180830135926001600160401b0384116109aa57606084820183830103126109aa576040519361206a85611d1c565b818101356001600160401b0381116109aa57838301601f82848601010112156109aa5780828401013561209c81611e5a565b916120aa6040519384611d6e565b818352602083019086860160208460051b83888a01010101116109aa57906020828688010101915b60208460051b82888a0101010183106126315750505090865250818101602001356001600160401b0381116109aa576060818385010185850103126109aa576040519061211e82611d1c565b8383018101356001600160a01b03811681036109aa57825283830181016020818101359084015260400135906001600160401b0382116109aa5761216a91868601918587010101611ec2565b60408201526020860152604081830101359060018060401b0382116109aa57612197938301920101611ec2565b6040838101919091525163f698da2560e01b81526020816004817f00000000000000000000000000000000000000000000000000000000000000006001600160a01b03165afa90811561171b575f916125ff575b507fd5a25ba2e97094ad7d83dc28a6572da797d6b3e7fc6663bd93efb789fc17e48960018060a01b0385511660018060a01b036020870151168660018060a01b036040820151166060820151608083015163ffffffff60a08501511660c08501519060e086015192610100870151946101208801511515966101606101408a0151990151996040519b60208d019d8e5260408d015260608c015260808b015260a08a015260c089015260e08801526101008701526101208601526101408501526101608401526101808301526101a08201526101a081526122ce6101c082611d6e565b51902060405190602082019261190160f01b845260228301526042820152604281526122fb606282611d6e565b519020036125f9575f612342602083015161236660408501519451612354604051968795869563137050cb60e11b8752306004880152608060248801526084870190611f45565b85810360031901604487015290611aec565b83810360031901606485015290611bd0565b03817f00000000000000000000000000000000000000000000000000000000000000006001600160a01b03165afa5f91816124fc575b506123a75750505f90565b815181516001600160a01b0390811691161491826124dd575b826124be575b826124a3575b82612488575b82612475575b82612462575b8261244d575b82612434575b8261241f575b8261240b575b5050612400575f90565b630b135d3f60e11b90565b610160919250810151910151145f806123f6565b915061014082015161014082015114916123f0565b91506101208201511515610120820151151514916123ea565b915061010082015161010082015114916123e4565b915060e082015160e082015114916123de565b915060c082015160c082015114916123d8565b915061249d608083015160808301519061375e565b916123d2565b91506124b8606083015160608301519061375e565b916123cc565b604080820151908301516001600160a01b0390811691161492506123c6565b602080820151908301516001600160a01b0390811691161492506123c0565b9091503d805f833e61250e8183611d6e565b8101908082036101a081126109aa57610180136109aa576040519161253283611d37565b61253b82611ee0565b835261254960208301611ee0565b602084015261255a60408301611ee0565b6040840152606082015160608401526080820151608084015260a082015163ffffffff811681036109aa5760a084015260c082015160c084015260e082015160e08401526101008201516101008401526125b76101208301611ef4565b610120840152610140828101519084015261016080830151908401526101808201516001600160401b0381116109aa576125f19201611f01565b50905f61239c565b50505f90565b90506020813d602011612629575b8161261a60209383611d6e565b810103126109aa57515f6121eb565b3d915061260d565b6020808093853581520193019291506120d2565b356001600160a01b03811681036109aa5790565b903590601e19813603018212156109aa57018035906001600160401b0382116109aa576020019181360383136109aa57565b9035601e19823603018112156109aa570160208101919035906001600160401b0382116109aa5781360383136109aa57565b908060209392818452848401375f828201840152601f01601f1916010190565b91908260409103126109aa576020825192015190565b9061270b602091949394604084526040840190611c64565b6001600160a01b03909416910152565b5f52600360205260405f2060ff600a82015416600481101561173a576001036127c4576001810154815460408051632b548a7b60e11b81529493909285926001600160a01b03918216928492839261277c92911690600201600484016126f3565b03915afa91821561171b575f905f9361279457509190565b90506127b991925060403d6040116127bd575b6127b18183611d6e565b8101906126dd565b9091565b503d6127a7565b505f905f90565b5f52600360205260405f2060ff600a82015416600481101561173a5760010361288b576001810154815460405163632224a760e01b815293925f9285926001600160a01b03918216928492839261282b92911690600201600484016126f3565b03915afa91821561171b575f905f9361284357509190565b9250503d805f843e6128558184611d6e565b8201916040818403126109aa5761286b81611ef4565b60208201519093906001600160401b0381116109aa57611edd9201611f01565b505f9060405161289c604082611d6e565b601081526f6f726465725f6e6f745f61637469766560801b602082015290565b6002600154146128cd576002600155565b633ee5aeb560e01b5f5260045ffd5b6020818303126109aa578051906001600160401b0382116109aa57019080601f830112156109aa5781519161291083611e5a565b9261291e6040519485611d6e565b80845260208085019160051b830101918383116109aa5760208101915b83831061294a57505050505090565b82516001600160401b0381116109aa578201906040828703601f1901126109aa576040519061297882611d53565b60208301516001600160401b0381116109aa5787602061299a92860101611f01565b82526040830151916001600160401b0383116109aa576129c288602080969581960101611f01565b8382015281520192019161293b565b805115611c185760200190565b805160011015611c185760400190565b8051821015611c185760209160051b010190565b91909180518015612bd45790602080612a1f9383010191016128dc565b6040516020810190653937baba32b960d11b825260068152612a42602682611d6e565b5190205f5b8251811015612bcd5781612a5b82856129ee565b5151604051612a896020828180820195805191829101875e81015f838201520301601f198101835282611d6e565b51902003612a9a575b600101612a47565b6020612aa682856129ee565b51015180518101906020818303126109aa576020810151906001600160401b0382116109aa5701808203601f19810192919060c0136109aa576040519160c083016001600160401b03811184821017611726576040526020820151600a8110156109aa578352612b1860408301611ee0565b6020840152612b2960608301611ee0565b604084019081526080830151606085015260a0830151909490916001600160401b0383116109aa576020928380612b64930191860101611f01565b6080850152607f1901126109aa5760405191602083016001600160401b038111848210176117265760405260c090910151825260a00152516001600160a01b03908116908616808203612bb8575050612a92565b63041bc0b160e41b5f5260045260245260445ffd5b5050509050565b50509050565b91908203918211612be757565b634e487b7160e01b5f52601160045260245ffd5b602081016020825282518091526040820191602060408360051b8301019401925f915b838310612c2d57505050505090565b9091929394602080612c6b600193603f1986820301875289519083612c5b8351604084526040840190611aec565b9201519084818403910152611aec565b97019301930191939290612c1e565b5f815f52600360205260405f2092600a84019260ff845416600481101561173a5760010361328057805f52600760205260405f205490600b86019182549060018201809211612be7570361327157612cd3602496611d91565b94815f5260076020525f6040812055815f52600860205260405f205494825f52600960205260405f2054966080810196602060018060a01b038951166040519b8c80926370a0823160e01b82523060048301525afa998a1561171b575f9a61323c575b5060249060a083019a602060018060a01b038d5116604051948580926370a0823160e01b82523060048301525afa92831561171b575f93613208575b505f87815260086020908152604080832083905560098252808320839055600a8252808320839055600b909152812055808211156131ff57612db391612bda565b985b808211156131f757612dc691612bda565b80156131e85789516001600160a01b037f000000000000000000000000000000000000000000000000000000000000000081169a91612e099184918d91166132b5565b60c083015189519b5181516001600160a01b039d8e169d9091169a91612e37916020908201810191016128dc565b998a5160028101809111612be757612e4e906137b6565b9c612e5990846138d9565b8d60405191612e6783611d53565b612e6f613813565b83526020830152612e7f906129d1565b52612e898d6129d1565b50612e9490846138d9565b60405190612ea182611d53565b612ea9613813565b82526020820152612eb98d6129de565b52612ec38c6129de565b505f5b8a51811015612f0657612ed9818c6129ee565b51906002810191828211612be757828f612eff92612ef9600196836129ee565b526129ee565b5001612ec6565b50929598509295989990939699803b156109aa5760405163f0dbeea560e01b8152915f918391829084908290612f3f9060048301612bfb565b03925af1801561171b576131d3575b50610120840180516001600160a01b031661312b575b505086545f1981146131175760408893887f746e7bce16b1125d16e5673941791d7ff1f65d656a3c7346b7c2aa614814850f6060829660017f5b19a0b08bbd8e7537d63d9f1db0947c5eba6d93e02a7e0a1520ea5f29bd644c970180995585519089825260208201528486820152a28151908582526020820152a2602082810151604080850151855191516343fc086560e01b81526060600482015294939285926001600160a01b0391821692849283921690613025906064840190611aec565b90602483015286604483015203915afa91821561310c5784926130d0575b5061010083015180151591826130c5575b505081156130bd575b5061306a575b5050505050565b825460ff1916600217909255505191546040519081526001600160a01b0392909216917f11c239861e7b77ea2869389e0f03373ea1d12f407575794b517a10d10c54333390602090a35f80808080613063565b90505f61305d565b101590505f80613054565b9091506020813d602011613104575b816130ec60209383611d6e565b81010312610b6b576130fd90611ef4565b905f613043565b3d91506130df565b6040513d86823e3d90fd5b634e487b7160e01b85526011600452602485fd5b81516040516370a0823160e01b81523060048201529190602090839060249082906001600160a01b03165afa9182156131c8578792613194575b5081613172575b50612f64565b9151915161318c926001600160a01b0391821691166132b5565b5f808061316c565b9091506020813d6020116131c0575b816131b060209383611d6e565b810103126109aa5751905f613165565b3d91506131a3565b6040513d89823e3d90fd5b6131e09195505f90611d6e565b5f935f612f4e565b639671a89f60e01b5f5260045ffd5b50505f612dc6565b50505f98612db5565b9092506020813d602011613234575b8161322460209383611d6e565b810103126109aa5751915f612d72565b3d9150613217565b9099506020813d602011613269575b8161325860209383611d6e565b810103126109aa5751986024612d36565b3d915061324b565b631feb8b7960e21b5f5260045ffd5b632b12537f60e21b5f5260045ffd5b5f546001600160a01b031633036132a257565b63118cdaa760e01b5f523360045260245ffd5b60405163a9059cbb60e01b60208201526001600160a01b0390921660248301526044808301939093529181526132f5916132f0606483611d6e565b613837565b565b5f90805f52600360205260405f209260ff600a85015416600481101561173a5760010361328057815f52600760205260405f20546136645761333884611d91565b602081015160408083015183518251632b548a7b60e11b815260048101849052989496949389926001600160a01b039182169284928392911690613380906044840190611aec565b90602483015203915afa801561171b575f965f9161363e575b5090600b91835f52600a6020528760405f2055835f528260205260405f205501805460018101809111612be757825f52600760205260405f205560608401519360808101956133fb60018060a01b0388511696602080825183010191016128dc565b9586519060018201809211612be75761341661341c926137b6565b996138d9565b6040519061342982611d53565b613431613813565b82526020820152613441896129d1565b5261344b886129d1565b505f5b865181101561348e5761346181886129ee565b51906001810191828211612be75782613487916134806001958e6129ee565b528b6129ee565b500161344e565b509396929591945092917f00000000000000000000000000000000000000000000000000000000000000006001600160a01b0316803b156109aa5760405163f0dbeea560e01b8152915f9183918290849082906134ee9060048301612bfb565b03925af1801561171b57613628575b50516040516370a0823160e01b815230600482015290602090829060249082906001600160a01b03165afa9081156109725782916135f5575b5060249260209186845260088352604084205560a0600180821b0391015116604051938480926370a0823160e01b82523060048301525afa9182156135e85781926135a5575b5091602091604084865f51602061396b5f395f51905f52965260098552205554604051908152a2565b9150916020823d6020116135e0575b816135c160209383611d6e565b810103126109aa57905190915f51602061396b5f395f51905f5261357c565b3d91506135b4565b50604051903d90823e3d90fd5b90506020813d602011613620575b8161361060209383611d6e565b810103126109aa57516024613536565b3d9150613603565b6136359192505f90611d6e565b5f9060206134fd565b600b92975061365c915060403d6040116127bd576127b18183611d6e565b909691613399565b63e617d13160e01b5f5260045ffd5b60405190602082019263095ea7b360e01b845260018060a01b0316928360248401525f196044840152604483526136ab606484611d6e565b82516001600160a01b038316915f91829182855af1906136c96138aa565b82613724575b5081613719575b50156136e157505050565b6132f06132f5936040519063095ea7b360e01b602083015260248201525f604482015260448152613713606482611d6e565b82613837565b90503b15155f6136d6565b8051919250811591821561373c575b5050905f6136cf565b81925090602091810103126109aa5760206137579101611ef4565b5f80613733565b908082146137af578082119182156137a85780925b1561379a579061378291612bda565b606481029080820460641490151715612be757111590565b6137a391612bda565b613782565b8192613773565b5050600190565b906137c082611e5a565b6137cd6040519182611d6e565b82815280926137de601f1991611e5a565b01905f5b8281106137ee57505050565b6020906040516137fd81611d53565b60608152606083820152828285010152016137e2565b60405190613822604083611d6e565b60068252653937baba32b960d11b6020830152565b5f8061385f9260018060a01b03169360208151910182865af16138586138aa565b908361390c565b8051908115159182613887575b50506138755750565b635274afe760e01b5f5260045260245ffd5b81925090602091810103126109aa5760206138a29101611ef4565b155f8061386c565b3d156138d4573d906138bb82611e71565b916138c96040519384611d6e565b82523d5f602084013e565b606090565b9060405191602083015260018060a01b031660408201525f60608201526003608082015260808152611edd60a082611d6e565b90613930575080511561392157805190602001fd5b630a12f52160e11b5f5260045ffd5b81511580613961575b613941575090565b639996b31560e01b5f9081526001600160a01b0391909116600452602490fd5b50803b1561393956feed6ad11a587c194b3ad43896e949cb9a05975419926eda9b6b571d1847c9a7aa8be0079c531659141344cd1fd0a4f28419497f9722a3daafe3b4186f6b6457e0a26469706673582212207b22db186930f54a7cd026d282181d09419b01f3d48d397868cd5ae83ed8754e64736f6c634300081e0033",
  "devdoc": {
    "details": "Uses separate KapanConditionalOrderHandler for IConditionalOrderGenerator.      This contract is the OWNER in ComposableCoW and handles ERC-1271 signature verification.      It intentionally does NOT implement IERC165 to avoid Safe/fallback handler detection. Key differences from KapanOrderManager: - Orders have pluggable triggers (IOrderTrigger) that determine when and how much to execute - Amounts are calculated dynamically at execution time via trigger.calculateExecution() - Instructions are templates that reference UTXO[0] for dynamic amounts",
    "errors": {
      "AddressEmptyCode(address)": [
        {
          "details": "There's no code at `target` (it is not a contract)."
        }
      ],
      "AddressInsufficientBalance(address)": [
        {
          "details": "The ETH balance of the account is not enough to perform the operation."
        }
      ],
      "FailedInnerCall()": [
        {
          "details": "A call to an address target failed. The target may have reverted."
        }
      ],
      "OwnableInvalidOwner(address)": [
        {
          "details": "The owner is not a valid owner account. (eg. `address(0)`)"
        }
      ],
      "OwnableUnauthorizedAccount(address)": [
        {
          "details": "The caller account is not authorized to perform an operation."
        }
      ],
      "ReentrancyGuardReentrantCall()": [
        {
          "details": "Unauthorized reentrant call."
        }
      ],
      "SafeERC20FailedOperation(address)": [
        {
          "details": "An operation with an ERC20 token failed."
        }
      ]
    },
    "kind": "dev",
    "methods": {
      "approveVaultRelayer(address)": {
        "params": {
          "token": "Token to approve"
        }
      },
      "createOrder((address,address,bytes,bytes,address,address,bytes,bytes32,uint256,address),bytes32)": {
        "params": {
          "params": "The order parameters",
          "salt": "Unique salt for the order"
        },
        "returns": {
          "orderHash": "The hash identifying this order"
        }
      },
      "executePostHook(bytes32)": {
        "params": {
          "orderHash": "The order hash"
        }
      },
      "executePostHookBySalt(address,bytes32)": {
        "params": {
          "salt": "The order salt",
          "user": "The user address"
        }
      },
      "executePreHook(bytes32)": {
        "params": {
          "orderHash": "The order hash"
        }
      },
      "executePreHookBySalt(address,bytes32)": {
        "params": {
          "salt": "The order salt",
          "user": "The user address"
        }
      },
      "isValidSignature(bytes32,bytes)": {
        "params": {
          "_hash": "The hash of the data signed",
          "_signature": "The signature bytes"
        },
        "returns": {
          "_0": "bytes4(0x1626ba7e) if valid, any other value if invalid"
        }
      },
      "owner()": {
        "details": "Returns the address of the current owner."
      },
      "recoverTokens(address,address,uint256)": {
        "params": {
          "amount": "Amount to recover",
          "to": "Recipient address",
          "token": "Token address to recover"
        }
      },
      "renounceOwnership()": {
        "details": "Leaves the contract without owner. It will not be possible to call `onlyOwner` functions. Can only be called by the current owner. NOTE: Renouncing ownership will leave the contract without an owner, thereby disabling any functionality that is only available to the owner."
      },
      "resetStuckOrder(bytes32)": {
        "details": "Only use when an order is permanently stuck due to failed settlement",
        "params": {
          "orderHash": "The order hash to reset"
        }
      },
      "setOrderHandler(address)": {
        "params": {
          "_orderHandler": "New order handler address"
        }
      },
      "transferOwnership(address)": {
        "details": "Transfers ownership of the contract to a new account (`newOwner`). Can only be called by the current owner."
      }
    },
    "title": "KapanConditionalOrderManager",
    "version": 1
  },
  "userdoc": {
    "kind": "user",
    "methods": {
      "CHUNK_WINDOW()": {
        "notice": "Chunk window duration for deterministic validTo"
      },
      "MAX_ORDERS_PER_USER()": {
        "notice": "Maximum orders per user to prevent storage DOS"
      },
      "approveVaultRelayer(address)": {
        "notice": "Approve vault relayer to spend tokens"
      },
      "cachedSellAmount(bytes32)": {
        "notice": "Cached execution amounts (set before pre-hook, used in signature verification) This is needed because pre-hook may change protocol state (e.g., LTV), which would cause getTradeableOrder to return different amounts."
      },
      "cancelOrder(bytes32)": {
        "notice": "Cancel an active conditional order"
      },
      "composableCoW()": {
        "notice": "The ComposableCoW contract for order registration (immutable)"
      },
      "createOrder((address,address,bytes,bytes,address,address,bytes,bytes32,uint256,address),bytes32)": {
        "notice": "Create a new conditional order"
      },
      "executePostHook(bytes32)": {
        "notice": "Execute post-hook (called by HooksTrampoline)"
      },
      "executePostHookBySalt(address,bytes32)": {
        "notice": "Execute post-hook using (user, salt) lookup"
      },
      "executePreHook(bytes32)": {
        "notice": "Execute pre-hook (called by HooksTrampoline)"
      },
      "executePreHookBySalt(address,bytes32)": {
        "notice": "Execute pre-hook using (user, salt) lookup"
      },
      "getExecutionAmounts(bytes32)": {
        "notice": "Get current execution amounts from trigger"
      },
      "hooksTrampoline()": {
        "notice": "The HooksTrampoline contract (caller for hooks) (immutable)"
      },
      "isTriggerMet(bytes32)": {
        "notice": "Check if trigger condition is currently met"
      },
      "isValidSignature(bytes32,bytes)": {
        "notice": "Verifies that the signature is valid for the given hash"
      },
      "orderHandler()": {
        "notice": "The KapanConditionalOrderHandler for generating orders"
      },
      "orderSalts(bytes32)": {
        "notice": "Salt used for each order (for ComposableCoW cancellation)"
      },
      "orders(bytes32)": {
        "notice": "Order contexts by order hash"
      },
      "preHookExecutedForIteration(bytes32)": {
        "notice": "Track pre-hook execution per order"
      },
      "preHookSellBalance(bytes32)": {
        "notice": "Track balances at end of pre-hook for delta calculation"
      },
      "recoverTokens(address,address,uint256)": {
        "notice": "Recover tokens accidentally sent to this contract"
      },
      "resetStuckOrder(bytes32)": {
        "notice": "Reset a stuck order where pre-hook executed but post-hook failed"
      },
      "router()": {
        "notice": "The KapanRouter for executing lending operations (immutable)"
      },
      "setOrderHandler(address)": {
        "notice": "Update the order handler address"
      },
      "settlement()": {
        "notice": "The GPv2Settlement contract (immutable)"
      },
      "userOrders(address,uint256)": {
        "notice": "User's active orders"
      },
      "userSaltToOrderHash(address,bytes32)": {
        "notice": "Lookup order hash by (user, salt)"
      }
    },
    "notice": "Manages trigger-based conditional orders for Kapan (ADL, stop-loss, etc.)",
    "version": 1
  },
  "storageLayout": {
    "storage": [
      {
        "astId": 8,
        "contract": "contracts/v2/cow/KapanConditionalOrderManager.sol:KapanConditionalOrderManager",
        "label": "_owner",
        "offset": 0,
        "slot": "0",
        "type": "t_address"
      },
      {
        "astId": 845,
        "contract": "contracts/v2/cow/KapanConditionalOrderManager.sol:KapanConditionalOrderManager",
        "label": "_status",
        "offset": 0,
        "slot": "1",
        "type": "t_uint256"
      },
      {
        "astId": 1063,
        "contract": "contracts/v2/cow/KapanConditionalOrderManager.sol:KapanConditionalOrderManager",
        "label": "orderHandler",
        "offset": 0,
        "slot": "2",
        "type": "t_address"
      },
      {
        "astId": 1069,
        "contract": "contracts/v2/cow/KapanConditionalOrderManager.sol:KapanConditionalOrderManager",
        "label": "orders",
        "offset": 0,
        "slot": "3",
        "type": "t_mapping(t_bytes32,t_struct(OrderContext)1041_storage)"
      },
      {
        "astId": 1074,
        "contract": "contracts/v2/cow/KapanConditionalOrderManager.sol:KapanConditionalOrderManager",
        "label": "orderSalts",
        "offset": 0,
        "slot": "4",
        "type": "t_mapping(t_bytes32,t_bytes32)"
      },
      {
        "astId": 1080,
        "contract": "contracts/v2/cow/KapanConditionalOrderManager.sol:KapanConditionalOrderManager",
        "label": "userOrders",
        "offset": 0,
        "slot": "5",
        "type": "t_mapping(t_address,t_array(t_bytes32)dyn_storage)"
      },
      {
        "astId": 1087,
        "contract": "contracts/v2/cow/KapanConditionalOrderManager.sol:KapanConditionalOrderManager",
        "label": "userSaltToOrderHash",
        "offset": 0,
        "slot": "6",
        "type": "t_mapping(t_address,t_mapping(t_bytes32,t_bytes32))"
      },
      {
        "astId": 1092,
        "contract": "contracts/v2/cow/KapanConditionalOrderManager.sol:KapanConditionalOrderManager",
        "label": "preHookExecutedForIteration",
        "offset": 0,
        "slot": "7",
        "type": "t_mapping(t_bytes32,t_uint256)"
      },
      {
        "astId": 1097,
        "contract": "contracts/v2/cow/KapanConditionalOrderManager.sol:KapanConditionalOrderManager",
        "label": "preHookSellBalance",
        "offset": 0,
        "slot": "8",
        "type": "t_mapping(t_bytes32,t_uint256)"
      },
      {
        "astId": 1101,
        "contract": "contracts/v2/cow/KapanConditionalOrderManager.sol:KapanConditionalOrderManager",
        "label": "preHookBuyBalance",
        "offset": 0,
        "slot": "9",
        "type": "t_mapping(t_bytes32,t_uint256)"
      },
      {
        "astId": 1106,
        "contract": "contracts/v2/cow/KapanConditionalOrderManager.sol:KapanConditionalOrderManager",
        "label": "cachedSellAmount",
        "offset": 0,
        "slot": "10",
        "type": "t_mapping(t_bytes32,t_uint256)"
      },
      {
        "astId": 1110,
        "contract": "contracts/v2/cow/KapanConditionalOrderManager.sol:KapanConditionalOrderManager",
        "label": "cachedBuyAmount",
        "offset": 0,
        "slot": "11",
        "type": "t_mapping(t_bytes32,t_uint256)"
      }
    ],
    "types": {
      "t_address": {
        "encoding": "inplace",
        "label": "address",
        "numberOfBytes": "20"
      },
      "t_array(t_bytes32)dyn_storage": {
        "base": "t_bytes32",
        "encoding": "dynamic_array",
        "label": "bytes32[]",
        "numberOfBytes": "32"
      },
      "t_bytes32": {
        "encoding": "inplace",
        "label": "bytes32",
        "numberOfBytes": "32"
      },
      "t_bytes_storage": {
        "encoding": "bytes",
        "label": "bytes",
        "numberOfBytes": "32"
      },
      "t_enum(OrderStatus)998": {
        "encoding": "inplace",
        "label": "enum KapanConditionalOrderManager.OrderStatus",
        "numberOfBytes": "1"
      },
      "t_mapping(t_address,t_array(t_bytes32)dyn_storage)": {
        "encoding": "mapping",
        "key": "t_address",
        "label": "mapping(address => bytes32[])",
        "numberOfBytes": "32",
        "value": "t_array(t_bytes32)dyn_storage"
      },
      "t_mapping(t_address,t_mapping(t_bytes32,t_bytes32))": {
        "encoding": "mapping",
        "key": "t_address",
        "label": "mapping(address => mapping(bytes32 => bytes32))",
        "numberOfBytes": "32",
        "value": "t_mapping(t_bytes32,t_bytes32)"
      },
      "t_mapping(t_bytes32,t_bytes32)": {
        "encoding": "mapping",
        "key": "t_bytes32",
        "label": "mapping(bytes32 => bytes32)",
        "numberOfBytes": "32",
        "value": "t_bytes32"
      },
      "t_mapping(t_bytes32,t_struct(OrderContext)1041_storage)": {
        "encoding": "mapping",
        "key": "t_bytes32",
        "label": "mapping(bytes32 => struct KapanConditionalOrderManager.OrderContext)",
        "numberOfBytes": "32",
        "value": "t_struct(OrderContext)1041_storage"
      },
      "t_mapping(t_bytes32,t_uint256)": {
        "encoding": "mapping",
        "key": "t_bytes32",
        "label": "mapping(bytes32 => uint256)",
        "numberOfBytes": "32",
        "value": "t_uint256"
      },
      "t_struct(KapanOrderParams)1029_storage": {
        "encoding": "inplace",
        "label": "struct KapanConditionalOrderManager.KapanOrderParams",
        "members": [
          {
            "astId": 1010,
            "contract": "contracts/v2/cow/KapanConditionalOrderManager.sol:KapanConditionalOrderManager",
            "label": "user",
            "offset": 0,
            "slot": "0",
            "type": "t_address"
          },
          {
            "astId": 1012,
            "contract": "contracts/v2/cow/KapanConditionalOrderManager.sol:KapanConditionalOrderManager",
            "label": "trigger",
            "offset": 0,
            "slot": "1",
            "type": "t_address"
          },
          {
            "astId": 1014,
            "contract": "contracts/v2/cow/KapanConditionalOrderManager.sol:KapanConditionalOrderManager",
            "label": "triggerStaticData",
            "offset": 0,
            "slot": "2",
            "type": "t_bytes_storage"
          },
          {
            "astId": 1016,
            "contract": "contracts/v2/cow/KapanConditionalOrderManager.sol:KapanConditionalOrderManager",
            "label": "preInstructions",
            "offset": 0,
            "slot": "3",
            "type": "t_bytes_storage"
          },
          {
            "astId": 1018,
            "contract": "contracts/v2/cow/KapanConditionalOrderManager.sol:KapanConditionalOrderManager",
            "label": "sellToken",
            "offset": 0,
            "slot": "4",
            "type": "t_address"
          },
          {
            "astId": 1020,
            "contract": "contracts/v2/cow/KapanConditionalOrderManager.sol:KapanConditionalOrderManager",
            "label": "buyToken",
            "offset": 0,
            "slot": "5",
            "type": "t_address"
          },
          {
            "astId": 1022,
            "contract": "contracts/v2/cow/KapanConditionalOrderManager.sol:KapanConditionalOrderManager",
            "label": "postInstructions",
            "offset": 0,
            "slot": "6",
            "type": "t_bytes_storage"
          },
          {
            "astId": 1024,
            "contract": "contracts/v2/cow/KapanConditionalOrderManager.sol:KapanConditionalOrderManager",
            "label": "appDataHash",
            "offset": 0,
            "slot": "7",
            "type": "t_bytes32"
          },
          {
            "astId": 1026,
            "contract": "contracts/v2/cow/KapanConditionalOrderManager.sol:KapanConditionalOrderManager",
            "label": "maxIterations",
            "offset": 0,
            "slot": "8",
            "type": "t_uint256"
          },
          {
            "astId": 1028,
            "contract": "contracts/v2/cow/KapanConditionalOrderManager.sol:KapanConditionalOrderManager",
            "label": "sellTokenRefundAddress",
            "offset": 0,
            "slot": "9",
            "type": "t_address"
          }
        ],
        "numberOfBytes": "320"
      },
      "t_struct(OrderContext)1041_storage": {
        "encoding": "inplace",
        "label": "struct KapanConditionalOrderManager.OrderContext",
        "members": [
          {
            "astId": 1033,
            "contract": "contracts/v2/cow/KapanConditionalOrderManager.sol:KapanConditionalOrderManager",
            "label": "params",
            "offset": 0,
            "slot": "0",
            "type": "t_struct(KapanOrderParams)1029_storage"
          },
          {
            "astId": 1036,
            "contract": "contracts/v2/cow/KapanConditionalOrderManager.sol:KapanConditionalOrderManager",
            "label": "status",
            "offset": 0,
            "slot": "10",
            "type": "t_enum(OrderStatus)998"
          },
          {
            "astId": 1038,
            "contract": "contracts/v2/cow/KapanConditionalOrderManager.sol:KapanConditionalOrderManager",
            "label": "iterationCount",
            "offset": 0,
            "slot": "11",
            "type": "t_uint256"
          },
          {
            "astId": 1040,
            "contract": "contracts/v2/cow/KapanConditionalOrderManager.sol:KapanConditionalOrderManager",
            "label": "createdAt",
            "offset": 0,
            "slot": "12",
            "type": "t_uint256"
          }
        ],
        "numberOfBytes": "416"
      },
      "t_uint256": {
        "encoding": "inplace",
        "label": "uint256",
        "numberOfBytes": "32"
      }
    }
  }
}