{
  "address": "0x7b25A93c8a090C589030f3c3cDEec52Ffd5Ce9d1",
  "abi": [
    {
      "inputs": [
        {
          "internalType": "address",
          "name": "_owner",
          "type": "address"
        }
      ],
      "stateMutability": "nonpayable",
      "type": "constructor"
    },
    {
      "inputs": [
        {
          "internalType": "string",
          "name": "protocolName",
          "type": "string"
        }
      ],
      "name": "GatewayNotSet",
      "type": "error"
    },
    {
      "inputs": [
        {
          "internalType": "string",
          "name": "protocolName",
          "type": "string"
        }
      ],
      "name": "UnsupportedProtocol",
      "type": "error"
    },
    {
      "inputs": [
        {
          "internalType": "bytes4",
          "name": "protocolId",
          "type": "bytes4"
        }
      ],
      "name": "UnsupportedProtocolId",
      "type": "error"
    },
    {
      "inputs": [],
      "name": "ZeroAddress",
      "type": "error"
    },
    {
      "anonymous": false,
      "inputs": [
        {
          "indexed": true,
          "internalType": "string",
          "name": "protocolName",
          "type": "string"
        },
        {
          "indexed": false,
          "internalType": "address",
          "name": "gateway",
          "type": "address"
        }
      ],
      "name": "GatewayUpdated",
      "type": "event"
    },
    {
      "inputs": [],
      "name": "AAVE_V3",
      "outputs": [
        {
          "internalType": "bytes4",
          "name": "",
          "type": "bytes4"
        }
      ],
      "stateMutability": "view",
      "type": "function"
    },
    {
      "inputs": [],
      "name": "COMPOUND_V3",
      "outputs": [
        {
          "internalType": "bytes4",
          "name": "",
          "type": "bytes4"
        }
      ],
      "stateMutability": "view",
      "type": "function"
    },
    {
      "inputs": [],
      "name": "EULER_V2",
      "outputs": [
        {
          "internalType": "bytes4",
          "name": "",
          "type": "bytes4"
        }
      ],
      "stateMutability": "view",
      "type": "function"
    },
    {
      "inputs": [],
      "name": "MORPHO_BLUE",
      "outputs": [
        {
          "internalType": "bytes4",
          "name": "",
          "type": "bytes4"
        }
      ],
      "stateMutability": "view",
      "type": "function"
    },
    {
      "inputs": [],
      "name": "VENUS",
      "outputs": [
        {
          "internalType": "bytes4",
          "name": "",
          "type": "bytes4"
        }
      ],
      "stateMutability": "view",
      "type": "function"
    },
    {
      "inputs": [
        {
          "internalType": "bytes4",
          "name": "protocolId",
          "type": "bytes4"
        },
        {
          "internalType": "uint256",
          "name": "sellAmount",
          "type": "uint256"
        },
        {
          "internalType": "uint256",
          "name": "maxSlippageBps",
          "type": "uint256"
        },
        {
          "internalType": "address",
          "name": "collateralToken",
          "type": "address"
        },
        {
          "internalType": "address",
          "name": "debtToken",
          "type": "address"
        },
        {
          "internalType": "uint8",
          "name": "collateralDecimals",
          "type": "uint8"
        },
        {
          "internalType": "uint8",
          "name": "debtDecimals",
          "type": "uint8"
        },
        {
          "internalType": "bytes",
          "name": "context",
          "type": "bytes"
        }
      ],
      "name": "calculateMinBuy",
      "outputs": [
        {
          "internalType": "uint256",
          "name": "minBuyAmount",
          "type": "uint256"
        }
      ],
      "stateMutability": "view",
      "type": "function"
    },
    {
      "inputs": [
        {
          "internalType": "uint256",
          "name": "sellAmount",
          "type": "uint256"
        },
        {
          "internalType": "uint256",
          "name": "maxSlippageBps",
          "type": "uint256"
        },
        {
          "internalType": "uint256",
          "name": "sellPriceUsd",
          "type": "uint256"
        },
        {
          "internalType": "uint256",
          "name": "buyPriceUsd",
          "type": "uint256"
        },
        {
          "internalType": "uint8",
          "name": "sellDecimals",
          "type": "uint8"
        },
        {
          "internalType": "uint8",
          "name": "buyDecimals",
          "type": "uint8"
        }
      ],
      "name": "calculateMinBuyAmount",
      "outputs": [
        {
          "internalType": "uint256",
          "name": "minBuyAmount",
          "type": "uint256"
        }
      ],
      "stateMutability": "view",
      "type": "function"
    },
    {
      "inputs": [
        {
          "internalType": "uint256",
          "name": "sellAmount",
          "type": "uint256"
        },
        {
          "internalType": "uint256",
          "name": "maxSlippageBps",
          "type": "uint256"
        },
        {
          "internalType": "uint256",
          "name": "exchangeRate18",
          "type": "uint256"
        },
        {
          "internalType": "uint8",
          "name": "sellDecimals",
          "type": "uint8"
        },
        {
          "internalType": "uint8",
          "name": "buyDecimals",
          "type": "uint8"
        }
      ],
      "name": "calculateMinBuyFromRate",
      "outputs": [
        {
          "internalType": "uint256",
          "name": "minBuyAmount",
          "type": "uint256"
        }
      ],
      "stateMutability": "pure",
      "type": "function"
    },
    {
      "inputs": [
        {
          "internalType": "uint256",
          "name": "sellAmount",
          "type": "uint256"
        },
        {
          "internalType": "uint256",
          "name": "maxSlippageBps",
          "type": "uint256"
        },
        {
          "internalType": "uint256",
          "name": "morphoOraclePrice",
          "type": "uint256"
        }
      ],
      "name": "calculateMorphoMinBuyAmount",
      "outputs": [
        {
          "internalType": "uint256",
          "name": "minBuyAmount",
          "type": "uint256"
        }
      ],
      "stateMutability": "pure",
      "type": "function"
    },
    {
      "inputs": [
        {
          "internalType": "string",
          "name": "",
          "type": "string"
        }
      ],
      "name": "gateways",
      "outputs": [
        {
          "internalType": "address",
          "name": "",
          "type": "address"
        }
      ],
      "stateMutability": "view",
      "type": "function"
    },
    {
      "inputs": [
        {
          "internalType": "address",
          "name": "user",
          "type": "address"
        }
      ],
      "name": "getAaveLiquidationLtvBps",
      "outputs": [
        {
          "internalType": "uint256",
          "name": "",
          "type": "uint256"
        }
      ],
      "stateMutability": "view",
      "type": "function"
    },
    {
      "inputs": [
        {
          "internalType": "address",
          "name": "user",
          "type": "address"
        }
      ],
      "name": "getAaveLtvBps",
      "outputs": [
        {
          "internalType": "uint256",
          "name": "ltvBps",
          "type": "uint256"
        }
      ],
      "stateMutability": "view",
      "type": "function"
    },
    {
      "inputs": [
        {
          "internalType": "address",
          "name": "token",
          "type": "address"
        }
      ],
      "name": "getAavePrice",
      "outputs": [
        {
          "internalType": "uint256",
          "name": "",
          "type": "uint256"
        }
      ],
      "stateMutability": "view",
      "type": "function"
    },
    {
      "inputs": [
        {
          "internalType": "address[]",
          "name": "tokens",
          "type": "address[]"
        }
      ],
      "name": "getAavePrices",
      "outputs": [
        {
          "internalType": "uint256[]",
          "name": "",
          "type": "uint256[]"
        }
      ],
      "stateMutability": "view",
      "type": "function"
    },
    {
      "inputs": [
        {
          "internalType": "address",
          "name": "user",
          "type": "address"
        }
      ],
      "name": "getAaveUserAccountData",
      "outputs": [
        {
          "internalType": "uint256",
          "name": "totalCollateralBase",
          "type": "uint256"
        },
        {
          "internalType": "uint256",
          "name": "totalDebtBase",
          "type": "uint256"
        },
        {
          "internalType": "uint256",
          "name": "availableBorrowsBase",
          "type": "uint256"
        },
        {
          "internalType": "uint256",
          "name": "currentLiquidationThreshold",
          "type": "uint256"
        },
        {
          "internalType": "uint256",
          "name": "ltv",
          "type": "uint256"
        },
        {
          "internalType": "uint256",
          "name": "healthFactor",
          "type": "uint256"
        }
      ],
      "stateMutability": "view",
      "type": "function"
    },
    {
      "inputs": [
        {
          "internalType": "bytes4",
          "name": "protocolId",
          "type": "bytes4"
        },
        {
          "internalType": "address",
          "name": "collateralToken",
          "type": "address"
        },
        {
          "internalType": "bytes",
          "name": "context",
          "type": "bytes"
        }
      ],
      "name": "getCollateralPrice",
      "outputs": [
        {
          "internalType": "uint256",
          "name": "price",
          "type": "uint256"
        }
      ],
      "stateMutability": "view",
      "type": "function"
    },
    {
      "inputs": [
        {
          "internalType": "address",
          "name": "baseToken",
          "type": "address"
        },
        {
          "internalType": "address",
          "name": "user",
          "type": "address"
        }
      ],
      "name": "getCompoundLiquidationLtvBps",
      "outputs": [
        {
          "internalType": "uint256",
          "name": "",
          "type": "uint256"
        }
      ],
      "stateMutability": "view",
      "type": "function"
    },
    {
      "inputs": [
        {
          "internalType": "address",
          "name": "baseToken",
          "type": "address"
        },
        {
          "internalType": "address",
          "name": "user",
          "type": "address"
        }
      ],
      "name": "getCompoundLtvBps",
      "outputs": [
        {
          "internalType": "uint256",
          "name": "",
          "type": "uint256"
        }
      ],
      "stateMutability": "view",
      "type": "function"
    },
    {
      "inputs": [
        {
          "internalType": "address",
          "name": "baseToken",
          "type": "address"
        },
        {
          "internalType": "address",
          "name": "user",
          "type": "address"
        }
      ],
      "name": "getCompoundPositionValue",
      "outputs": [
        {
          "internalType": "uint256",
          "name": "collateralValueUsd",
          "type": "uint256"
        },
        {
          "internalType": "uint256",
          "name": "debtValueUsd",
          "type": "uint256"
        }
      ],
      "stateMutability": "view",
      "type": "function"
    },
    {
      "inputs": [
        {
          "internalType": "address",
          "name": "baseToken",
          "type": "address"
        },
        {
          "internalType": "address",
          "name": "asset",
          "type": "address"
        }
      ],
      "name": "getCompoundPrice",
      "outputs": [
        {
          "internalType": "uint256",
          "name": "",
          "type": "uint256"
        }
      ],
      "stateMutability": "view",
      "type": "function"
    },
    {
      "inputs": [
        {
          "internalType": "bytes4",
          "name": "protocolId",
          "type": "bytes4"
        },
        {
          "internalType": "address",
          "name": "user",
          "type": "address"
        },
        {
          "internalType": "bytes",
          "name": "context",
          "type": "bytes"
        }
      ],
      "name": "getCurrentLtv",
      "outputs": [
        {
          "internalType": "uint256",
          "name": "ltvBps",
          "type": "uint256"
        }
      ],
      "stateMutability": "view",
      "type": "function"
    },
    {
      "inputs": [
        {
          "internalType": "bytes4",
          "name": "protocolId",
          "type": "bytes4"
        },
        {
          "internalType": "address",
          "name": "debtToken",
          "type": "address"
        },
        {
          "internalType": "bytes",
          "name": "context",
          "type": "bytes"
        }
      ],
      "name": "getDebtPrice",
      "outputs": [
        {
          "internalType": "uint256",
          "name": "price",
          "type": "uint256"
        }
      ],
      "stateMutability": "view",
      "type": "function"
    },
    {
      "inputs": [
        {
          "internalType": "address",
          "name": "borrowVault",
          "type": "address"
        },
        {
          "internalType": "address",
          "name": "collateralVault",
          "type": "address"
        }
      ],
      "name": "getEulerExchangeRate",
      "outputs": [
        {
          "internalType": "uint256",
          "name": "",
          "type": "uint256"
        }
      ],
      "stateMutability": "view",
      "type": "function"
    },
    {
      "inputs": [
        {
          "internalType": "address",
          "name": "vault",
          "type": "address"
        }
      ],
      "name": "getEulerLiquidationLtvBps",
      "outputs": [
        {
          "internalType": "uint256",
          "name": "",
          "type": "uint256"
        }
      ],
      "stateMutability": "view",
      "type": "function"
    },
    {
      "inputs": [
        {
          "internalType": "address",
          "name": "vault",
          "type": "address"
        },
        {
          "internalType": "address",
          "name": "user",
          "type": "address"
        },
        {
          "internalType": "uint8",
          "name": "subAccountIndex",
          "type": "uint8"
        }
      ],
      "name": "getEulerLtvBps",
      "outputs": [
        {
          "internalType": "uint256",
          "name": "",
          "type": "uint256"
        }
      ],
      "stateMutability": "view",
      "type": "function"
    },
    {
      "inputs": [
        {
          "internalType": "address",
          "name": "vault",
          "type": "address"
        },
        {
          "internalType": "address",
          "name": "token",
          "type": "address"
        }
      ],
      "name": "getEulerPrice",
      "outputs": [
        {
          "internalType": "uint256",
          "name": "",
          "type": "uint256"
        }
      ],
      "stateMutability": "view",
      "type": "function"
    },
    {
      "inputs": [
        {
          "components": [
            {
              "internalType": "address",
              "name": "loanToken",
              "type": "address"
            },
            {
              "internalType": "address",
              "name": "collateralToken",
              "type": "address"
            },
            {
              "internalType": "address",
              "name": "oracle",
              "type": "address"
            },
            {
              "internalType": "address",
              "name": "irm",
              "type": "address"
            },
            {
              "internalType": "uint256",
              "name": "lltv",
              "type": "uint256"
            }
          ],
          "internalType": "struct MarketParams",
          "name": "params",
          "type": "tuple"
        }
      ],
      "name": "getMorphoLiquidationLtvBps",
      "outputs": [
        {
          "internalType": "uint256",
          "name": "",
          "type": "uint256"
        }
      ],
      "stateMutability": "view",
      "type": "function"
    },
    {
      "inputs": [
        {
          "components": [
            {
              "internalType": "address",
              "name": "loanToken",
              "type": "address"
            },
            {
              "internalType": "address",
              "name": "collateralToken",
              "type": "address"
            },
            {
              "internalType": "address",
              "name": "oracle",
              "type": "address"
            },
            {
              "internalType": "address",
              "name": "irm",
              "type": "address"
            },
            {
              "internalType": "uint256",
              "name": "lltv",
              "type": "uint256"
            }
          ],
          "internalType": "struct MarketParams",
          "name": "params",
          "type": "tuple"
        },
        {
          "internalType": "address",
          "name": "user",
          "type": "address"
        }
      ],
      "name": "getMorphoLtvBps",
      "outputs": [
        {
          "internalType": "uint256",
          "name": "",
          "type": "uint256"
        }
      ],
      "stateMutability": "view",
      "type": "function"
    },
    {
      "inputs": [
        {
          "components": [
            {
              "internalType": "address",
              "name": "loanToken",
              "type": "address"
            },
            {
              "internalType": "address",
              "name": "collateralToken",
              "type": "address"
            },
            {
              "internalType": "address",
              "name": "oracle",
              "type": "address"
            },
            {
              "internalType": "address",
              "name": "irm",
              "type": "address"
            },
            {
              "internalType": "uint256",
              "name": "lltv",
              "type": "uint256"
            }
          ],
          "internalType": "struct MarketParams",
          "name": "params",
          "type": "tuple"
        }
      ],
      "name": "getMorphoOraclePrice",
      "outputs": [
        {
          "internalType": "uint256",
          "name": "",
          "type": "uint256"
        }
      ],
      "stateMutability": "view",
      "type": "function"
    },
    {
      "inputs": [
        {
          "components": [
            {
              "internalType": "address",
              "name": "loanToken",
              "type": "address"
            },
            {
              "internalType": "address",
              "name": "collateralToken",
              "type": "address"
            },
            {
              "internalType": "address",
              "name": "oracle",
              "type": "address"
            },
            {
              "internalType": "address",
              "name": "irm",
              "type": "address"
            },
            {
              "internalType": "uint256",
              "name": "lltv",
              "type": "uint256"
            }
          ],
          "internalType": "struct MarketParams",
          "name": "params",
          "type": "tuple"
        },
        {
          "internalType": "address",
          "name": "user",
          "type": "address"
        }
      ],
      "name": "getMorphoPositionValue",
      "outputs": [
        {
          "internalType": "uint256",
          "name": "collateralValueUsd",
          "type": "uint256"
        },
        {
          "internalType": "uint256",
          "name": "debtValueUsd",
          "type": "uint256"
        }
      ],
      "stateMutability": "view",
      "type": "function"
    },
    {
      "inputs": [
        {
          "internalType": "bytes4",
          "name": "protocolId",
          "type": "bytes4"
        },
        {
          "internalType": "address",
          "name": "user",
          "type": "address"
        },
        {
          "internalType": "bytes",
          "name": "context",
          "type": "bytes"
        }
      ],
      "name": "getPositionValue",
      "outputs": [
        {
          "internalType": "uint256",
          "name": "collateralValueUsd",
          "type": "uint256"
        },
        {
          "internalType": "uint256",
          "name": "debtValueUsd",
          "type": "uint256"
        }
      ],
      "stateMutability": "view",
      "type": "function"
    },
    {
      "inputs": [
        {
          "internalType": "address",
          "name": "user",
          "type": "address"
        }
      ],
      "name": "getVenusLiquidationLtvBps",
      "outputs": [
        {
          "internalType": "uint256",
          "name": "",
          "type": "uint256"
        }
      ],
      "stateMutability": "view",
      "type": "function"
    },
    {
      "inputs": [
        {
          "internalType": "address",
          "name": "user",
          "type": "address"
        }
      ],
      "name": "getVenusLtvBps",
      "outputs": [
        {
          "internalType": "uint256",
          "name": "",
          "type": "uint256"
        }
      ],
      "stateMutability": "view",
      "type": "function"
    },
    {
      "inputs": [
        {
          "internalType": "address",
          "name": "underlyingToken",
          "type": "address"
        }
      ],
      "name": "getVenusPrice",
      "outputs": [
        {
          "internalType": "uint256",
          "name": "",
          "type": "uint256"
        }
      ],
      "stateMutability": "view",
      "type": "function"
    },
    {
      "inputs": [
        {
          "internalType": "address",
          "name": "user",
          "type": "address"
        }
      ],
      "name": "getVenusUserAccountData",
      "outputs": [
        {
          "internalType": "uint256",
          "name": "totalCollateralUsd",
          "type": "uint256"
        },
        {
          "internalType": "uint256",
          "name": "totalDebtUsd",
          "type": "uint256"
        }
      ],
      "stateMutability": "view",
      "type": "function"
    },
    {
      "inputs": [
        {
          "internalType": "address",
          "name": "user",
          "type": "address"
        },
        {
          "internalType": "uint256",
          "name": "bufferBps",
          "type": "uint256"
        }
      ],
      "name": "isAaveAtRisk",
      "outputs": [
        {
          "internalType": "bool",
          "name": "atRisk",
          "type": "bool"
        }
      ],
      "stateMutability": "view",
      "type": "function"
    },
    {
      "inputs": [
        {
          "internalType": "address",
          "name": "baseToken",
          "type": "address"
        },
        {
          "internalType": "address",
          "name": "user",
          "type": "address"
        },
        {
          "internalType": "uint256",
          "name": "bufferBps",
          "type": "uint256"
        }
      ],
      "name": "isCompoundAtRisk",
      "outputs": [
        {
          "internalType": "bool",
          "name": "",
          "type": "bool"
        }
      ],
      "stateMutability": "view",
      "type": "function"
    },
    {
      "inputs": [
        {
          "components": [
            {
              "internalType": "address",
              "name": "loanToken",
              "type": "address"
            },
            {
              "internalType": "address",
              "name": "collateralToken",
              "type": "address"
            },
            {
              "internalType": "address",
              "name": "oracle",
              "type": "address"
            },
            {
              "internalType": "address",
              "name": "irm",
              "type": "address"
            },
            {
              "internalType": "uint256",
              "name": "lltv",
              "type": "uint256"
            }
          ],
          "internalType": "struct MarketParams",
          "name": "params",
          "type": "tuple"
        },
        {
          "internalType": "address",
          "name": "user",
          "type": "address"
        },
        {
          "internalType": "uint256",
          "name": "bufferBps",
          "type": "uint256"
        }
      ],
      "name": "isMorphoAtRisk",
      "outputs": [
        {
          "internalType": "bool",
          "name": "",
          "type": "bool"
        }
      ],
      "stateMutability": "view",
      "type": "function"
    },
    {
      "inputs": [],
      "name": "owner",
      "outputs": [
        {
          "internalType": "address",
          "name": "",
          "type": "address"
        }
      ],
      "stateMutability": "view",
      "type": "function"
    },
    {
      "inputs": [
        {
          "internalType": "string",
          "name": "protocolName",
          "type": "string"
        },
        {
          "internalType": "address",
          "name": "gateway",
          "type": "address"
        }
      ],
      "name": "setGateway",
      "outputs": [],
      "stateMutability": "nonpayable",
      "type": "function"
    },
    {
      "inputs": [
        {
          "internalType": "string[]",
          "name": "protocolNames",
          "type": "string[]"
        },
        {
          "internalType": "address[]",
          "name": "gatewayAddresses",
          "type": "address[]"
        }
      ],
      "name": "setGateways",
      "outputs": [],
      "stateMutability": "nonpayable",
      "type": "function"
    },
    {
      "inputs": [
        {
          "internalType": "address",
          "name": "newOwner",
          "type": "address"
        }
      ],
      "name": "transferOwnership",
      "outputs": [],
      "stateMutability": "nonpayable",
      "type": "function"
    },
    {
      "inputs": [
        {
          "internalType": "uint256",
          "name": "sellPriceUsd",
          "type": "uint256"
        },
        {
          "internalType": "uint256",
          "name": "buyPriceUsd",
          "type": "uint256"
        }
      ],
      "name": "usdPricesToExchangeRate",
      "outputs": [
        {
          "internalType": "uint256",
          "name": "exchangeRate18",
          "type": "uint256"
        }
      ],
      "stateMutability": "pure",
      "type": "function"
    }
  ],
  "transactionHash": "0xc95c447e8be66b5f7562f327b85d16262c6a3c31c146514c451ddf27c6679a53",
  "args": [
    "0x0BE61223F99E57b8b8B7033a77B54Adc7f7cF027"
  ],
  "numDeployments": 4,
  "solcInputHash": "1defaa97da21e690870cee4ea6009d84",
  "bytecode": "0x608034608357601f612af238819003918201601f19168301916001600160401b03831184841017608757808492602094604052833981010312608357516001600160a01b0381169081900360835780156074575f80546001600160a01b031916919091179055604051612a56908161009c8239f35b63d92e233d60e01b5f5260045ffd5b5f80fd5b634e487b7160e01b5f52604160045260245ffdfe60806040526004361015610011575f80fd5b5f3560e01c80630794e503146114db5780630bb5e4a8146114775780630ee907831461145b5780630ff219cc146113d7578063168be4db1461137557806318b0933d146112ea5780631a78ccc1146112c857806324a35ff21461124d5780633131489f1461122b578063321394961461120957806332801a0d1461112857806337594ea1146110a25780633872bbd11461107657806339199bfb1461100357806359407d6f14610fdf5780635b29bdfe14610f6957806362d068c414610ef557806364971cfa14610e8f5780636812cc5d14610dfd5780636f61dc1114610d53578063755b0ea914610cb957806376e10cba14610c7e57806377ba651014610c0c5780637ad4005114610ba65780638da5cb5b14610b7f5780638ea6b12714610b5857806390359bcc14610b365780639152cfd114610afe5780639680b44614610a0657806399fec7a0146109e45780639aa743e4146109bc5780639de73085146109a0578063a389d4c2146107c1578063a6a1f1621461073a578063a6b6f7a014610711578063b626e7661461069e578063c2c3215d14610536578063c54a8af714610486578063d016e72714610457578063d66eb92d14610348578063d76b12601461030f578063db236a1f146102545763f2fde38b146101f2575f80fd5b346102505760203660031901126102505761020b6114f7565b5f5490610222336001600160a01b038416146126ae565b6001600160a01b0316908115610241576001600160a01b031916175f55005b63d92e233d60e01b5f5260045ffd5b5f80fd5b34610250576020366003190112610250576004356001600160401b03811161025057366023820112156102505760048101356001600160401b0381116102fb57604051906102ac601f8201601f191660200183611621565b80825260208201903660248286010111610250576020815f92602483970185378401015260405191518091835e600190820190815281900382019020546040516001600160a01b039091168152f35b634e487b7160e01b5f52604160045260245ffd5b3461025057366003190160e081126102505760a01361025057602061033e610335611523565b60c43590612816565b6040519015158152f35b34610250576060366003190112610250576103616114f7565b61036961150d565b9060443560ff81168103610250576040516732bab632b916bb1960c11b81526001600882015260289020546001600160a01b03168015610421576103c793602093604051958694859384936348ca991560e11b8552600485016124a9565b03915afa8015610416575f906103e3575b602090604051908152f35b506020813d60201161040e575b816103fd60209383611621565b8101031261025057602090516103d8565b3d91506103f0565b6040513d5f823e3d90fd5b604051630c54731360e01b815260206004820152600860248201526732bab632b916bb1960c11b604482015280606481015b0390fd5b3461025057606036600319011261025057602061033e6104756114f7565b61047d61150d565b6044359161275f565b34610250576040366003190112610250576004356001600160401b038111610250576104b690369060040161154d565b6104be61150d565b6104d260018060a01b035f541633146126ae565b6001600160a01b0316918215610241575f516020612a015f395f51905f52916020916040518282823760018382019081528190038401902080546001600160a01b031916861790556040519182918190833781015f815203902092604051908152a2005b34610250576040366003190112610250576004356001600160401b038111610250576105669036906004016115f1565b6024356001600160401b038111610250576105859036906004016115f1565b9261059a60018060a01b035f541633146126ae565b838303610667575f5b8381106105ac57005b6001600160a01b036105c76105c28388876126e6565b61270a565b161561024157806105de6105c260019388876126e6565b60206105eb83888761271e565b919082604051938492833781018681520301902090838060a01b0316838060a01b031982541617905560205f516020612a015f395f51905f5261062f83888761271e565b6106406105c2868c8b9795976126e6565b9381604051928392833781015f81520390209260405190868060a01b03168152a2016105a3565b60405162461bcd60e51b815260206004820152600f60248201526e098cadccee8d040dad2e6dac2e8c6d608b1b6044820152606490fd5b34610250576040366003190112610250576106b76114f7565b6106bf61150d565b6040516732bab632b916bb1960c11b81526001600882015260289020546001600160a01b03169190821561042157604051635ab55e5b60e11b8152926020928492839182916103c79160048401611687565b34610250576040366003190112610250576020610732602435600435612677565b604051908152f35b34610250576020366003190112610250576107536114f7565b6040516732bab632b916bb1960c11b81526001600882015260289020546001600160a01b03169081156104215760405163288f7ccf60e21b81526001600160a01b03909116600482015290602090829060249082905afa8015610416575f906103e357602090604051908152f35b34610250576020366003190112610250576004356001600160401b038111610250576107f19036906004016115f1565b9060405166616176652d763360c81b815260016007820152602760018060a01b03912054169081156109705760405163053c81b560e01b8152602060048201526024810184905292839160448301915f5b818110610942575050509181805f9403915afa908115610416575f916108a8575b506040518091602082016020835281518091526020604084019201905f5b81811061088f575050500390f35b8251845285945060209384019390920191600101610881565b90503d805f833e6108b98183611621565b810190602081830312610250578051906001600160401b03821161025057019080601f83011215610250578151916001600160401b0383116102fb578260051b906040519361090b6020840186611621565b845260208085019282010192831161025057602001905b8282106109325750505081610863565b8151815260209182019101610922565b9193509160019060209081906001600160a01b0361095f88611539565b168152019401910191859392610842565b604051630c54731360e01b8152602060048201526007602482015266616176652d763360c81b6044820152606490fd5b346102505760206107326109b33661157a565b929190916124cd565b346102505760406109d86109cf3661157a565b929190916122a2565b82519182526020820152f35b34610250575f36600319011261025057604051633028125760e01b8152602090f35b3461025057366003190160c081126102505760a01361025057610a27611523565b6040516a6d6f7270686f2d626c756560a81b81526001600b820152602b9020546001600160a01b03168015610aca57610a77916040918251808095819463025f7ec160e01b8352600483016120e8565b03915afa908115610416576040915f915f91610a9b575b5082519182526020820152f35b9050610abd9150823d8411610ac3575b610ab58183611621565b810190611bfc565b83610a8e565b503d610aab565b604051630c54731360e01b815260206004820152600b60248201526a6d6f7270686f2d626c756560a81b6044820152606490fd5b346102505760c0366003190112610250576020610732610b1c6115e1565b610b246115d1565b90606435604435602435600435612203565b34610250575f36600319011261025057604051633c724fef60e11b8152602090f35b3461025057604036600319011261025057602061033e610b766114f7565b60243590612115565b34610250575f366003190112610250575f546040516001600160a01b039091168152602090f35b3461025057602036600319011261025057610bbf6114f7565b60405166616176652d763360c81b81526001600782015260279020546001600160a01b03168015610970576103c7916020916040518080958194630951afe960e41b83526004830161166e565b3461025057366003190160c081126102505760a01361025057610c2d611523565b6040516a6d6f7270686f2d626c756560a81b81526001600b820152602b9020546001600160a01b03168015610aca576103c7916020916040518080958194631f1d38c760e11b8352600483016120e8565b346102505760a03660031901126102505760643560ff8116810361025057610732602091610caa6115e1565b9060443560243560043561205f565b3461025057610100366003190112610250576004356001600160e01b03198116810361025057606435906001600160a01b038216820361025057608435916001600160a01b038316830361025057610d0f6115d1565b9160c43560ff811681036102505760e435936001600160401b03851161025057602095610d4361073296369060040161154d565b9590946044359060243590611d86565b3461025057604036600319011261025057610d6c6114f7565b610d7461150d565b6040516a636f6d706f756e642d763360a81b81526001600b820152602b9020546001600160a01b031691908215610dc957604051630951afe960e41b8152926020928492839182916103c79160048401611687565b604051630c54731360e01b815260206004820152600b60248201526a636f6d706f756e642d763360a81b6044820152606490fd5b3461025057602036600319011261025057610e166114f7565b6040516476656e757360d81b81526001600582015260259020546001600160a01b03168015610e61576103c7916020916040518080958194633b9025c560e01b83526004830161166e565b604051630c54731360e01b815260206004820152600560248201526476656e757360d81b6044820152606490fd5b3461025057602036600319011261025057610ea86114f7565b60405166616176652d763360c81b81526001600782015260279020546001600160a01b03168015610970576103c7916020916040518080958194633b9025c560e01b83526004830161166e565b3461025057604036600319011261025057610f0e6114f7565b610f1661150d565b6040516a636f6d706f756e642d763360a81b81526001600b820152602b9020546001600160a01b031691908215610dc957610a779260409283518095819482936377b57b0760e01b845260048401611687565b3461025057604036600319011261025057610f826114f7565b610f8a61150d565b6040516a636f6d706f756e642d763360a81b81526001600b820152602b9020546001600160a01b031691908215610dc957604051633b9025c560e01b8152926020928492839182916103c79160048401611687565b34610250576060366003190112610250576020610732604435602435600435611cd2565b346102505760403660031901126102505761101c6114f7565b61102461150d565b6040516732bab632b916bb1960c11b81526001600882015260289020546001600160a01b03169190821561042157604051631d6a900960e31b8152926020928492839182916103c79160048401611687565b346102505760403660031901126102505760206107326110946114f7565b61109c61150d565b90611c40565b34610250576020366003190112610250576110bb6114f7565b60405166616176652d763360c81b81526001600782015260279020546001600160a01b03169081156109705760405163b3596f0760e01b81526001600160a01b03909116600482015290602090829060249082905afa8015610416575f906103e357602090604051908152f35b34610250576020366003190112610250576111416114f7565b60405166616176652d763360c81b81526001600782015260279020546001600160a01b031690811561097057604051632fe4a15f60e21b81526001600160a01b0390911660048201529060c090829060249082905afa9081156104165760c0915f915f5f5f915f935f956111d2575b50604051958652602086015260408501526060840152608083015260a0820152f35b9450505050506111f89150823d8411611202575b6111f08183611621565b810190611c12565b93909290876111b0565b503d6111e6565b34610250575f3660031901126102505760405163bbbf88eb60e01b8152602090f35b34610250575f36600319011261025057604051633af167ff60e01b8152602090f35b346102505760a0366003190112610250576040516a6d6f7270686f2d626c756560a81b81526001600b820152602b9020546001600160a01b03168015610aca57602060a49160405192838092636ac0c36b60e11b82526112af60048301611b1f565b5afa8015610416575f906103e357602090604051908152f35b34610250575f366003190112610250576040516308ee5f0360e31b8152602090f35b34610250576020366003190112610250576113036114f7565b6040516476656e757360d81b81526001600582015260259020546001600160a01b0316908115610e615760408051632fe4a15f60e21b81526001600160a01b0390921660048301529091829060249082905afa908115610416576040915f915f91610a9b575082519182526020820152f35b346102505760a0366003190112610250576040516a6d6f7270686f2d626c756560a81b81526001600b820152602b9020546001600160a01b03168015610aca57602060a49160405192838092632725131160e01b82526112af60048301611b1f565b34610250576020366003190112610250576113f06114f7565b6040516476656e757360d81b81526001600582015260259020546001600160a01b0316908115610e6157604051639f91846160e01b81526001600160a01b03909116600482015290602090829060249082905afa8015610416575f906103e357602090604051908152f35b3461025057602061073261146e3661157a565b929190916119f3565b34610250576020366003190112610250576114906114f7565b6040516476656e757360d81b81526001600582015260259020546001600160a01b03168015610e61576103c7916020916040518080958194630951afe960e41b83526004830161166e565b346102505760206107326114ee3661157a565b92919091611772565b600435906001600160a01b038216820361025057565b602435906001600160a01b038216820361025057565b60a435906001600160a01b038216820361025057565b35906001600160a01b038216820361025057565b9181601f84011215610250578235916001600160401b038311610250576020838186019501011161025057565b6060600319820112610250576004356001600160e01b03198116810361025057916024356001600160a01b03811681036102505791604435906001600160401b038211610250576115cd9160040161154d565b9091565b60a4359060ff8216820361025057565b6084359060ff8216820361025057565b9181601f84011215610250578235916001600160401b038311610250576020808501948460051b01011161025057565b601f909101601f19168101906001600160401b038211908210176102fb57604052565b602060409281835280519182918282860152018484015e5f828201840152601f01601f1916010190565b5f81526001600160a01b03909116602082015260400190565b6001600160a01b0391821681529116602082015260400190565b908160a0910312610250576040519060a08201906001600160401b038211838310176102fb576080916040526116d681611539565b83526116e460208201611539565b60208401526116f560408201611539565b604084015261170660608201611539565b60608401520135608082015290565b80516001600160a01b03908116835260208083015182169084015260408083015182169084015260608083015190911690830152608090810151910152565b811561175e570490565b634e487b7160e01b5f52601260045260245ffd5b929061177d846128d2565b9360405185518060208801835e60019082019081528190036020019020546001600160a01b03169485156119d657506001600160e01b0319169063bbbf88eb60e01b821461199857633af167ff60e01b82146118f9576308ee5f0360e31b821461188c5750633028125760e01b146117fb575b5050506305f5e10090565b60a461180f8361182b9360209501906116a1565b604051632725131160e01b815294859384926004840190611715565b5afa908115610416575f9161185a575b50806118485780806117f0565b6b204fce5e3e25026110000000900490565b90506020813d602011611884575b8161187560209383611621565b8101031261025057515f61183b565b3d9150611868565b604051639f91846160e01b81526001600160a01b03909116600482015293602093508492506024915082905afa908115610416575f916118ca575090565b90506020813d6020116118f1575b816118e560209383611621565b81010312610250575190565b3d91506118d8565b9260209150809281010312610250576001600160a01b039061191a90611539565b166001600160a01b0382168082146119675750604051630f2dbd0760e41b815292602092849283918291611952919060048401611687565b03915afa908115610416575f916118ca575090565b9050602091506024604051809481936341976e0960e01b835260048301525afa908115610416575f916118ca575090565b60405163b3596f0760e01b81526001600160a01b03909116600482015293602093508492506024915082905afa908115610416575f916118ca575090565b604051630c54731360e01b81529081906104539060048301611644565b916119fd836128d2565b9260405184518060208701835e60019082019081528190036020019020546001600160a01b03169384156119d657506001600160e01b0319169363bbbf88eb60e01b8514611ae157633af167ff60e01b8514611abe5750506308ee5f0360e31b8314611a82575050633028125760e01b14611a7a576305f5e10090565b6305f5e10090565b604051639f91846160e01b81526001600160a01b0390911660048201529150602090829060249082905afa908115610416575f916118ca575090565b81929394509060209181010312610250576001600160a01b039061191a90611539565b505060405163b3596f0760e01b81526001600160a01b0390911660048201529150602090829060249082905afa908115610416575f916118ca575090565b6004356001600160a01b038116908190036102505781526024356001600160a01b038116908190036102505760208201526044356001600160a01b038116908190036102505760408201526064356001600160a01b038116908190036102505760608201526080608435910152565b60809081906001600160a01b03611ba482611539565b1684526001600160a01b03611bbb60208301611539565b1660208501526001600160a01b03611bd560408301611539565b1660408501526001600160a01b03611bef60608301611539565b1660608501520135910152565b9190826040910312610250576020825192015190565b91908260c09103126102505781519160208101519160408201519160608101519160a0608083015192015190565b6040516a636f6d706f756e642d763360a81b81526001600b820152602b9020546001600160a01b031691908215610dc9576001600160a01b0382811690821681146119675750604051630f2dbd0760e41b815292602092849283918291611952919060048401611687565b81810292918115918404141715611cbe57565b634e487b7160e01b5f52601160045260245ffd5b90918015611d15576a0c097ce7bc90715b34b9f160241b91611cf49190611cab565b049061271003906127108211611cbe5761271091611d1191611cab565b0490565b5050505f90565b9190826040910312610250576020611d3383611539565b92013560ff811681036102505790565b9284926080959263ffffffff60e01b16855260018060a01b0316602085015260606040850152816060850152848401375f828201840152601f01601f1916010190565b909495969792939193611d98826128d2565b60405181518060208401835e60019082019081528190036020019020546001600160a01b03169081156119d657506001600160e01b03198316633028125760e01b8114611fad57633c724fef60e11b14611f1c575090602089859493611e136040519687938493630794e50360e01b85528760048601611d43565b0381305afa928315610416575f93611ee6575b50611e49602093946040519a8b948594630ee9078360e01b865260048601611d43565b0381305afa958615610416575f96611eb2575b508015808015611eaa575b611e9f57670de0b6b3a76400008202918204670de0b6b3a7640000141715611cbe57611e9c95611e9691611754565b9161205f565b90565b505050505050505f90565b508615611e67565b9095506020813d602011611ede575b81611ece60209383611621565b810103126102505751945f611e5c565b3d9150611ec1565b92506020833d602011611f14575b81611f0160209383611621565b8101031261025057915191611e49611e26565b3d9150611ef4565b91509150611f3288602094611f5b9a0190611d1c565b50604051635ab55e5b60e11b81529889938492839291906001600160a01b031660048401611687565b03915afa918215610416575f92611f77575b611e9c955061205f565b91506020853d602011611fa5575b81611f9260209383611621565b8101031261025057611e9c945191611f6d565b3d9150611f85565b50986020969850611fea959750611fce935080925060a494915001906116a1565b604051632725131160e01b815296879384926004840190611715565b5afa918215610416575f92612004575b611e9c9350611cd2565b91506020833d602011612032575b8161201f60209383611621565b8101031261025057611e9c925191611ffa565b3d9150612012565b9060ff8091169116039060ff8211611cbe57565b60ff16604d8111611cbe57600a0a90565b9391909381156120df57670de0b6b3a76400009161207c91611cab565b049060ff838116908216106120c35761209b6120a6936120a09261203a565b61204e565b90611cab565b905b61271003906127108211611cbe5761271091611d1191611cab565b61209b6120d3916120d99461203a565b90611754565b906120a8565b50505050505f90565b60c08101929160a0906120fc836004611b8e565b600180831b0316910152565b91908201809211611cbe57565b60405163324b8e7d60e11b81526001600160a01b039091166004820181905291602082602481305afa918215610416575f926121cf575b5060405192637ad4005160e01b84526004840152602083602481305afa928315610416575f9361219b575b5081158015612193575b611d155761218e91612108565b101590565b508215612181565b9092506020813d6020116121c7575b816121b760209383611621565b810103126102505751915f612177565b3d91506121aa565b9091506020813d6020116121fb575b816121eb60209383611621565b810103126102505751905f61214c565b3d91506121de565b94929193908415808015612286575b611e9f57670de0b6b3a76400008602958604670de0b6b3a7640000141715611cbe5761224260ff95938694611754565b9060405196633b70865d60e11b885260048801526024870152604486015216606484015216608482015260208160a481305afa908115610416575f916118ca575090565b508315612212565b90929160a0906120fc8360c0810196611715565b9293916122ae846128d2565b9360405185518060208801835e60019082019081528190036020019020546001600160a01b03169485156119d657506001600160e01b0319169463bbbf88eb60e01b861461244157633af167ff60e01b86146123fa57633028125760e01b86146123b15750506308ee5f0360e31b84146123555783633c724fef60e11b811461234357631f629a1b60e11b5f5260045260245ffd5b631f629a1b60e11b5f5260045260245ffd5b60408051632fe4a15f60e21b81526001600160a01b0390921660048301529093509091839060249082905afa918215610416575f905f9361239557509190565b90506115cd91925060403d604011610ac357610ab58183611621565b6123e29550816123c791604095969301906116a1565b835180968194829363025f7ec160e01b84526004840161228e565b03915afa918215610416575f905f9361239557509190565b81939495509060209181010312610250576123e2936040926001600160a01b039061242490611539565b84516377b57b0760e01b8152968794859384931660048401611687565b5050604051632fe4a15f60e21b81526001600160a01b03909116600482015292509060c090839060249082905afa918215610416575f905f9361248357509190565b905061249f91925060c03d60c011611202576111f08183611621565b5050505091909190565b6001600160a01b0391821681529116602082015260ff909116604082015260600190565b90919392936124db826128d2565b9160405183518060208601835e60019082019081528190036020019020546001600160a01b03169283156119d657506001600160e01b0319169463bbbf88eb60e01b861461265057633af167ff60e01b861461260757633028125760e01b86146125d457633c724fef60e11b86146125955750506308ee5f0360e31b84146125705783631f629a1b60e11b5f5260045260245ffd5b611952929350906020916040518080958194633b9025c560e01b83526004830161166e565b611952949550816125ac9160209594930190611d1c565b6040516348ca991560e11b81529586948593849391906001600160a01b0316600485016124a9565b611952949550816125eb91602095949301906116a1565b604051809581948293631f1d38c760e11b84526004840161228e565b819392949550906020918101031261025057611952926020926001600160a01b039061263290611539565b604051633b9025c560e01b8152958694859384931660048401611687565b5050611952929350906020916040518080958194633b9025c560e01b83526004830161166e565b9080156126a857670de0b6b3a7640000820291808304670de0b6b3a76400001490151715611cbe57611e9c91611754565b50505f90565b156126b557565b60405162461bcd60e51b81526020600482015260096024820152682737ba1037bbb732b960b91b6044820152606490fd5b91908110156126f65760051b0190565b634e487b7160e01b5f52603260045260245ffd5b356001600160a01b03811681036102505790565b91908110156126f65760051b81013590601e19813603018212156102505701803591906001600160401b038311610250576020018236038113610250579190565b604051632d94deff60e11b815291929060208380612781878560048401611687565b0381305afa928315610416575f936127e0575b50604051636f61dc1160e01b815293602091859182916127b8919060048401611687565b0381305afa928315610416575f9361219b57508115801561219357611d155761218e91612108565b9092506020813d60201161280e575b816127fc60209383611621565b810103126102505751916127b8612794565b3d91506127ef565b60405163077ba65160e41b815290612832600480840190611b8e565b6001600160a01b031660a482015260208160c481305afa908115610416575f916128a0575b50604051631251aff960e11b815291612874600480850190611b8e565b60208360a481305afa928315610416575f9361219b57508115801561219357611d155761218e91612108565b90506020813d6020116128ca575b816128bb60209383611621565b8101031261025057515f612857565b3d91506128ae565b6001600160e01b0319169063bbbf88eb60e01b82146129d957633af167ff60e01b82146129ae57633028125760e01b821461298357633c724fef60e11b821461295b576308ee5f0360e31b82146129365750631f629a1b60e11b5f5260045260245ffd5b9050604051612946604082611621565b600581526476656e757360d81b602082015290565b905060405161296b604082611621565b600881526732bab632b916bb1960c11b602082015290565b9050604051612993604082611621565b600b81526a6d6f7270686f2d626c756560a81b602082015290565b90506040516129be604082611621565b600b81526a636f6d706f756e642d763360a81b602082015290565b90506040516129e9604082611621565b6007815266616176652d763360c81b60208201529056febb3e5184c1abd837fdef964aa5dd5330db9956e5956074319da71072fb072d92a26469706673582212204466d3b2fca622a4130f2d200112174415c3580853b1821561ba6cc5d29bae6264736f6c634300081e0033",
  "devdoc": {
    "details": "Aggregates gateway view contracts to provide protocol-agnostic LTV queries for ADL Supported protocols:   - \"aave-v3\": Aave V3 (context: empty)   - \"compound-v3\": Compound V3 (context: abi.encode(baseToken address))   - \"morpho-blue\": Morpho Blue (context: abi.encode(MarketParams))   - \"euler-v2\": Euler V2 (context: abi.encode(vault address, subAccountIndex uint8))   - \"venus\": Venus (context: empty)",
    "kind": "dev",
    "methods": {
      "calculateMinBuy(bytes4,uint256,uint256,address,address,uint8,uint8,bytes)": {
        "params": {
          "collateralDecimals": "Collateral token decimals",
          "collateralToken": "Collateral token",
          "context": "Protocol-specific context (see getCurrentLtv)",
          "debtDecimals": "Debt token decimals",
          "debtToken": "Debt token",
          "maxSlippageBps": "Maximum slippage in basis points",
          "protocolId": "Protocol identifier",
          "sellAmount": "Amount to sell"
        },
        "returns": {
          "minBuyAmount": "Minimum acceptable buy amount"
        }
      },
      "calculateMinBuyAmount(uint256,uint256,uint256,uint256,uint8,uint8)": {
        "details": "Convenience function that takes USD prices and converts to exchange rate internally",
        "params": {
          "buyDecimals": "Decimals of buy token",
          "buyPriceUsd": "Price of buyToken (same decimals as sellPriceUsd)",
          "maxSlippageBps": "Maximum slippage in basis points (e.g., 100 = 1%)",
          "sellAmount": "Amount of sellToken",
          "sellDecimals": "Decimals of sell token",
          "sellPriceUsd": "Price of sellToken (any decimals)"
        },
        "returns": {
          "minBuyAmount": "Minimum acceptable buy amount"
        }
      },
      "calculateMinBuyFromRate(uint256,uint256,uint256,uint8,uint8)": {
        "details": "Exchange rate = how many buyTokens per sellToken, scaled by 1e18",
        "params": {
          "buyDecimals": "Decimals of buy token",
          "exchangeRate18": "Exchange rate with 18 decimals (sellToken  buyToken)",
          "maxSlippageBps": "Maximum slippage in basis points (e.g., 100 = 1%)",
          "sellAmount": "Amount of sellToken (in sellToken decimals)",
          "sellDecimals": "Decimals of sell token"
        },
        "returns": {
          "minBuyAmount": "Minimum acceptable buy amount"
        }
      },
      "calculateMorphoMinBuyAmount(uint256,uint256,uint256)": {
        "details": "Morpho oracles return the exchange rate scaled by 1e36      Formula: loanAmount = collateralAmount * price / 1e36      The oracle price already accounts for token decimals",
        "params": {
          "maxSlippageBps": "Maximum slippage in basis points",
          "morphoOraclePrice": "Price from Morpho oracle (36 decimals scale)",
          "sellAmount": "Amount of collateral to sell (in collateral token decimals)"
        },
        "returns": {
          "minBuyAmount": "Minimum acceptable loan tokens to receive"
        }
      },
      "getAaveLtvBps(address)": {
        "params": {
          "user": "The user's address"
        },
        "returns": {
          "ltvBps": "Current LTV in basis points"
        }
      },
      "getAavePrice(address)": {
        "params": {
          "token": "The asset address"
        },
        "returns": {
          "_0": "price Price in 8 decimals USD"
        }
      },
      "getAaveUserAccountData(address)": {
        "params": {
          "user": "The user address"
        },
        "returns": {
          "availableBorrowsBase": "Available borrows in 8 decimals USD",
          "currentLiquidationThreshold": "Liquidation threshold in basis points",
          "healthFactor": "Health factor (1e18 scale)",
          "ltv": "Loan-to-value ratio in basis points",
          "totalCollateralBase": "Total collateral in 8 decimals USD",
          "totalDebtBase": "Total debt in 8 decimals USD"
        }
      },
      "getCollateralPrice(bytes4,address,bytes)": {
        "params": {
          "collateralToken": "Collateral token address",
          "context": "Protocol-specific context (see getCurrentLtv)",
          "protocolId": "Protocol identifier"
        },
        "returns": {
          "price": "Price in 8 decimals USD (or 1e8 for protocols using exchange rates)"
        }
      },
      "getCompoundLtvBps(address,address)": {
        "params": {
          "baseToken": "The base token of the Comet market (e.g., USDC)",
          "user": "The user's address"
        }
      },
      "getCompoundPositionValue(address,address)": {
        "params": {
          "baseToken": "The Comet base token (e.g., USDC)",
          "user": "The user address"
        },
        "returns": {
          "collateralValueUsd": "Total collateral in 8 decimals USD",
          "debtValueUsd": "Total debt in 8 decimals USD"
        }
      },
      "getCompoundPrice(address,address)": {
        "params": {
          "asset": "The asset to price (collateral or base token)",
          "baseToken": "The Comet base token (e.g., USDC)"
        },
        "returns": {
          "_0": "price Price in 8 decimals USD"
        }
      },
      "getCurrentLtv(bytes4,address,bytes)": {
        "params": {
          "context": "Protocol-specific context:   - AAVE_V3: empty bytes   - COMPOUND_V3: abi.encode(baseToken address)   - MORPHO_BLUE: abi.encode(MarketParams)   - EULER_V2: abi.encode(vault address, subAccountIndex uint8)   - VENUS: empty bytes",
          "protocolId": "Protocol identifier (AAVE_V3, COMPOUND_V3, etc.)",
          "user": "User address"
        },
        "returns": {
          "ltvBps": "Current LTV in basis points"
        }
      },
      "getDebtPrice(bytes4,address,bytes)": {
        "params": {
          "context": "Protocol-specific context (see getCurrentLtv)",
          "debtToken": "Debt token address",
          "protocolId": "Protocol identifier"
        },
        "returns": {
          "price": "Price in 8 decimals USD (or 1e8 for protocols using exchange rates)"
        }
      },
      "getEulerExchangeRate(address,address)": {
        "details": "Returns 18-decimal exchange rate ready for calculateMinBuyFromRate()",
        "params": {
          "borrowVault": "The borrow vault (debt side)",
          "collateralVault": "The collateral vault"
        },
        "returns": {
          "_0": "rate18 Exchange rate with 18 decimals"
        }
      },
      "getEulerLtvBps(address,address,uint8)": {
        "params": {
          "subAccountIndex": "The sub-account index (0-255)",
          "user": "The user's address",
          "vault": "The borrow vault address"
        }
      },
      "getEulerPrice(address,address)": {
        "params": {
          "token": "The token to price",
          "vault": "The Euler vault address (determines oracle)"
        },
        "returns": {
          "_0": "price Price in unit of account decimals"
        }
      },
      "getMorphoLtvBps((address,address,address,address,uint256),address)": {
        "params": {
          "params": "The Morpho market parameters",
          "user": "The user's address"
        }
      },
      "getMorphoOraclePrice((address,address,address,address,uint256))": {
        "details": "This is NOT a USD price - it's the exchange rate from collateral to loan token",
        "params": {
          "params": "The Morpho market parameters"
        },
        "returns": {
          "_0": "price Price ratio with 36 decimals"
        }
      },
      "getMorphoPositionValue((address,address,address,address,uint256),address)": {
        "params": {
          "params": "The Morpho market parameters",
          "user": "The user address"
        },
        "returns": {
          "collateralValueUsd": "Total collateral in 8 decimals USD",
          "debtValueUsd": "Total debt in 8 decimals USD"
        }
      },
      "getPositionValue(bytes4,address,bytes)": {
        "params": {
          "context": "Protocol-specific context (see getCurrentLtv)",
          "protocolId": "Protocol identifier",
          "user": "User address"
        },
        "returns": {
          "collateralValueUsd": "Total collateral in 8 decimals USD",
          "debtValueUsd": "Total debt in 8 decimals USD"
        }
      },
      "getVenusLtvBps(address)": {
        "params": {
          "user": "The user's address"
        }
      },
      "getVenusPrice(address)": {
        "params": {
          "underlyingToken": "The underlying asset address"
        },
        "returns": {
          "_0": "price Price in 8 decimals USD"
        }
      },
      "getVenusUserAccountData(address)": {
        "params": {
          "user": "The user address"
        },
        "returns": {
          "totalCollateralUsd": "Total collateral in 8 decimals USD",
          "totalDebtUsd": "Total debt in 8 decimals USD"
        }
      },
      "isAaveAtRisk(address,uint256)": {
        "params": {
          "bufferBps": "Safety buffer in basis points (e.g., 500 = 5%)",
          "user": "The user's address"
        },
        "returns": {
          "atRisk": "True if current LTV + buffer >= liquidation LTV"
        }
      },
      "setGateway(string,address)": {
        "params": {
          "gateway": "Gateway view contract address",
          "protocolName": "Protocol name (e.g., \"aave-v3\", \"morpho-blue\")"
        }
      },
      "setGateways(string[],address[])": {
        "params": {
          "gatewayAddresses": "Array of gateway addresses",
          "protocolNames": "Array of protocol names"
        }
      },
      "transferOwnership(address)": {
        "params": {
          "newOwner": "New owner address"
        }
      },
      "usdPricesToExchangeRate(uint256,uint256)": {
        "details": "exchangeRate18 = sellPriceUsd * 1e18 / buyPriceUsd",
        "params": {
          "buyPriceUsd": "USD price of buy token (any decimals, but same as sellPriceUsd)",
          "sellPriceUsd": "USD price of sell token (any decimals, but same as buyPriceUsd)"
        },
        "returns": {
          "exchangeRate18": "Exchange rate with 18 decimals"
        }
      }
    },
    "title": "KapanViewRouter",
    "version": 1
  },
  "userdoc": {
    "kind": "user",
    "methods": {
      "AAVE_V3()": {
        "notice": "Protocol identifiers (bytes4 for unified interface)"
      },
      "calculateMinBuy(bytes4,uint256,uint256,address,address,uint8,uint8,bytes)": {
        "notice": "Calculate minimum buy amount with slippage for any protocol (unified interface)"
      },
      "calculateMinBuyAmount(uint256,uint256,uint256,uint256,uint8,uint8)": {
        "notice": "Calculate minimum buy amount for ADL order with slippage protection"
      },
      "calculateMinBuyFromRate(uint256,uint256,uint256,uint8,uint8)": {
        "notice": "Calculate minimum buy amount using exchange rate"
      },
      "calculateMorphoMinBuyAmount(uint256,uint256,uint256)": {
        "notice": "Calculate minimum buy amount for Morpho ADL orders"
      },
      "gateways(string)": {
        "notice": "Protocol name => gateway view address (consistent with KapanRouter)"
      },
      "getAaveLiquidationLtvBps(address)": {
        "notice": "Get liquidation LTV for Aave V3"
      },
      "getAaveLtvBps(address)": {
        "notice": "Get current LTV for Aave V3"
      },
      "getAavePrice(address)": {
        "notice": "Get asset price via Aave oracle (8 decimals)"
      },
      "getAavePrices(address[])": {
        "notice": "Get multiple asset prices via Aave oracle"
      },
      "getAaveUserAccountData(address)": {
        "notice": "Get Aave user account data (collateral and debt in USD)"
      },
      "getCollateralPrice(bytes4,address,bytes)": {
        "notice": "Get collateral price for any protocol (unified interface)"
      },
      "getCompoundLiquidationLtvBps(address,address)": {
        "notice": "Get liquidation LTV for Compound V3"
      },
      "getCompoundLtvBps(address,address)": {
        "notice": "Get current LTV for Compound V3"
      },
      "getCompoundPositionValue(address,address)": {
        "notice": "Get Compound position value (collateral and debt in USD)"
      },
      "getCompoundPrice(address,address)": {
        "notice": "Get asset price via Compound (8 decimals)"
      },
      "getCurrentLtv(bytes4,address,bytes)": {
        "notice": "Get current LTV for any protocol (unified interface)"
      },
      "getDebtPrice(bytes4,address,bytes)": {
        "notice": "Get debt price for any protocol (unified interface)"
      },
      "getEulerExchangeRate(address,address)": {
        "notice": "Get exchange rate for Euler position (collateral  debt)"
      },
      "getEulerLiquidationLtvBps(address)": {
        "notice": "Get liquidation LTV for Euler V2"
      },
      "getEulerLtvBps(address,address,uint8)": {
        "notice": "Get current LTV for Euler V2"
      },
      "getEulerPrice(address,address)": {
        "notice": "Get asset price via Euler oracle (in vault's unit of account)"
      },
      "getMorphoLiquidationLtvBps((address,address,address,address,uint256))": {
        "notice": "Get liquidation LTV for Morpho Blue"
      },
      "getMorphoLtvBps((address,address,address,address,uint256),address)": {
        "notice": "Get current LTV for Morpho Blue"
      },
      "getMorphoOraclePrice((address,address,address,address,uint256))": {
        "notice": "Get Morpho oracle price (36 decimals, collateral/loan ratio)"
      },
      "getMorphoPositionValue((address,address,address,address,uint256),address)": {
        "notice": "Get Morpho position value (collateral and debt in USD)"
      },
      "getPositionValue(bytes4,address,bytes)": {
        "notice": "Get position value for any protocol (unified interface)"
      },
      "getVenusLiquidationLtvBps(address)": {
        "notice": "Get liquidation LTV for Venus"
      },
      "getVenusLtvBps(address)": {
        "notice": "Get current LTV for Venus"
      },
      "getVenusPrice(address)": {
        "notice": "Get asset price via Venus oracle (8 decimals normalized)"
      },
      "getVenusUserAccountData(address)": {
        "notice": "Get Venus user account data (collateral and debt in USD)"
      },
      "isAaveAtRisk(address,uint256)": {
        "notice": "Check if Aave position is at liquidation risk"
      },
      "isCompoundAtRisk(address,address,uint256)": {
        "notice": "Check if Compound position is at liquidation risk"
      },
      "isMorphoAtRisk((address,address,address,address,uint256),address,uint256)": {
        "notice": "Check if Morpho position is at liquidation risk"
      },
      "owner()": {
        "notice": "Owner who can update gateway addresses"
      },
      "setGateway(string,address)": {
        "notice": "Set or update a gateway view address"
      },
      "setGateways(string[],address[])": {
        "notice": "Batch set multiple gateways"
      },
      "transferOwnership(address)": {
        "notice": "Transfer ownership"
      },
      "usdPricesToExchangeRate(uint256,uint256)": {
        "notice": "Convert two USD prices (same decimals) to an 18-decimal exchange rate"
      }
    },
    "notice": "Unified read-only router for querying position data across lending protocols",
    "version": 1
  },
  "storageLayout": {
    "storage": [
      {
        "astId": 10294,
        "contract": "contracts/v2/KapanViewRouter.sol:KapanViewRouter",
        "label": "owner",
        "offset": 0,
        "slot": "0",
        "type": "t_address"
      },
      {
        "astId": 10299,
        "contract": "contracts/v2/KapanViewRouter.sol:KapanViewRouter",
        "label": "gateways",
        "offset": 0,
        "slot": "1",
        "type": "t_mapping(t_string_memory_ptr,t_address)"
      }
    ],
    "types": {
      "t_address": {
        "encoding": "inplace",
        "label": "address",
        "numberOfBytes": "20"
      },
      "t_mapping(t_string_memory_ptr,t_address)": {
        "encoding": "mapping",
        "key": "t_string_memory_ptr",
        "label": "mapping(string => address)",
        "numberOfBytes": "32",
        "value": "t_address"
      },
      "t_string_memory_ptr": {
        "encoding": "bytes",
        "label": "string",
        "numberOfBytes": "32"
      }
    }
  }
}