{
  "address": "0x56F9e6F3AD2d2D63917d7aFcf05066694dCd63F2",
  "abi": [
    {
      "inputs": [
        {
          "internalType": "address",
          "name": "_manager",
          "type": "address"
        }
      ],
      "stateMutability": "nonpayable",
      "type": "constructor"
    },
    {
      "inputs": [
        {
          "internalType": "string",
          "name": "reason",
          "type": "string"
        }
      ],
      "name": "OrderNotValid",
      "type": "error"
    },
    {
      "inputs": [
        {
          "internalType": "string",
          "name": "reason",
          "type": "string"
        }
      ],
      "name": "PollNever",
      "type": "error"
    },
    {
      "inputs": [
        {
          "internalType": "string",
          "name": "reason",
          "type": "string"
        }
      ],
      "name": "PollTryNextBlock",
      "type": "error"
    },
    {
      "inputs": [
        {
          "internalType": "address",
          "name": "",
          "type": "address"
        },
        {
          "internalType": "address",
          "name": "",
          "type": "address"
        },
        {
          "internalType": "bytes32",
          "name": "",
          "type": "bytes32"
        },
        {
          "internalType": "bytes",
          "name": "staticInput",
          "type": "bytes"
        },
        {
          "internalType": "bytes",
          "name": "",
          "type": "bytes"
        }
      ],
      "name": "getTradeableOrder",
      "outputs": [
        {
          "components": [
            {
              "internalType": "contract IERC20",
              "name": "sellToken",
              "type": "address"
            },
            {
              "internalType": "contract IERC20",
              "name": "buyToken",
              "type": "address"
            },
            {
              "internalType": "address",
              "name": "receiver",
              "type": "address"
            },
            {
              "internalType": "uint256",
              "name": "sellAmount",
              "type": "uint256"
            },
            {
              "internalType": "uint256",
              "name": "buyAmount",
              "type": "uint256"
            },
            {
              "internalType": "uint32",
              "name": "validTo",
              "type": "uint32"
            },
            {
              "internalType": "bytes32",
              "name": "appData",
              "type": "bytes32"
            },
            {
              "internalType": "uint256",
              "name": "feeAmount",
              "type": "uint256"
            },
            {
              "internalType": "bytes32",
              "name": "kind",
              "type": "bytes32"
            },
            {
              "internalType": "bool",
              "name": "partiallyFillable",
              "type": "bool"
            },
            {
              "internalType": "bytes32",
              "name": "sellTokenBalance",
              "type": "bytes32"
            },
            {
              "internalType": "bytes32",
              "name": "buyTokenBalance",
              "type": "bytes32"
            }
          ],
          "internalType": "struct GPv2Order.Data",
          "name": "order",
          "type": "tuple"
        }
      ],
      "stateMutability": "view",
      "type": "function"
    },
    {
      "inputs": [],
      "name": "manager",
      "outputs": [
        {
          "internalType": "contract IKapanConditionalOrderManager",
          "name": "",
          "type": "address"
        }
      ],
      "stateMutability": "view",
      "type": "function"
    },
    {
      "inputs": [
        {
          "internalType": "bytes4",
          "name": "interfaceId",
          "type": "bytes4"
        }
      ],
      "name": "supportsInterface",
      "outputs": [
        {
          "internalType": "bool",
          "name": "",
          "type": "bool"
        }
      ],
      "stateMutability": "pure",
      "type": "function"
    },
    {
      "inputs": [
        {
          "internalType": "address",
          "name": "",
          "type": "address"
        },
        {
          "internalType": "address",
          "name": "",
          "type": "address"
        },
        {
          "internalType": "bytes32",
          "name": "",
          "type": "bytes32"
        },
        {
          "internalType": "bytes32",
          "name": "",
          "type": "bytes32"
        },
        {
          "internalType": "bytes32",
          "name": "",
          "type": "bytes32"
        },
        {
          "internalType": "bytes",
          "name": "staticInput",
          "type": "bytes"
        },
        {
          "internalType": "bytes",
          "name": "",
          "type": "bytes"
        },
        {
          "components": [
            {
              "internalType": "contract IERC20",
              "name": "sellToken",
              "type": "address"
            },
            {
              "internalType": "contract IERC20",
              "name": "buyToken",
              "type": "address"
            },
            {
              "internalType": "address",
              "name": "receiver",
              "type": "address"
            },
            {
              "internalType": "uint256",
              "name": "sellAmount",
              "type": "uint256"
            },
            {
              "internalType": "uint256",
              "name": "buyAmount",
              "type": "uint256"
            },
            {
              "internalType": "uint32",
              "name": "validTo",
              "type": "uint32"
            },
            {
              "internalType": "bytes32",
              "name": "appData",
              "type": "bytes32"
            },
            {
              "internalType": "uint256",
              "name": "feeAmount",
              "type": "uint256"
            },
            {
              "internalType": "bytes32",
              "name": "kind",
              "type": "bytes32"
            },
            {
              "internalType": "bool",
              "name": "partiallyFillable",
              "type": "bool"
            },
            {
              "internalType": "bytes32",
              "name": "sellTokenBalance",
              "type": "bytes32"
            },
            {
              "internalType": "bytes32",
              "name": "buyTokenBalance",
              "type": "bytes32"
            }
          ],
          "internalType": "struct GPv2Order.Data",
          "name": "order",
          "type": "tuple"
        }
      ],
      "name": "verify",
      "outputs": [],
      "stateMutability": "view",
      "type": "function"
    }
  ],
  "transactionHash": "0xe5364a72b3dbcea50441c30238e2d8487b4a68de754d7b57c3d678b330ba4c8c",
  "args": [
    "0xEBe83a05f3622CE2B8933dAee4C81Db8a726ddab"
  ],
  "numDeployments": 8,
  "solcInputHash": "f7be3f0efed801559856c5f987f8b492",
  "bytecode": "0x60a0346100be57601f610fd838819003918201601f19168301916001600160401b038311848410176100c2578084926020946040528339810103126100be57516001600160a01b038116908190036100be57801561008757608052604051610f0190816100d7823960805181818161012201528181610725015281816107e70152610db30152f35b60405162461bcd60e51b815260206004820152600f60248201526e24b73b30b634b21036b0b730b3b2b960891b6044820152606490fd5b5f80fd5b634e487b7160e01b5f52604160045260245ffdfe6080806040526004361015610012575f80fd5b5f3560e01c90816301ffc9a7146109da5750806314a2a78414610754578063481c6a75146107105763b8296fc414610048575f80fd5b346104fc5760a03660031901126104fc57610061610a45565b5061006a610a5b565b506064356001600160401b0381116104fc5761008a903690600401610a71565b6084356001600160401b0381116104fc576020916100ad84923690600401610a71565b50505f6101606040516100bf81610a9e565b82815282868201528260408201528260608201528260808201528260a08201528260c08201528260e08201528261010082015282610120820152826101408201520152810103126104fc57604051632bbc239560e11b81529035600482018190527f00000000000000000000000000000000000000000000000000000000000000006001600160a01b0316905f83602481855afa928315610508575f936106ec575b50602083015160048110156106d8575f19016106be5782516020808201516040808401519351818801805192516343fc086560e01b8152606060048201526001600160a01b039485169896919590949093859384939216916101c7906064850190610d1d565b91602484015260448301520381885afa908115610508575f91610684575b5061064b5761010085510151801515908161063f575b506106005760405163268a0ec160e01b81526004810184905293602085602481865afa948515610508575f956105cc575b508493604051906303fc40f560e51b82526004820152602081602481875afa908115610508575f9161059a575b5094156103e0575b506060850151905161027291610d9d565b908142116103a95761018094519260018060a01b036080850151169460e060018060a01b0360a08701511695015163ffffffff604051956102b287610a9e565b888752602087019788526040870195865260608701948552608087019384528160a088019116815260c0870192835260e08701935f85526101008801957ff3b277728b3fee749481eb3e0b3b48980dbbab78658fc419025cb16eee34677587526101208901975f89526101606101408b019a5f516020610eac5f395f51905f528c52019a5f516020610eac5f395f51905f528c526040519c8d5260018060a01b0390511660208d015260018060a01b0390511660408c01525160608b01525160808a0152511660a08801525160c08701525160e0860152516101008501525115156101208401525161014083015251610160820152f35b60405163d05f306560e01b815260206004820152600e60248201526d1dda5b991bddd7d95e1c1a5c995960921b6044820152606490fd5b85516040808201519151905163632224a760e01b815293965093945090925f918391829161041b916001600160a01b03169060048401610d41565b0381855afa908115610508575f905f9261053c575b50156105135750835160408082015191518151632b548a7b60e11b81529493919285929183918291610471916001600160a01b039091169060048401610d41565b03915afa8015610508575f925f916104cb575b50928215610492575f610261565b60405163981b64cd60e01b815260206004820152601060248201526f1e995c9bd7dcd95b1b17d85b5bdd5b9d60821b6044820152606490fd5b9250506040823d604011610500575b816104e760409383610ace565b810103126104fc57602082519201515f610484565b5f80fd5b3d91506104da565b6040513d5f823e3d90fd5b60405163d05f306560e01b815260206004820152908190610538906024830190610d1d565b0390fd5b9150503d805f833e61054e8183610ace565b81016040828203126104fc5761056382610d10565b602083015190926001600160401b0382116104fc57019080601f830112156104fc57815161059392602001610b05565b905f610430565b90506020813d6020116105c4575b816105b560209383610ace565b810103126104fc57515f610259565b3d91506105a8565b9094506020813d6020116105f8575b816105e860209383610ace565b810103126104fc5751935f61022c565b3d91506105db565b60405163981b64cd60e01b81526020600482015260166024820152751b585e17da5d195c985d1a5bdb9cd7dc995858da195960521b6044820152606490fd5b9050815110155f6101fb565b60405163981b64cd60e01b815260206004820152601060248201526f747269676765725f636f6d706c65746560801b6044820152606490fd5b90506020813d6020116106b6575b8161069f60209383610ace565b810103126104fc576106b090610d10565b5f6101e5565b3d9150610692565b60405163981b64cd60e01b81528061053860048201610ce5565b634e487b7160e01b5f52602160045260245ffd5b6107099193503d805f833e6107018183610ace565b810190610b67565b915f610161565b346104fc575f3660031901126104fc576040517f00000000000000000000000000000000000000000000000000000000000000006001600160a01b03168152602090f35b346104fc576102603660031901126104fc5761076e610a45565b50610777610a5b565b5060a4356001600160401b0381116104fc57610797903690600401610a71565b60c4356001600160401b0381116104fc576107b6903690600401610a71565b50506101803660e31901126104fc5781602091810103126104fc57604051632bbc239560e11b8152903560048201527f00000000000000000000000000000000000000000000000000000000000000006001600160a01b03165f82602481845afa918215610508575f926109be575b50602082015160048110156106d8575f19016109a45760e4356001600160a01b038116908181036104fc57508251608001516001600160a01b03160361096857610104356001600160a01b038116908181036104fc5750825160a001516001600160a01b03160361092d57610124356001600160a01b038116908190036104fc57036108f4575160e001516101a435036108bb57005b60405163c8fc272560e01b815260206004820152601060248201526f0c2e0e0c8c2e8c2bedad2e6dac2e8c6d60831b6044820152606490fd5b60405163c8fc272560e01b815260206004820152601060248201526f34b73b30b634b22fb932b1b2b4bb32b960811b6044820152606490fd5b60405163c8fc272560e01b81526020600482015260126024820152710c4eaf2bee8ded6cadcbedad2e6dac2e8c6d60731b6044820152606490fd5b60405163c8fc272560e01b81526020600482015260136024820152720e6cad8d8bee8ded6cadcbedad2e6dac2e8c6d606b1b6044820152606490fd5b60405163c8fc272560e01b81528061053860048201610ce5565b6109d39192503d805f833e6107018183610ace565b9082610825565b346104fc5760203660031901126104fc576004359063ffffffff60e01b82168092036104fc57602091632e0a5bf160e21b8114908115610a34575b8115610a23575b5015158152f35b6301ffc9a760e01b14905083610a1c565b630528a9e160e21b81149150610a15565b600435906001600160a01b03821682036104fc57565b602435906001600160a01b03821682036104fc57565b9181601f840112156104fc578235916001600160401b0383116104fc57602083818601950101116104fc57565b61018081019081106001600160401b03821117610aba57604052565b634e487b7160e01b5f52604160045260245ffd5b601f909101601f19168101906001600160401b03821190821017610aba57604052565b51906001600160a01b03821682036104fc57565b9192916001600160401b038211610aba5760405191610b2e601f8201601f191660200184610ace565b8294818452818301116104fc578281602093845f96015e010152565b9080601f830112156104fc578151610b6492602001610b05565b90565b6020818303126104fc578051906001600160401b0382116104fc57016080818303126104fc5760405191608083016001600160401b03811184821017610aba5760405281516001600160401b0381116104fc578201610140818303126104fc576040519161014083016001600160401b03811184821017610aba57604052610bee82610af1565b8352610bfc60208301610af1565b602084015260408201516001600160401b0381116104fc5781610c20918401610b4a565b604084015260608201516001600160401b0381116104fc5781610c44918401610b4a565b6060840152610c5560808301610af1565b6080840152610c6660a08301610af1565b60a084015260c0820151916001600160401b0383116104fc57610c9161012092610cb2948301610b4a565b60c085015260e081015160e085015261010081015161010085015201610af1565b610120820152825260208101519060048210156104fc576060916020840152604081015160408401520151606082015290565b60609060208152601060208201526f6f726465725f6e6f745f61637469766560801b60408201520190565b519081151582036104fc57565b805180835260209291819084018484015e5f828201840152601f01601f1916010190565b90610d59602091949394604084526040840190610d1d565b6001600160a01b03909416910152565b81810292918115918404141715610d7c57565b634e487b7160e01b5f52601160045260245ffd5b91908201809211610d7c57565b60405163018ecba160e11b8152916020836004817f00000000000000000000000000000000000000000000000000000000000000006001600160a01b03165afa928315610508575f93610e75575b5082610e03610dfd82610e0894610d69565b84610d90565b610d90565b5f198101908111610d7c5780421115610e6f5750804203428111610d7c578215610e5b5782900460018101809111610d7c57610e4d92610e4791610d69565b90610d90565b5f198101908111610d7c5790565b634e487b7160e01b5f52601260045260245ffd5b91505090565b9092506020813d602011610ea3575b81610e9160209383610ace565b810103126104fc575191610e08610deb565b3d9150610e8456fe5a28e9363bb942b639270062aa6bb295f434bcdfc42c97267bf003f272060dc9a2646970667358221220c11a16674b6bd6e2166a1d10bfc3d153f6470d8b58d08876ccd0b2f49db1ed3064736f6c634300081e0033",
  "devdoc": {
    "details": "Implements IConditionalOrderGenerator for ComposableCoW integration.      This is a STATELESS handler that reads order data from KapanConditionalOrderManager.      Separating handler from manager is required because:      - Handler must implement IERC165 for ComposableCoW to verify interface support      - Manager (owner) must NOT implement IERC165 to avoid Safe/fallback handler path",
    "errors": {
      "OrderNotValid(string)": [
        {
          "details": "Signal that the order parameters are invalid"
        }
      ],
      "PollNever(string)": [
        {
          "details": "Signal to stop polling this order (completed or cancelled)"
        }
      ],
      "PollTryNextBlock(string)": [
        {
          "details": "Signal to try polling again at the next block"
        }
      ]
    },
    "kind": "dev",
    "methods": {
      "getTradeableOrder(address,address,bytes32,bytes,bytes)": {
        "details": "Called by ComposableCoW via getTradeableOrderWithSignature",
        "params": {
          "staticInput": "ABI-encoded orderHash"
        },
        "returns": {
          "order": "The GPv2Order.Data struct"
        }
      },
      "supportsInterface(bytes4)": {
        "details": "Required for ComposableCoW to verify handler compatibility"
      },
      "verify(address,address,bytes32,bytes32,bytes32,bytes,bytes,(address,address,address,uint256,uint256,uint32,bytes32,uint256,bytes32,bool,bytes32,bytes32))": {
        "details": "Called by ComposableCoW during signature verification"
      }
    },
    "title": "KapanConditionalOrderHandler",
    "version": 1
  },
  "userdoc": {
    "kind": "user",
    "methods": {
      "getTradeableOrder(address,address,bytes32,bytes,bytes)": {
        "notice": "Generate a tradeable order if trigger condition is met"
      },
      "manager()": {
        "notice": "The KapanConditionalOrderManager that stores order contexts"
      },
      "supportsInterface(bytes4)": {
        "notice": "Check if contract supports an interface"
      },
      "verify(address,address,bytes32,bytes32,bytes32,bytes,bytes,(address,address,address,uint256,uint256,uint32,bytes32,uint256,bytes32,bool,bytes32,bytes32))": {
        "notice": "Verify that a proposed order matches the conditional order"
      }
    },
    "notice": "Generates CoW Protocol orders for Kapan conditional/trigger-based orders (ADL, stop-loss, etc.)",
    "version": 1
  },
  "storageLayout": {
    "storage": [],
    "types": null
  }
}