{
  "address": "0x57DED814D09754d163060B4Fc36823F7742DA83b",
  "abi": [
    {
      "inputs": [
        {
          "internalType": "address",
          "name": "owner",
          "type": "address"
        }
      ],
      "stateMutability": "nonpayable",
      "type": "constructor"
    },
    {
      "inputs": [
        {
          "internalType": "address",
          "name": "target",
          "type": "address"
        }
      ],
      "name": "AddressEmptyCode",
      "type": "error"
    },
    {
      "inputs": [
        {
          "internalType": "address",
          "name": "account",
          "type": "address"
        }
      ],
      "name": "AddressInsufficientBalance",
      "type": "error"
    },
    {
      "inputs": [],
      "name": "FailedInnerCall",
      "type": "error"
    },
    {
      "inputs": [
        {
          "internalType": "address",
          "name": "owner",
          "type": "address"
        }
      ],
      "name": "OwnableInvalidOwner",
      "type": "error"
    },
    {
      "inputs": [
        {
          "internalType": "address",
          "name": "account",
          "type": "address"
        }
      ],
      "name": "OwnableUnauthorizedAccount",
      "type": "error"
    },
    {
      "inputs": [],
      "name": "ReentrancyGuardReentrantCall",
      "type": "error"
    },
    {
      "inputs": [
        {
          "internalType": "address",
          "name": "token",
          "type": "address"
        }
      ],
      "name": "SafeERC20FailedOperation",
      "type": "error"
    },
    {
      "anonymous": false,
      "inputs": [
        {
          "indexed": true,
          "internalType": "address",
          "name": "previousOwner",
          "type": "address"
        },
        {
          "indexed": true,
          "internalType": "address",
          "name": "newOwner",
          "type": "address"
        }
      ],
      "name": "OwnershipTransferred",
      "type": "event"
    },
    {
      "inputs": [
        {
          "internalType": "string",
          "name": "protocolName",
          "type": "string"
        },
        {
          "internalType": "address",
          "name": "gateway",
          "type": "address"
        }
      ],
      "name": "addGateway",
      "outputs": [],
      "stateMutability": "nonpayable",
      "type": "function"
    },
    {
      "inputs": [
        {
          "components": [
            {
              "internalType": "string",
              "name": "protocolName",
              "type": "string"
            },
            {
              "internalType": "bytes",
              "name": "data",
              "type": "bytes"
            }
          ],
          "internalType": "struct ProtocolTypes.ProtocolInstruction[]",
          "name": "instructions",
          "type": "tuple[]"
        },
        {
          "internalType": "address",
          "name": "caller",
          "type": "address"
        }
      ],
      "name": "authorizeInstructions",
      "outputs": [
        {
          "internalType": "address[]",
          "name": "targets",
          "type": "address[]"
        },
        {
          "internalType": "bytes[]",
          "name": "data",
          "type": "bytes[]"
        }
      ],
      "stateMutability": "view",
      "type": "function"
    },
    {
      "inputs": [
        {
          "components": [
            {
              "internalType": "uint256",
              "name": "amount",
              "type": "uint256"
            },
            {
              "internalType": "address",
              "name": "token",
              "type": "address"
            },
            {
              "internalType": "address",
              "name": "user",
              "type": "address"
            },
            {
              "internalType": "enum KapanRouter.RouterInstructionType",
              "name": "instructionType",
              "type": "uint8"
            }
          ],
          "internalType": "struct KapanRouter.RouterInstruction[]",
          "name": "instrs",
          "type": "tuple[]"
        }
      ],
      "name": "authorizeRouter",
      "outputs": [
        {
          "internalType": "address[]",
          "name": "targets",
          "type": "address[]"
        },
        {
          "internalType": "bytes[]",
          "name": "data",
          "type": "bytes[]"
        }
      ],
      "stateMutability": "view",
      "type": "function"
    },
    {
      "inputs": [],
      "name": "balancerV2Vault",
      "outputs": [
        {
          "internalType": "contract IFlashLoanProvider",
          "name": "",
          "type": "address"
        }
      ],
      "stateMutability": "view",
      "type": "function"
    },
    {
      "inputs": [],
      "name": "balancerV3Vault",
      "outputs": [
        {
          "internalType": "contract IVaultV3",
          "name": "",
          "type": "address"
        }
      ],
      "stateMutability": "view",
      "type": "function"
    },
    {
      "inputs": [
        {
          "internalType": "string",
          "name": "",
          "type": "string"
        }
      ],
      "name": "gateways",
      "outputs": [
        {
          "internalType": "contract IGateway",
          "name": "",
          "type": "address"
        }
      ],
      "stateMutability": "view",
      "type": "function"
    },
    {
      "inputs": [],
      "name": "owner",
      "outputs": [
        {
          "internalType": "address",
          "name": "",
          "type": "address"
        }
      ],
      "stateMutability": "view",
      "type": "function"
    },
    {
      "inputs": [
        {
          "components": [
            {
              "internalType": "string",
              "name": "protocolName",
              "type": "string"
            },
            {
              "internalType": "bytes",
              "name": "data",
              "type": "bytes"
            }
          ],
          "internalType": "struct ProtocolTypes.ProtocolInstruction[]",
          "name": "instructions",
          "type": "tuple[]"
        }
      ],
      "name": "processProtocolInstructions",
      "outputs": [],
      "stateMutability": "nonpayable",
      "type": "function"
    },
    {
      "inputs": [
        {
          "internalType": "contract IERC20[]",
          "name": "tokens",
          "type": "address[]"
        },
        {
          "internalType": "uint256[]",
          "name": "amounts",
          "type": "uint256[]"
        },
        {
          "internalType": "uint256[]",
          "name": "feeAmounts",
          "type": "uint256[]"
        },
        {
          "internalType": "bytes",
          "name": "userData",
          "type": "bytes"
        }
      ],
      "name": "receiveFlashLoan",
      "outputs": [],
      "stateMutability": "nonpayable",
      "type": "function"
    },
    {
      "inputs": [
        {
          "internalType": "bytes",
          "name": "userData",
          "type": "bytes"
        }
      ],
      "name": "receiveFlashLoanV3",
      "outputs": [],
      "stateMutability": "nonpayable",
      "type": "function"
    },
    {
      "inputs": [],
      "name": "renounceOwnership",
      "outputs": [],
      "stateMutability": "nonpayable",
      "type": "function"
    },
    {
      "inputs": [
        {
          "internalType": "address",
          "name": "provider",
          "type": "address"
        }
      ],
      "name": "setBalancerV2",
      "outputs": [],
      "stateMutability": "nonpayable",
      "type": "function"
    },
    {
      "inputs": [
        {
          "internalType": "address",
          "name": "vault",
          "type": "address"
        }
      ],
      "name": "setBalancerV3",
      "outputs": [],
      "stateMutability": "nonpayable",
      "type": "function"
    },
    {
      "inputs": [
        {
          "internalType": "address",
          "name": "newOwner",
          "type": "address"
        }
      ],
      "name": "transferOwnership",
      "outputs": [],
      "stateMutability": "nonpayable",
      "type": "function"
    }
  ],
  "transactionHash": "0x694b760d79a74d4e6f9d7b7642e085c8866968221a2241ae142a96b43112a4f1",
  "args": [
    "0x0BE61223F99E57b8b8B7033a77B54Adc7f7cF027"
  ],
  "numDeployments": 2,
  "solcInputHash": "01716f1640dc968dffdecb0d382e734d",
  "bytecode": "0x6080604052348015600e575f5ffd5b5060405161481a38038061481a833981016040819052602b9160b8565b806001600160a01b038116605857604051631e4fbdf760e01b81525f600482015260240160405180910390fd5b605f816069565b50506001805560e3565b5f80546001600160a01b038381166001600160a01b0319831681178455604051919092169283917f8be0079c531659141344cd1fd0a4f28419497f9722a3daafe3b4186f6b6457e09190a35050565b5f6020828403121560c7575f5ffd5b81516001600160a01b038116811460dc575f5ffd5b9392505050565b61472a806100f05f395ff3fe608060405234801561000f575f5ffd5b50600436106100e5575f3560e01c8063d7ff41bf11610088578063e851130311610063578063e8511303146101e7578063f04f2707146101fa578063f0dbeea51461020d578063f2fde38b14610220575f5ffd5b8063d7ff41bf1461018d578063db236a1f146101a0578063e30b155e146101d4575f5ffd5b8063715018a6116100c3578063715018a6146101415780638da5cb5b14610149578063a6ed7be314610159578063bf11f4af1461017a575f5ffd5b80630acefd35146100e957806310c0a1571461011957806328c184161461012c575b5f5ffd5b6003546100fc906001600160a01b031681565b6040516001600160a01b0390911681526020015b60405180910390f35b6002546100fc906001600160a01b031681565b61013f61013a3660046130b9565b610233565b005b61013f61025c565b5f546001600160a01b03166100fc565b61016c6101673660046130d4565b61026f565b604051610110929190613171565b61013f61018836600461325e565b610474565b61016c61019b3660046132dc565b610664565b6100fc6101ae36600461347a565b80516020818301810180516004825292820191909301209152546001600160a01b031681565b61013f6101e23660046134b3565b610cf1565b61013f6101f53660046130b9565b610dbb565b61013f6102083660046134e6565b610de1565b61013f61021b3660046135b0565b610f3d565b61013f61022e3660046130b9565b610f9b565b61023b610fd5565b600280546001600160a01b0319166001600160a01b03831617905550565b50565b610264610fd5565b61026d5f611001565b565b6060805f805b848110156102d5576002868683818110610291576102916135f6565b90506080020160600160208101906102a99190613616565b60058111156102ba576102ba6135e2565b036102cd57816102c981613645565b9250505b600101610275565b50806001600160401b038111156102ee576102ee61332e565b604051908082528060200260200182016040528015610317578160200160208202803683370190505b509250806001600160401b038111156103325761033261332e565b60405190808252806020026020018201604052801561036557816020015b60608152602001906001900390816103505790505b5091505f805b8581101561046a5736878783818110610386576103866135f6565b608002919091019150600290506103a36080830160608401613616565b60058111156103b4576103b46135e2565b03610461576103c960408201602083016130b9565b8684815181106103db576103db6135f6565b6001600160a01b039290921660209283029190910182015260408051306024820152833560448083019190915282518083039091018152606490910190915290810180516001600160e01b031663095ea7b360e01b1790528551869085908110610447576104476135f6565b6020026020010181905250828061045d90613645565b9350505b5060010161036b565b5050509250929050565b600354600160a01b900460ff166104cb5760405162461bcd60e51b8152602060048201526016602482015275119b185cda081b1bd85b881b9bdd08195b98589b195960521b60448201526064015b60405180910390fd5b6003546001600160a01b031633146105255760405162461bcd60e51b815260206004820181905260248201527f556e617574686f72697a656420666c617368206c6f616e2070726f766964657260448201526064016104c2565b5f806105338385018561365d565b90925090506001600160a01b0382161580159061054f57505f81115b156105bc5760035460405163ae63932960e01b81526001600160a01b038481166004830152306024830152604482018490529091169063ae639329906064015f604051808303815f87803b1580156105a5575f5ffd5b505af11580156105b7573d5f5f3e3d5ffd5b505050505b6105c68484611050565b6001600160a01b038216158015906105dd57505f81115b1561065e576003546105fc906001600160a01b038481169116836111d2565b6003546040516315afd40960e01b81526001600160a01b03848116600483015260248201849052909116906315afd409906044015f604051808303815f87803b158015610647575f5ffd5b505af1158015610659573d5f5f3e3d5ffd5b505050505b50505050565b6060805f846001600160401b038111156106805761068061332e565b6040519080825280602002602001820160405280156106a9578160200160208202803683370190505b5090505f856001600160401b038111156106c5576106c561332e565b6040519080825280602002602001820160405280156106f857816020015b60608152602001906001900390816106e35790505b5090505f805b87811015610bbd5736898983818110610719576107196135f6565b905060200281019061072b9190613687565b905060405160200161073c906136a5565b60408051601f19818403018152919052805160209091012061075e82806136c5565b60405160200161076f929190613707565b60405160208183030381529060405280519060200120036108ea575f61079860208301836136c5565b8101906107a59190613735565b90506002816060015160058111156107bf576107bf6135e2565b1480156107e15750886001600160a01b031681604001516001600160a01b0316145b156108765780602001518685815181106107fd576107fd6135f6565b6001600160a01b039290921660209283029190910182015281516040805130602482015260448082019390935281518082039093018352606401905290810180516001600160e01b031663095ea7b360e01b1790528551869086908110610866576108666135f6565b60200260200101819052506108d6565b5f868581518110610889576108896135f6565b60200260200101906001600160a01b031690816001600160a01b03168152505060405180602001604052805f8152508585815181106108ca576108ca6135f6565b60200260200101819052505b836108e081613645565b9450505050610bb5565b5f60046108f783806136c5565b604051610905929190613793565b908152604051908190036020019020546001600160a01b0316905080610938575f868581518110610889576108896135f6565b5f61094660208401846136c5565b81019061095391906137c4565b6040805160018082528183019092529192505f9190816020015b6109ac6040805160c0810182525f808252602080830182905282840182905260608084018390526080840152835190810190935282529060a082015290565b81526020019060019003908161096d57905050905081815f815181106109d4576109d46135f6565b60200260200101819052505f5f846001600160a01b03166317c2a46b848f6040518363ffffffff1660e01b8152600401610a0f929190613882565b5f60405180830381865afa158015610a29573d5f5f3e3d5ffd5b505050506040513d5f823e601f3d908101601f19168201604052610a509190810190613a6c565b915091505f8251118015610a8f57505f6001600160a01b0316825f81518110610a7b57610a7b6135f6565b60200260200101516001600160a01b031614155b8015610ab457505f815f81518110610aa957610aa96135f6565b602002602001015151115b15610b4157815f81518110610acb57610acb6135f6565b60200260200101518a8981518110610ae557610ae56135f6565b60200260200101906001600160a01b031690816001600160a01b031681525050805f81518110610b1757610b176135f6565b6020026020010151898981518110610b3157610b316135f6565b6020026020010181905250610ba1565b5f8a8981518110610b5457610b546135f6565b60200260200101906001600160a01b031690816001600160a01b03168152505060405180602001604052805f815250898981518110610b9557610b956135f6565b60200260200101819052505b87610bab81613645565b9850505050505050505b6001016106fe565b50806001600160401b03811115610bd657610bd661332e565b604051908082528060200260200182016040528015610bff578160200160208202803683370190505b509450806001600160401b03811115610c1a57610c1a61332e565b604051908082528060200260200182016040528015610c4d57816020015b6060815260200190600190039081610c385790505b5093505f5b81811015610ce557838181518110610c6c57610c6c6135f6565b6020026020010151868281518110610c8657610c866135f6565b60200260200101906001600160a01b031690816001600160a01b031681525050828181518110610cb857610cb86135f6565b6020026020010151858281518110610cd257610cd26135f6565b6020908102919091010152600101610c52565b50505050935093915050565b610cf9610fd5565b5f6001600160a01b031660048484604051610d15929190613793565b908152604051908190036020019020546001600160a01b031614610d745760405162461bcd60e51b81526020600482015260166024820152754761746577617920616c72656164792065786973747360501b60448201526064016104c2565b8060048484604051610d87929190613793565b90815260405190819003602001902080546001600160a01b03929092166001600160a01b0319909216919091179055505050565b610dc3610fd5565b600380546001600160a01b0319166001600160a01b03831617905550565b600354600160a01b900460ff16610e335760405162461bcd60e51b8152602060048201526016602482015275119b185cda081b1bd85b881b9bdd08195b98589b195960521b60448201526064016104c2565b6002546001600160a01b03163314610e8d5760405162461bcd60e51b815260206004820181905260248201527f556e617574686f72697a656420666c617368206c6f616e2070726f766964657260448201526064016104c2565b610e978282611050565b5f5b87811015610f32575f858583818110610eb457610eb46135f6565b90506020020135888884818110610ecd57610ecd6135f6565b90506020020135610ede9190613b31565b600254909150610f29906001600160a01b0316828c8c86818110610f0457610f046135f6565b9050602002016020810190610f1991906130b9565b6001600160a01b031691906111d2565b50600101610e99565b505050505050505050565b610f856040518060600160405280603481526020016146956034913960408051808201909152600e81526d696e737472756374696f6e28732960901b60208201528390611231565b610f8f8282611278565b610f97611394565b5050565b610fa3610fd5565b6001600160a01b038116610fcc57604051631e4fbdf760e01b81525f60048201526024016104c2565b61025981611001565b5f546001600160a01b0316331461026d5760405163118cdaa760e01b81523360048201526024016104c2565b5f80546001600160a01b038381166001600160a01b0319831681178455604051919092169283917f8be0079c531659141344cd1fd0a4f28419497f9722a3daafe3b4186f6b6457e09190a35050565b6110716040518060600160405280602e815260200161452a602e9139611a4d565b5f6110885f51602061424b5f395f51905f52611a90565b8051909150156111c5575f5f828060200190518101906110a89190613b44565b915091506110d76040518060600160405280602481526020016141d560249139836001600160a01b0316611aee565b6110f960405180606001604052806025815260200161441a6025913982611aee565b6040805160018082528183019092525f91816020015b604080518082019091525f808252602082015281526020019060019003908161110f5790505090506040518060400160405280846001600160a01b0316815260200183815250815f81518110611167576111676135f6565b602002602001018190525061117b81611b33565b61119c6040518060600160405280603d815260200161426b603d9139611a4d565b6111c15f51602061424b5f395f51905f5260405180602001604052805f815250611c82565b5050505b6111cd611394565b505050565b6040516001600160a01b038381166024830152604482018390526111cd91859182169063a9059cbb906064015b604051602081830303815290604052915060e01b6020820180516001600160e01b038381831617835250505050611ce3565b6111cd83838360405160240161124993929190613b70565b60408051601f198184030181529190526020810180516001600160e01b0316635970e08960e01b179052611d44565b5f816001600160401b038111156112915761129161332e565b6040519080825280602002602001820160405280156112d657816020015b60408051808201909152606080825260208201528152602001906001900390816112af5790505b5090505f5b8281101561134a578383826112f1600183613ba4565b6112fb9190613ba4565b81811061130a5761130a6135f6565b905060200281019061131c9190613687565b61132590613bb7565b828281518110611337576113376135f6565b60209081029190910101526001016112db565b506111cd7f33a7f7e91c7e5e97e4035e86e424aaeb97691c852dc81d823520f664cc2ca71c826040516020016113809190613c23565b604051602081830303815290604052611c82565b5f5f61139e611d4d565b81515191935091505f036113cd57610f9760405180606001604052806034815260200161458060349139611a4d565b5f5b6113f16040518060600160405280602e815260200161443f602e913982611aee565b6114336040518060400160405280601981526020017f4b6170616e526f757465723a2070726f746f636f6c4e616d6500000000000000815250845f0151611e44565b6114776040518060400160405280601881526020017f4b6170616e526f757465723a2064617461206c656e6774680000000000000000815250846020015151611aee565b5f611480611e89565b90506114a5604051806060016040528060328152602001614614603291398251611aee565b5f5b81518110156115a55761152a604051806040016040528060128152602001714b6170616e526f757465723a205554584f5b60701b81525082604051806040016040528060078152602001662e903a37b5b2b760c91b815250858581518110611511576115116135f6565b60200260200101515f01516001600160a01b0316611f1b565b61159d604051806040016040528060128152602001714b6170616e526f757465723a205554584f5b60701b81525082604051806040016040528060088152602001671748185b5bdd5b9d60c21b81525085858151811061158c5761158c6135f6565b602002602001015160200151611f1b565b6001016114a7565b506040516020016115b5906136a5565b60408051601f19818403018152908290528051602091820120865190926115dc9201613cad565b6040516020818303038152906040528051906020012003611658576116186040518060600160405280602a81526020016143c3602a9139611a4d565b5f61162285611f64565b905080156116525761164b6040518060600160405280603c81526020016142f4603c9139611a4d565b5050505050565b506118be565b61167b60405180606001604052806038815260200161448f603891398551611e44565b5f6004855f015160405161168f9190613cd6565b90815260408051918290036020908101832054838301909252601c83527f4b6170616e526f757465723a2067617465776179206164647265737300000000908301526001600160a01b031691506116e69082611aee565b6001600160a01b038116611753576117176040518060600160405280603381526020016145b4603391398651611e44565b60405162461bcd60e51b815260206004820152601160248201527011d85d195dd85e481b9bdd08199bdd5b99607a1b60448201526064016104c2565b5f61175c611e89565b90506117cb604051806040016040528060148152602001734b6170616e526f757465723a2070617373696e6760601b81525082516040518060400160405280601881526020017f696e707574205554584f28732920746f20676174657761790000000000000000815250611231565b602086015160405163ae4be46d60e01b81525f916001600160a01b0385169163ae4be46d916117ff91869190600401613d30565b5f604051808303815f875af115801561181a573d5f5f3e3d5ffd5b505050506040513d5f823e601f3d908101601f191682016040526118419190810190613d5d565b90506118aa6040518060400160405280601d81526020017f4b6170616e526f757465723a20676174657761792072657475726e656400000081525082516040518060400160405280600e81526020016d6f7574707574205554584f28732960901b815250611231565b8051156118ba576118ba81611b33565b5050505b5f6118c7611e89565b90506118ec6040518060600160405280602981526020016142cb602991398251611aee565b5f5b81518110156119c257611958604051806040016040528060128152602001714b6170616e526f757465723a205554584f5b60701b81525082604051806040016040528060078152602001662e903a37b5b2b760c91b815250858581518110611511576115116135f6565b6119ba604051806040016040528060128152602001714b6170616e526f757465723a205554584f5b60701b81525082604051806040016040528060088152602001671748185b5bdd5b9d60c21b81525085858151811061158c5761158c6135f6565b6001016118ee565b5083156119f1576119ea6040518060600160405280602281526020016143a160229139611a4d565b5050611a13565b826119fb81613645565b935050611a06611d4d565b90955093506113cf915050565b6111cd6040518060400160405280601f81526020017f4b6170616e526f757465723a2072756e537461636b20636f6d706c65746564008152505b61025981604051602401611a619190613cad565b60408051601f198184030181529190526020810180516001600160e01b031663104c13eb60e21b179052611d44565b604051815c8082526020808301908204601f83165f5b82811015611ac357600181880181015c6020830286015201611aa6565b508015611ad9578160010186015c602083028401525b5050601f91909101601f191601604052919050565b610f978282604051602401611b04929190613e11565b60408051601f198184030181529190526020810180516001600160e01b0316632d839cb360e21b179052611d44565b5f611b3c611e89565b90505f82518251611b4d9190613b31565b6001600160401b03811115611b6457611b6461332e565b604051908082528060200260200182016040528015611ba857816020015b604080518082019091525f8082526020820152815260200190600190039081611b825790505b5090505f5b8251811015611bf557828181518110611bc857611bc86135f6565b6020026020010151828281518110611be257611be26135f6565b6020908102919091010152600101611bad565b505f5b8351811015611c4c57838181518110611c1357611c136135f6565b602002602001015182828551611c299190613b31565b81518110611c3957611c396135f6565b6020908102919091010152600101611bf8565b506111cd7f5f92431fdc2b6bf66f91a326fa06b3fad6b4ab24047c9be12b7f412fbfbaa1ec826040516020016113809190613e32565b805180835d601f811690602083810191045f5b81811015611cb357602081028301518160010187015d600101611c95565b50821561164b57602081028201516001846020036101000a0319808216915050808260010187015d505050505050565b5f611cf76001600160a01b03841683612770565b905080515f14158015611d1b575080806020019051810190611d199190613e44565b155b156111cd57604051635274afe760e01b81526001600160a01b03841660048201526024016104c2565b61025981612786565b60408051808201909152606080825260208201525f5f611d8c7f33a7f7e91c7e5e97e4035e86e424aaeb97691c852dc81d823520f664cc2ca71c611a90565b905080515f03611d9f5750909160019150565b5f81806020019051810190611db49190613e63565b80519091505f819003611dcd5750929360019350915050565b81611dd9600183613ba4565b81518110611de957611de96135f6565b60200260200101519450600181038252611e2e7f33a7f7e91c7e5e97e4035e86e424aaeb97691c852dc81d823520f664cc2ca71c836040516020016113809190613c23565b611e39600182613ba4565b5f1493505050509091565b610f978282604051602401611e5a929190613f7e565b60408051601f198184030181529190526020810180516001600160e01b0316634b5c427760e01b179052611d44565b60605f611eb57f5f92431fdc2b6bf66f91a326fa06b3fad6b4ab24047c9be12b7f412fbfbaa1ec611a90565b905080515f03611f0157604080515f8082526020820190925290611efa565b604080518082019091525f8082526020820152815260200190600190039081611ed45790505b5091505090565b80806020019051810190611f159190613d5d565b91505090565b61065e84848484604051602401611f359493929190613f90565b60408051601f198184030181529190526020810180516001600160e01b031663c67ea9d160e01b179052611d44565b5f5f8260200151806020019051810190611f7e919061402a565b9050611fb76040518060600160405280602c81526020016144c7602c913982606001516005811115611fb257611fb26135e2565b611aee565b611fe66040518060600160405280602d81526020016143ed602d913982602001516001600160a01b0316611aee565b6120096040518060600160405280602e8152602001614667602e91398251611aee565b6120386040518060600160405280602c81526020016146c9602c913982604001516001600160a01b0316611aee565b5f8160600151600581111561204f5761204f6135e2565b036120875761207560405180606001604052806022815260200161422960229139611a4d565b61207e816127a5565b50600192915050565b60018160600151600581111561209f5761209f6135e2565b036120ce576120c560405180606001604052806022815260200161446d60229139611a4d565b61207e81612801565b6002816060015160058111156120e6576120e66135e2565b03612137576121296040518060400160405280602081526020017f4b6170616e526f757465723a20657865637574696e672050756c6c546f6b656e815250611a4d565b61213281612851565b612768565b60038160600151600581111561214f5761214f6135e2565b0361219b576121926040518060400160405280602081526020017f4b6170616e526f757465723a20657865637574696e672050757368546f6b656e815250611a4d565b61213283612a57565b6004816060015160058111156121b3576121b36135e2565b03612285576121f66040518060400160405280601f81526020017f4b6170616e526f757465723a20657865637574696e6720546f4f757470757400815250611a4d565b6040805160018082528183019092525f91816020015b604080518082019091525f808252602082015281526020019060019003908161220c579050509050604051806040016040528083602001516001600160a01b03168152602001835f0151815250815f8151811061226b5761226b6135f6565b602002602001018190525061227f81611b33565b50612768565b60058160600151600581111561229d5761229d6135e2565b03612768576122e06040518060400160405280601e81526020017f4b6170616e526f757465723a20657865637574696e6720417070726f76650000815250611a4d565b5f5f84602001518060200190518101906122fa9190614066565b925092505061232160405180606001604052806025815260200161437c6025913983611e44565b612344604051806060016040528060218152602001614646602191398251611aee565b5f61234d611e89565b90508051825f0151106123975760405162461bcd60e51b8152602060048201526012602482015271082e0e0e4deecca7440c4c2c840d2dcc8caf60731b60448201526064016104c2565b5f6040516020016123a7906136a5565b60405160208183030381529060405280519060200120846040516020016123ce9190613cad565b60405160208183030381529060405280519060200120036124125730905061240d60405180606001604052806027815260200161435560279139611a4d565b612470565b6004846040516124229190613cd6565b90815260200160405180910390205f9054906101000a90046001600160a01b0316905061247060405180606001604052806028815260200161455860289139826001600160a01b0316611aee565b6001600160a01b0381166124c65760405162461bcd60e51b815260206004820152601960248201527f417070726f76653a20746172676574206e6f7420666f756e640000000000000060448201526064016104c2565b61252d6040518060400160405280601c81526020017f4b6170616e526f757465723a20417070726f7665202d20746f6b656e0000000081525083855f015181518110612514576125146135f6565b60200260200101515f01516001600160a01b0316611aee565b61258c6040518060400160405280601d81526020017f4b6170616e526f757465723a20417070726f7665202d20616d6f756e7400000081525083855f01518151811061257b5761257b6135f6565b602002602001015160200151611aee565b81835f0151815181106125a1576125a16135f6565b60209081029190910101515160405163095ea7b360e01b81526001600160a01b0383811660048301525f60248301529091169063095ea7b3906044016020604051808303815f875af11580156125f9573d5f5f3e3d5ffd5b505050506040513d601f19601f8201168201806040525081019061261d9190613e44565b5081835f015181518110612633576126336135f6565b60200260200101515f01516001600160a01b031663095ea7b38284865f015181518110612662576126626135f6565b6020026020010151602001516040518363ffffffff1660e01b815260040161269f9291906001600160a01b03929092168252602082015260400190565b6020604051808303815f875af11580156126bb573d5f5f3e3d5ffd5b505050506040513d601f19601f820116820180604052508101906126df9190613e44565b506040805160018082528183019092525f91816020015b604080518082019091525f80825260208201528152602001906001900390816126f657905050905060405180604001604052805f6001600160a01b031681526020015f815250815f8151811061274e5761274e6135f6565b602002602001018190525061276281611b33565b50505050505b505f92915050565b606061277d83835f612d15565b90505b92915050565b5f6a636f6e736f6c652e6c6f6790505f5f835160208501845afa505050565b6127e45f51602061424b5f395f51905f528260200151835f01516040516020016113809291906001600160a01b03929092168252602082015260400190565b60208082015182516040805193840190525f835261025992612db0565b6128405f51602061424b5f395f51905f528260200151835f01516040516020016113809291906001600160a01b03929092168252602082015260400190565b6102598160200151825f0151612ec8565b604081015181906001600160a01b031633146128a05760405162461bcd60e51b815260206004820152600e60248201526d139bdd08185d5d1a1bdc9a5e995960921b60448201526064016104c2565b6128ef6040518060600160405280602581526020016143306025913983516040805180820182526009815268333937b6903ab9b2b960b91b6020820152908601516001600160a01b0316611f1b565b61293b6040518060400160405280601e81526020017f4b6170616e526f757465723a2050756c6c546f6b656e202d20746f6b656e000081525083602001516001600160a01b0316611aee565b8151602083015161295b916001600160a01b039091169033903090612fd7565b6040805160018082528183019092525f91816020015b604080518082019091525f8082526020820152815260200190600190039081612971579050509050604051806040016040528084602001516001600160a01b03168152602001845f0151815250815f815181106129d0576129d06135f6565b60200260200101819052506129e481611b33565b6111cd6040518060600160405280603081526020016141f960309139825f81518110612a1257612a126135f6565b60200260200101515f01516001600160a01b031660405180604001604052806006815260200165185b5bdd5b9d60d21b815250845f8151811061158c5761158c6135f6565b5f8160200151806020019051810190612a7091906140c1565b915050612a966040518060600160405280602381526020016142a8602391398251611aee565b5f612a9f611e89565b90508051825f015110612aeb5760405162461bcd60e51b81526020600482015260146024820152730a0eae6d0a8ded6cadc7440c4c2c840d2dcc8caf60631b60448201526064016104c2565b5f81835f015181518110612b0157612b016135f6565b60200260200101519050612b566040518060400160405280601e81526020017f4b6170616e526f757465723a2050757368546f6b656e202d20746f6b656e0000815250825f01516001600160a01b0316611aee565b612b996040518060400160405280601f81526020017f4b6170616e526f757465723a2050757368546f6b656e202d20616d6f756e74008152508260200151611aee565b80516001600160a01b0316612be85760405162461bcd60e51b8152602060048201526015602482015274283ab9b42a37b5b2b71d103d32b937903a37b5b2b760591b60448201526064016104c2565b602081015115612c8c57612c19604080516080810182525f8082526020820181905291810182905290606082015290565b8460200151806020019051810190612c3191906140c1565b5080915050612c656040518060600160405280602d81526020016145e7602d913982604001516001600160a01b0316611aee565b604081015160208301518351612c86926001600160a01b03909116916111d2565b50612cad565b612cad6040518060600160405280603781526020016144f360379139611a4d565b604080518082019091525f8082526020820152835183518491908110612cd557612cd56135f6565b602002602001018190525061065e7f5f92431fdc2b6bf66f91a326fa06b3fad6b4ab24047c9be12b7f412fbfbaa1ec836040516020016113809190613e32565b606081471015612d3a5760405163cd78605960e01b81523060048201526024016104c2565b5f5f856001600160a01b03168486604051612d559190613cd6565b5f6040518083038185875af1925050503d805f8114612d8f576040519150601f19603f3d011682016040523d82523d5f602084013e612d94565b606091505b5091509150612da4868383613010565b925050505b9392505050565b6003805460ff60a01b1916600160a01b1790556040805160018082528183019092525f916020808301908036833701905050905083815f81518110612df757612df76135f6565b6001600160a01b0392909216602092830291909101909101526040805160018082528183019092525f9181602001602082028036833701905050905083815f81518110612e4657612e466135f6565b6020908102919091010152600254604051632e1c224f60e11b81526001600160a01b0390911690635c38449e90612e879030908690869089906004016140f4565b5f604051808303815f87803b158015612e9e575f5ffd5b505af1158015612eb0573d5f5f3e3d5ffd5b50506003805460ff60a01b1916905550505050505050565b6003805460ff60a01b1916600160a01b179055604080516001600160a01b0384166020820152808201839052815180820383018152606082019092525f9063bf11f4af60e01b90612f1d908490608401613cad565b60408051601f198184030181529181526020820180516001600160e01b03166001600160e01b03199094169390931790925260035491516348c8949160e01b81529092506001600160a01b03909116906348c8949190612f81908490600401613cad565b5f604051808303815f875af1158015612f9c573d5f5f3e3d5ffd5b505050506040513d5f823e601f3d908101601f19168201604052612fc391908101906141a3565b50506003805460ff60a01b19169055505050565b6040516001600160a01b03848116602483015283811660448301526064820183905261065e9186918216906323b872dd906084016111ff565b606082613025576130208261306c565b612da9565b815115801561303c57506001600160a01b0384163b155b1561306557604051639996b31560e01b81526001600160a01b03851660048201526024016104c2565b5080612da9565b80511561307c5780518082602001fd5b604051630a12f52160e11b815260040160405180910390fd5b6001600160a01b0381168114610259575f5ffd5b80356130b481613095565b919050565b5f602082840312156130c9575f5ffd5b8135612da981613095565b5f5f602083850312156130e5575f5ffd5b82356001600160401b038111156130fa575f5ffd5b8301601f8101851361310a575f5ffd5b80356001600160401b0381111561311f575f5ffd5b8560208260071b8401011115613133575f5ffd5b6020919091019590945092505050565b5f81518084528060208401602086015e5f602082860101526020601f19601f83011685010191505092915050565b604080825283519082018190525f9060208501906060840190835b818110156131b35783516001600160a01b031683526020938401939092019160010161318c565b50508381036020850152809150845180825260208201925060208160051b830101602087015f5b8381101561320c57601f198584030186526131f6838351613143565b60209687019690935091909101906001016131da565b509098975050505050505050565b5f5f83601f84011261322a575f5ffd5b5081356001600160401b03811115613240575f5ffd5b602083019150836020828501011115613257575f5ffd5b9250929050565b5f5f6020838503121561326f575f5ffd5b82356001600160401b03811115613284575f5ffd5b6132908582860161321a565b90969095509350505050565b5f5f83601f8401126132ac575f5ffd5b5081356001600160401b038111156132c2575f5ffd5b6020830191508360208260051b8501011115613257575f5ffd5b5f5f5f604084860312156132ee575f5ffd5b83356001600160401b03811115613303575f5ffd5b61330f8682870161329c565b909450925050602084013561332381613095565b809150509250925092565b634e487b7160e01b5f52604160045260245ffd5b604051608081016001600160401b03811182821017156133645761336461332e565b60405290565b604051602081016001600160401b03811182821017156133645761336461332e565b60405160c081016001600160401b03811182821017156133645761336461332e565b604080519081016001600160401b03811182821017156133645761336461332e565b604051601f8201601f191681016001600160401b03811182821017156133f8576133f861332e565b604052919050565b5f6001600160401b038211156134185761341861332e565b50601f01601f191660200190565b5f82601f830112613435575f5ffd5b8135602083015f61344d61344884613400565b6133d0565b9050828152858383011115613460575f5ffd5b828260208301375f92810160200192909252509392505050565b5f6020828403121561348a575f5ffd5b81356001600160401b0381111561349f575f5ffd5b6134ab84828501613426565b949350505050565b5f5f5f604084860312156134c5575f5ffd5b83356001600160401b038111156134da575f5ffd5b61330f8682870161321a565b5f5f5f5f5f5f5f5f6080898b0312156134fd575f5ffd5b88356001600160401b03811115613512575f5ffd5b61351e8b828c0161329c565b90995097505060208901356001600160401b0381111561353c575f5ffd5b6135488b828c0161329c565b90975095505060408901356001600160401b03811115613566575f5ffd5b6135728b828c0161329c565b90955093505060608901356001600160401b03811115613590575f5ffd5b61359c8b828c0161321a565b999c989b5096995094979396929594505050565b5f5f602083850312156135c1575f5ffd5b82356001600160401b038111156135d6575f5ffd5b6132908582860161329c565b634e487b7160e01b5f52602160045260245ffd5b634e487b7160e01b5f52603260045260245ffd5b60068110610259575f5ffd5b5f60208284031215613626575f5ffd5b8135612da98161360a565b634e487b7160e01b5f52601160045260245ffd5b5f6001820161365657613656613631565b5060010190565b5f5f6040838503121561366e575f5ffd5b823561367981613095565b946020939093013593505050565b5f8235603e1983360301811261369b575f5ffd5b9190910192915050565b6020808252600690820152653937baba32b960d11b604082015260600190565b5f5f8335601e198436030181126136da575f5ffd5b8301803591506001600160401b038211156136f3575f5ffd5b602001915036819003821315613257575f5ffd5b60208152816020820152818360408301375f818301604090810191909152601f909201601f19160101919050565b5f6080828403128015613746575f5ffd5b5061374f613342565b82358152602083013561376181613095565b6020820152604083013561377481613095565b604082015260608301356137878161360a565b60608201529392505050565b818382375f9101908152919050565b5f602082840312156137b2575f5ffd5b6137ba61336a565b9135825250919050565b5f602082840312156137d4575f5ffd5b81356001600160401b038111156137e9575f5ffd5b820160c081850312156137fa575f5ffd5b61380261338c565b813560078110613810575f5ffd5b815261381e602083016130a9565b602082015261382f604083016130a9565b60408201526060828101359082015260808201356001600160401b03811115613856575f5ffd5b61386286828501613426565b6080830152506138758560a084016137a2565b60a0820152949350505050565b5f604082016040835280855180835260608501915060608160051b8601019250602087015f5b8281101561395957868503605f1901845281518051600781106138d957634e487b7160e01b5f52602160045260245ffd5b86526020818101516001600160a01b03169087015260408082015190613909908801826001600160a01b03169052565b5060608101516060870152608081015160c0608088015261392d60c0880182613143565b905060a0820151915061394360a0880183519052565b95505060209384019391909101906001016138a8565b5050506001600160a01b0385166020850152509050612da9565b5f6001600160401b0382111561398b5761398b61332e565b5060051b60200190565b5f82601f8301126139a4575f5ffd5b8151602083015f6139b761344884613400565b90508281528583830111156139ca575f5ffd5b8282602083015e5f92810160200192909252509392505050565b5f82601f8301126139f3575f5ffd5b8151613a0161344882613973565b8082825260208201915060208360051b860101925085831115613a22575f5ffd5b602085015b83811015613a625780516001600160401b03811115613a44575f5ffd5b613a53886020838a0101613995565b84525060209283019201613a27565b5095945050505050565b5f5f60408385031215613a7d575f5ffd5b82516001600160401b03811115613a92575f5ffd5b8301601f81018513613aa2575f5ffd5b8051613ab061344882613973565b8082825260208201915060208360051b850101925087831115613ad1575f5ffd5b6020840193505b82841015613afc578351613aeb81613095565b825260209384019390910190613ad8565b8095505050505060208301516001600160401b03811115613b1b575f5ffd5b613b27858286016139e4565b9150509250929050565b8082018082111561278057612780613631565b5f5f60408385031215613b55575f5ffd5b8251613b6081613095565b6020939093015192949293505050565b606081525f613b826060830186613143565b8460208401528281036040840152613b9a8185613143565b9695505050505050565b8181038181111561278057612780613631565b5f60408236031215613bc7575f5ffd5b613bcf6133ae565b82356001600160401b03811115613be4575f5ffd5b613bf036828601613426565b82525060208301356001600160401b03811115613c0b575f5ffd5b613c1736828601613426565b60208301525092915050565b5f602082016020835280845180835260408501915060408160051b8601019250602086015f5b82811015613ca157603f198786030184528151805160408752613c6f6040880182613143565b9050602082015191508681036020880152613c8a8183613143565b965050506020938401939190910190600101613c49565b50929695505050505050565b602081525f61277d6020830184613143565b5f81518060208401855e5f93019283525090919050565b5f61277d8284613cbf565b5f8151808452602084019350602083015f5b82811015613d2657815180516001600160a01b031687526020908101518188015260409096019590910190600101613cf3565b5093949350505050565b604081525f613d426040830185613ce1565b8281036020840152613d548185613143565b95945050505050565b5f60208284031215613d6d575f5ffd5b81516001600160401b03811115613d82575f5ffd5b8201601f81018413613d92575f5ffd5b8051613da061344882613973565b8082825260208201915060208360061b850101925086831115613dc1575f5ffd5b6020840193505b82841015613b9a5760408488031215613ddf575f5ffd5b613de76133ae565b8451613df281613095565b8152602085810151818301529083526040909401939190910190613dc8565b604081525f613e236040830185613143565b90508260208301529392505050565b602081525f61277d6020830184613ce1565b5f60208284031215613e54575f5ffd5b81518015158114612da9575f5ffd5b5f60208284031215613e73575f5ffd5b81516001600160401b03811115613e88575f5ffd5b8201601f81018413613e98575f5ffd5b8051613ea661344882613973565b8082825260208201915060208360051b850101925086831115613ec7575f5ffd5b602084015b83811015613f735780516001600160401b03811115613ee9575f5ffd5b85016040818a03601f19011215613efe575f5ffd5b613f066133ae565b60208201516001600160401b03811115613f1e575f5ffd5b613f2d8b602083860101613995565b82525060408201516001600160401b03811115613f48575f5ffd5b613f578b602083860101613995565b6020830152508085525050602083019250602081019050613ecc565b509695505050505050565b604081525f613d426040830185613143565b608081525f613fa26080830187613143565b8560208401528281036040840152613fba8186613143565b91505082606083015295945050505050565b5f60808284031215613fdc575f5ffd5b613fe4613342565b825181526020830151909150613ff981613095565b6020820152604082015161400c81613095565b6040820152606082015161401f8161360a565b606082015292915050565b5f6080828403121561403a575f5ffd5b61277d8383613fcc565b5f60208284031215614054575f5ffd5b61405c61336a565b9151825250919050565b5f5f5f60c08486031215614078575f5ffd5b6140828585613fcc565b925060808401516001600160401b0381111561409c575f5ffd5b6140a886828701613995565b9250506140b88560a08601614044565b90509250925092565b5f5f60a083850312156140d2575f5ffd5b6140dc8484613fcc565b91506140eb8460808501614044565b90509250929050565b6001600160a01b03851681526080602080830182905285519183018290525f919086019060a0840190835b818110156141465783516001600160a01b031683526020938401939092019160010161411f565b50508381036040850152855180825260209182019250908601905f90815b81811015614182578351855260209485019490930192600101614164565b5050505082810360608401526141988185613143565b979650505050505050565b5f602082840312156141b3575f5ffd5b81516001600160401b038111156141c8575f5ffd5b6134ab8482850161399556fe4b6170616e526f757465723a205f6166746572466c6173684c6f616e202d20746f6b656e4b6170616e526f757465723a2050756c6c546f6b656e202d2063726561746564205554584f207769746820746f6b656e4b6170616e526f757465723a20657865637574696e6720466c6173684c6f616e5632fbcc350e8c7cb255d342ae5da51083bb8f263490869b1ee83b058578105a16024b6170616e526f757465723a205f6166746572466c6173684c6f616e202d2063726561746564205554584f2c20636f6e74696e75696e6720737461636b4b6170616e526f757465723a2050757368546f6b656e202d20696e707574496e6465784b6170616e526f757465723a205554584f20636f756e7420616674657220696e737472756374696f6e4b6170616e526f757465723a20726f7574657220696e737472756374696f6e2068616c7465642028666c617368206c6f616e2063616c6c6261636b294b6170616e526f757465723a2050756c6c546f6b656e202d207472616e7366657272696e674b6170616e526f757465723a20417070726f7665202d2074617267657420697320726f757465724b6170616e526f757465723a20417070726f7665202d2074617267657450726f746f636f6c4b6170616e526f757465723a20737461636b20656d7074792c20627265616b696e674b6170616e526f757465723a2070726f63657373696e6720726f7574657220696e737472756374696f6e4b6170616e526f757465723a2070726f63657373526f75746572496e737472756374696f6e202d20746f6b656e4b6170616e526f757465723a205f6166746572466c6173684c6f616e202d20616d6f756e744b6170616e526f757465723a2072756e537461636b202d2070726f63657373696e6720696e737472756374696f6e4b6170616e526f757465723a20657865637574696e6720466c6173684c6f616e56334b6170616e526f757465723a2070726f63657373696e672070726f746f636f6c20696e737472756374696f6e20666f7220676174657761794b6170616e526f757465723a2070726f63657373526f75746572496e737472756374696f6e202d20747970654b6170616e526f757465723a2050757368546f6b656e202d207a65726f20616d6f756e742c20736b697070696e67207472616e736665724b6170616e526f757465723a205f6166746572466c6173684c6f616e2063616c6c6261636b2072656365697665644b6170616e526f757465723a20417070726f7665202d2074617267657420697320676174657761794b6170616e526f757465723a2072756e537461636b202d20656d70747920696e737472756374696f6e2c2072657475726e696e674b6170616e526f757465723a204552524f52202d2067617465776179206e6f7420666f756e6420666f722070726f746f636f6c4b6170616e526f757465723a2050757368546f6b656e202d207472616e7366657272696e6720746f20757365724b6170616e526f757465723a2063757272656e74205554584f20636f756e74206265666f726520696e737472756374696f6e4b6170616e526f757465723a20417070726f7665202d20696e707574496e6465784b6170616e526f757465723a2070726f63657373526f75746572496e737472756374696f6e202d20616d6f756e744b6170616e526f757465723a2070726f6365737350726f746f636f6c496e737472756374696f6e732063616c6c656420776974684b6170616e526f757465723a2070726f63657373526f75746572496e737472756374696f6e202d2075736572a2646970667358221220da0008be99e344f555f2bf37c2d2c3e7d9029855d70575afd4e4ca06fccecc4864736f6c634300081e0033",
  "devdoc": {
    "errors": {
      "AddressEmptyCode(address)": [
        {
          "details": "There's no code at `target` (it is not a contract)."
        }
      ],
      "AddressInsufficientBalance(address)": [
        {
          "details": "The ETH balance of the account is not enough to perform the operation."
        }
      ],
      "FailedInnerCall()": [
        {
          "details": "A call to an address target failed. The target may have reverted."
        }
      ],
      "OwnableInvalidOwner(address)": [
        {
          "details": "The owner is not a valid owner account. (eg. `address(0)`)"
        }
      ],
      "OwnableUnauthorizedAccount(address)": [
        {
          "details": "The caller account is not authorized to perform an operation."
        }
      ],
      "ReentrancyGuardReentrantCall()": [
        {
          "details": "Unauthorized reentrant call."
        }
      ],
      "SafeERC20FailedOperation(address)": [
        {
          "details": "An operation with an ERC20 token failed."
        }
      ]
    },
    "kind": "dev",
    "methods": {
      "owner()": {
        "details": "Returns the address of the current owner."
      },
      "renounceOwnership()": {
        "details": "Leaves the contract without owner. It will not be possible to call `onlyOwner` functions. Can only be called by the current owner. NOTE: Renouncing ownership will leave the contract without an owner, thereby disabling any functionality that is only available to the owner."
      },
      "transferOwnership(address)": {
        "details": "Transfers ownership of the contract to a new account (`newOwner`). Can only be called by the current owner."
      }
    },
    "version": 1
  },
  "userdoc": {
    "kind": "user",
    "methods": {},
    "version": 1
  },
  "storageLayout": {
    "storage": [
      {
        "astId": 8,
        "contract": "contracts/v2/KapanRouter.sol:KapanRouter",
        "label": "_owner",
        "offset": 0,
        "slot": "0",
        "type": "t_address"
      },
      {
        "astId": 845,
        "contract": "contracts/v2/KapanRouter.sol:KapanRouter",
        "label": "_status",
        "offset": 0,
        "slot": "1",
        "type": "t_uint256"
      },
      {
        "astId": 3004,
        "contract": "contracts/v2/KapanRouter.sol:KapanRouter",
        "label": "balancerV2Vault",
        "offset": 0,
        "slot": "2",
        "type": "t_contract(IFlashLoanProvider)3405"
      },
      {
        "astId": 3007,
        "contract": "contracts/v2/KapanRouter.sol:KapanRouter",
        "label": "balancerV3Vault",
        "offset": 0,
        "slot": "3",
        "type": "t_contract(IVaultV3)3431"
      },
      {
        "astId": 3009,
        "contract": "contracts/v2/KapanRouter.sol:KapanRouter",
        "label": "flashLoanEnabled",
        "offset": 20,
        "slot": "3",
        "type": "t_bool"
      },
      {
        "astId": 952,
        "contract": "contracts/v2/KapanRouter.sol:KapanRouter",
        "label": "gateways",
        "offset": 0,
        "slot": "4",
        "type": "t_mapping(t_string_memory_ptr,t_contract(IGateway)3346)"
      }
    ],
    "types": {
      "t_address": {
        "encoding": "inplace",
        "label": "address",
        "numberOfBytes": "20"
      },
      "t_bool": {
        "encoding": "inplace",
        "label": "bool",
        "numberOfBytes": "1"
      },
      "t_contract(IFlashLoanProvider)3405": {
        "encoding": "inplace",
        "label": "contract IFlashLoanProvider",
        "numberOfBytes": "20"
      },
      "t_contract(IGateway)3346": {
        "encoding": "inplace",
        "label": "contract IGateway",
        "numberOfBytes": "20"
      },
      "t_contract(IVaultV3)3431": {
        "encoding": "inplace",
        "label": "contract IVaultV3",
        "numberOfBytes": "20"
      },
      "t_mapping(t_string_memory_ptr,t_contract(IGateway)3346)": {
        "encoding": "mapping",
        "key": "t_string_memory_ptr",
        "label": "mapping(string => contract IGateway)",
        "numberOfBytes": "32",
        "value": "t_contract(IGateway)3346"
      },
      "t_string_memory_ptr": {
        "encoding": "bytes",
        "label": "string",
        "numberOfBytes": "32"
      },
      "t_uint256": {
        "encoding": "inplace",
        "label": "uint256",
        "numberOfBytes": "32"
      }
    }
  }
}