{
  "address": "0xb809a1F843eB080DbaF6bD406dACBa4371dd6A13",
  "abi": [
    {
      "inputs": [
        {
          "internalType": "address",
          "name": "_owner",
          "type": "address"
        },
        {
          "internalType": "address",
          "name": "_router",
          "type": "address"
        },
        {
          "internalType": "address",
          "name": "_composableCoW",
          "type": "address"
        },
        {
          "internalType": "address",
          "name": "_settlement",
          "type": "address"
        },
        {
          "internalType": "address",
          "name": "_hooksTrampoline",
          "type": "address"
        }
      ],
      "stateMutability": "nonpayable",
      "type": "constructor"
    },
    {
      "inputs": [
        {
          "internalType": "address",
          "name": "target",
          "type": "address"
        }
      ],
      "name": "AddressEmptyCode",
      "type": "error"
    },
    {
      "inputs": [
        {
          "internalType": "address",
          "name": "account",
          "type": "address"
        }
      ],
      "name": "AddressInsufficientBalance",
      "type": "error"
    },
    {
      "inputs": [],
      "name": "CannotCancelMidExecution",
      "type": "error"
    },
    {
      "inputs": [],
      "name": "FailedInnerCall",
      "type": "error"
    },
    {
      "inputs": [],
      "name": "HookExecutionFailed",
      "type": "error"
    },
    {
      "inputs": [
        {
          "internalType": "address",
          "name": "expected",
          "type": "address"
        },
        {
          "internalType": "address",
          "name": "actual",
          "type": "address"
        }
      ],
      "name": "InstructionUserMismatch",
      "type": "error"
    },
    {
      "inputs": [],
      "name": "InvalidHandler",
      "type": "error"
    },
    {
      "inputs": [],
      "name": "InvalidOrderState",
      "type": "error"
    },
    {
      "inputs": [],
      "name": "NotHooksTrampoline",
      "type": "error"
    },
    {
      "inputs": [],
      "name": "OrderAlreadyExists",
      "type": "error"
    },
    {
      "inputs": [],
      "name": "OrderNotFound",
      "type": "error"
    },
    {
      "inputs": [
        {
          "internalType": "address",
          "name": "owner",
          "type": "address"
        }
      ],
      "name": "OwnableInvalidOwner",
      "type": "error"
    },
    {
      "inputs": [
        {
          "internalType": "address",
          "name": "account",
          "type": "address"
        }
      ],
      "name": "OwnableUnauthorizedAccount",
      "type": "error"
    },
    {
      "inputs": [],
      "name": "PreHookAlreadyExecuted",
      "type": "error"
    },
    {
      "inputs": [],
      "name": "PreHookNotExecuted",
      "type": "error"
    },
    {
      "inputs": [],
      "name": "ReentrancyGuardReentrantCall",
      "type": "error"
    },
    {
      "inputs": [
        {
          "internalType": "address",
          "name": "token",
          "type": "address"
        }
      ],
      "name": "SafeERC20FailedOperation",
      "type": "error"
    },
    {
      "inputs": [],
      "name": "Unauthorized",
      "type": "error"
    },
    {
      "inputs": [],
      "name": "ZeroAddress",
      "type": "error"
    },
    {
      "anonymous": false,
      "inputs": [
        {
          "indexed": true,
          "internalType": "bytes32",
          "name": "orderHash",
          "type": "bytes32"
        },
        {
          "indexed": false,
          "internalType": "uint256",
          "name": "chunkIndex",
          "type": "uint256"
        },
        {
          "indexed": false,
          "internalType": "uint256",
          "name": "sellAmount",
          "type": "uint256"
        },
        {
          "indexed": false,
          "internalType": "uint256",
          "name": "buyAmount",
          "type": "uint256"
        }
      ],
      "name": "ChunkExecuted",
      "type": "event"
    },
    {
      "anonymous": false,
      "inputs": [
        {
          "indexed": true,
          "internalType": "address",
          "name": "oldComposableCoW",
          "type": "address"
        },
        {
          "indexed": true,
          "internalType": "address",
          "name": "newComposableCoW",
          "type": "address"
        }
      ],
      "name": "ComposableCoWUpdated",
      "type": "event"
    },
    {
      "anonymous": false,
      "inputs": [
        {
          "indexed": true,
          "internalType": "address",
          "name": "oldTrampoline",
          "type": "address"
        },
        {
          "indexed": true,
          "internalType": "address",
          "name": "newTrampoline",
          "type": "address"
        }
      ],
      "name": "HooksTrampolineUpdated",
      "type": "event"
    },
    {
      "anonymous": false,
      "inputs": [
        {
          "indexed": true,
          "internalType": "bytes32",
          "name": "orderHash",
          "type": "bytes32"
        },
        {
          "indexed": true,
          "internalType": "address",
          "name": "user",
          "type": "address"
        }
      ],
      "name": "OrderCancelled",
      "type": "event"
    },
    {
      "anonymous": false,
      "inputs": [
        {
          "indexed": true,
          "internalType": "bytes32",
          "name": "orderHash",
          "type": "bytes32"
        },
        {
          "indexed": true,
          "internalType": "address",
          "name": "user",
          "type": "address"
        },
        {
          "indexed": false,
          "internalType": "uint256",
          "name": "totalExecuted",
          "type": "uint256"
        }
      ],
      "name": "OrderCompleted",
      "type": "event"
    },
    {
      "anonymous": false,
      "inputs": [
        {
          "indexed": true,
          "internalType": "bytes32",
          "name": "orderHash",
          "type": "bytes32"
        },
        {
          "indexed": true,
          "internalType": "address",
          "name": "user",
          "type": "address"
        },
        {
          "indexed": false,
          "internalType": "address",
          "name": "sellToken",
          "type": "address"
        },
        {
          "indexed": false,
          "internalType": "address",
          "name": "buyToken",
          "type": "address"
        },
        {
          "indexed": false,
          "internalType": "uint256",
          "name": "totalAmount",
          "type": "uint256"
        },
        {
          "indexed": false,
          "internalType": "uint256",
          "name": "chunkSize",
          "type": "uint256"
        }
      ],
      "name": "OrderCreated",
      "type": "event"
    },
    {
      "anonymous": false,
      "inputs": [
        {
          "indexed": true,
          "internalType": "address",
          "name": "oldHandler",
          "type": "address"
        },
        {
          "indexed": true,
          "internalType": "address",
          "name": "newHandler",
          "type": "address"
        }
      ],
      "name": "OrderHandlerUpdated",
      "type": "event"
    },
    {
      "anonymous": false,
      "inputs": [
        {
          "indexed": true,
          "internalType": "address",
          "name": "previousOwner",
          "type": "address"
        },
        {
          "indexed": true,
          "internalType": "address",
          "name": "newOwner",
          "type": "address"
        }
      ],
      "name": "OwnershipTransferred",
      "type": "event"
    },
    {
      "anonymous": false,
      "inputs": [
        {
          "indexed": true,
          "internalType": "bytes32",
          "name": "orderHash",
          "type": "bytes32"
        },
        {
          "indexed": false,
          "internalType": "uint256",
          "name": "chunkIndex",
          "type": "uint256"
        },
        {
          "indexed": false,
          "internalType": "uint256",
          "name": "receivedAmount",
          "type": "uint256"
        }
      ],
      "name": "PostHookExecuted",
      "type": "event"
    },
    {
      "anonymous": false,
      "inputs": [
        {
          "indexed": true,
          "internalType": "bytes32",
          "name": "orderHash",
          "type": "bytes32"
        },
        {
          "indexed": false,
          "internalType": "uint256",
          "name": "chunkIndex",
          "type": "uint256"
        }
      ],
      "name": "PreHookExecuted",
      "type": "event"
    },
    {
      "anonymous": false,
      "inputs": [
        {
          "indexed": true,
          "internalType": "address",
          "name": "oldRouter",
          "type": "address"
        },
        {
          "indexed": true,
          "internalType": "address",
          "name": "newRouter",
          "type": "address"
        }
      ],
      "name": "RouterUpdated",
      "type": "event"
    },
    {
      "inputs": [
        {
          "internalType": "address",
          "name": "token",
          "type": "address"
        }
      ],
      "name": "approveVaultRelayer",
      "outputs": [],
      "stateMutability": "nonpayable",
      "type": "function"
    },
    {
      "inputs": [
        {
          "internalType": "bytes32",
          "name": "orderHash",
          "type": "bytes32"
        }
      ],
      "name": "cancelOrder",
      "outputs": [],
      "stateMutability": "nonpayable",
      "type": "function"
    },
    {
      "inputs": [],
      "name": "composableCoW",
      "outputs": [
        {
          "internalType": "contract IComposableCoW",
          "name": "",
          "type": "address"
        }
      ],
      "stateMutability": "view",
      "type": "function"
    },
    {
      "inputs": [
        {
          "components": [
            {
              "internalType": "address",
              "name": "user",
              "type": "address"
            },
            {
              "internalType": "bytes[]",
              "name": "preInstructionsPerIteration",
              "type": "bytes[]"
            },
            {
              "internalType": "uint256",
              "name": "preTotalAmount",
              "type": "uint256"
            },
            {
              "internalType": "address",
              "name": "sellToken",
              "type": "address"
            },
            {
              "internalType": "address",
              "name": "buyToken",
              "type": "address"
            },
            {
              "internalType": "uint256",
              "name": "chunkSize",
              "type": "uint256"
            },
            {
              "internalType": "uint256",
              "name": "minBuyPerChunk",
              "type": "uint256"
            },
            {
              "internalType": "bytes[]",
              "name": "postInstructionsPerIteration",
              "type": "bytes[]"
            },
            {
              "internalType": "enum KapanOrderManager.CompletionType",
              "name": "completion",
              "type": "uint8"
            },
            {
              "internalType": "uint256",
              "name": "targetValue",
              "type": "uint256"
            },
            {
              "internalType": "uint256",
              "name": "minHealthFactor",
              "type": "uint256"
            },
            {
              "internalType": "bytes32",
              "name": "appDataHash",
              "type": "bytes32"
            },
            {
              "internalType": "bool",
              "name": "isFlashLoanOrder",
              "type": "bool"
            },
            {
              "internalType": "bool",
              "name": "isKindBuy",
              "type": "bool"
            }
          ],
          "internalType": "struct KapanOrderManager.KapanOrderParams",
          "name": "params",
          "type": "tuple"
        },
        {
          "internalType": "bytes32",
          "name": "salt",
          "type": "bytes32"
        },
        {
          "internalType": "uint256",
          "name": "seedAmount",
          "type": "uint256"
        }
      ],
      "name": "createOrder",
      "outputs": [
        {
          "internalType": "bytes32",
          "name": "orderHash",
          "type": "bytes32"
        }
      ],
      "stateMutability": "nonpayable",
      "type": "function"
    },
    {
      "inputs": [
        {
          "internalType": "bytes32",
          "name": "orderHash",
          "type": "bytes32"
        }
      ],
      "name": "executePostHook",
      "outputs": [],
      "stateMutability": "nonpayable",
      "type": "function"
    },
    {
      "inputs": [
        {
          "internalType": "address",
          "name": "user",
          "type": "address"
        },
        {
          "internalType": "bytes32",
          "name": "salt",
          "type": "bytes32"
        }
      ],
      "name": "executePostHookBySalt",
      "outputs": [],
      "stateMutability": "nonpayable",
      "type": "function"
    },
    {
      "inputs": [
        {
          "internalType": "bytes32",
          "name": "orderHash",
          "type": "bytes32"
        }
      ],
      "name": "executePreHook",
      "outputs": [],
      "stateMutability": "nonpayable",
      "type": "function"
    },
    {
      "inputs": [
        {
          "internalType": "address",
          "name": "user",
          "type": "address"
        },
        {
          "internalType": "bytes32",
          "name": "salt",
          "type": "bytes32"
        }
      ],
      "name": "executePreHookBySalt",
      "outputs": [],
      "stateMutability": "nonpayable",
      "type": "function"
    },
    {
      "inputs": [
        {
          "internalType": "bytes32",
          "name": "orderHash",
          "type": "bytes32"
        }
      ],
      "name": "getOrder",
      "outputs": [
        {
          "components": [
            {
              "components": [
                {
                  "internalType": "address",
                  "name": "user",
                  "type": "address"
                },
                {
                  "internalType": "bytes[]",
                  "name": "preInstructionsPerIteration",
                  "type": "bytes[]"
                },
                {
                  "internalType": "uint256",
                  "name": "preTotalAmount",
                  "type": "uint256"
                },
                {
                  "internalType": "address",
                  "name": "sellToken",
                  "type": "address"
                },
                {
                  "internalType": "address",
                  "name": "buyToken",
                  "type": "address"
                },
                {
                  "internalType": "uint256",
                  "name": "chunkSize",
                  "type": "uint256"
                },
                {
                  "internalType": "uint256",
                  "name": "minBuyPerChunk",
                  "type": "uint256"
                },
                {
                  "internalType": "bytes[]",
                  "name": "postInstructionsPerIteration",
                  "type": "bytes[]"
                },
                {
                  "internalType": "enum KapanOrderManager.CompletionType",
                  "name": "completion",
                  "type": "uint8"
                },
                {
                  "internalType": "uint256",
                  "name": "targetValue",
                  "type": "uint256"
                },
                {
                  "internalType": "uint256",
                  "name": "minHealthFactor",
                  "type": "uint256"
                },
                {
                  "internalType": "bytes32",
                  "name": "appDataHash",
                  "type": "bytes32"
                },
                {
                  "internalType": "bool",
                  "name": "isFlashLoanOrder",
                  "type": "bool"
                },
                {
                  "internalType": "bool",
                  "name": "isKindBuy",
                  "type": "bool"
                }
              ],
              "internalType": "struct KapanOrderManager.KapanOrderParams",
              "name": "params",
              "type": "tuple"
            },
            {
              "internalType": "enum KapanOrderManager.OrderStatus",
              "name": "status",
              "type": "uint8"
            },
            {
              "internalType": "uint256",
              "name": "executedAmount",
              "type": "uint256"
            },
            {
              "internalType": "uint256",
              "name": "iterationCount",
              "type": "uint256"
            },
            {
              "internalType": "uint256",
              "name": "createdAt",
              "type": "uint256"
            }
          ],
          "internalType": "struct KapanOrderManager.OrderContext",
          "name": "",
          "type": "tuple"
        }
      ],
      "stateMutability": "view",
      "type": "function"
    },
    {
      "inputs": [
        {
          "internalType": "address",
          "name": "user",
          "type": "address"
        }
      ],
      "name": "getUserOrders",
      "outputs": [
        {
          "internalType": "bytes32[]",
          "name": "",
          "type": "bytes32[]"
        }
      ],
      "stateMutability": "view",
      "type": "function"
    },
    {
      "inputs": [],
      "name": "hooksTrampoline",
      "outputs": [
        {
          "internalType": "address",
          "name": "",
          "type": "address"
        }
      ],
      "stateMutability": "view",
      "type": "function"
    },
    {
      "inputs": [
        {
          "internalType": "bytes32",
          "name": "orderHash",
          "type": "bytes32"
        }
      ],
      "name": "isOrderComplete",
      "outputs": [
        {
          "internalType": "bool",
          "name": "",
          "type": "bool"
        }
      ],
      "stateMutability": "view",
      "type": "function"
    },
    {
      "inputs": [
        {
          "internalType": "bytes32",
          "name": "_hash",
          "type": "bytes32"
        },
        {
          "internalType": "bytes",
          "name": "_signature",
          "type": "bytes"
        }
      ],
      "name": "isValidSignature",
      "outputs": [
        {
          "internalType": "bytes4",
          "name": "",
          "type": "bytes4"
        }
      ],
      "stateMutability": "view",
      "type": "function"
    },
    {
      "inputs": [],
      "name": "orderHandler",
      "outputs": [
        {
          "internalType": "address",
          "name": "",
          "type": "address"
        }
      ],
      "stateMutability": "view",
      "type": "function"
    },
    {
      "inputs": [
        {
          "internalType": "bytes32",
          "name": "",
          "type": "bytes32"
        }
      ],
      "name": "orderSalts",
      "outputs": [
        {
          "internalType": "bytes32",
          "name": "",
          "type": "bytes32"
        }
      ],
      "stateMutability": "view",
      "type": "function"
    },
    {
      "inputs": [
        {
          "internalType": "bytes32",
          "name": "",
          "type": "bytes32"
        }
      ],
      "name": "orderSeedBalance",
      "outputs": [
        {
          "internalType": "uint256",
          "name": "",
          "type": "uint256"
        }
      ],
      "stateMutability": "view",
      "type": "function"
    },
    {
      "inputs": [
        {
          "internalType": "bytes32",
          "name": "",
          "type": "bytes32"
        }
      ],
      "name": "orders",
      "outputs": [
        {
          "components": [
            {
              "internalType": "address",
              "name": "user",
              "type": "address"
            },
            {
              "internalType": "bytes[]",
              "name": "preInstructionsPerIteration",
              "type": "bytes[]"
            },
            {
              "internalType": "uint256",
              "name": "preTotalAmount",
              "type": "uint256"
            },
            {
              "internalType": "address",
              "name": "sellToken",
              "type": "address"
            },
            {
              "internalType": "address",
              "name": "buyToken",
              "type": "address"
            },
            {
              "internalType": "uint256",
              "name": "chunkSize",
              "type": "uint256"
            },
            {
              "internalType": "uint256",
              "name": "minBuyPerChunk",
              "type": "uint256"
            },
            {
              "internalType": "bytes[]",
              "name": "postInstructionsPerIteration",
              "type": "bytes[]"
            },
            {
              "internalType": "enum KapanOrderManager.CompletionType",
              "name": "completion",
              "type": "uint8"
            },
            {
              "internalType": "uint256",
              "name": "targetValue",
              "type": "uint256"
            },
            {
              "internalType": "uint256",
              "name": "minHealthFactor",
              "type": "uint256"
            },
            {
              "internalType": "bytes32",
              "name": "appDataHash",
              "type": "bytes32"
            },
            {
              "internalType": "bool",
              "name": "isFlashLoanOrder",
              "type": "bool"
            },
            {
              "internalType": "bool",
              "name": "isKindBuy",
              "type": "bool"
            }
          ],
          "internalType": "struct KapanOrderManager.KapanOrderParams",
          "name": "params",
          "type": "tuple"
        },
        {
          "internalType": "enum KapanOrderManager.OrderStatus",
          "name": "status",
          "type": "uint8"
        },
        {
          "internalType": "uint256",
          "name": "executedAmount",
          "type": "uint256"
        },
        {
          "internalType": "uint256",
          "name": "iterationCount",
          "type": "uint256"
        },
        {
          "internalType": "uint256",
          "name": "createdAt",
          "type": "uint256"
        }
      ],
      "stateMutability": "view",
      "type": "function"
    },
    {
      "inputs": [],
      "name": "owner",
      "outputs": [
        {
          "internalType": "address",
          "name": "",
          "type": "address"
        }
      ],
      "stateMutability": "view",
      "type": "function"
    },
    {
      "inputs": [
        {
          "internalType": "bytes32",
          "name": "",
          "type": "bytes32"
        }
      ],
      "name": "preHookExecutedForIteration",
      "outputs": [
        {
          "internalType": "uint256",
          "name": "",
          "type": "uint256"
        }
      ],
      "stateMutability": "view",
      "type": "function"
    },
    {
      "inputs": [
        {
          "internalType": "address",
          "name": "token",
          "type": "address"
        },
        {
          "internalType": "address",
          "name": "to",
          "type": "address"
        },
        {
          "internalType": "uint256",
          "name": "amount",
          "type": "uint256"
        }
      ],
      "name": "recoverTokens",
      "outputs": [],
      "stateMutability": "nonpayable",
      "type": "function"
    },
    {
      "inputs": [],
      "name": "renounceOwnership",
      "outputs": [],
      "stateMutability": "nonpayable",
      "type": "function"
    },
    {
      "inputs": [],
      "name": "router",
      "outputs": [
        {
          "internalType": "contract IKapanRouter",
          "name": "",
          "type": "address"
        }
      ],
      "stateMutability": "view",
      "type": "function"
    },
    {
      "inputs": [
        {
          "internalType": "address",
          "name": "_composableCoW",
          "type": "address"
        }
      ],
      "name": "setComposableCoW",
      "outputs": [],
      "stateMutability": "nonpayable",
      "type": "function"
    },
    {
      "inputs": [
        {
          "internalType": "address",
          "name": "_hooksTrampoline",
          "type": "address"
        }
      ],
      "name": "setHooksTrampoline",
      "outputs": [],
      "stateMutability": "nonpayable",
      "type": "function"
    },
    {
      "inputs": [
        {
          "internalType": "address",
          "name": "_handler",
          "type": "address"
        }
      ],
      "name": "setOrderHandler",
      "outputs": [],
      "stateMutability": "nonpayable",
      "type": "function"
    },
    {
      "inputs": [
        {
          "internalType": "address",
          "name": "_router",
          "type": "address"
        }
      ],
      "name": "setRouter",
      "outputs": [],
      "stateMutability": "nonpayable",
      "type": "function"
    },
    {
      "inputs": [],
      "name": "settlement",
      "outputs": [
        {
          "internalType": "contract IGPv2Settlement",
          "name": "",
          "type": "address"
        }
      ],
      "stateMutability": "view",
      "type": "function"
    },
    {
      "inputs": [
        {
          "internalType": "address",
          "name": "newOwner",
          "type": "address"
        }
      ],
      "name": "transferOwnership",
      "outputs": [],
      "stateMutability": "nonpayable",
      "type": "function"
    },
    {
      "inputs": [
        {
          "internalType": "address",
          "name": "",
          "type": "address"
        },
        {
          "internalType": "uint256",
          "name": "",
          "type": "uint256"
        }
      ],
      "name": "userOrders",
      "outputs": [
        {
          "internalType": "bytes32",
          "name": "",
          "type": "bytes32"
        }
      ],
      "stateMutability": "view",
      "type": "function"
    },
    {
      "inputs": [
        {
          "internalType": "address",
          "name": "",
          "type": "address"
        },
        {
          "internalType": "bytes32",
          "name": "",
          "type": "bytes32"
        }
      ],
      "name": "userSaltToOrderHash",
      "outputs": [
        {
          "internalType": "bytes32",
          "name": "",
          "type": "bytes32"
        }
      ],
      "stateMutability": "view",
      "type": "function"
    }
  ],
  "transactionHash": "0xdeaca64df3d081af414fbff0ce117b2fe18f16069590e7875cc1a31503f50bff",
  "args": [
    "0x0BE61223F99E57b8b8B7033a77B54Adc7f7cF027",
    "0xB30e6106B7c9550bc112d8c65af580cFCC0ad93C",
    "0xfdaFc9d1902f4e0b84f65F49f244b32b31013b74",
    "0x9008D19f58AAbD9eD0D60971565AA8510560ab41",
    "0x60Bf78233f48eC42eE3F101b9a05eC7878728006"
  ],
  "numDeployments": 6,
  "solcInputHash": "f80a391daa7098857d58873583afa7bc",
  "bytecode": "0x60803461018557601f61360338819003918201601f19168301916001600160401b038311848410176101895780849260a094604052833981010312610185576100478161019d565b906100546020820161019d565b916100616040830161019d565b9161007a60806100736060840161019d565b920161019d565b6001600160a01b03909216938415610172575f80546001600160a01b031981168717825560405196916001600160a01b03909116907f8be0079c531659141344cd1fd0a4f28419497f9722a3daafe3b4186f6b6457e09080a3600180556001600160a01b0316928315610163576001600160a01b0316908115610163576001600160a01b0316918215610163576001600160a01b03169283156101635760018060a01b0319600254161760025560018060a01b0319600354161760035560018060a01b0319600454161760045560018060a01b0319600554161760055561345190816101b28239f35b63d92e233d60e01b5f5260045ffd5b631e4fbdf760e01b5f525f60045260245ffd5b5f80fd5b634e487b7160e01b5f52604160045260245ffd5b51906001600160a01b03821682036101855756fe60806040526004361015610011575f80fd5b5f5f3560e01c80631626ba7e146118ee5780632fbff5a414611898578063304d313e14611816578063507f0e74146117ec57806351160630146117c45780635778472a146116805780635f3e849f1461163357806363c69f08146115a95780636edd27ff14611576578063715018a6146115325780637489ec23146112f45780638009fb6a1461129257806381e6d3ce14611269578063856652e9146112125780638b0f4834146111e95780638da5cb5b146111c2578063988ccc161461114d5780639c3f1e90146110d0578063b5848305146110a7578063c0d7865514611032578063c3cdefe514611008578063c73bb4bd14610f4e578063caf2185614610f29578063cea4b43614610ee6578063d08bdbf3146102dc578063d22b0586146102b2578063d7a3aca71461022e578063e0b787e414610202578063f2fde38b1461018f5763f887ea4014610164575f80fd5b3461018c578060031936011261018c576002546040516001600160a01b039091168152602090f35b80fd5b503461018c57602036600319011261018c576101a961195d565b6101b1612e6d565b6001600160a01b031680156101ee5781546001600160a01b03198116821783556001600160a01b03165f5160206133fc5f395f51905f528380a380f35b631e4fbdf760e01b82526004829052602482fd5b503461018c57602036600319011261018c5761021c612580565b610227600435612f6b565b6001805580f35b503461018c57602036600319011261018c5761024861195d565b610250612e6d565b6001600160a01b031680156102a357600680546001600160a01b0319811683179091556001600160a01b03167f7bf6e789688cd776b5170517f39970fea2870a79d649c8443dd2b0ec62823eb78380a380f35b63d92e233d60e01b8252600482fd5b503461018c57602036600319011261018c5760406020916004358152600b83522054604051908152f35b503461018c57606036600319011261018c576001600160401b036004351161018c576101c06004353603600319011261018c57610317612580565b61032560043560040161240d565b336001600160a01b0390911603610ed8576006546001600160a01b031615610ec957604051606060208201908152906001600160a01b036103696004803501611973565b16608082015261041d61039c610389602460043501600435600401612421565b6101c060a0860152610240850191612456565b600435604481013560c08501526001600160a01b03906103be90606401611973565b1660e08401526001600160a01b036103da600435608401611973565b166101008401526004803560a481013561012086015260c481013561014086015261040a9160e482019101612421565b848303607f190161016086015290612456565b6004610104813501351015610ab457816104bc916104416101046004350135611a03565b6004356101048101356101808401526101248101356101a08401526101448101356101c08401526101648101356101e08401526104819061018401611e27565b15156102008301526104986101a460043501611e27565b1515610220830152602435604083015242606083015203601f198101835282611bef565b519020808252600760205260ff600d604084200154166104db81611a03565b610eba57604435610e52575b604051906104f482611b52565b60405161050081611b81565b61050e600435600401611973565b81526001600160401b036004356024013511610ab4576105383660048035602481013501016124ec565b6020820152604460043501356040820152610557606460043501611973565b606082015261056a608460043501611973565b608082015260043560a481013560a083015260c481013560c083015260e401356001600160401b038111610e4e576105a99060043691813501016124ec565b60e08201526004356101048101356101008301526101248101356101208301526101448101356101408301526101648101356101608301526105ee9061018401611e27565b6101808201526106036101a460043501611e27565b6101a08201528252600160208084018281526040808601878152606087018881524260808901908152878a52600786529289209751805189546001600160a01b0319166001600160a01b0391909116178955948501518051959896939591949293870190600160401b8311610cb6578154838355808410610dd0575b50602001908a5260208a208a915b838310610cca57505050506040870151600286015560608701516003860180546001600160a01b039283166001600160a01b031991821617909155608089015160048801805491909316911617905560a0870151600586015560c0870151600686015560e0870151805197906007870190600160401b8a11610cb65781548a8355808b10610c38575b50602001908a5260208a208a915b8a8310610b07575050508596975060086010960161010082015161074781611a03565b61075081611a03565b60ff801983541691161790556101208101516009880155610140810151600a880155610160810151600b880155600c87019061018081015115159060ff61ff006101a08554930151151560081b1692169061ffff191617179055600d860190516107b981611a03565b6107c281611a03565b60ff8019835416911617905551600e85015551600f840155519101558082526008602052602435604083205560018060a01b0361080360043560040161240d565b168252600960205260408220805490600160401b821015610af3579061082e91600182018155611b29565b81545f1960039290921b91821b19169083901b1790556001600160a01b03610859600480350161240d565b168252600a6020526040822060243583526020528060408320558160018060a01b036006541660405183602082015260208152610897604082611bef565b604051916108a483611b9d565b8252602435602083015260408201526003546001600160a01b0316803b15610aef576108f283929183926040519485809481936335fd70e560e11b8352604060048401526044830190611f09565b6001602483015203925af18015610ae457610acb575b50506004610919606482350161240d565b8154604051634daa966160e11b81529260209184919082906001600160a01b03165afa918215610ac0578492610a80575b50604051636eb1769f60e11b81523060048201526001600160a01b038381166024830152909491169190602085604481865afa908115610a745790610a3d575b602094506001600160ff1b0311610a2d575b50506109ac60043560040161240d565b817f961e6438a987eab19d9850691e56ca64f442dbb689801b0f3cfc1381c98ed15e60806109de60646004350161240d565b936109ed60846004350161240d565b604080516001600160a01b0397881681529187168983015260043560448101359183019190915260a401356060820152941693a360018055604051908152f35b610a369161312c565b5f8061099c565b506020843d602011610a6c575b81610a5760209383611bef565b81010312610a68576020935161098a565b5f80fd5b3d9150610a4a565b604051903d90823e3d90fd5b9091506020813d602011610ab8575b81610a9c60209383611bef565b81010312610ab457610aad90611e95565b905f61094a565b8380fd5b3d9150610a8f565b6040513d86823e3d90fd5b81610ad591611bef565b610ae057815f610908565b5080fd5b6040513d84823e3d90fd5b8280fd5b634e487b7160e01b84526041600452602484fd5b80518051906001600160401b038211610c24578d90610b268554611c29565b601f8111610be9575b50602091601f8411600114610b81578360019592946020948796610b679492610b76575b50508160011b915f199060031b1c19161790565b85555b01920192019190610724565b015190505f80610b53565b9190601f198416868452828420935b818110610bd15750936020936001969387969383889510610bb9575b505050811b018555610b6a565b01515f1960f88460031b161c191690555f8080610bac565b92936020600181928786015181550195019301610b90565b610c149086845260208420601f860160051c81019160208710610c1a575b601f0160051c019061256a565b5f610b2f565b9091508190610c07565b634e487b7160e01b8e52604160045260248efd5b828c528a60208d2091820191015b8c828210610c55575050610716565b9080600192610c648254611c29565b80610c73575b50505001610c46565b601f81118514610c8c575050508d81555b808e5f610c6a565b82825260208220610ca791601f0160051c810190860161256a565b528d6020812081835555610c84565b634e487b7160e01b8b52604160045260248bfd5b80518051906001600160401b038211610c24578d90610ce98554611c29565b601f8111610da0575b50602091601f8411600114610d38578360019592946020948796610d299492610b765750508160011b915f199060031b1c19161790565b85555b0192019201919061068d565b9190601f198416868452828420935b818110610d885750936020936001969387969383889510610d70575b505050811b018555610d2c565b01515f1960f88460031b161c191690555f8080610d63565b92936020600181928786015181550195019301610d47565b610dca9086845260208420601f860160051c81019160208710610c1a57601f0160051c019061256a565b5f610cf2565b828c528360208d2091820191015b8c828210610ded57505061067f565b9080600192610dfc8254611c29565b80610e0b575b50505001610dde565b601f81118514610e24575050508d81555b808e5f610e02565b82825260208220610e3f91601f0160051c810190860161256a565b528d6020812081835555610e1c565b8480fd5b610ea56001600160a01b03610e6b60043560640161240d565b16604051906323b872dd60e01b6020830152336024830152306044830152604435606483015260648252610ea0608483611bef565b6132fb565b808252600c60205260443560408320556104e7565b63966753c560e01b8252600482fd5b63d8f59fa560e01b8152600490fd5b6282b42960e81b8152600490fd5b503461018c57604036600319011261018c576020906040906001600160a01b03610f0e61195d565b168152600a8352818120602435825283522054604051908152f35b503461018c57602036600319011261018c57610f43612580565b6102276004356127f9565b503461018c57602036600319011261018c57610f6861195d565b610f70612e6d565b6001600160a01b031680156102a35760048054604051634daa966160e11b8152929160209184919082906001600160a01b03165afa908115610ffd578391610fc0575b610fbd925061312c565b80f35b90506020823d602011610ff5575b81610fdb60209383611bef565b81010312610aef57610fef610fbd92611e95565b90610fb3565b3d9150610fce565b6040513d85823e3d90fd5b503461018c57602036600319011261018c5760406020916004358152600c83522054604051908152f35b503461018c57602036600319011261018c5761104c61195d565b611054612e6d565b6001600160a01b031680156102a357600280546001600160a01b0319811683179091556001600160a01b03167f02dc5c233404867c793b749c6d644beb2277536d18a7e7974d3f238e4c6f16848380a380f35b503461018c578060031936011261018c576006546040516001600160a01b039091168152602090f35b503461018c57602036600319011261018c57604061112b9160043581526007602052206110fc81611d56565b9060ff600d8201541690600e810154906010600f8201549101549160405195869560a0875260a0870190611a21565b9361113581611a03565b60208601526040850152606084015260808301520390f35b503461018c57602036600319011261018c5761116761195d565b61116f612e6d565b6001600160a01b031680156102a357600380546001600160a01b0319811683179091556001600160a01b03167f5ee1511014357e81e6a0e8a9bf9d80be6c56a0922d067518ddc6f7a2f6eb7bd68380a380f35b503461018c578060031936011261018c57546040516001600160a01b039091168152602090f35b503461018c578060031936011261018c576003546040516001600160a01b039091168152602090f35b503461018c57604036600319011261018c5761122c61195d565b6001600160a01b031681526009602052604081208054602435929083101561018c57602061125a8484611b29565b90549060031b1c604051908152f35b503461018c578060031936011261018c576005546040516001600160a01b039091168152602090f35b503461018c57604036600319011261018c576112ac61195d565b6112b4612580565b6001600160a01b03168152600a60209081526040808320602435845290915281205480156112e55761022790612f6b565b63d36d896560e01b8252600482fd5b5034610a68576020366003190112610a6857600435611311612580565b805f52600760205260405f20600d8101805460ff811661133081611a03565b80156115235783546001600160a01b031633036115155760019061135381611a03565b0361150657835f52600b60205260405f20546114f75760039060ff191617905560018060a01b03600354166113ea602060018060a01b0360065416855f526008825260405f20546040519087848301528382526113b1604083611bef565b604051926113be84611b9d565b835283830152604082015260405180938192635500079d60e01b83528460048401526024830190611f09565b0381855afa9081156114ba575f916114c5575b50813b15610a68575f916024839260405194859384926395bc267360e01b845260048401525af180156114ba576114a5575b50818352600c602052604083205480611472575b505033907fa6eb7cdc219e1518ced964e9a34e61d68a94e4f1569db3e84256ba981ba527538380a36001805580f35b828452600c602052604084208490556003820154915461149e926001600160a01b039182169116612eae565b5f80611443565b6114b29193505f90611bef565b5f915f61142f565b6040513d5f823e3d90fd5b90506020813d6020116114ef575b816114e060209383611bef565b81010312610a6857515f6113fd565b3d91506114d3565b6313e916e560e01b5f5260045ffd5b632b12537f60e21b5f5260045ffd5b6282b42960e81b5f5260045ffd5b63d36d896560e01b5f5260045ffd5b34610a68575f366003190112610a685761154a612e6d565b5f80546001600160a01b0319811682556001600160a01b03165f5160206133fc5f395f51905f528280a3005b34610a68576020366003190112610a68576004355f526007602052602061159f60405f20612ee3565b6040519015158152f35b34610a68576020366003190112610a68576001600160a01b036115ca61195d565b165f52600960205260405f206040519081602082549182815201915f5260205f20905f5b81811061161d576116198561160581870382611bef565b604051918291602083526020830190611af6565b0390f35b82548452602090930192600192830192016115ee565b34610a68576060366003190112610a685761164c61195d565b602435906001600160a01b0382168203610a685761167e9161166c612e6d565b604435916001600160a01b0316612eae565b005b34610a68576020366003190112610a68575f60806040516116a081611b52565b6040516116ac81611b81565b8381526060602082015283604082015283606082015283838201528360a08201528360c0820152606060e08201528361010082015283610120820152836101408201528361016082015283610180820152836101a0820152815282602082015282604082015282606082015201526004355f52600760205261179e60405f206040519061173882611b52565b61174181611d56565b825260ff600d8201541690602083019161175a81611a03565b8252600e81015490604084019182526010600f820154916060860192835201549160808501928352604051958695602087525160a0602088015260c0870190611a21565b93516117a981611a03565b60408601525160608501525160808401525160a08301520390f35b34610a68575f366003190112610a68576004546040516001600160a01b039091168152602090f35b34610a68576020366003190112610a68576004355f526008602052602060405f2054604051908152f35b34610a68576020366003190112610a685761182f61195d565b611837612e6d565b6001600160a01b0316801561188957600580546001600160a01b0319811683179091556001600160a01b03167fbdce5776902fb6aa0ba780ce23fc8392c2014d41efaeaa287d6b06ef28fe5cb05f80a3005b63d92e233d60e01b5f5260045ffd5b34610a68576040366003190112610a68576118b161195d565b6118b9612580565b60018060a01b03165f52600a60205260405f206024355f5260205260405f20548015611523576118e8906127f9565b60018055005b34610a68576040366003190112610a68576024356001600160401b038111610a685736602382011215610a68576004810135906001600160401b038211610a68573660248383010111610a6857602091602461194a9201611f38565b6040516001600160e01b03199091168152f35b600435906001600160a01b0382168203610a6857565b35906001600160a01b0382168203610a6857565b805180835260209291819084018484015e5f828201840152601f01601f1916010190565b9080602083519182815201916020808360051b8301019401925f915b8383106119d657505050505090565b90919293946020806119f4600193601f198682030187528951611987565b970193019301919392906119c7565b60041115611a0d57565b634e487b7160e01b5f52602160045260245ffd5b9060018060a01b0382511681526101a080611aa4611a5060208601516101c060208701526101c08601906119ab565b6040860151604086015260018060a01b03606087015116606086015260018060a01b03608087015116608086015260a086015160a086015260c086015160c086015260e086015185820360e08701526119ab565b93610100810151611ab481611a03565b61010085015261012081015161012085015261014081015161014085015261016081015161016085015261018081015115156101808501520151151591015290565b90602080835192838152019201905f5b818110611b135750505090565b8251845260209384019390920191600101611b06565b8054821015611b3e575f5260205f2001905f90565b634e487b7160e01b5f52603260045260245ffd5b60a081019081106001600160401b03821117611b6d57604052565b634e487b7160e01b5f52604160045260245ffd5b6101c081019081106001600160401b03821117611b6d57604052565b606081019081106001600160401b03821117611b6d57604052565b61018081019081106001600160401b03821117611b6d57604052565b604081019081106001600160401b03821117611b6d57604052565b601f909101601f19168101906001600160401b03821190821017611b6d57604052565b6001600160401b038111611b6d5760051b60200190565b90600182811c92168015611c57575b6020831014611c4357565b634e487b7160e01b5f52602260045260245ffd5b91607f1691611c38565b9060405191825f825492611c7484611c29565b8084529360018116908115611cdf5750600114611c9b575b50611c9992500383611bef565b565b90505f9291925260205f20905f915b818310611cc3575050906020611c99928201015f611c8c565b6020919350806001915483858901015201910190918492611caa565b905060209250611c9994915060ff191682840152151560051b8201015f611c8c565b908154611d0d81611c12565b92611d1b6040519485611bef565b81845260208401905f5260205f205f915b838310611d395750505050565b600160208192611d4885611c61565b815201920192019190611d2c565b90604051611d6381611b81565b6101a060ff600c839560018060a01b038154168552611d8460018201611d01565b60208601526002810154604086015260038101546001600160a01b0390811660608701526004820154166080860152600581015460a0860152600681015460c0860152611dd360078201611d01565b60e086015282600882015416611de881611a03565b6101008601526009810154610120860152600a810154610140860152600b8101546101608601520154818116151561018085015260081c161515910152565b35908115158203610a6857565b6001600160401b038111611b6d57601f01601f191660200190565b81601f82011215610a6857803590611e6682611e34565b92611e746040519485611bef565b82845260208383010111610a6857815f926020809301838601378301015290565b51906001600160a01b0382168203610a6857565b51908115158203610a6857565b929192611ec282611e34565b91611ed06040519384611bef565b829481845281830111610a68578281602093845f96015e010152565b9080601f83011215610a68578151611f0692602001611eb6565b90565b9060606040611f069360018060a01b038151168452602081015160208501520151918160408201520190611987565b9081018181036101a08112610a685761018013610a685760405191611f5c83611bb8565b611f6581611973565b8352611f7360208201611973565b9260208101938452611f8760408301611973565b604082019081526060820160608401358152608083016080850135815260a085013563ffffffff81168103610a685760a085015260c0840160c0860135815260e085019160e087013583526101008601936101008801358552611fed6101208901611e27565b9561012088019687526101408801976101408a013589526101608101996101608101358b526101808101359060018060401b038211610a6857019a60608c820312610a68576040519b61203f8d611b9d565b80356001600160401b038111610a6857810182601f82011215610a685780359061206882611c12565b916120766040519384611bef565b80835260208084019160051b83010191858311610a6857602001905b8282106123fd575050508d5260208101356001600160401b038111610a6857810191606083820312610a6857604051926120cb84611b9d565b80356001600160a01b0381168103610a68578452602081810135908501526040810135906001600160401b038211610a68578f908360209361210d9201611e4f565b604086015201928352604082013560018060401b038111610a68578e92019061213591611e4f565b604081920152600160a01b600190036003541691519c519c6040519d8e92839263137050cb60e11b845230600485015260248401608090526084840161217a91611f09565b83810360031901604485015261218f91611987565b8281036003190160648401526121a491611af6565b03815a935f94fa5f9b81612300575b506121d157506001600160e01b03199b9a5050505050505050505050565b518a516001600160a01b039081169116149a8b6122e4575b508a6122c8575b50896122b9575b50886122aa575b508761229b575b508661228c575b508561227c575b5084612267575b5083612257575b5082612245575b505061223a576001600160e01b031990565b630b135d3f60e11b90565b61016091925051910151145f80612228565b516101408301511492505f612221565b5161012084015115159015151493505f61221a565b516101008501511494505f612213565b5160e08601511495505f61220c565b5160c08701511496505f612205565b5160808801511497505f6121fe565b5160608901511498505f6121f7565b5160408a01516001600160a01b0390811691161499505f6121f0565b5160208b01516001600160a01b039081169116149a505f6121e9565b909b503d805f833e6123128183611bef565b8101908082036101a08112610a685761018013610a68576040519161233683611bb8565b61233f82611e95565b835261234d60208301611e95565b602084015261235e60408301611e95565b6040840152606082015160608401526080820151608084015260a082015163ffffffff81168103610a685760a084015260c082015160c084015260e082015160e08401526101008201516101008401526123bb6101208301611ea9565b610120840152610140828101519084015261016080830151908401526101808201516001600160401b038111610a68576123f59201611eec565b509a5f6121b3565b8135815260209182019101612092565b356001600160a01b0381168103610a685790565b9035601e1982360301811215610a68570160208101919035906001600160401b038211610a68578160051b36038313610a6857565b90602083828152019060208160051b85010193835f915b83831061247d5750505050505090565b909192939495601f198282030186528635601e1984360301811215610a68578301602081019190356001600160401b038111610a68578036038313610a68576020828280600196849695859652848401375f828201840152601f01601f1916010198019601949301919061246d565b9080601f83011215610a6857813561250381611c12565b926125116040519485611bef565b81845260208085019260051b82010191838311610a685760208201905b83821061253d57505050505090565b81356001600160401b038111610a685760209161255f87848094880101611e4f565b81520191019061252e565b818110612575575050565b5f815560010161256a565b600260015414612591576002600155565b633ee5aeb560e01b5f5260045ffd5b602081830312610a68578051906001600160401b038211610a6857019080601f83011215610a68578151916125d483611c12565b926125e26040519485611bef565b80845260208085019160051b83010191838311610a685760208101915b83831061260e57505050505090565b82516001600160401b038111610a68578201906040828703601f190112610a68576040519061263c82611bd4565b60208301516001600160401b038111610a685760209084010187601f82011215610a68578781602061267093519101611eb6565b82526040830151916001600160401b038311610a685761269888602080969581960101611eec565b838201528152019201916125ff565b906126b182611c12565b6126be6040519182611bef565b82815280926126cf601f1991611c12565b01905f5b8281106126df57505050565b6020906040516126ee81611bd4565b60608152606083820152828285010152016126d3565b60405190612713604083611bef565b60068252653937baba32b960d11b6020830152565b805115611b3e5760200190565b805160011015611b3e5760400190565b8051821015611b3e5760209160051b010190565b9190820391821161276657565b634e487b7160e01b5f52601160045260245ffd5b602081016020825282518091526040820191602060408360051b8301019401925f915b8383106127ac57505050505090565b90919293946020806127ea600193603f19868203018752895190836127da8351604084526040840190611987565b9201519084818403910152611987565b9701930193019193929061279d565b6005545f9291906001600160a01b03163303612e5e57805f52600760205260405f2091600d830191600160ff84541661283181611a03565b0361150657805f52600b60205260405f205494600f850195865490600182018092116127665703612e4f57815f52600b6020525f604081205561288a61287b875460078801613219565b602080825183010191016125a0565b9360ff600c87015460081c165f14612d1a57600386019660018060a01b0388541691604051936370a0823160e01b8552306004860152602085602481875afa9485156114ba575f95612ce6575b506128e68560058b0154612759565b9460068a0154948180612cc7575b505060048a8101546040516370a0823160e01b815230928101929092526001600160a01b031690602081602481855afa9081156114ba575f91612c95575b5080612bac575b505088519060028201809211612766576129556129a1926126a7565b9b546001600160a01b0316908c61299161296f848b6132c8565b916040519261297d84611bd4565b612985612704565b84526020840152612728565b5261299b8d612728565b506132c8565b604051906129ae82611bd4565b6129b6612704565b825260208201526129c68b612735565b526129d08a612735565b505f5b8851811015612a14576129e6818a612745565b519060028101918282116127665782612a0d91612a068f95600196612745565b528d612745565b50016129d3565b5092959890939650969093965b6002546001600160a01b0316803b15610a685760405163f0dbeea560e01b8152915f918391829084908290612a59906004830161277a565b03925af180156114ba57612b97575b50600e8101938454878101809111612b8357855580545f198114612b8357928892837f2fe16d47ffa3738e1c53765ec8dcbe2adbce46d0899a775de9b539572cfd864f606060409a989560017f5b19a0b08bbd8e7537d63d9f1db0947c5eba6d93e02a7e0a1520ea5f29bd644c9d9b99018155838652600c6020528b862054612b71575b54998b51908b82526020820152898c820152a2612b0881612ee3565b612b1f575b505050505082519182526020820152a2565b825460ff19166002179092555054915485519081526001600160a01b0392909216917fc05078bb1894dee4a12f4b4f2822aa8625022f271aee8bffc64c6621f84c4d9490602090a35f85818080612b0d565b838652600c602052858c812055612aec565b634e487b7160e01b84526011600452602484fd5b612ba49192505f90611bef565b5f905f612a68565b60018060a01b0360025416915f8060405193612bec85612bde602082019363095ea7b360e01b85528960248401612e93565b03601f198101875286611bef565b84519082855af1612bfb61336e565b81612c5e575b5080612c54575b15612c14575b50612939565b610ea0612c4c936040519063095ea7b360e01b602083015260248201525f604482015260448152612c46606482611bef565b826132fb565b5f8080612c0e565b50803b1515612c08565b8051801592508215612c73575b50505f612c01565b8192509060209181010312610a68576020612c8e9101611ea9565b5f80612c6b565b90506020813d602011612cbf575b81612cb060209383611bef565b81010312610a6857515f612932565b3d9150612ca3565b600254612cdf926001600160a01b0390911690612eae565b5f816128f4565b9094506020813d602011612d12575b81612d0260209383611bef565b81010312610a685751935f6128d7565b3d9150612cf5565b90600486019660018060a01b0388541692604051926370a0823160e01b8452306004850152602084602481885afa9384156114ba575f94612e1b575b5083612d738160058c01549760018060a01b036002541690612eae565b8851906001820180921161276657612d8d612d9e926126a7565b9b546001600160a01b0316906132c8565b60405190612dab82611bd4565b612db3612704565b82526020820152612dc38b612728565b52612dcd8a612728565b505f5b8851811015612e0a57612de3818a612745565b519060018101918282116127665782612e0391612a068f95600196612745565b5001612dd0565b509295989093965096909396612a21565b9093506020813d602011612e47575b81612e3760209383611bef565b81010312610a685751925f612d56565b3d9150612e2a565b631feb8b7960e21b5f5260045ffd5b631cb3967f60e21b5f5260045ffd5b5f546001600160a01b03163303612e8057565b63118cdaa760e01b5f523360045260245ffd5b6001600160a01b039091168152602081019190915260400190565b610ea0611c999392612ed560405194859263a9059cbb60e01b602085015260248401612e93565b03601f198101845283611bef565b60ff600882015416612ef481611a03565b60028114612f5b57612f0581611a03565b60018114612f2f57612f1681611a03565b15612f2057505f90565b6002600e820154910154111590565b50612f436002820154600e83015490612759565b8015918215612f5157505090565b6005015411919050565b506009600f820154910154111590565b6005549091906001600160a01b03163303612e5e57815f52600760205260405f2091600160ff600d85015416612fa081611a03565b0361150657805f52600b60205260405f205461311d57600f83019182546001810180911161276657825f52600b60205260405f2055612fe661287b845460018701613219565b918251600181018091116127665761300061301a916126a7565b95600581015490600360018060a01b0391015416906132c8565b6040519061302782611bd4565b61302f612704565b8252602082015261303f86612728565b5261304985612728565b505f5b835181101561308c5761305f8185612745565b5190600181019182821161276657826130859161307e6001958b612745565b5288612745565b500161304c565b5060025491949093909250906001600160a01b0316803b15610a685760405163f0dbeea560e01b8152925f9184918290849082906130cd906004830161277a565b03925af19081156114ba577fed6ad11a587c194b3ad43896e949cb9a05975419926eda9b6b571d1847c9a7aa9260209261310d575b5054604051908152a2565b5f61311791611bef565b5f613102565b63e617d13160e01b5f5260045ffd5b60405163095ea7b360e01b602082019081526001600160a01b03909316602482018190525f1960448084019190915282529290919061316c606484611bef565b82516001600160a01b038316915f91829182855af19061318a61336e565b826131df575b50816131d4575b50156131a257505050565b610ea0611c99936040519063095ea7b360e01b602083015260248201525f604482015260448152612c46606482611bef565b90503b15155f613197565b805191925081159182156131f7575b5050905f613190565b8192509060209181010312610a685760206132129101611ea9565b5f806131ee565b906060825490811561325d5750808210156132435750611f069161323d9190611b29565b50611c61565b5f1981019150811161276657611f069161323d9190611b29565b9250505060405190613270602083611bef565b5f82525f90815b8281106132a557505050611f06613297916040519283916020830161277a565b03601f198101835282611bef565b6020906040516132b481611bd4565b838152838382015282828701015201613277565b9060405191602083015260018060a01b031660408201525f60608201526003608082015260808152611f0660a082611bef565b5f806133239260018060a01b03169360208151910182865af161331c61336e565b908361339d565b805190811515918261334b575b50506133395750565b635274afe760e01b5f5260045260245ffd5b8192509060209181010312610a685760206133669101611ea9565b155f80613330565b3d15613398573d9061337f82611e34565b9161338d6040519384611bef565b82523d5f602084013e565b606090565b906133c157508051156133b257805190602001fd5b630a12f52160e11b5f5260045ffd5b815115806133f2575b6133d2575090565b639996b31560e01b5f9081526001600160a01b0391909116600452602490fd5b50803b156133ca56fe8be0079c531659141344cd1fd0a4f28419497f9722a3daafe3b4186f6b6457e0a2646970667358221220422af890dd660d0e5c4a8aebe8de2ceaa1735a00562ce67d82536a46724e538a64736f6c634300081e0033",
  "devdoc": {
    "details": "Singleton contract that holds order context and executes hooks",
    "errors": {
      "AddressEmptyCode(address)": [
        {
          "details": "There's no code at `target` (it is not a contract)."
        }
      ],
      "AddressInsufficientBalance(address)": [
        {
          "details": "The ETH balance of the account is not enough to perform the operation."
        }
      ],
      "FailedInnerCall()": [
        {
          "details": "A call to an address target failed. The target may have reverted."
        }
      ],
      "OwnableInvalidOwner(address)": [
        {
          "details": "The owner is not a valid owner account. (eg. `address(0)`)"
        }
      ],
      "OwnableUnauthorizedAccount(address)": [
        {
          "details": "The caller account is not authorized to perform an operation."
        }
      ],
      "ReentrancyGuardReentrantCall()": [
        {
          "details": "Unauthorized reentrant call."
        }
      ],
      "SafeERC20FailedOperation(address)": [
        {
          "details": "An operation with an ERC20 token failed."
        }
      ]
    },
    "kind": "dev",
    "methods": {
      "cancelOrder(bytes32)": {
        "params": {
          "orderHash": "The order to cancel"
        }
      },
      "createOrder((address,bytes[],uint256,address,address,uint256,uint256,bytes[],uint8,uint256,uint256,bytes32,bool,bool),bytes32,uint256)": {
        "details": "User must approve this contract to pull seedAmount of sellToken before calling",
        "params": {
          "params": "The order parameters",
          "salt": "Unique salt for the order",
          "seedAmount": "Amount of sell tokens to pull from user for first chunk (0 to skip)"
        },
        "returns": {
          "orderHash": "The hash identifying this order"
        }
      },
      "executePostHook(bytes32)": {
        "details": "Prepends a ToOutput instruction with the actual received amount, so all      stored instructions can reference index 0 for the swap output",
        "params": {
          "orderHash": "The order being settled"
        }
      },
      "executePostHookBySalt(address,bytes32)": {
        "details": "Allows pre-computing appData before order creation",
        "params": {
          "salt": "The order salt (known before tx)",
          "user": "The order owner"
        }
      },
      "executePreHook(bytes32)": {
        "details": "Prepends a ToOutput instruction with chunkSize, so all stored instructions      can reference index 0 for the chunk amount. Chunk index is read from iterationCount.",
        "params": {
          "orderHash": "The order being settled"
        }
      },
      "executePreHookBySalt(address,bytes32)": {
        "details": "Allows pre-computing appData before order creation. Chunk index is determined      from the order's iterationCount, so the same appData works for all chunks.",
        "params": {
          "salt": "The order salt (known before tx)",
          "user": "The order owner"
        }
      },
      "isValidSignature(bytes32,bytes)": {
        "details": "For non-Safe ERC-1271 contracts, ComposableCoW returns signature as:      abi.encode(GPv2Order.Data, PayloadStruct)      We decode this and verify the order matches what the handler generates."
      },
      "owner()": {
        "details": "Returns the address of the current owner."
      },
      "renounceOwnership()": {
        "details": "Leaves the contract without owner. It will not be possible to call `onlyOwner` functions. Can only be called by the current owner. NOTE: Renouncing ownership will leave the contract without an owner, thereby disabling any functionality that is only available to the owner."
      },
      "transferOwnership(address)": {
        "details": "Transfers ownership of the contract to a new account (`newOwner`). Can only be called by the current owner."
      }
    },
    "stateVariables": {
      "ROUTER_PROTOCOL_HASH": {
        "details": "Constant hash for \"router\" protocol name comparison"
      },
      "preHookExecutedForIteration": {
        "details": "Stores (iterationCount + 1) when pre-hook executed, 0 means no pre-hook pending"
      }
    },
    "title": "KapanOrderManager",
    "version": 1
  },
  "userdoc": {
    "kind": "user",
    "methods": {
      "approveVaultRelayer(address)": {
        "notice": "Approve vault relayer to spend a token"
      },
      "cancelOrder(bytes32)": {
        "notice": "Cancel an active order and refund any remaining seed tokens"
      },
      "composableCoW()": {
        "notice": "The ComposableCoW contract for order registration"
      },
      "createOrder((address,bytes[],uint256,address,address,uint256,uint256,bytes[],uint8,uint256,uint256,bytes32,bool,bool),bytes32,uint256)": {
        "notice": "Create a new CoW order with seed tokens for first chunk"
      },
      "executePostHook(bytes32)": {
        "notice": "Execute post-hook (called by HooksTrampoline during CoW settlement)"
      },
      "executePostHookBySalt(address,bytes32)": {
        "notice": "Execute post-hook using (user, salt) lookup"
      },
      "executePreHook(bytes32)": {
        "notice": "Execute pre-hook (called by HooksTrampoline during CoW settlement)"
      },
      "executePreHookBySalt(address,bytes32)": {
        "notice": "Execute pre-hook using (user, salt) lookup"
      },
      "getOrder(bytes32)": {
        "notice": "Get order context"
      },
      "getUserOrders(address)": {
        "notice": "Get user's orders"
      },
      "hooksTrampoline()": {
        "notice": "The HooksTrampoline contract (caller for hooks)"
      },
      "isOrderComplete(bytes32)": {
        "notice": "Check if an order is complete based on completion criteria"
      },
      "isValidSignature(bytes32,bytes)": {
        "notice": "Verify signature for CoW Protocol orders"
      },
      "orderHandler()": {
        "notice": "The KapanOrderHandler for generating orders"
      },
      "orderSalts(bytes32)": {
        "notice": "Salt used for each order (for ComposableCoW cancellation)"
      },
      "orderSeedBalance(bytes32)": {
        "notice": "Track seed tokens deposited per order for accurate refunds on cancel"
      },
      "orders(bytes32)": {
        "notice": "Order contexts by order hash"
      },
      "preHookExecutedForIteration(bytes32)": {
        "notice": "Track pre-hook execution per order to prevent re-execution"
      },
      "recoverTokens(address,address,uint256)": {
        "notice": "Recover stuck tokens (owner only)"
      },
      "router()": {
        "notice": "The KapanRouter for executing lending operations"
      },
      "settlement()": {
        "notice": "The GPv2Settlement contract"
      },
      "userOrders(address,uint256)": {
        "notice": "User's active orders"
      },
      "userSaltToOrderHash(address,bytes32)": {
        "notice": "Lookup order hash by (user, salt) - enables pre-computing appData"
      }
    },
    "notice": "Manages CoW Protocol orders for Kapan, acting as ERC-1271 signer",
    "version": 1
  },
  "storageLayout": {
    "storage": [
      {
        "astId": 8,
        "contract": "contracts/v2/cow/KapanOrderManager.sol:KapanOrderManager",
        "label": "_owner",
        "offset": 0,
        "slot": "0",
        "type": "t_address"
      },
      {
        "astId": 845,
        "contract": "contracts/v2/cow/KapanOrderManager.sol:KapanOrderManager",
        "label": "_status",
        "offset": 0,
        "slot": "1",
        "type": "t_uint256"
      },
      {
        "astId": 1671,
        "contract": "contracts/v2/cow/KapanOrderManager.sol:KapanOrderManager",
        "label": "router",
        "offset": 0,
        "slot": "2",
        "type": "t_contract(IKapanRouter)1552"
      },
      {
        "astId": 1675,
        "contract": "contracts/v2/cow/KapanOrderManager.sol:KapanOrderManager",
        "label": "composableCoW",
        "offset": 0,
        "slot": "3",
        "type": "t_contract(IComposableCoW)3841"
      },
      {
        "astId": 1679,
        "contract": "contracts/v2/cow/KapanOrderManager.sol:KapanOrderManager",
        "label": "settlement",
        "offset": 0,
        "slot": "4",
        "type": "t_contract(IGPv2Settlement)3981"
      },
      {
        "astId": 1682,
        "contract": "contracts/v2/cow/KapanOrderManager.sol:KapanOrderManager",
        "label": "hooksTrampoline",
        "offset": 0,
        "slot": "5",
        "type": "t_address"
      },
      {
        "astId": 1685,
        "contract": "contracts/v2/cow/KapanOrderManager.sol:KapanOrderManager",
        "label": "orderHandler",
        "offset": 0,
        "slot": "6",
        "type": "t_address"
      },
      {
        "astId": 1691,
        "contract": "contracts/v2/cow/KapanOrderManager.sol:KapanOrderManager",
        "label": "orders",
        "offset": 0,
        "slot": "7",
        "type": "t_mapping(t_bytes32,t_struct(OrderContext)1667_storage)"
      },
      {
        "astId": 1696,
        "contract": "contracts/v2/cow/KapanOrderManager.sol:KapanOrderManager",
        "label": "orderSalts",
        "offset": 0,
        "slot": "8",
        "type": "t_mapping(t_bytes32,t_bytes32)"
      },
      {
        "astId": 1702,
        "contract": "contracts/v2/cow/KapanOrderManager.sol:KapanOrderManager",
        "label": "userOrders",
        "offset": 0,
        "slot": "9",
        "type": "t_mapping(t_address,t_array(t_bytes32)dyn_storage)"
      },
      {
        "astId": 1709,
        "contract": "contracts/v2/cow/KapanOrderManager.sol:KapanOrderManager",
        "label": "userSaltToOrderHash",
        "offset": 0,
        "slot": "10",
        "type": "t_mapping(t_address,t_mapping(t_bytes32,t_bytes32))"
      },
      {
        "astId": 1714,
        "contract": "contracts/v2/cow/KapanOrderManager.sol:KapanOrderManager",
        "label": "preHookExecutedForIteration",
        "offset": 0,
        "slot": "11",
        "type": "t_mapping(t_bytes32,t_uint256)"
      },
      {
        "astId": 1719,
        "contract": "contracts/v2/cow/KapanOrderManager.sol:KapanOrderManager",
        "label": "orderSeedBalance",
        "offset": 0,
        "slot": "12",
        "type": "t_mapping(t_bytes32,t_uint256)"
      }
    ],
    "types": {
      "t_address": {
        "encoding": "inplace",
        "label": "address",
        "numberOfBytes": "20"
      },
      "t_array(t_bytes32)dyn_storage": {
        "base": "t_bytes32",
        "encoding": "dynamic_array",
        "label": "bytes32[]",
        "numberOfBytes": "32"
      },
      "t_array(t_bytes_storage)dyn_storage": {
        "base": "t_bytes_storage",
        "encoding": "dynamic_array",
        "label": "bytes[]",
        "numberOfBytes": "32"
      },
      "t_bool": {
        "encoding": "inplace",
        "label": "bool",
        "numberOfBytes": "1"
      },
      "t_bytes32": {
        "encoding": "inplace",
        "label": "bytes32",
        "numberOfBytes": "32"
      },
      "t_bytes_storage": {
        "encoding": "bytes",
        "label": "bytes",
        "numberOfBytes": "32"
      },
      "t_contract(IComposableCoW)3841": {
        "encoding": "inplace",
        "label": "contract IComposableCoW",
        "numberOfBytes": "20"
      },
      "t_contract(IGPv2Settlement)3981": {
        "encoding": "inplace",
        "label": "contract IGPv2Settlement",
        "numberOfBytes": "20"
      },
      "t_contract(IKapanRouter)1552": {
        "encoding": "inplace",
        "label": "contract IKapanRouter",
        "numberOfBytes": "20"
      },
      "t_enum(CompletionType)1596": {
        "encoding": "inplace",
        "label": "enum KapanOrderManager.CompletionType",
        "numberOfBytes": "1"
      },
      "t_enum(OrderStatus)1601": {
        "encoding": "inplace",
        "label": "enum KapanOrderManager.OrderStatus",
        "numberOfBytes": "1"
      },
      "t_mapping(t_address,t_array(t_bytes32)dyn_storage)": {
        "encoding": "mapping",
        "key": "t_address",
        "label": "mapping(address => bytes32[])",
        "numberOfBytes": "32",
        "value": "t_array(t_bytes32)dyn_storage"
      },
      "t_mapping(t_address,t_mapping(t_bytes32,t_bytes32))": {
        "encoding": "mapping",
        "key": "t_address",
        "label": "mapping(address => mapping(bytes32 => bytes32))",
        "numberOfBytes": "32",
        "value": "t_mapping(t_bytes32,t_bytes32)"
      },
      "t_mapping(t_bytes32,t_bytes32)": {
        "encoding": "mapping",
        "key": "t_bytes32",
        "label": "mapping(bytes32 => bytes32)",
        "numberOfBytes": "32",
        "value": "t_bytes32"
      },
      "t_mapping(t_bytes32,t_struct(OrderContext)1667_storage)": {
        "encoding": "mapping",
        "key": "t_bytes32",
        "label": "mapping(bytes32 => struct KapanOrderManager.OrderContext)",
        "numberOfBytes": "32",
        "value": "t_struct(OrderContext)1667_storage"
      },
      "t_mapping(t_bytes32,t_uint256)": {
        "encoding": "mapping",
        "key": "t_bytes32",
        "label": "mapping(bytes32 => uint256)",
        "numberOfBytes": "32",
        "value": "t_uint256"
      },
      "t_struct(KapanOrderParams)1653_storage": {
        "encoding": "inplace",
        "label": "struct KapanOrderManager.KapanOrderParams",
        "members": [
          {
            "astId": 1623,
            "contract": "contracts/v2/cow/KapanOrderManager.sol:KapanOrderManager",
            "label": "user",
            "offset": 0,
            "slot": "0",
            "type": "t_address"
          },
          {
            "astId": 1626,
            "contract": "contracts/v2/cow/KapanOrderManager.sol:KapanOrderManager",
            "label": "preInstructionsPerIteration",
            "offset": 0,
            "slot": "1",
            "type": "t_array(t_bytes_storage)dyn_storage"
          },
          {
            "astId": 1628,
            "contract": "contracts/v2/cow/KapanOrderManager.sol:KapanOrderManager",
            "label": "preTotalAmount",
            "offset": 0,
            "slot": "2",
            "type": "t_uint256"
          },
          {
            "astId": 1630,
            "contract": "contracts/v2/cow/KapanOrderManager.sol:KapanOrderManager",
            "label": "sellToken",
            "offset": 0,
            "slot": "3",
            "type": "t_address"
          },
          {
            "astId": 1632,
            "contract": "contracts/v2/cow/KapanOrderManager.sol:KapanOrderManager",
            "label": "buyToken",
            "offset": 0,
            "slot": "4",
            "type": "t_address"
          },
          {
            "astId": 1634,
            "contract": "contracts/v2/cow/KapanOrderManager.sol:KapanOrderManager",
            "label": "chunkSize",
            "offset": 0,
            "slot": "5",
            "type": "t_uint256"
          },
          {
            "astId": 1636,
            "contract": "contracts/v2/cow/KapanOrderManager.sol:KapanOrderManager",
            "label": "minBuyPerChunk",
            "offset": 0,
            "slot": "6",
            "type": "t_uint256"
          },
          {
            "astId": 1639,
            "contract": "contracts/v2/cow/KapanOrderManager.sol:KapanOrderManager",
            "label": "postInstructionsPerIteration",
            "offset": 0,
            "slot": "7",
            "type": "t_array(t_bytes_storage)dyn_storage"
          },
          {
            "astId": 1642,
            "contract": "contracts/v2/cow/KapanOrderManager.sol:KapanOrderManager",
            "label": "completion",
            "offset": 0,
            "slot": "8",
            "type": "t_enum(CompletionType)1596"
          },
          {
            "astId": 1644,
            "contract": "contracts/v2/cow/KapanOrderManager.sol:KapanOrderManager",
            "label": "targetValue",
            "offset": 0,
            "slot": "9",
            "type": "t_uint256"
          },
          {
            "astId": 1646,
            "contract": "contracts/v2/cow/KapanOrderManager.sol:KapanOrderManager",
            "label": "minHealthFactor",
            "offset": 0,
            "slot": "10",
            "type": "t_uint256"
          },
          {
            "astId": 1648,
            "contract": "contracts/v2/cow/KapanOrderManager.sol:KapanOrderManager",
            "label": "appDataHash",
            "offset": 0,
            "slot": "11",
            "type": "t_bytes32"
          },
          {
            "astId": 1650,
            "contract": "contracts/v2/cow/KapanOrderManager.sol:KapanOrderManager",
            "label": "isFlashLoanOrder",
            "offset": 0,
            "slot": "12",
            "type": "t_bool"
          },
          {
            "astId": 1652,
            "contract": "contracts/v2/cow/KapanOrderManager.sol:KapanOrderManager",
            "label": "isKindBuy",
            "offset": 1,
            "slot": "12",
            "type": "t_bool"
          }
        ],
        "numberOfBytes": "416"
      },
      "t_struct(OrderContext)1667_storage": {
        "encoding": "inplace",
        "label": "struct KapanOrderManager.OrderContext",
        "members": [
          {
            "astId": 1657,
            "contract": "contracts/v2/cow/KapanOrderManager.sol:KapanOrderManager",
            "label": "params",
            "offset": 0,
            "slot": "0",
            "type": "t_struct(KapanOrderParams)1653_storage"
          },
          {
            "astId": 1660,
            "contract": "contracts/v2/cow/KapanOrderManager.sol:KapanOrderManager",
            "label": "status",
            "offset": 0,
            "slot": "13",
            "type": "t_enum(OrderStatus)1601"
          },
          {
            "astId": 1662,
            "contract": "contracts/v2/cow/KapanOrderManager.sol:KapanOrderManager",
            "label": "executedAmount",
            "offset": 0,
            "slot": "14",
            "type": "t_uint256"
          },
          {
            "astId": 1664,
            "contract": "contracts/v2/cow/KapanOrderManager.sol:KapanOrderManager",
            "label": "iterationCount",
            "offset": 0,
            "slot": "15",
            "type": "t_uint256"
          },
          {
            "astId": 1666,
            "contract": "contracts/v2/cow/KapanOrderManager.sol:KapanOrderManager",
            "label": "createdAt",
            "offset": 0,
            "slot": "16",
            "type": "t_uint256"
          }
        ],
        "numberOfBytes": "544"
      },
      "t_uint256": {
        "encoding": "inplace",
        "label": "uint256",
        "numberOfBytes": "32"
      }
    }
  }
}