{
  "address": "0x06dA05bBc4fE4A65062Ea83fea64b1737098F7e2",
  "abi": [
    {
      "inputs": [
        {
          "internalType": "address",
          "name": "morpho_",
          "type": "address"
        },
        {
          "internalType": "address",
          "name": "owner_",
          "type": "address"
        }
      ],
      "stateMutability": "nonpayable",
      "type": "constructor"
    },
    {
      "inputs": [
        {
          "internalType": "address",
          "name": "owner",
          "type": "address"
        }
      ],
      "name": "OwnableInvalidOwner",
      "type": "error"
    },
    {
      "inputs": [
        {
          "internalType": "address",
          "name": "account",
          "type": "address"
        }
      ],
      "name": "OwnableUnauthorizedAccount",
      "type": "error"
    },
    {
      "anonymous": false,
      "inputs": [
        {
          "indexed": true,
          "internalType": "bytes32",
          "name": "marketId",
          "type": "bytes32"
        },
        {
          "indexed": false,
          "internalType": "address",
          "name": "loanToken",
          "type": "address"
        },
        {
          "indexed": false,
          "internalType": "address",
          "name": "collateralToken",
          "type": "address"
        }
      ],
      "name": "MarketRegistered",
      "type": "event"
    },
    {
      "anonymous": false,
      "inputs": [
        {
          "indexed": true,
          "internalType": "bytes32",
          "name": "marketId",
          "type": "bytes32"
        }
      ],
      "name": "MarketRemoved",
      "type": "event"
    },
    {
      "anonymous": false,
      "inputs": [
        {
          "indexed": true,
          "internalType": "address",
          "name": "previousOwner",
          "type": "address"
        },
        {
          "indexed": true,
          "internalType": "address",
          "name": "newOwner",
          "type": "address"
        }
      ],
      "name": "OwnershipTransferred",
      "type": "event"
    },
    {
      "inputs": [
        {
          "components": [
            {
              "internalType": "address",
              "name": "loanToken",
              "type": "address"
            },
            {
              "internalType": "address",
              "name": "collateralToken",
              "type": "address"
            },
            {
              "internalType": "address",
              "name": "oracle",
              "type": "address"
            },
            {
              "internalType": "address",
              "name": "irm",
              "type": "address"
            },
            {
              "internalType": "uint256",
              "name": "lltv",
              "type": "uint256"
            }
          ],
          "internalType": "struct MarketParams",
          "name": "params",
          "type": "tuple"
        }
      ],
      "name": "computeMarketId",
      "outputs": [
        {
          "internalType": "bytes32",
          "name": "",
          "type": "bytes32"
        }
      ],
      "stateMutability": "pure",
      "type": "function"
    },
    {
      "inputs": [],
      "name": "getAllMarketsInfo",
      "outputs": [
        {
          "components": [
            {
              "internalType": "bytes32",
              "name": "marketId",
              "type": "bytes32"
            },
            {
              "internalType": "address",
              "name": "loanToken",
              "type": "address"
            },
            {
              "internalType": "address",
              "name": "collateralToken",
              "type": "address"
            },
            {
              "internalType": "string",
              "name": "loanSymbol",
              "type": "string"
            },
            {
              "internalType": "string",
              "name": "collateralSymbol",
              "type": "string"
            },
            {
              "internalType": "uint8",
              "name": "loanDecimals",
              "type": "uint8"
            },
            {
              "internalType": "uint8",
              "name": "collateralDecimals",
              "type": "uint8"
            },
            {
              "internalType": "uint256",
              "name": "lltv",
              "type": "uint256"
            },
            {
              "internalType": "uint256",
              "name": "totalSupplyAssets",
              "type": "uint256"
            },
            {
              "internalType": "uint256",
              "name": "totalBorrowAssets",
              "type": "uint256"
            },
            {
              "internalType": "uint256",
              "name": "utilizationRate",
              "type": "uint256"
            },
            {
              "internalType": "uint256",
              "name": "borrowRate",
              "type": "uint256"
            },
            {
              "internalType": "uint256",
              "name": "supplyRate",
              "type": "uint256"
            },
            {
              "internalType": "uint256",
              "name": "oraclePrice",
              "type": "uint256"
            }
          ],
          "internalType": "struct MorphoBlueGatewayView.MarketInfo[]",
          "name": "infos",
          "type": "tuple[]"
        }
      ],
      "stateMutability": "view",
      "type": "function"
    },
    {
      "inputs": [
        {
          "internalType": "address",
          "name": "user",
          "type": "address"
        }
      ],
      "name": "getAllPositions",
      "outputs": [
        {
          "components": [
            {
              "internalType": "bytes32",
              "name": "marketId",
              "type": "bytes32"
            },
            {
              "internalType": "address",
              "name": "loanToken",
              "type": "address"
            },
            {
              "internalType": "address",
              "name": "collateralToken",
              "type": "address"
            },
            {
              "internalType": "uint256",
              "name": "collateralBalance",
              "type": "uint256"
            },
            {
              "internalType": "uint256",
              "name": "borrowBalance",
              "type": "uint256"
            },
            {
              "internalType": "uint256",
              "name": "supplyBalance",
              "type": "uint256"
            },
            {
              "internalType": "uint256",
              "name": "collateralValueUsd",
              "type": "uint256"
            },
            {
              "internalType": "uint256",
              "name": "borrowValueUsd",
              "type": "uint256"
            },
            {
              "internalType": "uint256",
              "name": "currentLtv",
              "type": "uint256"
            },
            {
              "internalType": "uint256",
              "name": "maxLtv",
              "type": "uint256"
            },
            {
              "internalType": "uint256",
              "name": "healthFactor",
              "type": "uint256"
            },
            {
              "internalType": "bool",
              "name": "isHealthy",
              "type": "bool"
            }
          ],
          "internalType": "struct MorphoBlueGatewayView.UserPosition[]",
          "name": "positions",
          "type": "tuple[]"
        }
      ],
      "stateMutability": "view",
      "type": "function"
    },
    {
      "inputs": [
        {
          "components": [
            {
              "internalType": "address",
              "name": "loanToken",
              "type": "address"
            },
            {
              "internalType": "address",
              "name": "collateralToken",
              "type": "address"
            },
            {
              "internalType": "address",
              "name": "oracle",
              "type": "address"
            },
            {
              "internalType": "address",
              "name": "irm",
              "type": "address"
            },
            {
              "internalType": "uint256",
              "name": "lltv",
              "type": "uint256"
            }
          ],
          "internalType": "struct MarketParams",
          "name": "params",
          "type": "tuple"
        }
      ],
      "name": "getBorrowApr",
      "outputs": [
        {
          "internalType": "uint256",
          "name": "",
          "type": "uint256"
        }
      ],
      "stateMutability": "view",
      "type": "function"
    },
    {
      "inputs": [
        {
          "components": [
            {
              "internalType": "address",
              "name": "loanToken",
              "type": "address"
            },
            {
              "internalType": "address",
              "name": "collateralToken",
              "type": "address"
            },
            {
              "internalType": "address",
              "name": "oracle",
              "type": "address"
            },
            {
              "internalType": "address",
              "name": "irm",
              "type": "address"
            },
            {
              "internalType": "uint256",
              "name": "lltv",
              "type": "uint256"
            }
          ],
          "internalType": "struct MarketParams",
          "name": "params",
          "type": "tuple"
        },
        {
          "internalType": "address",
          "name": "user",
          "type": "address"
        }
      ],
      "name": "getBorrowBalance",
      "outputs": [
        {
          "internalType": "uint256",
          "name": "",
          "type": "uint256"
        }
      ],
      "stateMutability": "view",
      "type": "function"
    },
    {
      "inputs": [
        {
          "components": [
            {
              "internalType": "address",
              "name": "loanToken",
              "type": "address"
            },
            {
              "internalType": "address",
              "name": "collateralToken",
              "type": "address"
            },
            {
              "internalType": "address",
              "name": "oracle",
              "type": "address"
            },
            {
              "internalType": "address",
              "name": "irm",
              "type": "address"
            },
            {
              "internalType": "uint256",
              "name": "lltv",
              "type": "uint256"
            }
          ],
          "internalType": "struct MarketParams",
          "name": "params",
          "type": "tuple"
        }
      ],
      "name": "getBorrowRate",
      "outputs": [
        {
          "internalType": "uint256",
          "name": "",
          "type": "uint256"
        }
      ],
      "stateMutability": "view",
      "type": "function"
    },
    {
      "inputs": [
        {
          "components": [
            {
              "internalType": "address",
              "name": "loanToken",
              "type": "address"
            },
            {
              "internalType": "address",
              "name": "collateralToken",
              "type": "address"
            },
            {
              "internalType": "address",
              "name": "oracle",
              "type": "address"
            },
            {
              "internalType": "address",
              "name": "irm",
              "type": "address"
            },
            {
              "internalType": "uint256",
              "name": "lltv",
              "type": "uint256"
            }
          ],
          "internalType": "struct MarketParams",
          "name": "params",
          "type": "tuple"
        },
        {
          "internalType": "address",
          "name": "user",
          "type": "address"
        }
      ],
      "name": "getCollateralBalance",
      "outputs": [
        {
          "internalType": "uint256",
          "name": "",
          "type": "uint256"
        }
      ],
      "stateMutability": "view",
      "type": "function"
    },
    {
      "inputs": [
        {
          "components": [
            {
              "internalType": "address",
              "name": "loanToken",
              "type": "address"
            },
            {
              "internalType": "address",
              "name": "collateralToken",
              "type": "address"
            },
            {
              "internalType": "address",
              "name": "oracle",
              "type": "address"
            },
            {
              "internalType": "address",
              "name": "irm",
              "type": "address"
            },
            {
              "internalType": "uint256",
              "name": "lltv",
              "type": "uint256"
            }
          ],
          "internalType": "struct MarketParams[]",
          "name": "paramsList",
          "type": "tuple[]"
        }
      ],
      "name": "getMarketConfigs",
      "outputs": [
        {
          "components": [
            {
              "internalType": "bytes32",
              "name": "marketId",
              "type": "bytes32"
            },
            {
              "internalType": "address",
              "name": "loanToken",
              "type": "address"
            },
            {
              "internalType": "address",
              "name": "collateralToken",
              "type": "address"
            },
            {
              "internalType": "uint256",
              "name": "lltv",
              "type": "uint256"
            },
            {
              "internalType": "uint256",
              "name": "oraclePrice",
              "type": "uint256"
            },
            {
              "internalType": "uint8",
              "name": "loanDecimals",
              "type": "uint8"
            },
            {
              "internalType": "uint8",
              "name": "collateralDecimals",
              "type": "uint8"
            },
            {
              "internalType": "bool",
              "name": "isActive",
              "type": "bool"
            }
          ],
          "internalType": "struct MorphoBlueGatewayView.MarketConfigData[]",
          "name": "configs",
          "type": "tuple[]"
        }
      ],
      "stateMutability": "view",
      "type": "function"
    },
    {
      "inputs": [
        {
          "components": [
            {
              "internalType": "address",
              "name": "loanToken",
              "type": "address"
            },
            {
              "internalType": "address",
              "name": "collateralToken",
              "type": "address"
            },
            {
              "internalType": "address",
              "name": "oracle",
              "type": "address"
            },
            {
              "internalType": "address",
              "name": "irm",
              "type": "address"
            },
            {
              "internalType": "uint256",
              "name": "lltv",
              "type": "uint256"
            }
          ],
          "internalType": "struct MarketParams",
          "name": "params",
          "type": "tuple"
        }
      ],
      "name": "getMarketInfo",
      "outputs": [
        {
          "components": [
            {
              "internalType": "bytes32",
              "name": "marketId",
              "type": "bytes32"
            },
            {
              "internalType": "address",
              "name": "loanToken",
              "type": "address"
            },
            {
              "internalType": "address",
              "name": "collateralToken",
              "type": "address"
            },
            {
              "internalType": "string",
              "name": "loanSymbol",
              "type": "string"
            },
            {
              "internalType": "string",
              "name": "collateralSymbol",
              "type": "string"
            },
            {
              "internalType": "uint8",
              "name": "loanDecimals",
              "type": "uint8"
            },
            {
              "internalType": "uint8",
              "name": "collateralDecimals",
              "type": "uint8"
            },
            {
              "internalType": "uint256",
              "name": "lltv",
              "type": "uint256"
            },
            {
              "internalType": "uint256",
              "name": "totalSupplyAssets",
              "type": "uint256"
            },
            {
              "internalType": "uint256",
              "name": "totalBorrowAssets",
              "type": "uint256"
            },
            {
              "internalType": "uint256",
              "name": "utilizationRate",
              "type": "uint256"
            },
            {
              "internalType": "uint256",
              "name": "borrowRate",
              "type": "uint256"
            },
            {
              "internalType": "uint256",
              "name": "supplyRate",
              "type": "uint256"
            },
            {
              "internalType": "uint256",
              "name": "oraclePrice",
              "type": "uint256"
            }
          ],
          "internalType": "struct MorphoBlueGatewayView.MarketInfo",
          "name": "info",
          "type": "tuple"
        }
      ],
      "stateMutability": "view",
      "type": "function"
    },
    {
      "inputs": [
        {
          "internalType": "bytes32",
          "name": "marketId",
          "type": "bytes32"
        }
      ],
      "name": "getMarketParams",
      "outputs": [
        {
          "components": [
            {
              "internalType": "address",
              "name": "loanToken",
              "type": "address"
            },
            {
              "internalType": "address",
              "name": "collateralToken",
              "type": "address"
            },
            {
              "internalType": "address",
              "name": "oracle",
              "type": "address"
            },
            {
              "internalType": "address",
              "name": "irm",
              "type": "address"
            },
            {
              "internalType": "uint256",
              "name": "lltv",
              "type": "uint256"
            }
          ],
          "internalType": "struct MarketParams",
          "name": "",
          "type": "tuple"
        }
      ],
      "stateMutability": "view",
      "type": "function"
    },
    {
      "inputs": [
        {
          "components": [
            {
              "internalType": "address",
              "name": "loanToken",
              "type": "address"
            },
            {
              "internalType": "address",
              "name": "collateralToken",
              "type": "address"
            },
            {
              "internalType": "address",
              "name": "oracle",
              "type": "address"
            },
            {
              "internalType": "address",
              "name": "irm",
              "type": "address"
            },
            {
              "internalType": "uint256",
              "name": "lltv",
              "type": "uint256"
            }
          ],
          "internalType": "struct MarketParams",
          "name": "params",
          "type": "tuple"
        }
      ],
      "name": "getMarketState",
      "outputs": [
        {
          "internalType": "uint256",
          "name": "totalSupplyAssets",
          "type": "uint256"
        },
        {
          "internalType": "uint256",
          "name": "totalBorrowAssets",
          "type": "uint256"
        },
        {
          "internalType": "uint256",
          "name": "utilizationRate",
          "type": "uint256"
        }
      ],
      "stateMutability": "view",
      "type": "function"
    },
    {
      "inputs": [
        {
          "components": [
            {
              "internalType": "address",
              "name": "loanToken",
              "type": "address"
            },
            {
              "internalType": "address",
              "name": "collateralToken",
              "type": "address"
            },
            {
              "internalType": "address",
              "name": "oracle",
              "type": "address"
            },
            {
              "internalType": "address",
              "name": "irm",
              "type": "address"
            },
            {
              "internalType": "uint256",
              "name": "lltv",
              "type": "uint256"
            }
          ],
          "internalType": "struct MarketParams",
          "name": "params",
          "type": "tuple"
        }
      ],
      "name": "getOraclePrice",
      "outputs": [
        {
          "internalType": "uint256",
          "name": "",
          "type": "uint256"
        }
      ],
      "stateMutability": "view",
      "type": "function"
    },
    {
      "inputs": [
        {
          "components": [
            {
              "internalType": "address",
              "name": "loanToken",
              "type": "address"
            },
            {
              "internalType": "address",
              "name": "collateralToken",
              "type": "address"
            },
            {
              "internalType": "address",
              "name": "oracle",
              "type": "address"
            },
            {
              "internalType": "address",
              "name": "irm",
              "type": "address"
            },
            {
              "internalType": "uint256",
              "name": "lltv",
              "type": "uint256"
            }
          ],
          "internalType": "struct MarketParams",
          "name": "params",
          "type": "tuple"
        },
        {
          "internalType": "address",
          "name": "user",
          "type": "address"
        }
      ],
      "name": "getPosition",
      "outputs": [
        {
          "components": [
            {
              "internalType": "bytes32",
              "name": "marketId",
              "type": "bytes32"
            },
            {
              "internalType": "address",
              "name": "loanToken",
              "type": "address"
            },
            {
              "internalType": "address",
              "name": "collateralToken",
              "type": "address"
            },
            {
              "internalType": "uint256",
              "name": "collateralBalance",
              "type": "uint256"
            },
            {
              "internalType": "uint256",
              "name": "borrowBalance",
              "type": "uint256"
            },
            {
              "internalType": "uint256",
              "name": "supplyBalance",
              "type": "uint256"
            },
            {
              "internalType": "uint256",
              "name": "collateralValueUsd",
              "type": "uint256"
            },
            {
              "internalType": "uint256",
              "name": "borrowValueUsd",
              "type": "uint256"
            },
            {
              "internalType": "uint256",
              "name": "currentLtv",
              "type": "uint256"
            },
            {
              "internalType": "uint256",
              "name": "maxLtv",
              "type": "uint256"
            },
            {
              "internalType": "uint256",
              "name": "healthFactor",
              "type": "uint256"
            },
            {
              "internalType": "bool",
              "name": "isHealthy",
              "type": "bool"
            }
          ],
          "internalType": "struct MorphoBlueGatewayView.UserPosition",
          "name": "pos",
          "type": "tuple"
        }
      ],
      "stateMutability": "view",
      "type": "function"
    },
    {
      "inputs": [
        {
          "components": [
            {
              "internalType": "address",
              "name": "loanToken",
              "type": "address"
            },
            {
              "internalType": "address",
              "name": "collateralToken",
              "type": "address"
            },
            {
              "internalType": "address",
              "name": "oracle",
              "type": "address"
            },
            {
              "internalType": "address",
              "name": "irm",
              "type": "address"
            },
            {
              "internalType": "uint256",
              "name": "lltv",
              "type": "uint256"
            }
          ],
          "internalType": "struct MarketParams[]",
          "name": "paramsList",
          "type": "tuple[]"
        },
        {
          "internalType": "address",
          "name": "user",
          "type": "address"
        }
      ],
      "name": "getPositionsForMarkets",
      "outputs": [
        {
          "components": [
            {
              "internalType": "bytes32",
              "name": "marketId",
              "type": "bytes32"
            },
            {
              "internalType": "address",
              "name": "loanToken",
              "type": "address"
            },
            {
              "internalType": "address",
              "name": "collateralToken",
              "type": "address"
            },
            {
              "internalType": "uint256",
              "name": "collateralBalance",
              "type": "uint256"
            },
            {
              "internalType": "uint256",
              "name": "borrowBalance",
              "type": "uint256"
            },
            {
              "internalType": "uint256",
              "name": "supplyBalance",
              "type": "uint256"
            },
            {
              "internalType": "uint256",
              "name": "collateralValueUsd",
              "type": "uint256"
            },
            {
              "internalType": "uint256",
              "name": "borrowValueUsd",
              "type": "uint256"
            },
            {
              "internalType": "uint256",
              "name": "currentLtv",
              "type": "uint256"
            },
            {
              "internalType": "uint256",
              "name": "maxLtv",
              "type": "uint256"
            },
            {
              "internalType": "uint256",
              "name": "healthFactor",
              "type": "uint256"
            },
            {
              "internalType": "bool",
              "name": "isHealthy",
              "type": "bool"
            }
          ],
          "internalType": "struct MorphoBlueGatewayView.UserPosition[]",
          "name": "positions",
          "type": "tuple[]"
        }
      ],
      "stateMutability": "view",
      "type": "function"
    },
    {
      "inputs": [],
      "name": "getRegisteredMarketIds",
      "outputs": [
        {
          "internalType": "bytes32[]",
          "name": "",
          "type": "bytes32[]"
        }
      ],
      "stateMutability": "view",
      "type": "function"
    },
    {
      "inputs": [
        {
          "components": [
            {
              "internalType": "address",
              "name": "loanToken",
              "type": "address"
            },
            {
              "internalType": "address",
              "name": "collateralToken",
              "type": "address"
            },
            {
              "internalType": "address",
              "name": "oracle",
              "type": "address"
            },
            {
              "internalType": "address",
              "name": "irm",
              "type": "address"
            },
            {
              "internalType": "uint256",
              "name": "lltv",
              "type": "uint256"
            }
          ],
          "internalType": "struct MarketParams",
          "name": "params",
          "type": "tuple"
        }
      ],
      "name": "getSupplyApr",
      "outputs": [
        {
          "internalType": "uint256",
          "name": "",
          "type": "uint256"
        }
      ],
      "stateMutability": "view",
      "type": "function"
    },
    {
      "inputs": [
        {
          "components": [
            {
              "internalType": "address",
              "name": "loanToken",
              "type": "address"
            },
            {
              "internalType": "address",
              "name": "collateralToken",
              "type": "address"
            },
            {
              "internalType": "address",
              "name": "oracle",
              "type": "address"
            },
            {
              "internalType": "address",
              "name": "irm",
              "type": "address"
            },
            {
              "internalType": "uint256",
              "name": "lltv",
              "type": "uint256"
            }
          ],
          "internalType": "struct MarketParams",
          "name": "params",
          "type": "tuple"
        },
        {
          "internalType": "address",
          "name": "user",
          "type": "address"
        }
      ],
      "name": "getSupplyBalance",
      "outputs": [
        {
          "internalType": "uint256",
          "name": "",
          "type": "uint256"
        }
      ],
      "stateMutability": "view",
      "type": "function"
    },
    {
      "inputs": [
        {
          "internalType": "address",
          "name": "authorizer",
          "type": "address"
        },
        {
          "internalType": "address",
          "name": "authorized",
          "type": "address"
        }
      ],
      "name": "isAuthorized",
      "outputs": [
        {
          "internalType": "bool",
          "name": "",
          "type": "bool"
        }
      ],
      "stateMutability": "view",
      "type": "function"
    },
    {
      "inputs": [
        {
          "internalType": "bytes32",
          "name": "marketId",
          "type": "bytes32"
        }
      ],
      "name": "isMarketRegistered",
      "outputs": [
        {
          "internalType": "bool",
          "name": "",
          "type": "bool"
        }
      ],
      "stateMutability": "view",
      "type": "function"
    },
    {
      "inputs": [],
      "name": "morpho",
      "outputs": [
        {
          "internalType": "contract IMorphoBlue",
          "name": "",
          "type": "address"
        }
      ],
      "stateMutability": "view",
      "type": "function"
    },
    {
      "inputs": [],
      "name": "owner",
      "outputs": [
        {
          "internalType": "address",
          "name": "",
          "type": "address"
        }
      ],
      "stateMutability": "view",
      "type": "function"
    },
    {
      "inputs": [
        {
          "components": [
            {
              "internalType": "address",
              "name": "loanToken",
              "type": "address"
            },
            {
              "internalType": "address",
              "name": "collateralToken",
              "type": "address"
            },
            {
              "internalType": "address",
              "name": "oracle",
              "type": "address"
            },
            {
              "internalType": "address",
              "name": "irm",
              "type": "address"
            },
            {
              "internalType": "uint256",
              "name": "lltv",
              "type": "uint256"
            }
          ],
          "internalType": "struct MarketParams",
          "name": "params",
          "type": "tuple"
        }
      ],
      "name": "registerMarket",
      "outputs": [],
      "stateMutability": "nonpayable",
      "type": "function"
    },
    {
      "inputs": [
        {
          "components": [
            {
              "internalType": "address",
              "name": "loanToken",
              "type": "address"
            },
            {
              "internalType": "address",
              "name": "collateralToken",
              "type": "address"
            },
            {
              "internalType": "address",
              "name": "oracle",
              "type": "address"
            },
            {
              "internalType": "address",
              "name": "irm",
              "type": "address"
            },
            {
              "internalType": "uint256",
              "name": "lltv",
              "type": "uint256"
            }
          ],
          "internalType": "struct MarketParams[]",
          "name": "paramsList",
          "type": "tuple[]"
        }
      ],
      "name": "registerMarkets",
      "outputs": [],
      "stateMutability": "nonpayable",
      "type": "function"
    },
    {
      "inputs": [],
      "name": "registeredMarketCount",
      "outputs": [
        {
          "internalType": "uint256",
          "name": "",
          "type": "uint256"
        }
      ],
      "stateMutability": "view",
      "type": "function"
    },
    {
      "inputs": [],
      "name": "renounceOwnership",
      "outputs": [],
      "stateMutability": "nonpayable",
      "type": "function"
    },
    {
      "inputs": [
        {
          "internalType": "address",
          "name": "newOwner",
          "type": "address"
        }
      ],
      "name": "transferOwnership",
      "outputs": [],
      "stateMutability": "nonpayable",
      "type": "function"
    }
  ],
  "transactionHash": "0x6f32d050db22d061920419d4c340fcf475cb30447a14295ad257eed7d261193e",
  "args": [
    "0x6c247b1F6182318877311737BaC0844bAa518F5e",
    "0x0BE61223F99E57b8b8B7033a77B54Adc7f7cF027"
  ],
  "numDeployments": 3,
  "solcInputHash": "cf5ff5c132e6b3e2cf29e3be8b528fd9",
  "bytecode": "0x60a060405234801561000f575f5ffd5b5060405161355538038061355583398101604081905261002e91610139565b806001600160a01b03811661005d57604051631e4fbdf760e01b81525f60048201526024015b60405180910390fd5b610066816100cf565b506001600160a01b0382166100bd5760405162461bcd60e51b815260206004820152601860248201527f4d6f7270686f426c75653a207a65726f206164647265737300000000000000006044820152606401610054565b506001600160a01b031660805261016a565b5f80546001600160a01b038381166001600160a01b0319831681178455604051919092169283917f8be0079c531659141344cd1fd0a4f28419497f9722a3daafe3b4186f6b6457e09190a35050565b80516001600160a01b0381168114610134575f5ffd5b919050565b5f5f6040838503121561014a575f5ffd5b6101538361011e565b91506101616020840161011e565b90509250929050565b60805161336a6101eb5f395f818161036b0152818161081801528181610a2b01528181610bc101528181610d1e0152818161106401528181611112015281816115f8015281816116d001528181611793015281816118860152818161196501528181611d7a01528181611e3201528181611f6801526120c9015261336a5ff3fe608060405234801561000f575f5ffd5b506004361061013c575f3560e01c8063139df2001461014057806314a1883a1461015e57806320631e091461017f5780632222e4dd14610192578063272513111461019a5780632df3ef2b146101ad578063385ec17e146101c25780633ab24191146101f45780634d0ee9f314610207578063606f76541461022757806365e4ad9e1461023a5780636c1d4e321461024d578063715018a61461026d57806373e3128b146102755780637a49408d1461028a5780637d05ccdf146102aa578063849efd0c146102ca5780638da5cb5b146102f857806393f883391461030d578063a5f565f614610320578063ac0513b214610333578063b512cdfe14610353578063d8fbc83314610366578063eb944b151461038d578063f2fde38b146103a0578063fb11e969146103b3575b5f5ffd5b6101486103c6565b6040516101559190612607565b60405180910390f35b61017161016c366004612680565b610535565b604051908152602001610155565b61017161018d366004612680565b610553565b600154610171565b6101716101a8366004612680565b6105d0565b6101c06101bb3660046126e1565b610670565b005b6101e46101d036600461271f565b5f9081526003602052604090205460ff1690565b6040519015158152602001610155565b610171610202366004612680565b6107bb565b61021a61021536600461271f565b61090e565b6040516101559190612775565b610171610235366004612680565b6109f4565b6101e4610248366004612797565b610ba8565b61026061025b3660046126e1565b610c37565b60405161015591906127ce565b6101c0610fdb565b61027d610fee565b6040516101559190612887565b61029d6102983660046128be565b611044565b604051610155919061297e565b6102bd6102b836600461298d565b6114b6565b60405161015591906129df565b6102dd6102d8366004612680565b6115bf565b60408051938452602084019290925290820152606001610155565b6103006116a9565b6040516101559190612a22565b61017161031b3660046128be565b6116b7565b61017161032e3660046128be565b61186d565b610346610341366004612680565b611927565b6040516101559190612a36565b6101c0610361366004612680565b611c4c565b6103007f000000000000000000000000000000000000000000000000000000000000000081565b61017161039b3660046128be565b611d61565b6101c06103ae366004612a48565b611ee4565b6102bd6103c1366004612a48565b611f21565b6001546060906001600160401b038111156103e3576103e3612a63565b60405190808252806020026020018201604052801561041c57816020015b610409612400565b8152602001906001900390816104015790505b5090505f5b600154811015610531575f60025f6001848154811061044257610442612a77565b5f91825260208083209091015483528281019390935260409182019020815160a08101835281546001600160a01b03908116825260018301548116948201949094526002820154841681840152600382015490931660608401526004908101546080840152905163560289d960e11b8152919250309163ac0513b2916104ca91859101612775565b5f60405180830381865afa1580156104e4573d5f5f3e3d5ffd5b505050506040513d5f823e601f3d908101601f1916820160405261050b9190810190612b7b565b83838151811061051d5761051d612a77565b602090810291909101015250600101610421565b5090565b5f61054d61054836849003840184612cac565b612273565b92915050565b604051633ab2419160e01b81525f9081903090633ab241919061057a908690600401612db1565b602060405180830381865afa158015610595573d5f5f3e3d5ffd5b505050506040513d601f19601f820116820180604052508101906105b99190612dbf565b90506105c9816301e13380612dea565b9392505050565b5f806105e26060840160408501612a48565b6001600160a01b0316036105f757505f919050565b6106076060830160408401612a48565b6001600160a01b031663a035b1fe6040518163ffffffff1660e01b8152600401602060405180830381865afa925050508015610660575060408051601f3d908101601f1916820190925261065d91810190612dbf565b60015b61054d57505f919050565b919050565b6106786122a2565b5f5b818110156107b6575f6106ae84848481811061069857610698612a77565b905060a002018036038101906105489190612cac565b5f8181526003602052604090205490915060ff166107ad576001805480820182555f919091525f5160206133155f395f51905f52018190558383838181106106f8576106f8612a77565b905060a0020160025f8381526020019081526020015f20818161071b9190612e21565b50505f818152600360205260409020805460ff19166001179055805f5160206132f55f395f51905f5285858581811061075657610756612a77565b61076c92602060a0909202019081019150612a48565b86868681811061077e5761077e612a77565b905060a0020160200160208101906107969190612a48565b6040516107a4929190612e99565b60405180910390a25b5060010161067a565b505050565b5f806107cd6080840160608501612a48565b6001600160a01b0316036107e257505f919050565b5f6107f561054836859003850185612cac565b604051632e3071cd60e11b8152600481018290529091505f906001600160a01b037f00000000000000000000000000000000000000000000000000000000000000001690635c60e39a9060240160c060405180830381865afa15801561085d573d5f5f3e3d5ffd5b505050506040513d601f19601f820116820180604052508101906108819190612ec9565b90506108936080850160608601612a48565b6001600160a01b0316638c00bf6b85836040518363ffffffff1660e01b81526004016108c0929190612f67565b602060405180830381865afa9250505080156108f9575060408051601f3d908101601f191682019092526108f691810190612dbf565b60015b61090657505f9392505050565b949350505050565b6040805160a0810182525f808252602082018190529181018290526060810182905260808101919091525f8281526003602052604090205460ff166109975760405162461bcd60e51b815260206004820152601a602482015279135bdc9c1a1bd09b1d594e881b9bdd081c9959da5cdd195c995960321b60448201526064015b60405180910390fd5b505f90815260026020818152604092839020835160a08101855281546001600160a01b0390811682526001830154811693820193909352928101548216938301939093526003830154166060820152600490910154608082015290565b5f80610a0861054836859003850185612cac565b604051632e3071cd60e11b8152600481018290529091505f906001600160a01b037f00000000000000000000000000000000000000000000000000000000000000001690635c60e39a9060240160c060405180830381865afa158015610a70573d5f5f3e3d5ffd5b505050506040513d601f19601f82011682018060405250810190610a949190612ec9565b80519091506001600160801b03165f03610ab157505f9392505050565b6040516320631e0960e01b81525f9030906320631e0990610ad6908890600401612db1565b602060405180830381865afa158015610af1573d5f5f3e3d5ffd5b505050506040513d601f19601f82011682018060405250810190610b159190612dbf565b90505f825f01516001600160801b031683604001516001600160801b0316670de0b6b3a7640000610b469190612dea565b610b509190612fd1565b60a08401519091506001600160801b0316670de0b6b3a764000080610b758382612ff0565b610b7f8587612dea565b610b899190612dea565b610b939190612fd1565b610b9d9190612fd1565b979650505050505050565b6040516332f256cf60e11b81525f906001600160a01b037f000000000000000000000000000000000000000000000000000000000000000016906365e4ad9e90610bf89086908690600401612e99565b602060405180830381865afa158015610c13573d5f5f3e3d5ffd5b505050506040513d601f19601f820116820180604052508101906105c99190613012565b6060816001600160401b03811115610c5157610c51612a63565b604051908082528060200260200182016040528015610cbe57816020015b60408051610100810182525f8082526020808301829052928201819052606082018190526080820181905260a0820181905260c0820181905260e082015282525f19909201910181610c6f5790505b5090505f5b82811015610fd45736848483818110610cde57610cde612a77565b905060a0020190505f610cfb828036038101906105489190612cac565b604051632e3071cd60e11b8152600481018290529091505f906001600160a01b037f00000000000000000000000000000000000000000000000000000000000000001690635c60e39a9060240160c060405180830381865afa158015610d63573d5f5f3e3d5ffd5b505050506040513d601f19601f82011682018060405250810190610d879190612ec9565b905081858581518110610d9c57610d9c612a77565b60209081029190910181015191909152610db890840184612a48565b858581518110610dca57610dca612a77565b6020026020010151602001906001600160a01b031690816001600160a01b031681525050826020016020810190610e019190612a48565b858581518110610e1357610e13612a77565b6020026020010151604001906001600160a01b031690816001600160a01b0316815250508260800135858581518110610e4e57610e4e612a77565b60200260200101516060018181525050610e78835f016020810190610e739190612a48565b6122d4565b858581518110610e8a57610e8a612a77565b602002602001015160a0019060ff16908160ff1681525050610eb8836020016020810190610e739190612a48565b858581518110610eca57610eca612a77565b602002602001015160c0019060ff16908160ff16815250505f815f01516001600160801b031611858581518110610f0357610f03612a77565b602090810291909101015190151560e0909101525f610f286060850160408601612a48565b6001600160a01b031614610fc957610f466060840160408501612a48565b6001600160a01b031663a035b1fe6040518163ffffffff1660e01b8152600401602060405180830381865afa925050508015610f9f575060408051601f3d908101601f19168201909252610f9c91810190612dbf565b60015b15610fc95780868681518110610fb757610fb7612a77565b60200260200101516080018181525050505b505050600101610cc3565b5092915050565b610fe36122a2565b610fec5f61233b565b565b6060600180548060200260200160405190810160405280929190818152602001828054801561103a57602002820191905f5260205f20905b815481526020019060010190808311611026575b5050505050905090565b61104c61247b565b5f61105f61054836869003860186612cac565b90505f7f00000000000000000000000000000000000000000000000000000000000000006001600160a01b03166393c5206283866040518363ffffffff1660e01b81526004016110b092919061302b565b606060405180830381865afa1580156110cb573d5f5f3e3d5ffd5b505050506040513d601f19601f820116820180604052508101906110ef9190613042565b604051632e3071cd60e11b8152600481018490529091505f906001600160a01b037f00000000000000000000000000000000000000000000000000000000000000001690635c60e39a9060240160c060405180830381865afa158015611157573d5f5f3e3d5ffd5b505050506040513d601f19601f8201168201806040525081019061117b9190612ec9565b838552905061118d6020870187612a48565b6001600160a01b03166020808601919091526111af9060408801908801612a48565b6001600160a01b03166040808601919091528201516001600160801b0390811660608601526080870135610120860152602083015116158015906111ff57505f81606001516001600160801b0316115b156112485780606001516001600160801b031681604001516001600160801b031683602001516001600160801b03166112389190612dea565b6112429190612fd1565b60808501525b81511580159061126457505f81602001516001600160801b0316115b15611299576020810151815183516001600160801b0392831692611289921690612dea565b6112939190612fd1565b60a08501525b5f6112aa6060880160408901612a48565b6001600160a01b0316141580156112c457505f8460600151115b15611491576112d96060870160408801612a48565b6001600160a01b031663a035b1fe6040518163ffffffff1660e01b8152600401602060405180830381865afa925050508015611332575060408051601f3d908101601f1916820190925261132f91810190612dbf565b60015b156114ad575f61134b610e7360408a0160208b01612a48565b90505f61135e610e7360208b018b612a48565b90505f6a0c097ce7bc90715b34b9f160241b8489606001516113809190612dea565b61138a9190612fd1565b90508160ff168360ff1611156113c0576113a482846130a6565b6113af90600a6131a2565b6113b99082612fd1565b90506113f0565b8260ff168260ff1611156113f0576113d883836130a6565b6113e390600a6131a2565b6113ed9082612dea565b90505b60c08801819052608088015160e0890152801561148857808860800151670de0b6b3a76400006114209190612dea565b61142a9190612fd1565b6101008901526080880151156114775787608001518a608001358261144f9190612dea565b6114599190612fd1565b6101408901819052670de0b6b3a76400001115610160890152611488565b5f1961014089015260016101608901525b505050506114ad565b83608001515f036114ad575f1961014085015260016101608501525b50505092915050565b6060826001600160401b038111156114d0576114d0612a63565b60405190808252806020026020018201604052801561150957816020015b6114f661247b565b8152602001906001900390816114ee5790505b5090505f5b838110156115b75730637a49408d86868481811061152e5761152e612a77565b905060a00201856040518363ffffffff1660e01b81526004016115529291906131b0565b61018060405180830381865afa15801561156e573d5f5f3e3d5ffd5b505050506040513d601f19601f8201168201806040525081019061159291906131d6565b8282815181106115a4576115a4612a77565b602090810291909101015260010161150e565b509392505050565b5f8080806115d561054836879003870187612cac565b604051632e3071cd60e11b8152600481018290529091505f906001600160a01b037f00000000000000000000000000000000000000000000000000000000000000001690635c60e39a9060240160c060405180830381865afa15801561163d573d5f5f3e3d5ffd5b505050506040513d601f19601f820116820180604052508101906116619190612ec9565b805160408201516001600160801b039182169750169450905084156116a0578461169385670de0b6b3a7640000612dea565b61169d9190612fd1565b92505b50509193909250565b5f546001600160a01b031690565b5f806116cb61054836869003860186612cac565b90505f7f00000000000000000000000000000000000000000000000000000000000000006001600160a01b03166393c5206283866040518363ffffffff1660e01b815260040161171c92919061302b565b606060405180830381865afa158015611737573d5f5f3e3d5ffd5b505050506040513d601f19601f8201168201806040525081019061175b9190613042565b905080602001516001600160801b03165f0361177b575f9250505061054d565b604051632e3071cd60e11b8152600481018390525f907f00000000000000000000000000000000000000000000000000000000000000006001600160a01b031690635c60e39a9060240160c060405180830381865afa1580156117e0573d5f5f3e3d5ffd5b505050506040513d601f19601f820116820180604052508101906118049190612ec9565b905080606001516001600160801b03165f03611825575f935050505061054d565b80606001516001600160801b031681604001516001600160801b031683602001516001600160801b03166118599190612dea565b6118639190612fd1565b9695505050505050565b5f8061188161054836869003860186612cac565b90505f7f00000000000000000000000000000000000000000000000000000000000000006001600160a01b03166393c5206283866040518363ffffffff1660e01b81526004016118d292919061302b565b606060405180830381865afa1580156118ed573d5f5f3e3d5ffd5b505050506040513d601f19601f820116820180604052508101906119119190613042565b604001516001600160801b031695945050505050565b61192f612400565b5f61194261054836859003850185612cac565b604051632e3071cd60e11b8152600481018290529091505f906001600160a01b037f00000000000000000000000000000000000000000000000000000000000000001690635c60e39a9060240160c060405180830381865afa1580156119aa573d5f5f3e3d5ffd5b505050506040513d601f19601f820116820180604052508101906119ce9190612ec9565b82845290506119e06020850185612a48565b6001600160a01b0316602080850191909152611a029060408601908601612a48565b6001600160a01b03166040840152611a20610e736020860186612a48565b60ff1660a0840152611a3b610e736040860160208701612a48565b60ff1660c0840152611a58611a536020860186612a48565b61238a565b6060840152611a70611a536040860160208701612a48565b60808085019190915284013560e084015280516001600160801b039081166101008501526040820151811661012085015281511615611ae057805160408201516001600160801b0391821691611acf9116670de0b6b3a7640000612dea565b611ad99190612fd1565b6101408401525b5f611af16060860160408701612a48565b6001600160a01b031614611b7457611b0f6060850160408601612a48565b6001600160a01b031663a035b1fe6040518163ffffffff1660e01b8152600401602060405180830381865afa925050508015611b68575060408051601f3d908101601f19168201909252611b6591810190612dbf565b60015b15611b74576101a08401525b6040516320631e0960e01b815230906320631e0990611b97908790600401612db1565b602060405180830381865afa158015611bb2573d5f5f3e3d5ffd5b505050506040513d601f19601f82011682018060405250810190611bd69190612dbf565b61016084015260405163181bdd9560e21b8152309063606f765490611bff908790600401612db1565b602060405180830381865afa158015611c1a573d5f5f3e3d5ffd5b505050506040513d601f19601f82011682018060405250810190611c3e9190612dbf565b610180840152509092915050565b611c546122a2565b5f611c6761054836849003840184612cac565b5f8181526003602052604090205490915060ff1615611cc85760405162461bcd60e51b815260206004820152601e60248201527f4d6f7270686f426c75653a20616c726561647920726567697374657265640000604482015260640161098e565b600180548082019091555f5160206133155f395f51905f52018190555f8181526002602052604090208290611cfd8282612e21565b50505f818152600360209081526040909120805460ff1916600117905581905f5160206132f55f395f51905f5290611d3790850185612a48565b611d476040860160208701612a48565b604051611d55929190612e99565b60405180910390a25050565b5f80611d7561054836869003860186612cac565b90505f7f00000000000000000000000000000000000000000000000000000000000000006001600160a01b03166393c5206283866040518363ffffffff1660e01b8152600401611dc692919061302b565b606060405180830381865afa158015611de1573d5f5f3e3d5ffd5b505050506040513d601f19601f82011682018060405250810190611e059190613042565b80519091505f03611e1a575f9250505061054d565b604051632e3071cd60e11b8152600481018390525f907f00000000000000000000000000000000000000000000000000000000000000006001600160a01b031690635c60e39a9060240160c060405180830381865afa158015611e7f573d5f5f3e3d5ffd5b505050506040513d601f19601f82011682018060405250810190611ea39190612ec9565b905080602001516001600160801b03165f03611ec4575f935050505061054d565b6020810151815183516001600160801b0392831692611859921690612dea565b611eec6122a2565b6001600160a01b038116611f15575f604051631e4fbdf760e01b815260040161098e9190612a22565b611f1e8161233b565b50565b60605f805b60015481101561202f575f60018281548110611f4457611f44612a77565b5f9182526020822001546040516349e2903160e11b81529092506001600160a01b037f000000000000000000000000000000000000000000000000000000000000000016906393c5206290611f9f9085908a9060040161302b565b606060405180830381865afa158015611fba573d5f5f3e3d5ffd5b505050506040513d601f19601f82011682018060405250810190611fde9190613042565b90505f81604001516001600160801b0316118061200757505f81602001516001600160801b0316115b806120125750805115155b15612025578361202181613284565b9450505b5050600101611f26565b50806001600160401b0381111561204857612048612a63565b60405190808252806020026020018201604052801561208157816020015b61206e61247b565b8152602001906001900390816120665790505b5091505f805b60015481101561226b575f600182815481106120a5576120a5612a77565b5f9182526020822001546040516349e2903160e11b81529092506001600160a01b037f000000000000000000000000000000000000000000000000000000000000000016906393c52062906121009085908b9060040161302b565b606060405180830381865afa15801561211b573d5f5f3e3d5ffd5b505050506040513d601f19601f8201168201806040525081019061213f9190613042565b90505f81604001516001600160801b0316118061216857505f81602001516001600160801b0316115b806121735750805115155b15612261575f82815260026020818152604092839020835160a08101855281546001600160a01b0390811682526001830154811693820193909352928101548216838501526003810154909116606083015260049081015460808301529151637a49408d60e01b815290913091637a49408d916121f49185918d910161329c565b61018060405180830381865afa158015612210573d5f5f3e3d5ffd5b505050506040513d601f19601f8201168201806040525081019061223491906131d6565b87868151811061224657612246612a77565b6020026020010181905250848061225c90613284565b955050505b5050600101612087565b505050919050565b5f816040516020016122859190612775565b604051602081830303815290604052805190602001209050919050565b336122ab6116a9565b6001600160a01b031614610fec573360405163118cdaa760e01b815260040161098e9190612a22565b5f816001600160a01b031663313ce5676040518163ffffffff1660e01b8152600401602060405180830381865afa92505050801561232f575060408051601f3d908101601f1916820190925261232c918101906132aa565b60015b61054d57506012919050565b5f80546001600160a01b038381166001600160a01b0319831681178455604051919092169283917f8be0079c531659141344cd1fd0a4f28419497f9722a3daafe3b4186f6b6457e09190a35050565b6060816001600160a01b03166395d89b416040518163ffffffff1660e01b81526004015f60405180830381865afa9250505080156123e957506040513d5f823e601f3d908101601f191682016040526123e691908101906132c3565b60015b61054d57505060408051602081019091525f815290565b604051806101c001604052805f81526020015f6001600160a01b031681526020015f6001600160a01b0316815260200160608152602001606081526020015f60ff1681526020015f60ff1681526020015f81526020015f81526020015f81526020015f81526020015f81526020015f81526020015f81525090565b6040518061018001604052805f81526020015f6001600160a01b031681526020015f6001600160a01b031681526020015f81526020015f81526020015f81526020015f81526020015f81526020015f81526020015f81526020015f81526020015f151581525090565b6001600160a01b03169052565b5f81518084528060208401602086015e5f602082860101526020601f19601f83011685010191505092915050565b805182525f602082015161253660208501826124e4565b50604082015161254960408501826124e4565b5060608201516101c060608501526125656101c08501826124f1565b90506080830151848203608086015261257e82826124f1565b91505060a083015161259560a086018260ff169052565b5060c08301516125aa60c086018260ff169052565b5060e083015160e08501526101008301516101008501526101208301516101208501526101408301516101408501526101608301516101608501526101808301516101808501526101a08301516101a08501528091505092915050565b5f602082016020835280845180835260408501915060408160051b8601019250602086015f5b8281101561265e57603f1987860301845261264985835161251f565b9450602093840193919091019060010161262d565b50929695505050505050565b5f60a0828403121561267a575f5ffd5b50919050565b5f60a08284031215612690575f5ffd5b6105c9838361266a565b5f5f83601f8401126126aa575f5ffd5b5081356001600160401b038111156126c0575f5ffd5b60208301915083602060a0830285010111156126da575f5ffd5b9250929050565b5f5f602083850312156126f2575f5ffd5b82356001600160401b03811115612707575f5ffd5b6127138582860161269a565b90969095509350505050565b5f6020828403121561272f575f5ffd5b5035919050565b80516001600160a01b03908116835260208083015182169084015260408083015182169084015260608083015190911690830152608090810151910152565b60a0810161054d8284612736565b6001600160a01b0381168114611f1e575f5ffd5b5f5f604083850312156127a8575f5ffd5b82356127b381612783565b915060208301356127c381612783565b809150509250929050565b602080825282518282018190525f918401906040840190835b8181101561287c5783518051845260018060a01b03602082015116602085015260018060a01b036040820151166040850152606081015160608501526080810151608085015260ff60a08201511660a085015260c081015161284e60c086018260ff169052565b5060e0810151905061286460e085018215159052565b506020939093019261010092909201916001016127e7565b509095945050505050565b602080825282518282018190525f918401906040840190835b8181101561287c5783518352602093840193909201916001016128a0565b5f5f60c083850312156128cf575f5ffd5b6128d9848461266a565b915060a08301356127c381612783565b8051825260208101516128ff60208401826124e4565b50604081015161291260408401826124e4565b50606081015160608301526080810151608083015260a081015160a083015260c081015160c083015260e081015160e08301526101008101516101008301526101208101516101208301526101408101516101408301526101608101516107b661016084018215159052565b610180810161054d82846128e9565b5f5f5f6040848603121561299f575f5ffd5b83356001600160401b038111156129b4575f5ffd5b6129c08682870161269a565b90945092505060208401356129d481612783565b809150509250925092565b602080825282518282018190525f918401906040840190835b8181101561287c57612a0b8385516128e9565b6020939093019261018092909201916001016129f8565b6001600160a01b0391909116815260200190565b602081525f6105c9602083018461251f565b5f60208284031215612a58575f5ffd5b81356105c981612783565b634e487b7160e01b5f52604160045260245ffd5b634e487b7160e01b5f52603260045260245ffd5b6040516101c081016001600160401b0381118282101715612aae57612aae612a63565b60405290565b60405161018081016001600160401b0381118282101715612aae57612aae612a63565b805161066b81612783565b5f82601f830112612af1575f5ffd5b81516001600160401b03811115612b0a57612b0a612a63565b604051601f8201601f19908116603f011681016001600160401b0381118282101715612b3857612b38612a63565b604052818152838201602001851015612b4f575f5ffd5b8160208501602083015e5f918101602001919091529392505050565b805160ff8116811461066b575f5ffd5b5f60208284031215612b8b575f5ffd5b81516001600160401b03811115612ba0575f5ffd5b82016101c08185031215612bb2575f5ffd5b612bba612a8b565b81518152612bca60208301612ad7565b6020820152612bdb60408301612ad7565b604082015260608201516001600160401b03811115612bf8575f5ffd5b612c0486828501612ae2565b60608301525060808201516001600160401b03811115612c22575f5ffd5b612c2e86828501612ae2565b608083015250612c4060a08301612b6b565b60a0820152612c5160c08301612b6b565b60c082015260e08281015190820152610100808301519082015261012080830151908201526101408083015190820152610160808301519082015261018080830151908201526101a091820151918101919091529392505050565b5f60a0828403128015612cbd575f5ffd5b5060405160a081016001600160401b0381118282101715612ce057612ce0612a63565b6040528235612cee81612783565b81526020830135612cfe81612783565b60208201526040830135612d1181612783565b60408201526060830135612d2481612783565b60608201526080928301359281019290925250919050565b8035612d4781612783565b6001600160a01b031682526020810135612d6081612783565b6001600160a01b031660208301526040810135612d7c81612783565b6001600160a01b031660408301526060810135612d9881612783565b6001600160a01b03166060830152608090810135910152565b60a0810161054d8284612d3c565b5f60208284031215612dcf575f5ffd5b5051919050565b634e487b7160e01b5f52601160045260245ffd5b808202811582820484141761054d5761054d612dd6565b80546001600160a01b0319166001600160a01b0392909216919091179055565b8135612e2c81612783565b612e368183612e01565b506020820135612e4581612783565b612e528160018401612e01565b506040820135612e6181612783565b612e6e8160028401612e01565b506060820135612e7d81612783565b612e8a8160038401612e01565b50608082013560048201555050565b6001600160a01b0392831681529116602082015260400190565b80516001600160801b038116811461066b575f5ffd5b5f60c0828403128015612eda575f5ffd5b5060405160c081016001600160401b0381118282101715612efd57612efd612a63565b604052612f0983612eb3565b8152612f1760208401612eb3565b6020820152612f2860408401612eb3565b6040820152612f3960608401612eb3565b6060820152612f4a60808401612eb3565b6080820152612f5b60a08401612eb3565b60a08201529392505050565b6101608101612f768285612d3c565b82516001600160801b0390811660a0848101919091526020850151821660c08501526040850151821660e085015260608501518216610100850152608085015182166101208501529093015190921661014090910152919050565b5f82612feb57634e487b7160e01b5f52601260045260245ffd5b500490565b8181038181111561054d5761054d612dd6565b8051801515811461066b575f5ffd5b5f60208284031215613022575f5ffd5b6105c982613003565b9182526001600160a01b0316602082015260400190565b5f6060828403128015613053575f5ffd5b50604051606081016001600160401b038111828210171561307657613076612a63565b6040528251815261308960208401612eb3565b602082015261309a60408401612eb3565b60408201529392505050565b60ff828116828216039081111561054d5761054d612dd6565b6001815b60018411156130fa578085048111156130de576130de612dd6565b60018416156130ec57908102905b60019390931c9280026130c3565b935093915050565b5f826131105750600161054d565b8161311c57505f61054d565b8160018114613132576002811461313c57613158565b600191505061054d565b60ff84111561314d5761314d612dd6565b50506001821b61054d565b5060208310610133831016604e8410600b841016171561317b575081810a61054d565b6131875f1984846130bf565b805f190482111561319a5761319a612dd6565b029392505050565b5f6105c960ff841683613102565b60c081016131be8285612d3c565b6001600160a01b039290921660a09190910152919050565b5f6101808284031280156131e8575f5ffd5b506131f1612ab4565b8251815261320160208401612ad7565b602082015261321260408401612ad7565b6040820152606083810151908201526080808401519082015260a0808401519082015260c0808401519082015260e080840151908201526101008084015190820152610120808401519082015261014080840151908201526132776101608401613003565b6101608201529392505050565b5f6001820161329557613295612dd6565b5060010190565b60c081016131be8285612736565b5f602082840312156132ba575f5ffd5b6105c982612b6b565b5f602082840312156132d3575f5ffd5b81516001600160401b038111156132e8575f5ffd5b61090684828501612ae256fe393bf4ff2983ac2030da8f04a013ff4ac3176d2440549a516edff6f881c4db3bb10e2d527612073b26eecdfd717e6a320cf44b4afac2b0732d9fcbe2b7fa0cf6a26469706673582212201a14e3fd5ba3a1daec753622c34c63d9c7dcbbc69762bf5a1ae5c0fd8b7c82de64736f6c634300081e0033",
  "devdoc": {
    "details": "Provides utility functions for reading user balances, market state, and risk parameters      Designed for frontend parity with Aave/Compound view gateways",
    "errors": {
      "OwnableInvalidOwner(address)": [
        {
          "details": "The owner is not a valid owner account. (eg. `address(0)`)"
        }
      ],
      "OwnableUnauthorizedAccount(address)": [
        {
          "details": "The caller account is not authorized to perform an operation."
        }
      ]
    },
    "kind": "dev",
    "methods": {
      "getOraclePrice((address,address,address,address,uint256))": {
        "details": "Returns price as collateral/loan with 36 decimals"
      },
      "getSupplyApr((address,address,address,address,uint256))": {
        "details": "Supply APR = Borrow APR * Utilization * (1 - fee)"
      },
      "owner()": {
        "details": "Returns the address of the current owner."
      },
      "renounceOwnership()": {
        "details": "Leaves the contract without owner. It will not be possible to call `onlyOwner` functions. Can only be called by the current owner. NOTE: Renouncing ownership will leave the contract without an owner, thereby disabling any functionality that is only available to the owner."
      },
      "transferOwnership(address)": {
        "details": "Transfers ownership of the contract to a new account (`newOwner`). Can only be called by the current owner."
      }
    },
    "title": "MorphoBlueGatewayView",
    "version": 1
  },
  "userdoc": {
    "kind": "user",
    "methods": {
      "computeMarketId((address,address,address,address,uint256))": {
        "notice": "Compute market ID from params"
      },
      "getAllMarketsInfo()": {
        "notice": "Get info for all registered markets"
      },
      "getAllPositions(address)": {
        "notice": "Get positions for a user across all registered markets"
      },
      "getBorrowApr((address,address,address,address,uint256))": {
        "notice": "Get borrow APR for a market (annualized, scaled to 1e18)"
      },
      "getBorrowBalance((address,address,address,address,uint256),address)": {
        "notice": "Get user's borrow balance in a market (converts shares to assets)"
      },
      "getBorrowRate((address,address,address,address,uint256))": {
        "notice": "Get borrow rate for a market (per second, scaled to 1e18)"
      },
      "getCollateralBalance((address,address,address,address,uint256),address)": {
        "notice": "Get user's collateral balance in a market"
      },
      "getMarketConfigs((address,address,address,address,uint256)[])": {
        "notice": "Get market config data (similar to Aave's getReserveConfigs)"
      },
      "getMarketInfo((address,address,address,address,uint256))": {
        "notice": "Get comprehensive info for a single market"
      },
      "getMarketParams(bytes32)": {
        "notice": "Get market params by ID"
      },
      "getMarketState((address,address,address,address,uint256))": {
        "notice": "Get market state"
      },
      "getOraclePrice((address,address,address,address,uint256))": {
        "notice": "Get oracle price for a market"
      },
      "getPosition((address,address,address,address,uint256),address)": {
        "notice": "Get user's full position in a market with risk metrics"
      },
      "getPositionsForMarkets((address,address,address,address,uint256)[],address)": {
        "notice": "Get positions for specific markets"
      },
      "getRegisteredMarketIds()": {
        "notice": "Get all registered market IDs"
      },
      "getSupplyApr((address,address,address,address,uint256))": {
        "notice": "Get supply APR for a market (annualized, scaled to 1e18)"
      },
      "getSupplyBalance((address,address,address,address,uint256),address)": {
        "notice": "Get user's supply balance in a market (lender side, converts shares to assets)"
      },
      "isAuthorized(address,address)": {
        "notice": "Check if a user is authorized to act on behalf of another"
      },
      "isMarketRegistered(bytes32)": {
        "notice": "Check if a market is registered"
      },
      "morpho()": {
        "notice": "The Morpho Blue singleton contract"
      },
      "registerMarket((address,address,address,address,uint256))": {
        "notice": "Register a market for enumeration"
      },
      "registerMarkets((address,address,address,address,uint256)[])": {
        "notice": "Register multiple markets at once"
      },
      "registeredMarketCount()": {
        "notice": "Get number of registered markets"
      }
    },
    "notice": "View-only gateway for querying Morpho Blue positions and market data",
    "version": 1
  },
  "storageLayout": {
    "storage": [
      {
        "astId": 1578,
        "contract": "contracts/v2/gateways/morpho/MorphoBlueGatewayView.sol:MorphoBlueGatewayView",
        "label": "_owner",
        "offset": 0,
        "slot": "0",
        "type": "t_address"
      },
      {
        "astId": 21987,
        "contract": "contracts/v2/gateways/morpho/MorphoBlueGatewayView.sol:MorphoBlueGatewayView",
        "label": "_registeredMarketIds",
        "offset": 0,
        "slot": "1",
        "type": "t_array(t_bytes32)dyn_storage"
      },
      {
        "astId": 21992,
        "contract": "contracts/v2/gateways/morpho/MorphoBlueGatewayView.sol:MorphoBlueGatewayView",
        "label": "_marketParams",
        "offset": 0,
        "slot": "2",
        "type": "t_mapping(t_bytes32,t_struct(MarketParams)32001_storage)"
      },
      {
        "astId": 21996,
        "contract": "contracts/v2/gateways/morpho/MorphoBlueGatewayView.sol:MorphoBlueGatewayView",
        "label": "_isRegistered",
        "offset": 0,
        "slot": "3",
        "type": "t_mapping(t_bytes32,t_bool)"
      }
    ],
    "types": {
      "t_address": {
        "encoding": "inplace",
        "label": "address",
        "numberOfBytes": "20"
      },
      "t_array(t_bytes32)dyn_storage": {
        "base": "t_bytes32",
        "encoding": "dynamic_array",
        "label": "bytes32[]",
        "numberOfBytes": "32"
      },
      "t_bool": {
        "encoding": "inplace",
        "label": "bool",
        "numberOfBytes": "1"
      },
      "t_bytes32": {
        "encoding": "inplace",
        "label": "bytes32",
        "numberOfBytes": "32"
      },
      "t_mapping(t_bytes32,t_bool)": {
        "encoding": "mapping",
        "key": "t_bytes32",
        "label": "mapping(bytes32 => bool)",
        "numberOfBytes": "32",
        "value": "t_bool"
      },
      "t_mapping(t_bytes32,t_struct(MarketParams)32001_storage)": {
        "encoding": "mapping",
        "key": "t_bytes32",
        "label": "mapping(bytes32 => struct MarketParams)",
        "numberOfBytes": "32",
        "value": "t_struct(MarketParams)32001_storage"
      },
      "t_struct(MarketParams)32001_storage": {
        "encoding": "inplace",
        "label": "struct MarketParams",
        "members": [
          {
            "astId": 31992,
            "contract": "contracts/v2/gateways/morpho/MorphoBlueGatewayView.sol:MorphoBlueGatewayView",
            "label": "loanToken",
            "offset": 0,
            "slot": "0",
            "type": "t_address"
          },
          {
            "astId": 31994,
            "contract": "contracts/v2/gateways/morpho/MorphoBlueGatewayView.sol:MorphoBlueGatewayView",
            "label": "collateralToken",
            "offset": 0,
            "slot": "1",
            "type": "t_address"
          },
          {
            "astId": 31996,
            "contract": "contracts/v2/gateways/morpho/MorphoBlueGatewayView.sol:MorphoBlueGatewayView",
            "label": "oracle",
            "offset": 0,
            "slot": "2",
            "type": "t_address"
          },
          {
            "astId": 31998,
            "contract": "contracts/v2/gateways/morpho/MorphoBlueGatewayView.sol:MorphoBlueGatewayView",
            "label": "irm",
            "offset": 0,
            "slot": "3",
            "type": "t_address"
          },
          {
            "astId": 32000,
            "contract": "contracts/v2/gateways/morpho/MorphoBlueGatewayView.sol:MorphoBlueGatewayView",
            "label": "lltv",
            "offset": 0,
            "slot": "4",
            "type": "t_uint256"
          }
        ],
        "numberOfBytes": "160"
      },
      "t_uint256": {
        "encoding": "inplace",
        "label": "uint256",
        "numberOfBytes": "32"
      }
    }
  }
}