{
  "address": "0x05264c8935421f93D7fbce40972AD99570612854",
  "abi": [
    {
      "inputs": [
        {
          "internalType": "address",
          "name": "morpho_",
          "type": "address"
        },
        {
          "internalType": "address",
          "name": "owner_",
          "type": "address"
        }
      ],
      "stateMutability": "nonpayable",
      "type": "constructor"
    },
    {
      "inputs": [
        {
          "internalType": "address",
          "name": "owner",
          "type": "address"
        }
      ],
      "name": "OwnableInvalidOwner",
      "type": "error"
    },
    {
      "inputs": [
        {
          "internalType": "address",
          "name": "account",
          "type": "address"
        }
      ],
      "name": "OwnableUnauthorizedAccount",
      "type": "error"
    },
    {
      "anonymous": false,
      "inputs": [
        {
          "indexed": true,
          "internalType": "bytes32",
          "name": "marketId",
          "type": "bytes32"
        },
        {
          "indexed": false,
          "internalType": "address",
          "name": "loanToken",
          "type": "address"
        },
        {
          "indexed": false,
          "internalType": "address",
          "name": "collateralToken",
          "type": "address"
        }
      ],
      "name": "MarketRegistered",
      "type": "event"
    },
    {
      "anonymous": false,
      "inputs": [
        {
          "indexed": true,
          "internalType": "bytes32",
          "name": "marketId",
          "type": "bytes32"
        }
      ],
      "name": "MarketRemoved",
      "type": "event"
    },
    {
      "anonymous": false,
      "inputs": [
        {
          "indexed": true,
          "internalType": "address",
          "name": "previousOwner",
          "type": "address"
        },
        {
          "indexed": true,
          "internalType": "address",
          "name": "newOwner",
          "type": "address"
        }
      ],
      "name": "OwnershipTransferred",
      "type": "event"
    },
    {
      "inputs": [
        {
          "components": [
            {
              "internalType": "address",
              "name": "loanToken",
              "type": "address"
            },
            {
              "internalType": "address",
              "name": "collateralToken",
              "type": "address"
            },
            {
              "internalType": "address",
              "name": "oracle",
              "type": "address"
            },
            {
              "internalType": "address",
              "name": "irm",
              "type": "address"
            },
            {
              "internalType": "uint256",
              "name": "lltv",
              "type": "uint256"
            }
          ],
          "internalType": "struct MarketParams",
          "name": "params",
          "type": "tuple"
        }
      ],
      "name": "computeMarketId",
      "outputs": [
        {
          "internalType": "bytes32",
          "name": "",
          "type": "bytes32"
        }
      ],
      "stateMutability": "pure",
      "type": "function"
    },
    {
      "inputs": [],
      "name": "getAllMarketsInfo",
      "outputs": [
        {
          "components": [
            {
              "internalType": "bytes32",
              "name": "marketId",
              "type": "bytes32"
            },
            {
              "internalType": "address",
              "name": "loanToken",
              "type": "address"
            },
            {
              "internalType": "address",
              "name": "collateralToken",
              "type": "address"
            },
            {
              "internalType": "string",
              "name": "loanSymbol",
              "type": "string"
            },
            {
              "internalType": "string",
              "name": "collateralSymbol",
              "type": "string"
            },
            {
              "internalType": "uint8",
              "name": "loanDecimals",
              "type": "uint8"
            },
            {
              "internalType": "uint8",
              "name": "collateralDecimals",
              "type": "uint8"
            },
            {
              "internalType": "uint256",
              "name": "lltv",
              "type": "uint256"
            },
            {
              "internalType": "uint256",
              "name": "totalSupplyAssets",
              "type": "uint256"
            },
            {
              "internalType": "uint256",
              "name": "totalBorrowAssets",
              "type": "uint256"
            },
            {
              "internalType": "uint256",
              "name": "utilizationRate",
              "type": "uint256"
            },
            {
              "internalType": "uint256",
              "name": "borrowRate",
              "type": "uint256"
            },
            {
              "internalType": "uint256",
              "name": "supplyRate",
              "type": "uint256"
            },
            {
              "internalType": "uint256",
              "name": "oraclePrice",
              "type": "uint256"
            }
          ],
          "internalType": "struct MorphoBlueGatewayView.MarketInfo[]",
          "name": "infos",
          "type": "tuple[]"
        }
      ],
      "stateMutability": "view",
      "type": "function"
    },
    {
      "inputs": [
        {
          "internalType": "address",
          "name": "user",
          "type": "address"
        }
      ],
      "name": "getAllPositions",
      "outputs": [
        {
          "components": [
            {
              "internalType": "bytes32",
              "name": "marketId",
              "type": "bytes32"
            },
            {
              "internalType": "address",
              "name": "loanToken",
              "type": "address"
            },
            {
              "internalType": "address",
              "name": "collateralToken",
              "type": "address"
            },
            {
              "internalType": "uint256",
              "name": "collateralBalance",
              "type": "uint256"
            },
            {
              "internalType": "uint256",
              "name": "borrowBalance",
              "type": "uint256"
            },
            {
              "internalType": "uint256",
              "name": "supplyBalance",
              "type": "uint256"
            },
            {
              "internalType": "uint256",
              "name": "collateralValueUsd",
              "type": "uint256"
            },
            {
              "internalType": "uint256",
              "name": "borrowValueUsd",
              "type": "uint256"
            },
            {
              "internalType": "uint256",
              "name": "currentLtv",
              "type": "uint256"
            },
            {
              "internalType": "uint256",
              "name": "maxLtv",
              "type": "uint256"
            },
            {
              "internalType": "uint256",
              "name": "healthFactor",
              "type": "uint256"
            },
            {
              "internalType": "bool",
              "name": "isHealthy",
              "type": "bool"
            }
          ],
          "internalType": "struct MorphoBlueGatewayView.UserPosition[]",
          "name": "positions",
          "type": "tuple[]"
        }
      ],
      "stateMutability": "view",
      "type": "function"
    },
    {
      "inputs": [
        {
          "components": [
            {
              "internalType": "address",
              "name": "loanToken",
              "type": "address"
            },
            {
              "internalType": "address",
              "name": "collateralToken",
              "type": "address"
            },
            {
              "internalType": "address",
              "name": "oracle",
              "type": "address"
            },
            {
              "internalType": "address",
              "name": "irm",
              "type": "address"
            },
            {
              "internalType": "uint256",
              "name": "lltv",
              "type": "uint256"
            }
          ],
          "internalType": "struct MarketParams",
          "name": "params",
          "type": "tuple"
        }
      ],
      "name": "getBorrowApr",
      "outputs": [
        {
          "internalType": "uint256",
          "name": "",
          "type": "uint256"
        }
      ],
      "stateMutability": "view",
      "type": "function"
    },
    {
      "inputs": [
        {
          "components": [
            {
              "internalType": "address",
              "name": "loanToken",
              "type": "address"
            },
            {
              "internalType": "address",
              "name": "collateralToken",
              "type": "address"
            },
            {
              "internalType": "address",
              "name": "oracle",
              "type": "address"
            },
            {
              "internalType": "address",
              "name": "irm",
              "type": "address"
            },
            {
              "internalType": "uint256",
              "name": "lltv",
              "type": "uint256"
            }
          ],
          "internalType": "struct MarketParams",
          "name": "params",
          "type": "tuple"
        },
        {
          "internalType": "address",
          "name": "user",
          "type": "address"
        }
      ],
      "name": "getBorrowBalance",
      "outputs": [
        {
          "internalType": "uint256",
          "name": "",
          "type": "uint256"
        }
      ],
      "stateMutability": "view",
      "type": "function"
    },
    {
      "inputs": [
        {
          "components": [
            {
              "internalType": "address",
              "name": "loanToken",
              "type": "address"
            },
            {
              "internalType": "address",
              "name": "collateralToken",
              "type": "address"
            },
            {
              "internalType": "address",
              "name": "oracle",
              "type": "address"
            },
            {
              "internalType": "address",
              "name": "irm",
              "type": "address"
            },
            {
              "internalType": "uint256",
              "name": "lltv",
              "type": "uint256"
            }
          ],
          "internalType": "struct MarketParams",
          "name": "params",
          "type": "tuple"
        }
      ],
      "name": "getBorrowRate",
      "outputs": [
        {
          "internalType": "uint256",
          "name": "",
          "type": "uint256"
        }
      ],
      "stateMutability": "view",
      "type": "function"
    },
    {
      "inputs": [
        {
          "components": [
            {
              "internalType": "address",
              "name": "loanToken",
              "type": "address"
            },
            {
              "internalType": "address",
              "name": "collateralToken",
              "type": "address"
            },
            {
              "internalType": "address",
              "name": "oracle",
              "type": "address"
            },
            {
              "internalType": "address",
              "name": "irm",
              "type": "address"
            },
            {
              "internalType": "uint256",
              "name": "lltv",
              "type": "uint256"
            }
          ],
          "internalType": "struct MarketParams",
          "name": "params",
          "type": "tuple"
        },
        {
          "internalType": "address",
          "name": "user",
          "type": "address"
        }
      ],
      "name": "getCollateralBalance",
      "outputs": [
        {
          "internalType": "uint256",
          "name": "",
          "type": "uint256"
        }
      ],
      "stateMutability": "view",
      "type": "function"
    },
    {
      "inputs": [
        {
          "components": [
            {
              "internalType": "address",
              "name": "loanToken",
              "type": "address"
            },
            {
              "internalType": "address",
              "name": "collateralToken",
              "type": "address"
            },
            {
              "internalType": "address",
              "name": "oracle",
              "type": "address"
            },
            {
              "internalType": "address",
              "name": "irm",
              "type": "address"
            },
            {
              "internalType": "uint256",
              "name": "lltv",
              "type": "uint256"
            }
          ],
          "internalType": "struct MarketParams",
          "name": "params",
          "type": "tuple"
        },
        {
          "internalType": "address",
          "name": "user",
          "type": "address"
        }
      ],
      "name": "getCurrentLtvBps",
      "outputs": [
        {
          "internalType": "uint256",
          "name": "",
          "type": "uint256"
        }
      ],
      "stateMutability": "view",
      "type": "function"
    },
    {
      "inputs": [
        {
          "components": [
            {
              "internalType": "address",
              "name": "loanToken",
              "type": "address"
            },
            {
              "internalType": "address",
              "name": "collateralToken",
              "type": "address"
            },
            {
              "internalType": "address",
              "name": "oracle",
              "type": "address"
            },
            {
              "internalType": "address",
              "name": "irm",
              "type": "address"
            },
            {
              "internalType": "uint256",
              "name": "lltv",
              "type": "uint256"
            }
          ],
          "internalType": "struct MarketParams",
          "name": "params",
          "type": "tuple"
        }
      ],
      "name": "getLiquidationLtvBps",
      "outputs": [
        {
          "internalType": "uint256",
          "name": "",
          "type": "uint256"
        }
      ],
      "stateMutability": "pure",
      "type": "function"
    },
    {
      "inputs": [
        {
          "components": [
            {
              "internalType": "address",
              "name": "loanToken",
              "type": "address"
            },
            {
              "internalType": "address",
              "name": "collateralToken",
              "type": "address"
            },
            {
              "internalType": "address",
              "name": "oracle",
              "type": "address"
            },
            {
              "internalType": "address",
              "name": "irm",
              "type": "address"
            },
            {
              "internalType": "uint256",
              "name": "lltv",
              "type": "uint256"
            }
          ],
          "internalType": "struct MarketParams[]",
          "name": "paramsList",
          "type": "tuple[]"
        }
      ],
      "name": "getMarketConfigs",
      "outputs": [
        {
          "components": [
            {
              "internalType": "bytes32",
              "name": "marketId",
              "type": "bytes32"
            },
            {
              "internalType": "address",
              "name": "loanToken",
              "type": "address"
            },
            {
              "internalType": "address",
              "name": "collateralToken",
              "type": "address"
            },
            {
              "internalType": "uint256",
              "name": "lltv",
              "type": "uint256"
            },
            {
              "internalType": "uint256",
              "name": "oraclePrice",
              "type": "uint256"
            },
            {
              "internalType": "uint8",
              "name": "loanDecimals",
              "type": "uint8"
            },
            {
              "internalType": "uint8",
              "name": "collateralDecimals",
              "type": "uint8"
            },
            {
              "internalType": "bool",
              "name": "isActive",
              "type": "bool"
            }
          ],
          "internalType": "struct MorphoBlueGatewayView.MarketConfigData[]",
          "name": "configs",
          "type": "tuple[]"
        }
      ],
      "stateMutability": "view",
      "type": "function"
    },
    {
      "inputs": [
        {
          "components": [
            {
              "internalType": "address",
              "name": "loanToken",
              "type": "address"
            },
            {
              "internalType": "address",
              "name": "collateralToken",
              "type": "address"
            },
            {
              "internalType": "address",
              "name": "oracle",
              "type": "address"
            },
            {
              "internalType": "address",
              "name": "irm",
              "type": "address"
            },
            {
              "internalType": "uint256",
              "name": "lltv",
              "type": "uint256"
            }
          ],
          "internalType": "struct MarketParams",
          "name": "params",
          "type": "tuple"
        }
      ],
      "name": "getMarketInfo",
      "outputs": [
        {
          "components": [
            {
              "internalType": "bytes32",
              "name": "marketId",
              "type": "bytes32"
            },
            {
              "internalType": "address",
              "name": "loanToken",
              "type": "address"
            },
            {
              "internalType": "address",
              "name": "collateralToken",
              "type": "address"
            },
            {
              "internalType": "string",
              "name": "loanSymbol",
              "type": "string"
            },
            {
              "internalType": "string",
              "name": "collateralSymbol",
              "type": "string"
            },
            {
              "internalType": "uint8",
              "name": "loanDecimals",
              "type": "uint8"
            },
            {
              "internalType": "uint8",
              "name": "collateralDecimals",
              "type": "uint8"
            },
            {
              "internalType": "uint256",
              "name": "lltv",
              "type": "uint256"
            },
            {
              "internalType": "uint256",
              "name": "totalSupplyAssets",
              "type": "uint256"
            },
            {
              "internalType": "uint256",
              "name": "totalBorrowAssets",
              "type": "uint256"
            },
            {
              "internalType": "uint256",
              "name": "utilizationRate",
              "type": "uint256"
            },
            {
              "internalType": "uint256",
              "name": "borrowRate",
              "type": "uint256"
            },
            {
              "internalType": "uint256",
              "name": "supplyRate",
              "type": "uint256"
            },
            {
              "internalType": "uint256",
              "name": "oraclePrice",
              "type": "uint256"
            }
          ],
          "internalType": "struct MorphoBlueGatewayView.MarketInfo",
          "name": "info",
          "type": "tuple"
        }
      ],
      "stateMutability": "view",
      "type": "function"
    },
    {
      "inputs": [
        {
          "internalType": "bytes32",
          "name": "marketId",
          "type": "bytes32"
        }
      ],
      "name": "getMarketParams",
      "outputs": [
        {
          "components": [
            {
              "internalType": "address",
              "name": "loanToken",
              "type": "address"
            },
            {
              "internalType": "address",
              "name": "collateralToken",
              "type": "address"
            },
            {
              "internalType": "address",
              "name": "oracle",
              "type": "address"
            },
            {
              "internalType": "address",
              "name": "irm",
              "type": "address"
            },
            {
              "internalType": "uint256",
              "name": "lltv",
              "type": "uint256"
            }
          ],
          "internalType": "struct MarketParams",
          "name": "",
          "type": "tuple"
        }
      ],
      "stateMutability": "view",
      "type": "function"
    },
    {
      "inputs": [
        {
          "components": [
            {
              "internalType": "address",
              "name": "loanToken",
              "type": "address"
            },
            {
              "internalType": "address",
              "name": "collateralToken",
              "type": "address"
            },
            {
              "internalType": "address",
              "name": "oracle",
              "type": "address"
            },
            {
              "internalType": "address",
              "name": "irm",
              "type": "address"
            },
            {
              "internalType": "uint256",
              "name": "lltv",
              "type": "uint256"
            }
          ],
          "internalType": "struct MarketParams",
          "name": "params",
          "type": "tuple"
        }
      ],
      "name": "getMarketState",
      "outputs": [
        {
          "internalType": "uint256",
          "name": "totalSupplyAssets",
          "type": "uint256"
        },
        {
          "internalType": "uint256",
          "name": "totalBorrowAssets",
          "type": "uint256"
        },
        {
          "internalType": "uint256",
          "name": "utilizationRate",
          "type": "uint256"
        }
      ],
      "stateMutability": "view",
      "type": "function"
    },
    {
      "inputs": [
        {
          "components": [
            {
              "internalType": "address",
              "name": "loanToken",
              "type": "address"
            },
            {
              "internalType": "address",
              "name": "collateralToken",
              "type": "address"
            },
            {
              "internalType": "address",
              "name": "oracle",
              "type": "address"
            },
            {
              "internalType": "address",
              "name": "irm",
              "type": "address"
            },
            {
              "internalType": "uint256",
              "name": "lltv",
              "type": "uint256"
            }
          ],
          "internalType": "struct MarketParams",
          "name": "params",
          "type": "tuple"
        }
      ],
      "name": "getOraclePrice",
      "outputs": [
        {
          "internalType": "uint256",
          "name": "",
          "type": "uint256"
        }
      ],
      "stateMutability": "view",
      "type": "function"
    },
    {
      "inputs": [
        {
          "components": [
            {
              "internalType": "address",
              "name": "loanToken",
              "type": "address"
            },
            {
              "internalType": "address",
              "name": "collateralToken",
              "type": "address"
            },
            {
              "internalType": "address",
              "name": "oracle",
              "type": "address"
            },
            {
              "internalType": "address",
              "name": "irm",
              "type": "address"
            },
            {
              "internalType": "uint256",
              "name": "lltv",
              "type": "uint256"
            }
          ],
          "internalType": "struct MarketParams",
          "name": "params",
          "type": "tuple"
        },
        {
          "internalType": "address",
          "name": "user",
          "type": "address"
        }
      ],
      "name": "getPosition",
      "outputs": [
        {
          "components": [
            {
              "internalType": "bytes32",
              "name": "marketId",
              "type": "bytes32"
            },
            {
              "internalType": "address",
              "name": "loanToken",
              "type": "address"
            },
            {
              "internalType": "address",
              "name": "collateralToken",
              "type": "address"
            },
            {
              "internalType": "uint256",
              "name": "collateralBalance",
              "type": "uint256"
            },
            {
              "internalType": "uint256",
              "name": "borrowBalance",
              "type": "uint256"
            },
            {
              "internalType": "uint256",
              "name": "supplyBalance",
              "type": "uint256"
            },
            {
              "internalType": "uint256",
              "name": "collateralValueUsd",
              "type": "uint256"
            },
            {
              "internalType": "uint256",
              "name": "borrowValueUsd",
              "type": "uint256"
            },
            {
              "internalType": "uint256",
              "name": "currentLtv",
              "type": "uint256"
            },
            {
              "internalType": "uint256",
              "name": "maxLtv",
              "type": "uint256"
            },
            {
              "internalType": "uint256",
              "name": "healthFactor",
              "type": "uint256"
            },
            {
              "internalType": "bool",
              "name": "isHealthy",
              "type": "bool"
            }
          ],
          "internalType": "struct MorphoBlueGatewayView.UserPosition",
          "name": "pos",
          "type": "tuple"
        }
      ],
      "stateMutability": "view",
      "type": "function"
    },
    {
      "inputs": [
        {
          "components": [
            {
              "internalType": "address",
              "name": "loanToken",
              "type": "address"
            },
            {
              "internalType": "address",
              "name": "collateralToken",
              "type": "address"
            },
            {
              "internalType": "address",
              "name": "oracle",
              "type": "address"
            },
            {
              "internalType": "address",
              "name": "irm",
              "type": "address"
            },
            {
              "internalType": "uint256",
              "name": "lltv",
              "type": "uint256"
            }
          ],
          "internalType": "struct MarketParams",
          "name": "params",
          "type": "tuple"
        },
        {
          "internalType": "address",
          "name": "user",
          "type": "address"
        }
      ],
      "name": "getPositionValue",
      "outputs": [
        {
          "internalType": "uint256",
          "name": "collateralValueUsd",
          "type": "uint256"
        },
        {
          "internalType": "uint256",
          "name": "debtValueUsd",
          "type": "uint256"
        }
      ],
      "stateMutability": "view",
      "type": "function"
    },
    {
      "inputs": [
        {
          "components": [
            {
              "internalType": "address",
              "name": "loanToken",
              "type": "address"
            },
            {
              "internalType": "address",
              "name": "collateralToken",
              "type": "address"
            },
            {
              "internalType": "address",
              "name": "oracle",
              "type": "address"
            },
            {
              "internalType": "address",
              "name": "irm",
              "type": "address"
            },
            {
              "internalType": "uint256",
              "name": "lltv",
              "type": "uint256"
            }
          ],
          "internalType": "struct MarketParams[]",
          "name": "paramsList",
          "type": "tuple[]"
        },
        {
          "internalType": "address",
          "name": "user",
          "type": "address"
        }
      ],
      "name": "getPositionsForMarkets",
      "outputs": [
        {
          "components": [
            {
              "internalType": "bytes32",
              "name": "marketId",
              "type": "bytes32"
            },
            {
              "internalType": "address",
              "name": "loanToken",
              "type": "address"
            },
            {
              "internalType": "address",
              "name": "collateralToken",
              "type": "address"
            },
            {
              "internalType": "uint256",
              "name": "collateralBalance",
              "type": "uint256"
            },
            {
              "internalType": "uint256",
              "name": "borrowBalance",
              "type": "uint256"
            },
            {
              "internalType": "uint256",
              "name": "supplyBalance",
              "type": "uint256"
            },
            {
              "internalType": "uint256",
              "name": "collateralValueUsd",
              "type": "uint256"
            },
            {
              "internalType": "uint256",
              "name": "borrowValueUsd",
              "type": "uint256"
            },
            {
              "internalType": "uint256",
              "name": "currentLtv",
              "type": "uint256"
            },
            {
              "internalType": "uint256",
              "name": "maxLtv",
              "type": "uint256"
            },
            {
              "internalType": "uint256",
              "name": "healthFactor",
              "type": "uint256"
            },
            {
              "internalType": "bool",
              "name": "isHealthy",
              "type": "bool"
            }
          ],
          "internalType": "struct MorphoBlueGatewayView.UserPosition[]",
          "name": "positions",
          "type": "tuple[]"
        }
      ],
      "stateMutability": "view",
      "type": "function"
    },
    {
      "inputs": [],
      "name": "getRegisteredMarketIds",
      "outputs": [
        {
          "internalType": "bytes32[]",
          "name": "",
          "type": "bytes32[]"
        }
      ],
      "stateMutability": "view",
      "type": "function"
    },
    {
      "inputs": [
        {
          "components": [
            {
              "internalType": "address",
              "name": "loanToken",
              "type": "address"
            },
            {
              "internalType": "address",
              "name": "collateralToken",
              "type": "address"
            },
            {
              "internalType": "address",
              "name": "oracle",
              "type": "address"
            },
            {
              "internalType": "address",
              "name": "irm",
              "type": "address"
            },
            {
              "internalType": "uint256",
              "name": "lltv",
              "type": "uint256"
            }
          ],
          "internalType": "struct MarketParams",
          "name": "params",
          "type": "tuple"
        }
      ],
      "name": "getSupplyApr",
      "outputs": [
        {
          "internalType": "uint256",
          "name": "",
          "type": "uint256"
        }
      ],
      "stateMutability": "view",
      "type": "function"
    },
    {
      "inputs": [
        {
          "components": [
            {
              "internalType": "address",
              "name": "loanToken",
              "type": "address"
            },
            {
              "internalType": "address",
              "name": "collateralToken",
              "type": "address"
            },
            {
              "internalType": "address",
              "name": "oracle",
              "type": "address"
            },
            {
              "internalType": "address",
              "name": "irm",
              "type": "address"
            },
            {
              "internalType": "uint256",
              "name": "lltv",
              "type": "uint256"
            }
          ],
          "internalType": "struct MarketParams",
          "name": "params",
          "type": "tuple"
        },
        {
          "internalType": "address",
          "name": "user",
          "type": "address"
        }
      ],
      "name": "getSupplyBalance",
      "outputs": [
        {
          "internalType": "uint256",
          "name": "",
          "type": "uint256"
        }
      ],
      "stateMutability": "view",
      "type": "function"
    },
    {
      "inputs": [
        {
          "internalType": "address",
          "name": "authorizer",
          "type": "address"
        },
        {
          "internalType": "address",
          "name": "authorized",
          "type": "address"
        }
      ],
      "name": "isAuthorized",
      "outputs": [
        {
          "internalType": "bool",
          "name": "",
          "type": "bool"
        }
      ],
      "stateMutability": "view",
      "type": "function"
    },
    {
      "inputs": [
        {
          "internalType": "bytes32",
          "name": "marketId",
          "type": "bytes32"
        }
      ],
      "name": "isMarketRegistered",
      "outputs": [
        {
          "internalType": "bool",
          "name": "",
          "type": "bool"
        }
      ],
      "stateMutability": "view",
      "type": "function"
    },
    {
      "inputs": [],
      "name": "morpho",
      "outputs": [
        {
          "internalType": "contract IMorphoBlue",
          "name": "",
          "type": "address"
        }
      ],
      "stateMutability": "view",
      "type": "function"
    },
    {
      "inputs": [],
      "name": "owner",
      "outputs": [
        {
          "internalType": "address",
          "name": "",
          "type": "address"
        }
      ],
      "stateMutability": "view",
      "type": "function"
    },
    {
      "inputs": [
        {
          "components": [
            {
              "internalType": "address",
              "name": "loanToken",
              "type": "address"
            },
            {
              "internalType": "address",
              "name": "collateralToken",
              "type": "address"
            },
            {
              "internalType": "address",
              "name": "oracle",
              "type": "address"
            },
            {
              "internalType": "address",
              "name": "irm",
              "type": "address"
            },
            {
              "internalType": "uint256",
              "name": "lltv",
              "type": "uint256"
            }
          ],
          "internalType": "struct MarketParams",
          "name": "params",
          "type": "tuple"
        }
      ],
      "name": "registerMarket",
      "outputs": [],
      "stateMutability": "nonpayable",
      "type": "function"
    },
    {
      "inputs": [
        {
          "components": [
            {
              "internalType": "address",
              "name": "loanToken",
              "type": "address"
            },
            {
              "internalType": "address",
              "name": "collateralToken",
              "type": "address"
            },
            {
              "internalType": "address",
              "name": "oracle",
              "type": "address"
            },
            {
              "internalType": "address",
              "name": "irm",
              "type": "address"
            },
            {
              "internalType": "uint256",
              "name": "lltv",
              "type": "uint256"
            }
          ],
          "internalType": "struct MarketParams[]",
          "name": "paramsList",
          "type": "tuple[]"
        }
      ],
      "name": "registerMarkets",
      "outputs": [],
      "stateMutability": "nonpayable",
      "type": "function"
    },
    {
      "inputs": [],
      "name": "registeredMarketCount",
      "outputs": [
        {
          "internalType": "uint256",
          "name": "",
          "type": "uint256"
        }
      ],
      "stateMutability": "view",
      "type": "function"
    },
    {
      "inputs": [],
      "name": "renounceOwnership",
      "outputs": [],
      "stateMutability": "nonpayable",
      "type": "function"
    },
    {
      "inputs": [
        {
          "internalType": "address",
          "name": "newOwner",
          "type": "address"
        }
      ],
      "name": "transferOwnership",
      "outputs": [],
      "stateMutability": "nonpayable",
      "type": "function"
    }
  ],
  "transactionHash": "0x74d09f63f47f5895a2e1bcc9b140cc87d5e352728794190a0ae411bbf7f1d870",
  "args": [
    "0x6c247b1F6182318877311737BaC0844bAa518F5e",
    "0x0BE61223F99E57b8b8B7033a77B54Adc7f7cF027"
  ],
  "numDeployments": 8,
  "solcInputHash": "0fea5cc4d237037126c3fb60329d2945",
  "bytecode": "0x60a03461018057601f6133d538819003918201601f19168301916001600160401b038311848410176101845780849260409485528339810103126101805761004681610198565b906001600160a01b039061005c90602001610198565b1690811561016d575f80546001600160a01b031981168417825560405193916001600160a01b03909116907f8be0079c531659141344cd1fd0a4f28419497f9722a3daafe3b4186f6b6457e09080a36001600160a01b031690811561012b575060805260405161322890816101ad8239608051818181610176015281816105180152818161073001528181610a7a01528181610b7801528181610d6d015281816112240152818161158f01528181611d170152818161286601528181612b5401528181612e300152612f6d0152f35b62461bcd60e51b815260206004820152601860248201527f4d6f7270686f426c75653a207a65726f206164647265737300000000000000006044820152606490fd5b631e4fbdf760e01b5f525f60045260245ffd5b5f80fd5b634e487b7160e01b5f52604160045260245ffd5b51906001600160a01b03821682036101805756fe60806040526004361015610011575f80fd5b5f3560e01c8063025f7ec114611cd7578063139df20014611a2057806314a1883a14611a0157806320631e09146119695780632222e4dd1461194c57806327251311146119315780632df3ef2b1461179c578063385ec17e1461176d5780633ab24191146117525780633e3a718e146117275780634d0ee9f314611628578063606f76541461160d57806365e4ad9e146115495780636c1d4e32146111c0578063715018a61461117c57806373e3128b146110e35780637a49408d14610d225780637d05ccdf14610c38578063849efd0c14610b3d5780638da5cb5b14610b1657806393f8833914610aeb578063a5f565f614610a29578063ac0513b2146106ee578063b512cdfe1461056c578063d58186d614610547578063d8fbc83314610503578063eb944b15146104d0578063f2fde38b1461045e5763fb11e96914610158575f80fd5b3461045a57602036600319011261045a57610171611fb1565b6001547f00000000000000000000000000000000000000000000000000000000000000006001600160a01b0316905f805b82811061039457506101b390612d1a565b915f905f5b8381106101d157604051806101cd87826121d6565b0390f35b6101da81612593565b90549060031b1c6040516349e2903160e11b8152606081806102008b86600484016123d8565b0381875afa908115610339575f91610366575b5060408101516001600160801b0316158015919061034f575b8115610344575b50610242575b506001016101b8565b5f93919352600260205260405f2060046040519161025f8361221a565b80546001600160a01b0390811684526001820154811660208501526002820154811660408086019190915260038301549091166060850152910154608083015251637a49408d60e01b8152906102b990600483019061210b565b6001600160a01b03871660a48201526101808160c481305afa91821561033957600192610303925f9161030a575b506102f28289612636565b526102fd8188612636565b50613063565b9290610239565b61032c91506101803d8111610332575b610324818361226d565b810190612d69565b5f6102e7565b503d61031a565b6040513d5f823e3d90fd5b90505115155f610233565b60208101516001600160801b03161515915061022c565b610387915060603d811161038d575b61037f818361226d565b810190612387565b5f610213565b503d610375565b6103c56060866103a384612593565b90549060031b1c60405193849283926349e2903160e11b8452600484016123d8565b0381885afa908115610339575f9161043c575b5060408101516001600160801b03161580159190610425575b811561041a575b50610406575b6001016101a2565b90610412600191613063565b9190506103fe565b90505115155f6103f8565b60208101516001600160801b0316151591506103f1565b610454915060603d811161038d5761037f818361226d565b5f6103d8565b5f80fd5b3461045a57602036600319011261045a57610477611fb1565b61047f613109565b6001600160a01b031680156104bd575f80546001600160a01b03198116831782556001600160a01b0316905f5160206131b35f395f51905f529080a3005b631e4fbdf760e01b5f525f60045260245ffd5b3461045a57366003190160c0811261045a5760a01361045a5760206104fb6104f6611f9b565b612f4d565b604051908152f35b3461045a575f36600319011261045a576040517f00000000000000000000000000000000000000000000000000000000000000006001600160a01b03168152602090f35b3461045a5760a036600319011261045a576020604051655af3107a4000608435048152f35b3461045a5760a036600319011261045a57610585613109565b61059661059136612290565b613071565b805f52600360205260ff60405f2054166106a9576105b3816127bc565b5f8181526002602052604090206001600160a01b036105d061247d565b82546001600160a01b03191691161781556105e96124a9565b6001820180546001600160a01b0319166001600160a01b03909216919091179055610612612493565b6002820180546001600160a01b0319166001600160a01b03928316179055606435908116810361045a57600382019060018060a01b031660018060a01b03198254161790556004608435910155805f52600360205260405f20600160ff198254161790555f5160206131d35f395f51905f5261068c61247d565b6106946124a9565b906106a460405192839283612805565b0390a2005b60405162461bcd60e51b815260206004820152601e60248201527f4d6f7270686f426c75653a20616c7265616479207265676973746572656400006044820152606490fd5b3461045a5760a036600319011261045a5761070761252c565b61071361059136612290565b604051632e3071cd60e11b8152600481018290529060c0826024817f00000000000000000000000000000000000000000000000000000000000000006001600160a01b03165afa918215610339575f926109f8575b5082526001600160a01b0361077b61247d565b1660208301526001600160a01b036107916124a9565b16604083015260ff6107a96107a461247d565b613097565b1660a083015260ff6107bc6107a46124a9565b1660c08301526107d26107cd61247d565b61312f565b60608301526107e26107cd6124a9565b608083015260843560e083015280516001600160801b039081166101008401526040820180518216610120850152825190911661099b575b506001600160a01b03905061082d612493565b1661091f575b6040516320631e0960e01b815261084c6004820161264a565b60208160a481305afa908115610339575f916108ed575b5061016082015260405163181bdd9560e21b8152906108846004830161264a565b60208260a481305afa8015610339575f906108b9575b6101cd9250610180820152604051918291602083526020830190612015565b506020823d6020116108e5575b816108d36020938361226d565b8101031261045a576101cd915161089a565b3d91506108c6565b90506020813d602011610917575b816109086020938361226d565b8101031261045a575182610863565b3d91506108fb565b600460206001600160a01b03610933612493565b166040519283809263501ad8ff60e11b82525afa5f9181610967575b5061095b575b50610833565b6101a082015281610955565b9091506020813d602011610993575b816109836020938361226d565b8101031261045a5751908361094f565b3d9150610976565b516001600160801b0316670de0b6b3a764000081810291808304909114901517156109e45790516109d7916001600160801b03909116906124e6565b610140820152818061081a565b634e487b7160e01b5f52601160045260245ffd5b610a1b91925060c03d60c011610a22575b610a13818361226d565b8101906123f1565b9083610768565b503d610a09565b3461045a57366003190160c0811261045a5760a01361045a57610a766060610a4f611f9b565b610a5b61059136612290565b6040516349e2903160e11b81529384928392600484016123d8565b03817f00000000000000000000000000000000000000000000000000000000000000006001600160a01b03165afa8015610339576020915f91610acc575b5060409081015190516001600160801b039091168152f35b610ae5915060603d60601161038d5761037f818361226d565b82610ab4565b3461045a57366003190160c0811261045a5760a01361045a5760206104fb610b11611f9b565b612e13565b3461045a575f36600319011261045a575f546040516001600160a01b039091168152602090f35b3461045a5760a036600319011261045a575f610b5b61059136612290565b604051632e3071cd60e11b8152600481019190915260c0816024817f00000000000000000000000000000000000000000000000000000000000000006001600160a01b03165afa908115610339575f91610c19575b5080516040909101516001600160801b039081169291169081610be3575b60609260405192835260208301526040820152f35b50670de0b6b3a7640000820291808304670de0b6b3a764000014811517156109e457610c11826060946124e6565b909250610bce565b610c32915060c03d60c011610a2257610a13818361226d565b82610bb0565b3461045a57604036600319011261045a576004356001600160401b03811161045a57610c689036906004016120db565b90610c71611fc7565b610c7a83612d1a565b926001600160a01b03909116905f5b818110610c9e57604051806101cd87826121d6565b610ca98183866127ac565b604051637a49408d60e01b81529190610cc69060048401906126b9565b8360a48301526101808260c481305afa8015610339576001925f91610d03575b50610cf18288612636565b52610cfc8187612636565b5001610c89565b610d1c91506101803d811161033257610324818361226d565b87610ce6565b3461045a57366003190160c0811261045a5760a01361045a57610da7610d46611f9b565b610d4e612cc2565b90610d5b61059136612290565b6040516349e2903160e11b81529390917f00000000000000000000000000000000000000000000000000000000000000006001600160a01b0316916060918691829186600484016123d8565b0381845afa938415610339575f946110ba575b509060c060249260405193848092632e3071cd60e11b82528560048301525afa918215610339575f92611099575b5082526001600160a01b03610dfb61247d565b1660208301526001600160a01b03610e116124a9565b16604083015260018060801b036040840151169060608301918252608435938461012085015260018060801b0360208201511680151580611083575b611048575b50519081151580611032575b610ff8575b506001600160a01b039050610e76612493565b16151580610fee575b15610fca57600460206001600160a01b03610e98612493565b166040519283809263501ad8ff60e11b82525afa5f9181610f96575b50610ed1575b505061018091505b610ecf604051809261214a565bf35b90516a0c097ce7bc90715b34b9f160241b91610eec916124d3565b048060c083015260808201928351938460e085015282610f0d575b50610eba565b670de0b6b3a7640000850294808604670de0b6b3a764000014901517156109e457610f3b83610180966124e6565b610100850152805115610f7e57610f5e610f6692670de0b6b3a7640000946124d3565b9051906124e6565b8061014084015210156101608201525b828080610f07565b50505f19610140830152506001610160820152610f76565b9091506020813d602011610fc2575b81610fb26020938361226d565b8101031261045a57519085610eb4565b3d9150610fa5565b5061018091506080810151610ec2575f196101408201526001610160820152610ec2565b5080511515610e7f565b805161102692611011916001600160801b0316906124d3565b6020909101516001600160801b0316906124e6565b60a08301528380610e63565b5060208101516001600160801b03161515610e5e565b604083015161107891611064916001600160801b0316906124d3565b60608401516001600160801b0316906124e6565b608085015285610e52565b5060608301516001600160801b03161515610e4d565b6110b391925060c03d60c011610a2257610a13818361226d565b9084610de8565b6024929194506110da60c09160603d60601161038d5761037f818361226d565b94919250610dba565b3461045a575f36600319011261045a576040518060206001549283815201809260015f5260205f20905f5b818110611166575050508161112491038261226d565b604051918291602083019060208452518091526040830191905f5b81811061114d575050500390f35b825184528594506020938401939092019160010161113f565b825484526020909301926001928301920161110e565b3461045a575f36600319011261045a57611194613109565b5f80546001600160a01b0319811682556001600160a01b03165f5160206131b35f395f51905f528280a3005b3461045a57602036600319011261045a576004356001600160401b03811161045a576111f09036906004016120db565b6111f981612515565b91611207604051938461226d565b818352601f1961121683612515565b015f5b8181106114db5750507f00000000000000000000000000000000000000000000000000000000000000006001600160a01b03165f5b8381106112fa57846040518091602082016020835281518091526020604084019201905f5b818110611281575050500390f35b91935091602061010060019260e0875180518352858060a01b03858201511685840152858060a01b036040820151166040840152606081015160608401526080810151608084015260ff60a08201511660a084015260ff60c08201511660c08401520151151560e0820152019401910191849392611273565b6113058185856127ac565b6113126105913683612311565b604051632e3071cd60e11b815260048101829052919060c083602481885afa908115610339576040935f926114bb575b5061134d858a612636565b5152611358826124bf565b6020611364868b612636565b516001600160a01b039092169101526113db6107a4602084018a866113928961138c856124bf565b93612636565b516001600160a01b03909216910152608085013560606113b2898e612636565b5101528a60ff60a06113d08a6113ca6107a48b6124bf565b94612636565b5101911690526124bf565b60ff60c06113e9878c612636565b5191909216910152516001600160801b0316151560e0611409858a612636565b51015201906001600160a01b0361141f836124bf565b1661142f575b600191500161124e565b6004916020906001600160a01b0390611447906124bf565b166040519384809263501ad8ff60e11b82525afa805f91611487575b60019350611472575b50611425565b608061147e8389612636565b5101528661146c565b90506020833d82116114b3575b816114a16020938361226d565b8101031261045a576001925190611463565b3d9150611494565b6114d491925060c03d8111610a2257610a13818361226d565b9089611342565b604051610100810191906001600160401b03831181841017611535576020926040525f81525f838201525f60408201525f60608201525f60808201525f60a08201525f60c08201525f60e082015282828801015201611219565b634e487b7160e01b5f52604160045260245ffd5b3461045a57604036600319011261045a5761158b6020611567611fb1565b61156f611fc7565b6040516332f256cf60e11b815293849283929060048401612805565b03817f00000000000000000000000000000000000000000000000000000000000000006001600160a01b03165afa8015610339575f906115d3575b6020906040519015158152f35b506020813d602011611605575b816115ed6020938361226d565b8101031261045a57611600602091612cb5565b6115c6565b3d91506115e0565b3461045a5760a036600319011261045a5760206104fb612b29565b3461045a57602036600319011261045a576004355f608060405161164b8161221a565b8281528260208201528260408201528260608201520152805f52600360205260ff60405f205416156116e5575f52600260205260a060405f206004604051916116938361221a565b600180851b038154168352600180851b036001820154166020840152600180851b036002820154166040840152600180851b03600382015416606084015201546080820152610ecf604051809261210b565b60405162461bcd60e51b815260206004820152601a602482015279135bdc9c1a1bd09b1d594e881b9bdd081c9959da5cdd195c995960321b6044820152606490fd5b3461045a57366003190160c0811261045a5760a01361045a5760206104fb61174d611f9b565b612949565b3461045a5760a036600319011261045a5760206104fb61281f565b3461045a57602036600319011261045a576004355f526003602052602060ff60405f2054166040519015158152f35b3461045a57602036600319011261045a576004356001600160401b03811161045a576117cc9036906004016120db565b6117d4613109565b5f5b8181106117df57005b6001906117f9610591366117f48487896127ac565b612311565b805f52600360205260ff60405f20541615611816575b50016117d6565b61181f816127bc565b61182a8285876127ac565b815f5260026020526004608060405f2092868060a01b0361184a826124bf565b16878060a01b0319855416178455611864602082016124bf565b87850190888060a01b0316888060a01b0319825416179055611888604082016124bf565b6002850190888060a01b0316888060a01b03198254161790556118ad606082016124bf565b6003850190888060a01b0316888060a01b03198254161790550135910155805f52600360205260405f208360ff198254161790555f5160206131d35f395f51905f526119026118fd8487896127ac565b6124bf565b611918602061191286898b6127ac565b016124bf565b9061192860405192839283612805565b0390a28461180f565b3461045a5760a036600319011261045a5760206104fb612727565b3461045a575f36600319011261045a576020600154604051908152f35b3461045a5760a036600319011261045a57604051633ab2419160e01b81526119936004820161264a565b60208160a481305afa908115610339575f916119cf575b506301e133808102908082046301e1338014901517156109e457602090604051908152f35b90506020813d6020116119f9575b816119ea6020938361226d565b8101031261045a5751816119aa565b3d91506119dd565b3461045a5760a036600319011261045a5760206104fb61059136612290565b3461045a575f36600319011261045a57600154611a3c81612515565b90611a4a604051928361226d565b808252601f19611a5982612515565b015f5b818110611cc05750505f5b818110611ad557826040518091602082016020835281518091526040830190602060408260051b8601019301915f905b828210611aa657505050500390f35b91936001919395506020611ac58192603f198a82030186528851612015565b9601920192018594939192611a97565b611ade81612593565b90549060031b1c5f52600260205260405f2090600460405192611b008461221a565b80546001600160a01b039081168552600182015481166020860152600282015481166040808701919091526003830154909116606086015291015460808401525163560289d960e11b815291611b5a90600484019061210b565b5f8260a481305afa8015610339575f90611b8f575b60019250611b7d8286612636565b52611b888185612636565b5001611a67565b503d805f843e611b9f818461226d565b82019160208184031261045a578051906001600160401b03821161045a5701916101c08382031261045a5760405190611bd782612235565b83518252611be7602085016125bf565b6020830152611bf8604085016125bf565b604083015260608401516001600160401b03811161045a5781611c1c9186016125d3565b60608301526080840151936001600160401b03851161045a57611c466101a09260019683016125d3565b6080840152611c5760a08201612628565b60a0840152611c6860c08201612628565b60c084015260e081015160e084015261010081015161010084015261012081015161012084015261014081015161014084015261016081015161016084015261018081015161018084015201516101a0820152611b6f565b602090611ccb61252c565b82828701015201611a5c565b3461045a57366003190160c0811261045a5760a01361045a57611d52611cfb611f9b565b611d0761059136612290565b6040516349e2903160e11b8152927f00000000000000000000000000000000000000000000000000000000000000006001600160a01b031692606091859182919085600484016123d8565b0381855afa928315610339575f93611f77575b5060c090602460405180948193632e3071cd60e11b835260048301525afa908115610339575f91611f58575b50611d9d6107a461247d565b60208301515f92906001600160801b031680151580611f42575b611f08575b505060405f930160018060801b03815116151580611eef575b611e4c575b5060ff1660088110611e1d576007190160ff81116109e457604092611e0b611e04611e1193612504565b80926124e6565b926124e6565b82519182526020820152f35b60080360ff81116109e457604092611e41611e3a611e4793612504565b80926124d3565b926124d3565b611e11565b600460206001600160a01b03611e60612493565b166040519283809263501ad8ff60e11b82525afa5f9181611ebb575b50611e88575b50611dda565b905191935060ff916a0c097ce7bc90715b34b9f160241b91611eb2916001600160801b03166124d3565b04929084611e82565b9091506020813d602011611ee7575b81611ed76020938361226d565b8101031261045a57519086611e7c565b3d9150611eca565b506001600160a01b03611f00612493565b161515611dd5565b611f3a929350611f259060018060801b03604084015116906124d3565b6060909101516001600160801b0316906124e6565b908380611dbc565b5060608201516001600160801b03161515611db7565b611f71915060c03d60c011610a2257610a13818361226d565b82611d91565b60c0919350611f949060603d60601161038d5761037f818361226d565b9290611d65565b60a435906001600160a01b038216820361045a57565b600435906001600160a01b038216820361045a57565b602435906001600160a01b038216820361045a57565b35906001600160a01b038216820361045a57565b805180835260209291819084018484015e5f828201840152601f01601f1916010190565b908151815260018060a01b03602083015116602082015260018060a01b0360408301511660408201526101a08061207261206060608601516101c060608701526101c0860190611ff1565b60808601518582036080870152611ff1565b9360ff60a08201511660a085015260ff60c08201511660c085015260e081015160e0850152610100810151610100850152610120810151610120850152610140810151610140850152610160810151610160850152610180810151610180850152015191015290565b9181601f8401121561045a578235916001600160401b03831161045a5760208085019460a0850201011161045a57565b80516001600160a01b03908116835260208083015182169084015260408083015182169084015260608083015190911690830152608090810151910152565b61016080918051845260018060a01b03602082015116602085015260018060a01b036040820151166040850152606081015160608501526080810151608085015260a081015160a085015260c081015160c085015260e081015160e085015261010081015161010085015261012081015161012085015261014081015161014085015201511515910152565b60206040818301928281528451809452019201905f5b8181106121f95750505090565b90919260206101808261220f600194885161214a565b0194019291016121ec565b60a081019081106001600160401b0382111761153557604052565b6101c081019081106001600160401b0382111761153557604052565b61018081019081106001600160401b0382111761153557604052565b601f909101601f19168101906001600160401b0382119082101761153557604052565b60a090600319011261045a57604051906122a98261221a565b816004356001600160a01b038116810361045a5781526024356001600160a01b038116810361045a5760208201526044356001600160a01b038116810361045a5760408201526064356001600160a01b038116810361045a5760608201526080608435910152565b91908260a091031261045a576040516123298161221a565b608080829461233781611fdd565b845261234560208201611fdd565b602085015261235660408201611fdd565b604085015261236760608201611fdd565b60608501520135910152565b51906001600160801b038216820361045a57565b9081606091031261045a5760405190606082016001600160401b03811183821017611535576123d0916040918252805184526123c560208201612373565b602085015201612373565b604082015290565b9081526001600160a01b03909116602082015260400190565b908160c091031261045a576040519060c082016001600160401b03811183821017611535576124759160a09160405261242981612373565b845261243760208201612373565b602085015261244860408201612373565b604085015261245960608201612373565b606085015261246a60808201612373565b608085015201612373565b60a082015290565b6004356001600160a01b038116810361045a5790565b6044356001600160a01b038116810361045a5790565b6024356001600160a01b038116810361045a5790565b356001600160a01b038116810361045a5790565b818102929181159184041417156109e457565b81156124f0570490565b634e487b7160e01b5f52601260045260245ffd5b60ff16604d81116109e457600a0a90565b6001600160401b0381116115355760051b60200190565b6040519061253982612235565b5f6101a083828152826020820152826040820152606080820152606060808201528260a08201528260c08201528260e082015282610100820152826101208201528261014082015282610160820152826101808201520152565b6001548110156125ab5760015f5260205f2001905f90565b634e487b7160e01b5f52603260045260245ffd5b51906001600160a01b038216820361045a57565b81601f8201121561045a578051906001600160401b0382116115355760405192612607601f8401601f19166020018561226d565b8284526020838301011161045a57815f9260208093018386015e8301015290565b519060ff8216820361045a57565b80518210156125ab5760209160051b010190565b6004356001600160a01b0381169081900361045a5781526024356001600160a01b0381169081900361045a5760208201526044356001600160a01b0381169081900361045a5760408201526064356001600160a01b0381169081900361045a5760608201526080608435910152565b60809081906001600160a01b036126cf82611fdd565b1684526001600160a01b036126e660208301611fdd565b1660208501526001600160a01b0361270060408301611fdd565b1660408501526001600160a01b0361271a60608301611fdd565b1660608501520135910152565b6044356001600160a01b0381169081810361045a5781156127a6575060405163501ad8ff60e11b815290602090829060049082905afa5f9181612772575b5061276f57505f90565b90565b9091506020813d60201161279e575b8161278e6020938361226d565b8101031261045a5751905f612765565b3d9150612781565b50505f90565b91908110156125ab5760a0020190565b600154600160401b81101561153557600181016001556001548110156125ab5760015f527fb10e2d527612073b26eecdfd717e6a320cf44b4afac2b0732d9fcbe2b7fa0cf60155565b6001600160a01b0391821681529116602082015260400190565b6064356001600160a01b0381169081810361045a5781156127a657612848610591366004612311565b604051632e3071cd60e11b815260048101919091529060c0826024817f00000000000000000000000000000000000000000000000000000000000000006001600160a01b03165afa908115610339576020925f92612928575b505061016460405180948193638c00bf6b60e01b83526128c56004840160046126b9565b80516001600160801b0390811660a485015286820151811660c48501526040820151811660e4850152606082015181166101048501526080820151811661012485015260a090910151166101448301525afa5f9181612772575061276f57505f90565b61294291925060c03d60c011610a2257610a13818361226d565b905f6128a1565b61295b90611d07610591366004612311565b0381855afa928315610339575f93612b05575b5060c090602460405180948193632e3071cd60e11b835260048301525afa908115610339575f91612ae6575b506040820180519091906001600160801b031615612adf576020909201515f92906001600160801b031680151580612ac9575b612aa4575b505081156127a6576044356001600160a01b0381169081810361045a578115612a9c575060405163501ad8ff60e11b815290602090829060049082905afa5f9181612a68575b50612a24575050505f90565b90516a0c097ce7bc90715b34b9f160241b91612a48916001600160801b03166124d3565b0480156127a6576127108202918204612710036109e45761276f916124e6565b9091506020813d602011612a94575b81612a846020938361226d565b8101031261045a5751905f612a18565b3d9150612a77565b505050505f90565b612ac1929350611f259060018060801b03604084015116906124d3565b905f806129d2565b5060608201516001600160801b031615156129cd565b5050505f90565b612aff915060c03d60c011610a2257610a13818361226d565b5f61299a565b60c0919350612b229060603d60601161038d5761037f818361226d565b929061296e565b612b37610591366004612311565b604051632e3071cd60e11b8152600481019190915260c0816024817f00000000000000000000000000000000000000000000000000000000000000006001600160a01b03165afa908115610339575f91612c96575b5080516001600160801b031615612c91576040516320631e0960e01b815290612bb96004808401906126b9565b60208260a481305afa918215610339575f92612c5d575b5060408101516001600160801b0316670de0b6b3a76400008181029291808404909114901517156109e4578051612c2992612c14916001600160801b0316906124e6565b60a0909101516001600160801b0316926124d3565b90670de0b6b3a764000003670de0b6b3a764000081116109e457612c58670de0b6b3a7640000929183926124d3565b040490565b9091506020813d602011612c89575b81612c796020938361226d565b8101031261045a5751905f612bd0565b3d9150612c6c565b505f90565b612caf915060c03d60c011610a2257610a13818361226d565b5f612b8c565b5190811515820361045a57565b60405190612ccf82612251565b5f610160838281528260208201528260408201528260608201528260808201528260a08201528260c08201528260e08201528261010082015282610120820152826101408201520152565b90612d2482612515565b612d31604051918261226d565b8281528092612d42601f1991612515565b01905f5b828110612d5257505050565b602090612d5d612cc2565b82828501015201612d46565b908161018091031261045a57612e0a61016060405192612d8884612251565b80518452612d98602082016125bf565b6020850152612da9604082016125bf565b6040850152606081015160608501526080810151608085015260a081015160a085015260c081015160c085015260e081015160e085015261010081015161010085015261012081015161012085015261014081015161014085015201612cb5565b61016082015290565b612e21610591366004612311565b6040516349e2903160e11b81527f00000000000000000000000000000000000000000000000000000000000000006001600160a01b03169260609082908190612e6e9086600484016123d8565b0381865afa8015610339576020915f91612f2e575b500180519091906001600160801b031615612adf5760c090602460405180958193632e3071cd60e11b835260048301525afa918215610339575f92612f0d575b506060820180519091906001600160801b031615612adf575160409092015161276f92612efc916001600160801b0390811691166124d3565b90516001600160801b0316906124e6565b612f2791925060c03d60c011610a2257610a13818361226d565b905f612ec3565b612f47915060603d60601161038d5761037f818361226d565b5f612e83565b612fa9612f5e610591366004612311565b6040516349e2903160e11b81527f00000000000000000000000000000000000000000000000000000000000000006001600160a01b03169390926060918491829185600484016123d8565b0381865afa918215610339575f92613042575b50815115612adf5760c090602460405180958193632e3071cd60e11b835260048301525afa918215610339575f92613021575b506020820180519091906001600160801b031615612adf5751915161276f92612efc916001600160801b0316906124d3565b61303b91925060c03d60c011610a2257610a13818361226d565b905f612fef565b61305c91925060603d60601161038d5761037f818361226d565b905f612fbc565b5f1981146109e45760010190565b60405161308260208201809361210b565b60a0815261309160c08261226d565b51902090565b60405163313ce56760e01b815290602090829060049082906001600160a01b03165afa5f91816130cd575b5061276f5750601290565b9091506020813d602011613101575b816130e96020938361226d565b8101031261045a576130fa90612628565b905f6130c2565b3d91506130dc565b5f546001600160a01b0316330361311c57565b63118cdaa760e01b5f523360045260245ffd5b6040516395d89b4160e01b8152905f90829060049082906001600160a01b03165afa5f9181613173575b5061276f575060405161316d60208261226d565b5f815290565b9091503d805f833e613185818361226d565b810160208282031261045a5781516001600160401b03811161045a576131ab92016125d3565b905f61315956fe8be0079c531659141344cd1fd0a4f28419497f9722a3daafe3b4186f6b6457e0393bf4ff2983ac2030da8f04a013ff4ac3176d2440549a516edff6f881c4db3ba264697066735822122002f0c2187d5cdce0b1689ac501ed28090fef3af71648780414b68d25bb9455b764736f6c634300081e0033",
  "devdoc": {
    "details": "Provides utility functions for reading user balances, market state, and risk parameters      Designed for frontend parity with Aave/Compound view gateways",
    "errors": {
      "OwnableInvalidOwner(address)": [
        {
          "details": "The owner is not a valid owner account. (eg. `address(0)`)"
        }
      ],
      "OwnableUnauthorizedAccount(address)": [
        {
          "details": "The caller account is not authorized to perform an operation."
        }
      ]
    },
    "kind": "dev",
    "methods": {
      "getCurrentLtvBps((address,address,address,address,uint256),address)": {
        "details": "Uses the market's oracle to price collateral in loan token terms",
        "params": {
          "params": "The market parameters",
          "user": "The user address"
        },
        "returns": {
          "_0": "Current LTV in basis points (e.g., 6500 = 65%), or 0 if no collateral"
        }
      },
      "getLiquidationLtvBps((address,address,address,address,uint256))": {
        "details": "This is the LLTV from market params, converted from WAD to bps",
        "params": {
          "params": "The market parameters"
        },
        "returns": {
          "_0": "Liquidation threshold in basis points"
        }
      },
      "getOraclePrice((address,address,address,address,uint256))": {
        "details": "Returns price as collateral/loan with 36 decimals"
      },
      "getPositionValue((address,address,address,address,uint256),address)": {
        "details": "Returns values normalized to 8 decimals USD (consistent with other protocols)      Morpho has no native USD oracle, so we treat the loan token as the unit of account      and scale to 8 decimals to match the LtvTrigger interface expectations.",
        "params": {
          "params": "The market parameters",
          "user": "The user address"
        },
        "returns": {
          "collateralValueUsd": "Collateral value in 8 decimals (loan token as unit of account)",
          "debtValueUsd": "Debt value in 8 decimals (loan token as unit of account)"
        }
      },
      "getSupplyApr((address,address,address,address,uint256))": {
        "details": "Supply APR = Borrow APR * Utilization * (1 - fee)"
      },
      "owner()": {
        "details": "Returns the address of the current owner."
      },
      "renounceOwnership()": {
        "details": "Leaves the contract without owner. It will not be possible to call `onlyOwner` functions. Can only be called by the current owner. NOTE: Renouncing ownership will leave the contract without an owner, thereby disabling any functionality that is only available to the owner."
      },
      "transferOwnership(address)": {
        "details": "Transfers ownership of the contract to a new account (`newOwner`). Can only be called by the current owner."
      }
    },
    "title": "MorphoBlueGatewayView",
    "version": 1
  },
  "userdoc": {
    "kind": "user",
    "methods": {
      "computeMarketId((address,address,address,address,uint256))": {
        "notice": "Compute market ID from params"
      },
      "getAllMarketsInfo()": {
        "notice": "Get info for all registered markets"
      },
      "getAllPositions(address)": {
        "notice": "Get positions for a user across all registered markets"
      },
      "getBorrowApr((address,address,address,address,uint256))": {
        "notice": "Get borrow APR for a market (annualized, scaled to 1e18)"
      },
      "getBorrowBalance((address,address,address,address,uint256),address)": {
        "notice": "Get user's borrow balance in a market (converts shares to assets)"
      },
      "getBorrowRate((address,address,address,address,uint256))": {
        "notice": "Get borrow rate for a market (per second, scaled to 1e18)"
      },
      "getCollateralBalance((address,address,address,address,uint256),address)": {
        "notice": "Get user's collateral balance in a market"
      },
      "getCurrentLtvBps((address,address,address,address,uint256),address)": {
        "notice": "Returns the current LTV (debt/collateral) in basis points"
      },
      "getLiquidationLtvBps((address,address,address,address,uint256))": {
        "notice": "Returns the liquidation LTV threshold in basis points"
      },
      "getMarketConfigs((address,address,address,address,uint256)[])": {
        "notice": "Get market config data (similar to Aave's getReserveConfigs)"
      },
      "getMarketInfo((address,address,address,address,uint256))": {
        "notice": "Get comprehensive info for a single market"
      },
      "getMarketParams(bytes32)": {
        "notice": "Get market params by ID"
      },
      "getMarketState((address,address,address,address,uint256))": {
        "notice": "Get market state"
      },
      "getOraclePrice((address,address,address,address,uint256))": {
        "notice": "Get oracle price for a market"
      },
      "getPosition((address,address,address,address,uint256),address)": {
        "notice": "Get user's full position in a market with risk metrics"
      },
      "getPositionValue((address,address,address,address,uint256),address)": {
        "notice": "Get position value (collateral and debt) for ADL calculations"
      },
      "getPositionsForMarkets((address,address,address,address,uint256)[],address)": {
        "notice": "Get positions for specific markets"
      },
      "getRegisteredMarketIds()": {
        "notice": "Get all registered market IDs"
      },
      "getSupplyApr((address,address,address,address,uint256))": {
        "notice": "Get supply APR for a market (annualized, scaled to 1e18)"
      },
      "getSupplyBalance((address,address,address,address,uint256),address)": {
        "notice": "Get user's supply balance in a market (lender side, converts shares to assets)"
      },
      "isAuthorized(address,address)": {
        "notice": "Check if a user is authorized to act on behalf of another"
      },
      "isMarketRegistered(bytes32)": {
        "notice": "Check if a market is registered"
      },
      "morpho()": {
        "notice": "The Morpho Blue singleton contract"
      },
      "registerMarket((address,address,address,address,uint256))": {
        "notice": "Register a market for enumeration"
      },
      "registerMarkets((address,address,address,address,uint256)[])": {
        "notice": "Register multiple markets at once"
      },
      "registeredMarketCount()": {
        "notice": "Get number of registered markets"
      }
    },
    "notice": "View-only gateway for querying Morpho Blue positions and market data",
    "version": 1
  },
  "storageLayout": {
    "storage": [
      {
        "astId": 1578,
        "contract": "contracts/v2/gateways/morpho/MorphoBlueGatewayView.sol:MorphoBlueGatewayView",
        "label": "_owner",
        "offset": 0,
        "slot": "0",
        "type": "t_address"
      },
      {
        "astId": 34282,
        "contract": "contracts/v2/gateways/morpho/MorphoBlueGatewayView.sol:MorphoBlueGatewayView",
        "label": "_registeredMarketIds",
        "offset": 0,
        "slot": "1",
        "type": "t_array(t_bytes32)dyn_storage"
      },
      {
        "astId": 34287,
        "contract": "contracts/v2/gateways/morpho/MorphoBlueGatewayView.sol:MorphoBlueGatewayView",
        "label": "_marketParams",
        "offset": 0,
        "slot": "2",
        "type": "t_mapping(t_bytes32,t_struct(MarketParams)45484_storage)"
      },
      {
        "astId": 34291,
        "contract": "contracts/v2/gateways/morpho/MorphoBlueGatewayView.sol:MorphoBlueGatewayView",
        "label": "_isRegistered",
        "offset": 0,
        "slot": "3",
        "type": "t_mapping(t_bytes32,t_bool)"
      }
    ],
    "types": {
      "t_address": {
        "encoding": "inplace",
        "label": "address",
        "numberOfBytes": "20"
      },
      "t_array(t_bytes32)dyn_storage": {
        "base": "t_bytes32",
        "encoding": "dynamic_array",
        "label": "bytes32[]",
        "numberOfBytes": "32"
      },
      "t_bool": {
        "encoding": "inplace",
        "label": "bool",
        "numberOfBytes": "1"
      },
      "t_bytes32": {
        "encoding": "inplace",
        "label": "bytes32",
        "numberOfBytes": "32"
      },
      "t_mapping(t_bytes32,t_bool)": {
        "encoding": "mapping",
        "key": "t_bytes32",
        "label": "mapping(bytes32 => bool)",
        "numberOfBytes": "32",
        "value": "t_bool"
      },
      "t_mapping(t_bytes32,t_struct(MarketParams)45484_storage)": {
        "encoding": "mapping",
        "key": "t_bytes32",
        "label": "mapping(bytes32 => struct MarketParams)",
        "numberOfBytes": "32",
        "value": "t_struct(MarketParams)45484_storage"
      },
      "t_struct(MarketParams)45484_storage": {
        "encoding": "inplace",
        "label": "struct MarketParams",
        "members": [
          {
            "astId": 45475,
            "contract": "contracts/v2/gateways/morpho/MorphoBlueGatewayView.sol:MorphoBlueGatewayView",
            "label": "loanToken",
            "offset": 0,
            "slot": "0",
            "type": "t_address"
          },
          {
            "astId": 45477,
            "contract": "contracts/v2/gateways/morpho/MorphoBlueGatewayView.sol:MorphoBlueGatewayView",
            "label": "collateralToken",
            "offset": 0,
            "slot": "1",
            "type": "t_address"
          },
          {
            "astId": 45479,
            "contract": "contracts/v2/gateways/morpho/MorphoBlueGatewayView.sol:MorphoBlueGatewayView",
            "label": "oracle",
            "offset": 0,
            "slot": "2",
            "type": "t_address"
          },
          {
            "astId": 45481,
            "contract": "contracts/v2/gateways/morpho/MorphoBlueGatewayView.sol:MorphoBlueGatewayView",
            "label": "irm",
            "offset": 0,
            "slot": "3",
            "type": "t_address"
          },
          {
            "astId": 45483,
            "contract": "contracts/v2/gateways/morpho/MorphoBlueGatewayView.sol:MorphoBlueGatewayView",
            "label": "lltv",
            "offset": 0,
            "slot": "4",
            "type": "t_uint256"
          }
        ],
        "numberOfBytes": "160"
      },
      "t_uint256": {
        "encoding": "inplace",
        "label": "uint256",
        "numberOfBytes": "32"
      }
    }
  }
}