{
  "address": "0x14EEE2B032E4f1b056608b517dc62b2615BCF13D",
  "abi": [
    {
      "inputs": [],
      "stateMutability": "nonpayable",
      "type": "constructor"
    },
    {
      "inputs": [
        {
          "internalType": "address",
          "name": "owner",
          "type": "address"
        }
      ],
      "name": "OwnableInvalidOwner",
      "type": "error"
    },
    {
      "inputs": [
        {
          "internalType": "address",
          "name": "account",
          "type": "address"
        }
      ],
      "name": "OwnableUnauthorizedAccount",
      "type": "error"
    },
    {
      "anonymous": false,
      "inputs": [
        {
          "indexed": false,
          "internalType": "string",
          "name": "name",
          "type": "string"
        },
        {
          "indexed": false,
          "internalType": "address",
          "name": "gateway",
          "type": "address"
        }
      ],
      "name": "GatewayRegistered",
      "type": "event"
    },
    {
      "anonymous": false,
      "inputs": [
        {
          "indexed": false,
          "internalType": "string",
          "name": "name",
          "type": "string"
        }
      ],
      "name": "GatewayRemoved",
      "type": "event"
    },
    {
      "anonymous": false,
      "inputs": [
        {
          "indexed": true,
          "internalType": "address",
          "name": "previousOwner",
          "type": "address"
        },
        {
          "indexed": true,
          "internalType": "address",
          "name": "newOwner",
          "type": "address"
        }
      ],
      "name": "OwnershipTransferred",
      "type": "event"
    },
    {
      "inputs": [
        {
          "internalType": "uint256",
          "name": "rate",
          "type": "uint256"
        }
      ],
      "name": "convertAaveRateToAPY",
      "outputs": [
        {
          "internalType": "uint256",
          "name": "",
          "type": "uint256"
        }
      ],
      "stateMutability": "pure",
      "type": "function"
    },
    {
      "inputs": [
        {
          "internalType": "uint256",
          "name": "ratePerSecond",
          "type": "uint256"
        }
      ],
      "name": "convertCompoundRateToAPR",
      "outputs": [
        {
          "internalType": "uint256",
          "name": "",
          "type": "uint256"
        }
      ],
      "stateMutability": "pure",
      "type": "function"
    },
    {
      "inputs": [
        {
          "internalType": "string",
          "name": "protocol",
          "type": "string"
        },
        {
          "internalType": "uint256",
          "name": "rate",
          "type": "uint256"
        }
      ],
      "name": "convertRateToStandardized",
      "outputs": [
        {
          "internalType": "uint256",
          "name": "",
          "type": "uint256"
        }
      ],
      "stateMutability": "pure",
      "type": "function"
    },
    {
      "inputs": [
        {
          "internalType": "uint256",
          "name": "ratePerBlock",
          "type": "uint256"
        }
      ],
      "name": "convertVenusRateToAPY",
      "outputs": [
        {
          "internalType": "uint256",
          "name": "",
          "type": "uint256"
        }
      ],
      "stateMutability": "pure",
      "type": "function"
    },
    {
      "inputs": [
        {
          "internalType": "address",
          "name": "_token",
          "type": "address"
        }
      ],
      "name": "findOptimalBorrowRate",
      "outputs": [
        {
          "internalType": "string",
          "name": "",
          "type": "string"
        },
        {
          "internalType": "uint256",
          "name": "",
          "type": "uint256"
        }
      ],
      "stateMutability": "view",
      "type": "function"
    },
    {
      "inputs": [
        {
          "internalType": "address",
          "name": "_token",
          "type": "address"
        }
      ],
      "name": "findOptimalSupplyRate",
      "outputs": [
        {
          "internalType": "string",
          "name": "",
          "type": "string"
        },
        {
          "internalType": "uint256",
          "name": "",
          "type": "uint256"
        }
      ],
      "stateMutability": "view",
      "type": "function"
    },
    {
      "inputs": [
        {
          "internalType": "string",
          "name": "",
          "type": "string"
        }
      ],
      "name": "gateways",
      "outputs": [
        {
          "internalType": "contract IGateway",
          "name": "",
          "type": "address"
        }
      ],
      "stateMutability": "view",
      "type": "function"
    },
    {
      "inputs": [
        {
          "internalType": "address",
          "name": "_token",
          "type": "address"
        }
      ],
      "name": "getAllProtocolBorrowRates",
      "outputs": [
        {
          "internalType": "string[]",
          "name": "protocols",
          "type": "string[]"
        },
        {
          "internalType": "uint256[]",
          "name": "rates",
          "type": "uint256[]"
        },
        {
          "internalType": "bool[]",
          "name": "success",
          "type": "bool[]"
        }
      ],
      "stateMutability": "view",
      "type": "function"
    },
    {
      "inputs": [
        {
          "internalType": "address",
          "name": "_token",
          "type": "address"
        }
      ],
      "name": "getAllProtocolRates",
      "outputs": [
        {
          "internalType": "string[]",
          "name": "protocols",
          "type": "string[]"
        },
        {
          "internalType": "uint256[]",
          "name": "rates",
          "type": "uint256[]"
        },
        {
          "internalType": "bool[]",
          "name": "success",
          "type": "bool[]"
        }
      ],
      "stateMutability": "view",
      "type": "function"
    },
    {
      "inputs": [],
      "name": "getRegisteredGateways",
      "outputs": [
        {
          "internalType": "string[]",
          "name": "",
          "type": "string[]"
        }
      ],
      "stateMutability": "view",
      "type": "function"
    },
    {
      "inputs": [
        {
          "internalType": "address[]",
          "name": "_tokens",
          "type": "address[]"
        }
      ],
      "name": "multiFindOptimalInterestRate",
      "outputs": [
        {
          "internalType": "string[]",
          "name": "",
          "type": "string[]"
        },
        {
          "internalType": "uint256[]",
          "name": "",
          "type": "uint256[]"
        }
      ],
      "stateMutability": "view",
      "type": "function"
    },
    {
      "inputs": [],
      "name": "owner",
      "outputs": [
        {
          "internalType": "address",
          "name": "",
          "type": "address"
        }
      ],
      "stateMutability": "view",
      "type": "function"
    },
    {
      "inputs": [
        {
          "internalType": "string",
          "name": "name",
          "type": "string"
        },
        {
          "internalType": "address",
          "name": "gateway",
          "type": "address"
        }
      ],
      "name": "registerGateway",
      "outputs": [],
      "stateMutability": "nonpayable",
      "type": "function"
    },
    {
      "inputs": [
        {
          "internalType": "uint256",
          "name": "",
          "type": "uint256"
        }
      ],
      "name": "registeredGatewayNames",
      "outputs": [
        {
          "internalType": "string",
          "name": "",
          "type": "string"
        }
      ],
      "stateMutability": "view",
      "type": "function"
    },
    {
      "inputs": [
        {
          "internalType": "string",
          "name": "name",
          "type": "string"
        }
      ],
      "name": "removeGateway",
      "outputs": [],
      "stateMutability": "nonpayable",
      "type": "function"
    },
    {
      "inputs": [],
      "name": "renounceOwnership",
      "outputs": [],
      "stateMutability": "nonpayable",
      "type": "function"
    },
    {
      "inputs": [
        {
          "internalType": "address",
          "name": "newOwner",
          "type": "address"
        }
      ],
      "name": "transferOwnership",
      "outputs": [],
      "stateMutability": "nonpayable",
      "type": "function"
    }
  ],
  "transactionHash": "0x7c47e8e8ed40ee0cce99debb0af72c138070360e7a6d0a101870baba82f1ae98",
  "args": [],
  "numDeployments": 4,
  "solcInputHash": "0687e9c7e7ec1d82659b24cd7ab47306",
  "bytecode": "0x608060405234801561001057600080fd5b50338061003757604051631e4fbdf760e01b81526000600482015260240160405180910390fd5b61004081610046565b50610096565b600080546001600160a01b038381166001600160a01b0319831681178455604051919092169283917f8be0079c531659141344cd1fd0a4f28419497f9722a3daafe3b4186f6b6457e09190a35050565b612087806100a56000396000f3fe608060405234801561001057600080fd5b506004361061010b5760003560e01c80638da5cb5b116100a2578063ad25e3b511610071578063ad25e3b514610241578063cd099a3e14610261578063db236a1f14610274578063f2fde38b146102a8578063ffdef32d146102bb57600080fd5b80638da5cb5b146101d35780638e4e87db146101f8578063970664e4146102195780639cbbad3a1461022c57600080fd5b806350cbfdec116100de57806350cbfdec1461018257806352ad236f146101a3578063715018a6146101b65780638028c92e146101c057600080fd5b8063093be191146101105780631c6d862f1461013b57806348d5abd51461015c5780634e5579cd1461016f575b600080fd5b61012361011e3660046117cc565b6102ce565b604051610132939291906118ca565b60405180910390f35b61014e610149366004611935565b61060b565b604051908152602001610132565b61014e61016a366004611935565b6106fb565b61014e61017d3660046119f0565b610727565b6101956101903660046117cc565b61086d565b604051610132929190611a34565b61014e6101b1366004611935565b610ac0565b6101be610b05565b005b6101be6101ce366004611a97565b610b19565b6000546001600160a01b03165b6040516001600160a01b039091168152602001610132565b61020b610206366004611ad8565b610d16565b604051610132929190611b4c565b6101236102273660046117cc565b610e4b565b61023461117f565b6040516101329190611b7a565b61025461024f366004611935565b611258565b6040516101329190611b8d565b6101be61026f366004611ba0565b611304565b6101e0610282366004611bf3565b80516020818301810180516001825292820191909301209152546001600160a01b031681565b6101be6102b63660046117cc565b61144f565b6101956102c93660046117cc565b61148d565b60025460609081908190806001600160401b038111156102f0576102f061194e565b60405190808252806020026020018201604052801561032357816020015b606081526020019060019003908161030e5790505b509350806001600160401b0381111561033e5761033e61194e565b604051908082528060200260200182016040528015610367578160200160208202803683370190505b509250806001600160401b038111156103825761038261194e565b6040519080825280602002602001820160405280156103ab578160200160208202803683370190505b50915060005b81811015610602576000600282815481106103ce576103ce611c2f565b9060005260206000200180546103e390611c45565b80601f016020809104026020016040519081016040528092919081815260200182805461040f90611c45565b801561045c5780601f106104315761010080835404028352916020019161045c565b820191906000526020600020905b81548152906001019060200180831161043f57829003601f168201915b505050505090508086838151811061047657610476611c2f565b602002602001018190525060006001826040516104939190611c7f565b908152604051908190036020019020546001600160a01b03169050806104e05760008584815181106104c7576104c7611c2f565b60200260200101901515908115158152505050506105f0565b604051636b5441a960e01b81526001600160a01b038981166004830152821690636b5441a9906024016040805180830381865afa925050508015610541575060408051601f3d908101601f1916820190925261053e91810190611c9b565b60015b61056e57600085848151811061055957610559611c2f565b911515602092830291909101909101526105ed565b80156105c55761057e8483610727565b88868151811061059057610590611c2f565b60200260200101818152505060018786815181106105b0576105b0611c2f565b911515602092830291909101909101526105ea565b60008786815181106105d9576105d9611c2f565b911515602092830291909101909101525b50505b50505b806105fa81611ce6565b9150506103b1565b50509193909250565b60006201518061016d82670de0b6b3a76400006b033b2e3c9fd0803ce80000006106358588611cff565b61063f9190611cff565b6106499190611d16565b90506000610663826b033b2e3c9fd0803ce8000000611d38565b9050600061068882610676600187611d4b565b6b033b2e3c9fd0803ce8000000611693565b905060006b033b2e3c9fd0803ce800000082116106a65760006106bc565b6106bc6b033b2e3c9fd0803ce800000083611d4b565b90506b033b2e3c9fd0803ce80000006305f5e1006106db836064611cff565b6106e59190611cff565b6106ef9190611d16565b98975050505050505050565b60006a084595161401484a0000006107176305f5e10084611cff565b6107219190611d16565b92915050565b6040805180820190915260048152636161766560e01b6020918201528251908301206000907fe0a39fef8aa5887c76606e7a14a5db8dc6676191e4866b2a609a3aa003b18329036107825761077b826106fb565b9050610721565b60408051808201909152600881526718dbdb5c1bdd5b9960c21b6020918201528351908401207f2b05eae252b2d830081b9362c105fc1b4e5f974a0c53bee02c06419c2f4a117e036107d75761077b82610ac0565b60408051808201909152600581526476656e757360d81b6020918201528351908401207f4772f81879898a69cf7b52c136daef4228f2371cab248846260a9d90ec427878036108295761077b8261060b565b60405162461bcd60e51b8152602060048201526014602482015273155b9cdd5c1c1bdc9d1959081c1c9bdd1bd8dbdb60621b60448201526064015b60405180910390fd5b6002546060906000906108bb5760405162461bcd60e51b8152602060048201526016602482015275139bc819d85d195dd85e5cc81c9959da5cdd195c995960521b6044820152606401610864565b6040805160208101909152600080825280805b600254811015610a70576000600282815481106108ed576108ed611c2f565b90600052602060002001805461090290611c45565b80601f016020809104026020016040519081016040528092919081815260200182805461092e90611c45565b801561097b5780601f106109505761010080835404028352916020019161097b565b820191906000526020600020905b81548152906001019060200180831161095e57829003601f168201915b5050505050905060006001826040516109949190611c7f565b908152604051908190036020019020546001600160a01b03169050806109bb575050610a5e565b604051636b5441a960e01b81526001600160a01b038a81166004830152821690636b5441a9906024016040805180830381865afa925050508015610a1c575060408051601f3d908101601f19168201909252610a1991810190611c9b565b60015b610a27575050610a5e565b8015610a59576000610a398584610727565b9050861580610a4757508781115b15610a5757849850809750600196505b505b505050505b80610a6881611ce6565b9150506108ce565b5080610ab55760405162461bcd60e51b8152602060048201526014602482015273139bc81d985b1a59081c985d195cc8199bdd5b9960621b6044820152606401610864565b509094909350915050565b60006301e13380670de0b6b3a76400006305f5e100610adf8386611cff565b610aea906064611cff565b610af49190611cff565b610afe9190611d16565b9392505050565b610b0d6116e5565b610b176000611712565b565b610b216116e5565b60006001600160a01b031660018383604051610b3e929190611d5e565b908152604051908190036020019020546001600160a01b031603610b9d5760405162461bcd60e51b815260206004820152601660248201527511d85d195dd85e481b9bdd081c9959da5cdd195c995960521b6044820152606401610864565b60018282604051610baf929190611d5e565b90815260405190819003602001902080546001600160a01b031916905560005b600254811015610cd8578282604051610be9929190611d5e565b604051809103902060028281548110610c0457610c04611c2f565b90600052602060002001604051610c1b9190611d6e565b604051809103902003610cc657600254610c3790600190611d4b565b8114610c925760028054610c4d90600190611d4b565b81548110610c5d57610c5d611c2f565b9060005260206000200160028281548110610c7a57610c7a611c2f565b906000526020600020019081610c909190611e33565b505b6002805480610ca357610ca3611f13565b600190038181906000526020600020016000610cbf9190611762565b9055610cd8565b80610cd081611ce6565b915050610bcf565b507fa5f02ec79419c558ad23734a9205471900f33fbacc4585c8e48fd4490e1e372a8282604051610d0a929190611f52565b60405180910390a15050565b6060806000836001600160401b03811115610d3357610d3361194e565b604051908082528060200260200182016040528015610d6657816020015b6060815260200190600190039081610d515790505b5090506000846001600160401b03811115610d8357610d8361194e565b604051908082528060200260200182016040528015610dac578160200160208202803683370190505b50905060005b85811015610e3d57600080610de7898985818110610dd257610dd2611c2f565b905060200201602081019061019091906117cc565b9150915081858481518110610dfe57610dfe611c2f565b602002602001018190525080848481518110610e1c57610e1c611c2f565b60200260200101818152505050508080610e3590611ce6565b915050610db2565b5090925090505b9250929050565b60025460609081908190806001600160401b03811115610e6d57610e6d61194e565b604051908082528060200260200182016040528015610ea057816020015b6060815260200190600190039081610e8b5790505b509350806001600160401b03811115610ebb57610ebb61194e565b604051908082528060200260200182016040528015610ee4578160200160208202803683370190505b509250806001600160401b03811115610eff57610eff61194e565b604051908082528060200260200182016040528015610f28578160200160208202803683370190505b50915060005b8181101561060257600060028281548110610f4b57610f4b611c2f565b906000526020600020018054610f6090611c45565b80601f0160208091040260200160405190810160405280929190818152602001828054610f8c90611c45565b8015610fd95780601f10610fae57610100808354040283529160200191610fd9565b820191906000526020600020905b815481529060010190602001808311610fbc57829003601f168201915b5050505050905080868381518110610ff357610ff3611c2f565b602002602001018190525060006001826040516110109190611c7f565b908152604051908190036020019020546001600160a01b031690508061105d57600085848151811061104457611044611c2f565b602002602001019015159081151581525050505061116d565b604051636b893afb60e11b81526001600160a01b03898116600483015282169063d71275f6906024016040805180830381865afa9250505080156110be575060408051601f3d908101601f191682019092526110bb91810190611c9b565b60015b6110eb5760008584815181106110d6576110d6611c2f565b9115156020928302919091019091015261116a565b8015611142576110fb8483610727565b88868151811061110d5761110d611c2f565b602002602001018181525050600187868151811061112d5761112d611c2f565b91151560209283029190910190910152611167565b600087868151811061115657611156611c2f565b911515602092830291909101909101525b50505b50505b8061117781611ce6565b915050610f2e565b60606002805480602002602001604051908101604052809291908181526020016000905b8282101561124f5783829060005260206000200180546111c290611c45565b80601f01602080910402602001604051908101604052809291908181526020018280546111ee90611c45565b801561123b5780601f106112105761010080835404028352916020019161123b565b820191906000526020600020905b81548152906001019060200180831161121e57829003601f168201915b5050505050815260200190600101906111a3565b50505050905090565b6002818154811061126857600080fd5b90600052602060002001600091509050805461128390611c45565b80601f01602080910402602001604051908101604052809291908181526020018280546112af90611c45565b80156112fc5780601f106112d1576101008083540402835291602001916112fc565b820191906000526020600020905b8154815290600101906020018083116112df57829003601f168201915b505050505081565b61130c6116e5565b60006001600160a01b031660018484604051611329929190611d5e565b908152604051908190036020019020546001600160a01b03161461138f5760405162461bcd60e51b815260206004820152601a60248201527f4761746577617920616c726561647920726567697374657265640000000000006044820152606401610864565b80600184846040516113a2929190611d5e565b90815260405190819003602001902080546001600160a01b03929092166001600160a01b0319909216919091179055600280546001810182556000919091527f405787fa12a823e0f2b7631cc41b3ba8828b3321ca811111fa75cd3aa3bb5ace0161140e838583611f66565b507f25ca8d47fbc6f7ac79badf9042084bd7378260d9e45cde69fa42dbbb2c672ea083838360405161144293929190612025565b60405180910390a1505050565b6114576116e5565b6001600160a01b03811661148157604051631e4fbdf760e01b815260006004820152602401610864565b61148a81611712565b50565b6002546060906000906114db5760405162461bcd60e51b8152602060048201526016602482015275139bc819d85d195dd85e5cc81c9959da5cdd195c995960521b6044820152606401610864565b6040805160208101909152600080825260001990805b600254811015610a705760006002828154811061151057611510611c2f565b90600052602060002001805461152590611c45565b80601f016020809104026020016040519081016040528092919081815260200182805461155190611c45565b801561159e5780601f106115735761010080835404028352916020019161159e565b820191906000526020600020905b81548152906001019060200180831161158157829003601f168201915b5050505050905060006001826040516115b79190611c7f565b908152604051908190036020019020546001600160a01b03169050806115de575050611681565b604051636b893afb60e11b81526001600160a01b038a8116600483015282169063d71275f6906024016040805180830381865afa92505050801561163f575060408051601f3d908101601f1916820190925261163c91810190611c9b565b60015b61164a575050611681565b801561167c57600061165c8584610727565b905086158061166a57508781105b1561167a57849850809750600196505b505b505050505b8061168b81611ce6565b9150506114f1565b8060005b838110156116dd57826116ab600282611d16565b6116b58785611cff565b6116bf9190611d38565b6116c99190611d16565b9150806116d581611ce6565b915050611697565b509392505050565b6000546001600160a01b03163314610b175760405163118cdaa760e01b8152336004820152602401610864565b600080546001600160a01b038381166001600160a01b0319831681178455604051919092169283917f8be0079c531659141344cd1fd0a4f28419497f9722a3daafe3b4186f6b6457e09190a35050565b50805461176e90611c45565b6000825580601f1061177e575050565b601f01602090049060005260206000209081019061148a91905b808211156117ac5760008155600101611798565b5090565b80356001600160a01b03811681146117c757600080fd5b919050565b6000602082840312156117de57600080fd5b610afe826117b0565b60005b838110156118025781810151838201526020016117ea565b50506000910152565b600081518084526118238160208601602086016117e7565b601f01601f19169290920160200192915050565b600082825180855260208086019550808260051b84010181860160005b8481101561188257601f1986840301895261187083835161180b565b98840198925090830190600101611854565b5090979650505050505050565b600081518084526020808501945080840160005b838110156118bf578151875295820195908201906001016118a3565b509495945050505050565b6060815260006118dd6060830186611837565b6020838203818501526118f0828761188f565b8481036040860152855180825282870193509082019060005b81811015611927578451151583529383019391830191600101611909565b509098975050505050505050565b60006020828403121561194757600080fd5b5035919050565b634e487b7160e01b600052604160045260246000fd5b600082601f83011261197557600080fd5b81356001600160401b038082111561198f5761198f61194e565b604051601f8301601f19908116603f011681019082821181831017156119b7576119b761194e565b816040528381528660208588010111156119d057600080fd5b836020870160208301376000602085830101528094505050505092915050565b60008060408385031215611a0357600080fd5b82356001600160401b03811115611a1957600080fd5b611a2585828601611964565b95602094909401359450505050565b604081526000611a47604083018561180b565b90508260208301529392505050565b60008083601f840112611a6857600080fd5b5081356001600160401b03811115611a7f57600080fd5b602083019150836020828501011115610e4457600080fd5b60008060208385031215611aaa57600080fd5b82356001600160401b03811115611ac057600080fd5b611acc85828601611a56565b90969095509350505050565b60008060208385031215611aeb57600080fd5b82356001600160401b0380821115611b0257600080fd5b818501915085601f830112611b1657600080fd5b813581811115611b2557600080fd5b8660208260051b8501011115611b3a57600080fd5b60209290920196919550909350505050565b604081526000611b5f6040830185611837565b8281036020840152611b71818561188f565b95945050505050565b602081526000610afe6020830184611837565b602081526000610afe602083018461180b565b600080600060408486031215611bb557600080fd5b83356001600160401b03811115611bcb57600080fd5b611bd786828701611a56565b9094509250611bea9050602085016117b0565b90509250925092565b600060208284031215611c0557600080fd5b81356001600160401b03811115611c1b57600080fd5b611c2784828501611964565b949350505050565b634e487b7160e01b600052603260045260246000fd5b600181811c90821680611c5957607f821691505b602082108103611c7957634e487b7160e01b600052602260045260246000fd5b50919050565b60008251611c918184602087016117e7565b9190910192915050565b60008060408385031215611cae57600080fd5b8251915060208301518015158114611cc557600080fd5b809150509250929050565b634e487b7160e01b600052601160045260246000fd5b600060018201611cf857611cf8611cd0565b5060010190565b808202811582820484141761072157610721611cd0565b600082611d3357634e487b7160e01b600052601260045260246000fd5b500490565b8082018082111561072157610721611cd0565b8181038181111561072157610721611cd0565b8183823760009101908152919050565b6000808354611d7c81611c45565b60018281168015611d945760018114611da957611dd8565b60ff1984168752821515830287019450611dd8565b8760005260208060002060005b85811015611dcf5781548a820152908401908201611db6565b50505082870194505b50929695505050505050565b601f821115611e2e57600081815260208120601f850160051c81016020861015611e0b5750805b601f850160051c820191505b81811015611e2a57828155600101611e17565b5050505b505050565b818103611e3e575050565b611e488254611c45565b6001600160401b03811115611e5f57611e5f61194e565b611e7381611e6d8454611c45565b84611de4565b6000601f821160018114611ea75760008315611e8f5750848201545b600019600385901b1c1916600184901b178455611f0c565b600085815260209020601f19841690600086815260209020845b83811015611ee15782860154825560019586019590910190602001611ec1565b5085831015611eff5781850154600019600388901b60f8161c191681555b50505060018360011b0184555b5050505050565b634e487b7160e01b600052603160045260246000fd5b81835281816020850137506000828201602090810191909152601f909101601f19169091010190565b602081526000611c27602083018486611f29565b6001600160401b03831115611f7d57611f7d61194e565b611f9183611f8b8354611c45565b83611de4565b6000601f841160018114611fc55760008515611fad5750838201355b600019600387901b1c1916600186901b178355611f0c565b600083815260209020601f19861690835b82811015611ff65786850135825560209485019460019092019101611fd6565b50868210156120135760001960f88860031b161c19848701351681555b505060018560011b0183555050505050565b604081526000612039604083018587611f29565b905060018060a01b038316602083015294935050505056fea26469706673582212209a6a2a64a1723d07f9de486e3e17d5fc7ce82b7fee03f2baf841840e88540efc64736f6c63430008140033",
  "devdoc": {
    "errors": {
      "OwnableInvalidOwner(address)": [
        {
          "details": "The owner is not a valid owner account. (eg. `address(0)`)"
        }
      ],
      "OwnableUnauthorizedAccount(address)": [
        {
          "details": "The caller account is not authorized to perform an operation."
        }
      ]
    },
    "kind": "dev",
    "methods": {
      "convertAaveRateToAPY(uint256)": {
        "details": "To preserve 8 decimals, we multiply by PRECISION.      The returned value is in fixedpoint format (divide by PRECISION to get the percentage).      For example, if the real APY is 0.02%, this function returns 2000000."
      },
      "convertCompoundRateToAPR(uint256)": {
        "details": "The JS conversion is: (ratePerSecond * SECONDS_PER_YEAR * 100) / 1e18.      To preserve 8 decimals, we multiply by PRECISION.      The returned value is in fixedpoint format (divide by PRECISION to get the percentage).      For example, if the real APR is 1.48%, this function returns 148000000."
      },
      "convertRateToStandardized(string,uint256)": {
        "params": {
          "protocol": "The protocol name (\"aave\", \"compound\", \"venus\")",
          "rate": "The raw rate from the protocol"
        },
        "returns": {
          "_0": "The standardized rate for comparison"
        }
      },
      "convertVenusRateToAPY(uint256)": {
        "details": "Similar to the Compound conversion, but with different scaling.      The returned value is in fixedpoint format (divide by PRECISION to get the percentage)."
      },
      "findOptimalBorrowRate(address)": {
        "params": {
          "_token": "The token address to check"
        },
        "returns": {
          "_0": "The protocol name and the standardized borrow rate"
        }
      },
      "findOptimalSupplyRate(address)": {
        "params": {
          "_token": "The token address to check"
        },
        "returns": {
          "_0": "The protocol name and the standardized supply rate"
        }
      },
      "getAllProtocolBorrowRates(address)": {
        "params": {
          "_token": "The token address to check"
        },
        "returns": {
          "protocols": "Array of protocol names",
          "rates": "Array of standardized borrow rates",
          "success": "Array indicating if each rate was retrieved successfully"
        }
      },
      "getAllProtocolRates(address)": {
        "params": {
          "_token": "The token address to check"
        },
        "returns": {
          "protocols": "Array of protocol names",
          "rates": "Array of standardized rates",
          "success": "Array indicating if each rate was retrieved successfully"
        }
      },
      "getRegisteredGateways()": {
        "returns": {
          "_0": "Array of registered gateway names"
        }
      },
      "multiFindOptimalInterestRate(address[])": {
        "params": {
          "_tokens": "Array of token addresses"
        },
        "returns": {
          "_0": "Array of protocol names and standardized rates"
        }
      },
      "owner()": {
        "details": "Returns the address of the current owner."
      },
      "registerGateway(string,address)": {
        "params": {
          "gateway": "The address of the gateway",
          "name": "The name of the gateway (e.g., \"aave\", \"compound\", \"venus\")"
        }
      },
      "removeGateway(string)": {
        "params": {
          "name": "The name of the gateway to remove"
        }
      },
      "renounceOwnership()": {
        "details": "Leaves the contract without owner. It will not be possible to call `onlyOwner` functions. Can only be called by the current owner. NOTE: Renouncing ownership will leave the contract without an owner, thereby disabling any functionality that is only available to the owner."
      },
      "transferOwnership(address)": {
        "details": "Transfers ownership of the contract to a new account (`newOwner`). Can only be called by the current owner."
      }
    },
    "version": 1
  },
  "userdoc": {
    "kind": "user",
    "methods": {
      "convertAaveRateToAPY(uint256)": {
        "notice": "Converts Aave's rate (originally converted in JS as rate/1e25) to an APY percentage."
      },
      "convertCompoundRateToAPR(uint256)": {
        "notice": "Converts Compound's persecond rate (scaled by 1e18) to an APR percentage."
      },
      "convertRateToStandardized(string,uint256)": {
        "notice": "Converts a protocol rate to a standardized APY percentage"
      },
      "convertVenusRateToAPY(uint256)": {
        "notice": "Converts Venus's APY rate (scaled by 1e18) to an APY percentage."
      },
      "findOptimalBorrowRate(address)": {
        "notice": "Find the optimal borrow rate across all registered gateways"
      },
      "findOptimalSupplyRate(address)": {
        "notice": "Find the optimal supply rate across all registered gateways"
      },
      "getAllProtocolBorrowRates(address)": {
        "notice": "Get all borrow rates for a token across all registered protocols"
      },
      "getAllProtocolRates(address)": {
        "notice": "Get all rates for a token across all registered protocols"
      },
      "getRegisteredGateways()": {
        "notice": "Get all registered gateway names"
      },
      "multiFindOptimalInterestRate(address[])": {
        "notice": "Find optimal interest rates for multiple tokens"
      },
      "registerGateway(string,address)": {
        "notice": "Register a gateway with the interest rate finder"
      },
      "removeGateway(string)": {
        "notice": "Remove a gateway from the interest rate finder"
      }
    },
    "version": 1
  },
  "storageLayout": {
    "storage": [
      {
        "astId": 2312,
        "contract": "contracts/OptimalInterestRateFinder.sol:OptimalInterestRateFinder",
        "label": "_owner",
        "offset": 0,
        "slot": "0",
        "type": "t_address"
      },
      {
        "astId": 3904,
        "contract": "contracts/OptimalInterestRateFinder.sol:OptimalInterestRateFinder",
        "label": "gateways",
        "offset": 0,
        "slot": "1",
        "type": "t_mapping(t_string_memory_ptr,t_contract(IGateway)12169)"
      },
      {
        "astId": 3907,
        "contract": "contracts/OptimalInterestRateFinder.sol:OptimalInterestRateFinder",
        "label": "registeredGatewayNames",
        "offset": 0,
        "slot": "2",
        "type": "t_array(t_string_storage)dyn_storage"
      }
    ],
    "types": {
      "t_address": {
        "encoding": "inplace",
        "label": "address",
        "numberOfBytes": "20"
      },
      "t_array(t_string_storage)dyn_storage": {
        "base": "t_string_storage",
        "encoding": "dynamic_array",
        "label": "string[]",
        "numberOfBytes": "32"
      },
      "t_contract(IGateway)12169": {
        "encoding": "inplace",
        "label": "contract IGateway",
        "numberOfBytes": "20"
      },
      "t_mapping(t_string_memory_ptr,t_contract(IGateway)12169)": {
        "encoding": "mapping",
        "key": "t_string_memory_ptr",
        "label": "mapping(string => contract IGateway)",
        "numberOfBytes": "32",
        "value": "t_contract(IGateway)12169"
      },
      "t_string_memory_ptr": {
        "encoding": "bytes",
        "label": "string",
        "numberOfBytes": "32"
      },
      "t_string_storage": {
        "encoding": "bytes",
        "label": "string",
        "numberOfBytes": "32"
      }
    }
  }
}