{
  "address": "0xf12E138aB25BA641a8d76b53c077003816485b99",
  "abi": [
    {
      "inputs": [
        {
          "internalType": "address",
          "name": "router",
          "type": "address"
        },
        {
          "internalType": "address",
          "name": "owner_",
          "type": "address"
        }
      ],
      "stateMutability": "nonpayable",
      "type": "constructor"
    },
    {
      "inputs": [
        {
          "internalType": "address",
          "name": "target",
          "type": "address"
        }
      ],
      "name": "AddressEmptyCode",
      "type": "error"
    },
    {
      "inputs": [
        {
          "internalType": "address",
          "name": "account",
          "type": "address"
        }
      ],
      "name": "AddressInsufficientBalance",
      "type": "error"
    },
    {
      "inputs": [],
      "name": "FailedInnerCall",
      "type": "error"
    },
    {
      "inputs": [
        {
          "internalType": "address",
          "name": "owner",
          "type": "address"
        }
      ],
      "name": "OwnableInvalidOwner",
      "type": "error"
    },
    {
      "inputs": [
        {
          "internalType": "address",
          "name": "account",
          "type": "address"
        }
      ],
      "name": "OwnableUnauthorizedAccount",
      "type": "error"
    },
    {
      "inputs": [],
      "name": "ReentrancyGuardReentrantCall",
      "type": "error"
    },
    {
      "inputs": [
        {
          "internalType": "address",
          "name": "token",
          "type": "address"
        }
      ],
      "name": "SafeERC20FailedOperation",
      "type": "error"
    },
    {
      "anonymous": false,
      "inputs": [
        {
          "indexed": true,
          "internalType": "address",
          "name": "previousOwner",
          "type": "address"
        },
        {
          "indexed": true,
          "internalType": "address",
          "name": "newOwner",
          "type": "address"
        }
      ],
      "name": "OwnershipTransferred",
      "type": "event"
    },
    {
      "inputs": [],
      "name": "ROUTER",
      "outputs": [
        {
          "internalType": "address",
          "name": "",
          "type": "address"
        }
      ],
      "stateMutability": "view",
      "type": "function"
    },
    {
      "inputs": [],
      "name": "adapter",
      "outputs": [
        {
          "internalType": "contract PendleAdapter",
          "name": "",
          "type": "address"
        }
      ],
      "stateMutability": "view",
      "type": "function"
    },
    {
      "inputs": [
        {
          "components": [
            {
              "internalType": "enum ProtocolTypes.LendingOp",
              "name": "op",
              "type": "uint8"
            },
            {
              "internalType": "address",
              "name": "token",
              "type": "address"
            },
            {
              "internalType": "address",
              "name": "user",
              "type": "address"
            },
            {
              "internalType": "uint256",
              "name": "amount",
              "type": "uint256"
            },
            {
              "internalType": "bytes",
              "name": "context",
              "type": "bytes"
            },
            {
              "components": [
                {
                  "internalType": "uint256",
                  "name": "index",
                  "type": "uint256"
                }
              ],
              "internalType": "struct ProtocolTypes.InputPtr",
              "name": "input",
              "type": "tuple"
            }
          ],
          "internalType": "struct ProtocolTypes.LendingInstruction[]",
          "name": "instrs",
          "type": "tuple[]"
        },
        {
          "internalType": "address",
          "name": "",
          "type": "address"
        },
        {
          "components": [
            {
              "internalType": "address",
              "name": "token",
              "type": "address"
            },
            {
              "internalType": "uint256",
              "name": "amount",
              "type": "uint256"
            }
          ],
          "internalType": "struct ProtocolTypes.Output[]",
          "name": "inputs",
          "type": "tuple[]"
        }
      ],
      "name": "authorize",
      "outputs": [
        {
          "internalType": "address[]",
          "name": "targets",
          "type": "address[]"
        },
        {
          "internalType": "bytes[]",
          "name": "data",
          "type": "bytes[]"
        },
        {
          "components": [
            {
              "internalType": "address",
              "name": "token",
              "type": "address"
            },
            {
              "internalType": "uint256",
              "name": "amount",
              "type": "uint256"
            }
          ],
          "internalType": "struct ProtocolTypes.Output[]",
          "name": "produced",
          "type": "tuple[]"
        }
      ],
      "stateMutability": "pure",
      "type": "function"
    },
    {
      "inputs": [
        {
          "components": [
            {
              "internalType": "enum ProtocolTypes.LendingOp",
              "name": "op",
              "type": "uint8"
            },
            {
              "internalType": "address",
              "name": "token",
              "type": "address"
            },
            {
              "internalType": "address",
              "name": "user",
              "type": "address"
            },
            {
              "internalType": "uint256",
              "name": "amount",
              "type": "uint256"
            },
            {
              "internalType": "bytes",
              "name": "context",
              "type": "bytes"
            },
            {
              "components": [
                {
                  "internalType": "uint256",
                  "name": "index",
                  "type": "uint256"
                }
              ],
              "internalType": "struct ProtocolTypes.InputPtr",
              "name": "input",
              "type": "tuple"
            }
          ],
          "internalType": "struct ProtocolTypes.LendingInstruction[]",
          "name": "instrs",
          "type": "tuple[]"
        },
        {
          "internalType": "address",
          "name": "",
          "type": "address"
        },
        {
          "components": [
            {
              "internalType": "address",
              "name": "token",
              "type": "address"
            },
            {
              "internalType": "uint256",
              "name": "amount",
              "type": "uint256"
            }
          ],
          "internalType": "struct ProtocolTypes.Output[]",
          "name": "",
          "type": "tuple[]"
        }
      ],
      "name": "deauthorize",
      "outputs": [
        {
          "internalType": "address[]",
          "name": "targets",
          "type": "address[]"
        },
        {
          "internalType": "bytes[]",
          "name": "data",
          "type": "bytes[]"
        }
      ],
      "stateMutability": "pure",
      "type": "function"
    },
    {
      "inputs": [],
      "name": "owner",
      "outputs": [
        {
          "internalType": "address",
          "name": "",
          "type": "address"
        }
      ],
      "stateMutability": "view",
      "type": "function"
    },
    {
      "inputs": [
        {
          "components": [
            {
              "internalType": "address",
              "name": "token",
              "type": "address"
            },
            {
              "internalType": "uint256",
              "name": "amount",
              "type": "uint256"
            }
          ],
          "internalType": "struct ProtocolTypes.Output[]",
          "name": "inputs",
          "type": "tuple[]"
        },
        {
          "internalType": "bytes",
          "name": "data",
          "type": "bytes"
        }
      ],
      "name": "processLendingInstruction",
      "outputs": [
        {
          "components": [
            {
              "internalType": "address",
              "name": "token",
              "type": "address"
            },
            {
              "internalType": "uint256",
              "name": "amount",
              "type": "uint256"
            }
          ],
          "internalType": "struct ProtocolTypes.Output[]",
          "name": "outputs",
          "type": "tuple[]"
        }
      ],
      "stateMutability": "nonpayable",
      "type": "function"
    },
    {
      "inputs": [],
      "name": "renounceOwnership",
      "outputs": [],
      "stateMutability": "nonpayable",
      "type": "function"
    },
    {
      "inputs": [
        {
          "internalType": "address",
          "name": "_adapter",
          "type": "address"
        }
      ],
      "name": "setAdapter",
      "outputs": [],
      "stateMutability": "nonpayable",
      "type": "function"
    },
    {
      "inputs": [
        {
          "internalType": "address",
          "name": "newOwner",
          "type": "address"
        }
      ],
      "name": "transferOwnership",
      "outputs": [],
      "stateMutability": "nonpayable",
      "type": "function"
    }
  ],
  "transactionHash": "0x2ed0a47d6c0bfb8bcd22505320a4e3cca4cff63422db71a5fad6bc6d4964a9e0",
  "args": [
    "0x97bF826cD87784c9e5A924F8d97918632AA4BFfC",
    "0x0BE61223F99E57b8b8B7033a77B54Adc7f7cF027"
  ],
  "numDeployments": 7,
  "solcInputHash": "cf5ff5c132e6b3e2cf29e3be8b528fd9",
  "bytecode": "0x60a060405234801561000f575f5ffd5b5060405161172938038061172983398101604081905261002e91610124565b80826001600160a01b0381166100765760405162461bcd60e51b81526020600482015260086024820152670726f757465723d360c41b60448201526064015b60405180910390fd5b6001600160a01b0390811660805281166100a557604051631e4fbdf760e01b81525f600482015260240161006d565b6100ae816100ba565b50506001805550610155565b5f80546001600160a01b038381166001600160a01b0319831681178455604051919092169283917f8be0079c531659141344cd1fd0a4f28419497f9722a3daafe3b4186f6b6457e09190a35050565b80516001600160a01b038116811461011f575f5ffd5b919050565b5f5f60408385031215610135575f5ffd5b61013e83610109565b915061014c60208401610109565b90509250929050565b6080516115b66101735f395f818160b301526106e801526115b65ff3fe608060405234801561000f575f5ffd5b5060043610610081575f3560e01c806303eadcfc1461008557806332fe7b26146100ae57806352ed5875146100d5578063715018a6146100f75780638da5cb5b14610101578063aad11a3f14610109578063ab1da79c1461012a578063ae4be46d1461013d578063f2fde38b1461015d575b5f5ffd5b600254610098906001600160a01b031681565b6040516100a59190610dcb565b60405180910390f35b6100987f000000000000000000000000000000000000000000000000000000000000000081565b6100e86100e3366004610e4a565b610170565b6040516100a593929190611007565b6100ff61057f565b005b610098610592565b61011c610117366004610e4a565b6105a0565b6040516100a5929190611049565b6100ff610138366004611076565b6106b1565b61015061014b366004611091565b6106db565b6040516100a59190611127565b6100ff61016b366004611076565b610ae5565b60608080866001600160401b0381111561018c5761018c611139565b6040519080825280602002602001820160405280156101b5578160200160208202803683370190505b509250866001600160401b038111156101d0576101d0611139565b60405190808252806020026020018201604052801561020357816020015b60608152602001906001900390816101ee5790505b5091505f805b888110156102bf5760078a8a8381811061022557610225611161565b90506020028101906102379190611175565b6102459060208101906111a1565b60098111156102565761025661114d565b14806102a4575060088a8a8381811061027157610271611161565b90506020028101906102839190611175565b6102919060208101906111a1565b60098111156102a2576102a261114d565b145b156102b7576102b46002836111ce565b91505b600101610209565b50806001600160401b038111156102d8576102d8611139565b60405190808252806020026020018201604052801561031c57816020015b604080518082019091525f80825260208201528152602001906001900390816102f65790505b5091505f805b8981101561057157368b8b8381811061033d5761033d611161565b905060200281019061034f9190611175565b9050600761036060208301836111a1565b60098111156103715761037161114d565b148061039a5750600861038760208301836111a1565b60098111156103985761039861114d565b145b15610508575f8783815181106103b2576103b2611161565b60200260200101906001600160a01b031690816001600160a01b03168152505060405180602001604052805f8152508683815181106103f3576103f3611161565b60209081029190910101525f8061040d60808401846111e1565b81019061041a9190611315565b50915091506040518060400160405280836001600160a01b031681526020018281525087868151811061044f5761044f611161565b6020026020010181905250848061046590611369565b95505f905061047a6040850160208601611076565b905060a08401358b11156104b7578b8b60a086013581811061049e5761049e611161565b6104b49260206040909202019081019150611076565b90505b6040518060400160405280826001600160a01b031681526020015f8152508887815181106104e7576104e7611161565b602002602001018190525085806104fd90611369565b965050505050610568565b5f87838151811061051b5761051b611161565b60200260200101906001600160a01b031690816001600160a01b03168152505060405180602001604052805f81525086838151811061055c5761055c611161565b60200260200101819052505b50600101610322565b505050955095509592505050565b610587610b22565b6105905f610b54565b565b5f546001600160a01b031690565b606080856001600160401b038111156105bb576105bb611139565b6040519080825280602002602001820160405280156105e4578160200160208202803683370190505b509150856001600160401b038111156105ff576105ff611139565b60405190808252806020026020018201604052801561063257816020015b606081526020019060019003908161061d5790505b5090505f5b868110156106a6575f83828151811061065257610652611161565b60200260200101906001600160a01b031690816001600160a01b03168152505060405180602001604052805f81525082828151811061069357610693611161565b6020908102919091010152600101610637565b509550959350505050565b6106b9610b22565b600280546001600160a01b0319166001600160a01b0392909216919091179055565b6060336001600160a01b037f000000000000000000000000000000000000000000000000000000000000000016146107515760405162461bcd60e51b815260206004820152601460248201527313db9b1e481c9bdd5d195c8818d85b8818d85b1b60621b60448201526064015b60405180910390fd5b5f61075e83850185611381565b90506007815160098111156107755761077561114d565b148061079357506008815160098111156107915761079161114d565b145b15610a9b576020810151606082015160a0830151518711156108065787878460a001515f01518181106107c8576107c8611161565b6107de9260206040909202019081019150611076565b915087878460a001515f01518181106107f9576107f9611161565b9050604002016020013590505b6002546001600160a01b03166108585760405162461bcd60e51b815260206004820152601760248201527614195b991b194e881059185c1d195c881b9bdd081cd95d604a1b6044820152606401610748565b6001600160a01b0382166108a35760405162461bcd60e51b81526020600482015260126024820152712832b73236329d102d32b937903a37b5b2b760711b6044820152606401610748565b5f81116108e85760405162461bcd60e51b815260206004820152601360248201527214195b991b194e8816995c9bc8185b5bdd5b9d606a1b6044820152606401610748565b5f5f5f85608001518060200190518101906109039190611455565b6002549295509093509150610927906001600160a01b038781169133911687610ba3565b600254604051628c85d360e61b81525f9182916001600160a01b039091169063232174c090610962908a9089908b908a908a906004016114e5565b60408051808303815f875af115801561097d573d5f5f3e3d5ffd5b505050506040513d601f19601f820116820180604052508101906109a19190611529565b60408051600280825260608201909252929450909250816020015b604080518082019091525f80825260208201528152602001906001900390816109bc5790505098506040518060400160405280866001600160a01b0316815260200183815250895f81518110610a1457610a14611161565b60200260200101819052506040518060400160405280886001600160a01b031681526020018281525089600181518110610a5057610a50611161565b60209081029190910101528115610a7557610a756001600160a01b0386163384610c10565b8015610a8f57610a8f6001600160a01b0388163383610c10565b50505050505050610adc565b60405162461bcd60e51b8152602060048201526016602482015275050656e646c653a20556e737570706f72746564204f760541b6044820152606401610748565b50949350505050565b610aed610b22565b6001600160a01b038116610b16575f604051631e4fbdf760e01b81526004016107489190610dcb565b610b1f81610b54565b50565b33610b2b610592565b6001600160a01b031614610590573360405163118cdaa760e01b81526004016107489190610dcb565b5f80546001600160a01b038381166001600160a01b0319831681178455604051919092169283917f8be0079c531659141344cd1fd0a4f28419497f9722a3daafe3b4186f6b6457e09190a35050565b6040516001600160a01b038481166024830152838116604483015260648201839052610c0a9186918216906323b872dd906084015b604051602081830303815290604052915060e01b6020820180516001600160e01b038381831617835250505050610c46565b50505050565b6040516001600160a01b03838116602483015260448201839052610c4191859182169063a9059cbb90606401610bd8565b505050565b5f610c5a6001600160a01b03841683610c9e565b905080515f14158015610c7e575080806020019051810190610c7c919061154b565b155b15610c415782604051635274afe760e01b81526004016107489190610dcb565b6060610cab83835f610cb4565b90505b92915050565b606081471015610cd9573060405163cd78605960e01b81526004016107489190610dcb565b5f5f856001600160a01b03168486604051610cf4919061156a565b5f6040518083038185875af1925050503d805f8114610d2e576040519150601f19603f3d011682016040523d82523d5f602084013e610d33565b606091505b5091509150610d43868383610d4f565b925050505b9392505050565b606082610d6457610d5f82610da2565b610d48565b8151158015610d7b57506001600160a01b0384163b155b15610d9b5783604051639996b31560e01b81526004016107489190610dcb565b5080610d48565b805115610db25780518082602001fd5b604051630a12f52160e11b815260040160405180910390fd5b6001600160a01b0391909116815260200190565b6001600160a01b0381168114610b1f575f5ffd5b8035610dfe81610ddf565b919050565b5f5f83601f840112610e13575f5ffd5b5081356001600160401b03811115610e29575f5ffd5b6020830191508360208260061b8501011115610e43575f5ffd5b9250929050565b5f5f5f5f5f60608688031215610e5e575f5ffd5b85356001600160401b03811115610e73575f5ffd5b8601601f81018813610e83575f5ffd5b80356001600160401b03811115610e98575f5ffd5b8860208260051b8401011115610eac575f5ffd5b602091820196509450610ec0908701610df3565b925060408601356001600160401b03811115610eda575f5ffd5b610ee688828901610e03565b969995985093965092949392505050565b5f8151808452602084019350602083015f5b82811015610f305781516001600160a01b0316865260209586019590910190600101610f09565b5093949350505050565b5f81518084528060208401602086015e5f602082860101526020601f19601f83011685010191505092915050565b5f82825180855260208501945060208160051b830101602085015f5b83811015610fb657601f19858403018852610fa0838351610f3a565b6020988901989093509190910190600101610f84565b50909695505050505050565b5f8151808452602084019350602083015f5b82811015610f3057815180516001600160a01b031687526020908101518188015260409096019590910190600101610fd4565b606081525f6110196060830186610ef7565b828103602084015261102b8186610f68565b9050828103604084015261103f8185610fc2565b9695505050505050565b604081525f61105b6040830185610ef7565b828103602084015261106d8185610f68565b95945050505050565b5f60208284031215611086575f5ffd5b8135610d4881610ddf565b5f5f5f5f604085870312156110a4575f5ffd5b84356001600160401b038111156110b9575f5ffd5b6110c587828801610e03565b90955093505060208501356001600160401b038111156110e3575f5ffd5b8501601f810187136110f3575f5ffd5b80356001600160401b03811115611108575f5ffd5b876020828401011115611119575f5ffd5b949793965060200194505050565b602081525f610cab6020830184610fc2565b634e487b7160e01b5f52604160045260245ffd5b634e487b7160e01b5f52602160045260245ffd5b634e487b7160e01b5f52603260045260245ffd5b5f823560be19833603018112611189575f5ffd5b9190910192915050565b8035600a8110610dfe575f5ffd5b5f602082840312156111b1575f5ffd5b610cab82611193565b634e487b7160e01b5f52601160045260245ffd5b80820180821115610cae57610cae6111ba565b5f5f8335601e198436030181126111f6575f5ffd5b8301803591506001600160401b0382111561120f575f5ffd5b602001915036819003821315610e43575f5ffd5b60405160c081016001600160401b038111828210171561124557611245611139565b60405290565b604051602081016001600160401b038111828210171561124557611245611139565b604051601f8201601f191681016001600160401b038111828210171561129557611295611139565b604052919050565b5f6001600160401b038211156112b5576112b5611139565b50601f01601f191660200190565b5f82601f8301126112d2575f5ffd5b81356112e56112e08261129d565b61126d565b8181528460208386010111156112f9575f5ffd5b816020850160208301375f918101602001919091529392505050565b5f5f5f60608486031215611327575f5ffd5b833561133281610ddf565b92506020840135915060408401356001600160401b03811115611353575f5ffd5b61135f868287016112c3565b9150509250925092565b5f6001820161137a5761137a6111ba565b5060010190565b5f60208284031215611391575f5ffd5b81356001600160401b038111156113a6575f5ffd5b820180840360c08112156113b8575f5ffd5b6113c0611223565b6113c983611193565b815260208301356113d981610ddf565b602082015260408301356113ec81610ddf565b60408201526060838101359082015260808301356001600160401b03811115611413575f5ffd5b61141f878286016112c3565b6080830152506020609f1983011215611436575f5ffd5b61143e61124b565b60a093840135815292810192909252509392505050565b5f5f5f60608486031215611467575f5ffd5b835161147281610ddf565b6020850151604086015191945092506001600160401b03811115611494575f5ffd5b8401601f810186136114a4575f5ffd5b80516114b26112e08261129d565b8181528760208385010111156114c6575f5ffd5b8160208401602083015e5f602083830101528093505050509250925092565b6001600160a01b03868116825285166020820152604081018490526060810183905260a0608082018190525f9061151e90830184610f3a565b979650505050505050565b5f5f6040838503121561153a575f5ffd5b505080516020909101519092909150565b5f6020828403121561155b575f5ffd5b81518015158114610d48575f5ffd5b5f82518060208501845e5f92019182525091905056fea26469706673582212208fb03d061ef28c2fd8366fb9c95f881aee20253f5fa3af414f34d45e11588bec64736f6c634300081e0033",
  "devdoc": {
    "errors": {
      "AddressEmptyCode(address)": [
        {
          "details": "There's no code at `target` (it is not a contract)."
        }
      ],
      "AddressInsufficientBalance(address)": [
        {
          "details": "The ETH balance of the account is not enough to perform the operation."
        }
      ],
      "FailedInnerCall()": [
        {
          "details": "A call to an address target failed. The target may have reverted."
        }
      ],
      "OwnableInvalidOwner(address)": [
        {
          "details": "The owner is not a valid owner account. (eg. `address(0)`)"
        }
      ],
      "OwnableUnauthorizedAccount(address)": [
        {
          "details": "The caller account is not authorized to perform an operation."
        }
      ],
      "ReentrancyGuardReentrantCall()": [
        {
          "details": "Unauthorized reentrant call."
        }
      ],
      "SafeERC20FailedOperation(address)": [
        {
          "details": "An operation with an ERC20 token failed."
        }
      ]
    },
    "kind": "dev",
    "methods": {
      "owner()": {
        "details": "Returns the address of the current owner."
      },
      "renounceOwnership()": {
        "details": "Leaves the contract without owner. It will not be possible to call `onlyOwner` functions. Can only be called by the current owner. NOTE: Renouncing ownership will leave the contract without an owner, thereby disabling any functionality that is only available to the owner."
      },
      "transferOwnership(address)": {
        "details": "Transfers ownership of the contract to a new account (`newOwner`). Can only be called by the current owner."
      }
    },
    "version": 1
  },
  "userdoc": {
    "kind": "user",
    "methods": {
      "ROUTER()": {
        "notice": "Immutable router address that can call protected functions"
      }
    },
    "version": 1
  },
  "storageLayout": {
    "storage": [
      {
        "astId": 1578,
        "contract": "contracts/v2/gateways/pendle/PendleGateway.sol:PendleGateway",
        "label": "_owner",
        "offset": 0,
        "slot": "0",
        "type": "t_address"
      },
      {
        "astId": 3093,
        "contract": "contracts/v2/gateways/pendle/PendleGateway.sol:PendleGateway",
        "label": "_status",
        "offset": 0,
        "slot": "1",
        "type": "t_uint256"
      },
      {
        "astId": 26661,
        "contract": "contracts/v2/gateways/pendle/PendleGateway.sol:PendleGateway",
        "label": "adapter",
        "offset": 0,
        "slot": "2",
        "type": "t_contract(PendleAdapter)26628"
      }
    ],
    "types": {
      "t_address": {
        "encoding": "inplace",
        "label": "address",
        "numberOfBytes": "20"
      },
      "t_contract(PendleAdapter)26628": {
        "encoding": "inplace",
        "label": "contract PendleAdapter",
        "numberOfBytes": "20"
      },
      "t_uint256": {
        "encoding": "inplace",
        "label": "uint256",
        "numberOfBytes": "32"
      }
    }
  }
}