{
  "address": "0x32aAD5F774652F379E2203E4e62F1021DAd77aFd",
  "abi": [
    {
      "inputs": [
        {
          "internalType": "address",
          "name": "_gateway",
          "type": "address"
        },
        {
          "internalType": "address",
          "name": "_router",
          "type": "address"
        }
      ],
      "stateMutability": "nonpayable",
      "type": "constructor"
    },
    {
      "inputs": [
        {
          "internalType": "address",
          "name": "target",
          "type": "address"
        }
      ],
      "name": "AddressEmptyCode",
      "type": "error"
    },
    {
      "inputs": [
        {
          "internalType": "address",
          "name": "account",
          "type": "address"
        }
      ],
      "name": "AddressInsufficientBalance",
      "type": "error"
    },
    {
      "inputs": [],
      "name": "FailedInnerCall",
      "type": "error"
    },
    {
      "inputs": [
        {
          "internalType": "address",
          "name": "owner",
          "type": "address"
        }
      ],
      "name": "OwnableInvalidOwner",
      "type": "error"
    },
    {
      "inputs": [
        {
          "internalType": "address",
          "name": "account",
          "type": "address"
        }
      ],
      "name": "OwnableUnauthorizedAccount",
      "type": "error"
    },
    {
      "inputs": [
        {
          "internalType": "address",
          "name": "token",
          "type": "address"
        }
      ],
      "name": "SafeERC20FailedOperation",
      "type": "error"
    },
    {
      "anonymous": false,
      "inputs": [
        {
          "indexed": true,
          "internalType": "address",
          "name": "previousOwner",
          "type": "address"
        },
        {
          "indexed": true,
          "internalType": "address",
          "name": "newOwner",
          "type": "address"
        }
      ],
      "name": "OwnershipTransferred",
      "type": "event"
    },
    {
      "inputs": [],
      "name": "PENDLE_ROUTER",
      "outputs": [
        {
          "internalType": "address",
          "name": "",
          "type": "address"
        }
      ],
      "stateMutability": "view",
      "type": "function"
    },
    {
      "inputs": [
        {
          "internalType": "address",
          "name": "tokenIn",
          "type": "address"
        },
        {
          "internalType": "address",
          "name": "tokenOut",
          "type": "address"
        },
        {
          "internalType": "uint256",
          "name": "amountIn",
          "type": "uint256"
        },
        {
          "internalType": "uint256",
          "name": "minAmountOut",
          "type": "uint256"
        },
        {
          "internalType": "bytes",
          "name": "data",
          "type": "bytes"
        }
      ],
      "name": "executeSwap",
      "outputs": [
        {
          "internalType": "uint256",
          "name": "amountReceived",
          "type": "uint256"
        },
        {
          "internalType": "uint256",
          "name": "amountRefunded",
          "type": "uint256"
        }
      ],
      "stateMutability": "nonpayable",
      "type": "function"
    },
    {
      "inputs": [],
      "name": "kapanGateway",
      "outputs": [
        {
          "internalType": "address",
          "name": "",
          "type": "address"
        }
      ],
      "stateMutability": "view",
      "type": "function"
    },
    {
      "inputs": [],
      "name": "owner",
      "outputs": [
        {
          "internalType": "address",
          "name": "",
          "type": "address"
        }
      ],
      "stateMutability": "view",
      "type": "function"
    },
    {
      "inputs": [],
      "name": "renounceOwnership",
      "outputs": [],
      "stateMutability": "nonpayable",
      "type": "function"
    },
    {
      "inputs": [
        {
          "internalType": "address",
          "name": "_gateway",
          "type": "address"
        }
      ],
      "name": "setGateway",
      "outputs": [],
      "stateMutability": "nonpayable",
      "type": "function"
    },
    {
      "inputs": [
        {
          "internalType": "address",
          "name": "newOwner",
          "type": "address"
        }
      ],
      "name": "transferOwnership",
      "outputs": [],
      "stateMutability": "nonpayable",
      "type": "function"
    }
  ],
  "transactionHash": "0x65a5b4f18560d2b03a57262ae814f3b4f891ef498c7bc37d705ae25489cea807",
  "args": [
    "0xf12E138aB25BA641a8d76b53c077003816485b99",
    "0x888888888889758F76e7103c6CbF23ABbF58F946"
  ],
  "numDeployments": 7,
  "solcInputHash": "cf5ff5c132e6b3e2cf29e3be8b528fd9",
  "bytecode": "0x60a060405234801561000f575f5ffd5b50604051610cc5380380610cc583398101604081905261002e916100ec565b338061005357604051631e4fbdf760e01b81525f600482015260240160405180910390fd5b61005c81610082565b50600180546001600160a01b0319166001600160a01b039384161790551660805261011d565b5f80546001600160a01b038381166001600160a01b0319831681178455604051919092169283917f8be0079c531659141344cd1fd0a4f28419497f9722a3daafe3b4186f6b6457e09190a35050565b80516001600160a01b03811681146100e7575f5ffd5b919050565b5f5f604083850312156100fd575f5ffd5b610106836100d1565b9150610114602084016100d1565b90509250929050565b608051610b7c6101495f395f818160a10152818161023b015281816102c4015261035d0152610b7c5ff3fe608060405234801561000f575f5ffd5b506004361061006b575f3560e01c8063232174c01461006f5780633c97b00d1461009c578063715018a6146100d05780638da5cb5b146100da57806390646b4a146100e2578063dcb1374a146100f5578063f2fde38b14610108575b5f5ffd5b61008261007d3660046109e7565b61011b565b604080519283526020830191909152015b60405180910390f35b6100c37f000000000000000000000000000000000000000000000000000000000000000081565b6040516100939190610a86565b6100d86105ac565b005b6100c36105bf565b6100d86100f0366004610a9a565b6105cd565b6001546100c3906001600160a01b031681565b6100d8610116366004610a9a565b6105f7565b6001545f9081906001600160a01b031633146101765760405162461bcd60e51b8152602060048201526015602482015274416461707465723a204f6e6c79204761746577617960581b60448201526064015b60405180910390fd5b6001600160a01b0388161580159061019657506001600160a01b03871615155b6101d85760405162461bcd60e51b815260206004820152601360248201527220b230b83a32b91d103d32b937903a37b5b2b760691b604482015260640161016d565b5f861161021e5760405162461bcd60e51b81526020600482015260146024820152731059185c1d195c8e881e995c9bc8185b5bdd5b9d60621b604482015260640161016d565b604051636eb1769f60e11b81523060048201526001600160a01b037f0000000000000000000000000000000000000000000000000000000000000000811660248301528791908a169063dd62ed3e90604401602060405180830381865afa15801561028b573d5f5f3e3d5ffd5b505050506040513d601f19601f820116820180604052508101906102af9190610ab3565b10156102ea576102ea6001600160a01b0389167f00000000000000000000000000000000000000000000000000000000000000005f19610634565b6040516370a0823160e01b81525f906001600160a01b038916906370a0823190610318903090600401610a86565b602060405180830381865afa158015610333573d5f5f3e3d5ffd5b505050506040513d601f19601f820116820180604052508101906103579190610ab3565b90505f5f7f00000000000000000000000000000000000000000000000000000000000000006001600160a01b03168787604051610395929190610aca565b5f604051808303815f865af19150503d805f81146103ce576040519150601f19603f3d011682016040523d82523d5f602084013e6103d3565b606091505b509150915081610433578051156103ed5780518082602001fd5b60405162461bcd60e51b815260206004820152601b60248201527a1059185c1d195c8e8814195b991b194814ddd85c0811985a5b1959602a1b604482015260640161016d565b6040516370a0823160e01b81525f906001600160a01b038c16906370a0823190610461903090600401610a86565b602060405180830381865afa15801561047c573d5f5f3e3d5ffd5b505050506040513d601f19601f820116820180604052508101906104a09190610ab3565b90505f8c6001600160a01b03166370a08231306040518263ffffffff1660e01b81526004016104cf9190610a86565b602060405180830381865afa1580156104ea573d5f5f3e3d5ffd5b505050506040513d601f19601f8201168201806040525081019061050e9190610ab3565b905061051a8583610ad9565b9650898710156105655760405162461bcd60e51b8152602060048201526016602482015275416461707465723a204869676820536c69707061676560501b604482015260640161016d565b9450848615610582576105826001600160a01b038d1633896106fc565b851561059c5761059c6001600160a01b038e1633886106fc565b5050505050965096945050505050565b6105b4610727565b6105bd5f610759565b565b5f546001600160a01b031690565b6105d5610727565b600180546001600160a01b0319166001600160a01b0392909216919091179055565b6105ff610727565b6001600160a01b038116610628575f604051631e4fbdf760e01b815260040161016d9190610a86565b61063181610759565b50565b5f836001600160a01b031663095ea7b38484604051602401610657929190610af8565b604051602081830303815290604052915060e01b6020820180516001600160e01b038381831617835250505050905061069084826107a8565b6106f6576106ec84856001600160a01b031663095ea7b3865f6040516024016106ba929190610af8565b604051602081830303815290604052915060e01b6020820180516001600160e01b03838183161783525050505061084b565b6106f6848261084b565b50505050565b61072283846001600160a01b031663a9059cbb85856040516024016106ba929190610af8565b505050565b336107306105bf565b6001600160a01b0316146105bd573360405163118cdaa760e01b815260040161016d9190610a86565b5f80546001600160a01b038381166001600160a01b0319831681178455604051919092169283917f8be0079c531659141344cd1fd0a4f28419497f9722a3daafe3b4186f6b6457e09190a35050565b5f5f5f846001600160a01b0316846040516107c39190610b11565b5f604051808303815f865af19150503d805f81146107fc576040519150601f19603f3d011682016040523d82523d5f602084013e610801565b606091505b509150915081801561082b57508051158061082b57508080602001905181019061082b9190610b27565b801561084057505f856001600160a01b03163b115b925050505b92915050565b5f61085f6001600160a01b038416836108a3565b905080515f141580156108835750808060200190518101906108819190610b27565b155b156107225782604051635274afe760e01b815260040161016d9190610a86565b60606108b083835f6108b7565b9392505050565b6060814710156108dc573060405163cd78605960e01b815260040161016d9190610a86565b5f5f856001600160a01b031684866040516108f79190610b11565b5f6040518083038185875af1925050503d805f8114610931576040519150601f19603f3d011682016040523d82523d5f602084013e610936565b606091505b5091509150610946868383610950565b9695505050505050565b60608261096557610960826109a3565b6108b0565b815115801561097c57506001600160a01b0384163b155b1561099c5783604051639996b31560e01b815260040161016d9190610a86565b50806108b0565b8051156109b35780518082602001fd5b604051630a12f52160e11b815260040160405180910390fd5b80356001600160a01b03811681146109e2575f5ffd5b919050565b5f5f5f5f5f5f60a087890312156109fc575f5ffd5b610a05876109cc565b9550610a13602088016109cc565b9450604087013593506060870135925060808701356001600160401b03811115610a3b575f5ffd5b8701601f81018913610a4b575f5ffd5b80356001600160401b03811115610a60575f5ffd5b896020828401011115610a71575f5ffd5b60208201935080925050509295509295509295565b6001600160a01b0391909116815260200190565b5f60208284031215610aaa575f5ffd5b6108b0826109cc565b5f60208284031215610ac3575f5ffd5b5051919050565b818382375f9101908152919050565b8181038181111561084557634e487b7160e01b5f52601160045260245ffd5b6001600160a01b03929092168252602082015260400190565b5f82518060208501845e5f920191825250919050565b5f60208284031215610b37575f5ffd5b815180151581146108b0575f5ffdfea2646970667358221220ccd567ca7cc769207436f8d70a64434c2ad6cee19f2e8d28d7333cbe8fb8dd0564736f6c634300081e0033",
  "devdoc": {
    "errors": {
      "AddressEmptyCode(address)": [
        {
          "details": "There's no code at `target` (it is not a contract)."
        }
      ],
      "AddressInsufficientBalance(address)": [
        {
          "details": "The ETH balance of the account is not enough to perform the operation."
        }
      ],
      "FailedInnerCall()": [
        {
          "details": "A call to an address target failed. The target may have reverted."
        }
      ],
      "OwnableInvalidOwner(address)": [
        {
          "details": "The owner is not a valid owner account. (eg. `address(0)`)"
        }
      ],
      "OwnableUnauthorizedAccount(address)": [
        {
          "details": "The caller account is not authorized to perform an operation."
        }
      ],
      "SafeERC20FailedOperation(address)": [
        {
          "details": "An operation with an ERC20 token failed."
        }
      ]
    },
    "kind": "dev",
    "methods": {
      "owner()": {
        "details": "Returns the address of the current owner."
      },
      "renounceOwnership()": {
        "details": "Leaves the contract without owner. It will not be possible to call `onlyOwner` functions. Can only be called by the current owner. NOTE: Renouncing ownership will leave the contract without an owner, thereby disabling any functionality that is only available to the owner."
      },
      "transferOwnership(address)": {
        "details": "Transfers ownership of the contract to a new account (`newOwner`). Can only be called by the current owner."
      }
    },
    "version": 1
  },
  "userdoc": {
    "kind": "user",
    "methods": {},
    "version": 1
  },
  "storageLayout": {
    "storage": [
      {
        "astId": 1578,
        "contract": "contracts/v2/gateways/pendle/PendleAdapter.sol:PendleAdapter",
        "label": "_owner",
        "offset": 0,
        "slot": "0",
        "type": "t_address"
      },
      {
        "astId": 26407,
        "contract": "contracts/v2/gateways/pendle/PendleAdapter.sol:PendleAdapter",
        "label": "kapanGateway",
        "offset": 0,
        "slot": "1",
        "type": "t_address"
      }
    ],
    "types": {
      "t_address": {
        "encoding": "inplace",
        "label": "address",
        "numberOfBytes": "20"
      }
    }
  }
}