{
  "address": "0xAB25FDc3A23514A5651F7b616500049E181F9523",
  "abi": [
    {
      "inputs": [
        {
          "internalType": "contract IVault",
          "name": "v3vault",
          "type": "address"
        },
        {
          "internalType": "contract IFlashLoanProvider",
          "name": "v2Vault",
          "type": "address"
        },
        {
          "internalType": "address",
          "name": "owner",
          "type": "address"
        }
      ],
      "stateMutability": "nonpayable",
      "type": "constructor"
    },
    {
      "inputs": [
        {
          "internalType": "address",
          "name": "target",
          "type": "address"
        }
      ],
      "name": "AddressEmptyCode",
      "type": "error"
    },
    {
      "inputs": [
        {
          "internalType": "address",
          "name": "account",
          "type": "address"
        }
      ],
      "name": "AddressInsufficientBalance",
      "type": "error"
    },
    {
      "inputs": [],
      "name": "FailedInnerCall",
      "type": "error"
    },
    {
      "inputs": [
        {
          "internalType": "address",
          "name": "owner",
          "type": "address"
        }
      ],
      "name": "OwnableInvalidOwner",
      "type": "error"
    },
    {
      "inputs": [
        {
          "internalType": "address",
          "name": "account",
          "type": "address"
        }
      ],
      "name": "OwnableUnauthorizedAccount",
      "type": "error"
    },
    {
      "inputs": [],
      "name": "ReentrancyGuardReentrantCall",
      "type": "error"
    },
    {
      "inputs": [
        {
          "internalType": "address",
          "name": "token",
          "type": "address"
        }
      ],
      "name": "SafeERC20FailedOperation",
      "type": "error"
    },
    {
      "anonymous": false,
      "inputs": [
        {
          "indexed": true,
          "internalType": "address",
          "name": "previousOwner",
          "type": "address"
        },
        {
          "indexed": true,
          "internalType": "address",
          "name": "newOwner",
          "type": "address"
        }
      ],
      "name": "OwnershipTransferred",
      "type": "event"
    },
    {
      "inputs": [
        {
          "internalType": "string",
          "name": "protocolName",
          "type": "string"
        },
        {
          "internalType": "address",
          "name": "gateway",
          "type": "address"
        }
      ],
      "name": "addGateway",
      "outputs": [],
      "stateMutability": "nonpayable",
      "type": "function"
    },
    {
      "inputs": [],
      "name": "balancerV2Vault",
      "outputs": [
        {
          "internalType": "contract IFlashLoanProvider",
          "name": "",
          "type": "address"
        }
      ],
      "stateMutability": "view",
      "type": "function"
    },
    {
      "inputs": [],
      "name": "balancerV3Vault",
      "outputs": [
        {
          "internalType": "contract IVault",
          "name": "",
          "type": "address"
        }
      ],
      "stateMutability": "view",
      "type": "function"
    },
    {
      "inputs": [
        {
          "internalType": "string",
          "name": "protocolName",
          "type": "string"
        },
        {
          "internalType": "address",
          "name": "token",
          "type": "address"
        },
        {
          "internalType": "address",
          "name": "user",
          "type": "address"
        },
        {
          "internalType": "uint256",
          "name": "amount",
          "type": "uint256"
        }
      ],
      "name": "borrow",
      "outputs": [],
      "stateMutability": "nonpayable",
      "type": "function"
    },
    {
      "inputs": [
        {
          "internalType": "string",
          "name": "fromProtocol",
          "type": "string"
        },
        {
          "internalType": "string",
          "name": "toProtocol",
          "type": "string"
        },
        {
          "internalType": "address",
          "name": "market",
          "type": "address"
        },
        {
          "internalType": "address",
          "name": "collateral",
          "type": "address"
        }
      ],
      "name": "canMoveCollateral",
      "outputs": [
        {
          "internalType": "bool",
          "name": "canMove",
          "type": "bool"
        }
      ],
      "stateMutability": "view",
      "type": "function"
    },
    {
      "inputs": [
        {
          "internalType": "string",
          "name": "",
          "type": "string"
        }
      ],
      "name": "gateways",
      "outputs": [
        {
          "internalType": "contract IGateway",
          "name": "",
          "type": "address"
        }
      ],
      "stateMutability": "view",
      "type": "function"
    },
    {
      "inputs": [
        {
          "internalType": "string",
          "name": "protocolName",
          "type": "string"
        },
        {
          "internalType": "address",
          "name": "token",
          "type": "address"
        },
        {
          "internalType": "address",
          "name": "user",
          "type": "address"
        }
      ],
      "name": "getBalance",
      "outputs": [
        {
          "internalType": "uint256",
          "name": "",
          "type": "uint256"
        }
      ],
      "stateMutability": "view",
      "type": "function"
    },
    {
      "inputs": [
        {
          "internalType": "string",
          "name": "protocolName",
          "type": "string"
        },
        {
          "internalType": "address",
          "name": "token",
          "type": "address"
        },
        {
          "internalType": "address",
          "name": "user",
          "type": "address"
        }
      ],
      "name": "getBorrowBalance",
      "outputs": [
        {
          "internalType": "uint256",
          "name": "",
          "type": "uint256"
        }
      ],
      "stateMutability": "view",
      "type": "function"
    },
    {
      "inputs": [
        {
          "internalType": "string",
          "name": "protocolName",
          "type": "string"
        },
        {
          "internalType": "address",
          "name": "debtToken",
          "type": "address"
        },
        {
          "internalType": "uint256",
          "name": "debtAmount",
          "type": "uint256"
        },
        {
          "internalType": "address",
          "name": "user",
          "type": "address"
        }
      ],
      "name": "getEncodedDebtApproval",
      "outputs": [
        {
          "internalType": "address[]",
          "name": "",
          "type": "address[]"
        },
        {
          "internalType": "bytes[]",
          "name": "",
          "type": "bytes[]"
        }
      ],
      "stateMutability": "view",
      "type": "function"
    },
    {
      "inputs": [
        {
          "internalType": "address",
          "name": "token",
          "type": "address"
        },
        {
          "internalType": "string",
          "name": "flashLoanVersion",
          "type": "string"
        }
      ],
      "name": "getFlashLoanProviderBalance",
      "outputs": [
        {
          "internalType": "uint256",
          "name": "",
          "type": "uint256"
        }
      ],
      "stateMutability": "view",
      "type": "function"
    },
    {
      "inputs": [
        {
          "internalType": "address",
          "name": "debtToken",
          "type": "address"
        },
        {
          "components": [
            {
              "internalType": "address",
              "name": "token",
              "type": "address"
            },
            {
              "internalType": "uint256",
              "name": "amount",
              "type": "uint256"
            }
          ],
          "internalType": "struct IGateway.Collateral[]",
          "name": "collaterals",
          "type": "tuple[]"
        },
        {
          "internalType": "string",
          "name": "fromProtocol",
          "type": "string"
        }
      ],
      "name": "getFromProtocolApprovalsForMove",
      "outputs": [
        {
          "internalType": "address[]",
          "name": "",
          "type": "address[]"
        },
        {
          "internalType": "bytes[]",
          "name": "",
          "type": "bytes[]"
        }
      ],
      "stateMutability": "view",
      "type": "function"
    },
    {
      "inputs": [
        {
          "internalType": "address",
          "name": "token",
          "type": "address"
        },
        {
          "internalType": "string",
          "name": "protocolName",
          "type": "string"
        },
        {
          "internalType": "address",
          "name": "user",
          "type": "address"
        }
      ],
      "name": "getPossibleCollaterals",
      "outputs": [
        {
          "internalType": "address[]",
          "name": "collateralAddresses",
          "type": "address[]"
        },
        {
          "internalType": "uint256[]",
          "name": "balances",
          "type": "uint256[]"
        },
        {
          "internalType": "string[]",
          "name": "symbols",
          "type": "string[]"
        },
        {
          "internalType": "uint8[]",
          "name": "decimals",
          "type": "uint8[]"
        }
      ],
      "stateMutability": "view",
      "type": "function"
    },
    {
      "inputs": [
        {
          "internalType": "string",
          "name": "protocolName",
          "type": "string"
        },
        {
          "internalType": "address",
          "name": "market",
          "type": "address"
        }
      ],
      "name": "getSupportedCollaterals",
      "outputs": [
        {
          "internalType": "address[]",
          "name": "collateralAddresses",
          "type": "address[]"
        }
      ],
      "stateMutability": "view",
      "type": "function"
    },
    {
      "inputs": [
        {
          "internalType": "address",
          "name": "debtToken",
          "type": "address"
        },
        {
          "internalType": "uint256",
          "name": "debtAmount",
          "type": "uint256"
        },
        {
          "internalType": "string",
          "name": "toProtocol",
          "type": "string"
        },
        {
          "internalType": "address",
          "name": "user",
          "type": "address"
        }
      ],
      "name": "getToProtocolApprovalsForMove",
      "outputs": [
        {
          "internalType": "address[]",
          "name": "",
          "type": "address[]"
        },
        {
          "internalType": "bytes[]",
          "name": "",
          "type": "bytes[]"
        }
      ],
      "stateMutability": "view",
      "type": "function"
    },
    {
      "inputs": [
        {
          "internalType": "address",
          "name": "debtToken",
          "type": "address"
        },
        {
          "components": [
            {
              "internalType": "address",
              "name": "token",
              "type": "address"
            },
            {
              "internalType": "uint256",
              "name": "amount",
              "type": "uint256"
            }
          ],
          "internalType": "struct IGateway.Collateral[]",
          "name": "collaterals",
          "type": "tuple[]"
        },
        {
          "internalType": "string",
          "name": "toProtocol",
          "type": "string"
        }
      ],
      "name": "getToProtocolInboundActions",
      "outputs": [
        {
          "internalType": "address[]",
          "name": "",
          "type": "address[]"
        },
        {
          "internalType": "bytes[]",
          "name": "",
          "type": "bytes[]"
        }
      ],
      "stateMutability": "view",
      "type": "function"
    },
    {
      "inputs": [
        {
          "internalType": "string",
          "name": "protocolName",
          "type": "string"
        },
        {
          "internalType": "address",
          "name": "market",
          "type": "address"
        },
        {
          "internalType": "address",
          "name": "collateral",
          "type": "address"
        }
      ],
      "name": "isCollateralSupported",
      "outputs": [
        {
          "internalType": "bool",
          "name": "isSupported",
          "type": "bool"
        }
      ],
      "stateMutability": "view",
      "type": "function"
    },
    {
      "inputs": [
        {
          "internalType": "address",
          "name": "user",
          "type": "address"
        },
        {
          "internalType": "address",
          "name": "debtToken",
          "type": "address"
        },
        {
          "internalType": "uint256",
          "name": "debtAmount",
          "type": "uint256"
        },
        {
          "internalType": "bool",
          "name": "repayAll",
          "type": "bool"
        },
        {
          "components": [
            {
              "internalType": "address",
              "name": "token",
              "type": "address"
            },
            {
              "internalType": "uint256",
              "name": "amount",
              "type": "uint256"
            }
          ],
          "internalType": "struct IGateway.Collateral[]",
          "name": "collaterals",
          "type": "tuple[]"
        },
        {
          "internalType": "string",
          "name": "fromProtocol",
          "type": "string"
        },
        {
          "internalType": "string",
          "name": "toProtocol",
          "type": "string"
        },
        {
          "internalType": "string",
          "name": "flashLoanVersion",
          "type": "string"
        }
      ],
      "name": "moveDebt",
      "outputs": [],
      "stateMutability": "nonpayable",
      "type": "function"
    },
    {
      "inputs": [],
      "name": "owner",
      "outputs": [
        {
          "internalType": "address",
          "name": "",
          "type": "address"
        }
      ],
      "stateMutability": "view",
      "type": "function"
    },
    {
      "inputs": [
        {
          "internalType": "contract IERC20[]",
          "name": "tokens",
          "type": "address[]"
        },
        {
          "internalType": "uint256[]",
          "name": "amounts",
          "type": "uint256[]"
        },
        {
          "internalType": "uint256[]",
          "name": "feeAmounts",
          "type": "uint256[]"
        },
        {
          "internalType": "bytes",
          "name": "userData",
          "type": "bytes"
        }
      ],
      "name": "receiveFlashLoan",
      "outputs": [],
      "stateMutability": "nonpayable",
      "type": "function"
    },
    {
      "inputs": [
        {
          "internalType": "address",
          "name": "user",
          "type": "address"
        },
        {
          "internalType": "address",
          "name": "debtToken",
          "type": "address"
        },
        {
          "internalType": "uint256",
          "name": "debtAmount",
          "type": "uint256"
        },
        {
          "components": [
            {
              "internalType": "address",
              "name": "token",
              "type": "address"
            },
            {
              "internalType": "uint256",
              "name": "amount",
              "type": "uint256"
            }
          ],
          "internalType": "struct IGateway.Collateral[]",
          "name": "collaterals",
          "type": "tuple[]"
        },
        {
          "internalType": "string",
          "name": "fromProtocol",
          "type": "string"
        },
        {
          "internalType": "string",
          "name": "toProtocol",
          "type": "string"
        }
      ],
      "name": "receiveFlashLoanV3",
      "outputs": [],
      "stateMutability": "nonpayable",
      "type": "function"
    },
    {
      "inputs": [],
      "name": "renounceOwnership",
      "outputs": [],
      "stateMutability": "nonpayable",
      "type": "function"
    },
    {
      "inputs": [
        {
          "internalType": "string",
          "name": "protocolName",
          "type": "string"
        },
        {
          "internalType": "address",
          "name": "token",
          "type": "address"
        },
        {
          "internalType": "address",
          "name": "user",
          "type": "address"
        },
        {
          "internalType": "uint256",
          "name": "amount",
          "type": "uint256"
        }
      ],
      "name": "repay",
      "outputs": [],
      "stateMutability": "nonpayable",
      "type": "function"
    },
    {
      "inputs": [
        {
          "internalType": "string",
          "name": "protocolName",
          "type": "string"
        },
        {
          "internalType": "address",
          "name": "token",
          "type": "address"
        },
        {
          "internalType": "address",
          "name": "user",
          "type": "address"
        },
        {
          "internalType": "uint256",
          "name": "amount",
          "type": "uint256"
        }
      ],
      "name": "supply",
      "outputs": [],
      "stateMutability": "nonpayable",
      "type": "function"
    },
    {
      "inputs": [
        {
          "internalType": "string",
          "name": "protocolName",
          "type": "string"
        },
        {
          "internalType": "address",
          "name": "token",
          "type": "address"
        },
        {
          "internalType": "address",
          "name": "user",
          "type": "address"
        },
        {
          "internalType": "uint256",
          "name": "amount",
          "type": "uint256"
        },
        {
          "internalType": "uint256",
          "name": "deadline",
          "type": "uint256"
        },
        {
          "internalType": "uint8",
          "name": "v",
          "type": "uint8"
        },
        {
          "internalType": "bytes32",
          "name": "r",
          "type": "bytes32"
        },
        {
          "internalType": "bytes32",
          "name": "s",
          "type": "bytes32"
        }
      ],
      "name": "supplyWithPermit",
      "outputs": [],
      "stateMutability": "nonpayable",
      "type": "function"
    },
    {
      "inputs": [
        {
          "internalType": "address",
          "name": "newOwner",
          "type": "address"
        }
      ],
      "name": "transferOwnership",
      "outputs": [],
      "stateMutability": "nonpayable",
      "type": "function"
    }
  ],
  "transactionHash": "0xf0d819798423a18e3f28a9a78ad3475485ab5f28aba47fb5498c003425d0facf",
  "args": [
    "0xbA1333333333a1BA1108E8412f11850A5C319bA9",
    "0xBA12222222228d8Ba445958a75a0704d566BF2C8",
    "0x58d21499B5A3374a486B3F412Cca43b76692eF15"
  ],
  "numDeployments": 3,
  "solcInputHash": "0687e9c7e7ec1d82659b24cd7ab47306",
  "bytecode": "0x60806040523480156200001157600080fd5b506040516200392038038062003920833981016040819052620000349162000110565b806001600160a01b0381166200006457604051631e4fbdf760e01b81526000600482015260240160405180910390fd5b6200006f81620000a7565b505060018055600380546001600160a01b039384166001600160a01b0319918216179091556004805492909316911617905562000164565b600080546001600160a01b038381166001600160a01b0319831681178455604051919092169283917f8be0079c531659141344cd1fd0a4f28419497f9722a3daafe3b4186f6b6457e09190a35050565b6001600160a01b03811681146200010d57600080fd5b50565b6000806000606084860312156200012657600080fd5b83516200013381620000f7565b60208501519093506200014681620000f7565b60408501519092506200015981620000f7565b809150509250925092565b6137ac80620001746000396000f3fe608060405234801561001057600080fd5b50600436106101735760003560e01c8063ac3cded8116100de578063d7b28d5f11610097578063e30b155e11610071578063e30b155e14610383578063e327d31214610396578063f04f2707146103a9578063f2fde38b146103bc57600080fd5b8063d7b28d5f14610329578063db236a1f1461033c578063e0b6677a1461037057600080fd5b8063ac3cded8146102b7578063ad3a5f47146102ca578063ba71067f146102dd578063caf89ac5146102f0578063cc60d11d14610303578063d19210e51461031657600080fd5b806375e9ffb41161013057806375e9ffb41461021a5780637a04707d1461023a5780637ffe721e1461025d57806385032044146102705780638da5cb5b14610293578063a77e9262146102a457600080fd5b806303862869146101785780630acefd351461019e57806310c0a157146101c957806325d56916146101dc5780635c738121146101f1578063715018a614610212575b600080fd5b61018b6101863660046123df565b6103cf565b6040519081526020015b60405180910390f35b6003546101b1906001600160a01b031681565b6040516001600160a01b039091168152602001610195565b6004546101b1906001600160a01b031681565b6101ef6101ea366004612442565b61057c565b005b6102046101ff3660046124e4565b610755565b60405161019592919061262b565b6101ef610828565b61022d61022836600461269d565b61083c565b60405161019591906126f3565b61024d610248366004612706565b610901565b60405161019594939291906127d0565b61018b61026b36600461286a565b6109d9565b61028361027e3660046128c6565b610a9f565b6040519015158152602001610195565b6000546001600160a01b03166101b1565b6101ef6102b236600461295a565b610c35565b6101ef6102c536600461295a565b610d69565b6101ef6102d8366004612af2565b610eb2565b6102836102eb36600461286a565b6110cc565b61018b6102fe36600461286a565b611188565b610204610311366004612bb4565b611203565b6102046103243660046124e4565b61128f565b6101ef61033736600461295a565b61130e565b6101b161034a366004612c9f565b80516020818301810180516002825292820191909301209152546001600160a01b031681565b61020461037e366004612cdb565b61141b565b6101ef61039136600461269d565b6114a7565b6101ef6103a4366004612d59565b6114f6565b6101ef6103b7366004612e9e565b61195f565b6101ef6103ca366004612f40565b611b5a565b60408051808201825260028152613b1960f11b602090910152516000907ff9446b8e937d86f0bc87cac73923491692b123ca5f8761908494703758206adf9061041b9085908590612f5d565b6040518091039020036104a057600480546040516370a0823160e01b81526001600160a01b03918216928101929092528516906370a08231906024015b602060405180830381865afa158015610475573d6000803e3d6000fd5b505050506040513d601f19601f820116820180604052508101906104999190612f6d565b9050610575565b6040805180820182526002815261763360f01b602090910152517fec97b8914cfb6741ca720b49246676ddcc2c227e4046450a8d815244c93673da906104e99085908590612f5d565b604051809103902003610528576003546040516370a0823160e01b81526001600160a01b039182166004820152908516906370a0823190602401610458565b60405162461bcd60e51b815260206004820152601e60248201527f556e737570706f7274656420666c617368206c6f616e2076657273696f6e000060448201526064015b60405180910390fd5b9392505050565b610584611b98565b600060028a8a604051610598929190612f5d565b908152604051908190036020019020546001600160a01b03169050806105d05760405162461bcd60e51b815260040161056c90612f86565b60405163d505accf60e01b8152336004820152306024820152604481018790526064810186905260ff8516608482015260a4810184905260c481018390526001600160a01b0389169063d505accf9060e401600060405180830381600087803b15801561063c57600080fd5b505af1158015610650573d6000803e3d6000fd5b5061066a925050506001600160a01b038916333089611bc2565b60405163095ea7b360e01b81526001600160a01b0382811660048301526024820188905289169063095ea7b3906044016020604051808303816000875af11580156106b9573d6000803e3d6000fd5b505050506040513d601f19601f820116820180604052508101906106dd9190612fb6565b50604051638340f54960e01b81526001600160a01b03821690638340f5499061070e908b908b908b90600401612fd3565b600060405180830381600087803b15801561072857600080fd5b505af115801561073c573d6000803e3d6000fd5b505050505061074a60018055565b505050505050505050565b60608060006002858560405161076c929190612f5d565b908152604051908190036020019020546001600160a01b03169050806107a45760405162461bcd60e51b815260040161056c90612ff7565b6040516328d0a61b60e21b81526001600160a01b0382169063a342986c906107d4908b908b908b9060040161302e565b600060405180830381865afa1580156107f1573d6000803e3d6000fd5b505050506040513d6000823e601f3d908101601f191682016040526108199190810190613147565b92509250509550959350505050565b610830611c22565b61083a6000611c4f565b565b6060600060028585604051610852929190612f5d565b908152604051908190036020019020546001600160a01b031690508061088a5760405162461bcd60e51b815260040161056c90612f86565b6040516366e2d09b60e01b81526001600160a01b0384811660048301528216906366e2d09b90602401600060405180830381865afa1580156108d0573d6000803e3d6000fd5b505050506040513d6000823e601f3d908101601f191682016040526108f8919081019061321b565b95945050505050565b60608060608060006002888860405161091b929190612f5d565b908152604051908190036020019020546001600160a01b03169050806109535760405162461bcd60e51b815260040161056c90612f86565b60405163104e999d60e01b81526001600160a01b0382169063104e999d90610981908c908a9060040161324f565b600060405180830381865afa15801561099e573d6000803e3d6000fd5b505050506040513d6000823e601f3d908101601f191682016040526109c69190810190613361565b929c919b50995090975095505050505050565b600080600286866040516109ee929190612f5d565b908152604051908190036020019020546001600160a01b0316905080610a265760405162461bcd60e51b815260040161056c90612f86565b60405163d4fac45d60e01b81526001600160a01b0382169063d4fac45d90610a54908790879060040161324f565b602060405180830381865afa158015610a71573d6000803e3d6000fd5b505050506040513d601f19601f82011682018060405250810190610a959190612f6d565b9695505050505050565b60008060028888604051610ab4929190612f5d565b908152604051908190036020018120546001600160a01b03169150600090600290610ae29089908990612f5d565b908152604051908190036020019020546001600160a01b0390811691508216610b1d5760405162461bcd60e51b815260040161056c90612ff7565b6001600160a01b038116610b435760405162461bcd60e51b815260040161056c90613462565b604051637846611360e01b81526001600160a01b03831690637846611390610b71908890889060040161324f565b602060405180830381865afa158015610b8e573d6000803e3d6000fd5b505050506040513d601f19601f82011682018060405250810190610bb29190612fb6565b8015610c285750604051637846611360e01b81526001600160a01b03821690637846611390610be7908890889060040161324f565b602060405180830381865afa158015610c04573d6000803e3d6000fd5b505050506040513d601f19601f82011682018060405250810190610c289190612fb6565b9998505050505050505050565b610c3d611b98565b600060028686604051610c51929190612f5d565b908152604051908190036020019020546001600160a01b0316905080610c895760405162461bcd60e51b815260040161056c90612f86565b6001600160a01b0383163314610ce15760405162461bcd60e51b815260206004820152601c60248201527f43616e206f6e6c7920626f72726f7720666f7220796f757273656c6600000000604482015260640161056c565b6040516314890dcb60e21b81526001600160a01b03821690635224372c90610d1190879087908790600401612fd3565b600060405180830381600087803b158015610d2b57600080fd5b505af1158015610d3f573d6000803e3d6000fd5b50610d58925050506001600160a01b0385168484611c9f565b50610d6260018055565b5050505050565b610d71611b98565b600060028686604051610d85929190612f5d565b908152604051908190036020019020546001600160a01b0316905080610dbd5760405162461bcd60e51b815260040161056c90612f86565b610dd26001600160a01b038516333085611bc2565b60405163095ea7b360e01b81526001600160a01b0382811660048301526024820184905285169063095ea7b3906044016020604051808303816000875af1158015610e21573d6000803e3d6000fd5b505050506040513d601f19601f82011682018060405250810190610e459190612fb6565b50604051638340f54960e01b81526001600160a01b03821690638340f54990610e7690879087908790600401612fd3565b600060405180830381600087803b158015610e9057600080fd5b505af1158015610ea4573d6000803e3d6000fd5b5050505050610d6260018055565b600454600160a01b900460ff16610f045760405162461bcd60e51b8152602060048201526016602482015275119b185cda081b1bd85b881b9bdd08195b98589b195960521b604482015260640161056c565b6003546001600160a01b03163314610f5e5760405162461bcd60e51b815260206004820181905260248201527f556e617574686f72697a656420666c617368206c6f616e2070726f7669646572604482015260640161056c565b60035460405163ae63932960e01b81526001600160a01b039091169063ae63932990610f92908a9030908b90600401612fd3565b600060405180830381600087803b158015610fac57600080fd5b505af1158015610fc0573d6000803e3d6000fd5b5050505061103b8888888888888080601f01602080910402602001604051908101604052809392919081815260200183838082843760009201919091525050604080516020601f8c018190048102820181019092528a815292508a9150899081908401838280828437600092019190915250611cd592505050565b600354611055906001600160a01b03898116911688611c9f565b6003546040516315afd40960e01b81526001600160a01b03898116600483015260248201899052909116906315afd409906044016020604051808303816000875af11580156110a8573d6000803e3d6000fd5b505050506040513d601f19601f8201168201806040525081019061074a9190612f6d565b600080600286866040516110e1929190612f5d565b908152604051908190036020019020546001600160a01b03169050806111195760405162461bcd60e51b815260040161056c90612f86565b604051637846611360e01b81526001600160a01b03821690637846611390611147908790879060040161324f565b602060405180830381865afa158015611164573d6000803e3d6000fd5b505050506040513d601f19601f82011682018060405250810190610a959190612fb6565b6000806002868660405161119d929190612f5d565b908152604051908190036020019020546001600160a01b03169050806111d55760405162461bcd60e51b815260040161056c90612f86565b60405163118e31b760e01b81526001600160a01b0382169063118e31b790610a54908790879060040161324f565b60608060006002868660405161121a929190612f5d565b908152604051908190036020019020546001600160a01b03169050806112525760405162461bcd60e51b815260040161056c90612f86565b60405163508a07f160e01b81526001600160a01b03898116600483015260248201899052858116604483015282169063508a07f1906064016107d4565b6060806000600285856040516112a6929190612f5d565b908152604051908190036020019020546001600160a01b03169050806112de5760405162461bcd60e51b815260040161056c90613462565b60405163282a50d760e11b81526001600160a01b03821690635054a1ae906107d4908b908b908b9060040161302e565b611316611b98565b60006002868660405161132a929190612f5d565b908152604051908190036020019020546001600160a01b03169050806113625760405162461bcd60e51b815260040161056c90612f86565b6113776001600160a01b038516333085611bc2565b60405163095ea7b360e01b81526001600160a01b0382811660048301526024820184905285169063095ea7b3906044016020604051808303816000875af11580156113c6573d6000803e3d6000fd5b505050506040513d601f19601f820116820180604052508101906113ea9190612fb6565b50604051631da649cf60e01b81526001600160a01b03821690631da649cf90610e7690879087908790600401612fd3565b606080600060028888604051611432929190612f5d565b908152604051908190036020019020546001600160a01b031690508061146a5760405162461bcd60e51b815260040161056c90612f86565b60405163508a07f160e01b81526001600160a01b03878116600483015260248201879052858116604483015282169063508a07f1906064016107d4565b6114af611c22565b80600284846040516114c2929190612f5d565b90815260405190819003602001902080546001600160a01b03929092166001600160a01b0319909216919091179055505050565b6114fe611b98565b6004805460ff60a01b1916600160a01b1790558861156c5760405162461bcd60e51b815260206004820152602560248201527f4465627420616d6f756e74206d7573742062652067726561746572207468616e604482015264207a65726f60d81b606482015260840161056c565b6001600160a01b038b1633146115c45760405162461bcd60e51b815260206004820152601760248201527f55736572206d757374206265207468652063616c6c6572000000000000000000604482015260640161056c565b871561168b576000600287876040516115de929190612f5d565b908152604051908190036020019020546001600160a01b03169050806116165760405162461bcd60e51b815260040161056c90612ff7565b806001600160a01b031663e94201c78c8e6040518363ffffffff1660e01b815260040161164492919061324f565b6020604051808303816000875af1158015611663573d6000803e3d6000fd5b505050506040513d601f19601f820116820180604052508101906116879190612f6d565b9950505b60408051808201825260028152613b1960f11b602090910152517ff9446b8e937d86f0bc87cac73923491692b123ca5f8761908494703758206adf906116d49084908490612f5d565b60405180910390200361180f5760008b8b8b8a8a8a8a8a6040516020016117029897969594939291906134c2565b60408051601f198184030181526001808452838301909252925060009190602080830190803683370190505090508b8160008151811061174457611744613554565b6001600160a01b0392909216602092830291909101909101526040805160018082528183019092526000918160200160208202803683370190505090508b8160008151811061179557611795613554565b602090810291909101015260048054604051632e1c224f60e11b81526001600160a01b0390911691635c38449e916117d5913091879187918a910161356a565b600060405180830381600087803b1580156117ef57600080fd5b505af1158015611803573d6000803e3d6000fd5b5050505050505061193c565b6040805180820182526002815261763360f01b602090910152517fec97b8914cfb6741ca720b49246676ddcc2c227e4046450a8d815244c93673da906118589084908490612f5d565b60405180910390200361052857600063ad3a5f4760e01b8c8c8c8b8b8b8b8b60405160240161188e9897969594939291906134c2565b60408051601f198184030181529181526020820180516001600160e01b03166001600160e01b03199094169390931790925260035491516348c8949160e01b81529092506001600160a01b03909116906348c89491906118f29084906004016135ee565b6000604051808303816000875af1158015611911573d6000803e3d6000fd5b505050506040513d6000823e601f3d908101601f191682016040526119399190810190613601565b50505b6004805460ff60a01b1916905561195260018055565b5050505050505050505050565b600454600160a01b900460ff166119b15760405162461bcd60e51b8152602060048201526016602482015275119b185cda081b1bd85b881b9bdd08195b98589b195960521b604482015260640161056c565b6004546001600160a01b03163314611a0b5760405162461bcd60e51b815260206004820181905260248201527f556e617574686f72697a656420666c617368206c6f616e2070726f7669646572604482015260640161056c565b60008080808080611a1e87890189613635565b95509550955095509550955089899050600114611a975760405162461bcd60e51b815260206004820152603160248201527f42616c616e63657220563220666c617368206c6f616e2066656520616d6f756e6044820152700e840d8cadccee8d040dad2e6dac2e8c6d607b1b606482015260840161056c565b89896000818110611aaa57611aaa613554565b90506020020135600014611af75760405162461bcd60e51b8152602060048201526014602482015273466c617368206c6f616e7320617265206672656560601b604482015260640161056c565b611b05868686868686611cd5565b60008a8a6000818110611b1a57611b1a613554565b9050602002013585611b2c9190613700565b600454909150611b49906001600160a01b03888116911683611c9f565b505050505050505050505050505050565b611b62611c22565b6001600160a01b038116611b8c57604051631e4fbdf760e01b81526000600482015260240161056c565b611b9581611c4f565b50565b600260015403611bbb57604051633ee5aeb560e01b815260040160405180910390fd5b6002600155565b611c1c84856001600160a01b03166323b872dd868686604051602401611bea93929190612fd3565b604051602081830303815290604052915060e01b6020820180516001600160e01b0383818316178352505050506121e5565b50505050565b6000546001600160a01b0316331461083a5760405163118cdaa760e01b815233600482015260240161056c565b600080546001600160a01b038381166001600160a01b0319831681178455604051919092169283917f8be0079c531659141344cd1fd0a4f28419497f9722a3daafe3b4186f6b6457e09190a35050565b6040516001600160a01b03838116602483015260448201839052611cd091859182169063a9059cbb90606401611bea565b505050565b6000600283604051611ce79190613713565b908152604051908190036020018120546001600160a01b03169150600090600290611d13908590613713565b908152604051908190036020019020546001600160a01b0390811691508216611d4e5760405162461bcd60e51b815260040161056c90612ff7565b6001600160a01b038116611d745760405162461bcd60e51b815260040161056c90613462565b60405163095ea7b360e01b81526001600160a01b0383811660048301526024820188905288169063095ea7b3906044016020604051808303816000875af1158015611dc3573d6000803e3d6000fd5b505050506040513d601f19601f82011682018060405250810190611de79190612fb6565b5060405163e94201c760e01b81526000906001600160a01b0384169063e94201c790611e19908b908d9060040161324f565b6020604051808303816000875af1158015611e38573d6000803e3d6000fd5b505050506040513d601f19601f82011682018060405250810190611e5c9190612f6d565b604051631da649cf60e01b81529091506001600160a01b03841690631da649cf90611e8f908b908d908c90600401612fd3565b600060405180830381600087803b158015611ea957600080fd5b505af1158015611ebd573d6000803e3d6000fd5b505060405163e94201c760e01b8152600092506001600160a01b038616915063e94201c790611ef2908c908e9060040161324f565b6020604051808303816000875af1158015611f11573d6000803e3d6000fd5b505050506040513d601f19601f82011682018060405250810190611f359190612f6d565b9050818110611f965760405162461bcd60e51b815260206004820152602760248201527f52657061796d656e7420646964206e6f742072656475636520626f72726f772060448201526662616c616e636560c81b606482015260840161056c565b505060005b855181101561217857600080846001600160a01b0316635820ba638b8a8681518110611fc957611fc9613554565b6020026020010151600001518e8c8881518110611fe857611fe8613554565b60209081029190910181015101516040516001600160e01b031960e087901b1681526001600160a01b039485166004820152928416602484015292166044820152606481019190915260840160408051808303816000875af1158015612052573d6000803e3d6000fd5b505050506040513d601f19601f82011682018060405250810190612076919061372f565b60405163095ea7b360e01b81526001600160a01b038781166004830152602482018390529294509092509083169063095ea7b3906044016020604051808303816000875af11580156120cc573d6000803e3d6000fd5b505050506040513d601f19601f820116820180604052508101906120f09190612fb6565b50604051634108d0af60e01b81526001600160a01b038b811660048301528381166024830152604482018390528c81166064830152851690634108d0af90608401600060405180830381600087803b15801561214b57600080fd5b505af115801561215f573d6000803e3d6000fd5b50505050505080806121709061375d565b915050611f9b565b506040516314890dcb60e21b81526001600160a01b03821690635224372c906121a9908a908c908b90600401612fd3565b600060405180830381600087803b1580156121c357600080fd5b505af11580156121d7573d6000803e3d6000fd5b505050505050505050505050565b60006121fa6001600160a01b03841683612248565b9050805160001415801561221f57508080602001905181019061221d9190612fb6565b155b15611cd057604051635274afe760e01b81526001600160a01b038416600482015260240161056c565b60606122568383600061225f565b90505b92915050565b6060814710156122845760405163cd78605960e01b815230600482015260240161056c565b600080856001600160a01b031684866040516122a09190613713565b60006040518083038185875af1925050503d80600081146122dd576040519150601f19603f3d011682016040523d82523d6000602084013e6122e2565b606091505b5091509150610a95868383606082612302576122fd82612349565b610575565b815115801561231957506001600160a01b0384163b155b1561234257604051639996b31560e01b81526001600160a01b038516600482015260240161056c565b5080610575565b8051156123595780518082602001fd5b604051630a12f52160e11b815260040160405180910390fd5b6001600160a01b0381168114611b9557600080fd5b803561239281612372565b919050565b60008083601f8401126123a957600080fd5b5081356001600160401b038111156123c057600080fd5b6020830191508360208285010111156123d857600080fd5b9250929050565b6000806000604084860312156123f457600080fd5b83356123ff81612372565b925060208401356001600160401b0381111561241a57600080fd5b61242686828701612397565b9497909650939450505050565b60ff81168114611b9557600080fd5b60008060008060008060008060006101008a8c03121561246157600080fd5b89356001600160401b0381111561247757600080fd5b6124838c828d01612397565b909a5098505060208a013561249781612372565b965060408a01356124a781612372565b955060608a0135945060808a0135935060a08a01356124c581612433565b8093505060c08a0135915060e08a013590509295985092959850929598565b6000806000806000606086880312156124fc57600080fd5b853561250781612372565b945060208601356001600160401b038082111561252357600080fd5b818801915088601f83011261253757600080fd5b81358181111561254657600080fd5b8960208260061b850101111561255b57600080fd5b60208301965080955050604088013591508082111561257957600080fd5b5061258688828901612397565b969995985093965092949392505050565b600081518084526020808501945080840160005b838110156125d05781516001600160a01b0316875295820195908201906001016125ab565b509495945050505050565b60005b838110156125f65781810151838201526020016125de565b50506000910152565b600081518084526126178160208601602086016125db565b601f01601f19169290920160200192915050565b60408152600061263e6040830185612597565b6020838203818501528185518084528284019150828160051b85010183880160005b8381101561268e57601f1987840301855261267c8383516125ff565b94860194925090850190600101612660565b50909998505050505050505050565b6000806000604084860312156126b257600080fd5b83356001600160401b038111156126c857600080fd5b6126d486828701612397565b90945092505060208401356126e881612372565b809150509250925092565b6020815260006122566020830184612597565b6000806000806060858703121561271c57600080fd5b843561272781612372565b935060208501356001600160401b0381111561274257600080fd5b61274e87828801612397565b909450925050604085013561276281612372565b939692955090935050565b600081518084526020808501945080840160005b838110156125d057815187529582019590820190600101612781565b600081518084526020808501945080840160005b838110156125d057815160ff16875295820195908201906001016127b1565b6080815260006127e36080830187612597565b6020838203818501526127f6828861276d565b915083820360408501528186518084528284019150828160051b85010183890160005b8381101561284757601f198784030185526128358383516125ff565b94860194925090850190600101612819565b5050868103606088015261285b818961279d565b9b9a5050505050505050505050565b6000806000806060858703121561288057600080fd5b84356001600160401b0381111561289657600080fd5b6128a287828801612397565b90955093505060208501356128b681612372565b9150604085013561276281612372565b600080600080600080608087890312156128df57600080fd5b86356001600160401b03808211156128f657600080fd5b6129028a838b01612397565b9098509650602089013591508082111561291b57600080fd5b5061292889828a01612397565b909550935050604087013561293c81612372565b9150606087013561294c81612372565b809150509295509295509295565b60008060008060006080868803121561297257600080fd5b85356001600160401b0381111561298857600080fd5b61299488828901612397565b90965094505060208601356129a881612372565b925060408601356129b881612372565b949793965091946060013592915050565b634e487b7160e01b600052604160045260246000fd5b604080519081016001600160401b0381118282101715612a0157612a016129c9565b60405290565b604051601f8201601f191681016001600160401b0381118282101715612a2f57612a2f6129c9565b604052919050565b60006001600160401b03821115612a5057612a506129c9565b5060051b60200190565b600082601f830112612a6b57600080fd5b81356020612a80612a7b83612a37565b612a07565b82815260069290921b84018101918181019086841115612a9f57600080fd5b8286015b84811015612ae75760408189031215612abc5760008081fd5b612ac46129df565b8135612acf81612372565b81528185013585820152835291830191604001612aa3565b509695505050505050565b60008060008060008060008060c0898b031215612b0e57600080fd5b8835612b1981612372565b97506020890135612b2981612372565b96506040890135955060608901356001600160401b0380821115612b4c57600080fd5b612b588c838d01612a5a565b965060808b0135915080821115612b6e57600080fd5b612b7a8c838d01612397565b909650945060a08b0135915080821115612b9357600080fd5b50612ba08b828c01612397565b999c989b5096995094979396929594505050565b600080600080600060808688031215612bcc57600080fd5b8535612bd781612372565b94506020860135935060408601356001600160401b03811115612bf957600080fd5b612c0588828901612397565b9094509250506060860135612c1981612372565b809150509295509295909350565b60006001600160401b03821115612c4057612c406129c9565b50601f01601f191660200190565b600082601f830112612c5f57600080fd5b8135612c6d612a7b82612c27565b818152846020838601011115612c8257600080fd5b816020850160208301376000918101602001919091529392505050565b600060208284031215612cb157600080fd5b81356001600160401b03811115612cc757600080fd5b612cd384828501612c4e565b949350505050565b600080600080600060808688031215612cf357600080fd5b85356001600160401b03811115612d0957600080fd5b612d1588828901612397565b9096509450506020860135612d2981612372565b9250604086013591506060860135612c1981612372565b8015158114611b9557600080fd5b803561239281612d40565b60008060008060008060008060008060006101008c8e031215612d7b57600080fd5b612d848c612387565b9a50612d9260208d01612387565b995060408c01359850612da760608d01612d4e565b97506001600160401b038060808e01351115612dc257600080fd5b612dd28e60808f01358f01612a5a565b97508060a08e01351115612de557600080fd5b612df58e60a08f01358f01612397565b909750955060c08d0135811015612e0b57600080fd5b612e1b8e60c08f01358f01612397565b909550935060e08d0135811015612e3157600080fd5b50612e428d60e08e01358e01612397565b81935080925050509295989b509295989b9093969950565b60008083601f840112612e6c57600080fd5b5081356001600160401b03811115612e8357600080fd5b6020830191508360208260051b85010111156123d857600080fd5b6000806000806000806000806080898b031215612eba57600080fd5b88356001600160401b0380821115612ed157600080fd5b612edd8c838d01612e5a565b909a50985060208b0135915080821115612ef657600080fd5b612f028c838d01612e5a565b909850965060408b0135915080821115612f1b57600080fd5b612f278c838d01612e5a565b909650945060608b0135915080821115612b9357600080fd5b600060208284031215612f5257600080fd5b813561057581612372565b8183823760009101908152919050565b600060208284031215612f7f57600080fd5b5051919050565b602080825260169082015275141c9bdd1bd8dbdb081b9bdd081cdd5c1c1bdc9d195960521b604082015260600190565b600060208284031215612fc857600080fd5b815161057581612d40565b6001600160a01b039384168152919092166020820152604081019190915260600190565b6020808252601b908201527f46726f6d2070726f746f636f6c206e6f7420737570706f727465640000000000604082015260600190565b6001600160a01b03848116825260406020808401829052838201859052600092869160608601855b8881101561308557843561306981612372565b8416825284830135838301529385019390850190600101613056565b509998505050505050505050565b600082601f8301126130a457600080fd5b815160206130b4612a7b83612a37565b82815260059290921b840181019181810190868411156130d357600080fd5b8286015b84811015612ae75780516130ea81612372565b83529183019183016130d7565b6000613105612a7b84612c27565b905082815283838301111561311957600080fd5b6105758360208301846125db565b600082601f83011261313857600080fd5b612256838351602085016130f7565b6000806040838503121561315a57600080fd5b82516001600160401b038082111561317157600080fd5b61317d86838701613093565b935060209150818501518181111561319457600080fd5b8501601f810187136131a557600080fd5b80516131b3612a7b82612a37565b81815260059190911b820184019084810190898311156131d257600080fd5b8584015b8381101561320a578051868111156131ee5760008081fd5b6131fc8c8983890101613127565b8452509186019186016131d6565b508096505050505050509250929050565b60006020828403121561322d57600080fd5b81516001600160401b0381111561324357600080fd5b612cd384828501613093565b6001600160a01b0392831681529116602082015260400190565b600082601f83011261327a57600080fd5b8151602061328a612a7b83612a37565b82815260059290921b840181019181810190868411156132a957600080fd5b8286015b84811015612ae75780516001600160401b038111156132cc5760008081fd5b8701603f810189136132de5760008081fd5b6132ef8986830151604084016130f7565b8452509183019183016132ad565b600082601f83011261330e57600080fd5b8151602061331e612a7b83612a37565b82815260059290921b8401810191818101908684111561333d57600080fd5b8286015b84811015612ae757805161335481612433565b8352918301918301613341565b6000806000806080858703121561337757600080fd5b84516001600160401b038082111561338e57600080fd5b61339a88838901613093565b95506020915081870151818111156133b157600080fd5b8701601f810189136133c257600080fd5b80516133d0612a7b82612a37565b81815260059190911b8201840190848101908b8311156133ef57600080fd5b928501925b8284101561340d578351825292850192908501906133f4565b60408b015190985094505050508082111561342757600080fd5b61343388838901613269565b9350606087015191508082111561344957600080fd5b50613456878288016132fd565b91505092959194509250565b60208082526019908201527f546f2070726f746f636f6c206e6f7420737570706f7274656400000000000000604082015260600190565b81835281816020850137506000828201602090810191909152601f909101601f19169091010190565b600060c0820160018060a01b03808c1684526020818c168186015260408b8187015260c06060870152838b5180865260e088019150838d01955060005b818110156135265786518051871684528501518584015295840195918301916001016134ff565b5050868103608088015261353b818b8d613499565b94505050505082810360a084015261285b818587613499565b634e487b7160e01b600052603260045260246000fd5b6001600160a01b0385811682526080602080840182905286519184018290526000928782019290919060a0860190855b818110156135b857855185168352948301949183019160010161359a565b505085810360408701526135cc818961276d565b935050505082810360608401526135e381856125ff565b979650505050505050565b60208152600061225660208301846125ff565b60006020828403121561361357600080fd5b81516001600160401b0381111561362957600080fd5b612cd384828501613127565b60008060008060008060c0878903121561364e57600080fd5b863561365981612372565b9550602087013561366981612372565b94506040870135935060608701356001600160401b038082111561368c57600080fd5b6136988a838b01612a5a565b945060808901359150808211156136ae57600080fd5b6136ba8a838b01612c4e565b935060a08901359150808211156136d057600080fd5b506136dd89828a01612c4e565b9150509295509295509295565b634e487b7160e01b600052601160045260246000fd5b80820180821115612259576122596136ea565b600082516137258184602087016125db565b9190910192915050565b6000806040838503121561374257600080fd5b825161374d81612372565b6020939093015192949293505050565b60006001820161376f5761376f6136ea565b506001019056fea26469706673582212203373e35620ed0c02c6be6fcf37d3980f94d4db376fd5f6d87f979f96a3fbc15264736f6c63430008140033",
  "devdoc": {
    "errors": {
      "AddressEmptyCode(address)": [
        {
          "details": "There's no code at `target` (it is not a contract)."
        }
      ],
      "AddressInsufficientBalance(address)": [
        {
          "details": "The ETH balance of the account is not enough to perform the operation."
        }
      ],
      "FailedInnerCall()": [
        {
          "details": "A call to an address target failed. The target may have reverted."
        }
      ],
      "OwnableInvalidOwner(address)": [
        {
          "details": "The owner is not a valid owner account. (eg. `address(0)`)"
        }
      ],
      "OwnableUnauthorizedAccount(address)": [
        {
          "details": "The caller account is not authorized to perform an operation."
        }
      ],
      "ReentrancyGuardReentrantCall()": [
        {
          "details": "Unauthorized reentrant call."
        }
      ],
      "SafeERC20FailedOperation(address)": [
        {
          "details": "An operation with an ERC20 token failed."
        }
      ]
    },
    "kind": "dev",
    "methods": {
      "borrow(string,address,address,uint256)": {
        "params": {
          "amount": "The amount to borrow",
          "protocolName": "The name of the protocol to borrow from",
          "token": "The token to borrow",
          "user": "The user to borrow for"
        }
      },
      "canMoveCollateral(string,string,address,address)": {
        "params": {
          "collateral": "The address of the collateral token to check",
          "fromProtocol": "The name of the source protocol",
          "market": "The address of the market token",
          "toProtocol": "The name of the target protocol"
        },
        "returns": {
          "canMove": "Whether the collateral can be moved between protocols"
        }
      },
      "getFlashLoanProviderBalance(address,string)": {
        "params": {
          "flashLoanVersion": "The flash loan provider version (\"v2\" or \"v3\")",
          "token": "The token address to check balance for"
        },
        "returns": {
          "_0": "The token balance in the flash loan provider"
        }
      },
      "getFromProtocolApprovalsForMove(address,(address,uint256)[],string)": {
        "params": {
          "collaterals": "The collaterals being moved",
          "debtToken": "The token being borrowed",
          "fromProtocol": "The protocol moving from "
        },
        "returns": {
          "_0": "Array of target addresses and encoded function call data"
        }
      },
      "getSupportedCollaterals(string,address)": {
        "params": {
          "market": "The address of the market token",
          "protocolName": "The name of the protocol to check"
        },
        "returns": {
          "collateralAddresses": "Array of supported collateral token addresses"
        }
      },
      "getToProtocolInboundActions(address,(address,uint256)[],string)": {
        "params": {
          "collaterals": "The collaterals being moved",
          "debtToken": "The token being borrowed",
          "toProtocol": "The protocol moving to"
        },
        "returns": {
          "_0": "Array of target addresses and encoded function call data"
        }
      },
      "isCollateralSupported(string,address,address)": {
        "params": {
          "collateral": "The address of the collateral token to check",
          "market": "The address of the market token",
          "protocolName": "The name of the protocol to check"
        },
        "returns": {
          "isSupported": "Whether the collateral is supported in the protocol"
        }
      },
      "owner()": {
        "details": "Returns the address of the current owner."
      },
      "renounceOwnership()": {
        "details": "Leaves the contract without owner. It will not be possible to call `onlyOwner` functions. Can only be called by the current owner. NOTE: Renouncing ownership will leave the contract without an owner, thereby disabling any functionality that is only available to the owner."
      },
      "transferOwnership(address)": {
        "details": "Transfers ownership of the contract to a new account (`newOwner`). Can only be called by the current owner."
      }
    },
    "version": 1
  },
  "userdoc": {
    "kind": "user",
    "methods": {
      "borrow(string,address,address,uint256)": {
        "notice": "Borrow tokens from a protocol"
      },
      "canMoveCollateral(string,string,address,address)": {
        "notice": "Check if a collateral can be moved from one protocol to another"
      },
      "getFlashLoanProviderBalance(address,string)": {
        "notice": "Get the balance of a token in a flash loan provider"
      },
      "getFromProtocolApprovalsForMove(address,(address,uint256)[],string)": {
        "notice": "Get approvals for collateral movement from source protocol"
      },
      "getSupportedCollaterals(string,address)": {
        "notice": "Get all supported collaterals for a specific market in a protocol"
      },
      "getToProtocolInboundActions(address,(address,uint256)[],string)": {
        "notice": "Get inbound collateral actions from destination protocol"
      },
      "isCollateralSupported(string,address,address)": {
        "notice": "Check if a collateral token is supported in the target protocol"
      }
    },
    "version": 1
  },
  "storageLayout": {
    "storage": [
      {
        "astId": 2312,
        "contract": "contracts/RouterGateway.sol:RouterGateway",
        "label": "_owner",
        "offset": 0,
        "slot": "0",
        "type": "t_address"
      },
      {
        "astId": 3827,
        "contract": "contracts/RouterGateway.sol:RouterGateway",
        "label": "_status",
        "offset": 0,
        "slot": "1",
        "type": "t_uint256"
      },
      {
        "astId": 4941,
        "contract": "contracts/RouterGateway.sol:RouterGateway",
        "label": "gateways",
        "offset": 0,
        "slot": "2",
        "type": "t_mapping(t_string_memory_ptr,t_contract(IGateway)12169)"
      },
      {
        "astId": 4944,
        "contract": "contracts/RouterGateway.sol:RouterGateway",
        "label": "balancerV3Vault",
        "offset": 0,
        "slot": "3",
        "type": "t_contract(IVault)12963"
      },
      {
        "astId": 4947,
        "contract": "contracts/RouterGateway.sol:RouterGateway",
        "label": "balancerV2Vault",
        "offset": 0,
        "slot": "4",
        "type": "t_contract(IFlashLoanProvider)4928"
      },
      {
        "astId": 4949,
        "contract": "contracts/RouterGateway.sol:RouterGateway",
        "label": "flashLoanEnabled",
        "offset": 20,
        "slot": "4",
        "type": "t_bool"
      }
    ],
    "types": {
      "t_address": {
        "encoding": "inplace",
        "label": "address",
        "numberOfBytes": "20"
      },
      "t_bool": {
        "encoding": "inplace",
        "label": "bool",
        "numberOfBytes": "1"
      },
      "t_contract(IFlashLoanProvider)4928": {
        "encoding": "inplace",
        "label": "contract IFlashLoanProvider",
        "numberOfBytes": "20"
      },
      "t_contract(IGateway)12169": {
        "encoding": "inplace",
        "label": "contract IGateway",
        "numberOfBytes": "20"
      },
      "t_contract(IVault)12963": {
        "encoding": "inplace",
        "label": "contract IVault",
        "numberOfBytes": "20"
      },
      "t_mapping(t_string_memory_ptr,t_contract(IGateway)12169)": {
        "encoding": "mapping",
        "key": "t_string_memory_ptr",
        "label": "mapping(string => contract IGateway)",
        "numberOfBytes": "32",
        "value": "t_contract(IGateway)12169"
      },
      "t_string_memory_ptr": {
        "encoding": "bytes",
        "label": "string",
        "numberOfBytes": "32"
      },
      "t_uint256": {
        "encoding": "inplace",
        "label": "uint256",
        "numberOfBytes": "32"
      }
    }
  }
}