{
  "address": "0x379b1e0a42Dd2533f09f3B44c8D40E83204EF81A",
  "abi": [
    {
      "inputs": [
        {
          "internalType": "contract IVault",
          "name": "v3vault",
          "type": "address"
        },
        {
          "internalType": "contract IFlashLoanProvider",
          "name": "v2Vault",
          "type": "address"
        },
        {
          "internalType": "address",
          "name": "owner",
          "type": "address"
        }
      ],
      "stateMutability": "nonpayable",
      "type": "constructor"
    },
    {
      "inputs": [
        {
          "internalType": "address",
          "name": "target",
          "type": "address"
        }
      ],
      "name": "AddressEmptyCode",
      "type": "error"
    },
    {
      "inputs": [
        {
          "internalType": "address",
          "name": "account",
          "type": "address"
        }
      ],
      "name": "AddressInsufficientBalance",
      "type": "error"
    },
    {
      "inputs": [],
      "name": "FailedInnerCall",
      "type": "error"
    },
    {
      "inputs": [
        {
          "internalType": "address",
          "name": "owner",
          "type": "address"
        }
      ],
      "name": "OwnableInvalidOwner",
      "type": "error"
    },
    {
      "inputs": [
        {
          "internalType": "address",
          "name": "account",
          "type": "address"
        }
      ],
      "name": "OwnableUnauthorizedAccount",
      "type": "error"
    },
    {
      "inputs": [],
      "name": "ReentrancyGuardReentrantCall",
      "type": "error"
    },
    {
      "inputs": [
        {
          "internalType": "address",
          "name": "token",
          "type": "address"
        }
      ],
      "name": "SafeERC20FailedOperation",
      "type": "error"
    },
    {
      "anonymous": false,
      "inputs": [
        {
          "indexed": true,
          "internalType": "address",
          "name": "previousOwner",
          "type": "address"
        },
        {
          "indexed": true,
          "internalType": "address",
          "name": "newOwner",
          "type": "address"
        }
      ],
      "name": "OwnershipTransferred",
      "type": "event"
    },
    {
      "inputs": [
        {
          "internalType": "string",
          "name": "protocolName",
          "type": "string"
        },
        {
          "internalType": "address",
          "name": "gateway",
          "type": "address"
        }
      ],
      "name": "addGateway",
      "outputs": [],
      "stateMutability": "nonpayable",
      "type": "function"
    },
    {
      "inputs": [],
      "name": "balancerV2Vault",
      "outputs": [
        {
          "internalType": "contract IFlashLoanProvider",
          "name": "",
          "type": "address"
        }
      ],
      "stateMutability": "view",
      "type": "function"
    },
    {
      "inputs": [],
      "name": "balancerV3Vault",
      "outputs": [
        {
          "internalType": "contract IVault",
          "name": "",
          "type": "address"
        }
      ],
      "stateMutability": "view",
      "type": "function"
    },
    {
      "inputs": [
        {
          "internalType": "string",
          "name": "protocolName",
          "type": "string"
        },
        {
          "internalType": "address",
          "name": "token",
          "type": "address"
        },
        {
          "internalType": "address",
          "name": "user",
          "type": "address"
        },
        {
          "internalType": "uint256",
          "name": "amount",
          "type": "uint256"
        }
      ],
      "name": "borrow",
      "outputs": [],
      "stateMutability": "nonpayable",
      "type": "function"
    },
    {
      "inputs": [
        {
          "internalType": "string",
          "name": "fromProtocol",
          "type": "string"
        },
        {
          "internalType": "string",
          "name": "toProtocol",
          "type": "string"
        },
        {
          "internalType": "address",
          "name": "market",
          "type": "address"
        },
        {
          "internalType": "address",
          "name": "collateral",
          "type": "address"
        }
      ],
      "name": "canMoveCollateral",
      "outputs": [
        {
          "internalType": "bool",
          "name": "canMove",
          "type": "bool"
        }
      ],
      "stateMutability": "view",
      "type": "function"
    },
    {
      "inputs": [
        {
          "internalType": "string",
          "name": "",
          "type": "string"
        }
      ],
      "name": "gateways",
      "outputs": [
        {
          "internalType": "contract IGateway",
          "name": "",
          "type": "address"
        }
      ],
      "stateMutability": "view",
      "type": "function"
    },
    {
      "inputs": [
        {
          "internalType": "string",
          "name": "protocolName",
          "type": "string"
        },
        {
          "internalType": "address",
          "name": "token",
          "type": "address"
        },
        {
          "internalType": "address",
          "name": "user",
          "type": "address"
        }
      ],
      "name": "getBalance",
      "outputs": [
        {
          "internalType": "uint256",
          "name": "",
          "type": "uint256"
        }
      ],
      "stateMutability": "view",
      "type": "function"
    },
    {
      "inputs": [
        {
          "internalType": "string",
          "name": "protocolName",
          "type": "string"
        },
        {
          "internalType": "address",
          "name": "token",
          "type": "address"
        },
        {
          "internalType": "address",
          "name": "user",
          "type": "address"
        }
      ],
      "name": "getBorrowBalance",
      "outputs": [
        {
          "internalType": "uint256",
          "name": "",
          "type": "uint256"
        }
      ],
      "stateMutability": "view",
      "type": "function"
    },
    {
      "inputs": [
        {
          "internalType": "address",
          "name": "token",
          "type": "address"
        },
        {
          "internalType": "string",
          "name": "flashLoanVersion",
          "type": "string"
        }
      ],
      "name": "getFlashLoanProviderBalance",
      "outputs": [
        {
          "internalType": "uint256",
          "name": "",
          "type": "uint256"
        }
      ],
      "stateMutability": "view",
      "type": "function"
    },
    {
      "inputs": [
        {
          "internalType": "address",
          "name": "debtToken",
          "type": "address"
        },
        {
          "components": [
            {
              "internalType": "address",
              "name": "token",
              "type": "address"
            },
            {
              "internalType": "uint256",
              "name": "amount",
              "type": "uint256"
            }
          ],
          "internalType": "struct IGateway.Collateral[]",
          "name": "collaterals",
          "type": "tuple[]"
        },
        {
          "internalType": "string",
          "name": "fromProtocol",
          "type": "string"
        }
      ],
      "name": "getFromProtocolApprovalsForMove",
      "outputs": [
        {
          "internalType": "address[]",
          "name": "",
          "type": "address[]"
        },
        {
          "internalType": "bytes[]",
          "name": "",
          "type": "bytes[]"
        }
      ],
      "stateMutability": "view",
      "type": "function"
    },
    {
      "inputs": [
        {
          "internalType": "address",
          "name": "token",
          "type": "address"
        },
        {
          "internalType": "string",
          "name": "protocolName",
          "type": "string"
        },
        {
          "internalType": "address",
          "name": "user",
          "type": "address"
        }
      ],
      "name": "getPossibleCollaterals",
      "outputs": [
        {
          "internalType": "address[]",
          "name": "collateralAddresses",
          "type": "address[]"
        },
        {
          "internalType": "uint256[]",
          "name": "balances",
          "type": "uint256[]"
        },
        {
          "internalType": "string[]",
          "name": "symbols",
          "type": "string[]"
        },
        {
          "internalType": "uint8[]",
          "name": "decimals",
          "type": "uint8[]"
        }
      ],
      "stateMutability": "view",
      "type": "function"
    },
    {
      "inputs": [
        {
          "internalType": "string",
          "name": "protocolName",
          "type": "string"
        },
        {
          "internalType": "address",
          "name": "market",
          "type": "address"
        }
      ],
      "name": "getSupportedCollaterals",
      "outputs": [
        {
          "internalType": "address[]",
          "name": "collateralAddresses",
          "type": "address[]"
        }
      ],
      "stateMutability": "view",
      "type": "function"
    },
    {
      "inputs": [
        {
          "internalType": "address",
          "name": "debtToken",
          "type": "address"
        },
        {
          "internalType": "uint256",
          "name": "debtAmount",
          "type": "uint256"
        },
        {
          "internalType": "string",
          "name": "toProtocol",
          "type": "string"
        }
      ],
      "name": "getToProtocolApprovalsForMove",
      "outputs": [
        {
          "internalType": "address[]",
          "name": "",
          "type": "address[]"
        },
        {
          "internalType": "bytes[]",
          "name": "",
          "type": "bytes[]"
        }
      ],
      "stateMutability": "view",
      "type": "function"
    },
    {
      "inputs": [
        {
          "internalType": "string",
          "name": "protocolName",
          "type": "string"
        },
        {
          "internalType": "address",
          "name": "market",
          "type": "address"
        },
        {
          "internalType": "address",
          "name": "collateral",
          "type": "address"
        }
      ],
      "name": "isCollateralSupported",
      "outputs": [
        {
          "internalType": "bool",
          "name": "isSupported",
          "type": "bool"
        }
      ],
      "stateMutability": "view",
      "type": "function"
    },
    {
      "inputs": [
        {
          "internalType": "address",
          "name": "user",
          "type": "address"
        },
        {
          "internalType": "address",
          "name": "debtToken",
          "type": "address"
        },
        {
          "internalType": "uint256",
          "name": "debtAmount",
          "type": "uint256"
        },
        {
          "internalType": "bool",
          "name": "repayAll",
          "type": "bool"
        },
        {
          "components": [
            {
              "internalType": "address",
              "name": "token",
              "type": "address"
            },
            {
              "internalType": "uint256",
              "name": "amount",
              "type": "uint256"
            }
          ],
          "internalType": "struct IGateway.Collateral[]",
          "name": "collaterals",
          "type": "tuple[]"
        },
        {
          "internalType": "string",
          "name": "fromProtocol",
          "type": "string"
        },
        {
          "internalType": "string",
          "name": "toProtocol",
          "type": "string"
        },
        {
          "internalType": "string",
          "name": "flashLoanVersion",
          "type": "string"
        }
      ],
      "name": "moveDebt",
      "outputs": [],
      "stateMutability": "nonpayable",
      "type": "function"
    },
    {
      "inputs": [],
      "name": "owner",
      "outputs": [
        {
          "internalType": "address",
          "name": "",
          "type": "address"
        }
      ],
      "stateMutability": "view",
      "type": "function"
    },
    {
      "inputs": [
        {
          "internalType": "contract IERC20[]",
          "name": "tokens",
          "type": "address[]"
        },
        {
          "internalType": "uint256[]",
          "name": "amounts",
          "type": "uint256[]"
        },
        {
          "internalType": "uint256[]",
          "name": "feeAmounts",
          "type": "uint256[]"
        },
        {
          "internalType": "bytes",
          "name": "userData",
          "type": "bytes"
        }
      ],
      "name": "receiveFlashLoan",
      "outputs": [],
      "stateMutability": "nonpayable",
      "type": "function"
    },
    {
      "inputs": [
        {
          "internalType": "address",
          "name": "user",
          "type": "address"
        },
        {
          "internalType": "address",
          "name": "debtToken",
          "type": "address"
        },
        {
          "internalType": "uint256",
          "name": "debtAmount",
          "type": "uint256"
        },
        {
          "components": [
            {
              "internalType": "address",
              "name": "token",
              "type": "address"
            },
            {
              "internalType": "uint256",
              "name": "amount",
              "type": "uint256"
            }
          ],
          "internalType": "struct IGateway.Collateral[]",
          "name": "collaterals",
          "type": "tuple[]"
        },
        {
          "internalType": "string",
          "name": "fromProtocol",
          "type": "string"
        },
        {
          "internalType": "string",
          "name": "toProtocol",
          "type": "string"
        }
      ],
      "name": "receiveFlashLoanV3",
      "outputs": [],
      "stateMutability": "nonpayable",
      "type": "function"
    },
    {
      "inputs": [],
      "name": "renounceOwnership",
      "outputs": [],
      "stateMutability": "nonpayable",
      "type": "function"
    },
    {
      "inputs": [
        {
          "internalType": "string",
          "name": "protocolName",
          "type": "string"
        },
        {
          "internalType": "address",
          "name": "token",
          "type": "address"
        },
        {
          "internalType": "address",
          "name": "user",
          "type": "address"
        },
        {
          "internalType": "uint256",
          "name": "amount",
          "type": "uint256"
        }
      ],
      "name": "repay",
      "outputs": [],
      "stateMutability": "nonpayable",
      "type": "function"
    },
    {
      "inputs": [
        {
          "internalType": "string",
          "name": "protocolName",
          "type": "string"
        },
        {
          "internalType": "address",
          "name": "token",
          "type": "address"
        },
        {
          "internalType": "address",
          "name": "user",
          "type": "address"
        },
        {
          "internalType": "uint256",
          "name": "amount",
          "type": "uint256"
        }
      ],
      "name": "supply",
      "outputs": [],
      "stateMutability": "nonpayable",
      "type": "function"
    },
    {
      "inputs": [
        {
          "internalType": "string",
          "name": "protocolName",
          "type": "string"
        },
        {
          "internalType": "address",
          "name": "token",
          "type": "address"
        },
        {
          "internalType": "address",
          "name": "user",
          "type": "address"
        },
        {
          "internalType": "uint256",
          "name": "amount",
          "type": "uint256"
        },
        {
          "internalType": "uint256",
          "name": "deadline",
          "type": "uint256"
        },
        {
          "internalType": "uint8",
          "name": "v",
          "type": "uint8"
        },
        {
          "internalType": "bytes32",
          "name": "r",
          "type": "bytes32"
        },
        {
          "internalType": "bytes32",
          "name": "s",
          "type": "bytes32"
        }
      ],
      "name": "supplyWithPermit",
      "outputs": [],
      "stateMutability": "nonpayable",
      "type": "function"
    },
    {
      "inputs": [
        {
          "internalType": "address",
          "name": "newOwner",
          "type": "address"
        }
      ],
      "name": "transferOwnership",
      "outputs": [],
      "stateMutability": "nonpayable",
      "type": "function"
    }
  ],
  "transactionHash": "0x8c5fe40d176cf84ea060c6be91863f3c10fba5374f6239943b3f1acbbc432693",
  "args": [
    "0xbA1333333333a1BA1108E8412f11850A5C319bA9",
    "0xBA12222222228d8Ba445958a75a0704d566BF2C8",
    "0x58d21499B5A3374a486B3F412Cca43b76692eF15"
  ],
  "numDeployments": 1,
  "solcInputHash": "0028cfb2ff64506f06d460f9d2264888",
  "bytecode": "0x60806040523480156200001157600080fd5b506040516200395c3803806200395c833981016040819052620000349162000110565b806001600160a01b0381166200006457604051631e4fbdf760e01b81526000600482015260240160405180910390fd5b6200006f81620000a7565b505060018055600380546001600160a01b039384166001600160a01b0319918216179091556004805492909316911617905562000164565b600080546001600160a01b038381166001600160a01b0319831681178455604051919092169283917f8be0079c531659141344cd1fd0a4f28419497f9722a3daafe3b4186f6b6457e09190a35050565b6001600160a01b03811681146200010d57600080fd5b50565b6000806000606084860312156200012657600080fd5b83516200013381620000f7565b60208501519093506200014681620000f7565b60408501519092506200015981620000f7565b809150509250925092565b6137e880620001746000396000f3fe608060405234801561001057600080fd5b506004361061014d5760003560e01c80638da5cb5b116100c3578063d7b28d5f1161007c578063d7b28d5f146102f0578063db236a1f14610303578063e30b155e14610337578063e327d3121461034a578063f04f27071461035d578063f2fde38b1461037057600080fd5b80638da5cb5b14610280578063a77e926214610291578063ac3cded8146102a4578063ad3a5f47146102b7578063ba71067f146102ca578063caf89ac5146102dd57600080fd5b80635c738121116101155780635c738121146101ec578063715018a6146101ff57806375e9ffb4146102075780637a04707d146102275780637ffe721e1461024a578063850320441461025d57600080fd5b806303862869146101525780630acefd351461017857806310c0a157146101a357806325d56916146101b657806340c7dd62146101cb575b600080fd5b61016561016036600461245a565b610383565b6040519081526020015b60405180910390f35b60035461018b906001600160a01b031681565b6040516001600160a01b03909116815260200161016f565b60045461018b906001600160a01b031681565b6101c96101c43660046124bd565b610530565b005b6101de6101d936600461255f565b610709565b60405161016f92919061264e565b6101de6101fa3660046126c0565b6107e2565b6101c96108ba565b61021a610215366004612773565b6108ce565b60405161016f91906127c9565b61023a6102353660046127dc565b610993565b60405161016f94939291906128a6565b610165610258366004612940565b610a6b565b61027061026b36600461299c565b610b31565b604051901515815260200161016f565b6000546001600160a01b031661018b565b6101c961029f366004612a30565b610cc7565b6101c96102b2366004612a30565b610dfb565b6101c96102c5366004612bc8565b610f44565b6102706102d8366004612940565b61115e565b6101656102eb366004612940565b61121a565b6101c96102fe366004612a30565b611295565b61018b610311366004612d02565b80516020818301810180516002825292820191909301209152546001600160a01b031681565b6101c9610345366004612773565b6113a2565b6101c9610358366004612d57565b6113f1565b6101c961036b366004612e9c565b611858565b6101c961037e366004612f3e565b611a53565b60408051808201825260028152613b1960f11b602090910152516000907ff9446b8e937d86f0bc87cac73923491692b123ca5f8761908494703758206adf906103cf9085908590612f5b565b60405180910390200361045457600480546040516370a0823160e01b81526001600160a01b03918216928101929092528516906370a08231906024015b602060405180830381865afa158015610429573d6000803e3d6000fd5b505050506040513d601f19601f8201168201806040525081019061044d9190612f6b565b9050610529565b6040805180820182526002815261763360f01b602090910152517fec97b8914cfb6741ca720b49246676ddcc2c227e4046450a8d815244c93673da9061049d9085908590612f5b565b6040518091039020036104dc576003546040516370a0823160e01b81526001600160a01b039182166004820152908516906370a082319060240161040c565b60405162461bcd60e51b815260206004820152601e60248201527f556e737570706f7274656420666c617368206c6f616e2076657273696f6e000060448201526064015b60405180910390fd5b9392505050565b610538611a91565b600060028a8a60405161054c929190612f5b565b908152604051908190036020019020546001600160a01b03169050806105845760405162461bcd60e51b815260040161052090612f84565b60405163d505accf60e01b8152336004820152306024820152604481018790526064810186905260ff8516608482015260a4810184905260c481018390526001600160a01b0389169063d505accf9060e401600060405180830381600087803b1580156105f057600080fd5b505af1158015610604573d6000803e3d6000fd5b5061061e925050506001600160a01b038916333089611abb565b60405163095ea7b360e01b81526001600160a01b0382811660048301526024820188905289169063095ea7b3906044016020604051808303816000875af115801561066d573d6000803e3d6000fd5b505050506040513d601f19601f820116820180604052508101906106919190612fb4565b50604051638340f54960e01b81526001600160a01b03821690638340f549906106c2908b908b908b90600401612fd1565b600060405180830381600087803b1580156106dc57600080fd5b505af11580156106f0573d6000803e3d6000fd5b50505050506106fe60018055565b505050505050505050565b606080600060028585604051610720929190612f5b565b908152604051908190036020019020546001600160a01b03169050806107585760405162461bcd60e51b815260040161052090612ff5565b604051636ae2b0eb60e11b81526001600160a01b03888116600483015260248201889052600091829184169063d5c561d690604401600060405180830381865afa1580156107aa573d6000803e3d6000fd5b505050506040513d6000823e601f3d908101601f191682016040526107d291908101906130e0565b909a909950975050505050505050565b6060806000600285856040516107f9929190612f5b565b908152604051908190036020019020546001600160a01b03169050806108315760405162461bcd60e51b8152600401610520906131b4565b600080826001600160a01b031663a342986c8b8b8b6040518463ffffffff1660e01b8152600401610864939291906131eb565b600060405180830381865afa158015610881573d6000803e3d6000fd5b505050506040513d6000823e601f3d908101601f191682016040526108a991908101906130e0565b909b909a5098505050505050505050565b6108c2611b1b565b6108cc6000611b48565b565b60606000600285856040516108e4929190612f5b565b908152604051908190036020019020546001600160a01b031690508061091c5760405162461bcd60e51b815260040161052090612f84565b6040516366e2d09b60e01b81526001600160a01b0384811660048301528216906366e2d09b90602401600060405180830381865afa158015610962573d6000803e3d6000fd5b505050506040513d6000823e601f3d908101601f1916820160405261098a9190810190613250565b95945050505050565b6060806060806000600288886040516109ad929190612f5b565b908152604051908190036020019020546001600160a01b03169050806109e55760405162461bcd60e51b815260040161052090612f84565b60405163104e999d60e01b81526001600160a01b0382169063104e999d90610a13908c908a90600401613284565b600060405180830381865afa158015610a30573d6000803e3d6000fd5b505050506040513d6000823e601f3d908101601f19168201604052610a589190810190613396565b929c919b50995090975095505050505050565b60008060028686604051610a80929190612f5b565b908152604051908190036020019020546001600160a01b0316905080610ab85760405162461bcd60e51b815260040161052090612f84565b60405163d4fac45d60e01b81526001600160a01b0382169063d4fac45d90610ae69087908790600401613284565b602060405180830381865afa158015610b03573d6000803e3d6000fd5b505050506040513d601f19601f82011682018060405250810190610b279190612f6b565b9695505050505050565b60008060028888604051610b46929190612f5b565b908152604051908190036020018120546001600160a01b03169150600090600290610b749089908990612f5b565b908152604051908190036020019020546001600160a01b0390811691508216610baf5760405162461bcd60e51b8152600401610520906131b4565b6001600160a01b038116610bd55760405162461bcd60e51b815260040161052090612ff5565b604051637846611360e01b81526001600160a01b03831690637846611390610c039088908890600401613284565b602060405180830381865afa158015610c20573d6000803e3d6000fd5b505050506040513d601f19601f82011682018060405250810190610c449190612fb4565b8015610cba5750604051637846611360e01b81526001600160a01b03821690637846611390610c799088908890600401613284565b602060405180830381865afa158015610c96573d6000803e3d6000fd5b505050506040513d601f19601f82011682018060405250810190610cba9190612fb4565b9998505050505050505050565b610ccf611a91565b600060028686604051610ce3929190612f5b565b908152604051908190036020019020546001600160a01b0316905080610d1b5760405162461bcd60e51b815260040161052090612f84565b6001600160a01b0383163314610d735760405162461bcd60e51b815260206004820152601c60248201527f43616e206f6e6c7920626f72726f7720666f7220796f757273656c66000000006044820152606401610520565b6040516314890dcb60e21b81526001600160a01b03821690635224372c90610da390879087908790600401612fd1565b600060405180830381600087803b158015610dbd57600080fd5b505af1158015610dd1573d6000803e3d6000fd5b50610dea925050506001600160a01b0385168484611b98565b50610df460018055565b5050505050565b610e03611a91565b600060028686604051610e17929190612f5b565b908152604051908190036020019020546001600160a01b0316905080610e4f5760405162461bcd60e51b815260040161052090612f84565b610e646001600160a01b038516843085611abb565b60405163095ea7b360e01b81526001600160a01b0382811660048301526024820184905285169063095ea7b3906044016020604051808303816000875af1158015610eb3573d6000803e3d6000fd5b505050506040513d601f19601f82011682018060405250810190610ed79190612fb4565b50604051638340f54960e01b81526001600160a01b03821690638340f54990610f0890879087908790600401612fd1565b600060405180830381600087803b158015610f2257600080fd5b505af1158015610f36573d6000803e3d6000fd5b5050505050610df460018055565b600454600160a01b900460ff16610f965760405162461bcd60e51b8152602060048201526016602482015275119b185cda081b1bd85b881b9bdd08195b98589b195960521b6044820152606401610520565b6003546001600160a01b03163314610ff05760405162461bcd60e51b815260206004820181905260248201527f556e617574686f72697a656420666c617368206c6f616e2070726f76696465726044820152606401610520565b60035460405163ae63932960e01b81526001600160a01b039091169063ae63932990611024908a9030908b90600401612fd1565b600060405180830381600087803b15801561103e57600080fd5b505af1158015611052573d6000803e3d6000fd5b505050506110cd8888888888888080601f01602080910402602001604051908101604052809392919081815260200183838082843760009201919091525050604080516020601f8c018190048102820181019092528a815292508a9150899081908401838280828437600092019190915250611bce92505050565b6003546110e7906001600160a01b03898116911688611b98565b6003546040516315afd40960e01b81526001600160a01b03898116600483015260248201899052909116906315afd409906044016020604051808303816000875af115801561113a573d6000803e3d6000fd5b505050506040513d601f19601f820116820180604052508101906106fe9190612f6b565b60008060028686604051611173929190612f5b565b908152604051908190036020019020546001600160a01b03169050806111ab5760405162461bcd60e51b815260040161052090612f84565b604051637846611360e01b81526001600160a01b038216906378466113906111d99087908790600401613284565b602060405180830381865afa1580156111f6573d6000803e3d6000fd5b505050506040513d601f19601f82011682018060405250810190610b279190612fb4565b6000806002868660405161122f929190612f5b565b908152604051908190036020019020546001600160a01b03169050806112675760405162461bcd60e51b815260040161052090612f84565b60405163118e31b760e01b81526001600160a01b0382169063118e31b790610ae69087908790600401613284565b61129d611a91565b6000600286866040516112b1929190612f5b565b908152604051908190036020019020546001600160a01b03169050806112e95760405162461bcd60e51b815260040161052090612f84565b6112fe6001600160a01b038516843085611abb565b60405163095ea7b360e01b81526001600160a01b0382811660048301526024820184905285169063095ea7b3906044016020604051808303816000875af115801561134d573d6000803e3d6000fd5b505050506040513d601f19601f820116820180604052508101906113719190612fb4565b50604051631da649cf60e01b81526001600160a01b03821690631da649cf90610f0890879087908790600401612fd1565b6113aa611b1b565b80600284846040516113bd929190612f5b565b90815260405190819003602001902080546001600160a01b03929092166001600160a01b0319909216919091179055505050565b6113f9611a91565b6004805460ff60a01b1916600160a01b179055886114675760405162461bcd60e51b815260206004820152602560248201527f4465627420616d6f756e74206d7573742062652067726561746572207468616e604482015264207a65726f60d81b6064820152608401610520565b6001600160a01b038b1633146114bf5760405162461bcd60e51b815260206004820152601760248201527f55736572206d757374206265207468652063616c6c65720000000000000000006044820152606401610520565b8715611584576000600287876040516114d9929190612f5b565b908152604051908190036020019020546001600160a01b03169050806115115760405162461bcd60e51b8152600401610520906131b4565b806001600160a01b031663118e31b78c8e6040518363ffffffff1660e01b815260040161153f929190613284565b602060405180830381865afa15801561155c573d6000803e3d6000fd5b505050506040513d601f19601f820116820180604052508101906115809190612f6b565b9950505b60408051808201825260028152613b1960f11b602090910152517ff9446b8e937d86f0bc87cac73923491692b123ca5f8761908494703758206adf906115cd9084908490612f5b565b6040518091039020036117085760008b8b8b8a8a8a8a8a6040516020016115fb9897969594939291906134c0565b60408051601f198184030181526001808452838301909252925060009190602080830190803683370190505090508b8160008151811061163d5761163d613552565b6001600160a01b0392909216602092830291909101909101526040805160018082528183019092526000918160200160208202803683370190505090508b8160008151811061168e5761168e613552565b602090810291909101015260048054604051632e1c224f60e11b81526001600160a01b0390911691635c38449e916116ce913091879187918a9101613568565b600060405180830381600087803b1580156116e857600080fd5b505af11580156116fc573d6000803e3d6000fd5b50505050505050611835565b6040805180820182526002815261763360f01b602090910152517fec97b8914cfb6741ca720b49246676ddcc2c227e4046450a8d815244c93673da906117519084908490612f5b565b6040518091039020036104dc57600063ad3a5f4760e01b8c8c8c8b8b8b8b8b6040516024016117879897969594939291906134c0565b60408051601f198184030181529181526020820180516001600160e01b03166001600160e01b03199094169390931790925260035491516348c8949160e01b81529092506001600160a01b03909116906348c89491906117eb9084906004016135ec565b6000604051808303816000875af115801561180a573d6000803e3d6000fd5b505050506040513d6000823e601f3d908101601f1916820160405261183291908101906135ff565b50505b6004805460ff60a01b1916905561184b60018055565b5050505050505050505050565b600454600160a01b900460ff166118aa5760405162461bcd60e51b8152602060048201526016602482015275119b185cda081b1bd85b881b9bdd08195b98589b195960521b6044820152606401610520565b6004546001600160a01b031633146119045760405162461bcd60e51b815260206004820181905260248201527f556e617574686f72697a656420666c617368206c6f616e2070726f76696465726044820152606401610520565b6000808080808061191787890189613633565b955095509550955095509550898990506001146119905760405162461bcd60e51b815260206004820152603160248201527f42616c616e63657220563220666c617368206c6f616e2066656520616d6f756e6044820152700e840d8cadccee8d040dad2e6dac2e8c6d607b1b6064820152608401610520565b898960008181106119a3576119a3613552565b905060200201356000146119f05760405162461bcd60e51b8152602060048201526014602482015273466c617368206c6f616e7320617265206672656560601b6044820152606401610520565b6119fe868686868686611bce565b60008a8a6000818110611a1357611a13613552565b9050602002013585611a2591906136fe565b600454909150611a42906001600160a01b03888116911683611b98565b505050505050505050505050505050565b611a5b611b1b565b6001600160a01b038116611a8557604051631e4fbdf760e01b815260006004820152602401610520565b611a8e81611b48565b50565b600260015403611ab457604051633ee5aeb560e01b815260040160405180910390fd5b6002600155565b611b1584856001600160a01b03166323b872dd868686604051602401611ae393929190612fd1565b604051602081830303815290604052915060e01b6020820180516001600160e01b0383818316178352505050506121ee565b50505050565b6000546001600160a01b031633146108cc5760405163118cdaa760e01b8152336004820152602401610520565b600080546001600160a01b038381166001600160a01b0319831681178455604051919092169283917f8be0079c531659141344cd1fd0a4f28419497f9722a3daafe3b4186f6b6457e09190a35050565b6040516001600160a01b03838116602483015260448201839052611bc991859182169063a9059cbb90606401611ae3565b505050565b6000600283604051611be09190613711565b908152604051908190036020018120546001600160a01b03169150600090600290611c0c908590613711565b908152604051908190036020019020546001600160a01b0390811691508216611c475760405162461bcd60e51b8152600401610520906131b4565b6001600160a01b038116611c6d5760405162461bcd60e51b815260040161052090612ff5565b611cab6040518060400160405280601e81526020017f5265706179696e672064656274206f6e2066726f6d2070726f746f636f6c0000815250612251565b60405163095ea7b360e01b81526001600160a01b0383811660048301526024820188905288169063095ea7b3906044016020604051808303816000875af1158015611cfa573d6000803e3d6000fd5b505050506040513d601f19601f82011682018060405250810190611d1e9190612fb4565b5060405163118e31b760e01b81526000906001600160a01b0384169063118e31b790611d50908b908d90600401613284565b602060405180830381865afa158015611d6d573d6000803e3d6000fd5b505050506040513d601f19601f82011682018060405250810190611d919190612f6b565b604051631da649cf60e01b81529091506001600160a01b03841690631da649cf90611dc4908b908d908c90600401612fd1565b600060405180830381600087803b158015611dde57600080fd5b505af1158015611df2573d6000803e3d6000fd5b505060405163118e31b760e01b8152600092506001600160a01b038616915063118e31b790611e27908c908e90600401613284565b602060405180830381865afa158015611e44573d6000803e3d6000fd5b505050506040513d601f19601f82011682018060405250810190611e689190612f6b565b9050818110611ec95760405162461bcd60e51b815260206004820152602760248201527f52657061796d656e7420646964206e6f742072656475636520626f72726f772060448201526662616c616e636560c81b6064820152608401610520565b505060005b855181101561214357611ef860405180606001604052806029815260200161378a60299139612251565b6000836001600160a01b0316635820ba638a898581518110611f1c57611f1c613552565b6020026020010151600001518d8b8781518110611f3b57611f3b613552565b60209081029190910181015101516040516001600160e01b031960e087901b1681526001600160a01b03948516600482015292841660248401529216604482015260648101919091526084016020604051808303816000875af1158015611fa6573d6000803e3d6000fd5b505050506040513d601f19601f82011682018060405250810190611fca919061372d565b9050611fed60405180606001604052806026815260200161376460269139612251565b806001600160a01b031663095ea7b38489858151811061200f5761200f613552565b6020026020010151602001516040518363ffffffff1660e01b815260040161204c9291906001600160a01b03929092168252602082015260400190565b6020604051808303816000875af115801561206b573d6000803e3d6000fd5b505050506040513d601f19601f8201168201806040525081019061208f9190612fb4565b50826001600160a01b0316634108d0af8a838a86815181106120b3576120b3613552565b60209081029190910181015101516040516001600160e01b031960e086901b1681526001600160a01b03938416600482015291831660248301526044820152908d166064820152608401600060405180830381600087803b15801561211757600080fd5b505af115801561212b573d6000803e3d6000fd5b5050505050808061213b9061374a565b915050611ece565b506121826040518060400160405280601d81526020017f426f72726f77696e672064656274206f6e20746f2070726f746f636f6c000000815250612251565b6040516314890dcb60e21b81526001600160a01b03821690635224372c906121b2908a908c908b90600401612fd1565b600060405180830381600087803b1580156121cc57600080fd5b505af11580156121e0573d6000803e3d6000fd5b505050505050505050505050565b60006122036001600160a01b03841683612294565b905080516000141580156122285750808060200190518101906122269190612fb4565b155b15611bc957604051635274afe760e01b81526001600160a01b0384166004820152602401610520565b611a8e8160405160240161226591906135ec565b60408051601f198184030181529190526020810180516001600160e01b031663104c13eb60e21b1790526122ab565b60606122a2838360006122b4565b90505b92915050565b611a8e81612347565b6060814710156122d95760405163cd78605960e01b8152306004820152602401610520565b600080856001600160a01b031684866040516122f59190613711565b60006040518083038185875af1925050503d8060008114612332576040519150601f19603f3d011682016040523d82523d6000602084013e612337565b606091505b5091509150610b27868383612368565b60006a636f6e736f6c652e6c6f679050600080835160208501845afa505050565b60608261237d57612378826123c4565b610529565b815115801561239457506001600160a01b0384163b155b156123bd57604051639996b31560e01b81526001600160a01b0385166004820152602401610520565b5080610529565b8051156123d45780518082602001fd5b604051630a12f52160e11b815260040160405180910390fd5b6001600160a01b0381168114611a8e57600080fd5b803561240d816123ed565b919050565b60008083601f84011261242457600080fd5b5081356001600160401b0381111561243b57600080fd5b60208301915083602082850101111561245357600080fd5b9250929050565b60008060006040848603121561246f57600080fd5b833561247a816123ed565b925060208401356001600160401b0381111561249557600080fd5b6124a186828701612412565b9497909650939450505050565b60ff81168114611a8e57600080fd5b60008060008060008060008060006101008a8c0312156124dc57600080fd5b89356001600160401b038111156124f257600080fd5b6124fe8c828d01612412565b909a5098505060208a0135612512816123ed565b965060408a0135612522816123ed565b955060608a0135945060808a0135935060a08a0135612540816124ae565b8093505060c08a0135915060e08a013590509295985092959850929598565b6000806000806060858703121561257557600080fd5b8435612580816123ed565b93506020850135925060408501356001600160401b038111156125a257600080fd5b6125ae87828801612412565b95989497509550505050565b600081518084526020808501945080840160005b838110156125f35781516001600160a01b0316875295820195908201906001016125ce565b509495945050505050565b60005b83811015612619578181015183820152602001612601565b50506000910152565b6000815180845261263a8160208601602086016125fe565b601f01601f19169290920160200192915050565b60408152600061266160408301856125ba565b6020838203818501528185518084528284019150828160051b85010183880160005b838110156126b157601f1987840301855261269f838351612622565b94860194925090850190600101612683565b50909998505050505050505050565b6000806000806000606086880312156126d857600080fd5b85356126e3816123ed565b945060208601356001600160401b03808211156126ff57600080fd5b818801915088601f83011261271357600080fd5b81358181111561272257600080fd5b8960208260061b850101111561273757600080fd5b60208301965080955050604088013591508082111561275557600080fd5b5061276288828901612412565b969995985093965092949392505050565b60008060006040848603121561278857600080fd5b83356001600160401b0381111561279e57600080fd5b6127aa86828701612412565b90945092505060208401356127be816123ed565b809150509250925092565b6020815260006122a260208301846125ba565b600080600080606085870312156127f257600080fd5b84356127fd816123ed565b935060208501356001600160401b0381111561281857600080fd5b61282487828801612412565b9094509250506040850135612838816123ed565b939692955090935050565b600081518084526020808501945080840160005b838110156125f357815187529582019590820190600101612857565b600081518084526020808501945080840160005b838110156125f357815160ff1687529582019590820190600101612887565b6080815260006128b960808301876125ba565b6020838203818501526128cc8288612843565b915083820360408501528186518084528284019150828160051b85010183890160005b8381101561291d57601f1987840301855261290b838351612622565b948601949250908501906001016128ef565b505086810360608801526129318189612873565b9b9a5050505050505050505050565b6000806000806060858703121561295657600080fd5b84356001600160401b0381111561296c57600080fd5b61297887828801612412565b909550935050602085013561298c816123ed565b91506040850135612838816123ed565b600080600080600080608087890312156129b557600080fd5b86356001600160401b03808211156129cc57600080fd5b6129d88a838b01612412565b909850965060208901359150808211156129f157600080fd5b506129fe89828a01612412565b9095509350506040870135612a12816123ed565b91506060870135612a22816123ed565b809150509295509295509295565b600080600080600060808688031215612a4857600080fd5b85356001600160401b03811115612a5e57600080fd5b612a6a88828901612412565b9096509450506020860135612a7e816123ed565b92506040860135612a8e816123ed565b949793965091946060013592915050565b634e487b7160e01b600052604160045260246000fd5b604080519081016001600160401b0381118282101715612ad757612ad7612a9f565b60405290565b604051601f8201601f191681016001600160401b0381118282101715612b0557612b05612a9f565b604052919050565b60006001600160401b03821115612b2657612b26612a9f565b5060051b60200190565b600082601f830112612b4157600080fd5b81356020612b56612b5183612b0d565b612add565b82815260069290921b84018101918181019086841115612b7557600080fd5b8286015b84811015612bbd5760408189031215612b925760008081fd5b612b9a612ab5565b8135612ba5816123ed565b81528185013585820152835291830191604001612b79565b509695505050505050565b60008060008060008060008060c0898b031215612be457600080fd5b8835612bef816123ed565b97506020890135612bff816123ed565b96506040890135955060608901356001600160401b0380821115612c2257600080fd5b612c2e8c838d01612b30565b965060808b0135915080821115612c4457600080fd5b612c508c838d01612412565b909650945060a08b0135915080821115612c6957600080fd5b50612c768b828c01612412565b999c989b5096995094979396929594505050565b60006001600160401b03821115612ca357612ca3612a9f565b50601f01601f191660200190565b600082601f830112612cc257600080fd5b8135612cd0612b5182612c8a565b818152846020838601011115612ce557600080fd5b816020850160208301376000918101602001919091529392505050565b600060208284031215612d1457600080fd5b81356001600160401b03811115612d2a57600080fd5b612d3684828501612cb1565b949350505050565b8015158114611a8e57600080fd5b803561240d81612d3e565b60008060008060008060008060008060006101008c8e031215612d7957600080fd5b612d828c612402565b9a50612d9060208d01612402565b995060408c01359850612da560608d01612d4c565b97506001600160401b038060808e01351115612dc057600080fd5b612dd08e60808f01358f01612b30565b97508060a08e01351115612de357600080fd5b612df38e60a08f01358f01612412565b909750955060c08d0135811015612e0957600080fd5b612e198e60c08f01358f01612412565b909550935060e08d0135811015612e2f57600080fd5b50612e408d60e08e01358e01612412565b81935080925050509295989b509295989b9093969950565b60008083601f840112612e6a57600080fd5b5081356001600160401b03811115612e8157600080fd5b6020830191508360208260051b850101111561245357600080fd5b6000806000806000806000806080898b031215612eb857600080fd5b88356001600160401b0380821115612ecf57600080fd5b612edb8c838d01612e58565b909a50985060208b0135915080821115612ef457600080fd5b612f008c838d01612e58565b909850965060408b0135915080821115612f1957600080fd5b612f258c838d01612e58565b909650945060608b0135915080821115612c6957600080fd5b600060208284031215612f5057600080fd5b8135610529816123ed565b8183823760009101908152919050565b600060208284031215612f7d57600080fd5b5051919050565b602080825260169082015275141c9bdd1bd8dbdb081b9bdd081cdd5c1c1bdc9d195960521b604082015260600190565b600060208284031215612fc657600080fd5b815161052981612d3e565b6001600160a01b039384168152919092166020820152604081019190915260600190565b60208082526019908201527f546f2070726f746f636f6c206e6f7420737570706f7274656400000000000000604082015260600190565b600082601f83011261303d57600080fd5b8151602061304d612b5183612b0d565b82815260059290921b8401810191818101908684111561306c57600080fd5b8286015b84811015612bbd578051613083816123ed565b8352918301918301613070565b600061309e612b5184612c8a565b90508281528383830111156130b257600080fd5b6105298360208301846125fe565b600082601f8301126130d157600080fd5b6122a283835160208501613090565b600080604083850312156130f357600080fd5b82516001600160401b038082111561310a57600080fd5b6131168683870161302c565b935060209150818501518181111561312d57600080fd5b8501601f8101871361313e57600080fd5b805161314c612b5182612b0d565b81815260059190911b8201840190848101908983111561316b57600080fd5b8584015b838110156131a3578051868111156131875760008081fd5b6131958c89838901016130c0565b84525091860191860161316f565b508096505050505050509250929050565b6020808252601b908201527f46726f6d2070726f746f636f6c206e6f7420737570706f727465640000000000604082015260600190565b6001600160a01b03848116825260406020808401829052838201859052600092869160608601855b88811015613242578435613226816123ed565b8416825284830135838301529385019390850190600101613213565b509998505050505050505050565b60006020828403121561326257600080fd5b81516001600160401b0381111561327857600080fd5b612d368482850161302c565b6001600160a01b0392831681529116602082015260400190565b600082601f8301126132af57600080fd5b815160206132bf612b5183612b0d565b82815260059290921b840181019181810190868411156132de57600080fd5b8286015b84811015612bbd5780516001600160401b038111156133015760008081fd5b8701603f810189136133135760008081fd5b613324898683015160408401613090565b8452509183019183016132e2565b600082601f83011261334357600080fd5b81516020613353612b5183612b0d565b82815260059290921b8401810191818101908684111561337257600080fd5b8286015b84811015612bbd578051613389816124ae565b8352918301918301613376565b600080600080608085870312156133ac57600080fd5b84516001600160401b03808211156133c357600080fd5b6133cf8883890161302c565b95506020915081870151818111156133e657600080fd5b8701601f810189136133f757600080fd5b8051613405612b5182612b0d565b81815260059190911b8201840190848101908b83111561342457600080fd5b928501925b8284101561344257835182529285019290850190613429565b60408b015190985094505050508082111561345c57600080fd5b6134688883890161329e565b9350606087015191508082111561347e57600080fd5b5061348b87828801613332565b91505092959194509250565b81835281816020850137506000828201602090810191909152601f909101601f19169091010190565b600060c0820160018060a01b03808c1684526020818c168186015260408b8187015260c06060870152838b5180865260e088019150838d01955060005b818110156135245786518051871684528501518584015295840195918301916001016134fd565b50508681036080880152613539818b8d613497565b94505050505082810360a0840152612931818587613497565b634e487b7160e01b600052603260045260246000fd5b6001600160a01b0385811682526080602080840182905286519184018290526000928782019290919060a0860190855b818110156135b6578551851683529483019491830191600101613598565b505085810360408701526135ca8189612843565b935050505082810360608401526135e18185612622565b979650505050505050565b6020815260006122a26020830184612622565b60006020828403121561361157600080fd5b81516001600160401b0381111561362757600080fd5b612d36848285016130c0565b60008060008060008060c0878903121561364c57600080fd5b8635613657816123ed565b95506020870135613667816123ed565b94506040870135935060608701356001600160401b038082111561368a57600080fd5b6136968a838b01612b30565b945060808901359150808211156136ac57600080fd5b6136b88a838b01612cb1565b935060a08901359150808211156136ce57600080fd5b506136db89828a01612cb1565b9150509295509295509295565b634e487b7160e01b600052601160045260246000fd5b808201808211156122a5576122a56136e8565b600082516137238184602087016125fe565b9190910192915050565b60006020828403121561373f57600080fd5b8151610529816123ed565b60006001820161375c5761375c6136e8565b506001019056fe4465706f736974696e6720636f6c6c61746572616c20696e746f20746f2070726f746f636f6c5769746864726177696e6720636f6c6c61746572616c2066726f6d2066726f6d2070726f746f636f6ca26469706673582212205f8c3033e49afe4f2efe3688053fc04bdc1cc70e9230254fccfe1b34d2ef36d164736f6c63430008140033",
  "devdoc": {
    "errors": {
      "AddressEmptyCode(address)": [
        {
          "details": "There's no code at `target` (it is not a contract)."
        }
      ],
      "AddressInsufficientBalance(address)": [
        {
          "details": "The ETH balance of the account is not enough to perform the operation."
        }
      ],
      "FailedInnerCall()": [
        {
          "details": "A call to an address target failed. The target may have reverted."
        }
      ],
      "OwnableInvalidOwner(address)": [
        {
          "details": "The owner is not a valid owner account. (eg. `address(0)`)"
        }
      ],
      "OwnableUnauthorizedAccount(address)": [
        {
          "details": "The caller account is not authorized to perform an operation."
        }
      ],
      "ReentrancyGuardReentrantCall()": [
        {
          "details": "Unauthorized reentrant call."
        }
      ],
      "SafeERC20FailedOperation(address)": [
        {
          "details": "An operation with an ERC20 token failed."
        }
      ]
    },
    "kind": "dev",
    "methods": {
      "borrow(string,address,address,uint256)": {
        "params": {
          "amount": "The amount to borrow",
          "protocolName": "The name of the protocol to borrow from",
          "token": "The token to borrow",
          "user": "The user to borrow for"
        }
      },
      "canMoveCollateral(string,string,address,address)": {
        "params": {
          "collateral": "The address of the collateral token to check",
          "fromProtocol": "The name of the source protocol",
          "market": "The address of the market token",
          "toProtocol": "The name of the target protocol"
        },
        "returns": {
          "canMove": "Whether the collateral can be moved between protocols"
        }
      },
      "getFlashLoanProviderBalance(address,string)": {
        "params": {
          "flashLoanVersion": "The flash loan provider version (\"v2\" or \"v3\")",
          "token": "The token address to check balance for"
        },
        "returns": {
          "_0": "The token balance in the flash loan provider"
        }
      },
      "getSupportedCollaterals(string,address)": {
        "params": {
          "market": "The address of the market token",
          "protocolName": "The name of the protocol to check"
        },
        "returns": {
          "collateralAddresses": "Array of supported collateral token addresses"
        }
      },
      "isCollateralSupported(string,address,address)": {
        "params": {
          "collateral": "The address of the collateral token to check",
          "market": "The address of the market token",
          "protocolName": "The name of the protocol to check"
        },
        "returns": {
          "isSupported": "Whether the collateral is supported in the protocol"
        }
      },
      "owner()": {
        "details": "Returns the address of the current owner."
      },
      "renounceOwnership()": {
        "details": "Leaves the contract without owner. It will not be possible to call `onlyOwner` functions. Can only be called by the current owner. NOTE: Renouncing ownership will leave the contract without an owner, thereby disabling any functionality that is only available to the owner."
      },
      "transferOwnership(address)": {
        "details": "Transfers ownership of the contract to a new account (`newOwner`). Can only be called by the current owner."
      }
    },
    "version": 1
  },
  "userdoc": {
    "kind": "user",
    "methods": {
      "borrow(string,address,address,uint256)": {
        "notice": "Borrow tokens from a protocol"
      },
      "canMoveCollateral(string,string,address,address)": {
        "notice": "Check if a collateral can be moved from one protocol to another"
      },
      "getFlashLoanProviderBalance(address,string)": {
        "notice": "Get the balance of a token in a flash loan provider"
      },
      "getSupportedCollaterals(string,address)": {
        "notice": "Get all supported collaterals for a specific market in a protocol"
      },
      "isCollateralSupported(string,address,address)": {
        "notice": "Check if a collateral token is supported in the target protocol"
      }
    },
    "version": 1
  },
  "storageLayout": {
    "storage": [
      {
        "astId": 2312,
        "contract": "contracts/RouterGateway.sol:RouterGateway",
        "label": "_owner",
        "offset": 0,
        "slot": "0",
        "type": "t_address"
      },
      {
        "astId": 3827,
        "contract": "contracts/RouterGateway.sol:RouterGateway",
        "label": "_status",
        "offset": 0,
        "slot": "1",
        "type": "t_uint256"
      },
      {
        "astId": 4320,
        "contract": "contracts/RouterGateway.sol:RouterGateway",
        "label": "gateways",
        "offset": 0,
        "slot": "2",
        "type": "t_mapping(t_string_memory_ptr,t_contract(IGateway)8987)"
      },
      {
        "astId": 4323,
        "contract": "contracts/RouterGateway.sol:RouterGateway",
        "label": "balancerV3Vault",
        "offset": 0,
        "slot": "3",
        "type": "t_contract(IVault)9781"
      },
      {
        "astId": 4326,
        "contract": "contracts/RouterGateway.sol:RouterGateway",
        "label": "balancerV2Vault",
        "offset": 0,
        "slot": "4",
        "type": "t_contract(IFlashLoanProvider)4307"
      },
      {
        "astId": 4328,
        "contract": "contracts/RouterGateway.sol:RouterGateway",
        "label": "flashLoanEnabled",
        "offset": 20,
        "slot": "4",
        "type": "t_bool"
      }
    ],
    "types": {
      "t_address": {
        "encoding": "inplace",
        "label": "address",
        "numberOfBytes": "20"
      },
      "t_bool": {
        "encoding": "inplace",
        "label": "bool",
        "numberOfBytes": "1"
      },
      "t_contract(IFlashLoanProvider)4307": {
        "encoding": "inplace",
        "label": "contract IFlashLoanProvider",
        "numberOfBytes": "20"
      },
      "t_contract(IGateway)8987": {
        "encoding": "inplace",
        "label": "contract IGateway",
        "numberOfBytes": "20"
      },
      "t_contract(IVault)9781": {
        "encoding": "inplace",
        "label": "contract IVault",
        "numberOfBytes": "20"
      },
      "t_mapping(t_string_memory_ptr,t_contract(IGateway)8987)": {
        "encoding": "mapping",
        "key": "t_string_memory_ptr",
        "label": "mapping(string => contract IGateway)",
        "numberOfBytes": "32",
        "value": "t_contract(IGateway)8987"
      },
      "t_string_memory_ptr": {
        "encoding": "bytes",
        "label": "string",
        "numberOfBytes": "32"
      },
      "t_uint256": {
        "encoding": "inplace",
        "label": "uint256",
        "numberOfBytes": "32"
      }
    }
  }
}