{
  "address": "0x570e95e8355765EacE39DEfC004092F84C8d9611",
  "abi": [
    {
      "inputs": [
        {
          "internalType": "address",
          "name": "_viewRouter",
          "type": "address"
        },
        {
          "internalType": "address",
          "name": "_orderManager",
          "type": "address"
        },
        {
          "internalType": "address",
          "name": "_hooksTrampoline",
          "type": "address"
        },
        {
          "internalType": "address",
          "name": "_settlement",
          "type": "address"
        }
      ],
      "stateMutability": "nonpayable",
      "type": "constructor"
    },
    {
      "inputs": [],
      "name": "InvalidParams",
      "type": "error"
    },
    {
      "inputs": [],
      "name": "NotTrampoline",
      "type": "error"
    },
    {
      "inputs": [],
      "name": "AAVE_V3",
      "outputs": [
        {
          "internalType": "bytes4",
          "name": "",
          "type": "bytes4"
        }
      ],
      "stateMutability": "view",
      "type": "function"
    },
    {
      "inputs": [],
      "name": "COMPOUND_V3",
      "outputs": [
        {
          "internalType": "bytes4",
          "name": "",
          "type": "bytes4"
        }
      ],
      "stateMutability": "view",
      "type": "function"
    },
    {
      "inputs": [],
      "name": "EULER_V2",
      "outputs": [
        {
          "internalType": "bytes4",
          "name": "",
          "type": "bytes4"
        }
      ],
      "stateMutability": "view",
      "type": "function"
    },
    {
      "inputs": [],
      "name": "MORPHO_BLUE",
      "outputs": [
        {
          "internalType": "bytes4",
          "name": "",
          "type": "bytes4"
        }
      ],
      "stateMutability": "view",
      "type": "function"
    },
    {
      "inputs": [],
      "name": "VENUS",
      "outputs": [
        {
          "internalType": "bytes4",
          "name": "",
          "type": "bytes4"
        }
      ],
      "stateMutability": "view",
      "type": "function"
    },
    {
      "inputs": [
        {
          "internalType": "bytes",
          "name": "staticData",
          "type": "bytes"
        },
        {
          "internalType": "address",
          "name": "owner",
          "type": "address"
        },
        {
          "internalType": "uint256",
          "name": "iterationCount",
          "type": "uint256"
        }
      ],
      "name": "calculateExecution",
      "outputs": [
        {
          "internalType": "uint256",
          "name": "sellAmount",
          "type": "uint256"
        },
        {
          "internalType": "uint256",
          "name": "minBuyAmount",
          "type": "uint256"
        }
      ],
      "stateMutability": "view",
      "type": "function"
    },
    {
      "inputs": [
        {
          "components": [
            {
              "internalType": "bytes4",
              "name": "protocolId",
              "type": "bytes4"
            },
            {
              "internalType": "bytes",
              "name": "protocolContext",
              "type": "bytes"
            },
            {
              "internalType": "uint256",
              "name": "triggerLtvBps",
              "type": "uint256"
            },
            {
              "internalType": "uint256",
              "name": "targetLtvBps",
              "type": "uint256"
            },
            {
              "internalType": "address",
              "name": "collateralToken",
              "type": "address"
            },
            {
              "internalType": "address",
              "name": "debtToken",
              "type": "address"
            },
            {
              "internalType": "uint8",
              "name": "collateralDecimals",
              "type": "uint8"
            },
            {
              "internalType": "uint8",
              "name": "debtDecimals",
              "type": "uint8"
            },
            {
              "internalType": "uint256",
              "name": "maxSlippageBps",
              "type": "uint256"
            },
            {
              "internalType": "uint8",
              "name": "numChunks",
              "type": "uint8"
            }
          ],
          "internalType": "struct TransientAutoLeverageTrigger.TriggerParams",
          "name": "params",
          "type": "tuple"
        }
      ],
      "name": "encodeTriggerParams",
      "outputs": [
        {
          "internalType": "bytes",
          "name": "",
          "type": "bytes"
        }
      ],
      "stateMutability": "pure",
      "type": "function"
    },
    {
      "inputs": [
        {
          "internalType": "bytes4",
          "name": "protocolId",
          "type": "bytes4"
        },
        {
          "internalType": "address",
          "name": "owner",
          "type": "address"
        },
        {
          "internalType": "bytes",
          "name": "context",
          "type": "bytes"
        }
      ],
      "name": "getCurrentLtv",
      "outputs": [
        {
          "internalType": "uint256",
          "name": "",
          "type": "uint256"
        }
      ],
      "stateMutability": "view",
      "type": "function"
    },
    {
      "inputs": [],
      "name": "hooksTrampoline",
      "outputs": [
        {
          "internalType": "address",
          "name": "",
          "type": "address"
        }
      ],
      "stateMutability": "view",
      "type": "function"
    },
    {
      "inputs": [
        {
          "internalType": "bytes",
          "name": "",
          "type": "bytes"
        },
        {
          "internalType": "address",
          "name": "",
          "type": "address"
        },
        {
          "internalType": "uint256",
          "name": "",
          "type": "uint256"
        }
      ],
      "name": "isComplete",
      "outputs": [
        {
          "internalType": "bool",
          "name": "",
          "type": "bool"
        }
      ],
      "stateMutability": "pure",
      "type": "function"
    },
    {
      "inputs": [],
      "name": "orderManager",
      "outputs": [
        {
          "internalType": "contract IKapanConditionalOrderManager",
          "name": "",
          "type": "address"
        }
      ],
      "stateMutability": "view",
      "type": "function"
    },
    {
      "inputs": [
        {
          "internalType": "address",
          "name": "user",
          "type": "address"
        },
        {
          "internalType": "bytes32",
          "name": "salt",
          "type": "bytes32"
        }
      ],
      "name": "prepareCacheBySalt",
      "outputs": [],
      "stateMutability": "nonpayable",
      "type": "function"
    },
    {
      "inputs": [],
      "name": "settlement",
      "outputs": [
        {
          "internalType": "address",
          "name": "",
          "type": "address"
        }
      ],
      "stateMutability": "view",
      "type": "function"
    },
    {
      "inputs": [
        {
          "internalType": "bytes",
          "name": "staticData",
          "type": "bytes"
        },
        {
          "internalType": "address",
          "name": "owner",
          "type": "address"
        }
      ],
      "name": "shouldExecute",
      "outputs": [
        {
          "internalType": "bool",
          "name": "",
          "type": "bool"
        },
        {
          "internalType": "string",
          "name": "",
          "type": "string"
        }
      ],
      "stateMutability": "view",
      "type": "function"
    },
    {
      "inputs": [],
      "name": "triggerName",
      "outputs": [
        {
          "internalType": "string",
          "name": "",
          "type": "string"
        }
      ],
      "stateMutability": "pure",
      "type": "function"
    },
    {
      "inputs": [],
      "name": "viewRouter",
      "outputs": [
        {
          "internalType": "contract IKapanViewRouter",
          "name": "",
          "type": "address"
        }
      ],
      "stateMutability": "view",
      "type": "function"
    }
  ],
  "transactionHash": "0x0f9ec458208f65be60979da4ad13bd076289bf5a7fb3fd29bc39a9db831c582c",
  "args": [
    "0x79D4b55a88560d2EaA4CAF15C55139416bc2cb36",
    "0xA1AA1B2985031826750B2d6409AFC38f3B5b22AE",
    "0x60Bf78233f48eC42eE3F101b9a05eC7878728006",
    "0x9008D19f58AAbD9eD0D60971565AA8510560ab41"
  ],
  "numDeployments": 3,
  "solcInputHash": "8143aad6cd4638b740eee582a9de0de3",
  "bytecode": "0x6101003461014557601f6118c338819003918201601f19168301916001600160401b0383118484101761014957808492608094604052833981010312610145576100488161015d565b906100556020820161015d565b61006d60606100666040850161015d565b930161015d565b926001600160a01b031680158015610134575b8015610123575b8015610112575b610103576080526001600160a01b031660a05260c05260e052604051611751908161017282396080518181816103cf015281816105b801528181610ec0015261118d015260a05181818160e101526109c7015260c0518181816104a8015261096c015260e0518181816105740152610e1a0152f35b635435b28960e11b5f5260045ffd5b506001600160a01b0384161561008e565b506001600160a01b03831615610087565b506001600160a01b03821615610080565b5f80fd5b634e487b7160e01b5f52604160045260245ffd5b51906001600160a01b03821682036101455756fe6080806040526004361015610012575f80fd5b5f3560e01c9081631a78ccc11461067a57508063303189b7146106475780633131489f14610625578063321394961461060357806343fc0865146105e75780634f1cb291146105a3578063511606301461055f578063632224a7146104ff57806368c4be25146104d757806381e6d3ce1461049357806390359bcc1461047157806399fec7a01461044f5780639de730851461032c578063b030ddb31461016f578063dd90a891146101145763f9b6117f146100cc575f80fd5b34610110575f366003190112610110576040517f00000000000000000000000000000000000000000000000000000000000000006001600160a01b03168152602090f35b5f80fd5b34610110575f3660031901126101105761016b60405161013560408261079f565b60158152745472616e7369656e744175746f4c6576657261676560581b6020820152604051918291602083526020830190610736565b0390f35b34610110576020366003190112610110576004356001600160401b038111610110576101406003198236030112610110576040516101ac8161076f565b6101b88260040161075a565b815260248201356001600160401b038111610110578201366023820112156101105736600482013591602401916101ee926107dd565b91602082019283526040820190604481013582526060830190606481013582526084810161021b906106af565b6080850190815261022e60a483016106af565b60a0860190815261024160c48401610813565b60c087019081529061025560e48501610813565b9260e0880193845261010088019461010481013586526101240161027890610813565b956101208901968752604051998a9960208b016020905263ffffffff60e01b90511660408b01525160608a0161014090526101808a016102b791610736565b975160808a01525160a0890152516001600160a01b0390811660c089015290511660e08701525160ff90811661010087015290518116610120860152905161014085015290511661016083015203601f1981018252610316908261079f565b6040518091602082526020820161016b91610736565b346101105760603660031901126101105760043563ffffffff60e01b811680910361011057610359610699565b604435906001600160401b03821161011057608461037d60209336906004016106c3565b604051639de7308560e01b815260048101969096526001600160a01b0390931660248601526060604486015260648501839052849283918190848401375f828201840152601f01601f191681010301817f00000000000000000000000000000000000000000000000000000000000000006001600160a01b03165afa8015610444575f90610411575b602090604051908152f35b506020813d60201161043c575b8161042b6020938361079f565b810103126101105760209051610406565b3d915061041e565b6040513d5f823e3d90fd5b34610110575f36600319011261011057604051633028125760e01b8152602090f35b34610110575f36600319011261011057604051633c724fef60e11b8152602090f35b34610110575f366003190112610110576040517f00000000000000000000000000000000000000000000000000000000000000006001600160a01b03168152602090f35b346101105760406104f36104ea366106f0565b92919091610fe8565b82519182526020820152f35b34610110576040366003190112610110576004356001600160401b038111610110576105326105409136906004016106c3565b61053a610699565b91610e7f565b9061016b60405192839215158352604060208401526040830190610736565b34610110575f366003190112610110576040517f00000000000000000000000000000000000000000000000000000000000000006001600160a01b03168152602090f35b34610110575f366003190112610110576040517f00000000000000000000000000000000000000000000000000000000000000006001600160a01b03168152602090f35b34610110576105f5366106f0565b5050505060206040515f8152f35b34610110575f3660031901126101105760405163bbbf88eb60e01b8152602090f35b34610110575f36600319011261011057604051633af167ff60e01b8152602090f35b34610110576040366003190112610110576004356001600160a01b0381168103610110576106789060243590610969565b005b34610110575f366003190112610110576308ee5f0360e31b8152602090f35b602435906001600160a01b038216820361011057565b35906001600160a01b038216820361011057565b9181601f84011215610110578235916001600160401b038311610110576020838186019501011161011057565b606060031982011261011057600435906001600160401b0382116101105761071a916004016106c3565b90916024356001600160a01b0381168103610110579060443590565b805180835260209291819084018484015e5f828201840152601f01601f1916010190565b35906001600160e01b03198216820361011057565b61014081019081106001600160401b0382111761078b57604052565b634e487b7160e01b5f52604160045260245ffd5b601f909101601f19168101906001600160401b0382119082101761078b57604052565b6001600160401b03811161078b57601f01601f191660200190565b9291926107e9826107c2565b916107f7604051938461079f565b829481845281830111610110578281602093845f960137010152565b359060ff8216820361011057565b602081830312610110578035906001600160401b03821161011057016101408183031261011057604051916108558361076f565b61085e8261075a565b835260208201356001600160401b0381116101105782019181601f840112156101105761089761012092846020610906963591016107dd565b602085015260408101356040850152606081013560608501526108bc608082016106af565b60808501526108cd60a082016106af565b60a08501526108de60c08201610813565b60c08501526108ef60e08201610813565b60e085015261010081013561010085015201610813565b61012082015290565b51906001600160a01b038216820361011057565b81601f820112156101105780519061093a826107c2565b92610948604051948561079f565b8284526020838301011161011057815f9260208093018386015e8301015290565b337f00000000000000000000000000000000000000000000000000000000000000006001600160a01b0316141580610e16575b610e07576040516367525a1b60e11b81526001600160a01b03918216600482015260248101929092527f00000000000000000000000000000000000000000000000000000000000000001690602081604481855afa908115610444575f91610dd5575b508015610dd1575f90602460405180948193632bbc239560e11b835260048301525afa908115610444575f91610c27575b5060208101516004811015610c13575f1901610c105780516040810151905181519192918301906001600160a01b03166020848303126101105760208401516001600160401b038111610110578401906101408284031261011057604051610a978161076f565b60208301516001600160e01b0319811681036101105781526040830151936001600160401b03851161011057610140610b5d94610ae2610b7697602080610b52960191840101610923565b60208501526060810151604085015260808101516060850152610b0760a0820161090f565b6080850152610b1860c0820161090f565b60a0850152610b2960e082016110ba565b60c0850152610b3b61010082016110ba565b60e0850152610120810151610100850152016110ba565b610120820152611175565b939092604060018060a01b0382515116910151916110c8565b9060405160208101905f5160206116fc5f395f51905f52825283604082015260408152610ba460608261079f565b51902091600160405160208101905f5160206116bc5f395f51905f52825283604082015260408152610bd760608261079f565b5190209160405160208101915f5160206116dc5f395f51905f528352604082015260408152610c0760608261079f565b519020935d5d5d565b50565b634e487b7160e01b5f52602160045260245ffd5b90503d805f833e610c38818361079f565b810190602081830312610110578051906001600160401b03821161011057016080818303126101105760405191608083016001600160401b0381118482101761078b5760405281516001600160401b0381116101105782019061016082820312610110576040519161016083016001600160401b0381118482101761078b57604052610cc38161090f565b8352610cd16020820161090f565b602084015260408101516001600160401b0381116101105782610cf5918301610923565b604084015260608101516001600160401b0381116101105782610d19918301610923565b6060840152610d2a6080820161090f565b6080840152610d3b60a0820161090f565b60a084015260c08101516001600160401b0381116101105761014092610d62918301610923565b60c084015260e081015160e0840152610100810151610100840152610d8a610120820161090f565b61012084015201518015158103610110576101408201528252602081015190600482101561011057606091602084015260408101516040840152015160608201525f610a30565b5050565b90506020813d602011610dff575b81610df06020938361079f565b8101031261011057515f6109ff565b3d9150610de3565b6307fcce5360e01b5f5260045ffd5b50337f00000000000000000000000000000000000000000000000000000000000000006001600160a01b0316141561099c565b6001600160e01b031990911681526001600160a01b039091166020820152606060408201819052610e7c92910190610736565b90565b610e8b91810190610821565b602063ffffffff60e01b825116928183015193610ebc6040519586938493639de7308560e01b855260048501610e49565b03817f00000000000000000000000000000000000000000000000000000000000000006001600160a01b03165afa918215610444575f92610fb4575b508115610f87576040015111610f3b575f90604051610f1860408261079f565b60138152721315158818589bdd99481d1a1c995cda1bdb19606a1b602082015290565b600190604051610f4c60608261079f565b602581527f4c54562062656c6f77207468726573686f6c64202d20756e6465722d6c6576656020820152641c9859d95960da1b604082015290565b50505f90604051610f9960408261079f565b600b81526a2737903837b9b4ba34b7b760a91b602082015290565b9091506020813d602011610fe0575b81610fd06020938361079f565b810103126101105751905f610ef8565b3d9150610fc3565b9392610fff9083610ffa3685896107dd565b6110c8565b60405160208101905f5160206116fc5f395f51905f5282528260408201526040815261102c60608261079f565b5190205c61104f5750836110469161104b94950190610821565b611175565b9091565b9350505060405160208101905f5160206116bc5f395f51905f5282528360408201526040815261108060608261079f565b5190209160405160208101915f5160206116dc5f395f51905f5283526040820152604081526110b060608261079f565b519020915c915c90565b519060ff8216820361011057565b9161110c906040519283916110e96020840196606088526080850190610736565b6001600160a01b039092166040840152606083015203601f19810183528261079f565b51902090565b8181029291811591840414171561112557565b634e487b7160e01b5f52601160045260245ffd5b8115611143570490565b634e487b7160e01b5f52601260045260245ffd5b9190820391821161112557565b60ff16604d811161112557600a0a90565b8051602082018051604080516326a9d0f960e21b81527f00000000000000000000000000000000000000000000000000000000000000006001600160a01b03169796939490939192849283926111da9291906001600160e01b03191660048501610e49565b0381885afa8015610444575f915f91611624575b50811561160a5761271081028181046127101482151715611125578261121391611139565b916060850192835180911015611616576127109161123091611112565b04818111156115b0579061124391611157565b90518061271003906127108211611125576127101461160a5761271082029180830461271014901517156111255761127a91611139565b825160a08401518351604051630ee9078360e01b81529397939492602092869283926112bd926001600160a01b0316906001600160e01b03191660048501610e49565b0381855afa928315610444575f936115d6575b506112f5836112f060e08701986112ea60ff8b5116611164565b90611112565b611139565b61012085015160ff1680156115cc5760ff905b16600181116115bd575b5080156115b0576113289060ff8851169061165d565b9586156115b05784515f94906001600160e01b031916633028125760e01b81036114d257505050519060a082805181010312610110576040519060a082016001600160401b0381118382101761078b5760209260a49160405261138c84860161090f565b815261139a6040860161090f565b928482019384526113ad6060870161090f565b956040830196875260a06113c36080830161090f565b606085019081529101516080840190815260405163168be4db60e01b815293516001600160a01b03908116600486015295518616602485015296518516604484015251909316606482015293516084850152839182905afa908115610444575f916114a0575b5080611469575b50611447610100915b60ff60c0850151169061165d565b91015161271003906127108211611125576127109161146591611112565b0490565b6a0c097ce7bc90715b34b9f160241b85810292508583041485151715611125576114996114479161010093611139565b9150611430565b90506020813d6020116114ca575b816114bb6020938361079f565b8101031261011057515f611429565b3d91506114ae565b6020919295946115099460018060a01b0360808a01511690519260405196879485938493630794e50360e01b855260048501610e49565b03915afa918215610444575f92611574575b509281610100946114479493611534575b505050611439565b61156c935061155e61154f611566936112f060ff948d611112565b6112ea8360c08b015116611164565b925116611164565b90611139565b5f808061152c565b929150926020833d6020116115a8575b816115916020938361079f565b81010312610110579151919290919061010061151b565b3d9150611584565b505050505090505f905f90565b6115c691611139565b5f611312565b5060ff6001611308565b9092506020813d602011611602575b816115f26020938361079f565b810103126101105751915f6112d0565b3d91506115e5565b5050505090505f905f90565b50505050505090505f905f90565b9150506040813d604011611655575b816116406040938361079f565b8101031261011057602081519101515f6111ee565b3d9150611633565b9060ff1660048111156116b75761167f90600c81111561169e57600590611157565b90604d821161112557611699610e7c92600a0a8092611139565b611112565b60068111156116af57600690611157565b600490611157565b509056fe4a9f767ef3151c24333be1ccc70b60ee436dcdeb109648329a6fd6bb2389b502ff65702a93c84302446049e062631ff3928a69efbaf36d10c8db30b0724524e23b71b545389465b8d0b2b740be9a2536024e39260192c5c92178e6396d26d65da264697066735822122004aaaf5f1cc93c95f6f2472ca9d948d78cb8b90accc910a6f2ae1d25bf99876164736f6c634300081e0033",
  "devdoc": {
    "kind": "dev",
    "methods": {
      "calculateExecution(bytes,address,uint256)": {
        "details": "Tries the transient cache first; falls back to live computation. Both paths      converge on the same answer when called within the same block — the cache only      meaningfully diverges from live when the pre-hook has mutated state, which is      exactly when we need it.",
        "params": {
          "iterationCount": "Number of executions completed so far (for chunked orders)",
          "owner": "The order owner",
          "staticData": "ABI-encoded trigger-specific parameters"
        },
        "returns": {
          "minBuyAmount": "Minimum amount to receive (includes slippage protection)",
          "sellAmount": "Amount of sell token to trade in this execution"
        }
      },
      "isComplete(bytes,address,uint256)": {
        "details": "Called after each execution to determine if order should be marked complete",
        "params": {
          "iterationCount": "Number of executions completed so far",
          "owner": "The order owner",
          "staticData": "ABI-encoded trigger-specific parameters"
        },
        "returns": {
          "_0": "True if the order goal has been reached"
        }
      },
      "prepareCacheBySalt(address,bytes32)": {
        "details": "Salt-based lookup (not orderHash) because at appData-signing time the orderHash         isn't known — it includes `block.timestamp` from inside `createOrder`. Salt is         user-chosen and known up front, so `prepareCacheBySalt(user, salt)` calldata is         signable. Restricted to the CoW hooks trampoline so arbitrary callers can't         poison the cache."
      },
      "shouldExecute(bytes,address)": {
        "details": "Reads live LTV — same semantics as AutoLeverageTrigger.",
        "params": {
          "owner": "The order owner (user whose position is being monitored)",
          "staticData": "ABI-encoded trigger-specific parameters"
        },
        "returns": {
          "_0": "True if the trigger condition is met",
          "_1": "Human-readable reason for the result (for debugging/logging)"
        }
      },
      "triggerName()": {
        "returns": {
          "_0": "Trigger name (e.g., \"LTV\", \"Price\", \"HealthFactor\")"
        }
      }
    },
    "title": "TransientAutoLeverageTrigger",
    "version": 1
  },
  "userdoc": {
    "kind": "user",
    "methods": {
      "calculateExecution(bytes,address,uint256)": {
        "notice": "Calculate the execution amounts when the trigger fires"
      },
      "isComplete(bytes,address,uint256)": {
        "notice": "Check if the order is complete and should stop executing"
      },
      "prepareCacheBySalt(address,bytes32)": {
        "notice": "Snapshot the live `calculateExecution` output for the order owned by `user`         with `salt` into transient storage. Must be invoked as a CoW pre-interaction         BEFORE the manager pre-hook executes."
      },
      "settlement()": {
        "notice": "GPv2Settlement contract. Permitted as a `prepareCacheBySalt` caller in addition         to the HooksTrampoline because the CoW orderbook's balance simulation         (Balances.sol, invoked via `simulateDelegatecall` from Settlement) executes         appData pre-interactions with `msg.sender == address(settlement)` — bypassing         the trampoline. Allowing Settlement here lets the simulator successfully         populate the transient cache so downstream hooks behave consistently."
      },
      "shouldExecute(bytes,address)": {
        "notice": "Check if the order should execute based on current conditions"
      },
      "triggerName()": {
        "notice": "Get human-readable name of the trigger type"
      }
    },
    "notice": "Self-caching auto-leverage trigger. Same external semantics as `AutoLeverageTrigger`         (LTV-gated firing, dynamic per-iteration amounts based on live state) but stable         under state-mutating preInstructions thanks to a trigger-internal transient cache. Why --- CoW's settle phases are fixed: pre-interactions run before sig validation, post-interactions after. For protocols whose AL flow needs to mutate position state in the manager pre-hook (e.g. Alchemix V3: deposit USDC + mint alAsset BEFORE CoW takes the sellToken), the on-chain `calculateExecution` called inside `manager.isValidSignature` reads post-mutation state and returns numbers that diverge from what the off-chain WatchTower signed → manager's `_orderMatches` (1% tolerance) rejects → settlement reverts. This trigger fixes it without touching the manager: it exposes a `prepareCache(orderHash)` entry point invoked as a separate CoW pre-interaction by the hooks trampoline. That call runs BEFORE the manager pre-hook (and therefore before any state mutation), reads the order's params from the manager, runs the live computation, and stashes (sellAmount, minBuyAmount) in transient storage keyed by `(staticData, owner, iter)`. The view-only `calculateExecution` (called both by the manager's pre-hook and by the handler's sig-check path) reads the cache when present and falls back to live computation otherwise. Multi-iteration orders work transparently: each iteration's `prepareCache` re-reads fresh chain state and writes a fresh cache entry. Transient storage auto-clears at tx end so nothing leaks across transactions or across off-chain WatchTower polls. Security -------- - `prepareCache` is gated to the CoW HooksTrampoline OR the GPv2Settlement contract.   Settlement is allowed because the orderbook's balance simulation runs appData hooks   with `msg.sender == settlement` (delegatecall from Balances.sol). Both callers are   trusted CoW infrastructure; arbitrary EOAs/contracts still can't poison the cache. - The cache key includes the full `staticData`, `owner`, and `iterationCount`, so distinct   orders / users / iterations get isolated transient slots — no cross-pollution possible   even when multiple orders settle in one batch. - The view-only `calculateExecution` can `tload` the cache (allowed under STATICCALL) but   cannot write to it. - Transient storage is per-transaction — cannot be replayed. - The on-chain order's params are read from the manager via `getOrder(orderHash)`, which   is the same source the manager itself uses, so cache content can never disagree with   what `manager.calculateExecution` would compute against the same chain state. Frontend integration -------------------- The order's CoW appData needs to include THREE pre-interactions in this exact order:   [0] adapter.fundOrderWithBalance(user, salt, flashToken, router)   — flash funding   [1] trigger.prepareCacheBySalt(user, salt)                          — THIS contract   [2] manager.executePreHookBySalt(user, salt)                        — manager pre-hook The trigger MUST come before the manager pre-hook so the cache is populated before preInstructions mutate state.",
    "version": 1
  },
  "storageLayout": {
    "storage": [],
    "types": null
  }
}