{
  "address": "0xB1A4eEa47260f6E084b651D5Bc795145dB860705",
  "abi": [
    {
      "inputs": [
        {
          "internalType": "address[]",
          "name": "tokens",
          "type": "address[]"
        }
      ],
      "name": "getDecimals",
      "outputs": [
        {
          "internalType": "uint256[]",
          "name": "",
          "type": "uint256[]"
        }
      ],
      "stateMutability": "view",
      "type": "function"
    }
  ],
  "transactionHash": "0xd943dc63abb3350ce1067d53115a1f6eaa73d791703d366369b4a6fd729ccd6e",
  "args": [],
  "numDeployments": 4,
  "solcInputHash": "d17a2f8b565ece4e58234c4faa5435d0",
  "bytecode": "0x6080604052348015600e575f5ffd5b506102bc8061001c5f395ff3fe608060405234801561000f575f5ffd5b5060043610610029575f3560e01c8063a826c1141461002d575b5f5ffd5b61004061003b36600461015e565b610056565b60405161004d91906101cf565b60405180910390f35b60605f8267ffffffffffffffff81111561007257610072610211565b60405190808252806020026020018201604052801561009b578160200160208202803683370190505b5090505f5b83811015610156578484828181106100ba576100ba610225565b90506020020160208101906100cf9190610239565b6001600160a01b031663313ce5676040518163ffffffff1660e01b8152600401602060405180830381865afa15801561010a573d5f5f3e3d5ffd5b505050506040513d601f19601f8201168201806040525081019061012e9190610266565b60ff1682828151811061014357610143610225565b60209081029190910101526001016100a0565b509392505050565b5f5f6020838503121561016f575f5ffd5b823567ffffffffffffffff811115610185575f5ffd5b8301601f81018513610195575f5ffd5b803567ffffffffffffffff8111156101ab575f5ffd5b8560208260051b84010111156101bf575f5ffd5b6020919091019590945092505050565b602080825282518282018190525f918401906040840190835b818110156102065783518352602093840193909201916001016101e8565b509095945050505050565b634e487b7160e01b5f52604160045260245ffd5b634e487b7160e01b5f52603260045260245ffd5b5f60208284031215610249575f5ffd5b81356001600160a01b038116811461025f575f5ffd5b9392505050565b5f60208284031215610276575f5ffd5b815160ff8116811461025f575f5ffdfea26469706673582212207641bd32c3affe28b75cbde1a3d7e02045d9fb19d7ebd2b6c8594a7c1076438364736f6c634300081e0033",
  "devdoc": {
    "kind": "dev",
    "methods": {},
    "version": 1
  },
  "userdoc": {
    "kind": "user",
    "methods": {},
    "version": 1
  },
  "storageLayout": {
    "storage": [],
    "types": null
  }
}