{
  "address": "0x86045DF29c3534e2cb730167e4B7Bf76be8C5c6b",
  "abi": [
    {
      "inputs": [
        {
          "internalType": "address[]",
          "name": "tokens",
          "type": "address[]"
        }
      ],
      "name": "getDecimals",
      "outputs": [
        {
          "internalType": "uint256[]",
          "name": "",
          "type": "uint256[]"
        }
      ],
      "stateMutability": "view",
      "type": "function"
    }
  ],
  "transactionHash": "0x43858d89e4e52ecb2dc03567eac8df1daa6ece4fae029b28341950517599165c",
  "args": [],
  "numDeployments": 1,
  "solcInputHash": "9ae058df07235a472c7f2bdbe92a4459",
  "bytecode": "0x608060405234801561001057600080fd5b50610304806100206000396000f3fe608060405234801561001057600080fd5b506004361061002b5760003560e01c8063a826c11414610030575b600080fd5b61004361003e36600461016f565b610059565b60405161005091906101e4565b60405180910390f35b606060008267ffffffffffffffff81111561007657610076610228565b60405190808252806020026020018201604052801561009f578160200160208202803683370190505b50905060005b83811015610167578484828181106100bf576100bf61023e565b90506020020160208101906100d49190610254565b6001600160a01b031663313ce5676040518163ffffffff1660e01b8152600401602060405180830381865afa158015610111573d6000803e3d6000fd5b505050506040513d601f19601f820116820180604052508101906101359190610284565b60ff1682828151811061014a5761014a61023e565b60209081029190910101528061015f816102a7565b9150506100a5565b509392505050565b6000806020838503121561018257600080fd5b823567ffffffffffffffff8082111561019a57600080fd5b818501915085601f8301126101ae57600080fd5b8135818111156101bd57600080fd5b8660208260051b85010111156101d257600080fd5b60209290920196919550909350505050565b6020808252825182820181905260009190848201906040850190845b8181101561021c57835183529284019291840191600101610200565b50909695505050505050565b634e487b7160e01b600052604160045260246000fd5b634e487b7160e01b600052603260045260246000fd5b60006020828403121561026657600080fd5b81356001600160a01b038116811461027d57600080fd5b9392505050565b60006020828403121561029657600080fd5b815160ff8116811461027d57600080fd5b6000600182016102c757634e487b7160e01b600052601160045260246000fd5b506001019056fea26469706673582212201a1df631fda4444d1b84deae9fb740fea6848ca50be79a75819f2e2c85a880b864736f6c63430008140033",
  "devdoc": {
    "kind": "dev",
    "methods": {},
    "version": 1
  },
  "userdoc": {
    "kind": "user",
    "methods": {},
    "version": 1
  },
  "storageLayout": {
    "storage": [],
    "types": null
  }
}