{
  "address": "0x8ea13311f4dB447381addfEC4AF52107F70E60FA",
  "abi": [
    {
      "inputs": [
        {
          "internalType": "address",
          "name": "_comptroller",
          "type": "address"
        },
        {
          "internalType": "address",
          "name": "router",
          "type": "address"
        },
        {
          "internalType": "address",
          "name": "owner_",
          "type": "address"
        }
      ],
      "stateMutability": "nonpayable",
      "type": "constructor"
    },
    {
      "inputs": [
        {
          "internalType": "address",
          "name": "target",
          "type": "address"
        }
      ],
      "name": "AddressEmptyCode",
      "type": "error"
    },
    {
      "inputs": [
        {
          "internalType": "address",
          "name": "account",
          "type": "address"
        }
      ],
      "name": "AddressInsufficientBalance",
      "type": "error"
    },
    {
      "inputs": [],
      "name": "FailedInnerCall",
      "type": "error"
    },
    {
      "inputs": [
        {
          "internalType": "address",
          "name": "owner",
          "type": "address"
        }
      ],
      "name": "OwnableInvalidOwner",
      "type": "error"
    },
    {
      "inputs": [
        {
          "internalType": "address",
          "name": "account",
          "type": "address"
        }
      ],
      "name": "OwnableUnauthorizedAccount",
      "type": "error"
    },
    {
      "inputs": [],
      "name": "ReentrancyGuardReentrantCall",
      "type": "error"
    },
    {
      "inputs": [
        {
          "internalType": "address",
          "name": "token",
          "type": "address"
        }
      ],
      "name": "SafeERC20FailedOperation",
      "type": "error"
    },
    {
      "anonymous": false,
      "inputs": [
        {
          "indexed": true,
          "internalType": "address",
          "name": "previousOwner",
          "type": "address"
        },
        {
          "indexed": true,
          "internalType": "address",
          "name": "newOwner",
          "type": "address"
        }
      ],
      "name": "OwnershipTransferred",
      "type": "event"
    },
    {
      "inputs": [],
      "name": "ROUTER",
      "outputs": [
        {
          "internalType": "address",
          "name": "",
          "type": "address"
        }
      ],
      "stateMutability": "view",
      "type": "function"
    },
    {
      "inputs": [
        {
          "components": [
            {
              "internalType": "enum ProtocolTypes.LendingOp",
              "name": "op",
              "type": "uint8"
            },
            {
              "internalType": "address",
              "name": "token",
              "type": "address"
            },
            {
              "internalType": "address",
              "name": "user",
              "type": "address"
            },
            {
              "internalType": "uint256",
              "name": "amount",
              "type": "uint256"
            },
            {
              "internalType": "bytes",
              "name": "context",
              "type": "bytes"
            },
            {
              "components": [
                {
                  "internalType": "uint256",
                  "name": "index",
                  "type": "uint256"
                }
              ],
              "internalType": "struct ProtocolTypes.InputPtr",
              "name": "input",
              "type": "tuple"
            }
          ],
          "internalType": "struct ProtocolTypes.LendingInstruction[]",
          "name": "instrs",
          "type": "tuple[]"
        },
        {
          "internalType": "address",
          "name": "",
          "type": "address"
        }
      ],
      "name": "authorize",
      "outputs": [
        {
          "internalType": "address[]",
          "name": "targets",
          "type": "address[]"
        },
        {
          "internalType": "bytes[]",
          "name": "data",
          "type": "bytes[]"
        }
      ],
      "stateMutability": "view",
      "type": "function"
    },
    {
      "inputs": [
        {
          "internalType": "address",
          "name": "token",
          "type": "address"
        },
        {
          "internalType": "address",
          "name": "user",
          "type": "address"
        },
        {
          "internalType": "uint256",
          "name": "amount",
          "type": "uint256"
        }
      ],
      "name": "borrow",
      "outputs": [],
      "stateMutability": "nonpayable",
      "type": "function"
    },
    {
      "inputs": [],
      "name": "comptroller",
      "outputs": [
        {
          "internalType": "contract ComptrollerInterface",
          "name": "",
          "type": "address"
        }
      ],
      "stateMutability": "view",
      "type": "function"
    },
    {
      "inputs": [
        {
          "internalType": "address",
          "name": "token",
          "type": "address"
        },
        {
          "internalType": "address",
          "name": "user",
          "type": "address"
        },
        {
          "internalType": "uint256",
          "name": "amount",
          "type": "uint256"
        }
      ],
      "name": "deposit",
      "outputs": [],
      "stateMutability": "nonpayable",
      "type": "function"
    },
    {
      "inputs": [],
      "name": "owner",
      "outputs": [
        {
          "internalType": "address",
          "name": "",
          "type": "address"
        }
      ],
      "stateMutability": "view",
      "type": "function"
    },
    {
      "inputs": [
        {
          "components": [
            {
              "internalType": "address",
              "name": "token",
              "type": "address"
            },
            {
              "internalType": "uint256",
              "name": "amount",
              "type": "uint256"
            }
          ],
          "internalType": "struct ProtocolTypes.Output[]",
          "name": "inputs",
          "type": "tuple[]"
        },
        {
          "internalType": "bytes",
          "name": "data",
          "type": "bytes"
        }
      ],
      "name": "processLendingInstruction",
      "outputs": [
        {
          "components": [
            {
              "internalType": "address",
              "name": "token",
              "type": "address"
            },
            {
              "internalType": "uint256",
              "name": "amount",
              "type": "uint256"
            }
          ],
          "internalType": "struct ProtocolTypes.Output[]",
          "name": "outputs",
          "type": "tuple[]"
        }
      ],
      "stateMutability": "nonpayable",
      "type": "function"
    },
    {
      "inputs": [],
      "name": "renounceOwnership",
      "outputs": [],
      "stateMutability": "nonpayable",
      "type": "function"
    },
    {
      "inputs": [
        {
          "internalType": "address",
          "name": "token",
          "type": "address"
        },
        {
          "internalType": "address",
          "name": "user",
          "type": "address"
        },
        {
          "internalType": "uint256",
          "name": "amount",
          "type": "uint256"
        }
      ],
      "name": "repay",
      "outputs": [
        {
          "internalType": "uint256",
          "name": "refund",
          "type": "uint256"
        }
      ],
      "stateMutability": "nonpayable",
      "type": "function"
    },
    {
      "inputs": [
        {
          "internalType": "address",
          "name": "_comptroller",
          "type": "address"
        }
      ],
      "name": "setComptroller",
      "outputs": [],
      "stateMutability": "nonpayable",
      "type": "function"
    },
    {
      "inputs": [
        {
          "internalType": "address",
          "name": "newOwner",
          "type": "address"
        }
      ],
      "name": "transferOwnership",
      "outputs": [],
      "stateMutability": "nonpayable",
      "type": "function"
    },
    {
      "inputs": [
        {
          "internalType": "address",
          "name": "collateral",
          "type": "address"
        },
        {
          "internalType": "address",
          "name": "user",
          "type": "address"
        },
        {
          "internalType": "uint256",
          "name": "underlyingAmount",
          "type": "uint256"
        }
      ],
      "name": "withdrawCollateral",
      "outputs": [
        {
          "internalType": "address",
          "name": "",
          "type": "address"
        },
        {
          "internalType": "uint256",
          "name": "",
          "type": "uint256"
        }
      ],
      "stateMutability": "nonpayable",
      "type": "function"
    }
  ],
  "transactionHash": "0xdda4703d929b9ca27bcbf75b51002168f23999f6d6cbb5d50b84c25a894df052",
  "args": [
    "0x317c1A5739F39046E20b08ac9BeEa3f10fD43326",
    "0x57DED814D09754d163060B4Fc36823F7742DA83b",
    "0x0BE61223F99E57b8b8B7033a77B54Adc7f7cF027"
  ],
  "numDeployments": 2,
  "solcInputHash": "a79b2c7bfddfb2ac3f4b2ee0ead0a3f2",
  "bytecode": "0x60a060405234801561000f575f5ffd5b5060405161272c38038061272c83398101604081905261002e91610159565b80826001600160a01b03811661008b5760405162461bcd60e51b815260206004820152601d60248201527f526f7574657220616464726573732063616e6e6f74206265207a65726f00000060448201526064015b60405180910390fd5b6001600160a01b0390811660805281166100ba57604051631e4fbdf760e01b81525f6004820152602401610082565b6100c3816100ef565b50506001805550600280546001600160a01b0319166001600160a01b0392909216919091179055610199565b5f80546001600160a01b038381166001600160a01b0319831681178455604051919092169283917f8be0079c531659141344cd1fd0a4f28419497f9722a3daafe3b4186f6b6457e09190a35050565b80516001600160a01b0381168114610154575f5ffd5b919050565b5f5f5f6060848603121561016b575f5ffd5b6101748461013e565b92506101826020850161013e565b91506101906040850161013e565b90509250925092565b60805161255f6101cd5f395f8181610126015281816108c701528181610c1701528181610eac0152611039015261255f5ff3fe608060405234801561000f575f5ffd5b50600436106100b1575f3560e01c8063715018a61161006e578063715018a6146101885780638340f549146101905780638bad38dd146101a35780638da5cb5b146101b6578063ae4be46d146101c6578063f2fde38b146101e6575f5ffd5b806317c2a46b146100b55780631da649cf146100df5780632ae8bdfe1461010057806332fe7b26146101215780635224372c146101605780635fe3b56714610175575b5f5ffd5b6100c86100c3366004611e46565b6101f9565b6040516100d6929190611f09565b60405180910390f35b6100f26100ed366004611f9e565b6108bb565b6040519081526020016100d6565b61011361010e366004611f9e565b610c09565b6040516100d6929190611fdc565b6101487f000000000000000000000000000000000000000000000000000000000000000081565b6040516001600160a01b0390911681526020016100d6565b61017361016e366004611f9e565b610ea0565b005b600254610148906001600160a01b031681565b61017361101b565b61017361019e366004611f9e565b61102e565b6101736101b1366004611ff5565b611382565b5f546001600160a01b0316610148565b6101d96101d4366004612054565b6113ac565b6040516100d691906120ec565b6101736101f4366004611ff5565b6119a1565b6060805f5f5b8581101561032f573687878381811061021a5761021a612143565b905060200281019061022c9190612157565b90505f61023c602083018361219c565b600681111561024d5761024d612175565b148061027657506004610263602083018361219c565b600681111561027457610274612175565b145b1561028d5782610285816121c9565b935050610326565b600161029c602083018361219c565b60068111156102ad576102ad612175565b036102c4576102bd6002846121e1565b9250610326565b60026102d3602083018361219c565b60068111156102e4576102e4612175565b036102f35782610285816121c9565b6003610302602083018361219c565b600681111561031357610313612175565b036103265782610322816121c9565b9350505b506001016101ff565b50806001600160401b03811115610348576103486121f4565b604051908082528060200260200182016040528015610371578160200160208202803683370190505b509250806001600160401b0381111561038c5761038c6121f4565b6040519080825280602002602001820160405280156103bf57816020015b60608152602001906001900390816103aa5790505b5091505f5f5b868110156108b057368888838181106103e0576103e0612143565b90506020028101906103f29190612157565b90505f610402602083018361219c565b600681111561041357610413612175565b148061043c57506004610429602083018361219c565b600681111561043a5761043a612175565b145b156104fe576104516040820160208301611ff5565b86848151811061046357610463612143565b6001600160a01b039092166020928302919091019091015260405163095ea7b360e01b9061049b903090606085013590602401611fdc565b604051602081830303815290604052906001600160e01b0319166020820180516001600160e01b0383818316178352505050508584815181106104e0576104e0612143565b602002602001018190525082806104f6906121c9565b9350506108a7565b600161050d602083018361219c565b600681111561051e5761051e612175565b036106e8575f6105346040830160208401611ff5565b90505f610540826119de565b90508188868151811061055557610555612143565b6001600160a01b039092166020928302919091019091015260405163095ea7b360e01b9061058d903090606087013590602401611fdc565b604051602081830303815290604052906001600160e01b0319166020820180516001600160e01b0383818316178352505050508786815181106105d2576105d2612143565b602002602001018190525084806105e8906121c9565b6040805160018082528183019092529197505f92506020808301908036833701905050905081815f8151811061062057610620612143565b6001600160a01b0392831660209182029290920101526002548a519116908a908890811061065057610650612143565b6001600160a01b0390921660209283029190910190910152604051631853304760e31b90610682908390602401612208565b604051602081830303815290604052906001600160e01b0319166020820180516001600160e01b0383818316178352505050508887815181106106c7576106c7612143565b602002602001018190525085806106dd906121c9565b9650505050506108a7565b60026106f7602083018361219c565b600681111561070857610708612175565b036107d9575f61071e6040830160208401611ff5565b90505f61072a826119de565b90508088868151811061073f5761073f612143565b6001600160a01b039092166020928302919091019091015260405163095ea7b360e01b906107749030905f1990602401611fdc565b604051602081830303815290604052906001600160e01b0319166020820180516001600160e01b0383818316178352505050508786815181106107b9576107b9612143565b602002602001018190525084806107cf906121c9565b95505050506108a7565b60036107e8602083018361219c565b60068111156107f9576107f9612175565b036108a75760025486516001600160a01b039091169087908590811061082157610821612143565b6001600160a01b039290921660209283029190910182015260408051306024820152600160448083019190915282518083039091018152606490910190915290810180516001600160e01b031663ddbf54fd60e01b179052855186908590811061088d5761088d612143565b602002602001018190525082806108a3906121c9565b9350505b506001016103c5565b505050935093915050565b5f336001600160a01b037f000000000000000000000000000000000000000000000000000000000000000016146109305760405162461bcd60e51b815260206004820152601460248201527313db9b1e481c9bdd5d195c8818d85b8818d85b1b60621b60448201526064015b60405180910390fd5b610938611b6b565b5f610942856119de565b6040516370a0823160e01b81523060048201529091505f906001600160a01b038716906370a0823190602401602060405180830381865afa158015610989573d5f5f3e3d5ffd5b505050506040513d601f19601f820116820180604052508101906109ad919061221a565b90506109c46001600160a01b038716333087611b95565b60405163095ea7b360e01b81526001600160a01b0387169063095ea7b3906109f29085905f90600401611fdc565b6020604051808303815f875af1158015610a0e573d5f5f3e3d5ffd5b505050506040513d601f19601f82011682018060405250810190610a329190612231565b5060405163095ea7b360e01b81526001600160a01b0387169063095ea7b390610a619085908890600401611fdc565b6020604051808303815f875af1158015610a7d573d5f5f3e3d5ffd5b505050506040513d601f19601f82011682018060405250810190610aa19190612231565b506040516304c11f0360e31b81525f906001600160a01b03841690632608f81890610ad29089908990600401611fdc565b6020604051808303815f875af1158015610aee573d5f5f3e3d5ffd5b505050506040513d601f19601f82011682018060405250810190610b12919061221a565b90508015610b585760405162461bcd60e51b815260206004820152601360248201527215995b9d5cce881c995c185e4819985a5b1959606a1b6044820152606401610927565b6040516370a0823160e01b81523060048201525f906001600160a01b038916906370a0823190602401602060405180830381865afa158015610b9c573d5f5f3e3d5ffd5b505050506040513d601f19601f82011682018060405250810190610bc0919061221a565b9050828111610bcf575f610bd9565b610bd98382612250565b94508415610bf557610bf56001600160a01b0389163387611bfc565b50505050610c0260018055565b9392505050565b5f8083336001600160a01b037f0000000000000000000000000000000000000000000000000000000000000000161480610c4b5750336001600160a01b038216145b610c975760405162461bcd60e51b815260206004820152601c60248201527f4f6e6c7920726f75746572206f722073656c662063616e2063616c6c000000006044820152606401610927565b610c9f611b6b565b5f610ca9876119de565b90505f816001600160a01b031663bd6d894d6040518163ffffffff1660e01b81526004016020604051808303815f875af1158015610ce9573d5f5f3e3d5ffd5b505050506040513d601f19601f82011682018060405250810190610d0d919061221a565b90505f81600181610d268a670de0b6b3a7640000612263565b610d3091906121e1565b610d3a9190612250565b610d44919061227a565b6040516323b872dd60e01b81526001600160a01b038a8116600483015230602483015260448201839052919250908416906323b872dd906064016020604051808303815f875af1158015610d9a573d5f5f3e3d5ffd5b505050506040513d601f19601f82011682018060405250810190610dbe9190612231565b5060405163db006a7560e01b8152600481018290525f906001600160a01b0385169063db006a75906024016020604051808303815f875af1158015610e05573d5f5f3e3d5ffd5b505050506040513d601f19601f82011682018060405250810190610e29919061221a565b90508015610e705760405162461bcd60e51b815260206004820152601460248201527315995b9d5cce881c995919595b4819985a5b195960621b6044820152606401610927565b610e846001600160a01b038b16338a611bfc565b89889650965050505050610e9760018055565b50935093915050565b81336001600160a01b037f0000000000000000000000000000000000000000000000000000000000000000161480610ee05750336001600160a01b038216145b610f2c5760405162461bcd60e51b815260206004820152601c60248201527f4f6e6c7920726f75746572206f722073656c662063616e2063616c6c000000006044820152606401610927565b610f34611b6b565b5f610f3e856119de565b90505f816001600160a01b031663856e5bb386866040518363ffffffff1660e01b8152600401610f6f929190611fdc565b6020604051808303815f875af1158015610f8b573d5f5f3e3d5ffd5b505050506040513d601f19601f82011682018060405250810190610faf919061221a565b90508015610ff65760405162461bcd60e51b815260206004820152601460248201527315995b9d5cce88189bdc9c9bddc819985a5b195960621b6044820152606401610927565b61100a6001600160a01b0387163386611bfc565b505061101560018055565b50505050565b611023611c22565b61102c5f611c4e565b565b336001600160a01b037f0000000000000000000000000000000000000000000000000000000000000000161461109d5760405162461bcd60e51b815260206004820152601460248201527313db9b1e481c9bdd5d195c8818d85b8818d85b1b60621b6044820152606401610927565b6110a5611b6b565b5f6110af846119de565b90506110c66001600160a01b038516333085611b95565b60405163095ea7b360e01b81526001600160a01b0385169063095ea7b3906110f49084905f90600401611fdc565b6020604051808303815f875af1158015611110573d5f5f3e3d5ffd5b505050506040513d601f19601f820116820180604052508101906111349190612231565b5060405163095ea7b360e01b81526001600160a01b0385169063095ea7b3906111639084908690600401611fdc565b6020604051808303815f875af115801561117f573d5f5f3e3d5ffd5b505050506040513d601f19601f820116820180604052508101906111a39190612231565b5060405163140e25ad60e31b8152600481018390525f906001600160a01b0383169063a0712d68906024016020604051808303815f875af11580156111ea573d5f5f3e3d5ffd5b505050506040513d601f19601f8201168201806040525081019061120e919061221a565b905080156112535760405162461bcd60e51b815260206004820152601260248201527115995b9d5cce881b5a5b9d0819985a5b195960721b6044820152606401610927565b6040516370a0823160e01b81523060048201525f906001600160a01b038416906370a0823190602401602060405180830381865afa158015611297573d5f5f3e3d5ffd5b505050506040513d601f19601f820116820180604052508101906112bb919061221a565b90505f81116113025760405162461bcd60e51b815260206004820152601360248201527256656e75733a207a65726f2076546f6b656e7360681b6044820152606401610927565b60405163a9059cbb60e01b81526001600160a01b0384169063a9059cbb906113309088908590600401611fdc565b6020604051808303815f875af115801561134c573d5f5f3e3d5ffd5b505050506040513d601f19601f820116820180604052508101906113709190612231565b5050505061137d60018055565b505050565b61138a611c22565b600280546001600160a01b0319166001600160a01b0392909216919091179055565b60605f6113bb83850185612330565b6020810151606082015160a083015151929350909187111561142e5787878460a001515f01518181106113f0576113f0612143565b6114069260206040909202019081019150611ff5565b915087878460a001515f015181811061142157611421612143565b9050604002016020013590505b5f8351600681111561144257611442612175565b1480611460575060018351600681111561145e5761145e612175565b145b156114b7576114748284604001518361102e565b604080515f80825260208201909252906114af565b604080518082019091525f80825260208201528152602001906001900390816114895790505b509350611996565b6002835160068111156114cc576114cc612175565b03611566575f5f6114e284866040015185610c09565b604080516001808252818301909252929450909250816020015b604080518082019091525f80825260208201528152602001906001900390816114fc5790505095506040518060400160405280836001600160a01b0316815260200182815250865f8151811061155457611554612143565b60200260200101819052505050611996565b60038351600681111561157b5761157b612175565b0361160c5761158f82846040015183610ea0565b60408051600180825281830190925290816020015b604080518082019091525f80825260208201528152602001906001900390816115a45790505093506040518060400160405280836001600160a01b0316815260200182815250845f815181106115fc576115fc612143565b6020026020010181905250611996565b60048351600681111561162157611621612175565b036116b6575f611636838560400151846108bb565b604080516001808252818301909252919250816020015b604080518082019091525f808252602082015281526020019060019003908161164d5790505094506040518060400160405280846001600160a01b0316815260200182815250855f815181106116a5576116a5612143565b602002602001018190525050611996565b6005835160068111156116cb576116cb612175565b036117bd575f6116da836119de565b60408086015190516305eff7ef60e21b81526001600160a01b0391821660048201529192505f91908316906317bfdfbc906024016020604051808303815f875af115801561172a573d5f5f3e3d5ffd5b505050506040513d601f19601f8201168201806040525081019061174e919061221a565b604080516001808252818301909252919250816020015b604080518082019091525f80825260208201528152602001906001900390816117655790505095506040518060400160405280856001600160a01b0316815260200182815250865f8151811061155457611554612143565b6006835160068111156117d2576117d2612175565b0361195a575f6117e1836119de565b60408086015190516370a0823160e01b81526001600160a01b0391821660048201529192505f91908316906370a0823190602401602060405180830381865afa158015611830573d5f5f3e3d5ffd5b505050506040513d601f19601f82011682018060405250810190611854919061221a565b90505f826001600160a01b031663182df0f56040518163ffffffff1660e01b8152600401602060405180830381865afa158015611893573d5f5f3e3d5ffd5b505050506040513d601f19601f820116820180604052508101906118b7919061221a565b90505f670de0b6b3a76400006118cd8385612263565b6118d7919061227a565b604080516001808252818301909252919250816020015b604080518082019091525f80825260208201528152602001906001900390816118ee5790505097506040518060400160405280876001600160a01b0316815260200182815250885f8151811061194657611946612143565b602002602001018190525050505050611996565b60405162461bcd60e51b8152602060048201526011602482015270056656e75733a20756e6b6e6f776e206f7607c1b6044820152606401610927565b505050949350505050565b6119a9611c22565b6001600160a01b0381166119d257604051631e4fbdf760e01b81525f6004820152602401610927565b6119db81611c4e565b50565b5f5f60025f9054906101000a90046001600160a01b03166001600160a01b031663b0772d0b6040518163ffffffff1660e01b81526004015f60405180830381865afa158015611a2f573d5f5f3e3d5ffd5b505050506040513d5f823e601f3d908101601f19168201604052611a569190810190612446565b90505f5b8151811015611b2257818181518110611a7557611a75612143565b60200260200101516001600160a01b0316636f307dc36040518163ffffffff1660e01b8152600401602060405180830381865afa925050508015611ad6575060408051601f3d908101601f19168201909252611ad3918101906124f8565b60015b15611b1a57846001600160a01b0316816001600160a01b031603611b1857828281518110611b0657611b06612143565b60200260200101519350505050919050565b505b600101611a5a565b5060405162461bcd60e51b815260206004820152601760248201527f56656e75733a2076546f6b656e206e6f7420666f756e640000000000000000006044820152606401610927565b600260015403611b8e57604051633ee5aeb560e01b815260040160405180910390fd5b6002600155565b6040516001600160a01b0384811660248301528381166044830152606482018390526110159186918216906323b872dd906084015b604051602081830303815290604052915060e01b6020820180516001600160e01b038381831617835250505050611c9d565b61137d83846001600160a01b031663a9059cbb8585604051602401611bca929190611fdc565b5f546001600160a01b0316331461102c5760405163118cdaa760e01b8152336004820152602401610927565b5f80546001600160a01b038381166001600160a01b0319831681178455604051919092169283917f8be0079c531659141344cd1fd0a4f28419497f9722a3daafe3b4186f6b6457e09190a35050565b5f611cb16001600160a01b03841683611cfe565b905080515f14158015611cd5575080806020019051810190611cd39190612231565b155b1561137d57604051635274afe760e01b81526001600160a01b0384166004820152602401610927565b6060611d0b83835f611d14565b90505b92915050565b606081471015611d395760405163cd78605960e01b8152306004820152602401610927565b5f5f856001600160a01b03168486604051611d549190612513565b5f6040518083038185875af1925050503d805f8114611d8e576040519150601f19603f3d011682016040523d82523d5f602084013e611d93565b606091505b5091509150611da3868383611dad565b9695505050505050565b606082611dc257611dbd82611e09565b610c02565b8151158015611dd957506001600160a01b0384163b155b15611e0257604051639996b31560e01b81526001600160a01b0385166004820152602401610927565b5080610c02565b805115611e195780518082602001fd5b604051630a12f52160e11b815260040160405180910390fd5b6001600160a01b03811681146119db575f5ffd5b5f5f5f60408486031215611e58575f5ffd5b83356001600160401b03811115611e6d575f5ffd5b8401601f81018613611e7d575f5ffd5b80356001600160401b03811115611e92575f5ffd5b8660208260051b8401011115611ea6575f5ffd5b602091820194509250840135611ebb81611e32565b809150509250925092565b5f8151808452602084019350602083015f5b82811015611eff5781516001600160a01b0316865260209586019590910190600101611ed8565b5093949350505050565b604081525f611f1b6040830185611ec6565b828103602084015280845180835260208301915060208160051b840101602087015f5b83811015611f9057601f19868403018552815180518085528060208301602087015e5f602082870101526020601f19601f83011686010194505050602082019150602085019450600181019050611f3e565b509098975050505050505050565b5f5f5f60608486031215611fb0575f5ffd5b8335611fbb81611e32565b92506020840135611fcb81611e32565b929592945050506040919091013590565b6001600160a01b03929092168252602082015260400190565b5f60208284031215612005575f5ffd5b8135610c0281611e32565b5f5f83601f840112612020575f5ffd5b5081356001600160401b03811115612036575f5ffd5b60208301915083602082850101111561204d575f5ffd5b9250929050565b5f5f5f5f60408587031215612067575f5ffd5b84356001600160401b0381111561207c575f5ffd5b8501601f8101871361208c575f5ffd5b80356001600160401b038111156120a1575f5ffd5b8760208260061b84010111156120b5575f5ffd5b6020918201955093508501356001600160401b038111156120d4575f5ffd5b6120e087828801612010565b95989497509550505050565b602080825282518282018190525f918401906040840190835b8181101561213857835180516001600160a01b031684526020908101518185015290930192604090920191600101612105565b509095945050505050565b634e487b7160e01b5f52603260045260245ffd5b5f823560be1983360301811261216b575f5ffd5b9190910192915050565b634e487b7160e01b5f52602160045260245ffd5b803560078110612197575f5ffd5b919050565b5f602082840312156121ac575f5ffd5b611d0b82612189565b634e487b7160e01b5f52601160045260245ffd5b5f600182016121da576121da6121b5565b5060010190565b80820180821115611d0e57611d0e6121b5565b634e487b7160e01b5f52604160045260245ffd5b602081525f611d0b6020830184611ec6565b5f6020828403121561222a575f5ffd5b5051919050565b5f60208284031215612241575f5ffd5b81518015158114610c02575f5ffd5b81810381811115611d0e57611d0e6121b5565b8082028115828204841417611d0e57611d0e6121b5565b5f8261229457634e487b7160e01b5f52601260045260245ffd5b500490565b60405160c081016001600160401b03811182821017156122bb576122bb6121f4565b60405290565b604051601f8201601f191681016001600160401b03811182821017156122e9576122e96121f4565b604052919050565b5f60208284031215612301575f5ffd5b604051602081016001600160401b0381118282101715612323576123236121f4565b6040529135825250919050565b5f60208284031215612340575f5ffd5b81356001600160401b03811115612355575f5ffd5b820160c08185031215612366575f5ffd5b61236e612299565b61237782612189565b8152602082013561238781611e32565b6020820152604082013561239a81611e32565b60408201526060828101359082015260808201356001600160401b038111156123c1575f5ffd5b8201601f810186136123d1575f5ffd5b80356001600160401b038111156123ea576123ea6121f4565b6123fd601f8201601f19166020016122c1565b818152876020838501011115612411575f5ffd5b816020840160208301375f602083830101528060808501525050506124398560a084016122f1565b60a0820152949350505050565b5f60208284031215612456575f5ffd5b81516001600160401b0381111561246b575f5ffd5b8201601f8101841361247b575f5ffd5b80516001600160401b03811115612494576124946121f4565b8060051b6124a4602082016122c1565b918252602081840181019290810190878411156124bf575f5ffd5b6020850194505b838510156124ed57845192506124db83611e32565b828252602094850194909101906124c6565b979650505050505050565b5f60208284031215612508575f5ffd5b8151610c0281611e32565b5f82518060208501845e5f92019182525091905056fea2646970667358221220b5f216cf5cbecc930e17c2b6b8c3d32b3718a9b8b751aeb2680544b83c8e03ca64736f6c634300081e0033",
  "devdoc": {
    "errors": {
      "AddressEmptyCode(address)": [
        {
          "details": "There's no code at `target` (it is not a contract)."
        }
      ],
      "AddressInsufficientBalance(address)": [
        {
          "details": "The ETH balance of the account is not enough to perform the operation."
        }
      ],
      "FailedInnerCall()": [
        {
          "details": "A call to an address target failed. The target may have reverted."
        }
      ],
      "OwnableInvalidOwner(address)": [
        {
          "details": "The owner is not a valid owner account. (eg. `address(0)`)"
        }
      ],
      "OwnableUnauthorizedAccount(address)": [
        {
          "details": "The caller account is not authorized to perform an operation."
        }
      ],
      "ReentrancyGuardReentrantCall()": [
        {
          "details": "Unauthorized reentrant call."
        }
      ],
      "SafeERC20FailedOperation(address)": [
        {
          "details": "An operation with an ERC20 token failed."
        }
      ]
    },
    "kind": "dev",
    "methods": {
      "owner()": {
        "details": "Returns the address of the current owner."
      },
      "renounceOwnership()": {
        "details": "Leaves the contract without owner. It will not be possible to call `onlyOwner` functions. Can only be called by the current owner. NOTE: Renouncing ownership will leave the contract without an owner, thereby disabling any functionality that is only available to the owner."
      },
      "transferOwnership(address)": {
        "details": "Transfers ownership of the contract to a new account (`newOwner`). Can only be called by the current owner."
      }
    },
    "version": 1
  },
  "userdoc": {
    "kind": "user",
    "methods": {},
    "version": 1
  },
  "storageLayout": {
    "storage": [
      {
        "astId": 1432,
        "contract": "contracts/v2/gateways/venus/VenusGatewayWrite.sol:VenusGatewayWrite",
        "label": "_owner",
        "offset": 0,
        "slot": "0",
        "type": "t_address"
      },
      {
        "astId": 2269,
        "contract": "contracts/v2/gateways/venus/VenusGatewayWrite.sol:VenusGatewayWrite",
        "label": "_status",
        "offset": 0,
        "slot": "1",
        "type": "t_uint256"
      },
      {
        "astId": 7231,
        "contract": "contracts/v2/gateways/venus/VenusGatewayWrite.sol:VenusGatewayWrite",
        "label": "comptroller",
        "offset": 0,
        "slot": "2",
        "type": "t_contract(ComptrollerInterface)2576"
      }
    ],
    "types": {
      "t_address": {
        "encoding": "inplace",
        "label": "address",
        "numberOfBytes": "20"
      },
      "t_contract(ComptrollerInterface)2576": {
        "encoding": "inplace",
        "label": "contract ComptrollerInterface",
        "numberOfBytes": "20"
      },
      "t_uint256": {
        "encoding": "inplace",
        "label": "uint256",
        "numberOfBytes": "32"
      }
    }
  }
}