{
  "address": "0x03A8F884B9dc737f6B74d30468e21e01a72ba43a",
  "abi": [
    {
      "inputs": [
        {
          "internalType": "address",
          "name": "router",
          "type": "address"
        },
        {
          "internalType": "address",
          "name": "_comptroller",
          "type": "address"
        }
      ],
      "stateMutability": "nonpayable",
      "type": "constructor"
    },
    {
      "inputs": [
        {
          "internalType": "address",
          "name": "target",
          "type": "address"
        }
      ],
      "name": "AddressEmptyCode",
      "type": "error"
    },
    {
      "inputs": [
        {
          "internalType": "address",
          "name": "account",
          "type": "address"
        }
      ],
      "name": "AddressInsufficientBalance",
      "type": "error"
    },
    {
      "inputs": [],
      "name": "FailedInnerCall",
      "type": "error"
    },
    {
      "inputs": [],
      "name": "ReentrancyGuardReentrantCall",
      "type": "error"
    },
    {
      "inputs": [
        {
          "internalType": "address",
          "name": "token",
          "type": "address"
        }
      ],
      "name": "SafeERC20FailedOperation",
      "type": "error"
    },
    {
      "inputs": [],
      "name": "ROUTER",
      "outputs": [
        {
          "internalType": "address",
          "name": "",
          "type": "address"
        }
      ],
      "stateMutability": "view",
      "type": "function"
    },
    {
      "inputs": [
        {
          "components": [
            {
              "internalType": "enum ProtocolTypes.LendingOp",
              "name": "op",
              "type": "uint8"
            },
            {
              "internalType": "address",
              "name": "token",
              "type": "address"
            },
            {
              "internalType": "address",
              "name": "user",
              "type": "address"
            },
            {
              "internalType": "uint256",
              "name": "amount",
              "type": "uint256"
            },
            {
              "internalType": "bytes",
              "name": "context",
              "type": "bytes"
            },
            {
              "components": [
                {
                  "internalType": "uint256",
                  "name": "index",
                  "type": "uint256"
                }
              ],
              "internalType": "struct ProtocolTypes.InputPtr",
              "name": "input",
              "type": "tuple"
            }
          ],
          "internalType": "struct ProtocolTypes.LendingInstruction[]",
          "name": "instrs",
          "type": "tuple[]"
        },
        {
          "internalType": "address",
          "name": "caller",
          "type": "address"
        },
        {
          "components": [
            {
              "internalType": "address",
              "name": "token",
              "type": "address"
            },
            {
              "internalType": "uint256",
              "name": "amount",
              "type": "uint256"
            }
          ],
          "internalType": "struct ProtocolTypes.Output[]",
          "name": "inputs",
          "type": "tuple[]"
        }
      ],
      "name": "authorize",
      "outputs": [
        {
          "internalType": "address[]",
          "name": "targets",
          "type": "address[]"
        },
        {
          "internalType": "bytes[]",
          "name": "data",
          "type": "bytes[]"
        },
        {
          "components": [
            {
              "internalType": "address",
              "name": "token",
              "type": "address"
            },
            {
              "internalType": "uint256",
              "name": "amount",
              "type": "uint256"
            }
          ],
          "internalType": "struct ProtocolTypes.Output[]",
          "name": "produced",
          "type": "tuple[]"
        }
      ],
      "stateMutability": "view",
      "type": "function"
    },
    {
      "inputs": [],
      "name": "comptroller",
      "outputs": [
        {
          "internalType": "contract ComptrollerInterface",
          "name": "",
          "type": "address"
        }
      ],
      "stateMutability": "view",
      "type": "function"
    },
    {
      "inputs": [
        {
          "components": [
            {
              "internalType": "enum ProtocolTypes.LendingOp",
              "name": "op",
              "type": "uint8"
            },
            {
              "internalType": "address",
              "name": "token",
              "type": "address"
            },
            {
              "internalType": "address",
              "name": "user",
              "type": "address"
            },
            {
              "internalType": "uint256",
              "name": "amount",
              "type": "uint256"
            },
            {
              "internalType": "bytes",
              "name": "context",
              "type": "bytes"
            },
            {
              "components": [
                {
                  "internalType": "uint256",
                  "name": "index",
                  "type": "uint256"
                }
              ],
              "internalType": "struct ProtocolTypes.InputPtr",
              "name": "input",
              "type": "tuple"
            }
          ],
          "internalType": "struct ProtocolTypes.LendingInstruction[]",
          "name": "instrs",
          "type": "tuple[]"
        },
        {
          "internalType": "address",
          "name": "",
          "type": "address"
        },
        {
          "components": [
            {
              "internalType": "address",
              "name": "token",
              "type": "address"
            },
            {
              "internalType": "uint256",
              "name": "amount",
              "type": "uint256"
            }
          ],
          "internalType": "struct ProtocolTypes.Output[]",
          "name": "inputs",
          "type": "tuple[]"
        }
      ],
      "name": "deauthorize",
      "outputs": [
        {
          "internalType": "address[]",
          "name": "targets",
          "type": "address[]"
        },
        {
          "internalType": "bytes[]",
          "name": "data",
          "type": "bytes[]"
        }
      ],
      "stateMutability": "view",
      "type": "function"
    },
    {
      "inputs": [
        {
          "components": [
            {
              "internalType": "address",
              "name": "token",
              "type": "address"
            },
            {
              "internalType": "uint256",
              "name": "amount",
              "type": "uint256"
            }
          ],
          "internalType": "struct ProtocolTypes.Output[]",
          "name": "inputs",
          "type": "tuple[]"
        },
        {
          "internalType": "bytes",
          "name": "data",
          "type": "bytes"
        }
      ],
      "name": "processLendingInstruction",
      "outputs": [
        {
          "components": [
            {
              "internalType": "address",
              "name": "token",
              "type": "address"
            },
            {
              "internalType": "uint256",
              "name": "amount",
              "type": "uint256"
            }
          ],
          "internalType": "struct ProtocolTypes.Output[]",
          "name": "outputs",
          "type": "tuple[]"
        }
      ],
      "stateMutability": "nonpayable",
      "type": "function"
    }
  ],
  "transactionHash": "0xea4b8dd317ff19264da792fe72f0413828fe9626b7cabd3e0f9abbfd3fec9c28",
  "args": [
    "0x5D7496615193325d417c38d62B2399c798556446",
    "0x317c1A5739F39046E20b08ac9BeEa3f10fD43326"
  ],
  "numDeployments": 22,
  "solcInputHash": "86e9b4950924f9ee73e2edbbeee31fc9",
  "bytecode": "0x60c0346100f657601f61271c38819003918201601f19168301916001600160401b038311848410176100fa5780849260409485528339810103126100f657610052602061004b8361010e565b920161010e565b906001600160a01b038116156100c65760805260015f556001600160a01b031660a0526040516125f99081610123823960805181818160c40152611a63015260a051818181610d7b01528181610e4001528181610fa1015281816113160152818161171e015281816119580152611e880152f35b60405162461bcd60e51b81526020600482015260086024820152670726f757465723d360c41b6044820152606490fd5b5f80fd5b634e487b7160e01b5f52604160045260245ffd5b51906001600160a01b03821682036100f65756fe60e0806040526004361015610012575f80fd5b5f3560e01c90816332fe7b2614611a515750806352ed587514610e6f5780635fe3b56714610e2b578063aad11a3f14610c6d5763ae4be46d14610053575f80fd5b346104ba5760403660031901126104ba576004356001600160401b0381116104ba57610083903690600401611aa6565b906024356001600160401b0381116104ba57366023820112156104ba5780600401356001600160401b0381116104ba5781019160248301913683116104ba577f00000000000000000000000000000000000000000000000000000000000000006001600160a01b03163303610c31576020818503126104ba5760248101356001600160401b0381116104ba5701928390039360c085126104ba576040519160c083018381106001600160401b03821117610407576040526024850135600a8110156104ba57835261015660448601611a92565b916020840192835261016a60648701611a92565b946040850195865260608501976084880135895260a48801356001600160401b0381116104ba576024908901019180601f840112156104ba5782356101ae81611e59565b916101bc6040519384611cd6565b818352602082860101116104ba576020815f928280970183860137830101526080870152609f1901126104ba576040519560208701908782106001600160401b038311176104075760c4916040520135865260a084019286845260018060a01b0390511696519551818110610bfe575b505050508051600a811015610bd657158015610bea575b1561056a5750516001600160a01b03169061025c612428565b61026583611e74565b6001600160a01b039093169261027d82303387612446565b60405163095ea7b360e01b815260018060a01b038216948560048301525f60248301526020826044815f855af190811561044a576102f793602093869361054f575b5060405163095ea7b360e01b81526001600160a01b0390911660048201526024810192909252909283919082905f9082906044820190565b03925af1801561044a57610532575b506040519063140e25ad60e31b825260048201526020816024815f875af190811561044a575f91610500575b506104c6576040516370a0823160e01b8152306004820152602081602481865afa90811561044a575f91610490575b5080156104555760405163a9059cbb60e01b81526001600160a01b03929092166004830152602482015290602090829060449082905f905af1801561044a5761041b575b5060015f556040516103b8602082611cd6565b5f81525f805b8181106103e45750506103e0905b604051918291602083526020830190611c0b565b0390f35b6020906040516103f381611cbb565b5f81525f83820152828286010152016103be565b634e487b7160e01b5f52604160045260245ffd5b61043c9060203d602011610443575b6104348183611cd6565b810190611cf7565b505f6103a5565b503d61042a565b6040513d5f823e3d90fd5b60405162461bcd60e51b815260206004820152601360248201527256656e75733a207a65726f2076546f6b656e7360681b6044820152606490fd5b90506020813d6020116104be575b816104ab60209383611cd6565b810103126104ba57515f610361565b5f80fd5b3d915061049e565b60405162461bcd60e51b815260206004820152601260248201527115995b9d5cce881b5a5b9d0819985a5b195960721b6044820152606490fd5b90506020813d60201161052a575b8161051b60209383611cd6565b810103126104ba57515f610332565b3d915061050e565b61054a9060203d602011610443576104348183611cd6565b610306565b61056590853d8711610443576104348183611cd6565b6102bf565b8051600a811015610bd6576002036105e25750516103e09261059e92916001600160a01b031690610599612428565b6120aa565b9060015f556105ab611dec565b91604051916105b983611cbb565b6001600160a01b0316825260208201526105d282611e38565b526105dc81611e38565b506103cc565b8051600a811015610bd65760030361071c5750516106559060209083906001600160a01b0316610610612428565b6001600160a01b0361062187611e74565b16905f60405180968195829463856e5bb360e01b84526004840160209093929193604081019460018060a01b031681520152565b03925af190811561044a575f916106ea575b506106ae576103e0916001600160a01b0316610684823383612499565b60015f55610690611dec565b916040519161069e83611cbb565b825260208201526105d282611e38565b60405162461bcd60e51b815260206004820152601460248201527315995b9d5cce88189bdc9c9bddc819985a5b195960621b6044820152606490fd5b90506020813d602011610714575b8161070560209383611cd6565b810103126104ba57515f610667565b3d91506106f8565b8093929351600a811015610bd6576004036109e95750516001600160a01b031690610745612428565b61074e81611e74565b6040516370a0823160e01b8152306004820152936001600160a01b03909216929091602085602481875afa94851561044a575f956109b5575b5061079481303387612446565b60405163095ea7b360e01b815260018060a01b038416908160048201525f60248201526020816044815f8a5af1801561044a5761080795602092859261099a575b5060405163095ea7b360e01b81526001600160a01b039091166004820152602481019190915294859081906044820190565b03815f895af192831561044a576108589460209461097f575b506040516304c11f0360e31b81526001600160a01b0390911660048201526024810192909252909283919082905f9082906044820190565b03925af190811561044a575f9161094d575b50610912576040516370a0823160e01b815230600482015291602083602481855afa90811561044a575f916108dc575b6103e09350808211156108d3576108b091611d2f565b905b816108c35760015f55610690611dec565b6108ce823383612499565b610684565b50505f906108b2565b90506020833d60201161090a575b816108f760209383611cd6565b810103126104ba576103e092519061089a565b3d91506108ea565b60405162461bcd60e51b815260206004820152601360248201527215995b9d5cce881c995c185e4819985a5b1959606a1b6044820152606490fd5b90506020813d602011610977575b8161096860209383611cd6565b810103126104ba57515f61086a565b3d915061095b565b61099590853d8711610443576104348183611cd6565b610820565b6109b090843d8611610443576104348183611cd6565b6107d5565b9094506020813d6020116109e1575b816109d160209383611cd6565b810103126104ba5751935f610787565b3d91506109c4565b8091935051600a811015610bd657600503610a8f57505f9160209060246001600160a01b03610a1785611e74565b92516040516305eff7ef60e21b81526001600160a01b0390911660048201529586938492165af190811561044a575f91610a59575b6103e092506105ab611dec565b90506020823d602011610a87575b81610a7460209383611cd6565b810103126104ba576103e0915190610a4c565b3d9150610a67565b51600a811015610bd657600603610b9d576001600160a01b03610ab182611e74565b92516040516370a0823160e01b81526001600160a01b0390911660048201529216602083602481845afa92831561044a575f93610b68575b509160206004936040519485809263182df0f560e01b82525afa92831561044a575f93610b32575b50610b286103e093670de0b6b3a764000092611d0f565b04906105ab611dec565b92506020833d602011610b60575b81610b4d60209383611cd6565b810103126104ba57915191610b28610b11565b3d9150610b40565b92506020833d602011610b95575b81610b8360209383611cd6565b810103126104ba579151916020610ae9565b3d9150610b76565b60405162461bcd60e51b8152602060048201526011602482015270056656e75733a20756e6b6e6f776e206f7607c1b6044820152606490fd5b634e487b7160e01b5f52602160045260245ffd5b508051600a811015610bd657600114610243565b610c259397506020949650610c17610c1c918385611cab565b611c97565b96515191611cab565b0135915f80808061022c565b60405162461bcd60e51b815260206004820152601460248201527313db9b1e481c9bdd5d195c8818d85b8818d85b1b60621b6044820152606490fd5b346104ba57610c7b36611ad6565b91509192610c8884611d71565b92610c9285611da3565b945f5b818110610cc657610cb8866103e089604051938493604085526040850190611b5f565b908382036020850152611b9b565b610cd1818386611c53565b90610cde60208301611c97565b9160a0810135878110610e13575b503591600a8310156104ba5760019260028103610d695750610d0d90611e74565b610d178289611e45565b90838060a01b0316905260405163095ea7b360e01b60208201523060248201525f604482015260448152610d4c606482611cd6565b610d56828a611e45565b52610d618189611e45565b505b01610c95565b600314159050610dec57818060a01b037f000000000000000000000000000000000000000000000000000000000000000016610da58289611e45565b5260405163ddbf54fd60e01b60208201523060248201525f604482015260448152610dd1606482611cd6565b610ddb828a611e45565b52610de68189611e45565b50610d63565b5f610df78289611e45565b52604051610e06602082611cd6565b5f8152610ddb828a611e45565b610e24919350610c17908887611cab565b9189610cec565b346104ba575f3660031901126104ba576040517f00000000000000000000000000000000000000000000000000000000000000006001600160a01b03168152602090f35b346104ba57610e7d36611ad6565b9193925f5f5f5b838110611669575080610e99610ea192611d71565b60a052611da3565b608052610ebe610eb082611d5a565b60405160c05260c051611cd6565b60c051819052601f1990610ed190611d5a565b015f5b8181106116445750505f925f915f5b818110610f275760405160608152806103e0610f17610f076060840160a051611b5f565b8381036020850152608051611b9b565b828103604084015260c051611c0b565b610f32818389611c53565b610f3e60208201611c97565b9060608101359060a081013586811061161c575b508035600a8110156104ba575f81158015611610575b156110b65750505050610f7a90611e74565b60405163929fe9a160e01b81526001600160a01b038a8116600483015282811660248301527f00000000000000000000000000000000000000000000000000000000000000001690602081604481855afa5f9181611096575b5061109157505f5b15610fed575b50506001905b01610ee3565b9661105c61106a611089936001959a60409081519261100c8385611cd6565b888452601f19830136602086013761102384611e38565b90898060a01b031690526110398660a051611e45565b5251928391631853304760e31b6020840152602060248401526044830190611b5f565b03601f198101835282611cd6565b61107682608051611e45565b5261108381608051611e45565b50611c89565b959089610fe1565b610fdb565b6110af91925060203d8111610443576104348183611cd6565b908c610fd3565b9794976104ba576004810361110a5750505060019161110491604051906110dc82611cbb565b848060a01b031681525f60208201526110f78260c051611e45565b526110838160c051611e45565b93610fe7565b600281036112e757506001600160a01b03905061112683611e74565b1660405163182df0f560e01b8152602081600481855afa90811561044a575f916112b6575b508261126157505f19905b604051636eb1769f60e11b81526001600160a01b038d166004820152306024820152602081604481855afa90811561044a575f91611230575b508284159185611226575b50506111d2575b50509161110491600193604051916111b883611cbb565b858060a01b0316825260208201526110f78260c051611e45565b8961105c61106a611104969461121b946111f260019a989f60a051611e45565b5260405163095ea7b360e01b602082015230602482015260448101919091529182906064820190565b9891938193506111a1565b109050828e61119a565b90506020813d8211611259575b8161124a60209383611cd6565b810103126104ba57518d61118f565b3d915061123d565b670de0b6b3a76400008302838104670de0b6b3a7640000036112a2578161128791611d22565b5f198101919082116112a25761129c91611d3c565b90611156565b634e487b7160e01b5f52601160045260245ffd5b90506020813d82116112df575b816112d060209383611cd6565b810103126104ba57518c61114b565b3d91506112c3565b600381036113e4575050604051630217306760e31b81526001600160a01b038b811660048301523060248301527f000000000000000000000000000000000000000000000000000000000000000016905f90602081604481865afa5f91816113c4575b506113bc575b501561136d575b509161110491600193604051916111b883611cbb565b916113b28961110494611386600197959c60a051611e45565b5260405163ddbf54fd60e01b60208201523060248201526044808201889052815261106a606482611cd6565b9891935091611357565b90508c611350565b6113dd91925060203d8111610443576104348183611cd6565b908e61134a565b9092939150600581145f146114c45750602061141460406001600160a01b0361140c87611e74565b169401611c97565b6040516395dd919360e01b81526001600160a01b03909116600482015292839060249082905afa91821561044a575f92611491575b506103e98202918083046103e914901517156112a2576001926103e8611104936040519261147684611cbb565b868060a01b031683520460208201526110f78260c051611e45565b9091506020813d82116114bc575b816114ac60209383611cd6565b810103126104ba5751908a611449565b3d915061149f565b90959291906006146114db575b5050600190610fe7565b919490916114fd60406001600160a01b036114f586611e74565b169201611c97565b6040516370a0823160e01b81526001600160a01b03909116600482015290602082602481845afa91821561044a575f926115dc575b5060206004916040519283809263182df0f560e01b82525afa90811561044a575f916115a3575b5061156d90670de0b6b3a764000092611d0f565b04906103e98202918083046103e914901517156112a2576001926103e861159b936040519261147684611cbb565b9390896114d1565b90506020813d82116115d4575b816115bd60209383611cd6565b810103126104ba5751670de0b6b3a7640000611559565b3d91506115b0565b9091506020813d8211611608575b816115f760209383611cd6565b810103126104ba5751906020611532565b3d91506115ea565b50505f60018214610f68565b92509050602061163b611633610c1785898c611cab565b93878a611cab565b0135908b610f52565b60209060405161165381611cbb565b5f81525f83820152828260c05101015201610ed4565b611674818589611c53565b8035600a8110156104ba575f9060028114808015611a44575b8015611a33575b8015611a22575b8015611a11575b611a01575b6116b360208501611c97565b9260a060608601359501358b8b8183106119d5575b5050506104ba575f821580156119c9575b1561179b575050506116eb9150611e74565b60405163929fe9a160e01b81526001600160a01b038a8116600483015291821660248201525f91602090829060449082907f0000000000000000000000000000000000000000000000000000000000000000165afa5f918161177b575b50611773575b501561175f575b6001905b01610e84565b9061176b600191611c89565b919050611755565b90508961174e565b61179491925060203d8111610443576104348183611cd6565b908b611748565b6104ba571561191557506001600160a01b03906117b790611e74565b1660405163182df0f560e01b8152602081600481855afa90811561044a575f916118e4575b50821592831561189d57505061182560208b5f19935b604051636eb1769f60e11b81526001600160a01b0390921660048301523060248301529092839190829081906044820190565b03915afa90811561044a575f9161186c575b508215611862575b505061184e575b600190611759565b9061185a600191611c89565b919050611846565b109050898061183f565b90506020813d8211611895575b8161188660209383611cd6565b810103126104ba57518b611837565b3d9150611879565b670de0b6b3a76400008102908104670de0b6b3a7640000036112a257816118c391611d22565b5f1981019081116112a2578b6118de61182593602093611d3c565b936117f2565b90506020813d821161190d575b816118fe60209383611cd6565b810103126104ba57518b6117dc565b3d91506118f1565b9050600391501461192857600190611759565b604051630217306760e31b81526001600160a01b03891660048201523060248201525f90602081806044810103817f00000000000000000000000000000000000000000000000000000000000000006001600160a01b03165afa5f91816119a9575b506119a1575b50611846579061185a600191611c89565b905089611990565b6119c291925060203d8111610443576104348183611cd6565b908b61198a565b50505f600183146116d9565b6020939750826119f69397506119ee92610c1792611cab565b948c8c611cab565b0135938d8b8b6116c8565b95611a0b90611c89565b956116a7565b50916104ba575f91600682146116a2565b50916104ba575f916005821461169b565b50916104ba575f9160048214611694565b505f92506003821461168d565b346104ba575f3660031901126104ba577f00000000000000000000000000000000000000000000000000000000000000006001600160a01b03168152602090f35b35906001600160a01b03821682036104ba57565b9181601f840112156104ba578235916001600160401b0383116104ba576020808501948460061b0101116104ba57565b9060606003198301126104ba57600435916001600160401b0383116104ba57806023840112156104ba578260040135926001600160401b0384116104ba578160248560051b830101116104ba576024908101939290356001600160a01b03811681036104ba5791604435906001600160401b0382116104ba57611b5b91600401611aa6565b9091565b90602080835192838152019201905f5b818110611b7c5750505090565b82516001600160a01b0316845260209384019390920191600101611b6f565b9080602083519182815201916020808360051b8301019401925f915b838310611bc657505050505090565b909192939460208080600193601f19868203018752818a518051918291828552018484015e5f828201840152601f01601f191601019701959491909101920190611bb7565b90602080835192838152019201905f5b818110611c285750505090565b825180516001600160a01b031685526020908101518186015260409094019390920191600101611c1b565b9190811015611c755760051b8101359060be19813603018212156104ba570190565b634e487b7160e01b5f52603260045260245ffd5b5f1981146112a25760010190565b356001600160a01b03811681036104ba5790565b9190811015611c755760061b0190565b604081019081106001600160401b0382111761040757604052565b90601f801991011681019081106001600160401b0382111761040757604052565b908160209103126104ba575180151581036104ba5790565b818102929181159184041417156112a257565b919082018092116112a257565b919082039182116112a257565b8115611d46570490565b634e487b7160e01b5f52601260045260245ffd5b6001600160401b0381116104075760051b60200190565b90611d7b82611d5a565b611d886040519182611cd6565b8281528092611d99601f1991611d5a565b0190602036910137565b90611dad82611d5a565b611dba6040519182611cd6565b8281528092611dcb601f1991611d5a565b01905f5b828110611ddb57505050565b806060602080938501015201611dcf565b60408051909190611dfd8382611cd6565b6001815291601f1901825f5b828110611e1557505050565b602090604051611e2481611cbb565b5f81525f8382015282828501015201611e09565b805115611c755760200190565b8051821015611c755760209160051b010190565b6001600160401b03811161040757601f01601f191660200190565b60405163b0772d0b60e01b81525f816004817f00000000000000000000000000000000000000000000000000000000000000006001600160a01b03165afa90811561044a575f91611fc6575b505f5b8151811015611f8157600460206001600160a01b03611ee28486611e45565b511660405192838092636f307dc360e01b82525afa5f9181611f3e575b50611f0e575b50600101611ec3565b6001600160a01b03848116911614611f26575f611f05565b6001600160a01b039250611f3991611e45565b511690565b9091506020813d8211611f79575b81611f5960209383611cd6565b810103126104ba57516001600160a01b03811681036104ba57905f611eff565b3d9150611f4c565b60405162461bcd60e51b815260206004820152601760248201527f56656e75733a2076546f6b656e206e6f7420666f756e640000000000000000006044820152606490fd5b90503d805f833e611fd78183611cd6565b8101906020818303126104ba578051906001600160401b0382116104ba57019080601f830112156104ba5781519061200e82611d5a565b9261201c6040519485611cd6565b82845260208085019360051b8201019182116104ba57602001915b818310612047575050505f611ec0565b82516001600160a01b03811681036104ba57815260209283019201612037565b1561206e57565b60405162461bcd60e51b815260206004820152601460248201527315995b9d5cce881c995919595b4819985a5b195960621b6044820152606490fd5b919291906001600160a01b036120bf83611e74565b6040516305eff7ef60e21b81526001600160a01b038416600482018190529190921695916020816024815f8b5af190811561044a575f916123f6575b5082101561235c575060405163bd6d894d60e01b8152906020826004815f8a5af191821561044a575f92612328575b50670de0b6b3a7640000810290808204670de0b6b3a764000014901517156112a2578161215691611d22565b5f198101919082116112a2576121716020916121a893611d3c565b6040516323b872dd60e01b81526001600160a01b039094166004850152306024850152604484018190529291829081906064820190565b03815f895af1801561044a5761230b575b506040516370a0823160e01b81523060048201526001600160a01b038316949091602083602481895afa92831561044a575f936122d7575b505f916024602092604051948593849263db006a7560e01b845260048401525af1801561044a575f906122a3575b61222a915015612067565b6040516370a0823160e01b8152306004820152602081602481885afa90811561044a575f9161226f575b5061226b9161226291611d2f565b80943390612499565b9190565b90506020813d60201161229b575b8161228a60209383611cd6565b810103126104ba575161226b612254565b3d915061227d565b506020813d6020116122cf575b816122bd60209383611cd6565b810103126104ba5761222a905161221f565b3d91506122b0565b9092506020813d602011612303575b816122f360209383611cd6565b810103126104ba5751915f6121f1565b3d91506122e6565b6123239060203d602011610443576104348183611cd6565b6121b9565b9091506020813d602011612354575b8161234460209383611cd6565b810103126104ba5751905f61212a565b3d9150612337565b919050604051916370a0823160e01b83526004830152602082602481885afa91821561044a575f926123c1575b506040516323b872dd60e01b81526001600160a01b0390911660048201523060248201526044810182905260208180606481016121a8565b9091506020813d6020116123ee575b816123dd60209383611cd6565b810103126104ba5751906020612389565b3d91506123d0565b90506020813d602011612420575b8161241160209383611cd6565b810103126104ba57515f6120fb565b3d9150612404565b60025f54146124375760025f55565b633ee5aeb560e01b5f5260045ffd5b6040516323b872dd60e01b60208201526001600160a01b03928316602482015292909116604483015260648201929092526124979161249282608481015b03601f198101845283611cd6565b6124d2565b565b60405163a9059cbb60e01b60208201526001600160a01b0390921660248301526044820192909252612497916124928260648101612484565b5f8061251a9260018060a01b03169360208151910182865af13d1561255d573d906124fc82611e59565b9161250a6040519384611cd6565b82523d5f602084013e5b83612565565b8051908115159182612542575b50506125305750565b635274afe760e01b5f5260045260245ffd5b6125559250602080918301019101611cf7565b155f80612527565b606090612514565b90612589575080511561257a57805190602001fd5b630a12f52160e11b5f5260045ffd5b815115806125ba575b61259a575090565b639996b31560e01b5f9081526001600160a01b0391909116600452602490fd5b50803b1561259256fea2646970667358221220005fa71496fef2d3c0e8a84419feb01f066fa32062a6d45495cec9484bcab3e664736f6c634300081e0033",
  "devdoc": {
    "errors": {
      "AddressEmptyCode(address)": [
        {
          "details": "There's no code at `target` (it is not a contract)."
        }
      ],
      "AddressInsufficientBalance(address)": [
        {
          "details": "The ETH balance of the account is not enough to perform the operation."
        }
      ],
      "FailedInnerCall()": [
        {
          "details": "A call to an address target failed. The target may have reverted."
        }
      ],
      "ReentrancyGuardReentrantCall()": [
        {
          "details": "Unauthorized reentrant call."
        }
      ],
      "SafeERC20FailedOperation(address)": [
        {
          "details": "An operation with an ERC20 token failed."
        }
      ]
    },
    "kind": "dev",
    "methods": {},
    "version": 1
  },
  "userdoc": {
    "kind": "user",
    "methods": {
      "ROUTER()": {
        "notice": "Immutable router address that can call protected functions"
      },
      "authorize((uint8,address,address,uint256,bytes,(uint256))[],address,(address,uint256)[])": {
        "notice": "Return user-side authorization calls for the given lending instructions.         One element per input (or (address(0), bytes(\"\")) if none needed).         Also returns the produced outputs from the simulation of these instructions."
      }
    },
    "version": 1
  },
  "storageLayout": {
    "storage": [
      {
        "astId": 3093,
        "contract": "contracts/v2/gateways/venus/VenusGatewayWrite.sol:VenusGatewayWrite",
        "label": "_status",
        "offset": 0,
        "slot": "0",
        "type": "t_uint256"
      }
    ],
    "types": {
      "t_uint256": {
        "encoding": "inplace",
        "label": "uint256",
        "numberOfBytes": "32"
      }
    }
  }
}