{
  "address": "0x9569801781212F6C1A023AD599C03388c473340A",
  "abi": [
    {
      "inputs": [
        {
          "internalType": "address",
          "name": "_comptroller",
          "type": "address"
        },
        {
          "internalType": "address",
          "name": "_oracle",
          "type": "address"
        },
        {
          "internalType": "address",
          "name": "owner_",
          "type": "address"
        }
      ],
      "stateMutability": "nonpayable",
      "type": "constructor"
    },
    {
      "inputs": [
        {
          "internalType": "address",
          "name": "owner",
          "type": "address"
        }
      ],
      "name": "OwnableInvalidOwner",
      "type": "error"
    },
    {
      "inputs": [
        {
          "internalType": "address",
          "name": "account",
          "type": "address"
        }
      ],
      "name": "OwnableUnauthorizedAccount",
      "type": "error"
    },
    {
      "anonymous": false,
      "inputs": [
        {
          "indexed": true,
          "internalType": "address",
          "name": "previousOwner",
          "type": "address"
        },
        {
          "indexed": true,
          "internalType": "address",
          "name": "newOwner",
          "type": "address"
        }
      ],
      "name": "OwnershipTransferred",
      "type": "event"
    },
    {
      "inputs": [
        {
          "internalType": "address",
          "name": "account",
          "type": "address"
        },
        {
          "internalType": "address",
          "name": "vToken",
          "type": "address"
        }
      ],
      "name": "checkMembership",
      "outputs": [
        {
          "internalType": "bool",
          "name": "",
          "type": "bool"
        }
      ],
      "stateMutability": "view",
      "type": "function"
    },
    {
      "inputs": [],
      "name": "comptroller",
      "outputs": [
        {
          "internalType": "contract ComptrollerInterface",
          "name": "",
          "type": "address"
        }
      ],
      "stateMutability": "view",
      "type": "function"
    },
    {
      "inputs": [
        {
          "internalType": "address",
          "name": "account",
          "type": "address"
        }
      ],
      "name": "getAccountLiquidity",
      "outputs": [
        {
          "internalType": "uint256",
          "name": "",
          "type": "uint256"
        },
        {
          "internalType": "uint256",
          "name": "",
          "type": "uint256"
        },
        {
          "internalType": "uint256",
          "name": "",
          "type": "uint256"
        }
      ],
      "stateMutability": "view",
      "type": "function"
    },
    {
      "inputs": [],
      "name": "getAllMarkets",
      "outputs": [
        {
          "internalType": "address[]",
          "name": "",
          "type": "address[]"
        }
      ],
      "stateMutability": "view",
      "type": "function"
    },
    {
      "inputs": [],
      "name": "getAllVenusMarkets",
      "outputs": [
        {
          "internalType": "address[]",
          "name": "vTokens",
          "type": "address[]"
        },
        {
          "internalType": "address[]",
          "name": "tokens",
          "type": "address[]"
        },
        {
          "internalType": "string[]",
          "name": "symbols",
          "type": "string[]"
        },
        {
          "internalType": "string[]",
          "name": "names",
          "type": "string[]"
        },
        {
          "internalType": "uint8[]",
          "name": "decimals",
          "type": "uint8[]"
        },
        {
          "internalType": "uint256[]",
          "name": "prices",
          "type": "uint256[]"
        }
      ],
      "stateMutability": "view",
      "type": "function"
    },
    {
      "inputs": [
        {
          "internalType": "address",
          "name": "underlyingToken",
          "type": "address"
        }
      ],
      "name": "getAssetPrice",
      "outputs": [
        {
          "internalType": "uint256",
          "name": "price",
          "type": "uint256"
        }
      ],
      "stateMutability": "view",
      "type": "function"
    },
    {
      "inputs": [
        {
          "internalType": "address",
          "name": "underlyingToken",
          "type": "address"
        }
      ],
      "name": "getAssetPrice8",
      "outputs": [
        {
          "internalType": "uint256",
          "name": "price",
          "type": "uint256"
        }
      ],
      "stateMutability": "view",
      "type": "function"
    },
    {
      "inputs": [
        {
          "internalType": "address",
          "name": "account",
          "type": "address"
        }
      ],
      "name": "getAssetsIn",
      "outputs": [
        {
          "internalType": "address[]",
          "name": "",
          "type": "address[]"
        }
      ],
      "stateMutability": "view",
      "type": "function"
    },
    {
      "inputs": [
        {
          "internalType": "address",
          "name": "token",
          "type": "address"
        },
        {
          "internalType": "address",
          "name": "user",
          "type": "address"
        }
      ],
      "name": "getBalance",
      "outputs": [
        {
          "internalType": "uint256",
          "name": "",
          "type": "uint256"
        }
      ],
      "stateMutability": "view",
      "type": "function"
    },
    {
      "inputs": [
        {
          "internalType": "address",
          "name": "token",
          "type": "address"
        },
        {
          "internalType": "address",
          "name": "user",
          "type": "address"
        }
      ],
      "name": "getBorrowBalance",
      "outputs": [
        {
          "internalType": "uint256",
          "name": "",
          "type": "uint256"
        }
      ],
      "stateMutability": "view",
      "type": "function"
    },
    {
      "inputs": [
        {
          "internalType": "address",
          "name": "token",
          "type": "address"
        },
        {
          "internalType": "address",
          "name": "user",
          "type": "address"
        }
      ],
      "name": "getBorrowBalanceCurrent",
      "outputs": [
        {
          "internalType": "uint256",
          "name": "",
          "type": "uint256"
        }
      ],
      "stateMutability": "nonpayable",
      "type": "function"
    },
    {
      "inputs": [
        {
          "internalType": "address",
          "name": "token",
          "type": "address"
        }
      ],
      "name": "getBorrowRate",
      "outputs": [
        {
          "internalType": "uint256",
          "name": "",
          "type": "uint256"
        },
        {
          "internalType": "bool",
          "name": "",
          "type": "bool"
        }
      ],
      "stateMutability": "view",
      "type": "function"
    },
    {
      "inputs": [],
      "name": "getCollateralFactors",
      "outputs": [
        {
          "internalType": "address[]",
          "name": "assets",
          "type": "address[]"
        },
        {
          "internalType": "uint256[]",
          "name": "ltvBps",
          "type": "uint256[]"
        },
        {
          "internalType": "uint256[]",
          "name": "lltvBps",
          "type": "uint256[]"
        }
      ],
      "stateMutability": "view",
      "type": "function"
    },
    {
      "inputs": [
        {
          "internalType": "address[]",
          "name": "vTokens",
          "type": "address[]"
        },
        {
          "internalType": "address",
          "name": "account",
          "type": "address"
        }
      ],
      "name": "getCollateralStatus",
      "outputs": [
        {
          "internalType": "bool[]",
          "name": "isCollateral",
          "type": "bool[]"
        }
      ],
      "stateMutability": "view",
      "type": "function"
    },
    {
      "inputs": [
        {
          "internalType": "address",
          "name": "",
          "type": "address"
        },
        {
          "internalType": "address",
          "name": "user",
          "type": "address"
        }
      ],
      "name": "getCurrentLtvBps",
      "outputs": [
        {
          "internalType": "uint256",
          "name": "",
          "type": "uint256"
        }
      ],
      "stateMutability": "view",
      "type": "function"
    },
    {
      "inputs": [
        {
          "internalType": "address",
          "name": "",
          "type": "address"
        },
        {
          "internalType": "address",
          "name": "user",
          "type": "address"
        }
      ],
      "name": "getLiquidationLtvBps",
      "outputs": [
        {
          "internalType": "uint256",
          "name": "",
          "type": "uint256"
        }
      ],
      "stateMutability": "view",
      "type": "function"
    },
    {
      "inputs": [
        {
          "internalType": "address",
          "name": "",
          "type": "address"
        },
        {
          "internalType": "address",
          "name": "user",
          "type": "address"
        }
      ],
      "name": "getLtv",
      "outputs": [
        {
          "internalType": "uint256",
          "name": "result",
          "type": "uint256"
        }
      ],
      "stateMutability": "view",
      "type": "function"
    },
    {
      "inputs": [
        {
          "internalType": "address[]",
          "name": "vTokens",
          "type": "address[]"
        }
      ],
      "name": "getMarketRates",
      "outputs": [
        {
          "internalType": "uint256[]",
          "name": "prices",
          "type": "uint256[]"
        },
        {
          "internalType": "uint256[]",
          "name": "supplyRates",
          "type": "uint256[]"
        },
        {
          "internalType": "uint256[]",
          "name": "borrowRates",
          "type": "uint256[]"
        }
      ],
      "stateMutability": "view",
      "type": "function"
    },
    {
      "inputs": [
        {
          "internalType": "address",
          "name": "",
          "type": "address"
        },
        {
          "internalType": "address",
          "name": "user",
          "type": "address"
        }
      ],
      "name": "getMaxLtv",
      "outputs": [
        {
          "internalType": "uint256",
          "name": "result",
          "type": "uint256"
        }
      ],
      "stateMutability": "view",
      "type": "function"
    },
    {
      "inputs": [
        {
          "internalType": "address",
          "name": "token",
          "type": "address"
        },
        {
          "internalType": "address",
          "name": "user",
          "type": "address"
        }
      ],
      "name": "getPossibleCollaterals",
      "outputs": [
        {
          "internalType": "address[]",
          "name": "collateralAddresses",
          "type": "address[]"
        },
        {
          "internalType": "uint256[]",
          "name": "balances",
          "type": "uint256[]"
        },
        {
          "internalType": "string[]",
          "name": "symbols",
          "type": "string[]"
        },
        {
          "internalType": "uint8[]",
          "name": "decimals",
          "type": "uint8[]"
        }
      ],
      "stateMutability": "view",
      "type": "function"
    },
    {
      "inputs": [],
      "name": "getReserveConfigs",
      "outputs": [
        {
          "components": [
            {
              "internalType": "address",
              "name": "token",
              "type": "address"
            },
            {
              "internalType": "address",
              "name": "vToken",
              "type": "address"
            },
            {
              "internalType": "uint256",
              "name": "price",
              "type": "uint256"
            },
            {
              "internalType": "uint256",
              "name": "ltv",
              "type": "uint256"
            },
            {
              "internalType": "uint256",
              "name": "liquidationThreshold",
              "type": "uint256"
            },
            {
              "internalType": "uint8",
              "name": "decimals",
              "type": "uint8"
            },
            {
              "internalType": "bool",
              "name": "isListed",
              "type": "bool"
            }
          ],
          "internalType": "struct VenusGatewayView.ReserveConfigData[]",
          "name": "configs",
          "type": "tuple[]"
        }
      ],
      "stateMutability": "view",
      "type": "function"
    },
    {
      "inputs": [
        {
          "internalType": "address",
          "name": "token",
          "type": "address"
        }
      ],
      "name": "getSupplyRate",
      "outputs": [
        {
          "internalType": "uint256",
          "name": "",
          "type": "uint256"
        },
        {
          "internalType": "bool",
          "name": "",
          "type": "bool"
        }
      ],
      "stateMutability": "view",
      "type": "function"
    },
    {
      "inputs": [
        {
          "internalType": "address",
          "name": "market",
          "type": "address"
        }
      ],
      "name": "getSupportedCollaterals",
      "outputs": [
        {
          "internalType": "address[]",
          "name": "collateralAddresses",
          "type": "address[]"
        }
      ],
      "stateMutability": "view",
      "type": "function"
    },
    {
      "inputs": [
        {
          "internalType": "address[]",
          "name": "vTokens",
          "type": "address[]"
        },
        {
          "internalType": "address",
          "name": "account",
          "type": "address"
        }
      ],
      "name": "getUserBalances",
      "outputs": [
        {
          "internalType": "uint256[]",
          "name": "balances",
          "type": "uint256[]"
        },
        {
          "internalType": "uint256[]",
          "name": "borrowBalances",
          "type": "uint256[]"
        }
      ],
      "stateMutability": "view",
      "type": "function"
    },
    {
      "inputs": [
        {
          "internalType": "address",
          "name": "underlyingToken",
          "type": "address"
        }
      ],
      "name": "getVTokenForUnderlying",
      "outputs": [
        {
          "internalType": "address",
          "name": "",
          "type": "address"
        }
      ],
      "stateMutability": "view",
      "type": "function"
    },
    {
      "inputs": [
        {
          "internalType": "address",
          "name": "market",
          "type": "address"
        },
        {
          "internalType": "address",
          "name": "collateral",
          "type": "address"
        }
      ],
      "name": "isCollateralSupported",
      "outputs": [
        {
          "internalType": "bool",
          "name": "isSupported",
          "type": "bool"
        }
      ],
      "stateMutability": "view",
      "type": "function"
    },
    {
      "inputs": [],
      "name": "oracle",
      "outputs": [
        {
          "internalType": "contract ResilientOracleInterface",
          "name": "",
          "type": "address"
        }
      ],
      "stateMutability": "view",
      "type": "function"
    },
    {
      "inputs": [],
      "name": "owner",
      "outputs": [
        {
          "internalType": "address",
          "name": "",
          "type": "address"
        }
      ],
      "stateMutability": "view",
      "type": "function"
    },
    {
      "inputs": [],
      "name": "renounceOwnership",
      "outputs": [],
      "stateMutability": "nonpayable",
      "type": "function"
    },
    {
      "inputs": [
        {
          "internalType": "address",
          "name": "_comptroller",
          "type": "address"
        }
      ],
      "name": "setComptroller",
      "outputs": [],
      "stateMutability": "nonpayable",
      "type": "function"
    },
    {
      "inputs": [
        {
          "internalType": "address",
          "name": "_oracle",
          "type": "address"
        }
      ],
      "name": "setOracle",
      "outputs": [],
      "stateMutability": "nonpayable",
      "type": "function"
    },
    {
      "inputs": [
        {
          "internalType": "address",
          "name": "newOwner",
          "type": "address"
        }
      ],
      "name": "transferOwnership",
      "outputs": [],
      "stateMutability": "nonpayable",
      "type": "function"
    }
  ],
  "transactionHash": "0x6c442dc81affe1198636dc396204a2af33d323984255a7b606da78932b0b37dc",
  "args": [
    "0x317c1A5739F39046E20b08ac9BeEa3f10fD43326",
    "0xd55A98150e0F9f5e3F6280FC25617A5C93d96007",
    "0x0BE61223F99E57b8b8B7033a77B54Adc7f7cF027"
  ],
  "numDeployments": 34,
  "solcInputHash": "0fea5cc4d237037126c3fb60329d2945",
  "bytecode": "0x60803461010757601f61344c38819003918201601f19168301916001600160401b0383118484101761010b57808492606094604052833981010312610107576100478161011f565b906100546020820161011f565b906001600160a01b039061006a9060400161011f565b169182156100f4575f80546001600160a01b031981168517825560405194916001600160a01b03909116907f8be0079c531659141344cd1fd0a4f28419497f9722a3daafe3b4186f6b6457e09080a3600180546001600160a01b039283166001600160a01b0319918216179091556002805493909216921691909117905561331890816101348239f35b631e4fbdf760e01b5f525f60045260245ffd5b5f80fd5b634e487b7160e01b5f52604160045260245ffd5b51906001600160a01b03821682036101075756fe6080806040526004361015610012575f80fd5b5f3560e01c908163104e999d14611c9057508063118e31b714611c1c5780632b7be8e814611bec5780633b9025c514611bc05780635ec88c7914611b125780635fe3b56714611aea57806362fd6add14610ff8578063646121321461156e57806366e2d09b146115365780636b5441a9146114db578063715018a614611497578063784661131461137d5780637adbf9731461133a5780637dc0d1d01461131257806381906b80146111125780638bad38dd146110cf5780638da5cb5b146110a8578063929fe9a114610ffd578063951afe9014610ff857806398f7ad4114610be55780639d7ec6c21461099f5780639f9184611461097c578063abfceffc146108cf578063b0772d0b14610815578063b3596f07146107f2578063bad193501461067e578063d4fac45d14610564578063d71275f6146104d1578063e94201c714610427578063f2fde38b146103b5578063f5125d3f146103815763f639ecd21461017c575f80fd5b34610308576020366003190112610308576004356001600160401b038111610308576101ac903690600401612013565b6101b5816123d0565b906101bf816123d0565b926101c9826123d0565b60025490926001600160a01b03909116915f5b828110610223576102038661021f876102118b604051958695606087526060870190611f0e565b908582036020870152611f0e565b908382036040850152611f0e565b0390f35b6001600160a01b0361023e610239838686612b4d565b612b5d565b1690604051630ae9d70b60e41b8152602081600481865afa908115610314575f91610350575b5061026f828a61244b565b52604051631f1f3b4560e31b8152602081600481865afa908115610314575f9161031f575b5061029f828861244b565b526040519163fc57d4df60e01b83526004830152602082602481885afa8015610314575f906102de575b600192506102d7828961244b565b52016101dc565b506020823d821161030c575b816102f7602093836120b4565b8101031261030857600191516102c9565b5f80fd5b3d91506102ea565b6040513d5f823e3d90fd5b90506020813d8211610348575b81610339602093836120b4565b8101031261030857515f610294565b3d915061032c565b90506020813d8211610379575b8161036a602093836120b4565b8101031261030857515f610264565b3d915061035d565b346103085760403660031901126103085761039a611ea6565b5060206103ad6103a8611ebc565b612cc3565b604051908152f35b34610308576020366003190112610308576103ce611ea6565b6103d6612fe3565b6001600160a01b03168015610414575f80546001600160a01b03198116831782556001600160a01b0316905f5160206132c35f395f51905f529080a3005b631e4fbdf760e01b5f525f60045260245ffd5b34610308576040366003190112610308575f6020610443611ea6565b602461044d611ebc565b916001600160a01b039061046090612498565b6040516305eff7ef60e21b81526001600160a01b039094166004850152929485938492165af18015610314575f9061049e575b602090604051908152f35b506020813d6020116104c9575b816104b8602093836120b4565b810103126103085760209051610493565b3d91506104ab565b3461030857602036600319011261030857600460206001600160a01b036104fe6104f9611ea6565b612498565b1660405192838092631f1f3b4560e31b82525afa908115610314575f91610532575b50604080519182526001602083015290f35b90506020813d60201161055c575b8161054d602093836120b4565b81010312610308575181610520565b3d9150610540565b346103085760403660031901126103085761057d611ea6565b610585611ebc565b906001600160a01b039061059890612498565b6040516370a0823160e01b81526001600160a01b03909316600484015216602082602481845afa918215610314575f92610649575b509060206004926040519384809263182df0f560e01b82525afa918215610314575f92610613575b6020670de0b6b3a764000061060a858561266f565b04604051908152f35b91506020823d602011610641575b8161062e602093836120b4565b810103126103085790519061060a6105f5565b3d9150610621565b91506020823d602011610676575b81610664602093836120b4565b810103126103085790519060206105cd565b3d9150610657565b346103085761068c36612043565b6001600160a01b03166106a0811515612af2565b6106a9826120d7565b926106b760405194856120b4565b8284526106c3836120d7565b602085019390601f190136853760405192632aff3bff60e21b845260048401525f83602481305afa928315610314575f936107ce575b505f949394929192905b808210610750578585604051918291602083019060208452518091526040830191905f5b818110610735575050500390f35b82511515845285945060209384019390920191600101610727565b946107646102398388879597989698612b4d565b6001600160a01b0316915f5b86518110156107bf57836001600160a01b0361078c838a61244b565b51161461079b57600101610770565b509295915093928060016107b081938961244b565b525b0190949394929192610703565b509295915093926001906107b2565b6107eb9193503d805f833e6107e381836120b4565b810190612473565b91856106f9565b346103085760203660031901126103085760206103ad610810611ea6565b612c37565b34610308575f3660031901126103085760015460405163b0772d0b60e01b8152905f90829060049082906001600160a01b03165afa908115610314575f916108ad575b5061086381516123d0565b905f5b8151811015610897576001906001600160a01b03610884828561244b565b5116610890828661244b565b5201610866565b6040516020808252819061021f90820186611ed2565b6108c991503d805f833e6108c181836120b4565b8101906125e5565b81610858565b34610308576020366003190112610308576108e8611ea6565b600154604051632aff3bff60e21b81526001600160a01b039283166004820152915f9183916024918391165afa908115610314575f91610962575b5061092e81516123d0565b905f5b8151811015610897576001906001600160a01b0361094f828561244b565b511661095b828661244b565b5201610931565b61097691503d805f833e6108c181836120b4565b81610923565b346103085760203660031901126103085760206103ad61099a611ea6565b612ba0565b34610308575f3660031901126103085760015460405163b0772d0b60e01b8152906001600160a01b03165f82600481845afa918215610314575f92610bc9575b508151906109ec826123d0565b916109f6816123d0565b91610a00826123d0565b945f5b838110610a2a576102038661021f8961021189604051958695606087526060870190611ed2565b6001600160a01b03610a3c828461244b565b5116600460206001600160a01b03610a54858761244b565b511660405192838092636f307dc360e01b82525afa5f9181610b8e575b50610b7257505f610a82838961244b565b525b60405190638e8f294b60e01b82526004820152606081602481875afa805f925f92610b3c575b50610aba575b5050600101610a03565b61271082028281046127101483151715610b2057670de0b6b3a76400009004610ae3848961244b565b5280610b345750905b6127108202918083046127101490151715610b2057670de0b6b3a764000060019204610b18828a61244b565b529088610ab0565b634e487b7160e01b5f52601160045260245ffd5b905090610aec565b909250610b60915060603d8111610b6b575b610b5881836120b4565b810190612b7e565b92915091908a610aaa565b503d610b4e565b610b7c838961244b565b6001600160a01b039091169052610a84565b9091506020813d8211610bc1575b81610ba9602093836120b4565b8101031261030857610bba906120ee565b908a610a71565b3d9150610b9c565b610bde9192503d805f833e6108c181836120b4565b90826109df565b34610308575f3660031901126103085760015460405163b0772d0b60e01b8152906001600160a01b03165f82600481845afa918215610314575f92610fdc575b508151610c31816120d7565b90610c3f60405192836120b4565b808252610c4e601f19916120d7565b015f5b818110610f9b5750506002546001600160a01b0316915f5b8451811015610f04576001600160a01b03610c84828761244b565b511690600460206001600160a01b03610c9d848a61244b565b511660405192838092636f307dc360e01b82525afa5f9181610ec9575b50610ec357505f915b6012926001600160a01b03169081610e56575b5f9360405163fc57d4df60e01b81528260048201526020816024818c5afa5f9181610e23575b50610e1b575b505f915f5f91604051638e8f294b60e01b81528160048201526060816024818d5afa5f815f935f93610df4575b50610d8d575b5050509060019760ff94939260405197610d4e89612085565b885260208801526040870152606086015260808501521660a0830152151560c0820152610d7b828661244b565b52610d86818561244b565b5001610c69565b92935094935094509361271081028181046127101482151715610b2057670de0b6b3a764000090049380610dec5750925b6127108402938085046127101490151715610b20579192670de0b6b3a7640000900491908760ff6001610d35565b905092610dbe565b91509250610e10915060603d8111610b6b57610b5881836120b4565b92919092915f610d2f565b945089610d02565b9091506020813d8211610e4e575b81610e3e602093836120b4565b810103126103085751908b610cfc565b3d9150610e31565b60405163313ce56760e01b8152602081600481865afa5f9181610e88575b50610e80575b50610cd6565b935088610e7a565b9091506020813d8211610ebb575b81610ea3602093836120b4565b8101031261030857610eb49061223a565b908a610e74565b3d9150610e96565b91610cc3565b9091506020813d8211610efc575b81610ee4602093836120b4565b8101031261030857610ef5906120ee565b9088610cba565b3d9150610ed7565b826040518091602082016020835281518091526020604084019201905f5b818110610f30575050500390f35b91935091602060e060019260c08751858060a01b038151168352858060a01b0385820151168584015260408101516040840152606081015160608401526080810151608084015260ff60a08201511660a08401520151151560c0820152019401910191849392610f22565b602090604051610faa81612085565b5f81525f838201525f60408201525f60608201525f60808201525f60a08201525f60c082015282828601015201610c51565b610ff19192503d805f833e6108c181836120b4565b9082610c25565b611fe7565b3461030857604036600319011261030857611016611ea6565b6020611020611ebc565b60015460405163929fe9a160e01b81526001600160a01b0394851660048201529184166024830152909283916044918391165afa8015610314575f9061106e575b6020906040519015158152f35b506020813d6020116110a0575b81611088602093836120b4565b810103126103085761109b602091612b71565b611061565b3d915061107b565b34610308575f366003190112610308575f546040516001600160a01b039091168152602090f35b34610308576020366003190112610308576110e8611ea6565b6110f0612fe3565b600180546001600160a01b0319166001600160a01b0392909216919091179055005b346103085761112036612043565b9091906001600160a01b0316611137811515612af2565b611140836123d0565b9161114a846123d0565b915f5b85811061117e576111708561021f86604051938493604085526040850190611f0e565b908382036020850152611f0e565b6001600160a01b03611194610239838987612b4d565b16906040516370a0823160e01b8152836004820152602081602481865afa5f91816112df575b50611253575060206024925f6111d0848a61244b565b525b604051938480926395dd919360e01b82528760048301525afa805f9161121f575b6001935061120f57505f611207828761244b565b525b0161114d565b611219828761244b565b52611209565b90506020833d821161124b575b81611239602093836120b4565b810103126103085760019251906111f3565b3d915061122c565b60405163182df0f560e01b815290602082600481875afa918215610314575f926112a2575b5092670de0b6b3a764000061129160209360249661266f565b0461129c848a61244b565b526111d2565b9150926020823d82116112d7575b816112bd602093836120b4565b810103126103085790519092670de0b6b3a7640000611278565b3d91506112b0565b9091506020813d821161130a575b816112fa602093836120b4565b81010312610308575190896111ba565b3d91506112ed565b34610308575f366003190112610308576002546040516001600160a01b039091168152602090f35b3461030857602036600319011261030857611353611ea6565b61135b612fe3565b600280546001600160a01b0319166001600160a01b0392909216919091179055005b3461030857604036600319011261030857611396611ea6565b61139e611ebc565b604051633230909960e11b81525f81600481305afa908115610314575f9161146f575b506001600160a01b03928316925f928392911690825b815181101561146357856001600160a01b036113f3838561244b565b51161461145a575b826001600160a01b0361140e838561244b565b511614611451575b848061144a575b611429576001016113d7565b505050602092505b81611442575b506040519015158152f35b905082611437565b508361141d565b60019350611416565b600194506113fb565b50505060209250611431565b61148b91503d805f833e61148381836120b4565b8101906122a5565b505050509050836113c1565b34610308575f366003190112610308576114af612fe3565b5f80546001600160a01b0319811682556001600160a01b03165f5160206132c35f395f51905f528280a3005b3461030857602036600319011261030857600460206001600160a01b036115036104f9611ea6565b1660405192838092630ae9d70b60e41b82525afa908115610314575f916105325750604080519182526001602083015290f35b346103085760203660031901126103085761021f61155a611555611ea6565b6129ba565b604051918291602083526020830190611ed2565b34610308575f3660031901126103085760405163b0772d0b60e01b81525f81600481305afa908115610314575f91611ad0575b508051906115ae826123d0565b916115b881612402565b926115c282612402565b936115cc836123d0565b916115d6846123d0565b60025490946001600160a01b03909116905f5b8181106116625761161c8861021f896116548a6116468f6116388d61162a8e6040519b8c9b60c08d5260c08d0190611ed2565b908b820360208d0152611ed2565b9089820360408b0152611f41565b908782036060890152611f41565b908582036080870152611fb1565b9083820360a0850152611f0e565b6001600160a01b03611674828a61244b565b511690604051636f307dc360e01b8152602081600481865afa5f9181611a95575b5061183657505f6116a6828761244b565b526040516395d89b4160e01b81525f81600481865afa908115610314575f9161181c575b506116d5828861244b565b526116e0818761244b565b506040516306fdde0360e01b81525f81600481865afa908115610314575f916117fa575b5061170f828c61244b565b5261171a818b61244b565b5060405163313ce56760e01b8152602081600481865afa908115610314575f916117c1575b5060ff61174c838a61244b565b911690525b6040519163fc57d4df60e01b83526004830152602082602481875afa8015610314575f9061178f575b60019250611788828a61244b565b52016115e9565b506020823d82116117b9575b816117a8602093836120b4565b81010312610308576001915161177a565b3d915061179b565b90506020813d82116117f2575b816117db602093836120b4565b81010312610308576117ec9061223a565b8b61173f565b3d91506117ce565b61181691503d805f833e61180e81836120b4565b810190612995565b8b611704565b61183091503d805f833e61180e81836120b4565b8b6116ca565b611840828761244b565b6001600160a01b03909116908190526040516395d89b4160e01b81525f81600481855afa5f9181611a79575b50611a5e57506040516395d89b4160e01b81525f81600481875afa908115610314575f91611a44575b506118a0838961244b565b526118ab828861244b565b505b818b6040516306fdde0360e01b81525f81600481875afa5f9181611a28575b50611a0d5750506040516306fdde0360e01b81529190505f82600481875afa90811561031457611915848e6020946004965f916119f3575b5061190f838361244b565b5261244b565b505b60405163313ce56760e01b815292839182905afa5f91816119b8575b506119ac575060405163313ce56760e01b8152602081600481865afa908115610314575f91611973575b5060ff61196a838a61244b565b91169052611751565b90506020813d82116119a4575b8161198d602093836120b4565b810103126103085761199e9061223a565b8b61195d565b3d9150611980565b60ff61196a838a61244b565b9091506020813d82116119eb575b816119d3602093836120b4565b81010312610308576119e49061223a565b908c611933565b3d91506119c6565b611a0791503d805f833e61180e81836120b4565b5f611904565b8282611a229261190f6020966004989661244b565b50611917565b611a3d9192503d805f833e61180e81836120b4565b908f6118cc565b611a5891503d805f833e61180e81836120b4565b8c611895565b611a68838961244b565b52611a73828861244b565b506118ad565b611a8e9192503d805f833e61180e81836120b4565b908d61186c565b9091506020813d8211611ac8575b81611ab0602093836120b4565b8101031261030857611ac1906120ee565b908c611695565b3d9150611aa3565b611ae491503d805f833e6107e381836120b4565b816115a1565b34610308575f366003190112610308576001546040516001600160a01b039091168152602090f35b3461030857602036600319011261030857611b2b611ea6565b600154604051635ec88c7960e01b81526001600160a01b0392831660048201529160609183916024918391165afa8015610314575f905f5f91611b7f575b6060935060405192835260208301526040820152f35b5050506060813d606011611bb8575b81611b9b606093836120b4565b810103126103085780516020820151604090920151606092611b69565b3d9150611b8e565b3461030857604036600319011261030857611bd9611ea6565b5060206103ad611be7611ebc565b6126ad565b34610308576020366003190112610308576020611c0a6104f9611ea6565b6040516001600160a01b039091168152f35b3461030857604036600319011261030857611c35611ea6565b6020611c3f611ebc565b916001600160a01b0390611c5290612498565b6040516395dd919360e01b81526001600160a01b03909416600485015283916024918391165afa8015610314575f9061049e57602090604051908152f35b3461030857604036600319011261030857611ca9611ea6565b50611cb2611ebc565b633230909960e11b8252905f81600481305afa8015610314575f905f925f905f92611e81575b50611ce384516123d0565b90611cee8551612402565b91611cf986516123d0565b94611d0487516123d0565b976001600160a01b03169081611dd2575b50505f5b8651811015611d84576001906001600160a01b03611d37828a61244b565b5116611d43828561244b565b52611d4e818561244b565b51611d59828761244b565b52611d64818661244b565b5060ff611d71828861244b565b5116611d7d828961244b565b5201611d19565b611da88261021f88611dc488611db68e604051978897608089526080890190611ed2565b908782036020890152611f0e565b908582036040870152611f41565b908382036060850152611fb1565b5f91929850611dfe90604051938492839263010320d760e71b8452604060048501526044840190611ed2565b9060248301520381305afa908115610314575f91611e20575b50958780611d15565b90503d805f833e611e3181836120b4565b8101906040818303126103085780516001600160401b0381116103085782611e5a918301612248565b60208201519092906001600160401b03811161030857611e7a9201612248565b5087611e17565b92505050611e9991503d805f833e61148381836120b4565b5091939050919285611cd8565b600435906001600160a01b038216820361030857565b602435906001600160a01b038216820361030857565b90602080835192838152019201905f5b818110611eef5750505090565b82516001600160a01b0316845260209384019390920191600101611ee2565b90602080835192838152019201905f5b818110611f2b5750505090565b8251845260209384019390920191600101611f1e565b9080602083519182815201916020808360051b8301019401925f915b838310611f6c57505050505090565b909192939460208080600193601f19868203018752818a518051918291828552018484015e5f828201840152601f01601f191601019701959491909101920190611f5d565b90602080835192838152019201905f5b818110611fce5750505090565b825160ff16845260209384019390920191600101611fc1565b3461030857604036600319011261030857612000611ea6565b5060206103ad61200e611ebc565b61297d565b9181601f84011215610308578235916001600160401b038311610308576020808501948460051b01011161030857565b604060031982011261030857600435906001600160401b0382116103085761206d91600401612013565b90916024356001600160a01b03811681036103085790565b60e081019081106001600160401b038211176120a057604052565b634e487b7160e01b5f52604160045260245ffd5b601f909101601f19168101906001600160401b038211908210176120a057604052565b6001600160401b0381116120a05760051b60200190565b51906001600160a01b038216820361030857565b9080601f83011215610308578151612119816120d7565b9261212760405194856120b4565b81845260208085019260051b82010192831161030857602001905b82821061214f5750505090565b6020809161215c846120ee565b815201910190612142565b81601f82011215610308578051906001600160401b0382116120a0576040519261219b601f8401601f1916602001856120b4565b8284526020838301011161030857815f9260208093018386015e8301015290565b9080601f830112156103085781516121d3816120d7565b926121e160405194856120b4565b81845260208085019260051b820101918383116103085760208201905b83821061220d57505050505090565b81516001600160401b0381116103085760209161222f87848094880101612167565b8152019101906121fe565b519060ff8216820361030857565b9080601f8301121561030857815161225f816120d7565b9261226d60405194856120b4565b81845260208085019260051b82010192831161030857602001905b8282106122955750505090565b8151815260209182019101612288565b9160c0838303126103085782516001600160401b03811161030857826122cc918501612102565b60208401519093906001600160401b03811161030857836122ee918301612102565b60408201519093906001600160401b03811161030857816123109184016121bc565b60608301519093906001600160401b03811161030857826123329185016121bc565b60808401519093906001600160401b03811161030857810183601f8201121561030857805190612361826120d7565b9161236f60405193846120b4565b80835260208084019160051b8301019186831161030857602001905b8282106123b85750505060a08201519093906001600160401b038111610308576123b59201612248565b90565b602080916123c58461223a565b81520191019061238b565b906123da826120d7565b6123e760405191826120b4565b82815280926123f8601f19916120d7565b0190602036910137565b9061240c826120d7565b61241960405191826120b4565b828152809261242a601f19916120d7565b01905f5b82811061243a57505050565b80606060208093850101520161242e565b805182101561245f5760209160051b010190565b634e487b7160e01b5f52603260045260245ffd5b906020828203126103085781516001600160401b038111610308576123b59201612102565b60405163b0772d0b60e01b8152905f82600481305afa918215610314575f926125c9575b505f5b8251811015612568576001600160a01b036124da828561244b565b5116604051636f307dc360e01b8152602081600481855afa5f918161252d575b5061250b5750506001905b016124bf565b6001600160a01b038481169116146125265750600190612505565b9250505090565b9091506020813d8211612560575b81612548602093836120b4565b8101031261030857612559906120ee565b905f6124fa565b3d915061253b565b60405162461bcd60e51b815260206004820152603360248201527f56656e7573476174657761793a2076546f6b656e206e6f7420666f756e64206660448201527237b9103ab73232b9363cb4b733903a37b5b2b760691b6064820152608490fd5b6125de9192503d805f833e6107e381836120b4565b905f6124bc565b602081830312610308578051906001600160401b03821161030857019080601f8301121561030857815190612619826120d7565b9261262760405194856120b4565b82845260208085019360051b82010191821161030857602001915b81831061264f5750505090565b82516001600160a01b038116810361030857815260209283019201612642565b81810292918115918404141715610b2057565b811561268c570490565b634e487b7160e01b5f52601260045260245ffd5b91908201809211610b2057565b6001600160a01b0316801561297857600154604051632aff3bff60e21b81526004810183905291905f90839060249082906001600160a01b03165afa918215610314575f9261295c575b50815115612956576002546001600160a01b031692915f908190815b815181101561292b576001600160a01b0361272e828461244b565b511660405163fc57d4df60e01b81528160048201526020816024818c5afa5f91816128f8575b506127655750506001905b01612713565b906040516370a0823160e01b8152876004820152602081602481855afa908115610314575f916128c7575b5080612830575b506020602491604051928380926395dd919360e01b82528b60048301525afa5f91816127fd575b506127ce575b505060019061275f565b80156127c45794670de0b6b3a76400006127ee6127f5936001959861266f565b04906126a0565b93905f6127c4565b9091506020813d8211612828575b81612818602093836120b4565b810103126103085751905f6127be565b3d915061280b565b60405163182df0f560e01b8152919591906020826004818a5afa9081156103145784925f92612889575b5092670de0b6b3a76400006127ee6020948261287b6128819660249961266f565b0461266f565b959150612797565b925090506020823d82116128bf575b816128a5602093836120b4565b810103126103085790518391670de0b6b3a764000061285a565b3d9150612898565b90506020813d82116128f0575b816128e1602093836120b4565b8101031261030857515f612790565b3d91506128d4565b9091506020813d8211612923575b81612913602093836120b4565b810103126103085751905f612754565b3d9150612906565b505091509192508015612956576127108202918083046127101490151715610b20576123b591612682565b50505f90565b6129719192503d805f833e6108c181836120b4565b905f6126f7565b505f90565b6001600160a01b03811615612978576123b590612cdb565b906020828203126103085781516001600160401b038111610308576123b59201612167565b604051633230909960e11b815290915f82600481305afa918215610314575f92612ad0575b505f915f5b8151811015612ac8576001600160a01b036129ff828461244b565b51166001600160a01b03861614612a18576001016129e4565b5090915060015b15612aad5780515f198101908111610b2057612a3a906123d0565b905f935f5b8251811015612aa5576001600160a01b03612a5a828561244b565b51166001600160a01b03831603612a74575b600101612a3f565b946001600160a01b03612a87878561244b565b5116612a93828661244b565b525f198114610b205760010194612a6c565b509193505050565b509050604051612abe6020826120b4565b5f81525f36813790565b509091612a1f565b612ae59192503d805f833e61148381836120b4565b505050509050905f6129df565b15612af957565b60405162461bcd60e51b815260206004820152602660248201527f56656e7573476174657761793a207a65726f2061646472657373206e6f7420616044820152651b1b1bddd95960d21b6064820152608490fd5b919081101561245f5760051b0190565b356001600160a01b03811681036103085790565b5190811515820361030857565b9081606091031261030857612b9281612b71565b916040602083015192015190565b6001600160a01b0390612bb290612498565b1680156129785760025460405163fc57d4df60e01b81526004810192909252602090829060249082906001600160a01b03165afa5f9181612c03575b50612bf857505f90565b6402540be400900490565b9091506020813d602011612c2f575b81612c1f602093836120b4565b810103126103085751905f612bee565b3d9150612c12565b6001600160a01b0390612c4990612498565b1680156129785760025460405163fc57d4df60e01b81526004810192909252602090829060249082906001600160a01b03165afa5f9181612c8f575b506123b557505f90565b9091506020813d602011612cbb575b81612cab602093836120b4565b810103126103085751905f612c85565b3d9150612c9e565b6001600160a01b03811615612978576123b590613009565b6001546001600160a01b0316803b1561295657604051632aff3bff60e21b81526001600160a01b0390921660048301819052915f81602481855afa5f9181612fc7575b50612d2a575050505f90565b92835115612fbf57915f915f915f9060018060a01b0360025416915b8751811015612f94576001600160a01b03612d61828a61244b565b5116602460206001600160a01b03612d79858d61244b565b5116604051928380926370a0823160e01b82528860048301525afa5f9181612f61575b50612dad5750506001905b01612d46565b8015612f5757600460206001600160a01b03612dc9868e61244b565b51166040519283809263182df0f560e01b82525afa5f9181612f24575b50612df657505050600190612da7565b670de0b6b3a764000091612e0a919061266f565b0460405163fc57d4df60e01b8152826004820152602081602481895afa5f9181612ef1575b50612e3f57505050600190612da7565b612e59612e6192670de0b6b3a7640000929a949a9061266f565b0480926126a0565b9660405190638e8f294b60e01b82526004820152606081602481895afa805f925f92612ecb575b50612e9857505050600190612da7565b6127ee612ebd936001959993670de0b6b3a76400009380155f14612ec357509061266f565b94612da7565b90509061266f565b909250612ee6915060603d8111610b6b57610b5881836120b4565b92915091905f612e88565b9091506020813d8211612f1c575b81612f0c602093836120b4565b810103126103085751905f612e2f565b3d9150612eff565b9091506020813d8211612f4f575b81612f3f602093836120b4565b810103126103085751905f612de6565b3d9150612f32565b5050600190612da7565b9091506020813d8211612f8c575b81612f7c602093836120b4565b810103126103085751905f612d9c565b3d9150612f6f565b505050509192508015612956576127108202918083046127101490151715610b20576123b591612682565b925050505f90565b612fdc9192503d805f833e6108c181836120b4565b905f612d1e565b5f546001600160a01b03163303612ff657565b63118cdaa760e01b5f523360045260245ffd5b6001546001600160a01b0316803b1561295657604051632aff3bff60e21b81526001600160a01b0390921660048301819052915f81602481855afa5f91816132a6575b50613058575050505f90565b92835115612fbf57915f915f915f9060018060a01b0360025416915b8751811015612f94576001600160a01b0361308f828a61244b565b5116602460206001600160a01b036130a7858d61244b565b5116604051928380926370a0823160e01b82528860048301525afa5f9181613273575b506130db5750506001905b01613074565b801561326957600460206001600160a01b036130f7868e61244b565b51166040519283809263182df0f560e01b82525afa5f9181613236575b50613124575050506001906130d5565b670de0b6b3a764000091613138919061266f565b0460405163fc57d4df60e01b8152826004820152602081602481895afa5f9181613203575b5061316d575050506001906130d5565b61318461318c92670de0b6b3a7640000929061266f565b0480986126a0565b9660405191638e8f294b60e01b83526004830152606082602481895afa5f92816131e0575b506131c05750506001906130d5565b95670de0b6b3a76400006127ee6131da936001959961266f565b946130d5565b6131f991935060603d8111610b6b57610b5881836120b4565b509050915f6131b1565b9091506020813d821161322e575b8161321e602093836120b4565b810103126103085751905f61315d565b3d9150613211565b9091506020813d8211613261575b81613251602093836120b4565b810103126103085751905f613114565b3d9150613244565b50506001906130d5565b9091506020813d821161329e575b8161328e602093836120b4565b810103126103085751905f6130ca565b3d9150613281565b6132bb9192503d805f833e6108c181836120b4565b905f61304c56fe8be0079c531659141344cd1fd0a4f28419497f9722a3daafe3b4186f6b6457e0a264697066735822122019f604f092ea1d7a81281943099139a75d8637717d825989fced076c8400596264736f6c634300081e0033",
  "devdoc": {
    "details": "Contains all read/view functions from v1, separate from write operations",
    "errors": {
      "OwnableInvalidOwner(address)": [
        {
          "details": "The owner is not a valid owner account. (eg. `address(0)`)"
        }
      ],
      "OwnableUnauthorizedAccount(address)": [
        {
          "details": "The caller account is not authorized to perform an operation."
        }
      ]
    },
    "kind": "dev",
    "methods": {
      "getAssetPrice(address)": {
        "params": {
          "underlyingToken": "The underlying asset address"
        },
        "returns": {
          "price": "Price in 18 decimals"
        }
      },
      "getAssetPrice8(address)": {
        "params": {
          "underlyingToken": "The underlying asset address"
        },
        "returns": {
          "price": "Price in 8 decimals (for consistency with other protocols)"
        }
      },
      "getCollateralFactors()": {
        "returns": {
          "assets": "Array of underlying token addresses",
          "lltvBps": "Array of liquidation threshold values in basis points",
          "ltvBps": "Array of LTV values in basis points"
        }
      },
      "getCurrentLtvBps(address,address)": {
        "details": "This is the actual current LTV = totalDebt / totalCollateral * 10000",
        "params": {
          "user": "The user address"
        },
        "returns": {
          "_0": "Current LTV in basis points (e.g., 6500 = 65%)"
        }
      },
      "getLiquidationLtvBps(address,address)": {
        "details": "Position is liquidatable when currentLTV >= liquidationLtvBps",
        "params": {
          "user": "The user address"
        },
        "returns": {
          "_0": "Weighted liquidation threshold in basis points"
        }
      },
      "getLtv(address,address)": {
        "details": "Uses collateralFactor which determines how much can be borrowed"
      },
      "getMaxLtv(address,address)": {
        "details": "Uses liquidationThreshold which is higher than LTV - the point at which liquidation occurs"
      },
      "getReserveConfigs()": {
        "details": "Returns price, LTV (collateral factor), liquidation threshold for each market",
        "returns": {
          "configs": "Array of reserve configuration data"
        }
      },
      "owner()": {
        "details": "Returns the address of the current owner."
      },
      "renounceOwnership()": {
        "details": "Leaves the contract without owner. It will not be possible to call `onlyOwner` functions. Can only be called by the current owner. NOTE: Renouncing ownership will leave the contract without an owner, thereby disabling any functionality that is only available to the owner."
      },
      "transferOwnership(address)": {
        "details": "Transfers ownership of the contract to a new account (`newOwner`). Can only be called by the current owner."
      }
    },
    "title": "VenusGatewayView",
    "version": 1
  },
  "userdoc": {
    "kind": "user",
    "methods": {
      "getAssetPrice(address)": {
        "notice": "Get the price of an underlying asset in USD (18 decimals)"
      },
      "getAssetPrice8(address)": {
        "notice": "Get the price of an underlying asset normalized to 8 decimals"
      },
      "getCollateralFactors()": {
        "notice": "Get collateral factors for all markets (similar to Compound's getCollateralFactors)"
      },
      "getCurrentLtvBps(address,address)": {
        "notice": "Returns the current LTV (debt/collateral) in basis points"
      },
      "getLiquidationLtvBps(address,address)": {
        "notice": "Returns the liquidation LTV threshold in basis points"
      },
      "getLtv(address,address)": {
        "notice": "Returns the LTV (borrowing power) for a user in basis points"
      },
      "getMaxLtv(address,address)": {
        "notice": "Returns the LLTV (liquidation threshold) for a user in basis points"
      },
      "getReserveConfigs()": {
        "notice": "Get reserve configuration data for all Venus markets (for frontend LTV calculations)"
      }
    },
    "notice": "View-only gateway for Venus protocol",
    "version": 1
  },
  "storageLayout": {
    "storage": [
      {
        "astId": 1578,
        "contract": "contracts/v2/gateways/venus/VenusGatewayView.sol:VenusGatewayView",
        "label": "_owner",
        "offset": 0,
        "slot": "0",
        "type": "t_address"
      },
      {
        "astId": 39941,
        "contract": "contracts/v2/gateways/venus/VenusGatewayView.sol:VenusGatewayView",
        "label": "comptroller",
        "offset": 0,
        "slot": "1",
        "type": "t_contract(ComptrollerInterface)4386"
      },
      {
        "astId": 39944,
        "contract": "contracts/v2/gateways/venus/VenusGatewayView.sol:VenusGatewayView",
        "label": "oracle",
        "offset": 0,
        "slot": "2",
        "type": "t_contract(ResilientOracleInterface)4406"
      }
    ],
    "types": {
      "t_address": {
        "encoding": "inplace",
        "label": "address",
        "numberOfBytes": "20"
      },
      "t_contract(ComptrollerInterface)4386": {
        "encoding": "inplace",
        "label": "contract ComptrollerInterface",
        "numberOfBytes": "20"
      },
      "t_contract(ResilientOracleInterface)4406": {
        "encoding": "inplace",
        "label": "contract ResilientOracleInterface",
        "numberOfBytes": "20"
      }
    }
  }
}