{
  "address": "0x666743ef9098319C54D1b34429C3E69a2166Df0E",
  "abi": [
    {
      "inputs": [
        {
          "internalType": "address",
          "name": "router",
          "type": "address"
        },
        {
          "internalType": "address",
          "name": "_comptroller",
          "type": "address"
        }
      ],
      "stateMutability": "nonpayable",
      "type": "constructor"
    },
    {
      "inputs": [
        {
          "internalType": "address",
          "name": "target",
          "type": "address"
        }
      ],
      "name": "AddressEmptyCode",
      "type": "error"
    },
    {
      "inputs": [
        {
          "internalType": "address",
          "name": "account",
          "type": "address"
        }
      ],
      "name": "AddressInsufficientBalance",
      "type": "error"
    },
    {
      "inputs": [],
      "name": "FailedInnerCall",
      "type": "error"
    },
    {
      "inputs": [],
      "name": "ReentrancyGuardReentrantCall",
      "type": "error"
    },
    {
      "inputs": [
        {
          "internalType": "address",
          "name": "token",
          "type": "address"
        }
      ],
      "name": "SafeERC20FailedOperation",
      "type": "error"
    },
    {
      "inputs": [],
      "name": "ROUTER",
      "outputs": [
        {
          "internalType": "address",
          "name": "",
          "type": "address"
        }
      ],
      "stateMutability": "view",
      "type": "function"
    },
    {
      "inputs": [
        {
          "components": [
            {
              "internalType": "enum ProtocolTypes.LendingOp",
              "name": "op",
              "type": "uint8"
            },
            {
              "internalType": "address",
              "name": "token",
              "type": "address"
            },
            {
              "internalType": "address",
              "name": "user",
              "type": "address"
            },
            {
              "internalType": "uint256",
              "name": "amount",
              "type": "uint256"
            },
            {
              "internalType": "bytes",
              "name": "context",
              "type": "bytes"
            },
            {
              "components": [
                {
                  "internalType": "uint256",
                  "name": "index",
                  "type": "uint256"
                }
              ],
              "internalType": "struct ProtocolTypes.InputPtr",
              "name": "input",
              "type": "tuple"
            }
          ],
          "internalType": "struct ProtocolTypes.LendingInstruction[]",
          "name": "instrs",
          "type": "tuple[]"
        },
        {
          "internalType": "address",
          "name": "caller",
          "type": "address"
        },
        {
          "components": [
            {
              "internalType": "address",
              "name": "token",
              "type": "address"
            },
            {
              "internalType": "uint256",
              "name": "amount",
              "type": "uint256"
            }
          ],
          "internalType": "struct ProtocolTypes.Output[]",
          "name": "inputs",
          "type": "tuple[]"
        }
      ],
      "name": "authorize",
      "outputs": [
        {
          "internalType": "address[]",
          "name": "targets",
          "type": "address[]"
        },
        {
          "internalType": "bytes[]",
          "name": "data",
          "type": "bytes[]"
        },
        {
          "components": [
            {
              "internalType": "address",
              "name": "token",
              "type": "address"
            },
            {
              "internalType": "uint256",
              "name": "amount",
              "type": "uint256"
            }
          ],
          "internalType": "struct ProtocolTypes.Output[]",
          "name": "produced",
          "type": "tuple[]"
        }
      ],
      "stateMutability": "view",
      "type": "function"
    },
    {
      "inputs": [],
      "name": "comptroller",
      "outputs": [
        {
          "internalType": "contract ComptrollerInterface",
          "name": "",
          "type": "address"
        }
      ],
      "stateMutability": "view",
      "type": "function"
    },
    {
      "inputs": [
        {
          "components": [
            {
              "internalType": "enum ProtocolTypes.LendingOp",
              "name": "op",
              "type": "uint8"
            },
            {
              "internalType": "address",
              "name": "token",
              "type": "address"
            },
            {
              "internalType": "address",
              "name": "user",
              "type": "address"
            },
            {
              "internalType": "uint256",
              "name": "amount",
              "type": "uint256"
            },
            {
              "internalType": "bytes",
              "name": "context",
              "type": "bytes"
            },
            {
              "components": [
                {
                  "internalType": "uint256",
                  "name": "index",
                  "type": "uint256"
                }
              ],
              "internalType": "struct ProtocolTypes.InputPtr",
              "name": "input",
              "type": "tuple"
            }
          ],
          "internalType": "struct ProtocolTypes.LendingInstruction[]",
          "name": "instrs",
          "type": "tuple[]"
        },
        {
          "internalType": "address",
          "name": "",
          "type": "address"
        },
        {
          "components": [
            {
              "internalType": "address",
              "name": "token",
              "type": "address"
            },
            {
              "internalType": "uint256",
              "name": "amount",
              "type": "uint256"
            }
          ],
          "internalType": "struct ProtocolTypes.Output[]",
          "name": "inputs",
          "type": "tuple[]"
        }
      ],
      "name": "deauthorize",
      "outputs": [
        {
          "internalType": "address[]",
          "name": "targets",
          "type": "address[]"
        },
        {
          "internalType": "bytes[]",
          "name": "data",
          "type": "bytes[]"
        }
      ],
      "stateMutability": "view",
      "type": "function"
    },
    {
      "inputs": [
        {
          "components": [
            {
              "internalType": "address",
              "name": "token",
              "type": "address"
            },
            {
              "internalType": "uint256",
              "name": "amount",
              "type": "uint256"
            }
          ],
          "internalType": "struct ProtocolTypes.Output[]",
          "name": "inputs",
          "type": "tuple[]"
        },
        {
          "internalType": "bytes",
          "name": "data",
          "type": "bytes"
        }
      ],
      "name": "processLendingInstruction",
      "outputs": [
        {
          "components": [
            {
              "internalType": "address",
              "name": "token",
              "type": "address"
            },
            {
              "internalType": "uint256",
              "name": "amount",
              "type": "uint256"
            }
          ],
          "internalType": "struct ProtocolTypes.Output[]",
          "name": "outputs",
          "type": "tuple[]"
        }
      ],
      "stateMutability": "nonpayable",
      "type": "function"
    }
  ],
  "transactionHash": "0xc2b4ae6fdb912937f2586ec05e5c0497dbf280015fcd639e9a9d8cdd2674c1c8",
  "args": [
    "0x97bF826cD87784c9e5A924F8d97918632AA4BFfC",
    "0x317c1A5739F39046E20b08ac9BeEa3f10fD43326"
  ],
  "numDeployments": 23,
  "solcInputHash": "cf5ff5c132e6b3e2cf29e3be8b528fd9",
  "bytecode": "0x60c060405234801561000f575f5ffd5b506040516131e03803806131e083398101604081905261002e916100ab565b816001600160a01b0381166100745760405162461bcd60e51b81526020600482015260086024820152670726f757465723d360c41b604482015260640160405180910390fd5b6001600160a01b0390811660805260015f551660a052506100dc565b80516001600160a01b03811681146100a6575f5ffd5b919050565b5f5f604083850312156100bc575f5ffd5b6100c583610090565b91506100d360208401610090565b90509250929050565b60805160a0516130b461012c5f395f818160bd0152818161043c01528181610d360152818161105e015281816114110152818161242e015261260c01525f8181605e015261057801526130b45ff3fe608060405234801561000f575f5ffd5b5060043610610055575f3560e01c806332fe7b261461005957806352ed5875146100965780635fe3b567146100b8578063aad11a3f146100df578063ae4be46d14610100575b5f5ffd5b6100807f000000000000000000000000000000000000000000000000000000000000000081565b60405161008d91906128ac565b60405180910390f35b6100a96100a4366004612926565b610120565b60405161008d93929190612ad5565b6100807f000000000000000000000000000000000000000000000000000000000000000081565b6100f26100ed366004612926565b610241565b60405161008d929190612b0d565b61011361010e366004612b3a565b61056b565b60405161008d9190612bd0565b60608060605f6101338989898989610b90565b905080602001516001600160401b0381111561015157610151612be2565b60405190808252806020026020018201604052801561017a578160200160208202803683370190505b50935080602001516001600160401b0381111561019957610199612be2565b6040519080825280602002602001820160405280156101cc57816020015b60608152602001906001900390816101b75790505b5081519093506001600160401b038111156101e9576101e9612be2565b60405190808252806020026020018201604052801561022257816020015b61020f612896565b8152602001906001900390816102075790505b5091506102358989898989898989610c31565b50955095509592505050565b606080856001600160401b0381111561025c5761025c612be2565b604051908082528060200260200182016040528015610285578160200160208202803683370190505b509150856001600160401b038111156102a0576102a0612be2565b6040519080825280602002602001820160405280156102d357816020015b60608152602001906001900390816102be5790505b5090505f5b8681101561056057368888838181106102f3576102f3612bf6565b90506020028101906103059190612c0a565b90505f6103186040830160208401612c28565b905060a082013586111561035557868660a084013581811061033c5761033c612bf6565b6103529260206040909202019081019150612c28565b90505b60026103646020840184612c65565b600981111561037557610375612c43565b03610415575f6103848261140d565b90508086858151811061039957610399612bf6565b6001600160a01b0392909216602092830291909101820152604080513060248201525f60448083019190915282518083039091018152606490910190915290810180516001600160e01b031663095ea7b360e01b179052855186908690811061040457610404612bf6565b602002602001018190525050610556565b60036104246020840184612c65565b600981111561043557610435612c43565b036104f6577f000000000000000000000000000000000000000000000000000000000000000085848151811061046d5761046d612bf6565b6001600160a01b039092166020928302919091019091015260405163ddbf54fd60e01b906104a19030905f90602401612c7e565b604051602081830303815290604052906001600160e01b0319166020820180516001600160e01b0383818316178352505050508484815181106104e6576104e6612bf6565b6020026020010181905250610556565b5f85848151811061050957610509612bf6565b60200260200101906001600160a01b031690816001600160a01b03168152505060405180602001604052805f81525084848151811061054a5761054a612bf6565b60200260200101819052505b50506001016102d8565b509550959350505050565b6060336001600160a01b037f000000000000000000000000000000000000000000000000000000000000000016146105e15760405162461bcd60e51b815260206004820152601460248201527313db9b1e481c9bdd5d195c8818d85b8818d85b1b60621b60448201526064015b60405180910390fd5b5f6105ee83850185612d30565b6020810151606082015160a08301515192935090918711156106615787878460a001515f015181811061062357610623612bf6565b6106399260206040909202019081019150612c28565b915087878460a001515f015181811061065457610654612bf6565b9050604002016020013590505b5f8351600981111561067557610675612c43565b1480610693575060018351600981111561069157610691612c43565b145b156106df576106a7828460400151836115a0565b604080515f80825260208201909252906106d7565b6106c4612896565b8152602001906001900390816106bc5790505b509350610b85565b6002835160098111156106f4576106f4612c43565b03610783575f5f61070a8486604001518561188a565b604080516001808252818301909252929450909250816020015b61072c612896565b8152602001906001900390816107245790505095506040518060400160405280836001600160a01b0316815260200182815250865f8151811061077157610771612bf6565b60200260200101819052505050610b85565b60038351600981111561079857610798612c43565b0361081e576107ac82846040015183611e45565b60408051600180825281830190925290816020015b6107c9612896565b8152602001906001900390816107c15790505093506040518060400160405280836001600160a01b0316815260200182815250845f8151811061080e5761080e612bf6565b6020026020010181905250610b85565b60048351600981111561083357610833612c43565b036108bd575f61084883856040015184611f2e565b604080516001808252818301909252919250816020015b610867612896565b81526020019060019003908161085f5790505094506040518060400160405280846001600160a01b0316815260200182815250855f815181106108ac576108ac612bf6565b602002602001018190525050610b85565b6005835160098111156108d2576108d2612c43565b036109b8575f6108e18361140d565b90505f816001600160a01b03166317bfdfbc86604001516040518263ffffffff1660e01b815260040161091491906128ac565b6020604051808303815f875af1158015610930573d5f5f3e3d5ffd5b505050506040513d601f19601f820116820180604052508101906109549190612e46565b604080516001808252818301909252919250816020015b610973612896565b81526020019060019003908161096b5790505095506040518060400160405280856001600160a01b0316815260200182815250865f8151811061077157610771612bf6565b6006835160098111156109cd576109cd612c43565b03610b49575f6109dc8361140d565b90505f816001600160a01b03166370a0823186604001516040518263ffffffff1660e01b8152600401610a0f91906128ac565b602060405180830381865afa158015610a2a573d5f5f3e3d5ffd5b505050506040513d601f19601f82011682018060405250810190610a4e9190612e46565b90505f826001600160a01b031663182df0f56040518163ffffffff1660e01b8152600401602060405180830381865afa158015610a8d573d5f5f3e3d5ffd5b505050506040513d601f19601f82011682018060405250810190610ab19190612e46565b90505f670de0b6b3a7640000610ac78385612e71565b610ad19190612e88565b604080516001808252818301909252919250816020015b610af0612896565b815260200190600190039081610ae85790505097506040518060400160405280876001600160a01b0316815260200182815250885f81518110610b3557610b35612bf6565b602002602001018190525050505050610b85565b60405162461bcd60e51b8152602060048201526011602482015270056656e75733a20756e6b6e6f776e206f7607c1b60448201526064016105d8565b505050949350505050565b604080518082019091525f80825260208201525f5b85811015610c275736878783818110610bc057610bc0612bf6565b9050602002810190610bd29190612c0a565b9050610be9610be46020830183612c65565b612210565b15610bfe57825183610bfa82612ea7565b9052505b610c0a8187878761229c565b83602001818151610c1b9190612ebf565b90525050600101610ba5565b5095945050505050565b5f80805b8981101561140057368b8b83818110610c5057610c50612bf6565b9050602002810190610c629190612c0a565b90505f5f610c71838c8c61238b565b90925090505f610c846020850185612c65565b6009811115610c9557610c95612c43565b1480610cbe57506001610cab6020850185612c65565b6009811115610cbc57610cbc612c43565b145b15610dff57610ccd828d612409565b15610dfa575f610cdc8361140d565b6040805160018082528183019092529192505f91906020808301908036833701905050905081815f81518110610d1457610d14612bf6565b60200260200101906001600160a01b031690816001600160a01b0316815250507f00000000000000000000000000000000000000000000000000000000000000008b8981518110610d6757610d67612bf6565b6001600160a01b0390921660209283029190910190910152604051631853304760e31b90610d99908390602401612ed2565b604051602081830303815290604052906001600160e01b0319166020820180516001600160e01b0383818316178352505050508a8981518110610dde57610dde612bf6565b60200260200101819052508780610df490612ea7565b98505050505b6113f5565b6004610e0e6020850185612c65565b6009811115610e1f57610e1f612c43565b03610e6d57604080518082019091526001600160a01b03831681525f60208201528786610e4b81612ea7565b975081518110610e5d57610e5d612bf6565b60200260200101819052506113f5565b6002610e7c6020850185612c65565b6009811115610e8d57610e8d612c43565b0361102957610e9d82828e6124b6565b15610fff575f610eac8361140d565b90505f816001600160a01b031663182df0f56040518163ffffffff1660e01b8152600401602060405180830381865afa158015610eeb573d5f5f3e3d5ffd5b505050506040513d601f19601f82011682018060405250810190610f0f9190612e46565b90505f8315610f515781600181610f2e87670de0b6b3a7640000612e71565b610f389190612ebf565b610f429190612ee4565b610f4c9190612e88565b610f54565b5f195b9050828c8a81518110610f6957610f69612bf6565b6001600160a01b039092166020928302919091019091015260405163095ea7b360e01b90610f9d9030908490602401612ef7565b604051602081830303815290604052906001600160e01b0319166020820180516001600160e01b0383818316178352505050508b8a81518110610fe257610fe2612bf6565b60200260200101819052508880610ff890612ea7565b9950505050505b6040518060400160405280836001600160a01b0316815260200182815250878680610e4b90612ea7565b60036110386020850185612c65565b600981111561104957611049612c43565b0361114c576110578c6125f3565b15610fff577f000000000000000000000000000000000000000000000000000000000000000089878151811061108f5761108f612bf6565b6001600160a01b039092166020928302919091019091015260405163ddbf54fd60e01b906110c4903090600190602401612c7e565b604051602081830303815290604052906001600160e01b0319166020820180516001600160e01b03838183161783525050505088878151811061110957611109612bf6565b6020026020010181905250858061111f90612ea7565b9650506040518060400160405280836001600160a01b0316815260200182815250878680610e4b90612ea7565b600561115b6020850185612c65565b600981111561116c5761116c612c43565b03611260575f61117b8361140d565b90505f6001600160a01b0382166395dd919361119d6060880160408901612c28565b6040518263ffffffff1660e01b81526004016111b991906128ac565b602060405180830381865afa1580156111d4573d5f5f3e3d5ffd5b505050506040513d601f19601f820116820180604052508101906111f89190612e46565b90506040518060400160405280856001600160a01b031681526020016103e8836103e96112259190612e71565b61122f9190612e88565b9052898861123c81612ea7565b99508151811061124e5761124e612bf6565b602002602001018190525050506113f5565b600661126f6020850185612c65565b600981111561128057611280612c43565b036113f5575f61128f8361140d565b90505f6001600160a01b0382166370a082316112b16060880160408901612c28565b6040518263ffffffff1660e01b81526004016112cd91906128ac565b602060405180830381865afa1580156112e8573d5f5f3e3d5ffd5b505050506040513d601f19601f8201168201806040525081019061130c9190612e46565b90505f826001600160a01b031663182df0f56040518163ffffffff1660e01b8152600401602060405180830381865afa15801561134b573d5f5f3e3d5ffd5b505050506040513d601f19601f8201168201806040525081019061136f9190612e46565b90505f670de0b6b3a76400006113858385612e71565b61138f9190612e88565b90506040518060400160405280876001600160a01b031681526020016103e8836103e96113bc9190612e71565b6113c69190612e88565b90528b8a6113d381612ea7565b9b50815181106113e5576113e5612bf6565b6020026020010181905250505050505b505050600101610c35565b5050505050505050505050565b5f5f7f00000000000000000000000000000000000000000000000000000000000000006001600160a01b031663b0772d0b6040518163ffffffff1660e01b81526004015f60405180830381865afa15801561146a573d5f5f3e3d5ffd5b505050506040513d5f823e601f3d908101601f191682016040526114919190810190612f10565b90505f5b815181101561155d578181815181106114b0576114b0612bf6565b60200260200101516001600160a01b0316636f307dc36040518163ffffffff1660e01b8152600401602060405180830381865afa925050508015611511575060408051601f3d908101601f1916820190925261150e91810190612fc2565b60015b1561155557846001600160a01b0316816001600160a01b0316036115535782828151811061154157611541612bf6565b60200260200101519350505050919050565b505b600101611495565b5060405162461bcd60e51b815260206004820152601760248201527615995b9d5cce881d951bdad95b881b9bdd08199bdd5b99604a1b60448201526064016105d8565b6115a8612694565b5f6115b28461140d565b90506115c96001600160a01b0385163330856126bc565b60405163095ea7b360e01b81526001600160a01b0385169063095ea7b3906115f79084905f90600401612ef7565b6020604051808303815f875af1158015611613573d5f5f3e3d5ffd5b505050506040513d601f19601f820116820180604052508101906116379190612fdd565b5060405163095ea7b360e01b81526001600160a01b0385169063095ea7b3906116669084908690600401612ef7565b6020604051808303815f875af1158015611682573d5f5f3e3d5ffd5b505050506040513d601f19601f820116820180604052508101906116a69190612fdd565b5060405163140e25ad60e31b8152600481018390525f906001600160a01b0383169063a0712d68906024016020604051808303815f875af11580156116ed573d5f5f3e3d5ffd5b505050506040513d601f19601f820116820180604052508101906117119190612e46565b905080156117565760405162461bcd60e51b815260206004820152601260248201527115995b9d5cce881b5a5b9d0819985a5b195960721b60448201526064016105d8565b6040516370a0823160e01b81525f906001600160a01b038416906370a08231906117849030906004016128ac565b602060405180830381865afa15801561179f573d5f5f3e3d5ffd5b505050506040513d601f19601f820116820180604052508101906117c39190612e46565b90505f811161180a5760405162461bcd60e51b815260206004820152601360248201527256656e75733a207a65726f2076546f6b656e7360681b60448201526064016105d8565b60405163a9059cbb60e01b81526001600160a01b0384169063a9059cbb906118389088908590600401612ef7565b6020604051808303815f875af1158015611854573d5f5f3e3d5ffd5b505050506040513d601f19601f820116820180604052508101906118789190612fdd565b5050505061188560015f55565b505050565b5f5f611894612694565b5f61189e8661140d565b90505f816001600160a01b03166317bfdfbc876040518263ffffffff1660e01b81526004016118cd91906128ac565b6020604051808303815f875af11580156118e9573d5f5f3e3d5ffd5b505050506040513d601f19601f8201168201806040525081019061190d9190612e46565b9050808510611b94578094505f826001600160a01b03166370a08231886040518263ffffffff1660e01b815260040161194691906128ac565b602060405180830381865afa158015611961573d5f5f3e3d5ffd5b505050506040513d601f19601f820116820180604052508101906119859190612e46565b6040516323b872dd60e01b81529091506001600160a01b038416906323b872dd906119b8908a9030908690600401612ffc565b6020604051808303815f875af11580156119d4573d5f5f3e3d5ffd5b505050506040513d601f19601f820116820180604052508101906119f89190612fdd565b506040516370a0823160e01b81525f906001600160a01b038a16906370a0823190611a279030906004016128ac565b602060405180830381865afa158015611a42573d5f5f3e3d5ffd5b505050506040513d601f19601f82011682018060405250810190611a669190612e46565b60405163db006a7560e01b8152600481018490529091505f906001600160a01b0386169063db006a75906024016020604051808303815f875af1158015611aaf573d5f5f3e3d5ffd5b505050506040513d601f19601f82011682018060405250810190611ad39190612e46565b90508015611af35760405162461bcd60e51b81526004016105d890613020565b6040516370a0823160e01b81525f906001600160a01b038c16906370a0823190611b219030906004016128ac565b602060405180830381865afa158015611b3c573d5f5f3e3d5ffd5b505050506040513d601f19601f82011682018060405250810190611b609190612e46565b90505f611b6d8483612ee4565b9050611b836001600160a01b038d16338361271c565b8b98509650611e3495505050505050565b5f826001600160a01b031663bd6d894d6040518163ffffffff1660e01b81526004016020604051808303815f875af1158015611bd2573d5f5f3e3d5ffd5b505050506040513d601f19601f82011682018060405250810190611bf69190612e46565b90505f81600181611c0f8a670de0b6b3a7640000612e71565b611c199190612ebf565b611c239190612ee4565b611c2d9190612e88565b6040516323b872dd60e01b81529091506001600160a01b038516906323b872dd90611c60908b9030908690600401612ffc565b6020604051808303815f875af1158015611c7c573d5f5f3e3d5ffd5b505050506040513d601f19601f82011682018060405250810190611ca09190612fdd565b506040516370a0823160e01b81525f906001600160a01b038b16906370a0823190611ccf9030906004016128ac565b602060405180830381865afa158015611cea573d5f5f3e3d5ffd5b505050506040513d601f19601f82011682018060405250810190611d0e9190612e46565b60405163db006a7560e01b8152600481018490529091505f906001600160a01b0387169063db006a75906024016020604051808303815f875af1158015611d57573d5f5f3e3d5ffd5b505050506040513d601f19601f82011682018060405250810190611d7b9190612e46565b90508015611d9b5760405162461bcd60e51b81526004016105d890613020565b5f828c6001600160a01b03166370a08231306040518263ffffffff1660e01b8152600401611dc991906128ac565b602060405180830381865afa158015611de4573d5f5f3e3d5ffd5b505050506040513d601f19601f82011682018060405250810190611e089190612e46565b611e129190612ee4565b9050611e286001600160a01b038d16338361271c565b8b985096505050505050505b611e3d60015f55565b935093915050565b611e4d612694565b5f611e578461140d565b90505f816001600160a01b031663856e5bb385856040518363ffffffff1660e01b8152600401611e88929190612ef7565b6020604051808303815f875af1158015611ea4573d5f5f3e3d5ffd5b505050506040513d601f19601f82011682018060405250810190611ec89190612e46565b90508015611f0f5760405162461bcd60e51b815260206004820152601460248201527315995b9d5cce88189bdc9c9bddc819985a5b195960621b60448201526064016105d8565b611f236001600160a01b038616338561271c565b505061188560015f55565b5f611f37612694565b5f611f418561140d565b90505f856001600160a01b03166370a08231306040518263ffffffff1660e01b8152600401611f7091906128ac565b602060405180830381865afa158015611f8b573d5f5f3e3d5ffd5b505050506040513d601f19601f82011682018060405250810190611faf9190612e46565b9050611fc66001600160a01b0387163330876126bc565b60405163095ea7b360e01b81526001600160a01b0387169063095ea7b390611ff49085905f90600401612ef7565b6020604051808303815f875af1158015612010573d5f5f3e3d5ffd5b505050506040513d601f19601f820116820180604052508101906120349190612fdd565b5060405163095ea7b360e01b81526001600160a01b0387169063095ea7b3906120639085908890600401612ef7565b6020604051808303815f875af115801561207f573d5f5f3e3d5ffd5b505050506040513d601f19601f820116820180604052508101906120a39190612fdd565b506040516304c11f0360e31b81525f906001600160a01b03841690632608f818906120d49089908990600401612ef7565b6020604051808303815f875af11580156120f0573d5f5f3e3d5ffd5b505050506040513d601f19601f820116820180604052508101906121149190612e46565b9050801561215a5760405162461bcd60e51b815260206004820152601360248201527215995b9d5cce881c995c185e4819985a5b1959606a1b60448201526064016105d8565b6040516370a0823160e01b81525f906001600160a01b038916906370a08231906121889030906004016128ac565b602060405180830381865afa1580156121a3573d5f5f3e3d5ffd5b505050506040513d601f19601f820116820180604052508101906121c79190612e46565b90508281116121d6575f6121e0565b6121e08382612ee4565b945084156121fc576121fc6001600160a01b038916338761271c565b5050505061220960015f55565b9392505050565b5f600282600981111561222557612225612c43565b14806122425750600382600981111561224057612240612c43565b145b8061225e5750600482600981111561225c5761225c612c43565b145b8061227a5750600582600981111561227857612278612c43565b145b806122965750600682600981111561229457612294612c43565b145b92915050565b5f5f5f6122aa87868661238b565b90925090505f6122bd6020890189612c65565b60098111156122ce576122ce612c43565b14806122f7575060016122e46020890189612c65565b60098111156122f5576122f5612c43565b145b1561231f576123068287612409565b612310575f612313565b60015b60ff1692505050612383565b600261232e6020890189612c65565b600981111561233f5761233f612c43565b0361234f576123068282886124b6565b600361235e6020890189612c65565b600981111561236f5761236f612c43565b0361237d57612306866125f3565b5f925050505b949350505050565b5f8061239d6040860160208701612c28565b915050606084013560a0850135831115611e3d57838360a08701358181106123c7576123c7612bf6565b6123dd9260206040909202019081019150612c28565b9150838360a08701358181106123f5576123f5612bf6565b905060400201602001359050935093915050565b5f5f6124148461140d565b60405163929fe9a160e01b81529091506001600160a01b037f0000000000000000000000000000000000000000000000000000000000000000169063929fe9a190612465908690859060040161304e565b602060405180830381865afa92505050801561249e575060408051601f3d908101601f1916820190925261249b91810190612fdd565b60015b6124ac576001915050612296565b1591506122969050565b5f5f6124c18561140d565b90505f816001600160a01b031663182df0f56040518163ffffffff1660e01b8152600401602060405180830381865afa158015612500573d5f5f3e3d5ffd5b505050506040513d601f19601f820116820180604052508101906125249190612e46565b90505f8515612566578160018161254389670de0b6b3a7640000612e71565b61254d9190612ebf565b6125579190612ee4565b6125619190612e88565b612569565b5f195b90505f836001600160a01b031663dd62ed3e87306040518363ffffffff1660e01b815260040161259a92919061304e565b602060405180830381865afa1580156125b5573d5f5f3e3d5ffd5b505050506040513d601f19601f820116820180604052508101906125d99190612e46565b90508615806125e757508181105b98975050505050505050565b604051630217306760e31b81525f906001600160a01b037f000000000000000000000000000000000000000000000000000000000000000016906310b9833890612643908590309060040161304e565b602060405180830381865afa92505050801561267c575060408051601f3d908101601f1916820190925261267991810190612fdd565b60015b61268857506001919050565b1592915050565b919050565b60025f54036126b657604051633ee5aeb560e01b815260040160405180910390fd5b60025f55565b61271684856001600160a01b03166323b872dd8686866040516024016126e493929190612ffc565b604051602081830303815290604052915060e01b6020820180516001600160e01b038381831617835250505050612742565b50505050565b61188583846001600160a01b031663a9059cbb85856040516024016126e4929190612ef7565b5f6127566001600160a01b0384168361279a565b905080515f1415801561277a5750808060200190518101906127789190612fdd565b155b156118855782604051635274afe760e01b81526004016105d891906128ac565b606061220983835f845f5f856001600160a01b031684866040516127be9190613068565b5f6040518083038185875af1925050503d805f81146127f8576040519150601f19603f3d011682016040523d82523d5f602084013e6127fd565b606091505b509150915061280d868383612817565b9695505050505050565b60608261282c576128278261286a565b612209565b815115801561284357506001600160a01b0384163b155b156128635783604051639996b31560e01b81526004016105d891906128ac565b5080612209565b80511561287a5780518082602001fd5b604051630a12f52160e11b815260040160405180910390fd5b50565b604080518082019091525f808252602082015290565b6001600160a01b0391909116815260200190565b6001600160a01b0381168114612893575f5ffd5b803561268f816128c0565b5f5f83601f8401126128ef575f5ffd5b5081356001600160401b03811115612905575f5ffd5b6020830191508360208260061b850101111561291f575f5ffd5b9250929050565b5f5f5f5f5f6060868803121561293a575f5ffd5b85356001600160401b0381111561294f575f5ffd5b8601601f8101881361295f575f5ffd5b80356001600160401b03811115612974575f5ffd5b8860208260051b8401011115612988575f5ffd5b60209182019650945061299c9087016128d4565b925060408601356001600160401b038111156129b6575f5ffd5b6129c2888289016128df565b969995985093965092949392505050565b5f8151808452602084019350602083015f5b82811015612a0c5781516001600160a01b03168652602095860195909101906001016129e5565b5093949350505050565b5f82825180855260208501945060208160051b830101602085015f5b83811015612a8457601f19858403018852815180518085528060208301602087015e5f602082870101526020601f19601f83011686010194505050602082019150602088019750600181019050612a32565b50909695505050505050565b5f8151808452602084019350602083015f5b82811015612a0c57815180516001600160a01b031687526020908101518188015260409096019590910190600101612aa2565b606081525f612ae760608301866129d3565b8281036020840152612af98186612a16565b9050828103604084015261280d8185612a90565b604081525f612b1f60408301856129d3565b8281036020840152612b318185612a16565b95945050505050565b5f5f5f5f60408587031215612b4d575f5ffd5b84356001600160401b03811115612b62575f5ffd5b612b6e878288016128df565b90955093505060208501356001600160401b03811115612b8c575f5ffd5b8501601f81018713612b9c575f5ffd5b80356001600160401b03811115612bb1575f5ffd5b876020828401011115612bc2575f5ffd5b949793965060200194505050565b602081525f6122096020830184612a90565b634e487b7160e01b5f52604160045260245ffd5b634e487b7160e01b5f52603260045260245ffd5b5f823560be19833603018112612c1e575f5ffd5b9190910192915050565b5f60208284031215612c38575f5ffd5b8135612209816128c0565b634e487b7160e01b5f52602160045260245ffd5b8035600a811061268f575f5ffd5b5f60208284031215612c75575f5ffd5b61220982612c57565b6001600160a01b039290921682521515602082015260400190565b60405160c081016001600160401b0381118282101715612cbb57612cbb612be2565b60405290565b604051601f8201601f191681016001600160401b0381118282101715612ce957612ce9612be2565b604052919050565b5f60208284031215612d01575f5ffd5b604051602081016001600160401b0381118282101715612d2357612d23612be2565b6040529135825250919050565b5f60208284031215612d40575f5ffd5b81356001600160401b03811115612d55575f5ffd5b820160c08185031215612d66575f5ffd5b612d6e612c99565b612d7782612c57565b81526020820135612d87816128c0565b60208201526040820135612d9a816128c0565b60408201526060828101359082015260808201356001600160401b03811115612dc1575f5ffd5b8201601f81018613612dd1575f5ffd5b80356001600160401b03811115612dea57612dea612be2565b612dfd601f8201601f1916602001612cc1565b818152876020838501011115612e11575f5ffd5b816020840160208301375f60208383010152806080850152505050612e398560a08401612cf1565b60a0820152949350505050565b5f60208284031215612e56575f5ffd5b5051919050565b634e487b7160e01b5f52601160045260245ffd5b808202811582820484141761229657612296612e5d565b5f82612ea257634e487b7160e01b5f52601260045260245ffd5b500490565b5f60018201612eb857612eb8612e5d565b5060010190565b8082018082111561229657612296612e5d565b602081525f61220960208301846129d3565b8181038181111561229657612296612e5d565b6001600160a01b03929092168252602082015260400190565b5f60208284031215612f20575f5ffd5b81516001600160401b03811115612f35575f5ffd5b8201601f81018413612f45575f5ffd5b80516001600160401b03811115612f5e57612f5e612be2565b8060051b612f6e60208201612cc1565b91825260208184018101929081019087841115612f89575f5ffd5b6020850194505b83851015612fb75784519250612fa5836128c0565b82825260209485019490910190612f90565b979650505050505050565b5f60208284031215612fd2575f5ffd5b8151612209816128c0565b5f60208284031215612fed575f5ffd5b81518015158114612209575f5ffd5b6001600160a01b039384168152919092166020820152604081019190915260600190565b60208082526014908201527315995b9d5cce881c995919595b4819985a5b195960621b604082015260600190565b6001600160a01b0392831681529116602082015260400190565b5f82518060208501845e5f92019182525091905056fea264697066735822122042c179f3c3cee390dafcd497045bdfeccd05c1d2009d4a0d71f2b26e7366e67464736f6c634300081e0033",
  "devdoc": {
    "errors": {
      "AddressEmptyCode(address)": [
        {
          "details": "There's no code at `target` (it is not a contract)."
        }
      ],
      "AddressInsufficientBalance(address)": [
        {
          "details": "The ETH balance of the account is not enough to perform the operation."
        }
      ],
      "FailedInnerCall()": [
        {
          "details": "A call to an address target failed. The target may have reverted."
        }
      ],
      "ReentrancyGuardReentrantCall()": [
        {
          "details": "Unauthorized reentrant call."
        }
      ],
      "SafeERC20FailedOperation(address)": [
        {
          "details": "An operation with an ERC20 token failed."
        }
      ]
    },
    "kind": "dev",
    "methods": {},
    "version": 1
  },
  "userdoc": {
    "kind": "user",
    "methods": {
      "ROUTER()": {
        "notice": "Immutable router address that can call protected functions"
      },
      "authorize((uint8,address,address,uint256,bytes,(uint256))[],address,(address,uint256)[])": {
        "notice": "Return user-side authorization calls for the given lending instructions.         One element per input (or (address(0), bytes(\"\")) if none needed).         Also returns the produced outputs from the simulation of these instructions."
      }
    },
    "version": 1
  },
  "storageLayout": {
    "storage": [
      {
        "astId": 3093,
        "contract": "contracts/v2/gateways/venus/VenusGatewayWrite.sol:VenusGatewayWrite",
        "label": "_status",
        "offset": 0,
        "slot": "0",
        "type": "t_uint256"
      }
    ],
    "types": {
      "t_uint256": {
        "encoding": "inplace",
        "label": "uint256",
        "numberOfBytes": "32"
      }
    }
  }
}