{
  "address": "0x4F217dB93765216961B75EcA31E6eEfF0bC819Df",
  "abi": [
    {
      "inputs": [
        {
          "internalType": "address",
          "name": "router",
          "type": "address"
        },
        {
          "internalType": "address",
          "name": "_comptroller",
          "type": "address"
        }
      ],
      "stateMutability": "nonpayable",
      "type": "constructor"
    },
    {
      "inputs": [
        {
          "internalType": "address",
          "name": "target",
          "type": "address"
        }
      ],
      "name": "AddressEmptyCode",
      "type": "error"
    },
    {
      "inputs": [
        {
          "internalType": "address",
          "name": "account",
          "type": "address"
        }
      ],
      "name": "AddressInsufficientBalance",
      "type": "error"
    },
    {
      "inputs": [],
      "name": "FailedInnerCall",
      "type": "error"
    },
    {
      "inputs": [],
      "name": "ReentrancyGuardReentrantCall",
      "type": "error"
    },
    {
      "inputs": [
        {
          "internalType": "address",
          "name": "token",
          "type": "address"
        }
      ],
      "name": "SafeERC20FailedOperation",
      "type": "error"
    },
    {
      "inputs": [],
      "name": "ROUTER",
      "outputs": [
        {
          "internalType": "address",
          "name": "",
          "type": "address"
        }
      ],
      "stateMutability": "view",
      "type": "function"
    },
    {
      "inputs": [
        {
          "components": [
            {
              "internalType": "enum ProtocolTypes.LendingOp",
              "name": "op",
              "type": "uint8"
            },
            {
              "internalType": "address",
              "name": "token",
              "type": "address"
            },
            {
              "internalType": "address",
              "name": "user",
              "type": "address"
            },
            {
              "internalType": "uint256",
              "name": "amount",
              "type": "uint256"
            },
            {
              "internalType": "bytes",
              "name": "context",
              "type": "bytes"
            },
            {
              "components": [
                {
                  "internalType": "uint256",
                  "name": "index",
                  "type": "uint256"
                }
              ],
              "internalType": "struct ProtocolTypes.InputPtr",
              "name": "input",
              "type": "tuple"
            }
          ],
          "internalType": "struct ProtocolTypes.LendingInstruction[]",
          "name": "instrs",
          "type": "tuple[]"
        },
        {
          "internalType": "address",
          "name": "caller",
          "type": "address"
        },
        {
          "components": [
            {
              "internalType": "address",
              "name": "token",
              "type": "address"
            },
            {
              "internalType": "uint256",
              "name": "amount",
              "type": "uint256"
            }
          ],
          "internalType": "struct ProtocolTypes.Output[]",
          "name": "inputs",
          "type": "tuple[]"
        }
      ],
      "name": "authorize",
      "outputs": [
        {
          "internalType": "address[]",
          "name": "targets",
          "type": "address[]"
        },
        {
          "internalType": "bytes[]",
          "name": "data",
          "type": "bytes[]"
        },
        {
          "components": [
            {
              "internalType": "address",
              "name": "token",
              "type": "address"
            },
            {
              "internalType": "uint256",
              "name": "amount",
              "type": "uint256"
            }
          ],
          "internalType": "struct ProtocolTypes.Output[]",
          "name": "produced",
          "type": "tuple[]"
        }
      ],
      "stateMutability": "view",
      "type": "function"
    },
    {
      "inputs": [
        {
          "internalType": "address",
          "name": "token",
          "type": "address"
        },
        {
          "internalType": "address",
          "name": "user",
          "type": "address"
        },
        {
          "internalType": "uint256",
          "name": "amount",
          "type": "uint256"
        }
      ],
      "name": "borrow",
      "outputs": [],
      "stateMutability": "nonpayable",
      "type": "function"
    },
    {
      "inputs": [],
      "name": "comptroller",
      "outputs": [
        {
          "internalType": "contract ComptrollerInterface",
          "name": "",
          "type": "address"
        }
      ],
      "stateMutability": "view",
      "type": "function"
    },
    {
      "inputs": [
        {
          "components": [
            {
              "internalType": "enum ProtocolTypes.LendingOp",
              "name": "op",
              "type": "uint8"
            },
            {
              "internalType": "address",
              "name": "token",
              "type": "address"
            },
            {
              "internalType": "address",
              "name": "user",
              "type": "address"
            },
            {
              "internalType": "uint256",
              "name": "amount",
              "type": "uint256"
            },
            {
              "internalType": "bytes",
              "name": "context",
              "type": "bytes"
            },
            {
              "components": [
                {
                  "internalType": "uint256",
                  "name": "index",
                  "type": "uint256"
                }
              ],
              "internalType": "struct ProtocolTypes.InputPtr",
              "name": "input",
              "type": "tuple"
            }
          ],
          "internalType": "struct ProtocolTypes.LendingInstruction[]",
          "name": "instrs",
          "type": "tuple[]"
        },
        {
          "internalType": "address",
          "name": "",
          "type": "address"
        },
        {
          "components": [
            {
              "internalType": "address",
              "name": "token",
              "type": "address"
            },
            {
              "internalType": "uint256",
              "name": "amount",
              "type": "uint256"
            }
          ],
          "internalType": "struct ProtocolTypes.Output[]",
          "name": "inputs",
          "type": "tuple[]"
        }
      ],
      "name": "deauthorize",
      "outputs": [
        {
          "internalType": "address[]",
          "name": "targets",
          "type": "address[]"
        },
        {
          "internalType": "bytes[]",
          "name": "data",
          "type": "bytes[]"
        }
      ],
      "stateMutability": "view",
      "type": "function"
    },
    {
      "inputs": [
        {
          "internalType": "address",
          "name": "token",
          "type": "address"
        },
        {
          "internalType": "address",
          "name": "user",
          "type": "address"
        },
        {
          "internalType": "uint256",
          "name": "amount",
          "type": "uint256"
        }
      ],
      "name": "deposit",
      "outputs": [],
      "stateMutability": "nonpayable",
      "type": "function"
    },
    {
      "inputs": [
        {
          "components": [
            {
              "internalType": "address",
              "name": "token",
              "type": "address"
            },
            {
              "internalType": "uint256",
              "name": "amount",
              "type": "uint256"
            }
          ],
          "internalType": "struct ProtocolTypes.Output[]",
          "name": "inputs",
          "type": "tuple[]"
        },
        {
          "internalType": "bytes",
          "name": "data",
          "type": "bytes"
        }
      ],
      "name": "processLendingInstruction",
      "outputs": [
        {
          "components": [
            {
              "internalType": "address",
              "name": "token",
              "type": "address"
            },
            {
              "internalType": "uint256",
              "name": "amount",
              "type": "uint256"
            }
          ],
          "internalType": "struct ProtocolTypes.Output[]",
          "name": "outputs",
          "type": "tuple[]"
        }
      ],
      "stateMutability": "nonpayable",
      "type": "function"
    },
    {
      "inputs": [
        {
          "internalType": "address",
          "name": "token",
          "type": "address"
        },
        {
          "internalType": "address",
          "name": "user",
          "type": "address"
        },
        {
          "internalType": "uint256",
          "name": "amount",
          "type": "uint256"
        }
      ],
      "name": "repay",
      "outputs": [
        {
          "internalType": "uint256",
          "name": "refund",
          "type": "uint256"
        }
      ],
      "stateMutability": "nonpayable",
      "type": "function"
    },
    {
      "inputs": [
        {
          "internalType": "address",
          "name": "collateral",
          "type": "address"
        },
        {
          "internalType": "address",
          "name": "user",
          "type": "address"
        },
        {
          "internalType": "uint256",
          "name": "underlyingAmount",
          "type": "uint256"
        }
      ],
      "name": "withdrawCollateral",
      "outputs": [
        {
          "internalType": "address",
          "name": "",
          "type": "address"
        },
        {
          "internalType": "uint256",
          "name": "",
          "type": "uint256"
        }
      ],
      "stateMutability": "nonpayable",
      "type": "function"
    }
  ],
  "transactionHash": "0x648c139e7785d9ee18e217165e54dd4bd6574aad24292f17e3277363565e8b67",
  "args": [
    "0x581E05459aeDB1C992bc02a833D9B5d35511AbC9",
    "0x317c1A5739F39046E20b08ac9BeEa3f10fD43326"
  ],
  "numDeployments": 13,
  "solcInputHash": "d0d83ff83fec2e62cd19a53fab938fff",
  "bytecode": "0x60c03461012157601f612e8038819003918201601f19168301916001600160401b0383118484101761012557808492604094855283398101031261012157610052602061004b83610139565b9201610139565b906001600160a01b038116156100f15760805260015f556001600160a01b031660a052604051612d32908161014e8239608051818181610255015281816105c60152818161068401528181610c2101528181611c9601528181611d5201528181611d960152612069015260a051818181610b5d01528181610e5a0152818161107601528181611430015281816118cc01528181611b7101526129a00152f35b60405162461bcd60e51b81526020600482015260086024820152670726f757465723d360c41b6044820152606490fd5b5f80fd5b634e487b7160e01b5f52604160045260245ffd5b51906001600160a01b03821682036101215756fe60c06040526004361015610011575f80fd5b5f3560e01c80631da649cf14611e015780632ae8bdfe14611d8157806332fe7b2614611d3d5780635224372c14611c7857806352ed587514610e895780635fe3b56714610e455780638340f54914610c0d578063aad11a3f14610a4f5763ae4be46d1461007c575f80fd5b346104e65760403660031901126104e6576004356001600160401b0381116104e6576100ac903690600401611e70565b6024356001600160401b0381116104e657366023820112156104e65780600401356001600160401b0381116104e657810191602483013681116104e6576060926020818603126104e65760248101356001600160401b0381116104e65701938490039460c086126104e6576040519260c084018481106001600160401b0382111761043357604052602486013560088110156104e657845261015060448701611e22565b926020850193845261016460648801611e22565b95604086019687528501976084880135895260a48801356001600160401b0381116104e6576024908901019180601f840112156104e65782356101a681612953565b916101b4604051938461235b565b818352602082860101116104e6576020815f928280970183860137830101526080870152609f1901126104e6576040519560208701908782106001600160401b038311176104335760c4916040520135865260a084019286845260018060a01b0390511696519551818110610a1c575b50505050805160088110156109f457158015610a08575b156105965750516001600160a01b03908116919061027c907f000000000000000000000000000000000000000000000000000000000000000016331461201d565b61028461296e565b61028d8361298c565b6001600160a01b03909316926102a582303387612b7f565b60405163095ea7b360e01b815260018060a01b038216948560048301525f60248301526020826044815f855af19081156104765761031f93602093869361057b575b5060405163095ea7b360e01b81526001600160a01b0390911660048201526024810192909252909283919082905f9082906044820190565b03925af180156104765761055e575b506040519063140e25ad60e31b825260048201526020816024815f875af1908115610476575f9161052c575b506104f2576040516370a0823160e01b8152306004820152602081602481865afa908115610476575f916104bc575b5080156104815760405163a9059cbb60e01b81526001600160a01b03929092166004830152602482015290602090829060449082905f905af1801561047657610447575b5060015f5560405160206103e1818361235b565b5f8252601f19015f5b81811061041057505061040c905b604051918291602083526020830190611fd5565b0390f35b60209060405161041f81612340565b5f81525f83820152828286010152016103ea565b634e487b7160e01b5f52604160045260245ffd5b6104689060203d60201161046f575b610460818361235b565b81019061237c565b505f6103cd565b503d610456565b6040513d5f823e3d90fd5b60405162461bcd60e51b815260206004820152601360248201527256656e75733a207a65726f2076546f6b656e7360681b6044820152606490fd5b90506020813d6020116104ea575b816104d76020938361235b565b810103126104e657515f610389565b5f80fd5b3d91506104ca565b60405162461bcd60e51b815260206004820152601260248201527115995b9d5cce881b5a5b9d0819985a5b195960721b6044820152606490fd5b90506020813d602011610556575b816105476020938361235b565b810103126104e657515f61035a565b3d915061053a565b6105769060203d60201161046f57610460818361235b565b61032e565b61059190853d871161046f57610460818361235b565b6102e7565b809392935160088110156109f45760020361065257505161040c926106059290916001600160a01b0390811691907f00000000000000000000000000000000000000000000000000000000000000001633148015610649575b6105f8906123a1565b61060061296e565b61246e565b9060015f556106126128e6565b916040519161062083612340565b6001600160a01b03168252602082015261063982612932565b5261064381612932565b506103f8565b503382146105ef565b809391935160088110156109f4576003036107d3575091519091906107039060209083906001600160a01b03908116907f000000000000000000000000000000000000000000000000000000000000000016331480156107ca575b6106b6906123a1565b6106be61296e565b6001600160a01b036106cf8761298c565b16905f60405180968195829463856e5bb360e01b84526004840160209093929193604081019460018060a01b031681520152565b03925af1908115610476575f91610798575b5061075c5761040c916001600160a01b0316610732823383612bd2565b60015f5561073e6128e6565b916040519161074c83612340565b8252602082015261063982612932565b60405162461bcd60e51b815260206004820152601460248201527315995b9d5cce88189bdc9c9bddc819985a5b195960621b6044820152606490fd5b90506020813d6020116107c2575b816107b36020938361235b565b810103126104e657515f610715565b3d91506107a6565b503381146106ad565b805160088110156109f4576004036108085750915161040c926107ff916001600160a01b031683612060565b906106126128e6565b8091505160088110156109f4576005036108ad57505f9160209060246001600160a01b036108358561298c565b92516040516305eff7ef60e21b81526001600160a01b0390911660048201529586938492165af1908115610476575f91610877575b61040c92506106126128e6565b90506020823d6020116108a5575b816108926020938361235b565b810103126104e65761040c91519061086a565b3d9150610885565b5160088110156109f4576006036109bb576001600160a01b036108cf8261298c565b92516040516370a0823160e01b81526001600160a01b0390911660048201529216602083602481845afa928315610476575f93610986575b509160206004936040519485809263182df0f560e01b82525afa928315610476575f93610950575b5061094661040c93670de0b6b3a764000092612430565b04906106126128e6565b92506020833d60201161097e575b8161096b6020938361235b565b810103126104e65791519161094661092f565b3d915061095e565b92506020833d6020116109b3575b816109a16020938361235b565b810103126104e6579151916020610907565b3d9150610994565b60405162461bcd60e51b8152602060048201526011602482015270056656e75733a20756e6b6e6f776e206f7607c1b6044820152606490fd5b634e487b7160e01b5f52602160045260245ffd5b50805160088110156109f45760011461023b565b610a439397506020949650610a35610a3a918385612844565b612830565b96515191612844565b0135915f808080610224565b346104e657610a5d36611ea0565b91509192610a6a8461286b565b92610a748561289d565b945f5b818110610aa857610a9a8661040c89604051938493604085526040850190611f29565b908382036020850152611f65565b610ab38183866127ec565b90610ac060208301612830565b9160a0810135878110610bf5575b50359160088310156104e65760019260028103610b4b5750610aef9061298c565b610af9828961293f565b90838060a01b0316905260405163095ea7b360e01b60208201523060248201525f604482015260448152610b2e60648261235b565b610b38828a61293f565b52610b43818961293f565b505b01610a77565b600314159050610bce57818060a01b037f000000000000000000000000000000000000000000000000000000000000000016610b87828961293f565b5260405163ddbf54fd60e01b60208201523060248201525f604482015260448152610bb360648261235b565b610bbd828a61293f565b52610bc8818961293f565b50610b45565b5f610bd9828961293f565b52604051610be860208261235b565b5f8152610bbd828a61293f565b610c06919350610a35908887612844565b9189610ace565b346104e657610c1b36611e36565b610c4f337f00000000000000000000000000000000000000000000000000000000000000006001600160a01b03161461201d565b610c5761296e565b610c608361298c565b6001600160a01b0390931692610c7882303387612b7f565b60405163095ea7b360e01b815260018060a01b038216948560048301525f60248301526020826044815f855af190811561047657610cf193602093869361057b575060405163095ea7b360e01b81526001600160a01b0390911660048201526024810192909252909283919082905f9082906044820190565b03925af1801561047657610e28575b506040519063140e25ad60e31b825260048201526020816024815f875af1908115610476575f91610df6575b506104f2576040516370a0823160e01b8152306004820152602081602481865afa908115610476575f91610dc4575b5080156104815760405163a9059cbb60e01b81526001600160a01b03929092166004830152602482015290602090829060449082905f905af1801561047657610da5575b60015f55005b610dbd9060203d60201161046f57610460818361235b565b5080610d9f565b90506020813d602011610dee575b81610ddf6020938361235b565b810103126104e6575183610d5b565b3d9150610dd2565b90506020813d602011610e20575b81610e116020938361235b565b810103126104e6575183610d2c565b3d9150610e04565b610e409060203d60201161046f57610460818361235b565b610d00565b346104e6575f3660031901126104e6576040517f00000000000000000000000000000000000000000000000000000000000000006001600160a01b03168152602090f35b346104e657610e9736611ea0565b90925f949294935f5f5b838110611791575080610eb6610ebe9261286b565b60805261289d565b60a052610eca85612854565b94610ed8604051968761235b565b808652610ee7601f1991612854565b015f5b81811061176e5750505f955f925f5b818110610f3e5761040c8860405191829160608352610f30610f2060608501608051611f29565b848103602086015260a051611f65565b908382036040850152611fd5565b610f498183896127ec565b610f5560208201612830565b60608201359160a0810135898110611746575b5080359060088210156104e6575f9082158015611739575b8015611728575b15611227575083159384156111f857505f935b604051636eb1769f60e11b81526001600160a01b038981166004830152306024830152851695906020816044818a5afa908115610476575f916111c7575b5082156111bd575b5050611187575b6104e657600414908115611046575b50611007575b506001905b01610ef9565b6001919561103f916040519061101c82612340565b81525f602082015261102e828c61293f565b52611039818b61293f565b50612822565b9490610ffc565b61104f9061298c565b60405163929fe9a160e01b81526001600160a01b03878116600483015282811660248301527f000000000000000000000000000000000000000000000000000000000000000016905f90602081604481865afa5f9181611167575b5061115f575b50156110bd575b50610ff6565b61113e611157939d92611130926040908151926110da838561235b565b60018452601f1983013660208601376110f284612932565b6001600160a01b03909116905260805161110d90879061293f565b5251928391631853304760e31b6020840152602060248401526044830190611f29565b03601f19810183528261235b565b61114a8260a05161293f565b526110398160a05161293f565b998b806110b7565b90508e6110b0565b61118091925060203d811161046f57610460818361235b565b905f6110aa565b9b805f6111996111b79360805161293f565b526040516111a860208261235b565b5f815261114a8260a05161293f565b9b610fe7565b1090508e80610fe0565b90506020813d82116111f0575b816111e16020938361235b565b810103126104e657515f610fd8565b3d91506111d4565b6103e981029081046103e903611213576103e8900493610f9a565b634e487b7160e01b5f52601160045260245ffd5b91909894989392936104e6576002810361140157506001600160a01b03905061124f8361298c565b1660405163182df0f560e01b8152602081600481855afa908115610476575f916113d0575b508261138f57505f19905b604051636eb1769f60e11b81526001600160a01b0388166004820152306024820152602081604481855afa908115610476575f9161135e575b508284159185611354575b50506112ff575b5050916112f991600193604051916112e183612340565b858060a01b03168252602082015261102e828c61293f565b94611001565b8c61113061113e600197959f94611349946113206112f9999760805161293f565b5260405163095ea7b360e01b602082015230602482015260448101919091529182906064820190565b9b91938193506112ca565b109050828f6112c3565b90506020813d8211611387575b816113786020938361235b565b810103126104e657518e6112b8565b3d915061136b565b670de0b6b3a76400008302838104670de0b6b3a76400000361121357816113b591612443565b5f19810191908211611213576113ca91612450565b9061127f565b90506020813d82116113f9575b816113ea6020938361235b565b810103126104e657518d611274565b3d91506113dd565b600381036114fe575050604051630217306760e31b81526001600160a01b0386811660048301523060248301527f000000000000000000000000000000000000000000000000000000000000000016905f90602081604481865afa5f91816114de575b506114d6575b5015611487575b50916112f991600193604051916112e183612340565b916114cc8c6112f9946114a0600197959f60805161293f565b5260405163ddbf54fd60e01b60208201523060248201526044808201889052815261113e60648261235b565b9b91935091611471565b90508d61146a565b6114f791925060203d811161046f57610460818361235b565b908f611464565b9092939150600581145f146115dc5750602061152e60406001600160a01b036115268761298c565b169401612830565b6040516395dd919360e01b81526001600160a01b03909116600482015292839060249082905afa918215610476575f926115a9575b506103e98202918083046103e91490151715611213576001926103e86112f9936040519261159084612340565b868060a01b0316835204602082015261102e828c61293f565b9091506020813d82116115d4575b816115c46020938361235b565b810103126104e65751908b611563565b3d91506115b7565b90969291906006146115f3575b5050600190611001565b9195909161161560406001600160a01b0361160d8661298c565b169201612830565b6040516370a0823160e01b81526001600160a01b03909116600482015290602082602481845afa918215610476575f926116f4575b5060206004916040519283809263182df0f560e01b82525afa908115610476575f916116bb575b5061168590670de0b6b3a764000092612430565b04906103e98202918083046103e91490151715611213576001926103e86116b3936040519261159084612340565b94908a6115e9565b90506020813d82116116ec575b816116d56020938361235b565b810103126104e65751670de0b6b3a7640000611671565b3d91506116c8565b9091506020813d8211611720575b8161170f6020938361235b565b810103126104e6575190602061164a565b3d9150611702565b50906104e6575f9060048314610f87565b505f915060018314610f80565b91509150602061176561175d610a35848c8b612844565b928a89612844565b0135918c610f68565b60209060405161177d81612340565b5f81525f8382015282828a01015201610eea565b61179c8185886127ec565b803560088110156104e6575f916002821490818015611c6b575b8015611c5a575b8015611c49575b8015611c38575b611c28575b6117dc60208201612830565b9360a060608301359201358a8110611c00575b506104e6575f9183158015611bf3575b8015611be2575b156119b05750801590811561199057505f61184d60208e5b604051636eb1769f60e11b81526001600160a01b03909116600482015230602482015291829081906044820190565b03816001600160a01b038a165afa908115610476575f9161195f575b508215611955575b5050611945575b6104e65760031901611890575b506001905b01610ea1565b6118999061298c565b60405163929fe9a160e01b81526001600160a01b038a8116600483015291821660248201525f91602090829060449082907f0000000000000000000000000000000000000000000000000000000000000000165afa5f9181611925575b5061191d575b5015611909575b88611885565b90611915600191612822565b919050611903565b9050896118fc565b61193e91925060203d811161046f57610460818361235b565b908b6118f6565b9361194f90612822565b93611878565b1090508c80611871565b90506020813d8211611988575b816119796020938361235b565b810103126104e657518e611869565b3d915061196c565b6103e981029081046103e903611213576103e8900461184d60208e61181e565b909392916104e65715611b2e57506001600160a01b03906119d09061298c565b1660405163182df0f560e01b8152602081600481855afa908115610476575f91611afd575b508215928315611ab6575050611a3e60208b5f19935b604051636eb1769f60e11b81526001600160a01b0390921660048301523060248301529092839190829081906044820190565b03915afa908115610476575f91611a85575b508215611a7b575b5050611a67575b60019061188a565b90611a73600191612822565b919050611a5f565b1090508980611a58565b90506020813d8211611aae575b81611a9f6020938361235b565b810103126104e657518b611a50565b3d9150611a92565b670de0b6b3a76400008102908104670de0b6b3a7640000036112135781611adc91612443565b5f198101908111611213578b611af7611a3e93602093612450565b93611a0b565b90506020813d8211611b26575b81611b176020938361235b565b810103126104e657518b6119f5565b3d9150611b0a565b90506003915014611b415760019061188a565b604051630217306760e31b81526001600160a01b03891660048201523060248201525f90602081806044810103817f00000000000000000000000000000000000000000000000000000000000000006001600160a01b03165afa5f9181611bc2575b50611bba575b50611a5f5790611a73600191612822565b905089611ba9565b611bdb91925060203d811161046f57610460818361235b565b908b611ba3565b50916104e6575f9160048414611806565b505f9250600184146117ff565b945090506020611c1f611c17610a35878d8c612844565b958b8a612844565b0135908d6117ef565b99611c3290612822565b996117d0565b50926104e6575f92600683146117cb565b50926104e6575f92600583146117c4565b50926104e6575f92600483146117bd565b505f9350600383146117b6565b346104e6576020611cce611c8b36611e36565b9193919291908390337f00000000000000000000000000000000000000000000000000000000000000006001600160a01b0316148015611d2b576106b6906123a1565b03925af1908115610476575f91611cf9575b5061075c57610d9f9133906001600160a01b0316612bd2565b90506020813d602011611d23575b81611d146020938361235b565b810103126104e6575183611ce0565b3d9150611d07565b50336001600160a01b038216146106ad565b346104e6575f3660031901126104e6576040517f00000000000000000000000000000000000000000000000000000000000000006001600160a01b03168152602090f35b346104e657611dce611d9236611e36565b91337f00000000000000000000000000000000000000000000000000000000000000006001600160a01b0316148015611def576105f8906123a1565b60015f55604080516001600160a01b03939093168352602083019190915290f35b50336001600160a01b038316146105ef565b346104e6576020611e1a611e1436611e36565b91612060565b604051908152f35b35906001600160a01b03821682036104e657565b60609060031901126104e6576004356001600160a01b03811681036104e657906024356001600160a01b03811681036104e6579060443590565b9181601f840112156104e6578235916001600160401b0383116104e6576020808501948460061b0101116104e657565b9060606003198301126104e657600435916001600160401b0383116104e657806023840112156104e6578260040135926001600160401b0384116104e6578160248560051b830101116104e6576024908101939290356001600160a01b03811681036104e65791604435906001600160401b0382116104e657611f2591600401611e70565b9091565b90602080835192838152019201905f5b818110611f465750505090565b82516001600160a01b0316845260209384019390920191600101611f39565b9080602083519182815201916020808360051b8301019401925f915b838310611f9057505050505090565b909192939460208080600193601f19868203018752818a518051918291828552018484015e5f828201840152601f01601f191601019701959491909101920190611f81565b90602080835192838152019201905f5b818110611ff25750505090565b825180516001600160a01b031685526020908101518186015260409094019390920191600101611fe5565b1561202457565b60405162461bcd60e51b815260206004820152601460248201527313db9b1e481c9bdd5d195c8818d85b8818d85b1b60621b6044820152606490fd5b909190612097337f00000000000000000000000000000000000000000000000000000000000000006001600160a01b03161461201d565b61209f61296e565b6120a88161298c565b6040516370a0823160e01b81523060048201526001600160a01b03909216939192909190602084602481885afa938415610476575f9461230c575b506120f081303388612b7f565b60405163095ea7b360e01b815260018060a01b038416908160048201525f60248201526020816044815f8b5af18015610476576121639560209285926122f1575b5060405163095ea7b360e01b81526001600160a01b039091166004820152602481019190915294859081906044820190565b03815f8a5af1928315610476576121b4946020946122d6575b506040516304c11f0360e31b81526001600160a01b0390911660048201526024810192909252909283919082905f9082906044820190565b03925af1908115610476575f916122a4575b50612269576040516370a0823160e01b815230600482015290602082602481865afa918215610476575f92612235575b508082111561222c5761220891612394565b905b818061221a575b505060015f5590565b612225913390612bd2565b5f81612211565b50505f9061220a565b9091506020813d602011612261575b816122516020938361235b565b810103126104e65751905f6121f6565b3d9150612244565b60405162461bcd60e51b815260206004820152601360248201527215995b9d5cce881c995c185e4819985a5b1959606a1b6044820152606490fd5b90506020813d6020116122ce575b816122bf6020938361235b565b810103126104e657515f6121c6565b3d91506122b2565b6122ec90853d871161046f57610460818361235b565b61217c565b61230790843d861161046f57610460818361235b565b612131565b9093506020813d602011612338575b816123286020938361235b565b810103126104e65751925f6120e3565b3d915061231b565b604081019081106001600160401b0382111761043357604052565b90601f801991011681019081106001600160401b0382111761043357604052565b908160209103126104e6575180151581036104e65790565b9190820391821161121357565b156123a857565b60405162461bcd60e51b815260206004820152601c60248201527f4f6e6c7920726f75746572206f722073656c662063616e2063616c6c000000006044820152606490fd5b156123f457565b60405162461bcd60e51b815260206004820152601460248201527315995b9d5cce881c995919595b4819985a5b195960621b6044820152606490fd5b8181029291811591840414171561121357565b9190820180921161121357565b811561245a570490565b634e487b7160e01b5f52601260045260245ffd5b919291906001600160a01b036124838361298c565b6040516305eff7ef60e21b81526001600160a01b038416600482018190529190921695916020816024815f8b5af1908115610476575f916127ba575b50821015612720575060405163bd6d894d60e01b8152906020826004815f8a5af1918215610476575f926126ec575b50670de0b6b3a7640000810290808204670de0b6b3a76400001490151715611213578161251a91612443565b5f198101919082116112135761253560209161256c93612450565b6040516323b872dd60e01b81526001600160a01b039094166004850152306024850152604484018190529291829081906064820190565b03815f895af18015610476576126cf575b506040516370a0823160e01b81523060048201526001600160a01b038316949091602083602481895afa928315610476575f9361269b575b505f916024602092604051948593849263db006a7560e01b845260048401525af18015610476575f90612667575b6125ee9150156123ed565b6040516370a0823160e01b8152306004820152602081602481885afa908115610476575f91612633575b5061262f9161262691612394565b80943390612bd2565b9190565b90506020813d60201161265f575b8161264e6020938361235b565b810103126104e6575161262f612618565b3d9150612641565b506020813d602011612693575b816126816020938361235b565b810103126104e6576125ee90516125e3565b3d9150612674565b9092506020813d6020116126c7575b816126b76020938361235b565b810103126104e65751915f6125b5565b3d91506126aa565b6126e79060203d60201161046f57610460818361235b565b61257d565b9091506020813d602011612718575b816127086020938361235b565b810103126104e65751905f6124ee565b3d91506126fb565b919050604051916370a0823160e01b83526004830152602082602481885afa918215610476575f92612785575b506040516323b872dd60e01b81526001600160a01b03909116600482015230602482015260448101829052602081806064810161256c565b9091506020813d6020116127b2575b816127a16020938361235b565b810103126104e6575190602061274d565b3d9150612794565b90506020813d6020116127e4575b816127d56020938361235b565b810103126104e657515f6124bf565b3d91506127c8565b919081101561280e5760051b8101359060be19813603018212156104e6570190565b634e487b7160e01b5f52603260045260245ffd5b5f1981146112135760010190565b356001600160a01b03811681036104e65790565b919081101561280e5760061b0190565b6001600160401b0381116104335760051b60200190565b9061287582612854565b612882604051918261235b565b8281528092612893601f1991612854565b0190602036910137565b906128a782612854565b6128b4604051918261235b565b82815280926128c5601f1991612854565b01905f5b8281106128d557505050565b8060606020809385010152016128c9565b604080519091906128f7838261235b565b6001815291601f1901825f5b82811061290f57505050565b60209060405161291e81612340565b5f81525f8382015282828501015201612903565b80511561280e5760200190565b805182101561280e5760209160051b010190565b6001600160401b03811161043357601f01601f191660200190565b60025f541461297d5760025f55565b633ee5aeb560e01b5f5260045ffd5b60405163b0772d0b60e01b81525f816004817f00000000000000000000000000000000000000000000000000000000000000006001600160a01b03165afa908115610476575f91612ade575b505f5b8151811015612a9957600460206001600160a01b036129fa848661293f565b511660405192838092636f307dc360e01b82525afa5f9181612a56575b50612a26575b506001016129db565b6001600160a01b03848116911614612a3e575f612a1d565b6001600160a01b039250612a519161293f565b511690565b9091506020813d8211612a91575b81612a716020938361235b565b810103126104e657516001600160a01b03811681036104e657905f612a17565b3d9150612a64565b60405162461bcd60e51b815260206004820152601760248201527f56656e75733a2076546f6b656e206e6f7420666f756e640000000000000000006044820152606490fd5b90503d805f833e612aef818361235b565b8101906020818303126104e6578051906001600160401b0382116104e657019080601f830112156104e657815190612b2682612854565b92612b34604051948561235b565b82845260208085019360051b8201019182116104e657602001915b818310612b5f575050505f6129d8565b82516001600160a01b03811681036104e657815260209283019201612b4f565b6040516323b872dd60e01b60208201526001600160a01b0392831660248201529290911660448301526064820192909252612bd091612bcb82608481015b03601f19810184528361235b565b612c0b565b565b60405163a9059cbb60e01b60208201526001600160a01b0390921660248301526044820192909252612bd091612bcb8260648101612bbd565b5f80612c539260018060a01b03169360208151910182865af13d15612c96573d90612c3582612953565b91612c43604051938461235b565b82523d5f602084013e5b83612c9e565b8051908115159182612c7b575b5050612c695750565b635274afe760e01b5f5260045260245ffd5b612c8e925060208091830101910161237c565b155f80612c60565b606090612c4d565b90612cc25750805115612cb357805190602001fd5b630a12f52160e11b5f5260045ffd5b81511580612cf3575b612cd3575090565b639996b31560e01b5f9081526001600160a01b0391909116600452602490fd5b50803b15612ccb56fea2646970667358221220c5095a2a6244e3f099a98dab20f4ccba034fef76eed64def290276407be8448a64736f6c634300081e0033",
  "devdoc": {
    "errors": {
      "AddressEmptyCode(address)": [
        {
          "details": "There's no code at `target` (it is not a contract)."
        }
      ],
      "AddressInsufficientBalance(address)": [
        {
          "details": "The ETH balance of the account is not enough to perform the operation."
        }
      ],
      "FailedInnerCall()": [
        {
          "details": "A call to an address target failed. The target may have reverted."
        }
      ],
      "ReentrancyGuardReentrantCall()": [
        {
          "details": "Unauthorized reentrant call."
        }
      ],
      "SafeERC20FailedOperation(address)": [
        {
          "details": "An operation with an ERC20 token failed."
        }
      ]
    },
    "kind": "dev",
    "methods": {},
    "version": 1
  },
  "userdoc": {
    "kind": "user",
    "methods": {
      "ROUTER()": {
        "notice": "Immutable router address that can call protected functions"
      },
      "authorize((uint8,address,address,uint256,bytes,(uint256))[],address,(address,uint256)[])": {
        "notice": "Return user-side authorization calls for the given lending instructions.         One element per input (or (address(0), bytes(\"\")) if none needed).         Also returns the produced outputs from the simulation of these instructions."
      }
    },
    "version": 1
  },
  "storageLayout": {
    "storage": [
      {
        "astId": 845,
        "contract": "contracts/v2/gateways/venus/VenusGatewayWrite.sol:VenusGatewayWrite",
        "label": "_status",
        "offset": 0,
        "slot": "0",
        "type": "t_uint256"
      }
    ],
    "types": {
      "t_uint256": {
        "encoding": "inplace",
        "label": "uint256",
        "numberOfBytes": "32"
      }
    }
  }
}