{
  "address": "0x1ccee19016f9E6Aa1637698471Cf90759f6b3CaB",
  "abi": [
    {
      "inputs": [
        {
          "internalType": "address",
          "name": "_comptroller",
          "type": "address"
        },
        {
          "internalType": "address",
          "name": "_oracle",
          "type": "address"
        },
        {
          "internalType": "address",
          "name": "router",
          "type": "address"
        }
      ],
      "stateMutability": "nonpayable",
      "type": "constructor"
    },
    {
      "inputs": [
        {
          "internalType": "address",
          "name": "target",
          "type": "address"
        }
      ],
      "name": "AddressEmptyCode",
      "type": "error"
    },
    {
      "inputs": [
        {
          "internalType": "address",
          "name": "account",
          "type": "address"
        }
      ],
      "name": "AddressInsufficientBalance",
      "type": "error"
    },
    {
      "inputs": [],
      "name": "FailedInnerCall",
      "type": "error"
    },
    {
      "inputs": [
        {
          "internalType": "address",
          "name": "owner",
          "type": "address"
        }
      ],
      "name": "OwnableInvalidOwner",
      "type": "error"
    },
    {
      "inputs": [
        {
          "internalType": "address",
          "name": "account",
          "type": "address"
        }
      ],
      "name": "OwnableUnauthorizedAccount",
      "type": "error"
    },
    {
      "inputs": [],
      "name": "ReentrancyGuardReentrantCall",
      "type": "error"
    },
    {
      "inputs": [
        {
          "internalType": "address",
          "name": "token",
          "type": "address"
        }
      ],
      "name": "SafeERC20FailedOperation",
      "type": "error"
    },
    {
      "anonymous": false,
      "inputs": [
        {
          "indexed": true,
          "internalType": "address",
          "name": "previousOwner",
          "type": "address"
        },
        {
          "indexed": true,
          "internalType": "address",
          "name": "newOwner",
          "type": "address"
        }
      ],
      "name": "OwnershipTransferred",
      "type": "event"
    },
    {
      "inputs": [],
      "name": "ROUTER",
      "outputs": [
        {
          "internalType": "address",
          "name": "",
          "type": "address"
        }
      ],
      "stateMutability": "view",
      "type": "function"
    },
    {
      "inputs": [
        {
          "internalType": "address",
          "name": "token",
          "type": "address"
        },
        {
          "internalType": "address",
          "name": "user",
          "type": "address"
        },
        {
          "internalType": "uint256",
          "name": "amount",
          "type": "uint256"
        }
      ],
      "name": "borrow",
      "outputs": [],
      "stateMutability": "nonpayable",
      "type": "function"
    },
    {
      "inputs": [
        {
          "internalType": "address",
          "name": "account",
          "type": "address"
        },
        {
          "internalType": "address",
          "name": "vToken",
          "type": "address"
        }
      ],
      "name": "checkMembership",
      "outputs": [
        {
          "internalType": "bool",
          "name": "",
          "type": "bool"
        }
      ],
      "stateMutability": "view",
      "type": "function"
    },
    {
      "inputs": [],
      "name": "comptroller",
      "outputs": [
        {
          "internalType": "contract ComptrollerInterface",
          "name": "",
          "type": "address"
        }
      ],
      "stateMutability": "view",
      "type": "function"
    },
    {
      "inputs": [
        {
          "internalType": "address",
          "name": "token",
          "type": "address"
        },
        {
          "internalType": "address",
          "name": "user",
          "type": "address"
        },
        {
          "internalType": "uint256",
          "name": "amount",
          "type": "uint256"
        }
      ],
      "name": "deposit",
      "outputs": [],
      "stateMutability": "nonpayable",
      "type": "function"
    },
    {
      "inputs": [
        {
          "internalType": "address",
          "name": "market",
          "type": "address"
        },
        {
          "internalType": "address",
          "name": "collateral",
          "type": "address"
        },
        {
          "internalType": "uint256",
          "name": "amount",
          "type": "uint256"
        },
        {
          "internalType": "address",
          "name": "receiver",
          "type": "address"
        }
      ],
      "name": "depositCollateral",
      "outputs": [],
      "stateMutability": "nonpayable",
      "type": "function"
    },
    {
      "inputs": [
        {
          "internalType": "address",
          "name": "account",
          "type": "address"
        }
      ],
      "name": "getAccountLiquidity",
      "outputs": [
        {
          "internalType": "uint256",
          "name": "",
          "type": "uint256"
        },
        {
          "internalType": "uint256",
          "name": "",
          "type": "uint256"
        },
        {
          "internalType": "uint256",
          "name": "",
          "type": "uint256"
        }
      ],
      "stateMutability": "view",
      "type": "function"
    },
    {
      "inputs": [],
      "name": "getAllMarkets",
      "outputs": [
        {
          "internalType": "address[]",
          "name": "",
          "type": "address[]"
        }
      ],
      "stateMutability": "view",
      "type": "function"
    },
    {
      "inputs": [],
      "name": "getAllVenusMarkets",
      "outputs": [
        {
          "internalType": "address[]",
          "name": "vTokens",
          "type": "address[]"
        },
        {
          "internalType": "address[]",
          "name": "tokens",
          "type": "address[]"
        },
        {
          "internalType": "string[]",
          "name": "symbols",
          "type": "string[]"
        },
        {
          "internalType": "string[]",
          "name": "names",
          "type": "string[]"
        },
        {
          "internalType": "uint8[]",
          "name": "decimals",
          "type": "uint8[]"
        },
        {
          "internalType": "uint256[]",
          "name": "prices",
          "type": "uint256[]"
        }
      ],
      "stateMutability": "view",
      "type": "function"
    },
    {
      "inputs": [
        {
          "internalType": "address",
          "name": "account",
          "type": "address"
        }
      ],
      "name": "getAssetsIn",
      "outputs": [
        {
          "internalType": "address[]",
          "name": "",
          "type": "address[]"
        }
      ],
      "stateMutability": "view",
      "type": "function"
    },
    {
      "inputs": [
        {
          "internalType": "address",
          "name": "token",
          "type": "address"
        },
        {
          "internalType": "address",
          "name": "user",
          "type": "address"
        }
      ],
      "name": "getBalance",
      "outputs": [
        {
          "internalType": "uint256",
          "name": "",
          "type": "uint256"
        }
      ],
      "stateMutability": "view",
      "type": "function"
    },
    {
      "inputs": [
        {
          "internalType": "address",
          "name": "token",
          "type": "address"
        },
        {
          "internalType": "address",
          "name": "user",
          "type": "address"
        }
      ],
      "name": "getBorrowBalance",
      "outputs": [
        {
          "internalType": "uint256",
          "name": "",
          "type": "uint256"
        }
      ],
      "stateMutability": "view",
      "type": "function"
    },
    {
      "inputs": [
        {
          "internalType": "address",
          "name": "token",
          "type": "address"
        },
        {
          "internalType": "address",
          "name": "user",
          "type": "address"
        }
      ],
      "name": "getBorrowBalanceCurrent",
      "outputs": [
        {
          "internalType": "uint256",
          "name": "",
          "type": "uint256"
        }
      ],
      "stateMutability": "nonpayable",
      "type": "function"
    },
    {
      "inputs": [
        {
          "internalType": "address",
          "name": "token",
          "type": "address"
        }
      ],
      "name": "getBorrowRate",
      "outputs": [
        {
          "internalType": "uint256",
          "name": "",
          "type": "uint256"
        },
        {
          "internalType": "bool",
          "name": "",
          "type": "bool"
        }
      ],
      "stateMutability": "view",
      "type": "function"
    },
    {
      "inputs": [
        {
          "internalType": "address[]",
          "name": "vTokens",
          "type": "address[]"
        },
        {
          "internalType": "address",
          "name": "account",
          "type": "address"
        }
      ],
      "name": "getCollateralStatus",
      "outputs": [
        {
          "internalType": "bool[]",
          "name": "isCollateral",
          "type": "bool[]"
        }
      ],
      "stateMutability": "view",
      "type": "function"
    },
    {
      "inputs": [
        {
          "internalType": "address",
          "name": "token",
          "type": "address"
        },
        {
          "components": [
            {
              "internalType": "address",
              "name": "token",
              "type": "address"
            },
            {
              "internalType": "uint256",
              "name": "amount",
              "type": "uint256"
            }
          ],
          "internalType": "struct IGateway.Collateral[]",
          "name": "collaterals",
          "type": "tuple[]"
        }
      ],
      "name": "getEncodedCollateralApprovals",
      "outputs": [
        {
          "internalType": "address[]",
          "name": "target",
          "type": "address[]"
        },
        {
          "internalType": "bytes[]",
          "name": "data",
          "type": "bytes[]"
        }
      ],
      "stateMutability": "view",
      "type": "function"
    },
    {
      "inputs": [
        {
          "internalType": "address",
          "name": "token",
          "type": "address"
        },
        {
          "internalType": "uint256",
          "name": "amount",
          "type": "uint256"
        },
        {
          "internalType": "address",
          "name": "user",
          "type": "address"
        }
      ],
      "name": "getEncodedDebtApproval",
      "outputs": [
        {
          "internalType": "address[]",
          "name": "target",
          "type": "address[]"
        },
        {
          "internalType": "bytes[]",
          "name": "data",
          "type": "bytes[]"
        }
      ],
      "stateMutability": "view",
      "type": "function"
    },
    {
      "inputs": [],
      "name": "getEncodedDelegateApproval",
      "outputs": [
        {
          "internalType": "bool",
          "name": "shouldApprove",
          "type": "bool"
        },
        {
          "internalType": "address",
          "name": "target",
          "type": "address"
        },
        {
          "internalType": "bytes",
          "name": "data",
          "type": "bytes"
        }
      ],
      "stateMutability": "view",
      "type": "function"
    },
    {
      "inputs": [
        {
          "internalType": "address",
          "name": "token",
          "type": "address"
        },
        {
          "components": [
            {
              "internalType": "address",
              "name": "token",
              "type": "address"
            },
            {
              "internalType": "uint256",
              "name": "amount",
              "type": "uint256"
            }
          ],
          "internalType": "struct IGateway.Collateral[]",
          "name": "collaterals",
          "type": "tuple[]"
        }
      ],
      "name": "getInboundCollateralActions",
      "outputs": [
        {
          "internalType": "address[]",
          "name": "target",
          "type": "address[]"
        },
        {
          "internalType": "bytes[]",
          "name": "data",
          "type": "bytes[]"
        }
      ],
      "stateMutability": "view",
      "type": "function"
    },
    {
      "inputs": [
        {
          "internalType": "address",
          "name": "token",
          "type": "address"
        },
        {
          "internalType": "address",
          "name": "user",
          "type": "address"
        }
      ],
      "name": "getLtv",
      "outputs": [
        {
          "internalType": "uint256",
          "name": "",
          "type": "uint256"
        }
      ],
      "stateMutability": "view",
      "type": "function"
    },
    {
      "inputs": [
        {
          "internalType": "address[]",
          "name": "vTokens",
          "type": "address[]"
        }
      ],
      "name": "getMarketRates",
      "outputs": [
        {
          "internalType": "uint256[]",
          "name": "prices",
          "type": "uint256[]"
        },
        {
          "internalType": "uint256[]",
          "name": "supplyRates",
          "type": "uint256[]"
        },
        {
          "internalType": "uint256[]",
          "name": "borrowRates",
          "type": "uint256[]"
        }
      ],
      "stateMutability": "view",
      "type": "function"
    },
    {
      "inputs": [
        {
          "internalType": "address",
          "name": "token",
          "type": "address"
        },
        {
          "internalType": "address",
          "name": "user",
          "type": "address"
        }
      ],
      "name": "getPossibleCollaterals",
      "outputs": [
        {
          "internalType": "address[]",
          "name": "collateralAddresses",
          "type": "address[]"
        },
        {
          "internalType": "uint256[]",
          "name": "balances",
          "type": "uint256[]"
        },
        {
          "internalType": "string[]",
          "name": "symbols",
          "type": "string[]"
        },
        {
          "internalType": "uint8[]",
          "name": "decimals",
          "type": "uint8[]"
        }
      ],
      "stateMutability": "view",
      "type": "function"
    },
    {
      "inputs": [
        {
          "internalType": "address",
          "name": "token",
          "type": "address"
        }
      ],
      "name": "getSupplyRate",
      "outputs": [
        {
          "internalType": "uint256",
          "name": "",
          "type": "uint256"
        },
        {
          "internalType": "bool",
          "name": "",
          "type": "bool"
        }
      ],
      "stateMutability": "view",
      "type": "function"
    },
    {
      "inputs": [
        {
          "internalType": "address",
          "name": "market",
          "type": "address"
        }
      ],
      "name": "getSupportedCollaterals",
      "outputs": [
        {
          "internalType": "address[]",
          "name": "collateralAddresses",
          "type": "address[]"
        }
      ],
      "stateMutability": "view",
      "type": "function"
    },
    {
      "inputs": [
        {
          "internalType": "address[]",
          "name": "vTokens",
          "type": "address[]"
        },
        {
          "internalType": "address",
          "name": "account",
          "type": "address"
        }
      ],
      "name": "getUserBalances",
      "outputs": [
        {
          "internalType": "uint256[]",
          "name": "balances",
          "type": "uint256[]"
        },
        {
          "internalType": "uint256[]",
          "name": "borrowBalances",
          "type": "uint256[]"
        }
      ],
      "stateMutability": "view",
      "type": "function"
    },
    {
      "inputs": [
        {
          "internalType": "address",
          "name": "underlyingToken",
          "type": "address"
        }
      ],
      "name": "getVTokenForUnderlying",
      "outputs": [
        {
          "internalType": "address",
          "name": "",
          "type": "address"
        }
      ],
      "stateMutability": "view",
      "type": "function"
    },
    {
      "inputs": [
        {
          "internalType": "address",
          "name": "market",
          "type": "address"
        },
        {
          "internalType": "address",
          "name": "collateral",
          "type": "address"
        }
      ],
      "name": "isCollateralSupported",
      "outputs": [
        {
          "internalType": "bool",
          "name": "isSupported",
          "type": "bool"
        }
      ],
      "stateMutability": "view",
      "type": "function"
    },
    {
      "inputs": [],
      "name": "oracle",
      "outputs": [
        {
          "internalType": "contract ResilientOracleInterface",
          "name": "",
          "type": "address"
        }
      ],
      "stateMutability": "view",
      "type": "function"
    },
    {
      "inputs": [],
      "name": "owner",
      "outputs": [
        {
          "internalType": "address",
          "name": "",
          "type": "address"
        }
      ],
      "stateMutability": "view",
      "type": "function"
    },
    {
      "inputs": [],
      "name": "renounceOwnership",
      "outputs": [],
      "stateMutability": "nonpayable",
      "type": "function"
    },
    {
      "inputs": [
        {
          "internalType": "address",
          "name": "token",
          "type": "address"
        },
        {
          "internalType": "address",
          "name": "user",
          "type": "address"
        },
        {
          "internalType": "uint256",
          "name": "amount",
          "type": "uint256"
        }
      ],
      "name": "repay",
      "outputs": [],
      "stateMutability": "nonpayable",
      "type": "function"
    },
    {
      "inputs": [
        {
          "internalType": "address",
          "name": "_comptroller",
          "type": "address"
        }
      ],
      "name": "setComptroller",
      "outputs": [],
      "stateMutability": "nonpayable",
      "type": "function"
    },
    {
      "inputs": [
        {
          "internalType": "address",
          "name": "newOwner",
          "type": "address"
        }
      ],
      "name": "transferOwnership",
      "outputs": [],
      "stateMutability": "nonpayable",
      "type": "function"
    },
    {
      "inputs": [
        {
          "internalType": "address",
          "name": "market",
          "type": "address"
        },
        {
          "internalType": "address",
          "name": "collateral",
          "type": "address"
        },
        {
          "internalType": "address",
          "name": "user",
          "type": "address"
        },
        {
          "internalType": "uint256",
          "name": "underlyingAmount",
          "type": "uint256"
        }
      ],
      "name": "withdrawCollateral",
      "outputs": [
        {
          "internalType": "address",
          "name": "",
          "type": "address"
        },
        {
          "internalType": "uint256",
          "name": "",
          "type": "uint256"
        }
      ],
      "stateMutability": "nonpayable",
      "type": "function"
    }
  ],
  "transactionHash": "0x6ccef19460287d002601d24efc0e03b666e4dcef9a6a71082ac703e1512e5d24",
  "args": [
    "0x317c1A5739F39046E20b08ac9BeEa3f10fD43326",
    "0xd55A98150e0F9f5e3F6280FC25617A5C93d96007",
    "0xAB25FDc3A23514A5651F7b616500049E181F9523"
  ],
  "numDeployments": 1,
  "solcInputHash": "0687e9c7e7ec1d82659b24cd7ab47306",
  "bytecode": "0x60a06040523480156200001157600080fd5b50604051620046eb380380620046eb833981016040819052620000349162000174565b33816001600160a01b038116620000925760405162461bcd60e51b815260206004820152601d60248201527f526f7574657220616464726573732063616e6e6f74206265207a65726f00000060448201526064015b60405180910390fd5b6001600160a01b039081166080528116620000c457604051631e4fbdf760e01b81526000600482015260240162000089565b620000cf8162000107565b505060018055600280546001600160a01b039384166001600160a01b03199182161790915560038054929093169116179055620001be565b600080546001600160a01b038381166001600160a01b0319831681178455604051919092169283917f8be0079c531659141344cd1fd0a4f28419497f9722a3daafe3b4186f6b6457e09190a35050565b80516001600160a01b03811681146200016f57600080fd5b919050565b6000806000606084860312156200018a57600080fd5b620001958462000157565b9250620001a56020850162000157565b9150620001b56040850162000157565b90509250925092565b6080516144ee620001fd6000396000818161029d0152818161097101528181610ccc0152818161124a015281816113d4015261263901526144ee6000f3fe608060405234801561001057600080fd5b50600436106102065760003560e01c80637dc0d1d01161011a578063b0772d0b116100ad578063d71275f61161007c578063d71275f61461055d578063e94201c714610570578063f2fde38b14610583578063f5125d3f14610596578063f639ecd2146105a957600080fd5b8063b0772d0b146104bd578063bad19350146104c5578063be5d6a67146104e5578063d4fac45d1461054a57600080fd5b80638da5cb5b116100e95780638da5cb5b14610473578063929fe9a114610484578063a342986c14610497578063abfceffc146104aa57600080fd5b80637dc0d1d01461041957806381906b801461042c5780638340f5491461044d5780638bad38dd1461046057600080fd5b80635224372c1161019d578063646121321161016c578063646121321461038c57806366e2d09b146103a65780636b5441a9146103c6578063715018a6146103ee57806378466113146103f657600080fd5b80635224372c146103065780635820ba63146103195780635ec88c791461034b5780635fe3b5671461037957600080fd5b806332fe7b26116101d957806332fe7b26146102985780634108d0af146102bf5780635054a1ae146102d2578063508a07f1146102f357600080fd5b8063104e999d1461020b578063118e31b7146102375780631da649cf146102585780632b7be8e81461026d575b600080fd5b61021e610219366004613773565b6105cb565b60405161022e94939291906138f8565b60405180910390f35b61024a610245366004613773565b6108e2565b60405190815260200161022e565b61026b610266366004613950565b610966565b005b61028061027b366004613991565b610b2c565b6040516001600160a01b03909116815260200161022e565b6102807f000000000000000000000000000000000000000000000000000000000000000081565b61026b6102cd3660046139ae565b610cc1565b6102e56102e0366004613a01565b610d1a565b60405161022e929190613a88565b6102e5610301366004613afa565b611070565b61026b610314366004613950565b61123e565b61032c610327366004613b3c565b6113c5565b604080516001600160a01b03909316835260208301919091520161022e565b61035e610359366004613991565b6116ed565b6040805193845260208401929092529082015260600161022e565b600254610280906001600160a01b031681565b61039461176f565b60405161022e96959493929190613b8d565b6103b96103b4366004613991565b611fae565b60405161022e9190613c0f565b6103d96103d4366004613991565b612193565b6040805192835290151560208301520161022e565b61026b612213565b610409610404366004613773565b612227565b604051901515815260200161022e565b600354610280906001600160a01b031681565b61043f61043a366004613c6d565b612349565b60405161022e929190613cb8565b61026b61045b366004613950565b61262e565b61026b61046e366004613991565b61290f565b6000546001600160a01b0316610280565b610409610492366004613773565b612939565b6102e56104a5366004613a01565b6129b7565b6103b96104b8366004613991565b612b9b565b6103b9612cc5565b6104d86104d3366004613c6d565b612df6565b60405161022e9190613ce6565b61053b60025460408051306024820152600160448083018290528351808403909101815260649092019092526020810180516001600160e01b031663ddbf54fd60e01b17905290926001600160a01b0390921691565b60405161022e93929190613d2c565b61024a610558366004613773565b612fa3565b6103d961056b366004613991565b6130a4565b61024a61057e366004613773565b6130f4565b61026b610591366004613991565b61314c565b61024a6105a4366004613773565b61318a565b6105bc6105b7366004613d58565b61320f565b60405161022e93929190613d99565b606080606080600080600080600080306001600160a01b031663646121326040518163ffffffff1660e01b8152600401600060405180830381865afa158015610618573d6000803e3d6000fd5b505050506040513d6000823e601f3d908101601f19168201604052610640919081019061406c565b95509550955095509550955084516001600160401b0381111561066557610665613dd2565b60405190808252806020026020018201604052801561068e578160200160208202803683370190505b50995084516001600160401b038111156106aa576106aa613dd2565b6040519080825280602002602001820160405280156106dd57816020015b60608152602001906001900390816106c85790505b50975084516001600160401b038111156106f9576106f9613dd2565b604051908082528060200260200182016040528015610722578160200160208202803683370190505b50965084516001600160401b0381111561073e5761073e613dd2565b604051908082528060200260200182016040528015610767578160200160208202803683370190505b5098506001600160a01b038b16156107f3576000306001600160a01b03166381906b80888e6040518363ffffffff1660e01b81526004016107a9929190614160565b600060405180830381865afa1580156107c6573d6000803e3d6000fd5b505050506040513d6000823e601f3d908101601f191682016040526107ee919081019061418a565b509950505b60005b85518110156108d257858181518110610811576108116141ed565b60200260200101518b828151811061082b5761082b6141ed565b60200260200101906001600160a01b031690816001600160a01b03168152505084818151811061085d5761085d6141ed565b6020026020010151898281518110610877576108776141ed565b6020026020010181905250828181518110610894576108946141ed565b60200260200101518882815181106108ae576108ae6141ed565b60ff90921660209283029190910190910152806108ca81614219565b9150506107f6565b5050505050505092959194509250565b6000806108ee84610b2c565b6040516395dd919360e01b81526001600160a01b038581166004830152919250908216906395dd919390602401602060405180830381865afa158015610938573d6000803e3d6000fd5b505050506040513d601f19601f8201168201806040525081019061095c9190614232565b9150505b92915050565b336001600160a01b037f000000000000000000000000000000000000000000000000000000000000000016146109b75760405162461bcd60e51b81526004016109ae9061424b565b60405180910390fd5b6109bf6134c4565b60006109ca84610b2c565b90506109e16001600160a01b0385163330856134ee565b60405163095ea7b360e01b81526001600160a01b0382811660048301526024820184905285169063095ea7b3906044016020604051808303816000875af1158015610a30573d6000803e3d6000fd5b505050506040513d601f19601f82011682018060405250810190610a549190614279565b506040516304c11f0360e31b81526001600160a01b0384811660048301526024820184905260009190831690632608f818906044016020604051808303816000875af1158015610aa8573d6000803e3d6000fd5b505050506040513d601f19601f82011682018060405250810190610acc9190614232565b90508015610b1c5760405162461bcd60e51b815260206004820152601a60248201527f56656e7573476174657761793a207265706179206661696c656400000000000060448201526064016109ae565b5050610b2760018055565b505050565b600080306001600160a01b031663b0772d0b6040518163ffffffff1660e01b8152600401600060405180830381865afa158015610b6d573d6000803e3d6000fd5b505050506040513d6000823e601f3d908101601f19168201604052610b95919081019061429b565b905060005b8151811015610c5c576000828281518110610bb757610bb76141ed565b60200260200101519050806001600160a01b0316636f307dc36040518163ffffffff1660e01b8152600401602060405180830381865afa925050508015610c1b575060408051601f3d908101601f19168201909252610c18918101906142cf565b60015b610c255750610c4a565b856001600160a01b0316816001600160a01b031603610c475750949350505050565b50505b80610c5481614219565b915050610b9a565b5060405162461bcd60e51b815260206004820152603360248201527f56656e7573476174657761793a2076546f6b656e206e6f7420666f756e64206660448201527237b9103ab73232b9363cb4b733903a37b5b2b760691b60648201526084016109ae565b336001600160a01b037f00000000000000000000000000000000000000000000000000000000000000001614610d095760405162461bcd60e51b81526004016109ae9061424b565b610d1483828461262e565b50505050565b6040805160018082528183019092526060918291906020808301908036833701905050604080516001808252818301909252919350816020015b6060815260200190600190039081610d5457505060025483519192506001600160a01b0316908390600090610d8b57610d8b6141ed565b6001600160a01b03909216602092830291909101909101526000836001600160401b03811115610dbd57610dbd613dd2565b604051908082528060200260200182016040528015610de6578160200160208202803683370190505b5090506000805b85811015610eda5730632b7be8e8888884818110610e0d57610e0d6141ed565b610e239260206040909202019081019150613991565b6040516001600160e01b031960e084901b1681526001600160a01b039091166004820152602401602060405180830381865afa925050508015610e83575060408051601f3d908101601f19168201909252610e80918101906142cf565b60015b15610ec857808484610e9481614219565b955081518110610ea657610ea66141ed565b60200260200101906001600160a01b031690816001600160a01b031681525050505b80610ed281614219565b915050610ded565b5080600003610f475760005b604051908082528060200260200182016040528015610f0f578160200160208202803683370190505b506040805160008082526020820190925290610f3b565b6060815260200190600190039081610f265790505b50935093505050611068565b84811015610ffa576000816001600160401b03811115610f6957610f69613dd2565b604051908082528060200260200182016040528015610f92578160200160208202803683370190505b50905060005b82811015610ff657838181518110610fb257610fb26141ed565b6020026020010151828281518110610fcc57610fcc6141ed565b6001600160a01b039092166020928302919091019091015280610fee81614219565b915050610f98565b5091505b604051631853304760e31b90611014908490602401613c0f565b604051602081830303815290604052906001600160e01b0319166020820180516001600160e01b0383818316178352505050508360008151811061105a5761105a6141ed565b602002602001018190525050505b935093915050565b60405163056f7d1d60e31b81526001600160a01b038416600482015260609081903090632b7be8e890602401602060405180830381865afa9250505080156110d5575060408051601f3d908101601f191682019092526110d2918101906142cf565b60015b611116576040805160008082526020820181815282840190935290919061110c565b60608152602001906001900390816110f75790505b5091509150611068565b600254604051630217306760e31b81526001600160a01b03868116600483015230602483015260009216906310b9833890604401602060405180830381865afa925050508015611183575060408051601f3d908101601f1916820190925261118091810190614279565b60015b1561118b5790505b8015611198576000610ee6565b604080516001808252818301909252906020808301908036833701905050604080516001808252818301909252919550816020015b60608152602001906001900390816111cd57505060025485519194506001600160a01b0316908590600090611204576112046141ed565b6001600160a01b0392909216602092830291909101909101526040513060248201526001604482015263ddbf54fd60e01b90606401611014565b81336001600160a01b037f000000000000000000000000000000000000000000000000000000000000000016148061127e5750336001600160a01b038216145b6112ca5760405162461bcd60e51b815260206004820152601c60248201527f4f6e6c7920726f75746572206f722073656c662063616e2063616c6c0000000060448201526064016109ae565b6112d26134c4565b60006112dd85610b2c565b60405163856e5bb360e01b81526001600160a01b0386811660048301526024820186905291925060009183169063856e5bb3906044016020604051808303816000875af1158015611332573d6000803e3d6000fd5b505050506040513d601f19601f820116820180604052508101906113569190614232565b905080156113a65760405162461bcd60e51b815260206004820152601b60248201527f56656e7573476174657761793a20626f72726f77206661696c6564000000000060448201526064016109ae565b6113ba6001600160a01b0387163386613555565b5050610d1460018055565b60008083336001600160a01b037f00000000000000000000000000000000000000000000000000000000000000001614806114085750336001600160a01b038216145b6114545760405162461bcd60e51b815260206004820152601c60248201527f4f6e6c7920726f75746572206f722073656c662063616e2063616c6c0000000060448201526064016109ae565b61145c6134c4565b60405163056f7d1d60e31b81526001600160a01b03871660048201526000903090632b7be8e890602401602060405180830381865afa1580156114a3573d6000803e3d6000fd5b505050506040513d601f19601f820116820180604052508101906114c791906142cf565b905060008190506000816001600160a01b0316636f307dc36040518163ffffffff1660e01b8152600401602060405180830381865afa15801561150e573d6000803e3d6000fd5b505050506040513d601f19601f8201168201806040525081019061153291906142cf565b90506000826001600160a01b031663bd6d894d6040518163ffffffff1660e01b81526004016020604051808303816000875af1158015611576573d6000803e3d6000fd5b505050506040513d601f19601f8201168201806040525081019061159a9190614232565b90506000816001816115b48c670de0b6b3a76400006142ec565b6115be9190614303565b6115c89190614316565b6115d29190614329565b6040516323b872dd60e01b81526001600160a01b038c8116600483015230602483015260448201839052919250908516906323b872dd906064016020604051808303816000875af115801561162b573d6000803e3d6000fd5b505050506040513d601f19601f8201168201806040525081019061164f9190614279565b5060405163db006a7560e01b8152600481018290526001600160a01b0385169063db006a75906024016020604051808303816000875af1158015611697573d6000803e3d6000fd5b505050506040513d601f19601f820116820180604052508101906116bb9190614232565b506116d06001600160a01b038416338b613555565b509095508694505050506116e360018055565b5094509492505050565b600254604051635ec88c7960e01b81526001600160a01b0383811660048301526000928392839290911690635ec88c7990602401606060405180830381865afa15801561173e573d6000803e3d6000fd5b505050506040513d601f19601f82011682018060405250810190611762919061434b565b9250925092509193909250565b606080606080606080306001600160a01b031663b0772d0b6040518163ffffffff1660e01b8152600401600060405180830381865afa1580156117b6573d6000803e3d6000fd5b505050506040513d6000823e601f3d908101601f191682016040526117de919081019061429b565b8051909650806001600160401b038111156117fb576117fb613dd2565b604051908082528060200260200182016040528015611824578160200160208202803683370190505b509550806001600160401b0381111561183f5761183f613dd2565b60405190808252806020026020018201604052801561187257816020015b606081526020019060019003908161185d5790505b509450806001600160401b0381111561188d5761188d613dd2565b6040519080825280602002602001820160405280156118c057816020015b60608152602001906001900390816118ab5790505b509350806001600160401b038111156118db576118db613dd2565b604051908082528060200260200182016040528015611904578160200160208202803683370190505b509250806001600160401b0381111561191f5761191f613dd2565b604051908082528060200260200182016040528015611948578160200160208202803683370190505b50915060005b81811015611fa457600088828151811061196a5761196a6141ed565b602002602001015190506000819050806001600160a01b0316636f307dc36040518163ffffffff1660e01b8152600401602060405180830381865afa9250505080156119d3575060408051601f3d908101601f191682019092526119d0918101906142cf565b60015b611b9e5760008984815181106119eb576119eb6141ed565b60200260200101906001600160a01b031690816001600160a01b031681525050806001600160a01b03166395d89b416040518163ffffffff1660e01b8152600401600060405180830381865afa158015611a49573d6000803e3d6000fd5b505050506040513d6000823e601f3d908101601f19168201604052611a719190810190614379565b888481518110611a8357611a836141ed565b6020026020010181905250806001600160a01b03166306fdde036040518163ffffffff1660e01b8152600401600060405180830381865afa158015611acc573d6000803e3d6000fd5b505050506040513d6000823e601f3d908101601f19168201604052611af49190810190614379565b878481518110611b0657611b066141ed565b6020026020010181905250806001600160a01b031663313ce5676040518163ffffffff1660e01b8152600401602060405180830381865afa158015611b4f573d6000803e3d6000fd5b505050506040513d601f19601f82011682018060405250810190611b7391906143ad565b868481518110611b8557611b856141ed565b602002602001019060ff16908160ff1681525050611f03565b808a8581518110611bb157611bb16141ed565b60200260200101906001600160a01b031690816001600160a01b0316815250506000819050806001600160a01b03166395d89b416040518163ffffffff1660e01b8152600401600060405180830381865afa925050508015611c3557506040513d6000823e601f3d908101601f19168201604052611c329190810190614379565b60015b611cc157826001600160a01b03166395d89b416040518163ffffffff1660e01b8152600401600060405180830381865afa158015611c77573d6000803e3d6000fd5b505050506040513d6000823e601f3d908101601f19168201604052611c9f9190810190614379565b8a8681518110611cb157611cb16141ed565b6020026020010181905250611ce1565b808b8781518110611cd457611cd46141ed565b6020026020010181905250505b806001600160a01b03166306fdde036040518163ffffffff1660e01b8152600401600060405180830381865afa925050508015611d4057506040513d6000823e601f3d908101601f19168201604052611d3d9190810190614379565b60015b611dcc57826001600160a01b03166306fdde036040518163ffffffff1660e01b8152600401600060405180830381865afa158015611d82573d6000803e3d6000fd5b505050506040513d6000823e601f3d908101601f19168201604052611daa9190810190614379565b898681518110611dbc57611dbc6141ed565b6020026020010181905250611dec565b808a8781518110611ddf57611ddf6141ed565b6020026020010181905250505b806001600160a01b031663313ce5676040518163ffffffff1660e01b8152600401602060405180830381865afa925050508015611e46575060408051601f3d908101601f19168201909252611e43918101906143ad565b60015b611ed757826001600160a01b031663313ce5676040518163ffffffff1660e01b8152600401602060405180830381865afa158015611e88573d6000803e3d6000fd5b505050506040513d601f19601f82011682018060405250810190611eac91906143ad565b888681518110611ebe57611ebe6141ed565b602002602001019060ff16908160ff1681525050611f00565b80898781518110611eea57611eea6141ed565b602002602001019060ff16908160ff1681525050505b50505b60035460405163fc57d4df60e01b81526001600160a01b0384811660048301529091169063fc57d4df90602401602060405180830381865afa158015611f4d573d6000803e3d6000fd5b505050506040513d601f19601f82011682018060405250810190611f719190614232565b858481518110611f8357611f836141ed565b60200260200101818152505050508080611f9c90614219565b91505061194e565b5050909192939495565b60606000306001600160a01b031663646121326040518163ffffffff1660e01b8152600401600060405180830381865afa158015611ff0573d6000803e3d6000fd5b505050506040513d6000823e601f3d908101601f19168201604052612018919081019061406c565b505050509150506000805b825181101561207957846001600160a01b0316838281518110612048576120486141ed565b60200260200101516001600160a01b0316036120675760019150612079565b8061207181614219565b915050612023565b508061209657505060408051600081526020810190915292915050565b600182516120a49190614316565b6001600160401b038111156120bb576120bb613dd2565b6040519080825280602002602001820160405280156120e4578160200160208202803683370190505b5092506000805b835181101561218a57856001600160a01b0316848281518110612110576121106141ed565b60200260200101516001600160a01b03161461217857838181518110612138576121386141ed565b6020026020010151858381518110612152576121526141ed565b6001600160a01b03909216602092830291909101909101528161217481614219565b9250505b8061218281614219565b9150506120eb565b50505050919050565b60008060006121a184610b2c565b90506000816001600160a01b031663ae9d70b06040518163ffffffff1660e01b8152600401602060405180830381865afa1580156121e3573d6000803e3d6000fd5b505050506040513d601f19601f820116820180604052508101906122079190614232565b95600195509350505050565b61221b613586565b61222560006135b3565b565b600080306001600160a01b031663646121326040518163ffffffff1660e01b8152600401600060405180830381865afa158015612268573d6000803e3d6000fd5b505050506040513d6000823e601f3d908101601f19168201604052612290919081019061406c565b5050505091505060008060005b835181101561233457866001600160a01b03168482815181106122c2576122c26141ed565b60200260200101516001600160a01b0316036122dd57600192505b856001600160a01b03168482815181106122f9576122f96141ed565b60200260200101516001600160a01b03160361231457600191505b82801561231e5750815b612334578061232c81614219565b91505061229d565b5081801561233f5750805b9695505050505050565b6060806001600160a01b0383166123725760405162461bcd60e51b81526004016109ae906143c8565b83806001600160401b0381111561238b5761238b613dd2565b6040519080825280602002602001820160405280156123b4578160200160208202803683370190505b509250806001600160401b038111156123cf576123cf613dd2565b6040519080825280602002602001820160405280156123f8578160200160208202803683370190505b50915060005b8181101561262457600087878381811061241a5761241a6141ed565b905060200201602081019061242f9190613991565b6040516370a0823160e01b81526001600160a01b03888116600483015291925082918216906370a0823190602401602060405180830381865afa925050508015612496575060408051601f3d908101601f1916820190925261249391810190614232565b60015b6124bf5760008684815181106124ae576124ae6141ed565b602002602001018181525050612563565b6000826001600160a01b031663182df0f56040518163ffffffff1660e01b8152600401602060405180830381865afa1580156124ff573d6000803e3d6000fd5b505050506040513d601f19601f820116820180604052508101906125239190614232565b9050670de0b6b3a764000061253882846142ec565b6125429190614329565b888681518110612554576125546141ed565b60200260200101818152505050505b6040516395dd919360e01b81526001600160a01b0388811660048301528216906395dd919390602401602060405180830381865afa9250505080156125c5575060408051601f3d908101601f191682019092526125c291810190614232565b60015b6125ee5760008584815181106125dd576125dd6141ed565b60200260200101818152505061260f565b80868581518110612601576126016141ed565b602002602001018181525050505b5050808061261c90614219565b9150506123fe565b5050935093915050565b336001600160a01b037f000000000000000000000000000000000000000000000000000000000000000016146126765760405162461bcd60e51b81526004016109ae9061424b565b61267e6134c4565b600061268984610b2c565b90506126a06001600160a01b0385163330856134ee565b60405163095ea7b360e01b81526001600160a01b0382811660048301526024820184905285169063095ea7b3906044016020604051808303816000875af11580156126ef573d6000803e3d6000fd5b505050506040513d601f19601f820116820180604052508101906127139190614279565b5060405163140e25ad60e31b8152600481018390526000906001600160a01b0383169063a0712d68906024016020604051808303816000875af115801561275e573d6000803e3d6000fd5b505050506040513d601f19601f820116820180604052508101906127829190614232565b905080156127d25760405162461bcd60e51b815260206004820152601c60248201527f56656e7573476174657761793a206465706f736974206661696c65640000000060448201526064016109ae565b6040516370a0823160e01b81523060048201526000906001600160a01b038416906370a0823190602401602060405180830381865afa158015612819573d6000803e3d6000fd5b505050506040513d601f19601f8201168201806040525081019061283d9190614232565b90506000811161288f5760405162461bcd60e51b815260206004820152601f60248201527f56656e7573476174657761793a206e6f2076546f6b656e73206d696e7465640060448201526064016109ae565b60405163a9059cbb60e01b81526001600160a01b0386811660048301526024820183905284169063a9059cbb906044016020604051808303816000875af11580156128de573d6000803e3d6000fd5b505050506040513d601f19601f820116820180604052508101906129029190614279565b50505050610b2760018055565b612917613586565b600280546001600160a01b0319166001600160a01b0392909216919091179055565b60025460405163929fe9a160e01b81526001600160a01b0384811660048301528381166024830152600092169063929fe9a190604401602060405180830381865afa15801561298c573d6000803e3d6000fd5b505050506040513d601f19601f820116820180604052508101906129b09190614279565b9392505050565b606080826001600160401b038111156129d2576129d2613dd2565b6040519080825280602002602001820160405280156129fb578160200160208202803683370190505b509150826001600160401b03811115612a1657612a16613dd2565b604051908082528060200260200182016040528015612a4957816020015b6060815260200190600190039081612a345790505b50905060005b83811015612b9257600030632b7be8e8878785818110612a7157612a716141ed565b612a879260206040909202019081019150613991565b6040516001600160e01b031960e084901b1681526001600160a01b039091166004820152602401602060405180830381865afa925050508015612ae7575060408051601f3d908101601f19168201909252612ae4918101906142cf565b60015b612af15750612b80565b905080848381518110612b0657612b066141ed565b6001600160a01b03929092166020928302919091018201526040805130602482015260001960448083019190915282518083039091018152606490910190915290810180516001600160e01b031663095ea7b360e01b1790528351849084908110612b7357612b736141ed565b6020026020010181905250505b80612b8a81614219565b915050612a4f565b50935093915050565b600254604051632aff3bff60e21b81526001600160a01b03838116600483015260609260009291169063abfceffc90602401600060405180830381865afa158015612bea573d6000803e3d6000fd5b505050506040513d6000823e601f3d908101601f19168201604052612c12919081019061440e565b9050600081516001600160401b03811115612c2f57612c2f613dd2565b604051908082528060200260200182016040528015612c58578160200160208202803683370190505b50905060005b8251811015612cbd57828181518110612c7957612c796141ed565b6020026020010151828281518110612c9357612c936141ed565b6001600160a01b039092166020928302919091019091015280612cb581614219565b915050612c5e565b509392505050565b60606000600260009054906101000a90046001600160a01b03166001600160a01b031663b0772d0b6040518163ffffffff1660e01b8152600401600060405180830381865afa158015612d1c573d6000803e3d6000fd5b505050506040513d6000823e601f3d908101601f19168201604052612d44919081019061440e565b9050600081516001600160401b03811115612d6157612d61613dd2565b604051908082528060200260200182016040528015612d8a578160200160208202803683370190505b50905060005b8251811015612def57828181518110612dab57612dab6141ed565b6020026020010151828281518110612dc557612dc56141ed565b6001600160a01b039092166020928302919091019091015280612de781614219565b915050612d90565b5092915050565b60606001600160a01b038216612e1e5760405162461bcd60e51b81526004016109ae906143c8565b82806001600160401b03811115612e3757612e37613dd2565b604051908082528060200260200182016040528015612e60578160200160208202803683370190505b50604051632aff3bff60e21b81526001600160a01b0385166004820152909250600090309063abfceffc90602401600060405180830381865afa158015612eab573d6000803e3d6000fd5b505050506040513d6000823e601f3d908101601f19168201604052612ed3919081019061429b565b905060005b82811015612f99576000878783818110612ef457612ef46141ed565b9050602002016020810190612f099190613991565b905060005b8351811015612f8457816001600160a01b0316848281518110612f3357612f336141ed565b60200260200101516001600160a01b031603612f72576001868481518110612f5d57612f5d6141ed565b91151560209283029190910190910152612f84565b80612f7c81614219565b915050612f0e565b50508080612f9190614219565b915050612ed8565b5050509392505050565b600080612faf84610b2c565b6040516370a0823160e01b81526001600160a01b0385811660048301529192506000918316906370a0823190602401602060405180830381865afa158015612ffb573d6000803e3d6000fd5b505050506040513d601f19601f8201168201806040525081019061301f9190614232565b90506000826001600160a01b031663182df0f56040518163ffffffff1660e01b8152600401602060405180830381865afa158015613061573d6000803e3d6000fd5b505050506040513d601f19601f820116820180604052508101906130859190614232565b9050670de0b6b3a764000061309a82846142ec565b61233f9190614329565b60008060006130b284610b2c565b90506000816001600160a01b031663f8f9da286040518163ffffffff1660e01b8152600401602060405180830381865afa1580156121e3573d6000803e3d6000fd5b60008061310084610b2c565b6040516305eff7ef60e21b81526001600160a01b038581166004830152919250908216906317bfdfbc906024016020604051808303816000875af1158015610938573d6000803e3d6000fd5b613154613586565b6001600160a01b03811661317e57604051631e4fbdf760e01b8152600060048201526024016109ae565b613187816135b3565b50565b60405163056f7d1d60e31b81526001600160a01b038316600482015260009081903090632b7be8e890602401602060405180830381865afa9250505080156131ef575060408051601f3d908101601f191682019092526131ec918101906142cf565b60015b6131fd576000915050610960565b50670a688906bd8b0000949350505050565b6060808083806001600160401b0381111561322c5761322c613dd2565b604051908082528060200260200182016040528015613255578160200160208202803683370190505b509350806001600160401b0381111561327057613270613dd2565b604051908082528060200260200182016040528015613299578160200160208202803683370190505b509250806001600160401b038111156132b4576132b4613dd2565b6040519080825280602002602001820160405280156132dd578160200160208202803683370190505b50915060005b818110156134bb5760008787838181106132ff576132ff6141ed565b90506020020160208101906133149190613991565b90506000819050806001600160a01b031663ae9d70b06040518163ffffffff1660e01b8152600401602060405180830381865afa158015613359573d6000803e3d6000fd5b505050506040513d601f19601f8201168201806040525081019061337d9190614232565b86848151811061338f5761338f6141ed565b602002602001018181525050806001600160a01b031663f8f9da286040518163ffffffff1660e01b8152600401602060405180830381865afa1580156133d9573d6000803e3d6000fd5b505050506040513d601f19601f820116820180604052508101906133fd9190614232565b85848151811061340f5761340f6141ed565b602090810291909101015260035460405163fc57d4df60e01b81526001600160a01b0384811660048301529091169063fc57d4df90602401602060405180830381865afa158015613464573d6000803e3d6000fd5b505050506040513d601f19601f820116820180604052508101906134889190614232565b87848151811061349a5761349a6141ed565b602002602001018181525050505080806134b390614219565b9150506132e3565b50509250925092565b6002600154036134e757604051633ee5aeb560e01b815260040160405180910390fd5b6002600155565b6040516001600160a01b038481166024830152838116604483015260648201839052610d149186918216906323b872dd906084015b604051602081830303815290604052915060e01b6020820180516001600160e01b038381831617835250505050613603565b6040516001600160a01b03838116602483015260448201839052610b2791859182169063a9059cbb90606401613523565b6000546001600160a01b031633146122255760405163118cdaa760e01b81523360048201526024016109ae565b600080546001600160a01b038381166001600160a01b0319831681178455604051919092169283917f8be0079c531659141344cd1fd0a4f28419497f9722a3daafe3b4186f6b6457e09190a35050565b60006136186001600160a01b03841683613666565b9050805160001415801561363d57508080602001905181019061363b9190614279565b155b15610b2757604051635274afe760e01b81526001600160a01b03841660048201526024016109ae565b60606129b08383600084600080856001600160a01b0316848660405161368c919061449c565b60006040518083038185875af1925050503d80600081146136c9576040519150601f19603f3d011682016040523d82523d6000602084013e6136ce565b606091505b509150915061233f8683836060826136ee576136e982613735565b6129b0565b815115801561370557506001600160a01b0384163b155b1561372e57604051639996b31560e01b81526001600160a01b03851660048201526024016109ae565b50806129b0565b8051156137455780518082602001fd5b604051630a12f52160e11b815260040160405180910390fd5b6001600160a01b038116811461318757600080fd5b6000806040838503121561378657600080fd5b82356137918161375e565b915060208301356137a18161375e565b809150509250929050565b600081518084526020808501945080840160005b838110156137e55781516001600160a01b0316875295820195908201906001016137c0565b509495945050505050565b600081518084526020808501945080840160005b838110156137e557815187529582019590820190600101613804565b60005b8381101561383b578181015183820152602001613823565b50506000910152565b6000815180845261385c816020860160208601613820565b601f01601f19169290920160200192915050565b600081518084526020808501808196508360051b8101915082860160005b858110156138b85782840389526138a6848351613844565b9885019893509084019060010161388e565b5091979650505050505050565b600081518084526020808501945080840160005b838110156137e557815160ff16875295820195908201906001016138d9565b60808152600061390b60808301876137ac565b828103602084015261391d81876137f0565b905082810360408401526139318186613870565b9050828103606084015261394581856138c5565b979650505050505050565b60008060006060848603121561396557600080fd5b83356139708161375e565b925060208401356139808161375e565b929592945050506040919091013590565b6000602082840312156139a357600080fd5b81356129b08161375e565b600080600080608085870312156139c457600080fd5b84356139cf8161375e565b935060208501356139df8161375e565b92506040850135915060608501356139f68161375e565b939692955090935050565b600080600060408486031215613a1657600080fd5b8335613a218161375e565b925060208401356001600160401b0380821115613a3d57600080fd5b818601915086601f830112613a5157600080fd5b813581811115613a6057600080fd5b8760208260061b8501011115613a7557600080fd5b6020830194508093505050509250925092565b604081526000613a9b60408301856137ac565b6020838203818501528185518084528284019150828160051b85010183880160005b83811015613aeb57601f19878403018552613ad9838351613844565b94860194925090850190600101613abd565b50909998505050505050505050565b600080600060608486031215613b0f57600080fd5b8335613b1a8161375e565b9250602084013591506040840135613b318161375e565b809150509250925092565b60008060008060808587031215613b5257600080fd5b8435613b5d8161375e565b93506020850135613b6d8161375e565b92506040850135613b7d8161375e565b9396929550929360600135925050565b60c081526000613ba060c08301896137ac565b8281036020840152613bb281896137ac565b90508281036040840152613bc68188613870565b90508281036060840152613bda8187613870565b90508281036080840152613bee81866138c5565b905082810360a0840152613c0281856137f0565b9998505050505050505050565b6020815260006129b060208301846137ac565b60008083601f840112613c3457600080fd5b5081356001600160401b03811115613c4b57600080fd5b6020830191508360208260051b8501011115613c6657600080fd5b9250929050565b600080600060408486031215613c8257600080fd5b83356001600160401b03811115613c9857600080fd5b613ca486828701613c22565b9094509250506020840135613b318161375e565b604081526000613ccb60408301856137f0565b8281036020840152613cdd81856137f0565b95945050505050565b6020808252825182820181905260009190848201906040850190845b81811015613d20578351151583529284019291840191600101613d02565b50909695505050505050565b83151581526001600160a01b0383166020820152606060408201819052600090613cdd90830184613844565b60008060208385031215613d6b57600080fd5b82356001600160401b03811115613d8157600080fd5b613d8d85828601613c22565b90969095509350505050565b606081526000613dac60608301866137f0565b8281036020840152613dbe81866137f0565b9050828103604084015261233f81856137f0565b634e487b7160e01b600052604160045260246000fd5b604051601f8201601f191681016001600160401b0381118282101715613e1057613e10613dd2565b604052919050565b60006001600160401b03821115613e3157613e31613dd2565b5060051b60200190565b600082601f830112613e4c57600080fd5b81516020613e61613e5c83613e18565b613de8565b82815260059290921b84018101918181019086841115613e8057600080fd5b8286015b84811015613ea4578051613e978161375e565b8352918301918301613e84565b509695505050505050565b600082601f830112613ec057600080fd5b81516001600160401b03811115613ed957613ed9613dd2565b613eec601f8201601f1916602001613de8565b818152846020838601011115613f0157600080fd5b613f12826020830160208701613820565b949350505050565b600082601f830112613f2b57600080fd5b81516020613f3b613e5c83613e18565b82815260059290921b84018101918181019086841115613f5a57600080fd5b8286015b84811015613ea45780516001600160401b03811115613f7d5760008081fd5b613f8b8986838b0101613eaf565b845250918301918301613f5e565b805160ff81168114613faa57600080fd5b919050565b600082601f830112613fc057600080fd5b81516020613fd0613e5c83613e18565b82815260059290921b84018101918181019086841115613fef57600080fd5b8286015b84811015613ea45761400481613f99565b8352918301918301613ff3565b600082601f83011261402257600080fd5b81516020614032613e5c83613e18565b82815260059290921b8401810191818101908684111561405157600080fd5b8286015b84811015613ea45780518352918301918301614055565b60008060008060008060c0878903121561408557600080fd5b86516001600160401b038082111561409c57600080fd5b6140a88a838b01613e3b565b975060208901519150808211156140be57600080fd5b6140ca8a838b01613e3b565b965060408901519150808211156140e057600080fd5b6140ec8a838b01613f1a565b9550606089015191508082111561410257600080fd5b61410e8a838b01613f1a565b9450608089015191508082111561412457600080fd5b6141308a838b01613faf565b935060a089015191508082111561414657600080fd5b5061415389828a01614011565b9150509295509295509295565b60408152600061417360408301856137ac565b905060018060a01b03831660208301529392505050565b6000806040838503121561419d57600080fd5b82516001600160401b03808211156141b457600080fd5b6141c086838701614011565b935060208501519150808211156141d657600080fd5b506141e385828601614011565b9150509250929050565b634e487b7160e01b600052603260045260246000fd5b634e487b7160e01b600052601160045260246000fd5b60006001820161422b5761422b614203565b5060010190565b60006020828403121561424457600080fd5b5051919050565b60208082526014908201527313db9b1e481c9bdd5d195c8818d85b8818d85b1b60621b604082015260600190565b60006020828403121561428b57600080fd5b815180151581146129b057600080fd5b6000602082840312156142ad57600080fd5b81516001600160401b038111156142c357600080fd5b61095c84828501613e3b565b6000602082840312156142e157600080fd5b81516129b08161375e565b808202811582820484141761096057610960614203565b8082018082111561096057610960614203565b8181038181111561096057610960614203565b60008261434657634e487b7160e01b600052601260045260246000fd5b500490565b60008060006060848603121561436057600080fd5b8351925060208401519150604084015190509250925092565b60006020828403121561438b57600080fd5b81516001600160401b038111156143a157600080fd5b61095c84828501613eaf565b6000602082840312156143bf57600080fd5b6129b082613f99565b60208082526026908201527f56656e7573476174657761793a207a65726f2061646472657373206e6f7420616040820152651b1b1bddd95960d21b606082015260800190565b6000602080838503121561442157600080fd5b82516001600160401b0381111561443757600080fd5b8301601f8101851361444857600080fd5b8051614456613e5c82613e18565b81815260059190911b8201830190838101908783111561447557600080fd5b928401925b8284101561394557835161448d8161375e565b8252928401929084019061447a565b600082516144ae818460208701613820565b919091019291505056fea2646970667358221220481d4fe027fb5f9624cdf7ff5dbfafee87391307341535e5940ea19ac99c35c164736f6c63430008140033",
  "devdoc": {
    "errors": {
      "AddressEmptyCode(address)": [
        {
          "details": "There's no code at `target` (it is not a contract)."
        }
      ],
      "AddressInsufficientBalance(address)": [
        {
          "details": "The ETH balance of the account is not enough to perform the operation."
        }
      ],
      "FailedInnerCall()": [
        {
          "details": "A call to an address target failed. The target may have reverted."
        }
      ],
      "OwnableInvalidOwner(address)": [
        {
          "details": "The owner is not a valid owner account. (eg. `address(0)`)"
        }
      ],
      "OwnableUnauthorizedAccount(address)": [
        {
          "details": "The caller account is not authorized to perform an operation."
        }
      ],
      "ReentrancyGuardReentrantCall()": [
        {
          "details": "Unauthorized reentrant call."
        }
      ],
      "SafeERC20FailedOperation(address)": [
        {
          "details": "An operation with an ERC20 token failed."
        }
      ]
    },
    "kind": "dev",
    "methods": {
      "borrow(address,address,uint256)": {
        "params": {
          "amount": "The amount to borrow",
          "token": "The underlying token to borrow",
          "user": "The account to borrow for"
        }
      },
      "checkMembership(address,address)": {
        "params": {
          "account": "The account to check",
          "vToken": "The vToken market to check"
        },
        "returns": {
          "_0": "True if the account has entered the market"
        }
      },
      "deposit(address,address,uint256)": {
        "params": {
          "amount": "The amount to supply",
          "token": "The underlying token to supply",
          "user": "The account to supply for"
        }
      },
      "getAccountLiquidity(address)": {
        "params": {
          "account": "The address to check"
        },
        "returns": {
          "_0": "error Error code (0=success, otherwise a failure)",
          "_1": "liquidity The USD value borrowable by the account",
          "_2": "shortfall The USD value of collateral needed to meet obligations"
        }
      },
      "getAllMarkets()": {
        "returns": {
          "_0": "A list of all vToken addresses"
        }
      },
      "getAllVenusMarkets()": {
        "details": "This function returns arrays of basic information about all Venus markets",
        "returns": {
          "decimals": "Array of token decimals",
          "names": "Array of token names",
          "symbols": "Array of token symbols",
          "tokens": "Array of underlying token addresses",
          "vTokens": "Array of vToken addresses"
        }
      },
      "getAssetsIn(address)": {
        "params": {
          "account": "The account to check"
        },
        "returns": {
          "_0": "A list of vToken addresses the account has entered"
        }
      },
      "getBalance(address,address)": {
        "params": {
          "token": "The underlying token",
          "user": "The account to check"
        },
        "returns": {
          "_0": "The user's supply balance"
        }
      },
      "getBorrowBalance(address,address)": {
        "params": {
          "token": "The underlying token",
          "user": "The account to check"
        },
        "returns": {
          "_0": "The user's borrow balance"
        }
      },
      "getBorrowRate(address)": {
        "params": {
          "token": "The underlying token"
        },
        "returns": {
          "_0": "The borrow rate and a boolean indicating success"
        }
      },
      "getCollateralStatus(address[],address)": {
        "params": {
          "account": "The user account to check",
          "vTokens": "Array of vToken addresses to check"
        },
        "returns": {
          "isCollateral": "Array of booleans indicating if token is used as collateral"
        }
      },
      "getEncodedCollateralApprovals(address,(address,uint256)[])": {
        "details": "For Venus, this involves approving token transfers to vToken contracts",
        "params": {
          "collaterals": "The collaterals to approve",
          "token": "The token to borrow (not used in this implementation)"
        },
        "returns": {
          "data": "Array of encoded function call data",
          "target": "Array of target contract addresses"
        }
      },
      "getEncodedDebtApproval(address,uint256,address)": {
        "details": "For Venus, this involves checking if delegate approval is needed and entering the market",
        "params": {
          "amount": "The amount to borrow (not used in this implementation)",
          "token": "The token to borrow",
          "user": "The user address to check for delegate approval"
        },
        "returns": {
          "data": "Array of encoded function call data",
          "target": "Array of target contract addresses"
        }
      },
      "getEncodedDelegateApproval()": {
        "returns": {
          "data": "The encoded call data for updateDelegate function",
          "shouldApprove": "Whether the user should approve the delegate",
          "target": "The comptroller address"
        }
      },
      "getInboundCollateralActions(address,(address,uint256)[])": {
        "details": "For Venus, users need to enter markets for each collateral they want to use",
        "params": {
          "collaterals": "The collaterals to use",
          "token": "The token to borrow"
        },
        "returns": {
          "data": "Array of encoded function call data",
          "target": "Array of target contract addresses"
        }
      },
      "getLtv(address,address)": {
        "details": "In Venus, the LTV is controlled by the Comptroller and is protocol-wide",
        "params": {
          "token": "The token to check LTV for",
          "user": "The user address"
        },
        "returns": {
          "_0": "ltv The loan-to-value ratio (percentage multiplied by 1e18)"
        }
      },
      "getMarketRates(address[])": {
        "params": {
          "vTokens": "Array of vToken addresses to query"
        },
        "returns": {
          "borrowRates": "Array of borrow rates per block",
          "prices": "Array of token prices (8 decimals precision)",
          "supplyRates": "Array of supply rates per block"
        }
      },
      "getPossibleCollaterals(address,address)": {
        "details": "In Venus, any supported market can potentially be collateral",
        "params": {
          "token": "The underlying token (not used in Venus implementation)",
          "user": "The user address to check balances for"
        },
        "returns": {
          "balances": "Array of user balances for each collateral",
          "collateralAddresses": "Array of possible collateral token addresses",
          "decimals": "Array of token decimals",
          "symbols": "Array of token symbols"
        }
      },
      "getSupplyRate(address)": {
        "params": {
          "token": "The underlying token"
        },
        "returns": {
          "_0": "The supply rate and a boolean indicating success"
        }
      },
      "getSupportedCollaterals(address)": {
        "details": "In Venus, all markets can be used as collateral for any other market",
        "params": {
          "market": "The market token address"
        },
        "returns": {
          "collateralAddresses": "Array of collateral token addresses supported for this market"
        }
      },
      "getUserBalances(address[],address)": {
        "params": {
          "account": "The user account to check balances for",
          "vTokens": "Array of vToken addresses to query"
        },
        "returns": {
          "balances": "Array of user supply balances (in underlying token)",
          "borrowBalances": "Array of user borrow balances"
        }
      },
      "getVTokenForUnderlying(address)": {
        "details": "Iterates through all markets to find the matching vToken",
        "params": {
          "underlyingToken": "The underlying token address"
        },
        "returns": {
          "_0": "The vToken address"
        }
      },
      "isCollateralSupported(address,address)": {
        "details": "In Venus, any market can be used as collateral for any other market",
        "params": {
          "collateral": "The collateral token address",
          "market": "The market token address"
        },
        "returns": {
          "isSupported": "True if the collateral is supported for the market"
        }
      },
      "owner()": {
        "details": "Returns the address of the current owner."
      },
      "renounceOwnership()": {
        "details": "Leaves the contract without owner. It will not be possible to call `onlyOwner` functions. Can only be called by the current owner. NOTE: Renouncing ownership will leave the contract without an owner, thereby disabling any functionality that is only available to the owner."
      },
      "repay(address,address,uint256)": {
        "params": {
          "amount": "The amount to repay",
          "token": "The underlying token to repay",
          "user": "The account whose debt to repay"
        }
      },
      "setComptroller(address)": {
        "params": {
          "_comptroller": "The new comptroller address"
        }
      },
      "transferOwnership(address)": {
        "details": "Transfers ownership of the contract to a new account (`newOwner`). Can only be called by the current owner."
      }
    },
    "version": 1
  },
  "userdoc": {
    "kind": "user",
    "methods": {
      "borrow(address,address,uint256)": {
        "notice": "Borrow tokens from the Venus protocol"
      },
      "checkMembership(address,address)": {
        "notice": "Check if an account has entered a specific market"
      },
      "deposit(address,address,uint256)": {
        "notice": "Supply assets to the Venus protocol (implements IGateway.deposit)"
      },
      "getAccountLiquidity(address)": {
        "notice": "Gets account liquidity information"
      },
      "getAllMarkets()": {
        "notice": "Get all available markets in Venus protocol"
      },
      "getAllVenusMarkets()": {
        "notice": "Get basic details for all Venus markets"
      },
      "getAssetsIn(address)": {
        "notice": "Get all markets a user has entered"
      },
      "getBalance(address,address)": {
        "notice": "Get the supply balance of a token for a user"
      },
      "getBorrowBalance(address,address)": {
        "notice": "Get the borrow balance of a token for a user"
      },
      "getBorrowRate(address)": {
        "notice": "Get the current borrow rate for a token"
      },
      "getCollateralStatus(address[],address)": {
        "notice": "Check which markets are being used as collateral by a user"
      },
      "getEncodedCollateralApprovals(address,(address,uint256)[])": {
        "notice": "Generate encoded call data for approving collateral usage"
      },
      "getEncodedDebtApproval(address,uint256,address)": {
        "notice": "Generate encoded call data for approving debt operations"
      },
      "getEncodedDelegateApproval()": {
        "notice": "Generate encoded call data for the user to approve this contract as a delegate for borrowing"
      },
      "getInboundCollateralActions(address,(address,uint256)[])": {
        "notice": "Get additional actions required for a token when providing collateral in Venus protocol"
      },
      "getLtv(address,address)": {
        "notice": "Get the loan-to-value ratio for a user's position with a specific token"
      },
      "getMarketRates(address[])": {
        "notice": "Get market rates and prices for Venus markets"
      },
      "getPossibleCollaterals(address,address)": {
        "notice": "Get possible collaterals for a borrowing position"
      },
      "getSupplyRate(address)": {
        "notice": "Get the current supply rate for a token"
      },
      "getSupportedCollaterals(address)": {
        "notice": "Get all supported collaterals for a market"
      },
      "getUserBalances(address[],address)": {
        "notice": "Get user balances for Venus markets"
      },
      "getVTokenForUnderlying(address)": {
        "notice": "Find the vToken for a given underlying token address"
      },
      "isCollateralSupported(address,address)": {
        "notice": "Check if a collateral is supported for a market"
      },
      "repay(address,address,uint256)": {
        "notice": "Repay borrowed tokens to the Venus protocol"
      },
      "setComptroller(address)": {
        "notice": "Updates the comptroller address"
      }
    },
    "version": 1
  },
  "storageLayout": {
    "storage": [
      {
        "astId": 2312,
        "contract": "contracts/gateways/VenusGateway.sol:VenusGateway",
        "label": "_owner",
        "offset": 0,
        "slot": "0",
        "type": "t_address"
      },
      {
        "astId": 3827,
        "contract": "contracts/gateways/VenusGateway.sol:VenusGateway",
        "label": "_status",
        "offset": 0,
        "slot": "1",
        "type": "t_uint256"
      },
      {
        "astId": 9742,
        "contract": "contracts/gateways/VenusGateway.sol:VenusGateway",
        "label": "comptroller",
        "offset": 0,
        "slot": "2",
        "type": "t_contract(ComptrollerInterface)13153"
      },
      {
        "astId": 9745,
        "contract": "contracts/gateways/VenusGateway.sol:VenusGateway",
        "label": "oracle",
        "offset": 0,
        "slot": "3",
        "type": "t_contract(ResilientOracleInterface)13173"
      }
    ],
    "types": {
      "t_address": {
        "encoding": "inplace",
        "label": "address",
        "numberOfBytes": "20"
      },
      "t_contract(ComptrollerInterface)13153": {
        "encoding": "inplace",
        "label": "contract ComptrollerInterface",
        "numberOfBytes": "20"
      },
      "t_contract(ResilientOracleInterface)13173": {
        "encoding": "inplace",
        "label": "contract ResilientOracleInterface",
        "numberOfBytes": "20"
      },
      "t_uint256": {
        "encoding": "inplace",
        "label": "uint256",
        "numberOfBytes": "32"
      }
    }
  }
}