{
  "address": "0xBA4d49619Ccc9E44c952cDEd950694e30a47ca21",
  "abi": [
    {
      "inputs": [
        {
          "internalType": "address",
          "name": "_comptroller",
          "type": "address"
        },
        {
          "internalType": "address",
          "name": "_oracle",
          "type": "address"
        },
        {
          "internalType": "address",
          "name": "owner_",
          "type": "address"
        }
      ],
      "stateMutability": "nonpayable",
      "type": "constructor"
    },
    {
      "inputs": [
        {
          "internalType": "address",
          "name": "owner",
          "type": "address"
        }
      ],
      "name": "OwnableInvalidOwner",
      "type": "error"
    },
    {
      "inputs": [
        {
          "internalType": "address",
          "name": "account",
          "type": "address"
        }
      ],
      "name": "OwnableUnauthorizedAccount",
      "type": "error"
    },
    {
      "anonymous": false,
      "inputs": [
        {
          "indexed": true,
          "internalType": "address",
          "name": "previousOwner",
          "type": "address"
        },
        {
          "indexed": true,
          "internalType": "address",
          "name": "newOwner",
          "type": "address"
        }
      ],
      "name": "OwnershipTransferred",
      "type": "event"
    },
    {
      "inputs": [
        {
          "internalType": "address",
          "name": "account",
          "type": "address"
        },
        {
          "internalType": "address",
          "name": "vToken",
          "type": "address"
        }
      ],
      "name": "checkMembership",
      "outputs": [
        {
          "internalType": "bool",
          "name": "",
          "type": "bool"
        }
      ],
      "stateMutability": "view",
      "type": "function"
    },
    {
      "inputs": [],
      "name": "comptroller",
      "outputs": [
        {
          "internalType": "contract ComptrollerInterface",
          "name": "",
          "type": "address"
        }
      ],
      "stateMutability": "view",
      "type": "function"
    },
    {
      "inputs": [
        {
          "internalType": "address",
          "name": "account",
          "type": "address"
        }
      ],
      "name": "getAccountLiquidity",
      "outputs": [
        {
          "internalType": "uint256",
          "name": "",
          "type": "uint256"
        },
        {
          "internalType": "uint256",
          "name": "",
          "type": "uint256"
        },
        {
          "internalType": "uint256",
          "name": "",
          "type": "uint256"
        }
      ],
      "stateMutability": "view",
      "type": "function"
    },
    {
      "inputs": [],
      "name": "getAllMarkets",
      "outputs": [
        {
          "internalType": "address[]",
          "name": "",
          "type": "address[]"
        }
      ],
      "stateMutability": "view",
      "type": "function"
    },
    {
      "inputs": [],
      "name": "getAllVenusMarkets",
      "outputs": [
        {
          "internalType": "address[]",
          "name": "vTokens",
          "type": "address[]"
        },
        {
          "internalType": "address[]",
          "name": "tokens",
          "type": "address[]"
        },
        {
          "internalType": "string[]",
          "name": "symbols",
          "type": "string[]"
        },
        {
          "internalType": "string[]",
          "name": "names",
          "type": "string[]"
        },
        {
          "internalType": "uint8[]",
          "name": "decimals",
          "type": "uint8[]"
        },
        {
          "internalType": "uint256[]",
          "name": "prices",
          "type": "uint256[]"
        }
      ],
      "stateMutability": "view",
      "type": "function"
    },
    {
      "inputs": [
        {
          "internalType": "address",
          "name": "account",
          "type": "address"
        }
      ],
      "name": "getAssetsIn",
      "outputs": [
        {
          "internalType": "address[]",
          "name": "",
          "type": "address[]"
        }
      ],
      "stateMutability": "view",
      "type": "function"
    },
    {
      "inputs": [
        {
          "internalType": "address",
          "name": "token",
          "type": "address"
        },
        {
          "internalType": "address",
          "name": "user",
          "type": "address"
        }
      ],
      "name": "getBalance",
      "outputs": [
        {
          "internalType": "uint256",
          "name": "",
          "type": "uint256"
        }
      ],
      "stateMutability": "view",
      "type": "function"
    },
    {
      "inputs": [
        {
          "internalType": "address",
          "name": "token",
          "type": "address"
        },
        {
          "internalType": "address",
          "name": "user",
          "type": "address"
        }
      ],
      "name": "getBorrowBalance",
      "outputs": [
        {
          "internalType": "uint256",
          "name": "",
          "type": "uint256"
        }
      ],
      "stateMutability": "view",
      "type": "function"
    },
    {
      "inputs": [
        {
          "internalType": "address",
          "name": "token",
          "type": "address"
        },
        {
          "internalType": "address",
          "name": "user",
          "type": "address"
        }
      ],
      "name": "getBorrowBalanceCurrent",
      "outputs": [
        {
          "internalType": "uint256",
          "name": "",
          "type": "uint256"
        }
      ],
      "stateMutability": "nonpayable",
      "type": "function"
    },
    {
      "inputs": [
        {
          "internalType": "address",
          "name": "token",
          "type": "address"
        }
      ],
      "name": "getBorrowRate",
      "outputs": [
        {
          "internalType": "uint256",
          "name": "",
          "type": "uint256"
        },
        {
          "internalType": "bool",
          "name": "",
          "type": "bool"
        }
      ],
      "stateMutability": "view",
      "type": "function"
    },
    {
      "inputs": [
        {
          "internalType": "address[]",
          "name": "vTokens",
          "type": "address[]"
        },
        {
          "internalType": "address",
          "name": "account",
          "type": "address"
        }
      ],
      "name": "getCollateralStatus",
      "outputs": [
        {
          "internalType": "bool[]",
          "name": "isCollateral",
          "type": "bool[]"
        }
      ],
      "stateMutability": "view",
      "type": "function"
    },
    {
      "inputs": [
        {
          "internalType": "address",
          "name": "",
          "type": "address"
        },
        {
          "internalType": "address",
          "name": "user",
          "type": "address"
        }
      ],
      "name": "getLtv",
      "outputs": [
        {
          "internalType": "uint256",
          "name": "result",
          "type": "uint256"
        }
      ],
      "stateMutability": "view",
      "type": "function"
    },
    {
      "inputs": [
        {
          "internalType": "address[]",
          "name": "vTokens",
          "type": "address[]"
        }
      ],
      "name": "getMarketRates",
      "outputs": [
        {
          "internalType": "uint256[]",
          "name": "prices",
          "type": "uint256[]"
        },
        {
          "internalType": "uint256[]",
          "name": "supplyRates",
          "type": "uint256[]"
        },
        {
          "internalType": "uint256[]",
          "name": "borrowRates",
          "type": "uint256[]"
        }
      ],
      "stateMutability": "view",
      "type": "function"
    },
    {
      "inputs": [
        {
          "internalType": "address",
          "name": "",
          "type": "address"
        },
        {
          "internalType": "address",
          "name": "user",
          "type": "address"
        }
      ],
      "name": "getMaxLtv",
      "outputs": [
        {
          "internalType": "uint256",
          "name": "result",
          "type": "uint256"
        }
      ],
      "stateMutability": "view",
      "type": "function"
    },
    {
      "inputs": [
        {
          "internalType": "address",
          "name": "token",
          "type": "address"
        },
        {
          "internalType": "address",
          "name": "user",
          "type": "address"
        }
      ],
      "name": "getPossibleCollaterals",
      "outputs": [
        {
          "internalType": "address[]",
          "name": "collateralAddresses",
          "type": "address[]"
        },
        {
          "internalType": "uint256[]",
          "name": "balances",
          "type": "uint256[]"
        },
        {
          "internalType": "string[]",
          "name": "symbols",
          "type": "string[]"
        },
        {
          "internalType": "uint8[]",
          "name": "decimals",
          "type": "uint8[]"
        }
      ],
      "stateMutability": "view",
      "type": "function"
    },
    {
      "inputs": [
        {
          "internalType": "address",
          "name": "token",
          "type": "address"
        }
      ],
      "name": "getSupplyRate",
      "outputs": [
        {
          "internalType": "uint256",
          "name": "",
          "type": "uint256"
        },
        {
          "internalType": "bool",
          "name": "",
          "type": "bool"
        }
      ],
      "stateMutability": "view",
      "type": "function"
    },
    {
      "inputs": [
        {
          "internalType": "address",
          "name": "market",
          "type": "address"
        }
      ],
      "name": "getSupportedCollaterals",
      "outputs": [
        {
          "internalType": "address[]",
          "name": "collateralAddresses",
          "type": "address[]"
        }
      ],
      "stateMutability": "view",
      "type": "function"
    },
    {
      "inputs": [
        {
          "internalType": "address[]",
          "name": "vTokens",
          "type": "address[]"
        },
        {
          "internalType": "address",
          "name": "account",
          "type": "address"
        }
      ],
      "name": "getUserBalances",
      "outputs": [
        {
          "internalType": "uint256[]",
          "name": "balances",
          "type": "uint256[]"
        },
        {
          "internalType": "uint256[]",
          "name": "borrowBalances",
          "type": "uint256[]"
        }
      ],
      "stateMutability": "view",
      "type": "function"
    },
    {
      "inputs": [
        {
          "internalType": "address",
          "name": "underlyingToken",
          "type": "address"
        }
      ],
      "name": "getVTokenForUnderlying",
      "outputs": [
        {
          "internalType": "address",
          "name": "",
          "type": "address"
        }
      ],
      "stateMutability": "view",
      "type": "function"
    },
    {
      "inputs": [
        {
          "internalType": "address",
          "name": "market",
          "type": "address"
        },
        {
          "internalType": "address",
          "name": "collateral",
          "type": "address"
        }
      ],
      "name": "isCollateralSupported",
      "outputs": [
        {
          "internalType": "bool",
          "name": "isSupported",
          "type": "bool"
        }
      ],
      "stateMutability": "view",
      "type": "function"
    },
    {
      "inputs": [],
      "name": "oracle",
      "outputs": [
        {
          "internalType": "contract ResilientOracleInterface",
          "name": "",
          "type": "address"
        }
      ],
      "stateMutability": "view",
      "type": "function"
    },
    {
      "inputs": [],
      "name": "owner",
      "outputs": [
        {
          "internalType": "address",
          "name": "",
          "type": "address"
        }
      ],
      "stateMutability": "view",
      "type": "function"
    },
    {
      "inputs": [],
      "name": "renounceOwnership",
      "outputs": [],
      "stateMutability": "nonpayable",
      "type": "function"
    },
    {
      "inputs": [
        {
          "internalType": "address",
          "name": "_comptroller",
          "type": "address"
        }
      ],
      "name": "setComptroller",
      "outputs": [],
      "stateMutability": "nonpayable",
      "type": "function"
    },
    {
      "inputs": [
        {
          "internalType": "address",
          "name": "_oracle",
          "type": "address"
        }
      ],
      "name": "setOracle",
      "outputs": [],
      "stateMutability": "nonpayable",
      "type": "function"
    },
    {
      "inputs": [
        {
          "internalType": "address",
          "name": "newOwner",
          "type": "address"
        }
      ],
      "name": "transferOwnership",
      "outputs": [],
      "stateMutability": "nonpayable",
      "type": "function"
    }
  ],
  "transactionHash": "0xd790dee01d8312f212684a75ccda760938f81b42a9d35a89ce58ffa414fb8f71",
  "args": [
    "0x317c1A5739F39046E20b08ac9BeEa3f10fD43326",
    "0xd55A98150e0F9f5e3F6280FC25617A5C93d96007",
    "0x0BE61223F99E57b8b8B7033a77B54Adc7f7cF027"
  ],
  "numDeployments": 11,
  "solcInputHash": "cea410921e6aa7fa5ced9cee5e21a4ec",
  "bytecode": "0x60803461010757601f61295a38819003918201601f19168301916001600160401b0383118484101761010b57808492606094604052833981010312610107576100478161011f565b906100546020820161011f565b906001600160a01b039061006a9060400161011f565b169182156100f4575f80546001600160a01b031981168517825560405194916001600160a01b03909116907f8be0079c531659141344cd1fd0a4f28419497f9722a3daafe3b4186f6b6457e09080a3600180546001600160a01b039283166001600160a01b0319918216179091556002805493909216921691909117905561282690816101348239f35b631e4fbdf760e01b5f525f60045260245ffd5b5f80fd5b634e487b7160e01b5f52604160045260245ffd5b51906001600160a01b03821682036101075756fe6080806040526004361015610012575f80fd5b5f3560e01c908163104e999d146115d057508063118e31b71461155c5780632b7be8e81461152c5780635ec88c791461147e5780635fe3b5671461145657806362fd6add1461142a5780636461213214610eae57806366e2d09b14610e765780636b5441a914610e1b578063715018a614610dc45780637846611314610caa5780637adbf97314610c675780637dc0d1d014610c3f57806381906b8014610a3f5780638bad38dd146109fc5780638da5cb5b146109d5578063929fe9a11461092a578063abfceffc1461087d578063b0772d0b146107c3578063bad193501461064f578063d4fac45d14610535578063d71275f6146104a2578063e94201c7146103f8578063f2fde38b14610373578063f5125d3f1461033f5763f639ecd21461013a575f80fd5b346102c65760203660031901126102c6576004356001600160401b0381116102c65761016a903690600401611925565b61017381611cbb565b9061017d81611cbb565b9261018782611cbb565b60025490926001600160a01b03909116915f5b8281106101e1576101c1866101dd876101cf8b60405195869560608752606087019061184c565b90858203602087015261184c565b90838203604085015261184c565b0390f35b6001600160a01b036101fc6101f78386866120b9565b6120c9565b1690604051630ae9d70b60e41b8152602081600481865afa9081156102d2575f9161030e575b5061022d828a611d36565b52604051631f1f3b4560e31b8152602081600481865afa9081156102d2575f916102dd575b5061025d8288611d36565b526040519163fc57d4df60e01b83526004830152602082602481885afa80156102d2575f9061029c575b600192506102958289611d36565b520161019a565b506020823d82116102ca575b816102b560209383611997565b810103126102c65760019151610287565b5f80fd5b3d91506102a8565b6040513d5f823e3d90fd5b90506020813d8211610306575b816102f760209383611997565b810103126102c657515f610252565b3d91506102ea565b90506020813d8211610337575b8161032860209383611997565b810103126102c657515f610222565b3d915061031b565b346102c65760403660031901126102c6576103586117e4565b50602061036b6103666117fa565b6121a5565b604051908152f35b346102c65760203660031901126102c65761038c6117e4565b610394612511565b6001600160a01b031680156103e5575f80546001600160a01b03198116831782556001600160a01b0316907f8be0079c531659141344cd1fd0a4f28419497f9722a3daafe3b4186f6b6457e09080a3005b631e4fbdf760e01b5f525f60045260245ffd5b346102c65760403660031901126102c6575f60206104146117e4565b602461041e6117fa565b916001600160a01b039061043190611d83565b6040516305eff7ef60e21b81526001600160a01b039094166004850152929485938492165af180156102d2575f9061046f575b602090604051908152f35b506020813d60201161049a575b8161048960209383611997565b810103126102c65760209051610464565b3d915061047c565b346102c65760203660031901126102c657600460206001600160a01b036104cf6104ca6117e4565b611d83565b1660405192838092631f1f3b4560e31b82525afa9081156102d2575f91610503575b50604080519182526001602083015290f35b90506020813d60201161052d575b8161051e60209383611997565b810103126102c65751816104f1565b3d9150610511565b346102c65760403660031901126102c65761054e6117e4565b6105566117fa565b906001600160a01b039061056990611d83565b6040516370a0823160e01b81526001600160a01b03909316600484015216602082602481845afa9182156102d2575f9261061a575b509060206004926040519384809263182df0f560e01b82525afa9182156102d2575f926105e4575b6020670de0b6b3a76400006105db85856120dd565b04604051908152f35b91506020823d602011610612575b816105ff60209383611997565b810103126102c6579051906105db6105c6565b3d91506105f2565b91506020823d602011610647575b8161063560209383611997565b810103126102c657905190602061059e565b3d9150610628565b346102c65761065d36611955565b6001600160a01b031661067181151561205e565b61067a826119cc565b926106886040519485611997565b828452610694836119cc565b602085019390601f190136853760405192632aff3bff60e21b845260048401525f83602481305afa9283156102d2575f9361079f575b505f949394929192905b808210610721578585604051918291602083019060208452518091526040830191905f5b818110610706575050500390f35b825115158452859450602093840193909201916001016106f8565b946107356101f783888795979896986120b9565b6001600160a01b0316915f5b865181101561079057836001600160a01b0361075d838a611d36565b51161461076c57600101610741565b50929591509392806001610781819389611d36565b525b01909493949291926106d4565b50929591509392600190610783565b6107bc9193503d805f833e6107b48183611997565b810190611d5e565b91856106ca565b346102c6575f3660031901126102c65760015460405163b0772d0b60e01b8152905f90829060049082906001600160a01b03165afa9081156102d2575f9161085b575b506108118151611cbb565b905f5b8151811015610845576001906001600160a01b036108328285611d36565b511661083e8286611d36565b5201610814565b604051602080825281906101dd90820186611810565b61087791503d805f833e61086f8183611997565b81019061211b565b81610806565b346102c65760203660031901126102c6576108966117e4565b600154604051632aff3bff60e21b81526001600160a01b039283166004820152915f9183916024918391165afa9081156102d2575f91610910575b506108dc8151611cbb565b905f5b8151811015610845576001906001600160a01b036108fd8285611d36565b51166109098286611d36565b52016108df565b61092491503d805f833e61086f8183611997565b816108d1565b346102c65760403660031901126102c6576109436117e4565b602061094d6117fa565b60015460405163929fe9a160e01b81526001600160a01b0394851660048201529184166024830152909283916044918391165afa80156102d2575f9061099b575b6020906040519015158152f35b506020813d6020116109cd575b816109b560209383611997565b810103126102c6576109c860209161210e565b61098e565b3d91506109a8565b346102c6575f3660031901126102c6575f546040516001600160a01b039091168152602090f35b346102c65760203660031901126102c657610a156117e4565b610a1d612511565b600180546001600160a01b0319166001600160a01b0392909216919091179055005b346102c657610a4d36611955565b9091906001600160a01b0316610a6481151561205e565b610a6d83611cbb565b91610a7784611cbb565b915f5b858110610aab57610a9d856101dd8660405193849360408552604085019061184c565b90838203602085015261184c565b6001600160a01b03610ac16101f78389876120b9565b16906040516370a0823160e01b8152836004820152602081602481865afa5f9181610c0c575b50610b80575060206024925f610afd848a611d36565b525b604051938480926395dd919360e01b82528760048301525afa805f91610b4c575b60019350610b3c57505f610b348287611d36565b525b01610a7a565b610b468287611d36565b52610b36565b90506020833d8211610b78575b81610b6660209383611997565b810103126102c6576001925190610b20565b3d9150610b59565b60405163182df0f560e01b815290602082600481875afa9182156102d2575f92610bcf575b5092670de0b6b3a7640000610bbe6020936024966120dd565b04610bc9848a611d36565b52610aff565b9150926020823d8211610c04575b81610bea60209383611997565b810103126102c65790519092670de0b6b3a7640000610ba5565b3d9150610bdd565b9091506020813d8211610c37575b81610c2760209383611997565b810103126102c657519089610ae7565b3d9150610c1a565b346102c6575f3660031901126102c6576002546040516001600160a01b039091168152602090f35b346102c65760203660031901126102c657610c806117e4565b610c88612511565b600280546001600160a01b0319166001600160a01b0392909216919091179055005b346102c65760403660031901126102c657610cc36117e4565b610ccb6117fa565b604051633230909960e11b81525f81600481305afa9081156102d2575f91610d9c575b506001600160a01b03928316925f928392911690825b8151811015610d9057856001600160a01b03610d208385611d36565b511614610d87575b826001600160a01b03610d3b8385611d36565b511614610d7e575b8480610d77575b610d5657600101610d04565b505050602092505b81610d6f575b506040519015158152f35b905082610d64565b5083610d4a565b60019350610d43565b60019450610d28565b50505060209250610d5e565b610db891503d805f833e610db08183611997565b810190611b9a565b50505050905083610cee565b346102c6575f3660031901126102c657610ddc612511565b5f80546001600160a01b0319811682556001600160a01b03167f8be0079c531659141344cd1fd0a4f28419497f9722a3daafe3b4186f6b6457e08280a3005b346102c65760203660031901126102c657600460206001600160a01b03610e436104ca6117e4565b1660405192838092630ae9d70b60e41b82525afa9081156102d2575f916105035750604080519182526001602083015290f35b346102c65760203660031901126102c6576101dd610e9a610e956117e4565b611f12565b604051918291602083526020830190611810565b346102c6575f3660031901126102c65760405163b0772d0b60e01b81525f81600481305afa9081156102d2575f91611410575b50805190610eee82611cbb565b91610ef881611ced565b92610f0282611ced565b93610f0c83611cbb565b91610f1684611cbb565b60025490946001600160a01b03909116905f5b818110610fa257610f5c886101dd89610f948a610f868f610f788d610f6a8e6040519b8c9b60c08d5260c08d0190611810565b908b820360208d0152611810565b9089820360408b015261187f565b90878203606089015261187f565b9085820360808701526118ef565b9083820360a085015261184c565b6001600160a01b03610fb4828a611d36565b511690604051636f307dc360e01b8152602081600481865afa5f91816113d5575b5061117657505f610fe68287611d36565b526040516395d89b4160e01b81525f81600481865afa9081156102d2575f9161115c575b506110158288611d36565b526110208187611d36565b506040516306fdde0360e01b81525f81600481865afa9081156102d2575f9161113a575b5061104f828c611d36565b5261105a818b611d36565b5060405163313ce56760e01b8152602081600481865afa9081156102d2575f91611101575b5060ff61108c838a611d36565b911690525b6040519163fc57d4df60e01b83526004830152602082602481875afa80156102d2575f906110cf575b600192506110c8828a611d36565b5201610f29565b506020823d82116110f9575b816110e860209383611997565b810103126102c657600191516110ba565b3d91506110db565b90506020813d8211611132575b8161111b60209383611997565b810103126102c65761112c90611b2f565b8b61107f565b3d915061110e565b61115691503d805f833e61114e8183611997565b810190611eed565b8b611044565b61117091503d805f833e61114e8183611997565b8b61100a565b6111808287611d36565b6001600160a01b03909116908190526040516395d89b4160e01b81525f81600481855afa5f91816113b9575b5061139e57506040516395d89b4160e01b81525f81600481875afa9081156102d2575f91611384575b506111e08389611d36565b526111eb8288611d36565b505b818b6040516306fdde0360e01b81525f81600481875afa5f9181611368575b5061134d5750506040516306fdde0360e01b81529190505f82600481875afa9081156102d257611255848e6020946004965f91611333575b5061124f8383611d36565b52611d36565b505b60405163313ce56760e01b815292839182905afa5f91816112f8575b506112ec575060405163313ce56760e01b8152602081600481865afa9081156102d2575f916112b3575b5060ff6112aa838a611d36565b91169052611091565b90506020813d82116112e4575b816112cd60209383611997565b810103126102c6576112de90611b2f565b8b61129d565b3d91506112c0565b60ff6112aa838a611d36565b9091506020813d821161132b575b8161131360209383611997565b810103126102c65761132490611b2f565b908c611273565b3d9150611306565b61134791503d805f833e61114e8183611997565b5f611244565b82826113629261124f60209660049896611d36565b50611257565b61137d9192503d805f833e61114e8183611997565b908f61120c565b61139891503d805f833e61114e8183611997565b8c6111d5565b6113a88389611d36565b526113b38288611d36565b506111ed565b6113ce9192503d805f833e61114e8183611997565b908d6111ac565b9091506020813d8211611408575b816113f060209383611997565b810103126102c657611401906119e3565b908c610fd5565b3d91506113e3565b61142491503d805f833e6107b48183611997565b81610ee1565b346102c65760403660031901126102c6576114436117e4565b50602061036b6114516117fa565b611ed0565b346102c6575f3660031901126102c6576001546040516001600160a01b039091168152602090f35b346102c65760203660031901126102c6576114976117e4565b600154604051635ec88c7960e01b81526001600160a01b0392831660048201529160609183916024918391165afa80156102d2575f905f5f916114eb575b6060935060405192835260208301526040820152f35b5050506060813d606011611524575b8161150760609383611997565b810103126102c657805160208201516040909201516060926114d5565b3d91506114fa565b346102c65760203660031901126102c657602061154a6104ca6117e4565b6040516001600160a01b039091168152f35b346102c65760403660031901126102c6576115756117e4565b602061157f6117fa565b916001600160a01b039061159290611d83565b6040516395dd919360e01b81526001600160a01b03909416600485015283916024918391165afa80156102d2575f9061046f57602090604051908152f35b346102c65760403660031901126102c6576115e96117e4565b506115f26117fa565b633230909960e11b8252905f81600481305afa80156102d2575f905f925f905f926117bf575b506116238451611cbb565b9061162e8551611ced565b916116398651611cbb565b946116448751611cbb565b976001600160a01b03169081611712575b50505f5b86518110156116c4576001906001600160a01b03611677828a611d36565b51166116838285611d36565b5261168e8185611d36565b516116998287611d36565b526116a48186611d36565b5060ff6116b18288611d36565b51166116bd8289611d36565b5201611659565b6116e8826101dd88611704886116f68e604051978897608089526080890190611810565b90878203602089015261184c565b90858203604087015261187f565b9083820360608501526118ef565b5f9192985061173e90604051938492839263010320d760e71b8452604060048501526044840190611810565b9060248301520381305afa9081156102d2575f91611760575b50958780611655565b90503d805f833e6117718183611997565b8101906040818303126102c65780516001600160401b0381116102c6578261179a918301611b3d565b9160208201516001600160401b0381116102c6576117b89201611b3d565b5087611757565b925050506117d791503d805f833e610db08183611997565b5091939050919285611618565b600435906001600160a01b03821682036102c657565b602435906001600160a01b03821682036102c657565b90602080835192838152019201905f5b81811061182d5750505090565b82516001600160a01b0316845260209384019390920191600101611820565b90602080835192838152019201905f5b8181106118695750505090565b825184526020938401939092019160010161185c565b9080602083519182815201916020808360051b8301019401925f915b8383106118aa57505050505090565b909192939460208080600193601f19868203018752818a518051918291828552018484015e5f828201840152601f01601f19160101970195949190910192019061189b565b90602080835192838152019201905f5b81811061190c5750505090565b825160ff168452602093840193909201916001016118ff565b9181601f840112156102c6578235916001600160401b0383116102c6576020808501948460051b0101116102c657565b60406003198201126102c657600435906001600160401b0382116102c65761197f91600401611925565b90916024356001600160a01b03811681036102c65790565b90601f801991011681019081106001600160401b038211176119b857604052565b634e487b7160e01b5f52604160045260245ffd5b6001600160401b0381116119b85760051b60200190565b51906001600160a01b03821682036102c657565b9080601f830112156102c6578151611a0e816119cc565b92611a1c6040519485611997565b81845260208085019260051b8201019283116102c657602001905b828210611a445750505090565b60208091611a51846119e3565b815201910190611a37565b81601f820112156102c6578051906001600160401b0382116119b85760405192611a90601f8401601f191660200185611997565b828452602083830101116102c657815f9260208093018386015e8301015290565b9080601f830112156102c6578151611ac8816119cc565b92611ad66040519485611997565b81845260208085019260051b820101918383116102c65760208201905b838210611b0257505050505090565b81516001600160401b0381116102c657602091611b2487848094880101611a5c565b815201910190611af3565b519060ff821682036102c657565b9080601f830112156102c6578151611b54816119cc565b92611b626040519485611997565b81845260208085019260051b8201019283116102c657602001905b828210611b8a5750505090565b8151815260209182019101611b7d565b9160c0838303126102c65782516001600160401b0381116102c65782611bc19185016119f7565b9260208101516001600160401b0381116102c65783611be19183016119f7565b9260408201516001600160401b0381116102c65781611c01918401611ab1565b9260608301516001600160401b0381116102c65782611c21918501611ab1565b9260808101516001600160401b0381116102c657810183601f820112156102c657805190611c4e826119cc565b91611c5c6040519384611997565b80835260208084019160051b830101918683116102c657602001905b828210611ca3575050509260a08201516001600160401b0381116102c657611ca09201611b3d565b90565b60208091611cb084611b2f565b815201910190611c78565b90611cc5826119cc565b611cd26040519182611997565b8281528092611ce3601f19916119cc565b0190602036910137565b90611cf7826119cc565b611d046040519182611997565b8281528092611d15601f19916119cc565b01905f5b828110611d2557505050565b806060602080938501015201611d19565b8051821015611d4a5760209160051b010190565b634e487b7160e01b5f52603260045260245ffd5b906020828203126102c65781516001600160401b0381116102c657611ca092016119f7565b60405163b0772d0b60e01b8152905f82600481305afa9182156102d2575f92611eb4575b505f5b8251811015611e53576001600160a01b03611dc58285611d36565b5116604051636f307dc360e01b8152602081600481855afa5f9181611e18575b50611df65750506001905b01611daa565b6001600160a01b03848116911614611e115750600190611df0565b9250505090565b9091506020813d8211611e4b575b81611e3360209383611997565b810103126102c657611e44906119e3565b905f611de5565b3d9150611e26565b60405162461bcd60e51b815260206004820152603360248201527f56656e7573476174657761793a2076546f6b656e206e6f7420666f756e64206660448201527237b9103ab73232b9363cb4b733903a37b5b2b760691b6064820152608490fd5b611ec99192503d805f833e6107b48183611997565b905f611da7565b6001600160a01b03811615611ee857611ca0906121ec565b505f90565b906020828203126102c65781516001600160401b0381116102c657611ca09201611a5c565b604051633230909960e11b815290915f82600481305afa9182156102d2575f9261203c575b505f915f5b8151811015612034576001600160a01b03611f578284611d36565b51166001600160a01b03861614611f7057600101611f3c565b5090915060015b156120195780515f198101908111611ffd57611f9290611cbb565b905f935f5b8251811015612011576001600160a01b03611fb28285611d36565b51166001600160a01b03831603611fcc575b600101611f97565b946001600160a01b03611fdf8785611d36565b5116611feb8286611d36565b525f198114611ffd5760010194611fc4565b634e487b7160e01b5f52601160045260245ffd5b509193505050565b50905060405161202a602082611997565b5f81525f36813790565b509091611f77565b6120519192503d805f833e610db08183611997565b505050509050905f611f37565b1561206557565b60405162461bcd60e51b815260206004820152602660248201527f56656e7573476174657761793a207a65726f2061646472657373206e6f7420616044820152651b1b1bddd95960d21b6064820152608490fd5b9190811015611d4a5760051b0190565b356001600160a01b03811681036102c65790565b81810292918115918404141715611ffd57565b81156120fa570490565b634e487b7160e01b5f52601260045260245ffd5b519081151582036102c657565b6020818303126102c6578051906001600160401b0382116102c657019080601f830112156102c65781519061214f826119cc565b9261215d6040519485611997565b82845260208085019360051b8201019182116102c657602001915b8183106121855750505090565b82516001600160a01b03811681036102c657815260209283019201612178565b6001600160a01b03811615611ee857611ca090612537565b91908201809211611ffd57565b908160609103126102c6576121de8161210e565b916040602083015192015190565b6001546001600160a01b0316803b156124e757604051632aff3bff60e21b81526001600160a01b0390921660048301819052915f81602481855afa5f91816124f5575b5061223b575050505f90565b928351156124ed57915f915f915f9060018060a01b0360025416915b87518110156124bc576001600160a01b03612272828a611d36565b5116602460206001600160a01b0361228a858d611d36565b5116604051928380926370a0823160e01b82528860048301525afa5f9181612489575b506122be5750506001905b01612257565b801561247f57600460206001600160a01b036122da868e611d36565b51166040519283809263182df0f560e01b82525afa5f918161244c575b50612307575050506001906122b8565b670de0b6b3a76400009161231b91906120dd565b0460405163fc57d4df60e01b8152826004820152602081602481895afa5f9181612419575b50612350575050506001906122b8565b61236a61237292670de0b6b3a7640000929a949a906120dd565b0480926121bd565b9660405190638e8f294b60e01b82526004820152606081602481895afa805f925f926123e3575b506123a9575050506001906122b8565b6123ce6123d5936001959993670de0b6b3a76400009380155f146123db5750906120dd565b04906121bd565b946122b8565b9050906120dd565b909250612407915060603d8111612412575b6123ff8183611997565b8101906121ca565b92915091905f612399565b503d6123f5565b9091506020813d8211612444575b8161243460209383611997565b810103126102c65751905f612340565b3d9150612427565b9091506020813d8211612477575b8161246760209383611997565b810103126102c65751905f6122f7565b3d915061245a565b50506001906122b8565b9091506020813d82116124b4575b816124a460209383611997565b810103126102c65751905f6122ad565b3d9150612497565b5050505091925080156124e7576127108202918083046127101490151715611ffd57611ca0916120f0565b50505f90565b925050505f90565b61250a9192503d805f833e61086f8183611997565b905f61222f565b5f546001600160a01b0316330361252457565b63118cdaa760e01b5f523360045260245ffd5b6001546001600160a01b0316803b156124e757604051632aff3bff60e21b81526001600160a01b0390921660048301819052915f81602481855afa5f91816127d4575b50612586575050505f90565b928351156124ed57915f915f915f9060018060a01b0360025416915b87518110156124bc576001600160a01b036125bd828a611d36565b5116602460206001600160a01b036125d5858d611d36565b5116604051928380926370a0823160e01b82528860048301525afa5f91816127a1575b506126095750506001905b016125a2565b801561279757600460206001600160a01b03612625868e611d36565b51166040519283809263182df0f560e01b82525afa5f9181612764575b5061265257505050600190612603565b670de0b6b3a76400009161266691906120dd565b0460405163fc57d4df60e01b8152826004820152602081602481895afa5f9181612731575b5061269b57505050600190612603565b6126b26126ba92670de0b6b3a764000092906120dd565b0480986121bd565b9660405191638e8f294b60e01b83526004830152606082602481895afa5f928161270e575b506126ee575050600190612603565b95670de0b6b3a76400006123ce61270893600195996120dd565b94612603565b61272791935060603d8111612412576123ff8183611997565b509050915f6126df565b9091506020813d821161275c575b8161274c60209383611997565b810103126102c65751905f61268b565b3d915061273f565b9091506020813d821161278f575b8161277f60209383611997565b810103126102c65751905f612642565b3d9150612772565b5050600190612603565b9091506020813d82116127cc575b816127bc60209383611997565b810103126102c65751905f6125f8565b3d91506127af565b6127e99192503d805f833e61086f8183611997565b905f61257a56fea264697066735822122058abdc4f2f3d7c38f5c7be2cba537c9ed560576f15e329355ff4642f0e7c704364736f6c634300081e0033",
  "devdoc": {
    "details": "Contains all read/view functions from v1, separate from write operations",
    "errors": {
      "OwnableInvalidOwner(address)": [
        {
          "details": "The owner is not a valid owner account. (eg. `address(0)`)"
        }
      ],
      "OwnableUnauthorizedAccount(address)": [
        {
          "details": "The caller account is not authorized to perform an operation."
        }
      ]
    },
    "kind": "dev",
    "methods": {
      "getLtv(address,address)": {
        "details": "Uses collateralFactor which determines how much can be borrowed"
      },
      "getMaxLtv(address,address)": {
        "details": "Uses liquidationThreshold which is higher than LTV - the point at which liquidation occurs"
      },
      "owner()": {
        "details": "Returns the address of the current owner."
      },
      "renounceOwnership()": {
        "details": "Leaves the contract without owner. It will not be possible to call `onlyOwner` functions. Can only be called by the current owner. NOTE: Renouncing ownership will leave the contract without an owner, thereby disabling any functionality that is only available to the owner."
      },
      "transferOwnership(address)": {
        "details": "Transfers ownership of the contract to a new account (`newOwner`). Can only be called by the current owner."
      }
    },
    "title": "VenusGatewayView",
    "version": 1
  },
  "userdoc": {
    "kind": "user",
    "methods": {
      "getLtv(address,address)": {
        "notice": "Returns the LTV (borrowing power) for a user in basis points"
      },
      "getMaxLtv(address,address)": {
        "notice": "Returns the LLTV (liquidation threshold) for a user in basis points"
      }
    },
    "notice": "View-only gateway for Venus protocol",
    "version": 1
  },
  "storageLayout": {
    "storage": [
      {
        "astId": 8,
        "contract": "contracts/v2/gateways/venus/VenusGatewayView.sol:VenusGatewayView",
        "label": "_owner",
        "offset": 0,
        "slot": "0",
        "type": "t_address"
      },
      {
        "astId": 1513,
        "contract": "contracts/v2/gateways/venus/VenusGatewayView.sol:VenusGatewayView",
        "label": "comptroller",
        "offset": 0,
        "slot": "1",
        "type": "t_contract(ComptrollerInterface)1180"
      },
      {
        "astId": 1516,
        "contract": "contracts/v2/gateways/venus/VenusGatewayView.sol:VenusGatewayView",
        "label": "oracle",
        "offset": 0,
        "slot": "2",
        "type": "t_contract(ResilientOracleInterface)1200"
      }
    ],
    "types": {
      "t_address": {
        "encoding": "inplace",
        "label": "address",
        "numberOfBytes": "20"
      },
      "t_contract(ComptrollerInterface)1180": {
        "encoding": "inplace",
        "label": "contract ComptrollerInterface",
        "numberOfBytes": "20"
      },
      "t_contract(ResilientOracleInterface)1200": {
        "encoding": "inplace",
        "label": "contract ResilientOracleInterface",
        "numberOfBytes": "20"
      }
    }
  }
}