{
  "address": "0x91EF3C8c057C7d57303876F3F7f4Ea991Dd116bB",
  "abi": [
    {
      "inputs": [
        {
          "internalType": "address",
          "name": "_comptroller",
          "type": "address"
        },
        {
          "internalType": "address",
          "name": "router",
          "type": "address"
        },
        {
          "internalType": "address",
          "name": "owner_",
          "type": "address"
        }
      ],
      "stateMutability": "nonpayable",
      "type": "constructor"
    },
    {
      "inputs": [
        {
          "internalType": "address",
          "name": "target",
          "type": "address"
        }
      ],
      "name": "AddressEmptyCode",
      "type": "error"
    },
    {
      "inputs": [
        {
          "internalType": "address",
          "name": "account",
          "type": "address"
        }
      ],
      "name": "AddressInsufficientBalance",
      "type": "error"
    },
    {
      "inputs": [],
      "name": "FailedInnerCall",
      "type": "error"
    },
    {
      "inputs": [
        {
          "internalType": "address",
          "name": "owner",
          "type": "address"
        }
      ],
      "name": "OwnableInvalidOwner",
      "type": "error"
    },
    {
      "inputs": [
        {
          "internalType": "address",
          "name": "account",
          "type": "address"
        }
      ],
      "name": "OwnableUnauthorizedAccount",
      "type": "error"
    },
    {
      "inputs": [],
      "name": "ReentrancyGuardReentrantCall",
      "type": "error"
    },
    {
      "inputs": [
        {
          "internalType": "address",
          "name": "token",
          "type": "address"
        }
      ],
      "name": "SafeERC20FailedOperation",
      "type": "error"
    },
    {
      "anonymous": false,
      "inputs": [
        {
          "indexed": true,
          "internalType": "address",
          "name": "previousOwner",
          "type": "address"
        },
        {
          "indexed": true,
          "internalType": "address",
          "name": "newOwner",
          "type": "address"
        }
      ],
      "name": "OwnershipTransferred",
      "type": "event"
    },
    {
      "inputs": [],
      "name": "ROUTER",
      "outputs": [
        {
          "internalType": "address",
          "name": "",
          "type": "address"
        }
      ],
      "stateMutability": "view",
      "type": "function"
    },
    {
      "inputs": [
        {
          "components": [
            {
              "internalType": "enum ProtocolTypes.LendingOp",
              "name": "op",
              "type": "uint8"
            },
            {
              "internalType": "address",
              "name": "token",
              "type": "address"
            },
            {
              "internalType": "address",
              "name": "user",
              "type": "address"
            },
            {
              "internalType": "uint256",
              "name": "amount",
              "type": "uint256"
            },
            {
              "internalType": "bytes",
              "name": "context",
              "type": "bytes"
            },
            {
              "components": [
                {
                  "internalType": "uint256",
                  "name": "index",
                  "type": "uint256"
                }
              ],
              "internalType": "struct ProtocolTypes.InputPtr",
              "name": "input",
              "type": "tuple"
            }
          ],
          "internalType": "struct ProtocolTypes.LendingInstruction[]",
          "name": "instrs",
          "type": "tuple[]"
        },
        {
          "internalType": "address",
          "name": "caller",
          "type": "address"
        }
      ],
      "name": "authorize",
      "outputs": [
        {
          "internalType": "address[]",
          "name": "targets",
          "type": "address[]"
        },
        {
          "internalType": "bytes[]",
          "name": "data",
          "type": "bytes[]"
        }
      ],
      "stateMutability": "view",
      "type": "function"
    },
    {
      "inputs": [
        {
          "internalType": "address",
          "name": "token",
          "type": "address"
        },
        {
          "internalType": "address",
          "name": "user",
          "type": "address"
        },
        {
          "internalType": "uint256",
          "name": "amount",
          "type": "uint256"
        }
      ],
      "name": "borrow",
      "outputs": [],
      "stateMutability": "nonpayable",
      "type": "function"
    },
    {
      "inputs": [],
      "name": "comptroller",
      "outputs": [
        {
          "internalType": "contract ComptrollerInterface",
          "name": "",
          "type": "address"
        }
      ],
      "stateMutability": "view",
      "type": "function"
    },
    {
      "inputs": [
        {
          "internalType": "address",
          "name": "token",
          "type": "address"
        },
        {
          "internalType": "address",
          "name": "user",
          "type": "address"
        },
        {
          "internalType": "uint256",
          "name": "amount",
          "type": "uint256"
        }
      ],
      "name": "deposit",
      "outputs": [],
      "stateMutability": "nonpayable",
      "type": "function"
    },
    {
      "inputs": [],
      "name": "owner",
      "outputs": [
        {
          "internalType": "address",
          "name": "",
          "type": "address"
        }
      ],
      "stateMutability": "view",
      "type": "function"
    },
    {
      "inputs": [
        {
          "components": [
            {
              "internalType": "address",
              "name": "token",
              "type": "address"
            },
            {
              "internalType": "uint256",
              "name": "amount",
              "type": "uint256"
            }
          ],
          "internalType": "struct ProtocolTypes.Output[]",
          "name": "inputs",
          "type": "tuple[]"
        },
        {
          "internalType": "bytes",
          "name": "data",
          "type": "bytes"
        }
      ],
      "name": "processLendingInstruction",
      "outputs": [
        {
          "components": [
            {
              "internalType": "address",
              "name": "token",
              "type": "address"
            },
            {
              "internalType": "uint256",
              "name": "amount",
              "type": "uint256"
            }
          ],
          "internalType": "struct ProtocolTypes.Output[]",
          "name": "outputs",
          "type": "tuple[]"
        }
      ],
      "stateMutability": "nonpayable",
      "type": "function"
    },
    {
      "inputs": [],
      "name": "renounceOwnership",
      "outputs": [],
      "stateMutability": "nonpayable",
      "type": "function"
    },
    {
      "inputs": [
        {
          "internalType": "address",
          "name": "token",
          "type": "address"
        },
        {
          "internalType": "address",
          "name": "user",
          "type": "address"
        },
        {
          "internalType": "uint256",
          "name": "amount",
          "type": "uint256"
        }
      ],
      "name": "repay",
      "outputs": [
        {
          "internalType": "uint256",
          "name": "refund",
          "type": "uint256"
        }
      ],
      "stateMutability": "nonpayable",
      "type": "function"
    },
    {
      "inputs": [
        {
          "internalType": "address",
          "name": "_comptroller",
          "type": "address"
        }
      ],
      "name": "setComptroller",
      "outputs": [],
      "stateMutability": "nonpayable",
      "type": "function"
    },
    {
      "inputs": [
        {
          "internalType": "address",
          "name": "newOwner",
          "type": "address"
        }
      ],
      "name": "transferOwnership",
      "outputs": [],
      "stateMutability": "nonpayable",
      "type": "function"
    },
    {
      "inputs": [
        {
          "internalType": "address",
          "name": "collateral",
          "type": "address"
        },
        {
          "internalType": "address",
          "name": "user",
          "type": "address"
        },
        {
          "internalType": "uint256",
          "name": "underlyingAmount",
          "type": "uint256"
        }
      ],
      "name": "withdrawCollateral",
      "outputs": [
        {
          "internalType": "address",
          "name": "",
          "type": "address"
        },
        {
          "internalType": "uint256",
          "name": "",
          "type": "uint256"
        }
      ],
      "stateMutability": "nonpayable",
      "type": "function"
    }
  ],
  "transactionHash": "0xeafffd13716ab003aa0786a7e75e0eb250b940505e555f427377e2822388f423",
  "args": [
    "0x317c1A5739F39046E20b08ac9BeEa3f10fD43326",
    "0xE951B26Cc88991e563E4d6427B3d30327c9c4792",
    "0x0BE61223F99E57b8b8B7033a77B54Adc7f7cF027"
  ],
  "numDeployments": 7,
  "solcInputHash": "7cd906cb01db1515362e3fa31e206c6c",
  "bytecode": "0x60a060405234801561000f575f5ffd5b5060405161345238038061345283398101604081905261002e91610159565b80826001600160a01b03811661008b5760405162461bcd60e51b815260206004820152601d60248201527f526f7574657220616464726573732063616e6e6f74206265207a65726f00000060448201526064015b60405180910390fd5b6001600160a01b0390811660805281166100ba57604051631e4fbdf760e01b81525f6004820152602401610082565b6100c3816100ef565b50506001805550600280546001600160a01b0319166001600160a01b0392909216919091179055610199565b5f80546001600160a01b038381166001600160a01b0319831681178455604051919092169283917f8be0079c531659141344cd1fd0a4f28419497f9722a3daafe3b4186f6b6457e09190a35050565b80516001600160a01b0381168114610154575f5ffd5b919050565b5f5f5f6060848603121561016b575f5ffd5b6101748461013e565b92506101826020850161013e565b91506101906040850161013e565b90509250925092565b6080516132856101cd5f395f8181610126015281816111f40152818161154401528181611ba40152611d3101526132855ff3fe608060405234801561000f575f5ffd5b50600436106100b1575f3560e01c8063715018a61161006e578063715018a6146101885780638340f549146101905780638bad38dd146101a35780638da5cb5b146101b6578063ae4be46d146101c6578063f2fde38b146101e6575f5ffd5b806317c2a46b146100b55780631da649cf146100df5780632ae8bdfe1461010057806332fe7b26146101215780635224372c146101605780635fe3b56714610175575b5f5ffd5b6100c86100c3366004612b3e565b6101f9565b6040516100d6929190612c01565b60405180910390f35b6100f26100ed366004612c96565b6111e8565b6040519081526020016100d6565b61011361010e366004612c96565b611536565b6040516100d6929190612cd4565b6101487f000000000000000000000000000000000000000000000000000000000000000081565b6040516001600160a01b0390911681526020016100d6565b61017361016e366004612c96565b611b98565b005b600254610148906001600160a01b031681565b610173611d13565b61017361019e366004612c96565b611d26565b6101736101b1366004612ced565b61207a565b5f546001600160a01b0316610148565b6101d96101d4366004612d4c565b6120a4565b6040516100d69190612de4565b6101736101f4366004612ced565b612699565b6060805f5f5b85811015610336573687878381811061021a5761021a612e3b565b905060200281019061022c9190612e4f565b90505f61023c6020830183612e94565b600681111561024d5761024d612e6d565b036102645761025d600284612ec1565b925061032d565b60046102736020830183612e94565b600681111561028457610284612e6d565b0361029b578261029381612ed4565b93505061032d565b60016102aa6020830183612e94565b60068111156102bb576102bb612e6d565b036102cb5761025d600284612ec1565b60026102da6020830183612e94565b60068111156102eb576102eb612e6d565b036102fa578261029381612ed4565b60036103096020830183612e94565b600681111561031a5761031a612e6d565b0361032d578261032981612ed4565b9350505b506001016101ff565b50806001600160401b0381111561034f5761034f612eec565b604051908082528060200260200182016040528015610378578160200160208202803683370190505b509250806001600160401b0381111561039357610393612eec565b6040519080825280602002602001820160405280156103c657816020015b60608152602001906001900390816103b15790505b5091505f5f5b868110156111dd57368888838181106103e7576103e7612e3b565b90506020028101906103f99190612e4f565b90505f6104096020830183612e94565b600681111561041a5761041a612e6d565b036107d6575f6104306040830160208401612ced565b604051636eb1769f60e11b81526001600160a01b038a81166004830152306024830152919091169063dd62ed3e90604401602060405180830381865afa15801561047c573d5f5f3e3d5ffd5b505050506040513d601f19601f820116820180604052508101906104a09190612f00565b90506060820135158015906104b9575081606001358110155b15610522575f8785815181106104d1576104d1612e3b565b60200260200101906001600160a01b031690816001600160a01b03168152505060405180602001604052805f81525086858151811061051257610512612e3b565b60200260200101819052506105cd565b6105326040830160208401612ced565b87858151811061054457610544612e3b565b6001600160a01b039092166020928302919091019091015260405163095ea7b360e01b9061057c903090606086013590602401612cd4565b604051602081830303815290604052906001600160e01b0319166020820180516001600160e01b0383818316178352505050508685815181106105c1576105c1612e3b565b60200260200101819052505b836105d781612ed4565b94505f90506105f46105ef6040850160208601612ced565b6126d6565b60025460405163929fe9a160e01b81526001600160a01b038c8116600483015280841660248301529293505f929091169063929fe9a190604401602060405180830381865afa925050508015610667575060408051601f3d908101601f1916820190925261066491810190612f17565b60015b1561066f5790505b80156106d9575f89878151811061068857610688612e3b565b60200260200101906001600160a01b031690816001600160a01b03168152505060405180602001604052805f8152508887815181106106c9576106c9612e3b565b60200260200101819052506107c1565b6040805160018082528183019092525f916020808301908036833701905050905082815f8151811061070d5761070d612e3b565b6001600160a01b0392831660209182029290920101526002548b519116908b908990811061073d5761073d612e3b565b6001600160a01b0390921660209283029190910190910152604051631853304760e31b9061076f908390602401612f36565b604051602081830303815290604052906001600160e01b0319166020820180516001600160e01b0383818316178352505050508988815181106107b4576107b4612e3b565b6020026020010181905250505b856107cb81612ed4565b9650505050506111d4565b60046107e56020830183612e94565b60068111156107f6576107f6612e6d565b036109bc575f61080c6040830160208401612ced565b604051636eb1769f60e11b81526001600160a01b038a81166004830152306024830152919091169063dd62ed3e90604401602060405180830381865afa158015610858573d5f5f3e3d5ffd5b505050506040513d601f19601f8201168201806040525081019061087c9190612f00565b9050606082013515801590610895575081606001358110155b156108fe575f8785815181106108ad576108ad612e3b565b60200260200101906001600160a01b031690816001600160a01b03168152505060405180602001604052805f8152508685815181106108ee576108ee612e3b565b60200260200101819052506109a9565b61090e6040830160208401612ced565b87858151811061092057610920612e3b565b6001600160a01b039092166020928302919091019091015260405163095ea7b360e01b90610958903090606086013590602401612cd4565b604051602081830303815290604052906001600160e01b0319166020820180516001600160e01b03838183161783525050505086858151811061099d5761099d612e3b565b60200260200101819052505b836109b381612ed4565b945050506111d4565b60016109cb6020830183612e94565b60068111156109dc576109dc612e6d565b03610d7c575f6109f26040830160208401612ced565b90505f6109fe826126d6565b604051636eb1769f60e11b81526001600160a01b038b811660048301523060248301529192505f9184169063dd62ed3e90604401602060405180830381865afa158015610a4d573d5f5f3e3d5ffd5b505050506040513d601f19601f82011682018060405250810190610a719190612f00565b9050606084013515801590610a8a575083606001358110155b15610af3575f898781518110610aa257610aa2612e3b565b60200260200101906001600160a01b031690816001600160a01b03168152505060405180602001604052805f815250888781518110610ae357610ae3612e3b565b6020026020010181905250610b8f565b82898781518110610b0657610b06612e3b565b6001600160a01b039092166020928302919091019091015260405163095ea7b360e01b90610b3e903090606088013590602401612cd4565b604051602081830303815290604052906001600160e01b0319166020820180516001600160e01b038381831617835250505050888781518110610b8357610b83612e3b565b60200260200101819052505b85610b9981612ed4565b60025460405163929fe9a160e01b81526001600160a01b038e8116600483015286811660248301529299505f935091169063929fe9a190604401602060405180830381865afa925050508015610c0c575060408051601f3d908101601f19168201909252610c0991810190612f17565b60015b15610c145790505b8015610c7e575f8a8881518110610c2d57610c2d612e3b565b60200260200101906001600160a01b031690816001600160a01b03168152505060405180602001604052805f815250898881518110610c6e57610c6e612e3b565b6020026020010181905250610d66565b6040805160018082528183019092525f916020808301908036833701905050905083815f81518110610cb257610cb2612e3b565b6001600160a01b0392831660209182029290920101526002548c519116908c908a908110610ce257610ce2612e3b565b6001600160a01b0390921660209283029190910190910152604051631853304760e31b90610d14908390602401612f36565b604051602081830303815290604052906001600160e01b0319166020820180516001600160e01b0383818316178352505050508a8981518110610d5957610d59612e3b565b6020026020010181905250505b86610d7081612ed4565b975050505050506111d4565b6002610d8b6020830183612e94565b6006811115610d9c57610d9c612e6d565b03611027575f610db26040830160208401612ced565b90505f610dbe826126d6565b90505f816001600160a01b031663182df0f56040518163ffffffff1660e01b8152600401602060405180830381865afa158015610dfd573d5f5f3e3d5ffd5b505050506040513d601f19601f82011682018060405250810190610e219190612f00565b90505f606085013515610e6b5781600181610e486060890135670de0b6b3a7640000612f48565b610e529190612ec1565b610e5c9190612f5f565b610e669190612f72565b610e6e565b5f195b604051636eb1769f60e11b81526001600160a01b038d811660048301523060248301529192505f9185169063dd62ed3e90604401602060405180830381865afa158015610ebd573d5f5f3e3d5ffd5b505050506040513d601f19601f82011682018060405250810190610ee19190612f00565b9050606086013515801590610ef65750818110155b80610f0e57506060860135158015610f0e57505f1981145b15610f77575f8b8981518110610f2657610f26612e3b565b60200260200101906001600160a01b031690816001600160a01b03168152505060405180602001604052805f8152508a8981518110610f6757610f67612e3b565b6020026020010181905250611010565b838b8981518110610f8a57610f8a612e3b565b6001600160a01b039092166020928302919091019091015260405163095ea7b360e01b90610fbf9030905f1990602401612cd4565b604051602081830303815290604052906001600160e01b0319166020820180516001600160e01b0383818316178352505050508a898151811061100457611004612e3b565b60200260200101819052505b8761101a81612ed4565b98505050505050506111d4565b60036110366020830183612e94565b600681111561104757611047612e6d565b036111d457600254604051630217306760e31b81526001600160a01b0389811660048301523060248301525f9216906310b9833890604401602060405180830381865afa9250505080156110b8575060408051601f3d908101601f191682019092526110b591810190612f17565b60015b156110c05790505b801561112a575f8785815181106110d9576110d9612e3b565b60200260200101906001600160a01b031690816001600160a01b03168152505060405180602001604052805f81525086858151811061111a5761111a612e3b565b60200260200101819052506111c5565b60025487516001600160a01b039091169088908690811061114d5761114d612e3b565b6001600160a01b039290921660209283029190910182015260408051306024820152600160448083019190915282518083039091018152606490910190915290810180516001600160e01b031663ddbf54fd60e01b17905286518790869081106111b9576111b9612e3b565b60200260200101819052505b836111cf81612ed4565b945050505b506001016103cc565b505050935093915050565b5f336001600160a01b037f0000000000000000000000000000000000000000000000000000000000000000161461125d5760405162461bcd60e51b815260206004820152601460248201527313db9b1e481c9bdd5d195c8818d85b8818d85b1b60621b60448201526064015b60405180910390fd5b611265612863565b5f61126f856126d6565b6040516370a0823160e01b81523060048201529091505f906001600160a01b038716906370a0823190602401602060405180830381865afa1580156112b6573d5f5f3e3d5ffd5b505050506040513d601f19601f820116820180604052508101906112da9190612f00565b90506112f16001600160a01b03871633308761288d565b60405163095ea7b360e01b81526001600160a01b0387169063095ea7b39061131f9085905f90600401612cd4565b6020604051808303815f875af115801561133b573d5f5f3e3d5ffd5b505050506040513d601f19601f8201168201806040525081019061135f9190612f17565b5060405163095ea7b360e01b81526001600160a01b0387169063095ea7b39061138e9085908890600401612cd4565b6020604051808303815f875af11580156113aa573d5f5f3e3d5ffd5b505050506040513d601f19601f820116820180604052508101906113ce9190612f17565b506040516304c11f0360e31b81525f906001600160a01b03841690632608f818906113ff9089908990600401612cd4565b6020604051808303815f875af115801561141b573d5f5f3e3d5ffd5b505050506040513d601f19601f8201168201806040525081019061143f9190612f00565b905080156114855760405162461bcd60e51b815260206004820152601360248201527215995b9d5cce881c995c185e4819985a5b1959606a1b6044820152606401611254565b6040516370a0823160e01b81523060048201525f906001600160a01b038916906370a0823190602401602060405180830381865afa1580156114c9573d5f5f3e3d5ffd5b505050506040513d601f19601f820116820180604052508101906114ed9190612f00565b90508281116114fc575f611506565b6115068382612f5f565b94508415611522576115226001600160a01b03891633876128f4565b5050505061152f60018055565b9392505050565b5f8083336001600160a01b037f00000000000000000000000000000000000000000000000000000000000000001614806115785750336001600160a01b038216145b6115c45760405162461bcd60e51b815260206004820152601c60248201527f4f6e6c7920726f75746572206f722073656c662063616e2063616c6c000000006044820152606401611254565b6115cc612863565b5f6115d6876126d6565b6040516305eff7ef60e21b81526001600160a01b0388811660048301529192505f918316906317bfdfbc906024016020604051808303815f875af1158015611620573d5f5f3e3d5ffd5b505050506040513d601f19601f820116820180604052508101906116449190612f00565b90508086106118e7576040516370a0823160e01b81526001600160a01b03888116600483015291965086915f91908416906370a0823190602401602060405180830381865afa158015611699573d5f5f3e3d5ffd5b505050506040513d601f19601f820116820180604052508101906116bd9190612f00565b6040516323b872dd60e01b81526001600160a01b038a8116600483015230602483015260448201839052919250908416906323b872dd906064016020604051808303815f875af1158015611713573d5f5f3e3d5ffd5b505050506040513d601f19601f820116820180604052508101906117379190612f17565b506040516370a0823160e01b81523060048201525f906001600160a01b038b16906370a0823190602401602060405180830381865afa15801561177c573d5f5f3e3d5ffd5b505050506040513d601f19601f820116820180604052508101906117a09190612f00565b60405163db006a7560e01b8152600481018490529091505f906001600160a01b0386169063db006a75906024016020604051808303815f875af11580156117e9573d5f5f3e3d5ffd5b505050506040513d601f19601f8201168201806040525081019061180d9190612f00565b9050801561182d5760405162461bcd60e51b815260040161125490612f91565b801561184b5760405162461bcd60e51b815260040161125490612f91565b6040516370a0823160e01b81523060048201525f906001600160a01b038d16906370a0823190602401602060405180830381865afa15801561188f573d5f5f3e3d5ffd5b505050506040513d601f19601f820116820180604052508101906118b39190612f00565b90505f6118c08483612f5f565b90506118d66001600160a01b038e1633836128f4565b8c99509750611b8695505050505050565b5f826001600160a01b031663bd6d894d6040518163ffffffff1660e01b81526004016020604051808303815f875af1158015611925573d5f5f3e3d5ffd5b505050506040513d601f19601f820116820180604052508101906119499190612f00565b90505f816001816119628b670de0b6b3a7640000612f48565b61196c9190612ec1565b6119769190612f5f565b6119809190612f72565b6040516323b872dd60e01b81526001600160a01b038b8116600483015230602483015260448201839052919250908516906323b872dd906064016020604051808303815f875af11580156119d6573d5f5f3e3d5ffd5b505050506040513d601f19601f820116820180604052508101906119fa9190612f17565b506040516370a0823160e01b81523060048201525f906001600160a01b038c16906370a0823190602401602060405180830381865afa158015611a3f573d5f5f3e3d5ffd5b505050506040513d601f19601f82011682018060405250810190611a639190612f00565b60405163db006a7560e01b8152600481018490529091505f906001600160a01b0387169063db006a75906024016020604051808303815f875af1158015611aac573d5f5f3e3d5ffd5b505050506040513d601f19601f82011682018060405250810190611ad09190612f00565b90508015611af05760405162461bcd60e51b815260040161125490612f91565b6040516370a0823160e01b81523060048201525f9083906001600160a01b038f16906370a0823190602401602060405180830381865afa158015611b36573d5f5f3e3d5ffd5b505050506040513d601f19601f82011682018060405250810190611b5a9190612f00565b611b649190612f5f565b9050611b7a6001600160a01b038e1633836128f4565b8c995097505050505050505b611b8f60018055565b50935093915050565b81336001600160a01b037f0000000000000000000000000000000000000000000000000000000000000000161480611bd85750336001600160a01b038216145b611c245760405162461bcd60e51b815260206004820152601c60248201527f4f6e6c7920726f75746572206f722073656c662063616e2063616c6c000000006044820152606401611254565b611c2c612863565b5f611c36856126d6565b90505f816001600160a01b031663856e5bb386866040518363ffffffff1660e01b8152600401611c67929190612cd4565b6020604051808303815f875af1158015611c83573d5f5f3e3d5ffd5b505050506040513d601f19601f82011682018060405250810190611ca79190612f00565b90508015611cee5760405162461bcd60e51b815260206004820152601460248201527315995b9d5cce88189bdc9c9bddc819985a5b195960621b6044820152606401611254565b611d026001600160a01b03871633866128f4565b5050611d0d60018055565b50505050565b611d1b61291a565b611d245f612946565b565b336001600160a01b037f00000000000000000000000000000000000000000000000000000000000000001614611d955760405162461bcd60e51b815260206004820152601460248201527313db9b1e481c9bdd5d195c8818d85b8818d85b1b60621b6044820152606401611254565b611d9d612863565b5f611da7846126d6565b9050611dbe6001600160a01b03851633308561288d565b60405163095ea7b360e01b81526001600160a01b0385169063095ea7b390611dec9084905f90600401612cd4565b6020604051808303815f875af1158015611e08573d5f5f3e3d5ffd5b505050506040513d601f19601f82011682018060405250810190611e2c9190612f17565b5060405163095ea7b360e01b81526001600160a01b0385169063095ea7b390611e5b9084908690600401612cd4565b6020604051808303815f875af1158015611e77573d5f5f3e3d5ffd5b505050506040513d601f19601f82011682018060405250810190611e9b9190612f17565b5060405163140e25ad60e31b8152600481018390525f906001600160a01b0383169063a0712d68906024016020604051808303815f875af1158015611ee2573d5f5f3e3d5ffd5b505050506040513d601f19601f82011682018060405250810190611f069190612f00565b90508015611f4b5760405162461bcd60e51b815260206004820152601260248201527115995b9d5cce881b5a5b9d0819985a5b195960721b6044820152606401611254565b6040516370a0823160e01b81523060048201525f906001600160a01b038416906370a0823190602401602060405180830381865afa158015611f8f573d5f5f3e3d5ffd5b505050506040513d601f19601f82011682018060405250810190611fb39190612f00565b90505f8111611ffa5760405162461bcd60e51b815260206004820152601360248201527256656e75733a207a65726f2076546f6b656e7360681b6044820152606401611254565b60405163a9059cbb60e01b81526001600160a01b0384169063a9059cbb906120289088908590600401612cd4565b6020604051808303815f875af1158015612044573d5f5f3e3d5ffd5b505050506040513d601f19601f820116820180604052508101906120689190612f17565b5050505061207560018055565b505050565b61208261291a565b600280546001600160a01b0319166001600160a01b0392909216919091179055565b60605f6120b383850185613056565b6020810151606082015160a08301515192935090918711156121265787878460a001515f01518181106120e8576120e8612e3b565b6120fe9260206040909202019081019150612ced565b915087878460a001515f015181811061211957612119612e3b565b9050604002016020013590505b5f8351600681111561213a5761213a612e6d565b1480612158575060018351600681111561215657612156612e6d565b145b156121af5761216c82846040015183611d26565b604080515f80825260208201909252906121a7565b604080518082019091525f80825260208201528152602001906001900390816121815790505b50935061268e565b6002835160068111156121c4576121c4612e6d565b0361225e575f5f6121da84866040015185611536565b604080516001808252818301909252929450909250816020015b604080518082019091525f80825260208201528152602001906001900390816121f45790505095506040518060400160405280836001600160a01b0316815260200182815250865f8151811061224c5761224c612e3b565b6020026020010181905250505061268e565b60038351600681111561227357612273612e6d565b036123045761228782846040015183611b98565b60408051600180825281830190925290816020015b604080518082019091525f808252602082015281526020019060019003908161229c5790505093506040518060400160405280836001600160a01b0316815260200182815250845f815181106122f4576122f4612e3b565b602002602001018190525061268e565b60048351600681111561231957612319612e6d565b036123ae575f61232e838560400151846111e8565b604080516001808252818301909252919250816020015b604080518082019091525f80825260208201528152602001906001900390816123455790505094506040518060400160405280846001600160a01b0316815260200182815250855f8151811061239d5761239d612e3b565b60200260200101819052505061268e565b6005835160068111156123c3576123c3612e6d565b036124b5575f6123d2836126d6565b60408086015190516305eff7ef60e21b81526001600160a01b0391821660048201529192505f91908316906317bfdfbc906024016020604051808303815f875af1158015612422573d5f5f3e3d5ffd5b505050506040513d601f19601f820116820180604052508101906124469190612f00565b604080516001808252818301909252919250816020015b604080518082019091525f808252602082015281526020019060019003908161245d5790505095506040518060400160405280856001600160a01b0316815260200182815250865f8151811061224c5761224c612e3b565b6006835160068111156124ca576124ca612e6d565b03612652575f6124d9836126d6565b60408086015190516370a0823160e01b81526001600160a01b0391821660048201529192505f91908316906370a0823190602401602060405180830381865afa158015612528573d5f5f3e3d5ffd5b505050506040513d601f19601f8201168201806040525081019061254c9190612f00565b90505f826001600160a01b031663182df0f56040518163ffffffff1660e01b8152600401602060405180830381865afa15801561258b573d5f5f3e3d5ffd5b505050506040513d601f19601f820116820180604052508101906125af9190612f00565b90505f670de0b6b3a76400006125c58385612f48565b6125cf9190612f72565b604080516001808252818301909252919250816020015b604080518082019091525f80825260208201528152602001906001900390816125e65790505097506040518060400160405280876001600160a01b0316815260200182815250885f8151811061263e5761263e612e3b565b60200260200101819052505050505061268e565b60405162461bcd60e51b8152602060048201526011602482015270056656e75733a20756e6b6e6f776e206f7607c1b6044820152606401611254565b505050949350505050565b6126a161291a565b6001600160a01b0381166126ca57604051631e4fbdf760e01b81525f6004820152602401611254565b6126d381612946565b50565b5f5f60025f9054906101000a90046001600160a01b03166001600160a01b031663b0772d0b6040518163ffffffff1660e01b81526004015f60405180830381865afa158015612727573d5f5f3e3d5ffd5b505050506040513d5f823e601f3d908101601f1916820160405261274e919081019061316c565b90505f5b815181101561281a5781818151811061276d5761276d612e3b565b60200260200101516001600160a01b0316636f307dc36040518163ffffffff1660e01b8152600401602060405180830381865afa9250505080156127ce575060408051601f3d908101601f191682019092526127cb9181019061321e565b60015b1561281257846001600160a01b0316816001600160a01b031603612810578282815181106127fe576127fe612e3b565b60200260200101519350505050919050565b505b600101612752565b5060405162461bcd60e51b815260206004820152601760248201527f56656e75733a2076546f6b656e206e6f7420666f756e640000000000000000006044820152606401611254565b60026001540361288657604051633ee5aeb560e01b815260040160405180910390fd5b6002600155565b6040516001600160a01b038481166024830152838116604483015260648201839052611d0d9186918216906323b872dd906084015b604051602081830303815290604052915060e01b6020820180516001600160e01b038381831617835250505050612995565b61207583846001600160a01b031663a9059cbb85856040516024016128c2929190612cd4565b5f546001600160a01b03163314611d245760405163118cdaa760e01b8152336004820152602401611254565b5f80546001600160a01b038381166001600160a01b0319831681178455604051919092169283917f8be0079c531659141344cd1fd0a4f28419497f9722a3daafe3b4186f6b6457e09190a35050565b5f6129a96001600160a01b038416836129f6565b905080515f141580156129cd5750808060200190518101906129cb9190612f17565b155b1561207557604051635274afe760e01b81526001600160a01b0384166004820152602401611254565b6060612a0383835f612a0c565b90505b92915050565b606081471015612a315760405163cd78605960e01b8152306004820152602401611254565b5f5f856001600160a01b03168486604051612a4c9190613239565b5f6040518083038185875af1925050503d805f8114612a86576040519150601f19603f3d011682016040523d82523d5f602084013e612a8b565b606091505b5091509150612a9b868383612aa5565b9695505050505050565b606082612aba57612ab582612b01565b61152f565b8151158015612ad157506001600160a01b0384163b155b15612afa57604051639996b31560e01b81526001600160a01b0385166004820152602401611254565b508061152f565b805115612b115780518082602001fd5b604051630a12f52160e11b815260040160405180910390fd5b6001600160a01b03811681146126d3575f5ffd5b5f5f5f60408486031215612b50575f5ffd5b83356001600160401b03811115612b65575f5ffd5b8401601f81018613612b75575f5ffd5b80356001600160401b03811115612b8a575f5ffd5b8660208260051b8401011115612b9e575f5ffd5b602091820194509250840135612bb381612b2a565b809150509250925092565b5f8151808452602084019350602083015f5b82811015612bf75781516001600160a01b0316865260209586019590910190600101612bd0565b5093949350505050565b604081525f612c136040830185612bbe565b828103602084015280845180835260208301915060208160051b840101602087015f5b83811015612c8857601f19868403018552815180518085528060208301602087015e5f602082870101526020601f19601f83011686010194505050602082019150602085019450600181019050612c36565b509098975050505050505050565b5f5f5f60608486031215612ca8575f5ffd5b8335612cb381612b2a565b92506020840135612cc381612b2a565b929592945050506040919091013590565b6001600160a01b03929092168252602082015260400190565b5f60208284031215612cfd575f5ffd5b813561152f81612b2a565b5f5f83601f840112612d18575f5ffd5b5081356001600160401b03811115612d2e575f5ffd5b602083019150836020828501011115612d45575f5ffd5b9250929050565b5f5f5f5f60408587031215612d5f575f5ffd5b84356001600160401b03811115612d74575f5ffd5b8501601f81018713612d84575f5ffd5b80356001600160401b03811115612d99575f5ffd5b8760208260061b8401011115612dad575f5ffd5b6020918201955093508501356001600160401b03811115612dcc575f5ffd5b612dd887828801612d08565b95989497509550505050565b602080825282518282018190525f918401906040840190835b81811015612e3057835180516001600160a01b031684526020908101518185015290930192604090920191600101612dfd565b509095945050505050565b634e487b7160e01b5f52603260045260245ffd5b5f823560be19833603018112612e63575f5ffd5b9190910192915050565b634e487b7160e01b5f52602160045260245ffd5b803560078110612e8f575f5ffd5b919050565b5f60208284031215612ea4575f5ffd5b612a0382612e81565b634e487b7160e01b5f52601160045260245ffd5b80820180821115612a0657612a06612ead565b5f60018201612ee557612ee5612ead565b5060010190565b634e487b7160e01b5f52604160045260245ffd5b5f60208284031215612f10575f5ffd5b5051919050565b5f60208284031215612f27575f5ffd5b8151801515811461152f575f5ffd5b602081525f612a036020830184612bbe565b8082028115828204841417612a0657612a06612ead565b81810381811115612a0657612a06612ead565b5f82612f8c57634e487b7160e01b5f52601260045260245ffd5b500490565b60208082526014908201527315995b9d5cce881c995919595b4819985a5b195960621b604082015260600190565b60405160c081016001600160401b0381118282101715612fe157612fe1612eec565b60405290565b604051601f8201601f191681016001600160401b038111828210171561300f5761300f612eec565b604052919050565b5f60208284031215613027575f5ffd5b604051602081016001600160401b038111828210171561304957613049612eec565b6040529135825250919050565b5f60208284031215613066575f5ffd5b81356001600160401b0381111561307b575f5ffd5b820160c0818503121561308c575f5ffd5b613094612fbf565b61309d82612e81565b815260208201356130ad81612b2a565b602082015260408201356130c081612b2a565b60408201526060828101359082015260808201356001600160401b038111156130e7575f5ffd5b8201601f810186136130f7575f5ffd5b80356001600160401b0381111561311057613110612eec565b613123601f8201601f1916602001612fe7565b818152876020838501011115613137575f5ffd5b816020840160208301375f6020838301015280608085015250505061315f8560a08401613017565b60a0820152949350505050565b5f6020828403121561317c575f5ffd5b81516001600160401b03811115613191575f5ffd5b8201601f810184136131a1575f5ffd5b80516001600160401b038111156131ba576131ba612eec565b8060051b6131ca60208201612fe7565b918252602081840181019290810190878411156131e5575f5ffd5b6020850194505b83851015613213578451925061320183612b2a565b828252602094850194909101906131ec565b979650505050505050565b5f6020828403121561322e575f5ffd5b815161152f81612b2a565b5f82518060208501845e5f92019182525091905056fea2646970667358221220a387f1e5fc38774b3efb2f2931e32a4ae9ec79bfd7a80aa5c0c4f09e4148151b64736f6c634300081e0033",
  "devdoc": {
    "errors": {
      "AddressEmptyCode(address)": [
        {
          "details": "There's no code at `target` (it is not a contract)."
        }
      ],
      "AddressInsufficientBalance(address)": [
        {
          "details": "The ETH balance of the account is not enough to perform the operation."
        }
      ],
      "FailedInnerCall()": [
        {
          "details": "A call to an address target failed. The target may have reverted."
        }
      ],
      "OwnableInvalidOwner(address)": [
        {
          "details": "The owner is not a valid owner account. (eg. `address(0)`)"
        }
      ],
      "OwnableUnauthorizedAccount(address)": [
        {
          "details": "The caller account is not authorized to perform an operation."
        }
      ],
      "ReentrancyGuardReentrantCall()": [
        {
          "details": "Unauthorized reentrant call."
        }
      ],
      "SafeERC20FailedOperation(address)": [
        {
          "details": "An operation with an ERC20 token failed."
        }
      ]
    },
    "kind": "dev",
    "methods": {
      "owner()": {
        "details": "Returns the address of the current owner."
      },
      "renounceOwnership()": {
        "details": "Leaves the contract without owner. It will not be possible to call `onlyOwner` functions. Can only be called by the current owner. NOTE: Renouncing ownership will leave the contract without an owner, thereby disabling any functionality that is only available to the owner."
      },
      "transferOwnership(address)": {
        "details": "Transfers ownership of the contract to a new account (`newOwner`). Can only be called by the current owner."
      }
    },
    "version": 1
  },
  "userdoc": {
    "kind": "user",
    "methods": {
      "authorize((uint8,address,address,uint256,bytes,(uint256))[],address)": {
        "notice": "Return user-side authorization calls for the given lending instructions.         One element per input (or (address(0), bytes(\"\")) if none needed)."
      }
    },
    "version": 1
  },
  "storageLayout": {
    "storage": [
      {
        "astId": 8,
        "contract": "contracts/v2/gateways/venus/VenusGatewayWrite.sol:VenusGatewayWrite",
        "label": "_owner",
        "offset": 0,
        "slot": "0",
        "type": "t_address"
      },
      {
        "astId": 845,
        "contract": "contracts/v2/gateways/venus/VenusGatewayWrite.sol:VenusGatewayWrite",
        "label": "_status",
        "offset": 0,
        "slot": "1",
        "type": "t_uint256"
      },
      {
        "astId": 1480,
        "contract": "contracts/v2/gateways/venus/VenusGatewayWrite.sol:VenusGatewayWrite",
        "label": "comptroller",
        "offset": 0,
        "slot": "2",
        "type": "t_contract(ComptrollerInterface)1152"
      }
    ],
    "types": {
      "t_address": {
        "encoding": "inplace",
        "label": "address",
        "numberOfBytes": "20"
      },
      "t_contract(ComptrollerInterface)1152": {
        "encoding": "inplace",
        "label": "contract ComptrollerInterface",
        "numberOfBytes": "20"
      },
      "t_uint256": {
        "encoding": "inplace",
        "label": "uint256",
        "numberOfBytes": "32"
      }
    }
  }
}